{
  "_format": "hh-sol-artifact-1",
  "contractName": "StakingShim",
  "sourceName": "contracts/staking/StakingShim.sol",
  "abi": [
    {
      "inputs": [],
      "name": "AccessControlBadConfirmation",
      "type": "error"
    },
    {
      "inputs": [
        {
          "internalType": "address",
          "name": "account",
          "type": "address"
        },
        {
          "internalType": "bytes32",
          "name": "neededRole",
          "type": "bytes32"
        }
      ],
      "name": "AccessControlUnauthorizedAccount",
      "type": "error"
    },
    {
      "inputs": [],
      "name": "DeepthoughtCallFailed",
      "type": "error"
    },
    {
      "inputs": [],
      "name": "DelegatorBelowMinimumStake",
      "type": "error"
    },
    {
      "inputs": [],
      "name": "DelegatorExitExceedsShares",
      "type": "error"
    },
    {
      "inputs": [],
      "name": "DelegatorExitWouldBeBelowMinimum",
      "type": "error"
    },
    {
      "inputs": [],
      "name": "DelegatorMayNotJoinTwoValidatorsSimultaneously",
      "type": "error"
    },
    {
      "inputs": [],
      "name": "DelegatorMayNotJoinWithZeroValue",
      "type": "error"
    },
    {
      "inputs": [],
      "name": "EpochAdvanceNotReady",
      "type": "error"
    },
    {
      "inputs": [],
      "name": "EpochAlreadyFinalized",
      "type": "error"
    },
    {
      "inputs": [],
      "name": "EpochNotFinalized",
      "type": "error"
    },
    {
      "inputs": [],
      "name": "EpochNotFinished",
      "type": "error"
    },
    {
      "inputs": [
        {
          "internalType": "address",
          "name": "validator",
          "type": "address"
        }
      ],
      "name": "FailedTransfer",
      "type": "error"
    },
    {
      "inputs": [],
      "name": "InflationAlreadyInitialized",
      "type": "error"
    },
    {
      "inputs": [],
      "name": "InflationAlreadyReceived",
      "type": "error"
    },
    {
      "inputs": [],
      "name": "InflationInvalidAmount",
      "type": "error"
    },
    {
      "inputs": [],
      "name": "InvalidAtEpoch",
      "type": "error"
    },
    {
      "inputs": [],
      "name": "InvalidInitialization",
      "type": "error"
    },
    {
      "inputs": [],
      "name": "InvalidOperatorAddress",
      "type": "error"
    },
    {
      "inputs": [],
      "name": "MaxNumberOfValidatorsReached",
      "type": "error"
    },
    {
      "inputs": [],
      "name": "MaxValidatorsCannotBeZero",
      "type": "error"
    },
    {
      "inputs": [],
      "name": "NFTMinterCallFailed",
      "type": "error"
    },
    {
      "inputs": [],
      "name": "NFTMinterNotConfigured",
      "type": "error"
    },
    {
      "inputs": [],
      "name": "NoBurning",
      "type": "error"
    },
    {
      "inputs": [],
      "name": "NotInitializing",
      "type": "error"
    },
    {
      "inputs": [],
      "name": "NumberOfValidatorsExceedsAvailable",
      "type": "error"
    },
    {
      "inputs": [],
      "name": "OnlyGEN",
      "type": "error"
    },
    {
      "inputs": [],
      "name": "OnlyIdleness",
      "type": "error"
    },
    {
      "inputs": [],
      "name": "OnlyIdlenessOrTribunal",
      "type": "error"
    },
    {
      "inputs": [],
      "name": "OnlyTransactions",
      "type": "error"
    },
    {
      "inputs": [],
      "name": "OnlyTransactionsOrTribunal",
      "type": "error"
    },
    {
      "inputs": [],
      "name": "OnlyTribunal",
      "type": "error"
    },
    {
      "inputs": [],
      "name": "OperatorAlreadyAssigned",
      "type": "error"
    },
    {
      "inputs": [
        {
          "internalType": "address",
          "name": "owner",
          "type": "address"
        }
      ],
      "name": "OwnableInvalidOwner",
      "type": "error"
    },
    {
      "inputs": [
        {
          "internalType": "address",
          "name": "account",
          "type": "address"
        }
      ],
      "name": "OwnableUnauthorizedAccount",
      "type": "error"
    },
    {
      "inputs": [
        {
          "internalType": "uint256",
          "name": "epoch",
          "type": "uint256"
        }
      ],
      "name": "PendingTribunals",
      "type": "error"
    },
    {
      "inputs": [],
      "name": "PreviousEpochNotFinalizable",
      "type": "error"
    },
    {
      "inputs": [],
      "name": "ReductionFactorCannotBeZero",
      "type": "error"
    },
    {
      "inputs": [],
      "name": "ReentrancyGuardReentrantCall",
      "type": "error"
    },
    {
      "inputs": [],
      "name": "ValidatorAlreadyJoined",
      "type": "error"
    },
    {
      "inputs": [],
      "name": "ValidatorBelowMinimumStake",
      "type": "error"
    },
    {
      "inputs": [],
      "name": "ValidatorExitExceedsShares",
      "type": "error"
    },
    {
      "inputs": [],
      "name": "ValidatorMayNotBeDelegator",
      "type": "error"
    },
    {
      "inputs": [],
      "name": "ValidatorMayNotDepositZeroValue",
      "type": "error"
    },
    {
      "inputs": [],
      "name": "ValidatorMayNotJoinWithZeroValue",
      "type": "error"
    },
    {
      "inputs": [],
      "name": "ValidatorMustNotBeDelegator",
      "type": "error"
    },
    {
      "inputs": [],
      "name": "ValidatorNotActive",
      "type": "error"
    },
    {
      "inputs": [],
      "name": "ValidatorNotJoined",
      "type": "error"
    },
    {
      "inputs": [],
      "name": "ValidatorWithdrawalExceedsStake",
      "type": "error"
    },
    {
      "inputs": [],
      "name": "ValidatorsConsumed",
      "type": "error"
    },
    {
      "inputs": [],
      "name": "ValidatorsUnavailable",
      "type": "error"
    },
    {
      "anonymous": false,
      "inputs": [],
      "name": "AllValidatorBansRemoved",
      "type": "event"
    },
    {
      "anonymous": false,
      "inputs": [
        {
          "indexed": false,
          "internalType": "uint256",
          "name": "amount",
          "type": "uint256"
        }
      ],
      "name": "BurnToL1",
      "type": "event"
    },
    {
      "anonymous": false,
      "inputs": [
        {
          "indexed": false,
          "internalType": "address",
          "name": "delegator",
          "type": "address"
        },
        {
          "indexed": false,
          "internalType": "uint256",
          "name": "amount",
          "type": "uint256"
        }
      ],
      "name": "DelegatorClaim",
      "type": "event"
    },
    {
      "anonymous": false,
      "inputs": [
        {
          "indexed": false,
          "internalType": "address",
          "name": "validator",
          "type": "address"
        },
        {
          "indexed": false,
          "internalType": "address",
          "name": "delegator",
          "type": "address"
        },
        {
          "indexed": false,
          "internalType": "uint256",
          "name": "amount",
          "type": "uint256"
        }
      ],
      "name": "DelegatorExit",
      "type": "event"
    },
    {
      "anonymous": false,
      "inputs": [
        {
          "indexed": false,
          "internalType": "address",
          "name": "validator",
          "type": "address"
        },
        {
          "indexed": false,
          "internalType": "address",
          "name": "delegator",
          "type": "address"
        },
        {
          "indexed": false,
          "internalType": "uint256",
          "name": "amount",
          "type": "uint256"
        }
      ],
      "name": "DelegatorJoin",
      "type": "event"
    },
    {
      "anonymous": false,
      "inputs": [
        {
          "indexed": false,
          "internalType": "uint256",
          "name": "epoch",
          "type": "uint256"
        }
      ],
      "name": "EpochAdvance",
      "type": "event"
    },
    {
      "anonymous": false,
      "inputs": [
        {
          "indexed": false,
          "internalType": "uint256",
          "name": "epoch",
          "type": "uint256"
        }
      ],
      "name": "EpochFinalize",
      "type": "event"
    },
    {
      "anonymous": false,
      "inputs": [
        {
          "indexed": false,
          "internalType": "uint256",
          "name": "epoch",
          "type": "uint256"
        }
      ],
      "name": "EpochHasPendingTribunals",
      "type": "event"
    },
    {
      "anonymous": false,
      "inputs": [
        {
          "indexed": false,
          "internalType": "uint256",
          "name": "timestamp",
          "type": "uint256"
        }
      ],
      "name": "EpochZeroEnded",
      "type": "event"
    },
    {
      "anonymous": false,
      "inputs": [
        {
          "indexed": false,
          "internalType": "uint256",
          "name": "timestamp",
          "type": "uint256"
        }
      ],
      "name": "InflationInitiated",
      "type": "event"
    },
    {
      "anonymous": false,
      "inputs": [
        {
          "indexed": false,
          "internalType": "uint256",
          "name": "amount",
          "type": "uint256"
        },
        {
          "indexed": false,
          "internalType": "uint256",
          "name": "epoch",
          "type": "uint256"
        }
      ],
      "name": "InflationReceived",
      "type": "event"
    },
    {
      "anonymous": false,
      "inputs": [
        {
          "indexed": false,
          "internalType": "uint64",
          "name": "version",
          "type": "uint64"
        }
      ],
      "name": "Initialized",
      "type": "event"
    },
    {
      "anonymous": false,
      "inputs": [
        {
          "indexed": true,
          "internalType": "address",
          "name": "previousOwner",
          "type": "address"
        },
        {
          "indexed": true,
          "internalType": "address",
          "name": "newOwner",
          "type": "address"
        }
      ],
      "name": "OwnershipTransferStarted",
      "type": "event"
    },
    {
      "anonymous": false,
      "inputs": [
        {
          "indexed": true,
          "internalType": "address",
          "name": "previousOwner",
          "type": "address"
        },
        {
          "indexed": true,
          "internalType": "address",
          "name": "newOwner",
          "type": "address"
        }
      ],
      "name": "OwnershipTransferred",
      "type": "event"
    },
    {
      "anonymous": false,
      "inputs": [
        {
          "indexed": true,
          "internalType": "bytes32",
          "name": "role",
          "type": "bytes32"
        },
        {
          "indexed": true,
          "internalType": "bytes32",
          "name": "previousAdminRole",
          "type": "bytes32"
        },
        {
          "indexed": true,
          "internalType": "bytes32",
          "name": "newAdminRole",
          "type": "bytes32"
        }
      ],
      "name": "RoleAdminChanged",
      "type": "event"
    },
    {
      "anonymous": false,
      "inputs": [
        {
          "indexed": true,
          "internalType": "bytes32",
          "name": "role",
          "type": "bytes32"
        },
        {
          "indexed": true,
          "internalType": "address",
          "name": "account",
          "type": "address"
        },
        {
          "indexed": true,
          "internalType": "address",
          "name": "sender",
          "type": "address"
        }
      ],
      "name": "RoleGranted",
      "type": "event"
    },
    {
      "anonymous": false,
      "inputs": [
        {
          "indexed": true,
          "internalType": "bytes32",
          "name": "role",
          "type": "bytes32"
        },
        {
          "indexed": true,
          "internalType": "address",
          "name": "account",
          "type": "address"
        },
        {
          "indexed": true,
          "internalType": "address",
          "name": "sender",
          "type": "address"
        }
      ],
      "name": "RoleRevoked",
      "type": "event"
    },
    {
      "anonymous": false,
      "inputs": [
        {
          "indexed": false,
          "internalType": "address",
          "name": "deepthought",
          "type": "address"
        }
      ],
      "name": "SetDeepthought",
      "type": "event"
    },
    {
      "anonymous": false,
      "inputs": [
        {
          "indexed": false,
          "internalType": "uint256",
          "name": "delegatorMinStake",
          "type": "uint256"
        }
      ],
      "name": "SetDelegatorMinimumStake",
      "type": "event"
    },
    {
      "anonymous": false,
      "inputs": [
        {
          "indexed": false,
          "internalType": "uint256",
          "name": "epochMinDuration",
          "type": "uint256"
        }
      ],
      "name": "SetEpochMinDuration",
      "type": "event"
    },
    {
      "anonymous": false,
      "inputs": [
        {
          "indexed": false,
          "internalType": "uint256",
          "name": "epochMinDurationThreshold",
          "type": "uint256"
        }
      ],
      "name": "SetEpochMinDurationThreshold",
      "type": "event"
    },
    {
      "anonymous": false,
      "inputs": [
        {
          "indexed": false,
          "internalType": "uint256",
          "name": "epochZeroMinDuration",
          "type": "uint256"
        }
      ],
      "name": "SetEpochZeroMinDuration",
      "type": "event"
    },
    {
      "anonymous": false,
      "inputs": [
        {
          "indexed": false,
          "internalType": "address",
          "name": "gen",
          "type": "address"
        }
      ],
      "name": "SetGen",
      "type": "event"
    },
    {
      "anonymous": false,
      "inputs": [
        {
          "indexed": false,
          "internalType": "uint256",
          "name": "maxValidators",
          "type": "uint256"
        }
      ],
      "name": "SetMaxValidators",
      "type": "event"
    },
    {
      "anonymous": false,
      "inputs": [
        {
          "indexed": false,
          "internalType": "uint256",
          "name": "reductionFactor",
          "type": "uint256"
        }
      ],
      "name": "SetReductionFactor",
      "type": "event"
    },
    {
      "anonymous": false,
      "inputs": [
        {
          "indexed": false,
          "internalType": "address",
          "name": "stakingInvariant",
          "type": "address"
        }
      ],
      "name": "SetStakingInvariant",
      "type": "event"
    },
    {
      "anonymous": false,
      "inputs": [
        {
          "indexed": false,
          "internalType": "uint256",
          "name": "delegatorUnbondingPeriod",
          "type": "uint256"
        },
        {
          "indexed": false,
          "internalType": "uint256",
          "name": "validatorUnbondingPeriod",
          "type": "uint256"
        }
      ],
      "name": "SetUnbondingPeriods",
      "type": "event"
    },
    {
      "anonymous": false,
      "inputs": [
        {
          "indexed": false,
          "internalType": "uint256",
          "name": "validatorMinStake",
          "type": "uint256"
        }
      ],
      "name": "SetValidatorMinimumStake",
      "type": "event"
    },
    {
      "anonymous": false,
      "inputs": [
        {
          "indexed": false,
          "internalType": "uint256",
          "name": "alpha",
          "type": "uint256"
        },
        {
          "indexed": false,
          "internalType": "uint256",
          "name": "beta",
          "type": "uint256"
        }
      ],
      "name": "SetValidatorWeightParams",
      "type": "event"
    },
    {
      "anonymous": false,
      "inputs": [
        {
          "indexed": false,
          "internalType": "address",
          "name": "validator",
          "type": "address"
        }
      ],
      "name": "ValidatorBanRemoved",
      "type": "event"
    },
    {
      "anonymous": false,
      "inputs": [
        {
          "indexed": false,
          "internalType": "address",
          "name": "validator",
          "type": "address"
        }
      ],
      "name": "ValidatorBannedDeterministic",
      "type": "event"
    },
    {
      "anonymous": false,
      "inputs": [
        {
          "indexed": false,
          "internalType": "address",
          "name": "validator",
          "type": "address"
        },
        {
          "indexed": false,
          "internalType": "uint256",
          "name": "bannedAt",
          "type": "uint256"
        },
        {
          "indexed": false,
          "internalType": "uint256",
          "name": "bannedUntil",
          "type": "uint256"
        }
      ],
      "name": "ValidatorBannedIdleness",
      "type": "event"
    },
    {
      "anonymous": false,
      "inputs": [
        {
          "indexed": false,
          "internalType": "address",
          "name": "validator",
          "type": "address"
        },
        {
          "indexed": false,
          "internalType": "uint256",
          "name": "amount",
          "type": "uint256"
        }
      ],
      "name": "ValidatorClaim",
      "type": "event"
    },
    {
      "anonymous": false,
      "inputs": [
        {
          "indexed": false,
          "internalType": "address",
          "name": "validator",
          "type": "address"
        },
        {
          "indexed": false,
          "internalType": "uint256",
          "name": "amount",
          "type": "uint256"
        }
      ],
      "name": "ValidatorDeposit",
      "type": "event"
    },
    {
      "anonymous": false,
      "inputs": [
        {
          "indexed": false,
          "internalType": "address",
          "name": "validator",
          "type": "address"
        },
        {
          "indexed": false,
          "internalType": "uint256",
          "name": "amount",
          "type": "uint256"
        }
      ],
      "name": "ValidatorExit",
      "type": "event"
    },
    {
      "anonymous": false,
      "inputs": [
        {
          "indexed": false,
          "internalType": "address",
          "name": "operator",
          "type": "address"
        },
        {
          "indexed": false,
          "internalType": "address",
          "name": "validator",
          "type": "address"
        },
        {
          "indexed": false,
          "internalType": "uint256",
          "name": "amount",
          "type": "uint256"
        }
      ],
      "name": "ValidatorJoin",
      "type": "event"
    },
    {
      "anonymous": false,
      "inputs": [
        {
          "indexed": false,
          "internalType": "address",
          "name": "validator",
          "type": "address"
        },
        {
          "indexed": false,
          "internalType": "uint256",
          "name": "epoch",
          "type": "uint256"
        },
        {
          "indexed": false,
          "internalType": "uint256",
          "name": "validatorRewards",
          "type": "uint256"
        },
        {
          "indexed": false,
          "internalType": "uint256",
          "name": "delegatorRewards",
          "type": "uint256"
        }
      ],
      "name": "ValidatorPrime",
      "type": "event"
    },
    {
      "anonymous": false,
      "inputs": [
        {
          "indexed": false,
          "internalType": "address",
          "name": "validator",
          "type": "address"
        }
      ],
      "name": "ValidatorQuarantineRemoved",
      "type": "event"
    },
    {
      "anonymous": false,
      "inputs": [
        {
          "indexed": false,
          "internalType": "address",
          "name": "validator",
          "type": "address"
        }
      ],
      "name": "ValidatorQuarantineRepealed",
      "type": "event"
    },
    {
      "anonymous": false,
      "inputs": [
        {
          "indexed": false,
          "internalType": "address",
          "name": "validator",
          "type": "address"
        },
        {
          "indexed": false,
          "internalType": "uint256",
          "name": "quarantinedAt",
          "type": "uint256"
        }
      ],
      "name": "ValidatorQuarantined",
      "type": "event"
    },
    {
      "anonymous": false,
      "inputs": [
        {
          "indexed": false,
          "internalType": "address",
          "name": "validator",
          "type": "address"
        },
        {
          "indexed": false,
          "internalType": "uint256",
          "name": "validatorSlashing",
          "type": "uint256"
        },
        {
          "indexed": false,
          "internalType": "uint256",
          "name": "delegatorSlashing",
          "type": "uint256"
        },
        {
          "indexed": false,
          "internalType": "uint256",
          "name": "epoch",
          "type": "uint256"
        }
      ],
      "name": "ValidatorSlash",
      "type": "event"
    },
    {
      "inputs": [],
      "name": "BASE_TOKEN",
      "outputs": [
        {
          "internalType": "contract IBaseToken",
          "name": "",
          "type": "address"
        }
      ],
      "stateMutability": "view",
      "type": "function"
    },
    {
      "inputs": [],
      "name": "DEFAULT_ADMIN_ROLE",
      "outputs": [
        {
          "internalType": "bytes32",
          "name": "",
          "type": "bytes32"
        }
      ],
      "stateMutability": "view",
      "type": "function"
    },
    {
      "inputs": [],
      "name": "DEFAULT_DELEGATOR_MIN_STAKE",
      "outputs": [
        {
          "internalType": "uint256",
          "name": "",
          "type": "uint256"
        }
      ],
      "stateMutability": "view",
      "type": "function"
    },
    {
      "inputs": [],
      "name": "DEFAULT_VALIDATOR_MIN_STAKE",
      "outputs": [
        {
          "internalType": "uint256",
          "name": "",
          "type": "uint256"
        }
      ],
      "stateMutability": "view",
      "type": "function"
    },
    {
      "inputs": [],
      "name": "DELEGATOR_UNBONDING_PERIOD",
      "outputs": [
        {
          "internalType": "uint256",
          "name": "",
          "type": "uint256"
        }
      ],
      "stateMutability": "view",
      "type": "function"
    },
    {
      "inputs": [],
      "name": "INFLATION_BASE",
      "outputs": [
        {
          "internalType": "uint256",
          "name": "",
          "type": "uint256"
        }
      ],
      "stateMutability": "view",
      "type": "function"
    },
    {
      "inputs": [],
      "name": "INFLATION_DEEPTHOUGHT_BPS",
      "outputs": [
        {
          "internalType": "uint256",
          "name": "",
          "type": "uint256"
        }
      ],
      "stateMutability": "view",
      "type": "function"
    },
    {
      "inputs": [],
      "name": "INFLATION_DEVELOPER_BPS",
      "outputs": [
        {
          "internalType": "uint256",
          "name": "",
          "type": "uint256"
        }
      ],
      "stateMutability": "view",
      "type": "function"
    },
    {
      "inputs": [],
      "name": "INFLATION_FINAL",
      "outputs": [
        {
          "internalType": "uint256",
          "name": "",
          "type": "uint256"
        }
      ],
      "stateMutability": "view",
      "type": "function"
    },
    {
      "inputs": [],
      "name": "INFLATION_INITIAL",
      "outputs": [
        {
          "internalType": "uint256",
          "name": "",
          "type": "uint256"
        }
      ],
      "stateMutability": "view",
      "type": "function"
    },
    {
      "inputs": [],
      "name": "INFLATION_MID",
      "outputs": [
        {
          "internalType": "int256",
          "name": "",
          "type": "int256"
        }
      ],
      "stateMutability": "view",
      "type": "function"
    },
    {
      "inputs": [],
      "name": "INFLATION_STAKER_BPS",
      "outputs": [
        {
          "internalType": "uint256",
          "name": "",
          "type": "uint256"
        }
      ],
      "stateMutability": "view",
      "type": "function"
    },
    {
      "inputs": [],
      "name": "INFLATION_STEEPNESS",
      "outputs": [
        {
          "internalType": "int256",
          "name": "",
          "type": "int256"
        }
      ],
      "stateMutability": "view",
      "type": "function"
    },
    {
      "inputs": [],
      "name": "INFLATION_VALIDATOR_BPS",
      "outputs": [
        {
          "internalType": "uint256",
          "name": "",
          "type": "uint256"
        }
      ],
      "stateMutability": "view",
      "type": "function"
    },
    {
      "inputs": [],
      "name": "QUARANTINE_MANAGER_ROLE",
      "outputs": [
        {
          "internalType": "bytes32",
          "name": "",
          "type": "bytes32"
        }
      ],
      "stateMutability": "view",
      "type": "function"
    },
    {
      "inputs": [],
      "name": "VALIDATOR_UNBONDING_PERIOD",
      "outputs": [
        {
          "internalType": "uint256",
          "name": "",
          "type": "uint256"
        }
      ],
      "stateMutability": "view",
      "type": "function"
    },
    {
      "inputs": [],
      "name": "acceptOwnership",
      "outputs": [],
      "stateMutability": "nonpayable",
      "type": "function"
    },
    {
      "inputs": [],
      "name": "activeValidators",
      "outputs": [
        {
          "internalType": "address[]",
          "name": "",
          "type": "address[]"
        }
      ],
      "stateMutability": "view",
      "type": "function"
    },
    {
      "inputs": [],
      "name": "activeValidatorsCount",
      "outputs": [
        {
          "internalType": "uint256",
          "name": "",
          "type": "uint256"
        }
      ],
      "stateMutability": "view",
      "type": "function"
    },
    {
      "inputs": [],
      "name": "activeWeights",
      "outputs": [
        {
          "internalType": "uint256[]",
          "name": "",
          "type": "uint256[]"
        }
      ],
      "stateMutability": "view",
      "type": "function"
    },
    {
      "inputs": [],
      "name": "burn",
      "outputs": [],
      "stateMutability": "nonpayable",
      "type": "function"
    },
    {
      "inputs": [],
      "name": "burning",
      "outputs": [
        {
          "internalType": "uint256",
          "name": "",
          "type": "uint256"
        }
      ],
      "stateMutability": "view",
      "type": "function"
    },
    {
      "inputs": [],
      "name": "calculateTotalSystemStake",
      "outputs": [
        {
          "internalType": "uint256",
          "name": "",
          "type": "uint256"
        }
      ],
      "stateMutability": "view",
      "type": "function"
    },
    {
      "inputs": [],
      "name": "canAdvance",
      "outputs": [
        {
          "internalType": "bool",
          "name": "",
          "type": "bool"
        }
      ],
      "stateMutability": "view",
      "type": "function"
    },
    {
      "inputs": [],
      "name": "canFinalize",
      "outputs": [
        {
          "internalType": "bool",
          "name": "",
          "type": "bool"
        }
      ],
      "stateMutability": "view",
      "type": "function"
    },
    {
      "inputs": [],
      "name": "cleanupExpiredQuarantines",
      "outputs": [],
      "stateMutability": "nonpayable",
      "type": "function"
    },
    {
      "inputs": [],
      "name": "contracts",
      "outputs": [
        {
          "internalType": "address",
          "name": "gen",
          "type": "address"
        },
        {
          "internalType": "address",
          "name": "transactions",
          "type": "address"
        },
        {
          "internalType": "address",
          "name": "idleness",
          "type": "address"
        },
        {
          "internalType": "address",
          "name": "tribunal",
          "type": "address"
        },
        {
          "internalType": "address",
          "name": "slashing",
          "type": "address"
        },
        {
          "internalType": "address",
          "name": "consensus",
          "type": "address"
        },
        {
          "internalType": "address",
          "name": "validatorWalletFactory",
          "type": "address"
        },
        {
          "internalType": "address payable",
          "name": "nftMinter",
          "type": "address"
        }
      ],
      "stateMutability": "view",
      "type": "function"
    },
    {
      "inputs": [],
      "name": "deepthought",
      "outputs": [
        {
          "internalType": "address payable",
          "name": "",
          "type": "address"
        }
      ],
      "stateMutability": "view",
      "type": "function"
    },
    {
      "inputs": [
        {
          "internalType": "uint256",
          "name": "_inflation",
          "type": "uint256"
        }
      ],
      "name": "deepthoughtInflation",
      "outputs": [
        {
          "internalType": "uint256",
          "name": "",
          "type": "uint256"
        }
      ],
      "stateMutability": "pure",
      "type": "function"
    },
    {
      "inputs": [
        {
          "internalType": "address",
          "name": "_delegator",
          "type": "address"
        },
        {
          "internalType": "address",
          "name": "_validator",
          "type": "address"
        }
      ],
      "name": "delegatorClaim",
      "outputs": [],
      "stateMutability": "nonpayable",
      "type": "function"
    },
    {
      "inputs": [
        {
          "internalType": "address",
          "name": "_delegator",
          "type": "address"
        },
        {
          "internalType": "address",
          "name": "_validator",
          "type": "address"
        }
      ],
      "name": "delegatorClean",
      "outputs": [],
      "stateMutability": "nonpayable",
      "type": "function"
    },
    {
      "inputs": [
        {
          "internalType": "address",
          "name": "_delegator",
          "type": "address"
        }
      ],
      "name": "delegatorDelegations",
      "outputs": [
        {
          "internalType": "address[]",
          "name": "",
          "type": "address[]"
        }
      ],
      "stateMutability": "view",
      "type": "function"
    },
    {
      "inputs": [
        {
          "internalType": "address",
          "name": "_delegator",
          "type": "address"
        },
        {
          "internalType": "address",
          "name": "_validator",
          "type": "address"
        },
        {
          "internalType": "uint256",
          "name": "_index",
          "type": "uint256"
        }
      ],
      "name": "delegatorDeposit",
      "outputs": [
        {
          "components": [
            {
              "internalType": "uint256",
              "name": "quantity",
              "type": "uint256"
            },
            {
              "internalType": "uint256",
              "name": "commit",
              "type": "uint256"
            }
          ],
          "internalType": "struct IGenLayerStaking.Claim",
          "name": "claim_",
          "type": "tuple"
        },
        {
          "components": [
            {
              "internalType": "uint256",
              "name": "input",
              "type": "uint256"
            },
            {
              "internalType": "uint256",
              "name": "output",
              "type": "uint256"
            },
            {
              "internalType": "uint256",
              "name": "epoch",
              "type": "uint256"
            },
            {
              "internalType": "uint256",
              "name": "linkToNextCommit",
              "type": "uint256"
            }
          ],
          "internalType": "struct IGenLayerStaking.Commit",
          "name": "commit_",
          "type": "tuple"
        }
      ],
      "stateMutability": "view",
      "type": "function"
    },
    {
      "inputs": [
        {
          "internalType": "address",
          "name": "_delegator",
          "type": "address"
        },
        {
          "internalType": "address",
          "name": "_validator",
          "type": "address"
        },
        {
          "internalType": "uint256",
          "name": "_epoch",
          "type": "uint256"
        }
      ],
      "name": "delegatorDepositByEpoch",
      "outputs": [
        {
          "components": [
            {
              "internalType": "uint256",
              "name": "input",
              "type": "uint256"
            },
            {
              "internalType": "uint256",
              "name": "output",
              "type": "uint256"
            },
            {
              "internalType": "uint256",
              "name": "epoch",
              "type": "uint256"
            },
            {
              "internalType": "uint256",
              "name": "linkToNextCommit",
              "type": "uint256"
            }
          ],
          "internalType": "struct IGenLayerStaking.Commit",
          "name": "commit_",
          "type": "tuple"
        }
      ],
      "stateMutability": "view",
      "type": "function"
    },
    {
      "inputs": [
        {
          "internalType": "address",
          "name": "_delegator",
          "type": "address"
        },
        {
          "internalType": "address",
          "name": "_validator",
          "type": "address"
        }
      ],
      "name": "delegatorDepositLen",
      "outputs": [
        {
          "internalType": "uint256",
          "name": "",
          "type": "uint256"
        }
      ],
      "stateMutability": "view",
      "type": "function"
    },
    {
      "inputs": [
        {
          "internalType": "address",
          "name": "_validator",
          "type": "address"
        },
        {
          "internalType": "uint256",
          "name": "_sharesExit",
          "type": "uint256"
        }
      ],
      "name": "delegatorExit",
      "outputs": [],
      "stateMutability": "nonpayable",
      "type": "function"
    },
    {
      "inputs": [
        {
          "internalType": "address",
          "name": "_validator",
          "type": "address"
        }
      ],
      "name": "delegatorJoin",
      "outputs": [],
      "stateMutability": "payable",
      "type": "function"
    },
    {
      "inputs": [],
      "name": "delegatorMinStake",
      "outputs": [
        {
          "internalType": "uint256",
          "name": "",
          "type": "uint256"
        }
      ],
      "stateMutability": "view",
      "type": "function"
    },
    {
      "inputs": [
        {
          "internalType": "address",
          "name": "_delegator",
          "type": "address"
        },
        {
          "internalType": "address",
          "name": "_validator",
          "type": "address"
        },
        {
          "internalType": "uint256",
          "name": "_index",
          "type": "uint256"
        }
      ],
      "name": "delegatorWithdrawal",
      "outputs": [
        {
          "components": [
            {
              "internalType": "uint256",
              "name": "quantity",
              "type": "uint256"
            },
            {
              "internalType": "uint256",
              "name": "commit",
              "type": "uint256"
            }
          ],
          "internalType": "struct IGenLayerStaking.Claim",
          "name": "claim_",
          "type": "tuple"
        },
        {
          "components": [
            {
              "internalType": "uint256",
              "name": "input",
              "type": "uint256"
            },
            {
              "internalType": "uint256",
              "name": "output",
              "type": "uint256"
            },
            {
              "internalType": "uint256",
              "name": "epoch",
              "type": "uint256"
            },
            {
              "internalType": "uint256",
              "name": "linkToNextCommit",
              "type": "uint256"
            }
          ],
          "internalType": "struct IGenLayerStaking.Commit",
          "name": "commit_",
          "type": "tuple"
        }
      ],
      "stateMutability": "view",
      "type": "function"
    },
    {
      "inputs": [
        {
          "internalType": "address",
          "name": "_delegator",
          "type": "address"
        },
        {
          "internalType": "address",
          "name": "_validator",
          "type": "address"
        },
        {
          "internalType": "uint256",
          "name": "_epoch",
          "type": "uint256"
        }
      ],
      "name": "delegatorWithdrawalByEpoch",
      "outputs": [
        {
          "components": [
            {
              "internalType": "uint256",
              "name": "input",
              "type": "uint256"
            },
            {
              "internalType": "uint256",
              "name": "output",
              "type": "uint256"
            },
            {
              "internalType": "uint256",
              "name": "epoch",
              "type": "uint256"
            },
            {
              "internalType": "uint256",
              "name": "linkToNextCommit",
              "type": "uint256"
            }
          ],
          "internalType": "struct IGenLayerStaking.Commit",
          "name": "commit_",
          "type": "tuple"
        }
      ],
      "stateMutability": "view",
      "type": "function"
    },
    {
      "inputs": [
        {
          "internalType": "address",
          "name": "_delegator",
          "type": "address"
        },
        {
          "internalType": "address",
          "name": "_validator",
          "type": "address"
        }
      ],
      "name": "delegatorWithdrawalLen",
      "outputs": [
        {
          "internalType": "uint256",
          "name": "",
          "type": "uint256"
        }
      ],
      "stateMutability": "view",
      "type": "function"
    },
    {
      "inputs": [
        {
          "internalType": "uint256",
          "name": "_inflation",
          "type": "uint256"
        }
      ],
      "name": "developerInflation",
      "outputs": [
        {
          "internalType": "uint256",
          "name": "",
          "type": "uint256"
        }
      ],
      "stateMutability": "pure",
      "type": "function"
    },
    {
      "inputs": [],
      "name": "epoch",
      "outputs": [
        {
          "internalType": "uint256",
          "name": "",
          "type": "uint256"
        }
      ],
      "stateMutability": "view",
      "type": "function"
    },
    {
      "inputs": [],
      "name": "epochAdvance",
      "outputs": [],
      "stateMutability": "nonpayable",
      "type": "function"
    },
    {
      "inputs": [],
      "name": "epochEven",
      "outputs": [
        {
          "internalType": "uint256",
          "name": "start",
          "type": "uint256"
        },
        {
          "internalType": "uint256",
          "name": "end",
          "type": "uint256"
        },
        {
          "internalType": "uint256",
          "name": "inflation",
          "type": "uint256"
        },
        {
          "internalType": "uint256",
          "name": "weight",
          "type": "uint256"
        },
        {
          "internalType": "uint256",
          "name": "weightDeposit",
          "type": "uint256"
        },
        {
          "internalType": "uint256",
          "name": "weightWithdrawal",
          "type": "uint256"
        },
        {
          "internalType": "uint256",
          "name": "vcount",
          "type": "uint256"
        },
        {
          "internalType": "uint256",
          "name": "claimed",
          "type": "uint256"
        },
        {
          "internalType": "uint256",
          "name": "stakeDeposit",
          "type": "uint256"
        },
        {
          "internalType": "uint256",
          "name": "stakeWithdrawal",
          "type": "uint256"
        },
        {
          "internalType": "uint256",
          "name": "slashed",
          "type": "uint256"
        }
      ],
      "stateMutability": "view",
      "type": "function"
    },
    {
      "inputs": [],
      "name": "epochExtraMinDuration",
      "outputs": [
        {
          "internalType": "uint256",
          "name": "",
          "type": "uint256"
        }
      ],
      "stateMutability": "view",
      "type": "function"
    },
    {
      "inputs": [],
      "name": "epochFinalize",
      "outputs": [],
      "stateMutability": "nonpayable",
      "type": "function"
    },
    {
      "inputs": [],
      "name": "epochFinalizeImmediate",
      "outputs": [],
      "stateMutability": "nonpayable",
      "type": "function"
    },
    {
      "inputs": [
        {
          "internalType": "uint256",
          "name": "_epoch",
          "type": "uint256"
        }
      ],
      "name": "epochInflation",
      "outputs": [
        {
          "internalType": "uint256",
          "name": "",
          "type": "uint256"
        }
      ],
      "stateMutability": "view",
      "type": "function"
    },
    {
      "inputs": [],
      "name": "epochMinDuration",
      "outputs": [
        {
          "internalType": "uint256",
          "name": "",
          "type": "uint256"
        }
      ],
      "stateMutability": "view",
      "type": "function"
    },
    {
      "inputs": [],
      "name": "epochMinDurationThreshold",
      "outputs": [
        {
          "internalType": "uint256",
          "name": "",
          "type": "uint256"
        }
      ],
      "stateMutability": "view",
      "type": "function"
    },
    {
      "inputs": [],
      "name": "epochOdd",
      "outputs": [
        {
          "internalType": "uint256",
          "name": "start",
          "type": "uint256"
        },
        {
          "internalType": "uint256",
          "name": "end",
          "type": "uint256"
        },
        {
          "internalType": "uint256",
          "name": "inflation",
          "type": "uint256"
        },
        {
          "internalType": "uint256",
          "name": "weight",
          "type": "uint256"
        },
        {
          "internalType": "uint256",
          "name": "weightDeposit",
          "type": "uint256"
        },
        {
          "internalType": "uint256",
          "name": "weightWithdrawal",
          "type": "uint256"
        },
        {
          "internalType": "uint256",
          "name": "vcount",
          "type": "uint256"
        },
        {
          "internalType": "uint256",
          "name": "claimed",
          "type": "uint256"
        },
        {
          "internalType": "uint256",
          "name": "stakeDeposit",
          "type": "uint256"
        },
        {
          "internalType": "uint256",
          "name": "stakeWithdrawal",
          "type": "uint256"
        },
        {
          "internalType": "uint256",
          "name": "slashed",
          "type": "uint256"
        }
      ],
      "stateMutability": "view",
      "type": "function"
    },
    {
      "inputs": [],
      "name": "epochZeroMinDuration",
      "outputs": [
        {
          "internalType": "uint256",
          "name": "",
          "type": "uint256"
        }
      ],
      "stateMutability": "view",
      "type": "function"
    },
    {
      "inputs": [],
      "name": "finalized",
      "outputs": [
        {
          "internalType": "uint256",
          "name": "",
          "type": "uint256"
        }
      ],
      "stateMutability": "view",
      "type": "function"
    },
    {
      "inputs": [
        {
          "internalType": "bytes32",
          "name": "_randomSeed",
          "type": "bytes32"
        },
        {
          "internalType": "uint256",
          "name": "_txCreatedTimestamp",
          "type": "uint256"
        }
      ],
      "name": "getActivatorForSeed",
      "outputs": [
        {
          "internalType": "address",
          "name": "",
          "type": "address"
        }
      ],
      "stateMutability": "view",
      "type": "function"
    },
    {
      "inputs": [
        {
          "internalType": "uint256",
          "name": "_startIndex",
          "type": "uint256"
        },
        {
          "internalType": "uint256",
          "name": "_size",
          "type": "uint256"
        }
      ],
      "name": "getAllBannedValidators",
      "outputs": [
        {
          "components": [
            {
              "internalType": "address",
              "name": "validator",
              "type": "address"
            },
            {
              "internalType": "uint256",
              "name": "untilEpochBanned",
              "type": "uint256"
            },
            {
              "internalType": "bool",
              "name": "permanentlyBanned",
              "type": "bool"
            }
          ],
          "internalType": "struct IGenLayerStaking.BannedValidators[]",
          "name": "validatorList",
          "type": "tuple[]"
        }
      ],
      "stateMutability": "view",
      "type": "function"
    },
    {
      "inputs": [
        {
          "internalType": "uint256",
          "name": "_epoch",
          "type": "uint256"
        },
        {
          "internalType": "uint256",
          "name": "_startIndex",
          "type": "uint256"
        },
        {
          "internalType": "uint256",
          "name": "_size",
          "type": "uint256"
        }
      ],
      "name": "getAllBannedValidatorsForEpoch",
      "outputs": [
        {
          "components": [
            {
              "internalType": "address",
              "name": "validator",
              "type": "address"
            },
            {
              "internalType": "uint256",
              "name": "untilEpochBanned",
              "type": "uint256"
            },
            {
              "internalType": "bool",
              "name": "permanentlyBanned",
              "type": "bool"
            }
          ],
          "internalType": "struct IGenLayerStaking.BannedValidators[]",
          "name": "validatorList",
          "type": "tuple[]"
        }
      ],
      "stateMutability": "view",
      "type": "function"
    },
    {
      "inputs": [
        {
          "internalType": "uint256",
          "name": "_startIndex",
          "type": "uint256"
        },
        {
          "internalType": "uint256",
          "name": "_size",
          "type": "uint256"
        }
      ],
      "name": "getAllQuarantinedValidators",
      "outputs": [
        {
          "components": [
            {
              "internalType": "address",
              "name": "validator",
              "type": "address"
            },
            {
              "internalType": "uint256",
              "name": "untilEpochBanned",
              "type": "uint256"
            },
            {
              "internalType": "bool",
              "name": "permanentlyBanned",
              "type": "bool"
            }
          ],
          "internalType": "struct IGenLayerStaking.BannedValidators[]",
          "name": "validatorList",
          "type": "tuple[]"
        }
      ],
      "stateMutability": "view",
      "type": "function"
    },
    {
      "inputs": [
        {
          "internalType": "uint256",
          "name": "_epoch",
          "type": "uint256"
        },
        {
          "internalType": "uint256",
          "name": "_startIndex",
          "type": "uint256"
        },
        {
          "internalType": "uint256",
          "name": "_size",
          "type": "uint256"
        }
      ],
      "name": "getAllQuarantinedValidatorsForEpoch",
      "outputs": [
        {
          "components": [
            {
              "internalType": "address",
              "name": "validator",
              "type": "address"
            },
            {
              "internalType": "uint256",
              "name": "untilEpochBanned",
              "type": "uint256"
            },
            {
              "internalType": "bool",
              "name": "permanentlyBanned",
              "type": "bool"
            }
          ],
          "internalType": "struct IGenLayerStaking.BannedValidators[]",
          "name": "validatorList",
          "type": "tuple[]"
        }
      ],
      "stateMutability": "view",
      "type": "function"
    },
    {
      "inputs": [],
      "name": "getQuarantinedValidators",
      "outputs": [
        {
          "internalType": "address[]",
          "name": "",
          "type": "address[]"
        }
      ],
      "stateMutability": "view",
      "type": "function"
    },
    {
      "inputs": [
        {
          "internalType": "bytes32",
          "name": "role",
          "type": "bytes32"
        }
      ],
      "name": "getRoleAdmin",
      "outputs": [
        {
          "internalType": "bytes32",
          "name": "",
          "type": "bytes32"
        }
      ],
      "stateMutability": "view",
      "type": "function"
    },
    {
      "inputs": [],
      "name": "getValidatorQuarantineList",
      "outputs": [
        {
          "internalType": "address[]",
          "name": "",
          "type": "address[]"
        }
      ],
      "stateMutability": "view",
      "type": "function"
    },
    {
      "inputs": [],
      "name": "getValidatorWeightParams",
      "outputs": [
        {
          "internalType": "uint256",
          "name": "alpha",
          "type": "uint256"
        },
        {
          "internalType": "uint256",
          "name": "beta",
          "type": "uint256"
        }
      ],
      "stateMutability": "view",
      "type": "function"
    },
    {
      "inputs": [
        {
          "internalType": "address",
          "name": "_account",
          "type": "address"
        }
      ],
      "name": "grantQuarantineManagerRole",
      "outputs": [],
      "stateMutability": "nonpayable",
      "type": "function"
    },
    {
      "inputs": [
        {
          "internalType": "bytes32",
          "name": "role",
          "type": "bytes32"
        },
        {
          "internalType": "address",
          "name": "account",
          "type": "address"
        }
      ],
      "name": "grantRole",
      "outputs": [],
      "stateMutability": "nonpayable",
      "type": "function"
    },
    {
      "inputs": [
        {
          "internalType": "bytes32",
          "name": "role",
          "type": "bytes32"
        },
        {
          "internalType": "address",
          "name": "account",
          "type": "address"
        }
      ],
      "name": "hasRole",
      "outputs": [
        {
          "internalType": "bool",
          "name": "",
          "type": "bool"
        }
      ],
      "stateMutability": "view",
      "type": "function"
    },
    {
      "inputs": [
        {
          "internalType": "address",
          "name": "_validator",
          "type": "address"
        },
        {
          "internalType": "uint256",
          "name": "_quarantinedAt",
          "type": "uint256"
        },
        {
          "internalType": "uint256",
          "name": "_quarantinedUntil",
          "type": "uint256"
        }
      ],
      "name": "idlenessBan",
      "outputs": [],
      "stateMutability": "nonpayable",
      "type": "function"
    },
    {
      "inputs": [
        {
          "internalType": "address[]",
          "name": "_validators",
          "type": "address[]"
        },
        {
          "internalType": "uint256",
          "name": "_quarantinedAt",
          "type": "uint256"
        },
        {
          "internalType": "uint256",
          "name": "_quarantinedUntil",
          "type": "uint256"
        }
      ],
      "name": "idlenessBanBatch",
      "outputs": [],
      "stateMutability": "nonpayable",
      "type": "function"
    },
    {
      "inputs": [],
      "name": "inflationEpoch",
      "outputs": [
        {
          "internalType": "uint256",
          "name": "",
          "type": "uint256"
        }
      ],
      "stateMutability": "view",
      "type": "function"
    },
    {
      "inputs": [
        {
          "internalType": "uint256",
          "name": "_inauguralTimestamp",
          "type": "uint256"
        }
      ],
      "name": "inflationInit",
      "outputs": [],
      "stateMutability": "nonpayable",
      "type": "function"
    },
    {
      "inputs": [
        {
          "internalType": "uint256",
          "name": "_epochTo",
          "type": "uint256"
        }
      ],
      "name": "inflationReceive",
      "outputs": [],
      "stateMutability": "payable",
      "type": "function"
    },
    {
      "inputs": [],
      "name": "inflationSupply",
      "outputs": [
        {
          "internalType": "uint256",
          "name": "",
          "type": "uint256"
        }
      ],
      "stateMutability": "view",
      "type": "function"
    },
    {
      "inputs": [
        {
          "internalType": "address",
          "name": "_gen",
          "type": "address"
        },
        {
          "internalType": "address",
          "name": "_transactions",
          "type": "address"
        },
        {
          "internalType": "address",
          "name": "_idleness",
          "type": "address"
        },
        {
          "internalType": "address",
          "name": "_tribunal",
          "type": "address"
        },
        {
          "internalType": "address",
          "name": "_slashing",
          "type": "address"
        },
        {
          "internalType": "address",
          "name": "_consensus",
          "type": "address"
        }
      ],
      "name": "initialize",
      "outputs": [],
      "stateMutability": "nonpayable",
      "type": "function"
    },
    {
      "inputs": [
        {
          "internalType": "address",
          "name": "_address",
          "type": "address"
        }
      ],
      "name": "isValidator",
      "outputs": [
        {
          "internalType": "bool",
          "name": "",
          "type": "bool"
        }
      ],
      "stateMutability": "view",
      "type": "function"
    },
    {
      "inputs": [
        {
          "internalType": "address",
          "name": "_validator",
          "type": "address"
        }
      ],
      "name": "isValidatorBanned",
      "outputs": [
        {
          "internalType": "bool",
          "name": "",
          "type": "bool"
        }
      ],
      "stateMutability": "view",
      "type": "function"
    },
    {
      "inputs": [],
      "name": "maxValidators",
      "outputs": [
        {
          "internalType": "uint256",
          "name": "",
          "type": "uint256"
        }
      ],
      "stateMutability": "view",
      "type": "function"
    },
    {
      "inputs": [
        {
          "internalType": "address",
          "name": "",
          "type": "address"
        }
      ],
      "name": "operatorsToValidators",
      "outputs": [
        {
          "internalType": "address",
          "name": "",
          "type": "address"
        }
      ],
      "stateMutability": "view",
      "type": "function"
    },
    {
      "inputs": [],
      "name": "owner",
      "outputs": [
        {
          "internalType": "address",
          "name": "",
          "type": "address"
        }
      ],
      "stateMutability": "view",
      "type": "function"
    },
    {
      "inputs": [],
      "name": "pendingOwner",
      "outputs": [
        {
          "internalType": "address",
          "name": "",
          "type": "address"
        }
      ],
      "stateMutability": "view",
      "type": "function"
    },
    {
      "inputs": [],
      "name": "reductionFactor",
      "outputs": [
        {
          "internalType": "uint256",
          "name": "",
          "type": "uint256"
        }
      ],
      "stateMutability": "view",
      "type": "function"
    },
    {
      "inputs": [],
      "name": "removeAllValidatorBans",
      "outputs": [],
      "stateMutability": "nonpayable",
      "type": "function"
    },
    {
      "inputs": [],
      "name": "removeAllValidatorBansExceptPermanent",
      "outputs": [],
      "stateMutability": "nonpayable",
      "type": "function"
    },
    {
      "inputs": [
        {
          "internalType": "address",
          "name": "_validator",
          "type": "address"
        }
      ],
      "name": "removeValidatorBan",
      "outputs": [],
      "stateMutability": "nonpayable",
      "type": "function"
    },
    {
      "inputs": [
        {
          "internalType": "address",
          "name": "_validator",
          "type": "address"
        }
      ],
      "name": "removeValidatorQuarantine",
      "outputs": [],
      "stateMutability": "nonpayable",
      "type": "function"
    },
    {
      "inputs": [],
      "name": "renounceOwnership",
      "outputs": [],
      "stateMutability": "nonpayable",
      "type": "function"
    },
    {
      "inputs": [
        {
          "internalType": "bytes32",
          "name": "role",
          "type": "bytes32"
        },
        {
          "internalType": "address",
          "name": "callerConfirmation",
          "type": "address"
        }
      ],
      "name": "renounceRole",
      "outputs": [],
      "stateMutability": "nonpayable",
      "type": "function"
    },
    {
      "inputs": [
        {
          "internalType": "address",
          "name": "_account",
          "type": "address"
        }
      ],
      "name": "revokeQuarantineManagerRole",
      "outputs": [],
      "stateMutability": "nonpayable",
      "type": "function"
    },
    {
      "inputs": [
        {
          "internalType": "bytes32",
          "name": "role",
          "type": "bytes32"
        },
        {
          "internalType": "address",
          "name": "account",
          "type": "address"
        }
      ],
      "name": "revokeRole",
      "outputs": [],
      "stateMutability": "nonpayable",
      "type": "function"
    },
    {
      "inputs": [
        {
          "internalType": "address payable",
          "name": "_deepthought",
          "type": "address"
        }
      ],
      "name": "setDeepthought",
      "outputs": [],
      "stateMutability": "nonpayable",
      "type": "function"
    },
    {
      "inputs": [
        {
          "internalType": "uint256",
          "name": "_delegatorMinStake",
          "type": "uint256"
        }
      ],
      "name": "setDelegatorMinimumStake",
      "outputs": [],
      "stateMutability": "nonpayable",
      "type": "function"
    },
    {
      "inputs": [
        {
          "internalType": "uint256",
          "name": "_epochMin",
          "type": "uint256"
        }
      ],
      "name": "setEpochMin",
      "outputs": [],
      "stateMutability": "nonpayable",
      "type": "function"
    },
    {
      "inputs": [
        {
          "internalType": "uint256",
          "name": "_epochMinDuration",
          "type": "uint256"
        }
      ],
      "name": "setEpochMinDuration",
      "outputs": [],
      "stateMutability": "nonpayable",
      "type": "function"
    },
    {
      "inputs": [
        {
          "internalType": "uint256",
          "name": "_epochMinDurationThreshold",
          "type": "uint256"
        }
      ],
      "name": "setEpochMinDurationThreshold",
      "outputs": [],
      "stateMutability": "nonpayable",
      "type": "function"
    },
    {
      "inputs": [
        {
          "internalType": "uint256",
          "name": "_epochZeroMinDuration",
          "type": "uint256"
        }
      ],
      "name": "setEpochZeroMinDuration",
      "outputs": [],
      "stateMutability": "nonpayable",
      "type": "function"
    },
    {
      "inputs": [
        {
          "internalType": "address",
          "name": "_transactions",
          "type": "address"
        },
        {
          "internalType": "address",
          "name": "_idleness",
          "type": "address"
        },
        {
          "internalType": "address",
          "name": "_tribunal",
          "type": "address"
        },
        {
          "internalType": "address",
          "name": "_slashing",
          "type": "address"
        },
        {
          "internalType": "address",
          "name": "_consensus",
          "type": "address"
        },
        {
          "internalType": "address",
          "name": "_validatorWalletFactory",
          "type": "address"
        },
        {
          "internalType": "address payable",
          "name": "_nftMinter",
          "type": "address"
        }
      ],
      "name": "setExternalContracts",
      "outputs": [],
      "stateMutability": "nonpayable",
      "type": "function"
    },
    {
      "inputs": [
        {
          "internalType": "address",
          "name": "_gen",
          "type": "address"
        }
      ],
      "name": "setGen",
      "outputs": [],
      "stateMutability": "nonpayable",
      "type": "function"
    },
    {
      "inputs": [
        {
          "internalType": "uint256",
          "name": "_maxValidators",
          "type": "uint256"
        }
      ],
      "name": "setMaxValidators",
      "outputs": [],
      "stateMutability": "nonpayable",
      "type": "function"
    },
    {
      "inputs": [
        {
          "internalType": "uint256",
          "name": "_reductionFactor",
          "type": "uint256"
        }
      ],
      "name": "setReductionFactor",
      "outputs": [],
      "stateMutability": "nonpayable",
      "type": "function"
    },
    {
      "inputs": [
        {
          "internalType": "address",
          "name": "_stakingInvariant",
          "type": "address"
        }
      ],
      "name": "setStakingInvariant",
      "outputs": [],
      "stateMutability": "nonpayable",
      "type": "function"
    },
    {
      "inputs": [
        {
          "internalType": "uint256",
          "name": "_delegatorUnbondingPeriod",
          "type": "uint256"
        },
        {
          "internalType": "uint256",
          "name": "_validatorUnbondingPeriod",
          "type": "uint256"
        }
      ],
      "name": "setUnbondingPeriods",
      "outputs": [],
      "stateMutability": "nonpayable",
      "type": "function"
    },
    {
      "inputs": [
        {
          "internalType": "uint256",
          "name": "_validatorMinStake",
          "type": "uint256"
        }
      ],
      "name": "setValidatorMinimumStake",
      "outputs": [],
      "stateMutability": "nonpayable",
      "type": "function"
    },
    {
      "inputs": [
        {
          "internalType": "uint256",
          "name": "_alpha",
          "type": "uint256"
        },
        {
          "internalType": "uint256",
          "name": "_beta",
          "type": "uint256"
        }
      ],
      "name": "setValidatorWeightParams",
      "outputs": [],
      "stateMutability": "nonpayable",
      "type": "function"
    },
    {
      "inputs": [
        {
          "internalType": "address",
          "name": "_delegator",
          "type": "address"
        },
        {
          "internalType": "address",
          "name": "_validator",
          "type": "address"
        }
      ],
      "name": "sharesOf",
      "outputs": [
        {
          "internalType": "uint256",
          "name": "",
          "type": "uint256"
        }
      ],
      "stateMutability": "view",
      "type": "function"
    },
    {
      "inputs": [],
      "name": "stakeInfo",
      "outputs": [
        {
          "internalType": "uint256",
          "name": "currentEpoch",
          "type": "uint256"
        },
        {
          "internalType": "address",
          "name": "rootValidator",
          "type": "address"
        },
        {
          "internalType": "uint256",
          "name": "xStake",
          "type": "uint256"
        },
        {
          "internalType": "uint256",
          "name": "yStake",
          "type": "uint256"
        },
        {
          "internalType": "uint256",
          "name": "epochEvenDeposit",
          "type": "uint256"
        },
        {
          "internalType": "uint256",
          "name": "epochOddDeposit",
          "type": "uint256"
        },
        {
          "internalType": "uint256",
          "name": "calculatedTotal",
          "type": "uint256"
        }
      ],
      "stateMutability": "view",
      "type": "function"
    },
    {
      "inputs": [
        {
          "internalType": "address",
          "name": "_delegator",
          "type": "address"
        },
        {
          "internalType": "address",
          "name": "_validator",
          "type": "address"
        }
      ],
      "name": "stakeOf",
      "outputs": [
        {
          "internalType": "uint256",
          "name": "",
          "type": "uint256"
        }
      ],
      "stateMutability": "view",
      "type": "function"
    },
    {
      "inputs": [],
      "name": "stakingInvariant",
      "outputs": [
        {
          "internalType": "address",
          "name": "",
          "type": "address"
        }
      ],
      "stateMutability": "view",
      "type": "function"
    },
    {
      "inputs": [
        {
          "internalType": "bytes4",
          "name": "interfaceId",
          "type": "bytes4"
        }
      ],
      "name": "supportsInterface",
      "outputs": [
        {
          "internalType": "bool",
          "name": "",
          "type": "bool"
        }
      ],
      "stateMutability": "view",
      "type": "function"
    },
    {
      "inputs": [
        {
          "internalType": "address",
          "name": "newOwner",
          "type": "address"
        }
      ],
      "name": "transferOwnership",
      "outputs": [],
      "stateMutability": "nonpayable",
      "type": "function"
    },
    {
      "inputs": [],
      "name": "validatorBanCount",
      "outputs": [
        {
          "internalType": "uint256",
          "name": "",
          "type": "uint256"
        }
      ],
      "stateMutability": "view",
      "type": "function"
    },
    {
      "inputs": [],
      "name": "validatorBanCountExceptPermanent",
      "outputs": [
        {
          "internalType": "uint256",
          "name": "",
          "type": "uint256"
        }
      ],
      "stateMutability": "view",
      "type": "function"
    },
    {
      "inputs": [
        {
          "internalType": "address",
          "name": "_validator",
          "type": "address"
        }
      ],
      "name": "validatorBanDeterministic",
      "outputs": [],
      "stateMutability": "nonpayable",
      "type": "function"
    },
    {
      "inputs": [
        {
          "internalType": "address",
          "name": "_validator",
          "type": "address"
        }
      ],
      "name": "validatorBanned",
      "outputs": [
        {
          "components": [
            {
              "internalType": "address",
              "name": "validator",
              "type": "address"
            },
            {
              "internalType": "uint256",
              "name": "untilEpochBanned",
              "type": "uint256"
            },
            {
              "internalType": "bool",
              "name": "permanentlyBanned",
              "type": "bool"
            }
          ],
          "internalType": "struct IGenLayerStaking.BannedValidators",
          "name": "banned_",
          "type": "tuple"
        }
      ],
      "stateMutability": "view",
      "type": "function"
    },
    {
      "inputs": [
        {
          "internalType": "address",
          "name": "_validator",
          "type": "address"
        }
      ],
      "name": "validatorClaim",
      "outputs": [
        {
          "internalType": "uint256",
          "name": "",
          "type": "uint256"
        }
      ],
      "stateMutability": "nonpayable",
      "type": "function"
    },
    {
      "inputs": [
        {
          "internalType": "address",
          "name": "_validator",
          "type": "address"
        }
      ],
      "name": "validatorClean",
      "outputs": [],
      "stateMutability": "nonpayable",
      "type": "function"
    },
    {
      "inputs": [
        {
          "internalType": "address",
          "name": "_validator",
          "type": "address"
        },
        {
          "internalType": "uint256",
          "name": "_index",
          "type": "uint256"
        }
      ],
      "name": "validatorDeposit",
      "outputs": [
        {
          "internalType": "uint256",
          "name": "epoch_",
          "type": "uint256"
        },
        {
          "components": [
            {
              "internalType": "uint256",
              "name": "input",
              "type": "uint256"
            },
            {
              "internalType": "uint256",
              "name": "output",
              "type": "uint256"
            },
            {
              "internalType": "uint256",
              "name": "epoch",
              "type": "uint256"
            },
            {
              "internalType": "uint256",
              "name": "linkToNextCommit",
              "type": "uint256"
            }
          ],
          "internalType": "struct IGenLayerStaking.Commit",
          "name": "commit_",
          "type": "tuple"
        }
      ],
      "stateMutability": "view",
      "type": "function"
    },
    {
      "inputs": [],
      "name": "validatorDeposit",
      "outputs": [],
      "stateMutability": "payable",
      "type": "function"
    },
    {
      "inputs": [
        {
          "internalType": "address",
          "name": "_validator",
          "type": "address"
        },
        {
          "internalType": "uint256",
          "name": "_epoch",
          "type": "uint256"
        }
      ],
      "name": "validatorDepositByEpoch",
      "outputs": [
        {
          "components": [
            {
              "internalType": "uint256",
              "name": "input",
              "type": "uint256"
            },
            {
              "internalType": "uint256",
              "name": "output",
              "type": "uint256"
            },
            {
              "internalType": "uint256",
              "name": "epoch",
              "type": "uint256"
            },
            {
              "internalType": "uint256",
              "name": "linkToNextCommit",
              "type": "uint256"
            }
          ],
          "internalType": "struct IGenLayerStaking.Commit",
          "name": "commit_",
          "type": "tuple"
        }
      ],
      "stateMutability": "view",
      "type": "function"
    },
    {
      "inputs": [
        {
          "internalType": "address",
          "name": "_validator",
          "type": "address"
        }
      ],
      "name": "validatorDepositLen",
      "outputs": [
        {
          "internalType": "uint256",
          "name": "len_",
          "type": "uint256"
        }
      ],
      "stateMutability": "view",
      "type": "function"
    },
    {
      "inputs": [
        {
          "internalType": "uint256",
          "name": "_sharesWithdrawal",
          "type": "uint256"
        }
      ],
      "name": "validatorExit",
      "outputs": [],
      "stateMutability": "nonpayable",
      "type": "function"
    },
    {
      "inputs": [
        {
          "internalType": "address",
          "name": "validatorAddr",
          "type": "address"
        }
      ],
      "name": "validatorInfo",
      "outputs": [
        {
          "internalType": "uint256",
          "name": "xVStake",
          "type": "uint256"
        },
        {
          "internalType": "uint256",
          "name": "xDStake",
          "type": "uint256"
        },
        {
          "internalType": "uint256",
          "name": "yVStake",
          "type": "uint256"
        },
        {
          "internalType": "uint256",
          "name": "yDStake",
          "type": "uint256"
        },
        {
          "internalType": "address",
          "name": "leftChild",
          "type": "address"
        },
        {
          "internalType": "address",
          "name": "rightChild",
          "type": "address"
        }
      ],
      "stateMutability": "view",
      "type": "function"
    },
    {
      "inputs": [
        {
          "internalType": "address",
          "name": "_operator",
          "type": "address"
        }
      ],
      "name": "validatorJoin",
      "outputs": [
        {
          "internalType": "address",
          "name": "validator",
          "type": "address"
        }
      ],
      "stateMutability": "payable",
      "type": "function"
    },
    {
      "inputs": [],
      "name": "validatorJoin",
      "outputs": [
        {
          "internalType": "address",
          "name": "validator",
          "type": "address"
        }
      ],
      "stateMutability": "payable",
      "type": "function"
    },
    {
      "inputs": [],
      "name": "validatorMinStake",
      "outputs": [
        {
          "internalType": "uint256",
          "name": "",
          "type": "uint256"
        }
      ],
      "stateMutability": "view",
      "type": "function"
    },
    {
      "inputs": [
        {
          "internalType": "address",
          "name": "_validator",
          "type": "address"
        }
      ],
      "name": "validatorPermanentlyBanned",
      "outputs": [
        {
          "internalType": "bool",
          "name": "",
          "type": "bool"
        }
      ],
      "stateMutability": "view",
      "type": "function"
    },
    {
      "inputs": [
        {
          "internalType": "address",
          "name": "_validator",
          "type": "address"
        }
      ],
      "name": "validatorPrime",
      "outputs": [],
      "stateMutability": "nonpayable",
      "type": "function"
    },
    {
      "inputs": [
        {
          "internalType": "address",
          "name": "_validator",
          "type": "address"
        },
        {
          "internalType": "uint256",
          "name": "_quarantinedAt",
          "type": "uint256"
        }
      ],
      "name": "validatorQuarantine",
      "outputs": [],
      "stateMutability": "nonpayable",
      "type": "function"
    },
    {
      "inputs": [],
      "name": "validatorQuarantineCount",
      "outputs": [
        {
          "internalType": "uint256",
          "name": "",
          "type": "uint256"
        }
      ],
      "stateMutability": "view",
      "type": "function"
    },
    {
      "inputs": [
        {
          "internalType": "address",
          "name": "_validator",
          "type": "address"
        }
      ],
      "name": "validatorQuarantineRepeal",
      "outputs": [],
      "stateMutability": "nonpayable",
      "type": "function"
    },
    {
      "inputs": [
        {
          "internalType": "address",
          "name": "_validator",
          "type": "address"
        }
      ],
      "name": "validatorQuarantined",
      "outputs": [
        {
          "internalType": "bool",
          "name": "",
          "type": "bool"
        }
      ],
      "stateMutability": "view",
      "type": "function"
    },
    {
      "inputs": [
        {
          "internalType": "bytes32",
          "name": "_seed",
          "type": "bytes32"
        },
        {
          "internalType": "uint256",
          "name": "_slot",
          "type": "uint256"
        },
        {
          "internalType": "uint256",
          "name": "_epoch",
          "type": "uint256"
        },
        {
          "internalType": "uint256",
          "name": "_txCreatedTimestamp",
          "type": "uint256"
        },
        {
          "internalType": "uint256",
          "name": "_number",
          "type": "uint256"
        },
        {
          "internalType": "bool",
          "name": "_weighted",
          "type": "bool"
        },
        {
          "internalType": "address[]",
          "name": "_consumed",
          "type": "address[]"
        }
      ],
      "name": "validatorSelection",
      "outputs": [
        {
          "internalType": "uint256",
          "name": "leader_",
          "type": "uint256"
        },
        {
          "internalType": "address[]",
          "name": "validators_",
          "type": "address[]"
        },
        {
          "internalType": "address[]",
          "name": "penalized_",
          "type": "address[]"
        }
      ],
      "stateMutability": "view",
      "type": "function"
    },
    {
      "inputs": [
        {
          "internalType": "bytes32",
          "name": "_seed",
          "type": "bytes32"
        },
        {
          "internalType": "uint256",
          "name": "_slot",
          "type": "uint256"
        },
        {
          "internalType": "uint256",
          "name": "_txCreatedTimestamp",
          "type": "uint256"
        },
        {
          "internalType": "uint256",
          "name": "_number",
          "type": "uint256"
        },
        {
          "internalType": "bool",
          "name": "_weighted",
          "type": "bool"
        },
        {
          "internalType": "address[]",
          "name": "_consumed",
          "type": "address[]"
        }
      ],
      "name": "validatorSelection",
      "outputs": [
        {
          "internalType": "uint256",
          "name": "leader_",
          "type": "uint256"
        },
        {
          "internalType": "address[]",
          "name": "validators_",
          "type": "address[]"
        },
        {
          "internalType": "address[]",
          "name": "penalized_",
          "type": "address[]"
        }
      ],
      "stateMutability": "view",
      "type": "function"
    },
    {
      "inputs": [
        {
          "internalType": "address",
          "name": "_validator",
          "type": "address"
        }
      ],
      "name": "validatorView",
      "outputs": [
        {
          "components": [
            {
              "internalType": "address",
              "name": "left",
              "type": "address"
            },
            {
              "internalType": "address",
              "name": "right",
              "type": "address"
            },
            {
              "internalType": "address",
              "name": "parent",
              "type": "address"
            },
            {
              "internalType": "uint256",
              "name": "eBanned",
              "type": "uint256"
            },
            {
              "internalType": "uint256",
              "name": "ePrimed",
              "type": "uint256"
            },
            {
              "internalType": "uint256",
              "name": "vStake",
              "type": "uint256"
            },
            {
              "internalType": "uint256",
              "name": "vShares",
              "type": "uint256"
            },
            {
              "internalType": "uint256",
              "name": "dStake",
              "type": "uint256"
            },
            {
              "internalType": "uint256",
              "name": "dShares",
              "type": "uint256"
            },
            {
              "internalType": "uint256",
              "name": "vDeposit",
              "type": "uint256"
            },
            {
              "internalType": "uint256",
              "name": "vWithdrawal",
              "type": "uint256"
            },
            {
              "internalType": "bool",
              "name": "live",
              "type": "bool"
            }
          ],
          "internalType": "struct IGenLayerStaking.ValidatorView",
          "name": "",
          "type": "tuple"
        }
      ],
      "stateMutability": "view",
      "type": "function"
    },
    {
      "inputs": [
        {
          "internalType": "address",
          "name": "_validator",
          "type": "address"
        }
      ],
      "name": "validatorViewPrePrimed",
      "outputs": [
        {
          "components": [
            {
              "internalType": "address",
              "name": "left",
              "type": "address"
            },
            {
              "internalType": "address",
              "name": "right",
              "type": "address"
            },
            {
              "internalType": "address",
              "name": "parent",
              "type": "address"
            },
            {
              "internalType": "uint256",
              "name": "eBanned",
              "type": "uint256"
            },
            {
              "internalType": "uint256",
              "name": "ePrimed",
              "type": "uint256"
            },
            {
              "internalType": "uint256",
              "name": "vStake",
              "type": "uint256"
            },
            {
              "internalType": "uint256",
              "name": "vShares",
              "type": "uint256"
            },
            {
              "internalType": "uint256",
              "name": "dStake",
              "type": "uint256"
            },
            {
              "internalType": "uint256",
              "name": "dShares",
              "type": "uint256"
            },
            {
              "internalType": "uint256",
              "name": "vDeposit",
              "type": "uint256"
            },
            {
              "internalType": "uint256",
              "name": "vWithdrawal",
              "type": "uint256"
            },
            {
              "internalType": "bool",
              "name": "live",
              "type": "bool"
            }
          ],
          "internalType": "struct IGenLayerStaking.ValidatorView",
          "name": "",
          "type": "tuple"
        }
      ],
      "stateMutability": "view",
      "type": "function"
    },
    {
      "inputs": [
        {
          "internalType": "address",
          "name": "_validator",
          "type": "address"
        }
      ],
      "name": "validatorViewPrimed",
      "outputs": [
        {
          "components": [
            {
              "internalType": "address",
              "name": "left",
              "type": "address"
            },
            {
              "internalType": "address",
              "name": "right",
              "type": "address"
            },
            {
              "internalType": "address",
              "name": "parent",
              "type": "address"
            },
            {
              "internalType": "uint256",
              "name": "eBanned",
              "type": "uint256"
            },
            {
              "internalType": "uint256",
              "name": "ePrimed",
              "type": "uint256"
            },
            {
              "internalType": "uint256",
              "name": "vStake",
              "type": "uint256"
            },
            {
              "internalType": "uint256",
              "name": "vShares",
              "type": "uint256"
            },
            {
              "internalType": "uint256",
              "name": "dStake",
              "type": "uint256"
            },
            {
              "internalType": "uint256",
              "name": "dShares",
              "type": "uint256"
            },
            {
              "internalType": "uint256",
              "name": "vDeposit",
              "type": "uint256"
            },
            {
              "internalType": "uint256",
              "name": "vWithdrawal",
              "type": "uint256"
            },
            {
              "internalType": "bool",
              "name": "live",
              "type": "bool"
            }
          ],
          "internalType": "struct IGenLayerStaking.ValidatorView",
          "name": "",
          "type": "tuple"
        }
      ],
      "stateMutability": "view",
      "type": "function"
    },
    {
      "inputs": [
        {
          "internalType": "address",
          "name": "_validator",
          "type": "address"
        },
        {
          "internalType": "uint256",
          "name": "_index",
          "type": "uint256"
        }
      ],
      "name": "validatorWithdrawal",
      "outputs": [
        {
          "internalType": "uint256",
          "name": "epoch_",
          "type": "uint256"
        },
        {
          "components": [
            {
              "internalType": "uint256",
              "name": "input",
              "type": "uint256"
            },
            {
              "internalType": "uint256",
              "name": "output",
              "type": "uint256"
            },
            {
              "internalType": "uint256",
              "name": "epoch",
              "type": "uint256"
            },
            {
              "internalType": "uint256",
              "name": "linkToNextCommit",
              "type": "uint256"
            }
          ],
          "internalType": "struct IGenLayerStaking.Commit",
          "name": "commit_",
          "type": "tuple"
        }
      ],
      "stateMutability": "view",
      "type": "function"
    },
    {
      "inputs": [
        {
          "internalType": "address",
          "name": "_validator",
          "type": "address"
        },
        {
          "internalType": "uint256",
          "name": "_epoch",
          "type": "uint256"
        }
      ],
      "name": "validatorWithdrawalByEpoch",
      "outputs": [
        {
          "components": [
            {
              "internalType": "uint256",
              "name": "input",
              "type": "uint256"
            },
            {
              "internalType": "uint256",
              "name": "output",
              "type": "uint256"
            },
            {
              "internalType": "uint256",
              "name": "epoch",
              "type": "uint256"
            },
            {
              "internalType": "uint256",
              "name": "linkToNextCommit",
              "type": "uint256"
            }
          ],
          "internalType": "struct IGenLayerStaking.Commit",
          "name": "commit_",
          "type": "tuple"
        }
      ],
      "stateMutability": "view",
      "type": "function"
    },
    {
      "inputs": [
        {
          "internalType": "address",
          "name": "_validator",
          "type": "address"
        }
      ],
      "name": "validatorWithdrawalLen",
      "outputs": [
        {
          "internalType": "uint256",
          "name": "len_",
          "type": "uint256"
        }
      ],
      "stateMutability": "view",
      "type": "function"
    },
    {
      "inputs": [],
      "name": "validatorsCount",
      "outputs": [
        {
          "internalType": "uint256",
          "name": "",
          "type": "uint256"
        }
      ],
      "stateMutability": "view",
      "type": "function"
    },
    {
      "inputs": [
        {
          "internalType": "uint256",
          "name": "",
          "type": "uint256"
        }
      ],
      "name": "validatorsEven",
      "outputs": [
        {
          "internalType": "address",
          "name": "",
          "type": "address"
        }
      ],
      "stateMutability": "view",
      "type": "function"
    },
    {
      "inputs": [
        {
          "internalType": "uint256",
          "name": "",
          "type": "uint256"
        }
      ],
      "name": "validatorsOdd",
      "outputs": [
        {
          "internalType": "address",
          "name": "",
          "type": "address"
        }
      ],
      "stateMutability": "view",
      "type": "function"
    },
    {
      "inputs": [],
      "name": "validatorsRoot",
      "outputs": [
        {
          "internalType": "address",
          "name": "",
          "type": "address"
        }
      ],
      "stateMutability": "view",
      "type": "function"
    },
    {
      "inputs": [
        {
          "internalType": "uint256",
          "name": "",
          "type": "uint256"
        }
      ],
      "name": "weightsEven",
      "outputs": [
        {
          "internalType": "uint256",
          "name": "",
          "type": "uint256"
        }
      ],
      "stateMutability": "view",
      "type": "function"
    },
    {
      "inputs": [
        {
          "internalType": "uint256",
          "name": "",
          "type": "uint256"
        }
      ],
      "name": "weightsOdd",
      "outputs": [
        {
          "internalType": "uint256",
          "name": "",
          "type": "uint256"
        }
      ],
      "stateMutability": "view",
      "type": "function"
    }
  ],
  "bytecode": "0x608080604052346015576176c2908161001b8239f35b600080fdfe6080604052600436101561001257600080fd5b6000803560e01c8062b17a0114613f88578063019f89f514613f6957806301fe0a7814613f4a57806301ffc9a714613ef357806304abb96d14613c9057806305d7d64114613c6b57806308ac525614613c4d578063090d60bd14613bb4578063093531a014613b915780630a3cfb1314613b245780630a7292f514613af75780630ab07e8814613ad95780630d2bd90914613a785780630e3d5ab0146139d3578063112822d81461399e578063152ba3f7146139465780631538faf214613928578063161472eb14610b455780631bc2359a1461390a578063210663e4146138ed578063217fcc3e1461258157806321ef686f1461387f57806322133af01461381c5780632272e0ab146137fe5780632287d95f14611bd057806324840a5e146137d5578063248a9ca3146137b657806325e3926e1461379b57806328c56987146136bc5780632b5de0de146136105780632df04497146135a65780632ea94006146135585780632f2ff15d146135265780633057b168146134d757806330ebe468146134ae57806331b9e111146133b257806334b6b93b14613352578063363ea83d146132e857806336568abe146132a3578063370d012014613288578063385fb69d1461323c57806339b94189146131ce5780633b0da623146131af5780633fde6d7b1461319157806344b0d8d81461316757806344c4b4131461306557806344df8e7014612f4a5780634573428714612edd5780634971ec0214612eba5780634c12b33f14612e9c5780634f1811dd14612e17578063502e28ea14612d27578063510a6f2614612d0c57806356eaad0f14612cb05780635cc734ac14612bc65780636378eba314612ba95780636461cf5614612b8e57806365c7dd4a14612b5957806367604d2714612b3b5780636a319a6414612a7f5780636c0f79b614612a0757806370ccae76146129ad578063715018a61461292c57806371e2812614612907578063746e4ac7146128c45780637492100f146128a2578063759f24f41461288557806377a685141461285e57806379073e6e1461283f57806379084953146127a157806379ba5097146127535780637f10fe081461270557806381636917146126cc57806382df24a114612668578063837725951461264b57806387e51da9146125de5780638aabb07e146125865780638b7e92a6146125815780638ba7eceb1461242e5780638cc01fdc146123aa5780638da5cb5b14612374578063900cf0cf14612356578063900fd9ce1461231357806391d14854146122ba57806391eed60a1461227d57806392d3f78e1461220f57806393a090ec1461219b5780639424f76114612033578063968d97ab14611fe357806396be02a714611f9d5780639a612f7a14611f415780639b401cde14611f185780639bb2ea5a14611eb45780639e02760414611e21578063a01ebaa114611dfd578063a155685d14611d6a578063a217fddf14611d4e578063a39a580614611cec578063a5dc8da014611c46578063a629c2f714611bf8578063a8027c1014611bd5578063a92252ae14611bd0578063abfd6fa914611bac578063ac78a04b14611b8f578063af6c09a814611b35578063b03df1f014611af4578063b12d0d8214611949578063b3f05b971461192b578063b83f5b3914611700578063bea40039146116e5578063c0a604ad146116c7578063c32459a114611593578063c3ff497714611515578063c498c95b146114f0578063c90df532146114a2578063cb17452f14611479578063cc2a9a5b146111e6578063cd38347f146111bf578063cd856235146111a1578063ce4cb8761461116c578063cf662c141461107f578063d152d91b14610fd7578063d2d49c4b14610f93578063d547741f14610f58578063d7ef354414610f2f578063d8a7f84c14610ee1578063d9cb294314610d74578063da7a9b6a14610d56578063de8d9d3814610cc6578063dfc3736d14610c44578063e30c397814610c0e578063e3c6b0ca14610bf0578063ed612f8c14610bd2578063f2fde38b14610b4a578063f524e9df14610b45578063f8512d8714610b27578063facd743b14610ae4578063fad76f64146109db578063fafebac514610995578063fb197c0e14610934578063fca905a3146108b8578063fd8d8f36146106825763fe2761371461064157600080fd5b3461067f57602036600319011261067f5761066a61065d61404e565b610665615fd5565b615175565b600160008051602061760d8339815191525580f35b80fd5b503461067f578060031936011261067f5761069b615d8d565b806106a7603854615078565b9181925b6038548410156107da576106be846140d2565b905460039190911b1c6001600160a01b0316808452603a6020526040842054600019146107c9578084526039602052836040812055808452603a602052836040812055808452603b60205283604081205580845260336020526005604085208560048201550160ff19815416905560385460001981019081116107b557610747610786916140d2565b905460039190911b1c6001600160a01b0316610762876140d2565b9080546001600160a01b0360039390931b83811b199091169290931690921b179055565b61078e614c85565b610799603654614ced565b6036556107af6107a88461485c565b9383614a94565b526106ab565b634e487b7160e01b85526011600452602485fd5b50926107d49061485c565b926106ab565b92506107e581615078565b90825b818110610890576008548490819085906001600160a01b0316803b1561088c57604051631a58e04360e31b815260206004820152918391839182908490829061083590602483019061413e565b03925af180156108815761086c575b50807f59dd5c64d1987c202422ae7f4a43661c8a5c1bc51299a1c3dd35c1546ee1842c91a180f35b816108769161438f565b61067f578082610844565b6040513d84823e3d90fd5b5050fd5b6001906001600160a01b036108a58288614a94565b51166108b18286614a94565b52016107e8565b503461067f5760c036600319011261067f5760843590811515820361067f5760a435906001600160401b03821161067f5761093061092161090d856109003660048801614422565b92906011549336916143c7565b916044359060643590602435600435616f45565b60409391935193849384614452565b0390f35b503461067f57602036600319011261067f576109309061097a90610981906040906001600160a01b0361096561404e565b168152602e60205220604051928380926148d5565b038261438f565b60405191829160208352602083019061413e565b503461067f578060031936011261067f5760145460155490610930601654601754601854601954601a54601b5491601c5493601d5495601e54976040519b8c9b8c614480565b503461067f57602036600319011261067f576109f561404e565b6009546001600160a01b03163303610ad5576001600160a01b0316808252603b6020526040822054829160018216610ace57601f5b73__$a9930a26518626f1cf41cf7d897563c531$__82855260336020526040852060315491603254948752603a6020526040872054813b15610aca578795610104946040519889978896639adecea560e01b88526004880152602f6024880152604487015260366064870152608486015260a485015260c484015260e48301525af4801561088157610ab95750f35b81610ac39161438f565b61067f5780f35b8780fd5b6014610a2a565b63811befe960e01b8252600482fd5b503461067f57602036600319011261067f576020906001600160a01b03610b0961404e565b16815260338252604060018060a01b03912054161515604051908152f35b503461067f578060031936011261067f576020603654604051908152f35b61417b565b503461067f57602036600319011261067f57610b6461404e565b610b6c615b31565b60008051602061764d83398151915280546001600160a01b0319166001600160a01b0392831690811790915560008051602061758d833981519152549091167f38d16b8cac22d99fc7c124b9cd0de2d3fa1faef420bfe791d8c362d765e227008380a380f35b503461067f578060031936011261067f576020603054604051908152f35b503461067f578060031936011261067f576020600354604051908152f35b503461067f578060031936011261067f5760008051602061764d833981519152546040516001600160a01b039091168152602090f35b503461067f57604036600319011261067f57610c5e61404e565b6008546001600160a01b031633141580610cb1575b80610c9c575b610c8d57610c8a9060243590616147565b80f35b63fcde63e960e01b8252600482fd5b506007546001600160a01b0316331415610c79565b506009546001600160a01b0316331415610c73565b50602036600319011261067f576006546004359061111161111160901b016001600160a01b0391821601163303610d4757600f54811115610d38576040817fa4dec8e49a9c449aceaa40312819be0acf42a63da5f0c7f5be784840602c60b992600f558151903482526020820152a180f35b63719a0d3960e01b8252600482fd5b636a10007b60e01b8252600482fd5b503461067f578060031936011261067f576020604254604051908152f35b503461067f578060031936011261067f57610d8d615d8d565b60085481906001600160a01b0316803b15610ede57816040518092631a58e04360e31b825260206004830152818381610dc860248201614890565b03925af1801561088157610ec9575b505b603854811015610e495780610def6001926140d2565b838060a01b0391549060031b1c168084526039602052836040812055808452603a602052836040812055808452603b602052836040812055835260336020526005604084208460048201550160ff19815416905501610dd9565b506038548160385580610e87575b5080603655806037557f59dd5c64d1987c202422ae7f4a43661c8a5c1bc51299a1c3dd35c1546ee1842c8180a180f35b603882527f38395c5dceade9603479b177b68959049485df8aa97b39f3533039af5f456199908101905b818110610ebe5750610e57565b828155600101610eb1565b81610ed39161438f565b61067f578038610dd7565b50fd5b503461067f57602036600319011261067f577f36316aa5cc0bad3602f58963e5d1244e1c27193e295bb5d5ba8a717c0395c8296020600435610f21615b31565b80600155604051908152a180f35b503461067f578060031936011261067f57600e546040516001600160a01b039091168152602090f35b503461067f57604036600319011261067f57610f8f600435610f78614064565b90610f8a610f8582614961565b615ddb565b6160a7565b5080f35b503461067f578060031936011261067f5750601154600116610fc75761093061097a610981602d5b604051928380926148d5565b61093061097a610981602c610fbb565b503461067f57604036600319011261067f5760a09061107d6040610ff961404e565b61100161486b565b50600180861b0316928381526035602052611023602435600184842001614103565b90549060031b1c9381526033602052601e828220018482526020522060036040519161104e8361433d565b80548352600181015460208401526002810154604084015201546060820152604051928352602083019061411b565bf35b503461067f578060031936011261067f576007546001600160a01b031633141580611157575b6111485760115460011661113d576110c3601f545b600254906144cc565b42811115611136576110d690429061463b565b60015481101561112c576110ec9060015461463b565b6003555b7f94dd18d0cc0262cc85d4b8937d35e70671aaed2e54033dbad2cf13b83c65d8b1602060125461111f8161485c565b601255604051908152a180f35b50806003556110f0565b50806110d6565b6110c36014546110ba565b636c4db06b60e01b8152600490fd5b506009546001600160a01b03163314156110a5565b503461067f57604036600319011261067f57602061119961118b61404e565b611193614064565b906150e3565b604051908152f35b503461067f578060031936011261067f576020600454604051908152f35b503461067f578060031936011261067f5760206040516b0d92289838d21a99680000008152f35b503461067f5760c036600319011261067f5761120061404e565b611208614064565b61121061407a565b611218614090565b6112206140a6565b916112296140bc565b9360008051602061762d833981519152549560ff8760401c1615966001600160401b03811680159081611471575b6001149081611467575b15908161145e575b5061144f5767ffffffffffffffff19811660011760008051602061762d8339815191525587611422575b5061129c61753e565b6112a461753e565b6112ac61753e565b6112b461753e565b331561140e576112c333616b87565b6112cc33615eab565b506112d633615e25565b50600680546001600160a01b03199081166001600160a01b03938416179091556007805482169383169390931783556008805482169483169490941790935560098054841694821694909417909355600a8054831694841694909417909355600b805490911693909116929092179091556041819055604055670853a0d2313c00006031556706f05b59d3b200006032556201518060025562127500600455610e10600155620186a082556103e86005556b0d92289838d21a9968000000601055680246ddf979766800006042556908e4d3168276864000006043556113b95780f35b60ff60401b1960008051602061762d833981519152541660008051602061762d833981519152557fc7f505b2f371ae2175ee4913f4499e1f2633a7b5936321eed1cdaeb6115181d2602060405160018152a180f35b631e4fbdf760e01b88526004889052602488fd5b68ffffffffffffffffff1916680100000000000000011760008051602061762d8339815191525538611293565b63f92ee8a960e01b8952600489fd5b90501538611269565b303b159150611261565b899150611257565b503461067f578060031936011261067f5760206040516000805160206175ed8339815191528152f35b503461067f57602036600319011261067f577f29dd86219e6b88c72fd9a3be480a2f4605d3c3a6affa1b3abac0aaf2abf11c3460206004356114e2615b31565b80604255604051908152a180f35b503461067f578060031936011261067f5760206040516908e4d3168276864000008152f35b503461067f57602036600319011261067f576006546004359061111161111160901b016001600160a01b0391821601163303610d4757601f54611584576020817f076a5ddab2a5c0052b34c2297e0db5ae2ee770ddce71986024620217b0ef1fdf92601f55604051908152a180f35b639ded3b1560e01b8252600482fd5b503461067f57602036600319011261067f576115ad61404e565b6009546001600160a01b03163303610ad5576001600160a01b0316808252603360205260408220601154839073__$a9930a26518626f1cf41cf7d897563c531$__90813b156116c357829061010460405180948193635908033760e01b8352886004840152602f602484015260366044840152601f6064840152601460848401528060a484015260001960c484015260e48301525af48015610881576116ae575b50507f94a7bf639ae38b6414015161ac06878bbac5ba80ee87e24ed428ce754136ec969160056020920160ff19815416905580845260398252604084205461169b575b604051908152a180f35b6116a660375461485c565b603755611691565b816116b89161438f565b6116c357823861164e565b8280fd5b503461067f578060031936011261067f576020600f54604051908152f35b503461067f578060031936011261067f576020611199617252565b503461067f57602036600319011261067f5761171a61404e565b611722614982565b506001600160a01b03168152603360205260408120600a810154600881901c60ff1690600382101561191757811561181d57506109309250611771919060010361181457601381015b90615cda565b604051918291829190916101608061018083019460018060a01b03815116845260018060a01b03602082015116602085015260018060a01b036040820151166040850152606081015160608501526080810151608085015260a081015160a085015260c081015160c085015260e081015160e085015261010081015161010085015261012081015161012085015261014081015161014085015201511515910152565b600b810161176b565b60115491508161186a5760ff9150166002811015611856576109309250611771919061184d57600b810190615cda565b6013810161176b565b634e487b7160e01b83526021600452602483fd5b60ff166002811015611917576118de57600b82018054909181036118ce576013830190815460001982019182116118ba5761093095506117719493929111156118b3575061176b565b905061176b565b634e487b7160e01b86526011600452602486fd5b506109309250906117719161176b565b601382018054909181036118ce57600b830190815460001982019182116118ba5761093095506117719493929111156118b3575061176b565b634e487b7160e01b84526021600452602484fd5b503461067f578060031936011261067f576020601254604051908152f35b503461067f57604036600319011261067f57601154906040519161196e60208461438f565b81835260003681376001818116158015611aec57602d905b15611ae7575b80548015611ad857855160001982019182116118ba57811115611ac95785516119b49161463b565b80600111611ac1575b508115611ab25790839291611a10604051968794859463dff0f84760e01b8652600435600487015287602487015260243560448701526064860152608485015261010060a485015261010484019061413e565b9060c4830152603660e4830152038173__$f680ff9963eb253eede013ef87b81d17c1$__5af48015611aa5578182938392611a7c575b505050815115611a68576020828101516040516001600160a01b039091168152f35b634e487b7160e01b81526032600452602490fd5b915050611a9c9192503d8084833e611a94818361438f565b810190616efa565b90929138611a46565b50604051903d90823e3d90fd5b637574a52b60e11b8452600484fd5b9150386119bd565b637574a52b60e11b8552600485fd5b63d0b5c3bb60e01b8552600485fd5b61198c565b602c90611986565b503461067f57602036600319011261067f576020906001600160a01b03611b1961404e565b16815260348252604060018060a01b0391205416604051908152f35b503461067f57604036600319011261067f5760016040611b5361404e565b92611b5c614064565b93838060a01b03168152602e60205220019060018060a01b03166000526020526020600160406000200154604051908152f35b503461067f578060031936011261067f5760206040516101f48152f35b503461067f578060031936011261067f576020604051680246ddf979766800008152f35b6141bc565b503461067f578060031936011261067f576020604051660aa87bee537fff198152f35b503461067f57602036600319011261067f577f28288c452a36645204bd13f0522e2a03f688508f171ea13690ce7a5a486f72f96020600435611c38615b31565b80604355604051908152a180f35b503461067f576040608091601b611ca76001611c61366142ae565b90611c6d94929461486b565b5060a084901b84900390811680885260336020908152898920969092168852602e8252888820600091825285019091528790208301614e39565b50015483520160205220600360405191611cc08361433d565b8054835260018101546020840152600281015460408401520154606082015261107d604051809261411b565b503461067f576040608091601c611ca76001611d07366142ae565b90611d1394929461486b565b5060a084901b84900390811680885260336020908152898920969092168852602e825288882060009182528501909152879020600201614e39565b503461067f578060031936011261067f57602090604051908152f35b503461067f578060031936011261067f5760385481805b828110611d9357602084604051908152f35b611d9c816140d2565b905460039190911b1c6001600160a01b03168083526039602052604083205415159081611de6575b50611dd2575b600101611d81565b92611dde60019161485c565b939050611dca565b835250603a60205260408220546011541038611dc4565b503461067f578060031936011261067f576020604051684e1003b28d928000008152f35b508060031936011261067f57600c5460405163062fe1e160e41b815233600482015290602090829060249082906001600160a01b03165afa908115610881578291611e85575b5015611e7657610c8a336172b9565b63eb32d3bf60e01b8152600490fd5b611ea7915060203d602011611ead575b611e9f818361438f565b810190615060565b38611e67565b503d611e95565b503461067f57602036600319011261067f57600435611ed1615b31565b8015611f09576020817fd3c3674d241eb3fb81da09f8c56bdf72b08c8094de786997b95cde95d0ecfff592600555604051908152a180f35b6383c27a2d60e01b8252600482fd5b503461067f578060031936011261067f57602f546040516001600160a01b039091168152602090f35b503461067f578060031936011261067f57611f5a6168ab565b15611f8e577f94dd18d0cc0262cc85d4b8937d35e70671aaed2e54033dbad2cf13b83c65d8b1602060125461111f8161485c565b6349dbf5c360e11b8152600490fd5b503461067f578060031936011261067f57601f5460205490610930602154602254602354602454602554602654916027549360285495602954976040519b8c9b8c614480565b503461067f577f50721f4a66d681f3d4cc90420668ef54fb88787373b953616e3cdf26b901a43d60406120153661421c565b61201d615b31565b816031558060325582519182526020820152a180f35b503461067f57602036600319011261067f5761204d61404e565b612055615d8d565b6001600160a01b0316808252603960205260408220546120a8575b6020816000805160206175ad833981519152928452603382526005604085208560048201550160ff198154169055604051908152a180f35b8082526039602052816040812055808252603a602052816040812055808252603b602052816040812055815b6038548082101561218257826120e9836140d2565b905460039190911b1c6001600160a01b03161461210957506001016120d4565b600019810190811161216e579161214f6020926107626121376000805160206175ad833981519152966140d2565b905460039190911b1c6001600160a01b0316916140d2565b612157614c85565b612162603654614ced565b6036555b915050612070565b634e487b7160e01b84526011600452602484fd5b505060206000805160206175ad83398151915291612166565b503461067f57604036600319011261067f5760a09061107d60406121bd61404e565b6121c561486b565b50600180861b03169283815260356020526121e4602435838320614103565b90549060031b1c9381526033602052601d828220018482526020522060036040519161104e8361433d565b503461067f57602036600319011261067f577f6351022503ff845f9e2af03e0948d3dac0f3f1af4da4c40694f205ef7fd1fd38602061224c61404e565b612254615b31565b600e80546001600160a01b0319166001600160a01b03929092169182179055604051908152a180f35b503461067f57602036600319011261067f576020906001906040906001600160a01b036122a861404e565b16815260358452200154604051908152f35b503461067f57604036600319011261067f5760406122d6614064565b9160043581526000805160206175cd833981519152602052209060018060a01b0316600052602052602060ff604060002054166040519015158152f35b503461067f57602036600319011261067f5760043590602b5482101561067f57602b54821015611a6857602091602b825282822001549060031b1c604051908152f35b503461067f578060031936011261067f576020601154604051908152f35b503461067f578060031936011261067f5760008051602061758d833981519152546040516001600160a01b039091168152602090f35b503461067f578060031936011261067f57601154602f5460e0926001600160a01b0390911690808083612410575b5060275490601c54926123e9617252565b94604051968752602087015260408601526060850152608084015260a083015260c0820152f35b905061241d915082617127565b612428600283617127565b386123d8565b503461067f57604036600319011261067f578061244961404e565b602435338352602e602052604083209160018060a01b03811684526033602052604084209082612573575b601154156124e7575073__$1bfbdd025ffd3afc37361c6ba444514318$__916011549360425493803b156124e357869460a4936040519788968795632167701760e21b8752600487015260248601526044850152606484015260848301525af4801561088157610ab957505080f35b8680fd5b6001600160a01b031660009081526001840160205260409020604254919391929073__$1bfbdd025ffd3afc37361c6ba444514318$__803b156124e357869460e493604051978896879563659f32f360e01b8752600487015260248601526044850152602f60648501526014608485015260a484015260c48301525af4801561088157610ab957505080f35b61257c83616bf5565b612474565b61419f565b503461067f57604036600319011261067f5760406080916125a561404e565b6125ad61486b565b506001600160a01b03168152603360209081528282206024358352601e0190522060405190600390611cc08361433d565b503461067f57602036600319011261067f5760043590602c5482101561067f57602c54821015611a6857602c81527f7416c943b4a09859521022fd2e90eac0dd9026dad28fa317782a135f28a860919091015460405160039290921b1c6001600160a01b03168152602090f35b503461067f578060031936011261067f576020604051611d4c8152f35b503461067f5760e036600319011261067f5760a43590811515820361067f5760c435906001600160401b03821161067f57610930610921846126b76126b03660048801614422565b36916143c7565b90606435608435604435602435600435616f45565b503461067f57602036600319011261067f576020906040906001600160a01b036126f461404e565b168152603583522054604051908152f35b503461067f57602036600319011261067f577fc3230eb0e6f70cc11ce31caf16672f9c50d00e5a782f09f3a688cb3aaf77ddc26020600435612745615b31565b80600455604051908152a180f35b503461067f578060031936011261067f5760008051602061764d83398151915254336001600160a01b039091160361278e57610c8a33616b87565b63118cdaa760e01b815233600452602490fd5b503461067f57602036600319011261067f57806127bc61404e565b6001600160a01b03168082526033602090815260408084209284526035909152822060115490919073__$4c73b20894b72802355b5999003238f06e$__803b1561283b576040516374e09f3960e01b8152600481019390935260248301939093526044820152908290829060649082905af4801561088157610ab95750f35b8480fd5b503461067f57602036600319011261067f576020611199600435615043565b503461067f5761093061287961287336614232565b91616d01565b6040519182918261424c565b503461067f57602036600319011261067f57610c8a600435614f21565b503461067f578060031936011261067f576020604051668e1bc9bf0400008152f35b503461067f57602036600319011261067f5760043590602a5482101561067f57602a54821015611a6857602091602a825282822001549060031b1c604051908152f35b503461067f578060031936011261067f5760206129226168ab565b6040519015158152f35b503461067f578060031936011261067f57612945615b31565b60008051602061764d83398151915280546001600160a01b031990811690915560008051602061758d8339815191528054918216905581906001600160a01b03167f8be0079c531659141344cd1fd0a4f28419497f9722a3daafe3b4186f6b6457e08280a380f35b503461067f57604036600319011261067f57600160406129cb61404e565b926129d4614064565b93838060a01b03168152602e60205220019060018060a01b03166000526020526020600260406000200154604051908152f35b503461067f578060031936011261067f57600654600754600854600954600a54600b54600c54600d54604080516001600160a01b03998a16815297891660208901529588169587019590955292861660608601529085166080850152841660a0840152831660c083015290911660e082015261010090f35b503461067f576040612aea91601b612af0612a99366142ae565b90612aa5979297614e20565b50612aae61486b565b506001600160a01b0390811680875260336020908152888820999092168752602e82528787206000918252600190810190925287902001614e39565b50614e55565b9360208501518352016020522090600360405192612b0d8461433d565b80548452600181015460208501526002810154604085015201546060830152610930604051928392836142e8565b503461067f578060031936011261067f576020604054604051908152f35b503461067f57602036600319011261067f57610f8f612b7661404e565b612b7e615b31565b612b89610f85614918565b615e25565b503461067f57610930612879612ba33661421c565b906169bb565b503461067f578060031936011261067f5760209054604051908152f35b503461067f57606036600319011261067f576004356001600160401b038111612cac5736602382011215612cac57612c089036906024816004013591016143c7565b6008546044359291602435916001600160a01b03163303612c9d5781158015612c92575b612c8357825b8151811015612c7b576001600160a01b03612c4d8284614a94565b511615612c7b57600190612c7586856001600160a01b03612c6e8588614a94565b5116616204565b01612c32565b505050905080f35b63486e73c960e11b8352600483fd5b506011548211612c2c565b633cb01d9360e21b8352600483fd5b5080fd5b503461067f578060031936011261067f57612cc9615c37565b15612cfd57612cd661629a565b600160115414612cf0575b612ce96168ab565b6110f05780f35b612cf861629a565b612ce1565b63e7295fed60e01b8152600490fd5b503461067f57610930612879612d213661421c565b90614e73565b503461067f57604036600319011261067f57612d4161404e565b612d49614064565b90612d52615fd5565b60018060a01b0316808352602e602052604083209160018060a01b03168352603360205260408320906011549060405492604051946306bda09160e51b86526004860152602485015260448401526064830152608482015260208160a48173__$1bfbdd025ffd3afc37361c6ba444514318$__5af4801561088157612de8575b50600160008051602061760d8339815191525580f35b612e099060203d602011612e10575b612e01818361438f565b8101906149fb565b5038612dd2565b503d612df7565b503461067f57602036600319011261067f5760c0906040906001600160a01b03612e3f61404e565b168152603360205220600e81015490601081015490601681015460188201549060018060a01b0360018401541692600260018060a01b039101541693604051958652602086015260408501526060840152608083015260a0820152f35b503461067f578060031936011261067f576020601354604051908152f35b503461067f578060031936011261067f576020604051670214e8348c4f00008152f35b503461067f576040612aea91601c612af0612ef7366142ae565b909691612f02614e20565b50612f0b61486b565b506001600160a01b039081168652602e602090815287872098909116600081815260019099018252978790209786526033905285852096600201614e39565b503461067f578060031936011261067f576013549081156130565760065460405163044df8e760e41b602082015260048152926001600160a01b0390911690612f9460248561438f565b61800a3b156116c3576040519163084bc3eb60e41b83526004830152604060248301528351806044840152835b81811061304057848085818187816064818a86838284010152601f8019910116810103019161800a5af180156108815761302b575b507f98e0d9ae5770534ab17c57681d61e5b9c9afc53c1ca1706d558406dcffca2d0a6020601354604051908152a18060135580f35b816130359161438f565b61067f578082612ff6565b8060208092880101516064828701015201612fc1565b6396191d4560e01b8152600490fd5b503461067f578060031936011261067f57805b603854811015610f8f5761308b816140d2565b905460039190911b1c6001600160a01b0316808352603a6020526040832054601154811115908161315a575b501561314b578083526039602052826040812055808352603a6020528260408120558252603b60205281604081205560385460001981019081116131375761310161311c916140d2565b905460039190911b1c6001600160a01b0316610762836140d2565b613124614c85565b61312f603654614ced565b603655613078565b634e487b7160e01b83526011600452602483fd5b506131559061485c565b613078565b60001914159050386130b7565b503461067f57602036600319011261067f57610c8a61318461404e565b61318c615d8d565b614cfa565b503461067f578060031936011261067f576020600154604051908152f35b503461067f57602036600319011261067f576020611199600435614c68565b503461067f57602036600319011261067f577fe9ea8a68803c78bc5a52ad6b4aaf87a3c80b6b289e8b124ecd27c9c37d6b9893602061320b61404e565b613213615b31565b600680546001600160a01b0319166001600160a01b03929092169182179055604051908152a180f35b503461067f57606036600319011261067f5761325661404e565b6008546001600160a01b0316330361327957610c8a906044359060243590616204565b633cb01d9360e21b8252600482fd5b503461067f5761093061287961329d36614232565b91614aa8565b503461067f57604036600319011261067f576132bd614064565b336001600160a01b038216036132d957610f8f906004356160a7565b63334bd91960e11b8252600482fd5b503461067f57602036600319011261067f5761330261404e565b61330a614982565b506001600160a01b03168152603360205260408120600a81015460ff166002811015611856576109309250611771919061334857600b810190615cda565b6013810190615cda565b503461067f57602036600319011261067f576020906001600160a01b0361337761404e565b16908181526039835260408120541515918261339a575b50506040519015158152f35b8152603a83526040902054600019149050388061338e565b503461067f57602036600319011261067f576133cc61404e565b6133d4615fd5565b6001600160a01b031680825260336020908152604080842092845260358252808420604154601154925163dea8f17760e01b815260048101959095526024850191909152604484015260648301529091908260848173__$4c73b20894b72802355b5999003238f06e$__5af49081156134a2579061346a575b602090600160008051602061760d83398151915255604051908152f35b506020813d60201161349a575b816134846020938361438f565b81010312613495576020905161344d565b600080fd5b3d9150613477565b604051903d90823e3d90fd5b508060031936011261067f5760206134c5336158f7565b6040516001600160a01b039091168152f35b503461067f577f5e83cdc9c870d860a35f51fc078fa8347c2be0a3ecf22801f0860d5dcf7a568b60406135093661421c565b613511615b31565b8183558060415582519182526020820152a180f35b503461067f57604036600319011261067f57610f8f600435613546614064565b90613553610f8582614961565b615f45565b503461067f57602036600319011261067f577fe2c637d92b7cef2feded32c719d8898f657a8a71db9cd670fea58b028e11122f6020600435613598615b31565b80600255604051908152a180f35b503461067f57602036600319011261067f576135c061404e565b6135c8614982565b506001600160a01b03168152603360205260408120600a81015460ff1660028110156118565761093092506117719190613606576013810190615cda565b600b810190615cda565b503461067f578060031936011261067f576011546001166136b557602b5b604051908160208254918281520190819285526020852090855b81811061369f575050508261365e91038361438f565b604051928392602084019060208552518091526040840192915b818110613686575050500390f35b8251845285945060209384019390920191600101613678565b8254845260209093019260019283019201613648565b602a61362e565b503461067f5760e036600319011261067f576136d661404e565b6136de614064565b6136e661407a565b6136ee614090565b6136f66140a6565b916136ff6140bc565b9360c4359560018060a01b038716809703610aca5761371c615b31565b600780546001600160a01b03199081166001600160a01b03938416179091556008805482169383169390931790925560098054831693821693909317909255600a8054821693831693909317909255600b8054831693821693909317909255600c8054821693909216929092179055600d805490911691909117905580f35b503461067f578060031936011261067f576020612922615c37565b503461067f57602036600319011261067f576020611199600435614961565b503461067f578060031936011261067f576044546040516001600160a01b039091168152602090f35b503461067f578060031936011261067f576020604154604051908152f35b503461067f57602036600319011261067f57600435613839615b31565b8015613870576020817f02f82a44724f1f24b96244a99fc656e810a8330918290a83115a11bdab07ffb8928455604051908152a180f35b632e98040760e01b8252600482fd5b503461067f57602036600319011261067f577f7144f35c24ebacc4c0b78da6084e2b6bbf2b01ceb5a78b25fa7ca3aab7134d5d60206138bc61404e565b6138c4615b31565b604480546001600160a01b0319166001600160a01b03929092169182179055604051908152a180f35b503461067f578060031936011261067f57602060405161800a8152f35b503461067f578060031936011261067f576020600254604051908152f35b503461067f578060031936011261067f576020604354604051908152f35b503461067f57604036600319011261067f57604060809161396561404e565b61396d61486b565b506001600160a01b03168152603360209081528282206024358352601d0190522060405190600390611cc08361433d565b503461067f57602036600319011261067f57610f8f6139bb61404e565b6139c3615b31565b6139ce610f85614918565b616011565b503461067f578060031936011261067f5760385481805b8281106139fc57602084604051908152f35b613a05816140d2565b60018060a01b0391549060031b1c16808352603a60205260408320549083526039602052604083205415159081613a6c575b81613a5f575b50613a4b575b6001016139ea565b92613a5760019161485c565b939050613a43565b6000191415905038613a3d565b60115481119150613a37565b503461067f578060031936011261067f57601154600116613ad257602d5b549081613aa95760209150604051908152f35b6000198201918211613abe5750602090611199565b634e487b7160e01b81526011600452602490fd5b602c613a96565b503461067f578060031936011261067f576020601054604051908152f35b503461067f57604036600319011261067f576020611199613b1661404e565b613b1e614064565b906147fd565b503461067f57602036600319011261067f5760043590602d5482101561067f57602d54821015611a6857602d81527f4a2cc91ee622da3bc833a54c37ffcb6f3ec23b7793efc5eaf5e71b7b406c5c069091015460405160039290921b1c6001600160a01b03168152602090f35b503461067f57602036600319011261067f57613bab615b31565b60043560025580f35b503461067f57602036600319011261067f57606090613bd161404e565b613bd96147de565b506001600160a01b0316808252603360208181526040808520600490810154858752939092529384902001549251926000191491613c168461430c565b83526020830152604082015261107d60405180926040809160018060a01b0381511684526020810151602085015201511515910152565b503461067f578060031936011261067f576020600554604051908152f35b503461067f578060031936011261067f57604060315460325482519182526020820152f35b50602036600319011261067f57613ca561404e565b338252602e602090815260408084206001600160a01b03808516600081815260018401865284902090875260339094529185208354939594909390921615613e9c575b50506044546001600160a01b031680613e43575b5060115415613d9e57819260016011541615600014613d9557600860145b01613d263482546144cc565b905573__$1bfbdd025ffd3afc37361c6ba444514318$__6011549060425493813b15613d915760405163220809ab60e01b81526004810194909452602484015260448301919091526064820192909252908290829060849082905af4801561088157610ab957505080f35b8580fd5b6008601f613d1a565b3415613e345780546001600160a01b031615613e25578192613dc234601c546144cc565b601c5573__$1bfbdd025ffd3afc37361c6ba444514318$__91823b15613e205760848492604051948593849262a05e2d60e31b845260048401526024830152602f6044830152601460648301525af4801561088157610ab957505080f35b505050fd5b6353670afb60e11b8252600482fd5b63174b96db60e31b8252600482fd5b803b156116c357828091602460405180948193631bab078b60e31b83523460048401525af18015613e9157908391613e7c575b50613cfc565b81613e869161438f565b612cac578138613e76565b6040513d85823e3d90fd5b84546001600160a01b0319166001600160a01b038316178555805490600160401b821015613edf5781610762916001613ed89594018155614103565b3880613ce8565b634e487b7160e01b85526041600452602485fd5b503461067f57602036600319011261067f5760043563ffffffff60e01b8116809103612cac57602090637965db0b60e01b8114908115613f39575b506040519015158152f35b6301ffc9a760e01b14905082613f2e565b50602036600319011261067f5760206134c5613f6461404e565b6158f7565b503461067f57602036600319011261067f576020611199600435614668565b503461067f57604036600319011261067f57613fa261404e565b613faa614064565b6001600160a01b039182168352602e602090815260408085209390921680855260019390930181528184209284526033905282206011549091839173__$1bfbdd025ffd3afc37361c6ba444514318$__803b1561404a5760405163654d215f60e11b8152600481019390935260248301949094526044820152918190839060649082905af48015611aa55761403c5780f35b6140459161438f565b388180f35b8380fd5b600435906001600160a01b038216820361349557565b602435906001600160a01b038216820361349557565b604435906001600160a01b038216820361349557565b606435906001600160a01b038216820361349557565b608435906001600160a01b038216820361349557565b60a435906001600160a01b038216820361349557565b6038548110156140ed57603860005260206000200190600090565b634e487b7160e01b600052603260045260246000fd5b80548210156140ed5760005260206000200190600090565b606080918051845260208101516020850152604081015160408501520151910152565b906020808351928381520192019060005b81811061415c5750505090565b82516001600160a01b031684526020938401939092019160010161414f565b34613495576000366003190112613495576109306040516109818161097a81614890565b346134955760003660031901126134955760206040516103e88152f35b34613495576020366003190112613495576001600160a01b036141dd61404e565b16806000526039602052604060002054151580614202575b6020906040519015158152f35b50600052603a6020526020604060002054601154106141f5565b6040906003190112613495576004359060243590565b606090600319011261349557600435906024359060443590565b602060408183019282815284518094520192019060005b8181106142705750505090565b90919260206060826142a360019488516040809160018060a01b0381511684526020810151602085015201511515910152565b019401929101614263565b6060906003190112613495576004356001600160a01b038116810361349557906024356001600160a01b0381168103613495579060443590565b91604061430a929493602060c08201968051835201516020820152019061411b565b565b606081019081106001600160401b0382111761432757604052565b634e487b7160e01b600052604160045260246000fd5b608081019081106001600160401b0382111761432757604052565b61018081019081106001600160401b0382111761432757604052565b604081019081106001600160401b0382111761432757604052565b90601f801991011681019081106001600160401b0382111761432757604052565b6001600160401b0381116143275760051b60200190565b92916143d2826143b0565b936143e0604051958661438f565b602085848152019260051b810191821161349557915b81831061440257505050565b82356001600160a01b0381168103613495578152602092830192016143f6565b9181601f84011215613495578235916001600160401b038311613495576020808501948460051b01011161349557565b9161446f9061447d9492845260606020850152606084019061413e565b91604081840391015261413e565b90565b979491926101409996939c9b9a9794919c6101608a019d8a5260208a015260408901526060880152608087015260a086015260c085015260e08401526101008301526101208201520152565b919082018092116144d957565b634e487b7160e01b600052601160045260246000fd5b818102929181159184041417156144d957565b906803782dace9d8ffffff1982019182136001166144d957565b906806f05b59d3b1ffffff1982019182136001166144d957565b9068ad78ebc5ac61ffffff1982019182136001166144d957565b906856bc75e2d630ffffff1982019182136001166144d957565b90682b5e3af16b187fffff1982019182136001166144d957565b906815af1d78b58c3fffff1982019182136001166144d957565b90680ad78ebc5ac61fffff1982019182136001166144d957565b9068056bc75e2d630fffff1982019182136001166144d957565b906802b5e3af16b187ffff1982019182136001166144d957565b9068015af1d78b58c3ffff1982019182136001166144d957565b908168056bc75e2d63100000019182126001166144d957565b919091600083820193841291129080158216911516176144d957565b919082039182116144d957565b8115614652570490565b634e487b7160e01b600052601260045260246000fd5b600181018091116144d957670de0b6b3a7640000810290808204670de0b6b3a764000014901517156144d957670186cc6acd4b000090684e1003b28d927fffff1981019081136001166144d9576146e19060008112906146d690660aa87bee53800090836147cf57906174a2565b90156147c1576154bd565b9081670de0b6b3a7640000019182126001166144d9576000821280159261470d92916147b2579061750c565b906001036147a4575b80670214e8348c4f00000390670214e8348c4f000082116144d957670de0b6b3a76400008202918204670de0b6b3a76400001490670214e8348c4f00001417156144d95768138400eca364a000009004806b0d92289838d21a996800000002906b0d92289838d21a99680000008204036144d9576147a0670de0b6b3a76400009160005490614648565b0490565b6147ad90615344565b614716565b6147bb90615344565b9061750c565b6147ca90615344565b6154bd565b6147d890615344565b906174a2565b604051906147eb8261430c565b60006040838281528260208201520152565b60018060a01b0316600052602e602052600160406000200160018060a01b0382166000526020526040600020600181015415614855576001600160a01b03909116600090815260336020526040902061447d91615b67565b5050600090565b60001981146144d95760010190565b604051906148788261433d565b60006060838281528260208201528260408201520152565b6020603854918281520190603860005260206000209060005b8181106148b65750505090565b82546001600160a01b03168452602090930192600192830192016148a9565b906020825491828152019160005260206000209060005b8181106148f95750505090565b82546001600160a01b03168452602090930192600192830192016148ec565b6000805160206175ed8339815191526000526000805160206175cd8339815191526020527f595b99de72e44550de209b8610b07ab21870ce71a1063d294735321864dc516b5490565b6000526000805160206175cd83398151915260205260016040600020015490565b6040519061498f82614358565b6000610160838281528260208201528260408201528260608201528260808201528260a08201528260c08201528260e08201528261010082015282610120820152826101408201520152565b600211156149e557565b634e487b7160e01b600052602160045260246000fd5b90816020910312613495575190565b60405190614a1960208361438f565b600080835282815b828110614a2d57505050565b602090614a386147de565b82828501015201614a21565b90614a4e826143b0565b614a5b604051918261438f565b8281528092614a6c601f19916143b0565b019060005b828110614a7d57505050565b602090614a886147de565b82828501015201614a71565b80518210156140ed5760209160051b010190565b8215614c5d5760008093603854945b858110614bfe575081841015614bf157614ae591614ad68592836144cc565b90808211614be9575b5061463b565b90614aef82614a44565b9160009260009160005b87811080614be0575b15614bd557614b10816140d2565b60018060a01b0391549060031b1c16806000526039602052604060002054868115159182614bca575b5050614b4f575b50614b4a9061485c565b614af9565b878792971015614b6e575b50614b67614b4a9161485c565b9590614b40565b614bc2614b4a929582614b6793600052603a60205260406000205460405191614b968361430c565b8252806020830152600019146040820152614bb18288614a94565b52614bbc8187614a94565b5061485c565b949150614b5a565b111590508638614b39565b505094505050505090565b50818410614b02565b905038614adf565b505050505061447d614a0a565b614c07816140d2565b60018060a01b0391549060031b1c166000526039602052604060002054848115159182614c52575b5050614c3e575b600101614ab7565b91614c4a60019161485c565b929050614c36565b111590508438614c2f565b50505061447d614a0a565b6101f48102908082046101f414901517156144d957612710900490565b6038548015614cba5760001901614cb5614ca0826038614103565b81549060018060a01b039060031b1b19169055565b603855565b634e487b7160e01b600052603160045260246000fd5b80548015614cba576000190190614cea614ca08383614103565b55565b80156144d9576000190190565b60365415614e1d576001600160a01b031660008181526039602052604090205415614e1d5760385460005b818110614da5575b50506020817fafe1b5701d937b2e60b3848d1cfa44c92f6199d8e1c5bd2cec4ad0e153d078ab92600052603982526000604081205580600052603a82526000604081205580600052603b82526000604081205560365480614d93575b50604051908152a1565b614d9c90614ced565b60365538614d89565b82614daf826140d2565b905460039190911b1c6001600160a01b031614614dce57600101614d25565b600019820192909183116144d957614e0f6020926107626121377fafe1b5701d937b2e60b3848d1cfa44c92f6199d8e1c5bd2cec4ad0e153d078ab966140d2565b614e17614c85565b91614d2d565b50565b60405190614e2d82614374565b60006020838281520152565b80548210156140ed5760005260206000209060011b0190600090565b90604051614e6281614374565b602060018294805484520154910152565b91906038549081841015614f1557614e9091614ad68592836144cc565b614e9981614a44565b9260005b828110614ea957505050565b80614ebe614eb9600193856144cc565b6140d2565b838060a01b0391549060031b1c1680600052603a60205260406000205460405191614ee88361430c565b8252806020830152600019146040820152614f038288614a94565b52614f0e8187614a94565b5001614e9d565b5050905061447d614a0a565b6000903382526033602052604082209033835260356020526040832081615035575b60115415614fc55773__$4c73b20894b72802355b5999003238f06e$__9060115493823b15613d9157604051632aa32d3360e01b81526004810191909152602481019190915260448101929092526064820192909252908290829060849082905af4801561088157614fb3575050565b614fbe82809261438f565b61067f5750565b506043549173__$4c73b20894b72802355b5999003238f06e$__803b1561283b5784929160a491604051958694859363b3650c2960e01b85526004850152602f602485015260448401526014606484015260848301525af480156108815761502b575050565b81614e1d9161438f565b61503e82616bf5565b614f43565b6103e88102908082046103e814901517156144d957612710900490565b90816020910312613495575180151581036134955790565b90615082826143b0565b61508f604051918261438f565b82815280926150a0601f19916143b0565b0190602036910137565b9094939260e0926101008301968352602f602084015260366040840152601f60608401526014608084015260a083015260c08201520152565b6001600160a01b039081166000908152602e6020908152604080832094909316825260019093018352818120603390935220600a81015490919060ff1660028110156149e55761516b57600b8201905b6001810154156151635761515a61514f61447d94600693615b67565b6005840154906144ef565b91015490614648565b505050600090565b6013820190615133565b601254600091600182018092116131375760115480921061533f576001600160a01b03908116835260336020526040808420600a548251632bca1a2d60e21b81526004810183905293166024840152604483019390935273__$a9930a26518626f1cf41cf7d897563c531$__919081606481855af480156152ef57848591615303575b61520292506144cc565b8061526e575b5060115491600183161561526657601f915b803b1561283b5784929160a491604051958694859363268aa99560e21b85526004850152602f602485015260366044850152606484015260848301525af4801561088157614fb3575050565b60149161521a565b6011546001166152fa57600a601f5b016152898282546144cc565b90556044546001600160a01b031690816152a4575b50615208565b813b1561283b57849160248392604051948593849263eed9c5ef60e01b845260048401525af180156152ef576152db575b8061529e565b836152e89194929461438f565b91386152d5565b6040513d86823e3d90fd5b600a601461527d565b50506040813d604011615337575b8161531e6040938361438f565b8101031261404a578060206152029251910151906151f8565b3d9150615311565b505050565b600160ff1b81146144d95760000390565b906064820291808305606414901517156144d957565b906b02df0ab5a80a22c61ab5a7008202918083056b02df0ab5a80a22c61ab5a70014901517156144d957565b90693f1fce3da636ea5cf850820291808305693f1fce3da636ea5cf85014901517156144d957565b90690127fa27722cc06cc5e2820291808305690127fa27722cc06cc5e214901517156144d957565b9068280e60114edb805d0382029180830568280e60114edb805d0314901517156144d957565b90680ebc5fb41746121110820291808305680ebc5fb4174612111014901517156144d957565b906808f00f760a4b2db55d8202918083056808f00f760a4b2db55d14901517156144d957565b906806f5f17757889379378202918083056806f5f177578893793714901517156144d957565b818102929160008212600160ff1b8214166144d95781840514901517156144d957565b811561465257600160ff1b81146000198314166144d9570590565b680238fd42c5cf03ffff19811215806158d0575b6154da906174dc565b600081126158ab576806f05b59d3b20000008112615871576154fb9061451c565b61551d770195e54c5dd42177f53a27172fa9ec63026282700000000091615355565b68056bc75e2d631000009068ad78ebc5ac62000000811215615851575b6856bc75e2d631000000811215615836575b682b5e3af16b1880000081121561581b575b6815af1d78b58c400000811215615800575b680ad78ebc5ac62000008112156157e5575b68056bc75e2d631000008112156157ca575b6802b5e3af16b18800008112156157af575b68015af1d78b58c40000811215615785575b8080808080808080806155ca81614606565b6155d4828061547f565b68056bc75e2d6310000090056002900590816155ef9161461f565b916155f99161547f565b68056bc75e2d6310000090056003900590816156149161461f565b9161561e9161547f565b68056bc75e2d6310000090056004900590816156399161461f565b916156439161547f565b68056bc75e2d63100000900560059005908161565e9161461f565b916156689161547f565b68056bc75e2d6310000090056006900590816156839161461f565b9161568d9161547f565b68056bc75e2d6310000090056007900590816156a89161461f565b916156b29161547f565b68056bc75e2d6310000090056008900590816156cd9161461f565b916156d79161547f565b68056bc75e2d6310000090056009900590816156f29161461f565b916156fc9161547f565b68056bc75e2d631000009005600a900590816157179161461f565b916157219161547f565b68056bc75e2d631000009005600b9005908161573c9161461f565b916157469161547f565b68056bc75e2d631000009005600c900561575f9161461f565b6157689161547f565b68056bc75e2d6310000090059061577e9161547f565b6064900590565b61579a6157946157a9926145ec565b92615459565b68056bc75e2d63100000900590565b906155b8565b61579a6157be6157c4926145d2565b92615433565b906155a6565b61579a6157d96157df926145b8565b9261540d565b90615594565b61579a6157f46157fa9261459e565b926153e7565b90615582565b61579a61580f61581592614584565b926153bf565b90615570565b61579a61582a6158309261456a565b92615397565b9061555e565b61579a61584561584b92614550565b9261536b565b9061554c565b61585b9150614536565b6e01855144814a7ff805980ff00840009061553a565b6803782dace9d900000081126158a05761588a90614502565b61551d6b1425982cf597cd205cef738091615355565b61551d600191615355565b6158c76147ca6ec097ce7bc90715b34b9f100000000092615344565b61447d916154a2565b5068070c1cc73b00c800008113156154d1565b51906001600160a01b038216820361349557565b601154151580615b26575b615b15576001600160a01b0316908115615b045733821415918280615ae4575b615ad3576030546005541115615ac257600c5460405163e2a4a27b60e01b8152336004820152602481018390526001600160a01b03909116906020816044816000865af18015615a7757615a83575b5060206004916040519283809263320ef67160e11b82525afa908115615a7757600091615a17575b507f2b7297b31452d0a13e57c605870ec3c9b4ac6ef33e5cbae7a0f00bc2a3e967829181606092956159eb575b6159cf816172b9565b60405191825260018060a01b03166020820152346040820152a1565b600082815260346020526040902080546001600160a01b0319166001600160a01b0383161790556159c6565b906020823d602011615a6f575b81615a316020938361438f565b8101031261067f57507f2b7297b31452d0a13e57c605870ec3c9b4ac6ef33e5cbae7a0f00bc2a3e9678291615a676060926158e3565b915091615999565b3d9150615a24565b6040513d6000823e3d90fd5b6020813d602011615aba575b81615a9c6020938361438f565b8101031261349557600491615ab26020926158e3565b509150615971565b3d9150615a8f565b639ce3911d60e01b60005260046000fd5b632d6690dd60e11b60005260046000fd5b506000818152603460205260409020546001600160a01b03161515615922565b63eb32d3bf60e01b60005260046000fd5b630b294dc360e01b60005260046000fd5b506043543410615902565b60008051602061758d833981519152546001600160a01b03163303615b5257565b63118cdaa760e01b6000523360045260246000fd5b6011546000939192845b600185018054821015615c2f57615b89828592614e39565b50966001880154600052601b840160205260406000209760018901548015600014615c0d5750600289015480615bdf5750600291615bc89154906144cc565b97015414615bd857600101615b71565b5050509050565b90919250600281018091116144d9578592600292615bc8928510615c045754906144cc565b506000906144cc565b91615c29615c21600294615bc894546144ef565b8b5490614648565b906144cc565b505050509050565b601154801560008115615cae5750615c5d6004545b60018416615ca757601f5b546144cc565b4210614855571580615c92575b615c8c5760125490600182018092116144d95711615c8757600190565b600090565b50600090565b50600181018082116144d957600f5410615c6a565b6014615c57565b60018311615cc0575b615c5d90615c4c565b50615c5d615cd3600254600354906144cc565b9050615cb7565b615ce2614982565b5060018060a01b036001820154169160018060a01b0360028301541691600460018060a01b036003830154169101548254600384015460048501549060058601549260068701549460018801549660ff600760028b01549a015416996040519b615d4b8d614358565b8c5260208c015260408b015260608a0152608089015260a088015260c087015260e0860152610100850152610120840152610140830152151561016082015290565b33600090815260008051602061766d833981519152602052604090205460ff1615615db457565b63e2517d3f60e01b600052336004526000805160206175ed83398151915260245260446000fd5b60008181526000805160206175cd8339815191526020908152604080832033845290915290205460ff1615615e0d5750565b63e2517d3f60e01b6000523360045260245260446000fd5b6001600160a01b038116600090815260008051602061766d833981519152602052604090205460ff16615c8c576001600160a01b0316600081815260008051602061766d83398151915260205260408120805460ff191660011790553391906000805160206175ed8339815191529060008051602061756d8339815191529080a4600190565b6001600160a01b03811660009081527fb7db2dd08fcb62d0c9e08c51941cae53c267786a0b75803fb7960902fc8ef97d602052604090205460ff16615c8c576001600160a01b031660008181527fb7db2dd08fcb62d0c9e08c51941cae53c267786a0b75803fb7960902fc8ef97d60205260408120805460ff1916600117905533919060008051602061756d8339815191528180a4600190565b60008181526000805160206175cd833981519152602090815260408083206001600160a01b038616845290915290205460ff166148555760008181526000805160206175cd833981519152602090815260408083206001600160a01b0395909516808452949091528120805460ff191660011790553392919060008051602061756d8339815191529080a4600190565b600260008051602061760d833981519152541461600057600260008051602061760d83398151915255565b633ee5aeb560e01b60005260046000fd5b6001600160a01b038116600090815260008051602061766d833981519152602052604090205460ff1615615c8c576001600160a01b0316600081815260008051602061766d83398151915260205260408120805460ff191690553391906000805160206175ed833981519152907ff6391f5c32d9c69d2a47ea670b442974b53935d1edc7fd64eb21e047a839171b9080a4600190565b60008181526000805160206175cd833981519152602090815260408083206001600160a01b038616845290915290205460ff16156148555760008181526000805160206175cd833981519152602090815260408083206001600160a01b0395909516808452949091528120805460ff19169055339291907ff6391f5c32d9c69d2a47ea670b442974b53935d1edc7fd64eb21e047a839171b9080a4600190565b6001600160a01b0316906000821561533f5773__$a9930a26518626f1cf41cf7d897563c531$__8382526033602052604082209060115491813b1561404a579183916161ae93604051809581948293635908033760e01b84528a60001991600486016150aa565b03915af480156108815791604093917f6917318dac70d2950cf691aa372c972b60d4a75903e00a01f89a795a70de683795936161f4575b505082519182526020820152a1565b816161fe9161438f565b386161e5565b6001600160a01b031691600090831561626b5773__$a9930a26518626f1cf41cf7d897563c531$__908483526033602052604083209160115492813b1561283b57604051635908033760e01b8152938593859392849283926161ae928b90600486016150aa565b50505050565b80548015614cba5760001901906162888282614103565b8154906000199060031b1b1916905555565b6011546000906001161580156168a357601f905b15801561689c57601f5b811561689457602b915b82901561688c57602d905b816162e8603754603654809111616883575b6037549061463b565b60365560378790556030541561684e57505060018060a01b03602f54168552603360205260408520928054906030549260405195631428a18d60e01b8752602f600488015260248701526044860152606485015285608485015260a484015260c483015260608260e48173__$10fea0eca7ca0798b023cff1d908ee714c$__5af480156152ef5784928591616815575b50915b80546167d6575b50426001840155616394601154614668565b906002840191808355801515806167c2575b616765575b508480819084548015908115616648575b5050806165c1575b5080616541575b50506003840154916163e360048301938454906144cc565b936163f4600584019586549061463b565b6003840155428355548681156165315750600019810190811161651d5792868096959381959382945b600683015554600a880197885461643490836144cc565b90600701546164429161463b565b61644b82615043565b6164549161463b565b9061645e90614c68565b6164679161463b565b60135490616474916144cc565b601355816001820155816007820155600201555555556011546164969061485c565b8060115560405181815260207f98f021e0ecab7c38e92fb55a25d5d8d422d82e26b170cee83568d7d6221353af91a16044546001600160a01b031690816164dc57505050565b6164e4617252565b823b1561404a579060448492836040519586948593633bbd2c1760e21b8552600485015260248401525af1801561088157614fb3575050565b634e487b7160e01b87526011600452602487fd5b809695938195925081938261641d565b600e54829182918291906001600160a01b03165af13d156165bc573d6001600160401b0381116165a85760405190616583601f8201601f19166020018361438f565b81528660203d92013e5b156165995784386163cb565b63bd5ac82f60e01b8552600485fd5b634e487b7160e01b87526041600452602487fd5b61658d565b600d54919250906001600160a01b0316801561663957601154813b156166355790602489926040519485938492636f3f4c9760e11b845260048401525af1801561662a57908791616615575b9190916163c4565b8161661f9161438f565b613d9157853861660d565b6040513d89823e3d90fd5b8880fd5b630a0c98f360e41b8852600488fd5b925092505061665681615043565b9061666081614c68565b92611d4c820290828204611d4c141715616751579061271089949392049083828460068c015415156000146167475761669f61669f926166a49561463b565b61463b565b6003890154151580616733575b156163bc5760445493945091926001600160a01b0316916166d1916144cc565b813b1561663557889160248392604051948593849263d4ee6c2560e01b845260048401525af1801561672857908893929161670d575b806163bc565b8361671b919492939461438f565b6124e35790869138616707565b6040513d8a823e3d90fd5b506044546001600160a01b031615156166b1565b50505050836166a4565b634e487b7160e01b89526011600452602489fd5b6044546001600160a01b031690813b156124e3578691602483926040519485938492633b91c87560e21b845260048401525af180156167b757156163ab57856167b09196929661438f565b93386163ab565b6040513d88823e3d90fd5b506044546001600160a01b031615156163a6565b9294919390945b60305460018101809111613137578454111561680a576167fc84614cd0565b61680585616271565b6167dd565b925092909338616382565b9250506060823d606011616846575b816168316060938361438f565b8101031261404a576020825192015138616378565b3d9150616824565b9694929091969593955b8754156168765761686888614cd0565b61687187616271565b616858565b919395509193955061637b565b806037556162df565b602c906162cd565b602a916162c2565b60146162b8565b6014906162ae565b601154801580156169b1575b615c8c5760125460001982019182116144d9578114615c8c5760075460405163132d95ab60e11b81526004810183905260009291602090829060249082906001600160a01b03165afa908115613e9157839161697f575b5061697b57600954604051634d66354560e11b81526004810192909252909150602090829060249082906001600160a01b03165afa908115615a775760009161695c575b50615c8757600190565b616975915060203d602011611ead57611e9f818361438f565b38616952565b5090565b90506020813d6020116169a9575b8161699a6020938361438f565b810103126116c357513861690e565b3d915061698d565b50600181146168b7565b8115616b7d5760008092603854935b848110616aff575081831015616af3576169e991614ad68492836144cc565b6169f281614a44565b60009160009060005b86811080616aea575b15616ae057616a12816140d2565b60018060a01b0391549060031b1c1680600052603a602052604060002054816000526039602052604060002054151580616ad5575b600181616acd575b50616a65575b5050616a609061485c565b6169fb565b878793971015616a86575b5050616a7e616a609161485c565b949038616a55565b616a609294616a7e92616ac69260405191616aa08361430c565b8252806020830152600019146040820152616abb8289614a94565b52614bbc8188614a94565b9391616a70565b905038616a4f565b506011548111616a47565b5050509250505090565b50818310616a04565b5050505061447d614a0a565b616b08816140d2565b60018060a01b0391549060031b1c1680600052603a60205260406000205490600052603960205260406000205415159081616b71575b50600181616b69575b50616b55575b6001016169ca565b91616b6160019161485c565b929050616b4d565b905038616b47565b90506011541038616b3e565b505061447d614a0a565b60008051602061764d83398151915280546001600160a01b031990811690915560008051602061758d83398151915280549182166001600160a01b0393841690811790915591167f8be0079c531659141344cd1fd0a4f28419497f9722a3daafe3b4186f6b6457e0600080a3565b6044546000916001600160a01b039091169081616c1157505050565b813b156116c35760405163140edcf560e31b815260048101829052838160248183875af180156152ef57616ced575b50604051634f55e80160e11b81529061010082600481865afa9182156152ef578492616cb5575b5080821115616cad57616c799161463b565b813b156116c357829160248392604051948593849263b8cb573360e01b845260048401525af1801561088157614fb3575050565b505081616c79565b909150610100813d8211616ce5575b81616cd2610100938361438f565b8101031261404a57602001519038616c67565b3d9150616cc4565b83616cfa9194929461438f565b9138616c40565b8215614c5d5760008093603854945b858110616e28575081841015614bf157616d2f91614ad68592836144cc565b616d3881614a44565b9060009260009160005b87811080616e1f575b15616e1457616d59816140d2565b60018060a01b0391549060031b1c1680600052603a602052604060002054816000526039602052604060002054151580616e0b575b616da3575b5050616d9e9061485c565b616d42565b888893981015616dc4575b5050616dbc616d9e9161485c565b959038616d93565b616d9e9295616dbc92616e049260405191616dde8361430c565b8252806020830152600019146040820152616df9828a614a94565b52614bbc8189614a94565b9491616dae565b50848111616d8e565b505050509250505090565b50818410616d4b565b616e31816140d2565b60018060a01b0391549060031b1c1680600052603a6020526040600020549060005260396020528460406000205415159182616e8b575b5050616e77575b600101616d10565b91616e8360019161485c565b929050616e6f565b1190508438616e68565b9080601f83011215613495578151616eac816143b0565b92616eba604051948561438f565b81845260208085019260051b82010192831161349557602001905b828210616ee25750505090565b60208091616eef846158e3565b815201910190616ed5565b916060838303126134955782519260208101516001600160401b0381116134955783616f27918301616e95565b9260408201516001600160401b0381116134955761447d9201616e95565b91969395909294966001811615918260001461711f57602d925b1561711757602b915b83549788156171065782516000198a01998a116144d9578911156170f557616f9460009984519061463b565b8082116170ed575b5080156170de5788999a8998995060001461705d5790616ff592916040519b8c988998631392940760e21b8a5260048a0152602489015260448801526064870152608486015261012060a486015261012485019061413e565b9160c484015260e48301526036610104830152038173__$f680ff9963eb253eede013ef87b81d17c1$__5af492831561088157829083809561703a575b509093919050565b915091935061705392503d8091833e611a94818361438f565b9290913880617032565b6170a093506040519a8b97889763dff0f84760e01b89526004890152602488015260448701526064860152608485015261010060a485015261010484019061413e565b9060c4830152603660e4830152038173__$f680ff9963eb253eede013ef87b81d17c1$__5af492831561088157829083809561703a57509093919050565b637574a52b60e11b8952600489fd5b905038616f9c565b637574a52b60e11b60005260046000fd5b63d0b5c3bb60e01b60005260046000fd5b602a91616f68565b602c92616f5f565b6001600160a01b03811615614855576001600160a01b03166000908152603360205260409020906000600282036171e15750617171601383015b60056003820154910154906144cc565b60018301549092906001600160a01b0316806171bd575b50600201546001600160a01b03165b906001600160a01b0382166171ab57505090565b6171b491617127565b61447d916144cc565b826171ca91949294617127565b6171d9600291617197936144cc565b939150617188565b60016171f1600a85015460ff1690565b6171fa816149db565b1480617246575b8061723a575b15617219575061717160138301617161565b506001811661722e57617171600b8301617161565b61717160138301617161565b50601083015415617207565b50600e83015415617201565b601154801561727757602f546001600160a01b03169081156148555761447d91617127565b50602f546000906001600160a01b031680617290575090565b90506172a860026172a2600084617127565b92617127565b808211156172b4575090565b905090565b6172c1615fd5565b6172ca81615175565b600090600160008051602061760d833981519152553415617490576001600160a01b0390811680835260336020908152604080852083865260359092528420815492939092161561747b575b6044546001600160a01b03168061742c575b50601154156173b3576011546001166173aa57600860145b0161734c3482546144cc565b905573__$4c73b20894b72802355b5999003238f06e$__601154813b15613d915791608491869493604051968795869463464ad34b60e11b865260048601526024850152604484015260648301525af4801561088157614fb3575050565b6008601f617340565b6173bf34601c546144cc565b601c5573__$4c73b20894b72802355b5999003238f06e$__604354813b15613d91579160c491869493604051968795869463ad09408360e01b865260048601526024850152602f604485015260648401526014608484015260a48301525af4801561088157614fb3575050565b803b1561283b578480916024604051809481936332578bc960e11b83523460048401525af18015617470571561732857846174699195929561438f565b9238617328565b6040513d87823e3d90fd5b80546001600160a01b03191683178155617316565b6001624ee83b60e01b03198252600482fd5b906174ac916144ef565b806174b75750600090565b60001981019081116144d957670de0b6b3a76400009004600181018091116144d95790565b156174e357565b62461bcd60e51b6000908152602060045260076024526642414c2330303960c81b604452606490fd5b9081617519575050600090565b670de0b6b3a76400008202918204670de0b6b3a7640000036144d95761447d91614648565b60ff60008051602061762d8339815191525460401c161561755b57565b631afcd79f60e31b60005260046000fdfe2f8788117e7eff1d82e926ec794901d17c78024a50270940304540a733656f0d9016d09d72d40fdae2fd8ceac6b6234c7706214fd39c1cd1e609a0528c19930014ad70993200099d43e1f87a4c680f1a748142d340ffc4197c6eb268a725622c02dd7bc7dec4dceedda775e58dd541e08a116c6c53815c0bd028192f7b626800155e7f76c52e49fe8308e62eabe3ce449c978443b7d8beb86992427229ec386f9b779b17422d0df92223018b32b4d1fa46e071723d6817e2486d003becc55f00f0c57e16840df040f15088dc2f81fe391c3923bec73e23a9662efc9c229c6a00237e158222e3e6968b72b9db0d8043aacf074ad9f650f0d1606b4d82ee432c00595b99de72e44550de209b8610b07ab21870ce71a1063d294735321864dc516aa2646970667358221220d4f81ce3074246d57ae0ad6c03bf634732b700d335f3b41b7e2d00e062035f5764736f6c634300081c0033",
  "linkReferences": {
    "contracts/utils/DelegatorUtils.sol": {
      "DelegatorUtils": [
        {
          "length": 20,
          "start": 9370
        },
        {
          "length": 20,
          "start": 9509
        },
        {
          "length": 20,
          "start": 11725
        },
        {
          "length": 20,
          "start": 15685
        },
        {
          "length": 20,
          "start": 15842
        },
        {
          "length": 20,
          "start": 16386
        }
      ]
    },
    "contracts/utils/ValidatorPrimeUtils.sol": {
      "ValidatorPrimeUtils": [
        {
          "length": 20,
          "start": 2631
        },
        {
          "length": 20,
          "start": 5622
        },
        {
          "length": 20,
          "start": 20969
        },
        {
          "length": 20,
          "start": 24950
        },
        {
          "length": 20,
          "start": 25140
        }
      ]
    },
    "contracts/utils/ValidatorSelectionUtils.sol": {
      "ValidatorSelectionUtils": [
        {
          "length": 20,
          "start": 6716
        },
        {
          "length": 20,
          "start": 28711
        },
        {
          "length": 20,
          "start": 28876
        }
      ]
    },
    "contracts/utils/ValidatorTreeUtils.sol": {
      "ValidatorTreeUtils": [
        {
          "length": 20,
          "start": 25455
        }
      ]
    },
    "contracts/utils/ValidatorUtils.sol": {
      "ValidatorUtils": [
        {
          "length": 20,
          "start": 10241
        },
        {
          "length": 20,
          "start": 13382
        },
        {
          "length": 20,
          "start": 20328
        },
        {
          "length": 20,
          "start": 20455
        },
        {
          "length": 20,
          "start": 29547
        },
        {
          "length": 20,
          "start": 29663
        }
      ]
    }
  },
  "deployedLinkReferences": {
    "contracts/utils/DelegatorUtils.sol": {
      "DelegatorUtils": [
        {
          "length": 20,
          "start": 9343
        },
        {
          "length": 20,
          "start": 9482
        },
        {
          "length": 20,
          "start": 11698
        },
        {
          "length": 20,
          "start": 15658
        },
        {
          "length": 20,
          "start": 15815
        },
        {
          "length": 20,
          "start": 16359
        }
      ]
    },
    "contracts/utils/ValidatorPrimeUtils.sol": {
      "ValidatorPrimeUtils": [
        {
          "length": 20,
          "start": 2604
        },
        {
          "length": 20,
          "start": 5595
        },
        {
          "length": 20,
          "start": 20942
        },
        {
          "length": 20,
          "start": 24923
        },
        {
          "length": 20,
          "start": 25113
        }
      ]
    },
    "contracts/utils/ValidatorSelectionUtils.sol": {
      "ValidatorSelectionUtils": [
        {
          "length": 20,
          "start": 6689
        },
        {
          "length": 20,
          "start": 28684
        },
        {
          "length": 20,
          "start": 28849
        }
      ]
    },
    "contracts/utils/ValidatorTreeUtils.sol": {
      "ValidatorTreeUtils": [
        {
          "length": 20,
          "start": 25428
        }
      ]
    },
    "contracts/utils/ValidatorUtils.sol": {
      "ValidatorUtils": [
        {
          "length": 20,
          "start": 10214
        },
        {
          "length": 20,
          "start": 13355
        },
        {
          "length": 20,
          "start": 20301
        },
        {
          "length": 20,
          "start": 20428
        },
        {
          "length": 20,
          "start": 29520
        },
        {
          "length": 20,
          "start": 29636
        }
      ]
    }
  }
}