{
  "_format": "hh-sol-artifact-1",
  "contractName": "TribunalAppeal",
  "sourceName": "contracts/transactions/TribunalAppeal.sol",
  "abi": [
    {
      "inputs": [],
      "name": "AccessControlBadConfirmation",
      "type": "error"
    },
    {
      "inputs": [
        {
          "internalType": "address",
          "name": "account",
          "type": "address"
        },
        {
          "internalType": "bytes32",
          "name": "neededRole",
          "type": "bytes32"
        }
      ],
      "name": "AccessControlUnauthorizedAccount",
      "type": "error"
    },
    {
      "inputs": [],
      "name": "CallerNotTransactions",
      "type": "error"
    },
    {
      "inputs": [],
      "name": "InvalidCommitHash",
      "type": "error"
    },
    {
      "inputs": [],
      "name": "InvalidInitialization",
      "type": "error"
    },
    {
      "inputs": [],
      "name": "InvalidOffset",
      "type": "error"
    },
    {
      "inputs": [],
      "name": "InvalidTribunalAppealStatus",
      "type": "error"
    },
    {
      "inputs": [],
      "name": "InvalidVote",
      "type": "error"
    },
    {
      "inputs": [],
      "name": "NotInitializing",
      "type": "error"
    },
    {
      "inputs": [
        {
          "internalType": "address",
          "name": "owner",
          "type": "address"
        }
      ],
      "name": "OwnableInvalidOwner",
      "type": "error"
    },
    {
      "inputs": [
        {
          "internalType": "address",
          "name": "account",
          "type": "address"
        }
      ],
      "name": "OwnableUnauthorizedAccount",
      "type": "error"
    },
    {
      "inputs": [],
      "name": "TribunalAlreadyFinalized",
      "type": "error"
    },
    {
      "inputs": [],
      "name": "TribunalNotFound",
      "type": "error"
    },
    {
      "inputs": [],
      "name": "ValidatorAlreadyCommitted",
      "type": "error"
    },
    {
      "inputs": [],
      "name": "ValidatorAlreadyRevealed",
      "type": "error"
    },
    {
      "inputs": [],
      "name": "ValidatorAlreadyVoted",
      "type": "error"
    },
    {
      "anonymous": false,
      "inputs": [
        {
          "indexed": true,
          "internalType": "bytes32",
          "name": "txId",
          "type": "bytes32"
        },
        {
          "indexed": true,
          "internalType": "uint256",
          "name": "tribunalIndex",
          "type": "uint256"
        },
        {
          "indexed": true,
          "internalType": "address",
          "name": "leader",
          "type": "address"
        }
      ],
      "name": "AdminTribunalClosed",
      "type": "event"
    },
    {
      "anonymous": false,
      "inputs": [
        {
          "indexed": true,
          "internalType": "address",
          "name": "caller",
          "type": "address"
        },
        {
          "indexed": false,
          "internalType": "bool",
          "name": "authorized",
          "type": "bool"
        }
      ],
      "name": "AuthorizedCallerUpdated",
      "type": "event"
    },
    {
      "anonymous": false,
      "inputs": [
        {
          "indexed": false,
          "internalType": "uint64",
          "name": "version",
          "type": "uint64"
        }
      ],
      "name": "Initialized",
      "type": "event"
    },
    {
      "anonymous": false,
      "inputs": [
        {
          "indexed": true,
          "internalType": "address",
          "name": "previousOwner",
          "type": "address"
        },
        {
          "indexed": true,
          "internalType": "address",
          "name": "newOwner",
          "type": "address"
        }
      ],
      "name": "OwnershipTransferStarted",
      "type": "event"
    },
    {
      "anonymous": false,
      "inputs": [
        {
          "indexed": true,
          "internalType": "address",
          "name": "previousOwner",
          "type": "address"
        },
        {
          "indexed": true,
          "internalType": "address",
          "name": "newOwner",
          "type": "address"
        }
      ],
      "name": "OwnershipTransferred",
      "type": "event"
    },
    {
      "anonymous": false,
      "inputs": [
        {
          "indexed": true,
          "internalType": "bytes32",
          "name": "role",
          "type": "bytes32"
        },
        {
          "indexed": true,
          "internalType": "bytes32",
          "name": "previousAdminRole",
          "type": "bytes32"
        },
        {
          "indexed": true,
          "internalType": "bytes32",
          "name": "newAdminRole",
          "type": "bytes32"
        }
      ],
      "name": "RoleAdminChanged",
      "type": "event"
    },
    {
      "anonymous": false,
      "inputs": [
        {
          "indexed": true,
          "internalType": "bytes32",
          "name": "role",
          "type": "bytes32"
        },
        {
          "indexed": true,
          "internalType": "address",
          "name": "account",
          "type": "address"
        },
        {
          "indexed": true,
          "internalType": "address",
          "name": "sender",
          "type": "address"
        }
      ],
      "name": "RoleGranted",
      "type": "event"
    },
    {
      "anonymous": false,
      "inputs": [
        {
          "indexed": true,
          "internalType": "bytes32",
          "name": "role",
          "type": "bytes32"
        },
        {
          "indexed": true,
          "internalType": "address",
          "name": "account",
          "type": "address"
        },
        {
          "indexed": true,
          "internalType": "address",
          "name": "sender",
          "type": "address"
        }
      ],
      "name": "RoleRevoked",
      "type": "event"
    },
    {
      "anonymous": false,
      "inputs": [
        {
          "indexed": true,
          "internalType": "bytes32",
          "name": "txId",
          "type": "bytes32"
        },
        {
          "indexed": true,
          "internalType": "uint256",
          "name": "tribunalIndex",
          "type": "uint256"
        },
        {
          "indexed": true,
          "internalType": "address",
          "name": "validator",
          "type": "address"
        }
      ],
      "name": "TribunalAppealCommitting",
      "type": "event"
    },
    {
      "anonymous": false,
      "inputs": [
        {
          "indexed": true,
          "internalType": "bytes32",
          "name": "txId",
          "type": "bytes32"
        },
        {
          "indexed": true,
          "internalType": "uint256",
          "name": "tribunalIndex",
          "type": "uint256"
        },
        {
          "indexed": false,
          "internalType": "uint256",
          "name": "timestamp",
          "type": "uint256"
        }
      ],
      "name": "TribunalAppealCommittingFinalized",
      "type": "event"
    },
    {
      "anonymous": false,
      "inputs": [
        {
          "indexed": true,
          "internalType": "bytes32",
          "name": "txId",
          "type": "bytes32"
        },
        {
          "indexed": false,
          "internalType": "enum ITribunalAppeal.TribunalResultType",
          "name": "result",
          "type": "uint8"
        },
        {
          "indexed": true,
          "internalType": "uint256",
          "name": "tribunalIndex",
          "type": "uint256"
        },
        {
          "indexed": false,
          "internalType": "uint256",
          "name": "timestamp",
          "type": "uint256"
        }
      ],
      "name": "TribunalAppealFinalized",
      "type": "event"
    },
    {
      "anonymous": false,
      "inputs": [
        {
          "indexed": true,
          "internalType": "bytes32",
          "name": "txId",
          "type": "bytes32"
        },
        {
          "indexed": true,
          "internalType": "uint256",
          "name": "tribunalIndex",
          "type": "uint256"
        },
        {
          "indexed": true,
          "internalType": "address",
          "name": "validator",
          "type": "address"
        }
      ],
      "name": "TribunalAppealRevealing",
      "type": "event"
    },
    {
      "anonymous": false,
      "inputs": [
        {
          "indexed": true,
          "internalType": "bytes32",
          "name": "txId",
          "type": "bytes32"
        },
        {
          "indexed": true,
          "internalType": "address",
          "name": "leader",
          "type": "address"
        },
        {
          "indexed": true,
          "internalType": "uint256",
          "name": "tribunalIndex",
          "type": "uint256"
        }
      ],
      "name": "TribunalAppealStarted",
      "type": "event"
    },
    {
      "anonymous": false,
      "inputs": [
        {
          "indexed": true,
          "internalType": "bytes32",
          "name": "txId",
          "type": "bytes32"
        },
        {
          "indexed": false,
          "internalType": "uint256",
          "name": "tribunalIndex",
          "type": "uint256"
        },
        {
          "indexed": true,
          "internalType": "address",
          "name": "validator",
          "type": "address"
        }
      ],
      "name": "TribunalAppealVoteCommitted",
      "type": "event"
    },
    {
      "anonymous": false,
      "inputs": [
        {
          "indexed": true,
          "internalType": "bytes32",
          "name": "txId",
          "type": "bytes32"
        },
        {
          "indexed": false,
          "internalType": "uint256",
          "name": "tribunalIndex",
          "type": "uint256"
        },
        {
          "indexed": true,
          "internalType": "address",
          "name": "validator",
          "type": "address"
        },
        {
          "indexed": false,
          "internalType": "enum ITransactions.VoteType",
          "name": "voteType",
          "type": "uint8"
        }
      ],
      "name": "TribunalAppealVoteRevealed",
      "type": "event"
    },
    {
      "inputs": [],
      "name": "DEFAULT_ADMIN_ROLE",
      "outputs": [
        {
          "internalType": "bytes32",
          "name": "",
          "type": "bytes32"
        }
      ],
      "stateMutability": "view",
      "type": "function"
    },
    {
      "inputs": [],
      "name": "acceptOwnership",
      "outputs": [],
      "stateMutability": "nonpayable",
      "type": "function"
    },
    {
      "inputs": [],
      "name": "addressManager",
      "outputs": [
        {
          "internalType": "contract IAddressManager",
          "name": "",
          "type": "address"
        }
      ],
      "stateMutability": "view",
      "type": "function"
    },
    {
      "inputs": [
        {
          "internalType": "bytes32",
          "name": "_txId",
          "type": "bytes32"
        },
        {
          "internalType": "uint256",
          "name": "_index",
          "type": "uint256"
        }
      ],
      "name": "adminCloseTribunalInFavor",
      "outputs": [],
      "stateMutability": "nonpayable",
      "type": "function"
    },
    {
      "inputs": [
        {
          "internalType": "address",
          "name": "",
          "type": "address"
        }
      ],
      "name": "authorizedCallers",
      "outputs": [
        {
          "internalType": "bool",
          "name": "",
          "type": "bool"
        }
      ],
      "stateMutability": "view",
      "type": "function"
    },
    {
      "inputs": [
        {
          "internalType": "bytes32",
          "name": "_txId",
          "type": "bytes32"
        },
        {
          "internalType": "uint256",
          "name": "_index",
          "type": "uint256"
        }
      ],
      "name": "checkStatus",
      "outputs": [
        {
          "internalType": "enum ITribunalAppeal.TribunalAppealStatus",
          "name": "status",
          "type": "uint8"
        },
        {
          "internalType": "uint256",
          "name": "timeLeft",
          "type": "uint256"
        },
        {
          "internalType": "enum ITribunalAppeal.TribunalResultType",
          "name": "finalResult",
          "type": "uint8"
        }
      ],
      "stateMutability": "view",
      "type": "function"
    },
    {
      "inputs": [
        {
          "internalType": "bytes32",
          "name": "_txId",
          "type": "bytes32"
        },
        {
          "internalType": "uint256",
          "name": "_tribunalIndex",
          "type": "uint256"
        },
        {
          "internalType": "bytes32",
          "name": "_commitHash",
          "type": "bytes32"
        }
      ],
      "name": "commitTribunalAppealVote",
      "outputs": [],
      "stateMutability": "nonpayable",
      "type": "function"
    },
    {
      "inputs": [
        {
          "internalType": "uint256",
          "name": "_epoch",
          "type": "uint256"
        },
        {
          "internalType": "uint256",
          "name": "_offset",
          "type": "uint256"
        },
        {
          "internalType": "uint256",
          "name": "_pageSize",
          "type": "uint256"
        }
      ],
      "name": "getPendingTribunals",
      "outputs": [
        {
          "internalType": "bytes32[]",
          "name": "",
          "type": "bytes32[]"
        }
      ],
      "stateMutability": "view",
      "type": "function"
    },
    {
      "inputs": [
        {
          "internalType": "uint256",
          "name": "_epoch",
          "type": "uint256"
        }
      ],
      "name": "getPendingTribunals",
      "outputs": [
        {
          "internalType": "bytes32[]",
          "name": "",
          "type": "bytes32[]"
        }
      ],
      "stateMutability": "view",
      "type": "function"
    },
    {
      "inputs": [
        {
          "internalType": "bytes32",
          "name": "role",
          "type": "bytes32"
        }
      ],
      "name": "getRoleAdmin",
      "outputs": [
        {
          "internalType": "bytes32",
          "name": "",
          "type": "bytes32"
        }
      ],
      "stateMutability": "view",
      "type": "function"
    },
    {
      "inputs": [
        {
          "internalType": "bytes32",
          "name": "_txId",
          "type": "bytes32"
        },
        {
          "internalType": "uint256",
          "name": "_index",
          "type": "uint256"
        }
      ],
      "name": "getTribunal",
      "outputs": [
        {
          "components": [
            {
              "internalType": "bytes32",
              "name": "txId",
              "type": "bytes32"
            },
            {
              "internalType": "uint256",
              "name": "index",
              "type": "uint256"
            },
            {
              "internalType": "uint256",
              "name": "txEpoch",
              "type": "uint256"
            },
            {
              "internalType": "enum ITribunalAppeal.TribunalAppealStatus",
              "name": "status",
              "type": "uint8"
            },
            {
              "components": [
                {
                  "internalType": "uint256",
                  "name": "created",
                  "type": "uint256"
                },
                {
                  "internalType": "uint256",
                  "name": "committed",
                  "type": "uint256"
                },
                {
                  "internalType": "uint256",
                  "name": "revealed",
                  "type": "uint256"
                }
              ],
              "internalType": "struct ITribunalAppeal.TribunalTimestamps",
              "name": "timestamps",
              "type": "tuple"
            },
            {
              "internalType": "address",
              "name": "leader",
              "type": "address"
            },
            {
              "internalType": "bytes32",
              "name": "leaderResultHash",
              "type": "bytes32"
            },
            {
              "internalType": "uint256",
              "name": "finalizedAtEpoch",
              "type": "uint256"
            },
            {
              "internalType": "uint256",
              "name": "round",
              "type": "uint256"
            },
            {
              "internalType": "uint256",
              "name": "votesCommitted",
              "type": "uint256"
            },
            {
              "internalType": "uint256",
              "name": "votesRevealed",
              "type": "uint256"
            },
            {
              "internalType": "enum ITribunalAppeal.TribunalResultType",
              "name": "finalResult",
              "type": "uint8"
            }
          ],
          "internalType": "struct ITribunalAppeal.Tribunal",
          "name": "",
          "type": "tuple"
        }
      ],
      "stateMutability": "view",
      "type": "function"
    },
    {
      "inputs": [
        {
          "internalType": "uint256",
          "name": "_epoch",
          "type": "uint256"
        }
      ],
      "name": "getTribunalsByEpoch",
      "outputs": [
        {
          "components": [
            {
              "internalType": "bytes32",
              "name": "txId",
              "type": "bytes32"
            },
            {
              "internalType": "uint256",
              "name": "index",
              "type": "uint256"
            }
          ],
          "internalType": "struct ITribunalAppeal.TribunalReference[]",
          "name": "",
          "type": "tuple[]"
        }
      ],
      "stateMutability": "view",
      "type": "function"
    },
    {
      "inputs": [
        {
          "internalType": "bytes32",
          "name": "_txId",
          "type": "bytes32"
        },
        {
          "internalType": "uint256",
          "name": "_index",
          "type": "uint256"
        },
        {
          "internalType": "address",
          "name": "_validator",
          "type": "address"
        }
      ],
      "name": "getVoteForValidator",
      "outputs": [
        {
          "internalType": "enum ITribunalAppeal.TribunalVoteType",
          "name": "",
          "type": "uint8"
        }
      ],
      "stateMutability": "view",
      "type": "function"
    },
    {
      "inputs": [
        {
          "internalType": "bytes32",
          "name": "role",
          "type": "bytes32"
        },
        {
          "internalType": "address",
          "name": "account",
          "type": "address"
        }
      ],
      "name": "grantRole",
      "outputs": [],
      "stateMutability": "nonpayable",
      "type": "function"
    },
    {
      "inputs": [
        {
          "internalType": "uint256",
          "name": "_epoch",
          "type": "uint256"
        }
      ],
      "name": "hasPendingTribunals",
      "outputs": [
        {
          "internalType": "bool",
          "name": "",
          "type": "bool"
        }
      ],
      "stateMutability": "view",
      "type": "function"
    },
    {
      "inputs": [
        {
          "internalType": "bytes32",
          "name": "role",
          "type": "bytes32"
        },
        {
          "internalType": "address",
          "name": "account",
          "type": "address"
        }
      ],
      "name": "hasRole",
      "outputs": [
        {
          "internalType": "bool",
          "name": "",
          "type": "bool"
        }
      ],
      "stateMutability": "view",
      "type": "function"
    },
    {
      "inputs": [
        {
          "internalType": "address",
          "name": "_addressManager",
          "type": "address"
        },
        {
          "internalType": "uint256",
          "name": "_voteWindow",
          "type": "uint256"
        }
      ],
      "name": "initialize",
      "outputs": [],
      "stateMutability": "nonpayable",
      "type": "function"
    },
    {
      "inputs": [],
      "name": "owner",
      "outputs": [
        {
          "internalType": "address",
          "name": "",
          "type": "address"
        }
      ],
      "stateMutability": "view",
      "type": "function"
    },
    {
      "inputs": [],
      "name": "pendingOwner",
      "outputs": [
        {
          "internalType": "address",
          "name": "",
          "type": "address"
        }
      ],
      "stateMutability": "view",
      "type": "function"
    },
    {
      "inputs": [
        {
          "internalType": "bytes32",
          "name": "_txId",
          "type": "bytes32"
        },
        {
          "internalType": "uint256",
          "name": "_txEpoch",
          "type": "uint256"
        },
        {
          "internalType": "address",
          "name": "_leader",
          "type": "address"
        },
        {
          "internalType": "uint256",
          "name": "_round",
          "type": "uint256"
        },
        {
          "internalType": "bytes32",
          "name": "_leaderResultHash",
          "type": "bytes32"
        }
      ],
      "name": "prepareTribunalAppeal",
      "outputs": [
        {
          "internalType": "uint256",
          "name": "index",
          "type": "uint256"
        }
      ],
      "stateMutability": "nonpayable",
      "type": "function"
    },
    {
      "inputs": [
        {
          "internalType": "bytes32",
          "name": "_txId",
          "type": "bytes32"
        },
        {
          "internalType": "uint256",
          "name": "_index",
          "type": "uint256"
        }
      ],
      "name": "processStatus",
      "outputs": [
        {
          "internalType": "enum ITribunalAppeal.TribunalAppealStatus",
          "name": "status",
          "type": "uint8"
        },
        {
          "internalType": "uint256",
          "name": "timeLeft",
          "type": "uint256"
        },
        {
          "internalType": "enum ITribunalAppeal.TribunalResultType",
          "name": "finalResult",
          "type": "uint8"
        }
      ],
      "stateMutability": "nonpayable",
      "type": "function"
    },
    {
      "inputs": [],
      "name": "renounceOwnership",
      "outputs": [],
      "stateMutability": "nonpayable",
      "type": "function"
    },
    {
      "inputs": [
        {
          "internalType": "bytes32",
          "name": "role",
          "type": "bytes32"
        },
        {
          "internalType": "address",
          "name": "callerConfirmation",
          "type": "address"
        }
      ],
      "name": "renounceRole",
      "outputs": [],
      "stateMutability": "nonpayable",
      "type": "function"
    },
    {
      "inputs": [
        {
          "internalType": "bytes32",
          "name": "_txId",
          "type": "bytes32"
        },
        {
          "internalType": "uint256",
          "name": "_tribunalIndex",
          "type": "uint256"
        },
        {
          "internalType": "bytes32",
          "name": "_voteHash",
          "type": "bytes32"
        },
        {
          "internalType": "enum ITransactions.VoteType",
          "name": "_voteType",
          "type": "uint8"
        },
        {
          "internalType": "bytes32",
          "name": "_otherExecutionFieldsHash",
          "type": "bytes32"
        },
        {
          "internalType": "uint256",
          "name": "_nonce",
          "type": "uint256"
        }
      ],
      "name": "revealTribunalAppealVote",
      "outputs": [],
      "stateMutability": "nonpayable",
      "type": "function"
    },
    {
      "inputs": [
        {
          "internalType": "bytes32",
          "name": "role",
          "type": "bytes32"
        },
        {
          "internalType": "address",
          "name": "account",
          "type": "address"
        }
      ],
      "name": "revokeRole",
      "outputs": [],
      "stateMutability": "nonpayable",
      "type": "function"
    },
    {
      "inputs": [
        {
          "internalType": "address",
          "name": "_addressManager",
          "type": "address"
        }
      ],
      "name": "setAddressManager",
      "outputs": [],
      "stateMutability": "nonpayable",
      "type": "function"
    },
    {
      "inputs": [
        {
          "internalType": "address",
          "name": "caller",
          "type": "address"
        },
        {
          "internalType": "bool",
          "name": "authorized",
          "type": "bool"
        }
      ],
      "name": "setAuthorizedCaller",
      "outputs": [],
      "stateMutability": "nonpayable",
      "type": "function"
    },
    {
      "inputs": [
        {
          "internalType": "address[]",
          "name": "callers",
          "type": "address[]"
        },
        {
          "internalType": "bool",
          "name": "authorized",
          "type": "bool"
        }
      ],
      "name": "setAuthorizedCallers",
      "outputs": [],
      "stateMutability": "nonpayable",
      "type": "function"
    },
    {
      "inputs": [
        {
          "internalType": "bytes32",
          "name": "_txId",
          "type": "bytes32"
        },
        {
          "internalType": "address",
          "name": "_validator",
          "type": "address"
        },
        {
          "internalType": "bytes32",
          "name": "_leaderResultHash",
          "type": "bytes32"
        },
        {
          "internalType": "bytes32",
          "name": "_validatorResultHash",
          "type": "bytes32"
        }
      ],
      "name": "setVoteForValidator",
      "outputs": [],
      "stateMutability": "nonpayable",
      "type": "function"
    },
    {
      "inputs": [
        {
          "internalType": "bytes4",
          "name": "interfaceId",
          "type": "bytes4"
        }
      ],
      "name": "supportsInterface",
      "outputs": [
        {
          "internalType": "bool",
          "name": "",
          "type": "bool"
        }
      ],
      "stateMutability": "view",
      "type": "function"
    },
    {
      "inputs": [
        {
          "internalType": "address",
          "name": "newOwner",
          "type": "address"
        }
      ],
      "name": "transferOwnership",
      "outputs": [],
      "stateMutability": "nonpayable",
      "type": "function"
    },
    {
      "inputs": [
        {
          "internalType": "bytes32",
          "name": "txId",
          "type": "bytes32"
        }
      ],
      "name": "tribunalCount",
      "outputs": [
        {
          "internalType": "uint256",
          "name": "count",
          "type": "uint256"
        }
      ],
      "stateMutability": "view",
      "type": "function"
    },
    {
      "inputs": [
        {
          "internalType": "bytes32",
          "name": "txId",
          "type": "bytes32"
        },
        {
          "internalType": "uint256",
          "name": "index",
          "type": "uint256"
        }
      ],
      "name": "tribunals",
      "outputs": [
        {
          "internalType": "bytes32",
          "name": "txId",
          "type": "bytes32"
        },
        {
          "internalType": "uint256",
          "name": "index",
          "type": "uint256"
        },
        {
          "internalType": "uint256",
          "name": "txEpoch",
          "type": "uint256"
        },
        {
          "internalType": "enum ITribunalAppeal.TribunalAppealStatus",
          "name": "status",
          "type": "uint8"
        },
        {
          "components": [
            {
              "internalType": "uint256",
              "name": "created",
              "type": "uint256"
            },
            {
              "internalType": "uint256",
              "name": "committed",
              "type": "uint256"
            },
            {
              "internalType": "uint256",
              "name": "revealed",
              "type": "uint256"
            }
          ],
          "internalType": "struct ITribunalAppeal.TribunalTimestamps",
          "name": "timestamps",
          "type": "tuple"
        },
        {
          "internalType": "address",
          "name": "leader",
          "type": "address"
        },
        {
          "internalType": "bytes32",
          "name": "leaderResultHash",
          "type": "bytes32"
        },
        {
          "internalType": "uint256",
          "name": "finalizedAtEpoch",
          "type": "uint256"
        },
        {
          "internalType": "uint256",
          "name": "round",
          "type": "uint256"
        },
        {
          "internalType": "uint256",
          "name": "votesCommitted",
          "type": "uint256"
        },
        {
          "internalType": "uint256",
          "name": "votesRevealed",
          "type": "uint256"
        },
        {
          "internalType": "enum ITribunalAppeal.TribunalResultType",
          "name": "finalResult",
          "type": "uint8"
        }
      ],
      "stateMutability": "view",
      "type": "function"
    },
    {
      "inputs": [
        {
          "internalType": "uint256",
          "name": "epoch",
          "type": "uint256"
        },
        {
          "internalType": "uint256",
          "name": "",
          "type": "uint256"
        }
      ],
      "name": "tribunalsPerEpoch",
      "outputs": [
        {
          "internalType": "bytes32",
          "name": "txId",
          "type": "bytes32"
        },
        {
          "internalType": "uint256",
          "name": "index",
          "type": "uint256"
        }
      ],
      "stateMutability": "view",
      "type": "function"
    },
    {
      "inputs": [
        {
          "internalType": "bytes32",
          "name": "txId",
          "type": "bytes32"
        },
        {
          "internalType": "uint256",
          "name": "index",
          "type": "uint256"
        },
        {
          "internalType": "uint256",
          "name": "",
          "type": "uint256"
        }
      ],
      "name": "voteCounts",
      "outputs": [
        {
          "internalType": "uint256",
          "name": "voteCounts",
          "type": "uint256"
        }
      ],
      "stateMutability": "view",
      "type": "function"
    },
    {
      "inputs": [],
      "name": "voteWindow",
      "outputs": [
        {
          "internalType": "uint256",
          "name": "",
          "type": "uint256"
        }
      ],
      "stateMutability": "view",
      "type": "function"
    },
    {
      "inputs": [
        {
          "internalType": "bytes32",
          "name": "txId",
          "type": "bytes32"
        },
        {
          "internalType": "uint256",
          "name": "index",
          "type": "uint256"
        },
        {
          "internalType": "address",
          "name": "validator",
          "type": "address"
        }
      ],
      "name": "votes",
      "outputs": [
        {
          "internalType": "bytes32",
          "name": "voteHash",
          "type": "bytes32"
        },
        {
          "internalType": "bytes32",
          "name": "resultHash",
          "type": "bytes32"
        },
        {
          "internalType": "enum ITribunalAppeal.TribunalVoteType",
          "name": "voteType",
          "type": "uint8"
        }
      ],
      "stateMutability": "view",
      "type": "function"
    }
  ],
  "bytecode": "0x608080604052346015576132b7908161001b8239f35b600080fdfe608080604052600436101561001357600080fd5b600090813560e01c90816301ffc9a71461179c575080630652b57a14611757578063090263a7146116565780630ebad2a114611456578063248a9ca31461142f5780632f2ff15d146113fd578063333163a8146113c057806336568abe1461137b5780633ab76e9f14611352578063454bbd29146112d45780634c313ce8146110f657806351fdaa5614611091578063536fff6c14611052578063695aa26b14610f5e5780636d0f843614610f095780636d43074714610eeb578063715018a614610e6a57806379ba509714610e1c578063888e575614610d305780638900c8e314610c615780638da5cb5b14610c2b57806391d1485414610bd257806398c574c4146109f95780639acc6a8a146109d05780639d0195c0146109aa578063a217fddf1461098e578063baa6efcf14610940578063c8bc6543146108ee578063cac3c18e1461082a578063cbc2440a146105f1578063cd6dc68714610451578063d4f6aa9314610317578063d547741f146102dc578063daf4d0d8146102a2578063e30c39781461026c578063f2fde38b146101e45763f8abf084146101b857600080fd5b346101e15760203660031901126101e15760406020916004358152600183522054604051908152f35b80fd5b50346101e15760203660031901126101e1576101fe6117f1565b610206611a97565b60008051602061326283398151915280546001600160a01b0319166001600160a01b039283169081179091556000805160206131e2833981519152549091167f38d16b8cac22d99fc7c124b9cd0de2d3fa1faef420bfe791d8c362d765e227008380a380f35b50346101e157806003193601126101e157600080516020613262833981519152546040516001600160a01b039091168152602090f35b50346101e15760203660031901126101e1576102d86102cc6004356102c6816125b0565b906120dc565b604051918291826119a6565b0390f35b50346101e15760403660031901126101e1576103136004356102fc61180c565b9061030e61030982611a20565b611acd565b611c93565b5080f35b50346101e15760603660031901126101e157600435602435906044358184528360205260408420838552602052604084209061035282611bc0565b505061035d81611847565b6104425780156104335782855260026020908152604080872086885282528087203360009081529252902080546104245760ff60028201541661039f81611847565b61041557906103e6929155600b81016103b88154611a88565b90553384847fec56dde2fbbc8a2028dec4e9ceb977d9cf695ad255e3997aea63a8f412604fa98880a4612ff1565b6040519182527f6514dec7e5f5d7d0dcb8a6167531988b5ac3c442dffd89335942f1fbfa71dc5760203393a380f35b6337138f5f60e11b8652600486fd5b637c4b0d7760e11b8652600486fd5b630b9e91c760e11b8552600485fd5b630df071f560e21b8552600485fd5b50346101e15760403660031901126101e15761046b6117f1565b600080516020613242833981519152549060ff8260401c1615916001600160401b038116801590816105e9575b60011490816105df575b1590816105d6575b506105c75767ffffffffffffffff198116600117600080516020613242833981519152558261059a575b506104dd6130e7565b6104e56130e7565b6104ed6130e7565b3315610586576104fc33611ee9565b6105046130e7565b600580546001600160a01b0319166001600160a01b03929092169190911790556024356006556105315780f35b60ff60401b196000805160206132428339815191525416600080516020613242833981519152557fc7f505b2f371ae2175ee4913f4499e1f2633a7b5936321eed1cdaeb6115181d2602060405160018152a180f35b631e4fbdf760e01b83526004839052602483fd5b68ffffffffffffffffff1916680100000000000000011760008051602061324283398151915255386104d4565b63f92ee8a960e01b8452600484fd5b905015386104aa565b303b1591506104a2565b849150610498565b50346101e15760c03660031901126101e15760243560043560643560443560058210156108265760843583865285602052604086208587526020526040862091600161063c84611bc0565b505061064781611847565b0361081757848752600260208181526040808a20898b528252808a2033600090815292529020015460ff1661067b81611847565b610809578060405160208101903360601b825261069b60348201886125a0565b84603582015260a4356055820152605581526106b860758261195d565b519020036107fa57848752600260209081526040808920888a5282528089203360009081529252902054159081156107ce575b506107bf579061075f600161078b93868952600260205260408920888a5260205260408920828060a01b0333166000526020526040600020906040516020810191610736838a6125a0565b60218201526021815261074a60418261195d565b519020918291015560088301543388886123c5565b3385857f2a20eb51503820997c10290f84016791d42289bf7a48cc566a59624b7ab1a7508980a4612ff1565b60405192835260208301527fb3a6dcf1e56feb92caee0711bfd92afd8d3676f66a059b62cc0e4ab5dc461bf860403393a380f35b636aee863360e11b8652600486fd5b858852600260209081526040808a20898b528252808a20336000908152925290205414159050386106eb565b636aee863360e11b8752600487fd5b62d6a91b60e01b8752600487fd5b630df071f560e21b8752600487fd5b8480fd5b50346101e15760803660031901126101e1576004359061084861180c565b6001600160a01b03610858611f57565b16331415806108d7575b6108c8578282526001602052604082205461088f57819261088c92915b60643592604435926123c5565b80f35b828252600160205260408220546000198101939084116108b45761088c92939161087f565b634e487b7160e01b83526011600452602483fd5b6315c9368f60e31b8252600482fd5b50338252600760205260ff60408320541615610862565b50346101e15760406108ff3661189d565b939182526002602052828220908252602052209060018060a01b0316600052602052602060ff600260406000200154166040519061093c81611847565b8152f35b50346101e15760403660031901126101e1576024359060043581526004602052604081209081548310156101e157604061097a84846119e0565b506001815491015482519182526020820152f35b50346101e157806003193601126101e157602090604051908152f35b50346101e15760603660031901126101e1576102d86102cc604435602435600435612233565b50346101e15760203660031901126101e15760206109ef600435611fd5565b6040519015158152f35b50346101e15760a03660031901126101e1576044356001600160a01b03811691906024359060043590849003610bce576001600160a01b03610a39611f57565b1633141580610bb7575b610ba85780835260016020526040832054918184528360205260408420838552602052600d604085208381558460018201558260028201556003810160ff1981541690558560408051610a9581611927565b4281528260208201520152426004820155856005820155856006820155600781018760018060a01b03198254161790556084356008820155856009820155606435600a8201550160ff198154169055835260046020526040832060405190610afc82611942565b8282526020820184815281549091600160401b821015610b945790610b26916001820181556119e0565b929092610b805791600185949260209894518355519101558085526001865260408520610b538154611a88565b90557f7ee2bbbd24bd23d68e7b75b100c007555b7660ebb4ddf29941968ed287123c4b6040519580a48152f35b634e487b7160e01b86526004869052602486fd5b634e487b7160e01b87526041600452602487fd5b6315c9368f60e31b8352600483fd5b50338352600760205260ff60408420541615610a43565b8280fd5b50346101e15760403660031901126101e1576040610bee61180c565b916004358152600080516020613222833981519152602052209060018060a01b0316600052602052602060ff604060002054166040519015158152f35b50346101e157806003193601126101e1576000805160206131e2833981519152546040516001600160a01b039091168152602090f35b50346101e15760203660031901126101e15760043581526004602052604081208054610c8c81611a71565b90610c9a604051928361195d565b80825260208201809385526020852085915b838310610d0357868587604051928392602084019060208552518091526040840192915b818110610cde575050500390f35b8251805185526020908101518186015286955060409094019390920191600101610cd0565b60026020600192604051610d1681611942565b855481528486015483820152815201920192019190610cac565b50346101e15760406101c091610d4536611831565b9082528160205282822090825260205220610e1a815491600181015490600281015460ff600383015416610d7b6004840161197e565b60018060a01b03600785015416600885015490610dec600987015493600a88015495600b8901549760ff600d600c8c01549b0154169a60206040519e8f908152015260408d0152610dcb81611847565b60608c0152805160808c0152602081015160a08c01526040015160c08b0152565b60e08901526101008801526101208701526101408601526101608501526101808401526101a0830190611867565bf35b50346101e157806003193601126101e15760008051602061326283398151915254336001600160a01b0390911603610e575761088c33611ee9565b63118cdaa760e01b815233600452602490fd5b50346101e157806003193601126101e157610e83611a97565b60008051602061326283398151915280546001600160a01b03199081169091556000805160206131e28339815191528054918216905581906001600160a01b03167f8be0079c531659141344cd1fd0a4f28419497f9722a3daafe3b4186f6b6457e08280a380f35b50346101e157806003193601126101e1576020600654604051908152f35b50346101e15760603660031901126101e1576044359060043581526003602052604081206024358252602052604081209081548310156101e1576020610f4f84846118c7565b90549060031b1c604051908152f35b50346101e157610f6d36611831565b829183528260205260408320908352602052604082209160ff60038401541691610f9683611847565b82610feb575060ff600d6102d892600486015460065491610fb78383611a41565b421015610fe35750610fcd610fd2924292611a41565b611a64565b945b01541660405193849384611874565b915050610fd2565b9290610ff683611847565b6001831461100d575b5060ff600d6102d892610fd4565b819350600d60ff9160056102d89401546006549161102b8383611a41565b42101561104a5750610fcd611041924292611a41565b94925050610fff565b915050611041565b50346101e15760203660031901126101e15760209060ff906040906001600160a01b0361107d6117f1565b168152600784522054166040519015158152f35b50346101e1576040606091816110a63661189d565b9391825260026020528282209082526020522060009160018060a01b031682526020522080549060ff60026001830154920154169060405192835260208301526110ef81611847565b6040820152f35b50346101e15761110536611831565b61110d611a97565b8183528260205260408320818452602052604083208054156112c557600381018054600260ff821661113e81611847565b146112b65760029060ff1916179055600d8101600260ff198254161790556004602060018060a01b0361116f611d47565b166040519283809263900cf0cf60e01b82525afa9081156112ab578591611279575b50600982019081554260068301556001600160a01b036111af611d47565b169185600782019360018060a01b0385541690803b15610bce57602483926040519485938492633eb5dbd960e21b845260048401525af1801561126e57611253575b5060020154905461120191611ded565b81836000805160206132028339815191526040805160028152426020820152a3546001600160a01b0316917f9317268df1b2d1d62052066e06b7fccd50e53138489bbb9b4e999144c633e2a28480a480f35b8661126561120194939860029361195d565b969192506111f1565b6040513d89823e3d90fd5b90506020813d6020116112a3575b816112946020938361195d565b81010312610826575138611191565b3d9150611287565b6040513d87823e3d90fd5b636cb27c0f60e01b8652600486fd5b630c1377f560e31b8452600484fd5b50346101e15760403660031901126101e1576112ee6117f1565b7fad857fa38c9319cb80848f1ef2f924383b90297eb5d71755738ff037d100faa16020611319611822565b92611322611a97565b6001600160a01b03168085526007825260408520805460ff191660ff86151516179055926040519015158152a280f35b50346101e157806003193601126101e1576005546040516001600160a01b039091168152602090f35b50346101e15760403660031901126101e15761139561180c565b336001600160a01b038216036113b15761031390600435611c93565b63334bd91960e11b8252600482fd5b50346101e1576113ee60406102d8926113d836611831565b9082528160205282822090825260205220611bc0565b60409391935193849384611874565b50346101e15760403660031901126101e15761031360043561141d61180c565b9061142a61030982611a20565b611b17565b50346101e15760203660031901126101e157602061144e600435611a20565b604051908152f35b50346101e15761146536611831565b9082610160604051611476816118f5565b82815282602082015282604082015282606082015260405161149781611927565b83815283602082015283604082015260808201528260a08201528260c08201528260e082015282610100820152826101208201528261014082015201528252816020526040822090825260205260408120604051906114f5826118f5565b805482526001810154916020810192835260028201546040820190815260ff600384015416606083019061152881611847565b81526115366004850161197e565b6080840190815260018060a01b0360078601541660a0850190815260088601549160c0860192835260098701549360e08701948552600a880154956101008801968752600b89015497610120810198895260ff600d600c8c01549b61014084019c8d5201541661016082019c600482101561164257509261160492610e1a9b999795928e9b9997956101c09f5260206040519e8f92518352519101525160408d0152516115e281611847565b60608c015251805160808c0152602081015160a08c01526040015160c08b0152565b516001600160a01b031660e08901525161010088015251610120870152516101408601525161016085015251610180840152516101a0830190611867565b634e487b7160e01b81526021600452602490fd5b50346101e15760403660031901126101e1576004356001600160401b0381116117535736602382011215611753578060040135906001600160401b038211610bce576024810190602436918460051b010111610bce57906116b5611822565b916116be611a97565b82151591845b8181106116cf578580f35b6001906001600160a01b036116ed6116e88386886119fc565b611a0c565b168752600760205261170e86604089209060ff801983541691151516179055565b818060a01b036117226116e88386886119fc565b167fad857fa38c9319cb80848f1ef2f924383b90297eb5d71755738ff037d100faa16020604051888152a2016116c4565b5080fd5b50346101e15760203660031901126101e1576117716117f1565b611779611a97565b600580546001600160a01b0319166001600160a01b039290921691909117905580f35b9050346117535760203660031901126117535760043563ffffffff60e01b8116809103610bce5760209250637965db0b60e01b81149081156117e0575b5015158152f35b6301ffc9a760e01b149050386117d9565b600435906001600160a01b038216820361180757565b600080fd5b602435906001600160a01b038216820361180757565b60243590811515820361180757565b6040906003190112611807576004359060243590565b6003111561185157565b634e487b7160e01b600052602160045260246000fd5b9060048210156118515752565b60409061189b9395949295606082019661188d81611847565b825260208201520190611867565b565b60609060031901126118075760043590602435906044356001600160a01b03811681036118075790565b80548210156118df5760005260206000200190600090565b634e487b7160e01b600052603260045260246000fd5b61018081019081106001600160401b0382111761191157604052565b634e487b7160e01b600052604160045260246000fd5b606081019081106001600160401b0382111761191157604052565b604081019081106001600160401b0382111761191157604052565b90601f801991011681019081106001600160401b0382111761191157604052565b9060405161198b81611927565b60406002829480548452600181015460208501520154910152565b602060408183019282815284518094520192019060005b8181106119ca5750505090565b82518452602093840193909201916001016119bd565b80548210156118df5760005260206000209060011b0190600090565b91908110156118df5760051b0190565b356001600160a01b03811681036118075790565b60005260008051602061322283398151915260205260016040600020015490565b91908201809211611a4e57565b634e487b7160e01b600052601160045260246000fd5b91908203918211611a4e57565b6001600160401b0381116119115760051b60200190565b6000198114611a4e5760010190565b6000805160206131e2833981519152546001600160a01b03163303611ab857565b63118cdaa760e01b6000523360045260246000fd5b60008181526000805160206132228339815191526020908152604080832033845290915290205460ff1615611aff5750565b63e2517d3f60e01b6000523360045260245260446000fd5b6000818152600080516020613222833981519152602090815260408083206001600160a01b038616845290915290205460ff16611bb9576000818152600080516020613222833981519152602090815260408083206001600160a01b0395909516808452949091528120805460ff19166001179055339291907f2f8788117e7eff1d82e926ec794901d17c78024a50270940304540a733656f0d9080a4600190565b5050600090565b6000916003820160ff815416611bd581611847565b15611c53575b600160ff825416611beb81611847565b14611c03575b600d60ff809254169301541691929190565b6005830154600654611c158183611a41565b421115611c36575050600d60ff8092611c2d8661270d565b92505050611bf1565b60ff929550611c4d600d92610fcd85934292611a41565b95611c2d565b6004830154600654611c658183611a41565b421115611c7c575050611c7783612697565b611bdb565b611c8d929550610fcd904292611a41565b92611bdb565b6000818152600080516020613222833981519152602090815260408083206001600160a01b038616845290915290205460ff1615611bb9576000818152600080516020613222833981519152602090815260408083206001600160a01b0395909516808452949091528120805460ff19169055339291907ff6391f5c32d9c69d2a47ea670b442974b53935d1edc7fd64eb21e047a839171b9080a4600190565b51906001600160a01b038216820361180757565b600554604051631bae711d60e21b815260206004820181905260076024830152665374616b696e6760c81b60448301529091829060649082906001600160a01b03165afa908115611de157600091611da7575b506001600160a01b031690565b90506020813d602011611dd9575b81611dc26020938361195d565b8101031261180757611dd390611d33565b38611d9a565b3d9150611db5565b6040513d6000823e3d90fd5b9081109081611ed7575b81611e5e575b50611e0457565b611e0c611d47565b6000906001600160a01b0316803b15611753578180916004604051809481936333d98b0560e21b83525af18015611e5357611e46575b5050565b81611e509161195d565b50565b6040513d84823e3d90fd5b905060206001600160a01b03611e72611f57565b169160246040518094819363132d95ab60e11b835260048301525afa908115611de157600091611ea5575b501538611dfd565b90506020813d602011611ecf575b81611ec06020938361195d565b81010312611807575138611e9d565b3d9150611eb3565b9050611ee281611fd5565b1590611df7565b60008051602061326283398151915280546001600160a01b03199081169091556000805160206131e283398151915280549182166001600160a01b0393841690811790915591167f8be0079c531659141344cd1fd0a4f28419497f9722a3daafe3b4186f6b6457e0600080a3565b600554604051631bae711d60e21b815260206004820181905260126024830152712a3930b739b0b1ba34b7b726b0b730b3b2b960711b60448301529091829060649082906001600160a01b03165afa908115611de157600091611da757506001600160a01b031690565b80518210156118df5760209160051b010190565b600052600460205260406000208054611fed81611a71565b91611ffb604051938461195d565b818352602083019060005260206000206000915b83831061207d575050505060005b8151811015611bb9576120308183611fc1565b515160005260006020526040600020602061204b8385611fc1565b51015160005260205260ff600d6040600020015416600481101561185157156120765760010161201d565b5050600190565b6002602060019260405161209081611942565b85548152848601548382015281520192019201919061200f565b906120b482611a71565b6120c1604051918261195d565b82815280926120d2601f1991611a71565b0190602036910137565b60008215612218576120ed826125b0565b9050808311612210575b506000526004602052604060002091825461211181611a71565b9361211f604051958661195d565b818552602085019060005260206000206000915b8383106121e35750505050612147826120aa565b9260009060009260005b82518110806121da575b156121d25761216a8184611fc1565b51805160005260006020526040600020602082015160005260205260ff600d6040600020015416600481101561185157156121a9575b50600101612151565b600191946121cb91516121c56121be89611a88565b988b611fc1565b52611a88565b93906121a0565b509350505050565b5085851061215b565b600260206001926040516121f681611942565b855481528486015483820152815201920192019190612133565b9150386120f7565b9150506040519061222a60208361195d565b80825236813790565b82156123a857612242816125b0565b80831161239857806122548585611a41565b11612384575b5060005260046020526040600020805461227381611a71565b91612281604051938461195d565b818352602083019060005260206000206000915b83831061235757505050506122a9836120aa565b60009160009560005b825181108061234e575b15612343576122cb8184611fc1565b51805160005260006020526040600020602082015160005260205260ff600d60406000200154166004811015611851571561230a575b506001016122b2565b856123219188600194981015612328575b50611a88565b9490612301565b5161233c6123358c611a88565b9b88611fc1565b523861231b565b509550509250505090565b508688106122bc565b6002602060019260405161236a81611942565b855481528486015483820152815201920192019190612295565b6123919193508290611a64565b913861225a565b62ed0ab960e11b60005260046000fd5b5050506040516123b960208261195d565b60008152600036813790565b949392909285600052600060205260406000208460005260205260406000209114600014612598576001915b85600052600260205260406000208460005260205260406000209060018060a01b031660005260205260026040600020019260ff84541661243181611847565b15612454575b50509091925061244681611847565b60ff80198354169116179055565b856000526003602052604060002081600052602052604060002054156124dd575b600c9293949560005260036020526040600020906000526020526124a68360406000206124a182611847565b6118c7565b6124b782549160031b91821c611a88565b8254600019831b1916911b1790550180546124d190611a88565b90559082913880612437565b604051956124ec60808861195d565b6003875260208701606036823781600052600360205260406000208360005260205260406000209751906001600160401b03821161191157600160401b8211611911578854828a5580831061256f575b509760005260206000209760005b82811061255b575050509550612475565b60019060208351930192818c01550161254a565b8960005282602060002091820191015b81811061258c575061253c565b6000815560010161257f565b6002916123f1565b60058110156118515760f81b9052565b600052600460205260406000209081546125c981611a71565b926125d7604051948561195d565b818452602084019060005260206000206000915b83831061266a575050505060009160005b8151811015611e425761260f8183611fc1565b515160005260006020526040600020602061262a8385611fc1565b51015160005260205260ff600d604060002001541660048110156118515715612656575b6001016125fc565b92612662600191611a88565b93905061264e565b6002602060019260405161267d81611942565b8554815284860154838201528152019201920191906125eb565b60038101805460ff1916600117905560048101546006546126b88183611a41565b421115612704576126c891611a41565b905b8160058201557f9506786d8e5d3b7e2ee6ce9613a34952fc368967f9fb501444d3700dc0a0f52460206001835493015493604051908152a3565b505042906126ca565b60038101805460ff19166002179055426006820190815590600090600d81019160ff8354166004811015612a2c5715612776575b50604081600160ff6000805160206132028339815191529454955416910154945461276e83518093611867565b6020820152a3565b6001600160a01b03612786611f57565b166024828454926040519283809263255709e560e11b82528660048301525afa8015612fe657612d67575b50600554604051631bae711d60e21b81526020600482018190526006602483015265526f756e647360d01b60448301526001600160a01b03909216929181606481865afa908115612b15578491612d2d575b5083600a860154604460405180948193635af5446960e01b8352876004840152602483015260018060a01b03165afa908115612b15578491612b20575b5090602060e06064930151519360405193848092631bae711d60e21b82528460048301526006602483015265566f74696e6760d01b60448301525afa918215612b15578492612ad5575b508352600360205260408320600185015484526020526040832091600c85015492604051938492635cd8252d60e11b845260648401906004850152606060248501528254809152608484019287526020872090875b818110612abc575050506044830152602092908290039082906001600160a01b03165afa908115611e53578291612a81575b506004811015612a2c57835460ff191660ff9190911617835560049060206001600160a01b0361293f611d47565b166040519384809263900cf0cf60e01b82525afa918215612a74578192612a40575b5081600984015560ff8454166004811015612a2c576002146129a6575b508161299f6040926002600080516020613202833981519152950154611ded565b9150612741565b6001600160a01b036129b6611d47565b60078501549116906001600160a01b0316813b15610bce578291602483926040519485938492633eb5dbd960e21b845260048401525af18015611e535792600080516020613202833981519152949261299f92604095612a1c575b50509250509161297e565b81612a269161195d565b38612a11565b634e487b7160e01b82526021600452602482fd5b9091506020813d602011612a6c575b81612a5c6020938361195d565b8101031261175357519038612961565b3d9150612a4f565b50604051903d90823e3d90fd5b90506020813d602011612ab4575b81612a9c6020938361195d565b81010312611753575160048110156117535738612911565b3d9150612a8f565b82548552879550602090940193600192830192016128df565b9091506020813d602011612b0d575b81612af16020938361195d565b81010312612b0957612b0290611d33565b903861288a565b8380fd5b3d9150612ae4565b6040513d86823e3d90fd5b90503d8085833e612b31818361195d565b810190602081830312610826578051906001600160401b038211612d2957019061016082820312610826576040519161016083018381106001600160401b03821117610b9457604052805183526020810151602084015260408101516040840152606081015160608401526080810151608084015260a081015160a084015260c08101516006811015612cec5760c084015260e08101516001600160401b038111612cec57810182601f82011215612cec57805190612bef82611a71565b91612bfd604051938461195d565b80835260208084019160051b83010191858311612d0d57602001905b828210612d115750505060e08401526101008101516001600160401b038111612cec57810182601f82011215612cec578051612c5481611a71565b91612c62604051938461195d565b81835260208084019260051b82010190858211612d0d57602001915b818310612cf0575050506101008401526101208101516001600160401b038111612cec5782612cae918301613184565b610120840152610140810151906001600160401b038211612cec5792612cdd60209360e0936064979601613184565b61014082015292935050612840565b8680fd5b82516005811015612d0957815260209283019201612c7e565b8a80fd5b8980fd5b60208091612d1e84611d33565b815201910190612c19565b8580fd5b90506020813d602011612d5f575b81612d486020938361195d565b81010312612b0957612d5990611d33565b38612803565b3d9150612d3b565b3d8084833e612d76818361195d565b810190602081830312612b09578051906001600160401b03821161082657016102e081830312612b0957604051916102e083018381106001600160401b03821117612fd25760405281516006811015612d2957835260208201516005811015612d295760208401526040820151600f811015612d295760408401526060820151600f811015612d29576060840152612e1060808301611d33565b6080840152612e2160a08301611d33565b60a0840152612e3260c08301611d33565b60c0840152612e4360e08301611d33565b60e08401526101008201516101008401526101208201516101208401526101408201516101408401526101608201516101608401526101808201516101808401526101a08201516101a08401526101c08201516101c08401526101e08201516101e08401526102008201516001600160401b038111612d295781612ec8918401613115565b6102008401526102208201516001600160401b038111612d295781612eee918401613115565b6102208401526102408201516001600160401b038111612d2957820181601f82011215612d2957805190612f2182611a71565b92612f2f604051948561195d565b82845260206060818601940283010191818311612fce57602001925b828410612f925750505050906102c0916102408401526102608101516102608401526102808101516102808401526102a08101516102a084015201516102c08201526127b1565b606084830312612fce576020606091604051612fad81611927565b86518152828701518382015260408701516040820152815201930192612f4b565b8880fd5b634e487b7160e01b86526041600452602486fd5b6040513d85823e3d90fd5b600460206001600160a01b03613005611d47565b1660405192838092630d2bd90960e01b82525afa908115611de1576000916130b5575b50600c82015490818111156130ae576130418282611a64565b60ff6003850154169061305382611847565b8115908161309f575b501561306e5750505061189b90612697565b60019061307a81611847565b149182613094575b505061308b5750565b61189b9061270d565b101590503880613082565b9050600b85015410153861305c565b6000613041565b906020823d6020116130df575b816130cf6020938361195d565b810103126101e157505138613028565b3d91506130c2565b60ff6000805160206132428339815191525460401c161561310457565b631afcd79f60e31b60005260046000fd5b81601f82011215611807578051906001600160401b0382116119115760405192613149601f8401601f19166020018561195d565b828452602083830101116118075760005b82811061316f57505060206000918301015290565b8060208092840101518282870101520161315a565b9080601f8301121561180757815161319b81611a71565b926131a9604051948561195d565b81845260208085019260051b82010192831161180757602001905b8282106131d15750505090565b81518152602091820191016131c456fe9016d09d72d40fdae2fd8ceac6b6234c7706214fd39c1cd1e609a0528c199300812f5462ae8eb7e647903992840104270d82ba2c8ad5ed0e557aaa163371b54f02dd7bc7dec4dceedda775e58dd541e08a116c6c53815c0bd028192f7b626800f0c57e16840df040f15088dc2f81fe391c3923bec73e23a9662efc9c229c6a00237e158222e3e6968b72b9db0d8043aacf074ad9f650f0d1606b4d82ee432c00a2646970667358221220b9439eb5d7c7573edd592321a9df159772ed1f0bee221f0bd1dfde064a47533064736f6c634300081c0033",
  "linkReferences": {},
  "deployedLinkReferences": {}
}