{
  "_format": "hh-sol-artifact-1",
  "contractName": "TribunalAppeal",
  "sourceName": "contracts/transactions/TribunalAppeal.sol",
  "abi": [
    {
      "inputs": [],
      "name": "AccessControlBadConfirmation",
      "type": "error"
    },
    {
      "inputs": [
        {
          "internalType": "address",
          "name": "account",
          "type": "address"
        },
        {
          "internalType": "bytes32",
          "name": "neededRole",
          "type": "bytes32"
        }
      ],
      "name": "AccessControlUnauthorizedAccount",
      "type": "error"
    },
    {
      "inputs": [],
      "name": "CallerNotGenConsensus",
      "type": "error"
    },
    {
      "inputs": [],
      "name": "CallerNotTransactions",
      "type": "error"
    },
    {
      "inputs": [],
      "name": "InvalidCommitHash",
      "type": "error"
    },
    {
      "inputs": [],
      "name": "InvalidInitialization",
      "type": "error"
    },
    {
      "inputs": [],
      "name": "InvalidOffset",
      "type": "error"
    },
    {
      "inputs": [],
      "name": "InvalidTribunalAppealStatus",
      "type": "error"
    },
    {
      "inputs": [],
      "name": "InvalidVote",
      "type": "error"
    },
    {
      "inputs": [],
      "name": "NotInitializing",
      "type": "error"
    },
    {
      "inputs": [
        {
          "internalType": "address",
          "name": "owner",
          "type": "address"
        }
      ],
      "name": "OwnableInvalidOwner",
      "type": "error"
    },
    {
      "inputs": [
        {
          "internalType": "address",
          "name": "account",
          "type": "address"
        }
      ],
      "name": "OwnableUnauthorizedAccount",
      "type": "error"
    },
    {
      "inputs": [],
      "name": "TribunalAlreadyFinalized",
      "type": "error"
    },
    {
      "inputs": [],
      "name": "TribunalNotFound",
      "type": "error"
    },
    {
      "inputs": [],
      "name": "ValidatorAlreadyCommitted",
      "type": "error"
    },
    {
      "inputs": [],
      "name": "ValidatorAlreadyRevealed",
      "type": "error"
    },
    {
      "inputs": [],
      "name": "ValidatorAlreadyVoted",
      "type": "error"
    },
    {
      "anonymous": false,
      "inputs": [
        {
          "indexed": true,
          "internalType": "bytes32",
          "name": "txId",
          "type": "bytes32"
        },
        {
          "indexed": true,
          "internalType": "uint256",
          "name": "tribunalIndex",
          "type": "uint256"
        },
        {
          "indexed": true,
          "internalType": "address",
          "name": "leader",
          "type": "address"
        }
      ],
      "name": "AdminTribunalClosed",
      "type": "event"
    },
    {
      "anonymous": false,
      "inputs": [
        {
          "indexed": true,
          "internalType": "address",
          "name": "caller",
          "type": "address"
        },
        {
          "indexed": false,
          "internalType": "bool",
          "name": "authorized",
          "type": "bool"
        }
      ],
      "name": "AuthorizedCallerUpdated",
      "type": "event"
    },
    {
      "anonymous": false,
      "inputs": [
        {
          "indexed": false,
          "internalType": "uint64",
          "name": "version",
          "type": "uint64"
        }
      ],
      "name": "Initialized",
      "type": "event"
    },
    {
      "anonymous": false,
      "inputs": [
        {
          "indexed": true,
          "internalType": "address",
          "name": "previousOwner",
          "type": "address"
        },
        {
          "indexed": true,
          "internalType": "address",
          "name": "newOwner",
          "type": "address"
        }
      ],
      "name": "OwnershipTransferStarted",
      "type": "event"
    },
    {
      "anonymous": false,
      "inputs": [
        {
          "indexed": true,
          "internalType": "address",
          "name": "previousOwner",
          "type": "address"
        },
        {
          "indexed": true,
          "internalType": "address",
          "name": "newOwner",
          "type": "address"
        }
      ],
      "name": "OwnershipTransferred",
      "type": "event"
    },
    {
      "anonymous": false,
      "inputs": [
        {
          "indexed": true,
          "internalType": "bytes32",
          "name": "role",
          "type": "bytes32"
        },
        {
          "indexed": true,
          "internalType": "bytes32",
          "name": "previousAdminRole",
          "type": "bytes32"
        },
        {
          "indexed": true,
          "internalType": "bytes32",
          "name": "newAdminRole",
          "type": "bytes32"
        }
      ],
      "name": "RoleAdminChanged",
      "type": "event"
    },
    {
      "anonymous": false,
      "inputs": [
        {
          "indexed": true,
          "internalType": "bytes32",
          "name": "role",
          "type": "bytes32"
        },
        {
          "indexed": true,
          "internalType": "address",
          "name": "account",
          "type": "address"
        },
        {
          "indexed": true,
          "internalType": "address",
          "name": "sender",
          "type": "address"
        }
      ],
      "name": "RoleGranted",
      "type": "event"
    },
    {
      "anonymous": false,
      "inputs": [
        {
          "indexed": true,
          "internalType": "bytes32",
          "name": "role",
          "type": "bytes32"
        },
        {
          "indexed": true,
          "internalType": "address",
          "name": "account",
          "type": "address"
        },
        {
          "indexed": true,
          "internalType": "address",
          "name": "sender",
          "type": "address"
        }
      ],
      "name": "RoleRevoked",
      "type": "event"
    },
    {
      "anonymous": false,
      "inputs": [
        {
          "indexed": true,
          "internalType": "bytes32",
          "name": "txId",
          "type": "bytes32"
        },
        {
          "indexed": true,
          "internalType": "uint256",
          "name": "tribunalIndex",
          "type": "uint256"
        },
        {
          "indexed": true,
          "internalType": "address",
          "name": "validator",
          "type": "address"
        }
      ],
      "name": "TribunalAppealCommitting",
      "type": "event"
    },
    {
      "anonymous": false,
      "inputs": [
        {
          "indexed": true,
          "internalType": "bytes32",
          "name": "txId",
          "type": "bytes32"
        },
        {
          "indexed": true,
          "internalType": "uint256",
          "name": "tribunalIndex",
          "type": "uint256"
        },
        {
          "indexed": false,
          "internalType": "uint256",
          "name": "timestamp",
          "type": "uint256"
        }
      ],
      "name": "TribunalAppealCommittingFinalized",
      "type": "event"
    },
    {
      "anonymous": false,
      "inputs": [
        {
          "indexed": true,
          "internalType": "bytes32",
          "name": "txId",
          "type": "bytes32"
        },
        {
          "indexed": false,
          "internalType": "enum ITribunalAppeal.TribunalResultType",
          "name": "result",
          "type": "uint8"
        },
        {
          "indexed": true,
          "internalType": "uint256",
          "name": "tribunalIndex",
          "type": "uint256"
        },
        {
          "indexed": false,
          "internalType": "uint256",
          "name": "timestamp",
          "type": "uint256"
        }
      ],
      "name": "TribunalAppealFinalized",
      "type": "event"
    },
    {
      "anonymous": false,
      "inputs": [
        {
          "indexed": true,
          "internalType": "bytes32",
          "name": "txId",
          "type": "bytes32"
        },
        {
          "indexed": true,
          "internalType": "uint256",
          "name": "tribunalIndex",
          "type": "uint256"
        },
        {
          "indexed": true,
          "internalType": "address",
          "name": "validator",
          "type": "address"
        }
      ],
      "name": "TribunalAppealRevealing",
      "type": "event"
    },
    {
      "anonymous": false,
      "inputs": [
        {
          "indexed": true,
          "internalType": "bytes32",
          "name": "txId",
          "type": "bytes32"
        },
        {
          "indexed": true,
          "internalType": "address",
          "name": "leader",
          "type": "address"
        },
        {
          "indexed": true,
          "internalType": "uint256",
          "name": "tribunalIndex",
          "type": "uint256"
        }
      ],
      "name": "TribunalAppealStarted",
      "type": "event"
    },
    {
      "inputs": [],
      "name": "DEFAULT_ADMIN_ROLE",
      "outputs": [
        {
          "internalType": "bytes32",
          "name": "",
          "type": "bytes32"
        }
      ],
      "stateMutability": "view",
      "type": "function"
    },
    {
      "inputs": [],
      "name": "acceptOwnership",
      "outputs": [],
      "stateMutability": "nonpayable",
      "type": "function"
    },
    {
      "inputs": [],
      "name": "addressManager",
      "outputs": [
        {
          "internalType": "contract IAddressManager",
          "name": "",
          "type": "address"
        }
      ],
      "stateMutability": "view",
      "type": "function"
    },
    {
      "inputs": [
        {
          "internalType": "bytes32",
          "name": "_txId",
          "type": "bytes32"
        },
        {
          "internalType": "uint256",
          "name": "_index",
          "type": "uint256"
        }
      ],
      "name": "adminCloseTribunalInFavor",
      "outputs": [],
      "stateMutability": "nonpayable",
      "type": "function"
    },
    {
      "inputs": [
        {
          "internalType": "address",
          "name": "",
          "type": "address"
        }
      ],
      "name": "authorizedCallers",
      "outputs": [
        {
          "internalType": "bool",
          "name": "",
          "type": "bool"
        }
      ],
      "stateMutability": "view",
      "type": "function"
    },
    {
      "inputs": [
        {
          "internalType": "bytes32",
          "name": "_txId",
          "type": "bytes32"
        },
        {
          "internalType": "uint256",
          "name": "_index",
          "type": "uint256"
        }
      ],
      "name": "checkStatus",
      "outputs": [
        {
          "internalType": "enum ITribunalAppeal.TribunalAppealStatus",
          "name": "status",
          "type": "uint8"
        },
        {
          "internalType": "uint256",
          "name": "timeLeft",
          "type": "uint256"
        },
        {
          "internalType": "enum ITribunalAppeal.TribunalResultType",
          "name": "finalResult",
          "type": "uint8"
        }
      ],
      "stateMutability": "view",
      "type": "function"
    },
    {
      "inputs": [
        {
          "internalType": "bytes32",
          "name": "_txId",
          "type": "bytes32"
        },
        {
          "internalType": "uint256",
          "name": "_index",
          "type": "uint256"
        },
        {
          "internalType": "bytes32",
          "name": "_commitHash",
          "type": "bytes32"
        },
        {
          "internalType": "address",
          "name": "_validator",
          "type": "address"
        }
      ],
      "name": "commitVote",
      "outputs": [],
      "stateMutability": "nonpayable",
      "type": "function"
    },
    {
      "inputs": [
        {
          "internalType": "uint256",
          "name": "_epoch",
          "type": "uint256"
        },
        {
          "internalType": "uint256",
          "name": "_offset",
          "type": "uint256"
        },
        {
          "internalType": "uint256",
          "name": "_pageSize",
          "type": "uint256"
        }
      ],
      "name": "getPendingTribunals",
      "outputs": [
        {
          "internalType": "bytes32[]",
          "name": "",
          "type": "bytes32[]"
        }
      ],
      "stateMutability": "view",
      "type": "function"
    },
    {
      "inputs": [
        {
          "internalType": "uint256",
          "name": "_epoch",
          "type": "uint256"
        }
      ],
      "name": "getPendingTribunals",
      "outputs": [
        {
          "internalType": "bytes32[]",
          "name": "",
          "type": "bytes32[]"
        }
      ],
      "stateMutability": "view",
      "type": "function"
    },
    {
      "inputs": [
        {
          "internalType": "bytes32",
          "name": "role",
          "type": "bytes32"
        }
      ],
      "name": "getRoleAdmin",
      "outputs": [
        {
          "internalType": "bytes32",
          "name": "",
          "type": "bytes32"
        }
      ],
      "stateMutability": "view",
      "type": "function"
    },
    {
      "inputs": [
        {
          "internalType": "bytes32",
          "name": "_txId",
          "type": "bytes32"
        },
        {
          "internalType": "uint256",
          "name": "_index",
          "type": "uint256"
        }
      ],
      "name": "getTribunal",
      "outputs": [
        {
          "components": [
            {
              "internalType": "bytes32",
              "name": "txId",
              "type": "bytes32"
            },
            {
              "internalType": "uint256",
              "name": "index",
              "type": "uint256"
            },
            {
              "internalType": "uint256",
              "name": "txEpoch",
              "type": "uint256"
            },
            {
              "internalType": "enum ITribunalAppeal.TribunalAppealStatus",
              "name": "status",
              "type": "uint8"
            },
            {
              "components": [
                {
                  "internalType": "uint256",
                  "name": "created",
                  "type": "uint256"
                },
                {
                  "internalType": "uint256",
                  "name": "committed",
                  "type": "uint256"
                },
                {
                  "internalType": "uint256",
                  "name": "revealed",
                  "type": "uint256"
                }
              ],
              "internalType": "struct ITribunalAppeal.TribunalTimestamps",
              "name": "timestamps",
              "type": "tuple"
            },
            {
              "internalType": "address",
              "name": "leader",
              "type": "address"
            },
            {
              "internalType": "bytes32",
              "name": "leaderResultHash",
              "type": "bytes32"
            },
            {
              "internalType": "uint256",
              "name": "finalizedAtEpoch",
              "type": "uint256"
            },
            {
              "internalType": "uint256",
              "name": "round",
              "type": "uint256"
            },
            {
              "internalType": "uint256",
              "name": "votesCommitted",
              "type": "uint256"
            },
            {
              "internalType": "uint256",
              "name": "votesRevealed",
              "type": "uint256"
            },
            {
              "internalType": "enum ITribunalAppeal.TribunalResultType",
              "name": "finalResult",
              "type": "uint8"
            }
          ],
          "internalType": "struct ITribunalAppeal.Tribunal",
          "name": "",
          "type": "tuple"
        }
      ],
      "stateMutability": "view",
      "type": "function"
    },
    {
      "inputs": [
        {
          "internalType": "uint256",
          "name": "_epoch",
          "type": "uint256"
        }
      ],
      "name": "getTribunalsByEpoch",
      "outputs": [
        {
          "components": [
            {
              "internalType": "bytes32",
              "name": "txId",
              "type": "bytes32"
            },
            {
              "internalType": "uint256",
              "name": "index",
              "type": "uint256"
            }
          ],
          "internalType": "struct ITribunalAppeal.TribunalReference[]",
          "name": "",
          "type": "tuple[]"
        }
      ],
      "stateMutability": "view",
      "type": "function"
    },
    {
      "inputs": [
        {
          "internalType": "bytes32",
          "name": "_txId",
          "type": "bytes32"
        },
        {
          "internalType": "uint256",
          "name": "_index",
          "type": "uint256"
        },
        {
          "internalType": "address",
          "name": "_validator",
          "type": "address"
        }
      ],
      "name": "getVoteForValidator",
      "outputs": [
        {
          "internalType": "enum ITribunalAppeal.TribunalVoteType",
          "name": "",
          "type": "uint8"
        }
      ],
      "stateMutability": "view",
      "type": "function"
    },
    {
      "inputs": [
        {
          "internalType": "bytes32",
          "name": "role",
          "type": "bytes32"
        },
        {
          "internalType": "address",
          "name": "account",
          "type": "address"
        }
      ],
      "name": "grantRole",
      "outputs": [],
      "stateMutability": "nonpayable",
      "type": "function"
    },
    {
      "inputs": [
        {
          "internalType": "uint256",
          "name": "_epoch",
          "type": "uint256"
        }
      ],
      "name": "hasPendingTribunals",
      "outputs": [
        {
          "internalType": "bool",
          "name": "",
          "type": "bool"
        }
      ],
      "stateMutability": "view",
      "type": "function"
    },
    {
      "inputs": [
        {
          "internalType": "bytes32",
          "name": "role",
          "type": "bytes32"
        },
        {
          "internalType": "address",
          "name": "account",
          "type": "address"
        }
      ],
      "name": "hasRole",
      "outputs": [
        {
          "internalType": "bool",
          "name": "",
          "type": "bool"
        }
      ],
      "stateMutability": "view",
      "type": "function"
    },
    {
      "inputs": [
        {
          "internalType": "address",
          "name": "_addressManager",
          "type": "address"
        },
        {
          "internalType": "uint256",
          "name": "_voteWindow",
          "type": "uint256"
        }
      ],
      "name": "initialize",
      "outputs": [],
      "stateMutability": "nonpayable",
      "type": "function"
    },
    {
      "inputs": [],
      "name": "owner",
      "outputs": [
        {
          "internalType": "address",
          "name": "",
          "type": "address"
        }
      ],
      "stateMutability": "view",
      "type": "function"
    },
    {
      "inputs": [],
      "name": "pendingOwner",
      "outputs": [
        {
          "internalType": "address",
          "name": "",
          "type": "address"
        }
      ],
      "stateMutability": "view",
      "type": "function"
    },
    {
      "inputs": [
        {
          "internalType": "bytes32",
          "name": "_txId",
          "type": "bytes32"
        },
        {
          "internalType": "uint256",
          "name": "_txEpoch",
          "type": "uint256"
        },
        {
          "internalType": "address",
          "name": "_leader",
          "type": "address"
        },
        {
          "internalType": "uint256",
          "name": "_round",
          "type": "uint256"
        },
        {
          "internalType": "bytes32",
          "name": "_leaderResultHash",
          "type": "bytes32"
        }
      ],
      "name": "prepareTribunalAppeal",
      "outputs": [
        {
          "internalType": "uint256",
          "name": "index",
          "type": "uint256"
        }
      ],
      "stateMutability": "nonpayable",
      "type": "function"
    },
    {
      "inputs": [
        {
          "internalType": "bytes32",
          "name": "_txId",
          "type": "bytes32"
        },
        {
          "internalType": "uint256",
          "name": "_index",
          "type": "uint256"
        }
      ],
      "name": "processStatus",
      "outputs": [
        {
          "internalType": "enum ITribunalAppeal.TribunalAppealStatus",
          "name": "status",
          "type": "uint8"
        },
        {
          "internalType": "uint256",
          "name": "timeLeft",
          "type": "uint256"
        },
        {
          "internalType": "enum ITribunalAppeal.TribunalResultType",
          "name": "finalResult",
          "type": "uint8"
        }
      ],
      "stateMutability": "nonpayable",
      "type": "function"
    },
    {
      "inputs": [],
      "name": "renounceOwnership",
      "outputs": [],
      "stateMutability": "nonpayable",
      "type": "function"
    },
    {
      "inputs": [
        {
          "internalType": "bytes32",
          "name": "role",
          "type": "bytes32"
        },
        {
          "internalType": "address",
          "name": "callerConfirmation",
          "type": "address"
        }
      ],
      "name": "renounceRole",
      "outputs": [],
      "stateMutability": "nonpayable",
      "type": "function"
    },
    {
      "inputs": [
        {
          "internalType": "bytes32",
          "name": "_txId",
          "type": "bytes32"
        },
        {
          "internalType": "uint256",
          "name": "_index",
          "type": "uint256"
        },
        {
          "internalType": "bytes32",
          "name": "_voteHash",
          "type": "bytes32"
        },
        {
          "internalType": "enum ITransactions.VoteType",
          "name": "_voteType",
          "type": "uint8"
        },
        {
          "internalType": "bytes32",
          "name": "_otherExecutionFieldsHash",
          "type": "bytes32"
        },
        {
          "internalType": "uint256",
          "name": "_nonce",
          "type": "uint256"
        },
        {
          "internalType": "address",
          "name": "_validator",
          "type": "address"
        }
      ],
      "name": "revealVote",
      "outputs": [],
      "stateMutability": "nonpayable",
      "type": "function"
    },
    {
      "inputs": [
        {
          "internalType": "bytes32",
          "name": "role",
          "type": "bytes32"
        },
        {
          "internalType": "address",
          "name": "account",
          "type": "address"
        }
      ],
      "name": "revokeRole",
      "outputs": [],
      "stateMutability": "nonpayable",
      "type": "function"
    },
    {
      "inputs": [
        {
          "internalType": "address",
          "name": "_addressManager",
          "type": "address"
        }
      ],
      "name": "setAddressManager",
      "outputs": [],
      "stateMutability": "nonpayable",
      "type": "function"
    },
    {
      "inputs": [
        {
          "internalType": "address",
          "name": "caller",
          "type": "address"
        },
        {
          "internalType": "bool",
          "name": "authorized",
          "type": "bool"
        }
      ],
      "name": "setAuthorizedCaller",
      "outputs": [],
      "stateMutability": "nonpayable",
      "type": "function"
    },
    {
      "inputs": [
        {
          "internalType": "address[]",
          "name": "callers",
          "type": "address[]"
        },
        {
          "internalType": "bool",
          "name": "authorized",
          "type": "bool"
        }
      ],
      "name": "setAuthorizedCallers",
      "outputs": [],
      "stateMutability": "nonpayable",
      "type": "function"
    },
    {
      "inputs": [
        {
          "internalType": "bytes32",
          "name": "_txId",
          "type": "bytes32"
        },
        {
          "internalType": "address",
          "name": "_validator",
          "type": "address"
        },
        {
          "internalType": "bytes32",
          "name": "_leaderResultHash",
          "type": "bytes32"
        },
        {
          "internalType": "bytes32",
          "name": "_validatorResultHash",
          "type": "bytes32"
        }
      ],
      "name": "setVoteForValidator",
      "outputs": [],
      "stateMutability": "nonpayable",
      "type": "function"
    },
    {
      "inputs": [
        {
          "internalType": "bytes4",
          "name": "interfaceId",
          "type": "bytes4"
        }
      ],
      "name": "supportsInterface",
      "outputs": [
        {
          "internalType": "bool",
          "name": "",
          "type": "bool"
        }
      ],
      "stateMutability": "view",
      "type": "function"
    },
    {
      "inputs": [
        {
          "internalType": "address",
          "name": "newOwner",
          "type": "address"
        }
      ],
      "name": "transferOwnership",
      "outputs": [],
      "stateMutability": "nonpayable",
      "type": "function"
    },
    {
      "inputs": [
        {
          "internalType": "bytes32",
          "name": "txId",
          "type": "bytes32"
        }
      ],
      "name": "tribunalCount",
      "outputs": [
        {
          "internalType": "uint256",
          "name": "count",
          "type": "uint256"
        }
      ],
      "stateMutability": "view",
      "type": "function"
    },
    {
      "inputs": [
        {
          "internalType": "bytes32",
          "name": "txId",
          "type": "bytes32"
        },
        {
          "internalType": "uint256",
          "name": "index",
          "type": "uint256"
        }
      ],
      "name": "tribunals",
      "outputs": [
        {
          "internalType": "bytes32",
          "name": "txId",
          "type": "bytes32"
        },
        {
          "internalType": "uint256",
          "name": "index",
          "type": "uint256"
        },
        {
          "internalType": "uint256",
          "name": "txEpoch",
          "type": "uint256"
        },
        {
          "internalType": "enum ITribunalAppeal.TribunalAppealStatus",
          "name": "status",
          "type": "uint8"
        },
        {
          "components": [
            {
              "internalType": "uint256",
              "name": "created",
              "type": "uint256"
            },
            {
              "internalType": "uint256",
              "name": "committed",
              "type": "uint256"
            },
            {
              "internalType": "uint256",
              "name": "revealed",
              "type": "uint256"
            }
          ],
          "internalType": "struct ITribunalAppeal.TribunalTimestamps",
          "name": "timestamps",
          "type": "tuple"
        },
        {
          "internalType": "address",
          "name": "leader",
          "type": "address"
        },
        {
          "internalType": "bytes32",
          "name": "leaderResultHash",
          "type": "bytes32"
        },
        {
          "internalType": "uint256",
          "name": "finalizedAtEpoch",
          "type": "uint256"
        },
        {
          "internalType": "uint256",
          "name": "round",
          "type": "uint256"
        },
        {
          "internalType": "uint256",
          "name": "votesCommitted",
          "type": "uint256"
        },
        {
          "internalType": "uint256",
          "name": "votesRevealed",
          "type": "uint256"
        },
        {
          "internalType": "enum ITribunalAppeal.TribunalResultType",
          "name": "finalResult",
          "type": "uint8"
        }
      ],
      "stateMutability": "view",
      "type": "function"
    },
    {
      "inputs": [
        {
          "internalType": "uint256",
          "name": "epoch",
          "type": "uint256"
        },
        {
          "internalType": "uint256",
          "name": "",
          "type": "uint256"
        }
      ],
      "name": "tribunalsPerEpoch",
      "outputs": [
        {
          "internalType": "bytes32",
          "name": "txId",
          "type": "bytes32"
        },
        {
          "internalType": "uint256",
          "name": "index",
          "type": "uint256"
        }
      ],
      "stateMutability": "view",
      "type": "function"
    },
    {
      "inputs": [
        {
          "internalType": "bytes32",
          "name": "txId",
          "type": "bytes32"
        },
        {
          "internalType": "uint256",
          "name": "index",
          "type": "uint256"
        },
        {
          "internalType": "uint256",
          "name": "",
          "type": "uint256"
        }
      ],
      "name": "voteCounts",
      "outputs": [
        {
          "internalType": "uint256",
          "name": "voteCounts",
          "type": "uint256"
        }
      ],
      "stateMutability": "view",
      "type": "function"
    },
    {
      "inputs": [],
      "name": "voteWindow",
      "outputs": [
        {
          "internalType": "uint256",
          "name": "",
          "type": "uint256"
        }
      ],
      "stateMutability": "view",
      "type": "function"
    },
    {
      "inputs": [
        {
          "internalType": "bytes32",
          "name": "txId",
          "type": "bytes32"
        },
        {
          "internalType": "uint256",
          "name": "index",
          "type": "uint256"
        },
        {
          "internalType": "address",
          "name": "validator",
          "type": "address"
        }
      ],
      "name": "votes",
      "outputs": [
        {
          "internalType": "bytes32",
          "name": "voteHash",
          "type": "bytes32"
        },
        {
          "internalType": "bytes32",
          "name": "resultHash",
          "type": "bytes32"
        },
        {
          "internalType": "enum ITribunalAppeal.TribunalVoteType",
          "name": "voteType",
          "type": "uint8"
        }
      ],
      "stateMutability": "view",
      "type": "function"
    }
  ],
  "bytecode": "0x608080604052346015576133a5908161001b8239f35b600080fdfe608080604052600436101561001357600080fd5b600090813560e01c90816301ffc9a7146117ff575080630652b57a146117ba578063090263a7146116b95780630ebad2a1146114b9578063237bac3614611358578063248a9ca3146113315780632f2ff15d146112ff578063333163a8146112c257806336568abe1461127d5780633ab76e9f14611254578063454bbd29146111d65780634c313ce814610ff457806351fdaa5614610f8f578063536fff6c14610f50578063695aa26b14610e5c5780636d0f843614610e075780636d43074714610de9578063715018a614610d6857806379ba509714610d1a578063888e575614610c2e5780638900c8e314610b5f5780638da5cb5b14610b2957806391d1485414610ad057806398c574c4146108f75780639acc6a8a146108ce5780639d0195c0146108a8578063a217fddf1461088c578063baa6efcf1461083e578063c8bc6543146107ec578063cac3c18e1461072b578063cd6dc6871461058b578063d547741f14610550578063daf4d0d814610516578063db67487b146102a2578063e30c39781461026c578063f2fde38b146101e45763f8abf084146101b857600080fd5b346101e15760203660031901126101e15760406020916004358152600183522054604051908152f35b80fd5b50346101e15760203660031901126101e1576101fe611854565b610206611b0a565b60008051602061335083398151915280546001600160a01b0319166001600160a01b039283169081179091556000805160206132d0833981519152549091167f38d16b8cac22d99fc7c124b9cd0de2d3fa1faef420bfe791d8c362d765e227008380a380f35b50346101e157806003193601126101e157600080516020613350833981519152546040516001600160a01b039091168152602090f35b50346101e15760e03660031901126101e1576004359060443560643560243560058210156105125760c435946001600160a01b038616926084359084880361050e576001600160a01b036102f4611b54565b16331415806104f7575b6104e85782875286602052604087208488526020526040872095600161032388611bf3565b505061032e816118aa565b036104d957838852600260205260408820858952602052604088208660005260205260ff60026040600020015416610365816118aa565b6104cb578060405160208101906bffffffffffffffffffffffff198c60601b1682526103946034820186611afa565b85603582015260a4356055820152605581526103b16075826119c0565b519020036104bc5783885260026020526040882085895260205260408820866000526020526040600020541590811561048f575b50610480578697610454926001928561047d9a52600260205260408b20878c5260205260408b20886000526020526040600020916040519061042b602083018094611afa565b60218201526021815261043f6041826119c0565b519020928391015560088701549085856125c1565b7f2a20eb51503820997c10290f84016791d42289bf7a48cc566a59624b7ab1a7508680a4611cc6565b80f35b636aee863360e11b8752600487fd5b905083885260026020526040882085895260205260408820866000526020526040600020541415386103e5565b636aee863360e11b8852600488fd5b62d6a91b60e01b8852600488fd5b630df071f560e21b8852600488fd5b63f8beed7d60e01b8752600487fd5b50338752600760205260ff604088205416156102fe565b8680fd5b8380fd5b50346101e15760203660031901126101e15761054c61054060043561053a8161279c565b906122d8565b60405191829182611a09565b0390f35b50346101e15760403660031901126101e15761058760043561057061186f565b9061058261057d82611aa8565b611dbc565b611eaf565b5080f35b50346101e15760403660031901126101e1576105a5611854565b600080516020613330833981519152549060ff8260401c1615916001600160401b03811680159081610723575b6001149081610719575b159081610710575b506107015767ffffffffffffffff19811660011760008051602061333083398151915255826106d4575b506106176131d5565b61061f6131d5565b6106276131d5565b33156106c057610636336120e5565b61063e6131d5565b600580546001600160a01b0319166001600160a01b039290921691909117905560243560065561066b5780f35b60ff60401b196000805160206133308339815191525416600080516020613330833981519152557fc7f505b2f371ae2175ee4913f4499e1f2633a7b5936321eed1cdaeb6115181d2602060405160018152a180f35b631e4fbdf760e01b83526004839052602483fd5b68ffffffffffffffffff19166801000000000000000117600080516020613330833981519152553861060e565b63f92ee8a960e01b8452600484fd5b905015386105e4565b303b1591506105dc565b8491506105d2565b50346101e15760803660031901126101e1576004359061074961186f565b6001600160a01b03610759612153565b16331415806107d5575b6107c6578282526001602052604082205461078d57819261047d92915b60643592604435926125c1565b828252600160205260408220546000198101939084116107b25761047d929391610780565b634e487b7160e01b83526011600452602483fd5b6315c9368f60e31b8252600482fd5b50338252600760205260ff60408320541615610763565b50346101e15760406107fd36611900565b939182526002602052828220908252602052209060018060a01b0316600052602052602060ff600260406000200154166040519061083a816118aa565b8152f35b50346101e15760403660031901126101e1576024359060043581526004602052604081209081548310156101e15760406108788484611a43565b506001815491015482519182526020820152f35b50346101e157806003193601126101e157602090604051908152f35b50346101e15760603660031901126101e15761054c61054060443560243560043561242f565b50346101e15760203660031901126101e15760206108ed6004356121d1565b6040519015158152f35b50346101e15760a03660031901126101e1576044356001600160a01b03811691906024359060043590849003610acc576001600160a01b03610937612153565b1633141580610ab5575b610aa65780835260016020526040832054918184528360205260408420838552602052600d604085208381558460018201558260028201556003810160ff19815416905585604080516109938161198a565b4281528260208201520152426004820155856005820155856006820155600781018760018060a01b03198254161790556084356008820155856009820155606435600a8201550160ff1981541690558352600460205260408320604051906109fa826119a5565b8282526020820184815281549091600160401b821015610a925790610a2491600182018155611a43565b929092610a7e5791600185949260209894518355519101558085526001865260408520610a518154611a83565b90557f7ee2bbbd24bd23d68e7b75b100c007555b7660ebb4ddf29941968ed287123c4b6040519580a48152f35b634e487b7160e01b86526004869052602486fd5b634e487b7160e01b87526041600452602487fd5b6315c9368f60e31b8352600483fd5b50338352600760205260ff60408420541615610941565b8280fd5b50346101e15760403660031901126101e1576040610aec61186f565b916004358152600080516020613310833981519152602052209060018060a01b0316600052602052602060ff604060002054166040519015158152f35b50346101e157806003193601126101e1576000805160206132d0833981519152546040516001600160a01b039091168152602090f35b50346101e15760203660031901126101e15760043581526004602052604081208054610b8a81611ae3565b90610b9860405192836119c0565b80825260208201809385526020852085915b838310610c0157868587604051928392602084019060208552518091526040840192915b818110610bdc575050500390f35b8251805185526020908101518186015286955060409094019390920191600101610bce565b60026020600192604051610c14816119a5565b855481528486015483820152815201920192019190610baa565b50346101e15760406101c091610c4336611894565b9082528160205282822090825260205220610d18815491600181015490600281015460ff600383015416610c79600484016119e1565b60018060a01b03600785015416600885015490610cea600987015493600a88015495600b8901549760ff600d600c8c01549b0154169a60206040519e8f908152015260408d0152610cc9816118aa565b60608c0152805160808c0152602081015160a08c01526040015160c08b0152565b60e08901526101008801526101208701526101408601526101608501526101808401526101a08301906118ca565bf35b50346101e157806003193601126101e15760008051602061335083398151915254336001600160a01b0390911603610d555761047d336120e5565b63118cdaa760e01b815233600452602490fd5b50346101e157806003193601126101e157610d81611b0a565b60008051602061335083398151915280546001600160a01b03199081169091556000805160206132d08339815191528054918216905581906001600160a01b03167f8be0079c531659141344cd1fd0a4f28419497f9722a3daafe3b4186f6b6457e08280a380f35b50346101e157806003193601126101e1576020600654604051908152f35b50346101e15760603660031901126101e1576044359060043581526003602052604081206024358252602052604081209081548310156101e1576020610e4d848461192a565b90549060031b1c604051908152f35b50346101e157610e6b36611894565b829183528260205260408320908352602052604082209160ff60038401541691610e94836118aa565b82610ee9575060ff600d61054c92600486015460065491610eb58383611ac9565b421015610ee15750610ecb610ed0924292611ac9565b611ad6565b945b015416604051938493846118d7565b915050610ed0565b9290610ef4836118aa565b60018314610f0b575b5060ff600d61054c92610ed2565b819350600d60ff91600561054c94015460065491610f298383611ac9565b421015610f485750610ecb610f3f924292611ac9565b94925050610efd565b915050610f3f565b50346101e15760203660031901126101e15760209060ff906040906001600160a01b03610f7b611854565b168152600784522054166040519015158152f35b50346101e157604060609181610fa436611900565b9391825260026020528282209082526020522060009160018060a01b031682526020522080549060ff6002600183015492015416906040519283526020830152610fed816118aa565b6040820152f35b50346101e15761100336611894565b61100b611b0a565b8183528260205260408320818452602052604083208054156111c757600381018054600260ff821661103c816118aa565b146111b85760029060ff1916179055600d8101600260ff198254161790556004602060018060a01b0361106d611f4f565b166040519283809263900cf0cf60e01b82525afa9081156111ad578591611177575b50600982019081554260068301556001600160a01b036110ad611f4f565b169185600782019360018060a01b0385541690803b15610acc57602483926040519485938492633eb5dbd960e21b845260048401525af1801561116c57611151575b506002015490546110ff91611fe9565b81836000805160206132f08339815191526040805160028152426020820152a3546001600160a01b0316917f9317268df1b2d1d62052066e06b7fccd50e53138489bbb9b4e999144c633e2a28480a480f35b866111636110ff9493986002936119c0565b969192506110ef565b6040513d89823e3d90fd5b90506020813d6020116111a5575b81611192602093836119c0565b810103126111a157513861108f565b8480fd5b3d9150611185565b6040513d87823e3d90fd5b636cb27c0f60e01b8652600486fd5b630c1377f560e31b8452600484fd5b50346101e15760403660031901126101e1576111f0611854565b7fad857fa38c9319cb80848f1ef2f924383b90297eb5d71755738ff037d100faa1602061121b611885565b92611224611b0a565b6001600160a01b03168085526007825260408520805460ff191660ff86151516179055926040519015158152a280f35b50346101e157806003193601126101e1576005546040516001600160a01b039091168152602090f35b50346101e15760403660031901126101e15761129761186f565b336001600160a01b038216036112b35761058790600435611eaf565b63334bd91960e11b8252600482fd5b50346101e1576112f0604061054c926112da36611894565b9082528160205282822090825260205220611bf3565b604093919351938493846118d7565b50346101e15760403660031901126101e15761058760043561131f61186f565b9061132c61057d82611aa8565b611e06565b50346101e15760203660031901126101e1576020611350600435611aa8565b604051908152f35b50346101e15760803660031901126101e157604435906004356064356001600160a01b0381169060243590829003610512576001600160a01b0361139a611b54565b16331415806114a2575b61149357828452836020526040842081855260205260408420926113c784611bf3565b50506113d2816118aa565b6114845785156114755780855260026020526040852082865260205260408520838652602052604085209586546114665760ff600288015416611414816118aa565b6114575761047d959655600b840161142c8154611a83565b90557fec56dde2fbbc8a2028dec4e9ceb977d9cf695ad255e3997aea63a8f412604fa98680a4611cc6565b6337138f5f60e11b8652600486fd5b637c4b0d7760e11b8652600486fd5b630b9e91c760e11b8552600485fd5b630df071f560e21b8552600485fd5b63f8beed7d60e01b8452600484fd5b50338452600760205260ff604085205416156113a4565b50346101e1576114c836611894565b90826101606040516114d981611958565b8281528260208201528260408201528260608201526040516114fa8161198a565b83815283602082015283604082015260808201528260a08201528260c08201528260e0820152826101008201528261012082015282610140820152015282528160205260408220908252602052604081206040519061155882611958565b805482526001810154916020810192835260028201546040820190815260ff600384015416606083019061158b816118aa565b8152611599600485016119e1565b6080840190815260018060a01b0360078601541660a0850190815260088601549160c0860192835260098701549360e08701948552600a880154956101008801968752600b89015497610120810198895260ff600d600c8c01549b61014084019c8d5201541661016082019c60048210156116a557509261166792610d189b999795928e9b9997956101c09f5260206040519e8f92518352519101525160408d015251611645816118aa565b60608c015251805160808c0152602081015160a08c01526040015160c08b0152565b516001600160a01b031660e08901525161010088015251610120870152516101408601525161016085015251610180840152516101a08301906118ca565b634e487b7160e01b81526021600452602490fd5b50346101e15760403660031901126101e1576004356001600160401b0381116117b657366023820112156117b6578060040135906001600160401b038211610acc576024810190602436918460051b010111610acc5790611718611885565b91611721611b0a565b82151591845b818110611732578580f35b6001906001600160a01b0361175061174b838688611a5f565b611a6f565b168752600760205261177186604089209060ff801983541691151516179055565b818060a01b0361178561174b838688611a5f565b167fad857fa38c9319cb80848f1ef2f924383b90297eb5d71755738ff037d100faa16020604051888152a201611727565b5080fd5b50346101e15760203660031901126101e1576117d4611854565b6117dc611b0a565b600580546001600160a01b0319166001600160a01b039290921691909117905580f35b9050346117b65760203660031901126117b65760043563ffffffff60e01b8116809103610acc5760209250637965db0b60e01b8114908115611843575b5015158152f35b6301ffc9a760e01b1490503861183c565b600435906001600160a01b038216820361186a57565b600080fd5b602435906001600160a01b038216820361186a57565b60243590811515820361186a57565b604090600319011261186a576004359060243590565b600311156118b457565b634e487b7160e01b600052602160045260246000fd5b9060048210156118b45752565b6040906118fe939594929560608201966118f0816118aa565b8252602082015201906118ca565b565b606090600319011261186a5760043590602435906044356001600160a01b038116810361186a5790565b80548210156119425760005260206000200190600090565b634e487b7160e01b600052603260045260246000fd5b61018081019081106001600160401b0382111761197457604052565b634e487b7160e01b600052604160045260246000fd5b606081019081106001600160401b0382111761197457604052565b604081019081106001600160401b0382111761197457604052565b90601f801991011681019081106001600160401b0382111761197457604052565b906040516119ee8161198a565b60406002829480548452600181015460208501520154910152565b602060408183019282815284518094520192019060005b818110611a2d5750505090565b8251845260209384019390920191600101611a20565b80548210156119425760005260206000209060011b0190600090565b91908110156119425760051b0190565b356001600160a01b038116810361186a5790565b6000198114611a925760010190565b634e487b7160e01b600052601160045260246000fd5b60005260008051602061331083398151915260205260016040600020015490565b91908201809211611a9257565b91908203918211611a9257565b6001600160401b0381116119745760051b60200190565b60058110156118b45760f81b9052565b6000805160206132d0833981519152546001600160a01b03163303611b2b57565b63118cdaa760e01b6000523360045260246000fd5b51906001600160a01b038216820361186a57565b600554604051631bae711d60e21b8152602060048201819052600d60248301526c21b7b739b2b739bab9a6b0b4b760991b60448301529091829060649082906001600160a01b03165afa908115611be757600091611bb0575090565b90506020813d602011611bdf575b81611bcb602093836119c0565b8101031261186a57611bdc90611b40565b90565b3d9150611bbe565b6040513d6000823e3d90fd5b6000916003820160ff815416611c08816118aa565b15611c86575b600160ff825416611c1e816118aa565b14611c36575b600d60ff809254169301541691929190565b6005830154600654611c488183611ac9565b421115611c69575050600d60ff8092611c60866128f9565b92505050611c24565b60ff929550611c80600d92610ecb85934292611ac9565b95611c60565b6004830154600654611c988183611ac9565b421115611caf575050611caa83612883565b611c0e565b611cc0929550610ecb904292611ac9565b92611c0e565b600460206001600160a01b03611cda611f4f565b1660405192838092630d2bd90960e01b82525afa908115611be757600091611d8a575b50600c8201549081811115611d8357611d168282611ad6565b60ff60038501541690611d28826118aa565b81159081611d74575b5015611d43575050506118fe90612883565b600190611d4f816118aa565b149182611d69575b5050611d605750565b6118fe906128f9565b101590503880611d57565b9050600b850154101538611d31565b6000611d16565b906020823d602011611db4575b81611da4602093836119c0565b810103126101e157505138611cfd565b3d9150611d97565b60008181526000805160206133108339815191526020908152604080832033845290915290205460ff1615611dee5750565b63e2517d3f60e01b6000523360045260245260446000fd5b6000818152600080516020613310833981519152602090815260408083206001600160a01b038616845290915290205460ff16611ea8576000818152600080516020613310833981519152602090815260408083206001600160a01b0395909516808452949091528120805460ff19166001179055339291907f2f8788117e7eff1d82e926ec794901d17c78024a50270940304540a733656f0d9080a4600190565b5050600090565b6000818152600080516020613310833981519152602090815260408083206001600160a01b038616845290915290205460ff1615611ea8576000818152600080516020613310833981519152602090815260408083206001600160a01b0395909516808452949091528120805460ff19169055339291907ff6391f5c32d9c69d2a47ea670b442974b53935d1edc7fd64eb21e047a839171b9080a4600190565b600554604051631bae711d60e21b815260206004820181905260076024830152665374616b696e6760c81b60448301529091829060649082906001600160a01b03165afa908115611be757600091611faf575b506001600160a01b031690565b90506020813d602011611fe1575b81611fca602093836119c0565b8101031261186a57611fdb90611b40565b38611fa2565b3d9150611fbd565b90811090816120d3575b8161205a575b5061200057565b612008611f4f565b6000906001600160a01b0316803b156117b6578180916004604051809481936333d98b0560e21b83525af1801561204f57612042575b5050565b8161204c916119c0565b50565b6040513d84823e3d90fd5b905060206001600160a01b0361206e612153565b169160246040518094819363132d95ab60e11b835260048301525afa908115611be7576000916120a1575b501538611ff9565b90506020813d6020116120cb575b816120bc602093836119c0565b8101031261186a575138612099565b3d91506120af565b90506120de816121d1565b1590611ff3565b60008051602061335083398151915280546001600160a01b03199081169091556000805160206132d083398151915280549182166001600160a01b0393841690811790915591167f8be0079c531659141344cd1fd0a4f28419497f9722a3daafe3b4186f6b6457e0600080a3565b600554604051631bae711d60e21b815260206004820181905260126024830152712a3930b739b0b1ba34b7b726b0b730b3b2b960711b60448301529091829060649082906001600160a01b03165afa908115611be757600091611faf57506001600160a01b031690565b80518210156119425760209160051b010190565b6000526004602052604060002080546121e981611ae3565b916121f760405193846119c0565b818352602083019060005260206000206000915b838310612279575050505060005b8151811015611ea85761222c81836121bd565b515160005260006020526040600020602061224783856121bd565b51015160005260205260ff600d604060002001541660048110156118b4571561227257600101612219565b5050600190565b6002602060019260405161228c816119a5565b85548152848601548382015281520192019201919061220b565b906122b082611ae3565b6122bd60405191826119c0565b82815280926122ce601f1991611ae3565b0190602036910137565b60008215612414576122e98261279c565b905080831161240c575b506000526004602052604060002091825461230d81611ae3565b9361231b60405195866119c0565b818552602085019060005260206000206000915b8383106123df5750505050612343826122a6565b9260009060009260005b82518110806123d6575b156123ce5761236681846121bd565b51805160005260006020526040600020602082015160005260205260ff600d604060002001541660048110156118b457156123a5575b5060010161234d565b600191946123c791516123c16123ba89611a83565b988b6121bd565b52611a83565b939061239c565b509350505050565b50858510612357565b600260206001926040516123f2816119a5565b85548152848601548382015281520192019201919061232f565b9150386122f3565b915050604051906124266020836119c0565b80825236813790565b82156125a45761243e8161279c565b80831161259457806124508585611ac9565b11612580575b5060005260046020526040600020805461246f81611ae3565b9161247d60405193846119c0565b818352602083019060005260206000206000915b83831061255357505050506124a5836122a6565b60009160009560005b825181108061254a575b1561253f576124c781846121bd565b51805160005260006020526040600020602082015160005260205260ff600d604060002001541660048110156118b45715612506575b506001016124ae565b8561251d9188600194981015612524575b50611a83565b94906124fd565b516125386125318c611a83565b9b886121bd565b5238612517565b509550509250505090565b508688106124b8565b60026020600192604051612566816119a5565b855481528486015483820152815201920192019190612491565b61258d9193508290611ad6565b9138612456565b62ed0ab960e11b60005260046000fd5b5050506040516125b56020826119c0565b60008152600036813790565b949392909285600052600060205260406000208460005260205260406000209114600014612794576001915b85600052600260205260406000208460005260205260406000209060018060a01b031660005260205260026040600020019260ff84541661262d816118aa565b15612650575b505090919250612642816118aa565b60ff80198354169116179055565b856000526003602052604060002081600052602052604060002054156126d9575b600c9293949560005260036020526040600020906000526020526126a283604060002061269d826118aa565b61192a565b6126b382549160031b91821c611a83565b8254600019831b1916911b1790550180546126cd90611a83565b90559082913880612633565b604051956126e86080886119c0565b6003875260208701606036823781600052600360205260406000208360005260205260406000209751906001600160401b03821161197457600160401b8211611974578854828a5580831061276b575b509760005260206000209760005b828110612757575050509550612671565b60019060208351930192818c015501612746565b8960005282602060002091820191015b8181106127885750612738565b6000815560010161277b565b6002916125ed565b600052600460205260406000209081546127b581611ae3565b926127c360405194856119c0565b818452602084019060005260206000206000915b838310612856575050505060009160005b815181101561203e576127fb81836121bd565b515160005260006020526040600020602061281683856121bd565b51015160005260205260ff600d604060002001541660048110156118b45715612842575b6001016127e8565b9261284e600191611a83565b93905061283a565b60026020600192604051612869816119a5565b8554815284860154838201528152019201920191906127d7565b60038101805460ff1916600117905560048101546006546128a48183611ac9565b4211156128f0576128b491611ac9565b905b8160058201557f9506786d8e5d3b7e2ee6ce9613a34952fc368967f9fb501444d3700dc0a0f52460206001835493015493604051908152a3565b505042906128b6565b60038101805460ff19166002179055426006820190815590600090600d81019160ff8354166004811015612c185715612962575b50604081600160ff6000805160206132f08339815191529454955416910154945461295a835180936118ca565b6020820152a3565b6001600160a01b03612972612153565b166024828454926040519283809263255709e560e11b82528660048301525afa80156131ca57612f4b575b50600554604051631bae711d60e21b81526020600482018190526006602483015265526f756e647360d01b60448301526001600160a01b03909216929181606481865afa908115612cfd578491612f11575b5083600a860154604460405180948193635af5446960e01b8352876004840152602483015260018060a01b03165afa908115612cfd578491612d08575b5090602060e06064930151519360405193848092631bae711d60e21b82528460048301526006602483015265566f74696e6760d01b60448301525afa918215612cfd578492612cc1575b508352600360205260408320600185015484526020526040832091600c85015492604051938492635cd8252d60e11b845260648401906004850152606060248501528254809152608484019287526020872090875b818110612ca8575050506044830152602092908290039082906001600160a01b03165afa90811561204f578291612c6d575b506004811015612c1857835460ff191660ff9190911617835560049060206001600160a01b03612b2b611f4f565b166040519384809263900cf0cf60e01b82525afa918215612c60578192612c2c575b5081600984015560ff8454166004811015612c1857600214612b92575b5081612b8b60409260026000805160206132f0833981519152950154611fe9565b915061292d565b6001600160a01b03612ba2611f4f565b60078501549116906001600160a01b0316813b15610acc578291602483926040519485938492633eb5dbd960e21b845260048401525af1801561204f57926000805160206132f08339815191529492612b8b92604095612c08575b505092505091612b6a565b81612c12916119c0565b38612bfd565b634e487b7160e01b82526021600452602482fd5b9091506020813d602011612c58575b81612c48602093836119c0565b810103126117b657519038612b4d565b3d9150612c3b565b50604051903d90823e3d90fd5b90506020813d602011612ca0575b81612c88602093836119c0565b810103126117b6575160048110156117b65738612afd565b3d9150612c7b565b8254855287955060209094019360019283019201612acb565b9091506020813d602011612cf5575b81612cdd602093836119c0565b8101031261051257612cee90611b40565b9038612a76565b3d9150612cd0565b6040513d86823e3d90fd5b90503d8085833e612d1981836119c0565b8101906020818303126111a1578051906001600160401b038211612f0d570190610160828203126111a1576040519161016083018381106001600160401b03821117610a9257604052805183526020810151602084015260408101516040840152606081015160608401526080810151608084015260a081015160a084015260c0810151600681101561050e5760c084015260e08101516001600160401b03811161050e57810182601f8201121561050e57805190612dd782611ae3565b91612de560405193846119c0565b80835260208084019160051b83010191858311612ef157602001905b828210612ef55750505060e08401526101008101516001600160401b03811161050e57810182601f8201121561050e578051612e3c81611ae3565b91612e4a60405193846119c0565b81835260208084019260051b82010190858211612ef157602001915b818310612ed4575050506101008401526101208101516001600160401b03811161050e5782612e96918301613272565b610120840152610140810151906001600160401b03821161050e5792612ec560209360e0936064979601613272565b61014082015292935050612a2c565b82516005811015612eed57815260209283019201612e66565b8a80fd5b8980fd5b60208091612f0284611b40565b815201910190612e01565b8580fd5b90506020813d602011612f43575b81612f2c602093836119c0565b8101031261051257612f3d90611b40565b386129ef565b3d9150612f1f565b3d8084833e612f5a81836119c0565b810190602081830312610512578051906001600160401b0382116111a157016102e08183031261051257604051916102e083018381106001600160401b038211176131b65760405281516006811015612f0d57835260208201516005811015612f0d5760208401526040820151600f811015612f0d5760408401526060820151600f811015612f0d576060840152612ff460808301611b40565b608084015261300560a08301611b40565b60a084015261301660c08301611b40565b60c084015261302760e08301611b40565b60e08401526101008201516101008401526101208201516101208401526101408201516101408401526101608201516101608401526101808201516101808401526101a08201516101a08401526101c08201516101c08401526101e08201516101e08401526102008201516001600160401b038111612f0d57816130ac918401613203565b6102008401526102208201516001600160401b038111612f0d57816130d2918401613203565b6102208401526102408201516001600160401b038111612f0d57820181601f82011215612f0d5780519061310582611ae3565b9261311360405194856119c0565b828452602060608186019402830101918183116131b257602001925b8284106131765750505050906102c0916102408401526102608101516102608401526102808101516102808401526102a08101516102a084015201516102c082015261299d565b6060848303126131b25760206060916040516131918161198a565b8651815282870151838201526040870151604082015281520193019261312f565b8880fd5b634e487b7160e01b86526041600452602486fd5b6040513d85823e3d90fd5b60ff6000805160206133308339815191525460401c16156131f257565b631afcd79f60e31b60005260046000fd5b81601f8201121561186a578051906001600160401b0382116119745760405192613237601f8401601f1916602001856119c0565b8284526020838301011161186a5760005b82811061325d57505060206000918301015290565b80602080928401015182828701015201613248565b9080601f8301121561186a57815161328981611ae3565b9261329760405194856119c0565b81845260208085019260051b82010192831161186a57602001905b8282106132bf5750505090565b81518152602091820191016132b256fe9016d09d72d40fdae2fd8ceac6b6234c7706214fd39c1cd1e609a0528c199300812f5462ae8eb7e647903992840104270d82ba2c8ad5ed0e557aaa163371b54f02dd7bc7dec4dceedda775e58dd541e08a116c6c53815c0bd028192f7b626800f0c57e16840df040f15088dc2f81fe391c3923bec73e23a9662efc9c229c6a00237e158222e3e6968b72b9db0d8043aacf074ad9f650f0d1606b4d82ee432c00a264697066735822122060bd96a0ce5778afa8b2ed444cce266a408feabddbf4f434ea5a75c67292b12664736f6c634300081c0033",
  "linkReferences": {},
  "deployedLinkReferences": {}
}