{
  "_format": "hh-sol-artifact-1",
  "contractName": "MockIdlenessForCreation",
  "sourceName": "contracts/test-helpers/MockIdlenessForCreation.sol",
  "abi": [
    {
      "inputs": [
        {
          "internalType": "bytes32",
          "name": "",
          "type": "bytes32"
        },
        {
          "internalType": "bytes32",
          "name": "",
          "type": "bytes32"
        },
        {
          "internalType": "uint256",
          "name": "",
          "type": "uint256"
        }
      ],
      "name": "getCurrentActivator",
      "outputs": [
        {
          "internalType": "address",
          "name": "",
          "type": "address"
        },
        {
          "internalType": "bool",
          "name": "",
          "type": "bool"
        }
      ],
      "stateMutability": "view",
      "type": "function"
    },
    {
      "inputs": [
        {
          "internalType": "bytes32",
          "name": "txId",
          "type": "bytes32"
        }
      ],
      "name": "getTimestamps",
      "outputs": [
        {
          "components": [
            {
              "internalType": "uint256",
              "name": "created",
              "type": "uint256"
            },
            {
              "internalType": "uint256",
              "name": "pending",
              "type": "uint256"
            },
            {
              "internalType": "uint256",
              "name": "activated",
              "type": "uint256"
            },
            {
              "internalType": "uint256",
              "name": "proposed",
              "type": "uint256"
            },
            {
              "internalType": "uint256",
              "name": "committed",
              "type": "uint256"
            },
            {
              "internalType": "uint256",
              "name": "lastVote",
              "type": "uint256"
            },
            {
              "internalType": "uint256",
              "name": "appealSubmitted",
              "type": "uint256"
            },
            {
              "internalType": "uint256",
              "name": "leaderRevealed",
              "type": "uint256"
            }
          ],
          "internalType": "struct IIdleness.Timestamps",
          "name": "",
          "type": "tuple"
        }
      ],
      "stateMutability": "view",
      "type": "function"
    },
    {
      "inputs": [
        {
          "internalType": "address",
          "name": "activator",
          "type": "address"
        },
        {
          "internalType": "bool",
          "name": "valid",
          "type": "bool"
        }
      ],
      "name": "setMockActivator",
      "outputs": [],
      "stateMutability": "nonpayable",
      "type": "function"
    },
    {
      "inputs": [
        {
          "internalType": "bytes32",
          "name": "txId",
          "type": "bytes32"
        },
        {
          "internalType": "enum IIdleness.TimestampType",
          "name": "timestampType",
          "type": "uint8"
        },
        {
          "internalType": "uint256",
          "name": "timestamp",
          "type": "uint256"
        }
      ],
      "name": "setTimestamp",
      "outputs": [],
      "stateMutability": "nonpayable",
      "type": "function"
    },
    {
      "inputs": [
        {
          "internalType": "bytes32",
          "name": "txId",
          "type": "bytes32"
        },
        {
          "components": [
            {
              "internalType": "uint256",
              "name": "created",
              "type": "uint256"
            },
            {
              "internalType": "uint256",
              "name": "pending",
              "type": "uint256"
            },
            {
              "internalType": "uint256",
              "name": "activated",
              "type": "uint256"
            },
            {
              "internalType": "uint256",
              "name": "proposed",
              "type": "uint256"
            },
            {
              "internalType": "uint256",
              "name": "committed",
              "type": "uint256"
            },
            {
              "internalType": "uint256",
              "name": "lastVote",
              "type": "uint256"
            },
            {
              "internalType": "uint256",
              "name": "appealSubmitted",
              "type": "uint256"
            },
            {
              "internalType": "uint256",
              "name": "leaderRevealed",
              "type": "uint256"
            }
          ],
          "internalType": "struct IIdleness.Timestamps",
          "name": "timestamps",
          "type": "tuple"
        }
      ],
      "name": "setTimestamps",
      "outputs": [],
      "stateMutability": "nonpayable",
      "type": "function"
    }
  ],
  "bytecode": "0x60808060405234601557610405908161001b8239f35b600080fdfe608080604052600436101561001357600080fd5b60003560e01c9081630ab4b1141461036657508063293d9592146102775780634e8eb8bd1461016757806364190f7b1461010d5763c0d643891461005657600080fd5b3461010857610120366003190112610108576101003660231901126101085761007d610398565b602435815260076020820160443581526040830160643581526060840160843581526080850160a435815260a086019160c435835260c087019360e435855260e0880195610104358752600435600052600160205260406000209851895551600189015551600288015551600387015551600486015551600585015551600684015551910155600080f35b600080fd5b34610108576040366003190112610108576004356001600160a01b03811690819003610108576024359081151580920361010857600080546001600160a81b0319169190911760a09290921b60ff60a01b16919091179055005b3461010857606036600319011261010857602435600435600882101561010857604435916000816101a45750506000526001602052604060002055005b50600181036101c157506000526001602052600160406000200155005b6000600282036101e05750506000526001602052600260406000200155005b50600381036101fd57506000526001602052600360406000200155005b60006004820361021c5750506000526001602052600460406000200155005b506005810361023957506000526001602052600560406000200155005b600090600681036102595750506000526001602052600660406000200155005b600791501461026457005b6000526001602052600760406000200155005b3461010857602036600319011261010857600060e0610294610398565b8281528260208201528260408201528260608201528260808201528260a08201528260c08201520152600435600052600160205261010060406000206102d8610398565b8154918282526001810154602083019081526002820154604084019081526003830154606085019081526004840154916080860192835260058501549360a0870194855260e0600760068801549760c08a01988952015497019687526040519788525160208801525160408701525160608601525160808501525160a08401525160c08301525160e0820152f35b34610108576060366003190112610108576000546001600160a01b038116825260a01c60ff1615156020820152604090f35b60405190610100820182811067ffffffffffffffff8211176103b957604052565b634e487b7160e01b600052604160045260246000fdfea2646970667358221220f70cf5e7f14b245181dd1da93b9f2195a5ffb1636e5cf43ca0363dd2e5e172db64736f6c634300081c0033",
  "linkReferences": {},
  "deployedLinkReferences": {}
}