{
  "_format": "hh-sol-artifact-1",
  "contractName": "Voting",
  "sourceName": "contracts/transactions/Voting.sol",
  "abi": [
    {
      "inputs": [
        {
          "internalType": "bytes32",
          "name": "leaderExecutionHash",
          "type": "bytes32"
        },
        {
          "internalType": "enum ITransactions.VoteType[]",
          "name": "validatorVotes",
          "type": "uint8[]"
        },
        {
          "internalType": "bytes32[]",
          "name": "validatorResultHash",
          "type": "bytes32[]"
        }
      ],
      "name": "getMajorityVote",
      "outputs": [
        {
          "internalType": "enum ITransactions.ResultType",
          "name": "result",
          "type": "uint8"
        }
      ],
      "stateMutability": "pure",
      "type": "function"
    },
    {
      "inputs": [
        {
          "internalType": "uint256",
          "name": "numberOfOriginalValidators",
          "type": "uint256"
        },
        {
          "internalType": "uint256[]",
          "name": "voteCounts",
          "type": "uint256[]"
        },
        {
          "internalType": "uint256",
          "name": "numberOfTribunalValidators",
          "type": "uint256"
        }
      ],
      "name": "getMajorityVoteForTribunal",
      "outputs": [
        {
          "internalType": "enum ITribunalAppeal.TribunalResultType",
          "name": "result",
          "type": "uint8"
        }
      ],
      "stateMutability": "pure",
      "type": "function"
    }
  ],
  "bytecode": "0x6080806040523460155761051b908161001b8239f35b600080fdfe6080604052600436101561001257600080fd5b60003560e01c8063b9b04a5a146102ec5763e5cc50b01461003257600080fd5b346102ce5760603660031901126102ce5760243560043567ffffffffffffffff82116102ce57366023830112156102ce57816004013561007961007482610445565b610409565b926024602085848152019260051b820101903682116102ce57602401915b8183106102d3575050506044359167ffffffffffffffff83116102ce57366023840112156102ce578260040135926100d161007485610445565b936024602086838152019160051b830101913683116102ce57602401905b8282106102be5750505060009181519261010960c0610409565b926005845260a0366020860137815b81518110156102325761013361012e82846104b3565b6104c7565b60058110156101ff576001148015610213575b156101ac5780610158600192896104b3565b51850361018a5761017460ff61016d886104a3565b51166104d4565b60ff61017f886104a3565b911690525b01610118565b61019860ff61016d88610493565b60ff6101a388610493565b91169052610184565b6101b961012e82846104b3565b60058110156101ff57600191906003036101e6576101db60ff61016d88610483565b60ff6101a388610483565b6101f460ff61016d8861045d565b60ff6101a38861045d565b634e487b7160e01b84526021600452602484fd5b5061022161012e82846104b3565b60058110156101ff57600214610146565b8583868182835b8351811015610280578260ff61024f83876104b3565b51161161025f575b600101610239565b91505060ff61026e82846104b3565b51169060068110156101ff5780610257565b5090600185901c106102b9575060055b60405160068210156102a3576020918152f35b634e487b7160e01b600052602160045260246000fd5b610290565b81358152602091820191016100ef565b600080fd5b823560058110156102ce57815260209283019201610097565b346102ce5760603660031901126102ce5760243560043567ffffffffffffffff82116102ce57366023830112156102ce5781600401359161032f61007484610445565b926024602085838152019160051b830101913683116102ce57602401905b8282106103f9575050506000916000805b6003811015610397578461037282856104b3565b5111610381575b60010161035e565b80945061038f9150826104b3565b519280610379565b508360443584018085116103e35760011c10156103db5760038110156102a3576001036103d45760025b60405160048210156102a3576020918152f35b60036103c1565b5060016103c1565b634e487b7160e01b600052601160045260246000fd5b813581526020918201910161034d565b6040519190601f01601f1916820167ffffffffffffffff81118382101761042f57604052565b634e487b7160e01b600052604160045260246000fd5b67ffffffffffffffff811161042f5760051b60200190565b80516002101561046d5760600190565b634e487b7160e01b600052603260045260246000fd5b80516003101561046d5760800190565b80516004101561046d5760a00190565b80516001101561046d5760400190565b805182101561046d5760209160051b010190565b5160058110156102a35790565b60ff1660ff81146103e3576001019056fea2646970667358221220cdb6d86b2d106723e31af7a3d9251ae5615b2c5ef589dbdab9e2eb248258760964736f6c634300081c0033",
  "linkReferences": {},
  "deployedLinkReferences": {}
}