{
  "_format": "hh-sol-artifact-1",
  "contractName": "MockConsensusMainForFinalization",
  "sourceName": "contracts/test-helpers/MockConsensusMainForFinalization.sol",
  "abi": [
    {
      "inputs": [],
      "name": "getLastAffectedRecipients",
      "outputs": [
        {
          "internalType": "address[]",
          "name": "",
          "type": "address[]"
        }
      ],
      "stateMutability": "view",
      "type": "function"
    },
    {
      "inputs": [
        {
          "internalType": "uint256",
          "name": "",
          "type": "uint256"
        }
      ],
      "name": "lastAffectedRecipients",
      "outputs": [
        {
          "internalType": "address",
          "name": "",
          "type": "address"
        }
      ],
      "stateMutability": "view",
      "type": "function"
    },
    {
      "inputs": [
        {
          "internalType": "address[]",
          "name": "affectedRecipients",
          "type": "address[]"
        }
      ],
      "name": "promoteNextPendingTransactions",
      "outputs": [],
      "stateMutability": "nonpayable",
      "type": "function"
    },
    {
      "inputs": [],
      "name": "promoteNextPendingTransactionsCalled",
      "outputs": [
        {
          "internalType": "bool",
          "name": "",
          "type": "bool"
        }
      ],
      "stateMutability": "view",
      "type": "function"
    },
    {
      "inputs": [],
      "name": "resetMockState",
      "outputs": [],
      "stateMutability": "nonpayable",
      "type": "function"
    }
  ],
  "bytecode": "0x608080604052346015576103ac908161001b8239f35b600080fdfe6080604052600436101561001257600080fd5b60003560e01c806320090e9d146102ae578063506c33261461028b5780636457bf481461014a57806388e199401461009a5763eeddb25c1461005357600080fd5b34610095576020366003190112610095576004356001548110156100955761007c6020916102f3565b905460405160039290921b1c6001600160a01b03168152f35b600080fd5b346100955760003660031901126100955760405180602060015492838152018092600160005260206000209060005b81811061012b57505050816100df9103826102d1565b6040519182916020830190602084525180915260408301919060005b818110610109575050500390f35b82516001600160a01b03168452859450602093840193909201916001016100fb565b82546001600160a01b03168452602090930192600192830192016100c9565b346100955760203660031901126100955760043567ffffffffffffffff811161009557366023820112156100955780600401359067ffffffffffffffff8211610275578160051b90604051926101a360208401856102d1565b8352602460208401928201019036821161009557602401915b8183106102555783600160ff1960005416176000556101d9610324565b6000905b805182101561025357600582901b81016020015160015492906001600160a01b03166000600160401b85101561023f575061021f8460018095960185556102f3565b819291549060031b91821b91858060a01b03901b191617905501906101dd565b634e487b7160e01b81526041600452602490fd5b005b82356001600160a01b0381168103610095578152602092830192016101bc565b634e487b7160e01b600052604160045260246000fd5b3461009557600036600319011261009557602060ff600054166040519015158152f35b346100955760003660031901126100955760ff1960005416600055610253610324565b90601f8019910116810190811067ffffffffffffffff82111761027557604052565b60015481101561030e57600160005260206000200190600090565b634e487b7160e01b600052603260045260246000fd5b6001546000600155806103345750565b60016000527fb10e2d527612073b26eecdfd717e6a320cf44b4afac2b0732d9fcbe2b7fa0cf6908101905b81811061036a575050565b6000815560010161035f56fea26469706673582212202eeee01a185f88796f5202417bc15bb83a7543d3030079bc21c8729c000f3bac64736f6c634300081c0033",
  "linkReferences": {},
  "deployedLinkReferences": {}
}