{
  "_format": "hh-sol-artifact-1",
  "contractName": "ValidatorWallet",
  "sourceName": "contracts/ValidatorWallet.sol",
  "abi": [
    {
      "inputs": [
        {
          "internalType": "address",
          "name": "_owner",
          "type": "address"
        },
        {
          "internalType": "address",
          "name": "_staking",
          "type": "address"
        },
        {
          "internalType": "address",
          "name": "_consensus",
          "type": "address"
        }
      ],
      "stateMutability": "nonpayable",
      "type": "constructor"
    },
    {
      "inputs": [],
      "name": "AccessControlBadConfirmation",
      "type": "error"
    },
    {
      "inputs": [
        {
          "internalType": "address",
          "name": "account",
          "type": "address"
        },
        {
          "internalType": "bytes32",
          "name": "neededRole",
          "type": "bytes32"
        }
      ],
      "name": "AccessControlUnauthorizedAccount",
      "type": "error"
    },
    {
      "inputs": [],
      "name": "InvalidInitialization",
      "type": "error"
    },
    {
      "inputs": [],
      "name": "NotInitializing",
      "type": "error"
    },
    {
      "inputs": [],
      "name": "NotOperator",
      "type": "error"
    },
    {
      "inputs": [
        {
          "internalType": "address",
          "name": "owner",
          "type": "address"
        }
      ],
      "name": "OwnableInvalidOwner",
      "type": "error"
    },
    {
      "inputs": [
        {
          "internalType": "address",
          "name": "account",
          "type": "address"
        }
      ],
      "name": "OwnableUnauthorizedAccount",
      "type": "error"
    },
    {
      "inputs": [],
      "name": "ReentrancyGuardReentrantCall",
      "type": "error"
    },
    {
      "anonymous": false,
      "inputs": [
        {
          "indexed": false,
          "internalType": "uint64",
          "name": "version",
          "type": "uint64"
        }
      ],
      "name": "Initialized",
      "type": "event"
    },
    {
      "anonymous": false,
      "inputs": [
        {
          "indexed": true,
          "internalType": "address",
          "name": "previousOwner",
          "type": "address"
        },
        {
          "indexed": true,
          "internalType": "address",
          "name": "newOwner",
          "type": "address"
        }
      ],
      "name": "OwnershipTransferStarted",
      "type": "event"
    },
    {
      "anonymous": false,
      "inputs": [
        {
          "indexed": true,
          "internalType": "address",
          "name": "previousOwner",
          "type": "address"
        },
        {
          "indexed": true,
          "internalType": "address",
          "name": "newOwner",
          "type": "address"
        }
      ],
      "name": "OwnershipTransferred",
      "type": "event"
    },
    {
      "anonymous": false,
      "inputs": [
        {
          "indexed": true,
          "internalType": "bytes32",
          "name": "role",
          "type": "bytes32"
        },
        {
          "indexed": true,
          "internalType": "bytes32",
          "name": "previousAdminRole",
          "type": "bytes32"
        },
        {
          "indexed": true,
          "internalType": "bytes32",
          "name": "newAdminRole",
          "type": "bytes32"
        }
      ],
      "name": "RoleAdminChanged",
      "type": "event"
    },
    {
      "anonymous": false,
      "inputs": [
        {
          "indexed": true,
          "internalType": "bytes32",
          "name": "role",
          "type": "bytes32"
        },
        {
          "indexed": true,
          "internalType": "address",
          "name": "account",
          "type": "address"
        },
        {
          "indexed": true,
          "internalType": "address",
          "name": "sender",
          "type": "address"
        }
      ],
      "name": "RoleGranted",
      "type": "event"
    },
    {
      "anonymous": false,
      "inputs": [
        {
          "indexed": true,
          "internalType": "bytes32",
          "name": "role",
          "type": "bytes32"
        },
        {
          "indexed": true,
          "internalType": "address",
          "name": "account",
          "type": "address"
        },
        {
          "indexed": true,
          "internalType": "address",
          "name": "sender",
          "type": "address"
        }
      ],
      "name": "RoleRevoked",
      "type": "event"
    },
    {
      "anonymous": false,
      "inputs": [
        {
          "indexed": true,
          "internalType": "address",
          "name": "validator",
          "type": "address"
        }
      ],
      "name": "ValidatorIdentitySet",
      "type": "event"
    },
    {
      "stateMutability": "payable",
      "type": "fallback"
    },
    {
      "inputs": [],
      "name": "DEFAULT_ADMIN_ROLE",
      "outputs": [
        {
          "internalType": "bytes32",
          "name": "",
          "type": "bytes32"
        }
      ],
      "stateMutability": "view",
      "type": "function"
    },
    {
      "inputs": [],
      "name": "acceptOwnership",
      "outputs": [],
      "stateMutability": "nonpayable",
      "type": "function"
    },
    {
      "inputs": [
        {
          "internalType": "bytes32",
          "name": "_txId",
          "type": "bytes32"
        },
        {
          "internalType": "bytes",
          "name": "_vrfProof",
          "type": "bytes"
        }
      ],
      "name": "activateTransaction",
      "outputs": [],
      "stateMutability": "nonpayable",
      "type": "function"
    },
    {
      "inputs": [
        {
          "internalType": "bytes32",
          "name": "_txId",
          "type": "bytes32"
        },
        {
          "internalType": "uint256",
          "name": "_tribunalIndex",
          "type": "uint256"
        },
        {
          "internalType": "bytes32",
          "name": "_commitHash",
          "type": "bytes32"
        }
      ],
      "name": "commitTribunalAppealVote",
      "outputs": [],
      "stateMutability": "nonpayable",
      "type": "function"
    },
    {
      "inputs": [
        {
          "internalType": "bytes32",
          "name": "_txId",
          "type": "bytes32"
        },
        {
          "internalType": "bytes32",
          "name": "_commitHash",
          "type": "bytes32"
        },
        {
          "internalType": "uint256",
          "name": "_validatorIndex",
          "type": "uint256"
        }
      ],
      "name": "commitVote",
      "outputs": [],
      "stateMutability": "nonpayable",
      "type": "function"
    },
    {
      "inputs": [],
      "name": "consensus",
      "outputs": [
        {
          "internalType": "contract IConsensusMain",
          "name": "",
          "type": "address"
        }
      ],
      "stateMutability": "view",
      "type": "function"
    },
    {
      "inputs": [],
      "name": "getIdentity",
      "outputs": [
        {
          "components": [
            {
              "internalType": "string",
              "name": "moniker",
              "type": "string"
            },
            {
              "internalType": "string",
              "name": "logoUri",
              "type": "string"
            },
            {
              "internalType": "string",
              "name": "website",
              "type": "string"
            },
            {
              "internalType": "string",
              "name": "description",
              "type": "string"
            },
            {
              "internalType": "string",
              "name": "email",
              "type": "string"
            },
            {
              "internalType": "string",
              "name": "twitter",
              "type": "string"
            },
            {
              "internalType": "string",
              "name": "telegram",
              "type": "string"
            },
            {
              "internalType": "string",
              "name": "github",
              "type": "string"
            },
            {
              "internalType": "bytes",
              "name": "extraCid",
              "type": "bytes"
            }
          ],
          "internalType": "struct ValidatorIdentity",
          "name": "",
          "type": "tuple"
        }
      ],
      "stateMutability": "view",
      "type": "function"
    },
    {
      "inputs": [],
      "name": "getOperator",
      "outputs": [
        {
          "internalType": "address",
          "name": "",
          "type": "address"
        }
      ],
      "stateMutability": "view",
      "type": "function"
    },
    {
      "inputs": [
        {
          "internalType": "bytes32",
          "name": "role",
          "type": "bytes32"
        }
      ],
      "name": "getRoleAdmin",
      "outputs": [
        {
          "internalType": "bytes32",
          "name": "",
          "type": "bytes32"
        }
      ],
      "stateMutability": "view",
      "type": "function"
    },
    {
      "inputs": [
        {
          "internalType": "bytes32",
          "name": "role",
          "type": "bytes32"
        },
        {
          "internalType": "address",
          "name": "account",
          "type": "address"
        }
      ],
      "name": "grantRole",
      "outputs": [],
      "stateMutability": "nonpayable",
      "type": "function"
    },
    {
      "inputs": [
        {
          "internalType": "bytes32",
          "name": "role",
          "type": "bytes32"
        },
        {
          "internalType": "address",
          "name": "account",
          "type": "address"
        }
      ],
      "name": "hasRole",
      "outputs": [
        {
          "internalType": "bool",
          "name": "",
          "type": "bool"
        }
      ],
      "stateMutability": "view",
      "type": "function"
    },
    {
      "inputs": [],
      "name": "identity",
      "outputs": [
        {
          "internalType": "string",
          "name": "moniker",
          "type": "string"
        },
        {
          "internalType": "string",
          "name": "logoUri",
          "type": "string"
        },
        {
          "internalType": "string",
          "name": "website",
          "type": "string"
        },
        {
          "internalType": "string",
          "name": "description",
          "type": "string"
        },
        {
          "internalType": "string",
          "name": "email",
          "type": "string"
        },
        {
          "internalType": "string",
          "name": "twitter",
          "type": "string"
        },
        {
          "internalType": "string",
          "name": "telegram",
          "type": "string"
        },
        {
          "internalType": "string",
          "name": "github",
          "type": "string"
        },
        {
          "internalType": "bytes",
          "name": "extraCid",
          "type": "bytes"
        }
      ],
      "stateMutability": "view",
      "type": "function"
    },
    {
      "inputs": [
        {
          "components": [
            {
              "internalType": "bytes32",
              "name": "txId",
              "type": "bytes32"
            },
            {
              "internalType": "uint256",
              "name": "saltAsAValidator",
              "type": "uint256"
            },
            {
              "internalType": "bytes32",
              "name": "txExecutionHash",
              "type": "bytes32"
            },
            {
              "internalType": "bytes32",
              "name": "messagesAndOtherFieldsHash",
              "type": "bytes32"
            },
            {
              "internalType": "bytes32",
              "name": "otherExecutionFieldsHash",
              "type": "bytes32"
            },
            {
              "internalType": "enum ITransactions.VoteType",
              "name": "resultValue",
              "type": "uint8"
            },
            {
              "components": [
                {
                  "internalType": "enum IMessages.MessageType",
                  "name": "messageType",
                  "type": "uint8"
                },
                {
                  "internalType": "address",
                  "name": "recipient",
                  "type": "address"
                },
                {
                  "internalType": "uint256",
                  "name": "value",
                  "type": "uint256"
                },
                {
                  "internalType": "bytes",
                  "name": "data",
                  "type": "bytes"
                },
                {
                  "internalType": "bool",
                  "name": "onAcceptance",
                  "type": "bool"
                },
                {
                  "internalType": "uint256",
                  "name": "saltNonce",
                  "type": "uint256"
                }
              ],
              "internalType": "struct IMessages.SubmittedMessage[]",
              "name": "messages",
              "type": "tuple[]"
            }
          ],
          "internalType": "struct IConsensusMain.LeaderRevealVoteParams",
          "name": "_leaderRevealVoteParams",
          "type": "tuple"
        }
      ],
      "name": "leaderRevealVote",
      "outputs": [],
      "stateMutability": "nonpayable",
      "type": "function"
    },
    {
      "inputs": [],
      "name": "operator",
      "outputs": [
        {
          "internalType": "address",
          "name": "",
          "type": "address"
        }
      ],
      "stateMutability": "view",
      "type": "function"
    },
    {
      "inputs": [],
      "name": "owner",
      "outputs": [
        {
          "internalType": "address",
          "name": "",
          "type": "address"
        }
      ],
      "stateMutability": "view",
      "type": "function"
    },
    {
      "inputs": [],
      "name": "pendingOwner",
      "outputs": [
        {
          "internalType": "address",
          "name": "",
          "type": "address"
        }
      ],
      "stateMutability": "view",
      "type": "function"
    },
    {
      "inputs": [
        {
          "internalType": "bytes32",
          "name": "_txId",
          "type": "bytes32"
        },
        {
          "internalType": "bytes32",
          "name": "_txExecutionHash",
          "type": "bytes32"
        },
        {
          "internalType": "uint256",
          "name": "_processingBlock",
          "type": "uint256"
        },
        {
          "internalType": "bytes",
          "name": "_eqBlocksOutputs",
          "type": "bytes"
        },
        {
          "internalType": "bytes",
          "name": "_vrfProof",
          "type": "bytes"
        }
      ],
      "name": "proposeReceipt",
      "outputs": [],
      "stateMutability": "nonpayable",
      "type": "function"
    },
    {
      "inputs": [],
      "name": "renounceOwnership",
      "outputs": [],
      "stateMutability": "nonpayable",
      "type": "function"
    },
    {
      "inputs": [
        {
          "internalType": "bytes32",
          "name": "role",
          "type": "bytes32"
        },
        {
          "internalType": "address",
          "name": "callerConfirmation",
          "type": "address"
        }
      ],
      "name": "renounceRole",
      "outputs": [],
      "stateMutability": "nonpayable",
      "type": "function"
    },
    {
      "inputs": [
        {
          "internalType": "bytes32",
          "name": "_txId",
          "type": "bytes32"
        },
        {
          "internalType": "uint256",
          "name": "_tribunalIndex",
          "type": "uint256"
        },
        {
          "internalType": "bytes32",
          "name": "_voteHash",
          "type": "bytes32"
        },
        {
          "internalType": "enum ITransactions.VoteType",
          "name": "_voteType",
          "type": "uint8"
        },
        {
          "internalType": "bytes32",
          "name": "_otherExecutionFieldsHash",
          "type": "bytes32"
        },
        {
          "internalType": "uint256",
          "name": "_nonce",
          "type": "uint256"
        }
      ],
      "name": "revealTribunalAppealVote",
      "outputs": [],
      "stateMutability": "nonpayable",
      "type": "function"
    },
    {
      "inputs": [
        {
          "internalType": "bytes32",
          "name": "_txId",
          "type": "bytes32"
        },
        {
          "internalType": "bytes32",
          "name": "_voteHash",
          "type": "bytes32"
        },
        {
          "internalType": "enum ITransactions.VoteType",
          "name": "_voteType",
          "type": "uint8"
        },
        {
          "internalType": "bytes32",
          "name": "_otherExecutionFieldsHash",
          "type": "bytes32"
        },
        {
          "internalType": "uint256",
          "name": "_nonce",
          "type": "uint256"
        },
        {
          "internalType": "uint256",
          "name": "_validatorIndex",
          "type": "uint256"
        }
      ],
      "name": "revealVote",
      "outputs": [],
      "stateMutability": "nonpayable",
      "type": "function"
    },
    {
      "inputs": [
        {
          "internalType": "bytes32",
          "name": "role",
          "type": "bytes32"
        },
        {
          "internalType": "address",
          "name": "account",
          "type": "address"
        }
      ],
      "name": "revokeRole",
      "outputs": [],
      "stateMutability": "nonpayable",
      "type": "function"
    },
    {
      "inputs": [
        {
          "internalType": "string",
          "name": "moniker",
          "type": "string"
        },
        {
          "internalType": "string",
          "name": "logoUri",
          "type": "string"
        },
        {
          "internalType": "string",
          "name": "website",
          "type": "string"
        },
        {
          "internalType": "string",
          "name": "description",
          "type": "string"
        },
        {
          "internalType": "string",
          "name": "email",
          "type": "string"
        },
        {
          "internalType": "string",
          "name": "twitter",
          "type": "string"
        },
        {
          "internalType": "string",
          "name": "telegram",
          "type": "string"
        },
        {
          "internalType": "string",
          "name": "github",
          "type": "string"
        },
        {
          "internalType": "bytes",
          "name": "extraCid",
          "type": "bytes"
        }
      ],
      "name": "setIdentity",
      "outputs": [],
      "stateMutability": "nonpayable",
      "type": "function"
    },
    {
      "inputs": [
        {
          "internalType": "address",
          "name": "_operator",
          "type": "address"
        }
      ],
      "name": "setOperator",
      "outputs": [],
      "stateMutability": "nonpayable",
      "type": "function"
    },
    {
      "inputs": [],
      "name": "staking",
      "outputs": [
        {
          "internalType": "contract IGenLayerStaking",
          "name": "",
          "type": "address"
        }
      ],
      "stateMutability": "view",
      "type": "function"
    },
    {
      "inputs": [
        {
          "internalType": "bytes4",
          "name": "interfaceId",
          "type": "bytes4"
        }
      ],
      "name": "supportsInterface",
      "outputs": [
        {
          "internalType": "bool",
          "name": "",
          "type": "bool"
        }
      ],
      "stateMutability": "view",
      "type": "function"
    },
    {
      "inputs": [
        {
          "internalType": "address",
          "name": "newOwner",
          "type": "address"
        }
      ],
      "name": "transferOwnership",
      "outputs": [],
      "stateMutability": "nonpayable",
      "type": "function"
    },
    {
      "inputs": [],
      "name": "validatorClaim",
      "outputs": [],
      "stateMutability": "nonpayable",
      "type": "function"
    },
    {
      "inputs": [],
      "name": "validatorDeposit",
      "outputs": [],
      "stateMutability": "payable",
      "type": "function"
    },
    {
      "inputs": [
        {
          "internalType": "uint256",
          "name": "_shares",
          "type": "uint256"
        }
      ],
      "name": "validatorExit",
      "outputs": [],
      "stateMutability": "nonpayable",
      "type": "function"
    },
    {
      "stateMutability": "payable",
      "type": "receive"
    }
  ],
  "bytecode": "0x6080346102a157601f612b8f38819003918201601f19168301916001600160401b038311848410176102a6578084926060946040528339810103126102a157610047816102bc565b61005f6040610058602085016102bc565b93016102bc565b600080516020612b6f83398151915254604081901c60ff161592906001600160401b03811680159081610299575b600114908161028f575b159081610286575b50610275576001600160401b03198116600117600080516020612b6f833981519152558361024a575b506100d16102d0565b6100d96102d0565b6100e16102d0565b6100e96102d0565b6001600160a01b0316928315610234577f237e158222e3e6968b72b9db0d8043aacf074ad9f650f0d1606b4d82ee432c0080546001600160a01b03199081169091557f9016d09d72d40fdae2fd8ceac6b6234c7706214fd39c1cd1e609a0528c199300805491821686179055604051949081906001600160a01b03167f8be0079c531659141344cd1fd0a4f28419497f9722a3daafe3b4186f6b6457e0600080a3600080546001600160a01b03199081169290921790556002805482166001600160a01b0393841617905560018054909116929091169190911790556101d9575b60405161287090816102ff8239f35b60207fc7f505b2f371ae2175ee4913f4499e1f2633a7b5936321eed1cdaeb6115181d29168ff000000000000000019600080516020612b6f8339815191525416600080516020612b6f8339815191525560018152a1386101ca565b631e4fbdf760e01b600052600060045260246000fd5b6001600160481b0319166801000000000000000117600080516020612b6f83398151915255386100c8565b63f92ee8a960e01b60005260046000fd5b9050153861009f565b303b159150610097565b85915061008d565b600080fd5b634e487b7160e01b600052604160045260246000fd5b51906001600160a01b03821682036102a157565b60ff600080516020612b6f8339815191525460401c16156102ed57565b631afcd79f60e31b60005260046000fdfe61012080604052600436101561001157005b600060c05260c0513560e01c90816301ffc9a714611f815750806303d1491714611c375780630a6c701b14611b5b578063248a9ca314611b355780632c159a1a1461190c5780632f2ff15d146118db57806336568abe1461189357806336afc6fa1461159e5780633bd15f70146114fa5780634cf088d9146114d05780634e7096281461090c578063570ca735146101fe578063715018a614610885578063759f24f4146108255780637707d8381461074057806379ba50971461068357806385d2d274146106085780638da5cb5b146105d15780638ef3f761146105a757806391d148541461054b5780639e02760414610501578063a217fddf146104e3578063aab85d641461043b578063b3ab15fb146103f6578063cbc2440a14610352578063d4f6aa931461029d578063d547741f14610260578063e30c397814610229578063e7f43c68146101fe5763f2fde38b1461016a57005b346101f85760203660031901126101f857610183612042565b61018b6127a4565b60008051602061281b83398151915280546001600160a01b0319166001600160a01b039283169081179091556000805160206127db8339815191525460c051919216907f38d16b8cac22d99fc7c124b9cd0de2d3fa1faef420bfe791d8c362d765e227009080a360c05180f35b60c05180fd5b346101f85760c0513660031901126101f85760c051546040516001600160a01b039091168152602090f35b346101f85760c0513660031901126101f85760008051602061281b833981519152546040516001600160a01b039091168152602090f35b346101f85760403660031901126101f85761029660043561027f612027565b9061029161028c826125d9565b612611565b612704565b5060c05180f35b346101f85760603660031901126101f85760c051546001600160a01b0316330361033f576001546001600160a01b0316803b156101f8576040519063d4f6aa9360e01b82526004356004830152602435602483015260443560448301528160648160c0519360c051905af1801561033257610319575b60c05180f35b60c05161032591612006565b60c0516101f85780610313565b6040513d60c051823e3d90fd5b631f0853c160e21b60c05152600460c051fd5b346101f85760c03660031901126101f85760643560058110156101f85760c051546001600160a01b0316330361033f576001546001600160a01b0316803b156101f8576103c8604051926365e1220560e11b84526004356004850152602435602485015260443560448501526064840190612595565b608435608483015260a43560a48301528160c48160c0519360c051905af18015610332576103195760c05180f35b346101f85760203660031901126101f85761040f612042565b6104176127a4565b60c05180546001600160a01b0319166001600160a01b039290921691909117815580f35b346101f85760403660031901126101f8576024356001600160401b0381116101f85761046b9036906004016120aa565b60c051546001600160a01b0316330361033f576001546001600160a01b031691823b156101f8576104cb926040518080958194632958334360e21b835260043560048401523360248401526060604484015260c0519660648401916125b8565b039160c051905af18015610332576103195760c05180f35b346101f85760c0513660031901126101f857602060405160c0518152f35b60c0513660031901126101f8576002546001600160a01b0316803b156101f857604051906327809d8160e21b82528160048160c0519334905af18015610332576103195760c05180f35b346101f85760403660031901126101f857610564612027565b60043560c051526000805160206127fb833981519152602052604060c051209060018060a01b0316600052602052602060ff604060002054166040519015158152f35b346101f85760c0513660031901126101f8576001546040516001600160a01b039091168152602090f35b346101f85760c0513660031901126101f8576000805160206127db833981519152546040516001600160a01b039091168152602090f35b346101f85760603660031901126101f85760c051546001600160a01b0316330361033f576001546001600160a01b0316803b156101f85760405190632174b49d60e21b82526004356004830152602435602483015260443560448301528160648160c0519360c051905af18015610332576103195760c05180f35b346101f85760c0513660031901126101f85760008051602061281b83398151915254336001600160a01b03909116036107295760008051602061281b83398151915280546001600160a01b03199081169091556000805160206127db833981519152805433928116831790915560c0516001600160a01b03909116907f8be0079c531659141344cd1fd0a4f28419497f9722a3daafe3b4186f6b6457e09080a360c05180f35b63118cdaa760e01b60c0515233600452602460c051fd5b346101f85760c0513660031901126101f8576002546040516331b9e11160e01b815230600482015260c0519091602091839160249183916001600160a01b03165af19081156103325760c051916107f3575b5060c0516000805160206127db8339815191525490918291829182916001600160a01b03165af13d156107ee573d6107c981612058565b906107d76040519283612006565b815260c0513d916020013e5b156101f85760c05180f35b6107e3565b90506020813d60201161081d575b8161080e60209383612006565b810103126101f8575181610792565b3d9150610801565b346101f85760203660031901126101f85761083e6127a4565b6002546001600160a01b0316803b156101f85760405190631d67c93d60e21b825260043560048301528160248160c0519360c051905af18015610332576103195760c05180f35b346101f85760c0513660031901126101f85761089f6127a4565b60008051602061281b83398151915280546001600160a01b03199081169091556000805160206127db8339815191528054918216905560c051906001600160a01b03167f8be0079c531659141344cd1fd0a4f28419497f9722a3daafe3b4186f6b6457e08280a360c05180f35b346101f8576101203660031901126101f8576004356001600160401b0381116101f85761093d9036906004016120aa565b9060e0526024356001600160401b0381116101f8576109609036906004016120aa565b610100526044356001600160401b0381116101f8576109839036906004016120aa565b90926064356001600160401b0381116101f8576109a49036906004016120aa565b6084356001600160401b0381116101f8576109c39036906004016120aa565b91909360a4356001600160401b0381116101f8576109e59036906004016120aa565b949060c4356001600160401b0381116101f857610a069036906004016120aa565b97909260e4356001600160401b0381116101f857610a289036906004016120aa565b6080529b610104356001600160401b0381116101f857610a4c9036906004016120aa565b60c05154909d9197906001600160a01b0316330361033f5760405160a05260a051610a7690611fd4565b3660e05191610a8492612073565b60a051523661010051610a9692612073565b9a60a0516020019b8c523690610aab92612073565b9560a0516040019687523690610ac092612073565b9560a0516060019687523690610ad592612073565b9560a0516080019687523690610aea92612073565b9560a05160a0019687523690610aff92612073565b9760a05160c00198895236608051610b1692612073565b9660a05160e0019788523690610b2b92612073565b9460a0516101000195865260a051518051906001600160401b038211610f6057610b566003546120d7565b601f811161149b575b506020906001601f84111461142f57918091610b939360c05192611424575b50508160011b916000199060031b1c19161790565b6003555b518051906001600160401b038211610f6057610bb46004546120d7565b601f81116113ef575b506020906001601f84111461138357918091610bf09360c051926113785750508160011b916000199060031b1c19161790565b6004555b518051906001600160401b038211610f6057610c116005546120d7565b601f8111611343575b506020906001601f8411146112d757918091610c4d9360c051926112cc5750508160011b916000199060031b1c19161790565b6005555b518051906001600160401b038211610f6057610c6e6006546120d7565b601f8111611297575b506020906001601f84111461122b57918091610caa9360c051926112205750508160011b916000199060031b1c19161790565b6006555b518051906001600160401b038211610f6057610ccb6007546120d7565b601f81116111eb575b506020906001601f84111461117f57918091610d079360c051926111745750508160011b916000199060031b1c19161790565b6007555b519283516001600160401b038111610f6057610d286008546120d7565b601f811161113f575b506020946001601f8311146110d557610d6692939495829160c051926110ca5750508160011b916000199060031b1c19161790565b6008555b519182516001600160401b038111610f6057610d876009546120d7565b601f8111611095575b5060206001601f83111461102b578190610dc393949560c051926110205750508160011b916000199060031b1c19161790565b6009555b519081516001600160401b038111610f6057610de4600a546120d7565b601f8111610feb575b506020926001601f831114610f8357610e209293829160c05192610f785750508160011b916000199060031b1c19161790565b600a555b5180516001600160401b038111610f6057610e40600b546120d7565b601f8111610f20575b506020916001601f831114610eb957610e7b92829160c05192610eae5750508160011b916000199060031b1c19161790565b600b555b307fb01ce3352db8250e910be1c254a1a9fc249b00caf0a25b5b72ca70592023867e60c05160c051a260c05180f35b015190508380610b7e565b601f19821692600b60c051528060c051209160c0515b858110610f0857508360019510610eef575b505050811b01600b55610e7f565b015160001960f88460031b161c19169055828080610ee1565b91926020600181928685015181550194019201610ecf565b610f5090600b60c05152602060c05120601f840160051c81019160208510610f56575b601f0160051c01906125fa565b82610e49565b9091508190610f43565b634e487b7160e01b60c051526041600452602460c051fd5b015190508480610b7e565b601f19821693600a60c051528060c051209160c0515b868110610fd35750836001959610610fba575b505050811b01600a55610e24565b015160001960f88460031b161c19169055838080610fac565b91926020600181928685015181550194019201610f99565b61101a90600a60c05152602060c05120601f840160051c81019160208510610f5657601f0160051c01906125fa565b83610ded565b015190508580610b7e565b601f19821690600960c051528060c051209160c0515b81811061107d57509583600195969710611064575b505050811b01600955610dc7565b015160001960f88460031b161c19169055848080611056565b9192602060018192868b015181550194019201611041565b6110c490600960c05152602060c05120601f840160051c81019160208510610f5657601f0160051c01906125fa565b84610d90565b015190508680610b7e565b601f19821695600860c051528060c051209160c0515b8881106111275750836001959697981061110e575b505050811b01600855610d6a565b015160001960f88460031b161c19169055858080611100565b919260206001819286850151815501940192016110eb565b61116e90600860c05152602060c05120601f840160051c81019160208510610f5657601f0160051c01906125fa565b85610d31565b015190508780610b7e565b90601f19831691600760c051528160c051209260c0515b8181106111d357509084600195949392106111ba575b505050811b01600755610d0b565b015160001960f88460031b161c191690558680806111ac565b92936020600181928786015181550195019301611196565b61121a90600760c05152602060c05120601f850160051c81019160208610610f5657601f0160051c01906125fa565b86610cd4565b015190508880610b7e565b90601f19831691600660c051528160c051209260c0515b81811061127f5750908460019594939210611266575b505050811b01600655610cae565b015160001960f88460031b161c19169055878080611258565b92936020600181928786015181550195019301611242565b6112c690600660c05152602060c05120601f850160051c81019160208610610f5657601f0160051c01906125fa565b87610c77565b015190508980610b7e565b90601f19831691600560c051528160c051209260c0515b81811061132b5750908460019594939210611312575b505050811b01600555610c51565b015160001960f88460031b161c19169055888080611304565b929360206001819287860151815501950193016112ee565b61137290600560c05152602060c05120601f850160051c81019160208610610f5657601f0160051c01906125fa565b88610c1a565b015190508a80610b7e565b90601f19831691600460c051528160c051209260c0515b8181106113d757509084600195949392106113be575b505050811b01600455610bf4565b015160001960f88460031b161c191690558980806113b0565b9293602060018192878601518155019501930161139a565b61141e90600460c05152602060c05120601f850160051c81019160208610610f5657601f0160051c01906125fa565b89610bbd565b015190508b80610b7e565b90601f19831691600360c051528160c051209260c0515b818110611483575090846001959493921061146a575b505050811b01600355610b97565b015160001960f88460031b161c191690558a808061145c565b92936020600181928786015181550195019301611446565b6114ca90600360c05152602060c05120601f850160051c81019160208610610f5657601f0160051c01906125fa565b8a610b5f565b346101f85760c0513660031901126101f8576002546040516001600160a01b039091168152602090f35b346101f85760c03660031901126101f85760443560058110156101f85760c051546001600160a01b0316330361033f576001546001600160a01b0316803b156101f857611568604051926303bd15f760e41b8452600435600485015260243560248501526044840190612595565b6064356064830152608435608483015260a43560a48301528160c48160c0519360c051905af18015610332576103195760c05180f35b346101f85760c0513660031901126101f85760606101006040516115c181611fd4565b82815282602082015282604082015282808201528260808201528260a08201528260c08201528260e082015201526040516115fb81611fd4565b611603612111565b815261160d6121ca565b906020810191825261161d612261565b6040820190815261162c6122f8565b6060830190815261163b61238f565b6080840190815261164a612426565b60a0850190815260c0516040516009549093918490611668836120d7565b8083529260018116908115611874575060011461182c575b61168c92500384612006565b60c0860192835260c05150604051938460c051600a546116ab816120d7565b808452906001811690811561181057506001146117cf575b50036116cf9086612006565b60e087019485526116de6124bd565b95610100880196875260405198899860208a525160208a0161012090526101408a0161170991612554565b9051898203601f190160408b01526117219190612554565b9051888203601f190160608a01526117399190612554565b9051878203601f190160808901526117519190612554565b9051868203601f190160a08801526117699190612554565b9051858203601f190160c08701526117819190612554565b9051848203601f190160e08601526117999190612554565b9051838203601f19016101008501526117b29190612554565b9051828203601f19016101208401526117cb9190612554565b0390f35b60c08051600a905251602081209092505b8183106117f457505081016020018a6116c3565b6020919350806001915483858c010152019101909187926117e0565b90506020925060ff191682840152151560051b8201018a6116c3565b5090600960c05152602060c051209060c051915b81831061185857505090602061168c92820101611680565b6020919350806001915483858a01015201910190918592611840565b6020925061168c94915060ff191682840152151560051b820101611680565b346101f85760403660031901126101f8576118ac612027565b336001600160a01b038216036118c85761029690600435612704565b63334bd91960e11b60c05152600460c051fd5b346101f85760403660031901126101f8576102966004356118fa612027565b9061190761028c826125d9565b61265b565b346101f85760c0513660031901126101f857611926612111565b61192e6121ca565b90611937612261565b61193f6122f8565b61194761238f565b61194f612426565b60c0516040516009549093918490611966836120d7565b8083529260018116908115611b165750600114611ace575b61198a92500384612006565b60c05150604051938460c051600a546119a2816120d7565b8084529060018116908115611ab25750600114611a71575b50036119c69086612006565b6119ce6124bd565b956040519889986101208a526101208a016119e891612554565b89810360208b01526119f991612554565b88810360408a0152611a0a91612554565b8781036060890152611a1b91612554565b8681036080880152611a2c91612554565b85810360a0870152611a3d91612554565b84810360c0860152611a4e91612554565b83810360e0850152611a5f91612554565b8281036101008401526117cb91612554565b60c08051600a905251602081209092505b818310611a9657505081016020018a6119ba565b6020919350806001915483858c01015201910190918792611a82565b90506020925060ff191682840152151560051b8201018a6119ba565b5090600960c05152602060c051209060c051915b818310611afa57505090602061198a9282010161197e565b6020919350806001915483858a01015201910190918592611ae2565b6020925061198a94915060ff191682840152151560051b82010161197e565b346101f85760203660031901126101f8576020611b536004356125d9565b604051908152f35b346101f85760a03660031901126101f8576064356001600160401b0381116101f857611b8b9036906004016120aa565b906084356001600160401b0381116101f857611bab9036906004016120aa565b60c0515490939192906001600160a01b0316330361033f576001546001600160a01b031690813b156101f857611c21926104cb60405196879586948594632af7cb7f60e01b865260043560048701526024356024870152604435604487015233606487015260c0608487015260c48601916125b8565b906003198483030160a485015260c051976125b8565b346101f85760203660031901126101f8576004356001600160401b0381116101f85760e060031982360301126101f85760405160e081018181106001600160401b03821117610f60576040528160040135815260208101906024830135825260408101926044810135845260608201936064820135855260808301916084810135835260a48101359060058210156101f85760a0850191825260c4810135906001600160401b0382116101f8570192366023850112156101f8576004840135936001600160401b038511610f60578460051b9060405195611d1b6020840188612006565b865260208601918101602401903682116101f85760248101925b828410611ea4575050505060c085810194855251546001600160a01b0316330361033f576001546001600160a01b031696873b156101f857611db593604051976303d1491760e01b8952602060048a01526101048901975160248a01525160448901525160648801525160848701525160a48601525160c4850190612595565b519060e060e48401528151809152610124830160206101248360051b86010193019160c0515b818110611e125760c05186908180880381838c5af1801561033257611e005760c05180f35b60c051611e0c91612006565b80610313565b909192936101231986820301845284519081516002811015611e8c576001928260209392849352848060a01b038383015116838201526040820151604082015260a080611e6e606085015160c0606086015260c0850190612554565b60808086015115159085015293015191015296019401929101611ddb565b634e487b7160e01b60c051526021600452602460c051fd5b83356001600160401b0381116101f85760049083010160c0601f1982360301126101f8576040519160c083018381106001600160401b03821117610f6057604052602082013560028110156101f857835260408201356001600160a01b03811681036101f85760208401526060820135604084015260808201356001600160401b0381116101f85760209083010136601f820112156101f857611f4e903690602081359101612073565b606084015260a08201359283151584036101f85760c06020949385946080840152013560a0820152815201930192611d35565b346101f85760203660031901126101f8576004359063ffffffff60e01b82168092036101f857602091637965db0b60e01b8114908115611fc3575b5015158152f35b6301ffc9a760e01b14905083611fbc565b61012081019081106001600160401b03821117611ff057604052565b634e487b7160e01b600052604160045260246000fd5b90601f801991011681019081106001600160401b03821117611ff057604052565b602435906001600160a01b038216820361203d57565b600080fd5b600435906001600160a01b038216820361203d57565b6001600160401b038111611ff057601f01601f191660200190565b92919261207f82612058565b9161208d6040519384612006565b82948184528183011161203d578281602093846000960137010152565b9181601f8401121561203d578235916001600160401b03831161203d576020838186019501011161203d57565b90600182811c92168015612107575b60208310146120f157565b634e487b7160e01b600052602260045260246000fd5b91607f16916120e6565b6040519060008260035491612125836120d7565b80835292600181169081156121ab575060011461214b575b61214992500383612006565b565b506003600090815290917fc2575a0e9e593c00f959f8c92f12db2869c3395a3b0502d05e2516446f71f85b5b81831061218f5750509060206121499282010161213d565b6020919350806001915483858901015201910190918492612177565b6020925061214994915060ff191682840152151560051b82010161213d565b60405190600082600454916121de836120d7565b80835292600181169081156121ab57506001146122015761214992500383612006565b506004600090815290917f8a35acfbc15ff81a39ae7d344fd709f28e8600b4aa8c65c6b64bfe7fe36bd19b5b8183106122455750509060206121499282010161213d565b602091935080600191548385890101520191019091849261222d565b6040519060008260055491612275836120d7565b80835292600181169081156121ab57506001146122985761214992500383612006565b506005600090815290917f036b6384b5eca791c62761152d0c79bb0604c104a5fb6f4eb0703f3154bb3db05b8183106122dc5750509060206121499282010161213d565b60209193508060019154838589010152019101909184926122c4565b604051906000826006549161230c836120d7565b80835292600181169081156121ab575060011461232f5761214992500383612006565b506006600090815290917ff652222313e28459528d920b65115c16c04f3efc82aaedc97be59f3f377c0d3f5b8183106123735750509060206121499282010161213d565b602091935080600191548385890101520191019091849261235b565b60405190600082600754916123a3836120d7565b80835292600181169081156121ab57506001146123c65761214992500383612006565b506007600090815290917fa66cc928b5edb82af9bd49922954155ab7b0942694bea4ce44661d9a8736c6885b81831061240a5750509060206121499282010161213d565b60209193508060019154838589010152019101909184926123f2565b604051906000826008549161243a836120d7565b80835292600181169081156121ab575060011461245d5761214992500383612006565b506008600090815290917ff3f7a9fe364faab93b216da50a3214154f22a0a2b415b23a84c8169e8b636ee35b8183106124a15750509060206121499282010161213d565b6020919350806001915483858901015201910190918492612489565b60405190600082600b54916124d1836120d7565b80835292600181169081156121ab57506001146124f45761214992500383612006565b50600b600090815290917f0175b7a638427703f0dbe7bb9bbf987a2551717b34e79f33b5b1008d1fa01db95b8183106125385750509060206121499282010161213d565b6020919350806001915483858901015201910190918492612520565b919082519283825260005b848110612580575050826000602080949584010152601f8019910116010190565b8060208092840101518282860101520161255f565b9060058210156125a25752565b634e487b7160e01b600052602160045260246000fd5b908060209392818452848401376000828201840152601f01601f1916010190565b6000526000805160206127fb83398151915260205260016040600020015490565b818110612605575050565b600081556001016125fa565b60008181526000805160206127fb8339815191526020908152604080832033845290915290205460ff16156126435750565b63e2517d3f60e01b6000523360045260245260446000fd5b60008181526000805160206127fb833981519152602090815260408083206001600160a01b038616845290915290205460ff166126fd5760008181526000805160206127fb833981519152602090815260408083206001600160a01b0395909516808452949091528120805460ff19166001179055339291907f2f8788117e7eff1d82e926ec794901d17c78024a50270940304540a733656f0d9080a4600190565b5050600090565b60008181526000805160206127fb833981519152602090815260408083206001600160a01b038616845290915290205460ff16156126fd5760008181526000805160206127fb833981519152602090815260408083206001600160a01b0395909516808452949091528120805460ff19169055339291907ff6391f5c32d9c69d2a47ea670b442974b53935d1edc7fd64eb21e047a839171b9080a4600190565b6000805160206127db833981519152546001600160a01b031633036127c557565b63118cdaa760e01b6000523360045260246000fdfe9016d09d72d40fdae2fd8ceac6b6234c7706214fd39c1cd1e609a0528c19930002dd7bc7dec4dceedda775e58dd541e08a116c6c53815c0bd028192f7b626800237e158222e3e6968b72b9db0d8043aacf074ad9f650f0d1606b4d82ee432c00a26469706673582212206bfbf91ad33ffed43d5190d7516ccbd3836fa89081aafd6ff666cdf1918753ed64736f6c634300081c0033f0c57e16840df040f15088dc2f81fe391c3923bec73e23a9662efc9c229c6a00",
  "linkReferences": {},
  "deployedLinkReferences": {}
}