{
  "_format": "hh-sol-artifact-1",
  "contractName": "MockTribunalAppealForCommitting",
  "sourceName": "contracts/test-helpers/MockTribunalAppealForCommitting.sol",
  "abi": [
    {
      "inputs": [
        {
          "internalType": "bytes32",
          "name": "_txId",
          "type": "bytes32"
        },
        {
          "internalType": "address",
          "name": "_validator",
          "type": "address"
        }
      ],
      "name": "getVoteForValidator",
      "outputs": [
        {
          "internalType": "bytes32",
          "name": "",
          "type": "bytes32"
        }
      ],
      "stateMutability": "view",
      "type": "function"
    },
    {
      "inputs": [],
      "name": "lastVoteLeaderResultHash",
      "outputs": [
        {
          "internalType": "bytes32",
          "name": "",
          "type": "bytes32"
        }
      ],
      "stateMutability": "view",
      "type": "function"
    },
    {
      "inputs": [],
      "name": "lastVoteTxId",
      "outputs": [
        {
          "internalType": "bytes32",
          "name": "",
          "type": "bytes32"
        }
      ],
      "stateMutability": "view",
      "type": "function"
    },
    {
      "inputs": [],
      "name": "lastVoteValidator",
      "outputs": [
        {
          "internalType": "address",
          "name": "",
          "type": "address"
        }
      ],
      "stateMutability": "view",
      "type": "function"
    },
    {
      "inputs": [],
      "name": "lastVoteValidatorResultHash",
      "outputs": [
        {
          "internalType": "bytes32",
          "name": "",
          "type": "bytes32"
        }
      ],
      "stateMutability": "view",
      "type": "function"
    },
    {
      "inputs": [],
      "name": "resetMockState",
      "outputs": [],
      "stateMutability": "nonpayable",
      "type": "function"
    },
    {
      "inputs": [
        {
          "internalType": "bytes32",
          "name": "_txId",
          "type": "bytes32"
        },
        {
          "internalType": "address",
          "name": "_validator",
          "type": "address"
        },
        {
          "internalType": "bytes32",
          "name": "_leaderResultHash",
          "type": "bytes32"
        },
        {
          "internalType": "bytes32",
          "name": "_validatorResultHash",
          "type": "bytes32"
        }
      ],
      "name": "setVoteForValidator",
      "outputs": [],
      "stateMutability": "nonpayable",
      "type": "function"
    },
    {
      "inputs": [],
      "name": "setVoteForValidatorCalled",
      "outputs": [
        {
          "internalType": "bool",
          "name": "",
          "type": "bool"
        }
      ],
      "stateMutability": "view",
      "type": "function"
    }
  ],
  "bytecode": "0x60808060405234601557610261908161001b8239f35b600080fdfe608080604052600436101561001357600080fd5b60003560e01c90816320090e9d146101db578163489cdd9d146101c0575080634a310980146101a2578063a79e980214610179578063b573126214610131578063cac3c18e146100bd578063e0aab4491461009a5763ff8ba54b1461007757600080fd5b34610095576000366003190112610095576020600154604051908152f35b600080fd5b3461009557600036600319011261009557602060ff600054166040519015158152f35b34610095576080366003190112610095576004356100d9610215565b6000805460ff191660019081178255839055600280546001600160a01b0319166001600160a01b0393909316928317905560443560035560643560048190559281526005602090815260408083209383529290522055005b346100955760403660031901126100955761014a610215565b600435600052600560205260406000209060018060a01b03166000526020526020604060002054604051908152f35b34610095576000366003190112610095576002546040516001600160a01b039091168152602090f35b34610095576000366003190112610095576020600454604051908152f35b34610095576000366003190112610095576020906003548152f35b34610095576000366003190112610095576000805460ff191681556001819055600280546001600160a01b03191690556003819055600455005b602435906001600160a01b03821682036100955756fea264697066735822122020696ca74b1e249a36e0f0cbfbacdb1570288f7dd00c7cbf289bb96b44dc921c64736f6c634300081c0033",
  "linkReferences": {},
  "deployedLinkReferences": {}
}