{
  "_format": "hh-sol-artifact-1",
  "contractName": "ValidatorWalletFactory",
  "sourceName": "contracts/validatorsWallet/ValidatorWalletFactory.sol",
  "abi": [
    {
      "inputs": [],
      "name": "AccessControlBadConfirmation",
      "type": "error"
    },
    {
      "inputs": [
        {
          "internalType": "address",
          "name": "account",
          "type": "address"
        },
        {
          "internalType": "bytes32",
          "name": "neededRole",
          "type": "bytes32"
        }
      ],
      "name": "AccessControlUnauthorizedAccount",
      "type": "error"
    },
    {
      "inputs": [],
      "name": "BeaconNotDeployed",
      "type": "error"
    },
    {
      "inputs": [],
      "name": "CallerNotAuthorized",
      "type": "error"
    },
    {
      "inputs": [],
      "name": "IndexOutOfBounds",
      "type": "error"
    },
    {
      "inputs": [],
      "name": "InvalidAddress",
      "type": "error"
    },
    {
      "inputs": [],
      "name": "InvalidInitialization",
      "type": "error"
    },
    {
      "inputs": [],
      "name": "InvalidNonce",
      "type": "error"
    },
    {
      "inputs": [],
      "name": "NotInitializing",
      "type": "error"
    },
    {
      "inputs": [
        {
          "internalType": "address",
          "name": "owner",
          "type": "address"
        }
      ],
      "name": "OwnableInvalidOwner",
      "type": "error"
    },
    {
      "inputs": [
        {
          "internalType": "address",
          "name": "account",
          "type": "address"
        }
      ],
      "name": "OwnableUnauthorizedAccount",
      "type": "error"
    },
    {
      "inputs": [],
      "name": "ReentrancyGuardReentrantCall",
      "type": "error"
    },
    {
      "inputs": [],
      "name": "ValidatorWalletAlreadyDeployed",
      "type": "error"
    },
    {
      "inputs": [],
      "name": "WalletDeploymentFailed",
      "type": "error"
    },
    {
      "anonymous": false,
      "inputs": [
        {
          "indexed": true,
          "internalType": "address",
          "name": "beacon",
          "type": "address"
        },
        {
          "indexed": true,
          "internalType": "address",
          "name": "implementation",
          "type": "address"
        }
      ],
      "name": "BeaconDeployed",
      "type": "event"
    },
    {
      "anonymous": false,
      "inputs": [
        {
          "indexed": true,
          "internalType": "address",
          "name": "newImplementation",
          "type": "address"
        }
      ],
      "name": "BeaconUpgraded",
      "type": "event"
    },
    {
      "anonymous": false,
      "inputs": [
        {
          "indexed": true,
          "internalType": "address",
          "name": "consensusContract",
          "type": "address"
        }
      ],
      "name": "ConsensusContractSet",
      "type": "event"
    },
    {
      "anonymous": false,
      "inputs": [
        {
          "indexed": false,
          "internalType": "uint64",
          "name": "version",
          "type": "uint64"
        }
      ],
      "name": "Initialized",
      "type": "event"
    },
    {
      "anonymous": false,
      "inputs": [
        {
          "indexed": true,
          "internalType": "address",
          "name": "previousOwner",
          "type": "address"
        },
        {
          "indexed": true,
          "internalType": "address",
          "name": "newOwner",
          "type": "address"
        }
      ],
      "name": "OwnershipTransferStarted",
      "type": "event"
    },
    {
      "anonymous": false,
      "inputs": [
        {
          "indexed": true,
          "internalType": "address",
          "name": "previousOwner",
          "type": "address"
        },
        {
          "indexed": true,
          "internalType": "address",
          "name": "newOwner",
          "type": "address"
        }
      ],
      "name": "OwnershipTransferred",
      "type": "event"
    },
    {
      "anonymous": false,
      "inputs": [
        {
          "indexed": true,
          "internalType": "bytes32",
          "name": "role",
          "type": "bytes32"
        },
        {
          "indexed": true,
          "internalType": "bytes32",
          "name": "previousAdminRole",
          "type": "bytes32"
        },
        {
          "indexed": true,
          "internalType": "bytes32",
          "name": "newAdminRole",
          "type": "bytes32"
        }
      ],
      "name": "RoleAdminChanged",
      "type": "event"
    },
    {
      "anonymous": false,
      "inputs": [
        {
          "indexed": true,
          "internalType": "bytes32",
          "name": "role",
          "type": "bytes32"
        },
        {
          "indexed": true,
          "internalType": "address",
          "name": "account",
          "type": "address"
        },
        {
          "indexed": true,
          "internalType": "address",
          "name": "sender",
          "type": "address"
        }
      ],
      "name": "RoleGranted",
      "type": "event"
    },
    {
      "anonymous": false,
      "inputs": [
        {
          "indexed": true,
          "internalType": "bytes32",
          "name": "role",
          "type": "bytes32"
        },
        {
          "indexed": true,
          "internalType": "address",
          "name": "account",
          "type": "address"
        },
        {
          "indexed": true,
          "internalType": "address",
          "name": "sender",
          "type": "address"
        }
      ],
      "name": "RoleRevoked",
      "type": "event"
    },
    {
      "anonymous": false,
      "inputs": [
        {
          "indexed": true,
          "internalType": "address",
          "name": "stakingContract",
          "type": "address"
        }
      ],
      "name": "StakingContractSet",
      "type": "event"
    },
    {
      "anonymous": false,
      "inputs": [
        {
          "indexed": true,
          "internalType": "address",
          "name": "blueprint",
          "type": "address"
        }
      ],
      "name": "ValidatorWalletBlueprintSet",
      "type": "event"
    },
    {
      "anonymous": false,
      "inputs": [
        {
          "indexed": true,
          "internalType": "address",
          "name": "validatorOwner",
          "type": "address"
        },
        {
          "indexed": true,
          "internalType": "address",
          "name": "operator",
          "type": "address"
        },
        {
          "indexed": true,
          "internalType": "address",
          "name": "wallet",
          "type": "address"
        },
        {
          "indexed": false,
          "internalType": "uint256",
          "name": "nonce",
          "type": "uint256"
        }
      ],
      "name": "ValidatorWalletDeployed",
      "type": "event"
    },
    {
      "inputs": [],
      "name": "DEFAULT_ADMIN_ROLE",
      "outputs": [
        {
          "internalType": "bytes32",
          "name": "",
          "type": "bytes32"
        }
      ],
      "stateMutability": "view",
      "type": "function"
    },
    {
      "inputs": [],
      "name": "INITIALIZE_SELECTOR",
      "outputs": [
        {
          "internalType": "bytes4",
          "name": "",
          "type": "bytes4"
        }
      ],
      "stateMutability": "view",
      "type": "function"
    },
    {
      "inputs": [],
      "name": "acceptOwnership",
      "outputs": [],
      "stateMutability": "nonpayable",
      "type": "function"
    },
    {
      "inputs": [],
      "name": "bytecodeHash",
      "outputs": [
        {
          "internalType": "bytes32",
          "name": "",
          "type": "bytes32"
        }
      ],
      "stateMutability": "view",
      "type": "function"
    },
    {
      "inputs": [],
      "name": "consensusContract",
      "outputs": [
        {
          "internalType": "address",
          "name": "",
          "type": "address"
        }
      ],
      "stateMutability": "view",
      "type": "function"
    },
    {
      "inputs": [],
      "name": "deployNewBeacon",
      "outputs": [],
      "stateMutability": "nonpayable",
      "type": "function"
    },
    {
      "inputs": [],
      "name": "deployValidatorWallet",
      "outputs": [
        {
          "internalType": "address",
          "name": "wallet",
          "type": "address"
        }
      ],
      "stateMutability": "nonpayable",
      "type": "function"
    },
    {
      "inputs": [
        {
          "internalType": "address",
          "name": "validatorOwner",
          "type": "address"
        },
        {
          "internalType": "address",
          "name": "operator",
          "type": "address"
        }
      ],
      "name": "deployValidatorWalletFor",
      "outputs": [
        {
          "internalType": "address",
          "name": "wallet",
          "type": "address"
        }
      ],
      "stateMutability": "nonpayable",
      "type": "function"
    },
    {
      "inputs": [
        {
          "internalType": "address",
          "name": "validatorOwner",
          "type": "address"
        },
        {
          "internalType": "address",
          "name": "operator",
          "type": "address"
        },
        {
          "internalType": "uint256",
          "name": "nonce",
          "type": "uint256"
        }
      ],
      "name": "deployValidatorWalletWithNonce",
      "outputs": [
        {
          "internalType": "address",
          "name": "wallet",
          "type": "address"
        }
      ],
      "stateMutability": "nonpayable",
      "type": "function"
    },
    {
      "inputs": [
        {
          "internalType": "address",
          "name": "wallet",
          "type": "address"
        }
      ],
      "name": "getOperatorForWallet",
      "outputs": [
        {
          "internalType": "address",
          "name": "",
          "type": "address"
        }
      ],
      "stateMutability": "view",
      "type": "function"
    },
    {
      "inputs": [
        {
          "internalType": "bytes32",
          "name": "role",
          "type": "bytes32"
        }
      ],
      "name": "getRoleAdmin",
      "outputs": [
        {
          "internalType": "bytes32",
          "name": "",
          "type": "bytes32"
        }
      ],
      "stateMutability": "view",
      "type": "function"
    },
    {
      "inputs": [
        {
          "internalType": "address",
          "name": "operator",
          "type": "address"
        }
      ],
      "name": "getWalletCountForOperator",
      "outputs": [
        {
          "internalType": "uint256",
          "name": "",
          "type": "uint256"
        }
      ],
      "stateMutability": "view",
      "type": "function"
    },
    {
      "inputs": [
        {
          "internalType": "address",
          "name": "operator",
          "type": "address"
        },
        {
          "internalType": "uint256",
          "name": "index",
          "type": "uint256"
        }
      ],
      "name": "getWalletForOperator",
      "outputs": [
        {
          "internalType": "address",
          "name": "",
          "type": "address"
        }
      ],
      "stateMutability": "view",
      "type": "function"
    },
    {
      "inputs": [
        {
          "internalType": "address",
          "name": "operator",
          "type": "address"
        }
      ],
      "name": "getWalletsForOperator",
      "outputs": [
        {
          "internalType": "address[]",
          "name": "",
          "type": "address[]"
        }
      ],
      "stateMutability": "view",
      "type": "function"
    },
    {
      "inputs": [
        {
          "internalType": "bytes32",
          "name": "role",
          "type": "bytes32"
        },
        {
          "internalType": "address",
          "name": "account",
          "type": "address"
        }
      ],
      "name": "grantRole",
      "outputs": [],
      "stateMutability": "nonpayable",
      "type": "function"
    },
    {
      "inputs": [
        {
          "internalType": "bytes32",
          "name": "role",
          "type": "bytes32"
        },
        {
          "internalType": "address",
          "name": "account",
          "type": "address"
        }
      ],
      "name": "hasRole",
      "outputs": [
        {
          "internalType": "bool",
          "name": "",
          "type": "bool"
        }
      ],
      "stateMutability": "view",
      "type": "function"
    },
    {
      "inputs": [],
      "name": "initialize",
      "outputs": [],
      "stateMutability": "nonpayable",
      "type": "function"
    },
    {
      "inputs": [
        {
          "internalType": "address",
          "name": "",
          "type": "address"
        }
      ],
      "name": "isValidatorWallet",
      "outputs": [
        {
          "internalType": "bool",
          "name": "",
          "type": "bool"
        }
      ],
      "stateMutability": "view",
      "type": "function"
    },
    {
      "inputs": [
        {
          "internalType": "address",
          "name": "wallet",
          "type": "address"
        }
      ],
      "name": "isValidatorWalletAddress",
      "outputs": [
        {
          "internalType": "bool",
          "name": "",
          "type": "bool"
        }
      ],
      "stateMutability": "view",
      "type": "function"
    },
    {
      "inputs": [],
      "name": "latestWallet",
      "outputs": [
        {
          "internalType": "address",
          "name": "",
          "type": "address"
        }
      ],
      "stateMutability": "view",
      "type": "function"
    },
    {
      "inputs": [
        {
          "internalType": "address",
          "name": "",
          "type": "address"
        }
      ],
      "name": "operatorNonce",
      "outputs": [
        {
          "internalType": "uint256",
          "name": "",
          "type": "uint256"
        }
      ],
      "stateMutability": "view",
      "type": "function"
    },
    {
      "inputs": [
        {
          "internalType": "address",
          "name": "",
          "type": "address"
        },
        {
          "internalType": "uint256",
          "name": "",
          "type": "uint256"
        }
      ],
      "name": "operatorToWallets",
      "outputs": [
        {
          "internalType": "address",
          "name": "",
          "type": "address"
        }
      ],
      "stateMutability": "view",
      "type": "function"
    },
    {
      "inputs": [],
      "name": "operatorTransferDelay",
      "outputs": [
        {
          "internalType": "uint256",
          "name": "",
          "type": "uint256"
        }
      ],
      "stateMutability": "view",
      "type": "function"
    },
    {
      "inputs": [],
      "name": "owner",
      "outputs": [
        {
          "internalType": "address",
          "name": "",
          "type": "address"
        }
      ],
      "stateMutability": "view",
      "type": "function"
    },
    {
      "inputs": [],
      "name": "pendingOwner",
      "outputs": [
        {
          "internalType": "address",
          "name": "",
          "type": "address"
        }
      ],
      "stateMutability": "view",
      "type": "function"
    },
    {
      "inputs": [
        {
          "internalType": "address",
          "name": "operator",
          "type": "address"
        }
      ],
      "name": "predictNextWalletAddress",
      "outputs": [
        {
          "internalType": "address",
          "name": "predicted",
          "type": "address"
        }
      ],
      "stateMutability": "view",
      "type": "function"
    },
    {
      "inputs": [
        {
          "internalType": "address",
          "name": "operator",
          "type": "address"
        },
        {
          "internalType": "uint256",
          "name": "nonce",
          "type": "uint256"
        }
      ],
      "name": "predictValidatorWalletAddress",
      "outputs": [
        {
          "internalType": "address",
          "name": "predicted",
          "type": "address"
        }
      ],
      "stateMutability": "view",
      "type": "function"
    },
    {
      "inputs": [],
      "name": "renounceOwnership",
      "outputs": [],
      "stateMutability": "nonpayable",
      "type": "function"
    },
    {
      "inputs": [
        {
          "internalType": "bytes32",
          "name": "role",
          "type": "bytes32"
        },
        {
          "internalType": "address",
          "name": "callerConfirmation",
          "type": "address"
        }
      ],
      "name": "renounceRole",
      "outputs": [],
      "stateMutability": "nonpayable",
      "type": "function"
    },
    {
      "inputs": [
        {
          "internalType": "bytes32",
          "name": "role",
          "type": "bytes32"
        },
        {
          "internalType": "address",
          "name": "account",
          "type": "address"
        }
      ],
      "name": "revokeRole",
      "outputs": [],
      "stateMutability": "nonpayable",
      "type": "function"
    },
    {
      "inputs": [
        {
          "internalType": "address",
          "name": "_consensusContract",
          "type": "address"
        }
      ],
      "name": "setConsensusContract",
      "outputs": [],
      "stateMutability": "nonpayable",
      "type": "function"
    },
    {
      "inputs": [
        {
          "internalType": "uint256",
          "name": "delay",
          "type": "uint256"
        }
      ],
      "name": "setOperatorTransferDelay",
      "outputs": [],
      "stateMutability": "nonpayable",
      "type": "function"
    },
    {
      "inputs": [
        {
          "internalType": "address",
          "name": "_stakingContract",
          "type": "address"
        }
      ],
      "name": "setStakingContract",
      "outputs": [],
      "stateMutability": "nonpayable",
      "type": "function"
    },
    {
      "inputs": [
        {
          "internalType": "address",
          "name": "_blueprint",
          "type": "address"
        }
      ],
      "name": "setValidatorWalletBlueprint",
      "outputs": [],
      "stateMutability": "nonpayable",
      "type": "function"
    },
    {
      "inputs": [],
      "name": "stakingContract",
      "outputs": [
        {
          "internalType": "address",
          "name": "",
          "type": "address"
        }
      ],
      "stateMutability": "view",
      "type": "function"
    },
    {
      "inputs": [
        {
          "internalType": "bytes4",
          "name": "interfaceId",
          "type": "bytes4"
        }
      ],
      "name": "supportsInterface",
      "outputs": [
        {
          "internalType": "bool",
          "name": "",
          "type": "bool"
        }
      ],
      "stateMutability": "view",
      "type": "function"
    },
    {
      "inputs": [],
      "name": "totalWalletsDeployed",
      "outputs": [
        {
          "internalType": "uint256",
          "name": "",
          "type": "uint256"
        }
      ],
      "stateMutability": "view",
      "type": "function"
    },
    {
      "inputs": [
        {
          "internalType": "address",
          "name": "newOwner",
          "type": "address"
        }
      ],
      "name": "transferOwnership",
      "outputs": [],
      "stateMutability": "nonpayable",
      "type": "function"
    },
    {
      "inputs": [
        {
          "internalType": "address",
          "name": "newImplementation",
          "type": "address"
        }
      ],
      "name": "upgradeBeacon",
      "outputs": [],
      "stateMutability": "nonpayable",
      "type": "function"
    },
    {
      "inputs": [],
      "name": "validatorWalletBeacon",
      "outputs": [
        {
          "internalType": "address",
          "name": "",
          "type": "address"
        }
      ],
      "stateMutability": "view",
      "type": "function"
    },
    {
      "inputs": [],
      "name": "validatorWalletBlueprint",
      "outputs": [
        {
          "internalType": "address",
          "name": "",
          "type": "address"
        }
      ],
      "stateMutability": "view",
      "type": "function"
    },
    {
      "inputs": [
        {
          "internalType": "address",
          "name": "",
          "type": "address"
        }
      ],
      "name": "walletToOperator",
      "outputs": [
        {
          "internalType": "address",
          "name": "",
          "type": "address"
        }
      ],
      "stateMutability": "view",
      "type": "function"
    }
  ],
  "bytecode": "0x608080604052346015576121f4908161001b8239f35b600080fdfe6080604052600436101561001257600080fd5b6000803560e01c80630149754f1461111f57806301ffc9a7146110c857806317ec76fd1461108f5780631a3581c4146110665780631bce458314610f7c578063223fad3b14610f1a578063248a9ca314610ef35780632f2ff15d14610ec157806336568abe14610e7c5780633ab63c5714610e145780633b64f90b14610ddb578063420c6a2c14610dbd5780634e5d3d5a14610d8657806356e71eda14610d6357806362fe1e1014610ae1578063641dece214610d3a57806364ec26a714610ba1578063715018a614610b205780637585308114610ae157806379ba509714610a905780637de1bc8f14610a6d5780638129fc1c146108c85780638d77c710146108aa5780638da5cb5b1461087457806391d148541461081b578063931cc2d4146107f25780639dd373b914610788578063a217fddf1461076c578063b254c08d14610666578063b31ed0f91461063f578063b94a11ad14610621578063c469c307146105a8578063d547741f1461056d578063df8c4a9614610411578063dfdd72d51461050c578063e2a4a27b14610452578063e2f7f8ee14610411578063e30c3978146103db578063edc851c914610365578063ee99205c1461033c578063f2fde38b146102b45763f31fa988146101eb57600080fd5b346102b15760203660031901126102b1576001600160a01b0361020c611186565b168152600760205260408120604051908160208254918281520190819285526020852090855b81811061029257505050826102489103836111e5565b604051928392602084019060208552518091526040840192915b818110610270575050500390f35b82516001600160a01b0316845285945060209384019390920191600101610262565b82546001600160a01b0316845260209093019260019283019201610232565b80fd5b50346102b15760203660031901126102b1576102ce611186565b6102d66115c1565b60008051602061219f83398151915280546001600160a01b0319166001600160a01b0392831690811790915560008051602061213f833981519152549091167f38d16b8cac22d99fc7c124b9cd0de2d3fa1faef420bfe791d8c362d765e227008380a380f35b50346102b157806003193601126102b1576002546040516001600160a01b039091168152602090f35b50346102b15760203660031901126102b1576103c96020916103b36103c1604061038d611186565b6001600160a01b038116855260088752932054604051808701949093849290918661123e565b03601f1981018352826111e5565b51902061178a565b6040516001600160a01b039091168152f35b50346102b157806003193601126102b15760008051602061219f833981519152546040516001600160a01b039091168152602090f35b50346102b15760203660031901126102b1576020906001600160a01b03610436611186565b16815260068252604060018060a01b0391205416604051908152f35b50346102b15760403660031901126102b15761046c611186565b6104746111a1565b6002546001600160a01b031633036104fd576001600160a01b0381169182156104ee576104b090838552600860205260408520549283916112f2565b91600182018092116104da5783604091602095526008855220556040519060018060a01b03168152f35b634e487b7160e01b84526011600452602484fd5b63e6c4247b60e01b8452600484fd5b63c183bcef60e01b8352600483fd5b50346102b15760403660031901126102b157610526611186565b6001600160a01b03168152600760205260408120805460243592908310156102b157602061055484846111b7565b905460405160039290921b1c6001600160a01b03168152f35b50346102b15760403660031901126102b1576105a460043561058d6111a1565b9061059f61059a8261121d565b6115f7565b6116ea565b5080f35b50346102b15760203660031901126102b1576105c2611186565b6105ca6115c1565b6001600160a01b0316801561061257600380546001600160a01b031916821790557fc4ef3778f550db2c8c732a48233097b6b7b79460ae83ca436699612cc4c623b78280a280f35b63e6c4247b60e01b8252600482fd5b50346102b157806003193601126102b1576020600b54604051908152f35b50346102b157806003193601126102b157546040516001600160a01b039091168152602090f35b50346102b15760603660031901126102b157610680611186565b6106886111a1565b6044359060018060a01b03600254163314158061074a575b61073b576001600160a01b03811692831561072c5783855260086020526040852054831061071d576106d39183916112f2565b91808452600860205260408420548210156106fd575b6040516001600160a01b0384168152602090f35b600182018092116104da57836040916020955260088552205538806106e9565b633ab3447f60e11b8552600485fd5b63e6c4247b60e01b8552600485fd5b63c183bcef60e01b8452600484fd5b5060008051602061213f833981519152546001600160a01b03163314156106a0565b50346102b157806003193601126102b157602090604051908152f35b50346102b15760203660031901126102b1576107a2611186565b6107aa6115c1565b6001600160a01b0316801561061257600280546001600160a01b031916821790557f1253844b0fff3da7dd2829de816c9b4f94c238cf2bf6eb72c02c7d6f2b53beac8280a280f35b50346102b157806003193601126102b1576003546040516001600160a01b039091168152602090f35b50346102b15760403660031901126102b15760406108376111a1565b91600435815260008051602061215f833981519152602052209060018060a01b0316600052602052602060ff604060002054166040519015158152f35b50346102b157806003193601126102b15760008051602061213f833981519152546040516001600160a01b039091168152602090f35b50346102b157806003193601126102b1576020600a54604051908152f35b50346102b157806003193601126102b15760008051602061217f8339815191525460ff8160401c16159067ffffffffffffffff811680159081610a65575b6001149081610a5b575b159081610a52575b50610a435767ffffffffffffffff19811660011760008051602061217f8339815191525581610a16575b5061094b611889565b610953611889565b3315610a02576109623361181b565b61096a611889565b610972611889565b61097a611889565b60017f9b779b17422d0df92223018b32b4d1fa46e071723d6817e2486d003becc55f00556109a6611889565b6109ad5780f35b60ff60401b1960008051602061217f833981519152541660008051602061217f833981519152557fc7f505b2f371ae2175ee4913f4499e1f2633a7b5936321eed1cdaeb6115181d2602060405160018152a180f35b631e4fbdf760e01b82526004829052602482fd5b68ffffffffffffffffff1916680100000000000000011760008051602061217f8339815191525538610942565b63f92ee8a960e01b8352600483fd5b90501538610918565b303b159150610910565b839150610906565b50346102b15760203660031901126102b157610a876115c1565b600435600b5580f35b50346102b157806003193601126102b15760008051602061219f83398151915254336001600160a01b0390911603610ace57610acb3361181b565b80f35b63118cdaa760e01b815233600452602490fd5b50346102b15760203660031901126102b15760209060ff906040906001600160a01b03610b0c611186565b168152600584522054166040519015158152f35b50346102b157806003193601126102b157610b396115c1565b60008051602061219f83398151915280546001600160a01b031990811690915560008051602061213f8339815191528054918216905581906001600160a01b03167f8be0079c531659141344cd1fd0a4f28419497f9722a3daafe3b4186f6b6457e08280a380f35b50346102b157806003193601126102b157610bba6115c1565b80546001600160a01b0316801561061257604051906103da908183019183831067ffffffffffffffff841117610d26579183916040936118b88439815230602082015203019082f08015610d1957600180546001600160a01b0319166001600160a01b03928316908117909155600254600354604051630a2ca2bd60e11b6020820152306024820152604481018690529184166064830152909216608480840191909152825290610c6c60a4826111e5565b610cd0610ce06104ad92602060405191610c88828701846111e5565b85835281830195611c928739604051610ca9816103b3858201948b866112b7565b604051958694610cc1858701998a9251928391611294565b85019151809385840190611294565b010103601f1981018352826111e5565b51902060045581546001600160a01b0316907f30cba6235ada75d9e019e16156fc804bc3ff68f258fcf019611e2cc7d6fc6df98380a380f35b50604051903d90823e3d90fd5b634e487b7160e01b85526041600452602485fd5b50346102b157806003193601126102b1576009546040516001600160a01b039091168152602090f35b50346102b157806003193601126102b157604051630a2ca2bd60e11b8152602090f35b50346102b15760403660031901126102b15760206103c9610da5611186565b6040516103c1816103b386820194602435908661123e565b50346102b157806003193601126102b1576020600454604051908152f35b50346102b15760203660031901126102b1576020906040906001600160a01b03610e03611186565b168152600883522054604051908152f35b50346102b15760203660031901126102b157610e2e611186565b610e366115c1565b6001600160a01b031680156106125781546001600160a01b031916811782557fb70fa0c619f49ef75ff96dbc42700928f3e6d0a3d26727e316f2111612f409678280a280f35b50346102b15760403660031901126102b157610e966111a1565b336001600160a01b03821603610eb2576105a4906004356116ea565b63334bd91960e11b8252600482fd5b50346102b15760403660031901126102b1576105a4600435610ee16111a1565b90610eee61059a8261121d565b611641565b50346102b15760203660031901126102b1576020610f1260043561121d565b604051908152f35b50346102b15760403660031901126102b157610f34611186565b6001600160a01b031680825260076020526040822054602435929190831015610f6d5791604082602094610554945260078552206111b7565b634e23d03560e01b8252600482fd5b50346102b15760203660031901126102b157610f96611186565b610f9e6115c1565b6001600160a01b0316908115611057576001546001600160a01b0316801561104857803b1561104457818091602460405180948193631b2ce7f360e11b83528860048401525af1801561103957611029575b5080546001600160a01b03191682178155907f1cf3b03a6cf19fa2baba4df148e9dcabedea7f8a5c07840e207e5c089be95d3e8280a280f35b81611033916111e5565b38610ff0565b6040513d84823e3d90fd5b5080fd5b63130a1c6560e11b8252600482fd5b63e6c4247b60e01b8152600490fd5b50346102b157806003193601126102b1576001546040516001600160a01b039091168152602090f35b50346102b15760203660031901126102b1576020906040906001600160a01b036110b7611186565b168152600783522054604051908152f35b50346102b15760203660031901126102b15760043563ffffffff60e01b811680910361104457602090637965db0b60e01b811490811561110e575b506040519015158152f35b6301ffc9a760e01b14905082611103565b50346102b157806003193601126102b157338152600860205260408120546111488133336112f2565b90600181018091116111725760406020933381526008855220556040519060018060a01b03168152f35b634e487b7160e01b83526011600452602483fd5b600435906001600160a01b038216820361119c57565b600080fd5b602435906001600160a01b038216820361119c57565b80548210156111cf5760005260206000200190600090565b634e487b7160e01b600052603260045260246000fd5b90601f8019910116810190811067ffffffffffffffff82111761120757604052565b634e487b7160e01b600052604160045260246000fd5b60005260008051602061215f83398151915260205260016040600020015490565b90916034926bffffffffffffffffffffffff199060601b16825260148201520190565b6001600160a01b039182168152918116602083015291821660408201529181166060830152909116608082015260a00190565b60005b8381106112a75750506000910152565b8181015183820152602001611297565b909160609260018060a01b03168252604060208301526112e68151809281604086015260208686019101611294565b601f01601f1916010190565b6001549293929091906001600160a01b031680156115b057600090856114c5575050600154600254600354604051630a2ca2bd60e11b6020820152926001600160a01b039081169261136392859261135592889282169116893060248701611261565b03601f1981018452836111e5565b604051916104ad908184019284841067ffffffffffffffff85111761120757849361139293611c9286396112b7565b03906000f080156114b9575b6001600160a01b03169384156114a8576000858152600560209081526040808320805460ff191660011790556006825280832080546001600160a01b0319166001600160a01b039096169586179055848352600790915290208054600160401b81101561120757611414916001820181556111b7565b81546001600160a01b0360039290921b91821b19169087901b179055600a5492600019841461149257600193909301600a55600980546001600160a01b0319168617905560405190815284926001600160a01b0316907f457192f8826596f3ba7b075cdfcc3a7d6ec8ab54b15a194c711cd2046dabffec90602090a4565b634e487b7160e01b600052601160045260246000fd5b636e09c9eb60e01b60005260046000fd5b6040513d6000823e3d90fd5b60405160208101906114dc816103b38a888661123e565b519020906001600160a01b036114f18361178a565b168352600560205260ff6040842054166115a157600254600354604051630a2ca2bd60e11b6020820152916115409183916103b39189916001600160a01b0391821691168b3060248701611261565b604051916104ad8084019084821067ffffffffffffffff83111761158d579184939161157093611c9286396112b7565b039083f5908115611581575061139e565b604051903d90823e3d90fd5b634e487b7160e01b87526041600452602487fd5b632e73ad2160e21b8352600483fd5b63130a1c6560e11b60005260046000fd5b60008051602061213f833981519152546001600160a01b031633036115e257565b63118cdaa760e01b6000523360045260246000fd5b600081815260008051602061215f8339815191526020908152604080832033845290915290205460ff16156116295750565b63e2517d3f60e01b6000523360045260245260446000fd5b600081815260008051602061215f833981519152602090815260408083206001600160a01b038616845290915290205460ff166116e357600081815260008051602061215f833981519152602090815260408083206001600160a01b0395909516808452949091528120805460ff19166001179055339291907f2f8788117e7eff1d82e926ec794901d17c78024a50270940304540a733656f0d9080a4600190565b5050600090565b600081815260008051602061215f833981519152602090815260408083206001600160a01b038616845290915290205460ff16156116e357600081815260008051602061215f833981519152602090815260408083206001600160a01b0395909516808452949091528120805460ff19169055339291907ff6391f5c32d9c69d2a47ea670b442974b53935d1edc7fd64eb21e047a839171b9080a4600190565b6004549081156117d65760405191602083019160ff60f81b83523060601b602185015260358401526055830152605582526117c66075836111e5565b905190206001600160a01b031690565b60405162461bcd60e51b815260206004820152601d60248201527f42797465636f64652068617368206e6f7420696e697469616c697a65640000006044820152606490fd5b60008051602061219f83398151915280546001600160a01b031990811690915560008051602061213f83398151915280549182166001600160a01b0393841690811790915591167f8be0079c531659141344cd1fd0a4f28419497f9722a3daafe3b4186f6b6457e0600080a3565b60ff60008051602061217f8339815191525460401c16156118a657565b631afcd79f60e31b60005260046000fdfe60803461013a57601f6103da38819003918201601f19168301916001600160401b0383118484101761013f57808492604094855283398101031261013a5761004681610155565b906001600160a01b039061005c90602001610155565b1690811561012457600080546001600160a01b031981168417825560405193916001600160a01b03909116907f8be0079c531659141344cd1fd0a4f28419497f9722a3daafe3b4186f6b6457e09080a3803b1561010357600180546001600160a01b0319166001600160a01b039290921691821790557fbc7cd75a20ee27fd9adebab32041f755214dbc6bffa90cc0225b39da2e5c2d3b600080a2610270908161016a8239f35b63211eb15960e21b60009081526001600160a01b0391909116600452602490fd5b631e4fbdf760e01b600052600060045260246000fd5b600080fd5b634e487b7160e01b600052604160045260246000fd5b51906001600160a01b038216820361013a5756fe6080604052600436101561001257600080fd5b60003560e01c80633659cfe6146101905780635c60da1b14610167578063715018a61461010e5780638da5cb5b146100e55763f2fde38b1461005357600080fd5b346100e05760203660031901126100e0576004356001600160a01b038116908190036100e057610081610211565b80156100ca57600080546001600160a01b03198116831782556001600160a01b0316907f8be0079c531659141344cd1fd0a4f28419497f9722a3daafe3b4186f6b6457e09080a3005b631e4fbdf760e01b600052600060045260246000fd5b600080fd5b346100e05760003660031901126100e0576000546040516001600160a01b039091168152602090f35b346100e05760003660031901126100e057610127610211565b600080546001600160a01b0319811682556001600160a01b03167f8be0079c531659141344cd1fd0a4f28419497f9722a3daafe3b4186f6b6457e08280a3005b346100e05760003660031901126100e0576001546040516001600160a01b039091168152602090f35b346100e05760203660031901126100e0576004356001600160a01b038116908181036100e0576101be610211565b3b156101fd57600180546001600160a01b031916821790557fbc7cd75a20ee27fd9adebab32041f755214dbc6bffa90cc0225b39da2e5c2d3b600080a2005b63211eb15960e21b60005260045260246000fd5b6000546001600160a01b0316330361022557565b63118cdaa760e01b6000523360045260246000fdfea26469706673582212205be932ea8d033c79c2075910c9f2a1219e9addcb9ea1818f0956cdde62d7866f64736f6c634300081c003360a0806040526104ad803803809161001782856102b7565b833981016040828203126101f35761002e826102f0565b602083015190926001600160401b0382116101f3570181601f820112156101f35780519061005b82610304565b9261006960405194856102b7565b828452602083830101116101f35760005b8281106102a2575050602060009183010152813b15610280577fa3f0ad74e5423aebfd80d3ef4346578335a9a72aeaee59ff6cb3582b35133d5080546001600160a01b0319166001600160a01b038416908117909155604051635c60da1b60e01b8152909190602081600481865afa90811561020057600091610246575b50803b156102255750817f1cf3b03a6cf19fa2baba4df148e9dcabedea7f8a5c07840e207e5c089be95d3e600080a280511561020c57602060049260405193848092635c60da1b60e01b82525afa918215610200576000926101b9575b509060008083602061019595519101845af43d156101b1573d9161017883610304565b9261018660405194856102b7565b83523d6000602085013e61031f565b505b60805260405161012c908161038182396080518160180152f35b60609161031f565b91506020823d6020116101f8575b816101d4602093836102b7565b810103126101f3576000806101eb610195946102f0565b935050610155565b600080fd5b3d91506101c7565b6040513d6000823e3d90fd5b505034156101975763b398979f60e01b60005260046000fd5b634c9c8ce360e01b60009081526001600160a01b0391909116600452602490fd5b90506020813d602011610278575b81610261602093836102b7565b810103126101f357610272906102f0565b386100f8565b3d9150610254565b50631933b43b60e21b60009081526001600160a01b0391909116600452602490fd5b8060208092840101518282870101520161007a565b601f909101601f19168101906001600160401b038211908210176102da57604052565b634e487b7160e01b600052604160045260246000fd5b51906001600160a01b03821682036101f357565b6001600160401b0381116102da57601f01601f191660200190565b90610345575080511561033457805190602001fd5b63d6bda27560e01b60005260046000fd5b81511580610377575b610356575090565b639996b31560e01b60009081526001600160a01b0391909116600452602490fd5b50803b1561034e56fe60806040819052635c60da1b60e01b81526020906004817f00000000000000000000000000000000000000000000000000000000000000006001600160a01b03165afa801560a5576000901560d6575060203d602011609f575b601f19601f820116608001906080821067ffffffffffffffff83111760895760859160405260800160b1565b60d6565b634e487b7160e01b600052604160045260246000fd5b503d6059565b6040513d6000823e3d90fd5b602090607f19011260d1576080516001600160a01b038116810360d15790565b600080fd5b60008091368280378136915af43d6000803e1560f1573d6000f35b3d6000fdfea2646970667358221220ee131cc7c04d65d12ed76177154633df59d08e97ac367e31afe0c874103bd24764736f6c634300081c00339016d09d72d40fdae2fd8ceac6b6234c7706214fd39c1cd1e609a0528c19930002dd7bc7dec4dceedda775e58dd541e08a116c6c53815c0bd028192f7b626800f0c57e16840df040f15088dc2f81fe391c3923bec73e23a9662efc9c229c6a00237e158222e3e6968b72b9db0d8043aacf074ad9f650f0d1606b4d82ee432c00a2646970667358221220ed3327a0d8a58e707675d49eb23fbb7ad6a9e565d5315aecb44274f4fbc7b45a64736f6c634300081c0033",
  "linkReferences": {},
  "deployedLinkReferences": {}
}