{
  "_format": "hh-sol-artifact-1",
  "contractName": "MockBaseToken",
  "sourceName": "contracts/test-helpers/MockBaseToken.sol",
  "abi": [
    {
      "inputs": [
        {
          "internalType": "address",
          "name": "_sharedBridgeMock",
          "type": "address"
        }
      ],
      "stateMutability": "nonpayable",
      "type": "constructor"
    },
    {
      "anonymous": false,
      "inputs": [
        {
          "indexed": true,
          "internalType": "address",
          "name": "_l2Sender",
          "type": "address"
        },
        {
          "indexed": true,
          "internalType": "address",
          "name": "_l1Receiver",
          "type": "address"
        },
        {
          "indexed": false,
          "internalType": "uint256",
          "name": "_amount",
          "type": "uint256"
        },
        {
          "indexed": false,
          "internalType": "bytes",
          "name": "_additionalData",
          "type": "bytes"
        }
      ],
      "name": "WithdrawalWithMessage",
      "type": "event"
    },
    {
      "stateMutability": "payable",
      "type": "fallback"
    },
    {
      "inputs": [],
      "name": "sharedBridgeMock",
      "outputs": [
        {
          "internalType": "contract ISharedBridge",
          "name": "",
          "type": "address"
        }
      ],
      "stateMutability": "view",
      "type": "function"
    },
    {
      "inputs": [
        {
          "internalType": "address",
          "name": "_l1Receiver",
          "type": "address"
        },
        {
          "internalType": "bytes",
          "name": "_additionalData",
          "type": "bytes"
        }
      ],
      "name": "withdrawWithMessage",
      "outputs": [],
      "stateMutability": "payable",
      "type": "function"
    },
    {
      "stateMutability": "payable",
      "type": "receive"
    }
  ],
  "bytecode": "0x60a034606e57601f6102c838819003918201601f19168301916001600160401b03831184841017607357808492602094604052833981010312606e57516001600160a01b03811690819003606e5760805260405161023e908161008a8239608051818181609601526101b80152f35b600080fd5b634e487b7160e01b600052604160045260246000fdfe6080806040526004361015610011575b005b600090813560e01c90816354948c53146101a457506384bc3eb00361000f5760403660031901126101a1576004356001600160a01b0381169081900361019f5760243567ffffffffffffffff811161019b573660238201121561019b5780600401359067ffffffffffffffff82116101975760248101906024833692010111610197577f00000000000000000000000000000000000000000000000000000000000000006001600160a01b0316803b15610193578460405180926308c05d2160e11b8252336004830152866024830152346044830152608060648301528183816100ff608482018a8a6101e7565b03925af1801561018857610156575b506101507fc405fe8958410bbaf0c73b7a0c3e20859e86ca168a4c9b0def9c54d2555a306b9160405191829134835260406020840152339560408401916101e7565b0390a380f35b67ffffffffffffffff8195929511610174576040529261015061010e565b634e487b7160e01b82526041600452602482fd5b6040513d87823e3d90fd5b8480fd5b8380fd5b8280fd5b505b80fd5b90503461019f578160031936011261019f577f00000000000000000000000000000000000000000000000000000000000000006001600160a01b03168152602090f35b908060209392818452848401376000828201840152601f01601f191601019056fea2646970667358221220e67b3c23ca7c16f9ab39b9a035fe52073c30ec458ab17cefbcc49ae9c1fcb3d664736f6c634300081c0033",
  "linkReferences": {},
  "deployedLinkReferences": {}
}