{
  "_format": "hh-sol-artifact-1",
  "contractName": "MockZkSyncAliasMessageInvoker",
  "sourceName": "contracts/test-helpers/MockZkSyncAliasMessageInvoker.sol",
  "abi": [
    {
      "inputs": [
        {
          "internalType": "address",
          "name": "_l2Address",
          "type": "address"
        }
      ],
      "name": "getL1Address",
      "outputs": [
        {
          "internalType": "address",
          "name": "",
          "type": "address"
        }
      ],
      "stateMutability": "pure",
      "type": "function"
    },
    {
      "inputs": [
        {
          "internalType": "address",
          "name": "_l1Address",
          "type": "address"
        }
      ],
      "name": "getL2Alias",
      "outputs": [
        {
          "internalType": "address",
          "name": "",
          "type": "address"
        }
      ],
      "stateMutability": "pure",
      "type": "function"
    },
    {
      "inputs": [
        {
          "internalType": "address payable",
          "name": "_destination",
          "type": "address"
        },
        {
          "internalType": "bytes",
          "name": "_msgData",
          "type": "bytes"
        }
      ],
      "name": "invoke",
      "outputs": [],
      "stateMutability": "payable",
      "type": "function"
    },
    {
      "stateMutability": "payable",
      "type": "receive"
    }
  ],
  "bytecode": "0x60808060405234601557610226908161001b8239f35b600080fdfe6080604052600436101561001b575b361561001957600080fd5b005b60003560e01c8063216555481461004b5780639bb66b28146100465763a969804d0361000e5761019a565b61009f565b34610089576020366003190112610089576004356100688161008e565b6001600160a01b0390811661111161111160901b0101166080908152602090f35b600080fd5b6001600160a01b0381160361008957565b6040366003190112610089576004356100b78161008e565b60243567ffffffffffffffff811161008957366023820112156100895780600401359167ffffffffffffffff8311610089573660248484010111610089576024600093928385946040519384930183378101848152039134906001600160a01b03165af13d15610192573d9067ffffffffffffffff821161018d5760405191601f8101601f19908116603f0116830167ffffffffffffffff81118482101761018d5760405282523d6000602084013e5b158080610183575b1561017d5750805190602001fd5b61008957005b508151151561016f565b6101da565b606090610167565b346100895760203660031901126100895760206004356101b98161008e565b6040516001600160a01b0391821661111061111160901b0119019091168152f35b634e487b7160e01b600052604160045260246000fdfea2646970667358221220cce40c61be194a185161e5b1b17a3c8008ca6b275461463fb163b0d120796a6364736f6c634300081c0033",
  "linkReferences": {},
  "deployedLinkReferences": {}
}