{
  "_format": "hh-sol-artifact-1",
  "contractName": "Staking",
  "sourceName": "contracts/Staking.sol",
  "abi": [
    {
      "inputs": [],
      "name": "AccessControlBadConfirmation",
      "type": "error"
    },
    {
      "inputs": [
        {
          "internalType": "address",
          "name": "account",
          "type": "address"
        },
        {
          "internalType": "bytes32",
          "name": "neededRole",
          "type": "bytes32"
        }
      ],
      "name": "AccessControlUnauthorizedAccount",
      "type": "error"
    },
    {
      "inputs": [],
      "name": "DeepthoughtCallFailed",
      "type": "error"
    },
    {
      "inputs": [],
      "name": "DelegatorBelowMinimumStake",
      "type": "error"
    },
    {
      "inputs": [],
      "name": "DelegatorExitExceedsShares",
      "type": "error"
    },
    {
      "inputs": [],
      "name": "DelegatorExitWouldBeBelowMinimum",
      "type": "error"
    },
    {
      "inputs": [],
      "name": "DelegatorMayNotJoinTwoValidatorsSimultaneously",
      "type": "error"
    },
    {
      "inputs": [],
      "name": "DelegatorMayNotJoinWithZeroValue",
      "type": "error"
    },
    {
      "inputs": [],
      "name": "EpochAdvanceNotReady",
      "type": "error"
    },
    {
      "inputs": [],
      "name": "EpochAlreadyFinalized",
      "type": "error"
    },
    {
      "inputs": [],
      "name": "EpochNotFinalized",
      "type": "error"
    },
    {
      "inputs": [],
      "name": "EpochNotFinished",
      "type": "error"
    },
    {
      "inputs": [
        {
          "internalType": "address",
          "name": "validator",
          "type": "address"
        }
      ],
      "name": "FailedTransfer",
      "type": "error"
    },
    {
      "inputs": [],
      "name": "InflationAlreadyInitialized",
      "type": "error"
    },
    {
      "inputs": [],
      "name": "InflationAlreadyReceived",
      "type": "error"
    },
    {
      "inputs": [],
      "name": "InflationInvalidAmount",
      "type": "error"
    },
    {
      "inputs": [],
      "name": "InvalidAtEpoch",
      "type": "error"
    },
    {
      "inputs": [],
      "name": "InvalidInitialization",
      "type": "error"
    },
    {
      "inputs": [],
      "name": "InvalidOperatorAddress",
      "type": "error"
    },
    {
      "inputs": [],
      "name": "MaxNumberOfValidatorsReached",
      "type": "error"
    },
    {
      "inputs": [],
      "name": "MaxValidatorsCannotBeZero",
      "type": "error"
    },
    {
      "inputs": [],
      "name": "NFTMinterCallFailed",
      "type": "error"
    },
    {
      "inputs": [],
      "name": "NFTMinterNotConfigured",
      "type": "error"
    },
    {
      "inputs": [],
      "name": "NoBurning",
      "type": "error"
    },
    {
      "inputs": [],
      "name": "NotInitializing",
      "type": "error"
    },
    {
      "inputs": [],
      "name": "NumberOfValidatorsExceedsAvailable",
      "type": "error"
    },
    {
      "inputs": [],
      "name": "OnlyGEN",
      "type": "error"
    },
    {
      "inputs": [],
      "name": "OnlyIdleness",
      "type": "error"
    },
    {
      "inputs": [],
      "name": "OnlyIdlenessOrTribunal",
      "type": "error"
    },
    {
      "inputs": [],
      "name": "OnlyTransactions",
      "type": "error"
    },
    {
      "inputs": [],
      "name": "OnlyTransactionsOrTribunal",
      "type": "error"
    },
    {
      "inputs": [],
      "name": "OnlyTribunal",
      "type": "error"
    },
    {
      "inputs": [],
      "name": "OperatorAlreadyAssigned",
      "type": "error"
    },
    {
      "inputs": [
        {
          "internalType": "address",
          "name": "owner",
          "type": "address"
        }
      ],
      "name": "OwnableInvalidOwner",
      "type": "error"
    },
    {
      "inputs": [
        {
          "internalType": "address",
          "name": "account",
          "type": "address"
        }
      ],
      "name": "OwnableUnauthorizedAccount",
      "type": "error"
    },
    {
      "inputs": [
        {
          "internalType": "uint256",
          "name": "epoch",
          "type": "uint256"
        }
      ],
      "name": "PendingTribunals",
      "type": "error"
    },
    {
      "inputs": [],
      "name": "PreviousEpochNotFinalizable",
      "type": "error"
    },
    {
      "inputs": [],
      "name": "ReductionFactorCannotBeZero",
      "type": "error"
    },
    {
      "inputs": [],
      "name": "ReentrancyGuardReentrantCall",
      "type": "error"
    },
    {
      "inputs": [],
      "name": "ValidatorAlreadyJoined",
      "type": "error"
    },
    {
      "inputs": [],
      "name": "ValidatorBelowMinimumStake",
      "type": "error"
    },
    {
      "inputs": [],
      "name": "ValidatorExitExceedsShares",
      "type": "error"
    },
    {
      "inputs": [],
      "name": "ValidatorMayNotBeDelegator",
      "type": "error"
    },
    {
      "inputs": [],
      "name": "ValidatorMayNotDepositZeroValue",
      "type": "error"
    },
    {
      "inputs": [],
      "name": "ValidatorMayNotJoinWithZeroValue",
      "type": "error"
    },
    {
      "inputs": [],
      "name": "ValidatorMustNotBeDelegator",
      "type": "error"
    },
    {
      "inputs": [],
      "name": "ValidatorNotActive",
      "type": "error"
    },
    {
      "inputs": [],
      "name": "ValidatorNotJoined",
      "type": "error"
    },
    {
      "inputs": [],
      "name": "ValidatorWithdrawalExceedsStake",
      "type": "error"
    },
    {
      "inputs": [],
      "name": "ValidatorsConsumed",
      "type": "error"
    },
    {
      "inputs": [],
      "name": "ValidatorsUnavailable",
      "type": "error"
    },
    {
      "anonymous": false,
      "inputs": [],
      "name": "AllValidatorBansRemoved",
      "type": "event"
    },
    {
      "anonymous": false,
      "inputs": [
        {
          "indexed": false,
          "internalType": "uint256",
          "name": "amount",
          "type": "uint256"
        }
      ],
      "name": "BurnToL1",
      "type": "event"
    },
    {
      "anonymous": false,
      "inputs": [
        {
          "indexed": false,
          "internalType": "address",
          "name": "delegator",
          "type": "address"
        },
        {
          "indexed": false,
          "internalType": "uint256",
          "name": "amount",
          "type": "uint256"
        }
      ],
      "name": "DelegatorClaim",
      "type": "event"
    },
    {
      "anonymous": false,
      "inputs": [
        {
          "indexed": false,
          "internalType": "address",
          "name": "validator",
          "type": "address"
        },
        {
          "indexed": false,
          "internalType": "address",
          "name": "delegator",
          "type": "address"
        },
        {
          "indexed": false,
          "internalType": "uint256",
          "name": "amount",
          "type": "uint256"
        }
      ],
      "name": "DelegatorExit",
      "type": "event"
    },
    {
      "anonymous": false,
      "inputs": [
        {
          "indexed": false,
          "internalType": "address",
          "name": "validator",
          "type": "address"
        },
        {
          "indexed": false,
          "internalType": "address",
          "name": "delegator",
          "type": "address"
        },
        {
          "indexed": false,
          "internalType": "uint256",
          "name": "amount",
          "type": "uint256"
        }
      ],
      "name": "DelegatorJoin",
      "type": "event"
    },
    {
      "anonymous": false,
      "inputs": [
        {
          "indexed": false,
          "internalType": "uint256",
          "name": "epoch",
          "type": "uint256"
        }
      ],
      "name": "EpochAdvance",
      "type": "event"
    },
    {
      "anonymous": false,
      "inputs": [
        {
          "indexed": false,
          "internalType": "uint256",
          "name": "epoch",
          "type": "uint256"
        }
      ],
      "name": "EpochFinalize",
      "type": "event"
    },
    {
      "anonymous": false,
      "inputs": [
        {
          "indexed": false,
          "internalType": "uint256",
          "name": "epoch",
          "type": "uint256"
        }
      ],
      "name": "EpochHasPendingTribunals",
      "type": "event"
    },
    {
      "anonymous": false,
      "inputs": [
        {
          "indexed": false,
          "internalType": "uint256",
          "name": "timestamp",
          "type": "uint256"
        }
      ],
      "name": "EpochZeroEnded",
      "type": "event"
    },
    {
      "anonymous": false,
      "inputs": [
        {
          "indexed": false,
          "internalType": "uint256",
          "name": "timestamp",
          "type": "uint256"
        }
      ],
      "name": "InflationInitiated",
      "type": "event"
    },
    {
      "anonymous": false,
      "inputs": [
        {
          "indexed": false,
          "internalType": "uint256",
          "name": "amount",
          "type": "uint256"
        },
        {
          "indexed": false,
          "internalType": "uint256",
          "name": "epoch",
          "type": "uint256"
        }
      ],
      "name": "InflationReceived",
      "type": "event"
    },
    {
      "anonymous": false,
      "inputs": [
        {
          "indexed": false,
          "internalType": "uint64",
          "name": "version",
          "type": "uint64"
        }
      ],
      "name": "Initialized",
      "type": "event"
    },
    {
      "anonymous": false,
      "inputs": [
        {
          "indexed": true,
          "internalType": "address",
          "name": "previousOwner",
          "type": "address"
        },
        {
          "indexed": true,
          "internalType": "address",
          "name": "newOwner",
          "type": "address"
        }
      ],
      "name": "OwnershipTransferStarted",
      "type": "event"
    },
    {
      "anonymous": false,
      "inputs": [
        {
          "indexed": true,
          "internalType": "address",
          "name": "previousOwner",
          "type": "address"
        },
        {
          "indexed": true,
          "internalType": "address",
          "name": "newOwner",
          "type": "address"
        }
      ],
      "name": "OwnershipTransferred",
      "type": "event"
    },
    {
      "anonymous": false,
      "inputs": [
        {
          "indexed": true,
          "internalType": "bytes32",
          "name": "role",
          "type": "bytes32"
        },
        {
          "indexed": true,
          "internalType": "bytes32",
          "name": "previousAdminRole",
          "type": "bytes32"
        },
        {
          "indexed": true,
          "internalType": "bytes32",
          "name": "newAdminRole",
          "type": "bytes32"
        }
      ],
      "name": "RoleAdminChanged",
      "type": "event"
    },
    {
      "anonymous": false,
      "inputs": [
        {
          "indexed": true,
          "internalType": "bytes32",
          "name": "role",
          "type": "bytes32"
        },
        {
          "indexed": true,
          "internalType": "address",
          "name": "account",
          "type": "address"
        },
        {
          "indexed": true,
          "internalType": "address",
          "name": "sender",
          "type": "address"
        }
      ],
      "name": "RoleGranted",
      "type": "event"
    },
    {
      "anonymous": false,
      "inputs": [
        {
          "indexed": true,
          "internalType": "bytes32",
          "name": "role",
          "type": "bytes32"
        },
        {
          "indexed": true,
          "internalType": "address",
          "name": "account",
          "type": "address"
        },
        {
          "indexed": true,
          "internalType": "address",
          "name": "sender",
          "type": "address"
        }
      ],
      "name": "RoleRevoked",
      "type": "event"
    },
    {
      "anonymous": false,
      "inputs": [
        {
          "indexed": false,
          "internalType": "address",
          "name": "deepthought",
          "type": "address"
        }
      ],
      "name": "SetDeepthought",
      "type": "event"
    },
    {
      "anonymous": false,
      "inputs": [
        {
          "indexed": false,
          "internalType": "uint256",
          "name": "delegatorMinStake",
          "type": "uint256"
        }
      ],
      "name": "SetDelegatorMinimumStake",
      "type": "event"
    },
    {
      "anonymous": false,
      "inputs": [
        {
          "indexed": false,
          "internalType": "uint256",
          "name": "epochMinDuration",
          "type": "uint256"
        }
      ],
      "name": "SetEpochMinDuration",
      "type": "event"
    },
    {
      "anonymous": false,
      "inputs": [
        {
          "indexed": false,
          "internalType": "uint256",
          "name": "epochMinDurationThreshold",
          "type": "uint256"
        }
      ],
      "name": "SetEpochMinDurationThreshold",
      "type": "event"
    },
    {
      "anonymous": false,
      "inputs": [
        {
          "indexed": false,
          "internalType": "uint256",
          "name": "epochZeroMinDuration",
          "type": "uint256"
        }
      ],
      "name": "SetEpochZeroMinDuration",
      "type": "event"
    },
    {
      "anonymous": false,
      "inputs": [
        {
          "indexed": false,
          "internalType": "address",
          "name": "gen",
          "type": "address"
        }
      ],
      "name": "SetGen",
      "type": "event"
    },
    {
      "anonymous": false,
      "inputs": [
        {
          "indexed": false,
          "internalType": "uint256",
          "name": "maxValidators",
          "type": "uint256"
        }
      ],
      "name": "SetMaxValidators",
      "type": "event"
    },
    {
      "anonymous": false,
      "inputs": [
        {
          "indexed": false,
          "internalType": "uint256",
          "name": "reductionFactor",
          "type": "uint256"
        }
      ],
      "name": "SetReductionFactor",
      "type": "event"
    },
    {
      "anonymous": false,
      "inputs": [
        {
          "indexed": false,
          "internalType": "address",
          "name": "stakingInvariant",
          "type": "address"
        }
      ],
      "name": "SetStakingInvariant",
      "type": "event"
    },
    {
      "anonymous": false,
      "inputs": [
        {
          "indexed": false,
          "internalType": "uint256",
          "name": "delegatorUnbondingPeriod",
          "type": "uint256"
        },
        {
          "indexed": false,
          "internalType": "uint256",
          "name": "validatorUnbondingPeriod",
          "type": "uint256"
        }
      ],
      "name": "SetUnbondingPeriods",
      "type": "event"
    },
    {
      "anonymous": false,
      "inputs": [
        {
          "indexed": false,
          "internalType": "uint256",
          "name": "validatorMinStake",
          "type": "uint256"
        }
      ],
      "name": "SetValidatorMinimumStake",
      "type": "event"
    },
    {
      "anonymous": false,
      "inputs": [
        {
          "indexed": false,
          "internalType": "uint256",
          "name": "alpha",
          "type": "uint256"
        },
        {
          "indexed": false,
          "internalType": "uint256",
          "name": "beta",
          "type": "uint256"
        }
      ],
      "name": "SetValidatorWeightParams",
      "type": "event"
    },
    {
      "anonymous": false,
      "inputs": [
        {
          "indexed": false,
          "internalType": "address",
          "name": "validator",
          "type": "address"
        }
      ],
      "name": "ValidatorBanRemoved",
      "type": "event"
    },
    {
      "anonymous": false,
      "inputs": [
        {
          "indexed": false,
          "internalType": "address",
          "name": "validator",
          "type": "address"
        }
      ],
      "name": "ValidatorBannedDeterministic",
      "type": "event"
    },
    {
      "anonymous": false,
      "inputs": [
        {
          "indexed": false,
          "internalType": "address",
          "name": "validator",
          "type": "address"
        },
        {
          "indexed": false,
          "internalType": "uint256",
          "name": "bannedAt",
          "type": "uint256"
        },
        {
          "indexed": false,
          "internalType": "uint256",
          "name": "bannedUntil",
          "type": "uint256"
        }
      ],
      "name": "ValidatorBannedIdleness",
      "type": "event"
    },
    {
      "anonymous": false,
      "inputs": [
        {
          "indexed": false,
          "internalType": "address",
          "name": "validator",
          "type": "address"
        },
        {
          "indexed": false,
          "internalType": "uint256",
          "name": "amount",
          "type": "uint256"
        }
      ],
      "name": "ValidatorClaim",
      "type": "event"
    },
    {
      "anonymous": false,
      "inputs": [
        {
          "indexed": false,
          "internalType": "address",
          "name": "validator",
          "type": "address"
        },
        {
          "indexed": false,
          "internalType": "uint256",
          "name": "amount",
          "type": "uint256"
        }
      ],
      "name": "ValidatorDeposit",
      "type": "event"
    },
    {
      "anonymous": false,
      "inputs": [
        {
          "indexed": false,
          "internalType": "address",
          "name": "validator",
          "type": "address"
        },
        {
          "indexed": false,
          "internalType": "uint256",
          "name": "amount",
          "type": "uint256"
        }
      ],
      "name": "ValidatorExit",
      "type": "event"
    },
    {
      "anonymous": false,
      "inputs": [
        {
          "indexed": false,
          "internalType": "address",
          "name": "operator",
          "type": "address"
        },
        {
          "indexed": false,
          "internalType": "address",
          "name": "validator",
          "type": "address"
        },
        {
          "indexed": false,
          "internalType": "uint256",
          "name": "amount",
          "type": "uint256"
        }
      ],
      "name": "ValidatorJoin",
      "type": "event"
    },
    {
      "anonymous": false,
      "inputs": [
        {
          "indexed": false,
          "internalType": "address",
          "name": "validator",
          "type": "address"
        },
        {
          "indexed": false,
          "internalType": "uint256",
          "name": "epoch",
          "type": "uint256"
        },
        {
          "indexed": false,
          "internalType": "uint256",
          "name": "validatorRewards",
          "type": "uint256"
        },
        {
          "indexed": false,
          "internalType": "uint256",
          "name": "delegatorRewards",
          "type": "uint256"
        }
      ],
      "name": "ValidatorPrime",
      "type": "event"
    },
    {
      "anonymous": false,
      "inputs": [
        {
          "indexed": false,
          "internalType": "address",
          "name": "validator",
          "type": "address"
        }
      ],
      "name": "ValidatorQuarantineRemoved",
      "type": "event"
    },
    {
      "anonymous": false,
      "inputs": [
        {
          "indexed": false,
          "internalType": "address",
          "name": "validator",
          "type": "address"
        }
      ],
      "name": "ValidatorQuarantineRepealed",
      "type": "event"
    },
    {
      "anonymous": false,
      "inputs": [
        {
          "indexed": false,
          "internalType": "address",
          "name": "validator",
          "type": "address"
        },
        {
          "indexed": false,
          "internalType": "uint256",
          "name": "quarantinedAt",
          "type": "uint256"
        }
      ],
      "name": "ValidatorQuarantined",
      "type": "event"
    },
    {
      "anonymous": false,
      "inputs": [
        {
          "indexed": false,
          "internalType": "address",
          "name": "validator",
          "type": "address"
        },
        {
          "indexed": false,
          "internalType": "uint256",
          "name": "validatorSlashing",
          "type": "uint256"
        },
        {
          "indexed": false,
          "internalType": "uint256",
          "name": "delegatorSlashing",
          "type": "uint256"
        },
        {
          "indexed": false,
          "internalType": "uint256",
          "name": "epoch",
          "type": "uint256"
        }
      ],
      "name": "ValidatorSlash",
      "type": "event"
    },
    {
      "inputs": [],
      "name": "BASE_TOKEN",
      "outputs": [
        {
          "internalType": "contract IBaseToken",
          "name": "",
          "type": "address"
        }
      ],
      "stateMutability": "view",
      "type": "function"
    },
    {
      "inputs": [],
      "name": "DEFAULT_ADMIN_ROLE",
      "outputs": [
        {
          "internalType": "bytes32",
          "name": "",
          "type": "bytes32"
        }
      ],
      "stateMutability": "view",
      "type": "function"
    },
    {
      "inputs": [],
      "name": "DEFAULT_DELEGATOR_MIN_STAKE",
      "outputs": [
        {
          "internalType": "uint256",
          "name": "",
          "type": "uint256"
        }
      ],
      "stateMutability": "view",
      "type": "function"
    },
    {
      "inputs": [],
      "name": "DEFAULT_VALIDATOR_MIN_STAKE",
      "outputs": [
        {
          "internalType": "uint256",
          "name": "",
          "type": "uint256"
        }
      ],
      "stateMutability": "view",
      "type": "function"
    },
    {
      "inputs": [],
      "name": "DELEGATOR_UNBONDING_PERIOD",
      "outputs": [
        {
          "internalType": "uint256",
          "name": "",
          "type": "uint256"
        }
      ],
      "stateMutability": "view",
      "type": "function"
    },
    {
      "inputs": [],
      "name": "INFLATION_BASE",
      "outputs": [
        {
          "internalType": "uint256",
          "name": "",
          "type": "uint256"
        }
      ],
      "stateMutability": "view",
      "type": "function"
    },
    {
      "inputs": [],
      "name": "INFLATION_DEEPTHOUGHT_BPS",
      "outputs": [
        {
          "internalType": "uint256",
          "name": "",
          "type": "uint256"
        }
      ],
      "stateMutability": "view",
      "type": "function"
    },
    {
      "inputs": [],
      "name": "INFLATION_DEVELOPER_BPS",
      "outputs": [
        {
          "internalType": "uint256",
          "name": "",
          "type": "uint256"
        }
      ],
      "stateMutability": "view",
      "type": "function"
    },
    {
      "inputs": [],
      "name": "INFLATION_FINAL",
      "outputs": [
        {
          "internalType": "uint256",
          "name": "",
          "type": "uint256"
        }
      ],
      "stateMutability": "view",
      "type": "function"
    },
    {
      "inputs": [],
      "name": "INFLATION_INITIAL",
      "outputs": [
        {
          "internalType": "uint256",
          "name": "",
          "type": "uint256"
        }
      ],
      "stateMutability": "view",
      "type": "function"
    },
    {
      "inputs": [],
      "name": "INFLATION_MID",
      "outputs": [
        {
          "internalType": "int256",
          "name": "",
          "type": "int256"
        }
      ],
      "stateMutability": "view",
      "type": "function"
    },
    {
      "inputs": [],
      "name": "INFLATION_STAKER_BPS",
      "outputs": [
        {
          "internalType": "uint256",
          "name": "",
          "type": "uint256"
        }
      ],
      "stateMutability": "view",
      "type": "function"
    },
    {
      "inputs": [],
      "name": "INFLATION_STEEPNESS",
      "outputs": [
        {
          "internalType": "int256",
          "name": "",
          "type": "int256"
        }
      ],
      "stateMutability": "view",
      "type": "function"
    },
    {
      "inputs": [],
      "name": "INFLATION_VALIDATOR_BPS",
      "outputs": [
        {
          "internalType": "uint256",
          "name": "",
          "type": "uint256"
        }
      ],
      "stateMutability": "view",
      "type": "function"
    },
    {
      "inputs": [],
      "name": "QUARANTINE_MANAGER_ROLE",
      "outputs": [
        {
          "internalType": "bytes32",
          "name": "",
          "type": "bytes32"
        }
      ],
      "stateMutability": "view",
      "type": "function"
    },
    {
      "inputs": [],
      "name": "VALIDATOR_UNBONDING_PERIOD",
      "outputs": [
        {
          "internalType": "uint256",
          "name": "",
          "type": "uint256"
        }
      ],
      "stateMutability": "view",
      "type": "function"
    },
    {
      "inputs": [],
      "name": "acceptOwnership",
      "outputs": [],
      "stateMutability": "nonpayable",
      "type": "function"
    },
    {
      "inputs": [],
      "name": "activeValidators",
      "outputs": [
        {
          "internalType": "address[]",
          "name": "",
          "type": "address[]"
        }
      ],
      "stateMutability": "view",
      "type": "function"
    },
    {
      "inputs": [],
      "name": "activeValidatorsCount",
      "outputs": [
        {
          "internalType": "uint256",
          "name": "",
          "type": "uint256"
        }
      ],
      "stateMutability": "view",
      "type": "function"
    },
    {
      "inputs": [],
      "name": "activeWeights",
      "outputs": [
        {
          "internalType": "uint256[]",
          "name": "",
          "type": "uint256[]"
        }
      ],
      "stateMutability": "view",
      "type": "function"
    },
    {
      "inputs": [],
      "name": "burn",
      "outputs": [],
      "stateMutability": "nonpayable",
      "type": "function"
    },
    {
      "inputs": [],
      "name": "burning",
      "outputs": [
        {
          "internalType": "uint256",
          "name": "",
          "type": "uint256"
        }
      ],
      "stateMutability": "view",
      "type": "function"
    },
    {
      "inputs": [],
      "name": "calculateTotalSystemStake",
      "outputs": [
        {
          "internalType": "uint256",
          "name": "",
          "type": "uint256"
        }
      ],
      "stateMutability": "view",
      "type": "function"
    },
    {
      "inputs": [],
      "name": "canAdvance",
      "outputs": [
        {
          "internalType": "bool",
          "name": "",
          "type": "bool"
        }
      ],
      "stateMutability": "view",
      "type": "function"
    },
    {
      "inputs": [],
      "name": "canFinalize",
      "outputs": [
        {
          "internalType": "bool",
          "name": "",
          "type": "bool"
        }
      ],
      "stateMutability": "view",
      "type": "function"
    },
    {
      "inputs": [],
      "name": "cleanupExpiredQuarantines",
      "outputs": [],
      "stateMutability": "nonpayable",
      "type": "function"
    },
    {
      "inputs": [],
      "name": "contracts",
      "outputs": [
        {
          "internalType": "address",
          "name": "gen",
          "type": "address"
        },
        {
          "internalType": "address",
          "name": "transactions",
          "type": "address"
        },
        {
          "internalType": "address",
          "name": "idleness",
          "type": "address"
        },
        {
          "internalType": "address",
          "name": "tribunal",
          "type": "address"
        },
        {
          "internalType": "address",
          "name": "slashing",
          "type": "address"
        },
        {
          "internalType": "address",
          "name": "consensus",
          "type": "address"
        },
        {
          "internalType": "address",
          "name": "validatorWalletFactory",
          "type": "address"
        },
        {
          "internalType": "address payable",
          "name": "nftMinter",
          "type": "address"
        }
      ],
      "stateMutability": "view",
      "type": "function"
    },
    {
      "inputs": [],
      "name": "deepthought",
      "outputs": [
        {
          "internalType": "address payable",
          "name": "",
          "type": "address"
        }
      ],
      "stateMutability": "view",
      "type": "function"
    },
    {
      "inputs": [
        {
          "internalType": "uint256",
          "name": "_inflation",
          "type": "uint256"
        }
      ],
      "name": "deepthoughtInflation",
      "outputs": [
        {
          "internalType": "uint256",
          "name": "",
          "type": "uint256"
        }
      ],
      "stateMutability": "pure",
      "type": "function"
    },
    {
      "inputs": [
        {
          "internalType": "address",
          "name": "_delegator",
          "type": "address"
        },
        {
          "internalType": "address",
          "name": "_validator",
          "type": "address"
        }
      ],
      "name": "delegatorClaim",
      "outputs": [],
      "stateMutability": "nonpayable",
      "type": "function"
    },
    {
      "inputs": [
        {
          "internalType": "address",
          "name": "_delegator",
          "type": "address"
        },
        {
          "internalType": "address",
          "name": "_validator",
          "type": "address"
        }
      ],
      "name": "delegatorClean",
      "outputs": [],
      "stateMutability": "nonpayable",
      "type": "function"
    },
    {
      "inputs": [
        {
          "internalType": "address",
          "name": "_delegator",
          "type": "address"
        }
      ],
      "name": "delegatorDelegations",
      "outputs": [
        {
          "internalType": "address[]",
          "name": "",
          "type": "address[]"
        }
      ],
      "stateMutability": "view",
      "type": "function"
    },
    {
      "inputs": [
        {
          "internalType": "address",
          "name": "_delegator",
          "type": "address"
        },
        {
          "internalType": "address",
          "name": "_validator",
          "type": "address"
        },
        {
          "internalType": "uint256",
          "name": "_index",
          "type": "uint256"
        }
      ],
      "name": "delegatorDeposit",
      "outputs": [
        {
          "components": [
            {
              "internalType": "uint256",
              "name": "quantity",
              "type": "uint256"
            },
            {
              "internalType": "uint256",
              "name": "commit",
              "type": "uint256"
            }
          ],
          "internalType": "struct IGenLayerStaking.Claim",
          "name": "claim_",
          "type": "tuple"
        },
        {
          "components": [
            {
              "internalType": "uint256",
              "name": "input",
              "type": "uint256"
            },
            {
              "internalType": "uint256",
              "name": "output",
              "type": "uint256"
            },
            {
              "internalType": "uint256",
              "name": "epoch",
              "type": "uint256"
            },
            {
              "internalType": "uint256",
              "name": "linkToNextCommit",
              "type": "uint256"
            }
          ],
          "internalType": "struct IGenLayerStaking.Commit",
          "name": "commit_",
          "type": "tuple"
        }
      ],
      "stateMutability": "view",
      "type": "function"
    },
    {
      "inputs": [
        {
          "internalType": "address",
          "name": "_delegator",
          "type": "address"
        },
        {
          "internalType": "address",
          "name": "_validator",
          "type": "address"
        },
        {
          "internalType": "uint256",
          "name": "_epoch",
          "type": "uint256"
        }
      ],
      "name": "delegatorDepositByEpoch",
      "outputs": [
        {
          "components": [
            {
              "internalType": "uint256",
              "name": "input",
              "type": "uint256"
            },
            {
              "internalType": "uint256",
              "name": "output",
              "type": "uint256"
            },
            {
              "internalType": "uint256",
              "name": "epoch",
              "type": "uint256"
            },
            {
              "internalType": "uint256",
              "name": "linkToNextCommit",
              "type": "uint256"
            }
          ],
          "internalType": "struct IGenLayerStaking.Commit",
          "name": "commit_",
          "type": "tuple"
        }
      ],
      "stateMutability": "view",
      "type": "function"
    },
    {
      "inputs": [
        {
          "internalType": "address",
          "name": "_delegator",
          "type": "address"
        },
        {
          "internalType": "address",
          "name": "_validator",
          "type": "address"
        }
      ],
      "name": "delegatorDepositLen",
      "outputs": [
        {
          "internalType": "uint256",
          "name": "",
          "type": "uint256"
        }
      ],
      "stateMutability": "view",
      "type": "function"
    },
    {
      "inputs": [
        {
          "internalType": "address",
          "name": "_validator",
          "type": "address"
        },
        {
          "internalType": "uint256",
          "name": "_sharesExit",
          "type": "uint256"
        }
      ],
      "name": "delegatorExit",
      "outputs": [],
      "stateMutability": "nonpayable",
      "type": "function"
    },
    {
      "inputs": [
        {
          "internalType": "address",
          "name": "_validator",
          "type": "address"
        }
      ],
      "name": "delegatorJoin",
      "outputs": [],
      "stateMutability": "payable",
      "type": "function"
    },
    {
      "inputs": [],
      "name": "delegatorMinStake",
      "outputs": [
        {
          "internalType": "uint256",
          "name": "",
          "type": "uint256"
        }
      ],
      "stateMutability": "view",
      "type": "function"
    },
    {
      "inputs": [
        {
          "internalType": "address",
          "name": "_delegator",
          "type": "address"
        },
        {
          "internalType": "address",
          "name": "_validator",
          "type": "address"
        },
        {
          "internalType": "uint256",
          "name": "_index",
          "type": "uint256"
        }
      ],
      "name": "delegatorWithdrawal",
      "outputs": [
        {
          "components": [
            {
              "internalType": "uint256",
              "name": "quantity",
              "type": "uint256"
            },
            {
              "internalType": "uint256",
              "name": "commit",
              "type": "uint256"
            }
          ],
          "internalType": "struct IGenLayerStaking.Claim",
          "name": "claim_",
          "type": "tuple"
        },
        {
          "components": [
            {
              "internalType": "uint256",
              "name": "input",
              "type": "uint256"
            },
            {
              "internalType": "uint256",
              "name": "output",
              "type": "uint256"
            },
            {
              "internalType": "uint256",
              "name": "epoch",
              "type": "uint256"
            },
            {
              "internalType": "uint256",
              "name": "linkToNextCommit",
              "type": "uint256"
            }
          ],
          "internalType": "struct IGenLayerStaking.Commit",
          "name": "commit_",
          "type": "tuple"
        }
      ],
      "stateMutability": "view",
      "type": "function"
    },
    {
      "inputs": [
        {
          "internalType": "address",
          "name": "_delegator",
          "type": "address"
        },
        {
          "internalType": "address",
          "name": "_validator",
          "type": "address"
        },
        {
          "internalType": "uint256",
          "name": "_epoch",
          "type": "uint256"
        }
      ],
      "name": "delegatorWithdrawalByEpoch",
      "outputs": [
        {
          "components": [
            {
              "internalType": "uint256",
              "name": "input",
              "type": "uint256"
            },
            {
              "internalType": "uint256",
              "name": "output",
              "type": "uint256"
            },
            {
              "internalType": "uint256",
              "name": "epoch",
              "type": "uint256"
            },
            {
              "internalType": "uint256",
              "name": "linkToNextCommit",
              "type": "uint256"
            }
          ],
          "internalType": "struct IGenLayerStaking.Commit",
          "name": "commit_",
          "type": "tuple"
        }
      ],
      "stateMutability": "view",
      "type": "function"
    },
    {
      "inputs": [
        {
          "internalType": "address",
          "name": "_delegator",
          "type": "address"
        },
        {
          "internalType": "address",
          "name": "_validator",
          "type": "address"
        }
      ],
      "name": "delegatorWithdrawalLen",
      "outputs": [
        {
          "internalType": "uint256",
          "name": "",
          "type": "uint256"
        }
      ],
      "stateMutability": "view",
      "type": "function"
    },
    {
      "inputs": [
        {
          "internalType": "uint256",
          "name": "_inflation",
          "type": "uint256"
        }
      ],
      "name": "developerInflation",
      "outputs": [
        {
          "internalType": "uint256",
          "name": "",
          "type": "uint256"
        }
      ],
      "stateMutability": "pure",
      "type": "function"
    },
    {
      "inputs": [],
      "name": "epoch",
      "outputs": [
        {
          "internalType": "uint256",
          "name": "",
          "type": "uint256"
        }
      ],
      "stateMutability": "view",
      "type": "function"
    },
    {
      "inputs": [],
      "name": "epochAdvance",
      "outputs": [],
      "stateMutability": "nonpayable",
      "type": "function"
    },
    {
      "inputs": [],
      "name": "epochEven",
      "outputs": [
        {
          "internalType": "uint256",
          "name": "start",
          "type": "uint256"
        },
        {
          "internalType": "uint256",
          "name": "end",
          "type": "uint256"
        },
        {
          "internalType": "uint256",
          "name": "inflation",
          "type": "uint256"
        },
        {
          "internalType": "uint256",
          "name": "weight",
          "type": "uint256"
        },
        {
          "internalType": "uint256",
          "name": "weightDeposit",
          "type": "uint256"
        },
        {
          "internalType": "uint256",
          "name": "weightWithdrawal",
          "type": "uint256"
        },
        {
          "internalType": "uint256",
          "name": "vcount",
          "type": "uint256"
        },
        {
          "internalType": "uint256",
          "name": "claimed",
          "type": "uint256"
        },
        {
          "internalType": "uint256",
          "name": "stakeDeposit",
          "type": "uint256"
        },
        {
          "internalType": "uint256",
          "name": "stakeWithdrawal",
          "type": "uint256"
        },
        {
          "internalType": "uint256",
          "name": "slashed",
          "type": "uint256"
        }
      ],
      "stateMutability": "view",
      "type": "function"
    },
    {
      "inputs": [],
      "name": "epochExtraMinDuration",
      "outputs": [
        {
          "internalType": "uint256",
          "name": "",
          "type": "uint256"
        }
      ],
      "stateMutability": "view",
      "type": "function"
    },
    {
      "inputs": [],
      "name": "epochFinalize",
      "outputs": [],
      "stateMutability": "nonpayable",
      "type": "function"
    },
    {
      "inputs": [],
      "name": "epochFinalizeImmediate",
      "outputs": [],
      "stateMutability": "nonpayable",
      "type": "function"
    },
    {
      "inputs": [
        {
          "internalType": "uint256",
          "name": "_epoch",
          "type": "uint256"
        }
      ],
      "name": "epochInflation",
      "outputs": [
        {
          "internalType": "uint256",
          "name": "",
          "type": "uint256"
        }
      ],
      "stateMutability": "view",
      "type": "function"
    },
    {
      "inputs": [],
      "name": "epochMinDuration",
      "outputs": [
        {
          "internalType": "uint256",
          "name": "",
          "type": "uint256"
        }
      ],
      "stateMutability": "view",
      "type": "function"
    },
    {
      "inputs": [],
      "name": "epochMinDurationThreshold",
      "outputs": [
        {
          "internalType": "uint256",
          "name": "",
          "type": "uint256"
        }
      ],
      "stateMutability": "view",
      "type": "function"
    },
    {
      "inputs": [],
      "name": "epochOdd",
      "outputs": [
        {
          "internalType": "uint256",
          "name": "start",
          "type": "uint256"
        },
        {
          "internalType": "uint256",
          "name": "end",
          "type": "uint256"
        },
        {
          "internalType": "uint256",
          "name": "inflation",
          "type": "uint256"
        },
        {
          "internalType": "uint256",
          "name": "weight",
          "type": "uint256"
        },
        {
          "internalType": "uint256",
          "name": "weightDeposit",
          "type": "uint256"
        },
        {
          "internalType": "uint256",
          "name": "weightWithdrawal",
          "type": "uint256"
        },
        {
          "internalType": "uint256",
          "name": "vcount",
          "type": "uint256"
        },
        {
          "internalType": "uint256",
          "name": "claimed",
          "type": "uint256"
        },
        {
          "internalType": "uint256",
          "name": "stakeDeposit",
          "type": "uint256"
        },
        {
          "internalType": "uint256",
          "name": "stakeWithdrawal",
          "type": "uint256"
        },
        {
          "internalType": "uint256",
          "name": "slashed",
          "type": "uint256"
        }
      ],
      "stateMutability": "view",
      "type": "function"
    },
    {
      "inputs": [],
      "name": "epochZeroMinDuration",
      "outputs": [
        {
          "internalType": "uint256",
          "name": "",
          "type": "uint256"
        }
      ],
      "stateMutability": "view",
      "type": "function"
    },
    {
      "inputs": [],
      "name": "finalized",
      "outputs": [
        {
          "internalType": "uint256",
          "name": "",
          "type": "uint256"
        }
      ],
      "stateMutability": "view",
      "type": "function"
    },
    {
      "inputs": [
        {
          "internalType": "bytes32",
          "name": "_randomSeed",
          "type": "bytes32"
        },
        {
          "internalType": "uint256",
          "name": "_txCreatedTimestamp",
          "type": "uint256"
        }
      ],
      "name": "getActivatorForSeed",
      "outputs": [
        {
          "internalType": "address",
          "name": "",
          "type": "address"
        }
      ],
      "stateMutability": "view",
      "type": "function"
    },
    {
      "inputs": [
        {
          "internalType": "uint256",
          "name": "_startIndex",
          "type": "uint256"
        },
        {
          "internalType": "uint256",
          "name": "_size",
          "type": "uint256"
        }
      ],
      "name": "getAllBannedValidators",
      "outputs": [
        {
          "components": [
            {
              "internalType": "address",
              "name": "validator",
              "type": "address"
            },
            {
              "internalType": "uint256",
              "name": "untilEpochBanned",
              "type": "uint256"
            },
            {
              "internalType": "bool",
              "name": "permanentlyBanned",
              "type": "bool"
            }
          ],
          "internalType": "struct IGenLayerStaking.BannedValidators[]",
          "name": "validatorList",
          "type": "tuple[]"
        }
      ],
      "stateMutability": "view",
      "type": "function"
    },
    {
      "inputs": [
        {
          "internalType": "uint256",
          "name": "_epoch",
          "type": "uint256"
        },
        {
          "internalType": "uint256",
          "name": "_startIndex",
          "type": "uint256"
        },
        {
          "internalType": "uint256",
          "name": "_size",
          "type": "uint256"
        }
      ],
      "name": "getAllBannedValidatorsForEpoch",
      "outputs": [
        {
          "components": [
            {
              "internalType": "address",
              "name": "validator",
              "type": "address"
            },
            {
              "internalType": "uint256",
              "name": "untilEpochBanned",
              "type": "uint256"
            },
            {
              "internalType": "bool",
              "name": "permanentlyBanned",
              "type": "bool"
            }
          ],
          "internalType": "struct IGenLayerStaking.BannedValidators[]",
          "name": "validatorList",
          "type": "tuple[]"
        }
      ],
      "stateMutability": "view",
      "type": "function"
    },
    {
      "inputs": [
        {
          "internalType": "uint256",
          "name": "_startIndex",
          "type": "uint256"
        },
        {
          "internalType": "uint256",
          "name": "_size",
          "type": "uint256"
        }
      ],
      "name": "getAllQuarantinedValidators",
      "outputs": [
        {
          "components": [
            {
              "internalType": "address",
              "name": "validator",
              "type": "address"
            },
            {
              "internalType": "uint256",
              "name": "untilEpochBanned",
              "type": "uint256"
            },
            {
              "internalType": "bool",
              "name": "permanentlyBanned",
              "type": "bool"
            }
          ],
          "internalType": "struct IGenLayerStaking.BannedValidators[]",
          "name": "validatorList",
          "type": "tuple[]"
        }
      ],
      "stateMutability": "view",
      "type": "function"
    },
    {
      "inputs": [
        {
          "internalType": "uint256",
          "name": "_epoch",
          "type": "uint256"
        },
        {
          "internalType": "uint256",
          "name": "_startIndex",
          "type": "uint256"
        },
        {
          "internalType": "uint256",
          "name": "_size",
          "type": "uint256"
        }
      ],
      "name": "getAllQuarantinedValidatorsForEpoch",
      "outputs": [
        {
          "components": [
            {
              "internalType": "address",
              "name": "validator",
              "type": "address"
            },
            {
              "internalType": "uint256",
              "name": "untilEpochBanned",
              "type": "uint256"
            },
            {
              "internalType": "bool",
              "name": "permanentlyBanned",
              "type": "bool"
            }
          ],
          "internalType": "struct IGenLayerStaking.BannedValidators[]",
          "name": "validatorList",
          "type": "tuple[]"
        }
      ],
      "stateMutability": "view",
      "type": "function"
    },
    {
      "inputs": [],
      "name": "getQuarantinedValidators",
      "outputs": [
        {
          "internalType": "address[]",
          "name": "",
          "type": "address[]"
        }
      ],
      "stateMutability": "view",
      "type": "function"
    },
    {
      "inputs": [
        {
          "internalType": "bytes32",
          "name": "role",
          "type": "bytes32"
        }
      ],
      "name": "getRoleAdmin",
      "outputs": [
        {
          "internalType": "bytes32",
          "name": "",
          "type": "bytes32"
        }
      ],
      "stateMutability": "view",
      "type": "function"
    },
    {
      "inputs": [],
      "name": "getValidatorQuarantineList",
      "outputs": [
        {
          "internalType": "address[]",
          "name": "",
          "type": "address[]"
        }
      ],
      "stateMutability": "view",
      "type": "function"
    },
    {
      "inputs": [],
      "name": "getValidatorWeightParams",
      "outputs": [
        {
          "internalType": "uint256",
          "name": "alpha",
          "type": "uint256"
        },
        {
          "internalType": "uint256",
          "name": "beta",
          "type": "uint256"
        }
      ],
      "stateMutability": "view",
      "type": "function"
    },
    {
      "inputs": [
        {
          "internalType": "address",
          "name": "_account",
          "type": "address"
        }
      ],
      "name": "grantQuarantineManagerRole",
      "outputs": [],
      "stateMutability": "nonpayable",
      "type": "function"
    },
    {
      "inputs": [
        {
          "internalType": "bytes32",
          "name": "role",
          "type": "bytes32"
        },
        {
          "internalType": "address",
          "name": "account",
          "type": "address"
        }
      ],
      "name": "grantRole",
      "outputs": [],
      "stateMutability": "nonpayable",
      "type": "function"
    },
    {
      "inputs": [
        {
          "internalType": "bytes32",
          "name": "role",
          "type": "bytes32"
        },
        {
          "internalType": "address",
          "name": "account",
          "type": "address"
        }
      ],
      "name": "hasRole",
      "outputs": [
        {
          "internalType": "bool",
          "name": "",
          "type": "bool"
        }
      ],
      "stateMutability": "view",
      "type": "function"
    },
    {
      "inputs": [
        {
          "internalType": "address",
          "name": "_validator",
          "type": "address"
        },
        {
          "internalType": "uint256",
          "name": "_quarantinedAt",
          "type": "uint256"
        },
        {
          "internalType": "uint256",
          "name": "_quarantinedUntil",
          "type": "uint256"
        }
      ],
      "name": "idlenessBan",
      "outputs": [],
      "stateMutability": "nonpayable",
      "type": "function"
    },
    {
      "inputs": [
        {
          "internalType": "address[]",
          "name": "_validators",
          "type": "address[]"
        },
        {
          "internalType": "uint256",
          "name": "_quarantinedAt",
          "type": "uint256"
        },
        {
          "internalType": "uint256",
          "name": "_quarantinedUntil",
          "type": "uint256"
        }
      ],
      "name": "idlenessBanBatch",
      "outputs": [],
      "stateMutability": "nonpayable",
      "type": "function"
    },
    {
      "inputs": [],
      "name": "inflationEpoch",
      "outputs": [
        {
          "internalType": "uint256",
          "name": "",
          "type": "uint256"
        }
      ],
      "stateMutability": "view",
      "type": "function"
    },
    {
      "inputs": [
        {
          "internalType": "uint256",
          "name": "_inauguralTimestamp",
          "type": "uint256"
        }
      ],
      "name": "inflationInit",
      "outputs": [],
      "stateMutability": "nonpayable",
      "type": "function"
    },
    {
      "inputs": [
        {
          "internalType": "uint256",
          "name": "_epochTo",
          "type": "uint256"
        }
      ],
      "name": "inflationReceive",
      "outputs": [],
      "stateMutability": "payable",
      "type": "function"
    },
    {
      "inputs": [],
      "name": "inflationSupply",
      "outputs": [
        {
          "internalType": "uint256",
          "name": "",
          "type": "uint256"
        }
      ],
      "stateMutability": "view",
      "type": "function"
    },
    {
      "inputs": [
        {
          "internalType": "address",
          "name": "_gen",
          "type": "address"
        },
        {
          "internalType": "address",
          "name": "_transactions",
          "type": "address"
        },
        {
          "internalType": "address",
          "name": "_idleness",
          "type": "address"
        },
        {
          "internalType": "address",
          "name": "_tribunal",
          "type": "address"
        },
        {
          "internalType": "address",
          "name": "_slashing",
          "type": "address"
        },
        {
          "internalType": "address",
          "name": "_consensus",
          "type": "address"
        }
      ],
      "name": "initialize",
      "outputs": [],
      "stateMutability": "nonpayable",
      "type": "function"
    },
    {
      "inputs": [
        {
          "internalType": "address",
          "name": "_address",
          "type": "address"
        }
      ],
      "name": "isValidator",
      "outputs": [
        {
          "internalType": "bool",
          "name": "",
          "type": "bool"
        }
      ],
      "stateMutability": "view",
      "type": "function"
    },
    {
      "inputs": [
        {
          "internalType": "address",
          "name": "_validator",
          "type": "address"
        }
      ],
      "name": "isValidatorBanned",
      "outputs": [
        {
          "internalType": "bool",
          "name": "",
          "type": "bool"
        }
      ],
      "stateMutability": "view",
      "type": "function"
    },
    {
      "inputs": [],
      "name": "maxValidators",
      "outputs": [
        {
          "internalType": "uint256",
          "name": "",
          "type": "uint256"
        }
      ],
      "stateMutability": "view",
      "type": "function"
    },
    {
      "inputs": [
        {
          "internalType": "address",
          "name": "",
          "type": "address"
        }
      ],
      "name": "operatorsToValidators",
      "outputs": [
        {
          "internalType": "address",
          "name": "",
          "type": "address"
        }
      ],
      "stateMutability": "view",
      "type": "function"
    },
    {
      "inputs": [],
      "name": "owner",
      "outputs": [
        {
          "internalType": "address",
          "name": "",
          "type": "address"
        }
      ],
      "stateMutability": "view",
      "type": "function"
    },
    {
      "inputs": [],
      "name": "pendingOwner",
      "outputs": [
        {
          "internalType": "address",
          "name": "",
          "type": "address"
        }
      ],
      "stateMutability": "view",
      "type": "function"
    },
    {
      "inputs": [],
      "name": "reductionFactor",
      "outputs": [
        {
          "internalType": "uint256",
          "name": "",
          "type": "uint256"
        }
      ],
      "stateMutability": "view",
      "type": "function"
    },
    {
      "inputs": [],
      "name": "removeAllValidatorBans",
      "outputs": [],
      "stateMutability": "nonpayable",
      "type": "function"
    },
    {
      "inputs": [],
      "name": "removeAllValidatorBansExceptPermanent",
      "outputs": [],
      "stateMutability": "nonpayable",
      "type": "function"
    },
    {
      "inputs": [
        {
          "internalType": "address",
          "name": "_validator",
          "type": "address"
        }
      ],
      "name": "removeValidatorBan",
      "outputs": [],
      "stateMutability": "nonpayable",
      "type": "function"
    },
    {
      "inputs": [
        {
          "internalType": "address",
          "name": "_validator",
          "type": "address"
        }
      ],
      "name": "removeValidatorQuarantine",
      "outputs": [],
      "stateMutability": "nonpayable",
      "type": "function"
    },
    {
      "inputs": [],
      "name": "renounceOwnership",
      "outputs": [],
      "stateMutability": "nonpayable",
      "type": "function"
    },
    {
      "inputs": [
        {
          "internalType": "bytes32",
          "name": "role",
          "type": "bytes32"
        },
        {
          "internalType": "address",
          "name": "callerConfirmation",
          "type": "address"
        }
      ],
      "name": "renounceRole",
      "outputs": [],
      "stateMutability": "nonpayable",
      "type": "function"
    },
    {
      "inputs": [
        {
          "internalType": "address",
          "name": "_account",
          "type": "address"
        }
      ],
      "name": "revokeQuarantineManagerRole",
      "outputs": [],
      "stateMutability": "nonpayable",
      "type": "function"
    },
    {
      "inputs": [
        {
          "internalType": "bytes32",
          "name": "role",
          "type": "bytes32"
        },
        {
          "internalType": "address",
          "name": "account",
          "type": "address"
        }
      ],
      "name": "revokeRole",
      "outputs": [],
      "stateMutability": "nonpayable",
      "type": "function"
    },
    {
      "inputs": [
        {
          "internalType": "address payable",
          "name": "_deepthought",
          "type": "address"
        }
      ],
      "name": "setDeepthought",
      "outputs": [],
      "stateMutability": "nonpayable",
      "type": "function"
    },
    {
      "inputs": [
        {
          "internalType": "uint256",
          "name": "_delegatorMinStake",
          "type": "uint256"
        }
      ],
      "name": "setDelegatorMinimumStake",
      "outputs": [],
      "stateMutability": "nonpayable",
      "type": "function"
    },
    {
      "inputs": [
        {
          "internalType": "uint256",
          "name": "_epochMinDuration",
          "type": "uint256"
        }
      ],
      "name": "setEpochMinDuration",
      "outputs": [],
      "stateMutability": "nonpayable",
      "type": "function"
    },
    {
      "inputs": [
        {
          "internalType": "uint256",
          "name": "_epochMinDurationThreshold",
          "type": "uint256"
        }
      ],
      "name": "setEpochMinDurationThreshold",
      "outputs": [],
      "stateMutability": "nonpayable",
      "type": "function"
    },
    {
      "inputs": [
        {
          "internalType": "uint256",
          "name": "_epochZeroMinDuration",
          "type": "uint256"
        }
      ],
      "name": "setEpochZeroMinDuration",
      "outputs": [],
      "stateMutability": "nonpayable",
      "type": "function"
    },
    {
      "inputs": [
        {
          "internalType": "address",
          "name": "_transactions",
          "type": "address"
        },
        {
          "internalType": "address",
          "name": "_idleness",
          "type": "address"
        },
        {
          "internalType": "address",
          "name": "_tribunal",
          "type": "address"
        },
        {
          "internalType": "address",
          "name": "_slashing",
          "type": "address"
        },
        {
          "internalType": "address",
          "name": "_consensus",
          "type": "address"
        },
        {
          "internalType": "address",
          "name": "_validatorWalletFactory",
          "type": "address"
        },
        {
          "internalType": "address payable",
          "name": "_nftMinter",
          "type": "address"
        }
      ],
      "name": "setExternalContracts",
      "outputs": [],
      "stateMutability": "nonpayable",
      "type": "function"
    },
    {
      "inputs": [
        {
          "internalType": "address",
          "name": "_gen",
          "type": "address"
        }
      ],
      "name": "setGen",
      "outputs": [],
      "stateMutability": "nonpayable",
      "type": "function"
    },
    {
      "inputs": [
        {
          "internalType": "uint256",
          "name": "_maxValidators",
          "type": "uint256"
        }
      ],
      "name": "setMaxValidators",
      "outputs": [],
      "stateMutability": "nonpayable",
      "type": "function"
    },
    {
      "inputs": [
        {
          "internalType": "uint256",
          "name": "_reductionFactor",
          "type": "uint256"
        }
      ],
      "name": "setReductionFactor",
      "outputs": [],
      "stateMutability": "nonpayable",
      "type": "function"
    },
    {
      "inputs": [
        {
          "internalType": "address",
          "name": "_stakingInvariant",
          "type": "address"
        }
      ],
      "name": "setStakingInvariant",
      "outputs": [],
      "stateMutability": "nonpayable",
      "type": "function"
    },
    {
      "inputs": [
        {
          "internalType": "uint256",
          "name": "_delegatorUnbondingPeriod",
          "type": "uint256"
        },
        {
          "internalType": "uint256",
          "name": "_validatorUnbondingPeriod",
          "type": "uint256"
        }
      ],
      "name": "setUnbondingPeriods",
      "outputs": [],
      "stateMutability": "nonpayable",
      "type": "function"
    },
    {
      "inputs": [
        {
          "internalType": "uint256",
          "name": "_validatorMinStake",
          "type": "uint256"
        }
      ],
      "name": "setValidatorMinimumStake",
      "outputs": [],
      "stateMutability": "nonpayable",
      "type": "function"
    },
    {
      "inputs": [
        {
          "internalType": "uint256",
          "name": "_alpha",
          "type": "uint256"
        },
        {
          "internalType": "uint256",
          "name": "_beta",
          "type": "uint256"
        }
      ],
      "name": "setValidatorWeightParams",
      "outputs": [],
      "stateMutability": "nonpayable",
      "type": "function"
    },
    {
      "inputs": [
        {
          "internalType": "address",
          "name": "_delegator",
          "type": "address"
        },
        {
          "internalType": "address",
          "name": "_validator",
          "type": "address"
        }
      ],
      "name": "sharesOf",
      "outputs": [
        {
          "internalType": "uint256",
          "name": "",
          "type": "uint256"
        }
      ],
      "stateMutability": "view",
      "type": "function"
    },
    {
      "inputs": [],
      "name": "stakeInfo",
      "outputs": [
        {
          "internalType": "uint256",
          "name": "currentEpoch",
          "type": "uint256"
        },
        {
          "internalType": "address",
          "name": "rootValidator",
          "type": "address"
        },
        {
          "internalType": "uint256",
          "name": "xStake",
          "type": "uint256"
        },
        {
          "internalType": "uint256",
          "name": "yStake",
          "type": "uint256"
        },
        {
          "internalType": "uint256",
          "name": "epochEvenDeposit",
          "type": "uint256"
        },
        {
          "internalType": "uint256",
          "name": "epochOddDeposit",
          "type": "uint256"
        },
        {
          "internalType": "uint256",
          "name": "calculatedTotal",
          "type": "uint256"
        }
      ],
      "stateMutability": "view",
      "type": "function"
    },
    {
      "inputs": [
        {
          "internalType": "address",
          "name": "_delegator",
          "type": "address"
        },
        {
          "internalType": "address",
          "name": "_validator",
          "type": "address"
        }
      ],
      "name": "stakeOf",
      "outputs": [
        {
          "internalType": "uint256",
          "name": "",
          "type": "uint256"
        }
      ],
      "stateMutability": "view",
      "type": "function"
    },
    {
      "inputs": [],
      "name": "stakingInvariant",
      "outputs": [
        {
          "internalType": "address",
          "name": "",
          "type": "address"
        }
      ],
      "stateMutability": "view",
      "type": "function"
    },
    {
      "inputs": [
        {
          "internalType": "bytes4",
          "name": "interfaceId",
          "type": "bytes4"
        }
      ],
      "name": "supportsInterface",
      "outputs": [
        {
          "internalType": "bool",
          "name": "",
          "type": "bool"
        }
      ],
      "stateMutability": "view",
      "type": "function"
    },
    {
      "inputs": [
        {
          "internalType": "address",
          "name": "newOwner",
          "type": "address"
        }
      ],
      "name": "transferOwnership",
      "outputs": [],
      "stateMutability": "nonpayable",
      "type": "function"
    },
    {
      "inputs": [],
      "name": "validatorBanCount",
      "outputs": [
        {
          "internalType": "uint256",
          "name": "",
          "type": "uint256"
        }
      ],
      "stateMutability": "view",
      "type": "function"
    },
    {
      "inputs": [],
      "name": "validatorBanCountExceptPermanent",
      "outputs": [
        {
          "internalType": "uint256",
          "name": "",
          "type": "uint256"
        }
      ],
      "stateMutability": "view",
      "type": "function"
    },
    {
      "inputs": [
        {
          "internalType": "address",
          "name": "_validator",
          "type": "address"
        }
      ],
      "name": "validatorBanDeterministic",
      "outputs": [],
      "stateMutability": "nonpayable",
      "type": "function"
    },
    {
      "inputs": [
        {
          "internalType": "address",
          "name": "_validator",
          "type": "address"
        }
      ],
      "name": "validatorBanned",
      "outputs": [
        {
          "components": [
            {
              "internalType": "address",
              "name": "validator",
              "type": "address"
            },
            {
              "internalType": "uint256",
              "name": "untilEpochBanned",
              "type": "uint256"
            },
            {
              "internalType": "bool",
              "name": "permanentlyBanned",
              "type": "bool"
            }
          ],
          "internalType": "struct IGenLayerStaking.BannedValidators",
          "name": "banned_",
          "type": "tuple"
        }
      ],
      "stateMutability": "view",
      "type": "function"
    },
    {
      "inputs": [
        {
          "internalType": "address",
          "name": "_validator",
          "type": "address"
        }
      ],
      "name": "validatorClaim",
      "outputs": [
        {
          "internalType": "uint256",
          "name": "",
          "type": "uint256"
        }
      ],
      "stateMutability": "nonpayable",
      "type": "function"
    },
    {
      "inputs": [
        {
          "internalType": "address",
          "name": "_validator",
          "type": "address"
        }
      ],
      "name": "validatorClean",
      "outputs": [],
      "stateMutability": "nonpayable",
      "type": "function"
    },
    {
      "inputs": [
        {
          "internalType": "address",
          "name": "_validator",
          "type": "address"
        },
        {
          "internalType": "uint256",
          "name": "_index",
          "type": "uint256"
        }
      ],
      "name": "validatorDeposit",
      "outputs": [
        {
          "internalType": "uint256",
          "name": "epoch_",
          "type": "uint256"
        },
        {
          "components": [
            {
              "internalType": "uint256",
              "name": "input",
              "type": "uint256"
            },
            {
              "internalType": "uint256",
              "name": "output",
              "type": "uint256"
            },
            {
              "internalType": "uint256",
              "name": "epoch",
              "type": "uint256"
            },
            {
              "internalType": "uint256",
              "name": "linkToNextCommit",
              "type": "uint256"
            }
          ],
          "internalType": "struct IGenLayerStaking.Commit",
          "name": "commit_",
          "type": "tuple"
        }
      ],
      "stateMutability": "view",
      "type": "function"
    },
    {
      "inputs": [],
      "name": "validatorDeposit",
      "outputs": [],
      "stateMutability": "payable",
      "type": "function"
    },
    {
      "inputs": [
        {
          "internalType": "address",
          "name": "_validator",
          "type": "address"
        },
        {
          "internalType": "uint256",
          "name": "_epoch",
          "type": "uint256"
        }
      ],
      "name": "validatorDepositByEpoch",
      "outputs": [
        {
          "components": [
            {
              "internalType": "uint256",
              "name": "input",
              "type": "uint256"
            },
            {
              "internalType": "uint256",
              "name": "output",
              "type": "uint256"
            },
            {
              "internalType": "uint256",
              "name": "epoch",
              "type": "uint256"
            },
            {
              "internalType": "uint256",
              "name": "linkToNextCommit",
              "type": "uint256"
            }
          ],
          "internalType": "struct IGenLayerStaking.Commit",
          "name": "commit_",
          "type": "tuple"
        }
      ],
      "stateMutability": "view",
      "type": "function"
    },
    {
      "inputs": [
        {
          "internalType": "address",
          "name": "_validator",
          "type": "address"
        }
      ],
      "name": "validatorDepositLen",
      "outputs": [
        {
          "internalType": "uint256",
          "name": "len_",
          "type": "uint256"
        }
      ],
      "stateMutability": "view",
      "type": "function"
    },
    {
      "inputs": [
        {
          "internalType": "uint256",
          "name": "_sharesWithdrawal",
          "type": "uint256"
        }
      ],
      "name": "validatorExit",
      "outputs": [],
      "stateMutability": "nonpayable",
      "type": "function"
    },
    {
      "inputs": [
        {
          "internalType": "address",
          "name": "validatorAddr",
          "type": "address"
        }
      ],
      "name": "validatorInfo",
      "outputs": [
        {
          "internalType": "uint256",
          "name": "xVStake",
          "type": "uint256"
        },
        {
          "internalType": "uint256",
          "name": "xDStake",
          "type": "uint256"
        },
        {
          "internalType": "uint256",
          "name": "yVStake",
          "type": "uint256"
        },
        {
          "internalType": "uint256",
          "name": "yDStake",
          "type": "uint256"
        },
        {
          "internalType": "address",
          "name": "leftChild",
          "type": "address"
        },
        {
          "internalType": "address",
          "name": "rightChild",
          "type": "address"
        }
      ],
      "stateMutability": "view",
      "type": "function"
    },
    {
      "inputs": [
        {
          "internalType": "address",
          "name": "_operator",
          "type": "address"
        }
      ],
      "name": "validatorJoin",
      "outputs": [
        {
          "internalType": "address",
          "name": "validator",
          "type": "address"
        }
      ],
      "stateMutability": "payable",
      "type": "function"
    },
    {
      "inputs": [],
      "name": "validatorJoin",
      "outputs": [
        {
          "internalType": "address",
          "name": "validator",
          "type": "address"
        }
      ],
      "stateMutability": "payable",
      "type": "function"
    },
    {
      "inputs": [],
      "name": "validatorMinStake",
      "outputs": [
        {
          "internalType": "uint256",
          "name": "",
          "type": "uint256"
        }
      ],
      "stateMutability": "view",
      "type": "function"
    },
    {
      "inputs": [
        {
          "internalType": "address",
          "name": "_validator",
          "type": "address"
        }
      ],
      "name": "validatorPermanentlyBanned",
      "outputs": [
        {
          "internalType": "bool",
          "name": "",
          "type": "bool"
        }
      ],
      "stateMutability": "view",
      "type": "function"
    },
    {
      "inputs": [
        {
          "internalType": "address",
          "name": "_validator",
          "type": "address"
        }
      ],
      "name": "validatorPrime",
      "outputs": [],
      "stateMutability": "nonpayable",
      "type": "function"
    },
    {
      "inputs": [
        {
          "internalType": "address",
          "name": "_validator",
          "type": "address"
        },
        {
          "internalType": "uint256",
          "name": "_quarantinedAt",
          "type": "uint256"
        }
      ],
      "name": "validatorQuarantine",
      "outputs": [],
      "stateMutability": "nonpayable",
      "type": "function"
    },
    {
      "inputs": [],
      "name": "validatorQuarantineCount",
      "outputs": [
        {
          "internalType": "uint256",
          "name": "",
          "type": "uint256"
        }
      ],
      "stateMutability": "view",
      "type": "function"
    },
    {
      "inputs": [
        {
          "internalType": "address",
          "name": "_validator",
          "type": "address"
        }
      ],
      "name": "validatorQuarantineRepeal",
      "outputs": [],
      "stateMutability": "nonpayable",
      "type": "function"
    },
    {
      "inputs": [
        {
          "internalType": "address",
          "name": "_validator",
          "type": "address"
        }
      ],
      "name": "validatorQuarantined",
      "outputs": [
        {
          "internalType": "bool",
          "name": "",
          "type": "bool"
        }
      ],
      "stateMutability": "view",
      "type": "function"
    },
    {
      "inputs": [
        {
          "internalType": "bytes32",
          "name": "_seed",
          "type": "bytes32"
        },
        {
          "internalType": "uint256",
          "name": "_slot",
          "type": "uint256"
        },
        {
          "internalType": "uint256",
          "name": "_epoch",
          "type": "uint256"
        },
        {
          "internalType": "uint256",
          "name": "_txCreatedTimestamp",
          "type": "uint256"
        },
        {
          "internalType": "uint256",
          "name": "_number",
          "type": "uint256"
        },
        {
          "internalType": "bool",
          "name": "_weighted",
          "type": "bool"
        },
        {
          "internalType": "address[]",
          "name": "_consumed",
          "type": "address[]"
        }
      ],
      "name": "validatorSelection",
      "outputs": [
        {
          "internalType": "uint256",
          "name": "leader_",
          "type": "uint256"
        },
        {
          "internalType": "address[]",
          "name": "validators_",
          "type": "address[]"
        },
        {
          "internalType": "address[]",
          "name": "penalized_",
          "type": "address[]"
        }
      ],
      "stateMutability": "view",
      "type": "function"
    },
    {
      "inputs": [
        {
          "internalType": "bytes32",
          "name": "_seed",
          "type": "bytes32"
        },
        {
          "internalType": "uint256",
          "name": "_slot",
          "type": "uint256"
        },
        {
          "internalType": "uint256",
          "name": "_txCreatedTimestamp",
          "type": "uint256"
        },
        {
          "internalType": "uint256",
          "name": "_number",
          "type": "uint256"
        },
        {
          "internalType": "bool",
          "name": "_weighted",
          "type": "bool"
        },
        {
          "internalType": "address[]",
          "name": "_consumed",
          "type": "address[]"
        }
      ],
      "name": "validatorSelection",
      "outputs": [
        {
          "internalType": "uint256",
          "name": "leader_",
          "type": "uint256"
        },
        {
          "internalType": "address[]",
          "name": "validators_",
          "type": "address[]"
        },
        {
          "internalType": "address[]",
          "name": "penalized_",
          "type": "address[]"
        }
      ],
      "stateMutability": "view",
      "type": "function"
    },
    {
      "inputs": [
        {
          "internalType": "address",
          "name": "_validator",
          "type": "address"
        }
      ],
      "name": "validatorView",
      "outputs": [
        {
          "components": [
            {
              "internalType": "address",
              "name": "left",
              "type": "address"
            },
            {
              "internalType": "address",
              "name": "right",
              "type": "address"
            },
            {
              "internalType": "address",
              "name": "parent",
              "type": "address"
            },
            {
              "internalType": "uint256",
              "name": "eBanned",
              "type": "uint256"
            },
            {
              "internalType": "uint256",
              "name": "ePrimed",
              "type": "uint256"
            },
            {
              "internalType": "uint256",
              "name": "vStake",
              "type": "uint256"
            },
            {
              "internalType": "uint256",
              "name": "vShares",
              "type": "uint256"
            },
            {
              "internalType": "uint256",
              "name": "dStake",
              "type": "uint256"
            },
            {
              "internalType": "uint256",
              "name": "dShares",
              "type": "uint256"
            },
            {
              "internalType": "uint256",
              "name": "vDeposit",
              "type": "uint256"
            },
            {
              "internalType": "uint256",
              "name": "vWithdrawal",
              "type": "uint256"
            },
            {
              "internalType": "bool",
              "name": "live",
              "type": "bool"
            }
          ],
          "internalType": "struct IGenLayerStaking.ValidatorView",
          "name": "",
          "type": "tuple"
        }
      ],
      "stateMutability": "view",
      "type": "function"
    },
    {
      "inputs": [
        {
          "internalType": "address",
          "name": "_validator",
          "type": "address"
        }
      ],
      "name": "validatorViewPrePrimed",
      "outputs": [
        {
          "components": [
            {
              "internalType": "address",
              "name": "left",
              "type": "address"
            },
            {
              "internalType": "address",
              "name": "right",
              "type": "address"
            },
            {
              "internalType": "address",
              "name": "parent",
              "type": "address"
            },
            {
              "internalType": "uint256",
              "name": "eBanned",
              "type": "uint256"
            },
            {
              "internalType": "uint256",
              "name": "ePrimed",
              "type": "uint256"
            },
            {
              "internalType": "uint256",
              "name": "vStake",
              "type": "uint256"
            },
            {
              "internalType": "uint256",
              "name": "vShares",
              "type": "uint256"
            },
            {
              "internalType": "uint256",
              "name": "dStake",
              "type": "uint256"
            },
            {
              "internalType": "uint256",
              "name": "dShares",
              "type": "uint256"
            },
            {
              "internalType": "uint256",
              "name": "vDeposit",
              "type": "uint256"
            },
            {
              "internalType": "uint256",
              "name": "vWithdrawal",
              "type": "uint256"
            },
            {
              "internalType": "bool",
              "name": "live",
              "type": "bool"
            }
          ],
          "internalType": "struct IGenLayerStaking.ValidatorView",
          "name": "",
          "type": "tuple"
        }
      ],
      "stateMutability": "view",
      "type": "function"
    },
    {
      "inputs": [
        {
          "internalType": "address",
          "name": "_validator",
          "type": "address"
        }
      ],
      "name": "validatorViewPrimed",
      "outputs": [
        {
          "components": [
            {
              "internalType": "address",
              "name": "left",
              "type": "address"
            },
            {
              "internalType": "address",
              "name": "right",
              "type": "address"
            },
            {
              "internalType": "address",
              "name": "parent",
              "type": "address"
            },
            {
              "internalType": "uint256",
              "name": "eBanned",
              "type": "uint256"
            },
            {
              "internalType": "uint256",
              "name": "ePrimed",
              "type": "uint256"
            },
            {
              "internalType": "uint256",
              "name": "vStake",
              "type": "uint256"
            },
            {
              "internalType": "uint256",
              "name": "vShares",
              "type": "uint256"
            },
            {
              "internalType": "uint256",
              "name": "dStake",
              "type": "uint256"
            },
            {
              "internalType": "uint256",
              "name": "dShares",
              "type": "uint256"
            },
            {
              "internalType": "uint256",
              "name": "vDeposit",
              "type": "uint256"
            },
            {
              "internalType": "uint256",
              "name": "vWithdrawal",
              "type": "uint256"
            },
            {
              "internalType": "bool",
              "name": "live",
              "type": "bool"
            }
          ],
          "internalType": "struct IGenLayerStaking.ValidatorView",
          "name": "",
          "type": "tuple"
        }
      ],
      "stateMutability": "view",
      "type": "function"
    },
    {
      "inputs": [
        {
          "internalType": "address",
          "name": "_validator",
          "type": "address"
        },
        {
          "internalType": "uint256",
          "name": "_index",
          "type": "uint256"
        }
      ],
      "name": "validatorWithdrawal",
      "outputs": [
        {
          "internalType": "uint256",
          "name": "epoch_",
          "type": "uint256"
        },
        {
          "components": [
            {
              "internalType": "uint256",
              "name": "input",
              "type": "uint256"
            },
            {
              "internalType": "uint256",
              "name": "output",
              "type": "uint256"
            },
            {
              "internalType": "uint256",
              "name": "epoch",
              "type": "uint256"
            },
            {
              "internalType": "uint256",
              "name": "linkToNextCommit",
              "type": "uint256"
            }
          ],
          "internalType": "struct IGenLayerStaking.Commit",
          "name": "commit_",
          "type": "tuple"
        }
      ],
      "stateMutability": "view",
      "type": "function"
    },
    {
      "inputs": [
        {
          "internalType": "address",
          "name": "_validator",
          "type": "address"
        },
        {
          "internalType": "uint256",
          "name": "_epoch",
          "type": "uint256"
        }
      ],
      "name": "validatorWithdrawalByEpoch",
      "outputs": [
        {
          "components": [
            {
              "internalType": "uint256",
              "name": "input",
              "type": "uint256"
            },
            {
              "internalType": "uint256",
              "name": "output",
              "type": "uint256"
            },
            {
              "internalType": "uint256",
              "name": "epoch",
              "type": "uint256"
            },
            {
              "internalType": "uint256",
              "name": "linkToNextCommit",
              "type": "uint256"
            }
          ],
          "internalType": "struct IGenLayerStaking.Commit",
          "name": "commit_",
          "type": "tuple"
        }
      ],
      "stateMutability": "view",
      "type": "function"
    },
    {
      "inputs": [
        {
          "internalType": "address",
          "name": "_validator",
          "type": "address"
        }
      ],
      "name": "validatorWithdrawalLen",
      "outputs": [
        {
          "internalType": "uint256",
          "name": "len_",
          "type": "uint256"
        }
      ],
      "stateMutability": "view",
      "type": "function"
    },
    {
      "inputs": [],
      "name": "validatorsCount",
      "outputs": [
        {
          "internalType": "uint256",
          "name": "",
          "type": "uint256"
        }
      ],
      "stateMutability": "view",
      "type": "function"
    },
    {
      "inputs": [
        {
          "internalType": "uint256",
          "name": "",
          "type": "uint256"
        }
      ],
      "name": "validatorsEven",
      "outputs": [
        {
          "internalType": "address",
          "name": "",
          "type": "address"
        }
      ],
      "stateMutability": "view",
      "type": "function"
    },
    {
      "inputs": [
        {
          "internalType": "uint256",
          "name": "",
          "type": "uint256"
        }
      ],
      "name": "validatorsOdd",
      "outputs": [
        {
          "internalType": "address",
          "name": "",
          "type": "address"
        }
      ],
      "stateMutability": "view",
      "type": "function"
    },
    {
      "inputs": [],
      "name": "validatorsRoot",
      "outputs": [
        {
          "internalType": "address",
          "name": "",
          "type": "address"
        }
      ],
      "stateMutability": "view",
      "type": "function"
    },
    {
      "inputs": [
        {
          "internalType": "uint256",
          "name": "",
          "type": "uint256"
        }
      ],
      "name": "weightsEven",
      "outputs": [
        {
          "internalType": "uint256",
          "name": "",
          "type": "uint256"
        }
      ],
      "stateMutability": "view",
      "type": "function"
    },
    {
      "inputs": [
        {
          "internalType": "uint256",
          "name": "",
          "type": "uint256"
        }
      ],
      "name": "weightsOdd",
      "outputs": [
        {
          "internalType": "uint256",
          "name": "",
          "type": "uint256"
        }
      ],
      "stateMutability": "view",
      "type": "function"
    }
  ],
  "bytecode": "0x60808060405234601557617694908161001b8239f35b600080fdfe6080604052600436101561001257600080fd5b6000803560e01c8062b17a0114613f5a578063019f89f514613f3b57806301fe0a7814613f1c57806301ffc9a714613ec557806304abb96d14613c6257806305d7d64114613c3d57806308ac525614613c1f578063090d60bd14613b865780630a3cfb1314613b195780630a7292f514613aec5780630ab07e8814613ace5780630d2bd90914613a6d5780630e3d5ab0146139c8578063112822d814613993578063152ba3f71461393b5780631538faf21461391d578063161472eb14610b3a5780631bc2359a146138ff578063210663e4146138e2578063217fcc3e1461257657806321ef686f1461387457806322133af0146138115780632272e0ab146137f35780632287d95f14611bc557806324840a5e146137ca578063248a9ca3146137ab57806325e3926e1461379057806328c56987146136b15780632b5de0de146136055780632df044971461359b5780632ea940061461354d5780632f2ff15d1461351b5780633057b168146134cc57806330ebe468146134a357806331b9e111146133a757806334b6b93b14613347578063363ea83d146132dd57806336568abe14613298578063370d01201461327d578063385fb69d1461323157806339b94189146131c35780633b0da623146131a45780633fde6d7b1461318657806344b0d8d81461315c57806344c4b4131461305a57806344df8e7014612f3f5780634573428714612ed25780634971ec0214612eaf5780634c12b33f14612e915780634f1811dd14612e0c578063502e28ea14612d1c578063510a6f2614612d0157806356eaad0f14612ca55780635cc734ac14612bbb5780636378eba314612b9e5780636461cf5614612b8357806365c7dd4a14612b4e57806367604d2714612b305780636a319a6414612a745780636c0f79b6146129fc57806370ccae76146129a2578063715018a61461292157806371e28126146128fc578063746e4ac7146128b95780637492100f14612897578063759f24f41461287a57806377a685141461285357806379073e6e14612834578063790849531461279657806379ba5097146127485780637f10fe08146126fa57806381636917146126c157806382df24a11461265d578063837725951461264057806387e51da9146125d35780638aabb07e1461257b5780638b7e92a6146125765780638ba7eceb146124235780638cc01fdc1461239f5780638da5cb5b14612369578063900cf0cf1461234b578063900fd9ce1461230857806391d14854146122af57806391eed60a1461227257806392d3f78e1461220457806393a090ec146121905780639424f76114612028578063968d97ab14611fd857806396be02a714611f925780639a612f7a14611f365780639b401cde14611f0d5780639bb2ea5a14611ea95780639e02760414611e16578063a01ebaa114611df2578063a155685d14611d5f578063a217fddf14611d43578063a39a580614611ce1578063a5dc8da014611c3b578063a629c2f714611bed578063a8027c1014611bca578063a92252ae14611bc5578063abfd6fa914611ba1578063ac78a04b14611b84578063af6c09a814611b2a578063b03df1f014611ae9578063b12d0d821461193e578063b3f05b9714611920578063b83f5b39146116f5578063bea40039146116da578063c0a604ad146116bc578063c32459a114611588578063c3ff49771461150a578063c498c95b146114e5578063c90df53214611497578063cb17452f1461146e578063cc2a9a5b146111db578063cd38347f146111b4578063cd85623514611196578063ce4cb87614611161578063cf662c1414611074578063d152d91b14610fcc578063d2d49c4b14610f88578063d547741f14610f4d578063d7ef354414610f24578063d8a7f84c14610ed6578063d9cb294314610d69578063da7a9b6a14610d4b578063de8d9d3814610cbb578063dfc3736d14610c39578063e30c397814610c03578063e3c6b0ca14610be5578063ed612f8c14610bc7578063f2fde38b14610b3f578063f524e9df14610b3a578063f8512d8714610b1c578063facd743b14610ad9578063fad76f64146109d0578063fafebac51461098a578063fb197c0e14610929578063fca905a3146108ad578063fd8d8f36146106775763fe2761371461063657600080fd5b346106745760203660031901126106745761065f610652614020565b61065a615fa7565b615147565b60016000805160206175df8339815191525580f35b80fd5b5034610674578060031936011261067457610690615d5f565b8061069c60385461504a565b9181925b6038548410156107cf576106b3846140a4565b905460039190911b1c6001600160a01b0316808452603a6020526040842054600019146107be578084526039602052836040812055808452603a602052836040812055808452603b60205283604081205580845260336020526005604085208560048201550160ff19815416905560385460001981019081116107aa5761073c61077b916140a4565b905460039190911b1c6001600160a01b0316610757876140a4565b9080546001600160a01b0360039390931b83811b199091169290931690921b179055565b610783614c57565b61078e603654614cbf565b6036556107a461079d8461482e565b9383614a66565b526106a0565b634e487b7160e01b85526011600452602485fd5b50926107c99061482e565b926106a0565b92506107da8161504a565b90825b818110610885576008548490819085906001600160a01b0316803b1561088157604051631a58e04360e31b815260206004820152918391839182908490829061082a906024830190614110565b03925af1801561087657610861575b50807f59dd5c64d1987c202422ae7f4a43661c8a5c1bc51299a1c3dd35c1546ee1842c91a180f35b8161086b91614361565b610674578082610839565b6040513d84823e3d90fd5b5050fd5b6001906001600160a01b0361089a8288614a66565b51166108a68286614a66565b52016107dd565b50346106745760c0366003190112610674576084359081151582036106745760a435906001600160401b03821161067457610925610916610902856108f536600488016143f4565b9290601154933691614399565b916044359060643590602435600435616f17565b60409391935193849384614424565b0390f35b5034610674576020366003190112610674576109259061096f90610976906040906001600160a01b0361095a614020565b168152602e60205220604051928380926148a7565b0382614361565b604051918291602083526020830190614110565b503461067457806003193601126106745760145460155490610925601654601754601854601954601a54601b5491601c5493601d5495601e54976040519b8c9b8c614452565b5034610674576020366003190112610674576109ea614020565b6009546001600160a01b03163303610aca576001600160a01b0316808252603b6020526040822054829160018216610ac357601f5b73__$a9930a26518626f1cf41cf7d897563c531$__82855260336020526040852060315491603254948752603a6020526040872054813b15610abf578795610104946040519889978896639adecea560e01b88526004880152602f6024880152604487015260366064870152608486015260a485015260c484015260e48301525af4801561087657610aae5750f35b81610ab891614361565b6106745780f35b8780fd5b6014610a1f565b63811befe960e01b8252600482fd5b5034610674576020366003190112610674576020906001600160a01b03610afe614020565b16815260338252604060018060a01b03912054161515604051908152f35b50346106745780600319360112610674576020603654604051908152f35b61414d565b503461067457602036600319011261067457610b59614020565b610b61615bd3565b60008051602061761f83398151915280546001600160a01b0319166001600160a01b0392831690811790915560008051602061755f833981519152549091167f38d16b8cac22d99fc7c124b9cd0de2d3fa1faef420bfe791d8c362d765e227008380a380f35b50346106745780600319360112610674576020603054604051908152f35b50346106745780600319360112610674576020600354604051908152f35b503461067457806003193601126106745760008051602061761f833981519152546040516001600160a01b039091168152602090f35b503461067457604036600319011261067457610c53614020565b6008546001600160a01b031633141580610ca6575b80610c91575b610c8257610c7f9060243590616119565b80f35b63fcde63e960e01b8252600482fd5b506007546001600160a01b0316331415610c6e565b506009546001600160a01b0316331415610c68565b506020366003190112610674576006546004359061111161111160901b016001600160a01b0391821601163303610d3c57600f54811115610d2d576040817fa4dec8e49a9c449aceaa40312819be0acf42a63da5f0c7f5be784840602c60b992600f558151903482526020820152a180f35b63719a0d3960e01b8252600482fd5b636a10007b60e01b8252600482fd5b50346106745780600319360112610674576020604254604051908152f35b5034610674578060031936011261067457610d82615d5f565b60085481906001600160a01b0316803b15610ed357816040518092631a58e04360e31b825260206004830152818381610dbd60248201614862565b03925af1801561087657610ebe575b505b603854811015610e3e5780610de46001926140a4565b838060a01b0391549060031b1c168084526039602052836040812055808452603a602052836040812055808452603b602052836040812055835260336020526005604084208460048201550160ff19815416905501610dce565b506038548160385580610e7c575b5080603655806037557f59dd5c64d1987c202422ae7f4a43661c8a5c1bc51299a1c3dd35c1546ee1842c8180a180f35b603882527f38395c5dceade9603479b177b68959049485df8aa97b39f3533039af5f456199908101905b818110610eb35750610e4c565b828155600101610ea6565b81610ec891614361565b610674578038610dcc565b50fd5b5034610674576020366003190112610674577f36316aa5cc0bad3602f58963e5d1244e1c27193e295bb5d5ba8a717c0395c8296020600435610f16615bd3565b80600155604051908152a180f35b5034610674578060031936011261067457600e546040516001600160a01b039091168152602090f35b503461067457604036600319011261067457610f84600435610f6d614036565b90610f7f610f7a82614933565b615dad565b616079565b5080f35b503461067457806003193601126106745750601154600116610fbc5761092561096f610976602d5b604051928380926148a7565b61092561096f610976602c610fb0565b50346106745760403660031901126106745760a0906110726040610fee614020565b610ff661483d565b50600180861b03169283815260356020526110186024356001848420016140d5565b90549060031b1c9381526033602052601e82822001848252602052206003604051916110438361430f565b8054835260018101546020840152600281015460408401520154606082015260405192835260208301906140ed565bf35b50346106745780600319360112610674576007546001600160a01b03163314158061114c575b61113d57601154600116611132576110b8601f545b6002549061449e565b4281111561112b576110cb90429061460d565b600154811015611121576110e19060015461460d565b6003555b7f94dd18d0cc0262cc85d4b8937d35e70671aaed2e54033dbad2cf13b83c65d8b160206012546111148161482e565b601255604051908152a180f35b50806003556110e5565b50806110cb565b6110b86014546110af565b636c4db06b60e01b8152600490fd5b506009546001600160a01b031633141561109a565b503461067457604036600319011261067457602061118e611180614020565b611188614036565b906150b5565b604051908152f35b50346106745780600319360112610674576020600454604051908152f35b503461067457806003193601126106745760206040516b0d92289838d21a99680000008152f35b50346106745760c0366003190112610674576111f5614020565b6111fd614036565b61120561404c565b61120d614062565b611215614078565b9161121e61408e565b936000805160206175ff833981519152549560ff8760401c1615966001600160401b03811680159081611466575b600114908161145c575b159081611453575b506114445767ffffffffffffffff1981166001176000805160206175ff8339815191525587611417575b50611291617510565b611299617510565b6112a1617510565b6112a9617510565b3315611403576112b833616b59565b6112c133615e7d565b506112cb33615df7565b50600680546001600160a01b03199081166001600160a01b03938416179091556007805482169383169390931783556008805482169483169490941790935560098054841694821694909417909355600a8054831694841694909417909355600b805490911693909116929092179091556041819055604055670853a0d2313c00006031556706f05b59d3b200006032556201518060025562127500600455610e10600155620186a082556103e86005556b0d92289838d21a9968000000601055680246ddf979766800006042556908e4d3168276864000006043556113ae5780f35b60ff60401b196000805160206175ff83398151915254166000805160206175ff833981519152557fc7f505b2f371ae2175ee4913f4499e1f2633a7b5936321eed1cdaeb6115181d2602060405160018152a180f35b631e4fbdf760e01b88526004889052602488fd5b68ffffffffffffffffff191668010000000000000001176000805160206175ff8339815191525538611288565b63f92ee8a960e01b8952600489fd5b9050153861125e565b303b159150611256565b89915061124c565b503461067457806003193601126106745760206040516000805160206175bf8339815191528152f35b5034610674576020366003190112610674577f29dd86219e6b88c72fd9a3be480a2f4605d3c3a6affa1b3abac0aaf2abf11c3460206004356114d7615bd3565b80604255604051908152a180f35b503461067457806003193601126106745760206040516908e4d3168276864000008152f35b5034610674576020366003190112610674576006546004359061111161111160901b016001600160a01b0391821601163303610d3c57601f54611579576020817f076a5ddab2a5c0052b34c2297e0db5ae2ee770ddce71986024620217b0ef1fdf92601f55604051908152a180f35b639ded3b1560e01b8252600482fd5b5034610674576020366003190112610674576115a2614020565b6009546001600160a01b03163303610aca576001600160a01b0316808252603360205260408220601154839073__$a9930a26518626f1cf41cf7d897563c531$__90813b156116b857829061010460405180948193635908033760e01b8352886004840152602f602484015260366044840152601f6064840152601460848401528060a484015260001960c484015260e48301525af48015610876576116a3575b50507f94a7bf639ae38b6414015161ac06878bbac5ba80ee87e24ed428ce754136ec969160056020920160ff198154169055808452603982526040842054611690575b604051908152a180f35b61169b60375461482e565b603755611686565b816116ad91614361565b6116b8578238611643565b8280fd5b50346106745780600319360112610674576020600f54604051908152f35b5034610674578060031936011261067457602061118e617224565b50346106745760203660031901126106745761170f614020565b611717614954565b506001600160a01b03168152603360205260408120600a810154600881901c60ff1690600382101561190c57811561181257506109259250611766919060010361180957601381015b90615cac565b604051918291829190916101608061018083019460018060a01b03815116845260018060a01b03602082015116602085015260018060a01b036040820151166040850152606081015160608501526080810151608085015260a081015160a085015260c081015160c085015260e081015160e085015261010081015161010085015261012081015161012085015261014081015161014085015201511515910152565b600b8101611760565b60115491508161185f5760ff915016600281101561184b576109259250611766919061184257600b810190615cac565b60138101611760565b634e487b7160e01b83526021600452602483fd5b60ff16600281101561190c576118d357600b82018054909181036118c3576013830190815460001982019182116118af5761092595506117669493929111156118a85750611760565b9050611760565b634e487b7160e01b86526011600452602486fd5b5061092592509061176691611760565b601382018054909181036118c357600b830190815460001982019182116118af5761092595506117669493929111156118a85750611760565b634e487b7160e01b84526021600452602484fd5b50346106745780600319360112610674576020601254604051908152f35b5034610674576040366003190112610674576011549060405191611963602084614361565b81835260003681376001818116158015611ae157602d905b15611adc575b80548015611acd57855160001982019182116118af57811115611abe5785516119a99161460d565b80600111611ab6575b508115611aa75790839291611a05604051968794859463dff0f84760e01b8652600435600487015287602487015260243560448701526064860152608485015261010060a4850152610104840190614110565b9060c4830152603660e4830152038173__$f680ff9963eb253eede013ef87b81d17c1$__5af48015611a9a578182938392611a71575b505050815115611a5d576020828101516040516001600160a01b039091168152f35b634e487b7160e01b81526032600452602490fd5b915050611a919192503d8084833e611a898183614361565b810190616ecc565b90929138611a3b565b50604051903d90823e3d90fd5b637574a52b60e11b8452600484fd5b9150386119b2565b637574a52b60e11b8552600485fd5b63d0b5c3bb60e01b8552600485fd5b611981565b602c9061197b565b5034610674576020366003190112610674576020906001600160a01b03611b0e614020565b16815260348252604060018060a01b0391205416604051908152f35b50346106745760403660031901126106745760016040611b48614020565b92611b51614036565b93838060a01b03168152602e60205220019060018060a01b03166000526020526020600160406000200154604051908152f35b503461067457806003193601126106745760206040516101f48152f35b50346106745780600319360112610674576020604051680246ddf979766800008152f35b61418e565b50346106745780600319360112610674576020604051660aa87bee537fff198152f35b5034610674576020366003190112610674577f28288c452a36645204bd13f0522e2a03f688508f171ea13690ce7a5a486f72f96020600435611c2d615bd3565b80604355604051908152a180f35b5034610674576040608091601b611c9c6001611c5636614280565b90611c6294929461483d565b5060a084901b84900390811680885260336020908152898920969092168852602e8252888820600091825285019091528790208301614e0b565b50015483520160205220600360405191611cb58361430f565b8054835260018101546020840152600281015460408401520154606082015261107260405180926140ed565b5034610674576040608091601c611c9c6001611cfc36614280565b90611d0894929461483d565b5060a084901b84900390811680885260336020908152898920969092168852602e825288882060009182528501909152879020600201614e0b565b5034610674578060031936011261067457602090604051908152f35b503461067457806003193601126106745760385481805b828110611d8857602084604051908152f35b611d91816140a4565b905460039190911b1c6001600160a01b03168083526039602052604083205415159081611ddb575b50611dc7575b600101611d76565b92611dd360019161482e565b939050611dbf565b835250603a60205260408220546011541038611db9565b50346106745780600319360112610674576020604051684e1003b28d928000008152f35b508060031936011261067457600c5460405163062fe1e160e41b815233600482015290602090829060249082906001600160a01b03165afa908115610876578291611e7a575b5015611e6b57610c7f3361728b565b63eb32d3bf60e01b8152600490fd5b611e9c915060203d602011611ea2575b611e948183614361565b810190615032565b38611e5c565b503d611e8a565b503461067457602036600319011261067457600435611ec6615bd3565b8015611efe576020817fd3c3674d241eb3fb81da09f8c56bdf72b08c8094de786997b95cde95d0ecfff592600555604051908152a180f35b6383c27a2d60e01b8252600482fd5b5034610674578060031936011261067457602f546040516001600160a01b039091168152602090f35b5034610674578060031936011261067457611f4f61687d565b15611f83577f94dd18d0cc0262cc85d4b8937d35e70671aaed2e54033dbad2cf13b83c65d8b160206012546111148161482e565b6349dbf5c360e11b8152600490fd5b5034610674578060031936011261067457601f5460205490610925602154602254602354602454602554602654916027549360285495602954976040519b8c9b8c614452565b5034610674577f50721f4a66d681f3d4cc90420668ef54fb88787373b953616e3cdf26b901a43d604061200a366141ee565b612012615bd3565b816031558060325582519182526020820152a180f35b503461067457602036600319011261067457612042614020565b61204a615d5f565b6001600160a01b03168082526039602052604082205461209d575b60208160008051602061757f833981519152928452603382526005604085208560048201550160ff198154169055604051908152a180f35b8082526039602052816040812055808252603a602052816040812055808252603b602052816040812055815b6038548082101561217757826120de836140a4565b905460039190911b1c6001600160a01b0316146120fe57506001016120c9565b6000198101908111612163579161214460209261075761212c60008051602061757f833981519152966140a4565b905460039190911b1c6001600160a01b0316916140a4565b61214c614c57565b612157603654614cbf565b6036555b915050612065565b634e487b7160e01b84526011600452602484fd5b5050602060008051602061757f8339815191529161215b565b50346106745760403660031901126106745760a09061107260406121b2614020565b6121ba61483d565b50600180861b03169283815260356020526121d96024358383206140d5565b90549060031b1c9381526033602052601d82822001848252602052206003604051916110438361430f565b5034610674576020366003190112610674577f6351022503ff845f9e2af03e0948d3dac0f3f1af4da4c40694f205ef7fd1fd386020612241614020565b612249615bd3565b600e80546001600160a01b0319166001600160a01b03929092169182179055604051908152a180f35b5034610674576020366003190112610674576020906001906040906001600160a01b0361229d614020565b16815260358452200154604051908152f35b50346106745760403660031901126106745760406122cb614036565b91600435815260008051602061759f833981519152602052209060018060a01b0316600052602052602060ff604060002054166040519015158152f35b50346106745760203660031901126106745760043590602b5482101561067457602b54821015611a5d57602091602b825282822001549060031b1c604051908152f35b50346106745780600319360112610674576020601154604051908152f35b503461067457806003193601126106745760008051602061755f833981519152546040516001600160a01b039091168152602090f35b5034610674578060031936011261067457601154602f5460e0926001600160a01b0390911690808083612405575b5060275490601c54926123de617224565b94604051968752602087015260408601526060850152608084015260a083015260c0820152f35b90506124129150826170f9565b61241d6002836170f9565b386123cd565b5034610674576040366003190112610674578061243e614020565b602435338352602e602052604083209160018060a01b03811684526033602052604084209082612568575b601154156124dc575073__$1bfbdd025ffd3afc37361c6ba444514318$__916011549360425493803b156124d857869460a4936040519788968795632167701760e21b8752600487015260248601526044850152606484015260848301525af4801561087657610aae57505080f35b8680fd5b6001600160a01b031660009081526001840160205260409020604254919391929073__$1bfbdd025ffd3afc37361c6ba444514318$__803b156124d857869460e493604051978896879563659f32f360e01b8752600487015260248601526044850152602f60648501526014608485015260a484015260c48301525af4801561087657610aae57505080f35b61257183616bc7565b612469565b614171565b503461067457604036600319011261067457604060809161259a614020565b6125a261483d565b506001600160a01b03168152603360209081528282206024358352601e0190522060405190600390611cb58361430f565b50346106745760203660031901126106745760043590602c5482101561067457602c54821015611a5d57602c81527f7416c943b4a09859521022fd2e90eac0dd9026dad28fa317782a135f28a860919091015460405160039290921b1c6001600160a01b03168152602090f35b50346106745780600319360112610674576020604051611d4c8152f35b50346106745760e03660031901126106745760a4359081151582036106745760c435906001600160401b03821161067457610925610916846126ac6126a536600488016143f4565b3691614399565b90606435608435604435602435600435616f17565b5034610674576020366003190112610674576020906040906001600160a01b036126e9614020565b168152603583522054604051908152f35b5034610674576020366003190112610674577fc3230eb0e6f70cc11ce31caf16672f9c50d00e5a782f09f3a688cb3aaf77ddc2602060043561273a615bd3565b80600455604051908152a180f35b503461067457806003193601126106745760008051602061761f83398151915254336001600160a01b039091160361278357610c7f33616b59565b63118cdaa760e01b815233600452602490fd5b503461067457602036600319011261067457806127b1614020565b6001600160a01b03168082526033602090815260408084209284526035909152822060115490919073__$4c73b20894b72802355b5999003238f06e$__803b15612830576040516374e09f3960e01b8152600481019390935260248301939093526044820152908290829060649082905af4801561087657610aae5750f35b8480fd5b503461067457602036600319011261067457602061118e600435615015565b50346106745761092561286e61286836614204565b91616cd3565b6040519182918261421e565b503461067457602036600319011261067457610c7f600435614ef3565b50346106745780600319360112610674576020604051668e1bc9bf0400008152f35b50346106745760203660031901126106745760043590602a5482101561067457602a54821015611a5d57602091602a825282822001549060031b1c604051908152f35b5034610674578060031936011261067457602061291761687d565b6040519015158152f35b503461067457806003193601126106745761293a615bd3565b60008051602061761f83398151915280546001600160a01b031990811690915560008051602061755f8339815191528054918216905581906001600160a01b03167f8be0079c531659141344cd1fd0a4f28419497f9722a3daafe3b4186f6b6457e08280a380f35b503461067457604036600319011261067457600160406129c0614020565b926129c9614036565b93838060a01b03168152602e60205220019060018060a01b03166000526020526020600260406000200154604051908152f35b5034610674578060031936011261067457600654600754600854600954600a54600b54600c54600d54604080516001600160a01b03998a16815297891660208901529588169587019590955292861660608601529085166080850152841660a0840152831660c083015290911660e082015261010090f35b5034610674576040612adf91601b612ae5612a8e36614280565b90612a9a979297614df2565b50612aa361483d565b506001600160a01b0390811680875260336020908152888820999092168752602e82528787206000918252600190810190925287902001614e0b565b50614e27565b9360208501518352016020522090600360405192612b028461430f565b80548452600181015460208501526002810154604085015201546060830152610925604051928392836142ba565b50346106745780600319360112610674576020604054604051908152f35b503461067457602036600319011261067457610f84612b6b614020565b612b73615bd3565b612b7e610f7a6148ea565b615df7565b50346106745761092561286e612b98366141ee565b9061698d565b503461067457806003193601126106745760209054604051908152f35b5034610674576060366003190112610674576004356001600160401b038111612ca15736602382011215612ca157612bfd903690602481600401359101614399565b6008546044359291602435916001600160a01b03163303612c925781158015612c87575b612c7857825b8151811015612c70576001600160a01b03612c428284614a66565b511615612c7057600190612c6a86856001600160a01b03612c638588614a66565b51166161d6565b01612c27565b505050905080f35b63486e73c960e11b8352600483fd5b506011548211612c21565b633cb01d9360e21b8352600483fd5b5080fd5b5034610674578060031936011261067457612cbe615c09565b15612cf257612ccb61626c565b600160115414612ce5575b612cde61687d565b6110e55780f35b612ced61626c565b612cd6565b63e7295fed60e01b8152600490fd5b50346106745761092561286e612d16366141ee565b90614e45565b503461067457604036600319011261067457612d36614020565b612d3e614036565b90612d47615fa7565b60018060a01b0316808352602e602052604083209160018060a01b03168352603360205260408320906011549060405492604051946306bda09160e51b86526004860152602485015260448401526064830152608482015260208160a48173__$1bfbdd025ffd3afc37361c6ba444514318$__5af4801561087657612ddd575b5060016000805160206175df8339815191525580f35b612dfe9060203d602011612e05575b612df68183614361565b8101906149cd565b5038612dc7565b503d612dec565b50346106745760203660031901126106745760c0906040906001600160a01b03612e34614020565b168152603360205220600e81015490601081015490601681015460188201549060018060a01b0360018401541692600260018060a01b039101541693604051958652602086015260408501526060840152608083015260a0820152f35b50346106745780600319360112610674576020601354604051908152f35b50346106745780600319360112610674576020604051670214e8348c4f00008152f35b5034610674576040612adf91601c612ae5612eec36614280565b909691612ef7614df2565b50612f0061483d565b506001600160a01b039081168652602e602090815287872098909116600081815260019099018252978790209786526033905285852096600201614e0b565b503461067457806003193601126106745760135490811561304b5760065460405163044df8e760e41b602082015260048152926001600160a01b0390911690612f89602485614361565b61800a3b156116b8576040519163084bc3eb60e41b83526004830152604060248301528351806044840152835b81811061303557848085818187816064818a86838284010152601f8019910116810103019161800a5af1801561087657613020575b507f98e0d9ae5770534ab17c57681d61e5b9c9afc53c1ca1706d558406dcffca2d0a6020601354604051908152a18060135580f35b8161302a91614361565b610674578082612feb565b8060208092880101516064828701015201612fb6565b6396191d4560e01b8152600490fd5b5034610674578060031936011261067457805b603854811015610f8457613080816140a4565b905460039190911b1c6001600160a01b0316808352603a6020526040832054601154811115908161314f575b5015613140578083526039602052826040812055808352603a6020528260408120558252603b602052816040812055603854600019810190811161312c576130f6613111916140a4565b905460039190911b1c6001600160a01b0316610757836140a4565b613119614c57565b613124603654614cbf565b60365561306d565b634e487b7160e01b83526011600452602483fd5b5061314a9061482e565b61306d565b60001914159050386130ac565b503461067457602036600319011261067457610c7f613179614020565b613181615d5f565b614ccc565b50346106745780600319360112610674576020600154604051908152f35b503461067457602036600319011261067457602061118e600435614c3a565b5034610674576020366003190112610674577fe9ea8a68803c78bc5a52ad6b4aaf87a3c80b6b289e8b124ecd27c9c37d6b98936020613200614020565b613208615bd3565b600680546001600160a01b0319166001600160a01b03929092169182179055604051908152a180f35b50346106745760603660031901126106745761324b614020565b6008546001600160a01b0316330361326e57610c7f9060443590602435906161d6565b633cb01d9360e21b8252600482fd5b50346106745761092561286e61329236614204565b91614a7a565b5034610674576040366003190112610674576132b2614036565b336001600160a01b038216036132ce57610f8490600435616079565b63334bd91960e11b8252600482fd5b5034610674576020366003190112610674576132f7614020565b6132ff614954565b506001600160a01b03168152603360205260408120600a81015460ff16600281101561184b576109259250611766919061333d57600b810190615cac565b6013810190615cac565b5034610674576020366003190112610674576020906001600160a01b0361336c614020565b16908181526039835260408120541515918261338f575b50506040519015158152f35b8152603a835260409020546000191490503880613383565b5034610674576020366003190112610674576133c1614020565b6133c9615fa7565b6001600160a01b031680825260336020908152604080842092845260358252808420604154601154925163dea8f17760e01b815260048101959095526024850191909152604484015260648301529091908260848173__$4c73b20894b72802355b5999003238f06e$__5af4908115613497579061345f575b60209060016000805160206175df83398151915255604051908152f35b506020813d60201161348f575b8161347960209383614361565b8101031261348a5760209051613442565b600080fd5b3d915061346c565b604051903d90823e3d90fd5b50806003193601126106745760206134ba336158c9565b6040516001600160a01b039091168152f35b5034610674577f5e83cdc9c870d860a35f51fc078fa8347c2be0a3ecf22801f0860d5dcf7a568b60406134fe366141ee565b613506615bd3565b8183558060415582519182526020820152a180f35b503461067457604036600319011261067457610f8460043561353b614036565b90613548610f7a82614933565b615f17565b5034610674576020366003190112610674577fe2c637d92b7cef2feded32c719d8898f657a8a71db9cd670fea58b028e11122f602060043561358d615bd3565b80600255604051908152a180f35b5034610674576020366003190112610674576135b5614020565b6135bd614954565b506001600160a01b03168152603360205260408120600a81015460ff16600281101561184b57610925925061176691906135fb576013810190615cac565b600b810190615cac565b50346106745780600319360112610674576011546001166136aa57602b5b604051908160208254918281520190819285526020852090855b8181106136945750505082613653910383614361565b604051928392602084019060208552518091526040840192915b81811061367b575050500390f35b825184528594506020938401939092019160010161366d565b825484526020909301926001928301920161363d565b602a613623565b50346106745760e0366003190112610674576136cb614020565b6136d3614036565b6136db61404c565b6136e3614062565b6136eb614078565b916136f461408e565b9360c4359560018060a01b038716809703610abf57613711615bd3565b600780546001600160a01b03199081166001600160a01b03938416179091556008805482169383169390931790925560098054831693821693909317909255600a8054821693831693909317909255600b8054831693821693909317909255600c8054821693909216929092179055600d805490911691909117905580f35b50346106745780600319360112610674576020612917615c09565b503461067457602036600319011261067457602061118e600435614933565b50346106745780600319360112610674576044546040516001600160a01b039091168152602090f35b50346106745780600319360112610674576020604154604051908152f35b50346106745760203660031901126106745760043561382e615bd3565b8015613865576020817f02f82a44724f1f24b96244a99fc656e810a8330918290a83115a11bdab07ffb8928455604051908152a180f35b632e98040760e01b8252600482fd5b5034610674576020366003190112610674577f7144f35c24ebacc4c0b78da6084e2b6bbf2b01ceb5a78b25fa7ca3aab7134d5d60206138b1614020565b6138b9615bd3565b604480546001600160a01b0319166001600160a01b03929092169182179055604051908152a180f35b5034610674578060031936011261067457602060405161800a8152f35b50346106745780600319360112610674576020600254604051908152f35b50346106745780600319360112610674576020604354604051908152f35b503461067457604036600319011261067457604060809161395a614020565b61396261483d565b506001600160a01b03168152603360209081528282206024358352601d0190522060405190600390611cb58361430f565b503461067457602036600319011261067457610f846139b0614020565b6139b8615bd3565b6139c3610f7a6148ea565b615fe3565b503461067457806003193601126106745760385481805b8281106139f157602084604051908152f35b6139fa816140a4565b60018060a01b0391549060031b1c16808352603a60205260408320549083526039602052604083205415159081613a61575b81613a54575b50613a40575b6001016139df565b92613a4c60019161482e565b939050613a38565b6000191415905038613a32565b60115481119150613a2c565b5034610674578060031936011261067457601154600116613ac757602d5b549081613a9e5760209150604051908152f35b6000198201918211613ab3575060209061118e565b634e487b7160e01b81526011600452602490fd5b602c613a8b565b50346106745780600319360112610674576020601054604051908152f35b503461067457604036600319011261067457602061118e613b0b614020565b613b13614036565b906147cf565b50346106745760203660031901126106745760043590602d5482101561067457602d54821015611a5d57602d81527f4a2cc91ee622da3bc833a54c37ffcb6f3ec23b7793efc5eaf5e71b7b406c5c069091015460405160039290921b1c6001600160a01b03168152602090f35b503461067457602036600319011261067457606090613ba3614020565b613bab6147b0565b506001600160a01b0316808252603360208181526040808520600490810154858752939092529384902001549251926000191491613be8846142de565b83526020830152604082015261107260405180926040809160018060a01b0381511684526020810151602085015201511515910152565b50346106745780600319360112610674576020600554604051908152f35b5034610674578060031936011261067457604060315460325482519182526020820152f35b50602036600319011261067457613c77614020565b338252602e602090815260408084206001600160a01b03808516600081815260018401865284902090875260339094529185208354939594909390921615613e6e575b50506044546001600160a01b031680613e15575b5060115415613d7057819260016011541615600014613d6757600860145b01613cf834825461449e565b905573__$1bfbdd025ffd3afc37361c6ba444514318$__6011549060425493813b15613d635760405163220809ab60e01b81526004810194909452602484015260448301919091526064820192909252908290829060849082905af4801561087657610aae57505080f35b8580fd5b6008601f613cec565b3415613e065780546001600160a01b031615613df7578192613d9434601c5461449e565b601c5573__$1bfbdd025ffd3afc37361c6ba444514318$__91823b15613df25760848492604051948593849262a05e2d60e31b845260048401526024830152602f6044830152601460648301525af4801561087657610aae57505080f35b505050fd5b6353670afb60e11b8252600482fd5b63174b96db60e31b8252600482fd5b803b156116b857828091602460405180948193631bab078b60e31b83523460048401525af18015613e6357908391613e4e575b50613cce565b81613e5891614361565b612ca1578138613e48565b6040513d85823e3d90fd5b84546001600160a01b0319166001600160a01b038316178555805490600160401b821015613eb15781610757916001613eaa95940181556140d5565b3880613cba565b634e487b7160e01b85526041600452602485fd5b50346106745760203660031901126106745760043563ffffffff60e01b8116809103612ca157602090637965db0b60e01b8114908115613f0b575b506040519015158152f35b6301ffc9a760e01b14905082613f00565b5060203660031901126106745760206134ba613f36614020565b6158c9565b503461067457602036600319011261067457602061118e60043561463a565b503461067457604036600319011261067457613f74614020565b613f7c614036565b6001600160a01b039182168352602e602090815260408085209390921680855260019390930181528184209284526033905282206011549091839173__$1bfbdd025ffd3afc37361c6ba444514318$__803b1561401c5760405163654d215f60e11b8152600481019390935260248301949094526044820152918190839060649082905af48015611a9a5761400e5780f35b61401791614361565b388180f35b8380fd5b600435906001600160a01b038216820361348a57565b602435906001600160a01b038216820361348a57565b604435906001600160a01b038216820361348a57565b606435906001600160a01b038216820361348a57565b608435906001600160a01b038216820361348a57565b60a435906001600160a01b038216820361348a57565b6038548110156140bf57603860005260206000200190600090565b634e487b7160e01b600052603260045260246000fd5b80548210156140bf5760005260206000200190600090565b606080918051845260208101516020850152604081015160408501520151910152565b906020808351928381520192019060005b81811061412e5750505090565b82516001600160a01b0316845260209384019390920191600101614121565b3461348a57600036600319011261348a576109256040516109768161096f81614862565b3461348a57600036600319011261348a5760206040516103e88152f35b3461348a57602036600319011261348a576001600160a01b036141af614020565b168060005260396020526040600020541515806141d4575b6020906040519015158152f35b50600052603a6020526020604060002054601154106141c7565b604090600319011261348a576004359060243590565b606090600319011261348a57600435906024359060443590565b602060408183019282815284518094520192019060005b8181106142425750505090565b909192602060608261427560019488516040809160018060a01b0381511684526020810151602085015201511515910152565b019401929101614235565b606090600319011261348a576004356001600160a01b038116810361348a57906024356001600160a01b038116810361348a579060443590565b9160406142dc929493602060c0820196805183520151602082015201906140ed565b565b606081019081106001600160401b038211176142f957604052565b634e487b7160e01b600052604160045260246000fd5b608081019081106001600160401b038211176142f957604052565b61018081019081106001600160401b038211176142f957604052565b604081019081106001600160401b038211176142f957604052565b90601f801991011681019081106001600160401b038211176142f957604052565b6001600160401b0381116142f95760051b60200190565b92916143a482614382565b936143b26040519586614361565b602085848152019260051b810191821161348a57915b8183106143d457505050565b82356001600160a01b038116810361348a578152602092830192016143c8565b9181601f8401121561348a578235916001600160401b03831161348a576020808501948460051b01011161348a57565b916144419061444f94928452606060208501526060840190614110565b916040818403910152614110565b90565b979491926101409996939c9b9a9794919c6101608a019d8a5260208a015260408901526060880152608087015260a086015260c085015260e08401526101008301526101208201520152565b919082018092116144ab57565b634e487b7160e01b600052601160045260246000fd5b818102929181159184041417156144ab57565b906803782dace9d8ffffff1982019182136001166144ab57565b906806f05b59d3b1ffffff1982019182136001166144ab57565b9068ad78ebc5ac61ffffff1982019182136001166144ab57565b906856bc75e2d630ffffff1982019182136001166144ab57565b90682b5e3af16b187fffff1982019182136001166144ab57565b906815af1d78b58c3fffff1982019182136001166144ab57565b90680ad78ebc5ac61fffff1982019182136001166144ab57565b9068056bc75e2d630fffff1982019182136001166144ab57565b906802b5e3af16b187ffff1982019182136001166144ab57565b9068015af1d78b58c3ffff1982019182136001166144ab57565b908168056bc75e2d63100000019182126001166144ab57565b919091600083820193841291129080158216911516176144ab57565b919082039182116144ab57565b8115614624570490565b634e487b7160e01b600052601260045260246000fd5b600181018091116144ab57670de0b6b3a7640000810290808204670de0b6b3a764000014901517156144ab57670186cc6acd4b000090684e1003b28d927fffff1981019081136001166144ab576146b39060008112906146a890660aa87bee53800090836147a15790617474565b90156147935761548f565b9081670de0b6b3a7640000019182126001166144ab57600082128015926146df929161478457906174de565b90600103614776575b80670214e8348c4f00000390670214e8348c4f000082116144ab57670de0b6b3a76400008202918204670de0b6b3a76400001490670214e8348c4f00001417156144ab5768138400eca364a000009004806b0d92289838d21a996800000002906b0d92289838d21a99680000008204036144ab57614772670de0b6b3a7640000916000549061461a565b0490565b61477f90615316565b6146e8565b61478d90615316565b906174de565b61479c90615316565b61548f565b6147aa90615316565b90617474565b604051906147bd826142de565b60006040838281528260208201520152565b60018060a01b0316600052602e602052600160406000200160018060a01b0382166000526020526040600020600181015415614827576001600160a01b03909116600090815260336020526040902061444f91615b03565b5050600090565b60001981146144ab5760010190565b6040519061484a8261430f565b60006060838281528260208201528260408201520152565b6020603854918281520190603860005260206000209060005b8181106148885750505090565b82546001600160a01b031684526020909301926001928301920161487b565b906020825491828152019160005260206000209060005b8181106148cb5750505090565b82546001600160a01b03168452602090930192600192830192016148be565b6000805160206175bf83398151915260005260008051602061759f8339815191526020527f595b99de72e44550de209b8610b07ab21870ce71a1063d294735321864dc516b5490565b60005260008051602061759f83398151915260205260016040600020015490565b604051906149618261432a565b6000610160838281528260208201528260408201528260608201528260808201528260a08201528260c08201528260e08201528261010082015282610120820152826101408201520152565b600211156149b757565b634e487b7160e01b600052602160045260246000fd5b9081602091031261348a575190565b604051906149eb602083614361565b600080835282815b8281106149ff57505050565b602090614a0a6147b0565b828285010152016149f3565b90614a2082614382565b614a2d6040519182614361565b8281528092614a3e601f1991614382565b019060005b828110614a4f57505050565b602090614a5a6147b0565b82828501015201614a43565b80518210156140bf5760209160051b010190565b8215614c2f5760008093603854945b858110614bd0575081841015614bc357614ab791614aa885928361449e565b90808211614bbb575b5061460d565b90614ac182614a16565b9160009260009160005b87811080614bb2575b15614ba757614ae2816140a4565b60018060a01b0391549060031b1c16806000526039602052604060002054868115159182614b9c575b5050614b21575b50614b1c9061482e565b614acb565b878792971015614b40575b50614b39614b1c9161482e565b9590614b12565b614b94614b1c929582614b3993600052603a60205260406000205460405191614b68836142de565b8252806020830152600019146040820152614b838288614a66565b52614b8e8187614a66565b5061482e565b949150614b2c565b111590508638614b0b565b505094505050505090565b50818410614ad4565b905038614ab1565b505050505061444f6149dc565b614bd9816140a4565b60018060a01b0391549060031b1c166000526039602052604060002054848115159182614c24575b5050614c10575b600101614a89565b91614c1c60019161482e565b929050614c08565b111590508438614c01565b50505061444f6149dc565b6101f48102908082046101f414901517156144ab57612710900490565b6038548015614c8c5760001901614c87614c728260386140d5565b81549060018060a01b039060031b1b19169055565b603855565b634e487b7160e01b600052603160045260246000fd5b80548015614c8c576000190190614cbc614c7283836140d5565b55565b80156144ab576000190190565b60365415614def576001600160a01b031660008181526039602052604090205415614def5760385460005b818110614d77575b50506020817fafe1b5701d937b2e60b3848d1cfa44c92f6199d8e1c5bd2cec4ad0e153d078ab92600052603982526000604081205580600052603a82526000604081205580600052603b82526000604081205560365480614d65575b50604051908152a1565b614d6e90614cbf565b60365538614d5b565b82614d81826140a4565b905460039190911b1c6001600160a01b031614614da057600101614cf7565b600019820192909183116144ab57614de160209261075761212c7fafe1b5701d937b2e60b3848d1cfa44c92f6199d8e1c5bd2cec4ad0e153d078ab966140a4565b614de9614c57565b91614cff565b50565b60405190614dff82614346565b60006020838281520152565b80548210156140bf5760005260206000209060011b0190600090565b90604051614e3481614346565b602060018294805484520154910152565b91906038549081841015614ee757614e6291614aa885928361449e565b614e6b81614a16565b9260005b828110614e7b57505050565b80614e90614e8b6001938561449e565b6140a4565b838060a01b0391549060031b1c1680600052603a60205260406000205460405191614eba836142de565b8252806020830152600019146040820152614ed58288614a66565b52614ee08187614a66565b5001614e6f565b5050905061444f6149dc565b6000903382526033602052604082209033835260356020526040832081615007575b60115415614f975773__$4c73b20894b72802355b5999003238f06e$__9060115493823b15613d6357604051632aa32d3360e01b81526004810191909152602481019190915260448101929092526064820192909252908290829060849082905af4801561087657614f85575050565b614f90828092614361565b6106745750565b506043549173__$4c73b20894b72802355b5999003238f06e$__803b156128305784929160a491604051958694859363b3650c2960e01b85526004850152602f602485015260448401526014606484015260848301525af4801561087657614ffd575050565b81614def91614361565b61501082616bc7565b614f15565b6103e88102908082046103e814901517156144ab57612710900490565b9081602091031261348a5751801515810361348a5790565b9061505482614382565b6150616040519182614361565b8281528092615072601f1991614382565b0190602036910137565b9094939260e0926101008301968352602f602084015260366040840152601f60608401526014608084015260a083015260c08201520152565b6001600160a01b039081166000908152602e6020908152604080832094909316825260019093018352818120603390935220600a81015490919060ff1660028110156149b75761513d57600b8201905b6001810154156151355761512c61512161444f94600693615b03565b6005840154906144c1565b9101549061461a565b505050600090565b6013820190615105565b6012546000916001820180921161312c57601154809210615311576001600160a01b03908116835260336020526040808420600a548251632bca1a2d60e21b81526004810183905293166024840152604483019390935273__$a9930a26518626f1cf41cf7d897563c531$__919081606481855af480156152c1578485916152d5575b6151d4925061449e565b80615240575b5060115491600183161561523857601f915b803b156128305784929160a491604051958694859363268aa99560e21b85526004850152602f602485015260366044850152606484015260848301525af4801561087657614f85575050565b6014916151ec565b6011546001166152cc57600a601f5b0161525b82825461449e565b90556044546001600160a01b03169081615276575b506151da565b813b1561283057849160248392604051948593849263eed9c5ef60e01b845260048401525af180156152c1576152ad575b80615270565b836152ba91949294614361565b91386152a7565b6040513d86823e3d90fd5b600a601461524f565b50506040813d604011615309575b816152f060409383614361565b8101031261401c578060206151d49251910151906151ca565b3d91506152e3565b505050565b600160ff1b81146144ab5760000390565b906064820291808305606414901517156144ab57565b906b02df0ab5a80a22c61ab5a7008202918083056b02df0ab5a80a22c61ab5a70014901517156144ab57565b90693f1fce3da636ea5cf850820291808305693f1fce3da636ea5cf85014901517156144ab57565b90690127fa27722cc06cc5e2820291808305690127fa27722cc06cc5e214901517156144ab57565b9068280e60114edb805d0382029180830568280e60114edb805d0314901517156144ab57565b90680ebc5fb41746121110820291808305680ebc5fb4174612111014901517156144ab57565b906808f00f760a4b2db55d8202918083056808f00f760a4b2db55d14901517156144ab57565b906806f5f17757889379378202918083056806f5f177578893793714901517156144ab57565b818102929160008212600160ff1b8214166144ab5781840514901517156144ab57565b811561462457600160ff1b81146000198314166144ab570590565b680238fd42c5cf03ffff19811215806158a2575b6154ac906174ae565b6000811261587d576806f05b59d3b20000008112615843576154cd906144ee565b6154ef770195e54c5dd42177f53a27172fa9ec63026282700000000091615327565b68056bc75e2d631000009068ad78ebc5ac62000000811215615823575b6856bc75e2d631000000811215615808575b682b5e3af16b188000008112156157ed575b6815af1d78b58c4000008112156157d2575b680ad78ebc5ac62000008112156157b7575b68056bc75e2d6310000081121561579c575b6802b5e3af16b1880000811215615781575b68015af1d78b58c40000811215615757575b80808080808080808061559c816145d8565b6155a68280615451565b68056bc75e2d6310000090056002900590816155c1916145f1565b916155cb91615451565b68056bc75e2d6310000090056003900590816155e6916145f1565b916155f091615451565b68056bc75e2d63100000900560049005908161560b916145f1565b9161561591615451565b68056bc75e2d631000009005600590059081615630916145f1565b9161563a91615451565b68056bc75e2d631000009005600690059081615655916145f1565b9161565f91615451565b68056bc75e2d63100000900560079005908161567a916145f1565b9161568491615451565b68056bc75e2d63100000900560089005908161569f916145f1565b916156a991615451565b68056bc75e2d6310000090056009900590816156c4916145f1565b916156ce91615451565b68056bc75e2d631000009005600a900590816156e9916145f1565b916156f391615451565b68056bc75e2d631000009005600b9005908161570e916145f1565b9161571891615451565b68056bc75e2d631000009005600c9005615731916145f1565b61573a91615451565b68056bc75e2d6310000090059061575091615451565b6064900590565b61576c61576661577b926145be565b9261542b565b68056bc75e2d63100000900590565b9061558a565b61576c615790615796926145a4565b92615405565b90615578565b61576c6157ab6157b19261458a565b926153df565b90615566565b61576c6157c66157cc92614570565b926153b9565b90615554565b61576c6157e16157e792614556565b92615391565b90615542565b61576c6157fc6158029261453c565b92615369565b90615530565b61576c61581761581d92614522565b9261533d565b9061551e565b61582d9150614508565b6e01855144814a7ff805980ff00840009061550c565b6803782dace9d900000081126158725761585c906144d4565b6154ef6b1425982cf597cd205cef738091615327565b6154ef600191615327565b61589961479c6ec097ce7bc90715b34b9f100000000092615316565b61444f91615474565b5068070c1cc73b00c800008113156154a3565b51906001600160a01b038216820361348a57565b601154151580615af8575b615ae7576001600160a01b0316908115615ad65733821415918280615ab6575b615aa5576030546005541115615a9457600c5460405163e2a4a27b60e01b8152336004820152602481018390526001600160a01b03909116906020816044816000865af18015615a4957615a55575b5060206004916040519283809263320ef67160e11b82525afa908115615a49576000916159e9575b507f2b7297b31452d0a13e57c605870ec3c9b4ac6ef33e5cbae7a0f00bc2a3e967829181606092956159bd575b6159a18161728b565b60405191825260018060a01b03166020820152346040820152a1565b600082815260346020526040902080546001600160a01b0319166001600160a01b038316179055615998565b906020823d602011615a41575b81615a0360209383614361565b8101031261067457507f2b7297b31452d0a13e57c605870ec3c9b4ac6ef33e5cbae7a0f00bc2a3e9678291615a396060926158b5565b91509161596b565b3d91506159f6565b6040513d6000823e3d90fd5b6020813d602011615a8c575b81615a6e60209383614361565b8101031261348a57600491615a846020926158b5565b509150615943565b3d9150615a61565b639ce3911d60e01b60005260046000fd5b632d6690dd60e11b60005260046000fd5b506000818152603460205260409020546001600160a01b031615156158f4565b63eb32d3bf60e01b60005260046000fd5b630b294dc360e01b60005260046000fd5b5060435434106158d4565b6011546000939192845b600185018054821015615bcb57615b25828592614e0b565b50966001880154600052601b840160205260406000209760018901548015600014615ba95750600289015480615b7b5750600291615b6491549061449e565b97015414615b7457600101615b0d565b5050509050565b90919250600281018091116144ab578592600292615b64928510615ba057549061449e565b5060009061449e565b91615bc5615bbd600294615b6494546144c1565b8b549061461a565b9061449e565b505050509050565b60008051602061755f833981519152546001600160a01b03163303615bf457565b63118cdaa760e01b6000523360045260246000fd5b601154801560008115615c805750615c2f6004545b60018416615c7957601f5b5461449e565b4210614827571580615c64575b615c5e5760125490600182018092116144ab5711615c5957600190565b600090565b50600090565b50600181018082116144ab57600f5410615c3c565b6014615c29565b60018311615c92575b615c2f90615c1e565b50615c2f615ca56002546003549061449e565b9050615c89565b615cb4614954565b5060018060a01b036001820154169160018060a01b0360028301541691600460018060a01b036003830154169101548254600384015460048501549060058601549260068701549460018801549660ff600760028b01549a015416996040519b615d1d8d61432a565b8c5260208c015260408b015260608a0152608089015260a088015260c087015260e0860152610100850152610120840152610140830152151561016082015290565b33600090815260008051602061763f833981519152602052604090205460ff1615615d8657565b63e2517d3f60e01b600052336004526000805160206175bf83398151915260245260446000fd5b600081815260008051602061759f8339815191526020908152604080832033845290915290205460ff1615615ddf5750565b63e2517d3f60e01b6000523360045260245260446000fd5b6001600160a01b038116600090815260008051602061763f833981519152602052604090205460ff16615c5e576001600160a01b0316600081815260008051602061763f83398151915260205260408120805460ff191660011790553391906000805160206175bf8339815191529060008051602061753f8339815191529080a4600190565b6001600160a01b03811660009081527fb7db2dd08fcb62d0c9e08c51941cae53c267786a0b75803fb7960902fc8ef97d602052604090205460ff16615c5e576001600160a01b031660008181527fb7db2dd08fcb62d0c9e08c51941cae53c267786a0b75803fb7960902fc8ef97d60205260408120805460ff1916600117905533919060008051602061753f8339815191528180a4600190565b600081815260008051602061759f833981519152602090815260408083206001600160a01b038616845290915290205460ff1661482757600081815260008051602061759f833981519152602090815260408083206001600160a01b0395909516808452949091528120805460ff191660011790553392919060008051602061753f8339815191529080a4600190565b60026000805160206175df8339815191525414615fd25760026000805160206175df83398151915255565b633ee5aeb560e01b60005260046000fd5b6001600160a01b038116600090815260008051602061763f833981519152602052604090205460ff1615615c5e576001600160a01b0316600081815260008051602061763f83398151915260205260408120805460ff191690553391906000805160206175bf833981519152907ff6391f5c32d9c69d2a47ea670b442974b53935d1edc7fd64eb21e047a839171b9080a4600190565b600081815260008051602061759f833981519152602090815260408083206001600160a01b038616845290915290205460ff161561482757600081815260008051602061759f833981519152602090815260408083206001600160a01b0395909516808452949091528120805460ff19169055339291907ff6391f5c32d9c69d2a47ea670b442974b53935d1edc7fd64eb21e047a839171b9080a4600190565b6001600160a01b031690600082156153115773__$a9930a26518626f1cf41cf7d897563c531$__8382526033602052604082209060115491813b1561401c5791839161618093604051809581948293635908033760e01b84528a600019916004860161507c565b03915af480156108765791604093917f6917318dac70d2950cf691aa372c972b60d4a75903e00a01f89a795a70de683795936161c6575b505082519182526020820152a1565b816161d091614361565b386161b7565b6001600160a01b031691600090831561623d5773__$a9930a26518626f1cf41cf7d897563c531$__908483526033602052604083209160115492813b1561283057604051635908033760e01b815293859385939284928392616180928b906004860161507c565b50505050565b80548015614c8c57600019019061625a82826140d5565b8154906000199060031b1b1916905555565b60115460009060011615801561687557601f905b15801561686e57601f5b811561686657602b915b82901561685e57602d905b816162ba603754603654809111616855575b6037549061460d565b60365560378790556030541561682057505060018060a01b03602f54168552603360205260408520928054906030549260405195631428a18d60e01b8752602f600488015260248701526044860152606485015285608485015260a484015260c483015260608260e48173__$10fea0eca7ca0798b023cff1d908ee714c$__5af480156152c157849285916167e7575b50915b80546167a8575b5042600184015561636660115461463a565b90600284019180835580151580616794575b616737575b50848081908454801590811561661a575b505080616593575b5080616513575b50506003840154916163b5600483019384549061449e565b936163c6600584019586549061460d565b600384015542835554868115616503575060001981019081116164ef5792868096959381959382945b600683015554600a8801978854616406908361449e565b90600701546164149161460d565b61641d82615015565b6164269161460d565b9061643090614c3a565b6164399161460d565b601354906164469161449e565b601355816001820155816007820155600201555555556011546164689061482e565b8060115560405181815260207f98f021e0ecab7c38e92fb55a25d5d8d422d82e26b170cee83568d7d6221353af91a16044546001600160a01b031690816164ae57505050565b6164b6617224565b823b1561401c579060448492836040519586948593633bbd2c1760e21b8552600485015260248401525af1801561087657614f85575050565b634e487b7160e01b87526011600452602487fd5b80969593819592508193826163ef565b600e54829182918291906001600160a01b03165af13d1561658e573d6001600160401b03811161657a5760405190616555601f8201601f191660200183614361565b81528660203d92013e5b1561656b57843861639d565b63bd5ac82f60e01b8552600485fd5b634e487b7160e01b87526041600452602487fd5b61655f565b600d54919250906001600160a01b0316801561660b57601154813b156166075790602489926040519485938492636f3f4c9760e11b845260048401525af180156165fc579087916165e7575b919091616396565b816165f191614361565b613d635785386165df565b6040513d89823e3d90fd5b8880fd5b630a0c98f360e41b8852600488fd5b925092505061662881615015565b9061663281614c3a565b92611d4c820290828204611d4c141715616723579061271089949392049083828460068c0154151560001461671957616671616671926166769561460d565b61460d565b6003890154151580616705575b1561638e5760445493945091926001600160a01b0316916166a39161449e565b813b1561660757889160248392604051948593849263d4ee6c2560e01b845260048401525af180156166fa5790889392916166df575b8061638e565b836166ed9194929394614361565b6124d857908691386166d9565b6040513d8a823e3d90fd5b506044546001600160a01b03161515616683565b5050505083616676565b634e487b7160e01b89526011600452602489fd5b6044546001600160a01b031690813b156124d8578691602483926040519485938492633b91c87560e21b845260048401525af18015616789571561637d578561678291969296614361565b933861637d565b6040513d88823e3d90fd5b506044546001600160a01b03161515616378565b9294919390945b6030546001810180911161312c57845411156167dc576167ce84614ca2565b6167d785616243565b6167af565b925092909338616354565b9250506060823d606011616818575b8161680360609383614361565b8101031261401c57602082519201513861634a565b3d91506167f6565b9694929091969593955b8754156168485761683a88614ca2565b61684387616243565b61682a565b919395509193955061634d565b806037556162b1565b602c9061629f565b602a91616294565b601461628a565b601490616280565b60115480158015616983575b615c5e5760125460001982019182116144ab578114615c5e5760075460405163132d95ab60e11b81526004810183905260009291602090829060249082906001600160a01b03165afa908115613e63578391616951575b5061694d57600954604051634d66354560e11b81526004810192909252909150602090829060249082906001600160a01b03165afa908115615a495760009161692e575b50615c5957600190565b616947915060203d602011611ea257611e948183614361565b38616924565b5090565b90506020813d60201161697b575b8161696c60209383614361565b810103126116b85751386168e0565b3d915061695f565b5060018114616889565b8115616b4f5760008092603854935b848110616ad1575081831015616ac5576169bb91614aa884928361449e565b6169c481614a16565b60009160009060005b86811080616abc575b15616ab2576169e4816140a4565b60018060a01b0391549060031b1c1680600052603a602052604060002054816000526039602052604060002054151580616aa7575b600181616a9f575b50616a37575b5050616a329061482e565b6169cd565b878793971015616a58575b5050616a50616a329161482e565b949038616a27565b616a329294616a5092616a989260405191616a72836142de565b8252806020830152600019146040820152616a8d8289614a66565b52614b8e8188614a66565b9391616a42565b905038616a21565b506011548111616a19565b5050509250505090565b508183106169d6565b5050505061444f6149dc565b616ada816140a4565b60018060a01b0391549060031b1c1680600052603a60205260406000205490600052603960205260406000205415159081616b43575b50600181616b3b575b50616b27575b60010161699c565b91616b3360019161482e565b929050616b1f565b905038616b19565b90506011541038616b10565b505061444f6149dc565b60008051602061761f83398151915280546001600160a01b031990811690915560008051602061755f83398151915280549182166001600160a01b0393841690811790915591167f8be0079c531659141344cd1fd0a4f28419497f9722a3daafe3b4186f6b6457e0600080a3565b6044546000916001600160a01b039091169081616be357505050565b813b156116b85760405163140edcf560e31b815260048101829052838160248183875af180156152c157616cbf575b50604051634f55e80160e11b81529061010082600481865afa9182156152c1578492616c87575b5080821115616c7f57616c4b9161460d565b813b156116b857829160248392604051948593849263b8cb573360e01b845260048401525af1801561087657614f85575050565b505081616c4b565b909150610100813d8211616cb7575b81616ca46101009383614361565b8101031261401c57602001519038616c39565b3d9150616c96565b83616ccc91949294614361565b9138616c12565b8215614c2f5760008093603854945b858110616dfa575081841015614bc357616d0191614aa885928361449e565b616d0a81614a16565b9060009260009160005b87811080616df1575b15616de657616d2b816140a4565b60018060a01b0391549060031b1c1680600052603a602052604060002054816000526039602052604060002054151580616ddd575b616d75575b5050616d709061482e565b616d14565b888893981015616d96575b5050616d8e616d709161482e565b959038616d65565b616d709295616d8e92616dd69260405191616db0836142de565b8252806020830152600019146040820152616dcb828a614a66565b52614b8e8189614a66565b9491616d80565b50848111616d60565b505050509250505090565b50818410616d1d565b616e03816140a4565b60018060a01b0391549060031b1c1680600052603a6020526040600020549060005260396020528460406000205415159182616e5d575b5050616e49575b600101616ce2565b91616e5560019161482e565b929050616e41565b1190508438616e3a565b9080601f8301121561348a578151616e7e81614382565b92616e8c6040519485614361565b81845260208085019260051b82010192831161348a57602001905b828210616eb45750505090565b60208091616ec1846158b5565b815201910190616ea7565b9160608383031261348a5782519260208101516001600160401b03811161348a5783616ef9918301616e67565b9260408201516001600160401b03811161348a5761444f9201616e67565b9196939590929496600181161591826000146170f157602d925b156170e957602b915b83549788156170d85782516000198a01998a116144ab578911156170c757616f6660009984519061460d565b8082116170bf575b5080156170b05788999a8998995060001461702f5790616fc792916040519b8c988998631392940760e21b8a5260048a0152602489015260448801526064870152608486015261012060a4860152610124850190614110565b9160c484015260e48301526036610104830152038173__$f680ff9963eb253eede013ef87b81d17c1$__5af492831561087657829083809561700c575b509093919050565b915091935061702592503d8091833e611a898183614361565b9290913880617004565b61707293506040519a8b97889763dff0f84760e01b89526004890152602488015260448701526064860152608485015261010060a4850152610104840190614110565b9060c4830152603660e4830152038173__$f680ff9963eb253eede013ef87b81d17c1$__5af492831561087657829083809561700c57509093919050565b637574a52b60e11b8952600489fd5b905038616f6e565b637574a52b60e11b60005260046000fd5b63d0b5c3bb60e01b60005260046000fd5b602a91616f3a565b602c92616f31565b6001600160a01b03811615614827576001600160a01b03166000908152603360205260409020906000600282036171b35750617143601383015b600560038201549101549061449e565b60018301549092906001600160a01b03168061718f575b50600201546001600160a01b03165b906001600160a01b03821661717d57505090565b617186916170f9565b61444f9161449e565b8261719c919492946170f9565b6171ab6002916171699361449e565b93915061715a565b60016171c3600a85015460ff1690565b6171cc816149ad565b1480617218575b8061720c575b156171eb575061714360138301617133565b506001811661720057617143600b8301617133565b61714360138301617133565b506010830154156171d9565b50600e830154156171d3565b601154801561724957602f546001600160a01b03169081156148275761444f916170f9565b50602f546000906001600160a01b031680617262575090565b905061727a60026172746000846170f9565b926170f9565b80821115617286575090565b905090565b617293615fa7565b61729c81615147565b60009060016000805160206175df833981519152553415617462576001600160a01b0390811680835260336020908152604080852083865260359092528420815492939092161561744d575b6044546001600160a01b0316806173fe575b50601154156173855760115460011661737c57600860145b0161731e34825461449e565b905573__$4c73b20894b72802355b5999003238f06e$__601154813b15613d635791608491869493604051968795869463464ad34b60e11b865260048601526024850152604484015260648301525af4801561087657614f85575050565b6008601f617312565b61739134601c5461449e565b601c5573__$4c73b20894b72802355b5999003238f06e$__604354813b15613d63579160c491869493604051968795869463ad09408360e01b865260048601526024850152602f604485015260648401526014608484015260a48301525af4801561087657614f85575050565b803b15612830578480916024604051809481936332578bc960e11b83523460048401525af1801561744257156172fa578461743b91959295614361565b92386172fa565b6040513d87823e3d90fd5b80546001600160a01b031916831781556172e8565b6001624ee83b60e01b03198252600482fd5b9061747e916144c1565b806174895750600090565b60001981019081116144ab57670de0b6b3a76400009004600181018091116144ab5790565b156174b557565b62461bcd60e51b6000908152602060045260076024526642414c2330303960c81b604452606490fd5b90816174eb575050600090565b670de0b6b3a76400008202918204670de0b6b3a7640000036144ab5761444f9161461a565b60ff6000805160206175ff8339815191525460401c161561752d57565b631afcd79f60e31b60005260046000fdfe2f8788117e7eff1d82e926ec794901d17c78024a50270940304540a733656f0d9016d09d72d40fdae2fd8ceac6b6234c7706214fd39c1cd1e609a0528c19930014ad70993200099d43e1f87a4c680f1a748142d340ffc4197c6eb268a725622c02dd7bc7dec4dceedda775e58dd541e08a116c6c53815c0bd028192f7b626800155e7f76c52e49fe8308e62eabe3ce449c978443b7d8beb86992427229ec386f9b779b17422d0df92223018b32b4d1fa46e071723d6817e2486d003becc55f00f0c57e16840df040f15088dc2f81fe391c3923bec73e23a9662efc9c229c6a00237e158222e3e6968b72b9db0d8043aacf074ad9f650f0d1606b4d82ee432c00595b99de72e44550de209b8610b07ab21870ce71a1063d294735321864dc516aa2646970667358221220bee30368895228e2d08f8bdd4aa848892df8464fe69bd7df97f9c4e7edaf52a664736f6c634300081c0033",
  "linkReferences": {
    "contracts/utils/DelegatorUtils.sol": {
      "DelegatorUtils": [
        {
          "length": 20,
          "start": 9359
        },
        {
          "length": 20,
          "start": 9498
        },
        {
          "length": 20,
          "start": 11714
        },
        {
          "length": 20,
          "start": 15639
        },
        {
          "length": 20,
          "start": 15796
        },
        {
          "length": 20,
          "start": 16340
        }
      ]
    },
    "contracts/utils/ValidatorPrimeUtils.sol": {
      "ValidatorPrimeUtils": [
        {
          "length": 20,
          "start": 2620
        },
        {
          "length": 20,
          "start": 5611
        },
        {
          "length": 20,
          "start": 20923
        },
        {
          "length": 20,
          "start": 24904
        },
        {
          "length": 20,
          "start": 25094
        }
      ]
    },
    "contracts/utils/ValidatorSelectionUtils.sol": {
      "ValidatorSelectionUtils": [
        {
          "length": 20,
          "start": 6705
        },
        {
          "length": 20,
          "start": 28665
        },
        {
          "length": 20,
          "start": 28830
        }
      ]
    },
    "contracts/utils/ValidatorTreeUtils.sol": {
      "ValidatorTreeUtils": [
        {
          "length": 20,
          "start": 25409
        }
      ]
    },
    "contracts/utils/ValidatorUtils.sol": {
      "ValidatorUtils": [
        {
          "length": 20,
          "start": 10230
        },
        {
          "length": 20,
          "start": 13371
        },
        {
          "length": 20,
          "start": 20282
        },
        {
          "length": 20,
          "start": 20409
        },
        {
          "length": 20,
          "start": 29501
        },
        {
          "length": 20,
          "start": 29617
        }
      ]
    }
  },
  "deployedLinkReferences": {
    "contracts/utils/DelegatorUtils.sol": {
      "DelegatorUtils": [
        {
          "length": 20,
          "start": 9332
        },
        {
          "length": 20,
          "start": 9471
        },
        {
          "length": 20,
          "start": 11687
        },
        {
          "length": 20,
          "start": 15612
        },
        {
          "length": 20,
          "start": 15769
        },
        {
          "length": 20,
          "start": 16313
        }
      ]
    },
    "contracts/utils/ValidatorPrimeUtils.sol": {
      "ValidatorPrimeUtils": [
        {
          "length": 20,
          "start": 2593
        },
        {
          "length": 20,
          "start": 5584
        },
        {
          "length": 20,
          "start": 20896
        },
        {
          "length": 20,
          "start": 24877
        },
        {
          "length": 20,
          "start": 25067
        }
      ]
    },
    "contracts/utils/ValidatorSelectionUtils.sol": {
      "ValidatorSelectionUtils": [
        {
          "length": 20,
          "start": 6678
        },
        {
          "length": 20,
          "start": 28638
        },
        {
          "length": 20,
          "start": 28803
        }
      ]
    },
    "contracts/utils/ValidatorTreeUtils.sol": {
      "ValidatorTreeUtils": [
        {
          "length": 20,
          "start": 25382
        }
      ]
    },
    "contracts/utils/ValidatorUtils.sol": {
      "ValidatorUtils": [
        {
          "length": 20,
          "start": 10203
        },
        {
          "length": 20,
          "start": 13344
        },
        {
          "length": 20,
          "start": 20255
        },
        {
          "length": 20,
          "start": 20382
        },
        {
          "length": 20,
          "start": 29474
        },
        {
          "length": 20,
          "start": 29590
        }
      ]
    }
  }
}