{
  "_format": "hh-sol-artifact-1",
  "contractName": "FeesVerifier",
  "sourceName": "contracts/fees/FeesVerifier.sol",
  "abi": [
    {
      "inputs": [],
      "name": "InvalidAppealRounds",
      "type": "error"
    },
    {
      "inputs": [],
      "name": "InvalidNumOfValidators",
      "type": "error"
    },
    {
      "inputs": [
        {
          "components": [
            {
              "internalType": "uint256",
              "name": "leaderTimeoutFee",
              "type": "uint256"
            },
            {
              "internalType": "uint256",
              "name": "validatorsTimeoutFee",
              "type": "uint256"
            },
            {
              "internalType": "uint256",
              "name": "appealRounds",
              "type": "uint256"
            },
            {
              "internalType": "uint256",
              "name": "rollupStorageFee",
              "type": "uint256"
            },
            {
              "internalType": "uint256",
              "name": "rollupGenVMFee",
              "type": "uint256"
            },
            {
              "internalType": "uint256",
              "name": "totalMessageFees",
              "type": "uint256"
            },
            {
              "internalType": "uint256[]",
              "name": "rotations",
              "type": "uint256[]"
            }
          ],
          "internalType": "struct IFeeManager.FeesDistribution",
          "name": "_feesDistribution",
          "type": "tuple"
        },
        {
          "internalType": "uint256",
          "name": "_numOfValidators",
          "type": "uint256"
        },
        {
          "internalType": "uint256",
          "name": "round",
          "type": "uint256"
        },
        {
          "internalType": "uint256[]",
          "name": "validatorsForRounds",
          "type": "uint256[]"
        }
      ],
      "name": "calculateRoundFees",
      "outputs": [
        {
          "internalType": "uint256",
          "name": "totalFeesToPay",
          "type": "uint256"
        }
      ],
      "stateMutability": "pure",
      "type": "function"
    },
    {
      "inputs": [
        {
          "internalType": "uint256",
          "name": "_round",
          "type": "uint256"
        },
        {
          "internalType": "uint256",
          "name": "_appealRounds",
          "type": "uint256"
        }
      ],
      "name": "checkFeesForNewRound",
      "outputs": [
        {
          "internalType": "bool",
          "name": "feesForNewRoundApproved",
          "type": "bool"
        }
      ],
      "stateMutability": "pure",
      "type": "function"
    }
  ],
  "bytecode": "0x608080604052346015576104d7908161001b8239f35b600080fdfe6080604052600436101561001257600080fd5b60003560e01c8063114bed01146103285763306f0a861461003257600080fd5b3461030d57608036600319011261030d5760043567ffffffffffffffff811161030d5760e0600319823603011261030d576040519060e0820182811067ffffffffffffffff8211176103125760405280600401358252602082019160248201358352604081019160448101358352606481013560608301526084810135608083015260a481013560a083015260c48101359067ffffffffffffffff821161030d5760046100e2923692010161036d565b9260c08201938452602435906044359260643567ffffffffffffffff811161030d5761011290369060040161036d565b93806102c657506101238484610432565b9261012e8486610408565b51036102b557845186515160001981019190821161023957036102a45760006101578486610408565b5187518051156102905760200151916001830180931161027c57509061018e610194926101888551918751906103f5565b906103e8565b906103f5565b600194859485925b88518060011b9080820460021490151715610239578811610266576101ca6101c489846103e8565b84610408565b516001891661024f578a518051861061020e575b50610208916101886101fc610202935b6101888a51918c51906103f5565b8a6103f5565b97610492565b9661019c565b9461022491985061021e81610492565b95610408565b516001810180911161023957966102086101de565b634e487b7160e01b600052601160045260246000fd5b9650610202610208916101886101fc60019a6101ee565b975050505050505050602091505b604051908152f35b634e487b7160e01b81526011600452602490fd5b634e487b7160e01b83526032600452602483fd5b632b4f002760e01b60005260046000fd5b63c4be27c560e01b60005260046000fd5b959450926102d79192508590610408565b51925190600019850194851161023957610188610308946102fd60209761018e95610408565b5194519251906103f5565b610274565b600080fd5b634e487b7160e01b600052604160045260246000fd5b3461030d57604036600319011261030d5760043561034d6024359160018116906103e8565b8160011b9180830460021490151715610239576020916040519111158152f35b9080601f8301121561030d5781359167ffffffffffffffff8311610312578260051b9060405193601f19603f840116850185811067ffffffffffffffff82111761031257604052845260208085019282010192831161030d57602001905b8282106103d85750505090565b81358152602091820191016103cb565b9190820180921161023957565b8181029291811591840414171561023957565b805182101561041c5760209160051b010190565b634e487b7160e01b600052603260045260246000fd5b90805160001981019081116102395761044b9082610408565b5182116102b55780519160005b8381106104715750505060001981019081116102395790565b8161047c8285610408565b51101561048b57600101610458565b9250505090565b6000198114610239576001019056fea26469706673582212203c11fcf5fd9e703bd80d359a41db5858524954ea2a6ac9cdaa020e5f14d81ea364736f6c634300081c0033",
  "linkReferences": {},
  "deployedLinkReferences": {}
}