{
  "_format": "hh-sol-artifact-1",
  "contractName": "StakingBan",
  "sourceName": "contracts/staking/StakingBan.sol",
  "abi": [
    {
      "inputs": [],
      "name": "AccessControlBadConfirmation",
      "type": "error"
    },
    {
      "inputs": [
        {
          "internalType": "address",
          "name": "account",
          "type": "address"
        },
        {
          "internalType": "bytes32",
          "name": "neededRole",
          "type": "bytes32"
        }
      ],
      "name": "AccessControlUnauthorizedAccount",
      "type": "error"
    },
    {
      "inputs": [],
      "name": "InvalidAtEpoch",
      "type": "error"
    },
    {
      "inputs": [],
      "name": "InvalidInitialization",
      "type": "error"
    },
    {
      "inputs": [],
      "name": "NotInitializing",
      "type": "error"
    },
    {
      "inputs": [],
      "name": "OnlyIdleness",
      "type": "error"
    },
    {
      "inputs": [],
      "name": "OnlyIdlenessOrTribunal",
      "type": "error"
    },
    {
      "inputs": [],
      "name": "OnlyTribunal",
      "type": "error"
    },
    {
      "inputs": [
        {
          "internalType": "address",
          "name": "owner",
          "type": "address"
        }
      ],
      "name": "OwnableInvalidOwner",
      "type": "error"
    },
    {
      "inputs": [
        {
          "internalType": "address",
          "name": "account",
          "type": "address"
        }
      ],
      "name": "OwnableUnauthorizedAccount",
      "type": "error"
    },
    {
      "inputs": [],
      "name": "ReentrancyGuardReentrantCall",
      "type": "error"
    },
    {
      "anonymous": false,
      "inputs": [],
      "name": "AllValidatorBansRemoved",
      "type": "event"
    },
    {
      "anonymous": false,
      "inputs": [
        {
          "indexed": false,
          "internalType": "uint64",
          "name": "version",
          "type": "uint64"
        }
      ],
      "name": "Initialized",
      "type": "event"
    },
    {
      "anonymous": false,
      "inputs": [
        {
          "indexed": true,
          "internalType": "address",
          "name": "previousOwner",
          "type": "address"
        },
        {
          "indexed": true,
          "internalType": "address",
          "name": "newOwner",
          "type": "address"
        }
      ],
      "name": "OwnershipTransferStarted",
      "type": "event"
    },
    {
      "anonymous": false,
      "inputs": [
        {
          "indexed": true,
          "internalType": "address",
          "name": "previousOwner",
          "type": "address"
        },
        {
          "indexed": true,
          "internalType": "address",
          "name": "newOwner",
          "type": "address"
        }
      ],
      "name": "OwnershipTransferred",
      "type": "event"
    },
    {
      "anonymous": false,
      "inputs": [
        {
          "indexed": false,
          "internalType": "uint256",
          "name": "startIndex",
          "type": "uint256"
        },
        {
          "indexed": false,
          "internalType": "uint256",
          "name": "processedCount",
          "type": "uint256"
        },
        {
          "indexed": false,
          "internalType": "uint256",
          "name": "nextIndex",
          "type": "uint256"
        }
      ],
      "name": "QuarantinesCleanedUp",
      "type": "event"
    },
    {
      "anonymous": false,
      "inputs": [
        {
          "indexed": true,
          "internalType": "bytes32",
          "name": "role",
          "type": "bytes32"
        },
        {
          "indexed": true,
          "internalType": "bytes32",
          "name": "previousAdminRole",
          "type": "bytes32"
        },
        {
          "indexed": true,
          "internalType": "bytes32",
          "name": "newAdminRole",
          "type": "bytes32"
        }
      ],
      "name": "RoleAdminChanged",
      "type": "event"
    },
    {
      "anonymous": false,
      "inputs": [
        {
          "indexed": true,
          "internalType": "bytes32",
          "name": "role",
          "type": "bytes32"
        },
        {
          "indexed": true,
          "internalType": "address",
          "name": "account",
          "type": "address"
        },
        {
          "indexed": true,
          "internalType": "address",
          "name": "sender",
          "type": "address"
        }
      ],
      "name": "RoleGranted",
      "type": "event"
    },
    {
      "anonymous": false,
      "inputs": [
        {
          "indexed": true,
          "internalType": "bytes32",
          "name": "role",
          "type": "bytes32"
        },
        {
          "indexed": true,
          "internalType": "address",
          "name": "account",
          "type": "address"
        },
        {
          "indexed": true,
          "internalType": "address",
          "name": "sender",
          "type": "address"
        }
      ],
      "name": "RoleRevoked",
      "type": "event"
    },
    {
      "anonymous": false,
      "inputs": [
        {
          "indexed": false,
          "internalType": "address",
          "name": "validator",
          "type": "address"
        }
      ],
      "name": "ValidatorBanRemoved",
      "type": "event"
    },
    {
      "anonymous": false,
      "inputs": [
        {
          "indexed": false,
          "internalType": "address",
          "name": "validator",
          "type": "address"
        }
      ],
      "name": "ValidatorBannedDeterministic",
      "type": "event"
    },
    {
      "anonymous": false,
      "inputs": [
        {
          "indexed": true,
          "internalType": "address",
          "name": "validator",
          "type": "address"
        }
      ],
      "name": "ValidatorIsNotInTree",
      "type": "event"
    },
    {
      "anonymous": false,
      "inputs": [
        {
          "indexed": false,
          "internalType": "address",
          "name": "validator",
          "type": "address"
        }
      ],
      "name": "ValidatorQuarantineRemoved",
      "type": "event"
    },
    {
      "anonymous": false,
      "inputs": [
        {
          "indexed": false,
          "internalType": "address",
          "name": "validator",
          "type": "address"
        },
        {
          "indexed": false,
          "internalType": "uint256",
          "name": "quarantinedAt",
          "type": "uint256"
        }
      ],
      "name": "ValidatorQuarantined",
      "type": "event"
    },
    {
      "anonymous": false,
      "inputs": [
        {
          "indexed": false,
          "internalType": "uint256",
          "name": "count",
          "type": "uint256"
        }
      ],
      "name": "ValidatorsRegistered",
      "type": "event"
    },
    {
      "inputs": [],
      "name": "DEFAULT_ADMIN_ROLE",
      "outputs": [
        {
          "internalType": "bytes32",
          "name": "",
          "type": "bytes32"
        }
      ],
      "stateMutability": "view",
      "type": "function"
    },
    {
      "inputs": [],
      "name": "DEFAULT_DELEGATOR_MIN_STAKE",
      "outputs": [
        {
          "internalType": "uint256",
          "name": "",
          "type": "uint256"
        }
      ],
      "stateMutability": "view",
      "type": "function"
    },
    {
      "inputs": [],
      "name": "DEFAULT_VALIDATOR_MIN_STAKE",
      "outputs": [
        {
          "internalType": "uint256",
          "name": "",
          "type": "uint256"
        }
      ],
      "stateMutability": "view",
      "type": "function"
    },
    {
      "inputs": [],
      "name": "DELEGATOR_UNBONDING_PERIOD",
      "outputs": [
        {
          "internalType": "uint256",
          "name": "",
          "type": "uint256"
        }
      ],
      "stateMutability": "view",
      "type": "function"
    },
    {
      "inputs": [],
      "name": "INFLATION_BASE",
      "outputs": [
        {
          "internalType": "uint256",
          "name": "",
          "type": "uint256"
        }
      ],
      "stateMutability": "view",
      "type": "function"
    },
    {
      "inputs": [],
      "name": "INFLATION_DEEPTHOUGHT_BPS",
      "outputs": [
        {
          "internalType": "uint256",
          "name": "",
          "type": "uint256"
        }
      ],
      "stateMutability": "view",
      "type": "function"
    },
    {
      "inputs": [],
      "name": "INFLATION_DEVELOPER_BPS",
      "outputs": [
        {
          "internalType": "uint256",
          "name": "",
          "type": "uint256"
        }
      ],
      "stateMutability": "view",
      "type": "function"
    },
    {
      "inputs": [],
      "name": "INFLATION_FINAL",
      "outputs": [
        {
          "internalType": "uint256",
          "name": "",
          "type": "uint256"
        }
      ],
      "stateMutability": "view",
      "type": "function"
    },
    {
      "inputs": [],
      "name": "INFLATION_INITIAL",
      "outputs": [
        {
          "internalType": "uint256",
          "name": "",
          "type": "uint256"
        }
      ],
      "stateMutability": "view",
      "type": "function"
    },
    {
      "inputs": [],
      "name": "INFLATION_MID",
      "outputs": [
        {
          "internalType": "int256",
          "name": "",
          "type": "int256"
        }
      ],
      "stateMutability": "view",
      "type": "function"
    },
    {
      "inputs": [],
      "name": "INFLATION_STAKER_BPS",
      "outputs": [
        {
          "internalType": "uint256",
          "name": "",
          "type": "uint256"
        }
      ],
      "stateMutability": "view",
      "type": "function"
    },
    {
      "inputs": [],
      "name": "INFLATION_STEEPNESS",
      "outputs": [
        {
          "internalType": "int256",
          "name": "",
          "type": "int256"
        }
      ],
      "stateMutability": "view",
      "type": "function"
    },
    {
      "inputs": [],
      "name": "INFLATION_VALIDATOR_BPS",
      "outputs": [
        {
          "internalType": "uint256",
          "name": "",
          "type": "uint256"
        }
      ],
      "stateMutability": "view",
      "type": "function"
    },
    {
      "inputs": [],
      "name": "L1_MESSENGER",
      "outputs": [
        {
          "internalType": "contract IL1Messenger",
          "name": "",
          "type": "address"
        }
      ],
      "stateMutability": "view",
      "type": "function"
    },
    {
      "inputs": [],
      "name": "QUARANTINE_MANAGER_ROLE",
      "outputs": [
        {
          "internalType": "bytes32",
          "name": "",
          "type": "bytes32"
        }
      ],
      "stateMutability": "view",
      "type": "function"
    },
    {
      "inputs": [],
      "name": "SLASH_CALLER_INCENTIVE_BPS",
      "outputs": [
        {
          "internalType": "uint256",
          "name": "",
          "type": "uint256"
        }
      ],
      "stateMutability": "view",
      "type": "function"
    },
    {
      "inputs": [],
      "name": "VALIDATOR_UNBONDING_PERIOD",
      "outputs": [
        {
          "internalType": "uint256",
          "name": "",
          "type": "uint256"
        }
      ],
      "stateMutability": "view",
      "type": "function"
    },
    {
      "inputs": [],
      "name": "acceptOwnership",
      "outputs": [],
      "stateMutability": "nonpayable",
      "type": "function"
    },
    {
      "inputs": [],
      "name": "addressManager",
      "outputs": [
        {
          "internalType": "contract IAddressManager",
          "name": "",
          "type": "address"
        }
      ],
      "stateMutability": "view",
      "type": "function"
    },
    {
      "inputs": [
        {
          "internalType": "address[]",
          "name": "validatorAddresses",
          "type": "address[]"
        }
      ],
      "name": "adminRegisterValidators",
      "outputs": [],
      "stateMutability": "nonpayable",
      "type": "function"
    },
    {
      "inputs": [],
      "name": "burning",
      "outputs": [
        {
          "internalType": "uint256",
          "name": "",
          "type": "uint256"
        }
      ],
      "stateMutability": "view",
      "type": "function"
    },
    {
      "inputs": [
        {
          "internalType": "uint256",
          "name": "_startIndex",
          "type": "uint256"
        },
        {
          "internalType": "uint256",
          "name": "_maxIterations",
          "type": "uint256"
        }
      ],
      "name": "cleanupExpiredQuarantines",
      "outputs": [
        {
          "internalType": "uint256",
          "name": "processedCount",
          "type": "uint256"
        },
        {
          "internalType": "uint256",
          "name": "nextIndex",
          "type": "uint256"
        }
      ],
      "stateMutability": "nonpayable",
      "type": "function"
    },
    {
      "inputs": [],
      "name": "deepthought",
      "outputs": [
        {
          "internalType": "address payable",
          "name": "",
          "type": "address"
        }
      ],
      "stateMutability": "view",
      "type": "function"
    },
    {
      "inputs": [],
      "name": "delegatorMinStake",
      "outputs": [
        {
          "internalType": "uint256",
          "name": "",
          "type": "uint256"
        }
      ],
      "stateMutability": "view",
      "type": "function"
    },
    {
      "inputs": [],
      "name": "epoch",
      "outputs": [
        {
          "internalType": "uint256",
          "name": "",
          "type": "uint256"
        }
      ],
      "stateMutability": "view",
      "type": "function"
    },
    {
      "inputs": [],
      "name": "epochEven",
      "outputs": [
        {
          "internalType": "uint256",
          "name": "start",
          "type": "uint256"
        },
        {
          "internalType": "uint256",
          "name": "end",
          "type": "uint256"
        },
        {
          "internalType": "uint256",
          "name": "inflation",
          "type": "uint256"
        },
        {
          "internalType": "uint256",
          "name": "weight",
          "type": "uint256"
        },
        {
          "internalType": "uint256",
          "name": "weightDeposit",
          "type": "uint256"
        },
        {
          "internalType": "uint256",
          "name": "weightWithdrawal",
          "type": "uint256"
        },
        {
          "internalType": "uint256",
          "name": "vcount",
          "type": "uint256"
        },
        {
          "internalType": "uint256",
          "name": "claimed",
          "type": "uint256"
        },
        {
          "internalType": "uint256",
          "name": "stakeDeposit",
          "type": "uint256"
        },
        {
          "internalType": "uint256",
          "name": "stakeWithdrawal",
          "type": "uint256"
        },
        {
          "internalType": "uint256",
          "name": "slashed",
          "type": "uint256"
        }
      ],
      "stateMutability": "view",
      "type": "function"
    },
    {
      "inputs": [],
      "name": "epochExtraMinDuration",
      "outputs": [
        {
          "internalType": "uint256",
          "name": "",
          "type": "uint256"
        }
      ],
      "stateMutability": "view",
      "type": "function"
    },
    {
      "inputs": [],
      "name": "epochMinDuration",
      "outputs": [
        {
          "internalType": "uint256",
          "name": "",
          "type": "uint256"
        }
      ],
      "stateMutability": "view",
      "type": "function"
    },
    {
      "inputs": [],
      "name": "epochMinDurationThreshold",
      "outputs": [
        {
          "internalType": "uint256",
          "name": "",
          "type": "uint256"
        }
      ],
      "stateMutability": "view",
      "type": "function"
    },
    {
      "inputs": [],
      "name": "epochOdd",
      "outputs": [
        {
          "internalType": "uint256",
          "name": "start",
          "type": "uint256"
        },
        {
          "internalType": "uint256",
          "name": "end",
          "type": "uint256"
        },
        {
          "internalType": "uint256",
          "name": "inflation",
          "type": "uint256"
        },
        {
          "internalType": "uint256",
          "name": "weight",
          "type": "uint256"
        },
        {
          "internalType": "uint256",
          "name": "weightDeposit",
          "type": "uint256"
        },
        {
          "internalType": "uint256",
          "name": "weightWithdrawal",
          "type": "uint256"
        },
        {
          "internalType": "uint256",
          "name": "vcount",
          "type": "uint256"
        },
        {
          "internalType": "uint256",
          "name": "claimed",
          "type": "uint256"
        },
        {
          "internalType": "uint256",
          "name": "stakeDeposit",
          "type": "uint256"
        },
        {
          "internalType": "uint256",
          "name": "stakeWithdrawal",
          "type": "uint256"
        },
        {
          "internalType": "uint256",
          "name": "slashed",
          "type": "uint256"
        }
      ],
      "stateMutability": "view",
      "type": "function"
    },
    {
      "inputs": [],
      "name": "epochZeroMinDuration",
      "outputs": [
        {
          "internalType": "uint256",
          "name": "",
          "type": "uint256"
        }
      ],
      "stateMutability": "view",
      "type": "function"
    },
    {
      "inputs": [],
      "name": "finalizationPhaseAddress",
      "outputs": [
        {
          "internalType": "address",
          "name": "",
          "type": "address"
        }
      ],
      "stateMutability": "view",
      "type": "function"
    },
    {
      "inputs": [],
      "name": "finalized",
      "outputs": [
        {
          "internalType": "uint256",
          "name": "",
          "type": "uint256"
        }
      ],
      "stateMutability": "view",
      "type": "function"
    },
    {
      "inputs": [
        {
          "internalType": "bytes32",
          "name": "role",
          "type": "bytes32"
        }
      ],
      "name": "getRoleAdmin",
      "outputs": [
        {
          "internalType": "bytes32",
          "name": "",
          "type": "bytes32"
        }
      ],
      "stateMutability": "view",
      "type": "function"
    },
    {
      "inputs": [
        {
          "internalType": "address",
          "name": "_account",
          "type": "address"
        }
      ],
      "name": "grantQuarantineManagerRole",
      "outputs": [],
      "stateMutability": "nonpayable",
      "type": "function"
    },
    {
      "inputs": [
        {
          "internalType": "bytes32",
          "name": "role",
          "type": "bytes32"
        },
        {
          "internalType": "address",
          "name": "account",
          "type": "address"
        }
      ],
      "name": "grantRole",
      "outputs": [],
      "stateMutability": "nonpayable",
      "type": "function"
    },
    {
      "inputs": [
        {
          "internalType": "bytes32",
          "name": "role",
          "type": "bytes32"
        },
        {
          "internalType": "address",
          "name": "account",
          "type": "address"
        }
      ],
      "name": "hasRole",
      "outputs": [
        {
          "internalType": "bool",
          "name": "",
          "type": "bool"
        }
      ],
      "stateMutability": "view",
      "type": "function"
    },
    {
      "inputs": [
        {
          "internalType": "address",
          "name": "_validator",
          "type": "address"
        },
        {
          "internalType": "uint256",
          "name": "_quarantinedAt",
          "type": "uint256"
        },
        {
          "internalType": "uint256",
          "name": "_quarantinedUntil",
          "type": "uint256"
        },
        {
          "internalType": "bytes32",
          "name": "_txId",
          "type": "bytes32"
        }
      ],
      "name": "idlenessBan",
      "outputs": [],
      "stateMutability": "nonpayable",
      "type": "function"
    },
    {
      "inputs": [
        {
          "internalType": "address[]",
          "name": "_validators",
          "type": "address[]"
        },
        {
          "internalType": "uint256",
          "name": "_quarantinedAt",
          "type": "uint256"
        },
        {
          "internalType": "uint256",
          "name": "_quarantinedUntil",
          "type": "uint256"
        },
        {
          "internalType": "bytes32",
          "name": "_txId",
          "type": "bytes32"
        }
      ],
      "name": "idlenessBanBatch",
      "outputs": [],
      "stateMutability": "nonpayable",
      "type": "function"
    },
    {
      "inputs": [],
      "name": "idlenessPhaseAddress",
      "outputs": [
        {
          "internalType": "address",
          "name": "",
          "type": "address"
        }
      ],
      "stateMutability": "view",
      "type": "function"
    },
    {
      "inputs": [],
      "name": "inflationEpoch",
      "outputs": [
        {
          "internalType": "uint256",
          "name": "",
          "type": "uint256"
        }
      ],
      "stateMutability": "view",
      "type": "function"
    },
    {
      "inputs": [],
      "name": "inflationRequestThreshold",
      "outputs": [
        {
          "internalType": "uint256",
          "name": "",
          "type": "uint256"
        }
      ],
      "stateMutability": "view",
      "type": "function"
    },
    {
      "inputs": [
        {
          "internalType": "uint256",
          "name": "",
          "type": "uint256"
        }
      ],
      "name": "inflationRequested",
      "outputs": [
        {
          "internalType": "bool",
          "name": "",
          "type": "bool"
        }
      ],
      "stateMutability": "view",
      "type": "function"
    },
    {
      "inputs": [],
      "name": "inflationSupply",
      "outputs": [
        {
          "internalType": "uint256",
          "name": "",
          "type": "uint256"
        }
      ],
      "stateMutability": "view",
      "type": "function"
    },
    {
      "inputs": [],
      "name": "inflationTargetAhead",
      "outputs": [
        {
          "internalType": "uint256",
          "name": "",
          "type": "uint256"
        }
      ],
      "stateMutability": "view",
      "type": "function"
    },
    {
      "inputs": [],
      "name": "l2GasLimit",
      "outputs": [
        {
          "internalType": "uint256",
          "name": "",
          "type": "uint256"
        }
      ],
      "stateMutability": "view",
      "type": "function"
    },
    {
      "inputs": [],
      "name": "l2GasPrice",
      "outputs": [
        {
          "internalType": "uint256",
          "name": "",
          "type": "uint256"
        }
      ],
      "stateMutability": "view",
      "type": "function"
    },
    {
      "inputs": [],
      "name": "maxValidators",
      "outputs": [
        {
          "internalType": "uint256",
          "name": "",
          "type": "uint256"
        }
      ],
      "stateMutability": "view",
      "type": "function"
    },
    {
      "inputs": [
        {
          "internalType": "address",
          "name": "",
          "type": "address"
        }
      ],
      "name": "operatorsToValidators",
      "outputs": [
        {
          "internalType": "address",
          "name": "",
          "type": "address"
        }
      ],
      "stateMutability": "view",
      "type": "function"
    },
    {
      "inputs": [],
      "name": "owner",
      "outputs": [
        {
          "internalType": "address",
          "name": "",
          "type": "address"
        }
      ],
      "stateMutability": "view",
      "type": "function"
    },
    {
      "inputs": [],
      "name": "pendingOwner",
      "outputs": [
        {
          "internalType": "address",
          "name": "",
          "type": "address"
        }
      ],
      "stateMutability": "view",
      "type": "function"
    },
    {
      "inputs": [],
      "name": "pendingRequestInflationFromL1",
      "outputs": [
        {
          "internalType": "bool",
          "name": "",
          "type": "bool"
        }
      ],
      "stateMutability": "view",
      "type": "function"
    },
    {
      "inputs": [],
      "name": "reductionFactor",
      "outputs": [
        {
          "internalType": "uint256",
          "name": "",
          "type": "uint256"
        }
      ],
      "stateMutability": "view",
      "type": "function"
    },
    {
      "inputs": [],
      "name": "removeAllValidatorBans",
      "outputs": [],
      "stateMutability": "nonpayable",
      "type": "function"
    },
    {
      "inputs": [],
      "name": "removeAllValidatorBansExceptPermanent",
      "outputs": [],
      "stateMutability": "nonpayable",
      "type": "function"
    },
    {
      "inputs": [
        {
          "internalType": "address",
          "name": "_validator",
          "type": "address"
        }
      ],
      "name": "removeValidatorBan",
      "outputs": [],
      "stateMutability": "nonpayable",
      "type": "function"
    },
    {
      "inputs": [
        {
          "internalType": "address",
          "name": "_validator",
          "type": "address"
        }
      ],
      "name": "removeValidatorQuarantine",
      "outputs": [],
      "stateMutability": "nonpayable",
      "type": "function"
    },
    {
      "inputs": [],
      "name": "renounceOwnership",
      "outputs": [],
      "stateMutability": "nonpayable",
      "type": "function"
    },
    {
      "inputs": [
        {
          "internalType": "bytes32",
          "name": "role",
          "type": "bytes32"
        },
        {
          "internalType": "address",
          "name": "callerConfirmation",
          "type": "address"
        }
      ],
      "name": "renounceRole",
      "outputs": [],
      "stateMutability": "nonpayable",
      "type": "function"
    },
    {
      "inputs": [],
      "name": "revealingPhaseAddress",
      "outputs": [
        {
          "internalType": "address",
          "name": "",
          "type": "address"
        }
      ],
      "stateMutability": "view",
      "type": "function"
    },
    {
      "inputs": [
        {
          "internalType": "address",
          "name": "_account",
          "type": "address"
        }
      ],
      "name": "revokeQuarantineManagerRole",
      "outputs": [],
      "stateMutability": "nonpayable",
      "type": "function"
    },
    {
      "inputs": [
        {
          "internalType": "bytes32",
          "name": "role",
          "type": "bytes32"
        },
        {
          "internalType": "address",
          "name": "account",
          "type": "address"
        }
      ],
      "name": "revokeRole",
      "outputs": [],
      "stateMutability": "nonpayable",
      "type": "function"
    },
    {
      "inputs": [],
      "name": "stakingInvariant",
      "outputs": [
        {
          "internalType": "address",
          "name": "",
          "type": "address"
        }
      ],
      "stateMutability": "view",
      "type": "function"
    },
    {
      "inputs": [
        {
          "internalType": "bytes4",
          "name": "interfaceId",
          "type": "bytes4"
        }
      ],
      "name": "supportsInterface",
      "outputs": [
        {
          "internalType": "bool",
          "name": "",
          "type": "bool"
        }
      ],
      "stateMutability": "view",
      "type": "function"
    },
    {
      "inputs": [],
      "name": "transactionFeesManager",
      "outputs": [
        {
          "internalType": "address",
          "name": "",
          "type": "address"
        }
      ],
      "stateMutability": "view",
      "type": "function"
    },
    {
      "inputs": [
        {
          "internalType": "address",
          "name": "newOwner",
          "type": "address"
        }
      ],
      "name": "transferOwnership",
      "outputs": [],
      "stateMutability": "nonpayable",
      "type": "function"
    },
    {
      "inputs": [
        {
          "internalType": "address",
          "name": "_validator",
          "type": "address"
        }
      ],
      "name": "validatorBanDeterministic",
      "outputs": [],
      "stateMutability": "nonpayable",
      "type": "function"
    },
    {
      "inputs": [
        {
          "internalType": "address",
          "name": "validatorAddress",
          "type": "address"
        }
      ],
      "name": "validatorInsertedInTree",
      "outputs": [
        {
          "internalType": "uint256",
          "name": "timestamp",
          "type": "uint256"
        }
      ],
      "stateMutability": "view",
      "type": "function"
    },
    {
      "inputs": [],
      "name": "validatorMinStake",
      "outputs": [
        {
          "internalType": "uint256",
          "name": "",
          "type": "uint256"
        }
      ],
      "stateMutability": "view",
      "type": "function"
    },
    {
      "inputs": [
        {
          "internalType": "address",
          "name": "_validator",
          "type": "address"
        },
        {
          "internalType": "uint256",
          "name": "_quarantinedAt",
          "type": "uint256"
        },
        {
          "internalType": "bytes32",
          "name": "_txId",
          "type": "bytes32"
        }
      ],
      "name": "validatorQuarantine",
      "outputs": [],
      "stateMutability": "nonpayable",
      "type": "function"
    },
    {
      "inputs": [
        {
          "internalType": "address",
          "name": "_validator",
          "type": "address"
        }
      ],
      "name": "validatorQuarantineRepeal",
      "outputs": [],
      "stateMutability": "nonpayable",
      "type": "function"
    },
    {
      "inputs": [
        {
          "internalType": "address",
          "name": "validatorAddress",
          "type": "address"
        }
      ],
      "name": "validatorRemovedFromTheTree",
      "outputs": [
        {
          "internalType": "uint256",
          "name": "timestamp",
          "type": "uint256"
        }
      ],
      "stateMutability": "view",
      "type": "function"
    },
    {
      "inputs": [
        {
          "internalType": "uint256",
          "name": "",
          "type": "uint256"
        }
      ],
      "name": "validatorsEven",
      "outputs": [
        {
          "internalType": "address",
          "name": "",
          "type": "address"
        }
      ],
      "stateMutability": "view",
      "type": "function"
    },
    {
      "inputs": [
        {
          "internalType": "uint256",
          "name": "",
          "type": "uint256"
        }
      ],
      "name": "validatorsJoined",
      "outputs": [
        {
          "internalType": "address",
          "name": "",
          "type": "address"
        }
      ],
      "stateMutability": "view",
      "type": "function"
    },
    {
      "inputs": [
        {
          "internalType": "uint256",
          "name": "",
          "type": "uint256"
        }
      ],
      "name": "validatorsOdd",
      "outputs": [
        {
          "internalType": "address",
          "name": "",
          "type": "address"
        }
      ],
      "stateMutability": "view",
      "type": "function"
    },
    {
      "inputs": [
        {
          "internalType": "uint256",
          "name": "",
          "type": "uint256"
        }
      ],
      "name": "weightsEven",
      "outputs": [
        {
          "internalType": "uint256",
          "name": "",
          "type": "uint256"
        }
      ],
      "stateMutability": "view",
      "type": "function"
    },
    {
      "inputs": [
        {
          "internalType": "uint256",
          "name": "",
          "type": "uint256"
        }
      ],
      "name": "weightsOdd",
      "outputs": [
        {
          "internalType": "uint256",
          "name": "",
          "type": "uint256"
        }
      ],
      "stateMutability": "view",
      "type": "function"
    }
  ],
  "bytecode": "0x60808060405234601557612a76908161001b8239f35b600080fdfe608080604052600436101561001357600080fd5b600090813560e01c90816301ffc9a714611e915750806308ac525614611e735780630a3cfb1314611e0d5780630ab07e8814611def5780630ee34fd514611c31578063112822d814611bfc5780631538faf214611bde57806318a3b88214611baf5780631bc2359a14611b91578063217fcc3e146113ac5780632272e0ab14611b7357806324147f6714611b5557806324840a5e14611b2c578063248a9ca314611b0557806326ed4c7014611ae25780632f2ff15d14611ab057806336568abe14611a6b5780633ab76e9f14611a425780633fde6d7b14611a2457806344aa3ded146119eb57806344b0d8d8146119c15780634971ec021461199e5780634c12b33f146119805780634f2938fc1461195757806354acf918146117ff578063624a4485146117e15780636378eba3146117c457806365c7dd4a1461178f57806367604d2714611771578063715018a6146116f0578063746e4ac7146116945780637492100f1461167257806379ba5097146115c35780637a5d26601461159a5780637d0b4906146114515780637e1233a914611434578063837725951461141757806387e51da9146113b15780638b7e92a6146113ac5780638da5cb5b14611376578063900cf0cf14611358578063900fd9ce146112e857806391bc99701461117757806391d14854146111215780639424f76114610fb957806396be02a714610f735780639ae3668514610f555780639d357fd814610f1c578063a01ebaa114610ef8578063a217fddf14610edc578063a8027c1014610eb9578063abfd6fa914610e95578063ac78a04b14610e78578063b03df1f014610e37578063b3f05b9714610e19578063bc338e7f14610dfd578063c0a604ad14610ddf578063c32459a114610c31578063c498c95b14610c0c578063cb17452f14610be3578063cd38347f14610bbc578063cd85623514610b9e578063cf6e65b714610b80578063d547741f14610b45578063d582a34b14610aed578063d7ef354414610ac4578063d9cb294314610924578063da7a9b6a14610906578063de8eec64146108dd578063e30c3978146108a7578063e3c6b0ca14610889578063f2fde38b14610801578063f85683ef146107d8578063fad76f6414610668578063fafebac51461061e578063fb6fe776146105da5763fd8d8f361461037057600080fd5b346105815780600319360112610581576103886122f7565b8061039460385461228f565b9181925b6038548410156104c7576103ab84611f1b565b905460039190911b1c6001600160a01b0316808452603a6020526040842054600019146104b6578084526039602052836040812055808452603a602052836040812055808452603b60205283604081205580845260336020526005604085208560048201550160ff19815416905560385460001981019081116104a25761043461047391611f1b565b905460039190911b1c6001600160a01b031661044f87611f1b565b9080546001600160a01b0360039390931b83811b199091169290931690921b179055565b61047b6120af565b610486603654612106565b60365561049c61049584612020565b9383612239565b52610398565b634e487b7160e01b85526011600452602485fd5b50926104c190612020565b92610398565b92506104d28161228f565b92825b8281106105b257506001600160a01b0391506104f1905061262b565b1691823b156105ae5760405190631a58e04360e31b825260248201602060048401528151809152602060448401920190845b81811061058f57505050818394818581819503925af180156105845761056c575b50807f59dd5c64d1987c202422ae7f4a43661c8a5c1bc51299a1c3dd35c1546ee1842c91a180f35b8161057691611f84565b610581578038610544565b80fd5b6040513d84823e3d90fd5b82516001600160a01b0316845260209384019390920191600101610523565b5080fd5b6001906001600160a01b036105c78285612239565b51166105d38288612239565b52016104d5565b5034610581576020366003190112610581576004359060455482101561058157602061060583611eea565b905460405160039290921b1c6001600160a01b03168152f35b503461058157806003193601126105815760145460155490610664601654601754601854601954601a54601b5491601c5493601d5495601e54976040519b8c9b8c611fd4565b0390f35b503461058157602036600319011261058157610682611f36565b6001600160a01b036106926126aa565b1633036107c9576001600160a01b0316808252603b60205260408220548290600181166107c257601f5b73__$a9930a26518626f1cf41cf7d897563c531$__908484526033602052604084206031549060325493878752603a6020526040872054813b156107be578795610104946040519889978896639adecea560e01b88526004880152602f6024880152604487015260366064870152608486015260a485015260c484015260e48301525af48015610584576107a9575b5050602f546001600160a01b031681148015610788575b61076a575080f35b80825260546020524260408320558152605560205280604081205580f35b50808252603360205260408220600301546001600160a01b03161515610762565b816107b391611f84565b6105ae57813861074b565b8780fd5b60146106bc565b63811befe960e01b8252600482fd5b5034610581578060031936011261058157604a546040516001600160a01b039091168152602090f35b50346105815760203660031901126105815761081b611f36565b6108236122c1565b600080516020612a0183398151915280546001600160a01b0319166001600160a01b03928316908117909155600080516020612981833981519152549091167f38d16b8cac22d99fc7c124b9cd0de2d3fa1faef420bfe791d8c362d765e227008380a380f35b50346105815780600319360112610581576020600354604051908152f35b5034610581578060031936011261058157600080516020612a01833981519152546040516001600160a01b039091168152602090f35b50346105815780600319360112610581576046546040516001600160a01b039091168152602090f35b50346105815780600319360112610581576020604254604051908152f35b503461058157806003193601126105815761093d6122f7565b6001600160a01b0361094d61262b565b1690813b1561058157604051631a58e04360e31b8152602060048201526038805460248301819052908352604482019060008051602061294183398151915290845b818110610aa557505050818394818581819503925af1801561058457610a90575b505b603854811015610a2257806109c8600192611f1b565b838060a01b0391549060031b1c168084526039602052836040812055808452603a602052836040812055808452603b602052836040812055835260336020526005604084208460048201550160ff198154169055016109b2565b506038548160385580610a60575b5080603655806037557f59dd5c64d1987c202422ae7f4a43661c8a5c1bc51299a1c3dd35c1546ee1842c8180a180f35b60388252600080516020612941833981519152908101905b818110610a855750610a30565b828155600101610a78565b81610a9a91611f84565b6105815780386109b0565b82546001600160a01b031684526020909301926001928301920161098f565b5034610581578060031936011261058157600e546040516001600160a01b039091168152602090f35b503461058157608036600319011261058157610b07611f36565b6001600160a01b03610b1761262b565b163303610b3657610b3390606435906044359060243590612812565b80f35b633cb01d9360e21b8252600482fd5b503461058157604036600319011261058157610b7c600435610b65611f51565b90610b77610b728261208e565b612345565b61256c565b5080f35b50346105815780600319360112610581576020604f54604051908152f35b50346105815780600319360112610581576020600454604051908152f35b503461058157806003193601126105815760206040516b0d92289838d21a99680000008152f35b503461058157806003193601126105815760206040516000805160206129e18339815191528152f35b503461058157806003193601126105815760206040516908e4d3168276864000008152f35b503461058157602036600319011261058157610c4b611f36565b6001600160a01b03610c5b6126aa565b1633036107c9576001600160a01b03168082526054602052604082205415610dc7575b80825260336020526040822073__$a9930a26518626f1cf41cf7d897563c531$__83601154823b156105ae5761012460405180948193630a85091160e11b8352876004840152602f602484015260366044840152601f6064840152601460848401528060a484015260001960c484015260e4830152846101048301525af48015610dbc57610d80575b507f94a7bf639ae38b6414015161ac06878bbac5ba80ee87e24ed428ce754136ec969160056020920160ff198154169055808452603982526040842054610d6d575b8084526054825283604081205580845260558252426040852055604051908152a180f35b610d78603754612020565b603755610d49565b91600584610db2602094967f94a7bf639ae38b6414015161ac06878bbac5ba80ee87e24ed428ce754136ec9696611f84565b9492505091610d07565b6040513d86823e3d90fd5b806000805160206129618339815191528380a2610c7e565b50346105815780600319360112610581576020600f54604051908152f35b5034610581578060031936011261058157602060405160648152f35b50346105815780600319360112610581576020601254604051908152f35b5034610581576020366003190112610581576020906001600160a01b03610e5c611f36565b16815260348252604060018060a01b0391205416604051908152f35b503461058157806003193601126105815760206040516101f48152f35b50346105815780600319360112610581576020604051680246ddf979766800008152f35b50346105815780600319360112610581576020604051660aa87bee537fff198152f35b5034610581578060031936011261058157602090604051908152f35b50346105815780600319360112610581576020604051684e1003b28d928000008152f35b5034610581576020366003190112610581576020906040906001600160a01b03610f44611f36565b168152605583522054604051908152f35b50346105815780600319360112610581576020604e54604051908152f35b5034610581578060031936011261058157601f5460205490610664602154602254602354602454602554602654916027549360285495602954976040519b8c9b8c611fd4565b503461058157602036600319011261058157610fd3611f36565b610fdb6122f7565b6001600160a01b03168082526039602052604082205461102e575b6020816000805160206129a1833981519152928452603382526005604085208560048201550160ff198154169055604051908152a180f35b8082526039602052816040812055808252603a602052816040812055808252603b602052816040812055815b60385480821015611108578261106f83611f1b565b905460039190911b1c6001600160a01b03161461108f575060010161105a565b60001981019081116110f457916110d560209261044f6110bd6000805160206129a183398151915296611f1b565b905460039190911b1c6001600160a01b031691611f1b565b6110dd6120af565b6110e8603654612106565b6036555b915050610ff6565b634e487b7160e01b84526011600452602484fd5b505060206000805160206129a1833981519152916110ec565b50346105815760403660031901126105815760ff6040602092611142611f51565b60043582526000805160206129c183398151915285528282206001600160a01b03909116825284522054604051911615158152f35b503461058157604036600319011261058157600435906024359082815b6038548510806112df575b15611283576111ad85611f1b565b905460039190911b1c6001600160a01b0316808452603a60205260408420546011548111159081611276575b5015611262578084526039602052836040812055808452603a6020528360408120558352603b60205282604081205560385460001981019081116110f4579061124261122761125d93611f1b565b905460039190911b1c6001600160a01b031661044f88611f1b565b61124a6120af565b611255603654612106565b603655612020565b611194565b509361127061125d91612020565b94612020565b60001914159050386111d9565b907fb4f207e0214684d66dd78934d83387898879a85c2c2710e99ee7fc29d2aa320f60608660409560385482106000146112d75750925b85519081528460208201528386820152a182519182526020820152f35b9050926112ba565b5083811061119f565b50346105815760203660031901126105815760043590602b5482101561058157602b5482101561134457602b90527f11c44e4875b74d31ff9fd779bf2566af7bd15b87fc985d01f5094b89e3669e4f0154604051908152602090f35b634e487b7160e01b81526032600452602490fd5b50346105815780600319360112610581576020601154604051908152f35b5034610581578060031936011261058157600080516020612981833981519152546040516001600160a01b039091168152602090f35b611f67565b50346105815760203660031901126105815760043590602c5482101561058157602c5482101561134457602c90527f7416c943b4a09859521022fd2e90eac0dd9026dad28fa317782a135f28a8609101546040516001600160a01b039091168152602090f35b50346105815780600319360112610581576020604051611d4c8152f35b503461058157806003193601126105815760206040516180088152f35b5034610581576080366003190112610581576004359067ffffffffffffffff8211610581573660238301121561058157816004013561148f81611fbc565b9261149d6040519485611f84565b8184526024602085019260051b8201019036821161159657602401915b818310611572575050606435926044359150602435906001600160a01b036114e061262b565b1633036115635781158015611558575b61154957835b8151811015611540576001600160a01b036115118284612239565b5116156115405760019061153a8786866001600160a01b036115338689612239565b5116612812565b016114f6565b50505050905080f35b63486e73c960e11b8452600484fd5b5060115482116114f0565b633cb01d9360e21b8452600484fd5b82356001600160a01b0381168103611592578152602092830192016114ba565b8480fd5b8380fd5b50346105815780600319360112610581576049546040516001600160a01b039091168152602090f35b5034610581578060031936011261058157600080516020612a0183398151915254336001600160a01b039091160361165f57600080516020612a0183398151915280546001600160a01b031990811690915560008051602061298183398151915280543392811683179091556001600160a01b03167f8be0079c531659141344cd1fd0a4f28419497f9722a3daafe3b4186f6b6457e08380a380f35b63118cdaa760e01b815233600452602490fd5b50346105815780600319360112610581576020604051668e1bc9bf0400008152f35b50346105815760203660031901126105815760043590602a5482101561058157602a5482101561134457602a90527fbeced09521047d05b8960b7e7bcc1d1292cf3e4b2a6b63f48335cbde5f7545d20154604051908152602090f35b50346105815780600319360112610581576117096122c1565b600080516020612a0183398151915280546001600160a01b03199081169091556000805160206129818339815191528054918216905581906001600160a01b03167f8be0079c531659141344cd1fd0a4f28419497f9722a3daafe3b4186f6b6457e08280a380f35b50346105815780600319360112610581576020604054604051908152f35b503461058157602036600319011261058157610b7c6117ac611f36565b6117b46122c1565b6117bf610b72612045565b61238f565b503461058157806003193601126105815760209054604051908152f35b50346105815780600319360112610581576020605054604051908152f35b503461058157606036600319011261058157611819611f36565b6001600160a01b0361182961262b565b163314158061193d575b80611893575b8061187e575b80611869575b61185a57610b33906044359060243590612707565b63fcde63e960e01b8252600482fd5b506048546001600160a01b0316331415611845565b506049546001600160a01b031633141561183f565b50604754604051631bae711d60e21b815260206004820181905260126024830152712a3930b739b0b1ba34b7b726b0b730b3b2b960711b60448301529091829060649082906001600160a01b03165afa908115611932578391611903575b506001600160a01b0316331415611839565b611925915060203d60201161192b575b61191d8183611f84565b81019061260c565b386118f1565b503d611913565b6040513d85823e3d90fd5b506001600160a01b0361194e6126aa565b16331415611833565b50346105815780600319360112610581576048546040516001600160a01b039091168152602090f35b50346105815780600319360112610581576020601354604051908152f35b50346105815780600319360112610581576020604051670214e8348c4f00008152f35b503461058157602036600319011261058157610b336119de611f36565b6119e66122f7565b612113565b5034610581576020366003190112610581576020906040906001600160a01b03611a13611f36565b168152605483522054604051908152f35b50346105815780600319360112610581576020600154604051908152f35b50346105815780600319360112610581576047546040516001600160a01b039091168152602090f35b503461058157604036600319011261058157611a85611f51565b336001600160a01b03821603611aa157610b7c9060043561256c565b63334bd91960e11b8252600482fd5b503461058157604036600319011261058157610b7c600435611ad0611f51565b90611add610b728261208e565b61242d565b5034610581578060031936011261058157602060ff605354166040519015158152f35b5034610581576020366003190112610581576020611b2460043561208e565b604051908152f35b50346105815780600319360112610581576044546040516001600160a01b039091168152602090f35b50346105815780600319360112610581576020605154604051908152f35b50346105815780600319360112610581576020604154604051908152f35b50346105815780600319360112610581576020600254604051908152f35b50346105815760203660031901126105815760ff60406020926004358152605284522054166040519015158152f35b50346105815780600319360112610581576020604354604051908152f35b503461058157602036600319011261058157610b7c611c19611f36565b611c216122c1565b611c2c610b72612045565b6124d6565b5034610581576020366003190112610581576004359067ffffffffffffffff821161058157366023830112156105815781600401359067ffffffffffffffff8211610581573660248360051b8501011161058157611c8d6122c1565b809281935b83851015611dc057600585901b8201602401356001600160a01b038116808203611592578015611db5576045549085805b838110611d82575b50611d76578552603360205260408520546001600160a01b031615611d3157600160401b811015611d1d5791611d0f611d149261044f856001809701604555611eea565b612020565b945b0193611c92565b634e487b7160e01b85526041600452602485fd5b60405162461bcd60e51b815260206004820152601a60248201527f4e6f74206120726567697374657265642076616c696461746f720000000000006044820152606490fd5b50505093600190611d16565b82611d8c82611eea565b905460039190911b1c6001600160a01b031614611dab57600101611cc3565b5050600138611ccb565b505093600190611d16565b7faa0ed3caafaf02fece694a4bd8769336d16d6f24595042c8e57f78d9f73e20f360208492604051908152a180f35b50346105815780600319360112610581576020601054604051908152f35b50346105815760203660031901126105815760043590602d5482101561058157602d5482101561134457602d90527f4a2cc91ee622da3bc833a54c37ffcb6f3ec23b7793efc5eaf5e71b7b406c5c0601546040516001600160a01b039091168152602090f35b50346105815780600319360112610581576020600554604051908152f35b9050346105ae5760203660031901126105ae5760043563ffffffff60e01b8116809103611ee65760209250637965db0b60e01b8114908115611ed5575b5015158152f35b6301ffc9a760e01b14905038611ece565b8280fd5b604554811015611f0557604560005260206000200190600090565b634e487b7160e01b600052603260045260246000fd5b603854811015611f0557603860005260206000200190600090565b600435906001600160a01b0382168203611f4c57565b600080fd5b602435906001600160a01b0382168203611f4c57565b34611f4c576000366003190112611f4c5760206040516103e88152f35b90601f8019910116810190811067ffffffffffffffff821117611fa657604052565b634e487b7160e01b600052604160045260246000fd5b67ffffffffffffffff8111611fa65760051b60200190565b979491926101409996939c9b9a9794919c6101608a019d8a5260208a015260408901526060880152608087015260a086015260c085015260e08401526101008301526101208201520152565b600019811461202f5760010190565b634e487b7160e01b600052601160045260246000fd5b6000805160206129e18339815191526000526000805160206129c18339815191526020527f595b99de72e44550de209b8610b07ab21870ce71a1063d294735321864dc516b5490565b6000526000805160206129c183398151915260205260016040600020015490565b60385480156120f05760001901600060385482101561134457603890819052600080516020612941833981519152820180546001600160a01b031916905555565b634e487b7160e01b600052603160045260246000fd5b801561202f576000190190565b60365415612236576001600160a01b0316600081815260396020526040902054156122365760385460005b8181106121be575b50506020817fafe1b5701d937b2e60b3848d1cfa44c92f6199d8e1c5bd2cec4ad0e153d078ab92600052603982526000604081205580600052603a82526000604081205580600052603b825260006040812055603654806121ac575b50604051908152a1565b6121b590612106565b603655386121a2565b826121c882611f1b565b905460039190911b1c6001600160a01b0316146121e75760010161213e565b6000198201929091831161202f5761222860209261044f6110bd7fafe1b5701d937b2e60b3848d1cfa44c92f6199d8e1c5bd2cec4ad0e153d078ab96611f1b565b6122306120af565b91612146565b50565b8051821015611f055760209160051b010190565b91926101009396959491966101208401978452602f602085015260366040850152601f60608501526014608085015260a084015260c083015260e08201520152565b9061229982611fbc565b6122a66040519182611f84565b82815280926122b7601f1991611fbc565b0190602036910137565b600080516020612981833981519152546001600160a01b031633036122e257565b63118cdaa760e01b6000523360045260246000fd5b336000908152600080516020612a21833981519152602052604090205460ff161561231e57565b63e2517d3f60e01b600052336004526000805160206129e183398151915260245260446000fd5b60008181526000805160206129c18339815191526020908152604080832033845290915290205460ff16156123775750565b63e2517d3f60e01b6000523360045260245260446000fd5b6001600160a01b0381166000908152600080516020612a21833981519152602052604090205460ff16612427576001600160a01b03166000818152600080516020612a2183398151915260205260408120805460ff191660011790553391906000805160206129e1833981519152907f2f8788117e7eff1d82e926ec794901d17c78024a50270940304540a733656f0d9080a4600190565b50600090565b60008181526000805160206129c1833981519152602090815260408083206001600160a01b038616845290915290205460ff166124cf5760008181526000805160206129c1833981519152602090815260408083206001600160a01b0395909516808452949091528120805460ff19166001179055339291907f2f8788117e7eff1d82e926ec794901d17c78024a50270940304540a733656f0d9080a4600190565b5050600090565b6001600160a01b0381166000908152600080516020612a21833981519152602052604090205460ff1615612427576001600160a01b03166000818152600080516020612a2183398151915260205260408120805460ff191690553391906000805160206129e1833981519152907ff6391f5c32d9c69d2a47ea670b442974b53935d1edc7fd64eb21e047a839171b9080a4600190565b60008181526000805160206129c1833981519152602090815260408083206001600160a01b038616845290915290205460ff16156124cf5760008181526000805160206129c1833981519152602090815260408083206001600160a01b0395909516808452949091528120805460ff19169055339291907ff6391f5c32d9c69d2a47ea670b442974b53935d1edc7fd64eb21e047a839171b9080a4600190565b90816020910312611f4c57516001600160a01b0381168103611f4c5790565b604754604051631bae711d60e21b8152602060048201819052600860248301526749646c656e65737360c01b60448301529091829060649082906001600160a01b03165afa90811561269e57600091612682575090565b61269b915060203d60201161192b5761191d8183611f84565b90565b6040513d6000823e3d90fd5b604754604051631bae711d60e21b8152602060048201819052600e60248301526d151c9a589d5b985b105c1c19585b60921b60448301529091829060649082906001600160a01b03165afa90811561269e57600091612682575090565b6001600160a01b031691600090831561280c5783825260546020526040822054156127f4575b73__$a9930a26518626f1cf41cf7d897563c531$__84835260336020526040832060115490823b1561159257604051630a85091160e11b8152938593859390928492839261278492600019908c906004870161224d565b03915af48015610584579160409391817f6917318dac70d2950cf691aa372c972b60d4a75903e00a01f89a795a70de683796946127e4575b84915052605460205280848120558281526055602052834291205582519182526020820152a1565b6127ed91611f84565b38816127bc565b836000805160206129618339815191528380a261272d565b50505050565b6001600160a01b0316929091906000908415612939576000198314928380612925575b61290d575b73__$a9930a26518626f1cf41cf7d897563c531$__86845260336020526040842060115493823b15612909578593929161288c899260405197889687958695630a85091160e11b87526004870161224d565b03915af4801561058457917f6917318dac70d2950cf691aa372c972b60d4a75903e00a01f89a795a70de6837959391604095936128f9575b50906128d9575b5082519182526020820152a1565b8281526054602052808481205582815260556020528342912055386128cb565b8161290391611f84565b386128c4565b8580fd5b856000805160206129618339815191528480a261283a565b508583526054602052604083205415612835565b505050505056fe38395c5dceade9603479b177b68959049485df8aa97b39f3533039af5f4561992e14f290af428a5a55cda34cae7292c879249089067e8f114d99a62b2ea43d559016d09d72d40fdae2fd8ceac6b6234c7706214fd39c1cd1e609a0528c19930014ad70993200099d43e1f87a4c680f1a748142d340ffc4197c6eb268a725622c02dd7bc7dec4dceedda775e58dd541e08a116c6c53815c0bd028192f7b626800155e7f76c52e49fe8308e62eabe3ce449c978443b7d8beb86992427229ec386f237e158222e3e6968b72b9db0d8043aacf074ad9f650f0d1606b4d82ee432c00595b99de72e44550de209b8610b07ab21870ce71a1063d294735321864dc516aa2646970667358221220d76640959223b2fffe206ea5c893ff50e131048e1b836ad59b0a044603f18a7564736f6c634300081c0033",
  "linkReferences": {
    "contracts/utils/ValidatorPrimeUtils.sol": {
      "ValidatorPrimeUtils": [
        {
          "length": 20,
          "start": 1753
        },
        {
          "length": 20,
          "start": 3239
        },
        {
          "length": 20,
          "start": 10058
        },
        {
          "length": 20,
          "start": 10327
        }
      ]
    }
  },
  "deployedLinkReferences": {
    "contracts/utils/ValidatorPrimeUtils.sol": {
      "ValidatorPrimeUtils": [
        {
          "length": 20,
          "start": 1726
        },
        {
          "length": 20,
          "start": 3212
        },
        {
          "length": 20,
          "start": 10031
        },
        {
          "length": 20,
          "start": 10300
        }
      ]
    }
  }
}