{
  "_format": "hh-sol-artifact-1",
  "contractName": "MockFeesVerifier",
  "sourceName": "contracts/test-helpers/MockFeesVerifier.sol",
  "abi": [
    {
      "inputs": [
        {
          "components": [
            {
              "internalType": "uint256",
              "name": "leaderTimeoutFee",
              "type": "uint256"
            },
            {
              "internalType": "uint256",
              "name": "validatorsTimeoutFee",
              "type": "uint256"
            },
            {
              "internalType": "uint256",
              "name": "appealRounds",
              "type": "uint256"
            },
            {
              "internalType": "uint256",
              "name": "rollupUnifiedBudget",
              "type": "uint256"
            },
            {
              "internalType": "uint256",
              "name": "rollupUnifiedConsumed",
              "type": "uint256"
            },
            {
              "internalType": "uint256",
              "name": "totalMessageFees",
              "type": "uint256"
            },
            {
              "internalType": "uint256[]",
              "name": "rotations",
              "type": "uint256[]"
            }
          ],
          "internalType": "struct IFeeManager.FeesDistribution",
          "name": "",
          "type": "tuple"
        },
        {
          "internalType": "uint256",
          "name": "",
          "type": "uint256"
        },
        {
          "internalType": "uint256",
          "name": "",
          "type": "uint256"
        },
        {
          "internalType": "uint256[]",
          "name": "",
          "type": "uint256[]"
        }
      ],
      "name": "calculateRoundFees",
      "outputs": [
        {
          "internalType": "uint256",
          "name": "totalFeesToPay",
          "type": "uint256"
        }
      ],
      "stateMutability": "pure",
      "type": "function"
    }
  ],
  "bytecode": "0x608080604052346015576101d0908161001b8239f35b600080fdfe6080604052600436101561001257600080fd5b60003560e01c63306f0a861461002757600080fd5b346101045760803660031901126101045760043567ffffffffffffffff81116101045760e06003198236030112610104576040519060e0820182811067ffffffffffffffff82111761010957604052806004013582526024810135602083015260448101356040830152606481013560608301526084810135608083015260a481013560a083015260c481013567ffffffffffffffff81116101045760c09160046100d5923692010161011f565b91015260643567ffffffffffffffff8111610104576100f890369060040161011f565b50602060405160008152f35b600080fd5b634e487b7160e01b600052604160045260246000fd5b9080601f830112156101045781359167ffffffffffffffff8311610109578260051b9060405193601f19603f840116850185811067ffffffffffffffff82111761010957604052845260208085019282010192831161010457602001905b82821061018a5750505090565b813581526020918201910161017d56fea264697066735822122035055edc844ac18c9030ec8de1013a02cfd8ad04796ada33e345072fc3e351c264736f6c634300081c0033",
  "linkReferences": {},
  "deployedLinkReferences": {}
}