{
  "_format": "hh-sol-artifact-1",
  "contractName": "StakingData",
  "sourceName": "contracts/StakingData.sol",
  "abi": [
    {
      "inputs": [],
      "name": "InvalidInitialization",
      "type": "error"
    },
    {
      "inputs": [],
      "name": "NotInitializing",
      "type": "error"
    },
    {
      "inputs": [
        {
          "internalType": "address",
          "name": "owner",
          "type": "address"
        }
      ],
      "name": "OwnableInvalidOwner",
      "type": "error"
    },
    {
      "inputs": [
        {
          "internalType": "address",
          "name": "account",
          "type": "address"
        }
      ],
      "name": "OwnableUnauthorizedAccount",
      "type": "error"
    },
    {
      "anonymous": false,
      "inputs": [
        {
          "indexed": false,
          "internalType": "uint64",
          "name": "version",
          "type": "uint64"
        }
      ],
      "name": "Initialized",
      "type": "event"
    },
    {
      "anonymous": false,
      "inputs": [
        {
          "indexed": true,
          "internalType": "address",
          "name": "previousOwner",
          "type": "address"
        },
        {
          "indexed": true,
          "internalType": "address",
          "name": "newOwner",
          "type": "address"
        }
      ],
      "name": "OwnershipTransferStarted",
      "type": "event"
    },
    {
      "anonymous": false,
      "inputs": [
        {
          "indexed": true,
          "internalType": "address",
          "name": "previousOwner",
          "type": "address"
        },
        {
          "indexed": true,
          "internalType": "address",
          "name": "newOwner",
          "type": "address"
        }
      ],
      "name": "OwnershipTransferred",
      "type": "event"
    },
    {
      "inputs": [],
      "name": "INFLATION_DEEPTHOUGHT_BPS",
      "outputs": [
        {
          "internalType": "uint256",
          "name": "",
          "type": "uint256"
        }
      ],
      "stateMutability": "view",
      "type": "function"
    },
    {
      "inputs": [],
      "name": "INFLATION_DEVELOPER_BPS",
      "outputs": [
        {
          "internalType": "uint256",
          "name": "",
          "type": "uint256"
        }
      ],
      "stateMutability": "view",
      "type": "function"
    },
    {
      "inputs": [],
      "name": "INFLATION_STAKER_BPS",
      "outputs": [
        {
          "internalType": "uint256",
          "name": "",
          "type": "uint256"
        }
      ],
      "stateMutability": "view",
      "type": "function"
    },
    {
      "inputs": [],
      "name": "INFLATION_VALIDATOR_BPS",
      "outputs": [
        {
          "internalType": "uint256",
          "name": "",
          "type": "uint256"
        }
      ],
      "stateMutability": "view",
      "type": "function"
    },
    {
      "inputs": [],
      "name": "acceptOwnership",
      "outputs": [],
      "stateMutability": "nonpayable",
      "type": "function"
    },
    {
      "inputs": [],
      "name": "addressManager",
      "outputs": [
        {
          "internalType": "contract IAddressManager",
          "name": "",
          "type": "address"
        }
      ],
      "stateMutability": "view",
      "type": "function"
    },
    {
      "inputs": [
        {
          "internalType": "address[]",
          "name": "_delegators",
          "type": "address[]"
        },
        {
          "internalType": "address[]",
          "name": "_validators",
          "type": "address[]"
        }
      ],
      "name": "batchGetDelegatorViews",
      "outputs": [
        {
          "components": [
            {
              "internalType": "address",
              "name": "delegatorAddress",
              "type": "address"
            },
            {
              "internalType": "address",
              "name": "validatorAddress",
              "type": "address"
            },
            {
              "internalType": "uint256",
              "name": "shares",
              "type": "uint256"
            },
            {
              "internalType": "uint256",
              "name": "stake",
              "type": "uint256"
            },
            {
              "internalType": "uint256",
              "name": "pendingDeposits",
              "type": "uint256"
            },
            {
              "internalType": "uint256",
              "name": "pendingWithdrawals",
              "type": "uint256"
            },
            {
              "internalType": "uint256",
              "name": "depositCount",
              "type": "uint256"
            },
            {
              "internalType": "uint256",
              "name": "withdrawalCount",
              "type": "uint256"
            }
          ],
          "internalType": "struct IStakingData.DelegatorDetailedView[]",
          "name": "views",
          "type": "tuple[]"
        }
      ],
      "stateMutability": "view",
      "type": "function"
    },
    {
      "inputs": [
        {
          "internalType": "address[]",
          "name": "_validators",
          "type": "address[]"
        }
      ],
      "name": "batchGetValidatorViews",
      "outputs": [
        {
          "components": [
            {
              "internalType": "address",
              "name": "validatorAddress",
              "type": "address"
            },
            {
              "internalType": "uint256",
              "name": "vStake",
              "type": "uint256"
            },
            {
              "internalType": "uint256",
              "name": "vShares",
              "type": "uint256"
            },
            {
              "internalType": "uint256",
              "name": "dStake",
              "type": "uint256"
            },
            {
              "internalType": "uint256",
              "name": "dShares",
              "type": "uint256"
            },
            {
              "internalType": "uint256",
              "name": "pendingDeposits",
              "type": "uint256"
            },
            {
              "internalType": "uint256",
              "name": "pendingWithdrawals",
              "type": "uint256"
            },
            {
              "internalType": "bool",
              "name": "isActive",
              "type": "bool"
            },
            {
              "internalType": "bool",
              "name": "isBanned",
              "type": "bool"
            },
            {
              "internalType": "bool",
              "name": "isPermanentlyBanned",
              "type": "bool"
            },
            {
              "internalType": "uint256",
              "name": "bannedUntilEpoch",
              "type": "uint256"
            },
            {
              "internalType": "bool",
              "name": "isLive",
              "type": "bool"
            }
          ],
          "internalType": "struct IStakingData.ValidatorDetailedView[]",
          "name": "views",
          "type": "tuple[]"
        }
      ],
      "stateMutability": "view",
      "type": "function"
    },
    {
      "inputs": [
        {
          "internalType": "uint256",
          "name": "_startIndex",
          "type": "uint256"
        },
        {
          "internalType": "uint256",
          "name": "_pageSize",
          "type": "uint256"
        }
      ],
      "name": "getActiveValidatorsList",
      "outputs": [
        {
          "components": [
            {
              "internalType": "address",
              "name": "validatorAddress",
              "type": "address"
            },
            {
              "internalType": "uint256",
              "name": "vStake",
              "type": "uint256"
            },
            {
              "internalType": "uint256",
              "name": "vShares",
              "type": "uint256"
            },
            {
              "internalType": "uint256",
              "name": "dStake",
              "type": "uint256"
            },
            {
              "internalType": "uint256",
              "name": "dShares",
              "type": "uint256"
            },
            {
              "internalType": "uint256",
              "name": "pendingDeposits",
              "type": "uint256"
            },
            {
              "internalType": "uint256",
              "name": "pendingWithdrawals",
              "type": "uint256"
            },
            {
              "internalType": "bool",
              "name": "isActive",
              "type": "bool"
            },
            {
              "internalType": "bool",
              "name": "isBanned",
              "type": "bool"
            },
            {
              "internalType": "bool",
              "name": "isPermanentlyBanned",
              "type": "bool"
            },
            {
              "internalType": "uint256",
              "name": "bannedUntilEpoch",
              "type": "uint256"
            },
            {
              "internalType": "bool",
              "name": "isLive",
              "type": "bool"
            }
          ],
          "internalType": "struct IStakingData.ValidatorDetailedView[]",
          "name": "validators",
          "type": "tuple[]"
        }
      ],
      "stateMutability": "view",
      "type": "function"
    },
    {
      "inputs": [
        {
          "internalType": "uint256",
          "name": "_startIndex",
          "type": "uint256"
        },
        {
          "internalType": "uint256",
          "name": "_pageSize",
          "type": "uint256"
        }
      ],
      "name": "getBannedValidatorsList",
      "outputs": [
        {
          "components": [
            {
              "internalType": "address",
              "name": "validatorAddress",
              "type": "address"
            },
            {
              "internalType": "uint256",
              "name": "vStake",
              "type": "uint256"
            },
            {
              "internalType": "uint256",
              "name": "vShares",
              "type": "uint256"
            },
            {
              "internalType": "uint256",
              "name": "dStake",
              "type": "uint256"
            },
            {
              "internalType": "uint256",
              "name": "dShares",
              "type": "uint256"
            },
            {
              "internalType": "uint256",
              "name": "pendingDeposits",
              "type": "uint256"
            },
            {
              "internalType": "uint256",
              "name": "pendingWithdrawals",
              "type": "uint256"
            },
            {
              "internalType": "bool",
              "name": "isActive",
              "type": "bool"
            },
            {
              "internalType": "bool",
              "name": "isBanned",
              "type": "bool"
            },
            {
              "internalType": "bool",
              "name": "isPermanentlyBanned",
              "type": "bool"
            },
            {
              "internalType": "uint256",
              "name": "bannedUntilEpoch",
              "type": "uint256"
            },
            {
              "internalType": "bool",
              "name": "isLive",
              "type": "bool"
            }
          ],
          "internalType": "struct IStakingData.ValidatorDetailedView[]",
          "name": "validators",
          "type": "tuple[]"
        }
      ],
      "stateMutability": "view",
      "type": "function"
    },
    {
      "inputs": [],
      "name": "getBurningStats",
      "outputs": [
        {
          "components": [
            {
              "internalType": "uint256",
              "name": "currentBurning",
              "type": "uint256"
            },
            {
              "internalType": "uint256",
              "name": "totalSlashed",
              "type": "uint256"
            },
            {
              "internalType": "uint256",
              "name": "totalInflationGenerated",
              "type": "uint256"
            }
          ],
          "internalType": "struct IStakingData.BurningStats",
          "name": "stats",
          "type": "tuple"
        }
      ],
      "stateMutability": "view",
      "type": "function"
    },
    {
      "inputs": [],
      "name": "getCumulativeTrackingData",
      "outputs": [
        {
          "components": [
            {
              "internalType": "uint256",
              "name": "cumValidatorDeposits",
              "type": "uint256"
            },
            {
              "internalType": "uint256",
              "name": "cumDelegatorDeposits",
              "type": "uint256"
            },
            {
              "internalType": "uint256",
              "name": "cumValidatorWithdrawals",
              "type": "uint256"
            },
            {
              "internalType": "uint256",
              "name": "cumDelegatorWithdrawals",
              "type": "uint256"
            },
            {
              "internalType": "uint256",
              "name": "cumValidatorRewards",
              "type": "uint256"
            },
            {
              "internalType": "uint256",
              "name": "cumDelegatorRewards",
              "type": "uint256"
            }
          ],
          "internalType": "struct IStakingData.CumulativeTrackingData",
          "name": "data",
          "type": "tuple"
        }
      ],
      "stateMutability": "view",
      "type": "function"
    },
    {
      "inputs": [],
      "name": "getCurrentEpochStats",
      "outputs": [
        {
          "components": [
            {
              "internalType": "uint256",
              "name": "epochNumber",
              "type": "uint256"
            },
            {
              "internalType": "uint256",
              "name": "start",
              "type": "uint256"
            },
            {
              "internalType": "uint256",
              "name": "end",
              "type": "uint256"
            },
            {
              "internalType": "uint256",
              "name": "inflation",
              "type": "uint256"
            },
            {
              "internalType": "uint256",
              "name": "weight",
              "type": "uint256"
            },
            {
              "internalType": "uint256",
              "name": "weightDeposit",
              "type": "uint256"
            },
            {
              "internalType": "uint256",
              "name": "weightWithdrawal",
              "type": "uint256"
            },
            {
              "internalType": "uint256",
              "name": "validatorCount",
              "type": "uint256"
            },
            {
              "internalType": "uint256",
              "name": "claimed",
              "type": "uint256"
            },
            {
              "internalType": "uint256",
              "name": "stakeDeposit",
              "type": "uint256"
            },
            {
              "internalType": "uint256",
              "name": "stakeWithdrawal",
              "type": "uint256"
            },
            {
              "internalType": "uint256",
              "name": "slashed",
              "type": "uint256"
            },
            {
              "internalType": "uint256",
              "name": "unfinishedTxCount",
              "type": "uint256"
            },
            {
              "internalType": "bool",
              "name": "isFinalized",
              "type": "bool"
            }
          ],
          "internalType": "struct IStakingData.EpochStats",
          "name": "stats",
          "type": "tuple"
        }
      ],
      "stateMutability": "view",
      "type": "function"
    },
    {
      "inputs": [],
      "name": "getCurrentEpochTransactionStats",
      "outputs": [
        {
          "components": [
            {
              "internalType": "uint256",
              "name": "epoch",
              "type": "uint256"
            },
            {
              "internalType": "uint256",
              "name": "unfinishedCount",
              "type": "uint256"
            },
            {
              "internalType": "uint256",
              "name": "totalTransactionCount",
              "type": "uint256"
            }
          ],
          "internalType": "struct IStakingData.TransactionEpochStats",
          "name": "stats",
          "type": "tuple"
        }
      ],
      "stateMutability": "view",
      "type": "function"
    },
    {
      "inputs": [
        {
          "internalType": "address",
          "name": "_delegator",
          "type": "address"
        },
        {
          "internalType": "address",
          "name": "_validator",
          "type": "address"
        }
      ],
      "name": "getDelegatorDetailedView",
      "outputs": [
        {
          "components": [
            {
              "internalType": "address",
              "name": "delegatorAddress",
              "type": "address"
            },
            {
              "internalType": "address",
              "name": "validatorAddress",
              "type": "address"
            },
            {
              "internalType": "uint256",
              "name": "shares",
              "type": "uint256"
            },
            {
              "internalType": "uint256",
              "name": "stake",
              "type": "uint256"
            },
            {
              "internalType": "uint256",
              "name": "pendingDeposits",
              "type": "uint256"
            },
            {
              "internalType": "uint256",
              "name": "pendingWithdrawals",
              "type": "uint256"
            },
            {
              "internalType": "uint256",
              "name": "depositCount",
              "type": "uint256"
            },
            {
              "internalType": "uint256",
              "name": "withdrawalCount",
              "type": "uint256"
            }
          ],
          "internalType": "struct IStakingData.DelegatorDetailedView",
          "name": "view_",
          "type": "tuple"
        }
      ],
      "stateMutability": "view",
      "type": "function"
    },
    {
      "inputs": [
        {
          "internalType": "address",
          "name": "_delegator",
          "type": "address"
        },
        {
          "internalType": "address",
          "name": "_validator",
          "type": "address"
        }
      ],
      "name": "getDelegatorStakeBreakdown",
      "outputs": [
        {
          "components": [
            {
              "internalType": "address",
              "name": "delegatorAddress",
              "type": "address"
            },
            {
              "internalType": "address",
              "name": "validatorAddress",
              "type": "address"
            },
            {
              "internalType": "uint256",
              "name": "delegatorShares",
              "type": "uint256"
            },
            {
              "internalType": "uint256",
              "name": "validatorTotalDStake",
              "type": "uint256"
            },
            {
              "internalType": "uint256",
              "name": "validatorTotalDShares",
              "type": "uint256"
            },
            {
              "internalType": "uint256",
              "name": "calculatedStakeValue",
              "type": "uint256"
            },
            {
              "internalType": "uint256",
              "name": "shareValueInStake",
              "type": "uint256"
            },
            {
              "internalType": "uint256",
              "name": "ownershipPercentage",
              "type": "uint256"
            }
          ],
          "internalType": "struct IStakingData.DelegatorStakeBreakdown",
          "name": "breakdown",
          "type": "tuple"
        }
      ],
      "stateMutability": "view",
      "type": "function"
    },
    {
      "inputs": [],
      "name": "getDelegatorStats",
      "outputs": [
        {
          "components": [
            {
              "internalType": "uint256",
              "name": "totalDelegatedStake",
              "type": "uint256"
            },
            {
              "internalType": "uint256",
              "name": "delegatorMinStake",
              "type": "uint256"
            },
            {
              "internalType": "uint256",
              "name": "unbondingPeriod",
              "type": "uint256"
            }
          ],
          "internalType": "struct IStakingData.DelegatorStats",
          "name": "stats",
          "type": "tuple"
        }
      ],
      "stateMutability": "view",
      "type": "function"
    },
    {
      "inputs": [
        {
          "internalType": "uint256",
          "name": "_epoch",
          "type": "uint256"
        }
      ],
      "name": "getEpochInflationBreakdown",
      "outputs": [
        {
          "components": [
            {
              "internalType": "uint256",
              "name": "totalInflation",
              "type": "uint256"
            },
            {
              "internalType": "uint256",
              "name": "stakerInflation",
              "type": "uint256"
            },
            {
              "internalType": "uint256",
              "name": "validatorInflation",
              "type": "uint256"
            },
            {
              "internalType": "uint256",
              "name": "developerInflation",
              "type": "uint256"
            },
            {
              "internalType": "uint256",
              "name": "deepthoughtInflation",
              "type": "uint256"
            }
          ],
          "internalType": "struct IStakingData.EpochInflationBreakdown",
          "name": "breakdown",
          "type": "tuple"
        }
      ],
      "stateMutability": "view",
      "type": "function"
    },
    {
      "inputs": [
        {
          "internalType": "uint256",
          "name": "_epoch",
          "type": "uint256"
        }
      ],
      "name": "getEpochStats",
      "outputs": [
        {
          "components": [
            {
              "internalType": "uint256",
              "name": "epochNumber",
              "type": "uint256"
            },
            {
              "internalType": "uint256",
              "name": "start",
              "type": "uint256"
            },
            {
              "internalType": "uint256",
              "name": "end",
              "type": "uint256"
            },
            {
              "internalType": "uint256",
              "name": "inflation",
              "type": "uint256"
            },
            {
              "internalType": "uint256",
              "name": "weight",
              "type": "uint256"
            },
            {
              "internalType": "uint256",
              "name": "weightDeposit",
              "type": "uint256"
            },
            {
              "internalType": "uint256",
              "name": "weightWithdrawal",
              "type": "uint256"
            },
            {
              "internalType": "uint256",
              "name": "validatorCount",
              "type": "uint256"
            },
            {
              "internalType": "uint256",
              "name": "claimed",
              "type": "uint256"
            },
            {
              "internalType": "uint256",
              "name": "stakeDeposit",
              "type": "uint256"
            },
            {
              "internalType": "uint256",
              "name": "stakeWithdrawal",
              "type": "uint256"
            },
            {
              "internalType": "uint256",
              "name": "slashed",
              "type": "uint256"
            },
            {
              "internalType": "uint256",
              "name": "unfinishedTxCount",
              "type": "uint256"
            },
            {
              "internalType": "bool",
              "name": "isFinalized",
              "type": "bool"
            }
          ],
          "internalType": "struct IStakingData.EpochStats",
          "name": "stats",
          "type": "tuple"
        }
      ],
      "stateMutability": "view",
      "type": "function"
    },
    {
      "inputs": [],
      "name": "getEpochTimingInfo",
      "outputs": [
        {
          "components": [
            {
              "internalType": "uint256",
              "name": "epochStart",
              "type": "uint256"
            },
            {
              "internalType": "uint256",
              "name": "minDuration",
              "type": "uint256"
            },
            {
              "internalType": "uint256",
              "name": "extraMinDuration",
              "type": "uint256"
            },
            {
              "internalType": "uint256",
              "name": "timeElapsed",
              "type": "uint256"
            },
            {
              "internalType": "uint256",
              "name": "timeRemaining",
              "type": "uint256"
            },
            {
              "internalType": "bool",
              "name": "canAdvanceNow",
              "type": "bool"
            }
          ],
          "internalType": "struct IStakingData.EpochTimingInfo",
          "name": "timing",
          "type": "tuple"
        }
      ],
      "stateMutability": "view",
      "type": "function"
    },
    {
      "inputs": [],
      "name": "getExternalContracts",
      "outputs": [
        {
          "components": [
            {
              "internalType": "address",
              "name": "staking",
              "type": "address"
            },
            {
              "internalType": "address",
              "name": "stakingInvariant",
              "type": "address"
            },
            {
              "internalType": "address",
              "name": "transactions",
              "type": "address"
            },
            {
              "internalType": "address",
              "name": "queues",
              "type": "address"
            }
          ],
          "internalType": "struct IStakingData.ExternalContractsView",
          "name": "contracts_",
          "type": "tuple"
        }
      ],
      "stateMutability": "view",
      "type": "function"
    },
    {
      "inputs": [],
      "name": "getInvariantCheck",
      "outputs": [
        {
          "components": [
            {
              "internalType": "bool",
              "name": "totalStakeValid",
              "type": "bool"
            },
            {
              "internalType": "bool",
              "name": "withdrawalsValid",
              "type": "bool"
            },
            {
              "internalType": "bool",
              "name": "sharesStakeValid",
              "type": "bool"
            },
            {
              "internalType": "bool",
              "name": "validatorWeightsValid",
              "type": "bool"
            },
            {
              "internalType": "bool",
              "name": "arrayLengthsValid",
              "type": "bool"
            },
            {
              "internalType": "bool",
              "name": "inflationValid",
              "type": "bool"
            },
            {
              "internalType": "bool",
              "name": "burningValid",
              "type": "bool"
            },
            {
              "internalType": "bool",
              "name": "claimVsCommitValid",
              "type": "bool"
            },
            {
              "internalType": "bool",
              "name": "addressMappingValid",
              "type": "bool"
            },
            {
              "internalType": "bool",
              "name": "circulationValid",
              "type": "bool"
            },
            {
              "internalType": "uint256",
              "name": "violationsFound",
              "type": "uint256"
            }
          ],
          "internalType": "struct IStakingData.InvariantCheckResult",
          "name": "result",
          "type": "tuple"
        }
      ],
      "stateMutability": "view",
      "type": "function"
    },
    {
      "inputs": [],
      "name": "getMonitoringSnapshot",
      "outputs": [
        {
          "components": [
            {
              "components": [
                {
                  "internalType": "bool",
                  "name": "isHealthy",
                  "type": "bool"
                },
                {
                  "internalType": "uint256",
                  "name": "epoch",
                  "type": "uint256"
                },
                {
                  "internalType": "uint256",
                  "name": "finalized",
                  "type": "uint256"
                },
                {
                  "internalType": "uint256",
                  "name": "activeValidatorCount",
                  "type": "uint256"
                },
                {
                  "internalType": "uint256",
                  "name": "quarantinedCount",
                  "type": "uint256"
                },
                {
                  "internalType": "uint256",
                  "name": "bannedCount",
                  "type": "uint256"
                },
                {
                  "internalType": "uint256",
                  "name": "totalStake",
                  "type": "uint256"
                },
                {
                  "internalType": "bool",
                  "name": "canAdvance",
                  "type": "bool"
                },
                {
                  "internalType": "bool",
                  "name": "canFinalize",
                  "type": "bool"
                },
                {
                  "internalType": "uint256",
                  "name": "timeSinceEpochStart",
                  "type": "uint256"
                },
                {
                  "internalType": "uint256",
                  "name": "timeToNextEpochAdvance",
                  "type": "uint256"
                }
              ],
              "internalType": "struct IStakingData.SystemHealthStatus",
              "name": "health",
              "type": "tuple"
            },
            {
              "components": [
                {
                  "internalType": "uint256",
                  "name": "epochNumber",
                  "type": "uint256"
                },
                {
                  "internalType": "uint256",
                  "name": "start",
                  "type": "uint256"
                },
                {
                  "internalType": "uint256",
                  "name": "end",
                  "type": "uint256"
                },
                {
                  "internalType": "uint256",
                  "name": "inflation",
                  "type": "uint256"
                },
                {
                  "internalType": "uint256",
                  "name": "weight",
                  "type": "uint256"
                },
                {
                  "internalType": "uint256",
                  "name": "weightDeposit",
                  "type": "uint256"
                },
                {
                  "internalType": "uint256",
                  "name": "weightWithdrawal",
                  "type": "uint256"
                },
                {
                  "internalType": "uint256",
                  "name": "validatorCount",
                  "type": "uint256"
                },
                {
                  "internalType": "uint256",
                  "name": "claimed",
                  "type": "uint256"
                },
                {
                  "internalType": "uint256",
                  "name": "stakeDeposit",
                  "type": "uint256"
                },
                {
                  "internalType": "uint256",
                  "name": "stakeWithdrawal",
                  "type": "uint256"
                },
                {
                  "internalType": "uint256",
                  "name": "slashed",
                  "type": "uint256"
                },
                {
                  "internalType": "uint256",
                  "name": "unfinishedTxCount",
                  "type": "uint256"
                },
                {
                  "internalType": "bool",
                  "name": "isFinalized",
                  "type": "bool"
                }
              ],
              "internalType": "struct IStakingData.EpochStats",
              "name": "currentEpoch",
              "type": "tuple"
            },
            {
              "components": [
                {
                  "internalType": "uint256",
                  "name": "totalValidators",
                  "type": "uint256"
                },
                {
                  "internalType": "uint256",
                  "name": "activeValidators",
                  "type": "uint256"
                },
                {
                  "internalType": "uint256",
                  "name": "quarantinedValidators",
                  "type": "uint256"
                },
                {
                  "internalType": "uint256",
                  "name": "bannedValidators",
                  "type": "uint256"
                },
                {
                  "internalType": "uint256",
                  "name": "permanentlyBannedValidators",
                  "type": "uint256"
                },
                {
                  "internalType": "uint256",
                  "name": "totalValidatorStake",
                  "type": "uint256"
                },
                {
                  "internalType": "uint256",
                  "name": "totalDelegatedStake",
                  "type": "uint256"
                },
                {
                  "internalType": "uint256",
                  "name": "averageValidatorStake",
                  "type": "uint256"
                },
                {
                  "internalType": "uint256",
                  "name": "averageDelegatedStake",
                  "type": "uint256"
                },
                {
                  "internalType": "uint256",
                  "name": "validatorMinStake",
                  "type": "uint256"
                },
                {
                  "internalType": "uint256",
                  "name": "maxValidators",
                  "type": "uint256"
                }
              ],
              "internalType": "struct IStakingData.ValidatorStats",
              "name": "validators",
              "type": "tuple"
            },
            {
              "components": [
                {
                  "internalType": "uint256",
                  "name": "totalDelegatedStake",
                  "type": "uint256"
                },
                {
                  "internalType": "uint256",
                  "name": "delegatorMinStake",
                  "type": "uint256"
                },
                {
                  "internalType": "uint256",
                  "name": "unbondingPeriod",
                  "type": "uint256"
                }
              ],
              "internalType": "struct IStakingData.DelegatorStats",
              "name": "delegators",
              "type": "tuple"
            },
            {
              "components": [
                {
                  "internalType": "bool",
                  "name": "totalStakeValid",
                  "type": "bool"
                },
                {
                  "internalType": "bool",
                  "name": "withdrawalsValid",
                  "type": "bool"
                },
                {
                  "internalType": "bool",
                  "name": "sharesStakeValid",
                  "type": "bool"
                },
                {
                  "internalType": "bool",
                  "name": "validatorWeightsValid",
                  "type": "bool"
                },
                {
                  "internalType": "bool",
                  "name": "arrayLengthsValid",
                  "type": "bool"
                },
                {
                  "internalType": "bool",
                  "name": "inflationValid",
                  "type": "bool"
                },
                {
                  "internalType": "bool",
                  "name": "burningValid",
                  "type": "bool"
                },
                {
                  "internalType": "bool",
                  "name": "claimVsCommitValid",
                  "type": "bool"
                },
                {
                  "internalType": "bool",
                  "name": "addressMappingValid",
                  "type": "bool"
                },
                {
                  "internalType": "bool",
                  "name": "circulationValid",
                  "type": "bool"
                },
                {
                  "internalType": "uint256",
                  "name": "violationsFound",
                  "type": "uint256"
                }
              ],
              "internalType": "struct IStakingData.InvariantCheckResult",
              "name": "invariants",
              "type": "tuple"
            }
          ],
          "internalType": "struct IStakingData.MonitoringSnapshot",
          "name": "snapshot",
          "type": "tuple"
        }
      ],
      "stateMutability": "view",
      "type": "function"
    },
    {
      "inputs": [
        {
          "internalType": "uint256",
          "name": "_startIndex",
          "type": "uint256"
        },
        {
          "internalType": "uint256",
          "name": "_pageSize",
          "type": "uint256"
        }
      ],
      "name": "getQuarantinedValidatorsList",
      "outputs": [
        {
          "components": [
            {
              "internalType": "address",
              "name": "validatorAddress",
              "type": "address"
            },
            {
              "internalType": "uint256",
              "name": "vStake",
              "type": "uint256"
            },
            {
              "internalType": "uint256",
              "name": "vShares",
              "type": "uint256"
            },
            {
              "internalType": "uint256",
              "name": "dStake",
              "type": "uint256"
            },
            {
              "internalType": "uint256",
              "name": "dShares",
              "type": "uint256"
            },
            {
              "internalType": "uint256",
              "name": "pendingDeposits",
              "type": "uint256"
            },
            {
              "internalType": "uint256",
              "name": "pendingWithdrawals",
              "type": "uint256"
            },
            {
              "internalType": "bool",
              "name": "isActive",
              "type": "bool"
            },
            {
              "internalType": "bool",
              "name": "isBanned",
              "type": "bool"
            },
            {
              "internalType": "bool",
              "name": "isPermanentlyBanned",
              "type": "bool"
            },
            {
              "internalType": "uint256",
              "name": "bannedUntilEpoch",
              "type": "uint256"
            },
            {
              "internalType": "bool",
              "name": "isLive",
              "type": "bool"
            }
          ],
          "internalType": "struct IStakingData.ValidatorDetailedView[]",
          "name": "validators",
          "type": "tuple[]"
        }
      ],
      "stateMutability": "view",
      "type": "function"
    },
    {
      "inputs": [],
      "name": "getStakingConfiguration",
      "outputs": [
        {
          "components": [
            {
              "internalType": "uint256",
              "name": "validatorMinStake",
              "type": "uint256"
            },
            {
              "internalType": "uint256",
              "name": "delegatorMinStake",
              "type": "uint256"
            },
            {
              "internalType": "uint256",
              "name": "validatorUnbondingPeriod",
              "type": "uint256"
            },
            {
              "internalType": "uint256",
              "name": "delegatorUnbondingPeriod",
              "type": "uint256"
            },
            {
              "internalType": "uint256",
              "name": "maxValidators",
              "type": "uint256"
            },
            {
              "internalType": "uint256",
              "name": "epochMinDuration",
              "type": "uint256"
            },
            {
              "internalType": "uint256",
              "name": "epochZeroMinDuration",
              "type": "uint256"
            },
            {
              "internalType": "uint256",
              "name": "epochMinDurationThreshold",
              "type": "uint256"
            },
            {
              "internalType": "uint256",
              "name": "reductionFactor",
              "type": "uint256"
            }
          ],
          "internalType": "struct IStakingData.StakingConfiguration",
          "name": "config",
          "type": "tuple"
        }
      ],
      "stateMutability": "view",
      "type": "function"
    },
    {
      "inputs": [],
      "name": "getSystemHealth",
      "outputs": [
        {
          "components": [
            {
              "internalType": "bool",
              "name": "isHealthy",
              "type": "bool"
            },
            {
              "internalType": "uint256",
              "name": "epoch",
              "type": "uint256"
            },
            {
              "internalType": "uint256",
              "name": "finalized",
              "type": "uint256"
            },
            {
              "internalType": "uint256",
              "name": "activeValidatorCount",
              "type": "uint256"
            },
            {
              "internalType": "uint256",
              "name": "quarantinedCount",
              "type": "uint256"
            },
            {
              "internalType": "uint256",
              "name": "bannedCount",
              "type": "uint256"
            },
            {
              "internalType": "uint256",
              "name": "totalStake",
              "type": "uint256"
            },
            {
              "internalType": "bool",
              "name": "canAdvance",
              "type": "bool"
            },
            {
              "internalType": "bool",
              "name": "canFinalize",
              "type": "bool"
            },
            {
              "internalType": "uint256",
              "name": "timeSinceEpochStart",
              "type": "uint256"
            },
            {
              "internalType": "uint256",
              "name": "timeToNextEpochAdvance",
              "type": "uint256"
            }
          ],
          "internalType": "struct IStakingData.SystemHealthStatus",
          "name": "health",
          "type": "tuple"
        }
      ],
      "stateMutability": "view",
      "type": "function"
    },
    {
      "inputs": [],
      "name": "getTotalTransactionCount",
      "outputs": [
        {
          "internalType": "uint256",
          "name": "count",
          "type": "uint256"
        }
      ],
      "stateMutability": "view",
      "type": "function"
    },
    {
      "inputs": [],
      "name": "getTrackingData",
      "outputs": [
        {
          "components": [
            {
              "internalType": "uint256",
              "name": "previousTotalStake",
              "type": "uint256"
            },
            {
              "internalType": "uint256",
              "name": "currentTotalStake",
              "type": "uint256"
            },
            {
              "internalType": "uint256",
              "name": "validatorDeposits",
              "type": "uint256"
            },
            {
              "internalType": "uint256",
              "name": "delegatorDeposits",
              "type": "uint256"
            },
            {
              "internalType": "uint256",
              "name": "validatorWithdrawals",
              "type": "uint256"
            },
            {
              "internalType": "uint256",
              "name": "delegatorWithdrawals",
              "type": "uint256"
            },
            {
              "internalType": "uint256",
              "name": "validatorRewards",
              "type": "uint256"
            },
            {
              "internalType": "uint256",
              "name": "delegatorRewards",
              "type": "uint256"
            }
          ],
          "internalType": "struct IStakingData.TrackingData",
          "name": "data",
          "type": "tuple"
        }
      ],
      "stateMutability": "view",
      "type": "function"
    },
    {
      "inputs": [
        {
          "internalType": "uint256",
          "name": "_epoch",
          "type": "uint256"
        }
      ],
      "name": "getTransactionEpochStats",
      "outputs": [
        {
          "components": [
            {
              "internalType": "uint256",
              "name": "epoch",
              "type": "uint256"
            },
            {
              "internalType": "uint256",
              "name": "unfinishedCount",
              "type": "uint256"
            },
            {
              "internalType": "uint256",
              "name": "totalTransactionCount",
              "type": "uint256"
            }
          ],
          "internalType": "struct IStakingData.TransactionEpochStats",
          "name": "stats",
          "type": "tuple"
        }
      ],
      "stateMutability": "view",
      "type": "function"
    },
    {
      "inputs": [
        {
          "internalType": "uint256",
          "name": "_epoch",
          "type": "uint256"
        },
        {
          "internalType": "uint256",
          "name": "_startIndex",
          "type": "uint256"
        },
        {
          "internalType": "uint256",
          "name": "_pageSize",
          "type": "uint256"
        }
      ],
      "name": "getUnfinishedTransactionsByEpoch",
      "outputs": [
        {
          "internalType": "bytes32[]",
          "name": "txIds",
          "type": "bytes32[]"
        }
      ],
      "stateMutability": "view",
      "type": "function"
    },
    {
      "inputs": [
        {
          "internalType": "address",
          "name": "_validator",
          "type": "address"
        }
      ],
      "name": "getValidatorDetailedView",
      "outputs": [
        {
          "components": [
            {
              "internalType": "address",
              "name": "validatorAddress",
              "type": "address"
            },
            {
              "internalType": "uint256",
              "name": "vStake",
              "type": "uint256"
            },
            {
              "internalType": "uint256",
              "name": "vShares",
              "type": "uint256"
            },
            {
              "internalType": "uint256",
              "name": "dStake",
              "type": "uint256"
            },
            {
              "internalType": "uint256",
              "name": "dShares",
              "type": "uint256"
            },
            {
              "internalType": "uint256",
              "name": "pendingDeposits",
              "type": "uint256"
            },
            {
              "internalType": "uint256",
              "name": "pendingWithdrawals",
              "type": "uint256"
            },
            {
              "internalType": "bool",
              "name": "isActive",
              "type": "bool"
            },
            {
              "internalType": "bool",
              "name": "isBanned",
              "type": "bool"
            },
            {
              "internalType": "bool",
              "name": "isPermanentlyBanned",
              "type": "bool"
            },
            {
              "internalType": "uint256",
              "name": "bannedUntilEpoch",
              "type": "uint256"
            },
            {
              "internalType": "bool",
              "name": "isLive",
              "type": "bool"
            }
          ],
          "internalType": "struct IStakingData.ValidatorDetailedView",
          "name": "view_",
          "type": "tuple"
        }
      ],
      "stateMutability": "view",
      "type": "function"
    },
    {
      "inputs": [
        {
          "internalType": "address",
          "name": "_validator",
          "type": "address"
        }
      ],
      "name": "getValidatorStakeBreakdown",
      "outputs": [
        {
          "components": [
            {
              "internalType": "address",
              "name": "validatorAddress",
              "type": "address"
            },
            {
              "internalType": "uint256",
              "name": "vShares",
              "type": "uint256"
            },
            {
              "internalType": "uint256",
              "name": "vStake",
              "type": "uint256"
            },
            {
              "internalType": "uint256",
              "name": "dShares",
              "type": "uint256"
            },
            {
              "internalType": "uint256",
              "name": "dStake",
              "type": "uint256"
            },
            {
              "internalType": "uint256",
              "name": "totalStake",
              "type": "uint256"
            },
            {
              "internalType": "uint256",
              "name": "selfStakeShareValue",
              "type": "uint256"
            },
            {
              "internalType": "uint256",
              "name": "delegatorShareValue",
              "type": "uint256"
            },
            {
              "internalType": "uint256",
              "name": "selfStakePercentage",
              "type": "uint256"
            }
          ],
          "internalType": "struct IStakingData.ValidatorStakeBreakdown",
          "name": "breakdown",
          "type": "tuple"
        }
      ],
      "stateMutability": "view",
      "type": "function"
    },
    {
      "inputs": [],
      "name": "getValidatorStats",
      "outputs": [
        {
          "components": [
            {
              "internalType": "uint256",
              "name": "totalValidators",
              "type": "uint256"
            },
            {
              "internalType": "uint256",
              "name": "activeValidators",
              "type": "uint256"
            },
            {
              "internalType": "uint256",
              "name": "quarantinedValidators",
              "type": "uint256"
            },
            {
              "internalType": "uint256",
              "name": "bannedValidators",
              "type": "uint256"
            },
            {
              "internalType": "uint256",
              "name": "permanentlyBannedValidators",
              "type": "uint256"
            },
            {
              "internalType": "uint256",
              "name": "totalValidatorStake",
              "type": "uint256"
            },
            {
              "internalType": "uint256",
              "name": "totalDelegatedStake",
              "type": "uint256"
            },
            {
              "internalType": "uint256",
              "name": "averageValidatorStake",
              "type": "uint256"
            },
            {
              "internalType": "uint256",
              "name": "averageDelegatedStake",
              "type": "uint256"
            },
            {
              "internalType": "uint256",
              "name": "validatorMinStake",
              "type": "uint256"
            },
            {
              "internalType": "uint256",
              "name": "maxValidators",
              "type": "uint256"
            }
          ],
          "internalType": "struct IStakingData.ValidatorStats",
          "name": "stats",
          "type": "tuple"
        }
      ],
      "stateMutability": "view",
      "type": "function"
    },
    {
      "inputs": [
        {
          "internalType": "uint256",
          "name": "_startIndex",
          "type": "uint256"
        },
        {
          "internalType": "uint256",
          "name": "_pageSize",
          "type": "uint256"
        }
      ],
      "name": "getValidatorsJoinedList",
      "outputs": [
        {
          "internalType": "address[]",
          "name": "validatorsJoined",
          "type": "address[]"
        }
      ],
      "stateMutability": "view",
      "type": "function"
    },
    {
      "inputs": [
        {
          "internalType": "address",
          "name": "_addressManager",
          "type": "address"
        },
        {
          "internalType": "address",
          "name": "_stakingInvariant",
          "type": "address"
        },
        {
          "internalType": "address",
          "name": "_staking",
          "type": "address"
        }
      ],
      "name": "initialize",
      "outputs": [],
      "stateMutability": "nonpayable",
      "type": "function"
    },
    {
      "inputs": [],
      "name": "isSystemHealthy",
      "outputs": [
        {
          "internalType": "bool",
          "name": "healthy",
          "type": "bool"
        },
        {
          "internalType": "string",
          "name": "reason",
          "type": "string"
        }
      ],
      "stateMutability": "view",
      "type": "function"
    },
    {
      "inputs": [],
      "name": "owner",
      "outputs": [
        {
          "internalType": "address",
          "name": "",
          "type": "address"
        }
      ],
      "stateMutability": "view",
      "type": "function"
    },
    {
      "inputs": [],
      "name": "pendingOwner",
      "outputs": [
        {
          "internalType": "address",
          "name": "",
          "type": "address"
        }
      ],
      "stateMutability": "view",
      "type": "function"
    },
    {
      "inputs": [],
      "name": "renounceOwnership",
      "outputs": [],
      "stateMutability": "nonpayable",
      "type": "function"
    },
    {
      "inputs": [
        {
          "internalType": "address",
          "name": "_addressManager",
          "type": "address"
        }
      ],
      "name": "setAddressManager",
      "outputs": [],
      "stateMutability": "nonpayable",
      "type": "function"
    },
    {
      "inputs": [
        {
          "internalType": "address",
          "name": "_staking",
          "type": "address"
        }
      ],
      "name": "setStaking",
      "outputs": [],
      "stateMutability": "nonpayable",
      "type": "function"
    },
    {
      "inputs": [
        {
          "internalType": "address",
          "name": "_stakingInvariant",
          "type": "address"
        }
      ],
      "name": "setStakingInvariant",
      "outputs": [],
      "stateMutability": "nonpayable",
      "type": "function"
    },
    {
      "inputs": [],
      "name": "staking",
      "outputs": [
        {
          "internalType": "contract StakingViews",
          "name": "",
          "type": "address"
        }
      ],
      "stateMutability": "view",
      "type": "function"
    },
    {
      "inputs": [],
      "name": "stakingInvariant",
      "outputs": [
        {
          "internalType": "contract StakingInvariant",
          "name": "",
          "type": "address"
        }
      ],
      "stateMutability": "view",
      "type": "function"
    },
    {
      "inputs": [
        {
          "internalType": "address",
          "name": "newOwner",
          "type": "address"
        }
      ],
      "name": "transferOwnership",
      "outputs": [],
      "stateMutability": "nonpayable",
      "type": "function"
    }
  ],
  "bytecode": "0x608080604052346015576158f2908161001b8239f35b600080fdfe6080604052600436101561001257600080fd5b60003560e01c80630652b57a146131c85780630e7ba9ac1461310d578063217fcc3e146113c957806321ef686f146130ca57806322dd6fe814612f3b57806324840a5e14612f125780632639e6ff14612ee957806331a6be8c146129305780633ab76e9f146129075780633e23a827146123595780634a97b1b5146122d45780634b9a1f3314611d7b5780634cf088d914611d52578063575dd6d714611c1d578063593f5c3114611b8c578063652e8c6a14611b52578063696f4b0a14611afc578063715018a614611a7b57806379ba509714611a295780637a428794146118035780637ee9bf3d146117dd578063814b817b146113eb57806383772595146113ce5780638b7e92a6146113c95780638b85f9f0146113985780638da5cb5b146113625780638ff390991461131f578063a4bf19e3146112ca578063a7a63c931461118c578063ac78a04b1461116f578063ad9b057d14610cfd578063b70571a714610c76578063b7f0294414610af4578063bbf7052f146108a7578063c0c53b8b146106db578063c46f793314610670578063c89a8a84146105ee578063d0bdb292146105b9578063dce6941a146104f3578063e30c3978146104bd578063e9a274b814610487578063f2fde38b14610400578063f501ccbd14610335578063fac2f015146102f95763ffd417521461020b57600080fd5b346102f457600061021b36613237565b90919060446001600160a01b03610230614be5565b16936040519485938492632885379360e11b8452600484015260248301525afa9081156102e8576000916102c5575b5061026a81516138a1565b9060005b81518110156102b3576001906102976001600160a01b0361028f83866138f1565b515116614c7f565b6102a182866138f1565b526102ac81856138f1565b500161026e565b604051806102c185826132d7565b0390f35b6102e291503d806000833e6102da8183613447565b8101906137c4565b3861025f565b6040513d6000823e3d90fd5b600080fd5b346102f45760403660031901126102f45761010061032661031861320b565b610320613221565b90614a4a565b61033360405180926134ed565bf35b346102f45760003660031901126102f45760006060604051610356816133f4565b8281526020810183905260408101839052015260806001600160a01b0361037b614be5565b6002549116906001600160a01b03908116906103956152c4565b166001600160a01b036103a6615266565b169160606040516103b6816133f4565b85815260208101928352604081019384520192835260405193845260018060a01b03905116602084015260018060a01b03905116604083015260018060a01b039051166060820152f35b346102f45760203660031901126102f45761041961320b565b610421614bc4565b60008051602061589d83398151915280546001600160a01b0319166001600160a01b0392831690811790915560008051602061585d833981519152549091167f38d16b8cac22d99fc7c124b9cd0de2d3fa1faef420bfe791d8c362d765e22700600080a3005b346102f45760403660031901126102f4576101006103266104a661320b565b6104ae613221565b906104b761391b565b50614e8f565b346102f45760003660031901126102f45760008051602061589d833981519152546040516001600160a01b039091168152602090f35b346102f457600061050336613237565b90919060446001600160a01b03610518614be5565b1693604051948593849263799e4e8b60e01b8452600484015260248301525afa9081156102e857600091610596575b5060405180916020820160208352815180915260206040840192019060005b818110610574575050500390f35b82516001600160a01b0316845285945060209384019390920191600101610566565b6105b391503d806000833e6105ab8183613447565b810190613fb1565b81610547565b346102f45760203660031901126102f4576105d2614103565b506101c06105e160043561532e565b61033360405180926136ac565b346102f45760203660031901126102f4576004356001600160401b0381116102f45761061e90369060040161347f565b61062881516138a1565b9060005b81518110156102b3576001906106546001600160a01b0361064d83866138f1565b5116614c7f565b61065e82866138f1565b5261066981856138f1565b500161062c565b346102f45760003660031901126102f45761010061068c614896565b60e060405191805183526020810151602084015260408101516040840152606081015160608401526080810151608084015260a081015160a084015260c081015160c0840152015160e0820152f35b346102f45760603660031901126102f4576106f461320b565b6106fc613221565b6044356001600160a01b03811692908390036102f45760008051602061587d833981519152549260ff8460401c1615936001600160401b0381168015908161089f575b6001149081610895575b15908161088c575b5061087b5767ffffffffffffffff19811660011760008051602061587d833981519152558461084e575b5061078461582e565b61078c61582e565b61079461582e565b3315610838576107a3336155ca565b600080546001600160a01b03199081169290921790556001805482166001600160a01b0393841617905560028054909116929091169190911790556107e457005b60ff60401b1960008051602061587d833981519152541660008051602061587d833981519152557fc7f505b2f371ae2175ee4913f4499e1f2633a7b5936321eed1cdaeb6115181d2602060405160018152a1005b631e4fbdf760e01b600052600060045260246000fd5b68ffffffffffffffffff1916680100000000000000011760008051602061587d833981519152558461077b565b63f92ee8a960e01b60005260046000fd5b90501586610751565b303b159150610749565b86915061073f565b346102f45760003660031901126102f4576108c061416a565b50600460006001600160a01b036108d5614be5565b166040519283809263d2d49c4b60e01b82525afa9081156102e857600091610ad9575b506000805b82518110156109c3576001600160a01b0361091882856138f1565b5116610927575b6001016108fd565b906001600160a01b03610938614be5565b16906101806001600160a01b0361094f85876138f1565b511660246040518095819363b83f5b3960e01b835260048301525afa9081156102e85760e061098c92600194600091610994575b50015190613fa4565b91905061091f565b6109b691506101803d81116109bc575b6109ae8183613447565b810190614032565b87610983565b503d6109a4565b60048260206001600160a01b036109d8614be5565b1660405193848092636d3d4db560e11b82525afa80156102e857600090610aa6575b6004925060206001600160a01b03610a10614be5565b16604051948580926367604d2760e01b82525afa9081156102e857600091610a71575b6060935060405192610a44846133a2565b83526020830152604082015261033360405180926040809180518452602081015160208501520151910152565b90506020833d602011610a9e575b81610a8c60209383613447565b810103126102f4576060925190610a33565b3d9150610a7f565b506020823d602011610ad1575b81610ac060209383613447565b810103126102f457600491516109fa565b3d9150610ab3565b610aee91503d806000833e6105ab8183613447565b816108f8565b346102f45760003660031901126102f457610b0d61416a565b50600460206001600160a01b03610b22614be5565b1660405192838092634c12b33f60e01b82525afa9081156102e857600091610c44575b506002546000919082906001600160a01b031680610b6f575b5060609260405192610a44846133a2565b60405163a201bbdd60e01b8152909150602081600481855afa938415610c38578094610bfc575b5050602060049391604051948580926333069e8560e11b82525afa80156102e857600090610bc9575b9092506060610b5e565b506020833d602011610bf4575b81610be360209383613447565b810103126102f45760609251610bbf565b3d9150610bd6565b9093506020843d602011610c30575b81610c1860209383613447565b81010312610c2d575060206004935193610b96565b80fd5b3d9150610c0b565b604051903d90823e3d90fd5b90506020813d602011610c6e575b81610c5f60209383613447565b810103126102f4575181610b45565b3d9150610c52565b346102f45760203660031901126102f457610120610c9a610c9561320b565b614754565b6101006040519160018060a01b0381511683526020810151602084015260408101516040840152606081015160608401526080810151608084015260a081015160a084015260c081015160c084015260e081015160e08401520151610100820152f35b346102f45760003660031901126102f457610d16614710565b50600460206001600160a01b03610d2b614be5565b1660405192838092630a9c7d7960e11b82525afa9081156102e857600091611138575b5060049060206001600160a01b03610d64614be5565b1660405193848092636d3d4db560e11b82525afa80156102e857600090611105575b6004925060206001600160a01b03610d9c614be5565b1660405194858092632272e0ab60e01b82525afa80156102e8576000906110d2575b6004935060206001600160a01b03610dd4614be5565b16604051958680926367604d2760e01b82525afa80156102e85760009061109f575b6004945060206001600160a01b03610e0c614be5565b1660405196878092630456292b60e11b82525afa80156102e85760009061106c575b6004955060206001600160a01b03610e44614be5565b1660405197888092630de11acd60e11b82525afa9081156102e857600091611037575b6004965060206001600160a01b03610e7d614be5565b166040519889809263cd85623560e01b82525afa9283156102e857600093611002575b6004975060206001600160a01b03610eb6614be5565b16604051998a8092633fde6d7b60e01b82525afa9485156102e857600095610fcd575b6004985060206001600160a01b03610eef614be5565b166040519a8b8092636378eba360e01b82525afa9687156102e857600097610f97575b6101209950610100604051610f26816133d8565b8a81526020810192835260408101938452606081019485526080810195865260a0810196875260c0810197885260e08101988952019788526040519889525160208901525160408801525160608701525160808601525160a08501525160c08401525160e083015251610100820152f35b96506020893d602011610fc5575b81610fb260209383613447565b810103126102f457610120985196610f12565b3d9150610fa5565b94506020883d602011610ffa575b81610fe860209383613447565b810103126102f4576004975194610ed9565b3d9150610fdb565b92506020873d60201161102f575b8161101d60209383613447565b810103126102f4576004965192610ea0565b3d9150611010565b90506020863d602011611064575b8161105260209383613447565b810103126102f4576004955190610e67565b3d9150611045565b506020853d602011611097575b8161108660209383613447565b810103126102f45760049451610e2e565b3d9150611079565b506020843d6020116110ca575b816110b960209383613447565b810103126102f45760049351610df6565b3d91506110ac565b506020833d6020116110fd575b816110ec60209383613447565b810103126102f45760049251610dbe565b3d91506110df565b506020823d602011611130575b8161111f60209383613447565b810103126102f45760049151610d86565b3d9150611112565b6020813d602011611167575b8161115160209383613447565b81010312611163575190506004610d4e565b5080fd5b3d9150611144565b346102f45760003660031901126102f45760206040516101f48152f35b346102f45760003660031901126102f4576111a561416a565b50600460206001600160a01b036111ba614be5565b166040519283809263900cf0cf60e01b82525afa9081156102e857600091611297575b5060249060206001600160a01b036111f36152c4565b166040519384809263132d95ab60e11b82528560048301525afa80156102e857600090611264575b6004925060206001600160a01b03611231615266565b1660405194858092637257053760e01b82525afa9081156102e857600091610a71576060935060405192610a44846133a2565b506020823d60201161128f575b8161127e60209383613447565b810103126102f4576004915161121b565b3d9150611271565b6020813d6020116112c2575b816112b060209383613447565b810103126111635751905060246111dd565b3d91506112a3565b346102f45760003660031901126102f45760606112e5614488565b919060405192839115158252604060208301526113118151809281604086015260208686019101613740565b601f01601f19168101030190f35b346102f45760203660031901126102f45761133861320b565b611340614bc4565b600080546001600160a01b0319166001600160a01b0392909216919091179055005b346102f45760003660031901126102f45760008051602061585d833981519152546040516001600160a01b039091168152602090f35b346102f45760203660031901126102f45760246004356113b661416a565b5060206001600160a01b036111f36152c4565b61331c565b346102f45760003660031901126102f4576020604051611d4c8152f35b346102f45760003660031901126102f457611404614189565b50600460206001600160a01b03611419614be5565b166040519283809263900cf0cf60e01b82525afa9081156102e8576000916117ab575b5060006001821661173d575060046101606001600160a01b0361145d614be5565b16604051928380926396be02a760e01b82525afa9081156102e857600091611704575b505b60009161167f576004915060206001600160a01b0361149f614be5565b166040519384809263cd85623560e01b82525afa80156102e85760009061164c575b600492505b60206001600160a01b036114d8614be5565b16604051948580926357a34fa360e11b82525afa9283156102e857600093611615575b508261150960049483613fa4565b600084421160001461160f57506115208442613f97565b905b818181106116005750506000915b60206001600160a01b03611542614be5565b16604051978880926312f1c93760e11b82525afa9384156102e8576000946115c4575b60c0965060a0604051611577816133bd565b8781526020810192835260408101938452606081019485526080810195865201941515855260405195865251602086015251604085015251606084015251608083015251151560a0820152f35b93506020863d6020116115f8575b816115df60209383613447565b810103126102f4576115f260c096613777565b93611565565b3d91506115d2565b61160991613f97565b91611530565b90611522565b6020813d602011611644575b8161162e60209383613447565b810103126116405751925060046114fb565b8380fd5b3d9150611621565b506020823d602011611677575b8161166660209383613447565b810103126102f457600491516114c1565b3d9150611659565b600460206001600160a01b03611693614be5565b1660405192838092630de11acd60e11b82525afa9081156116f95783916116bf575b50600492506114c6565b90506020813d6020116116f1575b816116da60209383613447565b810103126116ed576004925051836116b5565b8280fd5b3d91506116cd565b6040513d85823e3d90fd5b61172691506101603d8111611736575b61171e8183613447565b810190613f48565b9850611480975050505050505050565b503d611714565b60046101606001600160a01b03611752614be5565b166040519283809263fafebac560e01b82525afa80156117a057611777575b50611482565b61179091506101603d81116117365761171e8183613447565b9850611771975050505050505050565b6040513d84823e3d90fd5b906020823d6020116117d5575b816117c560209383613447565b81010312610c2d5750518161143c565b3d91506117b8565b346102f4576102c16117f76117f136613237565b906142bf565b604051918291826132d7565b346102f45760203660031901126102f457600060806040516118248161336b565b82815282602082015282604082015282606082015201526024602060018060a01b0361184e614be5565b166040519283809263019f89f560e01b825260043560048301525afa9081156102e8576000916119f7575b50611d4c810290801591818104611d4c148317156119e1576103e88202928284046103e81417156119e15760249260206001600160a01b036118b9614be5565b1660405195868092633c839f3760e11b82528760048301525afa9081156102e8576000916119ac575b6024945060206001600160a01b036118f8614be5565b1660405196878092633b0da62360e01b82528860048301525afa9283156102e857600093611977575b60a0955060806040516119338161336b565b868152612710602082019304835261271060408201940484526060810194855201938452604051948552516020850152516040840152516060830152516080820152f35b92506020853d6020116119a4575b8161199260209383613447565b810103126102f45760a0945192611921565b3d9150611985565b90506020843d6020116119d9575b816119c760209383613447565b810103126102f45760249351906118e2565b3d91506119ba565b634e487b7160e01b600052601160045260246000fd5b906020823d602011611a21575b81611a1160209383613447565b81010312610c2d57505181611879565b3d9150611a04565b346102f45760003660031901126102f45760008051602061589d83398151915254336001600160a01b0390911603611a6657611a64336155ca565b005b63118cdaa760e01b6000523360045260246000fd5b346102f45760003660031901126102f457611a94614bc4565b60008051602061589d83398151915280546001600160a01b031990811690915560008051602061585d833981519152805491821690556000906001600160a01b03167f8be0079c531659141344cd1fd0a4f28419497f9722a3daafe3b4186f6b6457e08280a3005b346102f45760003660031901126102f45760c0611b176141ba565b60a0604051918051835260208101516020840152604081015160408401526060810151606084015260808101516080840152015160a0820152f35b346102f45760203660031901126102f457610180611b7f611b7161320b565b611b79613848565b50614c7f565b610333604051809261324d565b346102f45760003660031901126102f457611ba5614103565b50600460206001600160a01b03611bba614be5565b166040519283809263900cf0cf60e01b82525afa9081156102e857600091611be9575b6101c06105e18361532e565b90506020813d602011611c15575b81611c0460209383613447565b810103126102f457516105e1611bdd565b3d9150611bf7565b346102f45760603660031901126102f457606460006001600160a01b03611c426152c4565b166040519283809263f296d67760e01b82526004356004830152602435602483015260443560448301525afa9081156102e857600091611cc3575b5060405180916020820160208352815180915260206040840192019060005b818110611caa575050500390f35b8251845285945060209384019390920191600101611c9c565b3d8083833e611cd28183613447565b8101906020818303126116ed578051906001600160401b038211611640570181601f820112156116ed57805190611d0882613468565b93611d166040519586613447565b82855260208086019360051b830101938411610c2d5750602001905b828210611d425750505081611c7d565b8151815260209182019101611d32565b346102f45760003660031901126102f4576000546040516001600160a01b039091168152602090f35b346102f45760003660031901126102f457604051611d988161336b565b611da0613958565b8152611daa614103565b6020820152611db7613958565b6040820152611dc461416a565b60608201526080611dd3613958565b910152604051630c69afa360e21b815261016081600481305afa9081156102e857600091612213575b5060405163593f5c3160e01b8152906101c082600481305afa9182156102e85760009261213a575b50604051633e23a82760e01b81529161016083600481305afa9283156102e85760009361208c575b5060405163bbf7052f60e01b815292606084600481305afa9384156102e857600094612036575b50604051632639e6ff60e01b81529161016083600481305afa9283156102e857600093611f2a575b5061064094611efe6103339493611ef2611f1e946080604051611ebd8161336b565b8a815260208101928352604081019485526060810196875201968752611ee6604051809a6135ca565b516101608901906136ac565b5161032087019061363e565b51805161048086015260208101516104a0860152604001516104c0850152565b516104e0830190613548565b925090610160833d821161202e575b81611f476101609383613447565b810103126102f45761064094611efe611f1e92611ef26103339661014060405191611f7183613339565b611f7a81613777565b8352611f8860208201613777565b6020840152611f9960408201613777565b6040840152611faa60608201613777565b6060840152611fbb60808201613777565b6080840152611fcc60a08201613777565b60a0840152611fdd60c08201613777565b60c0840152611fee60e08201613777565b60e08401526120006101008201613777565b6101008401526120136101208201613777565b61012084015201516101408201529650509392505094611e9b565b3d9150611f39565b9093506060813d606011612084575b8161205260609383613447565b810103126102f4576040805191612068836133a2565b8051835260208101516020840152015160408201529284611e73565b3d9150612045565b909250610160813d8211612132575b816120a96101609383613447565b810103126102f457610140604051916120c183613339565b805183526020810151602084015260408101516040840152606081015160608401526080810151608084015260a081015160a084015260c081015160c084015260e081015160e084015261010081015161010084015261012081015161012084015201516101408201529183611e4c565b3d915061209b565b9091506101c0813d821161220b575b816121576101c09383613447565b810103126102f4576121fe6101a06040519261217284613386565b805184526020810151602085015260408101516040850152606081015160608501526080810151608085015260a081015160a085015260c081015160c085015260e081015160e085015261010081015161010085015261012081015161012085015261014081015161014085015261016081015161016085015261018081015161018085015201613777565b6101a08201529082611e24565b3d9150612149565b90610160823d82116122cc575b8161222e6101609383613447565b81010312610c2d57506101406040519161224783613339565b61225081613777565b83526020810151602084015260408101516040840152606081015160608401526080810151608084015260a081015160a084015260c081015160c084015261229a60e08201613777565b60e08401526122ac6101008201613777565b610100840152610120810151610120840152015161014082015281611dfc565b3d9150612220565b346102f45760003660031901126102f457600460206001600160a01b036122f9615266565b1660405192838092637257053760e01b82525afa80156102e857600090612326575b602090604051908152f35b506020813d602011612351575b8161234060209383613447565b810103126102f4576020905161231b565b3d9150612333565b346102f45760003660031901126102f457612372613958565b50600460206001600160a01b03612387614be5565b1660405192838092633b584be360e21b82525afa80156102e8576000906128d4575b6004915060206001600160a01b036123bf614be5565b1660405193848092630d2bd90960e01b82525afa9182156102e8576000926128a1575b506004919060206001600160a01b036123f9614be5565b166040519485809263f8512d8760e01b82525afa80156102e85760009061286e575b600493506124276151f6565b600092836001600160a01b0361243b614be5565b166040519788809263f524e9df60e01b82525afa9586156102e85760009661284a575b50600492919060206001600160a01b03612476614be5565b166040519586809263900cf0cf60e01b82525afa9384156102e857600094612816575b5060005b8751811015612570576001600160a01b036124b6614be5565b1660606001600160a01b036124cb848c6138f1565b511660246040518094819363090d60bd60e01b835260048301525afa9081156102e857600091612537575b5085604082015115159182612529575b5050612515575b60010161249d565b94612521600191613a87565b95905061250d565b60200151119050858a612506565b60603d8111612569575b61254b8183613447565b810191606082840312610c2d57509061256391613784565b896124f6565b503d612541565b5060049493508560006001600160a01b03612589614be5565b166040519788809263d2d49c4b60e01b82525afa9586156102e8576000966127f9575b506000938493855b885181101561268b576001600160a01b036125cf828b6138f1565b51166125de575b6001016125b4565b946001600160a01b036125ef614be5565b16966101806001600160a01b03612606898d6138f1565b51166024604051809b819363b83f5b3960e01b835260048301525afa9788156102e85760009861265a575b5060019160e06126496126529360a08c015190613fa4565b99015190613fa4565b9590506125d6565b6126529198509160e06126496126806001956101803d81116109bc576109ae8183613447565b9a9350505091612631565b50866004958785151592836000146127f1576126a787836140e3565b935b156127e9576126b887846140e3565b945b60206001600160a01b036126cc614be5565b166040519b8c8092630a9c7d7960e11b82525afa9687156102e8576000976127b4575b60049a5060206001600160a01b03612705614be5565b166040519c8d8092630456292b60e11b82525afa9889156102e85760009961277e575b6101609b506040519a61273a8c613339565b8b5260208b015260408a01526060890152608088015260a087015260c086015260e0850152610100840152610120830152610140820152610333604051809261363e565b985060208b3d6020116127ac575b8161279960209383613447565b810103126102f4576101609a5198612728565b3d915061278c565b965060208a3d6020116127e1575b816127cf60209383613447565b810103126102f45760049951966126ef565b3d91506127c2565b6000946126ba565b6000936126a9565b61280f9196503d806000833e6105ab8183613447565b94866125ac565b9093506020813d602011612842575b8161283260209383613447565b810103126102f457519287612499565b3d9150612825565b60049392919650612865903d806000833e6105ab8183613447565b9590919261245e565b506020833d602011612899575b8161288860209383613447565b810103126102f4576004925161241b565b3d915061287b565b6020813d6020116128cc575b816128ba60209383613447565b810103126116ed5751915060046123e2565b3d91506128ad565b506020813d6020116128ff575b816128ee60209383613447565b810103126102f457600490516123a9565b3d91506128e1565b346102f45760003660031901126102f4576001546040516001600160a01b039091168152602090f35b346102f45760003660031901126102f457612949613958565b50600460206001600160a01b0361295e614be5565b166040519283809263900cf0cf60e01b82525afa9081156102e857600091612eb6575b5060049060206001600160a01b03612997614be5565b166040519384809263b3f05b9760e01b82525afa9182156102e857600092612e82575b50600060018216612e1f575060046101606001600160a01b036129db614be5565b16604051928380926396be02a760e01b82525afa9081156102e857600091612df6575b505b600090804211600014612df057612a18915042613f97565b600460206001600160a01b03612a2c614be5565b1660405192838092630de11acd60e11b82525afa80156102e857600090612dbd575b6004915060206001600160a01b03612a64614be5565b16604051938480926357a34fa360e11b82525afa9081156102e857600091612d87575b612a919250613fa4565b81818110612d785750506000905b600460206001600160a01b03612ab3614be5565b1660405192838092630d2bd90960e01b82525afa80156102e857600090612d45575b6004915060206001600160a01b03612aeb614be5565b166040519384809263f8512d8760e01b82525afa80156102e857600090612d12575b60049250612b196151f6565b60206001600160a01b03612b2b614be5565b166040519586809263bea4003960e01b82525afa9182156102e857600092612cd7575b6004945060206001600160a01b03612b64614be5565b16604051968780926312f1c93760e11b82525afa9384156102e857600094612c9b575b6004955060206001600160a01b03612b9d614be5565b16604051978880926338f1409360e11b82525afa9586156102e857600096612c5f575b508015159889612c47575b996101609a8a612c2d575b6040519a612be38c613339565b15158b5260208b015260408a01526060890152608088015260a087015260c0860152151560e0850152151561010084015261012083015261014082015261033360405180926135ca565b809a50158015612c3e575b99612bd6565b50841515612c38565b985060028a01998a81116119e1579989111598612bcb565b9095506020813d602011612c93575b81612c7b60209383613447565b810103126102f457612c8c90613777565b948a612bc0565b3d9150612c6e565b93506020853d602011612ccf575b81612cb660209383613447565b810103126102f457612cc9600495613777565b93612b87565b3d9150612ca9565b929390916020823d602011612d0a575b81612cf460209383613447565b81010312610c2d57509060049392915191612b4e565b3d9150612ce7565b506020823d602011612d3d575b81612d2c60209383613447565b810103126102f45760049151612b0d565b3d9150612d1f565b6020823d602011612d70575b81612d5e60209383613447565b81010312610c2d575060049051612ad5565b3d9150612d51565b612d8191613f97565b90612a9f565b90506020823d602011612db5575b81612da260209383613447565b810103126102f457612a91915190612a87565b3d9150612d95565b506020813d602011612de8575b81612dd760209383613447565b810103126102f45760049051612a4e565b3d9150612dca565b50612a18565b612e0f91506101603d81116117365761171e8183613447565b98506129fe975050505050505050565b60046101606001600160a01b03612e34614be5565b166040519283809263fafebac560e01b82525afa80156117a057612e59575b50612a00565b612e7291506101603d81116117365761171e8183613447565b9850612e53975050505050505050565b90916020823d602011612eae575b81612e9d60209383613447565b81010312610c2d57505190826129ba565b3d9150612e90565b6020813d602011612ee1575b81612ecf60209383613447565b81010312611163575190506004612981565b3d9150612ec2565b346102f45760003660031901126102f457610160612f05613a96565b6103336040518092613548565b346102f45760003660031901126102f4576002546040516001600160a01b039091168152602090f35b346102f45760403660031901126102f4576004356001600160401b0381116102f457612f6b90369060040161347f565b6024356001600160401b0381116102f457612f8a90369060040161347f565b90805182510361308d57805191612fa083613468565b92612fae6040519485613447565b808452612fbd601f1991613468565b0160005b81811061307657505060005b8251811015613024576001906130086001600160a01b03612fee83876138f1565b5116838060a01b0361300084876138f1565b511690614e8f565b61301282876138f1565b5261301d81866138f1565b5001612fcd565b8360405180916020820160208352815180915260206040840192019060005b818110613051575050500390f35b9193509160206101008261306860019488516134ed565b019401910191849392613043565b60209061308161391b565b82828801015201612fc1565b60405162461bcd60e51b8152602060048201526015602482015274082e4e4c2f240d8cadccee8d040dad2e6dac2e8c6d605b1b6044820152606490fd5b346102f45760203660031901126102f4576130e361320b565b6130eb614bc4565b600280546001600160a01b0319166001600160a01b0392909216919091179055005b346102f457600061311d36613237565b90919060446001600160a01b03613132614be5565b16936040519485938492633230e7ab60e11b8452600484015260248301525afa9081156102e8576000916131ad575b5061316c81516138a1565b9060005b81518110156102b3576001906131916001600160a01b0361028f83866138f1565b61319b82866138f1565b526131a681856138f1565b5001613170565b6131c291503d806000833e6102da8183613447565b81613161565b346102f45760203660031901126102f4576131e161320b565b6131e9614bc4565b600180546001600160a01b0319166001600160a01b0392909216919091179055005b600435906001600160a01b03821682036102f457565b602435906001600160a01b03821682036102f457565b60409060031901126102f4576004359060243590565b610160809160018060a01b0381511684526020810151602085015260408101516040850152606081015160608501526080810151608085015260a081015160a085015260c081015160c085015260e0810151151560e08501526101008101511515610100850152610120810151151561012085015261014081015161014085015201511515910152565b602060408183019282815284518094520192019060005b8181106132fb5750505090565b909192602061018082613311600194885161324d565b0194019291016132ee565b346102f45760003660031901126102f45760206040516103e88152f35b61016081019081106001600160401b0382111761335557604052565b634e487b7160e01b600052604160045260246000fd5b60a081019081106001600160401b0382111761335557604052565b6101c081019081106001600160401b0382111761335557604052565b606081019081106001600160401b0382111761335557604052565b60c081019081106001600160401b0382111761335557604052565b61012081019081106001600160401b0382111761335557604052565b608081019081106001600160401b0382111761335557604052565b61018081019081106001600160401b0382111761335557604052565b61010081019081106001600160401b0382111761335557604052565b90601f801991011681019081106001600160401b0382111761335557604052565b6001600160401b0381116133555760051b60200190565b9080601f830112156102f45781359061349782613468565b926134a56040519485613447565b82845260208085019360051b8201019182116102f457602001915b8183106134cd5750505090565b82356001600160a01b03811681036102f4578152602092830192016134c0565b60e0809160018060a01b03815116845260018060a01b03602082015116602085015260408101516040850152606081015160608501526080810151608085015260a081015160a085015260c081015160c08501520151910152565b610140809180511515845260208101511515602085015260408101511515604085015260608101511515606085015260808101511515608085015260a0810151151560a085015260c0810151151560c085015260e0810151151560e0850152610100810151151561010085015261012081015115156101208501520151910152565b61014080918051151584526020810151602085015260408101516040850152606081015160608501526080810151608085015260a081015160a085015260c081015160c085015260e0810151151560e085015261010081015115156101008501526101208101516101208501520151910152565b6101408091805184526020810151602085015260408101516040850152606081015160608501526080810151608085015260a081015160a085015260c081015160c085015260e081015160e08501526101008101516101008501526101208101516101208501520151910152565b6101a08091805184526020810151602085015260408101516040850152606081015160608501526080810151608085015260a081015160a085015260c081015160c085015260e081015160e085015261010081015161010085015261012081015161012085015261014081015161014085015261016081015161016085015261018081015161018085015201511515910152565b60005b8381106137535750506000910152565b8181015183820152602001613743565b51906001600160a01b03821682036102f457565b519081151582036102f457565b91908260609103126102f45760405161379c816133a2565b60406137bf8183956137ad81613763565b85526020810151602086015201613777565b910152565b6020818303126102f4578051906001600160401b0382116102f4570181601f820112156102f45780516137f681613468565b926138046040519485613447565b818452602060608186019302840101928184116102f457602001915b83831061382e575050505090565b602060609161383d8486613784565b815201920191613820565b604051906138558261340f565b6000610160838281528260208201528260408201528260608201528260808201528260a08201528260c08201528260e08201528261010082015282610120820152826101408201520152565b906138ab82613468565b6138b86040519182613447565b82815280926138c9601f1991613468565b019060005b8281106138da57505050565b6020906138e5613848565b828285010152016138ce565b80518210156139055760209160051b010190565b634e487b7160e01b600052603260045260246000fd5b604051906139288261342b565b600060e0838281528260208201528260408201528260608201528260808201528260a08201528260c08201520152565b6040519061396582613339565b6000610140838281528260208201528260408201528260608201528260808201528260a08201528260c08201528260e082015282610100820152826101208201520152565b81601f820112156102f45780516001600160401b03811161335557604051926139dd601f8301601f191660200185613447565b818452602082840101116102f4576139fb9160208085019101613740565b90565b6020818303126102f4578051906001600160401b0382116102f457016060818303126102f45760405191613a31836133a2565b81516001600160401b0381116102f45781613a4d9184016139aa565b83526020820151916001600160401b0383116102f457613a74604092613a7f9483016139aa565b602085015201613777565b604082015290565b60001981146119e15760010190565b613a9e613958565b506002546001600160a01b03168015613eeb5760405163280ac80d60e01b8152600081600481855afa9081156102e857600091613ed0575b506040516337870db960e01b815291600083600481845afa9283156102e857600093613eb3575b506040516363bf1b0960e11b815292600084600481855afa9384156102e857600094613e96575b50604051631dfd15a160e11b815291600083600481845afa9283156102e857600093613e79575b5060405163d05e06c560e01b815290600082600481845afa9182156102e857600092613e5c575b506040516330a482b360e21b8152600081600481855afa9081156102e857600091613e41575b506040516363e2198560e01b8152600081600481865afa9081156102e857600091613e26575b506040516311b3974760e21b815291600083600481875afa9283156102e857600093613e09575b50604051630344d68d60e41b815294600086600481885afa9485156102e857600496600096613dea575b50600090604051978880926377a45b7560e01b82525afa9586156102e857600096613dc5575b50604060009901968751613dbc575b604001998a51613da8575b604001978851613d94575b604001908151613d80575b604001918251613d6c575b604001928351613d58575b604001938451613d44575b604001948551613d30575b604001958651613d1c575b604001968751613d0c575b5115995115975115905115915115925115935115945115955115965115976040519a613cd28c613339565b8b5260208b015260408a01526060890152608088015260a087015260c086015260e085015261010084015261012083015261014082015290565b98613d1690613a87565b98613ca7565b98613d28604091613a87565b999050613c9c565b98613d3c604091613a87565b999050613c91565b98613d50604091613a87565b999050613c86565b98613d64604091613a87565b999050613c7b565b98613d78604091613a87565b999050613c70565b98613d8c604091613a87565b999050613c65565b98613da0604091613a87565b999050613c5a565b98613db4604091613a87565b999050613c4f565b60019950613c44565b613de39196503d806000833e613ddb8183613447565b8101906139fe565b9438613c35565b6000919650613e02903d8084833e613ddb8183613447565b9590613c0f565b613e1f9193503d806000833e613ddb8183613447565b9138613be5565b613e3b91503d806000833e613ddb8183613447565b38613bbe565b613e5691503d806000833e613ddb8183613447565b38613b98565b613e729192503d806000833e613ddb8183613447565b9038613b72565b613e8f9193503d806000833e613ddb8183613447565b9138613b4b565b613eac9194503d806000833e613ddb8183613447565b9238613b24565b613ec99193503d806000833e613ddb8183613447565b9138613afd565b613ee591503d806000833e613ddb8183613447565b38613ad6565b50604051613ef881613339565b6001815260016020820152600160408201526001606082015260016080820152600160a0820152600160c0820152600160e082015260016101008201526001610120820152600061014082015290565b90816101609103126102f45780519160208201519160408101519160608201519160808101519160a08201519160c08101519160e0820151916101008101519161014061012083015192015190565b919082039182116119e157565b919082018092116119e157565b6020818303126102f4578051906001600160401b0382116102f457019080601f830112156102f4578151613fe481613468565b92613ff26040519485613447565b81845260208085019260051b8201019283116102f457602001905b82821061401a5750505090565b6020809161402784613763565b81520191019061400d565b90816101809103126102f4576140da610160604051926140518461340f565b61405a81613763565b845261406860208201613763565b602085015261407960408201613763565b6040850152606081015160608501526080810151608085015260a081015160a085015260c081015160c085015260e081015160e085015261010081015161010085015261012081015161012085015261014081015161014085015201613777565b61016082015290565b81156140ed570490565b634e487b7160e01b600052601260045260246000fd5b6040519061411082613386565b60006101a0838281528260208201528260408201528260608201528260808201528260a08201528260c08201528260e082015282610100820152826101208201528261014082015282610160820152826101808201520152565b60405190614177826133a2565b60006040838281528260208201520152565b60405190614196826133bd565b600060a0838281528260208201528260408201528260608201528260808201520152565b6141c2614189565b506002546001600160a01b031680156142885760c06004916040519283809263c725a83360e01b82525afa80156102e857600091828384918593869561422f575b5060405195614211876133bd565b8652602086015260408501526060840152608083015260a082015290565b9594505050505060c0823d60c011614280575b8161424f60c09383613447565b81010312610c2d57508051602082015160408301516060840151608085015160a09095015193949290919038614203565b3d9150614242565b50604051614295816133bd565b6000815260006020820152600060408201526000606082015260006080820152600060a082015290565b60049260006001600160a01b036142d4614be5565b166040519586809263d2d49c4b60e01b82525afa9384156102e85760009461446d575b50600091825b855181101561433b576001600160a01b0361431882886138f1565b5116614327575b6001016142fd565b92614333600191613a87565b93905061431f565b509190928183101561442d5761436591614356849283613fa4565b90808211614425575b50613f97565b9161436f836138a1565b9360009160009060005b835181108061441c575b15614413576001600160a01b0361439a82866138f1565b51166143af575b6143aa90613a87565b614379565b93858110156143cd575b6143c56143aa91613a87565b9490506143a1565b916143aa906143c59061440a906143ef6001600160a01b0361064d8a8a6138f1565b6143f9828d6138f1565b52614404818c6138f1565b50613a87565b939150506143b9565b50945050505050565b50868310614383565b90503861435f565b505060405191925060009050614444602083613447565b81526000805b81811061445657505090565b602090614461613848565b8282860101520161444a565b61448191943d8091833e6105ab8183613447565b92386142f7565b600460206001600160a01b0361449c614be5565b166040519283809263900cf0cf60e01b82525afa9081156102e8576000916146de575b50600460206001600160a01b036144d4614be5565b166040519283809263b3f05b9760e01b82525afa9081156102e8576000916146ac575b50600460206001600160a01b0361450c614be5565b1660405192838092630d2bd90960e01b82525afa9081156102e85760009161467a575b501561464357600281018091116119e157811161460457614563575b60019060405161455c602082613447565b6000815290565b600460206001600160a01b03614577614be5565b166040519283809263bea4003960e01b82525afa9081156102e8576000916145d2575b5061454b576000906040516145b0604082613447565b60128152714e6f207374616b6520696e2073797374656d60701b602082015290565b90506020813d6020116145fc575b816145ed60209383613447565b810103126102f457513861459a565b3d91506145e0565b50600090604051614616604082613447565b601a81527f45706f63682066696e616c697a6174696f6e207374616c6c6564000000000000602082015290565b5050600090604051614656604082613447565b60148152734e6f206163746976652076616c696461746f727360601b602082015290565b90506020813d6020116146a4575b8161469560209383613447565b810103126102f457513861452f565b3d9150614688565b906020823d6020116146d6575b816146c660209383613447565b81010312610c2d575051386144f7565b3d91506146b9565b906020823d602011614708575b816146f860209383613447565b81010312610c2d575051386144bf565b3d91506146eb565b6040519061471d826133d8565b6000610100838281528260208201528260408201528260608201528260808201528260a08201528260c08201528260e08201520152565b61475c614710565b6001600160a01b03909116908115614891575060246101806001600160a01b03614784614be5565b166040519283809263b83f5b3960e01b82528660048301525afa9081156102e857600091614872575b5060a081018051906147c560e0840192835190613fa4565b60009160009360009560c081019081518061485a575b506101000190815180614846575b5084614833575b5192519051915192604051986148058a6133d8565b8952602089015260408801526060870152608086015260a085015260c084015260e083015261010082015290565b9650614840848451615638565b966147f0565b6148539197508351615638565b95386147e9565b61010091965061486b908551615638565b95906147db565b61488b91506101803d81116109bc576109ae8183613447565b386147ad565b905090565b61489e61391b565b506002546001600160a01b031680156149825761010060049160405192838092634f55e80160e11b82525afa80156102e8576000918283848591869387958897614919575b50604051976148f18961342b565b8852602088015260408701526060860152608085015260a084015260c083015260e082015290565b979650505050505050610100823d821161497a575b8161493c6101009383613447565b81010312610c2d57508051602082015160408301516060840151608085015160a086015160c087015160e090970151959694909391929190386148e3565b3d915061492e565b50600460206001600160a01b03614997614be5565b166040519283809263bea4003960e01b82525afa9081156102e8576000916149fe575b50604051906149c88261342b565b600082526020820152600060408201526000606082015260006080820152600060a0820152600060c0820152600060e082015290565b90506020813d602011614a28575b81614a1960209383613447565b810103126102f45751386149ba565b3d9150614a0c565b6001600160a01b0391821681529116602082015260400190565b90614a5361391b565b6001600160a01b038316929083158015614bb3575b614bac5750614aa49060209083906001600160a01b03614a86614be5565b1690604051809581948293630a7292f560e01b845260048401614a30565b03915afa9081156102e857600091614b7a575b5060246101806001600160a01b03614acd614be5565b60405163b83f5b3960e01b81526001600160a01b03909616600487018190529593849290918391165afa9081156102e857600091614b5b575b5061010060e082015191015160009160009360009583614b2e575b604051976148f18961342b565b955093509150614b3f8183856156f0565b91614b4a8282615638565b93614b558382615638565b95614b21565b614b7491506101803d81116109bc576109ae8183613447565b38614b06565b906020823d602011614ba4575b81614b9460209383613447565b81010312610c2d57505138614ab7565b3d9150614b87565b9250505090565b506001600160a01b03831615614a68565b60008051602061585d833981519152546001600160a01b03163303611a6657565b600154604051631bae711d60e21b815260206004820181905260076024830152665374616b696e6760c81b60448301529091829060649082906001600160a01b03165afa9081156102e857600091614c45575b506001600160a01b031690565b90506020813d602011614c77575b81614c6060209383613447565b810103126102f457614c7190613763565b38614c38565b3d9150614c53565b614c87613848565b6001600160a01b03821691908215614e8957506024906101806001600160a01b03614cb0614be5565b166040519384809263b83f5b3960e01b82528760048301525afa9081156102e857602492600092614e68575b5060606001600160a01b03614cef614be5565b166040519485809263090d60bd60e01b82528860048301525afa9283156102e857600093614e28575b50614d2290615791565b9160a08201519260c08301519060e0840151610100850151610120860151906101408701519260018060a01b03614d57614be5565b169560208b6024604051809a8193635491295760e11b835260048301525afa9687156102e857600097614dec575b50610160602060408a015115159901519901511515996040519b614da88d61340f565b8c5260208c015260408b015260608a0152608089015260a088015260c0870152151560e0860152151561010085015261012084015261014083015261016082015290565b9096506020813d602011614e20575b81614e0860209383613447565b810103126102f457614e1990613777565b9538614d85565b3d9150614dfb565b90925060603d606011614e61575b614e408183613447565b8101906060818303126102f457614d2291614e5a91613784565b9290614d18565b503d614e36565b614e829192506101803d81116109bc576109ae8183613447565b9038614cdc565b91505090565b614e9761391b565b6001600160a01b0382169290831580156151e5575b614bac57506001600160a01b03614ec1614be5565b169160206040518094630a7292f560e01b82528180614ee4878760048401614a30565b03915afa9283156102e8576000936151b1575b506000916001600160a01b03614f0b614be5565b16602060405180926367265c3b60e11b82528180614f2d878960048401614a30565b03915afa849181615179575b50615171575b506001600160a01b03614f50614be5565b1692602060405180956315ed813560e31b82528180614f73878960048401614a30565b03915afa9384156102e85760009461513d575b506001600160a01b03614f97614be5565b169460206040518097633866573b60e11b82528180614fba888a60048401614a30565b03915afa9586156102e857600096615109575b506001600160a01b03614fde614be5565b169260206040518095630bbc90e360e01b82528180615001868b60048401614a30565b03915afa9384156102e8576000946150d2575b5061504c9460209082906001600160a01b0361502e614be5565b169060405180998194829363278c123760e01b845260048401614a30565b03915afa9485156102e85760009561509e575b506040519761506d8961342b565b88526001600160a01b0316602088015260408701526060860152608085015260a084015260c083015260e082015290565b9094506020813d6020116150ca575b816150ba60209383613447565b810103126102f45751933861505f565b3d91506150ad565b9493506020853d602011615101575b816150ee60209383613447565b810103126102f457935192936020615014565b3d91506150e1565b9095506020813d602011615135575b8161512560209383613447565b810103126102f457519438614fcd565b3d9150615118565b9093506020813d602011615169575b8161515960209383613447565b810103126102f457519238614f86565b3d915061514c565b925038614f3f565b9091506020813d6020116151a9575b8161519560209383613447565b810103126151a557519038614f39565b8480fd5b3d9150615188565b9092506020813d6020116151dd575b816151cd60209383613447565b810103126102f457519138614ef7565b3d91506151c0565b506001600160a01b03821615614eac565b600460206001600160a01b0361520a614be5565b166040519283809263a155685d60e01b82525afa60009181615232575b506139fb5750600090565b9091506020813d60201161525e575b8161524e60209383613447565b810103126102f457519038615227565b3d9150615241565b600154604051631bae711d60e21b8152602060048201819052600660248301526551756575657360d01b60448301529091829060649082906001600160a01b03165afa9081156102e857600091614c4557506001600160a01b031690565b600154604051631bae711d60e21b815260206004820181905260126024830152712a3930b739b0b1ba34b7b726b0b730b3b2b960711b60448301529091829060649082906001600160a01b03165afa9081156102e857600091614c4557506001600160a01b031690565b9060049161533a614103565b5060006001821661553c57506101606001600160a01b03615359614be5565b16604051948580926396be02a760e01b82525afa9081156102e857600091828091819682808182918380958197615504575b5099979b96909192939495965b6000986001600160a01b036153ab6152c4565b1661547f575b9b9c9a9b60049b9060206001600160a01b036153cb614be5565b166040519e8f809263b3f05b9760e01b82525afa9c8d156102e85760009d61544b575b50604051809e6153fd82613386565b8d825260208201526040015260608d015260808c015260a08b015260c08a015260e089015261010088015261012087015261014086015261016085015261018084015211156101a082015290565b909c506020813d602011615477575b8161546760209383613447565b810103126102f457519b386153ee565b3d915061545a565b989c8d6001600160a01b036154926152c4565b1660208d60246040518094819363132d95ab60e11b835260048301525afa918215610c3857916154c7575b50909d50986153b1565b905060208f829082903d84116154fc575b6154e28284613447565b50810103126154f857519c9d508d9c60046154bd565b8e80fd5b3d91506154d8565b999c5050505050505050505061552991506101603d81116117365761171e8183613447565b969b98999596959094919391903861538b565b906101606001600160a01b03615550614be5565b166040519586809263fafebac560e01b82525afa918215610c38578081938280978193828390849285948697615592575b5099979b9690919293949596615398565b999c505050505050505050506155b791506101603d81116117365761171e8183613447565b969b989995969590949193919038615581565b60008051602061589d83398151915280546001600160a01b031990811690915560008051602061585d83398151915280549182166001600160a01b0393841690811790915591167f8be0079c531659141344cd1fd0a4f28419497f9722a3daafe3b4186f6b6457e0600080a3565b90670de0b6b3a7640000820290600019670de0b6b3a76400008409928280851094039380850394146156e457838211156156cb57670de0b6b3a7640000829109816000038216809204600281600302188082026002030280820260020302808202600203028082026002030280820260020302809102600203029360018380600003040190848311900302920304170290565b50634e487b71600052156003026011186020526024601cfd5b50906139fb92506140e3565b918183029160001981850993838086109503948086039514615784578483111561576b5790829109816000038216809204600281600302188082026002030280820260020302808202600203028082026002030280820260020302809102600203029360018380600003040190848311900302920304170290565b82634e487b71600052156003026011186020526024601cfd5b5050906139fb92506140e3565b60049060006001600160a01b036157a6614be5565b166040519384809263d2d49c4b60e01b82525afa9182156102e857600092615811575b5060005b8251811015615809576001600160a01b036157e882856138f1565b51166001600160a01b03831614615801576001016157cd565b505050600190565b505050600090565b6158279192503d806000833e6105ab8183613447565b90386157c9565b60ff60008051602061587d8339815191525460401c161561584b57565b631afcd79f60e31b60005260046000fdfe9016d09d72d40fdae2fd8ceac6b6234c7706214fd39c1cd1e609a0528c199300f0c57e16840df040f15088dc2f81fe391c3923bec73e23a9662efc9c229c6a00237e158222e3e6968b72b9db0d8043aacf074ad9f650f0d1606b4d82ee432c00a2646970667358221220fd8f895ada61579a4f18e7a22d34467f105bdfad988efb16f16697a40feb732e64736f6c634300081c0033",
  "linkReferences": {},
  "deployedLinkReferences": {}
}