{
  "_format": "hh-sol-artifact-1",
  "contractName": "Slash",
  "sourceName": "contracts/Slash.sol",
  "abi": [
    {
      "inputs": [],
      "name": "AccessControlBadConfirmation",
      "type": "error"
    },
    {
      "inputs": [
        {
          "internalType": "address",
          "name": "account",
          "type": "address"
        },
        {
          "internalType": "bytes32",
          "name": "neededRole",
          "type": "bytes32"
        }
      ],
      "name": "AccessControlUnauthorizedAccount",
      "type": "error"
    },
    {
      "inputs": [],
      "name": "InvalidInitialization",
      "type": "error"
    },
    {
      "inputs": [],
      "name": "NotIdleness",
      "type": "error"
    },
    {
      "inputs": [],
      "name": "NotInitializing",
      "type": "error"
    },
    {
      "inputs": [],
      "name": "NotStaking",
      "type": "error"
    },
    {
      "inputs": [
        {
          "internalType": "address",
          "name": "owner",
          "type": "address"
        }
      ],
      "name": "OwnableInvalidOwner",
      "type": "error"
    },
    {
      "inputs": [
        {
          "internalType": "address",
          "name": "account",
          "type": "address"
        }
      ],
      "name": "OwnableUnauthorizedAccount",
      "type": "error"
    },
    {
      "inputs": [],
      "name": "ReentrancyGuardReentrantCall",
      "type": "error"
    },
    {
      "inputs": [],
      "name": "SlashPercentageTooHigh",
      "type": "error"
    },
    {
      "anonymous": false,
      "inputs": [
        {
          "indexed": false,
          "internalType": "uint64",
          "name": "version",
          "type": "uint64"
        }
      ],
      "name": "Initialized",
      "type": "event"
    },
    {
      "anonymous": false,
      "inputs": [
        {
          "indexed": true,
          "internalType": "address",
          "name": "previousOwner",
          "type": "address"
        },
        {
          "indexed": true,
          "internalType": "address",
          "name": "newOwner",
          "type": "address"
        }
      ],
      "name": "OwnershipTransferStarted",
      "type": "event"
    },
    {
      "anonymous": false,
      "inputs": [
        {
          "indexed": true,
          "internalType": "address",
          "name": "previousOwner",
          "type": "address"
        },
        {
          "indexed": true,
          "internalType": "address",
          "name": "newOwner",
          "type": "address"
        }
      ],
      "name": "OwnershipTransferred",
      "type": "event"
    },
    {
      "anonymous": false,
      "inputs": [
        {
          "indexed": true,
          "internalType": "bytes32",
          "name": "role",
          "type": "bytes32"
        },
        {
          "indexed": true,
          "internalType": "bytes32",
          "name": "previousAdminRole",
          "type": "bytes32"
        },
        {
          "indexed": true,
          "internalType": "bytes32",
          "name": "newAdminRole",
          "type": "bytes32"
        }
      ],
      "name": "RoleAdminChanged",
      "type": "event"
    },
    {
      "anonymous": false,
      "inputs": [
        {
          "indexed": true,
          "internalType": "bytes32",
          "name": "role",
          "type": "bytes32"
        },
        {
          "indexed": true,
          "internalType": "address",
          "name": "account",
          "type": "address"
        },
        {
          "indexed": true,
          "internalType": "address",
          "name": "sender",
          "type": "address"
        }
      ],
      "name": "RoleGranted",
      "type": "event"
    },
    {
      "anonymous": false,
      "inputs": [
        {
          "indexed": true,
          "internalType": "bytes32",
          "name": "role",
          "type": "bytes32"
        },
        {
          "indexed": true,
          "internalType": "address",
          "name": "account",
          "type": "address"
        },
        {
          "indexed": true,
          "internalType": "address",
          "name": "sender",
          "type": "address"
        }
      ],
      "name": "RoleRevoked",
      "type": "event"
    },
    {
      "anonymous": false,
      "inputs": [
        {
          "indexed": true,
          "internalType": "address",
          "name": "validator",
          "type": "address"
        },
        {
          "indexed": false,
          "internalType": "uint256",
          "name": "epoch",
          "type": "uint256"
        }
      ],
      "name": "SlashEnacted",
      "type": "event"
    },
    {
      "anonymous": false,
      "inputs": [
        {
          "indexed": false,
          "internalType": "uint256",
          "name": "delay",
          "type": "uint256"
        }
      ],
      "name": "SlashGovernanceDelaySet",
      "type": "event"
    },
    {
      "anonymous": false,
      "inputs": [
        {
          "components": [
            {
              "internalType": "uint256",
              "name": "idleness",
              "type": "uint256"
            },
            {
              "internalType": "uint256",
              "name": "deterministicViolationValidator",
              "type": "uint256"
            },
            {
              "internalType": "uint256",
              "name": "deterministicViolationLeader",
              "type": "uint256"
            },
            {
              "internalType": "uint256",
              "name": "maxPerEpoch",
              "type": "uint256"
            }
          ],
          "indexed": false,
          "internalType": "struct ISlash.SlashPercentages",
          "name": "",
          "type": "tuple"
        }
      ],
      "name": "SlashPercentagesSet",
      "type": "event"
    },
    {
      "anonymous": false,
      "inputs": [
        {
          "indexed": true,
          "internalType": "address",
          "name": "validator",
          "type": "address"
        },
        {
          "indexed": false,
          "internalType": "bytes32",
          "name": "txId",
          "type": "bytes32"
        },
        {
          "indexed": false,
          "internalType": "uint256",
          "name": "epoch",
          "type": "uint256"
        },
        {
          "indexed": false,
          "internalType": "uint256",
          "name": "percentage",
          "type": "uint256"
        },
        {
          "indexed": false,
          "internalType": "enum ITransactions.TransactionStatus",
          "name": "txStatus",
          "type": "uint8"
        }
      ],
      "name": "SlashedFromIdleness",
      "type": "event"
    },
    {
      "inputs": [],
      "name": "DEFAULT_ADMIN_ROLE",
      "outputs": [
        {
          "internalType": "bytes32",
          "name": "",
          "type": "bytes32"
        }
      ],
      "stateMutability": "view",
      "type": "function"
    },
    {
      "inputs": [],
      "name": "PRECISION",
      "outputs": [
        {
          "internalType": "uint256",
          "name": "",
          "type": "uint256"
        }
      ],
      "stateMutability": "view",
      "type": "function"
    },
    {
      "inputs": [],
      "name": "acceptOwnership",
      "outputs": [],
      "stateMutability": "nonpayable",
      "type": "function"
    },
    {
      "inputs": [],
      "name": "addressManager",
      "outputs": [
        {
          "internalType": "contract IAddressManager",
          "name": "",
          "type": "address"
        }
      ],
      "stateMutability": "view",
      "type": "function"
    },
    {
      "inputs": [],
      "name": "delay",
      "outputs": [
        {
          "internalType": "uint256",
          "name": "",
          "type": "uint256"
        }
      ],
      "stateMutability": "view",
      "type": "function"
    },
    {
      "inputs": [],
      "name": "delayInEpochs",
      "outputs": [
        {
          "internalType": "uint256",
          "name": "",
          "type": "uint256"
        }
      ],
      "stateMutability": "view",
      "type": "function"
    },
    {
      "inputs": [
        {
          "internalType": "address",
          "name": "_validator",
          "type": "address"
        }
      ],
      "name": "enactSlash",
      "outputs": [
        {
          "internalType": "uint256[]",
          "name": "epochs",
          "type": "uint256[]"
        },
        {
          "internalType": "uint256[]",
          "name": "percentages",
          "type": "uint256[]"
        }
      ],
      "stateMutability": "nonpayable",
      "type": "function"
    },
    {
      "inputs": [
        {
          "internalType": "bytes32",
          "name": "role",
          "type": "bytes32"
        }
      ],
      "name": "getRoleAdmin",
      "outputs": [
        {
          "internalType": "bytes32",
          "name": "",
          "type": "bytes32"
        }
      ],
      "stateMutability": "view",
      "type": "function"
    },
    {
      "inputs": [
        {
          "internalType": "address",
          "name": "_validator",
          "type": "address"
        }
      ],
      "name": "getSlashesPending",
      "outputs": [
        {
          "internalType": "uint256[]",
          "name": "epochs",
          "type": "uint256[]"
        },
        {
          "internalType": "uint256[]",
          "name": "percentages",
          "type": "uint256[]"
        }
      ],
      "stateMutability": "view",
      "type": "function"
    },
    {
      "inputs": [
        {
          "internalType": "bytes32",
          "name": "role",
          "type": "bytes32"
        },
        {
          "internalType": "address",
          "name": "account",
          "type": "address"
        }
      ],
      "name": "grantRole",
      "outputs": [],
      "stateMutability": "nonpayable",
      "type": "function"
    },
    {
      "inputs": [
        {
          "internalType": "bytes32",
          "name": "role",
          "type": "bytes32"
        },
        {
          "internalType": "address",
          "name": "account",
          "type": "address"
        }
      ],
      "name": "hasRole",
      "outputs": [
        {
          "internalType": "bool",
          "name": "",
          "type": "bool"
        }
      ],
      "stateMutability": "view",
      "type": "function"
    },
    {
      "inputs": [
        {
          "internalType": "bytes32",
          "name": "txId",
          "type": "bytes32"
        }
      ],
      "name": "idlenessData",
      "outputs": [
        {
          "internalType": "uint256",
          "name": "epoch",
          "type": "uint256"
        },
        {
          "internalType": "uint256",
          "name": "timestamp",
          "type": "uint256"
        }
      ],
      "stateMutability": "view",
      "type": "function"
    },
    {
      "inputs": [
        {
          "internalType": "address",
          "name": "_validator",
          "type": "address"
        },
        {
          "internalType": "bytes32",
          "name": "_txId",
          "type": "bytes32"
        },
        {
          "internalType": "enum ITransactions.TransactionStatus",
          "name": "_txStatus",
          "type": "uint8"
        }
      ],
      "name": "idlenessSlash",
      "outputs": [],
      "stateMutability": "nonpayable",
      "type": "function"
    },
    {
      "inputs": [
        {
          "internalType": "address[]",
          "name": "_validators",
          "type": "address[]"
        },
        {
          "internalType": "bytes32",
          "name": "_txId",
          "type": "bytes32"
        },
        {
          "internalType": "enum ITransactions.TransactionStatus",
          "name": "_txStatus",
          "type": "uint8"
        }
      ],
      "name": "idlenessSlashBatch",
      "outputs": [],
      "stateMutability": "nonpayable",
      "type": "function"
    },
    {
      "inputs": [
        {
          "internalType": "address",
          "name": "_addressManager",
          "type": "address"
        }
      ],
      "name": "initialize",
      "outputs": [],
      "stateMutability": "nonpayable",
      "type": "function"
    },
    {
      "inputs": [
        {
          "internalType": "address",
          "name": "validator",
          "type": "address"
        }
      ],
      "name": "lastEnactedEpoch",
      "outputs": [
        {
          "internalType": "uint256",
          "name": "epoch",
          "type": "uint256"
        }
      ],
      "stateMutability": "view",
      "type": "function"
    },
    {
      "inputs": [],
      "name": "maxSlashPercentagePerEpoch",
      "outputs": [
        {
          "internalType": "uint256",
          "name": "",
          "type": "uint256"
        }
      ],
      "stateMutability": "view",
      "type": "function"
    },
    {
      "inputs": [],
      "name": "owner",
      "outputs": [
        {
          "internalType": "address",
          "name": "",
          "type": "address"
        }
      ],
      "stateMutability": "view",
      "type": "function"
    },
    {
      "inputs": [],
      "name": "pendingOwner",
      "outputs": [
        {
          "internalType": "address",
          "name": "",
          "type": "address"
        }
      ],
      "stateMutability": "view",
      "type": "function"
    },
    {
      "inputs": [],
      "name": "renounceOwnership",
      "outputs": [],
      "stateMutability": "nonpayable",
      "type": "function"
    },
    {
      "inputs": [
        {
          "internalType": "bytes32",
          "name": "role",
          "type": "bytes32"
        },
        {
          "internalType": "address",
          "name": "callerConfirmation",
          "type": "address"
        }
      ],
      "name": "renounceRole",
      "outputs": [],
      "stateMutability": "nonpayable",
      "type": "function"
    },
    {
      "inputs": [
        {
          "internalType": "bytes32",
          "name": "role",
          "type": "bytes32"
        },
        {
          "internalType": "address",
          "name": "account",
          "type": "address"
        }
      ],
      "name": "revokeRole",
      "outputs": [],
      "stateMutability": "nonpayable",
      "type": "function"
    },
    {
      "inputs": [
        {
          "internalType": "address",
          "name": "_addressManager",
          "type": "address"
        }
      ],
      "name": "setAddressManager",
      "outputs": [],
      "stateMutability": "nonpayable",
      "type": "function"
    },
    {
      "inputs": [
        {
          "internalType": "uint256",
          "name": "_delayInEpochs",
          "type": "uint256"
        }
      ],
      "name": "setDelayInEpochs",
      "outputs": [],
      "stateMutability": "nonpayable",
      "type": "function"
    },
    {
      "inputs": [
        {
          "internalType": "uint256",
          "name": "_idleness",
          "type": "uint256"
        },
        {
          "internalType": "uint256",
          "name": "_deterministicViolationValidator",
          "type": "uint256"
        },
        {
          "internalType": "uint256",
          "name": "_deterministicViolationLeader",
          "type": "uint256"
        },
        {
          "internalType": "uint256",
          "name": "_maxPerEpoch",
          "type": "uint256"
        }
      ],
      "name": "setSlashPercentages",
      "outputs": [],
      "stateMutability": "nonpayable",
      "type": "function"
    },
    {
      "inputs": [
        {
          "internalType": "address",
          "name": "validator",
          "type": "address"
        },
        {
          "internalType": "uint256",
          "name": "epoch",
          "type": "uint256"
        }
      ],
      "name": "slashPerValidator",
      "outputs": [
        {
          "internalType": "uint256",
          "name": "percentages",
          "type": "uint256"
        }
      ],
      "stateMutability": "view",
      "type": "function"
    },
    {
      "inputs": [],
      "name": "slashPercentages",
      "outputs": [
        {
          "internalType": "uint256",
          "name": "idleness",
          "type": "uint256"
        },
        {
          "internalType": "uint256",
          "name": "deterministicViolationValidator",
          "type": "uint256"
        },
        {
          "internalType": "uint256",
          "name": "deterministicViolationLeader",
          "type": "uint256"
        },
        {
          "internalType": "uint256",
          "name": "maxPerEpoch",
          "type": "uint256"
        }
      ],
      "stateMutability": "view",
      "type": "function"
    },
    {
      "inputs": [
        {
          "internalType": "bytes4",
          "name": "interfaceId",
          "type": "bytes4"
        }
      ],
      "name": "supportsInterface",
      "outputs": [
        {
          "internalType": "bool",
          "name": "",
          "type": "bool"
        }
      ],
      "stateMutability": "view",
      "type": "function"
    },
    {
      "inputs": [
        {
          "internalType": "address",
          "name": "newOwner",
          "type": "address"
        }
      ],
      "name": "transferOwnership",
      "outputs": [],
      "stateMutability": "nonpayable",
      "type": "function"
    }
  ],
  "bytecode": "0x60808060405234601557611a02908161001b8239f35b600080fdfe608080604052600436101561001357600080fd5b60003560e01c90816301ffc9a714610d3557508063061608e214610d005780630652b57a14610cbd5780630ef4f25314610c9c5780631e7d3f1014610a47578063248a9ca314610c765780632c57e6ce14610b3f5780632f2ff15d14610b0e57806336568abe14610ac85780633ab76e9f14610a9f57806345da27d314610a655780636a42b8f814610a47578063715018a6146109c657806379ba5097146109765780638da5cb5b1461094057806391d14854146108e6578063a217fddf146108ca578063a95c74e514610775578063aaf5eb6814610758578063b81aa85014610710578063be4e6e6f14610647578063c0b604c814610597578063c4d66de81461038f578063ce92074814610358578063d547741f14610320578063e30c3978146102ea578063e53c554714610208578063f2fde38b146101815763fd63dec31461015e57600080fd5b3461017c57600036600319011261017c576020600454604051908152f35b600080fd5b3461017c57602036600319011261017c5761019a610d88565b6101a2610ee7565b6000805160206119ad83398151915280546001600160a01b0319166001600160a01b0392831690811790915560008051602061194d833981519152549091167f38d16b8cac22d99fc7c124b9cd0de2d3fa1faef420bfe791d8c362d765e22700600080a3005b3461017c57608036600319011261017c5760443560243560043560643561022d610ee7565b612710821180156102df575b80156102d4575b80156102c9575b6102b8577f30e87f676daeb79824b16beb1020dbbe956c801d69938403de7fa676aab797a99360809382606060405161027f81610e10565b868152836020820152846040820152015283600155806002558160035582600455604051938452602084015260408301526060820152a1005b6303b7d45560e21b60005260046000fd5b506127108111610247565b506127108411610240565b506127108311610239565b3461017c57600036600319011261017c576000805160206119ad833981519152546040516001600160a01b039091168152602090f35b3461017c57604036600319011261017c5761035660043561033f610d9e565b9061035161034c82610e79565b6115ea565b6116dd565b005b3461017c57600036600319011261017c57608060015460025460035460045491604051938452602084015260408301526060820152f35b3461017c57602036600319011261017c576103a8610d88565b60008051602061198d833981519152549060ff8260401c1615916001600160401b0381168015908161058f575b6001149081610585575b15908161057c575b5061056b5767ffffffffffffffff19811660011760008051602061198d833981519152558261053e575b5061041a61191e565b61042261191e565b61042a61191e565b3315610528576104393361177d565b61044161191e565b61044961191e565b60017f9b779b17422d0df92223018b32b4d1fa46e071723d6817e2486d003becc55f005561047561191e565b60018060a01b031660018060a01b0319600854161760085560026000556103e860606040516104a381610e10565b60648152606460208201526101f460408201520152606460015560646002556101f46003556103e86004556104d457005b60ff60401b1960008051602061198d833981519152541660008051602061198d833981519152557fc7f505b2f371ae2175ee4913f4499e1f2633a7b5936321eed1cdaeb6115181d2602060405160018152a1005b631e4fbdf760e01b600052600060045260246000fd5b68ffffffffffffffffff1916680100000000000000011760008051602061198d8339815191525582610411565b63f92ee8a960e01b60005260046000fd5b905015846103e7565b303b1591506103df565b8491506103d5565b3461017c57602036600319011261017c5760046105b2610d88565b60206001600160a01b036105c4610f1c565b166040519384809263900cf0cf60e01b82525afa90811561063b57600091610605575b6105f19250611004565b9061060160405192839283610de8565b0390f35b90506020823d602011610633575b8161062060209383610e41565b8101031261017c576105f19151906105e7565b3d9150610613565b6040513d6000823e3d90fd5b3461017c57606036600319011261017c57610660610d88565b604435600f81101561017c576001600160a01b0361067c6117eb565b1633036106ff5760049160206001600160a01b03610698610f1c565b166040519485809263900cf0cf60e01b82525afa90811561063b576000916106c9575b610356935060243590611871565b90506020833d6020116106f7575b816106e460209383610e41565b8101031261017c576103569251906106bb565b3d91506106d7565b6343c7b40b60e11b60005260046000fd5b3461017c57604036600319011261017c576001600160a01b03610731610d88565b16600052600660205260406000206024356000526020526020604060002054604051908152f35b3461017c57600036600319011261017c5760206040516127108152f35b3461017c57606036600319011261017c576004356001600160401b03811161017c573660238201121561017c5780600401356107b081610e62565b916107be6040519384610e41565b8183526024602084019260051b8201019036821161017c57602401915b8183106108aa5760243560443585600f82101561017c576001600160a01b036108026117eb565b1633036106ff5760049160206001600160a01b0361081e610f1c565b166040519485809263900cf0cf60e01b82525afa92831561063b57600093610876575b5060005b8251811015610356576001906108708386886001600160a01b03610869868a610ebd565b5116611871565b01610845565b9092506020813d6020116108a2575b8161089260209383610e41565b8101031261017c57519184610841565b3d9150610885565b82356001600160a01b038116810361017c578152602092830192016107db565b3461017c57600036600319011261017c57602060405160008152f35b3461017c57604036600319011261017c576108ff610d9e565b60043560005260008051602061196d83398151915260205260406000209060018060a01b0316600052602052602060ff604060002054166040519015158152f35b3461017c57600036600319011261017c5760008051602061194d833981519152546040516001600160a01b039091168152602090f35b3461017c57600036600319011261017c576000805160206119ad83398151915254336001600160a01b03909116036109b1576103563361177d565b63118cdaa760e01b6000523360045260246000fd5b3461017c57600036600319011261017c576109df610ee7565b6000805160206119ad83398151915280546001600160a01b031990811690915560008051602061194d833981519152805491821690556000906001600160a01b03167f8be0079c531659141344cd1fd0a4f28419497f9722a3daafe3b4186f6b6457e08280a3005b3461017c57600036600319011261017c576020600054604051908152f35b3461017c57602036600319011261017c576001600160a01b03610a86610d88565b1660005260056020526020604060002054604051908152f35b3461017c57600036600319011261017c576008546040516001600160a01b039091168152602090f35b3461017c57604036600319011261017c57610ae1610d9e565b336001600160a01b03821603610afd57610356906004356116dd565b63334bd91960e11b60005260046000fd5b3461017c57604036600319011261017c57610356600435610b2d610d9e565b90610b3a61034c82610e79565b611634565b3461017c57602036600319011261017c57610b58610d88565b6001600160a01b03610b68610f1c565b163303610c655760049060206001600160a01b03610b84610f1c565b166040519384809263900cf0cf60e01b82525afa91821561063b57600092610c2e575b50817fce0fb8cdb70dc98c87f1cc721bf4c7457c107596f205b8e742fcd57e2a64865c610bd660209484611004565b94909360005480851015610c06575b506040519384526001600160a01b031692a261060160405192839283610de8565b610c109085610e9a565b6001600160a01b038216600090815260058452604090205586610be5565b6020813d602011610c5d575b81610c4760209383610e41565b81010312610c59575191506020610ba7565b8280fd5b3d9150610c3a565b634487f62960e11b60005260046000fd5b3461017c57602036600319011261017c576020610c94600435610e79565b604051908152f35b3461017c57602036600319011261017c57610cb5610ee7565b600435600055005b3461017c57602036600319011261017c57610cd6610d88565b610cde610ee7565b600880546001600160a01b0319166001600160a01b0392909216919091179055005b3461017c57602036600319011261017c5760043560005260076020526040806000206001815491015482519182526020820152f35b3461017c57602036600319011261017c576004359063ffffffff60e01b821680920361017c57602091637965db0b60e01b8114908115610d77575b5015158152f35b6301ffc9a760e01b14905083610d70565b600435906001600160a01b038216820361017c57565b602435906001600160a01b038216820361017c57565b906020808351928381520192019060005b818110610dd25750505090565b8251845260209384019390920191600101610dc5565b9091610dff610e0d93604084526040840190610db4565b916020818403910152610db4565b90565b608081019081106001600160401b03821117610e2b57604052565b634e487b7160e01b600052604160045260246000fd5b90601f801991011681019081106001600160401b03821117610e2b57604052565b6001600160401b038111610e2b5760051b60200190565b60005260008051602061196d83398151915260205260016040600020015490565b91908203918211610ea757565b634e487b7160e01b600052601160045260246000fd5b8051821015610ed15760209160051b010190565b634e487b7160e01b600052603260045260246000fd5b60008051602061194d833981519152546001600160a01b031633036109b157565b51906001600160a01b038216820361017c57565b600854604051631bae711d60e21b815260206004820181905260076024830152665374616b696e6760c81b60448301529091829060649082906001600160a01b03165afa90811561063b57600091610f7c575b506001600160a01b031690565b90506020813d602011610fae575b81610f9760209383610e41565b8101031261017c57610fa890610f08565b38610f6f565b3d9150610f8a565b90610fc082610e62565b610fcd6040519182610e41565b8281528092610fde601f1991610e62565b0190602036910137565b91908201809211610ea757565b6000198114610ea75760010190565b60018060a01b03169182600052600560205260406000205491600054908181106115d5579061103291610e9a565b80831161159c576110438382610e9a565b9360018501809511610ea75790600061106461105e87610fb6565b96610fb6565b949260018060a01b0360085416935b83811115611082575050505050565b6000604051631bae711d60e21b815260206004820152600e60248201526d151c9a589d5b985b105c1c19585b60921b60448201526020816064818a5afa90811561063b57600091611563575b50604051638900c8e360e01b8152600481018490526001600160a01b039190911690600081602481855afa90811561063b5760009161148a575b5080519060005b828110611195575050505061113f9083600052600660205260406000208360005260205260406000205490610fe8565b80611154575b5061114f90610ff5565b611073565b83611187918361116861114f95978d610ebd565b52600454908181111561118e57505b611181828b610ebd565b52610ff5565b9290611145565b9050611177565b61119f8183610ebd565b515160206111ad8385610ebd565b5101519060405190630ebad2a160e01b82528060048301528260248301526101c0826044818a5afa91821561063b57600092611343575b50600260608301516111f581611914565b6111fe81611914565b036113385761016082015192600484101561132257600360009403611316576040519163c8bc654360e01b8352600483015260248201528960448201526020816064818a5afa90811561130b57908a929184916112cc575b5061126081611914565b80159081156112b8575b5061127d575b5050506001905b0161110f565b60a0015192966001936112a6935090916001600160a01b03909116036112af5760035490610fe8565b94908738611270565b60025490610fe8565b600191506112c581611914565b143861126a565b919250506020813d8211611303575b816112e860209383610e41565b81010312610c5957516003811015610c595790899138611256565b3d91506112db565b6040513d85823e3d90fd5b50505050600190611277565b634e487b7160e01b600052602160045260246000fd5b505050600190611277565b9091816101c03d8111611483575b61135b8183610e41565b810103916101c0831261147b576040519261018084018481106001600160401b03821117611467576040528151845260208201516020850152604082015160408501526060820151600381101561147f579060609182860152607f19011261147b57604051606081018181106001600160401b0382111761146757906101a092916040526080820151815260a0820151602082015260c08201516040820152608085015261140b60e08201610f08565b60a085015261010081015160c085015261012081015160e08501526101408101516101008501526101608101516101208501526101808101516101408501520151906004821015611464575061016082015290386111e4565b80fd5b634e487b7160e01b84526041600452602484fd5b5080fd5b8380fd5b503d611351565b903d8082843e61149a8184610e41565b82019160208184031261147b578051906001600160401b038211610c59570182601f8201121561147b578051916114d083610e62565b936114de6040519586610e41565b83855260208086019460061b84010192818411610c5957602001935b83851061150c57505050505038611108565b604085830312610c5957604051604081018181106001600160401b0382111761154f579160209160409384528751815282880151838201528152019401936114fa565b634e487b7160e01b85526041600452602485fd5b906020823d8211611594575b8161157c60209383610e41565b81010312611464575061158e90610f08565b386110ce565b3d915061156f565b509150506020906040516115b08382610e41565b600081526000368137604051926115c78185610e41565b600084525060003681379190565b50509150506020906040516115b08382610e41565b600081815260008051602061196d8339815191526020908152604080832033845290915290205460ff161561161c5750565b63e2517d3f60e01b6000523360045260245260446000fd5b600081815260008051602061196d833981519152602090815260408083206001600160a01b038616845290915290205460ff166116d657600081815260008051602061196d833981519152602090815260408083206001600160a01b0395909516808452949091528120805460ff19166001179055339291907f2f8788117e7eff1d82e926ec794901d17c78024a50270940304540a733656f0d9080a4600190565b5050600090565b600081815260008051602061196d833981519152602090815260408083206001600160a01b038616845290915290205460ff16156116d657600081815260008051602061196d833981519152602090815260408083206001600160a01b0395909516808452949091528120805460ff19169055339291907ff6391f5c32d9c69d2a47ea670b442974b53935d1edc7fd64eb21e047a839171b9080a4600190565b6000805160206119ad83398151915280546001600160a01b031990811690915560008051602061194d83398151915280549182166001600160a01b0393841690811790915591167f8be0079c531659141344cd1fd0a4f28419497f9722a3daafe3b4186f6b6457e0600080a3565b6064602060018060a01b036008541660405192838092631bae711d60e21b8252846004830152600860248301526749646c656e65737360c01b60448301525afa90811561063b5760009161183d575090565b90506020813d602011611869575b8161185860209383610e41565b8101031261017c57610e0d90610f08565b3d915061184b565b6001600160a01b0316929091831561190e576001548460005260066020526040600020826000526020526118ab6040600020918254610fe8565b905582600052600760205260406000208181556001429101556001549060405193845260208401526040830152600f811015611322578160809160607f8bff456eb52695ca4babf087dfbced7da0eb81279f28380481066de4f2ebd4e1940152a2565b50505050565b6003111561132257565b60ff60008051602061198d8339815191525460401c161561193b57565b631afcd79f60e31b60005260046000fdfe9016d09d72d40fdae2fd8ceac6b6234c7706214fd39c1cd1e609a0528c19930002dd7bc7dec4dceedda775e58dd541e08a116c6c53815c0bd028192f7b626800f0c57e16840df040f15088dc2f81fe391c3923bec73e23a9662efc9c229c6a00237e158222e3e6968b72b9db0d8043aacf074ad9f650f0d1606b4d82ee432c00a2646970667358221220bf4e82c31fecc1d210f9feaf38a9d9b6290effb0161506fef5c8e701889c7de564736f6c634300081c0033",
  "linkReferences": {},
  "deployedLinkReferences": {}
}