{
  "_format": "hh-sol-artifact-1",
  "contractName": "Rounds",
  "sourceName": "contracts/transactions/Rounds.sol",
  "abi": [
    {
      "inputs": [],
      "name": "AccessControlBadConfirmation",
      "type": "error"
    },
    {
      "inputs": [
        {
          "internalType": "address",
          "name": "account",
          "type": "address"
        },
        {
          "internalType": "bytes32",
          "name": "neededRole",
          "type": "bytes32"
        }
      ],
      "name": "AccessControlUnauthorizedAccount",
      "type": "error"
    },
    {
      "inputs": [],
      "name": "CallerNotTransactions",
      "type": "error"
    },
    {
      "inputs": [
        {
          "internalType": "uint256",
          "name": "numValidators",
          "type": "uint256"
        },
        {
          "internalType": "uint256",
          "name": "availableValidators",
          "type": "uint256"
        }
      ],
      "name": "InsufficientActiveValidators",
      "type": "error"
    },
    {
      "inputs": [],
      "name": "InvalidInitialization",
      "type": "error"
    },
    {
      "inputs": [],
      "name": "NotAppealsContract",
      "type": "error"
    },
    {
      "inputs": [],
      "name": "NotInitializing",
      "type": "error"
    },
    {
      "inputs": [
        {
          "internalType": "address",
          "name": "owner",
          "type": "address"
        }
      ],
      "name": "OwnableInvalidOwner",
      "type": "error"
    },
    {
      "inputs": [
        {
          "internalType": "address",
          "name": "account",
          "type": "address"
        }
      ],
      "name": "OwnableUnauthorizedAccount",
      "type": "error"
    },
    {
      "anonymous": false,
      "inputs": [
        {
          "indexed": false,
          "internalType": "uint64",
          "name": "version",
          "type": "uint64"
        }
      ],
      "name": "Initialized",
      "type": "event"
    },
    {
      "anonymous": false,
      "inputs": [
        {
          "indexed": true,
          "internalType": "address",
          "name": "previousOwner",
          "type": "address"
        },
        {
          "indexed": true,
          "internalType": "address",
          "name": "newOwner",
          "type": "address"
        }
      ],
      "name": "OwnershipTransferStarted",
      "type": "event"
    },
    {
      "anonymous": false,
      "inputs": [
        {
          "indexed": true,
          "internalType": "address",
          "name": "previousOwner",
          "type": "address"
        },
        {
          "indexed": true,
          "internalType": "address",
          "name": "newOwner",
          "type": "address"
        }
      ],
      "name": "OwnershipTransferred",
      "type": "event"
    },
    {
      "anonymous": false,
      "inputs": [
        {
          "indexed": true,
          "internalType": "bytes32",
          "name": "role",
          "type": "bytes32"
        },
        {
          "indexed": true,
          "internalType": "bytes32",
          "name": "previousAdminRole",
          "type": "bytes32"
        },
        {
          "indexed": true,
          "internalType": "bytes32",
          "name": "newAdminRole",
          "type": "bytes32"
        }
      ],
      "name": "RoleAdminChanged",
      "type": "event"
    },
    {
      "anonymous": false,
      "inputs": [
        {
          "indexed": true,
          "internalType": "bytes32",
          "name": "role",
          "type": "bytes32"
        },
        {
          "indexed": true,
          "internalType": "address",
          "name": "account",
          "type": "address"
        },
        {
          "indexed": true,
          "internalType": "address",
          "name": "sender",
          "type": "address"
        }
      ],
      "name": "RoleGranted",
      "type": "event"
    },
    {
      "anonymous": false,
      "inputs": [
        {
          "indexed": true,
          "internalType": "bytes32",
          "name": "role",
          "type": "bytes32"
        },
        {
          "indexed": true,
          "internalType": "address",
          "name": "account",
          "type": "address"
        },
        {
          "indexed": true,
          "internalType": "address",
          "name": "sender",
          "type": "address"
        }
      ],
      "name": "RoleRevoked",
      "type": "event"
    },
    {
      "inputs": [],
      "name": "DEFAULT_ADMIN_ROLE",
      "outputs": [
        {
          "internalType": "bytes32",
          "name": "",
          "type": "bytes32"
        }
      ],
      "stateMutability": "view",
      "type": "function"
    },
    {
      "inputs": [],
      "name": "acceptOwnership",
      "outputs": [],
      "stateMutability": "nonpayable",
      "type": "function"
    },
    {
      "inputs": [],
      "name": "appeals",
      "outputs": [
        {
          "internalType": "contract IAppeals",
          "name": "",
          "type": "address"
        }
      ],
      "stateMutability": "view",
      "type": "function"
    },
    {
      "inputs": [
        {
          "components": [
            {
              "internalType": "enum ITransactions.ResultType",
              "name": "result",
              "type": "uint8"
            },
            {
              "internalType": "enum ITransactions.VoteType",
              "name": "txExecutionResult",
              "type": "uint8"
            },
            {
              "internalType": "enum ITransactions.TransactionStatus",
              "name": "previousStatus",
              "type": "uint8"
            },
            {
              "internalType": "enum ITransactions.TransactionStatus",
              "name": "status",
              "type": "uint8"
            },
            {
              "internalType": "address",
              "name": "txOrigin",
              "type": "address"
            },
            {
              "internalType": "address",
              "name": "sender",
              "type": "address"
            },
            {
              "internalType": "address",
              "name": "recipient",
              "type": "address"
            },
            {
              "internalType": "address",
              "name": "activator",
              "type": "address"
            },
            {
              "internalType": "uint256",
              "name": "txSlot",
              "type": "uint256"
            },
            {
              "internalType": "uint256",
              "name": "initialRotations",
              "type": "uint256"
            },
            {
              "internalType": "uint256",
              "name": "numOfInitialValidators",
              "type": "uint256"
            },
            {
              "internalType": "uint256",
              "name": "epoch",
              "type": "uint256"
            },
            {
              "internalType": "bytes32",
              "name": "id",
              "type": "bytes32"
            },
            {
              "internalType": "bytes32",
              "name": "randomSeed",
              "type": "bytes32"
            },
            {
              "internalType": "bytes32",
              "name": "txExecutionHash",
              "type": "bytes32"
            },
            {
              "internalType": "bytes32",
              "name": "resultHash",
              "type": "bytes32"
            },
            {
              "internalType": "bytes",
              "name": "txCalldata",
              "type": "bytes"
            },
            {
              "internalType": "bytes",
              "name": "eqBlocksOutputs",
              "type": "bytes"
            },
            {
              "components": [
                {
                  "internalType": "uint256",
                  "name": "activationBlock",
                  "type": "uint256"
                },
                {
                  "internalType": "uint256",
                  "name": "processingBlock",
                  "type": "uint256"
                },
                {
                  "internalType": "uint256",
                  "name": "proposalBlock",
                  "type": "uint256"
                }
              ],
              "internalType": "struct ITransactions.ReadStateBlockRange[]",
              "name": "readStateBlockRanges",
              "type": "tuple[]"
            },
            {
              "internalType": "uint256",
              "name": "validUntil",
              "type": "uint256"
            },
            {
              "internalType": "uint256",
              "name": "value",
              "type": "uint256"
            },
            {
              "internalType": "uint256",
              "name": "lockedStorageUnitPrice",
              "type": "uint256"
            },
            {
              "internalType": "uint256",
              "name": "storageFeeUsed",
              "type": "uint256"
            }
          ],
          "internalType": "struct ITransactions.Transaction",
          "name": "_tx",
          "type": "tuple"
        }
      ],
      "name": "createFirstRound",
      "outputs": [
        {
          "internalType": "bool",
          "name": "isInvalid",
          "type": "bool"
        },
        {
          "internalType": "address[]",
          "name": "roundValidators",
          "type": "address[]"
        },
        {
          "internalType": "uint256",
          "name": "leaderIndex",
          "type": "uint256"
        }
      ],
      "stateMutability": "nonpayable",
      "type": "function"
    },
    {
      "inputs": [
        {
          "components": [
            {
              "internalType": "enum ITransactions.ResultType",
              "name": "result",
              "type": "uint8"
            },
            {
              "internalType": "enum ITransactions.VoteType",
              "name": "txExecutionResult",
              "type": "uint8"
            },
            {
              "internalType": "enum ITransactions.TransactionStatus",
              "name": "previousStatus",
              "type": "uint8"
            },
            {
              "internalType": "enum ITransactions.TransactionStatus",
              "name": "status",
              "type": "uint8"
            },
            {
              "internalType": "address",
              "name": "txOrigin",
              "type": "address"
            },
            {
              "internalType": "address",
              "name": "sender",
              "type": "address"
            },
            {
              "internalType": "address",
              "name": "recipient",
              "type": "address"
            },
            {
              "internalType": "address",
              "name": "activator",
              "type": "address"
            },
            {
              "internalType": "uint256",
              "name": "txSlot",
              "type": "uint256"
            },
            {
              "internalType": "uint256",
              "name": "initialRotations",
              "type": "uint256"
            },
            {
              "internalType": "uint256",
              "name": "numOfInitialValidators",
              "type": "uint256"
            },
            {
              "internalType": "uint256",
              "name": "epoch",
              "type": "uint256"
            },
            {
              "internalType": "bytes32",
              "name": "id",
              "type": "bytes32"
            },
            {
              "internalType": "bytes32",
              "name": "randomSeed",
              "type": "bytes32"
            },
            {
              "internalType": "bytes32",
              "name": "txExecutionHash",
              "type": "bytes32"
            },
            {
              "internalType": "bytes32",
              "name": "resultHash",
              "type": "bytes32"
            },
            {
              "internalType": "bytes",
              "name": "txCalldata",
              "type": "bytes"
            },
            {
              "internalType": "bytes",
              "name": "eqBlocksOutputs",
              "type": "bytes"
            },
            {
              "components": [
                {
                  "internalType": "uint256",
                  "name": "activationBlock",
                  "type": "uint256"
                },
                {
                  "internalType": "uint256",
                  "name": "processingBlock",
                  "type": "uint256"
                },
                {
                  "internalType": "uint256",
                  "name": "proposalBlock",
                  "type": "uint256"
                }
              ],
              "internalType": "struct ITransactions.ReadStateBlockRange[]",
              "name": "readStateBlockRanges",
              "type": "tuple[]"
            },
            {
              "internalType": "uint256",
              "name": "validUntil",
              "type": "uint256"
            },
            {
              "internalType": "uint256",
              "name": "value",
              "type": "uint256"
            },
            {
              "internalType": "uint256",
              "name": "lockedStorageUnitPrice",
              "type": "uint256"
            },
            {
              "internalType": "uint256",
              "name": "storageFeeUsed",
              "type": "uint256"
            }
          ],
          "internalType": "struct ITransactions.Transaction",
          "name": "_tx",
          "type": "tuple"
        },
        {
          "internalType": "uint256",
          "name": "_appealBond",
          "type": "uint256"
        }
      ],
      "name": "createNewLeaderAppealRound",
      "outputs": [
        {
          "internalType": "address[]",
          "name": "newValidators",
          "type": "address[]"
        },
        {
          "internalType": "uint256",
          "name": "round",
          "type": "uint256"
        },
        {
          "internalType": "address",
          "name": "newLeader",
          "type": "address"
        },
        {
          "internalType": "uint256",
          "name": "leaderIndex",
          "type": "uint256"
        }
      ],
      "stateMutability": "nonpayable",
      "type": "function"
    },
    {
      "inputs": [
        {
          "internalType": "bytes32",
          "name": "_txId",
          "type": "bytes32"
        },
        {
          "internalType": "uint256",
          "name": "_appealBond",
          "type": "uint256"
        }
      ],
      "name": "createNewLeaderTimeoutAppealRound",
      "outputs": [
        {
          "internalType": "address[]",
          "name": "appealValidators",
          "type": "address[]"
        },
        {
          "internalType": "uint256",
          "name": "round",
          "type": "uint256"
        },
        {
          "internalType": "address",
          "name": "newLeader",
          "type": "address"
        },
        {
          "internalType": "uint256",
          "name": "leaderIndex",
          "type": "uint256"
        }
      ],
      "stateMutability": "nonpayable",
      "type": "function"
    },
    {
      "inputs": [
        {
          "components": [
            {
              "internalType": "enum ITransactions.ResultType",
              "name": "result",
              "type": "uint8"
            },
            {
              "internalType": "enum ITransactions.VoteType",
              "name": "txExecutionResult",
              "type": "uint8"
            },
            {
              "internalType": "enum ITransactions.TransactionStatus",
              "name": "previousStatus",
              "type": "uint8"
            },
            {
              "internalType": "enum ITransactions.TransactionStatus",
              "name": "status",
              "type": "uint8"
            },
            {
              "internalType": "address",
              "name": "txOrigin",
              "type": "address"
            },
            {
              "internalType": "address",
              "name": "sender",
              "type": "address"
            },
            {
              "internalType": "address",
              "name": "recipient",
              "type": "address"
            },
            {
              "internalType": "address",
              "name": "activator",
              "type": "address"
            },
            {
              "internalType": "uint256",
              "name": "txSlot",
              "type": "uint256"
            },
            {
              "internalType": "uint256",
              "name": "initialRotations",
              "type": "uint256"
            },
            {
              "internalType": "uint256",
              "name": "numOfInitialValidators",
              "type": "uint256"
            },
            {
              "internalType": "uint256",
              "name": "epoch",
              "type": "uint256"
            },
            {
              "internalType": "bytes32",
              "name": "id",
              "type": "bytes32"
            },
            {
              "internalType": "bytes32",
              "name": "randomSeed",
              "type": "bytes32"
            },
            {
              "internalType": "bytes32",
              "name": "txExecutionHash",
              "type": "bytes32"
            },
            {
              "internalType": "bytes32",
              "name": "resultHash",
              "type": "bytes32"
            },
            {
              "internalType": "bytes",
              "name": "txCalldata",
              "type": "bytes"
            },
            {
              "internalType": "bytes",
              "name": "eqBlocksOutputs",
              "type": "bytes"
            },
            {
              "components": [
                {
                  "internalType": "uint256",
                  "name": "activationBlock",
                  "type": "uint256"
                },
                {
                  "internalType": "uint256",
                  "name": "processingBlock",
                  "type": "uint256"
                },
                {
                  "internalType": "uint256",
                  "name": "proposalBlock",
                  "type": "uint256"
                }
              ],
              "internalType": "struct ITransactions.ReadStateBlockRange[]",
              "name": "readStateBlockRanges",
              "type": "tuple[]"
            },
            {
              "internalType": "uint256",
              "name": "validUntil",
              "type": "uint256"
            },
            {
              "internalType": "uint256",
              "name": "value",
              "type": "uint256"
            },
            {
              "internalType": "uint256",
              "name": "lockedStorageUnitPrice",
              "type": "uint256"
            },
            {
              "internalType": "uint256",
              "name": "storageFeeUsed",
              "type": "uint256"
            }
          ],
          "internalType": "struct ITransactions.Transaction",
          "name": "_tx",
          "type": "tuple"
        },
        {
          "internalType": "uint256",
          "name": "_appealBond",
          "type": "uint256"
        }
      ],
      "name": "createNewValidatorAppealRound",
      "outputs": [
        {
          "internalType": "address[]",
          "name": "appealValidators",
          "type": "address[]"
        },
        {
          "internalType": "uint256",
          "name": "round",
          "type": "uint256"
        },
        {
          "internalType": "uint256",
          "name": "leaderIndex",
          "type": "uint256"
        }
      ],
      "stateMutability": "nonpayable",
      "type": "function"
    },
    {
      "inputs": [
        {
          "internalType": "bytes32",
          "name": "_txId",
          "type": "bytes32"
        }
      ],
      "name": "decrementRotationsLeft",
      "outputs": [],
      "stateMutability": "nonpayable",
      "type": "function"
    },
    {
      "inputs": [],
      "name": "feeManager",
      "outputs": [
        {
          "internalType": "contract IFeeManager",
          "name": "",
          "type": "address"
        }
      ],
      "stateMutability": "view",
      "type": "function"
    },
    {
      "inputs": [
        {
          "internalType": "bytes32",
          "name": "_txId",
          "type": "bytes32"
        }
      ],
      "name": "getLastRoundData",
      "outputs": [
        {
          "internalType": "uint256",
          "name": "",
          "type": "uint256"
        },
        {
          "components": [
            {
              "internalType": "uint256",
              "name": "round",
              "type": "uint256"
            },
            {
              "internalType": "uint256",
              "name": "leaderIndex",
              "type": "uint256"
            },
            {
              "internalType": "uint256",
              "name": "votesCommitted",
              "type": "uint256"
            },
            {
              "internalType": "uint256",
              "name": "votesRevealed",
              "type": "uint256"
            },
            {
              "internalType": "uint256",
              "name": "appealBond",
              "type": "uint256"
            },
            {
              "internalType": "uint256",
              "name": "rotationsLeft",
              "type": "uint256"
            },
            {
              "internalType": "enum ITransactions.ResultType",
              "name": "result",
              "type": "uint8"
            },
            {
              "internalType": "address[]",
              "name": "roundValidators",
              "type": "address[]"
            },
            {
              "internalType": "enum ITransactions.VoteType[]",
              "name": "validatorVotes",
              "type": "uint8[]"
            },
            {
              "internalType": "bytes32[]",
              "name": "validatorVotesHash",
              "type": "bytes32[]"
            },
            {
              "internalType": "bytes32[]",
              "name": "validatorResultHash",
              "type": "bytes32[]"
            }
          ],
          "internalType": "struct ITransactions.RoundData",
          "name": "",
          "type": "tuple"
        }
      ],
      "stateMutability": "view",
      "type": "function"
    },
    {
      "inputs": [
        {
          "components": [
            {
              "internalType": "enum ITransactions.ResultType",
              "name": "result",
              "type": "uint8"
            },
            {
              "internalType": "enum ITransactions.VoteType",
              "name": "txExecutionResult",
              "type": "uint8"
            },
            {
              "internalType": "enum ITransactions.TransactionStatus",
              "name": "previousStatus",
              "type": "uint8"
            },
            {
              "internalType": "enum ITransactions.TransactionStatus",
              "name": "status",
              "type": "uint8"
            },
            {
              "internalType": "address",
              "name": "txOrigin",
              "type": "address"
            },
            {
              "internalType": "address",
              "name": "sender",
              "type": "address"
            },
            {
              "internalType": "address",
              "name": "recipient",
              "type": "address"
            },
            {
              "internalType": "address",
              "name": "activator",
              "type": "address"
            },
            {
              "internalType": "uint256",
              "name": "txSlot",
              "type": "uint256"
            },
            {
              "internalType": "uint256",
              "name": "initialRotations",
              "type": "uint256"
            },
            {
              "internalType": "uint256",
              "name": "numOfInitialValidators",
              "type": "uint256"
            },
            {
              "internalType": "uint256",
              "name": "epoch",
              "type": "uint256"
            },
            {
              "internalType": "bytes32",
              "name": "id",
              "type": "bytes32"
            },
            {
              "internalType": "bytes32",
              "name": "randomSeed",
              "type": "bytes32"
            },
            {
              "internalType": "bytes32",
              "name": "txExecutionHash",
              "type": "bytes32"
            },
            {
              "internalType": "bytes32",
              "name": "resultHash",
              "type": "bytes32"
            },
            {
              "internalType": "bytes",
              "name": "txCalldata",
              "type": "bytes"
            },
            {
              "internalType": "bytes",
              "name": "eqBlocksOutputs",
              "type": "bytes"
            },
            {
              "components": [
                {
                  "internalType": "uint256",
                  "name": "activationBlock",
                  "type": "uint256"
                },
                {
                  "internalType": "uint256",
                  "name": "processingBlock",
                  "type": "uint256"
                },
                {
                  "internalType": "uint256",
                  "name": "proposalBlock",
                  "type": "uint256"
                }
              ],
              "internalType": "struct ITransactions.ReadStateBlockRange[]",
              "name": "readStateBlockRanges",
              "type": "tuple[]"
            },
            {
              "internalType": "uint256",
              "name": "validUntil",
              "type": "uint256"
            },
            {
              "internalType": "uint256",
              "name": "value",
              "type": "uint256"
            },
            {
              "internalType": "uint256",
              "name": "lockedStorageUnitPrice",
              "type": "uint256"
            },
            {
              "internalType": "uint256",
              "name": "storageFeeUsed",
              "type": "uint256"
            }
          ],
          "internalType": "struct ITransactions.Transaction",
          "name": "_tx",
          "type": "tuple"
        },
        {
          "internalType": "bool",
          "name": "_isTxHanging",
          "type": "bool"
        }
      ],
      "name": "getMajorityVoteAndSetResult",
      "outputs": [
        {
          "internalType": "enum ITransactions.ResultType",
          "name": "majorVoted",
          "type": "uint8"
        },
        {
          "internalType": "bool",
          "name": "leaderRotated",
          "type": "bool"
        },
        {
          "internalType": "bool",
          "name": "tribunalAppeal",
          "type": "bool"
        },
        {
          "internalType": "enum ITransactions.TransactionStatus",
          "name": "newStatus",
          "type": "uint8"
        },
        {
          "components": [
            {
              "internalType": "uint256",
              "name": "round",
              "type": "uint256"
            },
            {
              "internalType": "uint256",
              "name": "leaderIndex",
              "type": "uint256"
            },
            {
              "internalType": "uint256",
              "name": "votesCommitted",
              "type": "uint256"
            },
            {
              "internalType": "uint256",
              "name": "votesRevealed",
              "type": "uint256"
            },
            {
              "internalType": "uint256",
              "name": "appealBond",
              "type": "uint256"
            },
            {
              "internalType": "uint256",
              "name": "rotationsLeft",
              "type": "uint256"
            },
            {
              "internalType": "enum ITransactions.ResultType",
              "name": "result",
              "type": "uint8"
            },
            {
              "internalType": "address[]",
              "name": "roundValidators",
              "type": "address[]"
            },
            {
              "internalType": "enum ITransactions.VoteType[]",
              "name": "validatorVotes",
              "type": "uint8[]"
            },
            {
              "internalType": "bytes32[]",
              "name": "validatorVotesHash",
              "type": "bytes32[]"
            },
            {
              "internalType": "bytes32[]",
              "name": "validatorResultHash",
              "type": "bytes32[]"
            }
          ],
          "internalType": "struct ITransactions.RoundData",
          "name": "newRoundData",
          "type": "tuple"
        },
        {
          "components": [
            {
              "internalType": "address",
              "name": "slashedLeader",
              "type": "address"
            },
            {
              "internalType": "bytes32",
              "name": "leaderResultHash",
              "type": "bytes32"
            }
          ],
          "internalType": "struct ITransactions.TribunalAppealData",
          "name": "tribunalAppealData",
          "type": "tuple"
        }
      ],
      "stateMutability": "nonpayable",
      "type": "function"
    },
    {
      "inputs": [
        {
          "internalType": "bytes32",
          "name": "role",
          "type": "bytes32"
        }
      ],
      "name": "getRoleAdmin",
      "outputs": [
        {
          "internalType": "bytes32",
          "name": "",
          "type": "bytes32"
        }
      ],
      "stateMutability": "view",
      "type": "function"
    },
    {
      "inputs": [
        {
          "internalType": "bytes32",
          "name": "_txId",
          "type": "bytes32"
        }
      ],
      "name": "getRotationsLeft",
      "outputs": [
        {
          "internalType": "uint256",
          "name": "",
          "type": "uint256"
        }
      ],
      "stateMutability": "view",
      "type": "function"
    },
    {
      "inputs": [
        {
          "internalType": "bytes32",
          "name": "_txId",
          "type": "bytes32"
        },
        {
          "internalType": "uint256",
          "name": "_round",
          "type": "uint256"
        }
      ],
      "name": "getRoundData",
      "outputs": [
        {
          "components": [
            {
              "internalType": "uint256",
              "name": "round",
              "type": "uint256"
            },
            {
              "internalType": "uint256",
              "name": "leaderIndex",
              "type": "uint256"
            },
            {
              "internalType": "uint256",
              "name": "votesCommitted",
              "type": "uint256"
            },
            {
              "internalType": "uint256",
              "name": "votesRevealed",
              "type": "uint256"
            },
            {
              "internalType": "uint256",
              "name": "appealBond",
              "type": "uint256"
            },
            {
              "internalType": "uint256",
              "name": "rotationsLeft",
              "type": "uint256"
            },
            {
              "internalType": "enum ITransactions.ResultType",
              "name": "result",
              "type": "uint8"
            },
            {
              "internalType": "address[]",
              "name": "roundValidators",
              "type": "address[]"
            },
            {
              "internalType": "enum ITransactions.VoteType[]",
              "name": "validatorVotes",
              "type": "uint8[]"
            },
            {
              "internalType": "bytes32[]",
              "name": "validatorVotesHash",
              "type": "bytes32[]"
            },
            {
              "internalType": "bytes32[]",
              "name": "validatorResultHash",
              "type": "bytes32[]"
            }
          ],
          "internalType": "struct ITransactions.RoundData",
          "name": "",
          "type": "tuple"
        }
      ],
      "stateMutability": "view",
      "type": "function"
    },
    {
      "inputs": [
        {
          "internalType": "bytes32",
          "name": "_txId",
          "type": "bytes32"
        }
      ],
      "name": "getRoundNumber",
      "outputs": [
        {
          "internalType": "uint256",
          "name": "",
          "type": "uint256"
        }
      ],
      "stateMutability": "view",
      "type": "function"
    },
    {
      "inputs": [
        {
          "internalType": "bytes32",
          "name": "role",
          "type": "bytes32"
        },
        {
          "internalType": "address",
          "name": "account",
          "type": "address"
        }
      ],
      "name": "grantRole",
      "outputs": [],
      "stateMutability": "nonpayable",
      "type": "function"
    },
    {
      "inputs": [
        {
          "internalType": "bytes32",
          "name": "role",
          "type": "bytes32"
        },
        {
          "internalType": "address",
          "name": "account",
          "type": "address"
        }
      ],
      "name": "hasRole",
      "outputs": [
        {
          "internalType": "bool",
          "name": "",
          "type": "bool"
        }
      ],
      "stateMutability": "view",
      "type": "function"
    },
    {
      "inputs": [],
      "name": "idleness",
      "outputs": [
        {
          "internalType": "contract IIdleness",
          "name": "",
          "type": "address"
        }
      ],
      "stateMutability": "view",
      "type": "function"
    },
    {
      "inputs": [
        {
          "internalType": "address",
          "name": "_staking",
          "type": "address"
        },
        {
          "internalType": "address",
          "name": "_feeManager",
          "type": "address"
        },
        {
          "internalType": "address",
          "name": "_appeals",
          "type": "address"
        },
        {
          "internalType": "address",
          "name": "_transactions",
          "type": "address"
        },
        {
          "internalType": "address",
          "name": "_idleness",
          "type": "address"
        }
      ],
      "name": "initialize",
      "outputs": [],
      "stateMutability": "nonpayable",
      "type": "function"
    },
    {
      "inputs": [],
      "name": "owner",
      "outputs": [
        {
          "internalType": "address",
          "name": "",
          "type": "address"
        }
      ],
      "stateMutability": "view",
      "type": "function"
    },
    {
      "inputs": [],
      "name": "pendingOwner",
      "outputs": [
        {
          "internalType": "address",
          "name": "",
          "type": "address"
        }
      ],
      "stateMutability": "view",
      "type": "function"
    },
    {
      "inputs": [],
      "name": "renounceOwnership",
      "outputs": [],
      "stateMutability": "nonpayable",
      "type": "function"
    },
    {
      "inputs": [
        {
          "internalType": "bytes32",
          "name": "role",
          "type": "bytes32"
        },
        {
          "internalType": "address",
          "name": "callerConfirmation",
          "type": "address"
        }
      ],
      "name": "renounceRole",
      "outputs": [],
      "stateMutability": "nonpayable",
      "type": "function"
    },
    {
      "inputs": [
        {
          "internalType": "bytes32",
          "name": "role",
          "type": "bytes32"
        },
        {
          "internalType": "address",
          "name": "account",
          "type": "address"
        }
      ],
      "name": "revokeRole",
      "outputs": [],
      "stateMutability": "nonpayable",
      "type": "function"
    },
    {
      "inputs": [
        {
          "internalType": "address",
          "name": "_staking",
          "type": "address"
        },
        {
          "internalType": "address",
          "name": "_feeManager",
          "type": "address"
        },
        {
          "internalType": "address",
          "name": "_appeals",
          "type": "address"
        },
        {
          "internalType": "address",
          "name": "_idleness",
          "type": "address"
        }
      ],
      "name": "setContracts",
      "outputs": [],
      "stateMutability": "nonpayable",
      "type": "function"
    },
    {
      "inputs": [],
      "name": "staking",
      "outputs": [
        {
          "internalType": "contract IGenLayerStaking",
          "name": "",
          "type": "address"
        }
      ],
      "stateMutability": "view",
      "type": "function"
    },
    {
      "inputs": [
        {
          "internalType": "bytes4",
          "name": "interfaceId",
          "type": "bytes4"
        }
      ],
      "name": "supportsInterface",
      "outputs": [
        {
          "internalType": "bool",
          "name": "",
          "type": "bool"
        }
      ],
      "stateMutability": "view",
      "type": "function"
    },
    {
      "inputs": [],
      "name": "transactions",
      "outputs": [
        {
          "internalType": "contract ITransactions",
          "name": "",
          "type": "address"
        }
      ],
      "stateMutability": "view",
      "type": "function"
    },
    {
      "inputs": [
        {
          "internalType": "address",
          "name": "newOwner",
          "type": "address"
        }
      ],
      "name": "transferOwnership",
      "outputs": [],
      "stateMutability": "nonpayable",
      "type": "function"
    },
    {
      "inputs": [
        {
          "internalType": "bytes32",
          "name": "",
          "type": "bytes32"
        }
      ],
      "name": "txRound",
      "outputs": [
        {
          "internalType": "uint256",
          "name": "",
          "type": "uint256"
        }
      ],
      "stateMutability": "view",
      "type": "function"
    },
    {
      "inputs": [
        {
          "internalType": "bytes32",
          "name": "",
          "type": "bytes32"
        },
        {
          "internalType": "uint256",
          "name": "",
          "type": "uint256"
        }
      ],
      "name": "txRoundData",
      "outputs": [
        {
          "internalType": "uint256",
          "name": "round",
          "type": "uint256"
        },
        {
          "internalType": "uint256",
          "name": "leaderIndex",
          "type": "uint256"
        },
        {
          "internalType": "uint256",
          "name": "votesCommitted",
          "type": "uint256"
        },
        {
          "internalType": "uint256",
          "name": "votesRevealed",
          "type": "uint256"
        },
        {
          "internalType": "uint256",
          "name": "appealBond",
          "type": "uint256"
        },
        {
          "internalType": "uint256",
          "name": "rotationsLeft",
          "type": "uint256"
        },
        {
          "internalType": "enum ITransactions.ResultType",
          "name": "result",
          "type": "uint8"
        }
      ],
      "stateMutability": "view",
      "type": "function"
    },
    {
      "inputs": [
        {
          "internalType": "bytes32",
          "name": "_txId",
          "type": "bytes32"
        },
        {
          "internalType": "uint256",
          "name": "_round",
          "type": "uint256"
        },
        {
          "internalType": "address",
          "name": "_validator",
          "type": "address"
        },
        {
          "internalType": "bytes32",
          "name": "_commitHash",
          "type": "bytes32"
        },
        {
          "internalType": "uint256",
          "name": "_validatorIndex",
          "type": "uint256"
        },
        {
          "components": [
            {
              "internalType": "uint256",
              "name": "round",
              "type": "uint256"
            },
            {
              "internalType": "uint256",
              "name": "leaderIndex",
              "type": "uint256"
            },
            {
              "internalType": "uint256",
              "name": "votesCommitted",
              "type": "uint256"
            },
            {
              "internalType": "uint256",
              "name": "votesRevealed",
              "type": "uint256"
            },
            {
              "internalType": "uint256",
              "name": "appealBond",
              "type": "uint256"
            },
            {
              "internalType": "uint256",
              "name": "rotationsLeft",
              "type": "uint256"
            },
            {
              "internalType": "enum ITransactions.ResultType",
              "name": "result",
              "type": "uint8"
            },
            {
              "internalType": "address[]",
              "name": "roundValidators",
              "type": "address[]"
            },
            {
              "internalType": "enum ITransactions.VoteType[]",
              "name": "validatorVotes",
              "type": "uint8[]"
            },
            {
              "internalType": "bytes32[]",
              "name": "validatorVotesHash",
              "type": "bytes32[]"
            },
            {
              "internalType": "bytes32[]",
              "name": "validatorResultHash",
              "type": "bytes32[]"
            }
          ],
          "internalType": "struct ITransactions.RoundData",
          "name": "_roundData",
          "type": "tuple"
        }
      ],
      "name": "updateCommitVote",
      "outputs": [],
      "stateMutability": "nonpayable",
      "type": "function"
    },
    {
      "inputs": [
        {
          "internalType": "bytes32",
          "name": "_txId",
          "type": "bytes32"
        },
        {
          "internalType": "uint256",
          "name": "_round",
          "type": "uint256"
        },
        {
          "internalType": "address",
          "name": "_newLeader",
          "type": "address"
        },
        {
          "internalType": "uint256",
          "name": "_leaderIndex",
          "type": "uint256"
        },
        {
          "internalType": "bool",
          "name": "_resetVotes",
          "type": "bool"
        }
      ],
      "name": "updateLeaderAndResetVotes",
      "outputs": [],
      "stateMutability": "nonpayable",
      "type": "function"
    },
    {
      "inputs": [
        {
          "components": [
            {
              "internalType": "enum ITransactions.ResultType",
              "name": "result",
              "type": "uint8"
            },
            {
              "internalType": "enum ITransactions.VoteType",
              "name": "txExecutionResult",
              "type": "uint8"
            },
            {
              "internalType": "enum ITransactions.TransactionStatus",
              "name": "previousStatus",
              "type": "uint8"
            },
            {
              "internalType": "enum ITransactions.TransactionStatus",
              "name": "status",
              "type": "uint8"
            },
            {
              "internalType": "address",
              "name": "txOrigin",
              "type": "address"
            },
            {
              "internalType": "address",
              "name": "sender",
              "type": "address"
            },
            {
              "internalType": "address",
              "name": "recipient",
              "type": "address"
            },
            {
              "internalType": "address",
              "name": "activator",
              "type": "address"
            },
            {
              "internalType": "uint256",
              "name": "txSlot",
              "type": "uint256"
            },
            {
              "internalType": "uint256",
              "name": "initialRotations",
              "type": "uint256"
            },
            {
              "internalType": "uint256",
              "name": "numOfInitialValidators",
              "type": "uint256"
            },
            {
              "internalType": "uint256",
              "name": "epoch",
              "type": "uint256"
            },
            {
              "internalType": "bytes32",
              "name": "id",
              "type": "bytes32"
            },
            {
              "internalType": "bytes32",
              "name": "randomSeed",
              "type": "bytes32"
            },
            {
              "internalType": "bytes32",
              "name": "txExecutionHash",
              "type": "bytes32"
            },
            {
              "internalType": "bytes32",
              "name": "resultHash",
              "type": "bytes32"
            },
            {
              "internalType": "bytes",
              "name": "txCalldata",
              "type": "bytes"
            },
            {
              "internalType": "bytes",
              "name": "eqBlocksOutputs",
              "type": "bytes"
            },
            {
              "components": [
                {
                  "internalType": "uint256",
                  "name": "activationBlock",
                  "type": "uint256"
                },
                {
                  "internalType": "uint256",
                  "name": "processingBlock",
                  "type": "uint256"
                },
                {
                  "internalType": "uint256",
                  "name": "proposalBlock",
                  "type": "uint256"
                }
              ],
              "internalType": "struct ITransactions.ReadStateBlockRange[]",
              "name": "readStateBlockRanges",
              "type": "tuple[]"
            },
            {
              "internalType": "uint256",
              "name": "validUntil",
              "type": "uint256"
            },
            {
              "internalType": "uint256",
              "name": "value",
              "type": "uint256"
            },
            {
              "internalType": "uint256",
              "name": "lockedStorageUnitPrice",
              "type": "uint256"
            },
            {
              "internalType": "uint256",
              "name": "storageFeeUsed",
              "type": "uint256"
            }
          ],
          "internalType": "struct ITransactions.Transaction",
          "name": "_tx",
          "type": "tuple"
        },
        {
          "internalType": "uint256",
          "name": "_round",
          "type": "uint256"
        },
        {
          "internalType": "uint256",
          "name": "_validatorIndex",
          "type": "uint256"
        },
        {
          "internalType": "bytes32",
          "name": "_resultVoteHash",
          "type": "bytes32"
        },
        {
          "internalType": "address",
          "name": "_votingContract",
          "type": "address"
        },
        {
          "internalType": "enum ITransactions.VoteType",
          "name": "_voteType",
          "type": "uint8"
        }
      ],
      "name": "updateRevealVote",
      "outputs": [
        {
          "internalType": "enum ITransactions.ResultType",
          "name": "majorVoted",
          "type": "uint8"
        },
        {
          "internalType": "bool",
          "name": "isLastVote",
          "type": "bool"
        },
        {
          "internalType": "bool",
          "name": "leaderRotated",
          "type": "bool"
        },
        {
          "internalType": "bool",
          "name": "tribunalAppeal",
          "type": "bool"
        },
        {
          "internalType": "enum ITransactions.TransactionStatus",
          "name": "newStatus",
          "type": "uint8"
        },
        {
          "components": [
            {
              "internalType": "uint256",
              "name": "round",
              "type": "uint256"
            },
            {
              "internalType": "uint256",
              "name": "leaderIndex",
              "type": "uint256"
            },
            {
              "internalType": "uint256",
              "name": "votesCommitted",
              "type": "uint256"
            },
            {
              "internalType": "uint256",
              "name": "votesRevealed",
              "type": "uint256"
            },
            {
              "internalType": "uint256",
              "name": "appealBond",
              "type": "uint256"
            },
            {
              "internalType": "uint256",
              "name": "rotationsLeft",
              "type": "uint256"
            },
            {
              "internalType": "enum ITransactions.ResultType",
              "name": "result",
              "type": "uint8"
            },
            {
              "internalType": "address[]",
              "name": "roundValidators",
              "type": "address[]"
            },
            {
              "internalType": "enum ITransactions.VoteType[]",
              "name": "validatorVotes",
              "type": "uint8[]"
            },
            {
              "internalType": "bytes32[]",
              "name": "validatorVotesHash",
              "type": "bytes32[]"
            },
            {
              "internalType": "bytes32[]",
              "name": "validatorResultHash",
              "type": "bytes32[]"
            }
          ],
          "internalType": "struct ITransactions.RoundData",
          "name": "newRoundData",
          "type": "tuple"
        },
        {
          "components": [
            {
              "internalType": "address",
              "name": "slashedLeader",
              "type": "address"
            },
            {
              "internalType": "bytes32",
              "name": "leaderResultHash",
              "type": "bytes32"
            }
          ],
          "internalType": "struct ITransactions.TribunalAppealData",
          "name": "tribunalAppealData",
          "type": "tuple"
        }
      ],
      "stateMutability": "nonpayable",
      "type": "function"
    },
    {
      "inputs": [
        {
          "internalType": "bytes32",
          "name": "_txId",
          "type": "bytes32"
        },
        {
          "internalType": "uint256",
          "name": "_round",
          "type": "uint256"
        },
        {
          "components": [
            {
              "internalType": "uint256",
              "name": "round",
              "type": "uint256"
            },
            {
              "internalType": "uint256",
              "name": "leaderIndex",
              "type": "uint256"
            },
            {
              "internalType": "uint256",
              "name": "votesCommitted",
              "type": "uint256"
            },
            {
              "internalType": "uint256",
              "name": "votesRevealed",
              "type": "uint256"
            },
            {
              "internalType": "uint256",
              "name": "appealBond",
              "type": "uint256"
            },
            {
              "internalType": "uint256",
              "name": "rotationsLeft",
              "type": "uint256"
            },
            {
              "internalType": "enum ITransactions.ResultType",
              "name": "result",
              "type": "uint8"
            },
            {
              "internalType": "address[]",
              "name": "roundValidators",
              "type": "address[]"
            },
            {
              "internalType": "enum ITransactions.VoteType[]",
              "name": "validatorVotes",
              "type": "uint8[]"
            },
            {
              "internalType": "bytes32[]",
              "name": "validatorVotesHash",
              "type": "bytes32[]"
            },
            {
              "internalType": "bytes32[]",
              "name": "validatorResultHash",
              "type": "bytes32[]"
            }
          ],
          "internalType": "struct ITransactions.RoundData",
          "name": "_roundData",
          "type": "tuple"
        }
      ],
      "name": "updateRoundData",
      "outputs": [],
      "stateMutability": "nonpayable",
      "type": "function"
    }
  ],
  "bytecode": "0x608080604052346015576165ea908161001b8239f35b600080fdfe608080604052600436101561001357600080fd5b600090813560e01c90816301ffc9a7146132f2575080631459457a146130fb57806318015191146130d257806321495aa7146130a9578063248a9ca3146130825780632f2ff15d1461305057806332aa8e6a14612d9a57806336568abe14612d555780634cf088d914612d2c578063515d441114612d035780635af5446914612cb7578063715018a614612c3657806371fc63111461285257806379ba50971461280157806384c248311461279157806388587513146123095780638da5cb5b146122d357806391d148541461227a578063998f979914611e3e578063a12c6af714611c76578063a217fddf14611c5a578063a6cd198d14611237578063ba15d6351461120d578063bf989b6e14611181578063c3da8bd114611106578063c528147814610d08578063d0fb020314610ce1578063d547741f14610ca6578063d7360c9a14610c0b578063e30c397814610bd5578063e6cc3970146102c4578063f2fde38b1461023c578063f40e537e1461020d578063f66530b9146101ce5763f82d3553146101a257600080fd5b346101cb5760203660031901126101cb5760406020916004358152600583522054604051908152f35b80fd5b50346101cb5760203660031901126101cb5760056040602092600435808252600685528282209082528385528282205482528452200154604051908152f35b50346101cb5761023861022861022236613aae565b90614916565b9060409492945194859485613b1c565b0390f35b50346101cb5760203660031901126101cb57610256613347565b61025e61508b565b60008051602061659583398151915280546001600160a01b0319166001600160a01b03928316908117909155600080516020616535833981519152549091167f38d16b8cac22d99fc7c124b9cd0de2d3fa1faef420bfe791d8c362d765e227008380a380f35b50346101cb5760c03660031901126101cb576004356001600160401b038111610bd1576102f5903690600401613862565b9060243590604435906103066133a4565b9060a4359060058210156101cb5761031c613cbf565b926040519661032a88613400565b600080895260208901526002546001600160a01b031633141580610bbc575b610bad57829683809581979a9861018085015191828452600660205260408420858552602052600860408520018054831015610b9957906103ce929185526103ae602086208360051c0191601f841683549060ff809160031b9316831b921b19161790565b9055828452600660205260408420858552602052600a6040852001614618565b81549060031b90606435821b91600019901b19161790558082526006602052604082208383526020526003604083200161040881546145bc565b809155818352600660205260408320848452602052600760408420015414948561049a575b5061044d8a8a61023861047d8f61046a8e8e8e8e6040519a8b809b613691565b60208a015215156040890152151560608801526080870190613b4f565b61010060a08601526101008501906136f5565b82516001600160a01b031660c085015260209092015160e0840152565b94975095509650965096506104d5915082855260066020526040852086865260205260408520906104d06101e089015192613db6565b61548d565b938184526006602052604084208185526020526104f88560066040872001613b7d565b8391849060405161050881613400565b600081526000602082015261051b613cbf565b9260408a0151600f811015610746576001861661075a57508760068a10156107465760048a036106fb5750505060019581815260066020526040812084825260205260016040822001548282526006602052604082208583526020526105b861058a8260076040862001614618565b60018060a01b0391549060031b1c1691848452600660205260408420878552602052600a6040852001614618565b90549060031b1c604051916105cc83613400565b82526020820152986006948383528560205260408320818452602052600560408420015415155b610621575b505050506102389361047d9361044d989361046a935b949791909681959a83975084955061042d565b909194508295935061063561063b9361512f565b91615c87565b80519093919290156106de5750600454600194600294916001600160a01b031690813b156106da579183916106879383604051809681958294635537b6d160e01b845260048401614601565b03925af180156106cf576106ba575b50506102389361047d9361044d989361046a935b9381959a508397508296506105f8565b6106c5828092613437565b6101cb5780610696565b6040513d84823e3d90fd5b8380fd5b61047d945061044d98935061023895915061046a926006906106aa565b91999097919460018a03610711576005956105f3565b60038a0361072157600c956105f3565b94506006948383528560205260408320818452602052600560408420015415156105f3565b634e487b7160e01b89526021600452602489fd5b93998893929796959198506005851480610b86575b8015610b54575b15610796575050505061047d92610238949261044d9861046a939061060e565b916107a691939a5080945061512f565b5060018201809211610b4057816107bc91615793565b92909189839460018060a01b0360045416803b15610b3c57604051635537b6d160e01b815291839183918290849082906107fa908b60048401614601565b03925af180156106cf57610b23575b505060e083019182515115600014610839575050505061044d965061047d92610238949261046a9260069061060e565b808b52600560205260408b2061084f81546145bc565b90558a52600660205260408a20908a526020526040892090825182556020830151600183015560408301516002830155606083015160038301556080830151600483015560a0830151600583015560c08301516006811015610b0f576108b89060068401613b7d565b5180519060078301906001600160401b038311610a15576020906108dc8484613bac565b01908b5260208b208b5b838110610af2575050505060088101610100830151908151916001600160401b038311610a155760209061091a8484613be2565b01908b5260208b208260051c918c5b838110610a8f5750601f1984169093039283610a29575b5050505060098101610120830151908151916001600160401b038311610a155760209061096d8484613c7c565b01908b5260208b208b5b838110610a015750505050600a6101409101910151908151916001600160401b0383116109ed576020906109ab8484613c7c565b0190895260208920985b8281106109d95750505061044d965061047d92610238949261046a9260029061060e565b60019060208351930192818c0155016109b5565b634e487b7160e01b8a52604160045260248afd5b600190602084519401938184015501610977565b634e487b7160e01b8c52604160045260248cfd5b8c938d905b808210610a4357505050015538808080610940565b9091948551906005821015610a7a57610a70600192856020939060ff809160031b9316831b921b19161790565b9601920190610a2e565b50634e487b7160e01b8f52602160045260248ffd5b8d805b60208110610aa7575083820155600101610929565b92908151906005821015610adc57610ad3600192866020939060ff809160031b9316831b921b19161790565b92019301610a92565b5050634e487b7160e01b8f52602160045260248ffd5b82516001600160a01b0316818301556020909201916001016108e6565b634e487b7160e01b8b52602160045260248bfd5b81610b2d91613437565b610b38578938610809565b8980fd5b8280fd5b634e487b7160e01b89526011600452602489fd5b50600c85148015610776575060068a1015610b725760038a14610776565b634e487b7160e01b84526021600452602484fd5b5060068a1015610b725760018a1461076f565b634e487b7160e01b85526032600452602485fd5b6315c9368f60e31b8352600483fd5b506003546001600160a01b0316331415610349565b5080fd5b50346101cb57806003193601126101cb57600080516020616595833981519152546040516001600160a01b039091168152602090f35b50346101cb5760203660031901126101cb5760043560018060a01b036002541633141580610c91575b610c82578082526006602052604082209082526005602052604082205482526020526005604082200180548015610c6e5760001901905580f35b634e487b7160e01b83526011600452602483fd5b6315c9368f60e31b8252600482fd5b506003546001600160a01b0316331415610c34565b50346101cb5760403660031901126101cb57610cdd600435610cc6613362565b90610cd8610cd382613b5c565b614ef8565b614feb565b5080f35b50346101cb57806003193601126101cb57546040516001600160a01b039091168152602090f35b50346101cb5760203660031901126101cb576004356001600160401b038111610bd157610d39903690600401613862565b6002546001600160a01b0316331415806110f1575b610c8257606091806101808301518082526005602052610d8d604083205494610d75613cbf565b50610d7f8361512f565b90866101208201519161518a565b939193159586610dc2575b878787610db8604051938493158452606060208501526060840190613adf565b9060408301520390f35b918094975083955092909252600660205260408320908352602052604082208551815560208601958651600183015560408101516002830155606081015160038301556080810151600483015560a0810151600583015560c081015160068110156110dd57610e349060068401613b7d565b600782019160e08201928351908151916001600160401b038311610fe657602090610e5f8484613bac565b0190875260208720875b8381106110c0575050505060088101610100830151908151916001600160401b038311610fe657602090610e9d8484613be2565b01908752602087208260051c91885b83811061105f5750601f1984169093039283610ffa575b5050505060098101610120830151908151916001600160401b038311610fe657602090610ef08484613c7c565b0190875260208720875b838110610fd25750505050600a6101409101910151908151916001600160401b038311610fbe57602090610f2e8484613c7c565b0190855260208520855b838110610faa57505050505194519260018060a01b036004541690813b156106da57918391610f7e9383604051809681958294635537b6d160e01b845260048401614601565b03925af180156106cf57610f95575b808080610d98565b610fa0828092613437565b6101cb5780610f8d565b600190602084519401938184015501610f38565b634e487b7160e01b86526041600452602486fd5b600190602084519401938184015501610efa565b634e487b7160e01b88526041600452602488fd5b889389905b80821061101457505050015538808080610ec3565b909194855190600582101561104b57611041600192856020939060ff809160031b9316831b921b19161790565b9601920190610fff565b634e487b7160e01b8c52602160045260248cfd5b898a5b60208110611077575083820155600101610eac565b929081519060058210156110ac576110a3600192866020939060ff809160031b9316831b921b19161790565b92019301611062565b634e487b7160e01b8d52602160045260248dfd5b82516001600160a01b031681830155602090920191600101610e69565b634e487b7160e01b85526021600452602485fd5b506003546001600160a01b0316331415610d4e565b50346101cb57604060e09161111a3661367b565b90825260066020528282209082526020522061117f8154916001810154906002810154600382015460048301549160ff600660058601549501541694604051978852602088015260408701526060860152608085015260a084015260c0830190613691565bf35b50346101cb5760803660031901126101cb5761119b613347565b6111a3613362565b6111ab613378565b906111b461338e565b926111bd61508b565b600180546001600160a01b03199081166001600160a01b03938416179091558554811692821692909217855560038054831693821693909317909255600480549091169290911691909117905580f35b50346101cb5760203660031901126101cb5760406020916004358152600583522054604051908152f35b50346101cb5760403660031901126101cb576004356001600160401b038111610bd157611268903690600401613862565b602435801590811503610b3c5761127d613cbf565b506112866147ee565b5061018082019081518452600660205260408420825185526005602052604085205485526020526112b960408520613db6565b606081015160e082019081515190818110611b47575b50506002546040516361d1549d60e11b815292915061012090839060049082906001600160a01b03165afa8015611b3c5786906119fd575b606001516101e08601516113289350916001600160a01b039091169061548d565b9282518552600660205260408520835186526005602052604086205486526020526113598460066040882001613b7d565b825185526005602052604085205492519480809660405161137981613400565b600081526000602082015261138c613cbf565b986040860151600f8110156110dd57600189166115f35750839060068a10156110dd5760048a0361159d57505050600193818352600660205260408320878452602052600160408420015482845260066020526040842088855260205261142a6113fc8260076040882001614618565b60018060a01b0391549060031b1c16918486526006602052604086208a8752602052600a6040872001614618565b90549060031b1c6040519161143e83613400565b82526020820152966006968061157c575b6114bb575b505050509461148d6102389361149e93611475985b604051998a809a613691565b15156020890152151560408801526060870190613b4f565b60e0608086015260e08501906136f5565b82516001600160a01b031660a085015260209092015160c0840152565b90919398506114cf9295506106358461512f565b8051919790949115611560575060045460029460019390916001600160a01b031690813b156106da5791839161151c9383604051809681958294635537b6d160e01b845260048401614601565b03925af180156106cf5761154b575b50509461148d6102389361149e93611475985b9398829650819550611454565b611556828092613437565b6101cb578061152b565b610238945061147597925061148d915061149e9360069161153e565b5082845286602052604084208185526020526005604085200154151561144f565b959197909660018a146000146115b757506005965b61144f565b60038a036115c85750600c9661144f565b6006975080156115b2575082845286602052604084208185526020526005604085200154151561144f565b999197919650939460058a14806119ea575b80156119cc575b1561162b57505050509161148d61149e92610238946114759891611469565b9161163b9193995080965061512f565b50600182018092116119b8578161165191615793565b94909188839660018060a01b0360045416803b15610b3c57604051635537b6d160e01b8152918391839182908490829061168f908b60048401614601565b03925af180156106cf5761199f575b505060e0830191825151156000146116cd575050505061147595509161148d61149e9261023894600691611469565b808a52600560205260408a206116e381546145bc565b905589526006602052604089209089526020526040882090825182556020830151600183015560408301516002830155606083015160038301556080830151600483015560a0830151600583015560c0830151600681101561198b5761174c9060068401613b7d565b5180519060078301906001600160401b0383116118a8576020906117708484613bac565b01908a5260208a208a5b83811061196e575050505060088101610100830151908151916001600160401b0383116118a8576020906117ae8484613be2565b01908a5260208a208260051c918b5b8381106119215750601f19841690930392836118bc575b5050505060098101610120830151908151916001600160401b0383116118a8576020906118018484613c7c565b01908a5260208a208a5b8381106118945750505050600a6101409101910151908151916001600160401b0383116118805760209061183f8484613c7c565b0190885260208820975b82811061186c5750505061147595509161148d61149e9261023894600291611469565b60019060208351930192818b015501611849565b634e487b7160e01b89526041600452602489fd5b60019060208451940193818401550161180b565b634e487b7160e01b8b52604160045260248bfd5b8b938c905b8082106118d6575050500155388080806117d4565b909194855190600582101561190d57611903600192856020939060ff809160031b9316831b921b19161790565b96019201906118c1565b634e487b7160e01b8f52602160045260248ffd5b8c8d5b602081106119395750838201556001016117bd565b92908151906005821015610a7a57611965600192866020939060ff809160031b9316831b921b19161790565b92019301611924565b82516001600160a01b03168183015560209092019160010161177a565b634e487b7160e01b8a52602160045260248afd5b816119a991613437565b6119b457883861169e565b8880fd5b634e487b7160e01b88526011600452602488fd5b50600c8a14801561160c57506006891015610b72576003891461160c565b506006891015610b725760018914611605565b50610120823d8211611b34575b81611a186101209383613437565b81010312611b30576040519161012083018381106001600160401b03821117610fe657604052611a4781614807565b835260208101516001600160a01b0381168103611b2c57602084015260408101516001600160a01b0381168103611b2c57604084015260608101516001600160a01b0381168103611b2c57606084015260808101516001600160a01b0381168103611b2c57608084015260a08101516001600160a01b0381168103611b2c5760a084015260c08101516001600160a01b0381168103611b2c5760c084015260e0810151906001600160a01b0382168203611b2c5760e08401919091526101000151916001600160a01b0383168303611b285761132892610100820152611307565b8680fd5b8780fd5b8580fd5b3d9150611a0a565b6040513d88823e3d90fd5b87969593929496508103908111611c4657611b6490959195614646565b938692610100870192845b89875151821015611bcc5750611b86818651614685565b516005811015610b0f579060019115611ba0575b01611b6f565b818060a01b03611bb1828a51614685565b5116611bc6611bbf896145bc565b988b614685565b52611b9a565b945050945094909592508051611be3575b806112cf565b60045485516001600160a01b0390911691823b156106da57611c1e928492836040518096819582946313dd927960e11b845260048401614601565b03925af180156106cf5715611bdd5781611c3791613437565b611c42578438611bdd565b8480fd5b634e487b7160e01b87526011600452602487fd5b50346101cb57806003193601126101cb57602090604051908152f35b50346101cb57611c853661367b565b6003549091906001600160a01b03163303611e2f57808352600560205260408320549181845260066020526040842083855260205260408420906002840193848111611e1b5783865260066020526001604087209101858111611c46578652602052600460408620015581845260056020528260408520556007810190611d0b82613d17565b9260018201918254600181018091116119b85796600192604092611d3688999a6102389951906145e1565b96879683855260066020528585208c865260205285852091838303611d8f575b505050908252506006602090815282822089835290522001556001600160a01b03611d818285614685565b511660405194859485613b1c565b83611dea600a93928493611e1297548755548b87015560028301546002870155600383015460038701556004830154600487015560058301546005870155611de160ff60068501541660068801613b7d565b60078601614699565b611dfa6008820160088601614706565b611e0a6009820160098601614790565b019101614790565b38808080611d56565b634e487b7160e01b86526011600452602486fd5b63a5a4297b60e01b8352600483fd5b50346101cb5760c03660031901126101cb5760043590611e5c613378565b6084359260a4356001600160401b0381116106da57611e7f9036906004016134cc565b9360018060a01b036002541633141580612265575b6122565760e085019060018060a01b03611eaf828451614685565b516001600160a01b03861691168190036121d0575b50610120860190611ed9606435918351614685565b5282855260066020526040852060243586526020526040852091865183556020870151600184015560408701516002840155606087015160038401556080870151600484015560a0870151600584015560c087015160068110156121bc57611f449060068501613b7d565b5180519060078401906001600160401b038311610fe657602090611f688484613bac565b0190875260208720875b83811061219f575050505060088201610100870151908151916001600160401b038311610fe657602090611fa68484613be2565b01908752602087208260051c91885b8381106121525750601f1984169093039283612101575b50505050600982019051908151916001600160401b0383116120ed57602090611ff58484613c7c565b0190865260208620865b8381106120d95750505050600a61014091019401518051906001600160401b0382116120c5576020906120328388613c7c565b019484526020842094845b8281106120b157600454869081906001600160a01b03168688823b156120ac57604051631f1ccec960e01b815260048101929092526001600160a01b031660248201529082908290604490829084905af180156106cf5761209b5750f35b816120a591613437565b6101cb5780f35b505050fd5b60019060208351930192818901550161203d565b634e487b7160e01b85526041600452602485fd5b600190602084519401938184015501611fff565b634e487b7160e01b87526041600452602487fd5b889389905b80821061211b57505050015538808080611fcc565b909194855190600582101561104b57612148600192856020939060ff809160031b9316831b921b19161790565b9601920190612106565b898a5b6020811061216a575083820155600101611fb5565b929081519060058210156110ac57612196600192866020939060ff809160031b9316831b921b19161790565b92019301612155565b82516001600160a01b031681830155602090920191600101611f72565b634e487b7160e01b87526021600452602487fd5b6004546001600160a01b0316803b15611b2857604051634fe574f360e01b8152600481018690526001600160a01b03871660248201529087908290604490829084905af1801561224b57908791612236575b505061222f828451614685565b5238611ec4565b8161224091613437565b611b30578538612222565b6040513d89823e3d90fd5b6315c9368f60e31b8452600484fd5b506003546001600160a01b0316331415611e94565b50346101cb5760403660031901126101cb576040612296613362565b916004358152600080516020616555833981519152602052209060018060a01b0316600052602052602060ff604060002054166040519015158152f35b50346101cb57806003193601126101cb57600080516020616535833981519152546040516001600160a01b039091168152602090f35b50346101cb5760a03660031901126101cb576024359060043561232a613378565b60643590608435908115158203611c42576002546001600160a01b03163314158061277c575b61276d578385526006602052604085208686526020526040852092600784019361237a8286614618565b90546001600160a01b03858116949260031b9190911c168390036126cc575b505050506123a5578280f35b818352600660205260408320848452602052826003604082200155818352600660205260408320848452602052826002604082200155818352600660205260408320848452602052600860408420018054848255806126ac575b505081835260066020526040832084845260205261242260096040852001613c48565b818352600660205260408320848452602052612443600a6040852001613c48565b61244d8154614646565b828452600660205260408420858552602052600860408520018151916001600160401b038311610fbe576020906124848484613be2565b01908552602085208260051c91865b83811061265f5750601f198416909303928361260e575b505050506124b88154614646565b828452600660205260408420858552602052600960408520018151916001600160401b038311610fbe576020906124ef8484613c7c565b0190855260208520855b8381106125fa575050505061250e9054614646565b92818352600660205260408320908352602052600a6040832001928051906001600160401b0382116125e6576020906125478387613c7c565b0193835260208320835b8281106125d25750505081925060018060a01b036004541690604051612578602082613437565b8381526000368137823b156120ac576125aa92849283604051809681958294633921df0b60e01b845260048401614601565b03925af180156106cf576125bd57808280f35b816125c791613437565b6101cb578038808280f35b600190602087519701968184015501612551565b634e487b7160e01b84526041600452602484fd5b6001906020845194019381840155016124f9565b869387905b808210612628575050500155388080806124aa565b909194855190600582101561198b57612655600192856020939060ff809160031b9316831b921b19161790565b9601920190612613565b87885b60208110612677575083820155600101612493565b92908151906005821015610b0f576126a3600192866020939060ff809160031b9316831b921b19161790565b92019301612662565b6126c5918552601f60208620910160051c810190613b95565b38806123ff565b8060016126db93015585614618565b815460039190911b92831b6001600160a01b039384901b199091161790556004541690813b15611b3057604051634fe574f360e01b8152600481018690526001600160a01b039190911660248201529085908290604490829084905af180156127625790859161274d575b8080612399565b8161275791613437565b6106da578338612746565b6040513d87823e3d90fd5b6315c9368f60e31b8552600485fd5b506003546001600160a01b0316331415612350565b50346101cb5760203660031901126101cb576127e46040600435926127b4613cbf565b50838152600560205281812054938082526006602052828220908252600560205282822054825260205220613db6565b9061023860405192839283526040602084015260408301906136f5565b50346101cb57806003193601126101cb5760008051602061659583398151915254336001600160a01b039091160361283f5761283c336150c1565b80f35b63118cdaa760e01b815233600452602490fd5b50346101cb5761286136613aae565b9060018060a01b036002541633141580612c21575b610bad57606091839061018083018051865260056020526040862061289b81546145bc565b8091558094600188921615612bf7575b906128d1916128b8613cbf565b506128c3845161512f565b908761012082015191615340565b979193909715612905575b6128f6878787604051938493606085526060850190613adf565b91602084015260408301520390f35b9193509194508251825260066020526040822084835260205260408220908551825560208601958651600184015560408101516002840155606081015160038401556080810151600484015560a0810151600584015560c081015160068110156110dd576129769060068501613b7d565b600783019260e08201938451908151916001600160401b038311610fe6576020906129a18484613bac565b0190875260208720875b838110612bda575050505060088101610100830151908151916001600160401b038311610fe6576020906129df8484613be2565b01908752602087208260051c91885b838110612b8d5750601f1984169093039283612b3c575b5050505060098101610120830151908151916001600160401b038311610fe657602090612a328484613c7c565b0190875260208720875b838110612b285750505050600a6101409101910151908151916001600160401b038311610fbe57602090612a708484613c7c565b0190855260208520855b838110612b1457505050508351835260066020526040832085845260205260046040842001555193519160018060a01b03600454169051813b15610b3c57958291612adc9783604051809a81958294635537b6d160e01b845260048401614601565b03925af1948515612b07576128f695612af7575b80806128dc565b81612b0191613437565b38612af0565b50604051903d90823e3d90fd5b600190602084519401938184015501612a7a565b600190602084519401938184015501612a3c565b889389905b808210612b5657505050015538808080612a05565b909194855190600582101561104b57612b83600192856020939060ff809160031b9316831b921b19161790565b9601920190612b41565b898a5b60208110612ba55750838201556001016129ee565b929081519060058210156110ac57612bd1600192866020939060ff809160031b9316831b921b19161790565b92019301612b90565b82516001600160a01b0316818301556020909201916001016129ab565b9450508051865260056020526128d160408720612c1481546145bc565b80915594600191506128ab565b506003546001600160a01b0316331415612876565b50346101cb57806003193601126101cb57612c4f61508b565b60008051602061659583398151915280546001600160a01b03199081169091556000805160206165358339815191528054918216905581906001600160a01b03167f8be0079c531659141344cd1fd0a4f28419497f9722a3daafe3b4186f6b6457e08280a380f35b50346101cb57612cef604061023892612ccf3661367b565b90612cd8613cbf565b508252600660205282822090825260205220613db6565b6040519182916020835260208301906136f5565b50346101cb57806003193601126101cb576003546040516001600160a01b039091168152602090f35b50346101cb57806003193601126101cb576001546040516001600160a01b039091168152602090f35b50346101cb5760403660031901126101cb57612d6f613362565b336001600160a01b03821603612d8b57610cdd90600435614feb565b63334bd91960e11b8252600482fd5b50346101cb5760603660031901126101cb576044356001600160401b038111610bd157612dcb9036906004016134cc565b6002546001600160a01b03163314158061303b575b610c82576004358252600660205260408220602435835260205260408220815181556020820151600182015560408201516002820155606082015160038201556080820151600482015560a0820151600582015560c08201516006811015610b7257612e4f9060068301613b7d565b6007810160e0830151908151916001600160401b038311610fbe57602090612e778484613bac565b0190855260208520855b83811061301e575050505060088101610100830151908151916001600160401b038311610fbe57602090612eb58484613be2565b01908552602085208260051c91865b838110612fd15750601f1984169093039283612f80575b5050505060098101610120830151908151916001600160401b038311610fbe57602090612f088484613c7c565b0190855260208520855b838110612f6c5761014086015180518891600a8801906001600160401b0383116125e657602090612f438484613c7c565b0190835260208320835b838110612f58578480f35b600190602084519401938184015501612f4d565b600190602084519401938184015501612f12565b869387905b808210612f9a57505050015538808080612edb565b909194855190600582101561198b57612fc7600192856020939060ff809160031b9316831b921b19161790565b9601920190612f85565b87885b60208110612fe9575083820155600101612ec4565b92908151906005821015610b0f57613015600192866020939060ff809160031b9316831b921b19161790565b92019301612fd4565b82516001600160a01b031681830155602090920191600101612e81565b506003546001600160a01b0316331415612de0565b50346101cb5760403660031901126101cb57610cdd600435613070613362565b9061307d610cd382613b5c565b614f42565b50346101cb5760203660031901126101cb5760206130a1600435613b5c565b604051908152f35b50346101cb57806003193601126101cb576004546040516001600160a01b039091168152602090f35b50346101cb57806003193601126101cb576002546040516001600160a01b039091168152602090f35b50346101cb5760a03660031901126101cb57613115613347565b61311d613362565b613125613378565b61312d61338e565b906131366133a4565b92600080516020616575833981519152549460ff8660401c1615956001600160401b038116801590816132ea575b60011490816132e0575b1590816132d7575b506132c85767ffffffffffffffff198116600117600080516020616575833981519152558661329b575b506131a9615765565b6131b1615765565b6131b9615765565b3315613287576131c8336150c1565b6131d0615765565b600180546001600160a01b03199081166001600160a01b03938416179091558754811692821692909217875560038054831693821693909317909255600280548216938316939093179092556004805490921692169190911790556132325780f35b60ff60401b196000805160206165758339815191525416600080516020616575833981519152557fc7f505b2f371ae2175ee4913f4499e1f2633a7b5936321eed1cdaeb6115181d2602060405160018152a180f35b631e4fbdf760e01b87526004879052602487fd5b68ffffffffffffffffff1916680100000000000000011760008051602061657583398151915255386131a0565b63f92ee8a960e01b8852600488fd5b90501538613176565b303b15915061316e565b889150613164565b905034610bd1576020366003190112610bd15760043563ffffffff60e01b8116809103610b3c5760209250637965db0b60e01b8114908115613336575b5015158152f35b6301ffc9a760e01b1490503861332f565b600435906001600160a01b038216820361335d57565b600080fd5b602435906001600160a01b038216820361335d57565b604435906001600160a01b038216820361335d57565b606435906001600160a01b038216820361335d57565b608435906001600160a01b038216820361335d57565b35906001600160a01b038216820361335d57565b61016081019081106001600160401b038211176133ea57604052565b634e487b7160e01b600052604160045260246000fd5b604081019081106001600160401b038211176133ea57604052565b61010081019081106001600160401b038211176133ea57604052565b90601f801991011681019081106001600160401b038211176133ea57604052565b6001600160401b0381116133ea5760051b60200190565b9080601f8301121561335d57813561348681613458565b926134946040519485613437565b81845260208085019260051b82010192831161335d57602001905b8282106134bc5750505090565b81358152602091820191016134af565b91906101608382031261335d57604051906134e6826133ce565b8193803583526020810135602084015260408101356040840152606081013560608401526080810135608084015260a081013560a084015260c0810135600681101561335d5760c084015260e08101356001600160401b03811161335d57810182601f8201121561335d5780359061355d82613458565b9161356b6040519384613437565b80835260208084019160051b8301019185831161335d57602001905b8282106136635750505060e08401526101008101356001600160401b03811161335d57810182601f8201121561335d5780356135c281613458565b916135d06040519384613437565b81835260208084019260051b8201019085821161335d57602001915b81831061364a575050506101008401526101208101356001600160401b03811161335d578261361c91830161346f565b610120840152610140810135916001600160401b03831161335d5761014092613645920161346f565b910152565b8235600581101561335d578152602092830192016135ec565b60208091613670846133ba565b815201910190613587565b604090600319011261335d576004359060243590565b90600682101561369e5752565b634e487b7160e01b600052602160045260246000fd5b90600582101561369e5752565b906020808351928381520192019060005b8181106136df5750505090565b82518452602093840193909201916001016136d2565b919091610160830192815181526020820151602082015260408201516040820152606082015160608201526080820151608082015260a082015160a082015261374660c083015160c0830190613691565b60e08201519361016060e083015284518091526020610180830195019060005b8181106137ed57505050610100820151938181036101008301526020808651928381520195019060005b8181106137ce575050506101406137b96137cb94956101208501518482036101208601526136c1565b920151906101408184039101526136c1565b90565b909195602080826137e26001948b516136b4565b019701929101613790565b82516001600160a01b0316875260209687019690920191600101613766565b81601f8201121561335d578035906001600160401b0382116133ea5760405192613840601f8401601f191660200185613437565b8284526020838301011161335d57816000926020809301838601378301015290565b9190916102e08184031261335d57604051906102e082018281106001600160401b038211176133ea5760405281938135600681101561335d5783526020820135600581101561335d5760208401526040820135600f81101561335d5760408401526060820135600f81101561335d5760608401526138e2608083016133ba565b60808401526138f360a083016133ba565b60a084015261390460c083016133ba565b60c084015261391560e083016133ba565b60e08401526101008201356101008401526101208201356101208401526101408201356101408401526101608201356101608401526101808201356101808401526101a08201356101a08401526101c08201356101c08401526101e08201356101e08401526102008201356001600160401b03811161335d578161399a91840161380c565b6102008401526102208201356001600160401b03811161335d57816139c091840161380c565b6102208401526102408201356001600160401b03811161335d57820181601f8201121561335d578035906139f382613458565b92613a016040519485613437565b8284526020606081860194028301019181831161335d57602001925b828410613a5f57505050506102c09182916102408501526102608101356102608501526102808101356102808501526102a08101356102a08501520135910152565b60608483031261335d576040519060608201908282106001600160401b038311176133ea5760609260209260405286358152828701358382015260408701356040820152815201930192613a1d565b604060031982011261335d57600435906001600160401b03821161335d57613ad891600401613862565b9060243590565b906020808351928381520192019060005b818110613afd5750505090565b82516001600160a01b0316845260209384019390920191600101613af0565b9092613b35606093969594608084526080840190613adf565b60208301969096526001600160a01b031660408201520152565b90600f82101561369e5752565b60005260008051602061655583398151915260205260016040600020015490565b90600681101561369e5760ff80198354169116179055565b818110613ba0575050565b60008155600101613b95565b90600160401b81116133ea57815490808355818110613bca57505050565b613be09260005260206000209182019101613b95565b565b90600160401b81116133ea578154818355808210613bff57505050565b613be092600052601f6020600020918180850160051c8401941680613c2b575b500160051c0190613b95565b6000198501908154906000199060200360031b1c16905538613c1f565b8054906000815581613c58575050565b6000526020600020908101905b818110613c70575050565b60008155600101613c65565b90600160401b81116133ea57815491818155828210613c9a57505050565b600052602060002091820191015b818110613cb3575050565b60008155600101613ca8565b60405190613ccc826133ce565b60606101408360008152600060208201526000604082015260008382015260006080820152600060a0820152600060c08201528260e082015282610100820152826101208201520152565b906040519182815491828252602082019060005260206000209260005b818110613d49575050613be092500383613437565b84546001600160a01b0316835260019485019487945060209093019201613d34565b906040519182815491828252602082019060005260206000209260005b818110613d9d575050613be092500383613437565b8454835260019485019487945060209093019201613d88565b90604051613dc3816133ce565b80928054825260018101546020830152600281015460408301526003810154606083015260048101546080830152600581015460a083015260ff600682015416600681101561369e5760c0830152613e1d60078201613d17565b60e0830152600881016040519081602082549182815201916000526020600020906000915b81601f8401106143395784600a9461014097946136459794613f6694549181811061431e575b818110614300575b8181106142e2575b8181106142c4575b8181106142a7575b818110614289575b81811061426b575b81811061424d575b81811061422f575b818110614211575b8181106141f3575b8181106141d5575b8181106141b7575b818110614199575b81811061417b575b81811061415d575b81811061413f575b818110614121575b818110614103575b8181106140e5575b8181106140c7575b8181106140a9575b81811061408b575b81811061406d575b81811061404f575b818110614031575b818110614013575b818110613ff5575b818110613fd7575b818110613fb9575b818110613f9b575b10613f84575b500382613437565b610100860152613f7860098201613d6b565b61012086015201613d6b565b90613f948160209360f81c6136b4565b0138613f5e565b92602081613fb160019360ff8760f01c166136b4565b019301613f58565b92602081613fcf60019360ff8760e81c166136b4565b019301613f50565b92602081613fed60019360ff8760e01c166136b4565b019301613f48565b9260208161400b60019360ff8760d81c166136b4565b019301613f40565b9260208161402960019360ff8760d01c166136b4565b019301613f38565b9260208161404760019360ff8760c81c166136b4565b019301613f30565b9260208161406560019360ff8760c01c166136b4565b019301613f28565b9260208161408360019360ff8760b81c166136b4565b019301613f20565b926020816140a160019360ff8760b01c166136b4565b019301613f18565b926020816140bf60019360ff8760a81c166136b4565b019301613f10565b926020816140dd60019360ff8760a01c166136b4565b019301613f08565b926020816140fb60019360ff8760981c166136b4565b019301613f00565b9260208161411960019360ff8760901c166136b4565b019301613ef8565b9260208161413760019360ff8760881c166136b4565b019301613ef0565b9260208161415560019360ff8760801c166136b4565b019301613ee8565b9260208161417360019360ff8760781c166136b4565b019301613ee0565b9260208161419160019360ff8760701c166136b4565b019301613ed8565b926020816141af60019360ff8760681c166136b4565b019301613ed0565b926020816141cd60019360ff8760601c166136b4565b019301613ec8565b926020816141eb60019360ff8760581c166136b4565b019301613ec0565b9260208161420960019360ff8760501c166136b4565b019301613eb8565b9260208161422760019360ff8760481c166136b4565b019301613eb0565b9260208161424560019360ff8760401c166136b4565b019301613ea8565b9260208161426360019360ff8760381c166136b4565b019301613ea0565b9260208161428160019360ff8760301c166136b4565b019301613e98565b9260208161429f60019360ff8760281c166136b4565b019301613e90565b926020816142bc60019360ff87851c166136b4565b019301613e88565b926020816142da60019360ff8760181c166136b4565b019301613e80565b926020816142f860019360ff8760101c166136b4565b019301613e78565b9260208161431660019360ff8760081c166136b4565b019301613e70565b9260208161433160019360ff87166136b4565b019301613e68565b9260016104006020926145b187546143548360ff83166136b4565b61436686840160ff8360081c166136b4565b6143796040840160ff8360101c166136b4565b61438c6060840160ff8360181c166136b4565b61439e6080840160ff83891c166136b4565b6143b160a0840160ff8360281c166136b4565b6143c460c0840160ff8360301c166136b4565b6143d760e0840160ff8360381c166136b4565b6143eb610100840160ff8360401c166136b4565b6143ff610120840160ff8360481c166136b4565b614413610140840160ff8360501c166136b4565b614427610160840160ff8360581c166136b4565b61443b610180840160ff8360601c166136b4565b61444f6101a0840160ff8360681c166136b4565b6144636101c0840160ff8360701c166136b4565b6144776101e0840160ff8360781c166136b4565b61448b610200840160ff8360801c166136b4565b61449f610220840160ff8360881c166136b4565b6144b3610240840160ff8360901c166136b4565b6144c7610260840160ff8360981c166136b4565b6144db610280840160ff8360a01c166136b4565b6144ef6102a0840160ff8360a81c166136b4565b6145036102c0840160ff8360b01c166136b4565b6145176102e0840160ff8360b81c166136b4565b61452b610300840160ff8360c01c166136b4565b61453f610320840160ff8360c81c166136b4565b614553610340840160ff8360d01c166136b4565b614567610360840160ff8360d81c166136b4565b61457b610380840160ff8360e01c166136b4565b61458f6103a0840160ff8360e81c166136b4565b6145a36103c0840160ff8360f01c166136b4565b6103e083019060f81c6136b4565b019401920191613e42565b60001981146145cb5760010190565b634e487b7160e01b600052601160045260246000fd5b81156145eb570690565b634e487b7160e01b600052601260045260246000fd5b6040906137cb939281528160208201520190613adf565b80548210156146305760005260206000200190600090565b634e487b7160e01b600052603260045260246000fd5b9061465082613458565b61465d6040519182613437565b828152809261466e601f1991613458565b0190602036910137565b8051156146305760200190565b80518210156146305760209160051b010190565b818114614702578154916001600160401b0383116133ea576146bb8383613bac565b60005260206000209060005260206000208154916000925b8484106146e1575050505050565b600191820180546001600160a01b03909216848601559390910192906146d3565b5050565b90808214614702578054906001600160401b0382116133ea576147298284613be2565b6000526020600020916000526020600020918160051c9181549160005b84811061477b575050601f198116808203614763575b5050505050565b600019910360031b1b1916910155388080808061475c565b60019182018054878301959095559101614746565b818114614702578154916001600160401b0383116133ea576147b28383613c7c565b60005260206000209060005260206000208154916000925b8484106147d8575050505050565b60018091920193845492818501550192906147ca565b604051906147fb82613400565b60006020838281520152565b51906001600160a01b038216820361335d57565b9080601f8301121561335d57815161483281613458565b926148406040519485613437565b81845260208085019260051b82010192831161335d57602001905b8282106148685750505090565b6020809161487584614807565b81520191019061485b565b9060208282031261335d5781516001600160401b03811161335d576137cb920161481b565b906020825491828152019160005260206000209060005b8181106148c95750505090565b82546001600160a01b03168452602090930192600192830192016148bc565b93929161491190614903604093606088526060880190613adf565b908682036020880152613adf565b930152565b60035491926000929091906001600160a01b03163303611e2f5761018081019182518452600560205260408420549483518552600660205260408520868652602052604085209460028701809711614ee457869480516101a08601519060018060a01b038454169160208b60246040518096819363053b601760e51b835260048301525afa8015612762578590614eac575b6149c49350610160890151916149be865161512f565b9361559a565b819891511580614ea4575b614e825750614a35959697985073__$8b0f212190ad0b350ebeb1d3aa845a5dc8$__9883614a23600184019384546040519a8b938493635d881d2b60e01b85526060600486015260076064860191016148a5565b83810360031901602485015286613adf565b90604483015203818d5af4968715614e33578497614e60575b5083614a8191889b614a60865161512f565b8051604051635d881d2b60e01b8152958694859384939190600485016148e8565b03915af4908115614e33578491614e3e575b5060018060a01b03600454168351813b15611b3057918591614acc9383604051809681958294635537b6d160e01b845260048401614601565b03925af18015614e3357614e1f575b505460018101809111610c6e578551614af3916145e1565b946101206001600160a01b03614b098884614685565b5116970151614b188251614646565b614b228351614646565b90614b2d8451614646565b938b60405194614b3c866133ce565b818652602086018c8152604087018a815260608801908b825260808901928c845260a08a019485528c60c08b019681885260e08c019889526101008c01998a526101208c019a8b526101408c019c8d528d518252600660205260408220915260205260408d2099518a555160018a0155516002890155516003880155516004870155516005860155516006811015614e0b57614bdb9060068601613b7d565b5180519060078501906001600160401b03831161188057602090614bff8484613bac565b0190885260208820885b838110614dee5750505050600883019051908151916001600160401b038311610fe657602090614c398484613be2565b01908752602087208260051c91885b838110614da15750601f1984169093039283614d50575b50505050600982019051908151916001600160401b0383116120ed57602090614c888484613c7c565b0190865260208620865b838110614d3c5750505050600a019051908151916001600160401b0383116120c557602090614cc18484613c7c565b0190845260208420845b838110614d285750505050805182526006602052604082208783526020528260046040842001558051825260056020528660408320555181526006602052604081206000198701878111610c6e5782526020526040902060040155565b600190602084519401938184015501614ccb565b600190602084519401938184015501614c92565b889389905b808210614d6a57505050015538808080614c5f565b909194855190600582101561104b57614d97600192856020939060ff809160031b9316831b921b19161790565b9601920190614d55565b898a5b60208110614db9575083820155600101614c48565b929081519060058210156110ac57614de5600192866020939060ff809160031b9316831b921b19161790565b92019301614da4565b82516001600160a01b031681830155602090920191600101614c09565b634e487b7160e01b88526021600452602488fd5b83614e2c91949294613437565b9138614adb565b6040513d86823e3d90fd5b614e5a91503d8086833e614e528183613437565b810190614880565b38614a93565b614a81919750614e7a85913d8084833e614e528183613437565b979150614a4e565b965050505050905060018060a01b03614e9b8385614685565b51169293929190565b5080156149cf565b5090916020813d602011614edc575b81614ec860209383613437565b81010312611c4257906149c49291516149a8565b3d9150614ebb565b634e487b7160e01b81526011600452602490fd5b60008181526000805160206165558339815191526020908152604080832033845290915290205460ff1615614f2a5750565b63e2517d3f60e01b6000523360045260245260446000fd5b6000818152600080516020616555833981519152602090815260408083206001600160a01b038616845290915290205460ff16614fe4576000818152600080516020616555833981519152602090815260408083206001600160a01b0395909516808452949091528120805460ff19166001179055339291907f2f8788117e7eff1d82e926ec794901d17c78024a50270940304540a733656f0d9080a4600190565b5050600090565b6000818152600080516020616555833981519152602090815260408083206001600160a01b038616845290915290205460ff1615614fe4576000818152600080516020616555833981519152602090815260408083206001600160a01b0395909516808452949091528120805460ff19169055339291907ff6391f5c32d9c69d2a47ea670b442974b53935d1edc7fd64eb21e047a839171b9080a4600190565b600080516020616535833981519152546001600160a01b031633036150ac57565b63118cdaa760e01b6000523360045260246000fd5b60008051602061659583398151915280546001600160a01b031990811690915560008051602061653583398151915280549182166001600160a01b0393841690811790915591167f8be0079c531659141344cd1fd0a4f28419497f9722a3daafe3b4186f6b6457e0600080a3565b600060018060a01b036004541691602460405180948193633717892560e01b835260048301525afa90811561517e57600091615169575090565b6137cb91503d806000833e614e528183613437565b6040513d6000823e3d90fd5b9192615194613cbf565b93600093610180810160248151926101a081015190602060018060a01b03600054166040519485809263053b601760e51b82528c60048301525afa92831561517e5760009361530a575b50610160015192516151f794939291906149be9061512f565b92909586511580615302575b6152f257508051908682156152e9576000916152336040519485938493635d881d2b60e01b8552600485016148e8565b038173__$8b0f212190ad0b350ebeb1d3aa845a5dc8$__5af490811561517e576000916152ce575b50945b6152688151614646565b906152738151614646565b9261527e8251614646565b946040519661528c886133ce565b8752602087015260006040870152600060608701526000608087015260a0860152600060c086015260e085015261010084015261012083015261014082015292565b6152e391503d806000833e614e528183613437565b3861525b565b9150509461525e565b9550505050505090606090600190565b508315615203565b90926020823d602011615338575b8161532560209383613437565b810103126101cb575051916149be6151de565b3d9150615318565b92909161534b613cbf565b9460009461018081018051916101a0810151936000906000146153fa57506000546001600160a01b03169360001988018881116145cb5760209060246040518098819363053b601760e51b835260048301525afa94851561517e576000956153c4575b506149be6101606151f796935b0151935161512f565b94506020853d6020116153f2575b816153df60209383613437565b8101031261335d579351936149be6153ae565b3d91506153d2565b6024602060018060a098959697981b038354166040519283809263053b601760e51b82528d60048301525afa918215615481578092615448575b5050906149be6101606151f79695946153bb565b9091506020823d602011615479575b8161546460209383613437565b810103126101cb5750516149be610160615434565b3d9150615457565b604051903d90823e3d90fd5b91610140610100840151930151604051938492630e5cc50b60e41b84526064840190600485015260606024850152815180915260206084850192019060005b818110615575575050506003198382030160448401526020808351928381520192019060005b81811061555c575060209492849003928492506001600160a01b031690505afa90811561517e57600091615524575090565b6020813d602011615554575b8161553d60209383613437565b81010312610bd157519060068210156101cb575090565b3d9150615530565b82518452869450602093840193909201916001016154f2565b91939450916020808261558b60019488516136b4565b019401910191869493926154cc565b9193949261010060018060a01b03600454169360246040518096819363149ecac960e11b835260048301525afa90811561517e576000916156da575b6000935060018060a01b0360015416915192615632604051988995869485946382df24a160e01b8652600486015288602486015260448501526064840152886084840152600160a484015260e060c484015260e4830190613adf565b03915afa91821561517e57600093849361566f575b508293925190808210615658575050565b635af2dc9b60e11b60005260045260245260446000fd5b939092503d8082863e6156828186613437565b8401606085820312610bd15784519160208601516001600160401b038111610bd157826156b091880161481b565b956040810151916001600160401b0383116101cb57506156d192910161481b565b50929138615647565b9050610100833d821161575d575b816156f66101009383613437565b8101031261335d5760009260e0604051916157108361341b565b805183526020810151602084015260408101516040840152606081015160608401526080810151608084015260a081015160a084015260c081015160c0840152015160e0820152906155d6565b3d91506156e8565b60ff6000805160206165758339815191525460401c161561578257565b631afcd79f60e31b60005260046000fd5b9061579c613cbf565b600060609161018085018051835260066020526040832093600119860194868611615c6b578585526020526157d660076040862001613d17565b938251815260066020526040812086825260205260016040822001549585511515600014615b0a5750508151600052600660205260406000206000198701908782116145cb578160005260205260076040600020015415600014615a5b5750506040908151936158468386613437565b60018552601f1983013660208701376001600160a01b0390615869908790614685565b511661587485614678565b52516101a0870151615885876163cd565b6000198101929083116145cb576158a49286926101608b01519261559a565b5080518251635d881d2b60e01b81529194600091839182916158ca9189600485016148e8565b038173__$8b0f212190ad0b350ebeb1d3aa845a5dc8$__5af4918215615a515750600091615a36575b50905b60206101a08397015194835190801515600014615a2c57955b8551604051630537dd3b60e11b815260048101929092526024820192909252604481019690965260648601528460848173__$a6e619d69c86bc274aaf34384d8e5af120$__5af493841561517e576000946159f8575b50825115806159f0575b6159e657505061597f8151614646565b6159898251614646565b916159948151614646565b93604051956159a2876133ce565b86526020860152600060408601526000606086015260006080860152600060a0860152600060c086015260e085015261010084015261012083015261014082015291565b9590945092505050565b50831561596f565b90936020823d602011615a24575b81615a1360209383613437565b810103126101cb5750519238615965565b3d9150615a06565b506000199561590f565b615a4b91503d806000833e614e528183613437565b386158f3565b513d6000823e3d90fd5b91939092935160005260066020526040600020600092835260205281615aa86007604083200192615aba6040519485938493635d881d2b60e01b8552606060048601526064850190613adf565b838103600319016024850152906148a5565b886044830152038173__$8b0f212190ad0b350ebeb1d3aa845a5dc8$__5af4918215615481578092615aef575b5050916158f6565b615b0392503d8091833e614e528183613437565b3880615ae7565b94509450508392805b615c3a575b5080518452600660205260408420838552602052615b3b60076040862001613d17565b9281518552600660205260408520908552602052600160408520015493604091825194615b688487613437565b60018652601f1984013660208801376001600160a01b0390615b8b908890614685565b5116615b9686614678565b5251906101a0880151615ba8886163cd565b600019810192908311614ee45750918591615bc9936101608b01519261559a565b5080518251635d881d2b60e01b8152919460009183918291615bef9189600485016148e8565b038173__$8b0f212190ad0b350ebeb1d3aa845a5dc8$__5af4918215615a515750600091615c1f575b50906158f6565b615c3491503d806000833e614e528183613437565b38615c18565b815185526006602052604085208186526020526007604086200154615c7f576001198101908111615c6b5780615b13565b634e487b7160e01b85526011600452602485fd5b925038615b18565b92909192615c93613cbf565b926101808201805160005260066020526040600020826000526020526005604060002001549283156163b7578151956101a0820191610160835191015190615cda8961512f565b9860009261010060018060a01b03600454169260246040518095819363149ecac960e11b835260048301525afa918215614e335790849392918492616327575b5060018060a01b0360015416915192615d746040519d8e95869485946382df24a160e01b865260048601528860248601526044850152606484015260016084840152600160a484015260e060c484015260e4830190613adf565b03915afa978815612b07578180996162bd575b50508751600181106162a45750875115908161629b575b50616277575081516000526006602052604060002083600052602052615dca6007604060002001613d17565b95825160005260066020526040600020846000526020526001604060002001549073__$8b0f212190ad0b350ebeb1d3aa845a5dc8$__906000818b519b615e256040519d8e938493635d881d2b60e01b8552600485016148e8565b0381855af4998a1561517e5760009a61624e575b5082615e6293926000928c9b60405196879485938493635d881d2b60e01b8552600485016148e8565b03915af491821561517e57600092616232575b5091519751909160209190801561622857985b8351604051630537dd3b60e11b815260048101929092526024820192909252604481019990995260648901528760848173__$a6e619d69c86bc274aaf34384d8e5af120$__5af496871561517e576000976161f4575b508151600052600660205260406000208360005260205260056040600020015460001981019081116145cb57615f148251614646565b615f1e8351614646565b90615f298451614646565b9360405193615f37856133ce565b878552602085019b8c52604085019060008252606086016000815260808701906000825260a0880192835260c08801936000855260e08901958652610100890196875261012089019788526101408901998a52889f8b51600052600660205260406000208d600052602052604060002099518a555160018a015551600289015551600388015551600487015551600586015551600681101561369e57615fe09060068601613b7d565b5180519060078501906001600160401b0383116133ea576020906160048484613bac565b0190600052602060002060005b8381106161d757505050506008830190518051906001600160401b0382116133ea576020906160408385613be2565b019160005260206000208160051c9160005b83811061618a5750601f198116900380616138575b50505050600982019051908151916001600160401b0383116133ea576020906160908484613c7c565b0190600052602060002060005b8381106161245750505050600a019051908151916001600160401b0383116133ea576020906160cc8484613c7c565b0190600052602060002060005b838110616110575050505060001983019283116145cb57516000526006602052604060002090600052602052600560406000200155565b6001906020845194019381840155016160d9565b60019060208451940193818401550161609d565b9260009360005b81811061615457505050015538808080616067565b9091948551600581101561369e57616180602091846001949060ff809160031b9316831b921b19161790565b960192910161613f565b6000805b602081106161a3575083820155600101616052565b95908151600581101561369e576161ce602091896001949060ff809160031b9316831b921b19161790565b9201960161618e565b82516001600160a01b031681830155602090920191600101616011565b9096506020813d602011616220575b8161621060209383613437565b8101031261335d57519538615ede565b3d9150616203565b5060001998615e88565b616248906020933d8091833e614e528183613437565b91615e75565b6000919a5092809261626c615e62953d8086833e614e528183613437565b9b9250929350615e39565b96505050505090506040519161628e602084613437565b6000835260003681379190565b90501538615d9e565b635af2dc9b60e11b600052600160045260245260446000fd5b915097503d80828a3e6162d0818a613437565b8801606089820312610bd15788519160208a01516001600160401b038111610bd157826162fe918c0161481b565b996040810151916001600160401b0383116101cb575061631f92910161481b565b503880615d87565b9150919250610100813d82116163af575b816163466101009383613437565b810103126106da579083929160e0604051916163618361341b565b805183526020810151602084015260408101516040840152606081015160608401526080810151608084015260a081015160a084015260c081015160c0840152015160e08201529038615d1a565b3d9150616338565b505050509091506040519161628e602084613437565b6001811615616445575b60005460405163053b601760e51b81526004810192909252602090829060249082906001600160a01b03165afa90811561517e57600091616416575090565b90506020813d60201161643d575b8161643160209383613437565b8101031261335d575190565b3d9150616424565b600154604051630d2bd90960e01b815290602090829060049082906001600160a01b03165afa90811561517e57600091616502575b506000546001600160a01b0316600283018084116145cb5760209060246040518094819363053b601760e51b835260048301525afa90811561517e576000916164d0575b5081106164cb57506163d7565b905090565b90506020813d6020116164fa575b816164eb60209383613437565b8101031261335d5751386164be565b3d91506164de565b906020823d60201161652c575b8161651c60209383613437565b810103126101cb5750513861647a565b3d915061650f56fe9016d09d72d40fdae2fd8ceac6b6234c7706214fd39c1cd1e609a0528c19930002dd7bc7dec4dceedda775e58dd541e08a116c6c53815c0bd028192f7b626800f0c57e16840df040f15088dc2f81fe391c3923bec73e23a9662efc9c229c6a00237e158222e3e6968b72b9db0d8043aacf074ad9f650f0d1606b4d82ee432c00a2646970667358221220a29d7d71bf5272c3d2869b79d62b6bec1fc105424dfa22e3831b532fc9952b8764736f6c634300081c0033",
  "linkReferences": {
    "contracts/utils/ArrayUtils.sol": {
      "ArrayUtils": [
        {
          "length": 20,
          "start": 18937
        },
        {
          "length": 20,
          "start": 21074
        },
        {
          "length": 20,
          "start": 22761
        },
        {
          "length": 20,
          "start": 23263
        },
        {
          "length": 20,
          "start": 23566
        },
        {
          "length": 20,
          "start": 24072
        }
      ]
    },
    "contracts/utils/RandomnessUtils.sol": {
      "RandomnessUtils": [
        {
          "length": 20,
          "start": 22876
        },
        {
          "length": 20,
          "start": 24277
        }
      ]
    }
  },
  "deployedLinkReferences": {
    "contracts/utils/ArrayUtils.sol": {
      "ArrayUtils": [
        {
          "length": 20,
          "start": 18910
        },
        {
          "length": 20,
          "start": 21047
        },
        {
          "length": 20,
          "start": 22734
        },
        {
          "length": 20,
          "start": 23236
        },
        {
          "length": 20,
          "start": 23539
        },
        {
          "length": 20,
          "start": 24045
        }
      ]
    },
    "contracts/utils/RandomnessUtils.sol": {
      "RandomnessUtils": [
        {
          "length": 20,
          "start": 22849
        },
        {
          "length": 20,
          "start": 24250
        }
      ]
    }
  }
}