{
  "_format": "hh-sol-artifact-1",
  "contractName": "Messages",
  "sourceName": "contracts/Messages.sol",
  "abi": [
    {
      "inputs": [],
      "name": "AccessControlBadConfirmation",
      "type": "error"
    },
    {
      "inputs": [
        {
          "internalType": "address",
          "name": "account",
          "type": "address"
        },
        {
          "internalType": "bytes32",
          "name": "neededRole",
          "type": "bytes32"
        }
      ],
      "name": "AccessControlUnauthorizedAccount",
      "type": "error"
    },
    {
      "inputs": [],
      "name": "CallerNotConsensus",
      "type": "error"
    },
    {
      "inputs": [],
      "name": "InvalidInitialization",
      "type": "error"
    },
    {
      "inputs": [],
      "name": "NotInitializing",
      "type": "error"
    },
    {
      "inputs": [],
      "name": "NumOfMessagesIssuedTooHigh",
      "type": "error"
    },
    {
      "inputs": [
        {
          "internalType": "address",
          "name": "owner",
          "type": "address"
        }
      ],
      "name": "OwnableInvalidOwner",
      "type": "error"
    },
    {
      "inputs": [
        {
          "internalType": "address",
          "name": "account",
          "type": "address"
        }
      ],
      "name": "OwnableUnauthorizedAccount",
      "type": "error"
    },
    {
      "inputs": [],
      "name": "ReentrancyGuardReentrantCall",
      "type": "error"
    },
    {
      "anonymous": false,
      "inputs": [
        {
          "indexed": true,
          "internalType": "address",
          "name": "caller",
          "type": "address"
        },
        {
          "indexed": false,
          "internalType": "bool",
          "name": "authorized",
          "type": "bool"
        }
      ],
      "name": "AuthorizedCallerUpdated",
      "type": "event"
    },
    {
      "anonymous": false,
      "inputs": [
        {
          "indexed": true,
          "internalType": "address",
          "name": "genConsensus",
          "type": "address"
        }
      ],
      "name": "GenConsensusSet",
      "type": "event"
    },
    {
      "anonymous": false,
      "inputs": [
        {
          "indexed": true,
          "internalType": "address",
          "name": "genManager",
          "type": "address"
        }
      ],
      "name": "GenManagerSet",
      "type": "event"
    },
    {
      "anonymous": false,
      "inputs": [
        {
          "indexed": true,
          "internalType": "address",
          "name": "genTransactions",
          "type": "address"
        }
      ],
      "name": "GenTransactionsSet",
      "type": "event"
    },
    {
      "anonymous": false,
      "inputs": [
        {
          "indexed": false,
          "internalType": "uint64",
          "name": "version",
          "type": "uint64"
        }
      ],
      "name": "Initialized",
      "type": "event"
    },
    {
      "anonymous": false,
      "inputs": [
        {
          "indexed": true,
          "internalType": "uint256",
          "name": "maxAllocatedMessages",
          "type": "uint256"
        }
      ],
      "name": "MaxAllocatedMessagesSet",
      "type": "event"
    },
    {
      "anonymous": false,
      "inputs": [
        {
          "indexed": true,
          "internalType": "bytes32",
          "name": "txId",
          "type": "bytes32"
        },
        {
          "indexed": true,
          "internalType": "bytes32",
          "name": "msgId",
          "type": "bytes32"
        },
        {
          "indexed": false,
          "internalType": "bytes",
          "name": "reason",
          "type": "bytes"
        }
      ],
      "name": "MessageExternalError",
      "type": "event"
    },
    {
      "anonymous": false,
      "inputs": [
        {
          "indexed": true,
          "internalType": "bytes32",
          "name": "txId",
          "type": "bytes32"
        },
        {
          "indexed": true,
          "internalType": "bytes32",
          "name": "msgId",
          "type": "bytes32"
        },
        {
          "indexed": false,
          "internalType": "uint256",
          "name": "gasRemaining",
          "type": "uint256"
        }
      ],
      "name": "MessageExternalOutOfGas",
      "type": "event"
    },
    {
      "anonymous": false,
      "inputs": [
        {
          "indexed": true,
          "internalType": "bytes32",
          "name": "tx_id",
          "type": "bytes32"
        },
        {
          "indexed": true,
          "internalType": "bytes32",
          "name": "msgId",
          "type": "bytes32"
        }
      ],
      "name": "MessagesOnAcceptance",
      "type": "event"
    },
    {
      "anonymous": false,
      "inputs": [
        {
          "indexed": true,
          "internalType": "bytes32",
          "name": "tx_id",
          "type": "bytes32"
        },
        {
          "indexed": true,
          "internalType": "bytes32",
          "name": "msgId",
          "type": "bytes32"
        }
      ],
      "name": "MessagesOnFinalization",
      "type": "event"
    },
    {
      "anonymous": false,
      "inputs": [
        {
          "indexed": true,
          "internalType": "uint256",
          "name": "minGasPerMessage",
          "type": "uint256"
        }
      ],
      "name": "MinGasPerMessageSet",
      "type": "event"
    },
    {
      "anonymous": false,
      "inputs": [
        {
          "indexed": true,
          "internalType": "uint256",
          "name": "minGasToCatchAndHandle",
          "type": "uint256"
        }
      ],
      "name": "MinGasToCatchAndHandleSet",
      "type": "event"
    },
    {
      "anonymous": false,
      "inputs": [
        {
          "indexed": true,
          "internalType": "address",
          "name": "previousOwner",
          "type": "address"
        },
        {
          "indexed": true,
          "internalType": "address",
          "name": "newOwner",
          "type": "address"
        }
      ],
      "name": "OwnershipTransferStarted",
      "type": "event"
    },
    {
      "anonymous": false,
      "inputs": [
        {
          "indexed": true,
          "internalType": "address",
          "name": "previousOwner",
          "type": "address"
        },
        {
          "indexed": true,
          "internalType": "address",
          "name": "newOwner",
          "type": "address"
        }
      ],
      "name": "OwnershipTransferred",
      "type": "event"
    },
    {
      "anonymous": false,
      "inputs": [
        {
          "indexed": true,
          "internalType": "bytes32",
          "name": "role",
          "type": "bytes32"
        },
        {
          "indexed": true,
          "internalType": "bytes32",
          "name": "previousAdminRole",
          "type": "bytes32"
        },
        {
          "indexed": true,
          "internalType": "bytes32",
          "name": "newAdminRole",
          "type": "bytes32"
        }
      ],
      "name": "RoleAdminChanged",
      "type": "event"
    },
    {
      "anonymous": false,
      "inputs": [
        {
          "indexed": true,
          "internalType": "bytes32",
          "name": "role",
          "type": "bytes32"
        },
        {
          "indexed": true,
          "internalType": "address",
          "name": "account",
          "type": "address"
        },
        {
          "indexed": true,
          "internalType": "address",
          "name": "sender",
          "type": "address"
        }
      ],
      "name": "RoleGranted",
      "type": "event"
    },
    {
      "anonymous": false,
      "inputs": [
        {
          "indexed": true,
          "internalType": "bytes32",
          "name": "role",
          "type": "bytes32"
        },
        {
          "indexed": true,
          "internalType": "address",
          "name": "account",
          "type": "address"
        },
        {
          "indexed": true,
          "internalType": "address",
          "name": "sender",
          "type": "address"
        }
      ],
      "name": "RoleRevoked",
      "type": "event"
    },
    {
      "anonymous": false,
      "inputs": [
        {
          "indexed": true,
          "internalType": "bool",
          "name": "useMinGasPerMessage",
          "type": "bool"
        }
      ],
      "name": "UseMinGasPerMessageSet",
      "type": "event"
    },
    {
      "inputs": [],
      "name": "DEFAULT_ADMIN_ROLE",
      "outputs": [
        {
          "internalType": "bytes32",
          "name": "",
          "type": "bytes32"
        }
      ],
      "stateMutability": "view",
      "type": "function"
    },
    {
      "inputs": [],
      "name": "acceptOwnership",
      "outputs": [],
      "stateMutability": "nonpayable",
      "type": "function"
    },
    {
      "inputs": [],
      "name": "addressManager",
      "outputs": [
        {
          "internalType": "contract IAddressManager",
          "name": "",
          "type": "address"
        }
      ],
      "stateMutability": "view",
      "type": "function"
    },
    {
      "inputs": [
        {
          "internalType": "address",
          "name": "",
          "type": "address"
        }
      ],
      "name": "authorizedCallers",
      "outputs": [
        {
          "internalType": "bool",
          "name": "",
          "type": "bool"
        }
      ],
      "stateMutability": "view",
      "type": "function"
    },
    {
      "inputs": [
        {
          "internalType": "bytes32",
          "name": "_txId",
          "type": "bytes32"
        },
        {
          "internalType": "address",
          "name": "_ghostAddress",
          "type": "address"
        }
      ],
      "name": "flushExternalMessages",
      "outputs": [],
      "stateMutability": "nonpayable",
      "type": "function"
    },
    {
      "inputs": [
        {
          "internalType": "bytes32",
          "name": "_txId",
          "type": "bytes32"
        }
      ],
      "name": "getAllMessagesForTransaction",
      "outputs": [
        {
          "components": [
            {
              "internalType": "enum IMessages.MessageType",
              "name": "messageType",
              "type": "uint8"
            },
            {
              "internalType": "address",
              "name": "recipient",
              "type": "address"
            },
            {
              "internalType": "uint256",
              "name": "value",
              "type": "uint256"
            },
            {
              "internalType": "bytes",
              "name": "data",
              "type": "bytes"
            },
            {
              "internalType": "bool",
              "name": "onAcceptance",
              "type": "bool"
            },
            {
              "internalType": "uint256",
              "name": "saltNonce",
              "type": "uint256"
            }
          ],
          "internalType": "struct IMessages.SubmittedMessage[]",
          "name": "messages",
          "type": "tuple[]"
        }
      ],
      "stateMutability": "view",
      "type": "function"
    },
    {
      "inputs": [
        {
          "internalType": "bytes32",
          "name": "role",
          "type": "bytes32"
        }
      ],
      "name": "getRoleAdmin",
      "outputs": [
        {
          "internalType": "bytes32",
          "name": "",
          "type": "bytes32"
        }
      ],
      "stateMutability": "view",
      "type": "function"
    },
    {
      "inputs": [
        {
          "internalType": "bytes32",
          "name": "_txId",
          "type": "bytes32"
        },
        {
          "internalType": "bool",
          "name": "_onAcceptance",
          "type": "bool"
        }
      ],
      "name": "getTotalExternalMessageValues",
      "outputs": [
        {
          "internalType": "uint256",
          "name": "totalValue",
          "type": "uint256"
        }
      ],
      "stateMutability": "view",
      "type": "function"
    },
    {
      "inputs": [
        {
          "internalType": "bytes32",
          "name": "_txId",
          "type": "bytes32"
        },
        {
          "internalType": "bool",
          "name": "_onAcceptance",
          "type": "bool"
        }
      ],
      "name": "getUnissuedExternalMessageValues",
      "outputs": [
        {
          "internalType": "uint256",
          "name": "totalValue",
          "type": "uint256"
        }
      ],
      "stateMutability": "view",
      "type": "function"
    },
    {
      "inputs": [
        {
          "internalType": "bytes32",
          "name": "_txId",
          "type": "bytes32"
        }
      ],
      "name": "getUnissuedMessageValues",
      "outputs": [
        {
          "internalType": "uint256",
          "name": "totalUnissuedValue",
          "type": "uint256"
        },
        {
          "internalType": "uint256",
          "name": "unissuedCount",
          "type": "uint256"
        }
      ],
      "stateMutability": "view",
      "type": "function"
    },
    {
      "inputs": [
        {
          "internalType": "address",
          "name": "ghost",
          "type": "address"
        }
      ],
      "name": "ghostNonce",
      "outputs": [
        {
          "internalType": "uint256",
          "name": "nonce",
          "type": "uint256"
        }
      ],
      "stateMutability": "view",
      "type": "function"
    },
    {
      "inputs": [
        {
          "internalType": "bytes32",
          "name": "role",
          "type": "bytes32"
        },
        {
          "internalType": "address",
          "name": "account",
          "type": "address"
        }
      ],
      "name": "grantRole",
      "outputs": [],
      "stateMutability": "nonpayable",
      "type": "function"
    },
    {
      "inputs": [
        {
          "internalType": "bytes32",
          "name": "_txId",
          "type": "bytes32"
        }
      ],
      "name": "hasExternalMessagesNotIssued",
      "outputs": [
        {
          "internalType": "bool",
          "name": "",
          "type": "bool"
        }
      ],
      "stateMutability": "view",
      "type": "function"
    },
    {
      "inputs": [
        {
          "internalType": "bytes32",
          "name": "_txId",
          "type": "bytes32"
        }
      ],
      "name": "hasMessagesOnAcceptance",
      "outputs": [
        {
          "internalType": "bool",
          "name": "",
          "type": "bool"
        }
      ],
      "stateMutability": "view",
      "type": "function"
    },
    {
      "inputs": [
        {
          "internalType": "bytes32",
          "name": "_txId",
          "type": "bytes32"
        }
      ],
      "name": "hasMessagesOnFinalization",
      "outputs": [
        {
          "internalType": "bool",
          "name": "",
          "type": "bool"
        }
      ],
      "stateMutability": "view",
      "type": "function"
    },
    {
      "inputs": [
        {
          "internalType": "bytes32",
          "name": "role",
          "type": "bytes32"
        },
        {
          "internalType": "address",
          "name": "account",
          "type": "address"
        }
      ],
      "name": "hasRole",
      "outputs": [
        {
          "internalType": "bool",
          "name": "",
          "type": "bool"
        }
      ],
      "stateMutability": "view",
      "type": "function"
    },
    {
      "inputs": [
        {
          "internalType": "address",
          "name": "_addressManager",
          "type": "address"
        },
        {
          "internalType": "uint256",
          "name": "_maxAllocatedMessages",
          "type": "uint256"
        }
      ],
      "name": "initialize",
      "outputs": [],
      "stateMutability": "nonpayable",
      "type": "function"
    },
    {
      "inputs": [
        {
          "internalType": "bytes32",
          "name": "",
          "type": "bytes32"
        },
        {
          "internalType": "uint256",
          "name": "",
          "type": "uint256"
        }
      ],
      "name": "isMessageIssued",
      "outputs": [
        {
          "internalType": "bool",
          "name": "",
          "type": "bool"
        }
      ],
      "stateMutability": "view",
      "type": "function"
    },
    {
      "inputs": [
        {
          "internalType": "bytes32",
          "name": "",
          "type": "bytes32"
        }
      ],
      "name": "issuedMessagesOnAcceptance",
      "outputs": [
        {
          "internalType": "uint256",
          "name": "",
          "type": "uint256"
        }
      ],
      "stateMutability": "view",
      "type": "function"
    },
    {
      "inputs": [
        {
          "internalType": "bytes32",
          "name": "",
          "type": "bytes32"
        }
      ],
      "name": "issuedMessagesOnFinalization",
      "outputs": [
        {
          "internalType": "uint256",
          "name": "",
          "type": "uint256"
        }
      ],
      "stateMutability": "view",
      "type": "function"
    },
    {
      "inputs": [
        {
          "internalType": "bytes32",
          "name": "_txId",
          "type": "bytes32"
        }
      ],
      "name": "markAllMessagesAsIssued",
      "outputs": [],
      "stateMutability": "nonpayable",
      "type": "function"
    },
    {
      "inputs": [],
      "name": "maxAllocatedMessages",
      "outputs": [
        {
          "internalType": "uint256",
          "name": "",
          "type": "uint256"
        }
      ],
      "stateMutability": "view",
      "type": "function"
    },
    {
      "inputs": [
        {
          "internalType": "bytes32",
          "name": "",
          "type": "bytes32"
        },
        {
          "internalType": "uint256",
          "name": "",
          "type": "uint256"
        }
      ],
      "name": "messagesForTransaction",
      "outputs": [
        {
          "internalType": "enum IMessages.MessageType",
          "name": "messageType",
          "type": "uint8"
        },
        {
          "internalType": "address",
          "name": "recipient",
          "type": "address"
        },
        {
          "internalType": "uint256",
          "name": "value",
          "type": "uint256"
        },
        {
          "internalType": "bytes",
          "name": "data",
          "type": "bytes"
        },
        {
          "internalType": "bool",
          "name": "onAcceptance",
          "type": "bool"
        },
        {
          "internalType": "uint256",
          "name": "saltNonce",
          "type": "uint256"
        }
      ],
      "stateMutability": "view",
      "type": "function"
    },
    {
      "inputs": [],
      "name": "minGasPerMessage",
      "outputs": [
        {
          "internalType": "uint256",
          "name": "",
          "type": "uint256"
        }
      ],
      "stateMutability": "view",
      "type": "function"
    },
    {
      "inputs": [],
      "name": "minGasToCatchAndHandle",
      "outputs": [
        {
          "internalType": "uint256",
          "name": "",
          "type": "uint256"
        }
      ],
      "stateMutability": "view",
      "type": "function"
    },
    {
      "inputs": [
        {
          "internalType": "bytes32",
          "name": "_txId",
          "type": "bytes32"
        }
      ],
      "name": "numOfMessagesIssuedOnAcceptance",
      "outputs": [
        {
          "internalType": "uint256",
          "name": "",
          "type": "uint256"
        }
      ],
      "stateMutability": "view",
      "type": "function"
    },
    {
      "inputs": [
        {
          "internalType": "bytes32",
          "name": "_txId",
          "type": "bytes32"
        }
      ],
      "name": "numOfMessagesIssuedOnFinalization",
      "outputs": [
        {
          "internalType": "uint256",
          "name": "",
          "type": "uint256"
        }
      ],
      "stateMutability": "view",
      "type": "function"
    },
    {
      "inputs": [],
      "name": "owner",
      "outputs": [
        {
          "internalType": "address",
          "name": "",
          "type": "address"
        }
      ],
      "stateMutability": "view",
      "type": "function"
    },
    {
      "inputs": [],
      "name": "pendingOwner",
      "outputs": [
        {
          "internalType": "address",
          "name": "",
          "type": "address"
        }
      ],
      "stateMutability": "view",
      "type": "function"
    },
    {
      "inputs": [
        {
          "internalType": "bytes32",
          "name": "_txId",
          "type": "bytes32"
        },
        {
          "internalType": "address",
          "name": "_ghostAddress",
          "type": "address"
        }
      ],
      "name": "processMessagesOnAcceptance",
      "outputs": [
        {
          "components": [
            {
              "internalType": "enum IMessages.MessageType",
              "name": "messageType",
              "type": "uint8"
            },
            {
              "internalType": "address",
              "name": "recipient",
              "type": "address"
            },
            {
              "internalType": "uint256",
              "name": "value",
              "type": "uint256"
            },
            {
              "internalType": "bytes",
              "name": "data",
              "type": "bytes"
            },
            {
              "internalType": "bool",
              "name": "onAcceptance",
              "type": "bool"
            },
            {
              "internalType": "uint256",
              "name": "saltNonce",
              "type": "uint256"
            }
          ],
          "internalType": "struct IMessages.SubmittedMessage[]",
          "name": "internalMessages",
          "type": "tuple[]"
        }
      ],
      "stateMutability": "nonpayable",
      "type": "function"
    },
    {
      "inputs": [
        {
          "internalType": "bytes32",
          "name": "_txId",
          "type": "bytes32"
        },
        {
          "internalType": "address",
          "name": "_ghostAddress",
          "type": "address"
        }
      ],
      "name": "processMessagesOnFinalization",
      "outputs": [
        {
          "components": [
            {
              "internalType": "enum IMessages.MessageType",
              "name": "messageType",
              "type": "uint8"
            },
            {
              "internalType": "address",
              "name": "recipient",
              "type": "address"
            },
            {
              "internalType": "uint256",
              "name": "value",
              "type": "uint256"
            },
            {
              "internalType": "bytes",
              "name": "data",
              "type": "bytes"
            },
            {
              "internalType": "bool",
              "name": "onAcceptance",
              "type": "bool"
            },
            {
              "internalType": "uint256",
              "name": "saltNonce",
              "type": "uint256"
            }
          ],
          "internalType": "struct IMessages.SubmittedMessage[]",
          "name": "internalMessages",
          "type": "tuple[]"
        }
      ],
      "stateMutability": "nonpayable",
      "type": "function"
    },
    {
      "inputs": [],
      "name": "renounceOwnership",
      "outputs": [],
      "stateMutability": "nonpayable",
      "type": "function"
    },
    {
      "inputs": [
        {
          "internalType": "bytes32",
          "name": "role",
          "type": "bytes32"
        },
        {
          "internalType": "address",
          "name": "callerConfirmation",
          "type": "address"
        }
      ],
      "name": "renounceRole",
      "outputs": [],
      "stateMutability": "nonpayable",
      "type": "function"
    },
    {
      "inputs": [
        {
          "internalType": "bytes32",
          "name": "role",
          "type": "bytes32"
        },
        {
          "internalType": "address",
          "name": "account",
          "type": "address"
        }
      ],
      "name": "revokeRole",
      "outputs": [],
      "stateMutability": "nonpayable",
      "type": "function"
    },
    {
      "inputs": [
        {
          "internalType": "address",
          "name": "_addressManager",
          "type": "address"
        }
      ],
      "name": "setAddressManager",
      "outputs": [],
      "stateMutability": "nonpayable",
      "type": "function"
    },
    {
      "inputs": [
        {
          "internalType": "address",
          "name": "caller",
          "type": "address"
        },
        {
          "internalType": "bool",
          "name": "authorized",
          "type": "bool"
        }
      ],
      "name": "setAuthorizedCaller",
      "outputs": [],
      "stateMutability": "nonpayable",
      "type": "function"
    },
    {
      "inputs": [
        {
          "internalType": "address[]",
          "name": "callers",
          "type": "address[]"
        },
        {
          "internalType": "bool",
          "name": "authorized",
          "type": "bool"
        }
      ],
      "name": "setAuthorizedCallers",
      "outputs": [],
      "stateMutability": "nonpayable",
      "type": "function"
    },
    {
      "inputs": [
        {
          "internalType": "uint256",
          "name": "_maxAllocatedMessages",
          "type": "uint256"
        }
      ],
      "name": "setMaxAllocatedMessages",
      "outputs": [],
      "stateMutability": "nonpayable",
      "type": "function"
    },
    {
      "inputs": [
        {
          "internalType": "uint256",
          "name": "_minGasPerMessage",
          "type": "uint256"
        }
      ],
      "name": "setMinGasPerMessage",
      "outputs": [],
      "stateMutability": "nonpayable",
      "type": "function"
    },
    {
      "inputs": [
        {
          "internalType": "uint256",
          "name": "_minGasToCatchAndHandle",
          "type": "uint256"
        }
      ],
      "name": "setMinGasToCatchAndHandle",
      "outputs": [],
      "stateMutability": "nonpayable",
      "type": "function"
    },
    {
      "inputs": [
        {
          "internalType": "bool",
          "name": "_useMinGasPerMessage",
          "type": "bool"
        }
      ],
      "name": "setUseMinGasPerMessage",
      "outputs": [],
      "stateMutability": "nonpayable",
      "type": "function"
    },
    {
      "inputs": [
        {
          "internalType": "bytes32",
          "name": "_txId",
          "type": "bytes32"
        },
        {
          "components": [
            {
              "internalType": "enum IMessages.MessageType",
              "name": "messageType",
              "type": "uint8"
            },
            {
              "internalType": "address",
              "name": "recipient",
              "type": "address"
            },
            {
              "internalType": "uint256",
              "name": "value",
              "type": "uint256"
            },
            {
              "internalType": "bytes",
              "name": "data",
              "type": "bytes"
            },
            {
              "internalType": "bool",
              "name": "onAcceptance",
              "type": "bool"
            },
            {
              "internalType": "uint256",
              "name": "saltNonce",
              "type": "uint256"
            }
          ],
          "internalType": "struct IMessages.SubmittedMessage[]",
          "name": "_messages",
          "type": "tuple[]"
        }
      ],
      "name": "storeMessagesForTransaction",
      "outputs": [],
      "stateMutability": "nonpayable",
      "type": "function"
    },
    {
      "inputs": [
        {
          "internalType": "bytes4",
          "name": "interfaceId",
          "type": "bytes4"
        }
      ],
      "name": "supportsInterface",
      "outputs": [
        {
          "internalType": "bool",
          "name": "",
          "type": "bool"
        }
      ],
      "stateMutability": "view",
      "type": "function"
    },
    {
      "inputs": [
        {
          "internalType": "address",
          "name": "newOwner",
          "type": "address"
        }
      ],
      "name": "transferOwnership",
      "outputs": [],
      "stateMutability": "nonpayable",
      "type": "function"
    },
    {
      "inputs": [
        {
          "internalType": "bytes32",
          "name": "",
          "type": "bytes32"
        }
      ],
      "name": "txHasMessagesOnAcceptance",
      "outputs": [
        {
          "internalType": "bool",
          "name": "",
          "type": "bool"
        }
      ],
      "stateMutability": "view",
      "type": "function"
    },
    {
      "inputs": [
        {
          "internalType": "bytes32",
          "name": "",
          "type": "bytes32"
        }
      ],
      "name": "txHasMessagesOnFinalization",
      "outputs": [
        {
          "internalType": "bool",
          "name": "",
          "type": "bool"
        }
      ],
      "stateMutability": "view",
      "type": "function"
    },
    {
      "inputs": [
        {
          "internalType": "bytes32",
          "name": "_txId",
          "type": "bytes32"
        },
        {
          "internalType": "uint256",
          "name": "_numOfMessagesIssued",
          "type": "uint256"
        },
        {
          "internalType": "bool",
          "name": "_isAcceptance",
          "type": "bool"
        }
      ],
      "name": "updateNumOfMessagesIssued",
      "outputs": [],
      "stateMutability": "nonpayable",
      "type": "function"
    },
    {
      "inputs": [],
      "name": "useMinGasPerMessage",
      "outputs": [
        {
          "internalType": "bool",
          "name": "",
          "type": "bool"
        }
      ],
      "stateMutability": "view",
      "type": "function"
    },
    {
      "stateMutability": "payable",
      "type": "receive"
    }
  ],
  "bytecode": "0x60808060405234601557612785908161001b8239f35b600080fdfe608080604052600436101561001d575b50361561001b57600080fd5b005b60003560e01c90816301ffc9a7146116a65750806302fae85d1461167e5780630652b57a1461163b578063090263a7146115655780631444d2e21461151e5780631684997914611459578063182b304e146113d8578063248a9ca3146113b257806325e66885146113785780632f2ff15d1461134757806336568abe1461130157806338444e05146112a55780633ab76e9f1461127c5780633ab98c8a146111ce578063404f7db714610b19578063414261f1146111ab57806342b8bfbf14610a10578063454bbd291461112d5780634af6b23f146110745780634fbd51fe14611056578063536fff6c146110175780635454a18f14610fb85780635af6724614610ea65780635c46384814610a5d57806361c53f3d14610e375780636221578814610d88578063629fcfe614610d6a5780636769caa914610caf578063715018a614610c2e578063731134d914610bf6578063793c97af14610b9a57806379ba509714610b4a5780637bd9024d14610b195780638da5cb5b14610ae357806391d1485414610a895780639549390d14610a5d578063a217fddf14610a41578063a2fd112914610286578063aa14aa7314610a10578063aa2cbb2b146109f2578063b9899c7c146105de578063bf67fb1114610597578063cd6dc687146103a5578063d547741f1461036f578063e30c397814610339578063f2fde38b146102b2578063f4b001cb146102865763ff24908b1461023a573861000f565b34610281576020366003190112610281576004356102566120aa565b806001557f793474085a3b2169e01d60d064f31a4165fd3f26b4985be48ca89f73ccc3ed3c600080a2005b600080fd5b3461028157602036600319011261028157600435600052600a6020526020604060002054604051908152f35b34610281576020366003190112610281576102cb6116f9565b6102d36120aa565b60008051602061273083398151915280546001600160a01b0319166001600160a01b039283169081179091556000805160206126d0833981519152549091167f38d16b8cac22d99fc7c124b9cd0de2d3fa1faef420bfe791d8c362d765e22700600080a3005b3461028157600036600319011261028157600080516020612730833981519152546040516001600160a01b039091168152602090f35b346102815760403660031901126102815761001b60043561038e61170f565b906103a061039b82611ad3565b6120cb565b6121be565b34610281576040366003190112610281576103be6116f9565b602435600080516020612710833981519152549160ff8360401c1615926001600160401b0381168015908161058f575b6001149081610585575b15908161057c575b5061056b5767ffffffffffffffff198116600117600080516020612710833981519152558361053e575b506104336126a1565b61043b6126a1565b33156105285761044a33612633565b6104526126a1565b61045a6126a1565b6104626126a1565b60017f9b779b17422d0df92223018b32b4d1fa46e071723d6817e2486d003becc55f005561048e6126a1565b600080546001600160a01b0319166001600160a01b03929092169190911790558015610520575b60015562030d40600255620186a06003556104cc57005b60ff60401b196000805160206127108339815191525416600080516020612710833981519152557fc7f505b2f371ae2175ee4913f4499e1f2633a7b5936321eed1cdaeb6115181d2602060405160018152a1005b5060146104b5565b631e4fbdf760e01b600052600060045260246000fd5b68ffffffffffffffffff19166801000000000000000117600080516020612710833981519152558361042a565b63f92ee8a960e01b60005260046000fd5b90501585610400565b303b1591506103f8565b8591506103ee565b34610281576020366003190112610281576004356105b36120aa565b806002557f7d17c3883cb42fae97c4cf9018f8584b90230610fc305ca7cc3c64e67bf0d86c600080a2005b34610281576040366003190112610281576004356024356001600160401b03811161028157610611903690600401611725565b90916001600160a01b0361062361225e565b16331415806109d9575b6109c8576000916000805b8281101561069a5760009461065d60806106578460051b8a018a612071565b01612086565b1561068b5750600190604082965b86815260066020528181208382526020522060ff19815416905501610638565b9491506001906040829361066b565b506106c26106e1929484600052600760205260406000209060ff801983541691151516179055565b82600052600860205260406000209060ff801983541691151516179055565b6000526005602052604060002091600160401b82116109b25782548284558083106108e8575b506000928352602083209290805b83831061071e57005b6107288183612071565b803560028110156102815786546000919060ff610100600160a81b0361075060208701611a2a565b60081b1692169060018060a81b031916171787556040820135600188015560028701906060830135601e19843603018112156108e4578301908135916001600160401b0383116108e45782360360208201136108e4576107b084546118a5565b601f81116108a9575b508190601f841160011461083757938360019794846005989460209860a0979361082a575b505050600019600383901b1c191690881b1790555b61081761080260808301612086565b60038c019060ff801983541691151516179055565b0135600489015501950192019193610715565b0188013591508e806107de565b90601f19841685845260208420935b81811061088f57508460a094600598946020989460019b988c9510610873575b505050811b0190556107f3565b01880135600019600384901b60f8161c191690558d8080610866565b919360206001819282888801013581550195019201610846565b6108d49085845260208420601f860160051c810191602087106108da575b601f0160051c0190612093565b8a6107b9565b90915081906108c7565b5080fd5b8060050290600582040361099c578260050260058104840361099c5784600052602060002091820191015b8181106109205750610707565b80600060059255600060018201556002810161093c81546118a5565b9081610959575b5050600060038201556000600482015501610913565b81601f600093116001146109715750555b8680610943565b8183526020832061098c91601f01861c810190600101612093565b808252816020812091555561096a565b634e487b7160e01b600052601160045260246000fd5b634e487b7160e01b600052604160045260246000fd5b634782018760e01b60005260046000fd5b5033600052600b60205260ff604060002054161561062d565b34610281576000366003190112610281576020600154604051908152f35b34610281576020366003190112610281576004356000526008602052602060ff604060002054166040519015158152f35b3461028157600036600319011261028157602060405160008152f35b346102815760203660031901126102815760043560005260096020526020604060002054604051908152f35b3461028157604036600319011261028157610aa261170f565b6004356000526000805160206126f083398151915260205260406000209060018060a01b0316600052602052602060ff604060002054166040519015158152f35b34610281576000366003190112610281576000805160206126d0833981519152546040516001600160a01b039091168152602090f35b34610281576020366003190112610281576004356000526007602052602060ff604060002054166040519015158152f35b346102815760003660031901126102815760008051602061273083398151915254336001600160a01b0390911603610b855761001b33612633565b63118cdaa760e01b6000523360045260246000fd5b346102815760203660031901126102815760043580151580910361028157610bc06120aa565b60ff19600c541660ff821617600c557fbde62b41f294597ebf7561ba729aa2f6c859938e08c1663ca28c1dac6f42c1bb600080a2005b3461028157610c043661185d565b906000526006602052604060002090600052602052602060ff604060002054166040519015158152f35b3461028157600036600319011261028157610c476120aa565b60008051602061273083398151915280546001600160a01b03199081169091556000805160206126d0833981519152805491821690556000906001600160a01b03167f8be0079c531659141344cd1fd0a4f28419497f9722a3daafe3b4186f6b6457e08280a3005b34610281576020366003190112610281576004356001600160a01b03610cd361225e565b1633141580610d51575b6109c857806000526005602052604060002060005b815481101561001b5760019083600052600660205260406000208160005260205260ff6040600020541615610d28575b01610cf2565b83600052600660205260406000208160005260205260406000208260ff19825416179055610d22565b5033600052600b60205260ff6040600020541615610cdd565b34610281576000366003190112610281576020600254604051908152f35b3461028157610d963661185d565b906000526005602052604060002090815481101561028157610db791611873565b508054600182015491604051610ddb81610dd481600286016118df565b038261197d565b610e26600460ff600385015416930154916040519585610dff8860ff819916611764565b60081c6001600160a01b03166020870152604086015260c060608601819052850190611771565b911515608084015260a08301520390f35b3461028157604036600319011261028157610e5061170f565b6001600160a01b03610e6061225e565b1633141580610e8d575b6109c857610e7d610e8991600435611eb6565b604051918291826117b2565b0390f35b5033600052600b60205260ff6040600020541615610e6a565b3461028157604036600319011261028157600435610ec2611755565b9060009080600052600560205260406000206000918154925b838110610eed57602085604051908152f35b81600052600660205260406000208160005260205260ff604060002054161580610f83575b80610f65575b80610f4e575b610f2b575b600101610edb565b93610f4660019182610f3d8887611873565b50015490611a3e565b949050610f23565b506001610f5b8285611873565b5001541515610f1e565b5060ff6003610f748386611873565b50015416151586151514610f18565b5060ff610f908285611873565b5054166002811015610fa25715610f12565b634e487b7160e01b600052602160045260246000fd5b3461028157604036600319011261028157610fd161170f565b6001600160a01b03610fe161225e565b1633141580610ffe575b6109c857610e7d610e8991600435611cd9565b5033600052600b60205260ff6040600020541615610feb565b34610281576020366003190112610281576001600160a01b036110386116f9565b16600052600b602052602060ff604060002054166040519015158152f35b34610281576000366003190112610281576020600354604051908152f35b34610281576060366003190112610281576024356004356044358015158103610281576001600160a01b036110a761225e565b1633141580611114575b6109c857816000526005602052826040600020541061110357156110eb5760005260096020526110e76040600020918254611a3e565b9055005b600052600a6020526110e76040600020918254611a3e565b632809de1560e11b60005260046000fd5b5033600052600b60205260ff60406000205416156110b1565b34610281576040366003190112610281576111466116f9565b7fad857fa38c9319cb80848f1ef2f924383b90297eb5d71755738ff037d100faa16020611171611755565b9261117a6120aa565b6001600160a01b03166000818152600b835260409020805460ff191660ff86151516179055926040519015158152a2005b3461028157600036600319011261028157602060ff600c54166040519015158152f35b34610281576020366003190112610281576004356000809180835260056020526040832083918154925b83811061120f576040858782519182526020820152f35b81600052600660205260406000208160005260205260ff604060002054161580611265575b611241575b6001016111f8565b949361125d61125760019283610f3d8a88611873565b95611af4565b959050611239565b5060016112728285611873565b5001541515611234565b34610281576000366003190112610281576000546040516001600160a01b039091168152602090f35b34610281576040366003190112610281576112be61170f565b6001600160a01b036112ce61225e565b16331415806112e8575b6109c85761001b90600435611b03565b5033600052600b60205260ff60406000205416156112d8565b346102815760403660031901126102815761131a61170f565b336001600160a01b038216036113365761001b906004356121be565b63334bd91960e11b60005260046000fd5b346102815760403660031901126102815761001b60043561136661170f565b9061137361039b82611ad3565b612115565b34610281576020366003190112610281576001600160a01b036113996116f9565b1660005260046020526020604060002054604051908152f35b346102815760203660031901126102815760206113d0600435611ad3565b604051908152f35b346102815760203660031901126102815760043560005260056020526040600020805461140481611a4b565b91611412604051938461197d565b818352602083019060005260206000206000915b83831061143b5760405180610e8987826117b2565b6005602060019261144b85611a62565b815201920192019190611426565b3461028157604036600319011261028157611472611755565b6000600435600052600560205260406000206000908054915b82811061149d57602084604051908152f35b60ff6114a98284611873565b5054166002811015610fa2571580611500575b806114e9575b6114cf575b60010161148b565b926114e160019182610f3d8786611873565b9390506114c7565b5060016114f68284611873565b50015415156114c2565b5060ff600361150f8385611873565b500154161515851515146114bc565b346102815760203660031901126102815760043561153a6120aa565b806003557fa178f61ad9dc567929dd4655ec5b9534714a6b267d0e91a17808c9a8f7e5b3a6600080a2005b34610281576040366003190112610281576004356001600160401b03811161028157611595903690600401611725565b61159d611755565b6115a56120aa565b8015159060005b8381106115b557005b6001906001600160a01b036115d36115ce83888a611a1a565b611a2a565b16600052600b6020526115f68360406000209060ff801983541691151516179055565b818060a01b0361160a6115ce83888a611a1a565b167fad857fa38c9319cb80848f1ef2f924383b90297eb5d71755738ff037d100faa16020604051878152a2016115ac565b34610281576020366003190112610281576116546116f9565b61165c6120aa565b600080546001600160a01b0319166001600160a01b0392909216919091179055005b3461028157602036600319011261028157602061169c60043561199e565b6040519015158152f35b34610281576020366003190112610281576004359063ffffffff60e01b821680920361028157602091637965db0b60e01b81149081156116e8575b5015158152f35b6301ffc9a760e01b149050836116e1565b600435906001600160a01b038216820361028157565b602435906001600160a01b038216820361028157565b9181601f84011215610281578235916001600160401b038311610281576020808501948460051b01011161028157565b60243590811515820361028157565b906002821015610fa25752565b919082519283825260005b84811061179d575050826000602080949584010152601f8019910116010190565b8060208092840101518282860101520161177c565b602081016020825282518091526040820191602060408360051b8301019401926000915b8383106117e557505050505090565b9091929394602080600192603f19858203018652885190611807818351611764565b848060a01b038383015116838201526040820151604082015260a08061183c606085015160c0606086015260c0850190611771565b936080810151151560808501520151910152970193019301919392906117d6565b6040906003190112610281576004359060243590565b805482101561188f576000526005602060002091020190600090565b634e487b7160e01b600052603260045260246000fd5b90600182811c921680156118d5575b60208310146118bf57565b634e487b7160e01b600052602260045260246000fd5b91607f16916118b4565b600092918154916118ef836118a5565b8083529260018116908115611945575060011461190b57505050565b60009081526020812093945091925b83831061192b575060209250010190565b60018160209294939454838587010152019101919061191a565b915050602093945060ff929192191683830152151560051b010190565b60c081019081106001600160401b038211176109b257604052565b90601f801991011681019081106001600160401b038211176109b257604052565b6000818152600560205260408120805492915b8381106119c15750505050600090565b60ff6119cd8284611873565b5054166002811015610fa25715806119f5575b6119ec576001016119b1565b50505050600190565b5082600052600660205260406000208160005260205260ff60406000205416156119e0565b919081101561188f5760051b0190565b356001600160a01b03811681036102815790565b9190820180921161099c57565b6001600160401b0381116109b25760051b60200190565b90604051611a6f81611962565b809280549060ff8216906002821015610fa25760a0926004928552600180851b039060081c16602085015260018101546040850152604051611ab881610dd481600286016118df565b606085015260ff600382015416151560808501520154910152565b6000526000805160206126f083398151915260205260016040600020015490565b600019811461099c5760010190565b9190918060005260056020526040600020805415611c465760009160009160019460005b8254811015611c39578615611bf957611b408184611873565b5060ff8154166002811015610fa2571580611bd4575b611b64575b50600101611b27565b9650611b71848989612315565b968715611b5b57600360ff91866000999499526006602052604060002089600052602052604060002060018419825416179055015416600014611bc157611bb9600191611af4565b955b90611b5b565b9493611bce600191611af4565b94611bbb565b5084600052600660205260406000208260005260205260ff6040600020541615611b56565b50955050919092505b816000526009602052611c1b6040600020918254611a3e565b9055600052600a602052611c356040600020918254611a3e565b9055565b5095505091909250611c02565b50509050565b90611c5682611a4b565b611c63604051918261197d565b8281528092611c74601f1991611a4b565b019060005b828110611c8557505050565b602090604051611c9481611962565b600081526000838201526000604082015260608082015260006080820152600060a082015282828501015201611c79565b805182101561188f5760209160051b010190565b919091806000526005602052604060002080548015611ead57600090815b818110611e2e575050611d0990611c4c565b9360008092600190825b8154811015611e1857611d268183611873565b5060ff60038201541680611df3575b611d43575b50600101611d13565b60ff8154166002811015610fa25788918791611dbe5785611d6c575b5050506001905b90611d3a565b611d77939550612315565b9182611d86575b868538611d5f565b94611db660019188600052600660205260406000208860005260205260406000208360ff19825416179055611af4565b959050611d7e565b611ded9250600193969150611dd290611a62565b611ddc828d611cc5565b52611de7818c611cc5565b50611af4565b93611d66565b5087600052600660205260406000208260005260205260ff6040600020541615611d35565b5050505050906000526009602052604060002055565b611e388185611873565b5060ff8154166002811015610fa2576001149081611e9e575b5080611e79575b611e65575b600101611cf7565b91611e71600191611af4565b929050611e5d565b5084600052600660205260406000208160005260205260ff6040600020541615611e58565b60ff9150600301541638611e51565b50606093505050565b919091806000526005602052604060002080548015611ead57600090815b818110611ff1575050611ee690611c4c565b9360008092600190825b8154811015611fdb57611f038183611873565b5060ff6003820154161580611fb6575b611f21575b50600101611ef0565b60ff8154166002811015610fa25788918791611f9c5785611f4a575b5050506001905b90611f18565b611f55939550612315565b9182611f64575b868538611f3d565b94611f9460019188600052600660205260406000208860005260205260406000208360ff19825416179055611af4565b959050611f5c565b611fb09250600193969150611dd290611a62565b93611f44565b5087600052600660205260406000208260005260205260ff6040600020541615611f13565b505050505090600052600a602052604060002055565b611ffb8185611873565b5060ff8154166002811015610fa2576001149081612061575b508061203c575b612028575b600101611ed4565b91612034600191611af4565b929050612020565b5084600052600660205260406000208160005260205260ff604060002054161561201b565b60ff915060030154161538612014565b90359060be1981360301821215610281570190565b3580151581036102815790565b81811061209e575050565b60008155600101612093565b6000805160206126d0833981519152546001600160a01b03163303610b8557565b60008181526000805160206126f08339815191526020908152604080832033845290915290205460ff16156120fd5750565b63e2517d3f60e01b6000523360045260245260446000fd5b60008181526000805160206126f0833981519152602090815260408083206001600160a01b038616845290915290205460ff166121b75760008181526000805160206126f0833981519152602090815260408083206001600160a01b0395909516808452949091528120805460ff19166001179055339291907f2f8788117e7eff1d82e926ec794901d17c78024a50270940304540a733656f0d9080a4600190565b5050600090565b60008181526000805160206126f0833981519152602090815260408083206001600160a01b038616845290915290205460ff16156121b75760008181526000805160206126f0833981519152602090815260408083206001600160a01b0395909516808452949091528120805460ff19169055339291907ff6391f5c32d9c69d2a47ea670b442974b53935d1edc7fd64eb21e047a839171b9080a4600190565b600054604051631bae711d60e21b8152602060048201819052600d60248301526c21b7b739b2b739bab9a6b0b4b760991b60448301529091829060649082906001600160a01b03165afa908115612309576000916122c4575b506001600160a01b031690565b6020813d602011612301575b816122dd6020938361197d565b810103126108e45751906001600160a01b03821682036122fe5750386122b7565b80fd5b3d91506122d0565b6040513d6000823e3d90fd5b90929160018060a01b03825460081c16916002810194604051602081019085825260408082015261235b8161234d606082018b6118df565b03601f19810183528261197d565b5190209360ff600c541660001461262b5761237b60025460035490611a3e565b5a9081106125f25750600183015480612565575b6001600160a01b0361239f61225e565b169260018060a01b031692836000526004602052604060002054916001830180931161099c576124136020946124056124449c6040519687936303fb17f160e41b8a86015260248501528c604485015260648401526080608484015260a48301906118df565b03601f19810185528461197d565b6000604051809b81958294639e0c615f60e01b84528960048501526024840152606060448401526064830190611771565b03925af195861561230957600096612526575b5085156124d35760ff916003916000526004602052604060002061247b8154611af4565b9055015416156124ac577fd47891a6ff5220ec24aa936c97085771a5c665b9b42f318ee779ff7dba9afedf600080a3565b7f1a2b93b175bf31d44b127b5c4c0f72cbf128f5230ad594a52a00dfa559c96b51600080a3565b50507f5ae8e754fbc8b7b56c89e264bdcd8bb847036b23ac1a0f791f48b62438f2bab960606040516020815260146020820152731a185b991b1953dc0818d85b1b0819985a5b195960621b6040820152a3565b6020969196813d60201161255d575b816125426020938361197d565b810103126108e457519081151582036122fe57509438612457565b3d9150612535565b806001600160a01b0361257661225e565b1631101561238f5750505050909192507f5ae8e754fbc8b7b56c89e264bdcd8bb847036b23ac1a0f791f48b62438f2bab9608060405160208152602660208201527f496e73756666696369656e742062616c616e636520666f72206d6573736167656040820152652076616c756560d01b6060820152a3600090565b9150507f97a034ff8fab7e4de24992575acaa9eb95a9c48411292c420aa711b24405811c929394955060209150604051908152a3600090565b60035461237b565b60008051602061273083398151915280546001600160a01b03199081169091556000805160206126d083398151915280549182166001600160a01b0393841690811790915591167f8be0079c531659141344cd1fd0a4f28419497f9722a3daafe3b4186f6b6457e0600080a3565b60ff6000805160206127108339815191525460401c16156126be57565b631afcd79f60e31b60005260046000fdfe9016d09d72d40fdae2fd8ceac6b6234c7706214fd39c1cd1e609a0528c19930002dd7bc7dec4dceedda775e58dd541e08a116c6c53815c0bd028192f7b626800f0c57e16840df040f15088dc2f81fe391c3923bec73e23a9662efc9c229c6a00237e158222e3e6968b72b9db0d8043aacf074ad9f650f0d1606b4d82ee432c00a2646970667358221220346c537c96156e2f2d198b684b0c0621d171fa88acb3ba6ca0f937dc76f0bb4864736f6c634300081c0033",
  "linkReferences": {},
  "deployedLinkReferences": {}
}