{
  "_format": "hh-sol-artifact-1",
  "contractName": "FeesVerifier",
  "sourceName": "contracts/fees/FeesVerifier.sol",
  "abi": [
    {
      "inputs": [],
      "name": "InvalidAppealRounds",
      "type": "error"
    },
    {
      "inputs": [],
      "name": "InvalidNumOfValidators",
      "type": "error"
    },
    {
      "inputs": [
        {
          "components": [
            {
              "internalType": "uint256",
              "name": "leaderTimeoutFee",
              "type": "uint256"
            },
            {
              "internalType": "uint256",
              "name": "validatorsTimeoutFee",
              "type": "uint256"
            },
            {
              "internalType": "uint256",
              "name": "appealRounds",
              "type": "uint256"
            },
            {
              "internalType": "uint256",
              "name": "rollupUnifiedBudget",
              "type": "uint256"
            },
            {
              "internalType": "uint256",
              "name": "rollupUnifiedConsumed",
              "type": "uint256"
            },
            {
              "internalType": "uint256",
              "name": "totalMessageFees",
              "type": "uint256"
            },
            {
              "internalType": "uint256[]",
              "name": "rotations",
              "type": "uint256[]"
            }
          ],
          "internalType": "struct IFeeManager.FeesDistribution",
          "name": "_feesDistribution",
          "type": "tuple"
        },
        {
          "internalType": "uint256",
          "name": "_numOfValidators",
          "type": "uint256"
        },
        {
          "internalType": "uint256",
          "name": "round",
          "type": "uint256"
        },
        {
          "internalType": "uint256[]",
          "name": "validatorsForRounds",
          "type": "uint256[]"
        }
      ],
      "name": "calculateRoundFees",
      "outputs": [
        {
          "internalType": "uint256",
          "name": "totalFeesToPay",
          "type": "uint256"
        }
      ],
      "stateMutability": "pure",
      "type": "function"
    },
    {
      "inputs": [
        {
          "internalType": "uint256",
          "name": "_round",
          "type": "uint256"
        },
        {
          "internalType": "uint256",
          "name": "_appealRounds",
          "type": "uint256"
        }
      ],
      "name": "checkFeesForNewRound",
      "outputs": [
        {
          "internalType": "bool",
          "name": "feesForNewRoundApproved",
          "type": "bool"
        }
      ],
      "stateMutability": "pure",
      "type": "function"
    }
  ],
  "bytecode": "0x608080604052346015576104ea908161001b8239f35b600080fdfe6080604052600436101561001257600080fd5b60003560e01c8063114bed011461033b5763306f0a861461003257600080fd5b346103205760803660031901126103205760043567ffffffffffffffff81116103205760e06003198236030112610320576040519060e0820182811067ffffffffffffffff8211176103255760405280600401358252602082019160248201358352604081019160448101358352606481013560608301526084810135608083015260a481013560a083015260c48101359067ffffffffffffffff82116103205760046100e29236920101610380565b9260c08201938452602435906044359260643567ffffffffffffffff811161032057610112903690600401610380565b93806102c657506101238484610445565b9261012e848661041b565b51036102b557845186515160001981019190821161023957036102a4576000610157848661041b565b5187518051156102905760200151916001830180931161027c57509061018e61019492610188855191875190610408565b906103fb565b90610408565b600194859485925b88518060011b9080820460021490151715610239578811610266576101ca6101c489846103fb565b8461041b565b516001891661024f578a518051861061020e575b50610208916101886101fc610202935b6101888a51918c5190610408565b8a610408565b976104a5565b9661019c565b9461022491985061021e816104a5565b9561041b565b516001810180911161023957966102086101de565b634e487b7160e01b600052601160045260246000fd5b9650610202610208916101886101fc60019a6101ee565b975050505050505050602091505b604051908152f35b634e487b7160e01b81526011600452602490fd5b634e487b7160e01b83526032600452602483fd5b632b4f002760e01b60005260046000fd5b63c4be27c560e01b60005260046000fd5b925094935060001982018281116102395760209561030661018e946101889361031198519081518110600014610316576102ff9161041b565b519661041b565b519051925190610408565b610274565b505060009661041b565b600080fd5b634e487b7160e01b600052604160045260246000fd5b34610320576040366003190112610320576004356103606024359160018116906103fb565b8160011b9180830460021490151715610239576020916040519111158152f35b9080601f830112156103205781359167ffffffffffffffff8311610325578260051b9060405193601f19603f840116850185811067ffffffffffffffff82111761032557604052845260208085019282010192831161032057602001905b8282106103eb5750505090565b81358152602091820191016103de565b9190820180921161023957565b8181029291811591840414171561023957565b805182101561042f5760209160051b010190565b634e487b7160e01b600052603260045260246000fd5b90805160001981019081116102395761045e908261041b565b5182116102b55780519160005b8381106104845750505060001981019081116102395790565b8161048f828561041b565b51101561049e5760010161046b565b9250505090565b6000198114610239576001019056fea2646970667358221220bbec961853859b5251347b5a4f17adb572a83909af2d1e4082db167a2dc0fdb564736f6c634300081c0033",
  "linkReferences": {},
  "deployedLinkReferences": {}
}