{
  "_format": "hh-sol-artifact-1",
  "contractName": "FeesProcessor",
  "sourceName": "contracts/fees/FeesProcessor.sol",
  "abi": [
    {
      "inputs": [],
      "name": "AccessControlBadConfirmation",
      "type": "error"
    },
    {
      "inputs": [
        {
          "internalType": "address",
          "name": "account",
          "type": "address"
        },
        {
          "internalType": "bytes32",
          "name": "neededRole",
          "type": "bytes32"
        }
      ],
      "name": "AccessControlUnauthorizedAccount",
      "type": "error"
    },
    {
      "inputs": [],
      "name": "InvalidInitialization",
      "type": "error"
    },
    {
      "inputs": [],
      "name": "NotInitializing",
      "type": "error"
    },
    {
      "inputs": [],
      "name": "OnlyFeeManager",
      "type": "error"
    },
    {
      "inputs": [
        {
          "internalType": "address",
          "name": "owner",
          "type": "address"
        }
      ],
      "name": "OwnableInvalidOwner",
      "type": "error"
    },
    {
      "inputs": [
        {
          "internalType": "address",
          "name": "account",
          "type": "address"
        }
      ],
      "name": "OwnableUnauthorizedAccount",
      "type": "error"
    },
    {
      "inputs": [],
      "name": "ReentrancyGuardReentrantCall",
      "type": "error"
    },
    {
      "anonymous": false,
      "inputs": [
        {
          "indexed": true,
          "internalType": "bytes32",
          "name": "txId",
          "type": "bytes32"
        },
        {
          "indexed": true,
          "internalType": "uint256",
          "name": "round",
          "type": "uint256"
        },
        {
          "indexed": true,
          "internalType": "address",
          "name": "appealer",
          "type": "address"
        },
        {
          "indexed": false,
          "internalType": "uint256",
          "name": "bondAmount",
          "type": "uint256"
        },
        {
          "indexed": false,
          "internalType": "bool",
          "name": "success",
          "type": "bool"
        },
        {
          "indexed": false,
          "internalType": "uint256",
          "name": "returnAmount",
          "type": "uint256"
        }
      ],
      "name": "AppealBondResolved",
      "type": "event"
    },
    {
      "anonymous": false,
      "inputs": [
        {
          "indexed": false,
          "internalType": "uint64",
          "name": "version",
          "type": "uint64"
        }
      ],
      "name": "Initialized",
      "type": "event"
    },
    {
      "anonymous": false,
      "inputs": [
        {
          "indexed": true,
          "internalType": "address",
          "name": "previousOwner",
          "type": "address"
        },
        {
          "indexed": true,
          "internalType": "address",
          "name": "newOwner",
          "type": "address"
        }
      ],
      "name": "OwnershipTransferStarted",
      "type": "event"
    },
    {
      "anonymous": false,
      "inputs": [
        {
          "indexed": true,
          "internalType": "address",
          "name": "previousOwner",
          "type": "address"
        },
        {
          "indexed": true,
          "internalType": "address",
          "name": "newOwner",
          "type": "address"
        }
      ],
      "name": "OwnershipTransferred",
      "type": "event"
    },
    {
      "anonymous": false,
      "inputs": [
        {
          "indexed": true,
          "internalType": "bytes32",
          "name": "role",
          "type": "bytes32"
        },
        {
          "indexed": true,
          "internalType": "bytes32",
          "name": "previousAdminRole",
          "type": "bytes32"
        },
        {
          "indexed": true,
          "internalType": "bytes32",
          "name": "newAdminRole",
          "type": "bytes32"
        }
      ],
      "name": "RoleAdminChanged",
      "type": "event"
    },
    {
      "anonymous": false,
      "inputs": [
        {
          "indexed": true,
          "internalType": "bytes32",
          "name": "role",
          "type": "bytes32"
        },
        {
          "indexed": true,
          "internalType": "address",
          "name": "account",
          "type": "address"
        },
        {
          "indexed": true,
          "internalType": "address",
          "name": "sender",
          "type": "address"
        }
      ],
      "name": "RoleGranted",
      "type": "event"
    },
    {
      "anonymous": false,
      "inputs": [
        {
          "indexed": true,
          "internalType": "bytes32",
          "name": "role",
          "type": "bytes32"
        },
        {
          "indexed": true,
          "internalType": "address",
          "name": "account",
          "type": "address"
        },
        {
          "indexed": true,
          "internalType": "address",
          "name": "sender",
          "type": "address"
        }
      ],
      "name": "RoleRevoked",
      "type": "event"
    },
    {
      "anonymous": false,
      "inputs": [
        {
          "indexed": true,
          "internalType": "bytes32",
          "name": "txId",
          "type": "bytes32"
        },
        {
          "indexed": true,
          "internalType": "uint256",
          "name": "round",
          "type": "uint256"
        },
        {
          "indexed": true,
          "internalType": "address",
          "name": "validator",
          "type": "address"
        },
        {
          "indexed": false,
          "internalType": "uint256",
          "name": "feeAmount",
          "type": "uint256"
        },
        {
          "indexed": false,
          "internalType": "bool",
          "name": "isLeader",
          "type": "bool"
        }
      ],
      "name": "ValidatorFeeDistributed",
      "type": "event"
    },
    {
      "anonymous": false,
      "inputs": [
        {
          "indexed": true,
          "internalType": "bytes32",
          "name": "txId",
          "type": "bytes32"
        },
        {
          "indexed": true,
          "internalType": "uint256",
          "name": "round",
          "type": "uint256"
        },
        {
          "indexed": true,
          "internalType": "address",
          "name": "validator",
          "type": "address"
        },
        {
          "indexed": false,
          "internalType": "uint256",
          "name": "penaltyAmount",
          "type": "uint256"
        }
      ],
      "name": "ValidatorPenaltyRecorded",
      "type": "event"
    },
    {
      "inputs": [],
      "name": "DEFAULT_ADMIN_ROLE",
      "outputs": [
        {
          "internalType": "bytes32",
          "name": "",
          "type": "bytes32"
        }
      ],
      "stateMutability": "view",
      "type": "function"
    },
    {
      "inputs": [],
      "name": "acceptOwnership",
      "outputs": [],
      "stateMutability": "nonpayable",
      "type": "function"
    },
    {
      "inputs": [
        {
          "internalType": "bytes32",
          "name": "txId",
          "type": "bytes32"
        },
        {
          "internalType": "address",
          "name": "validator",
          "type": "address"
        }
      ],
      "name": "distributedFeesPerValidatorForTx",
      "outputs": [
        {
          "internalType": "uint256",
          "name": "finalFees",
          "type": "uint256"
        }
      ],
      "stateMutability": "view",
      "type": "function"
    },
    {
      "inputs": [],
      "name": "feeManager",
      "outputs": [
        {
          "internalType": "contract IFeeManager",
          "name": "",
          "type": "address"
        }
      ],
      "stateMutability": "view",
      "type": "function"
    },
    {
      "inputs": [],
      "name": "feeRecorder",
      "outputs": [
        {
          "internalType": "contract IFeesRecorder",
          "name": "",
          "type": "address"
        }
      ],
      "stateMutability": "view",
      "type": "function"
    },
    {
      "inputs": [
        {
          "internalType": "bytes32",
          "name": "txId",
          "type": "bytes32"
        },
        {
          "internalType": "uint256",
          "name": "round",
          "type": "uint256"
        }
      ],
      "name": "feesToReturnToAppealer",
      "outputs": [
        {
          "internalType": "uint256",
          "name": "totalRewards",
          "type": "uint256"
        },
        {
          "internalType": "address",
          "name": "appealerAddress",
          "type": "address"
        }
      ],
      "stateMutability": "view",
      "type": "function"
    },
    {
      "inputs": [
        {
          "internalType": "bytes32",
          "name": "txId",
          "type": "bytes32"
        }
      ],
      "name": "feesToReturnToUser",
      "outputs": [
        {
          "internalType": "uint256",
          "name": "feesAmount",
          "type": "uint256"
        }
      ],
      "stateMutability": "view",
      "type": "function"
    },
    {
      "inputs": [
        {
          "internalType": "bytes32",
          "name": "role",
          "type": "bytes32"
        }
      ],
      "name": "getRoleAdmin",
      "outputs": [
        {
          "internalType": "bytes32",
          "name": "",
          "type": "bytes32"
        }
      ],
      "stateMutability": "view",
      "type": "function"
    },
    {
      "inputs": [
        {
          "internalType": "bytes32",
          "name": "role",
          "type": "bytes32"
        },
        {
          "internalType": "address",
          "name": "account",
          "type": "address"
        }
      ],
      "name": "grantRole",
      "outputs": [],
      "stateMutability": "nonpayable",
      "type": "function"
    },
    {
      "inputs": [
        {
          "internalType": "bytes32",
          "name": "role",
          "type": "bytes32"
        },
        {
          "internalType": "address",
          "name": "account",
          "type": "address"
        }
      ],
      "name": "hasRole",
      "outputs": [
        {
          "internalType": "bool",
          "name": "",
          "type": "bool"
        }
      ],
      "stateMutability": "view",
      "type": "function"
    },
    {
      "inputs": [
        {
          "internalType": "address",
          "name": "_feeManager",
          "type": "address"
        },
        {
          "internalType": "address",
          "name": "_feeRecorder",
          "type": "address"
        }
      ],
      "name": "initialize",
      "outputs": [],
      "stateMutability": "nonpayable",
      "type": "function"
    },
    {
      "inputs": [
        {
          "internalType": "bytes32",
          "name": "txId",
          "type": "bytes32"
        }
      ],
      "name": "numOfValidatorsForDistribution",
      "outputs": [
        {
          "internalType": "uint256",
          "name": "numOfValidators",
          "type": "uint256"
        }
      ],
      "stateMutability": "view",
      "type": "function"
    },
    {
      "inputs": [],
      "name": "owner",
      "outputs": [
        {
          "internalType": "address",
          "name": "",
          "type": "address"
        }
      ],
      "stateMutability": "view",
      "type": "function"
    },
    {
      "inputs": [
        {
          "internalType": "bytes32",
          "name": "txId",
          "type": "bytes32"
        },
        {
          "internalType": "address",
          "name": "validator",
          "type": "address"
        }
      ],
      "name": "penaltiesPerValidatorForTx",
      "outputs": [
        {
          "internalType": "uint256",
          "name": "penalties",
          "type": "uint256"
        }
      ],
      "stateMutability": "view",
      "type": "function"
    },
    {
      "inputs": [],
      "name": "pendingOwner",
      "outputs": [
        {
          "internalType": "address",
          "name": "",
          "type": "address"
        }
      ],
      "stateMutability": "view",
      "type": "function"
    },
    {
      "inputs": [
        {
          "internalType": "bytes32",
          "name": "_txId",
          "type": "bytes32"
        },
        {
          "internalType": "uint256",
          "name": "_startRound",
          "type": "uint256"
        },
        {
          "internalType": "uint256",
          "name": "_finalRound",
          "type": "uint256"
        },
        {
          "internalType": "uint256",
          "name": "_validatorTimeoutFees",
          "type": "uint256"
        },
        {
          "internalType": "uint256",
          "name": "_leaderTimeoutFees",
          "type": "uint256"
        }
      ],
      "name": "processFeesForTx",
      "outputs": [
        {
          "internalType": "uint256",
          "name": "amountDistributed",
          "type": "uint256"
        },
        {
          "internalType": "uint256",
          "name": "numOfValidators",
          "type": "uint256"
        }
      ],
      "stateMutability": "nonpayable",
      "type": "function"
    },
    {
      "inputs": [],
      "name": "renounceOwnership",
      "outputs": [],
      "stateMutability": "nonpayable",
      "type": "function"
    },
    {
      "inputs": [
        {
          "internalType": "bytes32",
          "name": "role",
          "type": "bytes32"
        },
        {
          "internalType": "address",
          "name": "callerConfirmation",
          "type": "address"
        }
      ],
      "name": "renounceRole",
      "outputs": [],
      "stateMutability": "nonpayable",
      "type": "function"
    },
    {
      "inputs": [
        {
          "internalType": "bytes32",
          "name": "role",
          "type": "bytes32"
        },
        {
          "internalType": "address",
          "name": "account",
          "type": "address"
        }
      ],
      "name": "revokeRole",
      "outputs": [],
      "stateMutability": "nonpayable",
      "type": "function"
    },
    {
      "inputs": [
        {
          "internalType": "address",
          "name": "_feeManager",
          "type": "address"
        },
        {
          "internalType": "address",
          "name": "_feeRecorder",
          "type": "address"
        }
      ],
      "name": "setFeeManagerAndRecorder",
      "outputs": [],
      "stateMutability": "nonpayable",
      "type": "function"
    },
    {
      "inputs": [
        {
          "internalType": "bytes4",
          "name": "interfaceId",
          "type": "bytes4"
        }
      ],
      "name": "supportsInterface",
      "outputs": [
        {
          "internalType": "bool",
          "name": "",
          "type": "bool"
        }
      ],
      "stateMutability": "view",
      "type": "function"
    },
    {
      "inputs": [
        {
          "internalType": "bytes32",
          "name": "txId",
          "type": "bytes32"
        }
      ],
      "name": "totalPenaltiesForTx",
      "outputs": [
        {
          "internalType": "uint256",
          "name": "totalPenalties",
          "type": "uint256"
        }
      ],
      "stateMutability": "view",
      "type": "function"
    },
    {
      "inputs": [
        {
          "internalType": "address",
          "name": "newOwner",
          "type": "address"
        }
      ],
      "name": "transferOwnership",
      "outputs": [],
      "stateMutability": "nonpayable",
      "type": "function"
    },
    {
      "inputs": [
        {
          "internalType": "bytes32",
          "name": "_txId",
          "type": "bytes32"
        },
        {
          "internalType": "uint256",
          "name": "_numOfValidators",
          "type": "uint256"
        }
      ],
      "name": "validatorsFinalDistribution",
      "outputs": [
        {
          "internalType": "address[]",
          "name": "validatorsToReceiveFees",
          "type": "address[]"
        },
        {
          "internalType": "uint256[]",
          "name": "validatorsToReceiveFeesAmount",
          "type": "uint256[]"
        }
      ],
      "stateMutability": "view",
      "type": "function"
    },
    {
      "inputs": [
        {
          "internalType": "uint256",
          "name": "index",
          "type": "uint256"
        }
      ],
      "name": "validatorsIndexToAddress",
      "outputs": [
        {
          "internalType": "address",
          "name": "validatorAddress",
          "type": "address"
        }
      ],
      "stateMutability": "view",
      "type": "function"
    },
    {
      "inputs": [
        {
          "internalType": "bytes32",
          "name": "_txId",
          "type": "bytes32"
        },
        {
          "internalType": "uint256",
          "name": "_numOfValidators",
          "type": "uint256"
        }
      ],
      "name": "validatorsPenaltyDistribution",
      "outputs": [
        {
          "internalType": "address[]",
          "name": "validators",
          "type": "address[]"
        },
        {
          "internalType": "uint256[]",
          "name": "penalties",
          "type": "uint256[]"
        }
      ],
      "stateMutability": "view",
      "type": "function"
    }
  ],
  "bytecode": "0x6080806040523460155761293c908161001b8239f35b600080fdfe608080604052600436101561001357600080fd5b60003560e01c90816301ffc9a714611b8157508063166bdf5214611b55578063248a9ca314611b2f5780632f2ff15d14611afe57806336568abe14611ab85780633cbf075914610925578063485cc955146107b8578063486dcb88146107705780634b2aecd7146107445780634ed97eed146106fc57806353c0f4c7146106c85780635b3f9635146106355780635bda466f146105f1578063715018a61461057057806379ba5097146104bf5780638bb7dcb1146104965780638da5cb5b1461046057806391d1485414610406578063a217fddf146103ea578063d0fb0203146103c1578063d547741f14610389578063dbfdb30a146102c2578063e30c39781461028c578063e54de617146101f5578063e9cd2fa9146101c95763f2fde38b1461013d57600080fd5b346101c45760203660031901126101c457610156611bea565b61015e6125d4565b6000805160206128c783398151915280546001600160a01b0319166001600160a01b03928316908117909155600080516020612847833981519152549091167f38d16b8cac22d99fc7c124b9cd0de2d3fa1faef420bfe791d8c362d765e22700600080a3005b600080fd5b346101c45760203660031901126101c45760043560005260056020526020604060002054604051908152f35b346101c45761020336611c00565b61020c81611f20565b9061021681611f20565b9260005b8281106102375750505061023360405192839283611c16565b0390f35b8060019160005260036020526040828060a01b038160002054168061025c8489611f52565b5284600052600760205281600020600091858060a01b0316825260205220546102858288611f52565b520161021a565b346101c45760003660031901126101c4576000805160206128c7833981519152546040516001600160a01b039091168152602090f35b346101c45760403660031901126101c4576102db611bea565b6102e3611bd4565b906102ec6125d4565b6001600160a01b031680158015610378575b61033357600080546001600160a01b0319908116929092179055600180549091166001600160a01b0392909216919091179055005b60405162461bcd60e51b815260206004820152601b60248201527f4665657350726f636573736f723a207a65726f206164647265737300000000006044820152606490fd5b506001600160a01b038216156102fe565b346101c45760403660031901126101c4576103bf6004356103a8611bd4565b906103ba6103b582611c93565b611f7c565b61206f565b005b346101c45760003660031901126101c4576000546040516001600160a01b039091168152602090f35b346101c45760003660031901126101c457602060405160008152f35b346101c45760403660031901126101c45761041f611bd4565b60043560005260008051602061288783398151915260205260406000209060018060a01b0316600052602052602060ff604060002054166040519015158152f35b346101c45760003660031901126101c457600080516020612847833981519152546040516001600160a01b039091168152602090f35b346101c45760003660031901126101c4576001546040516001600160a01b039091168152602090f35b346101c45760003660031901126101c4576000805160206128c783398151915254336001600160a01b039091160361055b576000805160206128c783398151915280546001600160a01b031990811690915560008051602061284783398151915280543392811683179091556001600160a01b03167f8be0079c531659141344cd1fd0a4f28419497f9722a3daafe3b4186f6b6457e0600080a3005b63118cdaa760e01b6000523360045260246000fd5b346101c45760003660031901126101c4576105896125d4565b6000805160206128c783398151915280546001600160a01b0319908116909155600080516020612847833981519152805491821690556000906001600160a01b03167f8be0079c531659141344cd1fd0a4f28419497f9722a3daafe3b4186f6b6457e08280a3005b346101c4576105ff36611c00565b9060005260066020526040600020906000526020526040806000208054906001808060a01b039101541682519182526020820152f35b346101c45761064336611c00565b61064c81611f20565b9061065681611f20565b9260005b8281106106735750505061023360405192839283611c16565b8060019160005260036020526040828060a01b03816000205416806106988489611f52565b5284600052600260205281600020600091858060a01b0316825260205220546106c18288611f52565b520161065a565b346101c45760203660031901126101c4576004356000526003602052602060018060a01b0360406000205416604051908152f35b346101c45760403660031901126101c457610715611bd4565b600435600052600260205260406000209060018060a01b03166000526020526020604060002054604051908152f35b346101c45760203660031901126101c45760043560005260086020526020604060002054604051908152f35b346101c45760403660031901126101c457610789611bd4565b600435600052600760205260406000209060018060a01b03166000526020526020604060002054604051908152f35b346101c45760403660031901126101c4576107d1611bea565b6107d9611bd4565b6000805160206128a7833981519152549160ff8360401c1615926001600160401b0381168015908161091d575b6001149081610913575b15908161090a575b506108f95767ffffffffffffffff1981166001176000805160206128a783398151915255836108cc575b50600080546001600160a01b039283166001600160a01b0319918216179091556001805493909216921691909117905561087857005b60ff60401b196000805160206128a783398151915254166000805160206128a7833981519152557fc7f505b2f371ae2175ee4913f4499e1f2633a7b5936321eed1cdaeb6115181d2602060405160018152a1005b68ffffffffffffffffff191668010000000000000001176000805160206128a78339815191525583610842565b63f92ee8a960e01b60005260046000fd5b90501585610818565b303b159150610810565b859150610806565b346101c45760a03660031901126101c4576000546001600160a01b03163303611aa7576000806024355b604435811115610978576040826004356000526004602052816000205482519182526020820152f35b9060018060a01b036001541690604051630662ded760e41b81526004356004820152836024820152602081604481865afa908115611a1557600091611a76575b50600160009111600014611a6b5750604051630662ded760e41b81526004356004820152836024820152602081604481865afa908115611a1557600091611a37575b506000198101908111611a21576000610a40915b8094604051808095819463092d751360e01b83528a600435600485016040919493926060820195825260208201520152565b03915afa908115611a15576000916119fc575b50805194600e8610156119e657600095600103610ba95750610a9f610a8382610aa89460643590886004356123e7565b604090920151608435906001600160a01b0316866004356126af565b60843590611ef3565b6001915b8280610ba0575b15610b8e57610ac190611f13565b60015460405163092d751360e01b8152600480359082015260248101869052604481018390529192908690839060649082906001600160a01b03165afa908115610b8357610b51928792610b57575b50610b2682610b4592606435908960043561210f565b60409092015160843560011c906001600160a01b0316876004356126af565b60843560011c90611ef3565b90610aac565b610b45919250610b7b610b26913d808b833e610b738183611cf4565b810190611d40565b929150610b10565b6040513d88823e3d90fd5b5091610b9b919350611cb4565b61094f565b50801515610ab3565b8151600e8110156119d257600503610bea575060400151610be29190610b459060843560011c906001600160a01b0316866004356126af565b600191610aac565b92908051600e8110156119d257600203610c3c57610c1c90610c176084359160a060643591015151611f00565b611ef3565b60043586526005602052610c3560408720918254611ef3565b9055610aac565b908151600e8110156119d257600403611009576001546001600160a01b03166000198601868111610ff557879060646040518094819363092d751360e01b8352600435600484015260248301528460448301525afa8015610fea576080918891610fd0575b50015190869360a08401515195610cb787611d29565b96610cc56040519889611cf4565b808852610cd4601f1991611d29565b01366020890137885b60a08601518051821015610dad5760408701516001600160a01b0390811691610d07908490611f52565b511614610da557610d1c8160c0880151611f52565b516005811015610d91576020870151906006821015610d7d5790610d3f916125f5565b8015610d75575b610d55575b6001905b01610cdd565b95610d61600191611cb4565b9681610d6d828b611f52565b529050610d4b565b506001610d46565b634e487b7160e01b8c52602160045260248cfd5b634e487b7160e01b8b52602160045260248bfd5b600190610d4f565b50509590969297919794939460a08601515197835b60a08801518051821015610fbd5760408901516001600160a01b0390811691610dec908490611f52565b511614610dfb57600101610dc2565b50610e0f610e429293949596979899611f13565b505b8615610fad57610e3c83610c17610e33610e2b8b84611ed3565b606435611ef3565b99606435611f00565b90611ef3565b97835b60a08801518051821015610f67576040890151600192916001600160a01b039182169190610e74908490611f52565b511614610f6257610e858186611f52565b5115610eb457610eae888a610ea38460a08780821b03930151611f52565b511689600435612725565b01610e45565b818060a01b03610ec88260a08c0151611f52565b5116610ed68160043561279b565b6004358752600760205260408720838060a01b038216885260205260408720610f026064358254611ef3565b90556004358752600860205260408720610f1f6064358254611ef3565b90558760405160643581526000805160206128e7833981519152602060043592a46004358652600560205260408620610f5b6064358254611ef3565b9055610eae565b610eae565b5050939695610a9f919550610f939398925060843590604060018060a01b0391015116886004356126af565b9160043586526005602052610c3560408720918254611ef3565b610e3c83610c17610e3388610e2b565b5050610e42919293949596979850610e11565b610fe491503d808a833e610b738183611cf4565b88610ca1565b6040513d89823e3d90fd5b634e487b7160e01b88526011600452602488fd5b928194929451600e8110156119d25760030361129f576001546001600160a01b03166000198401848111610ff557879060646040518094819363092d751360e01b8352600435600484015260248301528460448301525afa8015610fea576080918891611285575b50015190869360a0840151519561108787611d29565b966110956040519889611cf4565b8088526110a4601f1991611d29565b01366020890137885b60a086015151811015611126576110c88160c0880151611f52565b516005811015610d91576020870151906006821015610d7d57906110eb916125f5565b801561111f575b6110ff575b6001016110ad565b9561110b600191611cb4565b9681611117828b611f52565b5290506110f7565b50896110f2565b5090939591966111519098939886151560001461127557610e3c8a610c17610e33610e2b8b84611ed3565b96835b60a08801515181101561124a5760019085611245576111738186611f52565b511561119757611191888a610ea38460a08780821b03930151611f52565b01611154565b818060a01b036111ab8260a08c0151611f52565b51166111b98160043561279b565b6004358752600760205260408720838060a01b0382168852602052604087206111e56064358254611ef3565b905560043587526008602052604087206112026064358254611ef3565b90558760405160643581526000805160206128e7833981519152602060043592a4600435865260056020526040862061123e6064358254611ef3565b9055611191565b611191565b5095610f9393989550610a9f919497925060843590604060018060a01b0391015116886004356126af565b610e3c8a610c17610e3388610e2b565b61129991503d808a833e610b738183611cf4565b88611071565b929091938251600e8110156119d257600603611383576001546001600160a01b0316926000198601868111610ff557879060646040518097819363092d751360e01b8352600435600484015260248301528460448301525afa908115610fea57608061133292610c17968a91611369575b500151928360011c95868093604060018060a01b03910151168a6004356126af565b9281039081116113555760043586526005602052610c3560408720918254611ef3565b634e487b7160e01b86526011600452602486fd5b61137d91503d808c833e610b738183611cf4565b8a611310565b8251600e8110156119d2576007036113f757916113ca610b5192936113af60843560011c608435611ef3565b90610c178260018060a01b036040870151168a6004356126af565b60043587526005602052604087206113e860843560011c8254611ef3565b905560643590866004356123e7565b8251600e8110156119d257600803611518578261141b91606435908760043561210f565b61142e6080840191825160011c90611ef3565b92815190600382029180830460031490151715610ff557604001906001808060a01b038351166040519261146184611cc3565b821c8352602083019081526004358a52600660205260408a20898b5260205260408a2092518355818060a01b0390511691019060018060a01b031660018060a01b031982541617905560043587526005602052604087206114c56084358254611ef3565b905560018060a01b0390511690516003810281810460031482151715610ff5579086916040519182526001602083015260011c6040820152600080516020612867833981519152606060043592a4610aac565b9382919251600e8110156119d25760090361180957608082015192869360a0840151519561154587611d29565b966115536040519889611cf4565b808852611562601f1991611d29565b01366020890137885b60a086015180518210156116125760408701516001600160a01b0390811691611595908490611f52565b51161461160a576115aa8160c0880151611f52565b516005811015610d91576020870151906006821015610d7d57906115cd916125f5565b8015611603575b6115e3575b6001905b0161156b565b956115ef600191611cb4565b96816115fb828b611f52565b5290506115d9565b50896115d4565b6001906115dd565b50509590969391979460a08301515197865b60a085015180518210156117f15760408601516001600160a01b039081169161164e908490611f52565b51161461165d57600101611624565b5061167f90610c1761167761169695969798999a9b611f13565b606435611f00565b9080156117e9576116909082611ed3565b95611ef3565b96855b60a0840151805182101561179e576040850151600192916001600160a01b0391821691906116c8908490611f52565b511614611799576116d98185611f52565b51156117085761170287838060a01b036116f78460a08a0151611f52565b511688600435612725565b01611699565b818060a01b0361171c8260a0880151611f52565b511661172a8160043561279b565b6004358952600760205260408920838060a01b0382168a52602052604089206117566064358254611ef3565b905560043589526008602052604089206117736064358254611ef3565b90558660405160643581526000805160206128e7833981519152602060043592a4611702565b611702565b505092959496919350509184608060018060a01b03604084015116920151604051908152876020820152876040820152600080516020612867833981519152606060043592a4610aac565b508695611ef3565b505061167f90610c176116969495969798999a611677565b9381929151600e8110156119d257600a036118fe576118316080840191825160011c90611ef3565b92815190600382029180830460031490151715610ff557604001906001808060a01b038351166040519261186484611cc3565b821c8352602083019081526004358a52600660205260408a20898b5260205260408a2092518355818060a01b0390511691019060018060a01b031660018060a01b031982541617905560018060a01b0390511690516003810281810460031482151715610ff5579086916040519182526001602083015260011c6040820152600080516020612867833981519152606060043592a4610aac565b918051600e8110156119d257600b036119515784608060018060a01b03604084015116920151604051908152876020820152876040820152600080516020612867833981519152606060043592a4610aac565b918251600e8110156119d257600c03611977576118316080840191825160011c90611ef3565b918051600e8110156119d257600d14611991575b50610aac565b84608060018060a01b03604084015116920151604051908152876020820152876040820152600080516020612867833981519152606060043592a48561198b565b634e487b7160e01b87526021600452602487fd5b634e487b7160e01b600052602160045260246000fd5b611a0f913d8091833e610b738183611cf4565b85610a53565b6040513d6000823e3d90fd5b634e487b7160e01b600052601160045260246000fd5b906020823d8211611a63575b81611a5060209383611cf4565b81010312611a60575051856109fa565b80fd5b3d9150611a43565b6000610a4091610a0e565b906020823d8211611a9f575b81611a8f60209383611cf4565b81010312611a60575051856109b8565b3d9150611a82565b6323c76f5b60e21b60005260046000fd5b346101c45760403660031901126101c457611ad1611bd4565b336001600160a01b03821603611aed576103bf9060043561206f565b63334bd91960e11b60005260046000fd5b346101c45760403660031901126101c4576103bf600435611b1d611bd4565b90611b2a6103b582611c93565b611fc6565b346101c45760203660031901126101c4576020611b4d600435611c93565b604051908152f35b346101c45760203660031901126101c45760043560005260046020526020604060002054604051908152f35b346101c45760203660031901126101c4576004359063ffffffff60e01b82168092036101c457602091637965db0b60e01b8114908115611bc3575b5015158152f35b6301ffc9a760e01b14905083611bbc565b602435906001600160a01b03821682036101c457565b600435906001600160a01b03821682036101c457565b60409060031901126101c4576004359060243590565b6040810160408252825180915260206060830193019060005b818110611c745750505060208183039101526020808351928381520192019060005b818110611c5e5750505090565b8251845260209384019390920191600101611c51565b82516001600160a01b0316855260209485019490920191600101611c2f565b60005260008051602061288783398151915260205260016040600020015490565b6000198114611a215760010190565b604081019081106001600160401b03821117611cde57604052565b634e487b7160e01b600052604160045260246000fd5b90601f801991011681019081106001600160401b03821117611cde57604052565b51906001600160a01b03821682036101c457565b6001600160401b038111611cde5760051b60200190565b6020818303126101c4578051906001600160401b0382116101c45701610100818303126101c4576040519161010083018381106001600160401b03821117611cde576040528151600e8110156101c4578352602082015160068110156101c4576020840152611db160408301611d15565b6040840152606082015160608401526080820151608084015260a08201516001600160401b0381116101c457820181601f820112156101c457805190611df682611d29565b91611e046040519384611cf4565b80835260208084019160051b830101918483116101c457602001905b828210611ebb5750505060a084015260c08201516001600160401b0381116101c45782019080601f830112156101c457815190611e5c82611d29565b92611e6a6040519485611cf4565b82845260208085019360051b8201019182116101c457602001915b818310611ea2575050509060e09160c0840152015160e082015290565b825160058110156101c457815260209283019201611e85565b60208091611ec884611d15565b815201910190611e20565b8115611edd570490565b634e487b7160e01b600052601260045260246000fd5b91908201809211611a2157565b81810292918115918404141715611a2157565b8015611a21576000190190565b90611f2a82611d29565b611f376040519182611cf4565b8281528092611f48601f1991611d29565b0190602036910137565b8051821015611f665760209160051b010190565b634e487b7160e01b600052603260045260246000fd5b60008181526000805160206128878339815191526020908152604080832033845290915290205460ff1615611fae5750565b63e2517d3f60e01b6000523360045260245260446000fd5b6000818152600080516020612887833981519152602090815260408083206001600160a01b038616845290915290205460ff16612068576000818152600080516020612887833981519152602090815260408083206001600160a01b0395909516808452949091528120805460ff19166001179055339291907f2f8788117e7eff1d82e926ec794901d17c78024a50270940304540a733656f0d9080a4600190565b5050600090565b6000818152600080516020612887833981519152602090815260408083206001600160a01b038616845290915290205460ff1615612068576000818152600080516020612887833981519152602090815260408083206001600160a01b0395909516808452949091528120805460ff19169055339291907ff6391f5c32d9c69d2a47ea670b442974b53935d1edc7fd64eb21e047a839171b9080a4600190565b93909291600095869360a08401968751519661212a88611d29565b97612138604051998a611cf4565b808952612147601f1991611d29565b013660208a0137895b895180518210156122085760408801516001600160a01b0390811691612177908490611f52565b5116146122005761218c8160c0890151611f52565b516005811015610d7d5760208801519060068210156121ec57906121af916125f5565b80156121e5575b6121c5575b6001905b01612150565b966121d1600191611cb4565b97816121dd828c611f52565b5290506121bb565b508a6121b6565b634e487b7160e01b8d52602160045260248dfd5b6001906121bf565b50509296909398979195949882515198805b845180518210156123d65760408d01516001600160a01b0390811691612241908490611f52565b5116146122505760010161221a565b5090919293949596979861226390611f13565b505b506000908615806123c4576123b057906122959161228e612287835b8b611ef3565b988a611f00565b9150611ef3565b9760005b835180518210156123a5576040830151600192916001600160a01b0391821691906122c5908490611f52565b5116146123a0576122d68185611f52565b5115612300576122fa88838060a01b036122f1848951611f52565b5116888a612725565b01612299565b818060a01b03612311828751611f52565b511661231d818961279b565b876000526007602052604080600020600090858060a01b0384168252602052206123488b8254611ef3565b905587600052600860205260406000206123638b8254611ef3565b905586886000805160206128e783398151915260208d604051908152a486600052600560205260406000206123998a8254611ef3565b90556122fa565b6122fa565b505050505050505050565b634e487b7160e01b82526012600452602482fd5b50906122959161228e61228783612281565b505090919293949596979850612265565b9193909294600095869360a08401958651519661240388611d29565b97612411604051998a611cf4565b808952612420601f1991611d29565b013660208a0137895b81515181101561249f576124418160c0890151611f52565b516005811015610d7d5760208801519060068210156121ec5790612464916125f5565b8015612498575b612478575b600101612429565b96612484600191611cb4565b9781612490828c611f52565b529050612470565b508a61246b565b509398509596919590935091906000908515806125c2576123b057906124d49161228e6124cd835b8a611ef3565b9789611f00565b9560005b8251518110156125b8576001906124ef8184611f52565b51156125195761251387838060a01b0361250a848851611f52565b51168789612725565b016124d8565b818060a01b0361252a828651611f52565b5116612536818861279b565b866000526007602052604080600020600090858060a01b0384168252602052206125618a8254611ef3565b9055866000526008602052604060002061257c8a8254611ef3565b905585876000805160206128e783398151915260206040518d8152a485600052600560205260406000206125b1898254611ef3565b9055612513565b5050505050505090565b50906124d49161228e6124cd836124c7565b600080516020612847833981519152546001600160a01b0316330361055b57565b600682101590816119e657600583146126a757600090600581101561269357600181036126285750506119e65760011490565b81600282148015612687575b15612657575050506119e6576002811490811561264f575090565b600491501490565b90919392506126735760031461266b575090565b600391501490565b634e487b7160e01b83526021600452602483fd5b50508160048214612634565b634e487b7160e01b82526021600452602482fd5b505050600190565b909160407f1a575cc1f7b2b31ad5fb04f26577fa4778772142c5a3af8b89647a512b5c1fc3916126df818561279b565b8360005260026020528160002060018060a01b0382166000526020528160002061270a878254611ef3565b90558151958652600160208701526001600160a01b031694a4565b909160407f1a575cc1f7b2b31ad5fb04f26577fa4778772142c5a3af8b89647a512b5c1fc391612755818561279b565b8360005260026020528160002060018060a01b03821660005260205281600020612780878254611ef3565b90558151958652600060208701526001600160a01b031694a4565b90816000526002602052604060002060018060a01b038216600052602052604060002054158061281c575b6127ce575050565b816000526004602052604060002054600052600360205260406000209060018060a01b031660018060a01b0319825416179055600052600460205260406000206128188154611cb4565b9055565b50816000526007602052604060002060018060a01b038216600052602052604060002054156127c656fe9016d09d72d40fdae2fd8ceac6b6234c7706214fd39c1cd1e609a0528c199300a013a5578d6ee6541b4bfa9541e3d7d918ecfcb8a81030b3b1eb3f9aae20007d02dd7bc7dec4dceedda775e58dd541e08a116c6c53815c0bd028192f7b626800f0c57e16840df040f15088dc2f81fe391c3923bec73e23a9662efc9c229c6a00237e158222e3e6968b72b9db0d8043aacf074ad9f650f0d1606b4d82ee432c00b53a9a4243f44525ba76af0beaa6c0feaf0d4531da91814112747f4c60313fa9a2646970667358221220cba1f8e9e578cf886c217a7794b927eb313b24db6a77b3927e5c663a3dbc34c464736f6c634300081c0033",
  "linkReferences": {},
  "deployedLinkReferences": {}
}