{
  "_format": "hh-sol-artifact-1",
  "contractName": "FeesProcessor",
  "sourceName": "contracts/fees/FeesProcessor.sol",
  "abi": [
    {
      "inputs": [],
      "name": "AccessControlBadConfirmation",
      "type": "error"
    },
    {
      "inputs": [
        {
          "internalType": "address",
          "name": "account",
          "type": "address"
        },
        {
          "internalType": "bytes32",
          "name": "neededRole",
          "type": "bytes32"
        }
      ],
      "name": "AccessControlUnauthorizedAccount",
      "type": "error"
    },
    {
      "inputs": [],
      "name": "InvalidInitialization",
      "type": "error"
    },
    {
      "inputs": [],
      "name": "NotInitializing",
      "type": "error"
    },
    {
      "inputs": [],
      "name": "OnlyFeeManager",
      "type": "error"
    },
    {
      "inputs": [
        {
          "internalType": "address",
          "name": "owner",
          "type": "address"
        }
      ],
      "name": "OwnableInvalidOwner",
      "type": "error"
    },
    {
      "inputs": [
        {
          "internalType": "address",
          "name": "account",
          "type": "address"
        }
      ],
      "name": "OwnableUnauthorizedAccount",
      "type": "error"
    },
    {
      "inputs": [],
      "name": "ReentrancyGuardReentrantCall",
      "type": "error"
    },
    {
      "anonymous": false,
      "inputs": [
        {
          "indexed": true,
          "internalType": "bytes32",
          "name": "txId",
          "type": "bytes32"
        },
        {
          "indexed": true,
          "internalType": "uint256",
          "name": "round",
          "type": "uint256"
        },
        {
          "indexed": true,
          "internalType": "address",
          "name": "appealer",
          "type": "address"
        },
        {
          "indexed": false,
          "internalType": "uint256",
          "name": "bondAmount",
          "type": "uint256"
        },
        {
          "indexed": false,
          "internalType": "bool",
          "name": "success",
          "type": "bool"
        },
        {
          "indexed": false,
          "internalType": "uint256",
          "name": "returnAmount",
          "type": "uint256"
        }
      ],
      "name": "AppealBondResolved",
      "type": "event"
    },
    {
      "anonymous": false,
      "inputs": [
        {
          "indexed": false,
          "internalType": "uint64",
          "name": "version",
          "type": "uint64"
        }
      ],
      "name": "Initialized",
      "type": "event"
    },
    {
      "anonymous": false,
      "inputs": [
        {
          "indexed": true,
          "internalType": "address",
          "name": "previousOwner",
          "type": "address"
        },
        {
          "indexed": true,
          "internalType": "address",
          "name": "newOwner",
          "type": "address"
        }
      ],
      "name": "OwnershipTransferStarted",
      "type": "event"
    },
    {
      "anonymous": false,
      "inputs": [
        {
          "indexed": true,
          "internalType": "address",
          "name": "previousOwner",
          "type": "address"
        },
        {
          "indexed": true,
          "internalType": "address",
          "name": "newOwner",
          "type": "address"
        }
      ],
      "name": "OwnershipTransferred",
      "type": "event"
    },
    {
      "anonymous": false,
      "inputs": [
        {
          "indexed": true,
          "internalType": "bytes32",
          "name": "role",
          "type": "bytes32"
        },
        {
          "indexed": true,
          "internalType": "bytes32",
          "name": "previousAdminRole",
          "type": "bytes32"
        },
        {
          "indexed": true,
          "internalType": "bytes32",
          "name": "newAdminRole",
          "type": "bytes32"
        }
      ],
      "name": "RoleAdminChanged",
      "type": "event"
    },
    {
      "anonymous": false,
      "inputs": [
        {
          "indexed": true,
          "internalType": "bytes32",
          "name": "role",
          "type": "bytes32"
        },
        {
          "indexed": true,
          "internalType": "address",
          "name": "account",
          "type": "address"
        },
        {
          "indexed": true,
          "internalType": "address",
          "name": "sender",
          "type": "address"
        }
      ],
      "name": "RoleGranted",
      "type": "event"
    },
    {
      "anonymous": false,
      "inputs": [
        {
          "indexed": true,
          "internalType": "bytes32",
          "name": "role",
          "type": "bytes32"
        },
        {
          "indexed": true,
          "internalType": "address",
          "name": "account",
          "type": "address"
        },
        {
          "indexed": true,
          "internalType": "address",
          "name": "sender",
          "type": "address"
        }
      ],
      "name": "RoleRevoked",
      "type": "event"
    },
    {
      "anonymous": false,
      "inputs": [
        {
          "indexed": true,
          "internalType": "bytes32",
          "name": "txId",
          "type": "bytes32"
        },
        {
          "indexed": true,
          "internalType": "uint256",
          "name": "round",
          "type": "uint256"
        },
        {
          "indexed": true,
          "internalType": "address",
          "name": "validator",
          "type": "address"
        },
        {
          "indexed": false,
          "internalType": "uint256",
          "name": "feeAmount",
          "type": "uint256"
        },
        {
          "indexed": false,
          "internalType": "bool",
          "name": "isLeader",
          "type": "bool"
        }
      ],
      "name": "ValidatorFeeDistributed",
      "type": "event"
    },
    {
      "anonymous": false,
      "inputs": [
        {
          "indexed": true,
          "internalType": "bytes32",
          "name": "txId",
          "type": "bytes32"
        },
        {
          "indexed": true,
          "internalType": "uint256",
          "name": "round",
          "type": "uint256"
        },
        {
          "indexed": true,
          "internalType": "address",
          "name": "validator",
          "type": "address"
        },
        {
          "indexed": false,
          "internalType": "uint256",
          "name": "penaltyAmount",
          "type": "uint256"
        }
      ],
      "name": "ValidatorPenaltyRecorded",
      "type": "event"
    },
    {
      "inputs": [],
      "name": "DEFAULT_ADMIN_ROLE",
      "outputs": [
        {
          "internalType": "bytes32",
          "name": "",
          "type": "bytes32"
        }
      ],
      "stateMutability": "view",
      "type": "function"
    },
    {
      "inputs": [],
      "name": "acceptOwnership",
      "outputs": [],
      "stateMutability": "nonpayable",
      "type": "function"
    },
    {
      "inputs": [
        {
          "internalType": "bytes32",
          "name": "txId",
          "type": "bytes32"
        },
        {
          "internalType": "address",
          "name": "validator",
          "type": "address"
        }
      ],
      "name": "distributedFeesPerValidatorForTx",
      "outputs": [
        {
          "internalType": "uint256",
          "name": "finalFees",
          "type": "uint256"
        }
      ],
      "stateMutability": "view",
      "type": "function"
    },
    {
      "inputs": [],
      "name": "feeManager",
      "outputs": [
        {
          "internalType": "contract IFeeManager",
          "name": "",
          "type": "address"
        }
      ],
      "stateMutability": "view",
      "type": "function"
    },
    {
      "inputs": [],
      "name": "feeRecorder",
      "outputs": [
        {
          "internalType": "contract IFeesRecorder",
          "name": "",
          "type": "address"
        }
      ],
      "stateMutability": "view",
      "type": "function"
    },
    {
      "inputs": [
        {
          "internalType": "bytes32",
          "name": "txId",
          "type": "bytes32"
        },
        {
          "internalType": "uint256",
          "name": "round",
          "type": "uint256"
        }
      ],
      "name": "feesToReturnToAppealer",
      "outputs": [
        {
          "internalType": "uint256",
          "name": "totalRewards",
          "type": "uint256"
        },
        {
          "internalType": "address",
          "name": "appealerAddress",
          "type": "address"
        }
      ],
      "stateMutability": "view",
      "type": "function"
    },
    {
      "inputs": [
        {
          "internalType": "bytes32",
          "name": "txId",
          "type": "bytes32"
        }
      ],
      "name": "feesToReturnToUser",
      "outputs": [
        {
          "internalType": "uint256",
          "name": "feesAmount",
          "type": "uint256"
        }
      ],
      "stateMutability": "view",
      "type": "function"
    },
    {
      "inputs": [
        {
          "internalType": "bytes32",
          "name": "role",
          "type": "bytes32"
        }
      ],
      "name": "getRoleAdmin",
      "outputs": [
        {
          "internalType": "bytes32",
          "name": "",
          "type": "bytes32"
        }
      ],
      "stateMutability": "view",
      "type": "function"
    },
    {
      "inputs": [
        {
          "internalType": "bytes32",
          "name": "role",
          "type": "bytes32"
        },
        {
          "internalType": "address",
          "name": "account",
          "type": "address"
        }
      ],
      "name": "grantRole",
      "outputs": [],
      "stateMutability": "nonpayable",
      "type": "function"
    },
    {
      "inputs": [
        {
          "internalType": "bytes32",
          "name": "role",
          "type": "bytes32"
        },
        {
          "internalType": "address",
          "name": "account",
          "type": "address"
        }
      ],
      "name": "hasRole",
      "outputs": [
        {
          "internalType": "bool",
          "name": "",
          "type": "bool"
        }
      ],
      "stateMutability": "view",
      "type": "function"
    },
    {
      "inputs": [
        {
          "internalType": "address",
          "name": "_feeManager",
          "type": "address"
        },
        {
          "internalType": "address",
          "name": "_feeRecorder",
          "type": "address"
        }
      ],
      "name": "initialize",
      "outputs": [],
      "stateMutability": "nonpayable",
      "type": "function"
    },
    {
      "inputs": [
        {
          "internalType": "bytes32",
          "name": "txId",
          "type": "bytes32"
        }
      ],
      "name": "numOfValidatorsForDistribution",
      "outputs": [
        {
          "internalType": "uint256",
          "name": "numOfValidators",
          "type": "uint256"
        }
      ],
      "stateMutability": "view",
      "type": "function"
    },
    {
      "inputs": [],
      "name": "owner",
      "outputs": [
        {
          "internalType": "address",
          "name": "",
          "type": "address"
        }
      ],
      "stateMutability": "view",
      "type": "function"
    },
    {
      "inputs": [
        {
          "internalType": "bytes32",
          "name": "txId",
          "type": "bytes32"
        },
        {
          "internalType": "address",
          "name": "validator",
          "type": "address"
        }
      ],
      "name": "penaltiesPerValidatorForTx",
      "outputs": [
        {
          "internalType": "uint256",
          "name": "penalties",
          "type": "uint256"
        }
      ],
      "stateMutability": "view",
      "type": "function"
    },
    {
      "inputs": [],
      "name": "pendingOwner",
      "outputs": [
        {
          "internalType": "address",
          "name": "",
          "type": "address"
        }
      ],
      "stateMutability": "view",
      "type": "function"
    },
    {
      "inputs": [
        {
          "internalType": "bytes32",
          "name": "_txId",
          "type": "bytes32"
        },
        {
          "internalType": "uint256",
          "name": "_startRound",
          "type": "uint256"
        },
        {
          "internalType": "uint256",
          "name": "_finalRound",
          "type": "uint256"
        },
        {
          "internalType": "uint256",
          "name": "_validatorTimeoutFees",
          "type": "uint256"
        },
        {
          "internalType": "uint256",
          "name": "_leaderTimeoutFees",
          "type": "uint256"
        }
      ],
      "name": "processFeesForTx",
      "outputs": [
        {
          "internalType": "uint256",
          "name": "amountDistributed",
          "type": "uint256"
        },
        {
          "internalType": "uint256",
          "name": "numOfValidators",
          "type": "uint256"
        }
      ],
      "stateMutability": "nonpayable",
      "type": "function"
    },
    {
      "inputs": [],
      "name": "renounceOwnership",
      "outputs": [],
      "stateMutability": "nonpayable",
      "type": "function"
    },
    {
      "inputs": [
        {
          "internalType": "bytes32",
          "name": "role",
          "type": "bytes32"
        },
        {
          "internalType": "address",
          "name": "callerConfirmation",
          "type": "address"
        }
      ],
      "name": "renounceRole",
      "outputs": [],
      "stateMutability": "nonpayable",
      "type": "function"
    },
    {
      "inputs": [
        {
          "internalType": "bytes32",
          "name": "role",
          "type": "bytes32"
        },
        {
          "internalType": "address",
          "name": "account",
          "type": "address"
        }
      ],
      "name": "revokeRole",
      "outputs": [],
      "stateMutability": "nonpayable",
      "type": "function"
    },
    {
      "inputs": [
        {
          "internalType": "address",
          "name": "_feeManager",
          "type": "address"
        },
        {
          "internalType": "address",
          "name": "_feeRecorder",
          "type": "address"
        }
      ],
      "name": "setFeeManagerAndRecorder",
      "outputs": [],
      "stateMutability": "nonpayable",
      "type": "function"
    },
    {
      "inputs": [
        {
          "internalType": "bytes4",
          "name": "interfaceId",
          "type": "bytes4"
        }
      ],
      "name": "supportsInterface",
      "outputs": [
        {
          "internalType": "bool",
          "name": "",
          "type": "bool"
        }
      ],
      "stateMutability": "view",
      "type": "function"
    },
    {
      "inputs": [
        {
          "internalType": "bytes32",
          "name": "txId",
          "type": "bytes32"
        }
      ],
      "name": "totalPenaltiesForTx",
      "outputs": [
        {
          "internalType": "uint256",
          "name": "totalPenalties",
          "type": "uint256"
        }
      ],
      "stateMutability": "view",
      "type": "function"
    },
    {
      "inputs": [
        {
          "internalType": "address",
          "name": "newOwner",
          "type": "address"
        }
      ],
      "name": "transferOwnership",
      "outputs": [],
      "stateMutability": "nonpayable",
      "type": "function"
    },
    {
      "inputs": [
        {
          "internalType": "bytes32",
          "name": "_txId",
          "type": "bytes32"
        },
        {
          "internalType": "uint256",
          "name": "_numOfValidators",
          "type": "uint256"
        }
      ],
      "name": "validatorsFinalDistribution",
      "outputs": [
        {
          "internalType": "address[]",
          "name": "validatorsToReceiveFees",
          "type": "address[]"
        },
        {
          "internalType": "uint256[]",
          "name": "validatorsToReceiveFeesAmount",
          "type": "uint256[]"
        }
      ],
      "stateMutability": "view",
      "type": "function"
    },
    {
      "inputs": [
        {
          "internalType": "uint256",
          "name": "index",
          "type": "uint256"
        }
      ],
      "name": "validatorsIndexToAddress",
      "outputs": [
        {
          "internalType": "address",
          "name": "validatorAddress",
          "type": "address"
        }
      ],
      "stateMutability": "view",
      "type": "function"
    },
    {
      "inputs": [
        {
          "internalType": "bytes32",
          "name": "_txId",
          "type": "bytes32"
        },
        {
          "internalType": "uint256",
          "name": "_numOfValidators",
          "type": "uint256"
        }
      ],
      "name": "validatorsPenaltyDistribution",
      "outputs": [
        {
          "internalType": "address[]",
          "name": "validators",
          "type": "address[]"
        },
        {
          "internalType": "uint256[]",
          "name": "penalties",
          "type": "uint256[]"
        }
      ],
      "stateMutability": "view",
      "type": "function"
    }
  ],
  "bytecode": "0x60808060405234601557612da1908161001b8239f35b600080fdfe608080604052600436101561001357600080fd5b60003560e01c90816301ffc9a7146124ab57508063166bdf521461247f578063248a9ca3146124595780632f2ff15d1461242857806336568abe146123e25780633cbf075914610925578063485cc955146107b8578063486dcb88146107705780634b2aecd7146107445780634ed97eed146106fc57806353c0f4c7146106c85780635b3f9635146106355780635bda466f146105f1578063715018a61461057057806379ba5097146104bf5780638bb7dcb1146104965780638da5cb5b1461046057806391d1485414610406578063a217fddf146103ea578063d0fb0203146103c1578063d547741f14610389578063dbfdb30a146102c2578063e30c39781461028c578063e54de617146101f5578063e9cd2fa9146101c95763f2fde38b1461013d57600080fd5b346101c45760203660031901126101c457610156612514565b61015e612a39565b600080516020612d2c83398151915280546001600160a01b0319166001600160a01b03928316908117909155600080516020612cac833981519152549091167f38d16b8cac22d99fc7c124b9cd0de2d3fa1faef420bfe791d8c362d765e22700600080a3005b600080fd5b346101c45760203660031901126101c45760043560005260056020526020604060002054604051908152f35b346101c4576102033661252a565b61020c8161284a565b906102168161284a565b9260005b8281106102375750505061023360405192839283612540565b0390f35b8060019160005260036020526040828060a01b038160002054168061025c848961287c565b5284600052600760205281600020600091858060a01b031682526020522054610285828861287c565b520161021a565b346101c45760003660031901126101c457600080516020612d2c833981519152546040516001600160a01b039091168152602090f35b346101c45760403660031901126101c4576102db612514565b6102e36124fe565b906102ec612a39565b6001600160a01b031680158015610378575b61033357600080546001600160a01b0319908116929092179055600180549091166001600160a01b0392909216919091179055005b60405162461bcd60e51b815260206004820152601b60248201527f4665657350726f636573736f723a207a65726f206164647265737300000000006044820152606490fd5b506001600160a01b038216156102fe565b346101c45760403660031901126101c4576103bf6004356103a86124fe565b906103ba6103b5826125bd565b6128a6565b612999565b005b346101c45760003660031901126101c4576000546040516001600160a01b039091168152602090f35b346101c45760003660031901126101c457602060405160008152f35b346101c45760403660031901126101c45761041f6124fe565b600435600052600080516020612cec83398151915260205260406000209060018060a01b0316600052602052602060ff604060002054166040519015158152f35b346101c45760003660031901126101c457600080516020612cac833981519152546040516001600160a01b039091168152602090f35b346101c45760003660031901126101c4576001546040516001600160a01b039091168152602090f35b346101c45760003660031901126101c457600080516020612d2c83398151915254336001600160a01b039091160361055b57600080516020612d2c83398151915280546001600160a01b0319908116909155600080516020612cac83398151915280543392811683179091556001600160a01b03167f8be0079c531659141344cd1fd0a4f28419497f9722a3daafe3b4186f6b6457e0600080a3005b63118cdaa760e01b6000523360045260246000fd5b346101c45760003660031901126101c457610589612a39565b600080516020612d2c83398151915280546001600160a01b0319908116909155600080516020612cac833981519152805491821690556000906001600160a01b03167f8be0079c531659141344cd1fd0a4f28419497f9722a3daafe3b4186f6b6457e08280a3005b346101c4576105ff3661252a565b9060005260066020526040600020906000526020526040806000208054906001808060a01b039101541682519182526020820152f35b346101c4576106433661252a565b61064c8161284a565b906106568161284a565b9260005b8281106106735750505061023360405192839283612540565b8060019160005260036020526040828060a01b0381600020541680610698848961287c565b5284600052600260205281600020600091858060a01b0316825260205220546106c1828861287c565b520161065a565b346101c45760203660031901126101c4576004356000526003602052602060018060a01b0360406000205416604051908152f35b346101c45760403660031901126101c4576107156124fe565b600435600052600260205260406000209060018060a01b03166000526020526020604060002054604051908152f35b346101c45760203660031901126101c45760043560005260086020526020604060002054604051908152f35b346101c45760403660031901126101c4576107896124fe565b600435600052600760205260406000209060018060a01b03166000526020526020604060002054604051908152f35b346101c45760403660031901126101c4576107d1612514565b6107d96124fe565b600080516020612d0c833981519152549160ff8360401c1615926001600160401b0381168015908161091d575b6001149081610913575b15908161090a575b506108f95767ffffffffffffffff198116600117600080516020612d0c83398151915255836108cc575b50600080546001600160a01b039283166001600160a01b0319918216179091556001805493909216921691909117905561087857005b60ff60401b19600080516020612d0c8339815191525416600080516020612d0c833981519152557fc7f505b2f371ae2175ee4913f4499e1f2633a7b5936321eed1cdaeb6115181d2602060405160018152a1005b68ffffffffffffffffff19166801000000000000000117600080516020612d0c8339815191525583610842565b63f92ee8a960e01b60005260046000fd5b90501585610818565b303b159150610810565b859150610806565b346101c45760a03660031901126101c4576000546001600160a01b031633036123d1576000806024355b604435811115610978576040826004356000526004602052816000205482519182526020820152f35b60018060a01b0360015416604051630662ded760e41b81526004356004820152826024820152602081604481855afa90811561233f576000916123a0575b506001600091116000146123955750604051630662ded760e41b81526004356004820152826024820152602081604481855afa90811561233f57600091612361575b50600019810190811161234b576000610a3e915b8093604051808095819463092d751360e01b835289600435600485016040919493926060820195825260208201520152565b03915afa90811561233f57600091612326575b50805194600e861015612310576000956001036110885750849160a08201515193610a7b85612653565b94610a89604051968761261e565b808652610a98601f1991612653565b01366020870137865b60a084015151811015610b4257610abc8160c086015161287c565b516005811015610b2e576020850151906006821015610b1a5790610adf91612a5a565b8015610b13575b610af3575b600101610aa1565b93610aff6001916125de565b9481610b0b828961287c565b529050610aeb565b5087610ae6565b634e487b7160e01b8a52602160045260248afd5b634e487b7160e01b89526021600452602489fd5b509094919390918315806110775761106357610b7790610b71610b68895b60643561281d565b9560643561282a565b9061281d565b94865b60a086015151811015610c715780610b946001928561287c565b5115610bc357610bbd86838060a01b03610bb28460a08c015161287c565b511687600435612b8a565b01610b7a565b818060a01b03610bd78260a08a015161287c565b5116610be581600435612c00565b6004358a52600760205260408a20838060a01b0382168b5260205260408a20610c11606435825461281d565b90556004358a52600860205260408a20610c2e606435825461281d565b9055856040516064358152600080516020612d4c833981519152602060043592a46004358952600560205260408920610c6a606435825461281d565b9055610bbd565b506040909401519194610ca4935091610c9b9150608435906001600160a01b031686600435612b14565b6084359061281d565b916001915b828061105a575b1561104957610cbe9061283d565b60015460405163092d751360e01b8152600480359082015260248101849052604481018390529192908690839060649082906001600160a01b03165afa91821561103e57869261101a575b50859260a08301515194610d1c86612653565b95610d2a604051978861261e565b808752610d39601f1991612653565b01366020880137875b60a08501518051821015610dfd5760408601516001600160a01b0390811691610d6c90849061287c565b511614610df557610d818160c087015161287c565b516005811015610b1a576020860151906006821015610de15790610da491612a5a565b8015610dda575b610dba575b6001905b01610d42565b94610dc66001916125de565b9581610dd2828a61287c565b529050610db0565b5088610dab565b634e487b7160e01b8b52602160045260248bfd5b600190610db4565b505060a0840151519693949391885b60a0870151805182101561100b5760408801516001600160a01b0390811691610e3690849061287c565b511614610e4557600101610e0c565b50979293949596610e589092919261283d565b505b841580610ffa57610fe657610e8190610b71610e788560643561281d565b9660643561282a565b96825b60a08701518051821015610fa6576040880151600192916001600160a01b039182169190610eb390849061287c565b511614610fa157610ec4818a61287c565b5115610ef357610eed87838060a01b03610ee28460a08d015161287c565b511688600435612b8a565b01610e84565b818060a01b03610f078260a08b015161287c565b5116610f1581600435612c00565b6004358652600760205260408620838060a01b038216875260205260408620610f41606435825461281d565b90556004358652600860205260408620610f5e606435825461281d565b9055866040516064358152600080516020612d4c833981519152602060043592a46004358552600560205260408520610f9a606435825461281d565b9055610eed565b610eed565b50509350945094610fd2610fde929460843560011c90604060018060a01b039101511686600435612b14565b60843560011c9061281d565b929190610ca9565b634e487b7160e01b83526012600452602483fd5b50610e8190610b71610e7885610b60565b50509792939495965090610e5a565b6110379192503d8088833e61102f818361261e565b81019061266a565b9086610d09565b6040513d88823e3d90fd5b506110559193506125de565b61094f565b50801515610cb0565b634e487b7160e01b87526012600452602487fd5b50610b7790610b71610b6889610b60565b819492939451600e8110156122fc576005036110ce5750604001516110c59190610fd29060843560011c906001600160a01b031686600435612b14565b91600191610ca9565b92908094929451600e8110156122fc5760020361112357611103906110fe6084359160a06064359101515161282a565b61281d565b6004358652600560205261111c6040872091825461281d565b9055610ca9565b90928194929451600e8110156122fc576004036114d1576001546001600160a01b031660001986018681116114bd57879060646040518094819363092d751360e01b8352600435600484015260248301528460448301525afa80156114b2576080918891611498575b50015190869360a084015151956111a287612653565b966111b0604051988961261e565b8088526111bf601f1991612653565b01366020890137885b60a086015180518210156112845760408701516001600160a01b03908116916111f290849061287c565b51161461127c576112078160c088015161287c565b516005811015610de1576020870151906006821015611268579061122a91612a5a565b8015611260575b611240575b6001905b016111c8565b9561124c6001916125de565b9681611258828b61287c565b529050611236565b506001611231565b634e487b7160e01b8c52602160045260248cfd5b60019061123a565b50509590969297919794939460a08601515197835b60a088015180518210156114855760408901516001600160a01b03908116916112c390849061287c565b5116146112d257600101611299565b506112e661130b929394959697989961283d565b505b861561147557610b71836110fe611302610b608b846127fd565b9960643561282a565b90835b60a08801518051821015611430576040890151600192916001600160a01b03918216919061133d90849061287c565b51161461142b5761134e818661287c565b511561137d57611377888a61136c8460a08780821b0393015161287c565b511689600435612b8a565b0161130e565b818060a01b036113918260a08c015161287c565b511661139f81600435612c00565b6004358752600760205260408720838060a01b0382168852602052604087206113cb606435825461281d565b905560043587526008602052604087206113e8606435825461281d565b9055876040516064358152600080516020612d4c833981519152602060043592a46004358652600560205260408620611424606435825461281d565b9055611377565b611377565b5050969394509050610c9b61145b92979560843590604060018060a01b039101511686600435612b14565b936004358652600560205261111c6040872091825461281d565b610b71836110fe61130288610b60565b505061130b9192939495969798506112e8565b6114ac91503d808a833e61102f818361261e565b8861118c565b6040513d89823e3d90fd5b634e487b7160e01b88526011600452602488fd5b8194929451600e8110156122fc57600303611755576001546001600160a01b031660001984018481116114bd57879060646040518094819363092d751360e01b8352600435600484015260248301528460448301525afa80156114b257608091889161173b575b50015193869360a0840151519561154e87612653565b9661155c604051988961261e565b80885261156b601f1991612653565b01366020890137885b60a0860151518110156115ed5761158f8160c088015161287c565b516005811015610de157602087015190600682101561126857906115b291612a5a565b80156115e6575b6115c6575b600101611574565b956115d26001916125de565b96816115de828b61287c565b5290506115be565b50896115b9565b5090939591966116189098939886151560001461147557610b71836110fe611302610b608b846127fd565b96835b60a088015151811015611711576001908561170c5761163a818661287c565b511561165e57611658888a61136c8460a08780821b0393015161287c565b0161161b565b818060a01b036116728260a08c015161287c565b511661168081600435612c00565b6004358752600760205260408720838060a01b0382168852602052604087206116ac606435825461281d565b905560043587526008602052604087206116c9606435825461281d565b9055876040516064358152600080516020612d4c833981519152602060043592a46004358652600560205260408620611705606435825461281d565b9055611658565b611658565b50939450959050610c9b61145b92979560843590604060018060a01b039101511686600435612b14565b61174f91503d808a833e61102f818361261e565b88611538565b9290938451600e8110156122fc57600603611838576001546001600160a01b03169460001984018481116114bd57879060646040518099819363092d751360e01b8352600435600484015260248301528460448301525afa9081156114b25760806117e7926110fe988a9161181e575b500151928360011c97888093604060018060a01b039101511688600435612b14565b94810390811161180a576004358652600560205261111c6040872091825461281d565b634e487b7160e01b86526011600452602486fd5b61183291503d808c833e61102f818361261e565b8a6117c5565b84919451600e8110156122fc57600703611a975761187c9061186160843560011c60843561281d565b906110fe8260018060a01b0360408701511687600435612b14565b93600435865260056020526040862061189b60843560011c825461281d565b9055859260a083015151946118af86612653565b956118bd604051978861261e565b8087526118cc601f1991612653565b01366020880137875b60a08501515181101561194e576118f08160c087015161287c565b516005811015610b1a576020860151906006821015610de1579061191391612a5a565b8015611947575b611927575b6001016118d5565b946119336001916125de565b958161193f828a61287c565b52905061191f565b508861191a565b50909294919584158015600014611a8657611a725761197690610b71610e788a60643561281d565b95875b60a087015151811015611a6557806119936001928661287c565b51156119b7576119b187838060a01b03610ee28460a08d015161287c565b01611979565b818060a01b036119cb8260a08b015161287c565b51166119d981600435612c00565b6004358b52600760205260408b20838060a01b0382168c5260205260408b20611a05606435825461281d565b90556004358b52600860205260408b20611a22606435825461281d565b9055866040516064358152600080516020612d4c833981519152602060043592a46004358a52600560205260408a20611a5e606435825461281d565b90556119b1565b5090945091925050610ca9565b634e487b7160e01b88526012600452602488fd5b5061197690610b71610e788a610b60565b9293918151600e8110156122fc57600803611e4e57859260a08301515194611abe86612653565b95611acc604051978861261e565b808752611adb601f1991612653565b01366020880137875b60a08501518051821015611b8b5760408601516001600160a01b0390811691611b0e90849061287c565b511614611b8357611b238160c087015161287c565b516005811015610b1a576020860151906006821015610de15790611b4691612a5a565b8015611b7c575b611b5c575b6001905b01611ae4565b94611b686001916125de565b9581611b74828a61287c565b529050611b52565b5088611b4d565b600190611b56565b5050959496909693929360a08501515196825b60a08701518051821015611e3f5760408801516001600160a01b0390811691611bc890849061287c565b511614611bd757600101611b9e565b5090919293949596611be89061283d565b505b841580611e2e57610fe657611c0890610b71610e788560643561281d565b96825b60a08701518051821015611d22576040880151600192916001600160a01b039182169190611c3a90849061287c565b511614611d1d57611c4b818561287c565b5115611c6f57611c6987838060a01b03610ee28460a08d015161287c565b01611c0b565b818060a01b03611c838260a08b015161287c565b5116611c9181600435612c00565b6004358652600760205260408620838060a01b038216875260205260408620611cbd606435825461281d565b90556004358652600860205260408620611cda606435825461281d565b9055866040516064358152600080516020612d4c833981519152602060043592a46004358552600560205260408520611d16606435825461281d565b9055611c69565b611c69565b50509293505094939293611d3f6080860191825160011c9061281d565b9481516003810290808204600314901517156114bd576040828101519051916001916001600160a01b031690611d74846125ed565b821c8352602083019081526004358a52600660205260408a20878b5260205260408a2092518355818060a01b0390511691019060018060a01b031660018060a01b03198254161790556004358752600560205260408720611dd8608435825461281d565b9055604060018060a01b0391015116905160038102818104600314821517156114bd579084916040519182526001602083015260011c6040820152600080516020612ccc833981519152606060043592a4610ca9565b50611c0890610b71610e7885610b60565b50509091929394959650611bea565b8194939451600e8110156122fc5760090361213357608082015192869360a08401515195611e7b87612653565b96611e89604051988961261e565b808852611e98601f1991612653565b01366020890137885b60a08601518051821015611f485760408701516001600160a01b0390811691611ecb90849061287c565b511614611f4057611ee08160c088015161287c565b516005811015610de15760208701519060068210156112685790611f0391612a5a565b8015611f39575b611f19575b6001905b01611ea1565b95611f256001916125de565b9681611f31828b61287c565b529050611f0f565b5089611f0a565b600190611f13565b50509590969391979460a08301515197865b60a0850151805182101561211b5760408601516001600160a01b0390811691611f8490849061287c565b511614611f9357600101611f5a565b50611fb5906110fe611fad611fcc95969798999a9b61283d565b60643561282a565b90801561211357611fc690826127fd565b9561281d565b96855b60a084015180518210156120c9576040850151600192916001600160a01b039182169190611ffe90849061287c565b5116146120c45761200f818561287c565b51156120335761202d87838060a01b03610ee28460a08a015161287c565b01611fcf565b818060a01b036120478260a088015161287c565b511661205581600435612c00565b6004358952600760205260408920838060a01b0382168a5260205260408920612081606435825461281d565b9055600435895260086020526040892061209e606435825461281d565b9055866040516064358152600080516020612d4c833981519152602060043592a461202d565b61202d565b5050929350509392949382608060018060a01b03604084015116920151604051908152876020820152876040820152600080516020612ccc833981519152606060043592a4610ca9565b50869561281d565b5050611fb5906110fe611fcc9495969798999a611fad565b9190938451600e8110156122fc57600a036122285761215b6080860191825160011c9061281d565b948151906003820291808304600314901517156114bd57604001906001808060a01b038351166040519261218e846125ed565b821c8352602083019081526004358a52600660205260408a20878b5260205260408a2092518355818060a01b0390511691019060018060a01b031660018060a01b031982541617905560018060a01b03905116905160038102818104600314821517156114bd579084916040519182526001602083015260011c6040820152600080516020612ccc833981519152606060043592a4610ca9565b938051600e8110156122fc57600b0361227b5782608060018060a01b03604084015116920151604051908152876020820152876040820152600080516020612ccc833981519152606060043592a4610ca9565b938451600e8110156122fc57600c036122a15761215b6080860191825160011c9061281d565b938051600e8110156122fc57600d146122bb575b50610ca9565b82608060018060a01b03604084015116920151604051908152876020820152876040820152600080516020612ccc833981519152606060043592a4856122b5565b634e487b7160e01b87526021600452602487fd5b634e487b7160e01b600052602160045260246000fd5b612339913d8091833e61102f818361261e565b85610a51565b6040513d6000823e3d90fd5b634e487b7160e01b600052601160045260246000fd5b906020823d821161238d575b8161237a6020938361261e565b8101031261238a575051856109f8565b80fd5b3d915061236d565b6000610a3e91610a0c565b906020823d82116123c9575b816123b96020938361261e565b8101031261238a575051856109b6565b3d91506123ac565b6323c76f5b60e21b60005260046000fd5b346101c45760403660031901126101c4576123fb6124fe565b336001600160a01b03821603612417576103bf90600435612999565b63334bd91960e11b60005260046000fd5b346101c45760403660031901126101c4576103bf6004356124476124fe565b906124546103b5826125bd565b6128f0565b346101c45760203660031901126101c45760206124776004356125bd565b604051908152f35b346101c45760203660031901126101c45760043560005260046020526020604060002054604051908152f35b346101c45760203660031901126101c4576004359063ffffffff60e01b82168092036101c457602091637965db0b60e01b81149081156124ed575b5015158152f35b6301ffc9a760e01b149050836124e6565b602435906001600160a01b03821682036101c457565b600435906001600160a01b03821682036101c457565b60409060031901126101c4576004359060243590565b6040810160408252825180915260206060830193019060005b81811061259e5750505060208183039101526020808351928381520192019060005b8181106125885750505090565b825184526020938401939092019160010161257b565b82516001600160a01b0316855260209485019490920191600101612559565b600052600080516020612cec83398151915260205260016040600020015490565b600019811461234b5760010190565b604081019081106001600160401b0382111761260857604052565b634e487b7160e01b600052604160045260246000fd5b90601f801991011681019081106001600160401b0382111761260857604052565b51906001600160a01b03821682036101c457565b6001600160401b0381116126085760051b60200190565b6020818303126101c4578051906001600160401b0382116101c45701610100818303126101c4576040519161010083018381106001600160401b03821117612608576040528151600e8110156101c4578352602082015160068110156101c45760208401526126db6040830161263f565b6040840152606082015160608401526080820151608084015260a08201516001600160401b0381116101c457820181601f820112156101c45780519061272082612653565b9161272e604051938461261e565b80835260208084019160051b830101918483116101c457602001905b8282106127e55750505060a084015260c08201516001600160401b0381116101c45782019080601f830112156101c45781519061278682612653565b92612794604051948561261e565b82845260208085019360051b8201019182116101c457602001915b8183106127cc575050509060e09160c0840152015160e082015290565b825160058110156101c4578152602092830192016127af565b602080916127f28461263f565b81520191019061274a565b8115612807570490565b634e487b7160e01b600052601260045260246000fd5b9190820180921161234b57565b8181029291811591840414171561234b57565b801561234b576000190190565b9061285482612653565b612861604051918261261e565b8281528092612872601f1991612653565b0190602036910137565b80518210156128905760209160051b010190565b634e487b7160e01b600052603260045260246000fd5b6000818152600080516020612cec8339815191526020908152604080832033845290915290205460ff16156128d85750565b63e2517d3f60e01b6000523360045260245260446000fd5b6000818152600080516020612cec833981519152602090815260408083206001600160a01b038616845290915290205460ff16612992576000818152600080516020612cec833981519152602090815260408083206001600160a01b0395909516808452949091528120805460ff19166001179055339291907f2f8788117e7eff1d82e926ec794901d17c78024a50270940304540a733656f0d9080a4600190565b5050600090565b6000818152600080516020612cec833981519152602090815260408083206001600160a01b038616845290915290205460ff1615612992576000818152600080516020612cec833981519152602090815260408083206001600160a01b0395909516808452949091528120805460ff19169055339291907ff6391f5c32d9c69d2a47ea670b442974b53935d1edc7fd64eb21e047a839171b9080a4600190565b600080516020612cac833981519152546001600160a01b0316330361055b57565b600682101590816123105760058314612b0c576000906005811015612af85760018103612a8d5750506123105760011490565b81600282148015612aec575b15612abc575050506123105760028114908115612ab4575090565b600491501490565b9091939250612ad857600314612ad0575090565b600391501490565b634e487b7160e01b83526021600452602483fd5b50508160048214612a99565b634e487b7160e01b82526021600452602482fd5b505050600190565b909160407f1a575cc1f7b2b31ad5fb04f26577fa4778772142c5a3af8b89647a512b5c1fc391612b448185612c00565b8360005260026020528160002060018060a01b03821660005260205281600020612b6f87825461281d565b90558151958652600160208701526001600160a01b031694a4565b909160407f1a575cc1f7b2b31ad5fb04f26577fa4778772142c5a3af8b89647a512b5c1fc391612bba8185612c00565b8360005260026020528160002060018060a01b03821660005260205281600020612be587825461281d565b90558151958652600060208701526001600160a01b031694a4565b90816000526002602052604060002060018060a01b0382166000526020526040600020541580612c81575b612c33575050565b816000526004602052604060002054600052600360205260406000209060018060a01b031660018060a01b031982541617905560005260046020526040600020612c7d81546125de565b9055565b50816000526007602052604060002060018060a01b03821660005260205260406000205415612c2b56fe9016d09d72d40fdae2fd8ceac6b6234c7706214fd39c1cd1e609a0528c199300a013a5578d6ee6541b4bfa9541e3d7d918ecfcb8a81030b3b1eb3f9aae20007d02dd7bc7dec4dceedda775e58dd541e08a116c6c53815c0bd028192f7b626800f0c57e16840df040f15088dc2f81fe391c3923bec73e23a9662efc9c229c6a00237e158222e3e6968b72b9db0d8043aacf074ad9f650f0d1606b4d82ee432c00b53a9a4243f44525ba76af0beaa6c0feaf0d4531da91814112747f4c60313fa9a26469706673582212203134b3d2ce5a316da4738caed69f49cd0d0ab2bafa3366cfae56068cdabc6bd664736f6c634300081c0033",
  "linkReferences": {},
  "deployedLinkReferences": {}
}