{
  "_format": "hh-sol-artifact-1",
  "contractName": "GEN",
  "sourceName": "contracts/GEN.sol",
  "abi": [
    {
      "inputs": [],
      "name": "AccessControlBadConfirmation",
      "type": "error"
    },
    {
      "inputs": [
        {
          "internalType": "address",
          "name": "account",
          "type": "address"
        },
        {
          "internalType": "bytes32",
          "name": "neededRole",
          "type": "bytes32"
        }
      ],
      "name": "AccessControlUnauthorizedAccount",
      "type": "error"
    },
    {
      "inputs": [],
      "name": "AccountsArrayEmpty",
      "type": "error"
    },
    {
      "inputs": [
        {
          "internalType": "address",
          "name": "target",
          "type": "address"
        }
      ],
      "name": "AddressEmptyCode",
      "type": "error"
    },
    {
      "inputs": [],
      "name": "AmountMustBeGreaterThan0",
      "type": "error"
    },
    {
      "inputs": [],
      "name": "CanOnlyTriggerInflationMaxEpochsInFuture",
      "type": "error"
    },
    {
      "inputs": [],
      "name": "CanOnlyTriggerInflationMaxTenEpochsInFuture",
      "type": "error"
    },
    {
      "inputs": [
        {
          "internalType": "address",
          "name": "implementation",
          "type": "address"
        }
      ],
      "name": "ERC1967InvalidImplementation",
      "type": "error"
    },
    {
      "inputs": [],
      "name": "ERC1967NonPayable",
      "type": "error"
    },
    {
      "inputs": [
        {
          "internalType": "address",
          "name": "spender",
          "type": "address"
        },
        {
          "internalType": "uint256",
          "name": "allowance",
          "type": "uint256"
        },
        {
          "internalType": "uint256",
          "name": "needed",
          "type": "uint256"
        }
      ],
      "name": "ERC20InsufficientAllowance",
      "type": "error"
    },
    {
      "inputs": [
        {
          "internalType": "address",
          "name": "sender",
          "type": "address"
        },
        {
          "internalType": "uint256",
          "name": "balance",
          "type": "uint256"
        },
        {
          "internalType": "uint256",
          "name": "needed",
          "type": "uint256"
        }
      ],
      "name": "ERC20InsufficientBalance",
      "type": "error"
    },
    {
      "inputs": [
        {
          "internalType": "address",
          "name": "approver",
          "type": "address"
        }
      ],
      "name": "ERC20InvalidApprover",
      "type": "error"
    },
    {
      "inputs": [
        {
          "internalType": "address",
          "name": "receiver",
          "type": "address"
        }
      ],
      "name": "ERC20InvalidReceiver",
      "type": "error"
    },
    {
      "inputs": [
        {
          "internalType": "address",
          "name": "sender",
          "type": "address"
        }
      ],
      "name": "ERC20InvalidSender",
      "type": "error"
    },
    {
      "inputs": [
        {
          "internalType": "address",
          "name": "spender",
          "type": "address"
        }
      ],
      "name": "ERC20InvalidSpender",
      "type": "error"
    },
    {
      "inputs": [],
      "name": "FailedCall",
      "type": "error"
    },
    {
      "inputs": [],
      "name": "IncentivePercentageTooHigh",
      "type": "error"
    },
    {
      "inputs": [],
      "name": "InflationInitialized",
      "type": "error"
    },
    {
      "inputs": [],
      "name": "InflationNotReadyToBeRealized",
      "type": "error"
    },
    {
      "inputs": [],
      "name": "InitialMintAlreadyCalled",
      "type": "error"
    },
    {
      "inputs": [],
      "name": "InvalidInitialization",
      "type": "error"
    },
    {
      "inputs": [],
      "name": "L2BaseGasCostQueryFailed",
      "type": "error"
    },
    {
      "inputs": [],
      "name": "L2MessageAlreadyInvoked",
      "type": "error"
    },
    {
      "inputs": [],
      "name": "L2MessageProvenFailed",
      "type": "error"
    },
    {
      "inputs": [],
      "name": "L2TransactionRequestFailed",
      "type": "error"
    },
    {
      "inputs": [],
      "name": "NotInitializing",
      "type": "error"
    },
    {
      "inputs": [
        {
          "internalType": "address",
          "name": "owner",
          "type": "address"
        }
      ],
      "name": "OwnableInvalidOwner",
      "type": "error"
    },
    {
      "inputs": [
        {
          "internalType": "address",
          "name": "account",
          "type": "address"
        }
      ],
      "name": "OwnableUnauthorizedAccount",
      "type": "error"
    },
    {
      "inputs": [],
      "name": "TotalDistributionMustBe100",
      "type": "error"
    },
    {
      "inputs": [],
      "name": "UUPSUnauthorizedCallContext",
      "type": "error"
    },
    {
      "inputs": [
        {
          "internalType": "bytes32",
          "name": "slot",
          "type": "bytes32"
        }
      ],
      "name": "UUPSUnsupportedProxiableUUID",
      "type": "error"
    },
    {
      "inputs": [],
      "name": "UnauthorizedInflationRequest",
      "type": "error"
    },
    {
      "inputs": [],
      "name": "UnknownGenAction",
      "type": "error"
    },
    {
      "anonymous": false,
      "inputs": [
        {
          "indexed": true,
          "internalType": "address",
          "name": "owner",
          "type": "address"
        },
        {
          "indexed": true,
          "internalType": "address",
          "name": "spender",
          "type": "address"
        },
        {
          "indexed": false,
          "internalType": "uint256",
          "name": "value",
          "type": "uint256"
        }
      ],
      "name": "Approval",
      "type": "event"
    },
    {
      "anonymous": false,
      "inputs": [
        {
          "indexed": false,
          "internalType": "uint256",
          "name": "_amount",
          "type": "uint256"
        }
      ],
      "name": "BurnTriggered",
      "type": "event"
    },
    {
      "anonymous": false,
      "inputs": [
        {
          "indexed": true,
          "internalType": "address",
          "name": "_genLayerStaking",
          "type": "address"
        }
      ],
      "name": "GenLayerStakingSet",
      "type": "event"
    },
    {
      "anonymous": false,
      "inputs": [
        {
          "indexed": false,
          "internalType": "uint256",
          "name": "_incentivePercentage",
          "type": "uint256"
        }
      ],
      "name": "IncentivePercentageSet",
      "type": "event"
    },
    {
      "anonymous": false,
      "inputs": [
        {
          "indexed": true,
          "internalType": "address",
          "name": "_caller",
          "type": "address"
        },
        {
          "indexed": false,
          "internalType": "uint256",
          "name": "_reward",
          "type": "uint256"
        }
      ],
      "name": "IncentiveRewardPaid",
      "type": "event"
    },
    {
      "anonymous": false,
      "inputs": [
        {
          "indexed": false,
          "internalType": "uint256",
          "name": "_l2GasPrice",
          "type": "uint256"
        },
        {
          "indexed": false,
          "internalType": "uint256",
          "name": "_l2GasLimit",
          "type": "uint256"
        }
      ],
      "name": "InflationInit",
      "type": "event"
    },
    {
      "anonymous": false,
      "inputs": [
        {
          "indexed": true,
          "internalType": "uint256",
          "name": "_epochTo",
          "type": "uint256"
        },
        {
          "indexed": false,
          "internalType": "uint256",
          "name": "_l2GasPrice",
          "type": "uint256"
        },
        {
          "indexed": false,
          "internalType": "uint256",
          "name": "_l2GasLimit",
          "type": "uint256"
        }
      ],
      "name": "InflationRequestReceived",
      "type": "event"
    },
    {
      "anonymous": false,
      "inputs": [],
      "name": "InflationReset",
      "type": "event"
    },
    {
      "anonymous": false,
      "inputs": [
        {
          "indexed": false,
          "internalType": "uint256",
          "name": "_epochTo",
          "type": "uint256"
        },
        {
          "indexed": false,
          "internalType": "uint256",
          "name": "_l2GasPrice",
          "type": "uint256"
        },
        {
          "indexed": false,
          "internalType": "uint256",
          "name": "_l2GasLimit",
          "type": "uint256"
        }
      ],
      "name": "InflationTriggered",
      "type": "event"
    },
    {
      "anonymous": false,
      "inputs": [],
      "name": "InitialMintCalled",
      "type": "event"
    },
    {
      "anonymous": false,
      "inputs": [
        {
          "indexed": false,
          "internalType": "uint64",
          "name": "version",
          "type": "uint64"
        }
      ],
      "name": "Initialized",
      "type": "event"
    },
    {
      "anonymous": false,
      "inputs": [
        {
          "indexed": false,
          "internalType": "uint256",
          "name": "_batchNumber",
          "type": "uint256"
        },
        {
          "indexed": false,
          "internalType": "uint256",
          "name": "_txIndex",
          "type": "uint256"
        },
        {
          "indexed": false,
          "internalType": "uint16",
          "name": "_batchIndex",
          "type": "uint16"
        },
        {
          "indexed": false,
          "internalType": "enum IGEN.GenAction",
          "name": "_action",
          "type": "uint8"
        },
        {
          "indexed": false,
          "internalType": "uint256",
          "name": "_amount",
          "type": "uint256"
        }
      ],
      "name": "L2MessageExecuted",
      "type": "event"
    },
    {
      "anonymous": false,
      "inputs": [
        {
          "indexed": false,
          "internalType": "uint256",
          "name": "_maxInflationEpochs",
          "type": "uint256"
        }
      ],
      "name": "MaxInflationEpochsSet",
      "type": "event"
    },
    {
      "anonymous": false,
      "inputs": [
        {
          "indexed": true,
          "internalType": "address",
          "name": "previousOwner",
          "type": "address"
        },
        {
          "indexed": true,
          "internalType": "address",
          "name": "newOwner",
          "type": "address"
        }
      ],
      "name": "OwnershipTransferred",
      "type": "event"
    },
    {
      "anonymous": false,
      "inputs": [
        {
          "indexed": true,
          "internalType": "bytes32",
          "name": "role",
          "type": "bytes32"
        },
        {
          "indexed": true,
          "internalType": "bytes32",
          "name": "previousAdminRole",
          "type": "bytes32"
        },
        {
          "indexed": true,
          "internalType": "bytes32",
          "name": "newAdminRole",
          "type": "bytes32"
        }
      ],
      "name": "RoleAdminChanged",
      "type": "event"
    },
    {
      "anonymous": false,
      "inputs": [
        {
          "indexed": true,
          "internalType": "bytes32",
          "name": "role",
          "type": "bytes32"
        },
        {
          "indexed": true,
          "internalType": "address",
          "name": "account",
          "type": "address"
        },
        {
          "indexed": true,
          "internalType": "address",
          "name": "sender",
          "type": "address"
        }
      ],
      "name": "RoleGranted",
      "type": "event"
    },
    {
      "anonymous": false,
      "inputs": [
        {
          "indexed": true,
          "internalType": "bytes32",
          "name": "role",
          "type": "bytes32"
        },
        {
          "indexed": true,
          "internalType": "address",
          "name": "account",
          "type": "address"
        },
        {
          "indexed": true,
          "internalType": "address",
          "name": "sender",
          "type": "address"
        }
      ],
      "name": "RoleRevoked",
      "type": "event"
    },
    {
      "anonymous": false,
      "inputs": [],
      "name": "TestTriggered",
      "type": "event"
    },
    {
      "anonymous": false,
      "inputs": [
        {
          "indexed": true,
          "internalType": "address",
          "name": "_timelockFactory",
          "type": "address"
        }
      ],
      "name": "TimelockFactorySet",
      "type": "event"
    },
    {
      "anonymous": false,
      "inputs": [
        {
          "indexed": true,
          "internalType": "address",
          "name": "from",
          "type": "address"
        },
        {
          "indexed": true,
          "internalType": "address",
          "name": "to",
          "type": "address"
        },
        {
          "indexed": false,
          "internalType": "uint256",
          "name": "value",
          "type": "uint256"
        }
      ],
      "name": "Transfer",
      "type": "event"
    },
    {
      "anonymous": false,
      "inputs": [
        {
          "indexed": true,
          "internalType": "address",
          "name": "implementation",
          "type": "address"
        }
      ],
      "name": "Upgraded",
      "type": "event"
    },
    {
      "anonymous": false,
      "inputs": [
        {
          "indexed": true,
          "internalType": "address",
          "name": "_zkSyncL1AssetRouter",
          "type": "address"
        },
        {
          "indexed": true,
          "internalType": "address",
          "name": "_zkSyncBridgeHub",
          "type": "address"
        },
        {
          "indexed": true,
          "internalType": "address",
          "name": "_zksyncSharedBridge",
          "type": "address"
        }
      ],
      "name": "ZkSyncContractsSet",
      "type": "event"
    },
    {
      "inputs": [],
      "name": "BURNER_ROLE",
      "outputs": [
        {
          "internalType": "bytes32",
          "name": "",
          "type": "bytes32"
        }
      ],
      "stateMutability": "view",
      "type": "function"
    },
    {
      "inputs": [],
      "name": "BURN_SELECTOR",
      "outputs": [
        {
          "internalType": "bytes4",
          "name": "",
          "type": "bytes4"
        }
      ],
      "stateMutability": "view",
      "type": "function"
    },
    {
      "inputs": [],
      "name": "DEFAULT_ADMIN_ROLE",
      "outputs": [
        {
          "internalType": "bytes32",
          "name": "",
          "type": "bytes32"
        }
      ],
      "stateMutability": "view",
      "type": "function"
    },
    {
      "inputs": [],
      "name": "GENLAYER_CHAIN_ID",
      "outputs": [
        {
          "internalType": "uint256",
          "name": "",
          "type": "uint256"
        }
      ],
      "stateMutability": "view",
      "type": "function"
    },
    {
      "inputs": [],
      "name": "INFLATION_BASE",
      "outputs": [
        {
          "internalType": "uint256",
          "name": "",
          "type": "uint256"
        }
      ],
      "stateMutability": "view",
      "type": "function"
    },
    {
      "inputs": [],
      "name": "INFLATION_DECAY_DELTA",
      "outputs": [
        {
          "internalType": "uint256",
          "name": "",
          "type": "uint256"
        }
      ],
      "stateMutability": "view",
      "type": "function"
    },
    {
      "inputs": [],
      "name": "INFLATION_DECAY_EPOCHS",
      "outputs": [
        {
          "internalType": "uint256",
          "name": "",
          "type": "uint256"
        }
      ],
      "stateMutability": "view",
      "type": "function"
    },
    {
      "inputs": [],
      "name": "INFLATION_EPOCH_DURATION",
      "outputs": [
        {
          "internalType": "uint256",
          "name": "",
          "type": "uint256"
        }
      ],
      "stateMutability": "view",
      "type": "function"
    },
    {
      "inputs": [],
      "name": "INFLATION_FINAL",
      "outputs": [
        {
          "internalType": "uint256",
          "name": "",
          "type": "uint256"
        }
      ],
      "stateMutability": "view",
      "type": "function"
    },
    {
      "inputs": [],
      "name": "INFLATION_INCEPTION",
      "outputs": [
        {
          "internalType": "uint256",
          "name": "",
          "type": "uint256"
        }
      ],
      "stateMutability": "view",
      "type": "function"
    },
    {
      "inputs": [],
      "name": "INFLATION_INITIAL",
      "outputs": [
        {
          "internalType": "uint256",
          "name": "",
          "type": "uint256"
        }
      ],
      "stateMutability": "view",
      "type": "function"
    },
    {
      "inputs": [],
      "name": "INFLATION_MID",
      "outputs": [
        {
          "internalType": "int256",
          "name": "",
          "type": "int256"
        }
      ],
      "stateMutability": "view",
      "type": "function"
    },
    {
      "inputs": [],
      "name": "INFLATION_STEEPNESS",
      "outputs": [
        {
          "internalType": "int256",
          "name": "",
          "type": "int256"
        }
      ],
      "stateMutability": "view",
      "type": "function"
    },
    {
      "inputs": [],
      "name": "INITIAL_SUPPLY",
      "outputs": [
        {
          "internalType": "uint256",
          "name": "",
          "type": "uint256"
        }
      ],
      "stateMutability": "view",
      "type": "function"
    },
    {
      "inputs": [],
      "name": "MINTER_ROLE",
      "outputs": [
        {
          "internalType": "bytes32",
          "name": "",
          "type": "bytes32"
        }
      ],
      "stateMutability": "view",
      "type": "function"
    },
    {
      "inputs": [],
      "name": "ONE",
      "outputs": [
        {
          "internalType": "uint256",
          "name": "",
          "type": "uint256"
        }
      ],
      "stateMutability": "view",
      "type": "function"
    },
    {
      "inputs": [],
      "name": "UPGRADE_INTERFACE_VERSION",
      "outputs": [
        {
          "internalType": "string",
          "name": "",
          "type": "string"
        }
      ],
      "stateMutability": "view",
      "type": "function"
    },
    {
      "inputs": [],
      "name": "VERSION",
      "outputs": [
        {
          "internalType": "uint256",
          "name": "",
          "type": "uint256"
        }
      ],
      "stateMutability": "view",
      "type": "function"
    },
    {
      "inputs": [],
      "name": "ZKSYNC_BRIDGE_HUB",
      "outputs": [
        {
          "internalType": "contract IBridgeHub",
          "name": "",
          "type": "address"
        }
      ],
      "stateMutability": "view",
      "type": "function"
    },
    {
      "inputs": [],
      "name": "ZKSYNC_L1_ASSET_ROUTER",
      "outputs": [
        {
          "internalType": "address",
          "name": "",
          "type": "address"
        }
      ],
      "stateMutability": "view",
      "type": "function"
    },
    {
      "inputs": [],
      "name": "ZKSYNC_SHARED_BRIDGE",
      "outputs": [
        {
          "internalType": "contract ISharedBridge",
          "name": "",
          "type": "address"
        }
      ],
      "stateMutability": "view",
      "type": "function"
    },
    {
      "inputs": [
        {
          "internalType": "address",
          "name": "owner",
          "type": "address"
        },
        {
          "internalType": "address",
          "name": "spender",
          "type": "address"
        }
      ],
      "name": "allowance",
      "outputs": [
        {
          "internalType": "uint256",
          "name": "",
          "type": "uint256"
        }
      ],
      "stateMutability": "view",
      "type": "function"
    },
    {
      "inputs": [
        {
          "internalType": "address",
          "name": "spender",
          "type": "address"
        },
        {
          "internalType": "uint256",
          "name": "value",
          "type": "uint256"
        }
      ],
      "name": "approve",
      "outputs": [
        {
          "internalType": "bool",
          "name": "",
          "type": "bool"
        }
      ],
      "stateMutability": "nonpayable",
      "type": "function"
    },
    {
      "inputs": [
        {
          "internalType": "address",
          "name": "account",
          "type": "address"
        }
      ],
      "name": "balanceOf",
      "outputs": [
        {
          "internalType": "uint256",
          "name": "",
          "type": "uint256"
        }
      ],
      "stateMutability": "view",
      "type": "function"
    },
    {
      "inputs": [
        {
          "internalType": "uint256",
          "name": "amount",
          "type": "uint256"
        }
      ],
      "name": "burn",
      "outputs": [],
      "stateMutability": "nonpayable",
      "type": "function"
    },
    {
      "inputs": [],
      "name": "burn",
      "outputs": [],
      "stateMutability": "nonpayable",
      "type": "function"
    },
    {
      "inputs": [],
      "name": "decimals",
      "outputs": [
        {
          "internalType": "uint8",
          "name": "",
          "type": "uint8"
        }
      ],
      "stateMutability": "view",
      "type": "function"
    },
    {
      "inputs": [
        {
          "internalType": "uint16",
          "name": "_batchNumber",
          "type": "uint16"
        },
        {
          "internalType": "uint256",
          "name": "_txIndex",
          "type": "uint256"
        },
        {
          "internalType": "uint16",
          "name": "_batchIndex",
          "type": "uint16"
        },
        {
          "internalType": "bytes",
          "name": "_message",
          "type": "bytes"
        },
        {
          "internalType": "bytes32[]",
          "name": "_proof",
          "type": "bytes32[]"
        },
        {
          "internalType": "uint256",
          "name": "_l2GasPrice",
          "type": "uint256"
        },
        {
          "internalType": "uint256",
          "name": "_l2GasLimit",
          "type": "uint256"
        }
      ],
      "name": "executeL2Message",
      "outputs": [],
      "stateMutability": "nonpayable",
      "type": "function"
    },
    {
      "inputs": [],
      "name": "genLayerStaking",
      "outputs": [
        {
          "internalType": "address",
          "name": "",
          "type": "address"
        }
      ],
      "stateMutability": "view",
      "type": "function"
    },
    {
      "inputs": [
        {
          "internalType": "bytes32",
          "name": "role",
          "type": "bytes32"
        }
      ],
      "name": "getRoleAdmin",
      "outputs": [
        {
          "internalType": "bytes32",
          "name": "",
          "type": "bytes32"
        }
      ],
      "stateMutability": "view",
      "type": "function"
    },
    {
      "inputs": [
        {
          "internalType": "bytes32",
          "name": "role",
          "type": "bytes32"
        },
        {
          "internalType": "address",
          "name": "account",
          "type": "address"
        }
      ],
      "name": "grantRole",
      "outputs": [],
      "stateMutability": "nonpayable",
      "type": "function"
    },
    {
      "inputs": [
        {
          "internalType": "bytes32",
          "name": "role",
          "type": "bytes32"
        },
        {
          "internalType": "address",
          "name": "account",
          "type": "address"
        }
      ],
      "name": "hasRole",
      "outputs": [
        {
          "internalType": "bool",
          "name": "",
          "type": "bool"
        }
      ],
      "stateMutability": "view",
      "type": "function"
    },
    {
      "inputs": [],
      "name": "incentivePercentage",
      "outputs": [
        {
          "internalType": "uint256",
          "name": "",
          "type": "uint256"
        }
      ],
      "stateMutability": "view",
      "type": "function"
    },
    {
      "inputs": [
        {
          "internalType": "uint256",
          "name": "_l2GasPrice",
          "type": "uint256"
        },
        {
          "internalType": "uint256",
          "name": "_l2GasLimit",
          "type": "uint256"
        }
      ],
      "name": "inflationInit",
      "outputs": [],
      "stateMutability": "nonpayable",
      "type": "function"
    },
    {
      "inputs": [],
      "name": "inflationInitialized",
      "outputs": [
        {
          "internalType": "bool",
          "name": "",
          "type": "bool"
        }
      ],
      "stateMutability": "view",
      "type": "function"
    },
    {
      "inputs": [
        {
          "internalType": "address[]",
          "name": "accounts",
          "type": "address[]"
        },
        {
          "internalType": "uint256[]",
          "name": "distribution",
          "type": "uint256[]"
        }
      ],
      "name": "initialMint",
      "outputs": [],
      "stateMutability": "nonpayable",
      "type": "function"
    },
    {
      "inputs": [],
      "name": "initialMintCalled",
      "outputs": [
        {
          "internalType": "bool",
          "name": "",
          "type": "bool"
        }
      ],
      "stateMutability": "view",
      "type": "function"
    },
    {
      "inputs": [],
      "name": "initialize",
      "outputs": [],
      "stateMutability": "nonpayable",
      "type": "function"
    },
    {
      "inputs": [
        {
          "internalType": "uint256",
          "name": "batchNumber",
          "type": "uint256"
        },
        {
          "internalType": "uint256",
          "name": "txIndex",
          "type": "uint256"
        },
        {
          "internalType": "uint256",
          "name": "batchIndex",
          "type": "uint256"
        },
        {
          "internalType": "bytes32",
          "name": "messageHash",
          "type": "bytes32"
        }
      ],
      "name": "invokedL2Messages",
      "outputs": [
        {
          "internalType": "bool",
          "name": "invoked",
          "type": "bool"
        }
      ],
      "stateMutability": "view",
      "type": "function"
    },
    {
      "inputs": [
        {
          "internalType": "uint16",
          "name": "_batchNumber",
          "type": "uint16"
        },
        {
          "internalType": "uint256",
          "name": "_txIndex",
          "type": "uint256"
        },
        {
          "internalType": "uint16",
          "name": "_batchIndex",
          "type": "uint16"
        },
        {
          "internalType": "bytes",
          "name": "_message",
          "type": "bytes"
        },
        {
          "internalType": "bytes32[]",
          "name": "_proof",
          "type": "bytes32[]"
        }
      ],
      "name": "isL2MessagePending",
      "outputs": [
        {
          "internalType": "bool",
          "name": "pending",
          "type": "bool"
        },
        {
          "internalType": "uint256",
          "name": "rewards",
          "type": "uint256"
        }
      ],
      "stateMutability": "view",
      "type": "function"
    },
    {
      "inputs": [],
      "name": "lastInflationEpoch",
      "outputs": [
        {
          "internalType": "uint256",
          "name": "",
          "type": "uint256"
        }
      ],
      "stateMutability": "view",
      "type": "function"
    },
    {
      "inputs": [],
      "name": "maxInflationEpochs",
      "outputs": [
        {
          "internalType": "uint256",
          "name": "",
          "type": "uint256"
        }
      ],
      "stateMutability": "view",
      "type": "function"
    },
    {
      "inputs": [
        {
          "internalType": "address",
          "name": "account",
          "type": "address"
        },
        {
          "internalType": "uint256",
          "name": "amount",
          "type": "uint256"
        }
      ],
      "name": "mint",
      "outputs": [],
      "stateMutability": "nonpayable",
      "type": "function"
    },
    {
      "inputs": [],
      "name": "name",
      "outputs": [
        {
          "internalType": "string",
          "name": "",
          "type": "string"
        }
      ],
      "stateMutability": "view",
      "type": "function"
    },
    {
      "inputs": [],
      "name": "owner",
      "outputs": [
        {
          "internalType": "address",
          "name": "",
          "type": "address"
        }
      ],
      "stateMutability": "view",
      "type": "function"
    },
    {
      "inputs": [],
      "name": "proxiableUUID",
      "outputs": [
        {
          "internalType": "bytes32",
          "name": "",
          "type": "bytes32"
        }
      ],
      "stateMutability": "view",
      "type": "function"
    },
    {
      "inputs": [],
      "name": "renounceOwnership",
      "outputs": [],
      "stateMutability": "nonpayable",
      "type": "function"
    },
    {
      "inputs": [
        {
          "internalType": "bytes32",
          "name": "role",
          "type": "bytes32"
        },
        {
          "internalType": "address",
          "name": "callerConfirmation",
          "type": "address"
        }
      ],
      "name": "renounceRole",
      "outputs": [],
      "stateMutability": "nonpayable",
      "type": "function"
    },
    {
      "inputs": [],
      "name": "resetInflation",
      "outputs": [],
      "stateMutability": "nonpayable",
      "type": "function"
    },
    {
      "inputs": [
        {
          "internalType": "bytes32",
          "name": "role",
          "type": "bytes32"
        },
        {
          "internalType": "address",
          "name": "account",
          "type": "address"
        }
      ],
      "name": "revokeRole",
      "outputs": [],
      "stateMutability": "nonpayable",
      "type": "function"
    },
    {
      "inputs": [
        {
          "internalType": "address",
          "name": "_genLayerStaking",
          "type": "address"
        }
      ],
      "name": "setGenLayerStaking",
      "outputs": [],
      "stateMutability": "nonpayable",
      "type": "function"
    },
    {
      "inputs": [
        {
          "internalType": "uint256",
          "name": "_incentivePercentage",
          "type": "uint256"
        }
      ],
      "name": "setIncentivePercentage",
      "outputs": [],
      "stateMutability": "nonpayable",
      "type": "function"
    },
    {
      "inputs": [
        {
          "internalType": "uint256",
          "name": "_maxInflationEpochs",
          "type": "uint256"
        }
      ],
      "name": "setMaxInflationEpochs",
      "outputs": [],
      "stateMutability": "nonpayable",
      "type": "function"
    },
    {
      "inputs": [
        {
          "internalType": "address",
          "name": "_timelockFactory",
          "type": "address"
        }
      ],
      "name": "setTimelockFactory",
      "outputs": [],
      "stateMutability": "nonpayable",
      "type": "function"
    },
    {
      "inputs": [
        {
          "internalType": "address",
          "name": "_zkSyncL1AssetRouter",
          "type": "address"
        },
        {
          "internalType": "address",
          "name": "_zkSyncBridgeHub",
          "type": "address"
        },
        {
          "internalType": "address",
          "name": "_zksyncSharedBridge",
          "type": "address"
        }
      ],
      "name": "setZkSyncContracts",
      "outputs": [],
      "stateMutability": "nonpayable",
      "type": "function"
    },
    {
      "inputs": [
        {
          "internalType": "bytes4",
          "name": "interfaceId",
          "type": "bytes4"
        }
      ],
      "name": "supportsInterface",
      "outputs": [
        {
          "internalType": "bool",
          "name": "",
          "type": "bool"
        }
      ],
      "stateMutability": "view",
      "type": "function"
    },
    {
      "inputs": [],
      "name": "symbol",
      "outputs": [
        {
          "internalType": "string",
          "name": "",
          "type": "string"
        }
      ],
      "stateMutability": "view",
      "type": "function"
    },
    {
      "inputs": [],
      "name": "timelockFactory",
      "outputs": [
        {
          "internalType": "address",
          "name": "",
          "type": "address"
        }
      ],
      "stateMutability": "view",
      "type": "function"
    },
    {
      "inputs": [],
      "name": "totalSupply",
      "outputs": [
        {
          "internalType": "uint256",
          "name": "",
          "type": "uint256"
        }
      ],
      "stateMutability": "view",
      "type": "function"
    },
    {
      "inputs": [
        {
          "internalType": "address",
          "name": "to",
          "type": "address"
        },
        {
          "internalType": "uint256",
          "name": "value",
          "type": "uint256"
        }
      ],
      "name": "transfer",
      "outputs": [
        {
          "internalType": "bool",
          "name": "",
          "type": "bool"
        }
      ],
      "stateMutability": "nonpayable",
      "type": "function"
    },
    {
      "inputs": [
        {
          "internalType": "address",
          "name": "from",
          "type": "address"
        },
        {
          "internalType": "address",
          "name": "to",
          "type": "address"
        },
        {
          "internalType": "uint256",
          "name": "value",
          "type": "uint256"
        }
      ],
      "name": "transferFrom",
      "outputs": [
        {
          "internalType": "bool",
          "name": "",
          "type": "bool"
        }
      ],
      "stateMutability": "nonpayable",
      "type": "function"
    },
    {
      "inputs": [
        {
          "internalType": "address",
          "name": "newOwner",
          "type": "address"
        }
      ],
      "name": "transferOwnership",
      "outputs": [],
      "stateMutability": "nonpayable",
      "type": "function"
    },
    {
      "inputs": [
        {
          "internalType": "address",
          "name": "newImplementation",
          "type": "address"
        },
        {
          "internalType": "bytes",
          "name": "data",
          "type": "bytes"
        }
      ],
      "name": "upgradeToAndCall",
      "outputs": [],
      "stateMutability": "payable",
      "type": "function"
    },
    {
      "stateMutability": "payable",
      "type": "receive"
    }
  ],
  "bytecode": "0x60a0806040523460295730608052613c7a908161002f82396080518181816119930152611a270152f35b600080fdfe60c080604052600436101561001d575b50361561001b57600080fd5b005b600090813560e01c90816301eb18b7146124a15750806301ffc9a71461244a57806306fdde0314612361578063095ea7b31461233a5780631757cd2f14611fd757806318160ddd14611fac5780631a4c184514611f8b5780631a7ea9fc14611f6e5780632182680314611ef257806323b872dd14611e0d578063248a9ca314611de6578063282c51f314611dbd5780632b24c0d914611d945780632f2ff15d14611d625780632ff2e9dc14610c94578063313ce56714611d4657806332b47ab314611d2957806336568abe14611ce457806340c10f1914611c7157806342966c6814611c0757806344df8e7014611bf35780634971ec0214611bd05780634f1ef286146119e857806352d1902d1461198057806355338d1e14611953578063601846df1461192a57806366ba54791461190457806369d8f065146118e657806370a08231146118a0578063715018a6146118355780637492100f1461181357806377bc2e1d146117ac5780638119e57c1461178e5780638129fc1c146112ce57806387a131bb146112ab5780638da5cb5b1461127557806391d148541461121c578063920d26391461119557806394179eea146110ed57806395d89b4114610ff257806399bcc5d714610f965780639c0869cc14610f78578063a01ebaa114610f54578063a217fddf14610f38578063a523199814610f1a578063a8027c1014610ef7578063a9059cbb14610ec5578063ad3cb1cc14610e7a578063bb3d33b714610e57578063bedaeace14610e3a578063c2ee3a0814610e17578063c6fe12ea14610c99578063cd38347f14610c94578063d1e2253d14610c46578063d539139314610c1d578063d547741f14610be2578063dd62ed3e14610b98578063dd6ec1ca14610400578063dec1027e146103d7578063e2ef97a3146103ae578063f1bafadd14610326578063f2fde38b146102f95763ffa1ad740361000f57346102f657806003193601126102f657602060405160018152f35b80fd5b50346102f65760203660031901126102f65761032361031661252c565b61031e612b27565b612ab1565b80f35b50346102f65760a03660031901126102f657610340612687565b610348612698565b916064356001600160401b0381116103aa57610368903690600401612610565b90608435906001600160401b0382116102f657604061039c8686866103903660048901612657565b93909260243590612921565b825191151582526020820152f35b5080fd5b50346102f657806003193601126102f6576006546040516001600160a01b039091168152602090f35b50346102f657806003193601126102f6576004546040516001600160a01b039091168152602090f35b50346102f65760e03660031901126102f65761041a612687565b610422612698565b906064356001600160401b038111610b9457610442903690600401612610565b6084356001600160401b038111610b9057610461903690600401612657565b82949194519060208401918220956104878661ffff166000526007602052604060002090565b602435600052602052604060002061ffff851660005260205260406000208760005260205260ff60406000205416610b815760025460405161052293602093909260081c6001600160a01b03166104df6060846125d4565b61ffff881683528483015260408083018990526005549051634ce0b68d60e11b81529586946001600160a01b039092169385938493916024358e6004870161285f565b03915afa908115610b75578791610b46575b5015610b375760808690528251610550908401602001826128df565b9261055a846128f7565b60018403610a6657906020826105739351010190612901565b80929150608052600094600154838114610a57576008546105948286612558565b11610a4857836105a3916131b2565b6001849055600554604051631c588c9d60e21b815261107d600482015260a435602482015260c4356044820152610320606482015290602090829060849082906001600160a01b03165afa889181610a10575b5061063f576004886106066126e3565b6308c379a014610626575b610619612777565b50633ee4e2f160e11b8152fd5b61062e612701565b1561061157633ee4e2f160e11b8152fd5b9690919293949596908160041b91808304601014901517156109fc575081600a61066992046127ba565b906106748230612f60565b600454600060a0526106919083906001600160a01b03163061333f565b600254604051631bd1b3a760e31b602082015260248082018890528152929060081c6001600160a01b03166106c76044856125d4565b60405160209490916106d986846125d4565b60a0518352604051926106eb846125a2565b61107d845286840194855260408401829052606084018690526080840192835260c43560a085015261032060c085015260e08401526101008301526005546001600160a01b031690813b156109f6576040805163d52471c160e01b81526004810188905284516024820152945160448601528301516001600160a01b03166064850152606083015160848501525161012060a4850152839190610793906101448401906124eb565b9260a081015160c484015260c081015160e484015260e0810151936023198482030161010485015284518082528882019189808360051b83010197019260a051915b8b8484106109c3575050505061010092909201516001600160a01b0316610124850152505060a0519282900390829084905af190816109b1575b506108635761081c6126e3565b6308c379a014610843575b61082f612777565b50631efae81160e01b60a05152600460a051fd5b61084b612701565b1561082757631efae81160e01b60a05152600460a051fd5b61ffff947f340d86e5986791cda0f36f3a39e9abac223a85eef05d99c3bca95f9caec8271c9261271061089b606094600954906127a7565b0480610974575b506040519160a05150825260a4359082015260c4356040820152a15b6108d68561ffff166000526007602052604060002090565b60243560005260205260406000208383166000526020526040600020906000526020526040600020600160ff1982541617905581604051941684526024356020850152166040830152600381101561095e578160a09160607fadbd1b0010e7f7693a21e7b1364f494126b8623ee4557e42b6fa3c8d2f9273779401526080516080820152a180f35b634e487b7160e01b600052602160045260246000fd5b61097e8133612f60565b60405190815233907f6447eff71204d361367a1fe0a897bb78b8da54101db8178d1a0d1db3e258813d908390a2386108a2565b60a0516109bd916125d4565b3861080f565b60019294969798506109e3819294969a601f198682030187528b516124eb565b99019301930190928896959492936107d5565b60a05180fd5b634e487b7160e01b81526011600452602490fd5b9091506020813d602011610a40575b81610a2c602093836125d4565b81010312610a3c575190386105f6565b8880fd5b3d9150610a1f565b636fd552d960e11b8752600487fd5b637d8fa22560e01b8752600487fd5b906000959293949550610a78856128f7565b84610ae757602082610a8d9351010190612901565b8091506080528015610ad857907f674efd03143e8213df7415a5a5d66fae98745c246ed45c6926c8a96e677f4ce1602083610acc61ffff969530612fd4565b604051908152a16108be565b6335f6168960e01b8652600486fd5b5050610af2836128f7565b60028303610b28579061ffff917f081260b5ba13d9cd4297f7d1c461a423dbf698eacb0ee27a56eec4d29cec75178680a16108be565b6307219a8f60e51b8552600485fd5b63fd0ae32760e01b8652600486fd5b610b68915060203d602011610b6e575b610b6081836125d4565b810190612847565b38610534565b503d610b56565b6040513d6000823e3d90fd5b63021d837560e41b8852600488fd5b8480fd5b8380fd5b50346102f65760403660031901126102f657610bb261252c565b610bc3610bbd612542565b916127e8565b9060018060a01b03166000526020526020604060002054604051908152f35b50346102f65760403660031901126102f657610c19600435610c02612542565b90610c14610c0f826127c7565b612e76565b612ec0565b5080f35b50346102f657806003193601126102f6576020604051600080516020613bc58339815191528152f35b50346102f65760203660031901126102f6577f345e869dd291c4451392085867a7451a5d8838aac6836e74d68595268c5936976020600435610c86612b27565b80600855604051908152a180f35b61257b565b50346102f65760403660031901126102f6576004356001600160401b0381116103aa57610cca903690600401612657565b906024356001600160401b038111610b9457610cea903690600401612657565b90610cf3612b27565b60ff60025416610e08578315610df9579190849285945b808610610d5e57866127108603610d4f57600160ff1960025416176002557f87882703560ca8ab0be2175f374fc04ecd07f3ede12068ab20dbf131f93c08dc8180a180f35b630b48249960e11b8152600490fd5b90919293610d6d868387612821565b356001600160a01b0381168103610df557610d89878686612821565b35806b0d92289838d21a996800000002906b0d92289838d21a9968000000820403610de15791610dc3610dd5926127106001950490612f60565b610dce888787612821565b35906127ba565b95019493929190610d0a565b634e487b7160e01b89526011600452602489fd5b8780fd5b63b1d0b18160e01b8552600485fd5b63acf9028d60e01b8552600485fd5b50346102f657806003193601126102f6576020604051670de0b6b3a76400008152f35b50346102f657806003193601126102f65760206040516105b48152f35b50346102f657806003193601126102f657602060ff600254166040519015158152f35b50346102f657806003193601126102f657610ec16040805190610e9d81836125d4565b60058252640352e302e360dc1b6020830152519182916020835260208301906124eb565b0390f35b50346102f65760403660031901126102f657610eec610ee261252c565b6024359033612d99565b602060405160018152f35b50346102f657806003193601126102f6576020604051660aa87bee537fff198152f35b50346102f657806003193601126102f6576020600854604051908152f35b50346102f657806003193601126102f657602090604051908152f35b50346102f657806003193601126102f6576020604051684e1003b28d928000008152f35b50346102f657806003193601126102f6576020600954604051908152f35b50346102f657806003193601126102f657610faf612b27565b6002805460ff191690556006805460ff60a01b1916905560018190557fc08a61aa28efe4d79f0c38b6bc334b28f8706e2a729baf2283f4a1502510e8d08180a180f35b50346102f657806003193601126102f6576040516000600080516020613b0583398151915254611021816126a9565b80845290600181169081156110c9575060011461105d575b610ec183611049818503826125d4565b6040519182916020835260208301906124eb565b600080516020613b0583398151915260009081527f46a2803e59a4de4e7a4c574b1243f25977ac4c77d5a1a4a609b5394cebb4a2aa939250905b8082106110af57509091508101602001611049611039565b919260018160209254838588010152019101909291611097565b60ff191660208086019190915291151560051b840190910191506110499050611039565b50346102f65760603660031901126102f65761110761252c565b61110f612542565b6044356001600160a01b03811692908390036111905761112d612b27565b600480546001600160a01b039283166001600160a01b03199182168117909255600580549490931693811684179092556006805490921684179091557ff16088c43eb2425f3f3203ca4274b1ce2cfce49a7497ed15a3af7b078641c7b38480a480f35b600080fd5b50346102f65760203660031901126102f6576111af61252c565b6111b7612b27565b60028054610100600160a81b031916600883901b610100600160a81b03161790556111e181612b5d565b506111eb81612be9565b506001600160a01b03167fccad446045fb1a917b54e951901bb734ca96aaa7456e49d98e2258958cb3ad3b8280a280f35b50346102f65760403660031901126102f6576040611238612542565b916004358152600080516020613c05833981519152602052209060018060a01b0316600052602052602060ff604060002054166040519015158152f35b50346102f657806003193601126102f657600080516020613b25833981519152546040516001600160a01b039091168152602090f35b50346102f657806003193601126102f65760405163044df8e760e41b8152602090f35b50346102f657806003193601126102f657600080516020613c25833981519152549060ff8260401c1615916001600160401b03811680159081611786575b600114908161177c575b159081611773575b506117645767ffffffffffffffff198116600117600080516020613c258339815191525582611737575b506113516133a4565b604080519261136082856125d4565b600d84526c23b2b72630bcb2b92a37b5b2b760991b602085015281519361138783866125d4565b600385526223a2a760e91b602086015261139f6133a4565b6113a76133a4565b8051906001600160401b0382116117235781906113d2600080516020613ac5833981519152546126a9565b601f81116116a8575b50602090601f831160011461162957869261161e575b50508160011b916000199060031b1c191617600080516020613ac5833981519152555b83516001600160401b03811161160a5761143c600080516020613b05833981519152546126a9565b601f811161159a575b50602094601f821160011461151c579484958293949592611511575b50508160011b916000199060031b1c191617600080516020613b05833981519152555b61148c6133a4565b6114946133a4565b61149d33612ab1565b6114a56133a4565b6114ae33612c6f565b506114b833612b5d565b50428355600a6008556114c9575080f35b600080516020613c25833981519152805460ff60401b1916905551600181527fc7f505b2f371ae2175ee4913f4499e1f2633a7b5936321eed1cdaeb6115181d290602090a180f35b015190503880611461565b601f19821695600080516020613b05833981519152865280862091865b88811061158257508360019596979810611569575b505050811b01600080516020613b0583398151915255611484565b015160001960f88460031b161c1916905538808061154e565b91926020600181928685015181550194019201611539565b600080516020613b0583398151915285527f46a2803e59a4de4e7a4c574b1243f25977ac4c77d5a1a4a609b5394cebb4a2aa601f830160051c81019160208410611600575b601f0160051c01905b8181106115f55750611445565b8581556001016115e8565b90915081906115df565b634e487b7160e01b84526041600452602484fd5b0151905038806113f1565b600080516020613ac583398151915287528187209250601f198416875b8181106116905750908460019594939210611677575b505050811b01600080516020613ac583398151915255611414565b015160001960f88460031b161c1916905538808061165c565b92936020600181928786015181550195019301611646565b600080516020613ac583398151915287529091507f2ae08a8e29253f69ac5d979a101956ab8f8d9d7ded63fa7a83b16fc47648eab0601f840160051c81019160208510611719575b90601f859493920160051c01905b81811061170b57506113db565b8781558493506001016116fe565b90915081906116f0565b634e487b7160e01b85526041600452602485fd5b68ffffffffffffffffff19166801000000000000000117600080516020613c258339815191525538611348565b63f92ee8a960e01b8252600482fd5b9050153861131e565b303b159150611316565b84915061130c565b50346102f657806003193601126102f6576020604051620151808152f35b50346102f65760203660031901126102f6576004356117c9612b27565b6103e88111611804576020817fe4bdef48d9506df478b26f07b53e8fe43f098a2efbb70465e9a2ba8a821925ba92600955604051908152a180f35b63af18884560e01b8252600482fd5b50346102f657806003193601126102f6576020604051668e1bc9bf0400008152f35b50346102f657806003193601126102f65761184e612b27565b600080516020613b2583398151915280546001600160a01b031981169091556000906001600160a01b03167f8be0079c531659141344cd1fd0a4f28419497f9722a3daafe3b4186f6b6457e08280a380f35b50346102f65760203660031901126102f6576020906040906001600160a01b036118c861252c565b168152600080516020613ae583398151915283522054604051908152f35b50346102f657806003193601126102f6576020600154604051908152f35b50346102f657806003193601126102f657602060ff60065460a01c166040519015158152f35b50346102f657806003193601126102f6576003546040516001600160a01b039091168152602090f35b50346102f657806003193601126102f65760025460405160089190911c6001600160a01b03168152602090f35b50346102f657806003193601126102f6577f00000000000000000000000000000000000000000000000000000000000000006001600160a01b031630036119d9576020604051600080516020613b858339815191528152f35b63703e46dd60e11b8152600490fd5b5060403660031901126102f6576119fd61252c565b906024356001600160401b0381116103aa57611a1d903690600401612610565b6001600160a01b037f000000000000000000000000000000000000000000000000000000000000000016308114908115611bad575b50611b9e57611a5f612b27565b6040516352d1902d60e01b8152926001600160a01b0381169190602085600481865afa80958596611b6a575b50611aa457634c9c8ce360e01b84526004839052602484fd5b909184600080516020613b858339815191528103611b585750813b15611b4657600080516020613b8583398151915280546001600160a01b031916821790557fbc7cd75a20ee27fd9adebab32041f755214dbc6bffa90cc0225b39da2e5c2d3b8480a28151839015611b2c5780836020610c1995519101845af4611b26612777565b91613a23565b50505034611b375780f35b63b398979f60e01b8152600490fd5b634c9c8ce360e01b8452600452602483fd5b632a87526960e21b8552600452602484fd5b9095506020813d602011611b96575b81611b86602093836125d4565b81010312610b9057519438611a8b565b3d9150611b79565b63703e46dd60e11b8252600482fd5b600080516020613b85833981519152546001600160a01b03161415905038611a52565b50346102f657806003193601126102f65760206040516703782dace9d900008152f35b50346102f657806003193601126102f65780f35b50346102f65760203660031901126102f657336000908152600080516020613b65833981519152602052604090205460ff1615611c4a5761032360043533612fd4565b63e2517d3f60e01b60005233600452600080516020613aa583398151915260245260446000fd5b50346102f65760403660031901126102f657611c8b61252c565b336000908152600080516020613ba5833981519152602052604090205460ff1615611cbd576103239060243590612f60565b63e2517d3f60e01b60005233600452600080516020613bc583398151915260245260446000fd5b50346102f65760403660031901126102f657611cfe612542565b336001600160a01b03821603611d1a57610c1990600435612ec0565b63334bd91960e11b8252600482fd5b50346102f657806003193601126102f657602060405161107d8152f35b50346102f657806003193601126102f657602060405160128152f35b50346102f65760403660031901126102f657610c19600435611d82612542565b90611d8f610c0f826127c7565b612d09565b50346102f657806003193601126102f6576005546040516001600160a01b039091168152602090f35b50346102f657806003193601126102f6576020604051600080516020613aa58339815191528152f35b50346102f65760203660031901126102f6576020611e056004356127c7565b604051908152f35b50346102f65760603660031901126102f657611e2761252c565b611e2f612542565b60443591611e3c816127e8565b33600090815260209190915260409020549360018501611e62575b50610eec9350612d99565b838510611ed757506001600160a01b03811615611ec1573315611eab57610eec93611e8c826127e8565b60018060a01b0333166000526020528360406000209103905538611e57565b634a1406b160e11b600052600060045260246000fd5b63e602df0560e01b600052600060045260246000fd5b6064908486637dc7a0d960e11b835233600452602452604452fd5b50346102f65760203660031901126102f657611f0c61252c565b611f14612b27565b600380546001600160a01b0319166001600160a01b03831690811790915590611f4690611f4081612b5d565b50612be9565b507fdf4e0b4461c624efdbb59f235b00095dfb1a237e057e146b4a39b44b1c90bcd38280a280f35b50346102f657806003193601126102f65760209054604051908152f35b50346102f657806003193601126102f65760206040516582d156d2e8548152f35b50346102f657806003193601126102f6576020600080516020613b4583398151915254604051908152f35b50346102f65760403660031901126102f657600435602435611ff7612b27565b60065460ff8160a01c1661232b5760ff60a01b1916600160a01b17600655600554604051631c588c9d60e21b815261107d60048201526024810184905260448101839052610320606482015290602090829060849082906001600160a01b03165afa8491816122f7575b50612071576004846106066126e3565b8060041b90808204601014901517156122e35760009350600a90046120968130612f60565b6004546120ae9082906001600160a01b03163061333f565b60018060a01b0360025460081c166040519163c3ff497760e01b6020840152426024840152602483526120e26044846125d4565b602092604051926120f385856125d4565b87845260405193612103856125a2565b61107d8552858501938452604085019382855260608601908a82526080870194855260a087019489865260c0880192610320845260e08901948552610100890195865260018060a01b036005541697883b156122df5760405163d52471c160e01b8152600481018c9052995160248b0152925160448a015291516001600160a01b03166064890152905160848801525161012060a48801528a95879590949093909290916121b6906101448801906124eb565b935160c48701525160e486015251916023198582030161010486015282518082528882019189808360051b83010195019288915b8b8484106122aa57505093516001600160a01b0316610124880152505050908390039183915084905af19081612296575b506122645760048461222b6126e3565b6308c379a01461224b575b61223e612777565b50631efae81160e01b8152fd5b612253612701565b1561223657631efae81160e01b8152fd5b916040917ff9585ee5c4ecc766ab816d945301ff04829efd44b80e98b79d7d24fe255b7321938351928352820152a180f35b856122a3919692966125d4565b933861221b565b919498509295600192959799506122cc8291601f198682030187528a516124eb565b9801930193018c979593899795926121ea565b8d80fd5b634e487b7160e01b84526011600452602484fd5b9091506020813d602011612323575b81612313602093836125d4565b81010312610b9057519038612061565b3d9150612306565b63067f34cf60e01b8452600484fd5b50346102f65760403660031901126102f657610eec61235761252c565b602435903361333f565b50346102f657806003193601126102f6576040519080600080516020613ac58339815191525490612391826126a9565b808552916001811690811561242357506001146123b9575b610ec184611049818603826125d4565b600080516020613ac583398151915281527f2ae08a8e29253f69ac5d979a101956ab8f8d9d7ded63fa7a83b16fc47648eab0939250905b80821061240957509091508101602001611049826123a9565b9192600181602092548385880101520191019092916123f0565b60ff191660208087019190915292151560051b8501909201925061104991508390506123a9565b50346102f65760203660031901126102f65760043563ffffffff60e01b81168091036103aa57602090637965db0b60e01b8114908115612490575b506040519015158152f35b6301ffc9a760e01b14905082612485565b9050346103aa5760803660031901126103aa5760ff604060209360043581526007855281812060243582528552818120604435825285528181206064358252855220541615158152f35b919082519283825260005b848110612517575050826000602080949584010152601f8019910116010190565b806020809284010151828286010152016124f6565b600435906001600160a01b038216820361119057565b602435906001600160a01b038216820361119057565b9190820391821161256557565b634e487b7160e01b600052601160045260246000fd5b346111905760003660031901126111905760206040516b0d92289838d21a99680000008152f35b61012081019081106001600160401b038211176125be57604052565b634e487b7160e01b600052604160045260246000fd5b90601f801991011681019081106001600160401b038211176125be57604052565b6001600160401b0381116125be57601f01601f191660200190565b81601f8201121561119057803590612627826125f5565b9261263560405194856125d4565b8284526020838301011161119057816000926020809301838601378301015290565b9181601f84011215611190578235916001600160401b038311611190576020808501948460051b01011161119057565b6004359061ffff8216820361119057565b6044359061ffff8216820361119057565b90600182811c921680156126d9575b60208310146126c357565b634e487b7160e01b600052602260045260246000fd5b91607f16916126b8565b60009060033d116126f057565b905060046000803e60005160e01c90565b600060443d10612766576040513d600319016004823e8051913d60248401116001600160401b0384111761277157828201928351916001600160401b038311612769573d840160031901858401602001116127695750612766929101602001906125d4565b90565b949350505050565b92915050565b3d156127a2573d90612788826125f5565b9161279660405193846125d4565b82523d6000602084013e565b606090565b8181029291811591840414171561256557565b9190820180921161256557565b600052600080516020613c0583398151915260205260016040600020015490565b6001600160a01b031660009081527f52c63247e1f47db19d5ce0460030c497f067ca4cebf71ba98eeadabe20bace016020526040902090565b91908110156128315760051b0190565b634e487b7160e01b600052603260045260246000fd5b90816020910312611190575180151581036111905790565b926128b19261ffff60409361107d87521660208601528285015260a0606085015261ffff81511660a085015260018060a01b0360208201511660c08501520151606060e08401526101008301906124eb565b8181036080909201919091528281526001600160fb1b0383116111905760209260051b809284830137010190565b90816020910312611190575160038110156111905790565b6003111561095e57565b919082604091031261119057815160038110156111905760209092015190565b90939295948651946020880195862061ffff8416600052600760205260406000208260005260205261ffff60406000209516948560005260205260406000209060005260205260ff60406000205416612aa157600254604051606081019590949160081c6001600160a01b0316906001600160401b038711868810176125be576020966040528552858501528860408501526129df60018060a01b03600554169360405197889687958695634ce0b68d60e11b87526004870161285f565b03915afa908115610b7557600091612a82575b5015612a7957600192612a0b60208251830101836128df565b600381101561095e578403612a725790602082612a2b9351010190612901565b9050600154818114612a6657600854612a448284612558565b11612a6657612a5961271092612a62926131b2565b600954906127a7565b0490565b50509050600190600090565b5050600090565b50600091508190565b612a9b915060203d602011610b6e57610b6081836125d4565b386129f2565b5050505050509050600090600090565b6001600160a01b03168015612b1157600080516020613b2583398151915280546001600160a01b0319811683179091556001600160a01b03167f8be0079c531659141344cd1fd0a4f28419497f9722a3daafe3b4186f6b6457e0600080a3565b631e4fbdf760e01b600052600060045260246000fd5b600080516020613b25833981519152546001600160a01b03163303612b4857565b63118cdaa760e01b6000523360045260246000fd5b6001600160a01b0381166000908152600080516020613ba5833981519152602052604090205460ff16612be3576001600160a01b03166000818152600080516020613ba583398151915260205260408120805460ff19166001179055339190600080516020613bc583398151915290600080516020613a858339815191529080a4600190565b50600090565b6001600160a01b0381166000908152600080516020613b65833981519152602052604090205460ff16612be3576001600160a01b03166000818152600080516020613b6583398151915260205260408120805460ff19166001179055339190600080516020613aa583398151915290600080516020613a858339815191529080a4600190565b6001600160a01b03811660009081527fb7db2dd08fcb62d0c9e08c51941cae53c267786a0b75803fb7960902fc8ef97d602052604090205460ff16612be3576001600160a01b031660008181527fb7db2dd08fcb62d0c9e08c51941cae53c267786a0b75803fb7960902fc8ef97d60205260408120805460ff19166001179055339190600080516020613a858339815191528180a4600190565b6000818152600080516020613c05833981519152602090815260408083206001600160a01b038616845290915290205460ff16612a72576000818152600080516020613c05833981519152602090815260408083206001600160a01b0395909516808452949091528120805460ff1916600117905533929190600080516020613a858339815191529080a4600190565b6001600160a01b0316908115612e60576001600160a01b0316918215612e4a576000828152600080516020613ae58339815191526020526040812054828110612e30579160408282600080516020613be5833981519152958760209652600080516020613ae583398151915286520382822055868152600080516020613ae5833981519152845220818154019055604051908152a3565b916064928463391434e360e21b8452600452602452604452fd5b63ec442f0560e01b600052600060045260246000fd5b634b637e8f60e11b600052600060045260246000fd5b6000818152600080516020613c058339815191526020908152604080832033845290915290205460ff1615612ea85750565b63e2517d3f60e01b6000523360045260245260446000fd5b6000818152600080516020613c05833981519152602090815260408083206001600160a01b038616845290915290205460ff1615612a72576000818152600080516020613c05833981519152602090815260408083206001600160a01b0395909516808452949091528120805460ff19169055339291907ff6391f5c32d9c69d2a47ea670b442974b53935d1edc7fd64eb21e047a839171b9080a4600190565b6001600160a01b0316908115612e4a57600080516020613be5833981519152602082612f9d600094600080516020613b45833981519152546127ba565b600080516020613b4583398151915255848452600080516020613ae5833981519152825260408420818154019055604051908152a3565b6001600160a01b03168015612e6057600091818352600080516020613ae583398151915260205260408320548181106130605781600080516020613be583398151915292602092858752600080516020613ae5833981519152845203604086205580600080516020613b458339815191525403600080516020613b4583398151915255604051908152a3565b6064939263391434e360e21b8452600452602452604452fd5b906803782dace9d8ffffff19820191821360011661256557565b906806f05b59d3b1ffffff19820191821360011661256557565b9068ad78ebc5ac61ffffff19820191821360011661256557565b906856bc75e2d630ffffff19820191821360011661256557565b90682b5e3af16b187fffff19820191821360011661256557565b906815af1d78b58c3fffff19820191821360011661256557565b90680ad78ebc5ac61fffff19820191821360011661256557565b9068056bc75e2d630fffff19820191821360011661256557565b906802b5e3af16b187ffff19820191821360011661256557565b9068015af1d78b58c3ffff19820191821360011661256557565b908168056bc75e2d631000000191821260011661256557565b9190916000838201938412911290801582169115161761256557565b91906000925b8181106131c3575050565b90929060001981146125655760010190670de0b6b3a76400008202828104670de0b6b3a76400001483151715612565576702ea11e32ad5000090684e1003b28d927fffff1981019081136001166125655761324090600081129061323590660aa87bee53800090836133305790613987565b901561332257613561565b9081670de0b6b3a764000001918212600116612565576000821280159261326c929161331357906139f1565b90600103613305575b806703782dace9d9000003906703782dace9d90000821161256557670de0b6b3a76400008202918204670de0b6b3a764000014906703782dace9d900001417156125655768138400eca364a00000900490816b0d92289838d21a996800000002916b0d92289838d21a996800000083040361256557670de0b6b3a76400006132fe9204906127ba565b92906131b8565b61330e906133d2565b613275565b61331c906133d2565b906139f1565b61332b906133d2565b613561565b613339906133d2565b90613987565b916001600160a01b038316918215611ec1576001600160a01b0316928315611eab577f8c5be1e5ebec7d5bd14f71427d1e84f3dd0314c0f7b2291e5b200ac8c7c3b9259161338e6020926127e8565b85600052825280604060002055604051908152a3565b60ff600080516020613c258339815191525460401c16156133c157565b631afcd79f60e31b60005260046000fd5b600160ff1b81146125655760000390565b9060648202918083056064149015171561256557565b906b02df0ab5a80a22c61ab5a7008202918083056b02df0ab5a80a22c61ab5a700149015171561256557565b90693f1fce3da636ea5cf850820291808305693f1fce3da636ea5cf850149015171561256557565b90690127fa27722cc06cc5e2820291808305690127fa27722cc06cc5e2149015171561256557565b9068280e60114edb805d0382029180830568280e60114edb805d03149015171561256557565b90680ebc5fb41746121110820291808305680ebc5fb41746121110149015171561256557565b906808f00f760a4b2db55d8202918083056808f00f760a4b2db55d149015171561256557565b906806f5f17757889379378202918083056806f5f1775788937937149015171561256557565b818102929160008212600160ff1b82141661256557818405149015171561256557565b811561354b57600160ff1b8114600019831416612565570590565b634e487b7160e01b600052601260045260246000fd5b680238fd42c5cf03ffff1981121580613974575b61357e906139c1565b6000811261394f576806f05b59d3b200000081126139155761359f90613093565b6135c1770195e54c5dd42177f53a27172fa9ec630262827000000000916133e3565b68056bc75e2d631000009068ad78ebc5ac620000008112156138f5575b6856bc75e2d6310000008112156138da575b682b5e3af16b188000008112156138bf575b6815af1d78b58c4000008112156138a4575b680ad78ebc5ac6200000811215613889575b68056bc75e2d6310000081121561386e575b6802b5e3af16b1880000811215613853575b68015af1d78b58c40000811215613829575b80808080808080808061366e8161317d565b613678828061350d565b68056bc75e2d63100000900560029005908161369391613196565b9161369d9161350d565b68056bc75e2d6310000090056003900590816136b891613196565b916136c29161350d565b68056bc75e2d6310000090056004900590816136dd91613196565b916136e79161350d565b68056bc75e2d63100000900560059005908161370291613196565b9161370c9161350d565b68056bc75e2d63100000900560069005908161372791613196565b916137319161350d565b68056bc75e2d63100000900560079005908161374c91613196565b916137569161350d565b68056bc75e2d63100000900560089005908161377191613196565b9161377b9161350d565b68056bc75e2d63100000900560099005908161379691613196565b916137a09161350d565b68056bc75e2d631000009005600a900590816137bb91613196565b916137c59161350d565b68056bc75e2d631000009005600b900590816137e091613196565b916137ea9161350d565b68056bc75e2d631000009005600c900561380391613196565b61380c9161350d565b68056bc75e2d631000009005906138229161350d565b6064900590565b61383e61383861384d92613163565b926134e7565b68056bc75e2d63100000900590565b9061365c565b61383e61386261386892613149565b926134c1565b9061364a565b61383e61387d6138839261312f565b9261349b565b90613638565b61383e61389861389e92613115565b92613475565b90613626565b61383e6138b36138b9926130fb565b9261344d565b90613614565b61383e6138ce6138d4926130e1565b92613425565b90613602565b61383e6138e96138ef926130c7565b926133f9565b906135f0565b6138ff91506130ad565b6e01855144814a7ff805980ff0084000906135de565b6803782dace9d900000081126139445761392e90613079565b6135c16b1425982cf597cd205cef7380916133e3565b6135c16001916133e3565b61396b61332b6ec097ce7bc90715b34b9f1000000000926133d2565b61276691613530565b5068070c1cc73b00c80000811315613575565b90613991916127a7565b8061399c5750600090565b600019810190811161256557670de0b6b3a76400009004600181018091116125655790565b156139c857565b62461bcd60e51b6000908152602060045260076024526642414c2330303960c81b604452606490fd5b806139fd575050600090565b670de0b6b3a76400008102908104670de0b6b3a76400000361256557811561354b570490565b90613a495750805115613a3857805190602001fd5b63d6bda27560e01b60005260046000fd5b81511580613a7b575b613a5a575090565b639996b31560e01b60009081526001600160a01b0391909116600452602490fd5b50803b15613a5256fe2f8788117e7eff1d82e926ec794901d17c78024a50270940304540a733656f0d3c11d16cbaffd01df69ce1c404f6340ee057498f5f00246190ea54220576a84852c63247e1f47db19d5ce0460030c497f067ca4cebf71ba98eeadabe20bace0352c63247e1f47db19d5ce0460030c497f067ca4cebf71ba98eeadabe20bace0052c63247e1f47db19d5ce0460030c497f067ca4cebf71ba98eeadabe20bace049016d09d72d40fdae2fd8ceac6b6234c7706214fd39c1cd1e609a0528c19930052c63247e1f47db19d5ce0460030c497f067ca4cebf71ba98eeadabe20bace02fcf1b2032b1187d9f2a29150c4a608b3b6f0bdf8dd007801f86a276af50cad92360894a13ba1a3210667c828492db98dca3e2076cc3735a920a3ca505d382bbc549fe2656c81d2947b3b913f0a53b9ea86c71e049f3a1b8aa23c09a8a05cb8d49f2df0fed2c77648de5860a4cc508cd0818c85b8b8a1ab4ceeef8d981c8956a6ddf252ad1be2c89b69c2b068fc378daa952ba7f163c4a11628f55a4df523b3ef02dd7bc7dec4dceedda775e58dd541e08a116c6c53815c0bd028192f7b626800f0c57e16840df040f15088dc2f81fe391c3923bec73e23a9662efc9c229c6a00a26469706673582212200e735a9462b95ab55261397f4738ac8502fe06d37e9694441777b46e06ac5b5364736f6c634300081c0033",
  "linkReferences": {},
  "deployedLinkReferences": {}
}