{
  "_format": "hh-sol-artifact-1",
  "contractName": "RandomnessUtils",
  "sourceName": "contracts/utils/RandomnessUtils.sol",
  "abi": [
    {
      "inputs": [
        {
          "internalType": "uint256",
          "name": "_seed1",
          "type": "uint256"
        },
        {
          "internalType": "uint256",
          "name": "_seed2",
          "type": "uint256"
        },
        {
          "internalType": "uint256",
          "name": "_seed3",
          "type": "uint256"
        },
        {
          "internalType": "uint256",
          "name": "_length",
          "type": "uint256"
        }
      ],
      "name": "randomlySelectIndex",
      "outputs": [
        {
          "internalType": "uint256",
          "name": "index",
          "type": "uint256"
        }
      ],
      "stateMutability": "pure",
      "type": "function"
    }
  ],
  "bytecode": "0x6080806040523460185760e1908161001e823930815050f35b600080fdfe60806004361015600e57600080fd5b60003560e01c630a6fba7614602257600080fd5b608036600319011260a657606435906020810160043581526024356040830152604435606083015260608252608082019180831067ffffffffffffffff84111760905782604052519020918015607a57602092068152f35b634e487b7160e01b600052601260045260246000fd5b634e487b7160e01b600052604160045260246000fd5b600080fdfea26469706673582212203b469da798dce214a134fcaace698d55270dc7ad52a909325b771ce30809252464736f6c634300081c0033",
  "linkReferences": {},
  "deployedLinkReferences": {}
}