{
  "_format": "hh-sol-artifact-1",
  "contractName": "RoundsStorage",
  "sourceName": "contracts/transactions/RoundsStorage.sol",
  "abi": [
    {
      "inputs": [],
      "stateMutability": "nonpayable",
      "type": "constructor"
    },
    {
      "inputs": [],
      "name": "IndexOutOfBounds",
      "type": "error"
    },
    {
      "inputs": [],
      "name": "InvalidInitialization",
      "type": "error"
    },
    {
      "inputs": [],
      "name": "NotInitializing",
      "type": "error"
    },
    {
      "inputs": [
        {
          "internalType": "address",
          "name": "owner",
          "type": "address"
        }
      ],
      "name": "OwnableInvalidOwner",
      "type": "error"
    },
    {
      "inputs": [
        {
          "internalType": "address",
          "name": "account",
          "type": "address"
        }
      ],
      "name": "OwnableUnauthorizedAccount",
      "type": "error"
    },
    {
      "inputs": [],
      "name": "Unauthorized",
      "type": "error"
    },
    {
      "anonymous": false,
      "inputs": [
        {
          "indexed": true,
          "internalType": "address",
          "name": "caller",
          "type": "address"
        },
        {
          "indexed": false,
          "internalType": "bool",
          "name": "authorized",
          "type": "bool"
        }
      ],
      "name": "AuthorizedCallerUpdated",
      "type": "event"
    },
    {
      "anonymous": false,
      "inputs": [
        {
          "indexed": false,
          "internalType": "uint64",
          "name": "version",
          "type": "uint64"
        }
      ],
      "name": "Initialized",
      "type": "event"
    },
    {
      "anonymous": false,
      "inputs": [
        {
          "indexed": true,
          "internalType": "address",
          "name": "previousOwner",
          "type": "address"
        },
        {
          "indexed": true,
          "internalType": "address",
          "name": "newOwner",
          "type": "address"
        }
      ],
      "name": "OwnershipTransferStarted",
      "type": "event"
    },
    {
      "anonymous": false,
      "inputs": [
        {
          "indexed": true,
          "internalType": "address",
          "name": "previousOwner",
          "type": "address"
        },
        {
          "indexed": true,
          "internalType": "address",
          "name": "newOwner",
          "type": "address"
        }
      ],
      "name": "OwnershipTransferred",
      "type": "event"
    },
    {
      "anonymous": false,
      "inputs": [
        {
          "indexed": true,
          "internalType": "bytes32",
          "name": "txId",
          "type": "bytes32"
        },
        {
          "indexed": true,
          "internalType": "uint256",
          "name": "round",
          "type": "uint256"
        }
      ],
      "name": "RoundCreated",
      "type": "event"
    },
    {
      "anonymous": false,
      "inputs": [
        {
          "indexed": true,
          "internalType": "bytes32",
          "name": "txId",
          "type": "bytes32"
        },
        {
          "indexed": true,
          "internalType": "uint256",
          "name": "round",
          "type": "uint256"
        }
      ],
      "name": "RoundDataUpdated",
      "type": "event"
    },
    {
      "anonymous": false,
      "inputs": [
        {
          "indexed": true,
          "internalType": "bytes32",
          "name": "txId",
          "type": "bytes32"
        },
        {
          "indexed": false,
          "internalType": "uint256",
          "name": "previousRound",
          "type": "uint256"
        },
        {
          "indexed": false,
          "internalType": "uint256",
          "name": "newRound",
          "type": "uint256"
        }
      ],
      "name": "RoundNumberUpdated",
      "type": "event"
    },
    {
      "inputs": [],
      "name": "acceptOwnership",
      "outputs": [],
      "stateMutability": "nonpayable",
      "type": "function"
    },
    {
      "inputs": [
        {
          "internalType": "address",
          "name": "",
          "type": "address"
        }
      ],
      "name": "authorizedCallers",
      "outputs": [
        {
          "internalType": "bool",
          "name": "",
          "type": "bool"
        }
      ],
      "stateMutability": "view",
      "type": "function"
    },
    {
      "inputs": [
        {
          "internalType": "bytes32",
          "name": "txId",
          "type": "bytes32"
        },
        {
          "internalType": "uint256",
          "name": "round",
          "type": "uint256"
        },
        {
          "components": [
            {
              "internalType": "uint256",
              "name": "round",
              "type": "uint256"
            },
            {
              "internalType": "uint256",
              "name": "leaderIndex",
              "type": "uint256"
            },
            {
              "internalType": "uint256",
              "name": "votesCommitted",
              "type": "uint256"
            },
            {
              "internalType": "uint256",
              "name": "votesRevealed",
              "type": "uint256"
            },
            {
              "internalType": "uint256",
              "name": "appealBond",
              "type": "uint256"
            },
            {
              "internalType": "uint256",
              "name": "rotationsLeft",
              "type": "uint256"
            },
            {
              "internalType": "enum ITransactions.ResultType",
              "name": "result",
              "type": "uint8"
            },
            {
              "internalType": "address[]",
              "name": "roundValidators",
              "type": "address[]"
            },
            {
              "internalType": "enum ITransactions.VoteType[]",
              "name": "validatorVotes",
              "type": "uint8[]"
            },
            {
              "internalType": "bytes32[]",
              "name": "validatorVotesHash",
              "type": "bytes32[]"
            },
            {
              "internalType": "bytes32[]",
              "name": "validatorResultHash",
              "type": "bytes32[]"
            }
          ],
          "internalType": "struct ITransactions.RoundData",
          "name": "roundData",
          "type": "tuple"
        }
      ],
      "name": "createRound",
      "outputs": [],
      "stateMutability": "nonpayable",
      "type": "function"
    },
    {
      "inputs": [
        {
          "internalType": "bytes32",
          "name": "txId",
          "type": "bytes32"
        },
        {
          "internalType": "uint256",
          "name": "round",
          "type": "uint256"
        }
      ],
      "name": "decrementRotationsLeft",
      "outputs": [
        {
          "internalType": "uint256",
          "name": "",
          "type": "uint256"
        }
      ],
      "stateMutability": "nonpayable",
      "type": "function"
    },
    {
      "inputs": [
        {
          "internalType": "bytes32",
          "name": "txId",
          "type": "bytes32"
        }
      ],
      "name": "decrementRotationsLeftForCurrentRound",
      "outputs": [
        {
          "internalType": "uint256",
          "name": "",
          "type": "uint256"
        }
      ],
      "stateMutability": "nonpayable",
      "type": "function"
    },
    {
      "inputs": [
        {
          "internalType": "bytes32",
          "name": "txId",
          "type": "bytes32"
        },
        {
          "internalType": "uint256",
          "name": "round",
          "type": "uint256"
        }
      ],
      "name": "getAppealBond",
      "outputs": [
        {
          "internalType": "uint256",
          "name": "",
          "type": "uint256"
        }
      ],
      "stateMutability": "view",
      "type": "function"
    },
    {
      "inputs": [
        {
          "internalType": "bytes32",
          "name": "txId",
          "type": "bytes32"
        }
      ],
      "name": "getLastRoundData",
      "outputs": [
        {
          "internalType": "uint256",
          "name": "round",
          "type": "uint256"
        },
        {
          "components": [
            {
              "internalType": "uint256",
              "name": "round",
              "type": "uint256"
            },
            {
              "internalType": "uint256",
              "name": "leaderIndex",
              "type": "uint256"
            },
            {
              "internalType": "uint256",
              "name": "votesCommitted",
              "type": "uint256"
            },
            {
              "internalType": "uint256",
              "name": "votesRevealed",
              "type": "uint256"
            },
            {
              "internalType": "uint256",
              "name": "appealBond",
              "type": "uint256"
            },
            {
              "internalType": "uint256",
              "name": "rotationsLeft",
              "type": "uint256"
            },
            {
              "internalType": "enum ITransactions.ResultType",
              "name": "result",
              "type": "uint8"
            },
            {
              "internalType": "address[]",
              "name": "roundValidators",
              "type": "address[]"
            },
            {
              "internalType": "enum ITransactions.VoteType[]",
              "name": "validatorVotes",
              "type": "uint8[]"
            },
            {
              "internalType": "bytes32[]",
              "name": "validatorVotesHash",
              "type": "bytes32[]"
            },
            {
              "internalType": "bytes32[]",
              "name": "validatorResultHash",
              "type": "bytes32[]"
            }
          ],
          "internalType": "struct ITransactions.RoundData",
          "name": "roundData",
          "type": "tuple"
        }
      ],
      "stateMutability": "view",
      "type": "function"
    },
    {
      "inputs": [
        {
          "internalType": "bytes32",
          "name": "txId",
          "type": "bytes32"
        },
        {
          "internalType": "uint256",
          "name": "round",
          "type": "uint256"
        }
      ],
      "name": "getLeaderIndex",
      "outputs": [
        {
          "internalType": "uint256",
          "name": "",
          "type": "uint256"
        }
      ],
      "stateMutability": "view",
      "type": "function"
    },
    {
      "inputs": [
        {
          "internalType": "bytes32",
          "name": "txId",
          "type": "bytes32"
        },
        {
          "internalType": "uint256",
          "name": "round",
          "type": "uint256"
        }
      ],
      "name": "getResult",
      "outputs": [
        {
          "internalType": "enum ITransactions.ResultType",
          "name": "",
          "type": "uint8"
        }
      ],
      "stateMutability": "view",
      "type": "function"
    },
    {
      "inputs": [
        {
          "internalType": "bytes32",
          "name": "txId",
          "type": "bytes32"
        },
        {
          "internalType": "uint256",
          "name": "round",
          "type": "uint256"
        }
      ],
      "name": "getRotationsLeft",
      "outputs": [
        {
          "internalType": "uint256",
          "name": "",
          "type": "uint256"
        }
      ],
      "stateMutability": "view",
      "type": "function"
    },
    {
      "inputs": [
        {
          "internalType": "bytes32",
          "name": "txId",
          "type": "bytes32"
        }
      ],
      "name": "getRotationsLeftForCurrentRound",
      "outputs": [
        {
          "internalType": "uint256",
          "name": "",
          "type": "uint256"
        }
      ],
      "stateMutability": "view",
      "type": "function"
    },
    {
      "inputs": [
        {
          "internalType": "bytes32",
          "name": "txId",
          "type": "bytes32"
        },
        {
          "internalType": "uint256",
          "name": "round",
          "type": "uint256"
        }
      ],
      "name": "getRoundData",
      "outputs": [
        {
          "components": [
            {
              "internalType": "uint256",
              "name": "round",
              "type": "uint256"
            },
            {
              "internalType": "uint256",
              "name": "leaderIndex",
              "type": "uint256"
            },
            {
              "internalType": "uint256",
              "name": "votesCommitted",
              "type": "uint256"
            },
            {
              "internalType": "uint256",
              "name": "votesRevealed",
              "type": "uint256"
            },
            {
              "internalType": "uint256",
              "name": "appealBond",
              "type": "uint256"
            },
            {
              "internalType": "uint256",
              "name": "rotationsLeft",
              "type": "uint256"
            },
            {
              "internalType": "enum ITransactions.ResultType",
              "name": "result",
              "type": "uint8"
            },
            {
              "internalType": "address[]",
              "name": "roundValidators",
              "type": "address[]"
            },
            {
              "internalType": "enum ITransactions.VoteType[]",
              "name": "validatorVotes",
              "type": "uint8[]"
            },
            {
              "internalType": "bytes32[]",
              "name": "validatorVotesHash",
              "type": "bytes32[]"
            },
            {
              "internalType": "bytes32[]",
              "name": "validatorResultHash",
              "type": "bytes32[]"
            }
          ],
          "internalType": "struct ITransactions.RoundData",
          "name": "",
          "type": "tuple"
        }
      ],
      "stateMutability": "view",
      "type": "function"
    },
    {
      "inputs": [
        {
          "internalType": "bytes32",
          "name": "txId",
          "type": "bytes32"
        }
      ],
      "name": "getRoundNumber",
      "outputs": [
        {
          "internalType": "uint256",
          "name": "",
          "type": "uint256"
        }
      ],
      "stateMutability": "view",
      "type": "function"
    },
    {
      "inputs": [
        {
          "internalType": "bytes32",
          "name": "txId",
          "type": "bytes32"
        },
        {
          "internalType": "uint256",
          "name": "round",
          "type": "uint256"
        },
        {
          "internalType": "uint256",
          "name": "index",
          "type": "uint256"
        }
      ],
      "name": "getRoundValidatorAtIndex",
      "outputs": [
        {
          "internalType": "address",
          "name": "",
          "type": "address"
        }
      ],
      "stateMutability": "view",
      "type": "function"
    },
    {
      "inputs": [
        {
          "internalType": "bytes32",
          "name": "txId",
          "type": "bytes32"
        },
        {
          "internalType": "uint256",
          "name": "round",
          "type": "uint256"
        }
      ],
      "name": "getRoundValidatorCount",
      "outputs": [
        {
          "internalType": "uint256",
          "name": "",
          "type": "uint256"
        }
      ],
      "stateMutability": "view",
      "type": "function"
    },
    {
      "inputs": [
        {
          "internalType": "bytes32",
          "name": "txId",
          "type": "bytes32"
        },
        {
          "internalType": "uint256",
          "name": "round",
          "type": "uint256"
        }
      ],
      "name": "getRoundValidators",
      "outputs": [
        {
          "internalType": "address[]",
          "name": "",
          "type": "address[]"
        }
      ],
      "stateMutability": "view",
      "type": "function"
    },
    {
      "inputs": [
        {
          "internalType": "bytes32",
          "name": "txId",
          "type": "bytes32"
        },
        {
          "internalType": "uint256",
          "name": "round",
          "type": "uint256"
        }
      ],
      "name": "getValidatorResultHash",
      "outputs": [
        {
          "internalType": "bytes32[]",
          "name": "",
          "type": "bytes32[]"
        }
      ],
      "stateMutability": "view",
      "type": "function"
    },
    {
      "inputs": [
        {
          "internalType": "bytes32",
          "name": "txId",
          "type": "bytes32"
        },
        {
          "internalType": "uint256",
          "name": "round",
          "type": "uint256"
        },
        {
          "internalType": "uint256",
          "name": "index",
          "type": "uint256"
        }
      ],
      "name": "getValidatorResultHashAtIndex",
      "outputs": [
        {
          "internalType": "bytes32",
          "name": "",
          "type": "bytes32"
        }
      ],
      "stateMutability": "view",
      "type": "function"
    },
    {
      "inputs": [
        {
          "internalType": "bytes32",
          "name": "txId",
          "type": "bytes32"
        },
        {
          "internalType": "uint256",
          "name": "round",
          "type": "uint256"
        },
        {
          "internalType": "uint256",
          "name": "index",
          "type": "uint256"
        }
      ],
      "name": "getValidatorVoteAtIndex",
      "outputs": [
        {
          "internalType": "enum ITransactions.VoteType",
          "name": "",
          "type": "uint8"
        }
      ],
      "stateMutability": "view",
      "type": "function"
    },
    {
      "inputs": [
        {
          "internalType": "bytes32",
          "name": "txId",
          "type": "bytes32"
        },
        {
          "internalType": "uint256",
          "name": "round",
          "type": "uint256"
        },
        {
          "internalType": "uint256",
          "name": "index",
          "type": "uint256"
        }
      ],
      "name": "getValidatorVoteHashAtIndex",
      "outputs": [
        {
          "internalType": "bytes32",
          "name": "",
          "type": "bytes32"
        }
      ],
      "stateMutability": "view",
      "type": "function"
    },
    {
      "inputs": [
        {
          "internalType": "bytes32",
          "name": "txId",
          "type": "bytes32"
        },
        {
          "internalType": "uint256",
          "name": "round",
          "type": "uint256"
        }
      ],
      "name": "getValidatorVotes",
      "outputs": [
        {
          "internalType": "enum ITransactions.VoteType[]",
          "name": "",
          "type": "uint8[]"
        }
      ],
      "stateMutability": "view",
      "type": "function"
    },
    {
      "inputs": [
        {
          "internalType": "bytes32",
          "name": "txId",
          "type": "bytes32"
        },
        {
          "internalType": "uint256",
          "name": "round",
          "type": "uint256"
        }
      ],
      "name": "getValidatorVotesHash",
      "outputs": [
        {
          "internalType": "bytes32[]",
          "name": "",
          "type": "bytes32[]"
        }
      ],
      "stateMutability": "view",
      "type": "function"
    },
    {
      "inputs": [
        {
          "internalType": "bytes32",
          "name": "txId",
          "type": "bytes32"
        },
        {
          "internalType": "uint256",
          "name": "round",
          "type": "uint256"
        }
      ],
      "name": "getVotesCommitted",
      "outputs": [
        {
          "internalType": "uint256",
          "name": "",
          "type": "uint256"
        }
      ],
      "stateMutability": "view",
      "type": "function"
    },
    {
      "inputs": [
        {
          "internalType": "bytes32",
          "name": "txId",
          "type": "bytes32"
        },
        {
          "internalType": "uint256",
          "name": "round",
          "type": "uint256"
        }
      ],
      "name": "getVotesRevealed",
      "outputs": [
        {
          "internalType": "uint256",
          "name": "",
          "type": "uint256"
        }
      ],
      "stateMutability": "view",
      "type": "function"
    },
    {
      "inputs": [
        {
          "internalType": "bytes32",
          "name": "txId",
          "type": "bytes32"
        }
      ],
      "name": "incrementRoundNumber",
      "outputs": [
        {
          "internalType": "uint256",
          "name": "",
          "type": "uint256"
        }
      ],
      "stateMutability": "nonpayable",
      "type": "function"
    },
    {
      "inputs": [
        {
          "internalType": "bytes32",
          "name": "txId",
          "type": "bytes32"
        },
        {
          "internalType": "uint256",
          "name": "round",
          "type": "uint256"
        }
      ],
      "name": "incrementVotesCommitted",
      "outputs": [
        {
          "internalType": "uint256",
          "name": "",
          "type": "uint256"
        }
      ],
      "stateMutability": "nonpayable",
      "type": "function"
    },
    {
      "inputs": [
        {
          "internalType": "bytes32",
          "name": "txId",
          "type": "bytes32"
        },
        {
          "internalType": "uint256",
          "name": "round",
          "type": "uint256"
        }
      ],
      "name": "incrementVotesRevealed",
      "outputs": [
        {
          "internalType": "uint256",
          "name": "",
          "type": "uint256"
        }
      ],
      "stateMutability": "nonpayable",
      "type": "function"
    },
    {
      "inputs": [],
      "name": "initialize",
      "outputs": [],
      "stateMutability": "nonpayable",
      "type": "function"
    },
    {
      "inputs": [],
      "name": "owner",
      "outputs": [
        {
          "internalType": "address",
          "name": "",
          "type": "address"
        }
      ],
      "stateMutability": "view",
      "type": "function"
    },
    {
      "inputs": [],
      "name": "pendingOwner",
      "outputs": [
        {
          "internalType": "address",
          "name": "",
          "type": "address"
        }
      ],
      "stateMutability": "view",
      "type": "function"
    },
    {
      "inputs": [],
      "name": "renounceOwnership",
      "outputs": [],
      "stateMutability": "nonpayable",
      "type": "function"
    },
    {
      "inputs": [
        {
          "internalType": "bytes32",
          "name": "txId",
          "type": "bytes32"
        },
        {
          "internalType": "uint256",
          "name": "round",
          "type": "uint256"
        }
      ],
      "name": "resetVotesCounters",
      "outputs": [],
      "stateMutability": "nonpayable",
      "type": "function"
    },
    {
      "inputs": [
        {
          "internalType": "bytes32",
          "name": "txId",
          "type": "bytes32"
        },
        {
          "internalType": "uint256",
          "name": "round",
          "type": "uint256"
        },
        {
          "internalType": "uint256",
          "name": "validatorCount",
          "type": "uint256"
        }
      ],
      "name": "resetVotingArrays",
      "outputs": [],
      "stateMutability": "nonpayable",
      "type": "function"
    },
    {
      "inputs": [
        {
          "internalType": "bytes32",
          "name": "txId",
          "type": "bytes32"
        },
        {
          "internalType": "uint256",
          "name": "round",
          "type": "uint256"
        },
        {
          "internalType": "uint256",
          "name": "appealBond",
          "type": "uint256"
        }
      ],
      "name": "setAppealBond",
      "outputs": [],
      "stateMutability": "nonpayable",
      "type": "function"
    },
    {
      "inputs": [
        {
          "internalType": "address",
          "name": "caller",
          "type": "address"
        },
        {
          "internalType": "bool",
          "name": "authorized",
          "type": "bool"
        }
      ],
      "name": "setAuthorizedCaller",
      "outputs": [],
      "stateMutability": "nonpayable",
      "type": "function"
    },
    {
      "inputs": [
        {
          "internalType": "address[]",
          "name": "callers",
          "type": "address[]"
        },
        {
          "internalType": "bool",
          "name": "authorized",
          "type": "bool"
        }
      ],
      "name": "setAuthorizedCallers",
      "outputs": [],
      "stateMutability": "nonpayable",
      "type": "function"
    },
    {
      "inputs": [
        {
          "internalType": "bytes32",
          "name": "txId",
          "type": "bytes32"
        },
        {
          "internalType": "uint256",
          "name": "round",
          "type": "uint256"
        },
        {
          "internalType": "uint256",
          "name": "leaderIndex",
          "type": "uint256"
        }
      ],
      "name": "setLeaderIndex",
      "outputs": [],
      "stateMutability": "nonpayable",
      "type": "function"
    },
    {
      "inputs": [
        {
          "internalType": "bytes32",
          "name": "txId",
          "type": "bytes32"
        },
        {
          "internalType": "uint256",
          "name": "round",
          "type": "uint256"
        },
        {
          "internalType": "enum ITransactions.ResultType",
          "name": "result",
          "type": "uint8"
        }
      ],
      "name": "setResult",
      "outputs": [],
      "stateMutability": "nonpayable",
      "type": "function"
    },
    {
      "inputs": [
        {
          "internalType": "bytes32",
          "name": "txId",
          "type": "bytes32"
        },
        {
          "internalType": "uint256",
          "name": "round",
          "type": "uint256"
        },
        {
          "internalType": "uint256",
          "name": "rotationsLeft",
          "type": "uint256"
        }
      ],
      "name": "setRotationsLeft",
      "outputs": [],
      "stateMutability": "nonpayable",
      "type": "function"
    },
    {
      "inputs": [
        {
          "internalType": "bytes32",
          "name": "txId",
          "type": "bytes32"
        },
        {
          "internalType": "uint256",
          "name": "round",
          "type": "uint256"
        },
        {
          "components": [
            {
              "internalType": "uint256",
              "name": "round",
              "type": "uint256"
            },
            {
              "internalType": "uint256",
              "name": "leaderIndex",
              "type": "uint256"
            },
            {
              "internalType": "uint256",
              "name": "votesCommitted",
              "type": "uint256"
            },
            {
              "internalType": "uint256",
              "name": "votesRevealed",
              "type": "uint256"
            },
            {
              "internalType": "uint256",
              "name": "appealBond",
              "type": "uint256"
            },
            {
              "internalType": "uint256",
              "name": "rotationsLeft",
              "type": "uint256"
            },
            {
              "internalType": "enum ITransactions.ResultType",
              "name": "result",
              "type": "uint8"
            },
            {
              "internalType": "address[]",
              "name": "roundValidators",
              "type": "address[]"
            },
            {
              "internalType": "enum ITransactions.VoteType[]",
              "name": "validatorVotes",
              "type": "uint8[]"
            },
            {
              "internalType": "bytes32[]",
              "name": "validatorVotesHash",
              "type": "bytes32[]"
            },
            {
              "internalType": "bytes32[]",
              "name": "validatorResultHash",
              "type": "bytes32[]"
            }
          ],
          "internalType": "struct ITransactions.RoundData",
          "name": "roundData",
          "type": "tuple"
        }
      ],
      "name": "setRoundData",
      "outputs": [],
      "stateMutability": "nonpayable",
      "type": "function"
    },
    {
      "inputs": [
        {
          "internalType": "bytes32",
          "name": "txId",
          "type": "bytes32"
        },
        {
          "internalType": "uint256",
          "name": "round",
          "type": "uint256"
        }
      ],
      "name": "setRoundNumber",
      "outputs": [],
      "stateMutability": "nonpayable",
      "type": "function"
    },
    {
      "inputs": [
        {
          "internalType": "bytes32",
          "name": "txId",
          "type": "bytes32"
        },
        {
          "internalType": "uint256",
          "name": "round",
          "type": "uint256"
        },
        {
          "internalType": "uint256",
          "name": "index",
          "type": "uint256"
        },
        {
          "internalType": "address",
          "name": "validator",
          "type": "address"
        }
      ],
      "name": "setRoundValidatorAtIndex",
      "outputs": [],
      "stateMutability": "nonpayable",
      "type": "function"
    },
    {
      "inputs": [
        {
          "internalType": "bytes32",
          "name": "txId",
          "type": "bytes32"
        },
        {
          "internalType": "uint256",
          "name": "round",
          "type": "uint256"
        },
        {
          "internalType": "address[]",
          "name": "validators",
          "type": "address[]"
        }
      ],
      "name": "setRoundValidators",
      "outputs": [],
      "stateMutability": "nonpayable",
      "type": "function"
    },
    {
      "inputs": [
        {
          "internalType": "bytes32",
          "name": "txId",
          "type": "bytes32"
        },
        {
          "internalType": "uint256",
          "name": "round",
          "type": "uint256"
        },
        {
          "internalType": "uint256",
          "name": "index",
          "type": "uint256"
        },
        {
          "internalType": "bytes32",
          "name": "resultHash",
          "type": "bytes32"
        }
      ],
      "name": "setValidatorResultHashAtIndex",
      "outputs": [],
      "stateMutability": "nonpayable",
      "type": "function"
    },
    {
      "inputs": [
        {
          "internalType": "bytes32",
          "name": "txId",
          "type": "bytes32"
        },
        {
          "internalType": "uint256",
          "name": "round",
          "type": "uint256"
        },
        {
          "internalType": "uint256",
          "name": "index",
          "type": "uint256"
        },
        {
          "internalType": "enum ITransactions.VoteType",
          "name": "vote",
          "type": "uint8"
        }
      ],
      "name": "setValidatorVoteAtIndex",
      "outputs": [],
      "stateMutability": "nonpayable",
      "type": "function"
    },
    {
      "inputs": [
        {
          "internalType": "bytes32",
          "name": "txId",
          "type": "bytes32"
        },
        {
          "internalType": "uint256",
          "name": "round",
          "type": "uint256"
        },
        {
          "internalType": "uint256",
          "name": "index",
          "type": "uint256"
        },
        {
          "internalType": "bytes32",
          "name": "voteHash",
          "type": "bytes32"
        }
      ],
      "name": "setValidatorVoteHashAtIndex",
      "outputs": [],
      "stateMutability": "nonpayable",
      "type": "function"
    },
    {
      "inputs": [
        {
          "internalType": "address",
          "name": "newOwner",
          "type": "address"
        }
      ],
      "name": "transferOwnership",
      "outputs": [],
      "stateMutability": "nonpayable",
      "type": "function"
    }
  ],
  "bytecode": "0x6080806040523460d2577ff0c57e16840df040f15088dc2f81fe391c3923bec73e23a9662efc9c229c6a005460ff8160401c1660c1576002600160401b03196001600160401b03821601605c575b604051612dc290816100d88239f35b6001600160401b0319166001600160401b039081177ff0c57e16840df040f15088dc2f81fe391c3923bec73e23a9662efc9c229c6a005581527fc7f505b2f371ae2175ee4913f4499e1f2633a7b5936321eed1cdaeb6115181d290602090a13880604d565b63f92ee8a960e01b60005260046000fd5b600080fdfe608080604052600436101561001357600080fd5b60003560e01c90816307a4c61114611e3f57508063090263a714611d4557806316b93ff614611d0557806319fd332f14611cb85780632165559a14611c7057806325f3b23c14611c3a5780632f60ec4b14611c045780632fdc787a14611bce578063410ca56014611b9857806341beb00c14611b5a578063454bbd2914611adc5780634a75c2be14611a815780634cca891c146116f6578063536fff6c146116b75780635905144e146115d05780635af54469146114e7578063657c8d851461149f578063715018a61461141e578063741e418f146113b2578063788333bd1461133157806379ba5097146112e15780637f752540146112ab5780638129fc1c1461114157806384c248311461103d5780638d47f56d14610fef5780638da5cb5b14610fb957806399a9fd0e14610f5f5780639e360bb514610c925780639f06967314610c08578063a83485a914610bbe578063ad8226f414610b29578063ae9a6ca414610adf578063ba15d63514610ab3578063bd2aacd714610a65578063bd9ecad914610a0c578063bda6b95714610638578063bee63343146105e9578063c557e0a7146105a1578063c763cafc14610553578063d58a968414610505578063d69338f71461047e578063d6cf5afa1461041e578063e1c976bd146103b1578063e30c39781461037b578063eba9f60314610345578063f2fde38b146102be5763ff3dff0c1461022457600080fd5b346102b95760203660031901126102b95760043533600052600260205260ff60406000205416156102a9576000818152602081815260409182902080549193909290917f5007af4f5fdd7a49c21fc52a39f120d5e46580e6a4ebe78c51227fd94305176e919061029381612c60565b80955581519081528486820152a2604051908152f35b6282b42960e81b60005260046000fd5b600080fd5b346102b95760203660031901126102b9576102d7611ebc565b6102df612c6f565b600080516020612d6d83398151915280546001600160a01b0319166001600160a01b03928316908117909155600080516020612d2d833981519152549091167f38d16b8cac22d99fc7c124b9cd0de2d3fa1faef420bfe791d8c362d765e22700600080a3005b346102b95761035336611e70565b9060005260016020526040600020906000526020526020600760406000200154604051908152f35b346102b95760003660031901126102b957600080516020612d6d833981519152546040516001600160a01b039091168152602090f35b346102b95760203660031901126102b95760043533600052600260205260ff60406000205416156102a9578060005260016020526040600020906000526000602052604060002054600052602052602060056040600020016104138154612beb565b809155604051908152f35b346102b95760603660031901126102b95760443560068110156102b95733600052600260205260ff60406000205416156102a95761047c90600435600052600160205260406000206024356000526020526006604060002001612351565b005b346102b95761048c36611ed2565b9291909133600052600260205260ff60406000205416156102a9576000526001602052604060002090600052602052600960406000200180548210156104f4576104f0916104d991612339565b819391549060031b91821b91600019901b19161790565b9055005b634e23d03560e01b60005260046000fd5b346102b95761051336611e70565b90600052600160205260406000209060005260205261054f61053b600a604060002001612ba0565b6040519182916020835260208301906121e6565b0390f35b346102b95761056136611e70565b9033600052600260205260ff60406000205416156102a9576000526001602052604060002090600052602052602060036040600020016104138154612c60565b346102b9576105af36611e95565b9133600052600260205260ff60406000205416156102a9576000526001602052604060002090600052602052600160406000200155600080f35b346102b9576105f736611e95565b916000526001602052604060002090600052602052600a60406000200180548210156104f45760209161062991612339565b90549060031b1c604051908152f35b346102b9576106463661200f565b91909133600052600260205260ff60406000205416156102a9578160005260016020526040600020836000526020526040600020815181556020820151600182015560408201516002820155606082015160038201556080820151600482015560a0820151600582015560c08201516006811015610921576106cb9060068301612351565b6007810160e0830151908151916001600160401b03831161087c57600160401b831161087c5760209082548484558085106109ef575b500190600052602060002060005b8381106109d25750505050600881016101008301518051906001600160401b03821161087c57600160401b821161087c576020908354838555808410610984575b50019160005260206000208160051c9160005b8381106109375750601f1981169003806108cf575b5050505060098101610120830151908151916001600160401b03831161087c57600160401b831161087c5781548383558084106108a6575b5060200190600052602060002060005b8381106108925750505050600a6101409101910151908151916001600160401b03831161087c57600160401b831161087c578154838355808410610853575b5060200190600052602060002060005b83811061083f5785857fe1a5ade8f65e18e60b5ba89dff765f2072be22bc444fbe2b9c6764141c41c56b600080a3005b60019060208451940193818401550161080f565b8260005283602060002091820191015b81811061087057506107ff565b60008155600101610863565b634e487b7160e01b600052604160045260246000fd5b6001906020845194019381840155016107c0565b8260005283602060002091820191015b8181106108c357506107b0565b600081556001016108b6565b9260009360005b8181106108eb57505050015584808080610778565b9091948551600581101561092157610917602091846001949060ff809160031b9316831b921b19161790565b96019291016108d6565b634e487b7160e01b600052602160045260246000fd5b6000805b60208110610950575083820155600101610763565b9590815160058110156109215761097b602091896001949060ff809160031b9316831b921b19161790565b9201960161093b565b6109b0908560005283600020601f80870160051c820192818816806109b6575b500160051c0190612369565b88610750565b600019850190815490600019908a0360031b1c1690558d6109a4565b82516001600160a01b03168183015560209092019160010161070f565b610a06908460005285846000209182019101612369565b88610701565b346102b957610a1a36611e95565b916000526001602052604060002090600052602052600760406000200180548210156104f457602091610a4c91612339565b905460405160039290921b1c6001600160a01b03168152f35b346102b957610a7336611e70565b9033600052600260205260ff60406000205416156102a9576000526001602052604060002090600052602052602060026040600020016104138154612c60565b346102b95760203660031901126102b95760043560005260006020526020604060002054604051908152f35b346102b95760203660031901126102b95760043580600052600160205260406000209060005260006020526040600020546000526020526020600560406000200154604051908152f35b346102b95760803660031901126102b9576064356001600160a01b03811690604435908290036102b95733600052600260205260ff60406000205416156102a9576004356000526001602052604060002060243560005260205260076040600020019081548110156104f457610b9e91612339565b81546001600160a01b0360039290921b91821b191692901b919091179055005b346102b957610bcc36611e70565b90600052600160205260406000209060005260205261054f610bf4600860406000200161242e565b6040519182916020835260208301906121a9565b346102b95760803660031901126102b95760643560443560058210156102b95733600052600260205260ff60406000205416156102a95760043560005260016020526040600020602435600052602052600860406000200180548210156104f4576104f091610c7691612c0e565b60009391935083549060ff809160031b9316831b921b19161790565b346102b957610ca036611e95565b9133600052600260205260ff60406000205416156102a9576000526001602052604060002090600052602052604060002090610cdb81611f2d565b610ce86040519182611f0c565b818152610cf482611f2d565b6020820190601f1901368237600884019151906001600160401b03821161087c57600160401b821161087c578254828455808310610f10575b509160005260206000208160051c9160005b838110610ec35750601f198116900380610e71575b50505050610d6181612c2e565b600983018151916001600160401b03831161087c57600160401b831161087c578154838355808410610e48575b5060200190600052602060002060005b838110610e345785600a610db187612c2e565b9101908051906001600160401b03821161087c57600160401b821161087c578254828455808310610e0b575b506020019160005260206000209160005b828110610df757005b600190602083519301928186015501610dee565b8360005282602060002091820191015b818110610e285750610ddd565b60008155600101610e1b565b600190602084519401938184015501610d9e565b8260005283602060002091820191015b818110610e655750610d8e565b60008155600101610e58565b9260009360005b818110610e8d57505050015582808080610d54565b9091948551600581101561092157610eb9602091846001949060ff809160031b9316831b921b19161790565b9601929101610e78565b6000805b60208110610edc575083820155600101610d3f565b95908151600581101561092157610f07602091896001949060ff809160031b9316831b921b19161790565b92019601610ec7565b610f3c90846000526020600020601f80860160051c82019281871680610f4257500160051c0190612369565b85610d2d565b6000198501908154906000199060200360031b1c1690558a6109a4565b346102b957610f6d36611e95565b91600052600160205260406000209060005260205260086040600020019081548110156104f457610fa260ff91602093612c0e565b90549060031b1c16610fb7604051809261219c565bf35b346102b95760003660031901126102b957600080516020612d2d833981519152546040516001600160a01b039091168152602090f35b346102b957610ffd36611e70565b9033600052600260205260ff60406000205416156102a9576000526001602052604060002090600052602052602060056040600020016104138154612beb565b346102b95760203660031901126102b957600435611059612380565b508060005260006020526040600020549060005260016020526040600020816000526020526040600020906040519161109183611ef0565b8054835260018101546020840152600281015460408401526003810154606084015260048101546080840152600581015460a084015260ff60068201541660068110156109215761111f91600a9160c08601526110f0600782016123d8565b60e08601526111016008820161242e565b61010086015261111360098201612ba0565b61012086015201612ba0565b61014083015261054f604051928392835260406020840152604083019061221a565b346102b95760003660031901126102b957600080516020612d4d8339815191525460ff8160401c1615906001600160401b038116801590816112a3575b6001149081611299575b159081611290575b5061127f5767ffffffffffffffff198116600117600080516020612d4d8339815191525581611252575b506111c3612cfe565b6111cb612cfe565b6111d3612cfe565b331561123c576111e233612c90565b6111e857005b60ff60401b19600080516020612d4d8339815191525416600080516020612d4d833981519152557fc7f505b2f371ae2175ee4913f4499e1f2633a7b5936321eed1cdaeb6115181d2602060405160018152a1005b631e4fbdf760e01b600052600060045260246000fd5b68ffffffffffffffffff19166801000000000000000117600080516020612d4d83398151915255816111ba565b63f92ee8a960e01b60005260046000fd5b90501583611190565b303b159150611188565b83915061117e565b346102b9576112b936611e70565b90600052600160205260406000209060005260205261054f61053b6009604060002001612ba0565b346102b95760003660031901126102b957600080516020612d6d83398151915254336001600160a01b039091160361131c5761047c33612c90565b63118cdaa760e01b6000523360045260246000fd5b346102b95761133f36611e70565b90600052600160205260406000209060005260205261136460076040600020016123d8565b60405180916020820160208352815180915260206040840192019060005b818110611390575050500390f35b82516001600160a01b0316845285945060209384019390920191600101611382565b346102b9576113c036611e70565b33600052600260205260ff60406000205416156102a957600082815260208181526040918290208054908490558251908152908101929092527f5007af4f5fdd7a49c21fc52a39f120d5e46580e6a4ebe78c51227fd94305176e91a2005b346102b95760003660031901126102b957611437612c6f565b600080516020612d6d83398151915280546001600160a01b0319908116909155600080516020612d2d833981519152805491821690556000906001600160a01b03167f8be0079c531659141344cd1fd0a4f28419497f9722a3daafe3b4186f6b6457e08280a3005b346102b9576114ad36611e95565b9133600052600260205260ff60406000205416156102a9576000526001602052604060002090600052602052600460406000200155600080f35b346102b9576114f536611e70565b906114fe612380565b506000526001602052604060002090600052602052604060002060405161152481611ef0565b8154815260018201546020820152600282015460408201526003820154606082015260048201546080820152600582015460a082015260ff60068301541691600683101561092157600a6115b69161054f9460c0850152611587600782016123d8565b60e08501526115986008820161242e565b6101008501526115aa60098201612ba0565b61012085015201612ba0565b61014082015260405191829160208352602083019061221a565b346102b95760603660031901126102b9576044356001600160401b0381116102b957611600903690600401611f44565b33600052600260205260ff60406000205416156102a957600435600052600160205260406000206024356000526020526007604060002001908051906001600160401b03821161087c57600160401b821161087c57602090835483855580841061169a575b50019160005260206000209160005b82811061167d57005b81516001600160a01b031681850155602090910190600101611674565b6116b1908560005284846000209182019101612369565b84611665565b346102b95760203660031901126102b9576001600160a01b036116d8611ebc565b166000526002602052602060ff604060002054166040519015158152f35b346102b9576117043661200f565b91909133600052600260205260ff60406000205416156102a9578160005260016020526040600020836000526020526040600020815181556020820151600182015560408201516002820155606082015160038201556080820151600482015560a0820151600582015560c08201516006811015610921576117899060068301612351565b6007810160e0830151908151916001600160401b03831161087c57600160401b831161087c576020908254848455808510611a64575b500190600052602060002060005b838110611a475750505050600881016101008301518051906001600160401b03821161087c57600160401b821161087c576020908354838555808410611a16575b50019160005260206000208160051c9160005b8381106119c95750601f198116900380611977575b5050505060098101610120830151908151916001600160401b03831161087c57600160401b831161087c57815483835580841061194e575b5060200190600052602060002060005b83811061193a5750505050600a6101409101910151908151916001600160401b03831161087c57600160401b831161087c578154838355808410611911575b5060200190600052602060002060005b8381106118fd5785857f6148b2e67c80318ffd516e11c5bcb1fd0ea6530efa674cd40c2c83a1ed24b4e4600080a3005b6001906020845194019381840155016118cd565b8260005283602060002091820191015b81811061192e57506118bd565b60008155600101611921565b60019060208451940193818401550161187e565b8260005283602060002091820191015b81811061196b575061186e565b6000815560010161195e565b9260009360005b81811061199357505050015584808080611836565b90919485516005811015610921576119bf602091846001949060ff809160031b9316831b921b19161790565b960192910161197e565b6000805b602081106119e2575083820155600101611821565b95908151600581101561092157611a0d602091896001949060ff809160031b9316831b921b19161790565b920196016119cd565b611a41908560005283600020601f80870160051c820192818816806109b657500160051c0190612369565b8861180e565b82516001600160a01b0316818301556020909201916001016117cd565b611a7b908460005285846000209182019101612369565b886117bf565b346102b957611a8f36611ed2565b9291909133600052600260205260ff60406000205416156102a9576000526001602052604060002090600052602052600a60406000200180548210156104f4576104f0916104d991612339565b346102b95760403660031901126102b957611af5611ebc565b7fad857fa38c9319cb80848f1ef2f924383b90297eb5d71755738ff037d100faa16020611b20611e86565b92611b29612c6f565b6001600160a01b031660008181526002835260409020805460ff191660ff86151516179055926040519015158152a2005b346102b957611b6836611e70565b906000526001602052604060002090600052602052602060ff60066040600020015416610fb76040518092611eaf565b346102b957611ba636611e70565b9060005260016020526040600020906000526020526020600160406000200154604051908152f35b346102b957611bdc36611e70565b9060005260016020526040600020906000526020526020600360406000200154604051908152f35b346102b957611c1236611e70565b9060005260016020526040600020906000526020526020600460406000200154604051908152f35b346102b957611c4836611e70565b9060005260016020526040600020906000526020526020600260406000200154604051908152f35b346102b957611c7e36611e95565b9133600052600260205260ff60406000205416156102a9576000526001602052604060002090600052602052600560406000200155600080f35b346102b957611cc636611e70565b9033600052600260205260ff60406000205416156102a95760009081526001602090815260408083209383529290529081206002810182905560030155005b346102b957611d1336611e95565b916000526001602052604060002090600052602052600960406000200180548210156104f45760209161062991612339565b346102b95760403660031901126102b9576004356001600160401b0381116102b957366023820112156102b95780600401356001600160401b0381116102b9576024820191602436918360051b0101116102b957611da1611e86565b611da9612c6f565b8015159060005b838110611db957005b6001906001600160a01b03611dd7611dd283888a6122ff565b612325565b166000526002602052611dfa8360406000209060ff801983541691151516179055565b818060a01b03611e0e611dd283888a6122ff565b167fad857fa38c9319cb80848f1ef2f924383b90297eb5d71755738ff037d100faa16020604051878152a201611db0565b346102b957602090611e5036611e70565b906000526001835260406000209060005282526005604060002001548152f35b60409060031901126102b9576004359060243590565b6024359081151582036102b957565b60609060031901126102b957600435906024359060443590565b9060068210156109215752565b600435906001600160a01b03821682036102b957565b60809060031901126102b95760043590602435906044359060643590565b61016081019081106001600160401b0382111761087c57604052565b90601f801991011681019081106001600160401b0382111761087c57604052565b6001600160401b03811161087c5760051b60200190565b9080601f830112156102b957813590611f5c82611f2d565b92611f6a6040519485611f0c565b82845260208085019360051b8201019182116102b957602001915b818310611f925750505090565b82356001600160a01b03811681036102b957815260209283019201611f85565b9080601f830112156102b9578135611fc981611f2d565b92611fd76040519485611f0c565b81845260208085019260051b8201019283116102b957602001905b828210611fff5750505090565b8135815260209182019101611ff2565b60606003198201126102b95760043591602435916044356001600160401b0381116102b95761016081830360031901126102b9576040519161205083611ef0565b816004013583526024820135602084015260448201356040840152606482013560608401526084820135608084015260a482013560a084015260c482013560068110156102b95760c084015260e48201356001600160401b0381116102b9578160046120be92850101611f44565b60e08401526101048201356001600160401b0381116102b9578201816023820112156102b95760048101356120f281611f2d565b916121006040519384611f0c565b818352602060048185019360051b83010101908482116102b957602401915b818310612183575050506101008401526101248201356001600160401b0381116102b95781600461215292850101611fb2565b610120840152610144820135916001600160401b0383116102b95761217a9201600401611fb2565b61014082015290565b823560058110156102b95781526020928301920161211f565b9060058210156109215752565b906020808351928381520192019060005b8181106121c75750505090565b909192602080826121db600194885161219c565b0194019291016121ba565b906020808351928381520192019060005b8181106122045750505090565b82518452602093840193909201916001016121f7565b919091610160830192815181526020820151602082015260408201516040820152606082015160608201526080820151608082015260a082015160a082015261226b60c083015160c0830190611eaf565b60e08201519361016060e083015284518091526020610180830195019060005b8181106122e0575050506101406122cb6122b76122dd95966101008601518582036101008701526121a9565b6101208501518482036101208601526121e6565b920151906101408184039101526121e6565b90565b82516001600160a01b031687526020968701969092019160010161228b565b919081101561230f5760051b0190565b634e487b7160e01b600052603260045260246000fd5b356001600160a01b03811681036102b95790565b805482101561230f5760005260206000200190600090565b9060068110156109215760ff80198354169116179055565b818110612374575050565b60008155600101612369565b6040519061238d82611ef0565b60606101408360008152600060208201526000604082015260008382015260006080820152600060a0820152600060c08201528260e082015282610100820152826101208201520152565b906040519182815491828252602082019060005260206000209260005b81811061240c57505061240a92500383611f0c565b565b84546001600160a01b03168352600194850194879450602090930192016123f5565b90604051918281549182825260208201906000526020600020926000905b80601f8301106129175761240a9454918181106128fc575b8181106128de575b8181106128c0575b8181106128a2575b818110612885575b818110612867575b818110612849575b81811061282b575b81811061280d575b8181106127ef575b8181106127d1575b8181106127b3575b818110612795575b818110612777575b818110612759575b81811061273b575b81811061271d575b8181106126ff575b8181106126e1575b8181106126c3575b8181106126a5575b818110612687575b818110612669575b81811061264b575b81811061262d575b81811061260f575b8181106125f1575b8181106125d3575b8181106125b5575b818110612597575b818110612579575b10612562575b500383611f0c565b906125728160209360f81c61219c565b013861255a565b9260208161258f60019360ff8760f01c1661219c565b019301612554565b926020816125ad60019360ff8760e81c1661219c565b01930161254c565b926020816125cb60019360ff8760e01c1661219c565b019301612544565b926020816125e960019360ff8760d81c1661219c565b01930161253c565b9260208161260760019360ff8760d01c1661219c565b019301612534565b9260208161262560019360ff8760c81c1661219c565b01930161252c565b9260208161264360019360ff8760c01c1661219c565b019301612524565b9260208161266160019360ff8760b81c1661219c565b01930161251c565b9260208161267f60019360ff8760b01c1661219c565b019301612514565b9260208161269d60019360ff8760a81c1661219c565b01930161250c565b926020816126bb60019360ff8760a01c1661219c565b019301612504565b926020816126d960019360ff8760981c1661219c565b0193016124fc565b926020816126f760019360ff8760901c1661219c565b0193016124f4565b9260208161271560019360ff8760881c1661219c565b0193016124ec565b9260208161273360019360ff8760801c1661219c565b0193016124e4565b9260208161275160019360ff8760781c1661219c565b0193016124dc565b9260208161276f60019360ff8760701c1661219c565b0193016124d4565b9260208161278d60019360ff8760681c1661219c565b0193016124cc565b926020816127ab60019360ff8760601c1661219c565b0193016124c4565b926020816127c960019360ff8760581c1661219c565b0193016124bc565b926020816127e760019360ff8760501c1661219c565b0193016124b4565b9260208161280560019360ff8760481c1661219c565b0193016124ac565b9260208161282360019360ff8760401c1661219c565b0193016124a4565b9260208161284160019360ff8760381c1661219c565b01930161249c565b9260208161285f60019360ff8760301c1661219c565b019301612494565b9260208161287d60019360ff8760281c1661219c565b01930161248c565b9260208161289a60019360ff87851c1661219c565b019301612484565b926020816128b860019360ff8760181c1661219c565b01930161247c565b926020816128d660019360ff8760101c1661219c565b019301612474565b926020816128f460019360ff8760081c1661219c565b01930161246c565b9260208161290f60019360ff871661219c565b019301612464565b916020919350610400600191612b9287546129358360ff831661219c565b61294786840160ff8360081c1661219c565b61295a6040840160ff8360101c1661219c565b61296d6060840160ff8360181c1661219c565b61297f6080840160ff83891c1661219c565b61299260a0840160ff8360281c1661219c565b6129a560c0840160ff8360301c1661219c565b6129b860e0840160ff8360381c1661219c565b6129cc610100840160ff8360401c1661219c565b6129e0610120840160ff8360481c1661219c565b6129f4610140840160ff8360501c1661219c565b612a08610160840160ff8360581c1661219c565b612a1c610180840160ff8360601c1661219c565b612a306101a0840160ff8360681c1661219c565b612a446101c0840160ff8360701c1661219c565b612a586101e0840160ff8360781c1661219c565b612a6c610200840160ff8360801c1661219c565b612a80610220840160ff8360881c1661219c565b612a94610240840160ff8360901c1661219c565b612aa8610260840160ff8360981c1661219c565b612abc610280840160ff8360a01c1661219c565b612ad06102a0840160ff8360a81c1661219c565b612ae46102c0840160ff8360b01c1661219c565b612af86102e0840160ff8360b81c1661219c565b612b0c610300840160ff8360c01c1661219c565b612b20610320840160ff8360c81c1661219c565b612b34610340840160ff8360d01c1661219c565b612b48610360840160ff8360d81c1661219c565b612b5c610380840160ff8360e01c1661219c565b612b706103a0840160ff8360e81c1661219c565b612b846103c0840160ff8360f01c1661219c565b6103e083019060f81c61219c565b01940192018592939161244c565b906040519182815491828252602082019060005260206000209260005b818110612bd257505061240a92500383611f0c565b8454835260019485019487945060209093019201612bbd565b8015612bf8576000190190565b634e487b7160e01b600052601160045260246000fd5b919091805483101561230f57600052601f60206000208360051c01921690565b90612c3882611f2d565b612c456040519182611f0c565b8281528092612c56601f1991611f2d565b0190602036910137565b6000198114612bf85760010190565b600080516020612d2d833981519152546001600160a01b0316330361131c57565b600080516020612d6d83398151915280546001600160a01b0319908116909155600080516020612d2d83398151915280549182166001600160a01b0393841690811790915591167f8be0079c531659141344cd1fd0a4f28419497f9722a3daafe3b4186f6b6457e0600080a3565b60ff600080516020612d4d8339815191525460401c1615612d1b57565b631afcd79f60e31b60005260046000fdfe9016d09d72d40fdae2fd8ceac6b6234c7706214fd39c1cd1e609a0528c199300f0c57e16840df040f15088dc2f81fe391c3923bec73e23a9662efc9c229c6a00237e158222e3e6968b72b9db0d8043aacf074ad9f650f0d1606b4d82ee432c00a2646970667358221220780534eb29a979125c31648949f35f56126e02baa0d60933fed78041b2f4351964736f6c634300081c0033",
  "linkReferences": {},
  "deployedLinkReferences": {}
}