{
  "_format": "hh-sol-artifact-1",
  "contractName": "Idleness",
  "sourceName": "contracts/transactions/Idleness.sol",
  "abi": [
    {
      "inputs": [],
      "name": "AccessControlBadConfirmation",
      "type": "error"
    },
    {
      "inputs": [
        {
          "internalType": "address",
          "name": "account",
          "type": "address"
        },
        {
          "internalType": "bytes32",
          "name": "neededRole",
          "type": "bytes32"
        }
      ],
      "name": "AccessControlUnauthorizedAccount",
      "type": "error"
    },
    {
      "inputs": [],
      "name": "InvalidBanPeriod",
      "type": "error"
    },
    {
      "inputs": [],
      "name": "InvalidCommittedValidators",
      "type": "error"
    },
    {
      "inputs": [],
      "name": "InvalidInitialization",
      "type": "error"
    },
    {
      "inputs": [],
      "name": "InvalidSender",
      "type": "error"
    },
    {
      "inputs": [],
      "name": "InvalidSlashPercentage",
      "type": "error"
    },
    {
      "inputs": [],
      "name": "InvalidTimestampType",
      "type": "error"
    },
    {
      "inputs": [],
      "name": "InvalidValidator",
      "type": "error"
    },
    {
      "inputs": [],
      "name": "NoValidatorsFound",
      "type": "error"
    },
    {
      "inputs": [],
      "name": "NotInitializing",
      "type": "error"
    },
    {
      "inputs": [
        {
          "internalType": "address",
          "name": "owner",
          "type": "address"
        }
      ],
      "name": "OwnableInvalidOwner",
      "type": "error"
    },
    {
      "inputs": [
        {
          "internalType": "address",
          "name": "account",
          "type": "address"
        }
      ],
      "name": "OwnableUnauthorizedAccount",
      "type": "error"
    },
    {
      "inputs": [],
      "name": "ValidatorSelectionFailed",
      "type": "error"
    },
    {
      "anonymous": false,
      "inputs": [
        {
          "indexed": false,
          "internalType": "uint64",
          "name": "version",
          "type": "uint64"
        }
      ],
      "name": "Initialized",
      "type": "event"
    },
    {
      "anonymous": false,
      "inputs": [
        {
          "indexed": true,
          "internalType": "address",
          "name": "previousOwner",
          "type": "address"
        },
        {
          "indexed": true,
          "internalType": "address",
          "name": "newOwner",
          "type": "address"
        }
      ],
      "name": "OwnershipTransferStarted",
      "type": "event"
    },
    {
      "anonymous": false,
      "inputs": [
        {
          "indexed": true,
          "internalType": "address",
          "name": "previousOwner",
          "type": "address"
        },
        {
          "indexed": true,
          "internalType": "address",
          "name": "newOwner",
          "type": "address"
        }
      ],
      "name": "OwnershipTransferred",
      "type": "event"
    },
    {
      "anonymous": false,
      "inputs": [
        {
          "indexed": true,
          "internalType": "bytes32",
          "name": "role",
          "type": "bytes32"
        },
        {
          "indexed": true,
          "internalType": "bytes32",
          "name": "previousAdminRole",
          "type": "bytes32"
        },
        {
          "indexed": true,
          "internalType": "bytes32",
          "name": "newAdminRole",
          "type": "bytes32"
        }
      ],
      "name": "RoleAdminChanged",
      "type": "event"
    },
    {
      "anonymous": false,
      "inputs": [
        {
          "indexed": true,
          "internalType": "bytes32",
          "name": "role",
          "type": "bytes32"
        },
        {
          "indexed": true,
          "internalType": "address",
          "name": "account",
          "type": "address"
        },
        {
          "indexed": true,
          "internalType": "address",
          "name": "sender",
          "type": "address"
        }
      ],
      "name": "RoleGranted",
      "type": "event"
    },
    {
      "anonymous": false,
      "inputs": [
        {
          "indexed": true,
          "internalType": "bytes32",
          "name": "role",
          "type": "bytes32"
        },
        {
          "indexed": true,
          "internalType": "address",
          "name": "account",
          "type": "address"
        },
        {
          "indexed": true,
          "internalType": "address",
          "name": "sender",
          "type": "address"
        }
      ],
      "name": "RoleRevoked",
      "type": "event"
    },
    {
      "anonymous": false,
      "inputs": [
        {
          "indexed": false,
          "internalType": "uint256",
          "name": "activate",
          "type": "uint256"
        },
        {
          "indexed": false,
          "internalType": "uint256",
          "name": "propose",
          "type": "uint256"
        },
        {
          "indexed": false,
          "internalType": "uint256",
          "name": "commit",
          "type": "uint256"
        },
        {
          "indexed": false,
          "internalType": "uint256",
          "name": "reveal",
          "type": "uint256"
        },
        {
          "indexed": false,
          "internalType": "uint256",
          "name": "accept",
          "type": "uint256"
        },
        {
          "indexed": false,
          "internalType": "uint256",
          "name": "leaderReveal",
          "type": "uint256"
        }
      ],
      "name": "TimeoutsSet",
      "type": "event"
    },
    {
      "anonymous": false,
      "inputs": [
        {
          "indexed": true,
          "internalType": "bytes32",
          "name": "txId",
          "type": "bytes32"
        },
        {
          "indexed": true,
          "internalType": "address",
          "name": "oldActivator",
          "type": "address"
        },
        {
          "indexed": true,
          "internalType": "address",
          "name": "newActivator",
          "type": "address"
        }
      ],
      "name": "TransactionActivatorChanged",
      "type": "event"
    },
    {
      "anonymous": false,
      "inputs": [
        {
          "indexed": true,
          "internalType": "bytes32",
          "name": "txId",
          "type": "bytes32"
        }
      ],
      "name": "TransactionCancelled",
      "type": "event"
    },
    {
      "anonymous": false,
      "inputs": [
        {
          "indexed": true,
          "internalType": "bytes32",
          "name": "txId",
          "type": "bytes32"
        },
        {
          "indexed": true,
          "internalType": "address",
          "name": "oldLeader",
          "type": "address"
        },
        {
          "indexed": true,
          "internalType": "address",
          "name": "newLeader",
          "type": "address"
        }
      ],
      "name": "TransactionLeaderChanged",
      "type": "event"
    },
    {
      "anonymous": false,
      "inputs": [
        {
          "indexed": true,
          "internalType": "bytes32",
          "name": "txId",
          "type": "bytes32"
        }
      ],
      "name": "TransactionUndetermined",
      "type": "event"
    },
    {
      "anonymous": false,
      "inputs": [
        {
          "indexed": true,
          "internalType": "bytes32",
          "name": "txId",
          "type": "bytes32"
        },
        {
          "indexed": false,
          "internalType": "address",
          "name": "newValidator",
          "type": "address"
        }
      ],
      "name": "TransactionValidatorChanged",
      "type": "event"
    },
    {
      "anonymous": false,
      "inputs": [
        {
          "indexed": true,
          "internalType": "bytes32",
          "name": "txId",
          "type": "bytes32"
        },
        {
          "indexed": false,
          "internalType": "address[]",
          "name": "validators",
          "type": "address[]"
        }
      ],
      "name": "ValidatorsSlashed",
      "type": "event"
    },
    {
      "inputs": [],
      "name": "BAN_MAX",
      "outputs": [
        {
          "internalType": "uint256",
          "name": "",
          "type": "uint256"
        }
      ],
      "stateMutability": "view",
      "type": "function"
    },
    {
      "inputs": [],
      "name": "BAN_MIN",
      "outputs": [
        {
          "internalType": "uint256",
          "name": "",
          "type": "uint256"
        }
      ],
      "stateMutability": "view",
      "type": "function"
    },
    {
      "inputs": [],
      "name": "DEFAULT_ADMIN_ROLE",
      "outputs": [
        {
          "internalType": "bytes32",
          "name": "",
          "type": "bytes32"
        }
      ],
      "stateMutability": "view",
      "type": "function"
    },
    {
      "inputs": [],
      "name": "EVENTS_BATCH_SIZE",
      "outputs": [
        {
          "internalType": "uint256",
          "name": "",
          "type": "uint256"
        }
      ],
      "stateMutability": "view",
      "type": "function"
    },
    {
      "inputs": [],
      "name": "HANGING_SCAN_LIMIT",
      "outputs": [
        {
          "internalType": "uint256",
          "name": "",
          "type": "uint256"
        }
      ],
      "stateMutability": "view",
      "type": "function"
    },
    {
      "inputs": [],
      "name": "SLASH_MAX",
      "outputs": [
        {
          "internalType": "uint256",
          "name": "",
          "type": "uint256"
        }
      ],
      "stateMutability": "view",
      "type": "function"
    },
    {
      "inputs": [],
      "name": "SLASH_MIN",
      "outputs": [
        {
          "internalType": "uint256",
          "name": "",
          "type": "uint256"
        }
      ],
      "stateMutability": "view",
      "type": "function"
    },
    {
      "inputs": [],
      "name": "acceptOwnership",
      "outputs": [],
      "stateMutability": "nonpayable",
      "type": "function"
    },
    {
      "inputs": [
        {
          "internalType": "bytes32",
          "name": "_txId",
          "type": "bytes32"
        },
        {
          "internalType": "address",
          "name": "_validator",
          "type": "address"
        }
      ],
      "name": "addToCommittedValidators",
      "outputs": [],
      "stateMutability": "nonpayable",
      "type": "function"
    },
    {
      "inputs": [
        {
          "internalType": "bytes32",
          "name": "_txId",
          "type": "bytes32"
        },
        {
          "internalType": "address",
          "name": "_validator",
          "type": "address"
        }
      ],
      "name": "addToConsumedValidators",
      "outputs": [],
      "stateMutability": "nonpayable",
      "type": "function"
    },
    {
      "inputs": [],
      "name": "banPeriod",
      "outputs": [
        {
          "internalType": "uint256",
          "name": "",
          "type": "uint256"
        }
      ],
      "stateMutability": "view",
      "type": "function"
    },
    {
      "inputs": [
        {
          "components": [
            {
              "internalType": "enum ITransactions.ResultType",
              "name": "result",
              "type": "uint8"
            },
            {
              "internalType": "enum ITransactions.VoteType",
              "name": "txExecutionResult",
              "type": "uint8"
            },
            {
              "internalType": "enum ITransactions.TransactionStatus",
              "name": "previousStatus",
              "type": "uint8"
            },
            {
              "internalType": "enum ITransactions.TransactionStatus",
              "name": "status",
              "type": "uint8"
            },
            {
              "internalType": "address",
              "name": "txOrigin",
              "type": "address"
            },
            {
              "internalType": "address",
              "name": "sender",
              "type": "address"
            },
            {
              "internalType": "address",
              "name": "recipient",
              "type": "address"
            },
            {
              "internalType": "address",
              "name": "activator",
              "type": "address"
            },
            {
              "internalType": "uint256",
              "name": "txSlot",
              "type": "uint256"
            },
            {
              "internalType": "uint256",
              "name": "initialRotations",
              "type": "uint256"
            },
            {
              "internalType": "uint256",
              "name": "numOfInitialValidators",
              "type": "uint256"
            },
            {
              "internalType": "uint256",
              "name": "epoch",
              "type": "uint256"
            },
            {
              "internalType": "bytes32",
              "name": "id",
              "type": "bytes32"
            },
            {
              "internalType": "bytes32",
              "name": "randomSeed",
              "type": "bytes32"
            },
            {
              "internalType": "bytes32",
              "name": "txExecutionHash",
              "type": "bytes32"
            },
            {
              "internalType": "bytes32",
              "name": "resultHash",
              "type": "bytes32"
            },
            {
              "internalType": "bytes",
              "name": "txCalldata",
              "type": "bytes"
            },
            {
              "internalType": "bytes",
              "name": "eqBlocksOutputs",
              "type": "bytes"
            },
            {
              "components": [
                {
                  "internalType": "uint256",
                  "name": "activationBlock",
                  "type": "uint256"
                },
                {
                  "internalType": "uint256",
                  "name": "processingBlock",
                  "type": "uint256"
                },
                {
                  "internalType": "uint256",
                  "name": "proposalBlock",
                  "type": "uint256"
                }
              ],
              "internalType": "struct ITransactions.ReadStateBlockRange[]",
              "name": "readStateBlockRanges",
              "type": "tuple[]"
            },
            {
              "internalType": "uint256",
              "name": "validUntil",
              "type": "uint256"
            },
            {
              "internalType": "uint256",
              "name": "value",
              "type": "uint256"
            }
          ],
          "internalType": "struct ITransactions.Transaction",
          "name": "_transaction",
          "type": "tuple"
        },
        {
          "components": [
            {
              "internalType": "uint256",
              "name": "round",
              "type": "uint256"
            },
            {
              "internalType": "uint256",
              "name": "leaderIndex",
              "type": "uint256"
            },
            {
              "internalType": "uint256",
              "name": "votesCommitted",
              "type": "uint256"
            },
            {
              "internalType": "uint256",
              "name": "votesRevealed",
              "type": "uint256"
            },
            {
              "internalType": "uint256",
              "name": "appealBond",
              "type": "uint256"
            },
            {
              "internalType": "uint256",
              "name": "rotationsLeft",
              "type": "uint256"
            },
            {
              "internalType": "enum ITransactions.ResultType",
              "name": "result",
              "type": "uint8"
            },
            {
              "internalType": "address[]",
              "name": "roundValidators",
              "type": "address[]"
            },
            {
              "internalType": "enum ITransactions.VoteType[]",
              "name": "validatorVotes",
              "type": "uint8[]"
            },
            {
              "internalType": "bytes32[]",
              "name": "validatorVotesHash",
              "type": "bytes32[]"
            },
            {
              "internalType": "bytes32[]",
              "name": "validatorResultHash",
              "type": "bytes32[]"
            }
          ],
          "internalType": "struct ITransactions.RoundData",
          "name": "_roundData",
          "type": "tuple"
        }
      ],
      "name": "checkAllIdleOnCommit",
      "outputs": [
        {
          "internalType": "bool",
          "name": "changeToUndetermined",
          "type": "bool"
        },
        {
          "internalType": "bool",
          "name": "leaderIsIdle",
          "type": "bool"
        },
        {
          "internalType": "uint256[]",
          "name": "idleValidatorsIndexes",
          "type": "uint256[]"
        },
        {
          "internalType": "address[]",
          "name": "replacementValidators",
          "type": "address[]"
        },
        {
          "internalType": "bytes32[]",
          "name": "undeterminedTxIds",
          "type": "bytes32[]"
        }
      ],
      "stateMutability": "nonpayable",
      "type": "function"
    },
    {
      "inputs": [
        {
          "internalType": "bytes32",
          "name": "_txId",
          "type": "bytes32"
        },
        {
          "internalType": "enum ITransactions.TransactionStatus",
          "name": "_status",
          "type": "uint8"
        }
      ],
      "name": "checkFirstSlotElapsed",
      "outputs": [
        {
          "internalType": "bool",
          "name": "",
          "type": "bool"
        }
      ],
      "stateMutability": "view",
      "type": "function"
    },
    {
      "inputs": [
        {
          "internalType": "address",
          "name": "_activator",
          "type": "address"
        },
        {
          "internalType": "address",
          "name": "_previousActivator",
          "type": "address"
        },
        {
          "internalType": "bytes32",
          "name": "_randomSeed",
          "type": "bytes32"
        },
        {
          "components": [
            {
              "internalType": "enum ITransactions.ResultType",
              "name": "result",
              "type": "uint8"
            },
            {
              "internalType": "enum ITransactions.VoteType",
              "name": "txExecutionResult",
              "type": "uint8"
            },
            {
              "internalType": "enum ITransactions.TransactionStatus",
              "name": "previousStatus",
              "type": "uint8"
            },
            {
              "internalType": "enum ITransactions.TransactionStatus",
              "name": "status",
              "type": "uint8"
            },
            {
              "internalType": "address",
              "name": "txOrigin",
              "type": "address"
            },
            {
              "internalType": "address",
              "name": "sender",
              "type": "address"
            },
            {
              "internalType": "address",
              "name": "recipient",
              "type": "address"
            },
            {
              "internalType": "address",
              "name": "activator",
              "type": "address"
            },
            {
              "internalType": "uint256",
              "name": "txSlot",
              "type": "uint256"
            },
            {
              "internalType": "uint256",
              "name": "initialRotations",
              "type": "uint256"
            },
            {
              "internalType": "uint256",
              "name": "numOfInitialValidators",
              "type": "uint256"
            },
            {
              "internalType": "uint256",
              "name": "epoch",
              "type": "uint256"
            },
            {
              "internalType": "bytes32",
              "name": "id",
              "type": "bytes32"
            },
            {
              "internalType": "bytes32",
              "name": "randomSeed",
              "type": "bytes32"
            },
            {
              "internalType": "bytes32",
              "name": "txExecutionHash",
              "type": "bytes32"
            },
            {
              "internalType": "bytes32",
              "name": "resultHash",
              "type": "bytes32"
            },
            {
              "internalType": "bytes",
              "name": "txCalldata",
              "type": "bytes"
            },
            {
              "internalType": "bytes",
              "name": "eqBlocksOutputs",
              "type": "bytes"
            },
            {
              "components": [
                {
                  "internalType": "uint256",
                  "name": "activationBlock",
                  "type": "uint256"
                },
                {
                  "internalType": "uint256",
                  "name": "processingBlock",
                  "type": "uint256"
                },
                {
                  "internalType": "uint256",
                  "name": "proposalBlock",
                  "type": "uint256"
                }
              ],
              "internalType": "struct ITransactions.ReadStateBlockRange[]",
              "name": "readStateBlockRanges",
              "type": "tuple[]"
            },
            {
              "internalType": "uint256",
              "name": "validUntil",
              "type": "uint256"
            },
            {
              "internalType": "uint256",
              "name": "value",
              "type": "uint256"
            }
          ],
          "internalType": "struct ITransactions.Transaction",
          "name": "_transaction",
          "type": "tuple"
        }
      ],
      "name": "checkIdleOnActivation",
      "outputs": [
        {
          "internalType": "bool",
          "name": "isActivatorIdle",
          "type": "bool"
        },
        {
          "internalType": "bool",
          "name": "changeToUndetermined",
          "type": "bool"
        },
        {
          "internalType": "address",
          "name": "newActivator",
          "type": "address"
        },
        {
          "internalType": "bytes32[]",
          "name": "undeterminedTxIds",
          "type": "bytes32[]"
        },
        {
          "internalType": "bytes32[]",
          "name": "expiredTxIds",
          "type": "bytes32[]"
        }
      ],
      "stateMutability": "nonpayable",
      "type": "function"
    },
    {
      "inputs": [
        {
          "internalType": "address",
          "name": "_validator",
          "type": "address"
        },
        {
          "components": [
            {
              "internalType": "enum ITransactions.ResultType",
              "name": "result",
              "type": "uint8"
            },
            {
              "internalType": "enum ITransactions.VoteType",
              "name": "txExecutionResult",
              "type": "uint8"
            },
            {
              "internalType": "enum ITransactions.TransactionStatus",
              "name": "previousStatus",
              "type": "uint8"
            },
            {
              "internalType": "enum ITransactions.TransactionStatus",
              "name": "status",
              "type": "uint8"
            },
            {
              "internalType": "address",
              "name": "txOrigin",
              "type": "address"
            },
            {
              "internalType": "address",
              "name": "sender",
              "type": "address"
            },
            {
              "internalType": "address",
              "name": "recipient",
              "type": "address"
            },
            {
              "internalType": "address",
              "name": "activator",
              "type": "address"
            },
            {
              "internalType": "uint256",
              "name": "txSlot",
              "type": "uint256"
            },
            {
              "internalType": "uint256",
              "name": "initialRotations",
              "type": "uint256"
            },
            {
              "internalType": "uint256",
              "name": "numOfInitialValidators",
              "type": "uint256"
            },
            {
              "internalType": "uint256",
              "name": "epoch",
              "type": "uint256"
            },
            {
              "internalType": "bytes32",
              "name": "id",
              "type": "bytes32"
            },
            {
              "internalType": "bytes32",
              "name": "randomSeed",
              "type": "bytes32"
            },
            {
              "internalType": "bytes32",
              "name": "txExecutionHash",
              "type": "bytes32"
            },
            {
              "internalType": "bytes32",
              "name": "resultHash",
              "type": "bytes32"
            },
            {
              "internalType": "bytes",
              "name": "txCalldata",
              "type": "bytes"
            },
            {
              "internalType": "bytes",
              "name": "eqBlocksOutputs",
              "type": "bytes"
            },
            {
              "components": [
                {
                  "internalType": "uint256",
                  "name": "activationBlock",
                  "type": "uint256"
                },
                {
                  "internalType": "uint256",
                  "name": "processingBlock",
                  "type": "uint256"
                },
                {
                  "internalType": "uint256",
                  "name": "proposalBlock",
                  "type": "uint256"
                }
              ],
              "internalType": "struct ITransactions.ReadStateBlockRange[]",
              "name": "readStateBlockRanges",
              "type": "tuple[]"
            },
            {
              "internalType": "uint256",
              "name": "validUntil",
              "type": "uint256"
            },
            {
              "internalType": "uint256",
              "name": "value",
              "type": "uint256"
            }
          ],
          "internalType": "struct ITransactions.Transaction",
          "name": "_transaction",
          "type": "tuple"
        },
        {
          "components": [
            {
              "internalType": "uint256",
              "name": "round",
              "type": "uint256"
            },
            {
              "internalType": "uint256",
              "name": "leaderIndex",
              "type": "uint256"
            },
            {
              "internalType": "uint256",
              "name": "votesCommitted",
              "type": "uint256"
            },
            {
              "internalType": "uint256",
              "name": "votesRevealed",
              "type": "uint256"
            },
            {
              "internalType": "uint256",
              "name": "appealBond",
              "type": "uint256"
            },
            {
              "internalType": "uint256",
              "name": "rotationsLeft",
              "type": "uint256"
            },
            {
              "internalType": "enum ITransactions.ResultType",
              "name": "result",
              "type": "uint8"
            },
            {
              "internalType": "address[]",
              "name": "roundValidators",
              "type": "address[]"
            },
            {
              "internalType": "enum ITransactions.VoteType[]",
              "name": "validatorVotes",
              "type": "uint8[]"
            },
            {
              "internalType": "bytes32[]",
              "name": "validatorVotesHash",
              "type": "bytes32[]"
            },
            {
              "internalType": "bytes32[]",
              "name": "validatorResultHash",
              "type": "bytes32[]"
            }
          ],
          "internalType": "struct ITransactions.RoundData",
          "name": "_roundData",
          "type": "tuple"
        }
      ],
      "name": "checkIdleOnCommitVote",
      "outputs": [
        {
          "internalType": "bool",
          "name": "isValidatorIdle",
          "type": "bool"
        },
        {
          "internalType": "bool",
          "name": "changeToUndetermined",
          "type": "bool"
        },
        {
          "internalType": "address",
          "name": "newValidator",
          "type": "address"
        },
        {
          "internalType": "bytes32[]",
          "name": "undeterminedTxIds",
          "type": "bytes32[]"
        }
      ],
      "stateMutability": "nonpayable",
      "type": "function"
    },
    {
      "inputs": [
        {
          "internalType": "address",
          "name": "_leader",
          "type": "address"
        },
        {
          "internalType": "address",
          "name": "_previousLeader",
          "type": "address"
        },
        {
          "components": [
            {
              "internalType": "enum ITransactions.ResultType",
              "name": "result",
              "type": "uint8"
            },
            {
              "internalType": "enum ITransactions.VoteType",
              "name": "txExecutionResult",
              "type": "uint8"
            },
            {
              "internalType": "enum ITransactions.TransactionStatus",
              "name": "previousStatus",
              "type": "uint8"
            },
            {
              "internalType": "enum ITransactions.TransactionStatus",
              "name": "status",
              "type": "uint8"
            },
            {
              "internalType": "address",
              "name": "txOrigin",
              "type": "address"
            },
            {
              "internalType": "address",
              "name": "sender",
              "type": "address"
            },
            {
              "internalType": "address",
              "name": "recipient",
              "type": "address"
            },
            {
              "internalType": "address",
              "name": "activator",
              "type": "address"
            },
            {
              "internalType": "uint256",
              "name": "txSlot",
              "type": "uint256"
            },
            {
              "internalType": "uint256",
              "name": "initialRotations",
              "type": "uint256"
            },
            {
              "internalType": "uint256",
              "name": "numOfInitialValidators",
              "type": "uint256"
            },
            {
              "internalType": "uint256",
              "name": "epoch",
              "type": "uint256"
            },
            {
              "internalType": "bytes32",
              "name": "id",
              "type": "bytes32"
            },
            {
              "internalType": "bytes32",
              "name": "randomSeed",
              "type": "bytes32"
            },
            {
              "internalType": "bytes32",
              "name": "txExecutionHash",
              "type": "bytes32"
            },
            {
              "internalType": "bytes32",
              "name": "resultHash",
              "type": "bytes32"
            },
            {
              "internalType": "bytes",
              "name": "txCalldata",
              "type": "bytes"
            },
            {
              "internalType": "bytes",
              "name": "eqBlocksOutputs",
              "type": "bytes"
            },
            {
              "components": [
                {
                  "internalType": "uint256",
                  "name": "activationBlock",
                  "type": "uint256"
                },
                {
                  "internalType": "uint256",
                  "name": "processingBlock",
                  "type": "uint256"
                },
                {
                  "internalType": "uint256",
                  "name": "proposalBlock",
                  "type": "uint256"
                }
              ],
              "internalType": "struct ITransactions.ReadStateBlockRange[]",
              "name": "readStateBlockRanges",
              "type": "tuple[]"
            },
            {
              "internalType": "uint256",
              "name": "validUntil",
              "type": "uint256"
            },
            {
              "internalType": "uint256",
              "name": "value",
              "type": "uint256"
            }
          ],
          "internalType": "struct ITransactions.Transaction",
          "name": "_transaction",
          "type": "tuple"
        }
      ],
      "name": "checkIdleOnProposeReceipt",
      "outputs": [
        {
          "internalType": "bool",
          "name": "leaderIsIdle",
          "type": "bool"
        },
        {
          "internalType": "bool",
          "name": "changeToUndetermined",
          "type": "bool"
        },
        {
          "internalType": "address",
          "name": "newLeader",
          "type": "address"
        },
        {
          "internalType": "bytes32[]",
          "name": "undeterminedTxIds",
          "type": "bytes32[]"
        },
        {
          "internalType": "bytes32[]",
          "name": "expiredTxIds",
          "type": "bytes32[]"
        }
      ],
      "stateMutability": "nonpayable",
      "type": "function"
    },
    {
      "inputs": [
        {
          "internalType": "bytes32",
          "name": "",
          "type": "bytes32"
        },
        {
          "internalType": "uint256",
          "name": "",
          "type": "uint256"
        }
      ],
      "name": "committedValidators",
      "outputs": [
        {
          "internalType": "address",
          "name": "",
          "type": "address"
        }
      ],
      "stateMutability": "view",
      "type": "function"
    },
    {
      "inputs": [
        {
          "internalType": "bytes32",
          "name": "",
          "type": "bytes32"
        },
        {
          "internalType": "uint256",
          "name": "",
          "type": "uint256"
        }
      ],
      "name": "consumedValidators",
      "outputs": [
        {
          "internalType": "address",
          "name": "",
          "type": "address"
        }
      ],
      "stateMutability": "view",
      "type": "function"
    },
    {
      "inputs": [],
      "name": "contracts",
      "outputs": [
        {
          "internalType": "contract IConsensusMain",
          "name": "consensusMain",
          "type": "address"
        },
        {
          "internalType": "contract IGenLayerStaking",
          "name": "staking",
          "type": "address"
        },
        {
          "internalType": "contract ITransactions",
          "name": "transactions",
          "type": "address"
        },
        {
          "internalType": "contract Utils",
          "name": "utils",
          "type": "address"
        },
        {
          "internalType": "contract IQueues",
          "name": "queues",
          "type": "address"
        },
        {
          "internalType": "contract ISlash",
          "name": "slash",
          "type": "address"
        },
        {
          "internalType": "contract IAppeals",
          "name": "appeals",
          "type": "address"
        },
        {
          "internalType": "contract IRounds",
          "name": "rounds",
          "type": "address"
        }
      ],
      "stateMutability": "view",
      "type": "function"
    },
    {
      "inputs": [],
      "name": "dummyCounter",
      "outputs": [
        {
          "internalType": "uint256",
          "name": "",
          "type": "uint256"
        }
      ],
      "stateMutability": "view",
      "type": "function"
    },
    {
      "inputs": [
        {
          "internalType": "bytes32",
          "name": "_txId",
          "type": "bytes32"
        }
      ],
      "name": "getCommittedValidators",
      "outputs": [
        {
          "internalType": "address[]",
          "name": "",
          "type": "address[]"
        }
      ],
      "stateMutability": "view",
      "type": "function"
    },
    {
      "inputs": [
        {
          "internalType": "bytes32",
          "name": "_txId",
          "type": "bytes32"
        }
      ],
      "name": "getConsumedValidators",
      "outputs": [
        {
          "internalType": "address[]",
          "name": "",
          "type": "address[]"
        }
      ],
      "stateMutability": "view",
      "type": "function"
    },
    {
      "inputs": [],
      "name": "getContracts",
      "outputs": [
        {
          "components": [
            {
              "internalType": "contract IConsensusMain",
              "name": "consensusMain",
              "type": "address"
            },
            {
              "internalType": "contract IGenLayerStaking",
              "name": "staking",
              "type": "address"
            },
            {
              "internalType": "contract ITransactions",
              "name": "transactions",
              "type": "address"
            },
            {
              "internalType": "contract Utils",
              "name": "utils",
              "type": "address"
            },
            {
              "internalType": "contract IQueues",
              "name": "queues",
              "type": "address"
            },
            {
              "internalType": "contract ISlash",
              "name": "slash",
              "type": "address"
            },
            {
              "internalType": "contract IAppeals",
              "name": "appeals",
              "type": "address"
            },
            {
              "internalType": "contract IRounds",
              "name": "rounds",
              "type": "address"
            }
          ],
          "internalType": "struct IIdleness.ExternalContracts",
          "name": "",
          "type": "tuple"
        }
      ],
      "stateMutability": "view",
      "type": "function"
    },
    {
      "inputs": [
        {
          "internalType": "bytes32",
          "name": "_txId",
          "type": "bytes32"
        },
        {
          "internalType": "uint256",
          "name": "_timestamp",
          "type": "uint256"
        }
      ],
      "name": "getCurrentActivator",
      "outputs": [
        {
          "internalType": "address",
          "name": "activator",
          "type": "address"
        },
        {
          "internalType": "bool",
          "name": "isValid",
          "type": "bool"
        }
      ],
      "stateMutability": "view",
      "type": "function"
    },
    {
      "inputs": [
        {
          "internalType": "bytes32",
          "name": "_randomSeed",
          "type": "bytes32"
        },
        {
          "internalType": "uint256",
          "name": "_slots",
          "type": "uint256"
        },
        {
          "internalType": "uint256",
          "name": "_numberOfValidators",
          "type": "uint256"
        },
        {
          "internalType": "bool",
          "name": "_isWeighted",
          "type": "bool"
        },
        {
          "internalType": "uint256",
          "name": "_txCreatedTimestamp",
          "type": "uint256"
        },
        {
          "internalType": "address[]",
          "name": "_consumedValidators",
          "type": "address[]"
        },
        {
          "internalType": "uint256",
          "name": "_epoch",
          "type": "uint256"
        }
      ],
      "name": "getNextValidators",
      "outputs": [
        {
          "internalType": "uint256",
          "name": "leader",
          "type": "uint256"
        },
        {
          "internalType": "address[]",
          "name": "validators",
          "type": "address[]"
        },
        {
          "internalType": "address[]",
          "name": "penalized",
          "type": "address[]"
        }
      ],
      "stateMutability": "view",
      "type": "function"
    },
    {
      "inputs": [
        {
          "internalType": "bytes32",
          "name": "role",
          "type": "bytes32"
        }
      ],
      "name": "getRoleAdmin",
      "outputs": [
        {
          "internalType": "bytes32",
          "name": "",
          "type": "bytes32"
        }
      ],
      "stateMutability": "view",
      "type": "function"
    },
    {
      "inputs": [
        {
          "internalType": "enum ITransactions.TransactionStatus",
          "name": "_status",
          "type": "uint8"
        },
        {
          "internalType": "bytes32",
          "name": "_txId",
          "type": "bytes32"
        },
        {
          "internalType": "uint256",
          "name": "_currentTimestamp",
          "type": "uint256"
        }
      ],
      "name": "getSlotsElapsed",
      "outputs": [
        {
          "internalType": "uint256",
          "name": "",
          "type": "uint256"
        }
      ],
      "stateMutability": "view",
      "type": "function"
    },
    {
      "inputs": [
        {
          "internalType": "bytes32",
          "name": "_txId",
          "type": "bytes32"
        },
        {
          "internalType": "enum ITransactions.TransactionStatus",
          "name": "_status",
          "type": "uint8"
        },
        {
          "internalType": "uint256",
          "name": "_currentTimestamp",
          "type": "uint256"
        }
      ],
      "name": "getSlotsElapsedAndIsTransactionHanging",
      "outputs": [
        {
          "internalType": "uint256",
          "name": "",
          "type": "uint256"
        },
        {
          "internalType": "bool",
          "name": "",
          "type": "bool"
        }
      ],
      "stateMutability": "view",
      "type": "function"
    },
    {
      "inputs": [],
      "name": "getTimeouts",
      "outputs": [
        {
          "components": [
            {
              "internalType": "uint256",
              "name": "activate",
              "type": "uint256"
            },
            {
              "internalType": "uint256",
              "name": "propose",
              "type": "uint256"
            },
            {
              "internalType": "uint256",
              "name": "commit",
              "type": "uint256"
            },
            {
              "internalType": "uint256",
              "name": "reveal",
              "type": "uint256"
            },
            {
              "internalType": "uint256",
              "name": "accept",
              "type": "uint256"
            },
            {
              "internalType": "uint256",
              "name": "leaderReveal",
              "type": "uint256"
            }
          ],
          "internalType": "struct IIdleness.Timeouts",
          "name": "",
          "type": "tuple"
        }
      ],
      "stateMutability": "view",
      "type": "function"
    },
    {
      "inputs": [
        {
          "internalType": "bytes32",
          "name": "_txId",
          "type": "bytes32"
        }
      ],
      "name": "getTimestamps",
      "outputs": [
        {
          "components": [
            {
              "internalType": "uint256",
              "name": "created",
              "type": "uint256"
            },
            {
              "internalType": "uint256",
              "name": "pending",
              "type": "uint256"
            },
            {
              "internalType": "uint256",
              "name": "activated",
              "type": "uint256"
            },
            {
              "internalType": "uint256",
              "name": "proposed",
              "type": "uint256"
            },
            {
              "internalType": "uint256",
              "name": "committed",
              "type": "uint256"
            },
            {
              "internalType": "uint256",
              "name": "lastVote",
              "type": "uint256"
            },
            {
              "internalType": "uint256",
              "name": "appealSubmitted",
              "type": "uint256"
            },
            {
              "internalType": "uint256",
              "name": "leaderRevealed",
              "type": "uint256"
            }
          ],
          "internalType": "struct IIdleness.Timestamps",
          "name": "",
          "type": "tuple"
        }
      ],
      "stateMutability": "view",
      "type": "function"
    },
    {
      "inputs": [
        {
          "internalType": "bytes32",
          "name": "role",
          "type": "bytes32"
        },
        {
          "internalType": "address",
          "name": "account",
          "type": "address"
        }
      ],
      "name": "grantRole",
      "outputs": [],
      "stateMutability": "nonpayable",
      "type": "function"
    },
    {
      "inputs": [],
      "name": "hangingTransactionMultiple",
      "outputs": [
        {
          "internalType": "uint256",
          "name": "",
          "type": "uint256"
        }
      ],
      "stateMutability": "view",
      "type": "function"
    },
    {
      "inputs": [
        {
          "internalType": "bytes32",
          "name": "role",
          "type": "bytes32"
        },
        {
          "internalType": "address",
          "name": "account",
          "type": "address"
        }
      ],
      "name": "hasRole",
      "outputs": [
        {
          "internalType": "bool",
          "name": "",
          "type": "bool"
        }
      ],
      "stateMutability": "view",
      "type": "function"
    },
    {
      "inputs": [
        {
          "internalType": "bytes32",
          "name": "",
          "type": "bytes32"
        }
      ],
      "name": "idlenessRecomputationCounter",
      "outputs": [
        {
          "internalType": "uint256",
          "name": "",
          "type": "uint256"
        }
      ],
      "stateMutability": "view",
      "type": "function"
    },
    {
      "inputs": [
        {
          "internalType": "address",
          "name": "_consensusMain",
          "type": "address"
        },
        {
          "internalType": "address",
          "name": "_staking",
          "type": "address"
        },
        {
          "internalType": "address",
          "name": "_transactions",
          "type": "address"
        },
        {
          "internalType": "address",
          "name": "_utils",
          "type": "address"
        },
        {
          "internalType": "address",
          "name": "_queues",
          "type": "address"
        },
        {
          "internalType": "address",
          "name": "_slashAddress",
          "type": "address"
        },
        {
          "internalType": "address",
          "name": "_appeals",
          "type": "address"
        },
        {
          "internalType": "address",
          "name": "_rounds",
          "type": "address"
        }
      ],
      "name": "initialize",
      "outputs": [],
      "stateMutability": "nonpayable",
      "type": "function"
    },
    {
      "inputs": [
        {
          "components": [
            {
              "internalType": "enum ITransactions.ResultType",
              "name": "result",
              "type": "uint8"
            },
            {
              "internalType": "enum ITransactions.VoteType",
              "name": "txExecutionResult",
              "type": "uint8"
            },
            {
              "internalType": "enum ITransactions.TransactionStatus",
              "name": "previousStatus",
              "type": "uint8"
            },
            {
              "internalType": "enum ITransactions.TransactionStatus",
              "name": "status",
              "type": "uint8"
            },
            {
              "internalType": "address",
              "name": "txOrigin",
              "type": "address"
            },
            {
              "internalType": "address",
              "name": "sender",
              "type": "address"
            },
            {
              "internalType": "address",
              "name": "recipient",
              "type": "address"
            },
            {
              "internalType": "address",
              "name": "activator",
              "type": "address"
            },
            {
              "internalType": "uint256",
              "name": "txSlot",
              "type": "uint256"
            },
            {
              "internalType": "uint256",
              "name": "initialRotations",
              "type": "uint256"
            },
            {
              "internalType": "uint256",
              "name": "numOfInitialValidators",
              "type": "uint256"
            },
            {
              "internalType": "uint256",
              "name": "epoch",
              "type": "uint256"
            },
            {
              "internalType": "bytes32",
              "name": "id",
              "type": "bytes32"
            },
            {
              "internalType": "bytes32",
              "name": "randomSeed",
              "type": "bytes32"
            },
            {
              "internalType": "bytes32",
              "name": "txExecutionHash",
              "type": "bytes32"
            },
            {
              "internalType": "bytes32",
              "name": "resultHash",
              "type": "bytes32"
            },
            {
              "internalType": "bytes",
              "name": "txCalldata",
              "type": "bytes"
            },
            {
              "internalType": "bytes",
              "name": "eqBlocksOutputs",
              "type": "bytes"
            },
            {
              "components": [
                {
                  "internalType": "uint256",
                  "name": "activationBlock",
                  "type": "uint256"
                },
                {
                  "internalType": "uint256",
                  "name": "processingBlock",
                  "type": "uint256"
                },
                {
                  "internalType": "uint256",
                  "name": "proposalBlock",
                  "type": "uint256"
                }
              ],
              "internalType": "struct ITransactions.ReadStateBlockRange[]",
              "name": "readStateBlockRanges",
              "type": "tuple[]"
            },
            {
              "internalType": "uint256",
              "name": "validUntil",
              "type": "uint256"
            },
            {
              "internalType": "uint256",
              "name": "value",
              "type": "uint256"
            }
          ],
          "internalType": "struct ITransactions.Transaction",
          "name": "_tx",
          "type": "tuple"
        }
      ],
      "name": "isIdle",
      "outputs": [
        {
          "internalType": "bool",
          "name": "",
          "type": "bool"
        }
      ],
      "stateMutability": "view",
      "type": "function"
    },
    {
      "inputs": [],
      "name": "owner",
      "outputs": [
        {
          "internalType": "address",
          "name": "",
          "type": "address"
        }
      ],
      "stateMutability": "view",
      "type": "function"
    },
    {
      "inputs": [],
      "name": "pendingOwner",
      "outputs": [
        {
          "internalType": "address",
          "name": "",
          "type": "address"
        }
      ],
      "stateMutability": "view",
      "type": "function"
    },
    {
      "inputs": [],
      "name": "renounceOwnership",
      "outputs": [],
      "stateMutability": "nonpayable",
      "type": "function"
    },
    {
      "inputs": [
        {
          "internalType": "bytes32",
          "name": "role",
          "type": "bytes32"
        },
        {
          "internalType": "address",
          "name": "callerConfirmation",
          "type": "address"
        }
      ],
      "name": "renounceRole",
      "outputs": [],
      "stateMutability": "nonpayable",
      "type": "function"
    },
    {
      "inputs": [
        {
          "internalType": "address",
          "name": "_validator",
          "type": "address"
        }
      ],
      "name": "resetStrikesForValidator",
      "outputs": [],
      "stateMutability": "nonpayable",
      "type": "function"
    },
    {
      "inputs": [
        {
          "internalType": "address[]",
          "name": "_validators",
          "type": "address[]"
        }
      ],
      "name": "resetStrikesForValidators",
      "outputs": [],
      "stateMutability": "nonpayable",
      "type": "function"
    },
    {
      "inputs": [
        {
          "internalType": "bytes32",
          "name": "role",
          "type": "bytes32"
        },
        {
          "internalType": "address",
          "name": "account",
          "type": "address"
        }
      ],
      "name": "revokeRole",
      "outputs": [],
      "stateMutability": "nonpayable",
      "type": "function"
    },
    {
      "inputs": [
        {
          "internalType": "uint256",
          "name": "_banPeriod",
          "type": "uint256"
        }
      ],
      "name": "setBanPeriod",
      "outputs": [],
      "stateMutability": "nonpayable",
      "type": "function"
    },
    {
      "inputs": [
        {
          "internalType": "address",
          "name": "_consensusMain",
          "type": "address"
        },
        {
          "internalType": "address",
          "name": "_staking",
          "type": "address"
        },
        {
          "internalType": "address",
          "name": "_transactions",
          "type": "address"
        },
        {
          "internalType": "address",
          "name": "_utils",
          "type": "address"
        },
        {
          "internalType": "address",
          "name": "_queues",
          "type": "address"
        },
        {
          "internalType": "address",
          "name": "_slashAddress",
          "type": "address"
        },
        {
          "internalType": "address",
          "name": "_appeals",
          "type": "address"
        },
        {
          "internalType": "address",
          "name": "_rounds",
          "type": "address"
        }
      ],
      "name": "setContracts",
      "outputs": [],
      "stateMutability": "nonpayable",
      "type": "function"
    },
    {
      "inputs": [],
      "name": "setDummyCounter",
      "outputs": [],
      "stateMutability": "nonpayable",
      "type": "function"
    },
    {
      "inputs": [
        {
          "internalType": "uint256",
          "name": "_hangingTransactionMultiple",
          "type": "uint256"
        }
      ],
      "name": "setHangingTransactionMultiple",
      "outputs": [],
      "stateMutability": "nonpayable",
      "type": "function"
    },
    {
      "inputs": [
        {
          "internalType": "uint256",
          "name": "_slashPercentage",
          "type": "uint256"
        }
      ],
      "name": "setSlashPercentage",
      "outputs": [],
      "stateMutability": "nonpayable",
      "type": "function"
    },
    {
      "inputs": [
        {
          "internalType": "uint256",
          "name": "_strikesMax",
          "type": "uint256"
        }
      ],
      "name": "setStrikesMax",
      "outputs": [],
      "stateMutability": "nonpayable",
      "type": "function"
    },
    {
      "inputs": [
        {
          "internalType": "uint256",
          "name": "_activate",
          "type": "uint256"
        },
        {
          "internalType": "uint256",
          "name": "_propose",
          "type": "uint256"
        },
        {
          "internalType": "uint256",
          "name": "_commit",
          "type": "uint256"
        },
        {
          "internalType": "uint256",
          "name": "_reveal",
          "type": "uint256"
        },
        {
          "internalType": "uint256",
          "name": "_accept",
          "type": "uint256"
        },
        {
          "internalType": "uint256",
          "name": "_leaderReveal",
          "type": "uint256"
        }
      ],
      "name": "setTimeouts",
      "outputs": [],
      "stateMutability": "nonpayable",
      "type": "function"
    },
    {
      "inputs": [
        {
          "internalType": "bytes32",
          "name": "_txId",
          "type": "bytes32"
        },
        {
          "internalType": "enum IIdleness.TimestampType",
          "name": "_type",
          "type": "uint8"
        },
        {
          "internalType": "uint256",
          "name": "_timestamp",
          "type": "uint256"
        }
      ],
      "name": "setTimestamp",
      "outputs": [],
      "stateMutability": "nonpayable",
      "type": "function"
    },
    {
      "inputs": [
        {
          "internalType": "bytes32",
          "name": "_txId",
          "type": "bytes32"
        },
        {
          "components": [
            {
              "internalType": "uint256",
              "name": "created",
              "type": "uint256"
            },
            {
              "internalType": "uint256",
              "name": "pending",
              "type": "uint256"
            },
            {
              "internalType": "uint256",
              "name": "activated",
              "type": "uint256"
            },
            {
              "internalType": "uint256",
              "name": "proposed",
              "type": "uint256"
            },
            {
              "internalType": "uint256",
              "name": "committed",
              "type": "uint256"
            },
            {
              "internalType": "uint256",
              "name": "lastVote",
              "type": "uint256"
            },
            {
              "internalType": "uint256",
              "name": "appealSubmitted",
              "type": "uint256"
            },
            {
              "internalType": "uint256",
              "name": "leaderRevealed",
              "type": "uint256"
            }
          ],
          "internalType": "struct IIdleness.Timestamps",
          "name": "_timestamps",
          "type": "tuple"
        }
      ],
      "name": "setTimestamps",
      "outputs": [],
      "stateMutability": "nonpayable",
      "type": "function"
    },
    {
      "inputs": [
        {
          "internalType": "bytes32",
          "name": "_txId",
          "type": "bytes32"
        },
        {
          "internalType": "address[]",
          "name": "_nonRevealedValidators",
          "type": "address[]"
        }
      ],
      "name": "slashNonRevealedValidators",
      "outputs": [],
      "stateMutability": "nonpayable",
      "type": "function"
    },
    {
      "inputs": [],
      "name": "slashPercentage",
      "outputs": [
        {
          "internalType": "uint256",
          "name": "",
          "type": "uint256"
        }
      ],
      "stateMutability": "view",
      "type": "function"
    },
    {
      "inputs": [],
      "name": "strikesMax",
      "outputs": [
        {
          "internalType": "uint256",
          "name": "",
          "type": "uint256"
        }
      ],
      "stateMutability": "view",
      "type": "function"
    },
    {
      "inputs": [
        {
          "internalType": "address",
          "name": "validator",
          "type": "address"
        },
        {
          "internalType": "uint256",
          "name": "epoch",
          "type": "uint256"
        }
      ],
      "name": "strikesPerEpoch",
      "outputs": [
        {
          "internalType": "uint256",
          "name": "count",
          "type": "uint256"
        }
      ],
      "stateMutability": "view",
      "type": "function"
    },
    {
      "inputs": [
        {
          "internalType": "bytes4",
          "name": "interfaceId",
          "type": "bytes4"
        }
      ],
      "name": "supportsInterface",
      "outputs": [
        {
          "internalType": "bool",
          "name": "",
          "type": "bool"
        }
      ],
      "stateMutability": "view",
      "type": "function"
    },
    {
      "inputs": [],
      "name": "timeouts",
      "outputs": [
        {
          "internalType": "uint256",
          "name": "activate",
          "type": "uint256"
        },
        {
          "internalType": "uint256",
          "name": "propose",
          "type": "uint256"
        },
        {
          "internalType": "uint256",
          "name": "commit",
          "type": "uint256"
        },
        {
          "internalType": "uint256",
          "name": "reveal",
          "type": "uint256"
        },
        {
          "internalType": "uint256",
          "name": "accept",
          "type": "uint256"
        },
        {
          "internalType": "uint256",
          "name": "leaderReveal",
          "type": "uint256"
        }
      ],
      "stateMutability": "view",
      "type": "function"
    },
    {
      "inputs": [
        {
          "internalType": "bytes32",
          "name": "",
          "type": "bytes32"
        }
      ],
      "name": "timestamps",
      "outputs": [
        {
          "internalType": "uint256",
          "name": "created",
          "type": "uint256"
        },
        {
          "internalType": "uint256",
          "name": "pending",
          "type": "uint256"
        },
        {
          "internalType": "uint256",
          "name": "activated",
          "type": "uint256"
        },
        {
          "internalType": "uint256",
          "name": "proposed",
          "type": "uint256"
        },
        {
          "internalType": "uint256",
          "name": "committed",
          "type": "uint256"
        },
        {
          "internalType": "uint256",
          "name": "lastVote",
          "type": "uint256"
        },
        {
          "internalType": "uint256",
          "name": "appealSubmitted",
          "type": "uint256"
        },
        {
          "internalType": "uint256",
          "name": "leaderRevealed",
          "type": "uint256"
        }
      ],
      "stateMutability": "view",
      "type": "function"
    },
    {
      "inputs": [
        {
          "internalType": "address",
          "name": "newOwner",
          "type": "address"
        }
      ],
      "name": "transferOwnership",
      "outputs": [],
      "stateMutability": "nonpayable",
      "type": "function"
    },
    {
      "inputs": [
        {
          "internalType": "bytes32",
          "name": "_txId",
          "type": "bytes32"
        },
        {
          "internalType": "address[]",
          "name": "_committedValidators",
          "type": "address[]"
        }
      ],
      "name": "updateCommittedValidators",
      "outputs": [],
      "stateMutability": "nonpayable",
      "type": "function"
    },
    {
      "inputs": [
        {
          "internalType": "bytes32",
          "name": "_txId",
          "type": "bytes32"
        },
        {
          "internalType": "address[]",
          "name": "_consumedValidators",
          "type": "address[]"
        }
      ],
      "name": "updateConsumedValidators",
      "outputs": [],
      "stateMutability": "nonpayable",
      "type": "function"
    }
  ],
  "bytecode": "0x6080806040523460155761472b908161001b8239f35b600080fdfe60a080604052600436101561001357600080fd5b60003560e01c90816301ffc9a714611dc4575080630a7c8d4814611d79578063103abeac14611d5d57806319e210be14611d3f5780631b8972ee14611ba55780631f1ccec914611b40578063248a9ca314611b2257806327bb24f214611af9578063293d959214611a755780632f2ff15d14611a4457806336568abe146119fe57806337178925146119d25780633921df0b14611918578063393ebbf8146118cd57806339d67b48146118825780633c4afcd0146118515780633cd58c76146118335780634639e68f1461176c5780634e8eb8bd1461165d5780634fe574f3146115f35780635537b6d1146115235780635ca92b80146115055780635d32da1b146114d4578063607a70db146113bc578063607bafce146113a05780636c0f79b6146113285780636cfac8f7146112e85780636f81159414611251578063715018a6146111d0578063747dfe0b1461118a57806379ba50971461113a5780637b0581011461111d57806385b835b2146110ff57806387994ec2146110de5780638a29e2de14610ed55780638da5cb5b14610e9f57806391d1485414610e45578063983975f214610df85780639939b196146105df5780639ad8d6f714610d055780639f31515114610ce4578063a00253a414610c3a578063a217fddf14610c1e578063b320c44014610b3b578063b587295814610ac2578063b800631114610a4f578063bd58199a14610a31578063c0d6438914610969578063c3a2a93a1461083f578063c8da3904146107f5578063ca5bbfbc1461076d578063d2c702181461061c578063d547741f146105e4578063d83ad101146105df578063d8a4f66f14610597578063dc3b826d14610576578063e2bb65f914610480578063e30c39781461044a578063e70c38f11461039d578063f166760714610371578063f2fde38b146102ea5763ff713289146102c957600080fd5b346102e55760003660031901126102e557602060405160408152f35b600080fd5b346102e55760203660031901126102e557610303611ed3565b61030b61379a565b6000805160206146d683398151915280546001600160a01b0319166001600160a01b03928316908117909155600080516020614676833981519152549091167f38d16b8cac22d99fc7c124b9cd0de2d3fa1faef420bfe791d8c362d765e22700600080a3005b346102e55760203660031901126102e55760043560005260176020526020604060002054604051908152f35b346102e55760003660031901126102e557600060a06040516103be81611e17565b828152826020820152826040820152826060820152826080820152015260c06040516103e981611e17565b600b5490818152600c5460208201908152600d5460408301908152600e549060608401918252600f54926080850193845260a060105495019485526040519586525160208601525160408501525160608401525160808301525160a0820152f35b346102e55760003660031901126102e5576000805160206146d6833981519152546040516001600160a01b039091168152602090f35b346102e55760603660031901126102e557610499611ed3565b6024356001600160401b0381116102e5576104b8903690600401612077565b906044356001600160401b0381116102e5576104d89036906004016122e4565b6005546001600160a01b031633141580610561575b8061054c575b61053b576105379261050492613502565b90604094929451948594151585521515602085015260018060a01b0316604084015260806060840152608083019061244b565b0390f35b636edaef2f60e11b60005260046000fd5b506009546001600160a01b03163314156104f3565b506003546001600160a01b03163314156104ed565b346102e55760203660031901126102e55761058f61379a565b600435601655005b346102e55760403660031901126102e5576001600160a01b036105b8611ed3565b16600052601560205260406000206024356000526020526020604060002054604051908152f35b612574565b346102e55760403660031901126102e55761061a600435610603611ebd565b9061061561061082612627565b613bb0565b613ca3565b005b346102e55760203660031901126102e5576004356001600160401b0381116102e557366023820112156102e55780600401356001600160401b0381116102e5573660248260051b840101116102e5576004546001600160a01b03163314158061074b575b61053b57906000915b8083101561061a576000926024600582901b840101356001600160a01b0381169081900361074757845260156020908152604080862060048054925163900cf0cf60e01b81529793919288919082906001600160a01b03165afa801561073c578290610704575b825260205260408120556001019250610689565b506020863d8211610734575b8161071d60209383611e85565b81010312610730579451939485946106f0565b5080fd5b3d9150610710565b6040513d84823e3d90fd5b8480fd5b50600080516020614676833981519152546001600160a01b0316331415610680565b346102e55760203660031901126102e5576004356001600160401b0381116102e55761079d903690600401612077565b606081015190600f8210156107df576020916101806107d5920151600052601283526040600020906107cf4292612685565b90613d43565b1515604051908152f35b634e487b7160e01b600052602160045260246000fd5b346102e55761080336611fd1565b906000526014602052604060002080548210156102e55760209161082691611fe7565b905460405160039290921b1c6001600160a01b03168152f35b346102e55760003660031901126102e557610858612648565b5061010060405161086881611e32565b60018060a01b03600354169081815260018060a01b03600454166020820190815260018060a01b03600554166040830190815260018060a01b03600654166060840190815260018060a01b0360075416906080850191825260018060a01b03600854169260a0860193845260018060a01b03600954169460c0870195865260e060018060a01b03600a5416970196875260405197885260018060a01b03905116602088015260018060a01b03905116604087015260018060a01b03905116606086015260018060a01b03905116608085015260018060a01b0390511660a084015260018060a01b0390511660c083015260018060a01b0390511660e0820152f35b346102e5576101203660031901126102e5576101003660231901126102e55760405161099481611e32565b60243581526020810160443581526040820160643581526060830160843581526080840160a435815260a085019060c435825260c086019260e435845260e087019461010435865260018060a01b0360035416330361053b57600796600435600052601260205260406000209851895551600189015551600288015551600387015551600486015551600585015551600684015551910155600080f35b346102e55760003660031901126102e5576020600154604051908152f35b346102e55760603660031901126102e557600435602435600f8110156102e557610ab460409260443590806000526012602052610a9882610a9287600020612685565b86613d43565b93816000526012602052610aae86600020612685565b91614508565b825191825215156020820152f35b346102e55760203660031901126102e55760043560005260126020526101006040600020805490600181015490600281015460038201546004830154906005840154926007600686015495015495604051978852602088015260408701526060860152608085015260a084015260c083015260e0820152f35b346102e55760203660031901126102e557610b54611ed3565b6004546001600160a01b0316903382141580610bfc575b61053b5760018060a01b03166000526015602052600460206040600020926040519283809263900cf0cf60e01b82525afa908115610bf057600091610bbe575b5060005260205260006040812055600080f35b90506020813d602011610be8575b81610bd960209383611e85565b810103126102e5575182610bab565b3d9150610bcc565b6040513d6000823e3d90fd5b50600080516020614676833981519152546001600160a01b0316331415610b6b565b346102e55760003660031901126102e557602060405160008152f35b346102e55760803660031901126102e557610c53611ed3565b610c5b611ebd565b6064356001600160401b0381116102e557610c7a903690600401612077565b6005546001600160a01b031633141580610ccf575b80610cba575b61053b5761053792610caa9260443591613366565b916040959395519586958661247f565b506009546001600160a01b0316331415610c95565b506003546001600160a01b0316331415610c8f565b346102e55760003660031901126102e557610d00601154612b96565b601155005b346102e557610d13366124c5565b9596610d2395919594929461379a565b6040516001600160a01b03978816989688169795861696948616959384169492841693928316929190911690889060e090610d5d81611e32565b8381526020810185905260408101869052606081018790526080810188905260a0810189905260c081018a90520152600380546001600160a01b03199081169092179055600480548216909217909155600580548216909217909155600680548216909217909155600780548216909217909155600880548216909217909155600980548216909217909155600a8054909116919091179055005b346102e55760003660031901126102e557600b54600c54600d54600e54600f54601054604080519687526020870195909552938501929092526060840152608083015260a082015260c090f35b346102e55760403660031901126102e557610e5e611ebd565b60043560005260008051602061469683398151915260205260406000209060018060a01b0316600052602052602060ff604060002054166040519015158152f35b346102e55760003660031901126102e557600080516020614676833981519152546040516001600160a01b039091168152602090f35b346102e557610ee3366124c5565b959692919390946000805160206146b6833981519152549760ff8960401c1615986001600160401b038116801590816110d6575b60011490816110cc575b1590816110c3575b506110b25767ffffffffffffffff1981166001176000805160206146b68339815191525589611085575b50610f5c614647565b610f64614647565b331561106f57610f733361449a565b610f7b614647565b610f83614647565b600480546001600160a01b03199081166001600160a01b03938416179091556005805482169383169390931790925560068054831693821693909317909255600780548216938316939093179092556003805483169382169390931783556008805483169482169490941790935560098054821694841694909417909355600a80549093169390911692909217905560165561101b57005b60ff60401b196000805160206146b683398151915254166000805160206146b6833981519152557fc7f505b2f371ae2175ee4913f4499e1f2633a7b5936321eed1cdaeb6115181d2602060405160018152a1005b631e4fbdf760e01b600052600060045260246000fd5b68ffffffffffffffffff191668010000000000000001176000805160206146b68339815191525589610f53565b63f92ee8a960e01b60005260046000fd5b9050158b610f29565b303b159150610f21565b8b9150610f17565b346102e55760203660031901126102e5576110f761379a565b600435600255005b346102e55760003660031901126102e5576020601654604051908152f35b346102e55760003660031901126102e55760206040516127108152f35b346102e55760003660031901126102e5576000805160206146d683398151915254336001600160a01b03909116036111755761061a3361449a565b63118cdaa760e01b6000523360045260246000fd5b346102e55760603660031901126102e557600435600f8110156102e5576111c860209160243560005260128352604435906107cf6040600020612685565b604051908152f35b346102e55760003660031901126102e5576111e961379a565b6000805160206146d683398151915280546001600160a01b0319908116909155600080516020614676833981519152805491821690556000906001600160a01b03167f8be0079c531659141344cd1fd0a4f28419497f9722a3daafe3b4186f6b6457e08280a3005b346102e55760603660031901126102e55761126a611ed3565b611272611ebd565b906044356001600160401b0381116102e557611292903690600401612077565b6005546001600160a01b0316331415806112d3575b806112be575b61053b5761053792610caa92612ffa565b506009546001600160a01b03163314156112ad565b506003546001600160a01b03163314156112a7565b346102e55760203660031901126102e55760043560005260146020526105376113146040600020612590565b604051918291602083526020830190611f62565b346102e55760003660031901126102e557600354600454600554600654600754600854600954600a54604080516001600160a01b03998a16815297891660208901529588169587019590955292861660608601529085166080850152841660a0840152831660c083015290911660e082015261010090f35b346102e55760003660031901126102e5576020604051600a8152f35b346102e55760403660031901126102e5576004356001600160401b0381116102e5576113ec903690600401612077565b6024356001600160401b0381116102e55761140b9036906004016122e4565b6005546001600160a01b0316331415806114bf575b806114aa575b61053b5761143391612c0a565b919060405194859460a0860191151586521515602086015260a060408601528251809152602060c0860193019060005b818110611491575050508161148391856105379594036060870152611f62565b90838203608085015261244b565b8251855287965060209485019490920191600101611463565b506009546001600160a01b0316331415611426565b506003546001600160a01b0316331415611420565b346102e5576114e236611fd1565b906000526013602052604060002080548210156102e55760209161082691611fe7565b346102e55760003660031901126102e5576020600254604051908152f35b346102e55761153136611f9f565b600a549091906001600160a01b0316330361053b5760005260136020526040600020908051906001600160401b0382116115dd57600160401b82116115dd5782548284558083106115b4575b506020019160005260206000209160005b82811061159757005b81516001600160a01b03168185015560209091019060010161158e565b8360005282602060002091820191015b8181106115d1575061157d565b600081556001016115c4565b634e487b7160e01b600052604160045260246000fd5b346102e55760403660031901126102e55760043561160f611ebd565b600a546001600160a01b0316330361053b578160005260136020526116408161163b6040600020612590565b61390c565b1561164757005b61061a91600052601360205260406000206125e6565b346102e55760603660031901126102e55760243560088110156102e5576044359060018060a01b036005541633141580611757575b80611742575b61053b576004356000526012602052604060002090600081156000146116bd57505055005b50600181036116cd575060010155005b6000600282036116df57505060020155005b50600381036116ef575060030155005b60006004820361170157505060040155005b5060058103611711575060050155005b60006006820361172357505060060155005b506007036117315760070155005b63099d113d60e01b60005260046000fd5b506009546001600160a01b0316331415611698565b506003546001600160a01b0316331415611692565b346102e55760c03660031901126102e5577f7f4afd87a8ce3ba7e10b987d3217f6e0116254068e7bdb42abfa2bf1024f882060243560043561182e60a4356084356064356044356117bb61379a565b8360a06040516117ca81611e17565b888152896020820152836040820152846060820152856080820152015285600b5586600c5580600d5581600e5582600f5583601055604051968796879260a094919796959260c0850198855260208501526040840152606083015260808201520152565b0390a1005b346102e55760003660031901126102e5576020600054604051908152f35b346102e557604061186a61186436611fd1565b90612a22565b82516001600160a01b03909216825215156020820152f35b346102e55760403660031901126102e557602435600f8110156102e5576107d5602091600435600052601283526118c56118bf6040600020612685565b916126df565b904291613d43565b346102e55760203660031901126102e5576004356118e961379a565b60018110801561190d575b6118fd57600155005b62de051d60e61b60005260046000fd5b5061271081116118f4565b346102e55761192636611f9f565b600a549091906001600160a01b0316330361053b5760005260146020526040600020908051906001600160401b0382116115dd57600160401b82116115dd5782548284558083106119a9575b506020019160005260206000209160005b82811061198c57005b81516001600160a01b031681850155602090910190600101611983565b8360005282602060002091820191015b8181106119c65750611972565b600081556001016119b9565b346102e55760203660031901126102e55760043560005260136020526105376113146040600020612590565b346102e55760403660031901126102e557611a17611ebd565b336001600160a01b03821603611a335761061a90600435613ca3565b63334bd91960e11b60005260046000fd5b346102e55760403660031901126102e55761061a600435611a63611ebd565b90611a7061061082612627565b613bfa565b346102e55760203660031901126102e557611a8e612648565b506004356000526012602052610100611aaa6040600020612685565b60e060405191805183526020810151602084015260408101516040840152606081015160608401526080810151608084015260a081015160a084015260c081015160c0840152015160e0820152f35b346102e557611b0736611f9f565b600a546001600160a01b0316330361053b5761061a91613961565b346102e55760203660031901126102e55760206111c8600435612627565b346102e55760403660031901126102e557600435611b5c611ebd565b600a546001600160a01b0316330361053b57816000526014602052611b888161163b6040600020612590565b15611b8f57005b61061a91600052601460205260406000206125e6565b346102e55760e03660031901126102e5576064358015158091036102e55760a4356001600160401b0381116102e557611c4691611be86000923690600401611efd565b9060018060a01b0360045416906040518095819482936382df24a160e01b84526004356004850152602435602485015260c43560448501526084356064850152604435608485015260a484015260e060c484015260e4830190611f62565b03915afa9060008281928294611ccb575b50611c9b573d15611c96573d611c6c81612015565b90611c7a6040519283611e85565b8152600060203d92013e5b631f90236d60e01b60005260046000fd5b611c85565b610537909192611cbd6040519485948552606060208601526060850190611f62565b908382036040850152611f62565b91925092503d8083833e611cdf8183611e85565b8101606082820312611d3b5781519260208301516001600160401b0381116107305782611d0d918501612ba5565b926040810151916001600160401b038311611d385750611d2e929101612ba5565b9190919284611c57565b80fd5b8280fd5b346102e55760003660031901126102e5576020601154604051908152f35b346102e55760003660031901126102e557602060405160648152f35b346102e55760203660031901126102e557600435611d9561379a565b600181108015611dba575b611da957600055005b63a2fc7bbd60e01b60005260046000fd5b50600a8111611da0565b346102e55760203660031901126102e5576004359063ffffffff60e01b82168092036102e557602091637965db0b60e01b8114908115611e06575b5015158152f35b6301ffc9a760e01b14905083611dff565b60c081019081106001600160401b038211176115dd57604052565b61010081019081106001600160401b038211176115dd57604052565b6102a081019081106001600160401b038211176115dd57604052565b606081019081106001600160401b038211176115dd57604052565b90601f801991011681019081106001600160401b038211176115dd57604052565b6001600160401b0381116115dd5760051b60200190565b602435906001600160a01b03821682036102e557565b600435906001600160a01b03821682036102e557565b35906001600160a01b03821682036102e557565b9080601f830112156102e5578135611f1481611ea6565b92611f226040519485611e85565b81845260208085019260051b8201019283116102e557602001905b828210611f4a5750505090565b60208091611f5784611ee9565b815201910190611f3d565b906020808351928381520192019060005b818110611f805750505090565b82516001600160a01b0316845260209384019390920191600101611f73565b9060406003198301126102e55760043591602435906001600160401b0382116102e557611fce91600401611efd565b90565b60409060031901126102e5576004359060243590565b8054821015611fff5760005260206000200190600090565b634e487b7160e01b600052603260045260246000fd5b6001600160401b0381116115dd57601f01601f191660200190565b81601f820112156102e55780359061204782612015565b926120556040519485611e85565b828452602083830101116102e557816000926020809301838601378301015290565b9190916102a0818403126102e5576040519061209282611e4e565b8193813560068110156102e5578352602082013560058110156102e55760208401526040820135600f8110156102e55760408401526060820135600f8110156102e55760608401526120e660808301611ee9565b60808401526120f760a08301611ee9565b60a084015261210860c08301611ee9565b60c084015261211960e08301611ee9565b60e08401526101008201356101008401526101208201356101208401526101408201356101408401526101608201356101608401526101808201356101808401526101a08201356101a08401526101c08201356101c08401526101e08201356101e08401526102008201356001600160401b0381116102e5578161219e918401612030565b6102008401526102208201356001600160401b0381116102e557816121c4918401612030565b6102208401526102408201356001600160401b0381116102e557820181601f820112156102e5578035906121f782611ea6565b926122056040519485611e85565b828452602060608186019402830101918183116102e557602001925b82841061224b57505050506102809182916102408501526102608101356102608501520135910152565b6060848303126102e557602060609160405161226681611e6a565b86358152828701358382015260408701356040820152815201930192612221565b9080601f830112156102e557813561229e81611ea6565b926122ac6040519485611e85565b81845260208085019260051b8201019283116102e557602001905b8282106122d45750505090565b81358152602091820191016122c7565b9190610160838203126102e5576040519061016082018281106001600160401b038211176115dd576040528193803583526020810135602084015260408101356040840152606081013560608401526080810135608084015260a081013560a084015260c081013560068110156102e55760c084015260e08101356001600160401b0381116102e55782612379918301611efd565b60e08401526101008101356001600160401b0381116102e557810182601f820112156102e55780356123aa81611ea6565b916123b86040519384611e85565b81835260208084019260051b820101908582116102e557602001915b818310612432575050506101008401526101208101356001600160401b0381116102e55782612404918301612287565b610120840152610140810135916001600160401b0383116102e5576101409261242d9201612287565b910152565b823560058110156102e5578152602092830192016123d4565b906020808351928381520192019060005b8181106124695750505090565b825184526020938401939092019160010161245c565b901515815290151560208201526001600160a01b03909116604082015260a060608201819052611fce9391926124b79184019061244b565b91608081840391015261244b565b6101009060031901126102e5576004356001600160a01b03811681036102e557906024356001600160a01b03811681036102e557906044356001600160a01b03811681036102e557906064356001600160a01b03811681036102e557906084356001600160a01b03811681036102e5579060a4356001600160a01b03811681036102e5579060c4356001600160a01b03811681036102e5579060e4356001600160a01b03811681036102e55790565b346102e55760003660031901126102e557602060405160018152f35b906040519182815491828252602082019060005260206000209260005b8181106125c45750506125c292500383611e85565b565b84546001600160a01b03168352600194850194879450602090930192016125ad565b8054600160401b8110156115dd5761260391600182018155611fe7565b81546001600160a01b0393841660039290921b91821b9390911b1916919091179055565b60005260008051602061469683398151915260205260016040600020015490565b6040519061265582611e32565b600060e0838281528260208201528260408201528260608201528260808201528260a08201528260c08201520152565b9060405161269281611e32565b60e0600782948054845260018101546020850152600281015460408501526003810154606085015260048101546080850152600581015460a0850152600681015460c08501520154910152565b60ff16600f8110156107df5790565b51906001600160a01b03821682036102e557565b81601f820112156102e55780519061271982612015565b926127276040519485611e85565b828452602083830101116102e55760005b82811061274d57505060206000918301015290565b80602080928401015182828701015201612738565b6020818303126102e5578051906001600160401b0382116102e557016102a0818303126102e5576040519161279683611e4e565b815160068110156102e5578352602082015160058110156102e55760208401526040820151600f8110156102e55760408401526060820151600f8110156102e55760608401526127e8608083016126ee565b60808401526127f960a083016126ee565b60a084015261280a60c083016126ee565b60c084015261281b60e083016126ee565b60e08401526101008201516101008401526101208201516101208401526101408201516101408401526101608201516101608401526101808201516101808401526101a08201516101a08401526101c08201516101c08401526101e08201516101e08401526102008201516001600160401b0381116102e557816128a0918401612702565b6102008401526102208201516001600160401b0381116102e557816128c6918401612702565b6102208401526102408201516001600160401b0381116102e557820181601f820112156102e5578051906128f982611ea6565b926129076040519485611e85565b828452602060608186019402830101918183116102e557602001925b82841061295057505050509061028091610240840152610260810151610260840152015161028082015290565b6060848303126102e557602060609160405161296b81611e6a565b86518152828701518382015260408701516040820152815201930192612923565b9190820391821161299957565b634e487b7160e01b600052601160045260246000fd5b81156129b9570490565b634e487b7160e01b600052601260045260246000fd5b906129d982611ea6565b6129e66040519182611e85565b82815280926129f7601f1991611ea6565b0190602036910137565b805115611fff5760200190565b8051821015611fff5760209160051b010190565b60055460405163255709e560e11b8152600481018390529290600090849060249082906001600160a01b03165afa928315610bf057600093612b73575b50606083015191600f8310156107df57600160009303612b695782526012602052612a8c60408320612685565b6020810151839281811180612b5e575b612b3d575b50508115612b2757836101a0612ad8949501519261016060405192612ac7602085611e85565b8784528736813701519251936137bb565b508092915051151580612b0c575b15612b0657506001600160a01b0390612afe90612a01565b511690600190565b91829150565b506001600160a01b03612b1e83612a01565b51161515612ae6565b50505060e001516001600160a01b031690600190565b612b5692935090612b4d9161298c565b600b54906129af565b903880612aa1565b50600b541515612a9c565b5050809291509190565b612b8f91933d8091833e612b878183611e85565b810190612762565b9138612a5f565b60001981146129995760010190565b9080601f830112156102e5578151612bbc81611ea6565b92612bca6040519485611e85565b81845260208085019260051b8201019283116102e557602001905b828210612bf25750505090565b60208091612bff846126ee565b815201910190612be5565b919091612c1681613f40565b94919450936080518581612fe357508115612fcd57610180840180516000526013602052612c476040600020612590565b9481516000526014602052612c69612c626040600020612590565b878761432d565b94908515612f7057908291866101606101a0612c9b9601519401519286516000526012602052604060002054946138b1565b93915093845115612f2c57600096612cb46000926129cf565b9960005b60e089015151811015612d17578b612cd5826101208c0151612a0e565b5115612ce5575b50600101612cb8565b99612cfb81612cf5849391612b96565b9c612a0e565b5260208901518114612d0e575b8b612cdc565b60019350612d08565b5092965092965093979296886000612d5282958051612d646040519586948594635d881d2b60e01b8652606060048701526064860190611f62565b84810360031901602486015290611f62565b906044830152038173__$8b0f212190ad0b350ebeb1d3aa845a5dc8$__5af4908115610bf057600091612eec575b508751600052601360205260406000208151916001600160401b0383116115dd57600160401b83116115dd578154838355808410612ec3575b5060200190600052602060002060005b838110612ea65750505050865160005260176020526040600020612dff8154612b96565b90558415612e8d5786516000526012602052426002604060002001555b60005b8951811015612e705760019088517f05d4ea8b0851203bbd7b49c409c1b565a5c70bdb7687d75362631015a1aed5eb60208d612e6185878060a01b0392612a0e565b5116604051908152a201612e1f565b5092959194975092958051612e83575050565b6125c29151613961565b8651600052601260205242600360406000200155612e1c565b82516001600160a01b031681830155602090920191600101612ddb565b8260005283602060002091820191015b818110612ee05750612dcb565b60008155600101612ed3565b903d8082843e612efc8184611e85565b820191602081840312610730578051916001600160401b038311611d385750612f26929101612ba5565b38612d92565b5050505050505090602060405191612f448284611e85565b60008352600036813760405191612f5b8184611e85565b60008352506000368137600193600093929190565b50505050505050509050602060405190612f8a8183611e85565b60008252600036813760405190612fa18183611e85565b60008252600036813760405190612fb88183611e85565b60008252506000368137600093600093929190565b505050509050602060405190612f8a8183611e85565b94955050505050602060405191612f448284611e85565b90919260009061300985613f40565b608051959190808288613351575050831561330a576101808901948551600052601360205261303b6040600020612590565b966000968851600019810190811161299957613059909b979b6129cf565b996001600160a01b039097169660005b8a518110156130cb578b896001600160a01b03613086848f612a0e565b511603613097575b50600101613069565b99906001916130c28d6130b084868060a01b0392612a0e565b5116916130bc81612b96565b9d612a0e565b5290508b61308e565b509499929750949990959297506101a08b01519a61016001519a8551600052601260205260406000205492600160a01b6001900360045416936040519d8e9485946382df24a160e01b86526004860152602485015260448401526064830152608482016001905260a482016001905260c4820160e0905260e4820161314f91611f62565b03815a93600094fa600081819b8293613299575b50613178573d15611c96573d611c6c81612015565b999099815115613288576001600160a01b03916131959190612a0e565b5116976001600160a01b03168015159089908261327d575b5050156131c557631a0a9b9f60e21b60005260046000fd5b87158015613274575b156131fa5750506001965b80516131e9575b50509493929190565b6131f39151613961565b38806131e0565b9250966001928251600052601760205260406000206132198154612b96565b905587835191827ffd22c5780766b45945b6488e54f81cbb215c37784ec7c0d9fbb59781a673158f600080a4600052601360205261325b8760406000206125e6565b81516000526012602052426002604060002001556131d9565b508088146131ce565b1415905088386131ad565b639b7fa1e560e01b60005260046000fd5b919b5091503d808c833e6132ad8183611e85565b81016060828203126133065781519b60208301516001600160401b03811161073057826132db918501612ba5565b926040810151916001600160401b038311611d3857506132fc929101612ba5565b9a909a9138613163565b8b80fd5b5050505093505050506020906040516133238382611e85565b6000815260003681376040519261333a8185611e85565b600084525060003681376000926000926000929190565b60009a50600199508a98509650949350505050565b9293919091600061337686613f40565b608051919690958688846134ec57505083156134d2576133cc9060209a8b95604051906133a38883611e85565b6000825260003681376012610180610160850151940198895160005252604060002054936137bb565b9a9150805115613288576001600160a01b03906133e890612a01565b5116986001600160a01b0316801515908a90826134c7575b50501561341857631a0a9b9f60e21b60005260046000fd5b881580156134b5575b1561343b5750505060019680516131e95750509493929190565b91986001945091904260001981019081116129995789926017918651600052601282528760406000200155855160005252604060002061347b8154612b96565b905583516001600160a01b03909116907f6ef20ee2db9e120181071f16e43ff37a402ad3c952d6fb1f8654809e530dbddc600080a46131d9565b506001600160a01b0382168914613421565b141590508938613400565b505050505093505050506020906040516133238382611e85565b60009b5060019a508b9950975095945050505050565b91909160009361351184613f40565b5060805195909390848761378857508215613771576101808101928351600052601360205261356660406000208551600052601460205261355f613559604060002092612590565b91612590565b908961432d565b801561374257908392916101606101a06135969601519401519287516000526012602052604060002054946138b1565b9791509586511561328857604051631169b04f60e21b815260406004820152602081806135c6604482018c611f62565b6001600160a01b039097166024820181905296038173__$8b0f212190ad0b350ebeb1d3aa845a5dc8$__5af4908115610bf057600091613710575b506001600160a01b03906136159089612a0e565b51169683881461363057631a0a9b9f60e21b60005260046000fd5b8761364757505050506001945b8051612e83575050565b909197929850600198899285516000526017602052604060002061366b8154612b96565b905585517f05d4ea8b0851203bbd7b49c409c1b565a5c70bdb7687d75362631015a1aed5eb60206040518c8152a2855160005260136020526136b18960406000206125e6565b60e08101516020909101516001600160a01b03916136cf9190612a0e565b5116036136f1575050815160005260126020524260026040600020015561363d565b510361363d57815160005260126020524260036040600020015561363d565b90506020813d60201161373a575b8161372b60209383611e85565b810103126102e5575138613601565b3d915061371e565b50505050505093505050506040519061375c602083611e85565b60008252600036813760009160009160009190565b50505093505050506040519061375c602083611e85565b60009850600197508896509450505050565b600080516020614676833981519152546001600160a01b0316330361117557565b90600093929195949561381960018060a01b036004541693604051988996879586956382df24a160e01b87526004870152602486015260448501526064840152600160848401528660a484015260e060c484015260e4830190611f62565b03915afa9060008281948294613844575b5061383f573d15611c96573d611c6c81612015565b929190565b91945092503d8085833e6138588183611e85565b81016060828203126107475781519460208301516001600160401b0381116107305782613886918501612ba5565b926040810151916001600160401b038311611d3857506138a7929101612ba5565b939093923861382a565b6138196000959497969760018060a01b036004541694604051998a97889687966382df24a160e01b885260048801526024870152604486015260648501526084840152600160a484015260e060c484015260e4830190611f62565b9060005b825181101561394c576001600160a01b0361392b8285612a0e565b51166001600160a01b0383161461394457600101613910565b505050600190565b505050600090565b9190820180921161299957565b600854600093919291906001600160a01b0316803b15610747578460405180926336dcda8560e01b8252604060048301528183816139a2604482018a611f62565b8a602483015203925af18015613b8e57613b99575b506004805460405163900cf0cf60e01b815293929160209185919082906001600160a01b03165afa928315613b8e578593613b5a575b506139f882516129cf565b928591865b8451811015613a79576001906001600160a01b03613a1b8288612a0e565b51168952601560205260408920848a5260205260408920613a3c8154612b96565b80915560165414613a4e575b016139fd565b818060a01b03613a5e8288612a0e565b5116613a73613a6c87612b96565b9689612a0e565b52613a48565b509592939091613ac5575b505050613ac07f012b0c73d56588c456eb8716e637bd23551528c006cf91f70c8f2c9477cb775791604051918291602083526020830190611f62565b0390a2565b60018060a01b03600454166001830191828411613b4657813b1561074757604051631731cd2b60e21b815260606004820152938593859392849286928492613b11906064850190611f62565b916024840152604483015203925af1801561073c57613b31575b80613a84565b613b3c828092611e85565b611d385780613b2b565b634e487b7160e01b85526011600452602485fd5b9092506020813d602011613b86575b81613b7660209383611e85565b810103126102e5575191386139ed565b3d9150613b69565b6040513d87823e3d90fd5b93613ba8816004949396611e85565b9390916139b7565b60008181526000805160206146968339815191526020908152604080832033845290915290205460ff1615613be25750565b63e2517d3f60e01b6000523360045260245260446000fd5b6000818152600080516020614696833981519152602090815260408083206001600160a01b038616845290915290205460ff16613c9c576000818152600080516020614696833981519152602090815260408083206001600160a01b0395909516808452949091528120805460ff19166001179055339291907f2f8788117e7eff1d82e926ec794901d17c78024a50270940304540a733656f0d9080a4600190565b5050600090565b6000818152600080516020614696833981519152602090815260408083206001600160a01b038616845290915290205460ff1615613c9c576000818152600080516020614696833981519152602090815260408083206001600160a01b0395909516808452949091528120805460ff19169055339291907ff6391f5c32d9c69d2a47ea670b442974b53935d1edc7fd64eb21e047a839171b9080a4600190565b600f8110156107df576001811480613f33575b80613f28575b15613d745750611fce916020612b4d9201519061298c565b60006002821480613f1b575b80613f10575b15613da8575050611fce916040613d9f9201519061298c565b600c54906129af565b506003811480613f03575b80613ef8575b15613dda5750611fce916060613dd19201519061298c565b600d54906129af565b6000600a821480613eeb575b80613ee0575b15613e05575050611fce9160c0613dd19201519061298c565b50600e811480613ed3575b80613ec8575b15613e375750611fce916080613e2e9201519061298c565b601054906129af565b60006004821480613ebb575b80613eb0575b15613e6b575050611fce9160e0613e629201519061298c565b600e54906129af565b5060091480613ea3575b80613e98575b613e86575050600090565b611fce916080613e629201519061298c565b50600e541515613e7b565b5060808101518211613e75565b50600e541515613e49565b5060e08301518411613e43565b506010541515613e16565b5060808201518311613e10565b50600d541515613dec565b5060c08301518411613de6565b50600d541515613db9565b5060608201518311613db3565b50600c541515613d86565b5060408301518411613d80565b50600b541515613d5c565b5060208201518311613d56565b9060006080526000608052606090819061018084019384516000526012602052613f6d6040600020612685565b90848101805192600f8410156107df57613f93613f8b6000956126df565b824291613d43565b9788613fa1575b5050505050565b51915191600f8310156143195790613fc49291613fbe42936126df565b90614508565b613fd1575b808080613f9a565b600160805260c00151600754604051631fd08e0b60e21b81526001600160a01b03928316600482018190529496955091169291602082602481875afa91821561430c5781926142d8575b50604051633f008c4560e01b815260048101849052602081602481885afa801561073c57839083906142a2575b614052925061298c565b9160408311614299575b91614066816129cf565b94614070826129cf565b60055493978896919587956001600160a01b03169290865b868110614109575b505050505050506140a0856129cf565b946140aa846129cf565b94825b8281106140ea575050505b8281106140cb5750505090913880613fc9565b6140d58183612a0e565b516140e08286612a0e565b52608051016140b8565b6140f48183612a0e565b516140ff828a612a0e565b52608051016140ad565b6141138183613954565b604051906351b1c54760e11b825284600483015260248201526020816044818a5afa90811561428e578991614259575b5060405163255709e560e11b81526004810182905289816024818a5afa90811561424e578a91614234575b50610260810151801515908161422a575b5080614213575b6141f957818a5260126020528561419f60408c20612685565b91015190600f8210156141e5578e916141ba91429185614508565b156141de576141cc6141d3919e612b96565b9d8d612a0e565b525b60805101614088565b5050614090565b634e487b7160e01b8b52602160045260248bfd5b5061420d6142068c612b96565b9b8b612a0e565b526141d5565b5085810151600f8110156141e55760805114614186565b905042113861417f565b61424891503d808c833e612b878183611e85565b3861416e565b6040513d8c823e3d90fd5b90506020813d8211614286575b8161427360209383611e85565b81010312614282575138614143565b8880fd5b3d9150614266565b6040513d8b823e3d90fd5b6040925061405c565b50506020813d6020116142d0575b816142bd60209383611e85565b8101031261073057826140529151614048565b3d91506142b0565b9091506020813d602011614304575b816142f460209383611e85565b810103126107305751903861401b565b3d91506142e7565b50604051903d90823e3d90fd5b634e487b7160e01b85526021600452602485fd5b9291909260e0825191019081515111156144795761435761435282515184519061298c565b6129cf565b9160009060005b835180518210156143c5576001919061438d906001600160a01b0390614385908490612a0e565b51168461390c565b15614399575b0161435e565b818060a01b036143aa828751612a0e565b51166143bf6143b886612b96565b9588612a0e565b52614393565b50506143dd915094919294855193515190519061298c565b820361446857805182811061446257614352836143f99261298c565b9160009060005b8351811015614459576001906144296001600160a01b036144218388612a0e565b51168961390c565b15614435575b01614400565b818060a01b036144458287612a0e565b51166144536143b886612b96565b5261442f565b50939294505050565b50925090565b6365f8c5e760e11b60005260046000fd5b5050905060405161448b602082611e85565b60008152600036813790600090565b6000805160206146d683398151915280546001600160a01b031990811690915560008051602061467683398151915280549182166001600160a01b0393841690811790915591167f8be0079c531659141344cd1fd0a4f28419497f9722a3daafe3b4186f6b6457e0600080a3565b909160025492831561458b57600090600f811015614633576001810361459d5750506020015191600b54915b82158015614595575b61458b57600052601760205260406000205460009181811160001461458457614566925061298c565b8181029181830414901517156129995761457f91613954565b111590565b5050614566565b5050505050600090565b50831561453d565b600281036145b55750506040015191600c5491614534565b600381036145cd5750506060015191600d5491614534565b600a81036145e557505060c0015191600d5491614534565b600e81036145fd575050608001519160105491614534565b6004810361461557505060e0015191600e5491614534565b60090361462b57506080015191600e5491614534565b935050505090565b634e487b7160e01b82526021600452602482fd5b60ff6000805160206146b68339815191525460401c161561466457565b631afcd79f60e31b60005260046000fdfe9016d09d72d40fdae2fd8ceac6b6234c7706214fd39c1cd1e609a0528c19930002dd7bc7dec4dceedda775e58dd541e08a116c6c53815c0bd028192f7b626800f0c57e16840df040f15088dc2f81fe391c3923bec73e23a9662efc9c229c6a00237e158222e3e6968b72b9db0d8043aacf074ad9f650f0d1606b4d82ee432c00a2646970667358221220fe36d6d0f8e54349aa6c2c2259e2faf73fbe94ad64578cb1a1dab57c405eed5564736f6c634300081c0033",
  "linkReferences": {
    "contracts/utils/ArrayUtils.sol": {
      "ArrayUtils": [
        {
          "length": 20,
          "start": 11657
        },
        {
          "length": 20,
          "start": 13816
        }
      ]
    }
  },
  "deployedLinkReferences": {
    "contracts/utils/ArrayUtils.sol": {
      "ArrayUtils": [
        {
          "length": 20,
          "start": 11630
        },
        {
          "length": 20,
          "start": 13789
        }
      ]
    }
  }
}