{
  "_format": "hh-sol-artifact-1",
  "contractName": "FeesRecorder",
  "sourceName": "contracts/fees/FeesRecorder.sol",
  "abi": [
    {
      "inputs": [],
      "name": "AccessControlBadConfirmation",
      "type": "error"
    },
    {
      "inputs": [
        {
          "internalType": "address",
          "name": "account",
          "type": "address"
        },
        {
          "internalType": "bytes32",
          "name": "neededRole",
          "type": "bytes32"
        }
      ],
      "name": "AccessControlUnauthorizedAccount",
      "type": "error"
    },
    {
      "inputs": [],
      "name": "AppealRoundAlreadyExists",
      "type": "error"
    },
    {
      "inputs": [],
      "name": "InvalidInitialization",
      "type": "error"
    },
    {
      "inputs": [],
      "name": "NotInitializing",
      "type": "error"
    },
    {
      "inputs": [],
      "name": "OnlyFeeManager",
      "type": "error"
    },
    {
      "inputs": [
        {
          "internalType": "address",
          "name": "owner",
          "type": "address"
        }
      ],
      "name": "OwnableInvalidOwner",
      "type": "error"
    },
    {
      "inputs": [
        {
          "internalType": "address",
          "name": "account",
          "type": "address"
        }
      ],
      "name": "OwnableUnauthorizedAccount",
      "type": "error"
    },
    {
      "inputs": [],
      "name": "ReentrancyGuardReentrantCall",
      "type": "error"
    },
    {
      "anonymous": false,
      "inputs": [
        {
          "indexed": false,
          "internalType": "uint64",
          "name": "version",
          "type": "uint64"
        }
      ],
      "name": "Initialized",
      "type": "event"
    },
    {
      "anonymous": false,
      "inputs": [
        {
          "indexed": true,
          "internalType": "address",
          "name": "previousOwner",
          "type": "address"
        },
        {
          "indexed": true,
          "internalType": "address",
          "name": "newOwner",
          "type": "address"
        }
      ],
      "name": "OwnershipTransferStarted",
      "type": "event"
    },
    {
      "anonymous": false,
      "inputs": [
        {
          "indexed": true,
          "internalType": "address",
          "name": "previousOwner",
          "type": "address"
        },
        {
          "indexed": true,
          "internalType": "address",
          "name": "newOwner",
          "type": "address"
        }
      ],
      "name": "OwnershipTransferred",
      "type": "event"
    },
    {
      "anonymous": false,
      "inputs": [
        {
          "indexed": true,
          "internalType": "bytes32",
          "name": "role",
          "type": "bytes32"
        },
        {
          "indexed": true,
          "internalType": "bytes32",
          "name": "previousAdminRole",
          "type": "bytes32"
        },
        {
          "indexed": true,
          "internalType": "bytes32",
          "name": "newAdminRole",
          "type": "bytes32"
        }
      ],
      "name": "RoleAdminChanged",
      "type": "event"
    },
    {
      "anonymous": false,
      "inputs": [
        {
          "indexed": true,
          "internalType": "bytes32",
          "name": "role",
          "type": "bytes32"
        },
        {
          "indexed": true,
          "internalType": "address",
          "name": "account",
          "type": "address"
        },
        {
          "indexed": true,
          "internalType": "address",
          "name": "sender",
          "type": "address"
        }
      ],
      "name": "RoleGranted",
      "type": "event"
    },
    {
      "anonymous": false,
      "inputs": [
        {
          "indexed": true,
          "internalType": "bytes32",
          "name": "role",
          "type": "bytes32"
        },
        {
          "indexed": true,
          "internalType": "address",
          "name": "account",
          "type": "address"
        },
        {
          "indexed": true,
          "internalType": "address",
          "name": "sender",
          "type": "address"
        }
      ],
      "name": "RoleRevoked",
      "type": "event"
    },
    {
      "inputs": [],
      "name": "DEFAULT_ADMIN_ROLE",
      "outputs": [
        {
          "internalType": "bytes32",
          "name": "",
          "type": "bytes32"
        }
      ],
      "stateMutability": "view",
      "type": "function"
    },
    {
      "inputs": [],
      "name": "acceptOwnership",
      "outputs": [],
      "stateMutability": "nonpayable",
      "type": "function"
    },
    {
      "inputs": [
        {
          "internalType": "bytes32",
          "name": "_txId",
          "type": "bytes32"
        },
        {
          "internalType": "uint256",
          "name": "_round",
          "type": "uint256"
        },
        {
          "internalType": "uint256",
          "name": "_appealBond",
          "type": "uint256"
        },
        {
          "internalType": "address",
          "name": "_appealer",
          "type": "address"
        }
      ],
      "name": "addAppealRound",
      "outputs": [],
      "stateMutability": "nonpayable",
      "type": "function"
    },
    {
      "inputs": [
        {
          "internalType": "bytes32",
          "name": "txId",
          "type": "bytes32"
        }
      ],
      "name": "currentRoundForTx",
      "outputs": [
        {
          "internalType": "uint256",
          "name": "round",
          "type": "uint256"
        }
      ],
      "stateMutability": "view",
      "type": "function"
    },
    {
      "inputs": [],
      "name": "feeManager",
      "outputs": [
        {
          "internalType": "contract IFeeManager",
          "name": "",
          "type": "address"
        }
      ],
      "stateMutability": "view",
      "type": "function"
    },
    {
      "inputs": [],
      "name": "feeVerifier",
      "outputs": [
        {
          "internalType": "contract IFeesVerifier",
          "name": "",
          "type": "address"
        }
      ],
      "stateMutability": "view",
      "type": "function"
    },
    {
      "inputs": [
        {
          "internalType": "bytes32",
          "name": "role",
          "type": "bytes32"
        }
      ],
      "name": "getRoleAdmin",
      "outputs": [
        {
          "internalType": "bytes32",
          "name": "",
          "type": "bytes32"
        }
      ],
      "stateMutability": "view",
      "type": "function"
    },
    {
      "inputs": [
        {
          "internalType": "bytes32",
          "name": "_txId",
          "type": "bytes32"
        },
        {
          "internalType": "uint256",
          "name": "_round",
          "type": "uint256"
        },
        {
          "internalType": "uint256",
          "name": "_rotation",
          "type": "uint256"
        }
      ],
      "name": "getRotationRoundFees",
      "outputs": [
        {
          "components": [
            {
              "internalType": "enum IFeeManager.RoundTypes",
              "name": "roundType",
              "type": "uint8"
            },
            {
              "internalType": "enum ITransactions.ResultType",
              "name": "result",
              "type": "uint8"
            },
            {
              "internalType": "address",
              "name": "leader",
              "type": "address"
            },
            {
              "internalType": "uint256",
              "name": "leaderIndex",
              "type": "uint256"
            },
            {
              "internalType": "uint256",
              "name": "appealBond",
              "type": "uint256"
            },
            {
              "internalType": "address[]",
              "name": "validators",
              "type": "address[]"
            },
            {
              "internalType": "enum ITransactions.VoteType[]",
              "name": "validatorsVotes",
              "type": "uint8[]"
            }
          ],
          "internalType": "struct IFeeManager.RotationRoundFees",
          "name": "",
          "type": "tuple"
        }
      ],
      "stateMutability": "view",
      "type": "function"
    },
    {
      "inputs": [
        {
          "internalType": "bytes32",
          "name": "role",
          "type": "bytes32"
        },
        {
          "internalType": "address",
          "name": "account",
          "type": "address"
        }
      ],
      "name": "grantRole",
      "outputs": [],
      "stateMutability": "nonpayable",
      "type": "function"
    },
    {
      "inputs": [
        {
          "internalType": "bytes32",
          "name": "role",
          "type": "bytes32"
        },
        {
          "internalType": "address",
          "name": "account",
          "type": "address"
        }
      ],
      "name": "hasRole",
      "outputs": [
        {
          "internalType": "bool",
          "name": "",
          "type": "bool"
        }
      ],
      "stateMutability": "view",
      "type": "function"
    },
    {
      "inputs": [
        {
          "internalType": "address",
          "name": "_feeManager",
          "type": "address"
        },
        {
          "internalType": "address",
          "name": "_feeVerifier",
          "type": "address"
        }
      ],
      "name": "initialize",
      "outputs": [],
      "stateMutability": "nonpayable",
      "type": "function"
    },
    {
      "inputs": [],
      "name": "owner",
      "outputs": [
        {
          "internalType": "address",
          "name": "",
          "type": "address"
        }
      ],
      "stateMutability": "view",
      "type": "function"
    },
    {
      "inputs": [],
      "name": "pendingOwner",
      "outputs": [
        {
          "internalType": "address",
          "name": "",
          "type": "address"
        }
      ],
      "stateMutability": "view",
      "type": "function"
    },
    {
      "inputs": [
        {
          "internalType": "bytes32",
          "name": "_txId",
          "type": "bytes32"
        },
        {
          "internalType": "uint256",
          "name": "_round",
          "type": "uint256"
        },
        {
          "internalType": "address",
          "name": "_leader",
          "type": "address"
        },
        {
          "internalType": "uint256",
          "name": "_leaderIndex",
          "type": "uint256"
        },
        {
          "internalType": "bool",
          "name": "_leaderTimeout",
          "type": "bool"
        }
      ],
      "name": "recordProposedReceipt",
      "outputs": [],
      "stateMutability": "nonpayable",
      "type": "function"
    },
    {
      "inputs": [
        {
          "internalType": "bytes32",
          "name": "_txId",
          "type": "bytes32"
        },
        {
          "internalType": "uint256",
          "name": "_round",
          "type": "uint256"
        },
        {
          "internalType": "address",
          "name": "_validator",
          "type": "address"
        },
        {
          "internalType": "bool",
          "name": "_isLastVote",
          "type": "bool"
        },
        {
          "internalType": "enum ITransactions.VoteType",
          "name": "_voteType",
          "type": "uint8"
        },
        {
          "internalType": "enum ITransactions.ResultType",
          "name": "_result",
          "type": "uint8"
        }
      ],
      "name": "recordRevealedVote",
      "outputs": [],
      "stateMutability": "nonpayable",
      "type": "function"
    },
    {
      "inputs": [],
      "name": "renounceOwnership",
      "outputs": [],
      "stateMutability": "nonpayable",
      "type": "function"
    },
    {
      "inputs": [
        {
          "internalType": "bytes32",
          "name": "role",
          "type": "bytes32"
        },
        {
          "internalType": "address",
          "name": "callerConfirmation",
          "type": "address"
        }
      ],
      "name": "renounceRole",
      "outputs": [],
      "stateMutability": "nonpayable",
      "type": "function"
    },
    {
      "inputs": [
        {
          "internalType": "bytes32",
          "name": "role",
          "type": "bytes32"
        },
        {
          "internalType": "address",
          "name": "account",
          "type": "address"
        }
      ],
      "name": "revokeRole",
      "outputs": [],
      "stateMutability": "nonpayable",
      "type": "function"
    },
    {
      "inputs": [
        {
          "internalType": "bytes32",
          "name": "txId",
          "type": "bytes32"
        },
        {
          "internalType": "uint256",
          "name": "round",
          "type": "uint256"
        },
        {
          "internalType": "uint256",
          "name": "rotation",
          "type": "uint256"
        }
      ],
      "name": "rotationRoundFees",
      "outputs": [
        {
          "internalType": "enum IFeeManager.RoundTypes",
          "name": "roundType",
          "type": "uint8"
        },
        {
          "internalType": "enum ITransactions.ResultType",
          "name": "result",
          "type": "uint8"
        },
        {
          "internalType": "address",
          "name": "leader",
          "type": "address"
        },
        {
          "internalType": "uint256",
          "name": "leaderIndex",
          "type": "uint256"
        },
        {
          "internalType": "uint256",
          "name": "appealBond",
          "type": "uint256"
        }
      ],
      "stateMutability": "view",
      "type": "function"
    },
    {
      "inputs": [
        {
          "internalType": "bytes32",
          "name": "txId",
          "type": "bytes32"
        },
        {
          "internalType": "uint256",
          "name": "round",
          "type": "uint256"
        }
      ],
      "name": "rotationsUsedForTxRound",
      "outputs": [
        {
          "internalType": "uint256",
          "name": "",
          "type": "uint256"
        }
      ],
      "stateMutability": "view",
      "type": "function"
    },
    {
      "inputs": [
        {
          "internalType": "address",
          "name": "_feeManager",
          "type": "address"
        },
        {
          "internalType": "address",
          "name": "_feeVerifier",
          "type": "address"
        }
      ],
      "name": "setFeeManagerAndVerifier",
      "outputs": [],
      "stateMutability": "nonpayable",
      "type": "function"
    },
    {
      "inputs": [
        {
          "internalType": "bytes4",
          "name": "interfaceId",
          "type": "bytes4"
        }
      ],
      "name": "supportsInterface",
      "outputs": [
        {
          "internalType": "bool",
          "name": "",
          "type": "bool"
        }
      ],
      "stateMutability": "view",
      "type": "function"
    },
    {
      "inputs": [
        {
          "internalType": "address",
          "name": "newOwner",
          "type": "address"
        }
      ],
      "name": "transferOwnership",
      "outputs": [],
      "stateMutability": "nonpayable",
      "type": "function"
    }
  ],
  "bytecode": "0x60808060405234601557613788908161001b8239f35b600080fdfe608080604052600436101561001357600080fd5b60003560e01c90816301ffc9a71461211557508063092d7513146119e35780630f547db2146119b1578063248a9ca31461198b5780632f2ff15d1461195a57806336568abe14611914578063470f9b481461188f578063485cc9551461174857806357a0bfc01461153e578063662ded7014611504578063715018a61461148357806373cc6afb1461145757806379ba5097146113a65780638da5cb5b1461137057806391d1485414611316578063a217fddf146112fa578063be1d684e14610f39578063d0fb020314610f10578063d38f5c351461023f578063d547741f14610207578063e30c3978146101d1578063e31950f4146101a85763f2fde38b1461011c57600080fd5b346101a35760203660031901126101a3576101356121a9565b61013d6122df565b60008051602061373383398151915280546001600160a01b0319166001600160a01b039283169081179091556000805160206136d3833981519152549091167f38d16b8cac22d99fc7c124b9cd0de2d3fa1faef420bfe791d8c362d765e22700600080a3005b600080fd5b346101a35760003660031901126101a3576001546040516001600160a01b039091168152602090f35b346101a35760003660031901126101a357600080516020613733833981519152546040516001600160a01b039091168152602090f35b346101a35760403660031901126101a35761023d6004356102266121bf565b9061023861023382612270565b612300565b6123f3565b005b346101a35760803660031901126101a3576024356064356001600160a01b03811690600435908290036101a3576000546001600160a01b03163303610eff57806000526004602052604060002054831115610eee5780600052600460205282604060002055806000526002602052604060002083600052602052604060002081600052600360205260406000206000198501858111610ed857600052602052604060002054600052602052604060002092604051936102fd856121eb565b80549061030d60ff831687612227565b602086019161032260ff8260081c1684612233565b60018060a01b039060101c16604087015260018101546060870152600281015460808701526003810160405190816020825491828152019160005260206000209060005b818110610eb9575050509061038081600494930382612206565b60a088015201604051808260208294549384815201906000526020600020926000905b80601f830110610c30576104b9945491818110610c15575b818110610bf7575b818110610bd9575b818110610bbb575b818110610b9e575b818110610b80575b818110610b62575b818110610b44575b818110610b26575b818110610b08575b818110610aea575b818110610acc575b818110610aae575b818110610a90575b818110610a72575b818110610a54575b818110610a36575b818110610a18575b8181106109fa575b8181106109dc575b8181106109be575b8181106109a0575b818110610982575b818110610964575b818110610946575b818110610928575b81811061090a575b8181106108ec575b8181106108ce575b8181106108b0575b818110610892575b1061087b575b500382612206565b60c0860152845194600e861015610865576001600096148061083d575b156107d6575050600b905b602092604051916104f28584612206565b86835286368137604051956105078688612206565b878752873681376105246040519561051e876121eb565b86612227565b8585018881526040860191825260608601928984526080870194604435865260a0880196875260c08801998a528a526002885260408a20908a5287526040892060018a528752604089209551600e8110156107195761058390876122b0565b5160068110156106ba576105979086612291565b51845462010000600160b01b03191660109190911b62010000600160b01b03161784555160018401555160028301555180519060038301906001600160401b0383116107c257600160401b83116107c257849082548484558085106107a8575b5001908652838620865b83811061078d575050505060040191518051906001600160401b03821161077957600160401b8211610779578290845483865580841061072d575b5001928452818420908060051c92855b8481106106ce5750601f1982169091039081610666578580f35b93908594865b8281106106825750505050015581808080808580f35b9091929586519060058210156106ba576106af6001928486939060ff809160031b9316831b921b19161790565b97019392910161066c565b634e487b7160e01b89526021600452602489fd5b86875b8381106106e557508482015560010161064c565b96908151906005821015610719576107106001928a87939060ff809160031b9316831b921b19161790565b920197016106d1565b634e487b7160e01b8a52602160045260248afd5b61075790868852838820601f80870160051c8201928188168061075d575b500160051c01906122c8565b8661063c565b600019850190815490600019908a0360031b1c1690558b61074b565b634e487b7160e01b85526041600452602485fd5b82516001600160a01b03168282015591850191600101610601565b8389528289206107bc9181019086016122c8565b886105f7565b634e487b7160e01b87526041600452602487fd5b51600e811015610829576005149081610800575b50156107f857600d906104e1565b6009906104e1565b905051600681101561081557600314856107ea565b634e487b7160e01b85526021600452602485fd5b634e487b7160e01b86526021600452602486fd5b5081516006811015610851576002146104d6565b634e487b7160e01b87526021600452602487fd5b634e487b7160e01b600052602160045260246000fd5b9061088b8160209360f81c61219c565b01896104b1565b926020816108a860019360ff8760f01c1661219c565b0193016104ab565b926020816108c660019360ff8760e81c1661219c565b0193016104a3565b926020816108e460019360ff8760e01c1661219c565b01930161049b565b9260208161090260019360ff8760d81c1661219c565b019301610493565b9260208161092060019360ff8760d01c1661219c565b01930161048b565b9260208161093e60019360ff8760c81c1661219c565b019301610483565b9260208161095c60019360ff8760c01c1661219c565b01930161047b565b9260208161097a60019360ff8760b81c1661219c565b019301610473565b9260208161099860019360ff8760b01c1661219c565b01930161046b565b926020816109b660019360ff8760a81c1661219c565b019301610463565b926020816109d460019360ff8760a01c1661219c565b01930161045b565b926020816109f260019360ff8760981c1661219c565b019301610453565b92602081610a1060019360ff8760901c1661219c565b01930161044b565b92602081610a2e60019360ff8760881c1661219c565b019301610443565b92602081610a4c60019360ff8760801c1661219c565b01930161043b565b92602081610a6a60019360ff8760781c1661219c565b019301610433565b92602081610a8860019360ff8760701c1661219c565b01930161042b565b92602081610aa660019360ff8760681c1661219c565b019301610423565b92602081610ac460019360ff8760601c1661219c565b01930161041b565b92602081610ae260019360ff8760581c1661219c565b019301610413565b92602081610b0060019360ff8760501c1661219c565b01930161040b565b92602081610b1e60019360ff8760481c1661219c565b019301610403565b92602081610b3c60019360ff8760401c1661219c565b0193016103fb565b92602081610b5a60019360ff8760381c1661219c565b0193016103f3565b92602081610b7860019360ff8760301c1661219c565b0193016103eb565b92602081610b9660019360ff8760281c1661219c565b0193016103e3565b92602081610bb360019360ff87851c1661219c565b0193016103db565b92602081610bd160019360ff8760181c1661219c565b0193016103d3565b92602081610bef60019360ff8760101c1661219c565b0193016103cb565b92602081610c0d60019360ff8760081c1661219c565b0193016103c3565b92602081610c2860019360ff871661219c565b0193016103bb565b916020919350610400600191610eab8754610c4e8360ff831661219c565b610c6086840160ff8360081c1661219c565b610c736040840160ff8360101c1661219c565b610c866060840160ff8360181c1661219c565b610c986080840160ff83891c1661219c565b610cab60a0840160ff8360281c1661219c565b610cbe60c0840160ff8360301c1661219c565b610cd160e0840160ff8360381c1661219c565b610ce5610100840160ff8360401c1661219c565b610cf9610120840160ff8360481c1661219c565b610d0d610140840160ff8360501c1661219c565b610d21610160840160ff8360581c1661219c565b610d35610180840160ff8360601c1661219c565b610d496101a0840160ff8360681c1661219c565b610d5d6101c0840160ff8360701c1661219c565b610d716101e0840160ff8360781c1661219c565b610d85610200840160ff8360801c1661219c565b610d99610220840160ff8360881c1661219c565b610dad610240840160ff8360901c1661219c565b610dc1610260840160ff8360981c1661219c565b610dd5610280840160ff8360a01c1661219c565b610de96102a0840160ff8360a81c1661219c565b610dfd6102c0840160ff8360b01c1661219c565b610e116102e0840160ff8360b81c1661219c565b610e25610300840160ff8360c01c1661219c565b610e39610320840160ff8360c81c1661219c565b610e4d610340840160ff8360d01c1661219c565b610e61610360840160ff8360d81c1661219c565b610e75610380840160ff8360e01c1661219c565b610e896103a0840160ff8360e81c1661219c565b610e9d6103c0840160ff8360f01c1661219c565b6103e083019060f81c61219c565b0194019201849293916103a3565b82546001600160a01b0316845260209093019260019283019201610366565b634e487b7160e01b600052601160045260246000fd5b6393a19b2760e01b60005260046000fd5b6323c76f5b60e21b60005260046000fd5b346101a35760003660031901126101a3576000546040516001600160a01b039091168152602090f35b346101a35760a03660031901126101a357602435600435610f586121d5565b9060843580151581036101a3576000546001600160a01b03163303610eff5781600052600460205283604060002055806000146112f2576005905b156112ea576003905b604051602094610fac8683612206565b60008252600036813760405191610fc38784612206565b60008352600036813760405191610fd9836121eb565b610fe38584612227565b87830190610ff18783612233565b604084019060018060a01b031681526060840190606435825260808501926000845260a0860194855260c086019687528960005260028b5260406000208c6000528b5260406000208a60005260038c5260406000208d6000528c526040600020546000528b5260406000209551600e8110156108655761107190876122b0565b516006811015610865576110859086612291565b51845462010000600160b01b03191660109190911b62010000600160b01b03161784555160018401555160028301555180519060038301906001600160401b03831161129c57600160401b831161129c57889082548484558085106112cd575b5001906000528760002060005b8381106112b2575050505060040190518051906001600160401b03821161129c57600160401b821161129c578690835483855580841061124f575b500191600052856000208160051c9160005b8381106112045750601f1981169003806111b3575b5050505084611188575b50506000526003815260406000209160005252604060002080546000198114610ed8576001019055005b6111ac91836000526003855260406000208660005285526040600020548685612e7a565b838061115e565b9260009360005b8181106111cf57505050015585808080611154565b90919485516005811015610865576111fa8b91846001949060ff809160031b9316831b921b19161790565b96019291016111ba565b6000805b8a811061121c57508382015560010161113f565b959081516005811015610865576112468c91896001949060ff809160031b9316831b921b19161790565b92019601611208565b61127a908560005283600020601f80870160051c8201928188168061128057500160051c01906122c8565b8961112d565b600019850190815490600019908a0360031b1c1690558e61074b565b634e487b7160e01b600052604160045260246000fd5b82516001600160a01b031682820155918901916001016110f2565b6112e49084600052858460002091820191016122c8565b8b6110e5565b600090610f9c565b600190610f93565b346101a35760003660031901126101a357602060405160008152f35b346101a35760403660031901126101a35761132f6121bf565b6004356000526000805160206136f383398151915260205260406000209060018060a01b0316600052602052602060ff604060002054166040519015158152f35b346101a35760003660031901126101a3576000805160206136d3833981519152546040516001600160a01b039091168152602090f35b346101a35760003660031901126101a35760008051602061373383398151915254336001600160a01b03909116036114425760008051602061373383398151915280546001600160a01b03199081169091556000805160206136d383398151915280543392811683179091556001600160a01b03167f8be0079c531659141344cd1fd0a4f28419497f9722a3daafe3b4186f6b6457e0600080a3005b63118cdaa760e01b6000523360045260246000fd5b346101a35760203660031901126101a35760043560005260046020526020604060002054604051908152f35b346101a35760003660031901126101a35761149c6122df565b60008051602061373383398151915280546001600160a01b03199081169091556000805160206136d3833981519152805491821690556000906001600160a01b03167f8be0079c531659141344cd1fd0a4f28419497f9722a3daafe3b4186f6b6457e08280a3005b346101a35760403660031901126101a357600435600052600360205260406000206024356000526020526020604060002054604051908152f35b346101a35760c03660031901126101a35760243560043561155d6121d5565b6064359081151582036101a3576084359360058510156101a35760a4359260068410156101a3576000546001600160a01b03163303610eff5784600052600360205260406000208260005260205260016040600020541160009060001461174257508460005260036020526040600020826000526020526040600020546000198101908111610ed857925b856000526002602052604060002083600052602052604060002084600052602052600460406000200196875497600160401b89101561129c576001890180825589101561172c5760005261165c60206000208960051c0191601f60009a1683549060ff809160031b9316831b921b19161790565b90558587526002602052604087208388526020526040872084885260205260036040882001805490600160401b8210156117185760018201808255821015611704578852602088200180546001600160a01b0319166001600160a01b039092169190911790556116ca578480f35b836116fc948652600260205260408620828752602052604086208387526020526116f78460408820612291565b612493565b818080808480f35b634e487b7160e01b89526032600452602489fd5b634e487b7160e01b89526041600452602489fd5b634e487b7160e01b600052603260045260246000fd5b926115e8565b346101a35760403660031901126101a3576117616121a9565b6117696121bf565b600080516020613713833981519152549060ff8260401c1615926001600160401b03831680159081611887575b600114908161187d575b159081611874575b506118635767ffffffffffffffff198316600117600080516020613713833981519152556117dc9284611836575b5061223f565b6117e257005b60ff60401b196000805160206137138339815191525416600080516020613713833981519152557fc7f505b2f371ae2175ee4913f4499e1f2633a7b5936321eed1cdaeb6115181d2602060405160018152a1005b68ffffffffffffffffff1916680100000000000000011760008051602061371383398151915255846117d6565b63f92ee8a960e01b60005260046000fd5b905015856117a8565b303b1591506117a0565b859150611796565b346101a35761189d36612168565b91600052600260205260406000209060005260205260406000209060005260205260a060406000208054906002600182015491015490604051926118e48460ff8316612182565b6118f76020850160ff8360081c1661218f565b60101c6000196001861b0116604084015260608301526080820152f35b346101a35760403660031901126101a35761192d6121bf565b336001600160a01b038216036119495761023d906004356123f3565b63334bd91960e11b60005260046000fd5b346101a35760403660031901126101a35761023d6004356119796121bf565b9061198661023382612270565b61234a565b346101a35760203660031901126101a35760206119a9600435612270565b604051908152f35b346101a35760403660031901126101a35761023d6119cd6121a9565b6119d56121bf565b906119de6122df565b61223f565b346101a3576119f136612168565b91606060c0604051611a02816121eb565b600081526000602082015260006040820152600083820152600060808201528260a0820152015260005260026020526040600020906000526020526040600020906000526020526040600020604051611a5a816121eb565b8154611a6960ff821683612227565b6020820192611a7e60ff8360081c1685612233565b604083019160018060a01b039060101c168252600181015460608401908152600282015490608085019182526003830192604051809485916020825491828152019160005260206000209060005b8181106120f35750505060049291611ae5910386612206565b60a087019485520193604051808660208298549384815201906000526020600020926000905b80601f8301106120c757611c2f9454918181106120ac575b81811061208e575b818110612070575b818110612052575b818110612035575b818110612017575b818110611ff9575b818110611fdb575b818110611fbd575b818110611f9f575b818110611f81575b818110611f63575b818110611f45575b818110611f27575b818110611f09575b818110611eeb575b818110611ecd575b818110611eaf575b818110611e91575b818110611e73575b818110611e55575b818110611e37575b818110611e19575b818110611dfb575b818110611ddd575b818110611dbf575b818110611da1575b818110611d83575b818110611d65575b818110611d47575b818110611d29575b10611d12575b5096611c5f999897969594939291960386612206565b60c0860194855260405197889760208952611c546101008a019860208b019051612182565b51604089019061218f565b516001600160a01b031660608701525160808601525160a08501525160e060c085015280519283905261012084019260209091019060005b818110611cf0575050505190601f198382030160e08401526020808351928381520192019060005b818110611ccd575050500390f35b9193509160208082611ce2600194885161219c565b019401910191849392611cbf565b82516001600160a01b0316855286955060209485019490920191600101611c97565b90611d228160209360f81c61219c565b018a611c19565b92602081611d3f60019360ff8760f01c1661219c565b019301611c13565b92602081611d5d60019360ff8760e81c1661219c565b019301611c0b565b92602081611d7b60019360ff8760e01c1661219c565b019301611c03565b92602081611d9960019360ff8760d81c1661219c565b019301611bfb565b92602081611db760019360ff8760d01c1661219c565b019301611bf3565b92602081611dd560019360ff8760c81c1661219c565b019301611beb565b92602081611df360019360ff8760c01c1661219c565b019301611be3565b92602081611e1160019360ff8760b81c1661219c565b019301611bdb565b92602081611e2f60019360ff8760b01c1661219c565b019301611bd3565b92602081611e4d60019360ff8760a81c1661219c565b019301611bcb565b92602081611e6b60019360ff8760a01c1661219c565b019301611bc3565b92602081611e8960019360ff8760981c1661219c565b019301611bbb565b92602081611ea760019360ff8760901c1661219c565b019301611bb3565b92602081611ec560019360ff8760881c1661219c565b019301611bab565b92602081611ee360019360ff8760801c1661219c565b019301611ba3565b92602081611f0160019360ff8760781c1661219c565b019301611b9b565b92602081611f1f60019360ff8760701c1661219c565b019301611b93565b92602081611f3d60019360ff8760681c1661219c565b019301611b8b565b92602081611f5b60019360ff8760601c1661219c565b019301611b83565b92602081611f7960019360ff8760581c1661219c565b019301611b7b565b92602081611f9760019360ff8760501c1661219c565b019301611b73565b92602081611fb560019360ff8760481c1661219c565b019301611b6b565b92602081611fd360019360ff8760401c1661219c565b019301611b63565b92602081611ff160019360ff8760381c1661219c565b019301611b5b565b9260208161200f60019360ff8760301c1661219c565b019301611b53565b9260208161202d60019360ff8760281c1661219c565b019301611b4b565b9260208161204a60019360ff87851c1661219c565b019301611b43565b9260208161206860019360ff8760181c1661219c565b019301611b3b565b9260208161208660019360ff8760101c1661219c565b019301611b33565b926020816120a460019360ff8760081c1661219c565b019301611b2b565b926020816120bf60019360ff871661219c565b019301611b23565b9160209193506104006001916120e58754610c4e8360ff831661219c565b019401920188929391611b0b565b82546001600160a01b0316845288945060209093019260019283019201611acc565b346101a35760203660031901126101a3576004359063ffffffff60e01b82168092036101a357602091637965db0b60e01b8114908115612157575b5015158152f35b6301ffc9a760e01b14905083612150565b60609060031901126101a357600435906024359060443590565b90600e8210156108655752565b9060068210156108655752565b9060058210156108655752565b600435906001600160a01b03821682036101a357565b602435906001600160a01b03821682036101a357565b604435906001600160a01b03821682036101a357565b60e081019081106001600160401b0382111761129c57604052565b90601f801991011681019081106001600160401b0382111761129c57604052565b600e8210156108655752565b60068210156108655752565b600080546001600160a01b039283166001600160a01b03199182161790915560018054939092169216919091179055565b6000526000805160206136f383398151915260205260016040600020015490565b9060068110156108655761ff0082549160081b169061ff001916179055565b90600e8110156108655760ff80198354169116179055565b8181106122d3575050565b600081556001016122c8565b6000805160206136d3833981519152546001600160a01b0316330361144257565b60008181526000805160206136f38339815191526020908152604080832033845290915290205460ff16156123325750565b63e2517d3f60e01b6000523360045260245260446000fd5b60008181526000805160206136f3833981519152602090815260408083206001600160a01b038616845290915290205460ff166123ec5760008181526000805160206136f3833981519152602090815260408083206001600160a01b0395909516808452949091528120805460ff19166001179055339291907f2f8788117e7eff1d82e926ec794901d17c78024a50270940304540a733656f0d9080a4600190565b5050600090565b60008181526000805160206136f3833981519152602090815260408083206001600160a01b038616845290915290205460ff16156123ec5760008181526000805160206136f3833981519152602090815260408083206001600160a01b0395909516808452949091528120805460ff19169055339291907ff6391f5c32d9c69d2a47ea670b442974b53935d1edc7fd64eb21e047a839171b9080a4600190565b91906000928115612e4e576000198201828111612e3a578185526003602052604085208186526020526001604086205411600014612e335781855260036020526040852081865260205260408520546000198101908111612b2857905b8286526002602052604086208187526020526040862082875260205260ff6040872054168387526002602052604087208288526020526040872083885260205260ff604088205460081c169782151580612e28575b15612ca657600119860198868a11612c925789868a52600360205260408a20818b52602052600160408b205411600014612c8b57868a52600360205260408a20818b5260205260408a20546000198101908111612c7757935b878b52600260205260408b20828c5260205260408b20858c5260205260ff60408c205460081c1691888c52600260205260408c20818d5260205260408c20868d5260205260ff60408d20541691600e831015612c635760018314908180612c32575b156127e9575050505050600681101580610719576004821480156127dc575b156126a2575050506040978488526002602052888820908852602052878720908752602052868620600160ff198254161790558286526002602052868620908652602052858520908552602052848420600b60ff198254161790558352600260205283832090835260205282822090825260205220600360ff198254161790555b565b6106ba5760010361272857506040978488526002602052888820908852602052878720908752602052868620600260ff198254161790558286526002602052868620908652602052858520908552602052848420600a60ff198254161790558352600260205283832090835260205282822090825260205220600160ff19825416179055565b60068110156127c857600314612743575b5050505050505050565b6040978488526002602052888820908852602052878720908752602052868620600160ff198254161790558286526002602052868620908652602052858520908552602052848420600c60ff198254161790558352600260205283832090835260205282822090825260205220600560ff198254161790553880808080808080612739565b634e487b7160e01b88526021600452602488fd5b505060006002821461261f565b9091929394508c9d959d5081612c0a575b50156128325750505050505050604094508352600260205283832090835260205282822090825260205220600160ff19825416179055565b8a906005830361298557506107195789610719576001036128c95750604098508488526002602052888820908852602052878720908752602052868620600560ff198254161790558286526002602052868620908652602052858520908552602052848420600d60ff198254161790558352600260205283832090835260205282822090825260205220600660ff19825416179055565b909192939495969750600098600682101561071957600681101561071957036128f6575050505050505050565b8488526002602052604088209088526020526040872090875260205260408620600260ff198254161790558286526002602052604086209086526020526040852090855260205260408420600c60ff19825416179055835260026020526040832090835260205260408220908252602052604081209050600760ff198254161790553880808080808080612739565b939a9b9250508a9897969850159081612be1575b5080612bd9575b6129b0575b505050505050505050565b868952600260205260408920908952602052604088209088526020526040872060ff1981541690558487526002602052604087209087526020526040862090865260205260408520600960ff198254161790558285526002602052604085209085526020526040842090845260205260408320600160ff19825416179055825b6002831180612b4c575b15612b43576001198301928311612ad857828285526003602052604085208186526020526001604086205411600014612b3c5782855260036020526040852081865260205260408520546000198101908111612b2857905b8386526002602052604086208187526020526040862082875260205260ff604087205416600e81101561085157612aec57505060ff1660ff8114612ad857600101612a30565b634e487b7160e01b84526011600452602484fd5b91509184604095945052600260205283832090835260205282822090825260205220600260ff198254161790555b3880808080808080806129a5565b634e487b7160e01b86526011600452602486fd5b8490612a92565b50505050612b1a565b5083546040516320e9aac160e11b815290602090829060049082906001600160a01b03165afa8015612bce578590612b8e575b60ff91501660ff821610612a3a565b506020813d8211612bc6575b81612ba760209383612206565b81010312612bc2575160ff81168103612bc25760ff90612b7f565b8480fd5b3d9150612b9a565b6040513d87823e3d90fd5b5060016129a0565b90506006811015610719576003811490811591612c00575b5038612999565b9050151538612bf9565b9050600e811015612c1e57600914386127fa565b634e487b7160e01b8c52602160045260248cfd5b506006851015612c4f576004851480612600575060028514612600565b634e487b7160e01b8e52602160045260248efd5b634e487b7160e01b8d52602160045260248dfd5b634e487b7160e01b8b52601160045260248bfd5b899361259e565b634e487b7160e01b89526011600452602489fd5b9091929394959697600e8310156106ba5760018314918280612e0d575b15612d2557505050508286526002602052604086209086526020526040852090855260205260408420600260ff19825416179055835260026020526040832090835260205260408220908252602052604081209050600860ff19825416179055565b91935091935082612def575b505015612d675750835260026020526040832090835260205260408220908252602052604081209050600960ff19825416179055565b60058103612d9e5750835260026020526040832090835260205260408220908252602052604081209050600d60ff19825416179055565b1580612de5575b612db0575b50505050565b835260026020526040832090835260205260408220908252602052604081209050600960ff1982541617905538808080612daa565b5060018211612da5565b90915060068210156108515760068110156108515714153880612d31565b50600682101561071957600681101561071957818114612cc3565b506001861615612545565b84906124f0565b634e487b7160e01b85526011600452602485fd5b6126a09450918391604093600195526002602052838320908352602052828220908252602052206122b0565b919392909283156136a057600019840190848211610ed85783600052600360205260406000208260005260205260016040600020541160009060001461369a57508360005260036020526040600020826000526020526040600020546000198101908111610ed857925b6000858152600260209081526040808320868452825280832087845290915290205460ff808216929160081c168415158061368f575b15613521576001198801888111610ed857809388600052600360205260406000208260005260205260016040600020541160009060001461351b57508860005260036020526040600020826000526020526040600020546000198101908111610ed857955b60008a815260026020908152604080832086845282528083208a845290915290205460ff600882901c811694911692600e841015610865576001841480806134fe575b1561315f5750505050505060068110158061086557600482148015613152575b15613052575050506000948552600260209081526040808720928752828252808720938752928152828620805460ff1990811660011790915593865281815282862094865293845281852080548416600b1790559484529382528383209483529390522080549091166003179055565b610865576001036130c657506000948552600260208181526040808820938852838252808820948852938152838720805460ff19908116909317905593865281845282862094865293835281852080548516600a179055948452938152838320948352939093522080549091166001179055565b6006811015610865576003146130e0575b50505050505050565b6000948552600260209081526040808720928752828252808720938752928152828620805460ff1990811660011790915593865281815282862094865293845281852080548416600c1790559484529382528383209483529390522080549091166005179055388080808080806130d7565b5050600060028214612fe2565b9091929394955060009d9c9b9a999897969d91816134d6575b50156131bd575050505050505050509091925060005260026020526040600020906000526020526040600020906000526020526040600020600160ff19825416179055565b9060058403613267575061086557600e811015610865570361324357506000948552600260209081526040808720928752828252808720938752928152828620805460ff1990811660051790915593865281815282862094865293845281852080548416600d179055948452938252838320948352939052208054909116600617905550565b600098600682101561071957600681101561071957036128f6575050505050505050565b93505060009a919a99979896959493999a159182613497575b5081613483575b5061329757505050505050505050565b868952600260205260408920908952602052604088209088526020526040872060ff1981541690558487526002602052604087209087526020526040862090865260205260408520600960ff198254161790558285526002602052604085209085526020526040842090845260205260408320600160ff19825416179055825b6002831180613405575b15612b43576001198301928311612ad8578282855260036020526040852081865260205260016040862054116000146133fe5782855260036020526040852081865260205260408520546000198101908111612b2857905b8386526002602052604086208187526020526040862082875260205260ff604087205416600e811015610851576133bf57505060ff1660ff8114612ad857600101613317565b9291509250835260026020526040832090835260205260408220908252602052604081209050600260ff198254161790553880808080808080806129a5565b8490613379565b5083546040516320e9aac160e11b815290602090829060049082906001600160a01b03165afa8015612bce578590613447575b60ff91501660ff821610613321565b506020813d821161347b575b8161346060209383612206565b81010312612bc2575160ff81168103612bc25760ff90613438565b3d9150613453565b9050600e8110156107195760011438613287565b90915060068110156134c25760038114908115916134b8575b509038613280565b90501515386134b0565b634e487b7160e01b8b52602160045260248bfd5b9050600e8110156134ea5760091438613178565b634e487b7160e01b82526021600452602482fd5b506006861015610865576004861480612fc2575060028614612fc2565b95612f7f565b90919250600e8310156108655760018314908180613674575b156135a657505050508260005260026020526040600020906000526020526040600020906000526020526040600020600260ff1982541617905560005260026020526040600020906000526020526040600020906000526020526040600020600860ff19825416179055565b91935091935060009282613642575b5050156135f057505060005260026020526040600020906000526020526040600020906000526020526040600020600960ff19825416179055565b506005810361362c575060005260026020526040600020906000526020526040600020906000526020526040600020600d60ff19825416179055565b9291906000931580612de557612db05750505050565b909150600682101561366057600681101561366057141538806135b5565b634e487b7160e01b83526021600452602483fd5b5060068110156108655760068310156108655780831461353a565b506001881615612f1a565b92612ee4565b9290506126a09391600052600260205260406000209060005260205260406000209060005260205260406000206122b056fe9016d09d72d40fdae2fd8ceac6b6234c7706214fd39c1cd1e609a0528c19930002dd7bc7dec4dceedda775e58dd541e08a116c6c53815c0bd028192f7b626800f0c57e16840df040f15088dc2f81fe391c3923bec73e23a9662efc9c229c6a00237e158222e3e6968b72b9db0d8043aacf074ad9f650f0d1606b4d82ee432c00a264697066735822122057e7201f28f6ec55eb373c7b00452126d7eeceeeb3b0ae78466f3d76522eaf8964736f6c634300081c0033",
  "linkReferences": {},
  "deployedLinkReferences": {}
}