{
  "_format": "hh-sol-artifact-1",
  "contractName": "MockQueuesForCreation",
  "sourceName": "contracts/test-helpers/MockQueuesForCreation.sol",
  "abi": [
    {
      "inputs": [],
      "name": "addToAcceptedQueueCalled",
      "outputs": [
        {
          "internalType": "bool",
          "name": "",
          "type": "bool"
        }
      ],
      "stateMutability": "view",
      "type": "function"
    },
    {
      "inputs": [
        {
          "internalType": "address",
          "name": "",
          "type": "address"
        },
        {
          "internalType": "bytes32",
          "name": "",
          "type": "bytes32"
        }
      ],
      "name": "addTransactionToAcceptedQueue",
      "outputs": [
        {
          "internalType": "uint256",
          "name": "slot",
          "type": "uint256"
        },
        {
          "internalType": "bool",
          "name": "success",
          "type": "bool"
        }
      ],
      "stateMutability": "nonpayable",
      "type": "function"
    },
    {
      "inputs": [
        {
          "internalType": "address",
          "name": "",
          "type": "address"
        },
        {
          "internalType": "bytes32",
          "name": "",
          "type": "bytes32"
        }
      ],
      "name": "addTransactionToPendingQueue",
      "outputs": [
        {
          "internalType": "bool",
          "name": "",
          "type": "bool"
        },
        {
          "internalType": "uint256",
          "name": "",
          "type": "uint256"
        },
        {
          "internalType": "bytes32[]",
          "name": "",
          "type": "bytes32[]"
        }
      ],
      "stateMutability": "nonpayable",
      "type": "function"
    },
    {
      "inputs": [
        {
          "internalType": "address",
          "name": "",
          "type": "address"
        },
        {
          "internalType": "bytes32",
          "name": "",
          "type": "bytes32"
        }
      ],
      "name": "addTransactionToUndeterminedQueue",
      "outputs": [
        {
          "internalType": "uint256",
          "name": "slot",
          "type": "uint256"
        },
        {
          "internalType": "bool",
          "name": "success",
          "type": "bool"
        }
      ],
      "stateMutability": "view",
      "type": "function"
    },
    {
      "inputs": [
        {
          "internalType": "address",
          "name": "",
          "type": "address"
        }
      ],
      "name": "getIssuedTxCount",
      "outputs": [
        {
          "internalType": "uint256",
          "name": "",
          "type": "uint256"
        }
      ],
      "stateMutability": "view",
      "type": "function"
    },
    {
      "inputs": [
        {
          "internalType": "address",
          "name": "",
          "type": "address"
        }
      ],
      "name": "getPendingHead",
      "outputs": [
        {
          "internalType": "uint256",
          "name": "",
          "type": "uint256"
        }
      ],
      "stateMutability": "view",
      "type": "function"
    },
    {
      "inputs": [
        {
          "internalType": "address",
          "name": "",
          "type": "address"
        }
      ],
      "name": "getPendingHeadTxId",
      "outputs": [
        {
          "internalType": "bytes32",
          "name": "",
          "type": "bytes32"
        }
      ],
      "stateMutability": "view",
      "type": "function"
    },
    {
      "inputs": [
        {
          "internalType": "address",
          "name": "",
          "type": "address"
        }
      ],
      "name": "getPendingTail",
      "outputs": [
        {
          "internalType": "uint256",
          "name": "",
          "type": "uint256"
        }
      ],
      "stateMutability": "view",
      "type": "function"
    },
    {
      "inputs": [
        {
          "internalType": "address",
          "name": "",
          "type": "address"
        },
        {
          "internalType": "bytes32",
          "name": "",
          "type": "bytes32"
        }
      ],
      "name": "isAtPendingQueueHead",
      "outputs": [
        {
          "internalType": "bool",
          "name": "",
          "type": "bool"
        }
      ],
      "stateMutability": "view",
      "type": "function"
    },
    {
      "inputs": [
        {
          "internalType": "address",
          "name": "",
          "type": "address"
        },
        {
          "internalType": "bytes32",
          "name": "",
          "type": "bytes32"
        }
      ],
      "name": "markPendingTransactionAsCancelled",
      "outputs": [],
      "stateMutability": "nonpayable",
      "type": "function"
    },
    {
      "inputs": [
        {
          "internalType": "address",
          "name": "",
          "type": "address"
        },
        {
          "internalType": "bytes32",
          "name": "",
          "type": "bytes32"
        }
      ],
      "name": "removeTransactionFromPendingQueue",
      "outputs": [
        {
          "internalType": "bool",
          "name": "",
          "type": "bool"
        }
      ],
      "stateMutability": "nonpayable",
      "type": "function"
    },
    {
      "inputs": [],
      "name": "resetCallFlags",
      "outputs": [],
      "stateMutability": "nonpayable",
      "type": "function"
    },
    {
      "inputs": [],
      "name": "resetMarkPendingCancelledCalled",
      "outputs": [],
      "stateMutability": "nonpayable",
      "type": "function"
    },
    {
      "inputs": [],
      "name": "resetRemoveFromPendingQueueCalled",
      "outputs": [],
      "stateMutability": "nonpayable",
      "type": "function"
    },
    {
      "inputs": [
        {
          "internalType": "bool",
          "name": "value",
          "type": "bool"
        }
      ],
      "name": "setIsAtPendingQueueHead",
      "outputs": [],
      "stateMutability": "nonpayable",
      "type": "function"
    },
    {
      "inputs": [
        {
          "internalType": "uint256",
          "name": "slot",
          "type": "uint256"
        },
        {
          "internalType": "bool",
          "name": "success",
          "type": "bool"
        }
      ],
      "name": "setMockAcceptedQueue",
      "outputs": [],
      "stateMutability": "nonpayable",
      "type": "function"
    },
    {
      "inputs": [
        {
          "internalType": "uint256",
          "name": "slot",
          "type": "uint256"
        },
        {
          "internalType": "bool",
          "name": "success",
          "type": "bool"
        }
      ],
      "name": "setMockUndeterminedQueue",
      "outputs": [],
      "stateMutability": "nonpayable",
      "type": "function"
    },
    {
      "inputs": [
        {
          "internalType": "uint256",
          "name": "issuedCount",
          "type": "uint256"
        },
        {
          "internalType": "bool",
          "name": "readyToActivate",
          "type": "bool"
        },
        {
          "internalType": "uint256",
          "name": "txSlot",
          "type": "uint256"
        },
        {
          "internalType": "uint256",
          "name": "head",
          "type": "uint256"
        },
        {
          "internalType": "uint256",
          "name": "tail",
          "type": "uint256"
        },
        {
          "internalType": "bytes32",
          "name": "headTxId",
          "type": "bytes32"
        }
      ],
      "name": "setMockValues",
      "outputs": [],
      "stateMutability": "nonpayable",
      "type": "function"
    },
    {
      "inputs": [
        {
          "internalType": "bool",
          "name": "result",
          "type": "bool"
        }
      ],
      "name": "setRemoveResult",
      "outputs": [],
      "stateMutability": "nonpayable",
      "type": "function"
    },
    {
      "inputs": [],
      "name": "wasMarkPendingCancelledCalled",
      "outputs": [
        {
          "internalType": "bool",
          "name": "",
          "type": "bool"
        }
      ],
      "stateMutability": "view",
      "type": "function"
    },
    {
      "inputs": [],
      "name": "wasRemoveFromPendingQueueCalled",
      "outputs": [
        {
          "internalType": "bool",
          "name": "",
          "type": "bool"
        }
      ],
      "stateMutability": "view",
      "type": "function"
    }
  ],
  "bytecode": "0x6080806040523460315761010161ffff196008541617600855600160ff19600a541617600a556105ff90816100378239f35b600080fdfe608080604052600436101561001357600080fd5b60003560e01c9081630e79af0a146105425781631a0f2b18146105035750806336dc908c146104dc5780633f008c45146104b55780634317e70914610481578063542c094d1461044c578063552302721461041857806362f21059146103fa5780636a802f02146103d45780636e795de0146103ae578063769ad35a146102e05780637ce72087146102875780637f42382c146102605780638226c512146102315780638e6aff9a1461020b578063910048fb146101d55780639c8838191461019c578063a2b8064e1461017d578063be9e9d8a14610156578063cbf5440d146101385763e5d31ced1461010657600080fd5b346101335760403660031901126101335761011f61058e565b506006805462ff0000191662010000179055005b600080fd5b3461013357600036600319011261013357600a805461ff0019169055005b346101335760203660031901126101335761016f61058e565b506020600554604051908152f35b34610133576000366003190112610133576006805462ff000019169055005b34610133576040366003190112610133576101b561058e565b50602060065461010061ff001982161760065560ff604051911615158152f35b34610133576040366003190112610133576101ee61058e565b506007546008546040805192835260ff9091161515602083015290f35b3461013357600036600319011261013357602060ff60065460101c166040519015158152f35b346101335760403660031901126101335761024a61058e565b50602060ff60085460081c166040519015158152f35b346101335760203660031901126101335761027961058e565b506020600354604051908152f35b346101335760c0366003190112610133576102a061057f565b60043560005560ff801960015416911515161760015560443560025560643560035560843560045560a435600555600160ff196006541617600655600080f35b34610133576040366003190112610133576102f961058e565b506103056000546105a4565b60005560ff600154166002549061031b826105a4565b6002556040516020818101929167ffffffffffffffff841181851017610398579392918260405260008552600036813760405194859460608601921515865283860152606060408601525180915260808401929160005b82811061038157505050500390f35b835185528695509381019392810192600101610372565b634e487b7160e01b600052604160045260246000fd5b3461013357600036600319011261013357602060ff600a5460081c166040519015158152f35b3461013357600036600319011261013357602060ff60065460081c166040519015158152f35b34610133576000366003190112610133576006805461ff0019169055005b346101335760403660031901126101335761043161057f565b60043560075560ff8019600854169115151617600855600080f35b3461013357602036600319011261013357610465610570565b151561ff006008549160081b169061ff00191617600855600080f35b346101335760403660031901126101335761049a61057f565b60043560095560ff8019600a54169115151617600a55600080f35b34610133576020366003190112610133576104ce61058e565b506020600454604051908152f35b34610133576020366003190112610133576104f561058e565b506020600054604051908152f35b346101335760403660031901126101335761051c61058e565b50600a805461010061ff0019821617909155600954825260ff1615156020820152604090f35b346101335760203660031901126101335761055b610570565b151560ff801960065416911617600655600080f35b60043590811515820361013357565b60243590811515820361013357565b600435906001600160a01b038216820361013357565b60001981146105b35760010190565b634e487b7160e01b600052601160045260246000fdfea26469706673582212202cc5d929f1e2cdfdef8d2fe5ee0c36bfc53660df968881c20da3f91cfdb6c62064736f6c634300081c0033",
  "linkReferences": {},
  "deployedLinkReferences": {}
}