{
  "_format": "hh-sol-artifact-1",
  "contractName": "MockQueuesForCreation",
  "sourceName": "contracts/test-helpers/MockQueuesForCreation.sol",
  "abi": [
    {
      "inputs": [],
      "name": "addToAcceptedQueueCalled",
      "outputs": [
        {
          "internalType": "bool",
          "name": "",
          "type": "bool"
        }
      ],
      "stateMutability": "view",
      "type": "function"
    },
    {
      "inputs": [
        {
          "internalType": "address",
          "name": "",
          "type": "address"
        },
        {
          "internalType": "bytes32",
          "name": "",
          "type": "bytes32"
        }
      ],
      "name": "addTransactionToAcceptedQueue",
      "outputs": [
        {
          "internalType": "uint256",
          "name": "slot",
          "type": "uint256"
        },
        {
          "internalType": "bool",
          "name": "success",
          "type": "bool"
        }
      ],
      "stateMutability": "nonpayable",
      "type": "function"
    },
    {
      "inputs": [
        {
          "internalType": "address",
          "name": "",
          "type": "address"
        },
        {
          "internalType": "bytes32",
          "name": "",
          "type": "bytes32"
        }
      ],
      "name": "addTransactionToPendingQueue",
      "outputs": [
        {
          "internalType": "bool",
          "name": "",
          "type": "bool"
        },
        {
          "internalType": "uint256",
          "name": "",
          "type": "uint256"
        },
        {
          "internalType": "bytes32[]",
          "name": "",
          "type": "bytes32[]"
        }
      ],
      "stateMutability": "nonpayable",
      "type": "function"
    },
    {
      "inputs": [
        {
          "internalType": "address",
          "name": "",
          "type": "address"
        },
        {
          "internalType": "bytes32",
          "name": "",
          "type": "bytes32"
        }
      ],
      "name": "addTransactionToUndeterminedQueue",
      "outputs": [
        {
          "internalType": "uint256",
          "name": "slot",
          "type": "uint256"
        },
        {
          "internalType": "bool",
          "name": "success",
          "type": "bool"
        }
      ],
      "stateMutability": "view",
      "type": "function"
    },
    {
      "inputs": [
        {
          "internalType": "address",
          "name": "",
          "type": "address"
        }
      ],
      "name": "getIssuedTxCount",
      "outputs": [
        {
          "internalType": "uint256",
          "name": "",
          "type": "uint256"
        }
      ],
      "stateMutability": "view",
      "type": "function"
    },
    {
      "inputs": [
        {
          "internalType": "address",
          "name": "",
          "type": "address"
        }
      ],
      "name": "getPendingHead",
      "outputs": [
        {
          "internalType": "uint256",
          "name": "",
          "type": "uint256"
        }
      ],
      "stateMutability": "view",
      "type": "function"
    },
    {
      "inputs": [
        {
          "internalType": "address",
          "name": "",
          "type": "address"
        }
      ],
      "name": "getPendingHeadTxId",
      "outputs": [
        {
          "internalType": "bytes32",
          "name": "",
          "type": "bytes32"
        }
      ],
      "stateMutability": "view",
      "type": "function"
    },
    {
      "inputs": [
        {
          "internalType": "address",
          "name": "",
          "type": "address"
        }
      ],
      "name": "getPendingTail",
      "outputs": [
        {
          "internalType": "uint256",
          "name": "",
          "type": "uint256"
        }
      ],
      "stateMutability": "view",
      "type": "function"
    },
    {
      "inputs": [
        {
          "internalType": "address",
          "name": "",
          "type": "address"
        },
        {
          "internalType": "bytes32",
          "name": "",
          "type": "bytes32"
        }
      ],
      "name": "getTxQueueType",
      "outputs": [
        {
          "internalType": "uint8",
          "name": "",
          "type": "uint8"
        }
      ],
      "stateMutability": "view",
      "type": "function"
    },
    {
      "inputs": [
        {
          "internalType": "address",
          "name": "",
          "type": "address"
        },
        {
          "internalType": "bytes32",
          "name": "",
          "type": "bytes32"
        }
      ],
      "name": "isAtPendingQueueHead",
      "outputs": [
        {
          "internalType": "bool",
          "name": "",
          "type": "bool"
        }
      ],
      "stateMutability": "view",
      "type": "function"
    },
    {
      "inputs": [
        {
          "internalType": "address",
          "name": "",
          "type": "address"
        },
        {
          "internalType": "bytes32",
          "name": "",
          "type": "bytes32"
        }
      ],
      "name": "markPendingTransactionAsCancelled",
      "outputs": [],
      "stateMutability": "nonpayable",
      "type": "function"
    },
    {
      "inputs": [
        {
          "internalType": "address",
          "name": "",
          "type": "address"
        },
        {
          "internalType": "bytes32",
          "name": "",
          "type": "bytes32"
        }
      ],
      "name": "removeTransactionFromPendingQueue",
      "outputs": [
        {
          "internalType": "bool",
          "name": "",
          "type": "bool"
        }
      ],
      "stateMutability": "nonpayable",
      "type": "function"
    },
    {
      "inputs": [],
      "name": "resetCallFlags",
      "outputs": [],
      "stateMutability": "nonpayable",
      "type": "function"
    },
    {
      "inputs": [],
      "name": "resetMarkPendingCancelledCalled",
      "outputs": [],
      "stateMutability": "nonpayable",
      "type": "function"
    },
    {
      "inputs": [],
      "name": "resetRemoveFromPendingQueueCalled",
      "outputs": [],
      "stateMutability": "nonpayable",
      "type": "function"
    },
    {
      "inputs": [
        {
          "internalType": "bool",
          "name": "value",
          "type": "bool"
        }
      ],
      "name": "setIsAtPendingQueueHead",
      "outputs": [],
      "stateMutability": "nonpayable",
      "type": "function"
    },
    {
      "inputs": [
        {
          "internalType": "uint256",
          "name": "slot",
          "type": "uint256"
        },
        {
          "internalType": "bool",
          "name": "success",
          "type": "bool"
        }
      ],
      "name": "setMockAcceptedQueue",
      "outputs": [],
      "stateMutability": "nonpayable",
      "type": "function"
    },
    {
      "inputs": [
        {
          "internalType": "uint8",
          "name": "qt",
          "type": "uint8"
        }
      ],
      "name": "setMockTxQueueType",
      "outputs": [],
      "stateMutability": "nonpayable",
      "type": "function"
    },
    {
      "inputs": [
        {
          "internalType": "uint256",
          "name": "slot",
          "type": "uint256"
        },
        {
          "internalType": "bool",
          "name": "success",
          "type": "bool"
        }
      ],
      "name": "setMockUndeterminedQueue",
      "outputs": [],
      "stateMutability": "nonpayable",
      "type": "function"
    },
    {
      "inputs": [
        {
          "internalType": "uint256",
          "name": "issuedCount",
          "type": "uint256"
        },
        {
          "internalType": "bool",
          "name": "readyToActivate",
          "type": "bool"
        },
        {
          "internalType": "uint256",
          "name": "txSlot",
          "type": "uint256"
        },
        {
          "internalType": "uint256",
          "name": "head",
          "type": "uint256"
        },
        {
          "internalType": "uint256",
          "name": "tail",
          "type": "uint256"
        },
        {
          "internalType": "bytes32",
          "name": "headTxId",
          "type": "bytes32"
        }
      ],
      "name": "setMockValues",
      "outputs": [],
      "stateMutability": "nonpayable",
      "type": "function"
    },
    {
      "inputs": [
        {
          "internalType": "bool",
          "name": "result",
          "type": "bool"
        }
      ],
      "name": "setRemoveResult",
      "outputs": [],
      "stateMutability": "nonpayable",
      "type": "function"
    },
    {
      "inputs": [],
      "name": "wasMarkPendingCancelledCalled",
      "outputs": [
        {
          "internalType": "bool",
          "name": "",
          "type": "bool"
        }
      ],
      "stateMutability": "view",
      "type": "function"
    },
    {
      "inputs": [],
      "name": "wasRemoveFromPendingQueueCalled",
      "outputs": [
        {
          "internalType": "bool",
          "name": "",
          "type": "bool"
        }
      ],
      "stateMutability": "view",
      "type": "function"
    }
  ],
  "bytecode": "0x6080806040523460315761010161ffff196008541617600855600160ff19600a541617600a5561067c90816100378239f35b600080fdfe608080604052600436101561001357600080fd5b60003560e01c9081630e79af0a146105bf5781631a0f2b18146105805750806336dc908c146105595780633f008c45146105325780634317e709146104fe578063542c094d146104c9578063552302721461049557806362f21059146104775780636a802f02146104515780636e795de01461042b578063769ad35a1461035d5780637ce72087146103045780637f42382c146102dd5780638226c512146102ae5780638e6aff9a14610288578063910048fb146102525780639c88381914610219578063a2b8064e146101fa578063be9e9d8a146101d3578063cbf5440d146101b5578063df286a381461017b578063e5d31ced1461014e5763ecf55f831461011c57600080fd5b346101495760403660031901126101495761013561060b565b50602060ff600a5460101c16604051908152f35b600080fd5b346101495760403660031901126101495761016761060b565b506006805462ff0000191662010000179055005b346101495760203660031901126101495760043560ff811681036101495762ff0000600a549160101b169062ff0000191617600a55600080f35b3461014957600036600319011261014957600a805461ff0019169055005b34610149576020366003190112610149576101ec61060b565b506020600554604051908152f35b34610149576000366003190112610149576006805462ff000019169055005b346101495760403660031901126101495761023261060b565b50602060065461010061ff001982161760065560ff604051911615158152f35b346101495760403660031901126101495761026b61060b565b506007546008546040805192835260ff9091161515602083015290f35b3461014957600036600319011261014957602060ff60065460101c166040519015158152f35b34610149576040366003190112610149576102c761060b565b50602060ff60085460081c166040519015158152f35b34610149576020366003190112610149576102f661060b565b506020600354604051908152f35b346101495760c03660031901126101495761031d6105fc565b60043560005560ff801960015416911515161760015560443560025560643560035560843560045560a435600555600160ff196006541617600655600080f35b346101495760403660031901126101495761037661060b565b50610382600054610621565b60005560ff600154166002549061039882610621565b6002556040516020818101929167ffffffffffffffff841181851017610415579392918260405260008552600036813760405194859460608601921515865283860152606060408601525180915260808401929160005b8281106103fe57505050500390f35b8351855286955093810193928101926001016103ef565b634e487b7160e01b600052604160045260246000fd5b3461014957600036600319011261014957602060ff600a5460081c166040519015158152f35b3461014957600036600319011261014957602060ff60065460081c166040519015158152f35b34610149576000366003190112610149576006805461ff0019169055005b34610149576040366003190112610149576104ae6105fc565b60043560075560ff8019600854169115151617600855600080f35b34610149576020366003190112610149576104e26105ed565b151561ff006008549160081b169061ff00191617600855600080f35b34610149576040366003190112610149576105176105fc565b60043560095560ff8019600a54169115151617600a55600080f35b346101495760203660031901126101495761054b61060b565b506020600454604051908152f35b346101495760203660031901126101495761057261060b565b506020600054604051908152f35b346101495760403660031901126101495761059961060b565b50600a805461010061ff0019821617909155600954825260ff1615156020820152604090f35b34610149576020366003190112610149576105d86105ed565b151560ff801960065416911617600655600080f35b60043590811515820361014957565b60243590811515820361014957565b600435906001600160a01b038216820361014957565b60001981146106305760010190565b634e487b7160e01b600052601160045260246000fdfea2646970667358221220ce49039887ec2e2a11fd67d0cfb32a436c171313a3e2f0927f3e891c281e41ec64736f6c634300081c0033",
  "linkReferences": {},
  "deployedLinkReferences": {}
}