{
  "_format": "hh-sol-artifact-1",
  "contractName": "FeeManager",
  "sourceName": "contracts/FeeManager.sol",
  "abi": [
    {
      "inputs": [],
      "name": "AppealRoundNotPermitted",
      "type": "error"
    },
    {
      "inputs": [],
      "name": "EnforcedPause",
      "type": "error"
    },
    {
      "inputs": [],
      "name": "ExpectedPause",
      "type": "error"
    },
    {
      "inputs": [],
      "name": "InsufficientFeesForRound",
      "type": "error"
    },
    {
      "inputs": [],
      "name": "InvalidInitialization",
      "type": "error"
    },
    {
      "inputs": [],
      "name": "NotInitializing",
      "type": "error"
    },
    {
      "inputs": [],
      "name": "OnlyConsensusCanCall",
      "type": "error"
    },
    {
      "inputs": [],
      "name": "OutOfGas",
      "type": "error"
    },
    {
      "inputs": [
        {
          "internalType": "address",
          "name": "owner",
          "type": "address"
        }
      ],
      "name": "OwnableInvalidOwner",
      "type": "error"
    },
    {
      "inputs": [
        {
          "internalType": "address",
          "name": "account",
          "type": "address"
        }
      ],
      "name": "OwnableUnauthorizedAccount",
      "type": "error"
    },
    {
      "inputs": [],
      "name": "ReentrancyGuardReentrantCall",
      "type": "error"
    },
    {
      "anonymous": false,
      "inputs": [
        {
          "indexed": true,
          "internalType": "bytes32",
          "name": "txId",
          "type": "bytes32"
        },
        {
          "indexed": true,
          "internalType": "uint256",
          "name": "round",
          "type": "uint256"
        },
        {
          "indexed": true,
          "internalType": "address",
          "name": "appealer",
          "type": "address"
        },
        {
          "indexed": false,
          "internalType": "uint256",
          "name": "bondAmount",
          "type": "uint256"
        },
        {
          "indexed": false,
          "internalType": "bool",
          "name": "success",
          "type": "bool"
        },
        {
          "indexed": false,
          "internalType": "uint256",
          "name": "returnAmount",
          "type": "uint256"
        }
      ],
      "name": "AppealBondResolved",
      "type": "event"
    },
    {
      "anonymous": false,
      "inputs": [
        {
          "indexed": true,
          "internalType": "bytes32",
          "name": "txId",
          "type": "bytes32"
        },
        {
          "indexed": false,
          "internalType": "uint256",
          "name": "amount",
          "type": "uint256"
        }
      ],
      "name": "FeesCommitted",
      "type": "event"
    },
    {
      "anonymous": false,
      "inputs": [
        {
          "indexed": true,
          "internalType": "bytes32",
          "name": "txId",
          "type": "bytes32"
        },
        {
          "indexed": true,
          "internalType": "address",
          "name": "depositor",
          "type": "address"
        },
        {
          "indexed": false,
          "internalType": "uint256",
          "name": "amount",
          "type": "uint256"
        }
      ],
      "name": "FeesDeposited",
      "type": "event"
    },
    {
      "anonymous": false,
      "inputs": [
        {
          "indexed": true,
          "internalType": "bytes32",
          "name": "txId",
          "type": "bytes32"
        },
        {
          "indexed": false,
          "internalType": "uint256",
          "name": "amount",
          "type": "uint256"
        }
      ],
      "name": "FeesDistributed",
      "type": "event"
    },
    {
      "anonymous": false,
      "inputs": [
        {
          "indexed": true,
          "internalType": "bytes32",
          "name": "txId",
          "type": "bytes32"
        },
        {
          "indexed": true,
          "internalType": "address",
          "name": "account",
          "type": "address"
        },
        {
          "indexed": false,
          "internalType": "uint256",
          "name": "amount",
          "type": "uint256"
        }
      ],
      "name": "FeesIssuedBack",
      "type": "event"
    },
    {
      "anonymous": false,
      "inputs": [
        {
          "indexed": false,
          "internalType": "uint64",
          "name": "version",
          "type": "uint64"
        }
      ],
      "name": "Initialized",
      "type": "event"
    },
    {
      "anonymous": false,
      "inputs": [
        {
          "indexed": true,
          "internalType": "bytes32",
          "name": "txId",
          "type": "bytes32"
        },
        {
          "indexed": true,
          "internalType": "address",
          "name": "account",
          "type": "address"
        }
      ],
      "name": "InsufficientFees",
      "type": "event"
    },
    {
      "anonymous": false,
      "inputs": [
        {
          "indexed": true,
          "internalType": "address",
          "name": "previousOwner",
          "type": "address"
        },
        {
          "indexed": true,
          "internalType": "address",
          "name": "newOwner",
          "type": "address"
        }
      ],
      "name": "OwnershipTransferStarted",
      "type": "event"
    },
    {
      "anonymous": false,
      "inputs": [
        {
          "indexed": true,
          "internalType": "address",
          "name": "previousOwner",
          "type": "address"
        },
        {
          "indexed": true,
          "internalType": "address",
          "name": "newOwner",
          "type": "address"
        }
      ],
      "name": "OwnershipTransferred",
      "type": "event"
    },
    {
      "anonymous": false,
      "inputs": [
        {
          "indexed": false,
          "internalType": "address",
          "name": "account",
          "type": "address"
        }
      ],
      "name": "Paused",
      "type": "event"
    },
    {
      "anonymous": false,
      "inputs": [
        {
          "indexed": true,
          "internalType": "bytes32",
          "name": "txId",
          "type": "bytes32"
        },
        {
          "indexed": true,
          "internalType": "uint256",
          "name": "round",
          "type": "uint256"
        },
        {
          "indexed": false,
          "internalType": "uint8",
          "name": "roundType",
          "type": "uint8"
        }
      ],
      "name": "RoundTypeAssigned",
      "type": "event"
    },
    {
      "anonymous": false,
      "inputs": [
        {
          "indexed": false,
          "internalType": "address",
          "name": "account",
          "type": "address"
        }
      ],
      "name": "Unpaused",
      "type": "event"
    },
    {
      "anonymous": false,
      "inputs": [
        {
          "indexed": true,
          "internalType": "bytes32",
          "name": "txId",
          "type": "bytes32"
        },
        {
          "indexed": true,
          "internalType": "uint256",
          "name": "round",
          "type": "uint256"
        },
        {
          "indexed": true,
          "internalType": "address",
          "name": "validator",
          "type": "address"
        },
        {
          "indexed": false,
          "internalType": "uint256",
          "name": "feeAmount",
          "type": "uint256"
        },
        {
          "indexed": false,
          "internalType": "bool",
          "name": "isLeader",
          "type": "bool"
        }
      ],
      "name": "ValidatorFeeDistributed",
      "type": "event"
    },
    {
      "anonymous": false,
      "inputs": [
        {
          "indexed": true,
          "internalType": "bytes32",
          "name": "txId",
          "type": "bytes32"
        },
        {
          "indexed": true,
          "internalType": "uint256",
          "name": "round",
          "type": "uint256"
        },
        {
          "indexed": true,
          "internalType": "address",
          "name": "validator",
          "type": "address"
        },
        {
          "indexed": false,
          "internalType": "uint256",
          "name": "penaltyAmount",
          "type": "uint256"
        }
      ],
      "name": "ValidatorPenaltyRecorded",
      "type": "event"
    },
    {
      "inputs": [],
      "name": "GENPerTimeUnit",
      "outputs": [
        {
          "internalType": "uint256",
          "name": "",
          "type": "uint256"
        }
      ],
      "stateMutability": "view",
      "type": "function"
    },
    {
      "inputs": [],
      "name": "MAX_ROUNDS",
      "outputs": [
        {
          "internalType": "uint8",
          "name": "",
          "type": "uint8"
        }
      ],
      "stateMutability": "view",
      "type": "function"
    },
    {
      "inputs": [
        {
          "internalType": "uint256",
          "name": "",
          "type": "uint256"
        }
      ],
      "name": "VALIDATORS_PER_ROUND",
      "outputs": [
        {
          "internalType": "uint256",
          "name": "",
          "type": "uint256"
        }
      ],
      "stateMutability": "view",
      "type": "function"
    },
    {
      "inputs": [],
      "name": "acceptOwnership",
      "outputs": [],
      "stateMutability": "nonpayable",
      "type": "function"
    },
    {
      "inputs": [
        {
          "internalType": "bytes32",
          "name": "_txId",
          "type": "bytes32"
        },
        {
          "internalType": "uint256",
          "name": "_round",
          "type": "uint256"
        },
        {
          "internalType": "uint256",
          "name": "_appealBond",
          "type": "uint256"
        },
        {
          "internalType": "address",
          "name": "_appealer",
          "type": "address"
        }
      ],
      "name": "addAppealRound",
      "outputs": [
        {
          "internalType": "bool",
          "name": "feesForNewRoundApproved",
          "type": "bool"
        }
      ],
      "stateMutability": "nonpayable",
      "type": "function"
    },
    {
      "inputs": [],
      "name": "addressManager",
      "outputs": [
        {
          "internalType": "contract IAddressManager",
          "name": "",
          "type": "address"
        }
      ],
      "stateMutability": "view",
      "type": "function"
    },
    {
      "inputs": [
        {
          "internalType": "bytes32",
          "name": "_txId",
          "type": "bytes32"
        },
        {
          "internalType": "uint256",
          "name": "_round",
          "type": "uint256"
        },
        {
          "internalType": "enum ITransactions.TransactionStatus",
          "name": "_status",
          "type": "uint8"
        }
      ],
      "name": "calculateMinAppealBond",
      "outputs": [
        {
          "internalType": "uint256",
          "name": "totalFeesToPay",
          "type": "uint256"
        }
      ],
      "stateMutability": "view",
      "type": "function"
    },
    {
      "inputs": [
        {
          "components": [
            {
              "internalType": "uint256",
              "name": "leaderTimeoutFee",
              "type": "uint256"
            },
            {
              "internalType": "uint256",
              "name": "validatorsTimeoutFee",
              "type": "uint256"
            },
            {
              "internalType": "uint256",
              "name": "appealRounds",
              "type": "uint256"
            },
            {
              "internalType": "uint256",
              "name": "rollupUnifiedBudget",
              "type": "uint256"
            },
            {
              "internalType": "uint256",
              "name": "rollupUnifiedConsumed",
              "type": "uint256"
            },
            {
              "internalType": "uint256",
              "name": "totalMessageFees",
              "type": "uint256"
            },
            {
              "internalType": "uint256[]",
              "name": "rotations",
              "type": "uint256[]"
            }
          ],
          "internalType": "struct IFeeManager.FeesDistribution",
          "name": "_feesDistribution",
          "type": "tuple"
        },
        {
          "internalType": "uint256",
          "name": "_numOfValidators",
          "type": "uint256"
        },
        {
          "internalType": "uint256",
          "name": "round",
          "type": "uint256"
        }
      ],
      "name": "calculateRoundFees",
      "outputs": [
        {
          "internalType": "uint256",
          "name": "totalFeesToPay",
          "type": "uint256"
        }
      ],
      "stateMutability": "view",
      "type": "function"
    },
    {
      "inputs": [
        {
          "internalType": "bytes32",
          "name": "txId",
          "type": "bytes32"
        }
      ],
      "name": "commitFinalFees",
      "outputs": [
        {
          "components": [
            {
              "internalType": "address",
              "name": "sender",
              "type": "address"
            },
            {
              "internalType": "uint256",
              "name": "amountToSender",
              "type": "uint256"
            },
            {
              "internalType": "address[]",
              "name": "appealers",
              "type": "address[]"
            },
            {
              "internalType": "uint256[]",
              "name": "feesToAppealers",
              "type": "uint256[]"
            },
            {
              "internalType": "uint256",
              "name": "amountToStaking",
              "type": "uint256"
            }
          ],
          "internalType": "struct IFeeManager.FeeReturns",
          "name": "feeReturns",
          "type": "tuple"
        }
      ],
      "stateMutability": "nonpayable",
      "type": "function"
    },
    {
      "inputs": [
        {
          "internalType": "bytes32",
          "name": "txId",
          "type": "bytes32"
        }
      ],
      "name": "feesDistributionForTx",
      "outputs": [
        {
          "internalType": "uint256",
          "name": "leaderTimeoutFee",
          "type": "uint256"
        },
        {
          "internalType": "uint256",
          "name": "validatorsTimeoutFee",
          "type": "uint256"
        },
        {
          "internalType": "uint256",
          "name": "appealRounds",
          "type": "uint256"
        },
        {
          "internalType": "uint256",
          "name": "rollupUnifiedBudget",
          "type": "uint256"
        },
        {
          "internalType": "uint256",
          "name": "rollupUnifiedConsumed",
          "type": "uint256"
        },
        {
          "internalType": "uint256",
          "name": "totalMessageFees",
          "type": "uint256"
        }
      ],
      "stateMutability": "view",
      "type": "function"
    },
    {
      "inputs": [
        {
          "internalType": "bytes32",
          "name": "_txId",
          "type": "bytes32"
        }
      ],
      "name": "getFeesDistributionForTx",
      "outputs": [
        {
          "components": [
            {
              "internalType": "uint256",
              "name": "leaderTimeoutFee",
              "type": "uint256"
            },
            {
              "internalType": "uint256",
              "name": "validatorsTimeoutFee",
              "type": "uint256"
            },
            {
              "internalType": "uint256",
              "name": "appealRounds",
              "type": "uint256"
            },
            {
              "internalType": "uint256",
              "name": "rollupUnifiedBudget",
              "type": "uint256"
            },
            {
              "internalType": "uint256",
              "name": "rollupUnifiedConsumed",
              "type": "uint256"
            },
            {
              "internalType": "uint256",
              "name": "totalMessageFees",
              "type": "uint256"
            },
            {
              "internalType": "uint256[]",
              "name": "rotations",
              "type": "uint256[]"
            }
          ],
          "internalType": "struct IFeeManager.FeesDistribution",
          "name": "",
          "type": "tuple"
        }
      ],
      "stateMutability": "view",
      "type": "function"
    },
    {
      "inputs": [
        {
          "internalType": "bytes32",
          "name": "_txId",
          "type": "bytes32"
        }
      ],
      "name": "getPerRoundUnifiedBudget",
      "outputs": [
        {
          "internalType": "uint256",
          "name": "",
          "type": "uint256"
        }
      ],
      "stateMutability": "view",
      "type": "function"
    },
    {
      "inputs": [
        {
          "internalType": "uint256",
          "name": "round",
          "type": "uint256"
        }
      ],
      "name": "getValidatorsPerRound",
      "outputs": [
        {
          "internalType": "uint256",
          "name": "",
          "type": "uint256"
        }
      ],
      "stateMutability": "view",
      "type": "function"
    },
    {
      "inputs": [
        {
          "internalType": "address",
          "name": "_addressManager",
          "type": "address"
        }
      ],
      "name": "initialize",
      "outputs": [],
      "stateMutability": "nonpayable",
      "type": "function"
    },
    {
      "inputs": [
        {
          "internalType": "bytes32",
          "name": "txId",
          "type": "bytes32"
        }
      ],
      "name": "lastTransactionTopUpSender",
      "outputs": [
        {
          "internalType": "address",
          "name": "topUpAddress",
          "type": "address"
        }
      ],
      "stateMutability": "view",
      "type": "function"
    },
    {
      "inputs": [],
      "name": "maxNumOfRoundsToProcessInBatch",
      "outputs": [
        {
          "internalType": "uint8",
          "name": "",
          "type": "uint8"
        }
      ],
      "stateMutability": "view",
      "type": "function"
    },
    {
      "inputs": [],
      "name": "owner",
      "outputs": [
        {
          "internalType": "address",
          "name": "",
          "type": "address"
        }
      ],
      "stateMutability": "view",
      "type": "function"
    },
    {
      "inputs": [],
      "name": "paused",
      "outputs": [
        {
          "internalType": "bool",
          "name": "",
          "type": "bool"
        }
      ],
      "stateMutability": "view",
      "type": "function"
    },
    {
      "inputs": [],
      "name": "pendingOwner",
      "outputs": [
        {
          "internalType": "address",
          "name": "",
          "type": "address"
        }
      ],
      "stateMutability": "view",
      "type": "function"
    },
    {
      "inputs": [
        {
          "internalType": "bytes32",
          "name": "txId",
          "type": "bytes32"
        }
      ],
      "name": "processedRoundsForTx",
      "outputs": [
        {
          "internalType": "uint256",
          "name": "processedRounds",
          "type": "uint256"
        }
      ],
      "stateMutability": "view",
      "type": "function"
    },
    {
      "inputs": [
        {
          "internalType": "bytes32",
          "name": "_txId",
          "type": "bytes32"
        },
        {
          "internalType": "uint256",
          "name": "_round",
          "type": "uint256"
        },
        {
          "internalType": "address",
          "name": "_leader",
          "type": "address"
        },
        {
          "internalType": "uint256",
          "name": "_leaderIndex",
          "type": "uint256"
        },
        {
          "internalType": "bool",
          "name": "_leaderTimeout",
          "type": "bool"
        },
        {
          "internalType": "uint256",
          "name": "_receiptFeeConsumed",
          "type": "uint256"
        }
      ],
      "name": "recordProposedReceipt",
      "outputs": [],
      "stateMutability": "nonpayable",
      "type": "function"
    },
    {
      "inputs": [
        {
          "internalType": "bytes32",
          "name": "_txId",
          "type": "bytes32"
        },
        {
          "internalType": "uint256",
          "name": "_round",
          "type": "uint256"
        },
        {
          "internalType": "address",
          "name": "_validator",
          "type": "address"
        },
        {
          "internalType": "bool",
          "name": "_isLastVote",
          "type": "bool"
        },
        {
          "internalType": "enum ITransactions.VoteType",
          "name": "_voteType",
          "type": "uint8"
        },
        {
          "internalType": "enum ITransactions.ResultType",
          "name": "_result",
          "type": "uint8"
        }
      ],
      "name": "recordRevealedVote",
      "outputs": [
        {
          "internalType": "bool",
          "name": "feesForNewRoundApproved",
          "type": "bool"
        }
      ],
      "stateMutability": "nonpayable",
      "type": "function"
    },
    {
      "inputs": [],
      "name": "renounceOwnership",
      "outputs": [],
      "stateMutability": "nonpayable",
      "type": "function"
    },
    {
      "inputs": [
        {
          "internalType": "address",
          "name": "_addressManager",
          "type": "address"
        }
      ],
      "name": "setAddressManager",
      "outputs": [],
      "stateMutability": "nonpayable",
      "type": "function"
    },
    {
      "inputs": [
        {
          "internalType": "uint256",
          "name": "_GENPerTimeUnit",
          "type": "uint256"
        }
      ],
      "name": "setGENPerTimeUnit",
      "outputs": [],
      "stateMutability": "nonpayable",
      "type": "function"
    },
    {
      "inputs": [
        {
          "internalType": "uint8",
          "name": "_maxNumOfRoundsToProcessInBatch",
          "type": "uint8"
        }
      ],
      "name": "setMaxNumOfRoundsToProcessInBatch",
      "outputs": [],
      "stateMutability": "nonpayable",
      "type": "function"
    },
    {
      "inputs": [
        {
          "internalType": "uint256",
          "name": "_storageUnitPrice",
          "type": "uint256"
        }
      ],
      "name": "setStorageUnitPrice",
      "outputs": [],
      "stateMutability": "nonpayable",
      "type": "function"
    },
    {
      "inputs": [],
      "name": "storageUnitPrice",
      "outputs": [
        {
          "internalType": "uint256",
          "name": "",
          "type": "uint256"
        }
      ],
      "stateMutability": "view",
      "type": "function"
    },
    {
      "inputs": [
        {
          "internalType": "bytes32",
          "name": "_txId",
          "type": "bytes32"
        },
        {
          "components": [
            {
              "internalType": "uint256",
              "name": "leaderTimeoutFee",
              "type": "uint256"
            },
            {
              "internalType": "uint256",
              "name": "validatorsTimeoutFee",
              "type": "uint256"
            },
            {
              "internalType": "uint256",
              "name": "appealRounds",
              "type": "uint256"
            },
            {
              "internalType": "uint256",
              "name": "rollupUnifiedBudget",
              "type": "uint256"
            },
            {
              "internalType": "uint256",
              "name": "rollupUnifiedConsumed",
              "type": "uint256"
            },
            {
              "internalType": "uint256",
              "name": "totalMessageFees",
              "type": "uint256"
            },
            {
              "internalType": "uint256[]",
              "name": "rotations",
              "type": "uint256[]"
            }
          ],
          "internalType": "struct IFeeManager.FeesDistribution",
          "name": "_feesDistribution",
          "type": "tuple"
        },
        {
          "internalType": "uint256",
          "name": "_amount",
          "type": "uint256"
        },
        {
          "internalType": "address",
          "name": "_appealer",
          "type": "address"
        },
        {
          "internalType": "bool",
          "name": "_performFeeChecks",
          "type": "bool"
        },
        {
          "internalType": "bool",
          "name": "_lastRoundLeaderTimeout",
          "type": "bool"
        },
        {
          "internalType": "uint256",
          "name": "_round",
          "type": "uint256"
        }
      ],
      "name": "topUpAndSubmitAppeal",
      "outputs": [
        {
          "internalType": "bool",
          "name": "feesForNewRoundApproved",
          "type": "bool"
        }
      ],
      "stateMutability": "nonpayable",
      "type": "function"
    },
    {
      "inputs": [
        {
          "internalType": "bytes32",
          "name": "_txId",
          "type": "bytes32"
        },
        {
          "components": [
            {
              "internalType": "uint256",
              "name": "leaderTimeoutFee",
              "type": "uint256"
            },
            {
              "internalType": "uint256",
              "name": "validatorsTimeoutFee",
              "type": "uint256"
            },
            {
              "internalType": "uint256",
              "name": "appealRounds",
              "type": "uint256"
            },
            {
              "internalType": "uint256",
              "name": "rollupUnifiedBudget",
              "type": "uint256"
            },
            {
              "internalType": "uint256",
              "name": "rollupUnifiedConsumed",
              "type": "uint256"
            },
            {
              "internalType": "uint256",
              "name": "totalMessageFees",
              "type": "uint256"
            },
            {
              "internalType": "uint256[]",
              "name": "rotations",
              "type": "uint256[]"
            }
          ],
          "internalType": "struct IFeeManager.FeesDistribution",
          "name": "_feesDistribution",
          "type": "tuple"
        },
        {
          "internalType": "uint256",
          "name": "_amount",
          "type": "uint256"
        },
        {
          "internalType": "bool",
          "name": "_performFeeChecks",
          "type": "bool"
        },
        {
          "internalType": "address",
          "name": "_sender",
          "type": "address"
        }
      ],
      "name": "topUpFees",
      "outputs": [],
      "stateMutability": "nonpayable",
      "type": "function"
    },
    {
      "inputs": [
        {
          "internalType": "bytes32",
          "name": "txId",
          "type": "bytes32"
        }
      ],
      "name": "transactionFeesBudget",
      "outputs": [
        {
          "internalType": "uint256",
          "name": "",
          "type": "uint256"
        }
      ],
      "stateMutability": "view",
      "type": "function"
    },
    {
      "inputs": [
        {
          "internalType": "bytes32",
          "name": "txId",
          "type": "bytes32"
        }
      ],
      "name": "transactionFeesConsumed",
      "outputs": [
        {
          "internalType": "uint256",
          "name": "",
          "type": "uint256"
        }
      ],
      "stateMutability": "view",
      "type": "function"
    },
    {
      "inputs": [
        {
          "internalType": "address",
          "name": "newOwner",
          "type": "address"
        }
      ],
      "name": "transferOwnership",
      "outputs": [],
      "stateMutability": "nonpayable",
      "type": "function"
    }
  ],
  "bytecode": "0x60808060405234601557613026908161001b8239f35b600080fdfe610160604052600436101561001357600080fd5b6000803560e01c80630652b57a14612164578063203c28b31461213a5780632367190d14610e4e57806335a2eb2c14610e2b57806335ce269414610dec578063397efa2414610d675780633ab76e9f14610d3e57806341d3558214610d1d5780634269ef0514610cf95780634e023d9614610bf65780634fe8920e14610bb357806357a0bfc014610aae5780635a0fbbe514610a845780635b3c669b14610a115780635c975abb146109cf578063715018a61461094e578063721261ba1461092457806379ba5097146108d35780638213362e146108715780638da5cb5b1461083b57806397f426e61461081d5780639ae48be6146107fe5780639e5001a3146107d4578063a6d30f2e146107b1578063a76c02e014610783578063b5b00f6b14610695578063c1684f1d14610662578063c4d66de8146103a3578063d38f5c351461029f578063e30c397814610269578063ed94cf2b14610231578063eeb5f1be146102135763f2fde38b1461018957600080fd5b34610210576020366003190112610210576101a26121a9565b6101aa6126d8565b600080516020612fd183398151915280546001600160a01b0319166001600160a01b03928316908117909155600080516020612f91833981519152549091167f38d16b8cac22d99fc7c124b9cd0de2d3fa1faef420bfe791d8c362d765e227008380a380f35b80fd5b50346102105780600319360112610210576020600854604051908152f35b50346102105760603660031901126102105760443590600f821015610210576020610261836024356004356125f8565b604051908152f35b5034610210578060031936011261021057600080516020612fd1833981519152546040516001600160a01b039091168152602090f35b5034610210576080366003190112610210576004356024356102bf6121c4565b6001600160a01b036102cf612722565b163303610394576102e08284612d79565b159283610385578491906001600160a01b036102fa6127be565b1690813b156103815760405163d38f5c3560e01b81526004810191909152602481019490945260448035908501526001600160a01b0390911660648401528290818381608481015b03925af180156103765761035d575b60208260405190158152f35b610368838092612270565b6103725781610351565b5080fd5b6040513d85823e3d90fd5b8380fd5b636ecc8d5960e01b8552600485fd5b633637f14560e11b8452600484fd5b5034610210576020366003190112610210576103bd6121a9565b600080516020612fb1833981519152549060ff8260401c1615916001600160401b0381168015908161065a575b6001149081610650575b159081610647575b506106385767ffffffffffffffff198116600117600080516020612fb1833981519152558261060b575b5061042f612f62565b610437612f62565b61043f612f62565b33156105f75761044e33612e90565b600180546001600160a01b0319166001600160a01b039290921691909117905560405161024081016001600160401b038111828210176105e3576040526005815260076020820152600b6040820152600d606082015260176080820152601960a0820152602f60c0820152603160e0820152605f610100820152606161012082015260bf61014082015260c161016082015261017f6101808201526101816101a08201526102ff6101c08201526103016101e08201526105ff610200820152610601610220820152825460128455806012106105bc575b508280526020832090835b601281106105a457505050601460ff19600754161760075561054f5780f35b60ff60401b19600080516020612fb18339815191525416600080516020612fb1833981519152557fc7f505b2f371ae2175ee4913f4499e1f2633a7b5936321eed1cdaeb6115181d2602060405160018152a180f35b600190602061ffff8451169301928185015501610530565b83805260126020852091820191015b8181106105d85750610525565b8481556001016105cb565b634e487b7160e01b84526041600452602484fd5b631e4fbdf760e01b83526004839052602483fd5b68ffffffffffffffffff19166801000000000000000117600080516020612fb18339815191525538610426565b63f92ee8a960e01b8452600484fd5b905015386103fc565b303b1591506103f4565b8491506103ea565b503461021057602036600319011261021057602090600435815260058252604060018060a01b0391205416604051908152f35b50346102105760c036600319011261021057600435906106b36121da565b6106bb61237c565b9060a435906001600160a01b036106d0612722565b1633036103945784849585526002602052600460408620016106f3848254612448565b90556001600160a01b036107056127be565b1690813b1561077f578560c4928195604051978896879563b5b00f6b60e01b87526004870152602435602487015260018060a01b0316604486015260643560648601521515608485015260a48401525af18015610774576107635750f35b8161076d91612270565b6102105780f35b6040513d84823e3d90fd5b8580fd5b50346102105760203660031901126102105760206107a26004356123ec565b90549060031b1c604051908152f35b5034610210576020366003190112610210576107cb6126d8565b60043560095580f35b50346102105760203660031901126102105760406020916004358152600383522054604051908152f35b503461021057602036600319011261021057602061026160043561252f565b50346102105780600319360112610210576020600954604051908152f35b5034610210578060031936011261021057600080516020612f91833981519152546040516001600160a01b039091168152602090f35b503461021057602036600319011261021057604060c091600435815260026020522080549060018101549060028101546003820154906005600484015493015493604051958652602086015260408501526060840152608083015260a0820152f35b5034610210578060031936011261021057600080516020612fd183398151915254336001600160a01b03909116036109115761090e33612e90565b80f35b63118cdaa760e01b815233600452602490fd5b5034610210576020366003190112610210576004359080548210156102105760206107a2836123ec565b50346102105780600319360112610210576109676126d8565b600080516020612fd183398151915280546001600160a01b0319908116909155600080516020612f918339815191528054918216905581906001600160a01b03167f8be0079c531659141344cd1fd0a4f28419497f9722a3daafe3b4186f6b6457e08280a380f35b5034610210578060031936011261021057602060ff7fcd5ed15c6e187e77e9aee88184c21f4f2182ab5827cb3b7e07fbedcd63f0330054166040519015158152f35b503461021057602036600319011261021057610a6c6040610a8092606060c08351610a3b81612255565b838152836020820152838582015283838201528360808201528360a0820152015260043581526002602052206124b8565b60405191829160208352602083019061239a565b0390f35b50346102105760203660031901126102105760406020916004358152600683522054604051908152f35b50346102105760c036600319011261021057600435602435610ace6121da565b90610ad761236d565b9260843590600582101561077f5760a435946006861015610ba0576001600160a01b03610b02612722565b163303610ba45790839291610b18889583612d79565b966001600160a01b03610b296127be565b1690813b15610ba05760c4948793604051998a98899763015e82ff60e61b89526004890152602488015260018060a01b0316604487015215156064860152608485015260a48401525af1801561037657610b8b575b6020826040519015158152f35b610b96838092612270565b6103725781610b7e565b8680fd5b633637f14560e11b8752600487fd5b503461021057606036600319011261021057600435906001600160401b038211610210576020610261610be936600486016122a8565b6044359060243590612db3565b50346102105760e0366003190112610210576004356024356001600160401b038111610cf557610c2a9036906004016122a8565b90604435610c366121c4565b91610c3f61237c565b610c4761238b565b5060c435946001600160a01b03610c5c612722565b163303610ba457610c709184869285612ace565b610c7a8482612d79565b159384610ce657859291906001600160a01b03610c956127be565b1691823b15610ce25760405163d38f5c3560e01b81526004810191909152602481019190915260448101929092526001600160a01b03909316606482015291829081838160848101610342565b8480fd5b636ecc8d5960e01b8652600486fd5b8280fd5b5034610210578060031936011261021057602060ff60075460081c16604051908152f35b5034610210578060031936011261021057602060ff60075416604051908152f35b50346102105780600319360112610210576001546040516001600160a01b039091168152602090f35b50346102105760a0366003190112610210576024356001600160401b03811161037257610d989036906004016122a8565b90610da161236d565b608435906001600160a01b0382168203610cf5576001600160a01b03610dc5612722565b163303610ddd5761090e929360443590600435612ace565b633637f14560e11b8352600483fd5b50346102105760203660031901126102105760043560ff8116810361037257610e136126d8565b61ff006007549160081b169061ff0019161760075580f35b503461021057602036600319011261021057610e456126d8565b60043560085580f35b503461021057602036600319011261021057610e6861241c565b6001600160a01b03610e78612722565b16330361212b57602460206001600160a01b03610e936127be565b16604051928380926373cc6afb60e01b825260043560048301525afa9081156103765783916120f9575b508061012052600435835260026020526040600181852001546004358552600260205260a48286205493869060ff60075460081c16908181116120ba575b508790506001600160a01b03610f0f61285d565b1685519687958694633cbf075960e01b865260043560048701526024860152610120516044860152606485015260848401525af180156103765783918491612081575b506004358452600660209081526101205160408620556024906001600160a01b03610f7b6127be565b16604051928380926373cc6afb60e01b825260043560048301525afa908115612076578591612044575b506101205114611045575b5050604051906020825260c082019260018060a01b0382511660208401526020820151604084015260408201519360a060608501528451809152602060e085019501915b81811061102657505050608061101a83946060840151601f1986830301848701526121f0565b91015160a08301520390f35b82516001600160a01b0316865260209586019590920191600101610ff4565b90915061105061241c565b50600435835260036020526040832054821161203557604490836001600160a01b0361107a61285d565b1660405193848092635b3f963560e01b825260043560048301528560248301525afa9182156117ae5784610100528492612014575b506110b86127be565b84805b61012051821115611f8b576110dd91506110d481612a3e565b61014052612a3e565b60a0528490855b61012051811115611d015750505060018060a01b036001541691604051631bae711d60e21b81526020600482015260126024820152712a3930b739b0b1ba34b7b726b0b730b3b2b960711b604482015285602082606481885afa8015611cf4578190611cba575b60405163255709e560e11b815260048035908201529250829060249082906001600160a01b03165afa801561194b578690611a0f575b6102c091500151916004358652600260205261119f604087206124b8565b60606111af856080840151612448565b9101518111611a0057811580159490806119f9576111cd848361250f565b955b156119eb576119d757906111ea836111ef9306915b88612448565b612a31565b936040519063bf40fac160e01b82526020600483015260166024830152752a3930b739b0b1ba34b7b72332b2b9a6b0b730b3b2b960511b6044830152602082606481845afa9182156118d357889261199b575b506001600160a01b038216611509575b50505050506004358352600360205261126f816040852054612a31565b61127761241c565b50600435845260056020526040842054610120516001600160a01b039091169190611338576040516020916112ac8383612270565b8682526000368137604051926112c28185612270565b8784526000368137604051946112d786612224565b855284015260408301526060820152836080820152915b6080830152600435835260046020528060408420556040519081527f4549c5ea26b14cb8c12f098aff9e82b8085305128d3e8aae3dbb21b685ee83fe602060043592a23880610fb0565b6001806101205116146000146114df5761012051905b600182018083116114cb5760011c9061136f61136983612a3e565b92612a3e565b926001885b828211156113a9575050506040519361138c85612224565b8452602084015260408301526060820152836080820152916112ee565b60449060406001600160a01b036113be61285d565b16815193848092635bda466f60e01b825260043560048301528760248301525afa80156114c0578b90611441575b602081015161141b93506001600160a01b03166114098389612a70565b52516114158289612a70565b52612a84565b906002810180911161142d5790611374565b634e487b7160e01b8a52601160045260248afd5b50906040813d82116114b8575b8161145b60409383612270565b810103126114b45760405190604082018281106001600160401b038211176114a057602061141b94939261149692604052805184520161270e565b60208201526113ec565b634e487b7160e01b8d52604160045260248dfd5b8a80fd5b3d915061144e565b6040513d8d823e3d90fd5b634e487b7160e01b87526011600452602487fd5b6101205160001981019081116114f5579061134e565b634e487b7160e01b86526011600452602486fd5b60206064916040999795989699519283809263bf40fac160e01b825284600483015260076024830152665374616b696e6760c81b60448301525afa90811561194b578691611961575b506001600160a01b03169182156119565760206004936040519485809263900cf0cf60e01b82525afa801561194b578690611914575b60449350905b866001600160a01b0361159f61285d565b166040519586809263e54de61760e01b825260043560048301528560248301525afa9384156119095787946118de575b506024919060206001600160a01b036115e661285d565b1660405194858092634b2aecd760e01b825260043560048301525afa9283156118d357889361189b575b506001600160ff1b0381168103611887576116556116386101409a969a51518360011b612448565b61164181612a3e565b60805261164d81612a3e565b60e052612a3e565b9488998960c0525b8260c0511061181b57505087985b61014051518a10156116c0576116b8600191828060a01b036116908d61014051612a70565b511661169e82608051612a70565b526116ab8c60a051612a70565b516114158260e051612a70565b99019861166b565b919395979990929496985089915b8383106117de57505050506001600160a01b0383163b15610ba0579290918692604051948593632e62bfc760e21b855260e48501600435600487015260e060248701526080515180915261010486019060206080510190885b8181106117b957505050928692611765879593611753879560031987820301604488015260e0516121f0565b858103600319016064870152906121f0565b608484018b905260a484019290925260c483015203926001600160a01b03165af180156117ae5761179a575b80808080611252565b836117a791949294612270565b9138611791565b6040513d86823e3d90fd5b82516001600160a01b031684528d99508a985060209384019390920191600101611727565b611813600191828060a01b036117f78661010051612a70565b511661180582608051612a70565b52836114158260e051612a70565b9201916116ce565b90996118779060018060a01b0361183760c05161010051612a70565b511661184582608051612a70565b5261185260c0518d612a70565b5161185f8260e051612a70565b5261186c60c05184612a70565b51611415828a612a70565b99600160c0510160c0529061165d565b634e487b7160e01b88526011600452602488fd5b9092506020813d6020116118cb575b816118b760209383612270565b810103126118c757519138611610565b8780fd5b3d91506118aa565b6040513d8a823e3d90fd5b6024929194506118ff903d808a833e6118f78183612270565b810190612927565b90509390916115cf565b6040513d89823e3d90fd5b5090916020813d602011611943575b8161193060209383612270565b8101031261077f57906044929151611588565b3d9150611923565b6040513d88823e3d90fd5b60449250859061158e565b90506020813d602011611993575b8161197c60209383612270565b8101031261077f5761198d9061270e565b38611552565b3d915061196f565b9091506020813d6020116119cf575b816119b760209383612270565b810103126118c7576119c89061270e565b9038611242565b3d91506119aa565b634e487b7160e01b88526012600452602488fd5b506111ef916111ea906111e4565b88956111cf565b6377ebef4d60e01b8752600487fd5b503d8087833e611a1f8183612270565b810190602081830312610ba0578051906001600160401b0382116118c757016102e081830312610ba057604051916102e083018381106001600160401b03821117611ca65760405281516006811015611ca257835260208201516005811015611ca25760208401526040820151600f811015611ca25760408401526060820151600f811015611ca2576060840152611ab96080830161270e565b6080840152611aca60a0830161270e565b60a0840152611adb60c0830161270e565b60c0840152611aec60e0830161270e565b60e08401526101008201516101008401526101208201516101208401526101408201516101408401526101608201516101608401526101808201516101808401526101a08201516101a08401526101c08201516101c08401526101e08201516101e08401526102008201516001600160401b038111611ca25781611b719184016129c2565b6102008401526102208201516001600160401b038111611ca25781611b979184016129c2565b6102208401526102408201516001600160401b038111611ca257820181601f82011215611ca257805190611bca82612291565b92611bd86040519485612270565b82845260206060818601940283010191818311611c9e57602001925b828410611c3c575050505082916102c09391610240859301526102608101516102608401526102808101516102808401526102a08101516102a0840152015182820152611181565b606084830312611c9e57604051606081018181106001600160401b03821117611c8a579160209160609360405286518152828701518382015260408701516040820152815201930192611bf4565b634e487b7160e01b8e52604160045260248efd5b8b80fd5b8880fd5b634e487b7160e01b89526041600452602489fd5b506020823d602011611cec575b81611cd460209383612270565b8101031261021057611ce760249261270e565b61114b565b3d9150611cc7565b50604051903d90823e3d90fd5b604051630662ded760e41b81526004803590820152602481018290526020816044816001600160a01b0387165afa9081156118d3578891611f5a575b5087905b808210611d58575050611d5390612a84565b6110e4565b60405163092d751360e01b8152600480359082015260248101849052604481018390529194909189816064816001600160a01b0389165afa908115611f4f578a91611dd8575b5060019160e0611dd092848060a01b03604082015116611dc18461014051612a70565b5201516114158260a051612a70565b940190611d41565b90503d808b833e611de98183612270565b8101906020818303126114b4578051906001600160401b038211611c9e57610100828201840312611c9e576040519261010084018481106001600160401b03821117611c8a5760405282820151600e811015611f4b578452602083830101516006811015611f4b576020850152611e6460408484010161270e565b6040850152818301606081810151908601526080808201519086015260a001516001600160401b038111611f4b5781611ea091858501016128c2565b60a085015260c08383010151906001600160401b038211611f4b5780601f8386860101011215611f4b5781848401015190611eda82612291565b92611ee86040519485612270565b82845260208085019360051b82888801010101918211611f475784860101602001915b818310611f2c5750505060c08401520160e090810151908201526001611d9e565b82516005811015611f4557815260209283019201611f0b565b505b8f80fd5b8d80fd5b6040513d8c823e3d90fd5b90506020813d8211611f83575b81611f7460209383612270565b810103126118c7575138611d3d565b3d9150611f67565b604051630662ded760e41b81526004803590820152602481018390526020816044816001600160a01b0388165afa9081156118d3578891611fe1575b50611fd590611fdb92612448565b91612a84565b906110bb565b90506020813d821161200c575b81611ffb60209383612270565b810103126118c75751611fdb611fc7565b3d9150611fee565b6120299192503d8086833e6118f78183612270565b906101005290386110af565b630c35bf6960e01b8352600483fd5b90506020813d60201161206e575b8161205f60209383612270565b81010312610ce2575138610fa5565b3d9150612052565b6040513d87823e3d90fd5b9150506040813d6040116120b2575b8161209d60409383612270565b81010312610cf5576020815191015138610f52565b3d9150612090565b6004358952600660205285892054925090816120d68285612448565b11156120e957505b610120523880610efb565b6120f4915082612448565b6120de565b90506020813d602011612123575b8161211460209383612270565b81010312610cf5575138610ebd565b3d9150612107565b633637f14560e11b8252600482fd5b50346102105760203660031901126102105760406020916004358152600483522054604051908152f35b50346102105760203660031901126102105761217e6121a9565b6121866126d8565b600180546001600160a01b0319166001600160a01b039290921691909117905580f35b600435906001600160a01b03821682036121bf57565b600080fd5b606435906001600160a01b03821682036121bf57565b604435906001600160a01b03821682036121bf57565b906020808351928381520192019060005b81811061220e5750505090565b8251845260209384019390920191600101612201565b60a081019081106001600160401b0382111761223f57604052565b634e487b7160e01b600052604160045260246000fd5b60e081019081106001600160401b0382111761223f57604052565b90601f801991011681019081106001600160401b0382111761223f57604052565b6001600160401b03811161223f5760051b60200190565b919060e0838203126121bf576040516122c081612255565b8093803582526020810135602083015260408101356040830152606081013560608301526080810135608083015260a081013560a083015260c0810135906001600160401b0382116121bf57019180601f840112156121bf57823561232481612291565b936123326040519586612270565b81855260208086019260051b8201019283116121bf57602001905b82821061235d5750505060c00152565b813581526020918201910161234d565b6064359081151582036121bf57565b6084359081151582036121bf57565b60a4359081151582036121bf57565b9060e060c06123e993805184526020810151602085015260408101516040850152606081015160608501526080810151608085015260a081015160a08501520151918160c082015201906121f0565b90565b600054811015612406576000805260206000200190600090565b634e487b7160e01b600052603260045260246000fd5b6040519061242982612224565b6000608083828152826020820152606060408201526060808201520152565b9190820180921161245557565b634e487b7160e01b600052601160045260246000fd5b906040519182815491828252602082019060005260206000209260005b81811061249f57505061249d92500383612270565b565b8454835260019485019487945060209093019201612488565b906040516124c581612255565b60c061250a600683958054855260018101546020860152600281015460408601526003810154606086015260048101546080860152600581015460a08601520161246b565b910152565b8115612519570490565b634e487b7160e01b600052601260045260246000fd5b60005260026020526040600020600080600683018054908054905b82851061257e575050506125649150600283015490612448565b80156125775760036123e992015461250f565b5050600090565b9091926000838610156125d157602081848893522001906000915491600183018093116125bd57506001916125b291612448565b94019392919061254a565b634e487b7160e01b81526011600452602490fd5b634e487b7160e01b81526032600452602490fd5b8181029291811591840414171561245557565b60009392600f811015806126b557600d821480156126cb575b1561265757505090919250600052600260205260406000209060028101809111612455576123e991612652612645836123ec565b90549060031b1c916124b8565b612db3565b6126b557600c81149081156126aa575b50612670575050565b90919250600182018092116124555761268b6123e9926123ec565b90549060031b1c906000526002602052600160406000200154906125e5565b600591501438612667565b634e487b7160e01b600052602160045260246000fd5b5050600060068214612611565b600080516020612f91833981519152546001600160a01b031633036126f957565b63118cdaa760e01b6000523360045260246000fd5b51906001600160a01b03821682036121bf57565b600154604051631bae711d60e21b8152602060048201819052600d60248301526c21b7b739b2b739bab9a6b0b4b760991b60448301529091829060649082906001600160a01b03165afa9081156127b25760009161277e575090565b90506020813d6020116127aa575b8161279960209383612270565b810103126121bf576123e99061270e565b3d915061278c565b6040513d6000823e3d90fd5b600154604051631bae711d60e21b8152602060048201819052600c60248301526b2332b2b9a932b1b7b93232b960a11b60448301529091829060649082906001600160a01b03165afa9081156127b257600091612823575b506001600160a01b031690565b90506020813d602011612855575b8161283e60209383612270565b810103126121bf5761284f9061270e565b38612816565b3d9150612831565b600154604051631bae711d60e21b8152602060048201819052600d60248301526c2332b2b9a83937b1b2b9b9b7b960991b60448301529091829060649082906001600160a01b03165afa9081156127b25760009161282357506001600160a01b031690565b9080601f830112156121bf5781516128d981612291565b926128e76040519485612270565b81845260208085019260051b8201019283116121bf57602001905b82821061290f5750505090565b6020809161291c8461270e565b815201910190612902565b91906040838203126121bf5782516001600160401b0381116121bf578161294f9185016128c2565b926020810151906001600160401b0382116121bf57019080601f830112156121bf57815161297c81612291565b9261298a6040519485612270565b81845260208085019260051b8201019283116121bf57602001905b8282106129b25750505090565b81518152602091820191016129a5565b81601f820112156121bf578051906001600160401b03821161223f57604051926129f6601f8401601f191660200185612270565b828452602083830101116121bf5760005b828110612a1c57505060206000918301015290565b80602080928401015182828701015201612a07565b9190820391821161245557565b90612a4882612291565b612a556040519182612270565b8281528092612a66601f1991612291565b0190602036910137565b80518210156124065760209160051b010190565b60001981146124555760010190565b60206000549182815201906000805260206000209060005b818110612ab85750505090565b8254845260209093019260019283019201612aab565b9392949194612cbf575b83600052600260205260c06006604060002083518155602084015160018201556040840151612b0c60028301918254612448565b90556060840151612b2260038301918254612448565b905560a0840151612b3860058301918254612448565b90550191015191612b488261246b565b93612b5e612b598651865190612448565b612a3e565b9560005b8651811015612b8a5780612b7860019289612a70565b51612b83828b612a70565b5201612b62565b5090919295939660005b8851811015612bc65780612baa6001928b612a70565b51612bbf612bb9838b51612448565b89612a70565b5201612b94565b50939296509350938151916001600160401b03831161223f57600160401b831161223f578154838355808410612c96575b5060200190600052602060002060005b838110612c82575050505060207f67d0e404ded3c02d8c1ecf6234395f5e13d3687137ad025e08d1f9480ca2e98f9183600052600382526040600020612c4e828254612448565b905560008481526005835260409081902080546001600160a01b0319166001600160a01b03909716968717905551908152a3565b600190602084519401938184015501612c07565b8260005283602060002091820191015b818110612cb35750612bf7565b60008155600101612ca6565b6001600160a01b03612ccf612efe565b1660206040518092631837854360e11b8252608060048301528180612d18612cfa608483018961239a565b8c602484015260006044840152600319838203016064840152612a93565b03915afa80156127b2578691600091612d44575b501115612ad857630c35bf6960e01b60005260046000fd5b9150506020813d602011612d71575b81612d6060209383612270565b810103126121bf5785905138612d2c565b3d9150612d53565b90612d88906001811690612448565b906000526002602052600260406000200154908160011b918083046002149015171561245557111590565b612e11939290916020906001600160a01b03612dcd612efe565b166040518080988194631837854360e11b835260806004840152612df4608484018a61239a565b906024840152876044840152600319838203016064840152612a93565b03915afa9384156127b257600094612e5c575b506008548481612e49575b505015612e395750565b9160606123e99293015190612448565b612e549295506125e5565b923880612e2f565b90936020823d602011612e88575b81612e7760209383612270565b810103126102105750519238612e24565b3d9150612e6a565b600080516020612fd183398151915280546001600160a01b0319908116909155600080516020612f9183398151915280549182166001600160a01b0393841690811790915591167f8be0079c531659141344cd1fd0a4f28419497f9722a3daafe3b4186f6b6457e0600080a3565b600154604051631bae711d60e21b8152602060048201819052600c60248301526b2332b2b9ab32b934b334b2b960a11b60448301529091829060649082906001600160a01b03165afa9081156127b25760009161282357506001600160a01b031690565b60ff600080516020612fb18339815191525460401c1615612f7f57565b631afcd79f60e31b60005260046000fdfe9016d09d72d40fdae2fd8ceac6b6234c7706214fd39c1cd1e609a0528c199300f0c57e16840df040f15088dc2f81fe391c3923bec73e23a9662efc9c229c6a00237e158222e3e6968b72b9db0d8043aacf074ad9f650f0d1606b4d82ee432c00a26469706673582212206ecf1209d0a6ac0372a8e433374b979216f09081b24c75c25ab857db478753f864736f6c634300081c0033",
  "linkReferences": {},
  "deployedLinkReferences": {}
}