{
  "_format": "hh-sol-artifact-1",
  "contractName": "ActivationPhase",
  "sourceName": "contracts/phases/ActivationPhase.sol",
  "abi": [
    {
      "inputs": [],
      "stateMutability": "nonpayable",
      "type": "constructor"
    },
    {
      "inputs": [],
      "name": "CallerNotActivator",
      "type": "error"
    },
    {
      "inputs": [],
      "name": "InvalidInitialization",
      "type": "error"
    },
    {
      "inputs": [],
      "name": "NotInitializing",
      "type": "error"
    },
    {
      "inputs": [
        {
          "internalType": "address",
          "name": "owner",
          "type": "address"
        }
      ],
      "name": "OwnableInvalidOwner",
      "type": "error"
    },
    {
      "inputs": [
        {
          "internalType": "address",
          "name": "account",
          "type": "address"
        }
      ],
      "name": "OwnableUnauthorizedAccount",
      "type": "error"
    },
    {
      "inputs": [],
      "name": "ReentrancyGuardReentrantCall",
      "type": "error"
    },
    {
      "inputs": [],
      "name": "TransactionNotAtPendingQueueHead",
      "type": "error"
    },
    {
      "inputs": [],
      "name": "Unauthorized",
      "type": "error"
    },
    {
      "anonymous": false,
      "inputs": [
        {
          "indexed": true,
          "internalType": "bytes32",
          "name": "txId",
          "type": "bytes32"
        },
        {
          "indexed": true,
          "internalType": "address",
          "name": "oldActivator",
          "type": "address"
        },
        {
          "indexed": true,
          "internalType": "address",
          "name": "newActivator",
          "type": "address"
        }
      ],
      "name": "ActivatorReplaced",
      "type": "event"
    },
    {
      "anonymous": false,
      "inputs": [
        {
          "indexed": true,
          "internalType": "address",
          "name": "caller",
          "type": "address"
        },
        {
          "indexed": false,
          "internalType": "bool",
          "name": "authorized",
          "type": "bool"
        }
      ],
      "name": "AuthorizedCallerUpdated",
      "type": "event"
    },
    {
      "anonymous": false,
      "inputs": [
        {
          "indexed": false,
          "internalType": "uint64",
          "name": "version",
          "type": "uint64"
        }
      ],
      "name": "Initialized",
      "type": "event"
    },
    {
      "anonymous": false,
      "inputs": [
        {
          "indexed": true,
          "internalType": "address",
          "name": "previousOwner",
          "type": "address"
        },
        {
          "indexed": true,
          "internalType": "address",
          "name": "newOwner",
          "type": "address"
        }
      ],
      "name": "OwnershipTransferStarted",
      "type": "event"
    },
    {
      "anonymous": false,
      "inputs": [
        {
          "indexed": true,
          "internalType": "address",
          "name": "previousOwner",
          "type": "address"
        },
        {
          "indexed": true,
          "internalType": "address",
          "name": "newOwner",
          "type": "address"
        }
      ],
      "name": "OwnershipTransferred",
      "type": "event"
    },
    {
      "anonymous": false,
      "inputs": [
        {
          "indexed": true,
          "internalType": "bytes32",
          "name": "txId",
          "type": "bytes32"
        },
        {
          "indexed": true,
          "internalType": "address",
          "name": "leader",
          "type": "address"
        }
      ],
      "name": "TransactionActivated",
      "type": "event"
    },
    {
      "anonymous": false,
      "inputs": [
        {
          "indexed": true,
          "internalType": "bytes32",
          "name": "txId",
          "type": "bytes32"
        }
      ],
      "name": "TransactionCanceled",
      "type": "event"
    },
    {
      "anonymous": false,
      "inputs": [
        {
          "indexed": true,
          "internalType": "bytes32",
          "name": "txId",
          "type": "bytes32"
        },
        {
          "indexed": true,
          "internalType": "address",
          "name": "cancelledBy",
          "type": "address"
        }
      ],
      "name": "TransactionCancelled",
      "type": "event"
    },
    {
      "anonymous": false,
      "inputs": [
        {
          "indexed": true,
          "internalType": "bytes32",
          "name": "txId",
          "type": "bytes32"
        }
      ],
      "name": "TransactionUndetermined",
      "type": "event"
    },
    {
      "anonymous": false,
      "inputs": [
        {
          "indexed": true,
          "internalType": "bytes32",
          "name": "txId",
          "type": "bytes32"
        },
        {
          "indexed": true,
          "internalType": "address",
          "name": "recipient",
          "type": "address"
        },
        {
          "indexed": false,
          "internalType": "uint256",
          "name": "value",
          "type": "uint256"
        }
      ],
      "name": "ValueWithdrawalFailed",
      "type": "event"
    },
    {
      "inputs": [],
      "name": "acceptOwnership",
      "outputs": [],
      "stateMutability": "nonpayable",
      "type": "function"
    },
    {
      "inputs": [
        {
          "components": [
            {
              "internalType": "bytes32",
              "name": "txId",
              "type": "bytes32"
            },
            {
              "internalType": "address",
              "name": "operator",
              "type": "address"
            },
            {
              "internalType": "address",
              "name": "wallet",
              "type": "address"
            },
            {
              "internalType": "bytes",
              "name": "vrfProof",
              "type": "bytes"
            }
          ],
          "internalType": "struct IActivationPhase.ActivateTransactionParams",
          "name": "params",
          "type": "tuple"
        }
      ],
      "name": "activateTransaction",
      "outputs": [
        {
          "components": [
            {
              "internalType": "bool",
              "name": "success",
              "type": "bool"
            },
            {
              "internalType": "bool",
              "name": "canceled",
              "type": "bool"
            },
            {
              "internalType": "address",
              "name": "recipient",
              "type": "address"
            },
            {
              "internalType": "uint256",
              "name": "leaderIndex",
              "type": "uint256"
            },
            {
              "internalType": "address[]",
              "name": "validators",
              "type": "address[]"
            },
            {
              "internalType": "bool",
              "name": "wasActivatorReplaced",
              "type": "bool"
            },
            {
              "internalType": "address",
              "name": "oldActivator",
              "type": "address"
            },
            {
              "internalType": "address",
              "name": "newActivator",
              "type": "address"
            },
            {
              "internalType": "address",
              "name": "leader",
              "type": "address"
            }
          ],
          "internalType": "struct IActivationPhase.ActivateTransactionResult",
          "name": "result",
          "type": "tuple"
        }
      ],
      "stateMutability": "nonpayable",
      "type": "function"
    },
    {
      "inputs": [],
      "name": "addressManager",
      "outputs": [
        {
          "internalType": "contract IAddressManager",
          "name": "",
          "type": "address"
        }
      ],
      "stateMutability": "view",
      "type": "function"
    },
    {
      "inputs": [
        {
          "internalType": "address",
          "name": "",
          "type": "address"
        }
      ],
      "name": "authorizedCallers",
      "outputs": [
        {
          "internalType": "bool",
          "name": "",
          "type": "bool"
        }
      ],
      "stateMutability": "view",
      "type": "function"
    },
    {
      "inputs": [
        {
          "internalType": "address",
          "name": "_addressManager",
          "type": "address"
        }
      ],
      "name": "initialize",
      "outputs": [],
      "stateMutability": "nonpayable",
      "type": "function"
    },
    {
      "inputs": [
        {
          "internalType": "address",
          "name": "caller",
          "type": "address"
        }
      ],
      "name": "isAuthorizedCaller",
      "outputs": [
        {
          "internalType": "bool",
          "name": "",
          "type": "bool"
        }
      ],
      "stateMutability": "view",
      "type": "function"
    },
    {
      "inputs": [],
      "name": "owner",
      "outputs": [
        {
          "internalType": "address",
          "name": "",
          "type": "address"
        }
      ],
      "stateMutability": "view",
      "type": "function"
    },
    {
      "inputs": [],
      "name": "pendingOwner",
      "outputs": [
        {
          "internalType": "address",
          "name": "",
          "type": "address"
        }
      ],
      "stateMutability": "view",
      "type": "function"
    },
    {
      "inputs": [],
      "name": "renounceOwnership",
      "outputs": [],
      "stateMutability": "nonpayable",
      "type": "function"
    },
    {
      "inputs": [
        {
          "internalType": "address",
          "name": "_addressManager",
          "type": "address"
        }
      ],
      "name": "setAddressManager",
      "outputs": [],
      "stateMutability": "nonpayable",
      "type": "function"
    },
    {
      "inputs": [
        {
          "internalType": "address",
          "name": "caller",
          "type": "address"
        },
        {
          "internalType": "bool",
          "name": "authorized",
          "type": "bool"
        }
      ],
      "name": "setAuthorizedCaller",
      "outputs": [],
      "stateMutability": "nonpayable",
      "type": "function"
    },
    {
      "inputs": [
        {
          "internalType": "address[]",
          "name": "callers",
          "type": "address[]"
        },
        {
          "internalType": "bool",
          "name": "authorized",
          "type": "bool"
        }
      ],
      "name": "setAuthorizedCallers",
      "outputs": [],
      "stateMutability": "nonpayable",
      "type": "function"
    },
    {
      "inputs": [
        {
          "internalType": "address",
          "name": "newOwner",
          "type": "address"
        }
      ],
      "name": "transferOwnership",
      "outputs": [],
      "stateMutability": "nonpayable",
      "type": "function"
    }
  ],
  "bytecode": "0x6080806040523460d2577ff0c57e16840df040f15088dc2f81fe391c3923bec73e23a9662efc9c229c6a005460ff8160401c1660c1576002600160401b03196001600160401b03821601605c575b60405161290690816100d88239f35b6001600160401b0319166001600160401b039081177ff0c57e16840df040f15088dc2f81fe391c3923bec73e23a9662efc9c229c6a005581527fc7f505b2f371ae2175ee4913f4499e1f2633a7b5936321eed1cdaeb6115181d290602090a13880604d565b63f92ee8a960e01b60005260046000fd5b600080fdfe6080604052600436101561001257600080fd5b60003560e01c80630652b57a146107cc578063090263a7146106d357806320ffefc5146105115780633ab76e9f146104e8578063454bbd291461046a578063536fff6c1461042b57806359d14b411461042b578063715018a6146103aa57806379ba5097146103585780638da5cb5b14610322578063c4d66de81461016d578063e30c3978146101375763f2fde38b146100ab57600080fd5b34610132576020366003190112610132576100c461080f565b6100cc6125bf565b6000805160206128b183398151915280546001600160a01b0319166001600160a01b03928316908117909155600080516020612851833981519152549091167f38d16b8cac22d99fc7c124b9cd0de2d3fa1faef420bfe791d8c362d765e22700600080a3005b600080fd5b34610132576000366003190112610132576000805160206128b1833981519152546040516001600160a01b039091168152602090f35b346101325760203660031901126101325761018661080f565b600080516020612891833981519152549060ff8260401c1615916001600160401b0381168015908161031a575b6001149081610310575b159081610307575b506102f65767ffffffffffffffff19811660011760008051602061289183398151915255826102c9575b506101f8612822565b610200612822565b610208612822565b33156102b357610217336127b4565b61021f612822565b610227612822565b600160008051602061287183398151915255600080546001600160a01b0319166001600160a01b039290921691909117905561025f57005b60ff60401b196000805160206128918339815191525416600080516020612891833981519152557fc7f505b2f371ae2175ee4913f4499e1f2633a7b5936321eed1cdaeb6115181d2602060405160018152a1005b631e4fbdf760e01b600052600060045260246000fd5b68ffffffffffffffffff1916680100000000000000011760008051602061289183398151915255826101ef565b63f92ee8a960e01b60005260046000fd5b905015846101c5565b303b1591506101bd565b8491506101b3565b3461013257600036600319011261013257600080516020612851833981519152546040516001600160a01b039091168152602090f35b34610132576000366003190112610132576000805160206128b183398151915254336001600160a01b039091160361039557610393336127b4565b005b63118cdaa760e01b6000523360045260246000fd5b34610132576000366003190112610132576103c36125bf565b6000805160206128b183398151915280546001600160a01b0319908116909155600080516020612851833981519152805491821690556000906001600160a01b03167f8be0079c531659141344cd1fd0a4f28419497f9722a3daafe3b4186f6b6457e08280a3005b34610132576020366003190112610132576001600160a01b0361044c61080f565b166000526001602052602060ff604060002054166040519015158152f35b346101325760403660031901126101325761048361080f565b7fad857fa38c9319cb80848f1ef2f924383b90297eb5d71755738ff037d100faa160206104ae610825565b926104b76125bf565b6001600160a01b031660008181526001835260409020805460ff191660ff86151516179055926040519015158152a2005b34610132576000366003190112610132576000546040516001600160a01b039091168152602090f35b34610132576020366003190112610132576004356001600160401b03811161013257608060031982360301126101325760006101006040516105528161086e565b828152826020820152826040820152826060820152606060808201528260a08201528260c08201528260e0820152015233600052600160205260ff60406000205416156106c357600260008051602061287183398151915254146106b2576105ce90600260008051602061287183398151915255600401610e79565b6001600080516020612871833981519152556040516020815261014081019180511515602083015260208101511515604083015260018060a01b0360408201511660608301526060810151608083015260808101519061012060a084015281518094526020610160840192016000945b80861061068f57505060a0810151151560c0808501919091528101516001600160a01b0390811660e08086019190915282015181166101008086019190915290910151166101208301528190039150f35b81516001600160a01b03168452600195909501946020938401939091019061063e565b633ee5aeb560e01b60005260046000fd5b6282b42960e81b60005260046000fd5b34610132576040366003190112610132576004356001600160401b03811161013257366023820112156101325780600401356001600160401b038111610132576024820191602436918360051b0101116101325761072f610825565b6107376125bf565b8015159060005b83811061074757005b6001906001600160a01b0361076561076083888a610834565b61085a565b16600052816020526107878360406000209060ff801983541691151516179055565b818060a01b0361079b61076083888a610834565b167fad857fa38c9319cb80848f1ef2f924383b90297eb5d71755738ff037d100faa16020604051878152a20161073e565b34610132576020366003190112610132576107e561080f565b6107ed6125bf565b600080546001600160a01b0319166001600160a01b0392909216919091179055005b600435906001600160a01b038216820361013257565b60243590811515820361013257565b91908110156108445760051b0190565b634e487b7160e01b600052603260045260246000fd5b356001600160a01b03811681036101325790565b61012081019081106001600160401b0382111761088a57604052565b634e487b7160e01b600052604160045260246000fd5b606081019081106001600160401b0382111761088a57604052565b90601f801991011681019081106001600160401b0382111761088a57604052565b51906001600160a01b038216820361013257565b60005b8381106109035750506000910152565b81810151838201526020016108f3565b81601f820112156101325780516001600160401b03811161088a5760405192610946601f8301601f1916602001856108bb565b818452602082840101116101325761096491602080850191016108f0565b90565b6001600160401b03811161088a5760051b60200190565b602081830312610132578051906001600160401b03821161013257016102e08183031261013257604051916102e083018381106001600160401b0382111761088a5760405281516006811015610132578352602082015160058110156101325760208401526040820151600f8110156101325760408401526060820151600f811015610132576060840152610a15608083016108dc565b6080840152610a2660a083016108dc565b60a0840152610a3760c083016108dc565b60c0840152610a4860e083016108dc565b60e08401526101008201516101008401526101208201516101208401526101408201516101408401526101608201516101608401526101808201516101808401526101a08201516101a08401526101c08201516101c08401526101e08201516101e08401526102008201516001600160401b0381116101325781610acd918401610913565b6102008401526102208201516001600160401b0381116101325781610af3918401610913565b6102208401526102408201516001600160401b03811161013257820181601f8201121561013257805190610b2682610967565b92610b3460405194856108bb565b8284526020606081860194028301019181831161013257602001925b828410610b955750505050906102c0916102408401526102608101516102608401526102808101516102808401526102a08101516102a084015201516102c082015290565b606084830312610132576020606091604051610bb0816108a0565b86518152828701518382015260408701516040820152815201930192610b50565b5190811515820361013257565b90600f821015610beb5752565b634e487b7160e01b600052602160045260246000fd5b9080601f83011215610132578151610c1881610967565b92610c2660405194856108bb565b81845260208085019260051b82010192831161013257602001905b828210610c4e5750505090565b8151815260209182019101610c41565b90602091610c77815180928185528580860191016108f0565b601f01601f1916010190565b9081516006811015610beb57815260208201516005811015610beb576020820152610cb660408301516040830190610bde565b610cc860608301516060830190610bde565b60018060a01b03608083015116608082015260018060a01b0360a08301511660a082015260018060a01b0360c08301511660c082015260018060a01b0360e08301511660e08201526101008201516101008201526101208201516101208201526101408201516101408201526101608201516101608201526101808201516101808201526101a08201516101a08201526101c08201516101c08201526101e08201516101e0820152610da4610d906102008401516102e06102008501526102e0840190610c5e565b610220840151838203610220850152610c5e565b91610240810151928281036102408401526020808551928381520194019060005b818110610e00575050506102c081610260829301516102608501526102808101516102808501526102a08101516102a0850152015191015290565b9091946020606060019260408951805183528481015185840152015160408201520196019101919091610dc5565b919082604091031261013257610964602083519301610bd1565b9190826040910312610132576020610e5f83610bd1565b92015190565b80518210156108445760209160051b010190565b90606491610e856125e0565b610e8d612691565b90600092602060018060a01b0385541660405197888092631bae711d60e21b82528460048301526006602483015265526f756e647360d01b60448301525afa90811561222b578491612583575b60649650610ee66126f1565b90602060018060a01b03875416604051998a8092631bae711d60e21b825284600483015260056024830152645574696c7360d81b60448301525afa93841561257857869461253c575b8654604051631bae711d60e21b8152602060048201819052600a60248301526923b2b726b0b730b3b2b960b11b6044830152909a50908a9060649082906001600160a01b03165afa9889156117845787996124fc575b5060405163255709e560e11b8152823560048201529587876024816001600160a01b0386165afa9687156115b85788976124e0575b5060c0870151604051634113628960e11b81526001600160a01b0391821660048201819052853560248301529791602090829060449082908a165afa908115611604578a916124a6575b501561249757906024959493929160208c60405198898092631c5f1acf60e31b82528c600483015260018060a01b03165afa968715611604578a97612463575b506110516020850161085a565b9b60608501359c8d601e1987360301131561186e576001600160401b039d86019d8e351161186e578d35360360208f011361186e57604051634f51e1cf60e01b8152600481018b90526001600160a01b039091166024820152606060448201528d3560648201819052909d8e918291906020820160848401376084903582810182018f90526001600160a01b0390941693601f01601f191682019190910301818d5a94602095f19b8c15611604578a9c61242f575b506102608901518015159081612425575b50612355576060890151600f811015612341576001600160a01b0382163b156118455761115d60448c926040519485938492633813abfb60e21b84526004840190610bde565b600160248301526001600160a01b03165afa80156116045761232d575b506001600160a01b0382163b156115eb57604051632021656d60e21b815283356004820152602481018c90528981604481836001600160a01b0388165af1801561160457908a91612318575b505060018060a01b03169060408301946111df8661085a565b60e08a0180516040516319f1c28760e11b81526001600160a01b03938416600482015292166024830152604482019890985260806064820152988a8a806112296084820185610c83565b038183885af19788156120cf578b809981829d8392612282575b506119fc5750508b978c99611972575b60405163ba15d63560e01b8152873560048201526020816024816001600160a01b0389165afa908115611965578e91611933575b50159182611911575b5050611902576001600160a01b0383163b15611845576040516346f32a5d60e11b815285356004820152600260248201528b81604481836001600160a01b0389165af1801561187257908c916118ed575b50508a54604051631bae711d60e21b815260206004820152600a6024820152692332b2a6b0b730b3b2b960b11b60448201529d908e9081906001600160a01b03165a92606491602094fa9d8e15611872578c9e6118b1575b50604051634bfa137360e11b81529d8e9081906001600160a01b03165a92600491602094fa9d8e15611872578c9e61187d575b506001600160a01b0384163b1561186e5760405163068c6f1b60e31b815286356004820152602481019e909e528b8e604481836001600160a01b0389165af19d8e15611872578c9d9e9c98999a9b9c611849575b506101a08201526040516318a5028f60e31b815260206004820152969187918290849082906113f3906024830190610c83565b03926001600160a01b03165af1938415611604578a8b968c9661178f575b5061161357506001600160a01b0381163b1561160f5760405163343be44b60e01b815283356004820152436024820152604481018b9052606481018b9052908a908290608490829084906001600160a01b03165af1801561160457908a916115ef575b5050803b156115eb57888091606460405180948193634e8eb8bd60e01b835287356004840152600260248401524260448401525af180156115e05787918a916115c3575b5061150a9260409291506001600160a01b036114d261274f565b845162fb9bd760e01b8152923560048401526001600160a01b03909316602483015290938492919091169082908c9082906044820190565b03925af180156115b85761158a575b506001600160a01b0361152c8284610e65565b511695831561158257945b604051976115448961086e565b600189526020890152604088015260608701526080860152151560a08501526001600160a01b0390811660c08501521660e083015261010082015290565b508694611537565b6115ab9060403d6040116115b1575b6115a381836108bb565b810190610e48565b50611519565b503d611599565b6040513d8a823e3d90fd5b819250906115d0916108bb565b6115dc578588386114b8565b8780fd5b6040513d8b823e3d90fd5b8880fd5b816115f9916108bb565b6115eb578838611474565b6040513d8c823e3d90fd5b8980fd5b6040805163910048fb60e01b81526001600160a01b038b81166004830152863560248301529a9c9b9a9397509495509250839160449183918c91165af1908115611784578791611753575b506116db575b5050604051926116756020856108bb565b848452600036813781156116d357925b604051956116928761086e565b858752602087018690526040870152606086018590526080860152151560a08501526001600160a01b0390811660c08501521660e083015261010082015290565b508392611685565b6001600160a01b0382163b1561174f576040516346f32a5d60e11b815290356004820152600660248201529085908290604490829084906001600160a01b03165af1801561174457908591156116645781611735916108bb565b611740578338611664565b8380fd5b6040513d87823e3d90fd5b8580fd5b611775915060403d60401161177d575b61176d81836108bb565b810190610e2e565b90503861165e565b503d611763565b6040513d89823e3d90fd5b96505093503d808b873e6117a381876108bb565b850193606086860312611845576117b986610bd1565b9560208101516001600160401b0381116118415781019580601f880112156118415786516117e681610967565b976117f4604051998a6108bb565b8189526020808a019260051b82010192831161183d57602001905b8282106118255750505060400151949538611411565b60208091611832846108dc565b81520191019061180f565b8e80fd5b8c80fd5b8a80fd5b8861185c919992939495969798996108bb565b61186e57908b969594939291386113c0565b8b80fd5b6040513d8e823e3d90fd5b909d506020813d6020116118a9575b81611899602093836108bb565b8101031261013257519c3861136c565b3d915061188c565b909d506020813d6020116118e5575b816118cd602093836108bb565b8101031261186e576118de906108dc565b9c38611339565b3d91506118c0565b816118f7916108bb565b611845578a386112e1565b635ab554a760e11b8b5260048bfd5b516001600160a01b039081169250906119299061085a565b1614153880611290565b90506020813d60201161195d575b8161194e602093836108bb565b81010312610132575138611287565b3d9150611941565b8e604051903d90823e3d90fd5b81516001600160a01b039081169a506001995085163b1561184157604051635556edb560e01b8152873560048201526001600160a01b038d1660248201528d8180604481010381836001600160a01b038b165af1801561196557908e916119e7575b50506001600160a01b038c168252611253565b816119f1916108bb565b611841578c386119d4565b9b509b9d505050509350509088935060018060a01b0383163b15611740576040516346f32a5d60e11b815282356004820152600860248201528481604481836001600160a01b0389165af190811561174457859161226d575b5050604051639c88381960e01b81526001600160a01b038681166004830152833560248301529091602091839160449183918991165af1801561222b57612236575b50604051637e6d64a560e01b815281356004820152906020826024816001600160a01b0387165afa91821561222b5784926121f4575b506001600160a01b0383163b1561174057604051634ff736eb60e11b815260048101929092523560248201529082908290604490829084906001600160a01b03165af18015611cdd576121db575b505092611b266125e0565b90611b2f6126f1565b6001600160a01b0392831693921691865b8551811015611d6c57611b538187610e65565b5115611d6457611b638187610e65565b516040519063fbc6da7560e01b82526004820152602081602481895afa9081156115e0578991611d25575b506040611bcd91611b9f848a610e65565b51825163910048fb60e01b81526001600160a01b039092166004830152602482015291829081906044820190565b03818c895af19081156115e0578991611d05575b50611bf1575b6001905b01611b40565b87611bfc8288610e65565b51863b15611d0157604051906346f32a5d60e11b82526004820152600660248201528181604481838b5af18015611cdd57611cec575b506001600160a01b03611c43612691565b16611c4e8389610e65565b51813b15611ce8578291606483926040519485938492634e8eb8bd60e01b84526004840152600560248401524260448401525af18015611cdd57611cc8575b505080611c9c60019288610e65565b517fb9f69df2250e1788b862d0715b1dad98b2a50311c017ebb71f6cd83de656b06d8a80a29050611be7565b81611cd2916108bb565b6115dc578738611c8d565b6040513d84823e3d90fd5b8280fd5b81611cf6916108bb565b6115dc578738611c32565b5080fd5b611d1d915060403d811161177d5761176d81836108bb565b905038611be1565b90506020813d8211611d5c575b81611d3f602093836108bb565b810103126115eb576040611d55611bcd926108dc565b9150611b8e565b3d9150611d32565b600190611beb565b50935093915050611d7b6126f1565b611d8361274f565b91611d8c6125e0565b916001600160a01b0316865b855181101561217b57611dab8187610e65565b511561217357611df16020611dc08389610e65565b51604051639c88381960e01b81526001600160a01b0387166004820152602481019190915291829081906044820190565b03818c875af19081156115e057899161213a575b50611e15575b6001905b01611d98565b6001600160a01b0384169088611e2b8289610e65565b51833b15611d0157604051906346f32a5d60e11b8252600482015260086024820152818160448183885af18015611cdd57612125575b50611e6c8289610e65565b5160405190637e6d64a560e01b82526004820152602081602481875afa908115611cdd5782916120ef575b50611ea2838a610e65565b51843b15611ce85760405191634ff736eb60e11b835260048301526024820152818160448183885af18015611cdd576120da575b50506001600160a01b038616611eec8289610e65565b51604051906333fbe41d60e11b82526004820152602081602481855afa9081156120cf578b91612099575b50611f59575b506001915088611f2d8289610e65565b517f0a94f6cf3e473cb72e765b24d1365bfcbef8d31a73215bb27e50df39757f578a8280a39050611e0b565b89611f64838a610e65565b5160246040518096819363255709e560e11b835260048301525afa92831561160457611fdb936040918c91612077575b5060a0611fa1858c610e65565b51910180518351630db1199160e41b815260048101939093526001600160a01b0316602483015290949092859182908e9082906044820190565b03925af1908115611604576001938b908c93612054575b508061204b575b612004575b50611f1d565b7fd7d0ee861c0ebf42599b922e8f4ad0cafed951841610157bcd56110f49ced8ee6020612031858c610e65565b5192868060a01b0390511693604051908152a33880611ffe565b50811515611ff9565b905061206f91925060403d81116115b1576115a381836108bb565b919038611ff2565b61209391503d808e833e61208b81836108bb565b81019061097e565b38611f94565b905060203d81116120c8575b6120af81836108bb565b602082600092810103126120c557505138611f17565b80fd5b503d6120a5565b6040513d8d823e3d90fd5b816120e4916108bb565b6115eb578838611ed6565b91505060203d811161211e575b61210681836108bb565b602082600092810103126120c5575089905138611e97565b503d6120fc565b8161212f916108bb565b6115eb578838611e61565b90506020813d821161216b575b81612154602093836108bb565b810103126115eb5761216590610bd1565b38611e05565b3d9150612147565b600190611e0f565b50509394925050506040516121916020826108bb565b8181526000368137604051926121a68461086e565b82845260016020850152604084015281606084015260808301528060a08301528060c08301528060e083015261010082015290565b816121e5916108bb565b6121f0578438611b1b565b8480fd5b935090506020833d602011612223575b81612211602093836108bb565b81010312610132578792519038611acd565b3d9150612204565b6040513d86823e3d90fd5b6020813d602011612265575b8161224f602093836108bb565b810103126117405761226090610bd1565b611a97565b3d9150612242565b81612277916108bb565b611740578338611a55565b9d5050505097503d808c8c3e612298818c6108bb565b8a019760a08b8a031261186e576122ae8b610bd1565b8b6122bb60208201610bd1565b9a60606122ca604084016108dc565b9201516001600160401b03811161231457818f916122e89201610c01565b9d6080810151906001600160401b03821161231257612308929101610c01565b909c919a38611243565b505b8f80fd5b81612322916108bb565b6115eb5788386111c6565b8961233a919a929a6108bb565b973861117a565b634e487b7160e01b8b52602160045260248bfd5b50505092505050606091949550839250604460018060a01b0361237661274f565b16916040519485938492632838322d60e01b84523560048401528160248401525af18015611cdd576123c6575b506040516123b26020826108bb565b81815281368137604051926121a68461086e565b6060813d60601161241d575b816123df606093836108bb565b81010312611d015761241360408051926123f8846108a0565b612401816108dc565b84526020810151602085015201610bd1565b60408201526123a3565b3d91506123d2565b9050421138611117565b909b506020813d60201161245b575b8161244b602093836108bb565b8101031261160f57519a38611106565b3d915061243e565b9096506020813d60201161248f575b8161247f602093836108bb565b8101031261160f57519538611044565b3d9150612472565b63042202b560e11b8952600489fd5b90506020813d6020116124d8575b816124c1602093836108bb565b8101031261160f576124d290610bd1565b38611004565b3d91506124b4565b6124f59197503d808a833e61208b81836108bb565b9538610fba565b9098506020813d602011612534575b81612518602093836108bb565b8101031261253057612529906108dc565b9738610f85565b8680fd5b3d915061250b565b93506020883d602011612570575b81612557602093836108bb565b8101031261174f5761256a6064986108dc565b93610f2f565b3d915061254a565b6040513d88823e3d90fd5b90506020863d6020116125b7575b8161259e602093836108bb565b81010312611740576125b16064966108dc565b90610eda565b3d9150612591565b600080516020612851833981519152546001600160a01b0316330361039557565b600054604051631bae711d60e21b815260206004820181905260126024830152712a3930b739b0b1ba34b7b726b0b730b3b2b960711b60448301529091829060649082906001600160a01b03165afa9081156126855760009161264b575b506001600160a01b031690565b90506020813d60201161267d575b81612666602093836108bb565b8101031261013257612677906108dc565b3861263e565b3d9150612659565b6040513d6000823e3d90fd5b600054604051631bae711d60e21b8152602060048201819052600860248301526749646c656e65737360c01b60448301529091829060649082906001600160a01b03165afa9081156126855760009161264b57506001600160a01b031690565b600054604051631bae711d60e21b8152602060048201819052600660248301526551756575657360d01b60448301529091829060649082906001600160a01b03165afa9081156126855760009161264b57506001600160a01b031690565b600054604051631bae711d60e21b8152602060048201819052600d60248301526c4372656174696f6e506861736560981b60448301529091829060649082906001600160a01b03165afa9081156126855760009161264b57506001600160a01b031690565b6000805160206128b183398151915280546001600160a01b031990811690915560008051602061285183398151915280549182166001600160a01b0393841690811790915591167f8be0079c531659141344cd1fd0a4f28419497f9722a3daafe3b4186f6b6457e0600080a3565b60ff6000805160206128918339815191525460401c161561283f57565b631afcd79f60e31b60005260046000fdfe9016d09d72d40fdae2fd8ceac6b6234c7706214fd39c1cd1e609a0528c1993009b779b17422d0df92223018b32b4d1fa46e071723d6817e2486d003becc55f00f0c57e16840df040f15088dc2f81fe391c3923bec73e23a9662efc9c229c6a00237e158222e3e6968b72b9db0d8043aacf074ad9f650f0d1606b4d82ee432c00a2646970667358221220c2a5402e36d59bad7e44871b13e759ce7fdfdac22f757635eb75d5dfcae03b3264736f6c634300081c0033",
  "linkReferences": {},
  "deployedLinkReferences": {}
}