{
  "_format": "hh-sol-artifact-1",
  "contractName": "Staking",
  "sourceName": "contracts/Staking.sol",
  "abi": [
    {
      "inputs": [],
      "name": "AccessControlBadConfirmation",
      "type": "error"
    },
    {
      "inputs": [
        {
          "internalType": "address",
          "name": "account",
          "type": "address"
        },
        {
          "internalType": "bytes32",
          "name": "neededRole",
          "type": "bytes32"
        }
      ],
      "name": "AccessControlUnauthorizedAccount",
      "type": "error"
    },
    {
      "inputs": [],
      "name": "ArrayLengthMismatch",
      "type": "error"
    },
    {
      "inputs": [
        {
          "internalType": "bytes4",
          "name": "selector",
          "type": "bytes4"
        }
      ],
      "name": "FunctionNotFound",
      "type": "error"
    },
    {
      "inputs": [],
      "name": "InvalidInitialization",
      "type": "error"
    },
    {
      "inputs": [],
      "name": "NotInitializing",
      "type": "error"
    },
    {
      "inputs": [
        {
          "internalType": "address",
          "name": "owner",
          "type": "address"
        }
      ],
      "name": "OwnableInvalidOwner",
      "type": "error"
    },
    {
      "inputs": [
        {
          "internalType": "address",
          "name": "account",
          "type": "address"
        }
      ],
      "name": "OwnableUnauthorizedAccount",
      "type": "error"
    },
    {
      "inputs": [],
      "name": "ReentrancyGuardReentrantCall",
      "type": "error"
    },
    {
      "anonymous": false,
      "inputs": [
        {
          "indexed": true,
          "internalType": "bytes4",
          "name": "selector",
          "type": "bytes4"
        },
        {
          "indexed": false,
          "internalType": "address",
          "name": "facet",
          "type": "address"
        }
      ],
      "name": "FacetSet",
      "type": "event"
    },
    {
      "anonymous": false,
      "inputs": [
        {
          "indexed": true,
          "internalType": "address",
          "name": "sender",
          "type": "address"
        },
        {
          "indexed": false,
          "internalType": "uint256",
          "name": "amount",
          "type": "uint256"
        }
      ],
      "name": "FeesReceived",
      "type": "event"
    },
    {
      "anonymous": false,
      "inputs": [
        {
          "indexed": false,
          "internalType": "uint64",
          "name": "version",
          "type": "uint64"
        }
      ],
      "name": "Initialized",
      "type": "event"
    },
    {
      "anonymous": false,
      "inputs": [
        {
          "indexed": true,
          "internalType": "address",
          "name": "previousOwner",
          "type": "address"
        },
        {
          "indexed": true,
          "internalType": "address",
          "name": "newOwner",
          "type": "address"
        }
      ],
      "name": "OwnershipTransferStarted",
      "type": "event"
    },
    {
      "anonymous": false,
      "inputs": [
        {
          "indexed": true,
          "internalType": "address",
          "name": "previousOwner",
          "type": "address"
        },
        {
          "indexed": true,
          "internalType": "address",
          "name": "newOwner",
          "type": "address"
        }
      ],
      "name": "OwnershipTransferred",
      "type": "event"
    },
    {
      "anonymous": false,
      "inputs": [
        {
          "indexed": true,
          "internalType": "bytes32",
          "name": "role",
          "type": "bytes32"
        },
        {
          "indexed": true,
          "internalType": "bytes32",
          "name": "previousAdminRole",
          "type": "bytes32"
        },
        {
          "indexed": true,
          "internalType": "bytes32",
          "name": "newAdminRole",
          "type": "bytes32"
        }
      ],
      "name": "RoleAdminChanged",
      "type": "event"
    },
    {
      "anonymous": false,
      "inputs": [
        {
          "indexed": true,
          "internalType": "bytes32",
          "name": "role",
          "type": "bytes32"
        },
        {
          "indexed": true,
          "internalType": "address",
          "name": "account",
          "type": "address"
        },
        {
          "indexed": true,
          "internalType": "address",
          "name": "sender",
          "type": "address"
        }
      ],
      "name": "RoleGranted",
      "type": "event"
    },
    {
      "anonymous": false,
      "inputs": [
        {
          "indexed": true,
          "internalType": "bytes32",
          "name": "role",
          "type": "bytes32"
        },
        {
          "indexed": true,
          "internalType": "address",
          "name": "account",
          "type": "address"
        },
        {
          "indexed": true,
          "internalType": "address",
          "name": "sender",
          "type": "address"
        }
      ],
      "name": "RoleRevoked",
      "type": "event"
    },
    {
      "stateMutability": "payable",
      "type": "fallback"
    },
    {
      "inputs": [],
      "name": "DEFAULT_ADMIN_ROLE",
      "outputs": [
        {
          "internalType": "bytes32",
          "name": "",
          "type": "bytes32"
        }
      ],
      "stateMutability": "view",
      "type": "function"
    },
    {
      "inputs": [],
      "name": "DEFAULT_DELEGATOR_MIN_STAKE",
      "outputs": [
        {
          "internalType": "uint256",
          "name": "",
          "type": "uint256"
        }
      ],
      "stateMutability": "view",
      "type": "function"
    },
    {
      "inputs": [],
      "name": "DEFAULT_VALIDATOR_MIN_STAKE",
      "outputs": [
        {
          "internalType": "uint256",
          "name": "",
          "type": "uint256"
        }
      ],
      "stateMutability": "view",
      "type": "function"
    },
    {
      "inputs": [],
      "name": "DELEGATOR_UNBONDING_PERIOD",
      "outputs": [
        {
          "internalType": "uint256",
          "name": "",
          "type": "uint256"
        }
      ],
      "stateMutability": "view",
      "type": "function"
    },
    {
      "inputs": [],
      "name": "INFLATION_BASE",
      "outputs": [
        {
          "internalType": "uint256",
          "name": "",
          "type": "uint256"
        }
      ],
      "stateMutability": "view",
      "type": "function"
    },
    {
      "inputs": [],
      "name": "INFLATION_DEEPTHOUGHT_BPS",
      "outputs": [
        {
          "internalType": "uint256",
          "name": "",
          "type": "uint256"
        }
      ],
      "stateMutability": "view",
      "type": "function"
    },
    {
      "inputs": [],
      "name": "INFLATION_DEVELOPER_BPS",
      "outputs": [
        {
          "internalType": "uint256",
          "name": "",
          "type": "uint256"
        }
      ],
      "stateMutability": "view",
      "type": "function"
    },
    {
      "inputs": [],
      "name": "INFLATION_FINAL",
      "outputs": [
        {
          "internalType": "uint256",
          "name": "",
          "type": "uint256"
        }
      ],
      "stateMutability": "view",
      "type": "function"
    },
    {
      "inputs": [],
      "name": "INFLATION_INITIAL",
      "outputs": [
        {
          "internalType": "uint256",
          "name": "",
          "type": "uint256"
        }
      ],
      "stateMutability": "view",
      "type": "function"
    },
    {
      "inputs": [],
      "name": "INFLATION_MID",
      "outputs": [
        {
          "internalType": "int256",
          "name": "",
          "type": "int256"
        }
      ],
      "stateMutability": "view",
      "type": "function"
    },
    {
      "inputs": [],
      "name": "INFLATION_STAKER_BPS",
      "outputs": [
        {
          "internalType": "uint256",
          "name": "",
          "type": "uint256"
        }
      ],
      "stateMutability": "view",
      "type": "function"
    },
    {
      "inputs": [],
      "name": "INFLATION_STEEPNESS",
      "outputs": [
        {
          "internalType": "int256",
          "name": "",
          "type": "int256"
        }
      ],
      "stateMutability": "view",
      "type": "function"
    },
    {
      "inputs": [],
      "name": "INFLATION_VALIDATOR_BPS",
      "outputs": [
        {
          "internalType": "uint256",
          "name": "",
          "type": "uint256"
        }
      ],
      "stateMutability": "view",
      "type": "function"
    },
    {
      "inputs": [],
      "name": "L1_MESSENGER",
      "outputs": [
        {
          "internalType": "contract IL1Messenger",
          "name": "",
          "type": "address"
        }
      ],
      "stateMutability": "view",
      "type": "function"
    },
    {
      "inputs": [],
      "name": "QUARANTINE_MANAGER_ROLE",
      "outputs": [
        {
          "internalType": "bytes32",
          "name": "",
          "type": "bytes32"
        }
      ],
      "stateMutability": "view",
      "type": "function"
    },
    {
      "inputs": [],
      "name": "SLASH_CALLER_INCENTIVE_BPS",
      "outputs": [
        {
          "internalType": "uint256",
          "name": "",
          "type": "uint256"
        }
      ],
      "stateMutability": "view",
      "type": "function"
    },
    {
      "inputs": [],
      "name": "VALIDATOR_UNBONDING_PERIOD",
      "outputs": [
        {
          "internalType": "uint256",
          "name": "",
          "type": "uint256"
        }
      ],
      "stateMutability": "view",
      "type": "function"
    },
    {
      "inputs": [],
      "name": "acceptOwnership",
      "outputs": [],
      "stateMutability": "nonpayable",
      "type": "function"
    },
    {
      "inputs": [],
      "name": "addressManager",
      "outputs": [
        {
          "internalType": "contract IAddressManager",
          "name": "",
          "type": "address"
        }
      ],
      "stateMutability": "view",
      "type": "function"
    },
    {
      "inputs": [],
      "name": "burning",
      "outputs": [
        {
          "internalType": "uint256",
          "name": "",
          "type": "uint256"
        }
      ],
      "stateMutability": "view",
      "type": "function"
    },
    {
      "inputs": [],
      "name": "deepthought",
      "outputs": [
        {
          "internalType": "address payable",
          "name": "",
          "type": "address"
        }
      ],
      "stateMutability": "view",
      "type": "function"
    },
    {
      "inputs": [],
      "name": "delegatorMinStake",
      "outputs": [
        {
          "internalType": "uint256",
          "name": "",
          "type": "uint256"
        }
      ],
      "stateMutability": "view",
      "type": "function"
    },
    {
      "inputs": [],
      "name": "epoch",
      "outputs": [
        {
          "internalType": "uint256",
          "name": "",
          "type": "uint256"
        }
      ],
      "stateMutability": "view",
      "type": "function"
    },
    {
      "inputs": [],
      "name": "epochEven",
      "outputs": [
        {
          "internalType": "uint256",
          "name": "start",
          "type": "uint256"
        },
        {
          "internalType": "uint256",
          "name": "end",
          "type": "uint256"
        },
        {
          "internalType": "uint256",
          "name": "inflation",
          "type": "uint256"
        },
        {
          "internalType": "uint256",
          "name": "weight",
          "type": "uint256"
        },
        {
          "internalType": "uint256",
          "name": "weightDeposit",
          "type": "uint256"
        },
        {
          "internalType": "uint256",
          "name": "weightWithdrawal",
          "type": "uint256"
        },
        {
          "internalType": "uint256",
          "name": "vcount",
          "type": "uint256"
        },
        {
          "internalType": "uint256",
          "name": "claimed",
          "type": "uint256"
        },
        {
          "internalType": "uint256",
          "name": "stakeDeposit",
          "type": "uint256"
        },
        {
          "internalType": "uint256",
          "name": "stakeWithdrawal",
          "type": "uint256"
        },
        {
          "internalType": "uint256",
          "name": "slashed",
          "type": "uint256"
        }
      ],
      "stateMutability": "view",
      "type": "function"
    },
    {
      "inputs": [],
      "name": "epochExtraMinDuration",
      "outputs": [
        {
          "internalType": "uint256",
          "name": "",
          "type": "uint256"
        }
      ],
      "stateMutability": "view",
      "type": "function"
    },
    {
      "inputs": [],
      "name": "epochMinDuration",
      "outputs": [
        {
          "internalType": "uint256",
          "name": "",
          "type": "uint256"
        }
      ],
      "stateMutability": "view",
      "type": "function"
    },
    {
      "inputs": [],
      "name": "epochMinDurationThreshold",
      "outputs": [
        {
          "internalType": "uint256",
          "name": "",
          "type": "uint256"
        }
      ],
      "stateMutability": "view",
      "type": "function"
    },
    {
      "inputs": [],
      "name": "epochOdd",
      "outputs": [
        {
          "internalType": "uint256",
          "name": "start",
          "type": "uint256"
        },
        {
          "internalType": "uint256",
          "name": "end",
          "type": "uint256"
        },
        {
          "internalType": "uint256",
          "name": "inflation",
          "type": "uint256"
        },
        {
          "internalType": "uint256",
          "name": "weight",
          "type": "uint256"
        },
        {
          "internalType": "uint256",
          "name": "weightDeposit",
          "type": "uint256"
        },
        {
          "internalType": "uint256",
          "name": "weightWithdrawal",
          "type": "uint256"
        },
        {
          "internalType": "uint256",
          "name": "vcount",
          "type": "uint256"
        },
        {
          "internalType": "uint256",
          "name": "claimed",
          "type": "uint256"
        },
        {
          "internalType": "uint256",
          "name": "stakeDeposit",
          "type": "uint256"
        },
        {
          "internalType": "uint256",
          "name": "stakeWithdrawal",
          "type": "uint256"
        },
        {
          "internalType": "uint256",
          "name": "slashed",
          "type": "uint256"
        }
      ],
      "stateMutability": "view",
      "type": "function"
    },
    {
      "inputs": [],
      "name": "epochZeroMinDuration",
      "outputs": [
        {
          "internalType": "uint256",
          "name": "",
          "type": "uint256"
        }
      ],
      "stateMutability": "view",
      "type": "function"
    },
    {
      "inputs": [],
      "name": "finalizationPhaseAddress",
      "outputs": [
        {
          "internalType": "address",
          "name": "",
          "type": "address"
        }
      ],
      "stateMutability": "view",
      "type": "function"
    },
    {
      "inputs": [],
      "name": "finalized",
      "outputs": [
        {
          "internalType": "uint256",
          "name": "",
          "type": "uint256"
        }
      ],
      "stateMutability": "view",
      "type": "function"
    },
    {
      "inputs": [
        {
          "internalType": "bytes32",
          "name": "role",
          "type": "bytes32"
        }
      ],
      "name": "getRoleAdmin",
      "outputs": [
        {
          "internalType": "bytes32",
          "name": "",
          "type": "bytes32"
        }
      ],
      "stateMutability": "view",
      "type": "function"
    },
    {
      "inputs": [
        {
          "internalType": "bytes32",
          "name": "role",
          "type": "bytes32"
        },
        {
          "internalType": "address",
          "name": "account",
          "type": "address"
        }
      ],
      "name": "grantRole",
      "outputs": [],
      "stateMutability": "nonpayable",
      "type": "function"
    },
    {
      "inputs": [
        {
          "internalType": "bytes32",
          "name": "role",
          "type": "bytes32"
        },
        {
          "internalType": "address",
          "name": "account",
          "type": "address"
        }
      ],
      "name": "hasRole",
      "outputs": [
        {
          "internalType": "bool",
          "name": "",
          "type": "bool"
        }
      ],
      "stateMutability": "view",
      "type": "function"
    },
    {
      "inputs": [],
      "name": "idlenessPhaseAddress",
      "outputs": [
        {
          "internalType": "address",
          "name": "",
          "type": "address"
        }
      ],
      "stateMutability": "view",
      "type": "function"
    },
    {
      "inputs": [],
      "name": "inflationEpoch",
      "outputs": [
        {
          "internalType": "uint256",
          "name": "",
          "type": "uint256"
        }
      ],
      "stateMutability": "view",
      "type": "function"
    },
    {
      "inputs": [],
      "name": "inflationRequestThreshold",
      "outputs": [
        {
          "internalType": "uint256",
          "name": "",
          "type": "uint256"
        }
      ],
      "stateMutability": "view",
      "type": "function"
    },
    {
      "inputs": [
        {
          "internalType": "uint256",
          "name": "",
          "type": "uint256"
        }
      ],
      "name": "inflationRequested",
      "outputs": [
        {
          "internalType": "bool",
          "name": "",
          "type": "bool"
        }
      ],
      "stateMutability": "view",
      "type": "function"
    },
    {
      "inputs": [],
      "name": "inflationSupply",
      "outputs": [
        {
          "internalType": "uint256",
          "name": "",
          "type": "uint256"
        }
      ],
      "stateMutability": "view",
      "type": "function"
    },
    {
      "inputs": [],
      "name": "inflationTargetAhead",
      "outputs": [
        {
          "internalType": "uint256",
          "name": "",
          "type": "uint256"
        }
      ],
      "stateMutability": "view",
      "type": "function"
    },
    {
      "inputs": [
        {
          "internalType": "address",
          "name": "_addressManager",
          "type": "address"
        }
      ],
      "name": "initialize",
      "outputs": [],
      "stateMutability": "nonpayable",
      "type": "function"
    },
    {
      "inputs": [],
      "name": "l2GasLimit",
      "outputs": [
        {
          "internalType": "uint256",
          "name": "",
          "type": "uint256"
        }
      ],
      "stateMutability": "view",
      "type": "function"
    },
    {
      "inputs": [],
      "name": "l2GasPrice",
      "outputs": [
        {
          "internalType": "uint256",
          "name": "",
          "type": "uint256"
        }
      ],
      "stateMutability": "view",
      "type": "function"
    },
    {
      "inputs": [],
      "name": "maxValidators",
      "outputs": [
        {
          "internalType": "uint256",
          "name": "",
          "type": "uint256"
        }
      ],
      "stateMutability": "view",
      "type": "function"
    },
    {
      "inputs": [
        {
          "internalType": "address",
          "name": "",
          "type": "address"
        }
      ],
      "name": "operatorsToValidators",
      "outputs": [
        {
          "internalType": "address",
          "name": "",
          "type": "address"
        }
      ],
      "stateMutability": "view",
      "type": "function"
    },
    {
      "inputs": [],
      "name": "owner",
      "outputs": [
        {
          "internalType": "address",
          "name": "",
          "type": "address"
        }
      ],
      "stateMutability": "view",
      "type": "function"
    },
    {
      "inputs": [],
      "name": "pendingOwner",
      "outputs": [
        {
          "internalType": "address",
          "name": "",
          "type": "address"
        }
      ],
      "stateMutability": "view",
      "type": "function"
    },
    {
      "inputs": [],
      "name": "pendingRequestInflationFromL1",
      "outputs": [
        {
          "internalType": "bool",
          "name": "",
          "type": "bool"
        }
      ],
      "stateMutability": "view",
      "type": "function"
    },
    {
      "inputs": [],
      "name": "reductionFactor",
      "outputs": [
        {
          "internalType": "uint256",
          "name": "",
          "type": "uint256"
        }
      ],
      "stateMutability": "view",
      "type": "function"
    },
    {
      "inputs": [],
      "name": "renounceOwnership",
      "outputs": [],
      "stateMutability": "nonpayable",
      "type": "function"
    },
    {
      "inputs": [
        {
          "internalType": "bytes32",
          "name": "role",
          "type": "bytes32"
        },
        {
          "internalType": "address",
          "name": "callerConfirmation",
          "type": "address"
        }
      ],
      "name": "renounceRole",
      "outputs": [],
      "stateMutability": "nonpayable",
      "type": "function"
    },
    {
      "inputs": [],
      "name": "revealingPhaseAddress",
      "outputs": [
        {
          "internalType": "address",
          "name": "",
          "type": "address"
        }
      ],
      "stateMutability": "view",
      "type": "function"
    },
    {
      "inputs": [
        {
          "internalType": "bytes32",
          "name": "role",
          "type": "bytes32"
        },
        {
          "internalType": "address",
          "name": "account",
          "type": "address"
        }
      ],
      "name": "revokeRole",
      "outputs": [],
      "stateMutability": "nonpayable",
      "type": "function"
    },
    {
      "inputs": [
        {
          "internalType": "bytes4",
          "name": "_selector",
          "type": "bytes4"
        },
        {
          "internalType": "address",
          "name": "_facet",
          "type": "address"
        }
      ],
      "name": "setFacet",
      "outputs": [],
      "stateMutability": "nonpayable",
      "type": "function"
    },
    {
      "inputs": [
        {
          "internalType": "bytes4[]",
          "name": "_selectors",
          "type": "bytes4[]"
        },
        {
          "internalType": "address[]",
          "name": "_facets",
          "type": "address[]"
        }
      ],
      "name": "setFacets",
      "outputs": [],
      "stateMutability": "nonpayable",
      "type": "function"
    },
    {
      "inputs": [],
      "name": "stakingInvariant",
      "outputs": [
        {
          "internalType": "address",
          "name": "",
          "type": "address"
        }
      ],
      "stateMutability": "view",
      "type": "function"
    },
    {
      "inputs": [
        {
          "internalType": "bytes4",
          "name": "interfaceId",
          "type": "bytes4"
        }
      ],
      "name": "supportsInterface",
      "outputs": [
        {
          "internalType": "bool",
          "name": "",
          "type": "bool"
        }
      ],
      "stateMutability": "view",
      "type": "function"
    },
    {
      "inputs": [],
      "name": "transactionFeesManager",
      "outputs": [
        {
          "internalType": "address",
          "name": "",
          "type": "address"
        }
      ],
      "stateMutability": "view",
      "type": "function"
    },
    {
      "inputs": [
        {
          "internalType": "address",
          "name": "newOwner",
          "type": "address"
        }
      ],
      "name": "transferOwnership",
      "outputs": [],
      "stateMutability": "nonpayable",
      "type": "function"
    },
    {
      "inputs": [
        {
          "internalType": "address",
          "name": "validatorAddress",
          "type": "address"
        }
      ],
      "name": "validatorInsertedInTree",
      "outputs": [
        {
          "internalType": "uint256",
          "name": "timestamp",
          "type": "uint256"
        }
      ],
      "stateMutability": "view",
      "type": "function"
    },
    {
      "inputs": [],
      "name": "validatorMinStake",
      "outputs": [
        {
          "internalType": "uint256",
          "name": "",
          "type": "uint256"
        }
      ],
      "stateMutability": "view",
      "type": "function"
    },
    {
      "inputs": [
        {
          "internalType": "address",
          "name": "validatorAddress",
          "type": "address"
        }
      ],
      "name": "validatorRemovedFromTheTree",
      "outputs": [
        {
          "internalType": "uint256",
          "name": "timestamp",
          "type": "uint256"
        }
      ],
      "stateMutability": "view",
      "type": "function"
    },
    {
      "inputs": [
        {
          "internalType": "uint256",
          "name": "",
          "type": "uint256"
        }
      ],
      "name": "validatorsEven",
      "outputs": [
        {
          "internalType": "address",
          "name": "",
          "type": "address"
        }
      ],
      "stateMutability": "view",
      "type": "function"
    },
    {
      "inputs": [
        {
          "internalType": "uint256",
          "name": "",
          "type": "uint256"
        }
      ],
      "name": "validatorsJoined",
      "outputs": [
        {
          "internalType": "address",
          "name": "",
          "type": "address"
        }
      ],
      "stateMutability": "view",
      "type": "function"
    },
    {
      "inputs": [
        {
          "internalType": "uint256",
          "name": "",
          "type": "uint256"
        }
      ],
      "name": "validatorsOdd",
      "outputs": [
        {
          "internalType": "address",
          "name": "",
          "type": "address"
        }
      ],
      "stateMutability": "view",
      "type": "function"
    },
    {
      "inputs": [
        {
          "internalType": "uint256",
          "name": "",
          "type": "uint256"
        }
      ],
      "name": "weightsEven",
      "outputs": [
        {
          "internalType": "uint256",
          "name": "",
          "type": "uint256"
        }
      ],
      "stateMutability": "view",
      "type": "function"
    },
    {
      "inputs": [
        {
          "internalType": "uint256",
          "name": "",
          "type": "uint256"
        }
      ],
      "name": "weightsOdd",
      "outputs": [
        {
          "internalType": "uint256",
          "name": "",
          "type": "uint256"
        }
      ],
      "stateMutability": "view",
      "type": "function"
    },
    {
      "stateMutability": "payable",
      "type": "receive"
    }
  ],
  "bytecode": "0x60808060405234601557611ad9908161001b8239f35b600080fdfe6080604052600436101561001d575b366115f55761001b6115c7565b005b60003560e01c806301ffc9a71461044857806308ac5256146104435780630a3cfb131461043e5780630ab07e88146104395780631538faf21461043457806318a3b8821461042f5780631bc2359a1461042a578063217fcc3e146103a85780632272e0ab1461042557806324147f671461042057806324840a5e1461041b578063248a9ca31461041657806326ed4c70146104115780632f2ff15d1461040c57806336568abe146104075780633ab76e9f146104025780633dc23d0c146103fd5780633fde6d7b146103f857806344aa3ded146103f35780634971ec02146103ee5780634c12b33f146103e95780634f2938fc146103e4578063624a4485146103df5780636378eba3146103da57806367604d27146103d5578063715018a6146103d0578063746e4ac7146103cb5780637492100f146103c657806379ba5097146103c15780637a5d2660146103bc5780637e1233a9146103b757806383772595146103b257806387e51da9146103ad5780638b7e92a6146103a85780638da5cb5b146103a3578063900cf0cf1461039e578063900fd9ce1461039957806391d148541461039457806396be02a71461038f5780639ae366851461038a5780639d357fd814610385578063a01ebaa114610380578063a217fddf1461037b578063a8027c1014610376578063abfd6fa914610371578063ac78a04b1461036c578063b03df1f014610367578063b3f05b9714610362578063bc338e7f1461035d578063c0a604ad14610358578063c498c95b14610353578063c4d66de81461034e578063cb17452f14610349578063cd38347f14610344578063cd8562351461033f578063cf6e65b71461033a578063d547741f14610335578063d7ef354414610330578063da7a9b6a1461032b578063de8eec6414610326578063e30c397814610321578063e3c6b0ca1461031c578063f2fde38b14610317578063f7c353c714610312578063f85683ef1461030d578063fafebac5146103085763fb6fe7760361000e576113c6565b611380565b611357565b6111f8565b61113c565b61111e565b6110e8565b6110bf565b6110a1565b611078565b611044565b611026565b611008565b610fe1565b610fa6565b610e53565b610e2e565b610e10565b610df4565b610dd6565b610d91565b610d74565b610d50565b610d2d565b610d11565b610ced565b610cb0565b610c92565b610c48565b610b99565b610b4e565b610b30565b610afa565b6105c4565b610aa5565b610a88565b610a6b565b610a42565b6109f2565b6109d0565b610985565b610904565b6108e6565b6108c8565b6108aa565b610881565b610863565b610840565b610803565b6107e5565b61074c565b610723565b6106d9565b6106a0565b61066c565b610646565b61061d565b6105ff565b6105e1565b6105a6565b61057b565b61055d565b61053f565b6104ea565b6104ba565b610464565b6001600160e01b031981160361045f57565b600080fd5b3461045f57602036600319011261045f5760206004356104838161044d565b63ffffffff60e01b16637965db0b60e01b81149081156104a9575b506040519015158152f35b6301ffc9a760e01b1490503861049e565b3461045f57600036600319011261045f576020600554604051908152f35b602090600319011261045f5760043590565b3461045f576104f8366104d8565b602d5481101561045f57602d6000527f4a2cc91ee622da3bc833a54c37ffcb6f3ec23b7793efc5eaf5e71b7b406c5c0601546040516001600160a01b039091168152602090f35b3461045f57600036600319011261045f576020601054604051908152f35b3461045f57600036600319011261045f576020604354604051908152f35b3461045f57610589366104d8565b6000526052602052602060ff604060002054166040519015158152f35b3461045f57600036600319011261045f576020600254604051908152f35b3461045f57600036600319011261045f5760206040516103e88152f35b3461045f57600036600319011261045f576020604154604051908152f35b3461045f57600036600319011261045f576020605154604051908152f35b3461045f57600036600319011261045f576044546040516001600160a01b039091168152602090f35b3461045f57602036600319011261045f57602061066460043561141b565b604051908152f35b3461045f57600036600319011261045f57602060ff605354166040519015158152f35b6001600160a01b0381160361045f57565b3461045f57604036600319011261045f5761001b6024356004356106c38261068f565b6106d46106cf8261141b565b611656565b611805565b3461045f57604036600319011261045f576004356024356106f98161068f565b336001600160a01b038216036107125761001b916118a1565b63334bd91960e11b60005260046000fd5b3461045f57600036600319011261045f576047546040516001600160a01b039091168152602090f35b3461045f57604036600319011261045f576004356107698161044d565b7fa730c19ce8d967dc1d8a5f5ca85e2a607ce6bb270368f1ad107fc377db46a8c06020602435926107998461068f565b6107a1611946565b6001600160e01b0319166000818152604b83526040902080546001600160a01b0319166001600160a01b038616179055926040516001600160a01b039091168152a2005b3461045f57600036600319011261045f576020600154604051908152f35b3461045f57602036600319011261045f576004356108208161068f565b60018060a01b031660005260546020526020604060002054604051908152f35b3461045f57600036600319011261045f576020604051670214e8348c4f00008152f35b3461045f57600036600319011261045f576020601354604051908152f35b3461045f57600036600319011261045f576048546040516001600160a01b039091168152602090f35b3461045f57600036600319011261045f576020605054604051908152f35b3461045f57600036600319011261045f576020600054604051908152f35b3461045f57600036600319011261045f576020604054604051908152f35b3461045f57600036600319011261045f5761091d611946565b600080516020611a8483398151915280546001600160a01b0319908116909155600080516020611a24833981519152805491821690556000906001600160a01b03167f8be0079c531659141344cd1fd0a4f28419497f9722a3daafe3b4186f6b6457e08280a3005b3461045f57610993366104d8565b602a5481101561045f57602a6000527fbeced09521047d05b8960b7e7bcc1d1292cf3e4b2a6b63f48335cbde5f7545d20154604051908152602090f35b3461045f57600036600319011261045f576020604051668e1bc9bf0400008152f35b3461045f57600036600319011261045f57600080516020611a8483398151915254336001600160a01b0390911603610a2d5761001b33611967565b63118cdaa760e01b6000523360045260246000fd5b3461045f57600036600319011261045f576049546040516001600160a01b039091168152602090f35b3461045f57600036600319011261045f5760206040516180088152f35b3461045f57600036600319011261045f576020604051611d4c8152f35b3461045f57610ab3366104d8565b602c5481101561045f57602c6000527f7416c943b4a09859521022fd2e90eac0dd9026dad28fa317782a135f28a8609101546040516001600160a01b039091168152602090f35b3461045f57600036600319011261045f57600080516020611a24833981519152546040516001600160a01b039091168152602090f35b3461045f57600036600319011261045f576020601154604051908152f35b3461045f57610b5c366104d8565b602b5481101561045f57602b6000527f11c44e4875b74d31ff9fd779bf2566af7bd15b87fc985d01f5094b89e3669e4f0154604051908152602090f35b3461045f57604036600319011261045f57602060ff610bf0602435600435610bc08261068f565b600052600080516020611a44833981519152845260406000209060018060a01b0316600052602052604060002090565b54166040519015158152f35b979491926101409996939c9b9a9794919c6101608a019d8a5260208a015260408901526060880152608087015260a086015260c085015260e08401526101008301526101208201520152565b3461045f57600036600319011261045f57601f5460205490610c8e602154602254602354602454602554602654916027549360285495602954976040519b8c9b8c610bfc565b0390f35b3461045f57600036600319011261045f576020604e54604051908152f35b3461045f57602036600319011261045f57600435610ccd8161068f565b60018060a01b031660005260556020526020604060002054604051908152f35b3461045f57600036600319011261045f576020604051684e1003b28d928000008152f35b3461045f57600036600319011261045f57602060405160008152f35b3461045f57600036600319011261045f576020604051660aa87bee537fff198152f35b3461045f57600036600319011261045f576020604051680246ddf979766800008152f35b3461045f57600036600319011261045f5760206040516101f48152f35b3461045f57602036600319011261045f57600435610dae8161068f565b60018060a01b03166000526034602052602060018060a01b0360406000205416604051908152f35b3461045f57600036600319011261045f576020601254604051908152f35b3461045f57600036600319011261045f57602060405160648152f35b3461045f57600036600319011261045f576020600f54604051908152f35b3461045f57600036600319011261045f5760206040516908e4d3168276864000008152f35b3461045f57602036600319011261045f57600435610e708161068f565b600080516020611a64833981519152549067ffffffffffffffff610ea460ff604085901c16159367ffffffffffffffff1690565b1680159081610f9e575b6001149081610f94575b159081610f8b575b50610f7a57610f069082610efd600167ffffffffffffffff19600080516020611a64833981519152541617600080516020611a6483398151915255565b610f555761143c565b610f0c57005b600080516020611a64833981519152805460ff60401b19169055604051600181527fc7f505b2f371ae2175ee4913f4499e1f2633a7b5936321eed1cdaeb6115181d290602090a1005b600080516020611a64833981519152805460ff60401b1916600160401b17905561143c565b63f92ee8a960e01b60005260046000fd5b90501538610ec0565b303b159150610eb8565b839150610eae565b3461045f57600036600319011261045f5760206040517f155e7f76c52e49fe8308e62eabe3ce449c978443b7d8beb86992427229ec386f8152f35b3461045f57600036600319011261045f5760206040516b0d92289838d21a99680000008152f35b3461045f57600036600319011261045f576020600454604051908152f35b3461045f57600036600319011261045f576020604f54604051908152f35b3461045f57604036600319011261045f5761001b6024356004356110678261068f565b6110736106cf8261141b565b6118a1565b3461045f57600036600319011261045f57600e546040516001600160a01b039091168152602090f35b3461045f57600036600319011261045f576020604254604051908152f35b3461045f57600036600319011261045f576046546040516001600160a01b039091168152602090f35b3461045f57600036600319011261045f57600080516020611a84833981519152546040516001600160a01b039091168152602090f35b3461045f57600036600319011261045f576020600354604051908152f35b3461045f57602036600319011261045f576004356111598161068f565b611161611946565b600080516020611a8483398151915280546001600160a01b0319166001600160a01b03928316908117909155600080516020611a24833981519152549091167f38d16b8cac22d99fc7c124b9cd0de2d3fa1faef420bfe791d8c362d765e22700600080a3005b9181601f8401121561045f5782359167ffffffffffffffff831161045f576020808501948460051b01011161045f57565b3461045f57604036600319011261045f5760043567ffffffffffffffff811161045f576112299036906004016111c7565b60243567ffffffffffffffff811161045f576112499036906004016111c7565b92611252611946565b8383036113465760005b83811061126557005b806112cc611276600193888761158a565b356112808161068f565b61128b83888761158a565b356112958161044d565b6001600160e01b0319166000908152604b6020526040902080546001600160a01b0319166001600160a01b03909216919091179055565b6112df6112da82878661158a565b6115bd565b7fa730c19ce8d967dc1d8a5f5ca85e2a607ce6bb270368f1ad107fc377db46a8c061133d611316611311858b8a61158a565b6115b0565b6040516001600160a01b0390911681526001600160e01b0319909316929081906020820190565b0390a20161125c565b63512509d360e11b60005260046000fd5b3461045f57600036600319011261045f57604a546040516001600160a01b039091168152602090f35b3461045f57600036600319011261045f5760145460155490610c8e601654601754601854601954601a54601b5491601c5493601d5495601e54976040519b8c9b8c610bfc565b3461045f576113d4366104d8565b60455481101561045f5760456000527fa80a8fcc11760162f08bb091d2c9389d07f2b73d0e996161dfac6f1043b5fc0b01546040516001600160a01b039091168152602090f35b600052600080516020611a4483398151915260205260016040600020015490565b6114446119d5565b61144c6119d5565b6114546119d5565b61145c6119d5565b33156115745761146b33611967565b611474336116a0565b5061147e33611740565b50604780546001600160a01b0319166001600160a01b039290921691909117905560076041556114ae6007604055565b6114bf670853a0d2313c0000603155565b6114d067058d15e176280000603255565b6114dc62015180600255565b6114e862127500600455565b6114f3610e10600155565b6114ff620186a0600055565b61150a6103e8600555565b61151f6b0d92289838d21a9968000000601055565b611531680246ddf97976680000604255565b6115446908e4d316827686400000604355565b611552640ba43b7400604e55565b61155e6207a120604f55565b6115686005605055565b611572600f605155565b565b631e4fbdf760e01b600052600060045260246000fd5b919081101561159a5760051b0190565b634e487b7160e01b600052603260045260246000fd5b356115ba8161068f565b90565b356115ba8161044d565b6040513481527f2ccfc58c2cef4ee590b5f16be0548cc54afc12e1c66a67b362b7d640fd16bb2d60203392a2565b600080356001600160e01b031916808252604b6020526040909120546001600160a01b03169081156116425760008083368280378136915af43d6000803e1561163d573d6000f35b3d6000fd5b630a82dd7360e31b60005260045260246000fd5b6000818152600080516020611a448339815191526020908152604080832033845290915290205460ff16156116885750565b63e2517d3f60e01b6000523360045260245260446000fd5b6001600160a01b03811660009081527fb7db2dd08fcb62d0c9e08c51941cae53c267786a0b75803fb7960902fc8ef97d602052604090205460ff1661173a576001600160a01b031660008181527fb7db2dd08fcb62d0c9e08c51941cae53c267786a0b75803fb7960902fc8ef97d60205260408120805460ff19166001179055339190600080516020611a048339815191528180a4600190565b50600090565b6001600160a01b03811660009081527f595b99de72e44550de209b8610b07ab21870ce71a1063d294735321864dc516a602052604090205460ff1661173a576001600160a01b03811660009081527f595b99de72e44550de209b8610b07ab21870ce71a1063d294735321864dc516a60205260409020805460ff1916600117905533906001600160a01b03167f155e7f76c52e49fe8308e62eabe3ce449c978443b7d8beb86992427229ec386f600080516020611a04833981519152600080a4600190565b6000818152600080516020611a44833981519152602090815260408083206001600160a01b038616845290915290205460ff1661189a576000818152600080516020611a44833981519152602090815260408083206001600160a01b03861684529091529020805460ff1916600117905533916001600160a01b031690600080516020611a04833981519152600080a4600190565b5050600090565b6000818152600080516020611a44833981519152602090815260408083206001600160a01b038616845290915290205460ff161561189a576000818152600080516020611a44833981519152602090815260408083206001600160a01b03861684529091529020805460ff1916905533916001600160a01b0316907ff6391f5c32d9c69d2a47ea670b442974b53935d1edc7fd64eb21e047a839171b600080a4600190565b600080516020611a24833981519152546001600160a01b03163303610a2d57565b600080516020611a8483398151915280546001600160a01b0319908116909155600080516020611a2483398151915280549182166001600160a01b0393841690811790915591167f8be0079c531659141344cd1fd0a4f28419497f9722a3daafe3b4186f6b6457e0600080a3565b60ff600080516020611a648339815191525460401c16156119f257565b631afcd79f60e31b60005260046000fdfe2f8788117e7eff1d82e926ec794901d17c78024a50270940304540a733656f0d9016d09d72d40fdae2fd8ceac6b6234c7706214fd39c1cd1e609a0528c19930002dd7bc7dec4dceedda775e58dd541e08a116c6c53815c0bd028192f7b626800f0c57e16840df040f15088dc2f81fe391c3923bec73e23a9662efc9c229c6a00237e158222e3e6968b72b9db0d8043aacf074ad9f650f0d1606b4d82ee432c00a2646970667358221220598c69a40a9a39d308328c125529bfc01cc508a5ceb9a576d221a65fd8161e5d64736f6c634300081c0033",
  "linkReferences": {},
  "deployedLinkReferences": {}
}