{
  "_format": "hh-sol-artifact-1",
  "contractName": "MockGenManagerForCreation",
  "sourceName": "contracts/test-helpers/MockGenManagerForCreation.sol",
  "abi": [
    {
      "inputs": [
        {
          "internalType": "bytes32",
          "name": "txId",
          "type": "bytes32"
        }
      ],
      "name": "getRecipientForTx",
      "outputs": [
        {
          "internalType": "address",
          "name": "",
          "type": "address"
        }
      ],
      "stateMutability": "view",
      "type": "function"
    },
    {
      "inputs": [
        {
          "internalType": "address",
          "name": "recipient",
          "type": "address"
        }
      ],
      "name": "recipientRandomSeed",
      "outputs": [
        {
          "internalType": "bytes32",
          "name": "",
          "type": "bytes32"
        }
      ],
      "stateMutability": "view",
      "type": "function"
    },
    {
      "inputs": [
        {
          "internalType": "bytes32",
          "name": "seed",
          "type": "bytes32"
        }
      ],
      "name": "setMockNewRandomSeed",
      "outputs": [],
      "stateMutability": "nonpayable",
      "type": "function"
    },
    {
      "inputs": [
        {
          "internalType": "address",
          "name": "recipient",
          "type": "address"
        },
        {
          "internalType": "bytes32",
          "name": "seed",
          "type": "bytes32"
        }
      ],
      "name": "setMockRandomSeed",
      "outputs": [],
      "stateMutability": "nonpayable",
      "type": "function"
    },
    {
      "inputs": [],
      "name": "setRandomSeedCallCount",
      "outputs": [
        {
          "internalType": "uint256",
          "name": "",
          "type": "uint256"
        }
      ],
      "stateMutability": "view",
      "type": "function"
    },
    {
      "inputs": [
        {
          "internalType": "address",
          "name": "recipient",
          "type": "address"
        },
        {
          "internalType": "bytes32",
          "name": "randomSeed",
          "type": "bytes32"
        },
        {
          "internalType": "bytes32",
          "name": "",
          "type": "bytes32"
        }
      ],
      "name": "setRandomSeedForRecipient",
      "outputs": [],
      "stateMutability": "nonpayable",
      "type": "function"
    },
    {
      "inputs": [
        {
          "internalType": "bytes32",
          "name": "txId",
          "type": "bytes32"
        },
        {
          "internalType": "address",
          "name": "recipient",
          "type": "address"
        }
      ],
      "name": "setTxRecipient",
      "outputs": [],
      "stateMutability": "nonpayable",
      "type": "function"
    },
    {
      "inputs": [],
      "name": "setTxRecipientCallCount",
      "outputs": [
        {
          "internalType": "uint256",
          "name": "",
          "type": "uint256"
        }
      ],
      "stateMutability": "view",
      "type": "function"
    },
    {
      "inputs": [
        {
          "internalType": "address",
          "name": "recipient",
          "type": "address"
        },
        {
          "internalType": "address",
          "name": "",
          "type": "address"
        },
        {
          "internalType": "bytes",
          "name": "",
          "type": "bytes"
        }
      ],
      "name": "updateRandomSeedForRecipient",
      "outputs": [
        {
          "internalType": "bytes32",
          "name": "",
          "type": "bytes32"
        }
      ],
      "stateMutability": "nonpayable",
      "type": "function"
    }
  ],
  "bytecode": "0x608080604052346039577f1234567890abcdef1234567890abcdef1234567890abcdef1234567890abcdef600455610323908161003f8239f35b600080fdfe608080604052600436101561001357600080fd5b60003560e01c9081633a890ff11461026c575080634f51e1cf146101e9578063bc24f750146101a6578063d768c6df14610188578063d93e736a14610150578063e2f8d67814610116578063e309dea8146100be578063e972a642146100a55763f62b58221461008257600080fd5b346100a05760003660031901126100a0576020600354604051908152f35b600080fd5b346100a05760203660031901126100a057600480359055005b346100a05760403660031901126100a0576100d76102b2565b600435600090815260016020526040902080546001600160a01b0319166001600160a01b03909216919091179055600354610111906102c8565b600355005b346100a05760203660031901126100a0576001600160a01b0361013761029c565b1660005260006020526020604060002054604051908152f35b346100a05760403660031901126100a0576001600160a01b0361017161029c565b166000526000602052602435604060002055600080f35b346100a05760003660031901126100a0576020600254604051908152f35b346100a05760603660031901126100a0576001600160a01b036101c761029c565b1660005260006020526024356040600020556101e46002546102c8565b600255005b346100a05760603660031901126100a05761020261029c565b61020a6102b2565b5060443567ffffffffffffffff81116100a057366023820112156100a057806004013567ffffffffffffffff81116100a057369101602401116100a0576020906004549060018060a01b03166000526000825280604060002055604051908152f35b346100a05760203660031901126100a0576020906004356000526001825260018060a01b03604060002054168152f35b600435906001600160a01b03821682036100a057565b602435906001600160a01b03821682036100a057565b60001981146102d75760010190565b634e487b7160e01b600052601160045260246000fdfea2646970667358221220927f589da576859bb553f2289be7ed6fa64d5369de7ad353d65557f32cb4fc6a64736f6c634300081c0033",
  "linkReferences": {},
  "deployedLinkReferences": {}
}