{
  "_format": "hh-sol-artifact-1",
  "contractName": "CommittingPhase",
  "sourceName": "contracts/phases/CommittingPhase.sol",
  "abi": [
    {
      "inputs": [],
      "stateMutability": "nonpayable",
      "type": "constructor"
    },
    {
      "inputs": [],
      "name": "InvalidInitialization",
      "type": "error"
    },
    {
      "inputs": [],
      "name": "InvalidValidator",
      "type": "error"
    },
    {
      "inputs": [],
      "name": "NotInitializing",
      "type": "error"
    },
    {
      "inputs": [
        {
          "internalType": "address",
          "name": "owner",
          "type": "address"
        }
      ],
      "name": "OwnableInvalidOwner",
      "type": "error"
    },
    {
      "inputs": [
        {
          "internalType": "address",
          "name": "account",
          "type": "address"
        }
      ],
      "name": "OwnableUnauthorizedAccount",
      "type": "error"
    },
    {
      "inputs": [],
      "name": "ReentrancyGuardReentrantCall",
      "type": "error"
    },
    {
      "inputs": [],
      "name": "Unauthorized",
      "type": "error"
    },
    {
      "inputs": [],
      "name": "VoteAlreadyCommitted",
      "type": "error"
    },
    {
      "anonymous": false,
      "inputs": [
        {
          "indexed": true,
          "internalType": "bytes32",
          "name": "txId",
          "type": "bytes32"
        },
        {
          "indexed": false,
          "internalType": "enum ITransactions.TransactionStatus",
          "name": "newStatus",
          "type": "uint8"
        }
      ],
      "name": "AllVotesCommitted",
      "type": "event"
    },
    {
      "anonymous": false,
      "inputs": [
        {
          "indexed": true,
          "internalType": "address",
          "name": "caller",
          "type": "address"
        },
        {
          "indexed": false,
          "internalType": "bool",
          "name": "authorized",
          "type": "bool"
        }
      ],
      "name": "AuthorizedCallerUpdated",
      "type": "event"
    },
    {
      "anonymous": false,
      "inputs": [
        {
          "indexed": false,
          "internalType": "uint64",
          "name": "version",
          "type": "uint64"
        }
      ],
      "name": "Initialized",
      "type": "event"
    },
    {
      "anonymous": false,
      "inputs": [
        {
          "indexed": true,
          "internalType": "bytes32",
          "name": "txId",
          "type": "bytes32"
        },
        {
          "indexed": true,
          "internalType": "address",
          "name": "newLeader",
          "type": "address"
        }
      ],
      "name": "LeaderRotatedToProposing",
      "type": "event"
    },
    {
      "anonymous": false,
      "inputs": [
        {
          "indexed": true,
          "internalType": "address",
          "name": "previousOwner",
          "type": "address"
        },
        {
          "indexed": true,
          "internalType": "address",
          "name": "newOwner",
          "type": "address"
        }
      ],
      "name": "OwnershipTransferStarted",
      "type": "event"
    },
    {
      "anonymous": false,
      "inputs": [
        {
          "indexed": true,
          "internalType": "address",
          "name": "previousOwner",
          "type": "address"
        },
        {
          "indexed": true,
          "internalType": "address",
          "name": "newOwner",
          "type": "address"
        }
      ],
      "name": "OwnershipTransferred",
      "type": "event"
    },
    {
      "anonymous": false,
      "inputs": [
        {
          "indexed": true,
          "internalType": "bytes32",
          "name": "txId",
          "type": "bytes32"
        }
      ],
      "name": "TransactionUndetermined",
      "type": "event"
    },
    {
      "anonymous": false,
      "inputs": [
        {
          "indexed": true,
          "internalType": "bytes32",
          "name": "txId",
          "type": "bytes32"
        },
        {
          "indexed": true,
          "internalType": "address",
          "name": "oldValidator",
          "type": "address"
        },
        {
          "indexed": true,
          "internalType": "address",
          "name": "newValidator",
          "type": "address"
        },
        {
          "indexed": false,
          "internalType": "uint256",
          "name": "validatorIndex",
          "type": "uint256"
        }
      ],
      "name": "ValidatorReplaced",
      "type": "event"
    },
    {
      "anonymous": false,
      "inputs": [
        {
          "indexed": true,
          "internalType": "bytes32",
          "name": "txId",
          "type": "bytes32"
        },
        {
          "indexed": true,
          "internalType": "address",
          "name": "validator",
          "type": "address"
        },
        {
          "indexed": false,
          "internalType": "uint256",
          "name": "validatorIndex",
          "type": "uint256"
        }
      ],
      "name": "VoteCommitted",
      "type": "event"
    },
    {
      "inputs": [],
      "name": "acceptOwnership",
      "outputs": [],
      "stateMutability": "nonpayable",
      "type": "function"
    },
    {
      "inputs": [],
      "name": "addressManager",
      "outputs": [
        {
          "internalType": "contract IAddressManager",
          "name": "",
          "type": "address"
        }
      ],
      "stateMutability": "view",
      "type": "function"
    },
    {
      "inputs": [
        {
          "internalType": "address",
          "name": "",
          "type": "address"
        }
      ],
      "name": "authorizedCallers",
      "outputs": [
        {
          "internalType": "bool",
          "name": "",
          "type": "bool"
        }
      ],
      "stateMutability": "view",
      "type": "function"
    },
    {
      "inputs": [
        {
          "components": [
            {
              "internalType": "bytes32",
              "name": "txId",
              "type": "bytes32"
            },
            {
              "internalType": "bytes32",
              "name": "commitHash",
              "type": "bytes32"
            },
            {
              "internalType": "address",
              "name": "validator",
              "type": "address"
            },
            {
              "internalType": "uint256",
              "name": "validatorIndex",
              "type": "uint256"
            }
          ],
          "internalType": "struct ICommittingPhase.CommitVoteParams",
          "name": "params",
          "type": "tuple"
        }
      ],
      "name": "commitVote",
      "outputs": [
        {
          "components": [
            {
              "internalType": "bool",
              "name": "success",
              "type": "bool"
            },
            {
              "internalType": "bool",
              "name": "isLastVote",
              "type": "bool"
            },
            {
              "internalType": "address",
              "name": "newLeader",
              "type": "address"
            },
            {
              "internalType": "address",
              "name": "recipient",
              "type": "address"
            },
            {
              "internalType": "bytes32[]",
              "name": "undeterminedTxIds",
              "type": "bytes32[]"
            },
            {
              "internalType": "address",
              "name": "validator",
              "type": "address"
            },
            {
              "internalType": "uint256",
              "name": "validatorIndex",
              "type": "uint256"
            },
            {
              "internalType": "enum ITransactions.TransactionStatus",
              "name": "newStatus",
              "type": "uint8"
            },
            {
              "internalType": "bool",
              "name": "wasLeaderRotated",
              "type": "bool"
            },
            {
              "internalType": "bool",
              "name": "wasValidatorReplaced",
              "type": "bool"
            },
            {
              "internalType": "address",
              "name": "oldValidator",
              "type": "address"
            },
            {
              "internalType": "address",
              "name": "newValidator",
              "type": "address"
            }
          ],
          "internalType": "struct ICommittingPhase.CommitVoteResult",
          "name": "result",
          "type": "tuple"
        }
      ],
      "stateMutability": "nonpayable",
      "type": "function"
    },
    {
      "inputs": [
        {
          "internalType": "address",
          "name": "_addressManager",
          "type": "address"
        }
      ],
      "name": "initialize",
      "outputs": [],
      "stateMutability": "nonpayable",
      "type": "function"
    },
    {
      "inputs": [
        {
          "internalType": "address",
          "name": "caller",
          "type": "address"
        }
      ],
      "name": "isAuthorizedCaller",
      "outputs": [
        {
          "internalType": "bool",
          "name": "",
          "type": "bool"
        }
      ],
      "stateMutability": "view",
      "type": "function"
    },
    {
      "inputs": [],
      "name": "owner",
      "outputs": [
        {
          "internalType": "address",
          "name": "",
          "type": "address"
        }
      ],
      "stateMutability": "view",
      "type": "function"
    },
    {
      "inputs": [],
      "name": "pendingOwner",
      "outputs": [
        {
          "internalType": "address",
          "name": "",
          "type": "address"
        }
      ],
      "stateMutability": "view",
      "type": "function"
    },
    {
      "inputs": [],
      "name": "renounceOwnership",
      "outputs": [],
      "stateMutability": "nonpayable",
      "type": "function"
    },
    {
      "inputs": [
        {
          "internalType": "address",
          "name": "_addressManager",
          "type": "address"
        }
      ],
      "name": "setAddressManager",
      "outputs": [],
      "stateMutability": "nonpayable",
      "type": "function"
    },
    {
      "inputs": [
        {
          "internalType": "address",
          "name": "caller",
          "type": "address"
        },
        {
          "internalType": "bool",
          "name": "authorized",
          "type": "bool"
        }
      ],
      "name": "setAuthorizedCaller",
      "outputs": [],
      "stateMutability": "nonpayable",
      "type": "function"
    },
    {
      "inputs": [
        {
          "internalType": "address[]",
          "name": "callers",
          "type": "address[]"
        },
        {
          "internalType": "bool",
          "name": "authorized",
          "type": "bool"
        }
      ],
      "name": "setAuthorizedCallers",
      "outputs": [],
      "stateMutability": "nonpayable",
      "type": "function"
    },
    {
      "inputs": [
        {
          "internalType": "address",
          "name": "newOwner",
          "type": "address"
        }
      ],
      "name": "transferOwnership",
      "outputs": [],
      "stateMutability": "nonpayable",
      "type": "function"
    }
  ],
  "bytecode": "0x6080806040523460d2577ff0c57e16840df040f15088dc2f81fe391c3923bec73e23a9662efc9c229c6a005460ff8160401c1660c1576002600160401b03196001600160401b03821601605c575b60405161246890816100d88239f35b6001600160401b0319166001600160401b039081177ff0c57e16840df040f15088dc2f81fe391c3923bec73e23a9662efc9c229c6a005581527fc7f505b2f371ae2175ee4913f4499e1f2633a7b5936321eed1cdaeb6115181d290602090a13880604d565b63f92ee8a960e01b60005260046000fd5b600080fdfe60a0604052600436101561001257600080fd5b60003560e01c80630652b57a146107be578063090263a7146106c55780633ab76e9f1461069c578063454bbd291461061e578063536fff6c146105df57806359d14b41146105df5780636d5b05801461042b578063715018a6146103aa57806379ba5097146103585780638da5cb5b14610322578063c4d66de81461016d578063e30c3978146101375763f2fde38b146100ab57600080fd5b34610132576020366003190112610132576100c4610801565b6100cc612186565b60008051602061241383398151915280546001600160a01b0319166001600160a01b039283169081179091556000805160206123b3833981519152549091167f38d16b8cac22d99fc7c124b9cd0de2d3fa1faef420bfe791d8c362d765e22700600080a3005b600080fd5b3461013257600036600319011261013257600080516020612413833981519152546040516001600160a01b039091168152602090f35b3461013257602036600319011261013257610186610801565b6000805160206123f3833981519152549060ff8260401c1615916001600160401b0381168015908161031a575b6001149081610310575b159081610307575b506102f65767ffffffffffffffff1981166001176000805160206123f383398151915255826102c9575b506101f8612384565b610200612384565b610208612384565b33156102b35761021733612316565b61021f612384565b610227612384565b60016000805160206123d383398151915255600080546001600160a01b0319166001600160a01b039290921691909117905561025f57005b60ff60401b196000805160206123f383398151915254166000805160206123f3833981519152557fc7f505b2f371ae2175ee4913f4499e1f2633a7b5936321eed1cdaeb6115181d2602060405160018152a1005b631e4fbdf760e01b600052600060045260246000fd5b68ffffffffffffffffff191668010000000000000001176000805160206123f383398151915255826101ef565b63f92ee8a960e01b60005260046000fd5b905015846101c5565b303b1591506101bd565b8491506101b3565b34610132576000366003190112610132576000805160206123b3833981519152546040516001600160a01b039091168152602090f35b346101325760003660031901126101325760008051602061241383398151915254336001600160a01b03909116036103955761039333612316565b005b63118cdaa760e01b6000523360045260246000fd5b34610132576000366003190112610132576103c3612186565b60008051602061241383398151915280546001600160a01b03199081169091556000805160206123b3833981519152805491821690556000906001600160a01b03167f8be0079c531659141344cd1fd0a4f28419497f9722a3daafe3b4186f6b6457e08280a3005b3461013257608036600319011261013257604051600061044a826108b7565b808252806020830152806040830152806060830152606060808301528060a08301528060c08301528060e083015280610100830152806101208301528061014083015280610160830152338152600160205260ff604082205416156105d15760026000805160206123d383398151915254146105c2576104db8260026000805160206123d383398151915255610c53565b60016000805160206123d38339815191525560405180916020825280511515602083015260208101511515604083015260018060a01b03604082015116606083015260018060a01b03606082015116608083015261054a608082015161018060a08501526101a0840190610826565b9060018060a01b0360a08201511660c084015260c081015160e084015261057a60e082015161010085019061085a565b6101008101511515610120840152610120810151151561014084015260018060a01b036101408201511661016084015261016060018060a01b03910151166101808301520390f35b633ee5aeb560e01b8152600490fd5b6282b42960e81b8152600490fd5b34610132576020366003190112610132576001600160a01b03610600610801565b166000526001602052602060ff604060002054166040519015158152f35b3461013257604036600319011261013257610637610801565b7fad857fa38c9319cb80848f1ef2f924383b90297eb5d71755738ff037d100faa16020610662610817565b9261066b612186565b6001600160a01b031660008181526001835260409020805460ff191660ff86151516179055926040519015158152a2005b34610132576000366003190112610132576000546040516001600160a01b039091168152602090f35b34610132576040366003190112610132576004356001600160401b03811161013257366023820112156101325780600401356001600160401b038111610132576024820191602436918360051b01011161013257610721610817565b610729612186565b8015159060005b83811061073957005b6001906001600160a01b0361075761075283888a61087d565b6108a3565b16600052816020526107798360406000209060ff801983541691151516179055565b818060a01b0361078d61075283888a61087d565b167fad857fa38c9319cb80848f1ef2f924383b90297eb5d71755738ff037d100faa16020604051878152a201610730565b34610132576020366003190112610132576107d7610801565b6107df612186565b600080546001600160a01b0319166001600160a01b0392909216919091179055005b600435906001600160a01b038216820361013257565b60243590811515820361013257565b906020808351928381520192019060005b8181106108445750505090565b8251845260209384019390920191600101610837565b90600f8210156108675752565b634e487b7160e01b600052602160045260246000fd5b919081101561088d5760051b0190565b634e487b7160e01b600052603260045260246000fd5b356001600160a01b03811681036101325790565b61018081019081106001600160401b038211176108d357604052565b634e487b7160e01b600052604160045260246000fd5b90601f801991011681019081106001600160401b038211176108d357604052565b6001600160401b0381116108d35760051b60200190565b51906001600160a01b038216820361013257565b9080601f8301121561013257815161094c8161090a565b9261095a60405194856108e9565b81845260208085019260051b82010192831161013257602001905b8282106109825750505090565b6020809161098f84610921565b815201910190610975565b9080601f830112156101325781516109b18161090a565b926109bf60405194856108e9565b81845260208085019260051b82010192831161013257602001905b8282106109e75750505090565b81518152602091820191016109da565b60005b838110610a0a5750506000910152565b81810151838201526020016109fa565b81601f820112156101325780516001600160401b0381116108d35760405192610a4d601f8301601f1916602001856108e9565b8184526020828401011161013257610a6b91602080850191016109f7565b90565b805182101561088d5760209160051b010190565b5190811515820361013257565b9060068210156108675752565b9060058210156108675752565b90602091610ac2815180928185528580860191016109f7565b601f01601f1916010190565b919091610160830192815181526020820151602082015260408201516040820152606082015160608201526080820151608082015260a082015160a0820152610b1f60c083015160c0830190610a8f565b60e08201519361016060e083015284518091526020610180830195019060005b818110610bc357505050610100820151938181036101008301526020808651928381520195019060005b818110610ba457505050610140610b92610a6b9495610120850151848203610120860152610826565b92015190610140818403910152610826565b90919560208082610bb86001948b51610a9c565b019701929101610b69565b82516001600160a01b0316875260209687019690920191600101610b3f565b919082604091031261013257610a6b602083519301610a82565b90610c068261090a565b610c1360405191826108e9565b8281528092610c24601f199161090a565b0190602036910137565b6000198114610c3d5760010190565b634e487b7160e01b600052601160045260246000fd5b90606491610c5f6121a7565b90610c68612258565b90600093602060018060a01b0386541660405197888092631bae711d60e21b82528460048301526006602483015265526f756e647360d01b60448301525afa94851561217a57809561213e575b8054604051631bae711d60e21b815260206004820181905260056024830152645574696c7360d81b604483015290985090889060649082906001600160a01b03165afa80156120f15781906120fe575b8154604051631bae711d60e21b8152602060048201819052600e60248301526d151c9a589d5b985b105c1c19585b60921b6044830152989950976001600160a01b039283169392909189916064918391165afa9687156120f15781976120b5575b5060405163ba15d63560e01b81526004803590820152946020866024816001600160a01b038d165afa958615611394578296612081575b50604051635af5446960e01b81526004803590820152602481018790529682886044816001600160a01b038e165afa9788156113b8578398611ed3575b5060405163255709e560e11b815260048035908201529383856024816001600160a01b0386165afa948515611a62578495611c2d575b506060850151600f811015611c195760018916611c11576003915b803b15611c0d5760448692610e5992610e636040519687958694633813abfb60e21b8652600486019061085a565b602484019061085a565b5afa8015611a6257611bf9575b50610e8361012089015160643590610a6e565b51611bea576044356001600160a01b038116141596876113c3576040516080526302bbaae960e01b6080515260018060a01b036044351660046080510152606060246080510152610eda6064608051018651610a8f565b610eee602086015160846080510190610a9c565b610f02604086015160a4608051019061085a565b610f16606086015160c4608051019061085a565b60018060a01b0360808601511660e4608051015260018060a01b0360a086015116610104608051015260018060a01b0360c086015116610124608051015260018060a01b0360e0860151166101446080510152610100850151610164608051015261012085015161018460805101526101408501516101a460805101526101608501516101c460805101526101808501516101e460805101526101a085015161020460805101526101c085015161022460805101526101e085015161024460805101528361101a610ffe6102008801516102e061026460805101526103446080510190610aa9565b6102208801516063196080518303016102846080510152610aa9565b610240870151906063196080518203016102a4608051015260208083519283815201920190835b818110611bba575050506102608701516102c460805101526102808701516102e460805101526102a087015161030460805101526102c0870151610324608051015260031960805182030160446080510152608051906110a4608051918d610ace565b60805191900390836001600160a01b0388165af1978815611a6257849b859c869287889f899d611a8c575b61162357506114165760443590156115dc5750855b8d5181101561112757808c8f611120906111198f9560e060019761110e838a8060a01b0392610a6e565b511695015192610a6e565b5190610a6e565b52016110e4565b5092969a91959993979b5093975061012083015161114b6020850191825190610a6e565b511561144d575060016101208c01526001600160a01b0360443581166101408d015284166101608c01525b60408301936111858551610c2e565b94859052602435906001600160a01b0384163b156114255789604051809263998f979960e01b8252600435600483015289602483015260018060a01b031695866044830152846064830152606435608483015260c060a48301528183816111ef60c482018c610ace565b03926001600160a01b03165af1801561144257908a91611429575b5050611220610140850151602086015190610a6e565b516001600160a01b0383163b15611425579060848a92836040519586948593636561e0c760e11b855260043560048601528960248601526044850152606484015260018060a01b03165af1801561141a57908891611401575b505060a08a015260643560c08a015260e0015151908082036113e2575050600160208801819052166113db57600e5b600f8110156113c75760e087018190526001600160a01b0382163b156113c3576112f4604485928360405195869485936346f32a5d60e11b85526004356004860152602485019061085a565b6001600160a01b03165af180156113b8579083916113a3575b50506001600160a01b0381163b1561139f57604051634e8eb8bd60e01b8152600480358183015260248201524260448201529082908290606490829084906001600160a01b03165af180156113945761137c575b50505b6001835260c001516001600160a01b03166060830152565b6113878280926108e9565b6113915780611361565b80fd5b6040513d84823e3d90fd5b5080fd5b816113ad916108e9565b61139f57813861130d565b6040513d85823e3d90fd5b8380fd5b634e487b7160e01b84526021600452602484fd5b60096112a8565b9250925050116113f25750611364565b6333c716e760e21b8152600490fd5b8161140b916108e9565b611416578638611279565b8680fd5b6040513d8a823e3d90fd5b8980fd5b81611433916108e9565b61143e57883861120a565b8880fd5b6040513d8c823e3d90fd5b95999a5050959650905060e0919350015161147160018060a01b0391835190610a6e565b5116946001600160a01b0381163b156115d8576040516346f32a5d60e11b81526004803590820152600260248201529085908290604490829084906001600160a01b03165af180156115cd579085916115b8575b505051906001600160a01b0383163b156113c3579060a48492836040519586948593638858751360e01b855260043560048601526024850152896044850152606484015281608484015260018060a01b03165af18015611394579082916115a3575b50506040516115376020826108e9565b81815260003681376040519261154c846108b7565b8284528260208501526040840152816060840152608083015260018060a01b036044351660a083015260643560c0830152600260e08301526001610100830152806101208301528061014083015261016082015290565b816115ad916108e9565b611391578038611527565b816115c2916108e9565b6113c35783386114c5565b6040513d87823e3d90fd5b8480fd5b95995092969a91959993979b505060018060a01b0361160160643560e0860151610a6e565b51166001600160a01b03604435161461117657631a0a9b9f60e21b8852600488fd5b9c50505050505097505096509250905061163b6121a7565b6116436122b8565b9061164e8551610bfc565b879490936001600160a01b03928316939092169190855b87518110156118ab576116788189610a6e565b516040519063fbc6da7560e01b82526004820152602081602481895afa90811561185d578b91611868575b5060406116e7918c6116b5858d610a6e565b51835163910048fb60e01b81526001600160a01b03909316600484015260248301529092839190829081906044820190565b0391895af190811561185d578b9161182d575b50611708575b600101611665565b9589611714888a610a6e565b51863b1561139f57604051906346f32a5d60e11b82526004820152600660248201528181604481838b5af1801561139457611818575b506001600160a01b0361175b612258565b16611766898b610a6e565b51813b15611814578291606483926040519485938492634e8eb8bd60e01b84526004840152600560248401524260448401525af18015611394576117ff575b50506117c86001916117b7898b610a6e565b516117c2828a610a6e565b52610c2e565b966117d3818a610a6e565b517fb9f69df2250e1788b862d0715b1dad98b2a50311c017ebb71f6cd83de656b06d8c80a29050611700565b81611809916108e9565b6114255789386117a5565b8280fd5b81611822916108e9565b61142557893861174a565b61184e915060403d8111611856575b61184681836108e9565b810190610be2565b9050386116fa565b503d61183c565b6040513d8d823e3d90fd5b90506020813d82116118a3575b81611882602093836108e9565b8101031261189f5760406118986116e792610921565b91506116a3565b8a80fd5b3d9150611875565b50949250969450509390936118bf81610bfc565b94845b828110611a6d5750849150604090506119226001600160a01b036118e46122b8565b60c0870151845163910048fb60e01b81526001600160a01b039091166004808301919091523560248201529485939190921691839182906044820190565b03925af1908115611a62578491611a41575b506119ac575b5060c0015160405192906001600160a01b0316611956846108b7565b8284528260208501528260408501526060840152608083015260018060a01b036044351660a083015260643560c0830152600660e083015280610100830152806101208301528061014083015261016082015290565b6001600160a01b0381163b15611814576040516346f32a5d60e11b81526004803590820152600660248201529083908290604490829084906001600160a01b03165af180156113b857908391611a2c575b50506004357fb9f69df2250e1788b862d0715b1dad98b2a50311c017ebb71f6cd83de656b06d8380a23861193a565b81611a36916108e9565b61139f5781386119fd565b611a5a915060403d6040116118565761184681836108e9565b905038611934565b6040513d86823e3d90fd5b80611a7a60019284610a6e565b51611a85828a610a6e565b52016118c2565b50509a50509b50503d80856080513e611aa7816080516108e9565b60c0608051826080510103126115d857611ac2608051610a82565b9b611ad1602060805101610a82565b611adf604060805101610921565b9a606060805101516001600160401b03811161143e57608051611b0691818701910161099a565b936080805101516001600160401b0381116114255760805101908060805101601f8301121561142557815191611b3b8361090a565b92611b4960405194856108e9565b80845260208085019160051b8301019183608051018311611bb657602001905b828210611ba65750505060a06080510151906001600160401b03821161189f57608051611b9a929181019101610935565b9f929c94909f9c6110cf565b8151815260209182019101611b69565b8c80fd5b91935091602060606001926040875180518352848101518584015201516040820152019401910191879392611041565b6333c716e760e21b8352600483fd5b83611c06919492946108e9565b9138610e70565b8580fd5b600a91610e2b565b634e487b7160e01b85526021600452602485fd5b9094503d8085833e611c3f81836108e9565b8101906020818303126115d8578051906001600160401b038211611c0d57016102e0818303126115d857604051916102e083018381106001600160401b03821117611ebf5760405281516006811015611416578352602082015160058110156114165760208401526040820151600f8110156114165760408401526060820151600f811015611416576060840152611cd960808301610921565b6080840152611cea60a08301610921565b60a0840152611cfb60c08301610921565b60c0840152611d0c60e08301610921565b60e08401526101008201516101008401526101208201516101208401526101408201516101408401526101608201516101608401526101808201516101808401526101a08201516101a08401526101c08201516101c08401526101e08201516101e08401526102008201516001600160401b0381116114165781611d91918401610a1a565b6102008401526102208201516001600160401b0381116114165781611db7918401610a1a565b6102208401526102408201516001600160401b03811161141657820181601f8201121561141657805190611dea8261090a565b92611df860405194856108e9565b8284526020606081860194028301019181831161142557602001925b828410611e5d5750505050906102c0916102408401526102608101516102608401526102808101516102808401526102a08101516102a084015201516102c08201529338610e10565b60608483031261142557604051606081018181106001600160401b03821117611eab579160209160609360405286518152828701518382015260408701516040820152815201930192611e14565b634e487b7160e01b8c52604160045260248cfd5b634e487b7160e01b87526041600452602487fd5b9097503d8084833e611ee581836108e9565b8101906020818303126113c3578051906001600160401b0382116115d8570190610160828203126113c3576040519161016083018381106001600160401b0382111761206d57604052805183526020810151602084015260408101516040840152606081015160608401526080810151608084015260a081015160a084015260c08101516006811015611c0d5760c084015260e08101516001600160401b038111611c0d5782611f96918301610935565b60e08401526101008101516001600160401b038111611c0d57810182601f82011215611c0d578051611fc78161090a565b91611fd560405193846108e9565b81835260208084019260051b8201019085821161143e57602001915b818310612054575050506101008401526101208101516001600160401b038111611c0d578261202191830161099a565b610120840152610140810151906001600160401b038211611c0d5761204792910161099a565b6101408201529638610dda565b8251600581101561142557815260209283019201611ff1565b634e487b7160e01b86526041600452602486fd5b9095506020813d6020116120ad575b8161209d602093836108e9565b8101031261139f57519438610d9d565b3d9150612090565b9096506020813d6020116120e9575b816120d1602093836108e9565b81010312611416576120e290610921565b9538610d66565b3d91506120c4565b50604051903d90823e3d90fd5b50956020813d602011612136575b81612119602093836108e9565b81010312611416579561212e60649697610921565b879650610d05565b3d915061210c565b94506020863d602011612172575b81612159602093836108e9565b810103126115d85761216c606496610921565b94610cb5565b3d915061214c565b604051903d90823e3d90fd5b6000805160206123b3833981519152546001600160a01b0316330361039557565b600054604051631bae711d60e21b815260206004820181905260126024830152712a3930b739b0b1ba34b7b726b0b730b3b2b960711b60448301529091829060649082906001600160a01b03165afa90811561224c57600091612212575b506001600160a01b031690565b90506020813d602011612244575b8161222d602093836108e9565b810103126101325761223e90610921565b38612205565b3d9150612220565b6040513d6000823e3d90fd5b600054604051631bae711d60e21b8152602060048201819052600860248301526749646c656e65737360c01b60448301529091829060649082906001600160a01b03165afa90811561224c5760009161221257506001600160a01b031690565b600054604051631bae711d60e21b8152602060048201819052600660248301526551756575657360d01b60448301529091829060649082906001600160a01b03165afa90811561224c5760009161221257506001600160a01b031690565b60008051602061241383398151915280546001600160a01b03199081169091556000805160206123b383398151915280549182166001600160a01b0393841690811790915591167f8be0079c531659141344cd1fd0a4f28419497f9722a3daafe3b4186f6b6457e0600080a3565b60ff6000805160206123f38339815191525460401c16156123a157565b631afcd79f60e31b60005260046000fdfe9016d09d72d40fdae2fd8ceac6b6234c7706214fd39c1cd1e609a0528c1993009b779b17422d0df92223018b32b4d1fa46e071723d6817e2486d003becc55f00f0c57e16840df040f15088dc2f81fe391c3923bec73e23a9662efc9c229c6a00237e158222e3e6968b72b9db0d8043aacf074ad9f650f0d1606b4d82ee432c00a26469706673582212204e8d534004fc6054aea94556fcba48ae49f6dabf2e7dd522ea5c7093997e7bd464736f6c634300081c0033",
  "linkReferences": {},
  "deployedLinkReferences": {}
}