{
  "_format": "hh-sol-artifact-1",
  "contractName": "StakingEpoch",
  "sourceName": "contracts/staking/StakingEpoch.sol",
  "abi": [
    {
      "inputs": [],
      "name": "AccessControlBadConfirmation",
      "type": "error"
    },
    {
      "inputs": [
        {
          "internalType": "address",
          "name": "account",
          "type": "address"
        },
        {
          "internalType": "bytes32",
          "name": "neededRole",
          "type": "bytes32"
        }
      ],
      "name": "AccessControlUnauthorizedAccount",
      "type": "error"
    },
    {
      "inputs": [],
      "name": "DeepthoughtCallFailed",
      "type": "error"
    },
    {
      "inputs": [],
      "name": "EpochAdvanceNotReady",
      "type": "error"
    },
    {
      "inputs": [],
      "name": "InvalidInitialization",
      "type": "error"
    },
    {
      "inputs": [],
      "name": "NotInitializing",
      "type": "error"
    },
    {
      "inputs": [],
      "name": "OnlyTransactionsOrTribunal",
      "type": "error"
    },
    {
      "inputs": [
        {
          "internalType": "address",
          "name": "owner",
          "type": "address"
        }
      ],
      "name": "OwnableInvalidOwner",
      "type": "error"
    },
    {
      "inputs": [
        {
          "internalType": "address",
          "name": "account",
          "type": "address"
        }
      ],
      "name": "OwnableUnauthorizedAccount",
      "type": "error"
    },
    {
      "inputs": [],
      "name": "PreviousEpochNotFinalizable",
      "type": "error"
    },
    {
      "inputs": [],
      "name": "ReentrancyGuardReentrantCall",
      "type": "error"
    },
    {
      "anonymous": false,
      "inputs": [
        {
          "indexed": false,
          "internalType": "uint256",
          "name": "epoch",
          "type": "uint256"
        }
      ],
      "name": "EpochAdvance",
      "type": "event"
    },
    {
      "anonymous": false,
      "inputs": [
        {
          "indexed": false,
          "internalType": "uint256",
          "name": "epoch",
          "type": "uint256"
        }
      ],
      "name": "EpochFinalize",
      "type": "event"
    },
    {
      "anonymous": false,
      "inputs": [
        {
          "indexed": true,
          "internalType": "uint256",
          "name": "targetEpoch",
          "type": "uint256"
        },
        {
          "indexed": false,
          "internalType": "uint256",
          "name": "l2GasPrice",
          "type": "uint256"
        },
        {
          "indexed": false,
          "internalType": "uint256",
          "name": "l2GasLimit",
          "type": "uint256"
        }
      ],
      "name": "InflationRequestedFromL2",
      "type": "event"
    },
    {
      "anonymous": false,
      "inputs": [
        {
          "indexed": false,
          "internalType": "uint64",
          "name": "version",
          "type": "uint64"
        }
      ],
      "name": "Initialized",
      "type": "event"
    },
    {
      "anonymous": false,
      "inputs": [
        {
          "indexed": true,
          "internalType": "address",
          "name": "previousOwner",
          "type": "address"
        },
        {
          "indexed": true,
          "internalType": "address",
          "name": "newOwner",
          "type": "address"
        }
      ],
      "name": "OwnershipTransferStarted",
      "type": "event"
    },
    {
      "anonymous": false,
      "inputs": [
        {
          "indexed": true,
          "internalType": "address",
          "name": "previousOwner",
          "type": "address"
        },
        {
          "indexed": true,
          "internalType": "address",
          "name": "newOwner",
          "type": "address"
        }
      ],
      "name": "OwnershipTransferred",
      "type": "event"
    },
    {
      "anonymous": false,
      "inputs": [
        {
          "indexed": true,
          "internalType": "bytes32",
          "name": "role",
          "type": "bytes32"
        },
        {
          "indexed": true,
          "internalType": "bytes32",
          "name": "previousAdminRole",
          "type": "bytes32"
        },
        {
          "indexed": true,
          "internalType": "bytes32",
          "name": "newAdminRole",
          "type": "bytes32"
        }
      ],
      "name": "RoleAdminChanged",
      "type": "event"
    },
    {
      "anonymous": false,
      "inputs": [
        {
          "indexed": true,
          "internalType": "bytes32",
          "name": "role",
          "type": "bytes32"
        },
        {
          "indexed": true,
          "internalType": "address",
          "name": "account",
          "type": "address"
        },
        {
          "indexed": true,
          "internalType": "address",
          "name": "sender",
          "type": "address"
        }
      ],
      "name": "RoleGranted",
      "type": "event"
    },
    {
      "anonymous": false,
      "inputs": [
        {
          "indexed": true,
          "internalType": "bytes32",
          "name": "role",
          "type": "bytes32"
        },
        {
          "indexed": true,
          "internalType": "address",
          "name": "account",
          "type": "address"
        },
        {
          "indexed": true,
          "internalType": "address",
          "name": "sender",
          "type": "address"
        }
      ],
      "name": "RoleRevoked",
      "type": "event"
    },
    {
      "anonymous": false,
      "inputs": [
        {
          "indexed": false,
          "internalType": "uint256",
          "name": "epochNumber",
          "type": "uint256"
        },
        {
          "indexed": false,
          "internalType": "uint256",
          "name": "maxWeight",
          "type": "uint256"
        },
        {
          "indexed": false,
          "internalType": "uint256",
          "name": "weightWithdrawal",
          "type": "uint256"
        }
      ],
      "name": "WeightWithdrawalOverflow",
      "type": "event"
    },
    {
      "inputs": [],
      "name": "DEFAULT_ADMIN_ROLE",
      "outputs": [
        {
          "internalType": "bytes32",
          "name": "",
          "type": "bytes32"
        }
      ],
      "stateMutability": "view",
      "type": "function"
    },
    {
      "inputs": [],
      "name": "DEFAULT_DELEGATOR_MIN_STAKE",
      "outputs": [
        {
          "internalType": "uint256",
          "name": "",
          "type": "uint256"
        }
      ],
      "stateMutability": "view",
      "type": "function"
    },
    {
      "inputs": [],
      "name": "DEFAULT_VALIDATOR_MIN_STAKE",
      "outputs": [
        {
          "internalType": "uint256",
          "name": "",
          "type": "uint256"
        }
      ],
      "stateMutability": "view",
      "type": "function"
    },
    {
      "inputs": [],
      "name": "DELEGATOR_UNBONDING_PERIOD",
      "outputs": [
        {
          "internalType": "uint256",
          "name": "",
          "type": "uint256"
        }
      ],
      "stateMutability": "view",
      "type": "function"
    },
    {
      "inputs": [],
      "name": "INFLATION_BASE",
      "outputs": [
        {
          "internalType": "uint256",
          "name": "",
          "type": "uint256"
        }
      ],
      "stateMutability": "view",
      "type": "function"
    },
    {
      "inputs": [],
      "name": "INFLATION_DEEPTHOUGHT_BPS",
      "outputs": [
        {
          "internalType": "uint256",
          "name": "",
          "type": "uint256"
        }
      ],
      "stateMutability": "view",
      "type": "function"
    },
    {
      "inputs": [],
      "name": "INFLATION_DEVELOPER_BPS",
      "outputs": [
        {
          "internalType": "uint256",
          "name": "",
          "type": "uint256"
        }
      ],
      "stateMutability": "view",
      "type": "function"
    },
    {
      "inputs": [],
      "name": "INFLATION_FINAL",
      "outputs": [
        {
          "internalType": "uint256",
          "name": "",
          "type": "uint256"
        }
      ],
      "stateMutability": "view",
      "type": "function"
    },
    {
      "inputs": [],
      "name": "INFLATION_INITIAL",
      "outputs": [
        {
          "internalType": "uint256",
          "name": "",
          "type": "uint256"
        }
      ],
      "stateMutability": "view",
      "type": "function"
    },
    {
      "inputs": [],
      "name": "INFLATION_MID",
      "outputs": [
        {
          "internalType": "int256",
          "name": "",
          "type": "int256"
        }
      ],
      "stateMutability": "view",
      "type": "function"
    },
    {
      "inputs": [],
      "name": "INFLATION_STAKER_BPS",
      "outputs": [
        {
          "internalType": "uint256",
          "name": "",
          "type": "uint256"
        }
      ],
      "stateMutability": "view",
      "type": "function"
    },
    {
      "inputs": [],
      "name": "INFLATION_STEEPNESS",
      "outputs": [
        {
          "internalType": "int256",
          "name": "",
          "type": "int256"
        }
      ],
      "stateMutability": "view",
      "type": "function"
    },
    {
      "inputs": [],
      "name": "INFLATION_VALIDATOR_BPS",
      "outputs": [
        {
          "internalType": "uint256",
          "name": "",
          "type": "uint256"
        }
      ],
      "stateMutability": "view",
      "type": "function"
    },
    {
      "inputs": [],
      "name": "L1_MESSENGER",
      "outputs": [
        {
          "internalType": "contract IL1Messenger",
          "name": "",
          "type": "address"
        }
      ],
      "stateMutability": "view",
      "type": "function"
    },
    {
      "inputs": [],
      "name": "QUARANTINE_MANAGER_ROLE",
      "outputs": [
        {
          "internalType": "bytes32",
          "name": "",
          "type": "bytes32"
        }
      ],
      "stateMutability": "view",
      "type": "function"
    },
    {
      "inputs": [],
      "name": "SLASH_CALLER_INCENTIVE_BPS",
      "outputs": [
        {
          "internalType": "uint256",
          "name": "",
          "type": "uint256"
        }
      ],
      "stateMutability": "view",
      "type": "function"
    },
    {
      "inputs": [],
      "name": "VALIDATOR_UNBONDING_PERIOD",
      "outputs": [
        {
          "internalType": "uint256",
          "name": "",
          "type": "uint256"
        }
      ],
      "stateMutability": "view",
      "type": "function"
    },
    {
      "inputs": [],
      "name": "acceptOwnership",
      "outputs": [],
      "stateMutability": "nonpayable",
      "type": "function"
    },
    {
      "inputs": [],
      "name": "addressManager",
      "outputs": [
        {
          "internalType": "contract IAddressManager",
          "name": "",
          "type": "address"
        }
      ],
      "stateMutability": "view",
      "type": "function"
    },
    {
      "inputs": [],
      "name": "burning",
      "outputs": [
        {
          "internalType": "uint256",
          "name": "",
          "type": "uint256"
        }
      ],
      "stateMutability": "view",
      "type": "function"
    },
    {
      "inputs": [],
      "name": "deepthought",
      "outputs": [
        {
          "internalType": "address payable",
          "name": "",
          "type": "address"
        }
      ],
      "stateMutability": "view",
      "type": "function"
    },
    {
      "inputs": [],
      "name": "delegatorMinStake",
      "outputs": [
        {
          "internalType": "uint256",
          "name": "",
          "type": "uint256"
        }
      ],
      "stateMutability": "view",
      "type": "function"
    },
    {
      "inputs": [],
      "name": "epoch",
      "outputs": [
        {
          "internalType": "uint256",
          "name": "",
          "type": "uint256"
        }
      ],
      "stateMutability": "view",
      "type": "function"
    },
    {
      "inputs": [],
      "name": "epochAdvance",
      "outputs": [],
      "stateMutability": "nonpayable",
      "type": "function"
    },
    {
      "inputs": [],
      "name": "epochEven",
      "outputs": [
        {
          "internalType": "uint256",
          "name": "start",
          "type": "uint256"
        },
        {
          "internalType": "uint256",
          "name": "end",
          "type": "uint256"
        },
        {
          "internalType": "uint256",
          "name": "inflation",
          "type": "uint256"
        },
        {
          "internalType": "uint256",
          "name": "weight",
          "type": "uint256"
        },
        {
          "internalType": "uint256",
          "name": "weightDeposit",
          "type": "uint256"
        },
        {
          "internalType": "uint256",
          "name": "weightWithdrawal",
          "type": "uint256"
        },
        {
          "internalType": "uint256",
          "name": "vcount",
          "type": "uint256"
        },
        {
          "internalType": "uint256",
          "name": "claimed",
          "type": "uint256"
        },
        {
          "internalType": "uint256",
          "name": "stakeDeposit",
          "type": "uint256"
        },
        {
          "internalType": "uint256",
          "name": "stakeWithdrawal",
          "type": "uint256"
        },
        {
          "internalType": "uint256",
          "name": "slashed",
          "type": "uint256"
        }
      ],
      "stateMutability": "view",
      "type": "function"
    },
    {
      "inputs": [],
      "name": "epochExtraMinDuration",
      "outputs": [
        {
          "internalType": "uint256",
          "name": "",
          "type": "uint256"
        }
      ],
      "stateMutability": "view",
      "type": "function"
    },
    {
      "inputs": [],
      "name": "epochFinalize",
      "outputs": [],
      "stateMutability": "nonpayable",
      "type": "function"
    },
    {
      "inputs": [],
      "name": "epochFinalizeImmediate",
      "outputs": [],
      "stateMutability": "nonpayable",
      "type": "function"
    },
    {
      "inputs": [],
      "name": "epochMinDuration",
      "outputs": [
        {
          "internalType": "uint256",
          "name": "",
          "type": "uint256"
        }
      ],
      "stateMutability": "view",
      "type": "function"
    },
    {
      "inputs": [],
      "name": "epochMinDurationThreshold",
      "outputs": [
        {
          "internalType": "uint256",
          "name": "",
          "type": "uint256"
        }
      ],
      "stateMutability": "view",
      "type": "function"
    },
    {
      "inputs": [],
      "name": "epochOdd",
      "outputs": [
        {
          "internalType": "uint256",
          "name": "start",
          "type": "uint256"
        },
        {
          "internalType": "uint256",
          "name": "end",
          "type": "uint256"
        },
        {
          "internalType": "uint256",
          "name": "inflation",
          "type": "uint256"
        },
        {
          "internalType": "uint256",
          "name": "weight",
          "type": "uint256"
        },
        {
          "internalType": "uint256",
          "name": "weightDeposit",
          "type": "uint256"
        },
        {
          "internalType": "uint256",
          "name": "weightWithdrawal",
          "type": "uint256"
        },
        {
          "internalType": "uint256",
          "name": "vcount",
          "type": "uint256"
        },
        {
          "internalType": "uint256",
          "name": "claimed",
          "type": "uint256"
        },
        {
          "internalType": "uint256",
          "name": "stakeDeposit",
          "type": "uint256"
        },
        {
          "internalType": "uint256",
          "name": "stakeWithdrawal",
          "type": "uint256"
        },
        {
          "internalType": "uint256",
          "name": "slashed",
          "type": "uint256"
        }
      ],
      "stateMutability": "view",
      "type": "function"
    },
    {
      "inputs": [],
      "name": "epochZeroMinDuration",
      "outputs": [
        {
          "internalType": "uint256",
          "name": "",
          "type": "uint256"
        }
      ],
      "stateMutability": "view",
      "type": "function"
    },
    {
      "inputs": [],
      "name": "finalizationPhaseAddress",
      "outputs": [
        {
          "internalType": "address",
          "name": "",
          "type": "address"
        }
      ],
      "stateMutability": "view",
      "type": "function"
    },
    {
      "inputs": [],
      "name": "finalized",
      "outputs": [
        {
          "internalType": "uint256",
          "name": "",
          "type": "uint256"
        }
      ],
      "stateMutability": "view",
      "type": "function"
    },
    {
      "inputs": [
        {
          "internalType": "bytes32",
          "name": "role",
          "type": "bytes32"
        }
      ],
      "name": "getRoleAdmin",
      "outputs": [
        {
          "internalType": "bytes32",
          "name": "",
          "type": "bytes32"
        }
      ],
      "stateMutability": "view",
      "type": "function"
    },
    {
      "inputs": [
        {
          "internalType": "bytes32",
          "name": "role",
          "type": "bytes32"
        },
        {
          "internalType": "address",
          "name": "account",
          "type": "address"
        }
      ],
      "name": "grantRole",
      "outputs": [],
      "stateMutability": "nonpayable",
      "type": "function"
    },
    {
      "inputs": [
        {
          "internalType": "bytes32",
          "name": "role",
          "type": "bytes32"
        },
        {
          "internalType": "address",
          "name": "account",
          "type": "address"
        }
      ],
      "name": "hasRole",
      "outputs": [
        {
          "internalType": "bool",
          "name": "",
          "type": "bool"
        }
      ],
      "stateMutability": "view",
      "type": "function"
    },
    {
      "inputs": [],
      "name": "idlenessPhaseAddress",
      "outputs": [
        {
          "internalType": "address",
          "name": "",
          "type": "address"
        }
      ],
      "stateMutability": "view",
      "type": "function"
    },
    {
      "inputs": [],
      "name": "inflationEpoch",
      "outputs": [
        {
          "internalType": "uint256",
          "name": "",
          "type": "uint256"
        }
      ],
      "stateMutability": "view",
      "type": "function"
    },
    {
      "inputs": [],
      "name": "inflationRequestThreshold",
      "outputs": [
        {
          "internalType": "uint256",
          "name": "",
          "type": "uint256"
        }
      ],
      "stateMutability": "view",
      "type": "function"
    },
    {
      "inputs": [
        {
          "internalType": "uint256",
          "name": "",
          "type": "uint256"
        }
      ],
      "name": "inflationRequested",
      "outputs": [
        {
          "internalType": "bool",
          "name": "",
          "type": "bool"
        }
      ],
      "stateMutability": "view",
      "type": "function"
    },
    {
      "inputs": [],
      "name": "inflationSupply",
      "outputs": [
        {
          "internalType": "uint256",
          "name": "",
          "type": "uint256"
        }
      ],
      "stateMutability": "view",
      "type": "function"
    },
    {
      "inputs": [],
      "name": "inflationTargetAhead",
      "outputs": [
        {
          "internalType": "uint256",
          "name": "",
          "type": "uint256"
        }
      ],
      "stateMutability": "view",
      "type": "function"
    },
    {
      "inputs": [],
      "name": "l2GasLimit",
      "outputs": [
        {
          "internalType": "uint256",
          "name": "",
          "type": "uint256"
        }
      ],
      "stateMutability": "view",
      "type": "function"
    },
    {
      "inputs": [],
      "name": "l2GasPrice",
      "outputs": [
        {
          "internalType": "uint256",
          "name": "",
          "type": "uint256"
        }
      ],
      "stateMutability": "view",
      "type": "function"
    },
    {
      "inputs": [],
      "name": "maxValidators",
      "outputs": [
        {
          "internalType": "uint256",
          "name": "",
          "type": "uint256"
        }
      ],
      "stateMutability": "view",
      "type": "function"
    },
    {
      "inputs": [
        {
          "internalType": "address",
          "name": "",
          "type": "address"
        }
      ],
      "name": "operatorsToValidators",
      "outputs": [
        {
          "internalType": "address",
          "name": "",
          "type": "address"
        }
      ],
      "stateMutability": "view",
      "type": "function"
    },
    {
      "inputs": [],
      "name": "owner",
      "outputs": [
        {
          "internalType": "address",
          "name": "",
          "type": "address"
        }
      ],
      "stateMutability": "view",
      "type": "function"
    },
    {
      "inputs": [],
      "name": "pendingOwner",
      "outputs": [
        {
          "internalType": "address",
          "name": "",
          "type": "address"
        }
      ],
      "stateMutability": "view",
      "type": "function"
    },
    {
      "inputs": [],
      "name": "pendingRequestInflationFromL1",
      "outputs": [
        {
          "internalType": "bool",
          "name": "",
          "type": "bool"
        }
      ],
      "stateMutability": "view",
      "type": "function"
    },
    {
      "inputs": [],
      "name": "reductionFactor",
      "outputs": [
        {
          "internalType": "uint256",
          "name": "",
          "type": "uint256"
        }
      ],
      "stateMutability": "view",
      "type": "function"
    },
    {
      "inputs": [],
      "name": "renounceOwnership",
      "outputs": [],
      "stateMutability": "nonpayable",
      "type": "function"
    },
    {
      "inputs": [
        {
          "internalType": "bytes32",
          "name": "role",
          "type": "bytes32"
        },
        {
          "internalType": "address",
          "name": "callerConfirmation",
          "type": "address"
        }
      ],
      "name": "renounceRole",
      "outputs": [],
      "stateMutability": "nonpayable",
      "type": "function"
    },
    {
      "inputs": [],
      "name": "revealingPhaseAddress",
      "outputs": [
        {
          "internalType": "address",
          "name": "",
          "type": "address"
        }
      ],
      "stateMutability": "view",
      "type": "function"
    },
    {
      "inputs": [
        {
          "internalType": "bytes32",
          "name": "role",
          "type": "bytes32"
        },
        {
          "internalType": "address",
          "name": "account",
          "type": "address"
        }
      ],
      "name": "revokeRole",
      "outputs": [],
      "stateMutability": "nonpayable",
      "type": "function"
    },
    {
      "inputs": [],
      "name": "stakingInvariant",
      "outputs": [
        {
          "internalType": "address",
          "name": "",
          "type": "address"
        }
      ],
      "stateMutability": "view",
      "type": "function"
    },
    {
      "inputs": [
        {
          "internalType": "bytes4",
          "name": "interfaceId",
          "type": "bytes4"
        }
      ],
      "name": "supportsInterface",
      "outputs": [
        {
          "internalType": "bool",
          "name": "",
          "type": "bool"
        }
      ],
      "stateMutability": "view",
      "type": "function"
    },
    {
      "inputs": [],
      "name": "transactionFeesManager",
      "outputs": [
        {
          "internalType": "address",
          "name": "",
          "type": "address"
        }
      ],
      "stateMutability": "view",
      "type": "function"
    },
    {
      "inputs": [
        {
          "internalType": "address",
          "name": "newOwner",
          "type": "address"
        }
      ],
      "name": "transferOwnership",
      "outputs": [],
      "stateMutability": "nonpayable",
      "type": "function"
    },
    {
      "inputs": [
        {
          "internalType": "address",
          "name": "validatorAddress",
          "type": "address"
        }
      ],
      "name": "validatorInsertedInTree",
      "outputs": [
        {
          "internalType": "uint256",
          "name": "timestamp",
          "type": "uint256"
        }
      ],
      "stateMutability": "view",
      "type": "function"
    },
    {
      "inputs": [],
      "name": "validatorMinStake",
      "outputs": [
        {
          "internalType": "uint256",
          "name": "",
          "type": "uint256"
        }
      ],
      "stateMutability": "view",
      "type": "function"
    },
    {
      "inputs": [
        {
          "internalType": "address",
          "name": "validatorAddress",
          "type": "address"
        }
      ],
      "name": "validatorRemovedFromTheTree",
      "outputs": [
        {
          "internalType": "uint256",
          "name": "timestamp",
          "type": "uint256"
        }
      ],
      "stateMutability": "view",
      "type": "function"
    },
    {
      "inputs": [
        {
          "internalType": "uint256",
          "name": "",
          "type": "uint256"
        }
      ],
      "name": "validatorsEven",
      "outputs": [
        {
          "internalType": "address",
          "name": "",
          "type": "address"
        }
      ],
      "stateMutability": "view",
      "type": "function"
    },
    {
      "inputs": [
        {
          "internalType": "uint256",
          "name": "",
          "type": "uint256"
        }
      ],
      "name": "validatorsJoined",
      "outputs": [
        {
          "internalType": "address",
          "name": "",
          "type": "address"
        }
      ],
      "stateMutability": "view",
      "type": "function"
    },
    {
      "inputs": [
        {
          "internalType": "uint256",
          "name": "",
          "type": "uint256"
        }
      ],
      "name": "validatorsOdd",
      "outputs": [
        {
          "internalType": "address",
          "name": "",
          "type": "address"
        }
      ],
      "stateMutability": "view",
      "type": "function"
    },
    {
      "inputs": [
        {
          "internalType": "uint256",
          "name": "",
          "type": "uint256"
        }
      ],
      "name": "weightsEven",
      "outputs": [
        {
          "internalType": "uint256",
          "name": "",
          "type": "uint256"
        }
      ],
      "stateMutability": "view",
      "type": "function"
    },
    {
      "inputs": [
        {
          "internalType": "uint256",
          "name": "",
          "type": "uint256"
        }
      ],
      "name": "weightsOdd",
      "outputs": [
        {
          "internalType": "uint256",
          "name": "",
          "type": "uint256"
        }
      ],
      "stateMutability": "view",
      "type": "function"
    }
  ],
  "bytecode": "0x60808060405234601557612598908161001b8239f35b600080fdfe6080604052600436101561001257600080fd5b60003560e01c806301ffc9a71461044257806308ac52561461043d5780630a3cfb13146104385780630ab07e88146104335780631538faf21461042e57806318a3b882146104295780631bc2359a14610424578063217fcc3e146103a25780632272e0ab1461041f57806324147f671461041a57806324840a5e14610415578063248a9ca31461041057806326ed4c701461040b5780632f2ff15d1461040657806336568abe146104015780633ab76e9f146103fc5780633fde6d7b146103f757806344aa3ded146103f25780634971ec02146103ed5780634c12b33f146103e85780634f2938fc146103e357806356eaad0f146103de578063624a4485146103d95780636378eba3146103d457806367604d27146103cf578063715018a6146103ca578063746e4ac7146103c55780637492100f146103c057806379ba5097146103bb5780637a5d2660146103b65780637e1233a9146103b157806383772595146103ac57806387e51da9146103a75780638b7e92a6146103a25780638da5cb5b1461039d578063900cf0cf14610398578063900fd9ce1461039357806391d148541461038e57806396be02a7146103895780639a612f7a146103845780639ae366851461037f5780639d357fd81461037a578063a01ebaa114610375578063a217fddf14610370578063a8027c101461036b578063abfd6fa914610366578063ac78a04b14610361578063b03df1f01461035c578063b3f05b9714610357578063bc338e7f14610352578063c0a604ad1461034d578063c498c95b14610348578063cb17452f14610343578063cd38347f1461033e578063cd85623514610339578063cf662c1414610334578063cf6e65b71461032f578063d547741f1461032a578063d7ef354414610325578063da7a9b6a14610320578063de8eec641461031b578063e30c397814610316578063e3c6b0ca14610311578063f2fde38b1461030c578063f85683ef14610307578063fafebac5146103025763fb6fe776146102fd57600080fd5b6111da565b611194565b61116b565b6110e0565b6110c2565b61108c565b611063565b611045565b61101c565b610fe8565b610fca565b610fb1565b610f93565b610f6c565b610f31565b610f0c565b610eee565b610ed2565b610eb4565b610e6f565b610e52565b610e2e565b610e0b565b610def565b610dcb565b610d8e565b610d70565b610cf6565b610cac565b610bfd565b610bb2565b610b94565b610b5e565b6105b2565b610b09565b610aec565b610acf565b610aa6565b6109f5565b6109d3565b610988565b610907565b6108e9565b6108cb565b6108ad565b610801565b6107d8565b6107ba565b610797565b61075a565b61073c565b610713565b6106c9565b61068e565b61065a565b610634565b61060b565b6105ed565b6105cf565b610594565b610569565b61054b565b61052d565b6104d8565b6104a8565b346104985760203660031901126104985760043563ffffffff60e01b811680910361049857602090637965db0b60e01b8114908115610487575b506040519015158152f35b6301ffc9a760e01b1490503861047c565b600080fd5b600091031261049857565b34610498576000366003190112610498576020600554604051908152f35b60209060031901126104985760043590565b34610498576104e6366104c6565b602d5481101561049857602d6000527f4a2cc91ee622da3bc833a54c37ffcb6f3ec23b7793efc5eaf5e71b7b406c5c0601546040516001600160a01b039091168152602090f35b34610498576000366003190112610498576020601054604051908152f35b34610498576000366003190112610498576020604354604051908152f35b3461049857610577366104c6565b6000526052602052602060ff604060002054166040519015158152f35b34610498576000366003190112610498576020600254604051908152f35b346104985760003660031901126104985760206040516103e88152f35b34610498576000366003190112610498576020604154604051908152f35b34610498576000366003190112610498576020605154604051908152f35b34610498576000366003190112610498576044546040516001600160a01b039091168152602090f35b3461049857602036600319011261049857602061065260043561122f565b604051908152f35b3461049857600036600319011261049857602060ff605354166040519015158152f35b6001600160a01b0381160361049857565b34610498576040366003190112610498576106c76024356004356106b18261067d565b6106c26106bd8261122f565b611396565b6113e0565b005b34610498576040366003190112610498576004356024356106e98161067d565b336001600160a01b03821603610702576106c79161148e565b63334bd91960e11b60005260046000fd5b34610498576000366003190112610498576047546040516001600160a01b039091168152602090f35b34610498576000366003190112610498576020600154604051908152f35b34610498576020366003190112610498576004356107778161067d565b60018060a01b031660005260546020526020604060002054604051908152f35b34610498576000366003190112610498576020604051670214e8348c4f00008152f35b34610498576000366003190112610498576020601354604051908152f35b34610498576000366003190112610498576048546040516001600160a01b039091168152602090f35b346104985760003660031901126104985761081a611533565b61082261158a565b1561089c5761082f61185e565b60016011541461088f575b61084261216a565b61085b575b600160008051602061252383398151915255005b610863612294565b6000805160206124e3833981519152602061087f601254611266565b80601255604051908152a1610847565b61089761185e565b61083a565b63e7295fed60e01b60005260046000fd5b34610498576000366003190112610498576020605054604051908152f35b34610498576000366003190112610498576020600054604051908152f35b34610498576000366003190112610498576020604054604051908152f35b34610498576000366003190112610498576109206122fa565b60008051602061254383398151915280546001600160a01b03199081169091556000805160206124c3833981519152805491821690556000906001600160a01b03167f8be0079c531659141344cd1fd0a4f28419497f9722a3daafe3b4186f6b6457e08280a3005b3461049857610996366104c6565b602a5481101561049857602a6000527fbeced09521047d05b8960b7e7bcc1d1292cf3e4b2a6b63f48335cbde5f7545d20154604051908152602090f35b34610498576000366003190112610498576020604051668e1bc9bf0400008152f35b346104985760003660031901126104985760008051602061254383398151915254336001600160a01b0390911603610a915760008051602061254383398151915280546001600160a01b03199081169091556000805160206124c383398151915280543392811683179091556001600160a01b03167f8be0079c531659141344cd1fd0a4f28419497f9722a3daafe3b4186f6b6457e0600080a3005b63118cdaa760e01b6000523360045260246000fd5b34610498576000366003190112610498576049546040516001600160a01b039091168152602090f35b346104985760003660031901126104985760206040516180088152f35b34610498576000366003190112610498576020604051611d4c8152f35b3461049857610b17366104c6565b602c5481101561049857602c6000527f7416c943b4a09859521022fd2e90eac0dd9026dad28fa317782a135f28a8609101546040516001600160a01b039091168152602090f35b34610498576000366003190112610498576000805160206124c3833981519152546040516001600160a01b039091168152602090f35b34610498576000366003190112610498576020601154604051908152f35b3461049857610bc0366104c6565b602b5481101561049857602b6000527f11c44e4875b74d31ff9fd779bf2566af7bd15b87fc985d01f5094b89e3669e4f0154604051908152602090f35b3461049857604036600319011261049857602060ff610c54602435600435610c248261067d565b600052600080516020612503833981519152845260406000209060018060a01b0316600052602052604060002090565b54166040519015158152f35b979491926101409996939c9b9a9794919c6101608a019d8a5260208a015260408901526060880152608087015260a086015260c085015260e08401526101008301526101208201520152565b3461049857600036600319011261049857601f5460205490610cf2602154602254602354602454602554602654916027549360285495602954976040519b8c9b8c610c60565b0390f35b3461049857600036600319011261049857610d0f611533565b610d1761216a565b15610d5f57610d24612294565b6000805160206124e38339815191526020610d40601254611266565b80601255604051908152a1600160008051602061252383398151915255005b6349dbf5c360e11b60005260046000fd5b34610498576000366003190112610498576020604e54604051908152f35b3461049857602036600319011261049857600435610dab8161067d565b60018060a01b031660005260556020526020604060002054604051908152f35b34610498576000366003190112610498576020604051684e1003b28d928000008152f35b3461049857600036600319011261049857602060405160008152f35b34610498576000366003190112610498576020604051660aa87bee537fff198152f35b34610498576000366003190112610498576020604051680246ddf979766800008152f35b346104985760003660031901126104985760206040516101f48152f35b3461049857602036600319011261049857600435610e8c8161067d565b60018060a01b03166000526034602052602060018060a01b0360406000205416604051908152f35b34610498576000366003190112610498576020601254604051908152f35b3461049857600036600319011261049857602060405160648152f35b34610498576000366003190112610498576020600f54604051908152f35b346104985760003660031901126104985760206040516908e4d3168276864000008152f35b346104985760003660031901126104985760206040517f155e7f76c52e49fe8308e62eabe3ce449c978443b7d8beb86992427229ec386f8152f35b346104985760003660031901126104985760206040516b0d92289838d21a99680000008152f35b34610498576000366003190112610498576020600454604051908152f35b34610498576000366003190112610498576106c7611296565b34610498576000366003190112610498576020604f54604051908152f35b34610498576040366003190112610498576106c760243560043561100b8261067d565b6110176106bd8261122f565b61148e565b3461049857600036600319011261049857600e546040516001600160a01b039091168152602090f35b34610498576000366003190112610498576020604254604051908152f35b34610498576000366003190112610498576046546040516001600160a01b039091168152602090f35b3461049857600036600319011261049857600080516020612543833981519152546040516001600160a01b039091168152602090f35b34610498576000366003190112610498576020600354604051908152f35b34610498576020366003190112610498576004356110fd8161067d565b6111056122fa565b60008051602061254383398151915280546001600160a01b0319166001600160a01b039283169081179091556000805160206124c3833981519152549091167f38d16b8cac22d99fc7c124b9cd0de2d3fa1faef420bfe791d8c362d765e22700600080a3005b3461049857600036600319011261049857604a546040516001600160a01b039091168152602090f35b346104985760003660031901126104985760145460155490610cf2601654601754601854601954601a54601b5491601c5493601d5495601e54976040519b8c9b8c610c60565b34610498576111e8366104c6565b6045548110156104985760456000527fa80a8fcc11760162f08bb091d2c9389d07f2b73d0e996161dfac6f1043b5fc0b01546040516001600160a01b039091168152602090f35b60005260008051602061250383398151915260205260016040600020015490565b634e487b7160e01b600052601160045260246000fd5b60001981146112755760010190565b611250565b60001981019190821161127557565b9190820391821161127557565b6112ad6112a1612333565b6001600160a01b031690565b33141580611382575b80611364575b80611346575b611335576011546002811090811561131f575b5061131d576112e2612294565b6000805160206124e38339815191526113186112ff601254611266565b61130881601255565b6040519081529081906020820190565b0390a1565b565b905061132d6012549161127a565b1115386112d5565b636c4db06b60e01b60005260046000fd5b5060485461135c906001600160a01b03166112a1565b3314156112c2565b50604a5461137a906001600160a01b03166112a1565b3314156112bc565b5061138e6112a16123bd565b3314156112b6565b60008181526000805160206125038339815191526020908152604080832033845290915290205460ff16156113c85750565b63e2517d3f60e01b6000523360045260245260446000fd5b6000818152600080516020612503833981519152602090815260408083206001600160a01b038616845290915290205460ff16611487576000818152600080516020612503833981519152602090815260408083206001600160a01b03861684529091529020805460ff1916600117905533916001600160a01b0316907f2f8788117e7eff1d82e926ec794901d17c78024a50270940304540a733656f0d600080a4600190565b5050600090565b6000818152600080516020612503833981519152602090815260408083206001600160a01b038616845290915290205460ff1615611487576000818152600080516020612503833981519152602090815260408083206001600160a01b03861684529091529020805460ff1916905533916001600160a01b0316907ff6391f5c32d9c69d2a47ea670b442974b53935d1edc7fd64eb21e047a839171b600080a4600190565b6002600080516020612523833981519152541461155e57600260008051602061252383398151915255565b633ee5aeb560e01b60005260046000fd5b906001820180921161127557565b9190820180921161127557565b6011548015600081156115fb57506115b06004545b600184166115f457601f5b5461157d565b42106114875715806115e1575b6115db576115cc60125461156f565b106115d657600190565b600090565b50600090565b506115eb8161156f565b600f54106115bd565b60146115aa565b6001831161160d575b6115b09061159f565b506115b06116206002546003549061157d565b9050611604565b634e487b7160e01b600052604160045260246000fd5b90611d4c820291808304611d4c149015171561127557565b818110611660575050565b60008155600101611655565b602c546000602c558061167c5750565b602c60005261131d907f7416c943b4a09859521022fd2e90eac0dd9026dad28fa317782a135f28a8609190810190611655565b602d546000602d55806116bf5750565b602d60005261131d907f4a2cc91ee622da3bc833a54c37ffcb6f3ec23b7793efc5eaf5e71b7b406c5c0690810190611655565b602a546000602a55806117025750565b602a60005261131d907fbeced09521047d05b8960b7e7bcc1d1292cf3e4b2a6b63f48335cbde5f7545d290810190611655565b602b546000602b55806117455750565b602b60005261131d907f11c44e4875b74d31ff9fd779bf2566af7bd15b87fc985d01f5094b89e3669e4f90810190611655565b90601f8019910116810190811067ffffffffffffffff82111761179a57604052565b611627565b90816060910312610498578051916040602083015192015190565b6040513d6000823e3d90fd5b90816020910312610498575190565b91909160208152825180602083015260005b818110611808575060409293506000838284010152601f8019910116010190565b80602080928701015160408286010152016117e7565b3d15611859573d9067ffffffffffffffff821161179a576040519161184d601f8201601f191660200184611778565b82523d6000602084013e565b606090565b60115460011615801561214a57601f905b15801561214257601f905b801561213b57602b5b809160001461213457602d5b60375460365480911161212b575b506118b46118af603754603654611289565b603655565b6118be6000603755565b60115460011615612116576118d16116af565b6118d9611735565b603054612045575b505042600184015563019f89f560e01b600052604b60205261197d61196e61195b6119347f251f647dfac2ac66e7d154b0ed64595c69e3a6320c7744365db2d9b9b9a241db5b546001600160a01b031690565b61196960115460405193849163019f89f560e01b6020840152602483019190602083019252565b03601f198101845283611778565b61241a565b602080825183010191016117c6565b60028401818155939080151580612031575b611fd0575b50600091600093855480611df5575b509060008094959681600281956003880154936119c6600483019586549061157d565b966119e46005840198895481808211611da2575b5050895490611289565b6003840155428355548015158514611d9b576119ff9061127a565b60068301555497611a2d8c611a288d6007611a20600a87019e8f549061157d565b95015461157d565b61157d565b808211611d77575b505082600182015582600782015501555555556050548015159081611d5f575b50611c30575b6011547f98f021e0ecab7c38e92fb55a25d5d8d422d82e26b170cee83568d7d6221353af611a94611a8b83611266565b61130881601155565b0390a16044546001600160a01b0316611b60575b81611af9575b505080611ab85750565b600e54600091829182918291611ad6906001600160a01b03166112a1565b5af1611ae061181e565b5015611ae857565b63bd5ac82f60e01b60005260046000fd5b611b046112a1612441565b90813b1561049857604051636f3f4c9760e11b815260048101919091529160009183916024918391905af18015611b5b57611b40575b80611aae565b80611b4f6000611b5593611778565b8061049d565b38611b3a565b6117ba565b63bea4003960e01b600052604b602052611bbf61196e611b9f7f889e76b7030306b71e26939f00cbd30de89c53a13959371beed66116a95bc59d611927565b60405163bea4003960e01b60208201526004815290611969602483611778565b604454611bd6906112a1906001600160a01b031681565b90601154823b1561049857604051633bbd2c1760e21b815260048101929092526024820152906000908290604490829084905af18015611b5b57611c1b575b50611aa8565b80611b4f6000611c2a93611778565b38611c15565b611c3f6011546051549061157d565b611c64611c60611c59836000526052602052604060002090565b5460ff1690565b1590565b611c6f575b50611a5b565b611c93611c86826000526052602052604060002090565b805460ff19166001179055565b611cdf6020604051611cc581611cb786858301919060206040840193600181520152565b03601f198101835282611778565b604051809381926318be12c960e21b8352600483016117d5565b038160006180085af18015611b5b57611d32575b50604e54604f546040805192835260208301919091527f254aef78ab3f94771c17ad15d2765d19e01db562b4470c0a5c6960185ab529b291a238611c69565b611d539060203d602011611d58575b611d4b8183611778565b8101906117c6565b611cf3565b503d611d41565b9050611d70600f549160115461157d565b1138611a55565b611d87611d8f91611d9493611289565b60135461157d565b601355565b3880611a35565b50836119ff565b7f74e2f6d3b22c0b237178d34cf906e3ce15adf6af2a7cfbce280160357424167591611de860115491604051938493846040919493926060820195825260208201520152565b0390a1808a5538816119da565b633c839f3760e11b600052604b6020529194509250611e659061196e9061195b90611969611e427f2b0eb899b4004e6a82789f22ba21de0f097bb8657e1a3acc235065cd71a5c18c611927565b604051633c839f3760e11b60208201526024810193909352919283906044820190565b633b0da62360e01b600052604b60205292611ece61196e61195b611ea87fd27c50382881a32820cf6b8b1f7a227cd016140aeb476cfa80312de5ef9b0d7a611927565b6119698954604051938491633b0da62360e01b6020840152602483019190602083019252565b94805493611ee6611ede8661163d565b612710900490565b9487868860068801541515600014611fc557611f08611f0892611f0d95611289565b611289565b6003850154151580611fb1575b611f29575b50909594936119a3565b604454929392611f4e9190611f48906112a1906001600160a01b031681565b9661157d565b94803b156104985760405163d4ee6c2560e01b815260048101969096526000908690602490829084905af1928315611b5b57600060028197938296948395611f9d575b50935050509192611f1f565b80611b4f85611fab93611778565b38611f91565b506044546001600160a01b03161515611f1a565b505050506000611f0d565b604454611fe7906112a1906001600160a01b031681565b803b1561049857604051633b91c87560e21b815260048101929092526000908290602490829084905af18015611b5b57156119945780611b4f600061202b93611778565b38611994565b506044546001600160a01b0316151561198f565b602f546001600160a01b031660009081526033602052604090209192506060916043546005546040516278dbe360e81b8152602f600482015260248101939093526044830193909352606482019490945260006084820181905260a482015260c481019390935260e4830152816101048173__$10fea0eca7ca0798b023cff1d908ee714c$__5af4908115611b5b576000916120e4575b5038806118e1565b612106915060603d60601161210f575b6120fe8183611778565b81019061179f565b509050386120dc565b503d6120f4565b61211e61166c565b6121266116f2565b6118d9565b6037553861189d565b602c61188f565b602a611883565b60149061187a565b60149061186f565b90816020910312610498575180151581036104985790565b6011548015801561228a575b6115db576012546121868261127a565b11156115db576121c9602061219f6112a16112a1612333565b6121a88461127a565b90604051808095819463132d95ab60e11b8352600483019190602083019252565b03915afa908115611b5b5760009161226b575b506115db57602061221f916121fe6121f86112a16112a16123bd565b9161127a565b906040518080958194634d66354560e11b8352600483019190602083019252565b03915afa908115611b5b5760009161223c575b506115d657600190565b61225e915060203d602011612264575b6122568183611778565b810190612152565b38612232565b503d61224c565b612284915060203d602011611d5857611d4b8183611778565b386121dc565b5060018114612176565b6011546001166122f257601f545b600254810180911161127557428111156122ea57428103908111611275575b6001548110156122df576122da61131d91600154611289565b600355565b5061131d6000600355565b5060006122c1565b6014546122a2565b6000805160206124c3833981519152546001600160a01b03163303610a9157565b9081602091031261049857516123308161067d565b90565b604754604051631bae711d60e21b815260206004820181905260126024830152712a3930b739b0b1ba34b7b726b0b730b3b2b960711b60448301529091829060649082906001600160a01b03165afa908115611b5b57600091612394575090565b612330915060203d6020116123b6575b6123ae8183611778565b81019061231b565b503d6123a4565b604754604051631bae711d60e21b8152602060048201819052600e60248301526d151c9a589d5b985b105c1c19585b60921b60448301529091829060649082906001600160a01b03165afa908115611b5b57600091612394575090565b6000918291602082519201905af461243061181e565b90156124395790565b602081519101fd5b604754604051631bae711d60e21b8152602060048201819052600960248301526827232a26b4b73a32b960b91b60448301529091829060649082906001600160a01b03165afa908115611b5b576000916124a3575b506001600160a01b031690565b6124bc915060203d6020116123b6576123ae8183611778565b3861249656fe9016d09d72d40fdae2fd8ceac6b6234c7706214fd39c1cd1e609a0528c19930094dd18d0cc0262cc85d4b8937d35e70671aaed2e54033dbad2cf13b83c65d8b102dd7bc7dec4dceedda775e58dd541e08a116c6c53815c0bd028192f7b6268009b779b17422d0df92223018b32b4d1fa46e071723d6817e2486d003becc55f00237e158222e3e6968b72b9db0d8043aacf074ad9f650f0d1606b4d82ee432c00a264697066735822122060f45cfefecd24a5ee9013c9a1aac099bb157a969a035544c597ae9c123ccd4e64736f6c634300081c0033",
  "linkReferences": {
    "contracts/utils/ValidatorTreeUtils.sol": {
      "ValidatorTreeUtils": [
        {
          "length": 20,
          "start": 8403
        }
      ]
    }
  },
  "deployedLinkReferences": {
    "contracts/utils/ValidatorTreeUtils.sol": {
      "ValidatorTreeUtils": [
        {
          "length": 20,
          "start": 8376
        }
      ]
    }
  }
}