{
  "_format": "hh-sol-artifact-1",
  "contractName": "StakingEpoch",
  "sourceName": "contracts/staking/StakingEpoch.sol",
  "abi": [
    {
      "inputs": [],
      "name": "AccessControlBadConfirmation",
      "type": "error"
    },
    {
      "inputs": [
        {
          "internalType": "address",
          "name": "account",
          "type": "address"
        },
        {
          "internalType": "bytes32",
          "name": "neededRole",
          "type": "bytes32"
        }
      ],
      "name": "AccessControlUnauthorizedAccount",
      "type": "error"
    },
    {
      "inputs": [],
      "name": "DeepthoughtCallFailed",
      "type": "error"
    },
    {
      "inputs": [],
      "name": "EpochAdvanceNotReady",
      "type": "error"
    },
    {
      "inputs": [],
      "name": "InvalidInitialization",
      "type": "error"
    },
    {
      "inputs": [],
      "name": "NotInitializing",
      "type": "error"
    },
    {
      "inputs": [],
      "name": "OnlyTransactionsOrTribunal",
      "type": "error"
    },
    {
      "inputs": [
        {
          "internalType": "address",
          "name": "owner",
          "type": "address"
        }
      ],
      "name": "OwnableInvalidOwner",
      "type": "error"
    },
    {
      "inputs": [
        {
          "internalType": "address",
          "name": "account",
          "type": "address"
        }
      ],
      "name": "OwnableUnauthorizedAccount",
      "type": "error"
    },
    {
      "inputs": [],
      "name": "PreviousEpochNotFinalizable",
      "type": "error"
    },
    {
      "inputs": [],
      "name": "ReentrancyGuardReentrantCall",
      "type": "error"
    },
    {
      "anonymous": false,
      "inputs": [
        {
          "indexed": false,
          "internalType": "uint256",
          "name": "epoch",
          "type": "uint256"
        }
      ],
      "name": "EpochAdvance",
      "type": "event"
    },
    {
      "anonymous": false,
      "inputs": [
        {
          "indexed": false,
          "internalType": "uint256",
          "name": "epoch",
          "type": "uint256"
        }
      ],
      "name": "EpochFinalize",
      "type": "event"
    },
    {
      "anonymous": false,
      "inputs": [
        {
          "indexed": true,
          "internalType": "uint256",
          "name": "targetEpoch",
          "type": "uint256"
        },
        {
          "indexed": false,
          "internalType": "uint256",
          "name": "l2GasPrice",
          "type": "uint256"
        },
        {
          "indexed": false,
          "internalType": "uint256",
          "name": "l2GasLimit",
          "type": "uint256"
        }
      ],
      "name": "InflationRequestedFromL2",
      "type": "event"
    },
    {
      "anonymous": false,
      "inputs": [
        {
          "indexed": false,
          "internalType": "uint64",
          "name": "version",
          "type": "uint64"
        }
      ],
      "name": "Initialized",
      "type": "event"
    },
    {
      "anonymous": false,
      "inputs": [
        {
          "indexed": true,
          "internalType": "address",
          "name": "previousOwner",
          "type": "address"
        },
        {
          "indexed": true,
          "internalType": "address",
          "name": "newOwner",
          "type": "address"
        }
      ],
      "name": "OwnershipTransferStarted",
      "type": "event"
    },
    {
      "anonymous": false,
      "inputs": [
        {
          "indexed": true,
          "internalType": "address",
          "name": "previousOwner",
          "type": "address"
        },
        {
          "indexed": true,
          "internalType": "address",
          "name": "newOwner",
          "type": "address"
        }
      ],
      "name": "OwnershipTransferred",
      "type": "event"
    },
    {
      "anonymous": false,
      "inputs": [
        {
          "indexed": true,
          "internalType": "bytes32",
          "name": "role",
          "type": "bytes32"
        },
        {
          "indexed": true,
          "internalType": "bytes32",
          "name": "previousAdminRole",
          "type": "bytes32"
        },
        {
          "indexed": true,
          "internalType": "bytes32",
          "name": "newAdminRole",
          "type": "bytes32"
        }
      ],
      "name": "RoleAdminChanged",
      "type": "event"
    },
    {
      "anonymous": false,
      "inputs": [
        {
          "indexed": true,
          "internalType": "bytes32",
          "name": "role",
          "type": "bytes32"
        },
        {
          "indexed": true,
          "internalType": "address",
          "name": "account",
          "type": "address"
        },
        {
          "indexed": true,
          "internalType": "address",
          "name": "sender",
          "type": "address"
        }
      ],
      "name": "RoleGranted",
      "type": "event"
    },
    {
      "anonymous": false,
      "inputs": [
        {
          "indexed": true,
          "internalType": "bytes32",
          "name": "role",
          "type": "bytes32"
        },
        {
          "indexed": true,
          "internalType": "address",
          "name": "account",
          "type": "address"
        },
        {
          "indexed": true,
          "internalType": "address",
          "name": "sender",
          "type": "address"
        }
      ],
      "name": "RoleRevoked",
      "type": "event"
    },
    {
      "inputs": [],
      "name": "DEFAULT_ADMIN_ROLE",
      "outputs": [
        {
          "internalType": "bytes32",
          "name": "",
          "type": "bytes32"
        }
      ],
      "stateMutability": "view",
      "type": "function"
    },
    {
      "inputs": [],
      "name": "DEFAULT_DELEGATOR_MIN_STAKE",
      "outputs": [
        {
          "internalType": "uint256",
          "name": "",
          "type": "uint256"
        }
      ],
      "stateMutability": "view",
      "type": "function"
    },
    {
      "inputs": [],
      "name": "DEFAULT_VALIDATOR_MIN_STAKE",
      "outputs": [
        {
          "internalType": "uint256",
          "name": "",
          "type": "uint256"
        }
      ],
      "stateMutability": "view",
      "type": "function"
    },
    {
      "inputs": [],
      "name": "DELEGATOR_UNBONDING_PERIOD",
      "outputs": [
        {
          "internalType": "uint256",
          "name": "",
          "type": "uint256"
        }
      ],
      "stateMutability": "view",
      "type": "function"
    },
    {
      "inputs": [],
      "name": "INFLATION_BASE",
      "outputs": [
        {
          "internalType": "uint256",
          "name": "",
          "type": "uint256"
        }
      ],
      "stateMutability": "view",
      "type": "function"
    },
    {
      "inputs": [],
      "name": "INFLATION_DEEPTHOUGHT_BPS",
      "outputs": [
        {
          "internalType": "uint256",
          "name": "",
          "type": "uint256"
        }
      ],
      "stateMutability": "view",
      "type": "function"
    },
    {
      "inputs": [],
      "name": "INFLATION_DEVELOPER_BPS",
      "outputs": [
        {
          "internalType": "uint256",
          "name": "",
          "type": "uint256"
        }
      ],
      "stateMutability": "view",
      "type": "function"
    },
    {
      "inputs": [],
      "name": "INFLATION_FINAL",
      "outputs": [
        {
          "internalType": "uint256",
          "name": "",
          "type": "uint256"
        }
      ],
      "stateMutability": "view",
      "type": "function"
    },
    {
      "inputs": [],
      "name": "INFLATION_INITIAL",
      "outputs": [
        {
          "internalType": "uint256",
          "name": "",
          "type": "uint256"
        }
      ],
      "stateMutability": "view",
      "type": "function"
    },
    {
      "inputs": [],
      "name": "INFLATION_MID",
      "outputs": [
        {
          "internalType": "int256",
          "name": "",
          "type": "int256"
        }
      ],
      "stateMutability": "view",
      "type": "function"
    },
    {
      "inputs": [],
      "name": "INFLATION_STAKER_BPS",
      "outputs": [
        {
          "internalType": "uint256",
          "name": "",
          "type": "uint256"
        }
      ],
      "stateMutability": "view",
      "type": "function"
    },
    {
      "inputs": [],
      "name": "INFLATION_STEEPNESS",
      "outputs": [
        {
          "internalType": "int256",
          "name": "",
          "type": "int256"
        }
      ],
      "stateMutability": "view",
      "type": "function"
    },
    {
      "inputs": [],
      "name": "INFLATION_VALIDATOR_BPS",
      "outputs": [
        {
          "internalType": "uint256",
          "name": "",
          "type": "uint256"
        }
      ],
      "stateMutability": "view",
      "type": "function"
    },
    {
      "inputs": [],
      "name": "L1_MESSENGER",
      "outputs": [
        {
          "internalType": "contract IL1Messenger",
          "name": "",
          "type": "address"
        }
      ],
      "stateMutability": "view",
      "type": "function"
    },
    {
      "inputs": [],
      "name": "QUARANTINE_MANAGER_ROLE",
      "outputs": [
        {
          "internalType": "bytes32",
          "name": "",
          "type": "bytes32"
        }
      ],
      "stateMutability": "view",
      "type": "function"
    },
    {
      "inputs": [],
      "name": "SLASH_CALLER_INCENTIVE_BPS",
      "outputs": [
        {
          "internalType": "uint256",
          "name": "",
          "type": "uint256"
        }
      ],
      "stateMutability": "view",
      "type": "function"
    },
    {
      "inputs": [],
      "name": "VALIDATOR_UNBONDING_PERIOD",
      "outputs": [
        {
          "internalType": "uint256",
          "name": "",
          "type": "uint256"
        }
      ],
      "stateMutability": "view",
      "type": "function"
    },
    {
      "inputs": [],
      "name": "acceptOwnership",
      "outputs": [],
      "stateMutability": "nonpayable",
      "type": "function"
    },
    {
      "inputs": [],
      "name": "addressManager",
      "outputs": [
        {
          "internalType": "contract IAddressManager",
          "name": "",
          "type": "address"
        }
      ],
      "stateMutability": "view",
      "type": "function"
    },
    {
      "inputs": [],
      "name": "burning",
      "outputs": [
        {
          "internalType": "uint256",
          "name": "",
          "type": "uint256"
        }
      ],
      "stateMutability": "view",
      "type": "function"
    },
    {
      "inputs": [],
      "name": "deepthought",
      "outputs": [
        {
          "internalType": "address payable",
          "name": "",
          "type": "address"
        }
      ],
      "stateMutability": "view",
      "type": "function"
    },
    {
      "inputs": [],
      "name": "delegatorMinStake",
      "outputs": [
        {
          "internalType": "uint256",
          "name": "",
          "type": "uint256"
        }
      ],
      "stateMutability": "view",
      "type": "function"
    },
    {
      "inputs": [],
      "name": "epoch",
      "outputs": [
        {
          "internalType": "uint256",
          "name": "",
          "type": "uint256"
        }
      ],
      "stateMutability": "view",
      "type": "function"
    },
    {
      "inputs": [],
      "name": "epochAdvance",
      "outputs": [],
      "stateMutability": "nonpayable",
      "type": "function"
    },
    {
      "inputs": [],
      "name": "epochEven",
      "outputs": [
        {
          "internalType": "uint256",
          "name": "start",
          "type": "uint256"
        },
        {
          "internalType": "uint256",
          "name": "end",
          "type": "uint256"
        },
        {
          "internalType": "uint256",
          "name": "inflation",
          "type": "uint256"
        },
        {
          "internalType": "uint256",
          "name": "weight",
          "type": "uint256"
        },
        {
          "internalType": "uint256",
          "name": "weightDeposit",
          "type": "uint256"
        },
        {
          "internalType": "uint256",
          "name": "weightWithdrawal",
          "type": "uint256"
        },
        {
          "internalType": "uint256",
          "name": "vcount",
          "type": "uint256"
        },
        {
          "internalType": "uint256",
          "name": "claimed",
          "type": "uint256"
        },
        {
          "internalType": "uint256",
          "name": "stakeDeposit",
          "type": "uint256"
        },
        {
          "internalType": "uint256",
          "name": "stakeWithdrawal",
          "type": "uint256"
        },
        {
          "internalType": "uint256",
          "name": "slashed",
          "type": "uint256"
        }
      ],
      "stateMutability": "view",
      "type": "function"
    },
    {
      "inputs": [],
      "name": "epochExtraMinDuration",
      "outputs": [
        {
          "internalType": "uint256",
          "name": "",
          "type": "uint256"
        }
      ],
      "stateMutability": "view",
      "type": "function"
    },
    {
      "inputs": [],
      "name": "epochFinalize",
      "outputs": [],
      "stateMutability": "nonpayable",
      "type": "function"
    },
    {
      "inputs": [],
      "name": "epochFinalizeImmediate",
      "outputs": [],
      "stateMutability": "nonpayable",
      "type": "function"
    },
    {
      "inputs": [],
      "name": "epochMinDuration",
      "outputs": [
        {
          "internalType": "uint256",
          "name": "",
          "type": "uint256"
        }
      ],
      "stateMutability": "view",
      "type": "function"
    },
    {
      "inputs": [],
      "name": "epochMinDurationThreshold",
      "outputs": [
        {
          "internalType": "uint256",
          "name": "",
          "type": "uint256"
        }
      ],
      "stateMutability": "view",
      "type": "function"
    },
    {
      "inputs": [],
      "name": "epochOdd",
      "outputs": [
        {
          "internalType": "uint256",
          "name": "start",
          "type": "uint256"
        },
        {
          "internalType": "uint256",
          "name": "end",
          "type": "uint256"
        },
        {
          "internalType": "uint256",
          "name": "inflation",
          "type": "uint256"
        },
        {
          "internalType": "uint256",
          "name": "weight",
          "type": "uint256"
        },
        {
          "internalType": "uint256",
          "name": "weightDeposit",
          "type": "uint256"
        },
        {
          "internalType": "uint256",
          "name": "weightWithdrawal",
          "type": "uint256"
        },
        {
          "internalType": "uint256",
          "name": "vcount",
          "type": "uint256"
        },
        {
          "internalType": "uint256",
          "name": "claimed",
          "type": "uint256"
        },
        {
          "internalType": "uint256",
          "name": "stakeDeposit",
          "type": "uint256"
        },
        {
          "internalType": "uint256",
          "name": "stakeWithdrawal",
          "type": "uint256"
        },
        {
          "internalType": "uint256",
          "name": "slashed",
          "type": "uint256"
        }
      ],
      "stateMutability": "view",
      "type": "function"
    },
    {
      "inputs": [],
      "name": "epochZeroMinDuration",
      "outputs": [
        {
          "internalType": "uint256",
          "name": "",
          "type": "uint256"
        }
      ],
      "stateMutability": "view",
      "type": "function"
    },
    {
      "inputs": [],
      "name": "finalizationPhaseAddress",
      "outputs": [
        {
          "internalType": "address",
          "name": "",
          "type": "address"
        }
      ],
      "stateMutability": "view",
      "type": "function"
    },
    {
      "inputs": [],
      "name": "finalized",
      "outputs": [
        {
          "internalType": "uint256",
          "name": "",
          "type": "uint256"
        }
      ],
      "stateMutability": "view",
      "type": "function"
    },
    {
      "inputs": [
        {
          "internalType": "bytes32",
          "name": "role",
          "type": "bytes32"
        }
      ],
      "name": "getRoleAdmin",
      "outputs": [
        {
          "internalType": "bytes32",
          "name": "",
          "type": "bytes32"
        }
      ],
      "stateMutability": "view",
      "type": "function"
    },
    {
      "inputs": [
        {
          "internalType": "bytes32",
          "name": "role",
          "type": "bytes32"
        },
        {
          "internalType": "address",
          "name": "account",
          "type": "address"
        }
      ],
      "name": "grantRole",
      "outputs": [],
      "stateMutability": "nonpayable",
      "type": "function"
    },
    {
      "inputs": [
        {
          "internalType": "bytes32",
          "name": "role",
          "type": "bytes32"
        },
        {
          "internalType": "address",
          "name": "account",
          "type": "address"
        }
      ],
      "name": "hasRole",
      "outputs": [
        {
          "internalType": "bool",
          "name": "",
          "type": "bool"
        }
      ],
      "stateMutability": "view",
      "type": "function"
    },
    {
      "inputs": [],
      "name": "idlenessPhaseAddress",
      "outputs": [
        {
          "internalType": "address",
          "name": "",
          "type": "address"
        }
      ],
      "stateMutability": "view",
      "type": "function"
    },
    {
      "inputs": [],
      "name": "inflationEpoch",
      "outputs": [
        {
          "internalType": "uint256",
          "name": "",
          "type": "uint256"
        }
      ],
      "stateMutability": "view",
      "type": "function"
    },
    {
      "inputs": [],
      "name": "inflationRequestThreshold",
      "outputs": [
        {
          "internalType": "uint256",
          "name": "",
          "type": "uint256"
        }
      ],
      "stateMutability": "view",
      "type": "function"
    },
    {
      "inputs": [
        {
          "internalType": "uint256",
          "name": "",
          "type": "uint256"
        }
      ],
      "name": "inflationRequested",
      "outputs": [
        {
          "internalType": "bool",
          "name": "",
          "type": "bool"
        }
      ],
      "stateMutability": "view",
      "type": "function"
    },
    {
      "inputs": [],
      "name": "inflationSupply",
      "outputs": [
        {
          "internalType": "uint256",
          "name": "",
          "type": "uint256"
        }
      ],
      "stateMutability": "view",
      "type": "function"
    },
    {
      "inputs": [],
      "name": "inflationTargetAhead",
      "outputs": [
        {
          "internalType": "uint256",
          "name": "",
          "type": "uint256"
        }
      ],
      "stateMutability": "view",
      "type": "function"
    },
    {
      "inputs": [],
      "name": "l2GasLimit",
      "outputs": [
        {
          "internalType": "uint256",
          "name": "",
          "type": "uint256"
        }
      ],
      "stateMutability": "view",
      "type": "function"
    },
    {
      "inputs": [],
      "name": "l2GasPrice",
      "outputs": [
        {
          "internalType": "uint256",
          "name": "",
          "type": "uint256"
        }
      ],
      "stateMutability": "view",
      "type": "function"
    },
    {
      "inputs": [],
      "name": "maxValidators",
      "outputs": [
        {
          "internalType": "uint256",
          "name": "",
          "type": "uint256"
        }
      ],
      "stateMutability": "view",
      "type": "function"
    },
    {
      "inputs": [
        {
          "internalType": "address",
          "name": "",
          "type": "address"
        }
      ],
      "name": "operatorsToValidators",
      "outputs": [
        {
          "internalType": "address",
          "name": "",
          "type": "address"
        }
      ],
      "stateMutability": "view",
      "type": "function"
    },
    {
      "inputs": [],
      "name": "owner",
      "outputs": [
        {
          "internalType": "address",
          "name": "",
          "type": "address"
        }
      ],
      "stateMutability": "view",
      "type": "function"
    },
    {
      "inputs": [],
      "name": "pendingOwner",
      "outputs": [
        {
          "internalType": "address",
          "name": "",
          "type": "address"
        }
      ],
      "stateMutability": "view",
      "type": "function"
    },
    {
      "inputs": [],
      "name": "pendingRequestInflationFromL1",
      "outputs": [
        {
          "internalType": "bool",
          "name": "",
          "type": "bool"
        }
      ],
      "stateMutability": "view",
      "type": "function"
    },
    {
      "inputs": [],
      "name": "reductionFactor",
      "outputs": [
        {
          "internalType": "uint256",
          "name": "",
          "type": "uint256"
        }
      ],
      "stateMutability": "view",
      "type": "function"
    },
    {
      "inputs": [],
      "name": "renounceOwnership",
      "outputs": [],
      "stateMutability": "nonpayable",
      "type": "function"
    },
    {
      "inputs": [
        {
          "internalType": "bytes32",
          "name": "role",
          "type": "bytes32"
        },
        {
          "internalType": "address",
          "name": "callerConfirmation",
          "type": "address"
        }
      ],
      "name": "renounceRole",
      "outputs": [],
      "stateMutability": "nonpayable",
      "type": "function"
    },
    {
      "inputs": [],
      "name": "revealingPhaseAddress",
      "outputs": [
        {
          "internalType": "address",
          "name": "",
          "type": "address"
        }
      ],
      "stateMutability": "view",
      "type": "function"
    },
    {
      "inputs": [
        {
          "internalType": "bytes32",
          "name": "role",
          "type": "bytes32"
        },
        {
          "internalType": "address",
          "name": "account",
          "type": "address"
        }
      ],
      "name": "revokeRole",
      "outputs": [],
      "stateMutability": "nonpayable",
      "type": "function"
    },
    {
      "inputs": [],
      "name": "stakingInvariant",
      "outputs": [
        {
          "internalType": "address",
          "name": "",
          "type": "address"
        }
      ],
      "stateMutability": "view",
      "type": "function"
    },
    {
      "inputs": [
        {
          "internalType": "bytes4",
          "name": "interfaceId",
          "type": "bytes4"
        }
      ],
      "name": "supportsInterface",
      "outputs": [
        {
          "internalType": "bool",
          "name": "",
          "type": "bool"
        }
      ],
      "stateMutability": "view",
      "type": "function"
    },
    {
      "inputs": [],
      "name": "transactionFeesManager",
      "outputs": [
        {
          "internalType": "address",
          "name": "",
          "type": "address"
        }
      ],
      "stateMutability": "view",
      "type": "function"
    },
    {
      "inputs": [
        {
          "internalType": "address",
          "name": "newOwner",
          "type": "address"
        }
      ],
      "name": "transferOwnership",
      "outputs": [],
      "stateMutability": "nonpayable",
      "type": "function"
    },
    {
      "inputs": [
        {
          "internalType": "address",
          "name": "validatorAddress",
          "type": "address"
        }
      ],
      "name": "validatorInsertedInTree",
      "outputs": [
        {
          "internalType": "uint256",
          "name": "timestamp",
          "type": "uint256"
        }
      ],
      "stateMutability": "view",
      "type": "function"
    },
    {
      "inputs": [],
      "name": "validatorMinStake",
      "outputs": [
        {
          "internalType": "uint256",
          "name": "",
          "type": "uint256"
        }
      ],
      "stateMutability": "view",
      "type": "function"
    },
    {
      "inputs": [
        {
          "internalType": "address",
          "name": "validatorAddress",
          "type": "address"
        }
      ],
      "name": "validatorRemovedFromTheTree",
      "outputs": [
        {
          "internalType": "uint256",
          "name": "timestamp",
          "type": "uint256"
        }
      ],
      "stateMutability": "view",
      "type": "function"
    },
    {
      "inputs": [
        {
          "internalType": "uint256",
          "name": "",
          "type": "uint256"
        }
      ],
      "name": "validatorsEven",
      "outputs": [
        {
          "internalType": "address",
          "name": "",
          "type": "address"
        }
      ],
      "stateMutability": "view",
      "type": "function"
    },
    {
      "inputs": [
        {
          "internalType": "uint256",
          "name": "",
          "type": "uint256"
        }
      ],
      "name": "validatorsJoined",
      "outputs": [
        {
          "internalType": "address",
          "name": "",
          "type": "address"
        }
      ],
      "stateMutability": "view",
      "type": "function"
    },
    {
      "inputs": [
        {
          "internalType": "uint256",
          "name": "",
          "type": "uint256"
        }
      ],
      "name": "validatorsOdd",
      "outputs": [
        {
          "internalType": "address",
          "name": "",
          "type": "address"
        }
      ],
      "stateMutability": "view",
      "type": "function"
    },
    {
      "inputs": [
        {
          "internalType": "uint256",
          "name": "",
          "type": "uint256"
        }
      ],
      "name": "weightsEven",
      "outputs": [
        {
          "internalType": "uint256",
          "name": "",
          "type": "uint256"
        }
      ],
      "stateMutability": "view",
      "type": "function"
    },
    {
      "inputs": [
        {
          "internalType": "uint256",
          "name": "",
          "type": "uint256"
        }
      ],
      "name": "weightsOdd",
      "outputs": [
        {
          "internalType": "uint256",
          "name": "",
          "type": "uint256"
        }
      ],
      "stateMutability": "view",
      "type": "function"
    }
  ],
  "bytecode": "0x60808060405234601557612505908161001b8239f35b600080fdfe6080604052600436101561001257600080fd5b60003560e01c806301ffc9a71461044257806308ac52561461043d5780630a3cfb13146104385780630ab07e88146104335780631538faf21461042e57806318a3b882146104295780631bc2359a14610424578063217fcc3e146103a25780632272e0ab1461041f57806324147f671461041a57806324840a5e14610415578063248a9ca31461041057806326ed4c701461040b5780632f2ff15d1461040657806336568abe146104015780633ab76e9f146103fc5780633fde6d7b146103f757806344aa3ded146103f25780634971ec02146103ed5780634c12b33f146103e85780634f2938fc146103e357806356eaad0f146103de578063624a4485146103d95780636378eba3146103d457806367604d27146103cf578063715018a6146103ca578063746e4ac7146103c55780637492100f146103c057806379ba5097146103bb5780637a5d2660146103b65780637e1233a9146103b157806383772595146103ac57806387e51da9146103a75780638b7e92a6146103a25780638da5cb5b1461039d578063900cf0cf14610398578063900fd9ce1461039357806391d148541461038e57806396be02a7146103895780639a612f7a146103845780639ae366851461037f5780639d357fd81461037a578063a01ebaa114610375578063a217fddf14610370578063a8027c101461036b578063abfd6fa914610366578063ac78a04b14610361578063b03df1f01461035c578063b3f05b9714610357578063bc338e7f14610352578063c0a604ad1461034d578063c498c95b14610348578063cb17452f14610343578063cd38347f1461033e578063cd85623514610339578063cf662c1414610334578063cf6e65b71461032f578063d547741f1461032a578063d7ef354414610325578063da7a9b6a14610320578063de8eec641461031b578063e30c397814610316578063e3c6b0ca14610311578063f2fde38b1461030c578063f85683ef14610307578063fafebac5146103025763fb6fe776146102fd57600080fd5b6112a6565b611260565b611237565b6111ac565b61118e565b611158565b61112f565b611111565b6110e8565b6110b4565b611096565b610fb1565b610f93565b610f6c565b610f31565b610f0c565b610eee565b610ed2565b610eb4565b610e6f565b610e52565b610e2e565b610e0b565b610def565b610dcb565b610d8e565b610d70565b610cf6565b610cac565b610bfd565b610bb2565b610b94565b610b5e565b6105b2565b610b09565b610aec565b610acf565b610aa6565b6109f5565b6109d3565b610988565b610907565b6108e9565b6108cb565b6108ad565b610801565b6107d8565b6107ba565b610797565b61075a565b61073c565b610713565b6106c9565b61068e565b61065a565b610634565b61060b565b6105ed565b6105cf565b610594565b610569565b61054b565b61052d565b6104d8565b6104a8565b346104985760203660031901126104985760043563ffffffff60e01b811680910361049857602090637965db0b60e01b8114908115610487575b506040519015158152f35b6301ffc9a760e01b1490503861047c565b600080fd5b600091031261049857565b34610498576000366003190112610498576020600554604051908152f35b60209060031901126104985760043590565b34610498576104e6366104c6565b602d5481101561049857602d6000527f4a2cc91ee622da3bc833a54c37ffcb6f3ec23b7793efc5eaf5e71b7b406c5c0601546040516001600160a01b039091168152602090f35b34610498576000366003190112610498576020601054604051908152f35b34610498576000366003190112610498576020604354604051908152f35b3461049857610577366104c6565b6000526052602052602060ff604060002054166040519015158152f35b34610498576000366003190112610498576020600254604051908152f35b346104985760003660031901126104985760206040516103e88152f35b34610498576000366003190112610498576020604154604051908152f35b34610498576000366003190112610498576020605154604051908152f35b34610498576000366003190112610498576044546040516001600160a01b039091168152602090f35b346104985760203660031901126104985760206106526004356112fb565b604051908152f35b3461049857600036600319011261049857602060ff605354166040519015158152f35b6001600160a01b0381160361049857565b34610498576040366003190112610498576106c76024356004356106b18261067d565b6106c26106bd826112fb565b611346565b611390565b005b34610498576040366003190112610498576004356024356106e98161067d565b336001600160a01b03821603610702576106c79161143e565b63334bd91960e11b60005260046000fd5b34610498576000366003190112610498576047546040516001600160a01b039091168152602090f35b34610498576000366003190112610498576020600154604051908152f35b34610498576020366003190112610498576004356107778161067d565b60018060a01b031660005260546020526020604060002054604051908152f35b34610498576000366003190112610498576020604051670214e8348c4f00008152f35b34610498576000366003190112610498576020601354604051908152f35b34610498576000366003190112610498576048546040516001600160a01b039091168152602090f35b346104985760003660031901126104985761081a6114e3565b61082261153a565b1561089c5761082f61182c565b60016011541461088f575b6108426120d8565b61085b575b600160008051602061249083398151915255005b610863612201565b600080516020612450833981519152602061087f601254611332565b80601255604051908152a1610847565b61089761182c565b61083a565b63e7295fed60e01b60005260046000fd5b34610498576000366003190112610498576020605054604051908152f35b34610498576000366003190112610498576020600054604051908152f35b34610498576000366003190112610498576020604054604051908152f35b3461049857600036600319011261049857610920612267565b6000805160206124b083398151915280546001600160a01b0319908116909155600080516020612430833981519152805491821690556000906001600160a01b03167f8be0079c531659141344cd1fd0a4f28419497f9722a3daafe3b4186f6b6457e08280a3005b3461049857610996366104c6565b602a5481101561049857602a6000527fbeced09521047d05b8960b7e7bcc1d1292cf3e4b2a6b63f48335cbde5f7545d20154604051908152602090f35b34610498576000366003190112610498576020604051668e1bc9bf0400008152f35b34610498576000366003190112610498576000805160206124b083398151915254336001600160a01b0390911603610a91576000805160206124b083398151915280546001600160a01b031990811690915560008051602061243083398151915280543392811683179091556001600160a01b03167f8be0079c531659141344cd1fd0a4f28419497f9722a3daafe3b4186f6b6457e0600080a3005b63118cdaa760e01b6000523360045260246000fd5b34610498576000366003190112610498576049546040516001600160a01b039091168152602090f35b346104985760003660031901126104985760206040516180088152f35b34610498576000366003190112610498576020604051611d4c8152f35b3461049857610b17366104c6565b602c5481101561049857602c6000527f7416c943b4a09859521022fd2e90eac0dd9026dad28fa317782a135f28a8609101546040516001600160a01b039091168152602090f35b3461049857600036600319011261049857600080516020612430833981519152546040516001600160a01b039091168152602090f35b34610498576000366003190112610498576020601154604051908152f35b3461049857610bc0366104c6565b602b5481101561049857602b6000527f11c44e4875b74d31ff9fd779bf2566af7bd15b87fc985d01f5094b89e3669e4f0154604051908152602090f35b3461049857604036600319011261049857602060ff610c54602435600435610c248261067d565b600052600080516020612470833981519152845260406000209060018060a01b0316600052602052604060002090565b54166040519015158152f35b979491926101409996939c9b9a9794919c6101608a019d8a5260208a015260408901526060880152608087015260a086015260c085015260e08401526101008301526101208201520152565b3461049857600036600319011261049857601f5460205490610cf2602154602254602354602454602554602654916027549360285495602954976040519b8c9b8c610c60565b0390f35b3461049857600036600319011261049857610d0f6114e3565b610d176120d8565b15610d5f57610d24612201565b6000805160206124508339815191526020610d40601254611332565b80601255604051908152a1600160008051602061249083398151915255005b6349dbf5c360e11b60005260046000fd5b34610498576000366003190112610498576020604e54604051908152f35b3461049857602036600319011261049857600435610dab8161067d565b60018060a01b031660005260556020526020604060002054604051908152f35b34610498576000366003190112610498576020604051684e1003b28d928000008152f35b3461049857600036600319011261049857602060405160008152f35b34610498576000366003190112610498576020604051660aa87bee537fff198152f35b34610498576000366003190112610498576020604051680246ddf979766800008152f35b346104985760003660031901126104985760206040516101f48152f35b3461049857602036600319011261049857600435610e8c8161067d565b60018060a01b03166000526034602052602060018060a01b0360406000205416604051908152f35b34610498576000366003190112610498576020601254604051908152f35b3461049857600036600319011261049857602060405160648152f35b34610498576000366003190112610498576020600f54604051908152f35b346104985760003660031901126104985760206040516908e4d3168276864000008152f35b346104985760003660031901126104985760206040517f155e7f76c52e49fe8308e62eabe3ce449c978443b7d8beb86992427229ec386f8152f35b346104985760003660031901126104985760206040516b0d92289838d21a99680000008152f35b34610498576000366003190112610498576020600454604051908152f35b3461049857600036600319011261049857610fd9610fcd6122a0565b6001600160a01b031690565b33141580611082575b80611064575b80611046575b61103557610ffa612201565b600080516020612450833981519152611030611017601254611332565b61102081601255565b6040519081529081906020820190565b0390a1005b636c4db06b60e01b60005260046000fd5b5060485461105c906001600160a01b0316610fcd565b331415610fee565b50604a5461107a906001600160a01b0316610fcd565b331415610fe8565b5061108e610fcd61232a565b331415610fe2565b34610498576000366003190112610498576020604f54604051908152f35b34610498576040366003190112610498576106c76024356004356110d78261067d565b6110e36106bd826112fb565b61143e565b3461049857600036600319011261049857600e546040516001600160a01b039091168152602090f35b34610498576000366003190112610498576020604254604051908152f35b34610498576000366003190112610498576046546040516001600160a01b039091168152602090f35b34610498576000366003190112610498576000805160206124b0833981519152546040516001600160a01b039091168152602090f35b34610498576000366003190112610498576020600354604051908152f35b34610498576020366003190112610498576004356111c98161067d565b6111d1612267565b6000805160206124b083398151915280546001600160a01b0319166001600160a01b03928316908117909155600080516020612430833981519152549091167f38d16b8cac22d99fc7c124b9cd0de2d3fa1faef420bfe791d8c362d765e22700600080a3005b3461049857600036600319011261049857604a546040516001600160a01b039091168152602090f35b346104985760003660031901126104985760145460155490610cf2601654601754601854601954601a54601b5491601c5493601d5495601e54976040519b8c9b8c610c60565b34610498576112b4366104c6565b6045548110156104985760456000527fa80a8fcc11760162f08bb091d2c9389d07f2b73d0e996161dfac6f1043b5fc0b01546040516001600160a01b039091168152602090f35b60005260008051602061247083398151915260205260016040600020015490565b634e487b7160e01b600052601160045260246000fd5b60001981146113415760010190565b61131c565b60008181526000805160206124708339815191526020908152604080832033845290915290205460ff16156113785750565b63e2517d3f60e01b6000523360045260245260446000fd5b6000818152600080516020612470833981519152602090815260408083206001600160a01b038616845290915290205460ff16611437576000818152600080516020612470833981519152602090815260408083206001600160a01b03861684529091529020805460ff1916600117905533916001600160a01b0316907f2f8788117e7eff1d82e926ec794901d17c78024a50270940304540a733656f0d600080a4600190565b5050600090565b6000818152600080516020612470833981519152602090815260408083206001600160a01b038616845290915290205460ff1615611437576000818152600080516020612470833981519152602090815260408083206001600160a01b03861684529091529020805460ff1916905533916001600160a01b0316907ff6391f5c32d9c69d2a47ea670b442974b53935d1edc7fd64eb21e047a839171b600080a4600190565b6002600080516020612490833981519152541461150e57600260008051602061249083398151915255565b633ee5aeb560e01b60005260046000fd5b906001820180921161134157565b9190820180921161134157565b6011548015600081156115ab57506115606004545b600184166115a457601f5b5461152d565b4210611437571580611591575b61158b5761157c60125461151f565b1061158657600190565b600090565b50600090565b5061159b8161151f565b600f541061156d565b601461155a565b600183116115bd575b6115609061154f565b506115606115d06002546003549061152d565b90506115b4565b60001981019190821161134157565b9190820391821161134157565b634e487b7160e01b600052604160045260246000fd5b90611d4c820291808304611d4c149015171561134157565b81811061162c575050565b60008155600101611621565b602c546000602c55806116485750565b602c60005261167b907f7416c943b4a09859521022fd2e90eac0dd9026dad28fa317782a135f28a8609190810190611621565b565b602d546000602d558061168d5750565b602d60005261167b907f4a2cc91ee622da3bc833a54c37ffcb6f3ec23b7793efc5eaf5e71b7b406c5c0690810190611621565b602a546000602a55806116d05750565b602a60005261167b907fbeced09521047d05b8960b7e7bcc1d1292cf3e4b2a6b63f48335cbde5f7545d290810190611621565b602b546000602b55806117135750565b602b60005261167b907f11c44e4875b74d31ff9fd779bf2566af7bd15b87fc985d01f5094b89e3669e4f90810190611621565b90601f8019910116810190811067ffffffffffffffff82111761176857604052565b6115f3565b90816060910312610498578051916040602083015192015190565b6040513d6000823e3d90fd5b90816020910312610498575190565b91909160208152825180602083015260005b8181106117d6575060409293506000838284010152601f8019910116010190565b80602080928701015160408286010152016117b5565b3d15611827573d9067ffffffffffffffff8211611768576040519161181b601f8201601f191660200184611746565b82523d6000602084013e565b606090565b6011546001161580156120b857601f905b1580156120b057601f905b80156120a957602b5b80916000146120a257602d5b603754603654809111612099575b5061188261187d6037546036546115e6565b603655565b61188c6000603755565b601154600116156120845761189f61167d565b6118a7611703565b603054611fb3575b505042600184015563019f89f560e01b600052604b60205261194b61193c6119296119027f251f647dfac2ac66e7d154b0ed64595c69e3a6320c7744365db2d9b9b9a241db5b546001600160a01b031690565b61193760115460405193849163019f89f560e01b6020840152602483019190602083019252565b03601f198101845283611746565b612387565b60208082518301019101611794565b60028401818155939080151580611f9f575b611f3e575b50600091600093855480611d63575b50906000809495968160028195600388015493611994600483019586549061152d565b966119a560058401988954906115e6565b6003840155428355548015158514611d5c576119c0906115d7565b600683015554976119ee8c6119e98d60076119e1600a87019e8f549061152d565b95015461152d565b61152d565b808211611d38575b505082600182015582600782015501555555556050548015159081611d20575b50611bf1575b6011547f98f021e0ecab7c38e92fb55a25d5d8d422d82e26b170cee83568d7d6221353af611a55611a4c83611332565b61102081601155565b0390a16044546001600160a01b0316611b21575b81611aba575b505080611a795750565b600e54600091829182918291611a97906001600160a01b0316610fcd565b5af1611aa16117ec565b5015611aa957565b63bd5ac82f60e01b60005260046000fd5b611ac5610fcd6123ae565b90813b1561049857604051636f3f4c9760e11b815260048101919091529160009183916024918391905af18015611b1c57611b01575b80611a6f565b80611b106000611b1693611746565b8061049d565b38611afb565b611788565b63bea4003960e01b600052604b602052611b8061193c611b607f889e76b7030306b71e26939f00cbd30de89c53a13959371beed66116a95bc59d6118f5565b60405163bea4003960e01b60208201526004815290611937602483611746565b604454611b9790610fcd906001600160a01b031681565b90601154823b1561049857604051633bbd2c1760e21b815260048101929092526024820152906000908290604490829084905af18015611b1c57611bdc575b50611a69565b80611b106000611beb93611746565b38611bd6565b611c006011546051549061152d565b611c25611c21611c1a836000526052602052604060002090565b5460ff1690565b1590565b611c30575b50611a1c565b611c54611c47826000526052602052604060002090565b805460ff19166001179055565b611ca06020604051611c8681611c7886858301919060206040840193600181520152565b03601f198101835282611746565b604051809381926318be12c960e21b8352600483016117a3565b038160006180085af18015611b1c57611cf3575b50604e54604f546040805192835260208301919091527f254aef78ab3f94771c17ad15d2765d19e01db562b4470c0a5c6960185ab529b291a238611c2a565b611d149060203d602011611d19575b611d0c8183611746565b810190611794565b611cb4565b503d611d02565b9050611d31600f549160115461152d565b1138611a16565b611d48611d5091611d55936115e6565b60135461152d565b601355565b38806119f6565b50836119c0565b633c839f3760e11b600052604b6020529194509250611dd39061193c9061192990611937611db07f2b0eb899b4004e6a82789f22ba21de0f097bb8657e1a3acc235065cd71a5c18c6118f5565b604051633c839f3760e11b60208201526024810193909352919283906044820190565b633b0da62360e01b600052604b60205292611e3c61193c611929611e167fd27c50382881a32820cf6b8b1f7a227cd016140aeb476cfa80312de5ef9b0d7a6118f5565b6119378954604051938491633b0da62360e01b6020840152602483019190602083019252565b94805493611e54611e4c86611609565b612710900490565b9487868860068801541515600014611f3357611e76611e7692611e7b956115e6565b6115e6565b6003850154151580611f1f575b611e97575b5090959493611971565b604454929392611ebc9190611eb690610fcd906001600160a01b031681565b9661152d565b94803b156104985760405163d4ee6c2560e01b815260048101969096526000908690602490829084905af1928315611b1c57600060028197938296948395611f0b575b50935050509192611e8d565b80611b1085611f1993611746565b38611eff565b506044546001600160a01b03161515611e88565b505050506000611e7b565b604454611f5590610fcd906001600160a01b031681565b803b1561049857604051633b91c87560e21b815260048101929092526000908290602490829084905af18015611b1c57156119625780611b106000611f9993611746565b38611962565b506044546001600160a01b0316151561195d565b602f546001600160a01b031660009081526033602052604090209192506060916043546005546040516278dbe360e81b8152602f600482015260248101939093526044830193909352606482019490945260006084820181905260a482015260c481019390935260e4830152816101048173__$10fea0eca7ca0798b023cff1d908ee714c$__5af4908115611b1c57600091612052575b5038806118af565b612074915060603d60601161207d575b61206c8183611746565b81019061176d565b5090503861204a565b503d612062565b61208c611638565b6120946116c0565b6118a7565b6037553861186b565b602c61185d565b602a611851565b601490611848565b60149061183d565b90816020910312610498575180151581036104985790565b601154801580156121f7575b61158b576012546120f4826115d7565b1461158b57612136602061210c610fcd610fcd6122a0565b612115846115d7565b90604051808095819463132d95ab60e11b8352600483019190602083019252565b03915afa908115611b1c576000916121d8575b5061158b57602061218c9161216b612165610fcd610fcd61232a565b916115d7565b906040518080958194634d66354560e11b8352600483019190602083019252565b03915afa908115611b1c576000916121a9575b5061158657600190565b6121cb915060203d6020116121d1575b6121c38183611746565b8101906120c0565b3861219f565b503d6121b9565b6121f1915060203d602011611d1957611d0c8183611746565b38612149565b50600181146120e4565b60115460011661225f57601f545b6002548101809111611341574281111561225757428103908111611341575b60015481101561224c5761224761167b916001546115e6565b600355565b5061167b6000600355565b50600061222e565b60145461220f565b600080516020612430833981519152546001600160a01b03163303610a9157565b90816020910312610498575161229d8161067d565b90565b604754604051631bae711d60e21b815260206004820181905260126024830152712a3930b739b0b1ba34b7b726b0b730b3b2b960711b60448301529091829060649082906001600160a01b03165afa908115611b1c57600091612301575090565b61229d915060203d602011612323575b61231b8183611746565b810190612288565b503d612311565b604754604051631bae711d60e21b8152602060048201819052600e60248301526d151c9a589d5b985b105c1c19585b60921b60448301529091829060649082906001600160a01b03165afa908115611b1c57600091612301575090565b6000918291602082519201905af461239d6117ec565b90156123a65790565b602081519101fd5b604754604051631bae711d60e21b8152602060048201819052600960248301526827232a26b4b73a32b960b91b60448301529091829060649082906001600160a01b03165afa908115611b1c57600091612410575b506001600160a01b031690565b612429915060203d6020116123235761231b8183611746565b3861240356fe9016d09d72d40fdae2fd8ceac6b6234c7706214fd39c1cd1e609a0528c19930094dd18d0cc0262cc85d4b8937d35e70671aaed2e54033dbad2cf13b83c65d8b102dd7bc7dec4dceedda775e58dd541e08a116c6c53815c0bd028192f7b6268009b779b17422d0df92223018b32b4d1fa46e071723d6817e2486d003becc55f00237e158222e3e6968b72b9db0d8043aacf074ad9f650f0d1606b4d82ee432c00a2646970667358221220546df832dfaef71320be793a6e870372adc2d05dfac6b8b7c303ba33a20b13a564736f6c634300081c0033",
  "linkReferences": {
    "contracts/utils/ValidatorTreeUtils.sol": {
      "ValidatorTreeUtils": [
        {
          "length": 20,
          "start": 8257
        }
      ]
    }
  },
  "deployedLinkReferences": {
    "contracts/utils/ValidatorTreeUtils.sol": {
      "ValidatorTreeUtils": [
        {
          "length": 20,
          "start": 8230
        }
      ]
    }
  }
}