{
  "_format": "hh-sol-artifact-1",
  "contractName": "MessagePayments",
  "sourceName": "contracts/MessagePayments.sol",
  "abi": [
    {
      "inputs": [],
      "stateMutability": "nonpayable",
      "type": "constructor"
    },
    {
      "inputs": [],
      "name": "InvalidInitialization",
      "type": "error"
    },
    {
      "inputs": [],
      "name": "NotInitializing",
      "type": "error"
    },
    {
      "inputs": [
        {
          "internalType": "address",
          "name": "owner",
          "type": "address"
        }
      ],
      "name": "OwnableInvalidOwner",
      "type": "error"
    },
    {
      "inputs": [
        {
          "internalType": "address",
          "name": "account",
          "type": "address"
        }
      ],
      "name": "OwnableUnauthorizedAccount",
      "type": "error"
    },
    {
      "inputs": [],
      "name": "ReentrancyGuardReentrantCall",
      "type": "error"
    },
    {
      "inputs": [],
      "name": "Unauthorized",
      "type": "error"
    },
    {
      "anonymous": false,
      "inputs": [
        {
          "indexed": false,
          "internalType": "uint64",
          "name": "version",
          "type": "uint64"
        }
      ],
      "name": "Initialized",
      "type": "event"
    },
    {
      "anonymous": false,
      "inputs": [
        {
          "indexed": true,
          "internalType": "address",
          "name": "previousOwner",
          "type": "address"
        },
        {
          "indexed": true,
          "internalType": "address",
          "name": "newOwner",
          "type": "address"
        }
      ],
      "name": "OwnershipTransferStarted",
      "type": "event"
    },
    {
      "anonymous": false,
      "inputs": [
        {
          "indexed": true,
          "internalType": "address",
          "name": "previousOwner",
          "type": "address"
        },
        {
          "indexed": true,
          "internalType": "address",
          "name": "newOwner",
          "type": "address"
        }
      ],
      "name": "OwnershipTransferred",
      "type": "event"
    },
    {
      "inputs": [],
      "name": "acceptOwnership",
      "outputs": [],
      "stateMutability": "nonpayable",
      "type": "function"
    },
    {
      "inputs": [],
      "name": "addressManager",
      "outputs": [
        {
          "internalType": "contract IAddressManager",
          "name": "",
          "type": "address"
        }
      ],
      "stateMutability": "view",
      "type": "function"
    },
    {
      "inputs": [
        {
          "internalType": "address",
          "name": "",
          "type": "address"
        }
      ],
      "name": "authorizedCallers",
      "outputs": [
        {
          "internalType": "bool",
          "name": "",
          "type": "bool"
        }
      ],
      "stateMutability": "view",
      "type": "function"
    },
    {
      "inputs": [
        {
          "internalType": "bytes32",
          "name": "_txId",
          "type": "bytes32"
        },
        {
          "internalType": "address",
          "name": "ghost",
          "type": "address"
        },
        {
          "internalType": "bool",
          "name": "isAcceptance",
          "type": "bool"
        }
      ],
      "name": "calculateAndTrackExternalWithdrawal",
      "outputs": [
        {
          "internalType": "uint256",
          "name": "withdrawAmount",
          "type": "uint256"
        }
      ],
      "stateMutability": "nonpayable",
      "type": "function"
    },
    {
      "inputs": [
        {
          "internalType": "bytes32",
          "name": "_txId",
          "type": "bytes32"
        },
        {
          "components": [
            {
              "internalType": "enum ITransactions.ResultType",
              "name": "result",
              "type": "uint8"
            },
            {
              "internalType": "enum ITransactions.VoteType",
              "name": "txExecutionResult",
              "type": "uint8"
            },
            {
              "internalType": "enum ITransactions.TransactionStatus",
              "name": "previousStatus",
              "type": "uint8"
            },
            {
              "internalType": "enum ITransactions.TransactionStatus",
              "name": "status",
              "type": "uint8"
            },
            {
              "internalType": "address",
              "name": "txOrigin",
              "type": "address"
            },
            {
              "internalType": "address",
              "name": "sender",
              "type": "address"
            },
            {
              "internalType": "address",
              "name": "recipient",
              "type": "address"
            },
            {
              "internalType": "address",
              "name": "activator",
              "type": "address"
            },
            {
              "internalType": "uint256",
              "name": "txSlot",
              "type": "uint256"
            },
            {
              "internalType": "uint256",
              "name": "initialRotations",
              "type": "uint256"
            },
            {
              "internalType": "uint256",
              "name": "numOfInitialValidators",
              "type": "uint256"
            },
            {
              "internalType": "uint256",
              "name": "epoch",
              "type": "uint256"
            },
            {
              "internalType": "bytes32",
              "name": "id",
              "type": "bytes32"
            },
            {
              "internalType": "bytes32",
              "name": "randomSeed",
              "type": "bytes32"
            },
            {
              "internalType": "bytes32",
              "name": "txExecutionHash",
              "type": "bytes32"
            },
            {
              "internalType": "bytes32",
              "name": "resultHash",
              "type": "bytes32"
            },
            {
              "internalType": "bytes",
              "name": "txCalldata",
              "type": "bytes"
            },
            {
              "internalType": "bytes",
              "name": "eqBlocksOutputs",
              "type": "bytes"
            },
            {
              "components": [
                {
                  "internalType": "uint256",
                  "name": "activationBlock",
                  "type": "uint256"
                },
                {
                  "internalType": "uint256",
                  "name": "processingBlock",
                  "type": "uint256"
                },
                {
                  "internalType": "uint256",
                  "name": "proposalBlock",
                  "type": "uint256"
                }
              ],
              "internalType": "struct ITransactions.ReadStateBlockRange[]",
              "name": "readStateBlockRanges",
              "type": "tuple[]"
            },
            {
              "internalType": "uint256",
              "name": "validUntil",
              "type": "uint256"
            },
            {
              "internalType": "uint256",
              "name": "value",
              "type": "uint256"
            },
            {
              "internalType": "uint256",
              "name": "lockedStorageUnitPrice",
              "type": "uint256"
            },
            {
              "internalType": "uint256",
              "name": "storageFeeUsed",
              "type": "uint256"
            }
          ],
          "internalType": "struct ITransactions.Transaction",
          "name": "txn",
          "type": "tuple"
        }
      ],
      "name": "calculateRefund",
      "outputs": [
        {
          "components": [
            {
              "internalType": "bool",
              "name": "hasPendingValue",
              "type": "bool"
            },
            {
              "internalType": "uint256",
              "name": "refundAmount",
              "type": "uint256"
            }
          ],
          "internalType": "struct IMessagePayments.RefundResult",
          "name": "result",
          "type": "tuple"
        }
      ],
      "stateMutability": "nonpayable",
      "type": "function"
    },
    {
      "inputs": [
        {
          "components": [
            {
              "internalType": "enum IMessages.MessageType",
              "name": "messageType",
              "type": "uint8"
            },
            {
              "internalType": "address",
              "name": "recipient",
              "type": "address"
            },
            {
              "internalType": "uint256",
              "name": "value",
              "type": "uint256"
            },
            {
              "internalType": "bytes",
              "name": "data",
              "type": "bytes"
            },
            {
              "internalType": "bool",
              "name": "onAcceptance",
              "type": "bool"
            },
            {
              "internalType": "uint256",
              "name": "saltNonce",
              "type": "uint256"
            }
          ],
          "internalType": "struct IMessages.SubmittedMessage[]",
          "name": "internalMessages",
          "type": "tuple[]"
        }
      ],
      "name": "calculateTotalInternalMessageValue",
      "outputs": [
        {
          "internalType": "uint256",
          "name": "totalValue",
          "type": "uint256"
        }
      ],
      "stateMutability": "pure",
      "type": "function"
    },
    {
      "inputs": [
        {
          "internalType": "bytes32",
          "name": "_txId",
          "type": "bytes32"
        }
      ],
      "name": "calculateUnissuedReturn",
      "outputs": [
        {
          "components": [
            {
              "internalType": "uint256",
              "name": "returnAmount",
              "type": "uint256"
            },
            {
              "internalType": "uint256",
              "name": "totalUnissuedValue",
              "type": "uint256"
            },
            {
              "internalType": "uint256",
              "name": "unissuedCount",
              "type": "uint256"
            },
            {
              "internalType": "bool",
              "name": "hasUnissued",
              "type": "bool"
            }
          ],
          "internalType": "struct IMessagePayments.UnissuedResult",
          "name": "result",
          "type": "tuple"
        }
      ],
      "stateMutability": "nonpayable",
      "type": "function"
    },
    {
      "inputs": [
        {
          "internalType": "address",
          "name": "_addressManager",
          "type": "address"
        }
      ],
      "name": "initialize",
      "outputs": [],
      "stateMutability": "nonpayable",
      "type": "function"
    },
    {
      "inputs": [
        {
          "internalType": "bytes32",
          "name": "",
          "type": "bytes32"
        }
      ],
      "name": "msgValueWithdrawnOnAcceptance",
      "outputs": [
        {
          "internalType": "uint256",
          "name": "",
          "type": "uint256"
        }
      ],
      "stateMutability": "view",
      "type": "function"
    },
    {
      "inputs": [
        {
          "internalType": "bytes32",
          "name": "",
          "type": "bytes32"
        }
      ],
      "name": "msgValueWithdrawnOnFinalization",
      "outputs": [
        {
          "internalType": "uint256",
          "name": "",
          "type": "uint256"
        }
      ],
      "stateMutability": "view",
      "type": "function"
    },
    {
      "inputs": [],
      "name": "owner",
      "outputs": [
        {
          "internalType": "address",
          "name": "",
          "type": "address"
        }
      ],
      "stateMutability": "view",
      "type": "function"
    },
    {
      "inputs": [],
      "name": "pendingOwner",
      "outputs": [
        {
          "internalType": "address",
          "name": "",
          "type": "address"
        }
      ],
      "stateMutability": "view",
      "type": "function"
    },
    {
      "inputs": [],
      "name": "renounceOwnership",
      "outputs": [],
      "stateMutability": "nonpayable",
      "type": "function"
    },
    {
      "inputs": [
        {
          "internalType": "address",
          "name": "_addressManager",
          "type": "address"
        }
      ],
      "name": "setAddressManager",
      "outputs": [],
      "stateMutability": "nonpayable",
      "type": "function"
    },
    {
      "inputs": [
        {
          "internalType": "address",
          "name": "caller",
          "type": "address"
        },
        {
          "internalType": "bool",
          "name": "authorized",
          "type": "bool"
        }
      ],
      "name": "setAuthorizedCaller",
      "outputs": [],
      "stateMutability": "nonpayable",
      "type": "function"
    },
    {
      "inputs": [
        {
          "internalType": "address[]",
          "name": "callers",
          "type": "address[]"
        },
        {
          "internalType": "bool",
          "name": "authorized",
          "type": "bool"
        }
      ],
      "name": "setAuthorizedCallers",
      "outputs": [],
      "stateMutability": "nonpayable",
      "type": "function"
    },
    {
      "inputs": [
        {
          "internalType": "bytes32",
          "name": "_txId",
          "type": "bytes32"
        },
        {
          "internalType": "uint256",
          "name": "count",
          "type": "uint256"
        },
        {
          "internalType": "bool",
          "name": "isAcceptance",
          "type": "bool"
        }
      ],
      "name": "trackInternalMessagesIssued",
      "outputs": [],
      "stateMutability": "nonpayable",
      "type": "function"
    },
    {
      "inputs": [
        {
          "internalType": "address",
          "name": "newOwner",
          "type": "address"
        }
      ],
      "name": "transferOwnership",
      "outputs": [],
      "stateMutability": "nonpayable",
      "type": "function"
    }
  ],
  "bytecode": "0x6080806040523460d2577ff0c57e16840df040f15088dc2f81fe391c3923bec73e23a9662efc9c229c6a005460ff8160401c1660c1576002600160401b03196001600160401b03821601605c575b6040516115d390816100d88239f35b6001600160401b0319166001600160401b039081177ff0c57e16840df040f15088dc2f81fe391c3923bec73e23a9662efc9c229c6a005581527fc7f505b2f371ae2175ee4913f4499e1f2633a7b5936321eed1cdaeb6115181d290602090a13880604d565b63f92ee8a960e01b60005260046000fd5b600080fdfe6080604052600436101561001257600080fd5b6000803560e01c80630652b57a14611264578063090263a7146111ad5780631a81be721461118357806328bb40fa1461101a57806335af84e714610ff05780633ab76e9f14610fc9578063454bbd2914610f77578063536fff6c14610f385780635968f01414610d91578063715018a614610d1057806379ba509714610cbf5780637f844a041461092b5780638da5cb5b146108f55780638e3b207a1461041a578063c4d66de814610259578063db60e76f146101a3578063e30c39781461016d5763f2fde38b146100e357600080fd5b3461016a57602036600319011261016a576100fc6112a4565b6101046113c0565b60008051602061157e83398151915280546001600160a01b0319166001600160a01b0392831690811790915560008051602061153e833981519152549091167f38d16b8cac22d99fc7c124b9cd0de2d3fa1faef420bfe791d8c362d765e227008380a380f35b80fd5b503461016a578060031936011261016a5760008051602061157e833981519152546040516001600160a01b039091168152602090f35b503461016a57606036600319011261016a576101bd6112dd565b338252600360205260ff6040832054161561024b5781906001600160a01b036101e4611415565b1690813b15610247578291606483926040519485938492634af6b23f60e01b845260043560048501526024356024850152151560448401525af1801561023c5761022b5750f35b81610235916112ec565b61016a5780f35b6040513d84823e3d90fd5b5050fd5b6282b42960e81b8252600482fd5b503461016a57602036600319011261016a576102736112a4565b60008051602061155e833981519152549060ff8260401c1615916001600160401b03811680159081610412575b6001149081610408575b1590816103ff575b506103f05767ffffffffffffffff19811660011760008051602061155e83398151915255826103c3575b506102e561150f565b6102ed61150f565b6102f561150f565b33156103af57610304336114a1565b61030c61150f565b61031461150f565b60017f9b779b17422d0df92223018b32b4d1fa46e071723d6817e2486d003becc55f005582546001600160a01b0319166001600160a01b039190911617825561035a5780f35b60ff60401b1960008051602061155e833981519152541660008051602061155e833981519152557fc7f505b2f371ae2175ee4913f4499e1f2633a7b5936321eed1cdaeb6115181d2602060405160018152a180f35b631e4fbdf760e01b83526004839052602483fd5b68ffffffffffffffffff1916680100000000000000011760008051602061155e83398151915255386102dc565b63f92ee8a960e01b8452600484fd5b905015386102b2565b303b1591506102aa565b8491506102a0565b503461016a57604036600319011261016a57600435906024356001600160401b0381116108dd576102e060031982360301126108dd57604051916102e083018381106001600160401b038211176108e157604052816004013560068110156108dd578352602482013560058110156108dd5760208401526044820135600f8110156108dd5760408401526064820135600f8110156108dd5760608401526104c3608483016112ba565b60808401526104d460a483016112ba565b60a08401526104e560c483016112ba565b9260c081019384526104f960e484016112ba565b60e08201526101048301356101008201526101248301356101208201526101448301356101408201526101648301356101608201526101848301356101808201526101a48301356101a08201526101c48301356101c08201526101e48301356101e08201526102048301356001600160401b03811161084d57610582906004369186010161133a565b6102008201526102248301356001600160401b03811161084d576105ac906004369186010161133a565b6102208201526102448301356001600160401b03811161084d5783013660238201121561084d5760048101356105e181611323565b916105ef60405193846112ec565b818352602060046060828601940283010101903682116108d957602401915b818310610877575050506102408201526102648301356102608201526102c06102c461028083019461028481013586526102a48101356102a0850152013591015260405192604084018481106001600160401b03821117610863576040528184526020840192828452338352600360205260ff60408420541615610855576001600160a01b0361069c611415565b16803b1561085157838091602460405180948193636769caa960e01b83528c60048401525af1801561082d57610838575b508254604051631bae711d60e21b8152602060048201819052600d60248301526c4372656174696f6e506861736560981b6044830152909791889060649082906001600160a01b03165afa96871561082d5784976107fb575b506040516333fbe41d60e11b8152600481019190915295602090879060249082906001600160a01b03165afa80156107f05783906107b8575b604096501561078057505050600182525b8251915115158252516020820152f35b519081610790575b505050610770565b516001600160a01b0316319150808210156107b157505b8152388080610788565b90506107a7565b506020863d6020116107e8575b816107d2602093836112ec565b810103126107e3576040955161075f565b600080fd5b3d91506107c5565b6040513d85823e3d90fd5b602091975061081f90823d8411610826575b61081781836112ec565b8101906113f6565b9690610726565b503d61080d565b6040513d86823e3d90fd5b6108438480926112ec565b61084d57386106cd565b8280fd5b8380fd5b6282b42960e81b8352600483fd5b634e487b7160e01b83526041600452602483fd5b6060833603126108d957604051606081018181106001600160401b038211176108c557916020916060936040528535815282860135838201526040860135604082015281520192019161060e565b634e487b7160e01b88526041600452602488fd5b8580fd5b5080fd5b634e487b7160e01b82526041600452602482fd5b503461016a578060031936011261016a5760008051602061153e833981519152546040516001600160a01b039091168152602090f35b503461016a57602036600319011261016a5760405160043591608082016001600160401b038111838210176108e1576040528082526020820181815260408301908282526060840192808452338152600360205260ff60408220541615610cb1576001600160a01b0361099c611415565b16604051631d5cc64560e11b8152876004820152604081602481855afa9081156107f05783908492610c77575b50816109f3575b608088888888604051935184525160208401525160408301525115156060820152f35b6001875284528452604051632d7b392360e11b815287600482015260016024820152602081604481855afa9081156107f0578391610c45575b50604051632d7b392360e11b8152886004820152836024820152602081604481865afa90811561082d578491610c11575b50610a6791611390565b90803b1561084d57604051636769caa960e01b815260048101899052838160248183865af1801561082d57610bfd575b5081610aa4575b806109d0565b8783526001602052610ac760408420548985526002602052604085205490611390565b9060405198631684997960e01b8a528060048b0152600160248b015260208a604481855afa998a15610bf257859a610bbd575b50602090604460405180948193631684997960e01b835260048301528860248301525afa90811561082d578491610b8a575b50610b3990608099611390565b8280821115610b8257610b4b916113b3565b80821115610b7a57610b5c916113b3565b915b5080821015610b7357505b8452388080610a9e565b9050610b69565b505081610b5e565b505082610b4b565b90506020813d602011610bb5575b81610ba5602093836112ec565b810103126107e357516080610b2c565b3d9150610b98565b9099506020813d602011610bea575b81610bd9602093836112ec565b810103126107e35751986020610afa565b3d9150610bcc565b6040513d87823e3d90fd5b83610c0a919492946112ec565b9138610a97565b90506020813d602011610c3d575b81610c2c602093836112ec565b810103126108515751610a67610a5d565b3d9150610c1f565b90506020813d602011610c6f575b81610c60602093836112ec565b8101031261084d575138610a2c565b3d9150610c53565b9150506040813d604011610ca9575b81610c93604093836112ec565b8101031261084d576020815191015190386109c9565b3d9150610c86565b6282b42960e81b8152600490fd5b503461016a578060031936011261016a5760008051602061157e83398151915254336001600160a01b0390911603610cfd57610cfa336114a1565b80f35b63118cdaa760e01b815233600452602490fd5b503461016a578060031936011261016a57610d296113c0565b60008051602061157e83398151915280546001600160a01b031990811690915560008051602061153e8339815191528054918216905581906001600160a01b03167f8be0079c531659141344cd1fd0a4f28419497f9722a3daafe3b4186f6b6457e08280a380f35b503461016a57606036600319011261016a576024356001600160a01b03811660043581830361085157610dc26112dd565b91338552600360205260ff60408620541615610f2a576044949384919060206001600160a01b03610df1611415565b1660405198898092631684997960e01b825288600483015289151560248301525afa80156107f0578390610ef7575b602097508515610ee6578484526001885260408420545b80821115610edd57610e48916113b3565b915b8215159081610ed3575b50610e64575b8686604051908152f35b9091929394503190808210600014610ecb5750915b829383610e87575b80610e5a565b15610eae5781604091610ea293526001865220918254611390565b90555b38808080610e81565b81604091610ec493526002865220918254611390565b9055610ea5565b905091610e79565b9050151538610e54565b50508291610e4a565b848452600288526040842054610e37565b506020873d602011610f22575b81610f11602093836112ec565b8101031261084d5760209651610e20565b3d9150610f04565b6282b42960e81b8552600485fd5b503461016a57602036600319011261016a5760209060ff906040906001600160a01b03610f636112a4565b168152600384522054166040519015158152f35b503461016a57604036600319011261016a57610cfa610f946112a4565b610f9c6112ce565b90610fa56113c0565b60018060a01b031683526003602052604083209060ff801983541691151516179055565b503461016a578060031936011261016a57546040516001600160a01b039091168152602090f35b503461016a57602036600319011261016a5760406020916004358152600183522054604051908152f35b503461016a57602036600319011261016a57600435906001600160401b03821161016a573660238301121561016a57816004013561105781611323565b9261106560405194856112ec565b8184526024602085019260051b820101903682116108515760248101925b8284106110c557848087815b81518410156110ba576110b2600191604060208760051b86010151015190611390565b93019261108f565b602090604051908152f35b83356001600160401b0381116108d957820160c060231982360301126108d9576040519060c082018281106001600160401b038211176108c5576040526024810135600281101561117f57825261111e604482016112ba565b60208301526064810135604083015260848101356001600160401b03811161117f57611150906024369184010161133a565b606083015260a4810135801515810361117f57608083015260c4013560a0820152815260209384019301611083565b8780fd5b503461016a57602036600319011261016a5760406020916004358152600283522054604051908152f35b503461016a57604036600319011261016a576004356001600160401b0381116108dd57366023820112156108dd578060040135906001600160401b03821161084d573660248360051b8301011161084d576112066112ce565b9061120f6113c0565b835b83811015611260576024600582901b830101356001600160a01b03811691908290036108d9576001918652600360205261125a84604088209060ff801983541691151516179055565b01611211565b8480f35b503461016a57602036600319011261016a5761127e6112a4565b6112866113c0565b81546001600160a01b0319166001600160a01b039190911617815580f35b600435906001600160a01b03821682036107e357565b35906001600160a01b03821682036107e357565b6024359081151582036107e357565b6044359081151582036107e357565b90601f801991011681019081106001600160401b0382111761130d57604052565b634e487b7160e01b600052604160045260246000fd5b6001600160401b03811161130d5760051b60200190565b81601f820112156107e3578035906001600160401b03821161130d576040519261136e601f8401601f1916602001856112ec565b828452602083830101116107e357816000926020809301838601378301015290565b9190820180921161139d57565b634e487b7160e01b600052601160045260246000fd5b9190820391821161139d57565b60008051602061153e833981519152546001600160a01b031633036113e157565b63118cdaa760e01b6000523360045260246000fd5b908160209103126107e357516001600160a01b03811681036107e35790565b600054604051631bae711d60e21b815260206004820181905260086024830152674d6573736167657360c01b60448301529091829060649082906001600160a01b03165afa90811561149557600091611476575b506001600160a01b031690565b61148f915060203d6020116108265761081781836112ec565b38611469565b6040513d6000823e3d90fd5b60008051602061157e83398151915280546001600160a01b031990811690915560008051602061153e83398151915280549182166001600160a01b0393841690811790915591167f8be0079c531659141344cd1fd0a4f28419497f9722a3daafe3b4186f6b6457e0600080a3565b60ff60008051602061155e8339815191525460401c161561152c57565b631afcd79f60e31b60005260046000fdfe9016d09d72d40fdae2fd8ceac6b6234c7706214fd39c1cd1e609a0528c199300f0c57e16840df040f15088dc2f81fe391c3923bec73e23a9662efc9c229c6a00237e158222e3e6968b72b9db0d8043aacf074ad9f650f0d1606b4d82ee432c00a2646970667358221220d38a3b30f9dfd00a19033f924637349f80959100d1f7585573188ddad2d3077764736f6c634300081c0033",
  "linkReferences": {},
  "deployedLinkReferences": {}
}