{
  "_format": "hh-sol-artifact-1",
  "contractName": "MockFeeManagerForRounds",
  "sourceName": "contracts/mocks/MocksForRounds.sol",
  "abi": [
    {
      "inputs": [
        {
          "internalType": "uint256",
          "name": "round",
          "type": "uint256"
        }
      ],
      "name": "getValidatorsPerRound",
      "outputs": [
        {
          "internalType": "uint256",
          "name": "",
          "type": "uint256"
        }
      ],
      "stateMutability": "view",
      "type": "function"
    },
    {
      "inputs": [
        {
          "internalType": "uint256",
          "name": "round",
          "type": "uint256"
        },
        {
          "internalType": "uint256",
          "name": "count",
          "type": "uint256"
        }
      ],
      "name": "setValidatorsPerRound",
      "outputs": [],
      "stateMutability": "nonpayable",
      "type": "function"
    },
    {
      "inputs": [
        {
          "internalType": "uint256",
          "name": "",
          "type": "uint256"
        }
      ],
      "name": "validatorsPerRound",
      "outputs": [
        {
          "internalType": "uint256",
          "name": "",
          "type": "uint256"
        }
      ],
      "stateMutability": "view",
      "type": "function"
    }
  ],
  "bytecode": "0x6080806040523460155761010d908161001b8239f35b600080fdfe60806040526004361015601157600080fd5b60003560e01c806340b86d4c1460af578063a76c02e01460685763da211d7f14603957600080fd5b34606357602036600319011260635760043560005260006020526020604060002054604051908152f35b600080fd5b3460635760203660031901126063576004356000818152602081905260409020541560a657600052600060205260206040600020545b604051908152f35b5060206005609e565b3460635760403660031901126063576004356000526000602052602435604060002055600080f3fea264697066735822122086ee3e925d3c1f9c33da7fceb261ab251d4bf7e613007e7cafd03781eb5316fa64736f6c634300081c0033",
  "linkReferences": {},
  "deployedLinkReferences": {}
}