{
  "_format": "hh-sol-artifact-1",
  "contractName": "MockVotingForRounds",
  "sourceName": "contracts/mocks/MocksForRounds.sol",
  "abi": [
    {
      "inputs": [
        {
          "internalType": "bytes32",
          "name": "",
          "type": "bytes32"
        },
        {
          "internalType": "enum ITransactions.VoteType[]",
          "name": "",
          "type": "uint8[]"
        },
        {
          "internalType": "bytes32[]",
          "name": "",
          "type": "bytes32[]"
        }
      ],
      "name": "getMajorityVote",
      "outputs": [
        {
          "internalType": "enum ITransactions.ResultType",
          "name": "",
          "type": "uint8"
        }
      ],
      "stateMutability": "view",
      "type": "function"
    },
    {
      "inputs": [],
      "name": "mockMajorityResult",
      "outputs": [
        {
          "internalType": "enum ITransactions.ResultType",
          "name": "",
          "type": "uint8"
        }
      ],
      "stateMutability": "view",
      "type": "function"
    },
    {
      "inputs": [
        {
          "internalType": "enum ITransactions.ResultType",
          "name": "result",
          "type": "uint8"
        }
      ],
      "name": "setMockMajorityVote",
      "outputs": [],
      "stateMutability": "nonpayable",
      "type": "function"
    }
  ],
  "bytecode": "0x60808060405234601557610240908161001b8239f35b600080fdfe608080604052600436101561001357600080fd5b60003560e01c9081632a18a84114610170575080634db1950e146101415763e5cc50b01461004057600080fd5b346101235760603660031901126101235760243567ffffffffffffffff811161012357366023820112156101235780600401359060246020610089610084856101f2565b6101b6565b848152019260051b8201019036821161012357602401915b8183106101285760443567ffffffffffffffff8111610123573660238201121561012357806004013590602460206100db610084856101f2565b848152019260051b8201019036821161012357602401915b8183106101135761010f60ff600054166040519182918261018d565b0390f35b82358152602092830192016100f3565b600080fd5b82356005811015610123578152602092830192016100a1565b346101235760203660031901126101235760043560068110156101235760009060ff8019835416911617815580f35b34610123576000366003190112610123578061010f60ff60005416825b9190602083019260068210156101a05752565b634e487b7160e01b600052602160045260246000fd5b6040519190601f01601f1916820167ffffffffffffffff8111838210176101dc57604052565b634e487b7160e01b600052604160045260246000fd5b67ffffffffffffffff81116101dc5760051b6020019056fea2646970667358221220b10830cd831c10d0cfe0a4047a462c71fd2dddc78232aa1dff5f4abcfce3560964736f6c634300081c0033",
  "linkReferences": {},
  "deployedLinkReferences": {}
}