{
  "_format": "hh-sol-artifact-1",
  "contractName": "MockGenLayerStakingForRounds",
  "sourceName": "contracts/mocks/MocksForRounds.sol",
  "abi": [
    {
      "inputs": [],
      "name": "activeValidatorsCount",
      "outputs": [
        {
          "internalType": "uint256",
          "name": "",
          "type": "uint256"
        }
      ],
      "stateMutability": "view",
      "type": "function"
    },
    {
      "inputs": [],
      "name": "mockActiveCount",
      "outputs": [
        {
          "internalType": "uint256",
          "name": "",
          "type": "uint256"
        }
      ],
      "stateMutability": "view",
      "type": "function"
    },
    {
      "inputs": [],
      "name": "mockLeaderIndex",
      "outputs": [
        {
          "internalType": "uint256",
          "name": "",
          "type": "uint256"
        }
      ],
      "stateMutability": "view",
      "type": "function"
    },
    {
      "inputs": [
        {
          "internalType": "uint256",
          "name": "",
          "type": "uint256"
        }
      ],
      "name": "mockValidators",
      "outputs": [
        {
          "internalType": "address",
          "name": "",
          "type": "address"
        }
      ],
      "stateMutability": "view",
      "type": "function"
    },
    {
      "inputs": [
        {
          "internalType": "uint256",
          "name": "count",
          "type": "uint256"
        }
      ],
      "name": "setActiveValidatorsCount",
      "outputs": [],
      "stateMutability": "nonpayable",
      "type": "function"
    },
    {
      "inputs": [
        {
          "internalType": "address[]",
          "name": "validators",
          "type": "address[]"
        },
        {
          "internalType": "uint256",
          "name": "leaderIndex",
          "type": "uint256"
        }
      ],
      "name": "setMockValidatorSelection",
      "outputs": [],
      "stateMutability": "nonpayable",
      "type": "function"
    },
    {
      "inputs": [
        {
          "internalType": "bool",
          "name": "_shouldReturnEmpty",
          "type": "bool"
        }
      ],
      "name": "setShouldReturnEmpty",
      "outputs": [],
      "stateMutability": "nonpayable",
      "type": "function"
    },
    {
      "inputs": [],
      "name": "shouldReturnEmpty",
      "outputs": [
        {
          "internalType": "bool",
          "name": "",
          "type": "bool"
        }
      ],
      "stateMutability": "view",
      "type": "function"
    },
    {
      "inputs": [
        {
          "internalType": "bytes32",
          "name": "",
          "type": "bytes32"
        },
        {
          "internalType": "uint256",
          "name": "",
          "type": "uint256"
        },
        {
          "internalType": "uint256",
          "name": "",
          "type": "uint256"
        },
        {
          "internalType": "uint256",
          "name": "",
          "type": "uint256"
        },
        {
          "internalType": "uint256",
          "name": "",
          "type": "uint256"
        },
        {
          "internalType": "bool",
          "name": "",
          "type": "bool"
        },
        {
          "internalType": "address[]",
          "name": "",
          "type": "address[]"
        }
      ],
      "name": "validatorSelection",
      "outputs": [
        {
          "internalType": "uint256",
          "name": "leader_",
          "type": "uint256"
        },
        {
          "internalType": "address[]",
          "name": "validators_",
          "type": "address[]"
        },
        {
          "internalType": "address[]",
          "name": "penalized_",
          "type": "address[]"
        }
      ],
      "stateMutability": "view",
      "type": "function"
    }
  ],
  "bytecode": "0x60808060405234601557610512908161001b8239f35b600080fdfe608080604052600436101561001357600080fd5b60003560e01c908162677eb214610378575080630d2bd9091461034757806319dde8571461032e5780631e717be8146101d757806374b22fee146101b457806378d5634d1461019657806382df24a1146100ff578063abb0033e146100ce5763eb541ff81461008157600080fd5b346100c95760203660031901126100c9576004356000548110156100c957600080526000805160206104bd83398151915201546040516001600160a01b039091168152602090f35b600080fd5b346100c95760203660031901126100c9576004358015158091036100c95760ff801960035416911617600355600080f35b346100c95760e03660031901126100c9576101186103b5565b5060c43567ffffffffffffffff81116100c957366023820112156100c95780600401359067ffffffffffffffff82116100c957602490369260051b0101116100c957610192610165610401565b61018460409492945194859485526060602086015260608501906103c4565b9083820360408501526103c4565b0390f35b346100c95760003660031901126100c9576020600154604051908152f35b346100c95760003660031901126100c957602060ff600354166040519015158152f35b346100c95760403660031901126100c95760043567ffffffffffffffff81116100c957366023820112156100c957806004013567ffffffffffffffff81116102f8578060051b9160208301916102306040519384610393565b8252602082019060248294820101903682116100c957602401915b81831061030e57505050519067ffffffffffffffff82116102f857600160401b82116102f857600054826000558083106102c5575b5060008080526000805160206104bd8339815191529291905b8281106102a857602435600155005b81516001600160a01b031681850155602090910190600101610299565b600080526000805160206104bd8339815191529081019083015b8181106102ec5750610280565b600081556001016102df565b634e487b7160e01b600052604160045260246000fd5b82356001600160a01b03811681036100c95781526020928301920161024b565b346100c95760203660031901126100c957600435600255005b346100c95760003660031901126100c957600254801561036d576020905b604051908152f35b506020600054610365565b346100c95760003660031901126100c9576020906002548152f35b90601f8019910116810190811067ffffffffffffffff8211176102f857604052565b60a4359081151582036100c957565b906020808351928381520192019060005b8181106103e25750505090565b82516001600160a01b03168452602093840193909201916001016103d5565b60ff60035416610484576001546020916040519161041f8484610393565b6000835260003681379260405190818092826000549182815201906000805283600020936000905b8282106104615750505061045d92500382610393565b9190565b85546001600160a01b031684526001958601958795509381019390910190610447565b6020604051916104948284610393565b600083526000368137604051916104ab8184610393565b60008352506000368137600092919056fe290decd9548b62a8d60345a988386fc84ba6bc95484008f6362f93160ef3e563a26469706673582212204e61f2ed99d554aa11294ca50080ec410784b6f51f679179f3df8fbd49b15cde64736f6c634300081c0033",
  "linkReferences": {},
  "deployedLinkReferences": {}
}