{
  "_format": "hh-sol-artifact-1",
  "contractName": "MockAddressManagerForRounds",
  "sourceName": "contracts/mocks/MocksForRounds.sol",
  "abi": [
    {
      "inputs": [],
      "name": "ArrayLengthMismatch",
      "type": "error"
    },
    {
      "inputs": [
        {
          "internalType": "string",
          "name": "key",
          "type": "string"
        }
      ],
      "name": "ZeroAddress",
      "type": "error"
    },
    {
      "anonymous": false,
      "inputs": [
        {
          "indexed": true,
          "internalType": "string",
          "name": "key",
          "type": "string"
        },
        {
          "indexed": true,
          "internalType": "address",
          "name": "oldAddr",
          "type": "address"
        },
        {
          "indexed": true,
          "internalType": "address",
          "name": "newAddr",
          "type": "address"
        }
      ],
      "name": "AddressUpdated",
      "type": "event"
    },
    {
      "inputs": [
        {
          "internalType": "string",
          "name": "key",
          "type": "string"
        }
      ],
      "name": "addressBook",
      "outputs": [
        {
          "internalType": "address",
          "name": "",
          "type": "address"
        }
      ],
      "stateMutability": "view",
      "type": "function"
    },
    {
      "inputs": [
        {
          "internalType": "string",
          "name": "key",
          "type": "string"
        }
      ],
      "name": "getAddress",
      "outputs": [
        {
          "internalType": "address",
          "name": "",
          "type": "address"
        }
      ],
      "stateMutability": "view",
      "type": "function"
    },
    {
      "inputs": [
        {
          "internalType": "string",
          "name": "key",
          "type": "string"
        }
      ],
      "name": "getAddressNonZero",
      "outputs": [
        {
          "internalType": "address",
          "name": "",
          "type": "address"
        }
      ],
      "stateMutability": "view",
      "type": "function"
    },
    {
      "inputs": [],
      "name": "getAllContractAddresses",
      "outputs": [
        {
          "components": [
            {
              "internalType": "string",
              "name": "key",
              "type": "string"
            },
            {
              "internalType": "address",
              "name": "addr",
              "type": "address"
            }
          ],
          "internalType": "struct IAddressManager.ContractInfo[]",
          "name": "",
          "type": "tuple[]"
        }
      ],
      "stateMutability": "pure",
      "type": "function"
    },
    {
      "inputs": [],
      "name": "getContractKeyCount",
      "outputs": [
        {
          "internalType": "uint256",
          "name": "",
          "type": "uint256"
        }
      ],
      "stateMutability": "pure",
      "type": "function"
    },
    {
      "inputs": [
        {
          "internalType": "string",
          "name": "key",
          "type": "string"
        },
        {
          "internalType": "address",
          "name": "addr",
          "type": "address"
        }
      ],
      "name": "setAddress",
      "outputs": [],
      "stateMutability": "nonpayable",
      "type": "function"
    },
    {
      "inputs": [
        {
          "internalType": "string[]",
          "name": "keys",
          "type": "string[]"
        },
        {
          "internalType": "address[]",
          "name": "addrs",
          "type": "address[]"
        }
      ],
      "name": "setAddresses",
      "outputs": [],
      "stateMutability": "nonpayable",
      "type": "function"
    }
  ],
  "bytecode": "0x608080604052346015576105a6908161001b8239f35b600080fdfe6080604052600436101561001257600080fd5b60003560e01c80633b33b61a146103475780636eb9c474146102a75780637d69a892146101585780639b2ea4bd1461008f578063bc88420c1461006e578063bf40fac1146100695763eef411731461006957600080fd5b610498565b3461008a57600036600319011261008a57602060405160008152f35b600080fd5b3461008a57604036600319011261008a576004356001600160401b03811161008a576100bf90369060040161043b565b6024356001600160a01b03811692919083900361008a5760405181838237818101906000825260208160018060a01b039303019020541691604051828282376000838201908152819003602001902080546001600160a01b03191685179055604051918291819083378101600081520390207f7878dffb4ada647885186a00ea129964d140835f125808ba48b1f3974b5f8189600080a4005b3461008a57604036600319011261008a576004356001600160401b03811161008a57610188903690600401610468565b906024356001600160401b03811161008a576101a8903690600401610468565b918284036102965760005b8481106101bc57005b806101ca60019287856104f5565b8060405192833781019060008252602081858060a01b03930301902054166101fb6101f683888861054c565b61055c565b6020610208848a886104f5565b91908260405193849283378101600081520301902090848060a01b0316848060a01b031982541617905561023d8288866104f5565b61024e6101f6858a8a96959661054c565b926000826040519384938437820190815203902091848060a01b0316917f7878dffb4ada647885186a00ea129964d140835f125808ba48b1f3974b5f8189600080a4016101b3565b63512509d360e11b60005260046000fd5b3461008a57602036600319011261008a576004356001600160401b03811161008a576102d790369060040161043b565b906040518282823760008184019081528190036020019020546001600160a01b031690811561030b57602082604051908152f35b604491508260405193849263eac0d38960e01b845260206004850152816024850152848401376000828201840152601f01601f19168101030190fd5b3461008a57600036600319011261008a5760405160208181016001600160401b03811183821017610425576040818152600080855281518481529451858501819052909493600582901b850183019392869086015b8382106103a95786860387f35b9091929394603f19878203018252838651805190604084528151918260408601528b5b83811061041057505081840160609081018c9052908301516001600160a01b031683850152601f909101601f1916909201909101958101949392600101910161039c565b818101850151868201606001528894016103cc565b634e487b7160e01b600052604160045260246000fd5b9181601f8401121561008a578235916001600160401b03831161008a576020838186019501011161008a57565b9181601f8401121561008a578235916001600160401b03831161008a576020808501948460051b01011161008a57565b3461008a57602036600319011261008a576004356001600160401b03811161008a5760206104cb8192369060040161043b565b9190826040519384928337600090820190815203019020546040516001600160a01b039091168152f35b91908110156105365760051b81013590601e198136030182121561008a5701908135916001600160401b03831161008a57602001823603811361008a579190565b634e487b7160e01b600052603260045260246000fd5b91908110156105365760051b0190565b356001600160a01b038116810361008a579056fea2646970667358221220f22ca09a72505b690300d7c05956253c8a48c20942df13a9afa1e088b8e1a81664736f6c634300081c0033",
  "linkReferences": {},
  "deployedLinkReferences": {}
}