{
  "_format": "hh-sol-artifact-1",
  "contractName": "FeeManager",
  "sourceName": "contracts/FeeManager.sol",
  "abi": [
    {
      "inputs": [],
      "name": "AppealRoundNotPermitted",
      "type": "error"
    },
    {
      "inputs": [],
      "name": "EnforcedPause",
      "type": "error"
    },
    {
      "inputs": [],
      "name": "ExpectedPause",
      "type": "error"
    },
    {
      "inputs": [],
      "name": "InsufficientFeesForRound",
      "type": "error"
    },
    {
      "inputs": [],
      "name": "InvalidInitialization",
      "type": "error"
    },
    {
      "inputs": [],
      "name": "NotInitializing",
      "type": "error"
    },
    {
      "inputs": [],
      "name": "OnlyConsensusCanCall",
      "type": "error"
    },
    {
      "inputs": [
        {
          "internalType": "address",
          "name": "owner",
          "type": "address"
        }
      ],
      "name": "OwnableInvalidOwner",
      "type": "error"
    },
    {
      "inputs": [
        {
          "internalType": "address",
          "name": "account",
          "type": "address"
        }
      ],
      "name": "OwnableUnauthorizedAccount",
      "type": "error"
    },
    {
      "inputs": [],
      "name": "ReentrancyGuardReentrantCall",
      "type": "error"
    },
    {
      "anonymous": false,
      "inputs": [
        {
          "indexed": true,
          "internalType": "bytes32",
          "name": "txId",
          "type": "bytes32"
        },
        {
          "indexed": false,
          "internalType": "uint256",
          "name": "amount",
          "type": "uint256"
        }
      ],
      "name": "FeesCommitted",
      "type": "event"
    },
    {
      "anonymous": false,
      "inputs": [
        {
          "indexed": true,
          "internalType": "bytes32",
          "name": "txId",
          "type": "bytes32"
        },
        {
          "indexed": true,
          "internalType": "address",
          "name": "depositor",
          "type": "address"
        },
        {
          "indexed": false,
          "internalType": "uint256",
          "name": "amount",
          "type": "uint256"
        }
      ],
      "name": "FeesDeposited",
      "type": "event"
    },
    {
      "anonymous": false,
      "inputs": [
        {
          "indexed": true,
          "internalType": "bytes32",
          "name": "txId",
          "type": "bytes32"
        },
        {
          "indexed": false,
          "internalType": "uint256",
          "name": "amount",
          "type": "uint256"
        }
      ],
      "name": "FeesDistributed",
      "type": "event"
    },
    {
      "anonymous": false,
      "inputs": [
        {
          "indexed": true,
          "internalType": "bytes32",
          "name": "txId",
          "type": "bytes32"
        },
        {
          "indexed": true,
          "internalType": "address",
          "name": "account",
          "type": "address"
        },
        {
          "indexed": false,
          "internalType": "uint256",
          "name": "amount",
          "type": "uint256"
        }
      ],
      "name": "FeesIssuedBack",
      "type": "event"
    },
    {
      "anonymous": false,
      "inputs": [
        {
          "indexed": false,
          "internalType": "uint64",
          "name": "version",
          "type": "uint64"
        }
      ],
      "name": "Initialized",
      "type": "event"
    },
    {
      "anonymous": false,
      "inputs": [
        {
          "indexed": true,
          "internalType": "bytes32",
          "name": "txId",
          "type": "bytes32"
        },
        {
          "indexed": true,
          "internalType": "address",
          "name": "account",
          "type": "address"
        }
      ],
      "name": "InsufficientFees",
      "type": "event"
    },
    {
      "anonymous": false,
      "inputs": [
        {
          "indexed": true,
          "internalType": "address",
          "name": "previousOwner",
          "type": "address"
        },
        {
          "indexed": true,
          "internalType": "address",
          "name": "newOwner",
          "type": "address"
        }
      ],
      "name": "OwnershipTransferStarted",
      "type": "event"
    },
    {
      "anonymous": false,
      "inputs": [
        {
          "indexed": true,
          "internalType": "address",
          "name": "previousOwner",
          "type": "address"
        },
        {
          "indexed": true,
          "internalType": "address",
          "name": "newOwner",
          "type": "address"
        }
      ],
      "name": "OwnershipTransferred",
      "type": "event"
    },
    {
      "anonymous": false,
      "inputs": [
        {
          "indexed": false,
          "internalType": "address",
          "name": "account",
          "type": "address"
        }
      ],
      "name": "Paused",
      "type": "event"
    },
    {
      "anonymous": false,
      "inputs": [
        {
          "indexed": false,
          "internalType": "address",
          "name": "account",
          "type": "address"
        }
      ],
      "name": "Unpaused",
      "type": "event"
    },
    {
      "inputs": [],
      "name": "GENPerTimeUnit",
      "outputs": [
        {
          "internalType": "uint256",
          "name": "",
          "type": "uint256"
        }
      ],
      "stateMutability": "view",
      "type": "function"
    },
    {
      "inputs": [],
      "name": "MAX_ROUNDS",
      "outputs": [
        {
          "internalType": "uint8",
          "name": "",
          "type": "uint8"
        }
      ],
      "stateMutability": "view",
      "type": "function"
    },
    {
      "inputs": [
        {
          "internalType": "uint256",
          "name": "",
          "type": "uint256"
        }
      ],
      "name": "VALIDATORS_PER_ROUND",
      "outputs": [
        {
          "internalType": "uint256",
          "name": "",
          "type": "uint256"
        }
      ],
      "stateMutability": "view",
      "type": "function"
    },
    {
      "inputs": [],
      "name": "acceptOwnership",
      "outputs": [],
      "stateMutability": "nonpayable",
      "type": "function"
    },
    {
      "inputs": [
        {
          "internalType": "bytes32",
          "name": "_txId",
          "type": "bytes32"
        },
        {
          "internalType": "uint256",
          "name": "_round",
          "type": "uint256"
        },
        {
          "internalType": "uint256",
          "name": "_appealBond",
          "type": "uint256"
        },
        {
          "internalType": "address",
          "name": "_appealer",
          "type": "address"
        }
      ],
      "name": "addAppealRound",
      "outputs": [
        {
          "internalType": "bool",
          "name": "feesForNewRoundApproved",
          "type": "bool"
        }
      ],
      "stateMutability": "nonpayable",
      "type": "function"
    },
    {
      "inputs": [
        {
          "internalType": "bytes32",
          "name": "_txId",
          "type": "bytes32"
        },
        {
          "internalType": "uint256",
          "name": "_round",
          "type": "uint256"
        },
        {
          "internalType": "enum ITransactions.TransactionStatus",
          "name": "_status",
          "type": "uint8"
        }
      ],
      "name": "calculateMinAppealBond",
      "outputs": [
        {
          "internalType": "uint256",
          "name": "totalFeesToPay",
          "type": "uint256"
        }
      ],
      "stateMutability": "view",
      "type": "function"
    },
    {
      "inputs": [
        {
          "components": [
            {
              "internalType": "uint256",
              "name": "leaderTimeoutFee",
              "type": "uint256"
            },
            {
              "internalType": "uint256",
              "name": "validatorsTimeoutFee",
              "type": "uint256"
            },
            {
              "internalType": "uint256",
              "name": "appealRounds",
              "type": "uint256"
            },
            {
              "internalType": "uint256",
              "name": "rollupStorageFee",
              "type": "uint256"
            },
            {
              "internalType": "uint256",
              "name": "rollupGenVMFee",
              "type": "uint256"
            },
            {
              "internalType": "uint256",
              "name": "totalMessageFees",
              "type": "uint256"
            },
            {
              "internalType": "uint256[]",
              "name": "rotations",
              "type": "uint256[]"
            }
          ],
          "internalType": "struct IFeeManager.FeesDistribution",
          "name": "_feesDistribution",
          "type": "tuple"
        },
        {
          "internalType": "uint256",
          "name": "_numOfValidators",
          "type": "uint256"
        },
        {
          "internalType": "uint256",
          "name": "round",
          "type": "uint256"
        }
      ],
      "name": "calculateRoundFees",
      "outputs": [
        {
          "internalType": "uint256",
          "name": "totalFeesToPay",
          "type": "uint256"
        }
      ],
      "stateMutability": "view",
      "type": "function"
    },
    {
      "inputs": [
        {
          "internalType": "bytes32",
          "name": "txId",
          "type": "bytes32"
        }
      ],
      "name": "commitFinalFees",
      "outputs": [
        {
          "components": [
            {
              "internalType": "address",
              "name": "sender",
              "type": "address"
            },
            {
              "internalType": "uint256",
              "name": "amountToSender",
              "type": "uint256"
            },
            {
              "internalType": "address[]",
              "name": "appealers",
              "type": "address[]"
            },
            {
              "internalType": "uint256[]",
              "name": "feesToAppealers",
              "type": "uint256[]"
            }
          ],
          "internalType": "struct IFeeManager.FeeReturns",
          "name": "feeReturns",
          "type": "tuple"
        }
      ],
      "stateMutability": "nonpayable",
      "type": "function"
    },
    {
      "inputs": [],
      "name": "consensusMain",
      "outputs": [
        {
          "internalType": "address",
          "name": "",
          "type": "address"
        }
      ],
      "stateMutability": "view",
      "type": "function"
    },
    {
      "inputs": [],
      "name": "contracts",
      "outputs": [
        {
          "internalType": "contract IConsensusMain",
          "name": "consensusMain",
          "type": "address"
        },
        {
          "internalType": "contract IFeesVerifier",
          "name": "feeVerifier",
          "type": "address"
        },
        {
          "internalType": "contract IFeesRecorder",
          "name": "feeRecorder",
          "type": "address"
        },
        {
          "internalType": "contract IFeesProcessor",
          "name": "feeProcessor",
          "type": "address"
        }
      ],
      "stateMutability": "view",
      "type": "function"
    },
    {
      "inputs": [
        {
          "internalType": "bytes32",
          "name": "txId",
          "type": "bytes32"
        }
      ],
      "name": "feesDistributionForTx",
      "outputs": [
        {
          "internalType": "uint256",
          "name": "leaderTimeoutFee",
          "type": "uint256"
        },
        {
          "internalType": "uint256",
          "name": "validatorsTimeoutFee",
          "type": "uint256"
        },
        {
          "internalType": "uint256",
          "name": "appealRounds",
          "type": "uint256"
        },
        {
          "internalType": "uint256",
          "name": "rollupStorageFee",
          "type": "uint256"
        },
        {
          "internalType": "uint256",
          "name": "rollupGenVMFee",
          "type": "uint256"
        },
        {
          "internalType": "uint256",
          "name": "totalMessageFees",
          "type": "uint256"
        }
      ],
      "stateMutability": "view",
      "type": "function"
    },
    {
      "inputs": [
        {
          "internalType": "bytes32",
          "name": "_txId",
          "type": "bytes32"
        }
      ],
      "name": "getFeesDistributionForTx",
      "outputs": [
        {
          "components": [
            {
              "internalType": "uint256",
              "name": "leaderTimeoutFee",
              "type": "uint256"
            },
            {
              "internalType": "uint256",
              "name": "validatorsTimeoutFee",
              "type": "uint256"
            },
            {
              "internalType": "uint256",
              "name": "appealRounds",
              "type": "uint256"
            },
            {
              "internalType": "uint256",
              "name": "rollupStorageFee",
              "type": "uint256"
            },
            {
              "internalType": "uint256",
              "name": "rollupGenVMFee",
              "type": "uint256"
            },
            {
              "internalType": "uint256",
              "name": "totalMessageFees",
              "type": "uint256"
            },
            {
              "internalType": "uint256[]",
              "name": "rotations",
              "type": "uint256[]"
            }
          ],
          "internalType": "struct IFeeManager.FeesDistribution",
          "name": "",
          "type": "tuple"
        }
      ],
      "stateMutability": "view",
      "type": "function"
    },
    {
      "inputs": [
        {
          "internalType": "uint256",
          "name": "round",
          "type": "uint256"
        }
      ],
      "name": "getValidatorsPerRound",
      "outputs": [
        {
          "internalType": "uint256",
          "name": "",
          "type": "uint256"
        }
      ],
      "stateMutability": "view",
      "type": "function"
    },
    {
      "inputs": [
        {
          "components": [
            {
              "internalType": "contract IConsensusMain",
              "name": "consensusMain",
              "type": "address"
            },
            {
              "internalType": "contract IFeesVerifier",
              "name": "feeVerifier",
              "type": "address"
            },
            {
              "internalType": "contract IFeesRecorder",
              "name": "feeRecorder",
              "type": "address"
            },
            {
              "internalType": "contract IFeesProcessor",
              "name": "feeProcessor",
              "type": "address"
            }
          ],
          "internalType": "struct IFeeManager.ExternalContracts",
          "name": "_contracts",
          "type": "tuple"
        }
      ],
      "name": "initialize",
      "outputs": [],
      "stateMutability": "nonpayable",
      "type": "function"
    },
    {
      "inputs": [
        {
          "internalType": "bytes32",
          "name": "txId",
          "type": "bytes32"
        }
      ],
      "name": "lastTransactionTopUpSender",
      "outputs": [
        {
          "internalType": "address",
          "name": "topUpAddress",
          "type": "address"
        }
      ],
      "stateMutability": "view",
      "type": "function"
    },
    {
      "inputs": [],
      "name": "maxNumOfRoundsToProcessInBatch",
      "outputs": [
        {
          "internalType": "uint8",
          "name": "",
          "type": "uint8"
        }
      ],
      "stateMutability": "view",
      "type": "function"
    },
    {
      "inputs": [],
      "name": "owner",
      "outputs": [
        {
          "internalType": "address",
          "name": "",
          "type": "address"
        }
      ],
      "stateMutability": "view",
      "type": "function"
    },
    {
      "inputs": [],
      "name": "paused",
      "outputs": [
        {
          "internalType": "bool",
          "name": "",
          "type": "bool"
        }
      ],
      "stateMutability": "view",
      "type": "function"
    },
    {
      "inputs": [],
      "name": "pendingOwner",
      "outputs": [
        {
          "internalType": "address",
          "name": "",
          "type": "address"
        }
      ],
      "stateMutability": "view",
      "type": "function"
    },
    {
      "inputs": [
        {
          "internalType": "bytes32",
          "name": "txId",
          "type": "bytes32"
        }
      ],
      "name": "processedRoundsForTx",
      "outputs": [
        {
          "internalType": "uint256",
          "name": "processedRounds",
          "type": "uint256"
        }
      ],
      "stateMutability": "view",
      "type": "function"
    },
    {
      "inputs": [
        {
          "internalType": "bytes32",
          "name": "_txId",
          "type": "bytes32"
        },
        {
          "internalType": "uint256",
          "name": "_round",
          "type": "uint256"
        },
        {
          "internalType": "address",
          "name": "_leader",
          "type": "address"
        },
        {
          "internalType": "uint256",
          "name": "_leaderIndex",
          "type": "uint256"
        },
        {
          "internalType": "bool",
          "name": "_leaderTimeout",
          "type": "bool"
        }
      ],
      "name": "recordProposedReceipt",
      "outputs": [],
      "stateMutability": "nonpayable",
      "type": "function"
    },
    {
      "inputs": [
        {
          "internalType": "bytes32",
          "name": "_txId",
          "type": "bytes32"
        },
        {
          "internalType": "uint256",
          "name": "_round",
          "type": "uint256"
        },
        {
          "internalType": "address",
          "name": "_validator",
          "type": "address"
        },
        {
          "internalType": "bool",
          "name": "_isLastVote",
          "type": "bool"
        },
        {
          "internalType": "enum ITransactions.VoteType",
          "name": "_voteType",
          "type": "uint8"
        },
        {
          "internalType": "enum ITransactions.ResultType",
          "name": "_result",
          "type": "uint8"
        }
      ],
      "name": "recordRevealedVote",
      "outputs": [
        {
          "internalType": "bool",
          "name": "feesForNewRoundApproved",
          "type": "bool"
        }
      ],
      "stateMutability": "nonpayable",
      "type": "function"
    },
    {
      "inputs": [],
      "name": "renounceOwnership",
      "outputs": [],
      "stateMutability": "nonpayable",
      "type": "function"
    },
    {
      "inputs": [
        {
          "components": [
            {
              "internalType": "contract IConsensusMain",
              "name": "consensusMain",
              "type": "address"
            },
            {
              "internalType": "contract IFeesVerifier",
              "name": "feeVerifier",
              "type": "address"
            },
            {
              "internalType": "contract IFeesRecorder",
              "name": "feeRecorder",
              "type": "address"
            },
            {
              "internalType": "contract IFeesProcessor",
              "name": "feeProcessor",
              "type": "address"
            }
          ],
          "internalType": "struct IFeeManager.ExternalContracts",
          "name": "_contracts",
          "type": "tuple"
        }
      ],
      "name": "setExternalContracts",
      "outputs": [],
      "stateMutability": "nonpayable",
      "type": "function"
    },
    {
      "inputs": [
        {
          "internalType": "uint256",
          "name": "_GENPerTimeUnit",
          "type": "uint256"
        }
      ],
      "name": "setGENPerTimeUnit",
      "outputs": [],
      "stateMutability": "nonpayable",
      "type": "function"
    },
    {
      "inputs": [
        {
          "internalType": "uint8",
          "name": "_maxNumOfRoundsToProcessInBatch",
          "type": "uint8"
        }
      ],
      "name": "setMaxNumOfRoundsToProcessInBatch",
      "outputs": [],
      "stateMutability": "nonpayable",
      "type": "function"
    },
    {
      "inputs": [
        {
          "internalType": "bytes32",
          "name": "_txId",
          "type": "bytes32"
        },
        {
          "components": [
            {
              "internalType": "uint256",
              "name": "leaderTimeoutFee",
              "type": "uint256"
            },
            {
              "internalType": "uint256",
              "name": "validatorsTimeoutFee",
              "type": "uint256"
            },
            {
              "internalType": "uint256",
              "name": "appealRounds",
              "type": "uint256"
            },
            {
              "internalType": "uint256",
              "name": "rollupStorageFee",
              "type": "uint256"
            },
            {
              "internalType": "uint256",
              "name": "rollupGenVMFee",
              "type": "uint256"
            },
            {
              "internalType": "uint256",
              "name": "totalMessageFees",
              "type": "uint256"
            },
            {
              "internalType": "uint256[]",
              "name": "rotations",
              "type": "uint256[]"
            }
          ],
          "internalType": "struct IFeeManager.FeesDistribution",
          "name": "_feesDistribution",
          "type": "tuple"
        },
        {
          "internalType": "uint256",
          "name": "_amount",
          "type": "uint256"
        },
        {
          "internalType": "address",
          "name": "_appealer",
          "type": "address"
        },
        {
          "internalType": "bool",
          "name": "_performFeeChecks",
          "type": "bool"
        },
        {
          "internalType": "bool",
          "name": "_lastRoundLeaderTimeout",
          "type": "bool"
        }
      ],
      "name": "topUpAndSubmitAppeal",
      "outputs": [
        {
          "internalType": "bool",
          "name": "feesForNewRoundApproved",
          "type": "bool"
        }
      ],
      "stateMutability": "nonpayable",
      "type": "function"
    },
    {
      "inputs": [
        {
          "internalType": "bytes32",
          "name": "_txId",
          "type": "bytes32"
        },
        {
          "components": [
            {
              "internalType": "uint256",
              "name": "leaderTimeoutFee",
              "type": "uint256"
            },
            {
              "internalType": "uint256",
              "name": "validatorsTimeoutFee",
              "type": "uint256"
            },
            {
              "internalType": "uint256",
              "name": "appealRounds",
              "type": "uint256"
            },
            {
              "internalType": "uint256",
              "name": "rollupStorageFee",
              "type": "uint256"
            },
            {
              "internalType": "uint256",
              "name": "rollupGenVMFee",
              "type": "uint256"
            },
            {
              "internalType": "uint256",
              "name": "totalMessageFees",
              "type": "uint256"
            },
            {
              "internalType": "uint256[]",
              "name": "rotations",
              "type": "uint256[]"
            }
          ],
          "internalType": "struct IFeeManager.FeesDistribution",
          "name": "_feesDistribution",
          "type": "tuple"
        },
        {
          "internalType": "uint256",
          "name": "_amount",
          "type": "uint256"
        },
        {
          "internalType": "bool",
          "name": "_performFeeChecks",
          "type": "bool"
        },
        {
          "internalType": "address",
          "name": "_sender",
          "type": "address"
        }
      ],
      "name": "topUpFees",
      "outputs": [],
      "stateMutability": "nonpayable",
      "type": "function"
    },
    {
      "inputs": [
        {
          "internalType": "bytes32",
          "name": "txId",
          "type": "bytes32"
        }
      ],
      "name": "transactionFeesBudget",
      "outputs": [
        {
          "internalType": "uint256",
          "name": "",
          "type": "uint256"
        }
      ],
      "stateMutability": "view",
      "type": "function"
    },
    {
      "inputs": [
        {
          "internalType": "bytes32",
          "name": "txId",
          "type": "bytes32"
        }
      ],
      "name": "transactionFeesConsumed",
      "outputs": [
        {
          "internalType": "uint256",
          "name": "",
          "type": "uint256"
        }
      ],
      "stateMutability": "view",
      "type": "function"
    },
    {
      "inputs": [
        {
          "internalType": "address",
          "name": "newOwner",
          "type": "address"
        }
      ],
      "name": "transferOwnership",
      "outputs": [],
      "stateMutability": "nonpayable",
      "type": "function"
    }
  ],
  "bytecode": "0x60808060405234601557611ef2908161001b8239f35b600080fdfe6080604052600436101561001257600080fd5b6000803560e01c80630415cc15146111e7578063203c28b3146111bd5780632367190d14610b2a57806335a2eb2c14610b0757806335ce269414610ac8578063397efa2414610a445780633dd304e1146109cd57806341d35582146109ac5780634269ef05146109885780634c7f0b8c1461095f5780634fe8920e1461091c57806357a0bfc0146108135780635a0fbbe5146107e95780635b3c669b146107765780635c975abb146107345780636c0f79b6146106e7578063715018a614610666578063721261ba1461063c57806379ba5097146105eb5780638213362e146105895780638da5cb5b146105535780639e5001a314610529578063a76c02e0146104fb578063be1d684e1461042c578063c1684f1d146103f9578063d38f5c3514610319578063e30c3978146102e3578063ed94cf2b146102ab578063eeb5f1be1461028d578063f2538c22146102045763f2fde38b1461017257600080fd5b34610201576020366003190112610201576004356001600160a01b038116908190036101ff576101a061194c565b600080516020611e9d83398151915280546001600160a01b03191682179055600080516020611e5d833981519152546001600160a01b03167f38d16b8cac22d99fc7c124b9cd0de2d3fa1faef420bfe791d8c362d765e227008380a380f35b505b80fd5b50346102015760c0366003190112610201576024356001600160401b0381116101ff576102359036906004016115b8565b61023d6116c0565b9061024661168c565b9061024f61169b565b506002546001600160a01b0316330361027e576102739350604435906004356119bd565b602060405160018152f35b633637f14560e11b8452600484fd5b50346102015780600319360112610201576020600c54604051908152f35b50346102015760603660031901126102015760443590600f8210156102015760206102db83602435600435611858565b604051908152f35b5034610201578060031936011261020157600080516020611e9d833981519152546040516001600160a01b039091168152602090f35b5034610201576080366003190112610201576004356024356103396116c0565b6002549091906001600160a01b0316330361027e576103588184611d40565b1592836103ea576004548592916001600160a01b0390911690813b156103e65783608492604051968795869463d38f5c3560e01b865260048601526024850152604435604485015260018060a01b031660648401525af180156103db576103c6575b60208260405190158152f35b6103d18380926114cb565b6101ff57816103ba565b6040513d85823e3d90fd5b8380fd5b636ecc8d5960e01b8552600485fd5b503461020157602036600319011261020157602090600435815260098252604060018060a01b0391205416604051908152f35b50346102015760a0366003190112610201576104466116aa565b9061044f61168c565b6002546001600160a01b031633036104ec57600454919283926001600160a01b031691823b156104e75760a48492836040519586948593635f0eb42760e11b85526004356004860152602435602486015260018060a01b031660448501526064356064850152151560848401525af180156104dc576104cb5750f35b816104d5916114cb565b6102015780f35b6040513d84823e3d90fd5b505050fd5b633637f14560e11b8252600482fd5b503461020157602036600319011261020157602061051a600435611728565b90549060031b1c604051908152f35b50346102015760203660031901126102015760406020916004358152600783522054604051908152f35b5034610201578060031936011261020157600080516020611e5d833981519152546040516001600160a01b039091168152602090f35b503461020157602036600319011261020157604060c091600435815260066020522080549060018101549060028101546003820154906005600484015493015493604051958652602086015260408501526060840152608083015260a0820152f35b5034610201578060031936011261020157600080516020611e9d83398151915254336001600160a01b03909116036106295761062633611d7a565b80f35b63118cdaa760e01b815233600452602490fd5b50346102015760203660031901126102015760043590805482101561020157602061051a83611728565b503461020157806003193601126102015761067f61194c565b600080516020611e9d83398151915280546001600160a01b0319908116909155600080516020611e5d8339815191528054918216905581906001600160a01b03167f8be0079c531659141344cd1fd0a4f28419497f9722a3daafe3b4186f6b6457e08280a380f35b5034610201578060031936011261020157600254600354600454600554604080516001600160a01b0395861681529385166020850152918416918301919091529091166060820152608090f35b5034610201578060031936011261020157602060ff7fcd5ed15c6e187e77e9aee88184c21f4f2182ab5827cb3b7e07fbedcd63f0330054166040519015158152f35b5034610201576020366003190112610201576107d160406107e592606060c083516107a0816114b0565b838152836020820152838582015283838201528360808201528360a082015201526004358152600660205220611801565b6040519182916020835260208301906116d6565b0390f35b50346102015760203660031901126102015760406020916004358152600a83522054604051908152f35b50346102015760c036600319011261020157600435602435916108346116aa565b9261083d61167d565b926084359360058510156103e65760a4356006811015610918576002546001600160a01b03163303610909576108738484611d40565b9560018060a01b036004541692833b15610905579286959492869260c4956040519b8c98899763015e82ff60e61b89526004890152602488015260018060a01b0316604487015215156064860152608485015260a48401525af19283156108f8576020936108e8575b50506040519015158152f35b816108f2916114cb565b386108dc565b50604051903d90823e3d90fd5b8680fd5b633637f14560e11b8552600485fd5b8480fd5b503461020157606036600319011261020157600435906001600160401b0382116102015760206102db61095236600486016115b8565b6044359060243590611c87565b50346102015780600319360112610201576001546040516001600160a01b039091168152602090f35b5034610201578060031936011261020157602060ff600b5460081c16604051908152f35b5034610201578060031936011261020157602060ff600b5416604051908152f35b5034610201576106266109df366114ec565b6109e761194c565b8051600280546001600160a01b03199081166001600160a01b039384161790915560208301516003805483169184169190911790556040830151600480548316918416919091179055606090920151600580549093169116179055565b50346102015760a0366003190112610201576024356001600160401b0381116101ff57610a759036906004016115b8565b90610a7e61167d565b608435906001600160a01b0382168203610ac4576002546001600160a01b03163303610ab5576106269293604435906004356119bd565b633637f14560e11b8352600483fd5b8280fd5b50346102015760203660031901126102015760043560ff811681036101ff57610aef61194c565b61ff00600b549160081b169061ff00191617600b5580f35b503461020157602036600319011261020157610b2161194c565b600435600c5580f35b503461020157602036600319011261020157600435610b47611781565b6002549091906001600160a01b03163303610ab557600480546040516373cc6afb60e01b8152918201839052602090829060249082906001600160a01b03165afa9081156111b2578491611180575b508082855260066020526001604086200154918386526006602052604086205492869260ff600b5460081c1690818111611142575b505060a4604092938860018060a01b036005541685519788958694633cbf075960e01b86528b60048701526024860152886044860152606485015260848401525af1801561113757859286916110fe575b50838652600a6020528160408720556024602060018060a01b0360045416604051928380926373cc6afb60e01b82528960048301525afa9081156110b25787916110cc575b508214610cef575b505060408051602080825285516001600160a01b03168183015280860151828401529185015160806060830152805160a0830181905260c083019792969550920192505b818110610cd05784806107e5886060880151601f1984830301608085015261156d565b82516001600160a01b0316865260209586019590920191600101610cad565b8386526007602052604086205483116110bd57600554604051635b3f963560e01b81526004810186905260248101929092526001600160a01b0316908681604481855afa80156110b257610fa7575b508386526007602052604086205490838203918211610f9357610d5f611781565b50848752600960205260408720546001600160a01b03169280610e0b575050916020917f4549c5ea26b14cb8c12f098aff9e82b8085305128d3e8aae3dbb21b685ee83fe93839060405190610db483836114cb565b8982528936813760405192610dc981856114cb565b8a84528a36813760405194610ddd8661147f565b855284015260408301526060820152505b83865260088252806040872055604051908152a238808080610c69565b909190600181811603610f6d57905b610e2382611e16565b91610e2d81611e16565b93895b828110610e855750505091602093917f4549c5ea26b14cb8c12f098aff9e82b8085305128d3e8aae3dbb21b685ee83fe959360405193610e6f8561147f565b8452858401526040830152606082015250610dee565b60405190635bda466f60e01b8252896004830152806024830152604082604481865afa8015610f62578c90610ee4575b6020810151600193506001600160a01b0316610ed18389611e48565b5251610edd8289611e48565b5201610e30565b50906040813d8211610f5a575b81610efe604093836114cb565b81010312610f565760405190604082018281106001600160401b03821117610f425760206001949392610f38926040528051845201611938565b6020820152610eb5565b634e487b7160e01b8e52604160045260248efd5b8b80fd5b3d9150610ef1565b6040513d8e823e3d90fd5b6000198101908111610f7f5790610e1a565b634e487b7160e01b88526011600452602488fd5b634e487b7160e01b87526011600452602487fd5b3d8088833e610fb681836114cb565b8101906040818303126110925780516001600160401b03811161108e57810182601f8201121561108e578051602080610fee836115a1565b610ffb60405191826114cb565b838152019160051b830101918483116110ae57602001905b828210611096575050506020810151906001600160401b03821161108e570181601f820112156110925780519060208061104c846115a1565b61105960405191826114cb565b848152019260051b82010192831161108e57602001905b82821061107e575050610d3e565b8151815260209182019101611070565b8880fd5b8780fd5b602080916110a384611938565b815201910190611013565b8a80fd5b6040513d89823e3d90fd5b630c35bf6960e01b8652600486fd5b90506020813d6020116110f6575b816110e7602093836114cb565b81010312610905575138610c61565b3d91506110da565b9250506040823d60401161112f575b8161111a604093836114cb565b81010312610918576020825192015138610c1c565b3d915061110d565b6040513d87823e3d90fd5b868952600a6020526040808a20549550935060a4918161116282886117a7565b111561117057505b92610bcb565b61117b9150856117a7565b61116a565b90506020813d6020116111aa575b8161119b602093836114cb565b810103126103e6575138610b96565b3d915061118e565b6040513d86823e3d90fd5b50346102015760203660031901126102015760406020916004358152600883522054604051908152f35b5034610201576111f6366114ec565b600080516020611e7d833981519152549060ff8260401c1615916001600160401b03811680159081611477575b600114908161146d575b159081611464575b506114555767ffffffffffffffff198116600117600080516020611e7d8339815191525582611428575b50611268611de8565b611270611de8565b611278611de8565b33156114145761128b906109e733611d7a565b60405161024081018181106001600160401b03821117611400576040526005815260076020820152600b6040820152600d606082015260176080820152601960a0820152602f60c0820152603160e0820152605f610100820152606161012082015260bf61014082015260c161016082015261017f6101808201526101816101a08201526102ff6101c08201526103016101e08201526105ff610200820152610601610220820152825460128455806012106113d9575b508280526020832090835b601281106113c157505050601460ff19600b541617600b5561136c5780f35b60ff60401b19600080516020611e7d8339815191525416600080516020611e7d833981519152557fc7f505b2f371ae2175ee4913f4499e1f2633a7b5936321eed1cdaeb6115181d2602060405160018152a180f35b600190602061ffff845116930192818501550161134d565b83805260126020852091820191015b8181106113f55750611342565b8481556001016113e8565b634e487b7160e01b84526041600452602484fd5b631e4fbdf760e01b83526004839052602483fd5b68ffffffffffffffffff19166801000000000000000117600080516020611e7d833981519152553861125f565b63f92ee8a960e01b8452600484fd5b90501538611235565b303b15915061122d565b849150611223565b608081019081106001600160401b0382111761149a57604052565b634e487b7160e01b600052604160045260246000fd5b60e081019081106001600160401b0382111761149a57604052565b90601f801991011681019081106001600160401b0382111761149a57604052565b60809060031901126115685760405160006115068261147f565b6004356001600160a01b03811681036101ff5782526024356001600160a01b03811681036101ff5760208301526044356001600160a01b03811681036101ff576040830152606435906001600160a01b03821682036102015750606082015290565b600080fd5b906020808351928381520192019060005b81811061158b5750505090565b825184526020938401939092019160010161157e565b6001600160401b03811161149a5760051b60200190565b919060e083820312611568576040516115d0816114b0565b8093803582526020810135602083015260408101356040830152606081013560608301526080810135608083015260a081013560a083015260c0810135906001600160401b03821161156857019180601f84011215611568578235611634816115a1565b9361164260405195866114cb565b81855260208086019260051b82010192831161156857602001905b82821061166d5750505060c00152565b813581526020918201910161165d565b60643590811515820361156857565b60843590811515820361156857565b60a43590811515820361156857565b604435906001600160a01b038216820361156857565b606435906001600160a01b038216820361156857565b9060e060c061172593805184526020810151602085015260408101516040850152606081015160608501526080810151608085015260a081015160a08501520151918160c0820152019061156d565b90565b600054811015611742576000805260206000200190600090565b634e487b7160e01b600052603260045260246000fd5b8181029291811591840414171561176b57565b634e487b7160e01b600052601160045260246000fd5b6040519061178e8261147f565b6060808360008152600060208201528160408201520152565b9190820180921161176b57565b906040519182815491828252602082019060005260206000209260005b8181106117e85750506117e6925003836114cb565b565b84548352600194850194879450602090930192016117d1565b9060405161180e816114b0565b60c0611853600683958054855260018101546020860152600281015460408601526003810154606086015260048101546080860152600581015460a0860152016117b4565b910152565b60009392600f8110158061191557600d8214801561192b575b156118b75750509091925060005260066020526040600020906002810180911161176b57611725916118b26118a583611728565b90549060031b1c91611801565b611c87565b61191557600c811490811561190a575b506118d0575050565b909192506001820180921161176b576118eb61172592611728565b90549060031b1c90600052600660205260016040600020015490611758565b6005915014386118c7565b634e487b7160e01b600052602160045260246000fd5b5050600060068214611871565b51906001600160a01b038216820361156857565b600080516020611e5d833981519152546001600160a01b0316330361196d57565b63118cdaa760e01b6000523360045260246000fd5b60206000549182815201906000805260206000209060005b8181106119a75750505090565b825484526020909301926001928301920161199a565b9392949194611bc4575b83600052600660205260c060066040600020835181556020840151600182015560408401516119fb600283019182546117a7565b90556060840151611a11600383019182546117a7565b90556080840151611a27600483019182546117a7565b905560a0840151611a3d600583019182546117a7565b90550191015191611a4d826117b4565b93611a63611a5e86518651906117a7565b611e16565b9560005b8651811015611a8f5780611a7d60019289611e48565b51611a88828b611e48565b5201611a67565b5090919295939660005b8851811015611acb5780611aaf6001928b611e48565b51611ac4611abe838b516117a7565b89611e48565b5201611a99565b50939296509350938151916001600160401b03831161149a57600160401b831161149a578154838355808410611b9b575b5060200190600052602060002060005b838110611b87575050505060207f67d0e404ded3c02d8c1ecf6234395f5e13d3687137ad025e08d1f9480ca2e98f9183600052600782526040600020611b538282546117a7565b905560008481526009835260409081902080546001600160a01b0319166001600160a01b03909716968717905551908152a3565b600190602084519401938184015501611b0c565b8260005283602060002091820191015b818110611bb85750611afc565b60008155600101611bab565b600354604051631837854360e11b8152608060048201529060209082906001600160a01b03168180611c1a611bfc60848301896116d6565b8c602484015260006044840152600319838203016064840152611982565b03915afa8015611c7b578691600091611c46575b5011156119c757630c35bf6960e01b60005260046000fd5b9150506020813d602011611c73575b81611c62602093836114cb565b810103126115685785905138611c2e565b3d9150611c55565b6040513d6000823e3d90fd5b916020919392611cc460018060a01b036003541691611ce060405197889586948594631837854360e11b86526080600487015260848601906116d6565b9160248501526044840152600319838203016064840152611982565b03915afa918215611c7b57600092611d0c575b50600c548281611d01575050565b611725929350611758565b90916020823d602011611d38575b81611d27602093836114cb565b810103126102015750519038611cf3565b3d9150611d1a565b90611d4f9060018116906117a7565b906000526006602052600260406000200154908160011b918083046002149015171561176b57111590565b600080516020611e9d83398151915280546001600160a01b0319908116909155600080516020611e5d83398151915280549182166001600160a01b0393841690811790915591167f8be0079c531659141344cd1fd0a4f28419497f9722a3daafe3b4186f6b6457e0600080a3565b60ff600080516020611e7d8339815191525460401c1615611e0557565b631afcd79f60e31b60005260046000fd5b90611e20826115a1565b611e2d60405191826114cb565b8281528092611e3e601f19916115a1565b0190602036910137565b80518210156117425760209160051b01019056fe9016d09d72d40fdae2fd8ceac6b6234c7706214fd39c1cd1e609a0528c199300f0c57e16840df040f15088dc2f81fe391c3923bec73e23a9662efc9c229c6a00237e158222e3e6968b72b9db0d8043aacf074ad9f650f0d1606b4d82ee432c00a2646970667358221220bc146e9a3e7543081a0ecf21e27ed677a00baa14e90da5b829a691d3170fd2db64736f6c634300081c0033",
  "linkReferences": {},
  "deployedLinkReferences": {}
}