{
  "_format": "hh-sol-artifact-1",
  "contractName": "ValidatorWallet",
  "sourceName": "contracts/ValidatorWallet.sol",
  "abi": [
    {
      "inputs": [
        {
          "internalType": "address",
          "name": "_owner",
          "type": "address"
        },
        {
          "internalType": "address",
          "name": "_staking",
          "type": "address"
        },
        {
          "internalType": "address",
          "name": "_consensus",
          "type": "address"
        }
      ],
      "stateMutability": "nonpayable",
      "type": "constructor"
    },
    {
      "inputs": [],
      "name": "AccessControlBadConfirmation",
      "type": "error"
    },
    {
      "inputs": [
        {
          "internalType": "address",
          "name": "account",
          "type": "address"
        },
        {
          "internalType": "bytes32",
          "name": "neededRole",
          "type": "bytes32"
        }
      ],
      "name": "AccessControlUnauthorizedAccount",
      "type": "error"
    },
    {
      "inputs": [],
      "name": "InvalidInitialization",
      "type": "error"
    },
    {
      "inputs": [],
      "name": "NotInitializing",
      "type": "error"
    },
    {
      "inputs": [],
      "name": "NotOperator",
      "type": "error"
    },
    {
      "inputs": [
        {
          "internalType": "address",
          "name": "owner",
          "type": "address"
        }
      ],
      "name": "OwnableInvalidOwner",
      "type": "error"
    },
    {
      "inputs": [
        {
          "internalType": "address",
          "name": "account",
          "type": "address"
        }
      ],
      "name": "OwnableUnauthorizedAccount",
      "type": "error"
    },
    {
      "inputs": [],
      "name": "ReentrancyGuardReentrantCall",
      "type": "error"
    },
    {
      "anonymous": false,
      "inputs": [
        {
          "indexed": false,
          "internalType": "uint64",
          "name": "version",
          "type": "uint64"
        }
      ],
      "name": "Initialized",
      "type": "event"
    },
    {
      "anonymous": false,
      "inputs": [
        {
          "indexed": true,
          "internalType": "address",
          "name": "previousOwner",
          "type": "address"
        },
        {
          "indexed": true,
          "internalType": "address",
          "name": "newOwner",
          "type": "address"
        }
      ],
      "name": "OwnershipTransferStarted",
      "type": "event"
    },
    {
      "anonymous": false,
      "inputs": [
        {
          "indexed": true,
          "internalType": "address",
          "name": "previousOwner",
          "type": "address"
        },
        {
          "indexed": true,
          "internalType": "address",
          "name": "newOwner",
          "type": "address"
        }
      ],
      "name": "OwnershipTransferred",
      "type": "event"
    },
    {
      "anonymous": false,
      "inputs": [
        {
          "indexed": true,
          "internalType": "bytes32",
          "name": "role",
          "type": "bytes32"
        },
        {
          "indexed": true,
          "internalType": "bytes32",
          "name": "previousAdminRole",
          "type": "bytes32"
        },
        {
          "indexed": true,
          "internalType": "bytes32",
          "name": "newAdminRole",
          "type": "bytes32"
        }
      ],
      "name": "RoleAdminChanged",
      "type": "event"
    },
    {
      "anonymous": false,
      "inputs": [
        {
          "indexed": true,
          "internalType": "bytes32",
          "name": "role",
          "type": "bytes32"
        },
        {
          "indexed": true,
          "internalType": "address",
          "name": "account",
          "type": "address"
        },
        {
          "indexed": true,
          "internalType": "address",
          "name": "sender",
          "type": "address"
        }
      ],
      "name": "RoleGranted",
      "type": "event"
    },
    {
      "anonymous": false,
      "inputs": [
        {
          "indexed": true,
          "internalType": "bytes32",
          "name": "role",
          "type": "bytes32"
        },
        {
          "indexed": true,
          "internalType": "address",
          "name": "account",
          "type": "address"
        },
        {
          "indexed": true,
          "internalType": "address",
          "name": "sender",
          "type": "address"
        }
      ],
      "name": "RoleRevoked",
      "type": "event"
    },
    {
      "anonymous": false,
      "inputs": [
        {
          "indexed": true,
          "internalType": "address",
          "name": "validator",
          "type": "address"
        }
      ],
      "name": "ValidatorIdentitySet",
      "type": "event"
    },
    {
      "stateMutability": "payable",
      "type": "fallback"
    },
    {
      "inputs": [],
      "name": "DEFAULT_ADMIN_ROLE",
      "outputs": [
        {
          "internalType": "bytes32",
          "name": "",
          "type": "bytes32"
        }
      ],
      "stateMutability": "view",
      "type": "function"
    },
    {
      "inputs": [],
      "name": "acceptOwnership",
      "outputs": [],
      "stateMutability": "nonpayable",
      "type": "function"
    },
    {
      "inputs": [
        {
          "internalType": "bytes32",
          "name": "_txId",
          "type": "bytes32"
        },
        {
          "internalType": "bytes",
          "name": "_vrfProof",
          "type": "bytes"
        }
      ],
      "name": "activateTransaction",
      "outputs": [],
      "stateMutability": "nonpayable",
      "type": "function"
    },
    {
      "inputs": [
        {
          "internalType": "bytes32",
          "name": "_txId",
          "type": "bytes32"
        },
        {
          "internalType": "uint256",
          "name": "_tribunalIndex",
          "type": "uint256"
        },
        {
          "internalType": "bytes32",
          "name": "_commitHash",
          "type": "bytes32"
        }
      ],
      "name": "commitTribunalAppealVote",
      "outputs": [],
      "stateMutability": "nonpayable",
      "type": "function"
    },
    {
      "inputs": [
        {
          "internalType": "bytes32",
          "name": "_txId",
          "type": "bytes32"
        },
        {
          "internalType": "bytes32",
          "name": "_commitHash",
          "type": "bytes32"
        },
        {
          "internalType": "uint256",
          "name": "_validatorIndex",
          "type": "uint256"
        }
      ],
      "name": "commitVote",
      "outputs": [],
      "stateMutability": "nonpayable",
      "type": "function"
    },
    {
      "inputs": [],
      "name": "consensus",
      "outputs": [
        {
          "internalType": "contract IConsensusMain",
          "name": "",
          "type": "address"
        }
      ],
      "stateMutability": "view",
      "type": "function"
    },
    {
      "inputs": [],
      "name": "consensusWithFees",
      "outputs": [
        {
          "internalType": "contract IConsensusMainWithFees",
          "name": "",
          "type": "address"
        }
      ],
      "stateMutability": "view",
      "type": "function"
    },
    {
      "inputs": [],
      "name": "getIdentity",
      "outputs": [
        {
          "components": [
            {
              "internalType": "string",
              "name": "moniker",
              "type": "string"
            },
            {
              "internalType": "string",
              "name": "logoUri",
              "type": "string"
            },
            {
              "internalType": "string",
              "name": "website",
              "type": "string"
            },
            {
              "internalType": "string",
              "name": "description",
              "type": "string"
            },
            {
              "internalType": "string",
              "name": "email",
              "type": "string"
            },
            {
              "internalType": "string",
              "name": "twitter",
              "type": "string"
            },
            {
              "internalType": "string",
              "name": "telegram",
              "type": "string"
            },
            {
              "internalType": "string",
              "name": "github",
              "type": "string"
            },
            {
              "internalType": "bytes",
              "name": "extraCid",
              "type": "bytes"
            }
          ],
          "internalType": "struct ValidatorIdentity",
          "name": "",
          "type": "tuple"
        }
      ],
      "stateMutability": "view",
      "type": "function"
    },
    {
      "inputs": [],
      "name": "getOperator",
      "outputs": [
        {
          "internalType": "address",
          "name": "",
          "type": "address"
        }
      ],
      "stateMutability": "view",
      "type": "function"
    },
    {
      "inputs": [
        {
          "internalType": "bytes32",
          "name": "role",
          "type": "bytes32"
        }
      ],
      "name": "getRoleAdmin",
      "outputs": [
        {
          "internalType": "bytes32",
          "name": "",
          "type": "bytes32"
        }
      ],
      "stateMutability": "view",
      "type": "function"
    },
    {
      "inputs": [
        {
          "internalType": "bytes32",
          "name": "role",
          "type": "bytes32"
        },
        {
          "internalType": "address",
          "name": "account",
          "type": "address"
        }
      ],
      "name": "grantRole",
      "outputs": [],
      "stateMutability": "nonpayable",
      "type": "function"
    },
    {
      "inputs": [
        {
          "internalType": "bytes32",
          "name": "role",
          "type": "bytes32"
        },
        {
          "internalType": "address",
          "name": "account",
          "type": "address"
        }
      ],
      "name": "hasRole",
      "outputs": [
        {
          "internalType": "bool",
          "name": "",
          "type": "bool"
        }
      ],
      "stateMutability": "view",
      "type": "function"
    },
    {
      "inputs": [],
      "name": "identity",
      "outputs": [
        {
          "internalType": "string",
          "name": "moniker",
          "type": "string"
        },
        {
          "internalType": "string",
          "name": "logoUri",
          "type": "string"
        },
        {
          "internalType": "string",
          "name": "website",
          "type": "string"
        },
        {
          "internalType": "string",
          "name": "description",
          "type": "string"
        },
        {
          "internalType": "string",
          "name": "email",
          "type": "string"
        },
        {
          "internalType": "string",
          "name": "twitter",
          "type": "string"
        },
        {
          "internalType": "string",
          "name": "telegram",
          "type": "string"
        },
        {
          "internalType": "string",
          "name": "github",
          "type": "string"
        },
        {
          "internalType": "bytes",
          "name": "extraCid",
          "type": "bytes"
        }
      ],
      "stateMutability": "view",
      "type": "function"
    },
    {
      "inputs": [
        {
          "components": [
            {
              "internalType": "bytes32",
              "name": "txId",
              "type": "bytes32"
            },
            {
              "internalType": "uint256",
              "name": "saltAsAValidator",
              "type": "uint256"
            },
            {
              "internalType": "bytes32",
              "name": "txExecutionHash",
              "type": "bytes32"
            },
            {
              "internalType": "bytes32",
              "name": "messagesAndOtherFieldsHash",
              "type": "bytes32"
            },
            {
              "internalType": "bytes32",
              "name": "otherExecutionFieldsHash",
              "type": "bytes32"
            },
            {
              "internalType": "enum ITransactions.VoteType",
              "name": "resultValue",
              "type": "uint8"
            },
            {
              "components": [
                {
                  "internalType": "enum IMessages.MessageType",
                  "name": "messageType",
                  "type": "uint8"
                },
                {
                  "internalType": "address",
                  "name": "recipient",
                  "type": "address"
                },
                {
                  "internalType": "uint256",
                  "name": "value",
                  "type": "uint256"
                },
                {
                  "internalType": "bytes",
                  "name": "data",
                  "type": "bytes"
                },
                {
                  "internalType": "bool",
                  "name": "onAcceptance",
                  "type": "bool"
                },
                {
                  "internalType": "uint256",
                  "name": "saltNonce",
                  "type": "uint256"
                }
              ],
              "internalType": "struct IMessages.SubmittedMessage[]",
              "name": "messages",
              "type": "tuple[]"
            }
          ],
          "internalType": "struct IConsensusMain.LeaderRevealVoteParams",
          "name": "_leaderRevealVoteParams",
          "type": "tuple"
        }
      ],
      "name": "leaderRevealVote",
      "outputs": [],
      "stateMutability": "nonpayable",
      "type": "function"
    },
    {
      "inputs": [],
      "name": "operator",
      "outputs": [
        {
          "internalType": "address",
          "name": "",
          "type": "address"
        }
      ],
      "stateMutability": "view",
      "type": "function"
    },
    {
      "inputs": [],
      "name": "owner",
      "outputs": [
        {
          "internalType": "address",
          "name": "",
          "type": "address"
        }
      ],
      "stateMutability": "view",
      "type": "function"
    },
    {
      "inputs": [],
      "name": "pendingOwner",
      "outputs": [
        {
          "internalType": "address",
          "name": "",
          "type": "address"
        }
      ],
      "stateMutability": "view",
      "type": "function"
    },
    {
      "inputs": [
        {
          "internalType": "bytes32",
          "name": "_txId",
          "type": "bytes32"
        },
        {
          "internalType": "bytes32",
          "name": "_txExecutionHash",
          "type": "bytes32"
        },
        {
          "internalType": "uint256",
          "name": "_processingBlock",
          "type": "uint256"
        },
        {
          "internalType": "bytes",
          "name": "_eqBlocksOutputs",
          "type": "bytes"
        },
        {
          "internalType": "bytes",
          "name": "_vrfProof",
          "type": "bytes"
        }
      ],
      "name": "proposeReceipt",
      "outputs": [],
      "stateMutability": "nonpayable",
      "type": "function"
    },
    {
      "inputs": [
        {
          "internalType": "bytes32",
          "name": "_txId",
          "type": "bytes32"
        },
        {
          "internalType": "bytes32",
          "name": "_txExecutionHash",
          "type": "bytes32"
        },
        {
          "internalType": "uint256",
          "name": "_processingBlock",
          "type": "uint256"
        },
        {
          "internalType": "uint256",
          "name": "_storageFeeUsed",
          "type": "uint256"
        },
        {
          "internalType": "bytes",
          "name": "_eqBlocksOutputs",
          "type": "bytes"
        },
        {
          "internalType": "bytes",
          "name": "_vrfProof",
          "type": "bytes"
        }
      ],
      "name": "proposeReceiptWithFees",
      "outputs": [],
      "stateMutability": "nonpayable",
      "type": "function"
    },
    {
      "inputs": [],
      "name": "renounceOwnership",
      "outputs": [],
      "stateMutability": "nonpayable",
      "type": "function"
    },
    {
      "inputs": [
        {
          "internalType": "bytes32",
          "name": "role",
          "type": "bytes32"
        },
        {
          "internalType": "address",
          "name": "callerConfirmation",
          "type": "address"
        }
      ],
      "name": "renounceRole",
      "outputs": [],
      "stateMutability": "nonpayable",
      "type": "function"
    },
    {
      "inputs": [
        {
          "internalType": "bytes32",
          "name": "_txId",
          "type": "bytes32"
        },
        {
          "internalType": "uint256",
          "name": "_tribunalIndex",
          "type": "uint256"
        },
        {
          "internalType": "bytes32",
          "name": "_voteHash",
          "type": "bytes32"
        },
        {
          "internalType": "enum ITransactions.VoteType",
          "name": "_voteType",
          "type": "uint8"
        },
        {
          "internalType": "bytes32",
          "name": "_otherExecutionFieldsHash",
          "type": "bytes32"
        },
        {
          "internalType": "uint256",
          "name": "_nonce",
          "type": "uint256"
        }
      ],
      "name": "revealTribunalAppealVote",
      "outputs": [],
      "stateMutability": "nonpayable",
      "type": "function"
    },
    {
      "inputs": [
        {
          "internalType": "bytes32",
          "name": "_txId",
          "type": "bytes32"
        },
        {
          "internalType": "bytes32",
          "name": "_voteHash",
          "type": "bytes32"
        },
        {
          "internalType": "enum ITransactions.VoteType",
          "name": "_voteType",
          "type": "uint8"
        },
        {
          "internalType": "bytes32",
          "name": "_otherExecutionFieldsHash",
          "type": "bytes32"
        },
        {
          "internalType": "uint256",
          "name": "_nonce",
          "type": "uint256"
        },
        {
          "internalType": "uint256",
          "name": "_validatorIndex",
          "type": "uint256"
        }
      ],
      "name": "revealVote",
      "outputs": [],
      "stateMutability": "nonpayable",
      "type": "function"
    },
    {
      "inputs": [
        {
          "internalType": "bytes32",
          "name": "role",
          "type": "bytes32"
        },
        {
          "internalType": "address",
          "name": "account",
          "type": "address"
        }
      ],
      "name": "revokeRole",
      "outputs": [],
      "stateMutability": "nonpayable",
      "type": "function"
    },
    {
      "inputs": [
        {
          "internalType": "address",
          "name": "_consensus",
          "type": "address"
        },
        {
          "internalType": "address",
          "name": "_consensusWithFees",
          "type": "address"
        },
        {
          "internalType": "address",
          "name": "_staking",
          "type": "address"
        }
      ],
      "name": "setExternalAddresses",
      "outputs": [],
      "stateMutability": "nonpayable",
      "type": "function"
    },
    {
      "inputs": [
        {
          "internalType": "string",
          "name": "moniker",
          "type": "string"
        },
        {
          "internalType": "string",
          "name": "logoUri",
          "type": "string"
        },
        {
          "internalType": "string",
          "name": "website",
          "type": "string"
        },
        {
          "internalType": "string",
          "name": "description",
          "type": "string"
        },
        {
          "internalType": "string",
          "name": "email",
          "type": "string"
        },
        {
          "internalType": "string",
          "name": "twitter",
          "type": "string"
        },
        {
          "internalType": "string",
          "name": "telegram",
          "type": "string"
        },
        {
          "internalType": "string",
          "name": "github",
          "type": "string"
        },
        {
          "internalType": "bytes",
          "name": "extraCid",
          "type": "bytes"
        }
      ],
      "name": "setIdentity",
      "outputs": [],
      "stateMutability": "nonpayable",
      "type": "function"
    },
    {
      "inputs": [
        {
          "internalType": "address",
          "name": "_operator",
          "type": "address"
        }
      ],
      "name": "setOperator",
      "outputs": [],
      "stateMutability": "nonpayable",
      "type": "function"
    },
    {
      "inputs": [],
      "name": "staking",
      "outputs": [
        {
          "internalType": "contract IGenLayerStaking",
          "name": "",
          "type": "address"
        }
      ],
      "stateMutability": "view",
      "type": "function"
    },
    {
      "inputs": [
        {
          "internalType": "bytes4",
          "name": "interfaceId",
          "type": "bytes4"
        }
      ],
      "name": "supportsInterface",
      "outputs": [
        {
          "internalType": "bool",
          "name": "",
          "type": "bool"
        }
      ],
      "stateMutability": "view",
      "type": "function"
    },
    {
      "inputs": [
        {
          "internalType": "address",
          "name": "newOwner",
          "type": "address"
        }
      ],
      "name": "transferOwnership",
      "outputs": [],
      "stateMutability": "nonpayable",
      "type": "function"
    },
    {
      "inputs": [],
      "name": "validatorClaim",
      "outputs": [],
      "stateMutability": "nonpayable",
      "type": "function"
    },
    {
      "inputs": [],
      "name": "validatorDeposit",
      "outputs": [],
      "stateMutability": "payable",
      "type": "function"
    },
    {
      "inputs": [
        {
          "internalType": "uint256",
          "name": "_shares",
          "type": "uint256"
        }
      ],
      "name": "validatorExit",
      "outputs": [],
      "stateMutability": "nonpayable",
      "type": "function"
    },
    {
      "stateMutability": "payable",
      "type": "receive"
    }
  ],
  "bytecode": "0x6080346102a157601f612c5238819003918201601f19168301916001600160401b038311848410176102a6578084926060946040528339810103126102a157610047816102bc565b61005f6040610058602085016102bc565b93016102bc565b600080516020612c3283398151915254604081901c60ff161592906001600160401b03811680159081610299575b600114908161028f575b159081610286575b50610275576001600160401b03198116600117600080516020612c32833981519152558361024a575b506100d16102d0565b6100d96102d0565b6100e16102d0565b6100e96102d0565b6001600160a01b0316928315610234577f237e158222e3e6968b72b9db0d8043aacf074ad9f650f0d1606b4d82ee432c0080546001600160a01b03199081169091557f9016d09d72d40fdae2fd8ceac6b6234c7706214fd39c1cd1e609a0528c199300805491821686179055604051949081906001600160a01b03167f8be0079c531659141344cd1fd0a4f28419497f9722a3daafe3b4186f6b6457e0600080a3600080546001600160a01b03199081169290921790556002805482166001600160a01b0393841617905560018054909116929091169190911790556101d9575b60405161293390816102ff8239f35b60207fc7f505b2f371ae2175ee4913f4499e1f2633a7b5936321eed1cdaeb6115181d29168ff000000000000000019600080516020612c328339815191525416600080516020612c328339815191525560018152a1386101ca565b631e4fbdf760e01b600052600060045260246000fd5b6001600160481b0319166801000000000000000117600080516020612c3283398151915255386100c8565b63f92ee8a960e01b60005260046000fd5b9050153861009f565b303b159150610097565b85915061008d565b600080fd5b634e487b7160e01b600052604160045260246000fd5b51906001600160a01b03821682036102a157565b60ff600080516020612c328339815191525460401c16156102ed57565b631afcd79f60e31b60005260046000fdfe61012080604052600436101561001157005b600060c05260c0513560e01c90816301ffc9a714611f165750806303d1491714611bcc5780630a6c701b14611af0578063248a9ca314611aca5780632c159a1a146119ca5780632f2ff15d14611999578063352057941461191857806336568abe146118d057806336afc6fa146116f35780633bd15f701461164f5780634cf088d9146116255780634e70962814610a6c578063570ca73514610355578063715018a6146109e5578063759f24f4146109855780637707d838146108a057806379ba5097146107e357806385d2d274146107685780638da5cb5b146107315780638ef3f7611461070757806391d14854146106ab5780639e02760414610661578063a217fddf14610643578063aab85d641461059b578063b3ab15fb14610556578063cbc2440a146104b2578063cbfd846d14610488578063d4f6aa93146103f4578063d547741f146103b7578063e30c397814610380578063e7f43c6814610355578063f2fde38b146102c75763f402ef5e1461018b57005b346102a15760c03660031901126102a1576084356001600160401b0381116102a1576101bb90369060040161203f565b9060a4356001600160401b0381116102a1576101db90369060040161203f565b60c0515490939192906001600160a01b031633036102b457600c546001600160a01b031690813b156102a1576102599261026f6040519687958694859463034eb2e760e31b8652600435600487015260243560248701526044356044870152606435606487015233608487015260e060a487015260e486019161267b565b906003198483030160c485015260c0519761267b565b039160c051905af180156102a757610288575b60c05180f35b60c05161029491611f9b565b60c0516102a15738610282565b60c05180fd5b6040513d60c051823e3d90fd5b631f0853c160e21b60c05152600460c051fd5b346102a15760203660031901126102a1576102e0611fd7565b6102e86127c7565b6000805160206128de83398151915280546001600160a01b0319166001600160a01b0392831690811790915560008051602061289e8339815191525460c051919216907f38d16b8cac22d99fc7c124b9cd0de2d3fa1faef420bfe791d8c362d765e227009080a360c05180f35b346102a15760c0513660031901126102a15760c051546040516001600160a01b039091168152602090f35b346102a15760c0513660031901126102a1576000805160206128de833981519152546040516001600160a01b039091168152602090f35b346102a15760403660031901126102a1576103ed6004356103d6611fbc565b906103e86103e38261269c565b6126d4565b6127fd565b5060c05180f35b346102a15760603660031901126102a15760c051546001600160a01b031633036102b4576001546001600160a01b0316803b156102a1576040519063d4f6aa9360e01b82526004356004830152602435602483015260443560448301528160648160c0519360c051905af180156102a75761046f5760c05180f35b60c05161047b91611f9b565b60c0516102a15780610282565b346102a15760c0513660031901126102a157600c546040516001600160a01b039091168152602090f35b346102a15760c03660031901126102a15760643560058110156102a15760c051546001600160a01b031633036102b4576001546001600160a01b0316803b156102a157610528604051926365e1220560e11b84526004356004850152602435602485015260443560448501526064840190612658565b608435608483015260a43560a48301528160c48160c0519360c051905af180156102a75761046f5760c05180f35b346102a15760203660031901126102a15761056f611fd7565b6105776127c7565b60c05180546001600160a01b0319166001600160a01b039290921691909117815580f35b346102a15760403660031901126102a1576024356001600160401b0381116102a1576105cb90369060040161203f565b60c051546001600160a01b031633036102b4576001546001600160a01b031691823b156102a15761062b926040518080958194632958334360e21b835260043560048401523360248401526060604484015260c05196606484019161267b565b039160c051905af180156102a75761046f5760c05180f35b346102a15760c0513660031901126102a157602060405160c0518152f35b60c0513660031901126102a1576002546001600160a01b0316803b156102a157604051906327809d8160e21b82528160048160c0519334905af180156102a75761046f5760c05180f35b346102a15760403660031901126102a1576106c4611fbc565b60043560c051526000805160206128be833981519152602052604060c051209060018060a01b0316600052602052602060ff604060002054166040519015158152f35b346102a15760c0513660031901126102a1576001546040516001600160a01b039091168152602090f35b346102a15760c0513660031901126102a15760008051602061289e833981519152546040516001600160a01b039091168152602090f35b346102a15760603660031901126102a15760c051546001600160a01b031633036102b4576001546001600160a01b0316803b156102a15760405190632174b49d60e21b82526004356004830152602435602483015260443560448301528160648160c0519360c051905af180156102a75761046f5760c05180f35b346102a15760c0513660031901126102a1576000805160206128de83398151915254336001600160a01b0390911603610889576000805160206128de83398151915280546001600160a01b031990811690915560008051602061289e833981519152805433928116831790915560c0516001600160a01b03909116907f8be0079c531659141344cd1fd0a4f28419497f9722a3daafe3b4186f6b6457e09080a360c05180f35b63118cdaa760e01b60c0515233600452602460c051fd5b346102a15760c0513660031901126102a1576002546040516331b9e11160e01b815230600482015260c0519091602091839160249183916001600160a01b03165af19081156102a75760c05191610953575b5060c05160008051602061289e8339815191525490918291829182916001600160a01b03165af13d1561094e573d61092981611fed565b906109376040519283611f9b565b815260c0513d916020013e5b156102a15760c05180f35b610943565b90506020813d60201161097d575b8161096e60209383611f9b565b810103126102a15751816108f2565b3d9150610961565b346102a15760203660031901126102a15761099e6127c7565b6002546001600160a01b0316803b156102a15760405190631d67c93d60e21b825260043560048301528160248160c0519360c051905af180156102a75761046f5760c05180f35b346102a15760c0513660031901126102a1576109ff6127c7565b6000805160206128de83398151915280546001600160a01b031990811690915560008051602061289e8339815191528054918216905560c051906001600160a01b03167f8be0079c531659141344cd1fd0a4f28419497f9722a3daafe3b4186f6b6457e08280a360c05180f35b346102a1576101203660031901126102a1576004356001600160401b0381116102a157610a9d90369060040161203f565b9060e0526024356001600160401b0381116102a157610ac090369060040161203f565b90610100526044356001600160401b0381116102a157610ae490369060040161203f565b90926064356001600160401b0381116102a157610b0590369060040161203f565b6084356001600160401b0381116102a157610b2490369060040161203f565b91909360a4356001600160401b0381116102a157610b4690369060040161203f565b949060c4356001600160401b0381116102a157610b6790369060040161203f565b97909260e4356001600160401b0381116102a157610b8990369060040161203f565b6080529b610104356001600160401b0381116102a157610bad90369060040161203f565b9c9096610bb86127c7565b60405160a05260a051610bca90611f69565b3660e05191610bd892612008565b60a05152366101005191610beb92612008565b9a60a0516020019b8c523690610c0092612008565b9560a0516040019687523690610c1592612008565b9560a0516060019687523690610c2a92612008565b9560a0516080019687523690610c3f92612008565b9560a05160a0019687523690610c5492612008565b9760a05160c00198895236608051610c6b92612008565b9660a05160e0019788523690610c8092612008565b9460a0516101000195865260a051518051906001600160401b0382116110b557610cab60035461206c565b601f81116115f0575b506020906001601f84111461158457918091610ce89360c05192611579575b50508160011b916000199060031b1c19161790565b6003555b518051906001600160401b0382116110b557610d0960045461206c565b601f8111611544575b506020906001601f8411146114d857918091610d459360c051926114cd5750508160011b916000199060031b1c19161790565b6004555b518051906001600160401b0382116110b557610d6660055461206c565b601f8111611498575b506020906001601f84111461142c57918091610da29360c051926114215750508160011b916000199060031b1c19161790565b6005555b518051906001600160401b0382116110b557610dc360065461206c565b601f81116113ec575b506020906001601f84111461138057918091610dff9360c051926113755750508160011b916000199060031b1c19161790565b6006555b518051906001600160401b0382116110b557610e2060075461206c565b601f8111611340575b506020906001601f8411146112d457918091610e5c9360c051926112c95750508160011b916000199060031b1c19161790565b6007555b519283516001600160401b0381116110b557610e7d60085461206c565b601f8111611294575b506020946001601f83111461122a57610ebb92939495829160c0519261121f5750508160011b916000199060031b1c19161790565b6008555b519182516001600160401b0381116110b557610edc60095461206c565b601f81116111ea575b5060206001601f831114611180578190610f1893949560c051926111755750508160011b916000199060031b1c19161790565b6009555b519081516001600160401b0381116110b557610f39600a5461206c565b601f8111611140575b506020926001601f8311146110d857610f759293829160c051926110cd5750508160011b916000199060031b1c19161790565b600a555b5180516001600160401b0381116110b557610f95600b5461206c565b601f8111611075575b506020916001601f83111461100e57610fd092829160c051926110035750508160011b916000199060031b1c19161790565b600b555b307fb01ce3352db8250e910be1c254a1a9fc249b00caf0a25b5b72ca70592023867e60c05160c051a260c05180f35b015190508380610cd3565b601f19821692600b60c051528060c051209160c0515b85811061105d57508360019510611044575b505050811b01600b55610fd4565b015160001960f88460031b161c19169055828080611036565b91926020600181928685015181550194019201611024565b6110a590600b60c05152602060c05120601f840160051c810191602085106110ab575b601f0160051c01906126bd565b82610f9e565b9091508190611098565b634e487b7160e01b60c051526041600452602460c051fd5b015190508480610cd3565b601f19821693600a60c051528060c051209160c0515b868110611128575083600195961061110f575b505050811b01600a55610f79565b015160001960f88460031b161c19169055838080611101565b919260206001819286850151815501940192016110ee565b61116f90600a60c05152602060c05120601f840160051c810191602085106110ab57601f0160051c01906126bd565b83610f42565b015190508580610cd3565b601f19821690600960c051528060c051209160c0515b8181106111d2575095836001959697106111b9575b505050811b01600955610f1c565b015160001960f88460031b161c191690558480806111ab565b9192602060018192868b015181550194019201611196565b61121990600960c05152602060c05120601f840160051c810191602085106110ab57601f0160051c01906126bd565b84610ee5565b015190508680610cd3565b601f19821695600860c051528060c051209160c0515b88811061127c57508360019596979810611263575b505050811b01600855610ebf565b015160001960f88460031b161c19169055858080611255565b91926020600181928685015181550194019201611240565b6112c390600860c05152602060c05120601f840160051c810191602085106110ab57601f0160051c01906126bd565b85610e86565b015190508780610cd3565b90601f19831691600760c051528160c051209260c0515b818110611328575090846001959493921061130f575b505050811b01600755610e60565b015160001960f88460031b161c19169055868080611301565b929360206001819287860151815501950193016112eb565b61136f90600760c05152602060c05120601f850160051c810191602086106110ab57601f0160051c01906126bd565b86610e29565b015190508880610cd3565b90601f19831691600660c051528160c051209260c0515b8181106113d457509084600195949392106113bb575b505050811b01600655610e03565b015160001960f88460031b161c191690558780806113ad565b92936020600181928786015181550195019301611397565b61141b90600660c05152602060c05120601f850160051c810191602086106110ab57601f0160051c01906126bd565b87610dcc565b015190508980610cd3565b90601f19831691600560c051528160c051209260c0515b8181106114805750908460019594939210611467575b505050811b01600555610da6565b015160001960f88460031b161c19169055888080611459565b92936020600181928786015181550195019301611443565b6114c790600560c05152602060c05120601f850160051c810191602086106110ab57601f0160051c01906126bd565b88610d6f565b015190508a80610cd3565b90601f19831691600460c051528160c051209260c0515b81811061152c5750908460019594939210611513575b505050811b01600455610d49565b015160001960f88460031b161c19169055898080611505565b929360206001819287860151815501950193016114ef565b61157390600460c05152602060c05120601f850160051c810191602086106110ab57601f0160051c01906126bd565b89610d12565b015190508b80610cd3565b90601f19831691600360c051528160c051209260c0515b8181106115d857509084600195949392106115bf575b505050811b01600355610cec565b015160001960f88460031b161c191690558a80806115b1565b9293602060018192878601518155019501930161159b565b61161f90600360c05152602060c05120601f850160051c810191602086106110ab57601f0160051c01906126bd565b8a610cb4565b346102a15760c0513660031901126102a1576002546040516001600160a01b039091168152602090f35b346102a15760c03660031901126102a15760443560058110156102a15760c051546001600160a01b031633036102b4576001546001600160a01b0316803b156102a1576116bd604051926303bd15f760e41b8452600435600485015260243560248501526044840190612658565b6064356064830152608435608483015260a43560a48301528160c48160c0519360c051905af180156102a75761046f5760c05180f35b346102a15760c0513660031901126102a15760405161171181611f69565b60608152602081016060905260408101606090526060810160609052608081016060905260a081016060905260c081016060905260e0810160609052610100016060905260405161176181611f69565b6117696120a6565b815261177361215f565b90602081019182526117836121f6565b6040820190815261179261228d565b606083019081526117a1612324565b608084019081526117b06123bb565b60a085019081526117bf612452565b9160c086019283526117cf6124e9565b9360e087019485526117df612580565b95610100880196875260405198899860208a525160208a0161012090526101408a0161180a91612617565b9051898203601f190160408b01526118229190612617565b9051888203601f190160608a015261183a9190612617565b9051878203601f190160808901526118529190612617565b9051868203601f190160a088015261186a9190612617565b9051858203601f190160c08701526118829190612617565b9051848203601f190160e086015261189a9190612617565b9051838203601f19016101008501526118b39190612617565b9051828203601f19016101208401526118cc9190612617565b0390f35b346102a15760403660031901126102a1576118e9611fbc565b336001600160a01b03821603611905576103ed906004356127fd565b63334bd91960e11b60c05152600460c051fd5b346102a15760603660031901126102a157611931611fd7565b611939611fbc565b6044356001600160a01b03811692908390036102a1576119576127c7565b600180546001600160a01b03199081166001600160a01b0393841617909155600c80548216939092169290921790556002805490911691909117905560c05180f35b346102a15760403660031901126102a1576103ed6004356119b8611fbc565b906119c56103e38261269c565b61271e565b346102a15760c0513660031901126102a1576119e46120a6565b6119ec61215f565b906119f56121f6565b6119fd61228d565b611a05612324565b611a0d6123bb565b611a15612452565b91611a1e6124e9565b93611a27612580565b956040519889986101208a526101208a01611a4191612617565b89810360208b0152611a5291612617565b88810360408a0152611a6391612617565b8781036060890152611a7491612617565b8681036080880152611a8591612617565b85810360a0870152611a9691612617565b84810360c0860152611aa791612617565b83810360e0850152611ab891612617565b8281036101008401526118cc91612617565b346102a15760203660031901126102a1576020611ae860043561269c565b604051908152f35b346102a15760a03660031901126102a1576064356001600160401b0381116102a157611b2090369060040161203f565b906084356001600160401b0381116102a157611b4090369060040161203f565b60c0515490939192906001600160a01b031633036102b4576001546001600160a01b031690813b156102a157611bb69261062b60405196879586948594632af7cb7f60e01b865260043560048701526024356024870152604435604487015233606487015260c0608487015260c486019161267b565b906003198483030160a485015260c0519761267b565b346102a15760203660031901126102a1576004356001600160401b0381116102a15760e060031982360301126102a15760405160e081018181106001600160401b038211176110b5576040528160040135815260208101906024830135825260408101926044810135845260608201936064820135855260808301916084810135835260a48101359060058210156102a15760a0850191825260c4810135906001600160401b0382116102a1570192366023850112156102a1576004840135936001600160401b0385116110b5578460051b9060405195611cb06020840188611f9b565b865260208601918101602401903682116102a15760248101925b828410611e39575050505060c085810194855251546001600160a01b031633036102b4576001546001600160a01b031696873b156102a157611d4a93604051976303d1491760e01b8952602060048a01526101048901975160248a01525160448901525160648801525160848701525160a48601525160c4850190612658565b519060e060e48401528151809152610124830160206101248360051b86010193019160c0515b818110611da75760c05186908180880381838c5af180156102a757611d955760c05180f35b60c051611da191611f9b565b80610282565b909192936101231986820301845284519081516002811015611e21576001928260209392849352848060a01b038383015116838201526040820151604082015260a080611e03606085015160c0606086015260c0850190612617565b60808086015115159085015293015191015296019401929101611d70565b634e487b7160e01b60c051526021600452602460c051fd5b83356001600160401b0381116102a15760049083010160c0601f1982360301126102a1576040519160c083018381106001600160401b038211176110b557604052602082013560028110156102a157835260408201356001600160a01b03811681036102a15760208401526060820135604084015260808201356001600160401b0381116102a15760209083010136601f820112156102a157611ee3903690602081359101612008565b606084015260a08201359283151584036102a15760c06020949385946080840152013560a0820152815201930192611cca565b346102a15760203660031901126102a1576004359063ffffffff60e01b82168092036102a157602091637965db0b60e01b8114908115611f58575b5015158152f35b6301ffc9a760e01b14905083611f51565b61012081019081106001600160401b03821117611f8557604052565b634e487b7160e01b600052604160045260246000fd5b90601f801991011681019081106001600160401b03821117611f8557604052565b602435906001600160a01b0382168203611fd257565b600080fd5b600435906001600160a01b0382168203611fd257565b6001600160401b038111611f8557601f01601f191660200190565b92919261201482611fed565b916120226040519384611f9b565b829481845281830111611fd2578281602093846000960137010152565b9181601f84011215611fd2578235916001600160401b038311611fd25760208381860195010111611fd257565b90600182811c9216801561209c575b602083101461208657565b634e487b7160e01b600052602260045260246000fd5b91607f169161207b565b60405190600082600354916120ba8361206c565b808352926001811690811561214057506001146120e0575b6120de92500383611f9b565b565b506003600090815290917fc2575a0e9e593c00f959f8c92f12db2869c3395a3b0502d05e2516446f71f85b5b8183106121245750509060206120de928201016120d2565b602091935080600191548385890101520191019091849261210c565b602092506120de94915060ff191682840152151560051b8201016120d2565b60405190600082600454916121738361206c565b80835292600181169081156121405750600114612196576120de92500383611f9b565b506004600090815290917f8a35acfbc15ff81a39ae7d344fd709f28e8600b4aa8c65c6b64bfe7fe36bd19b5b8183106121da5750509060206120de928201016120d2565b60209193508060019154838589010152019101909184926121c2565b604051906000826005549161220a8361206c565b8083529260018116908115612140575060011461222d576120de92500383611f9b565b506005600090815290917f036b6384b5eca791c62761152d0c79bb0604c104a5fb6f4eb0703f3154bb3db05b8183106122715750509060206120de928201016120d2565b6020919350806001915483858901015201910190918492612259565b60405190600082600654916122a18361206c565b808352926001811690811561214057506001146122c4576120de92500383611f9b565b506006600090815290917ff652222313e28459528d920b65115c16c04f3efc82aaedc97be59f3f377c0d3f5b8183106123085750509060206120de928201016120d2565b60209193508060019154838589010152019101909184926122f0565b60405190600082600754916123388361206c565b8083529260018116908115612140575060011461235b576120de92500383611f9b565b506007600090815290917fa66cc928b5edb82af9bd49922954155ab7b0942694bea4ce44661d9a8736c6885b81831061239f5750509060206120de928201016120d2565b6020919350806001915483858901015201910190918492612387565b60405190600082600854916123cf8361206c565b808352926001811690811561214057506001146123f2576120de92500383611f9b565b506008600090815290917ff3f7a9fe364faab93b216da50a3214154f22a0a2b415b23a84c8169e8b636ee35b8183106124365750509060206120de928201016120d2565b602091935080600191548385890101520191019091849261241e565b60405190600082600954916124668361206c565b80835292600181169081156121405750600114612489576120de92500383611f9b565b506009600090815290917f6e1540171b6c0c960b71a7020d9f60077f6af931a8bbf590da0223dacf75c7af5b8183106124cd5750509060206120de928201016120d2565b60209193508060019154838589010152019101909184926124b5565b60405190600082600a54916124fd8361206c565b80835292600181169081156121405750600114612520576120de92500383611f9b565b50600a600090815290917fc65a7bb8d6351c1cf70c95a316cc6a92839c986682d98bc35f958f4883f9d2a85b8183106125645750509060206120de928201016120d2565b602091935080600191548385890101520191019091849261254c565b60405190600082600b54916125948361206c565b808352926001811690811561214057506001146125b7576120de92500383611f9b565b50600b600090815290917f0175b7a638427703f0dbe7bb9bbf987a2551717b34e79f33b5b1008d1fa01db95b8183106125fb5750509060206120de928201016120d2565b60209193508060019154838589010152019101909184926125e3565b919082519283825260005b848110612643575050826000602080949584010152601f8019910116010190565b80602080928401015182828601015201612622565b9060058210156126655752565b634e487b7160e01b600052602160045260246000fd5b908060209392818452848401376000828201840152601f01601f1916010190565b6000526000805160206128be83398151915260205260016040600020015490565b8181106126c8575050565b600081556001016126bd565b60008181526000805160206128be8339815191526020908152604080832033845290915290205460ff16156127065750565b63e2517d3f60e01b6000523360045260245260446000fd5b60008181526000805160206128be833981519152602090815260408083206001600160a01b038616845290915290205460ff166127c05760008181526000805160206128be833981519152602090815260408083206001600160a01b0395909516808452949091528120805460ff19166001179055339291907f2f8788117e7eff1d82e926ec794901d17c78024a50270940304540a733656f0d9080a4600190565b5050600090565b60008051602061289e833981519152546001600160a01b031633036127e857565b63118cdaa760e01b6000523360045260246000fd5b60008181526000805160206128be833981519152602090815260408083206001600160a01b038616845290915290205460ff16156127c05760008181526000805160206128be833981519152602090815260408083206001600160a01b0395909516808452949091528120805460ff19169055339291907ff6391f5c32d9c69d2a47ea670b442974b53935d1edc7fd64eb21e047a839171b9080a460019056fe9016d09d72d40fdae2fd8ceac6b6234c7706214fd39c1cd1e609a0528c19930002dd7bc7dec4dceedda775e58dd541e08a116c6c53815c0bd028192f7b626800237e158222e3e6968b72b9db0d8043aacf074ad9f650f0d1606b4d82ee432c00a264697066735822122064022bebff21eceab02d27cf8a839a75898f9b28778339e18d958954c68d34c964736f6c634300081c0033f0c57e16840df040f15088dc2f81fe391c3923bec73e23a9662efc9c229c6a00",
  "linkReferences": {},
  "deployedLinkReferences": {}
}