{
  "_format": "hh-sol-artifact-1",
  "contractName": "CreationPhase",
  "sourceName": "contracts/phases/CreationPhase.sol",
  "abi": [
    {
      "inputs": [],
      "stateMutability": "nonpayable",
      "type": "constructor"
    },
    {
      "inputs": [],
      "name": "CallerNotSender",
      "type": "error"
    },
    {
      "inputs": [],
      "name": "EmptyTransaction",
      "type": "error"
    },
    {
      "inputs": [],
      "name": "InvalidInitialization",
      "type": "error"
    },
    {
      "inputs": [],
      "name": "InvalidTransactionStatus",
      "type": "error"
    },
    {
      "inputs": [],
      "name": "MaxNumOfIterationsInPendingQueueReached",
      "type": "error"
    },
    {
      "inputs": [],
      "name": "NonGenVMContract",
      "type": "error"
    },
    {
      "inputs": [],
      "name": "NotInitializing",
      "type": "error"
    },
    {
      "inputs": [
        {
          "internalType": "address",
          "name": "owner",
          "type": "address"
        }
      ],
      "name": "OwnableInvalidOwner",
      "type": "error"
    },
    {
      "inputs": [
        {
          "internalType": "address",
          "name": "account",
          "type": "address"
        }
      ],
      "name": "OwnableUnauthorizedAccount",
      "type": "error"
    },
    {
      "inputs": [],
      "name": "ReentrancyGuardReentrantCall",
      "type": "error"
    },
    {
      "inputs": [],
      "name": "TransactionStillValid",
      "type": "error"
    },
    {
      "inputs": [],
      "name": "Unauthorized",
      "type": "error"
    },
    {
      "inputs": [],
      "name": "WrongRecomputationTransaction",
      "type": "error"
    },
    {
      "anonymous": false,
      "inputs": [
        {
          "indexed": true,
          "internalType": "address",
          "name": "caller",
          "type": "address"
        },
        {
          "indexed": false,
          "internalType": "bool",
          "name": "authorized",
          "type": "bool"
        }
      ],
      "name": "AuthorizedCallerUpdated",
      "type": "event"
    },
    {
      "anonymous": false,
      "inputs": [
        {
          "indexed": true,
          "internalType": "bytes32",
          "name": "txId",
          "type": "bytes32"
        },
        {
          "indexed": false,
          "internalType": "uint256",
          "name": "txSlot",
          "type": "uint256"
        }
      ],
      "name": "CreatedTransaction",
      "type": "event"
    },
    {
      "anonymous": false,
      "inputs": [
        {
          "indexed": true,
          "internalType": "address",
          "name": "ghost",
          "type": "address"
        }
      ],
      "name": "GhostContractRegistered",
      "type": "event"
    },
    {
      "anonymous": false,
      "inputs": [
        {
          "indexed": true,
          "internalType": "bytes32",
          "name": "newSeed",
          "type": "bytes32"
        }
      ],
      "name": "GlobalRandomSeedUpdated",
      "type": "event"
    },
    {
      "anonymous": false,
      "inputs": [
        {
          "indexed": false,
          "internalType": "uint64",
          "name": "version",
          "type": "uint64"
        }
      ],
      "name": "Initialized",
      "type": "event"
    },
    {
      "anonymous": false,
      "inputs": [
        {
          "indexed": true,
          "internalType": "bytes32",
          "name": "parentTxId",
          "type": "bytes32"
        },
        {
          "indexed": true,
          "internalType": "address",
          "name": "recipient",
          "type": "address"
        }
      ],
      "name": "InternalChildTxSkipped",
      "type": "event"
    },
    {
      "anonymous": false,
      "inputs": [
        {
          "indexed": true,
          "internalType": "bytes32",
          "name": "txId",
          "type": "bytes32"
        },
        {
          "indexed": true,
          "internalType": "address",
          "name": "recipient",
          "type": "address"
        },
        {
          "indexed": true,
          "internalType": "address",
          "name": "activator",
          "type": "address"
        }
      ],
      "name": "NewTransaction",
      "type": "event"
    },
    {
      "anonymous": false,
      "inputs": [
        {
          "indexed": true,
          "internalType": "bytes32",
          "name": "txId",
          "type": "bytes32"
        },
        {
          "indexed": true,
          "internalType": "address",
          "name": "recipient",
          "type": "address"
        },
        {
          "indexed": false,
          "internalType": "uint256",
          "name": "firstAnnouncedAt",
          "type": "uint256"
        }
      ],
      "name": "NewTransactionAlreadyAnnounced",
      "type": "event"
    },
    {
      "anonymous": false,
      "inputs": [
        {
          "indexed": true,
          "internalType": "bytes32",
          "name": "txId",
          "type": "bytes32"
        },
        {
          "indexed": true,
          "internalType": "address",
          "name": "activator",
          "type": "address"
        }
      ],
      "name": "NextTransactionToBeActivated",
      "type": "event"
    },
    {
      "anonymous": false,
      "inputs": [
        {
          "indexed": true,
          "internalType": "address",
          "name": "previousOwner",
          "type": "address"
        },
        {
          "indexed": true,
          "internalType": "address",
          "name": "newOwner",
          "type": "address"
        }
      ],
      "name": "OwnershipTransferStarted",
      "type": "event"
    },
    {
      "anonymous": false,
      "inputs": [
        {
          "indexed": true,
          "internalType": "address",
          "name": "previousOwner",
          "type": "address"
        },
        {
          "indexed": true,
          "internalType": "address",
          "name": "newOwner",
          "type": "address"
        }
      ],
      "name": "OwnershipTransferred",
      "type": "event"
    },
    {
      "anonymous": false,
      "inputs": [
        {
          "indexed": true,
          "internalType": "bytes32",
          "name": "txId",
          "type": "bytes32"
        },
        {
          "indexed": true,
          "internalType": "address",
          "name": "leader",
          "type": "address"
        }
      ],
      "name": "TransactionActivated",
      "type": "event"
    },
    {
      "anonymous": false,
      "inputs": [
        {
          "indexed": true,
          "internalType": "bytes32",
          "name": "txId",
          "type": "bytes32"
        },
        {
          "indexed": true,
          "internalType": "address",
          "name": "sender",
          "type": "address"
        }
      ],
      "name": "TransactionCancelled",
      "type": "event"
    },
    {
      "anonymous": false,
      "inputs": [
        {
          "indexed": true,
          "internalType": "bytes32",
          "name": "txId",
          "type": "bytes32"
        },
        {
          "indexed": true,
          "internalType": "address",
          "name": "recipient",
          "type": "address"
        },
        {
          "indexed": false,
          "internalType": "uint256",
          "name": "amount",
          "type": "uint256"
        }
      ],
      "name": "ValueWithdrawalFailed",
      "type": "event"
    },
    {
      "inputs": [],
      "name": "acceptOwnership",
      "outputs": [],
      "stateMutability": "nonpayable",
      "type": "function"
    },
    {
      "inputs": [],
      "name": "addressManager",
      "outputs": [
        {
          "internalType": "contract IAddressManager",
          "name": "",
          "type": "address"
        }
      ],
      "stateMutability": "view",
      "type": "function"
    },
    {
      "inputs": [
        {
          "internalType": "address",
          "name": "",
          "type": "address"
        }
      ],
      "name": "authorizedCallers",
      "outputs": [
        {
          "internalType": "bool",
          "name": "",
          "type": "bool"
        }
      ],
      "stateMutability": "view",
      "type": "function"
    },
    {
      "inputs": [
        {
          "internalType": "bytes32",
          "name": "txId",
          "type": "bytes32"
        },
        {
          "internalType": "address",
          "name": "sender",
          "type": "address"
        }
      ],
      "name": "cancelTransaction",
      "outputs": [
        {
          "components": [
            {
              "internalType": "address",
              "name": "recipient",
              "type": "address"
            },
            {
              "internalType": "uint256",
              "name": "refundedValue",
              "type": "uint256"
            },
            {
              "internalType": "bool",
              "name": "refundFailed",
              "type": "bool"
            }
          ],
          "internalType": "struct ICreationPhase.CancelTransactionResult",
          "name": "result",
          "type": "tuple"
        }
      ],
      "stateMutability": "nonpayable",
      "type": "function"
    },
    {
      "inputs": [
        {
          "internalType": "address",
          "name": "recipient",
          "type": "address"
        },
        {
          "internalType": "bytes32",
          "name": "currentTxId",
          "type": "bytes32"
        }
      ],
      "name": "checkForNewTransactions",
      "outputs": [
        {
          "components": [
            {
              "internalType": "bool",
              "name": "wasCancelled",
              "type": "bool"
            },
            {
              "internalType": "bytes32",
              "name": "cancelledTxId",
              "type": "bytes32"
            },
            {
              "internalType": "address",
              "name": "cancelledSender",
              "type": "address"
            },
            {
              "internalType": "uint256",
              "name": "refundedValue",
              "type": "uint256"
            },
            {
              "internalType": "bool",
              "name": "refundFailed",
              "type": "bool"
            },
            {
              "internalType": "bool",
              "name": "hasNextTransaction",
              "type": "bool"
            },
            {
              "internalType": "bool",
              "name": "isRecomputation",
              "type": "bool"
            },
            {
              "internalType": "bytes32",
              "name": "nextTxId",
              "type": "bytes32"
            },
            {
              "internalType": "address",
              "name": "recipient",
              "type": "address"
            },
            {
              "internalType": "address",
              "name": "activatorOrLeader",
              "type": "address"
            },
            {
              "internalType": "uint256",
              "name": "alreadyAnnouncedAt",
              "type": "uint256"
            }
          ],
          "internalType": "struct ICreationPhase.CheckForNewTransactionsResult",
          "name": "result",
          "type": "tuple"
        }
      ],
      "stateMutability": "nonpayable",
      "type": "function"
    },
    {
      "inputs": [
        {
          "internalType": "bytes32",
          "name": "txId",
          "type": "bytes32"
        }
      ],
      "name": "clearPendingValue",
      "outputs": [],
      "stateMutability": "nonpayable",
      "type": "function"
    },
    {
      "inputs": [
        {
          "components": [
            {
              "internalType": "address",
              "name": "sender",
              "type": "address"
            },
            {
              "internalType": "address",
              "name": "recipient",
              "type": "address"
            },
            {
              "internalType": "address",
              "name": "txOrigin",
              "type": "address"
            },
            {
              "internalType": "address",
              "name": "originalCaller",
              "type": "address"
            },
            {
              "internalType": "uint256",
              "name": "numOfInitialValidators",
              "type": "uint256"
            },
            {
              "internalType": "uint256",
              "name": "maxRotations",
              "type": "uint256"
            },
            {
              "internalType": "bytes",
              "name": "txCalldata",
              "type": "bytes"
            },
            {
              "internalType": "uint256",
              "name": "saltNonce",
              "type": "uint256"
            },
            {
              "internalType": "uint256",
              "name": "validUntil",
              "type": "uint256"
            },
            {
              "internalType": "uint256",
              "name": "value",
              "type": "uint256"
            },
            {
              "internalType": "bool",
              "name": "isInternalChildTx",
              "type": "bool"
            },
            {
              "internalType": "bytes32",
              "name": "parentTxId",
              "type": "bytes32"
            }
          ],
          "internalType": "struct ICreationPhase.CreateTransactionParams",
          "name": "params",
          "type": "tuple"
        }
      ],
      "name": "createTransaction",
      "outputs": [
        {
          "components": [
            {
              "internalType": "bytes32",
              "name": "txId",
              "type": "bytes32"
            },
            {
              "internalType": "uint256",
              "name": "txSlot",
              "type": "uint256"
            },
            {
              "internalType": "address",
              "name": "activator",
              "type": "address"
            },
            {
              "internalType": "address",
              "name": "recipient",
              "type": "address"
            },
            {
              "internalType": "bool",
              "name": "readyToActivate",
              "type": "bool"
            },
            {
              "internalType": "bool",
              "name": "skipped",
              "type": "bool"
            }
          ],
          "internalType": "struct ICreationPhase.CreateTransactionResult",
          "name": "result",
          "type": "tuple"
        }
      ],
      "stateMutability": "payable",
      "type": "function"
    },
    {
      "inputs": [
        {
          "internalType": "bytes32",
          "name": "txId",
          "type": "bytes32"
        }
      ],
      "name": "getPendingTransactionValue",
      "outputs": [
        {
          "internalType": "uint256",
          "name": "",
          "type": "uint256"
        }
      ],
      "stateMutability": "view",
      "type": "function"
    },
    {
      "inputs": [
        {
          "internalType": "address",
          "name": "addr",
          "type": "address"
        }
      ],
      "name": "ghostContracts",
      "outputs": [
        {
          "internalType": "bool",
          "name": "isGhost",
          "type": "bool"
        }
      ],
      "stateMutability": "view",
      "type": "function"
    },
    {
      "inputs": [],
      "name": "globalRandomSeed",
      "outputs": [
        {
          "internalType": "bytes32",
          "name": "",
          "type": "bytes32"
        }
      ],
      "stateMutability": "view",
      "type": "function"
    },
    {
      "inputs": [
        {
          "internalType": "bytes32",
          "name": "",
          "type": "bytes32"
        }
      ],
      "name": "headAnnouncedAt",
      "outputs": [
        {
          "internalType": "uint256",
          "name": "",
          "type": "uint256"
        }
      ],
      "stateMutability": "view",
      "type": "function"
    },
    {
      "inputs": [
        {
          "internalType": "address",
          "name": "_addressManager",
          "type": "address"
        }
      ],
      "name": "initialize",
      "outputs": [],
      "stateMutability": "nonpayable",
      "type": "function"
    },
    {
      "inputs": [
        {
          "internalType": "address",
          "name": "caller",
          "type": "address"
        }
      ],
      "name": "isAuthorizedCaller",
      "outputs": [
        {
          "internalType": "bool",
          "name": "",
          "type": "bool"
        }
      ],
      "stateMutability": "view",
      "type": "function"
    },
    {
      "inputs": [
        {
          "internalType": "address",
          "name": "addr",
          "type": "address"
        }
      ],
      "name": "isGhostContract",
      "outputs": [
        {
          "internalType": "bool",
          "name": "",
          "type": "bool"
        }
      ],
      "stateMutability": "view",
      "type": "function"
    },
    {
      "inputs": [],
      "name": "owner",
      "outputs": [
        {
          "internalType": "address",
          "name": "",
          "type": "address"
        }
      ],
      "stateMutability": "view",
      "type": "function"
    },
    {
      "inputs": [],
      "name": "pendingOwner",
      "outputs": [
        {
          "internalType": "address",
          "name": "",
          "type": "address"
        }
      ],
      "stateMutability": "view",
      "type": "function"
    },
    {
      "inputs": [
        {
          "internalType": "bytes32",
          "name": "",
          "type": "bytes32"
        }
      ],
      "name": "pendingTransactionValues",
      "outputs": [
        {
          "internalType": "uint256",
          "name": "",
          "type": "uint256"
        }
      ],
      "stateMutability": "view",
      "type": "function"
    },
    {
      "inputs": [
        {
          "internalType": "bytes32",
          "name": "txId",
          "type": "bytes32"
        },
        {
          "internalType": "address",
          "name": "sender",
          "type": "address"
        }
      ],
      "name": "refundPendingValue",
      "outputs": [
        {
          "internalType": "bool",
          "name": "refundFailed",
          "type": "bool"
        },
        {
          "internalType": "uint256",
          "name": "amount",
          "type": "uint256"
        }
      ],
      "stateMutability": "nonpayable",
      "type": "function"
    },
    {
      "inputs": [
        {
          "internalType": "address",
          "name": "ghost",
          "type": "address"
        }
      ],
      "name": "registerGhostContract",
      "outputs": [],
      "stateMutability": "nonpayable",
      "type": "function"
    },
    {
      "inputs": [],
      "name": "renounceOwnership",
      "outputs": [],
      "stateMutability": "nonpayable",
      "type": "function"
    },
    {
      "inputs": [
        {
          "internalType": "address",
          "name": "_addressManager",
          "type": "address"
        }
      ],
      "name": "setAddressManager",
      "outputs": [],
      "stateMutability": "nonpayable",
      "type": "function"
    },
    {
      "inputs": [
        {
          "internalType": "address",
          "name": "caller",
          "type": "address"
        },
        {
          "internalType": "bool",
          "name": "authorized",
          "type": "bool"
        }
      ],
      "name": "setAuthorizedCaller",
      "outputs": [],
      "stateMutability": "nonpayable",
      "type": "function"
    },
    {
      "inputs": [
        {
          "internalType": "address[]",
          "name": "callers",
          "type": "address[]"
        },
        {
          "internalType": "bool",
          "name": "authorized",
          "type": "bool"
        }
      ],
      "name": "setAuthorizedCallers",
      "outputs": [],
      "stateMutability": "nonpayable",
      "type": "function"
    },
    {
      "inputs": [
        {
          "internalType": "bytes32",
          "name": "txId",
          "type": "bytes32"
        },
        {
          "internalType": "uint256",
          "name": "value",
          "type": "uint256"
        }
      ],
      "name": "setPendingValue",
      "outputs": [],
      "stateMutability": "nonpayable",
      "type": "function"
    },
    {
      "inputs": [
        {
          "internalType": "address",
          "name": "newOwner",
          "type": "address"
        }
      ],
      "name": "transferOwnership",
      "outputs": [],
      "stateMutability": "nonpayable",
      "type": "function"
    },
    {
      "inputs": [
        {
          "internalType": "bytes32",
          "name": "txId",
          "type": "bytes32"
        },
        {
          "internalType": "address",
          "name": "recipient",
          "type": "address"
        }
      ],
      "name": "transferPendingValueToGhost",
      "outputs": [
        {
          "internalType": "bool",
          "name": "transferFailed",
          "type": "bool"
        },
        {
          "internalType": "uint256",
          "name": "amount",
          "type": "uint256"
        }
      ],
      "stateMutability": "nonpayable",
      "type": "function"
    },
    {
      "inputs": [],
      "name": "txGlobalCounter",
      "outputs": [
        {
          "internalType": "uint256",
          "name": "",
          "type": "uint256"
        }
      ],
      "stateMutability": "view",
      "type": "function"
    },
    {
      "inputs": [
        {
          "internalType": "bytes32",
          "name": "newSeed",
          "type": "bytes32"
        }
      ],
      "name": "updateGlobalRandomSeed",
      "outputs": [],
      "stateMutability": "nonpayable",
      "type": "function"
    },
    {
      "stateMutability": "payable",
      "type": "receive"
    }
  ],
  "bytecode": "0x6080806040523460d2577ff0c57e16840df040f15088dc2f81fe391c3923bec73e23a9662efc9c229c6a005460ff8160401c1660c1576002600160401b03196001600160401b03821601605c575b60405161352490816100d88239f35b6001600160401b0319166001600160401b039081177ff0c57e16840df040f15088dc2f81fe391c3923bec73e23a9662efc9c229c6a005581527fc7f505b2f371ae2175ee4913f4499e1f2633a7b5936321eed1cdaeb6115181d290602090a13880604d565b63f92ee8a960e01b60005260046000fd5b600080fdfe610160604052600436101561001c575b361561001a57600080fd5b005b6000803560e01c8062fb9bd71461026f5780630652b57a14610f46578063090263a714610e495780632838322d14610a905780633ab76e9f14610a69578063454bbd29146109eb578063525cc059146109af578063536fff6c1461097057806359d14b41146109705780635e1740331461095257806367f7c83a14610245578063715018a6146108d15780637440c21b1461089257806379ba5097146108415780637dc258f21461074c578063803350a51461062b5780638da5cb5b146105f55780638e4dc988146105c55780639d3a5b1d1461057d578063aa923c021461054f578063c4d66de81461034a578063cb225db11461032c578063cf0a6384146102a8578063db1199101461026f578063dfcd9aab14610245578063e30c39781461020f578063f2fde38b146101875763f63f71c01461015b575061000f565b346101845760203660031901126101845760406020916004358152600683522054604051908152f35b80fd5b5034610184576020366003190112610184576101a1610fa1565b6101a961308e565b6000805160206134cf83398151915280546001600160a01b0319166001600160a01b0392831690811790915560008051602061346f833981519152549091167f38d16b8cac22d99fc7c124b9cd0de2d3fa1faef420bfe791d8c362d765e227008380a380f35b50346101845780600319360112610184576000805160206134cf833981519152546040516001600160a01b039091168152602090f35b50346101845760203660031901126101845760406020916004358152600483522054604051908152f35b50346101845760403660031901126101845761029461028c610f86565b600435610fc6565b604080519215158352602083019190915290f35b5034610184576020366003190112610184576102c2610fa1565b338252600560205260ff6040832054161561031e576001600160a01b0316808252600360205260408220805460ff191660011790557f029a2735cf69e999ef9868fa6b2bb421b3d69c9d9a025a1cfd8081260e260f4b8280a280f35b6282b42960e81b8252600482fd5b50346101845780600319360112610184576020600154604051908152f35b503461018457602036600319011261018457610364610fa1565b6000805160206134af833981519152549060ff8260401c1615916001600160401b03811680159081610547575b600114908161053d575b159081610534575b506105255767ffffffffffffffff1981166001176000805160206134af83398151915255826104f8575b506103d6613440565b6103de613440565b6103e6613440565b33156104e4576103f5336131c7565b6103fd613440565b610405613440565b600160008051602061348f8339815191525582546001600160a01b0319166001600160a01b03919091161782554360001981019081116104d05760405160208101914082524260408201524360608201523060601b60808201526074815261046e6094826110c1565b51902060025561047b5780f35b60ff60401b196000805160206134af83398151915254166000805160206134af833981519152557fc7f505b2f371ae2175ee4913f4499e1f2633a7b5936321eed1cdaeb6115181d2602060405160018152a180f35b634e487b7160e01b83526011600452602483fd5b631e4fbdf760e01b83526004839052602483fd5b68ffffffffffffffffff191668010000000000000001176000805160206134af83398151915255386103cd565b63f92ee8a960e01b8452600484fd5b905015386103a3565b303b15915061039b565b849150610391565b503461018457602036600319011261018457602061057361056e610fa1565b612fe9565b6040519015158152f35b503461018457602036600319011261018457338152600560205260ff604082205416156105b7576004358152600460205280604081205580f35b6282b42960e81b8152600490fd5b503461018457602036600319011261018457338152600560205260ff604082205416156105b75760043560025580f35b503461018457806003193601126101845760008051602061346f833981519152546040516001600160a01b039091168152602090f35b503461018457604036600319011261018457610645610fa1565b604051916106528361106e565b8083528060208401528060408401528060608401528060808401528060a08401528060c08401528060e0840152806101008401528061012084015280610140840152338152600560205260ff604082205416156105b7576101606106b96024358486612561565b610140604051918051151583526020810151602084015260018060a01b0360408201511660408401526060810151606084015260808101511515608084015260a0810151151560a084015260c0810151151560c084015260e081015160e084015260018060a01b036101008201511661010084015260018060a01b03610120820151166101208401520151610140820152f35b506020366003190112610184576004356001600160401b03811161083d57610180600319823603011261083d5761078161148b565b91338152600560205260ff604082205416156105b757600260008051602061348f833981519152541461082e57600260008051602061348f8339815191525560c06107cf60048401856114ee565b600160008051602061348f8339815191525560a0604051918051835260208101516020840152600180831b036040820151166040840152600180831b0360608201511660608401526080810151151560808401520151151560a0820152f35b633ee5aeb560e01b8152600490fd5b5080fd5b50346101845780600319360112610184576000805160206134cf83398151915254336001600160a01b039091160361087f5761087c336131c7565b80f35b63118cdaa760e01b815233600452602490fd5b50346101845760203660031901126101845760209060ff906040906001600160a01b036108bd610fa1565b168152600384522054166040519015158152f35b50346101845780600319360112610184576108ea61308e565b6000805160206134cf83398151915280546001600160a01b031990811690915560008051602061346f8339815191528054918216905581906001600160a01b03167f8be0079c531659141344cd1fd0a4f28419497f9722a3daafe3b4186f6b6457e08280a380f35b50346101845780600319360112610184576020600254604051908152f35b50346101845760203660031901126101845760209060ff906040906001600160a01b0361099b610fa1565b168152600584522054166040519015158152f35b503461018457604036600319011261018457338152600560205260ff604082205416156105b75760043581526004602052602435604082205580f35b503461018457604036600319011261018457610a05610fa1565b7fad857fa38c9319cb80848f1ef2f924383b90297eb5d71755738ff037d100faa16020610a30610fb7565b92610a3961308e565b6001600160a01b03168085526005825260408520805460ff191660ff86151516179055926040519015158152a280f35b5034610184578060031936011261018457546040516001600160a01b039091168152602090f35b503461018457604036600319011261018457600435610aad610f86565b90610ab6611167565b50338352600560205260ff60408420541615610e3b57610ad46130c4565b610adc613169565b60405163255709e560e11b815260048101849052916001600160a01b03168583602481845afa928315610e30578693610e0c575b5060c08301516001600160a01b0390811695168015610d70576060840151600f811015610d5c5760001901610d4d5760a08401516001600160a01b031603610d3e575b803b15610d3a576040516346f32a5d60e11b81526004810185905260086024820152868160448183865af18015610d2f57610d1b575b508590610160840151813b15610d17578291604483926040519485938492634ff736eb60e11b845260048401528a60248401525af18015610d0c57610cf7575b5050604051639c88381960e01b81526001600160a01b038581166004830152602482018590529091602091839160449183918a91165af1908115610cec578591610cae575b5015610c9f578382606095526004602052604081205491819383610c63575b50505060408051610c3d8161103d565b848152602081019283520191151582526040519283525160208301525115156040820152f35b825260046020526040822082905560a001519192509081908190819085906001600160a01b03165af1610c946110fd565b501590388080610c2d565b63357bf18b60e01b8452600484fd5b90506020813d602011610ce4575b81610cc9602093836110c1565b81010312610ce057610cda9061147e565b38610c0e565b8480fd5b3d9150610cbc565b6040513d87823e3d90fd5b81610d01916110c1565b610ce0578438610bc9565b6040513d84823e3d90fd5b8280fd5b86610d28919792976110c1565b9438610b89565b6040513d89823e3d90fd5b8580fd5b63f5963d6560e01b8652600486fd5b637c03108160e11b8752600487fd5b634e487b7160e01b88526021600452602488fd5b50606083018051600f811015610d5c57600114159081610de2575b50610dd35761026083015180159081159081610db8575b505015610b5357636257ec7d60e11b8652600486fd5b90915081610dc9575b503880610da2565b9050421038610dc1565b637c03108160e11b8652600486fd5b905051600f811015610df8576002141538610d8b565b634e487b7160e01b87526021600452602487fd5b610e299193503d8088833e610e2181836110c1565b810190611219565b9138610b10565b6040513d88823e3d90fd5b6282b42960e81b8352600483fd5b5034610184576040366003190112610184576004356001600160401b03811161083d573660238201121561083d578060040135906001600160401b038211610d17576024810190602436918460051b010111610d175790610ea8610fb7565b91610eb161308e565b82151591845b818110610ec2578580f35b6001906001600160a01b03610ee0610edb83868861112d565b611153565b1687526005602052610f0186604089209060ff801983541691151516179055565b818060a01b03610f15610edb83868861112d565b167fad857fa38c9319cb80848f1ef2f924383b90297eb5d71755738ff037d100faa16020604051888152a201610eb7565b503461018457602036600319011261018457610f60610fa1565b610f6861308e565b81546001600160a01b0319166001600160a01b039190911617815580f35b602435906001600160a01b0382168203610f9c57565b600080fd5b600435906001600160a01b0382168203610f9c57565b602435908115158203610f9c57565b91909133600052600560205260ff604060002054161561102d5760009080600052600460205260406000205493849182611002575b5050509190565b60009350839283928392835260046020528260408120555af16110236110fd565b5015823880610ffb565b6282b42960e81b60005260046000fd5b606081019081106001600160401b0382111761105857604052565b634e487b7160e01b600052604160045260246000fd5b61016081019081106001600160401b0382111761105857604052565b6102e081019081106001600160401b0382111761105857604052565b60c081019081106001600160401b0382111761105857604052565b90601f801991011681019081106001600160401b0382111761105857604052565b6001600160401b03811161105857601f01601f191660200190565b3d15611128573d9061110e826110e2565b9161111c60405193846110c1565b82523d6000602084013e565b606090565b919081101561113d5760051b0190565b634e487b7160e01b600052603260045260246000fd5b356001600160a01b0381168103610f9c5790565b604051906111748261103d565b60006040838281528260208201520152565b51906001600160a01b0382168203610f9c57565b60005b8381106111ad5750506000910152565b818101518382015260200161119d565b81601f82011215610f9c5780516111d3816110e2565b926111e160405194856110c1565b81845260208284010111610f9c576111ff916020808501910161119a565b90565b6001600160401b0381116110585760051b60200190565b602081830312610f9c578051906001600160401b038211610f9c57016102e081830312610f9c576040519161124d8361108a565b81516006811015610f9c57835260208201516005811015610f9c5760208401526040820151600f811015610f9c5760408401526060820151600f811015610f9c57606084015261129f60808301611186565b60808401526112b060a08301611186565b60a08401526112c160c08301611186565b60c08401526112d260e08301611186565b60e08401526101008201516101008401526101208201516101208401526101408201516101408401526101608201516101608401526101808201516101808401526101a08201516101a08401526101c08201516101c08401526101e08201516101e08401526102008201516001600160401b038111610f9c57816113579184016111bd565b6102008401526102208201516001600160401b038111610f9c578161137d9184016111bd565b6102208401526102408201516001600160401b038111610f9c57820181601f82011215610f9c578051906113b082611202565b926113be60405194856110c1565b82845260206060818601940283010191818311610f9c57602001925b82841061141f5750505050906102c0916102408401526102608101516102608401526102808101516102808401526102a08101516102a084015201516102c082015290565b606084830312610f9c57602060609160405161143a8161103d565b865181528287015183820152604087015160408201528152019301926113da565b90600f8210156114685752565b634e487b7160e01b600052602160045260246000fd5b51908115158203610f9c57565b60405190611498826110a6565b600060a0838281528260208201528260408201528260608201528260808201520152565b903590601e1981360301821215610f9c57018035906001600160401b038211610f9c57602001918136038313610f9c57565b91906101205260c0610120510161150881610120516114bc565b9050600061014052156124ef5761152460206101205101611153565b6101008190526001600160a01b03168015939084156123df575b505060015460018101908181116123345760001982036123cf575050610140516001555b61156e61012051611153565b906001600160a01b038216158015612365575b61234e575b600254600154600019430143811161233457604051916020830193845260408301524060608201524260808201524360a082015260a081526115c960c0826110c1565b519020936120e5575b6115ee6115e460406101205101611153565b91610120516114bc565b92906115f861148b565b50611601613169565b9261160a61331f565b9261161361337e565b9061161c6130c4565b936116256133e0565b604051630db7242360e21b8152610100516001600160a01b0390811660048301529198916020908290602490829086165afa908115611dd85761014051916120b3575b5060405160208101916bffffffffffffffffffffffff196101005160601b1683524260348301528d60548301526074820152607481526116a96094826110c1565b51902060a090815260405160e0818152633b4d69ad60e11b909152610140805182519351610100516001600160a01b0390811660048701526024860191909152925191519094604493165af1998a15611dd857610140519a6101405160c05261204a575b6040516020810191825260c05160408201526040815261172e6060826110c1565b519020928a15611fd6576001600160a01b0316803b15611dd157604051630bc24f7560e41b8152610100516001600160a01b031660048201526024810185905260a05160448201526101405190918290606490829084905af18015611dd857611fbb575b505b60405163589686c160e11b815260048101849052426024820152976020896044816001600160a01b038b165afa988915611dd8576101405199611f7f575b5060405163900cf0cf60e01b8152936020856004816001600160a01b038c165afa948515611dd8576101405195611f4b575b5060206080819052604051959061181b90876110c1565b610140518652608051604051959061183390876110c1565b610140518652601f196080510136608051880137604051976118548961108a565b610140518952610140516080518a01526101405160408a0152600160608a015260018060a01b0316608089015260018060a01b031660a088015260018060a01b03610100511660c088015260018060a01b038b1660e088015260c05161010088015260a0610120510135610120880152608061012051013561014088015261016087015260a0516101808701526101a0860152610140516101c0860152610140516101e0860152611904816110e2565b9161191260405193846110c1565b8183523682820111611dd15781906080518401376101405190608051908301015261020084015261022083015261024082015261010061012051013561026082015261012080510135610280820152610140516102a0820152610140516102c082015260018060a01b0382163b15611dd15760405190630d115ea360e21b825260a05160048301526040602483015280516006811015611f315760448301526080518101516005811015611f315760648301526119d76040820151608484019061145b565b6119e9606082015160a484019061145b565b60808101516001600160a01b0390811660c484015260a0820151811660e484015260c0820151811661010484015260e0820151166101248301526101008101516101448301526101208101516101648301526101408101516101848301526101608101516101a48301526101808101516101c48301526101a08101516101e48301526101c08101516102048301526101e08101516102248301526102008101516102e0610244840152611abd90611aa5906103248501906132fa565b610220830151848203604319016102648601526132fa565b6102408201518382036043190161028485015280518083526080516101405193810194939201915b818110611efe575050506102608101516102a48401526102808101516102c48401526102a08101516102e48401526102c001516103048301526101405190829081900381836001600160a01b0387165af18015611dd857611ee3575b5060405163900cf0cf60e01b81526080519092839060049082906001600160a01b03165afa918215611dd8576101405192611ead575b506001600160a01b0381163b15611dd157604051631458f30d60e01b8152600481019290925260a051602483015261014051908290604490829084906001600160a01b03165af18015611dd857611e92575b506040519061010082018281106001600160401b03821117611e7857604052428252426080518301526101405160408301526101405160608301526101405160808301526101405160a08301526101405160c08301526101405160e083015260018060a01b0381163b15611dd15760e06040519263c0d64389821b845260a05160048501528051602485015260805181015160448501526040810151606485015260608101516084850152608081015160a485015260a081015160c485015260c081015160e4850152015161010483015281610124816101405193610140519060018060a01b03165af1908115611dd8578491611e5a575b50611e3e575b60405190611cd4826110a6565b60a051825260c05160805183015260018060a01b03166040820152606081019260018060a01b0361010051168452151560808201526101405160a0820152809261012080510135611e1c575b6001600160a01b03611d30613299565b915192516001600160a01b0393841693919092169190611d4e61331f565b16906040519163900cf0cf60e01b835282600481608051935afa918215611dd8576101405192611de6575b50823b15611dd15760405193627381e560e11b855260048501526024840152604483015281606481610140519361014051905af18015611dd857611dba5750565b61014051611dc7916110c1565b61014051611dd157565b6101405180fd5b6040513d61014051823e3d90fd5b9091506080513d60805111611e15575b611e0081836110c1565b816080519181010312610f9c57519038611d79565b503d611df6565b60a0516101405152600460805152610120805101356040610140512055611d20565b60a0516101405152600660805152426040610140512055611cc7565b611e69915061014051906110c1565b61014051611dd1578238611cc1565b634e487b7160e01b61014051526041600452602461014051fd5b61014051611e9f916110c1565b61014051611dd15738611bc9565b9091506080513d60805111611edc575b611ec781836110c1565b816080519181010312610f9c57519038611b77565b503d611ebd565b61014051611ef0916110c1565b61014051611dd15738611b41565b90919360606001916040875180518352608051810151608051840152015160408201520194608051019101919091611ae5565b634e487b7160e01b61014051526021600452602461014051fd5b9094506020813d602011611f77575b81611f67602093836110c1565b81010312610f9c57519338611804565b3d9150611f5a565b9098506020813d602011611fb3575b81611f9b602093836110c1565b81010312611dd157611fac90611186565b97386117d2565b3d9150611f8e565b61014051611fc8916110c1565b61014051611dd15738611792565b6001600160a01b0316803b15611dd157604051631c613bd560e31b815260a0516004820152610100516001600160a01b031660248201526101405190918290604490829084905af18015611dd85761202f575b50611794565b6101405161203c916110c1565b61014051611dd15738612029565b99503d806101405160e0513e6120628160e0516110c1565b60e0510199606060e0518c0312611dd15761207e60e05161147e565b602060e05101519b604060e0510151906001600160401b038211611dd1576120a99160e05101612504565b509a60c05261170d565b90506020813d6020116120dd575b816120ce602093836110c1565b81010312610f9c575138611668565b3d91506120c1565b602460206001600160a01b036120f9613235565b16604051928380926374c1532360e01b825260e0610120510135600483015261014051905af18015611dd8576122fd575b50600460206001600160a01b0361213f613235565b166040519283809263b8f3c96360e01b82525afa908115611dd85761014051916122c3575b50806101005260018060a01b0316806101405152600360205260406101405120600160ff19825416179055807f029a2735cf69e999ef9868fa6b2bb421b3d69c9d9a025a1cfd8081260e260f4b6101405161014051a26001600160a01b036121ca613299565b16604061012051016121db81611153565b60405163785f8ee360e01b81526001600160a01b039091166004820152602081602481865afa908115611dd8576101405191612289575b5015612221575b5050506115d2565b61222a90611153565b91813b15611dd15760405163ee1fe2ad60e01b81526001600160a01b039093166004840152602483015261014051908290604490829084905af18015611dd857612276575b8080612219565b61014051612283916110c1565b3861226f565b90506020813d6020116122bb575b816122a4602093836110c1565b81010312611dd1576122b59061147e565b38612212565b3d9150612297565b90506020813d6020116122f5575b816122de602093836110c1565b81010312611dd1576122ef90611186565b38612164565b3d91506122d1565b6020813d60201161232c575b81612316602093836110c1565b81010312611dd15761232790611186565b61212a565b3d9150612309565b634e487b7160e01b61014051526011600452602461014051fd5b905061235f60606101205101611153565b90611586565b50610120516001600160a01b039061237f90606001611153565b166101405152600360205260ff6040610140512054161580156115815750610120516001600160a01b03906123b390611153565b166101405152600360205260ff60406101405120541615611581565b6000191461233457600155611562565b806101405152600360205260ff604061014051205416158061246e575b1561153e5791509192506101406101205101358015158103611dd1576124315763306e9f2560e21b6101405152600461014051fd5b6101606101205101357f78630ad9cc8d8d0ad2ec6ccb423ff15bfad7725899bb0672b0d5ce01c5633bea6101405161014051a3600160a082015290565b50602460206001600160a01b03612483613235565b166040519283809263ef7c054160e01b82528660048301525afa908115611dd85761014051916124b5575b50156123fc565b90506020813d6020116124e7575b816124d0602093836110c1565b81010312611dd1576124e19061147e565b386124ae565b3d91506124c3565b6313064eb160e11b6101405152600461014051fd5b9080601f83011215610f9c57815161251b81611202565b9261252960405194856110c1565b81845260208085019260051b820101928311610f9c57602001905b8282106125515750505090565b8151815260209182019101612544565b9091928161256d613169565b906125766130c4565b9161257f61337e565b6125876133e0565b604051631fd08e0b60e21b81526001600160a01b0389811660048301819052941698939560009592949290916020816024818e5afa8015610d2f578790612fb6575b604051633f008c4560e01b8152600481018a905291506020826024818f5afa918215612fab578892612f77575b501015612f6957508899602060249798999a60405198898092635f4f4ec560e11b82528c60048301525afa968715610e30578697612f35575b508615908115612f2b575b50612f1f5760405163255709e560e11b8152600481018790526001600160a01b039091169985826024818e5afa918215610e30578692612f03575b5060608201928351600f811015610d5c576001141580612eee575b612ee0576102608301518015159081612ed6575b5080612ec2575b612d145750505051600f811015612d005760021461289757604051631c5f1acf60e31b815260048101869052969750949594602090869060249082906001600160a01b03165afa948515610d0c578295612863575b50828252600660205260408220548061284d57508282526006602052604082204290556001600160a01b031693843b1561083d57604051634e8eb8bd60e01b815260048101849052600160248201524260448201528281606481838a5af180156128425790839161282d575b505060409060648251809781936302ad2c4560e21b835287600484015260248301524260448301525afa801561282057819482916127d9575b50156127d357600160a087015260c086015260e08501526101008401526001600160a01b0316610120830152565b50505050565b9450506040843d604011612818575b816127f5604093836110c1565b8101031261018457612812602061280b86611186565b950161147e565b386127a5565b3d91506127e8565b50604051903d90823e3d90fd5b81612837916110c1565b61083d57813861276c565b6040513d85823e3d90fd5b610140880152505060e085015261010084015250565b9094506020813d60201161288f575b8161287f602093836110c1565b81010312610f9c57519338612700565b3d9150612872565b50929190602081959760246040518094819363de7187c560e01b83528860048401525af1908115610cec578591612cce575b508015612cc6578103612cb7578354604051631bae711d60e21b81526020600482018190526006602483015265526f756e647360d01b60448301529091829060649082906001600160a01b03165afa908115610cec578591612c7d575b5060405163ba15d63560e01b8152600481018390526001600160a01b03919091169390602081602481885afa908115610e30579086918291612c48575b50604460405180978193635af5446960e01b835287600484015260248301525afa938415610cec578594612a56575b506001600160a01b0316803b15610ce057848091606460405180948193634e8eb8bd60e01b8352876004840152600260248401524260448401525af18015610cec57908591612a3d575b5050600160a0860152600160c086015260e0850152610100840152602060e0820151910151918151831015612a29575060059190911b01602001516001600160a01b031661012082015290565b634e487b7160e01b81526032600452602490fd5b81612a47916110c1565b612a525783386129dc565b8380fd5b9093503d8086833e612a6881836110c1565b810190602081830312610d3a578051906001600160401b038211612c4457019061016082820312610d3a5760405191612aa08361106e565b805183526020810151602084015260408101516040840152606081015160608401526080810151608084015260a081015160a084015260c08101516006811015612c075760c084015260e08101516001600160401b038111612c0757810182601f82011215612c0757805190612b1582611202565b91612b2360405193846110c1565b80835260208084019160051b83010191858311612c2857602001905b828210612c2c5750505060e08401526101008101516001600160401b038111612c0757810182601f82011215612c07578051612b7a81611202565b91612b8860405193846110c1565b81835260208084019260051b82010190858211612c2857602001915b818310612c0b575050506101008401526101208101516001600160401b038111612c075782612bd4918301612504565b610120840152610140810151906001600160401b038211612c0757612bfa929101612504565b6101408201529238612992565b8780fd5b82516005811015612c2457815260209283019201612ba4565b8b80fd5b8a80fd5b60208091612c3984611186565b815201910190612b3f565b8680fd5b9150506020813d602011612c75575b81612c64602093836110c1565b81010312610f9c5785905138612963565b3d9150612c57565b90506020813d602011612caf575b81612c98602093836110c1565b81010312610ce057612ca990611186565b38612926565b3d9150612c8b565b63268ff40760e11b8452600484fd5b505050505090565b90506020813d602011612cf8575b81612ce9602093836110c1565b81010312610f9c5751386128c9565b3d9150612cdc565b634e487b7160e01b84526021600452602484fd5b9350935094955050879295973b15610d3a576040516346f32a5d60e11b81526004810186905260086024820152868160448183885af18015610d2f57612ea5575b50604051639c88381960e01b81526001600160a01b03909116600482015260248101859052906020908290818881604481015b03925af18015610cec57612e6e575b50610160820151813b15610ce0578491604483926040519485938492634ff736eb60e11b845260048401528860248401525af18015612e6357908491612e4e575b5082905260046020526040832054918383612e19575b5060018552602085015260a001516001600160a01b0316604084015260608301521515608082015290565b90809450815260046020528060408120558080808560018060a01b0360a0870151165af1612e456110fd565b50159238612dee565b81612e58916110c1565b610d17578238612dd8565b6040513d86823e3d90fd5b6020813d602011612e9d575b81612e87602093836110c1565b81010312610ce057612e989061147e565b612d97565b3d9150612e7a565b612d889287612eb86020949989946110c1565b9792509250612d55565b508351600f811015610d5c576001146126ab565b90504211386126a4565b505050505050505050915090565b508351600f811015610d5c5760021415612690565b612f189192503d8088833e610e2181836110c1565b9038612675565b50505050505050915090565b905086143861263a565b9096506020813d602011612f61575b81612f51602093836110c1565b81010312610d3a5751953861262f565b3d9150612f44565b985050505050505092505090565b9091506020813d602011612fa3575b81612f93602093836110c1565b81010312612c07575190386125f6565b3d9150612f86565b6040513d8a823e3d90fd5b506020813d602011612fe1575b81612fd0602093836110c1565b81010312612c4457602490516125c9565b3d9150612fc3565b6001600160a01b031660008181526003602052604090205460ff166130885760206001600160a01b0361301a613235565b169160246040518094819363ef7c054160e01b835260048301525afa90811561307c57600091613048575090565b90506020813d602011613074575b81613063602093836110c1565b81010312610f9c576111ff9061147e565b3d9150613056565b6040513d6000823e3d90fd5b50600190565b60008051602061346f833981519152546001600160a01b031633036130af57565b63118cdaa760e01b6000523360045260246000fd5b600054604051631bae711d60e21b815260206004820181905260126024830152712a3930b739b0b1ba34b7b726b0b730b3b2b960711b60448301529091829060649082906001600160a01b03165afa90811561307c5760009161312f575b506001600160a01b031690565b90506020813d602011613161575b8161314a602093836110c1565b81010312610f9c5761315b90611186565b38613122565b3d915061313d565b600054604051631bae711d60e21b8152602060048201819052600660248301526551756575657360d01b60448301529091829060649082906001600160a01b03165afa90811561307c5760009161312f57506001600160a01b031690565b6000805160206134cf83398151915280546001600160a01b031990811690915560008051602061346f83398151915280549182166001600160a01b0393841690811790915591167f8be0079c531659141344cd1fd0a4f28419497f9722a3daafe3b4186f6b6457e0600080a3565b600054604051631bae711d60e21b8152602060048201819052600c60248301526b47686f7374466163746f727960a01b60448301529091829060649082906001600160a01b03165afa90811561307c5760009161312f57506001600160a01b031690565b600054604051631bae711d60e21b8152602060048201819052600960248301526827232a26b4b73a32b960b91b60448301529091829060649082906001600160a01b03165afa90811561307c5760009161312f57506001600160a01b031690565b906020916133138151809281855285808601910161119a565b601f01601f1916010190565b600054604051631bae711d60e21b815260206004820181905260076024830152665374616b696e6760c81b60448301529091829060649082906001600160a01b03165afa90811561307c5760009161312f57506001600160a01b031690565b600054604051631bae711d60e21b8152602060048201819052600a60248301526923b2b726b0b730b3b2b960b11b60448301529091829060649082906001600160a01b03165afa90811561307c5760009161312f57506001600160a01b031690565b600054604051631bae711d60e21b8152602060048201819052600860248301526749646c656e65737360c01b60448301529091829060649082906001600160a01b03165afa90811561307c5760009161312f57506001600160a01b031690565b60ff6000805160206134af8339815191525460401c161561345d57565b631afcd79f60e31b60005260046000fdfe9016d09d72d40fdae2fd8ceac6b6234c7706214fd39c1cd1e609a0528c1993009b779b17422d0df92223018b32b4d1fa46e071723d6817e2486d003becc55f00f0c57e16840df040f15088dc2f81fe391c3923bec73e23a9662efc9c229c6a00237e158222e3e6968b72b9db0d8043aacf074ad9f650f0d1606b4d82ee432c00a26469706673582212207fe812e81816a69b58cfa6683b4ad8d178b1f6f2e6da5a43be0ce99d400d462564736f6c634300081c0033",
  "linkReferences": {},
  "deployedLinkReferences": {}
}