{
  "_format": "hh-sol-artifact-1",
  "contractName": "MockFeesRecorder",
  "sourceName": "contracts/test-helpers/MockFeesRecorder.sol",
  "abi": [
    {
      "inputs": [
        {
          "internalType": "bytes32",
          "name": "",
          "type": "bytes32"
        },
        {
          "internalType": "uint256",
          "name": "",
          "type": "uint256"
        },
        {
          "internalType": "uint256",
          "name": "",
          "type": "uint256"
        },
        {
          "internalType": "address",
          "name": "",
          "type": "address"
        }
      ],
      "name": "addAppealRound",
      "outputs": [],
      "stateMutability": "pure",
      "type": "function"
    },
    {
      "inputs": [
        {
          "internalType": "bytes32",
          "name": "txId",
          "type": "bytes32"
        }
      ],
      "name": "currentRoundData",
      "outputs": [
        {
          "internalType": "uint256",
          "name": "round",
          "type": "uint256"
        }
      ],
      "stateMutability": "view",
      "type": "function"
    },
    {
      "inputs": [
        {
          "internalType": "bytes32",
          "name": "_txId",
          "type": "bytes32"
        }
      ],
      "name": "currentRoundForTx",
      "outputs": [
        {
          "internalType": "uint256",
          "name": "",
          "type": "uint256"
        }
      ],
      "stateMutability": "view",
      "type": "function"
    },
    {
      "inputs": [
        {
          "internalType": "bytes32",
          "name": "_txId",
          "type": "bytes32"
        },
        {
          "internalType": "uint256",
          "name": "_round",
          "type": "uint256"
        },
        {
          "internalType": "uint256",
          "name": "_rotation",
          "type": "uint256"
        }
      ],
      "name": "getRotationRoundFees",
      "outputs": [
        {
          "components": [
            {
              "internalType": "enum IFeeManager.RoundTypes",
              "name": "roundType",
              "type": "uint8"
            },
            {
              "internalType": "enum ITransactions.ResultType",
              "name": "result",
              "type": "uint8"
            },
            {
              "internalType": "address",
              "name": "leader",
              "type": "address"
            },
            {
              "internalType": "uint256",
              "name": "leaderIndex",
              "type": "uint256"
            },
            {
              "internalType": "uint256",
              "name": "appealBond",
              "type": "uint256"
            },
            {
              "internalType": "address[]",
              "name": "validators",
              "type": "address[]"
            },
            {
              "internalType": "enum ITransactions.VoteType[]",
              "name": "validatorsVotes",
              "type": "uint8[]"
            },
            {
              "internalType": "uint256",
              "name": "receiptFeeConsumed",
              "type": "uint256"
            }
          ],
          "internalType": "struct IFeeManager.RotationRoundFees",
          "name": "",
          "type": "tuple"
        }
      ],
      "stateMutability": "view",
      "type": "function"
    },
    {
      "inputs": [
        {
          "internalType": "bytes32",
          "name": "",
          "type": "bytes32"
        },
        {
          "internalType": "uint256",
          "name": "",
          "type": "uint256"
        },
        {
          "internalType": "address",
          "name": "",
          "type": "address"
        },
        {
          "internalType": "uint256",
          "name": "",
          "type": "uint256"
        },
        {
          "internalType": "bool",
          "name": "",
          "type": "bool"
        },
        {
          "internalType": "uint256",
          "name": "",
          "type": "uint256"
        }
      ],
      "name": "recordProposedReceipt",
      "outputs": [],
      "stateMutability": "pure",
      "type": "function"
    },
    {
      "inputs": [
        {
          "internalType": "bytes32",
          "name": "",
          "type": "bytes32"
        },
        {
          "internalType": "uint256",
          "name": "",
          "type": "uint256"
        },
        {
          "internalType": "address",
          "name": "",
          "type": "address"
        },
        {
          "internalType": "bool",
          "name": "",
          "type": "bool"
        },
        {
          "internalType": "enum ITransactions.VoteType",
          "name": "",
          "type": "uint8"
        },
        {
          "internalType": "enum ITransactions.ResultType",
          "name": "",
          "type": "uint8"
        }
      ],
      "name": "recordRevealedVote",
      "outputs": [],
      "stateMutability": "pure",
      "type": "function"
    },
    {
      "inputs": [
        {
          "internalType": "bytes32",
          "name": "txId",
          "type": "bytes32"
        },
        {
          "internalType": "uint256",
          "name": "round",
          "type": "uint256"
        },
        {
          "internalType": "uint256",
          "name": "rotation",
          "type": "uint256"
        }
      ],
      "name": "rotationRoundFeesData",
      "outputs": [
        {
          "internalType": "enum IFeeManager.RoundTypes",
          "name": "roundType",
          "type": "uint8"
        },
        {
          "internalType": "enum ITransactions.ResultType",
          "name": "result",
          "type": "uint8"
        },
        {
          "internalType": "address",
          "name": "leader",
          "type": "address"
        },
        {
          "internalType": "uint256",
          "name": "leaderIndex",
          "type": "uint256"
        },
        {
          "internalType": "uint256",
          "name": "appealBond",
          "type": "uint256"
        },
        {
          "internalType": "uint256",
          "name": "receiptFeeConsumed",
          "type": "uint256"
        }
      ],
      "stateMutability": "view",
      "type": "function"
    },
    {
      "inputs": [
        {
          "internalType": "bytes32",
          "name": "txId",
          "type": "bytes32"
        },
        {
          "internalType": "uint256",
          "name": "round",
          "type": "uint256"
        }
      ],
      "name": "rotationsUsedData",
      "outputs": [
        {
          "internalType": "uint256",
          "name": "",
          "type": "uint256"
        }
      ],
      "stateMutability": "view",
      "type": "function"
    },
    {
      "inputs": [
        {
          "internalType": "bytes32",
          "name": "_txId",
          "type": "bytes32"
        },
        {
          "internalType": "uint256",
          "name": "_round",
          "type": "uint256"
        }
      ],
      "name": "rotationsUsedForTxRound",
      "outputs": [
        {
          "internalType": "uint256",
          "name": "",
          "type": "uint256"
        }
      ],
      "stateMutability": "view",
      "type": "function"
    },
    {
      "inputs": [
        {
          "internalType": "bytes32",
          "name": "_txId",
          "type": "bytes32"
        },
        {
          "internalType": "uint256",
          "name": "_round",
          "type": "uint256"
        }
      ],
      "name": "setCurrentRound",
      "outputs": [],
      "stateMutability": "nonpayable",
      "type": "function"
    },
    {
      "inputs": [
        {
          "internalType": "bytes32",
          "name": "_txId",
          "type": "bytes32"
        },
        {
          "internalType": "uint256",
          "name": "_round",
          "type": "uint256"
        },
        {
          "internalType": "uint256",
          "name": "_rotation",
          "type": "uint256"
        },
        {
          "components": [
            {
              "internalType": "enum IFeeManager.RoundTypes",
              "name": "roundType",
              "type": "uint8"
            },
            {
              "internalType": "enum ITransactions.ResultType",
              "name": "result",
              "type": "uint8"
            },
            {
              "internalType": "address",
              "name": "leader",
              "type": "address"
            },
            {
              "internalType": "uint256",
              "name": "leaderIndex",
              "type": "uint256"
            },
            {
              "internalType": "uint256",
              "name": "appealBond",
              "type": "uint256"
            },
            {
              "internalType": "address[]",
              "name": "validators",
              "type": "address[]"
            },
            {
              "internalType": "enum ITransactions.VoteType[]",
              "name": "validatorsVotes",
              "type": "uint8[]"
            },
            {
              "internalType": "uint256",
              "name": "receiptFeeConsumed",
              "type": "uint256"
            }
          ],
          "internalType": "struct IFeeManager.RotationRoundFees",
          "name": "_fees",
          "type": "tuple"
        }
      ],
      "name": "setRotationRoundFees",
      "outputs": [],
      "stateMutability": "nonpayable",
      "type": "function"
    },
    {
      "inputs": [
        {
          "internalType": "bytes32",
          "name": "_txId",
          "type": "bytes32"
        },
        {
          "internalType": "uint256",
          "name": "_round",
          "type": "uint256"
        },
        {
          "internalType": "uint256",
          "name": "_rotations",
          "type": "uint256"
        }
      ],
      "name": "setRotationsUsed",
      "outputs": [],
      "stateMutability": "nonpayable",
      "type": "function"
    }
  ],
  "bytecode": "0x608080604052346015576111ce908161001b8239f35b600080fdfe608080604052600436101561001357600080fd5b60003560e01c908163092d7513146106c25750806335487c23146106a057806357a0bfc014610665578063662ded701461063257806373cc6afb146100a35780637ca845dd1461063257806380d457b5146106045780639610084d1461057457806397ead49f14610111578063b5b00f6b146100ef578063d38f5c35146100d45763df246b3c146100a357600080fd5b346100cf5760203660031901126100cf5760043560005260026020526020604060002054604051908152f35b600080fd5b346100cf5760803660031901126100cf576100ed6110cf565b005b346100cf5760c03660031901126100cf576101086110b9565b506100ed611108565b346100cf5760803660031901126100cf576064356001600160401b0381116100cf5761010060031982360301126100cf5760405161014e81611117565b8160040135600e8110156100cf57815260248201359060068210156100cf5760208101918252610180604484016110e5565b92604082019384526060820160648201358152608083016084830135815260a48301356001600160401b0381116100cf57830191366023840112156100cf576004830135926101ce8461116a565b936101dc6040519586611149565b808552602060048187019260051b84010101913683116100cf57602401905b82821061055c5750505060a0850192835260c48401356001600160401b0381116100cf57840196366023890112156100cf57600488013561023b8161116a565b986102496040519a8b611149565b818a5260206004818c019360051b83010101903682116100cf57602401915b8183106105435750505060c0860197885260e460e0870195013585526004356000526000602052604060002060243560005260205260406000206044356000526020526040600020955190600e82101561052d576000978754905191600683101561046e579060ff61ff009262010000600160b01b03905160101b1694169060018060b01b031916179160081b1617178555516001850155516002840155600383019051908151916001600160401b03831161051957600160401b83116105195760209082548484558085106104ff575b500190855260208520855b8381106104e257505050506004820193518051906001600160401b0382116104ce57600160401b82116104ce576020908654838855808410610482575b5001948452602084208160051c90855b8281106104215750601f19831690920391826103b5575b5050506005905191015580f35b859692969286975b8089106103d657505001559192508291600585806103a8565b9093845190600582101561040d576104026001928b6020939060ff809160031b9316831b921b19161790565b9501980197906103bd565b634e487b7160e01b89526021600452602489fd5b86875b60208110610439575082820155600101610391565b9890815190600582101561046e576104656001928c6020939060ff809160031b9316831b921b19161790565b92019901610424565b634e487b7160e01b8a52602160045260248afd5b6104ac90888852838820601f80870160051c820192818816806104b2575b500160051c0190611181565b87610381565b600019850190815490600019908a0360031b1c1690558c6104a0565b634e487b7160e01b85526041600452602485fd5b82516001600160a01b031681830155602090920191600101610344565b838852828820610513918101908601611181565b88610339565b634e487b7160e01b86526041600452602486fd5b634e487b7160e01b600052602160045260246000fd5b823560058110156100cf57815260209283019201610268565b60208091610569846110e5565b8152019101906101fb565b346100cf5761058236611062565b91600052600060205260406000209060005260205260406000209060005260205260c060406000208054906001810154906005600282015491015491604051936105cf8560ff831661107c565b6105e26020860160ff8360081c16611089565b60101c6001600160a01b031660408501526060840152608083015260a0820152f35b346100cf5761061236611062565b916000526001602052604060002090600052602052604060002055600080f35b346100cf57610640366110a3565b9060005260016020526040600020906000526020526020604060002054604051908152f35b346100cf5760c03660031901126100cf5761067e6110b9565b506106876110f9565b50600560843510156100cf57600660a43510156100cf57005b346100cf576106ae366110a3565b906000526002602052604060002055600080f35b346100cf5760009060e06106d536611062565b94919290936106e381611117565b828152826020820152826040820152826060820152826080820152606060a0820152606060c08201520152600052600060205260406000209060005260205260406000209060005260205260406000206040519061074082611117565b805460ff8116600e81101561052d57835260ff8160081c16916020840192600681101561052d578352604084019160018060a01b039060101c16825260018101546060850190815260028201546080860190815260038301916040518084602082965493848152019060005260206000209260005b8181106110405750506107ca92500384611149565b60a08701928352600484019360405180958691602082549182815201916000526020600020906000915b81601f840110610db75791610911939160059695935491818110610d9c575b818110610d7e575b818110610d60575b818110610d42575b818110610d25575b818110610d07575b818110610ce9575b818110610ccb575b818110610cad575b818110610c8f575b818110610c71575b818110610c53575b818110610c35575b818110610c17575b818110610bf9575b818110610bdb575b818110610bbd575b818110610b9f575b818110610b81575b818110610b63575b818110610b45575b818110610b27575b818110610b09575b818110610aeb575b818110610acd575b818110610aaf575b818110610a91575b818110610a73575b818110610a55575b818110610a37575b818110610a19575b10610a02575b500387611149565b60c0890195865201549460e0880195865261094c60405197602089526109416101208a019a60208b01905161107c565b516040890190611089565b516001600160a01b031660608701525160808601525160a08501525161010060c085015280519485905261014084019460209091019060005b8181106109e3575050505190601f198385030160e08401526020808351958681520192016000945b8086106109c4575050829350516101008301520390f35b9092602080826109d76001948851611096565b019401950194906109ad565b82516001600160a01b0316875260209687019690920191600101610985565b90610a128160209360f81c611096565b018c610909565b92602081610a2f60019360ff8760f01c16611096565b019301610903565b92602081610a4d60019360ff8760e81c16611096565b0193016108fb565b92602081610a6b60019360ff8760e01c16611096565b0193016108f3565b92602081610a8960019360ff8760d81c16611096565b0193016108eb565b92602081610aa760019360ff8760d01c16611096565b0193016108e3565b92602081610ac560019360ff8760c81c16611096565b0193016108db565b92602081610ae360019360ff8760c01c16611096565b0193016108d3565b92602081610b0160019360ff8760b81c16611096565b0193016108cb565b92602081610b1f60019360ff8760b01c16611096565b0193016108c3565b92602081610b3d60019360ff8760a81c16611096565b0193016108bb565b92602081610b5b60019360ff8760a01c16611096565b0193016108b3565b92602081610b7960019360ff8760981c16611096565b0193016108ab565b92602081610b9760019360ff8760901c16611096565b0193016108a3565b92602081610bb560019360ff8760881c16611096565b01930161089b565b92602081610bd360019360ff8760801c16611096565b019301610893565b92602081610bf160019360ff8760781c16611096565b01930161088b565b92602081610c0f60019360ff8760701c16611096565b019301610883565b92602081610c2d60019360ff8760681c16611096565b01930161087b565b92602081610c4b60019360ff8760601c16611096565b019301610873565b92602081610c6960019360ff8760581c16611096565b01930161086b565b92602081610c8760019360ff8760501c16611096565b019301610863565b92602081610ca560019360ff8760481c16611096565b01930161085b565b92602081610cc360019360ff8760401c16611096565b019301610853565b92602081610ce160019360ff8760381c16611096565b01930161084b565b92602081610cff60019360ff8760301c16611096565b019301610843565b92602081610d1d60019360ff8760281c16611096565b01930161083b565b92602081610d3a60019360ff87851c16611096565b019301610833565b92602081610d5860019360ff8760181c16611096565b01930161082b565b92602081610d7660019360ff8760101c16611096565b019301610823565b92602081610d9460019360ff8760081c16611096565b01930161081b565b92602081610daf60019360ff8716611096565b019301610813565b9350909160016104006020926110328754610dd58360ff8316611096565b610de786840160ff8360081c16611096565b610dfa6040840160ff8360101c16611096565b610e0d6060840160ff8360181c16611096565b610e1f6080840160ff83891c16611096565b610e3260a0840160ff8360281c16611096565b610e4560c0840160ff8360301c16611096565b610e5860e0840160ff8360381c16611096565b610e6c610100840160ff8360401c16611096565b610e80610120840160ff8360481c16611096565b610e94610140840160ff8360501c16611096565b610ea8610160840160ff8360581c16611096565b610ebc610180840160ff8360601c16611096565b610ed06101a0840160ff8360681c16611096565b610ee46101c0840160ff8360701c16611096565b610ef86101e0840160ff8360781c16611096565b610f0c610200840160ff8360801c16611096565b610f20610220840160ff8360881c16611096565b610f34610240840160ff8360901c16611096565b610f48610260840160ff8360981c16611096565b610f5c610280840160ff8360a01c16611096565b610f706102a0840160ff8360a81c16611096565b610f846102c0840160ff8360b01c16611096565b610f986102e0840160ff8360b81c16611096565b610fac610300840160ff8360c01c16611096565b610fc0610320840160ff8360c81c16611096565b610fd4610340840160ff8360d01c16611096565b610fe8610360840160ff8360d81c16611096565b610ffc610380840160ff8360e01c16611096565b6110106103a0840160ff8360e81c16611096565b6110246103c0840160ff8360f01c16611096565b6103e083019060f81c611096565b0194019201908893926107f4565b84546001600160a01b03168352600194850194889450602090930192016107b5565b60609060031901126100cf57600435906024359060443590565b90600e82101561052d5752565b90600682101561052d5752565b90600582101561052d5752565b60409060031901126100cf576004359060243590565b604435906001600160a01b03821682036100cf57565b606435906001600160a01b03821682036100cf57565b35906001600160a01b03821682036100cf57565b6064359081151582036100cf57565b6084359081151582036100cf57565b61010081019081106001600160401b0382111761113357604052565b634e487b7160e01b600052604160045260246000fd5b90601f801991011681019081106001600160401b0382111761113357604052565b6001600160401b0381116111335760051b60200190565b81811061118c575050565b6000815560010161118156fea2646970667358221220bc0869eb467349ccf0aad83a92c561ef07d6338ee5b9729b388256d5a24ebeb064736f6c634300081c0033",
  "linkReferences": {},
  "deployedLinkReferences": {}
}