{
  "_format": "hh-sol-artifact-1",
  "contractName": "MockRoundsForActivation",
  "sourceName": "contracts/test-helpers/MockRoundsForActivation.sol",
  "abi": [
    {
      "inputs": [
        {
          "components": [
            {
              "internalType": "enum ITransactions.ResultType",
              "name": "result",
              "type": "uint8"
            },
            {
              "internalType": "enum ITransactions.VoteType",
              "name": "txExecutionResult",
              "type": "uint8"
            },
            {
              "internalType": "enum ITransactions.TransactionStatus",
              "name": "previousStatus",
              "type": "uint8"
            },
            {
              "internalType": "enum ITransactions.TransactionStatus",
              "name": "status",
              "type": "uint8"
            },
            {
              "internalType": "address",
              "name": "txOrigin",
              "type": "address"
            },
            {
              "internalType": "address",
              "name": "sender",
              "type": "address"
            },
            {
              "internalType": "address",
              "name": "recipient",
              "type": "address"
            },
            {
              "internalType": "address",
              "name": "activator",
              "type": "address"
            },
            {
              "internalType": "uint256",
              "name": "txSlot",
              "type": "uint256"
            },
            {
              "internalType": "uint256",
              "name": "initialRotations",
              "type": "uint256"
            },
            {
              "internalType": "uint256",
              "name": "numOfInitialValidators",
              "type": "uint256"
            },
            {
              "internalType": "uint256",
              "name": "epoch",
              "type": "uint256"
            },
            {
              "internalType": "bytes32",
              "name": "id",
              "type": "bytes32"
            },
            {
              "internalType": "bytes32",
              "name": "randomSeed",
              "type": "bytes32"
            },
            {
              "internalType": "bytes32",
              "name": "txExecutionHash",
              "type": "bytes32"
            },
            {
              "internalType": "bytes32",
              "name": "resultHash",
              "type": "bytes32"
            },
            {
              "internalType": "bytes",
              "name": "txCalldata",
              "type": "bytes"
            },
            {
              "internalType": "bytes",
              "name": "eqBlocksOutputs",
              "type": "bytes"
            },
            {
              "components": [
                {
                  "internalType": "uint256",
                  "name": "activationBlock",
                  "type": "uint256"
                },
                {
                  "internalType": "uint256",
                  "name": "processingBlock",
                  "type": "uint256"
                },
                {
                  "internalType": "uint256",
                  "name": "proposalBlock",
                  "type": "uint256"
                }
              ],
              "internalType": "struct ITransactions.ReadStateBlockRange[]",
              "name": "readStateBlockRanges",
              "type": "tuple[]"
            },
            {
              "internalType": "uint256",
              "name": "validUntil",
              "type": "uint256"
            },
            {
              "internalType": "uint256",
              "name": "value",
              "type": "uint256"
            },
            {
              "internalType": "uint256",
              "name": "lockedStorageUnitPrice",
              "type": "uint256"
            },
            {
              "internalType": "uint256",
              "name": "storageFeeUsed",
              "type": "uint256"
            }
          ],
          "internalType": "struct ITransactions.Transaction",
          "name": "",
          "type": "tuple"
        }
      ],
      "name": "createFirstRound",
      "outputs": [
        {
          "internalType": "bool",
          "name": "isInvalid",
          "type": "bool"
        },
        {
          "internalType": "address[]",
          "name": "roundValidators",
          "type": "address[]"
        },
        {
          "internalType": "uint256",
          "name": "leaderIndex",
          "type": "uint256"
        }
      ],
      "stateMutability": "view",
      "type": "function"
    },
    {
      "inputs": [
        {
          "internalType": "bytes32",
          "name": "txId",
          "type": "bytes32"
        }
      ],
      "name": "getLastRoundData",
      "outputs": [
        {
          "internalType": "uint256",
          "name": "",
          "type": "uint256"
        },
        {
          "components": [
            {
              "internalType": "uint256",
              "name": "round",
              "type": "uint256"
            },
            {
              "internalType": "uint256",
              "name": "leaderIndex",
              "type": "uint256"
            },
            {
              "internalType": "uint256",
              "name": "votesCommitted",
              "type": "uint256"
            },
            {
              "internalType": "uint256",
              "name": "votesRevealed",
              "type": "uint256"
            },
            {
              "internalType": "uint256",
              "name": "appealBond",
              "type": "uint256"
            },
            {
              "internalType": "uint256",
              "name": "rotationsLeft",
              "type": "uint256"
            },
            {
              "internalType": "enum ITransactions.ResultType",
              "name": "result",
              "type": "uint8"
            },
            {
              "internalType": "address[]",
              "name": "roundValidators",
              "type": "address[]"
            },
            {
              "internalType": "enum ITransactions.VoteType[]",
              "name": "validatorVotes",
              "type": "uint8[]"
            },
            {
              "internalType": "bytes32[]",
              "name": "validatorVotesHash",
              "type": "bytes32[]"
            },
            {
              "internalType": "bytes32[]",
              "name": "validatorResultHash",
              "type": "bytes32[]"
            }
          ],
          "internalType": "struct ITransactions.RoundData",
          "name": "",
          "type": "tuple"
        }
      ],
      "stateMutability": "view",
      "type": "function"
    },
    {
      "inputs": [
        {
          "internalType": "bytes32",
          "name": "",
          "type": "bytes32"
        }
      ],
      "name": "getRotationsLeft",
      "outputs": [
        {
          "internalType": "uint256",
          "name": "",
          "type": "uint256"
        }
      ],
      "stateMutability": "pure",
      "type": "function"
    },
    {
      "inputs": [
        {
          "internalType": "bytes32",
          "name": "txId",
          "type": "bytes32"
        },
        {
          "internalType": "uint256",
          "name": "round",
          "type": "uint256"
        }
      ],
      "name": "getRoundData",
      "outputs": [
        {
          "components": [
            {
              "internalType": "uint256",
              "name": "round",
              "type": "uint256"
            },
            {
              "internalType": "uint256",
              "name": "leaderIndex",
              "type": "uint256"
            },
            {
              "internalType": "uint256",
              "name": "votesCommitted",
              "type": "uint256"
            },
            {
              "internalType": "uint256",
              "name": "votesRevealed",
              "type": "uint256"
            },
            {
              "internalType": "uint256",
              "name": "appealBond",
              "type": "uint256"
            },
            {
              "internalType": "uint256",
              "name": "rotationsLeft",
              "type": "uint256"
            },
            {
              "internalType": "enum ITransactions.ResultType",
              "name": "result",
              "type": "uint8"
            },
            {
              "internalType": "address[]",
              "name": "roundValidators",
              "type": "address[]"
            },
            {
              "internalType": "enum ITransactions.VoteType[]",
              "name": "validatorVotes",
              "type": "uint8[]"
            },
            {
              "internalType": "bytes32[]",
              "name": "validatorVotesHash",
              "type": "bytes32[]"
            },
            {
              "internalType": "bytes32[]",
              "name": "validatorResultHash",
              "type": "bytes32[]"
            }
          ],
          "internalType": "struct ITransactions.RoundData",
          "name": "",
          "type": "tuple"
        }
      ],
      "stateMutability": "view",
      "type": "function"
    },
    {
      "inputs": [
        {
          "internalType": "bytes32",
          "name": "txId",
          "type": "bytes32"
        }
      ],
      "name": "getRoundNumber",
      "outputs": [
        {
          "internalType": "uint256",
          "name": "",
          "type": "uint256"
        }
      ],
      "stateMutability": "view",
      "type": "function"
    },
    {
      "inputs": [
        {
          "internalType": "bool",
          "name": "isInvalid",
          "type": "bool"
        },
        {
          "internalType": "address[]",
          "name": "validators",
          "type": "address[]"
        },
        {
          "internalType": "uint256",
          "name": "leaderIndex",
          "type": "uint256"
        }
      ],
      "name": "setMockCreateFirstRound",
      "outputs": [],
      "stateMutability": "nonpayable",
      "type": "function"
    },
    {
      "inputs": [
        {
          "internalType": "bytes32",
          "name": "txId",
          "type": "bytes32"
        },
        {
          "internalType": "uint256",
          "name": "round",
          "type": "uint256"
        },
        {
          "internalType": "uint256",
          "name": "leaderIndex",
          "type": "uint256"
        },
        {
          "internalType": "address[]",
          "name": "validators",
          "type": "address[]"
        }
      ],
      "name": "setMockRoundData",
      "outputs": [],
      "stateMutability": "nonpayable",
      "type": "function"
    }
  ],
  "bytecode": "0x60808060405234601557611278908161001b8239f35b600080fdfe6080604052600436101561001257600080fd5b60003560e01c80635af544691461065e57806384c24831146105ef578063ba15d635146105c3578063c159bfc3146104cf578063c52814781461019c578063cac614061461008a5763f66530b91461006957600080fd5b3461008557602036600319011261008557602060405160038152f35b600080fd5b3461008557606036600319011261008557600435801515809103610085576024356001600160401b038111610085576100c790369060040161088c565b9060ff8019600254169116176002558051906001600160401b03821161018657600160401b82116101865760035482600355808310610140575b5060200190600360005260206000209160005b82811061012357604435600455005b81516001600160a01b031681850155602090910190600101610114565b60036000527fc2575a0e9e593c00f959f8c92f12db2869c3395a3b0502d05e2516446f71f85b9081019083015b81811061017a5750610101565b6000815560010161016d565b634e487b7160e01b600052604160045260246000fd5b34610085576020366003190112610085576004356001600160401b038111610085576102e0600319823603011261008557604051906102e082018281106001600160401b038211176101865760405280600401356006811015610085578252602481013560058110156100855760208301526044810135600f8110156100855760408301526064810135600f81101561008557606083015261024060848201610878565b608083015261025160a48201610878565b60a083015261026260c48201610878565b60c083015261027360e48201610878565b60e08301526101048101356101008301526101248101356101208301526101448101356101408301526101648101356101608301526101848101356101808301526101a48101356101a08301526101c48101356101c08301526101e48101356101e08301526102048101356001600160401b038111610085576102fc90600436918401016108f1565b6102008301526102248101356001600160401b0381116100855761032690600436918401016108f1565b6102208301526102448101356001600160401b0381116100855781013660238201121561008557600481013561035b81610861565b916103696040519384610840565b8183526020600460608286019402830101019036821161008557602401915b81831061048057856102c06102c487876102408501526102648101356102608501526102848101356102808501526102a48101356102a0850152013591015260ff60025416600454604051906003549081835260208301918383600360005260206000209260005b81811061045e57505061040592500384610840565b60405192606084019415158452606060208501525180945260808301916000945b80861061043b57505082935060408301520390f35b81516001600160a01b031684526001959095019460209384019390910190610426565b84546001600160a01b03168352600194850194889450602090930192016103f0565b606083360312610085576040519060608201908282106001600160401b038311176101865760609260209260405285358152828601358382015260408601356040820152815201920191610388565b34610085576080366003190112610085576004356024356064356001600160401b0381116100855761050590369060040161088c565b60009283526020838152604080852084905560018083528186208587529092529093209182556044359282019290925581516007909101916001600160401b03821161018657600160401b821161018657825482845580831061059a575b506020019160005260206000209160005b82811061057d57005b81516001600160a01b031681850155602090910190600101610574565b8360005282602060002091820191015b8181106105b75750610563565b600081556001016105aa565b346100855760203660031901126100855760043560005260006020526020604060002054604051908152f35b346100855760203660031901126100855760043561060b610947565b5080600052600060205260406000205490600052600160205260406000208160005260205261063d60406000206109ec565b9061065a604051928392835260406020840152604083019061070c565b0390f35b3461008557604036600319011261008557610677610947565b506004356000526001602052604060002060243560005260205261065a6106a160406000206109ec565b60405191829160208352602083019061070c565b9060058210156106c25752565b634e487b7160e01b600052602160045260246000fd5b906020808351928381520192019060005b8181106106f65750505090565b82518452602093840193909201916001016106e9565b919091610160830192815181526020820151602082015260408201516040820152606082015160608201526080820151608082015260a082015160a082015260c082015160068110156106c25760c082015260e08201519361016060e083015284518091526020610180830195019060005b81811061080557505050610100820151938181036101008301526020808651928381520195019060005b8181106107e6575050506101406107d16107e394956101208501518482036101208601526106d8565b920151906101408184039101526106d8565b90565b909195602080826107fa6001948b516106b5565b0197019291016107a8565b82516001600160a01b031687526020968701969092019160010161077e565b61016081019081106001600160401b0382111761018657604052565b90601f801991011681019081106001600160401b0382111761018657604052565b6001600160401b0381116101865760051b60200190565b35906001600160a01b038216820361008557565b9080601f830112156100855781356108a381610861565b926108b16040519485610840565b81845260208085019260051b82010192831161008557602001905b8282106108d95750505090565b602080916108e684610878565b8152019101906108cc565b81601f82011215610085578035906001600160401b0382116101865760405192610925601f8401601f191660200185610840565b8284526020838301011161008557816000926020809301838601378301015290565b6040519061095482610824565b60606101408360008152600060208201526000604082015260008382015260006080820152600060a0820152600060c08201528260e082015282610100820152826101208201520152565b906040519182815491828252602082019060005260206000209260005b8181106109d35750506109d192500383610840565b565b84548352600194850194879450602090930192016109bc565b906040516109f981610824565b80928054825260018101546020830152600281015460408301526003810154606083015260048101546080830152600581015460a083015260ff60068201541660068110156106c25760c0830152600781016040519081815491828252602082019060005260206000209260005b818110611220575050610a7c92500382610840565b60e0830152600881016040519081602082549182815201916000526020600020906000915b81601f840110610f9d5784600a946101409794610be39794610bc5945491818110610f82575b818110610f64575b818110610f46575b818110610f28575b818110610f0b575b818110610eed575b818110610ecf575b818110610eb1575b818110610e93575b818110610e75575b818110610e57575b818110610e39575b818110610e1b575b818110610dfd575b818110610ddf575b818110610dc1575b818110610da3575b818110610d85575b818110610d67575b818110610d49575b818110610d2b575b818110610d0d575b818110610cef575b818110610cd1575b818110610cb3575b818110610c95575b818110610c77575b818110610c59575b818110610c3b575b818110610c1d575b818110610bff575b10610be8575b500382610840565b610100860152610bd76009820161099f565b6101208601520161099f565b910152565b90610bf88160209360f81c6106b5565b0138610bbd565b92602081610c1560019360ff8760f01c166106b5565b019301610bb7565b92602081610c3360019360ff8760e81c166106b5565b019301610baf565b92602081610c5160019360ff8760e01c166106b5565b019301610ba7565b92602081610c6f60019360ff8760d81c166106b5565b019301610b9f565b92602081610c8d60019360ff8760d01c166106b5565b019301610b97565b92602081610cab60019360ff8760c81c166106b5565b019301610b8f565b92602081610cc960019360ff8760c01c166106b5565b019301610b87565b92602081610ce760019360ff8760b81c166106b5565b019301610b7f565b92602081610d0560019360ff8760b01c166106b5565b019301610b77565b92602081610d2360019360ff8760a81c166106b5565b019301610b6f565b92602081610d4160019360ff8760a01c166106b5565b019301610b67565b92602081610d5f60019360ff8760981c166106b5565b019301610b5f565b92602081610d7d60019360ff8760901c166106b5565b019301610b57565b92602081610d9b60019360ff8760881c166106b5565b019301610b4f565b92602081610db960019360ff8760801c166106b5565b019301610b47565b92602081610dd760019360ff8760781c166106b5565b019301610b3f565b92602081610df560019360ff8760701c166106b5565b019301610b37565b92602081610e1360019360ff8760681c166106b5565b019301610b2f565b92602081610e3160019360ff8760601c166106b5565b019301610b27565b92602081610e4f60019360ff8760581c166106b5565b019301610b1f565b92602081610e6d60019360ff8760501c166106b5565b019301610b17565b92602081610e8b60019360ff8760481c166106b5565b019301610b0f565b92602081610ea960019360ff8760401c166106b5565b019301610b07565b92602081610ec760019360ff8760381c166106b5565b019301610aff565b92602081610ee560019360ff8760301c166106b5565b019301610af7565b92602081610f0360019360ff8760281c166106b5565b019301610aef565b92602081610f2060019360ff87851c166106b5565b019301610ae7565b92602081610f3e60019360ff8760181c166106b5565b019301610adf565b92602081610f5c60019360ff8760101c166106b5565b019301610ad7565b92602081610f7a60019360ff8760081c166106b5565b019301610acf565b92602081610f9560019360ff87166106b5565b019301610ac7565b9260016104006020926112158754610fb88360ff83166106b5565b610fca86840160ff8360081c166106b5565b610fdd6040840160ff8360101c166106b5565b610ff06060840160ff8360181c166106b5565b6110026080840160ff83891c166106b5565b61101560a0840160ff8360281c166106b5565b61102860c0840160ff8360301c166106b5565b61103b60e0840160ff8360381c166106b5565b61104f610100840160ff8360401c166106b5565b611063610120840160ff8360481c166106b5565b611077610140840160ff8360501c166106b5565b61108b610160840160ff8360581c166106b5565b61109f610180840160ff8360601c166106b5565b6110b36101a0840160ff8360681c166106b5565b6110c76101c0840160ff8360701c166106b5565b6110db6101e0840160ff8360781c166106b5565b6110ef610200840160ff8360801c166106b5565b611103610220840160ff8360881c166106b5565b611117610240840160ff8360901c166106b5565b61112b610260840160ff8360981c166106b5565b61113f610280840160ff8360a01c166106b5565b6111536102a0840160ff8360a81c166106b5565b6111676102c0840160ff8360b01c166106b5565b61117b6102e0840160ff8360b81c166106b5565b61118f610300840160ff8360c01c166106b5565b6111a3610320840160ff8360c81c166106b5565b6111b7610340840160ff8360d01c166106b5565b6111cb610360840160ff8360d81c166106b5565b6111df610380840160ff8360e01c166106b5565b6111f36103a0840160ff8360e81c166106b5565b6112076103c0840160ff8360f01c166106b5565b6103e083019060f81c6106b5565b019401920191610aa1565b84546001600160a01b0316835260019485019486945060209093019201610a6756fea26469706673582212204012587aec99062c30b72aca1b5cce41e85a876b7962647f10d538425329712a64736f6c634300081c0033",
  "linkReferences": {},
  "deployedLinkReferences": {}
}