{
  "_format": "hh-sol-artifact-1",
  "contractName": "FeesProcessorTestHarness",
  "sourceName": "contracts/test-helpers/FeesProcessorTestHarness.sol",
  "abi": [
    {
      "inputs": [],
      "name": "AccessControlBadConfirmation",
      "type": "error"
    },
    {
      "inputs": [
        {
          "internalType": "address",
          "name": "account",
          "type": "address"
        },
        {
          "internalType": "bytes32",
          "name": "neededRole",
          "type": "bytes32"
        }
      ],
      "name": "AccessControlUnauthorizedAccount",
      "type": "error"
    },
    {
      "inputs": [],
      "name": "InvalidInitialization",
      "type": "error"
    },
    {
      "inputs": [],
      "name": "NotInitializing",
      "type": "error"
    },
    {
      "inputs": [],
      "name": "OnlyFeeManager",
      "type": "error"
    },
    {
      "inputs": [
        {
          "internalType": "address",
          "name": "owner",
          "type": "address"
        }
      ],
      "name": "OwnableInvalidOwner",
      "type": "error"
    },
    {
      "inputs": [
        {
          "internalType": "address",
          "name": "account",
          "type": "address"
        }
      ],
      "name": "OwnableUnauthorizedAccount",
      "type": "error"
    },
    {
      "inputs": [],
      "name": "ReentrancyGuardReentrantCall",
      "type": "error"
    },
    {
      "anonymous": false,
      "inputs": [
        {
          "indexed": true,
          "internalType": "bytes32",
          "name": "txId",
          "type": "bytes32"
        },
        {
          "indexed": true,
          "internalType": "uint256",
          "name": "round",
          "type": "uint256"
        },
        {
          "indexed": true,
          "internalType": "address",
          "name": "appealer",
          "type": "address"
        },
        {
          "indexed": false,
          "internalType": "uint256",
          "name": "bondAmount",
          "type": "uint256"
        },
        {
          "indexed": false,
          "internalType": "bool",
          "name": "success",
          "type": "bool"
        },
        {
          "indexed": false,
          "internalType": "uint256",
          "name": "returnAmount",
          "type": "uint256"
        }
      ],
      "name": "AppealBondResolved",
      "type": "event"
    },
    {
      "anonymous": false,
      "inputs": [
        {
          "indexed": false,
          "internalType": "uint64",
          "name": "version",
          "type": "uint64"
        }
      ],
      "name": "Initialized",
      "type": "event"
    },
    {
      "anonymous": false,
      "inputs": [
        {
          "indexed": true,
          "internalType": "address",
          "name": "previousOwner",
          "type": "address"
        },
        {
          "indexed": true,
          "internalType": "address",
          "name": "newOwner",
          "type": "address"
        }
      ],
      "name": "OwnershipTransferStarted",
      "type": "event"
    },
    {
      "anonymous": false,
      "inputs": [
        {
          "indexed": true,
          "internalType": "address",
          "name": "previousOwner",
          "type": "address"
        },
        {
          "indexed": true,
          "internalType": "address",
          "name": "newOwner",
          "type": "address"
        }
      ],
      "name": "OwnershipTransferred",
      "type": "event"
    },
    {
      "anonymous": false,
      "inputs": [
        {
          "indexed": true,
          "internalType": "bytes32",
          "name": "role",
          "type": "bytes32"
        },
        {
          "indexed": true,
          "internalType": "bytes32",
          "name": "previousAdminRole",
          "type": "bytes32"
        },
        {
          "indexed": true,
          "internalType": "bytes32",
          "name": "newAdminRole",
          "type": "bytes32"
        }
      ],
      "name": "RoleAdminChanged",
      "type": "event"
    },
    {
      "anonymous": false,
      "inputs": [
        {
          "indexed": true,
          "internalType": "bytes32",
          "name": "role",
          "type": "bytes32"
        },
        {
          "indexed": true,
          "internalType": "address",
          "name": "account",
          "type": "address"
        },
        {
          "indexed": true,
          "internalType": "address",
          "name": "sender",
          "type": "address"
        }
      ],
      "name": "RoleGranted",
      "type": "event"
    },
    {
      "anonymous": false,
      "inputs": [
        {
          "indexed": true,
          "internalType": "bytes32",
          "name": "role",
          "type": "bytes32"
        },
        {
          "indexed": true,
          "internalType": "address",
          "name": "account",
          "type": "address"
        },
        {
          "indexed": true,
          "internalType": "address",
          "name": "sender",
          "type": "address"
        }
      ],
      "name": "RoleRevoked",
      "type": "event"
    },
    {
      "anonymous": false,
      "inputs": [
        {
          "indexed": true,
          "internalType": "bytes32",
          "name": "txId",
          "type": "bytes32"
        },
        {
          "indexed": true,
          "internalType": "uint256",
          "name": "round",
          "type": "uint256"
        },
        {
          "indexed": true,
          "internalType": "address",
          "name": "validator",
          "type": "address"
        },
        {
          "indexed": false,
          "internalType": "uint256",
          "name": "feeAmount",
          "type": "uint256"
        },
        {
          "indexed": false,
          "internalType": "bool",
          "name": "isLeader",
          "type": "bool"
        }
      ],
      "name": "ValidatorFeeDistributed",
      "type": "event"
    },
    {
      "anonymous": false,
      "inputs": [
        {
          "indexed": true,
          "internalType": "bytes32",
          "name": "txId",
          "type": "bytes32"
        },
        {
          "indexed": true,
          "internalType": "uint256",
          "name": "round",
          "type": "uint256"
        },
        {
          "indexed": true,
          "internalType": "address",
          "name": "validator",
          "type": "address"
        },
        {
          "indexed": false,
          "internalType": "uint256",
          "name": "penaltyAmount",
          "type": "uint256"
        }
      ],
      "name": "ValidatorPenaltyRecorded",
      "type": "event"
    },
    {
      "inputs": [],
      "name": "DEFAULT_ADMIN_ROLE",
      "outputs": [
        {
          "internalType": "bytes32",
          "name": "",
          "type": "bytes32"
        }
      ],
      "stateMutability": "view",
      "type": "function"
    },
    {
      "inputs": [],
      "name": "acceptOwnership",
      "outputs": [],
      "stateMutability": "nonpayable",
      "type": "function"
    },
    {
      "inputs": [
        {
          "internalType": "bytes32",
          "name": "txId",
          "type": "bytes32"
        },
        {
          "internalType": "address",
          "name": "validator",
          "type": "address"
        }
      ],
      "name": "distributedFeesPerValidatorForTx",
      "outputs": [
        {
          "internalType": "uint256",
          "name": "finalFees",
          "type": "uint256"
        }
      ],
      "stateMutability": "view",
      "type": "function"
    },
    {
      "inputs": [],
      "name": "feeManager",
      "outputs": [
        {
          "internalType": "contract IFeeManager",
          "name": "",
          "type": "address"
        }
      ],
      "stateMutability": "view",
      "type": "function"
    },
    {
      "inputs": [],
      "name": "feeRecorder",
      "outputs": [
        {
          "internalType": "contract IFeesRecorder",
          "name": "",
          "type": "address"
        }
      ],
      "stateMutability": "view",
      "type": "function"
    },
    {
      "inputs": [
        {
          "internalType": "bytes32",
          "name": "txId",
          "type": "bytes32"
        },
        {
          "internalType": "uint256",
          "name": "round",
          "type": "uint256"
        }
      ],
      "name": "feesToReturnToAppealer",
      "outputs": [
        {
          "internalType": "uint256",
          "name": "totalRewards",
          "type": "uint256"
        },
        {
          "internalType": "address",
          "name": "appealerAddress",
          "type": "address"
        }
      ],
      "stateMutability": "view",
      "type": "function"
    },
    {
      "inputs": [
        {
          "internalType": "bytes32",
          "name": "txId",
          "type": "bytes32"
        }
      ],
      "name": "feesToReturnToUser",
      "outputs": [
        {
          "internalType": "uint256",
          "name": "feesAmount",
          "type": "uint256"
        }
      ],
      "stateMutability": "view",
      "type": "function"
    },
    {
      "inputs": [
        {
          "internalType": "bytes32",
          "name": "role",
          "type": "bytes32"
        }
      ],
      "name": "getRoleAdmin",
      "outputs": [
        {
          "internalType": "bytes32",
          "name": "",
          "type": "bytes32"
        }
      ],
      "stateMutability": "view",
      "type": "function"
    },
    {
      "inputs": [
        {
          "internalType": "bytes32",
          "name": "role",
          "type": "bytes32"
        },
        {
          "internalType": "address",
          "name": "account",
          "type": "address"
        }
      ],
      "name": "grantRole",
      "outputs": [],
      "stateMutability": "nonpayable",
      "type": "function"
    },
    {
      "inputs": [
        {
          "internalType": "bytes32",
          "name": "role",
          "type": "bytes32"
        },
        {
          "internalType": "address",
          "name": "account",
          "type": "address"
        }
      ],
      "name": "hasRole",
      "outputs": [
        {
          "internalType": "bool",
          "name": "",
          "type": "bool"
        }
      ],
      "stateMutability": "view",
      "type": "function"
    },
    {
      "inputs": [
        {
          "internalType": "address",
          "name": "_feeManager",
          "type": "address"
        },
        {
          "internalType": "address",
          "name": "_feeRecorder",
          "type": "address"
        }
      ],
      "name": "initialize",
      "outputs": [],
      "stateMutability": "nonpayable",
      "type": "function"
    },
    {
      "inputs": [
        {
          "internalType": "bytes32",
          "name": "txId",
          "type": "bytes32"
        }
      ],
      "name": "numOfValidatorsForDistribution",
      "outputs": [
        {
          "internalType": "uint256",
          "name": "numOfValidators",
          "type": "uint256"
        }
      ],
      "stateMutability": "view",
      "type": "function"
    },
    {
      "inputs": [],
      "name": "owner",
      "outputs": [
        {
          "internalType": "address",
          "name": "",
          "type": "address"
        }
      ],
      "stateMutability": "view",
      "type": "function"
    },
    {
      "inputs": [
        {
          "internalType": "bytes32",
          "name": "txId",
          "type": "bytes32"
        },
        {
          "internalType": "address",
          "name": "validator",
          "type": "address"
        }
      ],
      "name": "penaltiesPerValidatorForTx",
      "outputs": [
        {
          "internalType": "uint256",
          "name": "penalties",
          "type": "uint256"
        }
      ],
      "stateMutability": "view",
      "type": "function"
    },
    {
      "inputs": [],
      "name": "pendingOwner",
      "outputs": [
        {
          "internalType": "address",
          "name": "",
          "type": "address"
        }
      ],
      "stateMutability": "view",
      "type": "function"
    },
    {
      "inputs": [
        {
          "internalType": "bytes32",
          "name": "_txId",
          "type": "bytes32"
        },
        {
          "internalType": "uint256",
          "name": "_startRound",
          "type": "uint256"
        },
        {
          "internalType": "uint256",
          "name": "_finalRound",
          "type": "uint256"
        },
        {
          "internalType": "uint256",
          "name": "_validatorTimeoutFees",
          "type": "uint256"
        },
        {
          "internalType": "uint256",
          "name": "_leaderTimeoutFees",
          "type": "uint256"
        }
      ],
      "name": "processFeesForTx",
      "outputs": [
        {
          "internalType": "uint256",
          "name": "amountDistributed",
          "type": "uint256"
        },
        {
          "internalType": "uint256",
          "name": "numOfValidators",
          "type": "uint256"
        }
      ],
      "stateMutability": "nonpayable",
      "type": "function"
    },
    {
      "inputs": [],
      "name": "renounceOwnership",
      "outputs": [],
      "stateMutability": "nonpayable",
      "type": "function"
    },
    {
      "inputs": [
        {
          "internalType": "bytes32",
          "name": "role",
          "type": "bytes32"
        },
        {
          "internalType": "address",
          "name": "callerConfirmation",
          "type": "address"
        }
      ],
      "name": "renounceRole",
      "outputs": [],
      "stateMutability": "nonpayable",
      "type": "function"
    },
    {
      "inputs": [
        {
          "internalType": "bytes32",
          "name": "role",
          "type": "bytes32"
        },
        {
          "internalType": "address",
          "name": "account",
          "type": "address"
        }
      ],
      "name": "revokeRole",
      "outputs": [],
      "stateMutability": "nonpayable",
      "type": "function"
    },
    {
      "inputs": [
        {
          "internalType": "address",
          "name": "_feeManager",
          "type": "address"
        },
        {
          "internalType": "address",
          "name": "_feeRecorder",
          "type": "address"
        }
      ],
      "name": "setFeeManagerAndRecorder",
      "outputs": [],
      "stateMutability": "nonpayable",
      "type": "function"
    },
    {
      "inputs": [
        {
          "internalType": "bytes4",
          "name": "interfaceId",
          "type": "bytes4"
        }
      ],
      "name": "supportsInterface",
      "outputs": [
        {
          "internalType": "bool",
          "name": "",
          "type": "bool"
        }
      ],
      "stateMutability": "view",
      "type": "function"
    },
    {
      "inputs": [
        {
          "internalType": "enum ITransactions.VoteType",
          "name": "vote",
          "type": "uint8"
        },
        {
          "internalType": "enum ITransactions.ResultType",
          "name": "result",
          "type": "uint8"
        }
      ],
      "name": "testVoteAlignedWithResult",
      "outputs": [
        {
          "internalType": "bool",
          "name": "aligned",
          "type": "bool"
        }
      ],
      "stateMutability": "pure",
      "type": "function"
    },
    {
      "inputs": [
        {
          "internalType": "bytes32",
          "name": "txId",
          "type": "bytes32"
        }
      ],
      "name": "totalPenaltiesForTx",
      "outputs": [
        {
          "internalType": "uint256",
          "name": "totalPenalties",
          "type": "uint256"
        }
      ],
      "stateMutability": "view",
      "type": "function"
    },
    {
      "inputs": [
        {
          "internalType": "address",
          "name": "newOwner",
          "type": "address"
        }
      ],
      "name": "transferOwnership",
      "outputs": [],
      "stateMutability": "nonpayable",
      "type": "function"
    },
    {
      "inputs": [
        {
          "internalType": "bytes32",
          "name": "_txId",
          "type": "bytes32"
        },
        {
          "internalType": "uint256",
          "name": "_numOfValidators",
          "type": "uint256"
        }
      ],
      "name": "validatorsFinalDistribution",
      "outputs": [
        {
          "internalType": "address[]",
          "name": "validatorsToReceiveFees",
          "type": "address[]"
        },
        {
          "internalType": "uint256[]",
          "name": "validatorsToReceiveFeesAmount",
          "type": "uint256[]"
        }
      ],
      "stateMutability": "view",
      "type": "function"
    },
    {
      "inputs": [
        {
          "internalType": "uint256",
          "name": "index",
          "type": "uint256"
        }
      ],
      "name": "validatorsIndexToAddress",
      "outputs": [
        {
          "internalType": "address",
          "name": "validatorAddress",
          "type": "address"
        }
      ],
      "stateMutability": "view",
      "type": "function"
    },
    {
      "inputs": [
        {
          "internalType": "bytes32",
          "name": "_txId",
          "type": "bytes32"
        },
        {
          "internalType": "uint256",
          "name": "_numOfValidators",
          "type": "uint256"
        }
      ],
      "name": "validatorsPenaltyDistribution",
      "outputs": [
        {
          "internalType": "address[]",
          "name": "validators",
          "type": "address[]"
        },
        {
          "internalType": "uint256[]",
          "name": "penalties",
          "type": "uint256[]"
        }
      ],
      "stateMutability": "view",
      "type": "function"
    }
  ],
  "bytecode": "0x60808060405234601557612c1a908161001b8239f35b600080fdfe608080604052600436101561001357600080fd5b60003560e01c90816301ffc9a71461210857508063067fd330146120c8578063166bdf521461209c578063248a9ca3146120765780632f2ff15d1461204557806336568abe14611fff5780633cbf075914610930578063485cc955146107c3578063486dcb881461077b5780634b2aecd71461074f5780634ed97eed1461070757806353c0f4c7146106d35780635b3f9635146106405780635bda466f146105fc578063715018a61461057b57806379ba5097146104ca5780638bb7dcb1146104a15780638da5cb5b1461046b57806391d1485414610411578063a217fddf146103f5578063d0fb0203146103cc578063d547741f14610394578063dbfdb30a146102cd578063e30c397814610297578063e54de61714610200578063e9cd2fa9146101d45763f2fde38b1461014857600080fd5b346101cf5760203660031901126101cf57610161612171565b61016961296c565b600080516020612ba583398151915280546001600160a01b0319166001600160a01b03928316908117909155600080516020612b25833981519152549091167f38d16b8cac22d99fc7c124b9cd0de2d3fa1faef420bfe791d8c362d765e22700600080a3005b600080fd5b346101cf5760203660031901126101cf5760043560005260056020526020604060002054604051908152f35b346101cf5761020e36612187565b610217816124a7565b90610221816124a7565b9260005b8281106102425750505061023e6040519283928361219d565b0390f35b8060019160005260036020526040828060a01b038160002054168061026784896124d9565b5284600052600760205281600020600091858060a01b03168252602052205461029082886124d9565b5201610225565b346101cf5760003660031901126101cf57600080516020612ba5833981519152546040516001600160a01b039091168152602090f35b346101cf5760403660031901126101cf576102e6612171565b6102ee61215b565b906102f761296c565b6001600160a01b031680158015610383575b61033e57600080546001600160a01b0319908116929092179055600180549091166001600160a01b0392909216919091179055005b60405162461bcd60e51b815260206004820152601b60248201527f4665657350726f636573736f723a207a65726f206164647265737300000000006044820152606490fd5b506001600160a01b03821615610309565b346101cf5760403660031901126101cf576103ca6004356103b361215b565b906103c56103c08261221a565b6125bd565b6126b0565b005b346101cf5760003660031901126101cf576000546040516001600160a01b039091168152602090f35b346101cf5760003660031901126101cf57602060405160008152f35b346101cf5760403660031901126101cf5761042a61215b565b600435600052600080516020612b6583398151915260205260406000209060018060a01b0316600052602052602060ff604060002054166040519015158152f35b346101cf5760003660031901126101cf57600080516020612b25833981519152546040516001600160a01b039091168152602090f35b346101cf5760003660031901126101cf576001546040516001600160a01b039091168152602090f35b346101cf5760003660031901126101cf57600080516020612ba583398151915254336001600160a01b039091160361056657600080516020612ba583398151915280546001600160a01b0319908116909155600080516020612b2583398151915280543392811683179091556001600160a01b03167f8be0079c531659141344cd1fd0a4f28419497f9722a3daafe3b4186f6b6457e0600080a3005b63118cdaa760e01b6000523360045260246000fd5b346101cf5760003660031901126101cf5761059461296c565b600080516020612ba583398151915280546001600160a01b0319908116909155600080516020612b25833981519152805491821690556000906001600160a01b03167f8be0079c531659141344cd1fd0a4f28419497f9722a3daafe3b4186f6b6457e08280a3005b346101cf5761060a36612187565b9060005260066020526040600020906000526020526040806000208054906001808060a01b039101541682519182526020820152f35b346101cf5761064e36612187565b610657816124a7565b90610661816124a7565b9260005b82811061067e5750505061023e6040519283928361219d565b8060019160005260036020526040828060a01b03816000205416806106a384896124d9565b5284600052600260205281600020600091858060a01b0316825260205220546106cc82886124d9565b5201610665565b346101cf5760203660031901126101cf576004356000526003602052602060018060a01b0360406000205416604051908152f35b346101cf5760403660031901126101cf5761072061215b565b600435600052600260205260406000209060018060a01b03166000526020526020604060002054604051908152f35b346101cf5760203660031901126101cf5760043560005260086020526020604060002054604051908152f35b346101cf5760403660031901126101cf5761079461215b565b600435600052600760205260406000209060018060a01b03166000526020526020604060002054604051908152f35b346101cf5760403660031901126101cf576107dc612171565b6107e461215b565b600080516020612b85833981519152549160ff8360401c1615926001600160401b03811680159081610928575b600114908161091e575b159081610915575b506109045767ffffffffffffffff198116600117600080516020612b8583398151915255836108d7575b50600080546001600160a01b039283166001600160a01b0319918216179091556001805493909216921691909117905561088357005b60ff60401b19600080516020612b858339815191525416600080516020612b85833981519152557fc7f505b2f371ae2175ee4913f4499e1f2633a7b5936321eed1cdaeb6115181d2602060405160018152a1005b68ffffffffffffffffff19166801000000000000000117600080516020612b85833981519152558361084d565b63f92ee8a960e01b60005260046000fd5b90501585610823565b303b15915061081b565b859150610811565b346101cf5760a03660031901126101cf576000546001600160a01b03163303611fee576000806024355b604435811115610983576040826004356000526004602052816000205482519182526020820152f35b9060018060a01b036001541690604051630662ded760e41b81526004356004820152836024820152602081604481865afa908115611f5c57600091611fbd575b50600160009111600014611fb25750604051630662ded760e41b81526004356004820152836024820152602081604481865afa908115611f5c57600091611f7e575b506000198101908111611f68576000610a4b915b8094604051808095819463092d751360e01b83528a600435600485016040919493926060820195825260208201520152565b03915afa908115611f5c57600091611f43575b50805194600e861015611f2d57600095600103610e8d5750610aaa610a8e82610ab3946064359088600435612750565b604090920151608435906001600160a01b03168660043561298d565b6084359061247a565b916001915b8280610e84575b15610e7357610acd9061249a565b60015460405163092d751360e01b8152600480359082015260248101849052604481018390529192908690839060649082906001600160a01b03165afa918215610e68578692610e44575b50859260a08301515194610b2b866122b0565b95610b39604051978861227b565b808752610b48601f19916122b0565b01366020880137875b60a08501518051821015610c205760408601516001600160a01b0390811691610b7b9084906124d9565b511614610c1857610b908160c08701516124d9565b516005811015610c04576020860151906006821015610bf05790610bb391612503565b8015610be9575b610bc9575b6001905b01610b51565b94610bd560019161223b565b9581610be1828a6124d9565b529050610bbf565b5088610bba565b634e487b7160e01b8b52602160045260248bfd5b634e487b7160e01b8a52602160045260248afd5b600190610bc3565b505060a0840151519693949391885b60a08701518051821015610e355760408801516001600160a01b0390811691610c599084906124d9565b511614610c6857600101610c2f565b50979293949596610c7b9092919261249a565b505b841580610e2457610e1057610cab90610ca5610c9c855b60643561247a565b96606435612487565b9061247a565b96825b60a08701518051821015610dd0576040880151600192916001600160a01b039182169190610cdd9084906124d9565b511614610dcb57610cee818a6124d9565b5115610d1d57610d1787838060a01b03610d0c8460a08d01516124d9565b511688600435612a03565b01610cae565b818060a01b03610d318260a08b01516124d9565b5116610d3f81600435612a79565b6004358652600760205260408620838060a01b038216875260205260408620610d6b606435825461247a565b90556004358652600860205260408620610d88606435825461247a565b9055866040516064358152600080516020612bc5833981519152602060043592a46004358552600560205260408520610dc4606435825461247a565b9055610d17565b610d17565b50509350945094610dfc610e08929460843560011c90604060018060a01b03910151168660043561298d565b60843560011c9061247a565b929190610ab8565b634e487b7160e01b83526012600452602483fd5b50610cab90610ca5610c9c85610c94565b50509792939495965090610c7d565b610e619192503d8088833e610e59818361227b565b8101906122c7565b9086610b18565b6040513d88823e3d90fd5b50610e7f91935061223b565b61095a565b50801515610abf565b8151600e811015611f1957600503610ecf575060400151610ec69190610dfc9060843560011c906001600160a01b03168660043561298d565b91600191610ab8565b92908094929451600e811015611f1957600203610f2457610f0490610eff6084359160a060643591015151612487565b61247a565b60043586526005602052610f1d6040872091825461247a565b9055610ab8565b90928194929451600e811015611f19576004036112d2576001546001600160a01b031660001986018681116112be57879060646040518094819363092d751360e01b8352600435600484015260248301528460448301525afa80156112b3576080918891611299575b50015190869360a08401515195610fa3876122b0565b96610fb1604051988961227b565b808852610fc0601f19916122b0565b01366020890137885b60a086015180518210156110855760408701516001600160a01b0390811691610ff39084906124d9565b51161461107d576110088160c08801516124d9565b516005811015610bf0576020870151906006821015611069579061102b91612503565b8015611061575b611041575b6001905b01610fc9565b9561104d60019161223b565b9681611059828b6124d9565b529050611037565b506001611032565b634e487b7160e01b8c52602160045260248cfd5b60019061103b565b50509590969297919794939460a08601515197835b60a088015180518210156112865760408901516001600160a01b03908116916110c49084906124d9565b5116146110d35760010161109a565b506110e761110c929394959697989961249a565b505b861561127657610ca583610eff611103610c948b8461245a565b99606435612487565b90835b60a08801518051821015611231576040890151600192916001600160a01b03918216919061113e9084906124d9565b51161461122c5761114f81866124d9565b511561117e57611178888a61116d8460a08780821b039301516124d9565b511689600435612a03565b0161110f565b818060a01b036111928260a08c01516124d9565b51166111a081600435612a79565b6004358752600760205260408720838060a01b0382168852602052604087206111cc606435825461247a565b905560043587526008602052604087206111e9606435825461247a565b9055876040516064358152600080516020612bc5833981519152602060043592a46004358652600560205260408620611225606435825461247a565b9055611178565b611178565b5050969394509050610aaa61125c92979560843590604060018060a01b03910151168660043561298d565b9360043586526005602052610f1d6040872091825461247a565b610ca583610eff61110388610c94565b505061110c9192939495969798506110e9565b6112ad91503d808a833e610e59818361227b565b88610f8d565b6040513d89823e3d90fd5b634e487b7160e01b88526011600452602488fd5b8194929451600e811015611f1957600303611556576001546001600160a01b031660001984018481116112be57879060646040518094819363092d751360e01b8352600435600484015260248301528460448301525afa80156112b357608091889161153c575b50015193869360a0840151519561134f876122b0565b9661135d604051988961227b565b80885261136c601f19916122b0565b01366020890137885b60a0860151518110156113ee576113908160c08801516124d9565b516005811015610bf057602087015190600682101561106957906113b391612503565b80156113e7575b6113c7575b600101611375565b956113d360019161223b565b96816113df828b6124d9565b5290506113bf565b50896113ba565b5090939591966114199098939886151560001461127657610ca583610eff611103610c948b8461245a565b96835b60a088015151811015611512576001908561150d5761143b81866124d9565b511561145f57611459888a61116d8460a08780821b039301516124d9565b0161141c565b818060a01b036114738260a08c01516124d9565b511661148181600435612a79565b6004358752600760205260408720838060a01b0382168852602052604087206114ad606435825461247a565b905560043587526008602052604087206114ca606435825461247a565b9055876040516064358152600080516020612bc5833981519152602060043592a46004358652600560205260408620611506606435825461247a565b9055611459565b611459565b50939450959050610aaa61125c92979560843590604060018060a01b03910151168660043561298d565b61155091503d808a833e610e59818361227b565b88611339565b9290938451600e811015611f1957600603611639576001546001600160a01b03169460001984018481116112be57879060646040518099819363092d751360e01b8352600435600484015260248301528460448301525afa9081156112b35760806115e892610eff988a9161161f575b500151928360011c97888093604060018060a01b03910151168860043561298d565b94810390811161160b5760043586526005602052610f1d6040872091825461247a565b634e487b7160e01b86526011600452602486fd5b61163391503d808c833e610e59818361227b565b8a6115c6565b84919451600e811015611f19576007036116b457906116816116ae9261166660843560011c60843561247a565b90610eff8260018060a01b036040870151168860043561298d565b600435875260056020526040872061169f60843560011c825461247a565b90556064359084600435612750565b92610ab8565b9293918151600e811015611f1957600803611a6b57859260a083015151946116db866122b0565b956116e9604051978861227b565b8087526116f8601f19916122b0565b01366020880137875b60a085015180518210156117a85760408601516001600160a01b039081169161172b9084906124d9565b5116146117a0576117408160c08701516124d9565b516005811015610c04576020860151906006821015610bf0579061176391612503565b8015611799575b611779575b6001905b01611701565b9461178560019161223b565b9581611791828a6124d9565b52905061176f565b508861176a565b600190611773565b5050959496909693929360a08501515196825b60a08701518051821015611a5c5760408801516001600160a01b03908116916117e59084906124d9565b5116146117f4576001016117bb565b50909192939495966118059061249a565b505b841580611a4b57610e105761182590610ca5610c9c8560643561247a565b96825b60a0870151805182101561193f576040880151600192916001600160a01b0391821691906118579084906124d9565b51161461193a5761186881856124d9565b511561188c5761188687838060a01b03610d0c8460a08d01516124d9565b01611828565b818060a01b036118a08260a08b01516124d9565b51166118ae81600435612a79565b6004358652600760205260408620838060a01b0382168752602052604086206118da606435825461247a565b905560043586526008602052604086206118f7606435825461247a565b9055866040516064358152600080516020612bc5833981519152602060043592a46004358552600560205260408520611933606435825461247a565b9055611886565b611886565b5050929350509493929361195c6080860191825160011c9061247a565b9481516003810290808204600314901517156112be576040828101519051916001916001600160a01b0316906119918461224a565b821c8352602083019081526004358a52600660205260408a20878b5260205260408a2092518355818060a01b0390511691019060018060a01b031660018060a01b031982541617905560043587526005602052604087206119f5608435825461247a565b9055604060018060a01b0391015116905160038102818104600314821517156112be579084916040519182526001602083015260011c6040820152600080516020612b45833981519152606060043592a4610ab8565b5061182590610ca5610c9c85610c94565b50509091929394959650611807565b8194939451600e811015611f1957600903611d5057608082015192869360a08401515195611a98876122b0565b96611aa6604051988961227b565b808852611ab5601f19916122b0565b01366020890137885b60a08601518051821015611b655760408701516001600160a01b0390811691611ae89084906124d9565b511614611b5d57611afd8160c08801516124d9565b516005811015610bf05760208701519060068210156110695790611b2091612503565b8015611b56575b611b36575b6001905b01611abe565b95611b4260019161223b565b9681611b4e828b6124d9565b529050611b2c565b5089611b27565b600190611b30565b50509590969391979460a08301515197865b60a08501518051821015611d385760408601516001600160a01b0390811691611ba19084906124d9565b511614611bb057600101611b77565b50611bd290610eff611bca611be995969798999a9b61249a565b606435612487565b908015611d3057611be3908261245a565b9561247a565b96855b60a08401518051821015611ce6576040850151600192916001600160a01b039182169190611c1b9084906124d9565b511614611ce157611c2c81856124d9565b5115611c5057611c4a87838060a01b03610d0c8460a08a01516124d9565b01611bec565b818060a01b03611c648260a08801516124d9565b5116611c7281600435612a79565b6004358952600760205260408920838060a01b0382168a5260205260408920611c9e606435825461247a565b90556004358952600860205260408920611cbb606435825461247a565b9055866040516064358152600080516020612bc5833981519152602060043592a4611c4a565b611c4a565b5050929350509392949382608060018060a01b03604084015116920151604051908152876020820152876040820152600080516020612b45833981519152606060043592a4610ab8565b50869561247a565b5050611bd290610eff611be99495969798999a611bca565b9190938451600e811015611f1957600a03611e4557611d786080860191825160011c9061247a565b948151906003820291808304600314901517156112be57604001906001808060a01b0383511660405192611dab8461224a565b821c8352602083019081526004358a52600660205260408a20878b5260205260408a2092518355818060a01b0390511691019060018060a01b031660018060a01b031982541617905560018060a01b03905116905160038102818104600314821517156112be579084916040519182526001602083015260011c6040820152600080516020612b45833981519152606060043592a4610ab8565b938051600e811015611f1957600b03611e985782608060018060a01b03604084015116920151604051908152876020820152876040820152600080516020612b45833981519152606060043592a4610ab8565b938451600e811015611f1957600c03611ebe57611d786080860191825160011c9061247a565b938051600e811015611f1957600d14611ed8575b50610ab8565b82608060018060a01b03604084015116920151604051908152876020820152876040820152600080516020612b45833981519152606060043592a485611ed2565b634e487b7160e01b87526021600452602487fd5b634e487b7160e01b600052602160045260246000fd5b611f56913d8091833e610e59818361227b565b85610a5e565b6040513d6000823e3d90fd5b634e487b7160e01b600052601160045260246000fd5b906020823d8211611faa575b81611f976020938361227b565b81010312611fa757505185610a05565b80fd5b3d9150611f8a565b6000610a4b91610a19565b906020823d8211611fe6575b81611fd66020938361227b565b81010312611fa7575051856109c3565b3d9150611fc9565b6323c76f5b60e21b60005260046000fd5b346101cf5760403660031901126101cf5761201861215b565b336001600160a01b03821603612034576103ca906004356126b0565b63334bd91960e11b60005260046000fd5b346101cf5760403660031901126101cf576103ca60043561206461215b565b906120716103c08261221a565b612607565b346101cf5760203660031901126101cf57602061209460043561221a565b604051908152f35b346101cf5760203660031901126101cf5760043560005260046020526020604060002054604051908152f35b346101cf5760403660031901126101cf5760043560058110156101cf576024359060068210156101cf576020916120fe91612503565b6040519015158152f35b346101cf5760203660031901126101cf576004359063ffffffff60e01b82168092036101cf57602091637965db0b60e01b811490811561214a575b5015158152f35b6301ffc9a760e01b14905083612143565b602435906001600160a01b03821682036101cf57565b600435906001600160a01b03821682036101cf57565b60409060031901126101cf576004359060243590565b6040810160408252825180915260206060830193019060005b8181106121fb5750505060208183039101526020808351928381520192019060005b8181106121e55750505090565b82518452602093840193909201916001016121d8565b82516001600160a01b03168552602094850194909201916001016121b6565b600052600080516020612b6583398151915260205260016040600020015490565b6000198114611f685760010190565b604081019081106001600160401b0382111761226557604052565b634e487b7160e01b600052604160045260246000fd5b90601f801991011681019081106001600160401b0382111761226557604052565b51906001600160a01b03821682036101cf57565b6001600160401b0381116122655760051b60200190565b6020818303126101cf578051906001600160401b0382116101cf5701610100818303126101cf576040519161010083018381106001600160401b03821117612265576040528151600e8110156101cf578352602082015160068110156101cf5760208401526123386040830161229c565b6040840152606082015160608401526080820151608084015260a08201516001600160401b0381116101cf57820181601f820112156101cf5780519061237d826122b0565b9161238b604051938461227b565b80835260208084019160051b830101918483116101cf57602001905b8282106124425750505060a084015260c08201516001600160401b0381116101cf5782019080601f830112156101cf578151906123e3826122b0565b926123f1604051948561227b565b82845260208085019360051b8201019182116101cf57602001915b818310612429575050509060e09160c0840152015160e082015290565b825160058110156101cf5781526020928301920161240c565b6020809161244f8461229c565b8152019101906123a7565b8115612464570490565b634e487b7160e01b600052601260045260246000fd5b91908201809211611f6857565b81810292918115918404141715611f6857565b8015611f68576000190190565b906124b1826122b0565b6124be604051918261227b565b82815280926124cf601f19916122b0565b0190602036910137565b80518210156124ed5760209160051b010190565b634e487b7160e01b600052603260045260246000fd5b60068210159081611f2d57600583146125b55760009060058110156125a15760018103612536575050611f2d5760011490565b81600282148015612595575b1561256557505050611f2d576002811490811561255d575090565b600491501490565b909193925061258157600314612579575090565b600391501490565b634e487b7160e01b83526021600452602483fd5b50508160048214612542565b634e487b7160e01b82526021600452602482fd5b505050600190565b6000818152600080516020612b658339815191526020908152604080832033845290915290205460ff16156125ef5750565b63e2517d3f60e01b6000523360045260245260446000fd5b6000818152600080516020612b65833981519152602090815260408083206001600160a01b038616845290915290205460ff166126a9576000818152600080516020612b65833981519152602090815260408083206001600160a01b0395909516808452949091528120805460ff19166001179055339291907f2f8788117e7eff1d82e926ec794901d17c78024a50270940304540a733656f0d9080a4600190565b5050600090565b6000818152600080516020612b65833981519152602090815260408083206001600160a01b038616845290915290205460ff16156126a9576000818152600080516020612b65833981519152602090815260408083206001600160a01b0395909516808452949091528120805460ff19169055339291907ff6391f5c32d9c69d2a47ea670b442974b53935d1edc7fd64eb21e047a839171b9080a4600190565b9193909294600095869360a08401958651519661276c886122b0565b9761277a604051998a61227b565b808952612789601f19916122b0565b013660208a0137895b81515181101561281c576127aa8160c08901516124d9565b51600581101561106957602088015190600682101561280857906127cd91612503565b8015612801575b6127e1575b600101612792565b966127ed60019161223b565b97816127f9828c6124d9565b5290506127d9565b508a6127d4565b634e487b7160e01b8d52602160045260248dfd5b5093985095969195909350919060009085158061295a5761294657906128589161285161284a835b8a61247a565b9789612487565b915061247a565b9560005b82515181101561293c5760019061287381846124d9565b511561289d5761289787838060a01b0361288e8488516124d9565b51168789612a03565b0161285c565b818060a01b036128ae8286516124d9565b51166128ba8188612a79565b866000526007602052604080600020600090858060a01b0384168252602052206128e58a825461247a565b905586600052600860205260406000206129008a825461247a565b90558587600080516020612bc583398151915260206040518d8152a4856000526005602052604060002061293589825461247a565b9055612897565b5050505050505090565b634e487b7160e01b82526012600452602482fd5b50906128589161285161284a83612844565b600080516020612b25833981519152546001600160a01b0316330361056657565b909160407f1a575cc1f7b2b31ad5fb04f26577fa4778772142c5a3af8b89647a512b5c1fc3916129bd8185612a79565b8360005260026020528160002060018060a01b038216600052602052816000206129e887825461247a565b90558151958652600160208701526001600160a01b031694a4565b909160407f1a575cc1f7b2b31ad5fb04f26577fa4778772142c5a3af8b89647a512b5c1fc391612a338185612a79565b8360005260026020528160002060018060a01b03821660005260205281600020612a5e87825461247a565b90558151958652600060208701526001600160a01b031694a4565b90816000526002602052604060002060018060a01b0382166000526020526040600020541580612afa575b612aac575050565b816000526004602052604060002054600052600360205260406000209060018060a01b031660018060a01b031982541617905560005260046020526040600020612af6815461223b565b9055565b50816000526007602052604060002060018060a01b03821660005260205260406000205415612aa456fe9016d09d72d40fdae2fd8ceac6b6234c7706214fd39c1cd1e609a0528c199300a013a5578d6ee6541b4bfa9541e3d7d918ecfcb8a81030b3b1eb3f9aae20007d02dd7bc7dec4dceedda775e58dd541e08a116c6c53815c0bd028192f7b626800f0c57e16840df040f15088dc2f81fe391c3923bec73e23a9662efc9c229c6a00237e158222e3e6968b72b9db0d8043aacf074ad9f650f0d1606b4d82ee432c00b53a9a4243f44525ba76af0beaa6c0feaf0d4531da91814112747f4c60313fa9a2646970667358221220518431e07b1c005e70004c6bc2b44ad0c8ca8544d2e5b1c03bdaefcbdc492eb864736f6c634300081c0033",
  "linkReferences": {},
  "deployedLinkReferences": {}
}