{
  "_format": "hh-sol-artifact-1",
  "contractName": "FeesProcessorTestHarness",
  "sourceName": "contracts/test-helpers/FeesProcessorTestHarness.sol",
  "abi": [
    {
      "inputs": [],
      "name": "AccessControlBadConfirmation",
      "type": "error"
    },
    {
      "inputs": [
        {
          "internalType": "address",
          "name": "account",
          "type": "address"
        },
        {
          "internalType": "bytes32",
          "name": "neededRole",
          "type": "bytes32"
        }
      ],
      "name": "AccessControlUnauthorizedAccount",
      "type": "error"
    },
    {
      "inputs": [],
      "name": "InvalidInitialization",
      "type": "error"
    },
    {
      "inputs": [],
      "name": "NotInitializing",
      "type": "error"
    },
    {
      "inputs": [],
      "name": "OnlyFeeManager",
      "type": "error"
    },
    {
      "inputs": [
        {
          "internalType": "address",
          "name": "owner",
          "type": "address"
        }
      ],
      "name": "OwnableInvalidOwner",
      "type": "error"
    },
    {
      "inputs": [
        {
          "internalType": "address",
          "name": "account",
          "type": "address"
        }
      ],
      "name": "OwnableUnauthorizedAccount",
      "type": "error"
    },
    {
      "inputs": [],
      "name": "ReentrancyGuardReentrantCall",
      "type": "error"
    },
    {
      "anonymous": false,
      "inputs": [
        {
          "indexed": true,
          "internalType": "bytes32",
          "name": "txId",
          "type": "bytes32"
        },
        {
          "indexed": true,
          "internalType": "uint256",
          "name": "round",
          "type": "uint256"
        },
        {
          "indexed": true,
          "internalType": "address",
          "name": "appealer",
          "type": "address"
        },
        {
          "indexed": false,
          "internalType": "uint256",
          "name": "bondAmount",
          "type": "uint256"
        },
        {
          "indexed": false,
          "internalType": "bool",
          "name": "success",
          "type": "bool"
        },
        {
          "indexed": false,
          "internalType": "uint256",
          "name": "returnAmount",
          "type": "uint256"
        }
      ],
      "name": "AppealBondResolved",
      "type": "event"
    },
    {
      "anonymous": false,
      "inputs": [
        {
          "indexed": false,
          "internalType": "uint64",
          "name": "version",
          "type": "uint64"
        }
      ],
      "name": "Initialized",
      "type": "event"
    },
    {
      "anonymous": false,
      "inputs": [
        {
          "indexed": true,
          "internalType": "address",
          "name": "previousOwner",
          "type": "address"
        },
        {
          "indexed": true,
          "internalType": "address",
          "name": "newOwner",
          "type": "address"
        }
      ],
      "name": "OwnershipTransferStarted",
      "type": "event"
    },
    {
      "anonymous": false,
      "inputs": [
        {
          "indexed": true,
          "internalType": "address",
          "name": "previousOwner",
          "type": "address"
        },
        {
          "indexed": true,
          "internalType": "address",
          "name": "newOwner",
          "type": "address"
        }
      ],
      "name": "OwnershipTransferred",
      "type": "event"
    },
    {
      "anonymous": false,
      "inputs": [
        {
          "indexed": true,
          "internalType": "bytes32",
          "name": "role",
          "type": "bytes32"
        },
        {
          "indexed": true,
          "internalType": "bytes32",
          "name": "previousAdminRole",
          "type": "bytes32"
        },
        {
          "indexed": true,
          "internalType": "bytes32",
          "name": "newAdminRole",
          "type": "bytes32"
        }
      ],
      "name": "RoleAdminChanged",
      "type": "event"
    },
    {
      "anonymous": false,
      "inputs": [
        {
          "indexed": true,
          "internalType": "bytes32",
          "name": "role",
          "type": "bytes32"
        },
        {
          "indexed": true,
          "internalType": "address",
          "name": "account",
          "type": "address"
        },
        {
          "indexed": true,
          "internalType": "address",
          "name": "sender",
          "type": "address"
        }
      ],
      "name": "RoleGranted",
      "type": "event"
    },
    {
      "anonymous": false,
      "inputs": [
        {
          "indexed": true,
          "internalType": "bytes32",
          "name": "role",
          "type": "bytes32"
        },
        {
          "indexed": true,
          "internalType": "address",
          "name": "account",
          "type": "address"
        },
        {
          "indexed": true,
          "internalType": "address",
          "name": "sender",
          "type": "address"
        }
      ],
      "name": "RoleRevoked",
      "type": "event"
    },
    {
      "anonymous": false,
      "inputs": [
        {
          "indexed": true,
          "internalType": "bytes32",
          "name": "txId",
          "type": "bytes32"
        },
        {
          "indexed": true,
          "internalType": "uint256",
          "name": "round",
          "type": "uint256"
        },
        {
          "indexed": true,
          "internalType": "address",
          "name": "validator",
          "type": "address"
        },
        {
          "indexed": false,
          "internalType": "uint256",
          "name": "feeAmount",
          "type": "uint256"
        },
        {
          "indexed": false,
          "internalType": "bool",
          "name": "isLeader",
          "type": "bool"
        }
      ],
      "name": "ValidatorFeeDistributed",
      "type": "event"
    },
    {
      "anonymous": false,
      "inputs": [
        {
          "indexed": true,
          "internalType": "bytes32",
          "name": "txId",
          "type": "bytes32"
        },
        {
          "indexed": true,
          "internalType": "uint256",
          "name": "round",
          "type": "uint256"
        },
        {
          "indexed": true,
          "internalType": "address",
          "name": "validator",
          "type": "address"
        },
        {
          "indexed": false,
          "internalType": "uint256",
          "name": "penaltyAmount",
          "type": "uint256"
        }
      ],
      "name": "ValidatorPenaltyRecorded",
      "type": "event"
    },
    {
      "inputs": [],
      "name": "DEFAULT_ADMIN_ROLE",
      "outputs": [
        {
          "internalType": "bytes32",
          "name": "",
          "type": "bytes32"
        }
      ],
      "stateMutability": "view",
      "type": "function"
    },
    {
      "inputs": [],
      "name": "acceptOwnership",
      "outputs": [],
      "stateMutability": "nonpayable",
      "type": "function"
    },
    {
      "inputs": [
        {
          "internalType": "bytes32",
          "name": "txId",
          "type": "bytes32"
        },
        {
          "internalType": "address",
          "name": "validator",
          "type": "address"
        }
      ],
      "name": "distributedFeesPerValidatorForTx",
      "outputs": [
        {
          "internalType": "uint256",
          "name": "finalFees",
          "type": "uint256"
        }
      ],
      "stateMutability": "view",
      "type": "function"
    },
    {
      "inputs": [],
      "name": "feeManager",
      "outputs": [
        {
          "internalType": "contract IFeeManager",
          "name": "",
          "type": "address"
        }
      ],
      "stateMutability": "view",
      "type": "function"
    },
    {
      "inputs": [],
      "name": "feeRecorder",
      "outputs": [
        {
          "internalType": "contract IFeesRecorder",
          "name": "",
          "type": "address"
        }
      ],
      "stateMutability": "view",
      "type": "function"
    },
    {
      "inputs": [
        {
          "internalType": "bytes32",
          "name": "txId",
          "type": "bytes32"
        },
        {
          "internalType": "uint256",
          "name": "round",
          "type": "uint256"
        }
      ],
      "name": "feesToReturnToAppealer",
      "outputs": [
        {
          "internalType": "uint256",
          "name": "totalRewards",
          "type": "uint256"
        },
        {
          "internalType": "address",
          "name": "appealerAddress",
          "type": "address"
        }
      ],
      "stateMutability": "view",
      "type": "function"
    },
    {
      "inputs": [
        {
          "internalType": "bytes32",
          "name": "txId",
          "type": "bytes32"
        }
      ],
      "name": "feesToReturnToUser",
      "outputs": [
        {
          "internalType": "uint256",
          "name": "feesAmount",
          "type": "uint256"
        }
      ],
      "stateMutability": "view",
      "type": "function"
    },
    {
      "inputs": [
        {
          "internalType": "bytes32",
          "name": "role",
          "type": "bytes32"
        }
      ],
      "name": "getRoleAdmin",
      "outputs": [
        {
          "internalType": "bytes32",
          "name": "",
          "type": "bytes32"
        }
      ],
      "stateMutability": "view",
      "type": "function"
    },
    {
      "inputs": [
        {
          "internalType": "bytes32",
          "name": "role",
          "type": "bytes32"
        },
        {
          "internalType": "address",
          "name": "account",
          "type": "address"
        }
      ],
      "name": "grantRole",
      "outputs": [],
      "stateMutability": "nonpayable",
      "type": "function"
    },
    {
      "inputs": [
        {
          "internalType": "bytes32",
          "name": "role",
          "type": "bytes32"
        },
        {
          "internalType": "address",
          "name": "account",
          "type": "address"
        }
      ],
      "name": "hasRole",
      "outputs": [
        {
          "internalType": "bool",
          "name": "",
          "type": "bool"
        }
      ],
      "stateMutability": "view",
      "type": "function"
    },
    {
      "inputs": [
        {
          "internalType": "address",
          "name": "_feeManager",
          "type": "address"
        },
        {
          "internalType": "address",
          "name": "_feeRecorder",
          "type": "address"
        }
      ],
      "name": "initialize",
      "outputs": [],
      "stateMutability": "nonpayable",
      "type": "function"
    },
    {
      "inputs": [
        {
          "internalType": "bytes32",
          "name": "txId",
          "type": "bytes32"
        }
      ],
      "name": "numOfValidatorsForDistribution",
      "outputs": [
        {
          "internalType": "uint256",
          "name": "numOfValidators",
          "type": "uint256"
        }
      ],
      "stateMutability": "view",
      "type": "function"
    },
    {
      "inputs": [],
      "name": "owner",
      "outputs": [
        {
          "internalType": "address",
          "name": "",
          "type": "address"
        }
      ],
      "stateMutability": "view",
      "type": "function"
    },
    {
      "inputs": [
        {
          "internalType": "bytes32",
          "name": "txId",
          "type": "bytes32"
        },
        {
          "internalType": "address",
          "name": "validator",
          "type": "address"
        }
      ],
      "name": "penaltiesPerValidatorForTx",
      "outputs": [
        {
          "internalType": "uint256",
          "name": "penalties",
          "type": "uint256"
        }
      ],
      "stateMutability": "view",
      "type": "function"
    },
    {
      "inputs": [],
      "name": "pendingOwner",
      "outputs": [
        {
          "internalType": "address",
          "name": "",
          "type": "address"
        }
      ],
      "stateMutability": "view",
      "type": "function"
    },
    {
      "inputs": [
        {
          "internalType": "bytes32",
          "name": "_txId",
          "type": "bytes32"
        },
        {
          "internalType": "uint256",
          "name": "_startRound",
          "type": "uint256"
        },
        {
          "internalType": "uint256",
          "name": "_finalRound",
          "type": "uint256"
        },
        {
          "internalType": "uint256",
          "name": "_validatorTimeoutFees",
          "type": "uint256"
        },
        {
          "internalType": "uint256",
          "name": "_leaderTimeoutFees",
          "type": "uint256"
        }
      ],
      "name": "processFeesForTx",
      "outputs": [
        {
          "internalType": "uint256",
          "name": "amountDistributed",
          "type": "uint256"
        },
        {
          "internalType": "uint256",
          "name": "numOfValidators",
          "type": "uint256"
        }
      ],
      "stateMutability": "nonpayable",
      "type": "function"
    },
    {
      "inputs": [],
      "name": "renounceOwnership",
      "outputs": [],
      "stateMutability": "nonpayable",
      "type": "function"
    },
    {
      "inputs": [
        {
          "internalType": "bytes32",
          "name": "role",
          "type": "bytes32"
        },
        {
          "internalType": "address",
          "name": "callerConfirmation",
          "type": "address"
        }
      ],
      "name": "renounceRole",
      "outputs": [],
      "stateMutability": "nonpayable",
      "type": "function"
    },
    {
      "inputs": [
        {
          "internalType": "bytes32",
          "name": "role",
          "type": "bytes32"
        },
        {
          "internalType": "address",
          "name": "account",
          "type": "address"
        }
      ],
      "name": "revokeRole",
      "outputs": [],
      "stateMutability": "nonpayable",
      "type": "function"
    },
    {
      "inputs": [
        {
          "internalType": "address",
          "name": "_feeManager",
          "type": "address"
        },
        {
          "internalType": "address",
          "name": "_feeRecorder",
          "type": "address"
        }
      ],
      "name": "setFeeManagerAndRecorder",
      "outputs": [],
      "stateMutability": "nonpayable",
      "type": "function"
    },
    {
      "inputs": [
        {
          "internalType": "bytes4",
          "name": "interfaceId",
          "type": "bytes4"
        }
      ],
      "name": "supportsInterface",
      "outputs": [
        {
          "internalType": "bool",
          "name": "",
          "type": "bool"
        }
      ],
      "stateMutability": "view",
      "type": "function"
    },
    {
      "inputs": [
        {
          "internalType": "enum ITransactions.VoteType",
          "name": "vote",
          "type": "uint8"
        },
        {
          "internalType": "enum ITransactions.ResultType",
          "name": "result",
          "type": "uint8"
        }
      ],
      "name": "testVoteAlignedWithResult",
      "outputs": [
        {
          "internalType": "bool",
          "name": "aligned",
          "type": "bool"
        }
      ],
      "stateMutability": "pure",
      "type": "function"
    },
    {
      "inputs": [
        {
          "internalType": "bytes32",
          "name": "txId",
          "type": "bytes32"
        }
      ],
      "name": "totalPenaltiesForTx",
      "outputs": [
        {
          "internalType": "uint256",
          "name": "totalPenalties",
          "type": "uint256"
        }
      ],
      "stateMutability": "view",
      "type": "function"
    },
    {
      "inputs": [
        {
          "internalType": "address",
          "name": "newOwner",
          "type": "address"
        }
      ],
      "name": "transferOwnership",
      "outputs": [],
      "stateMutability": "nonpayable",
      "type": "function"
    },
    {
      "inputs": [
        {
          "internalType": "bytes32",
          "name": "_txId",
          "type": "bytes32"
        },
        {
          "internalType": "uint256",
          "name": "_numOfValidators",
          "type": "uint256"
        }
      ],
      "name": "validatorsFinalDistribution",
      "outputs": [
        {
          "internalType": "address[]",
          "name": "validatorsToReceiveFees",
          "type": "address[]"
        },
        {
          "internalType": "uint256[]",
          "name": "validatorsToReceiveFeesAmount",
          "type": "uint256[]"
        }
      ],
      "stateMutability": "view",
      "type": "function"
    },
    {
      "inputs": [
        {
          "internalType": "uint256",
          "name": "index",
          "type": "uint256"
        }
      ],
      "name": "validatorsIndexToAddress",
      "outputs": [
        {
          "internalType": "address",
          "name": "validatorAddress",
          "type": "address"
        }
      ],
      "stateMutability": "view",
      "type": "function"
    },
    {
      "inputs": [
        {
          "internalType": "bytes32",
          "name": "_txId",
          "type": "bytes32"
        },
        {
          "internalType": "uint256",
          "name": "_numOfValidators",
          "type": "uint256"
        }
      ],
      "name": "validatorsPenaltyDistribution",
      "outputs": [
        {
          "internalType": "address[]",
          "name": "validators",
          "type": "address[]"
        },
        {
          "internalType": "uint256[]",
          "name": "penalties",
          "type": "uint256[]"
        }
      ],
      "stateMutability": "view",
      "type": "function"
    }
  ],
  "bytecode": "0x60808060405234601557612dec908161001b8239f35b600080fdfe608080604052600436101561001357600080fd5b60003560e01c90816301ffc9a7146124f657508063067fd330146124b6578063166bdf521461248a578063248a9ca3146124645780632f2ff15d1461243357806336568abe146123ed5780633cbf075914610930578063485cc955146107c3578063486dcb881461077b5780634b2aecd71461074f5780634ed97eed1461070757806353c0f4c7146106d35780635b3f9635146106405780635bda466f146105fc578063715018a61461057b57806379ba5097146104ca5780638bb7dcb1146104a15780638da5cb5b1461046b57806391d1485414610411578063a217fddf146103f5578063d0fb0203146103cc578063d547741f14610394578063dbfdb30a146102cd578063e30c397814610297578063e54de61714610200578063e9cd2fa9146101d45763f2fde38b1461014857600080fd5b346101cf5760203660031901126101cf5761016161255f565b610169612b3e565b600080516020612d7783398151915280546001600160a01b0319166001600160a01b03928316908117909155600080516020612cf7833981519152549091167f38d16b8cac22d99fc7c124b9cd0de2d3fa1faef420bfe791d8c362d765e22700600080a3005b600080fd5b346101cf5760203660031901126101cf5760043560005260056020526020604060002054604051908152f35b346101cf5761020e36612575565b61021781612895565b9061022181612895565b9260005b8281106102425750505061023e6040519283928361258b565b0390f35b8060019160005260036020526040828060a01b038160002054168061026784896128c7565b5284600052600760205281600020600091858060a01b03168252602052205461029082886128c7565b5201610225565b346101cf5760003660031901126101cf57600080516020612d77833981519152546040516001600160a01b039091168152602090f35b346101cf5760403660031901126101cf576102e661255f565b6102ee612549565b906102f7612b3e565b6001600160a01b031680158015610383575b61033e57600080546001600160a01b0319908116929092179055600180549091166001600160a01b0392909216919091179055005b60405162461bcd60e51b815260206004820152601b60248201527f4665657350726f636573736f723a207a65726f206164647265737300000000006044820152606490fd5b506001600160a01b03821615610309565b346101cf5760403660031901126101cf576103ca6004356103b3612549565b906103c56103c082612608565b6129ab565b612a9e565b005b346101cf5760003660031901126101cf576000546040516001600160a01b039091168152602090f35b346101cf5760003660031901126101cf57602060405160008152f35b346101cf5760403660031901126101cf5761042a612549565b600435600052600080516020612d3783398151915260205260406000209060018060a01b0316600052602052602060ff604060002054166040519015158152f35b346101cf5760003660031901126101cf57600080516020612cf7833981519152546040516001600160a01b039091168152602090f35b346101cf5760003660031901126101cf576001546040516001600160a01b039091168152602090f35b346101cf5760003660031901126101cf57600080516020612d7783398151915254336001600160a01b039091160361056657600080516020612d7783398151915280546001600160a01b0319908116909155600080516020612cf783398151915280543392811683179091556001600160a01b03167f8be0079c531659141344cd1fd0a4f28419497f9722a3daafe3b4186f6b6457e0600080a3005b63118cdaa760e01b6000523360045260246000fd5b346101cf5760003660031901126101cf57610594612b3e565b600080516020612d7783398151915280546001600160a01b0319908116909155600080516020612cf7833981519152805491821690556000906001600160a01b03167f8be0079c531659141344cd1fd0a4f28419497f9722a3daafe3b4186f6b6457e08280a3005b346101cf5761060a36612575565b9060005260066020526040600020906000526020526040806000208054906001808060a01b039101541682519182526020820152f35b346101cf5761064e36612575565b61065781612895565b9061066181612895565b9260005b82811061067e5750505061023e6040519283928361258b565b8060019160005260036020526040828060a01b03816000205416806106a384896128c7565b5284600052600260205281600020600091858060a01b0316825260205220546106cc82886128c7565b5201610665565b346101cf5760203660031901126101cf576004356000526003602052602060018060a01b0360406000205416604051908152f35b346101cf5760403660031901126101cf57610720612549565b600435600052600260205260406000209060018060a01b03166000526020526020604060002054604051908152f35b346101cf5760203660031901126101cf5760043560005260086020526020604060002054604051908152f35b346101cf5760403660031901126101cf57610794612549565b600435600052600760205260406000209060018060a01b03166000526020526020604060002054604051908152f35b346101cf5760403660031901126101cf576107dc61255f565b6107e4612549565b600080516020612d57833981519152549160ff8360401c1615926001600160401b03811680159081610928575b600114908161091e575b159081610915575b506109045767ffffffffffffffff198116600117600080516020612d5783398151915255836108d7575b50600080546001600160a01b039283166001600160a01b0319918216179091556001805493909216921691909117905561088357005b60ff60401b19600080516020612d578339815191525416600080516020612d57833981519152557fc7f505b2f371ae2175ee4913f4499e1f2633a7b5936321eed1cdaeb6115181d2602060405160018152a1005b68ffffffffffffffffff19166801000000000000000117600080516020612d57833981519152558361084d565b63f92ee8a960e01b60005260046000fd5b90501585610823565b303b15915061081b565b859150610811565b346101cf5760a03660031901126101cf576000546001600160a01b031633036123dc576000806024355b604435811115610983576040826004356000526004602052816000205482519182526020820152f35b60018060a01b0360015416604051630662ded760e41b81526004356004820152826024820152602081604481855afa90811561234a576000916123ab575b506001600091116000146123a05750604051630662ded760e41b81526004356004820152826024820152602081604481855afa90811561234a5760009161236c575b506000198101908111612356576000610a49915b8093604051808095819463092d751360e01b835289600435600485016040919493926060820195825260208201520152565b03915afa90811561234a57600091612331575b50805194600e86101561231b576000956001036110935750849160a08201515193610a868561269e565b94610a946040519687612669565b808652610aa3601f199161269e565b01366020870137865b60a084015151811015610b4d57610ac78160c08601516128c7565b516005811015610b39576020850151906006821015610b255790610aea916128f1565b8015610b1e575b610afe575b600101610aac565b93610b0a600191612629565b9481610b1682896128c7565b529050610af6565b5087610af1565b634e487b7160e01b8a52602160045260248afd5b634e487b7160e01b89526021600452602489fd5b509094919390918315806110825761106e57610b8290610b7c610b73895b606435612868565b95606435612875565b90612868565b94865b60a086015151811015610c7c5780610b9f600192856128c7565b5115610bce57610bc886838060a01b03610bbd8460a08c01516128c7565b511687600435612bd5565b01610b85565b818060a01b03610be28260a08a01516128c7565b5116610bf081600435612c4b565b6004358a52600760205260408a20838060a01b0382168b5260205260408a20610c1c6064358254612868565b90556004358a52600860205260408a20610c396064358254612868565b9055856040516064358152600080516020612d97833981519152602060043592a46004358952600560205260408920610c756064358254612868565b9055610bc8565b506040909401519194610caf935091610ca69150608435906001600160a01b031686600435612b5f565b60843590612868565b916001915b8280611065575b1561105457610cc990612888565b60015460405163092d751360e01b8152600480359082015260248101849052604481018390529192908690839060649082906001600160a01b03165afa918215611049578692611025575b50859260a08301515194610d278661269e565b95610d356040519788612669565b808752610d44601f199161269e565b01366020880137875b60a08501518051821015610e085760408601516001600160a01b0390811691610d779084906128c7565b511614610e0057610d8c8160c08701516128c7565b516005811015610b25576020860151906006821015610dec5790610daf916128f1565b8015610de5575b610dc5575b6001905b01610d4d565b94610dd1600191612629565b9581610ddd828a6128c7565b529050610dbb565b5088610db6565b634e487b7160e01b8b52602160045260248bfd5b600190610dbf565b505060a0840151519693949391885b60a087015180518210156110165760408801516001600160a01b0390811691610e419084906128c7565b511614610e5057600101610e17565b50979293949596610e6390929192612888565b505b84158061100557610ff157610e8c90610b7c610e8385606435612868565b96606435612875565b96825b60a08701518051821015610fb1576040880151600192916001600160a01b039182169190610ebe9084906128c7565b511614610fac57610ecf818a6128c7565b5115610efe57610ef887838060a01b03610eed8460a08d01516128c7565b511688600435612bd5565b01610e8f565b818060a01b03610f128260a08b01516128c7565b5116610f2081600435612c4b565b6004358652600760205260408620838060a01b038216875260205260408620610f4c6064358254612868565b90556004358652600860205260408620610f696064358254612868565b9055866040516064358152600080516020612d97833981519152602060043592a46004358552600560205260408520610fa56064358254612868565b9055610ef8565b610ef8565b50509350945094610fdd610fe9929460843560011c90604060018060a01b039101511686600435612b5f565b60843560011c90612868565b929190610cb4565b634e487b7160e01b83526012600452602483fd5b50610e8c90610b7c610e8385610b6b565b50509792939495965090610e65565b6110429192503d8088833e61103a8183612669565b8101906126b5565b9086610d14565b6040513d88823e3d90fd5b50611060919350612629565b61095a565b50801515610cbb565b634e487b7160e01b87526012600452602487fd5b50610b8290610b7c610b7389610b6b565b819492939451600e811015612307576005036110d95750604001516110d09190610fdd9060843560011c906001600160a01b031686600435612b5f565b91600191610cb4565b92908094929451600e8110156123075760020361112e5761110e906111096084359160a060643591015151612875565b612868565b6004358652600560205261112760408720918254612868565b9055610cb4565b90928194929451600e811015612307576004036114dc576001546001600160a01b031660001986018681116114c857879060646040518094819363092d751360e01b8352600435600484015260248301528460448301525afa80156114bd5760809188916114a3575b50015190869360a084015151956111ad8761269e565b966111bb6040519889612669565b8088526111ca601f199161269e565b01366020890137885b60a0860151805182101561128f5760408701516001600160a01b03908116916111fd9084906128c7565b511614611287576112128160c08801516128c7565b516005811015610dec5760208701519060068210156112735790611235916128f1565b801561126b575b61124b575b6001905b016111d3565b95611257600191612629565b9681611263828b6128c7565b529050611241565b50600161123c565b634e487b7160e01b8c52602160045260248cfd5b600190611245565b50509590969297919794939460a08601515197835b60a088015180518210156114905760408901516001600160a01b03908116916112ce9084906128c7565b5116146112dd576001016112a4565b506112f16113169293949596979899612888565b505b861561148057610b7c8361110961130d610b6b8b84612848565b99606435612875565b90835b60a0880151805182101561143b576040890151600192916001600160a01b0391821691906113489084906128c7565b5116146114365761135981866128c7565b511561138857611382888a6113778460a08780821b039301516128c7565b511689600435612bd5565b01611319565b818060a01b0361139c8260a08c01516128c7565b51166113aa81600435612c4b565b6004358752600760205260408720838060a01b0382168852602052604087206113d66064358254612868565b905560043587526008602052604087206113f36064358254612868565b9055876040516064358152600080516020612d97833981519152602060043592a4600435865260056020526040862061142f6064358254612868565b9055611382565b611382565b5050969394509050610ca661146692979560843590604060018060a01b039101511686600435612b5f565b936004358652600560205261112760408720918254612868565b610b7c8361110961130d88610b6b565b50506113169192939495969798506112f3565b6114b791503d808a833e61103a8183612669565b88611197565b6040513d89823e3d90fd5b634e487b7160e01b88526011600452602488fd5b8194929451600e81101561230757600303611760576001546001600160a01b031660001984018481116114c857879060646040518094819363092d751360e01b8352600435600484015260248301528460448301525afa80156114bd576080918891611746575b50015193869360a084015151956115598761269e565b966115676040519889612669565b808852611576601f199161269e565b01366020890137885b60a0860151518110156115f85761159a8160c08801516128c7565b516005811015610dec57602087015190600682101561127357906115bd916128f1565b80156115f1575b6115d1575b60010161157f565b956115dd600191612629565b96816115e9828b6128c7565b5290506115c9565b50896115c4565b5090939591966116239098939886151560001461148057610b7c8361110961130d610b6b8b84612848565b96835b60a08801515181101561171c57600190856117175761164581866128c7565b511561166957611663888a6113778460a08780821b039301516128c7565b01611626565b818060a01b0361167d8260a08c01516128c7565b511661168b81600435612c4b565b6004358752600760205260408720838060a01b0382168852602052604087206116b76064358254612868565b905560043587526008602052604087206116d46064358254612868565b9055876040516064358152600080516020612d97833981519152602060043592a460043586526005602052604086206117106064358254612868565b9055611663565b611663565b50939450959050610ca661146692979560843590604060018060a01b039101511686600435612b5f565b61175a91503d808a833e61103a8183612669565b88611543565b9290938451600e81101561230757600603611843576001546001600160a01b03169460001984018481116114c857879060646040518099819363092d751360e01b8352600435600484015260248301528460448301525afa9081156114bd5760806117f292611109988a91611829575b500151928360011c97888093604060018060a01b039101511688600435612b5f565b948103908111611815576004358652600560205261112760408720918254612868565b634e487b7160e01b86526011600452602486fd5b61183d91503d808c833e61103a8183612669565b8a6117d0565b84919451600e81101561230757600703611aa2576118879061186c60843560011c608435612868565b906111098260018060a01b0360408701511687600435612b5f565b9360043586526005602052604086206118a660843560011c8254612868565b9055859260a083015151946118ba8661269e565b956118c86040519788612669565b8087526118d7601f199161269e565b01366020880137875b60a085015151811015611959576118fb8160c08701516128c7565b516005811015610b25576020860151906006821015610dec579061191e916128f1565b8015611952575b611932575b6001016118e0565b9461193e600191612629565b958161194a828a6128c7565b52905061192a565b5088611925565b50909294919584158015600014611a9157611a7d5761198190610b7c610e838a606435612868565b95875b60a087015151811015611a70578061199e600192866128c7565b51156119c2576119bc87838060a01b03610eed8460a08d01516128c7565b01611984565b818060a01b036119d68260a08b01516128c7565b51166119e481600435612c4b565b6004358b52600760205260408b20838060a01b0382168c5260205260408b20611a106064358254612868565b90556004358b52600860205260408b20611a2d6064358254612868565b9055866040516064358152600080516020612d97833981519152602060043592a46004358a52600560205260408a20611a696064358254612868565b90556119bc565b5090945091925050610cb4565b634e487b7160e01b88526012600452602488fd5b5061198190610b7c610e838a610b6b565b9293918151600e81101561230757600803611e5957859260a08301515194611ac98661269e565b95611ad76040519788612669565b808752611ae6601f199161269e565b01366020880137875b60a08501518051821015611b965760408601516001600160a01b0390811691611b199084906128c7565b511614611b8e57611b2e8160c08701516128c7565b516005811015610b25576020860151906006821015610dec5790611b51916128f1565b8015611b87575b611b67575b6001905b01611aef565b94611b73600191612629565b9581611b7f828a6128c7565b529050611b5d565b5088611b58565b600190611b61565b5050959496909693929360a08501515196825b60a08701518051821015611e4a5760408801516001600160a01b0390811691611bd39084906128c7565b511614611be257600101611ba9565b5090919293949596611bf390612888565b505b841580611e3957610ff157611c1390610b7c610e8385606435612868565b96825b60a08701518051821015611d2d576040880151600192916001600160a01b039182169190611c459084906128c7565b511614611d2857611c5681856128c7565b5115611c7a57611c7487838060a01b03610eed8460a08d01516128c7565b01611c16565b818060a01b03611c8e8260a08b01516128c7565b5116611c9c81600435612c4b565b6004358652600760205260408620838060a01b038216875260205260408620611cc86064358254612868565b90556004358652600860205260408620611ce56064358254612868565b9055866040516064358152600080516020612d97833981519152602060043592a46004358552600560205260408520611d216064358254612868565b9055611c74565b611c74565b50509293505094939293611d4a6080860191825160011c90612868565b9481516003810290808204600314901517156114c8576040828101519051916001916001600160a01b031690611d7f84612638565b821c8352602083019081526004358a52600660205260408a20878b5260205260408a2092518355818060a01b0390511691019060018060a01b031660018060a01b03198254161790556004358752600560205260408720611de36084358254612868565b9055604060018060a01b0391015116905160038102818104600314821517156114c8579084916040519182526001602083015260011c6040820152600080516020612d17833981519152606060043592a4610cb4565b50611c1390610b7c610e8385610b6b565b50509091929394959650611bf5565b8194939451600e8110156123075760090361213e57608082015192869360a08401515195611e868761269e565b96611e946040519889612669565b808852611ea3601f199161269e565b01366020890137885b60a08601518051821015611f535760408701516001600160a01b0390811691611ed69084906128c7565b511614611f4b57611eeb8160c08801516128c7565b516005811015610dec5760208701519060068210156112735790611f0e916128f1565b8015611f44575b611f24575b6001905b01611eac565b95611f30600191612629565b9681611f3c828b6128c7565b529050611f1a565b5089611f15565b600190611f1e565b50509590969391979460a08301515197865b60a085015180518210156121265760408601516001600160a01b0390811691611f8f9084906128c7565b511614611f9e57600101611f65565b50611fc090611109611fb8611fd795969798999a9b612888565b606435612875565b90801561211e57611fd19082612848565b95612868565b96855b60a084015180518210156120d4576040850151600192916001600160a01b0391821691906120099084906128c7565b5116146120cf5761201a81856128c7565b511561203e5761203887838060a01b03610eed8460a08a01516128c7565b01611fda565b818060a01b036120528260a08801516128c7565b511661206081600435612c4b565b6004358952600760205260408920838060a01b0382168a526020526040892061208c6064358254612868565b905560043589526008602052604089206120a96064358254612868565b9055866040516064358152600080516020612d97833981519152602060043592a4612038565b612038565b5050929350509392949382608060018060a01b03604084015116920151604051908152876020820152876040820152600080516020612d17833981519152606060043592a4610cb4565b508695612868565b5050611fc090611109611fd79495969798999a611fb8565b9190938451600e81101561230757600a03612233576121666080860191825160011c90612868565b948151906003820291808304600314901517156114c857604001906001808060a01b038351166040519261219984612638565b821c8352602083019081526004358a52600660205260408a20878b5260205260408a2092518355818060a01b0390511691019060018060a01b031660018060a01b031982541617905560018060a01b03905116905160038102818104600314821517156114c8579084916040519182526001602083015260011c6040820152600080516020612d17833981519152606060043592a4610cb4565b938051600e81101561230757600b036122865782608060018060a01b03604084015116920151604051908152876020820152876040820152600080516020612d17833981519152606060043592a4610cb4565b938451600e81101561230757600c036122ac576121666080860191825160011c90612868565b938051600e81101561230757600d146122c6575b50610cb4565b82608060018060a01b03604084015116920151604051908152876020820152876040820152600080516020612d17833981519152606060043592a4856122c0565b634e487b7160e01b87526021600452602487fd5b634e487b7160e01b600052602160045260246000fd5b612344913d8091833e61103a8183612669565b85610a5c565b6040513d6000823e3d90fd5b634e487b7160e01b600052601160045260246000fd5b906020823d8211612398575b8161238560209383612669565b8101031261239557505185610a03565b80fd5b3d9150612378565b6000610a4991610a17565b906020823d82116123d4575b816123c460209383612669565b81010312612395575051856109c1565b3d91506123b7565b6323c76f5b60e21b60005260046000fd5b346101cf5760403660031901126101cf57612406612549565b336001600160a01b03821603612422576103ca90600435612a9e565b63334bd91960e11b60005260046000fd5b346101cf5760403660031901126101cf576103ca600435612452612549565b9061245f6103c082612608565b6129f5565b346101cf5760203660031901126101cf576020612482600435612608565b604051908152f35b346101cf5760203660031901126101cf5760043560005260046020526020604060002054604051908152f35b346101cf5760403660031901126101cf5760043560058110156101cf576024359060068210156101cf576020916124ec916128f1565b6040519015158152f35b346101cf5760203660031901126101cf576004359063ffffffff60e01b82168092036101cf57602091637965db0b60e01b8114908115612538575b5015158152f35b6301ffc9a760e01b14905083612531565b602435906001600160a01b03821682036101cf57565b600435906001600160a01b03821682036101cf57565b60409060031901126101cf576004359060243590565b6040810160408252825180915260206060830193019060005b8181106125e95750505060208183039101526020808351928381520192019060005b8181106125d35750505090565b82518452602093840193909201916001016125c6565b82516001600160a01b03168552602094850194909201916001016125a4565b600052600080516020612d3783398151915260205260016040600020015490565b60001981146123565760010190565b604081019081106001600160401b0382111761265357604052565b634e487b7160e01b600052604160045260246000fd5b90601f801991011681019081106001600160401b0382111761265357604052565b51906001600160a01b03821682036101cf57565b6001600160401b0381116126535760051b60200190565b6020818303126101cf578051906001600160401b0382116101cf5701610100818303126101cf576040519161010083018381106001600160401b03821117612653576040528151600e8110156101cf578352602082015160068110156101cf5760208401526127266040830161268a565b6040840152606082015160608401526080820151608084015260a08201516001600160401b0381116101cf57820181601f820112156101cf5780519061276b8261269e565b916127796040519384612669565b80835260208084019160051b830101918483116101cf57602001905b8282106128305750505060a084015260c08201516001600160401b0381116101cf5782019080601f830112156101cf578151906127d18261269e565b926127df6040519485612669565b82845260208085019360051b8201019182116101cf57602001915b818310612817575050509060e09160c0840152015160e082015290565b825160058110156101cf578152602092830192016127fa565b6020809161283d8461268a565b815201910190612795565b8115612852570490565b634e487b7160e01b600052601260045260246000fd5b9190820180921161235657565b8181029291811591840414171561235657565b8015612356576000190190565b9061289f8261269e565b6128ac6040519182612669565b82815280926128bd601f199161269e565b0190602036910137565b80518210156128db5760209160051b010190565b634e487b7160e01b600052603260045260246000fd5b6006821015908161231b57600583146129a357600090600581101561298f576001810361292457505061231b5760011490565b81600282148015612983575b156129535750505061231b576002811490811561294b575090565b600491501490565b909193925061296f57600314612967575090565b600391501490565b634e487b7160e01b83526021600452602483fd5b50508160048214612930565b634e487b7160e01b82526021600452602482fd5b505050600190565b6000818152600080516020612d378339815191526020908152604080832033845290915290205460ff16156129dd5750565b63e2517d3f60e01b6000523360045260245260446000fd5b6000818152600080516020612d37833981519152602090815260408083206001600160a01b038616845290915290205460ff16612a97576000818152600080516020612d37833981519152602090815260408083206001600160a01b0395909516808452949091528120805460ff19166001179055339291907f2f8788117e7eff1d82e926ec794901d17c78024a50270940304540a733656f0d9080a4600190565b5050600090565b6000818152600080516020612d37833981519152602090815260408083206001600160a01b038616845290915290205460ff1615612a97576000818152600080516020612d37833981519152602090815260408083206001600160a01b0395909516808452949091528120805460ff19169055339291907ff6391f5c32d9c69d2a47ea670b442974b53935d1edc7fd64eb21e047a839171b9080a4600190565b600080516020612cf7833981519152546001600160a01b0316330361056657565b909160407f1a575cc1f7b2b31ad5fb04f26577fa4778772142c5a3af8b89647a512b5c1fc391612b8f8185612c4b565b8360005260026020528160002060018060a01b03821660005260205281600020612bba878254612868565b90558151958652600160208701526001600160a01b031694a4565b909160407f1a575cc1f7b2b31ad5fb04f26577fa4778772142c5a3af8b89647a512b5c1fc391612c058185612c4b565b8360005260026020528160002060018060a01b03821660005260205281600020612c30878254612868565b90558151958652600060208701526001600160a01b031694a4565b90816000526002602052604060002060018060a01b0382166000526020526040600020541580612ccc575b612c7e575050565b816000526004602052604060002054600052600360205260406000209060018060a01b031660018060a01b031982541617905560005260046020526040600020612cc88154612629565b9055565b50816000526007602052604060002060018060a01b03821660005260205260406000205415612c7656fe9016d09d72d40fdae2fd8ceac6b6234c7706214fd39c1cd1e609a0528c199300a013a5578d6ee6541b4bfa9541e3d7d918ecfcb8a81030b3b1eb3f9aae20007d02dd7bc7dec4dceedda775e58dd541e08a116c6c53815c0bd028192f7b626800f0c57e16840df040f15088dc2f81fe391c3923bec73e23a9662efc9c229c6a00237e158222e3e6968b72b9db0d8043aacf074ad9f650f0d1606b4d82ee432c00b53a9a4243f44525ba76af0beaa6c0feaf0d4531da91814112747f4c60313fa9a2646970667358221220dbe053c6fd24d5e1f0a344ff966788479084eab0afbf3a7cff351b4b7d1c595a64736f6c634300081c0033",
  "linkReferences": {},
  "deployedLinkReferences": {}
}