{
  "_format": "hh-sol-artifact-1",
  "contractName": "MockZkSyncBridge",
  "sourceName": "contracts/test-helpers/MockZkSyncBridge.sol",
  "abi": [
    {
      "inputs": [
        {
          "internalType": "address",
          "name": "_assetRouter",
          "type": "address"
        },
        {
          "internalType": "address",
          "name": "_gen",
          "type": "address"
        }
      ],
      "stateMutability": "nonpayable",
      "type": "constructor"
    },
    {
      "inputs": [],
      "name": "MockZkSyncBridgeCallFailedToL2",
      "type": "error"
    },
    {
      "stateMutability": "payable",
      "type": "fallback"
    },
    {
      "inputs": [
        {
          "internalType": "uint256",
          "name": "",
          "type": "uint256"
        }
      ],
      "name": "calls",
      "outputs": [
        {
          "internalType": "uint256",
          "name": "chainId",
          "type": "uint256"
        },
        {
          "internalType": "uint256",
          "name": "mintValue",
          "type": "uint256"
        },
        {
          "internalType": "address",
          "name": "l2Contract",
          "type": "address"
        },
        {
          "internalType": "uint256",
          "name": "l2Value",
          "type": "uint256"
        },
        {
          "internalType": "bytes",
          "name": "l2Calldata",
          "type": "bytes"
        },
        {
          "internalType": "uint256",
          "name": "l2GasLimit",
          "type": "uint256"
        },
        {
          "internalType": "uint256",
          "name": "l2GasPerPubdataByteLimit",
          "type": "uint256"
        },
        {
          "internalType": "address",
          "name": "refundRecipient",
          "type": "address"
        }
      ],
      "stateMutability": "view",
      "type": "function"
    },
    {
      "inputs": [
        {
          "internalType": "uint256",
          "name": "",
          "type": "uint256"
        },
        {
          "internalType": "uint256",
          "name": "_gasPrice",
          "type": "uint256"
        },
        {
          "internalType": "uint256",
          "name": "_l2GasLimit",
          "type": "uint256"
        },
        {
          "internalType": "uint256",
          "name": "_l2GasPerPubdataByteLimit",
          "type": "uint256"
        }
      ],
      "name": "l2TransactionBaseCost",
      "outputs": [
        {
          "internalType": "uint256",
          "name": "",
          "type": "uint256"
        }
      ],
      "stateMutability": "pure",
      "type": "function"
    },
    {
      "inputs": [
        {
          "internalType": "uint256",
          "name": "",
          "type": "uint256"
        }
      ],
      "name": "msgSenders",
      "outputs": [
        {
          "internalType": "address",
          "name": "",
          "type": "address"
        }
      ],
      "stateMutability": "view",
      "type": "function"
    },
    {
      "inputs": [
        {
          "internalType": "uint256",
          "name": "",
          "type": "uint256"
        },
        {
          "internalType": "uint256",
          "name": "",
          "type": "uint256"
        },
        {
          "internalType": "uint256",
          "name": "",
          "type": "uint256"
        },
        {
          "components": [
            {
              "internalType": "uint16",
              "name": "txNumberInBatch",
              "type": "uint16"
            },
            {
              "internalType": "address",
              "name": "sender",
              "type": "address"
            },
            {
              "internalType": "bytes",
              "name": "data",
              "type": "bytes"
            }
          ],
          "internalType": "struct IBridgeHub.L2Message",
          "name": "",
          "type": "tuple"
        },
        {
          "internalType": "bytes32[]",
          "name": "",
          "type": "bytes32[]"
        }
      ],
      "name": "proveL2MessageInclusion",
      "outputs": [
        {
          "internalType": "bool",
          "name": "",
          "type": "bool"
        }
      ],
      "stateMutability": "pure",
      "type": "function"
    },
    {
      "inputs": [],
      "name": "realizeL2TransactionDirect",
      "outputs": [],
      "stateMutability": "nonpayable",
      "type": "function"
    },
    {
      "inputs": [
        {
          "components": [
            {
              "internalType": "uint256",
              "name": "chainId",
              "type": "uint256"
            },
            {
              "internalType": "uint256",
              "name": "mintValue",
              "type": "uint256"
            },
            {
              "internalType": "address",
              "name": "l2Contract",
              "type": "address"
            },
            {
              "internalType": "uint256",
              "name": "l2Value",
              "type": "uint256"
            },
            {
              "internalType": "bytes",
              "name": "l2Calldata",
              "type": "bytes"
            },
            {
              "internalType": "uint256",
              "name": "l2GasLimit",
              "type": "uint256"
            },
            {
              "internalType": "uint256",
              "name": "l2GasPerPubdataByteLimit",
              "type": "uint256"
            },
            {
              "internalType": "bytes[]",
              "name": "factoryDeps",
              "type": "bytes[]"
            },
            {
              "internalType": "address",
              "name": "refundRecipient",
              "type": "address"
            }
          ],
          "internalType": "struct IBridgeHub.L2TransactionRequestDirect",
          "name": "_request",
          "type": "tuple"
        }
      ],
      "name": "requestL2TransactionDirect",
      "outputs": [],
      "stateMutability": "payable",
      "type": "function"
    },
    {
      "stateMutability": "payable",
      "type": "receive"
    }
  ],
  "bytecode": "0x60803460ad57601f610c8b38819003918201601f19168301916001600160401b0383118484101760b257808492604094855283398101031260ad57604b602060458360c8565b920160c8565b7fc5d2460186f7233c927e7db2dcc703c0e500b653ca82273b7bfad8045d85a470600055600180546001600160a01b039283166001600160a01b03199182161790915560028054939092169216919091179055604051610baf90816100dc8239f35b600080fd5b634e487b7160e01b600052604160045260246000fd5b51906001600160a01b038216820360ad5756fe6080604052600436101561000f57005b6000803560e01c80637162327414610685578063981ed8c71461065257806399c16d1a146105d6578063d183ce1414610534578063d52471c1146100775763fef05b841461005957005b346100745780600319360112610074576100716108f3565b80f35b80fd5b506020366003190112610074576004356001600160401b03811161053057806004019080360361012060031982011261052c576002546001546024840135949160648501359187916001600160a01b039182169116803b156105285760848392604051948593849263f652fc9360e01b845260048401523360248401528b60448401528760648401525af1801561051d57610509575b5060048054875260066020526040872080546001600160a01b03191633179055546101378161086c565b60045586526005602052604086209482358655600186015561015b60448501610891565b6002860180546001600160a01b0319166001600160a01b03909216919091179055600385015560048401906101949060848501906108aa565b906001600160401b0382116104f5576101ad8354610716565b601f81116104c5575b508690601f8311600114610461576101e6929188918361030a575b50508160011b916000199060031b1c19161790565b90555b60a4820135600584015560c48201356006840155600783019060e4830135906022190181121561045d578201906004820135916001600160401b03831161045957602401908260051b3603821361045957600160401b83116104455780548382558084106103cf575b508552602085208591805b84841061029757878760086102756101048a01610891565b910180546001600160a01b0319166001600160a01b0390921691909117905580f35b6102a181836108aa565b906001600160401b0382116103bb576102ba8554610716565b601f8111610380575b5089908a601f84116001146103155783600195929460209487966102fb949261030a5750508160011b916000199060031b1c19161790565b86555b0193019301929161025d565b0135905038806101d1565b50858b5260208b2091601f1984168c5b818110610368575093602093600196938796938388951061034e575b505050811b0186556102fe565b0135600019600384901b60f8161c19169055388080610341565b91936020600181928787013581550195019201610325565b6103ab90868c5260208c20601f850160051c810191602086106103b1575b601f0160051c01906108dc565b386102c3565b909150819061039e565b634e487b7160e01b8a52604160045260248afd5b818752836020882091820191015b8181106103ea5750610252565b806103f760019254610716565b80610404575b50016103dd565b601f8111831461041957508881555b386103fd565b818a5260208a2061043491601f0160051c81019084016108dc565b808952886020812081835555610413565b634e487b7160e01b86526041600452602486fd5b8580fd5b8480fd5b8388526020882091601f198416895b8181106104ad5750908460019594939210610493575b505050811b0190556101e9565b0135600019600384901b60f8161c19169055388080610486565b91936020600181928787013581550195019201610470565b6104ef9084895260208920601f850160051c810191602086106103b157601f0160051c01906108dc565b386101b6565b634e487b7160e01b87526041600452602487fd5b8661051691979297610750565b943861010d565b6040513d89823e3d90fd5b8280fd5b8380fd5b5080fd5b5034610074576020366003190112610074576040906004358152600560205220805460018201549160018060a01b036002820154166003820154916105c261057e60048301610787565b600583015494600684015493600860018060a01b0391015416946040519889988952602089015260408801526060870152610100608087015261010086019061082b565b9260a085015260c084015260e08301520390f35b50346100745760a0366003190112610074576064356001600160401b038111610530576060906003199036030112610074576084356001600160401b0381116105305736602382011215610530578060040135906001600160401b03821161052857602490369260051b01011161007457602060405160018152f35b503461007457602036600319011261007457602090600435815260068252604060018060a01b0391205416604051908152f35b503461007457608036600319011261007457602435906044356064356103e88102908082046103e814901517156107025781018091116106ee578281029281840414901517156106da57602082604051908152f35b634e487b7160e01b81526011600452602490fd5b634e487b7160e01b82526011600452602482fd5b634e487b7160e01b83526011600452602483fd5b90600182811c92168015610746575b602083101461073057565b634e487b7160e01b600052602260045260246000fd5b91607f1691610725565b90601f801991011681019081106001600160401b0382111761077157604052565b634e487b7160e01b600052604160045260246000fd5b906040519182600082549261079b84610716565b808452936001811690811561080957506001146107c2575b506107c092500383610750565b565b90506000929192526020600020906000915b8183106107ed5750509060206107c092820101386107b3565b60209193508060019154838589010152019101909184926107d4565b9050602092506107c094915060ff191682840152151560051b820101386107b3565b919082519283825260005b848110610857575050826000602080949584010152601f8019910116010190565b80602080928401015182828601015201610836565b600019811461087b5760010190565b634e487b7160e01b600052601160045260246000fd5b356001600160a01b03811681036108a55790565b600080fd5b903590601e19813603018212156108a557018035906001600160401b0382116108a5576020019181360383136108a557565b8181106108e7575050565b600081556001016108dc565b6003546000906004548114610b75578082526005602052604082206040519061012082018281106001600160401b03821117610b6157604052805482526001810154602083015260018060a01b0360028201541692604083019384526003820154926060810193845261096860048401610787565b9260808201938452600581015460a0830152600681015460c08301526007810180546001600160401b038111610b4d57604051916109ac60208360051b0184610750565b81835289526020808a208a9184015b838310610b30575050505060e0830152600801546001600160a01b03908116610100909201919091529085526006602052604085205485548692919091163f14610aa857506003548452600660205260408420549151925190519261111161111160901b016001600160a01b039384160183169290911690823b1561045d5791610a6b93918593604051809681958294631376cd6560e31b8452600484015260406024840152604483019061082b565b03925af18015610a9d57610a8d575b50505b610a8860035461086c565b600355565b81610a9791610750565b38610a7a565b6040513d84823e3d90fd5b925191519051805184939092602090920191906001600160a01b03165af13d15610b2b573d6001600160401b038111610b175760405190610af3601f8201601f191660200183610750565b81528260203d92013e5b15610b085750610a7d565b634d122b1b60e11b8152600490fd5b634e487b7160e01b83526041600452602483fd5b610afd565b600160208192610b3f85610787565b8152019201920191906109bb565b634e487b7160e01b89526041600452602489fd5b634e487b7160e01b85526041600452602485fd5b505056fea26469706673582212208e4784c7941e8985326b3d70740ccf5b4d3eb3150ebe04eea7cdf7b9b6402c7764736f6c634300081c0033",
  "linkReferences": {},
  "deployedLinkReferences": {}
}