{
  "_format": "hh-sol-artifact-1",
  "contractName": "GEN",
  "sourceName": "contracts/GEN.sol",
  "abi": [
    {
      "inputs": [],
      "name": "AccessControlBadConfirmation",
      "type": "error"
    },
    {
      "inputs": [
        {
          "internalType": "address",
          "name": "account",
          "type": "address"
        },
        {
          "internalType": "bytes32",
          "name": "neededRole",
          "type": "bytes32"
        }
      ],
      "name": "AccessControlUnauthorizedAccount",
      "type": "error"
    },
    {
      "inputs": [],
      "name": "AccountsArrayEmpty",
      "type": "error"
    },
    {
      "inputs": [
        {
          "internalType": "address",
          "name": "target",
          "type": "address"
        }
      ],
      "name": "AddressEmptyCode",
      "type": "error"
    },
    {
      "inputs": [],
      "name": "AmountMustBeGreaterThan0",
      "type": "error"
    },
    {
      "inputs": [],
      "name": "CanOnlyTriggerInflationMaxTenEpochsInFuture",
      "type": "error"
    },
    {
      "inputs": [
        {
          "internalType": "address",
          "name": "implementation",
          "type": "address"
        }
      ],
      "name": "ERC1967InvalidImplementation",
      "type": "error"
    },
    {
      "inputs": [],
      "name": "ERC1967NonPayable",
      "type": "error"
    },
    {
      "inputs": [
        {
          "internalType": "address",
          "name": "spender",
          "type": "address"
        },
        {
          "internalType": "uint256",
          "name": "allowance",
          "type": "uint256"
        },
        {
          "internalType": "uint256",
          "name": "needed",
          "type": "uint256"
        }
      ],
      "name": "ERC20InsufficientAllowance",
      "type": "error"
    },
    {
      "inputs": [
        {
          "internalType": "address",
          "name": "sender",
          "type": "address"
        },
        {
          "internalType": "uint256",
          "name": "balance",
          "type": "uint256"
        },
        {
          "internalType": "uint256",
          "name": "needed",
          "type": "uint256"
        }
      ],
      "name": "ERC20InsufficientBalance",
      "type": "error"
    },
    {
      "inputs": [
        {
          "internalType": "address",
          "name": "approver",
          "type": "address"
        }
      ],
      "name": "ERC20InvalidApprover",
      "type": "error"
    },
    {
      "inputs": [
        {
          "internalType": "address",
          "name": "receiver",
          "type": "address"
        }
      ],
      "name": "ERC20InvalidReceiver",
      "type": "error"
    },
    {
      "inputs": [
        {
          "internalType": "address",
          "name": "sender",
          "type": "address"
        }
      ],
      "name": "ERC20InvalidSender",
      "type": "error"
    },
    {
      "inputs": [
        {
          "internalType": "address",
          "name": "spender",
          "type": "address"
        }
      ],
      "name": "ERC20InvalidSpender",
      "type": "error"
    },
    {
      "inputs": [],
      "name": "FailedCall",
      "type": "error"
    },
    {
      "inputs": [],
      "name": "InflationInitialized",
      "type": "error"
    },
    {
      "inputs": [],
      "name": "InflationNotReadyToBeRealized",
      "type": "error"
    },
    {
      "inputs": [],
      "name": "InitialMintAlreadyCalled",
      "type": "error"
    },
    {
      "inputs": [],
      "name": "InvalidInitialization",
      "type": "error"
    },
    {
      "inputs": [],
      "name": "L2BaseGasCostQueryFailed",
      "type": "error"
    },
    {
      "inputs": [],
      "name": "L2TransactionRequestFailed",
      "type": "error"
    },
    {
      "inputs": [],
      "name": "NotInitializing",
      "type": "error"
    },
    {
      "inputs": [
        {
          "internalType": "address",
          "name": "owner",
          "type": "address"
        }
      ],
      "name": "OwnableInvalidOwner",
      "type": "error"
    },
    {
      "inputs": [
        {
          "internalType": "address",
          "name": "account",
          "type": "address"
        }
      ],
      "name": "OwnableUnauthorizedAccount",
      "type": "error"
    },
    {
      "inputs": [],
      "name": "TotalDistributionMustBe100",
      "type": "error"
    },
    {
      "inputs": [],
      "name": "UUPSUnauthorizedCallContext",
      "type": "error"
    },
    {
      "inputs": [
        {
          "internalType": "bytes32",
          "name": "slot",
          "type": "bytes32"
        }
      ],
      "name": "UUPSUnsupportedProxiableUUID",
      "type": "error"
    },
    {
      "anonymous": false,
      "inputs": [
        {
          "indexed": true,
          "internalType": "address",
          "name": "owner",
          "type": "address"
        },
        {
          "indexed": true,
          "internalType": "address",
          "name": "spender",
          "type": "address"
        },
        {
          "indexed": false,
          "internalType": "uint256",
          "name": "value",
          "type": "uint256"
        }
      ],
      "name": "Approval",
      "type": "event"
    },
    {
      "anonymous": false,
      "inputs": [
        {
          "indexed": true,
          "internalType": "address",
          "name": "_genLayerStaking",
          "type": "address"
        }
      ],
      "name": "GenLayerStakingSet",
      "type": "event"
    },
    {
      "anonymous": false,
      "inputs": [
        {
          "indexed": false,
          "internalType": "uint256",
          "name": "_l2GasPrice",
          "type": "uint256"
        },
        {
          "indexed": false,
          "internalType": "uint256",
          "name": "_l2GasLimit",
          "type": "uint256"
        }
      ],
      "name": "InflationInit",
      "type": "event"
    },
    {
      "anonymous": false,
      "inputs": [],
      "name": "InflationReset",
      "type": "event"
    },
    {
      "anonymous": false,
      "inputs": [
        {
          "indexed": false,
          "internalType": "uint256",
          "name": "_epochTo",
          "type": "uint256"
        },
        {
          "indexed": false,
          "internalType": "uint256",
          "name": "_l2GasPrice",
          "type": "uint256"
        },
        {
          "indexed": false,
          "internalType": "uint256",
          "name": "_l2GasLimit",
          "type": "uint256"
        }
      ],
      "name": "InflationTrigger",
      "type": "event"
    },
    {
      "anonymous": false,
      "inputs": [],
      "name": "InitialMintCalled",
      "type": "event"
    },
    {
      "anonymous": false,
      "inputs": [
        {
          "indexed": false,
          "internalType": "uint64",
          "name": "version",
          "type": "uint64"
        }
      ],
      "name": "Initialized",
      "type": "event"
    },
    {
      "anonymous": false,
      "inputs": [
        {
          "indexed": false,
          "internalType": "uint256",
          "name": "_batchNumber",
          "type": "uint256"
        },
        {
          "indexed": false,
          "internalType": "uint256",
          "name": "_txIndex",
          "type": "uint256"
        },
        {
          "indexed": false,
          "internalType": "uint16",
          "name": "_batchIndex",
          "type": "uint16"
        },
        {
          "indexed": false,
          "internalType": "uint256",
          "name": "_amount",
          "type": "uint256"
        }
      ],
      "name": "L2MessageExecuted",
      "type": "event"
    },
    {
      "anonymous": false,
      "inputs": [
        {
          "indexed": true,
          "internalType": "address",
          "name": "previousOwner",
          "type": "address"
        },
        {
          "indexed": true,
          "internalType": "address",
          "name": "newOwner",
          "type": "address"
        }
      ],
      "name": "OwnershipTransferred",
      "type": "event"
    },
    {
      "anonymous": false,
      "inputs": [
        {
          "indexed": true,
          "internalType": "bytes32",
          "name": "role",
          "type": "bytes32"
        },
        {
          "indexed": true,
          "internalType": "bytes32",
          "name": "previousAdminRole",
          "type": "bytes32"
        },
        {
          "indexed": true,
          "internalType": "bytes32",
          "name": "newAdminRole",
          "type": "bytes32"
        }
      ],
      "name": "RoleAdminChanged",
      "type": "event"
    },
    {
      "anonymous": false,
      "inputs": [
        {
          "indexed": true,
          "internalType": "bytes32",
          "name": "role",
          "type": "bytes32"
        },
        {
          "indexed": true,
          "internalType": "address",
          "name": "account",
          "type": "address"
        },
        {
          "indexed": true,
          "internalType": "address",
          "name": "sender",
          "type": "address"
        }
      ],
      "name": "RoleGranted",
      "type": "event"
    },
    {
      "anonymous": false,
      "inputs": [
        {
          "indexed": true,
          "internalType": "bytes32",
          "name": "role",
          "type": "bytes32"
        },
        {
          "indexed": true,
          "internalType": "address",
          "name": "account",
          "type": "address"
        },
        {
          "indexed": true,
          "internalType": "address",
          "name": "sender",
          "type": "address"
        }
      ],
      "name": "RoleRevoked",
      "type": "event"
    },
    {
      "anonymous": false,
      "inputs": [
        {
          "indexed": true,
          "internalType": "address",
          "name": "_timelockFactory",
          "type": "address"
        }
      ],
      "name": "TimelockFactorySet",
      "type": "event"
    },
    {
      "anonymous": false,
      "inputs": [
        {
          "indexed": true,
          "internalType": "address",
          "name": "from",
          "type": "address"
        },
        {
          "indexed": true,
          "internalType": "address",
          "name": "to",
          "type": "address"
        },
        {
          "indexed": false,
          "internalType": "uint256",
          "name": "value",
          "type": "uint256"
        }
      ],
      "name": "Transfer",
      "type": "event"
    },
    {
      "anonymous": false,
      "inputs": [
        {
          "indexed": true,
          "internalType": "address",
          "name": "implementation",
          "type": "address"
        }
      ],
      "name": "Upgraded",
      "type": "event"
    },
    {
      "anonymous": false,
      "inputs": [
        {
          "indexed": true,
          "internalType": "address",
          "name": "_zkSyncL1AssetRouter",
          "type": "address"
        },
        {
          "indexed": true,
          "internalType": "address",
          "name": "_zkSyncBridgeHub",
          "type": "address"
        },
        {
          "indexed": true,
          "internalType": "address",
          "name": "_zksyncSharedBridge",
          "type": "address"
        }
      ],
      "name": "ZkSyncContractsSet",
      "type": "event"
    },
    {
      "inputs": [],
      "name": "BURNER_ROLE",
      "outputs": [
        {
          "internalType": "bytes32",
          "name": "",
          "type": "bytes32"
        }
      ],
      "stateMutability": "view",
      "type": "function"
    },
    {
      "inputs": [],
      "name": "BURN_SELECTOR",
      "outputs": [
        {
          "internalType": "bytes4",
          "name": "",
          "type": "bytes4"
        }
      ],
      "stateMutability": "view",
      "type": "function"
    },
    {
      "inputs": [],
      "name": "DEFAULT_ADMIN_ROLE",
      "outputs": [
        {
          "internalType": "bytes32",
          "name": "",
          "type": "bytes32"
        }
      ],
      "stateMutability": "view",
      "type": "function"
    },
    {
      "inputs": [],
      "name": "GENLAYER_CHAIN_ID",
      "outputs": [
        {
          "internalType": "uint256",
          "name": "",
          "type": "uint256"
        }
      ],
      "stateMutability": "view",
      "type": "function"
    },
    {
      "inputs": [],
      "name": "INFLATION_BASE",
      "outputs": [
        {
          "internalType": "uint256",
          "name": "",
          "type": "uint256"
        }
      ],
      "stateMutability": "view",
      "type": "function"
    },
    {
      "inputs": [],
      "name": "INFLATION_DECAY_DELTA",
      "outputs": [
        {
          "internalType": "uint256",
          "name": "",
          "type": "uint256"
        }
      ],
      "stateMutability": "view",
      "type": "function"
    },
    {
      "inputs": [],
      "name": "INFLATION_DECAY_EPOCHS",
      "outputs": [
        {
          "internalType": "uint256",
          "name": "",
          "type": "uint256"
        }
      ],
      "stateMutability": "view",
      "type": "function"
    },
    {
      "inputs": [],
      "name": "INFLATION_EPOCH_DURATION",
      "outputs": [
        {
          "internalType": "uint256",
          "name": "",
          "type": "uint256"
        }
      ],
      "stateMutability": "view",
      "type": "function"
    },
    {
      "inputs": [],
      "name": "INFLATION_FINAL",
      "outputs": [
        {
          "internalType": "uint256",
          "name": "",
          "type": "uint256"
        }
      ],
      "stateMutability": "view",
      "type": "function"
    },
    {
      "inputs": [],
      "name": "INFLATION_INCEPTION",
      "outputs": [
        {
          "internalType": "uint256",
          "name": "",
          "type": "uint256"
        }
      ],
      "stateMutability": "view",
      "type": "function"
    },
    {
      "inputs": [],
      "name": "INFLATION_INITIAL",
      "outputs": [
        {
          "internalType": "uint256",
          "name": "",
          "type": "uint256"
        }
      ],
      "stateMutability": "view",
      "type": "function"
    },
    {
      "inputs": [],
      "name": "INFLATION_MID",
      "outputs": [
        {
          "internalType": "int256",
          "name": "",
          "type": "int256"
        }
      ],
      "stateMutability": "view",
      "type": "function"
    },
    {
      "inputs": [],
      "name": "INFLATION_STEEPNESS",
      "outputs": [
        {
          "internalType": "int256",
          "name": "",
          "type": "int256"
        }
      ],
      "stateMutability": "view",
      "type": "function"
    },
    {
      "inputs": [],
      "name": "INITIAL_SUPPLY",
      "outputs": [
        {
          "internalType": "uint256",
          "name": "",
          "type": "uint256"
        }
      ],
      "stateMutability": "view",
      "type": "function"
    },
    {
      "inputs": [],
      "name": "MINTER_ROLE",
      "outputs": [
        {
          "internalType": "bytes32",
          "name": "",
          "type": "bytes32"
        }
      ],
      "stateMutability": "view",
      "type": "function"
    },
    {
      "inputs": [],
      "name": "ONE",
      "outputs": [
        {
          "internalType": "uint256",
          "name": "",
          "type": "uint256"
        }
      ],
      "stateMutability": "view",
      "type": "function"
    },
    {
      "inputs": [],
      "name": "UPGRADE_INTERFACE_VERSION",
      "outputs": [
        {
          "internalType": "string",
          "name": "",
          "type": "string"
        }
      ],
      "stateMutability": "view",
      "type": "function"
    },
    {
      "inputs": [],
      "name": "VERSION",
      "outputs": [
        {
          "internalType": "uint256",
          "name": "",
          "type": "uint256"
        }
      ],
      "stateMutability": "view",
      "type": "function"
    },
    {
      "inputs": [],
      "name": "ZKSYNC_BRIDGE_HUB",
      "outputs": [
        {
          "internalType": "contract IBridgeHub",
          "name": "",
          "type": "address"
        }
      ],
      "stateMutability": "view",
      "type": "function"
    },
    {
      "inputs": [],
      "name": "ZKSYNC_L1_ASSET_ROUTER",
      "outputs": [
        {
          "internalType": "address",
          "name": "",
          "type": "address"
        }
      ],
      "stateMutability": "view",
      "type": "function"
    },
    {
      "inputs": [],
      "name": "ZKSYNC_SHARED_BRIDGE",
      "outputs": [
        {
          "internalType": "contract ISharedBridge",
          "name": "",
          "type": "address"
        }
      ],
      "stateMutability": "view",
      "type": "function"
    },
    {
      "inputs": [
        {
          "internalType": "address",
          "name": "owner",
          "type": "address"
        },
        {
          "internalType": "address",
          "name": "spender",
          "type": "address"
        }
      ],
      "name": "allowance",
      "outputs": [
        {
          "internalType": "uint256",
          "name": "",
          "type": "uint256"
        }
      ],
      "stateMutability": "view",
      "type": "function"
    },
    {
      "inputs": [
        {
          "internalType": "address",
          "name": "spender",
          "type": "address"
        },
        {
          "internalType": "uint256",
          "name": "value",
          "type": "uint256"
        }
      ],
      "name": "approve",
      "outputs": [
        {
          "internalType": "bool",
          "name": "",
          "type": "bool"
        }
      ],
      "stateMutability": "nonpayable",
      "type": "function"
    },
    {
      "inputs": [
        {
          "internalType": "address",
          "name": "account",
          "type": "address"
        }
      ],
      "name": "balanceOf",
      "outputs": [
        {
          "internalType": "uint256",
          "name": "",
          "type": "uint256"
        }
      ],
      "stateMutability": "view",
      "type": "function"
    },
    {
      "inputs": [
        {
          "internalType": "uint256",
          "name": "amount",
          "type": "uint256"
        }
      ],
      "name": "burn",
      "outputs": [],
      "stateMutability": "nonpayable",
      "type": "function"
    },
    {
      "inputs": [],
      "name": "burn",
      "outputs": [],
      "stateMutability": "nonpayable",
      "type": "function"
    },
    {
      "inputs": [],
      "name": "decimals",
      "outputs": [
        {
          "internalType": "uint8",
          "name": "",
          "type": "uint8"
        }
      ],
      "stateMutability": "view",
      "type": "function"
    },
    {
      "inputs": [
        {
          "internalType": "uint256",
          "name": "_batchNumber",
          "type": "uint256"
        },
        {
          "internalType": "uint256",
          "name": "_txIndex",
          "type": "uint256"
        },
        {
          "internalType": "uint16",
          "name": "_batchIndex",
          "type": "uint16"
        },
        {
          "internalType": "uint256",
          "name": "_amount",
          "type": "uint256"
        },
        {
          "internalType": "bytes32[]",
          "name": "_proof",
          "type": "bytes32[]"
        }
      ],
      "name": "executeL2Message",
      "outputs": [],
      "stateMutability": "nonpayable",
      "type": "function"
    },
    {
      "inputs": [],
      "name": "genLayerStaking",
      "outputs": [
        {
          "internalType": "address",
          "name": "",
          "type": "address"
        }
      ],
      "stateMutability": "view",
      "type": "function"
    },
    {
      "inputs": [
        {
          "internalType": "bytes32",
          "name": "role",
          "type": "bytes32"
        }
      ],
      "name": "getRoleAdmin",
      "outputs": [
        {
          "internalType": "bytes32",
          "name": "",
          "type": "bytes32"
        }
      ],
      "stateMutability": "view",
      "type": "function"
    },
    {
      "inputs": [
        {
          "internalType": "bytes32",
          "name": "role",
          "type": "bytes32"
        },
        {
          "internalType": "address",
          "name": "account",
          "type": "address"
        }
      ],
      "name": "grantRole",
      "outputs": [],
      "stateMutability": "nonpayable",
      "type": "function"
    },
    {
      "inputs": [
        {
          "internalType": "bytes32",
          "name": "role",
          "type": "bytes32"
        },
        {
          "internalType": "address",
          "name": "account",
          "type": "address"
        }
      ],
      "name": "hasRole",
      "outputs": [
        {
          "internalType": "bool",
          "name": "",
          "type": "bool"
        }
      ],
      "stateMutability": "view",
      "type": "function"
    },
    {
      "inputs": [],
      "name": "implementation",
      "outputs": [
        {
          "internalType": "address",
          "name": "",
          "type": "address"
        }
      ],
      "stateMutability": "view",
      "type": "function"
    },
    {
      "inputs": [],
      "name": "inflationEpoch",
      "outputs": [
        {
          "internalType": "uint256",
          "name": "",
          "type": "uint256"
        }
      ],
      "stateMutability": "view",
      "type": "function"
    },
    {
      "inputs": [
        {
          "internalType": "uint256",
          "name": "_l2GasPrice",
          "type": "uint256"
        },
        {
          "internalType": "uint256",
          "name": "_l2GasLimit",
          "type": "uint256"
        }
      ],
      "name": "inflationInit",
      "outputs": [],
      "stateMutability": "nonpayable",
      "type": "function"
    },
    {
      "inputs": [],
      "name": "inflationInitialized",
      "outputs": [
        {
          "internalType": "bool",
          "name": "",
          "type": "bool"
        }
      ],
      "stateMutability": "view",
      "type": "function"
    },
    {
      "inputs": [
        {
          "internalType": "uint256",
          "name": "_epochTo",
          "type": "uint256"
        },
        {
          "internalType": "uint256",
          "name": "_l2GasPrice",
          "type": "uint256"
        },
        {
          "internalType": "uint256",
          "name": "_l2GasLimit",
          "type": "uint256"
        }
      ],
      "name": "inflationTrigger",
      "outputs": [],
      "stateMutability": "nonpayable",
      "type": "function"
    },
    {
      "inputs": [
        {
          "internalType": "address[]",
          "name": "accounts",
          "type": "address[]"
        },
        {
          "internalType": "uint256[]",
          "name": "distribution",
          "type": "uint256[]"
        }
      ],
      "name": "initialMint",
      "outputs": [],
      "stateMutability": "nonpayable",
      "type": "function"
    },
    {
      "inputs": [],
      "name": "initialMintCalled",
      "outputs": [
        {
          "internalType": "bool",
          "name": "",
          "type": "bool"
        }
      ],
      "stateMutability": "view",
      "type": "function"
    },
    {
      "inputs": [],
      "name": "initialize",
      "outputs": [],
      "stateMutability": "nonpayable",
      "type": "function"
    },
    {
      "inputs": [
        {
          "internalType": "address",
          "name": "_zkSyncL1AssetRouter",
          "type": "address"
        },
        {
          "internalType": "address",
          "name": "_zkSyncBridgeHub",
          "type": "address"
        },
        {
          "internalType": "address",
          "name": "_zksyncSharedBridge",
          "type": "address"
        },
        {
          "internalType": "address",
          "name": "_genLayerStaking",
          "type": "address"
        }
      ],
      "name": "initializeV2",
      "outputs": [],
      "stateMutability": "nonpayable",
      "type": "function"
    },
    {
      "inputs": [
        {
          "internalType": "uint256",
          "name": "batchNumber",
          "type": "uint256"
        },
        {
          "internalType": "uint256",
          "name": "txIndex",
          "type": "uint256"
        },
        {
          "internalType": "uint256",
          "name": "batchIndex",
          "type": "uint256"
        },
        {
          "internalType": "bytes32",
          "name": "messageHash",
          "type": "bytes32"
        }
      ],
      "name": "invokedL2Messages",
      "outputs": [
        {
          "internalType": "bool",
          "name": "invoked",
          "type": "bool"
        }
      ],
      "stateMutability": "view",
      "type": "function"
    },
    {
      "inputs": [],
      "name": "lastInflationEpoch",
      "outputs": [
        {
          "internalType": "uint256",
          "name": "",
          "type": "uint256"
        }
      ],
      "stateMutability": "view",
      "type": "function"
    },
    {
      "inputs": [
        {
          "internalType": "address",
          "name": "account",
          "type": "address"
        },
        {
          "internalType": "uint256",
          "name": "amount",
          "type": "uint256"
        }
      ],
      "name": "mint",
      "outputs": [],
      "stateMutability": "nonpayable",
      "type": "function"
    },
    {
      "inputs": [],
      "name": "name",
      "outputs": [
        {
          "internalType": "string",
          "name": "",
          "type": "string"
        }
      ],
      "stateMutability": "view",
      "type": "function"
    },
    {
      "inputs": [],
      "name": "owner",
      "outputs": [
        {
          "internalType": "address",
          "name": "",
          "type": "address"
        }
      ],
      "stateMutability": "view",
      "type": "function"
    },
    {
      "inputs": [],
      "name": "proxiableUUID",
      "outputs": [
        {
          "internalType": "bytes32",
          "name": "",
          "type": "bytes32"
        }
      ],
      "stateMutability": "view",
      "type": "function"
    },
    {
      "inputs": [],
      "name": "renounceOwnership",
      "outputs": [],
      "stateMutability": "nonpayable",
      "type": "function"
    },
    {
      "inputs": [
        {
          "internalType": "bytes32",
          "name": "role",
          "type": "bytes32"
        },
        {
          "internalType": "address",
          "name": "callerConfirmation",
          "type": "address"
        }
      ],
      "name": "renounceRole",
      "outputs": [],
      "stateMutability": "nonpayable",
      "type": "function"
    },
    {
      "inputs": [],
      "name": "resetInflation",
      "outputs": [],
      "stateMutability": "nonpayable",
      "type": "function"
    },
    {
      "inputs": [
        {
          "internalType": "bytes32",
          "name": "role",
          "type": "bytes32"
        },
        {
          "internalType": "address",
          "name": "account",
          "type": "address"
        }
      ],
      "name": "revokeRole",
      "outputs": [],
      "stateMutability": "nonpayable",
      "type": "function"
    },
    {
      "inputs": [
        {
          "internalType": "address",
          "name": "_genLayerStaking",
          "type": "address"
        }
      ],
      "name": "setGenLayerStaking",
      "outputs": [],
      "stateMutability": "nonpayable",
      "type": "function"
    },
    {
      "inputs": [
        {
          "internalType": "address",
          "name": "_timelockFactory",
          "type": "address"
        }
      ],
      "name": "setTimelockFactory",
      "outputs": [],
      "stateMutability": "nonpayable",
      "type": "function"
    },
    {
      "inputs": [
        {
          "internalType": "address",
          "name": "_zkSyncL1AssetRouter",
          "type": "address"
        },
        {
          "internalType": "address",
          "name": "_zkSyncBridgeHub",
          "type": "address"
        },
        {
          "internalType": "address",
          "name": "_zksyncSharedBridge",
          "type": "address"
        }
      ],
      "name": "setZkSyncContracts",
      "outputs": [],
      "stateMutability": "nonpayable",
      "type": "function"
    },
    {
      "inputs": [
        {
          "internalType": "bytes4",
          "name": "interfaceId",
          "type": "bytes4"
        }
      ],
      "name": "supportsInterface",
      "outputs": [
        {
          "internalType": "bool",
          "name": "",
          "type": "bool"
        }
      ],
      "stateMutability": "view",
      "type": "function"
    },
    {
      "inputs": [],
      "name": "symbol",
      "outputs": [
        {
          "internalType": "string",
          "name": "",
          "type": "string"
        }
      ],
      "stateMutability": "view",
      "type": "function"
    },
    {
      "inputs": [],
      "name": "timelockFactory",
      "outputs": [
        {
          "internalType": "address",
          "name": "",
          "type": "address"
        }
      ],
      "stateMutability": "view",
      "type": "function"
    },
    {
      "inputs": [],
      "name": "totalSupply",
      "outputs": [
        {
          "internalType": "uint256",
          "name": "",
          "type": "uint256"
        }
      ],
      "stateMutability": "view",
      "type": "function"
    },
    {
      "inputs": [
        {
          "internalType": "address",
          "name": "to",
          "type": "address"
        },
        {
          "internalType": "uint256",
          "name": "value",
          "type": "uint256"
        }
      ],
      "name": "transfer",
      "outputs": [
        {
          "internalType": "bool",
          "name": "",
          "type": "bool"
        }
      ],
      "stateMutability": "nonpayable",
      "type": "function"
    },
    {
      "inputs": [
        {
          "internalType": "address",
          "name": "from",
          "type": "address"
        },
        {
          "internalType": "address",
          "name": "to",
          "type": "address"
        },
        {
          "internalType": "uint256",
          "name": "value",
          "type": "uint256"
        }
      ],
      "name": "transferFrom",
      "outputs": [
        {
          "internalType": "bool",
          "name": "",
          "type": "bool"
        }
      ],
      "stateMutability": "nonpayable",
      "type": "function"
    },
    {
      "inputs": [
        {
          "internalType": "address",
          "name": "newOwner",
          "type": "address"
        }
      ],
      "name": "transferOwnership",
      "outputs": [],
      "stateMutability": "nonpayable",
      "type": "function"
    },
    {
      "inputs": [],
      "name": "triggerInflation",
      "outputs": [],
      "stateMutability": "nonpayable",
      "type": "function"
    },
    {
      "inputs": [
        {
          "internalType": "address",
          "name": "newImplementation",
          "type": "address"
        },
        {
          "internalType": "bytes",
          "name": "data",
          "type": "bytes"
        }
      ],
      "name": "upgradeToAndCall",
      "outputs": [],
      "stateMutability": "payable",
      "type": "function"
    }
  ],
  "bytecode": "0x60a0806040523460295730608052613b29908161002f82396080518181816116d501526117a50152f35b600080fdfe608080604052600436101561001357600080fd5b600090813560e01c90816301eb18b7146122a45750806301ffc9a71461224d57806302c789c31461210a57806306fdde0314612021578063095ea7b314611ffa5780631757cd2f14611daa57806318160ddd14611d7f5780631a4c184514611d5d5780631a7ea9fc14611d405780632182680314611cc457806323b872dd14611bdf578063248a9ca314611bb8578063282c51f314611b8f5780632b24c0d914611b665780632f2ff15d14611b345780632ff2e9dc1461059d578063313ce56714611b1857806332b47ab314611afb578063340a136714611aa857806336568abe14611a6357806340c10f19146119f057806342966c681461198657806344df8e70146119725780634971ec021461194f5780634f1ef2861461172a57806352d1902d146116c257806355338d1e146116955780635c60da1b1461165f578063601846df1461163657806366ba54791461161057806369d8f065146115f257806370a08231146115ac578063715018a6146115415780637492100f1461151f5780638119e57c146115015780638129fc1c1461105057806387a131bb1461102d5780638da5cb5b14610ff757806391d1485414610f9e578063920d263914610f1757806394179eea14610e7c57806395d89b4114610d81578063984a6672146108f357806399bcc5d714610897578063a01ebaa114610873578063a217fddf14610857578063a8027c1014610834578063a9059cbb14610802578063ad3cb1cc146107b7578063bb3d33b714610794578063bedaeace14610777578063c0a604ad1461074b578063c2ee3a0814610728578063c6fe12ea146105a2578063cd38347f1461059d578063d539139314610574578063d547741f14610539578063dd62ed3e146104ef578063dec1027e146104c6578063e2ef97a31461049d578063f27ebced14610321578063f2fde38b146102f45763ffa1ad74146102d657600080fd5b346102f157806003193601126102f157602060405160048152f35b80fd5b50346102f15760203660031901126102f15761031e61031161232f565b610319612d1f565b612c1f565b80f35b50346102f15760803660031901126102f15761033b61232f565b610343612345565b61034b61235b565b606435929091906001600160a01b038416840361049857600080516020613ad48339815191525460ff8160401c168015610484575b6104755768ffffffffffffffffff19166801000000000000000217600080516020613ad4833981519152556103b430612d55565b506103be30612de1565b506103c833612e67565b50600480546001600160a01b03199081166001600160a01b03938416179091556005805482169383169390931790925560068054909216921691909117905560028054610100600160a81b03191660089290921b610100600160a81b0316919091178155600080516020613ad4833981519152805460ff60401b191690556040519081527fc7f505b2f371ae2175ee4913f4499e1f2633a7b5936321eed1cdaeb6115181d290602090a180f35b63f92ee8a960e01b8652600486fd5b5060026001600160401b0382161015610380565b600080fd5b50346102f157806003193601126102f1576006546040516001600160a01b039091168152602090f35b50346102f157806003193601126102f1576004546040516001600160a01b039091168152602090f35b50346102f15760403660031901126102f15761050961232f565b61051a610514612345565b91612a87565b9060018060a01b03166000526020526020604060002054604051908152f35b50346102f15760403660031901126102f157610570600435610559612345565b9061056b6105668261269a565b61305f565b61314e565b5080f35b50346102f157806003193601126102f1576020604051600080516020613a748339815191528152f35b612394565b50346102f15760403660031901126102f1576004356001600160401b038111610724576105d39036906004016123bb565b906024356001600160401b038111610720576105f39036906004016123bb565b906105fc612d1f565b60ff60025416610711578315610702579190849285945b8086106106675786612710860361065857600160ff1960025416176002557f87882703560ca8ab0be2175f374fc04ecd07f3ede12068ab20dbf131f93c08dc8180a180f35b630b48249960e11b8152600490fd5b90919293610676868387612bf9565b356001600160a01b03811681036106fe57610692878686612bf9565b35806b0d92289838d21a996800000002906b0d92289838d21a99680000008204036106ea57916106cc6106de926127106001950490612c95565b6106d7888787612bf9565b359061247b565b95019493929190610613565b634e487b7160e01b89526011600452602489fd5b8780fd5b63b1d0b18160e01b8552600485fd5b63acf9028d60e01b8552600485fd5b8380fd5b5080fd5b50346102f157806003193601126102f1576020604051670de0b6b3a76400008152f35b50346102f157806003193601126102f15760206201518061076e60005442612371565b04604051908152f35b50346102f157806003193601126102f15760206040516105b48152f35b50346102f157806003193601126102f157602060ff600254166040519015158152f35b50346102f157806003193601126102f1576107fe60408051906107da818361241d565b60058252640352e302e360dc1b6020830152519182916020835260208301906122ee565b0390f35b50346102f15760403660031901126102f15761082961081f61232f565b6024359033612f98565b602060405160018152f35b50346102f157806003193601126102f1576020604051660aa87bee537fff198152f35b50346102f157806003193601126102f157602090604051908152f35b50346102f157806003193601126102f1576020604051684e1003b28d928000008152f35b50346102f157806003193601126102f1576108b0612d1f565b6002805460ff191690556006805460ff60a01b1916905560018190557fc08a61aa28efe4d79f0c38b6bc334b28f8706e2a729baf2283f4a1502510e8d08180a180f35b50346102f15760603660031901126102f157600435604435602435610916612d1f565b6001549260009380828114610d725761092f9083612371565b600a10610d635784905b828110610bc857600155600554604051631c588c9d60e21b815261107d60048201526024810185905260448101869052610320606482015290602090829060849082906001600160a01b03165afa869181610b90575b506109d85760048661099f6124c2565b6308c379a0146109bf575b6109b2612556565b50633ee4e2f160e11b8152fd5b6109c76124e0565b156109aa57633ee4e2f160e11b8152fd5b8060041b9080820460101490151715610b7c5781600a6109f8920461247b565b90610a038230612c95565b600454610a1b9083906001600160a01b0316306137a3565b60018060a01b0360025460081c169060015460405190631bd1b3a760e31b6020830152602482015260248152610a5260448261241d565b610a5a612586565b9160405194610a68866123eb565b61107d86526020860152604085018490526060850152608084015260a0830186905261032060c084015260e08301526101008201526005546001600160a01b031690813b15610b7857610ad48692839260405194858094819363d52471c160e01b8352600483016125ba565b03925af19081610b64575b50610b2857600484610aef6124c2565b6308c379a014610b0f575b610b02612556565b50631efae81160e01b8152fd5b610b176124e0565b15610afa57631efae81160e01b8152fd5b917f64ebf2e66fc9dbec4980d925d238ed8bb22d140ab9d8a4b308da6a4d5a939fc993916060936040519350835260208301526040820152a180f35b85610b719196929661241d565b9338610adf565b8580fd5b634e487b7160e01b86526011600452602486fd5b9091506020813d602011610bc0575b81610bac6020938361241d565b81010312610bbc5751903861098f565b8680fd5b3d9150610b9f565b610bd190612459565b90670de0b6b3a76400008202828104670de0b6b3a76400001483151715610d01576702ea11e32ad5000090684e1003b28d927fffff198101908113600116610d1557610c3e9088811290610c3390660aa87bee5380009083610d545790613836565b9015610d465761337d565b9081670de0b6b3a764000001918212600116610d1557878212801592610c699291610d3757906138a0565b90600103610d29575b806703782dace9d9000003906703782dace9d900008211610d1557670de0b6b3a76400008202918204670de0b6b3a764000014906703782dace9d90000141715610d015768138400eca364a000009004806b0d92289838d21a996800000002906b0d92289838d21a9968000000820403610d015790670de0b6b3a7640000610cfb92049061247b565b90610939565b634e487b7160e01b87526011600452602487fd5b634e487b7160e01b88526011600452602488fd5b610d32906131ee565b610c72565b610d40906131ee565b906138a0565b610d4f906131ee565b61337d565b610d5d906131ee565b90613836565b632a7e7b5b60e21b8552600485fd5b637d8fa22560e01b8652600486fd5b50346102f157806003193601126102f15760405160006000805160206139b483398151915254610db081612488565b8084529060018116908115610e585750600114610dec575b6107fe83610dd88185038261241d565b6040519182916020835260208301906122ee565b6000805160206139b483398151915260009081527f46a2803e59a4de4e7a4c574b1243f25977ac4c77d5a1a4a609b5394cebb4a2aa939250905b808210610e3e57509091508101602001610dd8610dc8565b919260018160209254838588010152019101909291610e26565b60ff191660208086019190915291151560051b84019091019150610dd89050610dc8565b50346102f15760603660031901126102f157610e9661232f565b610e9e612345565b90610ea761235b565b90610eb0612d1f565b600480546001600160a01b039283166001600160a01b0319918216811790925560058054958416958216861790556006805494909316931683179091559091907ff16088c43eb2425f3f3203ca4274b1ce2cfce49a7497ed15a3af7b078641c7b38480a480f35b50346102f15760203660031901126102f157610f3161232f565b610f39612d1f565b60028054610100600160a81b031916600883901b610100600160a81b0316179055610f6381612d55565b50610f6d81612de1565b506001600160a01b03167fccad446045fb1a917b54e951901bb734ca96aaa7456e49d98e2258958cb3ad3b8280a280f35b50346102f15760403660031901126102f1576040610fba612345565b916004358152600080516020613ab4833981519152602052209060018060a01b0316600052602052602060ff604060002054166040519015158152f35b50346102f157806003193601126102f1576000805160206139d4833981519152546040516001600160a01b039091168152602090f35b50346102f157806003193601126102f15760405163044df8e760e41b8152602090f35b50346102f157806003193601126102f157600080516020613ad4833981519152549060ff8260401c1615916001600160401b038116801590816114f9575b60011490816114ef575b1590816114e6575b506114d75767ffffffffffffffff198116600117600080516020613ad483398151915255826114aa575b506110d3613808565b60408051926110e2828561241d565b600d84526c23b2b72630bcb2b92a37b5b2b760991b6020850152815193611109838661241d565b600385526223a2a760e91b6020860152611121613808565b611129613808565b8051906001600160401b03821161149657819061115460008051602061397483398151915254612488565b601f811161141b575b50602090601f831160011461139c578692611391575b50508160011b916000199060031b1c191617600080516020613974833981519152555b83516001600160401b03811161137d576111be6000805160206139b483398151915254612488565b601f811161130d575b50602094601f821160011461128f579484958293949592611284575b50508160011b916000199060031b1c1916176000805160206139b4833981519152555b61120e613808565b611216613808565b61121f33612c1f565b611227613808565b61123033612e67565b5042835561123c575080f35b600080516020613ad4833981519152805460ff60401b1916905551600181527fc7f505b2f371ae2175ee4913f4499e1f2633a7b5936321eed1cdaeb6115181d290602090a180f35b0151905038806111e3565b601f198216956000805160206139b4833981519152865280862091865b8881106112f5575083600195969798106112dc575b505050811b016000805160206139b483398151915255611206565b015160001960f88460031b161c191690553880806112c1565b919260206001819286850151815501940192016112ac565b6000805160206139b483398151915285527f46a2803e59a4de4e7a4c574b1243f25977ac4c77d5a1a4a609b5394cebb4a2aa601f830160051c81019160208410611373575b601f0160051c01905b81811061136857506111c7565b85815560010161135b565b9091508190611352565b634e487b7160e01b84526041600452602484fd5b015190503880611173565b60008051602061397483398151915287528187209250601f198416875b81811061140357509084600195949392106113ea575b505050811b0160008051602061397483398151915255611196565b015160001960f88460031b161c191690553880806113cf565b929360206001819287860151815501950193016113b9565b60008051602061397483398151915287529091507f2ae08a8e29253f69ac5d979a101956ab8f8d9d7ded63fa7a83b16fc47648eab0601f840160051c8101916020851061148c575b90601f859493920160051c01905b81811061147e575061115d565b878155849350600101611471565b9091508190611463565b634e487b7160e01b85526041600452602485fd5b68ffffffffffffffffff19166801000000000000000117600080516020613ad483398151915255386110ca565b63f92ee8a960e01b8252600482fd5b905015386110a0565b303b159150611098565b84915061108e565b50346102f157806003193601126102f1576020604051620151808152f35b50346102f157806003193601126102f1576020604051668e1bc9bf0400008152f35b50346102f157806003193601126102f15761155a612d1f565b6000805160206139d483398151915280546001600160a01b031981169091556000906001600160a01b03167f8be0079c531659141344cd1fd0a4f28419497f9722a3daafe3b4186f6b6457e08280a380f35b50346102f15760203660031901126102f1576020906040906001600160a01b036115d461232f565b16815260008051602061399483398151915283522054604051908152f35b50346102f157806003193601126102f1576020600154604051908152f35b50346102f157806003193601126102f157602060ff60065460a01c166040519015158152f35b50346102f157806003193601126102f1576003546040516001600160a01b039091168152602090f35b50346102f157806003193601126102f157600080516020613a34833981519152546040516001600160a01b039091168152602090f35b50346102f157806003193601126102f15760025460405160089190911c6001600160a01b03168152602090f35b50346102f157806003193601126102f1577f00000000000000000000000000000000000000000000000000000000000000006001600160a01b0316300361171b576020604051600080516020613a348339815191528152f35b63703e46dd60e11b8152600490fd5b5060403660031901126102f15761173f61232f565b602435906001600160401b03821161194b573660238301121561194b578160040135908361176c8361243e565b9361177a604051958661241d565b8385526020850193366024828401011161194b57806024602093018637850101526001600160a01b037f000000000000000000000000000000000000000000000000000000000000000016308114908115611928575b50611919576117dd612d1f565b6040516352d1902d60e01b81526001600160a01b0382169390602081600481885afa8691816118e5575b5061182057634c9c8ce360e01b86526004859052602486fd5b9384600080516020613a348339815191528796036118d35750823b156118c157600080516020613a3483398151915280546001600160a01b031916821790558491907fbc7cd75a20ee27fd9adebab32041f755214dbc6bffa90cc0225b39da2e5c2d3b8380a28051156118a6576105709382915190845af46118a0612556565b916138d2565b50505050346118b25780f35b63b398979f60e01b8152600490fd5b634c9c8ce360e01b8552600452602484fd5b632a87526960e21b8652600452602485fd5b9091506020813d602011611911575b816119016020938361241d565b81010312610bbc57519038611807565b3d91506118f4565b63703e46dd60e11b8452600484fd5b600080516020613a34833981519152546001600160a01b031614159050386117d0565b8280fd5b50346102f157806003193601126102f15760206040516703782dace9d900008152f35b50346102f157806003193601126102f15780f35b50346102f15760203660031901126102f157336000908152600080516020613a14833981519152602052604090205460ff16156119c95761031e600435336130a9565b63e2517d3f60e01b6000523360045260008051602061395483398151915260245260446000fd5b50346102f15760403660031901126102f157611a0a61232f565b336000908152600080516020613a54833981519152602052604090205460ff1615611a3c5761031e9060243590612c95565b63e2517d3f60e01b60005233600452600080516020613a7483398151915260245260446000fd5b50346102f15760403660031901126102f157611a7d612345565b336001600160a01b03821603611a99576105709060043561314e565b63334bd91960e11b8252600482fd5b50346102f15760a03660031901126102f15760443561ffff8116810361072457608435906001600160401b03821161194b57611aeb61031e9236906004016123bb565b91606435906024356004356126f7565b50346102f157806003193601126102f157602060405161107d8152f35b50346102f157806003193601126102f157602060405160128152f35b50346102f15760403660031901126102f157610570600435611b54612345565b90611b616105668261269a565b612f01565b50346102f157806003193601126102f1576005546040516001600160a01b039091168152602090f35b50346102f157806003193601126102f15760206040516000805160206139548339815191528152f35b50346102f15760203660031901126102f1576020611bd760043561269a565b604051908152f35b50346102f15760603660031901126102f157611bf961232f565b611c01612345565b60443591611c0e81612a87565b33600090815260209190915260409020549360018501611c34575b506108299350612f98565b838510611ca957506001600160a01b03811615611c93573315611c7d5761082993611c5e82612a87565b60018060a01b0333166000526020528360406000209103905538611c29565b634a1406b160e11b600052600060045260246000fd5b63e602df0560e01b600052600060045260246000fd5b6064908486637dc7a0d960e11b835233600452602452604452fd5b50346102f15760203660031901126102f157611cde61232f565b611ce6612d1f565b600380546001600160a01b0319166001600160a01b03831690811790915590611d1890611d1281612d55565b50612de1565b507fdf4e0b4461c624efdbb59f235b00095dfb1a237e057e146b4a39b44b1c90bcd38280a280f35b50346102f157806003193601126102f15760209054604051908152f35b50346102f157806003193601126102f15760206582d156d2e854604051908152f35b50346102f157806003193601126102f15760206000805160206139f483398151915254604051908152f35b50346102f15760403660031901126102f157600435602435611dca612d1f565b60065460ff8160a01c16611feb5760ff60a01b1916600160a01b17600655600554604051631c588c9d60e21b815261107d60048201526024810184905260448101839052610320606482015290602090829060849082906001600160a01b03165afa849181611fb3575b50611e445760048461099f6124c2565b8060041b9080820460101490151715611f9f57600a90049250611e678330612c95565b600454611e7f9084906001600160a01b0316306137a3565b60025460405163c3ff497760e01b602082015242602480830191909152815260089190911c6001600160a01b031693611eb960448361241d565b611ec1612586565b9460405191611ecf836123eb565b61107d83526020830152806040830152600095869384606085015260808401528460a084015261032060c084015260e083015261010082015260018060a01b036005541690813b1561194b578291611f3d9160405194858094819363d52471c160e01b8352600483016125ba565b03925af19081611f8b575b50611f5857600483610aef6124c2565b7ff9585ee5c4ecc766ab816d945301ff04829efd44b80e98b79d7d24fe255b73219160409182519182526020820152a180f35b84611f989195929561241d565b9238611f48565b634e487b7160e01b84526011600452602484fd5b9091506020813d602011611fe3575b81611fcf6020938361241d565b81010312611fdf57519038611e34565b8480fd5b3d9150611fc2565b63067f34cf60e01b8452600484fd5b50346102f15760403660031901126102f15761082961201761232f565b60243590336137a3565b50346102f157806003193601126102f1576040519080600080516020613974833981519152549061205182612488565b80855291600181169081156120e35750600114612079575b6107fe84610dd88186038261241d565b60008051602061397483398151915281527f2ae08a8e29253f69ac5d979a101956ab8f8d9d7ded63fa7a83b16fc47648eab0939250905b8082106120c957509091508101602001610dd882612069565b9192600181602092548385880101520191019092916120b0565b60ff191660208087019190915292151560051b85019092019250610dd89150839050612069565b50346102f157806003193601126102f1576001546201518061212d835442612371565b048082146121fd5790826000805160206139f483398151915254925b80831061216257848361215c8430612c95565b60015580f35b9161216c90612459565b92836105b4116000146121da576582d156d2e8548481029081048503610b7c576703782dace9d90000036703782dace9d900008111610b7c57906121cc670de0b6b3a76400006121c461016d6121d2955b0484612468565b04809261247b565b9261247b565b909291612149565b6121d2906121cc670de0b6b3a76400006121c461016d668e1bc9bf0400006121bd565b60405162461bcd60e51b815260206004820152602260248201527f496e666c6174696f6e206e6f7420726561647920746f206265207265616c697a604482015261195960f21b6064820152608490fd5b50346102f15760203660031901126102f15760043563ffffffff60e01b811680910361072457602090637965db0b60e01b8114908115612293575b506040519015158152f35b6301ffc9a760e01b14905082612288565b9050346107245760803660031901126107245760ff604060209360043581526007855281812060243582528552818120604435825285528181206064358252855220541615158152f35b919082519283825260005b84811061231a575050826000602080949584010152601f8019910116010190565b806020809284010151828286010152016122f9565b600435906001600160a01b038216820361049857565b602435906001600160a01b038216820361049857565b604435906001600160a01b038216820361049857565b9190820391821161237e57565b634e487b7160e01b600052601160045260246000fd5b346104985760003660031901126104985760206040516b0d92289838d21a99680000008152f35b9181601f84011215610498578235916001600160401b038311610498576020808501948460051b01011161049857565b61012081019081106001600160401b0382111761240757604052565b634e487b7160e01b600052604160045260246000fd5b90601f801991011681019081106001600160401b0382111761240757604052565b6001600160401b03811161240757601f01601f191660200190565b600019811461237e5760010190565b8181029291811591840414171561237e57565b9190820180921161237e57565b90600182811c921680156124b8575b60208310146124a257565b634e487b7160e01b600052602260045260246000fd5b91607f1691612497565b60009060033d116124cf57565b905060046000803e60005160e01c90565b600060443d10612545576040513d600319016004823e8051913d60248401116001600160401b0384111761255057828201928351916001600160401b038311612548573d8401600319018584016020011161254857506125459291016020019061241d565b90565b949350505050565b92915050565b3d15612581573d906125678261243e565b91612575604051938461241d565b82523d6000602084013e565b606090565b6040519061259560208361241d565b600080835282815b8281106125a957505050565b80606060208093850101520161259d565b60208152815160208201526020820151604082015260018060a01b03604083015116606082015260608201516080820152612606608083015161012060a08401526101408301906122ee565b9160a081015160c083015260c081015160e083015260e081015192601f1983820301610100840152835180825260208201916020808360051b8301019601926000915b83831061266d5750505050506101209061010060018060a01b039101511691015290565b909192939660208061268b600193601f198682030187528b516122ee565b99019301930191939290612649565b600052600080516020613ab483398151915260205260016040600020015490565b90816020910312610498575180151581036104985790565b81835290916001600160fb1b0383116104985760209260051b809284830137010190565b94909192936000908515612a78576002546040519160208301636c0960f960e01b81523060601b60248501528860388501526bffffffffffffffffffffffff198360581b16605885015263044df8e760e41b606c8501526050845261275d60708561241d565b835190209489855260076020526040852087865260205261ffff604086209816978886526020526040852086865260205260ff604086205416612a6c5760018060a01b036006541692604051634798f82960e11b815261107d60048201528b6024820152886044820152602081606481885afa908115612a61578791612a42575b506128f25750823b15611fdf579186858b6128478b9583976128356040519a8b998a98899763c87325f160e01b895261107d60048a015260248901526044880152606487015260c0608487015260c48601906122ee565b8481036003190160a4860152916126d3565b03925af180156128e7579260809694926040927f7f284152149ac0bbcec1f2f058e6492908c08cc2fd3ce228c5a975c897b0203d9997956128d7575b50905b61289086306130a9565b868252600760205282822084835260205282822085835260205282822090825260205220600160ff19825416179055604051938452602084015260408301526060820152a1565b816128e19161241d565b38612883565b6040513d84823e3d90fd5b925060409594955193606085018581106001600160401b03821117612a2e5760409081528986526001600160a01b0360089590951c851660208088019182528783019384526005549251634ce0b68d60e11b815261107d6004820152602481018f9052604481018c905260a06064820152975161ffff1660a48901529051861660c48801529151606060e488015291948694911692849283926129b29290916129a0906101048601906122ee565b848103600319016084860152916126d3565b03915afa8015612a23579260809694926040927f7f284152149ac0bbcec1f2f058e6492908c08cc2fd3ce228c5a975c897b0203d9997956129f4575b50612886565b612a159060203d602011612a1c575b612a0d818361241d565b8101906126bb565b50386129ee565b503d612a03565b6040513d85823e3d90fd5b634e487b7160e01b88526041600452602488fd5b612a5b915060203d602011612a1c57612a0d818361241d565b386127de565b6040513d89823e3d90fd5b50505050505050505050565b6335f6168960e01b8252600482fd5b6001600160a01b031660009081527f52c63247e1f47db19d5ce0460030c497f067ca4cebf71ba98eeadabe20bace016020526040902090565b906803782dace9d8ffffff19820191821360011661237e57565b906806f05b59d3b1ffffff19820191821360011661237e57565b9068ad78ebc5ac61ffffff19820191821360011661237e57565b906856bc75e2d630ffffff19820191821360011661237e57565b90682b5e3af16b187fffff19820191821360011661237e57565b906815af1d78b58c3fffff19820191821360011661237e57565b90680ad78ebc5ac61fffff19820191821360011661237e57565b9068056bc75e2d630fffff19820191821360011661237e57565b906802b5e3af16b187ffff19820191821360011661237e57565b9068015af1d78b58c3ffff19820191821360011661237e57565b908168056bc75e2d631000000191821260011661237e57565b9190916000838201938412911290801582169115161761237e57565b9190811015612c095760051b0190565b634e487b7160e01b600052603260045260246000fd5b6001600160a01b03168015612c7f576000805160206139d483398151915280546001600160a01b0319811683179091556001600160a01b03167f8be0079c531659141344cd1fd0a4f28419497f9722a3daafe3b4186f6b6457e0600080a3565b631e4fbdf760e01b600052600060045260246000fd5b6001600160a01b0316908115612d0957600080516020613a94833981519152602082612cd26000946000805160206139f48339815191525461247b565b6000805160206139f483398151915255848452600080516020613994833981519152825260408420818154019055604051908152a3565b63ec442f0560e01b600052600060045260246000fd5b6000805160206139d4833981519152546001600160a01b03163303612d4057565b63118cdaa760e01b6000523360045260246000fd5b6001600160a01b0381166000908152600080516020613a54833981519152602052604090205460ff16612ddb576001600160a01b03166000818152600080516020613a5483398151915260205260408120805460ff19166001179055339190600080516020613a74833981519152906000805160206139348339815191529080a4600190565b50600090565b6001600160a01b0381166000908152600080516020613a14833981519152602052604090205460ff16612ddb576001600160a01b03166000818152600080516020613a1483398151915260205260408120805460ff19166001179055339190600080516020613954833981519152906000805160206139348339815191529080a4600190565b6001600160a01b03811660009081527fb7db2dd08fcb62d0c9e08c51941cae53c267786a0b75803fb7960902fc8ef97d602052604090205460ff16612ddb576001600160a01b031660008181527fb7db2dd08fcb62d0c9e08c51941cae53c267786a0b75803fb7960902fc8ef97d60205260408120805460ff191660011790553391906000805160206139348339815191528180a4600190565b6000818152600080516020613ab4833981519152602090815260408083206001600160a01b038616845290915290205460ff16612f91576000818152600080516020613ab4833981519152602090815260408083206001600160a01b0395909516808452949091528120805460ff19166001179055339291906000805160206139348339815191529080a4600190565b5050600090565b6001600160a01b0316908115613049576001600160a01b0316918215612d09576000828152600080516020613994833981519152602052604081205482811061302f579160408282600080516020613a9483398151915295876020965260008051602061399483398151915286520382822055868152600080516020613994833981519152845220818154019055604051908152a3565b916064928463391434e360e21b8452600452602452604452fd5b634b637e8f60e11b600052600060045260246000fd5b6000818152600080516020613ab48339815191526020908152604080832033845290915290205460ff16156130915750565b63e2517d3f60e01b6000523360045260245260446000fd5b6001600160a01b031680156130495760009181835260008051602061399483398151915260205260408320548181106131355781600080516020613a94833981519152926020928587526000805160206139948339815191528452036040862055806000805160206139f483398151915254036000805160206139f483398151915255604051908152a3565b6064939263391434e360e21b8452600452602452604452fd5b6000818152600080516020613ab4833981519152602090815260408083206001600160a01b038616845290915290205460ff1615612f91576000818152600080516020613ab4833981519152602090815260408083206001600160a01b0395909516808452949091528120805460ff19169055339291907ff6391f5c32d9c69d2a47ea670b442974b53935d1edc7fd64eb21e047a839171b9080a4600190565b600160ff1b811461237e5760000390565b9060648202918083056064149015171561237e57565b906b02df0ab5a80a22c61ab5a7008202918083056b02df0ab5a80a22c61ab5a700149015171561237e57565b90693f1fce3da636ea5cf850820291808305693f1fce3da636ea5cf850149015171561237e57565b90690127fa27722cc06cc5e2820291808305690127fa27722cc06cc5e2149015171561237e57565b9068280e60114edb805d0382029180830568280e60114edb805d03149015171561237e57565b90680ebc5fb41746121110820291808305680ebc5fb41746121110149015171561237e57565b906808f00f760a4b2db55d8202918083056808f00f760a4b2db55d149015171561237e57565b906806f5f17757889379378202918083056806f5f1775788937937149015171561237e57565b818102929160008212600160ff1b82141661237e57818405149015171561237e57565b811561336757600160ff1b811460001983141661237e570590565b634e487b7160e01b600052601260045260246000fd5b680238fd42c5cf03ffff1981121580613790575b61339a90613870565b6000811261376b576806f05b59d3b20000008112613731576133bb90612ada565b6133dd770195e54c5dd42177f53a27172fa9ec630262827000000000916131ff565b68056bc75e2d631000009068ad78ebc5ac62000000811215613711575b6856bc75e2d6310000008112156136f6575b682b5e3af16b188000008112156136db575b6815af1d78b58c4000008112156136c0575b680ad78ebc5ac62000008112156136a5575b68056bc75e2d6310000081121561368a575b6802b5e3af16b188000081121561366f575b68015af1d78b58c40000811215613645575b80808080808080808061348a81612bc4565b6134948280613329565b68056bc75e2d6310000090056002900590816134af91612bdd565b916134b991613329565b68056bc75e2d6310000090056003900590816134d491612bdd565b916134de91613329565b68056bc75e2d6310000090056004900590816134f991612bdd565b9161350391613329565b68056bc75e2d63100000900560059005908161351e91612bdd565b9161352891613329565b68056bc75e2d63100000900560069005908161354391612bdd565b9161354d91613329565b68056bc75e2d63100000900560079005908161356891612bdd565b9161357291613329565b68056bc75e2d63100000900560089005908161358d91612bdd565b9161359791613329565b68056bc75e2d6310000090056009900590816135b291612bdd565b916135bc91613329565b68056bc75e2d631000009005600a900590816135d791612bdd565b916135e191613329565b68056bc75e2d631000009005600b900590816135fc91612bdd565b9161360691613329565b68056bc75e2d631000009005600c900561361f91612bdd565b61362891613329565b68056bc75e2d6310000090059061363e91613329565b6064900590565b61365a61365461366992612baa565b92613303565b68056bc75e2d63100000900590565b90613478565b61365a61367e61368492612b90565b926132dd565b90613466565b61365a61369961369f92612b76565b926132b7565b90613454565b61365a6136b46136ba92612b5c565b92613291565b90613442565b61365a6136cf6136d592612b42565b92613269565b90613430565b61365a6136ea6136f092612b28565b92613241565b9061341e565b61365a61370561370b92612b0e565b92613215565b9061340c565b61371b9150612af4565b6e01855144814a7ff805980ff0084000906133fa565b6803782dace9d900000081126137605761374a90612ac0565b6133dd6b1425982cf597cd205cef7380916131ff565b6133dd6001916131ff565b613787610d4f6ec097ce7bc90715b34b9f1000000000926131ee565b6125459161334c565b5068070c1cc73b00c80000811315613391565b916001600160a01b038316918215611c93576001600160a01b0316928315611c7d577f8c5be1e5ebec7d5bd14f71427d1e84f3dd0314c0f7b2291e5b200ac8c7c3b925916137f2602092612a87565b85600052825280604060002055604051908152a3565b60ff600080516020613ad48339815191525460401c161561382557565b631afcd79f60e31b60005260046000fd5b9061384091612468565b8061384b5750600090565b600019810190811161237e57670de0b6b3a764000090046001810180911161237e5790565b1561387757565b62461bcd60e51b6000908152602060045260076024526642414c2330303960c81b604452606490fd5b806138ac575050600090565b670de0b6b3a76400008102908104670de0b6b3a76400000361237e578115613367570490565b906138f857508051156138e757805190602001fd5b63d6bda27560e01b60005260046000fd5b8151158061392a575b613909575090565b639996b31560e01b60009081526001600160a01b0391909116600452602490fd5b50803b1561390156fe2f8788117e7eff1d82e926ec794901d17c78024a50270940304540a733656f0d3c11d16cbaffd01df69ce1c404f6340ee057498f5f00246190ea54220576a84852c63247e1f47db19d5ce0460030c497f067ca4cebf71ba98eeadabe20bace0352c63247e1f47db19d5ce0460030c497f067ca4cebf71ba98eeadabe20bace0052c63247e1f47db19d5ce0460030c497f067ca4cebf71ba98eeadabe20bace049016d09d72d40fdae2fd8ceac6b6234c7706214fd39c1cd1e609a0528c19930052c63247e1f47db19d5ce0460030c497f067ca4cebf71ba98eeadabe20bace02fcf1b2032b1187d9f2a29150c4a608b3b6f0bdf8dd007801f86a276af50cad92360894a13ba1a3210667c828492db98dca3e2076cc3735a920a3ca505d382bbc549fe2656c81d2947b3b913f0a53b9ea86c71e049f3a1b8aa23c09a8a05cb8d49f2df0fed2c77648de5860a4cc508cd0818c85b8b8a1ab4ceeef8d981c8956a6ddf252ad1be2c89b69c2b068fc378daa952ba7f163c4a11628f55a4df523b3ef02dd7bc7dec4dceedda775e58dd541e08a116c6c53815c0bd028192f7b626800f0c57e16840df040f15088dc2f81fe391c3923bec73e23a9662efc9c229c6a00a26469706673582212208cd8a76808dd3b9e1e6f86c774dde22b0f6fc1c3a29dc7023e2123fc05fb537064736f6c634300081c0033",
  "linkReferences": {},
  "deployedLinkReferences": {}
}