{
  "_format": "hh-sol-artifact-1",
  "contractName": "MockMessagesForRevealing",
  "sourceName": "contracts/test/MockMessagesForRevealing.sol",
  "abi": [
    {
      "inputs": [
        {
          "internalType": "bytes32",
          "name": "",
          "type": "bytes32"
        },
        {
          "internalType": "address",
          "name": "",
          "type": "address"
        }
      ],
      "name": "flushExternalMessages",
      "outputs": [],
      "stateMutability": "nonpayable",
      "type": "function"
    },
    {
      "inputs": [
        {
          "internalType": "bytes32",
          "name": "_txId",
          "type": "bytes32"
        }
      ],
      "name": "getAllMessagesForTransaction",
      "outputs": [
        {
          "components": [
            {
              "internalType": "enum IMessages.MessageType",
              "name": "messageType",
              "type": "uint8"
            },
            {
              "internalType": "address",
              "name": "recipient",
              "type": "address"
            },
            {
              "internalType": "uint256",
              "name": "value",
              "type": "uint256"
            },
            {
              "internalType": "bytes",
              "name": "data",
              "type": "bytes"
            },
            {
              "internalType": "bool",
              "name": "onAcceptance",
              "type": "bool"
            },
            {
              "internalType": "uint256",
              "name": "saltNonce",
              "type": "uint256"
            }
          ],
          "internalType": "struct IMessages.SubmittedMessage[]",
          "name": "",
          "type": "tuple[]"
        }
      ],
      "stateMutability": "view",
      "type": "function"
    },
    {
      "inputs": [
        {
          "internalType": "bytes32",
          "name": "",
          "type": "bytes32"
        }
      ],
      "name": "hasExternalMessagesNotIssued",
      "outputs": [
        {
          "internalType": "bool",
          "name": "",
          "type": "bool"
        }
      ],
      "stateMutability": "pure",
      "type": "function"
    },
    {
      "inputs": [
        {
          "internalType": "bytes32",
          "name": "_txId",
          "type": "bytes32"
        }
      ],
      "name": "hasMessagesOnAcceptance",
      "outputs": [
        {
          "internalType": "bool",
          "name": "",
          "type": "bool"
        }
      ],
      "stateMutability": "view",
      "type": "function"
    },
    {
      "inputs": [
        {
          "internalType": "bytes32",
          "name": "",
          "type": "bytes32"
        }
      ],
      "name": "hasMessagesOnFinalization",
      "outputs": [
        {
          "internalType": "bool",
          "name": "",
          "type": "bool"
        }
      ],
      "stateMutability": "pure",
      "type": "function"
    },
    {
      "inputs": [],
      "name": "lastStoreTxId",
      "outputs": [
        {
          "internalType": "bytes32",
          "name": "",
          "type": "bytes32"
        }
      ],
      "stateMutability": "view",
      "type": "function"
    },
    {
      "inputs": [
        {
          "internalType": "bytes32",
          "name": "",
          "type": "bytes32"
        }
      ],
      "name": "mockHasMessagesOnAcceptance",
      "outputs": [
        {
          "internalType": "bool",
          "name": "",
          "type": "bool"
        }
      ],
      "stateMutability": "view",
      "type": "function"
    },
    {
      "inputs": [
        {
          "internalType": "bytes32",
          "name": "",
          "type": "bytes32"
        }
      ],
      "name": "numOfMessagesIssuedOnAcceptance",
      "outputs": [
        {
          "internalType": "uint256",
          "name": "",
          "type": "uint256"
        }
      ],
      "stateMutability": "pure",
      "type": "function"
    },
    {
      "inputs": [
        {
          "internalType": "bytes32",
          "name": "",
          "type": "bytes32"
        }
      ],
      "name": "numOfMessagesIssuedOnFinalization",
      "outputs": [
        {
          "internalType": "uint256",
          "name": "",
          "type": "uint256"
        }
      ],
      "stateMutability": "pure",
      "type": "function"
    },
    {
      "inputs": [
        {
          "internalType": "bytes32",
          "name": "",
          "type": "bytes32"
        },
        {
          "internalType": "address",
          "name": "",
          "type": "address"
        }
      ],
      "name": "processMessagesOnAcceptance",
      "outputs": [
        {
          "components": [
            {
              "internalType": "enum IMessages.MessageType",
              "name": "messageType",
              "type": "uint8"
            },
            {
              "internalType": "address",
              "name": "recipient",
              "type": "address"
            },
            {
              "internalType": "uint256",
              "name": "value",
              "type": "uint256"
            },
            {
              "internalType": "bytes",
              "name": "data",
              "type": "bytes"
            },
            {
              "internalType": "bool",
              "name": "onAcceptance",
              "type": "bool"
            },
            {
              "internalType": "uint256",
              "name": "saltNonce",
              "type": "uint256"
            }
          ],
          "internalType": "struct IMessages.SubmittedMessage[]",
          "name": "",
          "type": "tuple[]"
        }
      ],
      "stateMutability": "pure",
      "type": "function"
    },
    {
      "inputs": [
        {
          "internalType": "bytes32",
          "name": "",
          "type": "bytes32"
        },
        {
          "internalType": "address",
          "name": "",
          "type": "address"
        }
      ],
      "name": "processMessagesOnFinalization",
      "outputs": [
        {
          "components": [
            {
              "internalType": "enum IMessages.MessageType",
              "name": "messageType",
              "type": "uint8"
            },
            {
              "internalType": "address",
              "name": "recipient",
              "type": "address"
            },
            {
              "internalType": "uint256",
              "name": "value",
              "type": "uint256"
            },
            {
              "internalType": "bytes",
              "name": "data",
              "type": "bytes"
            },
            {
              "internalType": "bool",
              "name": "onAcceptance",
              "type": "bool"
            },
            {
              "internalType": "uint256",
              "name": "saltNonce",
              "type": "uint256"
            }
          ],
          "internalType": "struct IMessages.SubmittedMessage[]",
          "name": "",
          "type": "tuple[]"
        }
      ],
      "stateMutability": "pure",
      "type": "function"
    },
    {
      "inputs": [
        {
          "internalType": "bytes32",
          "name": "_txId",
          "type": "bytes32"
        },
        {
          "internalType": "bool",
          "name": "_hasMessages",
          "type": "bool"
        }
      ],
      "name": "setMockHasMessagesOnAcceptance",
      "outputs": [],
      "stateMutability": "nonpayable",
      "type": "function"
    },
    {
      "inputs": [],
      "name": "storeMessagesCalled",
      "outputs": [
        {
          "internalType": "bool",
          "name": "",
          "type": "bool"
        }
      ],
      "stateMutability": "view",
      "type": "function"
    },
    {
      "inputs": [
        {
          "internalType": "bytes32",
          "name": "_txId",
          "type": "bytes32"
        },
        {
          "components": [
            {
              "internalType": "enum IMessages.MessageType",
              "name": "messageType",
              "type": "uint8"
            },
            {
              "internalType": "address",
              "name": "recipient",
              "type": "address"
            },
            {
              "internalType": "uint256",
              "name": "value",
              "type": "uint256"
            },
            {
              "internalType": "bytes",
              "name": "data",
              "type": "bytes"
            },
            {
              "internalType": "bool",
              "name": "onAcceptance",
              "type": "bool"
            },
            {
              "internalType": "uint256",
              "name": "saltNonce",
              "type": "uint256"
            }
          ],
          "internalType": "struct IMessages.SubmittedMessage[]",
          "name": "_messages",
          "type": "tuple[]"
        }
      ],
      "name": "storeMessagesForTransaction",
      "outputs": [],
      "stateMutability": "nonpayable",
      "type": "function"
    },
    {
      "inputs": [
        {
          "internalType": "bytes32",
          "name": "",
          "type": "bytes32"
        },
        {
          "internalType": "uint256",
          "name": "",
          "type": "uint256"
        }
      ],
      "name": "storedMessages",
      "outputs": [
        {
          "internalType": "enum IMessages.MessageType",
          "name": "messageType",
          "type": "uint8"
        },
        {
          "internalType": "address",
          "name": "recipient",
          "type": "address"
        },
        {
          "internalType": "uint256",
          "name": "value",
          "type": "uint256"
        },
        {
          "internalType": "bytes",
          "name": "data",
          "type": "bytes"
        },
        {
          "internalType": "bool",
          "name": "onAcceptance",
          "type": "bool"
        },
        {
          "internalType": "uint256",
          "name": "saltNonce",
          "type": "uint256"
        }
      ],
      "stateMutability": "view",
      "type": "function"
    },
    {
      "inputs": [
        {
          "internalType": "bytes32",
          "name": "",
          "type": "bytes32"
        },
        {
          "internalType": "uint256",
          "name": "",
          "type": "uint256"
        },
        {
          "internalType": "bool",
          "name": "",
          "type": "bool"
        }
      ],
      "name": "updateNumOfMessagesIssued",
      "outputs": [],
      "stateMutability": "nonpayable",
      "type": "function"
    }
  ],
  "bytecode": "0x60808060405234601557610a16908161001b8239f35b600080fdfe6080604052600436101561001257600080fd5b60003560e01c806302fae85d1461071e578063182b304e1461063e57806337627c56146105fc57806338444e05146105e3578063404f7db7146100cc5780634af6b23f146105ca5780635454a18f146105c557806361c53f3d146105c5578063659f04d71461051d5780639549390d14610518578063a2fd112914610518578063aa14aa7314610518578063ae76de91146104f5578063b42f33a7146104d7578063b9899c7c146101025763dfb9758a146100cc57600080fd5b346100fd5760203660031901126100fd576004356000526001602052602060ff604060002054166040519015158152f35b600080fd5b346100fd5760403660031901126100fd576024356004356001600160401b0382116100fd57366023830112156100fd578160040135610140816109c9565b9261014e6040519485610904565b8184526024602085019260051b820101903682116100fd5760248101925b8284106103d7578486600160ff196002541617600255816003556000915b81518310156103d55780600052600060205260406000209282518110156103bf5760208160051b84010151938054600160401b8110156103a9576101d391600182018155610893565b610393578451600281101561037d5781546020870151610100600160a81b0360089190911b1660ff929092166001600160a81b031990911617178155604085015160018201556060850151805160028301916000906001600160401b0383116103695761024084546108af565b601f8111610324575b50602091601f84116001146102b8579280600198999a936004969360a096926102ad575b5050600019600383901b1c191690881b1790555b6102a060808201511515600386019060ff801983541691151516179055565b015191015501919061018a565b015190508b8061026d565b9190601f198416858452828420935b81811061030c575093600198999a93600496938a938360a098106102f3575b505050811b019055610281565b015160001960f88460031b161c191690558b80806102e6565b929360206001819287860151815501950193016102c7565b84835260208320601f850160051c8101916020861061035f575b601f0160051c01905b8181106103545750610249565b838155600101610347565b909150819061033e565b634e487b7160e01b82526041600452602482fd5b634e487b7160e01b600052602160045260246000fd5b634e487b7160e01b600052600060045260246000fd5b634e487b7160e01b600052604160045260246000fd5b634e487b7160e01b600052603260045260246000fd5b005b83356001600160401b0381116100fd57820160c060231982360301126100fd5760405191610404836108e9565b602482013560028110156100fd57835260448201356001600160a01b03811681036100fd5760208401526064820135604084015260848201356001600160401b0381116100fd5760249083010136601f820112156100fd5780356001600160401b0381116103a95760405191610484601f8301601f191660200184610904565b81835236602083830101116100fd578160009260208093018386013783010152606084015260a48201359283151584036100fd5760c46020949385946080840152013560a082015281520193019261016c565b346100fd5760003660031901126100fd576020600354604051908152f35b346100fd5760003660031901126100fd57602060ff600254166040519015158152f35b61071e565b346100fd5760403660031901126100fd57602435600435600052600060205260406000209081548110156100fd5761055491610893565b50805460018201549161056960028201610925565b6105b4600460ff60038501541693015491604051958561058d8860ff81991661073a565b60081c6001600160a01b03166020870152604086015260c060608601819052850190610747565b911515608084015260a08301520390f35b610858565b346100fd5760603660031901126100fd576103d5610833565b346100fd5760403660031901126100fd576103d5610842565b346100fd5760403660031901126100fd5760243580151581036100fd576103d590600435600052600160205260406000209060ff801983541691151516179055565b346100fd5760203660031901126100fd5760043560005260006020526040600020805461066a816109c9565b906106786040519283610904565b808252602082019260005260206000206000935b8285106106a557604051806106a18682610788565b0390f35b604051906106b2826108e9565b82549060ff821690600282101561037d578360059360209360019652858060a01b039060081c16838201528486015460408201526106f260028701610925565b606082015260ff60038701541615156080820152600486015460a082015281520192019401939061068c565b346100fd5760203660031901126100fd57602060405160008152f35b90600282101561037d5752565b919082519283825260005b848110610773575050826000602080949584010152601f8019910116010190565b80602080928401015182828601015201610752565b602081016020825282518091526040820191602060408360051b8301019401926000915b8383106107bb57505050505090565b9091929394602080600192603f198582030186528851906107dd81835161073a565b848060a01b038383015116838201526040820151604082015260a080610812606085015160c0606086015260c0850190610747565b936080810151151560808501520151910152970193019301919392906107ac565b6044359081151582036100fd57565b602435906001600160a01b03821682036100fd57565b346100fd5760403660031901126100fd57610871610842565b506106a1604051610883602082610904565b6000815260405191829182610788565b80548210156103bf576000526005602060002091020190600090565b90600182811c921680156108df575b60208310146108c957565b634e487b7160e01b600052602260045260246000fd5b91607f16916108be565b60c081019081106001600160401b038211176103a957604052565b90601f801991011681019081106001600160401b038211176103a957604052565b9060405191826000825492610939846108af565b80845293600181169081156109a75750600114610960575b5061095e92500383610904565b565b90506000929192526020600020906000915b81831061098b57505090602061095e9282010138610951565b6020919350806001915483858901015201910190918492610972565b90506020925061095e94915060ff191682840152151560051b82010138610951565b6001600160401b0381116103a95760051b6020019056fea2646970667358221220e3eb157ca6d52c2f95ad74e5f7b9d6ec50f32f7e3da04a9e45fcec9d19fd4cd064736f6c634300081c0033",
  "linkReferences": {},
  "deployedLinkReferences": {}
}