{
  "_format": "hh-sol-artifact-1",
  "contractName": "ConsensusMainWithFees",
  "sourceName": "contracts/ConsensusMainWithFees.sol",
  "abi": [
    {
      "inputs": [],
      "name": "AccessControlBadConfirmation",
      "type": "error"
    },
    {
      "inputs": [
        {
          "internalType": "address",
          "name": "account",
          "type": "address"
        },
        {
          "internalType": "bytes32",
          "name": "neededRole",
          "type": "bytes32"
        }
      ],
      "name": "AccessControlUnauthorizedAccount",
      "type": "error"
    },
    {
      "inputs": [],
      "name": "CallerNotMessages",
      "type": "error"
    },
    {
      "inputs": [],
      "name": "CanNotAppeal",
      "type": "error"
    },
    {
      "inputs": [],
      "name": "EmptyTransaction",
      "type": "error"
    },
    {
      "inputs": [],
      "name": "InsufficientFees",
      "type": "error"
    },
    {
      "inputs": [],
      "name": "InvalidAddress",
      "type": "error"
    },
    {
      "inputs": [],
      "name": "InvalidDeploymentWithSalt",
      "type": "error"
    },
    {
      "inputs": [],
      "name": "InvalidGhostContract",
      "type": "error"
    },
    {
      "inputs": [],
      "name": "InvalidInitialization",
      "type": "error"
    },
    {
      "inputs": [],
      "name": "InvalidRevealLeaderData",
      "type": "error"
    },
    {
      "inputs": [],
      "name": "InvalidVote",
      "type": "error"
    },
    {
      "inputs": [],
      "name": "MaxNumOfIterationsInPendingQueueReached",
      "type": "error"
    },
    {
      "inputs": [],
      "name": "NonGenVMContract",
      "type": "error"
    },
    {
      "inputs": [],
      "name": "NotInitializing",
      "type": "error"
    },
    {
      "inputs": [
        {
          "internalType": "address",
          "name": "owner",
          "type": "address"
        }
      ],
      "name": "OwnableInvalidOwner",
      "type": "error"
    },
    {
      "inputs": [
        {
          "internalType": "address",
          "name": "account",
          "type": "address"
        }
      ],
      "name": "OwnableUnauthorizedAccount",
      "type": "error"
    },
    {
      "inputs": [],
      "name": "ReentrancyGuardReentrantCall",
      "type": "error"
    },
    {
      "inputs": [],
      "name": "TransactionCanNotBeFinalized",
      "type": "error"
    },
    {
      "inputs": [],
      "name": "TransactionNotAtPendingQueueHead",
      "type": "error"
    },
    {
      "anonymous": false,
      "inputs": [
        {
          "indexed": true,
          "internalType": "bytes32",
          "name": "txId",
          "type": "bytes32"
        },
        {
          "indexed": true,
          "internalType": "address",
          "name": "appealer",
          "type": "address"
        },
        {
          "indexed": false,
          "internalType": "uint256",
          "name": "appealBond",
          "type": "uint256"
        },
        {
          "indexed": false,
          "internalType": "address[]",
          "name": "appealValidators",
          "type": "address[]"
        }
      ],
      "name": "AppealStarted",
      "type": "event"
    },
    {
      "anonymous": false,
      "inputs": [
        {
          "indexed": false,
          "internalType": "uint256",
          "name": "attempted",
          "type": "uint256"
        },
        {
          "indexed": false,
          "internalType": "uint256",
          "name": "succeeded",
          "type": "uint256"
        },
        {
          "indexed": false,
          "internalType": "uint256",
          "name": "failed",
          "type": "uint256"
        }
      ],
      "name": "BatchFinalizationCompleted",
      "type": "event"
    },
    {
      "anonymous": false,
      "inputs": [
        {
          "indexed": true,
          "internalType": "bytes32",
          "name": "txId",
          "type": "bytes32"
        },
        {
          "indexed": false,
          "internalType": "uint256",
          "name": "txSlot",
          "type": "uint256"
        }
      ],
      "name": "CreatedTransaction",
      "type": "event"
    },
    {
      "anonymous": false,
      "inputs": [
        {
          "indexed": true,
          "internalType": "bytes32",
          "name": "txId",
          "type": "bytes32"
        },
        {
          "indexed": true,
          "internalType": "address",
          "name": "recipient",
          "type": "address"
        },
        {
          "indexed": false,
          "internalType": "bytes",
          "name": "data",
          "type": "bytes"
        }
      ],
      "name": "ErrorMessage",
      "type": "event"
    },
    {
      "anonymous": false,
      "inputs": [
        {
          "indexed": false,
          "internalType": "address",
          "name": "ghostFactory",
          "type": "address"
        },
        {
          "indexed": false,
          "internalType": "address",
          "name": "genManager",
          "type": "address"
        },
        {
          "indexed": false,
          "internalType": "address",
          "name": "genTransactions",
          "type": "address"
        },
        {
          "indexed": false,
          "internalType": "address",
          "name": "genQueue",
          "type": "address"
        },
        {
          "indexed": false,
          "internalType": "address",
          "name": "genStaking",
          "type": "address"
        },
        {
          "indexed": false,
          "internalType": "address",
          "name": "genMessages",
          "type": "address"
        },
        {
          "indexed": false,
          "internalType": "address",
          "name": "idleness",
          "type": "address"
        },
        {
          "indexed": false,
          "internalType": "address",
          "name": "tribunalAppeal",
          "type": "address"
        },
        {
          "indexed": false,
          "internalType": "address",
          "name": "feeManager",
          "type": "address"
        },
        {
          "indexed": false,
          "internalType": "address",
          "name": "nftMinter",
          "type": "address"
        }
      ],
      "name": "ExternalContractsSet",
      "type": "event"
    },
    {
      "anonymous": false,
      "inputs": [
        {
          "indexed": true,
          "internalType": "address",
          "name": "feeManager",
          "type": "address"
        }
      ],
      "name": "FeeManagerSet",
      "type": "event"
    },
    {
      "anonymous": false,
      "inputs": [
        {
          "indexed": false,
          "internalType": "uint64",
          "name": "version",
          "type": "uint64"
        }
      ],
      "name": "Initialized",
      "type": "event"
    },
    {
      "anonymous": false,
      "inputs": [
        {
          "indexed": true,
          "internalType": "bytes32",
          "name": "txId",
          "type": "bytes32"
        },
        {
          "indexed": true,
          "internalType": "address",
          "name": "recipient",
          "type": "address"
        },
        {
          "indexed": true,
          "internalType": "address",
          "name": "activator",
          "type": "address"
        }
      ],
      "name": "InternalMessageProcessed",
      "type": "event"
    },
    {
      "anonymous": false,
      "inputs": [
        {
          "indexed": true,
          "internalType": "bytes32",
          "name": "txId",
          "type": "bytes32"
        },
        {
          "indexed": true,
          "internalType": "address",
          "name": "oldLeader",
          "type": "address"
        },
        {
          "indexed": true,
          "internalType": "address",
          "name": "newLeader",
          "type": "address"
        }
      ],
      "name": "LeaderIdlenessProcessed",
      "type": "event"
    },
    {
      "anonymous": false,
      "inputs": [
        {
          "indexed": true,
          "internalType": "bytes32",
          "name": "txId",
          "type": "bytes32"
        },
        {
          "indexed": true,
          "internalType": "address",
          "name": "recipient",
          "type": "address"
        },
        {
          "indexed": true,
          "internalType": "address",
          "name": "activator",
          "type": "address"
        }
      ],
      "name": "NewTransaction",
      "type": "event"
    },
    {
      "anonymous": false,
      "inputs": [
        {
          "indexed": true,
          "internalType": "bytes32",
          "name": "txId",
          "type": "bytes32"
        },
        {
          "indexed": true,
          "internalType": "address",
          "name": "activator",
          "type": "address"
        }
      ],
      "name": "NextTransactionToBeActivated",
      "type": "event"
    },
    {
      "anonymous": false,
      "inputs": [
        {
          "indexed": true,
          "internalType": "address",
          "name": "previousOwner",
          "type": "address"
        },
        {
          "indexed": true,
          "internalType": "address",
          "name": "newOwner",
          "type": "address"
        }
      ],
      "name": "OwnershipTransferStarted",
      "type": "event"
    },
    {
      "anonymous": false,
      "inputs": [
        {
          "indexed": true,
          "internalType": "address",
          "name": "previousOwner",
          "type": "address"
        },
        {
          "indexed": true,
          "internalType": "address",
          "name": "newOwner",
          "type": "address"
        }
      ],
      "name": "OwnershipTransferred",
      "type": "event"
    },
    {
      "anonymous": false,
      "inputs": [
        {
          "indexed": true,
          "internalType": "bytes32",
          "name": "txId",
          "type": "bytes32"
        }
      ],
      "name": "ProcessIdlenessAccepted",
      "type": "event"
    },
    {
      "anonymous": false,
      "inputs": [
        {
          "indexed": true,
          "internalType": "bytes32",
          "name": "txId",
          "type": "bytes32"
        }
      ],
      "name": "ProcessIdlenessUndetermined",
      "type": "event"
    },
    {
      "anonymous": false,
      "inputs": [
        {
          "indexed": true,
          "internalType": "bytes32",
          "name": "role",
          "type": "bytes32"
        },
        {
          "indexed": true,
          "internalType": "bytes32",
          "name": "previousAdminRole",
          "type": "bytes32"
        },
        {
          "indexed": true,
          "internalType": "bytes32",
          "name": "newAdminRole",
          "type": "bytes32"
        }
      ],
      "name": "RoleAdminChanged",
      "type": "event"
    },
    {
      "anonymous": false,
      "inputs": [
        {
          "indexed": true,
          "internalType": "bytes32",
          "name": "role",
          "type": "bytes32"
        },
        {
          "indexed": true,
          "internalType": "address",
          "name": "account",
          "type": "address"
        },
        {
          "indexed": true,
          "internalType": "address",
          "name": "sender",
          "type": "address"
        }
      ],
      "name": "RoleGranted",
      "type": "event"
    },
    {
      "anonymous": false,
      "inputs": [
        {
          "indexed": true,
          "internalType": "bytes32",
          "name": "role",
          "type": "bytes32"
        },
        {
          "indexed": true,
          "internalType": "address",
          "name": "account",
          "type": "address"
        },
        {
          "indexed": true,
          "internalType": "address",
          "name": "sender",
          "type": "address"
        }
      ],
      "name": "RoleRevoked",
      "type": "event"
    },
    {
      "anonymous": false,
      "inputs": [
        {
          "indexed": true,
          "internalType": "bytes32",
          "name": "txId",
          "type": "bytes32"
        },
        {
          "indexed": true,
          "internalType": "address",
          "name": "sender",
          "type": "address"
        }
      ],
      "name": "SlashAppealSubmitted",
      "type": "event"
    },
    {
      "anonymous": false,
      "inputs": [
        {
          "indexed": true,
          "internalType": "bytes32",
          "name": "tx_id",
          "type": "bytes32"
        }
      ],
      "name": "TransactionAccepted",
      "type": "event"
    },
    {
      "anonymous": false,
      "inputs": [
        {
          "indexed": true,
          "internalType": "bytes32",
          "name": "txId",
          "type": "bytes32"
        },
        {
          "indexed": true,
          "internalType": "address",
          "name": "leader",
          "type": "address"
        }
      ],
      "name": "TransactionActivated",
      "type": "event"
    },
    {
      "anonymous": false,
      "inputs": [
        {
          "indexed": true,
          "internalType": "bytes32",
          "name": "txId",
          "type": "bytes32"
        },
        {
          "indexed": true,
          "internalType": "address",
          "name": "sender",
          "type": "address"
        }
      ],
      "name": "TransactionCancelled",
      "type": "event"
    },
    {
      "anonymous": false,
      "inputs": [
        {
          "indexed": true,
          "internalType": "bytes32",
          "name": "txId",
          "type": "bytes32"
        }
      ],
      "name": "TransactionFinalizationFailed",
      "type": "event"
    },
    {
      "anonymous": false,
      "inputs": [
        {
          "indexed": true,
          "internalType": "bytes32",
          "name": "tx_id",
          "type": "bytes32"
        }
      ],
      "name": "TransactionFinalized",
      "type": "event"
    },
    {
      "anonymous": false,
      "inputs": [
        {
          "indexed": true,
          "internalType": "bytes32",
          "name": "txId",
          "type": "bytes32"
        },
        {
          "indexed": true,
          "internalType": "address",
          "name": "oldValidator",
          "type": "address"
        },
        {
          "indexed": true,
          "internalType": "address",
          "name": "newValidator",
          "type": "address"
        }
      ],
      "name": "TransactionIdleValidatorReplaced",
      "type": "event"
    },
    {
      "anonymous": false,
      "inputs": [
        {
          "indexed": true,
          "internalType": "bytes32",
          "name": "txId",
          "type": "bytes32"
        },
        {
          "indexed": true,
          "internalType": "uint256",
          "name": "validatorIndex",
          "type": "uint256"
        }
      ],
      "name": "TransactionIdleValidatorReplacementFailed",
      "type": "event"
    },
    {
      "anonymous": false,
      "inputs": [
        {
          "indexed": true,
          "internalType": "bytes32",
          "name": "txId",
          "type": "bytes32"
        }
      ],
      "name": "TransactionLeaderRevealed",
      "type": "event"
    },
    {
      "anonymous": false,
      "inputs": [
        {
          "indexed": true,
          "internalType": "bytes32",
          "name": "txId",
          "type": "bytes32"
        },
        {
          "indexed": true,
          "internalType": "address",
          "name": "newLeader",
          "type": "address"
        }
      ],
      "name": "TransactionLeaderRotated",
      "type": "event"
    },
    {
      "anonymous": false,
      "inputs": [
        {
          "indexed": true,
          "internalType": "bytes32",
          "name": "tx_id",
          "type": "bytes32"
        }
      ],
      "name": "TransactionLeaderTimeout",
      "type": "event"
    },
    {
      "anonymous": false,
      "inputs": [
        {
          "indexed": false,
          "internalType": "bytes32[]",
          "name": "tx_ids",
          "type": "bytes32[]"
        }
      ],
      "name": "TransactionNeedsRecomputation",
      "type": "event"
    },
    {
      "anonymous": false,
      "inputs": [
        {
          "indexed": true,
          "internalType": "bytes32",
          "name": "tx_id",
          "type": "bytes32"
        },
        {
          "indexed": false,
          "internalType": "address[]",
          "name": "validators",
          "type": "address[]"
        }
      ],
      "name": "TransactionReceiptProposed",
      "type": "event"
    },
    {
      "anonymous": false,
      "inputs": [
        {
          "indexed": true,
          "internalType": "bytes32",
          "name": "tx_id",
          "type": "bytes32"
        }
      ],
      "name": "TransactionUndetermined",
      "type": "event"
    },
    {
      "anonymous": false,
      "inputs": [
        {
          "indexed": true,
          "internalType": "bytes32",
          "name": "txId",
          "type": "bytes32"
        },
        {
          "indexed": true,
          "internalType": "uint256",
          "name": "tribunalIndex",
          "type": "uint256"
        },
        {
          "indexed": true,
          "internalType": "address",
          "name": "validator",
          "type": "address"
        }
      ],
      "name": "TribunalAppealVoteCommitted",
      "type": "event"
    },
    {
      "anonymous": false,
      "inputs": [
        {
          "indexed": true,
          "internalType": "bytes32",
          "name": "txId",
          "type": "bytes32"
        },
        {
          "indexed": true,
          "internalType": "uint256",
          "name": "tribunalIndex",
          "type": "uint256"
        },
        {
          "indexed": true,
          "internalType": "address",
          "name": "validator",
          "type": "address"
        },
        {
          "indexed": false,
          "internalType": "enum ITransactions.VoteType",
          "name": "voteType",
          "type": "uint8"
        }
      ],
      "name": "TribunalAppealVoteRevealed",
      "type": "event"
    },
    {
      "anonymous": false,
      "inputs": [
        {
          "indexed": true,
          "internalType": "bytes32",
          "name": "txId",
          "type": "bytes32"
        },
        {
          "indexed": true,
          "internalType": "address",
          "name": "sender",
          "type": "address"
        },
        {
          "indexed": false,
          "internalType": "uint256",
          "name": "amount",
          "type": "uint256"
        }
      ],
      "name": "ValueWithdrawalFailed",
      "type": "event"
    },
    {
      "anonymous": false,
      "inputs": [
        {
          "indexed": true,
          "internalType": "bytes32",
          "name": "txId",
          "type": "bytes32"
        },
        {
          "indexed": true,
          "internalType": "address",
          "name": "validator",
          "type": "address"
        },
        {
          "indexed": false,
          "internalType": "bool",
          "name": "isLastVote",
          "type": "bool"
        }
      ],
      "name": "VoteCommitted",
      "type": "event"
    },
    {
      "anonymous": false,
      "inputs": [
        {
          "indexed": true,
          "internalType": "bytes32",
          "name": "txId",
          "type": "bytes32"
        },
        {
          "indexed": true,
          "internalType": "address",
          "name": "validator",
          "type": "address"
        },
        {
          "indexed": false,
          "internalType": "enum ITransactions.VoteType",
          "name": "voteType",
          "type": "uint8"
        },
        {
          "indexed": false,
          "internalType": "bool",
          "name": "isLastVote",
          "type": "bool"
        },
        {
          "indexed": false,
          "internalType": "enum ITransactions.ResultType",
          "name": "result",
          "type": "uint8"
        }
      ],
      "name": "VoteRevealed",
      "type": "event"
    },
    {
      "inputs": [],
      "name": "DEFAULT_ADMIN_ROLE",
      "outputs": [
        {
          "internalType": "bytes32",
          "name": "",
          "type": "bytes32"
        }
      ],
      "stateMutability": "view",
      "type": "function"
    },
    {
      "inputs": [],
      "name": "EVENTS_BATCH_SIZE",
      "outputs": [
        {
          "internalType": "uint256",
          "name": "",
          "type": "uint256"
        }
      ],
      "stateMutability": "view",
      "type": "function"
    },
    {
      "inputs": [],
      "name": "acceptOwnership",
      "outputs": [],
      "stateMutability": "nonpayable",
      "type": "function"
    },
    {
      "inputs": [
        {
          "internalType": "bytes32",
          "name": "_txId",
          "type": "bytes32"
        },
        {
          "internalType": "bytes",
          "name": "_vrfProof",
          "type": "bytes"
        }
      ],
      "name": "activateTransaction",
      "outputs": [],
      "stateMutability": "nonpayable",
      "type": "function"
    },
    {
      "inputs": [
        {
          "internalType": "address",
          "name": "_sender",
          "type": "address"
        },
        {
          "internalType": "address",
          "name": "_recipient",
          "type": "address"
        },
        {
          "internalType": "uint256",
          "name": "_numOfInitialValidators",
          "type": "uint256"
        },
        {
          "internalType": "uint256",
          "name": "_maxRotations",
          "type": "uint256"
        },
        {
          "internalType": "bytes",
          "name": "_calldata",
          "type": "bytes"
        },
        {
          "components": [
            {
              "internalType": "uint256",
              "name": "leaderTimeoutFee",
              "type": "uint256"
            },
            {
              "internalType": "uint256",
              "name": "validatorsTimeoutFee",
              "type": "uint256"
            },
            {
              "internalType": "uint256",
              "name": "appealRounds",
              "type": "uint256"
            },
            {
              "internalType": "uint256",
              "name": "rollupStorageFee",
              "type": "uint256"
            },
            {
              "internalType": "uint256",
              "name": "rollupGenVMFee",
              "type": "uint256"
            },
            {
              "internalType": "uint256",
              "name": "totalMessageFees",
              "type": "uint256"
            },
            {
              "internalType": "uint256[]",
              "name": "rotations",
              "type": "uint256[]"
            }
          ],
          "internalType": "struct IFeeManager.FeesDistribution",
          "name": "_feesDistribution",
          "type": "tuple"
        },
        {
          "internalType": "uint256",
          "name": "_validUntil",
          "type": "uint256"
        }
      ],
      "name": "addTransaction",
      "outputs": [],
      "stateMutability": "payable",
      "type": "function"
    },
    {
      "inputs": [
        {
          "internalType": "bytes32",
          "name": "_txId",
          "type": "bytes32"
        }
      ],
      "name": "cancelTransaction",
      "outputs": [],
      "stateMutability": "nonpayable",
      "type": "function"
    },
    {
      "inputs": [
        {
          "internalType": "bytes32",
          "name": "_txId",
          "type": "bytes32"
        },
        {
          "internalType": "uint256",
          "name": "_tribunalIndex",
          "type": "uint256"
        },
        {
          "internalType": "bytes32",
          "name": "_commitHash",
          "type": "bytes32"
        }
      ],
      "name": "commitTribunalAppealVote",
      "outputs": [],
      "stateMutability": "nonpayable",
      "type": "function"
    },
    {
      "inputs": [
        {
          "internalType": "bytes32",
          "name": "_txId",
          "type": "bytes32"
        },
        {
          "internalType": "bytes32",
          "name": "_commitHash",
          "type": "bytes32"
        },
        {
          "internalType": "uint256",
          "name": "_validatorIndex",
          "type": "uint256"
        }
      ],
      "name": "commitVote",
      "outputs": [],
      "stateMutability": "nonpayable",
      "type": "function"
    },
    {
      "inputs": [],
      "name": "contracts",
      "outputs": [
        {
          "internalType": "contract IGenManager",
          "name": "genManager",
          "type": "address"
        },
        {
          "internalType": "contract ITransactions",
          "name": "genTransactions",
          "type": "address"
        },
        {
          "internalType": "contract IQueues",
          "name": "genQueue",
          "type": "address"
        },
        {
          "internalType": "contract IGhostFactory",
          "name": "ghostFactory",
          "type": "address"
        },
        {
          "internalType": "contract IGenLayerStaking",
          "name": "genStaking",
          "type": "address"
        },
        {
          "internalType": "contract IMessages",
          "name": "genMessages",
          "type": "address"
        },
        {
          "internalType": "contract IIdleness",
          "name": "idleness",
          "type": "address"
        },
        {
          "internalType": "contract ITribunalAppeal",
          "name": "tribunalAppeal",
          "type": "address"
        },
        {
          "internalType": "contract IFeeManager",
          "name": "feeManager",
          "type": "address"
        },
        {
          "internalType": "contract INFTMinter",
          "name": "nftMinter",
          "type": "address"
        }
      ],
      "stateMutability": "view",
      "type": "function"
    },
    {
      "inputs": [
        {
          "internalType": "address",
          "name": "_sender",
          "type": "address"
        },
        {
          "internalType": "uint256",
          "name": "_numOfInitialValidators",
          "type": "uint256"
        },
        {
          "internalType": "uint256",
          "name": "_maxRotations",
          "type": "uint256"
        },
        {
          "internalType": "bytes",
          "name": "_calldata",
          "type": "bytes"
        },
        {
          "components": [
            {
              "internalType": "uint256",
              "name": "leaderTimeoutFee",
              "type": "uint256"
            },
            {
              "internalType": "uint256",
              "name": "validatorsTimeoutFee",
              "type": "uint256"
            },
            {
              "internalType": "uint256",
              "name": "appealRounds",
              "type": "uint256"
            },
            {
              "internalType": "uint256",
              "name": "rollupStorageFee",
              "type": "uint256"
            },
            {
              "internalType": "uint256",
              "name": "rollupGenVMFee",
              "type": "uint256"
            },
            {
              "internalType": "uint256",
              "name": "totalMessageFees",
              "type": "uint256"
            },
            {
              "internalType": "uint256[]",
              "name": "rotations",
              "type": "uint256[]"
            }
          ],
          "internalType": "struct IFeeManager.FeesDistribution",
          "name": "_feesDistribution",
          "type": "tuple"
        },
        {
          "internalType": "uint256",
          "name": "_saltNonce",
          "type": "uint256"
        },
        {
          "internalType": "uint256",
          "name": "_validUntil",
          "type": "uint256"
        }
      ],
      "name": "deploySalted",
      "outputs": [],
      "stateMutability": "payable",
      "type": "function"
    },
    {
      "inputs": [
        {
          "internalType": "address",
          "name": "_recipient",
          "type": "address"
        },
        {
          "internalType": "uint256",
          "name": "_value",
          "type": "uint256"
        },
        {
          "internalType": "bytes",
          "name": "_data",
          "type": "bytes"
        }
      ],
      "name": "executeMessage",
      "outputs": [
        {
          "internalType": "bool",
          "name": "success",
          "type": "bool"
        }
      ],
      "stateMutability": "nonpayable",
      "type": "function"
    },
    {
      "inputs": [
        {
          "internalType": "bytes32[]",
          "name": "_txIds",
          "type": "bytes32[]"
        }
      ],
      "name": "finalizeIdlenessTxs",
      "outputs": [],
      "stateMutability": "nonpayable",
      "type": "function"
    },
    {
      "inputs": [
        {
          "internalType": "bytes32",
          "name": "_txId",
          "type": "bytes32"
        }
      ],
      "name": "finalizeTransaction",
      "outputs": [],
      "stateMutability": "nonpayable",
      "type": "function"
    },
    {
      "inputs": [],
      "name": "getContracts",
      "outputs": [
        {
          "components": [
            {
              "internalType": "contract IGenManager",
              "name": "genManager",
              "type": "address"
            },
            {
              "internalType": "contract ITransactions",
              "name": "genTransactions",
              "type": "address"
            },
            {
              "internalType": "contract IQueues",
              "name": "genQueue",
              "type": "address"
            },
            {
              "internalType": "contract IGhostFactory",
              "name": "ghostFactory",
              "type": "address"
            },
            {
              "internalType": "contract IGenLayerStaking",
              "name": "genStaking",
              "type": "address"
            },
            {
              "internalType": "contract IMessages",
              "name": "genMessages",
              "type": "address"
            },
            {
              "internalType": "contract IIdleness",
              "name": "idleness",
              "type": "address"
            },
            {
              "internalType": "contract ITribunalAppeal",
              "name": "tribunalAppeal",
              "type": "address"
            },
            {
              "internalType": "contract IFeeManager",
              "name": "feeManager",
              "type": "address"
            },
            {
              "internalType": "contract INFTMinter",
              "name": "nftMinter",
              "type": "address"
            }
          ],
          "internalType": "struct IConsensusMainWithFees.ExternalContracts",
          "name": "",
          "type": "tuple"
        }
      ],
      "stateMutability": "view",
      "type": "function"
    },
    {
      "inputs": [
        {
          "internalType": "bytes32",
          "name": "role",
          "type": "bytes32"
        }
      ],
      "name": "getRoleAdmin",
      "outputs": [
        {
          "internalType": "bytes32",
          "name": "",
          "type": "bytes32"
        }
      ],
      "stateMutability": "view",
      "type": "function"
    },
    {
      "inputs": [
        {
          "internalType": "address",
          "name": "",
          "type": "address"
        }
      ],
      "name": "ghostContracts",
      "outputs": [
        {
          "internalType": "bool",
          "name": "",
          "type": "bool"
        }
      ],
      "stateMutability": "view",
      "type": "function"
    },
    {
      "inputs": [],
      "name": "globalRandomSeed",
      "outputs": [
        {
          "internalType": "bytes32",
          "name": "",
          "type": "bytes32"
        }
      ],
      "stateMutability": "view",
      "type": "function"
    },
    {
      "inputs": [
        {
          "internalType": "bytes32",
          "name": "role",
          "type": "bytes32"
        },
        {
          "internalType": "address",
          "name": "account",
          "type": "address"
        }
      ],
      "name": "grantRole",
      "outputs": [],
      "stateMutability": "nonpayable",
      "type": "function"
    },
    {
      "inputs": [
        {
          "internalType": "bytes32",
          "name": "role",
          "type": "bytes32"
        },
        {
          "internalType": "address",
          "name": "account",
          "type": "address"
        }
      ],
      "name": "hasRole",
      "outputs": [
        {
          "internalType": "bool",
          "name": "",
          "type": "bool"
        }
      ],
      "stateMutability": "view",
      "type": "function"
    },
    {
      "inputs": [],
      "name": "initialize",
      "outputs": [],
      "stateMutability": "nonpayable",
      "type": "function"
    },
    {
      "inputs": [
        {
          "internalType": "bytes32",
          "name": "_txId",
          "type": "bytes32"
        }
      ],
      "name": "leaderIdleness",
      "outputs": [],
      "stateMutability": "nonpayable",
      "type": "function"
    },
    {
      "inputs": [
        {
          "components": [
            {
              "internalType": "bytes32",
              "name": "txId",
              "type": "bytes32"
            },
            {
              "internalType": "uint256",
              "name": "saltAsAValidator",
              "type": "uint256"
            },
            {
              "internalType": "bytes32",
              "name": "txExecutionHash",
              "type": "bytes32"
            },
            {
              "internalType": "bytes32",
              "name": "messagesAndOtherFieldsHash",
              "type": "bytes32"
            },
            {
              "internalType": "bytes32",
              "name": "otherExecutionFieldsHash",
              "type": "bytes32"
            },
            {
              "internalType": "enum ITransactions.VoteType",
              "name": "resultValue",
              "type": "uint8"
            },
            {
              "components": [
                {
                  "internalType": "enum IMessages.MessageType",
                  "name": "messageType",
                  "type": "uint8"
                },
                {
                  "internalType": "address",
                  "name": "recipient",
                  "type": "address"
                },
                {
                  "internalType": "uint256",
                  "name": "value",
                  "type": "uint256"
                },
                {
                  "internalType": "bytes",
                  "name": "data",
                  "type": "bytes"
                },
                {
                  "internalType": "bool",
                  "name": "onAcceptance",
                  "type": "bool"
                },
                {
                  "internalType": "uint256",
                  "name": "saltNonce",
                  "type": "uint256"
                }
              ],
              "internalType": "struct IMessages.SubmittedMessage[]",
              "name": "messages",
              "type": "tuple[]"
            }
          ],
          "internalType": "struct IConsensusMainWithFees.LeaderRevealVoteParams",
          "name": "leaderRevealVoteParams",
          "type": "tuple"
        }
      ],
      "name": "leaderRevealVote",
      "outputs": [],
      "stateMutability": "nonpayable",
      "type": "function"
    },
    {
      "inputs": [],
      "name": "owner",
      "outputs": [
        {
          "internalType": "address",
          "name": "",
          "type": "address"
        }
      ],
      "stateMutability": "view",
      "type": "function"
    },
    {
      "inputs": [],
      "name": "pendingOwner",
      "outputs": [
        {
          "internalType": "address",
          "name": "",
          "type": "address"
        }
      ],
      "stateMutability": "view",
      "type": "function"
    },
    {
      "inputs": [
        {
          "internalType": "bytes32",
          "name": "",
          "type": "bytes32"
        }
      ],
      "name": "pendingTransactionValues",
      "outputs": [
        {
          "internalType": "uint256",
          "name": "",
          "type": "uint256"
        }
      ],
      "stateMutability": "view",
      "type": "function"
    },
    {
      "inputs": [
        {
          "internalType": "address",
          "name": "recipient",
          "type": "address"
        }
      ],
      "name": "proceedPendingQueueProcessing",
      "outputs": [],
      "stateMutability": "nonpayable",
      "type": "function"
    },
    {
      "inputs": [
        {
          "internalType": "bytes32",
          "name": "_txId",
          "type": "bytes32"
        }
      ],
      "name": "processIdleness",
      "outputs": [],
      "stateMutability": "nonpayable",
      "type": "function"
    },
    {
      "inputs": [
        {
          "internalType": "bytes32",
          "name": "_txId",
          "type": "bytes32"
        },
        {
          "internalType": "uint256",
          "name": "_processingBlock",
          "type": "uint256"
        },
        {
          "internalType": "bytes32",
          "name": "_txExecutionHash",
          "type": "bytes32"
        },
        {
          "internalType": "bytes",
          "name": "_eqBlocksOutputs",
          "type": "bytes"
        },
        {
          "internalType": "bytes",
          "name": "_vrfProof",
          "type": "bytes"
        }
      ],
      "name": "proposeReceipt",
      "outputs": [],
      "stateMutability": "nonpayable",
      "type": "function"
    },
    {
      "inputs": [],
      "name": "renounceOwnership",
      "outputs": [],
      "stateMutability": "nonpayable",
      "type": "function"
    },
    {
      "inputs": [
        {
          "internalType": "bytes32",
          "name": "role",
          "type": "bytes32"
        },
        {
          "internalType": "address",
          "name": "callerConfirmation",
          "type": "address"
        }
      ],
      "name": "renounceRole",
      "outputs": [],
      "stateMutability": "nonpayable",
      "type": "function"
    },
    {
      "inputs": [
        {
          "internalType": "bytes32",
          "name": "_txId",
          "type": "bytes32"
        },
        {
          "internalType": "uint256",
          "name": "_tribunalIndex",
          "type": "uint256"
        },
        {
          "internalType": "bytes32",
          "name": "_voteHash",
          "type": "bytes32"
        },
        {
          "internalType": "enum ITransactions.VoteType",
          "name": "_voteType",
          "type": "uint8"
        },
        {
          "internalType": "bytes32",
          "name": "_otherExecutionFieldsHash",
          "type": "bytes32"
        },
        {
          "internalType": "uint256",
          "name": "_nonce",
          "type": "uint256"
        }
      ],
      "name": "revealTribunalAppealVote",
      "outputs": [],
      "stateMutability": "nonpayable",
      "type": "function"
    },
    {
      "inputs": [
        {
          "internalType": "bytes32",
          "name": "_txId",
          "type": "bytes32"
        },
        {
          "internalType": "bytes32",
          "name": "_voteHash",
          "type": "bytes32"
        },
        {
          "internalType": "enum ITransactions.VoteType",
          "name": "_voteType",
          "type": "uint8"
        },
        {
          "internalType": "bytes32",
          "name": "_otherExecutionFieldsHash",
          "type": "bytes32"
        },
        {
          "internalType": "uint256",
          "name": "_nonce",
          "type": "uint256"
        },
        {
          "internalType": "uint256",
          "name": "_validatorIndex",
          "type": "uint256"
        }
      ],
      "name": "revealVote",
      "outputs": [],
      "stateMutability": "nonpayable",
      "type": "function"
    },
    {
      "inputs": [
        {
          "internalType": "bytes32",
          "name": "role",
          "type": "bytes32"
        },
        {
          "internalType": "address",
          "name": "account",
          "type": "address"
        }
      ],
      "name": "revokeRole",
      "outputs": [],
      "stateMutability": "nonpayable",
      "type": "function"
    },
    {
      "inputs": [
        {
          "internalType": "address",
          "name": "_ghostFactory",
          "type": "address"
        },
        {
          "internalType": "address",
          "name": "_genManager",
          "type": "address"
        },
        {
          "internalType": "address",
          "name": "_genTransactions",
          "type": "address"
        },
        {
          "internalType": "address",
          "name": "_genQueue",
          "type": "address"
        },
        {
          "internalType": "address",
          "name": "_genStaking",
          "type": "address"
        },
        {
          "internalType": "address",
          "name": "_genMessages",
          "type": "address"
        },
        {
          "internalType": "address",
          "name": "_idleness",
          "type": "address"
        },
        {
          "internalType": "address",
          "name": "_tribunalAppeal",
          "type": "address"
        },
        {
          "internalType": "address",
          "name": "_feeManager",
          "type": "address"
        },
        {
          "internalType": "address",
          "name": "_nftMinter",
          "type": "address"
        }
      ],
      "name": "setExternalContracts",
      "outputs": [],
      "stateMutability": "nonpayable",
      "type": "function"
    },
    {
      "inputs": [
        {
          "internalType": "bytes32",
          "name": "_txId",
          "type": "bytes32"
        }
      ],
      "name": "submitAppeal",
      "outputs": [],
      "stateMutability": "payable",
      "type": "function"
    },
    {
      "inputs": [
        {
          "internalType": "bytes4",
          "name": "interfaceId",
          "type": "bytes4"
        }
      ],
      "name": "supportsInterface",
      "outputs": [
        {
          "internalType": "bool",
          "name": "",
          "type": "bool"
        }
      ],
      "stateMutability": "view",
      "type": "function"
    },
    {
      "inputs": [
        {
          "internalType": "bytes32",
          "name": "_txId",
          "type": "bytes32"
        },
        {
          "components": [
            {
              "internalType": "uint256",
              "name": "leaderTimeoutFee",
              "type": "uint256"
            },
            {
              "internalType": "uint256",
              "name": "validatorsTimeoutFee",
              "type": "uint256"
            },
            {
              "internalType": "uint256",
              "name": "appealRounds",
              "type": "uint256"
            },
            {
              "internalType": "uint256",
              "name": "rollupStorageFee",
              "type": "uint256"
            },
            {
              "internalType": "uint256",
              "name": "rollupGenVMFee",
              "type": "uint256"
            },
            {
              "internalType": "uint256",
              "name": "totalMessageFees",
              "type": "uint256"
            },
            {
              "internalType": "uint256[]",
              "name": "rotations",
              "type": "uint256[]"
            }
          ],
          "internalType": "struct IFeeManager.FeesDistribution",
          "name": "_feesDistribution",
          "type": "tuple"
        }
      ],
      "name": "topUpAndSubmitAppeal",
      "outputs": [],
      "stateMutability": "payable",
      "type": "function"
    },
    {
      "inputs": [
        {
          "internalType": "bytes32",
          "name": "_txId",
          "type": "bytes32"
        },
        {
          "components": [
            {
              "internalType": "uint256",
              "name": "leaderTimeoutFee",
              "type": "uint256"
            },
            {
              "internalType": "uint256",
              "name": "validatorsTimeoutFee",
              "type": "uint256"
            },
            {
              "internalType": "uint256",
              "name": "appealRounds",
              "type": "uint256"
            },
            {
              "internalType": "uint256",
              "name": "rollupStorageFee",
              "type": "uint256"
            },
            {
              "internalType": "uint256",
              "name": "rollupGenVMFee",
              "type": "uint256"
            },
            {
              "internalType": "uint256",
              "name": "totalMessageFees",
              "type": "uint256"
            },
            {
              "internalType": "uint256[]",
              "name": "rotations",
              "type": "uint256[]"
            }
          ],
          "internalType": "struct IFeeManager.FeesDistribution",
          "name": "_feesDistribution",
          "type": "tuple"
        }
      ],
      "name": "topUpFees",
      "outputs": [],
      "stateMutability": "payable",
      "type": "function"
    },
    {
      "inputs": [
        {
          "internalType": "address",
          "name": "newOwner",
          "type": "address"
        }
      ],
      "name": "transferOwnership",
      "outputs": [],
      "stateMutability": "nonpayable",
      "type": "function"
    },
    {
      "inputs": [],
      "name": "txGlobalCounter",
      "outputs": [
        {
          "internalType": "uint256",
          "name": "",
          "type": "uint256"
        }
      ],
      "stateMutability": "view",
      "type": "function"
    },
    {
      "stateMutability": "payable",
      "type": "receive"
    }
  ],
  "bytecode": "0x60808060405234601557616deb908161001b8239f35b600080fdfe60c080604052600436101561001d575b50361561001b57600080fd5b005b600090813560e01c90816301ffc9a7146130345750806303d1491714612b50578063103abeac14612b34578063248a9ca314612b0d5780632f2ff15d14612adb57806336568abe14612a965780633bd15f7014612a5d5780635c970d28146129545780635e174033146129365780636c0f79b6146128a957806370ba333914612722578063715018a6146126a15780637440c21b1461266257806377b3d293146125d957806379ba50971461258b5780638129fc1c146123ad57806385d2d2741461238a5780638b5de1bc146122f05780638da5cb5b146122ba57806391d14854146122615780639e0c615f146121b9578063a217fddf1461219d578063a4d89080146120ef578063a54668091461208a578063a7214fde14611e89578063aab85d6414611c62578063b2efda83146114e3578063b77ae9c2146113ad578063c3a2a93a146111fe578063c7e6e76614610caa578063cb225db114610c8c578063cbc2440a14610bac578063d4f6aa9314610b00578063d547741f14610ac5578063dd6ed256146109dc578063dfcd9aab146109b2578063e30c39781461097c578063e4c23d5914610812578063f2fde38b1461078a5763f5acca710361000f5734610787576020366003190112610787576004356001600160401b0381116105c957366023820112156105c95780600401359061021a82613165565b916102286040519384613144565b8083526024602084019160051b8301019136831161078557602401905b82821061077557505060015460405163f5acca7160e01b8152929150839083906001600160a01b031681838161027e87600483016135d7565b03925af190811561076a578392849285948695879388936106be575b5087969196955b8551871015610683578897895b8451811015610678576102c189896135ad565b516102cc82876135ad565b51146102da576001016102ae565b509297509560015b610641576001546001600160a01b031690896102fe82896135ad565b5160246040518095819363255709e560e11b835260048301525afa918215610636578a92610612575b5060025460c083018051909391610372916020918e916001600160a01b039182169116610354878e6135ad565b5192604051809681958294637112610560e11b845260048401613592565b03925af18015610607576105cd575b5061038c82886135ad565b511561043b575061040f6001926103a383886135ad565b51610419575b6103c66103b6848b6135ad565b51858060a01b0383511690614e08565b6103d0838a6135ad565b517f24196ec40f90671b7144e716978686b4f3c7d6b00b23da3971ef2b52af27d87f8d80a2838060a01b03905116610408838a6135ad565b519061504d565b01959691966102a1565b610436610426848b6135ad565b51858060a01b0383511690614b5c565b6103a9565b9161044682896135ad565b518b52600b60205260408b20548b8982156104e05790818560a06001986104728361040f9998976135ad565b518552600b6020528460408120550192808080878c8060a01b038851165af1610499613ffc565b50156104a9575b505050506103c6565b6104c4602091600080516020616c76833981519152936135ad565b5192888060a01b0390511693604051908152a338808a856104a0565b50505061028083018051806104ff575b50506001925061040f906103c6565b825160a095909501805190956001600160a01b03908116918f9116823b156105c9578c9361054693839283604051809781958294635b8346e560e11b845260048401613592565b03925af191826105a6575b50509461040f939291856001971560001461059d57610581602091600080516020616c76833981519152936135ad565b5192888060a01b039051169351604051908152a35b90386104f0565b50505050610596565b819295949350906105b691613144565b6105c557909189908d38610551565b8c80fd5b5080fd5b6020813d82116105ff575b816105e560209383613144565b810103126105fb576105f69061349c565b610381565b8b80fd5b3d91506105d8565b6040513d8e823e3d90fd5b61062f9192503d808c833e6106278183613144565b810190614163565b9038610327565b6040513d8c823e3d90fd5b8061064e600192886135ad565b517fd157a8824e3093207095e0855163da28b596e2c5f19ba73ea473c2346e05b15b8b80a261040f565b5092979690966102e2565b6060888a937f3d139c84ad9350b1f396f3d75cb0770c4f495459f8ef8755e5335a12632bac3d9360405192835260208301526040820152a180f35b95505050505091503d8084833e6106d58183613144565b81019160c08284031261076657815160208301519260408101519360608201516001600160401b038111610762578661070f91840161350e565b9160808101516001600160401b03811161075e578761072f918301614813565b9660a08201516001600160401b03811161075a5761074d9201614813565b929094919592913861029a565b8980fd5b8880fd5b8780fd5b8380fd5b6040513d85823e3d90fd5b8135815260209182019101610245565b845b80fd5b5034610787576020366003190112610787576107a4613192565b6107ac6154e9565b600080516020616d5683398151915280546001600160a01b0319166001600160a01b03928316908117909155600080516020616c96833981519152549091167f38d16b8cac22d99fc7c124b9cd0de2d3fa1faef420bfe791d8c362d765e227008380a380f35b5060e036600319011261078757610827613192565b906064356001600160401b0381116105c9576108479036906004016131fa565b6084356001600160401b03811161097857610866903690600401613218565b9060a43590610873614878565b811561096957929384936108e19284926001600160a01b03811692908315610962575b604051936108a3856130f1565b8452602084018890526001600160a01b031660408401526024356060840152604435608084015260a083015260c082015260c43560e0820152615fb4565b6008549192916001600160a01b0316803b156107855761091d9385809460405196879586948593630e5fbe8960e21b85523491600486016140a5565b03925af1801561095757610942575b506001600080516020616d168339815191525580f35b8161094c91613144565b61078757803861092c565b6040513d84823e3d90fd5b5033610896565b63aceab4a160e01b8452600484fd5b8280fd5b5034610787578060031936011261078757600080516020616d56833981519152546040516001600160a01b039091168152602090f35b50346107875760203660031901126107875760406020916004358152600b83522054604051908152f35b5060e0366003190112610787576109f1613192565b6109f961317c565b6084356001600160401b03811161076657610a189036906004016131fa565b9160a435926001600160401b03841161078557610a3c610aa6943690600401613218565b92610a45614878565b6001600160a01b038316928315610abd57905b60405193610a65856130f1565b84526001600160a01b0390811660208501521660408301526044356060830152606435608083015260a082015260c0810184905260c43560e0820152615fb4565b50506001600080516020616d168339815191525580f35b503390610a58565b503461078757604036600319011261078757610afc600435610ae561317c565b90610af7610af28261346b565b6148b4565b6149a7565b5080f35b503461078757606036600319011261078757600754600435906024359083906001600160a01b0316803b156105c9578180916084604051809481936311bdd61b60e11b835289600484015288602484015260443560448401523360648401525af1801561095757610b97575b505033917f6514dec7e5f5d7d0dcb8a6167531988b5ac3c442dffd89335942f1fbfa71dc578480a480f35b81610ba191613144565b610978578238610b6c565b50346107875760c03660031901126107875760643560243560043560058310156107665760075484906001600160a01b0316803b156105c95781809160e46040518094819363db67487b60e01b83528860048401528960248401526044356044840152610c1c606484018c61345e565b608435608484015260a43560a48401523360c48401525af1801561095757610c77575b5050610c4e604051809461345e565b7fb3a6dcf1e56feb92caee0711bfd92afd8d3676f66a059b62cc0e4ab5dc461bf860203394a480f35b81610c8191613144565b610766578338610c3f565b50346107875780600319360112610787576020600c54604051908152f35b503461078757602036600319011261078757600435818060018060a01b03600154166024604051809481936363f373b360e11b83528760048401525af191821561076a5783908491859286908792889689986111ca575b50600f811015806111a25760058214806111b6575b8015611181575b156110cf57505060025460408051630341e56360e31b815292509082906001600160a01b0316818b81610d548a8c60048401613592565b03925af190811561109357889161109e575b50610fb0575b6001600160a01b0316151580610f9e575b610f7b575b5050835b8251811015610dca5780610d9c600192856135ad565b51610da8575b01610d86565b610db281856135ad565b51600080516020616c568339815191528780a2610da2565b848285825b8151811015610f7757610de281836135ad565b51610df0575b600101610dcf565b6002548490602090610e2d906001600160a01b0316610e0f85876135ad565b51604051948580948193639c88381960e01b83528b60048401613592565b03925af1908115610f6c578591610f33575b5015610de857610e4f81836135ad565b518452600b60205260408420549081610e8c575b6001915084610e7282856135ad565b51600080516020616cd68339815191528280a39050610de8565b6001546001600160a01b031685610ea383866135ad565b5160246040518094819363255709e560e11b835260048301525afa928315610f2857600193610f09928891610f0e575b50610ede84876135ad565b518852600b602052876040812055610ef684876135ad565b519060a08680821b03910151169061549b565b610e63565b610f2291503d808a833e6106278183613144565b88610ed3565b6040513d88823e3d90fd5b90506020813d8211610f64575b81610f4d60209383613144565b8101031261078557610f5e9061349c565b85610e3f565b3d9150610f40565b6040513d87823e3d90fd5b8380f35b6001600160a01b031690600080516020616cb68339815191528680a33880610d82565b506001600160a01b0381161515610d7d565b60055460405163404f7db760e01b81526004810185905290602090829060249082906001600160a01b03165afa908115611093578891611059575b5061104a575b610ffb838561504d565b827ff250caa116f9eac0e4e82d403f131ce0a520b6c232dbcbe270b3729b0aaca09e8880a2827f6ae3550300804fa352835a3e1279593d83ce88e20c9feb43302db45b1d89e6c98880a2610d6c565b6110548484614b5c565b610ff1565b90506020813d60201161108b575b8161107460209383613144565b81010312610762576110859061349c565b38610feb565b3d9150611067565b6040513d8a823e3d90fd5b6110c0915060403d6040116110c8575b6110b88183613144565b810190613578565b905038610d66565b503d6110ae565b61116d576006149081611144575b5015610d6c576002546040805163910048fb60e01b81529182906001600160a01b0316818b816111118a8c60048401613592565b03925af1801561109357611126575b50610d6c565b61113e9060403d6040116110c8576110b88183613144565b50611120565b9050600f8110156111595760061415386110dd565b634e487b7160e01b88526021600452602488fd5b634e487b7160e01b89526021600452602489fd5b505088600c82148015610d1d5750600f8310156111a257600c831415610d1d565b634e487b7160e01b8a52602160045260248afd5b50600f8310156111a2576005831415610d16565b95505050505092506111ee91503d8085833e6111e68183613144565b810190613c33565b9690959394909391929138610d01565b50346107875780600319360112610787578061014091610120604051611223816130d5565b8281528260208201528260408201528260608201528260808201528260a08201528260c08201528260e082015282610100820152015260405190611266826130d5565b60018060a01b039054169081815260018060a01b03600154166020820190815260018060a01b03600254166040830190815260018060a01b03600354166060840190815260018060a01b03600454166080850190815260018060a01b03600554169060a0860191825260018060a01b03600654169260c0870193845260018060a01b03600754169460e0880195865260018060a01b036008541696610100890197885261012060018060a01b03600954169901988952604051998a5260018060a01b0390511660208a015260018060a01b03905116604089015260018060a01b03905116606088015260018060a01b03905116608087015260018060a01b0390511660a086015260018060a01b0390511660c085015260018060a01b0390511660e084015260018060a01b0390511661010083015260018060a01b03905116610120820152f35b506113b7366132dd565b6114046020846113c7348661558d565b9593969250509560018060a01b036008541690604051948580948193637929c61160e11b83528c600484015260c0602484015260c483019061402c565b3460448301523360648301526001608483015288151560a483015203925af1908115610f285786916114a5575b5015611496571561145c57506001600160a01b031690600080516020616cb68339815191528380a380f35b9190507f08e6523db104b48b6f1a359653498b9739ec31f6e03abb21e7acf4d73f0a48ff6040518061149033953483613fe5565b0390a380f35b6359ce6fdf60e11b8552600485fd5b90506020813d6020116114db575b816114c060209383613144565b810103126114d7576114d19061349c565b38611431565b8580fd5b3d91506114b3565b50346107875760203660031901126107875780600435611501614878565b60015460405163b2efda8360e01b8152600481018390529360a09185916024918391906001600160a01b03165af18015610957578293838485928694611bfa575b5060065460405163e70c38f160e01b81529060c090829060049082906001600160a01b03165afa908115611bef578791611bc0575b5082159182159384611ba7575b508315611b58575b5050508015611ad5575b611a8c57600254604051637112610560e11b81529060209082906001600160a01b03168188816115ca8a8d60048401613592565b03925af1908115610f6c578591611a9b575b5015611a8c57156118f6576118e7575b6115f68382614e08565b600854604051632367190d60e01b8152600481018390529083908290602490829084906001600160a01b03165af190811561076a5783916117c4575b50602081018051801590811580926117b6575b61168f575b8561167a8689817f24196ec40f90671b7144e716978686b4f3c7d6b00b23da3971ef2b52af27d87f8580a261504d565b6001600080516020616d168339815191525580f35b908593959160018060a01b038751169182151590816117ae575b50611764575b50939460608101945060400191505b81515181101561175257806116d660019286516135ad565b516116e2575b016116be565b83808080858060a01b036116f78689516135ad565b5116611704868b516135ad565b51905af1611710613ffc565b506116dc57818060a01b036117268285516135ad565b511684600080516020616c768339815191526020611745858a516135ad565b51604051908152a36116dc565b509092915061167a905038808061164a565b8280929181925af1611774613ffc565b5015611783575b8181806116af565b81600080516020616c76833981519152602060018060a01b038751169351604051908152a33861177b565b9050386116a9565b506040840151511515611645565b90503d8084833e6117d58183613144565b810190602081830312610766578051906001600160401b0382116107855701906080828203126107665760405191608083018381106001600160401b038211176118d3576040526118258161344a565b83526020810151602084015260408101516001600160401b0381116114d757826118509183016134a9565b60408401526060810151906001600160401b0382116114d757019080601f8301121561078557815161188181613165565b9261188f6040519485613144565b81845260208085019260051b8201019283116118cf57602001905b8282106118bf57505050606082015238611632565b81518152602091820191016118aa565b8680fd5b634e487b7160e01b86526041600452602486fd5b6118f18382614b5c565b6115ec565b5060015460405163255709e560e11b815260048101839052908390829060249082906001600160a01b03165afa90811561076a578391611a72575b50818352600b602052604083205490829082156119af5760a090828652600b60205285604081205501848080808660018060a01b038651165af1611973613ffc565b5015611982575b5050506115f6565b516040519283526001600160a01b031691600080516020616c7683398151915290602090a338818161197a565b809250610280915001908151806119c8575050506115f6565b60a09190910180519091906001600160a01b038781169116813b156118cf5786869493611a0e93829383604051809781958294635b8346e560e11b845260048401613592565b03925af19182611a55575b5050611a4d576020600080516020616c768339815191529160018060a01b039051169351604051908152a35b38808061197a565b505050611a45565b819293945090611a6491613144565b610785579083918538611a19565b611a8691503d8085833e6106278183613144565b38611931565b636cdf1be560e11b8452600484fd5b90506020813d602011611acd575b81611ab660209383613144565b8101031261078557611ac79061349c565b386115dc565b3d9150611aa9565b506002546040516378e6dfbb60e11b81529060209082906001600160a01b03168180611b05898c60048401613592565b03915afa908115610f6c578591611b1e575b5015611596565b90506020813d602011611b50575b81611b3960209383613144565b8101031261078557611b4a9061349c565b38611b17565b3d9150611b2c565b8015159350909183611b9f575b5082611b76575b505038808061158c565b611b97919250611b869042613cde565b916080606082015191015190614806565b113880611b6c565b925038611b65565b611bb391945042613cde565b6080820151119238611584565b611be2915060c03d60c011611be8575b611bda8183613144565b8101906147b6565b38611577565b503d611bd0565b6040513d89823e3d90fd5b96505050505060a0833d60a011611c5a575b81611c1960a09383613144565b810103126105c957611c2a8361344a565b926020810151936040820151611c4e6080611c476060860161349c565b940161349c565b91959092919238611542565b3d9150611c0c565b5034610787576040366003190112610787576004356024356001600160401b03811161097857611c9690369060040161330c565b909160248460018060a01b03600154166040519283809263255709e560e11b82528660048301525afa908115610f6c578591611e6f575b5060c00151600254604051634113628960e11b81526001600160a01b03928316949290916020918391168180611d07888a60048401613592565b03915afa908115610f28578691611e35575b5015611e265760018060a01b038554168560405194631c5f1acf60e31b8652806004870152602086602481865afa958615610957578296611de8575b50956020939291611d7f9760405198899586948593634f51e1cf60e01b85523390600486016140e0565b03925af1908115611ddd578491611da2575b611d9f935081600d55615a1f565b80f35b90506020833d602011611dd5575b81611dbd60209383613144565b81010312611dd057611d9f925190611d91565b600080fd5b3d9150611db0565b6040513d86823e3d90fd5b9392915094506020833d602011611e1e575b81611e0760209383613144565b81010312611dd05791519390919086906020611d55565b3d9150611dfa565b63042202b560e11b8552600485fd5b90506020813d602011611e67575b81611e5060209383613144565b810103126114d757611e619061349c565b38611d19565b3d9150611e43565b611e8391503d8087833e6106278183613144565b38611ccd565b50346107875761014036600319011261078757611ea4613192565b611eac61317c565b604435916001600160a01b038316919082840361078557606435936001600160a01b0385169386919085870361097857608435906001600160a01b0382168083036107855760a435976001600160a01b03891692838a036118cf5760c435976001600160a01b03891695868a0361075e5760e4356001600160a01b0381169889820361208657610104359a6001600160a01b038c168c036107875750610124359b6001600160a01b038d168d03612081577f359bdd2e01824d91a59020395f87e32185c3f4ab6ebad6e8bce707977e17b3fe9f6101409f8f611fae96611fa9611fa994611fa9611fa998611fa9611fa996611fa98f611fa96154e9565b6159fe565b611fb7886159fe565b611fc0896159fe565b600380546001600160a01b039283166001600160a01b031991821681179092558e549b83169b81168c178f5560018054821685179055600280548216861790556004805482168717905560058054821688179055600680548216891790556007805482168a179055600880549a84169a82168b179055600980549b9093169a168a1790915560408051918252602082019a909a52988901526060880152608087015260a086015260c085015260e0840152610100830152610120820152a180f35b508f80fd5b8a80fd5b50346107875760a0366003190112610787576064356001600160401b0381116105c9576120bb90369060040161330c565b608435916001600160401b038311610766576120de611d9f93369060040161330c565b92909160443560243560043561438d565b506120f9366132dd565b612104929192614878565b341561218e57600854919283926001600160a01b031691823b156121895761215292849283604051809681958294630e5fbe8960e21b8452600484015260a0602484015260a483019061402c565b3460448301526001606483015233608483015203925af180156109575761094257506001600080516020616d168339815191525580f35b505050fd5b638d53e55360e01b8252600482fd5b5034610787578060031936011261078757602090604051908152f35b5034610787576060366003190112610787576121d3613192565b906044356001600160401b0381116105c9576121f39036906004016131fa565b9160018060a01b03600554163314158061223f575b612230578282916020809551920190602435905af1612225613ffc565b506040519015158152f35b630fc7a3f360e31b8252600482fd5b50600080516020616c96833981519152546001600160a01b0316331415612208565b503461078757604036600319011261078757604061227d61317c565b916004358152600080516020616cf6833981519152602052209060018060a01b0316600052602052602060ff604060002054166040519015158152f35b5034610787578060031936011261078757600080516020616c96833981519152546040516001600160a01b039091168152602090f35b5060203660031901126107875760043560208261230d348461558d565b60085460405163d38f5c3560e01b8152600481018a905260248101959095523460448601523360648601529296949590949284925060849183916001600160a01b03165af1908115610f285786916114a5575015611496571561145c57506001600160a01b031690600080516020616cb68339815191528380a380f35b503461078757606036600319011261078757611d9f604435602435600435613d01565b5034610787578060031936011261078757600080516020616d368339815191525460ff8160401c1615906001600160401b03811680159081612583575b6001149081612579575b159081612570575b506125615767ffffffffffffffff198116600117600080516020616d368339815191525581612534575b5061242f616c1a565b612437616c1a565b61243f616c1a565b33156125205761244e3361551f565b612456616c1a565b61245e616c1a565b6001600080516020616d1683398151915255612478616c1a565b600019430143811161250c576040516020810191408252426040820152436060820152606081526124aa608082613144565b519020600d556124b75780f35b60ff60401b19600080516020616d368339815191525416600080516020616d36833981519152557fc7f505b2f371ae2175ee4913f4499e1f2633a7b5936321eed1cdaeb6115181d2602060405160018152a180f35b634e487b7160e01b83526011600452602483fd5b631e4fbdf760e01b82526004829052602482fd5b68ffffffffffffffffff19166801000000000000000117600080516020616d368339815191525538612426565b63f92ee8a960e01b8352600483fd5b905015386123fc565b303b1591506123f4565b8391506123ea565b5034610787578060031936011261078757600080516020616d5683398151915254336001600160a01b03909116036125c657611d9f3361551f565b63118cdaa760e01b815233600452602490fd5b5034610787576020366003190112610787578060206125f6613192565b6002546040516377b3d29360e01b81526001600160a01b039283166004820152938492602492849291165af1801561095757612630575080f35b6020813d60201161265a575b8161264960209383613144565b810103126105c957610afc9061349c565b3d915061263c565b50346107875760203660031901126107875760209060ff906040906001600160a01b0361268d613192565b168152600a84522054166040519015158152f35b50346107875780600319360112610787576126ba6154e9565b600080516020616d5683398151915280546001600160a01b0319908116909155600080516020616c968339815191528054918216905581906001600160a01b03167f8be0079c531659141344cd1fd0a4f28419497f9722a3daafe3b4186f6b6457e08280a380f35b50346107875760203660031901126107875760043561273f614878565b60015460408051632838322d60e01b815260048101849052336024820152918290604490829087906001600160a01b03165af190811561076a578391612878575b50600254604051639c88381960e01b81529060209082906001600160a01b03168187816127b1898960048401613592565b03925af1908115611ddd57849161283e575b501561282f57816127e791818552600b602052604085205480612810575b5061504d565b3390600080516020616cd68339815191528380a36001600080516020616d168339815191525580f35b61282990838752600b602052866040812055338461549b565b386127e1565b63357bf18b60e01b8352600483fd5b90506020813d602011612870575b8161285960209383613144565b810103126107665761286a9061349c565b386127c3565b3d915061284c565b61289a915060403d6040116128a2575b6128928183613144565b810190613cbd565b905038612780565b503d612888565b503461078757806003193601126107875754600154600254600354600454600554600654600754600854600954604080516001600160a01b039b8c168152998b1660208b0152978a16978901979097529488166060880152928716608087015290861660a0860152851660c0850152841660e0840152831661010083015290911661012082015261014090f35b50346107875780600319360112610787576020600d54604051908152f35b503461078757602036600319011261078757600435818060018060a01b03600154166024604051809481936363f373b360e11b83528760048401525af191821561076a578384928594612a36575b506001600160a01b031691826129eb575b505050815b81518110156129e757806129ce600192846135ad565b51600080516020616c568339815191528580a2016129b8565b8280f35b6001600160a01b0316918290827f1c717affb0f2d0bd7bccd509af90bc762d34bc45ad812ef154a3f5efdae1ca6b8780a4600080516020616cb68339815191528480a33880806129b3565b91935050612a4e91503d8085833e6111e68183613144565b509590945092509050386129a2565b50346107875760c03660031901126107875760443560058110156105c957611d9f9060a435906084359060643590602435600435613611565b503461078757604036600319011261078757612ab061317c565b336001600160a01b03821603612acc57610afc906004356149a7565b63334bd91960e11b8252600482fd5b503461078757604036600319011261078757610afc600435612afb61317c565b90612b08610af28261346b565b6148fe565b5034610787576020366003190112610787576020612b2c60043561346b565b604051908152f35b5034610787578060031936011261078757602060405160648152f35b5034610787576020366003190112610787576004356001600160401b0381116105c95760e060031982360301126105c957604051612b8d81613089565b8160040135815260208101906024830135825260408101916044840135835260608201926064850135845260808301916084860135835260a48601359560058710156107625760a0850196875260c4810135906001600160401b03821161075e57019536602388011215610762576004870135612c0981613165565b97612c17604051998a613144565b81895260206004818b019360051b83010101903682116120865760248101925b828410612f75575050505060c08501968752612c51614878565b86518451612c876040518092612c736020830195604087526060840190613381565b90604083015203601f198101835282613144565b519020865103612f6657600154855193519451965191516001600160a01b039091169260058210156111a257926060959492612d3d8b9360e4965160405196612ccf88613089565b875260208701988952604087019b8c5289870193845260808701908152612cfa60a08801928361343e565b60c08701933385526040519c8d9a8b996372cabc3960e11b8b525160048b01525160248a01525160448901525160648801525160848701525160a486019061345e565b516001600160a01b031660c48401525af1928315611ddd5784928594612f19575b506005548251915186916001600160a01b0316803b1561097857612da69383604051809681958294632e62671f60e21b84526004840152604060248401526044830190613381565b03925af18015610f6c57612f05575b50519160405190612dc7602083613144565b8482526000368137600f811015612ef157600d811480612eea575b15612e23575050507fe51a41760ba25c8a4ac33894d5eb8698cf110a90d4e6f764fa0579ec8767b4668280a26001600080516020616d168339815191525580f35b60068103612e4557505050600080516020616c568339815191528280a261167a565b60028103612e705750506001600160a01b031690600080516020616d968339815191528380a361167a565b909150600403612ea457507f17aad8cee7fa654be58106f05c4040122273bad66e94979ffbb9f7ecccc68c5e8280a261167a565b8051606410612edc57612ed4600080516020616d7683398151915291604051918291602083526020830190613fa8565b0390a261167a565b612ee5916157b6565b61167a565b5084612de2565b634e487b7160e01b85526021600452602485fd5b84612f1291959295613144565b9238612db5565b925092506060823d606011612f5e575b81612f3660609383613144565b81010312610766576040612f498361344a565b92015191600f83101561078557919238612d5e565b3d9150612f29565b63496189f760e11b8852600488fd5b83356001600160401b0381116105c55760049083010160c0601f1982360301126105c55760405191612fa6836130ba565b6020820135600281101561303057835260408201356001600160a01b03811681036130305760208401526060820135604084015260808201356001600160401b03811161303057612ffd90602036918501016131fa565b606084015260a08201359283151584036130305760c06020949385946080840152013560a0820152815201930192612c37565b8e80fd5b9050346105c95760203660031901126105c95760043563ffffffff60e01b81168091036109785760209250637965db0b60e01b8114908115613078575b5015158152f35b6301ffc9a760e01b14905038613071565b60e081019081106001600160401b038211176130a457604052565b634e487b7160e01b600052604160045260246000fd5b60c081019081106001600160401b038211176130a457604052565b61014081019081106001600160401b038211176130a457604052565b61010081019081106001600160401b038211176130a457604052565b606081019081106001600160401b038211176130a457604052565b6102a081019081106001600160401b038211176130a457604052565b90601f801991011681019081106001600160401b038211176130a457604052565b6001600160401b0381116130a45760051b60200190565b602435906001600160a01b0382168203611dd057565b600435906001600160a01b0382168203611dd057565b6001600160401b0381116130a457601f01601f191660200190565b9291926131cf826131a8565b916131dd6040519384613144565b829481845281830111611dd0578281602093846000960137010152565b9080601f83011215611dd057816020613215933591016131c3565b90565b919060e083820312611dd05760405161323081613089565b8093803582526020810135602083015260408101356040830152606081013560608301526080810135608083015260a081013560a083015260c0810135906001600160401b038211611dd057019180601f84011215611dd057823561329481613165565b936132a26040519586613144565b81855260208086019260051b820101928311611dd057602001905b8282106132cd5750505060c00152565b81358152602091820191016132bd565b906040600319830112611dd05760043591602435906001600160401b038211611dd05761321591600401613218565b9181601f84011215611dd0578235916001600160401b038311611dd05760208381860195010111611dd057565b60005b83811061334c5750506000910152565b818101518382015260200161333c565b9060209161337581518092818552858086019101613339565b601f01601f1916010190565b9080602083519182815201906020808260051b8501019401926000905b8282106133ad57505050505090565b9091929394601f1982820301855285519081516002811015613428576001928260209392849352848060a01b038383015116838201526040820151604082015260a080613409606085015160c0606086015260c085019061335c565b608080860151151590850152930151910152970195019392019061339e565b634e487b7160e01b600052602160045260246000fd5b60058210156134285752565b51906001600160a01b0382168203611dd057565b9060058210156134285752565b600052600080516020616cf683398151915260205260016040600020015490565b60058110156134285760f81b9052565b51908115158203611dd057565b9080601f83011215611dd05781516134c081613165565b926134ce6040519485613144565b81845260208085019260051b820101928311611dd057602001905b8282106134f65750505090565b602080916135038461344a565b8152019101906134e9565b9080601f83011215611dd057815161352581613165565b926135336040519485613144565b81845260208085019260051b820101928311611dd057602001905b82821061355b5750505090565b815181526020918201910161354e565b9060068210156134285752565b9190826040910312611dd05761321560208351930161349c565b6001600160a01b039091168152602081019190915260400190565b80518210156135c15760209160051b010190565b634e487b7160e01b600052603260045260246000fd5b602060408183019282815284518094520192019060005b8181106135fb5750505090565b82518452602093840193909201916001016135ee565b93819095929560405160208101913360601b8352613632603483018a61348c565b86603583015260558201526055815261364c607582613144565b51902003613c225760c46000928360018060a01b0360015416956040516020810191613678838c61348c565b60218201526021815261368c604182613144565b519020956040519261369d846130ba565b8884526020840195865260408401978852606084016136bc8b8261343e565b6136fd608086019133835260a087019384526040519a8b998a986320e3d24360e11b8a525160048a015251602489015251604488015251606487019061345e565b516001600160a01b031660848501525160a48401525af19081156139c4576000908182809181908280958198613b28575b5015613b0a57908894939291602060018060a01b03600854169260c48b6000604051968794859363015e82ff60e61b8552600485015260248401523360448401526137868715159c8d6064860152608485019061345e565b61379360a484018e61356b565b5af19182156139c457600092613ace575b506137f7575b505050506137cf92506137c0604051809661345e565b6020850152604084019061356b565b7f14d4bda97d7d28622aa0ad6e4d069bb9215b9e2346ecbdf2313b04121da0b68a60603393a3565b835115159081613ac6575b501561387f5750507f9c4bf38aa77ce1103eb348ff99a695363c0b42ab316945b0e19906310f2146a261383e6137cf95604051918291826135d7565b0390a160408101516020909101516001600160a01b039161385f91906135ad565b511684600080516020616cb6833981519152600080a35b388080806137aa565b9094506006841015613428578590600185148015613abc575b156139f157505060025460408051630341e56360e31b815292509082906001600160a01b0316816000816138d08b8b60048401613592565b03925af19081156139c4576000916139d0575b506138f4575b6137cf92505b613876565b60405192847ff250caa116f9eac0e4e82d403f131ce0a520b6c232dbcbe270b3729b0aaca09e600080a260055463404f7db760e01b855260048501869052602090859060249082906001600160a01b03165afa80156139c457859460009161397e575b509361396a916137cf9561396f5761504d565b6138e9565b6139798183614b5c565b61504d565b9450506020843d6020116139bc575b8161399a60209383613144565b81010312611dd0578461396a916139b36137cf9661349c565b91955091613957565b3d915061398d565b6040513d6000823e3d90fd5b6139e9915060403d6040116110c8576110b88183613144565b9050386138e3565b15613a35575060408101516020909101516137cf94506001600160a01b0391613a1a91906135ad565b511684600080516020616d96833981519152600080a3613876565b60409150613a669460018060a01b0360025416906000845180988195829463910048fb60e01b845260048401613592565b03925af180156139c4576137cf93600091613a9b575b50156138ef5783600080516020616c56833981519152600080a2613876565b613ab4915060403d6040116110c8576110b88183613144565b905038613a7c565b5060038514613898565b905038613802565b9091506020813d602011613b02575b81613aea60209383613144565b81010312611dd057613afb9061349c565b90386137a4565b3d9150613add565b505050505050509050600080516020616c56833981519152600080a2565b9750955050505050503d8082843e613b408184613144565b8201610100838203126105c957613b568361349c565b90613b636020850161349c565b93604081015193600685101561078757613b7f6060830161344a565b94608083015193613b9260a0850161349c565b9260c08501516001600160401b0381116105c9578501946060868403126105c95760405195613bc08761310d565b80518752602081015160208801526040810151906001600160401b03821161076657613bee918591016134a9565b604087015260e0810151916001600160401b0383116107875750613c1392910161350e565b9496909593919294963861372e565b636aee863360e11b60005260046000fd5b9060e082820312611dd0578151600f811015611dd057926020830151600f811015611dd05792613c656040820161344a565b92613c726060830161344a565b92613c7f6080840161344a565b9260a08101516001600160401b038111611dd05783613c9f91830161350e565b9260c08201516001600160401b038111611dd057613215920161350e565b9190826040910312611dd0576132156020613cd78461349c565b930161344a565b91908203918211613ceb57565b634e487b7160e01b600052601160045260246000fd5b9091600090608460018060a01b0360015416948360405196879485936358cec13960e01b8552886004860152602485015233604485015260648401525af19182156139c457600092838081938293613f29575b506001600160a01b031680613f0f575015613d9b57505060405191151582527fc5dd23f5cc17858ca1e3d0f06cbcc78820753b0dd2fea89d03d0d842192c153160203393a3565b6002546040805163910048fb60e01b815293969550919392919082906001600160a01b031681600081613dd2888c60048401613592565b03925af19081156139c457600091613eee575b50613ed5575b60005b8251811015613ece57613e0181846135ad565b51151580613eba575b613e17575b600101613dee565b60025460009190604090613e55906001600160a01b0316613e3884886135ad565b51835195868094819363910048fb60e01b83528d60048401613592565b03925af180156139c457600192600091613e9a575b50613e77575b9050613e0f565b613e8181856135ad565b51600080516020616c56833981519152600080a2613e70565b613eb2915060403d81116110c8576110b88183613144565b905038613e6a565b5081613ec682856135ad565b511415613e0a565b5050509050565b80600080516020616c56833981519152600080a2613deb565b613f07915060403d6040116110c8576110b88183613144565b905038613de5565b9450505050600080516020616cb6833981519152600080a3565b9350509350503d8084833e613f3e8183613144565b81019060a08183031261076657613f548161349c565b91613f616020830161349c565b90613f6e6040840161344a565b95613f7b6060850161344a565b936080810151916001600160401b0383116107875750613f9c92910161350e565b92909491929138613d54565b906020808351928381520192019060005b818110613fc65750505090565b82516001600160a01b0316845260209384019390920191600101613fb9565b604090613215939281528160208201520190613fa8565b3d15614027573d9061400d826131a8565b9161401b6040519384613144565b82523d6000602084013e565b606090565b602061010060c060e085019380518652838101518487015260408101516040870152606081015160608701526080810151608087015260a081015160a087015201519360e060c082015284518094520192019060005b81811061408f5750505090565b8251845260209384019390920191600101614082565b929493906080926140c391855260a0602086015260a085019061402c565b6040840195909552600060608401526001600160a01b0316910152565b6001600160a01b03918216815291166020820152606060408201819052810183905260809290918190848401376000828201840152601f01601f1916010190565b81601f82011215611dd0578051614137816131a8565b926141456040519485613144565b81845260208284010111611dd0576132159160208085019101613339565b602081830312611dd0578051906001600160401b038211611dd057016102a081830312611dd0576040519161419783613128565b81516006811015611dd057835260208201516005811015611dd05760208401526040820151600f811015611dd05760408401526060820151600f811015611dd05760608401526141e96080830161344a565b60808401526141fa60a0830161344a565b60a084015261420b60c0830161344a565b60c084015261421c60e0830161344a565b60e08401526101008201516101008401526101208201516101208401526101408201516101408401526101608201516101608401526101808201516101808401526101a08201516101a08401526101c08201516101c08401526101e08201516101e08401526102008201516001600160401b038111611dd057816142a1918401614121565b6102008401526102208201516001600160401b038111611dd057816142c7918401614121565b6102208401526102408201516001600160401b038111611dd057820181601f82011215611dd0578051906142fa82613165565b926143086040519485613144565b82845260206060818601940283010191818311611dd057602001925b82841061435157505050509061028091610240840152610260810151610260840152015161028082015290565b606084830312611dd057602060609160405161436c8161310d565b86518152828701518382015260408701516040820152815201930192614324565b91929593600154906000976040519060a082018281106001600160401b038211176147a2579161443f6143e48c97969594938894604052898452602084019533875260408501988952606085019b8c5236916131c3565b60808301908152604051637aef73db60e11b8152602060048201529251602484015293516001600160a01b031660448301529451606482015296516084880152905160a060a4880152869384929183919060c483019061335c565b03926001600160a01b03165af1938415610f6c57859486958795889389928a978b95614711575b50156146f35761449f9160209160018060a01b038c5416908c8c60405196879586948593634f51e1cf60e01b85523390600486016140e0565b03925af19081156146e85789916146b6575b50600d556008546001600160a01b031690600f87101561116d57600d871495823b1561075a579060a48a92836040519586948593635f0eb42760e11b85528b6004860152602485015233604485015260648401528a60848401525af18015611093576146a2575b508693156146065750507fe51a41760ba25c8a4ac33894d5eb8698cf110a90d4e6f764fa0579ec8767b4668580a25b6145f257600314614556575050565b61455f906158aa565b80614568575050565b60015460405163255709e560e11b815260048101839052908390829060249082906001600160a01b03165afa90811561076a57907f81f3dd2ecd241a95dc5d5bc7ad844e0939af986e300fd5653236d95c41cf83619184916145d8575b5060e001516001600160a01b03169280a3565b6145ec91503d8086833e6106278183613144565b386145c5565b634e487b7160e01b83526021600452602483fd5b869350906006850361462b575050600080516020616c568339815191528580a2614547565b869350906002850361465957506001600160a01b031690600080516020616d968339815191528680a3614547565b80519091506064106146945761468c600080516020616d7683398151915291604051918291602083526020830190613fa8565b0390a2614547565b61469d916157b6565b614547565b876146af91989298613144565b9538614518565b90506020813d6020116146e0575b816146d160209383613144565b8101031261075e5751386144b1565b3d91506146c4565b6040513d8b823e3d90fd5b505050505093915050600080516020616c56833981519152915080a2565b975050965096505050503d8086843e61472a8184613144565b820160e0838203126114d75761473f8361349c565b9261474c6020820161344a565b90604081015196600f88101561075e576147686060830161344a565b9660808301519460a08401519360c0810151906001600160401b0382116105c5576147949291016134a9565b969398979492969338614466565b634e487b7160e01b8b52604160045260248bfd5b908160c0910312611dd05760a0604051916147d0836130ba565b8051835260208101516020840152604081015160408401526060810151606084015260808101516080840152015160a082015290565b91908201809211613ceb57565b9080601f83011215611dd057815161482a81613165565b926148386040519485613144565b81845260208085019260051b820101928311611dd057602001905b8282106148605750505090565b6020809161486d8461349c565b815201910190614853565b6002600080516020616d1683398151915254146148a3576002600080516020616d1683398151915255565b633ee5aeb560e01b60005260046000fd5b6000818152600080516020616cf68339815191526020908152604080832033845290915290205460ff16156148e65750565b63e2517d3f60e01b6000523360045260245260446000fd5b6000818152600080516020616cf6833981519152602090815260408083206001600160a01b038616845290915290205460ff166149a0576000818152600080516020616cf6833981519152602090815260408083206001600160a01b0395909516808452949091528120805460ff19166001179055339291907f2f8788117e7eff1d82e926ec794901d17c78024a50270940304540a733656f0d9080a4600190565b5050600090565b6000818152600080516020616cf6833981519152602090815260408083206001600160a01b038616845290915290205460ff16156149a0576000818152600080516020616cf6833981519152602090815260408083206001600160a01b0395909516808452949091528120805460ff19169055339291907ff6391f5c32d9c69d2a47ea670b442974b53935d1edc7fd64eb21e047a839171b9080a4600190565b602081830312611dd0578051906001600160401b038211611dd0570181601f82011215611dd057805190614a7a82613165565b92614a886040519485613144565b82845260208085019360051b83010191818311611dd05760208101935b838510614ab457505050505090565b84516001600160401b038111611dd057820160c0818503601f190112611dd05760405191614ae1836130ba565b60208201516002811015611dd0578352614afd6040830161344a565b6020840152606082015160408401526080820151926001600160401b038411611dd05760c083614b34886020809881980101614121565b6060840152614b4560a0820161349c565b6080840152015160a0820152815201940193614aa5565b600554604051635454a18f60e01b8152600481018390526001600160a01b038481166024830152929360009390928491839160449183918591165af190811561076a578391614de6575b50805115614de057600154604051631dbf24f760e01b8152600481018690529290602090849060249082906001600160a01b03165afa928315611ddd578493614da4575b506001600160a01b03169485158015614d8d575b614d7e57835b8251811015614d1c5780614c1a600192856135ad565b516040602082018a858060a01b03825116606085015160a086015191855193614c42856130f1565b84526020840152878060a01b038b1685840152600560608401528b608084015260a083015260c08201528960e0820152614cc1602091845190614c858483613144565b8c82528c368137855191614c9883613089565b8d83528d858401528d878401528d60608401528d60808401528d60a084015260c0830152615fb4565b93909401519081614d09575b50505160a085901b859003918216929116907ffcd4925545581224af98ce36b42d51bb88917ea0c3fe675c27e1df1a222825558980a401614c04565b600b90858c525260408a20553880614ccd565b5094509192905060018060a01b0360055416915190823b15610766579060648492836040519586948593634af6b23f60e01b855260048501526024840152600160448401525af1801561095757614d71575050565b81614d7b91613144565b50565b631d41354d60e01b8452600484fd5b50858452600a60205260ff60408520541615614bfe565b9092506020813d602011614dd8575b81614dc060209383613144565b8101031261076657614dd19061344a565b9138614bea565b3d9150614db3565b50505050565b614e0291503d8085833e614dfa8183613144565b810190614a47565b38614ba6565b6005546040516361c53f3d60e01b8152600481018390526001600160a01b03848116602483015292939290911691906044815a9181600080978195f190811561076a578391615033575b50805115614de057600154604051631dbf24f760e01b8152600481018690529290602090849060249082906001600160a01b03165afa928315611ddd578493614ff7575b506001600160a01b03169485158015614fe0575b614d7e57835b8251811015614f8c5780614ec6600192856135ad565b516040602082018a858060a01b03825116606085015160a086015191855193614eee856130f1565b84526020840152878060a01b038b1685840152600560608401528b608084015260a083015260c08201528960e0820152614f31602091845190614c858483613144565b93909401519081614f79575b50505160a085901b859003918216929116907ffcd4925545581224af98ce36b42d51bb88917ea0c3fe675c27e1df1a222825558980a401614eb0565b600b90858c525260408a20553880614f3d565b5094509192905060018060a01b0360055416915190823b15610766579060648492836040519586948593634af6b23f60e01b8552600485015260248401528160448401525af1801561095757614d71575050565b50858452600a60205260ff60408520541615614eaa565b9092506020813d60201161502b575b8161501360209383613144565b81010312610766576150249061344a565b9138614e96565b3d9150615006565b61504791503d8085833e614dfa8183613144565b38614e52565b600254604051631fd08e0b60e21b81526001600160a01b0380841660048301819052919594919216602086602481845afa9586156139c457600096615466575b50946020602494959660405195868092633f008c4560e01b82528760048301525afa9384156139c457600094615432575b508381106150ce575b5050505050565b838110156150c757600254604051635f4f4ec560e11b81526004810185905290602090829060249082906001600160a01b03165afa9081156139c457600091615401575b5060015460405163255709e560e11b81526004810183905290600090829060249082906001600160a01b03165afa9081156139c4576000916153e8575b5061026081015180151590816153de575b50156152a8576000604060018060a01b03600154166044825180948193632838322d60e01b83528860048401528160248401525af180156139c45761528b575b50600254604051639c88381960e01b81529060209082906001600160a01b0316816000816151d2898f60048401613592565b03925af180156139c45760009061524a575b5050906001929181600052600b6020526040600020548061521e575b50503390600080516020616cd6833981519152600080a35b016150ce565b6152439183600052600b6020526000604081205560a08680821b03910151168361549b565b3880615200565b6020823d8211615283575b8161526260209383613144565b81010312610787575090615279600194939261349c565b81929394506151e4565b3d9150615255565b6152a29060403d81116128a2576128928183613144565b506151a0565b50801515806153d4575b6152bf5750600190615218565b94505050905060018060a01b0360065416604051906303c4afcd60e41b8252836004830152426024830152604082604481845afa9182156139c45760009261538c575b50803b15611dd05760008091606460405180948193634e8eb8bd60e01b8352896004840152600160248401524260448401525af180156139c45761537b575b506001600160a01b0316917fdab9102861c7483a187584d6371d88316f005af507982ccf95c110879f3ed5a5600080a438808080806150c7565b600061538691613144565b38615341565b90916040823d82116153cc575b816153a660409383613144565b8101031261078757506153c460206153bd8361344a565b920161349c565b509038615302565b3d9150615399565b50828114156152b2565b9050421138615160565b6153fb913d8091833e6106278183613144565b3861514f565b906020823d821161542a575b8161541a60209383613144565b8101031261078757505138615112565b3d915061540d565b90936020823d60201161545e575b8161544d60209383613144565b8101031261078757505192386150be565b3d9150615440565b956020873d602011615493575b8161548060209383613144565b810103126107875750945194602061508d565b3d9150615473565b9082156154e457600080808086855af16154b3613ffc565b50156154be57505050565b6040519283526001600160a01b031691600080516020616c7683398151915290602090a3565b505050565b600080516020616c96833981519152546001600160a01b0316330361550a57565b63118cdaa760e01b6000523360045260246000fd5b600080516020616d5683398151915280546001600160a01b0319908116909155600080516020616c9683398151915280549182166001600160a01b0393841690811790915591167f8be0079c531659141344cd1fd0a4f28419497f9722a3daafe3b4186f6b6457e0600080a3565b6002546040805162fd067160e41b81526004810184905292939291829060249082906001600160a01b03165afa9081156139c45760009161573c575b5060065460405163e70c38f160e01b8152919060c090839060049082906001600160a01b03165afa9182156139c45760009261571b575b5060208101518015159283615701575b5050816156ec575b506156db57600090604460018060a01b036001541693836040519586948593631b059a5960e01b8552600485015260248401525af19081156139c457600091829183918491859161566c575b509091929394565b9493505050503d8082843e6156818184613144565b82019060a083830312610787578251906001600160401b0382116107875750906156ac9183016134a9565b6020820151916156be6040820161344a565b916156d060806060840151930161349c565b909392919038615664565b6359ce6fdf60e11b60005260046000fd5b90505160048110156134285760011438615618565b6157119293506080015190614806565b4210903880615610565b61573591925060c03d60c011611be857611bda8183613144565b9038615600565b6040813d6040116157ae575b8161575560409383613144565b810103126105c95760405191604083018381106001600160401b0382111761579a576040528151906004821015610787575082526020908101519082015260046155c9565b634e487b7160e01b82526041600452602482fd5b3d9150615748565b9060005b815180821015614de0576157d082606492613cde565b10156158a2576157e1818351613cde565b83905b6157ed81613165565b906157fb6040519283613144565b808252601f1961580a82613165565b0136602084013760005b818110615869575050615844600080516020616d7683398151915291604051918291602083526020830190613fa8565b0390a260648101809111156157ba57634e487b7160e01b600052601160045260246000fd5b919250906001906001600160a01b0361588b6158858388614806565b886135ad565b511661589782866135ad565b520190859291615814565b8260646157e4565b600254604051631fd08e0b60e21b81526001600160a01b038381166004830181905292169291602082602481875afa9182156139c4576000926159ca575b5060405190633f008c4560e01b82526004820152602081602481875afa9081156139c457600091615998575b508110156159905760018101809111613ceb576040516351b1c54760e11b81529260209284928391829161594b9160048401613592565b03915afa9081156139c457600091615961575090565b90506020813d602011615988575b8161597c60209383613144565b81010312611dd0575190565b3d915061596f565b505050600090565b90506020813d6020116159c2575b816159b360209383613144565b81010312611dd0575138615914565b3d91506159a6565b90916020823d6020116159f6575b816159e560209383613144565b8101031261078757505190386158e8565b3d91506159d8565b6001600160a01b031615615a0e57565b63e6c4247b60e01b60005260046000fd5b909291600090608460018060a01b0360015416958360405197889485936346a4a82960e01b8552886004860152336024860152604485015260648401525af180156139c45760008093819382809681988296615ef6575b50615e2e5715615e1257600254604051634113628960e11b81529060209082906001600160a01b03168180615aaf878c60048401613592565b03915afa9081156139c457600091615dd8575b5015615dc75780600052600b60205260406000205480615d57575b5060005b8751811015615b9657615af481896135ad565b51615b02575b600101615ae1565b600254615b4091906040906001600160a01b0316615b20838c6135ad565b5190896000845180978195829463910048fb60e01b845260048401613592565b03925af19182156139c457600192615b79575b50615b5e818a6135ad565b51600080516020616c56833981519152600080a29050615afa565b615b909060403d81116110c8576110b88183613144565b50615b53565b5091949092955060005b8651811015615d2757615bb381886135ad565b51615bc1575b600101615ba0565b600254600090602090615bff906001600160a01b0316615be1858c6135ad565b51604051948580948193639c88381960e01b83528d60048401613592565b03925af19081156139c457600091615cee575b5015615bb957615c2281886135ad565b51600052600b6020526040600020549081615c62575b600191506000615c48828a6135ad565b51600080516020616cd68339815191528280a39050615bb9565b6001546001600160a01b03166000615c7a838b6135ad565b5160246040518094819363255709e560e11b835260048301525afa9283156139c457600193615cd092600091615cd5575b50615cb6848c6135ad565b51600052600b60205260006040812055610ef6848c6135ad565b615c38565b615ce8913d8091833e6106278183613144565b38615cab565b906020823d8211615d1f575b81615d0760209383613144565b810103126107875750615d199061349c565b38615c12565b3d9150615cfa565b50919450926001600160a01b039250615d3f916135ad565b511690600080516020616cb6833981519152600080a3565b600080808093858252600b602052816040812055895af1615d76613ffc565b5015615d825738615add565b60405162461bcd60e51b815260206004820152601e60248201527f56616c7565207472616e7366657220746f2067686f7374206661696c656400006044820152606490fd5b63042202b560e11b60005260046000fd5b90506020813d602011615e0a575b81615df360209383613144565b81010312611dd057615e049061349c565b38615ac2565b3d9150615de6565b94509450505050600080516020616c56833981519152600080a2565b5060015460405163255709e560e11b81526004810183905292975091955093925060009150849060249082906001600160a01b03165afa80156139c457615ea993600091615edb575b5082600052600b60205260406000205480615eab575b5050600082600080516020616cd68339815191528280a361504d565b565b6000848152600b602052604081205560a090910151615ed491906001600160a01b03168461549b565b3880615e8d565b615ef091503d806000833e6106278183613144565b38615e77565b975050945092509450503d8083853e615f0f8185613144565b83019160e08484031261078757615f258461349c565b94615f326020860161349c565b92615f3f6040870161344a565b9360608701519560808801516001600160401b0381116114d75781615f65918a016134a9565b9460a08901516001600160401b0381116105c95782615f85918b0161350e565b9860c0810151916001600160401b0383116107875750615fa692910161350e565b979094959396979438615a76565b909160a082019182516000905115616c0b57600c54600181019081811161250c576000198203616be757505080600c555b81516001600160a01b0316158015616bd0575b616bc8575b60018060a01b036008541660608301906020825160405192838080936327f4490760e11b8252606060048301526160388d606484019061402c565b90602483015288604483015203915afa90811561076a578391616b96575b50341061218e57600d54600c546000194301438111616b8257604051916020830193845260408301524060608201524260808201524360a082015260a081526160a060c082613144565b51902060208401519095906001600160a01b031680616b60575082602060018060a01b0360035416602460c088015160405194859384926374c1532360e01b845260048401525af18015611ddd57616b29575b5060035460405163b8f3c96360e01b815290602090829060049082906001600160a01b03165afa908115611ddd578491616aef575b506001600160a01b03908116808552600a60209081526040808720805460ff191660011790558782018390526009548882018051925163785f8ee360e01b815292861660048401529416939181602481875afa908115611bef578791616ab5575b5015616a5a575b5050505b835160208086015160408088015195516080890151955160e08a01516002549351630db7242360e21b81526001600160a01b0380871660048301529485169995989785169793969395919490911692816024818c5afa908115610636578a918e918391616a23575b506040519060208201926bffffffffffffffffffffffff198c60601b168452426034840152605483015260748201526074815261623a609482613144565b51902060405160a0818152633b4d69ad60e11b9091525190998161626b8c6001600160a01b038d1660048401613592565b03908360a051915af19485156146e857899c8a966169bc575b60405160208101918252876040820152604081526162a3606082613144565b5190208a549091906001600160a01b0316803b156105fb57604051630bc24f7560e41b81526001600160a01b038b16600482015260248101849052604481018c9052908c908290606490829084905af1801561060757908c916169a7575b505060018060a01b0360045416956040519963589686c160e11b8b528360048c01524260248c015260208b6044818b5afa9a8b1561699c578d9b61695a575b509060049291602060018060a01b0360015416996040519586809263900cf0cf60e01b82525afa93841561694d57908e979695949392918894616916575b5060209b8c97604051996163928a8c613144565b808b52806040519a6163a4818d613144565b818c52601f19810136828e01376040516080526163c2608051613128565b816080515260805101526040608051015260016060608051015260808051015260a0608051015260018060a01b031660c0608051015260018060a01b038c1660e060805101528961010060805101526101206080510152610140608051015261016060805101528961018060805101526101a06080510152896101c06080510152896101e06080510152610200608051015261022060805101526102406080510152610260608051015234610280608051015282604051809263f52aa28360e01b8252876004830152604060248301526164a2604483016080515161356b565b6164b5836080510151606484019061345e565b6164c9604060805101516084840190616c48565b6164dd6060608051015160a4840190616c48565b608080518101516001600160a01b0390811660c4850152815160a00151811660e4850152815160c001518116610104850152815160e0015116610124840152805161010001516101448401528051610120015161016484015280516101400151610184840152805161016001516101a4840152805161018001516101c484015280516101a001516101e484015280516101c0015161020484015280516101e001516102248401525161020001516102a061024484015289906165c2906165a8906102e486019061335c565b60805161022001518582036043190161026487015261335c565b60805161024001518482036043190161028486015280518083529186019190860190835b8181106168e1575050509083809261026060805101516102a483015261028060805101516102c483015203925af18015610f28576168b7575b5060018060a01b0360065416604051616637816130f1565b428152838101914283526040820188815260608301898152608084018a815260a08501908b825260c08601928c845260e08701948d8652863b156168b357938d97969293889461012497938f976040519c8d9b8c9a63c0d6438960e01b8c5260048c01525160248b01525160448a01525160648901525160848801525160a48701525160c48601525160e4850152516101048401525af18015610f285790869161689e575b5050829784993461688c575b60085488516001600160a01b0390811692911690813b1561075e57918891888361672b9560405196879586948593630e5fbe8960e21b85523491600486016140a5565b03925af18015611bef57908791616877575b505060095460208801516004805460405163900cf0cf60e01b81526001600160a01b03948516949093811692889285928391165afa9182156146e8578992616848575b50823b1561075e579060648992836040519586948593627381e560e11b855260048501528c602485015260448401525af18015611bef57908791616833575b5050156168025750506020909301516001600160a01b039384169316917fdab9102861c7483a187584d6371d88316f005af507982ccf95c110879f3ed5a59080a4565b91509193507f8620e7f03a280a3d2aa84bd41ba19524c2d7f1dbfa9d79cb81877b0f8c963f9b9250604051908152a2565b8161683d91613144565b6114d75785386167bf565b9091508581813d8311616870575b6168608183613144565b81010312611dd057519038616780565b503d616856565b8161688191613144565b6114d757853861673d565b858752600b84523460408820556166e8565b816168a891613144565b6107855784386166dc565b8d80fd5b8281813d83116168da575b6168cc8183613144565b81010312611dd0575161661f565b503d6168c2565b93509395909450606060019260408751805183528481015185840152015160408201520194019101928a9188959387956165e6565b975092506020873d602011616945575b8161693360209383613144565b81010312611dd0578d9651923861637e565b3d9150616926565b8e604051903d90823e3d90fd5b909a506020813d602011616994575b8161697660209383613144565b810103126105c5579061698b6004939261344a565b9a909192616340565b3d9150616969565b6040513d8f823e3d90fd5b816169b191613144565b612086578a38616301565b95509b503d808a60a0513e6169d38160a051613144565b60a051019b60608d60a05190031261075a576169f060a05161349c565b602060a05101519d604060a05101516001600160401b0381116105c55790616a1b9160a0510161350e565b509c95616284565b925050506020813d602011616a52575b81616a4060209383613144565b81010312611dd0578c8a9151386161fc565b3d9150616a33565b516001600160a01b0316823b156114d757906044869283604051958694859363ee1fe2ad60e01b8552600485015260248401525af18015611ddd57616aa1575b8080616190565b83616aae91949294613144565b9138616a9a565b90506020813d602011616ae7575b81616ad060209383613144565b810103126118cf57616ae19061349c565b38616189565b3d9150616ac3565b90506020813d602011616b21575b81616b0a60209383613144565b8101031261076657616b1b9061344a565b38616128565b3d9150616afd565b6020813d602011616b58575b81616b4260209383613144565b8101031261076657616b539061344a565b6160f3565b3d9150616b35565b8352600a60205260ff6040842054166161945763306e9f2560e21b8352600483fd5b634e487b7160e01b85526011600452602485fd5b90506020813d602011616bc0575b81616bb160209383613144565b81010312610978575138616056565b3d9150616ba4565b338252615ffd565b50338152600a60205260ff60408220541615615ff8565b60001914616bf757600c55615fe5565b634e487b7160e01b82526011600452602482fd5b6313064eb160e11b8152600490fd5b60ff600080516020616d368339815191525460401c1615616c3757565b631afcd79f60e31b60005260046000fd5b90600f821015613428575256feb9f69df2250e1788b862d0715b1dad98b2a50311c017ebb71f6cd83de656b06dd7d0ee861c0ebf42599b922e8f4ad0cafed951841610157bcd56110f49ced8ee9016d09d72d40fdae2fd8ceac6b6234c7706214fd39c1cd1e609a0528c1993001081f7638e5a02d916250da410b76a0821bdb2b09c574c0f237830409c37d0c80a94f6cf3e473cb72e765b24d1365bfcbef8d31a73215bb27e50df39757f578a02dd7bc7dec4dceedda775e58dd541e08a116c6c53815c0bd028192f7b6268009b779b17422d0df92223018b32b4d1fa46e071723d6817e2486d003becc55f00f0c57e16840df040f15088dc2f81fe391c3923bec73e23a9662efc9c229c6a00237e158222e3e6968b72b9db0d8043aacf074ad9f650f0d1606b4d82ee432c00eeb84a2b70442f0f7263c2cc055eaaba369bc7f3d87dd784346cb4ed6967903542dd93d103ec25ce3ac597cec3f3aa55b91b52ffa90a04f9e14545f4543e7c48a2646970667358221220ff579b58df11601bf2203ed424659cc727cf7f3a0c71ea890b2ebe7ee196b35f64736f6c634300081c0033",
  "linkReferences": {},
  "deployedLinkReferences": {}
}