{
  "_format": "hh-sol-artifact-1",
  "contractName": "MockDeepthought",
  "sourceName": "contracts/test/MockDeepthought.sol",
  "abi": [
    {
      "anonymous": false,
      "inputs": [
        {
          "indexed": false,
          "internalType": "address",
          "name": "from",
          "type": "address"
        },
        {
          "indexed": false,
          "internalType": "uint256",
          "name": "amount",
          "type": "uint256"
        }
      ],
      "name": "Received",
      "type": "event"
    },
    {
      "inputs": [],
      "name": "getBalance",
      "outputs": [
        {
          "internalType": "uint256",
          "name": "",
          "type": "uint256"
        }
      ],
      "stateMutability": "view",
      "type": "function"
    },
    {
      "stateMutability": "payable",
      "type": "receive"
    }
  ],
  "bytecode": "0x6080806040523460135760ab908160198239f35b600080fdfe6080806040526004361015604a575b503615601957600080fd5b7f88a5966d370b9919b20f3e2c13ff65706f196a4e32cc2c12bf57088f8852587460408051338152346020820152a1005b60003560e01c6312065fe003600e57346070576000366003190112607057602090478152f35b600080fdfea26469706673582212203bfac551464ce06ec717ae6611dc60421ffd0d11be7ce5b311ba163843fa95b664736f6c634300081c0033",
  "linkReferences": {},
  "deployedLinkReferences": {}
}