{
  "_format": "hh-sol-artifact-1",
  "contractName": "RevealingPhase",
  "sourceName": "contracts/phases/RevealingPhase.sol",
  "abi": [
    {
      "inputs": [],
      "stateMutability": "nonpayable",
      "type": "constructor"
    },
    {
      "inputs": [
        {
          "internalType": "address",
          "name": "leader",
          "type": "address"
        },
        {
          "internalType": "address",
          "name": "caller",
          "type": "address"
        }
      ],
      "name": "CallerNotLeader",
      "type": "error"
    },
    {
      "inputs": [],
      "name": "InvalidInitialization",
      "type": "error"
    },
    {
      "inputs": [],
      "name": "InvalidValidator",
      "type": "error"
    },
    {
      "inputs": [],
      "name": "InvalidVote",
      "type": "error"
    },
    {
      "inputs": [],
      "name": "NotInitializing",
      "type": "error"
    },
    {
      "inputs": [
        {
          "internalType": "address",
          "name": "owner",
          "type": "address"
        }
      ],
      "name": "OwnableInvalidOwner",
      "type": "error"
    },
    {
      "inputs": [
        {
          "internalType": "address",
          "name": "account",
          "type": "address"
        }
      ],
      "name": "OwnableUnauthorizedAccount",
      "type": "error"
    },
    {
      "inputs": [],
      "name": "ReentrancyGuardReentrantCall",
      "type": "error"
    },
    {
      "inputs": [],
      "name": "Unauthorized",
      "type": "error"
    },
    {
      "inputs": [],
      "name": "VoteAlreadyRevealed",
      "type": "error"
    },
    {
      "anonymous": false,
      "inputs": [
        {
          "indexed": true,
          "internalType": "bytes32",
          "name": "txId",
          "type": "bytes32"
        },
        {
          "indexed": false,
          "internalType": "enum ITransactions.ResultType",
          "name": "majorVoted",
          "type": "uint8"
        },
        {
          "indexed": false,
          "internalType": "enum ITransactions.TransactionStatus",
          "name": "newStatus",
          "type": "uint8"
        }
      ],
      "name": "AllVotesRevealed",
      "type": "event"
    },
    {
      "anonymous": false,
      "inputs": [
        {
          "indexed": true,
          "internalType": "address",
          "name": "caller",
          "type": "address"
        },
        {
          "indexed": false,
          "internalType": "bool",
          "name": "authorized",
          "type": "bool"
        }
      ],
      "name": "AuthorizedCallerUpdated",
      "type": "event"
    },
    {
      "anonymous": false,
      "inputs": [
        {
          "indexed": false,
          "internalType": "uint64",
          "name": "version",
          "type": "uint64"
        }
      ],
      "name": "Initialized",
      "type": "event"
    },
    {
      "anonymous": false,
      "inputs": [
        {
          "indexed": true,
          "internalType": "bytes32",
          "name": "txId",
          "type": "bytes32"
        },
        {
          "indexed": true,
          "internalType": "address",
          "name": "oldLeader",
          "type": "address"
        },
        {
          "indexed": true,
          "internalType": "address",
          "name": "newLeader",
          "type": "address"
        }
      ],
      "name": "LeaderRotatedToProposing",
      "type": "event"
    },
    {
      "anonymous": false,
      "inputs": [
        {
          "indexed": true,
          "internalType": "bytes32",
          "name": "txId",
          "type": "bytes32"
        },
        {
          "indexed": true,
          "internalType": "address",
          "name": "leader",
          "type": "address"
        },
        {
          "indexed": false,
          "internalType": "enum ITransactions.VoteType",
          "name": "txExecutionResult",
          "type": "uint8"
        }
      ],
      "name": "LeaderVoteRevealed",
      "type": "event"
    },
    {
      "anonymous": false,
      "inputs": [
        {
          "indexed": true,
          "internalType": "bytes32",
          "name": "txId",
          "type": "bytes32"
        },
        {
          "indexed": false,
          "internalType": "uint256",
          "name": "round",
          "type": "uint256"
        },
        {
          "indexed": false,
          "internalType": "uint256",
          "name": "leaderIndex",
          "type": "uint256"
        },
        {
          "indexed": false,
          "internalType": "address[]",
          "name": "validators",
          "type": "address[]"
        }
      ],
      "name": "NewRoundCreated",
      "type": "event"
    },
    {
      "anonymous": false,
      "inputs": [
        {
          "indexed": true,
          "internalType": "address",
          "name": "previousOwner",
          "type": "address"
        },
        {
          "indexed": true,
          "internalType": "address",
          "name": "newOwner",
          "type": "address"
        }
      ],
      "name": "OwnershipTransferStarted",
      "type": "event"
    },
    {
      "anonymous": false,
      "inputs": [
        {
          "indexed": true,
          "internalType": "address",
          "name": "previousOwner",
          "type": "address"
        },
        {
          "indexed": true,
          "internalType": "address",
          "name": "newOwner",
          "type": "address"
        }
      ],
      "name": "OwnershipTransferred",
      "type": "event"
    },
    {
      "anonymous": false,
      "inputs": [
        {
          "indexed": true,
          "internalType": "bytes32",
          "name": "txId",
          "type": "bytes32"
        }
      ],
      "name": "TransactionUndetermined",
      "type": "event"
    },
    {
      "anonymous": false,
      "inputs": [
        {
          "indexed": true,
          "internalType": "bytes32",
          "name": "txId",
          "type": "bytes32"
        },
        {
          "indexed": true,
          "internalType": "address",
          "name": "slashedLeader",
          "type": "address"
        },
        {
          "indexed": false,
          "internalType": "uint256",
          "name": "tribunalIndex",
          "type": "uint256"
        }
      ],
      "name": "TribunalAppealTriggered",
      "type": "event"
    },
    {
      "anonymous": false,
      "inputs": [
        {
          "indexed": true,
          "internalType": "bytes32",
          "name": "txId",
          "type": "bytes32"
        },
        {
          "indexed": true,
          "internalType": "address",
          "name": "validator",
          "type": "address"
        },
        {
          "indexed": false,
          "internalType": "uint256",
          "name": "validatorIndex",
          "type": "uint256"
        },
        {
          "indexed": false,
          "internalType": "enum ITransactions.VoteType",
          "name": "voteType",
          "type": "uint8"
        }
      ],
      "name": "VoteRevealed",
      "type": "event"
    },
    {
      "inputs": [],
      "name": "acceptOwnership",
      "outputs": [],
      "stateMutability": "nonpayable",
      "type": "function"
    },
    {
      "inputs": [],
      "name": "addressManager",
      "outputs": [
        {
          "internalType": "contract IAddressManager",
          "name": "",
          "type": "address"
        }
      ],
      "stateMutability": "view",
      "type": "function"
    },
    {
      "inputs": [
        {
          "internalType": "address",
          "name": "",
          "type": "address"
        }
      ],
      "name": "authorizedCallers",
      "outputs": [
        {
          "internalType": "bool",
          "name": "",
          "type": "bool"
        }
      ],
      "stateMutability": "view",
      "type": "function"
    },
    {
      "inputs": [
        {
          "internalType": "address",
          "name": "_addressManager",
          "type": "address"
        }
      ],
      "name": "initialize",
      "outputs": [],
      "stateMutability": "nonpayable",
      "type": "function"
    },
    {
      "inputs": [
        {
          "internalType": "address",
          "name": "caller",
          "type": "address"
        }
      ],
      "name": "isAuthorizedCaller",
      "outputs": [
        {
          "internalType": "bool",
          "name": "",
          "type": "bool"
        }
      ],
      "stateMutability": "view",
      "type": "function"
    },
    {
      "inputs": [],
      "name": "owner",
      "outputs": [
        {
          "internalType": "address",
          "name": "",
          "type": "address"
        }
      ],
      "stateMutability": "view",
      "type": "function"
    },
    {
      "inputs": [],
      "name": "pendingOwner",
      "outputs": [
        {
          "internalType": "address",
          "name": "",
          "type": "address"
        }
      ],
      "stateMutability": "view",
      "type": "function"
    },
    {
      "inputs": [],
      "name": "renounceOwnership",
      "outputs": [],
      "stateMutability": "nonpayable",
      "type": "function"
    },
    {
      "inputs": [
        {
          "components": [
            {
              "internalType": "bytes32",
              "name": "txId",
              "type": "bytes32"
            },
            {
              "internalType": "bytes32",
              "name": "voteHash",
              "type": "bytes32"
            },
            {
              "internalType": "bytes32",
              "name": "resultVoteHash",
              "type": "bytes32"
            },
            {
              "internalType": "enum ITransactions.VoteType",
              "name": "voteType",
              "type": "uint8"
            },
            {
              "internalType": "address",
              "name": "validator",
              "type": "address"
            },
            {
              "internalType": "uint256",
              "name": "validatorIndex",
              "type": "uint256"
            }
          ],
          "internalType": "struct IRevealingPhase.RevealVoteParams",
          "name": "params",
          "type": "tuple"
        }
      ],
      "name": "revealVote",
      "outputs": [
        {
          "components": [
            {
              "internalType": "bool",
              "name": "success",
              "type": "bool"
            },
            {
              "internalType": "bool",
              "name": "isLastVote",
              "type": "bool"
            },
            {
              "internalType": "enum ITransactions.ResultType",
              "name": "majorVoted",
              "type": "uint8"
            },
            {
              "internalType": "address",
              "name": "recipient",
              "type": "address"
            },
            {
              "internalType": "address",
              "name": "txOrigin",
              "type": "address"
            },
            {
              "internalType": "uint256",
              "name": "round",
              "type": "uint256"
            },
            {
              "internalType": "bool",
              "name": "leaderRotated",
              "type": "bool"
            },
            {
              "components": [
                {
                  "internalType": "uint256",
                  "name": "round",
                  "type": "uint256"
                },
                {
                  "internalType": "uint256",
                  "name": "leaderIndex",
                  "type": "uint256"
                },
                {
                  "internalType": "address[]",
                  "name": "roundValidators",
                  "type": "address[]"
                }
              ],
              "internalType": "struct ITransactions.NewRoundData",
              "name": "newRoundData",
              "type": "tuple"
            },
            {
              "internalType": "bytes32[]",
              "name": "txsForRecomputation",
              "type": "bytes32[]"
            },
            {
              "internalType": "address",
              "name": "validator",
              "type": "address"
            },
            {
              "internalType": "uint256",
              "name": "validatorIndex",
              "type": "uint256"
            },
            {
              "internalType": "enum ITransactions.VoteType",
              "name": "voteType",
              "type": "uint8"
            },
            {
              "internalType": "bool",
              "name": "queuedToAccepted",
              "type": "bool"
            },
            {
              "internalType": "bool",
              "name": "queuedToUndetermined",
              "type": "bool"
            },
            {
              "internalType": "bool",
              "name": "hasMessagesOnAcceptance",
              "type": "bool"
            }
          ],
          "internalType": "struct IRevealingPhase.RevealVoteResult",
          "name": "result",
          "type": "tuple"
        }
      ],
      "stateMutability": "nonpayable",
      "type": "function"
    },
    {
      "inputs": [
        {
          "components": [
            {
              "internalType": "bytes32",
              "name": "txId",
              "type": "bytes32"
            },
            {
              "internalType": "bytes32",
              "name": "txExecutionHash",
              "type": "bytes32"
            },
            {
              "internalType": "bytes32",
              "name": "otherExecutionFieldsHash",
              "type": "bytes32"
            },
            {
              "internalType": "bytes32",
              "name": "messagesAndOtherFieldsHash",
              "type": "bytes32"
            },
            {
              "internalType": "uint256",
              "name": "saltAsAValidator",
              "type": "uint256"
            },
            {
              "internalType": "enum ITransactions.VoteType",
              "name": "txExecutionResult",
              "type": "uint8"
            },
            {
              "internalType": "address",
              "name": "validator",
              "type": "address"
            },
            {
              "components": [
                {
                  "internalType": "enum IMessages.MessageType",
                  "name": "messageType",
                  "type": "uint8"
                },
                {
                  "internalType": "address",
                  "name": "recipient",
                  "type": "address"
                },
                {
                  "internalType": "uint256",
                  "name": "value",
                  "type": "uint256"
                },
                {
                  "internalType": "bytes",
                  "name": "data",
                  "type": "bytes"
                },
                {
                  "internalType": "bool",
                  "name": "onAcceptance",
                  "type": "bool"
                },
                {
                  "internalType": "uint256",
                  "name": "saltNonce",
                  "type": "uint256"
                }
              ],
              "internalType": "struct IMessages.SubmittedMessage[]",
              "name": "messages",
              "type": "tuple[]"
            }
          ],
          "internalType": "struct IRevealingPhase.RevealVoteAsLeaderParams",
          "name": "params",
          "type": "tuple"
        }
      ],
      "name": "revealVoteAsLeader",
      "outputs": [
        {
          "components": [
            {
              "internalType": "bool",
              "name": "success",
              "type": "bool"
            },
            {
              "internalType": "address",
              "name": "newLeader",
              "type": "address"
            },
            {
              "internalType": "uint256",
              "name": "leaderIndex",
              "type": "uint256"
            },
            {
              "internalType": "enum ITransactions.TransactionStatus",
              "name": "status",
              "type": "uint8"
            },
            {
              "internalType": "bytes32[]",
              "name": "undeterminedTxIds",
              "type": "bytes32[]"
            },
            {
              "internalType": "bool",
              "name": "wasLeaderRotated",
              "type": "bool"
            },
            {
              "internalType": "address",
              "name": "oldLeader",
              "type": "address"
            },
            {
              "internalType": "address[]",
              "name": "validators",
              "type": "address[]"
            }
          ],
          "internalType": "struct IRevealingPhase.RevealVoteAsLeaderResult",
          "name": "result",
          "type": "tuple"
        }
      ],
      "stateMutability": "nonpayable",
      "type": "function"
    },
    {
      "inputs": [
        {
          "internalType": "address",
          "name": "_addressManager",
          "type": "address"
        }
      ],
      "name": "setAddressManager",
      "outputs": [],
      "stateMutability": "nonpayable",
      "type": "function"
    },
    {
      "inputs": [
        {
          "internalType": "address",
          "name": "caller",
          "type": "address"
        },
        {
          "internalType": "bool",
          "name": "authorized",
          "type": "bool"
        }
      ],
      "name": "setAuthorizedCaller",
      "outputs": [],
      "stateMutability": "nonpayable",
      "type": "function"
    },
    {
      "inputs": [
        {
          "internalType": "address[]",
          "name": "callers",
          "type": "address[]"
        },
        {
          "internalType": "bool",
          "name": "authorized",
          "type": "bool"
        }
      ],
      "name": "setAuthorizedCallers",
      "outputs": [],
      "stateMutability": "nonpayable",
      "type": "function"
    },
    {
      "inputs": [
        {
          "internalType": "address",
          "name": "newOwner",
          "type": "address"
        }
      ],
      "name": "transferOwnership",
      "outputs": [],
      "stateMutability": "nonpayable",
      "type": "function"
    }
  ],
  "bytecode": "0x6080806040523460d2577ff0c57e16840df040f15088dc2f81fe391c3923bec73e23a9662efc9c229c6a005460ff8160401c1660c1576002600160401b03196001600160401b03821601605c575b60405161403c90816100d88239f35b6001600160401b0319166001600160401b039081177ff0c57e16840df040f15088dc2f81fe391c3923bec73e23a9662efc9c229c6a005581527fc7f505b2f371ae2175ee4913f4499e1f2633a7b5936321eed1cdaeb6115181d290602090a13880604d565b63f92ee8a960e01b60005260046000fd5b600080fdfe60e0604052600436101561001257600080fd5b600060c05260c0513560e01c80630652b57a14612358578063090263a7146122575780633ab76e9f1461222c57806341c7a48614610863578063454bbd29146107da578063536fff6c1461079957806359d14b4114610799578063715018a61461071257806379ba5097146106bf5780638da5cb5b14610688578063bfcc72571461034a578063c4d66de814610187578063e30c3978146101505763f2fde38b146100bc57600080fd5b3461014a57602036600319011261014a576100d561239d565b6100dd613bee565b600080516020613fe783398151915280546001600160a01b0319166001600160a01b03928316908117909155600080516020613f878339815191525460c051919216907f38d16b8cac22d99fc7c124b9cd0de2d3fa1faef420bfe791d8c362d765e227009080a360c05180f35b60c05180fd5b3461014a5760c05136600319011261014a57600080516020613fe7833981519152546040516001600160a01b039091168152602090f35b3461014a57602036600319011261014a576101a061239d565b600080516020613fc7833981519152549060ff8260401c1615916001600160401b03811680159081610342575b6001149081610338575b15908161032f575b5061031c5767ffffffffffffffff198116600117600080516020613fc783398151915255826102ef575b50610212613f58565b61021a613f58565b610222613f58565b33156102d65761023133613e8a565b610239613f58565b610241613f58565b6001600080516020613fa78339815191525560c05180546001600160a01b0319166001600160a01b039290921691909117905561027f575b60c05180f35b60ff60401b19600080516020613fc78339815191525416600080516020613fc7833981519152557fc7f505b2f371ae2175ee4913f4499e1f2633a7b5936321eed1cdaeb6115181d2602060405160018152a1610279565b631e4fbdf760e01b60c0515260c051600452602460c051fd5b68ffffffffffffffffff19166801000000000000000117600080516020613fc78339815191525582610209565b63f92ee8a960e01b60c05152600460c051fd5b905015846101df565b303b1591506101d7565b8491506101cd565b3461014a57602036600319011261014a576004356001600160401b03811161014a57610100600319823603011261014a5760405190610388826124c3565b806004013582526024810135602083015260448101356040830152606481013560608301526084810135608083015260a4810135600581101561014a5760a08301526103d660c482016123b3565b60c083015260e4810135906001600160401b03821161014a57013660238201121561014a5760048101356104098161251c565b9161041760405193846124fb565b818352602060048185019360051b830101019036821161014a5760248101925b82841061057157858560e0820152606060e0604051610455816124c3565b60c051815260c051602082015260c051604082015260c0518382015282608082015260c05160a082015260c05160c082015201523360c05152600160205260ff604060c0512054161561055f576104b661055b916104b1613c24565b612daf565b6001600080516020613fa7833981519152556040519182916020835280511515602084015260018060a01b036020820151166040840152604081015160608401526105096060820151608085019061254e565b60e0610526608083015161010060a0870152610120860190612436565b60a0830151151560c0868101919091528301516001600160a01b031682860152910151838203601f19016101008501526123f9565b0390f35b6282b42960e81b60c05152600460c051fd5b83356001600160401b03811161014a5760049083010160c0601f19823603011261014a576040519160c083018381106001600160401b03821117610670576040526020820135600281101561014a5783526105ce604083016123b3565b60208401526060820135604084015260808201356001600160401b03811161014a5760209083010136601f8201121561014a57803561060c81612533565b9161061a60405193846124fb565b818352366020838301011161014a576020829101602084013760c05190820160200152606084015260a082013592831515840361014a5760c06020949385946080840152013560a0820152815201930192610437565b634e487b7160e01b60c051526041600452602460c051fd5b3461014a5760c05136600319011261014a57600080516020613f87833981519152546040516001600160a01b039091168152602090f35b3461014a5760c05136600319011261014a57600080516020613fe783398151915254336001600160a01b03909116036106fb5761027933613e8a565b63118cdaa760e01b60c0515233600452602460c051fd5b3461014a5760c05136600319011261014a5761072c613bee565b600080516020613fe783398151915280546001600160a01b0319908116909155600080516020613f878339815191528054918216905560c051906001600160a01b03167f8be0079c531659141344cd1fd0a4f28419497f9722a3daafe3b4186f6b6457e08280a360c05180f35b3461014a57602036600319011261014a576001600160a01b036107ba61239d565b1660c051526001602052602060ff604060c0512054166040519015158152f35b3461014a57604036600319011261014a576107f361239d565b7fad857fa38c9319cb80848f1ef2f924383b90297eb5d71755738ff037d100faa1602061081e6123c7565b92610827613bee565b60018060a01b0316928360c051526001825261085481604060c051209060ff801983541691151516179055565b6040519015158152a260c05180f35b3461014a5760c036600319011261014a576040516101e081016001600160401b038111828210176106705760405260c051815260c051602082015260c051604082015260c051606082015260c051608082015260c05160a082015260c05160c08201526108ce6125ab565b60e0820152606061010082015260c05161012082015260c05161014082015260c05161016082015260c05161018082015260c0516101a082015260c0516101c08201523360c05152600160205260ff604060c0512054161561055f57610932613c24565b61093a613c60565b610942613d11565b9061094b613d6f565b91610954613dcc565b60405163ba15d63560e01b815260048035908201526001600160a01b0390921693909190602082602481885afa91821561108d5760c051926121f8575b5060405190635af5446960e01b8252600435600483015282602483015260c05182604481895afa91821561108d5760c051926121da575b5060405163255709e560e11b8152600480359082015260c0519095869060249082906001600160a01b03165afa94851561108d5760c051956121b4575b506060850151906001600160a01b0316600f821015610db057600184166121ad5760045b813b1561014a57610a5990610a4f60405194633813abfb60e21b8652600486019061254e565b602484019061254e565b8160448160c051935afa801561108d5761219b575b5060e08101516001600160a01b0390610a8a9060a43590612acc565b51166001600160a01b03610a9c612581565b160361218857610ab360a435610100830151612acc565b516005811015610db05761217557610ad39061012060a435910151612acc565b516024350361216257610ae4612ae0565b50604051610af181612477565b60c08051825280516020928301525154604051631bae711d60e21b8152600481018390526006602482015265566f74696e6760d01b60448201529190829060649082906001600160a01b03165afa90811561108d5760c05191612128575b506005606435101561014a57604051630e6cc39760e41b815260c06004820152948590610b7f60c4830187612b6a565b9284602484015260a4356044840152604435606484015260018060a01b03166084830152610bb260a4830160643561246a565b818060c05194039160c051905af192831561108d5760c0519485948594859283928391829161205d575b5089939291906001600160a01b03610bf2612581565b166101208d015260a4356101408d0152610c126064356101608e01612d12565b610c1a6125ab565b60609b909a90610dc8575b505050505060018852151560208801526006811015610db057604087015260018060a01b0360c0820151166060870152608060018060a01b0391015116608086015260a0850152151560c084015260e08301526101008201526001600080516020613fa783398151915255604051809160208252805115156020830152602081015115156040830152610cc0604082015160608401906123d6565b60018060a01b03606082015116608083015260018060a01b0360808201511660a083015260a081015160c083015260c0810151151560e08301526101c0610d53610d3b604060e08501516101e061010088015280516102008801526020810151610220880152015160606102408701526102608601906123f9565b610100840151858203601f1901610120870152612436565b9160018060a01b0361012082015116610140850152610140810151610160850152610d8861016082015161018086019061246a565b61018081015115156101a08501526101a0810151151582850152015115156101e08301520390f35b634e487b7160e01b60c051526021600452602460c051fd5b939a5091985091610dd76125ab565b50606092610de3613c60565b92610dec613ef8565b90610df5613dcc565b93611ded575b508915611d7e576001600160a01b0316803b1561014a57604051634e8eb8bd60e01b815260c08051600480359084015260026024840152426044840152905191929091839160649183915af1801561108d57611d65575b505b6001600160a01b0383163b1561014a57610e87604051916346f32a5d60e11b83526004356004840152602483019061254e565b60c05181604481836001600160a01b0388165af1801561108d57611d4c575b50895160e060208c01519b01516040519b610ec08d6124a8565b828d5260208d015260408c01526111a0575b5050968096815115610f7f575b5080519081610ef1575b808080610c25565b60406020820151910151916040519160608301918352602083015260606040830152825180915260206080830193019060c0515b818110610f6057505050807f051f6772989c2be26999fe4b2fd3431a9be1b17e06a34926a40073ffb22e490491600435930390a28880610ee9565b82516001600160a01b0316855260209485019490920191600101610f25565b6006841015610db057600184148015611196575b156110cb5760c085015160408051630341e56360e31b815292909183919082908190610fcf9060048035916001600160a01b0316908401612d38565b60c051919003926001600160a01b03165af190811561108d5760c0519161109a575b50610ffd575b89610edf565b60016101808a0152602460206001600160a01b03611019613e2a565b166040519283809263404f7db760e01b825260043560048301525afa90811561108d5760c05191611053575b5015156101c08a0152610ff7565b90506020813d602011611085575b8161106e602093836124fb565b8101031261014a5761107f90612b38565b8a611045565b3d9150611061565b6040513d60c051823e3d90fd5b6110bc915060403d6040116110c4575b6110b481836124fb565b810190612d1e565b90508a610ff1565b503d6110aa565b86156110d8575b50610ff7565b60c08501516040805163910048fb60e01b81529290918391908290819061110f9060048035916001600160a01b0316908401612d38565b60c051919003926001600160a01b03165af190811561108d5760c05191611175575b5061113d575b896110d2565b60016101a08a01526004357fb9f69df2250e1788b862d0715b1dad98b2a50311c017ebb71f6cd83de656b06d60c05160c051a2611137565b61118e915060403d6040116110c4576110b481836124fb565b90508a611131565b5060038414610f93565b909896949299979593915060018060a01b0360c0840151166040518092633b4d69ad60e11b825281806111dd60c051956004359060048401612d38565b60c051919003926001600160a01b03165af1801561108d5760c05160a052611cfb575b5060a0519861120d613d11565b60805260c0515b60a05151811015611cea5761122b8160a051612acc565b5161123b575b6001905b01611214565b60043561124a8260a051612acc565b510361158f5761125c8160a051612acc565b51611265613c60565b61126d613d11565b6001600160a01b0382163b1561014a576040516346f32a5d60e11b8152600481018490526002602482015260c05181604481836001600160a01b0388165af1801561108d57611576575b506001600160a01b0382163b1561014a57604051633703849360e21b81526004810184905260c0805160248301525181604481836001600160a01b0388165af1801561108d5761155d575b5060405163ba15d63560e01b8152600481018490526020816024816001600160a01b0386165afa90811561108d5760c05191611527575b50604051635af5446960e01b8152600481018590526024810182905260c051909290836044816001600160a01b0385165afa92831561108d5760c05193611501575b5060e08301516020909301805190936001600160a01b039161139c91612acc565b519351931692906001600160a01b0381163b1561014a576113d893604051809581948293638858751360e01b845260c051978b60048601612d53565b60c051919003926001600160a01b03165af1801561108d576114e8575b506001600160a01b03611406613ef8565b16803b1561014a57604051634e8eb8bd60e01b815260c080516004830186905260026024840152426044840152905191929091839160649183915af1801561108d576114cf575b506001600160a01b0381163b1561014a5760405163343be44b60e01b8152600481019290925243602483015260c0805160448401528051606484015251908290608490829084906001600160a01b03165af1801561108d576114b6575b506001905b9050611231565b60c0516114c2916124fb565b60c05161014a578b6114aa565b60c0516114db916124fb565b60c05161014a578d61144d565b60c0516114f4916124fb565b60c05161014a578d6113f5565b6115209193503d8060c051833e61151881836124fb565b8101906127ec565b913861137b565b905060203d8111611556575b61153d81836124fb565b602082600092810103126115535750518f611339565b80fd5b503d611533565b60c051611569916124fb565b60c05161014a578e611302565b60c051611582916124fb565b60c05161014a578e6112b7565b89602061159e8360a051612acc565b516040516302ef145760e51b8152600481019190915291829060249082906001600160a01b03165afa90811561108d5760c05191611cb0575b50600f811015610db057600114611ca8576115f48160a051612acc565b516040519063f66530b960e01b8252600482015260208160248160018060a01b03608051165afa90811561108d5760c05191611c75575b5015611a9e5761163d8160a051612acc565b516080516001600160a01b03163b1561014a57604051636b9b064d60e11b8152600481019190915260c0516080518290602490829084906001600160a01b03165af1801561108d57611a85575b506116978160a051612acc565b516116a0613c60565b6116a8613d11565b6001600160a01b0382163b1561014a576040516346f32a5d60e11b8152600481018490526002602482015260c05181604481836001600160a01b0388165af1801561108d57611a6c575b506001600160a01b0382163b1561014a57604051633703849360e21b81526004810184905260c0805160248301525181604481836001600160a01b0388165af1801561108d57611a53575b5060405163ba15d63560e01b8152600481018490526020816024816001600160a01b0386165afa90811561108d5760c05191611a20575b50604051635af5446960e01b8152600481018590526024810182905260c051909290836044816001600160a01b0385165afa92831561108d5760c05193611a02575b5060e08301516020909301805190936001600160a01b03916117d791612acc565b519351931692906001600160a01b0381163b1561014a5761181393604051809581948293638858751360e01b845260c051978b60048601612d53565b60c051919003926001600160a01b03165af1801561108d576119e9575b506001600160a01b0381163b1561014a5760405163647cca5560e01b8152600481018390526001602482015260c05181604481836001600160a01b0387165af1801561108d576119d0575b5060405163fbc6da7560e01b8152600481018390526020816024816001600160a01b0386165afa90811561108d5760c05191611997575b506001600160a01b0382163b1561014a576040519063b944e6f760e01b825281806118e48660c0519460048401612d38565b038160c05160018060a01b0387165af1801561108d5761197e575b506001600160a01b0381163b1561014a5760405163343be44b60e01b8152600481019290925243602483015260c0805160448401528051606484015251908290608490829084906001600160a01b03165af1801561108d57611965575b506001906114af565b60c051611971916124fb565b60c05161014a578b61195c565b60c05161198a916124fb565b60c05161014a578d6118ff565b90506020813d82116119c8575b816119b1602093836124fb565b8101031261014a576119c2906125cc565b8e6118b2565b3d91506119a4565b60c0516119dc916124fb565b60c05161014a578d61187b565b60c0516119f5916124fb565b60c05161014a578d611830565b611a199193503d8060c051833e61151881836124fb565b91386117b6565b905060203d8111611a4c575b611a3681836124fb565b602082600092810103126115535750518f611774565b503d611a2c565b60c051611a5f916124fb565b60c05161014a578e61173d565b60c051611a78916124fb565b60c05161014a578e6116f2565b60c051611a91916124fb565b60c05161014a578b61168a565b611aaa8160a051612acc565b51611ab3613c60565b90611abc613ef8565b91611ac5613dcc565b60405163fbc6da7560e01b815260048101849052906020826024816001600160a01b0387165afa801561108d57849260c05191611c31575b5091604091611b2193835180958194829363910048fb60e01b845260048401612d38565b60c051919003926001600160a01b03165af190811561108d5760c05191611c11575b50611ba9575b506001600160a01b0382163b1561014a57604051634e8eb8bd60e01b815260c0805160048301939093526005602483015242604483015251909283916064918391906001600160a01b03165af1801561108d5761196557506001906114af565b6001600160a01b0381163b1561014a576040516346f32a5d60e11b8152600481018390526006602482015260c05190918290604490829084906001600160a01b03165af1801561108d5715611b495760c051611c04916124fb565b60c05161014a578d611b49565b611c29915060403d81116110c4576110b481836124fb565b90508f611b43565b9250506020823d8211611c6d575b81611c4c602093836124fb565b8101031261014a5783604091611c64611b21946125cc565b91935091611afd565b3d9150611c3f565b905060203d8111611ca1575b611c8b81836124fb565b602082600092810103126115535750518c61162b565b503d611c81565b600190611235565b90506020813d8211611ce2575b81611cca602093836124fb565b8101031261014a5751600f81101561014a578c6115d7565b3d9150611cbd565b509193959750919395978980610ed2565b3d908160c051823e611d0d82826124fb565b606081838101031261014a57611d2281612b38565b5060408101516001600160401b03811161014a57611d4392820191016125e0565b60a05289611200565b60c051611d58916124fb565b60c05161014a578b610ea6565b60c051611d71916124fb565b60c05161014a578c610e52565b6001600160a01b0316803b1561014a57604051634e8eb8bd60e01b815260c08051600480359084015260056024840152426044840152905191929091839160649183915af1801561108d57611dd4575b50610e54565b60c051611de0916124fb565b60c05161014a578c611dce565b60c05154604051631bae711d60e21b8152602060048201819052600e60248301526d151c9a589d5b985b105c1c19585b60921b60448301529092916001600160a01b03169083606481845afa92831561108d5760c0519361201e575b5091602060649360405194858092631bae711d60e21b825284600483015260076024830152665374616b696e6760c81b60448301525afa801561108d578c9360c05191611fe2575b5060018060a01b031660206101608d019260a4845160018060a01b038751169284880151604051998a9586946326315d3160e21b86526004356004870152602486015260448501526064840152608483015260c0519060018060a01b03165af193841561108d5760c05194611fa9575b5060018060a01b038351169151813b1561014a5760405192630a959f2360e31b84526004840152602483015260043560448301528160648160c0519360c051905af1801561108d57611f90575b50516040519182526001600160a01b031690600435907f3a3e3bfd7e731f8bae8ff57c2df667edda5ada883afb3011ef0a3a2e2a8c4bff90602090a38d610dfb565b60c051611f9c916124fb565b60c05161014a578f611f4e565b9093506020813d602011611fda575b81611fc5602093836124fb565b81010312611fd557519238611f01565b600080fd5b3d9150611fb8565b9350506020833d602011612016575b81611ffe602093836124fb565b8101031261014a576120108c936125cc565b38611e91565b3d9150611ff1565b92506020833d602011612055575b81612039602093836124fb565b8101031261014a57602061204e6064946125cc565b9350611e49565b3d915061202c565b995050509450505092503d8060c051863e61207881866124fb565b84019284840394610100861261014a57805193600685101561014a576120a060208301612b38565b916120ad60408201612b38565b916120ba60608301612b38565b96608083015198600f8a101561014a5760a08401516001600160401b03811161014a576040916120eb91860161263d565b9a60bf19011261014a5760e06040519361210485612477565b61211060c082016125cc565b85520151602084015293989697929692909189610bdc565b90506020813d60201161215a575b81612143602093836124fb565b8101031261014a57612154906125cc565b86610b4f565b3d9150612136565b636aee863360e11b60c05152600460c051fd5b631923561b60e11b60c05152600460c051fd5b631a0a9b9f60e21b60c05152600460c051fd5b60c0516121a7916124fb565b86610a6e565b6009610a29565b6121d39195503d8060c051833e6121cb81836124fb565b810190612879565b9387610a05565b6121f19192503d8060c051833e61151881836124fb565b90876109c8565b9091506020813d602011612224575b81612214602093836124fb565b8101031261014a57519086610991565b3d9150612207565b3461014a5760c05136600319011261014a5760c051546040516001600160a01b039091168152602090f35b3461014a57604036600319011261014a576004356001600160401b03811161014a573660238201121561014a5780600401356001600160401b03811161014a576024820191602436918360051b01011161014a576122b36123c7565b6122bb613bee565b60c05190801515915b8381106122d15760c05180f35b6001906001600160a01b036122ef6122ea83888a61255b565b612597565b1660c051528160205261231383604060c051209060ff801983541691151516179055565b818060a01b036123276122ea83888a61255b565b167fad857fa38c9319cb80848f1ef2f924383b90297eb5d71755738ff037d100faa16020604051878152a2016122c4565b3461014a57602036600319011261014a5761237161239d565b612379613bee565b60c05180546001600160a01b0319166001600160a01b039290921691909117815580f35b600435906001600160a01b0382168203611fd557565b35906001600160a01b0382168203611fd557565b602435908115158203611fd557565b9060068210156123e35752565b634e487b7160e01b600052602160045260246000fd5b906020808351928381520192019060005b8181106124175750505090565b82516001600160a01b031684526020938401939092019160010161240a565b906020808351928381520192019060005b8181106124545750505090565b8251845260209384019390920191600101612447565b9060058210156123e35752565b604081019081106001600160401b0382111761249257604052565b634e487b7160e01b600052604160045260246000fd5b606081019081106001600160401b0382111761249257604052565b61010081019081106001600160401b0382111761249257604052565b61016081019081106001600160401b0382111761249257604052565b90601f801991011681019081106001600160401b0382111761249257604052565b6001600160401b0381116124925760051b60200190565b6001600160401b03811161249257601f01601f191660200190565b90600f8210156123e35752565b919081101561256b5760051b0190565b634e487b7160e01b600052603260045260246000fd5b6084356001600160a01b0381168103611fd55790565b356001600160a01b0381168103611fd55790565b604051906125b8826124a8565b606060408360008152600060208201520152565b51906001600160a01b0382168203611fd557565b9080601f83011215611fd55781516125f78161251c565b9261260560405194856124fb565b81845260208085019260051b820101928311611fd557602001905b82821061262d5750505090565b8151815260209182019101612620565b919061016083820312611fd55760405190612657826124df565b8193805183526020810151602084015260408101516040840152606081015160608401526080810151608084015260a081015160a084015260c08101516006811015611fd55760c084015260e08101516001600160401b038111611fd557810182601f82011215611fd5578051906126ce8261251c565b916126dc60405193846124fb565b80835260208084019160051b83010191858311611fd557602001905b8282106127d45750505060e08401526101008101516001600160401b038111611fd557810182601f82011215611fd55780516127338161251c565b9161274160405193846124fb565b81835260208084019260051b82010190858211611fd557602001915b8183106127bb575050506101008401526101208101516001600160401b038111611fd5578261278d9183016125e0565b610120840152610140810151916001600160401b038311611fd557610140926127b692016125e0565b910152565b82516005811015611fd55781526020928301920161275d565b602080916127e1846125cc565b8152019101906126f8565b90602082820312611fd55781516001600160401b038111611fd557612811920161263d565b90565b60005b8381106128275750506000910152565b8181015183820152602001612817565b81601f82011215611fd557805161284d81612533565b9261285b60405194856124fb565b81845260208284010111611fd5576128119160208085019101612814565b602081830312611fd5578051906001600160401b038211611fd557016102e081830312611fd557604051916102e083018381106001600160401b038211176124925760405281516006811015611fd557835260208201516005811015611fd55760208401526040820151600f811015611fd55760408401526060820151600f811015611fd5576060840152612910608083016125cc565b608084015261292160a083016125cc565b60a084015261293260c083016125cc565b60c084015261294360e083016125cc565b60e08401526101008201516101008401526101208201516101208401526101408201516101408401526101608201516101608401526101808201516101808401526101a08201516101a08401526101c08201516101c08401526101e08201516101e08401526102008201516001600160401b038111611fd557816129c8918401612837565b6102008401526102208201516001600160401b038111611fd557816129ee918401612837565b6102208401526102408201516001600160401b038111611fd557820181601f82011215611fd557805190612a218261251c565b92612a2f60405194856124fb565b82845260206060818601940283010191818311611fd557602001925b828410612a905750505050906102c0916102408401526102608101516102608401526102808101516102808401526102a08101516102a084015201516102c082015290565b606084830312611fd5576020606091604051612aab816124a8565b86518152828701518382015260408701516040820152815201930192612a4b565b805182101561256b5760209160051b010190565b60405190612aed826124df565b60606101408360008152600060208201526000604082015260008382015260006080820152600060a0820152600060c08201528260e082015282610100820152826101208201520152565b51908115158203611fd557565b90602091612b5e81518092818552858086019101612814565b601f01601f1916010190565b90612b768183516123d6565b612b886020830151602083019061246a565b612b9a6040830151604083019061254e565b612bac6060830151606083019061254e565b60018060a01b03608083015116608082015260018060a01b0360a08301511660a082015260018060a01b0360c08301511660c082015260018060a01b0360e08301511660e08201526101008201516101008201526101208201516101208201526101408201516101408201526101608201516101608201526101808201516101808201526101a08201516101a08201526101c08201516101c08201526101e08201516101e0820152612c88612c746102008401516102e06102008501526102e0840190612b45565b610220840151838203610220850152612b45565b91610240810151928281036102408401526020808551928381520194019060005b818110612ce4575050506102c081610260829301516102608501526102808101516102808501526102a08101516102a0850152015191015290565b9091946020606060019260408951805183528481015185840152015160408201520196019101919091612ca9565b60058210156123e35752565b9190826040910312611fd557612811602083519301612b38565b6001600160a01b039091168152602081019190915260400190565b90949360019360809360a084019784526020840152848060a01b0316604083015260608201520152565b90612d878261251c565b612d9460405191826124fb565b8281528092612da5601f199161251c565b0190602036910137565b612db7613c60565b90612dc0613ef8565b90612dc9613d11565b90612dd2613d6f565b815160405163255709e560e11b815260048101919091529094909360009384866024816001600160a01b0387165afa95861561359c578596613bd2575b506060860151600f811015613bbe576001600160a01b0388163b1561377d57604051633813abfb60e21b815290612e4a90600483019061254e565b600e602482015285816044816001600160a01b038c165afa8015613b9f57613baa575b50612e76612ae0565b5060018060a01b031694835196604051976384c2483160e01b8952600489015285886024818a5afa8015613b9f5786988791613b55575b5060e081015160208201516001600160a01b0391612ecb9190612acc565b511660208201519960e08301519960018060a01b0360c08a0151166040519063023770b560e01b82526004820152836024820152606060448201528a8180612f16606482018b612b6a565b0381836001600160a01b038d165af18015613b4a578b9291839182918291613ab6575b506137b4575061362c5750505060c08701516001600160a01b0316908181036136175750508551926020870151604088015194606089015160808a01519060a08b015160058110156136035760018060a01b0360c08d015116946040519460e086018681106001600160401b038211176135ee5790612fdc9392916040528652602086015260408501998a52606085019283526080850193845260a08501612d12565b60c083019384526001600160a01b0387163b156135ea57604051630a11fe0d60e31b815283516004820152602084015160248201529751604489015251606488015251608487015260a001518994869490939092613064926130429060a488019061246a565b516001600160a01b031660c486015261012060e4860152610124850190612b6a565b60031984820301610104850152815181526020820151602082015260408201516040820152606082015160608201526080820151608082015260a082015160a08201526130b960c083015160c08301906123d6565b6130d460e083015161016060e08401526101608301906123f9565b6101008301519082810361010084015260208083519283815201920190875b8181106135bc57505050828593926101406131206131329461012088970151848203610120860152612436565b92015190610140818403910152612436565b03916001600160a01b03165afa801561359c579085916135a7575b505082516001600160a01b0383163b156134fb576040516346f32a5d60e11b815260048082019290925260248101919091528481604481836001600160a01b0388165af1801561359c57908591613583575b505082516001600160a01b0382163b156134fb57604051634e8eb8bd60e01b81526004810191909152600760248201524260448201529084908290606490829084906001600160a01b03165af180156135635790849161356e575b505060a082015160058110156133a657606083015160405190602082019260f81b83526021820152602181526132316041826124fb565b5190208251906001600160a01b0383163b156134fb57604051632ce88ccd60e11b8152600481019290925260248201528381604481836001600160a01b0387165af180156135635790849161354a575b5050815160a0830151916005831015613536576001600160a01b0381163b156134fb579160448592836132cf956040519687958694633703849360e21b86526004860152602485019061246a565b6001600160a01b03165af1801561345857908391613521575b505060a0810151600581101561350d5760021415806134ff575b6133ba575b805160a0600180821b0360c08401511692015160058110156133a65760207ffb7abe8d68d228f05b4f539f74f045a5c563aaf9a3c3d34d66ff8fb9ea37872791613354604051809261246a565ba36040516133636020826124fb565b818152600036813760405193613378856124c3565b6001855282602086015260408501526004606085015260808401528060a084015260c083015260e082015290565b634e487b7160e01b84526021600452602484fd5b6001600160a01b036133ca613e2a565b1681519060e0830151813b156134fb57918491604051938492632e62671f60e21b84526044840190600485015260406024850152815180915260648401602060648360051b870101930191865b81811061346357505050508383809203925af180156134585790839161343f575b5050613307565b81613449916124fb565b613454578138613438565b5080fd5b6040513d85823e3d90fd5b9295509290939550606319878203018452845190815160028110156134e7576001928260209392849352848060a01b038383015116838201526040820151604082015260a0806134c2606085015160c0606086015260c0850190612b45565b9360808101511515608085015201519101529601940191019086949289969492613417565b634e487b7160e01b8b52602160045260248bfd5b8480fd5b5060e0810151511515613302565b634e487b7160e01b83526021600452602483fd5b8161352b916124fb565b6134545781386132e8565b634e487b7160e01b85526021600452602485fd5b81613554916124fb565b61355f578238613281565b8280fd5b6040513d86823e3d90fd5b81613578916124fb565b61355f5782386131fa565b8161358d916124fb565b61359857833861319f565b8380fd5b6040513d87823e3d90fd5b816135b1916124fb565b61359857833861314d565b926020919496985082959750806135d783926001955161246a565b0194019101908b969492889694926130f3565b8b80fd5b50634e487b7160e01b8f52604160045260248ffd5b634e487b7160e01b8d52602160045260248dfd5b631aac64ed60e11b8952600452602452604487fd5b9450955096935096985093825160018060a01b0382163b1561378c576040516346f32a5d60e11b81526004810191909152600260248201529089908290604490829084906001600160a01b03165af180156137a957908991613790575b5050815194602085015195823b1561378c579184918a80946136c16040519a8b9687958694638858751360e01b865260048601612d53565b03925af1801561378157908786949392613760575b50516001600160a01b03909116935060209284917fdc99cfbe28791090dedf7a8d6b75ed699ca8343725f901ad4bf7874b6c5c63e48980a401516040519161371f6020846124fb565b858352600036813760405195613734876124c3565b865260208601526040850152600260608501526080840152600160a084015260c083015260e082015290565b8092945061376f9193956124fb565b61377d5783918391876136d6565b8580fd5b6040513d89823e3d90fd5b8980fd5b8161379a916124fb565b6137a5578738613689565b8780fd5b6040513d8b823e3d90fd5b9c5050505050505050505050509291506137cc613c60565b6137d4613dcc565b6137de8351612d7d565b859290916001600160a01b039182169116835b8551811015613a28576138048187612acc565b516040519063fbc6da7560e01b82526004820152602081602481875afa9081156137a95789916139e5575b50604061385c91613840848a612acc565b51825163910048fb60e01b815293849283929060048401612d38565b03818c875af19081156137a95789916139c5575b5061387e575b6001016137f1565b938761388a8688612acc565b51843b1561345457604051906346f32a5d60e11b8252600482015260066024820152818160448183895af180156139a5576139b0575b506001600160a01b036138d1613ef8565b166138dc8789612acc565b5190803b1561355f57604051634e8eb8bd60e01b815260048101929092526005602483015242604483015282908290606490829084905af180156139a557613990575b505061392b8587612acc565b516139368286612acc565b52600019811461397c576001809101946139508188612acc565b517fb9f69df2250e1788b862d0715b1dad98b2a50311c017ebb71f6cd83de656b06d8a80a29050613876565b634e487b7160e01b88526011600452602488fd5b8161399a916124fb565b6137a557873861391f565b6040513d84823e3d90fd5b816139ba916124fb565b6137a55787386138c0565b6139dd915060403d81116110c4576110b481836124fb565b905038613870565b90506020813d8211613a20575b816139ff602093836124fb565b81010312613a1c576040613a1561385c926125cc565b915061382f565b8880fd5b3d91506139f2565b50505092939150613a3881612d7d565b92825b828110613a975750505060405190613a546020836124fb565b808252600036813760405192613a69846124c3565b8184528160208501528160408501526006606085015260808401528060a084015260c083015260e082015290565b80613aa460019284612acc565b51613aaf8288612acc565b5201613a3b565b94505050503d808c843e613aca81846124fb565b820160a0838203126135ea57613adf83612b38565b90613aec60208501612b38565b91613af9604086016125cc565b9160608601516001600160401b038111613b465781613b199188016125e0565b956080810151906001600160401b038211613b4457613b399291016125e0565b509190939038612f39565b505b8f80fd5b6040513d8d823e3d90fd5b9850503d80878a3e613b67818a6124fb565b8801604089820312613b9b578851986020810151906001600160401b038211613a1c57613b9592910161263d565b38612ead565b8680fd5b6040513d88823e3d90fd5b85613bb7919692966124fb565b9338612e6d565b634e487b7160e01b86526021600452602486fd5b613be79196503d8087833e6121cb81836124fb565b9438612e0f565b600080516020613f87833981519152546001600160a01b03163303613c0f57565b63118cdaa760e01b6000523360045260246000fd5b6002600080516020613fa78339815191525414613c4f576002600080516020613fa783398151915255565b633ee5aeb560e01b60005260046000fd5b600054604051631bae711d60e21b815260206004820181905260126024830152712a3930b739b0b1ba34b7b726b0b730b3b2b960711b60448301529091829060649082906001600160a01b03165afa908115613d0557600091613ccb575b506001600160a01b031690565b90506020813d602011613cfd575b81613ce6602093836124fb565b81010312611fd557613cf7906125cc565b38613cbe565b3d9150613cd9565b6040513d6000823e3d90fd5b600054604051631bae711d60e21b81526020600482018190526006602483015265526f756e647360d01b60448301529091829060649082906001600160a01b03165afa908115613d0557600091613ccb57506001600160a01b031690565b600054604051631bae711d60e21b815260206004820181905260056024830152645574696c7360d81b60448301529091829060649082906001600160a01b03165afa908115613d0557600091613ccb57506001600160a01b031690565b600054604051631bae711d60e21b8152602060048201819052600660248301526551756575657360d01b60448301529091829060649082906001600160a01b03165afa908115613d0557600091613ccb57506001600160a01b031690565b600054604051631bae711d60e21b815260206004820181905260086024830152674d6573736167657360c01b60448301529091829060649082906001600160a01b03165afa908115613d0557600091613ccb57506001600160a01b031690565b600080516020613fe783398151915280546001600160a01b0319908116909155600080516020613f8783398151915280549182166001600160a01b0393841690811790915591167f8be0079c531659141344cd1fd0a4f28419497f9722a3daafe3b4186f6b6457e0600080a3565b600054604051631bae711d60e21b8152602060048201819052600860248301526749646c656e65737360c01b60448301529091829060649082906001600160a01b03165afa908115613d0557600091613ccb57506001600160a01b031690565b60ff600080516020613fc78339815191525460401c1615613f7557565b631afcd79f60e31b60005260046000fdfe9016d09d72d40fdae2fd8ceac6b6234c7706214fd39c1cd1e609a0528c1993009b779b17422d0df92223018b32b4d1fa46e071723d6817e2486d003becc55f00f0c57e16840df040f15088dc2f81fe391c3923bec73e23a9662efc9c229c6a00237e158222e3e6968b72b9db0d8043aacf074ad9f650f0d1606b4d82ee432c00a2646970667358221220492d260791fe43485a21671a1a9d966d7f00c44a16de5f7592c0974f3271b0b364736f6c634300081c0033",
  "linkReferences": {},
  "deployedLinkReferences": {}
}