{
  "_format": "hh-sol-artifact-1",
  "contractName": "GhostFactory",
  "sourceName": "contracts/ghost_contracts/GhostFactory.sol",
  "abi": [
    {
      "inputs": [],
      "name": "AccessControlBadConfirmation",
      "type": "error"
    },
    {
      "inputs": [
        {
          "internalType": "address",
          "name": "account",
          "type": "address"
        },
        {
          "internalType": "bytes32",
          "name": "neededRole",
          "type": "bytes32"
        }
      ],
      "name": "AccessControlUnauthorizedAccount",
      "type": "error"
    },
    {
      "inputs": [],
      "name": "CallerNotConsensus",
      "type": "error"
    },
    {
      "inputs": [],
      "name": "InvalidInitialization",
      "type": "error"
    },
    {
      "inputs": [],
      "name": "NotInitializing",
      "type": "error"
    },
    {
      "inputs": [
        {
          "internalType": "address",
          "name": "owner",
          "type": "address"
        }
      ],
      "name": "OwnableInvalidOwner",
      "type": "error"
    },
    {
      "inputs": [
        {
          "internalType": "address",
          "name": "account",
          "type": "address"
        }
      ],
      "name": "OwnableUnauthorizedAccount",
      "type": "error"
    },
    {
      "inputs": [],
      "name": "ReentrancyGuardReentrantCall",
      "type": "error"
    },
    {
      "anonymous": false,
      "inputs": [
        {
          "indexed": true,
          "internalType": "bytes32",
          "name": "bytecodeHash",
          "type": "bytes32"
        }
      ],
      "name": "BeaconProxyBytecodeHashSet",
      "type": "event"
    },
    {
      "anonymous": false,
      "inputs": [
        {
          "indexed": true,
          "internalType": "address",
          "name": "implementation",
          "type": "address"
        }
      ],
      "name": "BeaconUpgraded",
      "type": "event"
    },
    {
      "anonymous": false,
      "inputs": [
        {
          "indexed": true,
          "internalType": "address",
          "name": "genConsensus",
          "type": "address"
        }
      ],
      "name": "GenConsensusSet",
      "type": "event"
    },
    {
      "anonymous": false,
      "inputs": [
        {
          "indexed": false,
          "internalType": "address",
          "name": "ghostAddress",
          "type": "address"
        }
      ],
      "name": "GhostCreated",
      "type": "event"
    },
    {
      "anonymous": false,
      "inputs": [
        {
          "indexed": true,
          "internalType": "address",
          "name": "ghostManager",
          "type": "address"
        }
      ],
      "name": "GhostManagerSet",
      "type": "event"
    },
    {
      "anonymous": false,
      "inputs": [
        {
          "indexed": false,
          "internalType": "uint64",
          "name": "version",
          "type": "uint64"
        }
      ],
      "name": "Initialized",
      "type": "event"
    },
    {
      "anonymous": false,
      "inputs": [
        {
          "indexed": true,
          "internalType": "address",
          "name": "previousOwner",
          "type": "address"
        },
        {
          "indexed": true,
          "internalType": "address",
          "name": "newOwner",
          "type": "address"
        }
      ],
      "name": "OwnershipTransferStarted",
      "type": "event"
    },
    {
      "anonymous": false,
      "inputs": [
        {
          "indexed": true,
          "internalType": "address",
          "name": "previousOwner",
          "type": "address"
        },
        {
          "indexed": true,
          "internalType": "address",
          "name": "newOwner",
          "type": "address"
        }
      ],
      "name": "OwnershipTransferred",
      "type": "event"
    },
    {
      "anonymous": false,
      "inputs": [
        {
          "indexed": true,
          "internalType": "bytes32",
          "name": "role",
          "type": "bytes32"
        },
        {
          "indexed": true,
          "internalType": "bytes32",
          "name": "previousAdminRole",
          "type": "bytes32"
        },
        {
          "indexed": true,
          "internalType": "bytes32",
          "name": "newAdminRole",
          "type": "bytes32"
        }
      ],
      "name": "RoleAdminChanged",
      "type": "event"
    },
    {
      "anonymous": false,
      "inputs": [
        {
          "indexed": true,
          "internalType": "bytes32",
          "name": "role",
          "type": "bytes32"
        },
        {
          "indexed": true,
          "internalType": "address",
          "name": "account",
          "type": "address"
        },
        {
          "indexed": true,
          "internalType": "address",
          "name": "sender",
          "type": "address"
        }
      ],
      "name": "RoleGranted",
      "type": "event"
    },
    {
      "anonymous": false,
      "inputs": [
        {
          "indexed": true,
          "internalType": "bytes32",
          "name": "role",
          "type": "bytes32"
        },
        {
          "indexed": true,
          "internalType": "address",
          "name": "account",
          "type": "address"
        },
        {
          "indexed": true,
          "internalType": "address",
          "name": "sender",
          "type": "address"
        }
      ],
      "name": "RoleRevoked",
      "type": "event"
    },
    {
      "anonymous": false,
      "inputs": [
        {
          "indexed": true,
          "internalType": "enum GhostFactory.VirtualMachineType",
          "name": "virtualMachine",
          "type": "uint8"
        }
      ],
      "name": "VirtualMachineSet",
      "type": "event"
    },
    {
      "inputs": [],
      "name": "BEACON_PROXY_CREATION_CODE",
      "outputs": [
        {
          "internalType": "bytes",
          "name": "",
          "type": "bytes"
        }
      ],
      "stateMutability": "view",
      "type": "function"
    },
    {
      "inputs": [],
      "name": "DEFAULT_ADMIN_ROLE",
      "outputs": [
        {
          "internalType": "bytes32",
          "name": "",
          "type": "bytes32"
        }
      ],
      "stateMutability": "view",
      "type": "function"
    },
    {
      "inputs": [],
      "name": "INITIALIZE_SELECTOR",
      "outputs": [
        {
          "internalType": "bytes4",
          "name": "",
          "type": "bytes4"
        }
      ],
      "stateMutability": "view",
      "type": "function"
    },
    {
      "inputs": [],
      "name": "acceptOwnership",
      "outputs": [],
      "stateMutability": "nonpayable",
      "type": "function"
    },
    {
      "inputs": [],
      "name": "bytecodeEVM",
      "outputs": [
        {
          "internalType": "bytes32",
          "name": "",
          "type": "bytes32"
        }
      ],
      "stateMutability": "view",
      "type": "function"
    },
    {
      "inputs": [],
      "name": "bytecodeZKSync",
      "outputs": [
        {
          "internalType": "bytes32",
          "name": "",
          "type": "bytes32"
        }
      ],
      "stateMutability": "view",
      "type": "function"
    },
    {
      "inputs": [
        {
          "internalType": "uint256",
          "name": "_saltNonce",
          "type": "uint256"
        }
      ],
      "name": "createGhost",
      "outputs": [
        {
          "internalType": "address",
          "name": "",
          "type": "address"
        }
      ],
      "stateMutability": "nonpayable",
      "type": "function"
    },
    {
      "inputs": [],
      "name": "deployNewBeaconProxy",
      "outputs": [],
      "stateMutability": "nonpayable",
      "type": "function"
    },
    {
      "inputs": [],
      "name": "genConsensus",
      "outputs": [
        {
          "internalType": "address",
          "name": "",
          "type": "address"
        }
      ],
      "stateMutability": "view",
      "type": "function"
    },
    {
      "inputs": [
        {
          "internalType": "bytes32",
          "name": "role",
          "type": "bytes32"
        }
      ],
      "name": "getRoleAdmin",
      "outputs": [
        {
          "internalType": "bytes32",
          "name": "",
          "type": "bytes32"
        }
      ],
      "stateMutability": "view",
      "type": "function"
    },
    {
      "inputs": [],
      "name": "ghostBeaconProxy",
      "outputs": [
        {
          "internalType": "address",
          "name": "",
          "type": "address"
        }
      ],
      "stateMutability": "view",
      "type": "function"
    },
    {
      "inputs": [],
      "name": "ghostBlueprint",
      "outputs": [
        {
          "internalType": "address",
          "name": "",
          "type": "address"
        }
      ],
      "stateMutability": "view",
      "type": "function"
    },
    {
      "inputs": [
        {
          "internalType": "address",
          "name": "",
          "type": "address"
        }
      ],
      "name": "ghostContracts",
      "outputs": [
        {
          "internalType": "bool",
          "name": "",
          "type": "bool"
        }
      ],
      "stateMutability": "view",
      "type": "function"
    },
    {
      "inputs": [],
      "name": "ghostManager",
      "outputs": [
        {
          "internalType": "address",
          "name": "",
          "type": "address"
        }
      ],
      "stateMutability": "view",
      "type": "function"
    },
    {
      "inputs": [
        {
          "internalType": "bytes32",
          "name": "role",
          "type": "bytes32"
        },
        {
          "internalType": "address",
          "name": "account",
          "type": "address"
        }
      ],
      "name": "grantRole",
      "outputs": [],
      "stateMutability": "nonpayable",
      "type": "function"
    },
    {
      "inputs": [
        {
          "internalType": "bytes32",
          "name": "role",
          "type": "bytes32"
        },
        {
          "internalType": "address",
          "name": "account",
          "type": "address"
        }
      ],
      "name": "hasRole",
      "outputs": [
        {
          "internalType": "bool",
          "name": "",
          "type": "bool"
        }
      ],
      "stateMutability": "view",
      "type": "function"
    },
    {
      "inputs": [],
      "name": "initialize",
      "outputs": [],
      "stateMutability": "nonpayable",
      "type": "function"
    },
    {
      "inputs": [
        {
          "internalType": "address",
          "name": "_ghost",
          "type": "address"
        }
      ],
      "name": "isGhost",
      "outputs": [
        {
          "internalType": "bool",
          "name": "",
          "type": "bool"
        }
      ],
      "stateMutability": "view",
      "type": "function"
    },
    {
      "inputs": [],
      "name": "latestGhost",
      "outputs": [
        {
          "internalType": "address",
          "name": "",
          "type": "address"
        }
      ],
      "stateMutability": "view",
      "type": "function"
    },
    {
      "inputs": [],
      "name": "owner",
      "outputs": [
        {
          "internalType": "address",
          "name": "",
          "type": "address"
        }
      ],
      "stateMutability": "view",
      "type": "function"
    },
    {
      "inputs": [],
      "name": "pendingOwner",
      "outputs": [
        {
          "internalType": "address",
          "name": "",
          "type": "address"
        }
      ],
      "stateMutability": "view",
      "type": "function"
    },
    {
      "inputs": [
        {
          "internalType": "uint256",
          "name": "_saltNonce",
          "type": "uint256"
        },
        {
          "internalType": "address",
          "name": "_sender",
          "type": "address"
        }
      ],
      "name": "predictGhostAddress",
      "outputs": [
        {
          "internalType": "address",
          "name": "",
          "type": "address"
        }
      ],
      "stateMutability": "view",
      "type": "function"
    },
    {
      "inputs": [],
      "name": "renounceOwnership",
      "outputs": [],
      "stateMutability": "nonpayable",
      "type": "function"
    },
    {
      "inputs": [
        {
          "internalType": "bytes32",
          "name": "role",
          "type": "bytes32"
        },
        {
          "internalType": "address",
          "name": "callerConfirmation",
          "type": "address"
        }
      ],
      "name": "renounceRole",
      "outputs": [],
      "stateMutability": "nonpayable",
      "type": "function"
    },
    {
      "inputs": [
        {
          "internalType": "bytes32",
          "name": "role",
          "type": "bytes32"
        },
        {
          "internalType": "address",
          "name": "account",
          "type": "address"
        }
      ],
      "name": "revokeRole",
      "outputs": [],
      "stateMutability": "nonpayable",
      "type": "function"
    },
    {
      "inputs": [
        {
          "internalType": "bytes32",
          "name": "_bytecode",
          "type": "bytes32"
        }
      ],
      "name": "setBeaconProxyBytecodeHash",
      "outputs": [],
      "stateMutability": "nonpayable",
      "type": "function"
    },
    {
      "inputs": [
        {
          "internalType": "address",
          "name": "_genConsensus",
          "type": "address"
        }
      ],
      "name": "setGenConsensus",
      "outputs": [],
      "stateMutability": "nonpayable",
      "type": "function"
    },
    {
      "inputs": [
        {
          "internalType": "address",
          "name": "_ghostBlueprint",
          "type": "address"
        }
      ],
      "name": "setGhostBlueprint",
      "outputs": [],
      "stateMutability": "nonpayable",
      "type": "function"
    },
    {
      "inputs": [
        {
          "internalType": "address",
          "name": "_ghostManager",
          "type": "address"
        }
      ],
      "name": "setGhostManager",
      "outputs": [],
      "stateMutability": "nonpayable",
      "type": "function"
    },
    {
      "inputs": [
        {
          "internalType": "enum GhostFactory.VirtualMachineType",
          "name": "_virtualMachine",
          "type": "uint8"
        }
      ],
      "name": "setVirtualMachine",
      "outputs": [],
      "stateMutability": "nonpayable",
      "type": "function"
    },
    {
      "inputs": [
        {
          "internalType": "bytes4",
          "name": "interfaceId",
          "type": "bytes4"
        }
      ],
      "name": "supportsInterface",
      "outputs": [
        {
          "internalType": "bool",
          "name": "",
          "type": "bool"
        }
      ],
      "stateMutability": "view",
      "type": "function"
    },
    {
      "inputs": [
        {
          "internalType": "address",
          "name": "newOwner",
          "type": "address"
        }
      ],
      "name": "transferOwnership",
      "outputs": [],
      "stateMutability": "nonpayable",
      "type": "function"
    },
    {
      "inputs": [
        {
          "internalType": "address",
          "name": "_newImplementation",
          "type": "address"
        }
      ],
      "name": "upgradeBeacon",
      "outputs": [],
      "stateMutability": "nonpayable",
      "type": "function"
    },
    {
      "inputs": [],
      "name": "virtualMachine",
      "outputs": [
        {
          "internalType": "enum GhostFactory.VirtualMachineType",
          "name": "",
          "type": "uint8"
        }
      ],
      "stateMutability": "view",
      "type": "function"
    },
    {
      "stateMutability": "payable",
      "type": "receive"
    }
  ],
  "bytecode": "0x60808060405234601557611f67908161001b8239f35b600080fdfe608080604052600436101561001d575b50361561001b57600080fd5b005b600090813560e01c90816301ffc9a714610ff5575080631bce458314610f4d578063248a9ca314610f265780632ea9676d14610eb75780632f2ff15d14610e8557806336568abe14610e40578063390dff9414610dd15780634154427714610da85780634e61b7ad14610d7f5780635464b35c14610d5657806356e71eda14610d3357806369360aac14610cff578063715018a614610c7e578063740bdf9614610bf35780637440c21b1461022657806374c15323146108d657806379ba5097146108855780637c8069a8146107ac5780638129fc1c146106075780638da5cb5b146105d157806391d148541461057857806392eaf0151461055a578063945b8e9a1461051a578063a217fddf146104fe578063b8f3c963146104d5578063cb85e3ad14610397578063d4fd3a271461035e578063d547741f14610323578063d895f9cb146102e0578063e26b64e6146102b9578063e30c397814610283578063e70850ee14610265578063ef7c0541146102265763f2fde38b0361000f5734610223576020366003190112610223576101b561104e565b6101bd6111ee565b600080516020611f1283398151915280546001600160a01b0319166001600160a01b03928316908117909155600080516020611eb2833981519152549091167f38d16b8cac22d99fc7c124b9cd0de2d3fa1faef420bfe791d8c362d765e227008380a380f35b80fd5b50346102235760203660031901126102235760209060ff906040906001600160a01b0361025161104e565b168152600784522054166040519015158152f35b50346102235780600319360112610223576020600554604051908152f35b5034610223578060031936011261022357600080516020611f12833981519152546040516001600160a01b039091168152602090f35b5034610223578060031936011261022357546040516001600160a01b039091168152602090f35b503461022357806003193601126102235760ff60065460a01c1660405190600281101561030f57602092508152f35b634e487b7160e01b83526021600452602483fd5b50346102235760403660031901126102235761035a600435610343611069565b9061035561035082611120565b611224565b611310565b5080f35b503461022357604036600319011261022357602061038561037d611069565b6004356111a4565b6040516001600160a01b039091168152f35b50346102235780600319360112610223576103b06111ee565b8054604051906103da808301916001600160a01b03169067ffffffffffffffff8311848410176104c157918391604093611ad88439815230602082015203019082f080156104b457600180546001600160a01b0319166001600160a01b0392909216918217905561041f6110b7565b906104ab61045f61046d60405163189acdbd60e31b60208201523060248201526024815261044e60448261107f565b60405192839160208301968761117f565b03601f19810183528261107f565b602060405193849261049b8361048c818701998a8151938492016110d8565b850191518093858401906110d8565b010103601f19810183528261107f565b51902060055580f35b50604051903d90823e3d90fd5b634e487b7160e01b85526041600452602485fd5b50346102235780600319360112610223576006546040516001600160a01b039091168152602090f35b5034610223578060031936011261022357602090604051908152f35b50346102235760203660031901126102235761053461104e565b61053c6111ee565b81546001600160a01b0319166001600160a01b039190911617815580f35b50346102235780600319360112610223576020600454604051908152f35b5034610223576040366003190112610223576040610594611069565b916004358152600080516020611ed2833981519152602052209060018060a01b0316600052602052602060ff604060002054166040519015158152f35b5034610223578060031936011261022357600080516020611eb2833981519152546040516001600160a01b039091168152602090f35b5034610223578060031936011261022357600080516020611ef28339815191525460ff8160401c16159067ffffffffffffffff8116801590816107a4575b600114908161079a575b159081610791575b506107825767ffffffffffffffff198116600117600080516020611ef28339815191525581610755575b5061068a6115fc565b6106926115fc565b3315610741576106a1336113b0565b6106a96115fc565b6106b16115fc565b6106b96115fc565b60017f9b779b17422d0df92223018b32b4d1fa46e071723d6817e2486d003becc55f00556106e56115fc565b6106ec5780f35b60ff60401b19600080516020611ef28339815191525416600080516020611ef2833981519152557fc7f505b2f371ae2175ee4913f4499e1f2633a7b5936321eed1cdaeb6115181d2602060405160018152a180f35b631e4fbdf760e01b82526004829052602482fd5b68ffffffffffffffffff19166801000000000000000117600080516020611ef28339815191525538610681565b63f92ee8a960e01b8352600483fd5b90501538610657565b303b15915061064f565b839150610645565b5034610223576020366003190112610223576004356002811015610881576107d26111ee565b60065460ff8160a01c16600281101561086d5782146108285760ff60a01b191660a082901b60ff60a01b16176006557f5fee1df779af830b17d8c3ff2179ea64637e4553d30127e163063ba0bb7b8f548280a280f35b60405162461bcd60e51b815260206004820152601b60248201527f5669727475616c206d616368696e6520616c72656164792073657400000000006044820152606490fd5b634e487b7160e01b84526021600452602484fd5b5080fd5b5034610223578060031936011261022357600080516020611f1283398151915254336001600160a01b03909116036108c3576108c0336113b0565b80f35b63118cdaa760e01b815233600452602490fd5b503461022357602036600319011261022357600354600435906001600160a01b03163303610be45780610a7e575060018060a01b036001541660405163189acdbd60e31b60208201523060248201526024815261093460448261107f565b604051916104ad8084019084821067ffffffffffffffff831117610a6a57918493916109649361162b863961117f565b039082f080156104b4575b6001600160a01b03168015610a2b577f969b86c6b6e9d69b5ea51d9ddd7b1cc1ab8635fa70134b55cf4baf1733caeb866020604051838152a1803b156108815760405163f2fde38b60e01b8152336004820152828160248183865af18015610a2057610a0b575b50600680546001600160a01b0319168217905580825260076020908152604092839020805460ff191660011790559151908152f35b610a1683809261107f565b61088157386109d6565b6040513d85823e3d90fd5b60405162461bcd60e51b815260206004820152601760248201527611da1bdcdd0819195c1b1bde5b595b9d0819985a5b1959604a1b6044820152606490fd5b634e487b7160e01b86526041600452602486fd5b6040513360601b6001600160601b031916602082019081526034820192909252610aab816054810161045f565b5190206001600160a01b03610abf8261141e565b1690818352600760205260ff604084205416610ba65760018060a01b036001541660405163189acdbd60e31b602082015230602482015260248152610b0560448261107f565b604051916104ad8084019084821067ffffffffffffffff831117610b925791849391610b359361162b863961117f565b039084f5908115610b87576001600160a01b0382161461096f5760405162461bcd60e51b815260206004820152601060248201526f082c8c8e4cae6e640dad2e6dac2e8c6d60831b6044820152606490fd5b6040513d84823e3d90fd5b634e487b7160e01b88526041600452602488fd5b60405162461bcd60e51b815260206004820152601660248201527511da1bdcdd08185b1c9958591e4819195c1b1bde595960521b6044820152606490fd5b634782018760e01b8252600482fd5b503461022357602036600319011261022357600435610c106111ee565b8015610c4157806004557f783add80924b1c0290a6574c866a18ebfa6f8bfc7228352ea44a5fb5c1b4896c8280a280f35b60405162461bcd60e51b8152602060048201526015602482015274092dcecc2d8d2c840c4f2e8cac6dec8ca40d0c2e6d605b1b6044820152606490fd5b5034610223578060031936011261022357610c976111ee565b600080516020611f1283398151915280546001600160a01b0319908116909155600080516020611eb28339815191528054918216905581906001600160a01b03167f8be0079c531659141344cd1fd0a4f28419497f9722a3daafe3b4186f6b6457e08280a380f35b5034610223578060031936011261022357610d2f610d1b6110b7565b6040519182916020835260208301906110fb565b0390f35b503461022357806003193601126102235760405163189acdbd60e31b8152602090f35b50346102235780600319360112610223576001546040516001600160a01b039091168152602090f35b50346102235780600319360112610223576002546040516001600160a01b039091168152602090f35b50346102235780600319360112610223576003546040516001600160a01b039091168152602090f35b503461022357602036600319011261022357610deb61104e565b610df36111ee565b6001600160a01b0316610e07811515611141565b600380546001600160a01b031916821790557fd71cb382901878f93a93cfcb156c01d64cdba2518bf373f5c8281994d4d3d7508280a280f35b503461022357604036600319011261022357610e5a611069565b336001600160a01b03821603610e765761035a90600435611310565b63334bd91960e11b8252600482fd5b50346102235760403660031901126102235761035a600435610ea5611069565b90610eb261035082611120565b61126e565b503461022357602036600319011261022357610ed161104e565b610ed96111ee565b6001600160a01b0316610eed811515611141565b600280546001600160a01b031916821790557f14813c7ab7a13cb7bc14762eccbc7c916f33738e887fc994b2ca42a312ad1ef38280a280f35b5034610223576020366003190112610223576020610f45600435611120565b604051908152f35b503461022357602036600319011261022357610f6761104e565b90610f706111ee565b6001546001600160a01b031691823b1561088157604051631b2ce7f360e11b81526001600160a01b03909116600482018190529282908290602490829084905af18015610b8757610fe5575b50907f1cf3b03a6cf19fa2baba4df148e9dcabedea7f8a5c07840e207e5c089be95d3e8280a280f35b81610fef9161107f565b38610fbc565b9050346108815760203660031901126108815760043563ffffffff60e01b811680910361104a5760209250637965db0b60e01b8114908115611039575b5015158152f35b6301ffc9a760e01b14905038611032565b8280fd5b600435906001600160a01b038216820361106457565b600080fd5b602435906001600160a01b038216820361106457565b90601f8019910116810190811067ffffffffffffffff8211176110a157604052565b634e487b7160e01b600052604160045260246000fd5b6040516104ad6110ca602082018361107f565b80825261162b602083013990565b60005b8381106110eb5750506000910152565b81810151838201526020016110db565b90602091611114815180928185528580860191016110d8565b601f01601f1916010190565b600052600080516020611ed283398151915260205260016040600020015490565b1561114857565b60405162461bcd60e51b815260206004820152600f60248201526e496e76616c6964206164647265737360881b6044820152606490fd5b6001600160a01b0390911681526040602082018190526111a1929101906110fb565b90565b9081156111e75760405160609190911b6001600160601b0319166020820190815260348201929092526111a191906111df816054810161045f565b51902061141e565b5050600090565b600080516020611eb2833981519152546001600160a01b0316330361120f57565b63118cdaa760e01b6000523360045260246000fd5b6000818152600080516020611ed28339815191526020908152604080832033845290915290205460ff16156112565750565b63e2517d3f60e01b6000523360045260245260446000fd5b6000818152600080516020611ed2833981519152602090815260408083206001600160a01b038616845290915290205460ff166111e7576000818152600080516020611ed2833981519152602090815260408083206001600160a01b0395909516808452949091528120805460ff19166001179055339291907f2f8788117e7eff1d82e926ec794901d17c78024a50270940304540a733656f0d9080a4600190565b6000818152600080516020611ed2833981519152602090815260408083206001600160a01b038616845290915290205460ff16156111e7576000818152600080516020611ed2833981519152602090815260408083206001600160a01b0395909516808452949091528120805460ff19169055339291907ff6391f5c32d9c69d2a47ea670b442974b53935d1edc7fd64eb21e047a839171b9080a4600190565b600080516020611f1283398151915280546001600160a01b0319908116909155600080516020611eb283398151915280549182166001600160a01b0393841690811790915591167f8be0079c531659141344cd1fd0a4f28419497f9722a3daafe3b4186f6b6457e0600080a3565b60ff60065460a01c1660028110156115e6576115385760045480156114e75760018060a01b036001541661045f61148460405163189acdbd60e31b60208201523060248201526024815261147360448261107f565b60405192839160208301958661117f565b5190206040519160208301937f2020dba91b30cc0006188af794c2fb30dd8520db7e2c088b7fc7c103c00ca49485523060408501526060840152608083015260a082015260a081526114d760c08261107f565b5190205b6001600160a01b031690565b60405162461bcd60e51b8152602060048201526024808201527f5a4b53594e432062797465636f64652068617368206e6f7420696e697469616c6044820152631a5cd95960e21b6064820152608490fd5b600554801561157b5760405190602082019260ff60f81b84523060601b6021840152603583015260558201526055815261157360758261107f565b5190206114db565b60405162461bcd60e51b815260206004820152603d60248201527f45564d2062797465636f64652068617368206e6f7420696e697469616c69736560448201527f642c206465706c6f794e6577426561636f6e50726f78792066697273740000006064820152608490fd5b634e487b7160e01b600052602160045260246000fd5b60ff600080516020611ef28339815191525460401c161561161957565b631afcd79f60e31b60005260046000fdfe60a0806040526104ad803803809161001782856102b7565b833981016040828203126101f35761002e826102f0565b602083015190926001600160401b0382116101f3570181601f820112156101f35780519061005b82610304565b9261006960405194856102b7565b828452602083830101116101f35760005b8281106102a2575050602060009183010152813b15610280577fa3f0ad74e5423aebfd80d3ef4346578335a9a72aeaee59ff6cb3582b35133d5080546001600160a01b0319166001600160a01b038416908117909155604051635c60da1b60e01b8152909190602081600481865afa90811561020057600091610246575b50803b156102255750817f1cf3b03a6cf19fa2baba4df148e9dcabedea7f8a5c07840e207e5c089be95d3e600080a280511561020c57602060049260405193848092635c60da1b60e01b82525afa918215610200576000926101b9575b509060008083602061019595519101845af43d156101b1573d9161017883610304565b9261018660405194856102b7565b83523d6000602085013e61031f565b505b60805260405161012c908161038182396080518160180152f35b60609161031f565b91506020823d6020116101f8575b816101d4602093836102b7565b810103126101f3576000806101eb610195946102f0565b935050610155565b600080fd5b3d91506101c7565b6040513d6000823e3d90fd5b505034156101975763b398979f60e01b60005260046000fd5b634c9c8ce360e01b60009081526001600160a01b0391909116600452602490fd5b90506020813d602011610278575b81610261602093836102b7565b810103126101f357610272906102f0565b386100f8565b3d9150610254565b50631933b43b60e21b60009081526001600160a01b0391909116600452602490fd5b8060208092840101518282870101520161007a565b601f909101601f19168101906001600160401b038211908210176102da57604052565b634e487b7160e01b600052604160045260246000fd5b51906001600160a01b03821682036101f357565b6001600160401b0381116102da57601f01601f191660200190565b90610345575080511561033457805190602001fd5b63d6bda27560e01b60005260046000fd5b81511580610377575b610356575090565b639996b31560e01b60009081526001600160a01b0391909116600452602490fd5b50803b1561034e56fe60806040819052635c60da1b60e01b81526020906004817f00000000000000000000000000000000000000000000000000000000000000006001600160a01b03165afa801560a5576000901560d6575060203d602011609f575b601f19601f820116608001906080821067ffffffffffffffff83111760895760859160405260800160b1565b60d6565b634e487b7160e01b600052604160045260246000fd5b503d6059565b6040513d6000823e3d90fd5b602090607f19011260d1576080516001600160a01b038116810360d15790565b600080fd5b60008091368280378136915af43d6000803e1560f1573d6000f35b3d6000fdfea2646970667358221220ee131cc7c04d65d12ed76177154633df59d08e97ac367e31afe0c874103bd24764736f6c634300081c003360803461013a57601f6103da38819003918201601f19168301916001600160401b0383118484101761013f57808492604094855283398101031261013a5761004681610155565b906001600160a01b039061005c90602001610155565b1690811561012457600080546001600160a01b031981168417825560405193916001600160a01b03909116907f8be0079c531659141344cd1fd0a4f28419497f9722a3daafe3b4186f6b6457e09080a3803b1561010357600180546001600160a01b0319166001600160a01b039290921691821790557fbc7cd75a20ee27fd9adebab32041f755214dbc6bffa90cc0225b39da2e5c2d3b600080a2610270908161016a8239f35b63211eb15960e21b60009081526001600160a01b0391909116600452602490fd5b631e4fbdf760e01b600052600060045260246000fd5b600080fd5b634e487b7160e01b600052604160045260246000fd5b51906001600160a01b038216820361013a5756fe6080604052600436101561001257600080fd5b60003560e01c80633659cfe6146101905780635c60da1b14610167578063715018a61461010e5780638da5cb5b146100e55763f2fde38b1461005357600080fd5b346100e05760203660031901126100e0576004356001600160a01b038116908190036100e057610081610211565b80156100ca57600080546001600160a01b03198116831782556001600160a01b0316907f8be0079c531659141344cd1fd0a4f28419497f9722a3daafe3b4186f6b6457e09080a3005b631e4fbdf760e01b600052600060045260246000fd5b600080fd5b346100e05760003660031901126100e0576000546040516001600160a01b039091168152602090f35b346100e05760003660031901126100e057610127610211565b600080546001600160a01b0319811682556001600160a01b03167f8be0079c531659141344cd1fd0a4f28419497f9722a3daafe3b4186f6b6457e08280a3005b346100e05760003660031901126100e0576001546040516001600160a01b039091168152602090f35b346100e05760203660031901126100e0576004356001600160a01b038116908181036100e0576101be610211565b3b156101fd57600180546001600160a01b031916821790557fbc7cd75a20ee27fd9adebab32041f755214dbc6bffa90cc0225b39da2e5c2d3b600080a2005b63211eb15960e21b60005260045260246000fd5b6000546001600160a01b0316330361022557565b63118cdaa760e01b6000523360045260246000fdfea26469706673582212205be932ea8d033c79c2075910c9f2a1219e9addcb9ea1818f0956cdde62d7866f64736f6c634300081c00339016d09d72d40fdae2fd8ceac6b6234c7706214fd39c1cd1e609a0528c19930002dd7bc7dec4dceedda775e58dd541e08a116c6c53815c0bd028192f7b626800f0c57e16840df040f15088dc2f81fe391c3923bec73e23a9662efc9c229c6a00237e158222e3e6968b72b9db0d8043aacf074ad9f650f0d1606b4d82ee432c00a26469706673582212208b82cee5f3894fde2f3d01bbd424a213ef2bd12a9ff36912601295a43e74d4ff64736f6c634300081c0033",
  "linkReferences": {},
  "deployedLinkReferences": {}
}