{
  "_format": "hh-sol-artifact-1",
  "contractName": "Transactions",
  "sourceName": "contracts/Transactions.sol",
  "abi": [
    {
      "inputs": [],
      "name": "AccessControlBadConfirmation",
      "type": "error"
    },
    {
      "inputs": [
        {
          "internalType": "address",
          "name": "account",
          "type": "address"
        },
        {
          "internalType": "bytes32",
          "name": "neededRole",
          "type": "bytes32"
        }
      ],
      "name": "AccessControlUnauthorizedAccount",
      "type": "error"
    },
    {
      "inputs": [],
      "name": "CallerNotActivator",
      "type": "error"
    },
    {
      "inputs": [],
      "name": "CallerNotConsensus",
      "type": "error"
    },
    {
      "inputs": [
        {
          "internalType": "address",
          "name": "leader",
          "type": "address"
        },
        {
          "internalType": "address",
          "name": "caller",
          "type": "address"
        }
      ],
      "name": "CallerNotLeader",
      "type": "error"
    },
    {
      "inputs": [],
      "name": "CallerNotSender",
      "type": "error"
    },
    {
      "inputs": [],
      "name": "InvalidInitialization",
      "type": "error"
    },
    {
      "inputs": [],
      "name": "InvalidOffset",
      "type": "error"
    },
    {
      "inputs": [],
      "name": "InvalidPageSize",
      "type": "error"
    },
    {
      "inputs": [],
      "name": "InvalidProcessingBlock",
      "type": "error"
    },
    {
      "inputs": [],
      "name": "InvalidValidator",
      "type": "error"
    },
    {
      "inputs": [],
      "name": "InvalidVersion",
      "type": "error"
    },
    {
      "inputs": [],
      "name": "InvalidVote",
      "type": "error"
    },
    {
      "inputs": [],
      "name": "NotInitializing",
      "type": "error"
    },
    {
      "inputs": [
        {
          "internalType": "address",
          "name": "owner",
          "type": "address"
        }
      ],
      "name": "OwnableInvalidOwner",
      "type": "error"
    },
    {
      "inputs": [
        {
          "internalType": "address",
          "name": "account",
          "type": "address"
        }
      ],
      "name": "OwnableUnauthorizedAccount",
      "type": "error"
    },
    {
      "inputs": [],
      "name": "ReentrancyGuardReentrantCall",
      "type": "error"
    },
    {
      "inputs": [],
      "name": "TransactionAlreadyAccepted",
      "type": "error"
    },
    {
      "inputs": [],
      "name": "TransactionNotAcceptedNorUndetermined",
      "type": "error"
    },
    {
      "inputs": [],
      "name": "TransactionNotFound",
      "type": "error"
    },
    {
      "inputs": [],
      "name": "TransactionStillValid",
      "type": "error"
    },
    {
      "inputs": [],
      "name": "UnfinishedTxCounterUnderflow",
      "type": "error"
    },
    {
      "inputs": [],
      "name": "VoteAlreadyCommitted",
      "type": "error"
    },
    {
      "inputs": [],
      "name": "VoteAlreadyRevealed",
      "type": "error"
    },
    {
      "anonymous": false,
      "inputs": [
        {
          "indexed": false,
          "internalType": "uint64",
          "name": "version",
          "type": "uint64"
        }
      ],
      "name": "Initialized",
      "type": "event"
    },
    {
      "anonymous": false,
      "inputs": [
        {
          "indexed": true,
          "internalType": "address",
          "name": "previousOwner",
          "type": "address"
        },
        {
          "indexed": true,
          "internalType": "address",
          "name": "newOwner",
          "type": "address"
        }
      ],
      "name": "OwnershipTransferStarted",
      "type": "event"
    },
    {
      "anonymous": false,
      "inputs": [
        {
          "indexed": true,
          "internalType": "address",
          "name": "previousOwner",
          "type": "address"
        },
        {
          "indexed": true,
          "internalType": "address",
          "name": "newOwner",
          "type": "address"
        }
      ],
      "name": "OwnershipTransferred",
      "type": "event"
    },
    {
      "anonymous": false,
      "inputs": [
        {
          "indexed": true,
          "internalType": "uint256",
          "name": "epoch",
          "type": "uint256"
        },
        {
          "indexed": false,
          "internalType": "uint256",
          "name": "processedCount",
          "type": "uint256"
        },
        {
          "indexed": false,
          "internalType": "uint256",
          "name": "canceledCount",
          "type": "uint256"
        },
        {
          "indexed": false,
          "internalType": "uint256",
          "name": "finalizedCount",
          "type": "uint256"
        }
      ],
      "name": "PendingTransactionsCleanupExecuted",
      "type": "event"
    },
    {
      "anonymous": false,
      "inputs": [
        {
          "indexed": true,
          "internalType": "bytes32",
          "name": "txId",
          "type": "bytes32"
        }
      ],
      "name": "ProcessIdlenessAccepted",
      "type": "event"
    },
    {
      "anonymous": false,
      "inputs": [
        {
          "indexed": true,
          "internalType": "bytes32",
          "name": "txId",
          "type": "bytes32"
        },
        {
          "indexed": false,
          "internalType": "enum ITransactions.TransactionStatus",
          "name": "previousState",
          "type": "uint8"
        },
        {
          "indexed": false,
          "internalType": "enum ITransactions.TransactionStatus",
          "name": "updatedState",
          "type": "uint8"
        }
      ],
      "name": "ProcessIdlenessEvent",
      "type": "event"
    },
    {
      "anonymous": false,
      "inputs": [
        {
          "indexed": true,
          "internalType": "bytes32",
          "name": "txId",
          "type": "bytes32"
        }
      ],
      "name": "ProcessIdlenessUndetermined",
      "type": "event"
    },
    {
      "anonymous": false,
      "inputs": [
        {
          "indexed": true,
          "internalType": "bytes32",
          "name": "role",
          "type": "bytes32"
        },
        {
          "indexed": true,
          "internalType": "bytes32",
          "name": "previousAdminRole",
          "type": "bytes32"
        },
        {
          "indexed": true,
          "internalType": "bytes32",
          "name": "newAdminRole",
          "type": "bytes32"
        }
      ],
      "name": "RoleAdminChanged",
      "type": "event"
    },
    {
      "anonymous": false,
      "inputs": [
        {
          "indexed": true,
          "internalType": "bytes32",
          "name": "role",
          "type": "bytes32"
        },
        {
          "indexed": true,
          "internalType": "address",
          "name": "account",
          "type": "address"
        },
        {
          "indexed": true,
          "internalType": "address",
          "name": "sender",
          "type": "address"
        }
      ],
      "name": "RoleGranted",
      "type": "event"
    },
    {
      "anonymous": false,
      "inputs": [
        {
          "indexed": true,
          "internalType": "bytes32",
          "name": "role",
          "type": "bytes32"
        },
        {
          "indexed": true,
          "internalType": "address",
          "name": "account",
          "type": "address"
        },
        {
          "indexed": true,
          "internalType": "address",
          "name": "sender",
          "type": "address"
        }
      ],
      "name": "RoleRevoked",
      "type": "event"
    },
    {
      "anonymous": false,
      "inputs": [
        {
          "indexed": true,
          "internalType": "bytes32",
          "name": "txId",
          "type": "bytes32"
        }
      ],
      "name": "TransactionCanceled",
      "type": "event"
    },
    {
      "anonymous": false,
      "inputs": [
        {
          "indexed": true,
          "internalType": "bytes32",
          "name": "txId",
          "type": "bytes32"
        }
      ],
      "name": "TransactionFinalized",
      "type": "event"
    },
    {
      "inputs": [],
      "name": "CLEANUP_ROLE",
      "outputs": [
        {
          "internalType": "bytes32",
          "name": "",
          "type": "bytes32"
        }
      ],
      "stateMutability": "view",
      "type": "function"
    },
    {
      "inputs": [],
      "name": "DEFAULT_ADMIN_ROLE",
      "outputs": [
        {
          "internalType": "bytes32",
          "name": "",
          "type": "bytes32"
        }
      ],
      "stateMutability": "view",
      "type": "function"
    },
    {
      "inputs": [],
      "name": "acceptOwnership",
      "outputs": [],
      "stateMutability": "nonpayable",
      "type": "function"
    },
    {
      "inputs": [
        {
          "internalType": "bytes32",
          "name": "_txId",
          "type": "bytes32"
        },
        {
          "internalType": "address",
          "name": "_activator",
          "type": "address"
        },
        {
          "internalType": "bytes32",
          "name": "_randomSeed",
          "type": "bytes32"
        },
        {
          "internalType": "bytes32",
          "name": "_oldRandomSeed",
          "type": "bytes32"
        }
      ],
      "name": "activateTransaction",
      "outputs": [
        {
          "internalType": "bool",
          "name": "success",
          "type": "bool"
        },
        {
          "internalType": "bool",
          "name": "canceled",
          "type": "bool"
        },
        {
          "internalType": "address",
          "name": "recipient",
          "type": "address"
        },
        {
          "internalType": "uint256",
          "name": "leaderIndex",
          "type": "uint256"
        },
        {
          "internalType": "address[]",
          "name": "validators",
          "type": "address[]"
        },
        {
          "internalType": "bytes32[]",
          "name": "undeterminedTxIds",
          "type": "bytes32[]"
        },
        {
          "internalType": "bytes32[]",
          "name": "expiredTxIds",
          "type": "bytes32[]"
        }
      ],
      "stateMutability": "nonpayable",
      "type": "function"
    },
    {
      "inputs": [
        {
          "internalType": "bytes32",
          "name": "txId",
          "type": "bytes32"
        },
        {
          "components": [
            {
              "internalType": "enum ITransactions.ResultType",
              "name": "result",
              "type": "uint8"
            },
            {
              "internalType": "enum ITransactions.VoteType",
              "name": "txExecutionResult",
              "type": "uint8"
            },
            {
              "internalType": "enum ITransactions.TransactionStatus",
              "name": "previousStatus",
              "type": "uint8"
            },
            {
              "internalType": "enum ITransactions.TransactionStatus",
              "name": "status",
              "type": "uint8"
            },
            {
              "internalType": "address",
              "name": "txOrigin",
              "type": "address"
            },
            {
              "internalType": "address",
              "name": "sender",
              "type": "address"
            },
            {
              "internalType": "address",
              "name": "recipient",
              "type": "address"
            },
            {
              "internalType": "address",
              "name": "activator",
              "type": "address"
            },
            {
              "internalType": "uint256",
              "name": "txSlot",
              "type": "uint256"
            },
            {
              "internalType": "uint256",
              "name": "initialRotations",
              "type": "uint256"
            },
            {
              "internalType": "uint256",
              "name": "numOfInitialValidators",
              "type": "uint256"
            },
            {
              "internalType": "uint256",
              "name": "epoch",
              "type": "uint256"
            },
            {
              "internalType": "bytes32",
              "name": "id",
              "type": "bytes32"
            },
            {
              "internalType": "bytes32",
              "name": "randomSeed",
              "type": "bytes32"
            },
            {
              "internalType": "bytes32",
              "name": "txExecutionHash",
              "type": "bytes32"
            },
            {
              "internalType": "bytes32",
              "name": "resultHash",
              "type": "bytes32"
            },
            {
              "internalType": "bytes",
              "name": "txCalldata",
              "type": "bytes"
            },
            {
              "internalType": "bytes",
              "name": "eqBlocksOutputs",
              "type": "bytes"
            },
            {
              "components": [
                {
                  "internalType": "uint256",
                  "name": "activationBlock",
                  "type": "uint256"
                },
                {
                  "internalType": "uint256",
                  "name": "processingBlock",
                  "type": "uint256"
                },
                {
                  "internalType": "uint256",
                  "name": "proposalBlock",
                  "type": "uint256"
                }
              ],
              "internalType": "struct ITransactions.ReadStateBlockRange[]",
              "name": "readStateBlockRanges",
              "type": "tuple[]"
            },
            {
              "internalType": "uint256",
              "name": "validUntil",
              "type": "uint256"
            },
            {
              "internalType": "uint256",
              "name": "value",
              "type": "uint256"
            }
          ],
          "internalType": "struct ITransactions.Transaction",
          "name": "newTx",
          "type": "tuple"
        }
      ],
      "name": "addNewTransaction",
      "outputs": [
        {
          "internalType": "bytes32",
          "name": "",
          "type": "bytes32"
        }
      ],
      "stateMutability": "nonpayable",
      "type": "function"
    },
    {
      "inputs": [
        {
          "internalType": "bytes32",
          "name": "_txId",
          "type": "bytes32"
        },
        {
          "internalType": "address",
          "name": "_sender",
          "type": "address"
        }
      ],
      "name": "cancelTransaction",
      "outputs": [
        {
          "internalType": "bool",
          "name": "success",
          "type": "bool"
        },
        {
          "internalType": "address",
          "name": "recipient",
          "type": "address"
        }
      ],
      "stateMutability": "nonpayable",
      "type": "function"
    },
    {
      "inputs": [
        {
          "internalType": "bytes32",
          "name": "_txId",
          "type": "bytes32"
        },
        {
          "internalType": "bytes32",
          "name": "_commitHash",
          "type": "bytes32"
        },
        {
          "internalType": "address",
          "name": "_validator",
          "type": "address"
        },
        {
          "internalType": "uint256",
          "name": "_validatorIndex",
          "type": "uint256"
        }
      ],
      "name": "commitVote",
      "outputs": [
        {
          "internalType": "bool",
          "name": "success",
          "type": "bool"
        },
        {
          "internalType": "bool",
          "name": "isLastVote",
          "type": "bool"
        },
        {
          "internalType": "address",
          "name": "newLeader",
          "type": "address"
        },
        {
          "internalType": "address",
          "name": "recipient",
          "type": "address"
        },
        {
          "internalType": "bytes32[]",
          "name": "undeterminedTxIds",
          "type": "bytes32[]"
        }
      ],
      "stateMutability": "nonpayable",
      "type": "function"
    },
    {
      "inputs": [
        {
          "internalType": "bytes32[]",
          "name": "_txIds",
          "type": "bytes32[]"
        }
      ],
      "name": "finalizeIdlenessTxs",
      "outputs": [
        {
          "internalType": "uint256",
          "name": "attempted",
          "type": "uint256"
        },
        {
          "internalType": "uint256",
          "name": "succeeded",
          "type": "uint256"
        },
        {
          "internalType": "uint256",
          "name": "failed",
          "type": "uint256"
        },
        {
          "internalType": "bytes32[]",
          "name": "failedTxIds",
          "type": "bytes32[]"
        },
        {
          "internalType": "bool[]",
          "name": "shouldProcessMessagesFlags",
          "type": "bool[]"
        },
        {
          "internalType": "bool[]",
          "name": "shouldSendOnAcceptanceFlags",
          "type": "bool[]"
        }
      ],
      "stateMutability": "nonpayable",
      "type": "function"
    },
    {
      "inputs": [
        {
          "internalType": "bytes32",
          "name": "_txId",
          "type": "bytes32"
        }
      ],
      "name": "finalizeTransaction",
      "outputs": [
        {
          "internalType": "address",
          "name": "recipient",
          "type": "address"
        },
        {
          "internalType": "uint256",
          "name": "lastVoteTimestamp",
          "type": "uint256"
        },
        {
          "internalType": "uint256",
          "name": "lastCommitTimestamp",
          "type": "uint256"
        },
        {
          "internalType": "bool",
          "name": "shouldProcessMessages",
          "type": "bool"
        },
        {
          "internalType": "bool",
          "name": "shouldSendOnAcceptance",
          "type": "bool"
        }
      ],
      "stateMutability": "nonpayable",
      "type": "function"
    },
    {
      "inputs": [
        {
          "internalType": "uint256",
          "name": "_epoch",
          "type": "uint256"
        }
      ],
      "name": "forceCleanupPendingTransactions",
      "outputs": [
        {
          "internalType": "uint256",
          "name": "processedCount",
          "type": "uint256"
        },
        {
          "internalType": "uint256",
          "name": "canceledCount",
          "type": "uint256"
        },
        {
          "internalType": "uint256",
          "name": "finalizedCount",
          "type": "uint256"
        },
        {
          "internalType": "bytes32[]",
          "name": "affectedTxIds",
          "type": "bytes32[]"
        }
      ],
      "stateMutability": "nonpayable",
      "type": "function"
    },
    {
      "inputs": [
        {
          "internalType": "uint256",
          "name": "_epoch",
          "type": "uint256"
        },
        {
          "internalType": "uint256",
          "name": "_offset",
          "type": "uint256"
        },
        {
          "internalType": "uint256",
          "name": "_pageSize",
          "type": "uint256"
        }
      ],
      "name": "forceCleanupPendingTransactionsWithPagination",
      "outputs": [
        {
          "internalType": "uint256",
          "name": "processedCount",
          "type": "uint256"
        },
        {
          "internalType": "uint256",
          "name": "canceledCount",
          "type": "uint256"
        },
        {
          "internalType": "uint256",
          "name": "finalizedCount",
          "type": "uint256"
        },
        {
          "internalType": "bytes32[]",
          "name": "affectedTxIds",
          "type": "bytes32[]"
        }
      ],
      "stateMutability": "nonpayable",
      "type": "function"
    },
    {
      "inputs": [
        {
          "internalType": "bytes32",
          "name": "_txId",
          "type": "bytes32"
        }
      ],
      "name": "forceTxToUndetermined",
      "outputs": [
        {
          "internalType": "bool",
          "name": "success",
          "type": "bool"
        }
      ],
      "stateMutability": "nonpayable",
      "type": "function"
    },
    {
      "inputs": [],
      "name": "getContracts",
      "outputs": [
        {
          "components": [
            {
              "internalType": "address",
              "name": "genConsensus",
              "type": "address"
            },
            {
              "internalType": "contract IGenLayerStaking",
              "name": "staking",
              "type": "address"
            },
            {
              "internalType": "contract IRounds",
              "name": "rounds",
              "type": "address"
            },
            {
              "internalType": "contract Voting",
              "name": "voting",
              "type": "address"
            },
            {
              "internalType": "contract IIdleness",
              "name": "idleness",
              "type": "address"
            },
            {
              "internalType": "contract Utils",
              "name": "utils",
              "type": "address"
            },
            {
              "internalType": "contract ITribunalAppeal",
              "name": "tribunalAppeal",
              "type": "address"
            },
            {
              "internalType": "contract IAppeals",
              "name": "appeals",
              "type": "address"
            },
            {
              "internalType": "contract IQueues",
              "name": "queues",
              "type": "address"
            }
          ],
          "internalType": "struct ITransactions.ExternalContracts",
          "name": "",
          "type": "tuple"
        }
      ],
      "stateMutability": "view",
      "type": "function"
    },
    {
      "inputs": [
        {
          "internalType": "bytes32",
          "name": "_txId",
          "type": "bytes32"
        }
      ],
      "name": "getCurrentTransactionVersion",
      "outputs": [
        {
          "components": [
            {
              "internalType": "uint256",
              "name": "activationBlock",
              "type": "uint256"
            },
            {
              "internalType": "uint256",
              "name": "processingBlock",
              "type": "uint256"
            },
            {
              "internalType": "uint256",
              "name": "proposalBlock",
              "type": "uint256"
            }
          ],
          "internalType": "struct ITransactions.ReadStateBlockRange",
          "name": "",
          "type": "tuple"
        }
      ],
      "stateMutability": "view",
      "type": "function"
    },
    {
      "inputs": [
        {
          "internalType": "bytes32",
          "name": "_txId",
          "type": "bytes32"
        }
      ],
      "name": "getCurrentTransactionVersionIndex",
      "outputs": [
        {
          "internalType": "uint256",
          "name": "",
          "type": "uint256"
        }
      ],
      "stateMutability": "view",
      "type": "function"
    },
    {
      "inputs": [
        {
          "internalType": "uint256",
          "name": "_epoch",
          "type": "uint256"
        }
      ],
      "name": "getNumOfUnfinishedTransactions",
      "outputs": [
        {
          "internalType": "uint256",
          "name": "",
          "type": "uint256"
        }
      ],
      "stateMutability": "view",
      "type": "function"
    },
    {
      "inputs": [
        {
          "internalType": "bytes32",
          "name": "role",
          "type": "bytes32"
        }
      ],
      "name": "getRoleAdmin",
      "outputs": [
        {
          "internalType": "bytes32",
          "name": "",
          "type": "bytes32"
        }
      ],
      "stateMutability": "view",
      "type": "function"
    },
    {
      "inputs": [
        {
          "internalType": "bytes32",
          "name": "txId",
          "type": "bytes32"
        }
      ],
      "name": "getTransaction",
      "outputs": [
        {
          "components": [
            {
              "internalType": "enum ITransactions.ResultType",
              "name": "result",
              "type": "uint8"
            },
            {
              "internalType": "enum ITransactions.VoteType",
              "name": "txExecutionResult",
              "type": "uint8"
            },
            {
              "internalType": "enum ITransactions.TransactionStatus",
              "name": "previousStatus",
              "type": "uint8"
            },
            {
              "internalType": "enum ITransactions.TransactionStatus",
              "name": "status",
              "type": "uint8"
            },
            {
              "internalType": "address",
              "name": "txOrigin",
              "type": "address"
            },
            {
              "internalType": "address",
              "name": "sender",
              "type": "address"
            },
            {
              "internalType": "address",
              "name": "recipient",
              "type": "address"
            },
            {
              "internalType": "address",
              "name": "activator",
              "type": "address"
            },
            {
              "internalType": "uint256",
              "name": "txSlot",
              "type": "uint256"
            },
            {
              "internalType": "uint256",
              "name": "initialRotations",
              "type": "uint256"
            },
            {
              "internalType": "uint256",
              "name": "numOfInitialValidators",
              "type": "uint256"
            },
            {
              "internalType": "uint256",
              "name": "epoch",
              "type": "uint256"
            },
            {
              "internalType": "bytes32",
              "name": "id",
              "type": "bytes32"
            },
            {
              "internalType": "bytes32",
              "name": "randomSeed",
              "type": "bytes32"
            },
            {
              "internalType": "bytes32",
              "name": "txExecutionHash",
              "type": "bytes32"
            },
            {
              "internalType": "bytes32",
              "name": "resultHash",
              "type": "bytes32"
            },
            {
              "internalType": "bytes",
              "name": "txCalldata",
              "type": "bytes"
            },
            {
              "internalType": "bytes",
              "name": "eqBlocksOutputs",
              "type": "bytes"
            },
            {
              "components": [
                {
                  "internalType": "uint256",
                  "name": "activationBlock",
                  "type": "uint256"
                },
                {
                  "internalType": "uint256",
                  "name": "processingBlock",
                  "type": "uint256"
                },
                {
                  "internalType": "uint256",
                  "name": "proposalBlock",
                  "type": "uint256"
                }
              ],
              "internalType": "struct ITransactions.ReadStateBlockRange[]",
              "name": "readStateBlockRanges",
              "type": "tuple[]"
            },
            {
              "internalType": "uint256",
              "name": "validUntil",
              "type": "uint256"
            },
            {
              "internalType": "uint256",
              "name": "value",
              "type": "uint256"
            }
          ],
          "internalType": "struct ITransactions.Transaction",
          "name": "",
          "type": "tuple"
        }
      ],
      "stateMutability": "view",
      "type": "function"
    },
    {
      "inputs": [
        {
          "internalType": "bytes32",
          "name": "_txId",
          "type": "bytes32"
        },
        {
          "internalType": "uint256",
          "name": "_version",
          "type": "uint256"
        }
      ],
      "name": "getTransactionVersionByIndex",
      "outputs": [
        {
          "components": [
            {
              "internalType": "uint256",
              "name": "activationBlock",
              "type": "uint256"
            },
            {
              "internalType": "uint256",
              "name": "processingBlock",
              "type": "uint256"
            },
            {
              "internalType": "uint256",
              "name": "proposalBlock",
              "type": "uint256"
            }
          ],
          "internalType": "struct ITransactions.ReadStateBlockRange",
          "name": "",
          "type": "tuple"
        }
      ],
      "stateMutability": "view",
      "type": "function"
    },
    {
      "inputs": [
        {
          "internalType": "bytes32",
          "name": "_txId",
          "type": "bytes32"
        }
      ],
      "name": "getTransactionVersionCount",
      "outputs": [
        {
          "internalType": "uint256",
          "name": "",
          "type": "uint256"
        }
      ],
      "stateMutability": "view",
      "type": "function"
    },
    {
      "inputs": [
        {
          "internalType": "bytes32",
          "name": "_txId",
          "type": "bytes32"
        }
      ],
      "name": "getTransactionVersions",
      "outputs": [
        {
          "components": [
            {
              "internalType": "uint256",
              "name": "activationBlock",
              "type": "uint256"
            },
            {
              "internalType": "uint256",
              "name": "processingBlock",
              "type": "uint256"
            },
            {
              "internalType": "uint256",
              "name": "proposalBlock",
              "type": "uint256"
            }
          ],
          "internalType": "struct ITransactions.ReadStateBlockRange[]",
          "name": "",
          "type": "tuple[]"
        }
      ],
      "stateMutability": "view",
      "type": "function"
    },
    {
      "inputs": [
        {
          "internalType": "bytes32",
          "name": "_txId",
          "type": "bytes32"
        }
      ],
      "name": "getTxOriginForTxId",
      "outputs": [
        {
          "internalType": "address",
          "name": "",
          "type": "address"
        }
      ],
      "stateMutability": "view",
      "type": "function"
    },
    {
      "inputs": [
        {
          "internalType": "uint256",
          "name": "_epoch",
          "type": "uint256"
        },
        {
          "internalType": "uint256",
          "name": "_offset",
          "type": "uint256"
        },
        {
          "internalType": "uint256",
          "name": "_pageSize",
          "type": "uint256"
        }
      ],
      "name": "getUnfinishedTransactions",
      "outputs": [
        {
          "internalType": "bytes32[]",
          "name": "",
          "type": "bytes32[]"
        }
      ],
      "stateMutability": "view",
      "type": "function"
    },
    {
      "inputs": [
        {
          "internalType": "uint256",
          "name": "_epoch",
          "type": "uint256"
        }
      ],
      "name": "getUnfinishedTransactions",
      "outputs": [
        {
          "internalType": "bytes32[]",
          "name": "",
          "type": "bytes32[]"
        }
      ],
      "stateMutability": "view",
      "type": "function"
    },
    {
      "inputs": [
        {
          "internalType": "address",
          "name": "_account",
          "type": "address"
        }
      ],
      "name": "grantCleanupRole",
      "outputs": [],
      "stateMutability": "nonpayable",
      "type": "function"
    },
    {
      "inputs": [
        {
          "internalType": "bytes32",
          "name": "role",
          "type": "bytes32"
        },
        {
          "internalType": "address",
          "name": "account",
          "type": "address"
        }
      ],
      "name": "grantRole",
      "outputs": [],
      "stateMutability": "nonpayable",
      "type": "function"
    },
    {
      "inputs": [
        {
          "internalType": "bytes32",
          "name": "role",
          "type": "bytes32"
        },
        {
          "internalType": "address",
          "name": "account",
          "type": "address"
        }
      ],
      "name": "hasRole",
      "outputs": [
        {
          "internalType": "bool",
          "name": "",
          "type": "bool"
        }
      ],
      "stateMutability": "view",
      "type": "function"
    },
    {
      "inputs": [
        {
          "internalType": "address",
          "name": "_genConsensus",
          "type": "address"
        }
      ],
      "name": "initialize",
      "outputs": [],
      "stateMutability": "nonpayable",
      "type": "function"
    },
    {
      "inputs": [],
      "name": "owner",
      "outputs": [
        {
          "internalType": "address",
          "name": "",
          "type": "address"
        }
      ],
      "stateMutability": "view",
      "type": "function"
    },
    {
      "inputs": [],
      "name": "pendingOwner",
      "outputs": [
        {
          "internalType": "address",
          "name": "",
          "type": "address"
        }
      ],
      "stateMutability": "view",
      "type": "function"
    },
    {
      "inputs": [
        {
          "internalType": "bytes32",
          "name": "_txId",
          "type": "bytes32"
        }
      ],
      "name": "processIdleness",
      "outputs": [
        {
          "internalType": "enum ITransactions.TransactionStatus",
          "name": "newStatus",
          "type": "uint8"
        },
        {
          "internalType": "enum ITransactions.TransactionStatus",
          "name": "previousStatus",
          "type": "uint8"
        },
        {
          "internalType": "address",
          "name": "recipient",
          "type": "address"
        },
        {
          "internalType": "address",
          "name": "oldLeader",
          "type": "address"
        },
        {
          "internalType": "address",
          "name": "newLeader",
          "type": "address"
        },
        {
          "internalType": "bytes32[]",
          "name": "undeterminedTxIds",
          "type": "bytes32[]"
        },
        {
          "internalType": "bytes32[]",
          "name": "expiredTxIds",
          "type": "bytes32[]"
        }
      ],
      "stateMutability": "nonpayable",
      "type": "function"
    },
    {
      "inputs": [
        {
          "components": [
            {
              "internalType": "bytes32",
              "name": "txId",
              "type": "bytes32"
            },
            {
              "internalType": "address",
              "name": "leader",
              "type": "address"
            },
            {
              "internalType": "uint256",
              "name": "processingBlock",
              "type": "uint256"
            },
            {
              "internalType": "bytes32",
              "name": "txExecutionHash",
              "type": "bytes32"
            },
            {
              "internalType": "bytes",
              "name": "eqBlocksOutputs",
              "type": "bytes"
            }
          ],
          "internalType": "struct ITransactions.ProposeTransactionReceiptParams",
          "name": "params",
          "type": "tuple"
        }
      ],
      "name": "proposeTransactionReceipt",
      "outputs": [
        {
          "internalType": "bool",
          "name": "success",
          "type": "bool"
        },
        {
          "internalType": "address",
          "name": "recipient",
          "type": "address"
        },
        {
          "internalType": "enum ITransactions.TransactionStatus",
          "name": "status",
          "type": "uint8"
        },
        {
          "internalType": "address",
          "name": "newLeader",
          "type": "address"
        },
        {
          "internalType": "uint256",
          "name": "leaderIndex",
          "type": "uint256"
        },
        {
          "internalType": "uint256",
          "name": "round",
          "type": "uint256"
        },
        {
          "internalType": "address[]",
          "name": "roundValidators",
          "type": "address[]"
        }
      ],
      "stateMutability": "nonpayable",
      "type": "function"
    },
    {
      "inputs": [],
      "name": "renounceOwnership",
      "outputs": [],
      "stateMutability": "nonpayable",
      "type": "function"
    },
    {
      "inputs": [
        {
          "internalType": "bytes32",
          "name": "role",
          "type": "bytes32"
        },
        {
          "internalType": "address",
          "name": "callerConfirmation",
          "type": "address"
        }
      ],
      "name": "renounceRole",
      "outputs": [],
      "stateMutability": "nonpayable",
      "type": "function"
    },
    {
      "inputs": [
        {
          "components": [
            {
              "internalType": "bytes32",
              "name": "txId",
              "type": "bytes32"
            },
            {
              "internalType": "bytes32",
              "name": "voteHash",
              "type": "bytes32"
            },
            {
              "internalType": "bytes32",
              "name": "resultVoteHash",
              "type": "bytes32"
            },
            {
              "internalType": "enum ITransactions.VoteType",
              "name": "voteType",
              "type": "uint8"
            },
            {
              "internalType": "address",
              "name": "validator",
              "type": "address"
            },
            {
              "internalType": "uint256",
              "name": "validatorIndex",
              "type": "uint256"
            }
          ],
          "internalType": "struct ITransactions.RevealVoteParams",
          "name": "params",
          "type": "tuple"
        }
      ],
      "name": "revealVote",
      "outputs": [
        {
          "internalType": "bool",
          "name": "success",
          "type": "bool"
        },
        {
          "internalType": "bool",
          "name": "isLastVote",
          "type": "bool"
        },
        {
          "internalType": "enum ITransactions.ResultType",
          "name": "majorVoted",
          "type": "uint8"
        },
        {
          "internalType": "address",
          "name": "recipient",
          "type": "address"
        },
        {
          "internalType": "uint256",
          "name": "round",
          "type": "uint256"
        },
        {
          "internalType": "bool",
          "name": "leaderRotated",
          "type": "bool"
        },
        {
          "components": [
            {
              "internalType": "uint256",
              "name": "round",
              "type": "uint256"
            },
            {
              "internalType": "uint256",
              "name": "leaderIndex",
              "type": "uint256"
            },
            {
              "internalType": "address[]",
              "name": "roundValidators",
              "type": "address[]"
            }
          ],
          "internalType": "struct ITransactions.NewRoundData",
          "name": "newRoundData",
          "type": "tuple"
        },
        {
          "internalType": "bytes32[]",
          "name": "txsForRecomputation",
          "type": "bytes32[]"
        }
      ],
      "stateMutability": "nonpayable",
      "type": "function"
    },
    {
      "inputs": [
        {
          "components": [
            {
              "internalType": "bytes32",
              "name": "txId",
              "type": "bytes32"
            },
            {
              "internalType": "bytes32",
              "name": "txExecutionHash",
              "type": "bytes32"
            },
            {
              "internalType": "bytes32",
              "name": "otherExecutionFieldsHash",
              "type": "bytes32"
            },
            {
              "internalType": "bytes32",
              "name": "messagesAndOtherFieldsHash",
              "type": "bytes32"
            },
            {
              "internalType": "uint256",
              "name": "saltAsAValidator",
              "type": "uint256"
            },
            {
              "internalType": "enum ITransactions.VoteType",
              "name": "txExecutionResult",
              "type": "uint8"
            },
            {
              "internalType": "address",
              "name": "validator",
              "type": "address"
            }
          ],
          "internalType": "struct ITransactions.RevealVoteAsLeaderParams",
          "name": "params",
          "type": "tuple"
        }
      ],
      "name": "revealVoteAsLeader",
      "outputs": [
        {
          "internalType": "address",
          "name": "newLeader",
          "type": "address"
        },
        {
          "internalType": "uint256",
          "name": "leaderIndex",
          "type": "uint256"
        },
        {
          "internalType": "enum ITransactions.TransactionStatus",
          "name": "status",
          "type": "uint8"
        }
      ],
      "stateMutability": "nonpayable",
      "type": "function"
    },
    {
      "inputs": [
        {
          "internalType": "address",
          "name": "_account",
          "type": "address"
        }
      ],
      "name": "revokeCleanupRole",
      "outputs": [],
      "stateMutability": "nonpayable",
      "type": "function"
    },
    {
      "inputs": [
        {
          "internalType": "bytes32",
          "name": "role",
          "type": "bytes32"
        },
        {
          "internalType": "address",
          "name": "account",
          "type": "address"
        }
      ],
      "name": "revokeRole",
      "outputs": [],
      "stateMutability": "nonpayable",
      "type": "function"
    },
    {
      "inputs": [
        {
          "internalType": "address",
          "name": "_genConsensus",
          "type": "address"
        },
        {
          "internalType": "address",
          "name": "_staking",
          "type": "address"
        },
        {
          "internalType": "address",
          "name": "_rounds",
          "type": "address"
        },
        {
          "internalType": "address",
          "name": "_voting",
          "type": "address"
        },
        {
          "internalType": "address",
          "name": "_idleness",
          "type": "address"
        },
        {
          "internalType": "address",
          "name": "_utils",
          "type": "address"
        },
        {
          "internalType": "address",
          "name": "_tribunalAppeal",
          "type": "address"
        },
        {
          "internalType": "address",
          "name": "_appeals",
          "type": "address"
        },
        {
          "internalType": "address",
          "name": "_queues",
          "type": "address"
        }
      ],
      "name": "setExternalContracts",
      "outputs": [],
      "stateMutability": "nonpayable",
      "type": "function"
    },
    {
      "inputs": [
        {
          "internalType": "bytes32",
          "name": "_txId",
          "type": "bytes32"
        },
        {
          "internalType": "uint256",
          "name": "_appealBond",
          "type": "uint256"
        }
      ],
      "name": "submitAppeal",
      "outputs": [
        {
          "internalType": "address[]",
          "name": "appealValidators",
          "type": "address[]"
        },
        {
          "internalType": "uint256",
          "name": "round",
          "type": "uint256"
        },
        {
          "internalType": "address",
          "name": "newLeader",
          "type": "address"
        },
        {
          "internalType": "uint256",
          "name": "leaderIndex",
          "type": "uint256"
        },
        {
          "internalType": "bool",
          "name": "lastRoundLeaderTimeoutOrUndetermined",
          "type": "bool"
        }
      ],
      "stateMutability": "nonpayable",
      "type": "function"
    },
    {
      "inputs": [
        {
          "internalType": "bytes4",
          "name": "interfaceId",
          "type": "bytes4"
        }
      ],
      "name": "supportsInterface",
      "outputs": [
        {
          "internalType": "bool",
          "name": "",
          "type": "bool"
        }
      ],
      "stateMutability": "view",
      "type": "function"
    },
    {
      "inputs": [
        {
          "internalType": "address",
          "name": "newOwner",
          "type": "address"
        }
      ],
      "name": "transferOwnership",
      "outputs": [],
      "stateMutability": "nonpayable",
      "type": "function"
    },
    {
      "inputs": [
        {
          "internalType": "uint256",
          "name": "epoch",
          "type": "uint256"
        },
        {
          "internalType": "uint256",
          "name": "",
          "type": "uint256"
        }
      ],
      "name": "unfinishedTransactions",
      "outputs": [
        {
          "internalType": "bytes32",
          "name": "txIds",
          "type": "bytes32"
        }
      ],
      "stateMutability": "view",
      "type": "function"
    }
  ],
  "bytecode": "0x608080604052346015576175f8908161001b8239f35b600080fdfe608080604052600436101561001357600080fd5b600090813560e01c90816301ffc9a71461334357508063110dd4ca1461331b5780631b059a59146131b05780631dbf24f71461317a578063248a9ca31461315b578063265b2b56146131315780632838322d14612f605780632f2ff15d14612f2e57806336568abe14612ee95780633e48b50814612ece57806341c7a486146129db57806346a4a829146129485780634aae13ca146125d15780634c8eb5e51461259c5780634d39cb821461257057806356e5427c1461252f57806358cec139146124ab5780636047f79414612478578063685876be146124355780636bbd5ad6146122b4578063715018a614612233578063729542c1146121bd57806379ba50971461216c5780637fae3532146121435780638867f591146120fa5780638da5cb5b146120c457806391d148541461206b5780639e9fe6e01461204c578063a217fddf14612030578063b2efda8314611fbd578063c3a2a93a14611e3b578063c4d66de814611c59578063c7e6e76614610ff2578063d3ab81bf14610fbd578063d547741f14610f82578063e181666714610f00578063e30c397814610eca578063e595787214610e01578063f2fde38b14610d79578063f52aa2831461060b578063f5acca7114610364578063f5dee7b6146102235763fb1844ce146101fa57600080fd5b34610220576020366003190112610220576020610218600435615bc3565b604051908152f35b80fd5b503461022057602036600319011261022057600435906001600160401b0382116102205760a06003198336030112610220576040519160a083018381106001600160401b038211176103505760405280600401358352610285602482016134b3565b6020840152604481013560408401526064810135606084015260848101356001600160401b03811161034c576102c0913691016004016136bb565b60808301526002546001600160a01b0316330361033d576103396103106102e684616f03565b9497959690936040939293519889981515895260018060a01b0316602089015260408801906135ed565b6001600160a01b03166060860152608085015260a084015260e060c08401819052830190613408565b0390f35b634782018760e01b8152600490fd5b8280fd5b634e487b7160e01b83526041600452602483fd5b5034610220576020366003190112610220576004356001600160401b0381116106075736602382011215610607578060040135906103a182613711565b916103af604051938461359c565b8083526024602084019160051b8301019136831161060357602401905b8282106105f35750506002546001600160a01b0316330390506105e457818151916103f683613aea565b906104018151613aea565b9261040c8251613aea565b9580805b845181101561055f576104238186613be7565b518252602082815260408320600a5460029091015461047392916001600160a01b039182169116610454858a613be7565b516040516378e6dfbb60e11b8152948593849283929160048401614ce0565b03915afa90811561055457839161051b575b501561050a5761049e6104988287613be7565b51615d0e565b949250979250506000146104df57906104b9600193926144d5565b956104c4838b613be7565b90151590526104d3828c613be7565b90151590525b01610410565b945050916105046001916104f38588613be7565b516104fe828a613be7565b526144d5565b926104d9565b916105046001916104f38588613be7565b90506020813d821161054c575b816105356020938361359c565b8101031261034c57610546906137d7565b38610485565b3d9150610528565b6040513d85823e3d90fd5b8584898b8a868861056f81613aea565b915b8181106105c55750916105a96105b792610339959460405198899889526020890152604088015260c0606088015260c0870190613398565b908582036080870152613728565b9083820360a0850152613728565b806105d26001928a613be7565b516105dd8286613be7565b5201610571565b634782018760e01b8252600482fd5b81358152602091820191016103cc565b8480fd5b5080fd5b5034610220576040366003190112610220576001600160401b0360243511610220576102a0602435360360031901126102205760405161064a81613512565b60243560040135600681101561034c578152602480350135600581101561034c57602082015260446024350135600f81101561034c57604082015260646024350135600f81101561034c5760608201526106a86084602435016134b3565b60808201526106bb60a4602435016134b3565b60a08201526106ce60c4602435016134b3565b60c08201526106e160e4602435016134b3565b60e08201526024356101048101356101008301526101248101356101208301526101448101356101408301526101648101356101608301526101848101356101808301526101a48101356101a08301526101c48101356101c08301526101e48101356101e08301526001600160401b0361020490910135116106075761077336602435610204810135016004016136bb565b6102008201526001600160401b03610224602435013511610607576107a436602435610224810135016004016136bb565b6102208201526001600160401b036102446024350135116106075736602435610244810135016023011215610607576107e96024356102448101350160040135613711565b6107f6604051918261359c565b60248035610244810135016004810135808452602084019236606090920290920190910111610d7557602480356102448101350101905b6024803561024481013501600481013560600201018210610d3957505061024082015260243561026481013561026083015261028401356102808201526002546001600160a01b031633036105e457600435825281602052604082209181516006811015610d255761089f9084614ca9565b60208201516005811015610d25576108b79084614cc1565b6040820151600f811015610d25576108cf9084613a1b565b6060820151600f811015610d25576108e79084613a3c565b60808201518354640100000000600160c01b03191660209190911b640100000000600160c01b031617835560a08201516001840180546001600160a01b03199081166001600160a01b039384161790915560c0840151600286018054831691841691909117905560e08401516003860180549092169216919091179055610100820151600484015561012082015160058401556101408201516006840155610160820151600784015561018082015160088401556101a082015160098401556101c0820151600a8401556101e0820151600b8401556102008201518051600c8501916001600160401b038211610c535781906109e384546137e4565b601f8111610cd5575b50602090601f8311600114610c72578592610c67575b50508160011b916000199060031b1c19161790555b600d83016102208301518051906001600160401b038211610c53578190610a3e84546137e4565b601f8111610c03575b50602090601f8311600114610ba0578592610b95575b50508160011b916000199060031b1c19161790555b61024082015180519190600e850190600160401b8411610350578154848355808510610b1f575b50908252602080832091015b838310610aeb57610260850151600f8701556102808501516010870155610adf85610ad1600435616e01565b610160600435910151616e83565b60206040516004358152f35b6003602082610b13600194518690604060029180518455602081015160018501550151910155565b01920192019190610aa5565b80600302906003820403610b815784600302600381048603610b6d578385526020852091820191015b818110610b555750610a99565b60039085815585600182015585600282015501610b48565b634e487b7160e01b85526011600452602485fd5b634e487b7160e01b84526011600452602484fd5b015190503880610a5d565b8486528186209250601f198416865b818110610beb5750908460019594939210610bd2575b505050811b019055610a72565b015160001960f88460031b161c19169055388080610bc5565b92936020600181928786015181550195019301610baf565b90915083855260208520601f840160051c81019160208510610c49575b90601f859493920160051c01905b818110610c3b5750610a47565b868155849350600101610c2e565b9091508190610c20565b634e487b7160e01b84526041600452602484fd5b015190503880610a02565b8486528186209250601f198416865b818110610cbd5750908460019594939210610ca4575b505050811b019055610a17565b015160001960f88460031b161c19169055388080610c97565b92936020600181928786015181550195019301610c81565b90915083855260208520601f840160051c81019160208510610d1b575b90601f859493920160051c01905b818110610d0d57506109ec565b868155849350600101610d00565b9091508190610cf2565b634e487b7160e01b82526021600452602482fd5b606082360312610603576020606091604051610d548161354a565b8435815282850135838201526040850135604082015281520191019061082d565b8380fd5b503461022057602036600319011261022057610d93613471565b610d9b615bf2565b6000805160206175a383398151915280546001600160a01b0319166001600160a01b03928316908117909155600080516020617503833981519152549091167f38d16b8cac22d99fc7c124b9cd0de2d3fa1faef420bfe791d8c362d765e227008380a380f35b50346102205760e0366003190112610220576040519060e082018281106001600160401b03821117610eb6576040526004358252602435602083015260443560408301526064356060830152608435608083015260a43560058110156106075760a0830152610e6e61349d565b60c08301526002546001600160a01b0316330361033d576060610eb4610e93846169b5565b906040939293519360018060a01b03168452602084015260408301906135ed565bf35b634e487b7160e01b82526041600452602482fd5b50346102205780600319360112610220576000805160206175a3833981519152546040516001600160a01b039091168152602090f35b503461022057610f0f366133f2565b9190610f19614a9f565b5080825281602052600e604083200154831015610f7357606092600e604084610f4c94610f529652806020522001613bfb565b506141ce565b610eb460405180926040809180518452602081015160208501520151910152565b63a9146eeb60e01b8252600482fd5b503461022057604036600319011261022057610fb9600435610fa2613445565b90610fb4610faf82613aa8565b614d49565b61593e565b5080f35b503461022057602036600319011261022057610fb9610fda613471565b610fe2615bf2565b610fed610faf613a5f565b6158a8565b50346102205760203660031901126102205760025460043591906001600160a01b0316330361033d57818152806020526040812060ff815460181c1692600f841015611bce578315611c4a57600480546040516384c2483160e01b815291820183905260609591948694909384939284906001600160a01b03168189602481845afa80156115755782998391611c22575b508299600187146000146114355750505080600f840154801515908161142b575b50611423575b600654600385018054600987015460405163280094e960e21b8152600481018790526001600160a01b0392831660248201526044810191909152608060648201529193928591839116818381611103608482018d6138a1565b03925af191821561141857849185938694879288926113ea575b50611385575b50506112c4575b6112a2575b50505b8851611223575b60ff835460181c169761120f57600f88101561120f575092826111906111869996936111bc9661033999968b036111ca575b50600260018060a01b0391015416916040519a8b809b6135ed565b60208a01906135ed565b60408801526001600160a01b03908116606088015216608086015260e060a08601819052850190613398565b9083820360c0850152613398565b7ffaf1928d3a3ff7eeb812a61cff434e2054765f37de74057fb2da4245373bdf7760408c6112088251916111fe838a6135ed565b60208301906135ed565ba23861116b565b634e487b7160e01b81526021600452602490fd5b9593918697959391975b898051821015611293579061128d8261128683600760408e6112518460019a613be7565b51815280602052818120630800000063ff000000198254161790556112768487613be7565b5181528060205220015492613be7565b5190616790565b0161122d565b50509193959690929496611139565b81546001600160a01b0319166001600160a01b0391909116179055388061112f565b9794918b9a9794999693919b519b60018d01809d11611371576112e78c9d613aea565b9983808e5b5181101561132f578d8f828f6113058261131694613be7565b516113108383613be7565b52613be7565b5114611326575b6001018e6112ec565b6001915061131d565b50909294979a919395989b96999c501561135b575b50855463ff0000001916630800000017865561112a565b909b61136986915183613be7565b529a38611344565b634e487b7160e01b83526011600452602483fd5b98959d50809b509b989592909b999693919997998d5b8c518110156113d557808f6040908f6001946113b691613be7565b5181528060205220630600000063ff000000198254161790550161139b565b50919396999c94979a509194979a3880611123565b93955050505061140c91503d8086833e611404818361359c565b810190613b79565b9194929091903861111d565b6040513d86823e3d90fd5b5060016110aa565b90504211386110a4565b9690979199508299600287148015611c13575b8b901561161d575050505060e08601516020909601805190966001600160a01b039161147391613be7565b51169460018060a01b036006541696826040518099631be0456560e21b8252826004830152896024830152606060448301528183816114b5606482018c6138a1565b03925af18015610554578390849985869187936115f8575b509a611596575b50805161158e575b50156115805760018060a01b0360045416905191813b15610d7557918391898361151e9560405196879586948593638858751360e01b85528c600486016144ab565b03925af1801561157557908291611560575b505060ff835460181c16600f811015610d2557600e0361113257825463ff00000019166302000000178355611132565b8161156a9161359c565b610220578038611530565b6040513d84823e3d90fd5b505094509250839284611132565b9b50386114dc565b809b509c9996939197949c9b989592909b978d5b8c518110156115e457808f6040908f6001946115c591613be7565b5181528060205220630600000063ff00000019825416179055016115aa565b50919396999c94979a509194979a386114d4565b93505050506116129198503d8085833e611404818361359c565b929a939291386114cd565b989298979197611bff57600387148015611bf0575b8b9015611a665750506006546040805163607a70db60e01b8152600481019190915290849082906001600160a01b0316818381611687611675604483018e6138a1565b8281036003190160248401528a6143ca565b03925af19182156114185784938593869587948892611961575b506118f5575b5082516116b9575b5050505050611132565b849d99508591959c98949b97939c9a96929a508c6000146118ea5760e081015160208201516001600160a01b03916116f19190613be7565b511690959c9d505b94819c60e082019d5b8d5181101561174b579e8e9f8e9f908f918f600193611739846117409361172f82898060a01b0392613be7565b5116945192613be7565b5190613be7565b5201909f9e50611702565b5092969a9195999d9093979b94989c86905151905b8181106118e25750506004546001600160a01b0316803b156118de57866040518092631955473560e11b82528a6004830152866024830152606060448301528183816117af606482018c6143ca565b03925af180156118d3579087916118ba575b50506117ce575b806116af565b939a9998509096959493928a92835b81518110156118a8576117f08183613be7565b5160208b015114611803576001016117dd565b90506118219192939495969798999a9b5060018060a01b0392613be7565b5116965b87602060018060a01b036004541692015192823b156106035791611865939185809460405196879586948593638858751360e01b85528c600486016144ab565b03925af1801561157557908291611893575b5050825463ff00000019166302000000178355388080806117c8565b8161189d9161359c565b610220578038611877565b50505090919293949598969798611825565b816118c49161359c565b6118cf5785386117c1565b8580fd5b6040513d89823e3d90fd5b8680fd5b600101611760565b8190959c9d506116f9565b809c509d9a979492909d9c9996939198959c988d5b8d5181101561194c579e8e9f8e9f908f60019261192983604093613be7565b5181528060205220630600000063ff0000001982541617905501909f9e5061190a565b50919396999c95989b50919396999c386116a7565b96505050915091503d8085853e611978818561359c565b83019160a0848403126106035761198e846137d7565b9161199b602086016137d7565b60408601516001600160401b038111611a625786019480601f87011215611a62578551956119c887613711565b966119d6604051988961359c565b80885260208089019160051b83010191838311611a5e57602001905b828210611a4e575050508d8701516001600160401b038111611a4a5781611a1a918901613772565b966080810151906001600160401b038211611a4657611a3a929101613b1c565b939094959390386116a1565b8980fd5b8880fd5b81518152602091820191016119f2565b8a80fd5b8780fd5b90919250611bce57600486148015611be2575b611a85575b5050611132565b6006546001600160a01b031699611bce5760646040849b81519283809263b800631160e01b8252896004830152611abf602483018d6135ed565b4260448301525afa908115611418578493929184918291611b86575b50611ae8575b5050611a7e565b8391611af2614b66565b50611afb614bbe565b50604051809581809463ecc2710d60e01b825260406004830152611b22604483018d6138a1565b901515602483015203925af180156105545790611b4f9291849085869387958893611b57575b5088615fc2565b829138611ae1565b935094505050611b7991503d8086833e611b71818361359c565b810190614c06565b9095919450919038611b48565b9293945050506040813d604011611bc6575b81611ba56040938361359c565b81010312610d75579081611bbf60208695945192016137d7565b9038611adb565b3d9150611b98565b634e487b7160e01b83526021600452602483fd5b509850819860098614611a79565b509299508992600a8714611632565b634e487b7160e01b84526021600452602484fd5b509299508992600e8714611448565b9050611c419199503d8084833e611c39818361359c565b810190614b39565b98909838611083565b6331fb878f60e01b8352600483fd5b503461022057602036600319011261022057611c73613471565b600080516020617583833981519152549060ff8260401c1615916001600160401b03811680159081611e33575b6001149081611e29575b159081611e20575b50611e115767ffffffffffffffff1981166001176000805160206175838339815191525582611de4575b50611ce56174b4565b611ced6174b4565b611cf56174b4565b3315611dd057611d0433615c28565b611d0c6174b4565b611d146174b4565b60017f9b779b17422d0df92223018b32b4d1fa46e071723d6817e2486d003becc55f0055611d406174b4565b600280546001600160a01b0319166001600160a01b0392909216919091179055611d69336156eb565b50611d7333615777565b50611d7b5780f35b60ff60401b196000805160206175838339815191525416600080516020617583833981519152557fc7f505b2f371ae2175ee4913f4499e1f2633a7b5936321eed1cdaeb6115181d2602060405160018152a180f35b631e4fbdf760e01b83526004839052602483fd5b68ffffffffffffffffff191668010000000000000001176000805160206175838339815191525538611cdc565b63f92ee8a960e01b8452600484fd5b90501538611cb2565b303b159150611caa565b849150611ca0565b5034610220578060031936011261022057610100604051611e5b8161352e565b8281528260208201528260408201528260608201528260808201528260a08201528260c08201528260e08201520152610120604051611e998161352e565b60018060a01b03600254169081815260018060a01b03600354166020820190815260018060a01b03600454166040830190815260018060a01b03600554166060840190815260018060a01b03600654166080850190815260018060a01b03600754169160a0860192835260018060a01b03600854169360c0870194855260018060a01b03600954169560e0880196875261010060018060a01b03600a5416980197885260405198895260018060a01b03905116602089015260018060a01b03905116604088015260018060a01b03905116606087015260018060a01b03905116608086015260018060a01b0390511660a085015260018060a01b0390511660c084015260018060a01b0390511660e083015260018060a01b03905116610100820152f35b5034610220576020366003190112610220576002546001600160a01b0316330361033d57611fec600435615d0e565b9394929092156120215760a0955060405194600180881b03168552602085015260408401521515606083015215156080820152f35b6390cb8b6160e01b8652600486fd5b5034610220578060031936011261022057602090604051908152f35b5034610220576020366003190112610220576060610f52600435614acb565b5034610220576040366003190112610220576040612087613445565b916004358152600080516020617563833981519152602052209060018060a01b0316600052602052602060ff604060002054166040519015158152f35b5034610220578060031936011261022057600080516020617503833981519152546040516001600160a01b039091168152602090f35b503461022057604036600319011261022057602435906004358152600160205260408120908154831015610220576020612134848461368d565b90549060031b1c604051908152f35b503461022057806003193601126102205760206040516000805160206175238339815191528152f35b50346102205780600319360112610220576000805160206175a383398151915254336001600160a01b03909116036121aa576121a733615c28565b80f35b63118cdaa760e01b815233600452602490fd5b5034610220576020366003190112610220576002546001600160a01b0316330361033d57600435815280602052604081209060ff825460181c16600f811015610d25576005146122245750630600000063ff00000019825416179055602060405160018152f35b631ef6a8ad60e21b8152600490fd5b503461022057806003193601126102205761224c615bf2565b6000805160206175a383398151915280546001600160a01b03199081169091556000805160206175038339815191528054918216905581906001600160a01b03167f8be0079c531659141344cd1fd0a4f28419497f9722a3daafe3b4186f6b6457e08280a380f35b503461022057610120366003190112610220576122cf613471565b6122d7613445565b906122e0613487565b906064356001600160a01b03811690819003610603576122fe61345b565b60a4356001600160a01b03811692908390036118de5761231c61349d565b9160e4359560018060a01b038716809703611a4a57610104356001600160a01b0381169890899003611a4657612350615bf2565b6040516001600160a01b0395861697938616959283169391909216919089906101009061237c8461352e565b6001600160a01b03168084526020840185905260408401869052606084018790526080840188905260a0840189905260c084018a905260e084018b9052920152600280546001600160a01b03199081169092179055600380548216909217909155600480548216909217909155600580548216909217909155600680548216909217909155600780548216909217909155600880548216909217909155600980548216909217909155600a805490911691909117905580f35b5034610220576020366003190112610220576124646103399160406004359182815260016020522054906159de565b604051918291602083526020830190613398565b50346102205761033961249b61248d366134c7565b91612496614cfb565b615244565b90604094929451948594856133cc565b5034610220576080366003190112610220576124c5613487565b6002549091906001600160a01b0316330361033d576103396124ef606435846024356004356144fa565b91604095939551958695151586521515602086015260018060a01b0316604085015260018060a01b0316606084015260a0608084015260a0830190613398565b50346102205760203660031901126102205761255c600e60406103399360043581528060205220016141f6565b60405191829160208352602083019061363b565b503461022057602036600319011261022057600e60406020926004358152808452200154604051908152f35b503461022057602036600319011261022057610fb96125b9613471565b6125c1615bf2565b6125cc610faf613a5f565b6156eb565b503461022057602036600319011261022057806102806040516125f381613512565b8281528260208201528260408201528260608201528260808201528260a08201528260c08201528260e08201528261010082015282610120820152826101408201528261016082015282610180820152826101a0820152826101c0820152826101e0820152606061020082015260606102208201526060610240820152826102608201520152600435815280602052604081206040519061269382613512565b805460ff8116600681101561293457835260ff8160081c16600581101561293457839450602060109401526126d060ff82851c16604086016141c2565b6126e360ff8260181c16606086016141c2565b60201c6001600160a01b0390811660808501526001820154811660a08501526002820154811660c085015260038201541660e08401526004810154610100840152600581015461012084015260068101546101408401526007810154610160840152600881015461018084015260098101546101a0840152600a8101546101c0840152600b8101546101e084015260405161278c8161278581600c860161381e565b038261359c565b6102008401526040516127a68161278581600d860161381e565b6102208401526127b8600e82016141f6565b610240840152600f81015461026084015201546102808201526040518091602082526127e86020830182516135bd565b6127fa602082015160408401906135e0565b61280c604082015160608401906135ed565b61281e606082015160808401906135ed565b60018060a01b0360808201511660a083015260018060a01b0360a08201511660c083015260018060a01b0360c08201511660e083015260018060a01b0360e0820151166101008301526101008101516101208301526101208101516101408301526101408101516101608301526101608101516101808301526101808101516101a08301526101a08101516101c08301526101c08101516101e08301526101e081015161020083015261028061291d6129056128ed6102008501516102a06102208801526102c08701906135fa565b610220850151868203601f19016102408801526135fa565b610240840151858203601f190161026087015261363b565b916102608101518285015201516102a08301520390f35b634e487b7160e01b85526021600452602485fd5b503461022057608036600319011261022057612962613445565b6002549091906001600160a01b0316330361033d576129cd6111bc61033961299260643560443587600435613c17565b95979498929093604051998a9915158a52151560208a015260018060a01b03166040890152606088015260e0608088015260e0870190613408565b9085820360a0870152613398565b50346102205760c036600319011261022057604051906129fa826134e1565b600435825260208201602435815260408301906044358252606435906005821015610d755760608501918252612a2e61345b565b916080860192835260a0860160a4358152612a47613ac9565b506002546001600160a01b03163303612ebf57612a62613ac9565b916060938851885287602052604088209260018060a01b0360045416918a51976040519863ba15d63560e01b8a5260048a0152602089602481875afa988915612eb4578b99612e7b575b508b519060405191635af5446960e01b835260048301528960248301528b82604481885afa918215612e70578c92612e4b575b5060075487546001600160a01b03919091169060181c60ff1660018c16612e43576004915b803b15612e3f5760448f92612b3292612b3c6040519687958694633813abfb60e21b865260048601906135ed565b60248401906135ed565b5afa8015612e3457908d91612e1b575b505060e082015184516001600160a01b0391612b689190613be7565b51915191166001600160a01b0390911603612e0c57612b8e610100820151845190613be7565b516005811015612df857612de95761012001518251612bac91613be7565b51905103612dda57612bbc614b66565b50612bc5614bbe565b5051965160018060a01b03600554169251976005891015612dc657604051630a677f5b60e41b815260c06004820152988a948a94938593879385938d93612c3293612c1360c488018e6138a1565b95602488015260448701526064860152608485015260a48401906135e0565b03925af1908115612dbb578680968193828392848093612d0c575b5050899a9b6103399a612ce2575b505050505090612cd4939460409392600260018060a01b0391015416612c9385519a8b9a60018c52151560208c0152868b01906135bd565b60608901526080880152151560a087015261010060c08701528051610100870152602081015161012087015201516060610140860152610160850190613408565b9083820360e0850152613398565b612cd498506040975091869596918a612cfd96959451615fc2565b94909391929186913880612c5b565b96509a50505050509694503d8082883e612d26818861359c565b86019661010087890312610607578651600681101561034c57612d4b602089016137d7565b97612d58604082016137d7565b612d64606083016137d7565b94608083015190600f8210156102205760a0840151906001600160401b03821161022057508c60c0612da06103399d9e9f612da794880161424f565b9501614bd7565b939b9a8b9296919394929a819d9c50612c4d565b6040513d88823e3d90fd5b634e487b7160e01b8a52602160045260248afd5b636aee863360e11b8952600489fd5b631923561b60e11b8b5260048bfd5b634e487b7160e01b8c52602160045260248cfd5b631a0a9b9f60e21b8b5260048bfd5b81612e259161359c565b612e30578b38612b4c565b8b80fd5b6040513d8f823e3d90fd5b8e80fd5b600991612b04565b612e699192508c3d8091833e612e61818361359c565b8101906143a5565b9038612adf565b6040513d8e823e3d90fd5b9098506020813d602011612eac575b81612e976020938361359c565b81010312612ea757519738612aac565b600080fd5b3d9150612e8a565b6040513d8d823e3d90fd5b634782018760e01b8652600486fd5b503461022057610339612464612ee3366134c7565b91615ab5565b503461022057604036600319011261022057612f03613445565b336001600160a01b03821603612f1f57610fb99060043561593e565b63334bd91960e11b8252600482fd5b503461022057604036600319011261022057610fb9600435612f4e613445565b90612f5b610faf82613aa8565b615811565b50346102205760403660031901126102205760043590612f7e613445565b6002549091906001600160a01b0316330361033d57828152602081905260408120916001600160a01b0316806130a0575060018060a01b036007541660ff835460181c16813b1561034c57612fec606484926040519485938492630b9fb4af60e01b845260048401906135ed565b60016024830152600260448301525afa80156115755790829161308b575b5050600f82015480159081159081613070575b505061306157506130536040925b630800000063ff00000019845416178355600760018060a01b03600285015416930154616790565b815190600182526020820152f35b636257ec7d60e11b8152600490fd5b90915081613081575b50388061301d565b9050421038613079565b816130959161359c565b61022057803861300a565b9060018060a01b036007541660ff845460181c16813b1561034c576130de604484926040519485938492633813abfb60e21b845260048401906135ed565b600160248301525afa801561157557613121575b509060018060a01b0360018401541603613112575061305360409261302b565b63f5963d6560e01b8152600490fd5b8161312b9161359c565b386130f2565b50346102205760203660031901126102205760406020916004358152600183522054604051908152f35b5034610220576020366003190112610220576020610218600435613aa8565b5034610220576020366003190112610220576004358152602081815260409182902054915191811c6001600160a01b0316825290f35b5034610220576131bf366133f2565b826131fe60018060a01b0360095416848352826020526040832083604051809681958294635a00ece160e11b84526040600485015260448401906138a1565b90602483015203925af18015610554578392849285908692879488928991613287575b509061324861324d939260408b846132619d52806020528181209481528060205220613a1b565b613a3c565b60405195869560a0875260a0870190613408565b60208601949094526001600160a01b031660408501526060840152151560808301520390f35b9650509550505050503d8084833e61329f818361359c565b810160e082820312610d75578151906001600160401b038211610603576132c7918301613772565b906020810151926132da6040830161375e565b926060830151906132ed608085016137d7565b9260a085015194600f861015611a4a5760c0015191600f831015611a4a579695939492939291613248613221565b503461022057602036600319011261022057613335614cfb565b61033961249b600435614d93565b9050346106075760203660031901126106075760043563ffffffff60e01b811680910361034c5760209250637965db0b60e01b8114908115613387575b5015158152f35b6301ffc9a760e01b14905038613380565b906020808351928381520192019060005b8181106133b65750505090565b82518452602093840193909201916001016133a9565b90926080926133ef95948352602083015260408201528160608201520190613398565b90565b6040906003190112612ea7576004359060243590565b906020808351928381520192019060005b8181106134265750505090565b82516001600160a01b0316845260209384019390920191600101613419565b602435906001600160a01b0382168203612ea757565b608435906001600160a01b0382168203612ea757565b600435906001600160a01b0382168203612ea757565b604435906001600160a01b0382168203612ea757565b60c435906001600160a01b0382168203612ea757565b35906001600160a01b0382168203612ea757565b6060906003190112612ea757600435906024359060443590565b60c081019081106001600160401b038211176134fc57604052565b634e487b7160e01b600052604160045260246000fd5b6102a081019081106001600160401b038211176134fc57604052565b61012081019081106001600160401b038211176134fc57604052565b606081019081106001600160401b038211176134fc57604052565b61016081019081106001600160401b038211176134fc57604052565b604081019081106001600160401b038211176134fc57604052565b90601f801991011681019081106001600160401b038211176134fc57604052565b9060068210156135ca5752565b634e487b7160e01b600052602160045260246000fd5b9060058210156135ca5752565b90600f8210156135ca5752565b919082519283825260005b848110613626575050826000602080949584010152601f8019910116010190565b80602080928401015182828601015201613605565b906020808351928381520192019060005b8181106136595750505090565b909192602060608261368260019488516040809180518452602081015160208501520151910152565b01940192910161364c565b80548210156136a55760005260206000200190600090565b634e487b7160e01b600052603260045260246000fd5b81601f82011215612ea7578035906001600160401b0382116134fc57604051926136ef601f8401601f19166020018561359c565b82845260208383010111612ea757816000926020809301838601378301015290565b6001600160401b0381116134fc5760051b60200190565b906020808351928381520192019060005b8181106137465750505090565b82511515845260209384019390920191600101613739565b51906001600160a01b0382168203612ea757565b9080601f83011215612ea757815161378981613711565b92613797604051948561359c565b81845260208085019260051b820101928311612ea757602001905b8282106137bf5750505090565b602080916137cc8461375e565b8152019101906137b2565b51908115158203612ea757565b90600182811c92168015613814575b60208310146137fe57565b634e487b7160e01b600052602260045260246000fd5b91607f16916137f3565b6000929181549161382e836137e4565b8083529260018116908115613884575060011461384a57505050565b60009081526020812093945091925b83831061386a575060209250010190565b600181602092949394548385870101520191019190613859565b915050602093945060ff929192191683830152151560051b010190565b9081546138b18260ff83166135bd565b6138c46020830160ff8360081c166135e0565b6138d76040830160ff8360101c166135ed565b6138ea6060830160ff8360181c166135ed565b60201c6001600160a01b0390811660808301526001830154811660a08301526002830154811660c083015260038301541660e08201526004820154610100820152600582015461012082015260068201546101408201526007820154610160820152600882015461018082015260098201546101a0820152600a8201546101c0820152600b8201546101e08201526102a061020082018190526139a890613996908301600c850161381e565b828103610220840152600d840161381e565b91600e8101928281036102408401526020845491828152019360005260206000209060005b8181106139f057505050601081600f610280930154610260850152015491015290565b82548652600180840154602088015260028401546040880152606090960195600390930192016139cd565b90600f8110156135ca5762ff000082549160101b169062ff00001916179055565b90600f8110156135ca5763ff00000082549160181b169063ff0000001916179055565b6000805160206175238339815191526000526000805160206175638339815191526020527f0c1e2cca036199566808b125767fd2bf139be2138628b4c0441c352eb2e8b4ef5490565b60005260008051602061756383398151915260205260016040600020015490565b60405190613ad68261354a565b606060408360008152600060208201520152565b90613af482613711565b613b01604051918261359c565b8281528092613b12601f1991613711565b0190602036910137565b9080601f83011215612ea7578151613b3381613711565b92613b41604051948561359c565b81845260208085019260051b820101928311612ea757602001905b828210613b695750505090565b8151815260209182019101613b5c565b91909160a081840312612ea757613b8f816137d7565b92613b9c602083016137d7565b92613ba96040840161375e565b9260608101516001600160401b038111612ea75783613bc9918301613b1c565b9260808201516001600160401b038111612ea7576133ef9201613b1c565b80518210156136a55760209160051b010190565b80548210156136a5576000526003602060002091020190600090565b9092916000908194606091606095858552846020526040852092600f84015480151590816141b8575b5061406a5760018060a01b036007541660ff855460181c16813b15611a6257613c82604489926040519485938492633813abfb60e21b845260048401906135ed565b600160248301525afa80156118d357908791614055575b50506009840183815560065460038601805460405163280094e960e21b81526001600160a01b039586166004820181905291861660248201526044810196909652608060648701529294909390918991839116818381613cfc608482018d6138a1565b03925af1908115613f8457889089928a938b928c92614030575b50613fb0575050613f8f575b506004805460405163ba15d63560e01b81529182018a9052602090829060249082906001600160a01b03165afa908115613f84578891613f52575b50159182613f3d575b5050613f2e57630200000063ff000000198454161783555560018060a01b0360045416938360405180966325e101dd60e01b825260206004830152818381613db160248201896138a1565b03925af1938415613f2257809481968291613eca575b509594613e61576006546001600160a01b0316803b1561060757604051634e8eb8bd60e01b815260048101849052600260248201524260448201529082908290606490829084905af1801561157557613e4c575b5050613e29613e3291615bc3565b600e8301613bfb565b50439055600201546001966001600160a01b039091169490565b613e5782809261359c565b6102205780613e1b565b979650509350505050630600000063ff00000019825416179055602091604051613e8b848261359c565b8181526000368137604051613ea0858261359c565b828152600036813760405194613eb6818761359c565b838652506000368137829483948493929190565b95505094503d8086863e613ede818661359c565b84019460608587031261022057613ef4856137d7565b9560208601516001600160401b03811161034c57604091613f16918801613772565b95015195949538613dc7565b604051903d90823e3d90fd5b635ab554a760e11b8552600485fd5b546001600160a01b0316141590503880613d66565b90506020813d602011613f7c575b81613f6d6020938361359c565b81010312612ea7575138613d5d565b3d9150613f60565b6040513d8a823e3d90fd5b82546001600160a01b0319166001600160a01b039190911617825538613d22565b999b509c9950505050505050945050825b8551811015613ff95780613fd760019288613be7565b5185528460205260408520630600000063ff0000001982541617905501613fc1565b5060029093015460405191946001600160a01b03919091169361401d60208461359c565b8383526000368137839584959493929190565b935050505061404991503d808a833e611404818361359c565b91939290919038613d16565b8161405f9161359c565b6118cf578538613c99565b50505093505080935050808352826020526040832060018060a01b036007541660ff825460181c16813b156118cf576140bc606487926040519485938492630b9fb4af60e01b845260048401906135ed565b60016024830152600260448301525afa80156141ad57614199575b50600f8101548015908115908161417e575b505061416f57805463ff000000191663080000001781556007015461410e9190616790565b600201546040516001600160a01b039091169190602061412e818361359c565b828252600036813760405190614144818361359c565b83825260003681376040519061415a818361359c565b84825250600036813783956001959493929190565b636257ec7d60e11b8452600484fd5b9091508161418f575b5038806140e9565b9050421038614187565b846141a69195929561359c565b92386140d7565b6040513d87823e3d90fd5b9050421138613c40565b600f8210156135ca5752565b906040516141db8161354a565b60406002829480548452600181015460208501520154910152565b90815461420281613711565b92614210604051948561359c565b818452602084019060005260206000206000915b8383106142315750505050565b60036020600192614241856141ce565b815201920192019190614224565b919061016083820312612ea7576040519061426982613565565b8193805183526020810151602084015260408101516040840152606081015160608401526080810151608084015260a081015160a084015260c08101516006811015612ea75760c084015260e08101516001600160401b038111612ea757826142d3918301613772565b60e08401526101008101516001600160401b038111612ea757810182601f82011215612ea757805161430481613711565b91614312604051938461359c565b81835260208084019260051b82010190858211612ea757602001915b81831061438c575050506101008401526101208101516001600160401b038111612ea7578261435e918301613b1c565b610120840152610140810151916001600160401b038311612ea757610140926143879201613b1c565b910152565b82516005811015612ea75781526020928301920161432e565b90602082820312612ea75781516001600160401b038111612ea7576133ef920161424f565b919091805183526020810151602084015260408101516040840152606081015160608401526080810151608084015260a081015160a084015261441560c082015160c08501906135bd565b61443060e082015161016060e0860152610160850190613408565b92610100820151938181036101008301526020808651928381520195019060005b81811061448c5750505061014061447a6133ef9495610120850151848203610120860152613398565b92015190610140818403910152613398565b909195602080826144a06001948b516135e0565b019701929101614451565b90949360019360809360a084019784526020840152848060a01b0316604083015260608201520152565b60001981146144e45760010190565b634e487b7160e01b600052601160045260246000fd5b9091600080928194829482845283602052604084209160018060a01b0360045416906040519063ba15d63560e01b8252856004830152602082602481865afa9182156118d35787908193614a68575b506044929360405193848092635af5446960e01b82528a60048301528760248301525afa9182156118d3578792614a4c575b50600754855460018516159c916001600160a01b03169060181c60ff168d15614a44576003915b803b15611a5e5760448b92612b32926145d06040519687958694633813abfb60e21b865260048601906135ed565b5afa801561484f57614a30575b506145ed81610120850151613be7565b51614a215760065460405163e2bb65f960e01b81526001600160a01b038b811660048301819052606060248401529b91928b91849116818381614633606482018f6138a1565b818103600319016044830152614649908c6143ca565b03925af19a8b15614a16578a8b9c8c948d916149a7575b50809d61493f57501561491157505080602085018051841461485a5750505b604084019461468e86516144d5565b958690526004546001600160a01b0316803b15611a5e57908a9160405193849263998f979960e01b84528c6004850152602484015260018060a01b031694856044840152866064840152608483015260c060a48301528183816146f460c482018b6143ca565b03925af1801561484f5790899161483a575b505060018060a01b0360085416614727610140850151602086015190613be7565b5192813b15611a4657888a8094936084936040519788968795636561e0c760e11b875260048701526024860152604485015260648401525af180156118d357908791614825575b505060e00151519080820361480557505050614796906001976000146147fd57600e90613a3c565b6006546001600160a01b031690813b1561034c578291606483926040519485938492634e8eb8bd60e01b84526004840152600460248401524260448401525af18015611575576147e8575b5050600194565b6147f382809261359c565b61022057806147e1565b600990613a3c565b925092509650116148165750600194565b6333c716e760e21b8152600490fd5b8161482f9161359c565b6118cf57853861476e565b816148449161359c565b611a62578738614706565b6040513d8b823e3d90fd5b9b509c505050505094505090919450630200000063ff0000001982541617905560018060a01b0360045416925192803b15610603578492918360a4926040519687958694638858751360e01b86526004860152602485015260018060a01b038a16604485015260648401528160848401525af18015611575579082916148fc575b50506040516148eb60208261359c565b818152600036813781938293929190565b816149069161359c565b6102205780386148db565b90915060018060a01b036149298460e0880151613be7565b51161461467f57631a0a9b9f60e21b8952600489fd5b9e5050505050505050505096935050935050825b825181101561498b578061496960019285613be7565b5185528460205260408520630600000063ff0000001982541617905501614953565b506002909301549192839283926001600160a01b039190911691565b9d50505091503d808b8d3e6149bc818d61359c565b8b019160808c840312611a5e578b6149d3816137d7565b936149ec60406149e5602085016137d7565b930161375e565b9d6060810151906001600160401b038211612e3f57614a0c929101613b1c565b93909c9338614660565b6040513d8c823e3d90fd5b6333c716e760e21b8852600488fd5b88614a3d9199929961359c565b96386145dd565b600a916145a2565b614a619192503d8089833e612e61818361359c565b903861457b565b919250506020813d602011614a97575b81614a856020938361359c565b810103126118de575190866044614549565b3d9150614a78565b60405190614aac8261354a565b60006040838281528260208201520152565b919082039182116144e457565b614ad3614a9f565b50806000526000602052600e60406000200154908115614b16576000526000602052600e60406000200160001982019182116144e4576133ef91610f4c91613bfb565b5050604051614b248161354a565b60008152600060208201526000604082015290565b919091604081840312612ea75780519260208201516001600160401b038111612ea7576133ef920161424f565b60405190614b7382613565565b60606101408360008152600060208201526000604082015260008382015260006080820152600060a0820152600060c08201528260e082015282610100820152826101208201520152565b60405190614bcb82613581565b60006020838281520152565b9190826040910312612ea757604051614bef81613581565b6020808294614bfd8161375e565b84520151910152565b909160e082840312612ea75781516006811015612ea75792614c2a602084016137d7565b92614c37604082016137d7565b926060820151600f811015612ea757926080830151906001600160401b038211612ea75760a0614c6c826133ef94870161424f565b9401614bd7565b6001600160a01b039182168152911660208201526060604082018190526133ef929101906138a1565b919082018092116144e457565b9060068110156135ca5760ff80198354169116179055565b9060058110156135ca5761ff0082549160081b169061ff001916179055565b6001600160a01b039091168152602081019190915260400190565b336000908152600080516020617543833981519152602052604090205460ff1615614d2257565b63e2517d3f60e01b6000523360045260008051602061752383398151915260245260446000fd5b60008181526000805160206175638339815191526020908152604080832033845290915290205460ff1615614d7b5750565b63e2517d3f60e01b6000523360045260245260446000fd5b600090600090600093818552600160205260408520916040518084602082965493848152019089526020892092895b81811061522b575050614dd79250038461359c565b82519586158015615226575b6152035750606495806064116151fb575b5085614dff81613aea565b9360009081905b838210614e95575050818110614e51575b5060607f70fe4666e4cf63d4ac96540435d610c85bb0fc84e3b35fcd39ba7efbf45e0c1891604051908152876020820152866040820152a2565b614e5d81959295613aea565b9160005b828110614e7657509194915060609050614e17565b80614e8360019284613be7565b51614e8e8287613be7565b5201614e61565b9097614ea18983613be7565b519889600052600060205260406000209160ff835460181c16600f81101590816135ca576007811480156151ed575b6151e057600f85015480151590816151d6575b501561505e575050825463ff00000019166308000000178355614f1e90614f0a8c89616790565b8b6104fe614f17886144d5565b978c613be7565b600a54600290930154604051634113628960e11b8152919b6001600160a01b0394851694909291169060208180614f59868660048401614ce0565b0381885afa90811561501957600091615025575b50614fa5575b50600192507fdecc068a49633f4a89136211fcf06f0c95bb0756be29aaba7e7eec56da7945c5600080a25b0190614e06565b81614fcb946020926000604051809881958294639c88381960e01b845260048401614ce0565b03925af1801561501957614fe0575b82614f73565b6020833d8211615011575b81614ff86020938361359c565b81010312612ea75761500b6001936137d7565b50614fda565b3d9150614feb565b6040513d6000823e3d90fd5b906020823d8211615056575b8161503e6020938361359c565b810103126102205750615050906137d7565b38614f6d565b3d9150615031565b819c929c9493946135ca57600181149182156151c8575b82156151b7575b82156151a6575b8215615195575b505061509b575b5050600190614f9e565b90986020826150da61511293826104fe8f9a8f9b838f6150cb92630700000063ff00000019825416179055616790565b6150d4816144d5565b9b613be7565b9b60018060a01b03600a541690600260018060a01b03910154166000604051809681958294637112610560e11b845260048401614ce0565b03925af1801561501957600090615156575b5050906001917f24196ec40f90671b7144e716978686b4f3c7d6b00b23da3971ef2b52af27d87f600080a29038615091565b6020823d821161518d575b8161516e6020938361359c565b81010312610220575090615184600193926137d7565b81929350615124565b3d9150615161565b9091506135ca57600414388061508a565b8092506135ca57600e811491615083565b8092506135ca57600381149161507c565b506002811491506000615075565b9050421138614ee3565b5050995060019150614f9e565b506000915060088114614ed0565b955038614df4565b9450509350505060405161521860208261359c565b818152813681378192829190565b614de3565b8454835260019485019488945060209093019201614dc2565b9092919260009260009285156156da578060005260016020526040600020926040518085602082975493848152019060005260206000209260005b8181106156c15750506152949250038561359c565b835196871580156156b7575b61568b576152ae9082614c9c565b96808811615683575b506152c481889598614abe565b966152ce88613aea565b94600092915b81831061535f5750505086811061531f575b507f70fe4666e4cf63d4ac96540435d610c85bb0fc84e3b35fcd39ba7efbf45e0c186060604051888152876020820152866040820152a2565b61532b81949294613aea565b9160005b8281106153405750505091386152e6565b8061534d60019284613be7565b516153588287613be7565b520161532f565b90919761536c8983613be7565b519889600052600060205260406000209160ff835460181c16600f81101590816135ca57600781148015615675575b61566857600f850154801515908161565e575b501561551e575050825463ff000000191663080000001783556153e9906153d58c89616790565b8b6104fe6153e2896144d5565b988c613be7565b600a54600290930154604051634113628960e11b8152919b6001600160a01b0394851694909291169060208180615424868660048401614ce0565b0381885afa908115615019576000916154e5575b50615471575b50600192507fdecc068a49633f4a89136211fcf06f0c95bb0756be29aaba7e7eec56da7945c5600080a25b0191906152d4565b81615497946020926000604051809881958294639c88381960e01b845260048401614ce0565b03925af18015615019576154ac575b8261543e565b6020833d82116154dd575b816154c46020938361359c565b81010312612ea7576154d76001936137d7565b506154a6565b3d91506154b7565b906020823d8211615516575b816154fe6020938361359c565b810103126102205750615510906137d7565b38615438565b3d91506154f1565b819c929c9493946135ca5760018114918215615650575b821561563f575b821561562e575b821561561d575b505061555b575b5050600190615469565b90986020826150da61559a93826104fe8f9b8f9c838f61558b92630700000063ff00000019825416179055616790565b615594816144d5565b9c613be7565b03925af18015615019576000906155de575b5050906001917f24196ec40f90671b7144e716978686b4f3c7d6b00b23da3971ef2b52af27d87f600080a29038615551565b6020823d8211615615575b816155f66020938361359c565b8101031261022057509061560c600193926137d7565b819293506155ac565b3d91506155e9565b9091506135ca57600414388061554a565b8092506135ca57600e811491615543565b8092506135ca57600381149161553c565b506002811491506000615535565b90504211386153ae565b5050995060019150615469565b50600091506008811461539b565b9650386152b7565b5050509350505050604051906156a260208361359c565b60008252600036813760009160009160009190565b50878210156152a0565b845483526001948501948994506020909301920161527f565b6372dbed9760e11b60005260046000fd5b6001600160a01b0381166000908152600080516020617543833981519152602052604090205460ff16615771576001600160a01b0316600081815260008051602061754383398151915260205260408120805460ff19166001179055339190600080516020617523833981519152906000805160206174e38339815191529080a4600190565b50600090565b6001600160a01b03811660009081527fb7db2dd08fcb62d0c9e08c51941cae53c267786a0b75803fb7960902fc8ef97d602052604090205460ff16615771576001600160a01b031660008181527fb7db2dd08fcb62d0c9e08c51941cae53c267786a0b75803fb7960902fc8ef97d60205260408120805460ff191660011790553391906000805160206174e38339815191528180a4600190565b6000818152600080516020617563833981519152602090815260408083206001600160a01b038616845290915290205460ff166158a1576000818152600080516020617563833981519152602090815260408083206001600160a01b0395909516808452949091528120805460ff19166001179055339291906000805160206174e38339815191529080a4600190565b5050600090565b6001600160a01b0381166000908152600080516020617543833981519152602052604090205460ff1615615771576001600160a01b0316600081815260008051602061754383398151915260205260408120805460ff19169055339190600080516020617523833981519152907ff6391f5c32d9c69d2a47ea670b442974b53935d1edc7fd64eb21e047a839171b9080a4600190565b6000818152600080516020617563833981519152602090815260408083206001600160a01b038616845290915290205460ff16156158a1576000818152600080516020617563833981519152602090815260408083206001600160a01b0395909516808452949091528120805460ff19169055339291907ff6391f5c32d9c69d2a47ea670b442974b53935d1edc7fd64eb21e047a839171b9080a4600190565b91909160008315615a995781815260016020526040902054808411615a91575b5060005260016020526040600020916040518084602082965493848152019060005260206000209260005b818110615a78575050615a3e9250038461359c565b615a4781613aea565b9060005b818110615a59575090925050565b600190615a668187613be7565b51615a718286613be7565b5201615a4b565b8454835260019485019488945060209093019201615a29565b9250386159fe565b9192505060405190615aac60208361359c565b80825236813790565b9190918115615ba657806000526001602052604060002054808411615b9657808491615ae18584614c9c565b11615b83575b5050600052600160205260406000206040518082602082945493848152019060005260206000209260005b818110615b6a575050615b279250038261359c565b615b3082613aea565b9260005b838110615b42575050505090565b80615b58615b5260019385614c9c565b85613be7565b51615b638288613be7565b5201615b34565b8454835260019485019486945060209093019201615b12565b615b8e929350614abe565b908238615ae7565b62ed0ab960e11b60005260046000fd5b505050604051615bb760208261359c565b60008152600036813790565b6000526000602052600e604060002001548015600014615be35750600090565b60001981019081116144e45790565b600080516020617503833981519152546001600160a01b03163303615c1357565b63118cdaa760e01b6000523360045260246000fd5b6000805160206175a383398151915280546001600160a01b031990811690915560008051602061750383398151915280549182166001600160a01b0393841690811790915591167f8be0079c531659141344cd1fd0a4f28419497f9722a3daafe3b4186f6b6457e0600080a3565b9081610100910312612ea757604051906101008201908282106001600160401b038311176134fc5760e091604052805183526020810151602084015260408101516040840152606081015160608401526080810151608084015260a081015160a084015260c081015160c0840152015160e082015290565b90816000526000602052604060002060ff815460181c1691600f831015806135ca57600584141580615fb4575b8181615fa3575b81615f92575b81615f81575b81615f70575b50615f5d57806135ca57600d8414159182615f4d575b82615f3b575b6004805460405163ba15d63560e01b81529182018890526001600160a01b031695906020816024818a5afa90811561501957600091615f09575b50159283615ef8575b6135ca5760048114908115615eed575b50615e79575b60065460405163149ecac960e11b815260048101889052955061010090869060249082906001600160a01b03165afa94851561501957600095615e48575b50630700000063ff00000019855416178455615e3e60018060a01b03600286015416966007608060a0890151980151960154616790565b6001959493929190565b615e6b9195506101003d8111615e72575b615e63818361359c565b810190615c96565b9338615e07565b503d615e59565b6000604051809663ecc2710d60e01b825260406004830152818381615ea1604482018b6138a1565b82602483015203925af194851561501957602495615ec891600091615ecd575b5085614ca9565b615dc9565b615ee291503d806000833e611b71818361359c565b505050505038615ec1565b600e91501438615dc3565b8093506135ca576004811492615db3565b90506020813d602011615f33575b81615f246020938361359c565b81010312612ea7575138615daa565b3d9150615f17565b9150806135ca57600c84141591615d70565b9150506000600684141591615d6a565b5060009350839250829150819081908190565b90506135ca57600484141581615d54565b90506135ca57600e84141581615d4e565b90506135ca57600d84141581615d48565b90506135ca57600c84141581615d42565b505060006006841415615d3b565b929596949093615fd0613ac9565b50606096600095858752866020526040872094616698575b505015616536576006546001600160a01b0316803b1561060357604051634e8eb8bd60e01b815260048101859052600260248201524260448201529085908290606490829084905af180156141ad57908591616521575b505061604c905b82613a3c565b85519560e06020820151910151604051916160668361354a565b888352602083015260408201529561607d57505050565b600a54600290910154604051633b4d69ad60e11b81529396949550919391869184916001600160a01b03918216918391859183916160c1918b911660048401614ce0565b03925af19182156141ad5785926164d5575b5081855b83518110156164cc576160ea8185613be7565b516160f8575b6001016160d7565b846161038286613be7565b510361623657866161148286613be7565b51808252816020526040822061612b600282613a3c565b805461ff00191690556006546001600160a01b0316803b1561034c57604051634e8eb8bd60e01b815260048101929092526002602483015242604483015282908290606490829084905af1801561157557616221575b5085905286602052600e60408820016040519061619d8261354a565b438252886020830152886040830152805490600160401b82101561620d57906161cb91600182018155613bfb565b6161f957600192916161f29190604060029180518455602081015160018501550151910155565b90506160f0565b634e487b7160e01b89526004899052602489fd5b634e487b7160e01b8a52604160045260248afd5b8161622b9161359c565b6118de578638616181565b6004546001600160a01b0316602061624e8387613be7565b5160246040518094819363f66530b960e01b835260048301525afa908115613f84578891616499575b50156164045760045487906001600160a01b03166162958387613be7565b51813b1561034c578291602483926040519485938492636b9b064d60e11b845260048401525af18015611575576163ef575b506162d28286613be7565b5180825281602052604082206001906162eb8282613a3c565b805461ff0019169055821561637b57506006546001600160a01b0316803b1561034c57604051634e8eb8bd60e01b815260048101929092526002602483015242604483015282908290606490829084905af1801561157557616366575b50506001905b61636161635b8287613be7565b51616e01565b6161f2565b816163709161359c565b6118de578638616348565b6006546001600160a01b0316925090823b15612ea757604051634e8eb8bd60e01b815260048101919091526024810191909152426044820152906000908290606490829084905af18015615019576163d7575b5060019061634e565b6163e591975060009061359c565b60009560016163ce565b816163f99161359c565b6118de5786386162c7565b8661640f8286613be7565b51808252602082905260408220805463ff000000191663060000001790556006546001600160a01b0316803b1561034c57604051634e8eb8bd60e01b815260048101929092526005602483015242604483015282908290606490829084905af1801561157557616484575b50506001906161f2565b8161648e9161359c565b6118de57863861647a565b905060203d81116164c5575b6164af818361359c565b6020826000928101031261022057505138616277565b503d6164a5565b50939250935050565b9091503d8086833e6164e7818361359c565b81016060828203126118cf576164fc826137d7565b5060408201516001600160401b0381116118de5761651a9201613b1c565b90386160d3565b8161652b9161359c565b610d7557833861603f565b6006546001600160a01b0316803b1561060357604051634e8eb8bd60e01b815260048101859052600560248201524260448201529085908290606490829084905af180156141ad57908591616683575b505060065460405163149ecac960e11b8152600481018590526001600160a01b039091169061010081602481855afa8015612dbb579160c091600493616666575b5060405163e70c38f160e01b815292839182905afa80156141ad576165f1575b5061604c90616046565b60c0813d60c01161665e575b8161660a60c0938361359c565b81010312610603579061604c9160a08060405192616627846134e1565b80518452602081015160208501526040810151604085015260608101516060850152608081015160808501520151910152906165e7565b3d91506165fd565b61667e906101003d8111615e7257615e63818361359c565b6165c7565b8161668d9161359c565b610d75578338616586565b60018060a01b0360085416906020600787019260a4898b86549360018060a01b0389511696868a01519060405198899788966326315d3160e21b8852600488015260248701526044860152606485015260848401525af18015613f8457616761575b50600354915190546001600160a01b0392831692909116823b15611a6257906044889283604051958694859363dfc3736d60e01b8552600485015260248401525af18015612dbb5761674d575b80615fe8565b8561675a9196929661359c565b9338616747565b6020813d602011616788575b8161677a6020938361359c565b81010312611a6257516166fa565b3d915061676d565b6000908082526001602052604082208054156169a657825b81548082101561699b57856167bd838561368d565b90549060031b1c146167d257506001016167a8565b9091929394506000198101908111610b6d576168026167f4616819928561368d565b90549060031b1c928461368d565b819391549060031b91821b91600019901b19161790565b9055805480156169875760001901616831818361368d565b8154906000199060031b1b1916905581555b60035460405163900cf0cf60e01b81526001600160a01b039091169290602081600481875afa9081156141ad578591616955575b508110918261694b575b50816168cb575b50616891575050565b803b15610607578180916004604051809481936333d98b0560e21b83525af18015611575576168be575050565b816168c89161359c565b50565b600854604051634d66354560e11b81526004810192909252909150602090829060249082906001600160a01b03165afa908115610554578391616911575b501538616888565b90506020813d602011616943575b8161692c6020938361359c565b8101031261034c5761693d906137d7565b38616909565b3d915061691f565b5415915038616881565b90506020813d60201161697f575b816169706020938361359c565b81010312610603575138616877565b3d9150616963565b634e487b7160e01b84526031600452602484fd5b505090919250616843565b6322252ea560e21b8352600483fd5b90815191600092835282602052604083209160018060a01b03600754168460ff855460181c16823b1561060757604051633813abfb60e21b81529283916044918391616a059060048401906135ed565b600e60248301525afa80156141ad57616ded575b50616a22614b66565b506004805483516040516384c2483160e01b815292830152909385918290869060249082906001600160a01b03165afa9485156115755782908396616dce575b5060e086015160208701805190916001600160a01b0391616a8291613be7565b5160065460c089018051604051631be0456560e21b81529c919694909316939288928d926001600160a01b039182169284928391616ac8918d918b911660048501614c73565b03925af18015612dbb578690879b88908992616da9575b509b616d5a5750616cd2575082516001600160a01b031690818103616cbd5750506007546001600160a01b0316803b1561060357846040518092630ee0070f60e31b82528951600483015260208a0151602483015260408a01516044830152818060608c019c8d51606483015260808d0151608483015260a08d0198895160a48401616b6a916135e0565b516001600160a01b031660c483015261012060e4830152616b8f61012483018b6138a1565b82810360031901610104840152616ba5916143ca565b03915afa80156141ad57908591616ca8575b50505195600495630400000063ff0000001985541617845560018060a01b03600654169051813b156118cf578591606483926040519485938492634e8eb8bd60e01b84528d840152600760248401524260448401525af180156141ad57908591616c93575b50508151906005821015616c80575160405190602082019260f81b8352602182015260218152616c4d60418261359c565b519020600b83015551916005831015616c6d575090616c6b91614cc1565b565b634e487b7160e01b815260218552602490fd5b634e487b7160e01b855260218752602485fd5b81616c9d9161359c565b610d75578338616c1c565b81616cb29161359c565b610d75578338616bb7565b631aac64ed60e11b8652600452602452604484fd5b845463ff0000001916630200000017909455506004549551815195975090959394936001600160a01b0316929150823b1561060357918791858094616d2d60405197889687958694638858751360e01b8652600486016144ab565b03925af1801561157557616d45575b50505190600290565b616d5082809261359c565b6102205780616d3c565b985050505050505093509150825b8151811015616da05780616d7e60019284613be7565b5185528460205260408520630600000063ff0000001982541617905501616d68565b50508190600690565b92505050616dc2919a503d8088833e611404818361359c565b50909b92919b38616adf565b9050616de59195503d8084833e611c39818361359c565b949038616a62565b84616dfa9195929561359c565b9238616a19565b6000526000602052600e60406000200160405190616e1e8261354a565b60008083526020830181905260408301528054600160401b8110156134fc57616e4c91600182018155613bfb565b919091616e6d57805182556020810151600183015560400151600290910155565b634e487b7160e01b600052600060045260246000fd5b9060005b826000526001602052604060002054811015616ece5782600052600160205281616eb582604060002061368d565b90549060031b1c14616ec957600101616e87565b505050565b509060005260016020526040600020805490600160401b8210156134fc5781616802916001616eff9401815561368d565b9055565b6000908181518352826020526040832060018060a01b036007541660ff825460181c16813b156118cf57616f50604487926040519485938492633813abfb60e21b845260048401906135ed565b600260248301525afa80156141ad576174a0575b50616f6d614b66565b506004805484516040516384c2483160e01b8152928301529091908590839060249082906001600160a01b03165afa9182156141ad5761701293928692918391617481575b509160e081019060208251910190616fd360018060a01b0391835190613be7565b51169060018060a01b036006541690898560208b0193858360018060a01b038751166040519d8e9586948593631be0456560e21b855260048501614c73565b03925af18015614a16578a908b998c908d9261745c575b50996173f25750617300575b50516001600160a01b0390811691168181036172eb57505051956170598651615bc3565b906040870190815161706e84600e8701613bfb565b50541180156172e1575b6172d25760808801518051600181116171a75750506006548851600d99916001600160a01b031690813b15610d7557604051634e8eb8bd60e01b81526004810191909152600560248201524260448201529083908290606490829084905af1801561055457908391617192575b50505b60018060a01b03600654169051813b1561034c578291606483926040519485938492634e8eb8bd60e01b84526004840152600360248401524260448401525af180156115755761717d575b5050906171569151600161714a83600e8701613bfb565b500155600e8301613bfb565b506002439101556171678582613a3c565b600201546001966001600160a01b039091169590565b61718882809261359c565b6102205780617133565b8161719c9161359c565b6106075781386170e5565b600399916060830151600a8801556001600160401b038211610c535781906171d2600d8901546137e4565b601f811161727f575b50602090601f831160011461721757859261720c575b50508160011b91600019908c1b1c191617600d8601556170e8565b0151905038806171f1565b600d890186528186209250601f198416865b818110617267575090846001959493921061724f575b505050811b01600d8601556170e8565b0151600019838e1b60f8161c1916905538808061723f565b92936020600181928786015181550195019301617229565b909150600d8801855260208520601f840160051c810191602085106172c8575b90601f859493920160051c01905b8181106172ba57506171db565b8681558493506001016172ad565b909150819061729f565b63d1ba078760e01b8152600490fd5b5081514310617078565b631aac64ed60e11b8952600452602452604487fd5b600454895182518a9550916001600160a01b031690813b156173ee578c9189838d9361734260405197889687958694638858751360e01b8652600486016144ab565b03925af18015612eb457908b916173d9575b50508351905161736391613be7565b6001600160a01b038881169091526006548951911690813b15611a5e57604051634e8eb8bd60e01b8152600481019190915260026024820152426044820152908a908290606490829084905af18015614a1657908a916173c4575b50617035565b816173ce9161359c565b611a4a5788386173be565b816173e39161359c565b611a46578938617354565b8c80fd5b9950505050505050505050815b8151811015617437578061741560019284613be7565b5184528360205260408420630600000063ff00000019825416179055016173ff565b505060405161744760208261359c565b81815260003681378192826006928192829190565b925050506174759198503d808c833e611404818361359c565b50909992919938617029565b90506174989192503d8088833e611c39818361359c565b919038616fb2565b846174ad9195929561359c565b9238616f64565b60ff6000805160206175838339815191525460401c16156174d157565b631afcd79f60e31b60005260046000fdfe2f8788117e7eff1d82e926ec794901d17c78024a50270940304540a733656f0d9016d09d72d40fdae2fd8ceac6b6234c7706214fd39c1cd1e609a0528c199300a76fa7c45e5f73660ff588d1884d27398b8576fbdeca4568c9e474f45a928f190c1e2cca036199566808b125767fd2bf139be2138628b4c0441c352eb2e8b4ee02dd7bc7dec4dceedda775e58dd541e08a116c6c53815c0bd028192f7b626800f0c57e16840df040f15088dc2f81fe391c3923bec73e23a9662efc9c229c6a00237e158222e3e6968b72b9db0d8043aacf074ad9f650f0d1606b4d82ee432c00a2646970667358221220c5cf6a56d7fce2021bcbc07da6048765486e1963b18499874cc014690149f03e64736f6c634300081c0033",
  "linkReferences": {},
  "deployedLinkReferences": {}
}