{
  "_format": "hh-sol-artifact-1",
  "contractName": "StakingDelegators",
  "sourceName": "contracts/staking/StakingDelegators.sol",
  "abi": [
    {
      "inputs": [],
      "name": "AccessControlBadConfirmation",
      "type": "error"
    },
    {
      "inputs": [
        {
          "internalType": "address",
          "name": "account",
          "type": "address"
        },
        {
          "internalType": "bytes32",
          "name": "neededRole",
          "type": "bytes32"
        }
      ],
      "name": "AccessControlUnauthorizedAccount",
      "type": "error"
    },
    {
      "inputs": [],
      "name": "DelegatorMayNotJoinWithZeroValue",
      "type": "error"
    },
    {
      "inputs": [],
      "name": "InvalidInitialization",
      "type": "error"
    },
    {
      "inputs": [],
      "name": "NotInitializing",
      "type": "error"
    },
    {
      "inputs": [
        {
          "internalType": "address",
          "name": "owner",
          "type": "address"
        }
      ],
      "name": "OwnableInvalidOwner",
      "type": "error"
    },
    {
      "inputs": [
        {
          "internalType": "address",
          "name": "account",
          "type": "address"
        }
      ],
      "name": "OwnableUnauthorizedAccount",
      "type": "error"
    },
    {
      "inputs": [],
      "name": "ReentrancyGuardReentrantCall",
      "type": "error"
    },
    {
      "inputs": [],
      "name": "ValidatorNotActive",
      "type": "error"
    },
    {
      "anonymous": false,
      "inputs": [
        {
          "indexed": false,
          "internalType": "uint64",
          "name": "version",
          "type": "uint64"
        }
      ],
      "name": "Initialized",
      "type": "event"
    },
    {
      "anonymous": false,
      "inputs": [
        {
          "indexed": true,
          "internalType": "address",
          "name": "previousOwner",
          "type": "address"
        },
        {
          "indexed": true,
          "internalType": "address",
          "name": "newOwner",
          "type": "address"
        }
      ],
      "name": "OwnershipTransferStarted",
      "type": "event"
    },
    {
      "anonymous": false,
      "inputs": [
        {
          "indexed": true,
          "internalType": "address",
          "name": "previousOwner",
          "type": "address"
        },
        {
          "indexed": true,
          "internalType": "address",
          "name": "newOwner",
          "type": "address"
        }
      ],
      "name": "OwnershipTransferred",
      "type": "event"
    },
    {
      "anonymous": false,
      "inputs": [
        {
          "indexed": true,
          "internalType": "bytes32",
          "name": "role",
          "type": "bytes32"
        },
        {
          "indexed": true,
          "internalType": "bytes32",
          "name": "previousAdminRole",
          "type": "bytes32"
        },
        {
          "indexed": true,
          "internalType": "bytes32",
          "name": "newAdminRole",
          "type": "bytes32"
        }
      ],
      "name": "RoleAdminChanged",
      "type": "event"
    },
    {
      "anonymous": false,
      "inputs": [
        {
          "indexed": true,
          "internalType": "bytes32",
          "name": "role",
          "type": "bytes32"
        },
        {
          "indexed": true,
          "internalType": "address",
          "name": "account",
          "type": "address"
        },
        {
          "indexed": true,
          "internalType": "address",
          "name": "sender",
          "type": "address"
        }
      ],
      "name": "RoleGranted",
      "type": "event"
    },
    {
      "anonymous": false,
      "inputs": [
        {
          "indexed": true,
          "internalType": "bytes32",
          "name": "role",
          "type": "bytes32"
        },
        {
          "indexed": true,
          "internalType": "address",
          "name": "account",
          "type": "address"
        },
        {
          "indexed": true,
          "internalType": "address",
          "name": "sender",
          "type": "address"
        }
      ],
      "name": "RoleRevoked",
      "type": "event"
    },
    {
      "inputs": [],
      "name": "DEFAULT_ADMIN_ROLE",
      "outputs": [
        {
          "internalType": "bytes32",
          "name": "",
          "type": "bytes32"
        }
      ],
      "stateMutability": "view",
      "type": "function"
    },
    {
      "inputs": [],
      "name": "DEFAULT_DELEGATOR_MIN_STAKE",
      "outputs": [
        {
          "internalType": "uint256",
          "name": "",
          "type": "uint256"
        }
      ],
      "stateMutability": "view",
      "type": "function"
    },
    {
      "inputs": [],
      "name": "DEFAULT_VALIDATOR_MIN_STAKE",
      "outputs": [
        {
          "internalType": "uint256",
          "name": "",
          "type": "uint256"
        }
      ],
      "stateMutability": "view",
      "type": "function"
    },
    {
      "inputs": [],
      "name": "DELEGATOR_UNBONDING_PERIOD",
      "outputs": [
        {
          "internalType": "uint256",
          "name": "",
          "type": "uint256"
        }
      ],
      "stateMutability": "view",
      "type": "function"
    },
    {
      "inputs": [],
      "name": "INFLATION_BASE",
      "outputs": [
        {
          "internalType": "uint256",
          "name": "",
          "type": "uint256"
        }
      ],
      "stateMutability": "view",
      "type": "function"
    },
    {
      "inputs": [],
      "name": "INFLATION_DEEPTHOUGHT_BPS",
      "outputs": [
        {
          "internalType": "uint256",
          "name": "",
          "type": "uint256"
        }
      ],
      "stateMutability": "view",
      "type": "function"
    },
    {
      "inputs": [],
      "name": "INFLATION_DEVELOPER_BPS",
      "outputs": [
        {
          "internalType": "uint256",
          "name": "",
          "type": "uint256"
        }
      ],
      "stateMutability": "view",
      "type": "function"
    },
    {
      "inputs": [],
      "name": "INFLATION_FINAL",
      "outputs": [
        {
          "internalType": "uint256",
          "name": "",
          "type": "uint256"
        }
      ],
      "stateMutability": "view",
      "type": "function"
    },
    {
      "inputs": [],
      "name": "INFLATION_INITIAL",
      "outputs": [
        {
          "internalType": "uint256",
          "name": "",
          "type": "uint256"
        }
      ],
      "stateMutability": "view",
      "type": "function"
    },
    {
      "inputs": [],
      "name": "INFLATION_MID",
      "outputs": [
        {
          "internalType": "int256",
          "name": "",
          "type": "int256"
        }
      ],
      "stateMutability": "view",
      "type": "function"
    },
    {
      "inputs": [],
      "name": "INFLATION_STAKER_BPS",
      "outputs": [
        {
          "internalType": "uint256",
          "name": "",
          "type": "uint256"
        }
      ],
      "stateMutability": "view",
      "type": "function"
    },
    {
      "inputs": [],
      "name": "INFLATION_STEEPNESS",
      "outputs": [
        {
          "internalType": "int256",
          "name": "",
          "type": "int256"
        }
      ],
      "stateMutability": "view",
      "type": "function"
    },
    {
      "inputs": [],
      "name": "INFLATION_VALIDATOR_BPS",
      "outputs": [
        {
          "internalType": "uint256",
          "name": "",
          "type": "uint256"
        }
      ],
      "stateMutability": "view",
      "type": "function"
    },
    {
      "inputs": [],
      "name": "L1_MESSENGER",
      "outputs": [
        {
          "internalType": "contract IL1Messenger",
          "name": "",
          "type": "address"
        }
      ],
      "stateMutability": "view",
      "type": "function"
    },
    {
      "inputs": [],
      "name": "QUARANTINE_MANAGER_ROLE",
      "outputs": [
        {
          "internalType": "bytes32",
          "name": "",
          "type": "bytes32"
        }
      ],
      "stateMutability": "view",
      "type": "function"
    },
    {
      "inputs": [],
      "name": "SLASH_CALLER_INCENTIVE_BPS",
      "outputs": [
        {
          "internalType": "uint256",
          "name": "",
          "type": "uint256"
        }
      ],
      "stateMutability": "view",
      "type": "function"
    },
    {
      "inputs": [],
      "name": "VALIDATOR_UNBONDING_PERIOD",
      "outputs": [
        {
          "internalType": "uint256",
          "name": "",
          "type": "uint256"
        }
      ],
      "stateMutability": "view",
      "type": "function"
    },
    {
      "inputs": [],
      "name": "acceptOwnership",
      "outputs": [],
      "stateMutability": "nonpayable",
      "type": "function"
    },
    {
      "inputs": [],
      "name": "addressManager",
      "outputs": [
        {
          "internalType": "contract IAddressManager",
          "name": "",
          "type": "address"
        }
      ],
      "stateMutability": "view",
      "type": "function"
    },
    {
      "inputs": [],
      "name": "burning",
      "outputs": [
        {
          "internalType": "uint256",
          "name": "",
          "type": "uint256"
        }
      ],
      "stateMutability": "view",
      "type": "function"
    },
    {
      "inputs": [],
      "name": "deepthought",
      "outputs": [
        {
          "internalType": "address payable",
          "name": "",
          "type": "address"
        }
      ],
      "stateMutability": "view",
      "type": "function"
    },
    {
      "inputs": [
        {
          "internalType": "address",
          "name": "_delegator",
          "type": "address"
        },
        {
          "internalType": "address",
          "name": "_validator",
          "type": "address"
        }
      ],
      "name": "delegatorClaim",
      "outputs": [
        {
          "internalType": "uint256",
          "name": "",
          "type": "uint256"
        }
      ],
      "stateMutability": "nonpayable",
      "type": "function"
    },
    {
      "inputs": [
        {
          "internalType": "address",
          "name": "_delegator",
          "type": "address"
        },
        {
          "internalType": "address",
          "name": "_validator",
          "type": "address"
        }
      ],
      "name": "delegatorClean",
      "outputs": [],
      "stateMutability": "nonpayable",
      "type": "function"
    },
    {
      "inputs": [
        {
          "internalType": "address",
          "name": "_validator",
          "type": "address"
        },
        {
          "internalType": "uint256",
          "name": "_sharesExit",
          "type": "uint256"
        }
      ],
      "name": "delegatorExit",
      "outputs": [],
      "stateMutability": "nonpayable",
      "type": "function"
    },
    {
      "inputs": [
        {
          "internalType": "address",
          "name": "_validator",
          "type": "address"
        }
      ],
      "name": "delegatorJoin",
      "outputs": [],
      "stateMutability": "payable",
      "type": "function"
    },
    {
      "inputs": [],
      "name": "delegatorMinStake",
      "outputs": [
        {
          "internalType": "uint256",
          "name": "",
          "type": "uint256"
        }
      ],
      "stateMutability": "view",
      "type": "function"
    },
    {
      "inputs": [],
      "name": "epoch",
      "outputs": [
        {
          "internalType": "uint256",
          "name": "",
          "type": "uint256"
        }
      ],
      "stateMutability": "view",
      "type": "function"
    },
    {
      "inputs": [],
      "name": "epochEven",
      "outputs": [
        {
          "internalType": "uint256",
          "name": "start",
          "type": "uint256"
        },
        {
          "internalType": "uint256",
          "name": "end",
          "type": "uint256"
        },
        {
          "internalType": "uint256",
          "name": "inflation",
          "type": "uint256"
        },
        {
          "internalType": "uint256",
          "name": "weight",
          "type": "uint256"
        },
        {
          "internalType": "uint256",
          "name": "weightDeposit",
          "type": "uint256"
        },
        {
          "internalType": "uint256",
          "name": "weightWithdrawal",
          "type": "uint256"
        },
        {
          "internalType": "uint256",
          "name": "vcount",
          "type": "uint256"
        },
        {
          "internalType": "uint256",
          "name": "claimed",
          "type": "uint256"
        },
        {
          "internalType": "uint256",
          "name": "stakeDeposit",
          "type": "uint256"
        },
        {
          "internalType": "uint256",
          "name": "stakeWithdrawal",
          "type": "uint256"
        },
        {
          "internalType": "uint256",
          "name": "slashed",
          "type": "uint256"
        }
      ],
      "stateMutability": "view",
      "type": "function"
    },
    {
      "inputs": [],
      "name": "epochExtraMinDuration",
      "outputs": [
        {
          "internalType": "uint256",
          "name": "",
          "type": "uint256"
        }
      ],
      "stateMutability": "view",
      "type": "function"
    },
    {
      "inputs": [],
      "name": "epochMinDuration",
      "outputs": [
        {
          "internalType": "uint256",
          "name": "",
          "type": "uint256"
        }
      ],
      "stateMutability": "view",
      "type": "function"
    },
    {
      "inputs": [],
      "name": "epochMinDurationThreshold",
      "outputs": [
        {
          "internalType": "uint256",
          "name": "",
          "type": "uint256"
        }
      ],
      "stateMutability": "view",
      "type": "function"
    },
    {
      "inputs": [],
      "name": "epochOdd",
      "outputs": [
        {
          "internalType": "uint256",
          "name": "start",
          "type": "uint256"
        },
        {
          "internalType": "uint256",
          "name": "end",
          "type": "uint256"
        },
        {
          "internalType": "uint256",
          "name": "inflation",
          "type": "uint256"
        },
        {
          "internalType": "uint256",
          "name": "weight",
          "type": "uint256"
        },
        {
          "internalType": "uint256",
          "name": "weightDeposit",
          "type": "uint256"
        },
        {
          "internalType": "uint256",
          "name": "weightWithdrawal",
          "type": "uint256"
        },
        {
          "internalType": "uint256",
          "name": "vcount",
          "type": "uint256"
        },
        {
          "internalType": "uint256",
          "name": "claimed",
          "type": "uint256"
        },
        {
          "internalType": "uint256",
          "name": "stakeDeposit",
          "type": "uint256"
        },
        {
          "internalType": "uint256",
          "name": "stakeWithdrawal",
          "type": "uint256"
        },
        {
          "internalType": "uint256",
          "name": "slashed",
          "type": "uint256"
        }
      ],
      "stateMutability": "view",
      "type": "function"
    },
    {
      "inputs": [],
      "name": "epochZeroMinDuration",
      "outputs": [
        {
          "internalType": "uint256",
          "name": "",
          "type": "uint256"
        }
      ],
      "stateMutability": "view",
      "type": "function"
    },
    {
      "inputs": [],
      "name": "finalizationPhaseAddress",
      "outputs": [
        {
          "internalType": "address",
          "name": "",
          "type": "address"
        }
      ],
      "stateMutability": "view",
      "type": "function"
    },
    {
      "inputs": [],
      "name": "finalized",
      "outputs": [
        {
          "internalType": "uint256",
          "name": "",
          "type": "uint256"
        }
      ],
      "stateMutability": "view",
      "type": "function"
    },
    {
      "inputs": [
        {
          "internalType": "bytes32",
          "name": "role",
          "type": "bytes32"
        }
      ],
      "name": "getRoleAdmin",
      "outputs": [
        {
          "internalType": "bytes32",
          "name": "",
          "type": "bytes32"
        }
      ],
      "stateMutability": "view",
      "type": "function"
    },
    {
      "inputs": [
        {
          "internalType": "bytes32",
          "name": "role",
          "type": "bytes32"
        },
        {
          "internalType": "address",
          "name": "account",
          "type": "address"
        }
      ],
      "name": "grantRole",
      "outputs": [],
      "stateMutability": "nonpayable",
      "type": "function"
    },
    {
      "inputs": [
        {
          "internalType": "bytes32",
          "name": "role",
          "type": "bytes32"
        },
        {
          "internalType": "address",
          "name": "account",
          "type": "address"
        }
      ],
      "name": "hasRole",
      "outputs": [
        {
          "internalType": "bool",
          "name": "",
          "type": "bool"
        }
      ],
      "stateMutability": "view",
      "type": "function"
    },
    {
      "inputs": [],
      "name": "idlenessPhaseAddress",
      "outputs": [
        {
          "internalType": "address",
          "name": "",
          "type": "address"
        }
      ],
      "stateMutability": "view",
      "type": "function"
    },
    {
      "inputs": [],
      "name": "inflationEpoch",
      "outputs": [
        {
          "internalType": "uint256",
          "name": "",
          "type": "uint256"
        }
      ],
      "stateMutability": "view",
      "type": "function"
    },
    {
      "inputs": [],
      "name": "inflationRequestThreshold",
      "outputs": [
        {
          "internalType": "uint256",
          "name": "",
          "type": "uint256"
        }
      ],
      "stateMutability": "view",
      "type": "function"
    },
    {
      "inputs": [
        {
          "internalType": "uint256",
          "name": "",
          "type": "uint256"
        }
      ],
      "name": "inflationRequested",
      "outputs": [
        {
          "internalType": "bool",
          "name": "",
          "type": "bool"
        }
      ],
      "stateMutability": "view",
      "type": "function"
    },
    {
      "inputs": [],
      "name": "inflationSupply",
      "outputs": [
        {
          "internalType": "uint256",
          "name": "",
          "type": "uint256"
        }
      ],
      "stateMutability": "view",
      "type": "function"
    },
    {
      "inputs": [],
      "name": "inflationTargetAhead",
      "outputs": [
        {
          "internalType": "uint256",
          "name": "",
          "type": "uint256"
        }
      ],
      "stateMutability": "view",
      "type": "function"
    },
    {
      "inputs": [],
      "name": "l2GasLimit",
      "outputs": [
        {
          "internalType": "uint256",
          "name": "",
          "type": "uint256"
        }
      ],
      "stateMutability": "view",
      "type": "function"
    },
    {
      "inputs": [],
      "name": "l2GasPrice",
      "outputs": [
        {
          "internalType": "uint256",
          "name": "",
          "type": "uint256"
        }
      ],
      "stateMutability": "view",
      "type": "function"
    },
    {
      "inputs": [],
      "name": "maxValidators",
      "outputs": [
        {
          "internalType": "uint256",
          "name": "",
          "type": "uint256"
        }
      ],
      "stateMutability": "view",
      "type": "function"
    },
    {
      "inputs": [
        {
          "internalType": "address",
          "name": "",
          "type": "address"
        }
      ],
      "name": "operatorsToValidators",
      "outputs": [
        {
          "internalType": "address",
          "name": "",
          "type": "address"
        }
      ],
      "stateMutability": "view",
      "type": "function"
    },
    {
      "inputs": [],
      "name": "owner",
      "outputs": [
        {
          "internalType": "address",
          "name": "",
          "type": "address"
        }
      ],
      "stateMutability": "view",
      "type": "function"
    },
    {
      "inputs": [],
      "name": "pendingOwner",
      "outputs": [
        {
          "internalType": "address",
          "name": "",
          "type": "address"
        }
      ],
      "stateMutability": "view",
      "type": "function"
    },
    {
      "inputs": [],
      "name": "pendingRequestInflationFromL1",
      "outputs": [
        {
          "internalType": "bool",
          "name": "",
          "type": "bool"
        }
      ],
      "stateMutability": "view",
      "type": "function"
    },
    {
      "inputs": [],
      "name": "reductionFactor",
      "outputs": [
        {
          "internalType": "uint256",
          "name": "",
          "type": "uint256"
        }
      ],
      "stateMutability": "view",
      "type": "function"
    },
    {
      "inputs": [],
      "name": "renounceOwnership",
      "outputs": [],
      "stateMutability": "nonpayable",
      "type": "function"
    },
    {
      "inputs": [
        {
          "internalType": "bytes32",
          "name": "role",
          "type": "bytes32"
        },
        {
          "internalType": "address",
          "name": "callerConfirmation",
          "type": "address"
        }
      ],
      "name": "renounceRole",
      "outputs": [],
      "stateMutability": "nonpayable",
      "type": "function"
    },
    {
      "inputs": [],
      "name": "revealingPhaseAddress",
      "outputs": [
        {
          "internalType": "address",
          "name": "",
          "type": "address"
        }
      ],
      "stateMutability": "view",
      "type": "function"
    },
    {
      "inputs": [
        {
          "internalType": "bytes32",
          "name": "role",
          "type": "bytes32"
        },
        {
          "internalType": "address",
          "name": "account",
          "type": "address"
        }
      ],
      "name": "revokeRole",
      "outputs": [],
      "stateMutability": "nonpayable",
      "type": "function"
    },
    {
      "inputs": [],
      "name": "stakingInvariant",
      "outputs": [
        {
          "internalType": "address",
          "name": "",
          "type": "address"
        }
      ],
      "stateMutability": "view",
      "type": "function"
    },
    {
      "inputs": [
        {
          "internalType": "bytes4",
          "name": "interfaceId",
          "type": "bytes4"
        }
      ],
      "name": "supportsInterface",
      "outputs": [
        {
          "internalType": "bool",
          "name": "",
          "type": "bool"
        }
      ],
      "stateMutability": "view",
      "type": "function"
    },
    {
      "inputs": [],
      "name": "transactionFeesManager",
      "outputs": [
        {
          "internalType": "address",
          "name": "",
          "type": "address"
        }
      ],
      "stateMutability": "view",
      "type": "function"
    },
    {
      "inputs": [
        {
          "internalType": "address",
          "name": "newOwner",
          "type": "address"
        }
      ],
      "name": "transferOwnership",
      "outputs": [],
      "stateMutability": "nonpayable",
      "type": "function"
    },
    {
      "inputs": [
        {
          "internalType": "uint256",
          "name": "_claimAmount",
          "type": "uint256"
        }
      ],
      "name": "updateTotalStake",
      "outputs": [],
      "stateMutability": "nonpayable",
      "type": "function"
    },
    {
      "inputs": [],
      "name": "validatorMinStake",
      "outputs": [
        {
          "internalType": "uint256",
          "name": "",
          "type": "uint256"
        }
      ],
      "stateMutability": "view",
      "type": "function"
    },
    {
      "inputs": [
        {
          "internalType": "uint256",
          "name": "",
          "type": "uint256"
        }
      ],
      "name": "validatorsEven",
      "outputs": [
        {
          "internalType": "address",
          "name": "",
          "type": "address"
        }
      ],
      "stateMutability": "view",
      "type": "function"
    },
    {
      "inputs": [
        {
          "internalType": "uint256",
          "name": "",
          "type": "uint256"
        }
      ],
      "name": "validatorsJoined",
      "outputs": [
        {
          "internalType": "address",
          "name": "",
          "type": "address"
        }
      ],
      "stateMutability": "view",
      "type": "function"
    },
    {
      "inputs": [
        {
          "internalType": "uint256",
          "name": "",
          "type": "uint256"
        }
      ],
      "name": "validatorsOdd",
      "outputs": [
        {
          "internalType": "address",
          "name": "",
          "type": "address"
        }
      ],
      "stateMutability": "view",
      "type": "function"
    },
    {
      "inputs": [
        {
          "internalType": "uint256",
          "name": "",
          "type": "uint256"
        }
      ],
      "name": "weightsEven",
      "outputs": [
        {
          "internalType": "uint256",
          "name": "",
          "type": "uint256"
        }
      ],
      "stateMutability": "view",
      "type": "function"
    },
    {
      "inputs": [
        {
          "internalType": "uint256",
          "name": "",
          "type": "uint256"
        }
      ],
      "name": "weightsOdd",
      "outputs": [
        {
          "internalType": "uint256",
          "name": "",
          "type": "uint256"
        }
      ],
      "stateMutability": "view",
      "type": "function"
    }
  ],
  "bytecode": "0x60808060405234601557611c05908161001b8239f35b600080fdfe6080604052600436101561001257600080fd5b6000803560e01c8062b17a011461142f57806301ffc9a7146113d857806304abb96d1461119d57806308ac52561461117f5780630a3cfb13146111125780630ab07e88146110f45780631538faf2146110d657806318a3b882146110a75780631bc2359a14611089578063217fcc3e14610a745780632272e0ab1461106b57806324147f671461104d57806324840a5e14611024578063248a9ca314610ffd57806326ed4c7014610fda5780632f2ff15d14610fa857806336568abe14610f635780633ab76e9f14610f3a5780633fde6d7b14610f1c5780634971ec0214610ef95780634c12b33f14610edb5780634f2938fc14610eb2578063502e28ea14610d54578063624a448514610d365780636378eba314610d1957806367604d2714610cfb5780636fcf82c414610cde578063715018a614610c5d578063746e4ac714610c1a5780637492100f14610bf857806379ba509714610b495780637a5d266014610b205780637e1233a914610b035780638377259514610ae657806387e51da914610a795780638b7e92a614610a745780638ba7eceb146108ce5780638da5cb5b14610898578063900cf0cf1461087a578063900fd9ce1461083757806391d14854146107de57806396be02a7146107985780639ae366851461077a578063a01ebaa114610756578063a217fddf1461073a578063a8027c1014610717578063abfd6fa9146106f3578063ac78a04b146106d6578063b03df1f014610695578063b3f05b9714610677578063bc338e7f1461065b578063c0a604ad1461063d578063c498c95b14610618578063cb17452f146105dd578063cd38347f146105b6578063cd85623514610598578063cf6e65b71461057a578063d547741f1461053f578063d7ef354414610516578063da7a9b6a146104f8578063de8eec64146104cf578063e30c397814610499578063e3c6b0ca1461047b578063f2fde38b146103f3578063f85683ef146103ca578063fafebac5146103805763fb6fe776146102fd57600080fd5b3461037d57602036600319011261037d576004359060455482101561037d5760455482101561036957604581527fa80a8fcc11760162f08bb091d2c9389d07f2b73d0e996161dfac6f1043b5fc0b9091015460405160039290921b1c6001600160a01b03168152602090f35b634e487b7160e01b81526032600452602490fd5b80fd5b503461037d578060031936011261037d57601454601554906103c6601654601754601854601954601a54601b5491601c5493601d5495601e54976040519b8c9b8c611573565b0390f35b503461037d578060031936011261037d57604a546040516001600160a01b039091168152602090f35b503461037d57602036600319011261037d5761040d6114f7565b610415611b19565b600080516020611bb083398151915280546001600160a01b0319166001600160a01b03928316908117909155600080516020611b50833981519152549091167f38d16b8cac22d99fc7c124b9cd0de2d3fa1faef420bfe791d8c362d765e227008380a380f35b503461037d578060031936011261037d576020600354604051908152f35b503461037d578060031936011261037d57600080516020611bb0833981519152546040516001600160a01b039091168152602090f35b503461037d578060031936011261037d576046546040516001600160a01b039091168152602090f35b503461037d578060031936011261037d576020604254604051908152f35b503461037d578060031936011261037d57600e546040516001600160a01b039091168152602090f35b503461037d57604036600319011261037d5761057660043561055f611512565b9061057161056c82611663565b611703565b6117f6565b5080f35b503461037d578060031936011261037d576020604f54604051908152f35b503461037d578060031936011261037d576020600454604051908152f35b503461037d578060031936011261037d5760206040516b0d92289838d21a99680000008152f35b503461037d578060031936011261037d5760206040517f155e7f76c52e49fe8308e62eabe3ce449c978443b7d8beb86992427229ec386f8152f35b503461037d578060031936011261037d5760206040516908e4d3168276864000008152f35b503461037d578060031936011261037d576020600f54604051908152f35b503461037d578060031936011261037d57602060405160648152f35b503461037d578060031936011261037d576020601254604051908152f35b503461037d57602036600319011261037d576020906001600160a01b036106ba6114f7565b16815260348252604060018060a01b0391205416604051908152f35b503461037d578060031936011261037d5760206040516101f48152f35b503461037d578060031936011261037d576020604051680246ddf979766800008152f35b503461037d578060031936011261037d576020604051660aa87bee537fff198152f35b503461037d578060031936011261037d57602090604051908152f35b503461037d578060031936011261037d576020604051684e1003b28d928000008152f35b503461037d578060031936011261037d576020604e54604051908152f35b503461037d578060031936011261037d57601f54602054906103c6602154602254602354602454602554602654916027549360285495602954976040519b8c9b8c611573565b503461037d57604036600319011261037d5760406107fa611512565b916004358152600080516020611b70833981519152602052209060018060a01b0316600052602052602060ff604060002054166040519015158152f35b503461037d57602036600319011261037d5760043590602b5482101561037d57602b5482101561036957602091602b825282822001549060031b1c604051908152f35b503461037d578060031936011261037d576020601154604051908152f35b503461037d578060031936011261037d57600080516020611b50833981519152546040516001600160a01b039091168152602090f35b503461037d57604036600319011261037d57806108e96114f7565b602435338352602e602052604083209160018060a01b03811684526033602052604084209082610a66575b601154156109a3575073__$1bfbdd025ffd3afc37361c6ba444514318$__916011549360425493803b1561099f57869460a4936040519788968795632167701760e21b8752600487015260248601526044850152606484015260848301525af480156109945761098357505080f35b8161098d916115bf565b61037d5780f35b6040513d84823e3d90fd5b8680fd5b9390929182549373__$1bfbdd025ffd3afc37361c6ba444514318$__9060018060a01b03871660005260018501602052604060002060425490833b15610a6257859360e492604051968795869463659f32f360e01b865260048601528a60248601526044850152602f60648501526014608485015260a484015260c48301525af4801561099457610a49575b50505410610a3b575080f35b610a46903390611896565b80f35b81610a53916115bf565b610a5e578338610a2f565b8380fd5b8580fd5b610a6f836119db565b610914565b611556565b503461037d57602036600319011261037d5760043590602c5482101561037d57602c5482101561036957602c81527f7416c943b4a09859521022fd2e90eac0dd9026dad28fa317782a135f28a860919091015460405160039290921b1c6001600160a01b03168152602090f35b503461037d578060031936011261037d576020604051611d4c8152f35b503461037d578060031936011261037d5760206040516180088152f35b503461037d578060031936011261037d576049546040516001600160a01b039091168152602090f35b503461037d578060031936011261037d57600080516020611bb083398151915254336001600160a01b0390911603610be557600080516020611bb083398151915280546001600160a01b0319908116909155600080516020611b5083398151915280543392811683179091556001600160a01b03167f8be0079c531659141344cd1fd0a4f28419497f9722a3daafe3b4186f6b6457e08380a380f35b63118cdaa760e01b815233600452602490fd5b503461037d578060031936011261037d576020604051668e1bc9bf0400008152f35b503461037d57602036600319011261037d5760043590602a5482101561037d57602a5482101561036957602091602a825282822001549060031b1c604051908152f35b503461037d578060031936011261037d57610c76611b19565b600080516020611bb083398151915280546001600160a01b0319908116909155600080516020611b508339815191528054918216905581906001600160a01b03167f8be0079c531659141344cd1fd0a4f28419497f9722a3daafe3b4186f6b6457e08280a380f35b503461037d57602036600319011261037d57610a466004356119db565b503461037d578060031936011261037d576020604054604051908152f35b503461037d578060031936011261037d5760209054604051908152f35b503461037d578060031936011261037d576020605054604051908152f35b503461037d57604036600319011261037d57610d6e6114f7565b610d76611512565b6002600080516020611b908339815191525414610ea3576002600080516020611b908339815191525560018060a01b03821691828452602e602052604084209260018060a01b03831685526033602052604085209380549160115460405491604051976306bda09160e51b89528460048a0152602489015260448801526064870152608486015260208560a48173__$1bfbdd025ffd3afc37361c6ba444514318$__5af4948515610e98578695610e60575b50602095505410610e50575b50506001600080516020611b9083398151915255604051908152f35b610e5991611896565b3880610e34565b9094506020813d602011610e90575b81610e7c602093836115bf565b81010312610a625760209550519338610e28565b3d9150610e6f565b6040513d88823e3d90fd5b633ee5aeb560e01b8352600483fd5b503461037d578060031936011261037d576048546040516001600160a01b039091168152602090f35b503461037d578060031936011261037d576020601354604051908152f35b503461037d578060031936011261037d576020604051670214e8348c4f00008152f35b503461037d578060031936011261037d576020600154604051908152f35b503461037d578060031936011261037d576047546040516001600160a01b039091168152602090f35b503461037d57604036600319011261037d57610f7d611512565b336001600160a01b03821603610f9957610576906004356117f6565b63334bd91960e11b8252600482fd5b503461037d57604036600319011261037d57610576600435610fc8611512565b90610fd561056c82611663565b61174d565b503461037d578060031936011261037d57602060ff605354166040519015158152f35b503461037d57602036600319011261037d57602061101c600435611663565b604051908152f35b503461037d578060031936011261037d576044546040516001600160a01b039091168152602090f35b503461037d578060031936011261037d576020605154604051908152f35b503461037d578060031936011261037d576020604154604051908152f35b503461037d578060031936011261037d576020600254604051908152f35b503461037d57602036600319011261037d5760ff60406020926004358152605284522054166040519015158152f35b503461037d578060031936011261037d576020604354604051908152f35b503461037d578060031936011261037d576020601054604051908152f35b503461037d57602036600319011261037d5760043590602d5482101561037d57602d5482101561036957602d81527f4a2cc91ee622da3bc833a54c37ffcb6f3ec23b7793efc5eaf5e71b7b406c5c069091015460405160039290921b1c6001600160a01b03168152602090f35b503461037d578060031936011261037d576020600554604051908152f35b50602036600319011261037d576111b26114f7565b338252602e602090815260408084206001600160a01b03808516600081815260018401865284902081885260339095529286208454949695909490929116156113a9575b50506044546001600160a01b0316905080611348575b50601154156112a3579181926001601154161560001461129a57600860145b01611237348254611640565b905573__$1bfbdd025ffd3afc37361c6ba444514318$__906011549260425490833b15610a62578593608492604051968795869463220809ab60e01b865260048601526024850152604484015260648301525af480156109945761098357505080f35b6008601f61122b565b34156113395780546001600160a01b03161561132a5781926112c734601c54611640565b601c5573__$1bfbdd025ffd3afc37361c6ba444514318$__91823b156113255760848492604051948593849262a05e2d60e31b845260048401526024830152602f6044830152601460648301525af480156109945761098357505080f35b505050fd5b6353670afb60e11b8252600482fd5b63174b96db60e31b8252600482fd5b803b156113a557828091602460405180948193631bab078b60e31b83523460048401525af1801561139a57908391611381575b5061120c565b8161138b916115bf565b61139657813861137b565b5080fd5b6040513d85823e3d90fd5b8280fd5b85546001600160a01b03191690921785556113d0916113c99082906115f7565b3390611684565b3880806111f6565b503461037d57602036600319011261037d5760043563ffffffff60e01b811680910361139657602090637965db0b60e01b811490811561141e575b506040519015158152f35b6301ffc9a760e01b14905082611413565b503461037d57604036600319011261037d576114496114f7565b611451611512565b6001600160a01b039182168352602e6020908152604080852093909216808552600193909301815281842092845260339052822060115491839173__$1bfbdd025ffd3afc37361c6ba444514318$__803b15610a5e578392606491604051968794859363654d215f60e11b85526004850152602484015260448301525af480156114ea576114dc5780f35b6114e5916115bf565b388180f35b50604051903d90823e3d90fd5b600435906001600160a01b038216820361150d57565b600080fd5b602435906001600160a01b038216820361150d57565b80548210156115405760005260206000200190600090565b634e487b7160e01b600052603260045260246000fd5b3461150d57600036600319011261150d5760206040516103e88152f35b979491926101409996939c9b9a9794919c6101608a019d8a5260208a015260408901526060880152608087015260a086015260c085015260e08401526101008301526101208201520152565b90601f8019910116810190811067ffffffffffffffff8211176115e157604052565b634e487b7160e01b600052604160045260246000fd5b80549190600160401b8310156115e1578261161a91600161163e95018155611528565b81546001600160a01b0393841660039290921b91821b9390911b1916919091179055565b565b9190820180921161164d57565b634e487b7160e01b600052601160045260246000fd5b600052600080516020611b7083398151915260205260016040600020015490565b60018060a01b03169081600052604d602052604060002060018060a01b0382166000526020526040600020546116ff5781600052604c6020526116cb8160406000206115f7565b81600052604c60205260406000205491600052604d60205260406000209060018060a01b0316600052602052604060002055565b5050565b6000818152600080516020611b708339815191526020908152604080832033845290915290205460ff16156117355750565b63e2517d3f60e01b6000523360045260245260446000fd5b6000818152600080516020611b70833981519152602090815260408083206001600160a01b038616845290915290205460ff166117ef576000818152600080516020611b70833981519152602090815260408083206001600160a01b0395909516808452949091528120805460ff19166001179055339291907f2f8788117e7eff1d82e926ec794901d17c78024a50270940304540a733656f0d9080a4600190565b5050600090565b6000818152600080516020611b70833981519152602090815260408083206001600160a01b038616845290915290205460ff16156117ef576000818152600080516020611b70833981519152602090815260408083206001600160a01b0395909516808452949091528120805460ff19169055339291907ff6391f5c32d9c69d2a47ea670b442974b53935d1edc7fd64eb21e047a839171b9080a4600190565b60018060a01b031680600052604d602052604060002060018060a01b03831660005260205260406000205480156119d65781600052604c602052604060002054600019810190811161164d57600019820182811161164d5781810361196d575b50505080600052604c60205260406000208054801561195757600019019061191e8282611528565b81549060018060a01b039060031b1b1916905555600052604d60205260406000209060018060a01b031660005260205260006040812055565b634e487b7160e01b600052603160045260246000fd5b6119b061161a9161198c60409487600052604c60205285600020611528565b60018060a01b0391549060031b1c1692839187600052604c60205285600020611528565b600090848252604d6020528282209060018060a01b0316825260205220553880806118f6565b505050565b6044546000916001600160a01b0390911690816119f757505050565b813b156113a55760405163140edcf560e31b815260048101829052838160248183875af18015611afa57611b05575b50604051634f55e80160e11b81529061010082600481865afa918215611afa578492611ac2575b5080821115611aba578103908111611aa6575b813b156113a557829160248392604051948593849263b8cb573360e01b845260048401525af1801561099457611a94575050565b611a9f8280926115bf565b61037d5750565b634e487b7160e01b83526011600452602483fd5b505081611a60565b909150610100813d8211611af2575b81611adf61010093836115bf565b81010312610a5e57602001519038611a4d565b3d9150611ad1565b6040513d86823e3d90fd5b83611b12919492946115bf565b9138611a26565b600080516020611b50833981519152546001600160a01b03163303611b3a57565b63118cdaa760e01b6000523360045260246000fdfe9016d09d72d40fdae2fd8ceac6b6234c7706214fd39c1cd1e609a0528c19930002dd7bc7dec4dceedda775e58dd541e08a116c6c53815c0bd028192f7b6268009b779b17422d0df92223018b32b4d1fa46e071723d6817e2486d003becc55f00237e158222e3e6968b72b9db0d8043aacf074ad9f650f0d1606b4d82ee432c00a2646970667358221220dd82638a2b2851d5f1acb2daac203d4c2fd40d951d12e757e92b9ff1f921829864736f6c634300081c0033",
  "linkReferences": {
    "contracts/utils/DelegatorUtils.sol": {
      "DelegatorUtils": [
        {
          "length": 20,
          "start": 2362
        },
        {
          "length": 20,
          "start": 2503
        },
        {
          "length": 20,
          "start": 3616
        },
        {
          "length": 20,
          "start": 4694
        },
        {
          "length": 20,
          "start": 4839
        },
        {
          "length": 20,
          "start": 5288
        }
      ]
    }
  },
  "deployedLinkReferences": {
    "contracts/utils/DelegatorUtils.sol": {
      "DelegatorUtils": [
        {
          "length": 20,
          "start": 2335
        },
        {
          "length": 20,
          "start": 2476
        },
        {
          "length": 20,
          "start": 3589
        },
        {
          "length": 20,
          "start": 4667
        },
        {
          "length": 20,
          "start": 4812
        },
        {
          "length": 20,
          "start": 5261
        }
      ]
    }
  }
}