{
  "_format": "hh-sol-artifact-1",
  "contractName": "StakingDelegators",
  "sourceName": "contracts/staking/StakingDelegators.sol",
  "abi": [
    {
      "inputs": [],
      "name": "AccessControlBadConfirmation",
      "type": "error"
    },
    {
      "inputs": [
        {
          "internalType": "address",
          "name": "account",
          "type": "address"
        },
        {
          "internalType": "bytes32",
          "name": "neededRole",
          "type": "bytes32"
        }
      ],
      "name": "AccessControlUnauthorizedAccount",
      "type": "error"
    },
    {
      "inputs": [],
      "name": "DelegatorMayNotJoinWithZeroValue",
      "type": "error"
    },
    {
      "inputs": [],
      "name": "InvalidInitialization",
      "type": "error"
    },
    {
      "inputs": [],
      "name": "NotInitializing",
      "type": "error"
    },
    {
      "inputs": [
        {
          "internalType": "address",
          "name": "owner",
          "type": "address"
        }
      ],
      "name": "OwnableInvalidOwner",
      "type": "error"
    },
    {
      "inputs": [
        {
          "internalType": "address",
          "name": "account",
          "type": "address"
        }
      ],
      "name": "OwnableUnauthorizedAccount",
      "type": "error"
    },
    {
      "inputs": [],
      "name": "ReentrancyGuardReentrantCall",
      "type": "error"
    },
    {
      "inputs": [],
      "name": "ValidatorNotActive",
      "type": "error"
    },
    {
      "anonymous": false,
      "inputs": [
        {
          "indexed": false,
          "internalType": "uint64",
          "name": "version",
          "type": "uint64"
        }
      ],
      "name": "Initialized",
      "type": "event"
    },
    {
      "anonymous": false,
      "inputs": [
        {
          "indexed": true,
          "internalType": "address",
          "name": "previousOwner",
          "type": "address"
        },
        {
          "indexed": true,
          "internalType": "address",
          "name": "newOwner",
          "type": "address"
        }
      ],
      "name": "OwnershipTransferStarted",
      "type": "event"
    },
    {
      "anonymous": false,
      "inputs": [
        {
          "indexed": true,
          "internalType": "address",
          "name": "previousOwner",
          "type": "address"
        },
        {
          "indexed": true,
          "internalType": "address",
          "name": "newOwner",
          "type": "address"
        }
      ],
      "name": "OwnershipTransferred",
      "type": "event"
    },
    {
      "anonymous": false,
      "inputs": [
        {
          "indexed": true,
          "internalType": "bytes32",
          "name": "role",
          "type": "bytes32"
        },
        {
          "indexed": true,
          "internalType": "bytes32",
          "name": "previousAdminRole",
          "type": "bytes32"
        },
        {
          "indexed": true,
          "internalType": "bytes32",
          "name": "newAdminRole",
          "type": "bytes32"
        }
      ],
      "name": "RoleAdminChanged",
      "type": "event"
    },
    {
      "anonymous": false,
      "inputs": [
        {
          "indexed": true,
          "internalType": "bytes32",
          "name": "role",
          "type": "bytes32"
        },
        {
          "indexed": true,
          "internalType": "address",
          "name": "account",
          "type": "address"
        },
        {
          "indexed": true,
          "internalType": "address",
          "name": "sender",
          "type": "address"
        }
      ],
      "name": "RoleGranted",
      "type": "event"
    },
    {
      "anonymous": false,
      "inputs": [
        {
          "indexed": true,
          "internalType": "bytes32",
          "name": "role",
          "type": "bytes32"
        },
        {
          "indexed": true,
          "internalType": "address",
          "name": "account",
          "type": "address"
        },
        {
          "indexed": true,
          "internalType": "address",
          "name": "sender",
          "type": "address"
        }
      ],
      "name": "RoleRevoked",
      "type": "event"
    },
    {
      "anonymous": false,
      "inputs": [
        {
          "indexed": true,
          "internalType": "address",
          "name": "validator",
          "type": "address"
        }
      ],
      "name": "ValidatorIsNotActive",
      "type": "event"
    },
    {
      "inputs": [],
      "name": "DEFAULT_ADMIN_ROLE",
      "outputs": [
        {
          "internalType": "bytes32",
          "name": "",
          "type": "bytes32"
        }
      ],
      "stateMutability": "view",
      "type": "function"
    },
    {
      "inputs": [],
      "name": "DEFAULT_DELEGATOR_MIN_STAKE",
      "outputs": [
        {
          "internalType": "uint256",
          "name": "",
          "type": "uint256"
        }
      ],
      "stateMutability": "view",
      "type": "function"
    },
    {
      "inputs": [],
      "name": "DEFAULT_VALIDATOR_MIN_STAKE",
      "outputs": [
        {
          "internalType": "uint256",
          "name": "",
          "type": "uint256"
        }
      ],
      "stateMutability": "view",
      "type": "function"
    },
    {
      "inputs": [],
      "name": "DELEGATOR_UNBONDING_PERIOD",
      "outputs": [
        {
          "internalType": "uint256",
          "name": "",
          "type": "uint256"
        }
      ],
      "stateMutability": "view",
      "type": "function"
    },
    {
      "inputs": [],
      "name": "INFLATION_BASE",
      "outputs": [
        {
          "internalType": "uint256",
          "name": "",
          "type": "uint256"
        }
      ],
      "stateMutability": "view",
      "type": "function"
    },
    {
      "inputs": [],
      "name": "INFLATION_DEEPTHOUGHT_BPS",
      "outputs": [
        {
          "internalType": "uint256",
          "name": "",
          "type": "uint256"
        }
      ],
      "stateMutability": "view",
      "type": "function"
    },
    {
      "inputs": [],
      "name": "INFLATION_DEVELOPER_BPS",
      "outputs": [
        {
          "internalType": "uint256",
          "name": "",
          "type": "uint256"
        }
      ],
      "stateMutability": "view",
      "type": "function"
    },
    {
      "inputs": [],
      "name": "INFLATION_FINAL",
      "outputs": [
        {
          "internalType": "uint256",
          "name": "",
          "type": "uint256"
        }
      ],
      "stateMutability": "view",
      "type": "function"
    },
    {
      "inputs": [],
      "name": "INFLATION_INITIAL",
      "outputs": [
        {
          "internalType": "uint256",
          "name": "",
          "type": "uint256"
        }
      ],
      "stateMutability": "view",
      "type": "function"
    },
    {
      "inputs": [],
      "name": "INFLATION_MID",
      "outputs": [
        {
          "internalType": "int256",
          "name": "",
          "type": "int256"
        }
      ],
      "stateMutability": "view",
      "type": "function"
    },
    {
      "inputs": [],
      "name": "INFLATION_STAKER_BPS",
      "outputs": [
        {
          "internalType": "uint256",
          "name": "",
          "type": "uint256"
        }
      ],
      "stateMutability": "view",
      "type": "function"
    },
    {
      "inputs": [],
      "name": "INFLATION_STEEPNESS",
      "outputs": [
        {
          "internalType": "int256",
          "name": "",
          "type": "int256"
        }
      ],
      "stateMutability": "view",
      "type": "function"
    },
    {
      "inputs": [],
      "name": "INFLATION_VALIDATOR_BPS",
      "outputs": [
        {
          "internalType": "uint256",
          "name": "",
          "type": "uint256"
        }
      ],
      "stateMutability": "view",
      "type": "function"
    },
    {
      "inputs": [],
      "name": "L1_MESSENGER",
      "outputs": [
        {
          "internalType": "contract IL1Messenger",
          "name": "",
          "type": "address"
        }
      ],
      "stateMutability": "view",
      "type": "function"
    },
    {
      "inputs": [],
      "name": "QUARANTINE_MANAGER_ROLE",
      "outputs": [
        {
          "internalType": "bytes32",
          "name": "",
          "type": "bytes32"
        }
      ],
      "stateMutability": "view",
      "type": "function"
    },
    {
      "inputs": [],
      "name": "SLASH_CALLER_INCENTIVE_BPS",
      "outputs": [
        {
          "internalType": "uint256",
          "name": "",
          "type": "uint256"
        }
      ],
      "stateMutability": "view",
      "type": "function"
    },
    {
      "inputs": [],
      "name": "VALIDATOR_UNBONDING_PERIOD",
      "outputs": [
        {
          "internalType": "uint256",
          "name": "",
          "type": "uint256"
        }
      ],
      "stateMutability": "view",
      "type": "function"
    },
    {
      "inputs": [],
      "name": "acceptOwnership",
      "outputs": [],
      "stateMutability": "nonpayable",
      "type": "function"
    },
    {
      "inputs": [],
      "name": "addressManager",
      "outputs": [
        {
          "internalType": "contract IAddressManager",
          "name": "",
          "type": "address"
        }
      ],
      "stateMutability": "view",
      "type": "function"
    },
    {
      "inputs": [],
      "name": "burning",
      "outputs": [
        {
          "internalType": "uint256",
          "name": "",
          "type": "uint256"
        }
      ],
      "stateMutability": "view",
      "type": "function"
    },
    {
      "inputs": [],
      "name": "deepthought",
      "outputs": [
        {
          "internalType": "address payable",
          "name": "",
          "type": "address"
        }
      ],
      "stateMutability": "view",
      "type": "function"
    },
    {
      "inputs": [
        {
          "internalType": "address",
          "name": "_delegator",
          "type": "address"
        },
        {
          "internalType": "address",
          "name": "_validator",
          "type": "address"
        }
      ],
      "name": "delegatorClaim",
      "outputs": [
        {
          "internalType": "uint256",
          "name": "",
          "type": "uint256"
        }
      ],
      "stateMutability": "nonpayable",
      "type": "function"
    },
    {
      "inputs": [
        {
          "internalType": "address",
          "name": "_delegator",
          "type": "address"
        },
        {
          "internalType": "address",
          "name": "_validator",
          "type": "address"
        }
      ],
      "name": "delegatorClean",
      "outputs": [],
      "stateMutability": "nonpayable",
      "type": "function"
    },
    {
      "inputs": [
        {
          "internalType": "address",
          "name": "_validator",
          "type": "address"
        },
        {
          "internalType": "uint256",
          "name": "_sharesExit",
          "type": "uint256"
        }
      ],
      "name": "delegatorExit",
      "outputs": [],
      "stateMutability": "nonpayable",
      "type": "function"
    },
    {
      "inputs": [
        {
          "internalType": "address",
          "name": "_validator",
          "type": "address"
        }
      ],
      "name": "delegatorJoin",
      "outputs": [],
      "stateMutability": "payable",
      "type": "function"
    },
    {
      "inputs": [],
      "name": "delegatorMinStake",
      "outputs": [
        {
          "internalType": "uint256",
          "name": "",
          "type": "uint256"
        }
      ],
      "stateMutability": "view",
      "type": "function"
    },
    {
      "inputs": [],
      "name": "epoch",
      "outputs": [
        {
          "internalType": "uint256",
          "name": "",
          "type": "uint256"
        }
      ],
      "stateMutability": "view",
      "type": "function"
    },
    {
      "inputs": [],
      "name": "epochEven",
      "outputs": [
        {
          "internalType": "uint256",
          "name": "start",
          "type": "uint256"
        },
        {
          "internalType": "uint256",
          "name": "end",
          "type": "uint256"
        },
        {
          "internalType": "uint256",
          "name": "inflation",
          "type": "uint256"
        },
        {
          "internalType": "uint256",
          "name": "weight",
          "type": "uint256"
        },
        {
          "internalType": "uint256",
          "name": "weightDeposit",
          "type": "uint256"
        },
        {
          "internalType": "uint256",
          "name": "weightWithdrawal",
          "type": "uint256"
        },
        {
          "internalType": "uint256",
          "name": "vcount",
          "type": "uint256"
        },
        {
          "internalType": "uint256",
          "name": "claimed",
          "type": "uint256"
        },
        {
          "internalType": "uint256",
          "name": "stakeDeposit",
          "type": "uint256"
        },
        {
          "internalType": "uint256",
          "name": "stakeWithdrawal",
          "type": "uint256"
        },
        {
          "internalType": "uint256",
          "name": "slashed",
          "type": "uint256"
        }
      ],
      "stateMutability": "view",
      "type": "function"
    },
    {
      "inputs": [],
      "name": "epochExtraMinDuration",
      "outputs": [
        {
          "internalType": "uint256",
          "name": "",
          "type": "uint256"
        }
      ],
      "stateMutability": "view",
      "type": "function"
    },
    {
      "inputs": [],
      "name": "epochMinDuration",
      "outputs": [
        {
          "internalType": "uint256",
          "name": "",
          "type": "uint256"
        }
      ],
      "stateMutability": "view",
      "type": "function"
    },
    {
      "inputs": [],
      "name": "epochMinDurationThreshold",
      "outputs": [
        {
          "internalType": "uint256",
          "name": "",
          "type": "uint256"
        }
      ],
      "stateMutability": "view",
      "type": "function"
    },
    {
      "inputs": [],
      "name": "epochOdd",
      "outputs": [
        {
          "internalType": "uint256",
          "name": "start",
          "type": "uint256"
        },
        {
          "internalType": "uint256",
          "name": "end",
          "type": "uint256"
        },
        {
          "internalType": "uint256",
          "name": "inflation",
          "type": "uint256"
        },
        {
          "internalType": "uint256",
          "name": "weight",
          "type": "uint256"
        },
        {
          "internalType": "uint256",
          "name": "weightDeposit",
          "type": "uint256"
        },
        {
          "internalType": "uint256",
          "name": "weightWithdrawal",
          "type": "uint256"
        },
        {
          "internalType": "uint256",
          "name": "vcount",
          "type": "uint256"
        },
        {
          "internalType": "uint256",
          "name": "claimed",
          "type": "uint256"
        },
        {
          "internalType": "uint256",
          "name": "stakeDeposit",
          "type": "uint256"
        },
        {
          "internalType": "uint256",
          "name": "stakeWithdrawal",
          "type": "uint256"
        },
        {
          "internalType": "uint256",
          "name": "slashed",
          "type": "uint256"
        }
      ],
      "stateMutability": "view",
      "type": "function"
    },
    {
      "inputs": [],
      "name": "epochZeroMinDuration",
      "outputs": [
        {
          "internalType": "uint256",
          "name": "",
          "type": "uint256"
        }
      ],
      "stateMutability": "view",
      "type": "function"
    },
    {
      "inputs": [],
      "name": "finalizationPhaseAddress",
      "outputs": [
        {
          "internalType": "address",
          "name": "",
          "type": "address"
        }
      ],
      "stateMutability": "view",
      "type": "function"
    },
    {
      "inputs": [],
      "name": "finalized",
      "outputs": [
        {
          "internalType": "uint256",
          "name": "",
          "type": "uint256"
        }
      ],
      "stateMutability": "view",
      "type": "function"
    },
    {
      "inputs": [
        {
          "internalType": "bytes32",
          "name": "role",
          "type": "bytes32"
        }
      ],
      "name": "getRoleAdmin",
      "outputs": [
        {
          "internalType": "bytes32",
          "name": "",
          "type": "bytes32"
        }
      ],
      "stateMutability": "view",
      "type": "function"
    },
    {
      "inputs": [
        {
          "internalType": "bytes32",
          "name": "role",
          "type": "bytes32"
        },
        {
          "internalType": "address",
          "name": "account",
          "type": "address"
        }
      ],
      "name": "grantRole",
      "outputs": [],
      "stateMutability": "nonpayable",
      "type": "function"
    },
    {
      "inputs": [
        {
          "internalType": "bytes32",
          "name": "role",
          "type": "bytes32"
        },
        {
          "internalType": "address",
          "name": "account",
          "type": "address"
        }
      ],
      "name": "hasRole",
      "outputs": [
        {
          "internalType": "bool",
          "name": "",
          "type": "bool"
        }
      ],
      "stateMutability": "view",
      "type": "function"
    },
    {
      "inputs": [],
      "name": "idlenessPhaseAddress",
      "outputs": [
        {
          "internalType": "address",
          "name": "",
          "type": "address"
        }
      ],
      "stateMutability": "view",
      "type": "function"
    },
    {
      "inputs": [],
      "name": "inflationEpoch",
      "outputs": [
        {
          "internalType": "uint256",
          "name": "",
          "type": "uint256"
        }
      ],
      "stateMutability": "view",
      "type": "function"
    },
    {
      "inputs": [],
      "name": "inflationRequestThreshold",
      "outputs": [
        {
          "internalType": "uint256",
          "name": "",
          "type": "uint256"
        }
      ],
      "stateMutability": "view",
      "type": "function"
    },
    {
      "inputs": [
        {
          "internalType": "uint256",
          "name": "",
          "type": "uint256"
        }
      ],
      "name": "inflationRequested",
      "outputs": [
        {
          "internalType": "bool",
          "name": "",
          "type": "bool"
        }
      ],
      "stateMutability": "view",
      "type": "function"
    },
    {
      "inputs": [],
      "name": "inflationSupply",
      "outputs": [
        {
          "internalType": "uint256",
          "name": "",
          "type": "uint256"
        }
      ],
      "stateMutability": "view",
      "type": "function"
    },
    {
      "inputs": [],
      "name": "inflationTargetAhead",
      "outputs": [
        {
          "internalType": "uint256",
          "name": "",
          "type": "uint256"
        }
      ],
      "stateMutability": "view",
      "type": "function"
    },
    {
      "inputs": [],
      "name": "l2GasLimit",
      "outputs": [
        {
          "internalType": "uint256",
          "name": "",
          "type": "uint256"
        }
      ],
      "stateMutability": "view",
      "type": "function"
    },
    {
      "inputs": [],
      "name": "l2GasPrice",
      "outputs": [
        {
          "internalType": "uint256",
          "name": "",
          "type": "uint256"
        }
      ],
      "stateMutability": "view",
      "type": "function"
    },
    {
      "inputs": [],
      "name": "maxValidators",
      "outputs": [
        {
          "internalType": "uint256",
          "name": "",
          "type": "uint256"
        }
      ],
      "stateMutability": "view",
      "type": "function"
    },
    {
      "inputs": [
        {
          "internalType": "address",
          "name": "",
          "type": "address"
        }
      ],
      "name": "operatorsToValidators",
      "outputs": [
        {
          "internalType": "address",
          "name": "",
          "type": "address"
        }
      ],
      "stateMutability": "view",
      "type": "function"
    },
    {
      "inputs": [],
      "name": "owner",
      "outputs": [
        {
          "internalType": "address",
          "name": "",
          "type": "address"
        }
      ],
      "stateMutability": "view",
      "type": "function"
    },
    {
      "inputs": [],
      "name": "pendingOwner",
      "outputs": [
        {
          "internalType": "address",
          "name": "",
          "type": "address"
        }
      ],
      "stateMutability": "view",
      "type": "function"
    },
    {
      "inputs": [],
      "name": "pendingRequestInflationFromL1",
      "outputs": [
        {
          "internalType": "bool",
          "name": "",
          "type": "bool"
        }
      ],
      "stateMutability": "view",
      "type": "function"
    },
    {
      "inputs": [],
      "name": "reductionFactor",
      "outputs": [
        {
          "internalType": "uint256",
          "name": "",
          "type": "uint256"
        }
      ],
      "stateMutability": "view",
      "type": "function"
    },
    {
      "inputs": [],
      "name": "renounceOwnership",
      "outputs": [],
      "stateMutability": "nonpayable",
      "type": "function"
    },
    {
      "inputs": [
        {
          "internalType": "bytes32",
          "name": "role",
          "type": "bytes32"
        },
        {
          "internalType": "address",
          "name": "callerConfirmation",
          "type": "address"
        }
      ],
      "name": "renounceRole",
      "outputs": [],
      "stateMutability": "nonpayable",
      "type": "function"
    },
    {
      "inputs": [],
      "name": "revealingPhaseAddress",
      "outputs": [
        {
          "internalType": "address",
          "name": "",
          "type": "address"
        }
      ],
      "stateMutability": "view",
      "type": "function"
    },
    {
      "inputs": [
        {
          "internalType": "bytes32",
          "name": "role",
          "type": "bytes32"
        },
        {
          "internalType": "address",
          "name": "account",
          "type": "address"
        }
      ],
      "name": "revokeRole",
      "outputs": [],
      "stateMutability": "nonpayable",
      "type": "function"
    },
    {
      "inputs": [],
      "name": "stakingInvariant",
      "outputs": [
        {
          "internalType": "address",
          "name": "",
          "type": "address"
        }
      ],
      "stateMutability": "view",
      "type": "function"
    },
    {
      "inputs": [
        {
          "internalType": "bytes4",
          "name": "interfaceId",
          "type": "bytes4"
        }
      ],
      "name": "supportsInterface",
      "outputs": [
        {
          "internalType": "bool",
          "name": "",
          "type": "bool"
        }
      ],
      "stateMutability": "view",
      "type": "function"
    },
    {
      "inputs": [],
      "name": "transactionFeesManager",
      "outputs": [
        {
          "internalType": "address",
          "name": "",
          "type": "address"
        }
      ],
      "stateMutability": "view",
      "type": "function"
    },
    {
      "inputs": [
        {
          "internalType": "address",
          "name": "newOwner",
          "type": "address"
        }
      ],
      "name": "transferOwnership",
      "outputs": [],
      "stateMutability": "nonpayable",
      "type": "function"
    },
    {
      "inputs": [
        {
          "internalType": "uint256",
          "name": "_claimAmount",
          "type": "uint256"
        }
      ],
      "name": "updateTotalStake",
      "outputs": [],
      "stateMutability": "nonpayable",
      "type": "function"
    },
    {
      "inputs": [
        {
          "internalType": "address",
          "name": "validatorAddress",
          "type": "address"
        }
      ],
      "name": "validatorInsertedInTree",
      "outputs": [
        {
          "internalType": "uint256",
          "name": "timestamp",
          "type": "uint256"
        }
      ],
      "stateMutability": "view",
      "type": "function"
    },
    {
      "inputs": [],
      "name": "validatorMinStake",
      "outputs": [
        {
          "internalType": "uint256",
          "name": "",
          "type": "uint256"
        }
      ],
      "stateMutability": "view",
      "type": "function"
    },
    {
      "inputs": [
        {
          "internalType": "address",
          "name": "validatorAddress",
          "type": "address"
        }
      ],
      "name": "validatorRemovedFromTheTree",
      "outputs": [
        {
          "internalType": "uint256",
          "name": "timestamp",
          "type": "uint256"
        }
      ],
      "stateMutability": "view",
      "type": "function"
    },
    {
      "inputs": [
        {
          "internalType": "uint256",
          "name": "",
          "type": "uint256"
        }
      ],
      "name": "validatorsEven",
      "outputs": [
        {
          "internalType": "address",
          "name": "",
          "type": "address"
        }
      ],
      "stateMutability": "view",
      "type": "function"
    },
    {
      "inputs": [
        {
          "internalType": "uint256",
          "name": "",
          "type": "uint256"
        }
      ],
      "name": "validatorsJoined",
      "outputs": [
        {
          "internalType": "address",
          "name": "",
          "type": "address"
        }
      ],
      "stateMutability": "view",
      "type": "function"
    },
    {
      "inputs": [
        {
          "internalType": "uint256",
          "name": "",
          "type": "uint256"
        }
      ],
      "name": "validatorsOdd",
      "outputs": [
        {
          "internalType": "address",
          "name": "",
          "type": "address"
        }
      ],
      "stateMutability": "view",
      "type": "function"
    },
    {
      "inputs": [
        {
          "internalType": "uint256",
          "name": "",
          "type": "uint256"
        }
      ],
      "name": "weightsEven",
      "outputs": [
        {
          "internalType": "uint256",
          "name": "",
          "type": "uint256"
        }
      ],
      "stateMutability": "view",
      "type": "function"
    },
    {
      "inputs": [
        {
          "internalType": "uint256",
          "name": "",
          "type": "uint256"
        }
      ],
      "name": "weightsOdd",
      "outputs": [
        {
          "internalType": "uint256",
          "name": "",
          "type": "uint256"
        }
      ],
      "stateMutability": "view",
      "type": "function"
    }
  ],
  "bytecode": "0x60808060405234601557611d52908161001b8239f35b600080fdfe6080604052600436101561001257600080fd5b6000803560e01c8062b17a011461158757806301ffc9a71461153057806304abb96d1461128e57806308ac5256146112705780630a3cfb13146112035780630ab07e88146111e55780631538faf2146111c757806318a3b882146111985780631bc2359a1461117a578063217fcc3e14610b295780632272e0ab1461115c57806324147f671461113e57806324840a5e14611115578063248a9ca3146110ee57806326ed4c70146110cb5780632f2ff15d1461109957806336568abe146110545780633ab76e9f1461102b5780633fde6d7b1461100d57806344aa3ded14610fd45780634971ec0214610fb15780634c12b33f14610f935780634f2938fc14610f6a578063502e28ea14610e0c578063624a448514610dee5780636378eba314610dd157806367604d2714610db35780636fcf82c414610d93578063715018a614610d12578063746e4ac714610ccf5780637492100f14610cad57806379ba509714610bfe5780637a5d266014610bd55780637e1233a914610bb85780638377259514610b9b57806387e51da914610b2e5780638b7e92a614610b295780638ba7eceb1461091d5780638da5cb5b146108e7578063900cf0cf146108c9578063900fd9ce1461088657806391d148541461082d57806396be02a7146107e75780639ae36685146107c95780639d357fd814610790578063a01ebaa11461076c578063a217fddf14610750578063a8027c101461072d578063abfd6fa914610709578063ac78a04b146106ec578063b03df1f0146106ab578063b3f05b971461068d578063bc338e7f14610671578063c0a604ad14610653578063c498c95b1461062e578063cb17452f146105f3578063cd38347f146105cc578063cd856235146105ae578063cf6e65b714610590578063d547741f14610555578063d7ef35441461052c578063da7a9b6a1461050e578063de8eec64146104e5578063e30c3978146104af578063e3c6b0ca14610491578063f2fde38b14610409578063f85683ef146103e0578063fafebac5146103965763fb6fe7761461031357600080fd5b3461039357602036600319011261039357600435906045548210156103935760455482101561037f57604581527fa80a8fcc11760162f08bb091d2c9389d07f2b73d0e996161dfac6f1043b5fc0b9091015460405160039290921b1c6001600160a01b03168152602090f35b634e487b7160e01b81526032600452602490fd5b80fd5b5034610393578060031936011261039357601454601554906103dc601654601754601854601954601a54601b5491601c5493601d5495601e54976040519b8c9b8c6116cb565b0390f35b5034610393578060031936011261039357604a546040516001600160a01b039091168152602090f35b50346103935760203660031901126103935761042361164f565b61042b611c66565b600080516020611cfd83398151915280546001600160a01b0319166001600160a01b03928316908117909155600080516020611c9d833981519152549091167f38d16b8cac22d99fc7c124b9cd0de2d3fa1faef420bfe791d8c362d765e227008380a380f35b50346103935780600319360112610393576020600354604051908152f35b5034610393578060031936011261039357600080516020611cfd833981519152546040516001600160a01b039091168152602090f35b50346103935780600319360112610393576046546040516001600160a01b039091168152602090f35b50346103935780600319360112610393576020604254604051908152f35b5034610393578060031936011261039357600e546040516001600160a01b039091168152602090f35b50346103935760403660031901126103935761058c60043561057561166a565b90610587610582826117bb565b61185b565b61194e565b5080f35b50346103935780600319360112610393576020604f54604051908152f35b50346103935780600319360112610393576020600454604051908152f35b503461039357806003193601126103935760206040516b0d92289838d21a99680000008152f35b503461039357806003193601126103935760206040517f155e7f76c52e49fe8308e62eabe3ce449c978443b7d8beb86992427229ec386f8152f35b503461039357806003193601126103935760206040516908e4d3168276864000008152f35b50346103935780600319360112610393576020600f54604051908152f35b5034610393578060031936011261039357602060405160648152f35b50346103935780600319360112610393576020601254604051908152f35b5034610393576020366003190112610393576020906001600160a01b036106d061164f565b16815260348252604060018060a01b0391205416604051908152f35b503461039357806003193601126103935760206040516101f48152f35b50346103935780600319360112610393576020604051680246ddf979766800008152f35b50346103935780600319360112610393576020604051660aa87bee537fff198152f35b5034610393578060031936011261039357602090604051908152f35b50346103935780600319360112610393576020604051684e1003b28d928000008152f35b5034610393576020366003190112610393576020906040906001600160a01b036107b861164f565b168152605583522054604051908152f35b50346103935780600319360112610393576020604e54604051908152f35b5034610393578060031936011261039357601f54602054906103dc602154602254602354602454602554602654916027549360285495602954976040519b8c9b8c6116cb565b503461039357604036600319011261039357604061084961166a565b916004358152600080516020611cbd833981519152602052209060018060a01b0316600052602052602060ff604060002054166040519015158152f35b50346103935760203660031901126103935760043590602b5482101561039357602b5482101561037f57602091602b825282822001549060031b1c604051908152f35b50346103935780600319360112610393576020601154604051908152f35b5034610393578060031936011261039357600080516020611c9d833981519152546040516001600160a01b039091168152602090f35b50346103935760403660031901126103935761093761164f565b6001600160a01b03811680835260546020526040832054909183916024359015610aff575b338352602e60205260408320918484526033602052604084209082610af1575b60115415610a30575073__$1bfbdd025ffd3afc37361c6ba444514318$__916011549360425493803b15610a2c57869460a4936040519788968795632167701760e21b8752600487015260248601526044850152606484015260848301525af48015610a2157610a08575b50505b80825260546020524260408320558152605560205280604081205580f35b81610a1291611717565b610a1d5781386109e7565b5080fd5b6040513d84823e3d90fd5b8680fd5b9390929182549373__$1bfbdd025ffd3afc37361c6ba444514318$__908760005260018501602052604060002060425490833b15610aed57859360e492604051968795869463659f32f360e01b865260048601528a60248601526044850152602f60648501526014608485015260a484015260c48301525af48015610a2157610ad4575b50505410610ac3575b506109ea565b610ace9033906119ee565b38610abd565b81610ade91611717565b610ae9578438610ab4565b8480fd5b8580fd5b610afa83611b33565b61097c565b837fedaa1004c751817873d427e31ee3b96fa4f55e5c93678c5fc4718277585a1bd38480a261095c565b6116ae565b50346103935760203660031901126103935760043590602c5482101561039357602c5482101561037f57602c81527f7416c943b4a09859521022fd2e90eac0dd9026dad28fa317782a135f28a860919091015460405160039290921b1c6001600160a01b03168152602090f35b50346103935780600319360112610393576020604051611d4c8152f35b503461039357806003193601126103935760206040516180088152f35b50346103935780600319360112610393576049546040516001600160a01b039091168152602090f35b5034610393578060031936011261039357600080516020611cfd83398151915254336001600160a01b0390911603610c9a57600080516020611cfd83398151915280546001600160a01b0319908116909155600080516020611c9d83398151915280543392811683179091556001600160a01b03167f8be0079c531659141344cd1fd0a4f28419497f9722a3daafe3b4186f6b6457e08380a380f35b63118cdaa760e01b815233600452602490fd5b50346103935780600319360112610393576020604051668e1bc9bf0400008152f35b50346103935760203660031901126103935760043590602a5482101561039357602a5482101561037f57602091602a825282822001549060031b1c604051908152f35b5034610393578060031936011261039357610d2b611c66565b600080516020611cfd83398151915280546001600160a01b0319908116909155600080516020611c9d8339815191528054918216905581906001600160a01b03167f8be0079c531659141344cd1fd0a4f28419497f9722a3daafe3b4186f6b6457e08280a380f35b503461039357602036600319011261039357610db0600435611b33565b80f35b50346103935780600319360112610393576020604054604051908152f35b503461039357806003193601126103935760209054604051908152f35b50346103935780600319360112610393576020605054604051908152f35b503461039357604036600319011261039357610e2661164f565b610e2e61166a565b6002600080516020611cdd8339815191525414610f5b576002600080516020611cdd8339815191525560018060a01b03821691828452602e602052604084209260018060a01b03831685526033602052604085209380549160115460405491604051976306bda09160e51b89528460048a0152602489015260448801526064870152608486015260208560a48173__$1bfbdd025ffd3afc37361c6ba444514318$__5af4948515610f50578695610f18575b50602095505410610f08575b50506001600080516020611cdd83398151915255604051908152f35b610f11916119ee565b3880610eec565b9094506020813d602011610f48575b81610f3460209383611717565b81010312610aed5760209550519338610ee0565b3d9150610f27565b6040513d88823e3d90fd5b633ee5aeb560e01b8352600483fd5b50346103935780600319360112610393576048546040516001600160a01b039091168152602090f35b50346103935780600319360112610393576020601354604051908152f35b50346103935780600319360112610393576020604051670214e8348c4f00008152f35b5034610393576020366003190112610393576020906040906001600160a01b03610ffc61164f565b168152605483522054604051908152f35b50346103935780600319360112610393576020600154604051908152f35b50346103935780600319360112610393576047546040516001600160a01b039091168152602090f35b50346103935760403660031901126103935761106e61166a565b336001600160a01b0382160361108a5761058c9060043561194e565b63334bd91960e11b8252600482fd5b50346103935760403660031901126103935761058c6004356110b961166a565b906110c6610582826117bb565b6118a5565b5034610393578060031936011261039357602060ff605354166040519015158152f35b503461039357602036600319011261039357602061110d6004356117bb565b604051908152f35b50346103935780600319360112610393576044546040516001600160a01b039091168152602090f35b50346103935780600319360112610393576020605154604051908152f35b50346103935780600319360112610393576020604154604051908152f35b50346103935780600319360112610393576020600254604051908152f35b50346103935760203660031901126103935760ff60406020926004358152605284522054166040519015158152f35b50346103935780600319360112610393576020604354604051908152f35b50346103935780600319360112610393576020601054604051908152f35b50346103935760203660031901126103935760043590602d5482101561039357602d5482101561037f57602d81527f4a2cc91ee622da3bc833a54c37ffcb6f3ec23b7793efc5eaf5e71b7b406c5c069091015460405160039290921b1c6001600160a01b03168152602090f35b50346103935780600319360112610393576020600554604051908152f35b506020366003190112610393576112a361164f565b6001600160a01b038116808352605460205260408320549091839115611506575b338252602e6020526040822090604060008581526001840160205220918484526033602052604084209160018060a01b03845416156114d9575b50506044546001600160a01b03168061147c575b50601154156113bd576011546001166113b457600860145b01611336348254611798565b905573__$1bfbdd025ffd3afc37361c6ba444514318$__906011549260425490833b15610aed578593608492604051968795869463220809ab60e01b865260048601526024850152604484015260648301525af48015610a2157610a0857505080825260546020524260408320558152605560205280604081205580f35b6008601f61132a565b9150341561146d5781546001600160a01b03161561145e579083916113e434601c54611798565b601c5573__$1bfbdd025ffd3afc37361c6ba444514318$__91823b1561145a5760848492604051948593849262a05e2d60e31b845260048401526024830152602f6044830152601460648301525af48015610a2157611445575b50506109ea565b8161144f91611717565b610a1d57813861143e565b8380fd5b6353670afb60e11b8452600484fd5b63174b96db60e31b8452600484fd5b803b1561145a57838091602460405180948193631bab078b60e31b83523460048401525af19081156114ce5784916114b5575b50611312565b816114bf91611717565b6114ca5782386114af565b8280fd5b6040513d86823e3d90fd5b83546001600160a01b031916861784556114ff916114f890829061174f565b33906117dc565b38806112fe565b827fedaa1004c751817873d427e31ee3b96fa4f55e5c93678c5fc4718277585a1bd38380a26112c4565b50346103935760203660031901126103935760043563ffffffff60e01b8116809103610a1d57602090637965db0b60e01b8114908115611576575b506040519015158152f35b6301ffc9a760e01b1490508261156b565b5034610393576040366003190112610393576115a161164f565b6115a961166a565b6001600160a01b039182168352602e6020908152604080852093909216808552600193909301815281842092845260339052822060115491839173__$1bfbdd025ffd3afc37361c6ba444514318$__803b1561145a578392606491604051968794859363654d215f60e11b85526004850152602484015260448301525af48015611642576116345780f35b61163d91611717565b388180f35b50604051903d90823e3d90fd5b600435906001600160a01b038216820361166557565b600080fd5b602435906001600160a01b038216820361166557565b80548210156116985760005260206000200190600090565b634e487b7160e01b600052603260045260246000fd5b346116655760003660031901126116655760206040516103e88152f35b979491926101409996939c9b9a9794919c6101608a019d8a5260208a015260408901526060880152608087015260a086015260c085015260e08401526101008301526101208201520152565b90601f8019910116810190811067ffffffffffffffff82111761173957604052565b634e487b7160e01b600052604160045260246000fd5b80549190600160401b831015611739578261177291600161179695018155611680565b81546001600160a01b0393841660039290921b91821b9390911b1916919091179055565b565b919082018092116117a557565b634e487b7160e01b600052601160045260246000fd5b600052600080516020611cbd83398151915260205260016040600020015490565b60018060a01b03169081600052604d602052604060002060018060a01b0382166000526020526040600020546118575781600052604c60205261182381604060002061174f565b81600052604c60205260406000205491600052604d60205260406000209060018060a01b0316600052602052604060002055565b5050565b6000818152600080516020611cbd8339815191526020908152604080832033845290915290205460ff161561188d5750565b63e2517d3f60e01b6000523360045260245260446000fd5b6000818152600080516020611cbd833981519152602090815260408083206001600160a01b038616845290915290205460ff16611947576000818152600080516020611cbd833981519152602090815260408083206001600160a01b0395909516808452949091528120805460ff19166001179055339291907f2f8788117e7eff1d82e926ec794901d17c78024a50270940304540a733656f0d9080a4600190565b5050600090565b6000818152600080516020611cbd833981519152602090815260408083206001600160a01b038616845290915290205460ff1615611947576000818152600080516020611cbd833981519152602090815260408083206001600160a01b0395909516808452949091528120805460ff19169055339291907ff6391f5c32d9c69d2a47ea670b442974b53935d1edc7fd64eb21e047a839171b9080a4600190565b60018060a01b031680600052604d602052604060002060018060a01b0383166000526020526040600020548015611b2e5781600052604c60205260406000205460001981019081116117a55760001982018281116117a557818103611ac5575b50505080600052604c602052604060002080548015611aaf576000190190611a768282611680565b81549060018060a01b039060031b1b1916905555600052604d60205260406000209060018060a01b031660005260205260006040812055565b634e487b7160e01b600052603160045260246000fd5b611b0861177291611ae460409487600052604c60205285600020611680565b60018060a01b0391549060031b1c1692839187600052604c60205285600020611680565b600090848252604d6020528282209060018060a01b031682526020522055388080611a4e565b505050565b6044546000916001600160a01b039091169081611b4f57505050565b813b156114ca5760405163140edcf560e31b815260048101829052838160248183875af180156114ce57611c52575b50604051634f55e80160e11b81529061010082600481865afa9182156114ce578492611c1a575b5080821115611c12578103908111611bfe575b813b156114ca57829160248392604051948593849263b8cb573360e01b845260048401525af18015610a2157611bec575050565b611bf7828092611717565b6103935750565b634e487b7160e01b83526011600452602483fd5b505081611bb8565b909150610100813d8211611c4a575b81611c376101009383611717565b8101031261145a57602001519038611ba5565b3d9150611c29565b83611c5f91949294611717565b9138611b7e565b600080516020611c9d833981519152546001600160a01b03163303611c8757565b63118cdaa760e01b6000523360045260246000fdfe9016d09d72d40fdae2fd8ceac6b6234c7706214fd39c1cd1e609a0528c19930002dd7bc7dec4dceedda775e58dd541e08a116c6c53815c0bd028192f7b6268009b779b17422d0df92223018b32b4d1fa46e071723d6817e2486d003becc55f00237e158222e3e6968b72b9db0d8043aacf074ad9f650f0d1606b4d82ee432c00a2646970667358221220940f98454be71122875ca0f63fe30dc43efe158e1b40d3cf6efaa15fbb3d07e964736f6c634300081c0033",
  "linkReferences": {
    "contracts/utils/DelegatorUtils.sol": {
      "DelegatorUtils": [
        {
          "length": 20,
          "start": 2466
        },
        {
          "length": 20,
          "start": 2644
        },
        {
          "length": 20,
          "start": 3800
        },
        {
          "length": 20,
          "start": 4949
        },
        {
          "length": 20,
          "start": 5124
        },
        {
          "length": 20,
          "start": 5632
        }
      ]
    }
  },
  "deployedLinkReferences": {
    "contracts/utils/DelegatorUtils.sol": {
      "DelegatorUtils": [
        {
          "length": 20,
          "start": 2439
        },
        {
          "length": 20,
          "start": 2617
        },
        {
          "length": 20,
          "start": 3773
        },
        {
          "length": 20,
          "start": 4922
        },
        {
          "length": 20,
          "start": 5097
        },
        {
          "length": 20,
          "start": 5605
        }
      ]
    }
  }
}