{
  "_format": "hh-sol-artifact-1",
  "contractName": "MockInsufficientGhost",
  "sourceName": "contracts/test-helpers/MockInsufficientGhost.sol",
  "abi": [
    {
      "inputs": [],
      "name": "InvalidInitialization",
      "type": "error"
    },
    {
      "inputs": [],
      "name": "NotInitializing",
      "type": "error"
    },
    {
      "inputs": [
        {
          "internalType": "address",
          "name": "owner",
          "type": "address"
        }
      ],
      "name": "OwnableInvalidOwner",
      "type": "error"
    },
    {
      "inputs": [
        {
          "internalType": "address",
          "name": "account",
          "type": "address"
        }
      ],
      "name": "OwnableUnauthorizedAccount",
      "type": "error"
    },
    {
      "anonymous": false,
      "inputs": [
        {
          "indexed": false,
          "internalType": "uint64",
          "name": "version",
          "type": "uint64"
        }
      ],
      "name": "Initialized",
      "type": "event"
    },
    {
      "anonymous": false,
      "inputs": [
        {
          "indexed": true,
          "internalType": "address",
          "name": "previousOwner",
          "type": "address"
        },
        {
          "indexed": true,
          "internalType": "address",
          "name": "newOwner",
          "type": "address"
        }
      ],
      "name": "OwnershipTransferred",
      "type": "event"
    },
    {
      "anonymous": false,
      "inputs": [
        {
          "indexed": true,
          "internalType": "address",
          "name": "to",
          "type": "address"
        },
        {
          "indexed": false,
          "internalType": "bytes32",
          "name": "msgId",
          "type": "bytes32"
        },
        {
          "indexed": false,
          "internalType": "bytes",
          "name": "data",
          "type": "bytes"
        }
      ],
      "name": "TransactionExecuted",
      "type": "event"
    },
    {
      "inputs": [
        {
          "internalType": "uint256",
          "name": "_numOfInitialValidators",
          "type": "uint256"
        },
        {
          "internalType": "uint256",
          "name": "_maxRotations",
          "type": "uint256"
        },
        {
          "internalType": "bytes",
          "name": "_txData",
          "type": "bytes"
        },
        {
          "internalType": "uint256",
          "name": "_validUntil",
          "type": "uint256"
        }
      ],
      "name": "addTransaction",
      "outputs": [],
      "stateMutability": "payable",
      "type": "function"
    },
    {
      "inputs": [],
      "name": "drainBalance",
      "outputs": [],
      "stateMutability": "nonpayable",
      "type": "function"
    },
    {
      "inputs": [],
      "name": "getNonce",
      "outputs": [
        {
          "internalType": "uint256",
          "name": "",
          "type": "uint256"
        }
      ],
      "stateMutability": "view",
      "type": "function"
    },
    {
      "inputs": [],
      "name": "getVmType",
      "outputs": [
        {
          "internalType": "uint256",
          "name": "",
          "type": "uint256"
        }
      ],
      "stateMutability": "view",
      "type": "function"
    },
    {
      "inputs": [
        {
          "internalType": "address",
          "name": "to",
          "type": "address"
        },
        {
          "internalType": "bytes32",
          "name": "msgId",
          "type": "bytes32"
        },
        {
          "internalType": "uint256",
          "name": "expectedNonce",
          "type": "uint256"
        },
        {
          "internalType": "bytes",
          "name": "data",
          "type": "bytes"
        }
      ],
      "name": "handleOp",
      "outputs": [],
      "stateMutability": "payable",
      "type": "function"
    },
    {
      "inputs": [
        {
          "internalType": "address",
          "name": "_owner",
          "type": "address"
        },
        {
          "internalType": "uint256",
          "name": "_vmType",
          "type": "uint256"
        }
      ],
      "name": "initialize",
      "outputs": [],
      "stateMutability": "nonpayable",
      "type": "function"
    },
    {
      "inputs": [],
      "name": "owner",
      "outputs": [
        {
          "internalType": "address",
          "name": "",
          "type": "address"
        }
      ],
      "stateMutability": "view",
      "type": "function"
    },
    {
      "inputs": [],
      "name": "renounceOwnership",
      "outputs": [],
      "stateMutability": "nonpayable",
      "type": "function"
    },
    {
      "inputs": [
        {
          "internalType": "address",
          "name": "newOwner",
          "type": "address"
        }
      ],
      "name": "transferOwnership",
      "outputs": [],
      "stateMutability": "nonpayable",
      "type": "function"
    },
    {
      "inputs": [
        {
          "internalType": "address",
          "name": "to",
          "type": "address"
        },
        {
          "internalType": "uint256",
          "name": "amount",
          "type": "uint256"
        }
      ],
      "name": "withdrawValue",
      "outputs": [],
      "stateMutability": "payable",
      "type": "function"
    },
    {
      "stateMutability": "payable",
      "type": "receive"
    }
  ],
  "bytecode": "0x60808060405234601557610917908161001b8239f35b600080fdfe6080604052600436101561001b575b361561001957600080fd5b005b60003560e01c806313ec2428146106615780633fb17f10146104b6578063715018a61461044c57806383a8dcd81461042e5780638da5cb5b146103f8578063b4f334d61461029c578063b7068dca1461022f578063cd6dc687146100da578063d087d288146100bc5763f2fde38b0361000e57346100b75760203660031901126100b7576100196100aa6106df565b6100b261083d565b6107c7565b600080fd5b346100b75760003660031901126100b7576020600054604051908152f35b346100b75760403660031901126100b7576100f36106df565b6000805160206108c28339815191525460ff8160401c16159167ffffffffffffffff821680159081610227575b600114908161021d575b159081610214575b506102035767ffffffffffffffff1982166001176000805160206108c28339815191525561017191836101d6575b50610169610873565b6100b2610873565b600160005560243560015561018257005b60ff60401b196000805160206108c283398151915254166000805160206108c2833981519152557fc7f505b2f371ae2175ee4913f4499e1f2633a7b5936321eed1cdaeb6115181d2602060405160018152a1005b68ffffffffffffffffff191668010000000000000001176000805160206108c28339815191525583610160565b63f92ee8a960e01b60005260046000fd5b90501584610132565b303b15915061012a565b849150610120565b60403660031901126100b7576102436106df565b5061024c61083d565b60405162461bcd60e51b815260206004820152602260248201527f496e73756666696369656e742062616c616e636520696e206d6f636b2067686f6044820152611cdd60f21b6064820152608490fd5b60803660031901126100b75760443567ffffffffffffffff81116100b757366023820112156100b75780600401356102d38161072d565b916102e160405193846106f5565b81835236602483830101116100b757816000926024602093018386013783010152604051602081019163738ea8cb60e11b83523360248301523060448301526004356064830152602435608483015260c060a48301528051908160e484015260005b8281106103e157600080858761037e61010483898683828401015260643560c4830152601f801991011681010301601f1981018452836106f5565b6000805160206108a28339815191525491519134906001600160a01b03165af16103a6610749565b50156103ae57005b60405162461bcd60e51b815260206004820152600b60248201526a10d85b1b0819985a5b195960aa1b6044820152606490fd5b806020809284010151610104828701015201610343565b346100b75760003660031901126100b7576000805160206108a2833981519152546040516001600160a01b039091168152602090f35b346100b75760003660031901126100b7576020600154604051908152f35b346100b75760003660031901126100b75761046561083d565b6000805160206108a283398151915280546001600160a01b031981169091556000906001600160a01b03167f8be0079c531659141344cd1fd0a4f28419497f9722a3daafe3b4186f6b6457e08280a3005b60803660031901126100b7576104ca6106df565b604435906064359067ffffffffffffffff82116100b757366023830112156100b75781600401359167ffffffffffffffff83116100b757602481019060248436920101116100b75761051a61083d565b60005480851015908161064b575b5015610616577f4aacc1769103d0575734a31601a30d8f74c7843414f868342af438b4fdc4d78e91839160609134156105ef576105836000806040518786823780888101838152039034865af161057d610749565b50610786565b6040519384926024358452604060208501528160408501528484013760008287018401526001600160a01b031694601f01601f19168101030190a26105cb6000548092610779565b81018091116105d957600055005b634e487b7160e01b600052601160045260246000fd5b6106116000806040518786823780888101838152039082865af161057d610749565b610583565b60405162461bcd60e51b815260206004820152600d60248201526c496e76616c6964206e6f6e636560981b6044820152606490fd5b600a91506106599086610779565b111585610528565b346100b75760003660031901126100b75761067a61083d565b600080808060018060a01b036000805160206108a2833981519152541647905af16106a3610749565b50156106ab57005b60405162461bcd60e51b815260206004820152600c60248201526b111c985a5b8819985a5b195960a21b6044820152606490fd5b600435906001600160a01b03821682036100b757565b90601f8019910116810190811067ffffffffffffffff82111761071757604052565b634e487b7160e01b600052604160045260246000fd5b67ffffffffffffffff811161071757601f01601f191660200190565b3d15610774573d9061075a8261072d565b9161076860405193846106f5565b82523d6000602084013e565b606090565b919082039182116105d957565b1561078d57565b60405162461bcd60e51b8152602060048201526012602482015271151c985b9cd858dd1a5bdb8819985a5b195960721b6044820152606490fd5b6001600160a01b03168015610827576000805160206108a283398151915280546001600160a01b0319811683179091556001600160a01b03167f8be0079c531659141344cd1fd0a4f28419497f9722a3daafe3b4186f6b6457e0600080a3565b631e4fbdf760e01b600052600060045260246000fd5b6000805160206108a2833981519152546001600160a01b0316330361085e57565b63118cdaa760e01b6000523360045260246000fd5b60ff6000805160206108c28339815191525460401c161561089057565b631afcd79f60e31b60005260046000fdfe9016d09d72d40fdae2fd8ceac6b6234c7706214fd39c1cd1e609a0528c199300f0c57e16840df040f15088dc2f81fe391c3923bec73e23a9662efc9c229c6a00a26469706673582212206c532c8811df460229227ecc1fa0b61e864505ee396bcfa37093aba0454825ea64736f6c634300081c0033",
  "linkReferences": {},
  "deployedLinkReferences": {}
}