{
  "_format": "hh-sol-artifact-1",
  "contractName": "FeesRecorder",
  "sourceName": "contracts/fees/FeesRecorder.sol",
  "abi": [
    {
      "inputs": [],
      "name": "AccessControlBadConfirmation",
      "type": "error"
    },
    {
      "inputs": [
        {
          "internalType": "address",
          "name": "account",
          "type": "address"
        },
        {
          "internalType": "bytes32",
          "name": "neededRole",
          "type": "bytes32"
        }
      ],
      "name": "AccessControlUnauthorizedAccount",
      "type": "error"
    },
    {
      "inputs": [],
      "name": "AppealRoundAlreadyExists",
      "type": "error"
    },
    {
      "inputs": [],
      "name": "InvalidInitialization",
      "type": "error"
    },
    {
      "inputs": [],
      "name": "NotInitializing",
      "type": "error"
    },
    {
      "inputs": [],
      "name": "OnlyFeeManager",
      "type": "error"
    },
    {
      "inputs": [
        {
          "internalType": "address",
          "name": "owner",
          "type": "address"
        }
      ],
      "name": "OwnableInvalidOwner",
      "type": "error"
    },
    {
      "inputs": [
        {
          "internalType": "address",
          "name": "account",
          "type": "address"
        }
      ],
      "name": "OwnableUnauthorizedAccount",
      "type": "error"
    },
    {
      "inputs": [],
      "name": "ReentrancyGuardReentrantCall",
      "type": "error"
    },
    {
      "anonymous": false,
      "inputs": [
        {
          "indexed": false,
          "internalType": "uint64",
          "name": "version",
          "type": "uint64"
        }
      ],
      "name": "Initialized",
      "type": "event"
    },
    {
      "anonymous": false,
      "inputs": [
        {
          "indexed": true,
          "internalType": "address",
          "name": "previousOwner",
          "type": "address"
        },
        {
          "indexed": true,
          "internalType": "address",
          "name": "newOwner",
          "type": "address"
        }
      ],
      "name": "OwnershipTransferStarted",
      "type": "event"
    },
    {
      "anonymous": false,
      "inputs": [
        {
          "indexed": true,
          "internalType": "address",
          "name": "previousOwner",
          "type": "address"
        },
        {
          "indexed": true,
          "internalType": "address",
          "name": "newOwner",
          "type": "address"
        }
      ],
      "name": "OwnershipTransferred",
      "type": "event"
    },
    {
      "anonymous": false,
      "inputs": [
        {
          "indexed": true,
          "internalType": "bytes32",
          "name": "role",
          "type": "bytes32"
        },
        {
          "indexed": true,
          "internalType": "bytes32",
          "name": "previousAdminRole",
          "type": "bytes32"
        },
        {
          "indexed": true,
          "internalType": "bytes32",
          "name": "newAdminRole",
          "type": "bytes32"
        }
      ],
      "name": "RoleAdminChanged",
      "type": "event"
    },
    {
      "anonymous": false,
      "inputs": [
        {
          "indexed": true,
          "internalType": "bytes32",
          "name": "role",
          "type": "bytes32"
        },
        {
          "indexed": true,
          "internalType": "address",
          "name": "account",
          "type": "address"
        },
        {
          "indexed": true,
          "internalType": "address",
          "name": "sender",
          "type": "address"
        }
      ],
      "name": "RoleGranted",
      "type": "event"
    },
    {
      "anonymous": false,
      "inputs": [
        {
          "indexed": true,
          "internalType": "bytes32",
          "name": "role",
          "type": "bytes32"
        },
        {
          "indexed": true,
          "internalType": "address",
          "name": "account",
          "type": "address"
        },
        {
          "indexed": true,
          "internalType": "address",
          "name": "sender",
          "type": "address"
        }
      ],
      "name": "RoleRevoked",
      "type": "event"
    },
    {
      "anonymous": false,
      "inputs": [
        {
          "indexed": true,
          "internalType": "bytes32",
          "name": "txId",
          "type": "bytes32"
        },
        {
          "indexed": true,
          "internalType": "uint256",
          "name": "round",
          "type": "uint256"
        },
        {
          "indexed": false,
          "internalType": "uint8",
          "name": "roundType",
          "type": "uint8"
        }
      ],
      "name": "RoundTypeAssigned",
      "type": "event"
    },
    {
      "inputs": [],
      "name": "DEFAULT_ADMIN_ROLE",
      "outputs": [
        {
          "internalType": "bytes32",
          "name": "",
          "type": "bytes32"
        }
      ],
      "stateMutability": "view",
      "type": "function"
    },
    {
      "inputs": [],
      "name": "acceptOwnership",
      "outputs": [],
      "stateMutability": "nonpayable",
      "type": "function"
    },
    {
      "inputs": [
        {
          "internalType": "bytes32",
          "name": "_txId",
          "type": "bytes32"
        },
        {
          "internalType": "uint256",
          "name": "_round",
          "type": "uint256"
        },
        {
          "internalType": "uint256",
          "name": "_appealBond",
          "type": "uint256"
        },
        {
          "internalType": "address",
          "name": "_appealer",
          "type": "address"
        }
      ],
      "name": "addAppealRound",
      "outputs": [],
      "stateMutability": "nonpayable",
      "type": "function"
    },
    {
      "inputs": [],
      "name": "addressManager",
      "outputs": [
        {
          "internalType": "contract IAddressManager",
          "name": "",
          "type": "address"
        }
      ],
      "stateMutability": "view",
      "type": "function"
    },
    {
      "inputs": [
        {
          "internalType": "bytes32",
          "name": "txId",
          "type": "bytes32"
        }
      ],
      "name": "currentRoundForTx",
      "outputs": [
        {
          "internalType": "uint256",
          "name": "round",
          "type": "uint256"
        }
      ],
      "stateMutability": "view",
      "type": "function"
    },
    {
      "inputs": [
        {
          "internalType": "bytes32",
          "name": "role",
          "type": "bytes32"
        }
      ],
      "name": "getRoleAdmin",
      "outputs": [
        {
          "internalType": "bytes32",
          "name": "",
          "type": "bytes32"
        }
      ],
      "stateMutability": "view",
      "type": "function"
    },
    {
      "inputs": [
        {
          "internalType": "bytes32",
          "name": "_txId",
          "type": "bytes32"
        },
        {
          "internalType": "uint256",
          "name": "_round",
          "type": "uint256"
        },
        {
          "internalType": "uint256",
          "name": "_rotation",
          "type": "uint256"
        }
      ],
      "name": "getRotationRoundFees",
      "outputs": [
        {
          "components": [
            {
              "internalType": "enum IFeeManager.RoundTypes",
              "name": "roundType",
              "type": "uint8"
            },
            {
              "internalType": "enum ITransactions.ResultType",
              "name": "result",
              "type": "uint8"
            },
            {
              "internalType": "address",
              "name": "leader",
              "type": "address"
            },
            {
              "internalType": "uint256",
              "name": "leaderIndex",
              "type": "uint256"
            },
            {
              "internalType": "uint256",
              "name": "appealBond",
              "type": "uint256"
            },
            {
              "internalType": "address[]",
              "name": "validators",
              "type": "address[]"
            },
            {
              "internalType": "enum ITransactions.VoteType[]",
              "name": "validatorsVotes",
              "type": "uint8[]"
            },
            {
              "internalType": "uint256",
              "name": "receiptFeeConsumed",
              "type": "uint256"
            }
          ],
          "internalType": "struct IFeeManager.RotationRoundFees",
          "name": "",
          "type": "tuple"
        }
      ],
      "stateMutability": "view",
      "type": "function"
    },
    {
      "inputs": [
        {
          "internalType": "bytes32",
          "name": "role",
          "type": "bytes32"
        },
        {
          "internalType": "address",
          "name": "account",
          "type": "address"
        }
      ],
      "name": "grantRole",
      "outputs": [],
      "stateMutability": "nonpayable",
      "type": "function"
    },
    {
      "inputs": [
        {
          "internalType": "bytes32",
          "name": "role",
          "type": "bytes32"
        },
        {
          "internalType": "address",
          "name": "account",
          "type": "address"
        }
      ],
      "name": "hasRole",
      "outputs": [
        {
          "internalType": "bool",
          "name": "",
          "type": "bool"
        }
      ],
      "stateMutability": "view",
      "type": "function"
    },
    {
      "inputs": [
        {
          "internalType": "address",
          "name": "_addressManager",
          "type": "address"
        }
      ],
      "name": "initialize",
      "outputs": [],
      "stateMutability": "nonpayable",
      "type": "function"
    },
    {
      "inputs": [],
      "name": "owner",
      "outputs": [
        {
          "internalType": "address",
          "name": "",
          "type": "address"
        }
      ],
      "stateMutability": "view",
      "type": "function"
    },
    {
      "inputs": [],
      "name": "pendingOwner",
      "outputs": [
        {
          "internalType": "address",
          "name": "",
          "type": "address"
        }
      ],
      "stateMutability": "view",
      "type": "function"
    },
    {
      "inputs": [
        {
          "internalType": "bytes32",
          "name": "_txId",
          "type": "bytes32"
        },
        {
          "internalType": "uint256",
          "name": "_round",
          "type": "uint256"
        },
        {
          "internalType": "address",
          "name": "_leader",
          "type": "address"
        },
        {
          "internalType": "uint256",
          "name": "_leaderIndex",
          "type": "uint256"
        },
        {
          "internalType": "bool",
          "name": "_leaderTimeout",
          "type": "bool"
        },
        {
          "internalType": "uint256",
          "name": "_receiptFeeConsumed",
          "type": "uint256"
        }
      ],
      "name": "recordProposedReceipt",
      "outputs": [],
      "stateMutability": "nonpayable",
      "type": "function"
    },
    {
      "inputs": [
        {
          "internalType": "bytes32",
          "name": "_txId",
          "type": "bytes32"
        },
        {
          "internalType": "uint256",
          "name": "_round",
          "type": "uint256"
        },
        {
          "internalType": "address",
          "name": "_validator",
          "type": "address"
        },
        {
          "internalType": "bool",
          "name": "_isLastVote",
          "type": "bool"
        },
        {
          "internalType": "enum ITransactions.VoteType",
          "name": "_voteType",
          "type": "uint8"
        },
        {
          "internalType": "enum ITransactions.ResultType",
          "name": "_result",
          "type": "uint8"
        }
      ],
      "name": "recordRevealedVote",
      "outputs": [],
      "stateMutability": "nonpayable",
      "type": "function"
    },
    {
      "inputs": [],
      "name": "renounceOwnership",
      "outputs": [],
      "stateMutability": "nonpayable",
      "type": "function"
    },
    {
      "inputs": [
        {
          "internalType": "bytes32",
          "name": "role",
          "type": "bytes32"
        },
        {
          "internalType": "address",
          "name": "callerConfirmation",
          "type": "address"
        }
      ],
      "name": "renounceRole",
      "outputs": [],
      "stateMutability": "nonpayable",
      "type": "function"
    },
    {
      "inputs": [
        {
          "internalType": "bytes32",
          "name": "role",
          "type": "bytes32"
        },
        {
          "internalType": "address",
          "name": "account",
          "type": "address"
        }
      ],
      "name": "revokeRole",
      "outputs": [],
      "stateMutability": "nonpayable",
      "type": "function"
    },
    {
      "inputs": [
        {
          "internalType": "bytes32",
          "name": "txId",
          "type": "bytes32"
        },
        {
          "internalType": "uint256",
          "name": "round",
          "type": "uint256"
        },
        {
          "internalType": "uint256",
          "name": "rotation",
          "type": "uint256"
        }
      ],
      "name": "rotationRoundFees",
      "outputs": [
        {
          "internalType": "enum IFeeManager.RoundTypes",
          "name": "roundType",
          "type": "uint8"
        },
        {
          "internalType": "enum ITransactions.ResultType",
          "name": "result",
          "type": "uint8"
        },
        {
          "internalType": "address",
          "name": "leader",
          "type": "address"
        },
        {
          "internalType": "uint256",
          "name": "leaderIndex",
          "type": "uint256"
        },
        {
          "internalType": "uint256",
          "name": "appealBond",
          "type": "uint256"
        },
        {
          "internalType": "uint256",
          "name": "receiptFeeConsumed",
          "type": "uint256"
        }
      ],
      "stateMutability": "view",
      "type": "function"
    },
    {
      "inputs": [
        {
          "internalType": "bytes32",
          "name": "txId",
          "type": "bytes32"
        },
        {
          "internalType": "uint256",
          "name": "round",
          "type": "uint256"
        }
      ],
      "name": "rotationsUsedForTxRound",
      "outputs": [
        {
          "internalType": "uint256",
          "name": "",
          "type": "uint256"
        }
      ],
      "stateMutability": "view",
      "type": "function"
    },
    {
      "inputs": [
        {
          "internalType": "address",
          "name": "_addressManager",
          "type": "address"
        }
      ],
      "name": "setAddressManager",
      "outputs": [],
      "stateMutability": "nonpayable",
      "type": "function"
    },
    {
      "inputs": [
        {
          "internalType": "bytes4",
          "name": "interfaceId",
          "type": "bytes4"
        }
      ],
      "name": "supportsInterface",
      "outputs": [
        {
          "internalType": "bool",
          "name": "",
          "type": "bool"
        }
      ],
      "stateMutability": "view",
      "type": "function"
    },
    {
      "inputs": [
        {
          "internalType": "address",
          "name": "newOwner",
          "type": "address"
        }
      ],
      "name": "transferOwnership",
      "outputs": [],
      "stateMutability": "nonpayable",
      "type": "function"
    }
  ],
  "bytecode": "0x60808060405234601557614320908161001b8239f35b600080fdfe608080604052600436101561001357600080fd5b60003560e01c90816301ffc9a714612383575080630652b57a14612340578063092d751314611c04578063248a9ca314611bde5780632f2ff15d14611bad57806336568abe14611b675780633ab76e9f14611b3e578063470f9b4814611aae57806357a0bfc014611847578063662ded701461180d578063715018a61461178c57806373cc6afb1461176057806379ba5097146116af5780638da5cb5b1461167957806391d148541461161f578063a217fddf14611603578063b5b00f6b146111ca578063c4d66de814611074578063d38f5c351461020b578063d547741f146101d3578063e30c39781461019d5763f2fde38b1461011157600080fd5b346101985760203660031901126101985761012a6123d6565b610132612561565b6000805160206142cb83398151915280546001600160a01b0319166001600160a01b0392831690811790915560008051602061424b833981519152549091167f38d16b8cac22d99fc7c124b9cd0de2d3fa1faef420bfe791d8c362d765e22700600080a3005b600080fd5b34610198576000366003190112610198576000805160206142cb833981519152546040516001600160a01b039091168152602090f35b34610198576040366003190112610198576102096004356101f26123ec565b906102046101ff826124ae565b612582565b612675565b005b34610198576080366003190112610198576064356001600160a01b03811690602435906004359083900361019857600054604051631bae711d60e21b81529060209082906001600160a01b03168180610266600482016124ee565b03915afa90811561106857600091611039575b506001600160a01b03163303611028578060005260336020526040600020549182811115611017576001830192838111610fc85783821193841561100f57935b60009015610fe65750905b600083815260336020908152604080832093909355603281528282208483529052205415610fde578160005260326020526040600020816000526020526040600020546000198101908111610fc857905b82600052603160205260406000209060005260205260406000209060005260205260406000209260405161034881612459565b84549461035860ff871683612496565b602082019561036d60ff8260081c16886124a2565b60018060a01b039060101c1660408301526001810154606083015260028101546080830152600381016040518082602082945493848152019060005260206000209260005b818110610fa65750506103c792500382612475565b60a0830152600481019060405180602084549182815201936000526020600020906000915b81601f840110610d1d57946105089284926005975491818110610d02575b818110610ce4575b818110610cc6575b818110610ca8575b818110610c8b575b818110610c6d575b818110610c4f575b818110610c31575b818110610c13575b818110610bf5575b818110610bd7575b818110610bb9575b818110610b9b575b818110610b7d575b818110610b5f575b818110610b41575b818110610b23575b818110610b05575b818110610ae7575b818110610ac9575b818110610aab575b818110610a8d575b818110610a6f575b818110610a51575b818110610a33575b818110610a15575b8181106109f7575b8181106109d9575b8181106109bb575b81811061099d575b81811061097f575b10610968575b500382612475565b60c0840152015460e0820152805194600e8610156109525760016000961480610911575b1561088c575050600b5b6040516020926105468483612475565b8682528636813760405161055a8582612475565b878152873681376040519261056e84612459565b6105788585612496565b8584019289845260408501908152606085018a81526080860191604435835260a0870193845260c0870194855260e08701958c87528a8d5260318a528c8c6040822091528a5260408d208d80528a5260408d209751600e81101561075b576105e09089612532565b516006811015610878576105f49088612513565b51865462010000600160b01b03191660109190911b62010000600160b01b03161786555160018601555160028501555180519060038501906001600160401b03831161086457600160401b83116108645787908b83548585558584828210610849575b5050505001908a52868a208a5b83811061082e57505050506004830190518051906001600160401b03821161081a57600160401b821161081a57869083548385558084106107ce575b50019189528589208160051c918a5b83811061076f5750601f19811690038061070a575b5050505060059051910155600e8110156106f6579060008051602061426b8339815191529160ff60405191168152a380f35b634e487b7160e01b85526021600452602485fd5b928a938b5b81811061072557505050015560058880806106c4565b909194855190600582101561075b57610751600192848d939060ff809160031b9316831b921b19161790565b960192910161070f565b634e487b7160e01b8e52602160045260248efd5b8b8c5b8a81106107865750838201556001016106af565b959081519060058210156107ba576107b1600192898e939060ff809160031b9316831b921b19161790565b92019601610772565b634e487b7160e01b8f52602160045260248ffd5b6107f890858d52838d20601f80870160051c820192818816806107fe575b500160051c019061254a565b8b6106a0565b600019850190815490600019908a0360031b1c169055386107ec565b634e487b7160e01b8a52604160045260248afd5b82516001600160a01b03168282015591880191600101610664565b838761085b955220918201910161254a565b8b8d8584610657565b634e487b7160e01b8b52604160045260248bfd5b634e487b7160e01b8d52602160045260248dfd5b8151600e8110156108fd576005149182156108d2575b50816108bd575b50156108b657600d610536565b6009610536565b90505160068110156106f657600314856108a9565b90915051600e8110156108e95760061490866108a2565b634e487b7160e01b86526021600452602486fd5b634e487b7160e01b87526021600452602487fd5b50805160068110156108fd57600214801561093e575b8061052c5750805160068110156108fd571561052c565b50805160068110156108fd57600514610927565b634e487b7160e01b600052602160045260246000fd5b906109788160209360f81c61244c565b018b610500565b9260208161099560019360ff8760f01c1661244c565b0193016104fa565b926020816109b360019360ff8760e81c1661244c565b0193016104f2565b926020816109d160019360ff8760e01c1661244c565b0193016104ea565b926020816109ef60019360ff8760d81c1661244c565b0193016104e2565b92602081610a0d60019360ff8760d01c1661244c565b0193016104da565b92602081610a2b60019360ff8760c81c1661244c565b0193016104d2565b92602081610a4960019360ff8760c01c1661244c565b0193016104ca565b92602081610a6760019360ff8760b81c1661244c565b0193016104c2565b92602081610a8560019360ff8760b01c1661244c565b0193016104ba565b92602081610aa360019360ff8760a81c1661244c565b0193016104b2565b92602081610ac160019360ff8760a01c1661244c565b0193016104aa565b92602081610adf60019360ff8760981c1661244c565b0193016104a2565b92602081610afd60019360ff8760901c1661244c565b01930161049a565b92602081610b1b60019360ff8760881c1661244c565b019301610492565b92602081610b3960019360ff8760801c1661244c565b01930161048a565b92602081610b5760019360ff8760781c1661244c565b019301610482565b92602081610b7560019360ff8760701c1661244c565b01930161047a565b92602081610b9360019360ff8760681c1661244c565b019301610472565b92602081610bb160019360ff8760601c1661244c565b01930161046a565b92602081610bcf60019360ff8760581c1661244c565b019301610462565b92602081610bed60019360ff8760501c1661244c565b01930161045a565b92602081610c0b60019360ff8760481c1661244c565b019301610452565b92602081610c2960019360ff8760401c1661244c565b01930161044a565b92602081610c4760019360ff8760381c1661244c565b019301610442565b92602081610c6560019360ff8760301c1661244c565b01930161043a565b92602081610c8360019360ff8760281c1661244c565b019301610432565b92602081610ca060019360ff87851c1661244c565b01930161042a565b92602081610cbe60019360ff8760181c1661244c565b019301610422565b92602081610cdc60019360ff8760101c1661244c565b01930161041a565b92602081610cfa60019360ff8760081c1661244c565b019301610412565b92602081610d1560019360ff871661244c565b01930161040a565b9293946001610400602092610f978754610d3a8360ff831661244c565b610d4c86840160ff8360081c1661244c565b610d5f6040840160ff8360101c1661244c565b610d726060840160ff8360181c1661244c565b610d846080840160ff83891c1661244c565b610d9760a0840160ff8360281c1661244c565b610daa60c0840160ff8360301c1661244c565b610dbd60e0840160ff8360381c1661244c565b610dd1610100840160ff8360401c1661244c565b610de5610120840160ff8360481c1661244c565b610df9610140840160ff8360501c1661244c565b610e0d610160840160ff8360581c1661244c565b610e21610180840160ff8360601c1661244c565b610e356101a0840160ff8360681c1661244c565b610e496101c0840160ff8360701c1661244c565b610e5d6101e0840160ff8360781c1661244c565b610e71610200840160ff8360801c1661244c565b610e85610220840160ff8360881c1661244c565b610e99610240840160ff8360901c1661244c565b610ead610260840160ff8360981c1661244c565b610ec1610280840160ff8360a01c1661244c565b610ed56102a0840160ff8360a81c1661244c565b610ee96102c0840160ff8360b01c1661244c565b610efd6102e0840160ff8360b81c1661244c565b610f11610300840160ff8360c01c1661244c565b610f25610320840160ff8360c81c1661244c565b610f39610340840160ff8360d01c1661244c565b610f4d610360840160ff8360d81c1661244c565b610f61610380840160ff8360e01c1661244c565b610f756103a0840160ff8360e81c1661244c565b610f896103c0840160ff8360f01c1661244c565b6103e083019060f81c61244c565b019401920191949392946103ec565b84546001600160a01b03168352600194850194869450602090930192016103b2565b634e487b7160e01b600052601160045260246000fd5b600090610315565b60001983019150828211610ffb5750906102c4565b634e487b7160e01b81526011600452602490fd5b5081936102b9565b6393a19b2760e01b60005260046000fd5b6323c76f5b60e21b60005260046000fd5b61105b915060203d602011611061575b6110538183612475565b8101906124cf565b84610279565b503d611049565b6040513d6000823e3d90fd5b346101985760203660031901126101985761108d6123d6565b6000805160206142ab833981519152549060ff8260401c1615916001600160401b038116801590816111c2575b60011490816111b8575b1590816111af575b5061119e5767ffffffffffffffff1981166001176000805160206142ab8339815191525582611171575b50600080546001600160a01b0319166001600160a01b039290921691909117905561111d57005b60ff60401b196000805160206142ab83398151915254166000805160206142ab833981519152557fc7f505b2f371ae2175ee4913f4499e1f2633a7b5936321eed1cdaeb6115181d2602060405160018152a1005b68ffffffffffffffffff191668010000000000000001176000805160206142ab83398151915255826110f6565b63f92ee8a960e01b60005260046000fd5b905015846110cc565b303b1591506110c4565b8491506110ba565b346101985760c0366003190112610198576024356004356111e9612402565b90608435801515810361019857600054604051631bae711d60e21b81529060209082906001600160a01b03168180611223600482016124ee565b03915afa908115611068576000916115e4575b506001600160a01b031633036110285781600052603360205283604060002055806000146115dc576005905b156115d4576003905b60405160209461127b8683612475565b6000825260003681376040516112918782612475565b600081526000368137604051926112a784612459565b6112b18585612496565b878401926112bf87856124a2565b604085019060018060a01b0316815260608501606435815260808601916000835260a0870193845260c0870194855260e087019560a43587528a60005260318c5260406000208d6000528c5260406000208b60005260328d528d6040600020906000528d526040600020546000528c5260406000209751600e811015610952576113499089612532565b5160068110156109525761135d9088612513565b51865462010000600160b01b03191660109190911b62010000600160b01b03161786555160018601555160028501555180519060038501906001600160401b03831161158657600160401b831161158657899082548484558085106115b7575b5001906000528860002060005b83811061159c57505050506004830190518051906001600160401b03821161158657600160401b82116115865788908354838555808410611555575b500191600052876000208160051c9160005b83811061150a5750601f1981169003806114b8575b5050505060059051910155600e81101561095257848360008051602061426b8339815191528660405160ff86168152a38461148d575b50506000526032815260406000209160005252604060002080546000198114610fc8576001019055005b6114b191836000526032855260406000208660005285526040600020548685613466565b8380611463565b9260009360005b8181106114d5575050500155600588808061142d565b90919485516005811015610952576115008d91846001949060ff809160031b9316831b921b19161790565b96019291016114bf565b6000805b8c8110611522575083820155600101611418565b9590815160058110156109525761154c8e91896001949060ff809160031b9316831b921b19161790565b9201960161150e565b611580908560005283600020601f80870160051c820192818816806107fe57500160051c019061254a565b8b611406565b634e487b7160e01b600052604160045260246000fd5b82516001600160a01b031682820155918a01916001016113ca565b6115ce90846000528584600020918201910161254a565b8c6113bd565b60009061126b565b600190611262565b6115fd915060203d602011611061576110538183612475565b85611236565b3461019857600036600319011261019857602060405160008152f35b34610198576040366003190112610198576116386123ec565b60043560005260008051602061428b83398151915260205260406000209060018060a01b0316600052602052602060ff604060002054166040519015158152f35b346101985760003660031901126101985760008051602061424b833981519152546040516001600160a01b039091168152602090f35b34610198576000366003190112610198576000805160206142cb83398151915254336001600160a01b039091160361174b576000805160206142cb83398151915280546001600160a01b031990811690915560008051602061424b83398151915280543392811683179091556001600160a01b03167f8be0079c531659141344cd1fd0a4f28419497f9722a3daafe3b4186f6b6457e0600080a3005b63118cdaa760e01b6000523360045260246000fd5b346101985760203660031901126101985760043560005260336020526020604060002054604051908152f35b34610198576000366003190112610198576117a5612561565b6000805160206142cb83398151915280546001600160a01b031990811690915560008051602061424b833981519152805491821690556000906001600160a01b03167f8be0079c531659141344cd1fd0a4f28419497f9722a3daafe3b4186f6b6457e08280a3005b3461019857604036600319011261019857600435600052603260205260406000206024356000526020526020604060002054604051908152f35b346101985760c036600319011261019857602435600435611866612402565b606435908115158203610198576084359360058510156101985760a43592600684101561019857600054604051631bae711d60e21b81529060209082906001600160a01b031681806118ba600482016124ee565b03915afa90811561106857600091611a8f575b506001600160a01b0316330361102857846000526032602052604060002082600052602052600160406000205411600090600014611a8957508460005260326020526040600020826000526020526040600020546000198101908111610fc857925b856000526031602052604060002083600052602052604060002084600052602052600460406000200196875497600160401b8910156115865760018901808255891015611a73576000526119a360206000208960051c0191601f60009a1683549060ff809160031b9316831b921b19161790565b90558587526031602052604087208388526020526040872084885260205260036040882001805490600160401b821015611a5f5760018201808255821015611a4b578852602088200180546001600160a01b0319166001600160a01b03909216919091179055611a11578480f35b83611a4394865260316020526040862082875260205260408620838752602052611a3e8460408820612513565b612715565b818080808480f35b634e487b7160e01b89526032600452602489fd5b634e487b7160e01b89526041600452602489fd5b634e487b7160e01b600052603260045260246000fd5b9261192f565b611aa8915060203d602011611061576110538183612475565b876118cd565b3461019857611abc36612418565b91600052603160205260406000209060005260205260406000209060005260205260c06040600020805490600181015490600560028201549101549160405193611b098560ff8316612432565b611b1c6020860160ff8360081c1661243f565b60101c6001600160a01b031660408501526060840152608083015260a0820152f35b34610198576000366003190112610198576000546040516001600160a01b039091168152602090f35b3461019857604036600319011261019857611b806123ec565b336001600160a01b03821603611b9c5761020990600435612675565b63334bd91960e11b60005260046000fd5b3461019857604036600319011261019857610209600435611bcc6123ec565b90611bd96101ff826124ae565b6125cc565b34610198576020366003190112610198576020611bfc6004356124ae565b604051908152f35b3461019857611c1236612418565b91600060e0604051611c2381612459565b828152826020820152826040820152826060820152826080820152606060a0820152606060c082015201526000526031602052604060002090600052602052604060002090600052602052604060002060405190611c8082612459565b8054611c8f60ff821684612496565b6020830191611ca460ff8360081c16846124a2565b604084019160018060a01b039060101c16825260018101546060850190815260028201546080860190815260038301916040518084602082965493848152019060005260206000209260005b81811061231e575050611d0592500384612475565b60a08701928352600484019360405180958691602082549182815201916000526020600020906000915b81601f8401106122f25791611e4c9391600596959354918181106122d7575b8181106122b9575b81811061229b575b81811061227d575b818110612260575b818110612242575b818110612224575b818110612206575b8181106121e8575b8181106121ca575b8181106121ac575b81811061218e575b818110612170575b818110612152575b818110612134575b818110612116575b8181106120f8575b8181106120da575b8181106120bc575b81811061209e575b818110612080575b818110612062575b818110612044575b818110612026575b818110612008575b818110611fea575b818110611fcc575b818110611fae575b818110611f90575b818110611f72575b818110611f54575b10611f3d575b500387612475565b60c0890195865201549460e08801958652611e876040519760208952611e7c6101208a019a60208b019051612432565b51604089019061243f565b516001600160a01b031660608701525160808601525160a08501525161010060c085015280519485905261014084019460209091019060005b818110611f1e575050505190601f198385030160e08401526020808351958681520192016000945b808610611eff575050829350516101008301520390f35b909260208082611f12600194885161244c565b01940195019490611ee8565b82516001600160a01b0316875260209687019690920191600101611ec0565b90611f4d8160209360f81c61244c565b018c611e44565b92602081611f6a60019360ff8760f01c1661244c565b019301611e3e565b92602081611f8860019360ff8760e81c1661244c565b019301611e36565b92602081611fa660019360ff8760e01c1661244c565b019301611e2e565b92602081611fc460019360ff8760d81c1661244c565b019301611e26565b92602081611fe260019360ff8760d01c1661244c565b019301611e1e565b9260208161200060019360ff8760c81c1661244c565b019301611e16565b9260208161201e60019360ff8760c01c1661244c565b019301611e0e565b9260208161203c60019360ff8760b81c1661244c565b019301611e06565b9260208161205a60019360ff8760b01c1661244c565b019301611dfe565b9260208161207860019360ff8760a81c1661244c565b019301611df6565b9260208161209660019360ff8760a01c1661244c565b019301611dee565b926020816120b460019360ff8760981c1661244c565b019301611de6565b926020816120d260019360ff8760901c1661244c565b019301611dde565b926020816120f060019360ff8760881c1661244c565b019301611dd6565b9260208161210e60019360ff8760801c1661244c565b019301611dce565b9260208161212c60019360ff8760781c1661244c565b019301611dc6565b9260208161214a60019360ff8760701c1661244c565b019301611dbe565b9260208161216860019360ff8760681c1661244c565b019301611db6565b9260208161218660019360ff8760601c1661244c565b019301611dae565b926020816121a460019360ff8760581c1661244c565b019301611da6565b926020816121c260019360ff8760501c1661244c565b019301611d9e565b926020816121e060019360ff8760481c1661244c565b019301611d96565b926020816121fe60019360ff8760401c1661244c565b019301611d8e565b9260208161221c60019360ff8760381c1661244c565b019301611d86565b9260208161223a60019360ff8760301c1661244c565b019301611d7e565b9260208161225860019360ff8760281c1661244c565b019301611d76565b9260208161227560019360ff87851c1661244c565b019301611d6e565b9260208161229360019360ff8760181c1661244c565b019301611d66565b926020816122b160019360ff8760101c1661244c565b019301611d5e565b926020816122cf60019360ff8760081c1661244c565b019301611d56565b926020816122ea60019360ff871661244c565b019301611d4e565b9350909160016104006020926123108754610d3a8360ff831661244c565b019401920190889392611d2f565b84546001600160a01b0316835260019485019488945060209093019201611cf0565b34610198576020366003190112610198576123596123d6565b612361612561565b600080546001600160a01b0319166001600160a01b0392909216919091179055005b34610198576020366003190112610198576004359063ffffffff60e01b821680920361019857602091637965db0b60e01b81149081156123c5575b5015158152f35b6301ffc9a760e01b149050836123be565b600435906001600160a01b038216820361019857565b602435906001600160a01b038216820361019857565b604435906001600160a01b038216820361019857565b606090600319011261019857600435906024359060443590565b90600e8210156109525752565b9060068210156109525752565b9060058210156109525752565b61010081019081106001600160401b0382111761158657604052565b90601f801991011681019081106001600160401b0382111761158657604052565b600e8210156109525752565b60068210156109525752565b60005260008051602061428b83398151915260205260016040600020015490565b9081602091031261019857516001600160a01b03811681036101985790565b60609060208152600a6020820152692332b2a6b0b730b3b2b960b11b60408201520190565b9060068110156109525761ff0082549160081b169061ff001916179055565b90600e8110156109525760ff80198354169116179055565b818110612555575050565b6000815560010161254a565b60008051602061424b833981519152546001600160a01b0316330361174b57565b600081815260008051602061428b8339815191526020908152604080832033845290915290205460ff16156125b45750565b63e2517d3f60e01b6000523360045260245260446000fd5b600081815260008051602061428b833981519152602090815260408083206001600160a01b038616845290915290205460ff1661266e57600081815260008051602061428b833981519152602090815260408083206001600160a01b0395909516808452949091528120805460ff19166001179055339291907f2f8788117e7eff1d82e926ec794901d17c78024a50270940304540a733656f0d9080a4600190565b5050600090565b600081815260008051602061428b833981519152602090815260408083206001600160a01b038616845290915290205460ff161561266e57600081815260008051602061428b833981519152602090815260408083206001600160a01b0395909516808452949091528120805460ff19169055339291907ff6391f5c32d9c69d2a47ea670b442974b53935d1edc7fd64eb21e047a839171b9080a4600190565b91929092600090841561341d5760001985018581116134095784835260326020526040832081845260205260016040842054116000146134035784835260326020526040832081845260205260408320546000198101908111612f3c575b8584526031602052604084208285526020526040842081855260205260ff6040852054168685526031602052604085208386526020526040852082865260205260ff604086205460081c16831515806133f8575b156131de576001198901908982116131ca57819289885260326020526040882083895260205260016040892054116000146131c357898852603260205260408820838952602052604088205460001981019081116131af57925b8a8952603160205260408920818a5260205260408920848a5260205260ff60408a205460081c16918b8a52603160205260408a20828b5260205260408a20858b5260205260ff60408b20541690600e82101561310f57600182148080613158575b15612b7257505050505060068110159081612b5e5760048114918215612b50575b8215612b3f575b50501561297857604096508786526031602052868620828752602052868620908652602052858520600160ff198254161790558660008051602061426b8339815191526020885160018152a38584526031602052848420828552602052848420908452602052838320600b60ff198254161790558460008051602061426b83398151915260208651600b8152a3838252603160205282822085835260205282822090825260205220600360ff1982541617905560008051602061426b833981519152602060405160038152a3565b60068710156108e95760018703612a5057604096508786526031602052868620828752602052868620908652602052858520600260ff198254161790558660008051602061426b8339815191526020885160028152a38584526031602052848420828552602052848420908452602052838320600a60ff198254161790558460008051602061426b83398151915260208651600a8152a3838252603160205282822085835260205282822090825260205220600160ff1982541617905560008051602061426b833981519152602060405160018152a3565b9493929190600360009714612a6b575b505050505050505050565b6040958886526031602052868620828752602052868620908652602052858520600260ff198254161790558760008051602061426b8339815191526020885160028152a38684526031602052848420828552602052848420908452602052838320600c60ff198254161790558560008051602061426b83398151915260208651600c8152a38482526031602052828220868352602052828220908252602052209050600560ff1982541617905560008051602061426b833981519152602060405160058152a3388080808080808080612a60565b9091506108fd5760051438806128aa565b5060028114915060006128a3565b634e487b7160e01b88526021600452602488fd5b949e9d9c9b92939460009181613130575b5015612c7b575050505060068110156108fd5760068b10156108fd5760409798999a03612bf0575b50505050838252603160205282822085835260205282822090825260205220600160ff1982541617905560008051602061426b833981519152602060405160018152a3565b8786526031602052868620828752602052868620908652602052858520600260ff198254161790558660008051602061426b8339815191526020885160028152a38584526031602052848420828552602052848420908452602052838320600860ff198254161790558460008051602061426b8339815191526020865160088152a338808080612bab565b91935091939597999a9b9c5097939597600582148015613123575b15612d9b575050505080612d8757508560005260316020526040600020826000526020526040600020906000526020526040600020600260ff198254161790558460008051602061426b833981519152602060405160028152a38360005260316020526040600020826000526020526040600020906000526020526040600020600c60ff198254161790558260008051602061426b8339815191526020604051600c8152a38160005260316020526040600020836000526020526040600020906000526020526040600020600760ff1982541617905560008051602061426b833981519152602060405160078152a3565b634e487b7160e01b81526021600452602490fd5b9a979598969492939a61310f571590816130d2575b5089816130b0575b50612dc857505050505050505050565b878952603160205260408920828a52602052604089209089526020526040882060ff1981541690558660008051602061426b83398151915260206040518b8152a38587526031602052604087208288526020526040872090875260205260408620600960ff198254161790558460008051602061426b833981519152602060405160098152a38385526031602052604085208286526020526040852090855260205260408420600160ff198254161790558260008051602061426b833981519152602060405160018152a3825b6002821180612fc9575b15612fc0576001198201918211612f3c57818385526032602052604085208186526020526001604086205411600014612fba5783855260326020526040852081865260205260408520546000198101908111612fa6575b8486526031602052604086208287526020526040862081875260205260ff604087205416600e8110156108fd57612f5057505060ff1660ff8114612f3c57600101612e95565b634e487b7160e01b84526011600452602484fd5b9094915060409250838252603160205282822085835260205282822090825260205220600260ff1982541617905560008051602061426b833981519152602060405160028152a35b388080808080808080612a60565b634e487b7160e01b86526011600452602486fd5b84612ef6565b50505050612f98565b508354604051631bae711d60e21b81529060209082906001600160a01b03168180612ff6600482016124ee565b03915afa908115613088576004916020918791613093575b506040516320e9aac160e11b815292839182906001600160a01b03165afa8015613088578590613048575b60ff91501660ff821610612e9f565b506020813d8211613080575b8161306160209383612475565b8101031261307c575160ff8116810361307c5760ff90613039565b8480fd5b3d9150613054565b6040513d87823e3d90fd5b6130aa9150823d8111611061576110538183612475565b3861300e565b90506130be57600189612db8565b634e487b7160e01b89526021600452602489fd5b905060068110156130fb5760038114908115916130f1575b5038612db0565b90501515386130ea565b634e487b7160e01b8a52602160045260248afd5b634e487b7160e01b8b52602160045260248bfd5b5050600060068214612c96565b9050600e8110156131445760091438612b83565b634e487b7160e01b8c52602160045260248cfd5b5060068510158061087857600486149081156131a2575b8115613191575b8115613183575b50612882565b90506131445784153861317d565b809150610878576005861490613176565b505060028514600061316f565b634e487b7160e01b89526011600452602489fd5b8792612821565b634e487b7160e01b87526011600452602487fd5b95600e8210156108e9576001821480806133dc575b1561328157505050604094508584526031602052848420828552602052848420908452602052838320600260ff198254161790558460008051602061426b8339815191526020865160028152a3838252603160205282822085835260205282822090825260205220600860ff1982541617905560008051602061426b833981519152602060405160088152a3565b925092509294600092826133bf575b5050156132dd575050604091838252603160205282822085835260205282822090825260205220600960ff1982541617905560008051602061426b833981519152602060405160098152a3565b6005821480156133b2575b15613333575050604091838252603160205282822085835260205282822090825260205220600d60ff1982541617905560008051602061426b8339815191526020604051600d8152a3565b61339e571580613394575b613349575b50505050565b604091838252603160205282822085835260205282822090825260205220600960ff1982541617905560008051602061426b833981519152602060405160098152a338808080613343565b506001841161333e565b634e487b7160e01b82526021600452602482fd5b50506000600682146132e8565b90915060068210156106f65760068110156106f657143880613290565b5060068810156108fd5760068210156108fd57878214156131f3565b5060018916156127c7565b82612773565b634e487b7160e01b83526011600452602483fd5b9091508282526031602052604082208483526020526040822090825260205261344a600160408320612532565b5060008051602061426b833981519152602060405160018152a3565b9293909384156141f257600019850191858311610fc8578460005260326020526040600020836000526020526001604060002054116000906000146141ec57508460005260326020526040600020836000526020526040600020546000198101908111610fc857915b6000868152603160209081526040808320878452825280832086845290915290205460ff808216929160081c16851515806141e1575b15613fa257600119890192898411610fc8578394896000526032602052604060002085600052602052600160406000205411600090600014613f9c57508960005260326020526040600020856000526020526040600020546000198101908111610fc857945b60008b8152603160209081526040808320848452825280832089845290915290205460ff600882901c811694911690600e82101561095257600182148080613f45575b156138cb575050505050506006811015908161095257600481149182156138bd575b82156138ac575b5050156136c157508560005260316020526040600020826000526020526040600020906000526020526040600020600160ff198254161790558460008051602061426b833981519152602060405160018152a38360005260316020526040600020826000526020526040600020906000526020526040600020600b60ff198254161790558260008051602061426b8339815191526020604051600b8152a38160005260316020526040600020836000526020526040600020906000526020526040600020600360ff1982541617905560008051602061426b833981519152602060405160038152a3565b600681101561095257600181036137b557508560005260316020526040600020826000526020526040600020906000526020526040600020600260ff198254161790558460008051602061426b833981519152602060405160028152a38360005260316020526040600020826000526020526040600020906000526020526040600020600a60ff198254161790558260008051602061426b8339815191526020604051600a8152a38160005260316020526040600020836000526020526040600020906000526020526040600020600160ff1982541617905560008051602061426b833981519152602060405160018152a3565b94939291906003600096146137cf575b5050505050505050565b8686526031602052604086208287526020526040862090865260205260408520600260ff198254161790558560008051602061426b833981519152602060405160028152a38484526031602052604084208285526020526040842090845260205260408320600c60ff198254161790558360008051602061426b8339815191526020604051600c8152a382825260316020526040822084835260205260408220908252602052604081209050600560ff1982541617905560008051602061426b833981519152602060405160058152a338808080808080806137c5565b9091506109525760051438806135d7565b5060028114915060006135d0565b600097939495979181613f31575b50156139eb5750505050506006821015610952576006811015610952570361394c575b505050508160005260316020526040600020836000526020526040600020906000526020526040600020600160ff1982541617905560008051602061426b833981519152602060405160018152a3565b8560005260316020526040600020826000526020526040600020906000526020526040600020600260ff198254161790558460008051602061426b833981519152602060405160028152a38360005260316020526040600020826000526020526040600020906000526020526040600020600860ff198254161790558260008051602061426b833981519152602060405160088152a3388080806138fc565b91939550919350600582148015613f24575b15613bd15750505050600e81101561095257600503613af8578560005260316020526040600020826000526020526040600020906000526020526040600020600560ff198254161790558460008051602061426b833981519152602060405160058152a38360005260316020526040600020826000526020526040600020906000526020526040600020600d60ff198254161790558260008051602061426b8339815191526020604051600d8152a38160005260316020526040600020836000526020526040600020906000526020526040600020600660ff1982541617905560008051602061426b833981519152602060405160068152a3565b939291906000948686526031602052604086208287526020526040862090865260205260408520600260ff198254161790558560008051602061426b833981519152602060405160028152a38484526031602052604084208285526020526040842090845260205260408320600c60ff198254161790558360008051602061426b8339815191526020604051600c8152a382825260316020526040822084835260205260408220908252602052604081209050600760ff1982541617905560008051602061426b833981519152602060405160078152a3565b9a98979695999a949391929461095257159182613ef9575b5081613ee5575b50613bff575050505050505050565b876000526031602052604060002082600052602052604060002090600052602052604060002060ff1981541690558660008051602061426b833981519152602060405160008152a38560005260316020526040600020826000526020526040600020906000526020526040600020600960ff198254161790558460008051602061426b833981519152602060405160098152a38360005260316020526040600020826000526020526040600020906000526020526040600020600160ff198254161790558260008051602061426b833981519152602060405160018152a360005b6002821180613e03575b15613dfb576001198201918211610fc85781836000526032602052604060002081600052602052600160406000205411600090600014613df657508360005260326020526040600020816000526020526040600020546000198101908111610fc8575b84600052603160205260406000208260005260205260406000208160005260205260ff60406000205416600e81101561095257613d9957505060ff1660ff8114610fc857600101613ce0565b91509280925060005260316020526040600020836000526020526040600020906000526020526040600020600260ff1982541617905560008051602061426b833981519152602060405160028152a35b38808080808080806137c5565b613d4d565b505050613de9565b50600054604051631bae711d60e21b81529060209082906001600160a01b03168180613e31600482016124ee565b03915afa90811561106857600491602091600091613ec8575b506040516320e9aac160e11b815292839182906001600160a01b03165afa90811561106857600091613e85575b5060ff1660ff821610613cea565b6020813d8211613ec0575b81613e9d60209383612475565b81010312613ebc57519060ff82168203613eb9575060ff613e77565b80fd5b5080fd5b3d9150613e90565b613edf9150823d8111611061576110538183612475565b38613e4a565b9050600e8110156109525760011438613bf0565b9091506006811015610952576003811490811591613f1a575b509038613be9565b9050151538613f12565b50506000600682146139fd565b9050600e81101561339e57600914386138d9565b506006861015806109525760048714908115613f8f575b8115613f7e575b8115613f70575b506135ae565b905061095257851538613f6a565b809150610952576005871490613f63565b5050600286146000613f5c565b9461356b565b90919250600e83101561095257600183149081806141c5575b1561405b57505050508360005260316020526040600020826000526020526040600020906000526020526040600020600260ff198254161790558260008051602061426b833981519152602060405160028152a38160005260316020526040600020836000526020526040600020906000526020526040600020600860ff1982541617905560008051602061426b833981519152602060405160088152a3565b91935091935060009282614194575b5050156140bf5750508160005260316020526040600020836000526020526040600020906000526020526040600020600960ff1982541617905560008051602061426b833981519152602060405160098152a3565b600582148015614187575b1561411d5750508160005260316020526040600020836000526020526040600020906000526020526040600020600d60ff1982541617905560008051602061426b8339815191526020604051600d8152a3565b61095257158061417d575b61413157505050565b8160005260316020526040600020836000526020526040600020906000526020526040600020600960ff1982541617905560008051602061426b833981519152602060405160098152a3565b5060018311614128565b50506000600682146140ca565b90915060068210156141b15760068110156141b15714388061406a565b634e487b7160e01b83526021600452602483fd5b5060068110156109525760068310156109525780831415613fbb565b506001891615613505565b916134cf565b5090826000526031602052604060002084600052602052604060002090600052602052614223816040600020612532565b600e81101561095257602060008051602061426b8339815191529160ff60405191168152a356fe9016d09d72d40fdae2fd8ceac6b6234c7706214fd39c1cd1e609a0528c19930008525e12d31529b8ef48f97ea9c32b9b6b9b9ee0efc43fe556f6b2b010ca097402dd7bc7dec4dceedda775e58dd541e08a116c6c53815c0bd028192f7b626800f0c57e16840df040f15088dc2f81fe391c3923bec73e23a9662efc9c229c6a00237e158222e3e6968b72b9db0d8043aacf074ad9f650f0d1606b4d82ee432c00a2646970667358221220566006171b4007e25c2bb9a6f651e560b06b7dedb85e3cc0de3c6a13474ff33164736f6c634300081c0033",
  "linkReferences": {},
  "deployedLinkReferences": {}
}