{
  "_format": "hh-sol-artifact-1",
  "contractName": "MockCreationPhase",
  "sourceName": "contracts/mocks/MockCreationPhase.sol",
  "abi": [
    {
      "anonymous": false,
      "inputs": [
        {
          "indexed": true,
          "internalType": "address",
          "name": "caller",
          "type": "address"
        },
        {
          "indexed": false,
          "internalType": "bool",
          "name": "authorized",
          "type": "bool"
        }
      ],
      "name": "AuthorizedCallerUpdated",
      "type": "event"
    },
    {
      "anonymous": false,
      "inputs": [
        {
          "indexed": true,
          "internalType": "bytes32",
          "name": "txId",
          "type": "bytes32"
        },
        {
          "indexed": false,
          "internalType": "uint256",
          "name": "txSlot",
          "type": "uint256"
        }
      ],
      "name": "CreatedTransaction",
      "type": "event"
    },
    {
      "anonymous": false,
      "inputs": [
        {
          "indexed": true,
          "internalType": "address",
          "name": "ghost",
          "type": "address"
        }
      ],
      "name": "GhostContractRegistered",
      "type": "event"
    },
    {
      "anonymous": false,
      "inputs": [
        {
          "indexed": true,
          "internalType": "bytes32",
          "name": "newSeed",
          "type": "bytes32"
        }
      ],
      "name": "GlobalRandomSeedUpdated",
      "type": "event"
    },
    {
      "anonymous": false,
      "inputs": [
        {
          "indexed": true,
          "internalType": "bytes32",
          "name": "txId",
          "type": "bytes32"
        },
        {
          "indexed": true,
          "internalType": "address",
          "name": "recipient",
          "type": "address"
        },
        {
          "indexed": true,
          "internalType": "address",
          "name": "activator",
          "type": "address"
        }
      ],
      "name": "NewTransaction",
      "type": "event"
    },
    {
      "anonymous": false,
      "inputs": [
        {
          "indexed": true,
          "internalType": "bytes32",
          "name": "txId",
          "type": "bytes32"
        },
        {
          "indexed": true,
          "internalType": "address",
          "name": "activator",
          "type": "address"
        }
      ],
      "name": "NextTransactionToBeActivated",
      "type": "event"
    },
    {
      "anonymous": false,
      "inputs": [
        {
          "indexed": true,
          "internalType": "bytes32",
          "name": "txId",
          "type": "bytes32"
        },
        {
          "indexed": true,
          "internalType": "address",
          "name": "leader",
          "type": "address"
        }
      ],
      "name": "TransactionActivated",
      "type": "event"
    },
    {
      "anonymous": false,
      "inputs": [
        {
          "indexed": true,
          "internalType": "bytes32",
          "name": "txId",
          "type": "bytes32"
        },
        {
          "indexed": true,
          "internalType": "address",
          "name": "sender",
          "type": "address"
        }
      ],
      "name": "TransactionCancelled",
      "type": "event"
    },
    {
      "anonymous": false,
      "inputs": [
        {
          "indexed": true,
          "internalType": "bytes32",
          "name": "txId",
          "type": "bytes32"
        },
        {
          "indexed": true,
          "internalType": "address",
          "name": "recipient",
          "type": "address"
        },
        {
          "indexed": false,
          "internalType": "uint256",
          "name": "amount",
          "type": "uint256"
        }
      ],
      "name": "ValueWithdrawalFailed",
      "type": "event"
    },
    {
      "inputs": [
        {
          "internalType": "address",
          "name": "",
          "type": "address"
        }
      ],
      "name": "authorizedCallers",
      "outputs": [
        {
          "internalType": "bool",
          "name": "",
          "type": "bool"
        }
      ],
      "stateMutability": "view",
      "type": "function"
    },
    {
      "inputs": [
        {
          "internalType": "bytes32",
          "name": "",
          "type": "bytes32"
        },
        {
          "internalType": "address",
          "name": "",
          "type": "address"
        }
      ],
      "name": "cancelTransaction",
      "outputs": [
        {
          "components": [
            {
              "internalType": "address",
              "name": "recipient",
              "type": "address"
            },
            {
              "internalType": "uint256",
              "name": "refundedValue",
              "type": "uint256"
            },
            {
              "internalType": "bool",
              "name": "refundFailed",
              "type": "bool"
            }
          ],
          "internalType": "struct ICreationPhase.CancelTransactionResult",
          "name": "result",
          "type": "tuple"
        }
      ],
      "stateMutability": "nonpayable",
      "type": "function"
    },
    {
      "inputs": [
        {
          "internalType": "address",
          "name": "",
          "type": "address"
        },
        {
          "internalType": "bytes32",
          "name": "",
          "type": "bytes32"
        }
      ],
      "name": "checkForNewTransactions",
      "outputs": [
        {
          "components": [
            {
              "internalType": "bool",
              "name": "wasCancelled",
              "type": "bool"
            },
            {
              "internalType": "bytes32",
              "name": "cancelledTxId",
              "type": "bytes32"
            },
            {
              "internalType": "address",
              "name": "cancelledSender",
              "type": "address"
            },
            {
              "internalType": "uint256",
              "name": "refundedValue",
              "type": "uint256"
            },
            {
              "internalType": "bool",
              "name": "refundFailed",
              "type": "bool"
            },
            {
              "internalType": "bool",
              "name": "hasNextTransaction",
              "type": "bool"
            },
            {
              "internalType": "bool",
              "name": "isRecomputation",
              "type": "bool"
            },
            {
              "internalType": "bytes32",
              "name": "nextTxId",
              "type": "bytes32"
            },
            {
              "internalType": "address",
              "name": "recipient",
              "type": "address"
            },
            {
              "internalType": "address",
              "name": "activatorOrLeader",
              "type": "address"
            }
          ],
          "internalType": "struct ICreationPhase.CheckForNewTransactionsResult",
          "name": "result",
          "type": "tuple"
        }
      ],
      "stateMutability": "nonpayable",
      "type": "function"
    },
    {
      "inputs": [
        {
          "internalType": "bytes32",
          "name": "",
          "type": "bytes32"
        }
      ],
      "name": "clearPendingValue",
      "outputs": [],
      "stateMutability": "nonpayable",
      "type": "function"
    },
    {
      "inputs": [
        {
          "components": [
            {
              "internalType": "address",
              "name": "sender",
              "type": "address"
            },
            {
              "internalType": "address",
              "name": "recipient",
              "type": "address"
            },
            {
              "internalType": "address",
              "name": "txOrigin",
              "type": "address"
            },
            {
              "internalType": "address",
              "name": "originalCaller",
              "type": "address"
            },
            {
              "internalType": "uint256",
              "name": "numOfInitialValidators",
              "type": "uint256"
            },
            {
              "internalType": "uint256",
              "name": "maxRotations",
              "type": "uint256"
            },
            {
              "internalType": "bytes",
              "name": "txCalldata",
              "type": "bytes"
            },
            {
              "internalType": "uint256",
              "name": "saltNonce",
              "type": "uint256"
            },
            {
              "internalType": "uint256",
              "name": "validUntil",
              "type": "uint256"
            },
            {
              "internalType": "uint256",
              "name": "value",
              "type": "uint256"
            }
          ],
          "internalType": "struct ICreationPhase.CreateTransactionParams",
          "name": "",
          "type": "tuple"
        }
      ],
      "name": "createTransaction",
      "outputs": [
        {
          "components": [
            {
              "internalType": "bytes32",
              "name": "txId",
              "type": "bytes32"
            },
            {
              "internalType": "uint256",
              "name": "txSlot",
              "type": "uint256"
            },
            {
              "internalType": "address",
              "name": "activator",
              "type": "address"
            },
            {
              "internalType": "address",
              "name": "recipient",
              "type": "address"
            },
            {
              "internalType": "bool",
              "name": "readyToActivate",
              "type": "bool"
            }
          ],
          "internalType": "struct ICreationPhase.CreateTransactionResult",
          "name": "",
          "type": "tuple"
        }
      ],
      "stateMutability": "payable",
      "type": "function"
    },
    {
      "inputs": [
        {
          "internalType": "bytes32",
          "name": "txId",
          "type": "bytes32"
        }
      ],
      "name": "getPendingTransactionValue",
      "outputs": [
        {
          "internalType": "uint256",
          "name": "",
          "type": "uint256"
        }
      ],
      "stateMutability": "view",
      "type": "function"
    },
    {
      "inputs": [
        {
          "internalType": "address",
          "name": "",
          "type": "address"
        }
      ],
      "name": "ghostContracts",
      "outputs": [
        {
          "internalType": "bool",
          "name": "",
          "type": "bool"
        }
      ],
      "stateMutability": "view",
      "type": "function"
    },
    {
      "inputs": [],
      "name": "globalRandomSeed",
      "outputs": [
        {
          "internalType": "bytes32",
          "name": "",
          "type": "bytes32"
        }
      ],
      "stateMutability": "view",
      "type": "function"
    },
    {
      "inputs": [
        {
          "internalType": "address",
          "name": "",
          "type": "address"
        }
      ],
      "name": "isAuthorizedCaller",
      "outputs": [
        {
          "internalType": "bool",
          "name": "",
          "type": "bool"
        }
      ],
      "stateMutability": "pure",
      "type": "function"
    },
    {
      "inputs": [
        {
          "internalType": "address",
          "name": "addr",
          "type": "address"
        }
      ],
      "name": "isGhostContract",
      "outputs": [
        {
          "internalType": "bool",
          "name": "",
          "type": "bool"
        }
      ],
      "stateMutability": "view",
      "type": "function"
    },
    {
      "inputs": [
        {
          "internalType": "bytes32",
          "name": "",
          "type": "bytes32"
        }
      ],
      "name": "pendingValues",
      "outputs": [
        {
          "internalType": "uint256",
          "name": "",
          "type": "uint256"
        }
      ],
      "stateMutability": "view",
      "type": "function"
    },
    {
      "inputs": [
        {
          "internalType": "bytes32",
          "name": "",
          "type": "bytes32"
        },
        {
          "internalType": "address",
          "name": "",
          "type": "address"
        }
      ],
      "name": "refundPendingValue",
      "outputs": [
        {
          "internalType": "bool",
          "name": "refundFailed",
          "type": "bool"
        },
        {
          "internalType": "uint256",
          "name": "amount",
          "type": "uint256"
        }
      ],
      "stateMutability": "nonpayable",
      "type": "function"
    },
    {
      "inputs": [
        {
          "internalType": "address",
          "name": "ghost",
          "type": "address"
        }
      ],
      "name": "registerGhostContract",
      "outputs": [],
      "stateMutability": "nonpayable",
      "type": "function"
    },
    {
      "inputs": [
        {
          "internalType": "address",
          "name": "",
          "type": "address"
        }
      ],
      "name": "setAddressManager",
      "outputs": [],
      "stateMutability": "nonpayable",
      "type": "function"
    },
    {
      "inputs": [
        {
          "internalType": "address",
          "name": "",
          "type": "address"
        },
        {
          "internalType": "bool",
          "name": "",
          "type": "bool"
        }
      ],
      "name": "setAuthorizedCaller",
      "outputs": [],
      "stateMutability": "nonpayable",
      "type": "function"
    },
    {
      "inputs": [
        {
          "internalType": "address[]",
          "name": "",
          "type": "address[]"
        },
        {
          "internalType": "bool",
          "name": "",
          "type": "bool"
        }
      ],
      "name": "setAuthorizedCallers",
      "outputs": [],
      "stateMutability": "nonpayable",
      "type": "function"
    },
    {
      "inputs": [
        {
          "internalType": "address",
          "name": "ghost",
          "type": "address"
        },
        {
          "internalType": "bool",
          "name": "isGhost",
          "type": "bool"
        }
      ],
      "name": "setGhostContract",
      "outputs": [],
      "stateMutability": "nonpayable",
      "type": "function"
    },
    {
      "inputs": [
        {
          "internalType": "bytes32",
          "name": "txId",
          "type": "bytes32"
        },
        {
          "internalType": "uint256",
          "name": "value",
          "type": "uint256"
        }
      ],
      "name": "setPendingValue",
      "outputs": [],
      "stateMutability": "nonpayable",
      "type": "function"
    },
    {
      "inputs": [
        {
          "internalType": "bytes32",
          "name": "",
          "type": "bytes32"
        },
        {
          "internalType": "address",
          "name": "",
          "type": "address"
        }
      ],
      "name": "transferPendingValueToGhost",
      "outputs": [
        {
          "internalType": "bool",
          "name": "transferFailed",
          "type": "bool"
        },
        {
          "internalType": "uint256",
          "name": "amount",
          "type": "uint256"
        }
      ],
      "stateMutability": "nonpayable",
      "type": "function"
    },
    {
      "inputs": [],
      "name": "txGlobalCounter",
      "outputs": [
        {
          "internalType": "uint256",
          "name": "",
          "type": "uint256"
        }
      ],
      "stateMutability": "view",
      "type": "function"
    },
    {
      "inputs": [
        {
          "internalType": "bytes32",
          "name": "newSeed",
          "type": "bytes32"
        }
      ],
      "name": "updateGlobalRandomSeed",
      "outputs": [],
      "stateMutability": "nonpayable",
      "type": "function"
    }
  ],
  "bytecode": "0x60808060405234601557610657908161001b8239f35b600080fdfe6080604052600436101561001257600080fd5b60003560e01c8062fb9bd7146101e75780630652b57a146105a6578063090263a71461054c5780632838322d146104e5578063454bbd29146104c1578063525cc05914610497578063536fff6c1461045857806359d14b41146104335780635e1740331461041557806367f7c83a146101025780637440c21b1461026c578063803350a5146103225780638e4dc988146103095780639d3a5b1d146102f65780639f921d12146102ab578063aa923c021461026c578063cb225db11461024e578063cf0a6384146101ec578063db119910146101e7578063db5b4ee6146101335763f085548f1461010257600080fd5b3461012e57602036600319011261012e5760043560005260016020526020604060002054604051908152f35b600080fd5b602036600319011261012e5760043567ffffffffffffffff811161012e5761014090600319903603011261012e5760405160a0810181811067ffffffffffffffff8211176101d1576000916080916040528281528260208201528260408201528260608201520152606460405162461bcd60e51b815260206004820152600f60248201526e139bdd081a5b5c1b195b595b9d1959608a1b6044820152fd5b634e487b7160e01b600052604160045260246000fd5b6105e7565b3461012e57602036600319011261012e576001600160a01b0361020d6105bb565b168060005260006020526040600020600160ff198254161790557f029a2735cf69e999ef9868fa6b2bb421b3d69c9d9a025a1cfd8081260e260f4b600080a2005b3461012e57600036600319011261012e576020600254604051908152f35b3461012e57602036600319011261012e576001600160a01b0361028d6105bb565b166000526000602052602060ff604060002054166040519015158152f35b3461012e57604036600319011261012e576102c46105bb565b6102cc610612565b9060018060a01b0316600052600060205260406000209060ff801983541691151516179055600080f35b3461012e57602036600319011261012e57005b3461012e57602036600319011261012e57600435600355005b3461012e57604036600319011261012e5761033b6105bb565b5060405161014081019080821067ffffffffffffffff8311176101d15761014091604052600081526020810190600082526040810190600082526060810160008152608082016000815260a083016000815260c08401916000835260e085019360008552610120610100870196600088520196600088526040519860008a525160208a015260018060a01b039051166040890152516060880152511515608087015251151560a086015251151560c08501525160e084015260018060a01b0390511661010083015260018060a01b03905116610120820152f35b3461012e57600036600319011261012e576020600354604051908152f35b3461012e57602036600319011261012e5761044c6105bb565b50602060405160018152f35b3461012e57602036600319011261012e576001600160a01b036104796105bb565b166000526004602052602060ff604060002054166040519015158152f35b3461012e57604036600319011261012e576004356000526001602052602435604060002055600080f35b3461012e57604036600319011261012e576104da6105bb565b506104e3610612565b005b3461012e57604036600319011261012e576104fe6105d1565b50604051606081019080821067ffffffffffffffff8311176101d157606091604052600081526040602082019160008352016000815260405191600083525160208301525115156040820152f35b3461012e57604036600319011261012e5760043567ffffffffffffffff811161012e573660238201121561012e5780600401359067ffffffffffffffff821161012e57602490369260051b01011161012e576104e3610612565b3461012e57602036600319011261012e576104e35b600435906001600160a01b038216820361012e57565b602435906001600160a01b038216820361012e57565b3461012e57604036600319011261012e576106006105d1565b50604080516000815260006020820152f35b60243590811515820361012e5756fea2646970667358221220cfbd0964ef621e300fc2946a9e1d2fc8475e144f01c3214c82ccff53e9fb21ea64736f6c634300081c0033",
  "linkReferences": {},
  "deployedLinkReferences": {}
}