{
  "_format": "hh-sol-artifact-1",
  "contractName": "Messages",
  "sourceName": "contracts/Messages.sol",
  "abi": [
    {
      "inputs": [],
      "name": "AccessControlBadConfirmation",
      "type": "error"
    },
    {
      "inputs": [
        {
          "internalType": "address",
          "name": "account",
          "type": "address"
        },
        {
          "internalType": "bytes32",
          "name": "neededRole",
          "type": "bytes32"
        }
      ],
      "name": "AccessControlUnauthorizedAccount",
      "type": "error"
    },
    {
      "inputs": [],
      "name": "CallerNotConsensus",
      "type": "error"
    },
    {
      "inputs": [],
      "name": "InvalidInitialization",
      "type": "error"
    },
    {
      "inputs": [],
      "name": "NotInitializing",
      "type": "error"
    },
    {
      "inputs": [],
      "name": "NumOfMessagesIssuedTooHigh",
      "type": "error"
    },
    {
      "inputs": [
        {
          "internalType": "address",
          "name": "owner",
          "type": "address"
        }
      ],
      "name": "OwnableInvalidOwner",
      "type": "error"
    },
    {
      "inputs": [
        {
          "internalType": "address",
          "name": "account",
          "type": "address"
        }
      ],
      "name": "OwnableUnauthorizedAccount",
      "type": "error"
    },
    {
      "inputs": [],
      "name": "ReentrancyGuardReentrantCall",
      "type": "error"
    },
    {
      "anonymous": false,
      "inputs": [
        {
          "indexed": true,
          "internalType": "address",
          "name": "genConsensus",
          "type": "address"
        }
      ],
      "name": "GenConsensusSet",
      "type": "event"
    },
    {
      "anonymous": false,
      "inputs": [
        {
          "indexed": true,
          "internalType": "address",
          "name": "genManager",
          "type": "address"
        }
      ],
      "name": "GenManagerSet",
      "type": "event"
    },
    {
      "anonymous": false,
      "inputs": [
        {
          "indexed": true,
          "internalType": "address",
          "name": "genTransactions",
          "type": "address"
        }
      ],
      "name": "GenTransactionsSet",
      "type": "event"
    },
    {
      "anonymous": false,
      "inputs": [
        {
          "indexed": false,
          "internalType": "uint64",
          "name": "version",
          "type": "uint64"
        }
      ],
      "name": "Initialized",
      "type": "event"
    },
    {
      "anonymous": false,
      "inputs": [
        {
          "indexed": true,
          "internalType": "uint256",
          "name": "maxAllocatedMessages",
          "type": "uint256"
        }
      ],
      "name": "MaxAllocatedMessagesSet",
      "type": "event"
    },
    {
      "anonymous": false,
      "inputs": [
        {
          "indexed": true,
          "internalType": "bytes32",
          "name": "txId",
          "type": "bytes32"
        },
        {
          "indexed": true,
          "internalType": "bytes32",
          "name": "msgId",
          "type": "bytes32"
        },
        {
          "indexed": false,
          "internalType": "bytes",
          "name": "reason",
          "type": "bytes"
        }
      ],
      "name": "MessageExternalError",
      "type": "event"
    },
    {
      "anonymous": false,
      "inputs": [
        {
          "indexed": true,
          "internalType": "bytes32",
          "name": "txId",
          "type": "bytes32"
        },
        {
          "indexed": true,
          "internalType": "bytes32",
          "name": "msgId",
          "type": "bytes32"
        },
        {
          "indexed": false,
          "internalType": "uint256",
          "name": "gasRemaining",
          "type": "uint256"
        }
      ],
      "name": "MessageExternalOutOfGas",
      "type": "event"
    },
    {
      "anonymous": false,
      "inputs": [
        {
          "indexed": true,
          "internalType": "bytes32",
          "name": "tx_id",
          "type": "bytes32"
        },
        {
          "indexed": true,
          "internalType": "bytes32",
          "name": "msgId",
          "type": "bytes32"
        }
      ],
      "name": "MessagesOnAcceptance",
      "type": "event"
    },
    {
      "anonymous": false,
      "inputs": [
        {
          "indexed": true,
          "internalType": "bytes32",
          "name": "tx_id",
          "type": "bytes32"
        },
        {
          "indexed": true,
          "internalType": "bytes32",
          "name": "msgId",
          "type": "bytes32"
        }
      ],
      "name": "MessagesOnFinalization",
      "type": "event"
    },
    {
      "anonymous": false,
      "inputs": [
        {
          "indexed": true,
          "internalType": "uint256",
          "name": "minGasPerMessage",
          "type": "uint256"
        }
      ],
      "name": "MinGasPerMessageSet",
      "type": "event"
    },
    {
      "anonymous": false,
      "inputs": [
        {
          "indexed": true,
          "internalType": "uint256",
          "name": "minGasToCatchAndHandle",
          "type": "uint256"
        }
      ],
      "name": "MinGasToCatchAndHandleSet",
      "type": "event"
    },
    {
      "anonymous": false,
      "inputs": [
        {
          "indexed": true,
          "internalType": "address",
          "name": "previousOwner",
          "type": "address"
        },
        {
          "indexed": true,
          "internalType": "address",
          "name": "newOwner",
          "type": "address"
        }
      ],
      "name": "OwnershipTransferStarted",
      "type": "event"
    },
    {
      "anonymous": false,
      "inputs": [
        {
          "indexed": true,
          "internalType": "address",
          "name": "previousOwner",
          "type": "address"
        },
        {
          "indexed": true,
          "internalType": "address",
          "name": "newOwner",
          "type": "address"
        }
      ],
      "name": "OwnershipTransferred",
      "type": "event"
    },
    {
      "anonymous": false,
      "inputs": [
        {
          "indexed": true,
          "internalType": "bytes32",
          "name": "role",
          "type": "bytes32"
        },
        {
          "indexed": true,
          "internalType": "bytes32",
          "name": "previousAdminRole",
          "type": "bytes32"
        },
        {
          "indexed": true,
          "internalType": "bytes32",
          "name": "newAdminRole",
          "type": "bytes32"
        }
      ],
      "name": "RoleAdminChanged",
      "type": "event"
    },
    {
      "anonymous": false,
      "inputs": [
        {
          "indexed": true,
          "internalType": "bytes32",
          "name": "role",
          "type": "bytes32"
        },
        {
          "indexed": true,
          "internalType": "address",
          "name": "account",
          "type": "address"
        },
        {
          "indexed": true,
          "internalType": "address",
          "name": "sender",
          "type": "address"
        }
      ],
      "name": "RoleGranted",
      "type": "event"
    },
    {
      "anonymous": false,
      "inputs": [
        {
          "indexed": true,
          "internalType": "bytes32",
          "name": "role",
          "type": "bytes32"
        },
        {
          "indexed": true,
          "internalType": "address",
          "name": "account",
          "type": "address"
        },
        {
          "indexed": true,
          "internalType": "address",
          "name": "sender",
          "type": "address"
        }
      ],
      "name": "RoleRevoked",
      "type": "event"
    },
    {
      "inputs": [],
      "name": "DEFAULT_ADMIN_ROLE",
      "outputs": [
        {
          "internalType": "bytes32",
          "name": "",
          "type": "bytes32"
        }
      ],
      "stateMutability": "view",
      "type": "function"
    },
    {
      "inputs": [],
      "name": "acceptOwnership",
      "outputs": [],
      "stateMutability": "nonpayable",
      "type": "function"
    },
    {
      "inputs": [
        {
          "internalType": "bytes32",
          "name": "_txId",
          "type": "bytes32"
        },
        {
          "internalType": "address",
          "name": "_ghostAddress",
          "type": "address"
        }
      ],
      "name": "flushExternalMessages",
      "outputs": [],
      "stateMutability": "nonpayable",
      "type": "function"
    },
    {
      "inputs": [],
      "name": "genConsensus",
      "outputs": [
        {
          "internalType": "contract IGenConsensus",
          "name": "",
          "type": "address"
        }
      ],
      "stateMutability": "view",
      "type": "function"
    },
    {
      "inputs": [],
      "name": "genManager",
      "outputs": [
        {
          "internalType": "contract IGenManager",
          "name": "",
          "type": "address"
        }
      ],
      "stateMutability": "view",
      "type": "function"
    },
    {
      "inputs": [],
      "name": "genTransactions",
      "outputs": [
        {
          "internalType": "contract ITransactions",
          "name": "",
          "type": "address"
        }
      ],
      "stateMutability": "view",
      "type": "function"
    },
    {
      "inputs": [
        {
          "internalType": "bytes32",
          "name": "_txId",
          "type": "bytes32"
        }
      ],
      "name": "getAllMessagesForTransaction",
      "outputs": [
        {
          "components": [
            {
              "internalType": "enum IMessages.MessageType",
              "name": "messageType",
              "type": "uint8"
            },
            {
              "internalType": "address",
              "name": "recipient",
              "type": "address"
            },
            {
              "internalType": "uint256",
              "name": "value",
              "type": "uint256"
            },
            {
              "internalType": "bytes",
              "name": "data",
              "type": "bytes"
            },
            {
              "internalType": "bool",
              "name": "onAcceptance",
              "type": "bool"
            },
            {
              "internalType": "uint256",
              "name": "saltNonce",
              "type": "uint256"
            }
          ],
          "internalType": "struct IMessages.SubmittedMessage[]",
          "name": "messages",
          "type": "tuple[]"
        }
      ],
      "stateMutability": "view",
      "type": "function"
    },
    {
      "inputs": [
        {
          "internalType": "bytes32",
          "name": "role",
          "type": "bytes32"
        }
      ],
      "name": "getRoleAdmin",
      "outputs": [
        {
          "internalType": "bytes32",
          "name": "",
          "type": "bytes32"
        }
      ],
      "stateMutability": "view",
      "type": "function"
    },
    {
      "inputs": [
        {
          "internalType": "address",
          "name": "ghost",
          "type": "address"
        }
      ],
      "name": "ghostNonce",
      "outputs": [
        {
          "internalType": "uint256",
          "name": "nonce",
          "type": "uint256"
        }
      ],
      "stateMutability": "view",
      "type": "function"
    },
    {
      "inputs": [
        {
          "internalType": "bytes32",
          "name": "role",
          "type": "bytes32"
        },
        {
          "internalType": "address",
          "name": "account",
          "type": "address"
        }
      ],
      "name": "grantRole",
      "outputs": [],
      "stateMutability": "nonpayable",
      "type": "function"
    },
    {
      "inputs": [
        {
          "internalType": "bytes32",
          "name": "_txId",
          "type": "bytes32"
        }
      ],
      "name": "hasExternalMessagesNotIssued",
      "outputs": [
        {
          "internalType": "bool",
          "name": "",
          "type": "bool"
        }
      ],
      "stateMutability": "view",
      "type": "function"
    },
    {
      "inputs": [
        {
          "internalType": "bytes32",
          "name": "_txId",
          "type": "bytes32"
        }
      ],
      "name": "hasMessagesOnAcceptance",
      "outputs": [
        {
          "internalType": "bool",
          "name": "",
          "type": "bool"
        }
      ],
      "stateMutability": "view",
      "type": "function"
    },
    {
      "inputs": [
        {
          "internalType": "bytes32",
          "name": "_txId",
          "type": "bytes32"
        }
      ],
      "name": "hasMessagesOnFinalization",
      "outputs": [
        {
          "internalType": "bool",
          "name": "",
          "type": "bool"
        }
      ],
      "stateMutability": "view",
      "type": "function"
    },
    {
      "inputs": [
        {
          "internalType": "bytes32",
          "name": "role",
          "type": "bytes32"
        },
        {
          "internalType": "address",
          "name": "account",
          "type": "address"
        }
      ],
      "name": "hasRole",
      "outputs": [
        {
          "internalType": "bool",
          "name": "",
          "type": "bool"
        }
      ],
      "stateMutability": "view",
      "type": "function"
    },
    {
      "inputs": [
        {
          "internalType": "address",
          "name": "_genManager",
          "type": "address"
        },
        {
          "internalType": "address",
          "name": "_genConsensus",
          "type": "address"
        },
        {
          "internalType": "address",
          "name": "_genTransactions",
          "type": "address"
        },
        {
          "internalType": "uint256",
          "name": "_maxAllocatedMessages",
          "type": "uint256"
        }
      ],
      "name": "initialize",
      "outputs": [],
      "stateMutability": "nonpayable",
      "type": "function"
    },
    {
      "inputs": [
        {
          "internalType": "bytes32",
          "name": "",
          "type": "bytes32"
        },
        {
          "internalType": "uint256",
          "name": "",
          "type": "uint256"
        }
      ],
      "name": "isMessageIssued",
      "outputs": [
        {
          "internalType": "bool",
          "name": "",
          "type": "bool"
        }
      ],
      "stateMutability": "view",
      "type": "function"
    },
    {
      "inputs": [
        {
          "internalType": "bytes32",
          "name": "",
          "type": "bytes32"
        }
      ],
      "name": "issuedMessagesOnAcceptance",
      "outputs": [
        {
          "internalType": "uint256",
          "name": "",
          "type": "uint256"
        }
      ],
      "stateMutability": "view",
      "type": "function"
    },
    {
      "inputs": [
        {
          "internalType": "bytes32",
          "name": "",
          "type": "bytes32"
        }
      ],
      "name": "issuedMessagesOnFinalization",
      "outputs": [
        {
          "internalType": "uint256",
          "name": "",
          "type": "uint256"
        }
      ],
      "stateMutability": "view",
      "type": "function"
    },
    {
      "inputs": [],
      "name": "maxAllocatedMessages",
      "outputs": [
        {
          "internalType": "uint256",
          "name": "",
          "type": "uint256"
        }
      ],
      "stateMutability": "view",
      "type": "function"
    },
    {
      "inputs": [
        {
          "internalType": "bytes32",
          "name": "",
          "type": "bytes32"
        },
        {
          "internalType": "uint256",
          "name": "",
          "type": "uint256"
        }
      ],
      "name": "messagesForTransaction",
      "outputs": [
        {
          "internalType": "enum IMessages.MessageType",
          "name": "messageType",
          "type": "uint8"
        },
        {
          "internalType": "address",
          "name": "recipient",
          "type": "address"
        },
        {
          "internalType": "uint256",
          "name": "value",
          "type": "uint256"
        },
        {
          "internalType": "bytes",
          "name": "data",
          "type": "bytes"
        },
        {
          "internalType": "bool",
          "name": "onAcceptance",
          "type": "bool"
        },
        {
          "internalType": "uint256",
          "name": "saltNonce",
          "type": "uint256"
        }
      ],
      "stateMutability": "view",
      "type": "function"
    },
    {
      "inputs": [],
      "name": "minGasPerMessage",
      "outputs": [
        {
          "internalType": "uint256",
          "name": "",
          "type": "uint256"
        }
      ],
      "stateMutability": "view",
      "type": "function"
    },
    {
      "inputs": [],
      "name": "minGasToCatchAndHandle",
      "outputs": [
        {
          "internalType": "uint256",
          "name": "",
          "type": "uint256"
        }
      ],
      "stateMutability": "view",
      "type": "function"
    },
    {
      "inputs": [
        {
          "internalType": "bytes32",
          "name": "_txId",
          "type": "bytes32"
        }
      ],
      "name": "numOfMessagesIssuedOnAcceptance",
      "outputs": [
        {
          "internalType": "uint256",
          "name": "",
          "type": "uint256"
        }
      ],
      "stateMutability": "view",
      "type": "function"
    },
    {
      "inputs": [
        {
          "internalType": "bytes32",
          "name": "_txId",
          "type": "bytes32"
        }
      ],
      "name": "numOfMessagesIssuedOnFinalization",
      "outputs": [
        {
          "internalType": "uint256",
          "name": "",
          "type": "uint256"
        }
      ],
      "stateMutability": "view",
      "type": "function"
    },
    {
      "inputs": [],
      "name": "owner",
      "outputs": [
        {
          "internalType": "address",
          "name": "",
          "type": "address"
        }
      ],
      "stateMutability": "view",
      "type": "function"
    },
    {
      "inputs": [],
      "name": "pendingOwner",
      "outputs": [
        {
          "internalType": "address",
          "name": "",
          "type": "address"
        }
      ],
      "stateMutability": "view",
      "type": "function"
    },
    {
      "inputs": [
        {
          "internalType": "bytes32",
          "name": "_txId",
          "type": "bytes32"
        },
        {
          "internalType": "address",
          "name": "_ghostAddress",
          "type": "address"
        }
      ],
      "name": "processMessagesOnAcceptance",
      "outputs": [
        {
          "components": [
            {
              "internalType": "enum IMessages.MessageType",
              "name": "messageType",
              "type": "uint8"
            },
            {
              "internalType": "address",
              "name": "recipient",
              "type": "address"
            },
            {
              "internalType": "uint256",
              "name": "value",
              "type": "uint256"
            },
            {
              "internalType": "bytes",
              "name": "data",
              "type": "bytes"
            },
            {
              "internalType": "bool",
              "name": "onAcceptance",
              "type": "bool"
            },
            {
              "internalType": "uint256",
              "name": "saltNonce",
              "type": "uint256"
            }
          ],
          "internalType": "struct IMessages.SubmittedMessage[]",
          "name": "internalMessages",
          "type": "tuple[]"
        }
      ],
      "stateMutability": "nonpayable",
      "type": "function"
    },
    {
      "inputs": [
        {
          "internalType": "bytes32",
          "name": "_txId",
          "type": "bytes32"
        },
        {
          "internalType": "address",
          "name": "_ghostAddress",
          "type": "address"
        }
      ],
      "name": "processMessagesOnFinalization",
      "outputs": [
        {
          "components": [
            {
              "internalType": "enum IMessages.MessageType",
              "name": "messageType",
              "type": "uint8"
            },
            {
              "internalType": "address",
              "name": "recipient",
              "type": "address"
            },
            {
              "internalType": "uint256",
              "name": "value",
              "type": "uint256"
            },
            {
              "internalType": "bytes",
              "name": "data",
              "type": "bytes"
            },
            {
              "internalType": "bool",
              "name": "onAcceptance",
              "type": "bool"
            },
            {
              "internalType": "uint256",
              "name": "saltNonce",
              "type": "uint256"
            }
          ],
          "internalType": "struct IMessages.SubmittedMessage[]",
          "name": "internalMessages",
          "type": "tuple[]"
        }
      ],
      "stateMutability": "nonpayable",
      "type": "function"
    },
    {
      "inputs": [],
      "name": "renounceOwnership",
      "outputs": [],
      "stateMutability": "nonpayable",
      "type": "function"
    },
    {
      "inputs": [
        {
          "internalType": "bytes32",
          "name": "role",
          "type": "bytes32"
        },
        {
          "internalType": "address",
          "name": "callerConfirmation",
          "type": "address"
        }
      ],
      "name": "renounceRole",
      "outputs": [],
      "stateMutability": "nonpayable",
      "type": "function"
    },
    {
      "inputs": [
        {
          "internalType": "bytes32",
          "name": "role",
          "type": "bytes32"
        },
        {
          "internalType": "address",
          "name": "account",
          "type": "address"
        }
      ],
      "name": "revokeRole",
      "outputs": [],
      "stateMutability": "nonpayable",
      "type": "function"
    },
    {
      "inputs": [
        {
          "internalType": "address",
          "name": "_genConsensus",
          "type": "address"
        }
      ],
      "name": "setGenConsensus",
      "outputs": [],
      "stateMutability": "nonpayable",
      "type": "function"
    },
    {
      "inputs": [
        {
          "internalType": "address",
          "name": "_genManager",
          "type": "address"
        }
      ],
      "name": "setGenManager",
      "outputs": [],
      "stateMutability": "nonpayable",
      "type": "function"
    },
    {
      "inputs": [
        {
          "internalType": "address",
          "name": "_genTransactions",
          "type": "address"
        }
      ],
      "name": "setGenTransactions",
      "outputs": [],
      "stateMutability": "nonpayable",
      "type": "function"
    },
    {
      "inputs": [
        {
          "internalType": "uint256",
          "name": "_maxAllocatedMessages",
          "type": "uint256"
        }
      ],
      "name": "setMaxAllocatedMessages",
      "outputs": [],
      "stateMutability": "nonpayable",
      "type": "function"
    },
    {
      "inputs": [
        {
          "internalType": "uint256",
          "name": "_minGasPerMessage",
          "type": "uint256"
        }
      ],
      "name": "setMinGasPerMessage",
      "outputs": [],
      "stateMutability": "nonpayable",
      "type": "function"
    },
    {
      "inputs": [
        {
          "internalType": "uint256",
          "name": "_minGasToCatchAndHandle",
          "type": "uint256"
        }
      ],
      "name": "setMinGasToCatchAndHandle",
      "outputs": [],
      "stateMutability": "nonpayable",
      "type": "function"
    },
    {
      "inputs": [
        {
          "internalType": "bytes32",
          "name": "_txId",
          "type": "bytes32"
        },
        {
          "components": [
            {
              "internalType": "enum IMessages.MessageType",
              "name": "messageType",
              "type": "uint8"
            },
            {
              "internalType": "address",
              "name": "recipient",
              "type": "address"
            },
            {
              "internalType": "uint256",
              "name": "value",
              "type": "uint256"
            },
            {
              "internalType": "bytes",
              "name": "data",
              "type": "bytes"
            },
            {
              "internalType": "bool",
              "name": "onAcceptance",
              "type": "bool"
            },
            {
              "internalType": "uint256",
              "name": "saltNonce",
              "type": "uint256"
            }
          ],
          "internalType": "struct IMessages.SubmittedMessage[]",
          "name": "_messages",
          "type": "tuple[]"
        }
      ],
      "name": "storeMessagesForTransaction",
      "outputs": [],
      "stateMutability": "nonpayable",
      "type": "function"
    },
    {
      "inputs": [
        {
          "internalType": "bytes4",
          "name": "interfaceId",
          "type": "bytes4"
        }
      ],
      "name": "supportsInterface",
      "outputs": [
        {
          "internalType": "bool",
          "name": "",
          "type": "bool"
        }
      ],
      "stateMutability": "view",
      "type": "function"
    },
    {
      "inputs": [
        {
          "internalType": "address",
          "name": "newOwner",
          "type": "address"
        }
      ],
      "name": "transferOwnership",
      "outputs": [],
      "stateMutability": "nonpayable",
      "type": "function"
    },
    {
      "inputs": [
        {
          "internalType": "bytes32",
          "name": "",
          "type": "bytes32"
        }
      ],
      "name": "txHasMessagesOnAcceptance",
      "outputs": [
        {
          "internalType": "bool",
          "name": "",
          "type": "bool"
        }
      ],
      "stateMutability": "view",
      "type": "function"
    },
    {
      "inputs": [
        {
          "internalType": "bytes32",
          "name": "",
          "type": "bytes32"
        }
      ],
      "name": "txHasMessagesOnFinalization",
      "outputs": [
        {
          "internalType": "bool",
          "name": "",
          "type": "bool"
        }
      ],
      "stateMutability": "view",
      "type": "function"
    },
    {
      "inputs": [
        {
          "internalType": "bytes32",
          "name": "_txId",
          "type": "bytes32"
        },
        {
          "internalType": "uint256",
          "name": "_numOfMessagesIssued",
          "type": "uint256"
        },
        {
          "internalType": "bool",
          "name": "_isAcceptance",
          "type": "bool"
        }
      ],
      "name": "updateNumOfMessagesIssued",
      "outputs": [],
      "stateMutability": "nonpayable",
      "type": "function"
    },
    {
      "stateMutability": "payable",
      "type": "receive"
    }
  ],
  "bytecode": "0x60808060405234601557612157908161001b8239f35b600080fdfe608080604052600436101561001d575b50361561001b57600080fd5b005b60003560e01c90816301ffc9a71461121e5750806302fae85d146111f65780631444d2e2146111af578063182b304e1461112e578063248a9ca31461110857806325e66885146110ce57806326f20af0146110a55780632f2ff15d1461107457806336568abe1461102e57806338444e0514610ff7578063390dff9414610f90578063404f7db714610c2a5780634154427714610f6757806342b8bfbf14610aba5780634af6b23f14610ed35780634fbd51fe14610eb55780635454a18f14610e7b5780635c46384814610b6e57806361c53f3d14610e315780636221578814610d82578063629fcfe614610d64578063715018a614610ce3578063731134d914610cab57806379ba509714610c5b5780637bd9024d14610c2a5780638da5cb5b14610bf457806391d1485414610b9a5780639549390d14610b6e57806395f661a714610b07578063a217fddf14610aeb578063a2fd1129146102b5578063aa14aa7314610aba578063aa2cbb2b14610a9c578063b9899c7c14610671578063bf67fb111461062a578063cf756fdf146103fd578063d547741f146103c7578063ddfa7f111461039e578063e30c397814610368578063f2fde38b146102e1578063f4b001cb146102b5578063fd85f3e81461024f5763ff24908b14610203573861000f565b3461024a57602036600319011261024a5760043561021f611bd5565b806003557f793474085a3b2169e01d60d064f31a4165fd3f26b4985be48ca89f73ccc3ed3c600080a2005b600080fd5b3461024a57602036600319011261024a57610268611380565b610270611bd5565b600080546001600160a01b0319166001600160a01b039290921691821781557f36d4b817485e75c7dfbdd148270612adf09f2bb2515f0aa37612bc86011201b19080a2005b3461024a57602036600319011261024a57600435600052600c6020526020604060002054604051908152f35b3461024a57602036600319011261024a576102fa611380565b610302611bd5565b60008051602061210283398151915280546001600160a01b0319166001600160a01b039283169081179091556000805160206120a2833981519152549091167f38d16b8cac22d99fc7c124b9cd0de2d3fa1faef420bfe791d8c362d765e22700600080a3005b3461024a57600036600319011261024a57600080516020612102833981519152546040516001600160a01b039091168152602090f35b3461024a57600036600319011261024a576000546040516001600160a01b039091168152602090f35b3461024a57604036600319011261024a5761001b6004356103e6611396565b906103f86103f3826115f1565b611bf6565b611ce9565b3461024a57608036600319011261024a57610416611380565b61041e611396565b906044356001600160a01b0381169081900361024a57606435916000805160206120e2833981519152549360ff8560401c1615946001600160401b03811680159081610622575b6001149081610618575b15908161060f575b506105fe5767ffffffffffffffff1981166001176000805160206120e283398151915255856105d1575b506104aa612073565b6104b2612073565b33156105bb576104c133612005565b6104c9612073565b6104d1612073565b6104d9612073565b60017f9b779b17422d0df92223018b32b4d1fa46e071723d6817e2486d003becc55f0055610505612073565b600180546001600160a01b03199081166001600160a01b0393841617909155600280548216939092169290921790556000805490911691909117905580156105b3575b600355620aae60600455620186a060055561055f57005b60ff60401b196000805160206120e283398151915254166000805160206120e2833981519152557fc7f505b2f371ae2175ee4913f4499e1f2633a7b5936321eed1cdaeb6115181d2602060405160018152a1005b506014610548565b631e4fbdf760e01b600052600060045260246000fd5b68ffffffffffffffffff191668010000000000000001176000805160206120e283398151915255856104a1565b63f92ee8a960e01b60005260046000fd5b90501587610477565b303b15915061046f565b879150610465565b3461024a57602036600319011261024a57600435610646611bd5565b806004557f7d17c3883cb42fae97c4cf9018f8584b90230610fc305ca7cc3c64e67bf0d86c600080a2005b3461024a57604036600319011261024a576024356004356001600160401b03821161024a573660238301121561024a578160040135906001600160401b03821161024a57602483013660248460051b8601011161024a576001546001600160a01b03163303610a8b576000926000805b8281101561074657600095610709608061070360248560051b8c010188611b9c565b01611bb1565b156107375750600190604082975b87815260086020528181208382526020522060ff198154169055016106e1565b95915060019060408293610717565b5061078e849161076f8784600052600960205260406000209060ff801983541691151516179055565b82600052600a60205260406000209060ff801983541691151516179055565b6000526007602052604060002091600160401b8211610a755782548284558083106109ab575b506000928352602083209290805b8383106107cb57005b6107d58183611b9c565b8035600281101561024a5786546000919060208401356001600160a01b03811681036109a757610100600160a81b0360089190911b1660ff929092166001600160a81b031991909116171787556040820135600188015560028701906060830135601e1936859003018112156109a3578301908135916001600160401b0383116109a35782360360208201136109a35761086f84546113f4565b601f8111610968575b508190601f84116001146108f657938360019794846005989460209860a097936108e9575b505050600019600383901b1c191690881b1790555b6108d66108c160808301611bb1565b60038c019060ff801983541691151516179055565b01356004890155019501920191936107c2565b0188013591508e8061089d565b90601f19841685845260208420935b81811061094e57508460a094600598946020989460019b988c9510610932575b505050811b0190556108b2565b01880135600019600384901b60f8161c191690558d8080610925565b919360206001819282888801013581550195019201610905565b6109939085845260208420601f860160051c81019160208710610999575b601f0160051c0190611bbe565b8a610878565b9091508190610986565b5080fd5b8380fd5b80600502906005820403610a5f5782600502600581048403610a5f5784600052602060002091820191015b8181106109e357506107b4565b8060006005925560006001820155600281016109ff81546113f4565b9081610a1c575b50506000600382015560006004820155016109d6565b81601f60009311600114610a345750555b8680610a06565b81835260208320610a4f91601f01861c810190600101611bbe565b8082528160208120915555610a2d565b634e487b7160e01b600052601160045260246000fd5b634e487b7160e01b600052604160045260246000fd5b634782018760e01b60005260046000fd5b3461024a57600036600319011261024a576020600354604051908152f35b3461024a57602036600319011261024a57600435600052600a602052602060ff604060002054166040519015158152f35b3461024a57600036600319011261024a57602060405160008152f35b3461024a57602036600319011261024a57610b20611380565b610b28611bd5565b600280546001600160a01b0319166001600160a01b039290921691821790557f117fe844b219100c9507f8cf3f99af5402ba25dc7c30bdc0cc37dcae23ec24c7600080a2005b3461024a57602036600319011261024a57600435600052600b6020526020604060002054604051908152f35b3461024a57604036600319011261024a57610bb3611396565b6004356000526000805160206120c283398151915260205260406000209060018060a01b0316600052602052602060ff604060002054166040519015158152f35b3461024a57600036600319011261024a576000805160206120a2833981519152546040516001600160a01b039091168152602090f35b3461024a57602036600319011261024a576004356000526009602052602060ff604060002054166040519015158152f35b3461024a57600036600319011261024a5760008051602061210283398151915254336001600160a01b0390911603610c965761001b33612005565b63118cdaa760e01b6000523360045260246000fd5b3461024a57610cb9366113ac565b906000526008602052604060002090600052602052602060ff604060002054166040519015158152f35b3461024a57600036600319011261024a57610cfc611bd5565b60008051602061210283398151915280546001600160a01b03199081169091556000805160206120a2833981519152805491821690556000906001600160a01b03167f8be0079c531659141344cd1fd0a4f28419497f9722a3daafe3b4186f6b6457e08280a3005b3461024a57600036600319011261024a576020600454604051908152f35b3461024a57610d90366113ac565b906000526007602052604060002090815481101561024a57610db1916113c2565b508054600182015491604051610dd581610dce816002860161142e565b03826114cc565b610e20600460ff600385015416930154916040519585610df98860ff819916611271565b60081c6001600160a01b03166020870152604086015260c060608601819052850190611294565b911515608084015260a08301520390f35b3461024a57604036600319011261024a57610e4a611396565b6001546001600160a01b03163303610a8b57610e6b610e77916004356119e1565b604051918291826112d5565b0390f35b3461024a57604036600319011261024a57610e94611396565b6001546001600160a01b03163303610a8b57610e6b610e7791600435611804565b3461024a57600036600319011261024a576020600554604051908152f35b3461024a57606036600319011261024a57602435600435604435801515810361024a576001546001600160a01b03163303610a8b578160005260076020528260406000205410610f565715610f3e57600052600b602052610f3a6040600020918254611621565b9055005b600052600c602052610f3a6040600020918254611621565b632809de1560e11b60005260046000fd5b3461024a57600036600319011261024a576001546040516001600160a01b039091168152602090f35b3461024a57602036600319011261024a57610fa9611380565b610fb1611bd5565b600180546001600160a01b0319166001600160a01b039290921691821790557fd71cb382901878f93a93cfcb156c01d64cdba2518bf373f5c8281994d4d3d750600080a2005b3461024a57604036600319011261024a57611010611396565b6001546001600160a01b03163303610a8b5761001b9060043561162e565b3461024a57604036600319011261024a57611047611396565b336001600160a01b038216036110635761001b90600435611ce9565b63334bd91960e11b60005260046000fd5b3461024a57604036600319011261024a5761001b600435611093611396565b906110a06103f3826115f1565b611c40565b3461024a57600036600319011261024a576002546040516001600160a01b039091168152602090f35b3461024a57602036600319011261024a576001600160a01b036110ef611380565b1660005260066020526020604060002054604051908152f35b3461024a57602036600319011261024a5760206111266004356115f1565b604051908152f35b3461024a57602036600319011261024a5760043560005260076020526040600020805461115a81611569565b9161116860405193846114cc565b818352602083019060005260206000206000915b8383106111915760405180610e7787826112d5565b600560206001926111a185611580565b81520192019201919061117c565b3461024a57602036600319011261024a576004356111cb611bd5565b806005557fa178f61ad9dc567929dd4655ec5b9534714a6b267d0e91a17808c9a8f7e5b3a6600080a2005b3461024a57602036600319011261024a5760206112146004356114ed565b6040519015158152f35b3461024a57602036600319011261024a576004359063ffffffff60e01b821680920361024a57602091637965db0b60e01b8114908115611260575b5015158152f35b6301ffc9a760e01b14905083611259565b90600282101561127e5752565b634e487b7160e01b600052602160045260246000fd5b919082519283825260005b8481106112c0575050826000602080949584010152601f8019910116010190565b8060208092840101518282860101520161129f565b602081016020825282518091526040820191602060408360051b8301019401926000915b83831061130857505050505090565b9091929394602080600192603f1985820301865288519061132a818351611271565b848060a01b038383015116838201526040820151604082015260a08061135f606085015160c0606086015260c0850190611294565b936080810151151560808501520151910152970193019301919392906112f9565b600435906001600160a01b038216820361024a57565b602435906001600160a01b038216820361024a57565b604090600319011261024a576004359060243590565b80548210156113de576000526005602060002091020190600090565b634e487b7160e01b600052603260045260246000fd5b90600182811c92168015611424575b602083101461140e57565b634e487b7160e01b600052602260045260246000fd5b91607f1691611403565b6000929181549161143e836113f4565b8083529260018116908115611494575060011461145a57505050565b60009081526020812093945091925b83831061147a575060209250010190565b600181602092949394548385870101520191019190611469565b915050602093945060ff929192191683830152151560051b010190565b60c081019081106001600160401b03821117610a7557604052565b90601f801991011681019081106001600160401b03821117610a7557604052565b6000818152600760205260408120805492915b8381106115105750505050600090565b60ff61151c82846113c2565b505416600281101561127e571580611544575b61153b57600101611500565b50505050600190565b5082600052600860205260406000208160005260205260ff604060002054161561152f565b6001600160401b038111610a755760051b60200190565b9060405161158d816114b1565b809280549060ff821690600282101561127e5760a0926004928552600180851b039060081c166020850152600181015460408501526040516115d681610dce816002860161142e565b606085015260ff600382015416151560808501520154910152565b6000526000805160206120c283398151915260205260016040600020015490565b6000198114610a5f5760010190565b91908201809211610a5f57565b91909180600052600760205260406000208054156117715760009160009160019460005b82548110156117645786156117245761166b81846113c2565b5060ff815416600281101561127e5715806116ff575b61168f575b50600101611652565b965061169c848989611d89565b96871561168657600360ff918660009994995260086020526040600020896000526020526040600020600184198254161790550154166000146116ec576116e4600191611612565b955b90611686565b94936116f9600191611612565b946116e6565b5084600052600860205260406000208260005260205260ff6040600020541615611681565b50955050919092505b81600052600b6020526117466040600020918254611621565b9055600052600c6020526117606040600020918254611621565b9055565b509550509190925061172d565b50509050565b9061178182611569565b61178e60405191826114cc565b828152809261179f601f1991611569565b019060005b8281106117b057505050565b6020906040516117bf816114b1565b600081526000838201526000604082015260608082015260006080820152600060a0820152828285010152016117a4565b80518210156113de5760209160051b010190565b9190918060005260076020526040600020805480156119d857600090815b81811061195957505061183490611777565b9360008092600190825b81548110156119435761185181836113c2565b5060ff6003820154168061191e575b61186e575b5060010161183e565b60ff815416600281101561127e57889187916118e95785611897575b5050506001905b90611865565b6118a2939550611d89565b91826118b1575b86853861188a565b946118e160019188600052600860205260406000208860005260205260406000208360ff19825416179055611612565b9590506118a9565b61191892506001939691506118fd90611580565b611907828d6117f0565b52611912818c6117f0565b50611612565b93611891565b5087600052600860205260406000208260005260205260ff6040600020541615611860565b505050505090600052600b602052604060002055565b61196381856113c2565b5060ff815416600281101561127e5760011490816119c9575b50806119a4575b611990575b600101611822565b9161199c600191611612565b929050611988565b5084600052600860205260406000208160005260205260ff6040600020541615611983565b60ff915060030154163861197c565b50606093505050565b9190918060005260076020526040600020805480156119d857600090815b818110611b1c575050611a1190611777565b9360008092600190825b8154811015611b0657611a2e81836113c2565b5060ff6003820154161580611ae1575b611a4c575b50600101611a1b565b60ff815416600281101561127e5788918791611ac75785611a75575b5050506001905b90611a43565b611a80939550611d89565b9182611a8f575b868538611a68565b94611abf60019188600052600860205260406000208860005260205260406000208360ff19825416179055611612565b959050611a87565b611adb92506001939691506118fd90611580565b93611a6f565b5087600052600860205260406000208260005260205260ff6040600020541615611a3e565b505050505090600052600c602052604060002055565b611b2681856113c2565b5060ff815416600281101561127e576001149081611b8c575b5080611b67575b611b53575b6001016119ff565b91611b5f600191611612565b929050611b4b565b5084600052600860205260406000208160005260205260ff6040600020541615611b46565b60ff915060030154161538611b3f565b90359060be198136030182121561024a570190565b35801515810361024a5790565b818110611bc9575050565b60008155600101611bbe565b6000805160206120a2833981519152546001600160a01b03163303610c9657565b60008181526000805160206120c28339815191526020908152604080832033845290915290205460ff1615611c285750565b63e2517d3f60e01b6000523360045260245260446000fd5b60008181526000805160206120c2833981519152602090815260408083206001600160a01b038616845290915290205460ff16611ce25760008181526000805160206120c2833981519152602090815260408083206001600160a01b0395909516808452949091528120805460ff19166001179055339291907f2f8788117e7eff1d82e926ec794901d17c78024a50270940304540a733656f0d9080a4600190565b5050600090565b60008181526000805160206120c2833981519152602090815260408083206001600160a01b038616845290915290205460ff1615611ce25760008181526000805160206120c2833981519152602090815260408083206001600160a01b0395909516808452949091528120805460ff19169055339291907ff6391f5c32d9c69d2a47ea670b442974b53935d1edc7fd64eb21e047a839171b9080a4600190565b90929160018060a01b03825460081c169160028101946040516020810190858252604080820152611dcf81611dc1606082018b61142e565b03601f1981018352826114cc565b51902093611de260045460055490611621565b5a908110611fcc575060018054848201546001600160a01b03948516600081815260066020526040902054909593810193909216918310610a5f57611e6b602094611e5d611e9c9c6040519687936303fb17f160e41b8a86015260248501528c604485015260648401526080608484015260a483019061142e565b03601f1981018552846114cc565b6000604051809b81958294639e0c615f60e01b84528960048501526024840152606060448401526064830190611294565b03925af1958615611fc057600096611f7e575b508515611f2b5760ff9160039160005260066020526040600020611ed38154611612565b905501541615611f04577fd47891a6ff5220ec24aa936c97085771a5c665b9b42f318ee779ff7dba9afedf600080a3565b7f1a2b93b175bf31d44b127b5c4c0f72cbf128f5230ad594a52a00dfa559c96b51600080a3565b50507f5ae8e754fbc8b7b56c89e264bdcd8bb847036b23ac1a0f791f48b62438f2bab960606040516020815260146020820152731a185b991b1953dc0818d85b1b0819985a5b195960621b6040820152a3565b6020969196813d602011611fb8575b81611f9a602093836114cc565b810103126109a35751908115158203611fb557509438611eaf565b80fd5b3d9150611f8d565b6040513d6000823e3d90fd5b9150507f97a034ff8fab7e4de24992575acaa9eb95a9c48411292c420aa711b24405811c929394955060209150604051908152a3600090565b60008051602061210283398151915280546001600160a01b03199081169091556000805160206120a283398151915280549182166001600160a01b0393841690811790915591167f8be0079c531659141344cd1fd0a4f28419497f9722a3daafe3b4186f6b6457e0600080a3565b60ff6000805160206120e28339815191525460401c161561209057565b631afcd79f60e31b60005260046000fdfe9016d09d72d40fdae2fd8ceac6b6234c7706214fd39c1cd1e609a0528c19930002dd7bc7dec4dceedda775e58dd541e08a116c6c53815c0bd028192f7b626800f0c57e16840df040f15088dc2f81fe391c3923bec73e23a9662efc9c229c6a00237e158222e3e6968b72b9db0d8043aacf074ad9f650f0d1606b4d82ee432c00a2646970667358221220fc8a492f5dce1e88e662f2af13a5dd661a725e57cb82846ded144ffdf3de16cf64736f6c634300081c0033",
  "linkReferences": {},
  "deployedLinkReferences": {}
}