{
  "_format": "hh-sol-artifact-1",
  "contractName": "MockStakingForFinalization",
  "sourceName": "contracts/test-helpers/MockStakingForFinalization.sol",
  "abi": [
    {
      "inputs": [],
      "name": "epoch",
      "outputs": [
        {
          "internalType": "uint256",
          "name": "",
          "type": "uint256"
        }
      ],
      "stateMutability": "view",
      "type": "function"
    },
    {
      "inputs": [],
      "name": "epochFinalizeImmediate",
      "outputs": [],
      "stateMutability": "nonpayable",
      "type": "function"
    },
    {
      "inputs": [],
      "name": "epochFinalizeImmediateCallCount",
      "outputs": [
        {
          "internalType": "uint256",
          "name": "",
          "type": "uint256"
        }
      ],
      "stateMutability": "view",
      "type": "function"
    },
    {
      "inputs": [],
      "name": "epochFinalizeImmediateCalled",
      "outputs": [
        {
          "internalType": "bool",
          "name": "",
          "type": "bool"
        }
      ],
      "stateMutability": "view",
      "type": "function"
    },
    {
      "inputs": [],
      "name": "resetMockState",
      "outputs": [],
      "stateMutability": "nonpayable",
      "type": "function"
    },
    {
      "inputs": [
        {
          "internalType": "uint256",
          "name": "newEpoch",
          "type": "uint256"
        }
      ],
      "name": "setMockEpoch",
      "outputs": [],
      "stateMutability": "nonpayable",
      "type": "function"
    },
    {
      "inputs": [
        {
          "internalType": "address",
          "name": "",
          "type": "address"
        },
        {
          "internalType": "uint256",
          "name": "",
          "type": "uint256"
        }
      ],
      "name": "validatorQuarantine",
      "outputs": [],
      "stateMutability": "nonpayable",
      "type": "function"
    }
  ],
  "bytecode": "0x60808060405234601a5760016000556101aa90816100208239f35b600080fdfe608080604052600436101561001357600080fd5b60003560e01c90816320090e9d14610152578163900cf0cf14610137575080639033c38914610114578063a098398b146100fb578063ad2c0c44146100dd578063cf662c14146100965763dfc3736d1461006c57600080fd5b34610091576040366003190112610091576004356001600160a01b0381160361009157005b600080fd5b34610091576000366003190112610091576001805460ff19168117905560025460001981146100c757600101600255005b634e487b7160e01b600052601160045260246000fd5b34610091576000366003190112610091576020600254604051908152f35b3461009157602036600319011261009157600435600055005b3461009157600036600319011261009157602060ff600154166040519015158152f35b34610091576000366003190112610091576020906000548152f35b34610091576000366003190112610091576001805460ff19169055600060025500fea2646970667358221220c975d0d26bf47bb965cad9c3ad25ac5b741d1e7c5cef80e0c60581a1d195ae9864736f6c634300081c0033",
  "linkReferences": {},
  "deployedLinkReferences": {}
}