{
  "_format": "hh-sol-artifact-1",
  "contractName": "GhostBlueprintV2",
  "sourceName": "contracts/test-helpers/GhostBlueprintV2.sol",
  "abi": [
    {
      "inputs": [],
      "name": "InvalidInitialization",
      "type": "error"
    },
    {
      "inputs": [],
      "name": "NotInitializing",
      "type": "error"
    },
    {
      "inputs": [
        {
          "internalType": "address",
          "name": "owner",
          "type": "address"
        }
      ],
      "name": "OwnableInvalidOwner",
      "type": "error"
    },
    {
      "inputs": [
        {
          "internalType": "address",
          "name": "account",
          "type": "address"
        }
      ],
      "name": "OwnableUnauthorizedAccount",
      "type": "error"
    },
    {
      "anonymous": false,
      "inputs": [
        {
          "indexed": false,
          "internalType": "uint64",
          "name": "version",
          "type": "uint64"
        }
      ],
      "name": "Initialized",
      "type": "event"
    },
    {
      "anonymous": false,
      "inputs": [
        {
          "indexed": true,
          "internalType": "address",
          "name": "previousOwner",
          "type": "address"
        },
        {
          "indexed": true,
          "internalType": "address",
          "name": "newOwner",
          "type": "address"
        }
      ],
      "name": "OwnershipTransferred",
      "type": "event"
    },
    {
      "anonymous": false,
      "inputs": [
        {
          "indexed": true,
          "internalType": "address",
          "name": "to",
          "type": "address"
        },
        {
          "indexed": false,
          "internalType": "bytes32",
          "name": "msgId",
          "type": "bytes32"
        },
        {
          "indexed": false,
          "internalType": "bytes",
          "name": "data",
          "type": "bytes"
        }
      ],
      "name": "TransactionExecuted",
      "type": "event"
    },
    {
      "inputs": [],
      "name": "addTransaction",
      "outputs": [],
      "stateMutability": "payable",
      "type": "function"
    },
    {
      "inputs": [],
      "name": "getNonce",
      "outputs": [
        {
          "internalType": "uint256",
          "name": "",
          "type": "uint256"
        }
      ],
      "stateMutability": "view",
      "type": "function"
    },
    {
      "inputs": [],
      "name": "getNonceMultipliedByTen",
      "outputs": [
        {
          "internalType": "uint256",
          "name": "",
          "type": "uint256"
        }
      ],
      "stateMutability": "view",
      "type": "function"
    },
    {
      "inputs": [
        {
          "internalType": "address",
          "name": "to",
          "type": "address"
        },
        {
          "internalType": "bytes32",
          "name": "msgId",
          "type": "bytes32"
        },
        {
          "internalType": "bytes",
          "name": "data",
          "type": "bytes"
        }
      ],
      "name": "handleOp",
      "outputs": [],
      "stateMutability": "payable",
      "type": "function"
    },
    {
      "inputs": [
        {
          "internalType": "address",
          "name": "_owner",
          "type": "address"
        }
      ],
      "name": "initialize",
      "outputs": [],
      "stateMutability": "nonpayable",
      "type": "function"
    },
    {
      "inputs": [],
      "name": "owner",
      "outputs": [
        {
          "internalType": "address",
          "name": "",
          "type": "address"
        }
      ],
      "stateMutability": "view",
      "type": "function"
    },
    {
      "inputs": [],
      "name": "renounceOwnership",
      "outputs": [],
      "stateMutability": "nonpayable",
      "type": "function"
    },
    {
      "inputs": [
        {
          "internalType": "address",
          "name": "newOwner",
          "type": "address"
        }
      ],
      "name": "transferOwnership",
      "outputs": [],
      "stateMutability": "nonpayable",
      "type": "function"
    },
    {
      "stateMutability": "payable",
      "type": "receive"
    }
  ],
  "bytecode": "0x60808060405234601557610721908161001b8239f35b600080fdfe6080604052600436101561001b575b361561001957600080fd5b005b6000803560e01c8063042387fb14610381578063715018a614610316578063839e8340146102d05780638da5cb5b1461029a578063af34aea41461021c578063c4d66de8146100cb578063d087d288146100ae5763f2fde38b1461007f575061000e565b346100ab5760203660031901126100ab576100a861009b61050d565b6100a3610647565b6105d1565b80f35b80fd5b50346100ab57806003193601126100ab5760209054604051908152f35b50346100ab5760203660031901126100ab576100e561050d565b6000805160206106cc833981519152549060ff8260401c16159167ffffffffffffffff811680159081610214575b600114908161020a575b159081610201575b506101f25767ffffffffffffffff1981166001176000805160206106cc833981519152556101659190836101c5575b5061015d61067d565b6100a361067d565b600182556101705780f35b60ff60401b196000805160206106cc83398151915254166000805160206106cc833981519152557fc7f505b2f371ae2175ee4913f4499e1f2633a7b5936321eed1cdaeb6115181d2602060405160018152a180f35b68ffffffffffffffffff191668010000000000000001176000805160206106cc8339815191525538610154565b63f92ee8a960e01b8452600484fd5b90501538610125565b303b15915061011d565b849150610113565b50806003193601126100ab57808060018060a01b036000805160206106ac83398151915254166040513683823780368101848152039134905af161025e610528565b50156102675780f35b60405162461bcd60e51b815260206004820152600b60248201526a10d85b1b0819985a5b195960aa1b6044820152606490fd5b50346100ab57806003193601126100ab576000805160206106ac833981519152546040516001600160a01b039091168152602090f35b50346100ab57806003193601126100ab57805490600a820291808304600a149015171561030257602082604051908152f35b634e487b7160e01b81526011600452602490fd5b50346100ab57806003193601126100ab5761032f610647565b6000805160206106ac83398151915280546001600160a01b031981169091556000906001600160a01b03167f8be0079c531659141344cd1fd0a4f28419497f9722a3daafe3b4186f6b6457e08280a380f35b5060603660031901126100ab5761039661050d565b60443567ffffffffffffffff811161050957366023820112156105095780600401359267ffffffffffffffff84116100ab57602482019160248536920101116100ab576103e1610647565b805490846020116100ab57508135036104d4577f4aacc1769103d0575734a31601a30d8f74c7843414f868342af438b4fdc4d78e91839160609134156104ad576104496000806040518786823780888101838152039034865af1610443610528565b50610590565b6040519384926024358452604060208501528160408501528484013760008287018401526001600160a01b031694601f01601f19168101030190a26000546001810180911161049757600055005b634e487b7160e01b600052601160045260246000fd5b6104cf6000806040518786823780888101838152039082865af1610443610528565b610449565b60405162461bcd60e51b815260206004820152600d60248201526c496e76616c6964206e6f6e636560981b6044820152606490fd5b8280fd5b600435906001600160a01b038216820361052357565b600080fd5b3d1561058b573d9067ffffffffffffffff82116105755760405191601f8101601f19908116603f0116830167ffffffffffffffff8111848210176105755760405282523d6000602084013e565b634e487b7160e01b600052604160045260246000fd5b606090565b1561059757565b60405162461bcd60e51b8152602060048201526012602482015271151c985b9cd858dd1a5bdb8819985a5b195960721b6044820152606490fd5b6001600160a01b03168015610631576000805160206106ac83398151915280546001600160a01b0319811683179091556001600160a01b03167f8be0079c531659141344cd1fd0a4f28419497f9722a3daafe3b4186f6b6457e0600080a3565b631e4fbdf760e01b600052600060045260246000fd5b6000805160206106ac833981519152546001600160a01b0316330361066857565b63118cdaa760e01b6000523360045260246000fd5b60ff6000805160206106cc8339815191525460401c161561069a57565b631afcd79f60e31b60005260046000fdfe9016d09d72d40fdae2fd8ceac6b6234c7706214fd39c1cd1e609a0528c199300f0c57e16840df040f15088dc2f81fe391c3923bec73e23a9662efc9c229c6a00a264697066735822122091e4128b74e13a85f186ac971b59c356425cc7b968e729113a16b6a1eb56c8a864736f6c634300081c0033",
  "linkReferences": {},
  "deployedLinkReferences": {}
}