{
  "_format": "hh-sol-artifact-1",
  "contractName": "TransactionFeesManager",
  "sourceName": "contracts/fees/TransactionFeesManager.sol",
  "abi": [
    {
      "inputs": [],
      "name": "ArrayLengthMismatch",
      "type": "error"
    },
    {
      "inputs": [],
      "name": "InvalidInitialization",
      "type": "error"
    },
    {
      "inputs": [],
      "name": "NotInitializing",
      "type": "error"
    },
    {
      "inputs": [
        {
          "internalType": "address",
          "name": "owner",
          "type": "address"
        }
      ],
      "name": "OwnableInvalidOwner",
      "type": "error"
    },
    {
      "inputs": [
        {
          "internalType": "address",
          "name": "account",
          "type": "address"
        }
      ],
      "name": "OwnableUnauthorizedAccount",
      "type": "error"
    },
    {
      "inputs": [],
      "name": "ReentrancyGuardReentrantCall",
      "type": "error"
    },
    {
      "inputs": [],
      "name": "Unauthorized",
      "type": "error"
    },
    {
      "anonymous": false,
      "inputs": [
        {
          "indexed": true,
          "internalType": "bytes32",
          "name": "txId",
          "type": "bytes32"
        },
        {
          "indexed": false,
          "internalType": "uint256",
          "name": "validatorCount",
          "type": "uint256"
        },
        {
          "indexed": false,
          "internalType": "uint256",
          "name": "totalFees",
          "type": "uint256"
        },
        {
          "indexed": false,
          "internalType": "uint256",
          "name": "epoch",
          "type": "uint256"
        }
      ],
      "name": "BatchFeesRecorded",
      "type": "event"
    },
    {
      "anonymous": false,
      "inputs": [
        {
          "indexed": false,
          "internalType": "uint64",
          "name": "version",
          "type": "uint64"
        }
      ],
      "name": "Initialized",
      "type": "event"
    },
    {
      "anonymous": false,
      "inputs": [
        {
          "indexed": true,
          "internalType": "address",
          "name": "previousOwner",
          "type": "address"
        },
        {
          "indexed": true,
          "internalType": "address",
          "name": "newOwner",
          "type": "address"
        }
      ],
      "name": "OwnershipTransferStarted",
      "type": "event"
    },
    {
      "anonymous": false,
      "inputs": [
        {
          "indexed": true,
          "internalType": "address",
          "name": "previousOwner",
          "type": "address"
        },
        {
          "indexed": true,
          "internalType": "address",
          "name": "newOwner",
          "type": "address"
        }
      ],
      "name": "OwnershipTransferred",
      "type": "event"
    },
    {
      "anonymous": false,
      "inputs": [
        {
          "indexed": true,
          "internalType": "bytes32",
          "name": "txId",
          "type": "bytes32"
        },
        {
          "indexed": false,
          "internalType": "uint256",
          "name": "totalFees",
          "type": "uint256"
        },
        {
          "indexed": false,
          "internalType": "uint256",
          "name": "totalPenalties",
          "type": "uint256"
        },
        {
          "indexed": false,
          "internalType": "uint256",
          "name": "validatorCount",
          "type": "uint256"
        },
        {
          "indexed": false,
          "internalType": "uint256",
          "name": "epoch",
          "type": "uint256"
        }
      ],
      "name": "TransactionFeesFinalized",
      "type": "event"
    },
    {
      "anonymous": false,
      "inputs": [
        {
          "indexed": true,
          "internalType": "bytes32",
          "name": "txId",
          "type": "bytes32"
        },
        {
          "indexed": true,
          "internalType": "address",
          "name": "validator",
          "type": "address"
        },
        {
          "indexed": false,
          "internalType": "uint256",
          "name": "fees",
          "type": "uint256"
        },
        {
          "indexed": false,
          "internalType": "uint256",
          "name": "epoch",
          "type": "uint256"
        }
      ],
      "name": "ValidatorFeesRecorded",
      "type": "event"
    },
    {
      "anonymous": false,
      "inputs": [
        {
          "indexed": true,
          "internalType": "bytes32",
          "name": "txId",
          "type": "bytes32"
        },
        {
          "indexed": true,
          "internalType": "address",
          "name": "validator",
          "type": "address"
        },
        {
          "indexed": false,
          "internalType": "uint256",
          "name": "penalties",
          "type": "uint256"
        },
        {
          "indexed": false,
          "internalType": "uint256",
          "name": "epoch",
          "type": "uint256"
        }
      ],
      "name": "ValidatorPenaltiesRecorded",
      "type": "event"
    },
    {
      "inputs": [],
      "name": "acceptOwnership",
      "outputs": [],
      "stateMutability": "nonpayable",
      "type": "function"
    },
    {
      "inputs": [
        {
          "internalType": "address",
          "name": "",
          "type": "address"
        }
      ],
      "name": "authorizedCallers",
      "outputs": [
        {
          "internalType": "bool",
          "name": "",
          "type": "bool"
        }
      ],
      "stateMutability": "view",
      "type": "function"
    },
    {
      "inputs": [
        {
          "internalType": "bytes32",
          "name": "txId",
          "type": "bytes32"
        },
        {
          "internalType": "address[]",
          "name": "validators",
          "type": "address[]"
        },
        {
          "internalType": "uint256[]",
          "name": "fees",
          "type": "uint256[]"
        },
        {
          "internalType": "uint256[]",
          "name": "penalties",
          "type": "uint256[]"
        },
        {
          "internalType": "uint256",
          "name": "totalFees",
          "type": "uint256"
        },
        {
          "internalType": "uint256",
          "name": "totalPenalties",
          "type": "uint256"
        },
        {
          "internalType": "uint256",
          "name": "epoch",
          "type": "uint256"
        }
      ],
      "name": "batchRecordFeesAndFinalize",
      "outputs": [],
      "stateMutability": "nonpayable",
      "type": "function"
    },
    {
      "inputs": [
        {
          "internalType": "uint256",
          "name": "epoch",
          "type": "uint256"
        }
      ],
      "name": "getEpochValidators",
      "outputs": [
        {
          "internalType": "address[]",
          "name": "",
          "type": "address[]"
        }
      ],
      "stateMutability": "view",
      "type": "function"
    },
    {
      "inputs": [
        {
          "internalType": "bytes32",
          "name": "txId",
          "type": "bytes32"
        }
      ],
      "name": "getTransactionFees",
      "outputs": [
        {
          "components": [
            {
              "internalType": "uint256",
              "name": "totalFees",
              "type": "uint256"
            },
            {
              "internalType": "uint256",
              "name": "totalPenalties",
              "type": "uint256"
            },
            {
              "internalType": "uint256",
              "name": "epoch",
              "type": "uint256"
            },
            {
              "internalType": "uint256",
              "name": "validatorCount",
              "type": "uint256"
            },
            {
              "internalType": "bool",
              "name": "finalized",
              "type": "bool"
            }
          ],
          "internalType": "struct ITransactionFeesManager.TransactionFeeSummary",
          "name": "",
          "type": "tuple"
        }
      ],
      "stateMutability": "view",
      "type": "function"
    },
    {
      "inputs": [
        {
          "internalType": "bytes32",
          "name": "txId",
          "type": "bytes32"
        }
      ],
      "name": "getTransactionPenalties",
      "outputs": [
        {
          "internalType": "uint256",
          "name": "",
          "type": "uint256"
        }
      ],
      "stateMutability": "view",
      "type": "function"
    },
    {
      "inputs": [
        {
          "internalType": "bytes32",
          "name": "txId",
          "type": "bytes32"
        }
      ],
      "name": "getTransactionValidatorDetails",
      "outputs": [
        {
          "internalType": "address[]",
          "name": "validators",
          "type": "address[]"
        },
        {
          "internalType": "uint256[]",
          "name": "fees",
          "type": "uint256[]"
        },
        {
          "internalType": "uint256[]",
          "name": "penalties",
          "type": "uint256[]"
        }
      ],
      "stateMutability": "view",
      "type": "function"
    },
    {
      "inputs": [
        {
          "internalType": "bytes32",
          "name": "txId",
          "type": "bytes32"
        }
      ],
      "name": "getTransactionValidators",
      "outputs": [
        {
          "internalType": "address[]",
          "name": "",
          "type": "address[]"
        }
      ],
      "stateMutability": "view",
      "type": "function"
    },
    {
      "inputs": [
        {
          "internalType": "address",
          "name": "validator",
          "type": "address"
        },
        {
          "internalType": "uint256",
          "name": "epoch",
          "type": "uint256"
        }
      ],
      "name": "getValidatorEpochTotals",
      "outputs": [
        {
          "components": [
            {
              "internalType": "uint256",
              "name": "totalFees",
              "type": "uint256"
            },
            {
              "internalType": "uint256",
              "name": "totalPenalties",
              "type": "uint256"
            },
            {
              "internalType": "uint256",
              "name": "transactionCount",
              "type": "uint256"
            }
          ],
          "internalType": "struct ITransactionFeesManager.ValidatorEpochTotals",
          "name": "",
          "type": "tuple"
        }
      ],
      "stateMutability": "view",
      "type": "function"
    },
    {
      "inputs": [
        {
          "internalType": "bytes32",
          "name": "txId",
          "type": "bytes32"
        },
        {
          "internalType": "address",
          "name": "validator",
          "type": "address"
        }
      ],
      "name": "getValidatorFeesForTransaction",
      "outputs": [
        {
          "internalType": "uint256",
          "name": "",
          "type": "uint256"
        }
      ],
      "stateMutability": "view",
      "type": "function"
    },
    {
      "inputs": [
        {
          "internalType": "address",
          "name": "validator",
          "type": "address"
        },
        {
          "internalType": "uint256",
          "name": "epoch",
          "type": "uint256"
        }
      ],
      "name": "getValidatorFeesPerEpoch",
      "outputs": [
        {
          "internalType": "uint256",
          "name": "",
          "type": "uint256"
        }
      ],
      "stateMutability": "view",
      "type": "function"
    },
    {
      "inputs": [
        {
          "internalType": "address",
          "name": "validator",
          "type": "address"
        },
        {
          "internalType": "uint256",
          "name": "epoch",
          "type": "uint256"
        }
      ],
      "name": "getValidatorNetEarningsPerEpoch",
      "outputs": [
        {
          "internalType": "uint256",
          "name": "netEarnings",
          "type": "uint256"
        },
        {
          "internalType": "bool",
          "name": "isPositive",
          "type": "bool"
        }
      ],
      "stateMutability": "view",
      "type": "function"
    },
    {
      "inputs": [
        {
          "internalType": "bytes32",
          "name": "txId",
          "type": "bytes32"
        },
        {
          "internalType": "address",
          "name": "validator",
          "type": "address"
        }
      ],
      "name": "getValidatorPenaltiesForTransaction",
      "outputs": [
        {
          "internalType": "uint256",
          "name": "",
          "type": "uint256"
        }
      ],
      "stateMutability": "view",
      "type": "function"
    },
    {
      "inputs": [
        {
          "internalType": "address",
          "name": "validator",
          "type": "address"
        },
        {
          "internalType": "uint256",
          "name": "epoch",
          "type": "uint256"
        }
      ],
      "name": "getValidatorPenaltiesPerEpoch",
      "outputs": [
        {
          "internalType": "uint256",
          "name": "",
          "type": "uint256"
        }
      ],
      "stateMutability": "view",
      "type": "function"
    },
    {
      "inputs": [],
      "name": "initialize",
      "outputs": [],
      "stateMutability": "nonpayable",
      "type": "function"
    },
    {
      "inputs": [],
      "name": "owner",
      "outputs": [
        {
          "internalType": "address",
          "name": "",
          "type": "address"
        }
      ],
      "stateMutability": "view",
      "type": "function"
    },
    {
      "inputs": [],
      "name": "pendingOwner",
      "outputs": [
        {
          "internalType": "address",
          "name": "",
          "type": "address"
        }
      ],
      "stateMutability": "view",
      "type": "function"
    },
    {
      "inputs": [
        {
          "internalType": "bytes32",
          "name": "txId",
          "type": "bytes32"
        },
        {
          "internalType": "address",
          "name": "validator",
          "type": "address"
        },
        {
          "internalType": "uint256",
          "name": "fees",
          "type": "uint256"
        },
        {
          "internalType": "uint256",
          "name": "epoch",
          "type": "uint256"
        }
      ],
      "name": "recordValidatorFees",
      "outputs": [],
      "stateMutability": "nonpayable",
      "type": "function"
    },
    {
      "inputs": [
        {
          "internalType": "bytes32",
          "name": "txId",
          "type": "bytes32"
        },
        {
          "internalType": "address",
          "name": "validator",
          "type": "address"
        },
        {
          "internalType": "uint256",
          "name": "penalties",
          "type": "uint256"
        },
        {
          "internalType": "uint256",
          "name": "epoch",
          "type": "uint256"
        }
      ],
      "name": "recordValidatorPenalties",
      "outputs": [],
      "stateMutability": "nonpayable",
      "type": "function"
    },
    {
      "inputs": [],
      "name": "renounceOwnership",
      "outputs": [],
      "stateMutability": "nonpayable",
      "type": "function"
    },
    {
      "inputs": [
        {
          "internalType": "address",
          "name": "caller",
          "type": "address"
        },
        {
          "internalType": "bool",
          "name": "authorized",
          "type": "bool"
        }
      ],
      "name": "setAuthorizedCaller",
      "outputs": [],
      "stateMutability": "nonpayable",
      "type": "function"
    },
    {
      "inputs": [
        {
          "internalType": "bytes32",
          "name": "txId",
          "type": "bytes32"
        }
      ],
      "name": "transactionSummary",
      "outputs": [
        {
          "internalType": "uint256",
          "name": "totalFees",
          "type": "uint256"
        },
        {
          "internalType": "uint256",
          "name": "totalPenalties",
          "type": "uint256"
        },
        {
          "internalType": "uint256",
          "name": "epoch",
          "type": "uint256"
        },
        {
          "internalType": "uint256",
          "name": "validatorCount",
          "type": "uint256"
        },
        {
          "internalType": "bool",
          "name": "finalized",
          "type": "bool"
        }
      ],
      "stateMutability": "view",
      "type": "function"
    },
    {
      "inputs": [
        {
          "internalType": "address",
          "name": "newOwner",
          "type": "address"
        }
      ],
      "name": "transferOwnership",
      "outputs": [],
      "stateMutability": "nonpayable",
      "type": "function"
    },
    {
      "inputs": [
        {
          "internalType": "address",
          "name": "",
          "type": "address"
        },
        {
          "internalType": "uint256",
          "name": "epoch",
          "type": "uint256"
        }
      ],
      "name": "validatorEpochTotals",
      "outputs": [
        {
          "internalType": "uint256",
          "name": "totalFees",
          "type": "uint256"
        },
        {
          "internalType": "uint256",
          "name": "totalPenalties",
          "type": "uint256"
        },
        {
          "internalType": "uint256",
          "name": "transactionCount",
          "type": "uint256"
        }
      ],
      "stateMutability": "view",
      "type": "function"
    },
    {
      "inputs": [
        {
          "internalType": "bytes32",
          "name": "txId",
          "type": "bytes32"
        },
        {
          "internalType": "address",
          "name": "",
          "type": "address"
        }
      ],
      "name": "validatorTransactionRecords",
      "outputs": [
        {
          "internalType": "uint256",
          "name": "fees",
          "type": "uint256"
        },
        {
          "internalType": "uint256",
          "name": "penalties",
          "type": "uint256"
        },
        {
          "internalType": "bool",
          "name": "recorded",
          "type": "bool"
        }
      ],
      "stateMutability": "view",
      "type": "function"
    }
  ],
  "bytecode": "0x6080806040523460155761152c908161001b8239f35b600080fdfe6080604052600436101561001257600080fd5b60003560e01c806312b2419414610eab578063182a7ec714610e0c5780632a362ae914610daa5780632dcf385014610d41578063424476cb14610d12578063454bbd2914610cbc578063536fff6c14610c7d57806361b537e314610be7578063714d782d14610b75578063715018a614610af457806372eba21114610aac57806377c01bfc14610a6157806379ba509714610a0f5780638129fc1c146108835780638da5cb5b1461084d57806394c2563a146107eb578063b79ae7b214610765578063b98aff1c1461053c578063cd771bd314610488578063e30c397814610452578063e56389b5146103b7578063eff3c13a1461036c578063f2fde38b146102e5578063f91cd46f146101915763f9d442551461012f57600080fd5b3461018c57602036600319011261018c57600435600052600060205260a06040600020805490600181015490600281015460ff60046003840154930154169260405194855260208501526040840152606083015215156080820152f35b600080fd5b3461018c57602036600319011261018c5760043580600052600160205260406000206040518082602082945493848152019060005260206000209260005b8181106102c35750506101e49250038261103a565b8051916101f0836110cf565b926101fa816110cf565b9160005b8281106102455761022585610241866102338a604051958695606087526060870190610f4d565b908582036020870152610fba565b908382036040850152610fba565b0390f35b600190826000526002602052604080600020838060a01b03610267848a611101565b511690600091858060a01b031682526020522060405161028681610fee565b815490818152604060ff600287860154956020850196875201541615159101526102b0838a611101565b52516102bc8287611101565b52016101fe565b84546001600160a01b03168352600194850194869450602090930192016101cf565b3461018c57602036600319011261018c576102fe610f09565b6103066111ca565b6000805160206114d783398151915280546001600160a01b0319166001600160a01b03928316908117909155600080516020611477833981519152549091167f38d16b8cac22d99fc7c124b9cd0de2d3fa1faef420bfe791d8c362d765e22700600080a3005b3461018c57604036600319011261018c576001600160a01b0361038d610f09565b16600052600360205260406000206024356000526020526020600160406000200154604051908152f35b3461018c576103c536610f1f565b9291909233600052600760205260ff6040600020541615610442577fccd3737e4138282fee819b7c86632ed1b37bf79ebd0b24e0657c8bbfc1b699b29160409161040d611115565b61041981878488611259565b825195865260208601526001600160a01b031693a3600160008051602061149783398151915255005b6282b42960e81b60005260046000fd5b3461018c57600036600319011261018c576000805160206114d7833981519152546040516001600160a01b039091168152602090f35b3461018c57602036600319011261018c57600060806040516104a98161101f565b8281528260208201528260408201528260608201520152600435600052600060205260a060406000206040516104de8161101f565b81549182825260018101546020830190815260028201549060408401918252608060ff600460038601549560608801968752015416940193151584526040519485525160208501525160408401525160608301525115156080820152f35b3461018c5760e036600319011261018c576004356024356001600160401b03811161018c5761056f903690600401610f8a565b6044356001600160401b03811161018c5761058e903690600401610f8a565b6064929192356001600160401b03811161018c576105b0903690600401610f8a565b9190946084359560a4359360c4359633600052600760205260ff6040600020541615610442576105de611115565b84871480159061075b575b61074a5760005b8a8882106106d2577f4cb7a58b3fd51bbe6ce8f4d46e1303e87dcfeac1d01c66ca081f7aac5d90d82e60808c8c8c8c866000526000602052867f2e25a888f50919468e9459534b305465b19655eaabaa2379e1563a7e212a27d28560406000209481865584600187015586600287015583600052600160205260046040600020549687600382015501600160ff198254161790556106a587604051938493846040919493926060820195825260208201520152565b0390a2604051938452602084015260408301526060820152a2600160008051602061149783398151915255005b906106ff8a6001936106ed6106e8858e8c61107e565b6110a4565b6106f8858c8961107e565b359161115e565b888a8d8361070e81898b61107e565b3561071e575b50505050016105f0565b6106e861072f91610741958c61107e565b61073a85898b61107e565b3591611259565b888a8d83610714565b63512509d360e11b60005260046000fd5b50818714156105e9565b3461018c57602036600319011261018c576004356000526001602052604060002060405190816020825491828152019160005260206000209060005b8181106107cc57610241856107b88187038261103a565b604051918291602083526020830190610f4d565b82546001600160a01b03168452602090930192600192830192016107a1565b3461018c57604036600319011261018c5760606040610808610ef3565b60043560005260026020528160002060009160018060a01b031682526020522080549060ff600260018301549201541690604051928352602083015215156040820152f35b3461018c57600036600319011261018c57600080516020611477833981519152546040516001600160a01b039091168152602090f35b3461018c57600036600319011261018c576000805160206114b78339815191525460ff8160401c1615906001600160401b03811680159081610a07575b60011490816109fd575b1590816109f4575b506109e35767ffffffffffffffff1981166001176000805160206114b783398151915255816109b6575b50610905611448565b61090d611448565b610915611448565b33156109a057610924336111eb565b61092c611448565b610934611448565b60016000805160206114978339815191525561094c57005b60ff60401b196000805160206114b783398151915254166000805160206114b7833981519152557fc7f505b2f371ae2175ee4913f4499e1f2633a7b5936321eed1cdaeb6115181d2602060405160018152a1005b631e4fbdf760e01b600052600060045260246000fd5b68ffffffffffffffffff191668010000000000000001176000805160206114b783398151915255816108fc565b63f92ee8a960e01b60005260046000fd5b905015836108d2565b303b1591506108ca565b8391506108c0565b3461018c57600036600319011261018c576000805160206114d783398151915254336001600160a01b0390911603610a4c57610a4a336111eb565b005b63118cdaa760e01b6000523360045260246000fd5b3461018c57604036600319011261018c57610a7a610ef3565b600435600052600260205260406000209060018060a01b03166000526020526020600160406000200154604051908152f35b3461018c57604036600319011261018c576001600160a01b03610acd610f09565b16600052600360205260406000206024356000526020526020604060002054604051908152f35b3461018c57600036600319011261018c57610b0d6111ca565b6000805160206114d783398151915280546001600160a01b0319908116909155600080516020611477833981519152805491821690556000906001600160a01b03167f8be0079c531659141344cd1fd0a4f28419497f9722a3daafe3b4186f6b6457e08280a3005b3461018c57602036600319011261018c576004356000526005602052604060002060405190816020825491828152019160005260206000209060005b818110610bc857610241856107b88187038261103a565b82546001600160a01b0316845260209093019260019283019201610bb1565b3461018c57604036600319011261018c57610c00610f09565b600060408051610c0f81610fee565b828152826020820152015260018060a01b03166000526003602052604060002060243560005260205260606040600020604051610c4b81610fee565b815491828252604060026001830154926020850193845201549201918252604051928352516020830152516040820152f35b3461018c57602036600319011261018c576001600160a01b03610c9e610f09565b166000526007602052602060ff604060002054166040519015158152f35b3461018c57604036600319011261018c57610cd5610f09565b6024359081151580920361018c57610ceb6111ca565b60018060a01b0316600052600760205260406000209060ff80198354169116179055600080f35b3461018c57602036600319011261018c5760043560005260006020526020600160406000200154604051908152f35b3461018c57604036600319011261018c576001600160a01b03610d62610f09565b16600052600360205260406000206024356000526020526040600020805461024160026001840154930154604051938493846040919493926060820195825260208201520152565b3461018c57610db836610f1f565b9291909233600052600760205260ff6040600020541615610442577fa5d03f3b7f15b573f7a018e2c074d0f29c16369bda2595be7a86cf79fbfe27d291604091610e00611115565b6104198187848861115e565b3461018c57604036600319011261018c57604080610e28610f09565b6001600160a01b03166000908152600360209081528282206024358352905220815190610e5482610fee565b8054808352600182015460208401818152600290930154858501529290838110610e985750610e8792505190519061105b565b60015b825191825215156020820152f35b915050610ea49161105b565b6000610e8a565b3461018c57604036600319011261018c57610ec4610ef3565b600435600052600260205260406000209060018060a01b03166000526020526020604060002054604051908152f35b602435906001600160a01b038216820361018c57565b600435906001600160a01b038216820361018c57565b608090600319011261018c57600435906024356001600160a01b038116810361018c57906044359060643590565b906020808351928381520192019060005b818110610f6b5750505090565b82516001600160a01b0316845260209384019390920191600101610f5e565b9181601f8401121561018c578235916001600160401b03831161018c576020808501948460051b01011161018c57565b906020808351928381520192019060005b818110610fd85750505090565b8251845260209384019390920191600101610fcb565b606081019081106001600160401b0382111761100957604052565b634e487b7160e01b600052604160045260246000fd5b60a081019081106001600160401b0382111761100957604052565b90601f801991011681019081106001600160401b0382111761100957604052565b9190820391821161106857565b634e487b7160e01b600052601160045260246000fd5b919081101561108e5760051b0190565b634e487b7160e01b600052603260045260246000fd5b356001600160a01b038116810361018c5790565b6001600160401b0381116110095760051b60200190565b906110d9826110b8565b6110e6604051918261103a565b82815280926110f7601f19916110b8565b0190602036910137565b805182101561108e5760209160051b010190565b6002600080516020611497833981519152541461114057600260008051602061149783398151915255565b633ee5aeb560e01b60005260046000fd5b9190820180921161106857565b92919261116c83838361130d565b6000526002602052604060002060018060a01b0382166000526020526040600020611198848254611151565b905560018060a01b031660005260036020526040600020906000526020526111c66040600020918254611151565b9055565b600080516020611477833981519152546001600160a01b03163303610a4c57565b6000805160206114d783398151915280546001600160a01b031990811690915560008051602061147783398151915280549182166001600160a01b0393841690811790915591167f8be0079c531659141344cd1fd0a4f28419497f9722a3daafe3b4186f6b6457e0600080a3565b92919261126783838361130d565b6000526002602052604060002060018060a01b0382166000526020526001604060002001611296848254611151565b905560018060a01b031660005260036020526040600020906000526020526111c66001604060002001918254611151565b805490600160401b821015611009576001820180825582101561108e576000908152602090200180546001600160a01b0319166001600160a01b03909216919091179055565b806000526004602052604060002060018060a01b03831660005260205260ff60406000205416156113ae575b50816000526006602052604060002060018060a01b03821660005260205260ff6040600020541615611369575050565b816113ac926000526006602052604060002060018060a01b0383166000526020526040600020600160ff19825416179055600052600560205260406000206112c7565b565b806000526004602052604060002060018060a01b0383166000526020526040600020600160ff198254161790558060005260016020526113f28260406000206112c7565b60009081526002602081815260408084206001600160a01b038616855282528084208301805460ff1916600117905560038252808420868552909152909120018054600019811461106857600101905538611339565b60ff6000805160206114b78339815191525460401c161561146557565b631afcd79f60e31b60005260046000fdfe9016d09d72d40fdae2fd8ceac6b6234c7706214fd39c1cd1e609a0528c1993009b779b17422d0df92223018b32b4d1fa46e071723d6817e2486d003becc55f00f0c57e16840df040f15088dc2f81fe391c3923bec73e23a9662efc9c229c6a00237e158222e3e6968b72b9db0d8043aacf074ad9f650f0d1606b4d82ee432c00a26469706673582212202957d51e2d922493cbec7bb226c88d0c31875fa154f1b5d70d45e43d8989be8464736f6c634300081c0033",
  "linkReferences": {},
  "deployedLinkReferences": {}
}