{
  "_format": "hh-sol-artifact-1",
  "contractName": "TribunalAppeal",
  "sourceName": "contracts/transactions/TribunalAppeal.sol",
  "abi": [
    {
      "inputs": [],
      "name": "AccessControlBadConfirmation",
      "type": "error"
    },
    {
      "inputs": [
        {
          "internalType": "address",
          "name": "account",
          "type": "address"
        },
        {
          "internalType": "bytes32",
          "name": "neededRole",
          "type": "bytes32"
        }
      ],
      "name": "AccessControlUnauthorizedAccount",
      "type": "error"
    },
    {
      "inputs": [],
      "name": "CallerNotGenConsensus",
      "type": "error"
    },
    {
      "inputs": [],
      "name": "CallerNotTransactions",
      "type": "error"
    },
    {
      "inputs": [],
      "name": "InvalidInitialization",
      "type": "error"
    },
    {
      "inputs": [],
      "name": "InvalidOffset",
      "type": "error"
    },
    {
      "inputs": [],
      "name": "InvalidTribunalAppealStatus",
      "type": "error"
    },
    {
      "inputs": [],
      "name": "InvalidVote",
      "type": "error"
    },
    {
      "inputs": [],
      "name": "NotInitializing",
      "type": "error"
    },
    {
      "inputs": [
        {
          "internalType": "address",
          "name": "owner",
          "type": "address"
        }
      ],
      "name": "OwnableInvalidOwner",
      "type": "error"
    },
    {
      "inputs": [
        {
          "internalType": "address",
          "name": "account",
          "type": "address"
        }
      ],
      "name": "OwnableUnauthorizedAccount",
      "type": "error"
    },
    {
      "inputs": [],
      "name": "ValidatorAlreadyCommitted",
      "type": "error"
    },
    {
      "inputs": [],
      "name": "ValidatorAlreadyRevealed",
      "type": "error"
    },
    {
      "inputs": [],
      "name": "ValidatorAlreadyVoted",
      "type": "error"
    },
    {
      "anonymous": false,
      "inputs": [
        {
          "indexed": false,
          "internalType": "uint64",
          "name": "version",
          "type": "uint64"
        }
      ],
      "name": "Initialized",
      "type": "event"
    },
    {
      "anonymous": false,
      "inputs": [
        {
          "indexed": true,
          "internalType": "address",
          "name": "previousOwner",
          "type": "address"
        },
        {
          "indexed": true,
          "internalType": "address",
          "name": "newOwner",
          "type": "address"
        }
      ],
      "name": "OwnershipTransferStarted",
      "type": "event"
    },
    {
      "anonymous": false,
      "inputs": [
        {
          "indexed": true,
          "internalType": "address",
          "name": "previousOwner",
          "type": "address"
        },
        {
          "indexed": true,
          "internalType": "address",
          "name": "newOwner",
          "type": "address"
        }
      ],
      "name": "OwnershipTransferred",
      "type": "event"
    },
    {
      "anonymous": false,
      "inputs": [
        {
          "indexed": true,
          "internalType": "bytes32",
          "name": "role",
          "type": "bytes32"
        },
        {
          "indexed": true,
          "internalType": "bytes32",
          "name": "previousAdminRole",
          "type": "bytes32"
        },
        {
          "indexed": true,
          "internalType": "bytes32",
          "name": "newAdminRole",
          "type": "bytes32"
        }
      ],
      "name": "RoleAdminChanged",
      "type": "event"
    },
    {
      "anonymous": false,
      "inputs": [
        {
          "indexed": true,
          "internalType": "bytes32",
          "name": "role",
          "type": "bytes32"
        },
        {
          "indexed": true,
          "internalType": "address",
          "name": "account",
          "type": "address"
        },
        {
          "indexed": true,
          "internalType": "address",
          "name": "sender",
          "type": "address"
        }
      ],
      "name": "RoleGranted",
      "type": "event"
    },
    {
      "anonymous": false,
      "inputs": [
        {
          "indexed": true,
          "internalType": "bytes32",
          "name": "role",
          "type": "bytes32"
        },
        {
          "indexed": true,
          "internalType": "address",
          "name": "account",
          "type": "address"
        },
        {
          "indexed": true,
          "internalType": "address",
          "name": "sender",
          "type": "address"
        }
      ],
      "name": "RoleRevoked",
      "type": "event"
    },
    {
      "anonymous": false,
      "inputs": [
        {
          "indexed": true,
          "internalType": "bytes32",
          "name": "txId",
          "type": "bytes32"
        },
        {
          "indexed": true,
          "internalType": "uint256",
          "name": "tribunalIndex",
          "type": "uint256"
        },
        {
          "indexed": true,
          "internalType": "address",
          "name": "validator",
          "type": "address"
        }
      ],
      "name": "TribunalAppealCommitting",
      "type": "event"
    },
    {
      "anonymous": false,
      "inputs": [
        {
          "indexed": true,
          "internalType": "bytes32",
          "name": "txId",
          "type": "bytes32"
        },
        {
          "indexed": true,
          "internalType": "uint256",
          "name": "tribunalIndex",
          "type": "uint256"
        },
        {
          "indexed": false,
          "internalType": "uint256",
          "name": "timestamp",
          "type": "uint256"
        }
      ],
      "name": "TribunalAppealCommittingFinalized",
      "type": "event"
    },
    {
      "anonymous": false,
      "inputs": [
        {
          "indexed": true,
          "internalType": "bytes32",
          "name": "txId",
          "type": "bytes32"
        },
        {
          "indexed": false,
          "internalType": "enum ITribunalAppeal.TribunalResultType",
          "name": "result",
          "type": "uint8"
        },
        {
          "indexed": true,
          "internalType": "uint256",
          "name": "tribunalIndex",
          "type": "uint256"
        },
        {
          "indexed": false,
          "internalType": "uint256",
          "name": "timestamp",
          "type": "uint256"
        }
      ],
      "name": "TribunalAppealFinalized",
      "type": "event"
    },
    {
      "anonymous": false,
      "inputs": [
        {
          "indexed": true,
          "internalType": "bytes32",
          "name": "txId",
          "type": "bytes32"
        },
        {
          "indexed": true,
          "internalType": "uint256",
          "name": "tribunalIndex",
          "type": "uint256"
        },
        {
          "indexed": true,
          "internalType": "address",
          "name": "validator",
          "type": "address"
        }
      ],
      "name": "TribunalAppealRevealing",
      "type": "event"
    },
    {
      "anonymous": false,
      "inputs": [
        {
          "indexed": true,
          "internalType": "bytes32",
          "name": "txId",
          "type": "bytes32"
        },
        {
          "indexed": true,
          "internalType": "address",
          "name": "leader",
          "type": "address"
        },
        {
          "indexed": true,
          "internalType": "uint256",
          "name": "tribunalIndex",
          "type": "uint256"
        }
      ],
      "name": "TribunalAppealStarted",
      "type": "event"
    },
    {
      "inputs": [],
      "name": "DEFAULT_ADMIN_ROLE",
      "outputs": [
        {
          "internalType": "bytes32",
          "name": "",
          "type": "bytes32"
        }
      ],
      "stateMutability": "view",
      "type": "function"
    },
    {
      "inputs": [],
      "name": "acceptOwnership",
      "outputs": [],
      "stateMutability": "nonpayable",
      "type": "function"
    },
    {
      "inputs": [
        {
          "internalType": "bytes32",
          "name": "_txId",
          "type": "bytes32"
        },
        {
          "internalType": "uint256",
          "name": "_index",
          "type": "uint256"
        }
      ],
      "name": "checkStatus",
      "outputs": [
        {
          "internalType": "enum ITribunalAppeal.TribunalAppealStatus",
          "name": "status",
          "type": "uint8"
        },
        {
          "internalType": "uint256",
          "name": "timeLeft",
          "type": "uint256"
        },
        {
          "internalType": "enum ITribunalAppeal.TribunalResultType",
          "name": "finalResult",
          "type": "uint8"
        }
      ],
      "stateMutability": "view",
      "type": "function"
    },
    {
      "inputs": [
        {
          "internalType": "bytes32",
          "name": "_txId",
          "type": "bytes32"
        },
        {
          "internalType": "uint256",
          "name": "_index",
          "type": "uint256"
        },
        {
          "internalType": "bytes32",
          "name": "_commitHash",
          "type": "bytes32"
        },
        {
          "internalType": "address",
          "name": "_validator",
          "type": "address"
        }
      ],
      "name": "commitVote",
      "outputs": [],
      "stateMutability": "nonpayable",
      "type": "function"
    },
    {
      "inputs": [],
      "name": "contracts",
      "outputs": [
        {
          "internalType": "address",
          "name": "genConsensus",
          "type": "address"
        },
        {
          "internalType": "address",
          "name": "transactions",
          "type": "address"
        },
        {
          "internalType": "contract IGenLayerStaking",
          "name": "staking",
          "type": "address"
        },
        {
          "internalType": "contract IFeeManager",
          "name": "feemanager",
          "type": "address"
        },
        {
          "internalType": "contract Voting",
          "name": "voting",
          "type": "address"
        }
      ],
      "stateMutability": "view",
      "type": "function"
    },
    {
      "inputs": [
        {
          "internalType": "uint256",
          "name": "_epoch",
          "type": "uint256"
        },
        {
          "internalType": "uint256",
          "name": "_offset",
          "type": "uint256"
        },
        {
          "internalType": "uint256",
          "name": "_pageSize",
          "type": "uint256"
        }
      ],
      "name": "getPendingTribunals",
      "outputs": [
        {
          "internalType": "bytes32[]",
          "name": "",
          "type": "bytes32[]"
        }
      ],
      "stateMutability": "view",
      "type": "function"
    },
    {
      "inputs": [
        {
          "internalType": "uint256",
          "name": "_epoch",
          "type": "uint256"
        }
      ],
      "name": "getPendingTribunals",
      "outputs": [
        {
          "internalType": "bytes32[]",
          "name": "",
          "type": "bytes32[]"
        }
      ],
      "stateMutability": "view",
      "type": "function"
    },
    {
      "inputs": [
        {
          "internalType": "bytes32",
          "name": "role",
          "type": "bytes32"
        }
      ],
      "name": "getRoleAdmin",
      "outputs": [
        {
          "internalType": "bytes32",
          "name": "",
          "type": "bytes32"
        }
      ],
      "stateMutability": "view",
      "type": "function"
    },
    {
      "inputs": [
        {
          "internalType": "bytes32",
          "name": "_txId",
          "type": "bytes32"
        },
        {
          "internalType": "uint256",
          "name": "_index",
          "type": "uint256"
        }
      ],
      "name": "getTribunal",
      "outputs": [
        {
          "components": [
            {
              "internalType": "bytes32",
              "name": "txId",
              "type": "bytes32"
            },
            {
              "internalType": "uint256",
              "name": "index",
              "type": "uint256"
            },
            {
              "internalType": "uint256",
              "name": "txEpoch",
              "type": "uint256"
            },
            {
              "internalType": "enum ITribunalAppeal.TribunalAppealStatus",
              "name": "status",
              "type": "uint8"
            },
            {
              "components": [
                {
                  "internalType": "uint256",
                  "name": "created",
                  "type": "uint256"
                },
                {
                  "internalType": "uint256",
                  "name": "committed",
                  "type": "uint256"
                },
                {
                  "internalType": "uint256",
                  "name": "revealed",
                  "type": "uint256"
                }
              ],
              "internalType": "struct ITribunalAppeal.TribunalTimestamps",
              "name": "timestamps",
              "type": "tuple"
            },
            {
              "internalType": "address",
              "name": "leader",
              "type": "address"
            },
            {
              "internalType": "bytes32",
              "name": "leaderResultHash",
              "type": "bytes32"
            },
            {
              "internalType": "uint256",
              "name": "finalizedAtEpoch",
              "type": "uint256"
            },
            {
              "internalType": "uint256",
              "name": "round",
              "type": "uint256"
            },
            {
              "internalType": "uint256",
              "name": "votesCommitted",
              "type": "uint256"
            },
            {
              "internalType": "uint256",
              "name": "votesRevealed",
              "type": "uint256"
            },
            {
              "internalType": "enum ITribunalAppeal.TribunalResultType",
              "name": "finalResult",
              "type": "uint8"
            }
          ],
          "internalType": "struct ITribunalAppeal.Tribunal",
          "name": "",
          "type": "tuple"
        }
      ],
      "stateMutability": "view",
      "type": "function"
    },
    {
      "inputs": [
        {
          "internalType": "uint256",
          "name": "_epoch",
          "type": "uint256"
        }
      ],
      "name": "getTribunalsByEpoch",
      "outputs": [
        {
          "components": [
            {
              "internalType": "bytes32",
              "name": "txId",
              "type": "bytes32"
            },
            {
              "internalType": "uint256",
              "name": "index",
              "type": "uint256"
            }
          ],
          "internalType": "struct ITribunalAppeal.TribunalReference[]",
          "name": "",
          "type": "tuple[]"
        }
      ],
      "stateMutability": "view",
      "type": "function"
    },
    {
      "inputs": [
        {
          "internalType": "bytes32",
          "name": "_txId",
          "type": "bytes32"
        },
        {
          "internalType": "uint256",
          "name": "_index",
          "type": "uint256"
        },
        {
          "internalType": "address",
          "name": "_validator",
          "type": "address"
        }
      ],
      "name": "getVoteForValidator",
      "outputs": [
        {
          "internalType": "enum ITribunalAppeal.TribunalVoteType",
          "name": "",
          "type": "uint8"
        }
      ],
      "stateMutability": "view",
      "type": "function"
    },
    {
      "inputs": [
        {
          "internalType": "bytes32",
          "name": "role",
          "type": "bytes32"
        },
        {
          "internalType": "address",
          "name": "account",
          "type": "address"
        }
      ],
      "name": "grantRole",
      "outputs": [],
      "stateMutability": "nonpayable",
      "type": "function"
    },
    {
      "inputs": [
        {
          "internalType": "uint256",
          "name": "_epoch",
          "type": "uint256"
        }
      ],
      "name": "hasPendingTribunals",
      "outputs": [
        {
          "internalType": "bool",
          "name": "",
          "type": "bool"
        }
      ],
      "stateMutability": "view",
      "type": "function"
    },
    {
      "inputs": [
        {
          "internalType": "bytes32",
          "name": "role",
          "type": "bytes32"
        },
        {
          "internalType": "address",
          "name": "account",
          "type": "address"
        }
      ],
      "name": "hasRole",
      "outputs": [
        {
          "internalType": "bool",
          "name": "",
          "type": "bool"
        }
      ],
      "stateMutability": "view",
      "type": "function"
    },
    {
      "inputs": [
        {
          "internalType": "address",
          "name": "_genConsensus",
          "type": "address"
        },
        {
          "internalType": "address",
          "name": "_transactions",
          "type": "address"
        },
        {
          "internalType": "uint256",
          "name": "_voteWindow",
          "type": "uint256"
        }
      ],
      "name": "initialize",
      "outputs": [],
      "stateMutability": "nonpayable",
      "type": "function"
    },
    {
      "inputs": [],
      "name": "owner",
      "outputs": [
        {
          "internalType": "address",
          "name": "",
          "type": "address"
        }
      ],
      "stateMutability": "view",
      "type": "function"
    },
    {
      "inputs": [],
      "name": "pendingOwner",
      "outputs": [
        {
          "internalType": "address",
          "name": "",
          "type": "address"
        }
      ],
      "stateMutability": "view",
      "type": "function"
    },
    {
      "inputs": [
        {
          "internalType": "bytes32",
          "name": "_txId",
          "type": "bytes32"
        },
        {
          "internalType": "uint256",
          "name": "_txEpoch",
          "type": "uint256"
        },
        {
          "internalType": "address",
          "name": "_leader",
          "type": "address"
        },
        {
          "internalType": "uint256",
          "name": "_round",
          "type": "uint256"
        },
        {
          "internalType": "bytes32",
          "name": "_leaderResultHash",
          "type": "bytes32"
        }
      ],
      "name": "prepareTribunalAppeal",
      "outputs": [
        {
          "internalType": "uint256",
          "name": "index",
          "type": "uint256"
        }
      ],
      "stateMutability": "nonpayable",
      "type": "function"
    },
    {
      "inputs": [
        {
          "internalType": "bytes32",
          "name": "_txId",
          "type": "bytes32"
        },
        {
          "internalType": "uint256",
          "name": "_index",
          "type": "uint256"
        }
      ],
      "name": "processStatus",
      "outputs": [
        {
          "internalType": "enum ITribunalAppeal.TribunalAppealStatus",
          "name": "status",
          "type": "uint8"
        },
        {
          "internalType": "uint256",
          "name": "timeLeft",
          "type": "uint256"
        },
        {
          "internalType": "enum ITribunalAppeal.TribunalResultType",
          "name": "finalResult",
          "type": "uint8"
        }
      ],
      "stateMutability": "nonpayable",
      "type": "function"
    },
    {
      "inputs": [],
      "name": "renounceOwnership",
      "outputs": [],
      "stateMutability": "nonpayable",
      "type": "function"
    },
    {
      "inputs": [
        {
          "internalType": "bytes32",
          "name": "role",
          "type": "bytes32"
        },
        {
          "internalType": "address",
          "name": "callerConfirmation",
          "type": "address"
        }
      ],
      "name": "renounceRole",
      "outputs": [],
      "stateMutability": "nonpayable",
      "type": "function"
    },
    {
      "inputs": [
        {
          "internalType": "bytes32",
          "name": "_txId",
          "type": "bytes32"
        },
        {
          "internalType": "uint256",
          "name": "_index",
          "type": "uint256"
        },
        {
          "internalType": "bytes32",
          "name": "_voteHash",
          "type": "bytes32"
        },
        {
          "internalType": "enum ITransactions.VoteType",
          "name": "_voteType",
          "type": "uint8"
        },
        {
          "internalType": "bytes32",
          "name": "_otherExecutionFieldsHash",
          "type": "bytes32"
        },
        {
          "internalType": "uint256",
          "name": "_nonce",
          "type": "uint256"
        },
        {
          "internalType": "address",
          "name": "_validator",
          "type": "address"
        }
      ],
      "name": "revealVote",
      "outputs": [],
      "stateMutability": "nonpayable",
      "type": "function"
    },
    {
      "inputs": [
        {
          "internalType": "bytes32",
          "name": "role",
          "type": "bytes32"
        },
        {
          "internalType": "address",
          "name": "account",
          "type": "address"
        }
      ],
      "name": "revokeRole",
      "outputs": [],
      "stateMutability": "nonpayable",
      "type": "function"
    },
    {
      "inputs": [
        {
          "internalType": "address",
          "name": "_genConsensus",
          "type": "address"
        },
        {
          "internalType": "address",
          "name": "_transactions",
          "type": "address"
        },
        {
          "internalType": "address",
          "name": "_staking",
          "type": "address"
        },
        {
          "internalType": "address",
          "name": "_feemanager",
          "type": "address"
        },
        {
          "internalType": "address",
          "name": "_voting",
          "type": "address"
        }
      ],
      "name": "setExternalContracts",
      "outputs": [],
      "stateMutability": "nonpayable",
      "type": "function"
    },
    {
      "inputs": [
        {
          "internalType": "bytes32",
          "name": "_txId",
          "type": "bytes32"
        },
        {
          "internalType": "address",
          "name": "_validator",
          "type": "address"
        },
        {
          "internalType": "bytes32",
          "name": "_leaderResultHash",
          "type": "bytes32"
        },
        {
          "internalType": "bytes32",
          "name": "_validatorResultHash",
          "type": "bytes32"
        }
      ],
      "name": "setVoteForValidator",
      "outputs": [],
      "stateMutability": "nonpayable",
      "type": "function"
    },
    {
      "inputs": [
        {
          "internalType": "bytes4",
          "name": "interfaceId",
          "type": "bytes4"
        }
      ],
      "name": "supportsInterface",
      "outputs": [
        {
          "internalType": "bool",
          "name": "",
          "type": "bool"
        }
      ],
      "stateMutability": "view",
      "type": "function"
    },
    {
      "inputs": [
        {
          "internalType": "address",
          "name": "newOwner",
          "type": "address"
        }
      ],
      "name": "transferOwnership",
      "outputs": [],
      "stateMutability": "nonpayable",
      "type": "function"
    },
    {
      "inputs": [
        {
          "internalType": "bytes32",
          "name": "txId",
          "type": "bytes32"
        }
      ],
      "name": "tribunalCount",
      "outputs": [
        {
          "internalType": "uint256",
          "name": "count",
          "type": "uint256"
        }
      ],
      "stateMutability": "view",
      "type": "function"
    },
    {
      "inputs": [
        {
          "internalType": "bytes32",
          "name": "txId",
          "type": "bytes32"
        },
        {
          "internalType": "uint256",
          "name": "index",
          "type": "uint256"
        }
      ],
      "name": "tribunals",
      "outputs": [
        {
          "internalType": "bytes32",
          "name": "txId",
          "type": "bytes32"
        },
        {
          "internalType": "uint256",
          "name": "index",
          "type": "uint256"
        },
        {
          "internalType": "uint256",
          "name": "txEpoch",
          "type": "uint256"
        },
        {
          "internalType": "enum ITribunalAppeal.TribunalAppealStatus",
          "name": "status",
          "type": "uint8"
        },
        {
          "components": [
            {
              "internalType": "uint256",
              "name": "created",
              "type": "uint256"
            },
            {
              "internalType": "uint256",
              "name": "committed",
              "type": "uint256"
            },
            {
              "internalType": "uint256",
              "name": "revealed",
              "type": "uint256"
            }
          ],
          "internalType": "struct ITribunalAppeal.TribunalTimestamps",
          "name": "timestamps",
          "type": "tuple"
        },
        {
          "internalType": "address",
          "name": "leader",
          "type": "address"
        },
        {
          "internalType": "bytes32",
          "name": "leaderResultHash",
          "type": "bytes32"
        },
        {
          "internalType": "uint256",
          "name": "finalizedAtEpoch",
          "type": "uint256"
        },
        {
          "internalType": "uint256",
          "name": "round",
          "type": "uint256"
        },
        {
          "internalType": "uint256",
          "name": "votesCommitted",
          "type": "uint256"
        },
        {
          "internalType": "uint256",
          "name": "votesRevealed",
          "type": "uint256"
        },
        {
          "internalType": "enum ITribunalAppeal.TribunalResultType",
          "name": "finalResult",
          "type": "uint8"
        }
      ],
      "stateMutability": "view",
      "type": "function"
    },
    {
      "inputs": [
        {
          "internalType": "uint256",
          "name": "epoch",
          "type": "uint256"
        },
        {
          "internalType": "uint256",
          "name": "",
          "type": "uint256"
        }
      ],
      "name": "tribunalsPerEpoch",
      "outputs": [
        {
          "internalType": "bytes32",
          "name": "txId",
          "type": "bytes32"
        },
        {
          "internalType": "uint256",
          "name": "index",
          "type": "uint256"
        }
      ],
      "stateMutability": "view",
      "type": "function"
    },
    {
      "inputs": [
        {
          "internalType": "bytes32",
          "name": "txId",
          "type": "bytes32"
        },
        {
          "internalType": "uint256",
          "name": "index",
          "type": "uint256"
        },
        {
          "internalType": "uint256",
          "name": "",
          "type": "uint256"
        }
      ],
      "name": "voteCounts",
      "outputs": [
        {
          "internalType": "uint256",
          "name": "voteCounts",
          "type": "uint256"
        }
      ],
      "stateMutability": "view",
      "type": "function"
    },
    {
      "inputs": [],
      "name": "voteWindow",
      "outputs": [
        {
          "internalType": "uint256",
          "name": "",
          "type": "uint256"
        }
      ],
      "stateMutability": "view",
      "type": "function"
    },
    {
      "inputs": [
        {
          "internalType": "bytes32",
          "name": "txId",
          "type": "bytes32"
        },
        {
          "internalType": "uint256",
          "name": "index",
          "type": "uint256"
        },
        {
          "internalType": "address",
          "name": "validator",
          "type": "address"
        }
      ],
      "name": "votes",
      "outputs": [
        {
          "internalType": "bytes32",
          "name": "voteHash",
          "type": "bytes32"
        },
        {
          "internalType": "bytes32",
          "name": "resultHash",
          "type": "bytes32"
        },
        {
          "internalType": "enum ITribunalAppeal.TribunalVoteType",
          "name": "voteType",
          "type": "uint8"
        }
      ],
      "stateMutability": "view",
      "type": "function"
    }
  ],
  "bytecode": "0x60808060405234601557612e21908161001b8239f35b600080fdfe608080604052600436101561001357600080fd5b60003560e01c90816301ffc9a714611457575080630ebad2a1146112595780631794bb3c146110a1578063237bac3614610f82578063248a9ca314610f5c5780632f2ff15d14610f2b578063333163a814610ee957806336568abe14610ea357806351fdaa5614610e3c57806367a98ef114610d90578063695aa26b14610c8d5780636c0f79b614610c365780636d0f843614610be05780636d43074714610bc2578063715018a614610b4157806379ba509714610af1578063888e575614610a005780638900c8e31461092b5780638da5cb5b146108f557806391d148541461089b57806398c574c4146106ef5780639acc6a8a146106c75780639d0195c0146106a2578063a217fddf14610686578063baa6efcf14610639578063c8bc6543146105e3578063cac3c18e1461053b578063d547741f14610505578063daf4d0d8146104cc578063db67487b14610278578063e30c397814610242578063f2fde38b146101bb5763f8abf0841461018a57600080fd5b346101b65760203660031901126101b65760043560005260016020526020604060002054604051908152f35b600080fd5b346101b65760203660031901126101b6576101d46114d7565b6101dc611a91565b600080516020612dcc83398151915280546001600160a01b0319166001600160a01b03928316908117909155600080516020612d6c833981519152549091167f38d16b8cac22d99fc7c124b9cd0de2d3fa1faef420bfe791d8c362d765e22700600080a3005b346101b65760003660031901126101b657600080516020612dcc833981519152546040516001600160a01b039091168152602090f35b346101b65760e03660031901126101b65760043560443560643560243560058210156101b65760c435936001600160a01b03851692608435908487036101b6576005546001600160a01b031633036104bb5782600052600060205260406000208460005260205260406000209560016102f088611728565b50506102fb816114c0565b036104aa5783600052600260205260406000208560005260205260406000208660005260205260ff60026040600020015416610336816114c0565b61049a578060405160208101906bffffffffffffffffffffffff198b60601b1682526103656034820186611718565b85603582015260a435605582015260558152610382607582611602565b519020036104585783600052600260205260406000208560005260205260406000208660005260205260406000205415908115610469575b50610458576104569661042c9260019285600052600260205260406000208760005260205260406000208860005260205260406000209160405190610403602083018094611718565b602182015260218152610417604182611602565b51902092839101556008870154908585611f24565b7f2a20eb51503820997c10290f84016791d42289bf7a48cc566a59624b7ab1a750600080a46117fb565b005b636aee863360e11b60005260046000fd5b90508360005260026020526040600020856000526020526040600020866000526020526040600020541415886103ba565b62d6a91b60e01b60005260046000fd5b630df071f560e21b60005260046000fd5b63f8beed7d60e01b60005260046000fd5b346101b65760203660031901126101b6576105016104f56004356104ef816120ff565b90611c3b565b6040519182918261164b565b0390f35b346101b65760403660031901126101b6576104566004356105246114ed565b90610536610531826116c6565b6118fe565b6119f1565b346101b65760803660031901126101b6576004356105576114ed565b6006546001600160a01b031633036105d257816000526001602052604060002054159160009260001461059a5761045692506000915b6064359260443592611f24565b8083526001602052604083205460001981019081116105be5761045693509161058d565b634e487b7160e01b84526011600452602484fd5b6315c9368f60e31b60005260046000fd5b346101b6576105f136611558565b91600052600260205260406000209060005260205260406000209060018060a01b0316600052602052602060ff6002604060002001541660405190610635816114c0565b8152f35b346101b65760403660031901126101b6576024356004356000526004602052604060002080548210156101b65760409161067291611685565b506001815491015482519182526020820152f35b346101b65760003660031901126101b657602060405160008152f35b346101b65760603660031901126101b6576105016104f5604435602435600435611d92565b346101b65760203660031901126101b65760206106e5600435611b34565b6040519015158152f35b346101b65760a03660031901126101b65760243560043561070e611519565b6006549092906001600160a01b031633036105d25781600052600160205260406000205490826000526000602052604060002082600052602052600d60406000208481558360018201558260028201556003810160ff198154169055600060408051610779816115cc565b42815282602082015201524260048201556000600582015560006006820155600781019560018060a01b0316958660018060a01b0319825416179055608435600882015560006009820155606435600a8201550160ff19815416905560005260046020526040600020604051936107ef856115e7565b83855260208501918383528054600160401b8110156108855761081791600182018155611685565b61086f5760018493602097518355519101558360005260018552604060002061084081546116a1565b9055604051937f7ee2bbbd24bd23d68e7b75b100c007555b7660ebb4ddf29941968ed287123c4b600080a48152f35b634e487b7160e01b600052600060045260246000fd5b634e487b7160e01b600052604160045260246000fd5b346101b65760403660031901126101b6576108b46114ed565b600435600052600080516020612d8c83398151915260205260406000209060018060a01b0316600052602052602060ff604060002054166040519015158152f35b346101b65760003660031901126101b657600080516020612d6c833981519152546040516001600160a01b039091168152602090f35b346101b65760203660031901126101b6576004356000526004602052604060002080549061095882611701565b916109666040519384611602565b80835260208301809260005260206000206000915b8383106109d35784866040519182916020830190602084525180915260408301919060005b8181106109ae575050500390f35b82518051855260209081015181860152869550604090940193909201916001016109a0565b600260206001926040516109e6816115e7565b85548152848601548382015281520192019201919061097b565b346101b657610a0e366114aa565b9060005260006020526040600020906000526020526101c06040600020610aef815491600181015490600281015460ff600383015416610a5060048401611623565b60018060a01b03600785015416600885015490610ac1600987015493600a88015495600b8901549760ff600d600c8c01549b0154169a60206040519e8f908152015260408d0152610aa0816114c0565b60608c0152805160808c0152602081015160a08c01526040015160c08b0152565b60e08901526101008801526101208701526101408601526101608501526101808401526101a08301906114ca565bf35b346101b65760003660031901126101b657600080516020612dcc83398151915254336001600160a01b0390911603610b2c5761045633611ab2565b63118cdaa760e01b6000523360045260246000fd5b346101b65760003660031901126101b657610b5a611a91565b600080516020612dcc83398151915280546001600160a01b0319908116909155600080516020612d6c833981519152805491821690556000906001600160a01b03167f8be0079c531659141344cd1fd0a4f28419497f9722a3daafe3b4186f6b6457e08280a3005b346101b65760003660031901126101b6576020600a54604051908152f35b346101b65760603660031901126101b65760443560043560005260036020526040600020602435600052602052604060002080548210156101b657602091610c2791611582565b90549060031b1c604051908152f35b346101b65760003660031901126101b657600554600654600754600854600954604080516001600160a01b03968716815294861660208601529285169284019290925283166060830152909116608082015260a090f35b346101b657610c9b366114aa565b600091600052600060205260406000209060005260205260406000209060ff60038301541690610cca826114c0565b81610d2557506004820154600a54610ce281836116e7565b421015610d1557600d610d0461050193610cff60ff9442926116e7565b6116f4565b945b0154166040519384938461152f565b505061050160ff600d6000610d04565b91610d2f826114c0565b60018214610d45575b60ff600d61050192610d06565b91506005820154600a54610d5981836116e7565b421015610d8057600d610d7661050193610cff60ff9442926116e7565b9492505050610d38565b505061050160ff600d6000610d76565b346101b65760a03660031901126101b657610da96114d7565b610db16114ed565b610db9611519565b610dc1611503565b916084359360018060a01b0385168095036101b657610dde611a91565b600580546001600160a01b03199081166001600160a01b039384161790915560068054821693831693909317909255600780548316938216939093179092556008805482169390921692909217905560098054909116919091179055005b346101b65760606040610e4e36611558565b91600052600260205282600020906000526020528160002060009160018060a01b031682526020522080549060ff6002600183015492015416906040519283526020830152610e9c816114c0565b6040820152f35b346101b65760403660031901126101b657610ebc6114ed565b336001600160a01b03821603610ed857610456906004356119f1565b63334bd91960e11b60005260046000fd5b346101b657610ef7366114aa565b906000526000602052604060002090600052602052610501610f1c6040600020611728565b6040939193519384938461152f565b346101b65760403660031901126101b657610456600435610f4a6114ed565b90610f57610531826116c6565b611948565b346101b65760203660031901126101b6576020610f7a6004356116c6565b604051908152f35b346101b65760803660031901126101b657600435602435610fa1611503565b6005549092906001600160a01b031633036104bb57806000526000602052604060002082600052602052604060002091610fda83611728565b5050610fe5816114c0565b6104aa5781600052600260205260406000208160005260205260408060002060009060018060a01b0387168252602052209384546110905760ff60028601541661102e816114c0565b61107f57610456946044359055600b840161104981546116a1565b90556001600160a01b0316917fec56dde2fbbc8a2028dec4e9ceb977d9cf695ad255e3997aea63a8f412604fa9600080a46117fb565b6337138f5f60e11b60005260046000fd5b637c4b0d7760e11b60005260046000fd5b346101b65760603660031901126101b6576110ba6114d7565b6110c26114ed565b600080516020612dac833981519152549160ff8360401c1615926001600160401b03811680159081611251575b6001149081611247575b15908161123e575b5061122d5767ffffffffffffffff198116600117600080516020612dac8339815191525583611200575b506111346121ea565b61113c6121ea565b6111446121ea565b33156111ea5761115333611ab2565b61115b6121ea565b600580546001600160a01b039283166001600160a01b03199182161790915560068054939092169216919091179055604435600a5561119657005b60ff60401b19600080516020612dac8339815191525416600080516020612dac833981519152557fc7f505b2f371ae2175ee4913f4499e1f2633a7b5936321eed1cdaeb6115181d2602060405160018152a1005b631e4fbdf760e01b600052600060045260246000fd5b68ffffffffffffffffff19166801000000000000000117600080516020612dac833981519152558361112b565b63f92ee8a960e01b60005260046000fd5b90501585611101565b303b1591506110f9565b8591506110ef565b346101b657611267366114aa565b906000610160604051611279816115b0565b82815282602082015282604082015282606082015260405161129a816115cc565b83815283602082015283604082015260808201528260a08201528260c08201528260e08201528261010082015282610120820152826101408201520152600052600060205260406000209060005260205260406000206040516112fc816115b0565b81548152600182015490602081019182526002830154926040820193845260ff600382015416906060830191611331816114c0565b825261133f60048201611623565b6080840190815260018060a01b0360078301541660a08501908152600883015460c0860190815260098401549060e08701918252600a850154926101008801938452600b86015494610120890195865260ff600d600c890154986101408c01998a52015416906101608a01986004831015611441576101c09c610aef9b611403948c5260206040519e8f92518352519101525160408d0152516113e1816114c0565b60608c015251805160808c0152602081015160a08c01526040015160c08b0152565b516001600160a01b031660e08901525161010088015251610120870152516101408601525161016085015251610180840152516101a08301906114ca565b634e487b7160e01b600052602160045260246000fd5b346101b65760203660031901126101b6576004359063ffffffff60e01b82168092036101b657602091637965db0b60e01b8114908115611499575b5015158152f35b6301ffc9a760e01b14905083611492565b60409060031901126101b6576004359060243590565b6003111561144157565b9060048210156114415752565b600435906001600160a01b03821682036101b657565b602435906001600160a01b03821682036101b657565b606435906001600160a01b03821682036101b657565b604435906001600160a01b03821682036101b657565b60409061155693959492956060820196611548816114c0565b8252602082015201906114ca565b565b60609060031901126101b65760043590602435906044356001600160a01b03811681036101b65790565b805482101561159a5760005260206000200190600090565b634e487b7160e01b600052603260045260246000fd5b61018081019081106001600160401b0382111761088557604052565b606081019081106001600160401b0382111761088557604052565b604081019081106001600160401b0382111761088557604052565b90601f801991011681019081106001600160401b0382111761088557604052565b90604051611630816115cc565b60406002829480548452600181015460208501520154910152565b602060408183019282815284518094520192019060005b81811061166f5750505090565b8251845260209384019390920191600101611662565b805482101561159a5760005260206000209060011b0190600090565b60001981146116b05760010190565b634e487b7160e01b600052601160045260246000fd5b600052600080516020612d8c83398151915260205260016040600020015490565b919082018092116116b057565b919082039182116116b057565b6001600160401b0381116108855760051b60200190565b60058110156114415760f81b9052565b6000916003820160ff81541661173d816114c0565b156117bb575b600160ff825416611753816114c0565b1461176b575b600d60ff809254169301541691929190565b6005830154600a5461177d81836116e7565b42111561179e575050600d60ff80926117958661228e565b92505050611759565b60ff9295506117b5600d92610cff859342926116e7565b95611795565b6004830154600a546117cd81836116e7565b4211156117e45750506117df83612218565b611743565b6117f5929550610cff9042926116e7565b92611743565b600754604051630d2bd90960e01b815290602090829060049082906001600160a01b03165afa9081156118f2576000916118bd575b50600c82015490818111156118b65761184982826116f4565b60ff6003850154169061185b826114c0565b811590816118a7575b50156118765750505061155690612218565b600190611882816114c0565b14918261189c575b50506118935750565b6115569061228e565b10159050388061188a565b9050600b850154101538611864565b6000611849565b906020823d6020116118ea575b816118d760209383611602565b810103126118e757505138611830565b80fd5b3d91506118ca565b6040513d6000823e3d90fd5b6000818152600080516020612d8c8339815191526020908152604080832033845290915290205460ff16156119305750565b63e2517d3f60e01b6000523360045260245260446000fd5b6000818152600080516020612d8c833981519152602090815260408083206001600160a01b038616845290915290205460ff166119ea576000818152600080516020612d8c833981519152602090815260408083206001600160a01b0395909516808452949091528120805460ff19166001179055339291907f2f8788117e7eff1d82e926ec794901d17c78024a50270940304540a733656f0d9080a4600190565b5050600090565b6000818152600080516020612d8c833981519152602090815260408083206001600160a01b038616845290915290205460ff16156119ea576000818152600080516020612d8c833981519152602090815260408083206001600160a01b0395909516808452949091528120805460ff19169055339291907ff6391f5c32d9c69d2a47ea670b442974b53935d1edc7fd64eb21e047a839171b9080a4600190565b600080516020612d6c833981519152546001600160a01b03163303610b2c57565b600080516020612dcc83398151915280546001600160a01b0319908116909155600080516020612d6c83398151915280549182166001600160a01b0393841690811790915591167f8be0079c531659141344cd1fd0a4f28419497f9722a3daafe3b4186f6b6457e0600080a3565b805182101561159a5760209160051b010190565b600052600460205260406000208054611b4c81611701565b91611b5a6040519384611602565b818352602083019060005260206000206000915b838310611bdc575050505060005b81518110156119ea57611b8f8183611b20565b5151600052600060205260406000206020611baa8385611b20565b51015160005260205260ff600d604060002001541660048110156114415715611bd557600101611b7c565b5050600190565b60026020600192604051611bef816115e7565b855481528486015483820152815201920192019190611b6e565b90611c1382611701565b611c206040519182611602565b8281528092611c31601f1991611701565b0190602036910137565b60008215611d7757611c4c826120ff565b9050808311611d6f575b5060005260046020526040600020918254611c7081611701565b93611c7e6040519586611602565b818552602085019060005260206000206000915b838310611d425750505050611ca682611c09565b9260009060009260005b8251811080611d39575b15611d3157611cc98184611b20565b51805160005260006020526040600020602082015160005260205260ff600d604060002001541660048110156114415715611d08575b50600101611cb0565b60019194611d2a9151611d24611d1d896116a1565b988b611b20565b526116a1565b9390611cff565b509350505050565b50858510611cba565b60026020600192604051611d55816115e7565b855481528486015483820152815201920192019190611c92565b915038611c56565b91505060405190611d89602083611602565b80825236813790565b8215611f0757611da1816120ff565b808311611ef75780611db385856116e7565b11611ee3575b50600052600460205260406000208054611dd281611701565b91611de06040519384611602565b818352602083019060005260206000206000915b838310611eb65750505050611e0883611c09565b60009160009560005b8251811080611ead575b15611ea257611e2a8184611b20565b51805160005260006020526040600020602082015160005260205260ff600d604060002001541660048110156114415715611e69575b50600101611e11565b85611e809188600194981015611e87575b506116a1565b9490611e60565b51611e9b611e948c6116a1565b9b88611b20565b5238611e7a565b509550509250505090565b50868810611e1b565b60026020600192604051611ec9816115e7565b855481528486015483820152815201920192019190611df4565b611ef091935082906116f4565b9138611db9565b62ed0ab960e11b60005260046000fd5b505050604051611f18602082611602565b60008152600036813790565b9493929092856000526000602052604060002084600052602052604060002091146000146120f7576001915b85600052600260205260406000208460005260205260406000209060018060a01b031660005260205260026040600020019260ff845416611f90816114c0565b15611fb3575b505090919250611fa5816114c0565b60ff80198354169116179055565b8560005260036020526040600020816000526020526040600020541561203c575b600c929394956000526003602052604060002090600052602052612005836040600020612000826114c0565b611582565b61201682549160031b91821c6116a1565b8254600019831b1916911b179055018054612030906116a1565b90559082913880611f96565b6040519561204b608088611602565b6003875260208701606036823781600052600360205260406000208360005260205260406000209751906001600160401b03821161088557600160401b8211610885578854828a558083106120ce575b509760005260206000209760005b8281106120ba575050509550611fd4565b60019060208351930192818c0155016120a9565b8960005282602060002091820191015b8181106120eb575061209b565b600081556001016120de565b600291611f50565b6000526004602052604060002090815461211881611701565b926121266040519485611602565b818452602084019060005260206000206000915b8383106121bd575050505060009160005b81518110156121b95761215e8183611b20565b51516000526000602052604060002060206121798385611b20565b51015160005260205260ff600d6040600020015416600481101561144157156121a5575b60010161214b565b926121b16001916116a1565b93905061219d565b5050565b600260206001926040516121d0816115e7565b85548152848601548382015281520192019201919061213a565b60ff600080516020612dac8339815191525460401c161561220757565b631afcd79f60e31b60005260046000fd5b60038101805460ff191660011790556004810154600a5461223981836116e7565b42111561228557612249916116e7565b905b8160058201557f9506786d8e5d3b7e2ee6ce9613a34952fc368967f9fb501444d3700dc0a0f52460206001835493015493604051908152a3565b5050429061224b565b60038101805460ff19166002179055426006820190815590600090600d81019160ff835416600481101561264c5715612309575b50604081600160ff7f812f5462ae8eb7e647903992840104270d82ba2c8ad5ed0e557aaa163371b54f94549554169101549454612301835180936114ca565b6020820152a3565b600654825460405163255709e560e11b81526004810182905290916001600160a01b0316908381602481855afa8015612c8057612a1a575b50610120600491604051928380926361d1549d60e11b82525afa9081156128cf5783916128da575b50604060018060a01b039101511682600a850154604460405180948193635af5446960e01b835287600484015260248301525afa80156128cf5783906126b4575b60e0015151600954928452600360209081526040808620600188015487528252808620600c8801549151635cd8252d60e11b815260048101949094526060602485015280546064850181905290875291862092946001600160a01b0316935084926084840192875b81811061269b5750505082602094928192604483015203915afa908115612509578291612660575b50600481101561264c5760ff801985541691161783556004602060018060a01b03600754166040519283809263900cf0cf60e01b82525afa90811561250957829161261a575b5080600984015560ff8454166004811015612606576002146125a2575b60028301549081109081612590575b81612518575b50156122c2576007546001600160a01b0316803b15612514578180916004604051809481936333d98b0560e21b83525af18015612509576124f4575b506122c2565b6124ff828092611602565b6118e757806124ee565b6040513d84823e3d90fd5b5080fd5b60065460405163132d95ab60e11b81526004810192909252909150602090829060249082906001600160a01b03165afa90811561250957829161255e575b5015386124b2565b90506020813d602011612588575b8161257960209383611602565b810103126101b6575138612556565b3d915061256c565b905061259b81611b34565b15906124ac565b60078054908401549192916001600160a01b039182169116813b15612602578291602483926040519485938492633eb5dbd960e21b845260048401525af18015612509576125f2575b509061249d565b816125fc91611602565b386125eb565b8280fd5b634e487b7160e01b83526021600452602483fd5b90506020813d602011612644575b8161263560209383611602565b81010312612514575138612480565b3d9150612628565b634e487b7160e01b82526021600452602482fd5b90506020813d602011612693575b8161267b60209383611602565b8101031261251457516004811015612514573861243a565b3d915061266e565b8254855287955060209094019360019283019201612412565b503d8084833e6126c48183611602565b8101906020818303126128c7578051906001600160401b0382116128cb570190610160828203126128c7576040519161016083018381106001600160401b038211176128b357604052805183526020810151602084015260408101516040840152606081015160608401526080810151608084015260a081015160a084015260c081015160068110156128765760c084015260e08101516001600160401b03811161287657810182601f820112156128765780519061278282611701565b916127906040519384611602565b80835260208084019160051b8301019185831161289757602001905b82821061289b5750505060e08401526101008101516001600160401b03811161287657810182601f820112156128765780516127e781611701565b916127f56040519384611602565b81835260208084019260051b8201019085821161289757602001915b81831061287a575050506101008401526101208101516001600160401b0381116128765782612841918301612d0e565b610120840152610140810151906001600160401b038211612876579161286b9160e0949301612d0e565b6101408201526123aa565b8580fd5b8251600581101561289357815260209283019201612811565b8980fd5b8880fd5b602080916128a884612c8b565b8152019101906127ac565b634e487b7160e01b86526041600452602486fd5b8380fd5b8480fd5b6040513d85823e3d90fd5b9050610120813d8211612a12575b816128f66101209383611602565b81010312612602576040519061012082018281106001600160401b038211176129fe5760405261292581612c8b565b825260208101516001600160a01b03811681036128cb57602083015260408101516001600160a01b03811681036128cb57604083015260608101516001600160a01b03811681036128cb57606083015260808101516001600160a01b03811681036128cb57608083015260a08101516001600160a01b03811681036128cb5760a083015260c08101516001600160a01b03811681036128cb5760c083015260e08101516001600160a01b03811681036128cb5760e083015261010001516001600160a01b03811681036128c75761010082015238612369565b634e487b7160e01b85526041600452602485fd5b3d91506128e8565b3d8085833e612a298183611602565b8101906020818303126128cb578051906001600160401b03821161287657016102a0818303126128cb57604051916102a083018381106001600160401b03821117612c6c5760405281516006811015612c6857835260208201516005811015612c685760208401526040820151600f811015612c685760408401526060820151600f811015612c68576060840152612ac360808301612c8b565b6080840152612ad460a08301612c8b565b60a0840152612ae560c08301612c8b565b60c0840152612af660e08301612c8b565b60e08401526101008201516101008401526101208201516101208401526101408201516101408401526101608201516101608401526101808201516101808401526101a08201516101a08401526101c08201516101c08401526101e08201516101e08401526102008201516001600160401b038111612c685781612b7b918401612c9f565b6102008401526102208201516001600160401b038111612c685781612ba1918401612c9f565b6102208401526102408201516001600160401b038111612c6857820181601f82011215612c6857805190612bd482611701565b92612be26040519485611602565b8284526020606081860194028301019181831161289357602001925b828410612c2c5750505050610240830152610260808201519083015261028090810151910152610120612341565b606084830312612893576020606091604051612c47816115cc565b86518152828701518382015260408701516040820152815201930192612bfe565b8680fd5b634e487b7160e01b87526041600452602487fd5b6040513d86823e3d90fd5b51906001600160a01b03821682036101b657565b81601f820112156101b6578051906001600160401b0382116108855760405192612cd3601f8401601f191660200185611602565b828452602083830101116101b65760005b828110612cf957505060206000918301015290565b80602080928401015182828701015201612ce4565b9080601f830112156101b6578151612d2581611701565b92612d336040519485611602565b81845260208085019260051b8201019283116101b657602001905b828210612d5b5750505090565b8151815260209182019101612d4e56fe9016d09d72d40fdae2fd8ceac6b6234c7706214fd39c1cd1e609a0528c19930002dd7bc7dec4dceedda775e58dd541e08a116c6c53815c0bd028192f7b626800f0c57e16840df040f15088dc2f81fe391c3923bec73e23a9662efc9c229c6a00237e158222e3e6968b72b9db0d8043aacf074ad9f650f0d1606b4d82ee432c00a2646970667358221220211a59ab736db845a881180255a2091781d40bbd0b6016cf22f9b19a8290221e64736f6c634300081c0033",
  "linkReferences": {},
  "deployedLinkReferences": {}
}