{
  "_format": "hh-sol-artifact-1",
  "contractName": "StakingInflation",
  "sourceName": "contracts/staking/StakingInflation.sol",
  "abi": [
    {
      "inputs": [],
      "name": "AccessControlBadConfirmation",
      "type": "error"
    },
    {
      "inputs": [
        {
          "internalType": "address",
          "name": "account",
          "type": "address"
        },
        {
          "internalType": "bytes32",
          "name": "neededRole",
          "type": "bytes32"
        }
      ],
      "name": "AccessControlUnauthorizedAccount",
      "type": "error"
    },
    {
      "inputs": [],
      "name": "InflationAlreadyInitialized",
      "type": "error"
    },
    {
      "inputs": [],
      "name": "InflationAlreadyReceived",
      "type": "error"
    },
    {
      "inputs": [],
      "name": "InvalidInitialization",
      "type": "error"
    },
    {
      "inputs": [],
      "name": "NoBurning",
      "type": "error"
    },
    {
      "inputs": [],
      "name": "NotInitializing",
      "type": "error"
    },
    {
      "inputs": [],
      "name": "OnlyGEN",
      "type": "error"
    },
    {
      "inputs": [
        {
          "internalType": "address",
          "name": "owner",
          "type": "address"
        }
      ],
      "name": "OwnableInvalidOwner",
      "type": "error"
    },
    {
      "inputs": [
        {
          "internalType": "address",
          "name": "account",
          "type": "address"
        }
      ],
      "name": "OwnableUnauthorizedAccount",
      "type": "error"
    },
    {
      "inputs": [],
      "name": "ReentrancyGuardReentrantCall",
      "type": "error"
    },
    {
      "anonymous": false,
      "inputs": [
        {
          "indexed": false,
          "internalType": "uint256",
          "name": "amount",
          "type": "uint256"
        }
      ],
      "name": "BurnToL1",
      "type": "event"
    },
    {
      "anonymous": false,
      "inputs": [
        {
          "indexed": false,
          "internalType": "uint256",
          "name": "timestamp",
          "type": "uint256"
        }
      ],
      "name": "InflationInitiated",
      "type": "event"
    },
    {
      "anonymous": false,
      "inputs": [
        {
          "indexed": false,
          "internalType": "uint256",
          "name": "amount",
          "type": "uint256"
        },
        {
          "indexed": false,
          "internalType": "uint256",
          "name": "epoch",
          "type": "uint256"
        }
      ],
      "name": "InflationReceived",
      "type": "event"
    },
    {
      "anonymous": false,
      "inputs": [
        {
          "indexed": true,
          "internalType": "uint256",
          "name": "targetEpoch",
          "type": "uint256"
        },
        {
          "indexed": false,
          "internalType": "uint256",
          "name": "l2GasPrice",
          "type": "uint256"
        },
        {
          "indexed": false,
          "internalType": "uint256",
          "name": "l2GasLimit",
          "type": "uint256"
        }
      ],
      "name": "InflationRequestedFromL2",
      "type": "event"
    },
    {
      "anonymous": false,
      "inputs": [
        {
          "indexed": false,
          "internalType": "uint64",
          "name": "version",
          "type": "uint64"
        }
      ],
      "name": "Initialized",
      "type": "event"
    },
    {
      "anonymous": false,
      "inputs": [
        {
          "indexed": true,
          "internalType": "address",
          "name": "previousOwner",
          "type": "address"
        },
        {
          "indexed": true,
          "internalType": "address",
          "name": "newOwner",
          "type": "address"
        }
      ],
      "name": "OwnershipTransferStarted",
      "type": "event"
    },
    {
      "anonymous": false,
      "inputs": [
        {
          "indexed": true,
          "internalType": "address",
          "name": "previousOwner",
          "type": "address"
        },
        {
          "indexed": true,
          "internalType": "address",
          "name": "newOwner",
          "type": "address"
        }
      ],
      "name": "OwnershipTransferred",
      "type": "event"
    },
    {
      "anonymous": false,
      "inputs": [
        {
          "indexed": true,
          "internalType": "bytes32",
          "name": "role",
          "type": "bytes32"
        },
        {
          "indexed": true,
          "internalType": "bytes32",
          "name": "previousAdminRole",
          "type": "bytes32"
        },
        {
          "indexed": true,
          "internalType": "bytes32",
          "name": "newAdminRole",
          "type": "bytes32"
        }
      ],
      "name": "RoleAdminChanged",
      "type": "event"
    },
    {
      "anonymous": false,
      "inputs": [
        {
          "indexed": true,
          "internalType": "bytes32",
          "name": "role",
          "type": "bytes32"
        },
        {
          "indexed": true,
          "internalType": "address",
          "name": "account",
          "type": "address"
        },
        {
          "indexed": true,
          "internalType": "address",
          "name": "sender",
          "type": "address"
        }
      ],
      "name": "RoleGranted",
      "type": "event"
    },
    {
      "anonymous": false,
      "inputs": [
        {
          "indexed": true,
          "internalType": "bytes32",
          "name": "role",
          "type": "bytes32"
        },
        {
          "indexed": true,
          "internalType": "address",
          "name": "account",
          "type": "address"
        },
        {
          "indexed": true,
          "internalType": "address",
          "name": "sender",
          "type": "address"
        }
      ],
      "name": "RoleRevoked",
      "type": "event"
    },
    {
      "inputs": [],
      "name": "DEFAULT_ADMIN_ROLE",
      "outputs": [
        {
          "internalType": "bytes32",
          "name": "",
          "type": "bytes32"
        }
      ],
      "stateMutability": "view",
      "type": "function"
    },
    {
      "inputs": [],
      "name": "DEFAULT_DELEGATOR_MIN_STAKE",
      "outputs": [
        {
          "internalType": "uint256",
          "name": "",
          "type": "uint256"
        }
      ],
      "stateMutability": "view",
      "type": "function"
    },
    {
      "inputs": [],
      "name": "DEFAULT_VALIDATOR_MIN_STAKE",
      "outputs": [
        {
          "internalType": "uint256",
          "name": "",
          "type": "uint256"
        }
      ],
      "stateMutability": "view",
      "type": "function"
    },
    {
      "inputs": [],
      "name": "DELEGATOR_UNBONDING_PERIOD",
      "outputs": [
        {
          "internalType": "uint256",
          "name": "",
          "type": "uint256"
        }
      ],
      "stateMutability": "view",
      "type": "function"
    },
    {
      "inputs": [],
      "name": "INFLATION_BASE",
      "outputs": [
        {
          "internalType": "uint256",
          "name": "",
          "type": "uint256"
        }
      ],
      "stateMutability": "view",
      "type": "function"
    },
    {
      "inputs": [],
      "name": "INFLATION_DEEPTHOUGHT_BPS",
      "outputs": [
        {
          "internalType": "uint256",
          "name": "",
          "type": "uint256"
        }
      ],
      "stateMutability": "view",
      "type": "function"
    },
    {
      "inputs": [],
      "name": "INFLATION_DEVELOPER_BPS",
      "outputs": [
        {
          "internalType": "uint256",
          "name": "",
          "type": "uint256"
        }
      ],
      "stateMutability": "view",
      "type": "function"
    },
    {
      "inputs": [],
      "name": "INFLATION_FINAL",
      "outputs": [
        {
          "internalType": "uint256",
          "name": "",
          "type": "uint256"
        }
      ],
      "stateMutability": "view",
      "type": "function"
    },
    {
      "inputs": [],
      "name": "INFLATION_INITIAL",
      "outputs": [
        {
          "internalType": "uint256",
          "name": "",
          "type": "uint256"
        }
      ],
      "stateMutability": "view",
      "type": "function"
    },
    {
      "inputs": [],
      "name": "INFLATION_MID",
      "outputs": [
        {
          "internalType": "int256",
          "name": "",
          "type": "int256"
        }
      ],
      "stateMutability": "view",
      "type": "function"
    },
    {
      "inputs": [],
      "name": "INFLATION_STAKER_BPS",
      "outputs": [
        {
          "internalType": "uint256",
          "name": "",
          "type": "uint256"
        }
      ],
      "stateMutability": "view",
      "type": "function"
    },
    {
      "inputs": [],
      "name": "INFLATION_STEEPNESS",
      "outputs": [
        {
          "internalType": "int256",
          "name": "",
          "type": "int256"
        }
      ],
      "stateMutability": "view",
      "type": "function"
    },
    {
      "inputs": [],
      "name": "INFLATION_VALIDATOR_BPS",
      "outputs": [
        {
          "internalType": "uint256",
          "name": "",
          "type": "uint256"
        }
      ],
      "stateMutability": "view",
      "type": "function"
    },
    {
      "inputs": [],
      "name": "L1_MESSENGER",
      "outputs": [
        {
          "internalType": "contract IL1Messenger",
          "name": "",
          "type": "address"
        }
      ],
      "stateMutability": "view",
      "type": "function"
    },
    {
      "inputs": [],
      "name": "QUARANTINE_MANAGER_ROLE",
      "outputs": [
        {
          "internalType": "bytes32",
          "name": "",
          "type": "bytes32"
        }
      ],
      "stateMutability": "view",
      "type": "function"
    },
    {
      "inputs": [],
      "name": "SLASH_CALLER_INCENTIVE_BPS",
      "outputs": [
        {
          "internalType": "uint256",
          "name": "",
          "type": "uint256"
        }
      ],
      "stateMutability": "view",
      "type": "function"
    },
    {
      "inputs": [],
      "name": "VALIDATOR_UNBONDING_PERIOD",
      "outputs": [
        {
          "internalType": "uint256",
          "name": "",
          "type": "uint256"
        }
      ],
      "stateMutability": "view",
      "type": "function"
    },
    {
      "inputs": [],
      "name": "acceptOwnership",
      "outputs": [],
      "stateMutability": "nonpayable",
      "type": "function"
    },
    {
      "inputs": [],
      "name": "addressManager",
      "outputs": [
        {
          "internalType": "contract IAddressManager",
          "name": "",
          "type": "address"
        }
      ],
      "stateMutability": "view",
      "type": "function"
    },
    {
      "inputs": [],
      "name": "burn",
      "outputs": [],
      "stateMutability": "nonpayable",
      "type": "function"
    },
    {
      "inputs": [],
      "name": "burning",
      "outputs": [
        {
          "internalType": "uint256",
          "name": "",
          "type": "uint256"
        }
      ],
      "stateMutability": "view",
      "type": "function"
    },
    {
      "inputs": [],
      "name": "deepthought",
      "outputs": [
        {
          "internalType": "address payable",
          "name": "",
          "type": "address"
        }
      ],
      "stateMutability": "view",
      "type": "function"
    },
    {
      "inputs": [
        {
          "internalType": "uint256",
          "name": "_inflation",
          "type": "uint256"
        }
      ],
      "name": "deepthoughtInflation",
      "outputs": [
        {
          "internalType": "uint256",
          "name": "",
          "type": "uint256"
        }
      ],
      "stateMutability": "pure",
      "type": "function"
    },
    {
      "inputs": [],
      "name": "delegatorMinStake",
      "outputs": [
        {
          "internalType": "uint256",
          "name": "",
          "type": "uint256"
        }
      ],
      "stateMutability": "view",
      "type": "function"
    },
    {
      "inputs": [
        {
          "internalType": "uint256",
          "name": "_inflation",
          "type": "uint256"
        }
      ],
      "name": "developerInflation",
      "outputs": [
        {
          "internalType": "uint256",
          "name": "",
          "type": "uint256"
        }
      ],
      "stateMutability": "pure",
      "type": "function"
    },
    {
      "inputs": [],
      "name": "epoch",
      "outputs": [
        {
          "internalType": "uint256",
          "name": "",
          "type": "uint256"
        }
      ],
      "stateMutability": "view",
      "type": "function"
    },
    {
      "inputs": [],
      "name": "epochEven",
      "outputs": [
        {
          "internalType": "uint256",
          "name": "start",
          "type": "uint256"
        },
        {
          "internalType": "uint256",
          "name": "end",
          "type": "uint256"
        },
        {
          "internalType": "uint256",
          "name": "inflation",
          "type": "uint256"
        },
        {
          "internalType": "uint256",
          "name": "weight",
          "type": "uint256"
        },
        {
          "internalType": "uint256",
          "name": "weightDeposit",
          "type": "uint256"
        },
        {
          "internalType": "uint256",
          "name": "weightWithdrawal",
          "type": "uint256"
        },
        {
          "internalType": "uint256",
          "name": "vcount",
          "type": "uint256"
        },
        {
          "internalType": "uint256",
          "name": "claimed",
          "type": "uint256"
        },
        {
          "internalType": "uint256",
          "name": "stakeDeposit",
          "type": "uint256"
        },
        {
          "internalType": "uint256",
          "name": "stakeWithdrawal",
          "type": "uint256"
        },
        {
          "internalType": "uint256",
          "name": "slashed",
          "type": "uint256"
        }
      ],
      "stateMutability": "view",
      "type": "function"
    },
    {
      "inputs": [],
      "name": "epochExtraMinDuration",
      "outputs": [
        {
          "internalType": "uint256",
          "name": "",
          "type": "uint256"
        }
      ],
      "stateMutability": "view",
      "type": "function"
    },
    {
      "inputs": [
        {
          "internalType": "uint256",
          "name": "_epoch",
          "type": "uint256"
        }
      ],
      "name": "epochInflation",
      "outputs": [
        {
          "internalType": "uint256",
          "name": "",
          "type": "uint256"
        }
      ],
      "stateMutability": "view",
      "type": "function"
    },
    {
      "inputs": [],
      "name": "epochMinDuration",
      "outputs": [
        {
          "internalType": "uint256",
          "name": "",
          "type": "uint256"
        }
      ],
      "stateMutability": "view",
      "type": "function"
    },
    {
      "inputs": [],
      "name": "epochMinDurationThreshold",
      "outputs": [
        {
          "internalType": "uint256",
          "name": "",
          "type": "uint256"
        }
      ],
      "stateMutability": "view",
      "type": "function"
    },
    {
      "inputs": [],
      "name": "epochOdd",
      "outputs": [
        {
          "internalType": "uint256",
          "name": "start",
          "type": "uint256"
        },
        {
          "internalType": "uint256",
          "name": "end",
          "type": "uint256"
        },
        {
          "internalType": "uint256",
          "name": "inflation",
          "type": "uint256"
        },
        {
          "internalType": "uint256",
          "name": "weight",
          "type": "uint256"
        },
        {
          "internalType": "uint256",
          "name": "weightDeposit",
          "type": "uint256"
        },
        {
          "internalType": "uint256",
          "name": "weightWithdrawal",
          "type": "uint256"
        },
        {
          "internalType": "uint256",
          "name": "vcount",
          "type": "uint256"
        },
        {
          "internalType": "uint256",
          "name": "claimed",
          "type": "uint256"
        },
        {
          "internalType": "uint256",
          "name": "stakeDeposit",
          "type": "uint256"
        },
        {
          "internalType": "uint256",
          "name": "stakeWithdrawal",
          "type": "uint256"
        },
        {
          "internalType": "uint256",
          "name": "slashed",
          "type": "uint256"
        }
      ],
      "stateMutability": "view",
      "type": "function"
    },
    {
      "inputs": [],
      "name": "epochZeroMinDuration",
      "outputs": [
        {
          "internalType": "uint256",
          "name": "",
          "type": "uint256"
        }
      ],
      "stateMutability": "view",
      "type": "function"
    },
    {
      "inputs": [],
      "name": "finalizationPhaseAddress",
      "outputs": [
        {
          "internalType": "address",
          "name": "",
          "type": "address"
        }
      ],
      "stateMutability": "view",
      "type": "function"
    },
    {
      "inputs": [],
      "name": "finalized",
      "outputs": [
        {
          "internalType": "uint256",
          "name": "",
          "type": "uint256"
        }
      ],
      "stateMutability": "view",
      "type": "function"
    },
    {
      "inputs": [
        {
          "internalType": "bytes32",
          "name": "role",
          "type": "bytes32"
        }
      ],
      "name": "getRoleAdmin",
      "outputs": [
        {
          "internalType": "bytes32",
          "name": "",
          "type": "bytes32"
        }
      ],
      "stateMutability": "view",
      "type": "function"
    },
    {
      "inputs": [
        {
          "internalType": "bytes32",
          "name": "role",
          "type": "bytes32"
        },
        {
          "internalType": "address",
          "name": "account",
          "type": "address"
        }
      ],
      "name": "grantRole",
      "outputs": [],
      "stateMutability": "nonpayable",
      "type": "function"
    },
    {
      "inputs": [
        {
          "internalType": "bytes32",
          "name": "role",
          "type": "bytes32"
        },
        {
          "internalType": "address",
          "name": "account",
          "type": "address"
        }
      ],
      "name": "hasRole",
      "outputs": [
        {
          "internalType": "bool",
          "name": "",
          "type": "bool"
        }
      ],
      "stateMutability": "view",
      "type": "function"
    },
    {
      "inputs": [],
      "name": "idlenessPhaseAddress",
      "outputs": [
        {
          "internalType": "address",
          "name": "",
          "type": "address"
        }
      ],
      "stateMutability": "view",
      "type": "function"
    },
    {
      "inputs": [],
      "name": "inflationEpoch",
      "outputs": [
        {
          "internalType": "uint256",
          "name": "",
          "type": "uint256"
        }
      ],
      "stateMutability": "view",
      "type": "function"
    },
    {
      "inputs": [
        {
          "internalType": "uint256",
          "name": "_inauguralTimestamp",
          "type": "uint256"
        }
      ],
      "name": "inflationInit",
      "outputs": [],
      "stateMutability": "nonpayable",
      "type": "function"
    },
    {
      "inputs": [
        {
          "internalType": "uint256",
          "name": "_epochTo",
          "type": "uint256"
        }
      ],
      "name": "inflationReceive",
      "outputs": [],
      "stateMutability": "payable",
      "type": "function"
    },
    {
      "inputs": [],
      "name": "inflationRequestThreshold",
      "outputs": [
        {
          "internalType": "uint256",
          "name": "",
          "type": "uint256"
        }
      ],
      "stateMutability": "view",
      "type": "function"
    },
    {
      "inputs": [
        {
          "internalType": "uint256",
          "name": "",
          "type": "uint256"
        }
      ],
      "name": "inflationRequested",
      "outputs": [
        {
          "internalType": "bool",
          "name": "",
          "type": "bool"
        }
      ],
      "stateMutability": "view",
      "type": "function"
    },
    {
      "inputs": [],
      "name": "inflationSupply",
      "outputs": [
        {
          "internalType": "uint256",
          "name": "",
          "type": "uint256"
        }
      ],
      "stateMutability": "view",
      "type": "function"
    },
    {
      "inputs": [],
      "name": "inflationTargetAhead",
      "outputs": [
        {
          "internalType": "uint256",
          "name": "",
          "type": "uint256"
        }
      ],
      "stateMutability": "view",
      "type": "function"
    },
    {
      "inputs": [],
      "name": "l2GasLimit",
      "outputs": [
        {
          "internalType": "uint256",
          "name": "",
          "type": "uint256"
        }
      ],
      "stateMutability": "view",
      "type": "function"
    },
    {
      "inputs": [],
      "name": "l2GasPrice",
      "outputs": [
        {
          "internalType": "uint256",
          "name": "",
          "type": "uint256"
        }
      ],
      "stateMutability": "view",
      "type": "function"
    },
    {
      "inputs": [],
      "name": "maxValidators",
      "outputs": [
        {
          "internalType": "uint256",
          "name": "",
          "type": "uint256"
        }
      ],
      "stateMutability": "view",
      "type": "function"
    },
    {
      "inputs": [
        {
          "internalType": "address",
          "name": "",
          "type": "address"
        }
      ],
      "name": "operatorsToValidators",
      "outputs": [
        {
          "internalType": "address",
          "name": "",
          "type": "address"
        }
      ],
      "stateMutability": "view",
      "type": "function"
    },
    {
      "inputs": [],
      "name": "owner",
      "outputs": [
        {
          "internalType": "address",
          "name": "",
          "type": "address"
        }
      ],
      "stateMutability": "view",
      "type": "function"
    },
    {
      "inputs": [],
      "name": "pendingOwner",
      "outputs": [
        {
          "internalType": "address",
          "name": "",
          "type": "address"
        }
      ],
      "stateMutability": "view",
      "type": "function"
    },
    {
      "inputs": [],
      "name": "pendingRequestInflationFromL1",
      "outputs": [
        {
          "internalType": "bool",
          "name": "",
          "type": "bool"
        }
      ],
      "stateMutability": "view",
      "type": "function"
    },
    {
      "inputs": [],
      "name": "reductionFactor",
      "outputs": [
        {
          "internalType": "uint256",
          "name": "",
          "type": "uint256"
        }
      ],
      "stateMutability": "view",
      "type": "function"
    },
    {
      "inputs": [],
      "name": "renounceOwnership",
      "outputs": [],
      "stateMutability": "nonpayable",
      "type": "function"
    },
    {
      "inputs": [
        {
          "internalType": "bytes32",
          "name": "role",
          "type": "bytes32"
        },
        {
          "internalType": "address",
          "name": "callerConfirmation",
          "type": "address"
        }
      ],
      "name": "renounceRole",
      "outputs": [],
      "stateMutability": "nonpayable",
      "type": "function"
    },
    {
      "inputs": [],
      "name": "revealingPhaseAddress",
      "outputs": [
        {
          "internalType": "address",
          "name": "",
          "type": "address"
        }
      ],
      "stateMutability": "view",
      "type": "function"
    },
    {
      "inputs": [
        {
          "internalType": "bytes32",
          "name": "role",
          "type": "bytes32"
        },
        {
          "internalType": "address",
          "name": "account",
          "type": "address"
        }
      ],
      "name": "revokeRole",
      "outputs": [],
      "stateMutability": "nonpayable",
      "type": "function"
    },
    {
      "inputs": [
        {
          "internalType": "uint256",
          "name": "_targetEpoch",
          "type": "uint256"
        }
      ],
      "name": "sendInflationRequestToL1",
      "outputs": [],
      "stateMutability": "nonpayable",
      "type": "function"
    },
    {
      "inputs": [],
      "name": "sendTestToL1",
      "outputs": [],
      "stateMutability": "nonpayable",
      "type": "function"
    },
    {
      "inputs": [],
      "name": "stakingInvariant",
      "outputs": [
        {
          "internalType": "address",
          "name": "",
          "type": "address"
        }
      ],
      "stateMutability": "view",
      "type": "function"
    },
    {
      "inputs": [
        {
          "internalType": "bytes4",
          "name": "interfaceId",
          "type": "bytes4"
        }
      ],
      "name": "supportsInterface",
      "outputs": [
        {
          "internalType": "bool",
          "name": "",
          "type": "bool"
        }
      ],
      "stateMutability": "view",
      "type": "function"
    },
    {
      "inputs": [],
      "name": "transactionFeesManager",
      "outputs": [
        {
          "internalType": "address",
          "name": "",
          "type": "address"
        }
      ],
      "stateMutability": "view",
      "type": "function"
    },
    {
      "inputs": [
        {
          "internalType": "address",
          "name": "newOwner",
          "type": "address"
        }
      ],
      "name": "transferOwnership",
      "outputs": [],
      "stateMutability": "nonpayable",
      "type": "function"
    },
    {
      "inputs": [
        {
          "internalType": "address",
          "name": "validatorAddress",
          "type": "address"
        }
      ],
      "name": "validatorInsertedInTree",
      "outputs": [
        {
          "internalType": "uint256",
          "name": "timestamp",
          "type": "uint256"
        }
      ],
      "stateMutability": "view",
      "type": "function"
    },
    {
      "inputs": [],
      "name": "validatorMinStake",
      "outputs": [
        {
          "internalType": "uint256",
          "name": "",
          "type": "uint256"
        }
      ],
      "stateMutability": "view",
      "type": "function"
    },
    {
      "inputs": [
        {
          "internalType": "address",
          "name": "validatorAddress",
          "type": "address"
        }
      ],
      "name": "validatorRemovedFromTheTree",
      "outputs": [
        {
          "internalType": "uint256",
          "name": "timestamp",
          "type": "uint256"
        }
      ],
      "stateMutability": "view",
      "type": "function"
    },
    {
      "inputs": [
        {
          "internalType": "uint256",
          "name": "",
          "type": "uint256"
        }
      ],
      "name": "validatorsEven",
      "outputs": [
        {
          "internalType": "address",
          "name": "",
          "type": "address"
        }
      ],
      "stateMutability": "view",
      "type": "function"
    },
    {
      "inputs": [
        {
          "internalType": "uint256",
          "name": "",
          "type": "uint256"
        }
      ],
      "name": "validatorsJoined",
      "outputs": [
        {
          "internalType": "address",
          "name": "",
          "type": "address"
        }
      ],
      "stateMutability": "view",
      "type": "function"
    },
    {
      "inputs": [
        {
          "internalType": "uint256",
          "name": "",
          "type": "uint256"
        }
      ],
      "name": "validatorsOdd",
      "outputs": [
        {
          "internalType": "address",
          "name": "",
          "type": "address"
        }
      ],
      "stateMutability": "view",
      "type": "function"
    },
    {
      "inputs": [
        {
          "internalType": "uint256",
          "name": "",
          "type": "uint256"
        }
      ],
      "name": "weightsEven",
      "outputs": [
        {
          "internalType": "uint256",
          "name": "",
          "type": "uint256"
        }
      ],
      "stateMutability": "view",
      "type": "function"
    },
    {
      "inputs": [
        {
          "internalType": "uint256",
          "name": "",
          "type": "uint256"
        }
      ],
      "name": "weightsOdd",
      "outputs": [
        {
          "internalType": "uint256",
          "name": "",
          "type": "uint256"
        }
      ],
      "stateMutability": "view",
      "type": "function"
    }
  ],
  "bytecode": "0x6080806040523460155761208f908161001b8239f35b600080fdfe6080604052600436101561001257600080fd5b60003560e01c8063019f89f51461135157806301ffc9a7146112fb57806308ac5256146112dd5780630a3cfb13146112755780630ab07e88146112575780631538faf21461123957806318a3b882146112085780631bc2359a146111ea578063217fcc3e14610aa05780632272e0ab146111cc57806322f51dbd1461116257806324147f671461114457806324840a5e1461111b578063248a9ca3146110f557806326ed4c70146110d25780632f2ff15d146110a157806336568abe1461105b5780633ab76e9f146110325780633b0da62314610ffa5780633fde6d7b14610fdc57806344aa3ded14610fa257806344df8e7014610edd5780634971ec0214610eba5780634c12b33f14610e9c5780634f2938fc14610e73578063624a448514610e555780636378eba314610e3757806367604d2714610e19578063715018a614610d98578063746e4ac714610d5a5780637492100f14610d3857806379073e6e14610d0057806379ba509714610c4f5780637a518c1a14610b705780637a5d266014610b475780637e1233a914610b2a5780638377259514610b0d57806387e51da914610aa55780638b7e92a614610aa05780638da5cb5b14610a6a578063900cf0cf14610a4c578063900fd9ce14610a0e57806391d14854146109b457806396be02a71461096e5780639ae36685146109505780639d357fd814610916578063a01ebaa1146108f2578063a217fddf146108d6578063a8027c10146108b3578063abfd6fa91461088f578063ac78a04b14610872578063b03df1f014610830578063b3f05b9714610812578063bc338e7f146107f6578063c0a604ad146107d8578063c3ff497714610756578063c498c95b14610731578063cb17452f146106f6578063cd38347f146106cf578063cd856235146106b1578063cf6e65b714610693578063d547741f1461065b578063d7ef354414610632578063da7a9b6a14610614578063de8d9d381461052c578063de8eec6414610503578063e30c3978146104cd578063e3c6b0ca146104af578063f2fde38b14610428578063f85683ef146103ff578063fafebac5146103b55763fb6fe7761461033457600080fd5b346103b05760203660031901126103b0576004356045548110156103b05760009060455481101561039c5760459091527fa80a8fcc11760162f08bb091d2c9389d07f2b73d0e996161dfac6f1043b5fc0b01546040516001600160a01b039091168152602090f35b634e487b7160e01b82526032600452602482fd5b600080fd5b346103b05760003660031901126103b057601454601554906103fb601654601754601854601954601a54601b5491601c5493601d5495601e54976040519b8c9b8c6114ef565b0390f35b346103b05760003660031901126103b057604a546040516001600160a01b039091168152602090f35b346103b05760203660031901126103b0576104416114d9565b610449611e9e565b60008051602061203a83398151915280546001600160a01b0319166001600160a01b03928316908117909155600080516020611ffa833981519152549091167f38d16b8cac22d99fc7c124b9cd0de2d3fa1faef420bfe791d8c362d765e22700600080a3005b346103b05760003660031901126103b0576020600354604051908152f35b346103b05760003660031901126103b05760008051602061203a833981519152546040516001600160a01b039091168152602090f35b346103b05760003660031901126103b0576046546040516001600160a01b039091168152602090f35b60203660031901126103b057600435610543611ebf565b6001600160a01b0390811661111161111160901b010116330361060357600f54808211156105f25781600f55600181018091116105dc575b818111156105b5577fa4dec8e49a9c449aceaa40312819be0acf42a63da5f0c7f5be784840602c60b96040838151903482526020820152a1005b6000818152605260205260409020805460ff1916905560001981146105dc5760010161057b565b634e487b7160e01b600052601160045260246000fd5b63719a0d3960e01b60005260046000fd5b636a10007b60e01b60005260046000fd5b346103b05760003660031901126103b0576020604254604051908152f35b346103b05760003660031901126103b057600e546040516001600160a01b039091168152602090f35b346103b05760403660031901126103b05761069160043561067a6114c3565b9061068c61068782611748565b611d0b565b611dfe565b005b346103b05760003660031901126103b0576020604f54604051908152f35b346103b05760003660031901126103b0576020600454604051908152f35b346103b05760003660031901126103b05760206040516b0d92289838d21a99680000008152f35b346103b05760003660031901126103b05760206040517f155e7f76c52e49fe8308e62eabe3ce449c978443b7d8beb86992427229ec386f8152f35b346103b05760003660031901126103b05760206040516908e4d3168276864000008152f35b346103b05760203660031901126103b057600435610772611ebf565b6001600160a01b0390811661111161111160901b010116330361060357601f546107c7576020817f076a5ddab2a5c0052b34c2297e0db5ae2ee770ddce71986024620217b0ef1fdf92601f55604051908152a1005b639ded3b1560e01b60005260046000fd5b346103b05760003660031901126103b0576020600f54604051908152f35b346103b05760003660031901126103b057602060405160648152f35b346103b05760003660031901126103b0576020601254604051908152f35b346103b05760203660031901126103b0576001600160a01b036108516114d9565b166000526034602052602060018060a01b0360406000205416604051908152f35b346103b05760003660031901126103b05760206040516101f48152f35b346103b05760003660031901126103b0576020604051680246ddf979766800008152f35b346103b05760003660031901126103b0576020604051660aa87bee537fff198152f35b346103b05760003660031901126103b057602060405160008152f35b346103b05760003660031901126103b0576020604051684e1003b28d928000008152f35b346103b05760203660031901126103b0576001600160a01b036109376114d9565b1660005260556020526020604060002054604051908152f35b346103b05760003660031901126103b0576020604e54604051908152f35b346103b05760003660031901126103b057601f54602054906103fb602154602254602354602454602554602654916027549360285495602954976040519b8c9b8c6114ef565b346103b05760403660031901126103b0576109cd6114c3565b60043560005260008051602061201a83398151915260205260406000209060018060a01b0316600052602052602060ff604060002054166040519015158152f35b346103b05760203660031901126103b057600435602b548110156103b057600090602b5481101561039c57602082602b829452200154604051908152f35b346103b05760003660031901126103b0576020601154604051908152f35b346103b05760003660031901126103b057600080516020611ffa833981519152546040516001600160a01b039091168152602090f35b6114a6565b346103b05760203660031901126103b057600435602c548110156103b057600090602c5481101561039c57602c9091527f7416c943b4a09859521022fd2e90eac0dd9026dad28fa317782a135f28a8609101546040516001600160a01b039091168152602090f35b346103b05760003660031901126103b0576020604051611d4c8152f35b346103b05760003660031901126103b05760206040516180088152f35b346103b05760003660031901126103b0576049546040516001600160a01b039091168152602090f35b346103b05760203660031901126103b057600435610b8c611e9e565b610bc9602060405160018282015283604082015260408152610baf6060826116b8565b604051809381926318be12c960e21b8352600483016116ff565b038160006180085af18015610c4357610c14575b507f254aef78ab3f94771c17ad15d2765d19e01db562b4470c0a5c6960185ab529b26040604e54604f5482519182526020820152a2005b6020813d602011610c3b575b81610c2d602093836116b8565b810103126103b05751610bdd565b3d9150610c20565b6040513d6000823e3d90fd5b346103b05760003660031901126103b05760008051602061203a83398151915254336001600160a01b0390911603610ceb5760008051602061203a83398151915280546001600160a01b0319908116909155600080516020611ffa83398151915280543392811683179091556001600160a01b03167f8be0079c531659141344cd1fd0a4f28419497f9722a3daafe3b4186f6b6457e0600080a3005b63118cdaa760e01b6000523360045260246000fd5b346103b05760203660031901126103b0576004356103e88102908082046103e814901517156105dc5760209061271060405191048152f35b346103b05760003660031901126103b0576020604051668e1bc9bf0400008152f35b346103b05760203660031901126103b057600435602a548110156103b057600090602a5481101561039c57602082602a829452200154604051908152f35b346103b05760003660031901126103b057610db1611e9e565b60008051602061203a83398151915280546001600160a01b0319908116909155600080516020611ffa833981519152805491821690556000906001600160a01b03167f8be0079c531659141344cd1fd0a4f28419497f9722a3daafe3b4186f6b6457e08280a3005b346103b05760003660031901126103b0576020604054604051908152f35b346103b05760003660031901126103b0576020600054604051908152f35b346103b05760003660031901126103b0576020605054604051908152f35b346103b05760003660031901126103b0576048546040516001600160a01b039091168152602090f35b346103b05760003660031901126103b0576020601354604051908152f35b346103b05760003660031901126103b0576020604051670214e8348c4f00008152f35b346103b05760003660031901126103b0576013548015610f91576000601355610f1f602060405160018282015283604082015260408152610baf6060826116b8565b038160006180085af18015610c4357610f60575b7f98e0d9ae5770534ab17c57681d61e5b9c9afc53c1ca1706d558406dcffca2d0a602083604051908152a1005b6020813d602011610f89575b81610f79602093836116b8565b810103126103b057506020610f33565b3d9150610f6c565b6396191d4560e01b60005260046000fd5b346103b05760203660031901126103b0576001600160a01b03610fc36114d9565b1660005260546020526020604060002054604051908152f35b346103b05760003660031901126103b0576020600154604051908152f35b346103b05760203660031901126103b0576004356101f48102908082046101f414901517156105dc5760209061271060405191048152f35b346103b05760003660031901126103b0576047546040516001600160a01b039091168152602090f35b346103b05760403660031901126103b0576110746114c3565b336001600160a01b038216036110905761069190600435611dfe565b63334bd91960e11b60005260046000fd5b346103b05760403660031901126103b0576106916004356110c06114c3565b906110cd61068782611748565b611d55565b346103b05760003660031901126103b057602060ff605354166040519015158152f35b346103b05760203660031901126103b0576020611113600435611748565b604051908152f35b346103b05760003660031901126103b0576044546040516001600160a01b039091168152602090f35b346103b05760003660031901126103b0576020605154604051908152f35b346103b05760003660031901126103b05761118f6020604051600282820152818152610baf6040826116b8565b038160006180085af18015610c43576111a457005b6106919060203d6020116111c5575b6111bd81836116b8565b8101906116f0565b503d6111b3565b346103b05760003660031901126103b0576020604154604051908152f35b346103b05760003660031901126103b0576020600254604051908152f35b346103b05760203660031901126103b0576004356000526052602052602060ff604060002054166040519015158152f35b346103b05760003660031901126103b0576020604354604051908152f35b346103b05760003660031901126103b0576020601054604051908152f35b346103b05760203660031901126103b057600435602d548110156103b057600090602d5481101561039c57602d9091527f4a2cc91ee622da3bc833a54c37ffcb6f3ec23b7793efc5eaf5e71b7b406c5c0601546040516001600160a01b039091168152602090f35b346103b05760003660031901126103b0576020600554604051908152f35b346103b05760203660031901126103b05760043563ffffffff60e01b81168091036103b057602090637965db0b60e01b8114908115611340575b506040519015158152f35b6301ffc9a760e01b14905082611335565b346103b05760203660031901126103b057600435600181018091116105dc576113799061153b565b670186cc6acd4b000090684e1003b28d927fffff1981019081136001166105dc576113ca90600090818112906113bd90660aa87bee53800090836114975790611f57565b91501561148e575b6118e2565b9081670de0b6b3a7640000019182126001166105dc57600082128015926113f6929161147f5790611fc7565b90600103611471575b670214e8348c4f000003670214e8348c4f000081116105dc5761142b68138400eca364a000009161153b565b04806b0d92289838d21a996800000002906b0d92289838d21a99680000008204036105dc57670de0b6b3a764000061146860209260005490611698565b04604051908152f35b61147a90611769565b6113ff565b61148890611769565b90611fc7565b6113c590611769565b6114a090611769565b90611f57565b346103b05760003660031901126103b05760206040516103e88152f35b602435906001600160a01b03821682036103b057565b600435906001600160a01b03821682036103b057565b979491926101409996939c9b9a9794919c6101608a019d8a5260208a015260408901526060880152608087015260a086015260c085015260e08401526101008301526101208201520152565b90670de0b6b3a7640000820291808304670de0b6b3a764000014901517156105dc57565b906803782dace9d8ffffff1982019182136001166105dc57565b906806f05b59d3b1ffffff1982019182136001166105dc57565b9068ad78ebc5ac61ffffff1982019182136001166105dc57565b906856bc75e2d630ffffff1982019182136001166105dc57565b90682b5e3af16b187fffff1982019182136001166105dc57565b906815af1d78b58c3fffff1982019182136001166105dc57565b90680ad78ebc5ac61fffff1982019182136001166105dc57565b9068056bc75e2d630fffff1982019182136001166105dc57565b906802b5e3af16b187ffff1982019182136001166105dc57565b9068015af1d78b58c3ffff1982019182136001166105dc57565b908168056bc75e2d63100000019182126001166105dc57565b919091600083820193841291129080158216911516176105dc57565b81156116a2570490565b634e487b7160e01b600052601260045260246000fd5b90601f8019910116810190811067ffffffffffffffff8211176116da57604052565b634e487b7160e01b600052604160045260246000fd5b908160209103126103b0575190565b91909160208152825180602083015260005b818110611732575060409293506000838284010152601f8019910116010190565b8060208092870101516040828601015201611711565b60005260008051602061201a83398151915260205260016040600020015490565b600160ff1b81146105dc5760000390565b906064820291808305606414901517156105dc57565b906b02df0ab5a80a22c61ab5a7008202918083056b02df0ab5a80a22c61ab5a70014901517156105dc57565b90693f1fce3da636ea5cf850820291808305693f1fce3da636ea5cf85014901517156105dc57565b90690127fa27722cc06cc5e2820291808305690127fa27722cc06cc5e214901517156105dc57565b9068280e60114edb805d0382029180830568280e60114edb805d0314901517156105dc57565b90680ebc5fb41746121110820291808305680ebc5fb4174612111014901517156105dc57565b906808f00f760a4b2db55d8202918083056808f00f760a4b2db55d14901517156105dc57565b906806f5f17757889379378202918083056806f5f177578893793714901517156105dc57565b818102929160008212600160ff1b8214166105dc5781840514901517156105dc57565b81156116a257600160ff1b81146000198314166105dc570590565b680238fd42c5cf03ffff1981121580611cf8575b6118ff90611f97565b60008112611cd3576806f05b59d3b20000008112611c995761192090611579565b611942770195e54c5dd42177f53a27172fa9ec6302628270000000009161177a565b68056bc75e2d631000009068ad78ebc5ac62000000811215611c79575b6856bc75e2d631000000811215611c5e575b682b5e3af16b18800000811215611c43575b6815af1d78b58c400000811215611c28575b680ad78ebc5ac6200000811215611c0d575b68056bc75e2d63100000811215611bf2575b6802b5e3af16b1880000811215611bd7575b68015af1d78b58c40000811215611bad575b8080808080808080806119ef81611663565b6119f982806118a4565b68056bc75e2d631000009005600290059081611a149161167c565b91611a1e916118a4565b68056bc75e2d631000009005600390059081611a399161167c565b91611a43916118a4565b68056bc75e2d631000009005600490059081611a5e9161167c565b91611a68916118a4565b68056bc75e2d631000009005600590059081611a839161167c565b91611a8d916118a4565b68056bc75e2d631000009005600690059081611aa89161167c565b91611ab2916118a4565b68056bc75e2d631000009005600790059081611acd9161167c565b91611ad7916118a4565b68056bc75e2d631000009005600890059081611af29161167c565b91611afc916118a4565b68056bc75e2d631000009005600990059081611b179161167c565b91611b21916118a4565b68056bc75e2d631000009005600a90059081611b3c9161167c565b91611b46916118a4565b68056bc75e2d631000009005600b90059081611b619161167c565b91611b6b916118a4565b68056bc75e2d631000009005600c9005611b849161167c565b611b8d916118a4565b68056bc75e2d63100000900590611ba3916118a4565b6064900590565b90565b611bc2611bbc611bd192611649565b9261187e565b68056bc75e2d63100000900590565b906119dd565b611bc2611be6611bec9261162f565b92611858565b906119cb565b611bc2611c01611c0792611615565b92611832565b906119b9565b611bc2611c1c611c22926115fb565b9261180c565b906119a7565b611bc2611c37611c3d926115e1565b926117e4565b90611995565b611bc2611c52611c58926115c7565b926117bc565b90611983565b611bc2611c6d611c73926115ad565b92611790565b90611971565b611c839150611593565b6e01855144814a7ff805980ff00840009061195f565b6803782dace9d90000008112611cc857611cb29061155f565b6119426b1425982cf597cd205cef73809161177a565b61194260019161177a565b611cef6113c56ec097ce7bc90715b34b9f100000000092611769565b611baa916118c7565b5068070c1cc73b00c800008113156118f6565b600081815260008051602061201a8339815191526020908152604080832033845290915290205460ff1615611d3d5750565b63e2517d3f60e01b6000523360045260245260446000fd5b600081815260008051602061201a833981519152602090815260408083206001600160a01b038616845290915290205460ff16611df757600081815260008051602061201a833981519152602090815260408083206001600160a01b0395909516808452949091528120805460ff19166001179055339291907f2f8788117e7eff1d82e926ec794901d17c78024a50270940304540a733656f0d9080a4600190565b5050600090565b600081815260008051602061201a833981519152602090815260408083206001600160a01b038616845290915290205460ff1615611df757600081815260008051602061201a833981519152602090815260408083206001600160a01b0395909516808452949091528120805460ff19169055339291907ff6391f5c32d9c69d2a47ea670b442974b53935d1edc7fd64eb21e047a839171b9080a4600190565b600080516020611ffa833981519152546001600160a01b03163303610ceb57565b604754604051631bae711d60e21b8152602060048201819052600360248301526223b2b760e91b60448301529091829060649082906001600160a01b03165afa908115610c4357600091611f11575090565b6020813d602011611f4f575b81611f2a602093836116b8565b81010312611f4b5751906001600160a01b0382168203611f48575090565b80fd5b5080fd5b3d9150611f1d565b8181029181830414901517156105dc5780611f725750600090565b60001981019081116105dc57670de0b6b3a76400009004600181018091116105dc5790565b15611f9e57565b62461bcd60e51b6000908152602060045260076024526642414c2330303960c81b604452606490fd5b9081611fd4575050600090565b670de0b6b3a76400008202918204670de0b6b3a7640000036105dc57611baa9161169856fe9016d09d72d40fdae2fd8ceac6b6234c7706214fd39c1cd1e609a0528c19930002dd7bc7dec4dceedda775e58dd541e08a116c6c53815c0bd028192f7b626800237e158222e3e6968b72b9db0d8043aacf074ad9f650f0d1606b4d82ee432c00a26469706673582212206713ec35404b9feeed626ed2ae3d575267a515d0c7370c690eafc858c1ca884164736f6c634300081c0033",
  "linkReferences": {},
  "deployedLinkReferences": {}
}