{
  "_format": "hh-sol-artifact-1",
  "contractName": "MockIdlenessForCommitting",
  "sourceName": "contracts/test-helpers/MockIdlenessForCommitting.sol",
  "abi": [
    {
      "inputs": [
        {
          "internalType": "address",
          "name": "",
          "type": "address"
        },
        {
          "components": [
            {
              "internalType": "enum ITransactions.ResultType",
              "name": "result",
              "type": "uint8"
            },
            {
              "internalType": "enum ITransactions.VoteType",
              "name": "txExecutionResult",
              "type": "uint8"
            },
            {
              "internalType": "enum ITransactions.TransactionStatus",
              "name": "previousStatus",
              "type": "uint8"
            },
            {
              "internalType": "enum ITransactions.TransactionStatus",
              "name": "status",
              "type": "uint8"
            },
            {
              "internalType": "address",
              "name": "txOrigin",
              "type": "address"
            },
            {
              "internalType": "address",
              "name": "sender",
              "type": "address"
            },
            {
              "internalType": "address",
              "name": "recipient",
              "type": "address"
            },
            {
              "internalType": "address",
              "name": "activator",
              "type": "address"
            },
            {
              "internalType": "uint256",
              "name": "txSlot",
              "type": "uint256"
            },
            {
              "internalType": "uint256",
              "name": "initialRotations",
              "type": "uint256"
            },
            {
              "internalType": "uint256",
              "name": "numOfInitialValidators",
              "type": "uint256"
            },
            {
              "internalType": "uint256",
              "name": "epoch",
              "type": "uint256"
            },
            {
              "internalType": "bytes32",
              "name": "id",
              "type": "bytes32"
            },
            {
              "internalType": "bytes32",
              "name": "randomSeed",
              "type": "bytes32"
            },
            {
              "internalType": "bytes32",
              "name": "txExecutionHash",
              "type": "bytes32"
            },
            {
              "internalType": "bytes32",
              "name": "resultHash",
              "type": "bytes32"
            },
            {
              "internalType": "bytes",
              "name": "txCalldata",
              "type": "bytes"
            },
            {
              "internalType": "bytes",
              "name": "eqBlocksOutputs",
              "type": "bytes"
            },
            {
              "components": [
                {
                  "internalType": "uint256",
                  "name": "activationBlock",
                  "type": "uint256"
                },
                {
                  "internalType": "uint256",
                  "name": "processingBlock",
                  "type": "uint256"
                },
                {
                  "internalType": "uint256",
                  "name": "proposalBlock",
                  "type": "uint256"
                }
              ],
              "internalType": "struct ITransactions.ReadStateBlockRange[]",
              "name": "readStateBlockRanges",
              "type": "tuple[]"
            },
            {
              "internalType": "uint256",
              "name": "validUntil",
              "type": "uint256"
            },
            {
              "internalType": "uint256",
              "name": "value",
              "type": "uint256"
            },
            {
              "internalType": "uint256",
              "name": "lockedStorageUnitPrice",
              "type": "uint256"
            },
            {
              "internalType": "uint256",
              "name": "storageFeeUsed",
              "type": "uint256"
            }
          ],
          "internalType": "struct ITransactions.Transaction",
          "name": "",
          "type": "tuple"
        },
        {
          "components": [
            {
              "internalType": "uint256",
              "name": "round",
              "type": "uint256"
            },
            {
              "internalType": "uint256",
              "name": "leaderIndex",
              "type": "uint256"
            },
            {
              "internalType": "uint256",
              "name": "votesCommitted",
              "type": "uint256"
            },
            {
              "internalType": "uint256",
              "name": "votesRevealed",
              "type": "uint256"
            },
            {
              "internalType": "uint256",
              "name": "appealBond",
              "type": "uint256"
            },
            {
              "internalType": "uint256",
              "name": "rotationsLeft",
              "type": "uint256"
            },
            {
              "internalType": "enum ITransactions.ResultType",
              "name": "result",
              "type": "uint8"
            },
            {
              "internalType": "address[]",
              "name": "roundValidators",
              "type": "address[]"
            },
            {
              "internalType": "enum ITransactions.VoteType[]",
              "name": "validatorVotes",
              "type": "uint8[]"
            },
            {
              "internalType": "bytes32[]",
              "name": "validatorVotesHash",
              "type": "bytes32[]"
            },
            {
              "internalType": "bytes32[]",
              "name": "validatorResultHash",
              "type": "bytes32[]"
            }
          ],
          "internalType": "struct ITransactions.RoundData",
          "name": "",
          "type": "tuple"
        }
      ],
      "name": "checkIdleOnCommitVote",
      "outputs": [
        {
          "internalType": "bool",
          "name": "isIdle",
          "type": "bool"
        },
        {
          "internalType": "bool",
          "name": "changeToUndetermined",
          "type": "bool"
        },
        {
          "internalType": "address",
          "name": "newValidator",
          "type": "address"
        },
        {
          "internalType": "bytes32[]",
          "name": "undeterminedTxIds",
          "type": "bytes32[]"
        },
        {
          "internalType": "uint256[]",
          "name": "idleValidatorsIndexes",
          "type": "uint256[]"
        },
        {
          "internalType": "address[]",
          "name": "allReplacementValidators",
          "type": "address[]"
        }
      ],
      "stateMutability": "view",
      "type": "function"
    },
    {
      "inputs": [
        {
          "internalType": "bytes32",
          "name": "txId",
          "type": "bytes32"
        }
      ],
      "name": "getTimestamps",
      "outputs": [
        {
          "components": [
            {
              "internalType": "uint256",
              "name": "created",
              "type": "uint256"
            },
            {
              "internalType": "uint256",
              "name": "pending",
              "type": "uint256"
            },
            {
              "internalType": "uint256",
              "name": "activated",
              "type": "uint256"
            },
            {
              "internalType": "uint256",
              "name": "proposed",
              "type": "uint256"
            },
            {
              "internalType": "uint256",
              "name": "committed",
              "type": "uint256"
            },
            {
              "internalType": "uint256",
              "name": "lastVote",
              "type": "uint256"
            },
            {
              "internalType": "uint256",
              "name": "appealSubmitted",
              "type": "uint256"
            },
            {
              "internalType": "uint256",
              "name": "leaderRevealed",
              "type": "uint256"
            }
          ],
          "internalType": "struct IIdleness.Timestamps",
          "name": "",
          "type": "tuple"
        }
      ],
      "stateMutability": "view",
      "type": "function"
    },
    {
      "inputs": [],
      "name": "lastSetTimestampTxId",
      "outputs": [
        {
          "internalType": "bytes32",
          "name": "",
          "type": "bytes32"
        }
      ],
      "stateMutability": "view",
      "type": "function"
    },
    {
      "inputs": [],
      "name": "lastSetTimestampType",
      "outputs": [
        {
          "internalType": "enum IIdleness.TimestampType",
          "name": "",
          "type": "uint8"
        }
      ],
      "stateMutability": "view",
      "type": "function"
    },
    {
      "inputs": [],
      "name": "lastSetTimestampValue",
      "outputs": [
        {
          "internalType": "uint256",
          "name": "",
          "type": "uint256"
        }
      ],
      "stateMutability": "view",
      "type": "function"
    },
    {
      "inputs": [],
      "name": "resetMockState",
      "outputs": [],
      "stateMutability": "nonpayable",
      "type": "function"
    },
    {
      "inputs": [
        {
          "internalType": "bool",
          "name": "isIdle",
          "type": "bool"
        },
        {
          "internalType": "bool",
          "name": "changeToUndetermined",
          "type": "bool"
        },
        {
          "internalType": "address",
          "name": "newValidator",
          "type": "address"
        },
        {
          "internalType": "bytes32[]",
          "name": "undeterminedTxIds",
          "type": "bytes32[]"
        },
        {
          "internalType": "uint256[]",
          "name": "idleValidatorsIndexes",
          "type": "uint256[]"
        },
        {
          "internalType": "address[]",
          "name": "allReplacementValidators",
          "type": "address[]"
        }
      ],
      "name": "setMockCheckIdleOnCommitVote",
      "outputs": [],
      "stateMutability": "nonpayable",
      "type": "function"
    },
    {
      "inputs": [
        {
          "internalType": "bytes32",
          "name": "txId",
          "type": "bytes32"
        },
        {
          "internalType": "enum IIdleness.TimestampType",
          "name": "timestampType",
          "type": "uint8"
        },
        {
          "internalType": "uint256",
          "name": "timestamp",
          "type": "uint256"
        }
      ],
      "name": "setTimestamp",
      "outputs": [],
      "stateMutability": "nonpayable",
      "type": "function"
    },
    {
      "inputs": [
        {
          "internalType": "bytes32",
          "name": "txId",
          "type": "bytes32"
        },
        {
          "components": [
            {
              "internalType": "uint256",
              "name": "created",
              "type": "uint256"
            },
            {
              "internalType": "uint256",
              "name": "pending",
              "type": "uint256"
            },
            {
              "internalType": "uint256",
              "name": "activated",
              "type": "uint256"
            },
            {
              "internalType": "uint256",
              "name": "proposed",
              "type": "uint256"
            },
            {
              "internalType": "uint256",
              "name": "committed",
              "type": "uint256"
            },
            {
              "internalType": "uint256",
              "name": "lastVote",
              "type": "uint256"
            },
            {
              "internalType": "uint256",
              "name": "appealSubmitted",
              "type": "uint256"
            },
            {
              "internalType": "uint256",
              "name": "leaderRevealed",
              "type": "uint256"
            }
          ],
          "internalType": "struct IIdleness.Timestamps",
          "name": "timestamps",
          "type": "tuple"
        }
      ],
      "name": "setTimestamps",
      "outputs": [],
      "stateMutability": "nonpayable",
      "type": "function"
    }
  ],
  "bytecode": "0x60808060405234601557610efc908161001b8239f35b600080fdfe608080604052600436101561001357600080fd5b60003560e01c90816302bbaae9146106f55750806320090e9d1461065b578063293d95921461056457806330f8ccf51461052457806334130f0314610506578063382495b0146104e85780634e8eb8bd146103bd578063c0d64389146103075763dcd42cee1461008257600080fd5b346102f25760c03660031901126102f2576004358015158091036102f2576024358015158091036102f257604435916001600160a01b03831683036102f2576064356001600160401b0381116102f2576100e0903690600401610e15565b608435916001600160401b0383116102f257366023840112156102f25782600401359361010c85610d99565b9361011a6040519586610d22565b858552602085016024819760051b830101913683116102f257602401905b8282106102f75750505060a4356001600160401b0381116102f25761016461ff00913690600401610db0565b9660ff6001549162010000600160b01b039060101b1694169060018060b01b031916179160081b1617176001558051906001600160401b03821161028057600160401b821161028057600254826002558083106102be575b506020016002600052602060002060005b8381106102aa575050505051906001600160401b03821161028057600160401b82116102805761020582600354816003556003610e72565b6003600052602060002060005b838110610296578451856001600160401b03821161028057600160401b82116102805760209061024a83600454816004556004610e72565b0190600460005260206000209160005b82811061026357005b81516001600160a01b03168185015560209091019060010161025a565b634e487b7160e01b600052604160045260246000fd5b600190602084519401938184015501610212565b6001906020845194019381840155016101cd565b6002600052600080516020610ea78339815191529081019083015b8181106102e657506101bc565b600081556001016102d9565b600080fd5b8135815260209182019101610138565b346102f2576101203660031901126102f2576101003660231901126102f25760405161033281610d06565b602435815260076020820160443581526040830160643581526060840160843581526080850160a435815260a086019160c435835260c087019360e435855260e0880195610104358752600435600052600060205260406000209851895551600189015551600288015551600387015551600486015551600585015551600684015551910155600080f35b346102f25760603660031901126102f25760243560043560088210156102f2576044359181600555600060ff196006541660ff83161760065583600755508015600014610416575060005260006020526040600020555b005b6000600182036104355750506000526000602052600160406000200155005b506002810361045257506000526000602052600260406000200155005b6000600382036104715750506000526000602052600360406000200155005b506004810361048e57506000526000602052600460406000200155005b6000600582036104ad5750506000526000602052600560406000200155005b50600681036104ca57506000526000602052600660406000200155005b906007600092146104d757005b816040916007935280602052200155005b346102f25760003660031901126102f2576020600754604051908152f35b346102f25760003660031901126102f2576020600554604051908152f35b346102f25760003660031901126102f25760ff60065416604051600882101561054e576020918152f35b634e487b7160e01b600052602160045260246000fd5b346102f25760203660031901126102f257600060e060405161058581610d06565b8281528260208201528260408201528260608201528260808201528260a08201528260c08201520152600435600052600060205261010060406000206040516105cd81610d06565b8154918282526001810154602083019081526002820154604084019081526003830154606085019081526004840154916080860192835260058501549360a0870194855260e0600760068801549760c08a01988952015497019687526040519788525160208801525160408701525160608601525160808501525160a08401525160c08301525160e0820152f35b346102f25760003660031901126102f257600060055560ff1960065416600655600060075560018060b01b0319600154166001556002546000600255806106c3575b6106b06000600354816003556003610e72565b6104146000600454816004556004610e72565b6002600052600080516020610ea7833981519152908101905b8181106106e9575061069d565b600081556001016106dc565b346102f25760603660031901126102f25761070e610cdc565b506024356001600160401b0381116102f2576102e060031982360301126102f2576102e082018281106001600160401b0382111761028057604052806004013560068110156102f2578252602481013560058110156102f25760208301526044810135600f8110156102f25760408301526064810135600f8110156102f257606083015261079e60848201610cf2565b60808301526107af60a48201610cf2565b60a08301526107c060c48201610cf2565b60c08301526107d160e48201610cf2565b60e08301526101048101356101008301526101248101356101208301526101448101356101408301526101648101356101608301526101848101356101808301526101a48101356101a08301526101c48101356101c08301526101e48101356101e08301526102048101356001600160401b0381116102f25761085a9060043691840101610d43565b6102008301526102248101356001600160401b0381116102f2576108849060043691840101610d43565b6102208301526102448101356001600160401b0381116102f2578101366023820112156102f25760048101356108b981610d99565b916108c76040519384610d22565b818352602060046060828601940283010101903682116102f257602401915b818310610c8d57856102c06102c487876102408501526102648101356102608501526102848101356102808501526102a48101356102a085015201359101526044356001600160401b0381116102f25761016060031982360301126102f2576040519061016082018281106001600160401b0382111761028057604052806004013582526024810135602083015260448101356040830152606481013560608301526084810135608083015260a481013560a083015260c481013560068110156102f25760c083015260e48101356001600160401b0381116102f2576109d29060043691840101610db0565b60e08301526101048101356001600160401b0381116102f2578101366023820112156102f2576004810135610a0681610d99565b91610a146040519384610d22565b818352602060048185019360051b83010101903682116102f257602401915b818310610c74575050506101008301526101248101356001600160401b0381116102f257610a679060043691840101610e15565b6101208301526101448101356001600160401b0381116102f257610140916004610a949236920101610e15565b91015260015460405160028054808352600091825260208301918291600080516020610ea7833981519152915b818110610c5e5750505082610ad7910383610d22565b60405180602060035492838152018092600360005260206000209060005b818110610c485750505081610b0b910382610d22565b604051928391602060045495868152018095600460005260206000209060005b818110610c295750505083610b41910384610d22565b60405196879660c088019160ff81161515895260ff8160081c16151560208a015260018060a01b039060101c16604089015260c060608901525180915260e08701929060005b818110610c10575050506020908683036080880152519182815201929060005b818110610bf75750505060209084830360a0860152519182815201919060005b818110610bd5575050500390f35b82516001600160a01b0316845285945060209384019390920191600101610bc7565b8251855287965060209485019490920191600101610ba7565b8251855289985060209485019490920191600101610b87565b82546001600160a01b0316845260209093019260019283019201610b2b565b8254845260209093019260019283019201610af5565b8254845260209093019260019283019201610ac1565b823560058110156102f257815260209283019201610a33565b6060833603126102f2576040519060608201908282106001600160401b0383111761028057606092602092604052853581528286013583820152604086013560408201528152019201916108e6565b600435906001600160a01b03821682036102f257565b35906001600160a01b03821682036102f257565b61010081019081106001600160401b0382111761028057604052565b90601f801991011681019081106001600160401b0382111761028057604052565b81601f820112156102f2578035906001600160401b0382116102805760405192610d77601f8401601f191660200185610d22565b828452602083830101116102f257816000926020809301838601378301015290565b6001600160401b0381116102805760051b60200190565b9080601f830112156102f2578135610dc781610d99565b92610dd56040519485610d22565b81845260208085019260051b8201019283116102f257602001905b828210610dfd5750505090565b60208091610e0a84610cf2565b815201910190610df0565b9080601f830112156102f2578135610e2c81610d99565b92610e3a6040519485610d22565b81845260208085019260051b8201019283116102f257602001905b828210610e625750505090565b8135815260209182019101610e55565b919091828210610e8157505050565b600052602060002091820191015b818110610e9a575050565b60008155600101610e8f56fe405787fa12a823e0f2b7631cc41b3ba8828b3321ca811111fa75cd3aa3bb5acea2646970667358221220affc5c9492d0927022259248b81f9e09f4576046b941c6662f4d57564c5ccb8a64736f6c634300081c0033",
  "linkReferences": {},
  "deployedLinkReferences": {}
}