{
  "_format": "hh-sol-artifact-1",
  "contractName": "ValidatorWalletBlueprint",
  "sourceName": "contracts/validatorsWallet/ValidatorWalletBlueprint.sol",
  "abi": [
    {
      "inputs": [],
      "name": "AccessControlBadConfirmation",
      "type": "error"
    },
    {
      "inputs": [
        {
          "internalType": "address",
          "name": "account",
          "type": "address"
        },
        {
          "internalType": "bytes32",
          "name": "neededRole",
          "type": "bytes32"
        }
      ],
      "name": "AccessControlUnauthorizedAccount",
      "type": "error"
    },
    {
      "inputs": [],
      "name": "InvalidAddress",
      "type": "error"
    },
    {
      "inputs": [],
      "name": "InvalidInitialization",
      "type": "error"
    },
    {
      "inputs": [],
      "name": "NoPendingOperator",
      "type": "error"
    },
    {
      "inputs": [],
      "name": "NotInitializing",
      "type": "error"
    },
    {
      "inputs": [],
      "name": "NotOperator",
      "type": "error"
    },
    {
      "inputs": [],
      "name": "OperatorTransferNotReady",
      "type": "error"
    },
    {
      "inputs": [
        {
          "internalType": "address",
          "name": "owner",
          "type": "address"
        }
      ],
      "name": "OwnableInvalidOwner",
      "type": "error"
    },
    {
      "inputs": [
        {
          "internalType": "address",
          "name": "account",
          "type": "address"
        }
      ],
      "name": "OwnableUnauthorizedAccount",
      "type": "error"
    },
    {
      "inputs": [],
      "name": "ReentrancyGuardReentrantCall",
      "type": "error"
    },
    {
      "inputs": [],
      "name": "TransferFailed",
      "type": "error"
    },
    {
      "anonymous": false,
      "inputs": [
        {
          "indexed": false,
          "internalType": "uint64",
          "name": "version",
          "type": "uint64"
        }
      ],
      "name": "Initialized",
      "type": "event"
    },
    {
      "anonymous": false,
      "inputs": [
        {
          "indexed": true,
          "internalType": "address",
          "name": "newOperator",
          "type": "address"
        }
      ],
      "name": "OperatorSet",
      "type": "event"
    },
    {
      "anonymous": false,
      "inputs": [
        {
          "indexed": true,
          "internalType": "address",
          "name": "by",
          "type": "address"
        }
      ],
      "name": "OperatorTransferCancelled",
      "type": "event"
    },
    {
      "anonymous": false,
      "inputs": [
        {
          "indexed": true,
          "internalType": "address",
          "name": "from",
          "type": "address"
        },
        {
          "indexed": true,
          "internalType": "address",
          "name": "to",
          "type": "address"
        }
      ],
      "name": "OperatorTransferCompleted",
      "type": "event"
    },
    {
      "anonymous": false,
      "inputs": [
        {
          "indexed": true,
          "internalType": "address",
          "name": "from",
          "type": "address"
        },
        {
          "indexed": true,
          "internalType": "address",
          "name": "to",
          "type": "address"
        },
        {
          "indexed": false,
          "internalType": "uint256",
          "name": "transferableAt",
          "type": "uint256"
        }
      ],
      "name": "OperatorTransferStarted",
      "type": "event"
    },
    {
      "anonymous": false,
      "inputs": [
        {
          "indexed": true,
          "internalType": "address",
          "name": "previousOwner",
          "type": "address"
        },
        {
          "indexed": true,
          "internalType": "address",
          "name": "newOwner",
          "type": "address"
        }
      ],
      "name": "OwnershipTransferred",
      "type": "event"
    },
    {
      "anonymous": false,
      "inputs": [
        {
          "indexed": true,
          "internalType": "bytes32",
          "name": "role",
          "type": "bytes32"
        },
        {
          "indexed": true,
          "internalType": "bytes32",
          "name": "previousAdminRole",
          "type": "bytes32"
        },
        {
          "indexed": true,
          "internalType": "bytes32",
          "name": "newAdminRole",
          "type": "bytes32"
        }
      ],
      "name": "RoleAdminChanged",
      "type": "event"
    },
    {
      "anonymous": false,
      "inputs": [
        {
          "indexed": true,
          "internalType": "bytes32",
          "name": "role",
          "type": "bytes32"
        },
        {
          "indexed": true,
          "internalType": "address",
          "name": "account",
          "type": "address"
        },
        {
          "indexed": true,
          "internalType": "address",
          "name": "sender",
          "type": "address"
        }
      ],
      "name": "RoleGranted",
      "type": "event"
    },
    {
      "anonymous": false,
      "inputs": [
        {
          "indexed": true,
          "internalType": "bytes32",
          "name": "role",
          "type": "bytes32"
        },
        {
          "indexed": true,
          "internalType": "address",
          "name": "account",
          "type": "address"
        },
        {
          "indexed": true,
          "internalType": "address",
          "name": "sender",
          "type": "address"
        }
      ],
      "name": "RoleRevoked",
      "type": "event"
    },
    {
      "anonymous": false,
      "inputs": [
        {
          "indexed": false,
          "internalType": "uint256",
          "name": "amount",
          "type": "uint256"
        }
      ],
      "name": "ValidatorClaimProcessed",
      "type": "event"
    },
    {
      "anonymous": false,
      "inputs": [
        {
          "indexed": false,
          "internalType": "uint256",
          "name": "amount",
          "type": "uint256"
        }
      ],
      "name": "ValidatorDepositMade",
      "type": "event"
    },
    {
      "anonymous": false,
      "inputs": [
        {
          "indexed": false,
          "internalType": "uint256",
          "name": "shares",
          "type": "uint256"
        }
      ],
      "name": "ValidatorExitInitiated",
      "type": "event"
    },
    {
      "anonymous": false,
      "inputs": [
        {
          "indexed": true,
          "internalType": "address",
          "name": "validator",
          "type": "address"
        }
      ],
      "name": "ValidatorIdentitySet",
      "type": "event"
    },
    {
      "inputs": [],
      "name": "DEFAULT_ADMIN_ROLE",
      "outputs": [
        {
          "internalType": "bytes32",
          "name": "",
          "type": "bytes32"
        }
      ],
      "stateMutability": "view",
      "type": "function"
    },
    {
      "inputs": [],
      "name": "OPERATOR_TRANSFER_DELAY",
      "outputs": [
        {
          "internalType": "uint256",
          "name": "",
          "type": "uint256"
        }
      ],
      "stateMutability": "view",
      "type": "function"
    },
    {
      "inputs": [
        {
          "internalType": "bytes32",
          "name": "_txId",
          "type": "bytes32"
        },
        {
          "internalType": "bytes",
          "name": "_vrfProof",
          "type": "bytes"
        }
      ],
      "name": "activateTransaction",
      "outputs": [],
      "stateMutability": "nonpayable",
      "type": "function"
    },
    {
      "inputs": [],
      "name": "cancelOperatorTransfer",
      "outputs": [],
      "stateMutability": "nonpayable",
      "type": "function"
    },
    {
      "inputs": [
        {
          "internalType": "bytes32",
          "name": "_txId",
          "type": "bytes32"
        },
        {
          "internalType": "uint256",
          "name": "_tribunalIndex",
          "type": "uint256"
        },
        {
          "internalType": "bytes32",
          "name": "_commitHash",
          "type": "bytes32"
        }
      ],
      "name": "commitTribunalAppealVote",
      "outputs": [],
      "stateMutability": "nonpayable",
      "type": "function"
    },
    {
      "inputs": [
        {
          "internalType": "bytes32",
          "name": "_txId",
          "type": "bytes32"
        },
        {
          "internalType": "bytes32",
          "name": "_commitHash",
          "type": "bytes32"
        },
        {
          "internalType": "uint256",
          "name": "_validatorIndex",
          "type": "uint256"
        }
      ],
      "name": "commitVote",
      "outputs": [],
      "stateMutability": "nonpayable",
      "type": "function"
    },
    {
      "inputs": [],
      "name": "completeOperatorTransfer",
      "outputs": [],
      "stateMutability": "nonpayable",
      "type": "function"
    },
    {
      "inputs": [],
      "name": "consensus",
      "outputs": [
        {
          "internalType": "address",
          "name": "",
          "type": "address"
        }
      ],
      "stateMutability": "view",
      "type": "function"
    },
    {
      "inputs": [],
      "name": "consensusWithFees",
      "outputs": [
        {
          "internalType": "address",
          "name": "",
          "type": "address"
        }
      ],
      "stateMutability": "view",
      "type": "function"
    },
    {
      "inputs": [],
      "name": "factory",
      "outputs": [
        {
          "internalType": "address",
          "name": "",
          "type": "address"
        }
      ],
      "stateMutability": "view",
      "type": "function"
    },
    {
      "inputs": [],
      "name": "getIdentity",
      "outputs": [
        {
          "components": [
            {
              "internalType": "string",
              "name": "moniker",
              "type": "string"
            },
            {
              "internalType": "string",
              "name": "logoUri",
              "type": "string"
            },
            {
              "internalType": "string",
              "name": "website",
              "type": "string"
            },
            {
              "internalType": "string",
              "name": "description",
              "type": "string"
            },
            {
              "internalType": "string",
              "name": "email",
              "type": "string"
            },
            {
              "internalType": "string",
              "name": "twitter",
              "type": "string"
            },
            {
              "internalType": "string",
              "name": "telegram",
              "type": "string"
            },
            {
              "internalType": "string",
              "name": "github",
              "type": "string"
            },
            {
              "internalType": "bytes",
              "name": "extraCid",
              "type": "bytes"
            }
          ],
          "internalType": "struct IValidatorWallet.ValidatorIdentity",
          "name": "",
          "type": "tuple"
        }
      ],
      "stateMutability": "view",
      "type": "function"
    },
    {
      "inputs": [],
      "name": "getOperator",
      "outputs": [
        {
          "internalType": "address",
          "name": "",
          "type": "address"
        }
      ],
      "stateMutability": "view",
      "type": "function"
    },
    {
      "inputs": [],
      "name": "getPendingOperator",
      "outputs": [
        {
          "internalType": "address",
          "name": "",
          "type": "address"
        },
        {
          "internalType": "uint256",
          "name": "",
          "type": "uint256"
        }
      ],
      "stateMutability": "view",
      "type": "function"
    },
    {
      "inputs": [
        {
          "internalType": "bytes32",
          "name": "role",
          "type": "bytes32"
        }
      ],
      "name": "getRoleAdmin",
      "outputs": [
        {
          "internalType": "bytes32",
          "name": "",
          "type": "bytes32"
        }
      ],
      "stateMutability": "view",
      "type": "function"
    },
    {
      "inputs": [
        {
          "internalType": "bytes32",
          "name": "role",
          "type": "bytes32"
        },
        {
          "internalType": "address",
          "name": "account",
          "type": "address"
        }
      ],
      "name": "grantRole",
      "outputs": [],
      "stateMutability": "nonpayable",
      "type": "function"
    },
    {
      "inputs": [
        {
          "internalType": "bytes32",
          "name": "role",
          "type": "bytes32"
        },
        {
          "internalType": "address",
          "name": "account",
          "type": "address"
        }
      ],
      "name": "hasRole",
      "outputs": [
        {
          "internalType": "bool",
          "name": "",
          "type": "bool"
        }
      ],
      "stateMutability": "view",
      "type": "function"
    },
    {
      "inputs": [],
      "name": "identity",
      "outputs": [
        {
          "internalType": "string",
          "name": "moniker",
          "type": "string"
        },
        {
          "internalType": "string",
          "name": "logoUri",
          "type": "string"
        },
        {
          "internalType": "string",
          "name": "website",
          "type": "string"
        },
        {
          "internalType": "string",
          "name": "description",
          "type": "string"
        },
        {
          "internalType": "string",
          "name": "email",
          "type": "string"
        },
        {
          "internalType": "string",
          "name": "twitter",
          "type": "string"
        },
        {
          "internalType": "string",
          "name": "telegram",
          "type": "string"
        },
        {
          "internalType": "string",
          "name": "github",
          "type": "string"
        },
        {
          "internalType": "bytes",
          "name": "extraCid",
          "type": "bytes"
        }
      ],
      "stateMutability": "view",
      "type": "function"
    },
    {
      "inputs": [
        {
          "internalType": "address",
          "name": "_factory",
          "type": "address"
        },
        {
          "internalType": "address",
          "name": "_owner",
          "type": "address"
        },
        {
          "internalType": "address",
          "name": "_staking",
          "type": "address"
        },
        {
          "internalType": "address",
          "name": "_consensus",
          "type": "address"
        },
        {
          "internalType": "address",
          "name": "_operator",
          "type": "address"
        }
      ],
      "name": "initialize",
      "outputs": [],
      "stateMutability": "nonpayable",
      "type": "function"
    },
    {
      "inputs": [
        {
          "internalType": "address",
          "name": "_newOperator",
          "type": "address"
        }
      ],
      "name": "initiateOperatorTransfer",
      "outputs": [],
      "stateMutability": "nonpayable",
      "type": "function"
    },
    {
      "inputs": [
        {
          "components": [
            {
              "internalType": "bytes32",
              "name": "txId",
              "type": "bytes32"
            },
            {
              "internalType": "uint256",
              "name": "saltAsAValidator",
              "type": "uint256"
            },
            {
              "internalType": "bytes32",
              "name": "txExecutionHash",
              "type": "bytes32"
            },
            {
              "internalType": "bytes32",
              "name": "messagesAndOtherFieldsHash",
              "type": "bytes32"
            },
            {
              "internalType": "bytes32",
              "name": "otherExecutionFieldsHash",
              "type": "bytes32"
            },
            {
              "internalType": "enum ITransactions.VoteType",
              "name": "resultValue",
              "type": "uint8"
            },
            {
              "components": [
                {
                  "internalType": "enum IMessages.MessageType",
                  "name": "messageType",
                  "type": "uint8"
                },
                {
                  "internalType": "address",
                  "name": "recipient",
                  "type": "address"
                },
                {
                  "internalType": "uint256",
                  "name": "value",
                  "type": "uint256"
                },
                {
                  "internalType": "bytes",
                  "name": "data",
                  "type": "bytes"
                },
                {
                  "internalType": "bool",
                  "name": "onAcceptance",
                  "type": "bool"
                },
                {
                  "internalType": "uint256",
                  "name": "saltNonce",
                  "type": "uint256"
                }
              ],
              "internalType": "struct IMessages.SubmittedMessage[]",
              "name": "messages",
              "type": "tuple[]"
            }
          ],
          "internalType": "struct IConsensusMain.LeaderRevealVoteParams",
          "name": "_params",
          "type": "tuple"
        }
      ],
      "name": "leaderRevealVote",
      "outputs": [],
      "stateMutability": "nonpayable",
      "type": "function"
    },
    {
      "inputs": [],
      "name": "operator",
      "outputs": [
        {
          "internalType": "address",
          "name": "",
          "type": "address"
        }
      ],
      "stateMutability": "view",
      "type": "function"
    },
    {
      "inputs": [],
      "name": "operatorTransferInitiated",
      "outputs": [
        {
          "internalType": "uint256",
          "name": "",
          "type": "uint256"
        }
      ],
      "stateMutability": "view",
      "type": "function"
    },
    {
      "inputs": [],
      "name": "owner",
      "outputs": [
        {
          "internalType": "address",
          "name": "",
          "type": "address"
        }
      ],
      "stateMutability": "view",
      "type": "function"
    },
    {
      "inputs": [],
      "name": "pendingOperator",
      "outputs": [
        {
          "internalType": "address",
          "name": "",
          "type": "address"
        }
      ],
      "stateMutability": "view",
      "type": "function"
    },
    {
      "inputs": [
        {
          "internalType": "bytes32",
          "name": "_txId",
          "type": "bytes32"
        },
        {
          "internalType": "bytes32",
          "name": "_txExecutionHash",
          "type": "bytes32"
        },
        {
          "internalType": "uint256",
          "name": "_processingBlock",
          "type": "uint256"
        },
        {
          "internalType": "bytes",
          "name": "_eqBlocksOutputs",
          "type": "bytes"
        },
        {
          "internalType": "bytes",
          "name": "_vrfProof",
          "type": "bytes"
        }
      ],
      "name": "proposeReceipt",
      "outputs": [],
      "stateMutability": "nonpayable",
      "type": "function"
    },
    {
      "inputs": [
        {
          "internalType": "bytes32",
          "name": "_txId",
          "type": "bytes32"
        },
        {
          "internalType": "bytes32",
          "name": "_txExecutionHash",
          "type": "bytes32"
        },
        {
          "internalType": "uint256",
          "name": "_processingBlock",
          "type": "uint256"
        },
        {
          "internalType": "uint256",
          "name": "_storageFeeUsed",
          "type": "uint256"
        },
        {
          "internalType": "bytes",
          "name": "_eqBlocksOutputs",
          "type": "bytes"
        },
        {
          "internalType": "bytes",
          "name": "_vrfProof",
          "type": "bytes"
        }
      ],
      "name": "proposeReceiptWithFees",
      "outputs": [],
      "stateMutability": "nonpayable",
      "type": "function"
    },
    {
      "inputs": [],
      "name": "renounceOwnership",
      "outputs": [],
      "stateMutability": "nonpayable",
      "type": "function"
    },
    {
      "inputs": [
        {
          "internalType": "bytes32",
          "name": "role",
          "type": "bytes32"
        },
        {
          "internalType": "address",
          "name": "callerConfirmation",
          "type": "address"
        }
      ],
      "name": "renounceRole",
      "outputs": [],
      "stateMutability": "nonpayable",
      "type": "function"
    },
    {
      "inputs": [
        {
          "internalType": "bytes32",
          "name": "_txId",
          "type": "bytes32"
        },
        {
          "internalType": "uint256",
          "name": "_tribunalIndex",
          "type": "uint256"
        },
        {
          "internalType": "bytes32",
          "name": "_voteHash",
          "type": "bytes32"
        },
        {
          "internalType": "enum ITransactions.VoteType",
          "name": "_voteType",
          "type": "uint8"
        },
        {
          "internalType": "bytes32",
          "name": "_otherExecutionFieldsHash",
          "type": "bytes32"
        },
        {
          "internalType": "uint256",
          "name": "_nonce",
          "type": "uint256"
        }
      ],
      "name": "revealTribunalAppealVote",
      "outputs": [],
      "stateMutability": "nonpayable",
      "type": "function"
    },
    {
      "inputs": [
        {
          "internalType": "bytes32",
          "name": "_txId",
          "type": "bytes32"
        },
        {
          "internalType": "bytes32",
          "name": "_voteHash",
          "type": "bytes32"
        },
        {
          "internalType": "enum ITransactions.VoteType",
          "name": "_voteType",
          "type": "uint8"
        },
        {
          "internalType": "bytes32",
          "name": "_otherExecutionFieldsHash",
          "type": "bytes32"
        },
        {
          "internalType": "uint256",
          "name": "_nonce",
          "type": "uint256"
        },
        {
          "internalType": "uint256",
          "name": "_validatorIndex",
          "type": "uint256"
        }
      ],
      "name": "revealVote",
      "outputs": [],
      "stateMutability": "nonpayable",
      "type": "function"
    },
    {
      "inputs": [
        {
          "internalType": "bytes32",
          "name": "role",
          "type": "bytes32"
        },
        {
          "internalType": "address",
          "name": "account",
          "type": "address"
        }
      ],
      "name": "revokeRole",
      "outputs": [],
      "stateMutability": "nonpayable",
      "type": "function"
    },
    {
      "inputs": [
        {
          "internalType": "address",
          "name": "_consensus",
          "type": "address"
        },
        {
          "internalType": "address",
          "name": "_consensusWithFees",
          "type": "address"
        },
        {
          "internalType": "address",
          "name": "_staking",
          "type": "address"
        }
      ],
      "name": "setExternalAddresses",
      "outputs": [],
      "stateMutability": "nonpayable",
      "type": "function"
    },
    {
      "inputs": [
        {
          "internalType": "string",
          "name": "moniker",
          "type": "string"
        },
        {
          "internalType": "string",
          "name": "logoUri",
          "type": "string"
        },
        {
          "internalType": "string",
          "name": "website",
          "type": "string"
        },
        {
          "internalType": "string",
          "name": "description",
          "type": "string"
        },
        {
          "internalType": "string",
          "name": "email",
          "type": "string"
        },
        {
          "internalType": "string",
          "name": "twitter",
          "type": "string"
        },
        {
          "internalType": "string",
          "name": "telegram",
          "type": "string"
        },
        {
          "internalType": "string",
          "name": "github",
          "type": "string"
        },
        {
          "internalType": "bytes",
          "name": "extraCid",
          "type": "bytes"
        }
      ],
      "name": "setIdentity",
      "outputs": [],
      "stateMutability": "nonpayable",
      "type": "function"
    },
    {
      "inputs": [
        {
          "internalType": "address",
          "name": "_operator",
          "type": "address"
        }
      ],
      "name": "setOperator",
      "outputs": [],
      "stateMutability": "nonpayable",
      "type": "function"
    },
    {
      "inputs": [],
      "name": "staking",
      "outputs": [
        {
          "internalType": "address",
          "name": "",
          "type": "address"
        }
      ],
      "stateMutability": "view",
      "type": "function"
    },
    {
      "inputs": [
        {
          "internalType": "bytes4",
          "name": "interfaceId",
          "type": "bytes4"
        }
      ],
      "name": "supportsInterface",
      "outputs": [
        {
          "internalType": "bool",
          "name": "",
          "type": "bool"
        }
      ],
      "stateMutability": "view",
      "type": "function"
    },
    {
      "inputs": [
        {
          "internalType": "address",
          "name": "newOwner",
          "type": "address"
        }
      ],
      "name": "transferOwnership",
      "outputs": [],
      "stateMutability": "nonpayable",
      "type": "function"
    },
    {
      "inputs": [],
      "name": "validatorClaim",
      "outputs": [],
      "stateMutability": "nonpayable",
      "type": "function"
    },
    {
      "inputs": [],
      "name": "validatorDeposit",
      "outputs": [],
      "stateMutability": "payable",
      "type": "function"
    },
    {
      "inputs": [
        {
          "internalType": "uint256",
          "name": "_shares",
          "type": "uint256"
        }
      ],
      "name": "validatorExit",
      "outputs": [],
      "stateMutability": "nonpayable",
      "type": "function"
    },
    {
      "stateMutability": "payable",
      "type": "receive"
    }
  ],
  "bytecode": "0x60808060405234601557612ff8908161001b8239f35b600080fdfe61012080604052600436101561001e575b50361561001c57600080fd5b005b600060c05260c0513560e01c90816301ffc9a7146124b55750806303d149171461216b5780630a6c701b146120925780630bf43c3814611ef45780630c82d0e114611e015780631459457a14611be857806317d3998014611b8b578063248a9ca314611b655780632c159a1a14611a655780632f2ff15d14611a3457806334e2326714611a15578063352057941461199f57806336568abe1461195757806336afc6fa1461177a5780633bd15f70146116d65780634cf088d9146116ac5780634e70962814610af3578063570ca7351461034b578063715018a614610a83578063718cfed314610a2d578063759f24f4146109cd5780637707d8381461085157806385d2d274146107d65780638da5cb5b1461079f5780638ef3f7611461077557806391d14854146107195780639e027604146106cf578063a217fddf146106b1578063aab85d6414610607578063ac7e534e146105dd578063b3ab15fb1461055e578063bb02061b1461053f578063c45a015514610515578063cbc2440a14610471578063cbfd846d14610447578063d4f6aa93146103b3578063d547741f14610376578063e7f43c681461034b578063f2fde38b146103225763f402ef5e146101e95738610010565b346102fc5760c03660031901126102fc576084356001600160401b0381116102fc576102199036906004016125ef565b60a4356001600160401b0381116102fc576102389036906004016125ef565b92909160018060a01b0360c05154169081330361030f57600f546001600160a01b031691823b156102fc576102ca6102b4966040519788968795869563034eb2e760e31b87526004356004880152602435602488015260443560448801526064356064880152608487015260e060a487015260e4860191612c2b565b906003198483030160c485015260c05197612c2b565b039160c051905af18015610302576102e3575b60c05180f35b60c0516102ef9161253a565b60c0516102fc57386102dd565b60c05180fd5b6040513d60c051823e3d90fd5b631f0853c160e21b60c05152600460c051fd5b346102fc5760203660031901126102fc576102dd61033e61255b565b610346612cd5565b612ca7565b346102fc5760c0513660031901126102fc5760c051546040516001600160a01b039091168152602090f35b346102fc5760403660031901126102fc576103ac600435610395612571565b906103a76103a282612c6f565b612d61565b612e54565b5060c05180f35b346102fc5760603660031901126102fc5760c051546001600160a01b0316330361030f576002546001600160a01b0316803b156102fc576040519063d4f6aa9360e01b82526004356004830152602435602483015260443560448301528160648160c0519360c051905af180156103025761042e5760c05180f35b60c05161043a9161253a565b60c0516102fc57806102dd565b346102fc5760c0513660031901126102fc57600f546040516001600160a01b039091168152602090f35b346102fc5760c03660031901126102fc5760643560058110156102fc5760c051546001600160a01b0316330361030f576002546001600160a01b0316803b156102fc576104e7604051926365e1220560e11b84526004356004850152602435602485015260443560448501526064840190612c08565b608435608483015260a43560a48301528160c48160c0519360c051905af180156103025761042e5760c05180f35b346102fc5760c0513660031901126102fc576001546040516001600160a01b039091168152602090f35b346102fc5760c0513660031901126102fc5760206040516202a3008152f35b346102fc5760203660031901126102fc5761057761255b565b61057f612cd5565b6001600160a01b031680156105ca57600d80546001600160a01b031990811690915560c051600e819055805490911682178155600080516020612f438339815191529080a260c05180f35b63e6c4247b60e01b60c05152600460c051fd5b346102fc5760c0513660031901126102fc57600d546040516001600160a01b039091168152602090f35b346102fc5760403660031901126102fc576024356001600160401b0381116102fc576106379036906004016125ef565b60c051546001600160a01b0316913383900361030f576002546001600160a01b0316803b156102fc5761069993604051809581948293632958334360e21b8452600435600485015260248401526060604484015260c051966064840191612c2b565b039160c051905af180156103025761042e5760c05180f35b346102fc5760c0513660031901126102fc57602060405160c0518152f35b60c0513660031901126102fc576003546001600160a01b0316803b156102fc57604051906327809d8160e21b82528160048160c0519334905af180156103025761042e5760c05180f35b346102fc5760403660031901126102fc57610732612571565b60043560c05152600080516020612f63833981519152602052604060c051209060018060a01b0316600052602052602060ff604060002054166040519015158152f35b346102fc5760c0513660031901126102fc576002546040516001600160a01b039091168152602090f35b346102fc5760c0513660031901126102fc57600080516020612f23833981519152546040516001600160a01b039091168152602090f35b346102fc5760603660031901126102fc5760c051546001600160a01b0316330361030f576002546001600160a01b0316803b156102fc5760405190632174b49d60e21b82526004356004830152602435602483015260443560448301528160648160c0519360c051905af180156103025761042e5760c05180f35b346102fc5760c0513660031901126102fc5761086b612cd5565b6002600080516020612f8383398151915254146109ba576002600080516020612f83833981519152556003546040516331b9e11160e01b815230600482015260c0519091602091839160249183916001600160a01b03165af1801561030257610986575b50478061091a575b60207fbf976dfdcc1bcb99d72a443a84fc204cbfac2908d212dca660b55863a92bdd0391604051908152a16001600080516020612f838339815191525560c05180f35b60c051600080516020612f238339815191525481908190819085906001600160a01b03165af13d15610981573d6109508161259d565b9061095e604051928361253a565b815260c0513d916020013e5b6108d7576312171d8360e31b60c05152600460c051fd5b61096a565b6020813d6020116109b2575b8161099f6020938361253a565b810103126109ad57516108cf565b600080fd5b3d9150610992565b633ee5aeb560e01b60c05152600460c051fd5b346102fc5760203660031901126102fc576109e6612cd5565b6003546001600160a01b0316803b156102fc5760405190631d67c93d60e21b825260043560048301528160248160c0519360c051905af180156103025761042e5760c05180f35b346102fc5760c0513660031901126102fc57600d54600e546202a3008101916001600160a01b0316908210610a6b5760409182519182526020820152f35b634e487b7160e01b60c051526011600452602460c051fd5b346102fc5760c0513660031901126102fc57610a9d612cd5565b600080516020612f2383398151915280546001600160a01b0319811690915560c051906001600160a01b03167f8be0079c531659141344cd1fd0a4f28419497f9722a3daafe3b4186f6b6457e08280a360c05180f35b346102fc576101203660031901126102fc576004356001600160401b0381116102fc57610b249036906004016125ef565b9060e0526024356001600160401b0381116102fc57610b479036906004016125ef565b90610100526044356001600160401b0381116102fc57610b6b9036906004016125ef565b90926064356001600160401b0381116102fc57610b8c9036906004016125ef565b6084356001600160401b0381116102fc57610bab9036906004016125ef565b91909360a4356001600160401b0381116102fc57610bcd9036906004016125ef565b949060c4356001600160401b0381116102fc57610bee9036906004016125ef565b97909260e4356001600160401b0381116102fc57610c109036906004016125ef565b6080529b610104356001600160401b0381116102fc57610c349036906004016125ef565b9c9096610c3f612cd5565b60405160a05260a051610c5190612508565b3660e05191610c5f926125b8565b60a05152366101005191610c72926125b8565b9a60a0516020019b8c523690610c87926125b8565b9560a0516040019687523690610c9c926125b8565b9560a0516060019687523690610cb1926125b8565b9560a0516080019687523690610cc6926125b8565b9560a05160a0019687523690610cdb926125b8565b9760a05160c00198895236608051610cf2926125b8565b9660a05160e0019788523690610d07926125b8565b9460a0516101000195865260a051518051906001600160401b03821161113c57610d3260045461261c565b601f8111611677575b506020906001601f84111461160b57918091610d6f9360c05192611600575b50508160011b916000199060031b1c19161790565b6004555b518051906001600160401b03821161113c57610d9060055461261c565b601f81116115cb575b506020906001601f84111461155f57918091610dcc9360c051926115545750508160011b916000199060031b1c19161790565b6005555b518051906001600160401b03821161113c57610ded60065461261c565b601f811161151f575b506020906001601f8411146114b357918091610e299360c051926114a85750508160011b916000199060031b1c19161790565b6006555b518051906001600160401b03821161113c57610e4a60075461261c565b601f8111611473575b506020906001601f84111461140757918091610e869360c051926113fc5750508160011b916000199060031b1c19161790565b6007555b518051906001600160401b03821161113c57610ea760085461261c565b601f81116113c7575b506020906001601f84111461135b57918091610ee39360c051926113505750508160011b916000199060031b1c19161790565b6008555b519283516001600160401b03811161113c57610f0460095461261c565b601f811161131b575b506020946001601f8311146112b157610f4292939495829160c051926112a65750508160011b916000199060031b1c19161790565b6009555b519182516001600160401b03811161113c57610f63600a5461261c565b601f8111611271575b5060206001601f831114611207578190610f9f93949560c051926111fc5750508160011b916000199060031b1c19161790565b600a555b519081516001600160401b03811161113c57610fc0600b5461261c565b601f81116111c7575b506020926001601f83111461115f57610ffc9293829160c051926111545750508160011b916000199060031b1c19161790565b600b555b5180516001600160401b03811161113c5761101c600c5461261c565b601f81116110fc575b506020916001601f8311146110955761105792829160c0519261108a5750508160011b916000199060031b1c19161790565b600c555b307fb01ce3352db8250e910be1c254a1a9fc249b00caf0a25b5b72ca70592023867e60c05160c051a260c05180f35b015190508380610d5a565b601f19821692600c60c051528060c051209160c0515b8581106110e4575083600195106110cb575b505050811b01600c5561105b565b015160001960f88460031b161c191690558280806110bd565b919260206001819286850151815501940192016110ab565b61112c90600c60c05152602060c05120601f840160051c81019160208510611132575b601f0160051c0190612c90565b82611025565b909150819061111f565b634e487b7160e01b60c051526041600452602460c051fd5b015190508480610d5a565b601f19821693600b60c051528060c051209160c0515b8681106111af5750836001959610611196575b505050811b01600b55611000565b015160001960f88460031b161c19169055838080611188565b91926020600181928685015181550194019201611175565b6111f690600b60c05152602060c05120601f840160051c8101916020851061113257601f0160051c0190612c90565b83610fc9565b015190508580610d5a565b601f19821690600a60c051528060c051209160c0515b81811061125957509583600195969710611240575b505050811b01600a55610fa3565b015160001960f88460031b161c19169055848080611232565b9192602060018192868b01518155019401920161121d565b6112a090600a60c05152602060c05120601f840160051c8101916020851061113257601f0160051c0190612c90565b84610f6c565b015190508680610d5a565b601f19821695600960c051528060c051209160c0515b888110611303575083600195969798106112ea575b505050811b01600955610f46565b015160001960f88460031b161c191690558580806112dc565b919260206001819286850151815501940192016112c7565b61134a90600960c05152602060c05120601f840160051c8101916020851061113257601f0160051c0190612c90565b85610f0d565b015190508780610d5a565b90601f19831691600860c051528160c051209260c0515b8181106113af5750908460019594939210611396575b505050811b01600855610ee7565b015160001960f88460031b161c19169055868080611388565b92936020600181928786015181550195019301611372565b6113f690600860c05152602060c05120601f850160051c8101916020861061113257601f0160051c0190612c90565b86610eb0565b015190508880610d5a565b90601f19831691600760c051528160c051209260c0515b81811061145b5750908460019594939210611442575b505050811b01600755610e8a565b015160001960f88460031b161c19169055878080611434565b9293602060018192878601518155019501930161141e565b6114a290600760c05152602060c05120601f850160051c8101916020861061113257601f0160051c0190612c90565b87610e53565b015190508980610d5a565b90601f19831691600660c051528160c051209260c0515b81811061150757509084600195949392106114ee575b505050811b01600655610e2d565b015160001960f88460031b161c191690558880806114e0565b929360206001819287860151815501950193016114ca565b61154e90600660c05152602060c05120601f850160051c8101916020861061113257601f0160051c0190612c90565b88610df6565b015190508a80610d5a565b90601f19831691600560c051528160c051209260c0515b8181106115b3575090846001959493921061159a575b505050811b01600555610dd0565b015160001960f88460031b161c1916905589808061158c565b92936020600181928786015181550195019301611576565b6115fa90600560c05152602060c05120601f850160051c8101916020861061113257601f0160051c0190612c90565b89610d99565b015190508b80610d5a565b90601f19831691600460c051528160c051209260c0515b81811061165f5750908460019594939210611646575b505050811b01600455610d73565b015160001960f88460031b161c191690558a8080611638565b92936020600181928786015181550195019301611622565b6116a690600460c05152602060c05120601f850160051c8101916020861061113257601f0160051c0190612c90565b8a610d3b565b346102fc5760c0513660031901126102fc576003546040516001600160a01b039091168152602090f35b346102fc5760c03660031901126102fc5760443560058110156102fc5760c051546001600160a01b0316330361030f576002546001600160a01b0316803b156102fc57611744604051926303bd15f760e41b8452600435600485015260243560248501526044840190612c08565b6064356064830152608435608483015260a43560a48301528160c48160c0519360c051905af180156103025761042e5760c05180f35b346102fc5760c0513660031901126102fc5760405161179881612508565b60608152602081016060905260408101606090526060810160609052608081016060905260a081016060905260c081016060905260e081016060905261010001606090526040516117e881612508565b6117f0612656565b81526117fa61270f565b906020810191825261180a6127a6565b6040820190815261181961283d565b606083019081526118286128d4565b6080840190815261183761296b565b60a08501908152611846612a02565b9160c08601928352611856612a99565b9360e08701948552611866612b30565b95610100880196875260405198899860208a525160208a0161012090526101408a0161189191612bc7565b9051898203601f190160408b01526118a99190612bc7565b9051888203601f190160608a01526118c19190612bc7565b9051878203601f190160808901526118d99190612bc7565b9051868203601f190160a08801526118f19190612bc7565b9051858203601f190160c08701526119099190612bc7565b9051848203601f190160e08601526119219190612bc7565b9051838203601f190161010085015261193a9190612bc7565b9051828203601f19016101208401526119539190612bc7565b0390f35b346102fc5760403660031901126102fc57611970612571565b336001600160a01b0382160361198c576103ac90600435612e54565b63334bd91960e11b60c05152600460c051fd5b346102fc5760603660031901126102fc576119b861255b565b6119c0612571565b6119c8612587565b916119d1612cd5565b600280546001600160a01b03199081166001600160a01b0393841617909155600f805482169383169390931790925560038054909216921691909117905560c05180f35b346102fc5760c0513660031901126102fc576020600e54604051908152f35b346102fc5760403660031901126102fc576103ac600435611a53612571565b90611a606103a282612c6f565b612dab565b346102fc5760c0513660031901126102fc57611a7f612656565b611a8761270f565b90611a906127a6565b611a9861283d565b611aa06128d4565b611aa861296b565b611ab0612a02565b91611ab9612a99565b93611ac2612b30565b956040519889986101208a526101208a01611adc91612bc7565b89810360208b0152611aed91612bc7565b88810360408a0152611afe91612bc7565b8781036060890152611b0f91612bc7565b8681036080880152611b2091612bc7565b85810360a0870152611b3191612bc7565b84810360c0860152611b4291612bc7565b83810360e0850152611b5391612bc7565b82810361010084015261195391612bc7565b346102fc5760203660031901126102fc576020611b83600435612c6f565b604051908152f35b346102fc5760c0513660031901126102fc57611ba5612cd5565b600d80546001600160a01b031916905560c051600e81905533907eb334d48212744a72c175981c22526853650187117dd8a19a056744778e7bc79080a260c05180f35b346102fc5760a03660031901126102fc57611c0161255b565b611c09612571565b611c11612587565b6064356001600160a01b03811691908290036102fc576084356001600160a01b03811694908590036102fc57600080516020612fa38339815191525460ff8160401c1615946001600160401b03821680159081611df9575b6001149081611def575b159081611de6575b50611dd35767ffffffffffffffff198216600117600080516020612fa383398151915255611cf29186611da6575b50611cb2612ef4565b611cba612ef4565b611cc381612ca7565b611ccb612ef4565b611cd3612ef4565b611cdb612ef4565b6001600080516020612f8383398151915255612d0b565b600180546001600160a01b03199081166001600160a01b039384161790915560c0518054821687178155600380548316949093169390931790915560028054909116929092179091556040519290600080516020612f438339815191529080a2611d5c5760c05180f35b600080516020612fa3833981519152805460ff60401b19169055600181527fc7f505b2f371ae2175ee4913f4499e1f2633a7b5936321eed1cdaeb6115181d290602090a1806102dd565b68ffffffffffffffffff19166801000000000000000117600080516020612fa38339815191525587611ca9565b63f92ee8a960e01b60c05152600460c051fd5b90501588611c7b565b303b159150611c73565b879150611c69565b346102fc5760203660031901126102fc57611e1a61255b565b611e22612cd5565b6001600160a01b031680156105ca57600d80546001600160a01b0319168217905542600e5560c0515460015460405163b94a11ad60e01b81526001600160a01b0392831692909160209183916004918391165afa9081156103025760c05191611ec1575b506020611eb47f376f4d5124ea9a3be8826cad46fe7d789be0cea83c1255f6af14117b2d91302c9242612c4c565b604051908152a360c05180f35b90506020813d602011611eec575b81611edc6020938361253a565b810103126109ad57516020611e86565b3d9150611ecf565b346102fc5760c0513660031901126102fc57600d546001600160a01b03811690811561207f57600e5460015460405163b94a11ad60e01b81529190602090839060049082906001600160a01b03165afa9081156103025760c05191612049575b611f5e9250612c4c565b421061203657600080516020612f23833981519152546001600160a01b03163314158061202c575b611ff65760c05180546001600160a01b031980821685178355909216600d55600e81905582916001600160a01b0316907fb428daa4a99df59aa0fffe20e760468dadadddabc368805b6c1ef723d37688249080a3600080516020612f4383398151915260c05160c051a260c05180f35b60405162461bcd60e51b815260206004820152600e60248201526d139bdd08185d5d1a1bdc9a5e995960921b6044820152606490fd5b5081331415611f86565b636f273c8d60e11b60c05152600460c051fd5b90506020823d602011612077575b816120646020938361253a565b810103126109ad57611f5e915190611f54565b3d9150612057565b639c2af11f60e01b60c05152600460c051fd5b346102fc5760a03660031901126102fc576064356001600160401b0381116102fc576120c29036906004016125ef565b6084356001600160401b0381116102fc576120e19036906004016125ef565b92909160018060a01b0360c05154169081330361030f576002546001600160a01b031691823b156102fc576106996121559660405197889687958695632af7cb7f60e01b8752600435600488015260243560248801526044356044880152606487015260c0608487015260c4860191612c2b565b906003198483030160a485015260c05197612c2b565b346102fc5760203660031901126102fc576004356001600160401b0381116102fc5760e060031982360301126102fc5760405160e081018181106001600160401b0382111761113c576040528160040135815260208101906024830135825260408101926044810135845260608201936064820135855260808301916084810135835260a48101359060058210156102fc5760a0850191825260c4810135906001600160401b0382116102fc570192366023850112156102fc576004840135936001600160401b03851161113c578460051b906040519561224f602084018861253a565b865260208601918101602401903682116102fc5760248101925b8284106123d8575050505060c085810194855251546001600160a01b0316330361030f576002546001600160a01b031696873b156102fc576122e993604051976303d1491760e01b8952602060048a01526101048901975160248a01525160448901525160648801525160848701525160a48601525160c4850190612c08565b519060e060e48401528151809152610124830160206101248360051b86010193019160c0515b8181106123465760c05186908180880381838c5af18015610302576123345760c05180f35b60c0516123409161253a565b806102dd565b9091929361012319868203018452845190815160028110156123c0576001928260209392849352848060a01b038383015116838201526040820151604082015260a0806123a2606085015160c0606086015260c0850190612bc7565b6080808601511515908501529301519101529601940192910161230f565b634e487b7160e01b60c051526021600452602460c051fd5b83356001600160401b0381116102fc5760049083010160c0601f1982360301126102fc576040519160c083018381106001600160401b0382111761113c57604052602082013560028110156102fc57835260408201356001600160a01b03811681036102fc5760208401526060820135604084015260808201356001600160401b0381116102fc5760209083010136601f820112156102fc576124829036906020813591016125b8565b606084015260a08201359283151584036102fc5760c06020949385946080840152013560a0820152815201930192612269565b346102fc5760203660031901126102fc576004359063ffffffff60e01b82168092036102fc57602091637965db0b60e01b81149081156124f7575b5015158152f35b6301ffc9a760e01b149050836124f0565b61012081019081106001600160401b0382111761252457604052565b634e487b7160e01b600052604160045260246000fd5b90601f801991011681019081106001600160401b0382111761252457604052565b600435906001600160a01b03821682036109ad57565b602435906001600160a01b03821682036109ad57565b604435906001600160a01b03821682036109ad57565b6001600160401b03811161252457601f01601f191660200190565b9291926125c48261259d565b916125d2604051938461253a565b8294818452818301116109ad578281602093846000960137010152565b9181601f840112156109ad578235916001600160401b0383116109ad57602083818601950101116109ad57565b90600182811c9216801561264c575b602083101461263657565b634e487b7160e01b600052602260045260246000fd5b91607f169161262b565b604051906000826004549161266a8361261c565b80835292600181169081156126f05750600114612690575b61268e9250038361253a565b565b506004600090815290917f8a35acfbc15ff81a39ae7d344fd709f28e8600b4aa8c65c6b64bfe7fe36bd19b5b8183106126d457505090602061268e92820101612682565b60209193508060019154838589010152019101909184926126bc565b6020925061268e94915060ff191682840152151560051b820101612682565b60405190600082600554916127238361261c565b80835292600181169081156126f057506001146127465761268e9250038361253a565b506005600090815290917f036b6384b5eca791c62761152d0c79bb0604c104a5fb6f4eb0703f3154bb3db05b81831061278a57505090602061268e92820101612682565b6020919350806001915483858901015201910190918492612772565b60405190600082600654916127ba8361261c565b80835292600181169081156126f057506001146127dd5761268e9250038361253a565b506006600090815290917ff652222313e28459528d920b65115c16c04f3efc82aaedc97be59f3f377c0d3f5b81831061282157505090602061268e92820101612682565b6020919350806001915483858901015201910190918492612809565b60405190600082600754916128518361261c565b80835292600181169081156126f057506001146128745761268e9250038361253a565b506007600090815290917fa66cc928b5edb82af9bd49922954155ab7b0942694bea4ce44661d9a8736c6885b8183106128b857505090602061268e92820101612682565b60209193508060019154838589010152019101909184926128a0565b60405190600082600854916128e88361261c565b80835292600181169081156126f0575060011461290b5761268e9250038361253a565b506008600090815290917ff3f7a9fe364faab93b216da50a3214154f22a0a2b415b23a84c8169e8b636ee35b81831061294f57505090602061268e92820101612682565b6020919350806001915483858901015201910190918492612937565b604051906000826009549161297f8361261c565b80835292600181169081156126f057506001146129a25761268e9250038361253a565b506009600090815290917f6e1540171b6c0c960b71a7020d9f60077f6af931a8bbf590da0223dacf75c7af5b8183106129e657505090602061268e92820101612682565b60209193508060019154838589010152019101909184926129ce565b60405190600082600a5491612a168361261c565b80835292600181169081156126f05750600114612a395761268e9250038361253a565b50600a600090815290917fc65a7bb8d6351c1cf70c95a316cc6a92839c986682d98bc35f958f4883f9d2a85b818310612a7d57505090602061268e92820101612682565b6020919350806001915483858901015201910190918492612a65565b60405190600082600b5491612aad8361261c565b80835292600181169081156126f05750600114612ad05761268e9250038361253a565b50600b600090815290917f0175b7a638427703f0dbe7bb9bbf987a2551717b34e79f33b5b1008d1fa01db95b818310612b1457505090602061268e92820101612682565b6020919350806001915483858901015201910190918492612afc565b60405190600082600c5491612b448361261c565b80835292600181169081156126f05750600114612b675761268e9250038361253a565b50600c600090815290917fdf6966c971051c3d54ec59162606531493a51404a002842f56009d7e5cf4a8c75b818310612bab57505090602061268e92820101612682565b6020919350806001915483858901015201910190918492612b93565b919082519283825260005b848110612bf3575050826000602080949584010152601f8019910116010190565b80602080928401015182828601015201612bd2565b906005821015612c155752565b634e487b7160e01b600052602160045260246000fd5b908060209392818452848401376000828201840152601f01601f1916010190565b91908201809211612c5957565b634e487b7160e01b600052601160045260246000fd5b600052600080516020612f6383398151915260205260016040600020015490565b818110612c9b575050565b60008155600101612c90565b6001600160a01b03811615612cbf5761268e90612d0b565b631e4fbdf760e01b600052600060045260246000fd5b600080516020612f23833981519152546001600160a01b03163303612cf657565b63118cdaa760e01b6000523360045260246000fd5b600080516020612f2383398151915280546001600160a01b039283166001600160a01b0319821681179092559091167f8be0079c531659141344cd1fd0a4f28419497f9722a3daafe3b4186f6b6457e0600080a3565b6000818152600080516020612f638339815191526020908152604080832033845290915290205460ff1615612d935750565b63e2517d3f60e01b6000523360045260245260446000fd5b6000818152600080516020612f63833981519152602090815260408083206001600160a01b038616845290915290205460ff16612e4d576000818152600080516020612f63833981519152602090815260408083206001600160a01b0395909516808452949091528120805460ff19166001179055339291907f2f8788117e7eff1d82e926ec794901d17c78024a50270940304540a733656f0d9080a4600190565b5050600090565b6000818152600080516020612f63833981519152602090815260408083206001600160a01b038616845290915290205460ff1615612e4d576000818152600080516020612f63833981519152602090815260408083206001600160a01b0395909516808452949091528120805460ff19169055339291907ff6391f5c32d9c69d2a47ea670b442974b53935d1edc7fd64eb21e047a839171b9080a4600190565b60ff600080516020612fa38339815191525460401c1615612f1157565b631afcd79f60e31b60005260046000fdfe9016d09d72d40fdae2fd8ceac6b6234c7706214fd39c1cd1e609a0528c19930099d737e0adf2c449d71890b86772885ec7959b152ddb265f76325b6e68e105d302dd7bc7dec4dceedda775e58dd541e08a116c6c53815c0bd028192f7b6268009b779b17422d0df92223018b32b4d1fa46e071723d6817e2486d003becc55f00f0c57e16840df040f15088dc2f81fe391c3923bec73e23a9662efc9c229c6a00a26469706673582212208aae3a6d7156e78a99a591f98aa24b9c33dc5dcc4d512de38ba54bb54bdc00fb64736f6c634300081c0033",
  "linkReferences": {},
  "deployedLinkReferences": {}
}