{
  "_format": "hh-sol-artifact-1",
  "contractName": "MockGenStaking",
  "sourceName": "contracts/test-helpers/MockGenStaking.sol",
  "abi": [
    {
      "inputs": [
        {
          "internalType": "address",
          "name": "_transactions",
          "type": "address"
        }
      ],
      "stateMutability": "nonpayable",
      "type": "constructor"
    },
    {
      "inputs": [],
      "name": "DeepthoughtCallFailed",
      "type": "error"
    },
    {
      "inputs": [],
      "name": "DelegatorBelowMinimumStake",
      "type": "error"
    },
    {
      "inputs": [],
      "name": "DelegatorExitExceedsShares",
      "type": "error"
    },
    {
      "inputs": [],
      "name": "DelegatorExitWouldBeBelowMinimum",
      "type": "error"
    },
    {
      "inputs": [],
      "name": "DelegatorMayNotJoinTwoValidatorsSimultaneously",
      "type": "error"
    },
    {
      "inputs": [],
      "name": "DelegatorMayNotJoinWithZeroValue",
      "type": "error"
    },
    {
      "inputs": [],
      "name": "EpochAdvanceNotReady",
      "type": "error"
    },
    {
      "inputs": [],
      "name": "EpochAlreadyFinalized",
      "type": "error"
    },
    {
      "inputs": [],
      "name": "EpochNotFinalized",
      "type": "error"
    },
    {
      "inputs": [],
      "name": "EpochNotFinished",
      "type": "error"
    },
    {
      "inputs": [
        {
          "internalType": "address",
          "name": "validator",
          "type": "address"
        }
      ],
      "name": "FailedTransfer",
      "type": "error"
    },
    {
      "inputs": [],
      "name": "InflationAlreadyInitialized",
      "type": "error"
    },
    {
      "inputs": [],
      "name": "InflationAlreadyReceived",
      "type": "error"
    },
    {
      "inputs": [],
      "name": "InflationInvalidAmount",
      "type": "error"
    },
    {
      "inputs": [],
      "name": "InvalidAtEpoch",
      "type": "error"
    },
    {
      "inputs": [],
      "name": "InvalidOperatorAddress",
      "type": "error"
    },
    {
      "inputs": [],
      "name": "MaxNumberOfValidatorsReached",
      "type": "error"
    },
    {
      "inputs": [],
      "name": "MaxValidatorsCannotBeZero",
      "type": "error"
    },
    {
      "inputs": [],
      "name": "NFTMinterCallFailed",
      "type": "error"
    },
    {
      "inputs": [],
      "name": "NFTMinterNotConfigured",
      "type": "error"
    },
    {
      "inputs": [],
      "name": "NoBurning",
      "type": "error"
    },
    {
      "inputs": [],
      "name": "NoValidatorsAvailable",
      "type": "error"
    },
    {
      "inputs": [],
      "name": "NumberOfValidatorsExceedsAvailable",
      "type": "error"
    },
    {
      "inputs": [],
      "name": "OnlyGEN",
      "type": "error"
    },
    {
      "inputs": [],
      "name": "OnlyIdleness",
      "type": "error"
    },
    {
      "inputs": [],
      "name": "OnlyIdlenessOrTribunal",
      "type": "error"
    },
    {
      "inputs": [],
      "name": "OnlyTransactions",
      "type": "error"
    },
    {
      "inputs": [],
      "name": "OnlyTransactionsOrTribunal",
      "type": "error"
    },
    {
      "inputs": [],
      "name": "OnlyTribunal",
      "type": "error"
    },
    {
      "inputs": [],
      "name": "OperatorAlreadyAssigned",
      "type": "error"
    },
    {
      "inputs": [
        {
          "internalType": "uint256",
          "name": "epoch",
          "type": "uint256"
        }
      ],
      "name": "PendingTribunals",
      "type": "error"
    },
    {
      "inputs": [],
      "name": "PreviousEpochNotFinalizable",
      "type": "error"
    },
    {
      "inputs": [],
      "name": "ReductionFactorCannotBeZero",
      "type": "error"
    },
    {
      "inputs": [],
      "name": "ValidValidatorNotFound",
      "type": "error"
    },
    {
      "inputs": [],
      "name": "ValidatorAlreadyJoined",
      "type": "error"
    },
    {
      "inputs": [],
      "name": "ValidatorBelowMinimumStake",
      "type": "error"
    },
    {
      "inputs": [],
      "name": "ValidatorExitExceedsShares",
      "type": "error"
    },
    {
      "inputs": [],
      "name": "ValidatorMayNotBeDelegator",
      "type": "error"
    },
    {
      "inputs": [],
      "name": "ValidatorMayNotDepositZeroValue",
      "type": "error"
    },
    {
      "inputs": [],
      "name": "ValidatorMayNotJoinWithZeroValue",
      "type": "error"
    },
    {
      "inputs": [],
      "name": "ValidatorMustNotBeDelegator",
      "type": "error"
    },
    {
      "inputs": [],
      "name": "ValidatorNotActive",
      "type": "error"
    },
    {
      "inputs": [],
      "name": "ValidatorNotJoined",
      "type": "error"
    },
    {
      "inputs": [],
      "name": "ValidatorWithdrawalExceedsStake",
      "type": "error"
    },
    {
      "inputs": [],
      "name": "ValidatorsConsumed",
      "type": "error"
    },
    {
      "inputs": [],
      "name": "ValidatorsUnavailable",
      "type": "error"
    },
    {
      "anonymous": false,
      "inputs": [],
      "name": "AllValidatorBansRemoved",
      "type": "event"
    },
    {
      "anonymous": false,
      "inputs": [
        {
          "indexed": false,
          "internalType": "uint256",
          "name": "amount",
          "type": "uint256"
        }
      ],
      "name": "BurnToL1",
      "type": "event"
    },
    {
      "anonymous": false,
      "inputs": [
        {
          "indexed": false,
          "internalType": "address",
          "name": "delegator",
          "type": "address"
        },
        {
          "indexed": false,
          "internalType": "uint256",
          "name": "amount",
          "type": "uint256"
        }
      ],
      "name": "DelegatorClaim",
      "type": "event"
    },
    {
      "anonymous": false,
      "inputs": [
        {
          "indexed": false,
          "internalType": "address",
          "name": "validator",
          "type": "address"
        },
        {
          "indexed": false,
          "internalType": "address",
          "name": "delegator",
          "type": "address"
        },
        {
          "indexed": false,
          "internalType": "uint256",
          "name": "amount",
          "type": "uint256"
        }
      ],
      "name": "DelegatorExit",
      "type": "event"
    },
    {
      "anonymous": false,
      "inputs": [
        {
          "indexed": false,
          "internalType": "address",
          "name": "validator",
          "type": "address"
        },
        {
          "indexed": false,
          "internalType": "address",
          "name": "delegator",
          "type": "address"
        },
        {
          "indexed": false,
          "internalType": "uint256",
          "name": "amount",
          "type": "uint256"
        }
      ],
      "name": "DelegatorJoin",
      "type": "event"
    },
    {
      "anonymous": false,
      "inputs": [
        {
          "indexed": false,
          "internalType": "uint256",
          "name": "epoch",
          "type": "uint256"
        }
      ],
      "name": "EpochAdvance",
      "type": "event"
    },
    {
      "anonymous": false,
      "inputs": [
        {
          "indexed": false,
          "internalType": "uint256",
          "name": "epoch",
          "type": "uint256"
        }
      ],
      "name": "EpochFinalize",
      "type": "event"
    },
    {
      "anonymous": false,
      "inputs": [
        {
          "indexed": false,
          "internalType": "uint256",
          "name": "epoch",
          "type": "uint256"
        }
      ],
      "name": "EpochHasPendingTribunals",
      "type": "event"
    },
    {
      "anonymous": false,
      "inputs": [
        {
          "indexed": false,
          "internalType": "uint256",
          "name": "timestamp",
          "type": "uint256"
        }
      ],
      "name": "EpochZeroEnded",
      "type": "event"
    },
    {
      "anonymous": false,
      "inputs": [
        {
          "indexed": false,
          "internalType": "uint256",
          "name": "timestamp",
          "type": "uint256"
        }
      ],
      "name": "InflationInitiated",
      "type": "event"
    },
    {
      "anonymous": false,
      "inputs": [
        {
          "indexed": false,
          "internalType": "uint256",
          "name": "amount",
          "type": "uint256"
        },
        {
          "indexed": false,
          "internalType": "uint256",
          "name": "epoch",
          "type": "uint256"
        }
      ],
      "name": "InflationReceived",
      "type": "event"
    },
    {
      "anonymous": false,
      "inputs": [
        {
          "indexed": false,
          "internalType": "address",
          "name": "deepthought",
          "type": "address"
        }
      ],
      "name": "SetDeepthought",
      "type": "event"
    },
    {
      "anonymous": false,
      "inputs": [
        {
          "indexed": false,
          "internalType": "uint256",
          "name": "delegatorMinStake",
          "type": "uint256"
        }
      ],
      "name": "SetDelegatorMinimumStake",
      "type": "event"
    },
    {
      "anonymous": false,
      "inputs": [
        {
          "indexed": false,
          "internalType": "uint256",
          "name": "epochMinDuration",
          "type": "uint256"
        }
      ],
      "name": "SetEpochMinDuration",
      "type": "event"
    },
    {
      "anonymous": false,
      "inputs": [
        {
          "indexed": false,
          "internalType": "uint256",
          "name": "epochMinDurationThreshold",
          "type": "uint256"
        }
      ],
      "name": "SetEpochMinDurationThreshold",
      "type": "event"
    },
    {
      "anonymous": false,
      "inputs": [
        {
          "indexed": false,
          "internalType": "uint256",
          "name": "epochZeroMinDuration",
          "type": "uint256"
        }
      ],
      "name": "SetEpochZeroMinDuration",
      "type": "event"
    },
    {
      "anonymous": false,
      "inputs": [
        {
          "indexed": false,
          "internalType": "address",
          "name": "gen",
          "type": "address"
        }
      ],
      "name": "SetGen",
      "type": "event"
    },
    {
      "anonymous": false,
      "inputs": [
        {
          "indexed": false,
          "internalType": "uint256",
          "name": "maxValidators",
          "type": "uint256"
        }
      ],
      "name": "SetMaxValidators",
      "type": "event"
    },
    {
      "anonymous": false,
      "inputs": [
        {
          "indexed": false,
          "internalType": "uint256",
          "name": "reductionFactor",
          "type": "uint256"
        }
      ],
      "name": "SetReductionFactor",
      "type": "event"
    },
    {
      "anonymous": false,
      "inputs": [
        {
          "indexed": false,
          "internalType": "address",
          "name": "stakingInvariant",
          "type": "address"
        }
      ],
      "name": "SetStakingInvariant",
      "type": "event"
    },
    {
      "anonymous": false,
      "inputs": [
        {
          "indexed": false,
          "internalType": "uint256",
          "name": "delegatorUnbondingPeriod",
          "type": "uint256"
        },
        {
          "indexed": false,
          "internalType": "uint256",
          "name": "validatorUnbondingPeriod",
          "type": "uint256"
        }
      ],
      "name": "SetUnbondingPeriods",
      "type": "event"
    },
    {
      "anonymous": false,
      "inputs": [
        {
          "indexed": false,
          "internalType": "uint256",
          "name": "validatorMinStake",
          "type": "uint256"
        }
      ],
      "name": "SetValidatorMinimumStake",
      "type": "event"
    },
    {
      "anonymous": false,
      "inputs": [
        {
          "indexed": false,
          "internalType": "uint256",
          "name": "alpha",
          "type": "uint256"
        },
        {
          "indexed": false,
          "internalType": "uint256",
          "name": "beta",
          "type": "uint256"
        }
      ],
      "name": "SetValidatorWeightParams",
      "type": "event"
    },
    {
      "anonymous": false,
      "inputs": [
        {
          "indexed": false,
          "internalType": "address",
          "name": "validator",
          "type": "address"
        }
      ],
      "name": "ValidatorBanRemoved",
      "type": "event"
    },
    {
      "anonymous": false,
      "inputs": [
        {
          "indexed": false,
          "internalType": "address",
          "name": "validator",
          "type": "address"
        }
      ],
      "name": "ValidatorBannedDeterministic",
      "type": "event"
    },
    {
      "anonymous": false,
      "inputs": [
        {
          "indexed": false,
          "internalType": "address",
          "name": "validator",
          "type": "address"
        },
        {
          "indexed": false,
          "internalType": "uint256",
          "name": "bannedAt",
          "type": "uint256"
        },
        {
          "indexed": false,
          "internalType": "uint256",
          "name": "bannedUntil",
          "type": "uint256"
        }
      ],
      "name": "ValidatorBannedIdleness",
      "type": "event"
    },
    {
      "anonymous": false,
      "inputs": [
        {
          "indexed": false,
          "internalType": "address",
          "name": "validator",
          "type": "address"
        },
        {
          "indexed": false,
          "internalType": "uint256",
          "name": "amount",
          "type": "uint256"
        }
      ],
      "name": "ValidatorClaim",
      "type": "event"
    },
    {
      "anonymous": false,
      "inputs": [
        {
          "indexed": false,
          "internalType": "address",
          "name": "validator",
          "type": "address"
        },
        {
          "indexed": false,
          "internalType": "uint256",
          "name": "amount",
          "type": "uint256"
        }
      ],
      "name": "ValidatorDeposit",
      "type": "event"
    },
    {
      "anonymous": false,
      "inputs": [
        {
          "indexed": false,
          "internalType": "address",
          "name": "validator",
          "type": "address"
        },
        {
          "indexed": false,
          "internalType": "uint256",
          "name": "amount",
          "type": "uint256"
        }
      ],
      "name": "ValidatorExit",
      "type": "event"
    },
    {
      "anonymous": false,
      "inputs": [
        {
          "indexed": false,
          "internalType": "address",
          "name": "operator",
          "type": "address"
        },
        {
          "indexed": false,
          "internalType": "address",
          "name": "validator",
          "type": "address"
        },
        {
          "indexed": false,
          "internalType": "uint256",
          "name": "amount",
          "type": "uint256"
        }
      ],
      "name": "ValidatorJoin",
      "type": "event"
    },
    {
      "anonymous": false,
      "inputs": [
        {
          "indexed": false,
          "internalType": "address",
          "name": "validator",
          "type": "address"
        },
        {
          "indexed": false,
          "internalType": "uint256",
          "name": "epoch",
          "type": "uint256"
        },
        {
          "indexed": false,
          "internalType": "uint256",
          "name": "validatorRewards",
          "type": "uint256"
        },
        {
          "indexed": false,
          "internalType": "uint256",
          "name": "delegatorRewards",
          "type": "uint256"
        }
      ],
      "name": "ValidatorPrime",
      "type": "event"
    },
    {
      "anonymous": false,
      "inputs": [
        {
          "indexed": false,
          "internalType": "address",
          "name": "validator",
          "type": "address"
        }
      ],
      "name": "ValidatorQuarantineRemoved",
      "type": "event"
    },
    {
      "anonymous": false,
      "inputs": [
        {
          "indexed": false,
          "internalType": "address",
          "name": "validator",
          "type": "address"
        }
      ],
      "name": "ValidatorQuarantineRepealed",
      "type": "event"
    },
    {
      "anonymous": false,
      "inputs": [
        {
          "indexed": false,
          "internalType": "address",
          "name": "validator",
          "type": "address"
        },
        {
          "indexed": false,
          "internalType": "uint256",
          "name": "quarantinedAt",
          "type": "uint256"
        }
      ],
      "name": "ValidatorQuarantined",
      "type": "event"
    },
    {
      "anonymous": false,
      "inputs": [
        {
          "indexed": false,
          "internalType": "address",
          "name": "validator",
          "type": "address"
        },
        {
          "indexed": false,
          "internalType": "uint256",
          "name": "validatorSlashing",
          "type": "uint256"
        },
        {
          "indexed": false,
          "internalType": "uint256",
          "name": "delegatorSlashing",
          "type": "uint256"
        },
        {
          "indexed": false,
          "internalType": "uint256",
          "name": "epoch",
          "type": "uint256"
        }
      ],
      "name": "ValidatorSlash",
      "type": "event"
    },
    {
      "inputs": [],
      "name": "DEFAULT_BAN_DURATION_IN_EPOCHS",
      "outputs": [
        {
          "internalType": "uint256",
          "name": "",
          "type": "uint256"
        }
      ],
      "stateMutability": "view",
      "type": "function"
    },
    {
      "inputs": [],
      "name": "DEFAULT_DELEGATOR_MIN_STAKE",
      "outputs": [
        {
          "internalType": "uint256",
          "name": "",
          "type": "uint256"
        }
      ],
      "stateMutability": "view",
      "type": "function"
    },
    {
      "inputs": [],
      "name": "HIGH_VALIDATOR_SELECTION_THRESHOLD",
      "outputs": [
        {
          "internalType": "uint256",
          "name": "",
          "type": "uint256"
        }
      ],
      "stateMutability": "view",
      "type": "function"
    },
    {
      "inputs": [
        {
          "internalType": "address[]",
          "name": "_arr1",
          "type": "address[]"
        },
        {
          "internalType": "address[]",
          "name": "_arr2",
          "type": "address[]"
        }
      ],
      "name": "_concat",
      "outputs": [
        {
          "internalType": "address[]",
          "name": "",
          "type": "address[]"
        }
      ],
      "stateMutability": "pure",
      "type": "function"
    },
    {
      "inputs": [
        {
          "internalType": "address[]",
          "name": "_arr",
          "type": "address[]"
        },
        {
          "internalType": "uint256",
          "name": "_newSize",
          "type": "uint256"
        }
      ],
      "name": "_resize",
      "outputs": [
        {
          "internalType": "address[]",
          "name": "",
          "type": "address[]"
        }
      ],
      "stateMutability": "pure",
      "type": "function"
    },
    {
      "inputs": [
        {
          "internalType": "uint256",
          "name": "_inflation",
          "type": "uint256"
        }
      ],
      "name": "_stakingInflation",
      "outputs": [
        {
          "internalType": "uint256",
          "name": "",
          "type": "uint256"
        }
      ],
      "stateMutability": "pure",
      "type": "function"
    },
    {
      "inputs": [
        {
          "internalType": "uint256",
          "name": "_inflation",
          "type": "uint256"
        }
      ],
      "name": "_validatorInflation",
      "outputs": [
        {
          "internalType": "uint256",
          "name": "",
          "type": "uint256"
        }
      ],
      "stateMutability": "pure",
      "type": "function"
    },
    {
      "inputs": [],
      "name": "activeValidators",
      "outputs": [
        {
          "internalType": "address[]",
          "name": "",
          "type": "address[]"
        }
      ],
      "stateMutability": "view",
      "type": "function"
    },
    {
      "inputs": [],
      "name": "activeValidatorsCount",
      "outputs": [
        {
          "internalType": "uint256",
          "name": "",
          "type": "uint256"
        }
      ],
      "stateMutability": "view",
      "type": "function"
    },
    {
      "inputs": [],
      "name": "activeWeights",
      "outputs": [
        {
          "internalType": "uint256[]",
          "name": "",
          "type": "uint256[]"
        }
      ],
      "stateMutability": "view",
      "type": "function"
    },
    {
      "inputs": [
        {
          "internalType": "address",
          "name": "_validator",
          "type": "address"
        },
        {
          "internalType": "uint256",
          "name": "_weight",
          "type": "uint256"
        }
      ],
      "name": "addValidator",
      "outputs": [],
      "stateMutability": "nonpayable",
      "type": "function"
    },
    {
      "inputs": [
        {
          "internalType": "address",
          "name": "_validator",
          "type": "address"
        }
      ],
      "name": "ban",
      "outputs": [],
      "stateMutability": "nonpayable",
      "type": "function"
    },
    {
      "inputs": [
        {
          "internalType": "address",
          "name": "validator",
          "type": "address"
        }
      ],
      "name": "banned",
      "outputs": [
        {
          "internalType": "uint256",
          "name": "startEpoch",
          "type": "uint256"
        },
        {
          "internalType": "uint256",
          "name": "durationInEpochs",
          "type": "uint256"
        }
      ],
      "stateMutability": "view",
      "type": "function"
    },
    {
      "inputs": [],
      "name": "burning",
      "outputs": [
        {
          "internalType": "uint256",
          "name": "",
          "type": "uint256"
        }
      ],
      "stateMutability": "view",
      "type": "function"
    },
    {
      "inputs": [
        {
          "internalType": "uint256",
          "name": "_inflation",
          "type": "uint256"
        }
      ],
      "name": "deepthoughtInflation",
      "outputs": [
        {
          "internalType": "uint256",
          "name": "",
          "type": "uint256"
        }
      ],
      "stateMutability": "pure",
      "type": "function"
    },
    {
      "inputs": [
        {
          "internalType": "address",
          "name": "_delegator",
          "type": "address"
        },
        {
          "internalType": "address",
          "name": "_validator",
          "type": "address"
        }
      ],
      "name": "delegatorClaim",
      "outputs": [],
      "stateMutability": "nonpayable",
      "type": "function"
    },
    {
      "inputs": [
        {
          "internalType": "address",
          "name": "_delegator",
          "type": "address"
        },
        {
          "internalType": "address",
          "name": "_validator",
          "type": "address"
        },
        {
          "internalType": "uint256",
          "name": "_index",
          "type": "uint256"
        }
      ],
      "name": "delegatorDeposit",
      "outputs": [
        {
          "components": [
            {
              "internalType": "uint256",
              "name": "quantity",
              "type": "uint256"
            },
            {
              "internalType": "uint256",
              "name": "commit",
              "type": "uint256"
            }
          ],
          "internalType": "struct IGenLayerStaking.Claim",
          "name": "claim_",
          "type": "tuple"
        },
        {
          "components": [
            {
              "internalType": "uint256",
              "name": "input",
              "type": "uint256"
            },
            {
              "internalType": "uint256",
              "name": "output",
              "type": "uint256"
            },
            {
              "internalType": "uint256",
              "name": "epoch",
              "type": "uint256"
            },
            {
              "internalType": "uint256",
              "name": "linkToNextCommit",
              "type": "uint256"
            }
          ],
          "internalType": "struct IGenLayerStaking.Commit",
          "name": "commit_",
          "type": "tuple"
        }
      ],
      "stateMutability": "view",
      "type": "function"
    },
    {
      "inputs": [
        {
          "internalType": "address",
          "name": "_delegator",
          "type": "address"
        },
        {
          "internalType": "address",
          "name": "_validator",
          "type": "address"
        },
        {
          "internalType": "uint256",
          "name": "_epoch",
          "type": "uint256"
        }
      ],
      "name": "delegatorDepositByEpoch",
      "outputs": [
        {
          "components": [
            {
              "internalType": "uint256",
              "name": "input",
              "type": "uint256"
            },
            {
              "internalType": "uint256",
              "name": "output",
              "type": "uint256"
            },
            {
              "internalType": "uint256",
              "name": "epoch",
              "type": "uint256"
            },
            {
              "internalType": "uint256",
              "name": "linkToNextCommit",
              "type": "uint256"
            }
          ],
          "internalType": "struct IGenLayerStaking.Commit",
          "name": "commit_",
          "type": "tuple"
        }
      ],
      "stateMutability": "view",
      "type": "function"
    },
    {
      "inputs": [
        {
          "internalType": "address",
          "name": "_delegator",
          "type": "address"
        },
        {
          "internalType": "address",
          "name": "_validator",
          "type": "address"
        }
      ],
      "name": "delegatorDepositLen",
      "outputs": [
        {
          "internalType": "uint256",
          "name": "",
          "type": "uint256"
        }
      ],
      "stateMutability": "view",
      "type": "function"
    },
    {
      "inputs": [
        {
          "internalType": "address",
          "name": "_validator",
          "type": "address"
        },
        {
          "internalType": "uint256",
          "name": "_amount",
          "type": "uint256"
        }
      ],
      "name": "delegatorExit",
      "outputs": [],
      "stateMutability": "nonpayable",
      "type": "function"
    },
    {
      "inputs": [
        {
          "internalType": "address",
          "name": "_validator",
          "type": "address"
        }
      ],
      "name": "delegatorJoin",
      "outputs": [],
      "stateMutability": "payable",
      "type": "function"
    },
    {
      "inputs": [],
      "name": "delegatorMinStake",
      "outputs": [
        {
          "internalType": "uint256",
          "name": "",
          "type": "uint256"
        }
      ],
      "stateMutability": "view",
      "type": "function"
    },
    {
      "inputs": [
        {
          "internalType": "address",
          "name": "_delegator",
          "type": "address"
        },
        {
          "internalType": "address",
          "name": "_validator",
          "type": "address"
        },
        {
          "internalType": "uint256",
          "name": "_index",
          "type": "uint256"
        }
      ],
      "name": "delegatorWithdrawal",
      "outputs": [
        {
          "components": [
            {
              "internalType": "uint256",
              "name": "quantity",
              "type": "uint256"
            },
            {
              "internalType": "uint256",
              "name": "commit",
              "type": "uint256"
            }
          ],
          "internalType": "struct IGenLayerStaking.Claim",
          "name": "claim_",
          "type": "tuple"
        },
        {
          "components": [
            {
              "internalType": "uint256",
              "name": "input",
              "type": "uint256"
            },
            {
              "internalType": "uint256",
              "name": "output",
              "type": "uint256"
            },
            {
              "internalType": "uint256",
              "name": "epoch",
              "type": "uint256"
            },
            {
              "internalType": "uint256",
              "name": "linkToNextCommit",
              "type": "uint256"
            }
          ],
          "internalType": "struct IGenLayerStaking.Commit",
          "name": "commit_",
          "type": "tuple"
        }
      ],
      "stateMutability": "view",
      "type": "function"
    },
    {
      "inputs": [
        {
          "internalType": "address",
          "name": "_delegator",
          "type": "address"
        },
        {
          "internalType": "address",
          "name": "_validator",
          "type": "address"
        },
        {
          "internalType": "uint256",
          "name": "_epoch",
          "type": "uint256"
        }
      ],
      "name": "delegatorWithdrawalByEpoch",
      "outputs": [
        {
          "components": [
            {
              "internalType": "uint256",
              "name": "input",
              "type": "uint256"
            },
            {
              "internalType": "uint256",
              "name": "output",
              "type": "uint256"
            },
            {
              "internalType": "uint256",
              "name": "epoch",
              "type": "uint256"
            },
            {
              "internalType": "uint256",
              "name": "linkToNextCommit",
              "type": "uint256"
            }
          ],
          "internalType": "struct IGenLayerStaking.Commit",
          "name": "commit_",
          "type": "tuple"
        }
      ],
      "stateMutability": "view",
      "type": "function"
    },
    {
      "inputs": [
        {
          "internalType": "address",
          "name": "_delegator",
          "type": "address"
        },
        {
          "internalType": "address",
          "name": "_validator",
          "type": "address"
        }
      ],
      "name": "delegatorWithdrawalLen",
      "outputs": [
        {
          "internalType": "uint256",
          "name": "",
          "type": "uint256"
        }
      ],
      "stateMutability": "view",
      "type": "function"
    },
    {
      "inputs": [
        {
          "internalType": "uint256",
          "name": "_inflation",
          "type": "uint256"
        }
      ],
      "name": "developerInflation",
      "outputs": [
        {
          "internalType": "uint256",
          "name": "",
          "type": "uint256"
        }
      ],
      "stateMutability": "pure",
      "type": "function"
    },
    {
      "inputs": [],
      "name": "epoch",
      "outputs": [
        {
          "internalType": "uint256",
          "name": "",
          "type": "uint256"
        }
      ],
      "stateMutability": "view",
      "type": "function"
    },
    {
      "inputs": [],
      "name": "epochAdvance",
      "outputs": [],
      "stateMutability": "nonpayable",
      "type": "function"
    },
    {
      "inputs": [],
      "name": "epochEven",
      "outputs": [
        {
          "internalType": "uint256",
          "name": "start",
          "type": "uint256"
        },
        {
          "internalType": "uint256",
          "name": "end",
          "type": "uint256"
        },
        {
          "internalType": "uint256",
          "name": "inflation",
          "type": "uint256"
        },
        {
          "internalType": "uint256",
          "name": "weight",
          "type": "uint256"
        },
        {
          "internalType": "uint256",
          "name": "weightDeposit",
          "type": "uint256"
        },
        {
          "internalType": "uint256",
          "name": "weightWithdrawal",
          "type": "uint256"
        },
        {
          "internalType": "uint256",
          "name": "vcount",
          "type": "uint256"
        },
        {
          "internalType": "uint256",
          "name": "claimed",
          "type": "uint256"
        },
        {
          "internalType": "uint256",
          "name": "stakeDeposit",
          "type": "uint256"
        },
        {
          "internalType": "uint256",
          "name": "stakeWithdrawal",
          "type": "uint256"
        },
        {
          "internalType": "uint256",
          "name": "slashed",
          "type": "uint256"
        }
      ],
      "stateMutability": "view",
      "type": "function"
    },
    {
      "inputs": [],
      "name": "epochFinalize",
      "outputs": [],
      "stateMutability": "nonpayable",
      "type": "function"
    },
    {
      "inputs": [],
      "name": "epochFinalizeImmediate",
      "outputs": [],
      "stateMutability": "nonpayable",
      "type": "function"
    },
    {
      "inputs": [
        {
          "internalType": "uint256",
          "name": "_epoch",
          "type": "uint256"
        }
      ],
      "name": "epochInflation",
      "outputs": [
        {
          "internalType": "uint256",
          "name": "",
          "type": "uint256"
        }
      ],
      "stateMutability": "view",
      "type": "function"
    },
    {
      "inputs": [],
      "name": "epochOdd",
      "outputs": [
        {
          "internalType": "uint256",
          "name": "start",
          "type": "uint256"
        },
        {
          "internalType": "uint256",
          "name": "end",
          "type": "uint256"
        },
        {
          "internalType": "uint256",
          "name": "inflation",
          "type": "uint256"
        },
        {
          "internalType": "uint256",
          "name": "weight",
          "type": "uint256"
        },
        {
          "internalType": "uint256",
          "name": "weightDeposit",
          "type": "uint256"
        },
        {
          "internalType": "uint256",
          "name": "weightWithdrawal",
          "type": "uint256"
        },
        {
          "internalType": "uint256",
          "name": "vcount",
          "type": "uint256"
        },
        {
          "internalType": "uint256",
          "name": "claimed",
          "type": "uint256"
        },
        {
          "internalType": "uint256",
          "name": "stakeDeposit",
          "type": "uint256"
        },
        {
          "internalType": "uint256",
          "name": "stakeWithdrawal",
          "type": "uint256"
        },
        {
          "internalType": "uint256",
          "name": "slashed",
          "type": "uint256"
        }
      ],
      "stateMutability": "view",
      "type": "function"
    },
    {
      "inputs": [],
      "name": "finalized",
      "outputs": [
        {
          "internalType": "uint256",
          "name": "",
          "type": "uint256"
        }
      ],
      "stateMutability": "view",
      "type": "function"
    },
    {
      "inputs": [
        {
          "internalType": "uint256",
          "name": "index",
          "type": "uint256"
        }
      ],
      "name": "getAccumWeightItem",
      "outputs": [
        {
          "internalType": "uint256",
          "name": "",
          "type": "uint256"
        }
      ],
      "stateMutability": "view",
      "type": "function"
    },
    {
      "inputs": [
        {
          "internalType": "bytes32",
          "name": "_randomSeed",
          "type": "bytes32"
        },
        {
          "internalType": "uint256",
          "name": "_txCreatedTimestamp",
          "type": "uint256"
        }
      ],
      "name": "getActivatorForSeed",
      "outputs": [
        {
          "internalType": "address",
          "name": "",
          "type": "address"
        }
      ],
      "stateMutability": "view",
      "type": "function"
    },
    {
      "inputs": [
        {
          "internalType": "uint256",
          "name": "_startIndex",
          "type": "uint256"
        },
        {
          "internalType": "uint256",
          "name": "_size",
          "type": "uint256"
        }
      ],
      "name": "getAllBannedValidators",
      "outputs": [
        {
          "components": [
            {
              "internalType": "address",
              "name": "validator",
              "type": "address"
            },
            {
              "internalType": "uint256",
              "name": "untilEpochBanned",
              "type": "uint256"
            },
            {
              "internalType": "bool",
              "name": "permanentlyBanned",
              "type": "bool"
            }
          ],
          "internalType": "struct IGenLayerStaking.BannedValidators[]",
          "name": "",
          "type": "tuple[]"
        }
      ],
      "stateMutability": "pure",
      "type": "function"
    },
    {
      "inputs": [
        {
          "internalType": "uint256",
          "name": "_epoch",
          "type": "uint256"
        },
        {
          "internalType": "uint256",
          "name": "_startIndex",
          "type": "uint256"
        },
        {
          "internalType": "uint256",
          "name": "_size",
          "type": "uint256"
        }
      ],
      "name": "getAllBannedValidatorsForEpoch",
      "outputs": [
        {
          "components": [
            {
              "internalType": "address",
              "name": "validator",
              "type": "address"
            },
            {
              "internalType": "uint256",
              "name": "untilEpochBanned",
              "type": "uint256"
            },
            {
              "internalType": "bool",
              "name": "permanentlyBanned",
              "type": "bool"
            }
          ],
          "internalType": "struct IGenLayerStaking.BannedValidators[]",
          "name": "",
          "type": "tuple[]"
        }
      ],
      "stateMutability": "pure",
      "type": "function"
    },
    {
      "inputs": [
        {
          "internalType": "uint256",
          "name": "_startIndex",
          "type": "uint256"
        },
        {
          "internalType": "uint256",
          "name": "_size",
          "type": "uint256"
        }
      ],
      "name": "getAllQuarantinedValidators",
      "outputs": [
        {
          "components": [
            {
              "internalType": "address",
              "name": "validator",
              "type": "address"
            },
            {
              "internalType": "uint256",
              "name": "untilEpochBanned",
              "type": "uint256"
            },
            {
              "internalType": "bool",
              "name": "permanentlyBanned",
              "type": "bool"
            }
          ],
          "internalType": "struct IGenLayerStaking.BannedValidators[]",
          "name": "",
          "type": "tuple[]"
        }
      ],
      "stateMutability": "pure",
      "type": "function"
    },
    {
      "inputs": [
        {
          "internalType": "uint256",
          "name": "_epoch",
          "type": "uint256"
        },
        {
          "internalType": "uint256",
          "name": "_startIndex",
          "type": "uint256"
        },
        {
          "internalType": "uint256",
          "name": "_size",
          "type": "uint256"
        }
      ],
      "name": "getAllQuarantinedValidatorsForEpoch",
      "outputs": [
        {
          "components": [
            {
              "internalType": "address",
              "name": "validator",
              "type": "address"
            },
            {
              "internalType": "uint256",
              "name": "untilEpochBanned",
              "type": "uint256"
            },
            {
              "internalType": "bool",
              "name": "permanentlyBanned",
              "type": "bool"
            }
          ],
          "internalType": "struct IGenLayerStaking.BannedValidators[]",
          "name": "",
          "type": "tuple[]"
        }
      ],
      "stateMutability": "pure",
      "type": "function"
    },
    {
      "inputs": [],
      "name": "getQuarantinedValidators",
      "outputs": [
        {
          "internalType": "address[]",
          "name": "",
          "type": "address[]"
        }
      ],
      "stateMutability": "view",
      "type": "function"
    },
    {
      "inputs": [],
      "name": "getValidatorBansCount",
      "outputs": [
        {
          "internalType": "uint256",
          "name": "",
          "type": "uint256"
        }
      ],
      "stateMutability": "view",
      "type": "function"
    },
    {
      "inputs": [],
      "name": "getValidatorCount",
      "outputs": [
        {
          "internalType": "uint256",
          "name": "",
          "type": "uint256"
        }
      ],
      "stateMutability": "view",
      "type": "function"
    },
    {
      "inputs": [
        {
          "internalType": "uint256",
          "name": "_epoch",
          "type": "uint256"
        }
      ],
      "name": "getValidatorCount",
      "outputs": [
        {
          "internalType": "uint256",
          "name": "",
          "type": "uint256"
        }
      ],
      "stateMutability": "view",
      "type": "function"
    },
    {
      "inputs": [],
      "name": "getValidatorQuarantineList",
      "outputs": [
        {
          "internalType": "address[]",
          "name": "",
          "type": "address[]"
        }
      ],
      "stateMutability": "view",
      "type": "function"
    },
    {
      "inputs": [],
      "name": "getValidatorsAtCurrentEpoch",
      "outputs": [
        {
          "internalType": "address[]",
          "name": "",
          "type": "address[]"
        }
      ],
      "stateMutability": "view",
      "type": "function"
    },
    {
      "inputs": [],
      "name": "getValidatorsCountInCurrentEpoch",
      "outputs": [
        {
          "internalType": "uint256",
          "name": "",
          "type": "uint256"
        }
      ],
      "stateMutability": "view",
      "type": "function"
    },
    {
      "inputs": [
        {
          "internalType": "uint256",
          "name": "index",
          "type": "uint256"
        }
      ],
      "name": "getValidatorsItem",
      "outputs": [
        {
          "internalType": "address",
          "name": "",
          "type": "address"
        }
      ],
      "stateMutability": "view",
      "type": "function"
    },
    {
      "inputs": [
        {
          "internalType": "address",
          "name": "_validator",
          "type": "address"
        },
        {
          "internalType": "uint256",
          "name": "_quarantinedAt",
          "type": "uint256"
        },
        {
          "internalType": "uint256",
          "name": "_quarantinedUntil",
          "type": "uint256"
        }
      ],
      "name": "idlenessBan",
      "outputs": [],
      "stateMutability": "nonpayable",
      "type": "function"
    },
    {
      "inputs": [
        {
          "internalType": "address[]",
          "name": "_validators",
          "type": "address[]"
        },
        {
          "internalType": "uint256",
          "name": "_quarantinedAt",
          "type": "uint256"
        },
        {
          "internalType": "uint256",
          "name": "_quarantinedUntil",
          "type": "uint256"
        }
      ],
      "name": "idlenessBanBatch",
      "outputs": [],
      "stateMutability": "nonpayable",
      "type": "function"
    },
    {
      "inputs": [
        {
          "internalType": "uint256",
          "name": "_inflationOnset",
          "type": "uint256"
        }
      ],
      "name": "inflationInit",
      "outputs": [],
      "stateMutability": "nonpayable",
      "type": "function"
    },
    {
      "inputs": [
        {
          "internalType": "uint256",
          "name": "_epoch",
          "type": "uint256"
        }
      ],
      "name": "inflationReceive",
      "outputs": [],
      "stateMutability": "payable",
      "type": "function"
    },
    {
      "inputs": [
        {
          "internalType": "address",
          "name": "_validator",
          "type": "address"
        }
      ],
      "name": "isBanned",
      "outputs": [
        {
          "internalType": "bool",
          "name": "",
          "type": "bool"
        }
      ],
      "stateMutability": "view",
      "type": "function"
    },
    {
      "inputs": [
        {
          "internalType": "address",
          "name": "_validator",
          "type": "address"
        }
      ],
      "name": "isQuarantined",
      "outputs": [
        {
          "internalType": "bool",
          "name": "",
          "type": "bool"
        }
      ],
      "stateMutability": "view",
      "type": "function"
    },
    {
      "inputs": [
        {
          "internalType": "address",
          "name": "_potentialValidator",
          "type": "address"
        }
      ],
      "name": "isValidator",
      "outputs": [
        {
          "internalType": "bool",
          "name": "",
          "type": "bool"
        }
      ],
      "stateMutability": "view",
      "type": "function"
    },
    {
      "inputs": [
        {
          "internalType": "address",
          "name": "_potentialValidator",
          "type": "address"
        },
        {
          "internalType": "uint256",
          "name": "_epoch",
          "type": "uint256"
        }
      ],
      "name": "isValidatorAtEpoch",
      "outputs": [
        {
          "internalType": "bool",
          "name": "",
          "type": "bool"
        }
      ],
      "stateMutability": "view",
      "type": "function"
    },
    {
      "inputs": [],
      "name": "numOfBannedValidators",
      "outputs": [
        {
          "internalType": "uint256",
          "name": "",
          "type": "uint256"
        }
      ],
      "stateMutability": "view",
      "type": "function"
    },
    {
      "inputs": [
        {
          "internalType": "address",
          "name": "_validator",
          "type": "address"
        }
      ],
      "name": "quarantine",
      "outputs": [],
      "stateMutability": "nonpayable",
      "type": "function"
    },
    {
      "inputs": [],
      "name": "quarantines",
      "outputs": [
        {
          "internalType": "uint256",
          "name": "quarantineCount",
          "type": "uint256"
        },
        {
          "internalType": "uint256",
          "name": "quarantineDecrementCount",
          "type": "uint256"
        }
      ],
      "stateMutability": "view",
      "type": "function"
    },
    {
      "inputs": [],
      "name": "removeAllFromQuarantine",
      "outputs": [],
      "stateMutability": "nonpayable",
      "type": "function"
    },
    {
      "inputs": [],
      "name": "removeAllValidatorBans",
      "outputs": [],
      "stateMutability": "nonpayable",
      "type": "function"
    },
    {
      "inputs": [
        {
          "internalType": "address",
          "name": "_validator",
          "type": "address"
        }
      ],
      "name": "removeFromBanned",
      "outputs": [],
      "stateMutability": "nonpayable",
      "type": "function"
    },
    {
      "inputs": [
        {
          "internalType": "address",
          "name": "_validator",
          "type": "address"
        }
      ],
      "name": "removeFromQuarantine",
      "outputs": [],
      "stateMutability": "nonpayable",
      "type": "function"
    },
    {
      "inputs": [
        {
          "internalType": "address",
          "name": "_validator",
          "type": "address"
        }
      ],
      "name": "removeValidator",
      "outputs": [],
      "stateMutability": "nonpayable",
      "type": "function"
    },
    {
      "inputs": [
        {
          "internalType": "address",
          "name": "_validator",
          "type": "address"
        }
      ],
      "name": "removeValidatorBan",
      "outputs": [],
      "stateMutability": "nonpayable",
      "type": "function"
    },
    {
      "inputs": [
        {
          "internalType": "address[]",
          "name": "_validators",
          "type": "address[]"
        },
        {
          "internalType": "uint256[]",
          "name": "_weights",
          "type": "uint256[]"
        }
      ],
      "name": "setActiveValidators",
      "outputs": [],
      "stateMutability": "nonpayable",
      "type": "function"
    },
    {
      "inputs": [
        {
          "internalType": "uint256",
          "name": "_epoch",
          "type": "uint256"
        },
        {
          "internalType": "address[]",
          "name": "_validators",
          "type": "address[]"
        },
        {
          "internalType": "uint256[]",
          "name": "_weights",
          "type": "uint256[]"
        }
      ],
      "name": "setActiveValidatorsAtEpoch",
      "outputs": [],
      "stateMutability": "nonpayable",
      "type": "function"
    },
    {
      "inputs": [
        {
          "internalType": "uint256",
          "name": "_delegatorMinStake",
          "type": "uint256"
        }
      ],
      "name": "setDelegatorMinimumStake",
      "outputs": [],
      "stateMutability": "nonpayable",
      "type": "function"
    },
    {
      "inputs": [
        {
          "internalType": "uint256",
          "name": "_epoch",
          "type": "uint256"
        }
      ],
      "name": "setEpoch",
      "outputs": [],
      "stateMutability": "nonpayable",
      "type": "function"
    },
    {
      "inputs": [
        {
          "internalType": "uint256",
          "name": "_epochMinDuration",
          "type": "uint256"
        }
      ],
      "name": "setEpochMinDuration",
      "outputs": [],
      "stateMutability": "nonpayable",
      "type": "function"
    },
    {
      "inputs": [
        {
          "internalType": "uint256",
          "name": "_epochMinDurationThreshold",
          "type": "uint256"
        }
      ],
      "name": "setEpochMinDurationThreshold",
      "outputs": [],
      "stateMutability": "pure",
      "type": "function"
    },
    {
      "inputs": [
        {
          "internalType": "uint256",
          "name": "_epochZeroMinDuration",
          "type": "uint256"
        }
      ],
      "name": "setEpochZeroMinDuration",
      "outputs": [],
      "stateMutability": "nonpayable",
      "type": "function"
    },
    {
      "inputs": [
        {
          "internalType": "address",
          "name": "_gen",
          "type": "address"
        }
      ],
      "name": "setGen",
      "outputs": [],
      "stateMutability": "nonpayable",
      "type": "function"
    },
    {
      "inputs": [
        {
          "internalType": "address",
          "name": "_transactions",
          "type": "address"
        }
      ],
      "name": "setTransactions",
      "outputs": [],
      "stateMutability": "nonpayable",
      "type": "function"
    },
    {
      "inputs": [
        {
          "internalType": "address",
          "name": "_tribunal",
          "type": "address"
        }
      ],
      "name": "setTribunal",
      "outputs": [],
      "stateMutability": "nonpayable",
      "type": "function"
    },
    {
      "inputs": [
        {
          "internalType": "uint256",
          "name": "_validatorMinStake",
          "type": "uint256"
        }
      ],
      "name": "setValidatorMinimumStake",
      "outputs": [],
      "stateMutability": "nonpayable",
      "type": "function"
    },
    {
      "inputs": [
        {
          "internalType": "address",
          "name": "_delegator",
          "type": "address"
        },
        {
          "internalType": "address",
          "name": "_validator",
          "type": "address"
        }
      ],
      "name": "sharesOf",
      "outputs": [
        {
          "internalType": "uint256",
          "name": "",
          "type": "uint256"
        }
      ],
      "stateMutability": "view",
      "type": "function"
    },
    {
      "inputs": [
        {
          "internalType": "address",
          "name": "_delegator",
          "type": "address"
        },
        {
          "internalType": "address",
          "name": "_validator",
          "type": "address"
        }
      ],
      "name": "stakeOf",
      "outputs": [
        {
          "internalType": "uint256",
          "name": "",
          "type": "uint256"
        }
      ],
      "stateMutability": "view",
      "type": "function"
    },
    {
      "inputs": [],
      "name": "transactions",
      "outputs": [
        {
          "internalType": "contract ITransactions",
          "name": "",
          "type": "address"
        }
      ],
      "stateMutability": "view",
      "type": "function"
    },
    {
      "inputs": [],
      "name": "tribunal",
      "outputs": [
        {
          "internalType": "contract ITribunalAppeal",
          "name": "",
          "type": "address"
        }
      ],
      "stateMutability": "view",
      "type": "function"
    },
    {
      "inputs": [
        {
          "internalType": "address",
          "name": "_validator",
          "type": "address"
        }
      ],
      "name": "validatorBanDeterministic",
      "outputs": [],
      "stateMutability": "nonpayable",
      "type": "function"
    },
    {
      "inputs": [
        {
          "internalType": "address",
          "name": "validator",
          "type": "address"
        }
      ],
      "name": "validatorBannedTimestamp",
      "outputs": [
        {
          "internalType": "uint256",
          "name": "bannedTimestamp",
          "type": "uint256"
        }
      ],
      "stateMutability": "view",
      "type": "function"
    },
    {
      "inputs": [
        {
          "internalType": "address",
          "name": "_validator",
          "type": "address"
        }
      ],
      "name": "validatorClaim",
      "outputs": [
        {
          "internalType": "uint256",
          "name": "",
          "type": "uint256"
        }
      ],
      "stateMutability": "nonpayable",
      "type": "function"
    },
    {
      "inputs": [
        {
          "internalType": "address",
          "name": "_validator",
          "type": "address"
        },
        {
          "internalType": "uint256",
          "name": "_index",
          "type": "uint256"
        }
      ],
      "name": "validatorDeposit",
      "outputs": [
        {
          "internalType": "uint256",
          "name": "epoch_",
          "type": "uint256"
        },
        {
          "components": [
            {
              "internalType": "uint256",
              "name": "input",
              "type": "uint256"
            },
            {
              "internalType": "uint256",
              "name": "output",
              "type": "uint256"
            },
            {
              "internalType": "uint256",
              "name": "epoch",
              "type": "uint256"
            },
            {
              "internalType": "uint256",
              "name": "linkToNextCommit",
              "type": "uint256"
            }
          ],
          "internalType": "struct IGenLayerStaking.Commit",
          "name": "commit_",
          "type": "tuple"
        }
      ],
      "stateMutability": "view",
      "type": "function"
    },
    {
      "inputs": [],
      "name": "validatorDeposit",
      "outputs": [],
      "stateMutability": "payable",
      "type": "function"
    },
    {
      "inputs": [
        {
          "internalType": "address",
          "name": "_validator",
          "type": "address"
        },
        {
          "internalType": "uint256",
          "name": "_epoch",
          "type": "uint256"
        }
      ],
      "name": "validatorDepositByEpoch",
      "outputs": [
        {
          "components": [
            {
              "internalType": "uint256",
              "name": "input",
              "type": "uint256"
            },
            {
              "internalType": "uint256",
              "name": "output",
              "type": "uint256"
            },
            {
              "internalType": "uint256",
              "name": "epoch",
              "type": "uint256"
            },
            {
              "internalType": "uint256",
              "name": "linkToNextCommit",
              "type": "uint256"
            }
          ],
          "internalType": "struct IGenLayerStaking.Commit",
          "name": "commit_",
          "type": "tuple"
        }
      ],
      "stateMutability": "view",
      "type": "function"
    },
    {
      "inputs": [
        {
          "internalType": "address",
          "name": "_validator",
          "type": "address"
        }
      ],
      "name": "validatorDepositLen",
      "outputs": [
        {
          "internalType": "uint256",
          "name": "",
          "type": "uint256"
        }
      ],
      "stateMutability": "view",
      "type": "function"
    },
    {
      "inputs": [
        {
          "internalType": "uint256",
          "name": "_amount",
          "type": "uint256"
        }
      ],
      "name": "validatorExit",
      "outputs": [],
      "stateMutability": "nonpayable",
      "type": "function"
    },
    {
      "inputs": [
        {
          "internalType": "address",
          "name": "_operator",
          "type": "address"
        }
      ],
      "name": "validatorJoin",
      "outputs": [
        {
          "internalType": "address",
          "name": "",
          "type": "address"
        }
      ],
      "stateMutability": "payable",
      "type": "function"
    },
    {
      "inputs": [],
      "name": "validatorJoin",
      "outputs": [
        {
          "internalType": "address",
          "name": "",
          "type": "address"
        }
      ],
      "stateMutability": "payable",
      "type": "function"
    },
    {
      "inputs": [
        {
          "internalType": "address",
          "name": "_validator",
          "type": "address"
        }
      ],
      "name": "validatorPrime",
      "outputs": [],
      "stateMutability": "nonpayable",
      "type": "function"
    },
    {
      "inputs": [
        {
          "internalType": "address",
          "name": "_validator",
          "type": "address"
        },
        {
          "internalType": "uint256",
          "name": "_at",
          "type": "uint256"
        }
      ],
      "name": "validatorQuarantine",
      "outputs": [],
      "stateMutability": "nonpayable",
      "type": "function"
    },
    {
      "inputs": [
        {
          "internalType": "address",
          "name": "_validator",
          "type": "address"
        }
      ],
      "name": "validatorQuarantineRepeal",
      "outputs": [],
      "stateMutability": "nonpayable",
      "type": "function"
    },
    {
      "inputs": [
        {
          "internalType": "bytes32",
          "name": "_seed",
          "type": "bytes32"
        },
        {
          "internalType": "uint256",
          "name": "_slot",
          "type": "uint256"
        },
        {
          "internalType": "uint256",
          "name": "_epoch",
          "type": "uint256"
        },
        {
          "internalType": "uint256",
          "name": "_txCreatedTimestamp",
          "type": "uint256"
        },
        {
          "internalType": "uint256",
          "name": "_number",
          "type": "uint256"
        },
        {
          "internalType": "bool",
          "name": "_weighted",
          "type": "bool"
        },
        {
          "internalType": "address[]",
          "name": "_consumed",
          "type": "address[]"
        }
      ],
      "name": "validatorSelection",
      "outputs": [
        {
          "internalType": "uint256",
          "name": "leader_",
          "type": "uint256"
        },
        {
          "internalType": "address[]",
          "name": "validators_",
          "type": "address[]"
        },
        {
          "internalType": "address[]",
          "name": "penalized_",
          "type": "address[]"
        }
      ],
      "stateMutability": "view",
      "type": "function"
    },
    {
      "inputs": [
        {
          "internalType": "bytes32",
          "name": "_seed",
          "type": "bytes32"
        },
        {
          "internalType": "uint256",
          "name": "_slot",
          "type": "uint256"
        },
        {
          "internalType": "uint256",
          "name": "_txCreatedTimestamp",
          "type": "uint256"
        },
        {
          "internalType": "uint256",
          "name": "_number",
          "type": "uint256"
        },
        {
          "internalType": "bool",
          "name": "_weighted",
          "type": "bool"
        },
        {
          "internalType": "address[]",
          "name": "_consumed",
          "type": "address[]"
        }
      ],
      "name": "validatorSelection",
      "outputs": [
        {
          "internalType": "uint256",
          "name": "leader_",
          "type": "uint256"
        },
        {
          "internalType": "address[]",
          "name": "validators_",
          "type": "address[]"
        },
        {
          "internalType": "address[]",
          "name": "penalized_",
          "type": "address[]"
        }
      ],
      "stateMutability": "view",
      "type": "function"
    },
    {
      "inputs": [
        {
          "internalType": "address",
          "name": "_validator",
          "type": "address"
        }
      ],
      "name": "validatorView",
      "outputs": [
        {
          "components": [
            {
              "internalType": "address",
              "name": "left",
              "type": "address"
            },
            {
              "internalType": "address",
              "name": "right",
              "type": "address"
            },
            {
              "internalType": "address",
              "name": "parent",
              "type": "address"
            },
            {
              "internalType": "uint256",
              "name": "eBanned",
              "type": "uint256"
            },
            {
              "internalType": "uint256",
              "name": "ePrimed",
              "type": "uint256"
            },
            {
              "internalType": "uint256",
              "name": "vStake",
              "type": "uint256"
            },
            {
              "internalType": "uint256",
              "name": "vShares",
              "type": "uint256"
            },
            {
              "internalType": "uint256",
              "name": "dStake",
              "type": "uint256"
            },
            {
              "internalType": "uint256",
              "name": "dShares",
              "type": "uint256"
            },
            {
              "internalType": "uint256",
              "name": "vDeposit",
              "type": "uint256"
            },
            {
              "internalType": "uint256",
              "name": "vWithdrawal",
              "type": "uint256"
            },
            {
              "internalType": "bool",
              "name": "live",
              "type": "bool"
            }
          ],
          "internalType": "struct IGenLayerStaking.ValidatorView",
          "name": "",
          "type": "tuple"
        }
      ],
      "stateMutability": "view",
      "type": "function"
    },
    {
      "inputs": [
        {
          "internalType": "address",
          "name": "_validator",
          "type": "address"
        }
      ],
      "name": "validatorViewPrePrimed",
      "outputs": [
        {
          "components": [
            {
              "internalType": "address",
              "name": "left",
              "type": "address"
            },
            {
              "internalType": "address",
              "name": "right",
              "type": "address"
            },
            {
              "internalType": "address",
              "name": "parent",
              "type": "address"
            },
            {
              "internalType": "uint256",
              "name": "eBanned",
              "type": "uint256"
            },
            {
              "internalType": "uint256",
              "name": "ePrimed",
              "type": "uint256"
            },
            {
              "internalType": "uint256",
              "name": "vStake",
              "type": "uint256"
            },
            {
              "internalType": "uint256",
              "name": "vShares",
              "type": "uint256"
            },
            {
              "internalType": "uint256",
              "name": "dStake",
              "type": "uint256"
            },
            {
              "internalType": "uint256",
              "name": "dShares",
              "type": "uint256"
            },
            {
              "internalType": "uint256",
              "name": "vDeposit",
              "type": "uint256"
            },
            {
              "internalType": "uint256",
              "name": "vWithdrawal",
              "type": "uint256"
            },
            {
              "internalType": "bool",
              "name": "live",
              "type": "bool"
            }
          ],
          "internalType": "struct IGenLayerStaking.ValidatorView",
          "name": "",
          "type": "tuple"
        }
      ],
      "stateMutability": "view",
      "type": "function"
    },
    {
      "inputs": [
        {
          "internalType": "address",
          "name": "_validator",
          "type": "address"
        }
      ],
      "name": "validatorViewPrimed",
      "outputs": [
        {
          "components": [
            {
              "internalType": "address",
              "name": "left",
              "type": "address"
            },
            {
              "internalType": "address",
              "name": "right",
              "type": "address"
            },
            {
              "internalType": "address",
              "name": "parent",
              "type": "address"
            },
            {
              "internalType": "uint256",
              "name": "eBanned",
              "type": "uint256"
            },
            {
              "internalType": "uint256",
              "name": "ePrimed",
              "type": "uint256"
            },
            {
              "internalType": "uint256",
              "name": "vStake",
              "type": "uint256"
            },
            {
              "internalType": "uint256",
              "name": "vShares",
              "type": "uint256"
            },
            {
              "internalType": "uint256",
              "name": "dStake",
              "type": "uint256"
            },
            {
              "internalType": "uint256",
              "name": "dShares",
              "type": "uint256"
            },
            {
              "internalType": "uint256",
              "name": "vDeposit",
              "type": "uint256"
            },
            {
              "internalType": "uint256",
              "name": "vWithdrawal",
              "type": "uint256"
            },
            {
              "internalType": "bool",
              "name": "live",
              "type": "bool"
            }
          ],
          "internalType": "struct IGenLayerStaking.ValidatorView",
          "name": "",
          "type": "tuple"
        }
      ],
      "stateMutability": "view",
      "type": "function"
    },
    {
      "inputs": [
        {
          "internalType": "address",
          "name": "_validator",
          "type": "address"
        },
        {
          "internalType": "uint256",
          "name": "_index",
          "type": "uint256"
        }
      ],
      "name": "validatorWithdrawal",
      "outputs": [
        {
          "internalType": "uint256",
          "name": "epoch_",
          "type": "uint256"
        },
        {
          "components": [
            {
              "internalType": "uint256",
              "name": "input",
              "type": "uint256"
            },
            {
              "internalType": "uint256",
              "name": "output",
              "type": "uint256"
            },
            {
              "internalType": "uint256",
              "name": "epoch",
              "type": "uint256"
            },
            {
              "internalType": "uint256",
              "name": "linkToNextCommit",
              "type": "uint256"
            }
          ],
          "internalType": "struct IGenLayerStaking.Commit",
          "name": "commit_",
          "type": "tuple"
        }
      ],
      "stateMutability": "view",
      "type": "function"
    },
    {
      "inputs": [
        {
          "internalType": "address",
          "name": "_validator",
          "type": "address"
        },
        {
          "internalType": "uint256",
          "name": "_epoch",
          "type": "uint256"
        }
      ],
      "name": "validatorWithdrawalByEpoch",
      "outputs": [
        {
          "components": [
            {
              "internalType": "uint256",
              "name": "input",
              "type": "uint256"
            },
            {
              "internalType": "uint256",
              "name": "output",
              "type": "uint256"
            },
            {
              "internalType": "uint256",
              "name": "epoch",
              "type": "uint256"
            },
            {
              "internalType": "uint256",
              "name": "linkToNextCommit",
              "type": "uint256"
            }
          ],
          "internalType": "struct IGenLayerStaking.Commit",
          "name": "commit_",
          "type": "tuple"
        }
      ],
      "stateMutability": "view",
      "type": "function"
    },
    {
      "inputs": [
        {
          "internalType": "address",
          "name": "_validator",
          "type": "address"
        }
      ],
      "name": "validatorWithdrawalLen",
      "outputs": [
        {
          "internalType": "uint256",
          "name": "",
          "type": "uint256"
        }
      ],
      "stateMutability": "view",
      "type": "function"
    },
    {
      "inputs": [],
      "name": "validatorsCount",
      "outputs": [
        {
          "internalType": "uint256",
          "name": "",
          "type": "uint256"
        }
      ],
      "stateMutability": "view",
      "type": "function"
    },
    {
      "inputs": [
        {
          "internalType": "uint256",
          "name": "",
          "type": "uint256"
        }
      ],
      "name": "validatorsEven",
      "outputs": [
        {
          "internalType": "address",
          "name": "",
          "type": "address"
        }
      ],
      "stateMutability": "view",
      "type": "function"
    },
    {
      "inputs": [
        {
          "internalType": "uint256",
          "name": "",
          "type": "uint256"
        }
      ],
      "name": "validatorsOdd",
      "outputs": [
        {
          "internalType": "address",
          "name": "",
          "type": "address"
        }
      ],
      "stateMutability": "view",
      "type": "function"
    },
    {
      "inputs": [],
      "name": "validatorsRoot",
      "outputs": [
        {
          "internalType": "address",
          "name": "",
          "type": "address"
        }
      ],
      "stateMutability": "view",
      "type": "function"
    },
    {
      "inputs": [
        {
          "internalType": "uint256",
          "name": "",
          "type": "uint256"
        }
      ],
      "name": "weightsEven",
      "outputs": [
        {
          "internalType": "uint256",
          "name": "",
          "type": "uint256"
        }
      ],
      "stateMutability": "view",
      "type": "function"
    },
    {
      "inputs": [
        {
          "internalType": "uint256",
          "name": "",
          "type": "uint256"
        }
      ],
      "name": "weightsOdd",
      "outputs": [
        {
          "internalType": "uint256",
          "name": "",
          "type": "uint256"
        }
      ],
      "stateMutability": "view",
      "type": "function"
    }
  ],
  "bytecode": "0x608034607057601f613cb738819003918201601f19168301916001600160401b03831184841017607557808492602094604052833981010312607057516001600160a01b03811690819003607057600880546001600160a01b031916919091179055604051613c2b908161008c8239f35b600080fd5b634e487b7160e01b600052604160045260246000fdfe61026080604052600436101561001457600080fd5b6000803560e01c918263019f89f5146123cf5750816301fe0a78146123a457816304abb96d146123905781630a3cfb13146123665781630a7292f514610c045781630ceb2cef1461234c5781630d2bd9091461231a578163151e9602146122e5578163152ba3f71461130c578163161472eb146121d557816316e7d51314610b3a57816318015191146121ad5781632b5de0de146121025781632df044971461205d5781632ea9400614610afd57816330ebe468146120bd5781633197f9571461208757816331b9e11114612062578163363ea83d1461205d578163370d01201461169e578163385fb69d14611fdf5781633895110914611dd557816339b94189146104bb5781633b0da62314611d9c5781633e933d5d14611d8157816340a141ff146119dd57816340f0edc4146119b557816345734287146116cd578163485d6ef81461197b5781634b48f27214610f425781634c12b33f146119605781634cc91c34146118d1578163502e28ea146118af578163510a6f261461179e57816355174ae61461188b57816356eaad0f1461186a5781635cc734ac146117a35781636461cf561461179e5781636585f679146116d25781636a319a64146116cd5781637071688a14610a0057816370ccae7614610c04578163746e4ac7146116a3578163759f24f414610afd57816377a685141461169e57816379073e6e1461166557816379cbf85f1461141f5781637e391d5d146113d35781637f10fe0814610afd57816380f87026146113b757816381636917146112a357816382df24a11461135457816387e51da9146113115781638aabb07e1461130c5781638ba7eceb146112ef578163900cf0cf146112d2578163900fd9ce146112a857816391eed60a146112a357816393a090ec14610b3f5781639424f76114610c2f57816396be02a71461125e57816397c3ccd8146111f057816397f735d5146111cd5781639a612f7a1461117a5781639b401cde146111135781639c8d83bb146110d25781639e027604146110c4578163a39a5806146110bf578163a5dc8da0146110bf578163a629c2f714610afd578163abfd6fa914610aac578163ad92a95714610fd1578163af6c09a814610c04578163b12d0d8214610f5f578163b2c224b414610f42578163b3f05b9714610f25578163b810fc0d14610efe578163b83f5b3914610e73578163b8793e7814610e29578163bae2be5614610d2d578163c32459a114610ca3578163c3ff497714610afd578163c5a7f19214610c53578163c70cd43514610c2f578163c90df53214610afd578163c9d0de3414610a00578163cc37304514610c09578163ce4cb87614610c04578163cf662c1414610b44578163d152d91b14610b3f578163d2d49c4b14610b3a578163d833aaf014610b02578163d8a7f84c14610afd578163d9cb294314610ab1578163da7a9b6a14610aac578163de8d9d3814610a9d578163dfc3736d14610a3a578163dfc957ea14610a05578163ed612f8c14610a00578163f524e9df1461096f578163facd743b14610942578163fad76f64146108da578163fafebac514610895578163fc6b1c241461080d578163fc6c1f021461053e578163fca905a3146104c0575063fe276137146104bb57600080fd5b61288f565b3461053b5760c036600319011261053b5760843590811515820361053b5760a435906001600160401b03821161053b5761053761052861051485610507366004880161285f565b9290600b549336916129d3565b91606435906044359060243560043561332d565b60409391935193849384612a83565b0390f35b80fd5b3461053b57604036600319011261053b576105576123e7565b600e5460243590600160401b8110156107ed57826105808260016105869401600e55600e6124ca565b90612d7a565b600d5460001981019081116107be5761059e8161249a565b90549060031b1c600d54600160401b8110156107d95761061292916105ce8260016105e79401600d55600d6124ca565b90919082549060031b91821b91600019901b1916179055565b600d5415610801576105ce61060c6105fe8361249a565b90549060031b1c5b85612d9d565b9161249a565b601054600160401b8110156107ed5782610580826001610637940160105560106124ca565b600f546000198101919082116107be5761065082612464565b90549060031b1c600f54600160401b8110156107d9576106ab93926106876105ce936105ce8460016106a59601600f55600f6124ca565b600f54156107d25761069884612464565b90549060031b1c90612d9d565b91612464565b600e5460011981018181116107be576106c381612418565b905460039190911b1c6001600160a01b03169160001981019081116107aa5761071f929161071a826107126106fa61058095612418565b905460039190911b1c6001600160a01b031691612418565b949093612418565b612d7a565b600d5460011981018181116107be576107378161249a565b90549060031b1c9160001981019081116107aa576107909291610778826107706107636105ce9561249a565b90549060031b1c9161249a565b94909361249a565b919082549060031b91821b91600019901b1916179055565b6001600160a01b0316815260208190526040812081905580f35b634e487b7160e01b85526011600452602485fd5b634e487b7160e01b84526011600452602484fd5b8690612d9d565b634e487b7160e01b86526041600452602486fd5b634e487b7160e01b84526041600452602484fd5b6105ce61060c86610606565b3461053b57604036600319011261053b576004356001600160401b0381116108915761083d903690600401612a2e565b6024359061084a82612bfc565b925b828110610869576040516020808252819061053790820187612566565b6001906001600160a01b0361087e8285612c2e565b511661088a8287612c2e565b520161084c565b5080fd5b3461053b578060031936011261053b57601154601254906105376013546014546015546016546017546018549160195493601a5495601b54976040519b8c9b8c612ae7565b3461053b57602036600319011261053b577f304c2a8493b9e418525993ce24edcc67d1a1b6c083d600a9cf0b8cf5c111755c60206001600160a01b0361091e6123e7565b1680845260058252836040812055808452838252836040812055604051908152a180f35b3461053b57602036600319011261053b5760206109656109606123e7565b612e64565b6040519015158152f35b3461053b578060031936011261053b5760405160048054808352908352909160208301917f8a35acfbc15ff81a39ae7d344fd709f28e8600b4aa8c65c6b64bfe7fe36bd19b915b8181106109e157610537856109cd8187038261299b565b604051918291602083526020830190612566565b82546001600160a01b03168452602090930192600192830192016109b6565b612a4c565b3461053b57602036600319011261053b576001600160a01b03610a266123e7565b1660018060a01b0319600954161760095580f35b3461053b57604036600319011261053b577f6917318dac70d2950cf691aa372c972b60d4a75903e00a01f89a795a70de683760406001600160a01b03610a7e6123e7565b168084526005602052428285205581519081526024356020820152a180f35b602036600319011261053b5780f35b612b4e565b3461053b578060031936011261053b57805b600e54811015610af55780610aef610adc600193612418565b848060a01b0391549060031b1c16612e3f565b01610ac3565b5080600a5580f35b6127c6565b3461053b57602036600319011261053b576020906040906001600160a01b03610b296123e7565b168152600183522054604051908152f35b6125a3565b612aae565b3461053b578060031936011261053b576008546001600160a01b031633141580610bef575b610be057600c5460018101808211610bcc57600b5414610bbd57602081610bb07f94dd18d0cc0262cc85d4b8937d35e70671aaed2e54033dbad2cf13b83c65d8b193612bed565b600c55604051908152a180f35b630cd9898f60e21b8252600482fd5b634e487b7160e01b83526011600452602483fd5b636c4db06b60e01b8152600490fd5b506009546001600160a01b0316331415610b69565b6124e2565b3461053b57602036600319011261053b576020610c27600435612f7f565b604051908152f35b3461053b57602036600319011261053b57610c50610c4b6123e7565b612e3f565b80f35b3461053b57602036600319011261053b5750600b5460209060043590600116610c8e57610c7f9061249a565b90549060031b1c604051908152f35b610c9790612464565b90549060031b1c610c27565b3461053b57602036600319011261053b577f94a7bf639ae38b6414015161ac06878bbac5ba80ee87e24ed428ce754136ec9660206001600160a01b03610ce76123e7565b1680845260058252426040852055600b5460405190610d058261294e565b815260018382016000198152838752868552604087209251835551910155604051908152a180f35b3461053b57602036600319011261053b576001600160a01b03610d4e6123e7565b168082526005602052816040812055610d68600254612e08565b600255815b60045480821015610e235782610d8283612449565b905460039190911b1c6001600160a01b031614610da25750600101610d6d565b9091506000198101908111610bcc5790610580610dc1610dd993612449565b905460039190911b1c6001600160a01b031691612449565b6004548015610e0f5760001901610e09610df48260046124ca565b81549060018060a01b039060031b1b19169055565b60045580f35b634e487b7160e01b82526031600452602482fd5b50505080f35b3461053b57602036600319011261053b5760043590600a820291808304600a1490151715610e5f57602082606460405191048152f35b634e487b7160e01b81526011600452602490fd5b3461053b57602036600319011261053b57610537906040610e926123e7565b91610e9b612c98565b50610ea4612c98565b926001600b541615600014610ef157610ec6610ec0600e612c42565b82613a02565b15156101608501526001600160a01b03168152602081905220546060820152604051918291826125d8565b610ec6610ec06010612c42565b3461053b57604036600319011261053b576020610965610f1c6123e7565b60243590612daa565b3461053b578060031936011261053b576020600c54604051908152f35b3461053b578060031936011261053b576020600a54604051908152f35b3461053b57604036600319011261053b57610f99600b5460405190610f8560208361299b565b838252600036813760243590600435612f92565b5080519092915015610fbd576020828101516040516001600160a01b039091168152f35b634e487b7160e01b81526032600452602490fd5b3461053b57604036600319011261053b576004356001600160401b03811161089157611001903690600401612a2e565b906024356001600160401b03811161089157611021903690600401612a2e565b916110376110328251855190612d9d565b612bfc565b92825b825181101561106b576001906001600160a01b036110588286612c2e565b51166110648288612c2e565b520161103a565b50915b82518110156110a9576001906001600160a01b0361108c8286612c2e565b51166110a261109c838651612d9d565b87612c2e565b520161106e565b6040516020808252819061053790820187612566565b612b33565b8060031936011261053b5780f35b3461053b57602036600319011261053b5760409081906001600160a01b036110f86123e7565b16815280602052206001815491015482519182526020820152f35b3461053b578060031936011261053b576020906001600b54161560001461117357600e5b80541561116d5761114891506124b5565b905460039190911b1c6001600160a01b03165b6040516001600160a01b039091168152f35b5061115b565b6010611137565b3461053b578060031936011261053b57600c5460018101808211610bcc57600b5414610bbd57602081610bb07f94dd18d0cc0262cc85d4b8937d35e70671aaed2e54033dbad2cf13b83c65d8b193612bed565b3461053b57602036600319011261053b5760206109656111eb6123e7565b6139b6565b3461053b57602036600319011261053b576112096123e7565b600b54604051906112198261294e565b815260016020820192818452818060a01b0316928385528460205260408520925183555191015581526001602052426040822055611258600a54612bed565b600a5580f35b3461053b578060031936011261053b57601c54601d5490610537601e54601f54602054602154602254602354916024549360255495602654976040519b8c9b8c612ae7565b612a6a565b3461053b57602036600319011261053b5760043590600d5482101561053b576020610c7f8361249a565b3461053b578060031936011261053b576020600b54604051908152f35b3461053b57604036600319011261053b576113086123e7565b5080f35b612533565b3461053b57602036600319011261053b576004359060105482101561053b57602061133b8361247f565b905460405160039290921b1c6001600160a01b03168152f35b3461053b5760e036600319011261053b5760a43590811515820361053b5760c435906001600160401b03821161053b57610537610528846113a261139b366004880161285f565b36916129d3565b9060843560643560443560243560043561332d565b3461053b578060031936011261053b5760206040516103208152f35b3461053b57602036600319011261053b5750600b54602090600435906001166113ff5761114890612418565b6114089061247f565b905460039190911b1c6001600160a01b031661115b565b3461053b57604036600319011261053b576004356001600160401b0381116108915761144f90369060040161285f565b6024356001600160401b0381116116615761146e90369060040161285f565b9290918381036115fb576001600160401b0381116115c257600160401b81116115c2576114a181600e5481600e55612f25565b600e8552600080516020613b7683398151915285835b8382106115d6575050506001600160401b0384116115c257600160401b84116115c2576114ea84600d5481600d55612f52565b600d8552600080516020613b9683398151915283865b8681106115ae5750505060009161151d8260105481601055612ecb565b60108652600080516020613bb6833981519152919086905b82821061158557505050505061155182600f5481600f55612ef8565b600f8352600080516020613bd6833981519152835b838110611571578480f35b600190602084359401938184015501611566565b8035916001600160a01b03831683036115aa5760206001920192818601550190611535565b8880fd5b600190602083359301928185015501611500565b634e487b7160e01b85526041600452602485fd5b8035916001600160a01b03831683036115aa57602060019201928185015501906114b7565b60405162461bcd60e51b815260206004820152603860248201527f56616c696461746f727320616e64207765696768747320617272617973206d756044820152770e6e840c4ca40decc40e8d0ca40e6c2daca40d8cadccee8d60431b6064820152608490fd5b8380fd5b3461053b57602036600319011261053b57600435906103e88202918083046103e81490151715610e5f5760208261271060405191048152f35b612837565b3461053b57602036600319011261053b5760043590600f5482101561053b576020610c7f83612464565b6128e4565b3461053b57602036600319011261053b576116eb6123e7565b6001600160a01b03811680835260056020526040832042905560025461171090612bed565b6002556004548391825b828110611767575b5050501561172e575080f35b600454600160401b8110156117535790610580826001610c50940160045560046124ca565b634e487b7160e01b83526041600452602483fd5b8161177182612449565b905460039190911b1c6001600160a01b0316146117905760010161171a565b505050506001838080611722565b612932565b3461053b57606036600319011261053b576004356001600160401b038111610891576117d3903690600401612a2e565b602435604435835b8351811015611866576001906001600160a01b036117f98287612c2e565b5116865260056020528360408720557f79509e07132861a50b07db440623e9700d316d4d39a8b47e785d6372eabeec8d84838060a01b0361183a8489612c2e565b5160408051929091166001600160a01b031682526020820192909252908101859052606090a1016117db565b8480f35b3461053b578060031936011261053b57611885600b54612bed565b600b5580f35b3461053b578060031936011261053b57604060025460035482519182526020820152f35b3461053b57604036600319011261053b576118c86123e7565b50611308612402565b3461053b578060031936011261053b57600b5460011661195957600e5b815b81548110156119555780611906600192846124ca565b838060a01b0391549060031b1c1684526005602052604084205461192b575b016118f0565b61193581846124ca565b838060a01b0391549060031b1c1684526005602052836040812055611925565b8280f35b60106118ee565b3461053b578060031936011261053b57602090604051908152f35b3461053b57602036600319011261053b576020906040906001600160a01b036119a26123e7565b1681526005835220541515604051908152f35b3461053b578060031936011261053b576009546040516001600160a01b039091168152602090f35b3461053b57602036600319011261053b576119f66123e7565b600e80549092600019929091600d916001600160a01b031690835b818110611d4c575b50506000198414611d3d5783611d0d57815415611cf95781835260208320548360031b1c5b845b86546000198101908111611a8e57811015611aa25760018101808211611a8e5790611a88611a706001938a6124ca565b848060a01b0391549060031b1c16610580838b6124ca565b01611a40565b634e487b7160e01b86526011600452602486fd5b508385611aae88612e22565b84546000198101908111610bcc57811015611afe5760018101808211610bcc5790611af8611aee85611ae26001958a6124ca565b90549060031b1c612e15565b6105ce83896124ca565b01611aae565b50828480548015611ce5576000190190611b2c611b1b83836124ca565b8154906000199060031b1b19169055565b5560109150600f6000199160008454905b818110611cb0575b50506000198314611c9f5782611c63576000825415610fbd5782815260209020545b835b85546000198101908111611bb757811015611bcd576001810190818111611bb757611bb1611b99600193896124ca565b848060a01b0391549060031b1c16610580838a6124ca565b01611b69565b634e487b7160e01b600052601160045260246000fd5b5083611bd886612e22565b83546000198101908111611bb757811015611c1c576001810190818111611bb757611c16611c0c84611ae2600195896124ca565b6105ce83886124ca565b01611bd8565b828480548015611c4d576000190190611c38611b1b83836124ca565b55600052600060205260006040812055600080f35b634e487b7160e01b600052603160045260246000fd5b611c6d83836124ca565b905460001985019160031b1c848211611bb757611c8d611c9a92856124ca565b90549060031b1c90612e15565b611b67565b630705dfdb60e21b60005260046000fd5b82611cbb82886124ca565b905460039190911b1c6001600160a01b031614611cda57600101611b3d565b935085905080611b45565b634e487b7160e01b84526031600452602484fd5b634e487b7160e01b83526032600452602483fd5b611d1784836124ca565b90549060031b1c60001985018581116107aa5790611c8d611d3892856124ca565b611a3e565b630705dfdb60e21b8352600483fd5b82611d5782896124ca565b905460039190911b1c6001600160a01b031614611d7657600101611a11565b945086905080611a19565b3461053b578060031936011261053b57602060405160018152f35b3461053b57602036600319011261053b57600435906101f48202918083046101f41490151715610e5f5760208261271060405191048152f35b3461053b57606036600319011261053b576024356001600160401b03811161089157611e0590369060040161285f565b906044356001600160401b03811161166157611e2590369060040161285f565b9290918382036115fb57600435600116611f0e576001600160401b0382116115c257600160401b82116115c257611e6282600e5481600e55612f25565b600e8552600080516020613b76833981519152919085905b828210611ee557505050506001600160401b03821161175357600160401b821161175357611eae82600d5481600d55612f52565b600d8352600080516020613b96833981519152835b838110611ed1575050505080f35b600190602084359401938184015501611ec3565b8035916001600160a01b0383168303611f0a5760206001920192818601550190611e7a565b8780fd5b6001600160401b0382116115c257600160401b82116115c257611f378260105481601055612ecb565b60108552600080516020613bb6833981519152919085905b828210611fba57505050506001600160401b03821161175357600160401b821161175357611f8382600f5481600f55612ef8565b600f8352600080516020613bd6833981519152835b838110611fa6575050505080f35b600190602084359401938184015501611f98565b8035916001600160a01b0383168303611f0a5760206001920192818601550190611f4f565b3461053b57606036600319011261053b577f79509e07132861a50b07db440623e9700d316d4d39a8b47e785d6372eabeec8d61205761201c6123e7565b6001600160a01b0316808452600560209081526040808620429055805192835260243591830191909152604435908201529081906060820190565b0390a180f35b612674565b3461053b57602036600319011261053b5760209061207e6123e7565b50604051908152f35b3461053b57602036600319011261053b5760043590605082029180830460501490151715610e5f57602082606460405191048152f35b8060031936011261053b5760206040518181016120ec826120de3384612b6a565b03601f19810184528361299b565b905190206040516001600160a01b039091168152f35b3461053b578060031936011261053b57600b546001166121a657600d5b604051908160208254918281520190819285526020852090855b818110612190575050508261214f91038361299b565b604051928392602084019060208552518091526040840192915b818110612177575050500390f35b8251845285945060209384019390920191600101612169565b8254845260209093019260019283019201612139565b600f61211f565b3461053b578060031936011261053b576008546040516001600160a01b039091168152602090f35b3461053b578060031936011261053b57806001600b5416156000146122dd57600e915b815b835481101561224c5761220d81856124ca565b905460039190911b1c6001600160a01b0316835260056020526040832054612238575b6001016121fa565b90612244600191612bed565b919050612230565b5061225690612bfc565b918190825b81548110156122c75780612271600192846124ca565b838060a01b0391549060031b1c16855260056020526040852054612296575b0161225b565b6122a081846124ca565b838060a01b0391549060031b1c166122c16122ba86612bed565b9588612c2e565b52612290565b6040516020808252819061053790820188612566565b6010916121f8565b3461053b57602036600319011261053b576001600160a01b036123066123e7565b1660018060a01b0319600854161760085580f35b3461053b578060031936011261053b5750600b54600116612342576020600e54604051908152f35b6020601054610c27565b3461053b57602036600319011261053b57600435600b5580f35b3461053b57602036600319011261053b5760043590600e5482101561053b57602061133b83612418565b602036600319011261053b576113086123e7565b602036600319011261053b5760206123ba6123e7565b604051906120ec826120de8582019384612b6a565b34610891576020366003190112610891576020918152f35b600435906001600160a01b03821682036123fd57565b600080fd5b602435906001600160a01b03821682036123fd57565b600e5481101561243357600e60005260206000200190600090565b634e487b7160e01b600052603260045260246000fd5b60045481101561243357600460005260206000200190600090565b600f5481101561243357600f60005260206000200190600090565b60105481101561243357601060005260206000200190600090565b600d5481101561243357600d60005260206000200190600090565b80541561243357600052602060002090600090565b80548210156124335760005260206000200190600090565b346123fd5760403660031901126123fd576124fb6123e7565b50612504612402565b50602060405160008152f35b606080918051845260208101516020850152604081015160408501520151910152565b346123fd5760403660031901126123fd5761254c6123e7565b506080612557612bb8565b6125646040518092612510565bf35b906020808351928381520192019060005b8181106125845750505090565b82516001600160a01b0316845260209384019390920191600101612577565b346123fd5760003660031901126123fd57600b546001166125cb576105376109cd600e612c42565b6105376109cd6010612c42565b9190916101608061018083019460018060a01b03815116845260018060a01b03602082015116602085015260018060a01b036040820151166040850152606081015160608501526080810151608085015260a081015160a085015260c081015160c085015260e081015160e085015261010081015161010085015261012081015161012085015261014081015161014085015201511515910152565b346123fd5760203660031901126123fd5761268d6123e7565b600090612698612c98565b5060405163b83f5b3960e01b81526001600160a01b03909116600482015261018081602481305afa9081156127bb5782916126dc575b6040518061053784826125d8565b9050610180813d82116127b3575b816126f8610180938361299b565b8101031261089157610160604051916127108361297f565b61271981612cf1565b835261272760208201612cf1565b602084015261273860408201612cf1565b6040840152606081015160608401526080810151608084015260a081015160a084015260c081015160c084015260e081015160e0840152610100810151610100840152610120810151610120840152610140810151610140840152015180151581036127af576105379250610160820152386126ce565b8280fd5b3d91506126ea565b6040513d84823e3d90fd5b346123fd5760203660031901126123fd57005b602060408183019282815284518094520192019060005b8181106127fd5750505090565b825180516001600160a01b0316855260208181015181870152604091820151151591860191909152606090940193909201916001016127f0565b346123fd5760603660031901126123fd57610537612853612d18565b604051918291826127d9565b9181601f840112156123fd578235916001600160401b0383116123fd576020808501948460051b0101116123fd57565b346123fd5760203660031901126123fd576128a86123e7565b005b60609060031901126123fd576004356001600160a01b03811681036123fd57906024356001600160a01b03811681036123fd579060443590565b346123fd576128f2366128aa565b50505060c06040516129038161294e565b60008152612564602082016000815261291a612bb8565b90604051935184525160208401526040830190612510565b346123fd5760403660031901126123fd57610537612853612d18565b604081019081106001600160401b0382111761296957604052565b634e487b7160e01b600052604160045260246000fd5b61018081019081106001600160401b0382111761296957604052565b90601f801991011681019081106001600160401b0382111761296957604052565b6001600160401b0381116129695760051b60200190565b92916129de826129bc565b936129ec604051958661299b565b602085848152019260051b81019182116123fd57915b818310612a0e57505050565b82356001600160a01b03811681036123fd57815260209283019201612a02565b9080601f830112156123fd57816020612a49933591016129d3565b90565b346123fd5760003660031901126123fd576020610c27600b54612f7f565b346123fd5760203660031901126123fd576125046123e7565b91612aa090612a4994928452606060208501526060840190612566565b916040818403910152612566565b346123fd5760403660031901126123fd57612ac76123e7565b5060a0612ad2612bb8565b61256460405191600083526020830190612510565b979491926101409996939c9b9a9794919c6101608a019d8a5260208a015260408901526060880152608087015260a086015260c085015260e08401526101008301526101208201520152565b346123fd57612b41366128aa565b5050506080612557612bb8565b346123fd5760003660031901126123fd57602060405160008152f35b601d91683b30b634b230ba37b960b91b82526bffffffffffffffffffffffff199060601b1660098201520190565b8115612ba2570690565b634e487b7160e01b600052601260045260246000fd5b60405190608082018281106001600160401b038211176129695760405260006060838281528260208201528260408201520152565b6000198114611bb75760010190565b90612c06826129bc565b612c13604051918261299b565b8281528092612c24601f19916129bc565b0190602036910137565b80518210156124335760209160051b010190565b906040519182815491828252602082019060005260206000209260005b818110612c76575050612c749250038361299b565b565b84546001600160a01b0316835260019485019487945060209093019201612c5f565b60405190612ca58261297f565b6000610160838281528260208201528260408201528260608201528260808201528260a08201528260c08201528260e08201528261010082015282610120820152826101408201520152565b51906001600160a01b03821682036123fd57565b81810292918115918404141715611bb757565b60405190612d2760208361299b565b60008083528290805b818110612d3c57505050565b6040519060608201918083106001600160401b0384111761296957602092604052600081526000838201526000604082015282828601015201612d30565b80546001600160a01b0360039390931b83811b199091169290931690921b179055565b91908201809211611bb757565b90600116612e0057600e905b60005b8254811015612df857612dcc81846124ca565b905460039190911b1c6001600160a01b0390811690831614612df057600101612db9565b505050600190565b505050600090565b601090612db6565b8015611bb7576000190190565b91908203918211611bb757565b80548015611c4d576000190190612e3c610df483836124ca565b55565b6001600160a01b03166000908152602081815260408083208390556001909152812055565b600b54600116612eac57600e905b60005b8254811015612df857612e8881846124ca565b905460039190911b1c6001600160a01b0390811690831614612df057600101612e75565b601090612e72565b818110612ebf575050565b60008155600101612eb4565b808210612ed6575050565b6010600052612c7491600080516020613bb68339815191529182019101612eb4565b808210612f03575050565b600f600052612c7491600080516020613bd68339815191529182019101612eb4565b808210612f30575050565b600e600052612c7491600080516020613b768339815191529182019101612eb4565b808210612f5d575050565b600d600052612c7491600080516020613b968339815191529182019101612eb4565b600116612f8c57600e5490565b60105490565b9092919260016000911615948560001461332557600e955b15613320575b8554600181111561331157600019810192818411610e5f57836001118015613307575b6132cc575061032083028381046103201484151715611bb7576103e810156131fc57509394936060936000928392919061300d6001612bfc565b95604051602081019182526020815261302760408261299b565b51902093986000986040988b9687959293915b8d1580156131b85789908e6131a457908d92918f61305b604051958661299b565b60018552613190579e9f9e601f198f013660208601375b600182106130e3575b1561309357505061308c909c612bed565b9c9b61303a565b909d918a8c8e5b8483106130af57505050505061308c90612bed565b6001600160a01b036130c18486612c2e565b5116919e6130ce90612bed565b9e6130d891612c2e565b526001018c8e61309a565b9e9f9e8d6131388e96604051602081019182526020815261310560408261299b565b5190209661311c6131168d8a612b98565b8c6124ca565b905460039190911b1c6001600160a01b031692878b8b86613a39565b613176575b508861315461314c8c85612d9d565b895190612d9d565b1015613162579f9e9f613072565b989e9f9e8161317091612d9d565b9861307b565b61318961318284612bed565b9386612c2e565b523861313d565b634e487b7160e01b8c52604160045260248cfd5b634e487b7160e01b8b52604160045260248bfd5b509c509a5050505050509350506131d2906131f792613aea565b9260405160208101918252602081526131ec60408261299b565b519020845190612b98565b929190565b9450909250604080519290613211818561299b565b60018452601f1901366020850137839460011901848111955b86611bb7578181111561328157600019810190808211611bb75761325161327c928a6124ca565b905460039190911b1c6001600160a01b0316613276613270838a612e15565b88612c2e565b52612e08565b61322a565b50509093506132ae9291945060405160208101918252602081526132a660408261299b565b519020612b98565b90604051916132be60208461299b565b600083526000368137929190565b9650509350505050602090604051926132e5838561299b565b80845280368137604051926132fa818561299b565b8184525080368137929190565b5083865114612fd3565b6362720e2360e11b8352600483fd5b612fb0565b601095612faa565b9592936001929195946101c052610180521615806000146139ae57600e905b156139a657600d925b815491600183111561399557826000198101119182611bb757600019840161018051118015613987575b61394757861580613909575b61385e5760009015613660575060609685549283600019810111611bb7576133b76000198501886124ca565b90549060031b1c61012052611bb75760006101005260018701808811611bb7576110326133ef91610180999899979695949751612d05565b60e052604051602081019182526020815261340b60408261299b565b519020610140526000936000610160525b8561016051111561346d575050505050505061343d6101005160e051613aea565b9161346960405160208101906101405182526020815261345e60408261299b565b519020835190612b98565b9290565b90919293949596600060805261348561018051612bfc565b60a0525b6101805160805110613517575b6101605187036134c1575060a051965b6134b261016051612bed565b6101605295949392919061341c565b9660005b60805181106134d457506134a6565b600190818060a01b036134e98260a051612c2e565b51166101005160c0526134fe61010051612bed565b6101005261351060c05160e051612c2e565b52016134c5565b60405160208101906101405182526020815261353460408261299b565b5190206101405261354b6101205161014051612b98565b6000908460001981011161364c5760001985015b8083106135f857505061357290836124ca565b60018060a01b0391549060031b1c166135996101005160e05160a051896101c05186613a39565b6135d5575b506135ab86608051612d9d565b6135bc600019860191875190612d9d565b1061348957946135cf9060805190612d9d565b94613496565b6135f16080516135e6608051612bed565b60805260a051612c2e565b523861359e565b61360b81849d96989a9c97999b9d612d9d565b60011c9061361982886124ca565b90549060031b1c831060001461363957505b9a989694999795939a61355f565b925060018101809111611bb7579161362b565b634e487b7160e01b82526011600452602482fd5b945091949290506060958461020052846102005260018401808511611a8e5761103261369491610180989796959851612d05565b6101e05260405160208101918252602081526136b160408261299b565b5190206101a052829083610220525b82610220511115613702575050505050506136e1610200516101e051613aea565b9161346960405160208101906101a05182526020815261345e60408261299b565b9091929394958461371561018051612bfc565b610240525b6101805181106137a3575b61022051850361375157505061024051955b61374361022051612bed565b6102205294939291906136c0565b859791975b818110613764575050613737565b600190818060a01b0361377a8261024051612c2e565b511661379c6102005161378f61020051612bed565b610200526101e051612c2e565b5201613756565b60405160208101906101a0518252602081526137c060408261299b565b5190206101a0526137e16137db60001989016101a051612b98565b896124ca565b60018060a01b0391549060031b1c1661380a610200516101e05161024051876101c05186613a39565b613841575b5061381a8482612d9d565b61382b600019890191855190612d9d565b1061371a57928361383b91612d9d565b92613725565b61385761384d83612bed565b9261024051612c2e565b523861380f565b509693505092505061387261018051612bfc565b9060001983015b61388a610180516000198601612e15565b8111156138d957600019810190808211611bb7576138ab6138d492886124ca565b905460039190911b1c6001600160a01b03166132766138ce836000198901612e15565b86612c2e565b613879565b50926132ae929194506040519160208301918252602083526138fc60408461299b565b6000190191519020612b98565b506103e861018051026101805181046103e81461018051151715611bb757610320600019860181810292918184041490151715611bb757101561338b565b505050505050505060206040519161395f828461299b565b60008352600036813760405191613976818461299b565b600083525060003681376000929190565b50845160001985011461337f565b6362720e2360e11b60005260046000fd5b600f92613355565b60109061334c565b6001600160a01b0316600081815260208190526040902054151590816139da575090565b60009081526020819052604090206001810154600b5491549092506139fe91612e15565b1090565b60005b8251811015612df8576001600160a01b03613a208285612c2e565b51166001600160a01b03831614612df057600101613a05565b94939291908015159081613ac8575b81613aa6575b50613a9c57613a5c856139b6565b613a9c57613a6a9085613a02565b613a9357613a789084613a02565b612df857613a8592613b2d565b613a8e57600190565b600090565b50505050600090565b5050505050600090565b6001600160a01b03871660009081526005602052604090205410905038613a4e565b6001600160a01b03871660009081526005602052604090205415159150613a48565b9190613af581612bfc565b9260005b828110613b0557505050565b6001906001600160a01b03613b1a8285612c2e565b5116613b268288612c2e565b5201613af9565b9060005b838110613b415750505050600090565b6001600160a01b03613b538284612c2e565b51166001600160a01b03841614613b6c57600101613b31565b5050505060019056febb7b4a454dc3493923482f07822329ed19e8244eff582cc204f8554c3620c3fdd7b6990105719101dabeb77144f2a3385c8033acd3af97e9423a695e81ad1eb51b6847dc741a1b0cd08d278845f9d819d87b734759afb55fe2de5cb82a9ae6728d1108e10bcb7c27dddfc02ed9d693a074039d026cf4ea4240b40f7d581ac802a2646970667358221220711c2f87447a527613ca7adf09ccd8f0a0010fab3aa172c8a8fd2e803d25c77264736f6c634300081c0033",
  "linkReferences": {},
  "deployedLinkReferences": {}
}