{
  "_format": "hh-sol-artifact-1",
  "contractName": "RoundsCreation",
  "sourceName": "contracts/transactions/RoundsCreation.sol",
  "abi": [
    {
      "inputs": [],
      "stateMutability": "nonpayable",
      "type": "constructor"
    },
    {
      "inputs": [],
      "name": "CallerNotTransactions",
      "type": "error"
    },
    {
      "inputs": [
        {
          "internalType": "uint256",
          "name": "numValidators",
          "type": "uint256"
        },
        {
          "internalType": "uint256",
          "name": "availableValidators",
          "type": "uint256"
        }
      ],
      "name": "InsufficientActiveValidators",
      "type": "error"
    },
    {
      "inputs": [],
      "name": "InvalidInitialization",
      "type": "error"
    },
    {
      "inputs": [],
      "name": "NotAppealsContract",
      "type": "error"
    },
    {
      "inputs": [],
      "name": "NotInitializing",
      "type": "error"
    },
    {
      "inputs": [
        {
          "internalType": "address",
          "name": "owner",
          "type": "address"
        }
      ],
      "name": "OwnableInvalidOwner",
      "type": "error"
    },
    {
      "inputs": [
        {
          "internalType": "address",
          "name": "account",
          "type": "address"
        }
      ],
      "name": "OwnableUnauthorizedAccount",
      "type": "error"
    },
    {
      "inputs": [],
      "name": "Unauthorized",
      "type": "error"
    },
    {
      "anonymous": false,
      "inputs": [
        {
          "indexed": false,
          "internalType": "uint64",
          "name": "version",
          "type": "uint64"
        }
      ],
      "name": "Initialized",
      "type": "event"
    },
    {
      "anonymous": false,
      "inputs": [
        {
          "indexed": true,
          "internalType": "address",
          "name": "previousOwner",
          "type": "address"
        },
        {
          "indexed": true,
          "internalType": "address",
          "name": "newOwner",
          "type": "address"
        }
      ],
      "name": "OwnershipTransferStarted",
      "type": "event"
    },
    {
      "anonymous": false,
      "inputs": [
        {
          "indexed": true,
          "internalType": "address",
          "name": "previousOwner",
          "type": "address"
        },
        {
          "indexed": true,
          "internalType": "address",
          "name": "newOwner",
          "type": "address"
        }
      ],
      "name": "OwnershipTransferred",
      "type": "event"
    },
    {
      "inputs": [],
      "name": "acceptOwnership",
      "outputs": [],
      "stateMutability": "nonpayable",
      "type": "function"
    },
    {
      "inputs": [],
      "name": "addressManager",
      "outputs": [
        {
          "internalType": "contract IAddressManager",
          "name": "",
          "type": "address"
        }
      ],
      "stateMutability": "view",
      "type": "function"
    },
    {
      "inputs": [
        {
          "components": [
            {
              "internalType": "enum ITransactions.ResultType",
              "name": "result",
              "type": "uint8"
            },
            {
              "internalType": "enum ITransactions.VoteType",
              "name": "txExecutionResult",
              "type": "uint8"
            },
            {
              "internalType": "enum ITransactions.TransactionStatus",
              "name": "previousStatus",
              "type": "uint8"
            },
            {
              "internalType": "enum ITransactions.TransactionStatus",
              "name": "status",
              "type": "uint8"
            },
            {
              "internalType": "address",
              "name": "txOrigin",
              "type": "address"
            },
            {
              "internalType": "address",
              "name": "sender",
              "type": "address"
            },
            {
              "internalType": "address",
              "name": "recipient",
              "type": "address"
            },
            {
              "internalType": "address",
              "name": "activator",
              "type": "address"
            },
            {
              "internalType": "uint256",
              "name": "txSlot",
              "type": "uint256"
            },
            {
              "internalType": "uint256",
              "name": "initialRotations",
              "type": "uint256"
            },
            {
              "internalType": "uint256",
              "name": "numOfInitialValidators",
              "type": "uint256"
            },
            {
              "internalType": "uint256",
              "name": "epoch",
              "type": "uint256"
            },
            {
              "internalType": "bytes32",
              "name": "id",
              "type": "bytes32"
            },
            {
              "internalType": "bytes32",
              "name": "randomSeed",
              "type": "bytes32"
            },
            {
              "internalType": "bytes32",
              "name": "txExecutionHash",
              "type": "bytes32"
            },
            {
              "internalType": "bytes32",
              "name": "resultHash",
              "type": "bytes32"
            },
            {
              "internalType": "bytes",
              "name": "txCalldata",
              "type": "bytes"
            },
            {
              "internalType": "bytes",
              "name": "eqBlocksOutputs",
              "type": "bytes"
            },
            {
              "components": [
                {
                  "internalType": "uint256",
                  "name": "activationBlock",
                  "type": "uint256"
                },
                {
                  "internalType": "uint256",
                  "name": "processingBlock",
                  "type": "uint256"
                },
                {
                  "internalType": "uint256",
                  "name": "proposalBlock",
                  "type": "uint256"
                }
              ],
              "internalType": "struct ITransactions.ReadStateBlockRange[]",
              "name": "readStateBlockRanges",
              "type": "tuple[]"
            },
            {
              "internalType": "uint256",
              "name": "validUntil",
              "type": "uint256"
            },
            {
              "internalType": "uint256",
              "name": "value",
              "type": "uint256"
            },
            {
              "internalType": "uint256",
              "name": "lockedStorageUnitPrice",
              "type": "uint256"
            },
            {
              "internalType": "uint256",
              "name": "storageFeeUsed",
              "type": "uint256"
            }
          ],
          "internalType": "struct ITransactions.Transaction",
          "name": "_tx",
          "type": "tuple"
        },
        {
          "internalType": "uint256",
          "name": "_round",
          "type": "uint256"
        },
        {
          "internalType": "uint256",
          "name": "_rotationsLeft",
          "type": "uint256"
        },
        {
          "internalType": "address[]",
          "name": "",
          "type": "address[]"
        }
      ],
      "name": "combineNormalAndAppealRoundAndCreateNewRound",
      "outputs": [
        {
          "components": [
            {
              "internalType": "uint256",
              "name": "round",
              "type": "uint256"
            },
            {
              "internalType": "uint256",
              "name": "leaderIndex",
              "type": "uint256"
            },
            {
              "internalType": "uint256",
              "name": "votesCommitted",
              "type": "uint256"
            },
            {
              "internalType": "uint256",
              "name": "votesRevealed",
              "type": "uint256"
            },
            {
              "internalType": "uint256",
              "name": "appealBond",
              "type": "uint256"
            },
            {
              "internalType": "uint256",
              "name": "rotationsLeft",
              "type": "uint256"
            },
            {
              "internalType": "enum ITransactions.ResultType",
              "name": "result",
              "type": "uint8"
            },
            {
              "internalType": "address[]",
              "name": "roundValidators",
              "type": "address[]"
            },
            {
              "internalType": "enum ITransactions.VoteType[]",
              "name": "validatorVotes",
              "type": "uint8[]"
            },
            {
              "internalType": "bytes32[]",
              "name": "validatorVotesHash",
              "type": "bytes32[]"
            },
            {
              "internalType": "bytes32[]",
              "name": "validatorResultHash",
              "type": "bytes32[]"
            }
          ],
          "internalType": "struct ITransactions.RoundData",
          "name": "newRoundData",
          "type": "tuple"
        },
        {
          "internalType": "address[]",
          "name": "consumedValidators",
          "type": "address[]"
        }
      ],
      "stateMutability": "view",
      "type": "function"
    },
    {
      "inputs": [
        {
          "components": [
            {
              "internalType": "enum ITransactions.ResultType",
              "name": "result",
              "type": "uint8"
            },
            {
              "internalType": "enum ITransactions.VoteType",
              "name": "txExecutionResult",
              "type": "uint8"
            },
            {
              "internalType": "enum ITransactions.TransactionStatus",
              "name": "previousStatus",
              "type": "uint8"
            },
            {
              "internalType": "enum ITransactions.TransactionStatus",
              "name": "status",
              "type": "uint8"
            },
            {
              "internalType": "address",
              "name": "txOrigin",
              "type": "address"
            },
            {
              "internalType": "address",
              "name": "sender",
              "type": "address"
            },
            {
              "internalType": "address",
              "name": "recipient",
              "type": "address"
            },
            {
              "internalType": "address",
              "name": "activator",
              "type": "address"
            },
            {
              "internalType": "uint256",
              "name": "txSlot",
              "type": "uint256"
            },
            {
              "internalType": "uint256",
              "name": "initialRotations",
              "type": "uint256"
            },
            {
              "internalType": "uint256",
              "name": "numOfInitialValidators",
              "type": "uint256"
            },
            {
              "internalType": "uint256",
              "name": "epoch",
              "type": "uint256"
            },
            {
              "internalType": "bytes32",
              "name": "id",
              "type": "bytes32"
            },
            {
              "internalType": "bytes32",
              "name": "randomSeed",
              "type": "bytes32"
            },
            {
              "internalType": "bytes32",
              "name": "txExecutionHash",
              "type": "bytes32"
            },
            {
              "internalType": "bytes32",
              "name": "resultHash",
              "type": "bytes32"
            },
            {
              "internalType": "bytes",
              "name": "txCalldata",
              "type": "bytes"
            },
            {
              "internalType": "bytes",
              "name": "eqBlocksOutputs",
              "type": "bytes"
            },
            {
              "components": [
                {
                  "internalType": "uint256",
                  "name": "activationBlock",
                  "type": "uint256"
                },
                {
                  "internalType": "uint256",
                  "name": "processingBlock",
                  "type": "uint256"
                },
                {
                  "internalType": "uint256",
                  "name": "proposalBlock",
                  "type": "uint256"
                }
              ],
              "internalType": "struct ITransactions.ReadStateBlockRange[]",
              "name": "readStateBlockRanges",
              "type": "tuple[]"
            },
            {
              "internalType": "uint256",
              "name": "validUntil",
              "type": "uint256"
            },
            {
              "internalType": "uint256",
              "name": "value",
              "type": "uint256"
            },
            {
              "internalType": "uint256",
              "name": "lockedStorageUnitPrice",
              "type": "uint256"
            },
            {
              "internalType": "uint256",
              "name": "storageFeeUsed",
              "type": "uint256"
            }
          ],
          "internalType": "struct ITransactions.Transaction",
          "name": "_tx",
          "type": "tuple"
        }
      ],
      "name": "createFirstRound",
      "outputs": [
        {
          "internalType": "bool",
          "name": "isInvalid",
          "type": "bool"
        },
        {
          "internalType": "address[]",
          "name": "roundValidators",
          "type": "address[]"
        },
        {
          "internalType": "uint256",
          "name": "leaderIndex",
          "type": "uint256"
        }
      ],
      "stateMutability": "nonpayable",
      "type": "function"
    },
    {
      "inputs": [
        {
          "components": [
            {
              "internalType": "enum ITransactions.ResultType",
              "name": "result",
              "type": "uint8"
            },
            {
              "internalType": "enum ITransactions.VoteType",
              "name": "txExecutionResult",
              "type": "uint8"
            },
            {
              "internalType": "enum ITransactions.TransactionStatus",
              "name": "previousStatus",
              "type": "uint8"
            },
            {
              "internalType": "enum ITransactions.TransactionStatus",
              "name": "status",
              "type": "uint8"
            },
            {
              "internalType": "address",
              "name": "txOrigin",
              "type": "address"
            },
            {
              "internalType": "address",
              "name": "sender",
              "type": "address"
            },
            {
              "internalType": "address",
              "name": "recipient",
              "type": "address"
            },
            {
              "internalType": "address",
              "name": "activator",
              "type": "address"
            },
            {
              "internalType": "uint256",
              "name": "txSlot",
              "type": "uint256"
            },
            {
              "internalType": "uint256",
              "name": "initialRotations",
              "type": "uint256"
            },
            {
              "internalType": "uint256",
              "name": "numOfInitialValidators",
              "type": "uint256"
            },
            {
              "internalType": "uint256",
              "name": "epoch",
              "type": "uint256"
            },
            {
              "internalType": "bytes32",
              "name": "id",
              "type": "bytes32"
            },
            {
              "internalType": "bytes32",
              "name": "randomSeed",
              "type": "bytes32"
            },
            {
              "internalType": "bytes32",
              "name": "txExecutionHash",
              "type": "bytes32"
            },
            {
              "internalType": "bytes32",
              "name": "resultHash",
              "type": "bytes32"
            },
            {
              "internalType": "bytes",
              "name": "txCalldata",
              "type": "bytes"
            },
            {
              "internalType": "bytes",
              "name": "eqBlocksOutputs",
              "type": "bytes"
            },
            {
              "components": [
                {
                  "internalType": "uint256",
                  "name": "activationBlock",
                  "type": "uint256"
                },
                {
                  "internalType": "uint256",
                  "name": "processingBlock",
                  "type": "uint256"
                },
                {
                  "internalType": "uint256",
                  "name": "proposalBlock",
                  "type": "uint256"
                }
              ],
              "internalType": "struct ITransactions.ReadStateBlockRange[]",
              "name": "readStateBlockRanges",
              "type": "tuple[]"
            },
            {
              "internalType": "uint256",
              "name": "validUntil",
              "type": "uint256"
            },
            {
              "internalType": "uint256",
              "name": "value",
              "type": "uint256"
            },
            {
              "internalType": "uint256",
              "name": "lockedStorageUnitPrice",
              "type": "uint256"
            },
            {
              "internalType": "uint256",
              "name": "storageFeeUsed",
              "type": "uint256"
            }
          ],
          "internalType": "struct ITransactions.Transaction",
          "name": "_tx",
          "type": "tuple"
        },
        {
          "internalType": "uint256",
          "name": "_appealBond",
          "type": "uint256"
        }
      ],
      "name": "createNewLeaderAppealRound",
      "outputs": [
        {
          "internalType": "address[]",
          "name": "newValidators",
          "type": "address[]"
        },
        {
          "internalType": "uint256",
          "name": "round",
          "type": "uint256"
        },
        {
          "internalType": "address",
          "name": "newLeader",
          "type": "address"
        },
        {
          "internalType": "uint256",
          "name": "leaderIndex",
          "type": "uint256"
        }
      ],
      "stateMutability": "nonpayable",
      "type": "function"
    },
    {
      "inputs": [
        {
          "internalType": "bytes32",
          "name": "_txId",
          "type": "bytes32"
        },
        {
          "internalType": "uint256",
          "name": "_appealBond",
          "type": "uint256"
        }
      ],
      "name": "createNewLeaderTimeoutAppealRound",
      "outputs": [
        {
          "internalType": "address[]",
          "name": "appealValidators",
          "type": "address[]"
        },
        {
          "internalType": "uint256",
          "name": "round",
          "type": "uint256"
        },
        {
          "internalType": "address",
          "name": "newLeader",
          "type": "address"
        },
        {
          "internalType": "uint256",
          "name": "leaderIndex",
          "type": "uint256"
        }
      ],
      "stateMutability": "nonpayable",
      "type": "function"
    },
    {
      "inputs": [
        {
          "components": [
            {
              "internalType": "enum ITransactions.ResultType",
              "name": "result",
              "type": "uint8"
            },
            {
              "internalType": "enum ITransactions.VoteType",
              "name": "txExecutionResult",
              "type": "uint8"
            },
            {
              "internalType": "enum ITransactions.TransactionStatus",
              "name": "previousStatus",
              "type": "uint8"
            },
            {
              "internalType": "enum ITransactions.TransactionStatus",
              "name": "status",
              "type": "uint8"
            },
            {
              "internalType": "address",
              "name": "txOrigin",
              "type": "address"
            },
            {
              "internalType": "address",
              "name": "sender",
              "type": "address"
            },
            {
              "internalType": "address",
              "name": "recipient",
              "type": "address"
            },
            {
              "internalType": "address",
              "name": "activator",
              "type": "address"
            },
            {
              "internalType": "uint256",
              "name": "txSlot",
              "type": "uint256"
            },
            {
              "internalType": "uint256",
              "name": "initialRotations",
              "type": "uint256"
            },
            {
              "internalType": "uint256",
              "name": "numOfInitialValidators",
              "type": "uint256"
            },
            {
              "internalType": "uint256",
              "name": "epoch",
              "type": "uint256"
            },
            {
              "internalType": "bytes32",
              "name": "id",
              "type": "bytes32"
            },
            {
              "internalType": "bytes32",
              "name": "randomSeed",
              "type": "bytes32"
            },
            {
              "internalType": "bytes32",
              "name": "txExecutionHash",
              "type": "bytes32"
            },
            {
              "internalType": "bytes32",
              "name": "resultHash",
              "type": "bytes32"
            },
            {
              "internalType": "bytes",
              "name": "txCalldata",
              "type": "bytes"
            },
            {
              "internalType": "bytes",
              "name": "eqBlocksOutputs",
              "type": "bytes"
            },
            {
              "components": [
                {
                  "internalType": "uint256",
                  "name": "activationBlock",
                  "type": "uint256"
                },
                {
                  "internalType": "uint256",
                  "name": "processingBlock",
                  "type": "uint256"
                },
                {
                  "internalType": "uint256",
                  "name": "proposalBlock",
                  "type": "uint256"
                }
              ],
              "internalType": "struct ITransactions.ReadStateBlockRange[]",
              "name": "readStateBlockRanges",
              "type": "tuple[]"
            },
            {
              "internalType": "uint256",
              "name": "validUntil",
              "type": "uint256"
            },
            {
              "internalType": "uint256",
              "name": "value",
              "type": "uint256"
            },
            {
              "internalType": "uint256",
              "name": "lockedStorageUnitPrice",
              "type": "uint256"
            },
            {
              "internalType": "uint256",
              "name": "storageFeeUsed",
              "type": "uint256"
            }
          ],
          "internalType": "struct ITransactions.Transaction",
          "name": "_tx",
          "type": "tuple"
        },
        {
          "internalType": "uint256",
          "name": "_appealBond",
          "type": "uint256"
        }
      ],
      "name": "createNewValidatorAppealRound",
      "outputs": [
        {
          "internalType": "address[]",
          "name": "appealValidators",
          "type": "address[]"
        },
        {
          "internalType": "uint256",
          "name": "round",
          "type": "uint256"
        },
        {
          "internalType": "uint256",
          "name": "leaderIndex",
          "type": "uint256"
        }
      ],
      "stateMutability": "nonpayable",
      "type": "function"
    },
    {
      "inputs": [
        {
          "internalType": "address",
          "name": "_addressManager",
          "type": "address"
        }
      ],
      "name": "initialize",
      "outputs": [],
      "stateMutability": "nonpayable",
      "type": "function"
    },
    {
      "inputs": [],
      "name": "owner",
      "outputs": [
        {
          "internalType": "address",
          "name": "",
          "type": "address"
        }
      ],
      "stateMutability": "view",
      "type": "function"
    },
    {
      "inputs": [],
      "name": "pendingOwner",
      "outputs": [
        {
          "internalType": "address",
          "name": "",
          "type": "address"
        }
      ],
      "stateMutability": "view",
      "type": "function"
    },
    {
      "inputs": [],
      "name": "renounceOwnership",
      "outputs": [],
      "stateMutability": "nonpayable",
      "type": "function"
    },
    {
      "inputs": [
        {
          "internalType": "address",
          "name": "newOwner",
          "type": "address"
        }
      ],
      "name": "transferOwnership",
      "outputs": [],
      "stateMutability": "nonpayable",
      "type": "function"
    }
  ],
  "bytecode": "0x6080806040523460d2577ff0c57e16840df040f15088dc2f81fe391c3923bec73e23a9662efc9c229c6a005460ff8160401c1660c1576002600160401b03196001600160401b03821601605c575b604051612ebc90816100d88239f35b6001600160401b0319166001600160401b039081177ff0c57e16840df040f15088dc2f81fe391c3923bec73e23a9662efc9c229c6a005581527fc7f505b2f371ae2175ee4913f4499e1f2633a7b5936321eed1cdaeb6115181d290602090a13880604d565b63f92ee8a960e01b60005260046000fd5b600080fdfe608080604052600436101561001357600080fd5b600090813560e01c9081633ab76e9f1461106257508063715018a614610fe157806371fc631114610c1457806379ba509714610bc35780638da5cb5b14610b8d578063a12c6af714610890578063c4d66de814610703578063c5281478146103d8578063e30c3978146103a2578063f2fde38b1461031a578063f40e537e146102545763fc01e37f146100a557600080fd5b34610251576080366003190112610251576004356001600160401b038111610220576100d5903690600401611170565b906064356001600160401b03811161022057366023820112156102205780600401356024602061010483611159565b61011160405191826110b8565b838152019160051b8301019136831161024f57602401905b8282106102375750505061013b61163f565b508054604051631bae711d60e21b8152602060048201819052600c60248301526b526f756e6473566f74696e6760a01b60448301529091829060649082906001600160a01b03165afa90811561022c5782916101ee575b506001600160a01b031633036101e0576101ce6101dc6101b7604435602435866126a8565b604092919251938493604085526040850190611491565b9083820360208501526113ed565b0390f35b6282b42960e81b8152600490fd5b90506020813d602011610224575b81610209602093836110b8565b810103126102205761021a906115c4565b38610192565b5080fd5b3d91506101fc565b6040513d84823e3d90fd5b60208091610244846110ef565b815201910190610129565b835b80fd5b503461025157610263366113bc565b8254604051631bae711d60e21b81529193919060209082906001600160a01b03168180610292600482016115d8565b03915afa90811561022c5782916102e0575b506001600160a01b031633036102d1576101dc6102c184846119b5565b906040949294519485948561142a565b63a5a4297b60e01b8152600490fd5b90506020813d602011610312575b816102fb602093836110b8565b810103126102205761030c906115c4565b386102a4565b3d91506102ee565b5034610251576020366003190112610251576103346110d9565b61033c611f12565b600080516020612e6783398151915280546001600160a01b0319166001600160a01b03928316908117909155600080516020612e27833981519152549091167f38d16b8cac22d99fc7c124b9cd0de2d3fa1faef420bfe791d8c362d765e227008380a380f35b5034610251578060031936011261025157600080516020612e67833981519152546040516001600160a01b039091168152602090f35b5034610251576020366003190112610251576004356001600160401b03811161022057610409903690600401611170565b8154604051631bae711d60e21b81526001600160a01b039091169060208180610434600482016115d8565b0381855afa9081156105e45784916106c9575b506001600160a01b03163314159081610648575b50610639576060918061046c611fb6565b90610475612062565b61018085015160405163ba15d63560e01b8152600481018290529590939192916001600160a01b031690602087602481855afa96871561062e5783976105f3575b506104db906104c4866120c2565b906104cd61163f565b508861012082015191612117565b959195929092159788610513575b8989896105096040519384931584526060602085015260608401906113ed565b9060408301520390f35b919395985080929496503b156105ef57876105489286928360405180968195829463bda6b95760e01b84528a60048501611697565b03925af180156105e4579084916105cb575b505060e0860151602090960151936001600160a01b031690813b1561024f5791839161059d9383604051809681958294635537b6d160e01b8452600484016116b3565b03925af1801561022c576105b6575b80808080806104e9565b6105c18280926110b8565b61025157806105ac565b816105d5916110b8565b6105e057823861055a565b8280fd5b6040513d86823e3d90fd5b8480fd5b9096506020813d602011610626575b8161060f602093836110b8565b810103126106215751956104db6104b6565b600080fd5b3d9150610602565b6040513d85823e3d90fd5b6315c9368f60e31b8252600482fd5b604051631bae711d60e21b815291506020908290818061066a600482016115f9565b03915afa90811561062e57839161068f575b506001600160a01b03163314153861045b565b90506020813d6020116106c1575b816106aa602093836110b8565b810103126105e0576106bb906115c4565b3861067c565b3d915061069d565b90506020813d6020116106fb575b816106e4602093836110b8565b8101031261024f576106f5906115c4565b38610447565b3d91506106d7565b50346102515760203660031901126102515761071d6110d9565b600080516020612e47833981519152549060ff8260401c1615916001600160401b03811680159081610888575b600114908161087e575b159081610875575b506108665767ffffffffffffffff198116600117600080516020612e478339815191525582610839575b5061078f612c2a565b610797612c2a565b61079f612c2a565b3315610825576107ae33611f48565b82546001600160a01b0319166001600160a01b03919091161782556107d05780f35b60ff60401b19600080516020612e478339815191525416600080516020612e47833981519152557fc7f505b2f371ae2175ee4913f4499e1f2633a7b5936321eed1cdaeb6115181d2602060405160018152a180f35b631e4fbdf760e01b83526004839052602483fd5b68ffffffffffffffffff19166801000000000000000117600080516020612e478339815191525538610786565b63f92ee8a960e01b8452600484fd5b9050153861075c565b303b159150610754565b84915061074a565b50346102515760403660031901126102515760043560018060a01b0382541660206040518092631bae711d60e21b825281806108ce600482016115d8565b03915afa90811561062e578391610b53575b506001600160a01b03163303610b44576001600160a01b03610900611fb6565b16906040519263ba15d63560e01b8452816004850152602084602481865afa938415610b37578194610b03575b50604051635af5446960e01b81528260048201528460248201528181604481875afa90811561022c578291610ae1575b506002850194858111610acd57600101858111610acd57843b156105e05760405163657c8d8560e01b81526004810185905260248082019290925290356044820152828160648183895af1801561062e57908391610ab8575b5050833b156102205760405163741e418f60e01b8152836004820152856024820152828160448183895af1801561062e57908391610aa3575b505060e0810151936020820193845160018101809111610a8f578651610a149161161f565b809552813b1561024f579183918783610a44956040519687958694859363bda6b95760e01b855260048501611697565b03925af1801561022c57610a7a575b506101dc9190506001600160a01b03610a6c828561191c565b51166040519485948561142a565b610a858280926110b8565b6102515780610a53565b634e487b7160e01b85526011600452602485fd5b81610aad916110b8565b6102205781386109ef565b81610ac2916110b8565b6102205781386109b6565b634e487b7160e01b83526011600452602483fd5b610afd91503d8084833e610af581836110b8565b81019061178c565b3861095d565b9093506020813d602011610b2f575b81610b1f602093836110b8565b810103126106215751923861092d565b3d9150610b12565b50604051903d90823e3d90fd5b63a5a4297b60e01b8252600482fd5b90506020813d602011610b85575b81610b6e602093836110b8565b810103126105e057610b7f906115c4565b386108e0565b3d9150610b61565b5034610251578060031936011261025157600080516020612e27833981519152546040516001600160a01b039091168152602090f35b5034610251578060031936011261025157600080516020612e6783398151915254336001600160a01b0390911603610c0157610bfe33611f48565b80f35b63118cdaa760e01b815233600452602490fd5b503461025157610c23366113bc565b9060018060a01b03835416604051631bae711d60e21b815260208180610c4b600482016115d8565b0381855afa908115610e31578591610fa7575b506001600160a01b03163314159081610f26575b50610f17576060918390610c84611fb6565b610c8c612062565b9060018060a01b031691610180850190815160405190633fcf7fc360e21b825260048201526020816024818c895af1908115610e69578991610ee5575b50809660018a921615610e74575b90610cfd91610ce685516120c2565b90610cef61163f565b5089610120820151916122d3565b95919592909215610d32575b610d238989896040519384936060855260608501906113ed565b91602084015260408301520390f35b9193955091809497505188833b1561025157878992610d65604051948593849363bda6b95760e01b855260048501611697565b038183875af18015610e6957610e51575b50835188939291823b156105ef5760405163657c8d8560e01b815260048101929092526024820188905260448201529083908290606490829084905af190811561062e578391610e3c575b505060e0860151602090960151925192936001600160a01b0316803b156105e057610e039383604051809681958294635537b6d160e01b8452600484016116b3565b03925af18015610e3157610e1c575b8080808080610d09565b610e278580926110b8565b61024f5783610e12565b6040513d87823e3d90fd5b81610e46916110b8565b610220578138610dc1565b88610e609199929493996110b8565b96909138610d76565b6040513d8b823e3d90fd5b965050815160405190633fcf7fc360e21b825260048201526020816024818c895af18015610e69578990610ead575b9660019150610cd7565b506020813d602011610edd575b81610ec7602093836110b8565b81010312610ed957610cfd9051610ea3565b8880fd5b3d9150610eba565b90506020813d602011610f0f575b81610f00602093836110b8565b81010312610ed9575138610cc9565b3d9150610ef3565b6315c9368f60e31b8352600483fd5b604051631bae711d60e21b8152915060209082908180610f48600482016115f9565b03915afa9081156105e4578491610f6d575b506001600160a01b031633141538610c72565b90506020813d602011610f9f575b81610f88602093836110b8565b8101031261024f57610f99906115c4565b38610f5a565b3d9150610f7b565b90506020813d602011610fd9575b81610fc2602093836110b8565b810103126105ef57610fd3906115c4565b38610c5e565b3d9150610fb5565b5034610251578060031936011261025157610ffa611f12565b600080516020612e6783398151915280546001600160a01b0319908116909155600080516020612e278339815191528054918216905581906001600160a01b03167f8be0079c531659141344cd1fd0a4f28419497f9722a3daafe3b4186f6b6457e08280a380f35b90503461022057816003193601126102205790546001600160a01b03168152602090f35b61016081019081106001600160401b038211176110a257604052565b634e487b7160e01b600052604160045260246000fd5b90601f801991011681019081106001600160401b038211176110a257604052565b600435906001600160a01b038216820361062157565b35906001600160a01b038216820361062157565b81601f82011215610621578035906001600160401b0382116110a25760405192611137601f8401601f1916602001856110b8565b8284526020838301011161062157816000926020809301838601378301015290565b6001600160401b0381116110a25760051b60200190565b9190916102e08184031261062157604051906102e082018281106001600160401b038211176110a257604052819381356006811015610621578352602082013560058110156106215760208401526040820135600f8110156106215760408401526060820135600f8110156106215760608401526111f0608083016110ef565b608084015261120160a083016110ef565b60a084015261121260c083016110ef565b60c084015261122360e083016110ef565b60e08401526101008201356101008401526101208201356101208401526101408201356101408401526101608201356101608401526101808201356101808401526101a08201356101a08401526101c08201356101c08401526101e08201356101e08401526102008201356001600160401b03811161062157816112a8918401611103565b6102008401526102208201356001600160401b03811161062157816112ce918401611103565b6102208401526102408201356001600160401b03811161062157820181601f820112156106215780359061130182611159565b9261130f60405194856110b8565b8284526020606081860194028301019181831161062157602001925b82841061136d57505050506102c09182916102408501526102608101356102608501526102808101356102808501526102a08101356102a08501520135910152565b606084830312610621576040519060608201908282106001600160401b038311176110a2576060926020926040528635815282870135838201526040870135604082015281520193019261132b565b604060031982011261062157600435906001600160401b038211610621576113e691600401611170565b9060243590565b906020808351928381520192019060005b81811061140b5750505090565b82516001600160a01b03168452602093840193909201916001016113fe565b90926114436060939695946080845260808401906113ed565b60208301969096526001600160a01b031660408201520152565b906020808351928381520192019060005b81811061147b5750505090565b825184526020938401939092019160010161146e565b919091610160830192815181526020820151602082015260408201516040820152606082015160608201526080820151608082015260a082015160a082015260c0820151600681101561158f5760c082015260e08201519361016060e083015284518091526020610180830195019060005b8181106115a55750505061010082015193818103610100830152602080865192838152019501906000905b80821061156c57505050610140611557611569949561012085015184820361012086015261145d565b9201519061014081840391015261145d565b90565b909195865190600582101561158f5760208160019382935201970192019061152e565b634e487b7160e01b600052602160045260246000fd5b82516001600160a01b0316875260209687019690920191600101611503565b51906001600160a01b038216820361062157565b606090602081526006602082015265526f756e647360d01b60408201520190565b60609060208152600b60208201526a149bdd5b991cd31a59da1d60aa1b60408201520190565b8115611629570690565b634e487b7160e01b600052601260045260246000fd5b6040519061164c82611086565b60606101408360008152600060208201526000604082015260008382015260006080820152600060a0820152600060c08201528260e082015282610100820152826101208201520152565b6115699392606092825260208201528160408201520190611491565b6040906115699392815281602082015201906113ed565b9080601f830112156106215781516116e181611159565b926116ef60405194856110b8565b81845260208085019260051b82010192831161062157602001905b8282106117175750505090565b60208091611724846115c4565b81520191019061170a565b9080601f8301121561062157815161174681611159565b9261175460405194856110b8565b81845260208085019260051b82010192831161062157602001905b82821061177c5750505090565b815181526020918201910161176f565b602081830312610621578051906001600160401b03821161062157016101608183031261062157604051916117c083611086565b815183526020820151602084015260408201516040840152606082015160608401526080820151608084015260a082015160a084015260c082015160068110156106215760c084015260e08201516001600160401b03811161062157816118289184016116ca565b60e08401526101008201516001600160401b03811161062157820181601f8201121561062157805161185981611159565b9161186760405193846110b8565b81835260208084019260051b8201019084821161062157602001915b8183106118e0575050506101008401526101208201516001600160401b03811161062157816118b391840161172f565b6101208401526101408201516001600160401b038111610621576118d7920161172f565b61014082015290565b8251600581101561062157815260209283019201611883565b8051156119065760200190565b634e487b7160e01b600052603260045260246000fd5b80518210156119065760209160051b010190565b906020828203126106215781516001600160401b0381116106215761156992016116ca565b93929161197e906119706040936060885260608801906113ed565b9086820360208801526113ed565b930152565b9061198d82611159565b61199a60405191826110b8565b82815280926119ab601f1991611159565b0190602036910137565b906119be611fb6565b916119c7612441565b936119d0612062565b9360018060a01b0316926101808301908151946000926040519663ba15d63560e01b88526004880152602087602481855afa9687156105e4578497611ede575b50805160405190635af5446960e01b825260048201528760248201528481604481865afa908115610e31578591611ec4575b5060028801998a8911611eb05782516101a08901518c9a6001018b8111611e9c5760405163053b601760e51b8152600481019190915292602090849060249082906001600160a01b03165afa8015611e91578890611e59575b611ab793506101608b015191611ab187516120c2565b936124a3565b819a91511580611e51575b611e2d5750611b129798999a5073__$8b0f212190ad0b350ebeb1d3aa845a5dc8$__9a86602060e08501519401938d838651926040519d8e9485938493635d881d2b60e01b855260048501611955565b03915af4988915611dfe578799611e09575b509086611b58928a9d611b3787516120c2565b8051604051635d881d2b60e01b815296879485938493919060048501611955565b03915af4918215611dfe578792611dda575b5060018060a01b03168351813b15611dd657918791611ba09383604051809681958294635537b6d160e01b8452600484016116b3565b03925af18015611dcb57611db7575b505160018101809111610a8f578651611bc79161161f565b956101206001600160a01b03611bdd898461191c565b511698015190611bed8151611983565b611bf78251611983565b90611c028351611983565b9260405194611c1086611086565b8d86528b602087015289604087015289606087015289608087015260a08601528860c086015260e08501526101008401526101208301526101408201528151833b15611db357898691611c77604051948593849363bda6b95760e01b855260048501611697565b038183875af18015610e3157908591611d9e575b50508051823b156105ef5760405163657c8d8560e01b815260048101919091526024810189905260448101849052848160648183875af18015610e3157908591611d89575b50508051823b156105ef576040519063741e418f60e01b82526004820152886024820152848160448183875af18015610e3157908591611d74575b505051600019880190888211610a8f57823b156105ef5760405163657c8d8560e01b815260048101919091526024810191909152604481019290925282908290606490829084905af1801561022c57611d62575050565b611d6d8280926110b8565b6102515750565b81611d7e916110b8565b61024f578338611d0b565b81611d93916110b8565b61024f578338611cd0565b81611da8916110b8565b61024f578338611c8b565b8580fd5b85611dc4919692966110b8565b9338611baf565b6040513d88823e3d90fd5b8780fd5b611df79192503d8089833e611def81836110b8565b810190611930565b9038611b6a565b6040513d89823e3d90fd5b611b5892919950611e2488913d8084833e611def81836110b8565b99919250611b24565b9850505050505050905060018060a01b03611e48838561191c565b51169293929190565b508015611ac2565b5090916020813d602011611e89575b81611e75602093836110b8565b81010312611dd65790611ab7929151611a9b565b3d9150611e68565b6040513d8a823e3d90fd5b634e487b7160e01b89526011600452602489fd5b634e487b7160e01b86526011600452602486fd5b611ed891503d8087833e610af581836110b8565b38611a42565b9096506020813d602011611f0a575b81611efa602093836110b8565b8101031261024f57519538611a10565b3d9150611eed565b600080516020612e27833981519152546001600160a01b03163303611f3357565b63118cdaa760e01b6000523360045260246000fd5b600080516020612e6783398151915280546001600160a01b0319908116909155600080516020612e2783398151915280549182166001600160a01b0393841690811790915591167f8be0079c531659141344cd1fd0a4f28419497f9722a3daafe3b4186f6b6457e0600080a3565b600054604051631bae711d60e21b8152602060048201819052600d60248301526c526f756e647353746f7261676560981b60448301529091829060649082906001600160a01b03165afa9081156120565760009161201c575b506001600160a01b031690565b90506020813d60201161204e575b81612037602093836110b8565b8101031261062157612048906115c4565b3861200f565b3d915061202a565b6040513d6000823e3d90fd5b600054604051631bae711d60e21b8152602060048201819052600860248301526749646c656e65737360c01b60448301529091829060649082906001600160a01b03165afa9081156120565760009161201c57506001600160a01b031690565b60006001600160a01b036120d4612062565b1691602460405180948193633717892560e01b835260048301525afa90811561205657600091612102575090565b61156991503d806000833e611def81836110b8565b919261212161163f565b9360009361212d612441565b602461018083019182519360206101a0820151926040519485809263053b601760e51b82528c600483015260018060a01b03165afa9283156120565760009361229d575b506101600151925161218a9493929190611ab1906120c2565b92909586511580612295575b612285575080519086821561227c576000916121c66040519485938493635d881d2b60e01b855260048501611955565b038173__$8b0f212190ad0b350ebeb1d3aa845a5dc8$__5af490811561205657600091612261575b50945b6121fb8151611983565b906122068151611983565b926122118251611983565b946040519661221f88611086565b8752602087015260006040870152600060608701526000608087015260a0860152600060c086015260e085015261010084015261012083015261014082015292565b61227691503d806000833e611def81836110b8565b386121ee565b915050946121f1565b9550505050505090606090600190565b508315612196565b90926020823d6020116122cb575b816122b8602093836110b8565b8101031261025157505191611ab1612171565b3d91506122ab565b939290916122df61163f565b946000946122eb612441565b916101808101908151926101a0820151906000906000146123af575060001988018881116123995760405163053b601760e51b8152600481019190915294602090869060249082906001600160a01b03165afa94851561205657600095612363575b50611ab161016061218a96935b015193516120c2565b94506020853d602011612391575b8161237e602093836110b8565b8101031261062157935193611ab161234d565b3d9150612371565b634e487b7160e01b600052601160045260246000fd5b909192939460206024916040519283809263053b601760e51b82528d600483015260018060a01b03165afa9182156124355780926123fc575b505090611ab161016061218a96959461235a565b9091506020823d60201161242d575b81612418602093836110b8565b81010312610251575051611ab16101606123e8565b3d915061240b565b604051903d90823e3d90fd5b600054604051631bae711d60e21b8152602060048201819052600a6024830152692332b2a6b0b730b3b2b960b11b60448301529091829060649082906001600160a01b03165afa9081156120565760009161201c57506001600160a01b031690565b9491926124ae612c58565b906101006001600160a01b036124c2612062565b16976024604051809a819363149ecac960e11b835260048301525afa8015612056576000906125f0575b60009495969750519261253f604051988995869485946382df24a160e01b8652600486015288602486015260448501526064840152886084840152600160a484015260e060c484015260e48301906113ed565b03916001600160a01b03165afa918215612056576000938493612585575b50829392519080821061256e575050565b635af2dc9b60e11b60005260045260245260446000fd5b939092503d8082863e61259881866110b8565b84016060858203126102205784519160208601516001600160401b03811161022057826125c69188016116ca565b956040810151916001600160401b03831161025157506125e79291016116ca565b5092913861255d565b610100883d82116126a0575b8161260a61010093836110b8565b8101031261025157604051906101008201908282106001600160401b0383111761268c575060009596979860e091604052805183526020810151602084015260408101516040840152606081015160608401526080810151608084015260a081015160a084015260c081015160c0840152015160e082015287969594506124ec565b634e487b7160e01b81526041600452602490fd5b3d91506125fc565b916126b161163f565b600091906060906001600160a01b036126c8611fb6565b1691610180870190815193600119880196888811612b515760405195635af5446960e01b875260048701528760248701528086604481855afa958615610b37578196612c0e575b50602060e08701519601519786511515600014612a21575050825160001989018981116123995760446000926040519485938492635af5446960e01b8452600484015260248301525afa90811561205657879160e091600091612a06575b50015180516129955750505060409081519361278983866110b8565b60018552601f1983013660208701376001600160a01b03906127ac90889061191c565b51166127b7856118f9565b52516101a08801516127c888612cb7565b600019810192908311612399576127e79286926101608c0151926124a3565b5080518251635d881d2b60e01b815291946000918391829161280d918960048501611955565b038173__$8b0f212190ad0b350ebeb1d3aa845a5dc8$__5af491821561298b5750600091612970575b50905b6101a08297015194825190801515600014612967575b84519160405197630537dd3b60e11b8952600489015260248801526044870152606486015260208560848173__$a6e619d69c86bc274aaf34384d8e5af120$__5af494851561205657600095612933575b508251158061292b575b6129205750506128ba8151611983565b906128c58151611983565b926128d08251611983565b94604051966128de88611086565b8752602087015260006040870152600060608701526000608087015260a0860152600060c086015260e085015261010084015261012083015261014082015291565b969095509350505050565b5084156128aa565b90946020823d60201161295f575b8161294e602093836110b8565b8101031261025157505193386128a0565b3d9150612941565b5060001961284f565b61298591503d806000833e611def81836110b8565b38612836565b513d6000823e3d90fd5b604051635d881d2b60e01b8152949592949350600092849283926129bc9260048501611955565b038173__$8b0f212190ad0b350ebeb1d3aa845a5dc8$__5af4908115612056576000916129eb575b5091612839565b612a0091503d806000833e611def81836110b8565b386129e4565b612a1b91503d806000833e610af581836110b8565b3861276d565b91955080975080925090805b612b81575b50604483516040519687938492635af5446960e01b8452600484015260248301525afa928315610e31578593612b65575b50602060e084015193015194604091825194612a7f84876110b8565b60018652601f1984013660208801376001600160a01b0390612aa290899061191c565b5116612aad866118f9565b5251906101a0890151612abf89612cb7565b600019810192908311612b515750918591612ae0936101608c0151926124a3565b5080518251635d881d2b60e01b8152919460009183918291612b06918960048501611955565b038173__$8b0f212190ad0b350ebeb1d3aa845a5dc8$__5af491821561298b5750600091612b36575b5090612839565b612b4b91503d806000833e611def81836110b8565b38612b2f565b634e487b7160e01b81526011600452602490fd5b612b7a9193503d8087833e610af581836110b8565b9138612a63565b909150825160405190635af5446960e01b825260048201528160248201528781604481895afa908115611e9157889160e0918391612bf4575b50015151612bec57506001198101908111612bd85790818792612a2d565b634e487b7160e01b87526011600452602487fd5b915038612a32565b612c0891503d8085833e610af581836110b8565b38612bba565b612c239196503d8088833e610af581836110b8565b943861270f565b60ff600080516020612e478339815191525460401c1615612c4757565b631afcd79f60e31b60005260046000fd5b600054604051631bae711d60e21b815260206004820181905260076024830152665374616b696e6760c81b60448301529091829060649082906001600160a01b03165afa9081156120565760009161201c57506001600160a01b031690565b612cbf612c58565b90612cc8612441565b916001821615612d40575b5060405163053b601760e51b8152600481019190915290602090829060249082906001600160a01b03165afa90811561205657600091612d11575090565b90506020813d602011612d38575b81612d2c602093836110b8565b81010312610621575190565b3d9150612d1f565b604051630d2bd90960e01b815290602090829060049082906001600160a01b03165afa90811561205657600091612df4575b50600282018083116123995760405163053b601760e51b815260048101919091526020816024816001600160a01b0388165afa90811561205657600091612dc2575b50811015612cd35791505090565b90506020813d602011612dec575b81612ddd602093836110b8565b81010312610621575138612db4565b3d9150612dd0565b906020823d602011612e1e575b81612e0e602093836110b8565b8101031261025157505138612d72565b3d9150612e0156fe9016d09d72d40fdae2fd8ceac6b6234c7706214fd39c1cd1e609a0528c199300f0c57e16840df040f15088dc2f81fe391c3923bec73e23a9662efc9c229c6a00237e158222e3e6968b72b9db0d8043aacf074ad9f650f0d1606b4d82ee432c00a26469706673582212202366c0012fb42b779432f626eacb36c06e3af310abcd4020a6f432b636a2076664736f6c634300081c0033",
  "linkReferences": {
    "contracts/utils/ArrayUtils.sol": {
      "ArrayUtils": [
        {
          "length": 20,
          "start": 7081
        },
        {
          "length": 20,
          "start": 8866
        },
        {
          "length": 20,
          "start": 10473
        },
        {
          "length": 20,
          "start": 10904
        },
        {
          "length": 20,
          "start": 11234
        }
      ]
    },
    "contracts/utils/RandomnessUtils.sol": {
      "RandomnessUtils": [
        {
          "length": 20,
          "start": 10580
        }
      ]
    }
  },
  "deployedLinkReferences": {
    "contracts/utils/ArrayUtils.sol": {
      "ArrayUtils": [
        {
          "length": 20,
          "start": 6865
        },
        {
          "length": 20,
          "start": 8650
        },
        {
          "length": 20,
          "start": 10257
        },
        {
          "length": 20,
          "start": 10688
        },
        {
          "length": 20,
          "start": 11018
        }
      ]
    },
    "contracts/utils/RandomnessUtils.sol": {
      "RandomnessUtils": [
        {
          "length": 20,
          "start": 10364
        }
      ]
    }
  }
}