{
  "_format": "hh-sol-artifact-1",
  "contractName": "StakingViews",
  "sourceName": "contracts/staking/StakingViews.sol",
  "abi": [
    {
      "inputs": [],
      "name": "AccessControlBadConfirmation",
      "type": "error"
    },
    {
      "inputs": [
        {
          "internalType": "address",
          "name": "account",
          "type": "address"
        },
        {
          "internalType": "bytes32",
          "name": "neededRole",
          "type": "bytes32"
        }
      ],
      "name": "AccessControlUnauthorizedAccount",
      "type": "error"
    },
    {
      "inputs": [],
      "name": "InvalidInitialization",
      "type": "error"
    },
    {
      "inputs": [],
      "name": "NotInitializing",
      "type": "error"
    },
    {
      "inputs": [
        {
          "internalType": "address",
          "name": "owner",
          "type": "address"
        }
      ],
      "name": "OwnableInvalidOwner",
      "type": "error"
    },
    {
      "inputs": [
        {
          "internalType": "address",
          "name": "account",
          "type": "address"
        }
      ],
      "name": "OwnableUnauthorizedAccount",
      "type": "error"
    },
    {
      "inputs": [],
      "name": "ReentrancyGuardReentrantCall",
      "type": "error"
    },
    {
      "inputs": [],
      "name": "ValidatorsConsumed",
      "type": "error"
    },
    {
      "inputs": [],
      "name": "ValidatorsUnavailable",
      "type": "error"
    },
    {
      "anonymous": false,
      "inputs": [
        {
          "indexed": false,
          "internalType": "uint64",
          "name": "version",
          "type": "uint64"
        }
      ],
      "name": "Initialized",
      "type": "event"
    },
    {
      "anonymous": false,
      "inputs": [
        {
          "indexed": true,
          "internalType": "address",
          "name": "previousOwner",
          "type": "address"
        },
        {
          "indexed": true,
          "internalType": "address",
          "name": "newOwner",
          "type": "address"
        }
      ],
      "name": "OwnershipTransferStarted",
      "type": "event"
    },
    {
      "anonymous": false,
      "inputs": [
        {
          "indexed": true,
          "internalType": "address",
          "name": "previousOwner",
          "type": "address"
        },
        {
          "indexed": true,
          "internalType": "address",
          "name": "newOwner",
          "type": "address"
        }
      ],
      "name": "OwnershipTransferred",
      "type": "event"
    },
    {
      "anonymous": false,
      "inputs": [
        {
          "indexed": true,
          "internalType": "bytes32",
          "name": "role",
          "type": "bytes32"
        },
        {
          "indexed": true,
          "internalType": "bytes32",
          "name": "previousAdminRole",
          "type": "bytes32"
        },
        {
          "indexed": true,
          "internalType": "bytes32",
          "name": "newAdminRole",
          "type": "bytes32"
        }
      ],
      "name": "RoleAdminChanged",
      "type": "event"
    },
    {
      "anonymous": false,
      "inputs": [
        {
          "indexed": true,
          "internalType": "bytes32",
          "name": "role",
          "type": "bytes32"
        },
        {
          "indexed": true,
          "internalType": "address",
          "name": "account",
          "type": "address"
        },
        {
          "indexed": true,
          "internalType": "address",
          "name": "sender",
          "type": "address"
        }
      ],
      "name": "RoleGranted",
      "type": "event"
    },
    {
      "anonymous": false,
      "inputs": [
        {
          "indexed": true,
          "internalType": "bytes32",
          "name": "role",
          "type": "bytes32"
        },
        {
          "indexed": true,
          "internalType": "address",
          "name": "account",
          "type": "address"
        },
        {
          "indexed": true,
          "internalType": "address",
          "name": "sender",
          "type": "address"
        }
      ],
      "name": "RoleRevoked",
      "type": "event"
    },
    {
      "inputs": [],
      "name": "DEFAULT_ADMIN_ROLE",
      "outputs": [
        {
          "internalType": "bytes32",
          "name": "",
          "type": "bytes32"
        }
      ],
      "stateMutability": "view",
      "type": "function"
    },
    {
      "inputs": [],
      "name": "DEFAULT_DELEGATOR_MIN_STAKE",
      "outputs": [
        {
          "internalType": "uint256",
          "name": "",
          "type": "uint256"
        }
      ],
      "stateMutability": "view",
      "type": "function"
    },
    {
      "inputs": [],
      "name": "DEFAULT_VALIDATOR_MIN_STAKE",
      "outputs": [
        {
          "internalType": "uint256",
          "name": "",
          "type": "uint256"
        }
      ],
      "stateMutability": "view",
      "type": "function"
    },
    {
      "inputs": [],
      "name": "DELEGATOR_UNBONDING_PERIOD",
      "outputs": [
        {
          "internalType": "uint256",
          "name": "",
          "type": "uint256"
        }
      ],
      "stateMutability": "view",
      "type": "function"
    },
    {
      "inputs": [],
      "name": "INFLATION_BASE",
      "outputs": [
        {
          "internalType": "uint256",
          "name": "",
          "type": "uint256"
        }
      ],
      "stateMutability": "view",
      "type": "function"
    },
    {
      "inputs": [],
      "name": "INFLATION_DEEPTHOUGHT_BPS",
      "outputs": [
        {
          "internalType": "uint256",
          "name": "",
          "type": "uint256"
        }
      ],
      "stateMutability": "view",
      "type": "function"
    },
    {
      "inputs": [],
      "name": "INFLATION_DEVELOPER_BPS",
      "outputs": [
        {
          "internalType": "uint256",
          "name": "",
          "type": "uint256"
        }
      ],
      "stateMutability": "view",
      "type": "function"
    },
    {
      "inputs": [],
      "name": "INFLATION_FINAL",
      "outputs": [
        {
          "internalType": "uint256",
          "name": "",
          "type": "uint256"
        }
      ],
      "stateMutability": "view",
      "type": "function"
    },
    {
      "inputs": [],
      "name": "INFLATION_INITIAL",
      "outputs": [
        {
          "internalType": "uint256",
          "name": "",
          "type": "uint256"
        }
      ],
      "stateMutability": "view",
      "type": "function"
    },
    {
      "inputs": [],
      "name": "INFLATION_MID",
      "outputs": [
        {
          "internalType": "int256",
          "name": "",
          "type": "int256"
        }
      ],
      "stateMutability": "view",
      "type": "function"
    },
    {
      "inputs": [],
      "name": "INFLATION_STAKER_BPS",
      "outputs": [
        {
          "internalType": "uint256",
          "name": "",
          "type": "uint256"
        }
      ],
      "stateMutability": "view",
      "type": "function"
    },
    {
      "inputs": [],
      "name": "INFLATION_STEEPNESS",
      "outputs": [
        {
          "internalType": "int256",
          "name": "",
          "type": "int256"
        }
      ],
      "stateMutability": "view",
      "type": "function"
    },
    {
      "inputs": [],
      "name": "INFLATION_VALIDATOR_BPS",
      "outputs": [
        {
          "internalType": "uint256",
          "name": "",
          "type": "uint256"
        }
      ],
      "stateMutability": "view",
      "type": "function"
    },
    {
      "inputs": [],
      "name": "L1_MESSENGER",
      "outputs": [
        {
          "internalType": "contract IL1Messenger",
          "name": "",
          "type": "address"
        }
      ],
      "stateMutability": "view",
      "type": "function"
    },
    {
      "inputs": [],
      "name": "QUARANTINE_MANAGER_ROLE",
      "outputs": [
        {
          "internalType": "bytes32",
          "name": "",
          "type": "bytes32"
        }
      ],
      "stateMutability": "view",
      "type": "function"
    },
    {
      "inputs": [],
      "name": "SLASH_CALLER_INCENTIVE_BPS",
      "outputs": [
        {
          "internalType": "uint256",
          "name": "",
          "type": "uint256"
        }
      ],
      "stateMutability": "view",
      "type": "function"
    },
    {
      "inputs": [],
      "name": "VALIDATOR_UNBONDING_PERIOD",
      "outputs": [
        {
          "internalType": "uint256",
          "name": "",
          "type": "uint256"
        }
      ],
      "stateMutability": "view",
      "type": "function"
    },
    {
      "inputs": [],
      "name": "acceptOwnership",
      "outputs": [],
      "stateMutability": "nonpayable",
      "type": "function"
    },
    {
      "inputs": [],
      "name": "activeValidators",
      "outputs": [
        {
          "internalType": "address[]",
          "name": "",
          "type": "address[]"
        }
      ],
      "stateMutability": "view",
      "type": "function"
    },
    {
      "inputs": [],
      "name": "activeValidatorsCount",
      "outputs": [
        {
          "internalType": "uint256",
          "name": "",
          "type": "uint256"
        }
      ],
      "stateMutability": "view",
      "type": "function"
    },
    {
      "inputs": [],
      "name": "activeWeights",
      "outputs": [
        {
          "internalType": "uint256[]",
          "name": "",
          "type": "uint256[]"
        }
      ],
      "stateMutability": "view",
      "type": "function"
    },
    {
      "inputs": [],
      "name": "addressManager",
      "outputs": [
        {
          "internalType": "contract IAddressManager",
          "name": "",
          "type": "address"
        }
      ],
      "stateMutability": "view",
      "type": "function"
    },
    {
      "inputs": [],
      "name": "burning",
      "outputs": [
        {
          "internalType": "uint256",
          "name": "",
          "type": "uint256"
        }
      ],
      "stateMutability": "view",
      "type": "function"
    },
    {
      "inputs": [],
      "name": "calculateTotalSystemStake",
      "outputs": [
        {
          "internalType": "uint256",
          "name": "",
          "type": "uint256"
        }
      ],
      "stateMutability": "view",
      "type": "function"
    },
    {
      "inputs": [],
      "name": "canAdvance",
      "outputs": [
        {
          "internalType": "bool",
          "name": "",
          "type": "bool"
        }
      ],
      "stateMutability": "view",
      "type": "function"
    },
    {
      "inputs": [],
      "name": "canFinalize",
      "outputs": [
        {
          "internalType": "bool",
          "name": "",
          "type": "bool"
        }
      ],
      "stateMutability": "view",
      "type": "function"
    },
    {
      "inputs": [],
      "name": "deepthought",
      "outputs": [
        {
          "internalType": "address payable",
          "name": "",
          "type": "address"
        }
      ],
      "stateMutability": "view",
      "type": "function"
    },
    {
      "inputs": [
        {
          "internalType": "uint256",
          "name": "_inflation",
          "type": "uint256"
        }
      ],
      "name": "deepthoughtInflation",
      "outputs": [
        {
          "internalType": "uint256",
          "name": "",
          "type": "uint256"
        }
      ],
      "stateMutability": "pure",
      "type": "function"
    },
    {
      "inputs": [
        {
          "internalType": "address",
          "name": "_delegator",
          "type": "address"
        }
      ],
      "name": "delegatorDelegations",
      "outputs": [
        {
          "internalType": "address[]",
          "name": "",
          "type": "address[]"
        }
      ],
      "stateMutability": "view",
      "type": "function"
    },
    {
      "inputs": [
        {
          "internalType": "address",
          "name": "_delegator",
          "type": "address"
        },
        {
          "internalType": "address",
          "name": "_validator",
          "type": "address"
        },
        {
          "internalType": "uint256",
          "name": "_index",
          "type": "uint256"
        }
      ],
      "name": "delegatorDeposit",
      "outputs": [
        {
          "components": [
            {
              "internalType": "uint256",
              "name": "quantity",
              "type": "uint256"
            },
            {
              "internalType": "uint256",
              "name": "commit",
              "type": "uint256"
            }
          ],
          "internalType": "struct IGenLayerStaking.Claim",
          "name": "claim_",
          "type": "tuple"
        },
        {
          "components": [
            {
              "internalType": "uint256",
              "name": "input",
              "type": "uint256"
            },
            {
              "internalType": "uint256",
              "name": "output",
              "type": "uint256"
            },
            {
              "internalType": "uint256",
              "name": "epoch",
              "type": "uint256"
            },
            {
              "internalType": "uint256",
              "name": "linkToNextCommit",
              "type": "uint256"
            }
          ],
          "internalType": "struct IGenLayerStaking.Commit",
          "name": "commit_",
          "type": "tuple"
        }
      ],
      "stateMutability": "view",
      "type": "function"
    },
    {
      "inputs": [
        {
          "internalType": "address",
          "name": "_delegator",
          "type": "address"
        },
        {
          "internalType": "address",
          "name": "_validator",
          "type": "address"
        },
        {
          "internalType": "uint256",
          "name": "_epoch",
          "type": "uint256"
        }
      ],
      "name": "delegatorDepositByEpoch",
      "outputs": [
        {
          "components": [
            {
              "internalType": "uint256",
              "name": "input",
              "type": "uint256"
            },
            {
              "internalType": "uint256",
              "name": "output",
              "type": "uint256"
            },
            {
              "internalType": "uint256",
              "name": "epoch",
              "type": "uint256"
            },
            {
              "internalType": "uint256",
              "name": "linkToNextCommit",
              "type": "uint256"
            }
          ],
          "internalType": "struct IGenLayerStaking.Commit",
          "name": "commit_",
          "type": "tuple"
        }
      ],
      "stateMutability": "view",
      "type": "function"
    },
    {
      "inputs": [
        {
          "internalType": "address",
          "name": "_delegator",
          "type": "address"
        },
        {
          "internalType": "address",
          "name": "_validator",
          "type": "address"
        }
      ],
      "name": "delegatorDepositLen",
      "outputs": [
        {
          "internalType": "uint256",
          "name": "",
          "type": "uint256"
        }
      ],
      "stateMutability": "view",
      "type": "function"
    },
    {
      "inputs": [],
      "name": "delegatorMinStake",
      "outputs": [
        {
          "internalType": "uint256",
          "name": "",
          "type": "uint256"
        }
      ],
      "stateMutability": "view",
      "type": "function"
    },
    {
      "inputs": [
        {
          "internalType": "address",
          "name": "_delegator",
          "type": "address"
        },
        {
          "internalType": "address",
          "name": "_validator",
          "type": "address"
        },
        {
          "internalType": "uint256",
          "name": "_index",
          "type": "uint256"
        }
      ],
      "name": "delegatorWithdrawal",
      "outputs": [
        {
          "components": [
            {
              "internalType": "uint256",
              "name": "quantity",
              "type": "uint256"
            },
            {
              "internalType": "uint256",
              "name": "commit",
              "type": "uint256"
            }
          ],
          "internalType": "struct IGenLayerStaking.Claim",
          "name": "claim_",
          "type": "tuple"
        },
        {
          "components": [
            {
              "internalType": "uint256",
              "name": "input",
              "type": "uint256"
            },
            {
              "internalType": "uint256",
              "name": "output",
              "type": "uint256"
            },
            {
              "internalType": "uint256",
              "name": "epoch",
              "type": "uint256"
            },
            {
              "internalType": "uint256",
              "name": "linkToNextCommit",
              "type": "uint256"
            }
          ],
          "internalType": "struct IGenLayerStaking.Commit",
          "name": "commit_",
          "type": "tuple"
        }
      ],
      "stateMutability": "view",
      "type": "function"
    },
    {
      "inputs": [
        {
          "internalType": "address",
          "name": "_delegator",
          "type": "address"
        },
        {
          "internalType": "address",
          "name": "_validator",
          "type": "address"
        },
        {
          "internalType": "uint256",
          "name": "_epoch",
          "type": "uint256"
        }
      ],
      "name": "delegatorWithdrawalByEpoch",
      "outputs": [
        {
          "components": [
            {
              "internalType": "uint256",
              "name": "input",
              "type": "uint256"
            },
            {
              "internalType": "uint256",
              "name": "output",
              "type": "uint256"
            },
            {
              "internalType": "uint256",
              "name": "epoch",
              "type": "uint256"
            },
            {
              "internalType": "uint256",
              "name": "linkToNextCommit",
              "type": "uint256"
            }
          ],
          "internalType": "struct IGenLayerStaking.Commit",
          "name": "commit_",
          "type": "tuple"
        }
      ],
      "stateMutability": "view",
      "type": "function"
    },
    {
      "inputs": [
        {
          "internalType": "address",
          "name": "_delegator",
          "type": "address"
        },
        {
          "internalType": "address",
          "name": "_validator",
          "type": "address"
        }
      ],
      "name": "delegatorWithdrawalLen",
      "outputs": [
        {
          "internalType": "uint256",
          "name": "",
          "type": "uint256"
        }
      ],
      "stateMutability": "view",
      "type": "function"
    },
    {
      "inputs": [
        {
          "internalType": "uint256",
          "name": "_inflation",
          "type": "uint256"
        }
      ],
      "name": "developerInflation",
      "outputs": [
        {
          "internalType": "uint256",
          "name": "",
          "type": "uint256"
        }
      ],
      "stateMutability": "pure",
      "type": "function"
    },
    {
      "inputs": [],
      "name": "epoch",
      "outputs": [
        {
          "internalType": "uint256",
          "name": "",
          "type": "uint256"
        }
      ],
      "stateMutability": "view",
      "type": "function"
    },
    {
      "inputs": [],
      "name": "epochEven",
      "outputs": [
        {
          "internalType": "uint256",
          "name": "start",
          "type": "uint256"
        },
        {
          "internalType": "uint256",
          "name": "end",
          "type": "uint256"
        },
        {
          "internalType": "uint256",
          "name": "inflation",
          "type": "uint256"
        },
        {
          "internalType": "uint256",
          "name": "weight",
          "type": "uint256"
        },
        {
          "internalType": "uint256",
          "name": "weightDeposit",
          "type": "uint256"
        },
        {
          "internalType": "uint256",
          "name": "weightWithdrawal",
          "type": "uint256"
        },
        {
          "internalType": "uint256",
          "name": "vcount",
          "type": "uint256"
        },
        {
          "internalType": "uint256",
          "name": "claimed",
          "type": "uint256"
        },
        {
          "internalType": "uint256",
          "name": "stakeDeposit",
          "type": "uint256"
        },
        {
          "internalType": "uint256",
          "name": "stakeWithdrawal",
          "type": "uint256"
        },
        {
          "internalType": "uint256",
          "name": "slashed",
          "type": "uint256"
        }
      ],
      "stateMutability": "view",
      "type": "function"
    },
    {
      "inputs": [],
      "name": "epochExtraMinDuration",
      "outputs": [
        {
          "internalType": "uint256",
          "name": "",
          "type": "uint256"
        }
      ],
      "stateMutability": "view",
      "type": "function"
    },
    {
      "inputs": [
        {
          "internalType": "uint256",
          "name": "_epoch",
          "type": "uint256"
        }
      ],
      "name": "epochInflation",
      "outputs": [
        {
          "internalType": "uint256",
          "name": "",
          "type": "uint256"
        }
      ],
      "stateMutability": "view",
      "type": "function"
    },
    {
      "inputs": [],
      "name": "epochMinDuration",
      "outputs": [
        {
          "internalType": "uint256",
          "name": "",
          "type": "uint256"
        }
      ],
      "stateMutability": "view",
      "type": "function"
    },
    {
      "inputs": [],
      "name": "epochMinDurationThreshold",
      "outputs": [
        {
          "internalType": "uint256",
          "name": "",
          "type": "uint256"
        }
      ],
      "stateMutability": "view",
      "type": "function"
    },
    {
      "inputs": [],
      "name": "epochOdd",
      "outputs": [
        {
          "internalType": "uint256",
          "name": "start",
          "type": "uint256"
        },
        {
          "internalType": "uint256",
          "name": "end",
          "type": "uint256"
        },
        {
          "internalType": "uint256",
          "name": "inflation",
          "type": "uint256"
        },
        {
          "internalType": "uint256",
          "name": "weight",
          "type": "uint256"
        },
        {
          "internalType": "uint256",
          "name": "weightDeposit",
          "type": "uint256"
        },
        {
          "internalType": "uint256",
          "name": "weightWithdrawal",
          "type": "uint256"
        },
        {
          "internalType": "uint256",
          "name": "vcount",
          "type": "uint256"
        },
        {
          "internalType": "uint256",
          "name": "claimed",
          "type": "uint256"
        },
        {
          "internalType": "uint256",
          "name": "stakeDeposit",
          "type": "uint256"
        },
        {
          "internalType": "uint256",
          "name": "stakeWithdrawal",
          "type": "uint256"
        },
        {
          "internalType": "uint256",
          "name": "slashed",
          "type": "uint256"
        }
      ],
      "stateMutability": "view",
      "type": "function"
    },
    {
      "inputs": [],
      "name": "epochZeroMinDuration",
      "outputs": [
        {
          "internalType": "uint256",
          "name": "",
          "type": "uint256"
        }
      ],
      "stateMutability": "view",
      "type": "function"
    },
    {
      "inputs": [],
      "name": "finalizationPhaseAddress",
      "outputs": [
        {
          "internalType": "address",
          "name": "",
          "type": "address"
        }
      ],
      "stateMutability": "view",
      "type": "function"
    },
    {
      "inputs": [],
      "name": "finalized",
      "outputs": [
        {
          "internalType": "uint256",
          "name": "",
          "type": "uint256"
        }
      ],
      "stateMutability": "view",
      "type": "function"
    },
    {
      "inputs": [
        {
          "internalType": "bytes32",
          "name": "_randomSeed",
          "type": "bytes32"
        },
        {
          "internalType": "uint256",
          "name": "_txCreatedTimestamp",
          "type": "uint256"
        }
      ],
      "name": "getActivatorForSeed",
      "outputs": [
        {
          "internalType": "address",
          "name": "",
          "type": "address"
        }
      ],
      "stateMutability": "view",
      "type": "function"
    },
    {
      "inputs": [
        {
          "internalType": "uint256",
          "name": "_startIndex",
          "type": "uint256"
        },
        {
          "internalType": "uint256",
          "name": "_size",
          "type": "uint256"
        }
      ],
      "name": "getAllBannedValidators",
      "outputs": [
        {
          "components": [
            {
              "internalType": "address",
              "name": "validator",
              "type": "address"
            },
            {
              "internalType": "uint256",
              "name": "untilEpochBanned",
              "type": "uint256"
            },
            {
              "internalType": "bool",
              "name": "permanentlyBanned",
              "type": "bool"
            }
          ],
          "internalType": "struct IGenLayerStaking.BannedValidators[]",
          "name": "validatorList",
          "type": "tuple[]"
        }
      ],
      "stateMutability": "view",
      "type": "function"
    },
    {
      "inputs": [
        {
          "internalType": "uint256",
          "name": "_epoch",
          "type": "uint256"
        },
        {
          "internalType": "uint256",
          "name": "_startIndex",
          "type": "uint256"
        },
        {
          "internalType": "uint256",
          "name": "_size",
          "type": "uint256"
        }
      ],
      "name": "getAllBannedValidatorsForEpoch",
      "outputs": [
        {
          "components": [
            {
              "internalType": "address",
              "name": "validator",
              "type": "address"
            },
            {
              "internalType": "uint256",
              "name": "untilEpochBanned",
              "type": "uint256"
            },
            {
              "internalType": "bool",
              "name": "permanentlyBanned",
              "type": "bool"
            }
          ],
          "internalType": "struct IGenLayerStaking.BannedValidators[]",
          "name": "validatorList",
          "type": "tuple[]"
        }
      ],
      "stateMutability": "view",
      "type": "function"
    },
    {
      "inputs": [
        {
          "internalType": "uint256",
          "name": "_startIndex",
          "type": "uint256"
        },
        {
          "internalType": "uint256",
          "name": "_size",
          "type": "uint256"
        }
      ],
      "name": "getAllQuarantinedValidators",
      "outputs": [
        {
          "components": [
            {
              "internalType": "address",
              "name": "validator",
              "type": "address"
            },
            {
              "internalType": "uint256",
              "name": "untilEpochBanned",
              "type": "uint256"
            },
            {
              "internalType": "bool",
              "name": "permanentlyBanned",
              "type": "bool"
            }
          ],
          "internalType": "struct IGenLayerStaking.BannedValidators[]",
          "name": "validatorList",
          "type": "tuple[]"
        }
      ],
      "stateMutability": "view",
      "type": "function"
    },
    {
      "inputs": [
        {
          "internalType": "uint256",
          "name": "_epoch",
          "type": "uint256"
        },
        {
          "internalType": "uint256",
          "name": "_startIndex",
          "type": "uint256"
        },
        {
          "internalType": "uint256",
          "name": "_size",
          "type": "uint256"
        }
      ],
      "name": "getAllQuarantinedValidatorsForEpoch",
      "outputs": [
        {
          "components": [
            {
              "internalType": "address",
              "name": "validator",
              "type": "address"
            },
            {
              "internalType": "uint256",
              "name": "untilEpochBanned",
              "type": "uint256"
            },
            {
              "internalType": "bool",
              "name": "permanentlyBanned",
              "type": "bool"
            }
          ],
          "internalType": "struct IGenLayerStaking.BannedValidators[]",
          "name": "validatorList",
          "type": "tuple[]"
        }
      ],
      "stateMutability": "view",
      "type": "function"
    },
    {
      "inputs": [],
      "name": "getEpochExtraMinDuration",
      "outputs": [
        {
          "internalType": "uint256",
          "name": "",
          "type": "uint256"
        }
      ],
      "stateMutability": "view",
      "type": "function"
    },
    {
      "inputs": [
        {
          "internalType": "address",
          "name": "_delegator",
          "type": "address"
        },
        {
          "internalType": "address",
          "name": "_validator",
          "type": "address"
        }
      ],
      "name": "getPendingDelegatorDeposits",
      "outputs": [
        {
          "internalType": "uint256",
          "name": "total",
          "type": "uint256"
        }
      ],
      "stateMutability": "view",
      "type": "function"
    },
    {
      "inputs": [
        {
          "internalType": "address",
          "name": "_delegator",
          "type": "address"
        },
        {
          "internalType": "address",
          "name": "_validator",
          "type": "address"
        }
      ],
      "name": "getPendingDelegatorWithdrawals",
      "outputs": [
        {
          "internalType": "uint256",
          "name": "total",
          "type": "uint256"
        }
      ],
      "stateMutability": "view",
      "type": "function"
    },
    {
      "inputs": [
        {
          "internalType": "address",
          "name": "_validator",
          "type": "address"
        }
      ],
      "name": "getPendingValidatorDeposits",
      "outputs": [
        {
          "internalType": "uint256",
          "name": "total",
          "type": "uint256"
        }
      ],
      "stateMutability": "view",
      "type": "function"
    },
    {
      "inputs": [
        {
          "internalType": "address",
          "name": "_validator",
          "type": "address"
        }
      ],
      "name": "getPendingValidatorWithdrawals",
      "outputs": [
        {
          "internalType": "uint256",
          "name": "total",
          "type": "uint256"
        }
      ],
      "stateMutability": "view",
      "type": "function"
    },
    {
      "inputs": [],
      "name": "getQuarantinedValidators",
      "outputs": [
        {
          "internalType": "address[]",
          "name": "",
          "type": "address[]"
        }
      ],
      "stateMutability": "view",
      "type": "function"
    },
    {
      "inputs": [
        {
          "internalType": "bytes32",
          "name": "role",
          "type": "bytes32"
        }
      ],
      "name": "getRoleAdmin",
      "outputs": [
        {
          "internalType": "bytes32",
          "name": "",
          "type": "bytes32"
        }
      ],
      "stateMutability": "view",
      "type": "function"
    },
    {
      "inputs": [
        {
          "internalType": "address",
          "name": "_validator",
          "type": "address"
        }
      ],
      "name": "getValidatorDelegators",
      "outputs": [
        {
          "internalType": "address[]",
          "name": "",
          "type": "address[]"
        }
      ],
      "stateMutability": "view",
      "type": "function"
    },
    {
      "inputs": [
        {
          "internalType": "address",
          "name": "_validator",
          "type": "address"
        },
        {
          "internalType": "uint256",
          "name": "_startIndex",
          "type": "uint256"
        },
        {
          "internalType": "uint256",
          "name": "_pageSize",
          "type": "uint256"
        }
      ],
      "name": "getValidatorDelegatorsInfo",
      "outputs": [
        {
          "components": [
            {
              "internalType": "address",
              "name": "delegator",
              "type": "address"
            },
            {
              "internalType": "uint256",
              "name": "currentStake",
              "type": "uint256"
            },
            {
              "internalType": "uint256",
              "name": "currentShares",
              "type": "uint256"
            },
            {
              "internalType": "uint256",
              "name": "pendingDeposits",
              "type": "uint256"
            },
            {
              "internalType": "uint256",
              "name": "pendingWithdrawals",
              "type": "uint256"
            }
          ],
          "internalType": "struct IGenLayerStaking.DelegatorInfo[]",
          "name": "result",
          "type": "tuple[]"
        }
      ],
      "stateMutability": "view",
      "type": "function"
    },
    {
      "inputs": [
        {
          "internalType": "address",
          "name": "_validator",
          "type": "address"
        },
        {
          "internalType": "uint256",
          "name": "_startIndex",
          "type": "uint256"
        },
        {
          "internalType": "uint256",
          "name": "_pageSize",
          "type": "uint256"
        }
      ],
      "name": "getValidatorDelegatorsPaginated",
      "outputs": [
        {
          "internalType": "address[]",
          "name": "",
          "type": "address[]"
        }
      ],
      "stateMutability": "view",
      "type": "function"
    },
    {
      "inputs": [],
      "name": "getValidatorQuarantineList",
      "outputs": [
        {
          "internalType": "address[]",
          "name": "",
          "type": "address[]"
        }
      ],
      "stateMutability": "view",
      "type": "function"
    },
    {
      "inputs": [],
      "name": "getValidatorWeightParams",
      "outputs": [
        {
          "internalType": "uint256",
          "name": "alpha",
          "type": "uint256"
        },
        {
          "internalType": "uint256",
          "name": "beta",
          "type": "uint256"
        }
      ],
      "stateMutability": "view",
      "type": "function"
    },
    {
      "inputs": [
        {
          "internalType": "uint256",
          "name": "_startIndex",
          "type": "uint256"
        },
        {
          "internalType": "uint256",
          "name": "_pageSize",
          "type": "uint256"
        }
      ],
      "name": "getValidatorsJoined",
      "outputs": [
        {
          "internalType": "address[]",
          "name": "",
          "type": "address[]"
        }
      ],
      "stateMutability": "view",
      "type": "function"
    },
    {
      "inputs": [
        {
          "internalType": "bytes32",
          "name": "role",
          "type": "bytes32"
        },
        {
          "internalType": "address",
          "name": "account",
          "type": "address"
        }
      ],
      "name": "grantRole",
      "outputs": [],
      "stateMutability": "nonpayable",
      "type": "function"
    },
    {
      "inputs": [
        {
          "internalType": "bytes32",
          "name": "role",
          "type": "bytes32"
        },
        {
          "internalType": "address",
          "name": "account",
          "type": "address"
        }
      ],
      "name": "hasRole",
      "outputs": [
        {
          "internalType": "bool",
          "name": "",
          "type": "bool"
        }
      ],
      "stateMutability": "view",
      "type": "function"
    },
    {
      "inputs": [],
      "name": "idlenessPhaseAddress",
      "outputs": [
        {
          "internalType": "address",
          "name": "",
          "type": "address"
        }
      ],
      "stateMutability": "view",
      "type": "function"
    },
    {
      "inputs": [],
      "name": "inflationEpoch",
      "outputs": [
        {
          "internalType": "uint256",
          "name": "",
          "type": "uint256"
        }
      ],
      "stateMutability": "view",
      "type": "function"
    },
    {
      "inputs": [],
      "name": "inflationRequestThreshold",
      "outputs": [
        {
          "internalType": "uint256",
          "name": "",
          "type": "uint256"
        }
      ],
      "stateMutability": "view",
      "type": "function"
    },
    {
      "inputs": [
        {
          "internalType": "uint256",
          "name": "",
          "type": "uint256"
        }
      ],
      "name": "inflationRequested",
      "outputs": [
        {
          "internalType": "bool",
          "name": "",
          "type": "bool"
        }
      ],
      "stateMutability": "view",
      "type": "function"
    },
    {
      "inputs": [],
      "name": "inflationSupply",
      "outputs": [
        {
          "internalType": "uint256",
          "name": "",
          "type": "uint256"
        }
      ],
      "stateMutability": "view",
      "type": "function"
    },
    {
      "inputs": [],
      "name": "inflationTargetAhead",
      "outputs": [
        {
          "internalType": "uint256",
          "name": "",
          "type": "uint256"
        }
      ],
      "stateMutability": "view",
      "type": "function"
    },
    {
      "inputs": [
        {
          "internalType": "address",
          "name": "_validator",
          "type": "address"
        },
        {
          "internalType": "address",
          "name": "_delegator",
          "type": "address"
        }
      ],
      "name": "isDelegatorOfValidator",
      "outputs": [
        {
          "internalType": "bool",
          "name": "",
          "type": "bool"
        }
      ],
      "stateMutability": "view",
      "type": "function"
    },
    {
      "inputs": [
        {
          "internalType": "address",
          "name": "_address",
          "type": "address"
        }
      ],
      "name": "isValidator",
      "outputs": [
        {
          "internalType": "bool",
          "name": "",
          "type": "bool"
        }
      ],
      "stateMutability": "view",
      "type": "function"
    },
    {
      "inputs": [
        {
          "internalType": "address",
          "name": "_validator",
          "type": "address"
        }
      ],
      "name": "isValidatorBanned",
      "outputs": [
        {
          "internalType": "bool",
          "name": "",
          "type": "bool"
        }
      ],
      "stateMutability": "view",
      "type": "function"
    },
    {
      "inputs": [],
      "name": "l2GasLimit",
      "outputs": [
        {
          "internalType": "uint256",
          "name": "",
          "type": "uint256"
        }
      ],
      "stateMutability": "view",
      "type": "function"
    },
    {
      "inputs": [],
      "name": "l2GasPrice",
      "outputs": [
        {
          "internalType": "uint256",
          "name": "",
          "type": "uint256"
        }
      ],
      "stateMutability": "view",
      "type": "function"
    },
    {
      "inputs": [],
      "name": "maxValidators",
      "outputs": [
        {
          "internalType": "uint256",
          "name": "",
          "type": "uint256"
        }
      ],
      "stateMutability": "view",
      "type": "function"
    },
    {
      "inputs": [
        {
          "internalType": "address",
          "name": "",
          "type": "address"
        }
      ],
      "name": "operatorsToValidators",
      "outputs": [
        {
          "internalType": "address",
          "name": "",
          "type": "address"
        }
      ],
      "stateMutability": "view",
      "type": "function"
    },
    {
      "inputs": [],
      "name": "owner",
      "outputs": [
        {
          "internalType": "address",
          "name": "",
          "type": "address"
        }
      ],
      "stateMutability": "view",
      "type": "function"
    },
    {
      "inputs": [],
      "name": "pendingOwner",
      "outputs": [
        {
          "internalType": "address",
          "name": "",
          "type": "address"
        }
      ],
      "stateMutability": "view",
      "type": "function"
    },
    {
      "inputs": [],
      "name": "pendingRequestInflationFromL1",
      "outputs": [
        {
          "internalType": "bool",
          "name": "",
          "type": "bool"
        }
      ],
      "stateMutability": "view",
      "type": "function"
    },
    {
      "inputs": [],
      "name": "reductionFactor",
      "outputs": [
        {
          "internalType": "uint256",
          "name": "",
          "type": "uint256"
        }
      ],
      "stateMutability": "view",
      "type": "function"
    },
    {
      "inputs": [],
      "name": "renounceOwnership",
      "outputs": [],
      "stateMutability": "nonpayable",
      "type": "function"
    },
    {
      "inputs": [
        {
          "internalType": "bytes32",
          "name": "role",
          "type": "bytes32"
        },
        {
          "internalType": "address",
          "name": "callerConfirmation",
          "type": "address"
        }
      ],
      "name": "renounceRole",
      "outputs": [],
      "stateMutability": "nonpayable",
      "type": "function"
    },
    {
      "inputs": [],
      "name": "revealingPhaseAddress",
      "outputs": [
        {
          "internalType": "address",
          "name": "",
          "type": "address"
        }
      ],
      "stateMutability": "view",
      "type": "function"
    },
    {
      "inputs": [
        {
          "internalType": "bytes32",
          "name": "role",
          "type": "bytes32"
        },
        {
          "internalType": "address",
          "name": "account",
          "type": "address"
        }
      ],
      "name": "revokeRole",
      "outputs": [],
      "stateMutability": "nonpayable",
      "type": "function"
    },
    {
      "inputs": [
        {
          "internalType": "address",
          "name": "_delegator",
          "type": "address"
        },
        {
          "internalType": "address",
          "name": "_validator",
          "type": "address"
        }
      ],
      "name": "sharesOf",
      "outputs": [
        {
          "internalType": "uint256",
          "name": "",
          "type": "uint256"
        }
      ],
      "stateMutability": "view",
      "type": "function"
    },
    {
      "inputs": [],
      "name": "stakeInfo",
      "outputs": [
        {
          "internalType": "uint256",
          "name": "currentEpoch",
          "type": "uint256"
        },
        {
          "internalType": "address",
          "name": "rootValidator",
          "type": "address"
        },
        {
          "internalType": "uint256",
          "name": "xStake",
          "type": "uint256"
        },
        {
          "internalType": "uint256",
          "name": "yStake",
          "type": "uint256"
        },
        {
          "internalType": "uint256",
          "name": "epochEvenDeposit",
          "type": "uint256"
        },
        {
          "internalType": "uint256",
          "name": "epochOddDeposit",
          "type": "uint256"
        },
        {
          "internalType": "uint256",
          "name": "calculatedTotal",
          "type": "uint256"
        }
      ],
      "stateMutability": "view",
      "type": "function"
    },
    {
      "inputs": [
        {
          "internalType": "address",
          "name": "_delegator",
          "type": "address"
        },
        {
          "internalType": "address",
          "name": "_validator",
          "type": "address"
        }
      ],
      "name": "stakeOf",
      "outputs": [
        {
          "internalType": "uint256",
          "name": "",
          "type": "uint256"
        }
      ],
      "stateMutability": "view",
      "type": "function"
    },
    {
      "inputs": [],
      "name": "stakingInvariant",
      "outputs": [
        {
          "internalType": "address",
          "name": "",
          "type": "address"
        }
      ],
      "stateMutability": "view",
      "type": "function"
    },
    {
      "inputs": [
        {
          "internalType": "bytes4",
          "name": "interfaceId",
          "type": "bytes4"
        }
      ],
      "name": "supportsInterface",
      "outputs": [
        {
          "internalType": "bool",
          "name": "",
          "type": "bool"
        }
      ],
      "stateMutability": "view",
      "type": "function"
    },
    {
      "inputs": [],
      "name": "transactionFeesManager",
      "outputs": [
        {
          "internalType": "address",
          "name": "",
          "type": "address"
        }
      ],
      "stateMutability": "view",
      "type": "function"
    },
    {
      "inputs": [
        {
          "internalType": "address",
          "name": "newOwner",
          "type": "address"
        }
      ],
      "name": "transferOwnership",
      "outputs": [],
      "stateMutability": "nonpayable",
      "type": "function"
    },
    {
      "inputs": [],
      "name": "validatorBanCount",
      "outputs": [
        {
          "internalType": "uint256",
          "name": "",
          "type": "uint256"
        }
      ],
      "stateMutability": "view",
      "type": "function"
    },
    {
      "inputs": [],
      "name": "validatorBanCountExceptPermanent",
      "outputs": [
        {
          "internalType": "uint256",
          "name": "",
          "type": "uint256"
        }
      ],
      "stateMutability": "view",
      "type": "function"
    },
    {
      "inputs": [
        {
          "internalType": "address",
          "name": "_validator",
          "type": "address"
        }
      ],
      "name": "validatorBanned",
      "outputs": [
        {
          "components": [
            {
              "internalType": "address",
              "name": "validator",
              "type": "address"
            },
            {
              "internalType": "uint256",
              "name": "untilEpochBanned",
              "type": "uint256"
            },
            {
              "internalType": "bool",
              "name": "permanentlyBanned",
              "type": "bool"
            }
          ],
          "internalType": "struct IGenLayerStaking.BannedValidators",
          "name": "banned_",
          "type": "tuple"
        }
      ],
      "stateMutability": "view",
      "type": "function"
    },
    {
      "inputs": [
        {
          "internalType": "address",
          "name": "_validator",
          "type": "address"
        }
      ],
      "name": "validatorDelegatorCount",
      "outputs": [
        {
          "internalType": "uint256",
          "name": "",
          "type": "uint256"
        }
      ],
      "stateMutability": "view",
      "type": "function"
    },
    {
      "inputs": [
        {
          "internalType": "address",
          "name": "_validator",
          "type": "address"
        },
        {
          "internalType": "uint256",
          "name": "_index",
          "type": "uint256"
        }
      ],
      "name": "validatorDeposit",
      "outputs": [
        {
          "internalType": "uint256",
          "name": "epoch_",
          "type": "uint256"
        },
        {
          "components": [
            {
              "internalType": "uint256",
              "name": "input",
              "type": "uint256"
            },
            {
              "internalType": "uint256",
              "name": "output",
              "type": "uint256"
            },
            {
              "internalType": "uint256",
              "name": "epoch",
              "type": "uint256"
            },
            {
              "internalType": "uint256",
              "name": "linkToNextCommit",
              "type": "uint256"
            }
          ],
          "internalType": "struct IGenLayerStaking.Commit",
          "name": "commit_",
          "type": "tuple"
        }
      ],
      "stateMutability": "view",
      "type": "function"
    },
    {
      "inputs": [
        {
          "internalType": "address",
          "name": "_validator",
          "type": "address"
        },
        {
          "internalType": "uint256",
          "name": "_epoch",
          "type": "uint256"
        }
      ],
      "name": "validatorDepositByEpoch",
      "outputs": [
        {
          "components": [
            {
              "internalType": "uint256",
              "name": "input",
              "type": "uint256"
            },
            {
              "internalType": "uint256",
              "name": "output",
              "type": "uint256"
            },
            {
              "internalType": "uint256",
              "name": "epoch",
              "type": "uint256"
            },
            {
              "internalType": "uint256",
              "name": "linkToNextCommit",
              "type": "uint256"
            }
          ],
          "internalType": "struct IGenLayerStaking.Commit",
          "name": "commit_",
          "type": "tuple"
        }
      ],
      "stateMutability": "view",
      "type": "function"
    },
    {
      "inputs": [
        {
          "internalType": "address",
          "name": "_validator",
          "type": "address"
        }
      ],
      "name": "validatorDepositLen",
      "outputs": [
        {
          "internalType": "uint256",
          "name": "len_",
          "type": "uint256"
        }
      ],
      "stateMutability": "view",
      "type": "function"
    },
    {
      "inputs": [
        {
          "internalType": "address",
          "name": "validatorAddr",
          "type": "address"
        }
      ],
      "name": "validatorInfo",
      "outputs": [
        {
          "internalType": "uint256",
          "name": "xVStake",
          "type": "uint256"
        },
        {
          "internalType": "uint256",
          "name": "xDStake",
          "type": "uint256"
        },
        {
          "internalType": "uint256",
          "name": "yVStake",
          "type": "uint256"
        },
        {
          "internalType": "uint256",
          "name": "yDStake",
          "type": "uint256"
        },
        {
          "internalType": "address",
          "name": "left",
          "type": "address"
        },
        {
          "internalType": "address",
          "name": "right",
          "type": "address"
        }
      ],
      "stateMutability": "view",
      "type": "function"
    },
    {
      "inputs": [],
      "name": "validatorMinStake",
      "outputs": [
        {
          "internalType": "uint256",
          "name": "",
          "type": "uint256"
        }
      ],
      "stateMutability": "view",
      "type": "function"
    },
    {
      "inputs": [
        {
          "internalType": "address",
          "name": "_validator",
          "type": "address"
        }
      ],
      "name": "validatorPermanentlyBanned",
      "outputs": [
        {
          "internalType": "bool",
          "name": "",
          "type": "bool"
        }
      ],
      "stateMutability": "view",
      "type": "function"
    },
    {
      "inputs": [],
      "name": "validatorQuarantineCount",
      "outputs": [
        {
          "internalType": "uint256",
          "name": "",
          "type": "uint256"
        }
      ],
      "stateMutability": "view",
      "type": "function"
    },
    {
      "inputs": [
        {
          "internalType": "address",
          "name": "_validator",
          "type": "address"
        }
      ],
      "name": "validatorQuarantined",
      "outputs": [
        {
          "internalType": "bool",
          "name": "",
          "type": "bool"
        }
      ],
      "stateMutability": "view",
      "type": "function"
    },
    {
      "inputs": [
        {
          "internalType": "bytes32",
          "name": "_seed",
          "type": "bytes32"
        },
        {
          "internalType": "uint256",
          "name": "_slot",
          "type": "uint256"
        },
        {
          "internalType": "uint256",
          "name": "_epoch",
          "type": "uint256"
        },
        {
          "internalType": "uint256",
          "name": "_txCreatedTimestamp",
          "type": "uint256"
        },
        {
          "internalType": "uint256",
          "name": "_number",
          "type": "uint256"
        },
        {
          "internalType": "bool",
          "name": "_weighted",
          "type": "bool"
        },
        {
          "internalType": "address[]",
          "name": "_consumed",
          "type": "address[]"
        }
      ],
      "name": "validatorSelection",
      "outputs": [
        {
          "internalType": "uint256",
          "name": "leader_",
          "type": "uint256"
        },
        {
          "internalType": "address[]",
          "name": "validators_",
          "type": "address[]"
        },
        {
          "internalType": "address[]",
          "name": "penalized_",
          "type": "address[]"
        }
      ],
      "stateMutability": "view",
      "type": "function"
    },
    {
      "inputs": [
        {
          "internalType": "bytes32",
          "name": "_seed",
          "type": "bytes32"
        },
        {
          "internalType": "uint256",
          "name": "_slot",
          "type": "uint256"
        },
        {
          "internalType": "uint256",
          "name": "_txCreatedTimestamp",
          "type": "uint256"
        },
        {
          "internalType": "uint256",
          "name": "_number",
          "type": "uint256"
        },
        {
          "internalType": "bool",
          "name": "_weighted",
          "type": "bool"
        },
        {
          "internalType": "address[]",
          "name": "_consumed",
          "type": "address[]"
        }
      ],
      "name": "validatorSelection",
      "outputs": [
        {
          "internalType": "uint256",
          "name": "leader_",
          "type": "uint256"
        },
        {
          "internalType": "address[]",
          "name": "validators_",
          "type": "address[]"
        },
        {
          "internalType": "address[]",
          "name": "penalized_",
          "type": "address[]"
        }
      ],
      "stateMutability": "view",
      "type": "function"
    },
    {
      "inputs": [
        {
          "internalType": "address",
          "name": "_validator",
          "type": "address"
        }
      ],
      "name": "validatorView",
      "outputs": [
        {
          "components": [
            {
              "internalType": "address",
              "name": "left",
              "type": "address"
            },
            {
              "internalType": "address",
              "name": "right",
              "type": "address"
            },
            {
              "internalType": "address",
              "name": "parent",
              "type": "address"
            },
            {
              "internalType": "uint256",
              "name": "eBanned",
              "type": "uint256"
            },
            {
              "internalType": "uint256",
              "name": "ePrimed",
              "type": "uint256"
            },
            {
              "internalType": "uint256",
              "name": "vStake",
              "type": "uint256"
            },
            {
              "internalType": "uint256",
              "name": "vShares",
              "type": "uint256"
            },
            {
              "internalType": "uint256",
              "name": "dStake",
              "type": "uint256"
            },
            {
              "internalType": "uint256",
              "name": "dShares",
              "type": "uint256"
            },
            {
              "internalType": "uint256",
              "name": "vDeposit",
              "type": "uint256"
            },
            {
              "internalType": "uint256",
              "name": "vWithdrawal",
              "type": "uint256"
            },
            {
              "internalType": "bool",
              "name": "live",
              "type": "bool"
            }
          ],
          "internalType": "struct IGenLayerStaking.ValidatorView",
          "name": "",
          "type": "tuple"
        }
      ],
      "stateMutability": "view",
      "type": "function"
    },
    {
      "inputs": [
        {
          "internalType": "address",
          "name": "_validator",
          "type": "address"
        }
      ],
      "name": "validatorViewPrePrimed",
      "outputs": [
        {
          "components": [
            {
              "internalType": "address",
              "name": "left",
              "type": "address"
            },
            {
              "internalType": "address",
              "name": "right",
              "type": "address"
            },
            {
              "internalType": "address",
              "name": "parent",
              "type": "address"
            },
            {
              "internalType": "uint256",
              "name": "eBanned",
              "type": "uint256"
            },
            {
              "internalType": "uint256",
              "name": "ePrimed",
              "type": "uint256"
            },
            {
              "internalType": "uint256",
              "name": "vStake",
              "type": "uint256"
            },
            {
              "internalType": "uint256",
              "name": "vShares",
              "type": "uint256"
            },
            {
              "internalType": "uint256",
              "name": "dStake",
              "type": "uint256"
            },
            {
              "internalType": "uint256",
              "name": "dShares",
              "type": "uint256"
            },
            {
              "internalType": "uint256",
              "name": "vDeposit",
              "type": "uint256"
            },
            {
              "internalType": "uint256",
              "name": "vWithdrawal",
              "type": "uint256"
            },
            {
              "internalType": "bool",
              "name": "live",
              "type": "bool"
            }
          ],
          "internalType": "struct IGenLayerStaking.ValidatorView",
          "name": "",
          "type": "tuple"
        }
      ],
      "stateMutability": "view",
      "type": "function"
    },
    {
      "inputs": [
        {
          "internalType": "address",
          "name": "_validator",
          "type": "address"
        }
      ],
      "name": "validatorViewPrimed",
      "outputs": [
        {
          "components": [
            {
              "internalType": "address",
              "name": "left",
              "type": "address"
            },
            {
              "internalType": "address",
              "name": "right",
              "type": "address"
            },
            {
              "internalType": "address",
              "name": "parent",
              "type": "address"
            },
            {
              "internalType": "uint256",
              "name": "eBanned",
              "type": "uint256"
            },
            {
              "internalType": "uint256",
              "name": "ePrimed",
              "type": "uint256"
            },
            {
              "internalType": "uint256",
              "name": "vStake",
              "type": "uint256"
            },
            {
              "internalType": "uint256",
              "name": "vShares",
              "type": "uint256"
            },
            {
              "internalType": "uint256",
              "name": "dStake",
              "type": "uint256"
            },
            {
              "internalType": "uint256",
              "name": "dShares",
              "type": "uint256"
            },
            {
              "internalType": "uint256",
              "name": "vDeposit",
              "type": "uint256"
            },
            {
              "internalType": "uint256",
              "name": "vWithdrawal",
              "type": "uint256"
            },
            {
              "internalType": "bool",
              "name": "live",
              "type": "bool"
            }
          ],
          "internalType": "struct IGenLayerStaking.ValidatorView",
          "name": "",
          "type": "tuple"
        }
      ],
      "stateMutability": "view",
      "type": "function"
    },
    {
      "inputs": [
        {
          "internalType": "address",
          "name": "_validator",
          "type": "address"
        },
        {
          "internalType": "uint256",
          "name": "_index",
          "type": "uint256"
        }
      ],
      "name": "validatorWithdrawal",
      "outputs": [
        {
          "internalType": "uint256",
          "name": "epoch_",
          "type": "uint256"
        },
        {
          "components": [
            {
              "internalType": "uint256",
              "name": "input",
              "type": "uint256"
            },
            {
              "internalType": "uint256",
              "name": "output",
              "type": "uint256"
            },
            {
              "internalType": "uint256",
              "name": "epoch",
              "type": "uint256"
            },
            {
              "internalType": "uint256",
              "name": "linkToNextCommit",
              "type": "uint256"
            }
          ],
          "internalType": "struct IGenLayerStaking.Commit",
          "name": "commit_",
          "type": "tuple"
        }
      ],
      "stateMutability": "view",
      "type": "function"
    },
    {
      "inputs": [
        {
          "internalType": "address",
          "name": "_validator",
          "type": "address"
        },
        {
          "internalType": "uint256",
          "name": "_epoch",
          "type": "uint256"
        }
      ],
      "name": "validatorWithdrawalByEpoch",
      "outputs": [
        {
          "components": [
            {
              "internalType": "uint256",
              "name": "input",
              "type": "uint256"
            },
            {
              "internalType": "uint256",
              "name": "output",
              "type": "uint256"
            },
            {
              "internalType": "uint256",
              "name": "epoch",
              "type": "uint256"
            },
            {
              "internalType": "uint256",
              "name": "linkToNextCommit",
              "type": "uint256"
            }
          ],
          "internalType": "struct IGenLayerStaking.Commit",
          "name": "commit_",
          "type": "tuple"
        }
      ],
      "stateMutability": "view",
      "type": "function"
    },
    {
      "inputs": [
        {
          "internalType": "address",
          "name": "_validator",
          "type": "address"
        }
      ],
      "name": "validatorWithdrawalLen",
      "outputs": [
        {
          "internalType": "uint256",
          "name": "len_",
          "type": "uint256"
        }
      ],
      "stateMutability": "view",
      "type": "function"
    },
    {
      "inputs": [],
      "name": "validatorsCount",
      "outputs": [
        {
          "internalType": "uint256",
          "name": "",
          "type": "uint256"
        }
      ],
      "stateMutability": "view",
      "type": "function"
    },
    {
      "inputs": [
        {
          "internalType": "uint256",
          "name": "",
          "type": "uint256"
        }
      ],
      "name": "validatorsEven",
      "outputs": [
        {
          "internalType": "address",
          "name": "",
          "type": "address"
        }
      ],
      "stateMutability": "view",
      "type": "function"
    },
    {
      "inputs": [
        {
          "internalType": "uint256",
          "name": "",
          "type": "uint256"
        }
      ],
      "name": "validatorsJoined",
      "outputs": [
        {
          "internalType": "address",
          "name": "",
          "type": "address"
        }
      ],
      "stateMutability": "view",
      "type": "function"
    },
    {
      "inputs": [],
      "name": "validatorsJoinedCount",
      "outputs": [
        {
          "internalType": "uint256",
          "name": "",
          "type": "uint256"
        }
      ],
      "stateMutability": "view",
      "type": "function"
    },
    {
      "inputs": [
        {
          "internalType": "uint256",
          "name": "",
          "type": "uint256"
        }
      ],
      "name": "validatorsOdd",
      "outputs": [
        {
          "internalType": "address",
          "name": "",
          "type": "address"
        }
      ],
      "stateMutability": "view",
      "type": "function"
    },
    {
      "inputs": [],
      "name": "validatorsRoot",
      "outputs": [
        {
          "internalType": "address",
          "name": "",
          "type": "address"
        }
      ],
      "stateMutability": "view",
      "type": "function"
    },
    {
      "inputs": [
        {
          "internalType": "uint256",
          "name": "",
          "type": "uint256"
        }
      ],
      "name": "weightsEven",
      "outputs": [
        {
          "internalType": "uint256",
          "name": "",
          "type": "uint256"
        }
      ],
      "stateMutability": "view",
      "type": "function"
    },
    {
      "inputs": [
        {
          "internalType": "uint256",
          "name": "",
          "type": "uint256"
        }
      ],
      "name": "weightsOdd",
      "outputs": [
        {
          "internalType": "uint256",
          "name": "",
          "type": "uint256"
        }
      ],
      "stateMutability": "view",
      "type": "function"
    }
  ],
  "bytecode": "0x6080806040523460155761509a908161001b8239f35b600080fdfe6080604052600436101561001257600080fd5b60003560e01c8063019f89f51461253a57806301ffc9a7146124e457806305d7d641146124bf57806308ac5256146124a1578063090d60bd146124165780630a3cfb13146123ae5780630a7292f5146123825780630ab07e88146123645780630bbc90e3146123385780630d2bd909146122ec5780630e3d5ab0146122415780630ecba81414612204578063152ba3f7146121ab5780631538faf21461218d578063161472eb1461077157806318a3b8821461215c5780631bc2359a1461213e578063217fcc3e1461157e57806321c499e8146121015780632272e0ab146120e35780632287d95f1461117857806324147f67146120c557806324840a5e1461209c578063248a9ca31461207e57806325e3926e1461206357806326ed4c7014612040578063278c1237146120145780632b5de0de14611f645780632df0449714611efa5780632f2ff15d14611ec957806334b6b93b14611e69578063363ea83d14611de957806336568abe14611da3578063370d012014611d895780633ab76e9f14611d605780633b0da62314611d285780633fde6d7b14611d0a5780634573428714611ca457806346da2a9414611c6a5780634971ec0214611c475780634c12b33f14611c295780634f1811dd14611ba45780634f2938fc14611b7b578063510a6f2614611b61578063624a448514611b435780636378eba314611b255780636461cf5614611b0b57806367604d2714611aed5780636863c64f14611acf5780636a319a6414611a1057806370ccae76146119b4578063715018a61461193357806371e281261461190e578063746e4ac7146118d05780637492100f146118ae57806377a685141461188857806379073e6e1461183a578063799e4e8b1461182057806379ba50971461176f5780637a5d2660146117465780637e1233a91461172957806381636917146116ef57806382df24a11461168d578063837725951461167057806387e51da9146116085780638aabb07e146115835780638b7e92a61461157e5780638cc01fdc146114fd5780638da5cb5b146114c7578063900cf0cf146114a9578063900fd9ce1461145757806391d14854146113fd57806391eed60a146113c057806393a090ec1461134657806396be02a7146113005780639ae36685146112e25780639b401cde146112b9578063a01ebaa114611295578063a155685d146111fb578063a217fddf146111df578063a39a5806146111c6578063a5dc8da0146111a0578063a8027c101461117d578063a92252ae14611178578063abfd6fa914611154578063ac78a04b14611137578063af469f46146108fb578063af6c09a8146110db578063b03df1f014611099578063b12d0d8214610ed8578063b3f05b9714610eba578063b83f5b3914610c78578063bc338e7f14610c5c578063bea4003914610c41578063c0a604ad14610c23578063c1deb4f114610bdf578063c498c95b14610bba578063cb17452f14610b7f578063cd38347f14610b58578063cd85623514610b3a578063ce4cb87614610b06578063cf6e65b714610ae8578063d152d91b14610a3a578063d2d49c4b146109f7578063d547741f146109bf578063d7ef354414610996578063da7a9b6a14610978578063de8eec641461094f578063e30c397814610919578063e3c6b0ca146108fb578063ed612f8c146108dd578063ee6506841461088a578063f2fde38b14610803578063f4435b5c14610776578063f524e9df14610771578063f684e88414610757578063f8512d8714610739578063f85683ef14610710578063facd743b146106cc578063fafebac514610686578063fb197c0e14610627578063fb6fe776146105e55763fca905a31461056557600080fd5b346105e05760c03660031901126105e05760843580151581036105e05760a435906001600160401b0382116105e0576105b96105cd916105ac6105dc943690600401612954565b9290601154933691613261565b916044359060643590602435600435614ab3565b60409391935193849384612984565b0390f35b600080fd5b346105e05760203660031901126105e0576004356045548110156105e05761060e6020916126d6565b905460405160039290921b1c6001600160a01b03168152f35b346105e05760203660031901126105e0576001600160a01b0361064861268f565b16600052602e6020526105dc61066b610672604060002060405192838092612d43565b0382612c70565b60405191829160208352602083019061272c565b346105e05760003660031901126105e057601454601554906105dc601654601754601854601954601a54601b5491601c5493601d5495601e54976040519b8c9b8c6129b2565b346105e05760203660031901126105e0576001600160a01b036106ed61268f565b166000526033602052602060018060a01b03604060002054161515604051908152f35b346105e05760003660031901126105e057604a546040516001600160a01b039091168152602090f35b346105e05760003660031901126105e0576020603654604051908152f35b346105e0576105dc61067261076b366129fe565b91613694565b612769565b346105e05761078d610787366129fe565b916134a9565b60405180916020820160208352815180915260206040840192019060005b8181106107b9575050500390f35b91935091602060a0600192608087518580851b03815116835284810151858401526040810151604084015260608101516060840152015160808201520194019101918493926107ab565b346105e05760203660031901126105e05761081c61268f565b610824614591565b60008051602061504583398151915280546001600160a01b0319166001600160a01b03928316908117909155600080516020615005833981519152549091167f38d16b8cac22d99fc7c124b9cd0de2d3fa1faef420bfe791d8c362d765e22700600080a3005b346105e05760403660031901126105e0576108a361268f565b6108ab6126a5565b6001600160a01b039182166000908152604d602090815260408083209490931682529283528190205490519015158152f35b346105e05760003660031901126105e0576020603054604051908152f35b346105e05760003660031901126105e0576020600354604051908152f35b346105e05760003660031901126105e057600080516020615045833981519152546040516001600160a01b039091168152602090f35b346105e05760003660031901126105e0576046546040516001600160a01b039091168152602090f35b346105e05760003660031901126105e0576020604254604051908152f35b346105e05760003660031901126105e057600e546040516001600160a01b039091168152602090f35b346105e05760403660031901126105e0576109f56004356109de6126a5565b906109f06109eb82612d86565b614239565b614325565b005b346105e05760003660031901126105e057601154600116610a2a576105dc61066b610672602d5b60405192838092612d43565b6105dc61066b610672602c610a1e565b346105e05760403660031901126105e05760a0610a5561268f565b610a5d612d1e565b50600180831b0316806000526035602052610a8160243560016040600020016126f1565b90549060031b1c906000526033602052601e60406000200181600052602052610ae66040600020600360405191610ab783612c03565b805483526001810154602084015260028101546040840152015460608201526040519283526020830190612709565bf35b346105e05760003660031901126105e0576020604f54604051908152f35b346105e05760403660031901126105e0576020610b32610b2461268f565b610b2c6126a5565b90613417565b604051908152f35b346105e05760003660031901126105e0576020600454604051908152f35b346105e05760003660031901126105e05760206040516b0d92289838d21a99680000008152f35b346105e05760003660031901126105e05760206040517f155e7f76c52e49fe8308e62eabe3ce449c978443b7d8beb86992427229ec386f8152f35b346105e05760003660031901126105e05760206040516908e4d3168276864000008152f35b346105e05760203660031901126105e0576001600160a01b03610c0061268f565b16600052604c6020526105dc61066b610672604060002060405192838092612d43565b346105e05760003660031901126105e0576020600f54604051908152f35b346105e05760003660031901126105e0576020610b32614dc0565b346105e05760003660031901126105e057602060405160648152f35b346105e05760203660031901126105e057610c9161268f565b610c99612da7565b506001600160a01b03166000908152603360205260408120600a810154600881901c60ff1692906003841015610ea6578315610d9a575050610cee9060016105dc9314600014610d9157601381015b9061417b565b604051918291829190916101608061018083019460018060a01b03815116845260018060a01b03602082015116602085015260018060a01b036040820151166040850152606081015160608501526080810151608085015260a081015160a085015260c081015160c085015260e081015160e085015261010081015161010085015261012081015161012085015261014081015161014085015201511515910152565b600b8101610ce8565b60ff919350166002811015610e925715918215610e8857600b8201925b8015610e83575b835460115491908203610ddc57505050610cee906105dc929061417b565b9193509015610e4a57600b8201805490918103610e3a57601383019081546000198201918211610e26576105dc9550610cee949392911115610e1f57509061417b565b9050610ce8565b634e487b7160e01b86526011600452602486fd5b506105dc925090610cee91610ce8565b60138201805490918103610e3a57600b83019081546000198201918211610e26576105dc9550610cee949392911115610e1f5750610ce8565b610dbe565b6013820192610db7565b634e487b7160e01b83526021600452602483fd5b634e487b7160e01b82526021600452602482fd5b346105e05760003660031901126105e0576020601254604051908152f35b346105e05760403660031901126105e057601154602090604051610efc8382612c70565b600081526000368137600091600180821615801561109157602d905b1561108c575b8054801561107d57845160001982019182116110695781111561105a578451610f4691612ba5565b80600111611052575b5081156110435790849291610fa2604051958694859463dff0f84760e01b8652600435600487015287602487015260243560448701526064860152608485015261010060a485015261010484019061272c565b9060c4830152603660e4830152038173__$f680ff9963eb253eede013ef87b81d17c1$__5af490811561103857829083809361100f575b50505050805115610ff9578101516040516001600160a01b039091168152f35b634e487b7160e01b600052603260045260246000fd5b9150915061102f92503d8091833e6110278183612c70565b810190614a68565b90918480610fd9565b6040513d84823e3d90fd5b637574a52b60e11b8552600485fd5b915086610f4f565b637574a52b60e11b8652600486fd5b634e487b7160e01b87526011600452602487fd5b63d0b5c3bb60e01b8652600486fd5b610f1e565b602c90610f18565b346105e05760203660031901126105e0576001600160a01b036110ba61268f565b166000526034602052602060018060a01b0360406000205416604051908152f35b346105e05760403660031901126105e0576110f461268f565b6110fc6126a5565b9060018060a01b0316600052602e60205260016040600020019060018060a01b03166000526020526020600160406000200154604051908152f35b346105e05760003660031901126105e05760206040516101f48152f35b346105e05760003660031901126105e0576020604051680246ddf979766800008152f35b612805565b346105e05760003660031901126105e0576020604051660aa87bee537fff198152f35b346105e05760806111b96111b3366128e0565b9161337c565b610ae66040518092612709565b346105e05760806111b96111d9366128e0565b916132bc565b346105e05760003660031901126105e057602060405160008152f35b346105e05760003660031901126105e057600080603854905b81811061122657602083604051908152f35b61122f816126bb565b905460039190911b1c6001600160a01b03166000818152603960205260409020541515908161127b575b50611267575b600101611214565b91611273600191612d0f565b92905061125f565b9050600052603a6020526040600020546011541084611259565b346105e05760003660031901126105e0576020604051684e1003b28d928000008152f35b346105e05760003660031901126105e057602f546040516001600160a01b039091168152602090f35b346105e05760003660031901126105e0576020604e54604051908152f35b346105e05760003660031901126105e057601f54602054906105dc602154602254602354602454602554602654916027549360285495602954976040519b8c9b8c6129b2565b346105e05760403660031901126105e05760a061136161268f565b611369612d1e565b50600180831b031680600052603560205261138a60243560406000206126f1565b90549060031b1c906000526033602052601d60406000200181600052602052610ae66040600020600360405191610ab783612c03565b346105e05760203660031901126105e0576001600160a01b036113e161268f565b1660005260356020526020600160406000200154604051908152f35b346105e05760403660031901126105e0576114166126a5565b60043560005260008051602061502583398151915260205260406000209060018060a01b0316600052602052602060ff604060002054166040519015158152f35b346105e05760203660031901126105e057600435602b548110156105e057600090602b5481101561149557602082602b829452200154604051908152f35b634e487b7160e01b82526032600452602482fd5b346105e05760003660031901126105e0576020601154604051908152f35b346105e05760003660031901126105e057600080516020615005833981519152546040516001600160a01b039091168152602090f35b346105e05760003660031901126105e057601154602f5460e091906001600160a01b031660008082611561575b60275490601c549261153a614dc0565b94604051968752602087015260408601526060850152608084015260a083015260c0820152f35b505061156e600082614c95565b611579600283614c95565b61152a565b6127e8565b346105e05760403660031901126105e05761159c61268f565b6115a4612d1e565b5060018060a01b03166000526033602052601e604060002001602435600052602052608060406000206003604051916115dc83612c03565b80548352600181015460208401526002810154604084015201546060820152610ae66040518092612709565b346105e05760203660031901126105e057600435602c548110156105e057600090602c5481101561149557602c9091527f7416c943b4a09859521022fd2e90eac0dd9026dad28fa317782a135f28a8609101546040516001600160a01b039091168152602090f35b346105e05760003660031901126105e0576020604051611d4c8152f35b346105e05760e03660031901126105e05760a43580151581036105e05760c4356001600160401b0381116105e0576105dc916116da6116d36105cd933690600401612954565b3691613261565b90606435608435604435602435600435614ab3565b346105e05760203660031901126105e0576001600160a01b0361171061268f565b1660005260356020526020604060002054604051908152f35b346105e05760003660031901126105e05760206040516180088152f35b346105e05760003660031901126105e0576049546040516001600160a01b039091168152602090f35b346105e05760003660031901126105e05760008051602061504583398151915254336001600160a01b039091160361180b5760008051602061504583398151915280546001600160a01b031990811690915560008051602061500583398151915280543392811683179091556001600160a01b03167f8be0079c531659141344cd1fd0a4f28419497f9722a3daafe3b4186f6b6457e0600080a3005b63118cdaa760e01b6000523360045260246000fd5b346105e0576105dc6106726118343661293e565b906131b2565b346105e05760203660031901126105e0576004356103e88102908082046103e814901517156118725760209061271060405191048152f35b634e487b7160e01b600052601160045260246000fd5b346105e0576105dc6118a261189c36612864565b91614831565b6040519182918261287e565b346105e05760003660031901126105e0576020604051668e1bc9bf0400008152f35b346105e05760203660031901126105e057600435602a548110156105e057600090602a5481101561149557602082602a829452200154604051908152f35b346105e05760003660031901126105e05760206119296145b2565b6040519015158152f35b346105e05760003660031901126105e05761194c614591565b60008051602061504583398151915280546001600160a01b0319908116909155600080516020615005833981519152805491821690556000906001600160a01b03167f8be0079c531659141344cd1fd0a4f28419497f9722a3daafe3b4186f6b6457e08280a3005b346105e05760403660031901126105e0576119cd61268f565b6119d56126a5565b9060018060a01b0316600052602e60205260016040600020019060018060a01b03166000526020526020600260406000200154604051908152f35b346105e057611a79601b611a7f611a26366128e0565b90611a3295929561307f565b50611a3b612d1e565b506001600160a01b039081166000818152603360209081526040808320999094168252602e8152838220928252600192830190529190912001613098565b506130b4565b91602083015160005201602052604060002090600360405192611aa184612c03565b805484526001810154602085015260028101546040850152015460608301526105dc6040519283928361291a565b346105e05760003660031901126105e0576020604554604051908152f35b346105e05760003660031901126105e0576020604054604051908152f35b346105e0576105dc6118a2611b1f3661293e565b906143c5565b346105e05760003660031901126105e0576020600054604051908152f35b346105e05760003660031901126105e0576020605054604051908152f35b346105e0576105dc6118a2611b753661293e565b906130d2565b346105e05760003660031901126105e0576048546040516001600160a01b039091168152602090f35b346105e05760203660031901126105e0576001600160a01b03611bc561268f565b16600052603360205260c06040600020600e81015490601081015490601681015460188201549060018060a01b0360018401541692600260018060a01b039101541693604051958652602086015260408501526060840152608083015260a0820152f35b346105e05760003660031901126105e0576020601354604051908152f35b346105e05760003660031901126105e0576020604051670214e8348c4f00008152f35b346105e05760203660031901126105e0576001600160a01b03611c8b61268f565b16600052604c6020526020604060002054604051908152f35b346105e057611a79601c611a7f611cba366128e0565b909491611cc561307f565b50611cce612d1e565b506001600160a01b039081166000908152602e602090815260408083209890931682526001909701875281812060339097522094600201613098565b346105e05760003660031901126105e0576020600154604051908152f35b346105e05760203660031901126105e0576004356101f48102908082046101f414901517156118725760209061271060405191048152f35b346105e05760003660031901126105e0576047546040516001600160a01b039091168152602090f35b346105e0576105dc6118a2611d9d36612864565b91612ebf565b346105e05760403660031901126105e057611dbc6126a5565b336001600160a01b03821603611dd8576109f590600435614325565b63334bd91960e11b60005260046000fd5b346105e05760203660031901126105e057611e0261268f565b611e0a612da7565b506001600160a01b03166000908152603360205260409020600a81015460ff166002811015611e53576105dc91610cee91611e4957600b81019061417b565b601381019061417b565b634e487b7160e01b600052602160045260246000fd5b346105e05760203660031901126105e0576001600160a01b03611e8a61268f565b16806000526039602052604060002054151580611eaf575b6020906040519015158152f35b50600052603a602052602060001960406000205414611ea2565b346105e05760403660031901126105e0576109f5600435611ee86126a5565b90611ef56109eb82612d86565b614283565b346105e05760203660031901126105e057611f1361268f565b611f1b612da7565b506001600160a01b03166000908152603360205260409020600a81015460ff166002811015611e53576105dc91610cee91611f5a57601381019061417b565b600b81019061417b565b346105e05760003660031901126105e05760115460011661200d57602b5b6040518060208354918281520190819360005260206000209060005b818110611ff75750505081611fb4910382612c70565b6040519182916020830190602084525180915260408301919060005b818110611fde575050500390f35b8251845285945060209384019390920191600101611fd0565b8254845260209093019260019283019201611f9e565b602a611f82565b346105e05760403660031901126105e0576020610b3261203261268f565b61203a6126a5565b906140b0565b346105e05760003660031901126105e057602060ff605354166040519015158152f35b346105e05760003660031901126105e057602061192961400d565b346105e05760203660031901126105e0576020610b32600435612d86565b346105e05760003660031901126105e0576044546040516001600160a01b039091168152602090f35b346105e05760003660031901126105e0576020605154604051908152f35b346105e05760003660031901126105e0576020604154604051908152f35b346105e05760203660031901126105e0576001600160a01b0361212261268f565b1660005260336020526020610b32604060002060115490613f53565b346105e05760003660031901126105e0576020600254604051908152f35b346105e05760203660031901126105e0576004356000526052602052602060ff604060002054166040519015158152f35b346105e05760003660031901126105e0576020604354604051908152f35b346105e05760403660031901126105e0576121c461268f565b6121cc612d1e565b5060018060a01b03166000526033602052601d604060002001602435600052602052608060406000206003604051916115dc83612c03565b346105e05760203660031901126105e0576001600160a01b0361222561268f565b1660005260336020526020610b32604060002060115490613e92565b346105e05760003660031901126105e057600080603854905b81811061226c57602083604051908152f35b612275816126bb565b60018060a01b0391549060031b1c1680600052603a602052604060002054906000526039602052604060002054151590816122e0575b816122d3575b506122bf575b60010161225a565b916122cb600191612d0f565b9290506122b7565b60001914159050846122b1565b601154811191506122ab565b346105e05760003660031901126105e05760115460011661233157602d5b548061231d575060206000604051908152f35b600019810190811161187257602090610b32565b602c61230a565b346105e05760403660031901126105e0576020610b3261235661268f565b61235e6126a5565b90613dbf565b346105e05760003660031901126105e0576020601054604051908152f35b346105e05760403660031901126105e0576020610b326123a061268f565b6123a86126a5565b90612cb0565b346105e05760203660031901126105e057600435602d548110156105e057600090602d5481101561149557602d9091527f4a2cc91ee622da3bc833a54c37ffcb6f3ec23b7793efc5eaf5e71b7b406c5c0601546040516001600160a01b039091168152602090f35b346105e05760203660031901126105e057606061243161268f565b612439612c91565b506001600160a01b031660008181526033602052604090819020600401549051916000198214919061246a84612bd2565b835260208301526040820152610ae660405180926040809160018060a01b0381511684526020810151602085015201511515910152565b346105e05760003660031901126105e0576020600554604051908152f35b346105e05760003660031901126105e057604060315460325482519182526020820152f35b346105e05760203660031901126105e05760043563ffffffff60e01b81168091036105e057602090637965db0b60e01b8114908115612529575b506040519015158152f35b6301ffc9a760e01b1490508261251e565b346105e05760203660031901126105e057600435600181018091116118725761256290612a35565b670186cc6acd4b000090684e1003b28d927fffff198101908113600116611872576125b390600090818112906125a690660aa87bee53800090836126805790614ec7565b915015612677575b6138d0565b9081670de0b6b3a76400000191821260011661187257600082128015926125df92916126685790614f31565b9060010361265a575b670214e8348c4f000003670214e8348c4f000081116118725761261468138400eca364a0000091612a35565b04806b0d92289838d21a996800000002906b0d92289838d21a996800000082040361187257670de0b6b3a764000061265160209260005490612bb2565b04604051908152f35b61266390613757565b6125e8565b61267190613757565b90614f31565b6125ae90613757565b61268990613757565b90614ec7565b600435906001600160a01b03821682036105e057565b602435906001600160a01b03821682036105e057565b603854811015610ff957603860005260206000200190600090565b604554811015610ff957604560005260206000200190600090565b8054821015610ff95760005260206000200190600090565b606080918051845260208101516020850152604081015160408501520151910152565b906020808351928381520192019060005b81811061274a5750505090565b82516001600160a01b031684526020938401939092019160010161273d565b346105e05760003660031901126105e05760405160388054808352600091825260208301917f38395c5dceade9603479b177b68959049485df8aa97b39f3533039af5f45619991905b8181106127c9576105dc8561067281870382612c70565b82546001600160a01b03168452602090930192600192830192016127b2565b346105e05760003660031901126105e05760206040516103e88152f35b346105e05760203660031901126105e0576001600160a01b0361282661268f565b1680600052603960205260406000205415158061284a576020906040519015158152f35b50600052603a602052602060406000205460115410611ea2565b60609060031901126105e057600435906024359060443590565b602060408183019282815284518094520192019060005b8181106128a25750505090565b90919260206060826128d560019488516040809160018060a01b0381511684526020810151602085015201511515910152565b019401929101612895565b60609060031901126105e0576004356001600160a01b03811681036105e057906024356001600160a01b03811681036105e0579060443590565b91604061293c929493602060c082019680518352015160208201520190612709565b565b60409060031901126105e0576004359060243590565b9181601f840112156105e0578235916001600160401b0383116105e0576020808501948460051b0101116105e057565b916129a1906129af9492845260606020850152606084019061272c565b91604081840391015261272c565b90565b979491926101409996939c9b9a9794919c6101608a019d8a5260208a015260408901526060880152608087015260a086015260c085015260e08401526101008301526101208201520152565b60609060031901126105e0576004356001600160a01b03811681036105e057906024359060443590565b9190820180921161187257565b90670de0b6b3a7640000820291808304670de0b6b3a7640000149015171561187257565b8181029291811591840414171561187257565b906803782dace9d8ffffff19820191821360011661187257565b906806f05b59d3b1ffffff19820191821360011661187257565b9068ad78ebc5ac61ffffff19820191821360011661187257565b906856bc75e2d630ffffff19820191821360011661187257565b90682b5e3af16b187fffff19820191821360011661187257565b906815af1d78b58c3fffff19820191821360011661187257565b90680ad78ebc5ac61fffff19820191821360011661187257565b9068056bc75e2d630fffff19820191821360011661187257565b906802b5e3af16b187ffff19820191821360011661187257565b9068015af1d78b58c3ffff19820191821360011661187257565b908168056bc75e2d631000000191821260011661187257565b9190916000838201938412911290801582169115161761187257565b9190820391821161187257565b8115612bbc570490565b634e487b7160e01b600052601260045260246000fd5b606081019081106001600160401b03821117612bed57604052565b634e487b7160e01b600052604160045260246000fd5b608081019081106001600160401b03821117612bed57604052565b61018081019081106001600160401b03821117612bed57604052565b604081019081106001600160401b03821117612bed57604052565b60a081019081106001600160401b03821117612bed57604052565b90601f801991011681019081106001600160401b03821117612bed57604052565b60405190612c9e82612bd2565b60006040838281528260208201520152565b60018060a01b0316600052602e602052600160406000200160018060a01b0382166000526020526040600020600181015415612d08576001600160a01b0390911660009081526033602052604090206129af91613cf6565b5050600090565b60001981146118725760010190565b60405190612d2b82612c03565b60006060838281528260208201528260408201520152565b906020825491828152019160005260206000209060005b818110612d675750505090565b82546001600160a01b0316845260209093019260019283019201612d5a565b60005260008051602061502583398151915260205260016040600020015490565b60405190612db482612c1e565b6000610160838281528260208201528260408201528260608201528260808201528260a08201528260c08201528260e08201528261010082015282610120820152826101408201520152565b60021115611e5357565b6001600160401b038111612bed5760051b60200190565b60405190612e30602083612c70565b600080835282815b828110612e4457505050565b602090612e4f612c91565b82828501015201612e38565b90612e6582612e0a565b612e726040519182612c70565b8281528092612e83601f1991612e0a565b019060005b828110612e9457505050565b602090612e9f612c91565b82828501015201612e88565b8051821015610ff95760209160051b010190565b82156130745760008093603854945b85811061301557508184101561300857612efc91612eed859283612a28565b90808211613000575b50612ba5565b90612f0682612e5b565b9160009260009160005b87811080612ff7575b15612fec57612f27816126bb565b60018060a01b0391549060031b1c1680600052603b602052604060002054868115159182612fe1575b5050612f66575b50612f6190612d0f565b612f10565b878792971015612f85575b50612f7e612f6191612d0f565b9590612f57565b612fd9612f61929582612f7e93600052603a60205260406000205460405191612fad83612bd2565b8252806020830152600019146040820152612fc88288612eab565b52612fd38187612eab565b50612d0f565b949150612f71565b111590508638612f50565b505094505050505090565b50818410612f19565b905038612ef6565b50505050506129af612e21565b61301e816126bb565b60018060a01b0391549060031b1c16600052603b602052604060002054848115159182613069575b5050613055575b600101612ece565b91613061600191612d0f565b92905061304d565b111590508438613046565b5050506129af612e21565b6040519061308c82612c3a565b60006020838281520152565b8054821015610ff95760005260206000209060011b0190600090565b906040516130c181612c3a565b602060018294805484520154910152565b91906038549081841015613174576130ef91612eed859283612a28565b6130f881612e5b565b9260005b82811061310857505050565b8061311d61311860019385612a28565b6126bb565b838060a01b0391549060031b1c1680600052603a6020526040600020546040519161314783612bd2565b82528060208301526000191460408201526131628288612eab565b5261316d8187612eab565b50016130fc565b505090506129af612e21565b9061318a82612e0a565b6131976040519182612c70565b82815280926131a8601f1991612e0a565b0190602036910137565b919060455480158015613257575b613239578084916131d18484612a28565b11613228575b50506131e281613180565b9060005b8181106131f4575090925050565b8061320961320460019388612a28565b6126d6565b838060a01b0391549060031b1c166132218286612eab565b52016131e6565b6132329250612ba5565b82386131d7565b5050905060405161324b602082612c70565b60008152600036813790565b50808410156131c0565b929161326c82612e0a565b9361327a6040519586612c70565b602085848152019260051b81019182116105e057915b81831061329c57505050565b82356001600160a01b03811681036105e057815260209283019201613290565b929190926132c8612d1e565b6001600160a01b039485166000818152603360209081526040808320959098168252602e81528782209282526001909201909152948520600201805491959193915b848110613318575050505050565b8260016133258385613098565b500154146133355760010161330a565b5050909150601c92935060005201602052604060002060036040519161335a83612c03565b8054835260018101546020840152600281015460408401520154606082015290565b92919092613388612d1e565b6001600160a01b039485166000818152603360209081526040808320959098168252602e81528782209282526001928301905295862001805491959193915b8481106133d5575050505050565b8260016133e28385613098565b500154146133f2576001016133c7565b5050909150601b92935060005201602052604060002060036040519161335a83612c03565b6001600160a01b039081166000908152602e6020908152604080832094909316825260019093018352818120603390935220600a81015490919060ff166002811015611e535761349f57600b8201905b6001810154156134975761348e6134836129af94600693613cf6565b600584015490612a59565b91015490612bb2565b505050600090565b6013820190613467565b6001600160a01b0381166000818152604c602052604090205492949093909290919060608115801561368a575b61362157508086916134e88584612a28565b1161360e575b50506134f982612e0a565b906135076040519283612c70565b828252601f1961351684612e0a565b0160005b8181106135d4575050819460005b848110613539575050505050909150565b60019082600052604c60205261355d6040600020613557838c612a28565b906126f1565b838060a01b0391549060031b1c166135758582614e27565b61357f8683612cb0565b6135898784613dbf565b9061359488856140b0565b92604051946135a286612c55565b855260208501526040840152606083015260808201526135c28287612eab565b526135cd8186612eab565b5001613528565b6020906040516135e381612c55565b600081526000838201526000604082015260006060820152600060808201528282870101520161351a565b613619929350612ba5565b9084386134ee565b6040519496509394506000925061363d91506020905084612c70565b8252600090815b8281106136515750505090565b60209060405161366081612c55565b60008152600083820152600060408201526000848201526000608082015282828701015201613644565b50818710156134d6565b6001600160a01b03166000818152604c6020526040902054909291908015801561374d575b61373b57806136c88484612a28565b11613727575b506136d882613180565b9260005b8381106136ea575050505090565b60019082600052604c60205261370860406000206135578387612a28565b838060a01b0391549060031b1c166137208288612eab565b52016136dc565b8192509061373491612ba5565b90386136ce565b5050505060405161324b602082612c70565b50808210156136b9565b600160ff1b81146118725760000390565b9060648202918083056064149015171561187257565b906b02df0ab5a80a22c61ab5a7008202918083056b02df0ab5a80a22c61ab5a700149015171561187257565b90693f1fce3da636ea5cf850820291808305693f1fce3da636ea5cf850149015171561187257565b90690127fa27722cc06cc5e2820291808305690127fa27722cc06cc5e2149015171561187257565b9068280e60114edb805d0382029180830568280e60114edb805d03149015171561187257565b90680ebc5fb41746121110820291808305680ebc5fb41746121110149015171561187257565b906808f00f760a4b2db55d8202918083056808f00f760a4b2db55d149015171561187257565b906806f5f17757889379378202918083056806f5f1775788937937149015171561187257565b818102929160008212600160ff1b82141661187257818405149015171561187257565b8115612bbc57600160ff1b8114600019831416611872570590565b680238fd42c5cf03ffff1981121580613ce3575b6138ed90614f01565b60008112613cbe576806f05b59d3b20000008112613c845761390e90612a86565b613930770195e54c5dd42177f53a27172fa9ec63026282700000000091613768565b68056bc75e2d631000009068ad78ebc5ac62000000811215613c64575b6856bc75e2d631000000811215613c49575b682b5e3af16b18800000811215613c2e575b6815af1d78b58c400000811215613c13575b680ad78ebc5ac6200000811215613bf8575b68056bc75e2d63100000811215613bdd575b6802b5e3af16b1880000811215613bc2575b68015af1d78b58c40000811215613b98575b8080808080808080806139dd81612b70565b6139e78280613892565b68056bc75e2d631000009005600290059081613a0291612b89565b91613a0c91613892565b68056bc75e2d631000009005600390059081613a2791612b89565b91613a3191613892565b68056bc75e2d631000009005600490059081613a4c91612b89565b91613a5691613892565b68056bc75e2d631000009005600590059081613a7191612b89565b91613a7b91613892565b68056bc75e2d631000009005600690059081613a9691612b89565b91613aa091613892565b68056bc75e2d631000009005600790059081613abb91612b89565b91613ac591613892565b68056bc75e2d631000009005600890059081613ae091612b89565b91613aea91613892565b68056bc75e2d631000009005600990059081613b0591612b89565b91613b0f91613892565b68056bc75e2d631000009005600a90059081613b2a91612b89565b91613b3491613892565b68056bc75e2d631000009005600b90059081613b4f91612b89565b91613b5991613892565b68056bc75e2d631000009005600c9005613b7291612b89565b613b7b91613892565b68056bc75e2d63100000900590613b9191613892565b6064900590565b613bad613ba7613bbc92612b56565b9261386c565b68056bc75e2d63100000900590565b906139cb565b613bad613bd1613bd792612b3c565b92613846565b906139b9565b613bad613bec613bf292612b22565b92613820565b906139a7565b613bad613c07613c0d92612b08565b926137fa565b90613995565b613bad613c22613c2892612aee565b926137d2565b90613983565b613bad613c3d613c4392612ad4565b926137aa565b90613971565b613bad613c58613c5e92612aba565b9261377e565b9061395f565b613c6e9150612aa0565b6e01855144814a7ff805980ff00840009061394d565b6803782dace9d90000008112613cb357613c9d90612a6c565b6139306b1425982cf597cd205cef738091613768565b613930600191613768565b613cda6125ae6ec097ce7bc90715b34b9f100000000092613757565b6129af916138b5565b5068070c1cc73b00c800008113156138e4565b6011546000939192845b600185018054821015613db757613d18828592613098565b50966001880154600052601b840160205260406000209760018901548015600014613d9c5750600289015480613d6e5750600291613d57915490612a28565b97015414613d6757600101613d00565b5050509050565b9091925060028101809111611872578592600292613d57928510613d93575490612a28565b50600090612a28565b91613db1600293613d579354908c5491614f63565b90612a28565b505050509050565b60009291906001600160a01b03168015613e8a57600052602e602052600160406000200160018060a01b0382166000526020526040600020906011546001600093018054935b848110613e13575050505050565b613e1d8183613098565b5060018060a01b0385166000526033602052601b60406000200160018201546000526020526040600020846001820154159182613e7b575b5050613e65575b50600101613e05565b60019197613e74915490612a28565b9690613e5c565b60020154111590508438613e55565b506000925050565b919060009160098401548015600014613f3b575060008052601e84016020526040600020805480151580613f2f575b613f26575b50600301545b5b80151580613f1c575b15613f1557600052601e84016020526040600020600181015415613efe575b60030154613ecd565b92613f0d600391855490612a28565b939050613ef5565b5092505090565b5082811115613ed6565b93506003613ec6565b50600182015415613ec1565b600052601e8401602052600360406000200154613ecc565b919060009160088401548015600014613ff5575060008052601d84016020526040600020805480151580613fe9575b613fe0575b50600301545b5b80151580613fd6575b15613f1557600052601d84016020526040600020600181015415613fbf575b60030154613f8e565b92613fce600391855490612a28565b939050613fb6565b5082811115613f97565b93506003613f87565b50600182015415613f82565b600052601d8401602052600360406000200154613f8d565b60115480156000811561408457506140336004545b6001841661407d57601f5b54612a28565b4210612d08571580614068575b614062576012549060018201809211611872571161405d57600190565b600090565b50600090565b506001810180821161187257600f5410614040565b601461402d565b60018311614096575b61403390614022565b506140336140a960025460035490612a28565b905061408d565b60009291906001600160a01b03168015613e8a57600052602e602052600160406000200160018060a01b0382166000526020526040600020906011546002600093018054935b848110614104575050505050565b61410e8183613098565b5060018060a01b0385166000526033602052601c6040600020016001820154600052602052604060002084600182015415918261416c575b5050614156575b506001016140f6565b60019197614165915490612a28565b969061414d565b60020154111590508438614146565b614183612da7565b5060018060a01b036001820154169160018060a01b036002830154169160018060a01b0360038201541660048201548354600385015460048601549160058701549360068801549560ff60076141e56011546141df818d613f53565b9b613e92565b9a015416996040519b6141f78d612c1e565b8c5260208c015260408b015260608a0152608089015260a088015260c087015260e0860152610100850152610120840152610140830152151561016082015290565b60008181526000805160206150258339815191526020908152604080832033845290915290205460ff161561426b5750565b63e2517d3f60e01b6000523360045260245260446000fd5b6000818152600080516020615025833981519152602090815260408083206001600160a01b038616845290915290205460ff16612d08576000818152600080516020615025833981519152602090815260408083206001600160a01b0395909516808452949091528120805460ff19166001179055339291907f2f8788117e7eff1d82e926ec794901d17c78024a50270940304540a733656f0d9080a4600190565b6000818152600080516020615025833981519152602090815260408083206001600160a01b038616845290915290205460ff1615612d08576000818152600080516020615025833981519152602090815260408083206001600160a01b0395909516808452949091528120805460ff19169055339291907ff6391f5c32d9c69d2a47ea670b442974b53935d1edc7fd64eb21e047a839171b9080a4600190565b81156145875760008092603854935b8481106145095750818310156144fd576143f391612eed849283612a28565b6143fc81612e5b565b60009160009060005b868110806144f4575b156144ea5761441c816126bb565b60018060a01b0391549060031b1c1680600052603a6020526040600020548160005260396020526040600020541515806144df575b6001816144d7575b5061446f575b505061446a90612d0f565b614405565b878793971015614490575b505061448861446a91612d0f565b94903861445f565b61446a9294614488926144d092604051916144aa83612bd2565b82528060208301526000191460408201526144c58289612eab565b52612fd38188612eab565b939161447a565b905038614459565b506011548111614451565b5050509250505090565b5081831061440e565b505050506129af612e21565b614512816126bb565b60018060a01b0391549060031b1c1680600052603a6020526040600020549060005260396020526040600020541515908161457b575b50600181614573575b5061455f575b6001016143d4565b9161456b600191612d0f565b929050614557565b905038614551565b90506011541038614548565b50506129af612e21565b600080516020615005833981519152546001600160a01b0316330361180b57565b60115480158015614827575b61406257601254600019820191821161187257811461406257604754604051631bae711d60e21b815260206004820181905260126024830152712a3930b739b0b1ba34b7b726b0b730b3b2b960711b60448301529092916001600160a01b03169083606481845afa928315614748576000936147eb575b5060405163132d95ab60e11b815260048101839052600093602090829060249082906001600160a01b03165afa9081156147e05784916147aa575b506147a55791602060649360405194858092631bae711d60e21b8252846004830152600e60248301526d151c9a589d5b985b105c1c19585b60921b60448301525afa928315614798578193614754575b5050604051634d66354560e11b8152600481019190915290602090829060249082906001600160a01b03165afa90811561474857600091614706575b5061405d57600190565b6020813d602011614740575b8161471f60209383612c70565b8101031261473c57519081151582036147395750386146fc565b80fd5b5080fd5b3d9150614712565b6040513d6000823e3d90fd5b9092506020813d602011614790575b8161477060209383612c70565b8101031261478c57906147846020926149ef565b9290916146c0565b8280fd5b3d9150614763565b50604051903d90823e3d90fd5b505090565b90506020813d6020116147d8575b816147c560209383612c70565b810103126147d4575138614670565b8380fd5b3d91506147b8565b6040513d86823e3d90fd5b9092506020813d60201161481f575b8161480760209383612c70565b810103126105e057614818906149ef565b9138614635565b3d91506147fa565b50600181146145be565b82156130745760008093603854945b85811061496f5750818410156130085761485f91612eed859283612a28565b61486881612e5b565b9060009260009160005b87811080614966575b1561495b57614889816126bb565b60018060a01b0391549060031b1c1680600052603b60205260406000205481600052603a60205260406000205490858115159182614950575b505080614947575b6148df575b50506148da90612d0f565b614872565b888893981015614900575b50506148f86148da91612d0f565b9590386148cf565b6148da92956148f892614940926040519161491a83612bd2565b8252806020830152600019146040820152614935828a612eab565b52612fd38189612eab565b94916148ea565b508481116148ca565b1115905085386148c2565b505050509250505090565b5081841061487b565b614978816126bb565b60018060a01b0391549060031b1c1680600052603b60205260406000205490600052603a6020528460406000205482151592836149e4575b50826149da575b50506149c6575b600101614840565b916149d2600191612d0f565b9290506149be565b11905084386149b7565b8210159250386149b0565b51906001600160a01b03821682036105e057565b9080601f830112156105e0578151614a1a81612e0a565b92614a286040519485612c70565b81845260208085019260051b8201019283116105e057602001905b828210614a505750505090565b60208091614a5d846149ef565b815201910190614a43565b916060838303126105e05782519260208101516001600160401b0381116105e05783614a95918301614a03565b9260408201516001600160401b0381116105e0576129af9201614a03565b919693959092949660018116159182600014614c8d57602d925b15614c8557602b915b8354978815614c745782516000198a01998a1161187257891115614c6357614b02600099845190612ba5565b808211614c5b575b508015614c4c5788999a89989950600014614bcb5790614b6392916040519b8c988998631392940760e21b8a5260048a0152602489015260448801526064870152608486015261012060a486015261012485019061272c565b9160c484015260e48301526036610104830152038173__$f680ff9963eb253eede013ef87b81d17c1$__5af4928315611038578290838095614ba8575b509093919050565b9150919350614bc192503d8091833e6110278183612c70565b9290913880614ba0565b614c0e93506040519a8b97889763dff0f84760e01b89526004890152602488015260448701526064860152608485015261010060a485015261010484019061272c565b9060c4830152603660e4830152038173__$f680ff9963eb253eede013ef87b81d17c1$__5af4928315611038578290838095614ba857509093919050565b637574a52b60e11b8952600489fd5b905038614b0a565b637574a52b60e11b60005260046000fd5b63d0b5c3bb60e01b60005260046000fd5b602a91614ad6565b602c92614acd565b6001600160a01b03811615612d08576001600160a01b0316600090815260336020526040902090600060028203614d4f5750614cdf601383015b6005600382015491015490612a28565b60018301549092906001600160a01b031680614d2b575b50600201546001600160a01b03165b906001600160a01b038216614d1957505090565b614d2291614c95565b6129af91612a28565b82614d3891949294614c95565b614d47600291614d0593612a28565b939150614cf6565b6001614d5f600a85015460ff1690565b614d6881612e00565b1480614db4575b80614da8575b15614d875750614cdf60138301614ccf565b5060018116614d9c57614cdf600b8301614ccf565b614cdf60138301614ccf565b50601083015415614d75565b50600e83015415614d6f565b6011548015614de557602f546001600160a01b0316908115612d08576129af91614c95565b50602f546000906001600160a01b031680614dfe575090565b9050614e166002614e10600084614c95565b92614c95565b80821115614e22575090565b905090565b60018060a01b0316600052602e602052600160406000200160018060a01b038216600052602052604060002090600182015415612d08576001600160a01b03166000908152603360205260409020600a81015460ff16906002821015611e5357614e9991614ebd57600b810192613cf6565b906006810154908115613497576129af926005614eb892015490612a59565b612bb2565b6013810192613cf6565b90614ed191612a59565b80614edc5750600090565b600019810190811161187257670de0b6b3a76400009004600181018091116118725790565b15614f0857565b62461bcd60e51b6000908152602060045260076024526642414c2330303960c81b604452606490fd5b9081614f3e575050600090565b670de0b6b3a76400008202918204670de0b6b3a764000003611872576129af91612bb2565b918183029160001981850993838086109503948086039514614ff75784831115614fde5790829109816000038216809204600281600302188082026002030280820260020302808202600203028082026002030280820260020302809102600203029360018380600003040190848311900302920304170290565b82634e487b71600052156003026011186020526024601cfd5b5050906129af9250612bb256fe9016d09d72d40fdae2fd8ceac6b6234c7706214fd39c1cd1e609a0528c19930002dd7bc7dec4dceedda775e58dd541e08a116c6c53815c0bd028192f7b626800237e158222e3e6968b72b9db0d8043aacf074ad9f650f0d1606b4d82ee432c00a264697066735822122068588bacda9710c7d4f8d21b44e18a706893f0c06ba70fe0ccbad5fa4099dc5764736f6c634300081c0033",
  "linkReferences": {
    "contracts/utils/ValidatorSelectionUtils.sol": {
      "ValidatorSelectionUtils": [
        {
          "length": 20,
          "start": 4046
        },
        {
          "length": 20,
          "start": 19349
        },
        {
          "length": 20,
          "start": 19514
        }
      ]
    }
  },
  "deployedLinkReferences": {
    "contracts/utils/ValidatorSelectionUtils.sol": {
      "ValidatorSelectionUtils": [
        {
          "length": 20,
          "start": 4019
        },
        {
          "length": 20,
          "start": 19322
        },
        {
          "length": 20,
          "start": 19487
        }
      ]
    }
  }
}