{
  "_format": "hh-sol-artifact-1",
  "contractName": "StakingViews",
  "sourceName": "contracts/staking/StakingViews.sol",
  "abi": [
    {
      "inputs": [],
      "name": "AccessControlBadConfirmation",
      "type": "error"
    },
    {
      "inputs": [
        {
          "internalType": "address",
          "name": "account",
          "type": "address"
        },
        {
          "internalType": "bytes32",
          "name": "neededRole",
          "type": "bytes32"
        }
      ],
      "name": "AccessControlUnauthorizedAccount",
      "type": "error"
    },
    {
      "inputs": [],
      "name": "InvalidInitialization",
      "type": "error"
    },
    {
      "inputs": [],
      "name": "NotInitializing",
      "type": "error"
    },
    {
      "inputs": [
        {
          "internalType": "address",
          "name": "owner",
          "type": "address"
        }
      ],
      "name": "OwnableInvalidOwner",
      "type": "error"
    },
    {
      "inputs": [
        {
          "internalType": "address",
          "name": "account",
          "type": "address"
        }
      ],
      "name": "OwnableUnauthorizedAccount",
      "type": "error"
    },
    {
      "inputs": [],
      "name": "ReentrancyGuardReentrantCall",
      "type": "error"
    },
    {
      "inputs": [],
      "name": "ValidatorsConsumed",
      "type": "error"
    },
    {
      "inputs": [],
      "name": "ValidatorsUnavailable",
      "type": "error"
    },
    {
      "anonymous": false,
      "inputs": [
        {
          "indexed": false,
          "internalType": "uint64",
          "name": "version",
          "type": "uint64"
        }
      ],
      "name": "Initialized",
      "type": "event"
    },
    {
      "anonymous": false,
      "inputs": [
        {
          "indexed": true,
          "internalType": "address",
          "name": "previousOwner",
          "type": "address"
        },
        {
          "indexed": true,
          "internalType": "address",
          "name": "newOwner",
          "type": "address"
        }
      ],
      "name": "OwnershipTransferStarted",
      "type": "event"
    },
    {
      "anonymous": false,
      "inputs": [
        {
          "indexed": true,
          "internalType": "address",
          "name": "previousOwner",
          "type": "address"
        },
        {
          "indexed": true,
          "internalType": "address",
          "name": "newOwner",
          "type": "address"
        }
      ],
      "name": "OwnershipTransferred",
      "type": "event"
    },
    {
      "anonymous": false,
      "inputs": [
        {
          "indexed": true,
          "internalType": "bytes32",
          "name": "role",
          "type": "bytes32"
        },
        {
          "indexed": true,
          "internalType": "bytes32",
          "name": "previousAdminRole",
          "type": "bytes32"
        },
        {
          "indexed": true,
          "internalType": "bytes32",
          "name": "newAdminRole",
          "type": "bytes32"
        }
      ],
      "name": "RoleAdminChanged",
      "type": "event"
    },
    {
      "anonymous": false,
      "inputs": [
        {
          "indexed": true,
          "internalType": "bytes32",
          "name": "role",
          "type": "bytes32"
        },
        {
          "indexed": true,
          "internalType": "address",
          "name": "account",
          "type": "address"
        },
        {
          "indexed": true,
          "internalType": "address",
          "name": "sender",
          "type": "address"
        }
      ],
      "name": "RoleGranted",
      "type": "event"
    },
    {
      "anonymous": false,
      "inputs": [
        {
          "indexed": true,
          "internalType": "bytes32",
          "name": "role",
          "type": "bytes32"
        },
        {
          "indexed": true,
          "internalType": "address",
          "name": "account",
          "type": "address"
        },
        {
          "indexed": true,
          "internalType": "address",
          "name": "sender",
          "type": "address"
        }
      ],
      "name": "RoleRevoked",
      "type": "event"
    },
    {
      "inputs": [],
      "name": "DEFAULT_ADMIN_ROLE",
      "outputs": [
        {
          "internalType": "bytes32",
          "name": "",
          "type": "bytes32"
        }
      ],
      "stateMutability": "view",
      "type": "function"
    },
    {
      "inputs": [],
      "name": "DEFAULT_DELEGATOR_MIN_STAKE",
      "outputs": [
        {
          "internalType": "uint256",
          "name": "",
          "type": "uint256"
        }
      ],
      "stateMutability": "view",
      "type": "function"
    },
    {
      "inputs": [],
      "name": "DEFAULT_VALIDATOR_MIN_STAKE",
      "outputs": [
        {
          "internalType": "uint256",
          "name": "",
          "type": "uint256"
        }
      ],
      "stateMutability": "view",
      "type": "function"
    },
    {
      "inputs": [],
      "name": "DELEGATOR_UNBONDING_PERIOD",
      "outputs": [
        {
          "internalType": "uint256",
          "name": "",
          "type": "uint256"
        }
      ],
      "stateMutability": "view",
      "type": "function"
    },
    {
      "inputs": [],
      "name": "INFLATION_BASE",
      "outputs": [
        {
          "internalType": "uint256",
          "name": "",
          "type": "uint256"
        }
      ],
      "stateMutability": "view",
      "type": "function"
    },
    {
      "inputs": [],
      "name": "INFLATION_DEEPTHOUGHT_BPS",
      "outputs": [
        {
          "internalType": "uint256",
          "name": "",
          "type": "uint256"
        }
      ],
      "stateMutability": "view",
      "type": "function"
    },
    {
      "inputs": [],
      "name": "INFLATION_DEVELOPER_BPS",
      "outputs": [
        {
          "internalType": "uint256",
          "name": "",
          "type": "uint256"
        }
      ],
      "stateMutability": "view",
      "type": "function"
    },
    {
      "inputs": [],
      "name": "INFLATION_FINAL",
      "outputs": [
        {
          "internalType": "uint256",
          "name": "",
          "type": "uint256"
        }
      ],
      "stateMutability": "view",
      "type": "function"
    },
    {
      "inputs": [],
      "name": "INFLATION_INITIAL",
      "outputs": [
        {
          "internalType": "uint256",
          "name": "",
          "type": "uint256"
        }
      ],
      "stateMutability": "view",
      "type": "function"
    },
    {
      "inputs": [],
      "name": "INFLATION_MID",
      "outputs": [
        {
          "internalType": "int256",
          "name": "",
          "type": "int256"
        }
      ],
      "stateMutability": "view",
      "type": "function"
    },
    {
      "inputs": [],
      "name": "INFLATION_STAKER_BPS",
      "outputs": [
        {
          "internalType": "uint256",
          "name": "",
          "type": "uint256"
        }
      ],
      "stateMutability": "view",
      "type": "function"
    },
    {
      "inputs": [],
      "name": "INFLATION_STEEPNESS",
      "outputs": [
        {
          "internalType": "int256",
          "name": "",
          "type": "int256"
        }
      ],
      "stateMutability": "view",
      "type": "function"
    },
    {
      "inputs": [],
      "name": "INFLATION_VALIDATOR_BPS",
      "outputs": [
        {
          "internalType": "uint256",
          "name": "",
          "type": "uint256"
        }
      ],
      "stateMutability": "view",
      "type": "function"
    },
    {
      "inputs": [],
      "name": "L1_MESSENGER",
      "outputs": [
        {
          "internalType": "contract IL1Messenger",
          "name": "",
          "type": "address"
        }
      ],
      "stateMutability": "view",
      "type": "function"
    },
    {
      "inputs": [],
      "name": "QUARANTINE_MANAGER_ROLE",
      "outputs": [
        {
          "internalType": "bytes32",
          "name": "",
          "type": "bytes32"
        }
      ],
      "stateMutability": "view",
      "type": "function"
    },
    {
      "inputs": [],
      "name": "SLASH_CALLER_INCENTIVE_BPS",
      "outputs": [
        {
          "internalType": "uint256",
          "name": "",
          "type": "uint256"
        }
      ],
      "stateMutability": "view",
      "type": "function"
    },
    {
      "inputs": [],
      "name": "VALIDATOR_UNBONDING_PERIOD",
      "outputs": [
        {
          "internalType": "uint256",
          "name": "",
          "type": "uint256"
        }
      ],
      "stateMutability": "view",
      "type": "function"
    },
    {
      "inputs": [],
      "name": "acceptOwnership",
      "outputs": [],
      "stateMutability": "nonpayable",
      "type": "function"
    },
    {
      "inputs": [],
      "name": "activeValidators",
      "outputs": [
        {
          "internalType": "address[]",
          "name": "",
          "type": "address[]"
        }
      ],
      "stateMutability": "view",
      "type": "function"
    },
    {
      "inputs": [],
      "name": "activeValidatorsCount",
      "outputs": [
        {
          "internalType": "uint256",
          "name": "",
          "type": "uint256"
        }
      ],
      "stateMutability": "view",
      "type": "function"
    },
    {
      "inputs": [],
      "name": "activeWeights",
      "outputs": [
        {
          "internalType": "uint256[]",
          "name": "",
          "type": "uint256[]"
        }
      ],
      "stateMutability": "view",
      "type": "function"
    },
    {
      "inputs": [],
      "name": "addressManager",
      "outputs": [
        {
          "internalType": "contract IAddressManager",
          "name": "",
          "type": "address"
        }
      ],
      "stateMutability": "view",
      "type": "function"
    },
    {
      "inputs": [],
      "name": "burning",
      "outputs": [
        {
          "internalType": "uint256",
          "name": "",
          "type": "uint256"
        }
      ],
      "stateMutability": "view",
      "type": "function"
    },
    {
      "inputs": [],
      "name": "calculateTotalSystemStake",
      "outputs": [
        {
          "internalType": "uint256",
          "name": "",
          "type": "uint256"
        }
      ],
      "stateMutability": "view",
      "type": "function"
    },
    {
      "inputs": [],
      "name": "canAdvance",
      "outputs": [
        {
          "internalType": "bool",
          "name": "",
          "type": "bool"
        }
      ],
      "stateMutability": "view",
      "type": "function"
    },
    {
      "inputs": [],
      "name": "canFinalize",
      "outputs": [
        {
          "internalType": "bool",
          "name": "",
          "type": "bool"
        }
      ],
      "stateMutability": "view",
      "type": "function"
    },
    {
      "inputs": [],
      "name": "deepthought",
      "outputs": [
        {
          "internalType": "address payable",
          "name": "",
          "type": "address"
        }
      ],
      "stateMutability": "view",
      "type": "function"
    },
    {
      "inputs": [
        {
          "internalType": "uint256",
          "name": "_inflation",
          "type": "uint256"
        }
      ],
      "name": "deepthoughtInflation",
      "outputs": [
        {
          "internalType": "uint256",
          "name": "",
          "type": "uint256"
        }
      ],
      "stateMutability": "pure",
      "type": "function"
    },
    {
      "inputs": [
        {
          "internalType": "address",
          "name": "_delegator",
          "type": "address"
        }
      ],
      "name": "delegatorDelegations",
      "outputs": [
        {
          "internalType": "address[]",
          "name": "",
          "type": "address[]"
        }
      ],
      "stateMutability": "view",
      "type": "function"
    },
    {
      "inputs": [
        {
          "internalType": "address",
          "name": "_delegator",
          "type": "address"
        },
        {
          "internalType": "address",
          "name": "_validator",
          "type": "address"
        },
        {
          "internalType": "uint256",
          "name": "_index",
          "type": "uint256"
        }
      ],
      "name": "delegatorDeposit",
      "outputs": [
        {
          "components": [
            {
              "internalType": "uint256",
              "name": "quantity",
              "type": "uint256"
            },
            {
              "internalType": "uint256",
              "name": "commit",
              "type": "uint256"
            }
          ],
          "internalType": "struct IGenLayerStaking.Claim",
          "name": "claim_",
          "type": "tuple"
        },
        {
          "components": [
            {
              "internalType": "uint256",
              "name": "input",
              "type": "uint256"
            },
            {
              "internalType": "uint256",
              "name": "output",
              "type": "uint256"
            },
            {
              "internalType": "uint256",
              "name": "epoch",
              "type": "uint256"
            },
            {
              "internalType": "uint256",
              "name": "linkToNextCommit",
              "type": "uint256"
            }
          ],
          "internalType": "struct IGenLayerStaking.Commit",
          "name": "commit_",
          "type": "tuple"
        }
      ],
      "stateMutability": "view",
      "type": "function"
    },
    {
      "inputs": [
        {
          "internalType": "address",
          "name": "_delegator",
          "type": "address"
        },
        {
          "internalType": "address",
          "name": "_validator",
          "type": "address"
        },
        {
          "internalType": "uint256",
          "name": "_epoch",
          "type": "uint256"
        }
      ],
      "name": "delegatorDepositByEpoch",
      "outputs": [
        {
          "components": [
            {
              "internalType": "uint256",
              "name": "input",
              "type": "uint256"
            },
            {
              "internalType": "uint256",
              "name": "output",
              "type": "uint256"
            },
            {
              "internalType": "uint256",
              "name": "epoch",
              "type": "uint256"
            },
            {
              "internalType": "uint256",
              "name": "linkToNextCommit",
              "type": "uint256"
            }
          ],
          "internalType": "struct IGenLayerStaking.Commit",
          "name": "commit_",
          "type": "tuple"
        }
      ],
      "stateMutability": "view",
      "type": "function"
    },
    {
      "inputs": [
        {
          "internalType": "address",
          "name": "_delegator",
          "type": "address"
        },
        {
          "internalType": "address",
          "name": "_validator",
          "type": "address"
        }
      ],
      "name": "delegatorDepositLen",
      "outputs": [
        {
          "internalType": "uint256",
          "name": "",
          "type": "uint256"
        }
      ],
      "stateMutability": "view",
      "type": "function"
    },
    {
      "inputs": [],
      "name": "delegatorMinStake",
      "outputs": [
        {
          "internalType": "uint256",
          "name": "",
          "type": "uint256"
        }
      ],
      "stateMutability": "view",
      "type": "function"
    },
    {
      "inputs": [
        {
          "internalType": "address",
          "name": "_delegator",
          "type": "address"
        },
        {
          "internalType": "address",
          "name": "_validator",
          "type": "address"
        },
        {
          "internalType": "uint256",
          "name": "_index",
          "type": "uint256"
        }
      ],
      "name": "delegatorWithdrawal",
      "outputs": [
        {
          "components": [
            {
              "internalType": "uint256",
              "name": "quantity",
              "type": "uint256"
            },
            {
              "internalType": "uint256",
              "name": "commit",
              "type": "uint256"
            }
          ],
          "internalType": "struct IGenLayerStaking.Claim",
          "name": "claim_",
          "type": "tuple"
        },
        {
          "components": [
            {
              "internalType": "uint256",
              "name": "input",
              "type": "uint256"
            },
            {
              "internalType": "uint256",
              "name": "output",
              "type": "uint256"
            },
            {
              "internalType": "uint256",
              "name": "epoch",
              "type": "uint256"
            },
            {
              "internalType": "uint256",
              "name": "linkToNextCommit",
              "type": "uint256"
            }
          ],
          "internalType": "struct IGenLayerStaking.Commit",
          "name": "commit_",
          "type": "tuple"
        }
      ],
      "stateMutability": "view",
      "type": "function"
    },
    {
      "inputs": [
        {
          "internalType": "address",
          "name": "_delegator",
          "type": "address"
        },
        {
          "internalType": "address",
          "name": "_validator",
          "type": "address"
        },
        {
          "internalType": "uint256",
          "name": "_epoch",
          "type": "uint256"
        }
      ],
      "name": "delegatorWithdrawalByEpoch",
      "outputs": [
        {
          "components": [
            {
              "internalType": "uint256",
              "name": "input",
              "type": "uint256"
            },
            {
              "internalType": "uint256",
              "name": "output",
              "type": "uint256"
            },
            {
              "internalType": "uint256",
              "name": "epoch",
              "type": "uint256"
            },
            {
              "internalType": "uint256",
              "name": "linkToNextCommit",
              "type": "uint256"
            }
          ],
          "internalType": "struct IGenLayerStaking.Commit",
          "name": "commit_",
          "type": "tuple"
        }
      ],
      "stateMutability": "view",
      "type": "function"
    },
    {
      "inputs": [
        {
          "internalType": "address",
          "name": "_delegator",
          "type": "address"
        },
        {
          "internalType": "address",
          "name": "_validator",
          "type": "address"
        }
      ],
      "name": "delegatorWithdrawalLen",
      "outputs": [
        {
          "internalType": "uint256",
          "name": "",
          "type": "uint256"
        }
      ],
      "stateMutability": "view",
      "type": "function"
    },
    {
      "inputs": [
        {
          "internalType": "uint256",
          "name": "_inflation",
          "type": "uint256"
        }
      ],
      "name": "developerInflation",
      "outputs": [
        {
          "internalType": "uint256",
          "name": "",
          "type": "uint256"
        }
      ],
      "stateMutability": "pure",
      "type": "function"
    },
    {
      "inputs": [],
      "name": "epoch",
      "outputs": [
        {
          "internalType": "uint256",
          "name": "",
          "type": "uint256"
        }
      ],
      "stateMutability": "view",
      "type": "function"
    },
    {
      "inputs": [],
      "name": "epochEven",
      "outputs": [
        {
          "internalType": "uint256",
          "name": "start",
          "type": "uint256"
        },
        {
          "internalType": "uint256",
          "name": "end",
          "type": "uint256"
        },
        {
          "internalType": "uint256",
          "name": "inflation",
          "type": "uint256"
        },
        {
          "internalType": "uint256",
          "name": "weight",
          "type": "uint256"
        },
        {
          "internalType": "uint256",
          "name": "weightDeposit",
          "type": "uint256"
        },
        {
          "internalType": "uint256",
          "name": "weightWithdrawal",
          "type": "uint256"
        },
        {
          "internalType": "uint256",
          "name": "vcount",
          "type": "uint256"
        },
        {
          "internalType": "uint256",
          "name": "claimed",
          "type": "uint256"
        },
        {
          "internalType": "uint256",
          "name": "stakeDeposit",
          "type": "uint256"
        },
        {
          "internalType": "uint256",
          "name": "stakeWithdrawal",
          "type": "uint256"
        },
        {
          "internalType": "uint256",
          "name": "slashed",
          "type": "uint256"
        }
      ],
      "stateMutability": "view",
      "type": "function"
    },
    {
      "inputs": [],
      "name": "epochExtraMinDuration",
      "outputs": [
        {
          "internalType": "uint256",
          "name": "",
          "type": "uint256"
        }
      ],
      "stateMutability": "view",
      "type": "function"
    },
    {
      "inputs": [
        {
          "internalType": "uint256",
          "name": "_epoch",
          "type": "uint256"
        }
      ],
      "name": "epochInflation",
      "outputs": [
        {
          "internalType": "uint256",
          "name": "",
          "type": "uint256"
        }
      ],
      "stateMutability": "view",
      "type": "function"
    },
    {
      "inputs": [],
      "name": "epochMinDuration",
      "outputs": [
        {
          "internalType": "uint256",
          "name": "",
          "type": "uint256"
        }
      ],
      "stateMutability": "view",
      "type": "function"
    },
    {
      "inputs": [],
      "name": "epochMinDurationThreshold",
      "outputs": [
        {
          "internalType": "uint256",
          "name": "",
          "type": "uint256"
        }
      ],
      "stateMutability": "view",
      "type": "function"
    },
    {
      "inputs": [],
      "name": "epochOdd",
      "outputs": [
        {
          "internalType": "uint256",
          "name": "start",
          "type": "uint256"
        },
        {
          "internalType": "uint256",
          "name": "end",
          "type": "uint256"
        },
        {
          "internalType": "uint256",
          "name": "inflation",
          "type": "uint256"
        },
        {
          "internalType": "uint256",
          "name": "weight",
          "type": "uint256"
        },
        {
          "internalType": "uint256",
          "name": "weightDeposit",
          "type": "uint256"
        },
        {
          "internalType": "uint256",
          "name": "weightWithdrawal",
          "type": "uint256"
        },
        {
          "internalType": "uint256",
          "name": "vcount",
          "type": "uint256"
        },
        {
          "internalType": "uint256",
          "name": "claimed",
          "type": "uint256"
        },
        {
          "internalType": "uint256",
          "name": "stakeDeposit",
          "type": "uint256"
        },
        {
          "internalType": "uint256",
          "name": "stakeWithdrawal",
          "type": "uint256"
        },
        {
          "internalType": "uint256",
          "name": "slashed",
          "type": "uint256"
        }
      ],
      "stateMutability": "view",
      "type": "function"
    },
    {
      "inputs": [],
      "name": "epochZeroMinDuration",
      "outputs": [
        {
          "internalType": "uint256",
          "name": "",
          "type": "uint256"
        }
      ],
      "stateMutability": "view",
      "type": "function"
    },
    {
      "inputs": [],
      "name": "finalizationPhaseAddress",
      "outputs": [
        {
          "internalType": "address",
          "name": "",
          "type": "address"
        }
      ],
      "stateMutability": "view",
      "type": "function"
    },
    {
      "inputs": [],
      "name": "finalized",
      "outputs": [
        {
          "internalType": "uint256",
          "name": "",
          "type": "uint256"
        }
      ],
      "stateMutability": "view",
      "type": "function"
    },
    {
      "inputs": [
        {
          "internalType": "bytes32",
          "name": "_randomSeed",
          "type": "bytes32"
        },
        {
          "internalType": "uint256",
          "name": "_txCreatedTimestamp",
          "type": "uint256"
        }
      ],
      "name": "getActivatorForSeed",
      "outputs": [
        {
          "internalType": "address",
          "name": "",
          "type": "address"
        }
      ],
      "stateMutability": "view",
      "type": "function"
    },
    {
      "inputs": [
        {
          "internalType": "uint256",
          "name": "_startIndex",
          "type": "uint256"
        },
        {
          "internalType": "uint256",
          "name": "_size",
          "type": "uint256"
        }
      ],
      "name": "getAllBannedValidators",
      "outputs": [
        {
          "components": [
            {
              "internalType": "address",
              "name": "validator",
              "type": "address"
            },
            {
              "internalType": "uint256",
              "name": "untilEpochBanned",
              "type": "uint256"
            },
            {
              "internalType": "bool",
              "name": "permanentlyBanned",
              "type": "bool"
            }
          ],
          "internalType": "struct IGenLayerStaking.BannedValidators[]",
          "name": "validatorList",
          "type": "tuple[]"
        }
      ],
      "stateMutability": "view",
      "type": "function"
    },
    {
      "inputs": [
        {
          "internalType": "uint256",
          "name": "_epoch",
          "type": "uint256"
        },
        {
          "internalType": "uint256",
          "name": "_startIndex",
          "type": "uint256"
        },
        {
          "internalType": "uint256",
          "name": "_size",
          "type": "uint256"
        }
      ],
      "name": "getAllBannedValidatorsForEpoch",
      "outputs": [
        {
          "components": [
            {
              "internalType": "address",
              "name": "validator",
              "type": "address"
            },
            {
              "internalType": "uint256",
              "name": "untilEpochBanned",
              "type": "uint256"
            },
            {
              "internalType": "bool",
              "name": "permanentlyBanned",
              "type": "bool"
            }
          ],
          "internalType": "struct IGenLayerStaking.BannedValidators[]",
          "name": "validatorList",
          "type": "tuple[]"
        }
      ],
      "stateMutability": "view",
      "type": "function"
    },
    {
      "inputs": [
        {
          "internalType": "uint256",
          "name": "_startIndex",
          "type": "uint256"
        },
        {
          "internalType": "uint256",
          "name": "_size",
          "type": "uint256"
        }
      ],
      "name": "getAllQuarantinedValidators",
      "outputs": [
        {
          "components": [
            {
              "internalType": "address",
              "name": "validator",
              "type": "address"
            },
            {
              "internalType": "uint256",
              "name": "untilEpochBanned",
              "type": "uint256"
            },
            {
              "internalType": "bool",
              "name": "permanentlyBanned",
              "type": "bool"
            }
          ],
          "internalType": "struct IGenLayerStaking.BannedValidators[]",
          "name": "validatorList",
          "type": "tuple[]"
        }
      ],
      "stateMutability": "view",
      "type": "function"
    },
    {
      "inputs": [
        {
          "internalType": "uint256",
          "name": "_epoch",
          "type": "uint256"
        },
        {
          "internalType": "uint256",
          "name": "_startIndex",
          "type": "uint256"
        },
        {
          "internalType": "uint256",
          "name": "_size",
          "type": "uint256"
        }
      ],
      "name": "getAllQuarantinedValidatorsForEpoch",
      "outputs": [
        {
          "components": [
            {
              "internalType": "address",
              "name": "validator",
              "type": "address"
            },
            {
              "internalType": "uint256",
              "name": "untilEpochBanned",
              "type": "uint256"
            },
            {
              "internalType": "bool",
              "name": "permanentlyBanned",
              "type": "bool"
            }
          ],
          "internalType": "struct IGenLayerStaking.BannedValidators[]",
          "name": "validatorList",
          "type": "tuple[]"
        }
      ],
      "stateMutability": "view",
      "type": "function"
    },
    {
      "inputs": [],
      "name": "getEpochExtraMinDuration",
      "outputs": [
        {
          "internalType": "uint256",
          "name": "",
          "type": "uint256"
        }
      ],
      "stateMutability": "view",
      "type": "function"
    },
    {
      "inputs": [
        {
          "internalType": "address",
          "name": "_delegator",
          "type": "address"
        },
        {
          "internalType": "address",
          "name": "_validator",
          "type": "address"
        }
      ],
      "name": "getPendingDelegatorDeposits",
      "outputs": [
        {
          "internalType": "uint256",
          "name": "total",
          "type": "uint256"
        }
      ],
      "stateMutability": "view",
      "type": "function"
    },
    {
      "inputs": [
        {
          "internalType": "address",
          "name": "_delegator",
          "type": "address"
        },
        {
          "internalType": "address",
          "name": "_validator",
          "type": "address"
        }
      ],
      "name": "getPendingDelegatorWithdrawals",
      "outputs": [
        {
          "internalType": "uint256",
          "name": "total",
          "type": "uint256"
        }
      ],
      "stateMutability": "view",
      "type": "function"
    },
    {
      "inputs": [
        {
          "internalType": "address",
          "name": "_validator",
          "type": "address"
        }
      ],
      "name": "getPendingValidatorDeposits",
      "outputs": [
        {
          "internalType": "uint256",
          "name": "total",
          "type": "uint256"
        }
      ],
      "stateMutability": "view",
      "type": "function"
    },
    {
      "inputs": [
        {
          "internalType": "address",
          "name": "_validator",
          "type": "address"
        }
      ],
      "name": "getPendingValidatorWithdrawals",
      "outputs": [
        {
          "internalType": "uint256",
          "name": "total",
          "type": "uint256"
        }
      ],
      "stateMutability": "view",
      "type": "function"
    },
    {
      "inputs": [],
      "name": "getQuarantinedValidators",
      "outputs": [
        {
          "internalType": "address[]",
          "name": "",
          "type": "address[]"
        }
      ],
      "stateMutability": "view",
      "type": "function"
    },
    {
      "inputs": [
        {
          "internalType": "bytes32",
          "name": "role",
          "type": "bytes32"
        }
      ],
      "name": "getRoleAdmin",
      "outputs": [
        {
          "internalType": "bytes32",
          "name": "",
          "type": "bytes32"
        }
      ],
      "stateMutability": "view",
      "type": "function"
    },
    {
      "inputs": [
        {
          "internalType": "address",
          "name": "_validator",
          "type": "address"
        }
      ],
      "name": "getValidatorDelegators",
      "outputs": [
        {
          "internalType": "address[]",
          "name": "",
          "type": "address[]"
        }
      ],
      "stateMutability": "view",
      "type": "function"
    },
    {
      "inputs": [
        {
          "internalType": "address",
          "name": "_validator",
          "type": "address"
        },
        {
          "internalType": "uint256",
          "name": "_startIndex",
          "type": "uint256"
        },
        {
          "internalType": "uint256",
          "name": "_pageSize",
          "type": "uint256"
        }
      ],
      "name": "getValidatorDelegatorsInfo",
      "outputs": [
        {
          "components": [
            {
              "internalType": "address",
              "name": "delegator",
              "type": "address"
            },
            {
              "internalType": "uint256",
              "name": "currentStake",
              "type": "uint256"
            },
            {
              "internalType": "uint256",
              "name": "currentShares",
              "type": "uint256"
            },
            {
              "internalType": "uint256",
              "name": "pendingDeposits",
              "type": "uint256"
            },
            {
              "internalType": "uint256",
              "name": "pendingWithdrawals",
              "type": "uint256"
            }
          ],
          "internalType": "struct IGenLayerStaking.DelegatorInfo[]",
          "name": "result",
          "type": "tuple[]"
        }
      ],
      "stateMutability": "view",
      "type": "function"
    },
    {
      "inputs": [
        {
          "internalType": "address",
          "name": "_validator",
          "type": "address"
        },
        {
          "internalType": "uint256",
          "name": "_startIndex",
          "type": "uint256"
        },
        {
          "internalType": "uint256",
          "name": "_pageSize",
          "type": "uint256"
        }
      ],
      "name": "getValidatorDelegatorsPaginated",
      "outputs": [
        {
          "internalType": "address[]",
          "name": "",
          "type": "address[]"
        }
      ],
      "stateMutability": "view",
      "type": "function"
    },
    {
      "inputs": [],
      "name": "getValidatorQuarantineList",
      "outputs": [
        {
          "internalType": "address[]",
          "name": "",
          "type": "address[]"
        }
      ],
      "stateMutability": "view",
      "type": "function"
    },
    {
      "inputs": [],
      "name": "getValidatorWeightParams",
      "outputs": [
        {
          "internalType": "uint256",
          "name": "alpha",
          "type": "uint256"
        },
        {
          "internalType": "uint256",
          "name": "beta",
          "type": "uint256"
        }
      ],
      "stateMutability": "view",
      "type": "function"
    },
    {
      "inputs": [
        {
          "internalType": "uint256",
          "name": "_startIndex",
          "type": "uint256"
        },
        {
          "internalType": "uint256",
          "name": "_pageSize",
          "type": "uint256"
        }
      ],
      "name": "getValidatorsJoined",
      "outputs": [
        {
          "internalType": "address[]",
          "name": "",
          "type": "address[]"
        }
      ],
      "stateMutability": "view",
      "type": "function"
    },
    {
      "inputs": [
        {
          "internalType": "bytes32",
          "name": "role",
          "type": "bytes32"
        },
        {
          "internalType": "address",
          "name": "account",
          "type": "address"
        }
      ],
      "name": "grantRole",
      "outputs": [],
      "stateMutability": "nonpayable",
      "type": "function"
    },
    {
      "inputs": [
        {
          "internalType": "bytes32",
          "name": "role",
          "type": "bytes32"
        },
        {
          "internalType": "address",
          "name": "account",
          "type": "address"
        }
      ],
      "name": "hasRole",
      "outputs": [
        {
          "internalType": "bool",
          "name": "",
          "type": "bool"
        }
      ],
      "stateMutability": "view",
      "type": "function"
    },
    {
      "inputs": [],
      "name": "idlenessPhaseAddress",
      "outputs": [
        {
          "internalType": "address",
          "name": "",
          "type": "address"
        }
      ],
      "stateMutability": "view",
      "type": "function"
    },
    {
      "inputs": [],
      "name": "inflationEpoch",
      "outputs": [
        {
          "internalType": "uint256",
          "name": "",
          "type": "uint256"
        }
      ],
      "stateMutability": "view",
      "type": "function"
    },
    {
      "inputs": [],
      "name": "inflationRequestThreshold",
      "outputs": [
        {
          "internalType": "uint256",
          "name": "",
          "type": "uint256"
        }
      ],
      "stateMutability": "view",
      "type": "function"
    },
    {
      "inputs": [
        {
          "internalType": "uint256",
          "name": "",
          "type": "uint256"
        }
      ],
      "name": "inflationRequested",
      "outputs": [
        {
          "internalType": "bool",
          "name": "",
          "type": "bool"
        }
      ],
      "stateMutability": "view",
      "type": "function"
    },
    {
      "inputs": [],
      "name": "inflationSupply",
      "outputs": [
        {
          "internalType": "uint256",
          "name": "",
          "type": "uint256"
        }
      ],
      "stateMutability": "view",
      "type": "function"
    },
    {
      "inputs": [],
      "name": "inflationTargetAhead",
      "outputs": [
        {
          "internalType": "uint256",
          "name": "",
          "type": "uint256"
        }
      ],
      "stateMutability": "view",
      "type": "function"
    },
    {
      "inputs": [
        {
          "internalType": "address",
          "name": "_validator",
          "type": "address"
        },
        {
          "internalType": "address",
          "name": "_delegator",
          "type": "address"
        }
      ],
      "name": "isDelegatorOfValidator",
      "outputs": [
        {
          "internalType": "bool",
          "name": "",
          "type": "bool"
        }
      ],
      "stateMutability": "view",
      "type": "function"
    },
    {
      "inputs": [
        {
          "internalType": "address",
          "name": "_address",
          "type": "address"
        }
      ],
      "name": "isValidator",
      "outputs": [
        {
          "internalType": "bool",
          "name": "",
          "type": "bool"
        }
      ],
      "stateMutability": "view",
      "type": "function"
    },
    {
      "inputs": [
        {
          "internalType": "address",
          "name": "_validator",
          "type": "address"
        }
      ],
      "name": "isValidatorBanned",
      "outputs": [
        {
          "internalType": "bool",
          "name": "",
          "type": "bool"
        }
      ],
      "stateMutability": "view",
      "type": "function"
    },
    {
      "inputs": [],
      "name": "l2GasLimit",
      "outputs": [
        {
          "internalType": "uint256",
          "name": "",
          "type": "uint256"
        }
      ],
      "stateMutability": "view",
      "type": "function"
    },
    {
      "inputs": [],
      "name": "l2GasPrice",
      "outputs": [
        {
          "internalType": "uint256",
          "name": "",
          "type": "uint256"
        }
      ],
      "stateMutability": "view",
      "type": "function"
    },
    {
      "inputs": [],
      "name": "maxValidators",
      "outputs": [
        {
          "internalType": "uint256",
          "name": "",
          "type": "uint256"
        }
      ],
      "stateMutability": "view",
      "type": "function"
    },
    {
      "inputs": [
        {
          "internalType": "address",
          "name": "",
          "type": "address"
        }
      ],
      "name": "operatorsToValidators",
      "outputs": [
        {
          "internalType": "address",
          "name": "",
          "type": "address"
        }
      ],
      "stateMutability": "view",
      "type": "function"
    },
    {
      "inputs": [],
      "name": "owner",
      "outputs": [
        {
          "internalType": "address",
          "name": "",
          "type": "address"
        }
      ],
      "stateMutability": "view",
      "type": "function"
    },
    {
      "inputs": [],
      "name": "pendingOwner",
      "outputs": [
        {
          "internalType": "address",
          "name": "",
          "type": "address"
        }
      ],
      "stateMutability": "view",
      "type": "function"
    },
    {
      "inputs": [],
      "name": "pendingRequestInflationFromL1",
      "outputs": [
        {
          "internalType": "bool",
          "name": "",
          "type": "bool"
        }
      ],
      "stateMutability": "view",
      "type": "function"
    },
    {
      "inputs": [],
      "name": "reductionFactor",
      "outputs": [
        {
          "internalType": "uint256",
          "name": "",
          "type": "uint256"
        }
      ],
      "stateMutability": "view",
      "type": "function"
    },
    {
      "inputs": [],
      "name": "renounceOwnership",
      "outputs": [],
      "stateMutability": "nonpayable",
      "type": "function"
    },
    {
      "inputs": [
        {
          "internalType": "bytes32",
          "name": "role",
          "type": "bytes32"
        },
        {
          "internalType": "address",
          "name": "callerConfirmation",
          "type": "address"
        }
      ],
      "name": "renounceRole",
      "outputs": [],
      "stateMutability": "nonpayable",
      "type": "function"
    },
    {
      "inputs": [],
      "name": "revealingPhaseAddress",
      "outputs": [
        {
          "internalType": "address",
          "name": "",
          "type": "address"
        }
      ],
      "stateMutability": "view",
      "type": "function"
    },
    {
      "inputs": [
        {
          "internalType": "bytes32",
          "name": "role",
          "type": "bytes32"
        },
        {
          "internalType": "address",
          "name": "account",
          "type": "address"
        }
      ],
      "name": "revokeRole",
      "outputs": [],
      "stateMutability": "nonpayable",
      "type": "function"
    },
    {
      "inputs": [
        {
          "internalType": "address",
          "name": "_delegator",
          "type": "address"
        },
        {
          "internalType": "address",
          "name": "_validator",
          "type": "address"
        }
      ],
      "name": "sharesOf",
      "outputs": [
        {
          "internalType": "uint256",
          "name": "",
          "type": "uint256"
        }
      ],
      "stateMutability": "view",
      "type": "function"
    },
    {
      "inputs": [],
      "name": "stakeInfo",
      "outputs": [
        {
          "internalType": "uint256",
          "name": "currentEpoch",
          "type": "uint256"
        },
        {
          "internalType": "address",
          "name": "rootValidator",
          "type": "address"
        },
        {
          "internalType": "uint256",
          "name": "xStake",
          "type": "uint256"
        },
        {
          "internalType": "uint256",
          "name": "yStake",
          "type": "uint256"
        },
        {
          "internalType": "uint256",
          "name": "epochEvenDeposit",
          "type": "uint256"
        },
        {
          "internalType": "uint256",
          "name": "epochOddDeposit",
          "type": "uint256"
        },
        {
          "internalType": "uint256",
          "name": "calculatedTotal",
          "type": "uint256"
        }
      ],
      "stateMutability": "view",
      "type": "function"
    },
    {
      "inputs": [
        {
          "internalType": "address",
          "name": "_delegator",
          "type": "address"
        },
        {
          "internalType": "address",
          "name": "_validator",
          "type": "address"
        }
      ],
      "name": "stakeOf",
      "outputs": [
        {
          "internalType": "uint256",
          "name": "",
          "type": "uint256"
        }
      ],
      "stateMutability": "view",
      "type": "function"
    },
    {
      "inputs": [],
      "name": "stakingInvariant",
      "outputs": [
        {
          "internalType": "address",
          "name": "",
          "type": "address"
        }
      ],
      "stateMutability": "view",
      "type": "function"
    },
    {
      "inputs": [
        {
          "internalType": "bytes4",
          "name": "interfaceId",
          "type": "bytes4"
        }
      ],
      "name": "supportsInterface",
      "outputs": [
        {
          "internalType": "bool",
          "name": "",
          "type": "bool"
        }
      ],
      "stateMutability": "view",
      "type": "function"
    },
    {
      "inputs": [],
      "name": "transactionFeesManager",
      "outputs": [
        {
          "internalType": "address",
          "name": "",
          "type": "address"
        }
      ],
      "stateMutability": "view",
      "type": "function"
    },
    {
      "inputs": [
        {
          "internalType": "address",
          "name": "newOwner",
          "type": "address"
        }
      ],
      "name": "transferOwnership",
      "outputs": [],
      "stateMutability": "nonpayable",
      "type": "function"
    },
    {
      "inputs": [],
      "name": "validatorBanCount",
      "outputs": [
        {
          "internalType": "uint256",
          "name": "",
          "type": "uint256"
        }
      ],
      "stateMutability": "view",
      "type": "function"
    },
    {
      "inputs": [],
      "name": "validatorBanCountExceptPermanent",
      "outputs": [
        {
          "internalType": "uint256",
          "name": "",
          "type": "uint256"
        }
      ],
      "stateMutability": "view",
      "type": "function"
    },
    {
      "inputs": [
        {
          "internalType": "address",
          "name": "_validator",
          "type": "address"
        }
      ],
      "name": "validatorBanned",
      "outputs": [
        {
          "components": [
            {
              "internalType": "address",
              "name": "validator",
              "type": "address"
            },
            {
              "internalType": "uint256",
              "name": "untilEpochBanned",
              "type": "uint256"
            },
            {
              "internalType": "bool",
              "name": "permanentlyBanned",
              "type": "bool"
            }
          ],
          "internalType": "struct IGenLayerStaking.BannedValidators",
          "name": "banned_",
          "type": "tuple"
        }
      ],
      "stateMutability": "view",
      "type": "function"
    },
    {
      "inputs": [
        {
          "internalType": "address",
          "name": "_validator",
          "type": "address"
        }
      ],
      "name": "validatorDelegatorCount",
      "outputs": [
        {
          "internalType": "uint256",
          "name": "",
          "type": "uint256"
        }
      ],
      "stateMutability": "view",
      "type": "function"
    },
    {
      "inputs": [
        {
          "internalType": "address",
          "name": "_validator",
          "type": "address"
        },
        {
          "internalType": "uint256",
          "name": "_index",
          "type": "uint256"
        }
      ],
      "name": "validatorDeposit",
      "outputs": [
        {
          "internalType": "uint256",
          "name": "epoch_",
          "type": "uint256"
        },
        {
          "components": [
            {
              "internalType": "uint256",
              "name": "input",
              "type": "uint256"
            },
            {
              "internalType": "uint256",
              "name": "output",
              "type": "uint256"
            },
            {
              "internalType": "uint256",
              "name": "epoch",
              "type": "uint256"
            },
            {
              "internalType": "uint256",
              "name": "linkToNextCommit",
              "type": "uint256"
            }
          ],
          "internalType": "struct IGenLayerStaking.Commit",
          "name": "commit_",
          "type": "tuple"
        }
      ],
      "stateMutability": "view",
      "type": "function"
    },
    {
      "inputs": [
        {
          "internalType": "address",
          "name": "_validator",
          "type": "address"
        },
        {
          "internalType": "uint256",
          "name": "_epoch",
          "type": "uint256"
        }
      ],
      "name": "validatorDepositByEpoch",
      "outputs": [
        {
          "components": [
            {
              "internalType": "uint256",
              "name": "input",
              "type": "uint256"
            },
            {
              "internalType": "uint256",
              "name": "output",
              "type": "uint256"
            },
            {
              "internalType": "uint256",
              "name": "epoch",
              "type": "uint256"
            },
            {
              "internalType": "uint256",
              "name": "linkToNextCommit",
              "type": "uint256"
            }
          ],
          "internalType": "struct IGenLayerStaking.Commit",
          "name": "commit_",
          "type": "tuple"
        }
      ],
      "stateMutability": "view",
      "type": "function"
    },
    {
      "inputs": [
        {
          "internalType": "address",
          "name": "_validator",
          "type": "address"
        }
      ],
      "name": "validatorDepositLen",
      "outputs": [
        {
          "internalType": "uint256",
          "name": "len_",
          "type": "uint256"
        }
      ],
      "stateMutability": "view",
      "type": "function"
    },
    {
      "inputs": [
        {
          "internalType": "address",
          "name": "validatorAddr",
          "type": "address"
        }
      ],
      "name": "validatorInfo",
      "outputs": [
        {
          "internalType": "uint256",
          "name": "xVStake",
          "type": "uint256"
        },
        {
          "internalType": "uint256",
          "name": "xDStake",
          "type": "uint256"
        },
        {
          "internalType": "uint256",
          "name": "yVStake",
          "type": "uint256"
        },
        {
          "internalType": "uint256",
          "name": "yDStake",
          "type": "uint256"
        },
        {
          "internalType": "address",
          "name": "left",
          "type": "address"
        },
        {
          "internalType": "address",
          "name": "right",
          "type": "address"
        }
      ],
      "stateMutability": "view",
      "type": "function"
    },
    {
      "inputs": [
        {
          "internalType": "address",
          "name": "validatorAddress",
          "type": "address"
        }
      ],
      "name": "validatorInsertedInTree",
      "outputs": [
        {
          "internalType": "uint256",
          "name": "timestamp",
          "type": "uint256"
        }
      ],
      "stateMutability": "view",
      "type": "function"
    },
    {
      "inputs": [],
      "name": "validatorMinStake",
      "outputs": [
        {
          "internalType": "uint256",
          "name": "",
          "type": "uint256"
        }
      ],
      "stateMutability": "view",
      "type": "function"
    },
    {
      "inputs": [
        {
          "internalType": "address",
          "name": "_validator",
          "type": "address"
        }
      ],
      "name": "validatorPermanentlyBanned",
      "outputs": [
        {
          "internalType": "bool",
          "name": "",
          "type": "bool"
        }
      ],
      "stateMutability": "view",
      "type": "function"
    },
    {
      "inputs": [],
      "name": "validatorQuarantineCount",
      "outputs": [
        {
          "internalType": "uint256",
          "name": "",
          "type": "uint256"
        }
      ],
      "stateMutability": "view",
      "type": "function"
    },
    {
      "inputs": [
        {
          "internalType": "address",
          "name": "_validator",
          "type": "address"
        }
      ],
      "name": "validatorQuarantined",
      "outputs": [
        {
          "internalType": "bool",
          "name": "",
          "type": "bool"
        }
      ],
      "stateMutability": "view",
      "type": "function"
    },
    {
      "inputs": [
        {
          "internalType": "address",
          "name": "validatorAddress",
          "type": "address"
        }
      ],
      "name": "validatorRemovedFromTheTree",
      "outputs": [
        {
          "internalType": "uint256",
          "name": "timestamp",
          "type": "uint256"
        }
      ],
      "stateMutability": "view",
      "type": "function"
    },
    {
      "inputs": [
        {
          "internalType": "bytes32",
          "name": "_seed",
          "type": "bytes32"
        },
        {
          "internalType": "uint256",
          "name": "_slot",
          "type": "uint256"
        },
        {
          "internalType": "uint256",
          "name": "_epoch",
          "type": "uint256"
        },
        {
          "internalType": "uint256",
          "name": "_txCreatedTimestamp",
          "type": "uint256"
        },
        {
          "internalType": "uint256",
          "name": "_number",
          "type": "uint256"
        },
        {
          "internalType": "bool",
          "name": "_weighted",
          "type": "bool"
        },
        {
          "internalType": "address[]",
          "name": "_consumed",
          "type": "address[]"
        }
      ],
      "name": "validatorSelection",
      "outputs": [
        {
          "internalType": "uint256",
          "name": "leader_",
          "type": "uint256"
        },
        {
          "internalType": "address[]",
          "name": "validators_",
          "type": "address[]"
        },
        {
          "internalType": "address[]",
          "name": "penalized_",
          "type": "address[]"
        }
      ],
      "stateMutability": "view",
      "type": "function"
    },
    {
      "inputs": [
        {
          "internalType": "bytes32",
          "name": "_seed",
          "type": "bytes32"
        },
        {
          "internalType": "uint256",
          "name": "_slot",
          "type": "uint256"
        },
        {
          "internalType": "uint256",
          "name": "_txCreatedTimestamp",
          "type": "uint256"
        },
        {
          "internalType": "uint256",
          "name": "_number",
          "type": "uint256"
        },
        {
          "internalType": "bool",
          "name": "_weighted",
          "type": "bool"
        },
        {
          "internalType": "address[]",
          "name": "_consumed",
          "type": "address[]"
        }
      ],
      "name": "validatorSelection",
      "outputs": [
        {
          "internalType": "uint256",
          "name": "leader_",
          "type": "uint256"
        },
        {
          "internalType": "address[]",
          "name": "validators_",
          "type": "address[]"
        },
        {
          "internalType": "address[]",
          "name": "penalized_",
          "type": "address[]"
        }
      ],
      "stateMutability": "view",
      "type": "function"
    },
    {
      "inputs": [
        {
          "internalType": "address",
          "name": "_validator",
          "type": "address"
        }
      ],
      "name": "validatorView",
      "outputs": [
        {
          "components": [
            {
              "internalType": "address",
              "name": "left",
              "type": "address"
            },
            {
              "internalType": "address",
              "name": "right",
              "type": "address"
            },
            {
              "internalType": "address",
              "name": "parent",
              "type": "address"
            },
            {
              "internalType": "uint256",
              "name": "eBanned",
              "type": "uint256"
            },
            {
              "internalType": "uint256",
              "name": "ePrimed",
              "type": "uint256"
            },
            {
              "internalType": "uint256",
              "name": "vStake",
              "type": "uint256"
            },
            {
              "internalType": "uint256",
              "name": "vShares",
              "type": "uint256"
            },
            {
              "internalType": "uint256",
              "name": "dStake",
              "type": "uint256"
            },
            {
              "internalType": "uint256",
              "name": "dShares",
              "type": "uint256"
            },
            {
              "internalType": "uint256",
              "name": "vDeposit",
              "type": "uint256"
            },
            {
              "internalType": "uint256",
              "name": "vWithdrawal",
              "type": "uint256"
            },
            {
              "internalType": "bool",
              "name": "live",
              "type": "bool"
            }
          ],
          "internalType": "struct IGenLayerStaking.ValidatorView",
          "name": "",
          "type": "tuple"
        }
      ],
      "stateMutability": "view",
      "type": "function"
    },
    {
      "inputs": [
        {
          "internalType": "address",
          "name": "_validator",
          "type": "address"
        }
      ],
      "name": "validatorViewPrePrimed",
      "outputs": [
        {
          "components": [
            {
              "internalType": "address",
              "name": "left",
              "type": "address"
            },
            {
              "internalType": "address",
              "name": "right",
              "type": "address"
            },
            {
              "internalType": "address",
              "name": "parent",
              "type": "address"
            },
            {
              "internalType": "uint256",
              "name": "eBanned",
              "type": "uint256"
            },
            {
              "internalType": "uint256",
              "name": "ePrimed",
              "type": "uint256"
            },
            {
              "internalType": "uint256",
              "name": "vStake",
              "type": "uint256"
            },
            {
              "internalType": "uint256",
              "name": "vShares",
              "type": "uint256"
            },
            {
              "internalType": "uint256",
              "name": "dStake",
              "type": "uint256"
            },
            {
              "internalType": "uint256",
              "name": "dShares",
              "type": "uint256"
            },
            {
              "internalType": "uint256",
              "name": "vDeposit",
              "type": "uint256"
            },
            {
              "internalType": "uint256",
              "name": "vWithdrawal",
              "type": "uint256"
            },
            {
              "internalType": "bool",
              "name": "live",
              "type": "bool"
            }
          ],
          "internalType": "struct IGenLayerStaking.ValidatorView",
          "name": "",
          "type": "tuple"
        }
      ],
      "stateMutability": "view",
      "type": "function"
    },
    {
      "inputs": [
        {
          "internalType": "address",
          "name": "_validator",
          "type": "address"
        }
      ],
      "name": "validatorViewPrimed",
      "outputs": [
        {
          "components": [
            {
              "internalType": "address",
              "name": "left",
              "type": "address"
            },
            {
              "internalType": "address",
              "name": "right",
              "type": "address"
            },
            {
              "internalType": "address",
              "name": "parent",
              "type": "address"
            },
            {
              "internalType": "uint256",
              "name": "eBanned",
              "type": "uint256"
            },
            {
              "internalType": "uint256",
              "name": "ePrimed",
              "type": "uint256"
            },
            {
              "internalType": "uint256",
              "name": "vStake",
              "type": "uint256"
            },
            {
              "internalType": "uint256",
              "name": "vShares",
              "type": "uint256"
            },
            {
              "internalType": "uint256",
              "name": "dStake",
              "type": "uint256"
            },
            {
              "internalType": "uint256",
              "name": "dShares",
              "type": "uint256"
            },
            {
              "internalType": "uint256",
              "name": "vDeposit",
              "type": "uint256"
            },
            {
              "internalType": "uint256",
              "name": "vWithdrawal",
              "type": "uint256"
            },
            {
              "internalType": "bool",
              "name": "live",
              "type": "bool"
            }
          ],
          "internalType": "struct IGenLayerStaking.ValidatorView",
          "name": "",
          "type": "tuple"
        }
      ],
      "stateMutability": "view",
      "type": "function"
    },
    {
      "inputs": [
        {
          "internalType": "address",
          "name": "_validator",
          "type": "address"
        },
        {
          "internalType": "uint256",
          "name": "_index",
          "type": "uint256"
        }
      ],
      "name": "validatorWithdrawal",
      "outputs": [
        {
          "internalType": "uint256",
          "name": "epoch_",
          "type": "uint256"
        },
        {
          "components": [
            {
              "internalType": "uint256",
              "name": "input",
              "type": "uint256"
            },
            {
              "internalType": "uint256",
              "name": "output",
              "type": "uint256"
            },
            {
              "internalType": "uint256",
              "name": "epoch",
              "type": "uint256"
            },
            {
              "internalType": "uint256",
              "name": "linkToNextCommit",
              "type": "uint256"
            }
          ],
          "internalType": "struct IGenLayerStaking.Commit",
          "name": "commit_",
          "type": "tuple"
        }
      ],
      "stateMutability": "view",
      "type": "function"
    },
    {
      "inputs": [
        {
          "internalType": "address",
          "name": "_validator",
          "type": "address"
        },
        {
          "internalType": "uint256",
          "name": "_epoch",
          "type": "uint256"
        }
      ],
      "name": "validatorWithdrawalByEpoch",
      "outputs": [
        {
          "components": [
            {
              "internalType": "uint256",
              "name": "input",
              "type": "uint256"
            },
            {
              "internalType": "uint256",
              "name": "output",
              "type": "uint256"
            },
            {
              "internalType": "uint256",
              "name": "epoch",
              "type": "uint256"
            },
            {
              "internalType": "uint256",
              "name": "linkToNextCommit",
              "type": "uint256"
            }
          ],
          "internalType": "struct IGenLayerStaking.Commit",
          "name": "commit_",
          "type": "tuple"
        }
      ],
      "stateMutability": "view",
      "type": "function"
    },
    {
      "inputs": [
        {
          "internalType": "address",
          "name": "_validator",
          "type": "address"
        }
      ],
      "name": "validatorWithdrawalLen",
      "outputs": [
        {
          "internalType": "uint256",
          "name": "len_",
          "type": "uint256"
        }
      ],
      "stateMutability": "view",
      "type": "function"
    },
    {
      "inputs": [],
      "name": "validatorsCount",
      "outputs": [
        {
          "internalType": "uint256",
          "name": "",
          "type": "uint256"
        }
      ],
      "stateMutability": "view",
      "type": "function"
    },
    {
      "inputs": [
        {
          "internalType": "uint256",
          "name": "",
          "type": "uint256"
        }
      ],
      "name": "validatorsEven",
      "outputs": [
        {
          "internalType": "address",
          "name": "",
          "type": "address"
        }
      ],
      "stateMutability": "view",
      "type": "function"
    },
    {
      "inputs": [
        {
          "internalType": "uint256",
          "name": "",
          "type": "uint256"
        }
      ],
      "name": "validatorsJoined",
      "outputs": [
        {
          "internalType": "address",
          "name": "",
          "type": "address"
        }
      ],
      "stateMutability": "view",
      "type": "function"
    },
    {
      "inputs": [],
      "name": "validatorsJoinedCount",
      "outputs": [
        {
          "internalType": "uint256",
          "name": "",
          "type": "uint256"
        }
      ],
      "stateMutability": "view",
      "type": "function"
    },
    {
      "inputs": [
        {
          "internalType": "uint256",
          "name": "",
          "type": "uint256"
        }
      ],
      "name": "validatorsOdd",
      "outputs": [
        {
          "internalType": "address",
          "name": "",
          "type": "address"
        }
      ],
      "stateMutability": "view",
      "type": "function"
    },
    {
      "inputs": [],
      "name": "validatorsRoot",
      "outputs": [
        {
          "internalType": "address",
          "name": "",
          "type": "address"
        }
      ],
      "stateMutability": "view",
      "type": "function"
    },
    {
      "inputs": [
        {
          "internalType": "uint256",
          "name": "",
          "type": "uint256"
        }
      ],
      "name": "weightsEven",
      "outputs": [
        {
          "internalType": "uint256",
          "name": "",
          "type": "uint256"
        }
      ],
      "stateMutability": "view",
      "type": "function"
    },
    {
      "inputs": [
        {
          "internalType": "uint256",
          "name": "",
          "type": "uint256"
        }
      ],
      "name": "weightsOdd",
      "outputs": [
        {
          "internalType": "uint256",
          "name": "",
          "type": "uint256"
        }
      ],
      "stateMutability": "view",
      "type": "function"
    }
  ],
  "bytecode": "0x60808060405234601557615125908161001b8239f35b600080fdfe6080604052600436101561001257600080fd5b60003560e01c8063019f89f5146125c457806301ffc9a71461256e57806305d7d6411461254957806308ac52561461252b578063090d60bd146124a05780630a3cfb13146124385780630a7292f51461240c5780630ab07e88146123ee5780630bbc90e3146123c25780630d2bd909146123765780630e3d5ab0146122cb5780630ecba8141461228e578063152ba3f7146122355780631538faf214612217578063161472eb1461078757806318a3b882146121e65780631bc2359a146121c8578063217fcc3e146115ce57806321c499e81461218b5780632272e0ab1461216d5780632287d95f1461118e57806324147f671461214f57806324840a5e14612126578063248a9ca31461210857806325e3926e146120ed57806326ed4c70146120ca578063278c12371461209e5780632b5de0de14611fee5780632df0449714611f845780632f2ff15d14611f5357806334b6b93b14611ef3578063363ea83d14611e7357806336568abe14611e2d578063370d012014611e135780633ab76e9f14611dea5780633b0da62314611db25780633fde6d7b14611d9457806344aa3ded14611d5a5780634573428714611cf457806346da2a9414611cba5780634971ec0214611c975780634c12b33f14611c795780634f1811dd14611bf45780634f2938fc14611bcb578063510a6f2614611bb1578063624a448514611b935780636378eba314611b755780636461cf5614611b5b57806367604d2714611b3d5780636863c64f14611b1f5780636a319a6414611a6057806370ccae7614611a04578063715018a61461198357806371e281261461195e578063746e4ac7146119205780637492100f146118fe57806377a68514146118d857806379073e6e1461188a578063799e4e8b1461187057806379ba5097146117bf5780637a5d2660146117965780637e1233a914611779578063816369171461173f57806382df24a1146116dd57806383772595146116c057806387e51da9146116585780638aabb07e146115d35780638b7e92a6146115ce5780638cc01fdc1461154d5780638da5cb5b14611517578063900cf0cf146114f9578063900fd9ce146114a757806391d148541461144d57806391eed60a1461141057806393a090ec1461139657806396be02a7146113505780639ae36685146113325780639b401cde146113095780639d357fd8146112cf578063a01ebaa1146112ab578063a155685d14611211578063a217fddf146111f5578063a39a5806146111dc578063a5dc8da0146111b6578063a8027c1014611193578063a92252ae1461118e578063abfd6fa91461116a578063ac78a04b1461114d578063af469f4614610911578063af6c09a8146110f1578063b03df1f0146110af578063b12d0d8214610eee578063b3f05b9714610ed0578063b83f5b3914610c8e578063bc338e7f14610c72578063bea4003914610c57578063c0a604ad14610c39578063c1deb4f114610bf5578063c498c95b14610bd0578063cb17452f14610b95578063cd38347f14610b6e578063cd85623514610b50578063ce4cb87614610b1c578063cf6e65b714610afe578063d152d91b14610a50578063d2d49c4b14610a0d578063d547741f146109d5578063d7ef3544146109ac578063da7a9b6a1461098e578063de8eec6414610965578063e30c39781461092f578063e3c6b0ca14610911578063ed612f8c146108f3578063ee650684146108a0578063f2fde38b14610819578063f4435b5c1461078c578063f524e9df14610787578063f684e8841461076d578063f8512d871461074f578063f85683ef14610726578063facd743b146106e2578063fafebac51461069c578063fb197c0e1461063d578063fb6fe776146105fb5763fca905a31461057b57600080fd5b346105f65760c03660031901126105f65760843580151581036105f65760a435906001600160401b0382116105f6576105cf6105e3916105c26105f29436906004016129de565b92906011549336916132eb565b916044359060643590602435600435614b3e565b60409391935193849384612a0e565b0390f35b600080fd5b346105f65760203660031901126105f6576004356045548110156105f657610624602091612760565b905460405160039290921b1c6001600160a01b03168152f35b346105f65760203660031901126105f6576001600160a01b0361065e612719565b16600052602e6020526105f2610681610688604060002060405192838092612dcd565b0382612cfa565b6040519182916020835260208301906127b6565b346105f65760003660031901126105f657601454601554906105f2601654601754601854601954601a54601b5491601c5493601d5495601e54976040519b8c9b8c612a3c565b346105f65760203660031901126105f6576001600160a01b03610703612719565b166000526033602052602060018060a01b03604060002054161515604051908152f35b346105f65760003660031901126105f657604a546040516001600160a01b039091168152602090f35b346105f65760003660031901126105f6576020603654604051908152f35b346105f6576105f261068861078136612a88565b9161371e565b6127f3565b346105f6576107a361079d36612a88565b91613533565b60405180916020820160208352815180915260206040840192019060005b8181106107cf575050500390f35b91935091602060a0600192608087518580851b03815116835284810151858401526040810151604084015260608101516060840152015160808201520194019101918493926107c1565b346105f65760203660031901126105f657610832612719565b61083a61461b565b6000805160206150d083398151915280546001600160a01b0319166001600160a01b03928316908117909155600080516020615090833981519152549091167f38d16b8cac22d99fc7c124b9cd0de2d3fa1faef420bfe791d8c362d765e22700600080a3005b346105f65760403660031901126105f6576108b9612719565b6108c161272f565b6001600160a01b039182166000908152604d602090815260408083209490931682529283528190205490519015158152f35b346105f65760003660031901126105f6576020603054604051908152f35b346105f65760003660031901126105f6576020600354604051908152f35b346105f65760003660031901126105f6576000805160206150d0833981519152546040516001600160a01b039091168152602090f35b346105f65760003660031901126105f6576046546040516001600160a01b039091168152602090f35b346105f65760003660031901126105f6576020604254604051908152f35b346105f65760003660031901126105f657600e546040516001600160a01b039091168152602090f35b346105f65760403660031901126105f657610a0b6004356109f461272f565b90610a06610a0182612e10565b6142c3565b6143af565b005b346105f65760003660031901126105f657601154600116610a40576105f2610681610688602d5b60405192838092612dcd565b6105f2610681610688602c610a34565b346105f65760403660031901126105f65760a0610a6b612719565b610a73612da8565b50600180831b0316806000526035602052610a97602435600160406000200161277b565b90549060031b1c906000526033602052601e60406000200181600052602052610afc6040600020600360405191610acd83612c8d565b805483526001810154602084015260028101546040840152015460608201526040519283526020830190612793565bf35b346105f65760003660031901126105f6576020604f54604051908152f35b346105f65760403660031901126105f6576020610b48610b3a612719565b610b4261272f565b906134a1565b604051908152f35b346105f65760003660031901126105f6576020600454604051908152f35b346105f65760003660031901126105f65760206040516b0d92289838d21a99680000008152f35b346105f65760003660031901126105f65760206040517f155e7f76c52e49fe8308e62eabe3ce449c978443b7d8beb86992427229ec386f8152f35b346105f65760003660031901126105f65760206040516908e4d3168276864000008152f35b346105f65760203660031901126105f6576001600160a01b03610c16612719565b16600052604c6020526105f2610681610688604060002060405192838092612dcd565b346105f65760003660031901126105f6576020600f54604051908152f35b346105f65760003660031901126105f6576020610b48614e4b565b346105f65760003660031901126105f657602060405160648152f35b346105f65760203660031901126105f657610ca7612719565b610caf612e31565b506001600160a01b03166000908152603360205260408120600a810154600881901c60ff1692906003841015610ebc578315610db0575050610d049060016105f29314600014610da757601381015b90614205565b604051918291829190916101608061018083019460018060a01b03815116845260018060a01b03602082015116602085015260018060a01b036040820151166040850152606081015160608501526080810151608085015260a081015160a085015260c081015160c085015260e081015160e085015261010081015161010085015261012081015161012085015261014081015161014085015201511515910152565b600b8101610cfe565b60ff919350166002811015610ea85715918215610e9e57600b8201925b8015610e99575b835460115491908203610df257505050610d04906105f29290614205565b9193509015610e6057600b8201805490918103610e5057601383019081546000198201918211610e3c576105f29550610d04949392911115610e35575090614205565b9050610cfe565b634e487b7160e01b86526011600452602486fd5b506105f2925090610d0491610cfe565b60138201805490918103610e5057600b83019081546000198201918211610e3c576105f29550610d04949392911115610e355750610cfe565b610dd4565b6013820192610dcd565b634e487b7160e01b83526021600452602483fd5b634e487b7160e01b82526021600452602482fd5b346105f65760003660031901126105f6576020601254604051908152f35b346105f65760403660031901126105f657601154602090604051610f128382612cfa565b60008152600036813760009160018082161580156110a757602d905b156110a2575b80548015611093578451600019820191821161107f57811115611070578451610f5c91612c2f565b80600111611068575b5081156110595790849291610fb8604051958694859463dff0f84760e01b8652600435600487015287602487015260243560448701526064860152608485015261010060a48501526101048401906127b6565b9060c4830152603660e4830152038173__$f680ff9963eb253eede013ef87b81d17c1$__5af490811561104e578290838093611025575b5050505080511561100f578101516040516001600160a01b039091168152f35b634e487b7160e01b600052603260045260246000fd5b9150915061104592503d8091833e61103d8183612cfa565b810190614af3565b90918480610fef565b6040513d84823e3d90fd5b637574a52b60e11b8552600485fd5b915086610f65565b637574a52b60e11b8652600486fd5b634e487b7160e01b87526011600452602487fd5b63d0b5c3bb60e01b8652600486fd5b610f34565b602c90610f2e565b346105f65760203660031901126105f6576001600160a01b036110d0612719565b166000526034602052602060018060a01b0360406000205416604051908152f35b346105f65760403660031901126105f65761110a612719565b61111261272f565b9060018060a01b0316600052602e60205260016040600020019060018060a01b03166000526020526020600160406000200154604051908152f35b346105f65760003660031901126105f65760206040516101f48152f35b346105f65760003660031901126105f6576020604051680246ddf979766800008152f35b61288f565b346105f65760003660031901126105f6576020604051660aa87bee537fff198152f35b346105f65760806111cf6111c93661296a565b91613406565b610afc6040518092612793565b346105f65760806111cf6111ef3661296a565b91613346565b346105f65760003660031901126105f657602060405160008152f35b346105f65760003660031901126105f657600080603854905b81811061123c57602083604051908152f35b61124581612745565b905460039190911b1c6001600160a01b031660008181526039602052604090205415159081611291575b5061127d575b60010161122a565b91611289600191612d99565b929050611275565b9050600052603a602052604060002054601154108461126f565b346105f65760003660031901126105f6576020604051684e1003b28d928000008152f35b346105f65760203660031901126105f6576001600160a01b036112f0612719565b1660005260556020526020604060002054604051908152f35b346105f65760003660031901126105f657602f546040516001600160a01b039091168152602090f35b346105f65760003660031901126105f6576020604e54604051908152f35b346105f65760003660031901126105f657601f54602054906105f2602154602254602354602454602554602654916027549360285495602954976040519b8c9b8c612a3c565b346105f65760403660031901126105f65760a06113b1612719565b6113b9612da8565b50600180831b03168060005260356020526113da602435604060002061277b565b90549060031b1c906000526033602052601d60406000200181600052602052610afc6040600020600360405191610acd83612c8d565b346105f65760203660031901126105f6576001600160a01b03611431612719565b1660005260356020526020600160406000200154604051908152f35b346105f65760403660031901126105f65761146661272f565b6004356000526000805160206150b083398151915260205260406000209060018060a01b0316600052602052602060ff604060002054166040519015158152f35b346105f65760203660031901126105f657600435602b548110156105f657600090602b548110156114e557602082602b829452200154604051908152f35b634e487b7160e01b82526032600452602482fd5b346105f65760003660031901126105f6576020601154604051908152f35b346105f65760003660031901126105f657600080516020615090833981519152546040516001600160a01b039091168152602090f35b346105f65760003660031901126105f657601154602f5460e091906001600160a01b0316600080826115b1575b60275490601c549261158a614e4b565b94604051968752602087015260408601526060850152608084015260a083015260c0820152f35b50506115be600082614d20565b6115c9600283614d20565b61157a565b612872565b346105f65760403660031901126105f6576115ec612719565b6115f4612da8565b5060018060a01b03166000526033602052601e6040600020016024356000526020526080604060002060036040519161162c83612c8d565b80548352600181015460208401526002810154604084015201546060820152610afc6040518092612793565b346105f65760203660031901126105f657600435602c548110156105f657600090602c548110156114e557602c9091527f7416c943b4a09859521022fd2e90eac0dd9026dad28fa317782a135f28a8609101546040516001600160a01b039091168152602090f35b346105f65760003660031901126105f6576020604051611d4c8152f35b346105f65760e03660031901126105f65760a43580151581036105f65760c4356001600160401b0381116105f6576105f29161172a6117236105e39336906004016129de565b36916132eb565b90606435608435604435602435600435614b3e565b346105f65760203660031901126105f6576001600160a01b03611760612719565b1660005260356020526020604060002054604051908152f35b346105f65760003660031901126105f65760206040516180088152f35b346105f65760003660031901126105f6576049546040516001600160a01b039091168152602090f35b346105f65760003660031901126105f6576000805160206150d083398151915254336001600160a01b039091160361185b576000805160206150d083398151915280546001600160a01b031990811690915560008051602061509083398151915280543392811683179091556001600160a01b03167f8be0079c531659141344cd1fd0a4f28419497f9722a3daafe3b4186f6b6457e0600080a3005b63118cdaa760e01b6000523360045260246000fd5b346105f6576105f2610688611884366129c8565b9061323c565b346105f65760203660031901126105f6576004356103e88102908082046103e814901517156118c25760209061271060405191048152f35b634e487b7160e01b600052601160045260246000fd5b346105f6576105f26118f26118ec366128ee565b916148bc565b60405191829182612908565b346105f65760003660031901126105f6576020604051668e1bc9bf0400008152f35b346105f65760203660031901126105f657600435602a548110156105f657600090602a548110156114e557602082602a829452200154604051908152f35b346105f65760003660031901126105f657602061197961463c565b6040519015158152f35b346105f65760003660031901126105f65761199c61461b565b6000805160206150d083398151915280546001600160a01b0319908116909155600080516020615090833981519152805491821690556000906001600160a01b03167f8be0079c531659141344cd1fd0a4f28419497f9722a3daafe3b4186f6b6457e08280a3005b346105f65760403660031901126105f657611a1d612719565b611a2561272f565b9060018060a01b0316600052602e60205260016040600020019060018060a01b03166000526020526020600260406000200154604051908152f35b346105f657611ac9601b611acf611a763661296a565b90611a82959295613109565b50611a8b612da8565b506001600160a01b039081166000818152603360209081526040808320999094168252602e8152838220928252600192830190529190912001613122565b5061313e565b91602083015160005201602052604060002090600360405192611af184612c8d565b805484526001810154602085015260028101546040850152015460608301526105f2604051928392836129a4565b346105f65760003660031901126105f6576020604554604051908152f35b346105f65760003660031901126105f6576020604054604051908152f35b346105f6576105f26118f2611b6f366129c8565b9061444f565b346105f65760003660031901126105f6576020600054604051908152f35b346105f65760003660031901126105f6576020605054604051908152f35b346105f6576105f26118f2611bc5366129c8565b9061315c565b346105f65760003660031901126105f6576048546040516001600160a01b039091168152602090f35b346105f65760203660031901126105f6576001600160a01b03611c15612719565b16600052603360205260c06040600020600e81015490601081015490601681015460188201549060018060a01b0360018401541692600260018060a01b039101541693604051958652602086015260408501526060840152608083015260a0820152f35b346105f65760003660031901126105f6576020601354604051908152f35b346105f65760003660031901126105f6576020604051670214e8348c4f00008152f35b346105f65760203660031901126105f6576001600160a01b03611cdb612719565b16600052604c6020526020604060002054604051908152f35b346105f657611ac9601c611acf611d0a3661296a565b909491611d15613109565b50611d1e612da8565b506001600160a01b039081166000908152602e602090815260408083209890931682526001909701875281812060339097522094600201613122565b346105f65760203660031901126105f6576001600160a01b03611d7b612719565b1660005260546020526020604060002054604051908152f35b346105f65760003660031901126105f6576020600154604051908152f35b346105f65760203660031901126105f6576004356101f48102908082046101f414901517156118c25760209061271060405191048152f35b346105f65760003660031901126105f6576047546040516001600160a01b039091168152602090f35b346105f6576105f26118f2611e27366128ee565b91612f49565b346105f65760403660031901126105f657611e4661272f565b336001600160a01b03821603611e6257610a0b906004356143af565b63334bd91960e11b60005260046000fd5b346105f65760203660031901126105f657611e8c612719565b611e94612e31565b506001600160a01b03166000908152603360205260409020600a81015460ff166002811015611edd576105f291610d0491611ed357600b810190614205565b6013810190614205565b634e487b7160e01b600052602160045260246000fd5b346105f65760203660031901126105f6576001600160a01b03611f14612719565b16806000526039602052604060002054151580611f39575b6020906040519015158152f35b50600052603a602052602060001960406000205414611f2c565b346105f65760403660031901126105f657610a0b600435611f7261272f565b90611f7f610a0182612e10565b61430d565b346105f65760203660031901126105f657611f9d612719565b611fa5612e31565b506001600160a01b03166000908152603360205260409020600a81015460ff166002811015611edd576105f291610d0491611fe4576013810190614205565b600b810190614205565b346105f65760003660031901126105f65760115460011661209757602b5b6040518060208354918281520190819360005260206000209060005b818110612081575050508161203e910382612cfa565b6040519182916020830190602084525180915260408301919060005b818110612068575050500390f35b825184528594506020938401939092019160010161205a565b8254845260209093019260019283019201612028565b602a61200c565b346105f65760403660031901126105f6576020610b486120bc612719565b6120c461272f565b9061413a565b346105f65760003660031901126105f657602060ff605354166040519015158152f35b346105f65760003660031901126105f6576020611979614097565b346105f65760203660031901126105f6576020610b48600435612e10565b346105f65760003660031901126105f6576044546040516001600160a01b039091168152602090f35b346105f65760003660031901126105f6576020605154604051908152f35b346105f65760003660031901126105f6576020604154604051908152f35b346105f65760203660031901126105f6576001600160a01b036121ac612719565b1660005260336020526020610b48604060002060115490613fdd565b346105f65760003660031901126105f6576020600254604051908152f35b346105f65760203660031901126105f6576004356000526052602052602060ff604060002054166040519015158152f35b346105f65760003660031901126105f6576020604354604051908152f35b346105f65760403660031901126105f65761224e612719565b612256612da8565b5060018060a01b03166000526033602052601d6040600020016024356000526020526080604060002060036040519161162c83612c8d565b346105f65760203660031901126105f6576001600160a01b036122af612719565b1660005260336020526020610b48604060002060115490613f1c565b346105f65760003660031901126105f657600080603854905b8181106122f657602083604051908152f35b6122ff81612745565b60018060a01b0391549060031b1c1680600052603a6020526040600020549060005260396020526040600020541515908161236a575b8161235d575b50612349575b6001016122e4565b91612355600191612d99565b929050612341565b600019141590508461233b565b60115481119150612335565b346105f65760003660031901126105f6576011546001166123bb57602d5b54806123a7575060206000604051908152f35b60001981019081116118c257602090610b48565b602c612394565b346105f65760403660031901126105f6576020610b486123e0612719565b6123e861272f565b90613e49565b346105f65760003660031901126105f6576020601054604051908152f35b346105f65760403660031901126105f6576020610b4861242a612719565b61243261272f565b90612d3a565b346105f65760203660031901126105f657600435602d548110156105f657600090602d548110156114e557602d9091527f4a2cc91ee622da3bc833a54c37ffcb6f3ec23b7793efc5eaf5e71b7b406c5c0601546040516001600160a01b039091168152602090f35b346105f65760203660031901126105f65760606124bb612719565b6124c3612d1b565b506001600160a01b03166000818152603360205260409081902060040154905191600019821491906124f484612c5c565b835260208301526040820152610afc60405180926040809160018060a01b0381511684526020810151602085015201511515910152565b346105f65760003660031901126105f6576020600554604051908152f35b346105f65760003660031901126105f657604060315460325482519182526020820152f35b346105f65760203660031901126105f65760043563ffffffff60e01b81168091036105f657602090637965db0b60e01b81149081156125b3575b506040519015158152f35b6301ffc9a760e01b149050826125a8565b346105f65760203660031901126105f657600435600181018091116118c2576125ec90612abf565b670186cc6acd4b000090684e1003b28d927fffff1981019081136001166118c25761263d906000908181129061263090660aa87bee538000908361270a5790614f52565b915015612701575b61395a565b9081670de0b6b3a7640000019182126001166118c2576000821280159261266992916126f25790614fbc565b906001036126e4575b670214e8348c4f000003670214e8348c4f000081116118c25761269e68138400eca364a0000091612abf565b04806b0d92289838d21a996800000002906b0d92289838d21a99680000008204036118c257670de0b6b3a76400006126db60209260005490612c3c565b04604051908152f35b6126ed906137e1565b612672565b6126fb906137e1565b90614fbc565b612638906137e1565b612713906137e1565b90614f52565b600435906001600160a01b03821682036105f657565b602435906001600160a01b03821682036105f657565b60385481101561100f57603860005260206000200190600090565b60455481101561100f57604560005260206000200190600090565b805482101561100f5760005260206000200190600090565b606080918051845260208101516020850152604081015160408501520151910152565b906020808351928381520192019060005b8181106127d45750505090565b82516001600160a01b03168452602093840193909201916001016127c7565b346105f65760003660031901126105f65760405160388054808352600091825260208301917f38395c5dceade9603479b177b68959049485df8aa97b39f3533039af5f45619991905b818110612853576105f28561068881870382612cfa565b82546001600160a01b031684526020909301926001928301920161283c565b346105f65760003660031901126105f65760206040516103e88152f35b346105f65760203660031901126105f6576001600160a01b036128b0612719565b168060005260396020526040600020541515806128d4576020906040519015158152f35b50600052603a602052602060406000205460115410611f2c565b60609060031901126105f657600435906024359060443590565b602060408183019282815284518094520192019060005b81811061292c5750505090565b909192602060608261295f60019488516040809160018060a01b0381511684526020810151602085015201511515910152565b01940192910161291f565b60609060031901126105f6576004356001600160a01b03811681036105f657906024356001600160a01b03811681036105f6579060443590565b9160406129c6929493602060c082019680518352015160208201520190612793565b565b60409060031901126105f6576004359060243590565b9181601f840112156105f6578235916001600160401b0383116105f6576020808501948460051b0101116105f657565b91612a2b90612a39949284526060602085015260608401906127b6565b9160408184039101526127b6565b90565b979491926101409996939c9b9a9794919c6101608a019d8a5260208a015260408901526060880152608087015260a086015260c085015260e08401526101008301526101208201520152565b60609060031901126105f6576004356001600160a01b03811681036105f657906024359060443590565b919082018092116118c257565b90670de0b6b3a7640000820291808304670de0b6b3a764000014901517156118c257565b818102929181159184041417156118c257565b906803782dace9d8ffffff1982019182136001166118c257565b906806f05b59d3b1ffffff1982019182136001166118c257565b9068ad78ebc5ac61ffffff1982019182136001166118c257565b906856bc75e2d630ffffff1982019182136001166118c257565b90682b5e3af16b187fffff1982019182136001166118c257565b906815af1d78b58c3fffff1982019182136001166118c257565b90680ad78ebc5ac61fffff1982019182136001166118c257565b9068056bc75e2d630fffff1982019182136001166118c257565b906802b5e3af16b187ffff1982019182136001166118c257565b9068015af1d78b58c3ffff1982019182136001166118c257565b908168056bc75e2d63100000019182126001166118c257565b919091600083820193841291129080158216911516176118c257565b919082039182116118c257565b8115612c46570490565b634e487b7160e01b600052601260045260246000fd5b606081019081106001600160401b03821117612c7757604052565b634e487b7160e01b600052604160045260246000fd5b608081019081106001600160401b03821117612c7757604052565b61018081019081106001600160401b03821117612c7757604052565b604081019081106001600160401b03821117612c7757604052565b60a081019081106001600160401b03821117612c7757604052565b90601f801991011681019081106001600160401b03821117612c7757604052565b60405190612d2882612c5c565b60006040838281528260208201520152565b60018060a01b0316600052602e602052600160406000200160018060a01b0382166000526020526040600020600181015415612d92576001600160a01b039091166000908152603360205260409020612a3991613d80565b5050600090565b60001981146118c25760010190565b60405190612db582612c8d565b60006060838281528260208201528260408201520152565b906020825491828152019160005260206000209060005b818110612df15750505090565b82546001600160a01b0316845260209093019260019283019201612de4565b6000526000805160206150b083398151915260205260016040600020015490565b60405190612e3e82612ca8565b6000610160838281528260208201528260408201528260608201528260808201528260a08201528260c08201528260e08201528261010082015282610120820152826101408201520152565b60021115611edd57565b6001600160401b038111612c775760051b60200190565b60405190612eba602083612cfa565b600080835282815b828110612ece57505050565b602090612ed9612d1b565b82828501015201612ec2565b90612eef82612e94565b612efc6040519182612cfa565b8281528092612f0d601f1991612e94565b019060005b828110612f1e57505050565b602090612f29612d1b565b82828501015201612f12565b805182101561100f5760209160051b010190565b82156130fe5760008093603854945b85811061309f57508184101561309257612f8691612f77859283612ab2565b9080821161308a575b50612c2f565b90612f9082612ee5565b9160009260009160005b87811080613081575b1561307657612fb181612745565b60018060a01b0391549060031b1c1680600052603b60205260406000205486811515918261306b575b5050612ff0575b50612feb90612d99565b612f9a565b87879297101561300f575b50613008612feb91612d99565b9590612fe1565b613063612feb92958261300893600052603a6020526040600020546040519161303783612c5c565b82528060208301526000191460408201526130528288612f35565b5261305d8187612f35565b50612d99565b949150612ffb565b111590508638612fda565b505094505050505090565b50818410612fa3565b905038612f80565b5050505050612a39612eab565b6130a881612745565b60018060a01b0391549060031b1c16600052603b6020526040600020548481151591826130f3575b50506130df575b600101612f58565b916130eb600191612d99565b9290506130d7565b1115905084386130d0565b505050612a39612eab565b6040519061311682612cc4565b60006020838281520152565b805482101561100f5760005260206000209060011b0190600090565b9060405161314b81612cc4565b602060018294805484520154910152565b919060385490818410156131fe5761317991612f77859283612ab2565b61318281612ee5565b9260005b82811061319257505050565b806131a76131a260019385612ab2565b612745565b838060a01b0391549060031b1c1680600052603a602052604060002054604051916131d183612c5c565b82528060208301526000191460408201526131ec8288612f35565b526131f78187612f35565b5001613186565b50509050612a39612eab565b9061321482612e94565b6132216040519182612cfa565b8281528092613232601f1991612e94565b0190602036910137565b9190604554801580156132e1575b6132c35780849161325b8484612ab2565b116132b2575b505061326c8161320a565b9060005b81811061327e575090925050565b8061329361328e60019388612ab2565b612760565b838060a01b0391549060031b1c166132ab8286612f35565b5201613270565b6132bc9250612c2f565b8238613261565b505090506040516132d5602082612cfa565b60008152600036813790565b508084101561324a565b92916132f682612e94565b936133046040519586612cfa565b602085848152019260051b81019182116105f657915b81831061332657505050565b82356001600160a01b03811681036105f65781526020928301920161331a565b92919092613352612da8565b6001600160a01b039485166000818152603360209081526040808320959098168252602e81528782209282526001909201909152948520600201805491959193915b8481106133a2575050505050565b8260016133af8385613122565b500154146133bf57600101613394565b5050909150601c9293506000520160205260406000206003604051916133e483612c8d565b8054835260018101546020840152600281015460408401520154606082015290565b92919092613412612da8565b6001600160a01b039485166000818152603360209081526040808320959098168252602e81528782209282526001928301905295862001805491959193915b84811061345f575050505050565b82600161346c8385613122565b5001541461347c57600101613451565b5050909150601b9293506000520160205260406000206003604051916133e483612c8d565b6001600160a01b039081166000908152602e6020908152604080832094909316825260019093018352818120603390935220600a81015490919060ff166002811015611edd5761352957600b8201905b6001810154156135215761351861350d612a3994600693613d80565b600584015490612ae3565b91015490612c3c565b505050600090565b60138201906134f1565b6001600160a01b0381166000818152604c6020526040902054929490939092909190606081158015613714575b6136ab57508086916135728584612ab2565b11613698575b505061358382612e94565b906135916040519283612cfa565b828252601f196135a084612e94565b0160005b81811061365e575050819460005b8481106135c3575050505050909150565b60019082600052604c6020526135e760406000206135e1838c612ab2565b9061277b565b838060a01b0391549060031b1c166135ff8582614eb2565b6136098683612d3a565b6136138784613e49565b9061361e888561413a565b926040519461362c86612cdf565b8552602085015260408401526060830152608082015261364c8287612f35565b526136578186612f35565b50016135b2565b60209060405161366d81612cdf565b60008152600083820152600060408201526000606082015260006080820152828287010152016135a4565b6136a3929350612c2f565b908438613578565b604051949650939450600092506136c791506020905084612cfa565b8252600090815b8281106136db5750505090565b6020906040516136ea81612cdf565b600081526000838201526000604082015260008482015260006080820152828287010152016136ce565b5081871015613560565b6001600160a01b03166000818152604c602052604090205490929190801580156137d7575b6137c557806137528484612ab2565b116137b1575b506137628261320a565b9260005b838110613774575050505090565b60019082600052604c60205261379260406000206135e18387612ab2565b838060a01b0391549060031b1c166137aa8288612f35565b5201613766565b819250906137be91612c2f565b9038613758565b505050506040516132d5602082612cfa565b5080821015613743565b600160ff1b81146118c25760000390565b906064820291808305606414901517156118c257565b906b02df0ab5a80a22c61ab5a7008202918083056b02df0ab5a80a22c61ab5a70014901517156118c257565b90693f1fce3da636ea5cf850820291808305693f1fce3da636ea5cf85014901517156118c257565b90690127fa27722cc06cc5e2820291808305690127fa27722cc06cc5e214901517156118c257565b9068280e60114edb805d0382029180830568280e60114edb805d0314901517156118c257565b90680ebc5fb41746121110820291808305680ebc5fb4174612111014901517156118c257565b906808f00f760a4b2db55d8202918083056808f00f760a4b2db55d14901517156118c257565b906806f5f17757889379378202918083056806f5f177578893793714901517156118c257565b818102929160008212600160ff1b8214166118c25781840514901517156118c257565b8115612c4657600160ff1b81146000198314166118c2570590565b680238fd42c5cf03ffff1981121580613d6d575b61397790614f8c565b60008112613d48576806f05b59d3b20000008112613d0e5761399890612b10565b6139ba770195e54c5dd42177f53a27172fa9ec630262827000000000916137f2565b68056bc75e2d631000009068ad78ebc5ac62000000811215613cee575b6856bc75e2d631000000811215613cd3575b682b5e3af16b18800000811215613cb8575b6815af1d78b58c400000811215613c9d575b680ad78ebc5ac6200000811215613c82575b68056bc75e2d63100000811215613c67575b6802b5e3af16b1880000811215613c4c575b68015af1d78b58c40000811215613c22575b808080808080808080613a6781612bfa565b613a71828061391c565b68056bc75e2d631000009005600290059081613a8c91612c13565b91613a969161391c565b68056bc75e2d631000009005600390059081613ab191612c13565b91613abb9161391c565b68056bc75e2d631000009005600490059081613ad691612c13565b91613ae09161391c565b68056bc75e2d631000009005600590059081613afb91612c13565b91613b059161391c565b68056bc75e2d631000009005600690059081613b2091612c13565b91613b2a9161391c565b68056bc75e2d631000009005600790059081613b4591612c13565b91613b4f9161391c565b68056bc75e2d631000009005600890059081613b6a91612c13565b91613b749161391c565b68056bc75e2d631000009005600990059081613b8f91612c13565b91613b999161391c565b68056bc75e2d631000009005600a90059081613bb491612c13565b91613bbe9161391c565b68056bc75e2d631000009005600b90059081613bd991612c13565b91613be39161391c565b68056bc75e2d631000009005600c9005613bfc91612c13565b613c059161391c565b68056bc75e2d63100000900590613c1b9161391c565b6064900590565b613c37613c31613c4692612be0565b926138f6565b68056bc75e2d63100000900590565b90613a55565b613c37613c5b613c6192612bc6565b926138d0565b90613a43565b613c37613c76613c7c92612bac565b926138aa565b90613a31565b613c37613c91613c9792612b92565b92613884565b90613a1f565b613c37613cac613cb292612b78565b9261385c565b90613a0d565b613c37613cc7613ccd92612b5e565b92613834565b906139fb565b613c37613ce2613ce892612b44565b92613808565b906139e9565b613cf89150612b2a565b6e01855144814a7ff805980ff0084000906139d7565b6803782dace9d90000008112613d3d57613d2790612af6565b6139ba6b1425982cf597cd205cef7380916137f2565b6139ba6001916137f2565b613d646126386ec097ce7bc90715b34b9f1000000000926137e1565b612a399161393f565b5068070c1cc73b00c8000081131561396e565b6011546000939192845b600185018054821015613e4157613da2828592613122565b50966001880154600052601b840160205260406000209760018901548015600014613e265750600289015480613df85750600291613de1915490612ab2565b97015414613df157600101613d8a565b5050509050565b90919250600281018091116118c2578592600292613de1928510613e1d575490612ab2565b50600090612ab2565b91613e3b600293613de19354908c5491614fee565b90612ab2565b505050509050565b60009291906001600160a01b03168015613f1457600052602e602052600160406000200160018060a01b0382166000526020526040600020906011546001600093018054935b848110613e9d575050505050565b613ea78183613122565b5060018060a01b0385166000526033602052601b60406000200160018201546000526020526040600020846001820154159182613f05575b5050613eef575b50600101613e8f565b60019197613efe915490612ab2565b9690613ee6565b60020154111590508438613edf565b506000925050565b919060009160098401548015600014613fc5575060008052601e84016020526040600020805480151580613fb9575b613fb0575b50600301545b5b80151580613fa6575b15613f9f57600052601e84016020526040600020600181015415613f88575b60030154613f57565b92613f97600391855490612ab2565b939050613f7f565b5092505090565b5082811115613f60565b93506003613f50565b50600182015415613f4b565b600052601e8401602052600360406000200154613f56565b91906000916008840154801560001461407f575060008052601d84016020526040600020805480151580614073575b61406a575b50600301545b5b80151580614060575b15613f9f57600052601d84016020526040600020600181015415614049575b60030154614018565b92614058600391855490612ab2565b939050614040565b5082811115614021565b93506003614011565b5060018201541561400c565b600052601d8401602052600360406000200154614017565b60115480156000811561410e57506140bd6004545b6001841661410757601f5b54612ab2565b4210612d925715806140f2575b6140ec5760125490600182018092116118c257116140e757600190565b600090565b50600090565b50600181018082116118c257600f54106140ca565b60146140b7565b60018311614120575b6140bd906140ac565b506140bd61413360025460035490612ab2565b9050614117565b60009291906001600160a01b03168015613f1457600052602e602052600160406000200160018060a01b0382166000526020526040600020906011546002600093018054935b84811061418e575050505050565b6141988183613122565b5060018060a01b0385166000526033602052601c604060002001600182015460005260205260406000208460018201541591826141f6575b50506141e0575b50600101614180565b600191976141ef915490612ab2565b96906141d7565b600201541115905084386141d0565b61420d612e31565b5060018060a01b036001820154169160018060a01b036002830154169160018060a01b0360038201541660048201548354600385015460048601549160058701549360068801549560ff600761426f601154614269818d613fdd565b9b613f1c565b9a015416996040519b6142818d612ca8565b8c5260208c015260408b015260608a0152608089015260a088015260c087015260e0860152610100850152610120840152610140830152151561016082015290565b60008181526000805160206150b08339815191526020908152604080832033845290915290205460ff16156142f55750565b63e2517d3f60e01b6000523360045260245260446000fd5b60008181526000805160206150b0833981519152602090815260408083206001600160a01b038616845290915290205460ff16612d925760008181526000805160206150b0833981519152602090815260408083206001600160a01b0395909516808452949091528120805460ff19166001179055339291907f2f8788117e7eff1d82e926ec794901d17c78024a50270940304540a733656f0d9080a4600190565b60008181526000805160206150b0833981519152602090815260408083206001600160a01b038616845290915290205460ff1615612d925760008181526000805160206150b0833981519152602090815260408083206001600160a01b0395909516808452949091528120805460ff19169055339291907ff6391f5c32d9c69d2a47ea670b442974b53935d1edc7fd64eb21e047a839171b9080a4600190565b81156146115760008092603854935b8481106145935750818310156145875761447d91612f77849283612ab2565b61448681612ee5565b60009160009060005b8681108061457e575b15614574576144a681612745565b60018060a01b0391549060031b1c1680600052603a602052604060002054816000526039602052604060002054151580614569575b600181614561575b506144f9575b50506144f490612d99565b61448f565b87879397101561451a575b50506145126144f491612d99565b9490386144e9565b6144f492946145129261455a926040519161453483612c5c565b825280602083015260001914604082015261454f8289612f35565b5261305d8188612f35565b9391614504565b9050386144e3565b5060115481116144db565b5050509250505090565b50818310614498565b50505050612a39612eab565b61459c81612745565b60018060a01b0391549060031b1c1680600052603a60205260406000205490600052603960205260406000205415159081614605575b506001816145fd575b506145e9575b60010161445e565b916145f5600191612d99565b9290506145e1565b9050386145db565b905060115410386145d2565b5050612a39612eab565b600080516020615090833981519152546001600160a01b0316330361185b57565b601154801580156148b2575b6140ec5760125460001982019182116118c2578111156140ec57604754604051631bae711d60e21b815260206004820181905260126024830152712a3930b739b0b1ba34b7b726b0b730b3b2b960711b60448301529092916001600160a01b03169083606481845afa9283156147d357600093614876575b5060405163132d95ab60e11b815260048101839052600093602090829060249082906001600160a01b03165afa90811561486b578491614835575b506148305791602060649360405194858092631bae711d60e21b8252846004830152600e60248301526d151c9a589d5b985b105c1c19585b60921b60448301525afa9283156148235781936147df575b5050604051634d66354560e11b8152600481019190915290602090829060249082906001600160a01b03165afa9081156147d357600091614791575b506140e757600190565b6020813d6020116147cb575b816147aa60209383612cfa565b810103126147c757519081151582036147c4575038614787565b80fd5b5080fd5b3d915061479d565b6040513d6000823e3d90fd5b9092506020813d60201161481b575b816147fb60209383612cfa565b81010312614817579061480f602092614a7a565b92909161474b565b8280fd5b3d91506147ee565b50604051903d90823e3d90fd5b505090565b90506020813d602011614863575b8161485060209383612cfa565b8101031261485f5751386146fb565b8380fd5b3d9150614843565b6040513d86823e3d90fd5b9092506020813d6020116148aa575b8161489260209383612cfa565b810103126105f6576148a390614a7a565b91386146c0565b3d9150614885565b5060018114614648565b82156130fe5760008093603854945b8581106149fa575081841015613092576148ea91612f77859283612ab2565b6148f381612ee5565b9060009260009160005b878110806149f1575b156149e65761491481612745565b60018060a01b0391549060031b1c1680600052603b60205260406000205481600052603a602052604060002054908581151591826149db575b5050806149d2575b61496a575b505061496590612d99565b6148fd565b88889398101561498b575b505061498361496591612d99565b95903861495a565b6149659295614983926149cb92604051916149a583612c5c565b82528060208301526000191460408201526149c0828a612f35565b5261305d8189612f35565b9491614975565b50848111614955565b11159050853861494d565b505050509250505090565b50818410614906565b614a0381612745565b60018060a01b0391549060031b1c1680600052603b60205260406000205490600052603a602052846040600020548215159283614a6f575b5082614a65575b5050614a51575b6001016148cb565b91614a5d600191612d99565b929050614a49565b1190508438614a42565b821015925038614a3b565b51906001600160a01b03821682036105f657565b9080601f830112156105f6578151614aa581612e94565b92614ab36040519485612cfa565b81845260208085019260051b8201019283116105f657602001905b828210614adb5750505090565b60208091614ae884614a7a565b815201910190614ace565b916060838303126105f65782519260208101516001600160401b0381116105f65783614b20918301614a8e565b9260408201516001600160401b0381116105f657612a399201614a8e565b919693959092949660018116159182600014614d1857602d925b15614d1057602b915b8354978815614cff5782516000198a01998a116118c257891115614cee57614b8d600099845190612c2f565b808211614ce6575b508015614cd75788999a89989950600014614c565790614bee92916040519b8c988998631392940760e21b8a5260048a0152602489015260448801526064870152608486015261012060a48601526101248501906127b6565b9160c484015260e48301526036610104830152038173__$f680ff9963eb253eede013ef87b81d17c1$__5af492831561104e578290838095614c33575b509093919050565b9150919350614c4c92503d8091833e61103d8183612cfa565b9290913880614c2b565b614c9993506040519a8b97889763dff0f84760e01b89526004890152602488015260448701526064860152608485015261010060a48501526101048401906127b6565b9060c4830152603660e4830152038173__$f680ff9963eb253eede013ef87b81d17c1$__5af492831561104e578290838095614c3357509093919050565b637574a52b60e11b8952600489fd5b905038614b95565b637574a52b60e11b60005260046000fd5b63d0b5c3bb60e01b60005260046000fd5b602a91614b61565b602c92614b58565b6001600160a01b03811615612d92576001600160a01b0316600090815260336020526040902090600060028203614dda5750614d6a601383015b6005600382015491015490612ab2565b60018301549092906001600160a01b031680614db6575b50600201546001600160a01b03165b906001600160a01b038216614da457505090565b614dad91614d20565b612a3991612ab2565b82614dc391949294614d20565b614dd2600291614d9093612ab2565b939150614d81565b6001614dea600a85015460ff1690565b614df381612e8a565b1480614e3f575b80614e33575b15614e125750614d6a60138301614d5a565b5060018116614e2757614d6a600b8301614d5a565b614d6a60138301614d5a565b50601083015415614e00565b50600e83015415614dfa565b6011548015614e7057602f546001600160a01b0316908115612d9257612a3991614d20565b50602f546000906001600160a01b031680614e89575090565b9050614ea16002614e9b600084614d20565b92614d20565b80821115614ead575090565b905090565b60018060a01b0316600052602e602052600160406000200160018060a01b038216600052602052604060002090600182015415612d92576001600160a01b03166000908152603360205260409020600a81015460ff16906002821015611edd57614f2491614f4857600b810192613d80565b90600681015490811561352157612a39926005614f4392015490612ae3565b612c3c565b6013810192613d80565b90614f5c91612ae3565b80614f675750600090565b60001981019081116118c257670de0b6b3a76400009004600181018091116118c25790565b15614f9357565b62461bcd60e51b6000908152602060045260076024526642414c2330303960c81b604452606490fd5b9081614fc9575050600090565b670de0b6b3a76400008202918204670de0b6b3a7640000036118c257612a3991612c3c565b91818302916000198185099383808610950394808603951461508257848311156150695790829109816000038216809204600281600302188082026002030280820260020302808202600203028082026002030280820260020302809102600203029360018380600003040190848311900302920304170290565b82634e487b71600052156003026011186020526024601cfd5b505090612a399250612c3c56fe9016d09d72d40fdae2fd8ceac6b6234c7706214fd39c1cd1e609a0528c19930002dd7bc7dec4dceedda775e58dd541e08a116c6c53815c0bd028192f7b626800237e158222e3e6968b72b9db0d8043aacf074ad9f650f0d1606b4d82ee432c00a264697066735822122055cd59f683d70e3dbb24645fc37833d0093c4392f99a0911b6b9edd03b9cd34f64736f6c634300081c0033",
  "linkReferences": {
    "contracts/utils/ValidatorSelectionUtils.sol": {
      "ValidatorSelectionUtils": [
        {
          "length": 20,
          "start": 4068
        },
        {
          "length": 20,
          "start": 19488
        },
        {
          "length": 20,
          "start": 19653
        }
      ]
    }
  },
  "deployedLinkReferences": {
    "contracts/utils/ValidatorSelectionUtils.sol": {
      "ValidatorSelectionUtils": [
        {
          "length": 20,
          "start": 4041
        },
        {
          "length": 20,
          "start": 19461
        },
        {
          "length": 20,
          "start": 19626
        }
      ]
    }
  }
}