{
  "_format": "hh-sol-artifact-1",
  "contractName": "MockMessages",
  "sourceName": "contracts/test/MockMessages.sol",
  "abi": [
    {
      "inputs": [],
      "name": "AccessControlBadConfirmation",
      "type": "error"
    },
    {
      "inputs": [
        {
          "internalType": "address",
          "name": "account",
          "type": "address"
        },
        {
          "internalType": "bytes32",
          "name": "neededRole",
          "type": "bytes32"
        }
      ],
      "name": "AccessControlUnauthorizedAccount",
      "type": "error"
    },
    {
      "inputs": [],
      "name": "CallerNotConsensus",
      "type": "error"
    },
    {
      "inputs": [],
      "name": "InvalidInitialization",
      "type": "error"
    },
    {
      "inputs": [],
      "name": "NotInitializing",
      "type": "error"
    },
    {
      "inputs": [],
      "name": "NumOfMessagesIssuedTooHigh",
      "type": "error"
    },
    {
      "inputs": [
        {
          "internalType": "address",
          "name": "owner",
          "type": "address"
        }
      ],
      "name": "OwnableInvalidOwner",
      "type": "error"
    },
    {
      "inputs": [
        {
          "internalType": "address",
          "name": "account",
          "type": "address"
        }
      ],
      "name": "OwnableUnauthorizedAccount",
      "type": "error"
    },
    {
      "inputs": [],
      "name": "ReentrancyGuardReentrantCall",
      "type": "error"
    },
    {
      "anonymous": false,
      "inputs": [
        {
          "indexed": true,
          "internalType": "address",
          "name": "caller",
          "type": "address"
        },
        {
          "indexed": false,
          "internalType": "bool",
          "name": "authorized",
          "type": "bool"
        }
      ],
      "name": "AuthorizedCallerUpdated",
      "type": "event"
    },
    {
      "anonymous": false,
      "inputs": [
        {
          "indexed": true,
          "internalType": "address",
          "name": "genConsensus",
          "type": "address"
        }
      ],
      "name": "GenConsensusSet",
      "type": "event"
    },
    {
      "anonymous": false,
      "inputs": [
        {
          "indexed": true,
          "internalType": "address",
          "name": "genManager",
          "type": "address"
        }
      ],
      "name": "GenManagerSet",
      "type": "event"
    },
    {
      "anonymous": false,
      "inputs": [
        {
          "indexed": true,
          "internalType": "address",
          "name": "genTransactions",
          "type": "address"
        }
      ],
      "name": "GenTransactionsSet",
      "type": "event"
    },
    {
      "anonymous": false,
      "inputs": [
        {
          "indexed": false,
          "internalType": "uint64",
          "name": "version",
          "type": "uint64"
        }
      ],
      "name": "Initialized",
      "type": "event"
    },
    {
      "anonymous": false,
      "inputs": [
        {
          "indexed": true,
          "internalType": "uint256",
          "name": "maxAllocatedMessages",
          "type": "uint256"
        }
      ],
      "name": "MaxAllocatedMessagesSet",
      "type": "event"
    },
    {
      "anonymous": false,
      "inputs": [
        {
          "indexed": true,
          "internalType": "bytes32",
          "name": "txId",
          "type": "bytes32"
        },
        {
          "indexed": true,
          "internalType": "bytes32",
          "name": "msgId",
          "type": "bytes32"
        },
        {
          "indexed": false,
          "internalType": "bytes",
          "name": "reason",
          "type": "bytes"
        }
      ],
      "name": "MessageExternalError",
      "type": "event"
    },
    {
      "anonymous": false,
      "inputs": [
        {
          "indexed": true,
          "internalType": "bytes32",
          "name": "txId",
          "type": "bytes32"
        },
        {
          "indexed": true,
          "internalType": "bytes32",
          "name": "msgId",
          "type": "bytes32"
        },
        {
          "indexed": false,
          "internalType": "uint256",
          "name": "gasRemaining",
          "type": "uint256"
        }
      ],
      "name": "MessageExternalOutOfGas",
      "type": "event"
    },
    {
      "anonymous": false,
      "inputs": [
        {
          "indexed": true,
          "internalType": "bytes32",
          "name": "tx_id",
          "type": "bytes32"
        },
        {
          "indexed": true,
          "internalType": "bytes32",
          "name": "msgId",
          "type": "bytes32"
        }
      ],
      "name": "MessagesOnAcceptance",
      "type": "event"
    },
    {
      "anonymous": false,
      "inputs": [
        {
          "indexed": true,
          "internalType": "bytes32",
          "name": "tx_id",
          "type": "bytes32"
        },
        {
          "indexed": true,
          "internalType": "bytes32",
          "name": "msgId",
          "type": "bytes32"
        }
      ],
      "name": "MessagesOnFinalization",
      "type": "event"
    },
    {
      "anonymous": false,
      "inputs": [
        {
          "indexed": true,
          "internalType": "uint256",
          "name": "minGasPerMessage",
          "type": "uint256"
        }
      ],
      "name": "MinGasPerMessageSet",
      "type": "event"
    },
    {
      "anonymous": false,
      "inputs": [
        {
          "indexed": true,
          "internalType": "uint256",
          "name": "minGasToCatchAndHandle",
          "type": "uint256"
        }
      ],
      "name": "MinGasToCatchAndHandleSet",
      "type": "event"
    },
    {
      "anonymous": false,
      "inputs": [
        {
          "indexed": true,
          "internalType": "address",
          "name": "previousOwner",
          "type": "address"
        },
        {
          "indexed": true,
          "internalType": "address",
          "name": "newOwner",
          "type": "address"
        }
      ],
      "name": "OwnershipTransferStarted",
      "type": "event"
    },
    {
      "anonymous": false,
      "inputs": [
        {
          "indexed": true,
          "internalType": "address",
          "name": "previousOwner",
          "type": "address"
        },
        {
          "indexed": true,
          "internalType": "address",
          "name": "newOwner",
          "type": "address"
        }
      ],
      "name": "OwnershipTransferred",
      "type": "event"
    },
    {
      "anonymous": false,
      "inputs": [
        {
          "indexed": true,
          "internalType": "bytes32",
          "name": "role",
          "type": "bytes32"
        },
        {
          "indexed": true,
          "internalType": "bytes32",
          "name": "previousAdminRole",
          "type": "bytes32"
        },
        {
          "indexed": true,
          "internalType": "bytes32",
          "name": "newAdminRole",
          "type": "bytes32"
        }
      ],
      "name": "RoleAdminChanged",
      "type": "event"
    },
    {
      "anonymous": false,
      "inputs": [
        {
          "indexed": true,
          "internalType": "bytes32",
          "name": "role",
          "type": "bytes32"
        },
        {
          "indexed": true,
          "internalType": "address",
          "name": "account",
          "type": "address"
        },
        {
          "indexed": true,
          "internalType": "address",
          "name": "sender",
          "type": "address"
        }
      ],
      "name": "RoleGranted",
      "type": "event"
    },
    {
      "anonymous": false,
      "inputs": [
        {
          "indexed": true,
          "internalType": "bytes32",
          "name": "role",
          "type": "bytes32"
        },
        {
          "indexed": true,
          "internalType": "address",
          "name": "account",
          "type": "address"
        },
        {
          "indexed": true,
          "internalType": "address",
          "name": "sender",
          "type": "address"
        }
      ],
      "name": "RoleRevoked",
      "type": "event"
    },
    {
      "anonymous": false,
      "inputs": [
        {
          "indexed": true,
          "internalType": "bool",
          "name": "useMinGasPerMessage",
          "type": "bool"
        }
      ],
      "name": "UseMinGasPerMessageSet",
      "type": "event"
    },
    {
      "inputs": [],
      "name": "DEFAULT_ADMIN_ROLE",
      "outputs": [
        {
          "internalType": "bytes32",
          "name": "",
          "type": "bytes32"
        }
      ],
      "stateMutability": "view",
      "type": "function"
    },
    {
      "inputs": [],
      "name": "acceptOwnership",
      "outputs": [],
      "stateMutability": "nonpayable",
      "type": "function"
    },
    {
      "inputs": [],
      "name": "addressManager",
      "outputs": [
        {
          "internalType": "contract IAddressManager",
          "name": "",
          "type": "address"
        }
      ],
      "stateMutability": "view",
      "type": "function"
    },
    {
      "inputs": [
        {
          "internalType": "address",
          "name": "",
          "type": "address"
        }
      ],
      "name": "authorizedCallers",
      "outputs": [
        {
          "internalType": "bool",
          "name": "",
          "type": "bool"
        }
      ],
      "stateMutability": "view",
      "type": "function"
    },
    {
      "inputs": [
        {
          "internalType": "bytes32",
          "name": "_txId",
          "type": "bytes32"
        },
        {
          "internalType": "address",
          "name": "_ghostAddress",
          "type": "address"
        }
      ],
      "name": "flushExternalMessages",
      "outputs": [],
      "stateMutability": "nonpayable",
      "type": "function"
    },
    {
      "inputs": [
        {
          "internalType": "bytes32",
          "name": "_txId",
          "type": "bytes32"
        }
      ],
      "name": "getAllMessagesForTransaction",
      "outputs": [
        {
          "components": [
            {
              "internalType": "enum IMessages.MessageType",
              "name": "messageType",
              "type": "uint8"
            },
            {
              "internalType": "address",
              "name": "recipient",
              "type": "address"
            },
            {
              "internalType": "uint256",
              "name": "value",
              "type": "uint256"
            },
            {
              "internalType": "bytes",
              "name": "data",
              "type": "bytes"
            },
            {
              "internalType": "bool",
              "name": "onAcceptance",
              "type": "bool"
            },
            {
              "internalType": "uint256",
              "name": "saltNonce",
              "type": "uint256"
            }
          ],
          "internalType": "struct IMessages.SubmittedMessage[]",
          "name": "messages",
          "type": "tuple[]"
        }
      ],
      "stateMutability": "view",
      "type": "function"
    },
    {
      "inputs": [
        {
          "internalType": "bytes32",
          "name": "role",
          "type": "bytes32"
        }
      ],
      "name": "getRoleAdmin",
      "outputs": [
        {
          "internalType": "bytes32",
          "name": "",
          "type": "bytes32"
        }
      ],
      "stateMutability": "view",
      "type": "function"
    },
    {
      "inputs": [
        {
          "internalType": "bytes32",
          "name": "_txId",
          "type": "bytes32"
        },
        {
          "internalType": "bool",
          "name": "_onAcceptance",
          "type": "bool"
        }
      ],
      "name": "getTotalExternalMessageValues",
      "outputs": [
        {
          "internalType": "uint256",
          "name": "totalValue",
          "type": "uint256"
        }
      ],
      "stateMutability": "view",
      "type": "function"
    },
    {
      "inputs": [
        {
          "internalType": "bytes32",
          "name": "_txId",
          "type": "bytes32"
        },
        {
          "internalType": "bool",
          "name": "_onAcceptance",
          "type": "bool"
        }
      ],
      "name": "getUnissuedExternalMessageValues",
      "outputs": [
        {
          "internalType": "uint256",
          "name": "totalValue",
          "type": "uint256"
        }
      ],
      "stateMutability": "view",
      "type": "function"
    },
    {
      "inputs": [
        {
          "internalType": "bytes32",
          "name": "_txId",
          "type": "bytes32"
        }
      ],
      "name": "getUnissuedMessageValues",
      "outputs": [
        {
          "internalType": "uint256",
          "name": "totalUnissuedValue",
          "type": "uint256"
        },
        {
          "internalType": "uint256",
          "name": "unissuedCount",
          "type": "uint256"
        }
      ],
      "stateMutability": "view",
      "type": "function"
    },
    {
      "inputs": [
        {
          "internalType": "address",
          "name": "ghost",
          "type": "address"
        }
      ],
      "name": "ghostNonce",
      "outputs": [
        {
          "internalType": "uint256",
          "name": "nonce",
          "type": "uint256"
        }
      ],
      "stateMutability": "view",
      "type": "function"
    },
    {
      "inputs": [
        {
          "internalType": "bytes32",
          "name": "role",
          "type": "bytes32"
        },
        {
          "internalType": "address",
          "name": "account",
          "type": "address"
        }
      ],
      "name": "grantRole",
      "outputs": [],
      "stateMutability": "nonpayable",
      "type": "function"
    },
    {
      "inputs": [
        {
          "internalType": "bytes32",
          "name": "_txId",
          "type": "bytes32"
        }
      ],
      "name": "hasExternalMessagesNotIssued",
      "outputs": [
        {
          "internalType": "bool",
          "name": "",
          "type": "bool"
        }
      ],
      "stateMutability": "view",
      "type": "function"
    },
    {
      "inputs": [
        {
          "internalType": "bytes32",
          "name": "_txId",
          "type": "bytes32"
        }
      ],
      "name": "hasMessagesOnAcceptance",
      "outputs": [
        {
          "internalType": "bool",
          "name": "",
          "type": "bool"
        }
      ],
      "stateMutability": "view",
      "type": "function"
    },
    {
      "inputs": [
        {
          "internalType": "bytes32",
          "name": "_txId",
          "type": "bytes32"
        }
      ],
      "name": "hasMessagesOnFinalization",
      "outputs": [
        {
          "internalType": "bool",
          "name": "",
          "type": "bool"
        }
      ],
      "stateMutability": "view",
      "type": "function"
    },
    {
      "inputs": [
        {
          "internalType": "bytes32",
          "name": "role",
          "type": "bytes32"
        },
        {
          "internalType": "address",
          "name": "account",
          "type": "address"
        }
      ],
      "name": "hasRole",
      "outputs": [
        {
          "internalType": "bool",
          "name": "",
          "type": "bool"
        }
      ],
      "stateMutability": "view",
      "type": "function"
    },
    {
      "inputs": [
        {
          "internalType": "address",
          "name": "_addressManager",
          "type": "address"
        },
        {
          "internalType": "uint256",
          "name": "_maxAllocatedMessages",
          "type": "uint256"
        }
      ],
      "name": "initialize",
      "outputs": [],
      "stateMutability": "nonpayable",
      "type": "function"
    },
    {
      "inputs": [
        {
          "internalType": "bytes32",
          "name": "",
          "type": "bytes32"
        },
        {
          "internalType": "uint256",
          "name": "",
          "type": "uint256"
        }
      ],
      "name": "isMessageIssued",
      "outputs": [
        {
          "internalType": "bool",
          "name": "",
          "type": "bool"
        }
      ],
      "stateMutability": "view",
      "type": "function"
    },
    {
      "inputs": [
        {
          "internalType": "bytes32",
          "name": "",
          "type": "bytes32"
        }
      ],
      "name": "issuedMessagesOnAcceptance",
      "outputs": [
        {
          "internalType": "uint256",
          "name": "",
          "type": "uint256"
        }
      ],
      "stateMutability": "view",
      "type": "function"
    },
    {
      "inputs": [
        {
          "internalType": "bytes32",
          "name": "",
          "type": "bytes32"
        }
      ],
      "name": "issuedMessagesOnFinalization",
      "outputs": [
        {
          "internalType": "uint256",
          "name": "",
          "type": "uint256"
        }
      ],
      "stateMutability": "view",
      "type": "function"
    },
    {
      "inputs": [
        {
          "internalType": "bytes32",
          "name": "_txId",
          "type": "bytes32"
        }
      ],
      "name": "markAllMessagesAsIssued",
      "outputs": [],
      "stateMutability": "nonpayable",
      "type": "function"
    },
    {
      "inputs": [],
      "name": "maxAllocatedMessages",
      "outputs": [
        {
          "internalType": "uint256",
          "name": "",
          "type": "uint256"
        }
      ],
      "stateMutability": "view",
      "type": "function"
    },
    {
      "inputs": [
        {
          "internalType": "bytes32",
          "name": "",
          "type": "bytes32"
        },
        {
          "internalType": "uint256",
          "name": "",
          "type": "uint256"
        }
      ],
      "name": "messagesForTransaction",
      "outputs": [
        {
          "internalType": "enum IMessages.MessageType",
          "name": "messageType",
          "type": "uint8"
        },
        {
          "internalType": "address",
          "name": "recipient",
          "type": "address"
        },
        {
          "internalType": "uint256",
          "name": "value",
          "type": "uint256"
        },
        {
          "internalType": "bytes",
          "name": "data",
          "type": "bytes"
        },
        {
          "internalType": "bool",
          "name": "onAcceptance",
          "type": "bool"
        },
        {
          "internalType": "uint256",
          "name": "saltNonce",
          "type": "uint256"
        }
      ],
      "stateMutability": "view",
      "type": "function"
    },
    {
      "inputs": [],
      "name": "minGasPerMessage",
      "outputs": [
        {
          "internalType": "uint256",
          "name": "",
          "type": "uint256"
        }
      ],
      "stateMutability": "view",
      "type": "function"
    },
    {
      "inputs": [],
      "name": "minGasToCatchAndHandle",
      "outputs": [
        {
          "internalType": "uint256",
          "name": "",
          "type": "uint256"
        }
      ],
      "stateMutability": "view",
      "type": "function"
    },
    {
      "inputs": [
        {
          "internalType": "bytes32",
          "name": "_txId",
          "type": "bytes32"
        }
      ],
      "name": "numOfMessagesIssuedOnAcceptance",
      "outputs": [
        {
          "internalType": "uint256",
          "name": "",
          "type": "uint256"
        }
      ],
      "stateMutability": "view",
      "type": "function"
    },
    {
      "inputs": [
        {
          "internalType": "bytes32",
          "name": "_txId",
          "type": "bytes32"
        }
      ],
      "name": "numOfMessagesIssuedOnFinalization",
      "outputs": [
        {
          "internalType": "uint256",
          "name": "",
          "type": "uint256"
        }
      ],
      "stateMutability": "view",
      "type": "function"
    },
    {
      "inputs": [],
      "name": "owner",
      "outputs": [
        {
          "internalType": "address",
          "name": "",
          "type": "address"
        }
      ],
      "stateMutability": "view",
      "type": "function"
    },
    {
      "inputs": [],
      "name": "pendingOwner",
      "outputs": [
        {
          "internalType": "address",
          "name": "",
          "type": "address"
        }
      ],
      "stateMutability": "view",
      "type": "function"
    },
    {
      "inputs": [
        {
          "internalType": "bytes32",
          "name": "_txId",
          "type": "bytes32"
        },
        {
          "internalType": "address",
          "name": "_ghostAddress",
          "type": "address"
        }
      ],
      "name": "processMessagesOnAcceptance",
      "outputs": [
        {
          "components": [
            {
              "internalType": "enum IMessages.MessageType",
              "name": "messageType",
              "type": "uint8"
            },
            {
              "internalType": "address",
              "name": "recipient",
              "type": "address"
            },
            {
              "internalType": "uint256",
              "name": "value",
              "type": "uint256"
            },
            {
              "internalType": "bytes",
              "name": "data",
              "type": "bytes"
            },
            {
              "internalType": "bool",
              "name": "onAcceptance",
              "type": "bool"
            },
            {
              "internalType": "uint256",
              "name": "saltNonce",
              "type": "uint256"
            }
          ],
          "internalType": "struct IMessages.SubmittedMessage[]",
          "name": "internalMessages",
          "type": "tuple[]"
        }
      ],
      "stateMutability": "nonpayable",
      "type": "function"
    },
    {
      "inputs": [
        {
          "internalType": "bytes32",
          "name": "_txId",
          "type": "bytes32"
        },
        {
          "internalType": "address",
          "name": "_ghostAddress",
          "type": "address"
        }
      ],
      "name": "processMessagesOnFinalization",
      "outputs": [
        {
          "components": [
            {
              "internalType": "enum IMessages.MessageType",
              "name": "messageType",
              "type": "uint8"
            },
            {
              "internalType": "address",
              "name": "recipient",
              "type": "address"
            },
            {
              "internalType": "uint256",
              "name": "value",
              "type": "uint256"
            },
            {
              "internalType": "bytes",
              "name": "data",
              "type": "bytes"
            },
            {
              "internalType": "bool",
              "name": "onAcceptance",
              "type": "bool"
            },
            {
              "internalType": "uint256",
              "name": "saltNonce",
              "type": "uint256"
            }
          ],
          "internalType": "struct IMessages.SubmittedMessage[]",
          "name": "internalMessages",
          "type": "tuple[]"
        }
      ],
      "stateMutability": "nonpayable",
      "type": "function"
    },
    {
      "inputs": [],
      "name": "renounceOwnership",
      "outputs": [],
      "stateMutability": "nonpayable",
      "type": "function"
    },
    {
      "inputs": [
        {
          "internalType": "bytes32",
          "name": "role",
          "type": "bytes32"
        },
        {
          "internalType": "address",
          "name": "callerConfirmation",
          "type": "address"
        }
      ],
      "name": "renounceRole",
      "outputs": [],
      "stateMutability": "nonpayable",
      "type": "function"
    },
    {
      "inputs": [
        {
          "internalType": "bytes32",
          "name": "role",
          "type": "bytes32"
        },
        {
          "internalType": "address",
          "name": "account",
          "type": "address"
        }
      ],
      "name": "revokeRole",
      "outputs": [],
      "stateMutability": "nonpayable",
      "type": "function"
    },
    {
      "inputs": [
        {
          "internalType": "address",
          "name": "_addressManager",
          "type": "address"
        }
      ],
      "name": "setAddressManager",
      "outputs": [],
      "stateMutability": "nonpayable",
      "type": "function"
    },
    {
      "inputs": [
        {
          "internalType": "address",
          "name": "caller",
          "type": "address"
        },
        {
          "internalType": "bool",
          "name": "authorized",
          "type": "bool"
        }
      ],
      "name": "setAuthorizedCaller",
      "outputs": [],
      "stateMutability": "nonpayable",
      "type": "function"
    },
    {
      "inputs": [
        {
          "internalType": "address[]",
          "name": "callers",
          "type": "address[]"
        },
        {
          "internalType": "bool",
          "name": "authorized",
          "type": "bool"
        }
      ],
      "name": "setAuthorizedCallers",
      "outputs": [],
      "stateMutability": "nonpayable",
      "type": "function"
    },
    {
      "inputs": [
        {
          "internalType": "uint256",
          "name": "_maxAllocatedMessages",
          "type": "uint256"
        }
      ],
      "name": "setMaxAllocatedMessages",
      "outputs": [],
      "stateMutability": "nonpayable",
      "type": "function"
    },
    {
      "inputs": [
        {
          "internalType": "uint256",
          "name": "_minGasPerMessage",
          "type": "uint256"
        }
      ],
      "name": "setMinGasPerMessage",
      "outputs": [],
      "stateMutability": "nonpayable",
      "type": "function"
    },
    {
      "inputs": [
        {
          "internalType": "uint256",
          "name": "_minGasToCatchAndHandle",
          "type": "uint256"
        }
      ],
      "name": "setMinGasToCatchAndHandle",
      "outputs": [],
      "stateMutability": "nonpayable",
      "type": "function"
    },
    {
      "inputs": [
        {
          "internalType": "uint256",
          "name": "_gas",
          "type": "uint256"
        },
        {
          "internalType": "uint256",
          "name": "_decreasePerCall",
          "type": "uint256"
        }
      ],
      "name": "setMockGasLeft",
      "outputs": [],
      "stateMutability": "nonpayable",
      "type": "function"
    },
    {
      "inputs": [
        {
          "internalType": "bool",
          "name": "_useMinGasPerMessage",
          "type": "bool"
        }
      ],
      "name": "setUseMinGasPerMessage",
      "outputs": [],
      "stateMutability": "nonpayable",
      "type": "function"
    },
    {
      "inputs": [
        {
          "internalType": "bytes32",
          "name": "_txId",
          "type": "bytes32"
        },
        {
          "components": [
            {
              "internalType": "enum IMessages.MessageType",
              "name": "messageType",
              "type": "uint8"
            },
            {
              "internalType": "address",
              "name": "recipient",
              "type": "address"
            },
            {
              "internalType": "uint256",
              "name": "value",
              "type": "uint256"
            },
            {
              "internalType": "bytes",
              "name": "data",
              "type": "bytes"
            },
            {
              "internalType": "bool",
              "name": "onAcceptance",
              "type": "bool"
            },
            {
              "internalType": "uint256",
              "name": "saltNonce",
              "type": "uint256"
            }
          ],
          "internalType": "struct IMessages.SubmittedMessage[]",
          "name": "_messages",
          "type": "tuple[]"
        }
      ],
      "name": "storeMessagesForTransaction",
      "outputs": [],
      "stateMutability": "nonpayable",
      "type": "function"
    },
    {
      "inputs": [
        {
          "internalType": "bytes4",
          "name": "interfaceId",
          "type": "bytes4"
        }
      ],
      "name": "supportsInterface",
      "outputs": [
        {
          "internalType": "bool",
          "name": "",
          "type": "bool"
        }
      ],
      "stateMutability": "view",
      "type": "function"
    },
    {
      "inputs": [
        {
          "internalType": "address",
          "name": "newOwner",
          "type": "address"
        }
      ],
      "name": "transferOwnership",
      "outputs": [],
      "stateMutability": "nonpayable",
      "type": "function"
    },
    {
      "inputs": [
        {
          "internalType": "bytes32",
          "name": "",
          "type": "bytes32"
        }
      ],
      "name": "txHasMessagesOnAcceptance",
      "outputs": [
        {
          "internalType": "bool",
          "name": "",
          "type": "bool"
        }
      ],
      "stateMutability": "view",
      "type": "function"
    },
    {
      "inputs": [
        {
          "internalType": "bytes32",
          "name": "",
          "type": "bytes32"
        }
      ],
      "name": "txHasMessagesOnFinalization",
      "outputs": [
        {
          "internalType": "bool",
          "name": "",
          "type": "bool"
        }
      ],
      "stateMutability": "view",
      "type": "function"
    },
    {
      "inputs": [
        {
          "internalType": "bytes32",
          "name": "_txId",
          "type": "bytes32"
        },
        {
          "internalType": "uint256",
          "name": "_numOfMessagesIssued",
          "type": "uint256"
        },
        {
          "internalType": "bool",
          "name": "_isAcceptance",
          "type": "bool"
        }
      ],
      "name": "updateNumOfMessagesIssued",
      "outputs": [],
      "stateMutability": "nonpayable",
      "type": "function"
    },
    {
      "inputs": [],
      "name": "useMinGasPerMessage",
      "outputs": [
        {
          "internalType": "bool",
          "name": "",
          "type": "bool"
        }
      ],
      "stateMutability": "view",
      "type": "function"
    },
    {
      "stateMutability": "payable",
      "type": "receive"
    }
  ],
  "bytecode": "0x60808060405234601557612808908161001b8239f35b600080fdfe608080604052600436101561001d575b50361561001b57600080fd5b005b60003560e01c90816301ffc9a7146116df5750806302fae85d146116b75780630652b57a14611674578063090263a71461159e5780631444d2e2146115575780631684997914611492578063182b304e14611411578063248a9ca3146113eb57806325e66885146113b15780632f2ff15d1461138057806336568abe1461133a57806338444e05146112de5780633ab76e9f146112b55780633ab98c8a14611207578063404f7db714610b52578063414261f1146111e457806342b8bfbf14610a1b578063454bbd29146111665780634af6b23f146110ad5780634fbd51fe1461108f578063536fff6c146110505780635454a18f14610ff15780635af6724614610edf5780635c46384814610a6857806361c53f3d14610e705780636221578814610dc1578063629fcfe614610da35780636769caa914610ce8578063715018a614610c67578063731134d914610c2f578063793c97af14610bd357806379ba509714610b835780637bd9024d14610b525780638da5cb5b14610b1c5780638e9f1cd014610aee57806391d1485414610a945780639549390d14610a68578063a217fddf14610a4c578063a2fd112914610291578063aa14aa7314610a1b578063aa2cbb2b146109fd578063b9899c7c146105e9578063bf67fb11146105a2578063cd6dc687146103b0578063d547741f1461037a578063e30c397814610344578063f2fde38b146102bd578063f4b001cb146102915763ff24908b14610245573861000f565b3461028c57602036600319011261028c576004356102616120e3565b806001557f793474085a3b2169e01d60d064f31a4165fd3f26b4985be48ca89f73ccc3ed3c600080a2005b600080fd5b3461028c57602036600319011261028c57600435600052600a6020526020604060002054604051908152f35b3461028c57602036600319011261028c576102d6611732565b6102de6120e3565b6000805160206127b383398151915280546001600160a01b0319166001600160a01b03928316908117909155600080516020612753833981519152549091167f38d16b8cac22d99fc7c124b9cd0de2d3fa1faef420bfe791d8c362d765e22700600080a3005b3461028c57600036600319011261028c576000805160206127b3833981519152546040516001600160a01b039091168152602090f35b3461028c57604036600319011261028c5761001b600435610399611748565b906103ab6103a682611b0c565b612104565b6121f7565b3461028c57604036600319011261028c576103c9611732565b602435600080516020612793833981519152549160ff8360401c1615926001600160401b0381168015908161059a575b6001149081610590575b159081610587575b506105765767ffffffffffffffff1981166001176000805160206127938339815191525583610549575b5061043e612724565b610446612724565b3315610533576104553361267e565b61045d612724565b610465612724565b61046d612724565b60017f9b779b17422d0df92223018b32b4d1fa46e071723d6817e2486d003becc55f0055610499612724565b600080546001600160a01b0319166001600160a01b0392909216919091179055801561052b575b60015562030d40600255620186a06003556104d757005b60ff60401b196000805160206127938339815191525416600080516020612793833981519152557fc7f505b2f371ae2175ee4913f4499e1f2633a7b5936321eed1cdaeb6115181d2602060405160018152a1005b5060146104c0565b631e4fbdf760e01b600052600060045260246000fd5b68ffffffffffffffffff191668010000000000000001176000805160206127938339815191525583610435565b63f92ee8a960e01b60005260046000fd5b9050158561040b565b303b159150610403565b8591506103f9565b3461028c57602036600319011261028c576004356105be6120e3565b806002557f7d17c3883cb42fae97c4cf9018f8584b90230610fc305ca7cc3c64e67bf0d86c600080a2005b3461028c57604036600319011261028c576004356024356001600160401b03811161028c5761061c90369060040161175e565b90916001600160a01b0361062e612297565b16331415806109e4575b6109d3576000916000805b828110156106a55760009461066860806106628460051b8a018a6120aa565b016120bf565b156106965750600190604082965b86815260066020528181208382526020522060ff19815416905501610643565b94915060019060408293610676565b506106cd6106ec929484600052600760205260406000209060ff801983541691151516179055565b82600052600860205260406000209060ff801983541691151516179055565b6000526005602052604060002091600160401b82116109bd5782548284558083106108f3575b506000928352602083209290805b83831061072957005b61073381836120aa565b8035600281101561028c5786546000919060ff610100600160a81b0361075b60208701611a63565b60081b1692169060018060a81b031916171787556040820135600188015560028701906060830135601e19843603018112156108ef578301908135916001600160401b0383116108ef5782360360208201136108ef576107bb84546118de565b601f81116108b4575b508190601f841160011461084257938360019794846005989460209860a09793610835575b505050600019600383901b1c191690881b1790555b61082261080d608083016120bf565b60038c019060ff801983541691151516179055565b0135600489015501950192019193610720565b0188013591508e806107e9565b90601f19841685845260208420935b81811061089a57508460a094600598946020989460019b988c951061087e575b505050811b0190556107fe565b01880135600019600384901b60f8161c191690558d8080610871565b919360206001819282888801013581550195019201610851565b6108df9085845260208420601f860160051c810191602087106108e5575b601f0160051c01906120cc565b8a6107c4565b90915081906108d2565b5080fd5b806005029060058204036109a757826005026005810484036109a75784600052602060002091820191015b81811061092b5750610712565b80600060059255600060018201556002810161094781546118de565b9081610964575b505060006003820155600060048201550161091e565b81601f6000931160011461097c5750555b868061094e565b8183526020832061099791601f01861c8101906001016120cc565b8082528160208120915555610975565b634e487b7160e01b600052601160045260246000fd5b634e487b7160e01b600052604160045260246000fd5b634782018760e01b60005260046000fd5b5033600052600b60205260ff6040600020541615610638565b3461028c57600036600319011261028c576020600154604051908152f35b3461028c57602036600319011261028c576004356000526008602052602060ff604060002054166040519015158152f35b3461028c57600036600319011261028c57602060405160008152f35b3461028c57602036600319011261028c5760043560005260096020526020604060002054604051908152f35b3461028c57604036600319011261028c57610aad611748565b60043560005260008051602061277383398151915260205260406000209060018060a01b0316600052602052602060ff604060002054166040519015158152f35b3461028c57604036600319011261028c57600c805461ff001916610100179055600435600d55602435600e55005b3461028c57600036600319011261028c57600080516020612753833981519152546040516001600160a01b039091168152602090f35b3461028c57602036600319011261028c576004356000526007602052602060ff604060002054166040519015158152f35b3461028c57600036600319011261028c576000805160206127b383398151915254336001600160a01b0390911603610bbe5761001b3361267e565b63118cdaa760e01b6000523360045260246000fd5b3461028c57602036600319011261028c5760043580151580910361028c57610bf96120e3565b60ff19600c541660ff821617600c557fbde62b41f294597ebf7561ba729aa2f6c859938e08c1663ca28c1dac6f42c1bb600080a2005b3461028c57610c3d36611896565b906000526006602052604060002090600052602052602060ff604060002054166040519015158152f35b3461028c57600036600319011261028c57610c806120e3565b6000805160206127b383398151915280546001600160a01b0319908116909155600080516020612753833981519152805491821690556000906001600160a01b03167f8be0079c531659141344cd1fd0a4f28419497f9722a3daafe3b4186f6b6457e08280a3005b3461028c57602036600319011261028c576004356001600160a01b03610d0c612297565b1633141580610d8a575b6109d357806000526005602052604060002060005b815481101561001b5760019083600052600660205260406000208160005260205260ff6040600020541615610d61575b01610d2b565b83600052600660205260406000208160005260205260406000208260ff19825416179055610d5b565b5033600052600b60205260ff6040600020541615610d16565b3461028c57600036600319011261028c576020600254604051908152f35b3461028c57610dcf36611896565b906000526005602052604060002090815481101561028c57610df0916118ac565b508054600182015491604051610e1481610e0d8160028601611918565b03826119b6565b610e5f600460ff600385015416930154916040519585610e388860ff81991661179d565b60081c6001600160a01b03166020870152604086015260c0606086018190528501906117aa565b911515608084015260a08301520390f35b3461028c57604036600319011261028c57610e89611748565b6001600160a01b03610e99612297565b1633141580610ec6575b6109d357610eb6610ec291600435611eef565b604051918291826117eb565b0390f35b5033600052600b60205260ff6040600020541615610ea3565b3461028c57604036600319011261028c57600435610efb61178e565b9060009080600052600560205260406000206000918154925b838110610f2657602085604051908152f35b81600052600660205260406000208160005260205260ff604060002054161580610fbc575b80610f9e575b80610f87575b610f64575b600101610f14565b93610f7f60019182610f7688876118ac565b50015490611a77565b949050610f5c565b506001610f9482856118ac565b5001541515610f57565b5060ff6003610fad83866118ac565b50015416151586151514610f51565b5060ff610fc982856118ac565b5054166002811015610fdb5715610f4b565b634e487b7160e01b600052602160045260246000fd5b3461028c57604036600319011261028c5761100a611748565b6001600160a01b0361101a612297565b1633141580611037575b6109d357610eb6610ec291600435611d12565b5033600052600b60205260ff6040600020541615611024565b3461028c57602036600319011261028c576001600160a01b03611071611732565b16600052600b602052602060ff604060002054166040519015158152f35b3461028c57600036600319011261028c576020600354604051908152f35b3461028c57606036600319011261028c57602435600435604435801515810361028c576001600160a01b036110e0612297565b163314158061114d575b6109d357816000526005602052826040600020541061113c57156111245760005260096020526111206040600020918254611a77565b9055005b600052600a6020526111206040600020918254611a77565b632809de1560e11b60005260046000fd5b5033600052600b60205260ff60406000205416156110ea565b3461028c57604036600319011261028c5761117f611732565b7fad857fa38c9319cb80848f1ef2f924383b90297eb5d71755738ff037d100faa160206111aa61178e565b926111b36120e3565b6001600160a01b03166000818152600b835260409020805460ff191660ff86151516179055926040519015158152a2005b3461028c57600036600319011261028c57602060ff600c54166040519015158152f35b3461028c57602036600319011261028c576004356000809180835260056020526040832083918154925b838110611248576040858782519182526020820152f35b81600052600660205260406000208160005260205260ff60406000205416158061129e575b61127a575b600101611231565b949361129661129060019283610f768a886118ac565b95611b2d565b959050611272565b5060016112ab82856118ac565b500154151561126d565b3461028c57600036600319011261028c576000546040516001600160a01b039091168152602090f35b3461028c57604036600319011261028c576112f7611748565b6001600160a01b03611307612297565b1633141580611321575b6109d35761001b90600435611b3c565b5033600052600b60205260ff6040600020541615611311565b3461028c57604036600319011261028c57611353611748565b336001600160a01b0382160361136f5761001b906004356121f7565b63334bd91960e11b60005260046000fd5b3461028c57604036600319011261028c5761001b60043561139f611748565b906113ac6103a682611b0c565b61214e565b3461028c57602036600319011261028c576001600160a01b036113d2611732565b1660005260046020526020604060002054604051908152f35b3461028c57602036600319011261028c576020611409600435611b0c565b604051908152f35b3461028c57602036600319011261028c5760043560005260056020526040600020805461143d81611a84565b9161144b60405193846119b6565b818352602083019060005260206000206000915b8383106114745760405180610ec287826117eb565b6005602060019261148485611a9b565b81520192019201919061145f565b3461028c57604036600319011261028c576114ab61178e565b6000600435600052600560205260406000206000908054915b8281106114d657602084604051908152f35b60ff6114e282846118ac565b5054166002811015610fdb571580611539575b80611522575b611508575b6001016114c4565b9261151a60019182610f7687866118ac565b939050611500565b50600161152f82846118ac565b50015415156114fb565b5060ff600361154883856118ac565b500154161515851515146114f5565b3461028c57602036600319011261028c576004356115736120e3565b806003557fa178f61ad9dc567929dd4655ec5b9534714a6b267d0e91a17808c9a8f7e5b3a6600080a2005b3461028c57604036600319011261028c576004356001600160401b03811161028c576115ce90369060040161175e565b6115d661178e565b6115de6120e3565b8015159060005b8381106115ee57005b6001906001600160a01b0361160c61160783888a611a53565b611a63565b16600052600b60205261162f8360406000209060ff801983541691151516179055565b818060a01b0361164361160783888a611a53565b167fad857fa38c9319cb80848f1ef2f924383b90297eb5d71755738ff037d100faa16020604051878152a2016115e5565b3461028c57602036600319011261028c5761168d611732565b6116956120e3565b600080546001600160a01b0319166001600160a01b0392909216919091179055005b3461028c57602036600319011261028c5760206116d56004356119d7565b6040519015158152f35b3461028c57602036600319011261028c576004359063ffffffff60e01b821680920361028c57602091637965db0b60e01b8114908115611721575b5015158152f35b6301ffc9a760e01b1490508361171a565b600435906001600160a01b038216820361028c57565b602435906001600160a01b038216820361028c57565b9181601f8401121561028c578235916001600160401b03831161028c576020808501948460051b01011161028c57565b60243590811515820361028c57565b906002821015610fdb5752565b919082519283825260005b8481106117d6575050826000602080949584010152601f8019910116010190565b806020809284010151828286010152016117b5565b602081016020825282518091526040820191602060408360051b8301019401926000915b83831061181e57505050505090565b9091929394602080600192603f1985820301865288519061184081835161179d565b848060a01b038383015116838201526040820151604082015260a080611875606085015160c0606086015260c08501906117aa565b9360808101511515608085015201519101529701930193019193929061180f565b604090600319011261028c576004359060243590565b80548210156118c8576000526005602060002091020190600090565b634e487b7160e01b600052603260045260246000fd5b90600182811c9216801561190e575b60208310146118f857565b634e487b7160e01b600052602260045260246000fd5b91607f16916118ed565b60009291815491611928836118de565b808352926001811690811561197e575060011461194457505050565b60009081526020812093945091925b838310611964575060209250010190565b600181602092949394548385870101520191019190611953565b915050602093945060ff929192191683830152151560051b010190565b60c081019081106001600160401b038211176109bd57604052565b90601f801991011681019081106001600160401b038211176109bd57604052565b6000818152600560205260408120805492915b8381106119fa5750505050600090565b60ff611a0682846118ac565b5054166002811015610fdb571580611a2e575b611a25576001016119ea565b50505050600190565b5082600052600660205260406000208160005260205260ff6040600020541615611a19565b91908110156118c85760051b0190565b356001600160a01b038116810361028c5790565b919082018092116109a757565b6001600160401b0381116109bd5760051b60200190565b90604051611aa88161199b565b809280549060ff8216906002821015610fdb5760a0926004928552600180851b039060081c16602085015260018101546040850152604051611af181610e0d8160028601611918565b606085015260ff600382015416151560808501520154910152565b60005260008051602061277383398151915260205260016040600020015490565b60001981146109a75760010190565b9190918060005260056020526040600020805415611c7f5760009160009160019460005b8254811015611c72578615611c3257611b7981846118ac565b5060ff8154166002811015610fdb571580611c0d575b611b9d575b50600101611b60565b9650611baa84898961234e565b968715611b9457600360ff91866000999499526006602052604060002089600052602052604060002060018419825416179055015416600014611bfa57611bf2600191611b2d565b955b90611b94565b9493611c07600191611b2d565b94611bf4565b5084600052600660205260406000208260005260205260ff6040600020541615611b8f565b50955050919092505b816000526009602052611c546040600020918254611a77565b9055600052600a602052611c6e6040600020918254611a77565b9055565b5095505091909250611c3b565b50509050565b90611c8f82611a84565b611c9c60405191826119b6565b8281528092611cad601f1991611a84565b019060005b828110611cbe57505050565b602090604051611ccd8161199b565b600081526000838201526000604082015260608082015260006080820152600060a082015282828501015201611cb2565b80518210156118c85760209160051b010190565b919091806000526005602052604060002080548015611ee657600090815b818110611e67575050611d4290611c85565b9360008092600190825b8154811015611e5157611d5f81836118ac565b5060ff60038201541680611e2c575b611d7c575b50600101611d4c565b60ff8154166002811015610fdb5788918791611df75785611da5575b5050506001905b90611d73565b611db093955061234e565b9182611dbf575b868538611d98565b94611def60019188600052600660205260406000208860005260205260406000208360ff19825416179055611b2d565b959050611db7565b611e269250600193969150611e0b90611a9b565b611e15828d611cfe565b52611e20818c611cfe565b50611b2d565b93611d9f565b5087600052600660205260406000208260005260205260ff6040600020541615611d6e565b5050505050906000526009602052604060002055565b611e7181856118ac565b5060ff8154166002811015610fdb576001149081611ed7575b5080611eb2575b611e9e575b600101611d30565b91611eaa600191611b2d565b929050611e96565b5084600052600660205260406000208160005260205260ff6040600020541615611e91565b60ff9150600301541638611e8a565b50606093505050565b919091806000526005602052604060002080548015611ee657600090815b81811061202a575050611f1f90611c85565b9360008092600190825b815481101561201457611f3c81836118ac565b5060ff6003820154161580611fef575b611f5a575b50600101611f29565b60ff8154166002811015610fdb5788918791611fd55785611f83575b5050506001905b90611f51565b611f8e93955061234e565b9182611f9d575b868538611f76565b94611fcd60019188600052600660205260406000208860005260205260406000208360ff19825416179055611b2d565b959050611f95565b611fe99250600193969150611e0b90611a9b565b93611f7d565b5087600052600660205260406000208260005260205260ff6040600020541615611f4c565b505050505090600052600a602052604060002055565b61203481856118ac565b5060ff8154166002811015610fdb57600114908161209a575b5080612075575b612061575b600101611f0d565b9161206d600191611b2d565b929050612059565b5084600052600660205260406000208160005260205260ff6040600020541615612054565b60ff91506003015416153861204d565b90359060be198136030182121561028c570190565b35801515810361028c5790565b8181106120d7575050565b600081556001016120cc565b600080516020612753833981519152546001600160a01b03163303610bbe57565b60008181526000805160206127738339815191526020908152604080832033845290915290205460ff16156121365750565b63e2517d3f60e01b6000523360045260245260446000fd5b6000818152600080516020612773833981519152602090815260408083206001600160a01b038616845290915290205460ff166121f0576000818152600080516020612773833981519152602090815260408083206001600160a01b0395909516808452949091528120805460ff19166001179055339291907f2f8788117e7eff1d82e926ec794901d17c78024a50270940304540a733656f0d9080a4600190565b5050600090565b6000818152600080516020612773833981519152602090815260408083206001600160a01b038616845290915290205460ff16156121f0576000818152600080516020612773833981519152602090815260408083206001600160a01b0395909516808452949091528120805460ff19169055339291907ff6391f5c32d9c69d2a47ea670b442974b53935d1edc7fd64eb21e047a839171b9080a4600190565b600054604051631bae711d60e21b8152602060048201819052600d60248301526c21b7b739b2b739bab9a6b0b4b760991b60448301529091829060649082906001600160a01b03165afa908115612342576000916122fd575b506001600160a01b031690565b6020813d60201161233a575b81612316602093836119b6565b810103126108ef5751906001600160a01b03821682036123375750386122f0565b80fd5b3d9150612309565b6040513d6000823e3d90fd5b929160018060a01b03845460081c169360028101946040516020810191825260408082015261239281612384606082018a611918565b03601f1981018352826119b6565b5190209260ff600c5416600014612676576123b260025460035490611a77565b6123ba6126ec565b90811061263e5750600182015490816125b2575b6001600160a01b036123de612297565b169160018060a01b03845460081c169160018060a01b03169283600052600460205260406000205491600183018093116109a7576124606020946124526124919c6040519687936303fb17f160e41b8a86015260248501528c604485015260648401526080608484015260a4830190611918565b03601f1981018552846119b6565b6000604051809b81958294639e0c615f60e01b845289600485015260248401526060604484015260648301906117aa565b03925af195861561234257600096612573575b5085156125205760ff91600391600052600460205260406000206124c88154611b2d565b9055015416156124f9577fd47891a6ff5220ec24aa936c97085771a5c665b9b42f318ee779ff7dba9afedf600080a3565b7f1a2b93b175bf31d44b127b5c4c0f72cbf128f5230ad594a52a00dfa559c96b51600080a3565b50507f5ae8e754fbc8b7b56c89e264bdcd8bb847036b23ac1a0f791f48b62438f2bab960606040516020815260146020820152731a185b991b1953dc0818d85b1b0819985a5b195960621b6040820152a3565b6020969196813d6020116125aa575b8161258f602093836119b6565b810103126108ef5751908115158203612337575094386124a4565b3d9150612582565b816001600160a01b036125c3612297565b163110156123ce57505050909192507f5ae8e754fbc8b7b56c89e264bdcd8bb847036b23ac1a0f791f48b62438f2bab9608060405160208152602660208201527f496e73756666696369656e742062616c616e636520666f72206d6573736167656040820152652076616c756560d01b6060820152a3600090565b90507f97a034ff8fab7e4de24992575acaa9eb95a9c48411292c420aa711b24405811c929394955060209150604051908152a3600090565b6003546123b2565b6000805160206127b383398151915280546001600160a01b031990811690915560008051602061275383398151915280549182166001600160a01b0393841690811790915591167f8be0079c531659141344cd1fd0a4f28419497f9722a3daafe3b4186f6b6457e0600080a3565b60ff600c5460081c161561272057600d54600e5480821115612718575b81038181116109a757600d5590565b506000612709565b5a90565b60ff6000805160206127938339815191525460401c161561274157565b631afcd79f60e31b60005260046000fdfe9016d09d72d40fdae2fd8ceac6b6234c7706214fd39c1cd1e609a0528c19930002dd7bc7dec4dceedda775e58dd541e08a116c6c53815c0bd028192f7b626800f0c57e16840df040f15088dc2f81fe391c3923bec73e23a9662efc9c229c6a00237e158222e3e6968b72b9db0d8043aacf074ad9f650f0d1606b4d82ee432c00a26469706673582212209743d4913d5bba7cdbf7e1762eb02365614fa6956d5c7bc22bbe5f213a98a90664736f6c634300081c0033",
  "linkReferences": {},
  "deployedLinkReferences": {}
}