{
  "_format": "hh-sol-artifact-1",
  "contractName": "MockTribunal",
  "sourceName": "contracts/test-helpers/MockTribunal.sol",
  "abi": [
    {
      "inputs": [
        {
          "internalType": "address",
          "name": "_staking",
          "type": "address"
        },
        {
          "internalType": "address",
          "name": "_slashing",
          "type": "address"
        }
      ],
      "stateMutability": "nonpayable",
      "type": "constructor"
    },
    {
      "inputs": [],
      "name": "currentEpoch",
      "outputs": [
        {
          "internalType": "uint256",
          "name": "",
          "type": "uint256"
        }
      ],
      "stateMutability": "view",
      "type": "function"
    },
    {
      "inputs": [
        {
          "internalType": "uint256",
          "name": "",
          "type": "uint256"
        }
      ],
      "name": "hasPendingTribunals",
      "outputs": [
        {
          "internalType": "bool",
          "name": "",
          "type": "bool"
        }
      ],
      "stateMutability": "view",
      "type": "function"
    },
    {
      "inputs": [],
      "name": "pendingTribunals",
      "outputs": [
        {
          "internalType": "bool",
          "name": "",
          "type": "bool"
        }
      ],
      "stateMutability": "view",
      "type": "function"
    },
    {
      "inputs": [
        {
          "internalType": "uint256",
          "name": "",
          "type": "uint256"
        }
      ],
      "name": "processTribunal",
      "outputs": [],
      "stateMutability": "nonpayable",
      "type": "function"
    },
    {
      "inputs": [
        {
          "internalType": "address",
          "name": "_validator",
          "type": "address"
        }
      ],
      "name": "seal",
      "outputs": [],
      "stateMutability": "nonpayable",
      "type": "function"
    },
    {
      "inputs": [
        {
          "internalType": "bool",
          "name": "_pending",
          "type": "bool"
        }
      ],
      "name": "setPendingTribunals",
      "outputs": [],
      "stateMutability": "nonpayable",
      "type": "function"
    },
    {
      "inputs": [
        {
          "internalType": "address",
          "name": "_transactions",
          "type": "address"
        }
      ],
      "name": "setTransactions",
      "outputs": [],
      "stateMutability": "nonpayable",
      "type": "function"
    },
    {
      "inputs": [
        {
          "internalType": "address",
          "name": "_validator",
          "type": "address"
        },
        {
          "internalType": "uint256",
          "name": "_schedule",
          "type": "uint256"
        },
        {
          "internalType": "uint256",
          "name": "_epoch",
          "type": "uint256"
        }
      ],
      "name": "slash",
      "outputs": [],
      "stateMutability": "nonpayable",
      "type": "function"
    },
    {
      "inputs": [],
      "name": "txEpoch",
      "outputs": [
        {
          "internalType": "uint256",
          "name": "",
          "type": "uint256"
        }
      ],
      "stateMutability": "view",
      "type": "function"
    },
    {
      "inputs": [
        {
          "internalType": "address",
          "name": "_validator",
          "type": "address"
        }
      ],
      "name": "unquarantine",
      "outputs": [],
      "stateMutability": "nonpayable",
      "type": "function"
    }
  ],
  "bytecode": "0x608034609257601f6105c338819003918201601f19168301916001600160401b038311848410176097578084926040948552833981010312609257604b602060458360ad565b920160ad565b600260035560016004819055600080546001600160a01b03199081166001600160a01b03958616179091558154169290911691909117905560405161050290816100c18239f35b600080fd5b634e487b7160e01b600052604160045260246000fd5b51906001600160a01b038216820360925756fe608080604052600436101561001357600080fd5b600090813560e01c908162ec4cf8146103f857508063151e9602146103c257806333cda2cc1461038357806370f81f6c14610299578063766718081461027b57806386c013571461025d5780639acc6a8a14610236578063dfe6b38414610210578063e09ec7b6146101165763e0d760f81461008e57600080fd5b3461010457602036600319011261010457806100a8610479565b81546001600160a01b031690813b156101125760405163c32459a160e01b81526001600160a01b0390911660048201529082908290602490829084905af18015610107576100f35750f35b816100fd91610494565b6101045780f35b80fd5b6040513d84823e3d90fd5b5050fd5b503461010457602036600319011261010457600454600354811090816101ff575b81610183575b506101455780f35b805481906001600160a01b0316803b1561018057818091600460405180948193634d3097bd60e11b83525af18015610107576100f357505080f35b50fd5b60025460405163132d95ab60e11b81526004810192909252909150602090829060249082906001600160a01b03165afa9081156101075782916101c9575b50153861013d565b90506020813d6020116101f7575b816101e460209383610494565b810103126101f35751386101c1565b5080fd5b3d91506101d7565b60025460a01c60ff16159150610137565b5034610104578060031936011261010457602060ff60025460a01c166040519015158152f35b503461010457602036600319011261010457602060ff60025460a01c166040519015158152f35b50346101045780600319360112610104576020600454604051908152f35b50346101045780600319360112610104576020600354604051908152f35b503461010457606036600319011261010457806102b4610479565b8154604435916001600160a01b0390911690813b1561035e5783809160446040518094819363dfc3736d60e01b835260018060a01b0316968760048401528860248401525af1908115610378578491610363575b50506001546001600160a01b031691823b1561035e57608484928360405195869485936312522f7360e11b85526004850152602435602485015260448401526101f460648401525af18015610107576100f35750f35b505050fd5b8161036d91610494565b610112578238610308565b6040513d86823e3d90fd5b5034610104576020366003190112610104576004358015158091036101f3576002805460ff60a01b191660a09290921b60ff60a01b1691909117905580f35b5034610104576020366003190112610104576001600160a01b036103e4610479565b1660018060a01b0319600254161760025580f35b9050346101f35760203660031901126101f35781610414610479565b81546001600160a01b0316803b1561047557633eb5dbd960e21b84526001600160a01b03909116600484015281908390602490829084905af180156104685761045a5780f35b61046391610494565b388180f35b50604051903d90823e3d90fd5b8280fd5b600435906001600160a01b038216820361048f57565b600080fd5b90601f8019910116810190811067ffffffffffffffff8211176104b657604052565b634e487b7160e01b600052604160045260246000fdfea26469706673582212201c8042edbb9e059cad7ce98a5697fc1f283087095ed076b4f45845c3e2c963ba64736f6c634300081c0033",
  "linkReferences": {},
  "deployedLinkReferences": {}
}