{
  "_format": "hh-sol-artifact-1",
  "contractName": "RevealingPhase",
  "sourceName": "contracts/phases/RevealingPhase.sol",
  "abi": [
    {
      "inputs": [],
      "stateMutability": "nonpayable",
      "type": "constructor"
    },
    {
      "inputs": [
        {
          "internalType": "address",
          "name": "leader",
          "type": "address"
        },
        {
          "internalType": "address",
          "name": "caller",
          "type": "address"
        }
      ],
      "name": "CallerNotLeader",
      "type": "error"
    },
    {
      "inputs": [],
      "name": "InvalidInitialization",
      "type": "error"
    },
    {
      "inputs": [],
      "name": "InvalidValidator",
      "type": "error"
    },
    {
      "inputs": [],
      "name": "InvalidVote",
      "type": "error"
    },
    {
      "inputs": [],
      "name": "NotInitializing",
      "type": "error"
    },
    {
      "inputs": [
        {
          "internalType": "address",
          "name": "owner",
          "type": "address"
        }
      ],
      "name": "OwnableInvalidOwner",
      "type": "error"
    },
    {
      "inputs": [
        {
          "internalType": "address",
          "name": "account",
          "type": "address"
        }
      ],
      "name": "OwnableUnauthorizedAccount",
      "type": "error"
    },
    {
      "inputs": [],
      "name": "ReentrancyGuardReentrantCall",
      "type": "error"
    },
    {
      "inputs": [],
      "name": "Unauthorized",
      "type": "error"
    },
    {
      "inputs": [],
      "name": "VoteAlreadyRevealed",
      "type": "error"
    },
    {
      "anonymous": false,
      "inputs": [
        {
          "indexed": true,
          "internalType": "bytes32",
          "name": "txId",
          "type": "bytes32"
        },
        {
          "indexed": false,
          "internalType": "enum ITransactions.ResultType",
          "name": "majorVoted",
          "type": "uint8"
        },
        {
          "indexed": false,
          "internalType": "enum ITransactions.TransactionStatus",
          "name": "newStatus",
          "type": "uint8"
        }
      ],
      "name": "AllVotesRevealed",
      "type": "event"
    },
    {
      "anonymous": false,
      "inputs": [
        {
          "indexed": true,
          "internalType": "address",
          "name": "caller",
          "type": "address"
        },
        {
          "indexed": false,
          "internalType": "bool",
          "name": "authorized",
          "type": "bool"
        }
      ],
      "name": "AuthorizedCallerUpdated",
      "type": "event"
    },
    {
      "anonymous": false,
      "inputs": [
        {
          "indexed": false,
          "internalType": "uint64",
          "name": "version",
          "type": "uint64"
        }
      ],
      "name": "Initialized",
      "type": "event"
    },
    {
      "anonymous": false,
      "inputs": [
        {
          "indexed": true,
          "internalType": "bytes32",
          "name": "txId",
          "type": "bytes32"
        },
        {
          "indexed": true,
          "internalType": "address",
          "name": "oldLeader",
          "type": "address"
        },
        {
          "indexed": true,
          "internalType": "address",
          "name": "newLeader",
          "type": "address"
        }
      ],
      "name": "LeaderRotatedToProposing",
      "type": "event"
    },
    {
      "anonymous": false,
      "inputs": [
        {
          "indexed": true,
          "internalType": "bytes32",
          "name": "txId",
          "type": "bytes32"
        },
        {
          "indexed": true,
          "internalType": "address",
          "name": "leader",
          "type": "address"
        },
        {
          "indexed": false,
          "internalType": "enum ITransactions.VoteType",
          "name": "txExecutionResult",
          "type": "uint8"
        }
      ],
      "name": "LeaderVoteRevealed",
      "type": "event"
    },
    {
      "anonymous": false,
      "inputs": [
        {
          "indexed": true,
          "internalType": "bytes32",
          "name": "txId",
          "type": "bytes32"
        },
        {
          "indexed": false,
          "internalType": "uint256",
          "name": "round",
          "type": "uint256"
        },
        {
          "indexed": false,
          "internalType": "uint256",
          "name": "leaderIndex",
          "type": "uint256"
        },
        {
          "indexed": false,
          "internalType": "address[]",
          "name": "validators",
          "type": "address[]"
        }
      ],
      "name": "NewRoundCreated",
      "type": "event"
    },
    {
      "anonymous": false,
      "inputs": [
        {
          "indexed": true,
          "internalType": "address",
          "name": "previousOwner",
          "type": "address"
        },
        {
          "indexed": true,
          "internalType": "address",
          "name": "newOwner",
          "type": "address"
        }
      ],
      "name": "OwnershipTransferStarted",
      "type": "event"
    },
    {
      "anonymous": false,
      "inputs": [
        {
          "indexed": true,
          "internalType": "address",
          "name": "previousOwner",
          "type": "address"
        },
        {
          "indexed": true,
          "internalType": "address",
          "name": "newOwner",
          "type": "address"
        }
      ],
      "name": "OwnershipTransferred",
      "type": "event"
    },
    {
      "anonymous": false,
      "inputs": [
        {
          "indexed": true,
          "internalType": "bytes32",
          "name": "txId",
          "type": "bytes32"
        }
      ],
      "name": "TransactionUndetermined",
      "type": "event"
    },
    {
      "anonymous": false,
      "inputs": [
        {
          "indexed": true,
          "internalType": "bytes32",
          "name": "txId",
          "type": "bytes32"
        },
        {
          "indexed": true,
          "internalType": "address",
          "name": "slashedLeader",
          "type": "address"
        },
        {
          "indexed": false,
          "internalType": "uint256",
          "name": "tribunalIndex",
          "type": "uint256"
        }
      ],
      "name": "TribunalAppealTriggered",
      "type": "event"
    },
    {
      "anonymous": false,
      "inputs": [
        {
          "indexed": true,
          "internalType": "bytes32",
          "name": "txId",
          "type": "bytes32"
        },
        {
          "indexed": true,
          "internalType": "address",
          "name": "validator",
          "type": "address"
        },
        {
          "indexed": false,
          "internalType": "uint256",
          "name": "validatorIndex",
          "type": "uint256"
        },
        {
          "indexed": false,
          "internalType": "enum ITransactions.VoteType",
          "name": "voteType",
          "type": "uint8"
        }
      ],
      "name": "VoteRevealed",
      "type": "event"
    },
    {
      "inputs": [],
      "name": "acceptOwnership",
      "outputs": [],
      "stateMutability": "nonpayable",
      "type": "function"
    },
    {
      "inputs": [],
      "name": "addressManager",
      "outputs": [
        {
          "internalType": "contract IAddressManager",
          "name": "",
          "type": "address"
        }
      ],
      "stateMutability": "view",
      "type": "function"
    },
    {
      "inputs": [
        {
          "internalType": "address",
          "name": "",
          "type": "address"
        }
      ],
      "name": "authorizedCallers",
      "outputs": [
        {
          "internalType": "bool",
          "name": "",
          "type": "bool"
        }
      ],
      "stateMutability": "view",
      "type": "function"
    },
    {
      "inputs": [
        {
          "internalType": "address",
          "name": "_addressManager",
          "type": "address"
        }
      ],
      "name": "initialize",
      "outputs": [],
      "stateMutability": "nonpayable",
      "type": "function"
    },
    {
      "inputs": [
        {
          "internalType": "address",
          "name": "caller",
          "type": "address"
        }
      ],
      "name": "isAuthorizedCaller",
      "outputs": [
        {
          "internalType": "bool",
          "name": "",
          "type": "bool"
        }
      ],
      "stateMutability": "view",
      "type": "function"
    },
    {
      "inputs": [],
      "name": "owner",
      "outputs": [
        {
          "internalType": "address",
          "name": "",
          "type": "address"
        }
      ],
      "stateMutability": "view",
      "type": "function"
    },
    {
      "inputs": [],
      "name": "pendingOwner",
      "outputs": [
        {
          "internalType": "address",
          "name": "",
          "type": "address"
        }
      ],
      "stateMutability": "view",
      "type": "function"
    },
    {
      "inputs": [],
      "name": "renounceOwnership",
      "outputs": [],
      "stateMutability": "nonpayable",
      "type": "function"
    },
    {
      "inputs": [
        {
          "components": [
            {
              "internalType": "bytes32",
              "name": "txId",
              "type": "bytes32"
            },
            {
              "internalType": "bytes32",
              "name": "voteHash",
              "type": "bytes32"
            },
            {
              "internalType": "bytes32",
              "name": "resultVoteHash",
              "type": "bytes32"
            },
            {
              "internalType": "enum ITransactions.VoteType",
              "name": "voteType",
              "type": "uint8"
            },
            {
              "internalType": "address",
              "name": "validator",
              "type": "address"
            },
            {
              "internalType": "uint256",
              "name": "validatorIndex",
              "type": "uint256"
            }
          ],
          "internalType": "struct IRevealingPhase.RevealVoteParams",
          "name": "params",
          "type": "tuple"
        }
      ],
      "name": "revealVote",
      "outputs": [
        {
          "components": [
            {
              "internalType": "bool",
              "name": "success",
              "type": "bool"
            },
            {
              "internalType": "bool",
              "name": "isLastVote",
              "type": "bool"
            },
            {
              "internalType": "enum ITransactions.ResultType",
              "name": "majorVoted",
              "type": "uint8"
            },
            {
              "internalType": "address",
              "name": "recipient",
              "type": "address"
            },
            {
              "internalType": "address",
              "name": "txOrigin",
              "type": "address"
            },
            {
              "internalType": "uint256",
              "name": "round",
              "type": "uint256"
            },
            {
              "internalType": "bool",
              "name": "leaderRotated",
              "type": "bool"
            },
            {
              "components": [
                {
                  "internalType": "uint256",
                  "name": "round",
                  "type": "uint256"
                },
                {
                  "internalType": "uint256",
                  "name": "leaderIndex",
                  "type": "uint256"
                },
                {
                  "internalType": "address[]",
                  "name": "roundValidators",
                  "type": "address[]"
                }
              ],
              "internalType": "struct ITransactions.NewRoundData",
              "name": "newRoundData",
              "type": "tuple"
            },
            {
              "internalType": "bytes32[]",
              "name": "txsForRecomputation",
              "type": "bytes32[]"
            },
            {
              "internalType": "address",
              "name": "validator",
              "type": "address"
            },
            {
              "internalType": "uint256",
              "name": "validatorIndex",
              "type": "uint256"
            },
            {
              "internalType": "enum ITransactions.VoteType",
              "name": "voteType",
              "type": "uint8"
            },
            {
              "internalType": "bool",
              "name": "queuedToAccepted",
              "type": "bool"
            },
            {
              "internalType": "bool",
              "name": "queuedToUndetermined",
              "type": "bool"
            },
            {
              "internalType": "bool",
              "name": "hasMessagesOnAcceptance",
              "type": "bool"
            }
          ],
          "internalType": "struct IRevealingPhase.RevealVoteResult",
          "name": "result",
          "type": "tuple"
        }
      ],
      "stateMutability": "nonpayable",
      "type": "function"
    },
    {
      "inputs": [
        {
          "components": [
            {
              "internalType": "bytes32",
              "name": "txId",
              "type": "bytes32"
            },
            {
              "internalType": "bytes32",
              "name": "txExecutionHash",
              "type": "bytes32"
            },
            {
              "internalType": "bytes32",
              "name": "otherExecutionFieldsHash",
              "type": "bytes32"
            },
            {
              "internalType": "bytes32",
              "name": "messagesAndOtherFieldsHash",
              "type": "bytes32"
            },
            {
              "internalType": "uint256",
              "name": "saltAsAValidator",
              "type": "uint256"
            },
            {
              "internalType": "enum ITransactions.VoteType",
              "name": "txExecutionResult",
              "type": "uint8"
            },
            {
              "internalType": "address",
              "name": "validator",
              "type": "address"
            },
            {
              "components": [
                {
                  "internalType": "enum IMessages.MessageType",
                  "name": "messageType",
                  "type": "uint8"
                },
                {
                  "internalType": "address",
                  "name": "recipient",
                  "type": "address"
                },
                {
                  "internalType": "uint256",
                  "name": "value",
                  "type": "uint256"
                },
                {
                  "internalType": "bytes",
                  "name": "data",
                  "type": "bytes"
                },
                {
                  "internalType": "bool",
                  "name": "onAcceptance",
                  "type": "bool"
                },
                {
                  "internalType": "uint256",
                  "name": "saltNonce",
                  "type": "uint256"
                }
              ],
              "internalType": "struct IMessages.SubmittedMessage[]",
              "name": "messages",
              "type": "tuple[]"
            }
          ],
          "internalType": "struct IRevealingPhase.RevealVoteAsLeaderParams",
          "name": "params",
          "type": "tuple"
        }
      ],
      "name": "revealVoteAsLeader",
      "outputs": [
        {
          "components": [
            {
              "internalType": "bool",
              "name": "success",
              "type": "bool"
            },
            {
              "internalType": "address",
              "name": "newLeader",
              "type": "address"
            },
            {
              "internalType": "uint256",
              "name": "leaderIndex",
              "type": "uint256"
            },
            {
              "internalType": "enum ITransactions.TransactionStatus",
              "name": "status",
              "type": "uint8"
            },
            {
              "internalType": "bytes32[]",
              "name": "undeterminedTxIds",
              "type": "bytes32[]"
            },
            {
              "internalType": "bool",
              "name": "wasLeaderRotated",
              "type": "bool"
            },
            {
              "internalType": "address",
              "name": "oldLeader",
              "type": "address"
            },
            {
              "internalType": "address[]",
              "name": "validators",
              "type": "address[]"
            }
          ],
          "internalType": "struct IRevealingPhase.RevealVoteAsLeaderResult",
          "name": "result",
          "type": "tuple"
        }
      ],
      "stateMutability": "nonpayable",
      "type": "function"
    },
    {
      "inputs": [
        {
          "internalType": "address",
          "name": "_addressManager",
          "type": "address"
        }
      ],
      "name": "setAddressManager",
      "outputs": [],
      "stateMutability": "nonpayable",
      "type": "function"
    },
    {
      "inputs": [
        {
          "internalType": "address",
          "name": "caller",
          "type": "address"
        },
        {
          "internalType": "bool",
          "name": "authorized",
          "type": "bool"
        }
      ],
      "name": "setAuthorizedCaller",
      "outputs": [],
      "stateMutability": "nonpayable",
      "type": "function"
    },
    {
      "inputs": [
        {
          "internalType": "address[]",
          "name": "callers",
          "type": "address[]"
        },
        {
          "internalType": "bool",
          "name": "authorized",
          "type": "bool"
        }
      ],
      "name": "setAuthorizedCallers",
      "outputs": [],
      "stateMutability": "nonpayable",
      "type": "function"
    },
    {
      "inputs": [
        {
          "internalType": "address",
          "name": "newOwner",
          "type": "address"
        }
      ],
      "name": "transferOwnership",
      "outputs": [],
      "stateMutability": "nonpayable",
      "type": "function"
    }
  ],
  "bytecode": "0x6080806040523460d2577ff0c57e16840df040f15088dc2f81fe391c3923bec73e23a9662efc9c229c6a005460ff8160401c1660c1576002600160401b03196001600160401b03821601605c575b60405161433190816100d88239f35b6001600160401b0319166001600160401b039081177ff0c57e16840df040f15088dc2f81fe391c3923bec73e23a9662efc9c229c6a005581527fc7f505b2f371ae2175ee4913f4499e1f2633a7b5936321eed1cdaeb6115181d290602090a13880604d565b63f92ee8a960e01b60005260046000fd5b600080fdfe610160604052600436101561001357600080fd5b600061010052610100513560e01c80630652b57a1461264c578063090263a7146125475780633ab76e9f1461251a57806341c7a4861461088a578063454bbd29146107fe578063536fff6c146107bb57806359d14b41146107bb578063715018a61461073157806379ba5097146106db5780638da5cb5b146106a3578063bfcc725714610358578063c4d66de81461018e578063e30c3978146101565763f2fde38b146100bf57600080fd5b3461014f57602036600319011261014f576100d8612692565b6100e0613ee3565b6000805160206142dc83398151915280546001600160a01b0319166001600160a01b0392831690811790915560008051602061427c8339815191525461010051919216907f38d16b8cac22d99fc7c124b9cd0de2d3fa1faef420bfe791d8c362d765e227009080a36101005180f35b6101005180fd5b3461014f576101005136600319011261014f576000805160206142dc833981519152546040516001600160a01b039091168152602090f35b3461014f57602036600319011261014f576101a7612692565b6000805160206142bc833981519152549060ff8260401c1615916001600160401b03811680159081610350575b6001149081610346575b15908161033d575b506103285767ffffffffffffffff1981166001176000805160206142bc83398151915255826102fb575b5061021961424d565b61022161424d565b61022961424d565b33156102df576102383361417f565b61024061424d565b61024861424d565b600160008051602061429c833981519152556101005180546001600160a01b0319166001600160a01b0392909216919091179055610288575b6101005180f35b60ff60401b196000805160206142bc83398151915254166000805160206142bc833981519152557fc7f505b2f371ae2175ee4913f4499e1f2633a7b5936321eed1cdaeb6115181d2602060405160018152a1610281565b631e4fbdf760e01b610100515261010051600452602461010051fd5b68ffffffffffffffffff191668010000000000000001176000805160206142bc8339815191525582610210565b63f92ee8a960e01b6101005152600461010051fd5b905015846101e6565b303b1591506101de565b8491506101d4565b3461014f57602036600319011261014f576004356001600160401b03811161014f57610100600319823603011261014f5760405190610396826127b8565b806004013582526024810135602083015260448101356040830152606481013560608301526084810135608083015260a4810135600581101561014f5760a08301526103e460c482016126a8565b60c083015260e4810135906001600160401b03821161014f57013660238201121561014f57600481013561041781612811565b9161042560405193846127f0565b818352602060048185019360051b830101019036821161014f5760248101925b82841061058957858560e0820152606060e0604051610463816127b8565b61010051815261010051602082015261010051604082015261010051838201528260808201526101005160a08201526101005160c08201520152336101005152600160205260ff60406101005120541615610575576104cc610571916104c7613f19565b6130a4565b600160008051602061429c833981519152556040519182916020835280511515602084015260018060a01b0360208201511660408401526040810151606084015261051f60608201516080850190612843565b60e061053c608083015161010060a087015261012086019061272b565b60a0830151151560c0868101919091528301516001600160a01b031682860152910151838203601f19016101008501526126ee565b0390f35b6282b42960e81b6101005152600461010051fd5b83356001600160401b03811161014f5760049083010160c0601f19823603011261014f576040519160c083018381106001600160401b03821117610689576040526020820135600281101561014f5783526105e6604083016126a8565b60208401526060820135604084015260808201356001600160401b03811161014f5760209083010136601f8201121561014f57803561062481612828565b9161063260405193846127f0565b818352366020838301011161014f57602082910160208401376101005190820160200152606084015260a082013592831515840361014f5760c06020949385946080840152013560a0820152815201930192610445565b634e487b7160e01b61010051526041600452602461010051fd5b3461014f576101005136600319011261014f5760008051602061427c833981519152546040516001600160a01b039091168152602090f35b3461014f576101005136600319011261014f576000805160206142dc83398151915254336001600160a01b0390911603610718576102813361417f565b63118cdaa760e01b610100515233600452602461010051fd5b3461014f576101005136600319011261014f5761074c613ee3565b6000805160206142dc83398151915280546001600160a01b031990811690915560008051602061427c8339815191528054918216905561010051906001600160a01b03167f8be0079c531659141344cd1fd0a4f28419497f9722a3daafe3b4186f6b6457e08280a36101005180f35b3461014f57602036600319011261014f576001600160a01b036107dc612692565b1661010051526001602052602060ff6040610100512054166040519015158152f35b3461014f57604036600319011261014f57610817612692565b7fad857fa38c9319cb80848f1ef2f924383b90297eb5d71755738ff037d100faa160206108426126bc565b9261084b613ee3565b60018060a01b0316928361010051526001825261087a81604061010051209060ff801983541691151516179055565b6040519015158152a26101005180f35b3461014f5760c036600319011261014f5760405160808190526101e081019081106001600160401b03821117610689576040526101005160805152610100516020608051015261010051604060805101526101005160606080510152610100516080805101526101005160a060805101526101005160c0608051015261090e6128a0565b60e0608051015260606101006080510152610100516101206080510152610100516101406080510152610100516101606080510152610100516101806080510152610100516101a06080510152610100516101c06080510152336101005152600160205260ff604061010051205416156105755761098a613f19565b610992613f55565b61099a614006565b906109a3614064565b6109ab6140c1565b60405163ba15d63560e01b8152600480359082015290936001600160a01b031691602082602481865afa9182156111e65761010051926124e6575b50604051635af5446960e01b815260043560048201528260248201526101005181604481875afa9081156111e65761010051916124c9575b5060405163255709e560e11b8152600480359082015261010051909290836024816001600160a01b038a165afa9283156111e65761010051936124a2575b506060830151906001600160a01b0316600f821015610e4c576001851661249b5760045b813b1561014f57610ab090610aa660405194633813abfb60e21b86526004860190612843565b6024840190612843565b8160448161010051935afa80156111e657612488575b5060e08101516001600160a01b0390610ae29060a43590612dc1565b51166001600160a01b03610af4612876565b160361247357610b0b60a435610100830151612dc1565b516005811015610e4c5761245e57610b2b9061012060a435910151612dc1565b516024350361244957610b3c612dd5565b50604051610b498161276c565b6101008051825280516020928301525154604051631bae711d60e21b8152600481018390526006602482015265566f74696e6760d01b60448201529190829060649082906001600160a01b03165afa9081156111e657610100519161240f575b506005606435101561014f57604051630e6cc39760e41b815260c06004820152938490610bd960c4830185612e5f565b9285602484015260a4356044840152604435606484015260018060a01b03166084830152610c0c60a4830160643561275f565b81806101005194039161010051905af19384156111e6576101005195869586958693929184918291829190612340575b508a94939291906001600160a01b03610c53612876565b16610120608051015260a43561014060805101526101005150610c7e60643561016060805101613007565b610c866128a0565b60609c909b90610e66575b5050505050506001608051521515602060805101526006811015610e4c576040608051015260018060a01b0360c08201511660606080510152608060018060a01b039101511660808051015260a06080510152151560c0608051015260e060805101526101006080510152600160008051602061429c833981519152556040516020815260805151151560208201526020608051015115156040820152610d426040608051015160608301906126cb565b60018060a01b036060608051015116608082015260018060a01b036080805101511660a082015260a0608051015160c082015260c06080510151151560e082015280610dde610dc4604060e060805101516101e061010086015280516102008601526020810151610220860152015160606102408501526102608401906126ee565b6080516101000151838203601f190161012085015261272b565b60018060a01b036101206080510151166101408301526101406080510151610160830152610e18610160608051015161018084019061275f565b610180608051015115156101a08301526101a0608051015115156101c08301526101c0608051015115156101e08301520390f35b634e487b7160e01b61010051526021600452602461010051fd5b91939a5091939a506101005150610e7b6128a0565b50606091610e87613f55565b60c052610e926141ed565b90610e9b6140c1565b926120c7575b508915612055576001600160a01b0316803b1561014f57604051634e8eb8bd60e01b81526101008051600480359084015260026024840152426044840152905191929091839160649183915af180156111e65761203a575b505b600f83101580610e4c5760058414159081612029575b81612017575b81612006575b50611f94575b835160e0602086015195015160405195610f3c8761279d565b828752602087015260408601526113c9575b50988298835115610ffe575b50505080519081610f6f575b80808080610c91565b604060208201519101519160405191606083019183526020830152606060408301528251809152602060808301930190610100515b818110610fdf57505050807f051f6772989c2be26999fe4b2fd3431a9be1b17e06a34926a40073ffb22e490491600435930390a28780610f66565b82516001600160a01b0316855260209485019490920191600101610fa4565b60c087015160405163ecf55f8360e01b815290602090829081906110329060048035916001600160a01b0316908401613013565b03816001600160a01b0386165afa9081156111e657610100519161138e575b506004811015610e4c5760028114908115611383575b506006871015610e4c57600187148015611379575b1561124a5760c088015160408051630341e56360e31b8152939091849190829081906110b89060048035916001600160a01b0316908401613013565b61010051919003926001600160a01b03165af19182156111e6576101005192611217575b50811561120f575b506110f5575b50505b888080610f5a565b6001600160a01b0381163b1561014f57611128604051926346f32a5d60e11b845260043560048501526024840190612843565b61010051908290604490829084906001600160a01b03165af180156111e6576111f4575b50608051600161018090910152602460206001600160a01b0361116d61411f565b166040519283809263404f7db760e01b825260043560048301525afa9081156111e65761010051916111ac575b5015156101c0608051015288806110ea565b90506020813d6020116111de575b816111c7602093836127f0565b8101031261014f576111d890612e2d565b8961119a565b3d91506111ba565b6040513d61010051823e3d90fd5b61010051611201916127f0565b6101005161014f578861114c565b90508b6110e4565b61123a91925060403d604011611243575b61123281836127f0565b81019061302e565b9050908c6110dc565b503d611228565b891561125a575b505050506110ed565b60c08801516040805163910048fb60e01b8152939091849190829081906112919060048035916001600160a01b0316908401613013565b61010051919003926001600160a01b03165af19182156111e6576101005192611356575b50811561134e575b506112ca575b8080611251565b6001600160a01b0381163b1561014f576112fd604051926346f32a5d60e11b845260043560048501526024840190612843565b61010051908290604490829084906001600160a01b03165af180156111e657611333575b5060016101a0608051015288806112c3565b61010051611340916127f0565b6101005161014f5788611321565b90508b6112bd565b61137091925060403d6040116112435761123281836127f0565b9050908c6112b5565b506003871461107c565b60031490508c611067565b90506020813d6020116113c1575b816113a9602093836127f0565b8101031261014f5751600481101561014f578c611051565b3d915061139c565b60c0870151604051610140818152633b4d69ad60e11b909152610100519051909350919082906114099060048035916001600160a01b0316908401613013565b03906101405190610100519060018060a01b03165af180156111e6576101005160a052611f2e575b60a05161143c614006565b60e05261010051610120525b60a05151610120511015611f28576114656101205160a051612dc1565b5161147b575b6001610120510161012052611448565b60043561148d6101205160a051612dc1565b51036117e4576114a26101205160a051612dc1565b516114ab613f55565b6114b3614006565b6001600160a01b0382163b1561014f576040516346f32a5d60e11b815260048101849052600260248201526101005181604481836001600160a01b0388165af180156111e6576117c9575b506001600160a01b0382163b1561014f57604051633703849360e21b815260048101849052610100805160248301525181604481836001600160a01b0388165af180156111e6576117ae575b5060405163ba15d63560e01b8152600481018490526020816024816001600160a01b0386165afa9081156111e6576101005191611778575b50604051635af5446960e01b8152600481018590526024810182905261010051909290836044816001600160a01b0385165afa9283156111e6576101005193611751575b5060e08301516020909301805190936001600160a01b03916115e791612dc1565b519351931692906001600160a01b0381163b1561014f5761162493604051809581948293638858751360e01b845261010051978b60048601613048565b61010051919003926001600160a01b03165af180156111e657611736575b506001600160a01b036116536141ed565b16803b1561014f57604051634e8eb8bd60e01b815261010080516004830186905260026024840152426044840152905191929091839160649183915af180156111e65761171b575b506001600160a01b0381163b1561014f5760405163343be44b60e01b81526004810192909252436024830152610100805160448401528051606484015251908290608490829084906001600160a01b03165af180156111e657611700575b505b61146b565b6101005161170d916127f0565b6101005161014f578a6116f9565b61010051611728916127f0565b6101005161014f578c61169b565b61010051611743916127f0565b6101005161014f578c611642565b6117719193503d8061010051833e61176981836127f0565b810190612ae1565b918f6115c6565b905060203d81116117a7575b61178e81836127f0565b602082600092810103126117a45750518e611582565b80fd5b503d611784565b610100516117bb916127f0565b6101005161014f578d61154a565b610100516117d6916127f0565b6101005161014f578d6114fe565b6117f36101205160a051612dc1565b51604051906302ef145760e51b8252600482015260208160248160018060a01b0360c051165afa9081156111e6576101005191611eee575b50600f811015610e4c576001146116fb5761184b6101205160a051612dc1565b516040519063f66530b960e01b8252600482015260208160248160018060a01b0360e051165afa9081156111e6576101005191611ebb575b5015611cdd576118986101205160a051612dc1565b5160e0516001600160a01b03163b1561014f57604051636b9b064d60e11b815260048101919091526101005160e0518290602490829084906001600160a01b03165af180156111e657611cc2575b506118f66101205160a051612dc1565b516118ff613f55565b611907614006565b6001600160a01b0382163b1561014f576040516346f32a5d60e11b815260048101849052600260248201526101005181604481836001600160a01b0388165af180156111e657611ca7575b506001600160a01b0382163b1561014f57604051633703849360e21b815260048101849052610100805160248301525181604481836001600160a01b0388165af180156111e657611c8c575b5060405163ba15d63560e01b8152600481018490526020816024816001600160a01b0386165afa9081156111e6576101005191611c59575b50604051635af5446960e01b8152600481018590526024810182905261010051909290836044816001600160a01b0385165afa9283156111e6576101005193611c3a575b5060e08301516020909301805190936001600160a01b0391611a3b91612dc1565b519351931692906001600160a01b0381163b1561014f57611a7893604051809581948293638858751360e01b845261010051978b60048601613048565b61010051919003926001600160a01b03165af180156111e657611c1f575b506001600160a01b0381163b1561014f5760405163647cca5560e01b815260048101839052600160248201526101005181604481836001600160a01b0387165af180156111e657611c04575b5060405163fbc6da7560e01b8152600481018390526020816024816001600160a01b0386165afa9081156111e6576101005191611bcb575b506001600160a01b0382163b1561014f576040519063b944e6f760e01b82528180611b4d86610100519460048401613013565b03816101005160018060a01b0387165af180156111e65761171b57506001600160a01b0381163b1561014f5760405163343be44b60e01b81526004810192909252436024830152610100805160448401528051606484015251908290608490829084906001600160a01b03165af180156111e657611700575061146b565b90506020813d8211611bfc575b81611be5602093836127f0565b8101031261014f57611bf6906128c1565b8d611b1a565b3d9150611bd8565b61010051611c11916127f0565b6101005161014f578c611ae2565b61010051611c2c916127f0565b6101005161014f578c611a96565b611c529193503d8061010051833e61176981836127f0565b918f611a1a565b905060203d8111611c85575b611c6f81836127f0565b602082600092810103126117a45750518e6119d6565b503d611c65565b61010051611c99916127f0565b6101005161014f578d61199e565b61010051611cb4916127f0565b6101005161014f578d611952565b61010051611ccf916127f0565b6101005161014f578a6118e6565b611cec6101205160a051612dc1565b51611cf5613f55565b90611cfe6141ed565b91611d076140c1565b60405163fbc6da7560e01b815260048101849052906020826024816001600160a01b0387165afa80156111e65784926101005191611e77575b5091604091611d6493835180958194829363910048fb60e01b845260048401613013565b61010051919003926001600160a01b03165af19081156111e6576101005191611e57575b50611dec575b506001600160a01b0382163b1561014f57604051634e8eb8bd60e01b8152610100805160048301939093526005602483015242604483015251909283916064918391906001600160a01b03165af180156111e657611700575061146b565b6001600160a01b0381163b1561014f576040516346f32a5d60e11b815260048101839052600660248201526101005190918290604490829084906001600160a01b03165af180156111e65715611d8e5761010051611e49916127f0565b6101005161014f578c611d8e565b611e6f915060403d81116112435761123281836127f0565b90508e611d88565b9250506020823d8211611eb3575b81611e92602093836127f0565b8101031261014f5783604091611eaa611d64946128c1565b91935091611d40565b3d9150611e85565b905060203d8111611ee7575b611ed181836127f0565b602082600092810103126117a45750518b611883565b503d611ec7565b90506020813d8211611f20575b81611f08602093836127f0565b8101031261014f5751600f81101561014f578b61182b565b3d9150611efb565b8a610f4e565b3d8061010051610140513e611f4681610140516127f0565b606061014051826101405101031261014f57611f6461014051612e2d565b5060406101405101516001600160401b03811161014f5761014051611f8c92810191016128d5565b60a052611431565b60c0516001600160a01b0316803b1561014f576040516346f32a5d60e11b8152600480359082015290611fca6024830186612843565b81604481610100519361010051905af180156111e657611feb575b50610f23565b61010051611ff8916127f0565b6101005161014f578b611fe5565b9050610e4c57600c8314158c610f1d565b809150610e4c57600d84141590610f17565b505061010051600684141590610f11565b61010051612047916127f0565b6101005161014f578b610ef9565b6001600160a01b0316803b1561014f57604051634e8eb8bd60e01b81526101008051600480359084015260056024840152426044840152905191929091839160649183915af180156111e6576120ac575b50610efb565b610100516120b9916127f0565b6101005161014f578b6120a6565b6101005154604051631bae711d60e21b8152602060048201819052600e60248301526d151c9a589d5b985b105c1c19585b60921b60448301529092916001600160a01b03169083606481845afa9283156111e6576101005193612301575b5091602060649360405194858092631bae711d60e21b825284600483015260076024830152665374616b696e6760c81b60448301525afa80156111e6578c9361010051916122c5575b5060018060a01b031660206101608d019260a4845160018060a01b038751169284880151604051998a9586946326315d3160e21b865260043560048701526024860152604485015260648401526084830152610100519060018060a01b03165af19384156111e657610100519461228c575b5060018060a01b038351169151813b1561014f5760405192630a959f2360e31b845260048401526024830152600435604483015281606481610100519361010051905af180156111e657612271575b50516040519182526001600160a01b031690600435907f3a3e3bfd7e731f8bae8ff57c2df667edda5ada883afb3011ef0a3a2e2a8c4bff90602090a38c610ea1565b6101005161227e916127f0565b6101005161014f578e61222f565b9093506020813d6020116122bd575b816122a8602093836127f0565b810103126122b8575192386121e0565b600080fd5b3d915061229b565b9350506020833d6020116122f9575b816122e1602093836127f0565b8101031261014f576122f38c936128c1565b3861216e565b3d91506122d4565b92506020833d602011612338575b8161231c602093836127f0565b8101031261014f5760206123316064946128c1565b9350612125565b3d915061230f565b9a5050505095509350503d8061010051873e61235c81876127f0565b85019385850395610100871261014f57805194600686101561014f5761238460208301612e2d565b9261239160408401612e2d565b9261239e60608201612e2d565b97608082015199600f8b101561014f5760a08301516001600160401b03811161014f576040916123cf918501612932565b9b60bf19011261014f5760e0604051926123e88461276c565b6123f460c082016128c1565b84520151602083015294998a94989990919091929394610c3c565b90506020813d602011612441575b8161242a602093836127f0565b8101031261014f5761243b906128c1565b86610ba9565b3d915061241d565b636aee863360e11b6101005152600461010051fd5b631923561b60e11b6101005152600461010051fd5b631a0a9b9f60e21b6101005152600461010051fd5b61010051612495916127f0565b86610ac6565b6009610a80565b6124c29193503d8061010051833e6124ba81836127f0565b810190612b6e565b9187610a5c565b6124e091503d8061010051833e61176981836127f0565b86610a1e565b9091506020813d602011612512575b81612502602093836127f0565b8101031261014f575190856109e6565b3d91506124f5565b3461014f576101005136600319011261014f5761010051546040516001600160a01b039091168152602090f35b3461014f57604036600319011261014f576004356001600160401b03811161014f573660238201121561014f5780600401356001600160401b03811161014f576024820191602436918360051b01011161014f576125a36126bc565b6125ab613ee3565b6101005190801515915b8381106125c3576101005180f35b6001906001600160a01b036125e16125dc83888a612850565b61288c565b1661010051528160205261260783604061010051209060ff801983541691151516179055565b818060a01b0361261b6125dc83888a612850565b167fad857fa38c9319cb80848f1ef2f924383b90297eb5d71755738ff037d100faa16020604051878152a2016125b5565b3461014f57602036600319011261014f57612665612692565b61266d613ee3565b6101005180546001600160a01b0319166001600160a01b039290921691909117815580f35b600435906001600160a01b03821682036122b857565b35906001600160a01b03821682036122b857565b6024359081151582036122b857565b9060068210156126d85752565b634e487b7160e01b600052602160045260246000fd5b906020808351928381520192019060005b81811061270c5750505090565b82516001600160a01b03168452602093840193909201916001016126ff565b906020808351928381520192019060005b8181106127495750505090565b825184526020938401939092019160010161273c565b9060058210156126d85752565b604081019081106001600160401b0382111761278757604052565b634e487b7160e01b600052604160045260246000fd5b606081019081106001600160401b0382111761278757604052565b61010081019081106001600160401b0382111761278757604052565b61016081019081106001600160401b0382111761278757604052565b90601f801991011681019081106001600160401b0382111761278757604052565b6001600160401b0381116127875760051b60200190565b6001600160401b03811161278757601f01601f191660200190565b90600f8210156126d85752565b91908110156128605760051b0190565b634e487b7160e01b600052603260045260246000fd5b6084356001600160a01b03811681036122b85790565b356001600160a01b03811681036122b85790565b604051906128ad8261279d565b606060408360008152600060208201520152565b51906001600160a01b03821682036122b857565b9080601f830112156122b85781516128ec81612811565b926128fa60405194856127f0565b81845260208085019260051b8201019283116122b857602001905b8282106129225750505090565b8151815260209182019101612915565b9190610160838203126122b8576040519061294c826127d4565b8193805183526020810151602084015260408101516040840152606081015160608401526080810151608084015260a081015160a084015260c081015160068110156122b85760c084015260e08101516001600160401b0381116122b857810182601f820112156122b8578051906129c382612811565b916129d160405193846127f0565b80835260208084019160051b830101918583116122b857602001905b828210612ac95750505060e08401526101008101516001600160401b0381116122b857810182601f820112156122b8578051612a2881612811565b91612a3660405193846127f0565b81835260208084019260051b820101908582116122b857602001915b818310612ab0575050506101008401526101208101516001600160401b0381116122b85782612a829183016128d5565b610120840152610140810151916001600160401b0383116122b85761014092612aab92016128d5565b910152565b825160058110156122b857815260209283019201612a52565b60208091612ad6846128c1565b8152019101906129ed565b906020828203126122b85781516001600160401b0381116122b857612b069201612932565b90565b60005b838110612b1c5750506000910152565b8181015183820152602001612b0c565b81601f820112156122b8578051612b4281612828565b92612b5060405194856127f0565b818452602082840101116122b857612b069160208085019101612b09565b6020818303126122b8578051906001600160401b0382116122b857016102e0818303126122b857604051916102e083018381106001600160401b0382111761278757604052815160068110156122b8578352602082015160058110156122b85760208401526040820151600f8110156122b85760408401526060820151600f8110156122b8576060840152612c05608083016128c1565b6080840152612c1660a083016128c1565b60a0840152612c2760c083016128c1565b60c0840152612c3860e083016128c1565b60e08401526101008201516101008401526101208201516101208401526101408201516101408401526101608201516101608401526101808201516101808401526101a08201516101a08401526101c08201516101c08401526101e08201516101e08401526102008201516001600160401b0381116122b85781612cbd918401612b2c565b6102008401526102208201516001600160401b0381116122b85781612ce3918401612b2c565b6102208401526102408201516001600160401b0381116122b857820181601f820112156122b857805190612d1682612811565b92612d2460405194856127f0565b828452602060608186019402830101918183116122b857602001925b828410612d855750505050906102c0916102408401526102608101516102608401526102808101516102808401526102a08101516102a084015201516102c082015290565b6060848303126122b8576020606091604051612da08161279d565b86518152828701518382015260408701516040820152815201930192612d40565b80518210156128605760209160051b010190565b60405190612de2826127d4565b60606101408360008152600060208201526000604082015260008382015260006080820152600060a0820152600060c08201528260e082015282610100820152826101208201520152565b519081151582036122b857565b90602091612e5381518092818552858086019101612b09565b601f01601f1916010190565b90612e6b8183516126cb565b612e7d6020830151602083019061275f565b612e8f60408301516040830190612843565b612ea160608301516060830190612843565b60018060a01b03608083015116608082015260018060a01b0360a08301511660a082015260018060a01b0360c08301511660c082015260018060a01b0360e08301511660e08201526101008201516101008201526101208201516101208201526101408201516101408201526101608201516101608201526101808201516101808201526101a08201516101a08201526101c08201516101c08201526101e08201516101e0820152612f7d612f696102008401516102e06102008501526102e0840190612e3a565b610220840151838203610220850152612e3a565b91610240810151928281036102408401526020808551928381520194019060005b818110612fd9575050506102c081610260829301516102608501526102808101516102808501526102a08101516102a0850152015191015290565b9091946020606060019260408951805183528481015185840152015160408201520196019101919091612f9e565b60058210156126d85752565b6001600160a01b039091168152602081019190915260400190565b91908260409103126122b857612b06602083519301612e2d565b90949360019360809360a084019784526020840152848060a01b0316604083015260608201520152565b9061307c82612811565b61308960405191826127f0565b828152809261309a601f1991612811565b0190602036910137565b6130ac613f55565b906130b56141ed565b906130be614006565b906130c7614064565b815160405163255709e560e11b815260048101919091529094909360009384866024816001600160a01b0387165afa958615613891578596613ec7575b506060860151600f811015613eb3576001600160a01b0388163b15613a7257604051633813abfb60e21b81529061313f906004830190612843565b600e602482015285816044816001600160a01b038c165afa8015613e9457613e9f575b5061316b612dd5565b5060018060a01b031694835196604051976384c2483160e01b8952600489015285886024818a5afa8015613e945786988791613e4a575b5060e081015160208201516001600160a01b03916131c09190612dc1565b511660208201519960e08301519960018060a01b0360c08a0151166040519063023770b560e01b82526004820152836024820152606060448201528a818061320b606482018b612e5f565b0381836001600160a01b038d165af18015613e3f578b9291839182918291613dab575b50613aa957506139215750505060c08701516001600160a01b03169081810361390c5750508551926020870151604088015194606089015160808a01519060a08b015160058110156138f85760018060a01b0360c08d015116946040519460e086018681106001600160401b038211176138e357906132d19392916040528652602086015260408501998a52606085019283526080850193845260a08501613007565b60c083019384526001600160a01b0387163b156138df57604051630a11fe0d60e31b815283516004820152602084015160248201529751604489015251606488015251608487015260a001518994869490939092613359926133379060a488019061275f565b516001600160a01b031660c486015261012060e4860152610124850190612e5f565b60031984820301610104850152815181526020820151602082015260408201516040820152606082015160608201526080820151608082015260a082015160a08201526133ae60c083015160c08301906126cb565b6133c960e083015161016060e08401526101608301906126ee565b6101008301519082810361010084015260208083519283815201920190875b8181106138b15750505082859392610140613415613427946101208897015184820361012086015261272b565b9201519061014081840391015261272b565b03916001600160a01b03165afa80156138915790859161389c575b505082516001600160a01b0383163b156137f0576040516346f32a5d60e11b815260048082019290925260248101919091528481604481836001600160a01b0388165af1801561389157908591613878575b505082516001600160a01b0382163b156137f057604051634e8eb8bd60e01b81526004810191909152600760248201524260448201529084908290606490829084906001600160a01b03165af1801561385857908491613863575b505060a0820151600581101561369b57606083015160405190602082019260f81b83526021820152602181526135266041826127f0565b5190208251906001600160a01b0383163b156137f057604051632ce88ccd60e11b8152600481019290925260248201528381604481836001600160a01b0387165af180156138585790849161383f575b5050815160a083015191600583101561382b576001600160a01b0381163b156137f0579160448592836135c4956040519687958694633703849360e21b86526004860152602485019061275f565b6001600160a01b03165af1801561374d57908391613816575b505060a081015160058110156138025760021415806137f4575b6136af575b805160a0600180821b0360c084015116920151600581101561369b5760207ffb7abe8d68d228f05b4f539f74f045a5c563aaf9a3c3d34d66ff8fb9ea37872791613649604051809261275f565ba36040516136586020826127f0565b81815260003681376040519361366d856127b8565b6001855282602086015260408501526004606085015260808401528060a084015260c083015260e082015290565b634e487b7160e01b84526021600452602484fd5b6001600160a01b036136bf61411f565b1681519060e0830151813b156137f057918491604051938492632e62671f60e21b84526044840190600485015260406024850152815180915260648401602060648360051b870101930191865b81811061375857505050508383809203925af1801561374d57908391613734575b50506135fc565b8161373e916127f0565b61374957813861372d565b5080fd5b6040513d85823e3d90fd5b9295509290939550606319878203018452845190815160028110156137dc576001928260209392849352848060a01b038383015116838201526040820151604082015260a0806137b7606085015160c0606086015260c0850190612e3a565b936080810151151560808501520151910152960194019101908694928996949261370c565b634e487b7160e01b8b52602160045260248bfd5b8480fd5b5060e08101515115156135f7565b634e487b7160e01b83526021600452602483fd5b81613820916127f0565b6137495781386135dd565b634e487b7160e01b85526021600452602485fd5b81613849916127f0565b613854578238613576565b8280fd5b6040513d86823e3d90fd5b8161386d916127f0565b6138545782386134ef565b81613882916127f0565b61388d578338613494565b8380fd5b6040513d87823e3d90fd5b816138a6916127f0565b61388d578338613442565b926020919496985082959750806138cc83926001955161275f565b0194019101908b969492889694926133e8565b8b80fd5b50634e487b7160e01b8f52604160045260248ffd5b634e487b7160e01b8d52602160045260248dfd5b631aac64ed60e11b8952600452602452604487fd5b9450955096935096985093825160018060a01b0382163b15613a81576040516346f32a5d60e11b81526004810191909152600260248201529089908290604490829084906001600160a01b03165af18015613a9e57908991613a85575b5050815194602085015195823b15613a81579184918a80946139b66040519a8b9687958694638858751360e01b865260048601613048565b03925af18015613a7657908786949392613a55575b50516001600160a01b03909116935060209284917fdc99cfbe28791090dedf7a8d6b75ed699ca8343725f901ad4bf7874b6c5c63e48980a4015160405191613a146020846127f0565b858352600036813760405195613a29876127b8565b865260208601526040850152600260608501526080840152600160a084015260c083015260e082015290565b80929450613a649193956127f0565b613a725783918391876139cb565b8580fd5b6040513d89823e3d90fd5b8980fd5b81613a8f916127f0565b613a9a57873861397e565b8780fd5b6040513d8b823e3d90fd5b9c505050505050505050505050929150613ac1613f55565b613ac96140c1565b613ad38351613072565b859290916001600160a01b039182169116835b8551811015613d1d57613af98187612dc1565b516040519063fbc6da7560e01b82526004820152602081602481875afa908115613a9e578991613cda575b506040613b5191613b35848a612dc1565b51825163910048fb60e01b815293849283929060048401613013565b03818c875af1908115613a9e578991613cba575b50613b73575b600101613ae6565b9387613b7f8688612dc1565b51843b1561374957604051906346f32a5d60e11b8252600482015260066024820152818160448183895af18015613c9a57613ca5575b506001600160a01b03613bc66141ed565b16613bd18789612dc1565b5190803b1561385457604051634e8eb8bd60e01b815260048101929092526005602483015242604483015282908290606490829084905af18015613c9a57613c85575b5050613c208587612dc1565b51613c2b8286612dc1565b526000198114613c7157600180910194613c458188612dc1565b517fb9f69df2250e1788b862d0715b1dad98b2a50311c017ebb71f6cd83de656b06d8a80a29050613b6b565b634e487b7160e01b88526011600452602488fd5b81613c8f916127f0565b613a9a578738613c14565b6040513d84823e3d90fd5b81613caf916127f0565b613a9a578738613bb5565b613cd2915060403d81116112435761123281836127f0565b905038613b65565b90506020813d8211613d15575b81613cf4602093836127f0565b81010312613d11576040613d0a613b51926128c1565b9150613b24565b8880fd5b3d9150613ce7565b50505092939150613d2d81613072565b92825b828110613d8c5750505060405190613d496020836127f0565b808252600036813760405192613d5e846127b8565b8184528160208501528160408501526006606085015260808401528060a084015260c083015260e082015290565b80613d9960019284612dc1565b51613da48288612dc1565b5201613d30565b94505050503d808c843e613dbf81846127f0565b820160a0838203126138df57613dd483612e2d565b90613de160208501612e2d565b91613dee604086016128c1565b9160608601516001600160401b038111613e3b5781613e0e9188016128d5565b956080810151906001600160401b038211613e3957613e2e9291016128d5565b50919093903861322e565b505b8f80fd5b6040513d8d823e3d90fd5b9850503d80878a3e613e5c818a6127f0565b8801604089820312613e90578851986020810151906001600160401b038211613d1157613e8a929101612932565b386131a2565b8680fd5b6040513d88823e3d90fd5b85613eac919692966127f0565b9338613162565b634e487b7160e01b86526021600452602486fd5b613edc9196503d8087833e6124ba81836127f0565b9438613104565b60008051602061427c833981519152546001600160a01b03163303613f0457565b63118cdaa760e01b6000523360045260246000fd5b600260008051602061429c8339815191525414613f4457600260008051602061429c83398151915255565b633ee5aeb560e01b60005260046000fd5b600054604051631bae711d60e21b815260206004820181905260126024830152712a3930b739b0b1ba34b7b726b0b730b3b2b960711b60448301529091829060649082906001600160a01b03165afa908115613ffa57600091613fc0575b506001600160a01b031690565b90506020813d602011613ff2575b81613fdb602093836127f0565b810103126122b857613fec906128c1565b38613fb3565b3d9150613fce565b6040513d6000823e3d90fd5b600054604051631bae711d60e21b81526020600482018190526006602483015265526f756e647360d01b60448301529091829060649082906001600160a01b03165afa908115613ffa57600091613fc057506001600160a01b031690565b600054604051631bae711d60e21b815260206004820181905260056024830152645574696c7360d81b60448301529091829060649082906001600160a01b03165afa908115613ffa57600091613fc057506001600160a01b031690565b600054604051631bae711d60e21b8152602060048201819052600660248301526551756575657360d01b60448301529091829060649082906001600160a01b03165afa908115613ffa57600091613fc057506001600160a01b031690565b600054604051631bae711d60e21b815260206004820181905260086024830152674d6573736167657360c01b60448301529091829060649082906001600160a01b03165afa908115613ffa57600091613fc057506001600160a01b031690565b6000805160206142dc83398151915280546001600160a01b031990811690915560008051602061427c83398151915280549182166001600160a01b0393841690811790915591167f8be0079c531659141344cd1fd0a4f28419497f9722a3daafe3b4186f6b6457e0600080a3565b600054604051631bae711d60e21b8152602060048201819052600860248301526749646c656e65737360c01b60448301529091829060649082906001600160a01b03165afa908115613ffa57600091613fc057506001600160a01b031690565b60ff6000805160206142bc8339815191525460401c161561426a57565b631afcd79f60e31b60005260046000fdfe9016d09d72d40fdae2fd8ceac6b6234c7706214fd39c1cd1e609a0528c1993009b779b17422d0df92223018b32b4d1fa46e071723d6817e2486d003becc55f00f0c57e16840df040f15088dc2f81fe391c3923bec73e23a9662efc9c229c6a00237e158222e3e6968b72b9db0d8043aacf074ad9f650f0d1606b4d82ee432c00a26469706673582212208e4c41e003f345dee6a18371c2c0582b43dad2092f19ef66f381f6e7602bf39564736f6c634300081c0033",
  "linkReferences": {},
  "deployedLinkReferences": {}
}