{
  "_format": "hh-sol-artifact-1",
  "contractName": "AddressManager",
  "sourceName": "contracts/AddressManager.sol",
  "abi": [
    {
      "inputs": [],
      "stateMutability": "nonpayable",
      "type": "constructor"
    },
    {
      "inputs": [],
      "name": "ArrayLengthMismatch",
      "type": "error"
    },
    {
      "inputs": [],
      "name": "InvalidInitialization",
      "type": "error"
    },
    {
      "inputs": [],
      "name": "NotInitializing",
      "type": "error"
    },
    {
      "inputs": [
        {
          "internalType": "address",
          "name": "owner",
          "type": "address"
        }
      ],
      "name": "OwnableInvalidOwner",
      "type": "error"
    },
    {
      "inputs": [
        {
          "internalType": "address",
          "name": "account",
          "type": "address"
        }
      ],
      "name": "OwnableUnauthorizedAccount",
      "type": "error"
    },
    {
      "inputs": [
        {
          "internalType": "string",
          "name": "key",
          "type": "string"
        }
      ],
      "name": "ZeroAddress",
      "type": "error"
    },
    {
      "anonymous": false,
      "inputs": [
        {
          "indexed": true,
          "internalType": "string",
          "name": "key",
          "type": "string"
        },
        {
          "indexed": true,
          "internalType": "address",
          "name": "oldAddr",
          "type": "address"
        },
        {
          "indexed": true,
          "internalType": "address",
          "name": "newAddr",
          "type": "address"
        }
      ],
      "name": "AddressUpdated",
      "type": "event"
    },
    {
      "anonymous": false,
      "inputs": [
        {
          "indexed": false,
          "internalType": "uint64",
          "name": "version",
          "type": "uint64"
        }
      ],
      "name": "Initialized",
      "type": "event"
    },
    {
      "anonymous": false,
      "inputs": [
        {
          "indexed": true,
          "internalType": "address",
          "name": "previousOwner",
          "type": "address"
        },
        {
          "indexed": true,
          "internalType": "address",
          "name": "newOwner",
          "type": "address"
        }
      ],
      "name": "OwnershipTransferStarted",
      "type": "event"
    },
    {
      "anonymous": false,
      "inputs": [
        {
          "indexed": true,
          "internalType": "address",
          "name": "previousOwner",
          "type": "address"
        },
        {
          "indexed": true,
          "internalType": "address",
          "name": "newOwner",
          "type": "address"
        }
      ],
      "name": "OwnershipTransferred",
      "type": "event"
    },
    {
      "inputs": [],
      "name": "acceptOwnership",
      "outputs": [],
      "stateMutability": "nonpayable",
      "type": "function"
    },
    {
      "inputs": [
        {
          "internalType": "string",
          "name": "",
          "type": "string"
        }
      ],
      "name": "addressBook",
      "outputs": [
        {
          "internalType": "address",
          "name": "",
          "type": "address"
        }
      ],
      "stateMutability": "view",
      "type": "function"
    },
    {
      "inputs": [
        {
          "internalType": "string",
          "name": "key",
          "type": "string"
        }
      ],
      "name": "getAddress",
      "outputs": [
        {
          "internalType": "address",
          "name": "",
          "type": "address"
        }
      ],
      "stateMutability": "view",
      "type": "function"
    },
    {
      "inputs": [
        {
          "internalType": "string",
          "name": "key",
          "type": "string"
        }
      ],
      "name": "getAddressNonZero",
      "outputs": [
        {
          "internalType": "address",
          "name": "addr",
          "type": "address"
        }
      ],
      "stateMutability": "view",
      "type": "function"
    },
    {
      "inputs": [],
      "name": "getAllContractAddresses",
      "outputs": [
        {
          "components": [
            {
              "internalType": "string",
              "name": "key",
              "type": "string"
            },
            {
              "internalType": "address",
              "name": "addr",
              "type": "address"
            }
          ],
          "internalType": "struct IAddressManager.ContractInfo[]",
          "name": "result",
          "type": "tuple[]"
        }
      ],
      "stateMutability": "view",
      "type": "function"
    },
    {
      "inputs": [],
      "name": "getContractKeyCount",
      "outputs": [
        {
          "internalType": "uint256",
          "name": "",
          "type": "uint256"
        }
      ],
      "stateMutability": "view",
      "type": "function"
    },
    {
      "inputs": [],
      "name": "initialize",
      "outputs": [],
      "stateMutability": "nonpayable",
      "type": "function"
    },
    {
      "inputs": [],
      "name": "owner",
      "outputs": [
        {
          "internalType": "address",
          "name": "",
          "type": "address"
        }
      ],
      "stateMutability": "view",
      "type": "function"
    },
    {
      "inputs": [],
      "name": "pendingOwner",
      "outputs": [
        {
          "internalType": "address",
          "name": "",
          "type": "address"
        }
      ],
      "stateMutability": "view",
      "type": "function"
    },
    {
      "inputs": [],
      "name": "renounceOwnership",
      "outputs": [],
      "stateMutability": "nonpayable",
      "type": "function"
    },
    {
      "inputs": [
        {
          "internalType": "string",
          "name": "key",
          "type": "string"
        },
        {
          "internalType": "address",
          "name": "addr",
          "type": "address"
        }
      ],
      "name": "setAddress",
      "outputs": [],
      "stateMutability": "nonpayable",
      "type": "function"
    },
    {
      "inputs": [
        {
          "internalType": "string[]",
          "name": "keys",
          "type": "string[]"
        },
        {
          "internalType": "address[]",
          "name": "addrs",
          "type": "address[]"
        }
      ],
      "name": "setAddresses",
      "outputs": [],
      "stateMutability": "nonpayable",
      "type": "function"
    },
    {
      "inputs": [
        {
          "internalType": "address",
          "name": "newOwner",
          "type": "address"
        }
      ],
      "name": "transferOwnership",
      "outputs": [],
      "stateMutability": "nonpayable",
      "type": "function"
    }
  ],
  "bytecode": "0x6080806040523460d2577ff0c57e16840df040f15088dc2f81fe391c3923bec73e23a9662efc9c229c6a005460ff8160401c1660c1576002600160401b03196001600160401b03821601605c575b604051610fb390816100d88239f35b6001600160401b0319166001600160401b039081177ff0c57e16840df040f15088dc2f81fe391c3923bec73e23a9662efc9c229c6a005581527fc7f505b2f371ae2175ee4913f4499e1f2633a7b5936321eed1cdaeb6115181d290602090a13880604d565b63f92ee8a960e01b60005260046000fd5b600080fdfe6080604052600436101561001257600080fd5b60003560e01c80633b33b61a146108ae5780636eb9c4741461080e578063715018a61461078d57806379ba50971461073b5780637d69a892146105735780638129fc1c146104095780638da5cb5b146103d35780639b2ea4bd146102b4578063bc88420c14610296578063bf40fac114610239578063e30c397814610203578063eef411731461013d5763f2fde38b146100ab57600080fd5b34610138576020366003190112610138576004356001600160a01b03811690819003610138576100d9610e60565b600080516020610f5e83398151915280546001600160a01b03191682179055600080516020610f1e833981519152546001600160a01b03167f38d16b8cac22d99fc7c124b9cd0de2d3fa1faef420bfe791d8c362d765e22700600080a3005b600080fd5b34610138576020366003190112610138576004356001600160401b03811161013857366023820112156101385780600401356001600160401b0381116101ed57604051610194601f8301601f191660200182610bca565b818152602081019136602482860101116101385760208160009260248397018637830101526101cb60405192839251928391610b2f565b600090820190815281900382019020546040516001600160a01b039091168152f35b634e487b7160e01b600052604160045260246000fd5b3461013857600036600319011261013857600080516020610f5e833981519152546040516001600160a01b039091168152602090f35b34610138576020366003190112610138576004356001600160401b03811161013857602061026c81923690600401610b52565b9190826040519384928337600090820190815203019020546040516001600160a01b039091168152f35b34610138576000366003190112610138576020600154604051908152f35b34610138576040366003190112610138576004356001600160401b038111610138576102e4903690600401610b52565b6024356001600160a01b03811692919083900361013857610303610e60565b60405181838237818101906000825260208160018060a01b039303019020541691604051828282376000838201908152819003602001902080546001600160a01b0319168517905560405160ff908383823760208185810160028152030190205416156103a4575b8160405192839283378101600081520390207f7878dffb4ada647885186a00ea129964d140835f125808ba48b1f3974b5f8189600080a4005b604051828282376020818481016002815203019020600160ff198254161790556103ce8282610ce6565b61036b565b3461013857600036600319011261013857600080516020610f1e833981519152546040516001600160a01b039091168152602090f35b3461013857600036600319011261013857600080516020610f3e8339815191525460ff8160401c1615906001600160401b0381168015908161056b575b6001149081610561575b159081610558575b506105475767ffffffffffffffff198116600117600080516020610f3e833981519152558161051a575b5061048b610eef565b610493610eef565b61049b610eef565b3315610504576104aa33610e81565b6104b057005b60ff60401b19600080516020610f3e8339815191525416600080516020610f3e833981519152557fc7f505b2f371ae2175ee4913f4499e1f2633a7b5936321eed1cdaeb6115181d2602060405160018152a1005b631e4fbdf760e01b600052600060045260246000fd5b68ffffffffffffffffff19166801000000000000000117600080516020610f3e8339815191525581610482565b63f92ee8a960e01b60005260046000fd5b90501583610458565b303b159150610450565b839150610446565b34610138576040366003190112610138576004356001600160401b038111610138576105a3903690600401610b7f565b906024356001600160401b038111610138576105c3903690600401610b7f565b916105cc610e60565b82840361072a5760005b8481106105df57005b806105ed6001928785610c81565b8060405192833781019060008252602081858060a01b039303019020541661061e610619838888610cc2565b610cd2565b602061062b848a88610c81565b91908260405193849283378101600081520301902090848060a01b0316848060a01b031982541617905560ff6020610664848a88610c81565b9190826040519384928337810160028152030190205416156106e5575b61068c828886610c81565b61069d610619858a8a969596610cc2565b926000826040519384938437820190815203902091848060a01b0316917f7878dffb4ada647885186a00ea129964d140835f125808ba48b1f3974b5f8189600080a4016105d6565b60206106f2838987610c81565b9190826040519384928337810160028152030190208360ff1982541617905561072561071f838987610c81565b90610ce6565b610681565b63512509d360e11b60005260046000fd5b3461013857600036600319011261013857600080516020610f5e83398151915254336001600160a01b03909116036107785761077633610e81565b005b63118cdaa760e01b6000523360045260246000fd5b34610138576000366003190112610138576107a6610e60565b600080516020610f5e83398151915280546001600160a01b0319908116909155600080516020610f1e833981519152805491821690556000906001600160a01b03167f8be0079c531659141344cd1fd0a4f28419497f9722a3daafe3b4186f6b6457e08280a3005b34610138576020366003190112610138576004356001600160401b0381116101385761083e903690600401610b52565b906040518282823760008184019081528190036020019020546001600160a01b031690811561087257602082604051908152f35b604491508260405193849263eac0d38960e01b845260206004850152816024850152848401376000828201840152601f01601f19168101030190fd5b34610138576000366003190112610138576001546108cb81610beb565b906108d96040519283610bca565b808252601f196108e882610beb565b0160005b818110610b0a5750506000905b80821061099957826040518091602082016020835281518091526040830190602060408260051b8601019301916000905b82821061093957505050500390f35b9193600191939550602060608192603f198a820301865288518051906040835261097182518093816040870152878787019101610b2f565b84878060a01b039101511684830152601f80199101160101960192019201859493919261092a565b6109a282610c02565b50916109ad81610c02565b5060405181546000926109bf82610c33565b9160018116908115610af35750600114610abc575b50506000825290819003602001902054604051906001600160a01b03166109fa82610baf565b60405194600090805490610a0d82610c33565b8089529160018116908115610a955750600114610a5b575b505094610a3781600196970382610bca565b82526020820152610a488286610c6d565b52610a538185610c6d565b5001906108f9565b6000908152602081209092505b818310610a7f5750508501602001610a3786610a25565b6001816020925483868c01015201920191610a68565b60ff19166020808b019190915292151560051b89019092019250610a379150879050610a25565b9091925060005260206000206000905b828210610adf57505081019086806109d4565b600181602092548487015201910190610acc565b60ff191684525050801515028101915086806109d4565b602090604051610b1981610baf565b60608152600083820152828287010152016108ec565b60005b838110610b425750506000910152565b8181015183820152602001610b32565b9181601f84011215610138578235916001600160401b038311610138576020838186019501011161013857565b9181601f84011215610138578235916001600160401b038311610138576020808501948460051b01011161013857565b604081019081106001600160401b038211176101ed57604052565b90601f801991011681019081106001600160401b038211176101ed57604052565b6001600160401b0381116101ed5760051b60200190565b600154811015610c1d57600160005260206000200190600090565b634e487b7160e01b600052603260045260246000fd5b90600182811c92168015610c63575b6020831014610c4d57565b634e487b7160e01b600052602260045260246000fd5b91607f1691610c42565b8051821015610c1d5760209160051b010190565b9190811015610c1d5760051b81013590601e19813603018212156101385701908135916001600160401b038311610138576020018236038113610138579190565b9190811015610c1d5760051b0190565b356001600160a01b03811681036101385790565b9190600154600160401b8110156101ed57600181016001556000600154821015610e4c57600190526000937fb10e2d527612073b26eecdfd717e6a320cf44b4afac2b0732d9fcbe2b7fa0cf69190910191906001600160401b038211610e3857610d508354610c33565b601f8111610df3575b5084601f8311600114610d935790829394959192610d88575b50508160011b916000199060031b1c1916179055565b013590503880610d72565b90601f1983169584835260208320925b878110610ddb575083600195969710610dc1575b505050811b019055565b0135600019600384901b60f8161c19169055388080610db7565b90926020600181928686013581550194019101610da3565b83865260208620601f840160051c81019160208510610e2e575b601f0160051c01905b818110610e235750610d59565b868155600101610e16565b9091508190610e0d565b634e487b7160e01b85526041600452602485fd5b634e487b7160e01b81526032600452602490fd5b600080516020610f1e833981519152546001600160a01b0316330361077857565b600080516020610f5e83398151915280546001600160a01b0319908116909155600080516020610f1e83398151915280549182166001600160a01b0393841690811790915591167f8be0079c531659141344cd1fd0a4f28419497f9722a3daafe3b4186f6b6457e0600080a3565b60ff600080516020610f3e8339815191525460401c1615610f0c57565b631afcd79f60e31b60005260046000fdfe9016d09d72d40fdae2fd8ceac6b6234c7706214fd39c1cd1e609a0528c199300f0c57e16840df040f15088dc2f81fe391c3923bec73e23a9662efc9c229c6a00237e158222e3e6968b72b9db0d8043aacf074ad9f650f0d1606b4d82ee432c00a26469706673582212204608ba16ecfd4043774c236ee85a92dac34d3a7943e20e2ef6a2684b3d1e0a9864736f6c634300081c0033",
  "linkReferences": {},
  "deployedLinkReferences": {}
}