{
  "_format": "hh-sol-artifact-1",
  "contractName": "MockTransactionsForFinalization",
  "sourceName": "contracts/test-helpers/MockTransactionsForFinalization.sol",
  "abi": [
    {
      "inputs": [],
      "name": "lastProcessIdlenessTxId",
      "outputs": [
        {
          "internalType": "bytes32",
          "name": "",
          "type": "bytes32"
        }
      ],
      "stateMutability": "view",
      "type": "function"
    },
    {
      "inputs": [
        {
          "internalType": "uint256",
          "name": "",
          "type": "uint256"
        }
      ],
      "name": "mockExpiredTxIds",
      "outputs": [
        {
          "internalType": "bytes32",
          "name": "",
          "type": "bytes32"
        }
      ],
      "stateMutability": "view",
      "type": "function"
    },
    {
      "inputs": [],
      "name": "mockNewLeader",
      "outputs": [
        {
          "internalType": "address",
          "name": "",
          "type": "address"
        }
      ],
      "stateMutability": "view",
      "type": "function"
    },
    {
      "inputs": [],
      "name": "mockNewStatus",
      "outputs": [
        {
          "internalType": "enum ITransactions.TransactionStatus",
          "name": "",
          "type": "uint8"
        }
      ],
      "stateMutability": "view",
      "type": "function"
    },
    {
      "inputs": [],
      "name": "mockOldLeader",
      "outputs": [
        {
          "internalType": "address",
          "name": "",
          "type": "address"
        }
      ],
      "stateMutability": "view",
      "type": "function"
    },
    {
      "inputs": [],
      "name": "mockPreviousStatus",
      "outputs": [
        {
          "internalType": "enum ITransactions.TransactionStatus",
          "name": "",
          "type": "uint8"
        }
      ],
      "stateMutability": "view",
      "type": "function"
    },
    {
      "inputs": [],
      "name": "mockRecipient",
      "outputs": [
        {
          "internalType": "address",
          "name": "",
          "type": "address"
        }
      ],
      "stateMutability": "view",
      "type": "function"
    },
    {
      "inputs": [
        {
          "internalType": "uint256",
          "name": "",
          "type": "uint256"
        }
      ],
      "name": "mockUndeterminedTxIds",
      "outputs": [
        {
          "internalType": "bytes32",
          "name": "",
          "type": "bytes32"
        }
      ],
      "stateMutability": "view",
      "type": "function"
    },
    {
      "inputs": [
        {
          "internalType": "bytes32",
          "name": "_txId",
          "type": "bytes32"
        }
      ],
      "name": "processIdleness",
      "outputs": [
        {
          "internalType": "enum ITransactions.TransactionStatus",
          "name": "newStatus",
          "type": "uint8"
        },
        {
          "internalType": "enum ITransactions.TransactionStatus",
          "name": "previousStatus",
          "type": "uint8"
        },
        {
          "internalType": "address",
          "name": "recipient",
          "type": "address"
        },
        {
          "internalType": "address",
          "name": "oldLeader",
          "type": "address"
        },
        {
          "internalType": "address",
          "name": "newLeader",
          "type": "address"
        },
        {
          "internalType": "bytes32[]",
          "name": "undeterminedTxIds",
          "type": "bytes32[]"
        },
        {
          "internalType": "bytes32[]",
          "name": "expiredTxIds",
          "type": "bytes32[]"
        }
      ],
      "stateMutability": "nonpayable",
      "type": "function"
    },
    {
      "inputs": [],
      "name": "processIdlenessCalled",
      "outputs": [
        {
          "internalType": "bool",
          "name": "",
          "type": "bool"
        }
      ],
      "stateMutability": "view",
      "type": "function"
    },
    {
      "inputs": [],
      "name": "resetProcessIdlenessTracking",
      "outputs": [],
      "stateMutability": "nonpayable",
      "type": "function"
    },
    {
      "inputs": [
        {
          "internalType": "enum ITransactions.TransactionStatus",
          "name": "_newStatus",
          "type": "uint8"
        },
        {
          "internalType": "enum ITransactions.TransactionStatus",
          "name": "_previousStatus",
          "type": "uint8"
        },
        {
          "internalType": "address",
          "name": "_recipient",
          "type": "address"
        },
        {
          "internalType": "address",
          "name": "_oldLeader",
          "type": "address"
        },
        {
          "internalType": "address",
          "name": "_newLeader",
          "type": "address"
        },
        {
          "internalType": "bytes32[]",
          "name": "_undeterminedTxIds",
          "type": "bytes32[]"
        },
        {
          "internalType": "bytes32[]",
          "name": "_expiredTxIds",
          "type": "bytes32[]"
        }
      ],
      "name": "setMockProcessIdlenessResult",
      "outputs": [],
      "stateMutability": "nonpayable",
      "type": "function"
    }
  ],
  "bytecode": "0x60808060405234601557610765908161001b8239f35b600080fdfe608080604052600436101561001357600080fd5b60003560e01c9081632ee17cff146106145750806339fd0483146105f157806341dd44dc146105c457806368d654db146105a25780638c3bc53d14610584578063990dd3e51461055b578063c7e6e7661461041d578063d2e5dfa7146103df578063dc2b5385146103b9578063e0cace0114610125578063ed4933df146100d35763f38aeec8146100a357600080fd5b346100ce5760003660031901126100ce57602060ff60005460081c166100cc6040518092610638565bf35b600080fd5b346100ce5760203660031901126100ce576004356004548110156100ce57600090600454811015610111576020826004829452200154604051908152f35b634e487b7160e01b82526032600452602482fd5b346100ce5760e03660031901126100ce57600435600f8110156100ce57602435600f8110156100ce57604435916001600160a01b03831683036100ce576064356001600160a01b038116908190036100ce576084356001600160a01b03811691908290036100ce5760a43567ffffffffffffffff81116100ce576101ad9036906004016106c7565b9260c43567ffffffffffffffff81116100ce576101ce9036906004016106c7565b9461ff0060009760ff89549162010000600160b01b039060101b1694169060018060b01b031916179160081b161717855560018060a01b0319600154161760015560018060a01b0319600254161760025580519067ffffffffffffffff82116103a557600160401b82116103a55760035482600355808310610361575b50600384526020017fc2575a0e9e593c00f959f8c92f12db2869c3395a3b0502d05e2516446f71f85b845b83811061034d57858580519067ffffffffffffffff821161033957600160401b821161033957600454826004558083106102f5575b50600483526020017f8a35acfbc15ff81a39ae7d344fd709f28e8600b4aa8c65c6b64bfe7fe36bd19b835b8381106102e1578480f35b6001906020845194019381840155016102d6565b600484527f8a35acfbc15ff81a39ae7d344fd709f28e8600b4aa8c65c6b64bfe7fe36bd19b9081019083015b81811061032e57506102ab565b848155600101610321565b634e487b7160e01b83526041600452602483fd5b600190602084519401938184015501610276565b600385527fc2575a0e9e593c00f959f8c92f12db2869c3395a3b0502d05e2516446f71f85b9081019083015b81811061039a575061024b565b85815560010161038d565b634e487b7160e01b84526041600452602484fd5b346100ce5760003660031901126100ce57602060ff600054166100cc6040518092610638565b346100ce5760203660031901126100ce576004356003548110156100ce57600090600354811015610111576020826003829452200154604051908152f35b346100ce5760203660031901126100ce57600160ff19600554161760055560043560065560005460018060a01b03600154169060018060a01b03600254166040516003548082528160208101600360005260206000209260005b81811061054257505061048c9250038261068f565b604051916004548084526020840190600460005260206000209060005b81811061052c575050509161051a916104c8856105289695038561068f565b60405196866104db8960ff819a16610638565b6104ee6020890160ff8360081c16610638565b60101c6001600160a01b031660408801526060870152608086015260e060a0860181905285019061065b565b9083820360c085015261065b565b0390f35b82548452602090930192600192830192016104a9565b8454835260019485019486945060209093019201610477565b346100ce5760003660031901126100ce576002546040516001600160a01b039091168152602090f35b346100ce5760003660031901126100ce576020600654604051908152f35b346100ce5760003660031901126100ce576005805460ff191690556000600655005b346100ce5760003660031901126100ce5760005460405160109190911c6001600160a01b03168152602090f35b346100ce5760003660031901126100ce57602060ff600554166040519015158152f35b346100ce5760003660031901126100ce576001546001600160a01b03168152602090f35b90600f8210156106455752565b634e487b7160e01b600052602160045260246000fd5b906020808351928381520192019060005b8181106106795750505090565b825184526020938401939092019160010161066c565b90601f8019910116810190811067ffffffffffffffff8211176106b157604052565b634e487b7160e01b600052604160045260246000fd5b9080601f830112156100ce5781359167ffffffffffffffff83116106b1578260051b90604051936106fb602084018661068f565b84526020808501928201019283116100ce57602001905b82821061071f5750505090565b813581526020918201910161071256fea2646970667358221220b62086881d648cb47f5d123568ab4fb22873dd6a4562697739c9abb285a7576e64736f6c634300081c0033",
  "linkReferences": {},
  "deployedLinkReferences": {}
}