{
  "_format": "hh-sol-artifact-1",
  "contractName": "Staking",
  "sourceName": "contracts/Staking.sol",
  "abi": [
    {
      "inputs": [],
      "name": "AccessControlBadConfirmation",
      "type": "error"
    },
    {
      "inputs": [
        {
          "internalType": "address",
          "name": "account",
          "type": "address"
        },
        {
          "internalType": "bytes32",
          "name": "neededRole",
          "type": "bytes32"
        }
      ],
      "name": "AccessControlUnauthorizedAccount",
      "type": "error"
    },
    {
      "inputs": [],
      "name": "ArrayLengthMismatch",
      "type": "error"
    },
    {
      "inputs": [
        {
          "internalType": "bytes4",
          "name": "selector",
          "type": "bytes4"
        }
      ],
      "name": "FunctionNotFound",
      "type": "error"
    },
    {
      "inputs": [],
      "name": "InvalidInitialization",
      "type": "error"
    },
    {
      "inputs": [],
      "name": "NotInitializing",
      "type": "error"
    },
    {
      "inputs": [
        {
          "internalType": "address",
          "name": "owner",
          "type": "address"
        }
      ],
      "name": "OwnableInvalidOwner",
      "type": "error"
    },
    {
      "inputs": [
        {
          "internalType": "address",
          "name": "account",
          "type": "address"
        }
      ],
      "name": "OwnableUnauthorizedAccount",
      "type": "error"
    },
    {
      "inputs": [],
      "name": "ReentrancyGuardReentrantCall",
      "type": "error"
    },
    {
      "anonymous": false,
      "inputs": [
        {
          "indexed": true,
          "internalType": "bytes4",
          "name": "selector",
          "type": "bytes4"
        },
        {
          "indexed": false,
          "internalType": "address",
          "name": "facet",
          "type": "address"
        }
      ],
      "name": "FacetSet",
      "type": "event"
    },
    {
      "anonymous": false,
      "inputs": [
        {
          "indexed": true,
          "internalType": "address",
          "name": "sender",
          "type": "address"
        },
        {
          "indexed": false,
          "internalType": "uint256",
          "name": "amount",
          "type": "uint256"
        }
      ],
      "name": "FeesReceived",
      "type": "event"
    },
    {
      "anonymous": false,
      "inputs": [
        {
          "indexed": false,
          "internalType": "uint64",
          "name": "version",
          "type": "uint64"
        }
      ],
      "name": "Initialized",
      "type": "event"
    },
    {
      "anonymous": false,
      "inputs": [
        {
          "indexed": true,
          "internalType": "address",
          "name": "previousOwner",
          "type": "address"
        },
        {
          "indexed": true,
          "internalType": "address",
          "name": "newOwner",
          "type": "address"
        }
      ],
      "name": "OwnershipTransferStarted",
      "type": "event"
    },
    {
      "anonymous": false,
      "inputs": [
        {
          "indexed": true,
          "internalType": "address",
          "name": "previousOwner",
          "type": "address"
        },
        {
          "indexed": true,
          "internalType": "address",
          "name": "newOwner",
          "type": "address"
        }
      ],
      "name": "OwnershipTransferred",
      "type": "event"
    },
    {
      "anonymous": false,
      "inputs": [
        {
          "indexed": true,
          "internalType": "bytes32",
          "name": "role",
          "type": "bytes32"
        },
        {
          "indexed": true,
          "internalType": "bytes32",
          "name": "previousAdminRole",
          "type": "bytes32"
        },
        {
          "indexed": true,
          "internalType": "bytes32",
          "name": "newAdminRole",
          "type": "bytes32"
        }
      ],
      "name": "RoleAdminChanged",
      "type": "event"
    },
    {
      "anonymous": false,
      "inputs": [
        {
          "indexed": true,
          "internalType": "bytes32",
          "name": "role",
          "type": "bytes32"
        },
        {
          "indexed": true,
          "internalType": "address",
          "name": "account",
          "type": "address"
        },
        {
          "indexed": true,
          "internalType": "address",
          "name": "sender",
          "type": "address"
        }
      ],
      "name": "RoleGranted",
      "type": "event"
    },
    {
      "anonymous": false,
      "inputs": [
        {
          "indexed": true,
          "internalType": "bytes32",
          "name": "role",
          "type": "bytes32"
        },
        {
          "indexed": true,
          "internalType": "address",
          "name": "account",
          "type": "address"
        },
        {
          "indexed": true,
          "internalType": "address",
          "name": "sender",
          "type": "address"
        }
      ],
      "name": "RoleRevoked",
      "type": "event"
    },
    {
      "stateMutability": "payable",
      "type": "fallback"
    },
    {
      "inputs": [],
      "name": "DEFAULT_ADMIN_ROLE",
      "outputs": [
        {
          "internalType": "bytes32",
          "name": "",
          "type": "bytes32"
        }
      ],
      "stateMutability": "view",
      "type": "function"
    },
    {
      "inputs": [],
      "name": "DEFAULT_DELEGATOR_MIN_STAKE",
      "outputs": [
        {
          "internalType": "uint256",
          "name": "",
          "type": "uint256"
        }
      ],
      "stateMutability": "view",
      "type": "function"
    },
    {
      "inputs": [],
      "name": "DEFAULT_VALIDATOR_MIN_STAKE",
      "outputs": [
        {
          "internalType": "uint256",
          "name": "",
          "type": "uint256"
        }
      ],
      "stateMutability": "view",
      "type": "function"
    },
    {
      "inputs": [],
      "name": "DELEGATOR_UNBONDING_PERIOD",
      "outputs": [
        {
          "internalType": "uint256",
          "name": "",
          "type": "uint256"
        }
      ],
      "stateMutability": "view",
      "type": "function"
    },
    {
      "inputs": [],
      "name": "INFLATION_BASE",
      "outputs": [
        {
          "internalType": "uint256",
          "name": "",
          "type": "uint256"
        }
      ],
      "stateMutability": "view",
      "type": "function"
    },
    {
      "inputs": [],
      "name": "INFLATION_DEEPTHOUGHT_BPS",
      "outputs": [
        {
          "internalType": "uint256",
          "name": "",
          "type": "uint256"
        }
      ],
      "stateMutability": "view",
      "type": "function"
    },
    {
      "inputs": [],
      "name": "INFLATION_DEVELOPER_BPS",
      "outputs": [
        {
          "internalType": "uint256",
          "name": "",
          "type": "uint256"
        }
      ],
      "stateMutability": "view",
      "type": "function"
    },
    {
      "inputs": [],
      "name": "INFLATION_FINAL",
      "outputs": [
        {
          "internalType": "uint256",
          "name": "",
          "type": "uint256"
        }
      ],
      "stateMutability": "view",
      "type": "function"
    },
    {
      "inputs": [],
      "name": "INFLATION_INITIAL",
      "outputs": [
        {
          "internalType": "uint256",
          "name": "",
          "type": "uint256"
        }
      ],
      "stateMutability": "view",
      "type": "function"
    },
    {
      "inputs": [],
      "name": "INFLATION_MID",
      "outputs": [
        {
          "internalType": "int256",
          "name": "",
          "type": "int256"
        }
      ],
      "stateMutability": "view",
      "type": "function"
    },
    {
      "inputs": [],
      "name": "INFLATION_STAKER_BPS",
      "outputs": [
        {
          "internalType": "uint256",
          "name": "",
          "type": "uint256"
        }
      ],
      "stateMutability": "view",
      "type": "function"
    },
    {
      "inputs": [],
      "name": "INFLATION_STEEPNESS",
      "outputs": [
        {
          "internalType": "int256",
          "name": "",
          "type": "int256"
        }
      ],
      "stateMutability": "view",
      "type": "function"
    },
    {
      "inputs": [],
      "name": "INFLATION_VALIDATOR_BPS",
      "outputs": [
        {
          "internalType": "uint256",
          "name": "",
          "type": "uint256"
        }
      ],
      "stateMutability": "view",
      "type": "function"
    },
    {
      "inputs": [],
      "name": "L1_MESSENGER",
      "outputs": [
        {
          "internalType": "contract IL1Messenger",
          "name": "",
          "type": "address"
        }
      ],
      "stateMutability": "view",
      "type": "function"
    },
    {
      "inputs": [],
      "name": "QUARANTINE_MANAGER_ROLE",
      "outputs": [
        {
          "internalType": "bytes32",
          "name": "",
          "type": "bytes32"
        }
      ],
      "stateMutability": "view",
      "type": "function"
    },
    {
      "inputs": [],
      "name": "SLASH_CALLER_INCENTIVE_BPS",
      "outputs": [
        {
          "internalType": "uint256",
          "name": "",
          "type": "uint256"
        }
      ],
      "stateMutability": "view",
      "type": "function"
    },
    {
      "inputs": [],
      "name": "VALIDATOR_UNBONDING_PERIOD",
      "outputs": [
        {
          "internalType": "uint256",
          "name": "",
          "type": "uint256"
        }
      ],
      "stateMutability": "view",
      "type": "function"
    },
    {
      "inputs": [],
      "name": "acceptOwnership",
      "outputs": [],
      "stateMutability": "nonpayable",
      "type": "function"
    },
    {
      "inputs": [],
      "name": "addressManager",
      "outputs": [
        {
          "internalType": "contract IAddressManager",
          "name": "",
          "type": "address"
        }
      ],
      "stateMutability": "view",
      "type": "function"
    },
    {
      "inputs": [],
      "name": "burning",
      "outputs": [
        {
          "internalType": "uint256",
          "name": "",
          "type": "uint256"
        }
      ],
      "stateMutability": "view",
      "type": "function"
    },
    {
      "inputs": [],
      "name": "deepthought",
      "outputs": [
        {
          "internalType": "address payable",
          "name": "",
          "type": "address"
        }
      ],
      "stateMutability": "view",
      "type": "function"
    },
    {
      "inputs": [],
      "name": "delegatorMinStake",
      "outputs": [
        {
          "internalType": "uint256",
          "name": "",
          "type": "uint256"
        }
      ],
      "stateMutability": "view",
      "type": "function"
    },
    {
      "inputs": [],
      "name": "epoch",
      "outputs": [
        {
          "internalType": "uint256",
          "name": "",
          "type": "uint256"
        }
      ],
      "stateMutability": "view",
      "type": "function"
    },
    {
      "inputs": [],
      "name": "epochEven",
      "outputs": [
        {
          "internalType": "uint256",
          "name": "start",
          "type": "uint256"
        },
        {
          "internalType": "uint256",
          "name": "end",
          "type": "uint256"
        },
        {
          "internalType": "uint256",
          "name": "inflation",
          "type": "uint256"
        },
        {
          "internalType": "uint256",
          "name": "weight",
          "type": "uint256"
        },
        {
          "internalType": "uint256",
          "name": "weightDeposit",
          "type": "uint256"
        },
        {
          "internalType": "uint256",
          "name": "weightWithdrawal",
          "type": "uint256"
        },
        {
          "internalType": "uint256",
          "name": "vcount",
          "type": "uint256"
        },
        {
          "internalType": "uint256",
          "name": "claimed",
          "type": "uint256"
        },
        {
          "internalType": "uint256",
          "name": "stakeDeposit",
          "type": "uint256"
        },
        {
          "internalType": "uint256",
          "name": "stakeWithdrawal",
          "type": "uint256"
        },
        {
          "internalType": "uint256",
          "name": "slashed",
          "type": "uint256"
        }
      ],
      "stateMutability": "view",
      "type": "function"
    },
    {
      "inputs": [],
      "name": "epochExtraMinDuration",
      "outputs": [
        {
          "internalType": "uint256",
          "name": "",
          "type": "uint256"
        }
      ],
      "stateMutability": "view",
      "type": "function"
    },
    {
      "inputs": [],
      "name": "epochMinDuration",
      "outputs": [
        {
          "internalType": "uint256",
          "name": "",
          "type": "uint256"
        }
      ],
      "stateMutability": "view",
      "type": "function"
    },
    {
      "inputs": [],
      "name": "epochMinDurationThreshold",
      "outputs": [
        {
          "internalType": "uint256",
          "name": "",
          "type": "uint256"
        }
      ],
      "stateMutability": "view",
      "type": "function"
    },
    {
      "inputs": [],
      "name": "epochOdd",
      "outputs": [
        {
          "internalType": "uint256",
          "name": "start",
          "type": "uint256"
        },
        {
          "internalType": "uint256",
          "name": "end",
          "type": "uint256"
        },
        {
          "internalType": "uint256",
          "name": "inflation",
          "type": "uint256"
        },
        {
          "internalType": "uint256",
          "name": "weight",
          "type": "uint256"
        },
        {
          "internalType": "uint256",
          "name": "weightDeposit",
          "type": "uint256"
        },
        {
          "internalType": "uint256",
          "name": "weightWithdrawal",
          "type": "uint256"
        },
        {
          "internalType": "uint256",
          "name": "vcount",
          "type": "uint256"
        },
        {
          "internalType": "uint256",
          "name": "claimed",
          "type": "uint256"
        },
        {
          "internalType": "uint256",
          "name": "stakeDeposit",
          "type": "uint256"
        },
        {
          "internalType": "uint256",
          "name": "stakeWithdrawal",
          "type": "uint256"
        },
        {
          "internalType": "uint256",
          "name": "slashed",
          "type": "uint256"
        }
      ],
      "stateMutability": "view",
      "type": "function"
    },
    {
      "inputs": [],
      "name": "epochZeroMinDuration",
      "outputs": [
        {
          "internalType": "uint256",
          "name": "",
          "type": "uint256"
        }
      ],
      "stateMutability": "view",
      "type": "function"
    },
    {
      "inputs": [],
      "name": "finalizationPhaseAddress",
      "outputs": [
        {
          "internalType": "address",
          "name": "",
          "type": "address"
        }
      ],
      "stateMutability": "view",
      "type": "function"
    },
    {
      "inputs": [],
      "name": "finalized",
      "outputs": [
        {
          "internalType": "uint256",
          "name": "",
          "type": "uint256"
        }
      ],
      "stateMutability": "view",
      "type": "function"
    },
    {
      "inputs": [
        {
          "internalType": "bytes32",
          "name": "role",
          "type": "bytes32"
        }
      ],
      "name": "getRoleAdmin",
      "outputs": [
        {
          "internalType": "bytes32",
          "name": "",
          "type": "bytes32"
        }
      ],
      "stateMutability": "view",
      "type": "function"
    },
    {
      "inputs": [
        {
          "internalType": "bytes32",
          "name": "role",
          "type": "bytes32"
        },
        {
          "internalType": "address",
          "name": "account",
          "type": "address"
        }
      ],
      "name": "grantRole",
      "outputs": [],
      "stateMutability": "nonpayable",
      "type": "function"
    },
    {
      "inputs": [
        {
          "internalType": "bytes32",
          "name": "role",
          "type": "bytes32"
        },
        {
          "internalType": "address",
          "name": "account",
          "type": "address"
        }
      ],
      "name": "hasRole",
      "outputs": [
        {
          "internalType": "bool",
          "name": "",
          "type": "bool"
        }
      ],
      "stateMutability": "view",
      "type": "function"
    },
    {
      "inputs": [],
      "name": "idlenessPhaseAddress",
      "outputs": [
        {
          "internalType": "address",
          "name": "",
          "type": "address"
        }
      ],
      "stateMutability": "view",
      "type": "function"
    },
    {
      "inputs": [],
      "name": "inflationEpoch",
      "outputs": [
        {
          "internalType": "uint256",
          "name": "",
          "type": "uint256"
        }
      ],
      "stateMutability": "view",
      "type": "function"
    },
    {
      "inputs": [],
      "name": "inflationRequestThreshold",
      "outputs": [
        {
          "internalType": "uint256",
          "name": "",
          "type": "uint256"
        }
      ],
      "stateMutability": "view",
      "type": "function"
    },
    {
      "inputs": [
        {
          "internalType": "uint256",
          "name": "",
          "type": "uint256"
        }
      ],
      "name": "inflationRequested",
      "outputs": [
        {
          "internalType": "bool",
          "name": "",
          "type": "bool"
        }
      ],
      "stateMutability": "view",
      "type": "function"
    },
    {
      "inputs": [],
      "name": "inflationSupply",
      "outputs": [
        {
          "internalType": "uint256",
          "name": "",
          "type": "uint256"
        }
      ],
      "stateMutability": "view",
      "type": "function"
    },
    {
      "inputs": [],
      "name": "inflationTargetAhead",
      "outputs": [
        {
          "internalType": "uint256",
          "name": "",
          "type": "uint256"
        }
      ],
      "stateMutability": "view",
      "type": "function"
    },
    {
      "inputs": [
        {
          "internalType": "address",
          "name": "_addressManager",
          "type": "address"
        }
      ],
      "name": "initialize",
      "outputs": [],
      "stateMutability": "nonpayable",
      "type": "function"
    },
    {
      "inputs": [],
      "name": "l2GasLimit",
      "outputs": [
        {
          "internalType": "uint256",
          "name": "",
          "type": "uint256"
        }
      ],
      "stateMutability": "view",
      "type": "function"
    },
    {
      "inputs": [],
      "name": "l2GasPrice",
      "outputs": [
        {
          "internalType": "uint256",
          "name": "",
          "type": "uint256"
        }
      ],
      "stateMutability": "view",
      "type": "function"
    },
    {
      "inputs": [],
      "name": "maxValidators",
      "outputs": [
        {
          "internalType": "uint256",
          "name": "",
          "type": "uint256"
        }
      ],
      "stateMutability": "view",
      "type": "function"
    },
    {
      "inputs": [
        {
          "internalType": "address",
          "name": "",
          "type": "address"
        }
      ],
      "name": "operatorsToValidators",
      "outputs": [
        {
          "internalType": "address",
          "name": "",
          "type": "address"
        }
      ],
      "stateMutability": "view",
      "type": "function"
    },
    {
      "inputs": [],
      "name": "owner",
      "outputs": [
        {
          "internalType": "address",
          "name": "",
          "type": "address"
        }
      ],
      "stateMutability": "view",
      "type": "function"
    },
    {
      "inputs": [],
      "name": "pendingOwner",
      "outputs": [
        {
          "internalType": "address",
          "name": "",
          "type": "address"
        }
      ],
      "stateMutability": "view",
      "type": "function"
    },
    {
      "inputs": [],
      "name": "pendingRequestInflationFromL1",
      "outputs": [
        {
          "internalType": "bool",
          "name": "",
          "type": "bool"
        }
      ],
      "stateMutability": "view",
      "type": "function"
    },
    {
      "inputs": [],
      "name": "reductionFactor",
      "outputs": [
        {
          "internalType": "uint256",
          "name": "",
          "type": "uint256"
        }
      ],
      "stateMutability": "view",
      "type": "function"
    },
    {
      "inputs": [],
      "name": "renounceOwnership",
      "outputs": [],
      "stateMutability": "nonpayable",
      "type": "function"
    },
    {
      "inputs": [
        {
          "internalType": "bytes32",
          "name": "role",
          "type": "bytes32"
        },
        {
          "internalType": "address",
          "name": "callerConfirmation",
          "type": "address"
        }
      ],
      "name": "renounceRole",
      "outputs": [],
      "stateMutability": "nonpayable",
      "type": "function"
    },
    {
      "inputs": [],
      "name": "revealingPhaseAddress",
      "outputs": [
        {
          "internalType": "address",
          "name": "",
          "type": "address"
        }
      ],
      "stateMutability": "view",
      "type": "function"
    },
    {
      "inputs": [
        {
          "internalType": "bytes32",
          "name": "role",
          "type": "bytes32"
        },
        {
          "internalType": "address",
          "name": "account",
          "type": "address"
        }
      ],
      "name": "revokeRole",
      "outputs": [],
      "stateMutability": "nonpayable",
      "type": "function"
    },
    {
      "inputs": [
        {
          "internalType": "bytes4",
          "name": "_selector",
          "type": "bytes4"
        },
        {
          "internalType": "address",
          "name": "_facet",
          "type": "address"
        }
      ],
      "name": "setFacet",
      "outputs": [],
      "stateMutability": "nonpayable",
      "type": "function"
    },
    {
      "inputs": [
        {
          "internalType": "bytes4[]",
          "name": "_selectors",
          "type": "bytes4[]"
        },
        {
          "internalType": "address[]",
          "name": "_facets",
          "type": "address[]"
        }
      ],
      "name": "setFacets",
      "outputs": [],
      "stateMutability": "nonpayable",
      "type": "function"
    },
    {
      "inputs": [],
      "name": "stakingInvariant",
      "outputs": [
        {
          "internalType": "address",
          "name": "",
          "type": "address"
        }
      ],
      "stateMutability": "view",
      "type": "function"
    },
    {
      "inputs": [
        {
          "internalType": "bytes4",
          "name": "interfaceId",
          "type": "bytes4"
        }
      ],
      "name": "supportsInterface",
      "outputs": [
        {
          "internalType": "bool",
          "name": "",
          "type": "bool"
        }
      ],
      "stateMutability": "view",
      "type": "function"
    },
    {
      "inputs": [],
      "name": "transactionFeesManager",
      "outputs": [
        {
          "internalType": "address",
          "name": "",
          "type": "address"
        }
      ],
      "stateMutability": "view",
      "type": "function"
    },
    {
      "inputs": [
        {
          "internalType": "address",
          "name": "newOwner",
          "type": "address"
        }
      ],
      "name": "transferOwnership",
      "outputs": [],
      "stateMutability": "nonpayable",
      "type": "function"
    },
    {
      "inputs": [],
      "name": "validatorMinStake",
      "outputs": [
        {
          "internalType": "uint256",
          "name": "",
          "type": "uint256"
        }
      ],
      "stateMutability": "view",
      "type": "function"
    },
    {
      "inputs": [
        {
          "internalType": "uint256",
          "name": "",
          "type": "uint256"
        }
      ],
      "name": "validatorsEven",
      "outputs": [
        {
          "internalType": "address",
          "name": "",
          "type": "address"
        }
      ],
      "stateMutability": "view",
      "type": "function"
    },
    {
      "inputs": [
        {
          "internalType": "uint256",
          "name": "",
          "type": "uint256"
        }
      ],
      "name": "validatorsJoined",
      "outputs": [
        {
          "internalType": "address",
          "name": "",
          "type": "address"
        }
      ],
      "stateMutability": "view",
      "type": "function"
    },
    {
      "inputs": [
        {
          "internalType": "uint256",
          "name": "",
          "type": "uint256"
        }
      ],
      "name": "validatorsOdd",
      "outputs": [
        {
          "internalType": "address",
          "name": "",
          "type": "address"
        }
      ],
      "stateMutability": "view",
      "type": "function"
    },
    {
      "inputs": [
        {
          "internalType": "uint256",
          "name": "",
          "type": "uint256"
        }
      ],
      "name": "weightsEven",
      "outputs": [
        {
          "internalType": "uint256",
          "name": "",
          "type": "uint256"
        }
      ],
      "stateMutability": "view",
      "type": "function"
    },
    {
      "inputs": [
        {
          "internalType": "uint256",
          "name": "",
          "type": "uint256"
        }
      ],
      "name": "weightsOdd",
      "outputs": [
        {
          "internalType": "uint256",
          "name": "",
          "type": "uint256"
        }
      ],
      "stateMutability": "view",
      "type": "function"
    },
    {
      "stateMutability": "payable",
      "type": "receive"
    }
  ],
  "bytecode": "0x60808060405234601557611a3f908161001b8239f35b600080fdfe6080604052600436101561001d575b3661155b5761001b61152d565b005b60003560e01c806301ffc9a71461042857806308ac5256146104235780630a3cfb131461041e5780630ab07e88146104195780631538faf21461041457806318a3b8821461040f5780631bc2359a1461040a578063217fcc3e1461038d5780632272e0ab1461040557806324147f671461040057806324840a5e146103fb578063248a9ca3146103f657806326ed4c70146103f15780632f2ff15d146103ec57806336568abe146103e75780633ab76e9f146103e25780633dc23d0c146103dd5780633fde6d7b146103d85780634971ec02146103d35780634c12b33f146103ce5780634f2938fc146103c9578063624a4485146103c45780636378eba3146103bf57806367604d27146103ba578063715018a6146103b5578063746e4ac7146103b05780637492100f146103ab57806379ba5097146103a65780637a5d2660146103a15780637e1233a91461039c578063837725951461039757806387e51da9146103925780638b7e92a61461038d5780638da5cb5b14610388578063900cf0cf14610383578063900fd9ce1461037e57806391d148541461037957806396be02a7146103745780639ae366851461036f578063a01ebaa11461036a578063a217fddf14610365578063a8027c1014610360578063abfd6fa91461035b578063ac78a04b14610356578063b03df1f014610351578063b3f05b971461034c578063bc338e7f14610347578063c0a604ad14610342578063c498c95b1461033d578063c4d66de814610338578063cb17452f14610333578063cd38347f1461032e578063cd85623514610329578063cf6e65b714610324578063d547741f1461031f578063d7ef35441461031a578063da7a9b6a14610315578063de8eec6414610310578063e30c39781461030b578063e3c6b0ca14610306578063f2fde38b14610301578063f7c353c7146102fc578063f85683ef146102f7578063fafebac5146102f25763fb6fe7760361000e5761132c565b6112e6565b6112bd565b61115e565b6110a2565b611084565b61104e565b611025565b611007565b610fde565b610faa565b610f8c565b610f6e565b610f47565b610f0c565b610db9565b610d94565b610d76565b610d5a565b610d3c565b610cf7565b610cda565b610cb6565b610c93565b610c77565b610c53565b610c35565b610beb565b610b3c565b610af1565b610ad3565b610a9d565b6105a4565b610a48565b610a2b565b610a0e565b6109e5565b610995565b610973565b610928565b6108a7565b610889565b61086b565b61084d565b610824565b610806565b6107e3565b6107c5565b61072c565b610703565b6106b9565b610680565b61064c565b610626565b6105fd565b6105df565b6105c1565b610586565b61055b565b61053d565b61051f565b6104ca565b61049a565b610444565b6001600160e01b031981160361043f57565b600080fd5b3461043f57602036600319011261043f5760206004356104638161042d565b63ffffffff60e01b16637965db0b60e01b8114908115610489575b506040519015158152f35b6301ffc9a760e01b1490503861047e565b3461043f57600036600319011261043f576020600554604051908152f35b602090600319011261043f5760043590565b3461043f576104d8366104b8565b602d5481101561043f57602d6000527f4a2cc91ee622da3bc833a54c37ffcb6f3ec23b7793efc5eaf5e71b7b406c5c0601546040516001600160a01b039091168152602090f35b3461043f57600036600319011261043f576020601054604051908152f35b3461043f57600036600319011261043f576020604354604051908152f35b3461043f57610569366104b8565b6000526052602052602060ff604060002054166040519015158152f35b3461043f57600036600319011261043f576020600254604051908152f35b3461043f57600036600319011261043f5760206040516103e88152f35b3461043f57600036600319011261043f576020604154604051908152f35b3461043f57600036600319011261043f576020605154604051908152f35b3461043f57600036600319011261043f576044546040516001600160a01b039091168152602090f35b3461043f57602036600319011261043f576020610644600435611381565b604051908152f35b3461043f57600036600319011261043f57602060ff605354166040519015158152f35b6001600160a01b0381160361043f57565b3461043f57604036600319011261043f5761001b6024356004356106a38261066f565b6106b46106af82611381565b6115bc565b61176b565b3461043f57604036600319011261043f576004356024356106d98161066f565b336001600160a01b038216036106f25761001b91611807565b63334bd91960e11b60005260046000fd5b3461043f57600036600319011261043f576047546040516001600160a01b039091168152602090f35b3461043f57604036600319011261043f576004356107498161042d565b7fa730c19ce8d967dc1d8a5f5ca85e2a607ce6bb270368f1ad107fc377db46a8c06020602435926107798461066f565b6107816118ac565b6001600160e01b0319166000818152604b83526040902080546001600160a01b0319166001600160a01b038616179055926040516001600160a01b039091168152a2005b3461043f57600036600319011261043f576020600154604051908152f35b3461043f57600036600319011261043f576020604051670214e8348c4f00008152f35b3461043f57600036600319011261043f576020601354604051908152f35b3461043f57600036600319011261043f576048546040516001600160a01b039091168152602090f35b3461043f57600036600319011261043f576020605054604051908152f35b3461043f57600036600319011261043f576020600054604051908152f35b3461043f57600036600319011261043f576020604054604051908152f35b3461043f57600036600319011261043f576108c06118ac565b6000805160206119ea83398151915280546001600160a01b031990811690915560008051602061198a833981519152805491821690556000906001600160a01b03167f8be0079c531659141344cd1fd0a4f28419497f9722a3daafe3b4186f6b6457e08280a3005b3461043f57610936366104b8565b602a5481101561043f57602a6000527fbeced09521047d05b8960b7e7bcc1d1292cf3e4b2a6b63f48335cbde5f7545d20154604051908152602090f35b3461043f57600036600319011261043f576020604051668e1bc9bf0400008152f35b3461043f57600036600319011261043f576000805160206119ea83398151915254336001600160a01b03909116036109d05761001b336118cd565b63118cdaa760e01b6000523360045260246000fd5b3461043f57600036600319011261043f576049546040516001600160a01b039091168152602090f35b3461043f57600036600319011261043f5760206040516180088152f35b3461043f57600036600319011261043f576020604051611d4c8152f35b3461043f57610a56366104b8565b602c5481101561043f57602c6000527f7416c943b4a09859521022fd2e90eac0dd9026dad28fa317782a135f28a8609101546040516001600160a01b039091168152602090f35b3461043f57600036600319011261043f5760008051602061198a833981519152546040516001600160a01b039091168152602090f35b3461043f57600036600319011261043f576020601154604051908152f35b3461043f57610aff366104b8565b602b5481101561043f57602b6000527f11c44e4875b74d31ff9fd779bf2566af7bd15b87fc985d01f5094b89e3669e4f0154604051908152602090f35b3461043f57604036600319011261043f57602060ff610b93602435600435610b638261066f565b6000526000805160206119aa833981519152845260406000209060018060a01b0316600052602052604060002090565b54166040519015158152f35b979491926101409996939c9b9a9794919c6101608a019d8a5260208a015260408901526060880152608087015260a086015260c085015260e08401526101008301526101208201520152565b3461043f57600036600319011261043f57601f5460205490610c31602154602254602354602454602554602654916027549360285495602954976040519b8c9b8c610b9f565b0390f35b3461043f57600036600319011261043f576020604e54604051908152f35b3461043f57600036600319011261043f576020604051684e1003b28d928000008152f35b3461043f57600036600319011261043f57602060405160008152f35b3461043f57600036600319011261043f576020604051660aa87bee537fff198152f35b3461043f57600036600319011261043f576020604051680246ddf979766800008152f35b3461043f57600036600319011261043f5760206040516101f48152f35b3461043f57602036600319011261043f57600435610d148161066f565b60018060a01b03166000526034602052602060018060a01b0360406000205416604051908152f35b3461043f57600036600319011261043f576020601254604051908152f35b3461043f57600036600319011261043f57602060405160648152f35b3461043f57600036600319011261043f576020600f54604051908152f35b3461043f57600036600319011261043f5760206040516908e4d3168276864000008152f35b3461043f57602036600319011261043f57600435610dd68161066f565b6000805160206119ca833981519152549067ffffffffffffffff610e0a60ff604085901c16159367ffffffffffffffff1690565b1680159081610f04575b6001149081610efa575b159081610ef1575b50610ee057610e6c9082610e63600167ffffffffffffffff196000805160206119ca8339815191525416176000805160206119ca83398151915255565b610ebb576113a2565b610e7257005b6000805160206119ca833981519152805460ff60401b19169055604051600181527fc7f505b2f371ae2175ee4913f4499e1f2633a7b5936321eed1cdaeb6115181d290602090a1005b6000805160206119ca833981519152805460ff60401b1916600160401b1790556113a2565b63f92ee8a960e01b60005260046000fd5b90501538610e26565b303b159150610e1e565b839150610e14565b3461043f57600036600319011261043f5760206040517f155e7f76c52e49fe8308e62eabe3ce449c978443b7d8beb86992427229ec386f8152f35b3461043f57600036600319011261043f5760206040516b0d92289838d21a99680000008152f35b3461043f57600036600319011261043f576020600454604051908152f35b3461043f57600036600319011261043f576020604f54604051908152f35b3461043f57604036600319011261043f5761001b602435600435610fcd8261066f565b610fd96106af82611381565b611807565b3461043f57600036600319011261043f57600e546040516001600160a01b039091168152602090f35b3461043f57600036600319011261043f576020604254604051908152f35b3461043f57600036600319011261043f576046546040516001600160a01b039091168152602090f35b3461043f57600036600319011261043f576000805160206119ea833981519152546040516001600160a01b039091168152602090f35b3461043f57600036600319011261043f576020600354604051908152f35b3461043f57602036600319011261043f576004356110bf8161066f565b6110c76118ac565b6000805160206119ea83398151915280546001600160a01b0319166001600160a01b0392831690811790915560008051602061198a833981519152549091167f38d16b8cac22d99fc7c124b9cd0de2d3fa1faef420bfe791d8c362d765e22700600080a3005b9181601f8401121561043f5782359167ffffffffffffffff831161043f576020808501948460051b01011161043f57565b3461043f57604036600319011261043f5760043567ffffffffffffffff811161043f5761118f90369060040161112d565b60243567ffffffffffffffff811161043f576111af90369060040161112d565b926111b86118ac565b8383036112ac5760005b8381106111cb57005b806112326111dc60019388876114f0565b356111e68161066f565b6111f18388876114f0565b356111fb8161042d565b6001600160e01b0319166000908152604b6020526040902080546001600160a01b0319166001600160a01b03909216919091179055565b6112456112408287866114f0565b611523565b7fa730c19ce8d967dc1d8a5f5ca85e2a607ce6bb270368f1ad107fc377db46a8c06112a361127c611277858b8a6114f0565b611516565b6040516001600160a01b0390911681526001600160e01b0319909316929081906020820190565b0390a2016111c2565b63512509d360e11b60005260046000fd5b3461043f57600036600319011261043f57604a546040516001600160a01b039091168152602090f35b3461043f57600036600319011261043f5760145460155490610c31601654601754601854601954601a54601b5491601c5493601d5495601e54976040519b8c9b8c610b9f565b3461043f5761133a366104b8565b60455481101561043f5760456000527fa80a8fcc11760162f08bb091d2c9389d07f2b73d0e996161dfac6f1043b5fc0b01546040516001600160a01b039091168152602090f35b6000526000805160206119aa83398151915260205260016040600020015490565b6113aa61193b565b6113b261193b565b6113ba61193b565b6113c261193b565b33156114da576113d1336118cd565b6113da33611606565b506113e4336116a6565b50604780546001600160a01b0319166001600160a01b039290921691909117905560076041556114146007604055565b611425670853a0d2313c0000603155565b61143667058d15e176280000603255565b61144262015180600255565b61144e62127500600455565b611459610e10600155565b611465620186a0600055565b6114706103e8600555565b6114856b0d92289838d21a9968000000601055565b611497680246ddf97976680000604255565b6114aa6908e4d316827686400000604355565b6114b8640ba43b7400604e55565b6114c46207a120604f55565b6114ce6005605055565b6114d8600f605155565b565b631e4fbdf760e01b600052600060045260246000fd5b91908110156115005760051b0190565b634e487b7160e01b600052603260045260246000fd5b356115208161066f565b90565b356115208161042d565b6040513481527f2ccfc58c2cef4ee590b5f16be0548cc54afc12e1c66a67b362b7d640fd16bb2d60203392a2565b600080356001600160e01b031916808252604b6020526040909120546001600160a01b03169081156115a85760008083368280378136915af43d6000803e156115a3573d6000f35b3d6000fd5b630a82dd7360e31b60005260045260246000fd5b60008181526000805160206119aa8339815191526020908152604080832033845290915290205460ff16156115ee5750565b63e2517d3f60e01b6000523360045260245260446000fd5b6001600160a01b03811660009081527fb7db2dd08fcb62d0c9e08c51941cae53c267786a0b75803fb7960902fc8ef97d602052604090205460ff166116a0576001600160a01b031660008181527fb7db2dd08fcb62d0c9e08c51941cae53c267786a0b75803fb7960902fc8ef97d60205260408120805460ff1916600117905533919060008051602061196a8339815191528180a4600190565b50600090565b6001600160a01b03811660009081527f595b99de72e44550de209b8610b07ab21870ce71a1063d294735321864dc516a602052604090205460ff166116a0576001600160a01b03811660009081527f595b99de72e44550de209b8610b07ab21870ce71a1063d294735321864dc516a60205260409020805460ff1916600117905533906001600160a01b03167f155e7f76c52e49fe8308e62eabe3ce449c978443b7d8beb86992427229ec386f60008051602061196a833981519152600080a4600190565b60008181526000805160206119aa833981519152602090815260408083206001600160a01b038616845290915290205460ff166118005760008181526000805160206119aa833981519152602090815260408083206001600160a01b03861684529091529020805460ff1916600117905533916001600160a01b03169060008051602061196a833981519152600080a4600190565b5050600090565b60008181526000805160206119aa833981519152602090815260408083206001600160a01b038616845290915290205460ff16156118005760008181526000805160206119aa833981519152602090815260408083206001600160a01b03861684529091529020805460ff1916905533916001600160a01b0316907ff6391f5c32d9c69d2a47ea670b442974b53935d1edc7fd64eb21e047a839171b600080a4600190565b60008051602061198a833981519152546001600160a01b031633036109d057565b6000805160206119ea83398151915280546001600160a01b031990811690915560008051602061198a83398151915280549182166001600160a01b0393841690811790915591167f8be0079c531659141344cd1fd0a4f28419497f9722a3daafe3b4186f6b6457e0600080a3565b60ff6000805160206119ca8339815191525460401c161561195857565b631afcd79f60e31b60005260046000fdfe2f8788117e7eff1d82e926ec794901d17c78024a50270940304540a733656f0d9016d09d72d40fdae2fd8ceac6b6234c7706214fd39c1cd1e609a0528c19930002dd7bc7dec4dceedda775e58dd541e08a116c6c53815c0bd028192f7b626800f0c57e16840df040f15088dc2f81fe391c3923bec73e23a9662efc9c229c6a00237e158222e3e6968b72b9db0d8043aacf074ad9f650f0d1606b4d82ee432c00a2646970667358221220c7209339e4ba9c5e4debcf3791bb783ba8298a38adffdbaac2362ffe8896d6fd64736f6c634300081c0033",
  "linkReferences": {},
  "deployedLinkReferences": {}
}