{
  "_format": "hh-sol-artifact-1",
  "contractName": "Utils",
  "sourceName": "contracts/transactions/Utils.sol",
  "abi": [
    {
      "inputs": [
        {
          "internalType": "address",
          "name": "leader",
          "type": "address"
        },
        {
          "internalType": "address",
          "name": "caller",
          "type": "address"
        }
      ],
      "name": "CallerNotLeader",
      "type": "error"
    },
    {
      "inputs": [],
      "name": "InvalidRevealData",
      "type": "error"
    },
    {
      "inputs": [],
      "name": "InvalidTransactionStatus",
      "type": "error"
    },
    {
      "inputs": [],
      "name": "InvalidTribunalAppealStatus",
      "type": "error"
    },
    {
      "inputs": [],
      "name": "InvalidTxExecutionHash",
      "type": "error"
    },
    {
      "inputs": [],
      "name": "LeaderResultHashAlreadySet",
      "type": "error"
    },
    {
      "inputs": [
        {
          "components": [
            {
              "internalType": "bytes32",
              "name": "txId",
              "type": "bytes32"
            },
            {
              "internalType": "bytes32",
              "name": "txExecutionHash",
              "type": "bytes32"
            },
            {
              "internalType": "bytes32",
              "name": "otherExecutionFieldsHash",
              "type": "bytes32"
            },
            {
              "internalType": "bytes32",
              "name": "messagesAndOtherFieldsHash",
              "type": "bytes32"
            },
            {
              "internalType": "uint256",
              "name": "saltAsAValidator",
              "type": "uint256"
            },
            {
              "internalType": "enum ITransactions.VoteType",
              "name": "txExecutionResult",
              "type": "uint8"
            },
            {
              "internalType": "address",
              "name": "validator",
              "type": "address"
            }
          ],
          "internalType": "struct ITransactions.RevealVoteAsLeaderParams",
          "name": "params",
          "type": "tuple"
        },
        {
          "components": [
            {
              "internalType": "enum ITransactions.ResultType",
              "name": "result",
              "type": "uint8"
            },
            {
              "internalType": "enum ITransactions.VoteType",
              "name": "txExecutionResult",
              "type": "uint8"
            },
            {
              "internalType": "enum ITransactions.TransactionStatus",
              "name": "previousStatus",
              "type": "uint8"
            },
            {
              "internalType": "enum ITransactions.TransactionStatus",
              "name": "status",
              "type": "uint8"
            },
            {
              "internalType": "address",
              "name": "txOrigin",
              "type": "address"
            },
            {
              "internalType": "address",
              "name": "sender",
              "type": "address"
            },
            {
              "internalType": "address",
              "name": "recipient",
              "type": "address"
            },
            {
              "internalType": "address",
              "name": "activator",
              "type": "address"
            },
            {
              "internalType": "uint256",
              "name": "txSlot",
              "type": "uint256"
            },
            {
              "internalType": "uint256",
              "name": "initialRotations",
              "type": "uint256"
            },
            {
              "internalType": "uint256",
              "name": "numOfInitialValidators",
              "type": "uint256"
            },
            {
              "internalType": "uint256",
              "name": "epoch",
              "type": "uint256"
            },
            {
              "internalType": "bytes32",
              "name": "id",
              "type": "bytes32"
            },
            {
              "internalType": "bytes32",
              "name": "randomSeed",
              "type": "bytes32"
            },
            {
              "internalType": "bytes32",
              "name": "txExecutionHash",
              "type": "bytes32"
            },
            {
              "internalType": "bytes32",
              "name": "resultHash",
              "type": "bytes32"
            },
            {
              "internalType": "bytes",
              "name": "txCalldata",
              "type": "bytes"
            },
            {
              "internalType": "bytes",
              "name": "eqBlocksOutputs",
              "type": "bytes"
            },
            {
              "components": [
                {
                  "internalType": "uint256",
                  "name": "activationBlock",
                  "type": "uint256"
                },
                {
                  "internalType": "uint256",
                  "name": "processingBlock",
                  "type": "uint256"
                },
                {
                  "internalType": "uint256",
                  "name": "proposalBlock",
                  "type": "uint256"
                }
              ],
              "internalType": "struct ITransactions.ReadStateBlockRange[]",
              "name": "readStateBlockRanges",
              "type": "tuple[]"
            },
            {
              "internalType": "uint256",
              "name": "validUntil",
              "type": "uint256"
            },
            {
              "internalType": "uint256",
              "name": "value",
              "type": "uint256"
            }
          ],
          "internalType": "struct ITransactions.Transaction",
          "name": "_transaction",
          "type": "tuple"
        },
        {
          "components": [
            {
              "internalType": "uint256",
              "name": "round",
              "type": "uint256"
            },
            {
              "internalType": "uint256",
              "name": "leaderIndex",
              "type": "uint256"
            },
            {
              "internalType": "uint256",
              "name": "votesCommitted",
              "type": "uint256"
            },
            {
              "internalType": "uint256",
              "name": "votesRevealed",
              "type": "uint256"
            },
            {
              "internalType": "uint256",
              "name": "appealBond",
              "type": "uint256"
            },
            {
              "internalType": "uint256",
              "name": "rotationsLeft",
              "type": "uint256"
            },
            {
              "internalType": "enum ITransactions.ResultType",
              "name": "result",
              "type": "uint8"
            },
            {
              "internalType": "address[]",
              "name": "roundValidators",
              "type": "address[]"
            },
            {
              "internalType": "enum ITransactions.VoteType[]",
              "name": "validatorVotes",
              "type": "uint8[]"
            },
            {
              "internalType": "bytes32[]",
              "name": "validatorVotesHash",
              "type": "bytes32[]"
            },
            {
              "internalType": "bytes32[]",
              "name": "validatorResultHash",
              "type": "bytes32[]"
            }
          ],
          "internalType": "struct ITransactions.RoundData",
          "name": "_roundData",
          "type": "tuple"
        }
      ],
      "name": "checkLeaderRevealData",
      "outputs": [],
      "stateMutability": "pure",
      "type": "function"
    },
    {
      "inputs": [
        {
          "internalType": "enum ITransactions.TransactionStatus",
          "name": "_status",
          "type": "uint8"
        },
        {
          "internalType": "enum ITransactions.TransactionStatus",
          "name": "_allowedStatus0",
          "type": "uint8"
        },
        {
          "internalType": "enum ITransactions.TransactionStatus",
          "name": "_allowedStatus1",
          "type": "uint8"
        }
      ],
      "name": "checkStatus",
      "outputs": [],
      "stateMutability": "pure",
      "type": "function"
    },
    {
      "inputs": [
        {
          "internalType": "enum ITransactions.TransactionStatus",
          "name": "_status",
          "type": "uint8"
        },
        {
          "internalType": "enum ITransactions.TransactionStatus",
          "name": "_allowedStatus",
          "type": "uint8"
        }
      ],
      "name": "checkStatus",
      "outputs": [],
      "stateMutability": "pure",
      "type": "function"
    },
    {
      "inputs": [
        {
          "internalType": "enum ITribunalAppeal.TribunalAppealStatus",
          "name": "_status",
          "type": "uint8"
        },
        {
          "internalType": "enum ITribunalAppeal.TribunalAppealStatus",
          "name": "_allowedStatus",
          "type": "uint8"
        }
      ],
      "name": "checkTribunalStatus",
      "outputs": [],
      "stateMutability": "pure",
      "type": "function"
    },
    {
      "inputs": [
        {
          "internalType": "enum ITribunalAppeal.TribunalAppealStatus",
          "name": "_status",
          "type": "uint8"
        },
        {
          "internalType": "enum ITribunalAppeal.TribunalAppealStatus[]",
          "name": "_allowedStatuses",
          "type": "uint8[]"
        }
      ],
      "name": "checkTribunalStatusList",
      "outputs": [],
      "stateMutability": "pure",
      "type": "function"
    },
    {
      "inputs": [
        {
          "internalType": "bytes32",
          "name": "_id",
          "type": "bytes32"
        }
      ],
      "name": "createEmptyUpdateInfo",
      "outputs": [
        {
          "components": [
            {
              "internalType": "bytes32",
              "name": "id",
              "type": "bytes32"
            },
            {
              "internalType": "bool",
              "name": "changed",
              "type": "bool"
            },
            {
              "internalType": "bool",
              "name": "isLeaderChanged",
              "type": "bool"
            },
            {
              "internalType": "address",
              "name": "activator",
              "type": "address"
            },
            {
              "internalType": "address[]",
              "name": "consumedValidators",
              "type": "address[]"
            },
            {
              "internalType": "uint256",
              "name": "round",
              "type": "uint256"
            },
            {
              "components": [
                {
                  "internalType": "uint256",
                  "name": "round",
                  "type": "uint256"
                },
                {
                  "internalType": "uint256",
                  "name": "leaderIndex",
                  "type": "uint256"
                },
                {
                  "internalType": "uint256",
                  "name": "votesCommitted",
                  "type": "uint256"
                },
                {
                  "internalType": "uint256",
                  "name": "votesRevealed",
                  "type": "uint256"
                },
                {
                  "internalType": "uint256",
                  "name": "appealBond",
                  "type": "uint256"
                },
                {
                  "internalType": "uint256",
                  "name": "rotationsLeft",
                  "type": "uint256"
                },
                {
                  "internalType": "enum ITransactions.ResultType",
                  "name": "result",
                  "type": "uint8"
                },
                {
                  "internalType": "address[]",
                  "name": "roundValidators",
                  "type": "address[]"
                },
                {
                  "internalType": "enum ITransactions.VoteType[]",
                  "name": "validatorVotes",
                  "type": "uint8[]"
                },
                {
                  "internalType": "bytes32[]",
                  "name": "validatorVotesHash",
                  "type": "bytes32[]"
                },
                {
                  "internalType": "bytes32[]",
                  "name": "validatorResultHash",
                  "type": "bytes32[]"
                }
              ],
              "internalType": "struct ITransactions.RoundData",
              "name": "roundData",
              "type": "tuple"
            }
          ],
          "internalType": "struct ITransactions.UpdateTransactionInfo",
          "name": "",
          "type": "tuple"
        }
      ],
      "stateMutability": "pure",
      "type": "function"
    }
  ],
  "bytecode": "0x60808060405234601557610d45908161001b8239f35b600080fdfe6080604052600436101561001257600080fd5b60003560e01c80630b9fb4af14610ae757806318117f9414610aa457806377003878146104a9578063a1ff77731461039c578063ccfe2977146100a65763e04eafec1461005e57600080fd5b346100a15760403660031901126100a157600435600f8110156100a157602435600f8110156100a157600091036100925780f35b637c03108160e11b8152600490fd5b600080fd5b346100a15760203660031901126100a1576040516100c381610b3e565b6000815260006020820152600060408201526000606082015260606080820152600060a082015260c0604051916100f983610b59565b6000835260006020840152600060408401526000606084015260006080840152600060a0840152600082840152606060e0840152606061010084015260606101208401526060610140840152015260206040516101568282610b75565b6000815260003681376040519061016d8383610b75565b6000825260003681376040516101838482610b75565b6000815260003681376040516101998582610b75565b600081526000368137604051916101b08684610b75565b600083526000368137604051946101c686610b59565b60008652600087870152600060408701526000606087015260006080870152600060a0870152600060c087015260e08601526101008501526101208401526101408301526040519161021783610b3e565b600435835261028d848401926000845260408501600081526060860190600082526080870192835260a08701956000875260c088019586526040519789895251898901525115156040880152511515606087015260018060a01b0390511660808601525160e060a0860152610100850190610c74565b915160c08401525190601f198382030160e084015281518152838201518482015260408201516040820152606082015160608201526080820151608082015260a082015160a082015260c082015160068110156103865760c082015261030460e083015161016060e0840152610160830190610c74565b936101008301519482810361010084015281808751928381520196019160005b82811061036357868061035f888861014061034d8e610120850151848203610120860152610cb1565b92015190610140818403910152610cb1565b0390f35b909192968751906005821015610386579081528201968201929190600101610324565b634e487b7160e01b600052602160045260246000fd5b346100a15760403660031901126100a1576004356003811015806100a157602435916001600160401b0383116100a157366023840112156100a15782600401356103e581610c00565b936103f36040519586610b75565b8185526024602086019260051b820101903682116100a157602401915b8183106104905750505060009260005b8151811015610487576104338183610ce5565b516003811015610386576000856104735750831461045357600101610420565b505050505060015b1561046257005b630df071f560e21b60005260046000fd5b634e487b7160e01b81526021600452602490fd5b5050505061045b565b823560038110156100a157815260209283019201610410565b346100a157366003190161012081126100a15760e0136100a1576040516104cf81610b3e565b6004358152602081019060243582526044356040820152606081019160643583526080820191608435835260a4359160058310156100a15760a0820192835260c435916001600160a01b03831683036100a15760c00191825260e435926001600160401b0384116100a1576102a060031985360301126100a157604051946102a086018681106001600160401b03821117610a8e57604052846004013560068110156100a1578652602485013560058110156100a15760208701526044850135600f8110156100a1576040870152606485013595600f8710156100a157606081019687526105bf60848701610b96565b60808201526105d060a48701610b96565b60a08201526105e160c48701610b96565b60c08201526105f260e48701610b96565b60e08201526101048601356101008201526101248601356101208201526101448601356101408201526101648601356101608201526101848601356101808201526101a48601356101a08201526101c08101956101c481013587526101e48101356101e08301526102048101356001600160401b0381116100a15761067d9060043691840101610baa565b6102008301526102248101356001600160401b0381116100a1576106a79060043691840101610baa565b6102208301526102448101356001600160401b0381116100a1578101366023820112156100a15760048101356106dc81610c00565b916106ea6040519384610b75565b818352602060046060828601940283010101903682116100a157602401915b818310610a3f575050506102809161028491610240850152610264810135610260850152013591015261010435936001600160401b0385116100a15761016060031986360301126100a1576040519561076187610b59565b8560040135875260208701956024810135875260448101356040890152606481013560608901526084810135608089015260a481013560a089015260c481013560068110156100a15760c089015260e48101356001600160401b0381116100a157810190366023830112156100a1576004820135916107df83610c00565b926107ed6040519485610b75565b808452602060048186019260051b84010101913683116100a157602401905b828210610a275750505060e089019182526101048101356001600160401b0381116100a1578101366023820112156100a157600481013561084c81610c00565b9161085a6040519384610b75565b818352602060048185019360051b83010101903682116100a157602401915b818310610a0e575050506101008a01526101248101356001600160401b0381116100a1576108ad9060043691840101610c17565b6101208a01526101448101356001600160401b0381116100a1576101409160046108da9236920101610c17565b98019788528251815188516001600160a01b0392831692916108fc9190610ce5565b5116036109d2575084519051036109c257519151966005881015610386575190516040519160208301936bffffffffffffffffffffffff199060601b16845260009860f81b6034840152603583015260558201526055815261095f607582610b75565b5190209051036109b3579061097691519051610ce5565b516109a45751600f81101561099057600d19016100925780f35b634e487b7160e01b82526021600452602482fd5b632c23b25760e11b8252600482fd5b632f00f12d60e21b8452600484fd5b628a94a760e61b60005260046000fd5b51865183916001600160a01b03916109e991610ce5565b51169060018060a01b0390511690631aac64ed60e11b60005260045260245260446000fd5b823560058110156100a157815260209283019201610879565b60208091610a3484610b96565b81520191019061080c565b6060833603126100a1576040519060608201908282106001600160401b03831117610a8e5760609260209260405285358152828601358382015260408601356040820152815201920191610709565b634e487b7160e01b600052604160045260246000fd5b346100a15760403660031901126100a15760043560038110156100a15760243560038110156100a15760009103610ad85780f35b630df071f560e21b8152600490fd5b346100a15760603660031901126100a157600435600f8110156100a15760243590600f8210156100a157604435600f8110156100a1576000928214159182610b33575b50506100925780f35b141590508280610b2a565b60e081019081106001600160401b03821117610a8e57604052565b61016081019081106001600160401b03821117610a8e57604052565b90601f801991011681019081106001600160401b03821117610a8e57604052565b35906001600160a01b03821682036100a157565b81601f820112156100a1578035906001600160401b038211610a8e5760405192610bde601f8401601f191660200185610b75565b828452602083830101116100a157816000926020809301838601378301015290565b6001600160401b038111610a8e5760051b60200190565b9080601f830112156100a1578135610c2e81610c00565b92610c3c6040519485610b75565b81845260208085019260051b8201019283116100a157602001905b828210610c645750505090565b8135815260209182019101610c57565b906020808351928381520192019060005b818110610c925750505090565b82516001600160a01b0316845260209384019390920191600101610c85565b906020808351928381520192019060005b818110610ccf5750505090565b8251845260209384019390920191600101610cc2565b8051821015610cf95760209160051b010190565b634e487b7160e01b600052603260045260246000fdfea2646970667358221220ce8cbce26cd6ee4269b101a5807cd3edc039ec252db98c4af9ab1835dba3589364736f6c634300081c0033",
  "linkReferences": {},
  "deployedLinkReferences": {}
}