{
  "_format": "hh-sol-artifact-1",
  "contractName": "Appeals",
  "sourceName": "contracts/transactions/Appeals.sol",
  "abi": [
    {
      "inputs": [],
      "name": "AccessControlBadConfirmation",
      "type": "error"
    },
    {
      "inputs": [
        {
          "internalType": "address",
          "name": "account",
          "type": "address"
        },
        {
          "internalType": "bytes32",
          "name": "neededRole",
          "type": "bytes32"
        }
      ],
      "name": "AccessControlUnauthorizedAccount",
      "type": "error"
    },
    {
      "inputs": [],
      "name": "InvalidAppealBond",
      "type": "error"
    },
    {
      "inputs": [],
      "name": "InvalidInitialization",
      "type": "error"
    },
    {
      "inputs": [],
      "name": "InvalidTransactionStatus",
      "type": "error"
    },
    {
      "inputs": [],
      "name": "NotInitializing",
      "type": "error"
    },
    {
      "inputs": [
        {
          "internalType": "address",
          "name": "owner",
          "type": "address"
        }
      ],
      "name": "OwnableInvalidOwner",
      "type": "error"
    },
    {
      "inputs": [
        {
          "internalType": "address",
          "name": "account",
          "type": "address"
        }
      ],
      "name": "OwnableUnauthorizedAccount",
      "type": "error"
    },
    {
      "anonymous": false,
      "inputs": [
        {
          "indexed": false,
          "internalType": "uint64",
          "name": "version",
          "type": "uint64"
        }
      ],
      "name": "Initialized",
      "type": "event"
    },
    {
      "anonymous": false,
      "inputs": [
        {
          "indexed": true,
          "internalType": "address",
          "name": "previousOwner",
          "type": "address"
        },
        {
          "indexed": true,
          "internalType": "address",
          "name": "newOwner",
          "type": "address"
        }
      ],
      "name": "OwnershipTransferStarted",
      "type": "event"
    },
    {
      "anonymous": false,
      "inputs": [
        {
          "indexed": true,
          "internalType": "address",
          "name": "previousOwner",
          "type": "address"
        },
        {
          "indexed": true,
          "internalType": "address",
          "name": "newOwner",
          "type": "address"
        }
      ],
      "name": "OwnershipTransferred",
      "type": "event"
    },
    {
      "anonymous": false,
      "inputs": [
        {
          "indexed": true,
          "internalType": "bytes32",
          "name": "role",
          "type": "bytes32"
        },
        {
          "indexed": true,
          "internalType": "bytes32",
          "name": "previousAdminRole",
          "type": "bytes32"
        },
        {
          "indexed": true,
          "internalType": "bytes32",
          "name": "newAdminRole",
          "type": "bytes32"
        }
      ],
      "name": "RoleAdminChanged",
      "type": "event"
    },
    {
      "anonymous": false,
      "inputs": [
        {
          "indexed": true,
          "internalType": "bytes32",
          "name": "role",
          "type": "bytes32"
        },
        {
          "indexed": true,
          "internalType": "address",
          "name": "account",
          "type": "address"
        },
        {
          "indexed": true,
          "internalType": "address",
          "name": "sender",
          "type": "address"
        }
      ],
      "name": "RoleGranted",
      "type": "event"
    },
    {
      "anonymous": false,
      "inputs": [
        {
          "indexed": true,
          "internalType": "bytes32",
          "name": "role",
          "type": "bytes32"
        },
        {
          "indexed": true,
          "internalType": "address",
          "name": "account",
          "type": "address"
        },
        {
          "indexed": true,
          "internalType": "address",
          "name": "sender",
          "type": "address"
        }
      ],
      "name": "RoleRevoked",
      "type": "event"
    },
    {
      "inputs": [],
      "name": "DEFAULT_ADMIN_ROLE",
      "outputs": [
        {
          "internalType": "bytes32",
          "name": "",
          "type": "bytes32"
        }
      ],
      "stateMutability": "view",
      "type": "function"
    },
    {
      "inputs": [],
      "name": "acceptOwnership",
      "outputs": [],
      "stateMutability": "nonpayable",
      "type": "function"
    },
    {
      "inputs": [],
      "name": "fees",
      "outputs": [
        {
          "internalType": "contract IFeeManager",
          "name": "",
          "type": "address"
        }
      ],
      "stateMutability": "view",
      "type": "function"
    },
    {
      "inputs": [
        {
          "internalType": "bytes32",
          "name": "role",
          "type": "bytes32"
        }
      ],
      "name": "getRoleAdmin",
      "outputs": [
        {
          "internalType": "bytes32",
          "name": "",
          "type": "bytes32"
        }
      ],
      "stateMutability": "view",
      "type": "function"
    },
    {
      "inputs": [
        {
          "internalType": "bytes32",
          "name": "role",
          "type": "bytes32"
        },
        {
          "internalType": "address",
          "name": "account",
          "type": "address"
        }
      ],
      "name": "grantRole",
      "outputs": [],
      "stateMutability": "nonpayable",
      "type": "function"
    },
    {
      "inputs": [
        {
          "internalType": "bytes32",
          "name": "role",
          "type": "bytes32"
        },
        {
          "internalType": "address",
          "name": "account",
          "type": "address"
        }
      ],
      "name": "hasRole",
      "outputs": [
        {
          "internalType": "bool",
          "name": "",
          "type": "bool"
        }
      ],
      "stateMutability": "view",
      "type": "function"
    },
    {
      "inputs": [
        {
          "internalType": "address",
          "name": "_transactions",
          "type": "address"
        },
        {
          "internalType": "address",
          "name": "_fees",
          "type": "address"
        }
      ],
      "name": "initialize",
      "outputs": [],
      "stateMutability": "nonpayable",
      "type": "function"
    },
    {
      "inputs": [],
      "name": "owner",
      "outputs": [
        {
          "internalType": "address",
          "name": "",
          "type": "address"
        }
      ],
      "stateMutability": "view",
      "type": "function"
    },
    {
      "inputs": [],
      "name": "pendingOwner",
      "outputs": [
        {
          "internalType": "address",
          "name": "",
          "type": "address"
        }
      ],
      "stateMutability": "view",
      "type": "function"
    },
    {
      "inputs": [],
      "name": "renounceOwnership",
      "outputs": [],
      "stateMutability": "nonpayable",
      "type": "function"
    },
    {
      "inputs": [
        {
          "internalType": "bytes32",
          "name": "role",
          "type": "bytes32"
        },
        {
          "internalType": "address",
          "name": "callerConfirmation",
          "type": "address"
        }
      ],
      "name": "renounceRole",
      "outputs": [],
      "stateMutability": "nonpayable",
      "type": "function"
    },
    {
      "inputs": [
        {
          "internalType": "bytes32",
          "name": "role",
          "type": "bytes32"
        },
        {
          "internalType": "address",
          "name": "account",
          "type": "address"
        }
      ],
      "name": "revokeRole",
      "outputs": [],
      "stateMutability": "nonpayable",
      "type": "function"
    },
    {
      "inputs": [
        {
          "internalType": "address",
          "name": "_transactions",
          "type": "address"
        },
        {
          "internalType": "address",
          "name": "_fees",
          "type": "address"
        }
      ],
      "name": "setExternalContracts",
      "outputs": [],
      "stateMutability": "nonpayable",
      "type": "function"
    },
    {
      "inputs": [
        {
          "components": [
            {
              "internalType": "enum ITransactions.ResultType",
              "name": "result",
              "type": "uint8"
            },
            {
              "internalType": "enum ITransactions.VoteType",
              "name": "txExecutionResult",
              "type": "uint8"
            },
            {
              "internalType": "enum ITransactions.TransactionStatus",
              "name": "previousStatus",
              "type": "uint8"
            },
            {
              "internalType": "enum ITransactions.TransactionStatus",
              "name": "status",
              "type": "uint8"
            },
            {
              "internalType": "address",
              "name": "txOrigin",
              "type": "address"
            },
            {
              "internalType": "address",
              "name": "sender",
              "type": "address"
            },
            {
              "internalType": "address",
              "name": "recipient",
              "type": "address"
            },
            {
              "internalType": "address",
              "name": "activator",
              "type": "address"
            },
            {
              "internalType": "uint256",
              "name": "txSlot",
              "type": "uint256"
            },
            {
              "internalType": "uint256",
              "name": "initialRotations",
              "type": "uint256"
            },
            {
              "internalType": "uint256",
              "name": "numOfInitialValidators",
              "type": "uint256"
            },
            {
              "internalType": "uint256",
              "name": "epoch",
              "type": "uint256"
            },
            {
              "internalType": "bytes32",
              "name": "id",
              "type": "bytes32"
            },
            {
              "internalType": "bytes32",
              "name": "randomSeed",
              "type": "bytes32"
            },
            {
              "internalType": "bytes32",
              "name": "txExecutionHash",
              "type": "bytes32"
            },
            {
              "internalType": "bytes32",
              "name": "resultHash",
              "type": "bytes32"
            },
            {
              "internalType": "bytes",
              "name": "txCalldata",
              "type": "bytes"
            },
            {
              "internalType": "bytes",
              "name": "eqBlocksOutputs",
              "type": "bytes"
            },
            {
              "components": [
                {
                  "internalType": "uint256",
                  "name": "activationBlock",
                  "type": "uint256"
                },
                {
                  "internalType": "uint256",
                  "name": "processingBlock",
                  "type": "uint256"
                },
                {
                  "internalType": "uint256",
                  "name": "proposalBlock",
                  "type": "uint256"
                }
              ],
              "internalType": "struct ITransactions.ReadStateBlockRange[]",
              "name": "readStateBlockRanges",
              "type": "tuple[]"
            },
            {
              "internalType": "uint256",
              "name": "validUntil",
              "type": "uint256"
            },
            {
              "internalType": "uint256",
              "name": "value",
              "type": "uint256"
            }
          ],
          "internalType": "struct ITransactions.Transaction",
          "name": "_transaction",
          "type": "tuple"
        },
        {
          "internalType": "uint256",
          "name": "_appealBond",
          "type": "uint256"
        }
      ],
      "name": "submitAppeal",
      "outputs": [
        {
          "internalType": "address[]",
          "name": "appealValidators",
          "type": "address[]"
        },
        {
          "internalType": "uint256",
          "name": "round",
          "type": "uint256"
        },
        {
          "internalType": "address",
          "name": "newLeader",
          "type": "address"
        },
        {
          "internalType": "uint256",
          "name": "leaderIndex",
          "type": "uint256"
        },
        {
          "internalType": "bool",
          "name": "lastRoundLeaderTimeoutOrUndetermined",
          "type": "bool"
        },
        {
          "internalType": "enum ITransactions.TransactionStatus",
          "name": "status",
          "type": "uint8"
        },
        {
          "internalType": "enum ITransactions.TransactionStatus",
          "name": "previousStatus",
          "type": "uint8"
        }
      ],
      "stateMutability": "nonpayable",
      "type": "function"
    },
    {
      "inputs": [
        {
          "internalType": "bytes4",
          "name": "interfaceId",
          "type": "bytes4"
        }
      ],
      "name": "supportsInterface",
      "outputs": [
        {
          "internalType": "bool",
          "name": "",
          "type": "bool"
        }
      ],
      "stateMutability": "view",
      "type": "function"
    },
    {
      "inputs": [],
      "name": "transactions",
      "outputs": [
        {
          "internalType": "contract ITransactions",
          "name": "",
          "type": "address"
        }
      ],
      "stateMutability": "view",
      "type": "function"
    },
    {
      "inputs": [
        {
          "internalType": "address",
          "name": "newOwner",
          "type": "address"
        }
      ],
      "name": "transferOwnership",
      "outputs": [],
      "stateMutability": "nonpayable",
      "type": "function"
    }
  ],
  "bytecode": "0x60808060405234601557611bd4908161001b8239f35b600080fdfe608080604052600436101561001357600080fd5b60003560e01c90816301ffc9a714610960575080631801519114610937578063248a9ca3146109115780632f2ff15d146108e057806336568abe1461089a578063485cc955146106e85780635bba7f5a1461068d578063715018a61461060c57806379ba5097146105bc5780638da5cb5b1461058657806391d148541461052c5780639af1d35a14610503578063a217fddf146104e7578063b401d9c2146101d4578063d547741f1461019c578063e30c3978146101665763f2fde38b146100da57600080fd5b34610161576020366003190112610161576100f36109c9565b6100fb611a61565b600080516020611b7f83398151915280546001600160a01b0319166001600160a01b03928316908117909155600080516020611b1f833981519152549091167f38d16b8cac22d99fc7c124b9cd0de2d3fa1faef420bfe791d8c362d765e22700600080a3005b600080fd5b3461016157600036600319011261016157600080516020611b7f833981519152546040516001600160a01b039091168152602090f35b34610161576040366003190112610161576101d26004356101bb6109b3565b906101cd6101c882610ac0565b6118ce565b6119c1565b005b34610161576040366003190112610161576004356001600160401b038111610161576102a06003198236030112610161576040516102a081018181106001600160401b038211176104d15760405281600401356006811015610161578152602482013560058110156101615760208201526044820135600f8110156101615760408201526064820135600f811015610161576060820152610277608483016109df565b608082015261028860a483016109df565b60a082015261029960c483016109df565b60c08201526102aa60e483016109df565b60e08201526101048201356101008201526101248201356101208201526101448201356101408201526101648201356101608201526101848201356101808201526101a48201356101a08201526101c48201356101c08201526101e48201356101e08201526102048201356001600160401b038111610161576103339060043691850101610a30565b6102008201526102248201356001600160401b0381116101615761035d9060043691850101610a30565b6102208201526102448201356001600160401b0381116101615782013660238201121561016157600481013561039281610a86565b916103a06040519384610a0f565b8183526020600460608286019402830101019036821161016157602401915b818310610482576103f2856102848887610240840152610264810135610260840152013561028082015260243590610f1f565b95936040939193519560e0870160e0885286518091526020610100890197019060005b8181106104635750505060208701526001600160a01b031660408601526060850152151560808401529192839261045f91906104559060a0860190610a9d565b60c0840190610a9d565b0390f35b82516001600160a01b0316895260209889019890920191600101610415565b606083360312610161576040519060608201908282106001600160401b038311176104d157606092602092604052853581528286013583820152604086013560408201528152019201916103bf565b634e487b7160e01b600052604160045260246000fd5b3461016157600036600319011261016157602060405160008152f35b34610161576000366003190112610161576001546040516001600160a01b039091168152602090f35b34610161576040366003190112610161576105456109b3565b600435600052600080516020611b3f83398151915260205260406000209060018060a01b0316600052602052602060ff604060002054166040519015158152f35b3461016157600036600319011261016157600080516020611b1f833981519152546040516001600160a01b039091168152602090f35b3461016157600036600319011261016157600080516020611b7f83398151915254336001600160a01b03909116036105f7576101d233611a82565b63118cdaa760e01b6000523360045260246000fd5b3461016157600036600319011261016157610625611a61565b600080516020611b7f83398151915280546001600160a01b0319908116909155600080516020611b1f833981519152805491821690556000906001600160a01b03167f8be0079c531659141344cd1fd0a4f28419497f9722a3daafe3b4186f6b6457e08280a3005b34610161576040366003190112610161576106a66109c9565b6106ae6109b3565b906106b7611a61565b600080546001600160a01b039283166001600160a01b03199182161790915560018054939092169216919091179055005b34610161576040366003190112610161576107016109c9565b6107096109b3565b600080516020611b5f833981519152549160ff8360401c1615926001600160401b03811680159081610892575b6001149081610888575b15908161087f575b5061086e5767ffffffffffffffff198116600117600080516020611b5f8339815191525583610841575b5061077b611af0565b610783611af0565b61078b611af0565b331561082b5761079a33611a82565b6107a2611af0565b600080546001600160a01b039283166001600160a01b031991821617909155600180549390921692169190911790556107d757005b60ff60401b19600080516020611b5f8339815191525416600080516020611b5f833981519152557fc7f505b2f371ae2175ee4913f4499e1f2633a7b5936321eed1cdaeb6115181d2602060405160018152a1005b631e4fbdf760e01b600052600060045260246000fd5b68ffffffffffffffffff19166801000000000000000117600080516020611b5f8339815191525583610772565b63f92ee8a960e01b60005260046000fd5b90501585610748565b303b159150610740565b859150610736565b34610161576040366003190112610161576108b36109b3565b336001600160a01b038216036108cf576101d2906004356119c1565b63334bd91960e11b60005260046000fd5b34610161576040366003190112610161576101d26004356108ff6109b3565b9061090c6101c882610ac0565b611918565b3461016157602036600319011261016157602061092f600435610ac0565b604051908152f35b34610161576000366003190112610161576000546040516001600160a01b039091168152602090f35b34610161576020366003190112610161576004359063ffffffff60e01b821680920361016157602091637965db0b60e01b81149081156109a2575b5015158152f35b6301ffc9a760e01b1490508361099b565b602435906001600160a01b038216820361016157565b600435906001600160a01b038216820361016157565b35906001600160a01b038216820361016157565b61016081019081106001600160401b038211176104d157604052565b90601f801991011681019081106001600160401b038211176104d157604052565b81601f82011215610161578035906001600160401b0382116104d15760405192610a64601f8401601f191660200185610a0f565b8284526020838301011161016157816000926020809301838601378301015290565b6001600160401b0381116104d15760051b60200190565b90600f821015610aaa5752565b634e487b7160e01b600052602160045260246000fd5b600052600080516020611b3f83398151915260205260016040600020015490565b51906001600160a01b038216820361016157565b90816101209103126101615760006040519161012083018381106001600160401b03821117610c0957604052610b2a81610ae1565b835260208101516001600160a01b0381168103610c0557602084015260408101516001600160a01b0381168103610c0557604084015260608101516001600160a01b0381168103610c0557606084015260808101516001600160a01b0381168103610c0557608084015260a08101516001600160a01b0381168103610c055760a084015260c08101516001600160a01b0381168103610c055760c084015260e08101516001600160a01b0381168103610c055760e08401526101000151906001600160a01b0382168203610c02575061010082015290565b80fd5b8280fd5b634e487b7160e01b83526041600452602483fd5b5190811515820361016157565b9080601f83011215610161578151610c4181610a86565b92610c4f6040519485610a0f565b81845260208085019260051b82010192831161016157602001905b828210610c775750505090565b60208091610c8484610ae1565b815201910190610c6a565b9080601f83011215610161578151610ca681610a86565b92610cb46040519485610a0f565b81845260208085019260051b82010192831161016157602001905b828210610cdc5750505090565b8151815260209182019101610ccf565b919082519283825260005b848110610d18575050826000602080949584010152601f8019910116010190565b80602080928401015182828601015201610cf7565b9081516006811015610aaa57815260208201516005811015610aaa576020820152610d6060408301516040830190610a9d565b610d7260608301516060830190610a9d565b60018060a01b03608083015116608082015260018060a01b0360a08301511660a082015260018060a01b0360c08301511660c082015260018060a01b0360e08301511660e08201526101008201516101008201526101208201516101208201526101408201516101408201526101608201516101608201526101808201516101808201526101a08201516101a08201526101c08201516101c08201526101e08201516101e0820152610e4e610e3a6102008401516102a06102008501526102a0840190610cec565b610220840151838203610220850152610cec565b91610240810151928281036102408401526020808551928381520194019060005b818110610e92575050506102808161026082930151610260850152015191015290565b9091946020606060019260408951805183528481015185840152015160408201520196019101919091610e6f565b929190610ed7602091604086526040860190610d2d565b930152565b9190608083820312610161578251906001600160401b03821161016157610f04918401610c2a565b916020810151916060610f1960408401610ae1565b92015190565b91600091829060608501948551600f8110156118ba57600d149081156118a4575b81928751600f81101561189057600514158061187b575b80611873575b6118645786546040516361d1549d60e11b81526001600160a01b03909116929061012081600481875afa90811561183c57600491610120918b91611847575b50608001516040516361d1549d60e11b81526001600160a01b03909116959092839182905afa90811561183c57899161180d575b50604060018060a01b0391015116956101808201948551906040519163ba15d63560e01b835260048301526020826024818c5afa918215611802578b926117ca575b506001546001600160a01b031680611718575b5086518c51600f8110156116c657611054906040519263073acf6960e31b845260048401526024830190610a9d565b6020816044818a5afa9081156116b3578c916116da575b508c51600f8110156116c65760041490816116be575b5061134e575b5050851561128057508851600f81101561126c578892919060060361120357956110c896836040518099819582946347cd5d8960e01b845260048401610ec0565b03925af19485156111f857868096819682916111c8575b50959697985b51600f8110156111b457926002948051823b156111b05760405190634e8eb8bd60e01b8252600482015260026024820152426044820152838160648183875af180156111a557611191575b505b51813b15610c05578291606483926040519485938492634e8eb8bd60e01b84526004840152600660248401524260448401525af1801561118657611174575050565b61117f828092610a0f565b610c025750565b6040513d84823e3d90fd5b8361119e91949294610a0f565b9138611130565b6040513d86823e3d90fd5b8380fd5b634e487b7160e01b82526021600452602482fd5b9298505095506111eb9194503d8087833e6111e38183610a0f565b810190610edc565b92979196909592386110df565b6040513d88823e3d90fd5b506044845183604051988994859363a12c6af760e01b8552600485015260248401525af19485156111f85786809681968291611244575b50959697986110e5565b92985050955061125f9194503d8087833e6111e38183610a0f565b929791969095923861123a565b634e487b7160e01b89526021600452602489fd5b96916112a99689928360409c97969c51809a81958294635c6acaed60e11b845260048401610ec0565b03925af1968715611342578097819682916112ea575b50959798600a9451600f8110156112d65793611132565b634e487b7160e01b83526021600452602483fd5b98505094503d8086893e6112fe8189610a0f565b870160608882031261133e5787516001600160401b03811161133a5790611326918901610c2a565b9460406020890151980151959795386112bf565b8680fd5b8580fd5b604051903d90823e3d90fd5b606061014060405161135f816109f3565b8d81528d60208201528d60408201528d838201528d60808201528d60a08201528d60c08201528260e08201528261010082015282610120820152015260405163ecc2710d60e01b8152604060048201528b818b8183816113c2604482018c610d2d565b82602483015203925af180156116b3578c918d91611478575b5060e081015180519182611438575b5050506001600160a01b0384166114015750611087565b975097509993509796935050505190600f82101561142457606096959493929190565b634e487b7160e01b85526021600452602485fd5b60200151929550908210156114645760059190911b01602001516001600160a01b0316923880806113ea565b634e487b7160e01b8d52603260045260248dfd5b9150503d808d833e61148a8183610a0f565b8101908082039060e0821261167857600681511015611678576114af60208201610c1d565b506114bc60408201610c1d565b50606081015191600f8310156116af5760808201516001600160401b0381116116ab57820193610160858203126116ab57604051946114fa866109f3565b805186526020810151602087015260408101516040870152606081015160608701526080810151608087015260a081015160a087015260c0810151600681101561167c5760c087015260e08101516001600160401b03811161167c5782611562918301610c2a565b60e08701526101008101516001600160401b03811161167c57810182601f8201121561167c57805161159381610a86565b916115a16040519384610a0f565b81835260208084019260051b820101908582116116a557602001915b818310611682575050506101008701526101208101516001600160401b03811161167c57826115ed918301610c8f565b610120870152610140810151906001600160401b03821161167c5791611617916040949301610c8f565b610140860152609f1901126116785760405190604082018281106001600160401b038211176116635760209160c09160405261165560a08201610ae1565b8452015191015290386113db565b50634e487b7160e01b8f52604160045260248ffd5b8d80fd5b50508f80fd5b8251600581101561169b578152602092830192016115bd565b5050505050508f80fd5b50505050505b8f80fd5b8e80fd5b6040513d8e823e3d90fd5b905038611081565b634e487b7160e01b8d52602160045260248dfd5b90506020813d602011611710575b816116f560209383610a0f565b8101031261170c5761170690610c1d565b3861106b565b8b80fd5b3d91506116e8565b87518d5191600f8310156117b65791606460209261175794604051958694859363ed94cf2b60e01b855260048501528960248501526044840190610a9d565b5afa9081156116b3578c91611783575b5085106117745738611025565b6318b34c2d60e31b8b5260048bfd5b90508b8160203d6020116117af575b60209261179f8284610a0f565b508101031261170c575138611767565b503d611792565b634e487b7160e01b8e52602160045260248efd5b9091506020813d6020116117fa575b816117e660209383610a0f565b810103126117f657519038611012565b8a80fd5b3d91506117d9565b6040513d8d823e3d90fd5b61182f91506101203d8111611835575b6118278183610a0f565b810190610af5565b38610fd0565b503d61181d565b6040513d8b823e3d90fd5b61185e9150823d8111611835576118278183610a0f565b38610f9c565b637c03108160e11b8752600487fd5b508215610f5d565b508751600f8110156118905760041415610f57565b634e487b7160e01b88526021600452602488fd5b90508551600f8110156118ba5760061490610f40565b634e487b7160e01b86526021600452602486fd5b6000818152600080516020611b3f8339815191526020908152604080832033845290915290205460ff16156119005750565b63e2517d3f60e01b6000523360045260245260446000fd5b6000818152600080516020611b3f833981519152602090815260408083206001600160a01b038616845290915290205460ff166119ba576000818152600080516020611b3f833981519152602090815260408083206001600160a01b0395909516808452949091528120805460ff19166001179055339291907f2f8788117e7eff1d82e926ec794901d17c78024a50270940304540a733656f0d9080a4600190565b5050600090565b6000818152600080516020611b3f833981519152602090815260408083206001600160a01b038616845290915290205460ff16156119ba576000818152600080516020611b3f833981519152602090815260408083206001600160a01b0395909516808452949091528120805460ff19169055339291907ff6391f5c32d9c69d2a47ea670b442974b53935d1edc7fd64eb21e047a839171b9080a4600190565b600080516020611b1f833981519152546001600160a01b031633036105f757565b600080516020611b7f83398151915280546001600160a01b0319908116909155600080516020611b1f83398151915280549182166001600160a01b0393841690811790915591167f8be0079c531659141344cd1fd0a4f28419497f9722a3daafe3b4186f6b6457e0600080a3565b60ff600080516020611b5f8339815191525460401c1615611b0d57565b631afcd79f60e31b60005260046000fdfe9016d09d72d40fdae2fd8ceac6b6234c7706214fd39c1cd1e609a0528c19930002dd7bc7dec4dceedda775e58dd541e08a116c6c53815c0bd028192f7b626800f0c57e16840df040f15088dc2f81fe391c3923bec73e23a9662efc9c229c6a00237e158222e3e6968b72b9db0d8043aacf074ad9f650f0d1606b4d82ee432c00a264697066735822122053379e182d44396181b82d07194bd2a64911f3d6599e72a694080b8f04fe007164736f6c634300081c0033",
  "linkReferences": {},
  "deployedLinkReferences": {}
}