{
  "_format": "hh-sol-artifact-1",
  "contractName": "StakingInflation",
  "sourceName": "contracts/staking/StakingInflation.sol",
  "abi": [
    {
      "inputs": [],
      "name": "AccessControlBadConfirmation",
      "type": "error"
    },
    {
      "inputs": [
        {
          "internalType": "address",
          "name": "account",
          "type": "address"
        },
        {
          "internalType": "bytes32",
          "name": "neededRole",
          "type": "bytes32"
        }
      ],
      "name": "AccessControlUnauthorizedAccount",
      "type": "error"
    },
    {
      "inputs": [],
      "name": "InflationAlreadyInitialized",
      "type": "error"
    },
    {
      "inputs": [],
      "name": "InflationAlreadyReceived",
      "type": "error"
    },
    {
      "inputs": [],
      "name": "InvalidInitialization",
      "type": "error"
    },
    {
      "inputs": [],
      "name": "NoBurning",
      "type": "error"
    },
    {
      "inputs": [],
      "name": "NotInitializing",
      "type": "error"
    },
    {
      "inputs": [],
      "name": "OnlyGEN",
      "type": "error"
    },
    {
      "inputs": [
        {
          "internalType": "address",
          "name": "owner",
          "type": "address"
        }
      ],
      "name": "OwnableInvalidOwner",
      "type": "error"
    },
    {
      "inputs": [
        {
          "internalType": "address",
          "name": "account",
          "type": "address"
        }
      ],
      "name": "OwnableUnauthorizedAccount",
      "type": "error"
    },
    {
      "inputs": [],
      "name": "ReentrancyGuardReentrantCall",
      "type": "error"
    },
    {
      "anonymous": false,
      "inputs": [
        {
          "indexed": false,
          "internalType": "uint256",
          "name": "amount",
          "type": "uint256"
        }
      ],
      "name": "BurnToL1",
      "type": "event"
    },
    {
      "anonymous": false,
      "inputs": [
        {
          "indexed": false,
          "internalType": "uint256",
          "name": "timestamp",
          "type": "uint256"
        }
      ],
      "name": "InflationInitiated",
      "type": "event"
    },
    {
      "anonymous": false,
      "inputs": [
        {
          "indexed": false,
          "internalType": "uint256",
          "name": "amount",
          "type": "uint256"
        },
        {
          "indexed": false,
          "internalType": "uint256",
          "name": "epoch",
          "type": "uint256"
        }
      ],
      "name": "InflationReceived",
      "type": "event"
    },
    {
      "anonymous": false,
      "inputs": [
        {
          "indexed": true,
          "internalType": "uint256",
          "name": "targetEpoch",
          "type": "uint256"
        },
        {
          "indexed": false,
          "internalType": "uint256",
          "name": "l2GasPrice",
          "type": "uint256"
        },
        {
          "indexed": false,
          "internalType": "uint256",
          "name": "l2GasLimit",
          "type": "uint256"
        }
      ],
      "name": "InflationRequestedFromL2",
      "type": "event"
    },
    {
      "anonymous": false,
      "inputs": [
        {
          "indexed": false,
          "internalType": "uint64",
          "name": "version",
          "type": "uint64"
        }
      ],
      "name": "Initialized",
      "type": "event"
    },
    {
      "anonymous": false,
      "inputs": [
        {
          "indexed": true,
          "internalType": "address",
          "name": "previousOwner",
          "type": "address"
        },
        {
          "indexed": true,
          "internalType": "address",
          "name": "newOwner",
          "type": "address"
        }
      ],
      "name": "OwnershipTransferStarted",
      "type": "event"
    },
    {
      "anonymous": false,
      "inputs": [
        {
          "indexed": true,
          "internalType": "address",
          "name": "previousOwner",
          "type": "address"
        },
        {
          "indexed": true,
          "internalType": "address",
          "name": "newOwner",
          "type": "address"
        }
      ],
      "name": "OwnershipTransferred",
      "type": "event"
    },
    {
      "anonymous": false,
      "inputs": [
        {
          "indexed": true,
          "internalType": "bytes32",
          "name": "role",
          "type": "bytes32"
        },
        {
          "indexed": true,
          "internalType": "bytes32",
          "name": "previousAdminRole",
          "type": "bytes32"
        },
        {
          "indexed": true,
          "internalType": "bytes32",
          "name": "newAdminRole",
          "type": "bytes32"
        }
      ],
      "name": "RoleAdminChanged",
      "type": "event"
    },
    {
      "anonymous": false,
      "inputs": [
        {
          "indexed": true,
          "internalType": "bytes32",
          "name": "role",
          "type": "bytes32"
        },
        {
          "indexed": true,
          "internalType": "address",
          "name": "account",
          "type": "address"
        },
        {
          "indexed": true,
          "internalType": "address",
          "name": "sender",
          "type": "address"
        }
      ],
      "name": "RoleGranted",
      "type": "event"
    },
    {
      "anonymous": false,
      "inputs": [
        {
          "indexed": true,
          "internalType": "bytes32",
          "name": "role",
          "type": "bytes32"
        },
        {
          "indexed": true,
          "internalType": "address",
          "name": "account",
          "type": "address"
        },
        {
          "indexed": true,
          "internalType": "address",
          "name": "sender",
          "type": "address"
        }
      ],
      "name": "RoleRevoked",
      "type": "event"
    },
    {
      "inputs": [],
      "name": "DEFAULT_ADMIN_ROLE",
      "outputs": [
        {
          "internalType": "bytes32",
          "name": "",
          "type": "bytes32"
        }
      ],
      "stateMutability": "view",
      "type": "function"
    },
    {
      "inputs": [],
      "name": "DEFAULT_DELEGATOR_MIN_STAKE",
      "outputs": [
        {
          "internalType": "uint256",
          "name": "",
          "type": "uint256"
        }
      ],
      "stateMutability": "view",
      "type": "function"
    },
    {
      "inputs": [],
      "name": "DEFAULT_VALIDATOR_MIN_STAKE",
      "outputs": [
        {
          "internalType": "uint256",
          "name": "",
          "type": "uint256"
        }
      ],
      "stateMutability": "view",
      "type": "function"
    },
    {
      "inputs": [],
      "name": "DELEGATOR_UNBONDING_PERIOD",
      "outputs": [
        {
          "internalType": "uint256",
          "name": "",
          "type": "uint256"
        }
      ],
      "stateMutability": "view",
      "type": "function"
    },
    {
      "inputs": [],
      "name": "INFLATION_BASE",
      "outputs": [
        {
          "internalType": "uint256",
          "name": "",
          "type": "uint256"
        }
      ],
      "stateMutability": "view",
      "type": "function"
    },
    {
      "inputs": [],
      "name": "INFLATION_DEEPTHOUGHT_BPS",
      "outputs": [
        {
          "internalType": "uint256",
          "name": "",
          "type": "uint256"
        }
      ],
      "stateMutability": "view",
      "type": "function"
    },
    {
      "inputs": [],
      "name": "INFLATION_DEVELOPER_BPS",
      "outputs": [
        {
          "internalType": "uint256",
          "name": "",
          "type": "uint256"
        }
      ],
      "stateMutability": "view",
      "type": "function"
    },
    {
      "inputs": [],
      "name": "INFLATION_FINAL",
      "outputs": [
        {
          "internalType": "uint256",
          "name": "",
          "type": "uint256"
        }
      ],
      "stateMutability": "view",
      "type": "function"
    },
    {
      "inputs": [],
      "name": "INFLATION_INITIAL",
      "outputs": [
        {
          "internalType": "uint256",
          "name": "",
          "type": "uint256"
        }
      ],
      "stateMutability": "view",
      "type": "function"
    },
    {
      "inputs": [],
      "name": "INFLATION_MID",
      "outputs": [
        {
          "internalType": "int256",
          "name": "",
          "type": "int256"
        }
      ],
      "stateMutability": "view",
      "type": "function"
    },
    {
      "inputs": [],
      "name": "INFLATION_STAKER_BPS",
      "outputs": [
        {
          "internalType": "uint256",
          "name": "",
          "type": "uint256"
        }
      ],
      "stateMutability": "view",
      "type": "function"
    },
    {
      "inputs": [],
      "name": "INFLATION_STEEPNESS",
      "outputs": [
        {
          "internalType": "int256",
          "name": "",
          "type": "int256"
        }
      ],
      "stateMutability": "view",
      "type": "function"
    },
    {
      "inputs": [],
      "name": "INFLATION_VALIDATOR_BPS",
      "outputs": [
        {
          "internalType": "uint256",
          "name": "",
          "type": "uint256"
        }
      ],
      "stateMutability": "view",
      "type": "function"
    },
    {
      "inputs": [],
      "name": "L1_MESSENGER",
      "outputs": [
        {
          "internalType": "contract IL1Messenger",
          "name": "",
          "type": "address"
        }
      ],
      "stateMutability": "view",
      "type": "function"
    },
    {
      "inputs": [],
      "name": "QUARANTINE_MANAGER_ROLE",
      "outputs": [
        {
          "internalType": "bytes32",
          "name": "",
          "type": "bytes32"
        }
      ],
      "stateMutability": "view",
      "type": "function"
    },
    {
      "inputs": [],
      "name": "SLASH_CALLER_INCENTIVE_BPS",
      "outputs": [
        {
          "internalType": "uint256",
          "name": "",
          "type": "uint256"
        }
      ],
      "stateMutability": "view",
      "type": "function"
    },
    {
      "inputs": [],
      "name": "VALIDATOR_UNBONDING_PERIOD",
      "outputs": [
        {
          "internalType": "uint256",
          "name": "",
          "type": "uint256"
        }
      ],
      "stateMutability": "view",
      "type": "function"
    },
    {
      "inputs": [],
      "name": "acceptOwnership",
      "outputs": [],
      "stateMutability": "nonpayable",
      "type": "function"
    },
    {
      "inputs": [],
      "name": "addressManager",
      "outputs": [
        {
          "internalType": "contract IAddressManager",
          "name": "",
          "type": "address"
        }
      ],
      "stateMutability": "view",
      "type": "function"
    },
    {
      "inputs": [],
      "name": "burn",
      "outputs": [],
      "stateMutability": "nonpayable",
      "type": "function"
    },
    {
      "inputs": [],
      "name": "burning",
      "outputs": [
        {
          "internalType": "uint256",
          "name": "",
          "type": "uint256"
        }
      ],
      "stateMutability": "view",
      "type": "function"
    },
    {
      "inputs": [],
      "name": "deepthought",
      "outputs": [
        {
          "internalType": "address payable",
          "name": "",
          "type": "address"
        }
      ],
      "stateMutability": "view",
      "type": "function"
    },
    {
      "inputs": [
        {
          "internalType": "uint256",
          "name": "_inflation",
          "type": "uint256"
        }
      ],
      "name": "deepthoughtInflation",
      "outputs": [
        {
          "internalType": "uint256",
          "name": "",
          "type": "uint256"
        }
      ],
      "stateMutability": "pure",
      "type": "function"
    },
    {
      "inputs": [],
      "name": "delegatorMinStake",
      "outputs": [
        {
          "internalType": "uint256",
          "name": "",
          "type": "uint256"
        }
      ],
      "stateMutability": "view",
      "type": "function"
    },
    {
      "inputs": [
        {
          "internalType": "uint256",
          "name": "_inflation",
          "type": "uint256"
        }
      ],
      "name": "developerInflation",
      "outputs": [
        {
          "internalType": "uint256",
          "name": "",
          "type": "uint256"
        }
      ],
      "stateMutability": "pure",
      "type": "function"
    },
    {
      "inputs": [],
      "name": "epoch",
      "outputs": [
        {
          "internalType": "uint256",
          "name": "",
          "type": "uint256"
        }
      ],
      "stateMutability": "view",
      "type": "function"
    },
    {
      "inputs": [],
      "name": "epochEven",
      "outputs": [
        {
          "internalType": "uint256",
          "name": "start",
          "type": "uint256"
        },
        {
          "internalType": "uint256",
          "name": "end",
          "type": "uint256"
        },
        {
          "internalType": "uint256",
          "name": "inflation",
          "type": "uint256"
        },
        {
          "internalType": "uint256",
          "name": "weight",
          "type": "uint256"
        },
        {
          "internalType": "uint256",
          "name": "weightDeposit",
          "type": "uint256"
        },
        {
          "internalType": "uint256",
          "name": "weightWithdrawal",
          "type": "uint256"
        },
        {
          "internalType": "uint256",
          "name": "vcount",
          "type": "uint256"
        },
        {
          "internalType": "uint256",
          "name": "claimed",
          "type": "uint256"
        },
        {
          "internalType": "uint256",
          "name": "stakeDeposit",
          "type": "uint256"
        },
        {
          "internalType": "uint256",
          "name": "stakeWithdrawal",
          "type": "uint256"
        },
        {
          "internalType": "uint256",
          "name": "slashed",
          "type": "uint256"
        }
      ],
      "stateMutability": "view",
      "type": "function"
    },
    {
      "inputs": [],
      "name": "epochExtraMinDuration",
      "outputs": [
        {
          "internalType": "uint256",
          "name": "",
          "type": "uint256"
        }
      ],
      "stateMutability": "view",
      "type": "function"
    },
    {
      "inputs": [
        {
          "internalType": "uint256",
          "name": "_epoch",
          "type": "uint256"
        }
      ],
      "name": "epochInflation",
      "outputs": [
        {
          "internalType": "uint256",
          "name": "",
          "type": "uint256"
        }
      ],
      "stateMutability": "view",
      "type": "function"
    },
    {
      "inputs": [],
      "name": "epochMinDuration",
      "outputs": [
        {
          "internalType": "uint256",
          "name": "",
          "type": "uint256"
        }
      ],
      "stateMutability": "view",
      "type": "function"
    },
    {
      "inputs": [],
      "name": "epochMinDurationThreshold",
      "outputs": [
        {
          "internalType": "uint256",
          "name": "",
          "type": "uint256"
        }
      ],
      "stateMutability": "view",
      "type": "function"
    },
    {
      "inputs": [],
      "name": "epochOdd",
      "outputs": [
        {
          "internalType": "uint256",
          "name": "start",
          "type": "uint256"
        },
        {
          "internalType": "uint256",
          "name": "end",
          "type": "uint256"
        },
        {
          "internalType": "uint256",
          "name": "inflation",
          "type": "uint256"
        },
        {
          "internalType": "uint256",
          "name": "weight",
          "type": "uint256"
        },
        {
          "internalType": "uint256",
          "name": "weightDeposit",
          "type": "uint256"
        },
        {
          "internalType": "uint256",
          "name": "weightWithdrawal",
          "type": "uint256"
        },
        {
          "internalType": "uint256",
          "name": "vcount",
          "type": "uint256"
        },
        {
          "internalType": "uint256",
          "name": "claimed",
          "type": "uint256"
        },
        {
          "internalType": "uint256",
          "name": "stakeDeposit",
          "type": "uint256"
        },
        {
          "internalType": "uint256",
          "name": "stakeWithdrawal",
          "type": "uint256"
        },
        {
          "internalType": "uint256",
          "name": "slashed",
          "type": "uint256"
        }
      ],
      "stateMutability": "view",
      "type": "function"
    },
    {
      "inputs": [],
      "name": "epochZeroMinDuration",
      "outputs": [
        {
          "internalType": "uint256",
          "name": "",
          "type": "uint256"
        }
      ],
      "stateMutability": "view",
      "type": "function"
    },
    {
      "inputs": [],
      "name": "finalizationPhaseAddress",
      "outputs": [
        {
          "internalType": "address",
          "name": "",
          "type": "address"
        }
      ],
      "stateMutability": "view",
      "type": "function"
    },
    {
      "inputs": [],
      "name": "finalized",
      "outputs": [
        {
          "internalType": "uint256",
          "name": "",
          "type": "uint256"
        }
      ],
      "stateMutability": "view",
      "type": "function"
    },
    {
      "inputs": [
        {
          "internalType": "bytes32",
          "name": "role",
          "type": "bytes32"
        }
      ],
      "name": "getRoleAdmin",
      "outputs": [
        {
          "internalType": "bytes32",
          "name": "",
          "type": "bytes32"
        }
      ],
      "stateMutability": "view",
      "type": "function"
    },
    {
      "inputs": [
        {
          "internalType": "bytes32",
          "name": "role",
          "type": "bytes32"
        },
        {
          "internalType": "address",
          "name": "account",
          "type": "address"
        }
      ],
      "name": "grantRole",
      "outputs": [],
      "stateMutability": "nonpayable",
      "type": "function"
    },
    {
      "inputs": [
        {
          "internalType": "bytes32",
          "name": "role",
          "type": "bytes32"
        },
        {
          "internalType": "address",
          "name": "account",
          "type": "address"
        }
      ],
      "name": "hasRole",
      "outputs": [
        {
          "internalType": "bool",
          "name": "",
          "type": "bool"
        }
      ],
      "stateMutability": "view",
      "type": "function"
    },
    {
      "inputs": [],
      "name": "idlenessPhaseAddress",
      "outputs": [
        {
          "internalType": "address",
          "name": "",
          "type": "address"
        }
      ],
      "stateMutability": "view",
      "type": "function"
    },
    {
      "inputs": [],
      "name": "inflationEpoch",
      "outputs": [
        {
          "internalType": "uint256",
          "name": "",
          "type": "uint256"
        }
      ],
      "stateMutability": "view",
      "type": "function"
    },
    {
      "inputs": [
        {
          "internalType": "uint256",
          "name": "_inauguralTimestamp",
          "type": "uint256"
        }
      ],
      "name": "inflationInit",
      "outputs": [],
      "stateMutability": "nonpayable",
      "type": "function"
    },
    {
      "inputs": [
        {
          "internalType": "uint256",
          "name": "_epochTo",
          "type": "uint256"
        }
      ],
      "name": "inflationReceive",
      "outputs": [],
      "stateMutability": "payable",
      "type": "function"
    },
    {
      "inputs": [],
      "name": "inflationRequestThreshold",
      "outputs": [
        {
          "internalType": "uint256",
          "name": "",
          "type": "uint256"
        }
      ],
      "stateMutability": "view",
      "type": "function"
    },
    {
      "inputs": [
        {
          "internalType": "uint256",
          "name": "",
          "type": "uint256"
        }
      ],
      "name": "inflationRequested",
      "outputs": [
        {
          "internalType": "bool",
          "name": "",
          "type": "bool"
        }
      ],
      "stateMutability": "view",
      "type": "function"
    },
    {
      "inputs": [],
      "name": "inflationSupply",
      "outputs": [
        {
          "internalType": "uint256",
          "name": "",
          "type": "uint256"
        }
      ],
      "stateMutability": "view",
      "type": "function"
    },
    {
      "inputs": [],
      "name": "inflationTargetAhead",
      "outputs": [
        {
          "internalType": "uint256",
          "name": "",
          "type": "uint256"
        }
      ],
      "stateMutability": "view",
      "type": "function"
    },
    {
      "inputs": [],
      "name": "l2GasLimit",
      "outputs": [
        {
          "internalType": "uint256",
          "name": "",
          "type": "uint256"
        }
      ],
      "stateMutability": "view",
      "type": "function"
    },
    {
      "inputs": [],
      "name": "l2GasPrice",
      "outputs": [
        {
          "internalType": "uint256",
          "name": "",
          "type": "uint256"
        }
      ],
      "stateMutability": "view",
      "type": "function"
    },
    {
      "inputs": [],
      "name": "maxValidators",
      "outputs": [
        {
          "internalType": "uint256",
          "name": "",
          "type": "uint256"
        }
      ],
      "stateMutability": "view",
      "type": "function"
    },
    {
      "inputs": [
        {
          "internalType": "address",
          "name": "",
          "type": "address"
        }
      ],
      "name": "operatorsToValidators",
      "outputs": [
        {
          "internalType": "address",
          "name": "",
          "type": "address"
        }
      ],
      "stateMutability": "view",
      "type": "function"
    },
    {
      "inputs": [],
      "name": "owner",
      "outputs": [
        {
          "internalType": "address",
          "name": "",
          "type": "address"
        }
      ],
      "stateMutability": "view",
      "type": "function"
    },
    {
      "inputs": [],
      "name": "pendingOwner",
      "outputs": [
        {
          "internalType": "address",
          "name": "",
          "type": "address"
        }
      ],
      "stateMutability": "view",
      "type": "function"
    },
    {
      "inputs": [],
      "name": "pendingRequestInflationFromL1",
      "outputs": [
        {
          "internalType": "bool",
          "name": "",
          "type": "bool"
        }
      ],
      "stateMutability": "view",
      "type": "function"
    },
    {
      "inputs": [],
      "name": "reductionFactor",
      "outputs": [
        {
          "internalType": "uint256",
          "name": "",
          "type": "uint256"
        }
      ],
      "stateMutability": "view",
      "type": "function"
    },
    {
      "inputs": [],
      "name": "renounceOwnership",
      "outputs": [],
      "stateMutability": "nonpayable",
      "type": "function"
    },
    {
      "inputs": [
        {
          "internalType": "bytes32",
          "name": "role",
          "type": "bytes32"
        },
        {
          "internalType": "address",
          "name": "callerConfirmation",
          "type": "address"
        }
      ],
      "name": "renounceRole",
      "outputs": [],
      "stateMutability": "nonpayable",
      "type": "function"
    },
    {
      "inputs": [],
      "name": "revealingPhaseAddress",
      "outputs": [
        {
          "internalType": "address",
          "name": "",
          "type": "address"
        }
      ],
      "stateMutability": "view",
      "type": "function"
    },
    {
      "inputs": [
        {
          "internalType": "bytes32",
          "name": "role",
          "type": "bytes32"
        },
        {
          "internalType": "address",
          "name": "account",
          "type": "address"
        }
      ],
      "name": "revokeRole",
      "outputs": [],
      "stateMutability": "nonpayable",
      "type": "function"
    },
    {
      "inputs": [
        {
          "internalType": "uint256",
          "name": "_targetEpoch",
          "type": "uint256"
        }
      ],
      "name": "sendInflationRequestToL1",
      "outputs": [],
      "stateMutability": "nonpayable",
      "type": "function"
    },
    {
      "inputs": [],
      "name": "sendTestToL1",
      "outputs": [],
      "stateMutability": "nonpayable",
      "type": "function"
    },
    {
      "inputs": [],
      "name": "stakingInvariant",
      "outputs": [
        {
          "internalType": "address",
          "name": "",
          "type": "address"
        }
      ],
      "stateMutability": "view",
      "type": "function"
    },
    {
      "inputs": [
        {
          "internalType": "bytes4",
          "name": "interfaceId",
          "type": "bytes4"
        }
      ],
      "name": "supportsInterface",
      "outputs": [
        {
          "internalType": "bool",
          "name": "",
          "type": "bool"
        }
      ],
      "stateMutability": "view",
      "type": "function"
    },
    {
      "inputs": [],
      "name": "transactionFeesManager",
      "outputs": [
        {
          "internalType": "address",
          "name": "",
          "type": "address"
        }
      ],
      "stateMutability": "view",
      "type": "function"
    },
    {
      "inputs": [
        {
          "internalType": "address",
          "name": "newOwner",
          "type": "address"
        }
      ],
      "name": "transferOwnership",
      "outputs": [],
      "stateMutability": "nonpayable",
      "type": "function"
    },
    {
      "inputs": [],
      "name": "validatorMinStake",
      "outputs": [
        {
          "internalType": "uint256",
          "name": "",
          "type": "uint256"
        }
      ],
      "stateMutability": "view",
      "type": "function"
    },
    {
      "inputs": [
        {
          "internalType": "uint256",
          "name": "",
          "type": "uint256"
        }
      ],
      "name": "validatorsEven",
      "outputs": [
        {
          "internalType": "address",
          "name": "",
          "type": "address"
        }
      ],
      "stateMutability": "view",
      "type": "function"
    },
    {
      "inputs": [
        {
          "internalType": "uint256",
          "name": "",
          "type": "uint256"
        }
      ],
      "name": "validatorsJoined",
      "outputs": [
        {
          "internalType": "address",
          "name": "",
          "type": "address"
        }
      ],
      "stateMutability": "view",
      "type": "function"
    },
    {
      "inputs": [
        {
          "internalType": "uint256",
          "name": "",
          "type": "uint256"
        }
      ],
      "name": "validatorsOdd",
      "outputs": [
        {
          "internalType": "address",
          "name": "",
          "type": "address"
        }
      ],
      "stateMutability": "view",
      "type": "function"
    },
    {
      "inputs": [
        {
          "internalType": "uint256",
          "name": "",
          "type": "uint256"
        }
      ],
      "name": "weightsEven",
      "outputs": [
        {
          "internalType": "uint256",
          "name": "",
          "type": "uint256"
        }
      ],
      "stateMutability": "view",
      "type": "function"
    },
    {
      "inputs": [
        {
          "internalType": "uint256",
          "name": "",
          "type": "uint256"
        }
      ],
      "name": "weightsOdd",
      "outputs": [
        {
          "internalType": "uint256",
          "name": "",
          "type": "uint256"
        }
      ],
      "stateMutability": "view",
      "type": "function"
    }
  ],
  "bytecode": "0x60808060405234601557612005908161001b8239f35b600080fdfe6080604052600436101561001257600080fd5b60003560e01c8063019f89f5146112c757806301ffc9a71461127157806308ac5256146112535780630a3cfb13146111eb5780630ab07e88146111cd5780631538faf2146111af57806318a3b8821461117e5780631bc2359a14611160578063217fcc3e14610a505780632272e0ab1461114257806322f51dbd146110d857806324147f67146110ba57806324840a5e14611091578063248a9ca31461106b57806326ed4c70146110485780632f2ff15d1461101757806336568abe14610fd15780633ab76e9f14610fa85780633b0da62314610f705780633fde6d7b14610f5257806344df8e7014610e8d5780634971ec0214610e6a5780634c12b33f14610e4c5780634f2938fc14610e23578063624a448514610e055780636378eba314610de757806367604d2714610dc9578063715018a614610d48578063746e4ac714610d0a5780637492100f14610ce857806379073e6e14610cb057806379ba509714610bff5780637a518c1a14610b205780637a5d266014610af75780637e1233a914610ada5780638377259514610abd57806387e51da914610a555780638b7e92a614610a505780638da5cb5b14610a1a578063900cf0cf146109fc578063900fd9ce146109be57806391d148541461096457806396be02a71461091e5780639ae3668514610900578063a01ebaa1146108dc578063a217fddf146108c0578063a8027c101461089d578063abfd6fa914610879578063ac78a04b1461085c578063b03df1f01461081a578063b3f05b97146107fc578063bc338e7f146107e0578063c0a604ad146107c2578063c3ff497714610740578063c498c95b1461071b578063cb17452f146106e0578063cd38347f146106b9578063cd8562351461069b578063cf6e65b71461067d578063d547741f14610645578063d7ef35441461061c578063da7a9b6a146105fe578063de8d9d3814610516578063de8eec64146104ed578063e30c3978146104b7578063e3c6b0ca14610499578063f2fde38b14610412578063f85683ef146103e9578063fafebac51461039f5763fb6fe7761461031e57600080fd5b3461039a57602036600319011261039a5760043560455481101561039a576000906045548110156103865760459091527fa80a8fcc11760162f08bb091d2c9389d07f2b73d0e996161dfac6f1043b5fc0b01546040516001600160a01b039091168152602090f35b634e487b7160e01b82526032600452602482fd5b600080fd5b3461039a57600036600319011261039a57601454601554906103e5601654601754601854601954601a54601b5491601c5493601d5495601e54976040519b8c9b8c611465565b0390f35b3461039a57600036600319011261039a57604a546040516001600160a01b039091168152602090f35b3461039a57602036600319011261039a5761042b61144f565b610433611e14565b600080516020611fb083398151915280546001600160a01b0319166001600160a01b03928316908117909155600080516020611f70833981519152549091167f38d16b8cac22d99fc7c124b9cd0de2d3fa1faef420bfe791d8c362d765e22700600080a3005b3461039a57600036600319011261039a576020600354604051908152f35b3461039a57600036600319011261039a57600080516020611fb0833981519152546040516001600160a01b039091168152602090f35b3461039a57600036600319011261039a576046546040516001600160a01b039091168152602090f35b602036600319011261039a5760043561052d611e35565b6001600160a01b0390811661111161111160901b01011633036105ed57600f54808211156105dc5781600f55600181018091116105c6575b8181111561059f577fa4dec8e49a9c449aceaa40312819be0acf42a63da5f0c7f5be784840602c60b96040838151903482526020820152a1005b6000818152605260205260409020805460ff1916905560001981146105c657600101610565565b634e487b7160e01b600052601160045260246000fd5b63719a0d3960e01b60005260046000fd5b636a10007b60e01b60005260046000fd5b3461039a57600036600319011261039a576020604254604051908152f35b3461039a57600036600319011261039a57600e546040516001600160a01b039091168152602090f35b3461039a57604036600319011261039a5761067b600435610664611439565b90610676610671826116be565b611c81565b611d74565b005b3461039a57600036600319011261039a576020604f54604051908152f35b3461039a57600036600319011261039a576020600454604051908152f35b3461039a57600036600319011261039a5760206040516b0d92289838d21a99680000008152f35b3461039a57600036600319011261039a5760206040517f155e7f76c52e49fe8308e62eabe3ce449c978443b7d8beb86992427229ec386f8152f35b3461039a57600036600319011261039a5760206040516908e4d3168276864000008152f35b3461039a57602036600319011261039a5760043561075c611e35565b6001600160a01b0390811661111161111160901b01011633036105ed57601f546107b1576020817f076a5ddab2a5c0052b34c2297e0db5ae2ee770ddce71986024620217b0ef1fdf92601f55604051908152a1005b639ded3b1560e01b60005260046000fd5b3461039a57600036600319011261039a576020600f54604051908152f35b3461039a57600036600319011261039a57602060405160648152f35b3461039a57600036600319011261039a576020601254604051908152f35b3461039a57602036600319011261039a576001600160a01b0361083b61144f565b166000526034602052602060018060a01b0360406000205416604051908152f35b3461039a57600036600319011261039a5760206040516101f48152f35b3461039a57600036600319011261039a576020604051680246ddf979766800008152f35b3461039a57600036600319011261039a576020604051660aa87bee537fff198152f35b3461039a57600036600319011261039a57602060405160008152f35b3461039a57600036600319011261039a576020604051684e1003b28d928000008152f35b3461039a57600036600319011261039a576020604e54604051908152f35b3461039a57600036600319011261039a57601f54602054906103e5602154602254602354602454602554602654916027549360285495602954976040519b8c9b8c611465565b3461039a57604036600319011261039a5761097d611439565b600435600052600080516020611f9083398151915260205260406000209060018060a01b0316600052602052602060ff604060002054166040519015158152f35b3461039a57602036600319011261039a57600435602b5481101561039a57600090602b5481101561038657602082602b829452200154604051908152f35b3461039a57600036600319011261039a576020601154604051908152f35b3461039a57600036600319011261039a57600080516020611f70833981519152546040516001600160a01b039091168152602090f35b61141c565b3461039a57602036600319011261039a57600435602c5481101561039a57600090602c5481101561038657602c9091527f7416c943b4a09859521022fd2e90eac0dd9026dad28fa317782a135f28a8609101546040516001600160a01b039091168152602090f35b3461039a57600036600319011261039a576020604051611d4c8152f35b3461039a57600036600319011261039a5760206040516180088152f35b3461039a57600036600319011261039a576049546040516001600160a01b039091168152602090f35b3461039a57602036600319011261039a57600435610b3c611e14565b610b79602060405160018282015283604082015260408152610b5f60608261162e565b604051809381926318be12c960e21b835260048301611675565b038160006180085af18015610bf357610bc4575b507f254aef78ab3f94771c17ad15d2765d19e01db562b4470c0a5c6960185ab529b26040604e54604f5482519182526020820152a2005b6020813d602011610beb575b81610bdd6020938361162e565b8101031261039a5751610b8d565b3d9150610bd0565b6040513d6000823e3d90fd5b3461039a57600036600319011261039a57600080516020611fb083398151915254336001600160a01b0390911603610c9b57600080516020611fb083398151915280546001600160a01b0319908116909155600080516020611f7083398151915280543392811683179091556001600160a01b03167f8be0079c531659141344cd1fd0a4f28419497f9722a3daafe3b4186f6b6457e0600080a3005b63118cdaa760e01b6000523360045260246000fd5b3461039a57602036600319011261039a576004356103e88102908082046103e814901517156105c65760209061271060405191048152f35b3461039a57600036600319011261039a576020604051668e1bc9bf0400008152f35b3461039a57602036600319011261039a57600435602a5481101561039a57600090602a5481101561038657602082602a829452200154604051908152f35b3461039a57600036600319011261039a57610d61611e14565b600080516020611fb083398151915280546001600160a01b0319908116909155600080516020611f70833981519152805491821690556000906001600160a01b03167f8be0079c531659141344cd1fd0a4f28419497f9722a3daafe3b4186f6b6457e08280a3005b3461039a57600036600319011261039a576020604054604051908152f35b3461039a57600036600319011261039a576020600054604051908152f35b3461039a57600036600319011261039a576020605054604051908152f35b3461039a57600036600319011261039a576048546040516001600160a01b039091168152602090f35b3461039a57600036600319011261039a576020601354604051908152f35b3461039a57600036600319011261039a576020604051670214e8348c4f00008152f35b3461039a57600036600319011261039a576013548015610f41576000601355610ecf602060405160018282015283604082015260408152610b5f60608261162e565b038160006180085af18015610bf357610f10575b7f98e0d9ae5770534ab17c57681d61e5b9c9afc53c1ca1706d558406dcffca2d0a602083604051908152a1005b6020813d602011610f39575b81610f296020938361162e565b8101031261039a57506020610ee3565b3d9150610f1c565b6396191d4560e01b60005260046000fd5b3461039a57600036600319011261039a576020600154604051908152f35b3461039a57602036600319011261039a576004356101f48102908082046101f414901517156105c65760209061271060405191048152f35b3461039a57600036600319011261039a576047546040516001600160a01b039091168152602090f35b3461039a57604036600319011261039a57610fea611439565b336001600160a01b038216036110065761067b90600435611d74565b63334bd91960e11b60005260046000fd5b3461039a57604036600319011261039a5761067b600435611036611439565b90611043610671826116be565b611ccb565b3461039a57600036600319011261039a57602060ff605354166040519015158152f35b3461039a57602036600319011261039a5760206110896004356116be565b604051908152f35b3461039a57600036600319011261039a576044546040516001600160a01b039091168152602090f35b3461039a57600036600319011261039a576020605154604051908152f35b3461039a57600036600319011261039a576111056020604051600282820152818152610b5f60408261162e565b038160006180085af18015610bf35761111a57005b61067b9060203d60201161113b575b611133818361162e565b810190611666565b503d611129565b3461039a57600036600319011261039a576020604154604051908152f35b3461039a57600036600319011261039a576020600254604051908152f35b3461039a57602036600319011261039a576004356000526052602052602060ff604060002054166040519015158152f35b3461039a57600036600319011261039a576020604354604051908152f35b3461039a57600036600319011261039a576020601054604051908152f35b3461039a57602036600319011261039a57600435602d5481101561039a57600090602d5481101561038657602d9091527f4a2cc91ee622da3bc833a54c37ffcb6f3ec23b7793efc5eaf5e71b7b406c5c0601546040516001600160a01b039091168152602090f35b3461039a57600036600319011261039a576020600554604051908152f35b3461039a57602036600319011261039a5760043563ffffffff60e01b811680910361039a57602090637965db0b60e01b81149081156112b6575b506040519015158152f35b6301ffc9a760e01b149050826112ab565b3461039a57602036600319011261039a57600435600181018091116105c6576112ef906114b1565b670186cc6acd4b000090684e1003b28d927fffff1981019081136001166105c657611340906000908181129061133390660aa87bee538000908361140d5790611ecd565b915015611404575b611858565b9081670de0b6b3a7640000019182126001166105c6576000821280159261136c92916113f55790611f3d565b906001036113e7575b670214e8348c4f000003670214e8348c4f000081116105c6576113a168138400eca364a00000916114b1565b04806b0d92289838d21a996800000002906b0d92289838d21a99680000008204036105c657670de0b6b3a76400006113de6020926000549061160e565b04604051908152f35b6113f0906116df565b611375565b6113fe906116df565b90611f3d565b61133b906116df565b611416906116df565b90611ecd565b3461039a57600036600319011261039a5760206040516103e88152f35b602435906001600160a01b038216820361039a57565b600435906001600160a01b038216820361039a57565b979491926101409996939c9b9a9794919c6101608a019d8a5260208a015260408901526060880152608087015260a086015260c085015260e08401526101008301526101208201520152565b90670de0b6b3a7640000820291808304670de0b6b3a764000014901517156105c657565b906803782dace9d8ffffff1982019182136001166105c657565b906806f05b59d3b1ffffff1982019182136001166105c657565b9068ad78ebc5ac61ffffff1982019182136001166105c657565b906856bc75e2d630ffffff1982019182136001166105c657565b90682b5e3af16b187fffff1982019182136001166105c657565b906815af1d78b58c3fffff1982019182136001166105c657565b90680ad78ebc5ac61fffff1982019182136001166105c657565b9068056bc75e2d630fffff1982019182136001166105c657565b906802b5e3af16b187ffff1982019182136001166105c657565b9068015af1d78b58c3ffff1982019182136001166105c657565b908168056bc75e2d63100000019182126001166105c657565b919091600083820193841291129080158216911516176105c657565b8115611618570490565b634e487b7160e01b600052601260045260246000fd5b90601f8019910116810190811067ffffffffffffffff82111761165057604052565b634e487b7160e01b600052604160045260246000fd5b9081602091031261039a575190565b91909160208152825180602083015260005b8181106116a8575060409293506000838284010152601f8019910116010190565b8060208092870101516040828601015201611687565b600052600080516020611f9083398151915260205260016040600020015490565b600160ff1b81146105c65760000390565b906064820291808305606414901517156105c657565b906b02df0ab5a80a22c61ab5a7008202918083056b02df0ab5a80a22c61ab5a70014901517156105c657565b90693f1fce3da636ea5cf850820291808305693f1fce3da636ea5cf85014901517156105c657565b90690127fa27722cc06cc5e2820291808305690127fa27722cc06cc5e214901517156105c657565b9068280e60114edb805d0382029180830568280e60114edb805d0314901517156105c657565b90680ebc5fb41746121110820291808305680ebc5fb4174612111014901517156105c657565b906808f00f760a4b2db55d8202918083056808f00f760a4b2db55d14901517156105c657565b906806f5f17757889379378202918083056806f5f177578893793714901517156105c657565b818102929160008212600160ff1b8214166105c65781840514901517156105c657565b811561161857600160ff1b81146000198314166105c6570590565b680238fd42c5cf03ffff1981121580611c6e575b61187590611f0d565b60008112611c49576806f05b59d3b20000008112611c0f57611896906114ef565b6118b8770195e54c5dd42177f53a27172fa9ec630262827000000000916116f0565b68056bc75e2d631000009068ad78ebc5ac62000000811215611bef575b6856bc75e2d631000000811215611bd4575b682b5e3af16b18800000811215611bb9575b6815af1d78b58c400000811215611b9e575b680ad78ebc5ac6200000811215611b83575b68056bc75e2d63100000811215611b68575b6802b5e3af16b1880000811215611b4d575b68015af1d78b58c40000811215611b23575b808080808080808080611965816115d9565b61196f828061181a565b68056bc75e2d63100000900560029005908161198a916115f2565b916119949161181a565b68056bc75e2d6310000090056003900590816119af916115f2565b916119b99161181a565b68056bc75e2d6310000090056004900590816119d4916115f2565b916119de9161181a565b68056bc75e2d6310000090056005900590816119f9916115f2565b91611a039161181a565b68056bc75e2d631000009005600690059081611a1e916115f2565b91611a289161181a565b68056bc75e2d631000009005600790059081611a43916115f2565b91611a4d9161181a565b68056bc75e2d631000009005600890059081611a68916115f2565b91611a729161181a565b68056bc75e2d631000009005600990059081611a8d916115f2565b91611a979161181a565b68056bc75e2d631000009005600a90059081611ab2916115f2565b91611abc9161181a565b68056bc75e2d631000009005600b90059081611ad7916115f2565b91611ae19161181a565b68056bc75e2d631000009005600c9005611afa916115f2565b611b039161181a565b68056bc75e2d63100000900590611b199161181a565b6064900590565b90565b611b38611b32611b47926115bf565b926117f4565b68056bc75e2d63100000900590565b90611953565b611b38611b5c611b62926115a5565b926117ce565b90611941565b611b38611b77611b7d9261158b565b926117a8565b9061192f565b611b38611b92611b9892611571565b92611782565b9061191d565b611b38611bad611bb392611557565b9261175a565b9061190b565b611b38611bc8611bce9261153d565b92611732565b906118f9565b611b38611be3611be992611523565b92611706565b906118e7565b611bf99150611509565b6e01855144814a7ff805980ff0084000906118d5565b6803782dace9d90000008112611c3e57611c28906114d5565b6118b86b1425982cf597cd205cef7380916116f0565b6118b86001916116f0565b611c6561133b6ec097ce7bc90715b34b9f1000000000926116df565b611b209161183d565b5068070c1cc73b00c8000081131561186c565b6000818152600080516020611f908339815191526020908152604080832033845290915290205460ff1615611cb35750565b63e2517d3f60e01b6000523360045260245260446000fd5b6000818152600080516020611f90833981519152602090815260408083206001600160a01b038616845290915290205460ff16611d6d576000818152600080516020611f90833981519152602090815260408083206001600160a01b0395909516808452949091528120805460ff19166001179055339291907f2f8788117e7eff1d82e926ec794901d17c78024a50270940304540a733656f0d9080a4600190565b5050600090565b6000818152600080516020611f90833981519152602090815260408083206001600160a01b038616845290915290205460ff1615611d6d576000818152600080516020611f90833981519152602090815260408083206001600160a01b0395909516808452949091528120805460ff19169055339291907ff6391f5c32d9c69d2a47ea670b442974b53935d1edc7fd64eb21e047a839171b9080a4600190565b600080516020611f70833981519152546001600160a01b03163303610c9b57565b604754604051631bae711d60e21b8152602060048201819052600360248301526223b2b760e91b60448301529091829060649082906001600160a01b03165afa908115610bf357600091611e87575090565b6020813d602011611ec5575b81611ea06020938361162e565b81010312611ec15751906001600160a01b0382168203611ebe575090565b80fd5b5080fd5b3d9150611e93565b8181029181830414901517156105c65780611ee85750600090565b60001981019081116105c657670de0b6b3a76400009004600181018091116105c65790565b15611f1457565b62461bcd60e51b6000908152602060045260076024526642414c2330303960c81b604452606490fd5b9081611f4a575050600090565b670de0b6b3a76400008202918204670de0b6b3a7640000036105c657611b209161160e56fe9016d09d72d40fdae2fd8ceac6b6234c7706214fd39c1cd1e609a0528c19930002dd7bc7dec4dceedda775e58dd541e08a116c6c53815c0bd028192f7b626800237e158222e3e6968b72b9db0d8043aacf074ad9f650f0d1606b4d82ee432c00a2646970667358221220b55607b8a0c208ea1d6a9905fda3c1dc1280cbd71cd16ac59942b883846b9f0f64736f6c634300081c0033",
  "linkReferences": {},
  "deployedLinkReferences": {}
}