{
  "_format": "hh-sol-artifact-1",
  "contractName": "GhostBlueprint",
  "sourceName": "contracts/ghost_contracts/GhostBlueprint.sol",
  "abi": [
    {
      "inputs": [],
      "name": "InvalidInitialization",
      "type": "error"
    },
    {
      "inputs": [],
      "name": "NotInitializing",
      "type": "error"
    },
    {
      "inputs": [
        {
          "internalType": "address",
          "name": "owner",
          "type": "address"
        }
      ],
      "name": "OwnableInvalidOwner",
      "type": "error"
    },
    {
      "inputs": [
        {
          "internalType": "address",
          "name": "account",
          "type": "address"
        }
      ],
      "name": "OwnableUnauthorizedAccount",
      "type": "error"
    },
    {
      "anonymous": false,
      "inputs": [
        {
          "indexed": false,
          "internalType": "uint64",
          "name": "version",
          "type": "uint64"
        }
      ],
      "name": "Initialized",
      "type": "event"
    },
    {
      "anonymous": false,
      "inputs": [
        {
          "indexed": true,
          "internalType": "address",
          "name": "previousOwner",
          "type": "address"
        },
        {
          "indexed": true,
          "internalType": "address",
          "name": "newOwner",
          "type": "address"
        }
      ],
      "name": "OwnershipTransferred",
      "type": "event"
    },
    {
      "anonymous": false,
      "inputs": [
        {
          "indexed": true,
          "internalType": "address",
          "name": "to",
          "type": "address"
        },
        {
          "indexed": false,
          "internalType": "bytes32",
          "name": "msgId",
          "type": "bytes32"
        },
        {
          "indexed": false,
          "internalType": "bytes",
          "name": "data",
          "type": "bytes"
        }
      ],
      "name": "TransactionExecuted",
      "type": "event"
    },
    {
      "inputs": [
        {
          "internalType": "uint256",
          "name": "_numOfInitialValidators",
          "type": "uint256"
        },
        {
          "internalType": "uint256",
          "name": "_maxRotations",
          "type": "uint256"
        },
        {
          "internalType": "bytes",
          "name": "_txData",
          "type": "bytes"
        },
        {
          "internalType": "uint256",
          "name": "_validUntil",
          "type": "uint256"
        }
      ],
      "name": "addTransaction",
      "outputs": [],
      "stateMutability": "payable",
      "type": "function"
    },
    {
      "inputs": [],
      "name": "getNonce",
      "outputs": [
        {
          "internalType": "uint256",
          "name": "",
          "type": "uint256"
        }
      ],
      "stateMutability": "view",
      "type": "function"
    },
    {
      "inputs": [
        {
          "internalType": "address",
          "name": "to",
          "type": "address"
        },
        {
          "internalType": "bytes32",
          "name": "msgId",
          "type": "bytes32"
        },
        {
          "internalType": "uint256",
          "name": "expectedNonce",
          "type": "uint256"
        },
        {
          "internalType": "bytes",
          "name": "data",
          "type": "bytes"
        }
      ],
      "name": "handleOp",
      "outputs": [],
      "stateMutability": "payable",
      "type": "function"
    },
    {
      "inputs": [
        {
          "internalType": "address",
          "name": "_owner",
          "type": "address"
        }
      ],
      "name": "initialize",
      "outputs": [],
      "stateMutability": "nonpayable",
      "type": "function"
    },
    {
      "inputs": [],
      "name": "owner",
      "outputs": [
        {
          "internalType": "address",
          "name": "",
          "type": "address"
        }
      ],
      "stateMutability": "view",
      "type": "function"
    },
    {
      "inputs": [],
      "name": "renounceOwnership",
      "outputs": [],
      "stateMutability": "nonpayable",
      "type": "function"
    },
    {
      "inputs": [
        {
          "internalType": "address",
          "name": "newOwner",
          "type": "address"
        }
      ],
      "name": "transferOwnership",
      "outputs": [],
      "stateMutability": "nonpayable",
      "type": "function"
    },
    {
      "inputs": [
        {
          "internalType": "address",
          "name": "to",
          "type": "address"
        },
        {
          "internalType": "uint256",
          "name": "amount",
          "type": "uint256"
        }
      ],
      "name": "withdrawValue",
      "outputs": [],
      "stateMutability": "payable",
      "type": "function"
    },
    {
      "stateMutability": "payable",
      "type": "receive"
    }
  ],
  "bytecode": "0x608080604052346015576108ad908161001b8239f35b600080fdfe6080604052600436101561001b575b361561001957600080fd5b005b60003560e01c80633fb17f10146104ca578063715018a6146104605780638da5cb5b1461042a578063b4f334d6146102ce578063b7068dca14610213578063c4d66de8146100c4578063d087d288146100a65763f2fde38b0361000e57346100a15760203660031901126100a157610019610094610675565b61009c6107d3565b61075d565b600080fd5b346100a15760003660031901126100a1576020600054604051908152f35b346100a15760203660031901126100a1576100dd610675565b6000805160206108588339815191525460ff8160401c16159167ffffffffffffffff82168015908161020b575b6001149081610201575b1590816101f8575b506101e75767ffffffffffffffff1982166001176000805160206108588339815191525561015b91836101ba575b50610153610809565b61009c610809565b600160005561016657005b60ff60401b196000805160206108588339815191525416600080516020610858833981519152557fc7f505b2f371ae2175ee4913f4499e1f2633a7b5936321eed1cdaeb6115181d2602060405160018152a1005b68ffffffffffffffffff19166801000000000000000117600080516020610858833981519152558361014a565b63f92ee8a960e01b60005260046000fd5b9050158461011c565b303b159150610114565b84915061010a565b60403660031901126100a157610227610675565b602435906102336107d3565b81471061029257600080809381935af161024b6106ec565b501561025357005b60405162461bcd60e51b815260206004820152601760248201527615985b1d59481dda5d1a191c985dd85b0819985a5b1959604a1b6044820152606490fd5b60405162461bcd60e51b8152602060048201526014602482015273496e73756666696369656e742062616c616e636560601b6044820152606490fd5b60803660031901126100a15760443567ffffffffffffffff81116100a157366023820112156100a1578060040135610305816106c3565b91610313604051938461068b565b81835236602483830101116100a157816000926024602093018386013783010152604051602081019163738ea8cb60e11b83523360248301523060448301526004356064830152602435608483015260c060a48301528051908160e484015260005b8281106104135760008085876103b061010483898683828401015260643560c4830152601f801991011681010301601f19810184528361068b565b6000805160206108388339815191525491519134906001600160a01b03165af16103d86106ec565b50156103e057005b60405162461bcd60e51b815260206004820152600b60248201526a10d85b1b0819985a5b195960aa1b6044820152606490fd5b806020809284010151610104828701015201610375565b346100a15760003660031901126100a157600080516020610838833981519152546040516001600160a01b039091168152602090f35b346100a15760003660031901126100a1576104796107d3565b60008051602061083883398151915280546001600160a01b031981169091556000906001600160a01b03167f8be0079c531659141344cd1fd0a4f28419497f9722a3daafe3b4186f6b6457e08280a3005b60803660031901126100a1576104de610675565b604435906064359067ffffffffffffffff82116100a157366023830112156100a15781600401359167ffffffffffffffff83116100a157602481019060248436920101116100a15761052e6107d3565b60005480851015908161065f575b501561062a577f4aacc1769103d0575734a31601a30d8f74c7843414f868342af438b4fdc4d78e9183916060913415610603576105976000806040518786823780888101838152039034865af16105916106ec565b5061071c565b6040519384926024358452604060208501528160408501528484013760008287018401526001600160a01b031694601f01601f19168101030190a26105df60005480926106df565b81018091116105ed57600055005b634e487b7160e01b600052601160045260246000fd5b6106256000806040518786823780888101838152039082865af16105916106ec565b610597565b60405162461bcd60e51b815260206004820152600d60248201526c496e76616c6964206e6f6e636560981b6044820152606490fd5b600a915061066d90866106df565b11158561053c565b600435906001600160a01b03821682036100a157565b90601f8019910116810190811067ffffffffffffffff8211176106ad57604052565b634e487b7160e01b600052604160045260246000fd5b67ffffffffffffffff81116106ad57601f01601f191660200190565b919082039182116105ed57565b3d15610717573d906106fd826106c3565b9161070b604051938461068b565b82523d6000602084013e565b606090565b1561072357565b60405162461bcd60e51b8152602060048201526012602482015271151c985b9cd858dd1a5bdb8819985a5b195960721b6044820152606490fd5b6001600160a01b031680156107bd5760008051602061083883398151915280546001600160a01b0319811683179091556001600160a01b03167f8be0079c531659141344cd1fd0a4f28419497f9722a3daafe3b4186f6b6457e0600080a3565b631e4fbdf760e01b600052600060045260246000fd5b600080516020610838833981519152546001600160a01b031633036107f457565b63118cdaa760e01b6000523360045260246000fd5b60ff6000805160206108588339815191525460401c161561082657565b631afcd79f60e31b60005260046000fdfe9016d09d72d40fdae2fd8ceac6b6234c7706214fd39c1cd1e609a0528c199300f0c57e16840df040f15088dc2f81fe391c3923bec73e23a9662efc9c229c6a00a264697066735822122048a6f93b2c4d7fea6bc0418c504f26239176a0eafb7257cfe71bfb7fdbf4d46664736f6c634300081c0033",
  "linkReferences": {},
  "deployedLinkReferences": {}
}