{
  "_format": "hh-sol-artifact-1",
  "contractName": "Appeals",
  "sourceName": "contracts/transactions/Appeals.sol",
  "abi": [
    {
      "inputs": [],
      "name": "AccessControlBadConfirmation",
      "type": "error"
    },
    {
      "inputs": [
        {
          "internalType": "address",
          "name": "account",
          "type": "address"
        },
        {
          "internalType": "bytes32",
          "name": "neededRole",
          "type": "bytes32"
        }
      ],
      "name": "AccessControlUnauthorizedAccount",
      "type": "error"
    },
    {
      "inputs": [],
      "name": "CanNotAppeal",
      "type": "error"
    },
    {
      "inputs": [],
      "name": "InvalidAppealBond",
      "type": "error"
    },
    {
      "inputs": [],
      "name": "InvalidInitialization",
      "type": "error"
    },
    {
      "inputs": [],
      "name": "InvalidTransactionStatus",
      "type": "error"
    },
    {
      "inputs": [],
      "name": "NotInitializing",
      "type": "error"
    },
    {
      "inputs": [
        {
          "internalType": "address",
          "name": "owner",
          "type": "address"
        }
      ],
      "name": "OwnableInvalidOwner",
      "type": "error"
    },
    {
      "inputs": [
        {
          "internalType": "address",
          "name": "account",
          "type": "address"
        }
      ],
      "name": "OwnableUnauthorizedAccount",
      "type": "error"
    },
    {
      "anonymous": false,
      "inputs": [
        {
          "indexed": false,
          "internalType": "uint64",
          "name": "version",
          "type": "uint64"
        }
      ],
      "name": "Initialized",
      "type": "event"
    },
    {
      "anonymous": false,
      "inputs": [
        {
          "indexed": true,
          "internalType": "address",
          "name": "previousOwner",
          "type": "address"
        },
        {
          "indexed": true,
          "internalType": "address",
          "name": "newOwner",
          "type": "address"
        }
      ],
      "name": "OwnershipTransferStarted",
      "type": "event"
    },
    {
      "anonymous": false,
      "inputs": [
        {
          "indexed": true,
          "internalType": "address",
          "name": "previousOwner",
          "type": "address"
        },
        {
          "indexed": true,
          "internalType": "address",
          "name": "newOwner",
          "type": "address"
        }
      ],
      "name": "OwnershipTransferred",
      "type": "event"
    },
    {
      "anonymous": false,
      "inputs": [
        {
          "indexed": true,
          "internalType": "bytes32",
          "name": "role",
          "type": "bytes32"
        },
        {
          "indexed": true,
          "internalType": "bytes32",
          "name": "previousAdminRole",
          "type": "bytes32"
        },
        {
          "indexed": true,
          "internalType": "bytes32",
          "name": "newAdminRole",
          "type": "bytes32"
        }
      ],
      "name": "RoleAdminChanged",
      "type": "event"
    },
    {
      "anonymous": false,
      "inputs": [
        {
          "indexed": true,
          "internalType": "bytes32",
          "name": "role",
          "type": "bytes32"
        },
        {
          "indexed": true,
          "internalType": "address",
          "name": "account",
          "type": "address"
        },
        {
          "indexed": true,
          "internalType": "address",
          "name": "sender",
          "type": "address"
        }
      ],
      "name": "RoleGranted",
      "type": "event"
    },
    {
      "anonymous": false,
      "inputs": [
        {
          "indexed": true,
          "internalType": "bytes32",
          "name": "role",
          "type": "bytes32"
        },
        {
          "indexed": true,
          "internalType": "address",
          "name": "account",
          "type": "address"
        },
        {
          "indexed": true,
          "internalType": "address",
          "name": "sender",
          "type": "address"
        }
      ],
      "name": "RoleRevoked",
      "type": "event"
    },
    {
      "inputs": [],
      "name": "DEFAULT_ADMIN_ROLE",
      "outputs": [
        {
          "internalType": "bytes32",
          "name": "",
          "type": "bytes32"
        }
      ],
      "stateMutability": "view",
      "type": "function"
    },
    {
      "inputs": [],
      "name": "acceptOwnership",
      "outputs": [],
      "stateMutability": "nonpayable",
      "type": "function"
    },
    {
      "inputs": [],
      "name": "addressManager",
      "outputs": [
        {
          "internalType": "contract IAddressManager",
          "name": "",
          "type": "address"
        }
      ],
      "stateMutability": "view",
      "type": "function"
    },
    {
      "inputs": [
        {
          "internalType": "bytes32",
          "name": "_txId",
          "type": "bytes32"
        }
      ],
      "name": "canAppeal",
      "outputs": [
        {
          "internalType": "bool",
          "name": "",
          "type": "bool"
        }
      ],
      "stateMutability": "view",
      "type": "function"
    },
    {
      "inputs": [
        {
          "internalType": "bytes32",
          "name": "role",
          "type": "bytes32"
        }
      ],
      "name": "getRoleAdmin",
      "outputs": [
        {
          "internalType": "bytes32",
          "name": "",
          "type": "bytes32"
        }
      ],
      "stateMutability": "view",
      "type": "function"
    },
    {
      "inputs": [
        {
          "internalType": "bytes32",
          "name": "role",
          "type": "bytes32"
        },
        {
          "internalType": "address",
          "name": "account",
          "type": "address"
        }
      ],
      "name": "grantRole",
      "outputs": [],
      "stateMutability": "nonpayable",
      "type": "function"
    },
    {
      "inputs": [
        {
          "internalType": "bytes32",
          "name": "role",
          "type": "bytes32"
        },
        {
          "internalType": "address",
          "name": "account",
          "type": "address"
        }
      ],
      "name": "hasRole",
      "outputs": [
        {
          "internalType": "bool",
          "name": "",
          "type": "bool"
        }
      ],
      "stateMutability": "view",
      "type": "function"
    },
    {
      "inputs": [
        {
          "internalType": "address",
          "name": "_addressManager",
          "type": "address"
        }
      ],
      "name": "initialize",
      "outputs": [],
      "stateMutability": "nonpayable",
      "type": "function"
    },
    {
      "inputs": [],
      "name": "owner",
      "outputs": [
        {
          "internalType": "address",
          "name": "",
          "type": "address"
        }
      ],
      "stateMutability": "view",
      "type": "function"
    },
    {
      "inputs": [],
      "name": "pendingOwner",
      "outputs": [
        {
          "internalType": "address",
          "name": "",
          "type": "address"
        }
      ],
      "stateMutability": "view",
      "type": "function"
    },
    {
      "inputs": [],
      "name": "renounceOwnership",
      "outputs": [],
      "stateMutability": "nonpayable",
      "type": "function"
    },
    {
      "inputs": [
        {
          "internalType": "bytes32",
          "name": "role",
          "type": "bytes32"
        },
        {
          "internalType": "address",
          "name": "callerConfirmation",
          "type": "address"
        }
      ],
      "name": "renounceRole",
      "outputs": [],
      "stateMutability": "nonpayable",
      "type": "function"
    },
    {
      "inputs": [
        {
          "internalType": "bytes32",
          "name": "role",
          "type": "bytes32"
        },
        {
          "internalType": "address",
          "name": "account",
          "type": "address"
        }
      ],
      "name": "revokeRole",
      "outputs": [],
      "stateMutability": "nonpayable",
      "type": "function"
    },
    {
      "inputs": [
        {
          "internalType": "address",
          "name": "_addressManager",
          "type": "address"
        }
      ],
      "name": "setAddressManager",
      "outputs": [],
      "stateMutability": "nonpayable",
      "type": "function"
    },
    {
      "inputs": [
        {
          "components": [
            {
              "internalType": "enum ITransactions.ResultType",
              "name": "result",
              "type": "uint8"
            },
            {
              "internalType": "enum ITransactions.VoteType",
              "name": "txExecutionResult",
              "type": "uint8"
            },
            {
              "internalType": "enum ITransactions.TransactionStatus",
              "name": "previousStatus",
              "type": "uint8"
            },
            {
              "internalType": "enum ITransactions.TransactionStatus",
              "name": "status",
              "type": "uint8"
            },
            {
              "internalType": "address",
              "name": "txOrigin",
              "type": "address"
            },
            {
              "internalType": "address",
              "name": "sender",
              "type": "address"
            },
            {
              "internalType": "address",
              "name": "recipient",
              "type": "address"
            },
            {
              "internalType": "address",
              "name": "activator",
              "type": "address"
            },
            {
              "internalType": "uint256",
              "name": "txSlot",
              "type": "uint256"
            },
            {
              "internalType": "uint256",
              "name": "initialRotations",
              "type": "uint256"
            },
            {
              "internalType": "uint256",
              "name": "numOfInitialValidators",
              "type": "uint256"
            },
            {
              "internalType": "uint256",
              "name": "epoch",
              "type": "uint256"
            },
            {
              "internalType": "bytes32",
              "name": "id",
              "type": "bytes32"
            },
            {
              "internalType": "bytes32",
              "name": "randomSeed",
              "type": "bytes32"
            },
            {
              "internalType": "bytes32",
              "name": "txExecutionHash",
              "type": "bytes32"
            },
            {
              "internalType": "bytes32",
              "name": "resultHash",
              "type": "bytes32"
            },
            {
              "internalType": "bytes",
              "name": "txCalldata",
              "type": "bytes"
            },
            {
              "internalType": "bytes",
              "name": "eqBlocksOutputs",
              "type": "bytes"
            },
            {
              "components": [
                {
                  "internalType": "uint256",
                  "name": "activationBlock",
                  "type": "uint256"
                },
                {
                  "internalType": "uint256",
                  "name": "processingBlock",
                  "type": "uint256"
                },
                {
                  "internalType": "uint256",
                  "name": "proposalBlock",
                  "type": "uint256"
                }
              ],
              "internalType": "struct ITransactions.ReadStateBlockRange[]",
              "name": "readStateBlockRanges",
              "type": "tuple[]"
            },
            {
              "internalType": "uint256",
              "name": "validUntil",
              "type": "uint256"
            },
            {
              "internalType": "uint256",
              "name": "value",
              "type": "uint256"
            },
            {
              "internalType": "uint256",
              "name": "lockedStorageUnitPrice",
              "type": "uint256"
            },
            {
              "internalType": "uint256",
              "name": "storageFeeUsed",
              "type": "uint256"
            }
          ],
          "internalType": "struct ITransactions.Transaction",
          "name": "_transaction",
          "type": "tuple"
        },
        {
          "internalType": "uint256",
          "name": "_appealBond",
          "type": "uint256"
        }
      ],
      "name": "submitAppeal",
      "outputs": [
        {
          "internalType": "address[]",
          "name": "appealValidators",
          "type": "address[]"
        },
        {
          "internalType": "uint256",
          "name": "round",
          "type": "uint256"
        },
        {
          "internalType": "address",
          "name": "newLeader",
          "type": "address"
        },
        {
          "internalType": "uint256",
          "name": "leaderIndex",
          "type": "uint256"
        },
        {
          "internalType": "bool",
          "name": "lastRoundLeaderTimeoutOrUndetermined",
          "type": "bool"
        },
        {
          "internalType": "enum ITransactions.TransactionStatus",
          "name": "status",
          "type": "uint8"
        },
        {
          "internalType": "enum ITransactions.TransactionStatus",
          "name": "previousStatus",
          "type": "uint8"
        }
      ],
      "stateMutability": "nonpayable",
      "type": "function"
    },
    {
      "inputs": [
        {
          "internalType": "bytes4",
          "name": "interfaceId",
          "type": "bytes4"
        }
      ],
      "name": "supportsInterface",
      "outputs": [
        {
          "internalType": "bool",
          "name": "",
          "type": "bool"
        }
      ],
      "stateMutability": "view",
      "type": "function"
    },
    {
      "inputs": [
        {
          "internalType": "address",
          "name": "newOwner",
          "type": "address"
        }
      ],
      "name": "transferOwnership",
      "outputs": [],
      "stateMutability": "nonpayable",
      "type": "function"
    }
  ],
  "bytecode": "0x60808060405234601557612605908161001b8239f35b600080fdfe608080604052600436101561001357600080fd5b60003560e01c90816301ffc9a714610d70575080630652b57a14610d2d578063248a9ca314610d075780632f2ff15d14610cd657806336568abe14610c9057806339e76e5c146108065780633ab76e9f146107dd578063715018a61461075c57806379ba50971461070c5780638da5cb5b146106d657806391d148541461067c578063a217fddf14610660578063bcf205f51461036f578063c4d66de8146101d4578063d547741f1461019c578063e30c3978146101665763f2fde38b146100da57600080fd5b34610161576020366003190112610161576100f3610dc3565b6100fb612057565b6000805160206125b083398151915280546001600160a01b0319166001600160a01b03928316908117909155600080516020612550833981519152549091167f38d16b8cac22d99fc7c124b9cd0de2d3fa1faef420bfe791d8c362d765e22700600080a3005b600080fd5b34610161576000366003190112610161576000805160206125b0833981519152546040516001600160a01b039091168152602090f35b34610161576040366003190112610161576101d26004356101bb610dd9565b906101cd6101c882610f2e565b612078565b61216b565b005b34610161576020366003190112610161576101ed610dc3565b600080516020612590833981519152549060ff8260401c1615916001600160401b03811680159081610367575b600114908161035d575b159081610354575b506103435767ffffffffffffffff1981166001176000805160206125908339815191525582610316575b5061025f612521565b610267612521565b61026f612521565b33156103005761027e33612453565b610286612521565b600080546001600160a01b0319166001600160a01b03929092169190911790556102ac57005b60ff60401b196000805160206125908339815191525416600080516020612590833981519152557fc7f505b2f371ae2175ee4913f4499e1f2633a7b5936321eed1cdaeb6115181d2602060405160018152a1005b631e4fbdf760e01b600052600060045260246000fd5b68ffffffffffffffffff191668010000000000000001176000805160206125908339815191525582610256565b63f92ee8a960e01b60005260046000fd5b9050158461022c565b303b159150610224565b84915061021a565b34610161576040366003190112610161576004356001600160401b038111610161576102e06003198236030112610161576040516103ac81610e03565b81600401356006811015610161578152602482013560058110156101615760208201526044820135600f8110156101615760408201526064820135600f81101561016157606082015261040160848301610def565b608082015261041260a48301610def565b60a082015261042360c48301610def565b60c082015261043460e48301610def565b60e08201526101048201356101008201526101248201356101208201526101448201356101408201526101648201356101608201526101848201356101808201526101a48201356101a08201526101c48201356101c08201526101e48201356101e08201526102048201356001600160401b038111610161576104bd9060043691850101610ec3565b6102008201526102248201356001600160401b038111610161576104e79060043691850101610ec3565b6102208201526102448201356001600160401b0381116101615782013660238201121561016157600481013561051c81610f0a565b9161052a6040519384610e87565b8183526020600460608286019402830101019036821161016157602401915b81831061062457610594856102c488876102408401526102648101356102608401526102848101356102808401526102a48101356102a084015201356102c0820152602435906112ee565b95936040939193519560e0870160e0885286518091526020610100890197019060005b8181106106055750505060208701526001600160a01b031660408601526060850152151560808401529192839261060191906105f79060a0860190610f21565b60c0840190610f21565b0390f35b82516001600160a01b03168952602098890198909201916001016105b7565b60608336031261016157602060609160405161063f81610e35565b85358152828601358382015260408601356040820152815201920191610549565b3461016157600036600319011261016157602060405160008152f35b3461016157604036600319011261016157610695610dd9565b60043560005260008051602061257083398151915260205260406000209060018060a01b0316600052602052602060ff604060002054166040519015158152f35b3461016157600036600319011261016157600080516020612550833981519152546040516001600160a01b039091168152602090f35b34610161576000366003190112610161576000805160206125b083398151915254336001600160a01b0390911603610747576101d233612453565b63118cdaa760e01b6000523360045260246000fd5b3461016157600036600319011261016157610775612057565b6000805160206125b083398151915280546001600160a01b0319908116909155600080516020612550833981519152805491821690556000906001600160a01b03167f8be0079c531659141344cd1fd0a4f28419497f9722a3daafe3b4186f6b6457e08280a3005b34610161576000366003190112610161576000546040516001600160a01b039091168152602090f35b3461016157602036600319011261016157600435602461082461220b565b91602061082f6122a4565b60405163ba15d63560e01b81526004810184905290949093849182906001600160a01b03165afa918215610bda57600092610c59575b50604051630d2bd90960e01b815292602090849060049082906001600160a01b03165afa928315610bda57600093610c24575b50600054604051631bae711d60e21b815260206004820181905260126024830152712a3930b739b0b1ba34b7b726b0b730b3b2b960711b6044830152909291839060649082906001600160a01b03165afa918215610bda57600092610be6575b5060405163255709e560e11b8152600481019190915290600090829060249082906001600160a01b03165afa908115610bda57600091610972575b506060015190600f82101561095c57602092600d610952931491612303565b6040519015158152f35b634e487b7160e01b600052602160045260246000fd5b3d8083833e6109818183610e87565b810190602081830312610bce578051906001600160401b038211610bd65701906102e082820312610bce57604051926109b984610e03565b82516006811015610bd257845260208301516005811015610bd25760208501526040830151600f811015610bd25760408501526060830151600f811015610bd2576060850152610a0b60808401610f4f565b6080850152610a1c60a08401610f4f565b60a0850152610a2d60c08401610f4f565b60c0850152610a3e60e08401610f4f565b60e08501526101008301516101008501526101208301516101208501526101408301516101408501526101608301516101608501526101808301516101808501526101a08301516101a08501526101c08301516101c08501526101e08301516101e08501526102008301516001600160401b038111610bd25782610ac3918501610f86565b6102008501526102208301516001600160401b038111610bd25782610ae9918501610f86565b6102208501526102408301516001600160401b038111610bd257830182601f82011215610bd257805191610b1c83610f0a565b93610b2a6040519586610e87565b83855260206060818701950284010192818411610bce57602001935b838510610b9257505050505082916102c09161024060609501526102608101516102608401526102808101516102808401526102a08101516102a084015201516102c082015290610933565b606085830312610bce576020606091604051610bad81610e35565b87518152828801518382015260408801516040820152815201940193610b46565b8280fd5b5080fd5b8380fd5b6040513d6000823e3d90fd5b9091506020813d602011610c1c575b81610c0260209383610e87565b8101031261016157610c15600091610f4f565b91906108f8565b3d9150610bf5565b9092506020813d602011610c51575b81610c4060209383610e87565b810103126101615751916064610898565b3d9150610c33565b9291506020833d602011610c88575b81610c7560209383610e87565b8101031261016157915190916020610865565b3d9150610c68565b3461016157604036600319011261016157610ca9610dd9565b336001600160a01b03821603610cc5576101d29060043561216b565b63334bd91960e11b60005260046000fd5b34610161576040366003190112610161576101d2600435610cf5610dd9565b90610d026101c882610f2e565b6120c2565b34610161576020366003190112610161576020610d25600435610f2e565b604051908152f35b3461016157602036600319011261016157610d46610dc3565b610d4e612057565b600080546001600160a01b0319166001600160a01b0392909216919091179055005b34610161576020366003190112610161576004359063ffffffff60e01b821680920361016157602091637965db0b60e01b8114908115610db2575b5015158152f35b6301ffc9a760e01b14905083610dab565b600435906001600160a01b038216820361016157565b602435906001600160a01b038216820361016157565b35906001600160a01b038216820361016157565b6102e081019081106001600160401b03821117610e1f57604052565b634e487b7160e01b600052604160045260246000fd5b606081019081106001600160401b03821117610e1f57604052565b604081019081106001600160401b03821117610e1f57604052565b61016081019081106001600160401b03821117610e1f57604052565b90601f801991011681019081106001600160401b03821117610e1f57604052565b6001600160401b038111610e1f57601f01601f191660200190565b81601f8201121561016157803590610eda82610ea8565b92610ee86040519485610e87565b8284526020838301011161016157816000926020809301838601378301015290565b6001600160401b038111610e1f5760051b60200190565b90600f82101561095c5752565b60005260008051602061257083398151915260205260016040600020015490565b51906001600160a01b038216820361016157565b60005b838110610f765750506000910152565b8181015183820152602001610f66565b81601f82011215610161578051610f9c81610ea8565b92610faa6040519485610e87565b8184526020828401011161016157610fc89160208085019101610f63565b90565b60609060208152600a6020820152692332b2a6b0b730b3b2b960b11b60408201520190565b5190811515820361016157565b9080601f8301121561016157815161101481610f0a565b926110226040519485610e87565b81845260208085019260051b82010192831161016157602001905b82821061104a5750505090565b6020809161105784610f4f565b81520191019061103d565b9080601f8301121561016157815161107981610f0a565b926110876040519485610e87565b81845260208085019260051b82010192831161016157602001905b8282106110af5750505090565b81518152602091820191016110a2565b906020916110d881518092818552858086019101610f63565b601f01601f1916010190565b908151600681101561095c5781526020820151600581101561095c57602082015261111760408301516040830190610f21565b61112960608301516060830190610f21565b60018060a01b03608083015116608082015260018060a01b0360a08301511660a082015260018060a01b0360c08301511660c082015260018060a01b0360e08301511660e08201526101008201516101008201526101208201516101208201526101408201516101408201526101608201516101608201526101808201516101808201526101a08201516101a08201526101c08201516101c08201526101e08201516101e08201526112056111f16102008401516102e06102008501526102e08401906110bf565b6102208401518382036102208501526110bf565b91610240810151928281036102408401526020808551928381520194019060005b818110611261575050506102c081610260829301516102608501526102808101516102808501526102a08101516102a0850152015191015290565b9091946020606060019260408951805183528481015185840152015160408201520196019101919091611226565b9291906112a66020916040865260408601906110e4565b930152565b9190608083820312610161578251906001600160401b038211610161576112d3918401610ffd565b9160208101519160606112e860408401610f4f565b92015190565b90916000918260018060a01b038454169160405190631bae711d60e21b825260206004830152600660248301526551756575657360d01b6044830152602082606481875afa91821561173057869261201b575b5061018081019160408351602482518094819362fd067160e41b8352600483015260018060a01b03165afa908115612010578791611fba575b5060208101805115159182611fa3575b82611f8b575b5081611e81575b50611e725760608101968751600f811015611e5e57600d14918215611e48575b82948951600f811015611e34578a51600f811015611e2057600514159081611e09575b81611e00575b81611df4575b50611de55760046113f56124c1565b6113fd61220b565b60206001600160a01b0361140f6122a4565b1660405194858092630d2bd90960e01b82525afa928315611c0b578c93611db0575b50875160405163ba15d63560e01b815260048101919091526001600160a01b03919091169990926020846024818e5afa938415611da5578d8095611d6b575b50508d51600f811015611d0e5790600d61148c92149085612303565b15611d5c576020604051809263bf40fac160e01b825281806114b060048201610fcb565b03915afa908115611c0b578c91611d22575b506001600160a01b031680611c70575b5060018060a01b03169486518c51600f811015611c1e5761150a906040519263073acf6960e31b845260048401526024830190610f21565b6020816044818a5afa908115611c0b578c91611c32575b508c51600f811015611c1e576004149081611c16575b506118cd575b50508451843b156118aa57604051634e8eb8bd60e01b8152816004820152600560248201528a60448201528a81606481838a5af180156118c2576118ae575b50843b156118aa5760405190634e8eb8bd60e01b8252600482015260076024820152896044820152898160648183895af1801561189f57908a91611886575b505085156117b857508851600f8110156117a4578892919060060361173b57956115fc9683604051809981958294637a0729bf60e11b84526004840161128f565b03925af19485156117305786809681968291611700575b50959697985b51600f8110156116ec57926002948051823b15610bd65760405190634e8eb8bd60e01b8252600482015260026024820152426044820152838160648183875af180156116e1579084916116cc575b50505b51813b15610bce578291606483926040519485938492634e8eb8bd60e01b84526004840152600660248401524260448401525af180156116c1576116ac575050565b6116b7828092610e87565b6116be5750565b80fd5b6040513d84823e3d90fd5b816116d691610e87565b610bce578238611667565b6040513d86823e3d90fd5b634e487b7160e01b82526021600452602482fd5b9298505095506117239194503d8087833e61171b8183610e87565b8101906112ab565b9297919690959238611613565b6040513d88823e3d90fd5b506044845183604051988994859363a12c6af760e01b8552600485015260248401525af1948515611730578680968196829161177c575b5095969798611619565b9298505095506117979194503d8087833e61171b8183610e87565b9297919690959238611772565b634e487b7160e01b89526021600452602489fd5b96916117e19689928360409c97969c51809a819582946371fc631160e01b84526004840161128f565b03925af196871561187a57809781968291611822575b50959798600a9451600f81101561180e579361166a565b634e487b7160e01b83526021600452602483fd5b98505094503d8086893e6118368189610e87565b87016060888203126118765787516001600160401b038111611872579061185e918901610ffd565b9460406020890151980151959795386117f7565b8680fd5b8580fd5b604051903d90823e3d90fd5b8161189091610e87565b61189b5788386115bb565b8880fd5b6040513d8c823e3d90fd5b8980fd5b8a6118bb919b929b610e87565b983861157c565b6040513d8d823e3d90fd5b60606101406040516118de81610e6b565b8d81528d60208201528d60408201528d838201528d60808201528d60a08201528d60c08201528260e08201528261010082015282610120820152015260405163a6cd198d60e01b8152604060048201528b818b818381611941604482018c6110e4565b82602483015203925af18015611c0b578c918d916119f7575b5060e0810151805191826119b7575b5050506001600160a01b038416611980575061153d565b975097509993509796935050505190600f8210156119a357606096959493929190565b634e487b7160e01b85526021600452602485fd5b60200151929550908210156119e35760059190911b01602001516001600160a01b031692388080611969565b634e487b7160e01b8d52603260045260248dfd5b9150503d808d833e611a098183610e87565b8101908082039060e08212611bd057600681511015611bd057611a2e60208201610ff0565b50611a3b60408201610ff0565b50606081015191600f831015611c075760808201516001600160401b038111611c035782019361016085820312611c035760405194611a7986610e6b565b805186526020810151602087015260408101516040870152606081015160608701526080810151608087015260a081015160a087015260c08101516006811015611bd45760c087015260e08101516001600160401b038111611bd45782611ae1918301610ffd565b60e08701526101008101516001600160401b038111611bd457810182601f82011215611bd4578051611b1281610f0a565b91611b206040519384610e87565b81835260208084019260051b82010190858211611bfd57602001915b818310611bda575050506101008701526101208101516001600160401b038111611bd45782611b6c918301611062565b610120870152610140810151906001600160401b038211611bd45791611b96916040949301611062565b610140860152609f190112611bd057602060c060405192611bb684610e50565b611bc260a08201610f4f565b84520151910152903861195a565b8d80fd5b50508f80fd5b82516005811015611bf357815260209283019201611b3c565b5050505050508f80fd5b50505050505b8f80fd5b8e80fd5b6040513d8e823e3d90fd5b905038611537565b634e487b7160e01b8d52602160045260248dfd5b90506020813d602011611c68575b81611c4d60209383610e87565b81010312611c6457611c5e90610ff0565b38611521565b8b80fd5b3d9150611c40565b87518d5191600f831015611d0e57916064602092611caf94604051958694859363ed94cf2b60e01b855260048501528960248501526044840190610f21565b5afa908115611c0b578c91611cdb575b508510611ccc57386114d2565b6318b34c2d60e31b8b5260048bfd5b90508b8160203d602011611d07575b602092611cf78284610e87565b5081010312611c64575138611cbf565b503d611cea565b634e487b7160e01b8e52602160045260248efd5b90506020813d602011611d54575b81611d3d60209383610e87565b81010312611c6457611d4e90610f4f565b386114c2565b3d9150611d30565b6359ce6fdf60e11b8c5260048cfd5b819295509060209182903d8411611d9d575b611d878284610e87565b5081010312611d99575192388d611470565b8c80fd5b3d9150611d7d565b6040513d8f823e3d90fd5b9092508b8160203d602011611dde575b602092611dcd8284610e87565b5081010312611c6457519138611431565b503d611dc0565b637c03108160e11b8952600489fd5b600c91501415386113e6565b851591506113e0565b90508a51600f811015611e205760041415906113da565b634e487b7160e01b8b52602160045260248bfd5b634e487b7160e01b8a52602160045260248afd5b91508751600f811015611e5e57600614916113b7565b634e487b7160e01b88526021600452602488fd5b6359ce6fdf60e11b8652600486fd5b519050600460c06001600160a01b03611e986124c1565b166040519283809263e70c38f160e01b82525afa8015611f80578890611ee4575b6080915001518101809111611ed057421038611397565b634e487b7160e01b87526011600452602487fd5b5060c0813d60c011611f78575b81611efe60c09383610e87565b81010312611f74576040519060c082018281106001600160401b03821117611f60576080929160a091604052805183526020810151602084015260408101516040840152606081015160608401528381015184840152015160a0820152611eb9565b634e487b7160e01b8a52604160045260248afd5b8780fd5b3d9150611ef1565b6040513d8a823e3d90fd5b909150516004811015611e5e57600314159038611390565b8092505160048110156117a457600214159161138a565b90506040813d604011612008575b81611fd560409383610e87565b810103126118725760405190611fea82610e50565b8051600481101561189b57906020918352015160208201523861137a565b3d9150611fc8565b6040513d89823e3d90fd5b9091506020813d60201161204f575b8161203760209383610e87565b810103126118765761204890610f4f565b9038611341565b3d915061202a565b600080516020612550833981519152546001600160a01b0316330361074757565b60008181526000805160206125708339815191526020908152604080832033845290915290205460ff16156120aa5750565b63e2517d3f60e01b6000523360045260245260446000fd5b6000818152600080516020612570833981519152602090815260408083206001600160a01b038616845290915290205460ff16612164576000818152600080516020612570833981519152602090815260408083206001600160a01b0395909516808452949091528120805460ff19166001179055339291907f2f8788117e7eff1d82e926ec794901d17c78024a50270940304540a733656f0d9080a4600190565b5050600090565b6000818152600080516020612570833981519152602090815260408083206001600160a01b038616845290915290205460ff1615612164576000818152600080516020612570833981519152602090815260408083206001600160a01b0395909516808452949091528120805460ff19169055339291907ff6391f5c32d9c69d2a47ea670b442974b53935d1edc7fd64eb21e047a839171b9080a4600190565b600054604051631bae711d60e21b81526020600482018190526006602483015265526f756e647360d01b60448301529091829060649082906001600160a01b03165afa908115610bda5760009161226a575b506001600160a01b031690565b90506020813d60201161229c575b8161228560209383610e87565b810103126101615761229690610f4f565b3861225d565b3d9150612278565b600054604051631bae711d60e21b815260206004820181905260076024830152665374616b696e6760c81b60448301529091829060649082906001600160a01b03165afa908115610bda5760009161226a57506001600160a01b031690565b600019811461243d57600181019060026001820861242d5750905b600054604051631bae711d60e21b8152929060209084906001600160a01b0316818061234c60048201610fcb565b03915afa928315610bda576000936123ef575b5060405163053b601760e51b8152600481019190915291602090839060249082906001600160a01b03165afa918215610bda576000926123bb575b501090816123b2575b506123ad57600190565b600090565b905015386123a3565b9091506020813d6020116123e7575b816123d760209383610e87565b810103126101615751903861239a565b3d91506123ca565b9092506020813d602011612425575b8161240b60209383610e87565b810103126101615761241e602091610f4f565b929061235f565b3d91506123fe565b60020180911161243d579061231e565b634e487b7160e01b600052601160045260246000fd5b6000805160206125b083398151915280546001600160a01b031990811690915560008051602061255083398151915280549182166001600160a01b0393841690811790915591167f8be0079c531659141344cd1fd0a4f28419497f9722a3daafe3b4186f6b6457e0600080a3565b600054604051631bae711d60e21b8152602060048201819052600860248301526749646c656e65737360c01b60448301529091829060649082906001600160a01b03165afa908115610bda5760009161226a57506001600160a01b031690565b60ff6000805160206125908339815191525460401c161561253e57565b631afcd79f60e31b60005260046000fdfe9016d09d72d40fdae2fd8ceac6b6234c7706214fd39c1cd1e609a0528c19930002dd7bc7dec4dceedda775e58dd541e08a116c6c53815c0bd028192f7b626800f0c57e16840df040f15088dc2f81fe391c3923bec73e23a9662efc9c229c6a00237e158222e3e6968b72b9db0d8043aacf074ad9f650f0d1606b4d82ee432c00a26469706673582212203796d0db2979eda650481a7eeb991b0be154ddb287a7d731b99c781729bbde4164736f6c634300081c0033",
  "linkReferences": {},
  "deployedLinkReferences": {}
}