{
  "_format": "hh-sol-artifact-1",
  "contractName": "MockQueuesForFinalization",
  "sourceName": "contracts/test-helpers/MockQueuesForFinalization.sol",
  "abi": [
    {
      "inputs": [],
      "name": "addToAcceptedQueueCalled",
      "outputs": [
        {
          "internalType": "bool",
          "name": "",
          "type": "bool"
        }
      ],
      "stateMutability": "view",
      "type": "function"
    },
    {
      "inputs": [],
      "name": "addToFinalizedQueueCalled",
      "outputs": [
        {
          "internalType": "bool",
          "name": "",
          "type": "bool"
        }
      ],
      "stateMutability": "view",
      "type": "function"
    },
    {
      "inputs": [],
      "name": "addToPendingQueueCalled",
      "outputs": [
        {
          "internalType": "bool",
          "name": "",
          "type": "bool"
        }
      ],
      "stateMutability": "view",
      "type": "function"
    },
    {
      "inputs": [],
      "name": "addToUndeterminedQueueCalled",
      "outputs": [
        {
          "internalType": "bool",
          "name": "",
          "type": "bool"
        }
      ],
      "stateMutability": "view",
      "type": "function"
    },
    {
      "inputs": [
        {
          "internalType": "address",
          "name": "",
          "type": "address"
        },
        {
          "internalType": "bytes32",
          "name": "txId",
          "type": "bytes32"
        }
      ],
      "name": "addTransactionToAcceptedQueue",
      "outputs": [
        {
          "internalType": "uint256",
          "name": "",
          "type": "uint256"
        },
        {
          "internalType": "bool",
          "name": "success",
          "type": "bool"
        }
      ],
      "stateMutability": "nonpayable",
      "type": "function"
    },
    {
      "inputs": [
        {
          "internalType": "address",
          "name": "recipient",
          "type": "address"
        },
        {
          "internalType": "bytes32",
          "name": "txId",
          "type": "bytes32"
        }
      ],
      "name": "addTransactionToFinalizedQueue",
      "outputs": [
        {
          "internalType": "bool",
          "name": "success",
          "type": "bool"
        }
      ],
      "stateMutability": "nonpayable",
      "type": "function"
    },
    {
      "inputs": [
        {
          "internalType": "address",
          "name": "",
          "type": "address"
        },
        {
          "internalType": "bytes32",
          "name": "txId",
          "type": "bytes32"
        }
      ],
      "name": "addTransactionToPendingQueue",
      "outputs": [
        {
          "internalType": "bool",
          "name": "",
          "type": "bool"
        },
        {
          "internalType": "uint256",
          "name": "",
          "type": "uint256"
        },
        {
          "internalType": "bytes32[]",
          "name": "",
          "type": "bytes32[]"
        }
      ],
      "stateMutability": "nonpayable",
      "type": "function"
    },
    {
      "inputs": [
        {
          "internalType": "address",
          "name": "",
          "type": "address"
        },
        {
          "internalType": "bytes32",
          "name": "txId",
          "type": "bytes32"
        }
      ],
      "name": "addTransactionToUndeterminedQueue",
      "outputs": [
        {
          "internalType": "uint256",
          "name": "",
          "type": "uint256"
        },
        {
          "internalType": "bool",
          "name": "success",
          "type": "bool"
        }
      ],
      "stateMutability": "nonpayable",
      "type": "function"
    },
    {
      "inputs": [
        {
          "internalType": "uint256",
          "name": "",
          "type": "uint256"
        }
      ],
      "name": "addedToFinalizedTxIds",
      "outputs": [
        {
          "internalType": "bytes32",
          "name": "",
          "type": "bytes32"
        }
      ],
      "stateMutability": "view",
      "type": "function"
    },
    {
      "inputs": [],
      "name": "getAddedToFinalizedCount",
      "outputs": [
        {
          "internalType": "uint256",
          "name": "",
          "type": "uint256"
        }
      ],
      "stateMutability": "view",
      "type": "function"
    },
    {
      "inputs": [],
      "name": "getRemovedFromPendingCount",
      "outputs": [
        {
          "internalType": "uint256",
          "name": "",
          "type": "uint256"
        }
      ],
      "stateMutability": "view",
      "type": "function"
    },
    {
      "inputs": [
        {
          "internalType": "address",
          "name": "",
          "type": "address"
        },
        {
          "internalType": "bytes32",
          "name": "txId",
          "type": "bytes32"
        }
      ],
      "name": "getTxQueueType",
      "outputs": [
        {
          "internalType": "enum IQueues.QueueType",
          "name": "",
          "type": "uint8"
        }
      ],
      "stateMutability": "view",
      "type": "function"
    },
    {
      "inputs": [
        {
          "internalType": "address",
          "name": "",
          "type": "address"
        },
        {
          "internalType": "bytes32",
          "name": "txId",
          "type": "bytes32"
        }
      ],
      "name": "isAtFinalizedQueueHead",
      "outputs": [
        {
          "internalType": "bool",
          "name": "",
          "type": "bool"
        }
      ],
      "stateMutability": "view",
      "type": "function"
    },
    {
      "inputs": [
        {
          "internalType": "address",
          "name": "",
          "type": "address"
        },
        {
          "internalType": "bytes32",
          "name": "txId",
          "type": "bytes32"
        }
      ],
      "name": "isAtPendingQueueHead",
      "outputs": [
        {
          "internalType": "bool",
          "name": "",
          "type": "bool"
        }
      ],
      "stateMutability": "view",
      "type": "function"
    },
    {
      "inputs": [],
      "name": "lastAddedToAcceptedTxId",
      "outputs": [
        {
          "internalType": "bytes32",
          "name": "",
          "type": "bytes32"
        }
      ],
      "stateMutability": "view",
      "type": "function"
    },
    {
      "inputs": [],
      "name": "lastAddedToFinalizedRecipient",
      "outputs": [
        {
          "internalType": "address",
          "name": "",
          "type": "address"
        }
      ],
      "stateMutability": "view",
      "type": "function"
    },
    {
      "inputs": [],
      "name": "lastAddedToFinalizedTxId",
      "outputs": [
        {
          "internalType": "bytes32",
          "name": "",
          "type": "bytes32"
        }
      ],
      "stateMutability": "view",
      "type": "function"
    },
    {
      "inputs": [],
      "name": "lastAddedToPendingTxId",
      "outputs": [
        {
          "internalType": "bytes32",
          "name": "",
          "type": "bytes32"
        }
      ],
      "stateMutability": "view",
      "type": "function"
    },
    {
      "inputs": [],
      "name": "lastAddedToUndeterminedTxId",
      "outputs": [
        {
          "internalType": "bytes32",
          "name": "",
          "type": "bytes32"
        }
      ],
      "stateMutability": "view",
      "type": "function"
    },
    {
      "inputs": [],
      "name": "lastMarkedPendingCancelledTxId",
      "outputs": [
        {
          "internalType": "bytes32",
          "name": "",
          "type": "bytes32"
        }
      ],
      "stateMutability": "view",
      "type": "function"
    },
    {
      "inputs": [],
      "name": "lastRemovedFromPendingRecipient",
      "outputs": [
        {
          "internalType": "address",
          "name": "",
          "type": "address"
        }
      ],
      "stateMutability": "view",
      "type": "function"
    },
    {
      "inputs": [],
      "name": "lastRemovedFromPendingTxId",
      "outputs": [
        {
          "internalType": "bytes32",
          "name": "",
          "type": "bytes32"
        }
      ],
      "stateMutability": "view",
      "type": "function"
    },
    {
      "inputs": [],
      "name": "markPendingCancelledCalled",
      "outputs": [
        {
          "internalType": "bool",
          "name": "",
          "type": "bool"
        }
      ],
      "stateMutability": "view",
      "type": "function"
    },
    {
      "inputs": [
        {
          "internalType": "address",
          "name": "",
          "type": "address"
        },
        {
          "internalType": "bytes32",
          "name": "txId",
          "type": "bytes32"
        }
      ],
      "name": "markPendingTransactionAsCancelled",
      "outputs": [],
      "stateMutability": "nonpayable",
      "type": "function"
    },
    {
      "inputs": [
        {
          "internalType": "address",
          "name": "recipient",
          "type": "address"
        },
        {
          "internalType": "uint256",
          "name": "slot",
          "type": "uint256"
        }
      ],
      "name": "recipientIssuedIndexToTxId",
      "outputs": [
        {
          "internalType": "bytes32",
          "name": "",
          "type": "bytes32"
        }
      ],
      "stateMutability": "view",
      "type": "function"
    },
    {
      "inputs": [
        {
          "internalType": "address",
          "name": "recipient",
          "type": "address"
        },
        {
          "internalType": "uint256",
          "name": "newFinalizedCount",
          "type": "uint256"
        }
      ],
      "name": "recoveryAdvanceFinalizedCount",
      "outputs": [],
      "stateMutability": "nonpayable",
      "type": "function"
    },
    {
      "inputs": [
        {
          "internalType": "address",
          "name": "recipient",
          "type": "address"
        },
        {
          "internalType": "enum IQueues.QueueType",
          "name": "queueType",
          "type": "uint8"
        },
        {
          "internalType": "uint256",
          "name": "newHead",
          "type": "uint256"
        }
      ],
      "name": "recoveryAdvanceQueueHead",
      "outputs": [],
      "stateMutability": "nonpayable",
      "type": "function"
    },
    {
      "inputs": [
        {
          "internalType": "uint256",
          "name": "",
          "type": "uint256"
        }
      ],
      "name": "recoveryFCAdvances",
      "outputs": [
        {
          "internalType": "address",
          "name": "recipient",
          "type": "address"
        },
        {
          "internalType": "uint256",
          "name": "newFinalizedCount",
          "type": "uint256"
        }
      ],
      "stateMutability": "view",
      "type": "function"
    },
    {
      "inputs": [],
      "name": "recoveryFCAdvancesCount",
      "outputs": [
        {
          "internalType": "uint256",
          "name": "",
          "type": "uint256"
        }
      ],
      "stateMutability": "view",
      "type": "function"
    },
    {
      "inputs": [
        {
          "internalType": "uint256",
          "name": "",
          "type": "uint256"
        }
      ],
      "name": "recoveryHeadAdvances",
      "outputs": [
        {
          "internalType": "address",
          "name": "recipient",
          "type": "address"
        },
        {
          "internalType": "enum IQueues.QueueType",
          "name": "queueType",
          "type": "uint8"
        },
        {
          "internalType": "uint256",
          "name": "newHead",
          "type": "uint256"
        }
      ],
      "stateMutability": "view",
      "type": "function"
    },
    {
      "inputs": [],
      "name": "recoveryHeadAdvancesCount",
      "outputs": [
        {
          "internalType": "uint256",
          "name": "",
          "type": "uint256"
        }
      ],
      "stateMutability": "view",
      "type": "function"
    },
    {
      "inputs": [
        {
          "internalType": "uint256",
          "name": "",
          "type": "uint256"
        }
      ],
      "name": "recoveryQTSets",
      "outputs": [
        {
          "internalType": "address",
          "name": "recipient",
          "type": "address"
        },
        {
          "internalType": "bytes32",
          "name": "txId",
          "type": "bytes32"
        },
        {
          "internalType": "enum IQueues.QueueType",
          "name": "queueType",
          "type": "uint8"
        }
      ],
      "stateMutability": "view",
      "type": "function"
    },
    {
      "inputs": [],
      "name": "recoveryQTSetsCount",
      "outputs": [
        {
          "internalType": "uint256",
          "name": "",
          "type": "uint256"
        }
      ],
      "stateMutability": "view",
      "type": "function"
    },
    {
      "inputs": [
        {
          "internalType": "address",
          "name": "recipient",
          "type": "address"
        },
        {
          "internalType": "bytes32",
          "name": "txId",
          "type": "bytes32"
        },
        {
          "internalType": "enum IQueues.QueueType",
          "name": "queueType",
          "type": "uint8"
        }
      ],
      "name": "recoverySetTransactionQueueType",
      "outputs": [],
      "stateMutability": "nonpayable",
      "type": "function"
    },
    {
      "inputs": [],
      "name": "removeFromPendingQueueCalled",
      "outputs": [
        {
          "internalType": "bool",
          "name": "",
          "type": "bool"
        }
      ],
      "stateMutability": "view",
      "type": "function"
    },
    {
      "inputs": [
        {
          "internalType": "address",
          "name": "recipient",
          "type": "address"
        },
        {
          "internalType": "bytes32",
          "name": "txId",
          "type": "bytes32"
        }
      ],
      "name": "removeTransactionFromPendingQueue",
      "outputs": [
        {
          "internalType": "bool",
          "name": "success",
          "type": "bool"
        }
      ],
      "stateMutability": "nonpayable",
      "type": "function"
    },
    {
      "inputs": [
        {
          "internalType": "uint256",
          "name": "",
          "type": "uint256"
        }
      ],
      "name": "removedFromPendingTxIds",
      "outputs": [
        {
          "internalType": "bytes32",
          "name": "",
          "type": "bytes32"
        }
      ],
      "stateMutability": "view",
      "type": "function"
    },
    {
      "inputs": [],
      "name": "resetMockState",
      "outputs": [],
      "stateMutability": "nonpayable",
      "type": "function"
    },
    {
      "inputs": [
        {
          "internalType": "bool",
          "name": "defaultValue",
          "type": "bool"
        }
      ],
      "name": "setDefaultIsAtFinalizedQueueHead",
      "outputs": [],
      "stateMutability": "nonpayable",
      "type": "function"
    },
    {
      "inputs": [
        {
          "internalType": "bool",
          "name": "success",
          "type": "bool"
        }
      ],
      "name": "setMockAddToAcceptedQueueSuccess",
      "outputs": [],
      "stateMutability": "nonpayable",
      "type": "function"
    },
    {
      "inputs": [
        {
          "internalType": "bool",
          "name": "success",
          "type": "bool"
        }
      ],
      "name": "setMockAddToFinalizedQueueSuccess",
      "outputs": [],
      "stateMutability": "nonpayable",
      "type": "function"
    },
    {
      "inputs": [
        {
          "internalType": "bool",
          "name": "success",
          "type": "bool"
        }
      ],
      "name": "setMockAddToUndeterminedQueueSuccess",
      "outputs": [],
      "stateMutability": "nonpayable",
      "type": "function"
    },
    {
      "inputs": [
        {
          "internalType": "bytes32",
          "name": "txId",
          "type": "bytes32"
        },
        {
          "internalType": "bool",
          "name": "isAtHead",
          "type": "bool"
        }
      ],
      "name": "setMockIsAtFinalizedQueueHead",
      "outputs": [],
      "stateMutability": "nonpayable",
      "type": "function"
    },
    {
      "inputs": [
        {
          "internalType": "bytes32",
          "name": "txId",
          "type": "bytes32"
        },
        {
          "internalType": "bool",
          "name": "isAtHead",
          "type": "bool"
        }
      ],
      "name": "setMockIsAtPendingQueueHead",
      "outputs": [],
      "stateMutability": "nonpayable",
      "type": "function"
    },
    {
      "inputs": [
        {
          "internalType": "bool",
          "name": "success",
          "type": "bool"
        }
      ],
      "name": "setMockRemoveFromPendingQueueSuccess",
      "outputs": [],
      "stateMutability": "nonpayable",
      "type": "function"
    },
    {
      "inputs": [
        {
          "internalType": "bytes32",
          "name": "txId",
          "type": "bytes32"
        },
        {
          "internalType": "enum IQueues.QueueType",
          "name": "qt",
          "type": "uint8"
        }
      ],
      "name": "setMockTxQueueType",
      "outputs": [],
      "stateMutability": "nonpayable",
      "type": "function"
    },
    {
      "inputs": [
        {
          "internalType": "address",
          "name": "recipient",
          "type": "address"
        },
        {
          "internalType": "uint256",
          "name": "slot",
          "type": "uint256"
        },
        {
          "internalType": "bytes32",
          "name": "txId",
          "type": "bytes32"
        }
      ],
      "name": "setRecipientSlot",
      "outputs": [],
      "stateMutability": "nonpayable",
      "type": "function"
    }
  ],
  "bytecode": "0x608080604052346044576201000061010162ffffff19600354161717600355600160ff19600c541617600c55600160ff19600e541617600e55611098908161004a8239f35b600080fdfe6080604052600436101561001257600080fd5b60003560e01c80631453511b14610e525780631a0f2b1814610e0b5780631f66a82614610de557806320090e9d14610cfa5780632620197c14610cc45780633461765714610c9b5780633e41d89414610c55578063470b5ca114610c375780635e8d4e0b14610b9b5780635eb7ef6814610b7d5780635f72d0ae14610b5f578063612042b814610b36578063672be4b114610b185780636e795de014610af55780636eefcb5c14610a9a578063769ad35a146109f25780638226c512146109b8578063830cf2a314610970578063861b4a101461093b5780638b64f2781461084a5780638ecda5281461081c578063910048fb146107d357806397794389146107755780639c883819146106ea578063a0a4e9cc1461068f578063a329610414610671578063a875be7c14610632578063addc1048146105f4578063b7ef60a4146105ce578063b9ad390f146105b0578063bae72eca14610582578063c4822fb41461055c578063c5c2032814610539578063c81e03bb146104f5578063c9a07153146104d7578063c9c18fe0146104b9578063e224c20a146103fc578063e3116ed9146103aa578063e373e3fe1461038c578063e5d31ced1461035d578063ec6af0b31461032f578063ecf55f83146102f0578063f1699625146102ca578063f1cdbf7614610299578063f34040e91461027b578063f52c6112146102445763f65047fb1461022157600080fd5b3461023f57600036600319011261023f576020601554604051908152f35b600080fd5b3461023f57602036600319011261023f5761025d610f72565b151562ff00006003549160101b169062ff0000191617600355600080f35b3461023f57600036600319011261023f576020600d54604051908152f35b3461023f57604036600319011261023f576102b2610f1a565b5060206102c060243561102a565b6040519015158152f35b3461023f57600036600319011261023f57602060ff600c5460081c166040519015158152f35b3461023f57604036600319011261023f57610309610f1a565b506024356000526012602052602060ff6040600020541661032d6040518092610f65565bf35b3461023f57602036600319011261023f57610348610f72565b151560ff8019600e5416911617600e55600080f35b3461023f57604036600319011261023f57610376610f1a565b506010805460ff19166001179055602435601155005b3461023f57600036600319011261023f576020601654604051908152f35b3461023f57602036600319011261023f5760043560095481101561023f576000906009548110156103e8576020826009829452200154604051908152f35b634e487b7160e01b82526032600452602482fd5b3461023f57604036600319011261023f57610415610f1a565b6005805460ff60a01b1916600160a01b1790556024356006819055600780546001600160a01b0319166001600160a01b039093169290921790915560095490600160401b8210156104a35761047582600161048e94016009556009610fce565b90919082549060031b91821b91600019901b1916179055565b602060ff60035460081c166040519015158152f35b634e487b7160e01b600052604160045260246000fd5b3461023f57600036600319011261023f576020600b54604051908152f35b3461023f57600036600319011261023f576020600454604051908152f35b3461023f57602036600319011261023f5760043560155481101561023f5761051e604091610f90565b506001808060a01b0382541691015482519182526020820152f35b3461023f57600036600319011261023f57602060ff601054166040519015158152f35b3461023f57600036600319011261023f57602060ff600e5460081c166040519015158152f35b3461023f57602036600319011261023f5761059b610f72565b151560ff8019600c5416911617600c55600080f35b3461023f57600036600319011261023f576020600954604051908152f35b3461023f57600036600319011261023f57602060ff60055460a01c166040519015158152f35b3461023f57602036600319011261023f5760043560085481101561023f576000906008548110156103e8576020826008829452200154604051908152f35b3461023f57604036600319011261023f5761066f61064e610f81565b600435600052600260205260406000209060ff801983541691151516179055565b005b3461023f57600036600319011261023f576020600854604051908152f35b3461023f57604036600319011261023f576004356106cd6106ae610f81565b82600052600060205260406000209060ff801983541691151516179055565b60005260016020526040600020600160ff19825416179055600080f35b3461023f57604036600319011261023f57610703610f1a565b6003805463ff000000191663010000001790556024356004819055600580546001600160a01b0319166001600160a01b039093169290921790915560085490600160401b8210156104a35761047582600161076394016008556008610fce565b602060ff600354166040519015158152f35b3461023f57602036600319011261023f5760043560145481101561023f5761079e606091610faf565b508054600191909101546040516001600160a01b0383168152916107cc90602084019060a01c60ff16610f65565b6040820152f35b3461023f57604036600319011261023f576107ec610f1a565b50600c805461ff001916610100179055602435600d55600e54604080516000815260ff9092161515602083015290f35b3461023f57602036600319011261023f57610835610f72565b151560ff801960035416911617600355600080f35b3461023f57606036600319011261023f57610863610f1a565b602435600481101561023f57610877610fe6565b6001600160a01b03909216825260208201906108939082611006565b60408201906044358252601454600160401b8110156104a3578060016108bc9201601455610faf565b939093610925575183546001600160a01b0319166001600160a01b03919091161783555190600482101561090f57825460ff60a01b191660a09290921b60ff60a01b169190911782555160019190910155005b634e487b7160e01b600052602160045260246000fd5b634e487b7160e01b600052600060045260246000fd5b3461023f57602036600319011261023f57610954610f72565b151561ff006003549160081b169061ff00191617600355600080f35b3461023f57604036600319011261023f576001600160a01b03610991610f1a565b16600052601360205260406000206024356000526020526020604060002054604051908152f35b3461023f57604036600319011261023f576109d1610f1a565b506024356000526002602052602060ff604060002054166040519015158152f35b3461023f57604036600319011261023f57610a0b610f1a565b5061010061ff0019600e541617600e55602435600f5560206040518181019080821067ffffffffffffffff8311176104a3579080604052600082526000368137604051928392606084019060018552600083860152606060408601525180915260808401929160005b828110610a8357505050500390f35b835185528695509381019392810192600101610a74565b3461023f57602036600319011261023f5760043560165481101561023f57610ac3606091610f30565b5061032d60018060a01b038254169160ff60026001830154920154169060405193845260208401526040830190610f65565b3461023f57600036600319011261023f57602060ff600a54166040519015158152f35b3461023f57600036600319011261023f576020600654604051908152f35b3461023f57600036600319011261023f576005546040516001600160a01b039091168152602090f35b3461023f57600036600319011261023f576020601154604051908152f35b3461023f57600036600319011261023f576020601454604051908152f35b3461023f57604036600319011261023f57610bb4610f1a565b604051906040820182811067ffffffffffffffff8211176104a3576040526001600160a01b0316815260243560208201908152601554909190600160401b8110156104a357806001610c099201601555610f90565b92909261092557905182546001600160a01b0319166001600160a01b03919091161782555160019190910155005b3461023f57600036600319011261023f576020600f54604051908152f35b3461023f57606036600319011261023f576001600160a01b03610c76610f1a565b1660005260136020526040600020602435600052602052604435604060002055600080f35b3461023f57600036600319011261023f576007546040516001600160a01b039091168152602090f35b3461023f57604036600319011261023f57602435600481101561023f5761066f9060043560005260126020526040600020611012565b3461023f57600036600319011261023f576003805463ff0000001916905560006004819055600580546001600160a81b03191690556006819055600780546001600160a01b03191690556008805491905580610da1575b50600954600060095580610d6157005b60096000527f6e1540171b6c0c960b71a7020d9f60077f6af931a8bbf590da0223dacf75c7af908101905b818110610d9557005b60008155600101610d8c565b60086000527ff3f7a9fe364faab93b216da50a3214154f22a0a2b415b23a84c8169e8b636ee3908101905b818110610dd95750610d51565b60008155600101610dcc565b3461023f57600036600319011261023f57602060ff60035460181c166040519015158152f35b3461023f57604036600319011261023f57610e24610f1a565b50600a805460ff19166001179055602435600b55600c54604080516000815260ff9092161515602083015290f35b3461023f57606036600319011261023f57610e6b610f1a565b604435602435600482101561023f57610e82610fe6565b6001600160a01b039093168352602083018181526040840190610ea58483611006565b601654600160401b8110156104a357806001610ec49201601655610f30565b959095610925575185546001600160a01b0319166001600160a01b03919091161785555160018501555192600484101561090f5761066f936002610f089201611012565b60005260126020526040600020611012565b600435906001600160a01b038216820361023f57565b601654811015610f4f5760166000526003602060002091020190600090565b634e487b7160e01b600052603260045260246000fd5b90600482101561090f5752565b60043590811515820361023f57565b60243590811515820361023f57565b601554811015610f4f57601560005260206000209060011b0190600090565b601454811015610f4f57601460005260206000209060011b0190600090565b8054821015610f4f5760005260206000200190600090565b604051906060820182811067ffffffffffffffff8211176104a357604052565b600482101561090f5752565b90600481101561090f5760ff80198354169116179055565b80600052600160205260ff604060002054161561105557600052600060205260ff6040600020541690565b5060ff60035460101c169056fea2646970667358221220efe61f37b316a32acce21fe4ff4a2b915381b409d432b0567c8eccadeefa62aa64736f6c634300081c0033",
  "linkReferences": {},
  "deployedLinkReferences": {}
}