{
  "_format": "hh-sol-artifact-1",
  "contractName": "MockQueuesForFinalization",
  "sourceName": "contracts/test-helpers/MockQueuesForFinalization.sol",
  "abi": [
    {
      "inputs": [],
      "name": "addToAcceptedQueueCalled",
      "outputs": [
        {
          "internalType": "bool",
          "name": "",
          "type": "bool"
        }
      ],
      "stateMutability": "view",
      "type": "function"
    },
    {
      "inputs": [],
      "name": "addToFinalizedQueueCalled",
      "outputs": [
        {
          "internalType": "bool",
          "name": "",
          "type": "bool"
        }
      ],
      "stateMutability": "view",
      "type": "function"
    },
    {
      "inputs": [],
      "name": "addToPendingQueueCalled",
      "outputs": [
        {
          "internalType": "bool",
          "name": "",
          "type": "bool"
        }
      ],
      "stateMutability": "view",
      "type": "function"
    },
    {
      "inputs": [],
      "name": "addToUndeterminedQueueCalled",
      "outputs": [
        {
          "internalType": "bool",
          "name": "",
          "type": "bool"
        }
      ],
      "stateMutability": "view",
      "type": "function"
    },
    {
      "inputs": [
        {
          "internalType": "address",
          "name": "",
          "type": "address"
        },
        {
          "internalType": "bytes32",
          "name": "txId",
          "type": "bytes32"
        }
      ],
      "name": "addTransactionToAcceptedQueue",
      "outputs": [
        {
          "internalType": "uint256",
          "name": "",
          "type": "uint256"
        },
        {
          "internalType": "bool",
          "name": "success",
          "type": "bool"
        }
      ],
      "stateMutability": "nonpayable",
      "type": "function"
    },
    {
      "inputs": [
        {
          "internalType": "address",
          "name": "recipient",
          "type": "address"
        },
        {
          "internalType": "bytes32",
          "name": "txId",
          "type": "bytes32"
        }
      ],
      "name": "addTransactionToFinalizedQueue",
      "outputs": [
        {
          "internalType": "bool",
          "name": "success",
          "type": "bool"
        }
      ],
      "stateMutability": "nonpayable",
      "type": "function"
    },
    {
      "inputs": [
        {
          "internalType": "address",
          "name": "",
          "type": "address"
        },
        {
          "internalType": "bytes32",
          "name": "txId",
          "type": "bytes32"
        }
      ],
      "name": "addTransactionToPendingQueue",
      "outputs": [
        {
          "internalType": "bool",
          "name": "",
          "type": "bool"
        },
        {
          "internalType": "uint256",
          "name": "",
          "type": "uint256"
        },
        {
          "internalType": "bytes32[]",
          "name": "",
          "type": "bytes32[]"
        }
      ],
      "stateMutability": "nonpayable",
      "type": "function"
    },
    {
      "inputs": [
        {
          "internalType": "address",
          "name": "",
          "type": "address"
        },
        {
          "internalType": "bytes32",
          "name": "txId",
          "type": "bytes32"
        }
      ],
      "name": "addTransactionToUndeterminedQueue",
      "outputs": [
        {
          "internalType": "uint256",
          "name": "",
          "type": "uint256"
        },
        {
          "internalType": "bool",
          "name": "success",
          "type": "bool"
        }
      ],
      "stateMutability": "nonpayable",
      "type": "function"
    },
    {
      "inputs": [
        {
          "internalType": "uint256",
          "name": "",
          "type": "uint256"
        }
      ],
      "name": "addedToFinalizedTxIds",
      "outputs": [
        {
          "internalType": "bytes32",
          "name": "",
          "type": "bytes32"
        }
      ],
      "stateMutability": "view",
      "type": "function"
    },
    {
      "inputs": [],
      "name": "getAddedToFinalizedCount",
      "outputs": [
        {
          "internalType": "uint256",
          "name": "",
          "type": "uint256"
        }
      ],
      "stateMutability": "view",
      "type": "function"
    },
    {
      "inputs": [],
      "name": "getRemovedFromPendingCount",
      "outputs": [
        {
          "internalType": "uint256",
          "name": "",
          "type": "uint256"
        }
      ],
      "stateMutability": "view",
      "type": "function"
    },
    {
      "inputs": [
        {
          "internalType": "address",
          "name": "",
          "type": "address"
        },
        {
          "internalType": "bytes32",
          "name": "txId",
          "type": "bytes32"
        }
      ],
      "name": "isAtFinalizedQueueHead",
      "outputs": [
        {
          "internalType": "bool",
          "name": "",
          "type": "bool"
        }
      ],
      "stateMutability": "view",
      "type": "function"
    },
    {
      "inputs": [
        {
          "internalType": "address",
          "name": "",
          "type": "address"
        },
        {
          "internalType": "bytes32",
          "name": "txId",
          "type": "bytes32"
        }
      ],
      "name": "isAtPendingQueueHead",
      "outputs": [
        {
          "internalType": "bool",
          "name": "",
          "type": "bool"
        }
      ],
      "stateMutability": "view",
      "type": "function"
    },
    {
      "inputs": [],
      "name": "lastAddedToAcceptedTxId",
      "outputs": [
        {
          "internalType": "bytes32",
          "name": "",
          "type": "bytes32"
        }
      ],
      "stateMutability": "view",
      "type": "function"
    },
    {
      "inputs": [],
      "name": "lastAddedToFinalizedRecipient",
      "outputs": [
        {
          "internalType": "address",
          "name": "",
          "type": "address"
        }
      ],
      "stateMutability": "view",
      "type": "function"
    },
    {
      "inputs": [],
      "name": "lastAddedToFinalizedTxId",
      "outputs": [
        {
          "internalType": "bytes32",
          "name": "",
          "type": "bytes32"
        }
      ],
      "stateMutability": "view",
      "type": "function"
    },
    {
      "inputs": [],
      "name": "lastAddedToPendingTxId",
      "outputs": [
        {
          "internalType": "bytes32",
          "name": "",
          "type": "bytes32"
        }
      ],
      "stateMutability": "view",
      "type": "function"
    },
    {
      "inputs": [],
      "name": "lastAddedToUndeterminedTxId",
      "outputs": [
        {
          "internalType": "bytes32",
          "name": "",
          "type": "bytes32"
        }
      ],
      "stateMutability": "view",
      "type": "function"
    },
    {
      "inputs": [],
      "name": "lastMarkedPendingCancelledTxId",
      "outputs": [
        {
          "internalType": "bytes32",
          "name": "",
          "type": "bytes32"
        }
      ],
      "stateMutability": "view",
      "type": "function"
    },
    {
      "inputs": [],
      "name": "lastRemovedFromPendingRecipient",
      "outputs": [
        {
          "internalType": "address",
          "name": "",
          "type": "address"
        }
      ],
      "stateMutability": "view",
      "type": "function"
    },
    {
      "inputs": [],
      "name": "lastRemovedFromPendingTxId",
      "outputs": [
        {
          "internalType": "bytes32",
          "name": "",
          "type": "bytes32"
        }
      ],
      "stateMutability": "view",
      "type": "function"
    },
    {
      "inputs": [],
      "name": "markPendingCancelledCalled",
      "outputs": [
        {
          "internalType": "bool",
          "name": "",
          "type": "bool"
        }
      ],
      "stateMutability": "view",
      "type": "function"
    },
    {
      "inputs": [
        {
          "internalType": "address",
          "name": "",
          "type": "address"
        },
        {
          "internalType": "bytes32",
          "name": "txId",
          "type": "bytes32"
        }
      ],
      "name": "markPendingTransactionAsCancelled",
      "outputs": [],
      "stateMutability": "nonpayable",
      "type": "function"
    },
    {
      "inputs": [],
      "name": "removeFromPendingQueueCalled",
      "outputs": [
        {
          "internalType": "bool",
          "name": "",
          "type": "bool"
        }
      ],
      "stateMutability": "view",
      "type": "function"
    },
    {
      "inputs": [
        {
          "internalType": "address",
          "name": "recipient",
          "type": "address"
        },
        {
          "internalType": "bytes32",
          "name": "txId",
          "type": "bytes32"
        }
      ],
      "name": "removeTransactionFromPendingQueue",
      "outputs": [
        {
          "internalType": "bool",
          "name": "success",
          "type": "bool"
        }
      ],
      "stateMutability": "nonpayable",
      "type": "function"
    },
    {
      "inputs": [
        {
          "internalType": "uint256",
          "name": "",
          "type": "uint256"
        }
      ],
      "name": "removedFromPendingTxIds",
      "outputs": [
        {
          "internalType": "bytes32",
          "name": "",
          "type": "bytes32"
        }
      ],
      "stateMutability": "view",
      "type": "function"
    },
    {
      "inputs": [],
      "name": "resetMockState",
      "outputs": [],
      "stateMutability": "nonpayable",
      "type": "function"
    },
    {
      "inputs": [
        {
          "internalType": "bool",
          "name": "defaultValue",
          "type": "bool"
        }
      ],
      "name": "setDefaultIsAtFinalizedQueueHead",
      "outputs": [],
      "stateMutability": "nonpayable",
      "type": "function"
    },
    {
      "inputs": [
        {
          "internalType": "bool",
          "name": "success",
          "type": "bool"
        }
      ],
      "name": "setMockAddToAcceptedQueueSuccess",
      "outputs": [],
      "stateMutability": "nonpayable",
      "type": "function"
    },
    {
      "inputs": [
        {
          "internalType": "bool",
          "name": "success",
          "type": "bool"
        }
      ],
      "name": "setMockAddToFinalizedQueueSuccess",
      "outputs": [],
      "stateMutability": "nonpayable",
      "type": "function"
    },
    {
      "inputs": [
        {
          "internalType": "bool",
          "name": "success",
          "type": "bool"
        }
      ],
      "name": "setMockAddToUndeterminedQueueSuccess",
      "outputs": [],
      "stateMutability": "nonpayable",
      "type": "function"
    },
    {
      "inputs": [
        {
          "internalType": "bytes32",
          "name": "txId",
          "type": "bytes32"
        },
        {
          "internalType": "bool",
          "name": "isAtHead",
          "type": "bool"
        }
      ],
      "name": "setMockIsAtFinalizedQueueHead",
      "outputs": [],
      "stateMutability": "nonpayable",
      "type": "function"
    },
    {
      "inputs": [
        {
          "internalType": "bytes32",
          "name": "txId",
          "type": "bytes32"
        },
        {
          "internalType": "bool",
          "name": "isAtHead",
          "type": "bool"
        }
      ],
      "name": "setMockIsAtPendingQueueHead",
      "outputs": [],
      "stateMutability": "nonpayable",
      "type": "function"
    },
    {
      "inputs": [
        {
          "internalType": "bool",
          "name": "success",
          "type": "bool"
        }
      ],
      "name": "setMockRemoveFromPendingQueueSuccess",
      "outputs": [],
      "stateMutability": "nonpayable",
      "type": "function"
    }
  ],
  "bytecode": "0x608080604052346044576201000061010162ffffff19600354161717600355600160ff19600c541617600c55600160ff19600e541617600e55610a4d908161004a8239f35b600080fdfe608080604052600436101561001357600080fd5b60003560e01c9081631a0f2b1814610938575080631f66a8261461091257806320090e9d1461082757806334617657146107fe578063470b5ca1146107e05780635f72d0ae146107c2578063612042b814610799578063672be4b11461077b5780636e795de014610758578063769ad35a146106bd5780638226c51214610690578063861b4a101461065b5780638ecda5281461062d578063910048fb146105f25780639c88381914610575578063a0a4e9cc1461051a578063a3296104146104fc578063a875be7c146104bd578063addc10481461047f578063b7ef60a414610459578063b9ad390f1461043b578063bae72eca1461040d578063c4822fb4146103e7578063c5c20328146103c4578063c9a07153146103a6578063c9c18fe014610388578063e224c20a146102d9578063e3116ed914610287578063e5d31ced14610267578063ec6af0b314610239578063f169962514610213578063f1cdbf76146101ef578063f34040e9146101d15763f52c61121461019557600080fd5b346101cc5760203660031901126101cc576101ae610993565b151562ff00006003549160101b169062ff0000191617600355600080f35b600080fd5b346101cc5760003660031901126101cc576020600d54604051908152f35b346101cc5760206102096102023661096d565b90506109df565b6040519015158152f35b346101cc5760003660031901126101cc57602060ff600c5460081c166040519015158152f35b346101cc5760203660031901126101cc57610252610993565b151560ff8019600e5416911617600e55600080f35b346101cc576102753661096d565b6010805460ff19166001179055601155005b346101cc5760203660031901126101cc576004356009548110156101cc576000906009548110156102c5576020826009829452200154604051908152f35b634e487b7160e01b82526032600452602482fd5b346101cc576102e73661096d565b6005805460ff60a01b1916600160a01b1790556006819055600780546001600160a01b0319166001600160a01b039093169290921790915560095490600160401b8210156103725761034482600161035d940160095560096109b1565b90919082549060031b91821b91600019901b1916179055565b602060ff60035460081c166040519015158152f35b634e487b7160e01b600052604160045260246000fd5b346101cc5760003660031901126101cc576020600b54604051908152f35b346101cc5760003660031901126101cc576020600454604051908152f35b346101cc5760003660031901126101cc57602060ff601054166040519015158152f35b346101cc5760003660031901126101cc57602060ff600e5460081c166040519015158152f35b346101cc5760203660031901126101cc57610426610993565b151560ff8019600c5416911617600c55600080f35b346101cc5760003660031901126101cc576020600954604051908152f35b346101cc5760003660031901126101cc57602060ff60055460a01c166040519015158152f35b346101cc5760203660031901126101cc576004356008548110156101cc576000906008548110156102c5576020826008829452200154604051908152f35b346101cc5760403660031901126101cc576104fa6104d96109a2565b600435600052600260205260406000209060ff801983541691151516179055565b005b346101cc5760003660031901126101cc576020600854604051908152f35b346101cc5760403660031901126101cc576004356105586105396109a2565b82600052600060205260406000209060ff801983541691151516179055565b60005260016020526040600020600160ff19825416179055600080f35b346101cc576105833661096d565b6003805463ff000000191663010000001790556004819055600580546001600160a01b0319166001600160a01b039093169290921790915560085490600160401b821015610372576103448260016105e0940160085560086109b1565b602060ff600354166040519015158152f35b346101cc576106003661096d565b600c805461ff001916610100179055600d5550600e54604080516000815260ff9092161515602083015290f35b346101cc5760203660031901126101cc57610646610993565b151560ff801960035416911617600355600080f35b346101cc5760203660031901126101cc57610674610993565b151561ff006003549160081b169061ff00191617600355600080f35b346101cc5761069e3661096d565b90506000526002602052602060ff604060002054166040519015158152f35b346101cc576106cb3661096d565b905061010061ff0019600e541617600e55600f5560206040518181019080821067ffffffffffffffff831117610372579080604052600082526000368137604051928392606084019060018552600083860152606060408601525180915260808401929160005b82811061074157505050500390f35b835185528695509381019392810192600101610732565b346101cc5760003660031901126101cc57602060ff600a54166040519015158152f35b346101cc5760003660031901126101cc576020600654604051908152f35b346101cc5760003660031901126101cc576005546040516001600160a01b039091168152602090f35b346101cc5760003660031901126101cc576020601154604051908152f35b346101cc5760003660031901126101cc576020600f54604051908152f35b346101cc5760003660031901126101cc576007546040516001600160a01b039091168152602090f35b346101cc5760003660031901126101cc576003805463ff0000001916905560006004819055600580546001600160a81b03191690556006819055600780546001600160a01b031916905560088054919055806108ce575b5060095460006009558061088e57005b60096000527f6e1540171b6c0c960b71a7020d9f60077f6af931a8bbf590da0223dacf75c7af908101905b8181106108c257005b600081556001016108b9565b60086000527ff3f7a9fe364faab93b216da50a3214154f22a0a2b415b23a84c8169e8b636ee3908101905b818110610906575061087e565b600081556001016108f9565b346101cc5760003660031901126101cc57602060ff60035460181c166040519015158152f35b346101cc576109463661096d565b600a805460ff19166001179055600b5550600c546000825260ff1615156020820152604090f35b60409060031901126101cc576004356001600160a01b03811681036101cc579060243590565b6004359081151582036101cc57565b6024359081151582036101cc57565b80548210156109c95760005260206000200190600090565b634e487b7160e01b600052603260045260246000fd5b80600052600160205260ff6040600020541615610a0a57600052600060205260ff6040600020541690565b5060ff60035460101c169056fea26469706673582212203913bbd99025b8c8fb926ff2ab645039de6243e19bab696ac03064d735cf3aa764736f6c634300081c0033",
  "linkReferences": {},
  "deployedLinkReferences": {}
}