{
  "_format": "hh-sol-artifact-1",
  "contractName": "MockIdlenessForProposal",
  "sourceName": "contracts/test-helpers/MockIdlenessForProposal.sol",
  "abi": [
    {
      "inputs": [
        {
          "components": [
            {
              "internalType": "enum ITransactions.ResultType",
              "name": "result",
              "type": "uint8"
            },
            {
              "internalType": "enum ITransactions.VoteType",
              "name": "txExecutionResult",
              "type": "uint8"
            },
            {
              "internalType": "enum ITransactions.TransactionStatus",
              "name": "previousStatus",
              "type": "uint8"
            },
            {
              "internalType": "enum ITransactions.TransactionStatus",
              "name": "status",
              "type": "uint8"
            },
            {
              "internalType": "address",
              "name": "txOrigin",
              "type": "address"
            },
            {
              "internalType": "address",
              "name": "sender",
              "type": "address"
            },
            {
              "internalType": "address",
              "name": "recipient",
              "type": "address"
            },
            {
              "internalType": "address",
              "name": "activator",
              "type": "address"
            },
            {
              "internalType": "uint256",
              "name": "txSlot",
              "type": "uint256"
            },
            {
              "internalType": "uint256",
              "name": "initialRotations",
              "type": "uint256"
            },
            {
              "internalType": "uint256",
              "name": "numOfInitialValidators",
              "type": "uint256"
            },
            {
              "internalType": "uint256",
              "name": "epoch",
              "type": "uint256"
            },
            {
              "internalType": "bytes32",
              "name": "id",
              "type": "bytes32"
            },
            {
              "internalType": "bytes32",
              "name": "randomSeed",
              "type": "bytes32"
            },
            {
              "internalType": "bytes32",
              "name": "txExecutionHash",
              "type": "bytes32"
            },
            {
              "internalType": "bytes32",
              "name": "resultHash",
              "type": "bytes32"
            },
            {
              "internalType": "bytes",
              "name": "txCalldata",
              "type": "bytes"
            },
            {
              "internalType": "bytes",
              "name": "eqBlocksOutputs",
              "type": "bytes"
            },
            {
              "components": [
                {
                  "internalType": "uint256",
                  "name": "activationBlock",
                  "type": "uint256"
                },
                {
                  "internalType": "uint256",
                  "name": "processingBlock",
                  "type": "uint256"
                },
                {
                  "internalType": "uint256",
                  "name": "proposalBlock",
                  "type": "uint256"
                }
              ],
              "internalType": "struct ITransactions.ReadStateBlockRange[]",
              "name": "readStateBlockRanges",
              "type": "tuple[]"
            },
            {
              "internalType": "uint256",
              "name": "validUntil",
              "type": "uint256"
            },
            {
              "internalType": "uint256",
              "name": "value",
              "type": "uint256"
            },
            {
              "internalType": "uint256",
              "name": "lockedStorageUnitPrice",
              "type": "uint256"
            },
            {
              "internalType": "uint256",
              "name": "storageFeeUsed",
              "type": "uint256"
            }
          ],
          "internalType": "struct ITransactions.Transaction",
          "name": "",
          "type": "tuple"
        },
        {
          "components": [
            {
              "internalType": "uint256",
              "name": "round",
              "type": "uint256"
            },
            {
              "internalType": "uint256",
              "name": "leaderIndex",
              "type": "uint256"
            },
            {
              "internalType": "uint256",
              "name": "votesCommitted",
              "type": "uint256"
            },
            {
              "internalType": "uint256",
              "name": "votesRevealed",
              "type": "uint256"
            },
            {
              "internalType": "uint256",
              "name": "appealBond",
              "type": "uint256"
            },
            {
              "internalType": "uint256",
              "name": "rotationsLeft",
              "type": "uint256"
            },
            {
              "internalType": "enum ITransactions.ResultType",
              "name": "result",
              "type": "uint8"
            },
            {
              "internalType": "address[]",
              "name": "roundValidators",
              "type": "address[]"
            },
            {
              "internalType": "enum ITransactions.VoteType[]",
              "name": "validatorVotes",
              "type": "uint8[]"
            },
            {
              "internalType": "bytes32[]",
              "name": "validatorVotesHash",
              "type": "bytes32[]"
            },
            {
              "internalType": "bytes32[]",
              "name": "validatorResultHash",
              "type": "bytes32[]"
            }
          ],
          "internalType": "struct ITransactions.RoundData",
          "name": "",
          "type": "tuple"
        }
      ],
      "name": "checkAllIdleOnCommit",
      "outputs": [
        {
          "internalType": "bool",
          "name": "changeToUndetermined",
          "type": "bool"
        },
        {
          "internalType": "bool",
          "name": "leaderIsIdle",
          "type": "bool"
        },
        {
          "internalType": "uint256[]",
          "name": "idleValidatorsIndexes",
          "type": "uint256[]"
        },
        {
          "internalType": "address[]",
          "name": "replacementValidators",
          "type": "address[]"
        },
        {
          "internalType": "bytes32[]",
          "name": "undeterminedTxIds",
          "type": "bytes32[]"
        }
      ],
      "stateMutability": "view",
      "type": "function"
    },
    {
      "inputs": [
        {
          "internalType": "address",
          "name": "",
          "type": "address"
        },
        {
          "internalType": "address",
          "name": "",
          "type": "address"
        },
        {
          "internalType": "bytes32",
          "name": "",
          "type": "bytes32"
        },
        {
          "components": [
            {
              "internalType": "enum ITransactions.ResultType",
              "name": "result",
              "type": "uint8"
            },
            {
              "internalType": "enum ITransactions.VoteType",
              "name": "txExecutionResult",
              "type": "uint8"
            },
            {
              "internalType": "enum ITransactions.TransactionStatus",
              "name": "previousStatus",
              "type": "uint8"
            },
            {
              "internalType": "enum ITransactions.TransactionStatus",
              "name": "status",
              "type": "uint8"
            },
            {
              "internalType": "address",
              "name": "txOrigin",
              "type": "address"
            },
            {
              "internalType": "address",
              "name": "sender",
              "type": "address"
            },
            {
              "internalType": "address",
              "name": "recipient",
              "type": "address"
            },
            {
              "internalType": "address",
              "name": "activator",
              "type": "address"
            },
            {
              "internalType": "uint256",
              "name": "txSlot",
              "type": "uint256"
            },
            {
              "internalType": "uint256",
              "name": "initialRotations",
              "type": "uint256"
            },
            {
              "internalType": "uint256",
              "name": "numOfInitialValidators",
              "type": "uint256"
            },
            {
              "internalType": "uint256",
              "name": "epoch",
              "type": "uint256"
            },
            {
              "internalType": "bytes32",
              "name": "id",
              "type": "bytes32"
            },
            {
              "internalType": "bytes32",
              "name": "randomSeed",
              "type": "bytes32"
            },
            {
              "internalType": "bytes32",
              "name": "txExecutionHash",
              "type": "bytes32"
            },
            {
              "internalType": "bytes32",
              "name": "resultHash",
              "type": "bytes32"
            },
            {
              "internalType": "bytes",
              "name": "txCalldata",
              "type": "bytes"
            },
            {
              "internalType": "bytes",
              "name": "eqBlocksOutputs",
              "type": "bytes"
            },
            {
              "components": [
                {
                  "internalType": "uint256",
                  "name": "activationBlock",
                  "type": "uint256"
                },
                {
                  "internalType": "uint256",
                  "name": "processingBlock",
                  "type": "uint256"
                },
                {
                  "internalType": "uint256",
                  "name": "proposalBlock",
                  "type": "uint256"
                }
              ],
              "internalType": "struct ITransactions.ReadStateBlockRange[]",
              "name": "readStateBlockRanges",
              "type": "tuple[]"
            },
            {
              "internalType": "uint256",
              "name": "validUntil",
              "type": "uint256"
            },
            {
              "internalType": "uint256",
              "name": "value",
              "type": "uint256"
            },
            {
              "internalType": "uint256",
              "name": "lockedStorageUnitPrice",
              "type": "uint256"
            },
            {
              "internalType": "uint256",
              "name": "storageFeeUsed",
              "type": "uint256"
            }
          ],
          "internalType": "struct ITransactions.Transaction",
          "name": "",
          "type": "tuple"
        }
      ],
      "name": "checkIdleOnActivation",
      "outputs": [
        {
          "internalType": "bool",
          "name": "isActivatorIdle",
          "type": "bool"
        },
        {
          "internalType": "bool",
          "name": "changeToUndetermined",
          "type": "bool"
        },
        {
          "internalType": "address",
          "name": "newActivator",
          "type": "address"
        },
        {
          "internalType": "bytes32[]",
          "name": "undeterminedTxIds",
          "type": "bytes32[]"
        },
        {
          "internalType": "bytes32[]",
          "name": "expiredTxIds",
          "type": "bytes32[]"
        }
      ],
      "stateMutability": "view",
      "type": "function"
    },
    {
      "inputs": [
        {
          "internalType": "address",
          "name": "",
          "type": "address"
        },
        {
          "internalType": "address",
          "name": "",
          "type": "address"
        },
        {
          "components": [
            {
              "internalType": "enum ITransactions.ResultType",
              "name": "result",
              "type": "uint8"
            },
            {
              "internalType": "enum ITransactions.VoteType",
              "name": "txExecutionResult",
              "type": "uint8"
            },
            {
              "internalType": "enum ITransactions.TransactionStatus",
              "name": "previousStatus",
              "type": "uint8"
            },
            {
              "internalType": "enum ITransactions.TransactionStatus",
              "name": "status",
              "type": "uint8"
            },
            {
              "internalType": "address",
              "name": "txOrigin",
              "type": "address"
            },
            {
              "internalType": "address",
              "name": "sender",
              "type": "address"
            },
            {
              "internalType": "address",
              "name": "recipient",
              "type": "address"
            },
            {
              "internalType": "address",
              "name": "activator",
              "type": "address"
            },
            {
              "internalType": "uint256",
              "name": "txSlot",
              "type": "uint256"
            },
            {
              "internalType": "uint256",
              "name": "initialRotations",
              "type": "uint256"
            },
            {
              "internalType": "uint256",
              "name": "numOfInitialValidators",
              "type": "uint256"
            },
            {
              "internalType": "uint256",
              "name": "epoch",
              "type": "uint256"
            },
            {
              "internalType": "bytes32",
              "name": "id",
              "type": "bytes32"
            },
            {
              "internalType": "bytes32",
              "name": "randomSeed",
              "type": "bytes32"
            },
            {
              "internalType": "bytes32",
              "name": "txExecutionHash",
              "type": "bytes32"
            },
            {
              "internalType": "bytes32",
              "name": "resultHash",
              "type": "bytes32"
            },
            {
              "internalType": "bytes",
              "name": "txCalldata",
              "type": "bytes"
            },
            {
              "internalType": "bytes",
              "name": "eqBlocksOutputs",
              "type": "bytes"
            },
            {
              "components": [
                {
                  "internalType": "uint256",
                  "name": "activationBlock",
                  "type": "uint256"
                },
                {
                  "internalType": "uint256",
                  "name": "processingBlock",
                  "type": "uint256"
                },
                {
                  "internalType": "uint256",
                  "name": "proposalBlock",
                  "type": "uint256"
                }
              ],
              "internalType": "struct ITransactions.ReadStateBlockRange[]",
              "name": "readStateBlockRanges",
              "type": "tuple[]"
            },
            {
              "internalType": "uint256",
              "name": "validUntil",
              "type": "uint256"
            },
            {
              "internalType": "uint256",
              "name": "value",
              "type": "uint256"
            },
            {
              "internalType": "uint256",
              "name": "lockedStorageUnitPrice",
              "type": "uint256"
            },
            {
              "internalType": "uint256",
              "name": "storageFeeUsed",
              "type": "uint256"
            }
          ],
          "internalType": "struct ITransactions.Transaction",
          "name": "",
          "type": "tuple"
        }
      ],
      "name": "checkIdleOnProposeReceipt",
      "outputs": [
        {
          "internalType": "bool",
          "name": "leaderIsIdle",
          "type": "bool"
        },
        {
          "internalType": "bool",
          "name": "changeToUndetermined",
          "type": "bool"
        },
        {
          "internalType": "address",
          "name": "newLeader",
          "type": "address"
        },
        {
          "internalType": "bytes32[]",
          "name": "undeterminedTxIds",
          "type": "bytes32[]"
        },
        {
          "internalType": "bytes32[]",
          "name": "expiredTxIds",
          "type": "bytes32[]"
        }
      ],
      "stateMutability": "view",
      "type": "function"
    },
    {
      "inputs": [
        {
          "internalType": "bytes32",
          "name": "",
          "type": "bytes32"
        },
        {
          "internalType": "enum ITransactions.TransactionStatus",
          "name": "",
          "type": "uint8"
        },
        {
          "internalType": "uint256",
          "name": "",
          "type": "uint256"
        }
      ],
      "name": "getSlotsElapsedAndIsTransactionHanging",
      "outputs": [
        {
          "internalType": "uint256",
          "name": "",
          "type": "uint256"
        },
        {
          "internalType": "bool",
          "name": "",
          "type": "bool"
        }
      ],
      "stateMutability": "view",
      "type": "function"
    },
    {
      "inputs": [],
      "name": "getTimeouts",
      "outputs": [
        {
          "components": [
            {
              "internalType": "uint256",
              "name": "activate",
              "type": "uint256"
            },
            {
              "internalType": "uint256",
              "name": "propose",
              "type": "uint256"
            },
            {
              "internalType": "uint256",
              "name": "commit",
              "type": "uint256"
            },
            {
              "internalType": "uint256",
              "name": "reveal",
              "type": "uint256"
            },
            {
              "internalType": "uint256",
              "name": "accept",
              "type": "uint256"
            },
            {
              "internalType": "uint256",
              "name": "leaderReveal",
              "type": "uint256"
            }
          ],
          "internalType": "struct IIdleness.Timeouts",
          "name": "",
          "type": "tuple"
        }
      ],
      "stateMutability": "view",
      "type": "function"
    },
    {
      "inputs": [
        {
          "internalType": "bytes32",
          "name": "txId",
          "type": "bytes32"
        }
      ],
      "name": "getTimestamps",
      "outputs": [
        {
          "components": [
            {
              "internalType": "uint256",
              "name": "created",
              "type": "uint256"
            },
            {
              "internalType": "uint256",
              "name": "pending",
              "type": "uint256"
            },
            {
              "internalType": "uint256",
              "name": "activated",
              "type": "uint256"
            },
            {
              "internalType": "uint256",
              "name": "proposed",
              "type": "uint256"
            },
            {
              "internalType": "uint256",
              "name": "committed",
              "type": "uint256"
            },
            {
              "internalType": "uint256",
              "name": "lastVote",
              "type": "uint256"
            },
            {
              "internalType": "uint256",
              "name": "appealSubmitted",
              "type": "uint256"
            },
            {
              "internalType": "uint256",
              "name": "leaderRevealed",
              "type": "uint256"
            }
          ],
          "internalType": "struct IIdleness.Timestamps",
          "name": "",
          "type": "tuple"
        }
      ],
      "stateMutability": "view",
      "type": "function"
    },
    {
      "inputs": [],
      "name": "lastSetTimestampTxId",
      "outputs": [
        {
          "internalType": "bytes32",
          "name": "",
          "type": "bytes32"
        }
      ],
      "stateMutability": "view",
      "type": "function"
    },
    {
      "inputs": [],
      "name": "lastSetTimestampType",
      "outputs": [
        {
          "internalType": "enum IIdleness.TimestampType",
          "name": "",
          "type": "uint8"
        }
      ],
      "stateMutability": "view",
      "type": "function"
    },
    {
      "inputs": [],
      "name": "lastSetTimestampValue",
      "outputs": [
        {
          "internalType": "uint256",
          "name": "",
          "type": "uint256"
        }
      ],
      "stateMutability": "view",
      "type": "function"
    },
    {
      "inputs": [],
      "name": "resetMockState",
      "outputs": [],
      "stateMutability": "nonpayable",
      "type": "function"
    },
    {
      "inputs": [
        {
          "internalType": "bool",
          "name": "changeToUndetermined",
          "type": "bool"
        },
        {
          "internalType": "bool",
          "name": "leaderIsIdle",
          "type": "bool"
        },
        {
          "internalType": "uint256[]",
          "name": "idleValidatorsIndexes",
          "type": "uint256[]"
        },
        {
          "internalType": "address[]",
          "name": "replacementValidators",
          "type": "address[]"
        },
        {
          "internalType": "bytes32[]",
          "name": "undeterminedTxIds",
          "type": "bytes32[]"
        }
      ],
      "name": "setMockCheckAllIdleOnCommit",
      "outputs": [],
      "stateMutability": "nonpayable",
      "type": "function"
    },
    {
      "inputs": [
        {
          "internalType": "bool",
          "name": "isActivatorIdle",
          "type": "bool"
        },
        {
          "internalType": "bool",
          "name": "changeToUndetermined",
          "type": "bool"
        },
        {
          "internalType": "address",
          "name": "newActivator",
          "type": "address"
        },
        {
          "internalType": "bytes32[]",
          "name": "undeterminedTxIds",
          "type": "bytes32[]"
        },
        {
          "internalType": "bytes32[]",
          "name": "expiredTxIds",
          "type": "bytes32[]"
        }
      ],
      "name": "setMockCheckIdleOnActivation",
      "outputs": [],
      "stateMutability": "nonpayable",
      "type": "function"
    },
    {
      "inputs": [
        {
          "internalType": "bool",
          "name": "leaderIsIdle",
          "type": "bool"
        },
        {
          "internalType": "bool",
          "name": "changeToUndetermined",
          "type": "bool"
        },
        {
          "internalType": "address",
          "name": "newLeader",
          "type": "address"
        },
        {
          "internalType": "bytes32[]",
          "name": "undeterminedTxIds",
          "type": "bytes32[]"
        },
        {
          "internalType": "bytes32[]",
          "name": "expiredTxIds",
          "type": "bytes32[]"
        }
      ],
      "name": "setMockCheckIdleOnProposeReceipt",
      "outputs": [],
      "stateMutability": "nonpayable",
      "type": "function"
    },
    {
      "inputs": [
        {
          "internalType": "uint256",
          "name": "slotsElapsed",
          "type": "uint256"
        },
        {
          "internalType": "bool",
          "name": "isTransactionHanging",
          "type": "bool"
        }
      ],
      "name": "setMockSlotsElapsedAndIsTransactionHanging",
      "outputs": [],
      "stateMutability": "nonpayable",
      "type": "function"
    },
    {
      "inputs": [
        {
          "components": [
            {
              "internalType": "uint256",
              "name": "activate",
              "type": "uint256"
            },
            {
              "internalType": "uint256",
              "name": "propose",
              "type": "uint256"
            },
            {
              "internalType": "uint256",
              "name": "commit",
              "type": "uint256"
            },
            {
              "internalType": "uint256",
              "name": "reveal",
              "type": "uint256"
            },
            {
              "internalType": "uint256",
              "name": "accept",
              "type": "uint256"
            },
            {
              "internalType": "uint256",
              "name": "leaderReveal",
              "type": "uint256"
            }
          ],
          "internalType": "struct IIdleness.Timeouts",
          "name": "timeouts",
          "type": "tuple"
        }
      ],
      "name": "setMockTimeouts",
      "outputs": [],
      "stateMutability": "nonpayable",
      "type": "function"
    },
    {
      "inputs": [
        {
          "internalType": "bytes32",
          "name": "txId",
          "type": "bytes32"
        },
        {
          "internalType": "enum IIdleness.TimestampType",
          "name": "timestampType",
          "type": "uint8"
        },
        {
          "internalType": "uint256",
          "name": "timestamp",
          "type": "uint256"
        }
      ],
      "name": "setTimestamp",
      "outputs": [],
      "stateMutability": "nonpayable",
      "type": "function"
    },
    {
      "inputs": [
        {
          "internalType": "bytes32",
          "name": "txId",
          "type": "bytes32"
        },
        {
          "components": [
            {
              "internalType": "uint256",
              "name": "created",
              "type": "uint256"
            },
            {
              "internalType": "uint256",
              "name": "pending",
              "type": "uint256"
            },
            {
              "internalType": "uint256",
              "name": "activated",
              "type": "uint256"
            },
            {
              "internalType": "uint256",
              "name": "proposed",
              "type": "uint256"
            },
            {
              "internalType": "uint256",
              "name": "committed",
              "type": "uint256"
            },
            {
              "internalType": "uint256",
              "name": "lastVote",
              "type": "uint256"
            },
            {
              "internalType": "uint256",
              "name": "appealSubmitted",
              "type": "uint256"
            },
            {
              "internalType": "uint256",
              "name": "leaderRevealed",
              "type": "uint256"
            }
          ],
          "internalType": "struct IIdleness.Timestamps",
          "name": "timestamps",
          "type": "tuple"
        }
      ],
      "name": "setTimestamps",
      "outputs": [],
      "stateMutability": "nonpayable",
      "type": "function"
    }
  ],
  "bytecode": "0x60808060405234601557611641908161001b8239f35b600080fdfe6080604052600436101561001257600080fd5b60003560e01c8063023770b5146110015780631f3172c914610d5d57806320090e9d14610d36578063293d959214610c3f57806330f8ccf514610bff578063337c8dfb14610b9457806333e3850e14610a9157806334130f0314610a73578063382495b014610a55578063440c2dd514610a215780634e8eb8bd146108f75780634f23081b146105a257806353e64702146104165780638e068d2c14610274578063b80063111461023f578063c0d64389146101895763e70c38f1146100d757600080fd5b3461018457600036600319011261018457600060a06040516100f88161113a565b828152826020820152826040820152826060820152826080820152015260c06040516101238161113a565b600754908181526008546020820190815260095460408301908152600a549060608401918252600b54926080850193845260a0600c5495019485526040519586525160208601525160408501525160608401525160808301525160a0820152f35b600080fd5b346101845761012036600319011261018457610100366023190112610184576040516101b48161111e565b602435815260076020820160443581526040830160643581526060840160843581526080850160a435815260a086019160c435835260c087019360e435855260e0880195610104358752600435600052600060205260406000209851895551600189015551600288015551600387015551600486015551600585015551600684015551910155600080f35b3461018457606036600319011261018457600f602435101561018457604060145460ff60155416825191825215156020820152f35b346101845761ff006102853661157d565b600d805494151560081b9096166001600160b01b031990941694151560ff16949094179290921760109190911b62010000600160b01b031617909255815190916001600160401b0382116103a657600160401b82116103a657600e5482600e558083106103d0575b50602001600e600052602060002060005b8381106103bc578451856001600160401b0382116103a657600160401b82116103a657600f5482600f55808310610360575b5060200190600f60005260206000209160005b82811061034c57005b600190602083519301928186015501610343565b600f6000527f8d1108e10bcb7c27dddfc02ed9d693a074039d026cf4ea4240b40f7d581ac8029081019083015b81811061039a5750610330565b6000815560010161038d565b634e487b7160e01b600052604160045260246000fd5b6001906020845194019381840155016102fe565b600e6000527fbb7b4a454dc3493923482f07822329ed19e8244eff582cc204f8554c3620c3fd9081019083015b81811061040a57506102ed565b600081556001016103fd565b346101845761ff006104273661157d565b6001805494151560081b9096166001600160b01b031990941694151560ff16949094179290921760109190911b62010000600160b01b031617909255815190916001600160401b0382116103a657600160401b82116103a6576002548260025580831061055c575b506020016002600052602060002060005b838110610548578451856001600160401b0382116103a657600160401b82116103a65760035482600355808310610502575b5060200190600360005260206000209160005b8281106104ee57005b6001906020835193019281860155016104e5565b60036000527fc2575a0e9e593c00f959f8c92f12db2869c3395a3b0502d05e2516446f71f85b9081019083015b81811061053c57506104d2565b6000815560010161052f565b6001906020845194019381840155016104a0565b60026000527f405787fa12a823e0f2b7631cc41b3ba8828b3321ca811111fa75cd3aa3bb5ace9081019083015b818110610596575061048f565b60008155600101610589565b34610184576040366003190112610184576004356001600160401b038111610184576105d29036906004016111e3565b506024356001600160401b038111610184576101606003198236030112610184576040519061016082018281106001600160401b038211176103a657604052806004013582526024810135602083015260448101356040830152606481013560608301526084810135608083015260a481013560a083015260c481013560068110156101845760c083015260e48101356001600160401b0381116101845761068090600436918401016114bb565b60e08301526101048101356001600160401b038111610184578101366023820112156101845760048101356106b4816111cc565b916106c26040519384611155565b818352602060048185019360051b830101019036821161018457602401915b8183106108de575050506101008301526101248101356001600160401b038111610184576107159060043691840101611520565b6101208301526101448101356001600160401b038111610184576101409160046107429236920101611520565b91015260105460405190819060206011549384815201928284601160005260206000209260005b8181106108c557505061077e92500383611155565b604051928360206012549586815201948186601260005260206000209260005b8181106108a35750506107b392500382611155565b604051926013548085528460208101601360005260206000209260005b81811061088a5750506107e592500385611155565b6040519460ff60a08701928181161515885260081c161515602087015260a060408701525180915260c08501929060005b818110610874575050506020908483036060860152519182815201939060005b8181106108555784806108518887838203608085015261142f565b0390f35b82516001600160a01b0316865260209586019590920191600101610836565b8251855260209485019490920191600101610816565b84548352600194850194899450602090930192016107d0565b84546001600160a01b031683526001948501948694506020909301920161079e565b8454835260019485019487945060209093019201610769565b82356005811015610184578152602092830192016106e1565b34610184576060366003190112610184576024356004356008821015610184576044359181600455600060ff196005541660ff8316176005558360065550801560001461094f57506000526000602052604060002055005b60006001820361096e5750506000526000602052600160406000200155005b506002810361098b57506000526000602052600260406000200155005b6000600382036109aa5750506000526000602052600360406000200155005b50600481036109c757506000526000602052600460406000200155005b6000600582036109e65750506000526000602052600560406000200155005b5060068103610a0357506000526000602052600660406000200155005b90600760009214610a1057005b816040916007935280602052200155005b3461018457604036600319011261018457610a3a6114ac565b60043560145560ff8019601554169115151617601555600080f35b34610184576000366003190112610184576020600654604051908152f35b34610184576000366003190112610184576020600454604051908152f35b3461018457608036600319011261018457610aaa6110de565b50610ab36110f4565b506064356001600160401b03811161018457610ad39036906004016111e3565b50600d5460405190600e548083528260208101600e60005260206000209260005b818110610b7b575050610b0992500383611155565b604051600f548082526020820190600f60005260206000209060005b818110610b655750505090610b3f81610851930382611155565b6040519384936001600160a01b03601082901c169060ff600882901c8116911686611463565b8254845260209093019260019283019201610b25565b8454835260019485019487945060209093019201610af4565b346101845760c03660031901126101845760a0604051610bb38161113a565b60043580825260243580602084015260443590816040850152606435928360608601526084359485608082015260a4359687910152600755600855600955600a55600b55600c55600080f35b346101845760003660031901126101845760ff600554166040516008821015610c29576020918152f35b634e487b7160e01b600052602160045260246000fd5b3461018457602036600319011261018457600060e0604051610c608161111e565b8281528260208201528260408201528260608201528260808201528260a08201528260c0820152015260043560005260006020526101006040600020604051610ca88161111e565b8154918282526001810154602083019081526002820154604084019081526003830154606085019081526004840154916080860192835260058501549360a0870194855260e0600760068801549760c08a01988952015497019687526040519788525160208801525160408701525160608601525160808501525160a08401525160c08301525160e0820152f35b3461018457600036600319011261018457600060048190556005805460ff19169055600655005b346101845760a03660031901126101845760043580151580910361018457610d836114ac565b906044356001600160401b038111610184573660238201121561018457806004013590610daf826111cc565b90610dbd6040519283611155565b828252602082016024819460051b8301019136831161018457602401905b828210610ff1575050506064356001600160401b03811161018457610e049036906004016114bb565b926084356001600160401b03811161018457610e24903690600401611520565b9460ff61ff0060105492151560081b1692169061ffff1916171760105551906001600160401b0382116103a657600160401b82116103a65760115482601155808310610fb6575b506011600052602060002060005b838110610fa25785858051906001600160401b0382116103a657600160401b82116103a65760209060125483601255808410610f84575b50016012600052602060002060005b838110610f67578451856001600160401b0382116103a657600160401b82116103a65760135482601355808310610f21575b5060200190601360005260206000209160005b828110610f0d57005b600190602083519301928186015501610f04565b60136000527f66de8ffda797e3de9c05e8fc57b3bf0ec28a930d40b0d285d93c06501cf6a0909081019083015b818110610f5b5750610ef1565b60008155600101610f4e565b82516001600160a01b031681830155602090920191600101610ebf565b610f9c906012600052848460002091820191016115f4565b84610eb0565b600190602084519401938184015501610e79565b6011600052610feb907f31ecc21a745e3968a04e9570e4425bc18fa8019c68028196b546d1669c200c689081019084016115f4565b84610e6b565b8135815260209182019101610ddb565b346101845760603660031901126101845761101a6110de565b506110236110f4565b506044356001600160401b038111610184576110439036906004016111e3565b50600154604051906002548083528260208101600260005260206000209260005b8181106110c557505061107992500383611155565b6040516003548082526020820190600360005260206000209060005b8181106110af5750505090610b3f81610851930382611155565b8254845260209093019260019283019201611095565b8454835260019485019487945060209093019201611064565b600435906001600160a01b038216820361018457565b602435906001600160a01b038216820361018457565b35906001600160a01b038216820361018457565b61010081019081106001600160401b038211176103a657604052565b60c081019081106001600160401b038211176103a657604052565b90601f801991011681019081106001600160401b038211176103a657604052565b81601f82011215610184578035906001600160401b0382116103a657604051926111aa601f8401601f191660200185611155565b8284526020838301011161018457816000926020809301838601378301015290565b6001600160401b0381116103a65760051b60200190565b9190916102e08184031261018457604051906102e082018281106001600160401b038211176103a657604052819381356006811015610184578352602082013560058110156101845760208401526040820135600f8110156101845760408401526060820135600f8110156101845760608401526112636080830161110a565b608084015261127460a0830161110a565b60a084015261128560c0830161110a565b60c084015261129660e0830161110a565b60e08401526101008201356101008401526101208201356101208401526101408201356101408401526101608201356101608401526101808201356101808401526101a08201356101a08401526101c08201356101c08401526101e08201356101e08401526102008201356001600160401b038111610184578161131b918401611176565b6102008401526102208201356001600160401b0381116101845781611341918401611176565b6102208401526102408201356001600160401b03811161018457820181601f8201121561018457803590611374826111cc565b926113826040519485611155565b8284526020606081860194028301019181831161018457602001925b8284106113e057505050506102c09182916102408501526102608101356102608501526102808101356102808501526102a08101356102a08501520135910152565b606084830312610184576040519060608201908282106001600160401b038311176103a6576060926020926040528635815282870135838201526040870135604082015281520193019261139e565b906020808351928381520192019060005b81811061144d5750505090565b8251845260209384019390920191600101611440565b901515815290151560208201526001600160a01b03909116604082015260a0606082018190526114a993919261149b9184019061142f565b91608081840391015261142f565b90565b60243590811515820361018457565b9080601f830112156101845781356114d2816111cc565b926114e06040519485611155565b81845260208085019260051b82010192831161018457602001905b8282106115085750505090565b602080916115158461110a565b8152019101906114fb565b9080601f83011215610184578135611537816111cc565b926115456040519485611155565b81845260208085019260051b82010192831161018457602001905b82821061156d5750505090565b8135815260209182019101611560565b60a06003198201126101845760043580151581036101845791602435801515810361018457916044356001600160a01b038116810361018457916064356001600160401b03811161018457826115d591600401611520565b91608435906001600160401b038211610184576114a991600401611520565b8181106115ff575050565b600081556001016115f456fea2646970667358221220dc13dd362c7c0b21dae85c1e2c205146a57710cfb4207711b346f4bec130ee8d64736f6c634300081c0033",
  "linkReferences": {},
  "deployedLinkReferences": {}
}