{
  "_format": "hh-sol-artifact-1",
  "contractName": "MockIdlenessForActivation",
  "sourceName": "contracts/test-helpers/MockIdlenessForActivation.sol",
  "abi": [
    {
      "inputs": [
        {
          "internalType": "address",
          "name": "",
          "type": "address"
        },
        {
          "internalType": "address",
          "name": "",
          "type": "address"
        },
        {
          "internalType": "bytes32",
          "name": "",
          "type": "bytes32"
        },
        {
          "components": [
            {
              "internalType": "enum ITransactions.ResultType",
              "name": "result",
              "type": "uint8"
            },
            {
              "internalType": "enum ITransactions.VoteType",
              "name": "txExecutionResult",
              "type": "uint8"
            },
            {
              "internalType": "enum ITransactions.TransactionStatus",
              "name": "previousStatus",
              "type": "uint8"
            },
            {
              "internalType": "enum ITransactions.TransactionStatus",
              "name": "status",
              "type": "uint8"
            },
            {
              "internalType": "address",
              "name": "txOrigin",
              "type": "address"
            },
            {
              "internalType": "address",
              "name": "sender",
              "type": "address"
            },
            {
              "internalType": "address",
              "name": "recipient",
              "type": "address"
            },
            {
              "internalType": "address",
              "name": "activator",
              "type": "address"
            },
            {
              "internalType": "uint256",
              "name": "txSlot",
              "type": "uint256"
            },
            {
              "internalType": "uint256",
              "name": "initialRotations",
              "type": "uint256"
            },
            {
              "internalType": "uint256",
              "name": "numOfInitialValidators",
              "type": "uint256"
            },
            {
              "internalType": "uint256",
              "name": "epoch",
              "type": "uint256"
            },
            {
              "internalType": "bytes32",
              "name": "id",
              "type": "bytes32"
            },
            {
              "internalType": "bytes32",
              "name": "randomSeed",
              "type": "bytes32"
            },
            {
              "internalType": "bytes32",
              "name": "txExecutionHash",
              "type": "bytes32"
            },
            {
              "internalType": "bytes32",
              "name": "resultHash",
              "type": "bytes32"
            },
            {
              "internalType": "bytes",
              "name": "txCalldata",
              "type": "bytes"
            },
            {
              "internalType": "bytes",
              "name": "eqBlocksOutputs",
              "type": "bytes"
            },
            {
              "components": [
                {
                  "internalType": "uint256",
                  "name": "activationBlock",
                  "type": "uint256"
                },
                {
                  "internalType": "uint256",
                  "name": "processingBlock",
                  "type": "uint256"
                },
                {
                  "internalType": "uint256",
                  "name": "proposalBlock",
                  "type": "uint256"
                }
              ],
              "internalType": "struct ITransactions.ReadStateBlockRange[]",
              "name": "readStateBlockRanges",
              "type": "tuple[]"
            },
            {
              "internalType": "uint256",
              "name": "validUntil",
              "type": "uint256"
            },
            {
              "internalType": "uint256",
              "name": "value",
              "type": "uint256"
            },
            {
              "internalType": "uint256",
              "name": "lockedStorageUnitPrice",
              "type": "uint256"
            },
            {
              "internalType": "uint256",
              "name": "storageFeeUsed",
              "type": "uint256"
            }
          ],
          "internalType": "struct ITransactions.Transaction",
          "name": "",
          "type": "tuple"
        }
      ],
      "name": "checkIdleOnActivation",
      "outputs": [
        {
          "internalType": "bool",
          "name": "isActivatorIdle",
          "type": "bool"
        },
        {
          "internalType": "bool",
          "name": "changeToUndetermined",
          "type": "bool"
        },
        {
          "internalType": "address",
          "name": "newActivator",
          "type": "address"
        },
        {
          "internalType": "bytes32[]",
          "name": "undeterminedTxIds",
          "type": "bytes32[]"
        },
        {
          "internalType": "bytes32[]",
          "name": "expiredTxIds",
          "type": "bytes32[]"
        }
      ],
      "stateMutability": "view",
      "type": "function"
    },
    {
      "inputs": [
        {
          "internalType": "bytes32",
          "name": "txId",
          "type": "bytes32"
        }
      ],
      "name": "getTimestamps",
      "outputs": [
        {
          "components": [
            {
              "internalType": "uint256",
              "name": "created",
              "type": "uint256"
            },
            {
              "internalType": "uint256",
              "name": "pending",
              "type": "uint256"
            },
            {
              "internalType": "uint256",
              "name": "activated",
              "type": "uint256"
            },
            {
              "internalType": "uint256",
              "name": "proposed",
              "type": "uint256"
            },
            {
              "internalType": "uint256",
              "name": "committed",
              "type": "uint256"
            },
            {
              "internalType": "uint256",
              "name": "lastVote",
              "type": "uint256"
            },
            {
              "internalType": "uint256",
              "name": "appealSubmitted",
              "type": "uint256"
            },
            {
              "internalType": "uint256",
              "name": "leaderRevealed",
              "type": "uint256"
            }
          ],
          "internalType": "struct IIdleness.Timestamps",
          "name": "",
          "type": "tuple"
        }
      ],
      "stateMutability": "view",
      "type": "function"
    },
    {
      "inputs": [
        {
          "internalType": "bool",
          "name": "isActivatorIdle",
          "type": "bool"
        },
        {
          "internalType": "bool",
          "name": "changeToUndetermined",
          "type": "bool"
        },
        {
          "internalType": "address",
          "name": "newActivator",
          "type": "address"
        },
        {
          "internalType": "bytes32[]",
          "name": "undeterminedTxIds",
          "type": "bytes32[]"
        },
        {
          "internalType": "bytes32[]",
          "name": "expiredTxIds",
          "type": "bytes32[]"
        }
      ],
      "name": "setMockCheckIdleOnActivation",
      "outputs": [],
      "stateMutability": "nonpayable",
      "type": "function"
    },
    {
      "inputs": [
        {
          "internalType": "bytes32",
          "name": "txId",
          "type": "bytes32"
        },
        {
          "internalType": "enum IIdleness.TimestampType",
          "name": "timestampType",
          "type": "uint8"
        },
        {
          "internalType": "uint256",
          "name": "timestamp",
          "type": "uint256"
        }
      ],
      "name": "setTimestamp",
      "outputs": [],
      "stateMutability": "nonpayable",
      "type": "function"
    },
    {
      "inputs": [
        {
          "internalType": "bytes32",
          "name": "txId",
          "type": "bytes32"
        },
        {
          "components": [
            {
              "internalType": "uint256",
              "name": "created",
              "type": "uint256"
            },
            {
              "internalType": "uint256",
              "name": "pending",
              "type": "uint256"
            },
            {
              "internalType": "uint256",
              "name": "activated",
              "type": "uint256"
            },
            {
              "internalType": "uint256",
              "name": "proposed",
              "type": "uint256"
            },
            {
              "internalType": "uint256",
              "name": "committed",
              "type": "uint256"
            },
            {
              "internalType": "uint256",
              "name": "lastVote",
              "type": "uint256"
            },
            {
              "internalType": "uint256",
              "name": "appealSubmitted",
              "type": "uint256"
            },
            {
              "internalType": "uint256",
              "name": "leaderRevealed",
              "type": "uint256"
            }
          ],
          "internalType": "struct IIdleness.Timestamps",
          "name": "timestamps",
          "type": "tuple"
        }
      ],
      "name": "setTimestamps",
      "outputs": [],
      "stateMutability": "nonpayable",
      "type": "function"
    }
  ],
  "bytecode": "0x60808060405234601557610a42908161001b8239f35b600080fdfe608080604052600436101561001357600080fd5b60003560e01c908163293d95921461079c5750806333e3850e146104235780634e8eb8bd146103135780638e068d2c146101115763c0d643891461005657600080fd5b3461010c5761012036600319011261010c5761010036602319011261010c57604051610081816108d1565b602435815260076020820160443581526040830160643581526060840160843581526080850160a435815260a086019160c435835260c087019360e435855260e0880195610104358752600435600052600060205260406000209851895551600189015551600288015551600387015551600486015551600585015551600684015551910155600080f35b600080fd5b3461010c5760a036600319011261010c5760043580151580910361010c5760243580151580910361010c57604435916001600160a01b038316830361010c576064356001600160401b03811161010c5761016f9036906004016109af565b916084356001600160401b03811161010c5761019261ff009136906004016109af565b9460ff6001549162010000600160b01b039060101b1694169060018060b01b031916179160081b1617176001558051906001600160401b0382116102a357600160401b82116102a357600254826002558083106102cd575b506020016002600052602060002060005b8381106102b9578451856001600160401b0382116102a357600160401b82116102a3576003548260035580831061025d575b5060200190600360005260206000209160005b82811061024957005b600190602083519301928186015501610240565b60036000527fc2575a0e9e593c00f959f8c92f12db2869c3395a3b0502d05e2516446f71f85b9081019083015b818110610297575061022d565b6000815560010161028a565b634e487b7160e01b600052604160045260246000fd5b6001906020845194019381840155016101fb565b60026000527f405787fa12a823e0f2b7631cc41b3ba8828b3321ca811111fa75cd3aa3bb5ace9081019083015b81811061030757506101ea565b600081556001016102fa565b3461010c57606036600319011261010c57602435600435600882101561010c57604435916000816103505750506000526000602052604060002055005b506001810361036d57506000526000602052600160406000200155005b60006002820361038c5750506000526000602052600260406000200155005b50600381036103a957506000526000602052600360406000200155005b6000600482036103c85750506000526000602052600460406000200155005b50600581036103e557506000526000602052600560406000200155005b600090600681036104055750506000526000602052600660406000200155005b600791501461041057005b6000526000602052600760406000200155005b3461010c57608036600319011261010c5761043c610891565b506104456108a7565b506064356001600160401b03811161010c576102e0600319823603011261010c57604051906102e082018281106001600160401b038211176102a3576040528060040135600681101561010c5782526024810135600581101561010c5760208301526044810135600f81101561010c5760408301526064810135600f81101561010c5760608301526104d9608482016108bd565b60808301526104ea60a482016108bd565b60a08301526104fb60c482016108bd565b60c083015261050c60e482016108bd565b60e08301526101048101356101008301526101248101356101208301526101448101356101408301526101648101356101608301526101848101356101808301526101a48101356101a08301526101c48101356101c08301526101e48101356101e08301526102048101356001600160401b03811161010c57610595906004369184010161090e565b6102008301526102248101356001600160401b03811161010c576105bf906004369184010161090e565b6102208301526102448101356001600160401b03811161010c5781013660238201121561010c5760048101356105f481610964565b9161060260405193846108ed565b8183526020600460608286019402830101019036821161010c57602401915b81831061074d57856102c06102c487876102408501526102648101356102608501526102848101356102808501526102a48101356102a08501520135910152600154604051906002548083528260208101600260005260206000209260005b818110610734575050610695925003836108ed565b6040516003548082526020820190600360005260206000209060005b81811061071e57505050906106cb8161071a9303826108ed565b61070c604051948460ff8796161515865260ff8160081c161515602087015260018060a01b039060101c16604086015260a0606086015260a085019061097b565b90838203608085015261097b565b0390f35b82548452602090930192600192830192016106b1565b8454835260019485019487945060209093019201610680565b60608336031261010c576040519060608201908282106001600160401b038311176102a35760609260209260405285358152828601358382015260408601356040820152815201920191610621565b3461010c57602036600319011261010c5760e0816107bb6000936108d1565b8281528260208201528260408201528260608201528260808201528260a08201528260c0820152015260043560005260006020526101006040600020604051610803816108d1565b8154918282526001810154602083019081526002820154604084019081526003830154606085019081526004840154916080860192835260058501549360a0870194855260e0600760068801549760c08a01988952015497019687526040519788525160208801525160408701525160608601525160808501525160a08401525160c08301525160e0820152f35b600435906001600160a01b038216820361010c57565b602435906001600160a01b038216820361010c57565b35906001600160a01b038216820361010c57565b61010081019081106001600160401b038211176102a357604052565b90601f801991011681019081106001600160401b038211176102a357604052565b81601f8201121561010c578035906001600160401b0382116102a35760405192610942601f8401601f1916602001856108ed565b8284526020838301011161010c57816000926020809301838601378301015290565b6001600160401b0381116102a35760051b60200190565b906020808351928381520192019060005b8181106109995750505090565b825184526020938401939092019160010161098c565b9080601f8301121561010c5781356109c681610964565b926109d460405194856108ed565b81845260208085019260051b82010192831161010c57602001905b8282106109fc5750505090565b81358152602091820191016109ef56fea264697066735822122021119cac9bb287c6d5bb771e761656f555f4fd2d0612640a4e93e06493e64fca64736f6c634300081c0033",
  "linkReferences": {},
  "deployedLinkReferences": {}
}