{
  "_format": "hh-sol-artifact-1",
  "contractName": "MockZkSyncSharedBridge",
  "sourceName": "contracts/test-helpers/MockZkSyncSharedBridge.sol",
  "abi": [
    {
      "inputs": [
        {
          "internalType": "address",
          "name": "_assets",
          "type": "address"
        },
        {
          "internalType": "address",
          "name": "_gen",
          "type": "address"
        }
      ],
      "stateMutability": "nonpayable",
      "type": "constructor"
    },
    {
      "anonymous": false,
      "inputs": [
        {
          "indexed": true,
          "internalType": "uint256",
          "name": "chainId",
          "type": "uint256"
        },
        {
          "indexed": true,
          "internalType": "uint256",
          "name": "batchNumber",
          "type": "uint256"
        },
        {
          "indexed": true,
          "internalType": "uint256",
          "name": "txIndex",
          "type": "uint256"
        },
        {
          "indexed": false,
          "internalType": "uint16",
          "name": "batchIndex",
          "type": "uint16"
        },
        {
          "indexed": false,
          "internalType": "bytes",
          "name": "message",
          "type": "bytes"
        }
      ],
      "name": "WithdrawalFinalized",
      "type": "event"
    },
    {
      "inputs": [],
      "name": "assets",
      "outputs": [
        {
          "internalType": "contract IMockZkSyncAssetRouter",
          "name": "",
          "type": "address"
        }
      ],
      "stateMutability": "view",
      "type": "function"
    },
    {
      "inputs": [
        {
          "internalType": "uint256",
          "name": "_chainId",
          "type": "uint256"
        },
        {
          "internalType": "uint256",
          "name": "_batchNumber",
          "type": "uint256"
        },
        {
          "internalType": "uint256",
          "name": "_txIndex",
          "type": "uint256"
        },
        {
          "internalType": "uint16",
          "name": "_batchIndex",
          "type": "uint16"
        },
        {
          "internalType": "bytes",
          "name": "_message",
          "type": "bytes"
        },
        {
          "internalType": "bytes32[]",
          "name": "",
          "type": "bytes32[]"
        }
      ],
      "name": "finalizeWithdrawal",
      "outputs": [],
      "stateMutability": "nonpayable",
      "type": "function"
    },
    {
      "inputs": [],
      "name": "gen",
      "outputs": [
        {
          "internalType": "contract IERC20",
          "name": "",
          "type": "address"
        }
      ],
      "stateMutability": "view",
      "type": "function"
    },
    {
      "inputs": [
        {
          "internalType": "uint256",
          "name": "_chainId",
          "type": "uint256"
        },
        {
          "internalType": "uint256",
          "name": "_l2BatchNumber",
          "type": "uint256"
        },
        {
          "internalType": "uint256",
          "name": "_l2MessageIndex",
          "type": "uint256"
        }
      ],
      "name": "isWithdrawalFinalized",
      "outputs": [
        {
          "internalType": "bool",
          "name": "",
          "type": "bool"
        }
      ],
      "stateMutability": "view",
      "type": "function"
    },
    {
      "inputs": [
        {
          "internalType": "address",
          "name": "_l2Sender",
          "type": "address"
        },
        {
          "internalType": "address",
          "name": "_l1Receiver",
          "type": "address"
        },
        {
          "internalType": "uint256",
          "name": "_amount",
          "type": "uint256"
        },
        {
          "internalType": "bytes",
          "name": "_additionalData",
          "type": "bytes"
        }
      ],
      "name": "receiveL2ToL1Message",
      "outputs": [],
      "stateMutability": "nonpayable",
      "type": "function"
    },
    {
      "inputs": [
        {
          "internalType": "uint256",
          "name": "",
          "type": "uint256"
        },
        {
          "internalType": "uint256",
          "name": "",
          "type": "uint256"
        },
        {
          "internalType": "uint256",
          "name": "",
          "type": "uint256"
        }
      ],
      "name": "withdrawalFinalized",
      "outputs": [
        {
          "internalType": "bool",
          "name": "",
          "type": "bool"
        }
      ],
      "stateMutability": "view",
      "type": "function"
    }
  ],
  "bytecode": "0x608034608d57601f61049238819003918201601f19168301916001600160401b038311848410176092578084926040948552833981010312608d5760418160a8565b906001600160a01b039060559060200160a8565b1660018060a01b0319600254161760025560018060a01b031660018060a01b031960015416176001556040516103d690816100bc8239f35b600080fd5b634e487b7160e01b600052604160045260246000fd5b51906001600160a01b0382168203608d5756fe608080604052600436101561001357600080fd5b600090813560e01c9081631180ba42146102de57816371a97305146102b5575080638f31f0521461027c5780639bb8c5091461027c578063b42dfa0d146102535763c87325f11461006357600080fd5b346102505760c0366003190112610250576004356024356044359160643561ffff811680910361024e5760843567ffffffffffffffff811161024a576100ad903690600401610358565b60a49291923567ffffffffffffffff811161024657366023820112156102465780600401359067ffffffffffffffff821161024257602490369260051b01011161023e5783875286602052604087208588526020526040872086885260205260408720600160ff198254161790558060181161023e578060381161023e5760015460025488916001600160a01b039182169116803b1561023a5760648392604051948593849263078d3b7960e01b8452600484015260048a013560601c602484015260188a013560448401525af1801561022f576101df575b507f39da5ca5b6f7e9937adea2e10fa2b6fdc62d2d4fcaf72d32b5ad1c6ab3a4f148929181606092604051948593845260406020850152816040850152848401378181018301899052601f01601f19168101030190a480f35b67ffffffffffffffff819892981161021b57604052957f39da5ca5b6f7e9937adea2e10fa2b6fdc62d2d4fcaf72d32b5ad1c6ab3a4f148610186565b634e487b7160e01b82526041600452602482fd5b6040513d8a823e3d90fd5b8280fd5b8680fd5b8880fd5b8780fd5b8580fd5b845b80fd5b50346102505780600319360112610250576002546040516001600160a01b039091168152602090f35b50346102505760ff604060209261029236610386565b918352828652838320908352855282822090825284522054166040519015158152f35b9050346102da57816003193601126102da576001546001600160a01b03168152602090f35b5080fd5b8234610250576080366003190112610250576102f8610327565b50610301610342565b5060643567ffffffffffffffff81116102da57610322903690600401610358565b505080f35b600435906001600160a01b038216820361033d57565b600080fd5b602435906001600160a01b038216820361033d57565b9181601f8401121561033d5782359167ffffffffffffffff831161033d576020838186019501011161033d57565b606090600319011261033d5760043590602435906044359056fea26469706673582212204cbd92293100abf94613bc6f2e12cf07db20b5a06d2212ef2ffd63a739e35a2d64736f6c634300081c0033",
  "linkReferences": {},
  "deployedLinkReferences": {}
}