{
  "_format": "hh-sol-artifact-1",
  "contractName": "Rounds",
  "sourceName": "contracts/transactions/Rounds.sol",
  "abi": [
    {
      "inputs": [],
      "name": "AccessControlBadConfirmation",
      "type": "error"
    },
    {
      "inputs": [
        {
          "internalType": "address",
          "name": "account",
          "type": "address"
        },
        {
          "internalType": "bytes32",
          "name": "neededRole",
          "type": "bytes32"
        }
      ],
      "name": "AccessControlUnauthorizedAccount",
      "type": "error"
    },
    {
      "inputs": [],
      "name": "CallerNotTransactions",
      "type": "error"
    },
    {
      "inputs": [
        {
          "internalType": "uint256",
          "name": "numValidators",
          "type": "uint256"
        },
        {
          "internalType": "uint256",
          "name": "availableValidators",
          "type": "uint256"
        }
      ],
      "name": "InsufficientActiveValidators",
      "type": "error"
    },
    {
      "inputs": [],
      "name": "InvalidInitialization",
      "type": "error"
    },
    {
      "inputs": [],
      "name": "NotAppealsContract",
      "type": "error"
    },
    {
      "inputs": [],
      "name": "NotInitializing",
      "type": "error"
    },
    {
      "inputs": [
        {
          "internalType": "address",
          "name": "owner",
          "type": "address"
        }
      ],
      "name": "OwnableInvalidOwner",
      "type": "error"
    },
    {
      "inputs": [
        {
          "internalType": "address",
          "name": "account",
          "type": "address"
        }
      ],
      "name": "OwnableUnauthorizedAccount",
      "type": "error"
    },
    {
      "anonymous": false,
      "inputs": [
        {
          "indexed": false,
          "internalType": "uint64",
          "name": "version",
          "type": "uint64"
        }
      ],
      "name": "Initialized",
      "type": "event"
    },
    {
      "anonymous": false,
      "inputs": [
        {
          "indexed": true,
          "internalType": "address",
          "name": "previousOwner",
          "type": "address"
        },
        {
          "indexed": true,
          "internalType": "address",
          "name": "newOwner",
          "type": "address"
        }
      ],
      "name": "OwnershipTransferStarted",
      "type": "event"
    },
    {
      "anonymous": false,
      "inputs": [
        {
          "indexed": true,
          "internalType": "address",
          "name": "previousOwner",
          "type": "address"
        },
        {
          "indexed": true,
          "internalType": "address",
          "name": "newOwner",
          "type": "address"
        }
      ],
      "name": "OwnershipTransferred",
      "type": "event"
    },
    {
      "anonymous": false,
      "inputs": [
        {
          "indexed": true,
          "internalType": "bytes32",
          "name": "role",
          "type": "bytes32"
        },
        {
          "indexed": true,
          "internalType": "bytes32",
          "name": "previousAdminRole",
          "type": "bytes32"
        },
        {
          "indexed": true,
          "internalType": "bytes32",
          "name": "newAdminRole",
          "type": "bytes32"
        }
      ],
      "name": "RoleAdminChanged",
      "type": "event"
    },
    {
      "anonymous": false,
      "inputs": [
        {
          "indexed": true,
          "internalType": "bytes32",
          "name": "role",
          "type": "bytes32"
        },
        {
          "indexed": true,
          "internalType": "address",
          "name": "account",
          "type": "address"
        },
        {
          "indexed": true,
          "internalType": "address",
          "name": "sender",
          "type": "address"
        }
      ],
      "name": "RoleGranted",
      "type": "event"
    },
    {
      "anonymous": false,
      "inputs": [
        {
          "indexed": true,
          "internalType": "bytes32",
          "name": "role",
          "type": "bytes32"
        },
        {
          "indexed": true,
          "internalType": "address",
          "name": "account",
          "type": "address"
        },
        {
          "indexed": true,
          "internalType": "address",
          "name": "sender",
          "type": "address"
        }
      ],
      "name": "RoleRevoked",
      "type": "event"
    },
    {
      "inputs": [],
      "name": "DEFAULT_ADMIN_ROLE",
      "outputs": [
        {
          "internalType": "bytes32",
          "name": "",
          "type": "bytes32"
        }
      ],
      "stateMutability": "view",
      "type": "function"
    },
    {
      "inputs": [],
      "name": "acceptOwnership",
      "outputs": [],
      "stateMutability": "nonpayable",
      "type": "function"
    },
    {
      "inputs": [],
      "name": "appeals",
      "outputs": [
        {
          "internalType": "contract IAppeals",
          "name": "",
          "type": "address"
        }
      ],
      "stateMutability": "view",
      "type": "function"
    },
    {
      "inputs": [
        {
          "components": [
            {
              "internalType": "enum ITransactions.ResultType",
              "name": "result",
              "type": "uint8"
            },
            {
              "internalType": "enum ITransactions.VoteType",
              "name": "txExecutionResult",
              "type": "uint8"
            },
            {
              "internalType": "enum ITransactions.TransactionStatus",
              "name": "previousStatus",
              "type": "uint8"
            },
            {
              "internalType": "enum ITransactions.TransactionStatus",
              "name": "status",
              "type": "uint8"
            },
            {
              "internalType": "address",
              "name": "txOrigin",
              "type": "address"
            },
            {
              "internalType": "address",
              "name": "sender",
              "type": "address"
            },
            {
              "internalType": "address",
              "name": "recipient",
              "type": "address"
            },
            {
              "internalType": "address",
              "name": "activator",
              "type": "address"
            },
            {
              "internalType": "uint256",
              "name": "txSlot",
              "type": "uint256"
            },
            {
              "internalType": "uint256",
              "name": "initialRotations",
              "type": "uint256"
            },
            {
              "internalType": "uint256",
              "name": "numOfInitialValidators",
              "type": "uint256"
            },
            {
              "internalType": "uint256",
              "name": "epoch",
              "type": "uint256"
            },
            {
              "internalType": "bytes32",
              "name": "id",
              "type": "bytes32"
            },
            {
              "internalType": "bytes32",
              "name": "randomSeed",
              "type": "bytes32"
            },
            {
              "internalType": "bytes32",
              "name": "txExecutionHash",
              "type": "bytes32"
            },
            {
              "internalType": "bytes32",
              "name": "resultHash",
              "type": "bytes32"
            },
            {
              "internalType": "bytes",
              "name": "txCalldata",
              "type": "bytes"
            },
            {
              "internalType": "bytes",
              "name": "eqBlocksOutputs",
              "type": "bytes"
            },
            {
              "components": [
                {
                  "internalType": "uint256",
                  "name": "activationBlock",
                  "type": "uint256"
                },
                {
                  "internalType": "uint256",
                  "name": "processingBlock",
                  "type": "uint256"
                },
                {
                  "internalType": "uint256",
                  "name": "proposalBlock",
                  "type": "uint256"
                }
              ],
              "internalType": "struct ITransactions.ReadStateBlockRange[]",
              "name": "readStateBlockRanges",
              "type": "tuple[]"
            },
            {
              "internalType": "uint256",
              "name": "validUntil",
              "type": "uint256"
            },
            {
              "internalType": "uint256",
              "name": "value",
              "type": "uint256"
            }
          ],
          "internalType": "struct ITransactions.Transaction",
          "name": "_tx",
          "type": "tuple"
        }
      ],
      "name": "createFirstRound",
      "outputs": [
        {
          "internalType": "bool",
          "name": "isInvalid",
          "type": "bool"
        },
        {
          "internalType": "address[]",
          "name": "roundValidators",
          "type": "address[]"
        },
        {
          "internalType": "uint256",
          "name": "leaderIndex",
          "type": "uint256"
        }
      ],
      "stateMutability": "nonpayable",
      "type": "function"
    },
    {
      "inputs": [
        {
          "components": [
            {
              "internalType": "enum ITransactions.ResultType",
              "name": "result",
              "type": "uint8"
            },
            {
              "internalType": "enum ITransactions.VoteType",
              "name": "txExecutionResult",
              "type": "uint8"
            },
            {
              "internalType": "enum ITransactions.TransactionStatus",
              "name": "previousStatus",
              "type": "uint8"
            },
            {
              "internalType": "enum ITransactions.TransactionStatus",
              "name": "status",
              "type": "uint8"
            },
            {
              "internalType": "address",
              "name": "txOrigin",
              "type": "address"
            },
            {
              "internalType": "address",
              "name": "sender",
              "type": "address"
            },
            {
              "internalType": "address",
              "name": "recipient",
              "type": "address"
            },
            {
              "internalType": "address",
              "name": "activator",
              "type": "address"
            },
            {
              "internalType": "uint256",
              "name": "txSlot",
              "type": "uint256"
            },
            {
              "internalType": "uint256",
              "name": "initialRotations",
              "type": "uint256"
            },
            {
              "internalType": "uint256",
              "name": "numOfInitialValidators",
              "type": "uint256"
            },
            {
              "internalType": "uint256",
              "name": "epoch",
              "type": "uint256"
            },
            {
              "internalType": "bytes32",
              "name": "id",
              "type": "bytes32"
            },
            {
              "internalType": "bytes32",
              "name": "randomSeed",
              "type": "bytes32"
            },
            {
              "internalType": "bytes32",
              "name": "txExecutionHash",
              "type": "bytes32"
            },
            {
              "internalType": "bytes32",
              "name": "resultHash",
              "type": "bytes32"
            },
            {
              "internalType": "bytes",
              "name": "txCalldata",
              "type": "bytes"
            },
            {
              "internalType": "bytes",
              "name": "eqBlocksOutputs",
              "type": "bytes"
            },
            {
              "components": [
                {
                  "internalType": "uint256",
                  "name": "activationBlock",
                  "type": "uint256"
                },
                {
                  "internalType": "uint256",
                  "name": "processingBlock",
                  "type": "uint256"
                },
                {
                  "internalType": "uint256",
                  "name": "proposalBlock",
                  "type": "uint256"
                }
              ],
              "internalType": "struct ITransactions.ReadStateBlockRange[]",
              "name": "readStateBlockRanges",
              "type": "tuple[]"
            },
            {
              "internalType": "uint256",
              "name": "validUntil",
              "type": "uint256"
            },
            {
              "internalType": "uint256",
              "name": "value",
              "type": "uint256"
            }
          ],
          "internalType": "struct ITransactions.Transaction",
          "name": "_tx",
          "type": "tuple"
        },
        {
          "internalType": "uint256",
          "name": "_appealBond",
          "type": "uint256"
        }
      ],
      "name": "createNewLeaderAppealRound",
      "outputs": [
        {
          "internalType": "address[]",
          "name": "newValidators",
          "type": "address[]"
        },
        {
          "internalType": "uint256",
          "name": "round",
          "type": "uint256"
        },
        {
          "internalType": "address",
          "name": "newLeader",
          "type": "address"
        },
        {
          "internalType": "uint256",
          "name": "leaderIndex",
          "type": "uint256"
        }
      ],
      "stateMutability": "nonpayable",
      "type": "function"
    },
    {
      "inputs": [
        {
          "internalType": "bytes32",
          "name": "_txId",
          "type": "bytes32"
        },
        {
          "internalType": "uint256",
          "name": "_appealBond",
          "type": "uint256"
        }
      ],
      "name": "createNewLeaderTimeoutAppealRound",
      "outputs": [
        {
          "internalType": "address[]",
          "name": "appealValidators",
          "type": "address[]"
        },
        {
          "internalType": "uint256",
          "name": "round",
          "type": "uint256"
        },
        {
          "internalType": "address",
          "name": "newLeader",
          "type": "address"
        },
        {
          "internalType": "uint256",
          "name": "leaderIndex",
          "type": "uint256"
        }
      ],
      "stateMutability": "nonpayable",
      "type": "function"
    },
    {
      "inputs": [
        {
          "components": [
            {
              "internalType": "enum ITransactions.ResultType",
              "name": "result",
              "type": "uint8"
            },
            {
              "internalType": "enum ITransactions.VoteType",
              "name": "txExecutionResult",
              "type": "uint8"
            },
            {
              "internalType": "enum ITransactions.TransactionStatus",
              "name": "previousStatus",
              "type": "uint8"
            },
            {
              "internalType": "enum ITransactions.TransactionStatus",
              "name": "status",
              "type": "uint8"
            },
            {
              "internalType": "address",
              "name": "txOrigin",
              "type": "address"
            },
            {
              "internalType": "address",
              "name": "sender",
              "type": "address"
            },
            {
              "internalType": "address",
              "name": "recipient",
              "type": "address"
            },
            {
              "internalType": "address",
              "name": "activator",
              "type": "address"
            },
            {
              "internalType": "uint256",
              "name": "txSlot",
              "type": "uint256"
            },
            {
              "internalType": "uint256",
              "name": "initialRotations",
              "type": "uint256"
            },
            {
              "internalType": "uint256",
              "name": "numOfInitialValidators",
              "type": "uint256"
            },
            {
              "internalType": "uint256",
              "name": "epoch",
              "type": "uint256"
            },
            {
              "internalType": "bytes32",
              "name": "id",
              "type": "bytes32"
            },
            {
              "internalType": "bytes32",
              "name": "randomSeed",
              "type": "bytes32"
            },
            {
              "internalType": "bytes32",
              "name": "txExecutionHash",
              "type": "bytes32"
            },
            {
              "internalType": "bytes32",
              "name": "resultHash",
              "type": "bytes32"
            },
            {
              "internalType": "bytes",
              "name": "txCalldata",
              "type": "bytes"
            },
            {
              "internalType": "bytes",
              "name": "eqBlocksOutputs",
              "type": "bytes"
            },
            {
              "components": [
                {
                  "internalType": "uint256",
                  "name": "activationBlock",
                  "type": "uint256"
                },
                {
                  "internalType": "uint256",
                  "name": "processingBlock",
                  "type": "uint256"
                },
                {
                  "internalType": "uint256",
                  "name": "proposalBlock",
                  "type": "uint256"
                }
              ],
              "internalType": "struct ITransactions.ReadStateBlockRange[]",
              "name": "readStateBlockRanges",
              "type": "tuple[]"
            },
            {
              "internalType": "uint256",
              "name": "validUntil",
              "type": "uint256"
            },
            {
              "internalType": "uint256",
              "name": "value",
              "type": "uint256"
            }
          ],
          "internalType": "struct ITransactions.Transaction",
          "name": "_tx",
          "type": "tuple"
        },
        {
          "internalType": "uint256",
          "name": "_appealBond",
          "type": "uint256"
        }
      ],
      "name": "createNewValidatorAppealRound",
      "outputs": [
        {
          "internalType": "address[]",
          "name": "appealValidators",
          "type": "address[]"
        },
        {
          "internalType": "uint256",
          "name": "round",
          "type": "uint256"
        },
        {
          "internalType": "uint256",
          "name": "leaderIndex",
          "type": "uint256"
        }
      ],
      "stateMutability": "nonpayable",
      "type": "function"
    },
    {
      "inputs": [
        {
          "internalType": "bytes32",
          "name": "_txId",
          "type": "bytes32"
        }
      ],
      "name": "decrementRotationsLeft",
      "outputs": [],
      "stateMutability": "nonpayable",
      "type": "function"
    },
    {
      "inputs": [],
      "name": "feeManager",
      "outputs": [
        {
          "internalType": "contract IFeeManager",
          "name": "",
          "type": "address"
        }
      ],
      "stateMutability": "view",
      "type": "function"
    },
    {
      "inputs": [
        {
          "internalType": "bytes32",
          "name": "_txId",
          "type": "bytes32"
        }
      ],
      "name": "getLastRoundData",
      "outputs": [
        {
          "internalType": "uint256",
          "name": "",
          "type": "uint256"
        },
        {
          "components": [
            {
              "internalType": "uint256",
              "name": "round",
              "type": "uint256"
            },
            {
              "internalType": "uint256",
              "name": "leaderIndex",
              "type": "uint256"
            },
            {
              "internalType": "uint256",
              "name": "votesCommitted",
              "type": "uint256"
            },
            {
              "internalType": "uint256",
              "name": "votesRevealed",
              "type": "uint256"
            },
            {
              "internalType": "uint256",
              "name": "appealBond",
              "type": "uint256"
            },
            {
              "internalType": "uint256",
              "name": "rotationsLeft",
              "type": "uint256"
            },
            {
              "internalType": "enum ITransactions.ResultType",
              "name": "result",
              "type": "uint8"
            },
            {
              "internalType": "address[]",
              "name": "roundValidators",
              "type": "address[]"
            },
            {
              "internalType": "enum ITransactions.VoteType[]",
              "name": "validatorVotes",
              "type": "uint8[]"
            },
            {
              "internalType": "bytes32[]",
              "name": "validatorVotesHash",
              "type": "bytes32[]"
            },
            {
              "internalType": "bytes32[]",
              "name": "validatorResultHash",
              "type": "bytes32[]"
            }
          ],
          "internalType": "struct ITransactions.RoundData",
          "name": "",
          "type": "tuple"
        }
      ],
      "stateMutability": "view",
      "type": "function"
    },
    {
      "inputs": [
        {
          "components": [
            {
              "internalType": "enum ITransactions.ResultType",
              "name": "result",
              "type": "uint8"
            },
            {
              "internalType": "enum ITransactions.VoteType",
              "name": "txExecutionResult",
              "type": "uint8"
            },
            {
              "internalType": "enum ITransactions.TransactionStatus",
              "name": "previousStatus",
              "type": "uint8"
            },
            {
              "internalType": "enum ITransactions.TransactionStatus",
              "name": "status",
              "type": "uint8"
            },
            {
              "internalType": "address",
              "name": "txOrigin",
              "type": "address"
            },
            {
              "internalType": "address",
              "name": "sender",
              "type": "address"
            },
            {
              "internalType": "address",
              "name": "recipient",
              "type": "address"
            },
            {
              "internalType": "address",
              "name": "activator",
              "type": "address"
            },
            {
              "internalType": "uint256",
              "name": "txSlot",
              "type": "uint256"
            },
            {
              "internalType": "uint256",
              "name": "initialRotations",
              "type": "uint256"
            },
            {
              "internalType": "uint256",
              "name": "numOfInitialValidators",
              "type": "uint256"
            },
            {
              "internalType": "uint256",
              "name": "epoch",
              "type": "uint256"
            },
            {
              "internalType": "bytes32",
              "name": "id",
              "type": "bytes32"
            },
            {
              "internalType": "bytes32",
              "name": "randomSeed",
              "type": "bytes32"
            },
            {
              "internalType": "bytes32",
              "name": "txExecutionHash",
              "type": "bytes32"
            },
            {
              "internalType": "bytes32",
              "name": "resultHash",
              "type": "bytes32"
            },
            {
              "internalType": "bytes",
              "name": "txCalldata",
              "type": "bytes"
            },
            {
              "internalType": "bytes",
              "name": "eqBlocksOutputs",
              "type": "bytes"
            },
            {
              "components": [
                {
                  "internalType": "uint256",
                  "name": "activationBlock",
                  "type": "uint256"
                },
                {
                  "internalType": "uint256",
                  "name": "processingBlock",
                  "type": "uint256"
                },
                {
                  "internalType": "uint256",
                  "name": "proposalBlock",
                  "type": "uint256"
                }
              ],
              "internalType": "struct ITransactions.ReadStateBlockRange[]",
              "name": "readStateBlockRanges",
              "type": "tuple[]"
            },
            {
              "internalType": "uint256",
              "name": "validUntil",
              "type": "uint256"
            },
            {
              "internalType": "uint256",
              "name": "value",
              "type": "uint256"
            }
          ],
          "internalType": "struct ITransactions.Transaction",
          "name": "_tx",
          "type": "tuple"
        },
        {
          "internalType": "bool",
          "name": "_isTxHanging",
          "type": "bool"
        }
      ],
      "name": "getMajorityVoteAndSetResult",
      "outputs": [
        {
          "internalType": "enum ITransactions.ResultType",
          "name": "majorVoted",
          "type": "uint8"
        },
        {
          "internalType": "bool",
          "name": "leaderRotated",
          "type": "bool"
        },
        {
          "internalType": "bool",
          "name": "tribunalAppeal",
          "type": "bool"
        },
        {
          "internalType": "enum ITransactions.TransactionStatus",
          "name": "newStatus",
          "type": "uint8"
        },
        {
          "components": [
            {
              "internalType": "uint256",
              "name": "round",
              "type": "uint256"
            },
            {
              "internalType": "uint256",
              "name": "leaderIndex",
              "type": "uint256"
            },
            {
              "internalType": "uint256",
              "name": "votesCommitted",
              "type": "uint256"
            },
            {
              "internalType": "uint256",
              "name": "votesRevealed",
              "type": "uint256"
            },
            {
              "internalType": "uint256",
              "name": "appealBond",
              "type": "uint256"
            },
            {
              "internalType": "uint256",
              "name": "rotationsLeft",
              "type": "uint256"
            },
            {
              "internalType": "enum ITransactions.ResultType",
              "name": "result",
              "type": "uint8"
            },
            {
              "internalType": "address[]",
              "name": "roundValidators",
              "type": "address[]"
            },
            {
              "internalType": "enum ITransactions.VoteType[]",
              "name": "validatorVotes",
              "type": "uint8[]"
            },
            {
              "internalType": "bytes32[]",
              "name": "validatorVotesHash",
              "type": "bytes32[]"
            },
            {
              "internalType": "bytes32[]",
              "name": "validatorResultHash",
              "type": "bytes32[]"
            }
          ],
          "internalType": "struct ITransactions.RoundData",
          "name": "newRoundData",
          "type": "tuple"
        },
        {
          "components": [
            {
              "internalType": "address",
              "name": "slashedLeader",
              "type": "address"
            },
            {
              "internalType": "bytes32",
              "name": "leaderResultHash",
              "type": "bytes32"
            }
          ],
          "internalType": "struct ITransactions.TribunalAppealData",
          "name": "tribunalAppealData",
          "type": "tuple"
        }
      ],
      "stateMutability": "nonpayable",
      "type": "function"
    },
    {
      "inputs": [
        {
          "internalType": "bytes32",
          "name": "role",
          "type": "bytes32"
        }
      ],
      "name": "getRoleAdmin",
      "outputs": [
        {
          "internalType": "bytes32",
          "name": "",
          "type": "bytes32"
        }
      ],
      "stateMutability": "view",
      "type": "function"
    },
    {
      "inputs": [
        {
          "internalType": "bytes32",
          "name": "_txId",
          "type": "bytes32"
        }
      ],
      "name": "getRotationsLeft",
      "outputs": [
        {
          "internalType": "uint256",
          "name": "",
          "type": "uint256"
        }
      ],
      "stateMutability": "view",
      "type": "function"
    },
    {
      "inputs": [
        {
          "internalType": "bytes32",
          "name": "_txId",
          "type": "bytes32"
        },
        {
          "internalType": "uint256",
          "name": "_round",
          "type": "uint256"
        }
      ],
      "name": "getRoundData",
      "outputs": [
        {
          "components": [
            {
              "internalType": "uint256",
              "name": "round",
              "type": "uint256"
            },
            {
              "internalType": "uint256",
              "name": "leaderIndex",
              "type": "uint256"
            },
            {
              "internalType": "uint256",
              "name": "votesCommitted",
              "type": "uint256"
            },
            {
              "internalType": "uint256",
              "name": "votesRevealed",
              "type": "uint256"
            },
            {
              "internalType": "uint256",
              "name": "appealBond",
              "type": "uint256"
            },
            {
              "internalType": "uint256",
              "name": "rotationsLeft",
              "type": "uint256"
            },
            {
              "internalType": "enum ITransactions.ResultType",
              "name": "result",
              "type": "uint8"
            },
            {
              "internalType": "address[]",
              "name": "roundValidators",
              "type": "address[]"
            },
            {
              "internalType": "enum ITransactions.VoteType[]",
              "name": "validatorVotes",
              "type": "uint8[]"
            },
            {
              "internalType": "bytes32[]",
              "name": "validatorVotesHash",
              "type": "bytes32[]"
            },
            {
              "internalType": "bytes32[]",
              "name": "validatorResultHash",
              "type": "bytes32[]"
            }
          ],
          "internalType": "struct ITransactions.RoundData",
          "name": "",
          "type": "tuple"
        }
      ],
      "stateMutability": "view",
      "type": "function"
    },
    {
      "inputs": [
        {
          "internalType": "bytes32",
          "name": "_txId",
          "type": "bytes32"
        }
      ],
      "name": "getRoundNumber",
      "outputs": [
        {
          "internalType": "uint256",
          "name": "",
          "type": "uint256"
        }
      ],
      "stateMutability": "view",
      "type": "function"
    },
    {
      "inputs": [
        {
          "internalType": "bytes32",
          "name": "role",
          "type": "bytes32"
        },
        {
          "internalType": "address",
          "name": "account",
          "type": "address"
        }
      ],
      "name": "grantRole",
      "outputs": [],
      "stateMutability": "nonpayable",
      "type": "function"
    },
    {
      "inputs": [
        {
          "internalType": "bytes32",
          "name": "role",
          "type": "bytes32"
        },
        {
          "internalType": "address",
          "name": "account",
          "type": "address"
        }
      ],
      "name": "hasRole",
      "outputs": [
        {
          "internalType": "bool",
          "name": "",
          "type": "bool"
        }
      ],
      "stateMutability": "view",
      "type": "function"
    },
    {
      "inputs": [],
      "name": "idleness",
      "outputs": [
        {
          "internalType": "contract IIdleness",
          "name": "",
          "type": "address"
        }
      ],
      "stateMutability": "view",
      "type": "function"
    },
    {
      "inputs": [
        {
          "internalType": "address",
          "name": "_staking",
          "type": "address"
        },
        {
          "internalType": "address",
          "name": "_feeManager",
          "type": "address"
        },
        {
          "internalType": "address",
          "name": "_appeals",
          "type": "address"
        },
        {
          "internalType": "address",
          "name": "_transactions",
          "type": "address"
        },
        {
          "internalType": "address",
          "name": "_idleness",
          "type": "address"
        }
      ],
      "name": "initialize",
      "outputs": [],
      "stateMutability": "nonpayable",
      "type": "function"
    },
    {
      "inputs": [],
      "name": "owner",
      "outputs": [
        {
          "internalType": "address",
          "name": "",
          "type": "address"
        }
      ],
      "stateMutability": "view",
      "type": "function"
    },
    {
      "inputs": [],
      "name": "pendingOwner",
      "outputs": [
        {
          "internalType": "address",
          "name": "",
          "type": "address"
        }
      ],
      "stateMutability": "view",
      "type": "function"
    },
    {
      "inputs": [],
      "name": "renounceOwnership",
      "outputs": [],
      "stateMutability": "nonpayable",
      "type": "function"
    },
    {
      "inputs": [
        {
          "internalType": "bytes32",
          "name": "role",
          "type": "bytes32"
        },
        {
          "internalType": "address",
          "name": "callerConfirmation",
          "type": "address"
        }
      ],
      "name": "renounceRole",
      "outputs": [],
      "stateMutability": "nonpayable",
      "type": "function"
    },
    {
      "inputs": [
        {
          "internalType": "bytes32",
          "name": "role",
          "type": "bytes32"
        },
        {
          "internalType": "address",
          "name": "account",
          "type": "address"
        }
      ],
      "name": "revokeRole",
      "outputs": [],
      "stateMutability": "nonpayable",
      "type": "function"
    },
    {
      "inputs": [
        {
          "internalType": "address",
          "name": "_staking",
          "type": "address"
        },
        {
          "internalType": "address",
          "name": "_feeManager",
          "type": "address"
        },
        {
          "internalType": "address",
          "name": "_appeals",
          "type": "address"
        },
        {
          "internalType": "address",
          "name": "_idleness",
          "type": "address"
        }
      ],
      "name": "setContracts",
      "outputs": [],
      "stateMutability": "nonpayable",
      "type": "function"
    },
    {
      "inputs": [],
      "name": "staking",
      "outputs": [
        {
          "internalType": "contract IGenLayerStaking",
          "name": "",
          "type": "address"
        }
      ],
      "stateMutability": "view",
      "type": "function"
    },
    {
      "inputs": [
        {
          "internalType": "bytes4",
          "name": "interfaceId",
          "type": "bytes4"
        }
      ],
      "name": "supportsInterface",
      "outputs": [
        {
          "internalType": "bool",
          "name": "",
          "type": "bool"
        }
      ],
      "stateMutability": "view",
      "type": "function"
    },
    {
      "inputs": [],
      "name": "transactions",
      "outputs": [
        {
          "internalType": "contract ITransactions",
          "name": "",
          "type": "address"
        }
      ],
      "stateMutability": "view",
      "type": "function"
    },
    {
      "inputs": [
        {
          "internalType": "address",
          "name": "newOwner",
          "type": "address"
        }
      ],
      "name": "transferOwnership",
      "outputs": [],
      "stateMutability": "nonpayable",
      "type": "function"
    },
    {
      "inputs": [
        {
          "internalType": "bytes32",
          "name": "",
          "type": "bytes32"
        }
      ],
      "name": "txRound",
      "outputs": [
        {
          "internalType": "uint256",
          "name": "",
          "type": "uint256"
        }
      ],
      "stateMutability": "view",
      "type": "function"
    },
    {
      "inputs": [
        {
          "internalType": "bytes32",
          "name": "",
          "type": "bytes32"
        },
        {
          "internalType": "uint256",
          "name": "",
          "type": "uint256"
        }
      ],
      "name": "txRoundData",
      "outputs": [
        {
          "internalType": "uint256",
          "name": "round",
          "type": "uint256"
        },
        {
          "internalType": "uint256",
          "name": "leaderIndex",
          "type": "uint256"
        },
        {
          "internalType": "uint256",
          "name": "votesCommitted",
          "type": "uint256"
        },
        {
          "internalType": "uint256",
          "name": "votesRevealed",
          "type": "uint256"
        },
        {
          "internalType": "uint256",
          "name": "appealBond",
          "type": "uint256"
        },
        {
          "internalType": "uint256",
          "name": "rotationsLeft",
          "type": "uint256"
        },
        {
          "internalType": "enum ITransactions.ResultType",
          "name": "result",
          "type": "uint8"
        }
      ],
      "stateMutability": "view",
      "type": "function"
    },
    {
      "inputs": [
        {
          "internalType": "bytes32",
          "name": "_txId",
          "type": "bytes32"
        },
        {
          "internalType": "uint256",
          "name": "_round",
          "type": "uint256"
        },
        {
          "internalType": "address",
          "name": "_validator",
          "type": "address"
        },
        {
          "internalType": "bytes32",
          "name": "_commitHash",
          "type": "bytes32"
        },
        {
          "internalType": "uint256",
          "name": "_validatorIndex",
          "type": "uint256"
        },
        {
          "components": [
            {
              "internalType": "uint256",
              "name": "round",
              "type": "uint256"
            },
            {
              "internalType": "uint256",
              "name": "leaderIndex",
              "type": "uint256"
            },
            {
              "internalType": "uint256",
              "name": "votesCommitted",
              "type": "uint256"
            },
            {
              "internalType": "uint256",
              "name": "votesRevealed",
              "type": "uint256"
            },
            {
              "internalType": "uint256",
              "name": "appealBond",
              "type": "uint256"
            },
            {
              "internalType": "uint256",
              "name": "rotationsLeft",
              "type": "uint256"
            },
            {
              "internalType": "enum ITransactions.ResultType",
              "name": "result",
              "type": "uint8"
            },
            {
              "internalType": "address[]",
              "name": "roundValidators",
              "type": "address[]"
            },
            {
              "internalType": "enum ITransactions.VoteType[]",
              "name": "validatorVotes",
              "type": "uint8[]"
            },
            {
              "internalType": "bytes32[]",
              "name": "validatorVotesHash",
              "type": "bytes32[]"
            },
            {
              "internalType": "bytes32[]",
              "name": "validatorResultHash",
              "type": "bytes32[]"
            }
          ],
          "internalType": "struct ITransactions.RoundData",
          "name": "_roundData",
          "type": "tuple"
        }
      ],
      "name": "updateCommitVote",
      "outputs": [],
      "stateMutability": "nonpayable",
      "type": "function"
    },
    {
      "inputs": [
        {
          "internalType": "bytes32",
          "name": "_txId",
          "type": "bytes32"
        },
        {
          "internalType": "uint256",
          "name": "_round",
          "type": "uint256"
        },
        {
          "internalType": "address",
          "name": "_newLeader",
          "type": "address"
        },
        {
          "internalType": "uint256",
          "name": "_leaderIndex",
          "type": "uint256"
        },
        {
          "internalType": "bool",
          "name": "_resetVotes",
          "type": "bool"
        }
      ],
      "name": "updateLeaderAndResetVotes",
      "outputs": [],
      "stateMutability": "nonpayable",
      "type": "function"
    },
    {
      "inputs": [
        {
          "components": [
            {
              "internalType": "enum ITransactions.ResultType",
              "name": "result",
              "type": "uint8"
            },
            {
              "internalType": "enum ITransactions.VoteType",
              "name": "txExecutionResult",
              "type": "uint8"
            },
            {
              "internalType": "enum ITransactions.TransactionStatus",
              "name": "previousStatus",
              "type": "uint8"
            },
            {
              "internalType": "enum ITransactions.TransactionStatus",
              "name": "status",
              "type": "uint8"
            },
            {
              "internalType": "address",
              "name": "txOrigin",
              "type": "address"
            },
            {
              "internalType": "address",
              "name": "sender",
              "type": "address"
            },
            {
              "internalType": "address",
              "name": "recipient",
              "type": "address"
            },
            {
              "internalType": "address",
              "name": "activator",
              "type": "address"
            },
            {
              "internalType": "uint256",
              "name": "txSlot",
              "type": "uint256"
            },
            {
              "internalType": "uint256",
              "name": "initialRotations",
              "type": "uint256"
            },
            {
              "internalType": "uint256",
              "name": "numOfInitialValidators",
              "type": "uint256"
            },
            {
              "internalType": "uint256",
              "name": "epoch",
              "type": "uint256"
            },
            {
              "internalType": "bytes32",
              "name": "id",
              "type": "bytes32"
            },
            {
              "internalType": "bytes32",
              "name": "randomSeed",
              "type": "bytes32"
            },
            {
              "internalType": "bytes32",
              "name": "txExecutionHash",
              "type": "bytes32"
            },
            {
              "internalType": "bytes32",
              "name": "resultHash",
              "type": "bytes32"
            },
            {
              "internalType": "bytes",
              "name": "txCalldata",
              "type": "bytes"
            },
            {
              "internalType": "bytes",
              "name": "eqBlocksOutputs",
              "type": "bytes"
            },
            {
              "components": [
                {
                  "internalType": "uint256",
                  "name": "activationBlock",
                  "type": "uint256"
                },
                {
                  "internalType": "uint256",
                  "name": "processingBlock",
                  "type": "uint256"
                },
                {
                  "internalType": "uint256",
                  "name": "proposalBlock",
                  "type": "uint256"
                }
              ],
              "internalType": "struct ITransactions.ReadStateBlockRange[]",
              "name": "readStateBlockRanges",
              "type": "tuple[]"
            },
            {
              "internalType": "uint256",
              "name": "validUntil",
              "type": "uint256"
            },
            {
              "internalType": "uint256",
              "name": "value",
              "type": "uint256"
            }
          ],
          "internalType": "struct ITransactions.Transaction",
          "name": "_tx",
          "type": "tuple"
        },
        {
          "internalType": "uint256",
          "name": "_round",
          "type": "uint256"
        },
        {
          "internalType": "uint256",
          "name": "_validatorIndex",
          "type": "uint256"
        },
        {
          "internalType": "bytes32",
          "name": "_resultVoteHash",
          "type": "bytes32"
        },
        {
          "internalType": "address",
          "name": "_votingContract",
          "type": "address"
        },
        {
          "internalType": "enum ITransactions.VoteType",
          "name": "_voteType",
          "type": "uint8"
        }
      ],
      "name": "updateRevealVote",
      "outputs": [
        {
          "internalType": "enum ITransactions.ResultType",
          "name": "majorVoted",
          "type": "uint8"
        },
        {
          "internalType": "bool",
          "name": "isLastVote",
          "type": "bool"
        },
        {
          "internalType": "bool",
          "name": "leaderRotated",
          "type": "bool"
        },
        {
          "internalType": "bool",
          "name": "tribunalAppeal",
          "type": "bool"
        },
        {
          "internalType": "enum ITransactions.TransactionStatus",
          "name": "newStatus",
          "type": "uint8"
        },
        {
          "components": [
            {
              "internalType": "uint256",
              "name": "round",
              "type": "uint256"
            },
            {
              "internalType": "uint256",
              "name": "leaderIndex",
              "type": "uint256"
            },
            {
              "internalType": "uint256",
              "name": "votesCommitted",
              "type": "uint256"
            },
            {
              "internalType": "uint256",
              "name": "votesRevealed",
              "type": "uint256"
            },
            {
              "internalType": "uint256",
              "name": "appealBond",
              "type": "uint256"
            },
            {
              "internalType": "uint256",
              "name": "rotationsLeft",
              "type": "uint256"
            },
            {
              "internalType": "enum ITransactions.ResultType",
              "name": "result",
              "type": "uint8"
            },
            {
              "internalType": "address[]",
              "name": "roundValidators",
              "type": "address[]"
            },
            {
              "internalType": "enum ITransactions.VoteType[]",
              "name": "validatorVotes",
              "type": "uint8[]"
            },
            {
              "internalType": "bytes32[]",
              "name": "validatorVotesHash",
              "type": "bytes32[]"
            },
            {
              "internalType": "bytes32[]",
              "name": "validatorResultHash",
              "type": "bytes32[]"
            }
          ],
          "internalType": "struct ITransactions.RoundData",
          "name": "newRoundData",
          "type": "tuple"
        },
        {
          "components": [
            {
              "internalType": "address",
              "name": "slashedLeader",
              "type": "address"
            },
            {
              "internalType": "bytes32",
              "name": "leaderResultHash",
              "type": "bytes32"
            }
          ],
          "internalType": "struct ITransactions.TribunalAppealData",
          "name": "tribunalAppealData",
          "type": "tuple"
        }
      ],
      "stateMutability": "nonpayable",
      "type": "function"
    },
    {
      "inputs": [
        {
          "internalType": "bytes32",
          "name": "_txId",
          "type": "bytes32"
        },
        {
          "internalType": "uint256",
          "name": "_round",
          "type": "uint256"
        },
        {
          "components": [
            {
              "internalType": "uint256",
              "name": "round",
              "type": "uint256"
            },
            {
              "internalType": "uint256",
              "name": "leaderIndex",
              "type": "uint256"
            },
            {
              "internalType": "uint256",
              "name": "votesCommitted",
              "type": "uint256"
            },
            {
              "internalType": "uint256",
              "name": "votesRevealed",
              "type": "uint256"
            },
            {
              "internalType": "uint256",
              "name": "appealBond",
              "type": "uint256"
            },
            {
              "internalType": "uint256",
              "name": "rotationsLeft",
              "type": "uint256"
            },
            {
              "internalType": "enum ITransactions.ResultType",
              "name": "result",
              "type": "uint8"
            },
            {
              "internalType": "address[]",
              "name": "roundValidators",
              "type": "address[]"
            },
            {
              "internalType": "enum ITransactions.VoteType[]",
              "name": "validatorVotes",
              "type": "uint8[]"
            },
            {
              "internalType": "bytes32[]",
              "name": "validatorVotesHash",
              "type": "bytes32[]"
            },
            {
              "internalType": "bytes32[]",
              "name": "validatorResultHash",
              "type": "bytes32[]"
            }
          ],
          "internalType": "struct ITransactions.RoundData",
          "name": "_roundData",
          "type": "tuple"
        }
      ],
      "name": "updateRoundData",
      "outputs": [],
      "stateMutability": "nonpayable",
      "type": "function"
    }
  ],
  "bytecode": "0x608080604052346015576165a8908161001b8239f35b600080fdfe608080604052600436101561001357600080fd5b600090813560e01c90816301ffc9a7146132c9575080631459457a146130d257806318015191146130a957806321495aa714613080578063248a9ca31461305957806325e101dd14612cc45780632f2ff15d14612c9257806332aa8e6a146129dc57806336568abe1461299757806347cd5d891461296c5780634cf088d914612943578063515d44111461291a5780635af54469146128ce578063715018a61461284d57806379ba5097146127fc57806384c248311461278c578063885875131461232c5780638da5cb5b146122f657806391d148541461229d578063998f979914611e39578063a12c6af714611c49578063a217fddf14611c2d578063a677f5b0146113d6578063b8d595da14610f8a578063ba15d63514610f60578063bf989b6e14610ed4578063c3da8bd114610e59578063d0fb020314610e32578063d547741f14610df7578063d7360c9a14610d5c578063e30c397814610d26578063ecc2710d14610295578063f2fde38b1461020d578063f66530b9146101ce5763f82d3553146101a257600080fd5b346101cb5760203660031901126101cb5760406020916004358152600583522054604051908152f35b80fd5b50346101cb5760203660031901126101cb5760056040602092600435808252600685528282209082528385528282205482528452200154604051908152f35b50346101cb5760203660031901126101cb5761022761331e565b61022f615563565b60008051602061655383398151915280546001600160a01b0319166001600160a01b039283169081179091556000805160206164f3833981519152549091167f38d16b8cac22d99fc7c124b9cd0de2d3fa1faef420bfe791d8c362d765e227008380a380f35b50346101cb5760403660031901126101cb576004356001600160401b038111610d22576102c690369060040161349c565b602435801590811503610a58576102db613b3c565b506102e4614e85565b50610180820190815184526006602052604084208251855260056020526040852054855260205261031760408520614512565b606081015160e0820190815151808210610c13575b50506002546040516361d1549d60e11b815292915061012090839060049082906001600160a01b03165afa8015610c08578690610ab5575b606001516101e08601516103859350916001600160a01b0390911690615607565b9282518552600660205260408520835186526005602052604086205486526020526103b68460066040882001613b94565b82518552600560205260408520549251948080966040516103d6816133d7565b60008152600060208201526103e9613b3c565b986040860151600f811015610669576001891661067d5750839060068a10156106695760048a036106135750505060019381835260066020526040832087845260205260016040842001548284526006602052604084208885526020526104876104598260076040882001614d18565b60018060a01b0391549060031b1c16918486526006602052604086208a8752602052600a6040872001614d18565b90549060031b1c6040519161049b836133d7565b8252602082015296600696806105f2575b61051c575b50505050946104ea610518936104fb936104d2985b604051998a809a613993565b15156020890152151560408801526060870190613b0e565b60e0608086015260e08501906139f7565b82516001600160a01b031660a085015260209092015160c0840152565b0390f35b909193985061053692955061053084614ead565b91615da1565b80519197909491156105d6575060045460029460019390916001600160a01b031690813b156105d2579183916105839383604051809681958294635537b6d160e01b845260048401613cd6565b03925af180156105c7576105b2575b5050946104ea610518936104fb936104d2985b93988296508195506104b1565b6105bd82809261340e565b6101cb5780610592565b6040513d84823e3d90fd5b8380fd5b61051894506104d29792506104ea91506104fb936006916105a5565b508284528660205260408420818552602052600560408520015415156104ac565b959197909660018a1460001461062d57506005965b6104ac565b60038a0361063e5750600c966104ac565b60069750801561062857508284528660205260408420818552602052600560408520015415156104ac565b634e487b7160e01b85526021600452602485fd5b999197919650939460058a1480610aa2575b8015610a70575b156106b55750505050916104ea6104fb92610518946104d298916104c6565b916106c591939950809650614ead565b9060018301809311610a5c5790826106dc92615742565b94909188839660018060a01b0360045416803b15610a5857604051635537b6d160e01b8152918391839182908490829061071a908b60048401613cd6565b03925af180156105c757610a3f575b505060e08301918251511560001461075857505050506104d29550916104ea6104fb92610518946006916104c6565b808a52600560205260408a2061076e8154614e9e565b905589526006602052604089209089526020526040882090825182556020830151600183015560408301516002830155606083015160038301556080830151600483015560a0830151600583015560c08301516006811015610a2b576107d79060068401613b94565b5180519060078301906001600160401b038311610933576020906107fb8484613bc3565b01908a5260208a208a5b838110610a0e575050505060088101610100830151908151916001600160401b038311610933576020906108398484613bf9565b01908a5260208a208260051c918b5b8381106109ac5750601f1984169093039283610947575b5050505060098101610120830151908151916001600160401b0383116109335760209061088c8484613c93565b01908a5260208a208a5b83811061091f5750505050600a6101409101910151908151916001600160401b03831161090b576020906108ca8484613c93565b0190885260208820975b8281106108f7575050506104d29550916104ea6104fb92610518946002916104c6565b60019060208351930192818b0155016108d4565b634e487b7160e01b89526041600452602489fd5b600190602084519401938184015501610896565b634e487b7160e01b8b52604160045260248bfd5b8b938c905b8082106109615750505001553880808061085f565b90919485519060058210156109985761098e600192856020939060ff809160031b9316831b921b19161790565b960192019061094c565b634e487b7160e01b8f52602160045260248ffd5b8c8d5b602081106109c4575083820155600101610848565b929081519060058210156109f9576109f0600192866020939060ff809160031b9316831b921b19161790565b920193016109af565b50634e487b7160e01b8f52602160045260248ffd5b82516001600160a01b031681830155602090920191600101610805565b634e487b7160e01b8a52602160045260248afd5b81610a499161340e565b610a54578838610729565b8880fd5b8280fd5b634e487b7160e01b89526011600452602489fd5b50600c8a14801561069657506006891015610a8e5760038914610696565b634e487b7160e01b84526021600452602484fd5b506006891015610a8e576001891461068f565b50610120823d8211610c00575b81610ad0610120938361340e565b81010312610bfc576040519161012083018381106001600160401b03821117610be857604052610aff81613d17565b835260208101516001600160a01b0381168103610be457602084015260408101516001600160a01b0381168103610be457604084015260608101516001600160a01b0381168103610be457606084015260808101516001600160a01b0381168103610be457608084015260a08101516001600160a01b0381168103610be45760a084015260c08101516001600160a01b0381168103610be45760c084015260e0810151906001600160a01b0382168203610be45760e08401919091526101000151916001600160a01b0383168303610be05761038592610100820152610364565b8680fd5b8780fd5b634e487b7160e01b88526041600452602488fd5b8580fd5b3d9150610ac2565b6040513d88823e3d90fd5b610c2c91610c279197969497959395613e78565b613e46565b938692610100870192845b89875151821015610ca85750610c4e818651613ced565b516005811015610c94579060019115610c68575b01610c37565b818060a01b03610c79828a51613ced565b5116610c8e610c8789614e9e565b988b613ced565b52610c62565b634e487b7160e01b8b52602160045260248bfd5b945050945094909592508051610cbf575b8061032c565b60045485516001600160a01b0390911691823b156105d257610cfa928492836040518096819582946313dd927960e11b845260048401613cd6565b03925af180156105c75715610cb95781610d139161340e565b610d1e578438610cb9565b8480fd5b5080fd5b50346101cb57806003193601126101cb57600080516020616553833981519152546040516001600160a01b039091168152602090f35b50346101cb5760203660031901126101cb5760043560018060a01b036002541633141580610de2575b610dd3578082526006602052604082209082526005602052604082205482526020526005604082200180548015610dbf5760001901905580f35b634e487b7160e01b83526011600452602483fd5b6315c9368f60e31b8252600482fd5b506003546001600160a01b0316331415610d85565b50346101cb5760403660031901126101cb57610e2e600435610e17613339565b90610e29610e2482613b1b565b6151fc565b6152ef565b5080f35b50346101cb57806003193601126101cb57546040516001600160a01b039091168152602090f35b50346101cb57604060e091610e6d3661397d565b908252600660205282822090825260205220610ed28154916001810154906002810154600382015460048301549160ff600660058601549501541694604051978852602088015260408701526060860152608085015260a084015260c0830190613993565bf35b50346101cb5760803660031901126101cb57610eee61331e565b610ef6613339565b610efe61334f565b90610f07613365565b92610f10615563565b600180546001600160a01b03199081166001600160a01b03938416179091558554811692821692909217855560038054831693821693909317909255600480549091169290911691909117905580f35b50346101cb5760203660031901126101cb5760406020916004358152600583522054604051908152f35b50346101cb57610f9936613919565b9060018060a01b0360025416331415806113c1575b6113b257606091839061018083019081518652600560205260408620610fd48154614e9e565b8091558094600188921615611388575b9061100a91610ff1613b3c565b50610ffc8551614ead565b9087610120820151916150b7565b9391939290921561103f575b6110308787876040519384936060855260608501906136d0565b91602084015260408301520390f35b9193508092955051865260066020526040862084875260205260408620908551825560208601958651600184015560408101516002840155606081015160038401556080810151600484015560a0810151600584015560c08101516006811015611374576110b09060068501613b94565b600783019260e08201938451908151916001600160401b03831161128f576020906110db8484613bc3565b01908b5260208b208b5b838110611357575050505060088101610100830151908151916001600160401b03831161128f576020906111198484613bf9565b01908b5260208b208260051c918c5b8381106112f45750601f19841690930392836112a3575b5050505060098101610120830151908151916001600160401b03831161128f5760209061116c8484613c93565b01908b5260208b208b5b83811061127b5750505050600a6101409101910151908151916001600160401b0383116112675790602083926111af8c97969584613c93565b0190855260208520855b83811061125057505050508351835260066020526040832086845260205260046040842001555194519260018060a01b0360045416925192803b15610a58576112199383604051809681958294635537b6d160e01b845260048401613cd6565b03925af1801561124557611230575b808080611016565b61123b85809261340e565b6105d25783611228565b6040513d87823e3d90fd5b8251818301558b96506020909201916001016111b9565b634e487b7160e01b8a52604160045260248afd5b600190602084519401938184015501611176565b634e487b7160e01b8c52604160045260248cfd5b8c938d905b8082106112bd5750505001553880808061113f565b90919485519060058210156109f9576112ea600192856020939060ff809160031b9316831b921b19161790565b96019201906112a8565b8d805b6020811061130c575083820155600101611128565b9290815190600582101561134157611338600192866020939060ff809160031b9316831b921b19161790565b920193016112f7565b5050634e487b7160e01b8f52602160045260248ffd5b82516001600160a01b0316818301556020909201916001016110e5565b634e487b7160e01b89526021600452602489fd5b94505081518652600560205261100a604087206113a58154614e9e565b8091559460019150610fe4565b6315c9368f60e31b8352600483fd5b506003546001600160a01b0316331415610fae565b50346101cb5760c03660031901126101cb576004356001600160401b038111610d225761140790369060040161349c565b90602435906044359061141861337b565b9060a4359060058210156101cb5761142e613b3c565b926040519661143c886133d7565b600080895260208901526002546001600160a01b031633141580611c18575b6113b257829683809581979a9861018085015191828452600660205260408420858552602052600860408520018054831015611c0457906114e0929185526114c0602086208360051c0191601f841683549060ff809160031b9316831b921b19161790565b9055828452600660205260408420858552602052600a6040852001614d18565b81549060031b90606435821b91600019901b19161790558082526006602052604082208383526020526003604083200161151a8154614e9e565b80915581835260066020526040832084845260205260076040842001541494856115ac575b5061155f8a8a61051861158f8f61157c8e8e8e8e6040519a8b809b613993565b60208a015215156040890152151560608801526080870190613b0e565b61010060a08601526101008501906139f7565b82516001600160a01b031660c085015260209092015160e0840152565b94975095509650965096506115e7915082855260066020526040852086865260205260408520906115e26101e089015192614512565b615607565b9381845260066020526040842081855260205261160a8560066040872001613b94565b8391849060405161161a816133d7565b600081526000602082015261162d613b3c565b9260408a0151600f811015611374576001861661184357508760068a10156113745760048a036117f85750505060019581815260066020526040812084825260205260016040822001548282526006602052604082208583526020526116ca61169c8260076040862001614d18565b60018060a01b0391549060031b1c1691848452600660205260408420878552602052600a6040852001614d18565b90549060031b1c604051916116de836133d7565b82526020820152986006948383528560205260408320818452602052600560408420015415155b611733575b505050506105189361158f9361155f989361157c935b949791909681959a83975084955061153f565b909194508295935061053061174793614ead565b80519093919290156117db5750600454600194600294916001600160a01b031690813b156105d2579183916117939383604051809681958294635537b6d160e01b845260048401613cd6565b03925af180156105c7576117c6575b50506105189361158f9361155f989361157c935b9381959a5083975082965061170a565b6117d182809261340e565b6101cb57806117a2565b61158f945061155f98935061051895915061157c926006906117b6565b91999097919460018a0361180e57600595611705565b60038a0361181e57600c95611705565b9450600694838352856020526040832081845260205260056040842001541515611705565b93998893929796959198506005851480611bf1575b8015611bd3575b1561187f575050505061158f92610518949261155f9861157c9390611720565b9161188f91939a50809450614ead565b9060018301809311611bbf5790826118a692615742565b92909189839460018060a01b0360045416803b15610a5857604051635537b6d160e01b815291839183918290849082906118e4908b60048401613cd6565b03925af180156105c757611ba6575b505060e083019182515115600014611923575050505061155f965061158f92610518949261157c92600690611720565b808b52600560205260408b206119398154614e9e565b90558a52600660205260408a20908a526020526040892090825182556020830151600183015560408301516002830155606083015160038301556080830151600483015560a0830151600583015560c08301516006811015610c94576119a29060068401613b94565b5180519060078301906001600160401b03831161128f576020906119c68484613bc3565b01908b5260208b208b5b838110611b89575050505060088101610100830151908151916001600160401b03831161128f57602090611a048484613bf9565b01908b5260208b208260051c918c5b838110611b3c5750601f1984169093039283611aeb575b5050505060098101610120830151908151916001600160401b03831161128f57602090611a578484613c93565b01908b5260208b208b5b838110611ad75750505050600a6101409101910151908151916001600160401b03831161126757602090611a958484613c93565b0190895260208920985b828110611ac35750505061155f965061158f92610518949261157c92600290611720565b60019060208351930192818c015501611a9f565b600190602084519401938184015501611a61565b8c938d905b808210611b0557505050015538808080611a2a565b90919485519060058210156109f957611b32600192856020939060ff809160031b9316831b921b19161790565b9601920190611af0565b8d805b60208110611b54575083820155600101611a13565b9290815190600582101561134157611b80600192866020939060ff809160031b9316831b921b19161790565b92019301611b3f565b82516001600160a01b0316818301556020909201916001016119d0565b81611bb09161340e565b611bbb5789386118f3565b8980fd5b634e487b7160e01b8a52601160045260248afd5b50600c8514801561185f575060068a1015610a8e5760038a1461185f565b5060068a1015610a8e5760018a14611858565b634e487b7160e01b85526032600452602485fd5b506003546001600160a01b031633141561145b565b50346101cb57806003193601126101cb57602090604051908152f35b50346101cb57611c583661397d565b6003549091906001600160a01b03163303611e2a57808352600560205260408320549181845260066020526040842083855260205260408420906002840193848111611e165783865260066020526001604087209101858111611e02578652602052600460408620015581845260056020528260408520556007810190611cde82614473565b926001820191825460018101809111611dee5796600192604092611d0988999a610518995190613e26565b96879683855260066020528585208c865260205285852091838303611d62575b505050908252506006602090815282822089835290522001556001600160a01b03611d548285613ced565b51166040519485948561394a565b83611dbd600a93928493611de597548755548b87015560028301546002870155600383015460038701556004830154600487015560058301546005870155611db460ff60068501541660068801613b94565b60078601614d30565b611dcd6008820160088601614d9d565b611ddd6009820160098601614e27565b019101614e27565b38808080611d29565b634e487b7160e01b88526011600452602488fd5b634e487b7160e01b87526011600452602487fd5b634e487b7160e01b86526011600452602486fd5b63a5a4297b60e01b8352600483fd5b50346101cb5760c03660031901126101cb5760043590611e5761334f565b6084359260a4356001600160401b0381116105d257611e7a90369060040161376a565b9360018060a01b036002541633141580612288575b6122795760e085019060018060a01b03611eaa828451613ced565b516001600160a01b03861691168190036121f3575b50610120860190611ed4606435918351613ced565b5282855260066020526040852060243586526020526040852091865183556020870151600184015560408701516002840155606087015160038401556080870151600484015560a0870151600584015560c087015160068110156121df57611f3f9060068501613b94565b5180519060078401906001600160401b038311610be857602090611f638484613bc3565b0190875260208720875b8381106121c2575050505060088201610100870151908151916001600160401b038311610be857602090611fa18484613bf9565b01908752602087208260051c91885b8381106121615750601f19841690930392836120fc575b50505050600982019051908151916001600160401b0383116120e857602090611ff08484613c93565b0190865260208620865b8381106120d45750505050600a61014091019401518051906001600160401b0382116120c05760209061202d8388613c93565b019484526020842094845b8281106120ac57600454869081906001600160a01b03168688823b156120a757604051631f1ccec960e01b815260048101929092526001600160a01b031660248201529082908290604490829084905af180156105c7576120965750f35b816120a09161340e565b6101cb5780f35b505050fd5b600190602083519301928189015501612038565b634e487b7160e01b85526041600452602485fd5b600190602084519401938184015501611ffa565b634e487b7160e01b87526041600452602487fd5b889389905b80821061211657505050015538808080611fc7565b909194855190600582101561214d57612143600192856020939060ff809160031b9316831b921b19161790565b9601920190612101565b634e487b7160e01b8c52602160045260248cfd5b898a5b60208110612179575083820155600101611fb0565b929081519060058210156121ae576121a5600192866020939060ff809160031b9316831b921b19161790565b92019301612164565b634e487b7160e01b8d52602160045260248dfd5b82516001600160a01b031681830155602090920191600101611f6d565b634e487b7160e01b87526021600452602487fd5b6004546001600160a01b0316803b15610be057604051634fe574f360e01b8152600481018690526001600160a01b03871660248201529087908290604490829084905af1801561226e57908791612259575b5050612252828451613ced565b5238611ebf565b816122639161340e565b610bfc578538612245565b6040513d89823e3d90fd5b6315c9368f60e31b8452600484fd5b506003546001600160a01b0316331415611e8f565b50346101cb5760403660031901126101cb5760406122b9613339565b916004358152600080516020616513833981519152602052209060018060a01b0316600052602052602060ff604060002054166040519015158152f35b50346101cb57806003193601126101cb576000805160206164f3833981519152546040516001600160a01b039091168152602090f35b50346101cb5760a03660031901126101cb576024359060043561234d61334f565b60643590608435908115158203610d1e576002546001600160a01b031633141580612777575b612768578385526006602052604085208686526020526123a0600760408720856001820155019384614d18565b81546001600160a01b0360039290921b82811b1990911684831690911b179091556004541690813b15610bfc57604051634fe574f360e01b8152600481018690526001600160a01b039190911660248201529085908290604490829084905af1801561124557908591612753575b5050612418578280f35b81835260066020526040832084845260205282600360408220015581835260066020526040832084845260205282600260408220015581835260066020526040832084845260205260086040842001805484825580612733575b505081835260066020526040832084845260205261249560096040852001613c5f565b8183526006602052604083208484526020526124b6600a6040852001613c5f565b6124c08154613e46565b828452600660205260408420858552602052600860408520018151916001600160401b038311612681576020906124f78484613bf9565b01908552602085208260051c91865b8381106126e65750601f1984169093039283612695575b5050505061252b8154613e46565b828452600660205260408420858552602052600960408520018151916001600160401b038311612681576020906125628484613c93565b0190855260208520855b83811061266d57505050506125819054613e46565b92818352600660205260408320908352602052600a6040832001928051906001600160401b038211612659576020906125ba8387613c93565b0193835260208320835b8281106126455750505081925060018060a01b0360045416906040516125eb60208261340e565b8381526000368137823b156120a75761261d92849283604051809681958294633921df0b60e01b845260048401613cd6565b03925af180156105c75761263057808280f35b8161263a9161340e565b6101cb578038808280f35b6001906020875197019681840155016125c4565b634e487b7160e01b84526041600452602484fd5b60019060208451940193818401550161256c565b634e487b7160e01b86526041600452602486fd5b869387905b8082106126af5750505001553880808061251d565b9091948551906005821015610a2b576126dc600192856020939060ff809160031b9316831b921b19161790565b960192019061269a565b87885b602081106126fe575083820155600101612506565b92908151906005821015610c945761272a600192866020939060ff809160031b9316831b921b19161790565b920193016126e9565b61274c918552601f60208620910160051c810190613bac565b3880612472565b8161275d9161340e565b6105d257833861240e565b6315c9368f60e31b8552600485fd5b506003546001600160a01b0316331415612373565b50346101cb5760203660031901126101cb576127df6040600435926127af613b3c565b50838152600560205281812054938082526006602052828220908252600560205282822054825260205220614512565b9061051860405192839283526040602084015260408301906139f7565b50346101cb57806003193601126101cb5760008051602061655383398151915254336001600160a01b039091160361283a5761283733615599565b80f35b63118cdaa760e01b815233600452602490fd5b50346101cb57806003193601126101cb57612866615563565b60008051602061655383398151915280546001600160a01b03199081169091556000805160206164f38339815191528054918216905581906001600160a01b03167f8be0079c531659141344cd1fd0a4f28419497f9722a3daafe3b4186f6b6457e08280a380f35b50346101cb576129066040610518926128e63661397d565b906128ef613b3c565b508252600660205282822090825260205220614512565b6040519182916020835260208301906139f7565b50346101cb57806003193601126101cb576003546040516001600160a01b039091168152602090f35b50346101cb57806003193601126101cb576001546040516001600160a01b039091168152602090f35b50346101cb5761051861298761298136613919565b90613e9b565b906040949294519485948561394a565b50346101cb5760403660031901126101cb576129b1613339565b336001600160a01b038216036129cd57610e2e906004356152ef565b63334bd91960e11b8252600482fd5b50346101cb5760603660031901126101cb576044356001600160401b038111610d2257612a0d90369060040161376a565b6002546001600160a01b031633141580612c7d575b610dd3576004358252600660205260408220602435835260205260408220815181556020820151600182015560408201516002820155606082015160038201556080820151600482015560a0820151600582015560c08201516006811015610a8e57612a919060068301613b94565b6007810160e0830151908151916001600160401b03831161268157602090612ab98484613bc3565b0190855260208520855b838110612c60575050505060088101610100830151908151916001600160401b03831161268157602090612af78484613bf9565b01908552602085208260051c91865b838110612c135750601f1984169093039283612bc2575b5050505060098101610120830151908151916001600160401b03831161268157602090612b4a8484613c93565b0190855260208520855b838110612bae5761014086015180518891600a8801906001600160401b03831161265957602090612b858484613c93565b0190835260208320835b838110612b9a578480f35b600190602084519401938184015501612b8f565b600190602084519401938184015501612b54565b869387905b808210612bdc57505050015538808080612b1d565b9091948551906005821015610a2b57612c09600192856020939060ff809160031b9316831b921b19161790565b9601920190612bc7565b87885b60208110612c2b575083820155600101612b06565b92908151906005821015610c9457612c57600192866020939060ff809160031b9316831b921b19161790565b92019301612c16565b82516001600160a01b031681830155602090920191600101612ac3565b506003546001600160a01b0316331415612a22565b50346101cb5760403660031901126101cb57610e2e600435612cb2613339565b90612cbf610e2482613b1b565b615246565b50346101cb5760203660031901126101cb576004356001600160401b038111610d2257612cf590369060040161349c565b6002546001600160a01b031633141580613044575b610dd357606091806101808301518082526005602052612d49604083205494612d31613b3c565b50612d3b83614ead565b908661012082015191614f08565b939193159586612d7e575b878787612d746040519384931584526060602085015260608401906136d0565b9060408301520390f35b918094975083955092909252600660205260408320908352602052604082208551815560208601958651600183015560408101516002830155606081015160038301556080810151600483015560a0810151600583015560c0810151600681101561066957612df09060068401613b94565b600782019160e08201928351908151916001600160401b038311610be857602090612e1b8484613bc3565b0190875260208720875b838110613027575050505060088101610100830151908151916001600160401b038311610be857602090612e598484613bf9565b01908752602087208260051c91885b838110612fda5750601f1984169093039283612f89575b5050505060098101610120830151908151916001600160401b038311610be857602090612eac8484613c93565b0190875260208720875b838110612f755750505050600a6101409101910151908151916001600160401b03831161268157602090612eea8484613c93565b0190855260208520855b838110612f6157505050505194519260018060a01b036004541690813b156105d257918391612f3a9383604051809681958294635537b6d160e01b845260048401613cd6565b03925af180156105c757612f51575b808080612d54565b81612f5b9161340e565b38612f49565b600190602084519401938184015501612ef4565b600190602084519401938184015501612eb6565b889389905b808210612fa357505050015538808080612e7f565b909194855190600582101561214d57612fd0600192856020939060ff809160031b9316831b921b19161790565b9601920190612f8e565b898a5b60208110612ff2575083820155600101612e68565b929081519060058210156121ae5761301e600192866020939060ff809160031b9316831b921b19161790565b92019301612fdd565b82516001600160a01b031681830155602090920191600101612e25565b506003546001600160a01b0316331415612d0a565b50346101cb5760203660031901126101cb576020613078600435613b1b565b604051908152f35b50346101cb57806003193601126101cb576004546040516001600160a01b039091168152602090f35b50346101cb57806003193601126101cb576002546040516001600160a01b039091168152602090f35b50346101cb5760a03660031901126101cb576130ec61331e565b6130f4613339565b6130fc61334f565b613104613365565b9061310d61337b565b92600080516020616533833981519152549460ff8660401c1615956001600160401b038116801590816132c1575b60011490816132b7575b1590816132ae575b5061329f5767ffffffffffffffff1981166001176000805160206165338339815191525586613272575b50613180615714565b613188615714565b613190615714565b331561325e5761319f33615599565b6131a7615714565b600180546001600160a01b03199081166001600160a01b03938416179091558754811692821692909217875560038054831693821693909317909255600280548216938316939093179092556004805490921692169190911790556132095780f35b60ff60401b196000805160206165338339815191525416600080516020616533833981519152557fc7f505b2f371ae2175ee4913f4499e1f2633a7b5936321eed1cdaeb6115181d2602060405160018152a180f35b631e4fbdf760e01b87526004879052602487fd5b68ffffffffffffffffff191668010000000000000001176000805160206165338339815191525538613177565b63f92ee8a960e01b8852600488fd5b9050153861314d565b303b159150613145565b88915061313b565b905034610d22576020366003190112610d225760043563ffffffff60e01b8116809103610a585760209250637965db0b60e01b811490811561330d575b5015158152f35b6301ffc9a760e01b14905038613306565b600435906001600160a01b038216820361333457565b600080fd5b602435906001600160a01b038216820361333457565b604435906001600160a01b038216820361333457565b606435906001600160a01b038216820361333457565b608435906001600160a01b038216820361333457565b35906001600160a01b038216820361333457565b61016081019081106001600160401b038211176133c157604052565b634e487b7160e01b600052604160045260246000fd5b604081019081106001600160401b038211176133c157604052565b61010081019081106001600160401b038211176133c157604052565b90601f801991011681019081106001600160401b038211176133c157604052565b81601f82011215613334578035906001600160401b0382116133c15760405192613463601f8401601f19166020018561340e565b8284526020838301011161333457816000926020809301838601378301015290565b6001600160401b0381116133c15760051b60200190565b9190916102a08184031261333457604051906102a082018281106001600160401b038211176133c157604052819381356006811015613334578352602082013560058110156133345760208401526040820135600f8110156133345760408401526060820135600f81101561333457606084015261351c60808301613391565b608084015261352d60a08301613391565b60a084015261353e60c08301613391565b60c084015261354f60e08301613391565b60e08401526101008201356101008401526101208201356101208401526101408201356101408401526101608201356101608401526101808201356101808401526101a08201356101a08401526101c08201356101c08401526101e08201356101e08401526102008201356001600160401b03811161333457816135d491840161342f565b6102008401526102208201356001600160401b03811161333457816135fa91840161342f565b6102208401526102408201356001600160401b03811161333457820181601f820112156133345780359061362d82613485565b9261363b604051948561340e565b8284526020606081860194028301019181831161333457602001925b82841061368157505050506102809182916102408501526102608101356102608501520135910152565b606084830312613334576040519060608201908282106001600160401b038311176133c15760609260209260405286358152828701358382015260408701356040820152815201930192613657565b906020808351928381520192019060005b8181106136ee5750505090565b82516001600160a01b03168452602093840193909201916001016136e1565b9080601f8301121561333457813561372481613485565b92613732604051948561340e565b81845260208085019260051b82010192831161333457602001905b82821061375a5750505090565b813581526020918201910161374d565b9190610160838203126133345760405190613784826133a5565b8193803583526020810135602084015260408101356040840152606081013560608401526080810135608084015260a081013560a084015260c081013560068110156133345760c084015260e08101356001600160401b03811161333457810182601f82011215613334578035906137fb82613485565b91613809604051938461340e565b80835260208084019160051b8301019185831161333457602001905b8282106139015750505060e08401526101008101356001600160401b03811161333457810182601f8201121561333457803561386081613485565b9161386e604051938461340e565b81835260208084019260051b8201019085821161333457602001915b8183106138e8575050506101008401526101208101356001600160401b03811161333457826138ba91830161370d565b610120840152610140810135916001600160401b03831161333457610140926138e3920161370d565b910152565b823560058110156133345781526020928301920161388a565b6020809161390e84613391565b815201910190613825565b604060031982011261333457600435906001600160401b038211613334576139439160040161349c565b9060243590565b90926139636060939695946080845260808401906136d0565b60208301969096526001600160a01b031660408201520152565b6040906003190112613334576004359060243590565b9060068210156139a05752565b634e487b7160e01b600052602160045260246000fd5b9060058210156139a05752565b906020808351928381520192019060005b8181106139e15750505090565b82518452602093840193909201916001016139d4565b919091610160830192815181526020820151602082015260408201516040820152606082015160608201526080820151608082015260a082015160a0820152613a4860c083015160c0830190613993565b60e08201519361016060e083015284518091526020610180830195019060005b818110613aef57505050610100820151938181036101008301526020808651928381520195019060005b818110613ad057505050610140613abb613acd94956101208501518482036101208601526139c3565b920151906101408184039101526139c3565b90565b90919560208082613ae46001948b516139b6565b019701929101613a92565b82516001600160a01b0316875260209687019690920191600101613a68565b90600f8210156139a05752565b60005260008051602061651383398151915260205260016040600020015490565b60405190613b49826133a5565b60606101408360008152600060208201526000604082015260008382015260006080820152600060a0820152600060c08201528260e082015282610100820152826101208201520152565b9060068110156139a05760ff80198354169116179055565b818110613bb7575050565b60008155600101613bac565b90600160401b81116133c157815490808355818110613be157505050565b613bf79260005260206000209182019101613bac565b565b90600160401b81116133c1578154818355808210613c1657505050565b613bf792600052601f6020600020918180850160051c8401941680613c42575b500160051c0190613bac565b6000198501908154906000199060200360031b1c16905538613c36565b8054906000815581613c6f575050565b6000526020600020908101905b818110613c87575050565b60008155600101613c7c565b90600160401b81116133c157815491818155828210613cb157505050565b600052602060002091820191015b818110613cca575050565b60008155600101613cbf565b604090613acd9392815281602082015201906136d0565b8051821015613d015760209160051b010190565b634e487b7160e01b600052603260045260246000fd5b51906001600160a01b038216820361333457565b9080601f83011215613334578151613d4281613485565b92613d50604051948561340e565b81845260208085019260051b82010192831161333457602001905b828210613d785750505090565b60208091613d8584613d17565b815201910190613d6b565b906020828203126133345781516001600160401b03811161333457613acd9201613d2b565b906020825491828152019160005260206000209060005b818110613dd95750505090565b82546001600160a01b0316845260209093019260019283019201613dcc565b939291613e2190613e136040936060885260608801906136d0565b9086820360208801526136d0565b930152565b8115613e30570690565b634e487b7160e01b600052601260045260246000fd5b90613e5082613485565b613e5d604051918261340e565b8281528092613e6e601f1991613485565b0190602036910137565b91908203918211613e8557565b634e487b7160e01b600052601160045260246000fd5b60035491926000929091906001600160a01b03163303611e2a576101808101918251845260056020526040842054948351855260066020526040852086865260205260408520946002870180971161445f57869480516101a08601519060018060a01b038454169160208b60246040518096819363053b601760e51b835260048301525afa908115611245578591614427575b613f3f93506101608901519261538f565b81989151158061441f575b6143fd5750613fb0959697985073__$8b0f212190ad0b350ebeb1d3aa845a5dc8$__9883613f9e600184019384546040519a8b938493635d881d2b60e01b8552606060048601526007606486019101613db5565b838103600319016024850152866136d0565b90604483015203818d5af49687156143ae5784976143db575b5083613ffc91889b613fdb8651614ead565b8051604051635d881d2b60e01b815295869485938493919060048501613df8565b03915af49081156143ae5784916143b9575b5060018060a01b03600454168351813b15610bfc579185916140479383604051809681958294635537b6d160e01b845260048401613cd6565b03925af180156143ae5761439a575b505460018101809111610dbf57855161406e91613e26565b946101206001600160a01b036140848884613ced565b51169701516140938251613e46565b61409d8351613e46565b906140a88451613e46565b938b604051946140b7866133a5565b818652602086018c8152604087018a815260608801908b825260808901928c845260a08a019485528c60c08b019681885260e08c019889526101008c01998a526101208c019a8b526101408c019c8d528d518252600660205260408220915260205260408d2099518a555160018a0155516002890155516003880155516004870155516005860155516006811015614386576141569060068601613b94565b5180519060078501906001600160401b03831161090b5760209061417a8484613bc3565b0190885260208820885b8381106143695750505050600883019051908151916001600160401b038311610be8576020906141b48484613bf9565b01908752602087208260051c91885b83811061431c5750601f19841690930392836142cb575b50505050600982019051908151916001600160401b0383116120e8576020906142038484613c93565b0190865260208620865b8381106142b75750505050600a019051908151916001600160401b0383116120c05760209061423c8484613c93565b0190845260208420845b8381106142a35750505050805182526006602052604082208783526020528260046040842001558051825260056020528660408320555181526006602052604081206000198701878111610dbf5782526020526040902060040155565b600190602084519401938184015501614246565b60019060208451940193818401550161420d565b889389905b8082106142e5575050500155388080806141da565b909194855190600582101561214d57614312600192856020939060ff809160031b9316831b921b19161790565b96019201906142d0565b898a5b602081106143345750838201556001016141c3565b929081519060058210156121ae57614360600192866020939060ff809160031b9316831b921b19161790565b9201930161431f565b82516001600160a01b031681830155602090920191600101614184565b634e487b7160e01b88526021600452602488fd5b836143a79194929461340e565b9138614056565b6040513d86823e3d90fd5b6143d591503d8086833e6143cd818361340e565b810190613d90565b3861400e565b613ffc9197506143f585913d8084833e6143cd818361340e565b979150613fc9565b965050505050905060018060a01b036144168385613ced565b51169293929190565b508015613f4a565b919290506020813d602011614457575b816144446020938361340e565b81010312610d1e5751613f3f9291613f2e565b3d9150614437565b634e487b7160e01b81526011600452602490fd5b906040519182815491828252602082019060005260206000209260005b8181106144a5575050613bf79250038361340e565b84546001600160a01b0316835260019485019487945060209093019201614490565b906040519182815491828252602082019060005260206000209260005b8181106144f9575050613bf79250038361340e565b84548352600194850194879450602090930192016144e4565b9060405161451f816133a5565b80928054825260018101546020830152600281015460408301526003810154606083015260048101546080830152600581015460a083015260ff60068201541660068110156139a05760c083015261457960078201614473565b60e0830152600881016040519081602082549182815201916000526020600020906000915b81601f840110614a955784600a9461014097946138e397946146c2945491818110614a7a575b818110614a5c575b818110614a3e575b818110614a20575b818110614a03575b8181106149e5575b8181106149c7575b8181106149a9575b81811061498b575b81811061496d575b81811061494f575b818110614931575b818110614913575b8181106148f5575b8181106148d7575b8181106148b9575b81811061489b575b81811061487d575b81811061485f575b818110614841575b818110614823575b818110614805575b8181106147e7575b8181106147c9575b8181106147ab575b81811061478d575b81811061476f575b818110614751575b818110614733575b818110614715575b8181106146f7575b106146e0575b50038261340e565b6101008601526146d4600982016144c7565b610120860152016144c7565b906146f08160209360f81c6139b6565b01386146ba565b9260208161470d60019360ff8760f01c166139b6565b0193016146b4565b9260208161472b60019360ff8760e81c166139b6565b0193016146ac565b9260208161474960019360ff8760e01c166139b6565b0193016146a4565b9260208161476760019360ff8760d81c166139b6565b01930161469c565b9260208161478560019360ff8760d01c166139b6565b019301614694565b926020816147a360019360ff8760c81c166139b6565b01930161468c565b926020816147c160019360ff8760c01c166139b6565b019301614684565b926020816147df60019360ff8760b81c166139b6565b01930161467c565b926020816147fd60019360ff8760b01c166139b6565b019301614674565b9260208161481b60019360ff8760a81c166139b6565b01930161466c565b9260208161483960019360ff8760a01c166139b6565b019301614664565b9260208161485760019360ff8760981c166139b6565b01930161465c565b9260208161487560019360ff8760901c166139b6565b019301614654565b9260208161489360019360ff8760881c166139b6565b01930161464c565b926020816148b160019360ff8760801c166139b6565b019301614644565b926020816148cf60019360ff8760781c166139b6565b01930161463c565b926020816148ed60019360ff8760701c166139b6565b019301614634565b9260208161490b60019360ff8760681c166139b6565b01930161462c565b9260208161492960019360ff8760601c166139b6565b019301614624565b9260208161494760019360ff8760581c166139b6565b01930161461c565b9260208161496560019360ff8760501c166139b6565b019301614614565b9260208161498360019360ff8760481c166139b6565b01930161460c565b926020816149a160019360ff8760401c166139b6565b019301614604565b926020816149bf60019360ff8760381c166139b6565b0193016145fc565b926020816149dd60019360ff8760301c166139b6565b0193016145f4565b926020816149fb60019360ff8760281c166139b6565b0193016145ec565b92602081614a1860019360ff87851c166139b6565b0193016145e4565b92602081614a3660019360ff8760181c166139b6565b0193016145dc565b92602081614a5460019360ff8760101c166139b6565b0193016145d4565b92602081614a7260019360ff8760081c166139b6565b0193016145cc565b92602081614a8d60019360ff87166139b6565b0193016145c4565b926001610400602092614d0d8754614ab08360ff83166139b6565b614ac286840160ff8360081c166139b6565b614ad56040840160ff8360101c166139b6565b614ae86060840160ff8360181c166139b6565b614afa6080840160ff83891c166139b6565b614b0d60a0840160ff8360281c166139b6565b614b2060c0840160ff8360301c166139b6565b614b3360e0840160ff8360381c166139b6565b614b47610100840160ff8360401c166139b6565b614b5b610120840160ff8360481c166139b6565b614b6f610140840160ff8360501c166139b6565b614b83610160840160ff8360581c166139b6565b614b97610180840160ff8360601c166139b6565b614bab6101a0840160ff8360681c166139b6565b614bbf6101c0840160ff8360701c166139b6565b614bd36101e0840160ff8360781c166139b6565b614be7610200840160ff8360801c166139b6565b614bfb610220840160ff8360881c166139b6565b614c0f610240840160ff8360901c166139b6565b614c23610260840160ff8360981c166139b6565b614c37610280840160ff8360a01c166139b6565b614c4b6102a0840160ff8360a81c166139b6565b614c5f6102c0840160ff8360b01c166139b6565b614c736102e0840160ff8360b81c166139b6565b614c87610300840160ff8360c01c166139b6565b614c9b610320840160ff8360c81c166139b6565b614caf610340840160ff8360d01c166139b6565b614cc3610360840160ff8360d81c166139b6565b614cd7610380840160ff8360e01c166139b6565b614ceb6103a0840160ff8360e81c166139b6565b614cff6103c0840160ff8360f01c166139b6565b6103e083019060f81c6139b6565b01940192019161459e565b8054821015613d015760005260206000200190600090565b818114614d99578154916001600160401b0383116133c157614d528383613bc3565b60005260206000209060005260206000208154916000925b848410614d78575050505050565b600191820180546001600160a01b0390921684860155939091019290614d6a565b5050565b90808214614d99578054906001600160401b0382116133c157614dc08284613bf9565b6000526020600020916000526020600020918160051c9181549160005b848110614e12575050601f198116808203614dfa575b5050505050565b600019910360031b1b19169101553880808080614df3565b60019182018054878301959095559101614ddd565b818114614d99578154916001600160401b0383116133c157614e498383613c93565b60005260206000209060005260206000208154916000925b848410614e6f575050505050565b6001809192019384549281850155019290614e61565b60405190614e92826133d7565b60006020838281520152565b6000198114613e855760010190565b600060018060a01b036004541691602460405180948193633717892560e01b835260048301525afa908115614efc57600091614ee7575090565b613acd91503d806000833e6143cd818361340e565b6040513d6000823e3d90fd5b9192614f12613b3c565b936000936024610180820151916101a081015190602060018060a01b03600054166040519485809263053b601760e51b82528b60048301525afa928315614efc57600093615081575b506101600151614f6e939092919061538f565b92909586511580615079575b615069575080519086821561506057600091614faa6040519485938493635d881d2b60e01b855260048501613df8565b038173__$8b0f212190ad0b350ebeb1d3aa845a5dc8$__5af4908115614efc57600091615045575b50945b614fdf8151613e46565b90614fea8151613e46565b92614ff58251613e46565b9460405196615003886133a5565b8752602087015260006040870152600060608701526000608087015260a0860152600060c086015260e085015261010084015261012083015261014082015292565b61505a91503d806000833e6143cd818361340e565b38614fd2565b91505094614fd5565b9550505050505090606090600190565b508315614f7a565b90926020823d6020116150af575b8161509c6020938361340e565b810103126101cb57505191610160614f5b565b3d915061508f565b9290916150c2613b3c565b6101808501516101a086015191966000969087901561516957506000546001600160a01b0316926000198701878111613e855760209060246040518097819363053b601760e51b835260048301525afa938415614efc57600094615133575b50610160614f6e94925b01519261538f565b93506020843d602011615161575b8161514e6020938361340e565b8101031261333457925192610160615121565b3d9150615141565b805460405163053b601760e51b8152600481018990529394929390602090829060249082906001600160a01b03165afa9182156151f05780926151b7575b505090610160614f6e949361512b565b9091506020823d6020116151e8575b816151d36020938361340e565b810103126101cb575051610160614f6e6151a7565b3d91506151c6565b604051903d90823e3d90fd5b60008181526000805160206165138339815191526020908152604080832033845290915290205460ff161561522e5750565b63e2517d3f60e01b6000523360045260245260446000fd5b6000818152600080516020616513833981519152602090815260408083206001600160a01b038616845290915290205460ff166152e8576000818152600080516020616513833981519152602090815260408083206001600160a01b0395909516808452949091528120805460ff19166001179055339291907f2f8788117e7eff1d82e926ec794901d17c78024a50270940304540a733656f0d9080a4600190565b5050600090565b6000818152600080516020616513833981519152602090815260408083206001600160a01b038616845290915290205460ff16156152e8576000818152600080516020616513833981519152602090815260408083206001600160a01b0395909516808452949091528120805460ff19169055339291907ff6391f5c32d9c69d2a47ea670b442974b53935d1edc7fd64eb21e047a839171b9080a4600190565b60249194929361010060018060a01b03600454166040519485809263149ecac960e11b82528660048301525afa908115614efc576000916154d8575b600093506153e560018060a01b0360015416925193614ead565b96615430604051988995869485946382df24a160e01b8652600486015288602486015260448501526064840152886084840152600160a484015260e060c484015260e48301906136d0565b03915afa918215614efc57600093849361546d575b508293925190808210615456575050565b635af2dc9b60e11b60005260045260245260446000fd5b939092503d8082863e615480818661340e565b8401606085820312610d225784519160208601516001600160401b038111610d2257826154ae918801613d2b565b956040810151916001600160401b0383116101cb57506154cf929101613d2b565b50929138615445565b9050610100833d821161555b575b816154f4610100938361340e565b810103126133345760009260e06040519161550e836133f2565b805183526020810151602084015260408101516040840152606081015160608401526080810151608084015260a081015160a084015260c081015160c0840152015160e0820152906153cb565b3d91506154e6565b6000805160206164f3833981519152546001600160a01b0316330361558457565b63118cdaa760e01b6000523360045260246000fd5b60008051602061655383398151915280546001600160a01b03199081169091556000805160206164f383398151915280549182166001600160a01b0393841690811790915591167f8be0079c531659141344cd1fd0a4f28419497f9722a3daafe3b4186f6b6457e0600080a3565b91610140610100840151930151604051938492630e5cc50b60e41b84526064840190600485015260606024850152815180915260206084850192019060005b8181106156ef575050506003198382030160448401526020808351928381520192019060005b8181106156d6575060209492849003928492506001600160a01b031690505afa908115614efc5760009161569e575090565b6020813d6020116156ce575b816156b76020938361340e565b81010312610d2257519060068210156101cb575090565b3d91506156aa565b825184528694506020938401939092019160010161566c565b91939450916020808261570560019488516139b6565b01940191019186949392615646565b60ff6000805160206165338339815191525460401c161561573157565b631afcd79f60e31b60005260046000fd5b9161574b613b3c565b60009160609161018086018051855260066020526040852093600119870194878611611e025785875260205261578660076040882001614473565b948251875260066020526040872081885260205260016040882001549686511515600014615b43575050815160005260066020526040600020600019880190888211613e85578160005260205260076040600020015415600014615a9257505060005460405163053b601760e51b8152600481018890529190602090839060249082906001600160a01b03165afa8015614efc578692600091615a5a575b5060009161583761584c92885190613e78565b9051906101a08b01516101608c01519261538f565b50809561586d6040519485938493635d881d2b60e01b855260048501613df8565b038173__$8b0f212190ad0b350ebeb1d3aa845a5dc8$__5af48015614efc576000918291615a40575b50935b8351936158ba6040519586938493635d881d2b60e01b855260048501613df8565b038173__$8b0f212190ad0b350ebeb1d3aa845a5dc8$__5af4918215614efc57600092615a23575b5060206101a08397015194835190801515600014615a1957955b8551604051630537dd3b60e11b815260048101929092526024820192909252604481019690965260648601528460848173__$a6e619d69c86bc274aaf34384d8e5af120$__5af4938415614efc576000946159e5575b50825115806159dd575b6159d357505061596c8151613e46565b6159768251613e46565b916159818151613e46565b936040519561598f876133a5565b86526020860152600060408601526000606086015260006080860152600060a0860152600060c086015260e085015261010084015261012083015261014082015291565b9590945092505050565b50831561595c565b90936020823d602011615a11575b81615a006020938361340e565b810103126101cb5750519238615952565b3d91506159f3565b50600019956158fc565b615a399192503d806000833e6143cd818361340e565b90386158e2565b615a5491503d8084833e6143cd818361340e565b38615896565b9250506020823d602011615a8a575b81615a766020938361340e565b810103126133345790518591906000615824565b3d9150615a69565b919490945160005260066020526040600020600092835260205281615ade6007604083200192615af06040519485938493635d881d2b60e01b85526060600486015260648501906136d0565b83810360031901602485015290613db5565b896044830152038173__$8b0f212190ad0b350ebeb1d3aa845a5dc8$__5af49182156151f0579081600093615b28575b505093615899565b615b3c92503d8091833e6143cd818361340e565b3880615b20565b9295509550508094805b615d54575b50805460405163053b601760e51b81526004810188905290602090829060249082906001600160a01b03165afa80156105c7578290615d20575b615bb2915085518352600660205260408320878452602052600760408420015490613e78565b845182526006602052604082206000198801959190888711615d0c578684526020526040832060070154615be591613e78565b9581518352600660205260408320818452602052615c1a6001604085200154978351906101a08c01516101608d01519261538f565b50809673__$8b0f212190ad0b350ebeb1d3aa845a5dc8$__9284518652600660205260408620908652602052600760408620019351855260066020526040852090855260205283615ade6007604083200194615c926040519687938493635d881d2b60e01b8552606060048601526064850190613db5565b8b60448301520381855af49283156143ae5791615cd4939185938493615cf0575b508251604051635d881d2b60e01b8152958694859384939160048501613df8565b03915af49182156151f0579081600093615b2857505093615899565b615d059193503d8086833e6143cd818361340e565b9138615cb3565b634e487b7160e01b84526011600452602484fd5b506020813d602011615d4c575b81615d3a6020938361340e565b81010312610d2257615bb29051615b8c565b3d9150615d2d565b845182526006602052604082208183526020526007604083200154615d99576001198101908111615d855780615b4d565b634e487b7160e01b82526011600452602482fd5b945038615b52565b919290615dac613b3c565b906101808401805160005260066020526040600020826000526020526005604060002001549283156164dc578151906101a0870191610160835198015190602460009261010060018060a01b03600454166040519384809263149ecac960e11b82528760048301525afa9182156143ae579084939291849261644c575b50615e4060018060a01b0360015416925193614ead565b9b615e8c6040519d8e95869485946382df24a160e01b865260048601528860248601526044850152606484015260016084840152600160a484015260e060c484015260e48301906136d0565b03915afa97881561643f578180996163d5575b50508751600181106163bc575087511590816163b3575b5061638f575081516000526006602052604060002083600052602052615ee26007604060002001614473565b95825160005260066020526040600020846000526020526001604060002001549073__$8b0f212190ad0b350ebeb1d3aa845a5dc8$__906000818b519b615f3d6040519d8e938493635d881d2b60e01b855260048501613df8565b0381855af4998a15614efc5760009a616366575b5082615f7a93926000928c9b60405196879485938493635d881d2b60e01b855260048501613df8565b03915af4918215614efc5760009261634a575b5091519751909160209190801561634057985b8351604051630537dd3b60e11b815260048101929092526024820192909252604481019990995260648901528760848173__$a6e619d69c86bc274aaf34384d8e5af120$__5af4968715614efc5760009761630c575b50815160005260066020526040600020836000526020526005604060002001546000198101908111613e855761602c8251613e46565b6160368351613e46565b906160418451613e46565b936040519361604f856133a5565b878552602085019b8c52604085019060008252606086016000815260808701906000825260a0880192835260c08801936000855260e08901958652610100890196875261012089019788526101408901998a52889f8b51600052600660205260406000208d600052602052604060002099518a555160018a01555160028901555160038801555160048701555160058601555160068110156139a0576160f89060068601613b94565b5180519060078501906001600160401b0383116133c15760209061611c8484613bc3565b0190600052602060002060005b8381106162ef57505050506008830190518051906001600160401b0382116133c1576020906161588385613bf9565b019160005260206000208160051c9160005b8381106162a25750601f198116900380616250575b50505050600982019051908151916001600160401b0383116133c1576020906161a88484613c93565b0190600052602060002060005b83811061623c5750505050600a019051908151916001600160401b0383116133c1576020906161e48484613c93565b0190600052602060002060005b83811061622857505050506000198301928311613e8557516000526006602052604060002090600052602052600560406000200155565b6001906020845194019381840155016161f1565b6001906020845194019381840155016161b5565b9260009360005b81811061626c5750505001553880808061617f565b909194855160058110156139a057616298602091846001949060ff809160031b9316831b921b19161790565b9601929101616257565b6000805b602081106162bb57508382015560010161616a565b9590815160058110156139a0576162e6602091896001949060ff809160031b9316831b921b19161790565b920196016162a6565b82516001600160a01b031681830155602090920191600101616129565b9096506020813d602011616338575b816163286020938361340e565b8101031261333457519538615ff6565b3d915061631b565b5060001998615fa0565b616360906020933d8091833e6143cd818361340e565b91615f8d565b6000919a50928092616384615f7a953d8086833e6143cd818361340e565b9b9250929350615f51565b9650505050509050604051916163a660208461340e565b6000835260003681379190565b90501538615eb6565b635af2dc9b60e11b600052600160045260245260446000fd5b915097503d80828a3e6163e8818a61340e565b8801606089820312610d225788519160208a01516001600160401b038111610d225782616416918c01613d2b565b996040810151916001600160401b0383116101cb5750616437929101613d2b565b503880615e9f565b50604051903d90823e3d90fd5b9150919250610100813d82116164d4575b8161646b610100938361340e565b810103126105d2579083929160e060405191616486836133f2565b805183526020810151602084015260408101516040840152606081015160608401526080810151608084015260a081015160a084015260c081015160c0840152015160e08201529038615e29565b3d915061645d565b95505050509050604051916163a660208461340e56fe9016d09d72d40fdae2fd8ceac6b6234c7706214fd39c1cd1e609a0528c19930002dd7bc7dec4dceedda775e58dd541e08a116c6c53815c0bd028192f7b626800f0c57e16840df040f15088dc2f81fe391c3923bec73e23a9662efc9c229c6a00237e158222e3e6968b72b9db0d8043aacf074ad9f650f0d1606b4d82ee432c00a26469706673582212200c925750b978962a0afc1e954de3eae7a826a189d897c1beaba300b2676d639f64736f6c634300081c0033",
  "linkReferences": {
    "contracts/utils/ArrayUtils.sol": {
      "ArrayUtils": [
        {
          "length": 20,
          "start": 16244
        },
        {
          "length": 20,
          "start": 20425
        },
        {
          "length": 20,
          "start": 22668
        },
        {
          "length": 20,
          "start": 22745
        },
        {
          "length": 20,
          "start": 23317
        },
        {
          "length": 20,
          "start": 23610
        },
        {
          "length": 20,
          "start": 24352
        }
      ]
    },
    "contracts/utils/RandomnessUtils.sol": {
      "RandomnessUtils": [
        {
          "length": 20,
          "start": 22857
        },
        {
          "length": 20,
          "start": 24557
        }
      ]
    }
  },
  "deployedLinkReferences": {
    "contracts/utils/ArrayUtils.sol": {
      "ArrayUtils": [
        {
          "length": 20,
          "start": 16217
        },
        {
          "length": 20,
          "start": 20398
        },
        {
          "length": 20,
          "start": 22641
        },
        {
          "length": 20,
          "start": 22718
        },
        {
          "length": 20,
          "start": 23290
        },
        {
          "length": 20,
          "start": 23583
        },
        {
          "length": 20,
          "start": 24325
        }
      ]
    },
    "contracts/utils/RandomnessUtils.sol": {
      "RandomnessUtils": [
        {
          "length": 20,
          "start": 22830
        },
        {
          "length": 20,
          "start": 24530
        }
      ]
    }
  }
}