{
  "_format": "hh-sol-artifact-1",
  "contractName": "IdlenessPhase",
  "sourceName": "contracts/phases/IdlenessPhase.sol",
  "abi": [
    {
      "inputs": [],
      "stateMutability": "nonpayable",
      "type": "constructor"
    },
    {
      "inputs": [],
      "name": "InvalidInitialization",
      "type": "error"
    },
    {
      "inputs": [],
      "name": "NotInitializing",
      "type": "error"
    },
    {
      "inputs": [
        {
          "internalType": "address",
          "name": "owner",
          "type": "address"
        }
      ],
      "name": "OwnableInvalidOwner",
      "type": "error"
    },
    {
      "inputs": [
        {
          "internalType": "address",
          "name": "account",
          "type": "address"
        }
      ],
      "name": "OwnableUnauthorizedAccount",
      "type": "error"
    },
    {
      "inputs": [],
      "name": "ReentrancyGuardReentrantCall",
      "type": "error"
    },
    {
      "inputs": [],
      "name": "TransactionNotFound",
      "type": "error"
    },
    {
      "inputs": [],
      "name": "Unauthorized",
      "type": "error"
    },
    {
      "anonymous": false,
      "inputs": [
        {
          "indexed": true,
          "internalType": "address",
          "name": "caller",
          "type": "address"
        },
        {
          "indexed": false,
          "internalType": "bool",
          "name": "authorized",
          "type": "bool"
        }
      ],
      "name": "AuthorizedCallerUpdated",
      "type": "event"
    },
    {
      "anonymous": false,
      "inputs": [
        {
          "indexed": false,
          "internalType": "uint64",
          "name": "version",
          "type": "uint64"
        }
      ],
      "name": "Initialized",
      "type": "event"
    },
    {
      "anonymous": false,
      "inputs": [
        {
          "indexed": true,
          "internalType": "address",
          "name": "previousOwner",
          "type": "address"
        },
        {
          "indexed": true,
          "internalType": "address",
          "name": "newOwner",
          "type": "address"
        }
      ],
      "name": "OwnershipTransferStarted",
      "type": "event"
    },
    {
      "anonymous": false,
      "inputs": [
        {
          "indexed": true,
          "internalType": "address",
          "name": "previousOwner",
          "type": "address"
        },
        {
          "indexed": true,
          "internalType": "address",
          "name": "newOwner",
          "type": "address"
        }
      ],
      "name": "OwnershipTransferred",
      "type": "event"
    },
    {
      "anonymous": false,
      "inputs": [
        {
          "indexed": true,
          "internalType": "bytes32",
          "name": "txId",
          "type": "bytes32"
        }
      ],
      "name": "ProcessIdlenessAccepted",
      "type": "event"
    },
    {
      "anonymous": false,
      "inputs": [
        {
          "indexed": true,
          "internalType": "bytes32",
          "name": "txId",
          "type": "bytes32"
        },
        {
          "indexed": false,
          "internalType": "enum ITransactions.TransactionStatus",
          "name": "previousStatus",
          "type": "uint8"
        },
        {
          "indexed": false,
          "internalType": "enum ITransactions.TransactionStatus",
          "name": "newStatus",
          "type": "uint8"
        }
      ],
      "name": "ProcessIdlenessEvent",
      "type": "event"
    },
    {
      "anonymous": false,
      "inputs": [
        {
          "indexed": true,
          "internalType": "bytes32",
          "name": "txId",
          "type": "bytes32"
        }
      ],
      "name": "ProcessIdlenessUndetermined",
      "type": "event"
    },
    {
      "anonymous": false,
      "inputs": [
        {
          "indexed": true,
          "internalType": "bytes32",
          "name": "txId",
          "type": "bytes32"
        }
      ],
      "name": "TransactionFinalizationFailed",
      "type": "event"
    },
    {
      "anonymous": false,
      "inputs": [
        {
          "indexed": true,
          "internalType": "bytes32",
          "name": "txId",
          "type": "bytes32"
        }
      ],
      "name": "TransactionFinalized",
      "type": "event"
    },
    {
      "inputs": [],
      "name": "acceptOwnership",
      "outputs": [],
      "stateMutability": "nonpayable",
      "type": "function"
    },
    {
      "inputs": [],
      "name": "addressManager",
      "outputs": [
        {
          "internalType": "contract IAddressManager",
          "name": "",
          "type": "address"
        }
      ],
      "stateMutability": "view",
      "type": "function"
    },
    {
      "inputs": [
        {
          "internalType": "address",
          "name": "",
          "type": "address"
        }
      ],
      "name": "authorizedCallers",
      "outputs": [
        {
          "internalType": "bool",
          "name": "",
          "type": "bool"
        }
      ],
      "stateMutability": "view",
      "type": "function"
    },
    {
      "inputs": [
        {
          "internalType": "address",
          "name": "_addressManager",
          "type": "address"
        }
      ],
      "name": "initialize",
      "outputs": [],
      "stateMutability": "nonpayable",
      "type": "function"
    },
    {
      "inputs": [
        {
          "internalType": "address",
          "name": "caller",
          "type": "address"
        }
      ],
      "name": "isAuthorizedCaller",
      "outputs": [
        {
          "internalType": "bool",
          "name": "",
          "type": "bool"
        }
      ],
      "stateMutability": "view",
      "type": "function"
    },
    {
      "inputs": [],
      "name": "owner",
      "outputs": [
        {
          "internalType": "address",
          "name": "",
          "type": "address"
        }
      ],
      "stateMutability": "view",
      "type": "function"
    },
    {
      "inputs": [],
      "name": "pendingOwner",
      "outputs": [
        {
          "internalType": "address",
          "name": "",
          "type": "address"
        }
      ],
      "stateMutability": "view",
      "type": "function"
    },
    {
      "inputs": [
        {
          "components": [
            {
              "internalType": "bytes32",
              "name": "txId",
              "type": "bytes32"
            }
          ],
          "internalType": "struct IIdlenessPhase.ProcessIdlenessParams",
          "name": "params",
          "type": "tuple"
        }
      ],
      "name": "processIdleness",
      "outputs": [
        {
          "components": [
            {
              "internalType": "enum ITransactions.TransactionStatus",
              "name": "newStatus",
              "type": "uint8"
            },
            {
              "internalType": "enum ITransactions.TransactionStatus",
              "name": "previousStatus",
              "type": "uint8"
            },
            {
              "internalType": "address",
              "name": "recipient",
              "type": "address"
            },
            {
              "internalType": "address",
              "name": "oldLeader",
              "type": "address"
            },
            {
              "internalType": "address",
              "name": "newLeader",
              "type": "address"
            },
            {
              "internalType": "bytes32[]",
              "name": "undeterminedTxIds",
              "type": "bytes32[]"
            },
            {
              "internalType": "bytes32[]",
              "name": "expiredTxIds",
              "type": "bytes32[]"
            }
          ],
          "internalType": "struct IIdlenessPhase.ProcessIdlenessResult",
          "name": "result",
          "type": "tuple"
        }
      ],
      "stateMutability": "nonpayable",
      "type": "function"
    },
    {
      "inputs": [
        {
          "internalType": "bytes32[]",
          "name": "_txIds",
          "type": "bytes32[]"
        }
      ],
      "name": "redButtonFinalize",
      "outputs": [],
      "stateMutability": "nonpayable",
      "type": "function"
    },
    {
      "inputs": [],
      "name": "renounceOwnership",
      "outputs": [],
      "stateMutability": "nonpayable",
      "type": "function"
    },
    {
      "inputs": [
        {
          "internalType": "address",
          "name": "_addressManager",
          "type": "address"
        }
      ],
      "name": "setAddressManager",
      "outputs": [],
      "stateMutability": "nonpayable",
      "type": "function"
    },
    {
      "inputs": [
        {
          "internalType": "address",
          "name": "caller",
          "type": "address"
        },
        {
          "internalType": "bool",
          "name": "authorized",
          "type": "bool"
        }
      ],
      "name": "setAuthorizedCaller",
      "outputs": [],
      "stateMutability": "nonpayable",
      "type": "function"
    },
    {
      "inputs": [
        {
          "internalType": "address[]",
          "name": "callers",
          "type": "address[]"
        },
        {
          "internalType": "bool",
          "name": "authorized",
          "type": "bool"
        }
      ],
      "name": "setAuthorizedCallers",
      "outputs": [],
      "stateMutability": "nonpayable",
      "type": "function"
    },
    {
      "inputs": [
        {
          "internalType": "address",
          "name": "newOwner",
          "type": "address"
        }
      ],
      "name": "transferOwnership",
      "outputs": [],
      "stateMutability": "nonpayable",
      "type": "function"
    }
  ],
  "bytecode": "0x6080806040523460d2577ff0c57e16840df040f15088dc2f81fe391c3923bec73e23a9662efc9c229c6a005460ff8160401c1660c1576002600160401b03196001600160401b03821601605c575b60405161463690816100d88239f35b6001600160401b0319166001600160401b039081177ff0c57e16840df040f15088dc2f81fe391c3923bec73e23a9662efc9c229c6a005581527fc7f505b2f371ae2175ee4913f4499e1f2633a7b5936321eed1cdaeb6115181d290602090a13880604d565b63f92ee8a960e01b60005260046000fd5b600080fdfe6101c0604052600436101561001357600080fd5b60006080526080513560e01c80630652b57a14612c75578063090263a714612b745780633ab76e9f14612b49578063454bbd2914612ac057806347af07da146105f9578063536fff6c146105b857806359d14b41146105b8578063715018a61461053157806379ba5097146104de5780638da5cb5b146104a7578063c4d66de8146102e5578063e30c3978146102ae578063f2fde38b146102205763f5435a1b146100bd57600080fd5b3461021a57602036600319011261021a576004356001600160401b03811161021a573660238201121561021a578060040135906100f982612da9565b916101076040519384612d88565b8083526024602084019160051b8301019136831161021a57602401905b82821061020a57833360805152600160205260ff6040608051205416156101f85761014d61378f565b906101566138a0565b906080515b81518110156101f2578061017c848661017660019587613310565b51613bcb565b6101ba5761018a8184613310565b517fd157a8824e3093207095e0855163da28b596e2c5f19ba73ea473c2346e05b15b608051608051a25b0161015b565b6101c48184613310565b517f24196ec40f90671b7144e716978686b4f3c7d6b00b23da3971ef2b52af27d87f608051608051a26101b4565b60805180f35b6282b42960e81b608051526004608051fd5b8135815260209182019101610124565b60805180fd5b3461021a57602036600319011261021a57610239612cba565b610241613759565b6000805160206145e183398151915280546001600160a01b0319166001600160a01b0392831690811790915560008051602061458183398151915254608051919216907f38d16b8cac22d99fc7c124b9cd0de2d3fa1faef420bfe791d8c362d765e227009080a360805180f35b3461021a5760805136600319011261021a576000805160206145e1833981519152546040516001600160a01b039091168152602090f35b3461021a57602036600319011261021a576102fe612cba565b6000805160206145c1833981519152549060ff8260401c1615916001600160401b0381168015908161049f575b6001149081610495575b15908161048c575b506104795767ffffffffffffffff1981166001176000805160206145c1833981519152558261044c575b50610370614552565b610378614552565b610380614552565b33156104335761038f33613b5d565b610397614552565b61039f614552565b60016000805160206145a18339815191525560805180546001600160a01b0319166001600160a01b03929092169190911790556103dc5760805180f35b60ff60401b196000805160206145c183398151915254166000805160206145c1833981519152557fc7f505b2f371ae2175ee4913f4499e1f2633a7b5936321eed1cdaeb6115181d2602060405160018152a16101f2565b631e4fbdf760e01b608051526080516004526024608051fd5b68ffffffffffffffffff191668010000000000000001176000805160206145c18339815191525582610367565b63f92ee8a960e01b608051526004608051fd5b9050158461033d565b303b159150610335565b84915061032b565b3461021a5760805136600319011261021a57600080516020614581833981519152546040516001600160a01b039091168152602090f35b3461021a5760805136600319011261021a576000805160206145e183398151915254336001600160a01b039091160361051a576101f233613b5d565b63118cdaa760e01b60805152336004526024608051fd5b3461021a5760805136600319011261021a5761054b613759565b6000805160206145e183398151915280546001600160a01b031990811690915560008051602061458183398151915280549182169055608051906001600160a01b03167f8be0079c531659141344cd1fd0a4f28419497f9722a3daafe3b4186f6b6457e08280a360805180f35b3461021a57602036600319011261021a576001600160a01b036105d9612cba565b16608051526001602052602060ff60406080512054166040519015158152f35b3461021a57602036600319011261021a5760405160e081016001600160401b038111828210176117905760405260805181526080516020820152608051604082015260805160608201526080516080820152606060a0820152606060c08201523360805152600160205260ff6040608051205416156101f85760026000805160206145a18339815191525414612aad5760026000805160206145a1833981519152556106a361378f565b906064602060018060a01b03608051541660405192838092631bae711d60e21b82528460048301526006602483015265526f756e647360d01b60448301525afa8015610b395760805160a052612a72575b506106fd613840565b916107066138a0565b60405163255709e560e11b81526004803590820152608051919291816024816001600160a01b0386165afa8015610b395760805160c052612a4c575b50606060c0510151600f811015610af25715612a3957606060c051015193600f851015610af257608080516060610180819052610140829052610160919091526040516384c2483160e01b81526004803590820152915160a051919291829060249082906001600160a01b03165afa8015610b39576080519182916129f2575b50606060c0510151600f811015610af257600103610fa15750506080519061026060c05101518015159081610f97575b50610f01575b60018060a01b0360e060c051015116926101a060c0510151604051946319f1c28760e11b8652608051600487015260248601526044850152608060648501528360805191818061084d6084820160c05161338a565b608051919003926001600160a01b03165af1928315610b3957608051926080519160805195610ed0575b5015610da357505060409384519461088f8187612d88565b60018652601f1981013660208801376004356108aa87613303565b526001600160a01b0385163b1561021a5780516346f32a5d60e11b815260048035908201526008602482015260805181604481836001600160a01b038b165af18015610d9757610d7e575b5060c0805101518151639c88381960e01b8152926020918491908290819061092d9060048035916001600160a01b03169084016136e8565b608051919003926001600160a01b03165af1908115610d735750610d3a575b505b610ccf575b505b8151610b46575b6040516302ef145760e51b8152600480359082015290602090829060249082906001600160a01b03165afa908115610b395760805191610b0a575b50600f811015610af257836109ba82610aa7966109c39403610aab575b8561374d565b6020840161374d565b60018060a01b0360c08051015116604083015260018060a01b036101405116606083015260018060a01b03610160511660808301526101805160a083015260c082015260016000805160206145a18339815191525560405191829160208352610a30602084018251612ce4565b610a4260208201516040850190612ce4565b60018060a01b03604082015116606084015260018060a01b03606082015116608084015260018060a01b0360808201511660a084015260c0610a9360a083015160e083870152610100860190612d07565b910151838203601f190160e0850152612d07565b0390f35b604051610ab88185612ce4565b610ac56020820183612ce4565b7ffaf1928d3a3ff7eeb812a61cff434e2054765f37de74057fb2da4245373bdf77604060043592a26109b4565b634e487b7160e01b6080515260216004526024608051fd5b610b2c915060203d602011610b32575b610b248183612d88565b810190613735565b84610997565b503d610b1a565b6040513d608051823e3d90fd5b926080515b8251811015610cc857610b5e8184613310565b516001600160a01b0386163b1561021a576040516346f32a5d60e11b815260048101919091526008602482015260805181604481836001600160a01b038b165af18015610b3957610caf575b50610bb58184613310565b51604051637e6d64a560e01b81526004810191909152906020826024816001600160a01b038a165afa918215610b395760805192610c77575b50610bf98185613310565b516001600160a01b0387163b1561021a57604051634ff736eb60e11b815260048101849052602481019190915260805181604481836001600160a01b038c165af1908115610b39578791610c5b575b50610c55906001936143a4565b01610b4b565b610c69915060805190612d88565b60805161021a578587610c48565b90915060203d8111610ca8575b610c8e8183612d88565b60208260009281010312610ca55750519086610bee565b80fd5b503d610c84565b608051610cbb91612d88565b60805161021a5785610baa565b509261095c565b6001600160a01b0382163b1561021a57604051635556edb560e01b815260048035908201526001600160a01b039182166024820152608051909182906044908290849087165af18015610b39571561095357608051610d2d91612d88565b60805161021a5784610953565b6020813d602011610d6b575b81610d5360209383612d88565b8101031261021a57610d6490613324565b508661094c565b3d9150610d46565b513d608051823e3d90fd5b608051610d8a91612d88565b60805161021a57886108f5565b82513d608051823e3d90fd5b949094610db1575b5061094e565b604080519550610dc18187612d88565b60018652601f198101366020880137600435610ddc87613303565b526001600160a01b0385163b1561021a5780516346f32a5d60e11b815260048035908201526008602482015260805181604481836001600160a01b038b165af18015610d9757610eb7575b5060c0805101518151639c88381960e01b81529260209184919082908190610e5f9060048035916001600160a01b03169084016136e8565b608051919003926001600160a01b03165af1908115610d73575015610dab576020813d602011610eaf575b81610e9760209383612d88565b8101031261021a57610ea890613324565b5086610dab565b3d9150610e8a565b608051610ec391612d88565b60805161021a5788610e27565b91509350610ef39192503d80608051833e610eeb8183612d88565b81019061367a565b505090929192909389610877565b60c080510151604051634113628960e11b815291925060209082908190610f389060048035916001600160a01b03169084016136e8565b03816001600160a01b0389165afa908115610b395760805191610f5d575b50906107f8565b90506020813d602011610f8f575b81610f7860209383612d88565b8101031261021a57610f8990613324565b87610f56565b3d9150610f6b565b90504211886107f2565b91949092606060c0510151600f811015610af25760021480156129d9575b156111c25760e083015160208401516001600160a01b0391610fe19190613310565b5116610140526040519063023770b560e01b8252608051600483015261014051602483015260606044830152816080519181806110236064820160c05161338a565b608051919003926001600160a01b03165af1908115610b39576080519283928392889184918291611196575b5061016052611181575b5050508051611179575b5015611164576020015160a0519091906001600160a01b03163b1561021a576110ac9160405180938192638858751360e01b835260805194610160519060043560048601613650565b038160805160018060a01b0360a051165af18015610b395761114b575b50606060c0510151600f811015610af257600e03610955576001600160a01b0381163b1561021a576040516346f32a5d60e11b815260048035908201526002602482015260805181604481836001600160a01b0387165af18015610b3957611132575b50610955565b60805161113e91612d88565b60805161021a578461112c565b60805161115791612d88565b60805161021a57846110c9565b50506080516101405260805161016052610955565b945087611063565b61118a926138fe565b61018052888086611059565b939650505092506111b391503d80608051833e610eeb8183612d88565b9395939490939290918d61104f565b606060c09796959497510151600f811015610af25760031480156129c0575b1561190e5760405191634f23081b60e01b83526040600484015261120a6044840160c05161338a565b6003198482030160248501528380611225608051938861356f565b038160805160018060a01b0387165af18015610b3957608051608051946080516101205260805160e052608051926117f5575b506114de575b50505060e05151611275575b505090919250610955565b80156114d65760e082015160208301516001600160a01b03916112989190613310565b51165b610140526080516101a05260e08201610100525b61012051516101a0511015611309576101a05160e0516001600160a01b03916112d791613310565b51166112f861010051516112f16101a05161012051613310565b5190613310565b5260016101a051016101a0526112af565b60a0516001600160a01b03163b1561021a57604051631955473560e11b8152600435600482015286602482015260606044820152608051818061134f606482018761356f565b038160805160018060a01b0360a051165af18015610b39576114bd575b50611378575b8061126a565b60805194855b61012051518110156114ae576113978161012051613310565b516020840151146113aa5760010161137e565b6020919293949596506113c660018060a01b039160e051613310565b5116925b610160849052015160a0516001600160a01b03163b1561021a5761140a926040519384928392638858751360e01b84526080519560043560048601613650565b038160805160018060a01b0360a051165af18015610b3957611495575b506001600160a01b0381163b1561021a576040516346f32a5d60e11b815260048035908201526002602482015260805181604481836001600160a01b0387165af18015610b395761147c575b90839291611372565b60805161148891612d88565b60805161021a5784611473565b6080516114a191612d88565b60805161021a5784611427565b509060209095929394956113ca565b6080516114c991612d88565b60805161021a578761136c565b60805161129b565b606060c051015190600f821015610af2578691600a036117e25750505060e0830151606060c0510151600f811015610af2576001600160a01b0383163b1561021a5761155861154d60405193632ff3dcd960e21b85526004356004860152606060248601526064850190613532565b916044840190612ce4565b60805190829081900381836001600160a01b0387165af18015610b39576117c9575b50604060c0510151600f811015610af2576001600160a01b0385163b1561021a576115be604051916346f32a5d60e11b835260043560048401526024830190612ce4565b60805181604481836001600160a01b038a165af18015610b39576117b0575b5060405163e70c38f160e01b815260c0816004816001600160a01b0386165afa8015610b395760805190611716575b60809150015160011c42034281116116fe576001600160a01b0382163b1561021a57604051634e8eb8bd60e01b815260808051600480359084015260056024840152604483019390935251909190829060649082906001600160a01b0387165af18015610b39576116e5575b506001600160a01b0381163b1561021a5760405163049e305d60e21b8152600480359082015260805190918290602490829084906001600160a01b03165af18015610b39576116cc575b505b87808061125e565b6080516116d891612d88565b60805161021a57876116c2565b6080516116f191612d88565b60805161021a5788611678565b634e487b7160e01b6080515260116004526024608051fd5b5060c0813d60c0116117a8575b8161173060c09383612d88565b8101031261021a5760405160c081016001600160401b038111828210176117905760809260a091604052805183526020810151602084015260408101516040840152606081015160608401528381015184840152015160a082015261160c565b634e487b7160e01b6080515260416004526024608051fd5b3d9150611723565b6080516117bc91612d88565b60805161021a57886115dd565b6080516117d591612d88565b60805161021a578861157a565b6117ec93506138fe565b610180526116c4565b945050503d9283608051823e61180b8482612d88565b60a081858101031261021a5761182081613324565b61182c60208301613324565b916040810151956001600160401b03871161021a57808201601f88840101121561021a578682015161185d81612da9565b9761186b604051998a612d88565b818952602089019083850160208460051b83880101011161021a5790602082860101915b60208460051b828801010183106118fa5750505050610180518201516001600160401b03811161021a576118c8908284019084016130eb565b9160808101516001600160401b03811161021a576118e99282019101613150565b9192956101205260e052908b611258565b60208080938551815201930192915061188f565b929394959091606060c0510151600f811015610af25760041480156129a7575b61193c575b50505050610955565b60e08101516020909101516001600160a01b039161195a9190613310565b511661014052606060c0510151600f811015610af25760ff1690600f821015610af2576119a06040519263b800631160e01b845260043560048501526024840190612ce4565b4260448301526040826064816001600160a01b0388165afa918215610b39576080519060805193612983575b5015611933576040516119de81612d3b565b60805181526080516020820152608051604082015260805161018051820152608051608082015260805160a082015260805160c08201526101805160e0820152610180516101008201526101805161012082015261014061018051910152604051611a4881612d6d565b608051815260206080519101526040519163a6cd198d60e01b835260406004840152611a796044840160c05161338a565b9015156024840152828060805192038160805160018060a01b0360a051165af1908115610b395760805192839283929183918291906128c7575b5060e086015180516128a3575b5061278f575b50501561271a576001600160a01b0384163b1561021a57604051634e8eb8bd60e01b8152608080516004803590840152600260248401524260448401529051829060649082906001600160a01b038a165af18015610b3957612701575b505b6001600160a01b0385163b1561021a57611b58604051916346f32a5d60e11b835260043560048401526024830190612ce4565b60805181604481836001600160a01b038a165af18015610b39576126e8575b5051611b85575b8080611933565b909193929460018060a01b0360c080510151169360405194633b4d69ad60e11b86528580611bbd6080519360043590600484016136e8565b038160805160018060a01b0388165af1948515610b395760805195612698575b506080515b855181101561268957611bf58187613310565b51611c05575b6001905b01611be2565b600435611c128288613310565b5103611f5957611c228187613310565b516001600160a01b0388163b1561021a576040516346f32a5d60e11b8152600481018290526002602482015260805181604481836001600160a01b038e165af18015610b3957611f40575b506001600160a01b0388163b1561021a57604051633703849360e21b8152600481018290526080805160248301525181604481836001600160a01b038e165af18015610b3957611f27575b5060405163ba15d63560e01b81526004810182905260a051602090829060249082906001600160a01b03165afa908115610b395760805191611ef4575b5060405190635af5446960e01b82528260048301528060248301526080518260448160018060a01b0360a051165afa918215610b395760805192611eb3575b5060e08201516020909201805190926001600160a01b0391611d5591613310565b5116915160018060a01b0360a051163b1561021a57611d8e926040519384928392638858751360e01b8452608051958860048601613650565b038160805160018060a01b0360a051165af18015610b3957611e9a575b506001600160a01b03611dbc613840565b16803b1561021a57604051634e8eb8bd60e01b8152608080516004830185905260026024840152426044840152905191929091839160649183915af18015610b3957611e81575b506001600160a01b0388163b1561021a5760405163343be44b60e01b81526004810191909152436024820152608080516044830152805160648301525181608481836001600160a01b038d165af18015610b3957611e68575b506001905b9050611bfb565b608051611e7491612d88565b60805161021a5788611e5c565b608051611e8d91612d88565b60805161021a5789611e03565b608051611ea691612d88565b60805161021a5789611dab565b9091503d80608051833e611ec78183612d88565b810160208282031261021a5781516001600160401b03811161021a57611eed92016131ad565b908b611d34565b905060203d8111611f20575b611f0a8183612d88565b60208260009281010312610ca55750518a611cf5565b503d611f00565b608051611f3391612d88565b60805161021a5789611cb8565b608051611f4c91612d88565b60805161021a5789611c6d565b611f638187613310565b516040516302ef145760e51b815260048101919091526020816024816001600160a01b038c165afa908115610b39576080519161266b575b50600f811015610af25760011461266357611fb68187613310565b516040519063f66530b960e01b8252600482015260208160248160018060a01b0360a051165afa908115610b395760805191612630575b501561246b57611ffd8187613310565b5160a0516001600160a01b03163b1561021a57604051636b9b064d60e11b8152600481019190915260805160a0518290602490829084906001600160a01b03165af18015610b3957612452575b506120558187613310565b516001600160a01b0388163b1561021a576040516346f32a5d60e11b8152600481018290526002602482015260805181604481836001600160a01b038e165af18015610b3957612439575b506001600160a01b0388163b1561021a57604051633703849360e21b8152600481018290526080805160248301525181604481836001600160a01b038e165af18015610b3957612420575b5060405163ba15d63560e01b81526004810182905260a051602090829060249082906001600160a01b03165afa908115610b3957608051916123ed575b5060405190635af5446960e01b82528260048301528060248301526080518260448160018060a01b0360a051165afa918215610b3957608051926123ac575b5060e08201516020909201805190926001600160a01b039161218891613310565b5116915160018060a01b0360a051163b1561021a576121c1926040519384928392638858751360e01b8452608051958860048601613650565b038160805160018060a01b0360a051165af18015610b3957612393575b5060405163fbc6da7560e01b8152600481018290526020816024816001600160a01b038d165afa908115610b39576080519161235a575b506001600160a01b0389163b1561021a5760405163647cca5560e01b8152600481018390526001602482015260805181604481836001600160a01b038f165af18015610b3957612341575b506001600160a01b0389163b1561021a576040519063b944e6f760e01b825281806122928560805194600484016136e8565b03816080518d60018060a01b03165af18015610b3957612328575b506001600160a01b0388163b1561021a5760405163343be44b60e01b81526004810191909152436024820152608080516044830152805160648301525181608481836001600160a01b038d165af18015610b395761230f575b50600190611e61565b60805161231b91612d88565b60805161021a5788612306565b60805161233491612d88565b60805161021a57896122ad565b60805161234d91612d88565b60805161021a578a612260565b90506020813d821161238b575b8161237460209383612d88565b8101031261021a5761238590612dfa565b8a612215565b3d9150612367565b60805161239f91612d88565b60805161021a57896121de565b9091503d80608051833e6123c08183612d88565b810160208282031261021a5781516001600160401b03811161021a576123e692016131ad565b908b612167565b905060203d8111612419575b6124038183612d88565b60208260009281010312610ca55750518a612128565b503d6123f9565b60805161242c91612d88565b60805161021a57896120eb565b60805161244591612d88565b60805161021a57896120a0565b60805161245e91612d88565b60805161021a578861204a565b6124758187613310565b5160405163fbc6da7560e01b8152600481018290526020816024816001600160a01b038d165afa8015610b39578291608051916125ee575b506124cf916040918251938492839263910048fb60e01b8452600484016136e8565b038160805160018060a01b038b165af1908115610b3957608051916125be575b50612555575b6001600160a01b0386163b1561021a57604051634e8eb8bd60e01b81526080805160048301939093526005602483015242604483015251909190829060649082906001600160a01b038b165af18015610b395761230f5750600190611e61565b6001600160a01b0388163b1561021a576040516346f32a5d60e11b8152600481018290526006602482015260805181604481836001600160a01b038e165af18015610b39576125a5575b506124f5565b6080516125b191612d88565b60805161021a578961259f565b6125df915060403d81116125e7575b6125d78183612d88565b810190613331565b90508a6124ef565b503d6125cd565b9150506020813d8211612628575b8161260960209383612d88565b8101031261021a576040826126206124cf93612dfa565b9150916124ad565b3d91506125fc565b905060203d811161265c575b6126468183612d88565b60208260009281010312610ca557505189611fed565b503d61263c565b600190611bff565b612683915060203d8111610b3257610b248183612d88565b89611f9b565b50949250949250508480611b7e565b9094503d80608051833e6126ac8183612d88565b8101610180518282031261021a576126c382613324565b5060408201516001600160401b03811161021a576126e19201613150565b9387611bdd565b6080516126f491612d88565b60805161021a5787611b77565b60805161270d91612d88565b60805161021a5788611b23565b6001600160a01b0384163b1561021a57604051634e8eb8bd60e01b8152608080516004803590840152600560248401524260448401529051829060649082906001600160a01b038a165af18015610b3957612776575b50611b25565b60805161278291612d88565b60805161021a5788612770565b6001600160a01b0361279f6142df565b1691602061016060c051019360a4855160018060a01b03865116928487015160405196879586946326315d3160e21b865260043560048701526024860152604485015260648401526084830152608051905af18015610b3957612874575b506001600160a01b0361280e614345565b169060018060a01b039051169151813b1561021a5760405192630a959f2360e31b84526004840152602483015260043560448301528160648160805193608051905af18015610b3957612862575b80611ac6565b60805161286e91612d88565b8961285c565b6020813d60201161289b575b8161288d60209383612d88565b8101031261021a57516127fd565b3d9150612880565b60208701516001600160a01b03916128bb9190613310565b5116610160528c611ac0565b955050509150503d9081608051843e6128e08284612d88565b60e083838101031261021a5760068351101561021a5761290260208401613324565b9061290f60408501613324565b916101805185015190600f82101561021a5760808601516001600160401b03811161021a576129456040918789019089016131ad565b958701879003609f19011261021a5760c06040519661296388612d6d565b61296f60a08201612dfa565b88520151602087015292909394908c611ab3565b905061299f91925060403d6040116125e7576125d78183612d88565b9190896119cc565b50606060c0510151600f811015610af25760091461192e565b50606060c0510151600f811015610af257600a146111e1565b50606060c0510151600f811015610af257600e14610fbf565b9150503d80608051833e612a068183612d88565b81019060408183031261021a5780519160208201516001600160401b03811161021a57612a3392016131ad565b886107c2565b6331fb878f60e01b608051526004608051fd5b612a69903d80608051833e612a618183612d88565b810190612e85565b60c05284610742565b6020813d602011612aa5575b81612a8b60209383612d88565b8101031261021a57612a9c90612dfa565b60a052826106f4565b3d9150612a7e565b633ee5aeb560e01b608051526004608051fd5b3461021a57604036600319011261021a57612ad9612cba565b7fad857fa38c9319cb80848f1ef2f924383b90297eb5d71755738ff037d100faa16020612b04612cd5565b92612b0d613759565b60018060a01b031692836080515260018252612b3a816040608051209060ff801983541691151516179055565b6040519015158152a260805180f35b3461021a5760805136600319011261021a57608051546040516001600160a01b039091168152602090f35b3461021a57604036600319011261021a576004356001600160401b03811161021a573660238201121561021a5780600401356001600160401b03811161021a576024820191602436918360051b01011161021a57612bd0612cd5565b612bd8613759565b60805190801515915b838110612bee5760805180f35b6001906001600160a01b03612c0c612c0783888a612dc0565b612de6565b166080515281602052612c30836040608051209060ff801983541691151516179055565b818060a01b03612c44612c0783888a612dc0565b167fad857fa38c9319cb80848f1ef2f924383b90297eb5d71755738ff037d100faa16020604051878152a201612be1565b3461021a57602036600319011261021a57612c8e612cba565b612c96613759565b60805180546001600160a01b0319166001600160a01b039290921691909117815580f35b600435906001600160a01b0382168203612cd057565b600080fd5b602435908115158203612cd057565b90600f821015612cf15752565b634e487b7160e01b600052602160045260246000fd5b906020808351928381520192019060005b818110612d255750505090565b8251845260209384019390920191600101612d18565b61016081019081106001600160401b03821117612d5757604052565b634e487b7160e01b600052604160045260246000fd5b604081019081106001600160401b03821117612d5757604052565b90601f801991011681019081106001600160401b03821117612d5757604052565b6001600160401b038111612d575760051b60200190565b9190811015612dd05760051b0190565b634e487b7160e01b600052603260045260246000fd5b356001600160a01b0381168103612cd05790565b51906001600160a01b0382168203612cd057565b60005b838110612e215750506000910152565b8181015183820152602001612e11565b81601f82011215612cd05780516001600160401b038111612d575760405192612e64601f8301601f191660200185612d88565b81845260208284010111612cd057612e829160208085019101612e0e565b90565b602081830312612cd0578051906001600160401b038211612cd057016102e081830312612cd057604051916102e083018381106001600160401b03821117612d575760405281516006811015612cd057835260208201516005811015612cd05760208401526040820151600f811015612cd05760408401526060820151600f811015612cd0576060840152612f1c60808301612dfa565b6080840152612f2d60a08301612dfa565b60a0840152612f3e60c08301612dfa565b60c0840152612f4f60e08301612dfa565b60e08401526101008201516101008401526101208201516101208401526101408201516101408401526101608201516101608401526101808201516101808401526101a08201516101a08401526101c08201516101c08401526101e08201516101e08401526102008201516001600160401b038111612cd05781612fd4918401612e31565b6102008401526102208201516001600160401b038111612cd05781612ffa918401612e31565b6102208401526102408201516001600160401b038111612cd057820181601f82011215612cd05780519061302d82612da9565b9261303b6040519485612d88565b82845260206060818601940283010191818311612cd057602001925b82841061309c5750505050906102c0916102408401526102608101516102608401526102808101516102808401526102a08101516102a084015201516102c082015290565b606084830312612cd0576040519060608201908282106001600160401b03831117612d575760609260209260405286518152828701518382015260408701516040820152815201930192613057565b9080601f83011215612cd057815161310281612da9565b926131106040519485612d88565b81845260208085019260051b820101928311612cd057602001905b8282106131385750505090565b6020809161314584612dfa565b81520191019061312b565b9080601f83011215612cd057815161316781612da9565b926131756040519485612d88565b81845260208085019260051b820101928311612cd057602001905b82821061319d5750505090565b8151815260209182019101613190565b919061016083820312612cd057604051906131c782612d3b565b8193805183526020810151602084015260408101516040840152606081015160608401526080810151608084015260a081015160a084015260c08101516006811015612cd05760c084015260e08101516001600160401b038111612cd057826132319183016130eb565b60e08401526101008101516001600160401b038111612cd057810182601f82011215612cd057805161326281612da9565b916132706040519384612d88565b81835260208084019260051b82010190858211612cd057602001915b8183106132ea575050506101008401526101208101516001600160401b038111612cd057826132bc918301613150565b610120840152610140810151916001600160401b038311612cd057610140926132e59201613150565b910152565b82516005811015612cd05781526020928301920161328c565b805115612dd05760200190565b8051821015612dd05760209160051b010190565b51908115158203612cd057565b9190826040910312612cd057612e82602083519301613324565b906006821015612cf15752565b906005821015612cf15752565b9060209161337e81518092818552858086019101612e0e565b601f01601f1916010190565b9061339681835161334b565b6133a860208301516020830190613358565b6133ba60408301516040830190612ce4565b6133cc60608301516060830190612ce4565b60018060a01b03608083015116608082015260018060a01b0360a08301511660a082015260018060a01b0360c08301511660c082015260018060a01b0360e08301511660e08201526101008201516101008201526101208201516101208201526101408201516101408201526101608201516101608201526101808201516101808201526101a08201516101a08201526101c08201516101c08201526101e08201516101e08201526134a86134946102008401516102e06102008501526102e0840190613365565b610220840151838203610220850152613365565b91610240810151928281036102408401526020808551928381520194019060005b818110613504575050506102c081610260829301516102608501526102808101516102808501526102a08101516102a0850152015191015290565b90919460206060600192604089518051835284810151858401520151604082015201960191019190916134c9565b906020808351928381520192019060005b8181106135505750505090565b82516001600160a01b0316845260209384019390920191600101613543565b919091805183526020810151602084015260408101516040840152606081015160608401526080810151608084015260a081015160a08401526135ba60c082015160c085019061334b565b6135d560e082015161016060e0860152610160850190613532565b92610100820151938181036101008301526020808651928381520195019060005b8181106136315750505061014061361f612e829495610120850151848203610120860152612d07565b92015190610140818403910152612d07565b909195602080826136456001948b51613358565b0197019291016135f6565b90949360019360809360a084019784526020840152848060a01b0316604083015260608201520152565b91909160a081840312612cd05761369081613324565b9261369d60208301613324565b926136aa60408401612dfa565b9260608101516001600160401b038111612cd057836136ca918301613150565b9260808201516001600160401b038111612cd057612e829201613150565b6001600160a01b039091168152602081019190915260400190565b9061370d82612da9565b61371a6040519182612d88565b828152809261372b601f1991612da9565b0190602036910137565b90816020910312612cd05751600f811015612cd05790565b600f821015612cf15752565b600080516020614581833981519152546001600160a01b0316330361377a57565b63118cdaa760e01b6000523360045260246000fd5b600054604051631bae711d60e21b815260206004820181905260126024830152712a3930b739b0b1ba34b7b726b0b730b3b2b960711b60448301529091829060649082906001600160a01b03165afa908115613834576000916137fa575b506001600160a01b031690565b90506020813d60201161382c575b8161381560209383612d88565b81010312612cd05761382690612dfa565b386137ed565b3d9150613808565b6040513d6000823e3d90fd5b600054604051631bae711d60e21b8152602060048201819052600860248301526749646c656e65737360c01b60448301529091829060649082906001600160a01b03165afa908115613834576000916137fa57506001600160a01b031690565b600054604051631bae711d60e21b8152602060048201819052600660248301526551756575657360d01b60448301529091829060649082906001600160a01b03165afa908115613834576000916137fa57506001600160a01b031690565b9291909261390c8151613703565b91600094855b8351811015613b20576001600160a01b03821661392f8286613310565b516040519063fbc6da7560e01b82526004820152602081602481855afa90811561383457600091613ae1575b5060406139889161396c8589613310565b51825163910048fb60e01b8152938492839290600484016136e8565b038160006001600160a01b038a165af190811561383457600091613ac1575b506139b6575b50600101613912565b6139c38286999399613310565b51813b15612cd0576000916044839260405194859384926346f32a5d60e11b84526004840152600660248401525af1801561383457613ab0575b506001600160a01b03613a0e613840565b16613a198886613310565b5190803b15612cd057604051634e8eb8bd60e01b81526004810192909252600560248301524260448301526000908290606490829084905af1801561383457613a9f575b50613a688785613310565b51613a738287613310565b526000198114613a8957600180910196906139ad565b634e487b7160e01b600052601160045260246000fd5b6000613aaa91612d88565b38613a5d565b6000613abb91612d88565b386139fd565b613ad9915060403d81116125e7576125d78183612d88565b9050386139a7565b906020823d8211613b18575b81613afa60209383612d88565b81010312610ca557506040613b1161398892612dfa565b915061395b565b3d9150613aed565b5050505091613b2e81613703565b9260005b828110613b3e57505050565b80613b4b60019284613310565b51613b568288613310565b5201613b32565b6000805160206145e183398151915280546001600160a01b031990811690915560008051602061458183398151915280549182166001600160a01b0393841690811790915591167f8be0079c531659141344cd1fd0a4f28419497f9722a3daafe3b4186f6b6457e0600080a3565b60405163255709e560e11b81526004810182905293926000906001600160a01b038416908287602481855afa968715613db75783976142c3575b50606087018051600f81101561427d57156142b9578051600f81101561427d5760051480156142a5575b8015614291575b8015614269575b15613dc2575060c0870151604051637112610560e11b81529791602091899190829087908290613c7b908b906001600160a01b0316600484016136e8565b03926001600160a01b03165af1968715613db7578397613d7b575b5086613ca4575b5050505050565b813b15613d6c576040516346f32a5d60e11b81526004810185905260076024820152838160448183875af18015613d7057908491613d57575b505061016001928351823b15613d53579060448492836040519586948593634ff736eb60e11b8552600485015260248401525af18015613d4857613d33575b505090613d2991516143a4565b3880808080613c9d565b613d3e828092612d88565b610ca55780613d1c565b6040513d84823e3d90fd5b8380fd5b81613d6191612d88565b613d6c578238613cdd565b8280fd5b6040513d86823e3d90fd5b9096506020813d602011613daf575b81613d9760209383612d88565b81010312613d6c57613da890613324565b9538613c96565b3d9150613d8a565b6040513d85823e3d90fd5b969394919092959651600f8110156142555760010361402e57803b15614006576040516346f32a5d60e11b81526004810186905260086024820152868160448183865af1801561400a57908791614019575b50506101608401908151813b15614015578791604483926040519485938492634ff736eb60e11b845260048401528b60248401525af1801561400a57908791613ff1575b505060c09291613e6891516143a4565b91018051604051634113628960e11b81526001600160a01b0393841693909160209183918291613e9e91899116600484016136e8565b0381865afa908115613fe6578591613fa8575b5015613f495751604051639c88381960e01b8152939260209285929091839186918391613eeb91906001600160a01b0316600484016136e8565b03925af18015613f3c57613f01575b5050600190565b6020823d602011613f34575b81613f1a60209383612d88565b81010312610ca55750613f2c90613324565b503880613efa565b3d9150613f0d565b50604051903d90823e3d90fd5b516001600160a01b0316813b15613d5357918391613f7e938360405180968195829463e5d31ced60e01b8452600484016136e8565b03925af18015613d4857613f93575050600190565b613f9e828092612d88565b610ca55780613efa565b90506020813d602011613fde575b81613fc360209383612d88565b81010312613fda57613fd490613324565b38613eb1565b8480fd5b3d9150613fb6565b6040513d87823e3d90fd5b81613ffb91612d88565b614006578538613e58565b8580fd5b6040513d89823e3d90fd5b8780fd5b8161402391612d88565b614006578538613e14565b60c0840180516040805163910048fb60e01b815299986001600160a01b039687169895979596909593928b91829161406c918a9116600484016136e8565b0381878b5af1988915613d70578499614232575b5088614090575b50505050505050565b9091809394959698503b15613d53576040516346f32a5d60e11b81526004810186905260066024820152848160448183885af18015613fe6579161410499918793614219575b5051604051637112610560e11b8152996020938b93928492899284926001600160a01b0316600484016136e8565b03925af1968715613db75783976141dd575b5086614124575b8080614087565b813b15613d6c576040516346f32a5d60e11b81526004810185905260076024820152838160448183875af18015613d70579084916141c8575b505061016001928351823b15613d53579060448492836040519586948593634ff736eb60e11b8552600485015260248401525af18015613d48576141b3575b5050906141a991516143a4565b388080808061411d565b6141be828092612d88565b610ca5578061419c565b816141d291612d88565b613d6c57823861415d565b9096506020813d602011614211575b816141f960209383612d88565b81010312613d6c5761420a90613324565b9538614116565b3d91506141ec565b9561422981602095949398612d88565b959091926140d6565b61424c91995060403d6040116125e7576125d78183612d88565b90509738614080565b634e487b7160e01b87526021600452602487fd5b508051600f81101561427d57600614613c3d565b634e487b7160e01b85526021600452602485fd5b508051600f81101561427d57600c14613c36565b508051600f81101561427d57600d14613c2f565b5091955050505050565b6142d89197503d8085833e612a618183612d88565b9538613c05565b600054604051631bae711d60e21b8152602060048201819052600e60248301526d151c9a589d5b985b105c1c19585b60921b60448301529091829060649082906001600160a01b03165afa908115613834576000916137fa57506001600160a01b031690565b600054604051631bae711d60e21b815260206004820181905260076024830152665374616b696e6760c81b60448301529091829060649082906001600160a01b03165afa908115613834576000916137fa57506001600160a01b031690565b906143ad614345565b60405163900cf0cf60e01b81526000936001600160a01b039092169290602081600481875afa908115613fe6578591614520575b5082101561451a576040516315fffa8d60e01b81526004810183905290602090829060249082906001600160a01b03165afa908115613d705784916144e8575b506144e35760206001600160a01b036144386142df565b1691602460405180948193634d66354560e11b835260048301525afa908115613db75783916144a9575b506144a557803b156144a1578180916004604051809481936333d98b0560e21b83525af18015613d4857614494575050565b8161449e91612d88565b50565b5080fd5b5050565b90506020813d6020116144db575b816144c460209383612d88565b81010312613d6c576144d590613324565b38614462565b3d91506144b7565b505050565b90506020813d602011614512575b8161450360209383612d88565b81010312613d53575138614421565b3d91506144f6565b50505050565b90506020813d60201161454a575b8161453b60209383612d88565b81010312613fda5751386143e1565b3d915061452e565b60ff6000805160206145c18339815191525460401c161561456f57565b631afcd79f60e31b60005260046000fdfe9016d09d72d40fdae2fd8ceac6b6234c7706214fd39c1cd1e609a0528c1993009b779b17422d0df92223018b32b4d1fa46e071723d6817e2486d003becc55f00f0c57e16840df040f15088dc2f81fe391c3923bec73e23a9662efc9c229c6a00237e158222e3e6968b72b9db0d8043aacf074ad9f650f0d1606b4d82ee432c00a2646970667358221220a0dd9c50eccb2a7e670b3186e6c38bbcc0214d204a35fd382ddf3a918284522c64736f6c634300081c0033",
  "linkReferences": {},
  "deployedLinkReferences": {}
}