{
  "_format": "hh-sol-artifact-1",
  "contractName": "IdlenessPhase",
  "sourceName": "contracts/phases/IdlenessPhase.sol",
  "abi": [
    {
      "inputs": [],
      "stateMutability": "nonpayable",
      "type": "constructor"
    },
    {
      "inputs": [],
      "name": "InvalidInitialization",
      "type": "error"
    },
    {
      "inputs": [],
      "name": "NotInitializing",
      "type": "error"
    },
    {
      "inputs": [
        {
          "internalType": "address",
          "name": "owner",
          "type": "address"
        }
      ],
      "name": "OwnableInvalidOwner",
      "type": "error"
    },
    {
      "inputs": [
        {
          "internalType": "address",
          "name": "account",
          "type": "address"
        }
      ],
      "name": "OwnableUnauthorizedAccount",
      "type": "error"
    },
    {
      "inputs": [],
      "name": "ReentrancyGuardReentrantCall",
      "type": "error"
    },
    {
      "inputs": [],
      "name": "TransactionNotFound",
      "type": "error"
    },
    {
      "inputs": [],
      "name": "Unauthorized",
      "type": "error"
    },
    {
      "anonymous": false,
      "inputs": [
        {
          "indexed": true,
          "internalType": "address",
          "name": "caller",
          "type": "address"
        },
        {
          "indexed": false,
          "internalType": "bool",
          "name": "authorized",
          "type": "bool"
        }
      ],
      "name": "AuthorizedCallerUpdated",
      "type": "event"
    },
    {
      "anonymous": false,
      "inputs": [
        {
          "indexed": true,
          "internalType": "bytes32",
          "name": "txId",
          "type": "bytes32"
        },
        {
          "indexed": false,
          "internalType": "uint8",
          "name": "queueType",
          "type": "uint8"
        },
        {
          "indexed": false,
          "internalType": "uint8",
          "name": "status",
          "type": "uint8"
        }
      ],
      "name": "ForceFinalizeStuckAfterAppealPath",
      "type": "event"
    },
    {
      "anonymous": false,
      "inputs": [
        {
          "indexed": false,
          "internalType": "uint64",
          "name": "version",
          "type": "uint64"
        }
      ],
      "name": "Initialized",
      "type": "event"
    },
    {
      "anonymous": false,
      "inputs": [
        {
          "indexed": true,
          "internalType": "address",
          "name": "previousOwner",
          "type": "address"
        },
        {
          "indexed": true,
          "internalType": "address",
          "name": "newOwner",
          "type": "address"
        }
      ],
      "name": "OwnershipTransferStarted",
      "type": "event"
    },
    {
      "anonymous": false,
      "inputs": [
        {
          "indexed": true,
          "internalType": "address",
          "name": "previousOwner",
          "type": "address"
        },
        {
          "indexed": true,
          "internalType": "address",
          "name": "newOwner",
          "type": "address"
        }
      ],
      "name": "OwnershipTransferred",
      "type": "event"
    },
    {
      "anonymous": false,
      "inputs": [
        {
          "indexed": true,
          "internalType": "bytes32",
          "name": "txId",
          "type": "bytes32"
        }
      ],
      "name": "ProcessIdlenessAccepted",
      "type": "event"
    },
    {
      "anonymous": false,
      "inputs": [
        {
          "indexed": true,
          "internalType": "bytes32",
          "name": "txId",
          "type": "bytes32"
        },
        {
          "indexed": false,
          "internalType": "enum ITransactions.TransactionStatus",
          "name": "previousStatus",
          "type": "uint8"
        },
        {
          "indexed": false,
          "internalType": "enum ITransactions.TransactionStatus",
          "name": "newStatus",
          "type": "uint8"
        }
      ],
      "name": "ProcessIdlenessEvent",
      "type": "event"
    },
    {
      "anonymous": false,
      "inputs": [
        {
          "indexed": true,
          "internalType": "bytes32",
          "name": "txId",
          "type": "bytes32"
        }
      ],
      "name": "ProcessIdlenessUndetermined",
      "type": "event"
    },
    {
      "anonymous": false,
      "inputs": [
        {
          "indexed": true,
          "internalType": "bytes32",
          "name": "txId",
          "type": "bytes32"
        }
      ],
      "name": "TransactionFinalizationFailed",
      "type": "event"
    },
    {
      "anonymous": false,
      "inputs": [
        {
          "indexed": true,
          "internalType": "bytes32",
          "name": "txId",
          "type": "bytes32"
        }
      ],
      "name": "TransactionFinalized",
      "type": "event"
    },
    {
      "inputs": [],
      "name": "acceptOwnership",
      "outputs": [],
      "stateMutability": "nonpayable",
      "type": "function"
    },
    {
      "inputs": [],
      "name": "addressManager",
      "outputs": [
        {
          "internalType": "contract IAddressManager",
          "name": "",
          "type": "address"
        }
      ],
      "stateMutability": "view",
      "type": "function"
    },
    {
      "inputs": [
        {
          "internalType": "address",
          "name": "",
          "type": "address"
        }
      ],
      "name": "authorizedCallers",
      "outputs": [
        {
          "internalType": "bool",
          "name": "",
          "type": "bool"
        }
      ],
      "stateMutability": "view",
      "type": "function"
    },
    {
      "inputs": [
        {
          "internalType": "address",
          "name": "_addressManager",
          "type": "address"
        }
      ],
      "name": "initialize",
      "outputs": [],
      "stateMutability": "nonpayable",
      "type": "function"
    },
    {
      "inputs": [
        {
          "internalType": "address",
          "name": "caller",
          "type": "address"
        }
      ],
      "name": "isAuthorizedCaller",
      "outputs": [
        {
          "internalType": "bool",
          "name": "",
          "type": "bool"
        }
      ],
      "stateMutability": "view",
      "type": "function"
    },
    {
      "inputs": [],
      "name": "owner",
      "outputs": [
        {
          "internalType": "address",
          "name": "",
          "type": "address"
        }
      ],
      "stateMutability": "view",
      "type": "function"
    },
    {
      "inputs": [],
      "name": "pendingOwner",
      "outputs": [
        {
          "internalType": "address",
          "name": "",
          "type": "address"
        }
      ],
      "stateMutability": "view",
      "type": "function"
    },
    {
      "inputs": [
        {
          "components": [
            {
              "internalType": "bytes32",
              "name": "txId",
              "type": "bytes32"
            }
          ],
          "internalType": "struct IIdlenessPhase.ProcessIdlenessParams",
          "name": "params",
          "type": "tuple"
        }
      ],
      "name": "processIdleness",
      "outputs": [
        {
          "components": [
            {
              "internalType": "enum ITransactions.TransactionStatus",
              "name": "newStatus",
              "type": "uint8"
            },
            {
              "internalType": "enum ITransactions.TransactionStatus",
              "name": "previousStatus",
              "type": "uint8"
            },
            {
              "internalType": "address",
              "name": "recipient",
              "type": "address"
            },
            {
              "internalType": "address",
              "name": "oldLeader",
              "type": "address"
            },
            {
              "internalType": "address",
              "name": "newLeader",
              "type": "address"
            },
            {
              "internalType": "bytes32[]",
              "name": "undeterminedTxIds",
              "type": "bytes32[]"
            },
            {
              "internalType": "bytes32[]",
              "name": "expiredTxIds",
              "type": "bytes32[]"
            }
          ],
          "internalType": "struct IIdlenessPhase.ProcessIdlenessResult",
          "name": "result",
          "type": "tuple"
        }
      ],
      "stateMutability": "nonpayable",
      "type": "function"
    },
    {
      "inputs": [
        {
          "internalType": "bytes32[]",
          "name": "_txIds",
          "type": "bytes32[]"
        }
      ],
      "name": "redButtonFinalize",
      "outputs": [
        {
          "internalType": "address[]",
          "name": "affectedRecipients",
          "type": "address[]"
        }
      ],
      "stateMutability": "nonpayable",
      "type": "function"
    },
    {
      "inputs": [],
      "name": "renounceOwnership",
      "outputs": [],
      "stateMutability": "nonpayable",
      "type": "function"
    },
    {
      "inputs": [
        {
          "internalType": "address",
          "name": "_addressManager",
          "type": "address"
        }
      ],
      "name": "setAddressManager",
      "outputs": [],
      "stateMutability": "nonpayable",
      "type": "function"
    },
    {
      "inputs": [
        {
          "internalType": "address",
          "name": "caller",
          "type": "address"
        },
        {
          "internalType": "bool",
          "name": "authorized",
          "type": "bool"
        }
      ],
      "name": "setAuthorizedCaller",
      "outputs": [],
      "stateMutability": "nonpayable",
      "type": "function"
    },
    {
      "inputs": [
        {
          "internalType": "address[]",
          "name": "callers",
          "type": "address[]"
        },
        {
          "internalType": "bool",
          "name": "authorized",
          "type": "bool"
        }
      ],
      "name": "setAuthorizedCallers",
      "outputs": [],
      "stateMutability": "nonpayable",
      "type": "function"
    },
    {
      "inputs": [
        {
          "internalType": "address",
          "name": "newOwner",
          "type": "address"
        }
      ],
      "name": "transferOwnership",
      "outputs": [],
      "stateMutability": "nonpayable",
      "type": "function"
    }
  ],
  "bytecode": "0x6080806040523460d2577ff0c57e16840df040f15088dc2f81fe391c3923bec73e23a9662efc9c229c6a005460ff8160401c1660c1576002600160401b03196001600160401b03821601605c575b604051614e7490816100d88239f35b6001600160401b0319166001600160401b039081177ff0c57e16840df040f15088dc2f81fe391c3923bec73e23a9662efc9c229c6a005581527fc7f505b2f371ae2175ee4913f4499e1f2633a7b5936321eed1cdaeb6115181d290602090a13880604d565b63f92ee8a960e01b60005260046000fd5b600080fdfe6102c0604052600436101561001357600080fd5b60006101a0526101a0513560e01c80630652b57a1461310f578063090263a71461300a5780633ab76e9f14612fdd578063454bbd2914612f5157806347af07da146107ac578063536fff6c1461076957806359d14b4114610769578063715018a6146106df57806379ba5097146106895780638da5cb5b14610651578063c4d66de814610487578063e30c39781461044f578063f2fde38b146103bf5763f5435a1b146100bf57600080fd5b346103b85760203660031901126103b8576004356001600160401b0381116103b857366023820112156103b8578060040135906100fb82613244565b916101096040519384613223565b8083526024602084019160051b830101913683116103b857602401905b8282106103a85783336101a05152600160205260ff60406101a0512054161561039457610151613c4f565b9061015a613d60565b6101648251613b9e565b6101a051929091906001600160a01b038516845b825181101561033a5761018b81846137e8565b516040519063255709e560e11b825260048201526101a05181602481865afa90811561032c576101a05191610307575b506060810151600f8110156102ed576101df868a6101d986896137e8565b51614075565b610224575050806101f2600192856137e8565b517fd157a8824e3093207095e0855163da28b596e2c5f19ba73ea473c2346e05b15b6101a0516101a051a25b01610178565b60019061023184876137e8565b517f24196ec40f90671b7144e716978686b4f3c7d6b00b23da3971ef2b52af27d87f6101a0516101a051a21461026b575b5060019061021e565b6101a051805b8881106102b2575b5090600192911561028c575b5090610262565b60c0838060a01b03910151166102ab6102a489613bf4565b98886137e8565b5288610285565b6001600160a01b036102c4828a6137e8565b5160c08501516001600160a01b03169116146102e257600101610271565b506001905080610279565b634e487b7160e01b6101a05152602160045260246101a051fd5b61032691503d806101a051833e61031e8183613223565b81019061335d565b886101bb565b6040513d6101a051823e3d90fd5b848661034581613b9e565b916101a0515b82811061036c57604051602080825281906103689082018761325b565b0390f35b6001906001600160a01b0361038182856137e8565b511661038d82876137e8565b520161034b565b6282b42960e81b6101a0515260046101a051fd5b8135815260209182019101610126565b6101a05180fd5b346103b85760203660031901126103b8576103d8613155565b6103e0613c19565b600080516020614e1f83398151915280546001600160a01b0319166001600160a01b03928316908117909155600080516020614dbf833981519152546101a051919216907f38d16b8cac22d99fc7c124b9cd0de2d3fa1faef420bfe791d8c362d765e227009080a36101a05180f35b346103b8576101a0513660031901126103b857600080516020614e1f833981519152546040516001600160a01b039091168152602090f35b346103b85760203660031901126103b8576104a0613155565b600080516020614dff833981519152549060ff8260401c1615916001600160401b03811680159081610649575b600114908161063f575b159081610636575b506106215767ffffffffffffffff198116600117600080516020614dff83398151915255826105f4575b50610512614d90565b61051a614d90565b610522614d90565b33156105d85761053133614007565b610539614d90565b610541614d90565b6001600080516020614ddf833981519152556101a05180546001600160a01b0319166001600160a01b0392909216919091179055610581575b6101a05180f35b60ff60401b19600080516020614dff8339815191525416600080516020614dff833981519152557fc7f505b2f371ae2175ee4913f4499e1f2633a7b5936321eed1cdaeb6115181d2602060405160018152a161057a565b631e4fbdf760e01b6101a051526101a05160045260246101a051fd5b68ffffffffffffffffff19166801000000000000000117600080516020614dff8339815191525582610509565b63f92ee8a960e01b6101a0515260046101a051fd5b905015846104df565b303b1591506104d7565b8491506104cd565b346103b8576101a0513660031901126103b857600080516020614dbf833981519152546040516001600160a01b039091168152602090f35b346103b8576101a0513660031901126103b857600080516020614e1f83398151915254336001600160a01b03909116036106c65761057a33614007565b63118cdaa760e01b6101a051523360045260246101a051fd5b346103b8576101a0513660031901126103b8576106fa613c19565b600080516020614e1f83398151915280546001600160a01b0319908116909155600080516020614dbf833981519152805491821690556101a051906001600160a01b03167f8be0079c531659141344cd1fd0a4f28419497f9722a3daafe3b4186f6b6457e08280a36101a05180f35b346103b85760203660031901126103b8576001600160a01b0361078a613155565b166101a051526001602052602060ff60406101a0512054166040519015158152f35b346103b85760203660031901126103b85760405160e081016001600160401b03811182821017611a21576040526101a05181526101a05160208201526101a05160408201526101a05160608201526101a0516080820152606060a0820152606060c0820152336101a05152600160205260ff60406101a05120541615610394576002600080516020614ddf8339815191525414612f3c576002600080516020614ddf8339815191525561085d613c4f565b610160526101a05154604051631bae711d60e21b81526020600482018190526006602483015265526f756e647360d01b60448301529091829060649082906001600160a01b03165afa801561032c576101a05160c052612f01575b506108c1613d00565b610120526108cd613d60565b60a05260405163255709e560e11b815260048035908201526101a05161016051829060249082906001600160a01b03165afa801561032c576101a05161024052612ee1575b506060610240510151600f8110156102ed5715612ecc576060610240510151608052600f60805110156102ed576101a0805160606102a08190526102608290526102808290526040516384c2483160e01b81526004803590820152925160c0519294939192829060249082906001600160a01b03165afa90811561032c576101a051916101a0516101e052612e81575b506060610240510151600f8110156102ed576001036111d457506101a0519061026061024051015180151590816111ca575b50611130575b60018060a01b0360e061024051015116906101a0610240510151604051926319f1c28760e11b84526101a051600485015260248401526044830152608060648301526101a0518280610a326084820161024051613862565b03816101a05160018060a01b0361012051165af191821561032c576101a0519384938492906110fe575b5015610fc3575050604091825192610a748185613223565b60018452601f198101366020860137600435610a8f856137db565b52610160516001600160a01b03163b156103b85780516346f32a5d60e11b81526004803590820152600860248201526101a051610160518290604490829084906001600160a01b03165af18015610fb657610f9b575b506102405160c001518151639c88381960e01b8152919060209083908190610b1d9060048035916001600160a01b0316908401613b83565b03816101a05160018060a01b0360a051165af1908115610f8f5750610f56575b505b610ee0575b505b8051610d42575b600f8310156102ed5782159283610ccc57925b80610cb7575b61036893610b7991610c6e575b83613be8565b610b8860805160208401613be8565b60018060a01b0360c061024051015116604083015260018060a01b036102605116606083015260018060a01b03610280511660808301526102a05160a083015260c08201526001600080516020614ddf8339815191525560405191829160208352610bf760208401825161317f565b610c096020820151604085019061317f565b60018060a01b03604082015116606084015260018060a01b03606082015116608084015260018060a01b0360808201511660a084015260c0610c5a60a083015160e0838701526101008601906131a2565b910151838203601f190160e08501526131a2565b604051610c7d8160805161317f565b610c8a602082018361317f565b7ffaf1928d3a3ff7eeb812a61cff434e2054765f37de74057fb2da4245373bdf77604060043592a2610b73565b50600f8310156102ed57608051831415610b66565b506040516302ef145760e51b8152600480359082015261016051602090829060249082906001600160a01b03165afa90811561032c576101a05191610d13575b5092610b60565b610d35915060203d602011610d3b575b610d2d8183613223565b810190613bd0565b84610d0c565b503d610d23565b916101a0515b8351811015610ed957610d5b81856137e8565b51610160516001600160a01b03163b156103b8576040516346f32a5d60e11b81526004810191909152600860248201526101a051610160518290604490829084906001600160a01b03165af1801561032c57610ebe575b50610dbd81856137e8565b519060405191637e6d64a560e01b8352600483015260208260248160018060a01b0361016051165afa91821561032c576101a05192610e86575b50610e0281866137e8565b51610160516001600160a01b03163b156103b85760405190634ff736eb60e11b825283600483015260248201526101a051816044816101a05160018060a01b0361016051165af1801561032c57610e6b575b50610e656001926101605190614be2565b01610d48565b6101a051610e7891613223565b6101a0516103b85785610e54565b90915060203d8111610eb7575b610e9d8183613223565b60208260009281010312610eb45750519085610df7565b80fd5b503d610e93565b6101a051610ecb91613223565b6101a0516103b85784610db2565b5091610b4d565b610160516001600160a01b03163b156103b857604051635556edb560e01b815260048035908201526001600160a01b0391821660248201526101a0516101605191929091839160449183918591165af1801561032c5715610b44576101a051610f4891613223565b6101a0516103b85783610b44565b6020813d602011610f87575b81610f6f60209383613223565b810103126103b857610f80906137fc565b5085610b3d565b3d9150610f62565b513d6101a051823e3d90fd5b6101a051610fa891613223565b6101a0516103b85786610ae5565b82513d6101a051823e3d90fd5b92909215610b3f57604080519350610fdb8185613223565b60018452601f198101366020860137600435610ff6856137db565b52610160516001600160a01b03163b156103b85780516346f32a5d60e11b81526004803590820152600860248201526101a051610160518290604490829084906001600160a01b03165af18015610fb6576110e3575b506102405160c001518151639c88381960e01b81529190602090839081906110849060048035916001600160a01b0316908401613b83565b03816101a05160018060a01b0360a051165af1908115610f8f57506110aa575b50610b3f565b6020813d6020116110db575b816110c360209383613223565b810103126103b8576110d4906137fc565b50856110a4565b3d91506110b6565b6101a0516110f091613223565b6101a0516103b8578661104c565b915092506111229193503d806101a051833e61111a8183613223565b810190613b15565b505090939193909287610a5c565b6102405160c00151604051634113628960e11b8152919250602090829081906111699060048035916001600160a01b0316908401613b83565b038160018060a01b0360a051165afa90811561032c576101a05191611190575b50906109da565b90506020813d6020116111c2575b816111ab60209383613223565b810103126103b8576111bc906137fc565b84611189565b3d915061119e565b90504211856109d4565b6060610240510151600f8110156102ed576002148015612e67575b1561140b576101e05160e08101516020909101516001600160a01b039161121691906137e8565b51166102605260405163023770b560e01b81526101a0516004820152610260516024820152606060448201526101a05181806112586064820161024051613862565b03816101a05160018060a01b0361012051165af1801561032c576101a051918291829182918291906113e6575b50610280526113cc575b5080516113c4575b50156113ae576101e0516020015160c0519091906001600160a01b03163b156103b8576112e59160405180938192638858751360e01b83526101a05194610280519060043560048601613aeb565b03816101a05160018060a01b0360c051165af1801561032c57611393575b506060610240510151600f8110156102ed57600e03610b4657610160516001600160a01b03163b156103b8576040516346f32a5d60e11b81526004803590820152600260248201526101a051610160518290604490829084906001600160a01b03165af1801561032c57611378575b50610b46565b6101a05161138591613223565b6101a0516103b85783611372565b6101a0516113a091613223565b6101a0516103b85783611303565b506101a051610260526101a05161028052610b46565b925085611297565b60a051610160516113dc92613dbe565b6102a0528661128f565b935050505061140291503d806101a051833e61111a8183613223565b92909189611285565b6060610240510151600f8110156102ed576003148015612e4d575b15611bad57604051634f23081b60e01b81526040600482015261144f6044820161024051613862565b600319828203016024830152818061146e6101a051936101e051613a0a565b03816101a05160018060a01b0361012051165af1801561032c576101a0516101a051926101a051610200526101a0516101c0526101a05192611a92575b50611742575b506101c051516114c3575b5050610b46565b8015611739576101e05160e08101516020909101516001600160a01b03916114eb91906137e8565b51165b610260526101a051610220525b610200515161022051101561155957610220516101c0516001600160a01b0391611524916137e8565b511661154860e06101e051015161154161022051610200516137e8565b51906137e8565b5260016102205101610220526114fb565b60c0516001600160a01b03163b156103b857604051631955473560e11b81526004356004820152826024820152606060448201526101a05181806115a3606482016101e051613a0a565b03816101a05160018060a01b0360c051165af1801561032c5761171e575b506115cd575b806114bc565b6101a051929190835b6102005151811015611714576115ef81610200516137e8565b5160206101e051015114611605576001016115d6565b909192935061161e60018060a01b03916101c0516137e8565b5116905b6102808290526101e0516020015160c0516001600160a01b03163b156103b857611669926040519384928392638858751360e01b84526101a0519560043560048601613aeb565b03816101a05160018060a01b0360c051165af1801561032c576116f9575b50610160516001600160a01b03163b156103b8576040516346f32a5d60e11b81526004803590820152600260248201526101a051610160518290604490829084906001600160a01b03165af1801561032c57156115c7576101a0516116eb91613223565b6101a0516103b857836115c7565b6101a05161170691613223565b6101a0516103b85783611687565b5092909192611622565b6101a05161172b91613223565b6101a0516103b857856115c1565b6101a0516114ee565b6060610240510151600f8110156102ed57600a03611a79575060e06101e05101516060610240510151600f8110156102ed57610120516001600160a01b03163b156103b8576117bf6117b460405193632ff3dcd960e21b8552600435600486015260606024860152606485019061325b565b91604484019061317f565b81806101a0519203816101a05160018060a01b0361012051165af1801561032c57611a5e575b506040610240510151600f8110156102ed57610160516001600160a01b03163b156103b85761182d604051916346f32a5d60e11b83526004356004840152602483019061317f565b6101a051610160518290604490829084906001600160a01b03165af1801561032c57611a43575b5060405163e70c38f160e01b81526101205160c090829060049082906001600160a01b03165afa801561032c576101a051906119a7575b60809150015160011c420342811161198d57610120516001600160a01b03163b156103b857604051634e8eb8bd60e01b81526101a080516004803590840152600560248401526044830193909352516101205191929183916064918391906001600160a01b03165af1801561032c57611972575b50610120516001600160a01b03163b156103b85760405163049e305d60e21b815260048035908201526101a051610120518290602490829084906001600160a01b03165af1801561032c57611957575b505b856114b1565b6101a05161196491613223565b6101a0516103b8578561194f565b6101a05161197f91613223565b6101a0516103b857856118ff565b634e487b7160e01b6101a05152601160045260246101a051fd5b5060c0813d60c011611a3b575b816119c160c09383613223565b810103126103b85760405160c081016001600160401b03811182821017611a215760809260a091604052805183526020810151602084015260408101516040840152606081015160608401528381015184840152015160a082015261188b565b634e487b7160e01b6101a05152604160045260246101a051fd5b3d91506119b4565b6101a051611a5091613223565b6101a0516103b85785611854565b6101a051611a6b91613223565b6101a0516103b857856117e5565b60a05161016051611a8992613dbe565b6102a052611951565b925050503d90816101a051823e611aa98282613223565b60a08183810103126103b857611abe816137fc565b611aca602083016137fc565b916040810151936001600160401b0385116103b857808201601f8684010112156103b85784820151611afb81613244565b95611b096040519788613223565b818752602087019083850160208460051b8388010101116103b85790602082860101915b60208460051b82880101018310611b9957505050506102a0518201516001600160401b0381116103b857611b66908284019084016135c3565b9160808101516001600160401b0381116103b857611b879282019101613628565b919293610200526101c05290876114ab565b602080809385518152019301929150611b2d565b6060610240510151600f8110156102ed576004148015612e33575b611bd25750610b46565b6101e05160e08101516020909101516001600160a01b0391611bf491906137e8565b5116610260526060610240510151600f8110156102ed5760ff16600f8110156102ed57611c3a6040519163b800631160e01b83526004356004840152602483019061317f565b42604482015260408160648160018060a01b0361012051165afa90811561032c576101a051906101a05192612e11575b50611c76575b50611372565b604051611c82816131d6565b6101a05181526101a05160208201526101a05160408201526101a0516102a0518201526101a05160808201526101a05160a08201526101a05160c08201526102a05160e08201526102a0516101008201526102a0516101208201526101406102a051910152604051611cf381613208565b6101a051815260206101a0519101526040519063a6cd198d60e01b825260406004830152611d276044830161024051613862565b901515602483015281806101a0519203816101a05160018060a01b0360c051165af191821561032c576101a05192839283929183918291612d54575b5060e08501518051612d30575b50612c17575b505015612b9857610120516001600160a01b03163b156103b857604051634e8eb8bd60e01b81526101a0805160048035908401526002602484015242604484015290516101205183916064918391906001600160a01b03165af1801561032c57612b7d575b505b600f821015806102ed576005831415918280612b6c575b8281612b5b575b81612b4a575b50612acd575b51611e6f575b806102ed576005831491611e5f575b8115611e4e575b8115611e3e575b50611e36575b80611c70565b925083611e30565b90506102ed57600c811485611e2a565b8091506102ed57600d821490611e23565b50506101a0516006821490611e1c565b949392919060018060a01b0360c0610240510151166101805260405161014052633b4d69ad60e11b61014051526101a0516101405161014051611ebe6004356101805160046101405101613b83565b03610140516101a05160018060a01b0360a051165af161010052610100511561032c576101a05160e05261010051612a68575b6101a0515b60e05151811015612a5d57611f0d8160e0516137e8565b51611f1d575b6001905b01611ef6565b600435611f2c8260e0516137e8565b51036122ab57611f3e8160e0516137e8565b51610160516001600160a01b03163b156103b8576040516346f32a5d60e11b815260048101829052600260248201526101a051610160518290604490829084906001600160a01b03165af1801561032c57612290575b50610160516001600160a01b03163b156103b857604051633703849360e21b8152600481018290526101a08051602483015251610160518290604490829084906001600160a01b03165af1801561032c57612275575b5060405163ba15d63560e01b81526004810182905260c051602090829060249082906001600160a01b03165afa90811561032c576101a05191612242575b5060405190635af5446960e01b82528260048301528060248301526101a0518260448160018060a01b0360c051165afa91821561032c576101a051926121fc575b5060e08201516020909201805190926001600160a01b039161208a916137e8565b5116915160018060a01b0360c051163b156103b8576120c4926040519384928392638858751360e01b84526101a051958860048601613aeb565b03816101a05160018060a01b0360c051165af1801561032c576121e1575b506001600160a01b036120f3613d00565b16803b156103b857604051634e8eb8bd60e01b81526101a080516004830185905260026024840152426044840152905191929091839160649183915af1801561032c576121c6575b50610160516001600160a01b03163b156103b85760405163343be44b60e01b815260048101919091524360248201526101a0805160448301528051606483015251610160518290608490829084906001600160a01b03165af1801561032c576121ab575b506001905b9050611f13565b6101a0516121b891613223565b6101a0516103b8578761219f565b6101a0516121d391613223565b6101a0516103b8578861213b565b6101a0516121ee91613223565b6101a0516103b857886120e2565b9091503d90816101a051823e6122128282613223565b60208183810103126103b85780516001600160401b0381116103b85761223b9282019101613685565b908a612069565b905060203d811161226e575b6122588183613223565b60208260009281010312610eb457505189612028565b503d61224e565b6101a05161228291613223565b6101a0516103b85788611fea565b6101a05161229d91613223565b6101a0516103b85788611f94565b6122b78160e0516137e8565b51604051906302ef145760e51b8252600482015260208160248160018060a01b0361016051165afa90811561032c576101a05191612a3f575b50600f8110156102ed57600114612a375761230d8160e0516137e8565b516040519063f66530b960e01b8252600482015260208160248160018060a01b0360c051165afa90811561032c576101a05191612a04575b501561281c576123578160e0516137e8565b5160c0516001600160a01b03163b156103b857604051636b9b064d60e11b815260048101919091526101a05160c0518290602490829084906001600160a01b03165af1801561032c57612801575b506123b28160e0516137e8565b51610160516001600160a01b03163b156103b8576040516346f32a5d60e11b815260048101829052600260248201526101a051610160518290604490829084906001600160a01b03165af1801561032c576127e6575b50610160516001600160a01b03163b156103b857604051633703849360e21b8152600481018290526101a08051602483015251610160518290604490829084906001600160a01b03165af1801561032c576127cb575b5060405163ba15d63560e01b81526004810182905260c051602090829060249082906001600160a01b03165afa90811561032c576101a05191612798575b5060405190635af5446960e01b82528260048301528060248301526101a0518260448160018060a01b0360c051165afa91821561032c576101a05192612752575b5060e08201516020909201805190926001600160a01b03916124fe916137e8565b5116915160018060a01b0360c051163b156103b857612538926040519384928392638858751360e01b84526101a051958860048601613aeb565b03816101a05160018060a01b0360c051165af1801561032c57612737575b5060405163fbc6da7560e01b81526004810182905261016051602090829060249082906001600160a01b03165afa90811561032c576101a051916126fe575b50610160516001600160a01b03163b156103b85760405163647cca5560e01b815260048101839052600160248201526101a051610160518290604490829084906001600160a01b03165af1801561032c576126e3575b50610160516001600160a01b03163b156103b8576040519063b944e6f760e01b82528180612621856101a0519460048401613b83565b03816101a05160018060a01b0361016051165af1801561032c576126c8575b50610160516001600160a01b03163b156103b85760405163343be44b60e01b815260048101919091524360248201526101a0805160448301528051606483015251610160518290608490829084906001600160a01b03165af1801561032c576126ad575b506001906121a4565b6101a0516126ba91613223565b6101a0516103b857876126a4565b6101a0516126d591613223565b6101a0516103b85788612640565b6101a0516126f091613223565b6101a0516103b857896125eb565b90506020813d821161272f575b8161271860209383613223565b810103126103b857612729906132d2565b89612595565b3d915061270b565b6101a05161274491613223565b6101a0516103b85788612556565b9091503d90816101a051823e6127688282613223565b60208183810103126103b85780516001600160401b0381116103b8576127919282019101613685565b908a6124dd565b905060203d81116127c4575b6127ae8183613223565b60208260009281010312610eb45750518961249c565b503d6127a4565b6101a0516127d891613223565b6101a0516103b8578861245e565b6101a0516127f391613223565b6101a0516103b85788612408565b6101a05161280e91613223565b6101a0516103b857876123a5565b6128288160e0516137e8565b5160405163fbc6da7560e01b81526004810182905261016051602090829060249082906001600160a01b03165afa801561032c5782916101a051916129c2575b5061288a916040918251938492839263910048fb60e01b845260048401613b83565b03816101a05160018060a01b0360a051165af190811561032c576101a05191612992575b5061291c575b610120516001600160a01b03163b156103b857604051634e8eb8bd60e01b81526101a08051600483019390935260056024830152426044830152516101205191929183916064918391906001600160a01b03165af1801561032c576126ad57506001906121a4565b610160516001600160a01b03163b156103b8576040516346f32a5d60e11b815260048101829052600660248201526101a051610160518290604490829084906001600160a01b03165af1801561032c57612977575b506128b4565b6101a05161298491613223565b6101a0516103b85788612971565b6129b3915060403d81116129bb575b6129ab8183613223565b810190613809565b9050896128ae565b503d6129a1565b9150506020813d82116129fc575b816129dd60209383613223565b810103126103b8576040826129f461288a936132d2565b915091612868565b3d91506129d0565b905060203d8111612a30575b612a1a8183613223565b60208260009281010312610eb457505188612345565b503d612a10565b600190611f17565b612a57915060203d8111610d3b57610d2d8183613223565b886122f0565b509091929394611e0d565b3d806101a051610140513e612a808161014051613223565b6102a0516101405182810103126103b857612a9d610140516137fc565b5060406101405101516001600160401b0381116103b85761014051612ac59281019101613628565b60e052611ef1565b610160516001600160a01b03163b156103b8576040516346f32a5d60e11b81526004803590820152612b02602482018661317f565b6101a051610160518290604490829084906001600160a01b03165af1801561032c57612b2f575b50611e07565b6101a051612b3c91613223565b6101a0516103b85787612b29565b90506102ed57600c84141582611e01565b90506102ed57600d84141582611dfb565b506101a05191506006841415611df4565b6101a051612b8a91613223565b6101a0516103b85785611ddb565b610120516001600160a01b03163b156103b857604051634e8eb8bd60e01b81526101a0805160048035908401526005602484015242604484015290516101205183916064918391906001600160a01b03165af1801561032c57612bfc575b50611ddd565b6101a051612c0991613223565b6101a0516103b85785612bf6565b6001600160a01b03612c27614b1d565b1691602061016061024051019360a4855160018060a01b03865116928487015160405196879586946326315d3160e21b8652600435600487015260248601526044850152606484015260848301526101a051905af1801561032c57612d01575b506001600160a01b03612c98614b83565b169060018060a01b039051169151813b156103b85760405192630a959f2360e31b8452600484015260248301526004356044830152816064816101a051936101a051905af1801561032c57612cee575b80611d76565b6101a051612cfb91613223565b86612ce8565b6020813d602011612d28575b81612d1a60209383613223565b810103126103b85751612c87565b3d9150612d0d565b60208601516001600160a01b0391612d4891906137e8565b51166102805289611d70565b945050509250503d91826101a051833e612d6e8383613223565b60e08284810103126103b8576006825110156103b857612d90602083016137fc565b90612d9d604084016137fc565b916102a05184015190600f8210156103b85760808501516001600160401b0381116103b857612dd3604091888801908801613685565b968601869003609f1901126103b85760c060405195612df187613208565b612dfd60a082016132d2565b875201516020860152929094939089611d63565b9050612e2c915060403d6040116129bb576129ab8183613223565b9086611c6a565b506060610240510151600f8110156102ed57600914611bc8565b506060610240510151600f8110156102ed57600a14611426565b506060610240510151600f8110156102ed57600e146111ef565b90503d806101a051833e612e958183613223565b8101906040818303126103b85780519160208201516001600160401b0381116103b857612ec29201613685565b6101e052846109a2565b6331fb878f60e01b6101a0515260046101a051fd5b612ef7903d806101a051833e61031e8183613223565b6102405281610912565b6020813d602011612f34575b81612f1a60209383613223565b810103126103b857612f2b906132d2565b60c052816108b8565b3d9150612f0d565b633ee5aeb560e01b6101a0515260046101a051fd5b346103b85760403660031901126103b857612f6a613155565b7fad857fa38c9319cb80848f1ef2f924383b90297eb5d71755738ff037d100faa16020612f95613170565b92612f9e613c19565b60018060a01b031692836101a0515260018252612fcd8160406101a051209060ff801983541691151516179055565b6040519015158152a26101a05180f35b346103b8576101a0513660031901126103b8576101a051546040516001600160a01b039091168152602090f35b346103b85760403660031901126103b8576004356001600160401b0381116103b857366023820112156103b85780600401356001600160401b0381116103b8576024820191602436918360051b0101116103b857613066613170565b61306e613c19565b6101a05190801515915b838110613086576101a05180f35b6001906001600160a01b036130a461309f83888a613298565b6132be565b166101a05152816020526130ca8360406101a051209060ff801983541691151516179055565b818060a01b036130de61309f83888a613298565b167fad857fa38c9319cb80848f1ef2f924383b90297eb5d71755738ff037d100faa16020604051878152a201613078565b346103b85760203660031901126103b857613128613155565b613130613c19565b6101a05180546001600160a01b0319166001600160a01b039290921691909117815580f35b600435906001600160a01b038216820361316b57565b600080fd5b60243590811515820361316b57565b90600f82101561318c5752565b634e487b7160e01b600052602160045260246000fd5b906020808351928381520192019060005b8181106131c05750505090565b82518452602093840193909201916001016131b3565b61016081019081106001600160401b038211176131f257604052565b634e487b7160e01b600052604160045260246000fd5b604081019081106001600160401b038211176131f257604052565b90601f801991011681019081106001600160401b038211176131f257604052565b6001600160401b0381116131f25760051b60200190565b906020808351928381520192019060005b8181106132795750505090565b82516001600160a01b031684526020938401939092019160010161326c565b91908110156132a85760051b0190565b634e487b7160e01b600052603260045260246000fd5b356001600160a01b038116810361316b5790565b51906001600160a01b038216820361316b57565b60005b8381106132f95750506000910152565b81810151838201526020016132e9565b81601f8201121561316b5780516001600160401b0381116131f2576040519261333c601f8301601f191660200185613223565b8184526020828401011161316b5761335a91602080850191016132e6565b90565b60208183031261316b578051906001600160401b03821161316b57016102e08183031261316b57604051916102e083018381106001600160401b038211176131f2576040528151600681101561316b5783526020820151600581101561316b5760208401526040820151600f81101561316b5760408401526060820151600f81101561316b5760608401526133f4608083016132d2565b608084015261340560a083016132d2565b60a084015261341660c083016132d2565b60c084015261342760e083016132d2565b60e08401526101008201516101008401526101208201516101208401526101408201516101408401526101608201516101608401526101808201516101808401526101a08201516101a08401526101c08201516101c08401526101e08201516101e08401526102008201516001600160401b03811161316b57816134ac918401613309565b6102008401526102208201516001600160401b03811161316b57816134d2918401613309565b6102208401526102408201516001600160401b03811161316b57820181601f8201121561316b5780519061350582613244565b926135136040519485613223565b8284526020606081860194028301019181831161316b57602001925b8284106135745750505050906102c0916102408401526102608101516102608401526102808101516102808401526102a08101516102a084015201516102c082015290565b60608483031261316b576040519060608201908282106001600160401b038311176131f2576060926020926040528651815282870151838201526040870151604082015281520193019261352f565b9080601f8301121561316b5781516135da81613244565b926135e86040519485613223565b81845260208085019260051b82010192831161316b57602001905b8282106136105750505090565b6020809161361d846132d2565b815201910190613603565b9080601f8301121561316b57815161363f81613244565b9261364d6040519485613223565b81845260208085019260051b82010192831161316b57602001905b8282106136755750505090565b8151815260209182019101613668565b91906101608382031261316b576040519061369f826131d6565b8193805183526020810151602084015260408101516040840152606081015160608401526080810151608084015260a081015160a084015260c0810151600681101561316b5760c084015260e08101516001600160401b03811161316b57826137099183016135c3565b60e08401526101008101516001600160401b03811161316b57810182601f8201121561316b57805161373a81613244565b916137486040519384613223565b81835260208084019260051b8201019085821161316b57602001915b8183106137c2575050506101008401526101208101516001600160401b03811161316b5782613794918301613628565b610120840152610140810151916001600160401b03831161316b57610140926137bd9201613628565b910152565b8251600581101561316b57815260209283019201613764565b8051156132a85760200190565b80518210156132a85760209160051b010190565b5190811515820361316b57565b919082604091031261316b5761335a6020835193016137fc565b90600682101561318c5752565b90600582101561318c5752565b90602091613856815180928185528580860191016132e6565b601f01601f1916010190565b9061386e818351613823565b61388060208301516020830190613830565b6138926040830151604083019061317f565b6138a46060830151606083019061317f565b60018060a01b03608083015116608082015260018060a01b0360a08301511660a082015260018060a01b0360c08301511660c082015260018060a01b0360e08301511660e08201526101008201516101008201526101208201516101208201526101408201516101408201526101608201516101608201526101808201516101808201526101a08201516101a08201526101c08201516101c08201526101e08201516101e082015261398061396c6102008401516102e06102008501526102e084019061383d565b61022084015183820361022085015261383d565b91610240810151928281036102408401526020808551928381520194019060005b8181106139dc575050506102c081610260829301516102608501526102808101516102808501526102a08101516102a0850152015191015290565b90919460206060600192604089518051835284810151858401520151604082015201960191019190916139a1565b919091805183526020810151602084015260408101516040840152606081015160608401526080810151608084015260a081015160a0840152613a5560c082015160c0850190613823565b613a7060e082015161016060e086015261016085019061325b565b92610100820151938181036101008301526020808651928381520195019060005b818110613acc57505050610140613aba61335a94956101208501518482036101208601526131a2565b920151906101408184039101526131a2565b90919560208082613ae06001948b51613830565b019701929101613a91565b90949360019360809360a084019784526020840152848060a01b0316604083015260608201520152565b91909160a08184031261316b57613b2b816137fc565b92613b38602083016137fc565b92613b45604084016132d2565b9260608101516001600160401b03811161316b5783613b65918301613628565b9260808201516001600160401b03811161316b5761335a9201613628565b6001600160a01b039091168152602081019190915260400190565b90613ba882613244565b613bb56040519182613223565b8281528092613bc6601f1991613244565b0190602036910137565b9081602091031261316b5751600f81101561316b5790565b600f82101561318c5752565b6000198114613c035760010190565b634e487b7160e01b600052601160045260246000fd5b600080516020614dbf833981519152546001600160a01b03163303613c3a57565b63118cdaa760e01b6000523360045260246000fd5b600054604051631bae711d60e21b815260206004820181905260126024830152712a3930b739b0b1ba34b7b726b0b730b3b2b960711b60448301529091829060649082906001600160a01b03165afa908115613cf457600091613cba575b506001600160a01b031690565b90506020813d602011613cec575b81613cd560209383613223565b8101031261316b57613ce6906132d2565b38613cad565b3d9150613cc8565b6040513d6000823e3d90fd5b600054604051631bae711d60e21b8152602060048201819052600860248301526749646c656e65737360c01b60448301529091829060649082906001600160a01b03165afa908115613cf457600091613cba57506001600160a01b031690565b600054604051631bae711d60e21b8152602060048201819052600660248301526551756575657360d01b60448301529091829060649082906001600160a01b03165afa908115613cf457600091613cba57506001600160a01b031690565b929190613dcb8451613b9e565b91600091825b8651811015613fc9576001600160a01b038216613dee82896137e8565b516040519063fbc6da7560e01b82526004820152602081602481855afa908115613cf457600091613f8a575b506040613e4791613e2b858c6137e8565b51825163910048fb60e01b815293849283929060048401613b83565b038160006001600160a01b038a165af1908115613cf457600091613f6a575b50613e75575b50600101613dd1565b613e8282899693966137e8565b51813b1561316b576000916044839260405194859384926346f32a5d60e11b84526004840152600660248401525af18015613cf457613f59575b506001600160a01b03613ecd613d00565b1690613ed985896137e8565b5191803b1561316b57604051634e8eb8bd60e01b81526004810193909352600560248401524260448401526000908390606490829084905af1908115613cf457600192613f4192613f48575b50613f30868a6137e8565b51613f3b82896137e8565b52613bf4565b9390613e6c565b6000613f5391613223565b38613f25565b6000613f6491613223565b38613ebc565b613f82915060403d81116129bb576129ab8183613223565b905038613e66565b906020823d8211613fc1575b81613fa360209383613223565b81010312610eb457506040613fba613e47926132d2565b9150613e1a565b3d9150613f96565b505050909250613fd881613b9e565b9260005b828110613fe857505050565b80613ff5600192846137e8565b5161400082886137e8565b5201613fdc565b600080516020614e1f83398151915280546001600160a01b0319908116909155600080516020614dbf83398151915280549182166001600160a01b0393841690811790915591167f8be0079c531659141344cd1fd0a4f28419497f9722a3daafe3b4186f6b6457e0600080a3565b60405163255709e560e11b8152600481018290529293926000906001600160a01b03841690828082602481865afa918215614298578492614b01575b5060608201978851600f811015614aed5715614ae25760c08301805160405163ecf55f8360e01b8152919a6001600160a01b03938416949390929160209183918291614103918d911660048401613b83565b0381875afa908115614532578791614aa7575b506004811015614843576002811480614a92575b80614a7d575b80614a68575b80614a53575b80614a3e575b61489357508051600f81101561484357600514801561487f575b801561486b575b8015614857575b801561482f575b156142ea5750509651604051637112610560e11b8152976020918991908290879082906141ac908b906001600160a01b031660048401613b83565b03925af19687156142df5783976142a3575b50866141cc575b5050505050565b813b15614294576040516346f32a5d60e11b81526004810185905260076024820152838160448183875af180156142985790849161427f575b505061016001928351823b1561427b579060448492836040519586948593634ff736eb60e11b8552600485015260248401525af180156142705761425b575b5050906142519151614be2565b38808080806141c5565b614266828092613223565b610eb45780614244565b6040513d84823e3d90fd5b8380fd5b8161428991613223565b614294578238614205565b8280fd5b6040513d86823e3d90fd5b9096506020813d6020116142d7575b816142bf60209383613223565b81010312614294576142d0906137fc565b95386141be565b3d91506142b2565b6040513d85823e3d90fd5b80999492959793919951600f811015614805576001036145655750908092939495969798503b15614556576040516346f32a5d60e11b81526004810187905260086024820152878160448183875af1801561455a57908891614541575b505061016001908151813b1561453d578791604483926040519485938492634ff736eb60e11b845260048401528b60248401525af1801561453257908791614519575b5050906143979151614be2565b8051604051634113628960e11b815290602090829081906143c69088906001600160a01b031660048401613b83565b0381865afa90811561450e5785916144d0575b50156144715751604051639c88381960e01b815293926020928592909183918691839161441391906001600160a01b031660048401613b83565b03925af1801561446457614429575b5050600190565b6020823d60201161445c575b8161444260209383613223565b81010312610eb45750614454906137fc565b503880614422565b3d9150614435565b50604051903d90823e3d90fd5b516001600160a01b0316813b1561427b579183916144a6938360405180968195829463e5d31ced60e01b845260048401613b83565b03925af18015614270576144bb575050600190565b6144c6828092613223565b610eb45780614422565b90506020813d602011614506575b816144eb60209383613223565b81010312614502576144fc906137fc565b386143d9565b8480fd5b3d91506144de565b6040513d87823e3d90fd5b8161452391613223565b61452e57853861438a565b8580fd5b6040513d89823e3d90fd5b8780fd5b8161454b91613223565b614556578638614347565b8680fd5b6040513d8a823e3d90fd5b8051600f81101561480557600214908115614819575b81156147ef575b81156147c6575b50614598575b50505050505050565b908092939495969798503b15614556576040516346f32a5d60e11b81526004810187905260066024820152878160448183875af1801561455a579088916147b1575b505061016001908151813b1561453d578791604483926040519485938492634ff736eb60e11b845260048401528b60248401525af180156145325790879161479c575b50509061462a9151614be2565b8051604051634113628960e11b815290602090829081906146599088906001600160a01b031660048401613b83565b0381865afa90811561450e578591614762575b50156147025751604051639c88381960e01b81529392602092859290918391869183916146a691906001600160a01b031660048401613b83565b03925af18015614464576146c7575b50505b6001903880808080808061458f565b6020823d6020116146fa575b816146e060209383613223565b81010312610eb457506146f2906137fc565b5038806146b5565b3d91506146d3565b516001600160a01b0316813b1561427b57918391614737938360405180968195829463e5d31ced60e01b845260048401613b83565b03925af180156142705761474d575b50506146b8565b614758828092613223565b610eb45780614746565b90506020813d602011614794575b8161477d60209383613223565b810103126145025761478e906137fc565b3861466c565b3d9150614770565b816147a691613223565b61452e57853861461d565b816147bb91613223565b6145565786386145da565b905051600f8110156147db57600e1438614589565b634e487b7160e01b88526021600452602488fd5b80915051600f8110156148055760041490614582565b634e487b7160e01b89526021600452602489fd5b80915051600f811015614805576003149061457b565b508051600f81101561484357600b14614171565b634e487b7160e01b87526021600452602487fd5b508051600f8110156148435760061461416a565b508051600f81101561484357600c14614163565b508051600f81101561484357600d1461415c565b96809894925060209195936148ca9a9b60018060a01b0390511688604051809d81958294637112610560e11b845260048401613b83565b03925af197881561450e578598614a02575b508761493f575b5050505190600f82101561492b579160ff6040927f09e6719c6be2621687c9eba22dc268e8dfa076cd01b5e411488d9dbd9e33d732945081845193168352166020820152a290565b634e487b7160e01b81526021600452602490fd5b813b15614502576040516346f32a5d60e11b81526004810188905260076024820152858160448183875af180156149f7576149e1575b5061016001908151813b1561452e578591604483926040519485938492634ff736eb60e11b845260048401528c60248401525af1801561450e579085916149cc575b5050906149c49151614be2565b3880806148e3565b816149d691613223565b61427b5783386149b7565b946149f0816101609397613223565b9490614975565b6040513d88823e3d90fd5b9097506020813d602011614a36575b81614a1e60209383613223565b8101031261450257614a2f906137fc565b96386148dc565b3d9150614a11565b508151600f8110156147db57600b1415614142565b508151600f8110156147db576006141561413c565b508151600f8110156147db57600c1415614136565b508151600f8110156147db57600d1415614130565b508151600f8110156147db576005141561412a565b90506020813d602011614ada575b81614ac260209383613223565b81010312614556575160048110156145565738614116565b3d9150614ab5565b509296505050505050565b634e487b7160e01b86526021600452602486fd5b614b169192503d8086833e61031e8183613223565b90386140b1565b600054604051631bae711d60e21b8152602060048201819052600e60248301526d151c9a589d5b985b105c1c19585b60921b60448301529091829060649082906001600160a01b03165afa908115613cf457600091613cba57506001600160a01b031690565b600054604051631bae711d60e21b815260206004820181905260076024830152665374616b696e6760c81b60448301529091829060649082906001600160a01b03165afa908115613cf457600091613cba57506001600160a01b031690565b90614beb614b83565b60405163900cf0cf60e01b81526000936001600160a01b039092169290602081600481875afa90811561450e578591614d5e575b50821015614d58576040516315fffa8d60e01b81526004810183905290602090829060249082906001600160a01b03165afa908115614298578491614d26575b50614d215760206001600160a01b03614c76614b1d565b1691602460405180948193634d66354560e11b835260048301525afa9081156142df578391614ce7575b50614ce357803b15614cdf578180916004604051809481936333d98b0560e21b83525af1801561427057614cd2575050565b81614cdc91613223565b50565b5080fd5b5050565b90506020813d602011614d19575b81614d0260209383613223565b8101031261429457614d13906137fc565b38614ca0565b3d9150614cf5565b505050565b90506020813d602011614d50575b81614d4160209383613223565b8101031261427b575138614c5f565b3d9150614d34565b50505050565b90506020813d602011614d88575b81614d7960209383613223565b81010312614502575138614c1f565b3d9150614d6c565b60ff600080516020614dff8339815191525460401c1615614dad57565b631afcd79f60e31b60005260046000fdfe9016d09d72d40fdae2fd8ceac6b6234c7706214fd39c1cd1e609a0528c1993009b779b17422d0df92223018b32b4d1fa46e071723d6817e2486d003becc55f00f0c57e16840df040f15088dc2f81fe391c3923bec73e23a9662efc9c229c6a00237e158222e3e6968b72b9db0d8043aacf074ad9f650f0d1606b4d82ee432c00a264697066735822122017b89438303f45b9ebfaf4f60e73ed2b2aeda39948c5ac52d5a1ad03ada0830864736f6c634300081c0033",
  "linkReferences": {},
  "deployedLinkReferences": {}
}