{
  "_format": "hh-sol-artifact-1",
  "contractName": "StakingValidators",
  "sourceName": "contracts/staking/StakingValidators.sol",
  "abi": [
    {
      "inputs": [],
      "name": "AccessControlBadConfirmation",
      "type": "error"
    },
    {
      "inputs": [
        {
          "internalType": "address",
          "name": "account",
          "type": "address"
        },
        {
          "internalType": "bytes32",
          "name": "neededRole",
          "type": "bytes32"
        }
      ],
      "name": "AccessControlUnauthorizedAccount",
      "type": "error"
    },
    {
      "inputs": [
        {
          "internalType": "address",
          "name": "validator",
          "type": "address"
        }
      ],
      "name": "FailedTransfer",
      "type": "error"
    },
    {
      "inputs": [],
      "name": "InvalidInitialization",
      "type": "error"
    },
    {
      "inputs": [],
      "name": "InvalidOperatorAddress",
      "type": "error"
    },
    {
      "inputs": [],
      "name": "MaxNumberOfValidatorsReached",
      "type": "error"
    },
    {
      "inputs": [],
      "name": "NotInitializing",
      "type": "error"
    },
    {
      "inputs": [],
      "name": "OperatorAlreadyAssigned",
      "type": "error"
    },
    {
      "inputs": [
        {
          "internalType": "address",
          "name": "owner",
          "type": "address"
        }
      ],
      "name": "OwnableInvalidOwner",
      "type": "error"
    },
    {
      "inputs": [
        {
          "internalType": "address",
          "name": "account",
          "type": "address"
        }
      ],
      "name": "OwnableUnauthorizedAccount",
      "type": "error"
    },
    {
      "inputs": [],
      "name": "ReentrancyGuardReentrantCall",
      "type": "error"
    },
    {
      "inputs": [],
      "name": "ValidatorBelowMinimumStake",
      "type": "error"
    },
    {
      "inputs": [],
      "name": "ValidatorMayNotDepositZeroValue",
      "type": "error"
    },
    {
      "anonymous": false,
      "inputs": [
        {
          "indexed": false,
          "internalType": "uint64",
          "name": "version",
          "type": "uint64"
        }
      ],
      "name": "Initialized",
      "type": "event"
    },
    {
      "anonymous": false,
      "inputs": [
        {
          "indexed": true,
          "internalType": "address",
          "name": "previousOwner",
          "type": "address"
        },
        {
          "indexed": true,
          "internalType": "address",
          "name": "newOwner",
          "type": "address"
        }
      ],
      "name": "OwnershipTransferStarted",
      "type": "event"
    },
    {
      "anonymous": false,
      "inputs": [
        {
          "indexed": true,
          "internalType": "address",
          "name": "previousOwner",
          "type": "address"
        },
        {
          "indexed": true,
          "internalType": "address",
          "name": "newOwner",
          "type": "address"
        }
      ],
      "name": "OwnershipTransferred",
      "type": "event"
    },
    {
      "anonymous": false,
      "inputs": [
        {
          "indexed": true,
          "internalType": "bytes32",
          "name": "role",
          "type": "bytes32"
        },
        {
          "indexed": true,
          "internalType": "bytes32",
          "name": "previousAdminRole",
          "type": "bytes32"
        },
        {
          "indexed": true,
          "internalType": "bytes32",
          "name": "newAdminRole",
          "type": "bytes32"
        }
      ],
      "name": "RoleAdminChanged",
      "type": "event"
    },
    {
      "anonymous": false,
      "inputs": [
        {
          "indexed": true,
          "internalType": "bytes32",
          "name": "role",
          "type": "bytes32"
        },
        {
          "indexed": true,
          "internalType": "address",
          "name": "account",
          "type": "address"
        },
        {
          "indexed": true,
          "internalType": "address",
          "name": "sender",
          "type": "address"
        }
      ],
      "name": "RoleGranted",
      "type": "event"
    },
    {
      "anonymous": false,
      "inputs": [
        {
          "indexed": true,
          "internalType": "bytes32",
          "name": "role",
          "type": "bytes32"
        },
        {
          "indexed": true,
          "internalType": "address",
          "name": "account",
          "type": "address"
        },
        {
          "indexed": true,
          "internalType": "address",
          "name": "sender",
          "type": "address"
        }
      ],
      "name": "RoleRevoked",
      "type": "event"
    },
    {
      "anonymous": false,
      "inputs": [
        {
          "indexed": true,
          "internalType": "address",
          "name": "validator",
          "type": "address"
        }
      ],
      "name": "ValidatorIsAlreadyInTree",
      "type": "event"
    },
    {
      "anonymous": false,
      "inputs": [
        {
          "indexed": true,
          "internalType": "address",
          "name": "validator",
          "type": "address"
        }
      ],
      "name": "ValidatorIsNotInTree",
      "type": "event"
    },
    {
      "anonymous": false,
      "inputs": [
        {
          "indexed": false,
          "internalType": "address",
          "name": "operator",
          "type": "address"
        },
        {
          "indexed": false,
          "internalType": "address",
          "name": "validator",
          "type": "address"
        },
        {
          "indexed": false,
          "internalType": "uint256",
          "name": "amount",
          "type": "uint256"
        }
      ],
      "name": "ValidatorJoin",
      "type": "event"
    },
    {
      "inputs": [],
      "name": "DEFAULT_ADMIN_ROLE",
      "outputs": [
        {
          "internalType": "bytes32",
          "name": "",
          "type": "bytes32"
        }
      ],
      "stateMutability": "view",
      "type": "function"
    },
    {
      "inputs": [],
      "name": "DEFAULT_DELEGATOR_MIN_STAKE",
      "outputs": [
        {
          "internalType": "uint256",
          "name": "",
          "type": "uint256"
        }
      ],
      "stateMutability": "view",
      "type": "function"
    },
    {
      "inputs": [],
      "name": "DEFAULT_VALIDATOR_MIN_STAKE",
      "outputs": [
        {
          "internalType": "uint256",
          "name": "",
          "type": "uint256"
        }
      ],
      "stateMutability": "view",
      "type": "function"
    },
    {
      "inputs": [],
      "name": "DELEGATOR_UNBONDING_PERIOD",
      "outputs": [
        {
          "internalType": "uint256",
          "name": "",
          "type": "uint256"
        }
      ],
      "stateMutability": "view",
      "type": "function"
    },
    {
      "inputs": [],
      "name": "INFLATION_BASE",
      "outputs": [
        {
          "internalType": "uint256",
          "name": "",
          "type": "uint256"
        }
      ],
      "stateMutability": "view",
      "type": "function"
    },
    {
      "inputs": [],
      "name": "INFLATION_DEEPTHOUGHT_BPS",
      "outputs": [
        {
          "internalType": "uint256",
          "name": "",
          "type": "uint256"
        }
      ],
      "stateMutability": "view",
      "type": "function"
    },
    {
      "inputs": [],
      "name": "INFLATION_DEVELOPER_BPS",
      "outputs": [
        {
          "internalType": "uint256",
          "name": "",
          "type": "uint256"
        }
      ],
      "stateMutability": "view",
      "type": "function"
    },
    {
      "inputs": [],
      "name": "INFLATION_FINAL",
      "outputs": [
        {
          "internalType": "uint256",
          "name": "",
          "type": "uint256"
        }
      ],
      "stateMutability": "view",
      "type": "function"
    },
    {
      "inputs": [],
      "name": "INFLATION_INITIAL",
      "outputs": [
        {
          "internalType": "uint256",
          "name": "",
          "type": "uint256"
        }
      ],
      "stateMutability": "view",
      "type": "function"
    },
    {
      "inputs": [],
      "name": "INFLATION_MID",
      "outputs": [
        {
          "internalType": "int256",
          "name": "",
          "type": "int256"
        }
      ],
      "stateMutability": "view",
      "type": "function"
    },
    {
      "inputs": [],
      "name": "INFLATION_STAKER_BPS",
      "outputs": [
        {
          "internalType": "uint256",
          "name": "",
          "type": "uint256"
        }
      ],
      "stateMutability": "view",
      "type": "function"
    },
    {
      "inputs": [],
      "name": "INFLATION_STEEPNESS",
      "outputs": [
        {
          "internalType": "int256",
          "name": "",
          "type": "int256"
        }
      ],
      "stateMutability": "view",
      "type": "function"
    },
    {
      "inputs": [],
      "name": "INFLATION_VALIDATOR_BPS",
      "outputs": [
        {
          "internalType": "uint256",
          "name": "",
          "type": "uint256"
        }
      ],
      "stateMutability": "view",
      "type": "function"
    },
    {
      "inputs": [],
      "name": "L1_MESSENGER",
      "outputs": [
        {
          "internalType": "contract IL1Messenger",
          "name": "",
          "type": "address"
        }
      ],
      "stateMutability": "view",
      "type": "function"
    },
    {
      "inputs": [],
      "name": "QUARANTINE_MANAGER_ROLE",
      "outputs": [
        {
          "internalType": "bytes32",
          "name": "",
          "type": "bytes32"
        }
      ],
      "stateMutability": "view",
      "type": "function"
    },
    {
      "inputs": [],
      "name": "SLASH_CALLER_INCENTIVE_BPS",
      "outputs": [
        {
          "internalType": "uint256",
          "name": "",
          "type": "uint256"
        }
      ],
      "stateMutability": "view",
      "type": "function"
    },
    {
      "inputs": [],
      "name": "VALIDATOR_UNBONDING_PERIOD",
      "outputs": [
        {
          "internalType": "uint256",
          "name": "",
          "type": "uint256"
        }
      ],
      "stateMutability": "view",
      "type": "function"
    },
    {
      "inputs": [],
      "name": "acceptOwnership",
      "outputs": [],
      "stateMutability": "nonpayable",
      "type": "function"
    },
    {
      "inputs": [],
      "name": "addressManager",
      "outputs": [
        {
          "internalType": "contract IAddressManager",
          "name": "",
          "type": "address"
        }
      ],
      "stateMutability": "view",
      "type": "function"
    },
    {
      "inputs": [],
      "name": "burning",
      "outputs": [
        {
          "internalType": "uint256",
          "name": "",
          "type": "uint256"
        }
      ],
      "stateMutability": "view",
      "type": "function"
    },
    {
      "inputs": [],
      "name": "deepthought",
      "outputs": [
        {
          "internalType": "address payable",
          "name": "",
          "type": "address"
        }
      ],
      "stateMutability": "view",
      "type": "function"
    },
    {
      "inputs": [],
      "name": "delegatorMinStake",
      "outputs": [
        {
          "internalType": "uint256",
          "name": "",
          "type": "uint256"
        }
      ],
      "stateMutability": "view",
      "type": "function"
    },
    {
      "inputs": [],
      "name": "epoch",
      "outputs": [
        {
          "internalType": "uint256",
          "name": "",
          "type": "uint256"
        }
      ],
      "stateMutability": "view",
      "type": "function"
    },
    {
      "inputs": [],
      "name": "epochEven",
      "outputs": [
        {
          "internalType": "uint256",
          "name": "start",
          "type": "uint256"
        },
        {
          "internalType": "uint256",
          "name": "end",
          "type": "uint256"
        },
        {
          "internalType": "uint256",
          "name": "inflation",
          "type": "uint256"
        },
        {
          "internalType": "uint256",
          "name": "weight",
          "type": "uint256"
        },
        {
          "internalType": "uint256",
          "name": "weightDeposit",
          "type": "uint256"
        },
        {
          "internalType": "uint256",
          "name": "weightWithdrawal",
          "type": "uint256"
        },
        {
          "internalType": "uint256",
          "name": "vcount",
          "type": "uint256"
        },
        {
          "internalType": "uint256",
          "name": "claimed",
          "type": "uint256"
        },
        {
          "internalType": "uint256",
          "name": "stakeDeposit",
          "type": "uint256"
        },
        {
          "internalType": "uint256",
          "name": "stakeWithdrawal",
          "type": "uint256"
        },
        {
          "internalType": "uint256",
          "name": "slashed",
          "type": "uint256"
        }
      ],
      "stateMutability": "view",
      "type": "function"
    },
    {
      "inputs": [],
      "name": "epochExtraMinDuration",
      "outputs": [
        {
          "internalType": "uint256",
          "name": "",
          "type": "uint256"
        }
      ],
      "stateMutability": "view",
      "type": "function"
    },
    {
      "inputs": [],
      "name": "epochMinDuration",
      "outputs": [
        {
          "internalType": "uint256",
          "name": "",
          "type": "uint256"
        }
      ],
      "stateMutability": "view",
      "type": "function"
    },
    {
      "inputs": [],
      "name": "epochMinDurationThreshold",
      "outputs": [
        {
          "internalType": "uint256",
          "name": "",
          "type": "uint256"
        }
      ],
      "stateMutability": "view",
      "type": "function"
    },
    {
      "inputs": [],
      "name": "epochOdd",
      "outputs": [
        {
          "internalType": "uint256",
          "name": "start",
          "type": "uint256"
        },
        {
          "internalType": "uint256",
          "name": "end",
          "type": "uint256"
        },
        {
          "internalType": "uint256",
          "name": "inflation",
          "type": "uint256"
        },
        {
          "internalType": "uint256",
          "name": "weight",
          "type": "uint256"
        },
        {
          "internalType": "uint256",
          "name": "weightDeposit",
          "type": "uint256"
        },
        {
          "internalType": "uint256",
          "name": "weightWithdrawal",
          "type": "uint256"
        },
        {
          "internalType": "uint256",
          "name": "vcount",
          "type": "uint256"
        },
        {
          "internalType": "uint256",
          "name": "claimed",
          "type": "uint256"
        },
        {
          "internalType": "uint256",
          "name": "stakeDeposit",
          "type": "uint256"
        },
        {
          "internalType": "uint256",
          "name": "stakeWithdrawal",
          "type": "uint256"
        },
        {
          "internalType": "uint256",
          "name": "slashed",
          "type": "uint256"
        }
      ],
      "stateMutability": "view",
      "type": "function"
    },
    {
      "inputs": [],
      "name": "epochZeroMinDuration",
      "outputs": [
        {
          "internalType": "uint256",
          "name": "",
          "type": "uint256"
        }
      ],
      "stateMutability": "view",
      "type": "function"
    },
    {
      "inputs": [],
      "name": "finalizationPhaseAddress",
      "outputs": [
        {
          "internalType": "address",
          "name": "",
          "type": "address"
        }
      ],
      "stateMutability": "view",
      "type": "function"
    },
    {
      "inputs": [],
      "name": "finalized",
      "outputs": [
        {
          "internalType": "uint256",
          "name": "",
          "type": "uint256"
        }
      ],
      "stateMutability": "view",
      "type": "function"
    },
    {
      "inputs": [
        {
          "internalType": "bytes32",
          "name": "role",
          "type": "bytes32"
        }
      ],
      "name": "getRoleAdmin",
      "outputs": [
        {
          "internalType": "bytes32",
          "name": "",
          "type": "bytes32"
        }
      ],
      "stateMutability": "view",
      "type": "function"
    },
    {
      "inputs": [
        {
          "internalType": "bytes32",
          "name": "role",
          "type": "bytes32"
        },
        {
          "internalType": "address",
          "name": "account",
          "type": "address"
        }
      ],
      "name": "grantRole",
      "outputs": [],
      "stateMutability": "nonpayable",
      "type": "function"
    },
    {
      "inputs": [
        {
          "internalType": "bytes32",
          "name": "role",
          "type": "bytes32"
        },
        {
          "internalType": "address",
          "name": "account",
          "type": "address"
        }
      ],
      "name": "hasRole",
      "outputs": [
        {
          "internalType": "bool",
          "name": "",
          "type": "bool"
        }
      ],
      "stateMutability": "view",
      "type": "function"
    },
    {
      "inputs": [],
      "name": "idlenessPhaseAddress",
      "outputs": [
        {
          "internalType": "address",
          "name": "",
          "type": "address"
        }
      ],
      "stateMutability": "view",
      "type": "function"
    },
    {
      "inputs": [],
      "name": "inflationEpoch",
      "outputs": [
        {
          "internalType": "uint256",
          "name": "",
          "type": "uint256"
        }
      ],
      "stateMutability": "view",
      "type": "function"
    },
    {
      "inputs": [],
      "name": "inflationRequestThreshold",
      "outputs": [
        {
          "internalType": "uint256",
          "name": "",
          "type": "uint256"
        }
      ],
      "stateMutability": "view",
      "type": "function"
    },
    {
      "inputs": [
        {
          "internalType": "uint256",
          "name": "",
          "type": "uint256"
        }
      ],
      "name": "inflationRequested",
      "outputs": [
        {
          "internalType": "bool",
          "name": "",
          "type": "bool"
        }
      ],
      "stateMutability": "view",
      "type": "function"
    },
    {
      "inputs": [],
      "name": "inflationSupply",
      "outputs": [
        {
          "internalType": "uint256",
          "name": "",
          "type": "uint256"
        }
      ],
      "stateMutability": "view",
      "type": "function"
    },
    {
      "inputs": [],
      "name": "inflationTargetAhead",
      "outputs": [
        {
          "internalType": "uint256",
          "name": "",
          "type": "uint256"
        }
      ],
      "stateMutability": "view",
      "type": "function"
    },
    {
      "inputs": [],
      "name": "l2GasLimit",
      "outputs": [
        {
          "internalType": "uint256",
          "name": "",
          "type": "uint256"
        }
      ],
      "stateMutability": "view",
      "type": "function"
    },
    {
      "inputs": [],
      "name": "l2GasPrice",
      "outputs": [
        {
          "internalType": "uint256",
          "name": "",
          "type": "uint256"
        }
      ],
      "stateMutability": "view",
      "type": "function"
    },
    {
      "inputs": [],
      "name": "maxValidators",
      "outputs": [
        {
          "internalType": "uint256",
          "name": "",
          "type": "uint256"
        }
      ],
      "stateMutability": "view",
      "type": "function"
    },
    {
      "inputs": [
        {
          "internalType": "address",
          "name": "",
          "type": "address"
        }
      ],
      "name": "operatorsToValidators",
      "outputs": [
        {
          "internalType": "address",
          "name": "",
          "type": "address"
        }
      ],
      "stateMutability": "view",
      "type": "function"
    },
    {
      "inputs": [],
      "name": "owner",
      "outputs": [
        {
          "internalType": "address",
          "name": "",
          "type": "address"
        }
      ],
      "stateMutability": "view",
      "type": "function"
    },
    {
      "inputs": [],
      "name": "pendingOwner",
      "outputs": [
        {
          "internalType": "address",
          "name": "",
          "type": "address"
        }
      ],
      "stateMutability": "view",
      "type": "function"
    },
    {
      "inputs": [],
      "name": "pendingRequestInflationFromL1",
      "outputs": [
        {
          "internalType": "bool",
          "name": "",
          "type": "bool"
        }
      ],
      "stateMutability": "view",
      "type": "function"
    },
    {
      "inputs": [],
      "name": "reductionFactor",
      "outputs": [
        {
          "internalType": "uint256",
          "name": "",
          "type": "uint256"
        }
      ],
      "stateMutability": "view",
      "type": "function"
    },
    {
      "inputs": [],
      "name": "renounceOwnership",
      "outputs": [],
      "stateMutability": "nonpayable",
      "type": "function"
    },
    {
      "inputs": [
        {
          "internalType": "bytes32",
          "name": "role",
          "type": "bytes32"
        },
        {
          "internalType": "address",
          "name": "callerConfirmation",
          "type": "address"
        }
      ],
      "name": "renounceRole",
      "outputs": [],
      "stateMutability": "nonpayable",
      "type": "function"
    },
    {
      "inputs": [],
      "name": "revealingPhaseAddress",
      "outputs": [
        {
          "internalType": "address",
          "name": "",
          "type": "address"
        }
      ],
      "stateMutability": "view",
      "type": "function"
    },
    {
      "inputs": [
        {
          "internalType": "bytes32",
          "name": "role",
          "type": "bytes32"
        },
        {
          "internalType": "address",
          "name": "account",
          "type": "address"
        }
      ],
      "name": "revokeRole",
      "outputs": [],
      "stateMutability": "nonpayable",
      "type": "function"
    },
    {
      "inputs": [],
      "name": "stakingInvariant",
      "outputs": [
        {
          "internalType": "address",
          "name": "",
          "type": "address"
        }
      ],
      "stateMutability": "view",
      "type": "function"
    },
    {
      "inputs": [
        {
          "internalType": "bytes4",
          "name": "interfaceId",
          "type": "bytes4"
        }
      ],
      "name": "supportsInterface",
      "outputs": [
        {
          "internalType": "bool",
          "name": "",
          "type": "bool"
        }
      ],
      "stateMutability": "view",
      "type": "function"
    },
    {
      "inputs": [],
      "name": "transactionFeesManager",
      "outputs": [
        {
          "internalType": "address",
          "name": "",
          "type": "address"
        }
      ],
      "stateMutability": "view",
      "type": "function"
    },
    {
      "inputs": [
        {
          "internalType": "address",
          "name": "newOwner",
          "type": "address"
        }
      ],
      "name": "transferOwnership",
      "outputs": [],
      "stateMutability": "nonpayable",
      "type": "function"
    },
    {
      "inputs": [
        {
          "internalType": "address",
          "name": "_validator",
          "type": "address"
        }
      ],
      "name": "validatorClaim",
      "outputs": [
        {
          "internalType": "uint256",
          "name": "",
          "type": "uint256"
        }
      ],
      "stateMutability": "nonpayable",
      "type": "function"
    },
    {
      "inputs": [
        {
          "internalType": "address",
          "name": "_validator",
          "type": "address"
        }
      ],
      "name": "validatorClean",
      "outputs": [],
      "stateMutability": "nonpayable",
      "type": "function"
    },
    {
      "inputs": [],
      "name": "validatorDeposit",
      "outputs": [],
      "stateMutability": "payable",
      "type": "function"
    },
    {
      "inputs": [
        {
          "internalType": "uint256",
          "name": "_sharesWithdrawal",
          "type": "uint256"
        }
      ],
      "name": "validatorExit",
      "outputs": [],
      "stateMutability": "nonpayable",
      "type": "function"
    },
    {
      "inputs": [
        {
          "internalType": "address",
          "name": "validatorAddress",
          "type": "address"
        }
      ],
      "name": "validatorInsertedInTree",
      "outputs": [
        {
          "internalType": "uint256",
          "name": "timestamp",
          "type": "uint256"
        }
      ],
      "stateMutability": "view",
      "type": "function"
    },
    {
      "inputs": [
        {
          "internalType": "address",
          "name": "_operator",
          "type": "address"
        }
      ],
      "name": "validatorJoin",
      "outputs": [
        {
          "internalType": "address",
          "name": "validator",
          "type": "address"
        }
      ],
      "stateMutability": "payable",
      "type": "function"
    },
    {
      "inputs": [],
      "name": "validatorJoin",
      "outputs": [
        {
          "internalType": "address",
          "name": "validator",
          "type": "address"
        }
      ],
      "stateMutability": "payable",
      "type": "function"
    },
    {
      "inputs": [],
      "name": "validatorMinStake",
      "outputs": [
        {
          "internalType": "uint256",
          "name": "",
          "type": "uint256"
        }
      ],
      "stateMutability": "view",
      "type": "function"
    },
    {
      "inputs": [
        {
          "internalType": "address",
          "name": "_validator",
          "type": "address"
        }
      ],
      "name": "validatorPrime",
      "outputs": [],
      "stateMutability": "nonpayable",
      "type": "function"
    },
    {
      "inputs": [
        {
          "internalType": "address",
          "name": "validatorAddress",
          "type": "address"
        }
      ],
      "name": "validatorRemovedFromTheTree",
      "outputs": [
        {
          "internalType": "uint256",
          "name": "timestamp",
          "type": "uint256"
        }
      ],
      "stateMutability": "view",
      "type": "function"
    },
    {
      "inputs": [
        {
          "internalType": "uint256",
          "name": "",
          "type": "uint256"
        }
      ],
      "name": "validatorsEven",
      "outputs": [
        {
          "internalType": "address",
          "name": "",
          "type": "address"
        }
      ],
      "stateMutability": "view",
      "type": "function"
    },
    {
      "inputs": [
        {
          "internalType": "uint256",
          "name": "",
          "type": "uint256"
        }
      ],
      "name": "validatorsJoined",
      "outputs": [
        {
          "internalType": "address",
          "name": "",
          "type": "address"
        }
      ],
      "stateMutability": "view",
      "type": "function"
    },
    {
      "inputs": [
        {
          "internalType": "uint256",
          "name": "",
          "type": "uint256"
        }
      ],
      "name": "validatorsOdd",
      "outputs": [
        {
          "internalType": "address",
          "name": "",
          "type": "address"
        }
      ],
      "stateMutability": "view",
      "type": "function"
    },
    {
      "inputs": [
        {
          "internalType": "uint256",
          "name": "",
          "type": "uint256"
        }
      ],
      "name": "weightsEven",
      "outputs": [
        {
          "internalType": "uint256",
          "name": "",
          "type": "uint256"
        }
      ],
      "stateMutability": "view",
      "type": "function"
    },
    {
      "inputs": [
        {
          "internalType": "uint256",
          "name": "",
          "type": "uint256"
        }
      ],
      "name": "weightsOdd",
      "outputs": [
        {
          "internalType": "uint256",
          "name": "",
          "type": "uint256"
        }
      ],
      "stateMutability": "view",
      "type": "function"
    }
  ],
  "bytecode": "0x608080604052346015576125bf908161001b8239f35b600080fdfe6080604052600436101561001257600080fd5b60003560e01c806301fe0a781461048257806301ffc9a71461047d57806308ac5256146104785780630a3cfb13146104735780630ab07e881461046e5780631538faf21461046957806318a3b882146104645780631bc2359a1461045f578063217fcc3e146103ce5780632272e0ab1461045a57806324147f671461045557806324840a5e14610450578063248a9ca31461044b57806326ed4c70146104465780632f2ff15d1461044157806330ebe4681461043c57806331b9e1111461043757806336568abe146104325780633ab76e9f1461042d5780633fde6d7b1461042857806344aa3ded146104235780634971ec021461041e5780634c12b33f146104195780634f2938fc14610414578063624a44851461040f5780636378eba31461040a57806367604d2714610405578063715018a614610400578063746e4ac7146103fb5780637492100f146103f6578063759f24f4146103f157806379084953146103ec57806379ba5097146103e75780637a5d2660146103e25780637e1233a9146103dd57806383772595146103d857806387e51da9146103d35780638b7e92a6146103ce5780638da5cb5b146103c9578063900cf0cf146103c4578063900fd9ce146103bf57806391d14854146103ba57806396be02a7146103b55780639ae36685146103b05780639d357fd8146103ab5780639e027604146103a6578063a01ebaa1146103a1578063a217fddf1461039c578063a8027c1014610397578063abfd6fa914610392578063ac78a04b1461038d578063b03df1f014610388578063b3f05b9714610383578063bc338e7f1461037e578063c0a604ad14610379578063c498c95b14610374578063cb17452f1461036f578063cd38347f1461036a578063cd85623514610365578063cf6e65b714610360578063d547741f1461035b578063d7ef354414610356578063da7a9b6a14610351578063de8eec641461034c578063e30c397814610347578063e3c6b0ca14610342578063f2fde38b1461033d578063f85683ef14610338578063fafebac514610333578063fb6fe7761461032e5763fe2761371461032957600080fd5b6115b1565b61155c565b611516565b6114ed565b611462565b611444565b61140e565b6113e5565b6113c7565b61139e565b61136a565b61134c565b61132e565b611307565b6112cc565b6112a7565b611289565b61126d565b61124f565b61120a565b6111ed565b6111c9565b6111a6565b61118a565b611166565b6110ce565b611091565b611073565b61102d565b610f7e565b610f33565b610f15565b610edf565b61063c565b610e8a565b610e6d565b610e50565b610e27565b610d86565b610cdb565b610aca565b610aa8565b610a5d565b6109eb565b6109cd565b6109af565b610991565b610968565b61094a565b610927565b6108ea565b6108cc565b6108a3565b610859565b610759565b610742565b610707565b6106e4565b6106be565b610695565b610677565b610659565b61061e565b6105f3565b6105d5565b6105b7565b610562565b610532565b6104d1565b61049d565b6001600160a01b0381160361049857565b600080fd5b60203660031901126104985760206104bf6004356104ba81610487565b611c32565b6040516001600160a01b039091168152f35b346104985760203660031901126104985760043563ffffffff60e01b811680910361049857602090637965db0b60e01b8114908115610516575b506040519015158152f35b6301ffc9a760e01b1490503861050b565b600091031261049857565b34610498576000366003190112610498576020600554604051908152f35b60209060031901126104985760043590565b346104985761057036610550565b602d5481101561049857602d6000527f4a2cc91ee622da3bc833a54c37ffcb6f3ec23b7793efc5eaf5e71b7b406c5c0601546040516001600160a01b039091168152602090f35b34610498576000366003190112610498576020601054604051908152f35b34610498576000366003190112610498576020604354604051908152f35b346104985761060136610550565b6000526052602052602060ff604060002054166040519015158152f35b34610498576000366003190112610498576020600254604051908152f35b346104985760003660031901126104985760206040516103e88152f35b34610498576000366003190112610498576020604154604051908152f35b34610498576000366003190112610498576020605154604051908152f35b34610498576000366003190112610498576044546040516001600160a01b039091168152602090f35b346104985760203660031901126104985760206106dc6004356115f2565b604051908152f35b3461049857600036600319011261049857602060ff605354166040519015158152f35b346104985760403660031901126104985761074060243560043561072a82610487565b61073b610736826115f2565b611e2f565b611e79565b005b60003660031901126104985760206104bf33611c32565b346104985760203660031901126104985760043561077681610487565b61077e611f27565b6001600160a01b031660009081526033602090815260408083206035835292819020604154601154925163dea8f17760e01b815260048101959095526024850191909152604484015260648301528160848173__$4c73b20894b72802355b5999003238f06e$__5af480156108545761082191600091610825575b50610811600160008051602061254a83398151915255565b6040519081529081906020820190565b0390f35b610847915060203d60201161084d575b61083f8183611629565b810190611650565b386107f9565b503d610835565b61165f565b346104985760403660031901126104985760043560243561087981610487565b336001600160a01b038216036108925761074091611f63565b63334bd91960e11b60005260046000fd5b34610498576000366003190112610498576047546040516001600160a01b039091168152602090f35b34610498576000366003190112610498576020600154604051908152f35b346104985760203660031901126104985760043561090781610487565b60018060a01b031660005260546020526020604060002054604051908152f35b34610498576000366003190112610498576020604051670214e8348c4f00008152f35b34610498576000366003190112610498576020601354604051908152f35b34610498576000366003190112610498576048546040516001600160a01b039091168152602090f35b34610498576000366003190112610498576020605054604051908152f35b34610498576000366003190112610498576020600054604051908152f35b34610498576000366003190112610498576020604054604051908152f35b3461049857600036600319011261049857610a04612008565b610a0c612029565b60008051602061250a83398151915280546001600160a01b031981169091556000906001600160a01b03167f8be0079c531659141344cd1fd0a4f28419497f9722a3daafe3b4186f6b6457e08280a3005b3461049857610a6b36610550565b602a5481101561049857602a6000527fbeced09521047d05b8960b7e7bcc1d1292cf3e4b2a6b63f48335cbde5f7545d20154604051908152602090f35b34610498576000366003190112610498576020604051668e1bc9bf0400008152f35b3461049857610ad836610550565b3360009081526054602052604090205415610cb0575b33600090815260336020908152604080832060359092529091209180610c3a575b60115415610bb55773__$4c73b20894b72802355b5999003238f06e$__60115493813b1561049857604051632aa32d3360e01b8152600481019490945260248401526044830191909152606482019290925290600090829060849082905af4801561085457610b9a575b505b3360009081526054602090815260408083204290556055909152812055005b80610ba96000610baf93611629565b80610527565b38610b79565b915073__$4c73b20894b72802355b5999003238f06e$__60435490803b156104985760405163b3650c2960e01b81526004810193909352602f6024840152604483019390935260146064830152608482015290600090829060a49082905af4801561085457610c25575b50610b7b565b80610ba96000610c3493611629565b38610c1f565b631bf3e0b160e21b600052604b602052610caa610c7f7f1833d0e3c78dd948e5564fdaaefca0c215ad86598ca579cb5e4c4de5e44474d05b546001600160a01b031690565b604051631bf3e0b160e21b60208201526024808201859052815290610ca5604483611629565b612048565b50610b0f565b337f2e14f290af428a5a55cda34cae7292c879249089067e8f114d99a62b2ea43d55600080a2610aee565b3461049857602036600319011261049857600435610cf881610487565b6001600160a01b03166000908152603360209081526040808320603590925290912060115490919073__$4c73b20894b72802355b5999003238f06e$__803b15610498576040516374e09f3960e01b815260048101939093526024830193909352604482015290600090829060649082905af4801561085457610d7757005b80610ba9600061074093611629565b346104985760003660031901126104985760008051602061256a83398151915254336001600160a01b0390911603610e1257610dc0612029565b60008051602061250a8339815191528054336001600160a01b0319821681179092556001600160a01b03167f8be0079c531659141344cd1fd0a4f28419497f9722a3daafe3b4186f6b6457e0600080a3005b63118cdaa760e01b6000523360045260246000fd5b34610498576000366003190112610498576049546040516001600160a01b039091168152602090f35b346104985760003660031901126104985760206040516180088152f35b34610498576000366003190112610498576020604051611d4c8152f35b3461049857610e9836610550565b602c5481101561049857602c6000527f7416c943b4a09859521022fd2e90eac0dd9026dad28fa317782a135f28a8609101546040516001600160a01b039091168152602090f35b346104985760003660031901126104985760008051602061250a833981519152546040516001600160a01b039091168152602090f35b34610498576000366003190112610498576020601154604051908152f35b3461049857610f4136610550565b602b5481101561049857602b6000527f11c44e4875b74d31ff9fd779bf2566af7bd15b87fc985d01f5094b89e3669e4f0154604051908152602090f35b3461049857604036600319011261049857602060ff610fd5602435600435610fa582610487565b60005260008051602061252a833981519152845260406000209060018060a01b0316600052602052604060002090565b54166040519015158152f35b979491926101409996939c9b9a9794919c6101608a019d8a5260208a015260408901526060880152608087015260a086015260c085015260e08401526101008301526101208201520152565b3461049857600036600319011261049857601f5460205490610821602154602254602354602454602554602654916027549360285495602954976040519b8c9b8c610fe1565b34610498576000366003190112610498576020604e54604051908152f35b34610498576020366003190112610498576004356110ae81610487565b60018060a01b031660005260556020526020604060002054604051908152f35b600036600319011261049857602460206001600160a01b036110ee61206f565b166040519283809263062fe1e160e41b82523360048301525afa90811561085457600091611137575b50156111265761074033612178565b63eb32d3bf60e01b60005260046000fd5b611159915060203d60201161115f575b6111518183611629565b810190611678565b38611117565b503d611147565b34610498576000366003190112610498576020604051684e1003b28d928000008152f35b3461049857600036600319011261049857602060405160008152f35b34610498576000366003190112610498576020604051660aa87bee537fff198152f35b34610498576000366003190112610498576020604051680246ddf979766800008152f35b346104985760003660031901126104985760206040516101f48152f35b346104985760203660031901126104985760043561122781610487565b60018060a01b03166000526034602052602060018060a01b0360406000205416604051908152f35b34610498576000366003190112610498576020601254604051908152f35b3461049857600036600319011261049857602060405160648152f35b34610498576000366003190112610498576020600f54604051908152f35b346104985760003660031901126104985760206040516908e4d3168276864000008152f35b346104985760003660031901126104985760206040517f155e7f76c52e49fe8308e62eabe3ce449c978443b7d8beb86992427229ec386f8152f35b346104985760003660031901126104985760206040516b0d92289838d21a99680000008152f35b34610498576000366003190112610498576020600454604051908152f35b34610498576000366003190112610498576020604f54604051908152f35b346104985760403660031901126104985761074060243560043561138d82610487565b611399610736826115f2565b611f63565b3461049857600036600319011261049857600e546040516001600160a01b039091168152602090f35b34610498576000366003190112610498576020604254604051908152f35b34610498576000366003190112610498576046546040516001600160a01b039091168152602090f35b346104985760003660031901126104985760008051602061256a833981519152546040516001600160a01b039091168152602090f35b34610498576000366003190112610498576020600354604051908152f35b346104985760203660031901126104985760043561147f81610487565b611487612008565b60008051602061256a83398151915280546001600160a01b0319166001600160a01b0392831690811790915560008051602061250a833981519152549091167f38d16b8cac22d99fc7c124b9cd0de2d3fa1faef420bfe791d8c362d765e22700600080a3005b3461049857600036600319011261049857604a546040516001600160a01b039091168152602090f35b346104985760003660031901126104985760145460155490610821601654601754601854601954601a54601b5491601c5493601d5495601e54976040519b8c9b8c610fe1565b346104985761156a36610550565b6045548110156104985760456000527fa80a8fcc11760162f08bb091d2c9389d07f2b73d0e996161dfac6f1043b5fc0b01546040516001600160a01b039091168152602090f35b34610498576020366003190112610498576115de6004356115d181610487565b6115d9611f27565b611787565b600160008051602061254a83398151915255005b60005260008051602061252a83398151915260205260016040600020015490565b634e487b7160e01b600052604160045260246000fd5b90601f8019910116810190811067ffffffffffffffff82111761164b57604052565b611613565b90816020910312610498575190565b6040513d6000823e3d90fd5b5190811515820361049857565b908160209103126104985761168c9061166b565b90565b61169b906115d9611f27565b600160008051602061254a83398151915255565b634e487b7160e01b600052601160045260246000fd5b90600182018092116116d357565b6116af565b919082018092116116d357565b9190826040910312610498576020825192015190565b906064820291808304606414901517156116d357565b6000198101919082116116d357565b919082039182116116d357565b3d15611768573d9067ffffffffffffffff821161164b576040519161175c601f8201601f191660200184611629565b82523d6000602084013e565b606090565b91908260409103126104985761168c60208351930161166b565b6117926012546116c5565b601154809110611c19576001600160a01b03821660009081526033602052604090209061180f604073__$a9930a26518626f1cf41cf7d897563c531$__926117d86124a9565b8251632bca1a2d60e21b8152600481018790526001600160a01b039091166024820152604481019190915291829081906064820190565b0381855af480156108545761182f91600090600092611be7575b506116d8565b80611ade575b5060465460009182916001600160a01b031680151580611ad3575b611a19575b506011549360018516159081611a1157601f915b15611a0957601f935b833b15610498576000956118cf9160405198899788968796630b78e59160e11b8852600488019260e09491979695926101008501988552602f6020860152603660408601526060850152608084015260a083015260c08201520152565b03915af48015610854576119f4575b506001600160a01b038116600090815260546020526040902054158015906119d3575b6119085750565b602f546001600160a01b03828116911614801561198d575b15611964576001600160a01b038116600090815260546020526040812090916119619142905b556001600160a01b0316600090815260556020526040902090565b55565b6001600160a01b0316600090815260546020908152604080832083905560559091529020429055565b506119cc6119c060036119b28460018060a01b03166000526033602052604060002090565b01546001600160a01b031690565b6001600160a01b031690565b1515611920565b506001600160a01b0381166000908152605560205260409020541515611901565b80610ba96000611a0393611629565b386118de565b601493611872565b601491611869565b9091611a7191604090611a34906001600160a01b03166119c0565b611a3f601154611711565b825163182a7ec760e01b81526001600160a01b038a166004820152602481019190915293849190829081906044820190565b03915afa801561085457600092600091611a9e575b5015611a955750905b38611855565b91925091611a8f565b9050611ac391925060403d604011611acc575b611abb8183611629565b81019061176d565b91909138611a86565b503d611ab1565b506011541515611850565b601154600116611bde57600a601f5b0190611afa8183546116d8565b82556044546001600160a01b031680611b82575b506001600160a01b0385163303611b26575b50611835565b611b32611b3a916116fb565b612710900490565b908115611b20576000808383611b538396849654611720565b9055335af1611b6061172d565b5015611b6d573880611b20565b633f32e1dd60e01b6000523360045260246000fd5b611b94906001600160a01b03166119c0565b803b156104985760405163eed9c5ef60e01b815260048101839052906000908290602490829084905af180156108545715611b0e5780610ba96000611bd893611629565b38611b0e565b600a6014611aed565b9050611c0b915060403d604011611c12575b611c038183611629565b8101906116e5565b9038611829565b503d611bf9565b5050565b90816020910312610498575161168c81610487565b90601154151580611e24575b611e13576001600160a01b038216801561112657331415918280611de6575b611dd5576030546005541115611dc457611c786119c061206f565b60405163e2a4a27b60e01b81523360048201526001600160a01b03831660248201529190602090839060449082906000905af191821561085457600492611da7575b506020611cc86119c061206f565b60405163320ef67160e11b815293849182905afa8015610854577f2b7297b31452d0a13e57c605870ec3c9b4ac6ef33e5cbae7a0f00bc2a3e9678292600091611d78575b508094611d45575b611d1d81612178565b604080516001600160a01b0393841681529190921660208201523491810191909152606090a1565b6001600160a01b03828116600090815260346020526040902080546001600160a01b031916918316919091179055611d14565b611d9a915060203d602011611da0575b611d928183611629565b810190611c1d565b38611d0c565b503d611d88565b611dbf9060203d602011611da057611d928183611629565b611cba565b639ce3911d60e01b60005260046000fd5b632d6690dd60e11b60005260046000fd5b506001600160a01b0381166000908152603460205260409020611e0c906119c090610c72565b1515611c5d565b630b294dc360e01b60005260046000fd5b506043543410611c3e565b600081815260008051602061252a8339815191526020908152604080832033845290915290205460ff1615611e615750565b63e2517d3f60e01b6000523360045260245260446000fd5b600081815260008051602061252a833981519152602090815260408083206001600160a01b038616845290915290205460ff16611f2057600081815260008051602061252a833981519152602090815260408083206001600160a01b03861684529091529020805460ff1916600117905533916001600160a01b0316907f2f8788117e7eff1d82e926ec794901d17c78024a50270940304540a733656f0d600080a4600190565b5050600090565b600260008051602061254a8339815191525414611f5257600260008051602061254a83398151915255565b633ee5aeb560e01b60005260046000fd5b600081815260008051602061252a833981519152602090815260408083206001600160a01b038616845290915290205460ff1615611f2057600081815260008051602061252a833981519152602090815260408083206001600160a01b03861684529091529020805460ff1916905533916001600160a01b0316907ff6391f5c32d9c69d2a47ea670b442974b53935d1edc7fd64eb21e047a839171b600080a4600190565b60008051602061250a833981519152546001600160a01b03163303610e1257565b60008051602061256a83398151915280546001600160a01b0319169055565b6000918291602082519201905af461205e61172d565b90156120675790565b602081519101fd5b604754604051631bae711d60e21b8152602060048201819052601660248301527556616c696461746f7257616c6c6574466163746f727960501b60448301529091829060649082906001600160a01b03165afa908115610854576000916120de575b506001600160a01b031690565b6120f7915060203d602011611da057611d928183611629565b386120d1565b604554600160401b81101561164b5760018101604555600060455482101561216457604590527fa80a8fcc11760162f08bb091d2c9389d07f2b73d0e996161dfac6f1043b5fc0b0180546001600160a01b0319166001600160a01b03909216919091179055565b634e487b7160e01b81526032600452602490fd5b6121818161168f565b3415612498576001600160a01b03818116600090815260336020908152604080832060359092529091208154919392909116612447576001600160a01b03821660009081526054602052604090205415801590612426575b6123f3575b82546001600160a01b0319166001600160a01b038316178355612200826120fd565b604454612215906001600160a01b03166119c0565b806123a1575b50601154156122f2576011546001166122e957600860145b0161223f3482546116d8565b90556011549273__$4c73b20894b72802355b5999003238f06e$__803b156104985760405163464ad34b60e11b8152600481019290925260248201929092526001600160a01b03831660448201526064810193909352600090839060849082905af490811561085457600092611961926122d5575b505b6001600160a01b03811660009081526054602052604090204290611946565b80610ba9856122e393611629565b386122b4565b6008601f612233565b61230661230134601c546116d8565b601c55565b6043549273__$4c73b20894b72802355b5999003238f06e$__803b156104985760405163ad09408360e01b815260048101929092526024820192909252602f60448201526001600160a01b03831660648201526014608482015260a4810193909352600090839060c49082905af4908115610854576000926119619261238d575b506122b6565b80610ba98561239b93611629565b38612387565b6001600160a01b0316803b15610498576040516332578bc960e11b8152346004820152906000908290602490829084905af18015610854571561221b5780610ba960006123ed93611629565b3861221b565b6001600160a01b0382167e82ad2279618f089cd244e26baff89f19262dcac9f3f00ea76c0aee06196178600080a26121de565b506001600160a01b03821660009081526055602052604090205415156121d9565b6001600160a01b038216600090815260546020526040902054612200576001600160a01b0382167f2e14f290af428a5a55cda34cae7292c879249089067e8f114d99a62b2ea43d55600080a2612200565b63ffb117c560e01b60005260046000fd5b604754604051631bae711d60e21b81526020600482018190526008602483015267536c617368696e6760c01b60448301529091829060649082906001600160a01b03165afa908115610854576000916120de57506001600160a01b03169056fe9016d09d72d40fdae2fd8ceac6b6234c7706214fd39c1cd1e609a0528c19930002dd7bc7dec4dceedda775e58dd541e08a116c6c53815c0bd028192f7b6268009b779b17422d0df92223018b32b4d1fa46e071723d6817e2486d003becc55f00237e158222e3e6968b72b9db0d8043aacf074ad9f650f0d1606b4d82ee432c00a2646970667358221220bdf032fec4d72771400de0fd093426a840a1b9f88b52b4a69e9bd2b68348038264736f6c634300081c0033",
  "linkReferences": {
    "contracts/utils/ValidatorPrimeUtils.sol": {
      "ValidatorPrimeUtils": [
        {
          "length": 20,
          "start": 6103
        }
      ]
    },
    "contracts/utils/ValidatorUtils.sol": {
      "ValidatorUtils": [
        {
          "length": 20,
          "start": 2029
        },
        {
          "length": 20,
          "start": 2868
        },
        {
          "length": 20,
          "start": 3028
        },
        {
          "length": 20,
          "start": 3389
        },
        {
          "length": 20,
          "start": 8802
        },
        {
          "length": 20,
          "start": 8999
        }
      ]
    }
  },
  "deployedLinkReferences": {
    "contracts/utils/ValidatorPrimeUtils.sol": {
      "ValidatorPrimeUtils": [
        {
          "length": 20,
          "start": 6076
        }
      ]
    },
    "contracts/utils/ValidatorUtils.sol": {
      "ValidatorUtils": [
        {
          "length": 20,
          "start": 2002
        },
        {
          "length": 20,
          "start": 2841
        },
        {
          "length": 20,
          "start": 3001
        },
        {
          "length": 20,
          "start": 3362
        },
        {
          "length": 20,
          "start": 8775
        },
        {
          "length": 20,
          "start": 8972
        }
      ]
    }
  }
}