{
  "_format": "hh-sol-artifact-1",
  "contractName": "MockTribunalAppealForRevealing",
  "sourceName": "contracts/test-helpers/MockTribunalAppealForRevealing.sol",
  "abi": [
    {
      "inputs": [
        {
          "internalType": "uint256",
          "name": "",
          "type": "uint256"
        }
      ],
      "name": "appealLeaders",
      "outputs": [
        {
          "internalType": "address",
          "name": "",
          "type": "address"
        }
      ],
      "stateMutability": "view",
      "type": "function"
    },
    {
      "inputs": [
        {
          "internalType": "uint256",
          "name": "",
          "type": "uint256"
        }
      ],
      "name": "appealTxIds",
      "outputs": [
        {
          "internalType": "bytes32",
          "name": "",
          "type": "bytes32"
        }
      ],
      "stateMutability": "view",
      "type": "function"
    },
    {
      "inputs": [
        {
          "internalType": "uint256",
          "name": "index",
          "type": "uint256"
        }
      ],
      "name": "getAppealAt",
      "outputs": [
        {
          "internalType": "bytes32",
          "name": "",
          "type": "bytes32"
        },
        {
          "internalType": "address",
          "name": "",
          "type": "address"
        }
      ],
      "stateMutability": "view",
      "type": "function"
    },
    {
      "inputs": [],
      "name": "getAppealsCount",
      "outputs": [
        {
          "internalType": "uint256",
          "name": "",
          "type": "uint256"
        }
      ],
      "stateMutability": "view",
      "type": "function"
    },
    {
      "inputs": [],
      "name": "lastPrepareLeader",
      "outputs": [
        {
          "internalType": "address",
          "name": "",
          "type": "address"
        }
      ],
      "stateMutability": "view",
      "type": "function"
    },
    {
      "inputs": [],
      "name": "lastPrepareLeaderResultHash",
      "outputs": [
        {
          "internalType": "bytes32",
          "name": "",
          "type": "bytes32"
        }
      ],
      "stateMutability": "view",
      "type": "function"
    },
    {
      "inputs": [],
      "name": "lastPrepareRound",
      "outputs": [
        {
          "internalType": "uint256",
          "name": "",
          "type": "uint256"
        }
      ],
      "stateMutability": "view",
      "type": "function"
    },
    {
      "inputs": [],
      "name": "lastPrepareTxEpoch",
      "outputs": [
        {
          "internalType": "uint256",
          "name": "",
          "type": "uint256"
        }
      ],
      "stateMutability": "view",
      "type": "function"
    },
    {
      "inputs": [],
      "name": "lastPrepareTxId",
      "outputs": [
        {
          "internalType": "bytes32",
          "name": "",
          "type": "bytes32"
        }
      ],
      "stateMutability": "view",
      "type": "function"
    },
    {
      "inputs": [
        {
          "internalType": "bytes32",
          "name": "_txId",
          "type": "bytes32"
        },
        {
          "internalType": "uint256",
          "name": "_txEpoch",
          "type": "uint256"
        },
        {
          "internalType": "address",
          "name": "_leader",
          "type": "address"
        },
        {
          "internalType": "uint256",
          "name": "_round",
          "type": "uint256"
        },
        {
          "internalType": "bytes32",
          "name": "_leaderResultHash",
          "type": "bytes32"
        }
      ],
      "name": "prepareTribunalAppeal",
      "outputs": [
        {
          "internalType": "uint256",
          "name": "index",
          "type": "uint256"
        }
      ],
      "stateMutability": "nonpayable",
      "type": "function"
    },
    {
      "inputs": [],
      "name": "prepareTribunalAppealCalled",
      "outputs": [
        {
          "internalType": "bool",
          "name": "",
          "type": "bool"
        }
      ],
      "stateMutability": "view",
      "type": "function"
    },
    {
      "inputs": [],
      "name": "resetMockState",
      "outputs": [],
      "stateMutability": "nonpayable",
      "type": "function"
    },
    {
      "inputs": [
        {
          "internalType": "uint256",
          "name": "index",
          "type": "uint256"
        }
      ],
      "name": "setMockTribunalIndex",
      "outputs": [],
      "stateMutability": "nonpayable",
      "type": "function"
    }
  ],
  "bytecode": "0x60808060405234601a5760016006556104f690816100208239f35b600080fdfe608080604052600436101561001357600080fd5b60003560e01c908163175c9193146104595750806320090e9d14610374578063224f5cba146103565780638511d6bb14610338578063912b0b621461030f57806398c574c4146101f2578063a3a688dc146101ba578063bdd4fb1c1461016d578063df3550f61461012b578063e6c227d11461010d578063e9db37d9146100ef578063f4b96db7146100d65763fe284ba1146100ae57600080fd5b346100d15760003660031901126100d157602060ff600054166040519015158152f35b600080fd5b346100d15760203660031901126100d157600435600655005b346100d15760003660031901126100d1576020600454604051908152f35b346100d15760003660031901126100d1576020600754604051908152f35b346100d15760203660031901126100d1576004356008548110156100d1576101546020916104a5565b905460405160039290921b1c6001600160a01b03168152f35b346100d15760203660031901126100d157604060043561019c61018f82610474565b90549060031b1c916104a5565b9054835192835260039190911b1c6001600160a01b03166020820152f35b346100d15760203660031901126100d1576004356007548110156100d1576101e3602091610474565b90549060031b1c604051908152f35b346100d15760a03660031901126100d1576044356001600160a01b03811690600435908290036100d1576000805460ff19166001908117909155819055602435600255600380546001600160a01b03191683179055606435600455608435600555600754600160401b8110156102f9578060016102729201600755610474565b819291549060031b91821b91600019901b1916179055600854600160401b8110156102f9578060016102a792016008556104a5565b81546001600160a01b0360039290921b91821b191692901b91909117905560065460001981146102e35780600160209201600655604051908152f35b634e487b7160e01b600052601160045260246000fd5b634e487b7160e01b600052604160045260246000fd5b346100d15760003660031901126100d1576003546040516001600160a01b039091168152602090f35b346100d15760003660031901126100d1576020600154604051908152f35b346100d15760003660031901126100d1576020600554604051908152f35b346100d15760003660031901126100d15760ff19600054166000556000600155600060025560018060a01b031960035416600355600060045560006005556001600655600754600060075580610415575b506008546000600855806103d557005b60086000527ff3f7a9fe364faab93b216da50a3214154f22a0a2b415b23a84c8169e8b636ee3908101905b81811061040957005b60008155600101610400565b60076000527fa66cc928b5edb82af9bd49922954155ab7b0942694bea4ce44661d9a8736c688908101905b81811061044d57506103c5565b60008155600101610440565b346100d15760003660031901126100d1576020906002548152f35b60075481101561048f57600760005260206000200190600090565b634e487b7160e01b600052603260045260246000fd5b60085481101561048f5760086000526020600020019060009056fea2646970667358221220be5d41ae33ddc57267c68c4c60b5528e76ef59c89e572452e994720be4a7a1b964736f6c634300081c0033",
  "linkReferences": {},
  "deployedLinkReferences": {}
}