{
  "_format": "hh-sol-artifact-1",
  "contractName": "BatchTransactionHandler",
  "sourceName": "contracts/BatchTransactionHandler.sol",
  "abi": [
    {
      "inputs": [
        {
          "internalType": "uint256",
          "name": "provided",
          "type": "uint256"
        },
        {
          "internalType": "uint256",
          "name": "maximum",
          "type": "uint256"
        }
      ],
      "name": "BatchSizeExceeded",
      "type": "error"
    },
    {
      "inputs": [],
      "name": "EmptyTransaction",
      "type": "error"
    },
    {
      "inputs": [],
      "name": "FailedTransferCall",
      "type": "error"
    },
    {
      "inputs": [],
      "name": "InsufficientFees",
      "type": "error"
    },
    {
      "inputs": [],
      "name": "InvalidInitialization",
      "type": "error"
    },
    {
      "inputs": [],
      "name": "NotInitializing",
      "type": "error"
    },
    {
      "inputs": [
        {
          "internalType": "address",
          "name": "owner",
          "type": "address"
        }
      ],
      "name": "OwnableInvalidOwner",
      "type": "error"
    },
    {
      "inputs": [
        {
          "internalType": "address",
          "name": "account",
          "type": "address"
        }
      ],
      "name": "OwnableUnauthorizedAccount",
      "type": "error"
    },
    {
      "inputs": [],
      "name": "ReentrancyGuardReentrantCall",
      "type": "error"
    },
    {
      "anonymous": false,
      "inputs": [
        {
          "indexed": true,
          "internalType": "uint256",
          "name": "batchId",
          "type": "uint256"
        },
        {
          "indexed": true,
          "internalType": "address",
          "name": "sender",
          "type": "address"
        },
        {
          "indexed": false,
          "internalType": "uint256",
          "name": "transactionCount",
          "type": "uint256"
        },
        {
          "indexed": false,
          "internalType": "uint256",
          "name": "successfulCount",
          "type": "uint256"
        },
        {
          "indexed": false,
          "internalType": "uint256",
          "name": "failedCount",
          "type": "uint256"
        }
      ],
      "name": "BatchTransactionProcessed",
      "type": "event"
    },
    {
      "anonymous": false,
      "inputs": [
        {
          "indexed": false,
          "internalType": "uint64",
          "name": "version",
          "type": "uint64"
        }
      ],
      "name": "Initialized",
      "type": "event"
    },
    {
      "anonymous": false,
      "inputs": [
        {
          "indexed": true,
          "internalType": "address",
          "name": "previousOwner",
          "type": "address"
        },
        {
          "indexed": true,
          "internalType": "address",
          "name": "newOwner",
          "type": "address"
        }
      ],
      "name": "OwnershipTransferStarted",
      "type": "event"
    },
    {
      "anonymous": false,
      "inputs": [
        {
          "indexed": true,
          "internalType": "address",
          "name": "previousOwner",
          "type": "address"
        },
        {
          "indexed": true,
          "internalType": "address",
          "name": "newOwner",
          "type": "address"
        }
      ],
      "name": "OwnershipTransferred",
      "type": "event"
    },
    {
      "anonymous": false,
      "inputs": [
        {
          "indexed": true,
          "internalType": "uint256",
          "name": "batchId",
          "type": "uint256"
        },
        {
          "indexed": true,
          "internalType": "uint256",
          "name": "transactionIndex",
          "type": "uint256"
        },
        {
          "indexed": true,
          "internalType": "bytes32",
          "name": "txId",
          "type": "bytes32"
        },
        {
          "indexed": false,
          "internalType": "bool",
          "name": "success",
          "type": "bool"
        },
        {
          "indexed": false,
          "internalType": "string",
          "name": "errorMessage",
          "type": "string"
        }
      ],
      "name": "TransactionProcessed",
      "type": "event"
    },
    {
      "inputs": [],
      "name": "MAX_BATCH_SIZE",
      "outputs": [
        {
          "internalType": "uint256",
          "name": "",
          "type": "uint256"
        }
      ],
      "stateMutability": "view",
      "type": "function"
    },
    {
      "inputs": [],
      "name": "MAX_BATCH_SIZE_NO_FEES",
      "outputs": [
        {
          "internalType": "uint256",
          "name": "",
          "type": "uint256"
        }
      ],
      "stateMutability": "view",
      "type": "function"
    },
    {
      "inputs": [],
      "name": "acceptOwnership",
      "outputs": [],
      "stateMutability": "nonpayable",
      "type": "function"
    },
    {
      "inputs": [
        {
          "components": [
            {
              "internalType": "address",
              "name": "sender",
              "type": "address"
            },
            {
              "internalType": "address",
              "name": "recipient",
              "type": "address"
            },
            {
              "internalType": "uint256",
              "name": "numOfInitialValidators",
              "type": "uint256"
            },
            {
              "internalType": "uint256",
              "name": "maxRotations",
              "type": "uint256"
            },
            {
              "internalType": "uint256",
              "name": "saltNonce",
              "type": "uint256"
            },
            {
              "internalType": "uint256",
              "name": "validUntil",
              "type": "uint256"
            },
            {
              "internalType": "bytes",
              "name": "txCalldata",
              "type": "bytes"
            },
            {
              "components": [
                {
                  "internalType": "uint256",
                  "name": "leaderTimeoutFee",
                  "type": "uint256"
                },
                {
                  "internalType": "uint256",
                  "name": "validatorsTimeoutFee",
                  "type": "uint256"
                },
                {
                  "internalType": "uint256",
                  "name": "appealRounds",
                  "type": "uint256"
                },
                {
                  "internalType": "uint256",
                  "name": "rollupUnifiedBudget",
                  "type": "uint256"
                },
                {
                  "internalType": "uint256",
                  "name": "rollupUnifiedConsumed",
                  "type": "uint256"
                },
                {
                  "internalType": "uint256",
                  "name": "totalMessageFees",
                  "type": "uint256"
                },
                {
                  "internalType": "uint256[]",
                  "name": "rotations",
                  "type": "uint256[]"
                }
              ],
              "internalType": "struct IFeeManager.FeesDistribution",
              "name": "feesDistribution",
              "type": "tuple"
            }
          ],
          "internalType": "struct BatchTransactionHandler.BatchTransactionParams[]",
          "name": "_transactions",
          "type": "tuple[]"
        }
      ],
      "name": "addBatchTransactions",
      "outputs": [
        {
          "components": [
            {
              "internalType": "bool",
              "name": "success",
              "type": "bool"
            },
            {
              "internalType": "bytes32",
              "name": "txId",
              "type": "bytes32"
            },
            {
              "internalType": "string",
              "name": "errorMessage",
              "type": "string"
            }
          ],
          "internalType": "struct BatchTransactionHandler.BatchTransactionResult[]",
          "name": "results",
          "type": "tuple[]"
        }
      ],
      "stateMutability": "nonpayable",
      "type": "function"
    },
    {
      "inputs": [
        {
          "components": [
            {
              "internalType": "address",
              "name": "sender",
              "type": "address"
            },
            {
              "internalType": "address",
              "name": "recipient",
              "type": "address"
            },
            {
              "internalType": "uint256",
              "name": "numOfInitialValidators",
              "type": "uint256"
            },
            {
              "internalType": "uint256",
              "name": "maxRotations",
              "type": "uint256"
            },
            {
              "internalType": "uint256",
              "name": "saltNonce",
              "type": "uint256"
            },
            {
              "internalType": "uint256",
              "name": "validUntil",
              "type": "uint256"
            },
            {
              "internalType": "bytes",
              "name": "txCalldata",
              "type": "bytes"
            },
            {
              "components": [
                {
                  "internalType": "uint256",
                  "name": "leaderTimeoutFee",
                  "type": "uint256"
                },
                {
                  "internalType": "uint256",
                  "name": "validatorsTimeoutFee",
                  "type": "uint256"
                },
                {
                  "internalType": "uint256",
                  "name": "appealRounds",
                  "type": "uint256"
                },
                {
                  "internalType": "uint256",
                  "name": "rollupUnifiedBudget",
                  "type": "uint256"
                },
                {
                  "internalType": "uint256",
                  "name": "rollupUnifiedConsumed",
                  "type": "uint256"
                },
                {
                  "internalType": "uint256",
                  "name": "totalMessageFees",
                  "type": "uint256"
                },
                {
                  "internalType": "uint256[]",
                  "name": "rotations",
                  "type": "uint256[]"
                }
              ],
              "internalType": "struct IFeeManager.FeesDistribution",
              "name": "feesDistribution",
              "type": "tuple"
            }
          ],
          "internalType": "struct BatchTransactionHandler.BatchTransactionParams[]",
          "name": "_transactions",
          "type": "tuple[]"
        }
      ],
      "name": "addBatchTransactionsWithFees",
      "outputs": [
        {
          "components": [
            {
              "internalType": "bool",
              "name": "success",
              "type": "bool"
            },
            {
              "internalType": "bytes32",
              "name": "txId",
              "type": "bytes32"
            },
            {
              "internalType": "string",
              "name": "errorMessage",
              "type": "string"
            }
          ],
          "internalType": "struct BatchTransactionHandler.BatchTransactionResult[]",
          "name": "results",
          "type": "tuple[]"
        }
      ],
      "stateMutability": "payable",
      "type": "function"
    },
    {
      "inputs": [],
      "name": "consensusMain",
      "outputs": [
        {
          "internalType": "contract IConsensusMain",
          "name": "",
          "type": "address"
        }
      ],
      "stateMutability": "view",
      "type": "function"
    },
    {
      "inputs": [],
      "name": "consensusMainWithFees",
      "outputs": [
        {
          "internalType": "contract IConsensusMainWithFees",
          "name": "",
          "type": "address"
        }
      ],
      "stateMutability": "view",
      "type": "function"
    },
    {
      "inputs": [],
      "name": "feeManager",
      "outputs": [
        {
          "internalType": "contract IFeeManager",
          "name": "",
          "type": "address"
        }
      ],
      "stateMutability": "view",
      "type": "function"
    },
    {
      "inputs": [
        {
          "internalType": "address",
          "name": "_consensusMain",
          "type": "address"
        },
        {
          "internalType": "address",
          "name": "_consensusMainWithFees",
          "type": "address"
        },
        {
          "internalType": "address",
          "name": "_feeManager",
          "type": "address"
        }
      ],
      "name": "initialize",
      "outputs": [],
      "stateMutability": "nonpayable",
      "type": "function"
    },
    {
      "inputs": [],
      "name": "owner",
      "outputs": [
        {
          "internalType": "address",
          "name": "",
          "type": "address"
        }
      ],
      "stateMutability": "view",
      "type": "function"
    },
    {
      "inputs": [],
      "name": "pendingOwner",
      "outputs": [
        {
          "internalType": "address",
          "name": "",
          "type": "address"
        }
      ],
      "stateMutability": "view",
      "type": "function"
    },
    {
      "inputs": [],
      "name": "renounceOwnership",
      "outputs": [],
      "stateMutability": "nonpayable",
      "type": "function"
    },
    {
      "inputs": [
        {
          "internalType": "address",
          "name": "newOwner",
          "type": "address"
        }
      ],
      "name": "transferOwnership",
      "outputs": [],
      "stateMutability": "nonpayable",
      "type": "function"
    },
    {
      "inputs": [
        {
          "internalType": "address",
          "name": "_consensusMain",
          "type": "address"
        },
        {
          "internalType": "address",
          "name": "_consensusMainWithFees",
          "type": "address"
        },
        {
          "internalType": "address",
          "name": "_feeManager",
          "type": "address"
        }
      ],
      "name": "updateContracts",
      "outputs": [],
      "stateMutability": "nonpayable",
      "type": "function"
    }
  ],
  "bytecode": "0x60808060405234601557611755908161001b8239f35b600080fdfe608080604052600436101561001357600080fd5b60003560e01c9081634c7f0b8c14610f6157508063508dccc414610c095780636c39639714610be05780636dca4d4414610b6e578063715018a614610aed57806379ba509714610a9b5780638da5cb5b14610a65578063b86b4d4814610a49578063bb2387c4146103a3578063c0c53b8b146101c0578063cfdbf254146101a4578063d0fb02031461017b578063e30c3978146101455763f2fde38b146100b957600080fd5b34610140576020366003190112610140576100d2611095565b6100da6115c2565b60008051602061170083398151915280546001600160a01b0319166001600160a01b03928316908117909155600080516020611680833981519152549091167f38d16b8cac22d99fc7c124b9cd0de2d3fa1faef420bfe791d8c362d765e22700600080a3005b600080fd5b3461014057600036600319011261014057600080516020611700833981519152546040516001600160a01b039091168152602090f35b34610140576000366003190112610140576002546040516001600160a01b039091168152602090f35b3461014057600036600319011261014057602060405160328152f35b34610140576060366003190112610140576101d9611095565b6101e16110ab565b6101e96110c1565b906000805160206116e0833981519152549260ff8460401c1615936001600160401b0381168015908161039b575b6001149081610391575b159081610388575b506103775767ffffffffffffffff1981166001176000805160206116e0833981519152558461034a575b5061025c611651565b610264611651565b61026c611651565b33156103345761027b336115e3565b610283611651565b61028b611651565b60016000805160206116c0833981519152819055600080546001600160a01b03199081166001600160a01b0394851617909155815481169383169390931790556002805490921692169190911790556102e057005b60ff60401b196000805160206116e083398151915254166000805160206116e0833981519152557fc7f505b2f371ae2175ee4913f4499e1f2633a7b5936321eed1cdaeb6115181d2602060405160018152a1005b631e4fbdf760e01b600052600060045260246000fd5b68ffffffffffffffffff191668010000000000000001176000805160206116e08339815191525584610253565b63f92ee8a960e01b60005260046000fd5b90501586610229565b303b159150610221565b869150610217565b6103ac36610f85565b60026000805160206116c08339815191525414610a385760026000805160206116c0833981519152558015610a275760328111610a0e5760025460009081906001600160a01b03165b8382106108c157505034106108b05761040d81611154565b9060009081938290835b838110610509575050803411610497575b507f4b666e8a8cd3f31d7d95e0a341705239d9d784afb4e455dbaaae287e78582e286104726104939560405191829133964296846040919493926060820195825260208201520152565b0390a360016000805160206116c08339815191525560405191829182611018565b0390f35b34033481116104f357600080808093335af13d156104ee573d6104b9816111f1565b906104c7604051928361111c565b8152600060203d92013e5b156104dd5784610428565b633825f58760e01b60005260046000fd5b6104d2565b634e487b7160e01b600052601160045260246000fd5b61051c6105178286856111b9565b61120c565b60c08101805151156108825760018060a01b03600254169160e0810191825192602061056d60408501968751966040518098819482936327f4490760e11b8452606060048501526064840190611549565b9060248301526000604483015203915afa93841561087657600094610840575b5060015483516020850151965160608601519451935160a08701519891936001600160a01b03908116939281169216833b15610140578f9961061b8a936106096000996040519b8c9a8b998a98636eb7692b60e11b8a5260048a015260248901526044880152606487015260e0608487015260e4860190610fd7565b8481036003190160a486015290611549565b9060c483015203925af1908161082f575b5061075057505050600161063e61144e565b6308c379a0146106ca575b610658575b6001905b01610417565b9561069e60019160405161066b816110eb565b600081526000602082015261067e6114e2565b604082015261068d8a8a611401565b526106988989611401565b50611415565b966000816040516000805160206116a08339815191524291806106c08161150d565b0390a4905061064e565b6106d261146c565b806106de575b50610649565b9761071a91508260009283926040516106f6816110eb565b8481528460208201528c604082015261070f848d611401565b52610698838c611401565b996000805160206116a0833981519152604051848152604060208201528061074742946040830190610fd7565b0390a4886106d8565b926107f88193926107f26020989a61069885600199818b8060a01b03825116801515600014610824576107b090925b8f8e8060a01b0391015116926107a2604051936020928593840196429188611424565b03601f19810183528261111c565b51902097886040519d8e6107c3816110eb565b8d8152015260209c8d6107d9604051918261111c565b6000815260408201526107ec8383611401565b52611401565b9961153c565b956040805191868352820152600060408201526000805160206116a083398151915260604292a4610652565b506107b0339261077f565b600061083a9161111c565b8b61062c565b90936020823d821161086e575b8161085a6020938361111c565b8101031261086b575051928c61058d565b80fd5b3d915061084d565b6040513d6000823e3d90fd5b5050956108aa600191604051610897816110eb565b600081526000602082015261067e6113c6565b96610652565b638d53e55360e01b60005260046000fd5b90916108ce8385876111b9565b60e08101359060de1981360301821215610140570160406108f08587896111b9565b0135604051916327f4490760e11b8352606060048401528035606484015260208101356084840152604081013560a4840152606081013560c4840152608081013560e484015260a081013561010484015260c0810135601e19823603018112156101405701602081359101916001600160401b038211610140578160051b9182360384136101405760e061012486015261014485018190526001600160fb1b0310610140578382610164928294602096858501376024830152600060448301528101030181865afa908115610876576000916109dc575b506109d49060019261153c565b9201906103f5565b906020823d8211610a06575b816109f56020938361111c565b8101031261086b57505160016109c7565b3d91506109e8565b63f80a484560e01b600052600452603260245260446000fd5b6313064eb160e11b60005260046000fd5b633ee5aeb560e01b60005260046000fd5b3461014057600036600319011261014057602060405160148152f35b3461014057600036600319011261014057600080516020611680833981519152546040516001600160a01b039091168152602090f35b346101405760003660031901126101405760008051602061170083398151915254336001600160a01b0390911603610ad857610ad6336115e3565b005b63118cdaa760e01b6000523360045260246000fd5b3461014057600036600319011261014057610b066115c2565b60008051602061170083398151915280546001600160a01b0319908116909155600080516020611680833981519152805491821690556000906001600160a01b03167f8be0079c531659141344cd1fd0a4f28419497f9722a3daafe3b4186f6b6457e08280a3005b3461014057606036600319011261014057610b87611095565b610b8f6110ab565b610b976110c1565b91610ba06115c2565b600080546001600160a01b03199081166001600160a01b039384161790915560018054821693831693909317909255600280549092169216919091179055005b34610140576000366003190112610140576001546040516001600160a01b039091168152602090f35b3461014057610c1736610f85565b8015610a275760148111610f4857610c2e81611154565b9060009260009060005b838110610c8f576040805185815260208101889052908101849052610493908690339042907f4b666e8a8cd3f31d7d95e0a341705239d9d784afb4e455dbaaae287e78582e2890606090a360405191829182611018565b610c9d6105178286856111b9565b9060c0820180515115610f1957600054835160208501805160408701516060880151955160a0890151939695939491936001600160a01b039081169381169216833b1561014057600095610d258793604051998a988997889663738ea8cb60e11b8852600488015260248701526044860152606485015260c0608485015260c4840190610fd7565b9060a483015203925af19081610f08575b50610e54575090506001610d4861144e565b6308c379a014610dce575b610d62575b6001905b01610c38565b91610da2600191604051610d75816110eb565b6000815260006020820152610d886114e2565b6040820152610d978689611401565b526106988588611401565b926000816040516000805160206116a0833981519152429180610dc48161150d565b0390a49050610d58565b610dd661146c565b80610de2575b50610d53565b93610e1e9150826000928392604051610dfa816110eb565b848152846020820152886040820152610e13848c611401565b52610698838b611401565b956000805160206116a08339815191526040518481526040602082015280610e4b42946040830190610fd7565b0390a487610ddc565b91516001929082906001600160a01b03168015610efd57610e9190925b858060a01b03905116926107a26040519384926020840196429188611424565b51902081610ed160405199610ea58b6110eb565b858b528360208c015260209a604051610ebe8d8261111c565b600081526040820152610e13848c611401565b986040805191868352820152600060408201526000805160206116a083398151915260604292a4610d5c565b50610e913392610e71565b6000610f139161111c565b89610d36565b509260019150610f4290604051610f2f816110eb565b6000815260006020820152610d886113c6565b92610d5c565b63f80a484560e01b600052600452601460245260446000fd5b34610140576000366003190112610140576000546001600160a01b03168152602090f35b906020600319830112610140576004356001600160401b0381116101405782602382011215610140578060040135926001600160401b0384116101405760248460051b83010111610140576024019190565b919082519283825260005b848110611003575050826000602080949584010152601f8019910116010190565b80602080928401015182828601015201610fe2565b602081016020825282518091526040820191602060408360051b8301019401926000915b83831061104b57505050505090565b9091929394602080611086600193603f19868203018752606060408b5180511515845285810151868501520151918160408201520190610fd7565b9701930193019193929061103c565b600435906001600160a01b038216820361014057565b602435906001600160a01b038216820361014057565b604435906001600160a01b038216820361014057565b35906001600160a01b038216820361014057565b606081019081106001600160401b0382111761110657604052565b634e487b7160e01b600052604160045260246000fd5b90601f801991011681019081106001600160401b0382111761110657604052565b6001600160401b0381116111065760051b60200190565b9061115e8261113d565b61116b604051918261111c565b828152809261117c601f199161113d565b019060005b82811061118d57505050565b60209060405161119c816110eb565b600081526000838201526060604082015282828501015201611181565b91908110156111db5760051b8101359060fe1981360301821215610140570190565b634e487b7160e01b600052603260045260246000fd5b6001600160401b03811161110657601f01601f191660200190565b61010081360312610140576040519061010082018281106001600160401b038211176111065760405261123e816110d7565b825261124c602082016110d7565b602083015260408101356040830152606081013560608301526080810135608083015260a081013560a083015260c08101356001600160401b03811161014057810136601f820112156101405780356112a4816111f1565b916112b2604051938461111c565b818352366020838301011161014057816000926020809301838601378301015260c083015260e0810135906001600160401b038211610140570160e081360312610140576040519060e082018281106001600160401b0382111761110657604052803582526020810135602083015260408101356040830152606081013560608301526080810135608083015260a081013560a083015260c0810135906001600160401b038211610140570136601f82011215610140578035906113758261113d565b91611383604051938461111c565b80835260208084019160051b8301019136831161014057602001905b8282106113b65750505060c082015260e082015290565b813581526020918201910161139f565b604051906113d560408361111c565b601a82527f456d707479207472616e73616374696f6e2063616c6c646174610000000000006020830152565b80518210156111db5760209160051b010190565b60001981146104f35760010190565b6001600160a01b039182168152911660208201526040810191909152606081019190915260800190565b60009060033d1161145b57565b905060046000803e60005160e01c90565b600060443d106114d1576040513d600319016004823e8051913d60248401116001600160401b038411176114dc57828201928351916001600160401b0383116114d4573d840160031901858401602001116114d457506114d19291016020019061111c565b90565b949350505050565b92915050565b604051906114f160408361111c565b600d82526c2ab735b737bbb71032b93937b960991b6020830152565b6080906000815260406020820152600d60408201526c2ab735b737bbb71032b93937b960991b60608201520190565b919082018092116104f357565b602061010060c060e085019380518652838101518487015260408101516040870152606081015160608701526080810151608087015260a081015160a087015201519360e060c082015284518094520192019060005b8181106115ac5750505090565b825184526020938401939092019160010161159f565b600080516020611680833981519152546001600160a01b03163303610ad857565b60008051602061170083398151915280546001600160a01b031990811690915560008051602061168083398151915280549182166001600160a01b0393841690811790915591167f8be0079c531659141344cd1fd0a4f28419497f9722a3daafe3b4186f6b6457e0600080a3565b60ff6000805160206116e08339815191525460401c161561166e57565b631afcd79f60e31b60005260046000fdfe9016d09d72d40fdae2fd8ceac6b6234c7706214fd39c1cd1e609a0528c199300010737c04e146615e9f16990f8e84be5f6f4b78bbbd408157754612cc86674e09b779b17422d0df92223018b32b4d1fa46e071723d6817e2486d003becc55f00f0c57e16840df040f15088dc2f81fe391c3923bec73e23a9662efc9c229c6a00237e158222e3e6968b72b9db0d8043aacf074ad9f650f0d1606b4d82ee432c00a26469706673582212201e8a62357939ac645b44df89c2bd817a8a95534fe525bc4823b8de9f982c154564736f6c634300081c0033",
  "linkReferences": {},
  "deployedLinkReferences": {}
}