{
  "_format": "hh-sol-artifact-1",
  "contractName": "MockSlashing",
  "sourceName": "contracts/test-helpers/MockSlashing.sol",
  "abi": [
    {
      "inputs": [
        {
          "internalType": "address",
          "name": "_validator",
          "type": "address"
        },
        {
          "internalType": "uint256",
          "name": "_epoch",
          "type": "uint256"
        }
      ],
      "name": "enactSlash",
      "outputs": [
        {
          "internalType": "uint256[]",
          "name": "epochs_",
          "type": "uint256[]"
        },
        {
          "internalType": "uint256[]",
          "name": "percents_",
          "type": "uint256[]"
        }
      ],
      "stateMutability": "nonpayable",
      "type": "function"
    },
    {
      "inputs": [
        {
          "internalType": "address",
          "name": "",
          "type": "address"
        },
        {
          "internalType": "uint256",
          "name": "",
          "type": "uint256"
        }
      ],
      "name": "epochs",
      "outputs": [
        {
          "internalType": "uint256",
          "name": "",
          "type": "uint256"
        }
      ],
      "stateMutability": "view",
      "type": "function"
    },
    {
      "inputs": [
        {
          "internalType": "address",
          "name": "",
          "type": "address"
        },
        {
          "internalType": "uint256",
          "name": "",
          "type": "uint256"
        }
      ],
      "name": "percents",
      "outputs": [
        {
          "internalType": "uint256",
          "name": "",
          "type": "uint256"
        }
      ],
      "stateMutability": "view",
      "type": "function"
    },
    {
      "inputs": [
        {
          "internalType": "address",
          "name": "_validator",
          "type": "address"
        },
        {
          "internalType": "uint256",
          "name": "_schedule",
          "type": "uint256"
        },
        {
          "internalType": "uint256",
          "name": "_epoch",
          "type": "uint256"
        },
        {
          "internalType": "uint256",
          "name": "_percent",
          "type": "uint256"
        }
      ],
      "name": "pushSlash",
      "outputs": [],
      "stateMutability": "nonpayable",
      "type": "function"
    },
    {
      "inputs": [
        {
          "internalType": "address",
          "name": "",
          "type": "address"
        },
        {
          "internalType": "uint256",
          "name": "",
          "type": "uint256"
        }
      ],
      "name": "schedules",
      "outputs": [
        {
          "internalType": "uint256",
          "name": "",
          "type": "uint256"
        }
      ],
      "stateMutability": "view",
      "type": "function"
    },
    {
      "inputs": [
        {
          "internalType": "address",
          "name": "_validator",
          "type": "address"
        },
        {
          "internalType": "uint256[]",
          "name": "_epochs",
          "type": "uint256[]"
        },
        {
          "internalType": "uint256[]",
          "name": "_percents",
          "type": "uint256[]"
        }
      ],
      "name": "setSlash",
      "outputs": [],
      "stateMutability": "nonpayable",
      "type": "function"
    }
  ],
  "bytecode": "0x60808060405234601557610a5b908161001b8239f35b600080fdfe6080604052600436101561001257600080fd5b60003560e01c80630bd9221c1461059d57806316f9994e1461017c57806324a45ee61461014d578063854e968214610106578063bd75e366146100bc5763e6608eed1461005e57600080fd5b346100b75760403660031901126100b757610077610719565b6001600160a01b03166000908152600260205260409020805460243591908210156100b7576020916100a8916107f8565b90549060031b1c604051908152f35b600080fd5b346100b75760403660031901126100b7576100d5610719565b6001600160a01b03166000908152600160205260409020805460243591908210156100b7576020916100a8916107f8565b346100b75760403660031901126100b75761011f610719565b6024359060018060a01b03166000526000602052604060002080548210156100b7576020916100a8916107f8565b346100b75760803660031901126100b75761017a610169610719565b6064359060443590602435906108cf565b005b346100b75760403660031901126100b757610195610719565b6024359060018060a01b031680600052600060205260406000209060405191826020825491828152019160005260206000209060005b81811061058757505050826101e191038361072f565b806000526001602052604060002060405190816020825491828152019160005260206000209060005b818110610571575050508161022091038261072f565b816000526002602052604060002060405190816020825491828152019160005260206000209060005b81811061055b575050508161025f91038261072f565b6102698251610826565b6102738251610826565b9261027e8651610826565b966102898251610826565b6102938551610826565b9860009860009360005b865181101561035857899a9b8d836102b58487610858565b5110156103015750906001916102cb828a610858565b516102d6828c610858565b526102f56102e4838d610858565b51916102ef8161086c565b9d610858565b525b019a99989a61029d565b9682919b5061031260019386610858565b5161031d8288610858565b52610328828a610858565b516103338289610858565b52610352610341838d610858565b519161034c8161086c565b99610858565b526102f7565b8c888b8d8f888b8b928087528552808252808352865282600052600060205260406000208151916001600160401b0383116104cb57600160401b83116104cb578154838355808410610532575b5060200190600052602060002060005b83811061051e575050505081600052600160205260406000208151916001600160401b0383116104cb57600160401b83116104cb5781548383558084106104f5575b5060200190600052602060002060005b8381106104e1575050505060005260026020526040600020928051906001600160401b0382116104cb57600160401b82116104cb5784548286558083106104a2575b5060200193600052602060002060005b82811061048e5761047c8561048a866040519384936040855260408501906107c4565b9083820360208501526107c4565b0390f35b600190602087519701968184015501610459565b8560005282602060002091820191015b8181106104bf5750610449565b600081556001016104b2565b634e487b7160e01b600052604160045260246000fd5b600190602084519401938184015501610407565b8260005283602060002091820191015b81811061051257506103f7565b60008155600101610505565b6001906020845194019381840155016103b5565b8260005283602060002091820191015b81811061054f57506103a5565b60008155600101610542565b8254845260209093019260019283019201610249565b825484526020909301926001928301920161020a565b82548452602090930192600192830192016101cb565b346100b75760603660031901126100b7576105b6610719565b6024356001600160401b0381116100b7576105d5903690600401610767565b6044356001600160401b0381116100b7576105f4903690600401610767565b6001600160a01b039092166000818152600160205260409020825191926001600160401b0383116104cb57600160401b83116104cb5781548383558084106106f0575b5060200190600052602060002060005b8381106106dc5760008581526002602052604090208651876001600160401b0382116104cb57600160401b82116104cb5782548284558083106106b3575b506020019160005260206000209160005b82811061069f57005b600190602083519301928186015501610696565b8360005282602060002091820191015b8181106106d05750610685565b600081556001016106c3565b600190602084519401938184015501610647565b8260005283602060002091820191015b81811061070d5750610637565b60008155600101610700565b600435906001600160a01b03821682036100b757565b90601f801991011681019081106001600160401b038211176104cb57604052565b6001600160401b0381116104cb5760051b60200190565b9080601f830112156100b757813561077e81610750565b9261078c604051948561072f565b81845260208085019260051b8201019283116100b757602001905b8282106107b45750505090565b81358152602091820191016107a7565b906020808351928381520192019060005b8181106107e25750505090565b82518452602093840193909201916001016107d5565b80548210156108105760005260206000200190600090565b634e487b7160e01b600052603260045260246000fd5b9061083082610750565b61083d604051918261072f565b828152809261084e601f1991610750565b0190602036910137565b80518210156108105760209160051b010190565b600019811461087b5760010190565b634e487b7160e01b600052601160045260246000fd5b80549190600160401b8310156104cb57826108b49160016108cd950181556107f8565b90919082549060031b91821b91600019901b1916179055565b565b6001600160a01b0316600090815260208181526040808320600183528184206002909352908320949093869390919081815b8554811015610a07578161091582886107f8565b90549060031b1c146109cb578215806109b2575b6109a9575b8261093c575b600101610901565b95929360019061096161094f898b6107f8565b90549060031b1c916108b48a8c6107f8565b9461098161096f89896107f8565b90549060031b1c916108b48a8a6107f8565b936109a161098f898c6107f8565b90549060031b1c916108b48a8d6107f8565b969050610934565b6001925061092e565b50816109be82886107f8565b90549060031b1c10610929565b96505050505050506109dc916107f8565b819291548160031b1c91820180921161087b57825460001960039290921b91821b191691901b179055565b50505091906108cd9650610a2090610a20949695610891565b61089156fea264697066735822122097762d71c437dc8b52f4e7783dc8f7708340cdaa5d20033bceef337bb013141464736f6c634300081c0033",
  "linkReferences": {},
  "deployedLinkReferences": {}
}