{
  "_format": "hh-sol-artifact-1",
  "contractName": "ValidatorWallet",
  "sourceName": "contracts/ValidatorWallet.sol",
  "abi": [
    {
      "inputs": [
        {
          "internalType": "address",
          "name": "_owner",
          "type": "address"
        },
        {
          "internalType": "address",
          "name": "_staking",
          "type": "address"
        },
        {
          "internalType": "address",
          "name": "_consensus",
          "type": "address"
        }
      ],
      "stateMutability": "nonpayable",
      "type": "constructor"
    },
    {
      "inputs": [],
      "name": "AccessControlBadConfirmation",
      "type": "error"
    },
    {
      "inputs": [
        {
          "internalType": "address",
          "name": "account",
          "type": "address"
        },
        {
          "internalType": "bytes32",
          "name": "neededRole",
          "type": "bytes32"
        }
      ],
      "name": "AccessControlUnauthorizedAccount",
      "type": "error"
    },
    {
      "inputs": [],
      "name": "InvalidInitialization",
      "type": "error"
    },
    {
      "inputs": [],
      "name": "NotInitializing",
      "type": "error"
    },
    {
      "inputs": [],
      "name": "NotOperator",
      "type": "error"
    },
    {
      "inputs": [
        {
          "internalType": "address",
          "name": "owner",
          "type": "address"
        }
      ],
      "name": "OwnableInvalidOwner",
      "type": "error"
    },
    {
      "inputs": [
        {
          "internalType": "address",
          "name": "account",
          "type": "address"
        }
      ],
      "name": "OwnableUnauthorizedAccount",
      "type": "error"
    },
    {
      "inputs": [],
      "name": "ReentrancyGuardReentrantCall",
      "type": "error"
    },
    {
      "anonymous": false,
      "inputs": [
        {
          "indexed": false,
          "internalType": "uint64",
          "name": "version",
          "type": "uint64"
        }
      ],
      "name": "Initialized",
      "type": "event"
    },
    {
      "anonymous": false,
      "inputs": [
        {
          "indexed": true,
          "internalType": "address",
          "name": "previousOwner",
          "type": "address"
        },
        {
          "indexed": true,
          "internalType": "address",
          "name": "newOwner",
          "type": "address"
        }
      ],
      "name": "OwnershipTransferStarted",
      "type": "event"
    },
    {
      "anonymous": false,
      "inputs": [
        {
          "indexed": true,
          "internalType": "address",
          "name": "previousOwner",
          "type": "address"
        },
        {
          "indexed": true,
          "internalType": "address",
          "name": "newOwner",
          "type": "address"
        }
      ],
      "name": "OwnershipTransferred",
      "type": "event"
    },
    {
      "anonymous": false,
      "inputs": [
        {
          "indexed": true,
          "internalType": "bytes32",
          "name": "role",
          "type": "bytes32"
        },
        {
          "indexed": true,
          "internalType": "bytes32",
          "name": "previousAdminRole",
          "type": "bytes32"
        },
        {
          "indexed": true,
          "internalType": "bytes32",
          "name": "newAdminRole",
          "type": "bytes32"
        }
      ],
      "name": "RoleAdminChanged",
      "type": "event"
    },
    {
      "anonymous": false,
      "inputs": [
        {
          "indexed": true,
          "internalType": "bytes32",
          "name": "role",
          "type": "bytes32"
        },
        {
          "indexed": true,
          "internalType": "address",
          "name": "account",
          "type": "address"
        },
        {
          "indexed": true,
          "internalType": "address",
          "name": "sender",
          "type": "address"
        }
      ],
      "name": "RoleGranted",
      "type": "event"
    },
    {
      "anonymous": false,
      "inputs": [
        {
          "indexed": true,
          "internalType": "bytes32",
          "name": "role",
          "type": "bytes32"
        },
        {
          "indexed": true,
          "internalType": "address",
          "name": "account",
          "type": "address"
        },
        {
          "indexed": true,
          "internalType": "address",
          "name": "sender",
          "type": "address"
        }
      ],
      "name": "RoleRevoked",
      "type": "event"
    },
    {
      "anonymous": false,
      "inputs": [
        {
          "indexed": true,
          "internalType": "address",
          "name": "validator",
          "type": "address"
        }
      ],
      "name": "ValidatorIdentitySet",
      "type": "event"
    },
    {
      "stateMutability": "payable",
      "type": "fallback"
    },
    {
      "inputs": [],
      "name": "DEFAULT_ADMIN_ROLE",
      "outputs": [
        {
          "internalType": "bytes32",
          "name": "",
          "type": "bytes32"
        }
      ],
      "stateMutability": "view",
      "type": "function"
    },
    {
      "inputs": [],
      "name": "acceptOwnership",
      "outputs": [],
      "stateMutability": "nonpayable",
      "type": "function"
    },
    {
      "inputs": [
        {
          "internalType": "bytes32",
          "name": "_txId",
          "type": "bytes32"
        },
        {
          "internalType": "bytes",
          "name": "_vrfProof",
          "type": "bytes"
        }
      ],
      "name": "activateTransaction",
      "outputs": [],
      "stateMutability": "nonpayable",
      "type": "function"
    },
    {
      "inputs": [
        {
          "internalType": "bytes32",
          "name": "_txId",
          "type": "bytes32"
        },
        {
          "internalType": "uint256",
          "name": "_tribunalIndex",
          "type": "uint256"
        },
        {
          "internalType": "bytes32",
          "name": "_commitHash",
          "type": "bytes32"
        }
      ],
      "name": "commitTribunalAppealVote",
      "outputs": [],
      "stateMutability": "nonpayable",
      "type": "function"
    },
    {
      "inputs": [
        {
          "internalType": "bytes32",
          "name": "_txId",
          "type": "bytes32"
        },
        {
          "internalType": "bytes32",
          "name": "_commitHash",
          "type": "bytes32"
        },
        {
          "internalType": "uint256",
          "name": "_validatorIndex",
          "type": "uint256"
        }
      ],
      "name": "commitVote",
      "outputs": [],
      "stateMutability": "nonpayable",
      "type": "function"
    },
    {
      "inputs": [],
      "name": "consensus",
      "outputs": [
        {
          "internalType": "contract IConsensusMain",
          "name": "",
          "type": "address"
        }
      ],
      "stateMutability": "view",
      "type": "function"
    },
    {
      "inputs": [],
      "name": "consensusWithFees",
      "outputs": [
        {
          "internalType": "contract IConsensusMainWithFees",
          "name": "",
          "type": "address"
        }
      ],
      "stateMutability": "view",
      "type": "function"
    },
    {
      "inputs": [],
      "name": "getIdentity",
      "outputs": [
        {
          "components": [
            {
              "internalType": "string",
              "name": "moniker",
              "type": "string"
            },
            {
              "internalType": "string",
              "name": "logoUri",
              "type": "string"
            },
            {
              "internalType": "string",
              "name": "website",
              "type": "string"
            },
            {
              "internalType": "string",
              "name": "description",
              "type": "string"
            },
            {
              "internalType": "string",
              "name": "email",
              "type": "string"
            },
            {
              "internalType": "string",
              "name": "twitter",
              "type": "string"
            },
            {
              "internalType": "string",
              "name": "telegram",
              "type": "string"
            },
            {
              "internalType": "string",
              "name": "github",
              "type": "string"
            },
            {
              "internalType": "bytes",
              "name": "extraCid",
              "type": "bytes"
            }
          ],
          "internalType": "struct ValidatorIdentity",
          "name": "",
          "type": "tuple"
        }
      ],
      "stateMutability": "view",
      "type": "function"
    },
    {
      "inputs": [],
      "name": "getOperator",
      "outputs": [
        {
          "internalType": "address",
          "name": "",
          "type": "address"
        }
      ],
      "stateMutability": "view",
      "type": "function"
    },
    {
      "inputs": [
        {
          "internalType": "bytes32",
          "name": "role",
          "type": "bytes32"
        }
      ],
      "name": "getRoleAdmin",
      "outputs": [
        {
          "internalType": "bytes32",
          "name": "",
          "type": "bytes32"
        }
      ],
      "stateMutability": "view",
      "type": "function"
    },
    {
      "inputs": [
        {
          "internalType": "bytes32",
          "name": "role",
          "type": "bytes32"
        },
        {
          "internalType": "address",
          "name": "account",
          "type": "address"
        }
      ],
      "name": "grantRole",
      "outputs": [],
      "stateMutability": "nonpayable",
      "type": "function"
    },
    {
      "inputs": [
        {
          "internalType": "bytes32",
          "name": "role",
          "type": "bytes32"
        },
        {
          "internalType": "address",
          "name": "account",
          "type": "address"
        }
      ],
      "name": "hasRole",
      "outputs": [
        {
          "internalType": "bool",
          "name": "",
          "type": "bool"
        }
      ],
      "stateMutability": "view",
      "type": "function"
    },
    {
      "inputs": [],
      "name": "identity",
      "outputs": [
        {
          "internalType": "string",
          "name": "moniker",
          "type": "string"
        },
        {
          "internalType": "string",
          "name": "logoUri",
          "type": "string"
        },
        {
          "internalType": "string",
          "name": "website",
          "type": "string"
        },
        {
          "internalType": "string",
          "name": "description",
          "type": "string"
        },
        {
          "internalType": "string",
          "name": "email",
          "type": "string"
        },
        {
          "internalType": "string",
          "name": "twitter",
          "type": "string"
        },
        {
          "internalType": "string",
          "name": "telegram",
          "type": "string"
        },
        {
          "internalType": "string",
          "name": "github",
          "type": "string"
        },
        {
          "internalType": "bytes",
          "name": "extraCid",
          "type": "bytes"
        }
      ],
      "stateMutability": "view",
      "type": "function"
    },
    {
      "inputs": [
        {
          "components": [
            {
              "internalType": "bytes32",
              "name": "txId",
              "type": "bytes32"
            },
            {
              "internalType": "uint256",
              "name": "saltAsAValidator",
              "type": "uint256"
            },
            {
              "internalType": "bytes32",
              "name": "txExecutionHash",
              "type": "bytes32"
            },
            {
              "internalType": "bytes32",
              "name": "messagesAndOtherFieldsHash",
              "type": "bytes32"
            },
            {
              "internalType": "bytes32",
              "name": "otherExecutionFieldsHash",
              "type": "bytes32"
            },
            {
              "internalType": "enum ITransactions.VoteType",
              "name": "resultValue",
              "type": "uint8"
            },
            {
              "components": [
                {
                  "internalType": "enum IMessages.MessageType",
                  "name": "messageType",
                  "type": "uint8"
                },
                {
                  "internalType": "address",
                  "name": "recipient",
                  "type": "address"
                },
                {
                  "internalType": "uint256",
                  "name": "value",
                  "type": "uint256"
                },
                {
                  "internalType": "bytes",
                  "name": "data",
                  "type": "bytes"
                },
                {
                  "internalType": "bool",
                  "name": "onAcceptance",
                  "type": "bool"
                },
                {
                  "internalType": "uint256",
                  "name": "saltNonce",
                  "type": "uint256"
                }
              ],
              "internalType": "struct IMessages.SubmittedMessage[]",
              "name": "messages",
              "type": "tuple[]"
            }
          ],
          "internalType": "struct IConsensusMain.LeaderRevealVoteParams",
          "name": "_leaderRevealVoteParams",
          "type": "tuple"
        }
      ],
      "name": "leaderRevealVote",
      "outputs": [],
      "stateMutability": "nonpayable",
      "type": "function"
    },
    {
      "inputs": [],
      "name": "operator",
      "outputs": [
        {
          "internalType": "address",
          "name": "",
          "type": "address"
        }
      ],
      "stateMutability": "view",
      "type": "function"
    },
    {
      "inputs": [],
      "name": "owner",
      "outputs": [
        {
          "internalType": "address",
          "name": "",
          "type": "address"
        }
      ],
      "stateMutability": "view",
      "type": "function"
    },
    {
      "inputs": [],
      "name": "pendingOwner",
      "outputs": [
        {
          "internalType": "address",
          "name": "",
          "type": "address"
        }
      ],
      "stateMutability": "view",
      "type": "function"
    },
    {
      "inputs": [
        {
          "internalType": "bytes32",
          "name": "_txId",
          "type": "bytes32"
        },
        {
          "internalType": "bytes32",
          "name": "_txExecutionHash",
          "type": "bytes32"
        },
        {
          "internalType": "uint256",
          "name": "_processingBlock",
          "type": "uint256"
        },
        {
          "internalType": "bytes",
          "name": "_eqBlocksOutputs",
          "type": "bytes"
        },
        {
          "internalType": "bytes",
          "name": "_vrfProof",
          "type": "bytes"
        }
      ],
      "name": "proposeReceipt",
      "outputs": [],
      "stateMutability": "nonpayable",
      "type": "function"
    },
    {
      "inputs": [
        {
          "internalType": "bytes32",
          "name": "_txId",
          "type": "bytes32"
        },
        {
          "internalType": "bytes32",
          "name": "_txExecutionHash",
          "type": "bytes32"
        },
        {
          "internalType": "uint256",
          "name": "_processingBlock",
          "type": "uint256"
        },
        {
          "internalType": "uint256",
          "name": "_storageFeeUsed",
          "type": "uint256"
        },
        {
          "internalType": "bytes",
          "name": "_eqBlocksOutputs",
          "type": "bytes"
        },
        {
          "internalType": "bytes",
          "name": "_vrfProof",
          "type": "bytes"
        }
      ],
      "name": "proposeReceiptWithFees",
      "outputs": [],
      "stateMutability": "nonpayable",
      "type": "function"
    },
    {
      "inputs": [],
      "name": "renounceOwnership",
      "outputs": [],
      "stateMutability": "nonpayable",
      "type": "function"
    },
    {
      "inputs": [
        {
          "internalType": "bytes32",
          "name": "role",
          "type": "bytes32"
        },
        {
          "internalType": "address",
          "name": "callerConfirmation",
          "type": "address"
        }
      ],
      "name": "renounceRole",
      "outputs": [],
      "stateMutability": "nonpayable",
      "type": "function"
    },
    {
      "inputs": [
        {
          "internalType": "bytes32",
          "name": "_txId",
          "type": "bytes32"
        },
        {
          "internalType": "uint256",
          "name": "_tribunalIndex",
          "type": "uint256"
        },
        {
          "internalType": "bytes32",
          "name": "_voteHash",
          "type": "bytes32"
        },
        {
          "internalType": "enum ITransactions.VoteType",
          "name": "_voteType",
          "type": "uint8"
        },
        {
          "internalType": "bytes32",
          "name": "_otherExecutionFieldsHash",
          "type": "bytes32"
        },
        {
          "internalType": "uint256",
          "name": "_nonce",
          "type": "uint256"
        }
      ],
      "name": "revealTribunalAppealVote",
      "outputs": [],
      "stateMutability": "nonpayable",
      "type": "function"
    },
    {
      "inputs": [
        {
          "internalType": "bytes32",
          "name": "_txId",
          "type": "bytes32"
        },
        {
          "internalType": "bytes32",
          "name": "_voteHash",
          "type": "bytes32"
        },
        {
          "internalType": "enum ITransactions.VoteType",
          "name": "_voteType",
          "type": "uint8"
        },
        {
          "internalType": "bytes32",
          "name": "_otherExecutionFieldsHash",
          "type": "bytes32"
        },
        {
          "internalType": "uint256",
          "name": "_nonce",
          "type": "uint256"
        },
        {
          "internalType": "uint256",
          "name": "_validatorIndex",
          "type": "uint256"
        }
      ],
      "name": "revealVote",
      "outputs": [],
      "stateMutability": "nonpayable",
      "type": "function"
    },
    {
      "inputs": [
        {
          "internalType": "bytes32",
          "name": "role",
          "type": "bytes32"
        },
        {
          "internalType": "address",
          "name": "account",
          "type": "address"
        }
      ],
      "name": "revokeRole",
      "outputs": [],
      "stateMutability": "nonpayable",
      "type": "function"
    },
    {
      "inputs": [
        {
          "internalType": "address",
          "name": "_consensus",
          "type": "address"
        },
        {
          "internalType": "address",
          "name": "_consensusWithFees",
          "type": "address"
        },
        {
          "internalType": "address",
          "name": "_staking",
          "type": "address"
        }
      ],
      "name": "setExternalAddresses",
      "outputs": [],
      "stateMutability": "nonpayable",
      "type": "function"
    },
    {
      "inputs": [
        {
          "internalType": "string",
          "name": "moniker",
          "type": "string"
        },
        {
          "internalType": "string",
          "name": "logoUri",
          "type": "string"
        },
        {
          "internalType": "string",
          "name": "website",
          "type": "string"
        },
        {
          "internalType": "string",
          "name": "description",
          "type": "string"
        },
        {
          "internalType": "string",
          "name": "email",
          "type": "string"
        },
        {
          "internalType": "string",
          "name": "twitter",
          "type": "string"
        },
        {
          "internalType": "string",
          "name": "telegram",
          "type": "string"
        },
        {
          "internalType": "string",
          "name": "github",
          "type": "string"
        },
        {
          "internalType": "bytes",
          "name": "extraCid",
          "type": "bytes"
        }
      ],
      "name": "setIdentity",
      "outputs": [],
      "stateMutability": "nonpayable",
      "type": "function"
    },
    {
      "inputs": [
        {
          "internalType": "address",
          "name": "_operator",
          "type": "address"
        }
      ],
      "name": "setOperator",
      "outputs": [],
      "stateMutability": "nonpayable",
      "type": "function"
    },
    {
      "inputs": [],
      "name": "staking",
      "outputs": [
        {
          "internalType": "contract IGenLayerStaking",
          "name": "",
          "type": "address"
        }
      ],
      "stateMutability": "view",
      "type": "function"
    },
    {
      "inputs": [
        {
          "internalType": "bytes4",
          "name": "interfaceId",
          "type": "bytes4"
        }
      ],
      "name": "supportsInterface",
      "outputs": [
        {
          "internalType": "bool",
          "name": "",
          "type": "bool"
        }
      ],
      "stateMutability": "view",
      "type": "function"
    },
    {
      "inputs": [
        {
          "internalType": "address",
          "name": "newOwner",
          "type": "address"
        }
      ],
      "name": "transferOwnership",
      "outputs": [],
      "stateMutability": "nonpayable",
      "type": "function"
    },
    {
      "inputs": [],
      "name": "validatorClaim",
      "outputs": [],
      "stateMutability": "nonpayable",
      "type": "function"
    },
    {
      "inputs": [],
      "name": "validatorDeposit",
      "outputs": [],
      "stateMutability": "payable",
      "type": "function"
    },
    {
      "inputs": [
        {
          "internalType": "uint256",
          "name": "_shares",
          "type": "uint256"
        }
      ],
      "name": "validatorExit",
      "outputs": [],
      "stateMutability": "nonpayable",
      "type": "function"
    },
    {
      "stateMutability": "payable",
      "type": "receive"
    }
  ],
  "bytecode": "0x6080346102a157601f612f3c38819003918201601f19168301916001600160401b038311848410176102a6578084926060946040528339810103126102a157610047816102bc565b61005f6040610058602085016102bc565b93016102bc565b600080516020612f1c83398151915254604081901c60ff161592906001600160401b03811680159081610299575b600114908161028f575b159081610286575b50610275576001600160401b03198116600117600080516020612f1c833981519152558361024a575b506100d16102d0565b6100d96102d0565b6100e16102d0565b6100e96102d0565b6001600160a01b0316928315610234577f237e158222e3e6968b72b9db0d8043aacf074ad9f650f0d1606b4d82ee432c0080546001600160a01b03199081169091557f9016d09d72d40fdae2fd8ceac6b6234c7706214fd39c1cd1e609a0528c199300805491821686179055604051949081906001600160a01b03167f8be0079c531659141344cd1fd0a4f28419497f9722a3daafe3b4186f6b6457e0600080a3600080546001600160a01b03199081169290921790556002805482166001600160a01b0393841617905560018054909116929091169190911790556101d9575b604051612c1d90816102ff8239f35b60207fc7f505b2f371ae2175ee4913f4499e1f2633a7b5936321eed1cdaeb6115181d29168ff000000000000000019600080516020612f1c8339815191525416600080516020612f1c8339815191525560018152a1386101ca565b631e4fbdf760e01b600052600060045260246000fd5b6001600160481b0319166801000000000000000117600080516020612f1c83398151915255386100c8565b63f92ee8a960e01b60005260046000fd5b9050153861009f565b303b159150610097565b85915061008d565b600080fd5b634e487b7160e01b600052604160045260246000fd5b51906001600160a01b03821682036102a157565b60ff600080516020612f1c8339815191525460401c16156102ed57565b631afcd79f60e31b60005260046000fdfe61012080604052600436101561001157005b600060c05260c0513560e01c90816301ffc9a7146122935750806303d1491714611f495780630a6c701b14611e6d578063248a9ca314611e475780632c159a1a14611b855780632f2ff15d14611b545780633520579414611ad357806336568abe14611a8b57806336afc6fa146116fd5780633bd15f70146116595780634cf088d91461162f5780634e70962814610a76578063570ca73514610355578063715018a6146109ef578063759f24f41461098f5780637707d838146108aa57806379ba5097146107ed57806385d2d274146107725780638da5cb5b1461073b5780638ef3f7611461071157806391d14854146106b55780639e0276041461066b578063a217fddf1461064d578063aab85d64146105a5578063b3ab15fb14610560578063cbc2440a146104b7578063cbfd846d1461048d578063d4f6aa93146103f4578063d547741f146103b7578063e30c397814610380578063e7f43c6814610355578063f2fde38b146102c75763f402ef5e1461018b57005b346102a15760c03660031901126102a1576084356001600160401b0381116102a1576101bb9036906004016123bc565b9060a4356001600160401b0381116102a1576101db9036906004016123bc565b60c0515490939192906001600160a01b031633036102b457600c546001600160a01b031690813b156102a1576102599261026f6040519687958694859463034eb2e760e31b8652600435600487015260243560248701526044356044870152606435606487015233608487015260e060a487015260e4860191612833565b906003198483030160c485015260c05197612833565b039160c051905af180156102a757610288575b60c05180f35b60c05161029491612318565b60c0516102a15738610282565b60c05180fd5b6040513d60c051823e3d90fd5b631f0853c160e21b60c05152600460c051fd5b346102a15760203660031901126102a1576102e0612354565b6102e861297f565b600080516020612bc883398151915280546001600160a01b0319166001600160a01b03928316908117909155600080516020612b888339815191525460c051919216907f38d16b8cac22d99fc7c124b9cd0de2d3fa1faef420bfe791d8c362d765e227009080a360c05180f35b346102a15760c0513660031901126102a15760c051546040516001600160a01b039091168152602090f35b346102a15760c0513660031901126102a157600080516020612bc8833981519152546040516001600160a01b039091168152602090f35b346102a15760403660031901126102a1576103ed6004356103d6612339565b906103e86103e382612854565b61288c565b6129b5565b5060c05180f35b346102a15760603660031901126102a15760c051546001600160a01b031633036102b4576001600160a01b03610428612a55565b16803b156102a1576040519063d4f6aa9360e01b82526004356004830152602435602483015260443560448301528160648160c0519360c051905af180156102a7576104745760c05180f35b60c05161048091612318565b60c0516102a15780610282565b346102a15760c0513660031901126102a157600c546040516001600160a01b039091168152602090f35b346102a15760c03660031901126102a15760643560058110156102a15760c051546001600160a01b031633036102b4576001600160a01b036104f7612a55565b16803b156102a157610532604051926365e1220560e11b84526004356004850152602435602485015260443560448501526064840190612810565b608435608483015260a43560a48301528160c48160c0519360c051905af180156102a7576104745760c05180f35b346102a15760203660031901126102a157610579612354565b61058161297f565b60c05180546001600160a01b0319166001600160a01b039290921691909117815580f35b346102a15760403660031901126102a1576024356001600160401b0381116102a1576105d59036906004016123bc565b60c051546001600160a01b031633036102b4576001546001600160a01b031691823b156102a157610635926040518080958194632958334360e21b835260043560048401523360248401526060604484015260c051966064840191612833565b039160c051905af180156102a7576104745760c05180f35b346102a15760c0513660031901126102a157602060405160c0518152f35b60c0513660031901126102a1576002546001600160a01b0316803b156102a157604051906327809d8160e21b82528160048160c0519334905af180156102a7576104745760c05180f35b346102a15760403660031901126102a1576106ce612339565b60043560c05152600080516020612ba8833981519152602052604060c051209060018060a01b0316600052602052602060ff604060002054166040519015158152f35b346102a15760c0513660031901126102a1576001546040516001600160a01b039091168152602090f35b346102a15760c0513660031901126102a157600080516020612b88833981519152546040516001600160a01b039091168152602090f35b346102a15760603660031901126102a15760c051546001600160a01b031633036102b4576001546001600160a01b0316803b156102a15760405190632174b49d60e21b82526004356004830152602435602483015260443560448301528160648160c0519360c051905af180156102a7576104745760c05180f35b346102a15760c0513660031901126102a157600080516020612bc883398151915254336001600160a01b039091160361089357600080516020612bc883398151915280546001600160a01b0319908116909155600080516020612b88833981519152805433928116831790915560c0516001600160a01b03909116907f8be0079c531659141344cd1fd0a4f28419497f9722a3daafe3b4186f6b6457e09080a360c05180f35b63118cdaa760e01b60c0515233600452602460c051fd5b346102a15760c0513660031901126102a1576002546040516331b9e11160e01b815230600482015260c0519091602091839160249183916001600160a01b03165af19081156102a75760c0519161095d575b5060c051600080516020612b888339815191525490918291829182916001600160a01b03165af13d15610958573d6109338161236a565b906109416040519283612318565b815260c0513d916020013e5b156102a15760c05180f35b61094d565b90506020813d602011610987575b8161097860209383612318565b810103126102a15751816108fc565b3d915061096b565b346102a15760203660031901126102a1576109a861297f565b6002546001600160a01b0316803b156102a15760405190631d67c93d60e21b825260043560048301528160248160c0519360c051905af180156102a7576104745760c05180f35b346102a15760c0513660031901126102a157610a0961297f565b600080516020612bc883398151915280546001600160a01b0319908116909155600080516020612b888339815191528054918216905560c051906001600160a01b03167f8be0079c531659141344cd1fd0a4f28419497f9722a3daafe3b4186f6b6457e08280a360c05180f35b346102a1576101203660031901126102a1576004356001600160401b0381116102a157610aa79036906004016123bc565b9060e0526024356001600160401b0381116102a157610aca9036906004016123bc565b90610100526044356001600160401b0381116102a157610aee9036906004016123bc565b90926064356001600160401b0381116102a157610b0f9036906004016123bc565b6084356001600160401b0381116102a157610b2e9036906004016123bc565b91909360a4356001600160401b0381116102a157610b509036906004016123bc565b949060c4356001600160401b0381116102a157610b719036906004016123bc565b97909260e4356001600160401b0381116102a157610b939036906004016123bc565b6080529b610104356001600160401b0381116102a157610bb79036906004016123bc565b9c9096610bc261297f565b60405160a05260a051610bd4906122e6565b3660e05191610be292612385565b60a05152366101005191610bf592612385565b9a60a0516020019b8c523690610c0a92612385565b9560a0516040019687523690610c1f92612385565b9560a0516060019687523690610c3492612385565b9560a0516080019687523690610c4992612385565b9560a05160a0019687523690610c5e92612385565b9760a05160c00198895236608051610c7592612385565b9660a05160e0019788523690610c8a92612385565b9460a0516101000195865260a051518051906001600160401b0382116110bf57610cb56003546123e9565b601f81116115fa575b506020906001601f84111461158e57918091610cf29360c05192611583575b50508160011b916000199060031b1c19161790565b6003555b518051906001600160401b0382116110bf57610d136004546123e9565b601f811161154e575b506020906001601f8411146114e257918091610d4f9360c051926114d75750508160011b916000199060031b1c19161790565b6004555b518051906001600160401b0382116110bf57610d706005546123e9565b601f81116114a2575b506020906001601f84111461143657918091610dac9360c0519261142b5750508160011b916000199060031b1c19161790565b6005555b518051906001600160401b0382116110bf57610dcd6006546123e9565b601f81116113f6575b506020906001601f84111461138a57918091610e099360c0519261137f5750508160011b916000199060031b1c19161790565b6006555b518051906001600160401b0382116110bf57610e2a6007546123e9565b601f811161134a575b506020906001601f8411146112de57918091610e669360c051926112d35750508160011b916000199060031b1c19161790565b6007555b519283516001600160401b0381116110bf57610e876008546123e9565b601f811161129e575b506020946001601f83111461123457610ec592939495829160c051926112295750508160011b916000199060031b1c19161790565b6008555b519182516001600160401b0381116110bf57610ee66009546123e9565b601f81116111f4575b5060206001601f83111461118a578190610f2293949560c0519261117f5750508160011b916000199060031b1c19161790565b6009555b519081516001600160401b0381116110bf57610f43600a546123e9565b601f811161114a575b506020926001601f8311146110e257610f7f9293829160c051926110d75750508160011b916000199060031b1c19161790565b600a555b5180516001600160401b0381116110bf57610f9f600b546123e9565b601f811161107f575b506020916001601f83111461101857610fda92829160c0519261100d5750508160011b916000199060031b1c19161790565b600b555b307fb01ce3352db8250e910be1c254a1a9fc249b00caf0a25b5b72ca70592023867e60c05160c051a260c05180f35b015190508380610cdd565b601f19821692600b60c051528060c051209160c0515b8581106110675750836001951061104e575b505050811b01600b55610fde565b015160001960f88460031b161c19169055828080611040565b9192602060018192868501518155019401920161102e565b6110af90600b60c05152602060c05120601f840160051c810191602085106110b5575b601f0160051c0190612875565b82610fa8565b90915081906110a2565b634e487b7160e01b60c051526041600452602460c051fd5b015190508480610cdd565b601f19821693600a60c051528060c051209160c0515b8681106111325750836001959610611119575b505050811b01600a55610f83565b015160001960f88460031b161c1916905583808061110b565b919260206001819286850151815501940192016110f8565b61117990600a60c05152602060c05120601f840160051c810191602085106110b557601f0160051c0190612875565b83610f4c565b015190508580610cdd565b601f19821690600960c051528060c051209160c0515b8181106111dc575095836001959697106111c3575b505050811b01600955610f26565b015160001960f88460031b161c191690558480806111b5565b9192602060018192868b0151815501940192016111a0565b61122390600960c05152602060c05120601f840160051c810191602085106110b557601f0160051c0190612875565b84610eef565b015190508680610cdd565b601f19821695600860c051528060c051209160c0515b8881106112865750836001959697981061126d575b505050811b01600855610ec9565b015160001960f88460031b161c1916905585808061125f565b9192602060018192868501518155019401920161124a565b6112cd90600860c05152602060c05120601f840160051c810191602085106110b557601f0160051c0190612875565b85610e90565b015190508780610cdd565b90601f19831691600760c051528160c051209260c0515b8181106113325750908460019594939210611319575b505050811b01600755610e6a565b015160001960f88460031b161c1916905586808061130b565b929360206001819287860151815501950193016112f5565b61137990600760c05152602060c05120601f850160051c810191602086106110b557601f0160051c0190612875565b86610e33565b015190508880610cdd565b90601f19831691600660c051528160c051209260c0515b8181106113de57509084600195949392106113c5575b505050811b01600655610e0d565b015160001960f88460031b161c191690558780806113b7565b929360206001819287860151815501950193016113a1565b61142590600660c05152602060c05120601f850160051c810191602086106110b557601f0160051c0190612875565b87610dd6565b015190508980610cdd565b90601f19831691600560c051528160c051209260c0515b81811061148a5750908460019594939210611471575b505050811b01600555610db0565b015160001960f88460031b161c19169055888080611463565b9293602060018192878601518155019501930161144d565b6114d190600560c05152602060c05120601f850160051c810191602086106110b557601f0160051c0190612875565b88610d79565b015190508a80610cdd565b90601f19831691600460c051528160c051209260c0515b818110611536575090846001959493921061151d575b505050811b01600455610d53565b015160001960f88460031b161c1916905589808061150f565b929360206001819287860151815501950193016114f9565b61157d90600460c05152602060c05120601f850160051c810191602086106110b557601f0160051c0190612875565b89610d1c565b015190508b80610cdd565b90601f19831691600360c051528160c051209260c0515b8181106115e257509084600195949392106115c9575b505050811b01600355610cf6565b015160001960f88460031b161c191690558a80806115bb565b929360206001819287860151815501950193016115a5565b61162990600360c05152602060c05120601f850160051c810191602086106110b557601f0160051c0190612875565b8a610cbe565b346102a15760c0513660031901126102a1576002546040516001600160a01b039091168152602090f35b346102a15760c03660031901126102a15760443560058110156102a15760c051546001600160a01b031633036102b4576001546001600160a01b0316803b156102a1576116c7604051926303bd15f760e41b8452600435600485015260243560248501526044840190612810565b6064356064830152608435608483015260a43560a48301528160c48160c0519360c051905af180156102a7576104745760c05180f35b346102a15760c0513660031901126102a1576060610100604051611720816122e6565b82815282602082015282604082015282808201528260808201528260a08201528260c08201528260e0820152015260405161175a816122e6565b611762612423565b815261176c6124dc565b906020810191825261177c612573565b6040820190815261178b61260a565b6060830190815261179a6126a1565b6080840190815260c051604051600854909182906117b7836123e9565b8083529260018116908115611a6c5750600114611a24575b6117db92500382612318565b60a0850190815260c05160405160095490939184906117f9836123e9565b8083529260018116908115611a0557506001146119bd575b61181d92500384612318565b60c0860192835260c05150604051938460c051600a5461183c816123e9565b80845290600181169081156119a15750600114611960575b50036118609086612318565b60e0870194855261186f612738565b95610100880196875260405198899860208a525160208a0161012090526101408a0161189a916127cf565b9051898203601f190160408b01526118b291906127cf565b9051888203601f190160608a01526118ca91906127cf565b9051878203601f190160808901526118e291906127cf565b9051868203601f190160a08801526118fa91906127cf565b9051858203601f190160c087015261191291906127cf565b9051848203601f190160e086015261192a91906127cf565b9051838203601f190161010085015261194391906127cf565b9051828203601f190161012084015261195c91906127cf565b0390f35b60c08051600a905251602081209092505b81831061198557505081016020018a611854565b6020919350806001915483858c01015201910190918792611971565b90506020925060ff191682840152151560051b8201018a611854565b5090600960c05152602060c051209060c051915b8183106119e957505090602061181d92820101611811565b6020919350806001915483858a010152019101909185926119d1565b6020925061181d94915060ff191682840152151560051b820101611811565b5090600860c05152602060c051209060c051915b818310611a505750509060206117db928201016117cf565b6020919350806001915483858801015201910190918392611a38565b602092506117db94915060ff191682840152151560051b8201016117cf565b346102a15760403660031901126102a157611aa4612339565b336001600160a01b03821603611ac0576103ed906004356129b5565b63334bd91960e11b60c05152600460c051fd5b346102a15760603660031901126102a157611aec612354565b611af4612339565b6044356001600160a01b03811692908390036102a157611b1261297f565b600180546001600160a01b03199081166001600160a01b0393841617909155600c80548216939092169290921790556002805490911691909117905560c05180f35b346102a15760403660031901126102a1576103ed600435611b73612339565b90611b806103e382612854565b6128d6565b346102a15760c0513660031901126102a157611b9f612423565b611ba76124dc565b90611bb0612573565b611bb861260a565b611bc06126a1565b60c05160405160085490918290611bd6836123e9565b8083529260018116908115611e285750600114611de0575b611bfa92500382612318565b60c0516040516009549093918490611c11836123e9565b8083529260018116908115611dc15750600114611d79575b611c3592500384612318565b60c05150604051938460c051600a54611c4d816123e9565b8084529060018116908115611d5d5750600114611d1c575b5003611c719086612318565b611c79612738565b956040519889986101208a526101208a01611c93916127cf565b89810360208b0152611ca4916127cf565b88810360408a0152611cb5916127cf565b8781036060890152611cc6916127cf565b8681036080880152611cd7916127cf565b85810360a0870152611ce8916127cf565b84810360c0860152611cf9916127cf565b83810360e0850152611d0a916127cf565b82810361010084015261195c916127cf565b60c08051600a905251602081209092505b818310611d4157505081016020018a611c65565b6020919350806001915483858c01015201910190918792611d2d565b90506020925060ff191682840152151560051b8201018a611c65565b5090600960c05152602060c051209060c051915b818310611da5575050906020611c3592820101611c29565b6020919350806001915483858a01015201910190918592611d8d565b60209250611c3594915060ff191682840152151560051b820101611c29565b5090600860c05152602060c051209060c051915b818310611e0c575050906020611bfa92820101611bee565b6020919350806001915483858801015201910190918392611df4565b60209250611bfa94915060ff191682840152151560051b820101611bee565b346102a15760203660031901126102a1576020611e65600435612854565b604051908152f35b346102a15760a03660031901126102a1576064356001600160401b0381116102a157611e9d9036906004016123bc565b906084356001600160401b0381116102a157611ebd9036906004016123bc565b60c0515490939192906001600160a01b031633036102b4576001546001600160a01b031690813b156102a157611f339261063560405196879586948594632af7cb7f60e01b865260043560048701526024356024870152604435604487015233606487015260c0608487015260c4860191612833565b906003198483030160a485015260c05197612833565b346102a15760203660031901126102a1576004356001600160401b0381116102a15760e060031982360301126102a15760405160e081018181106001600160401b038211176110bf576040528160040135815260208101906024830135825260408101926044810135845260608201936064820135855260808301916084810135835260a48101359060058210156102a15760a0850191825260c4810135906001600160401b0382116102a1570192366023850112156102a1576004840135936001600160401b0385116110bf578460051b906040519561202d6020840188612318565b865260208601918101602401903682116102a15760248101925b8284106121b6575050505060c085810194855251546001600160a01b031633036102b4576001546001600160a01b031696873b156102a1576120c793604051976303d1491760e01b8952602060048a01526101048901975160248a01525160448901525160648801525160848701525160a48601525160c4850190612810565b519060e060e48401528151809152610124830160206101248360051b86010193019160c0515b8181106121245760c05186908180880381838c5af180156102a7576121125760c05180f35b60c05161211e91612318565b80610282565b90919293610123198682030184528451908151600281101561219e576001928260209392849352848060a01b038383015116838201526040820151604082015260a080612180606085015160c0606086015260c08501906127cf565b608080860151151590850152930151910152960194019291016120ed565b634e487b7160e01b60c051526021600452602460c051fd5b83356001600160401b0381116102a15760049083010160c0601f1982360301126102a1576040519160c083018381106001600160401b038211176110bf57604052602082013560028110156102a157835260408201356001600160a01b03811681036102a15760208401526060820135604084015260808201356001600160401b0381116102a15760209083010136601f820112156102a157612260903690602081359101612385565b606084015260a08201359283151584036102a15760c06020949385946080840152013560a0820152815201930192612047565b346102a15760203660031901126102a1576004359063ffffffff60e01b82168092036102a157602091637965db0b60e01b81149081156122d5575b5015158152f35b6301ffc9a760e01b149050836122ce565b61012081019081106001600160401b0382111761230257604052565b634e487b7160e01b600052604160045260246000fd5b90601f801991011681019081106001600160401b0382111761230257604052565b602435906001600160a01b038216820361234f57565b600080fd5b600435906001600160a01b038216820361234f57565b6001600160401b03811161230257601f01601f191660200190565b9291926123918261236a565b9161239f6040519384612318565b82948184528183011161234f578281602093846000960137010152565b9181601f8401121561234f578235916001600160401b03831161234f576020838186019501011161234f57565b90600182811c92168015612419575b602083101461240357565b634e487b7160e01b600052602260045260246000fd5b91607f16916123f8565b6040519060008260035491612437836123e9565b80835292600181169081156124bd575060011461245d575b61245b92500383612318565b565b506003600090815290917fc2575a0e9e593c00f959f8c92f12db2869c3395a3b0502d05e2516446f71f85b5b8183106124a157505090602061245b9282010161244f565b6020919350806001915483858901015201910190918492612489565b6020925061245b94915060ff191682840152151560051b82010161244f565b60405190600082600454916124f0836123e9565b80835292600181169081156124bd57506001146125135761245b92500383612318565b506004600090815290917f8a35acfbc15ff81a39ae7d344fd709f28e8600b4aa8c65c6b64bfe7fe36bd19b5b81831061255757505090602061245b9282010161244f565b602091935080600191548385890101520191019091849261253f565b6040519060008260055491612587836123e9565b80835292600181169081156124bd57506001146125aa5761245b92500383612318565b506005600090815290917f036b6384b5eca791c62761152d0c79bb0604c104a5fb6f4eb0703f3154bb3db05b8183106125ee57505090602061245b9282010161244f565b60209193508060019154838589010152019101909184926125d6565b604051906000826006549161261e836123e9565b80835292600181169081156124bd57506001146126415761245b92500383612318565b506006600090815290917ff652222313e28459528d920b65115c16c04f3efc82aaedc97be59f3f377c0d3f5b81831061268557505090602061245b9282010161244f565b602091935080600191548385890101520191019091849261266d565b60405190600082600754916126b5836123e9565b80835292600181169081156124bd57506001146126d85761245b92500383612318565b506007600090815290917fa66cc928b5edb82af9bd49922954155ab7b0942694bea4ce44661d9a8736c6885b81831061271c57505090602061245b9282010161244f565b6020919350806001915483858901015201910190918492612704565b60405190600082600b549161274c836123e9565b80835292600181169081156124bd575060011461276f5761245b92500383612318565b50600b600090815290917f0175b7a638427703f0dbe7bb9bbf987a2551717b34e79f33b5b1008d1fa01db95b8183106127b357505090602061245b9282010161244f565b602091935080600191548385890101520191019091849261279b565b919082519283825260005b8481106127fb575050826000602080949584010152601f8019910116010190565b806020809284010151828286010152016127da565b90600582101561281d5752565b634e487b7160e01b600052602160045260246000fd5b908060209392818452848401376000828201840152601f01601f1916010190565b600052600080516020612ba883398151915260205260016040600020015490565b818110612880575050565b60008155600101612875565b6000818152600080516020612ba88339815191526020908152604080832033845290915290205460ff16156128be5750565b63e2517d3f60e01b6000523360045260245260446000fd5b6000818152600080516020612ba8833981519152602090815260408083206001600160a01b038616845290915290205460ff16612978576000818152600080516020612ba8833981519152602090815260408083206001600160a01b0395909516808452949091528120805460ff19166001179055339291907f2f8788117e7eff1d82e926ec794901d17c78024a50270940304540a733656f0d9080a4600190565b5050600090565b600080516020612b88833981519152546001600160a01b031633036129a057565b63118cdaa760e01b6000523360045260246000fd5b6000818152600080516020612ba8833981519152602090815260408083206001600160a01b038616845290915290205460ff1615612978576000818152600080516020612ba8833981519152602090815260408083206001600160a01b0395909516808452949091528120805460ff19169055339291907ff6391f5c32d9c69d2a47ea670b442974b53935d1edc7fd64eb21e047a839171b9080a4600190565b600154604051632a49798160e11b815290602090829060049082906001600160a01b03165afa908115612b3857600091612b44575b50604051631bae711d60e21b8152602060048201819052600e60248301526d151c9a589d5b985b105c1c19585b60921b60448301529091829060649082906001600160a01b03165afa908115612b3857600091612aef575b506001600160a01b031690565b6020813d602011612b30575b81612b0860209383612318565b81010312612b2c5751906001600160a01b0382168203612b29575038612ae2565b80fd5b5080fd5b3d9150612afb565b6040513d6000823e3d90fd5b6020813d602011612b7f575b81612b5d60209383612318565b81010312612b2c5751906001600160a01b0382168203612b2957506020612a8a565b3d9150612b5056fe9016d09d72d40fdae2fd8ceac6b6234c7706214fd39c1cd1e609a0528c19930002dd7bc7dec4dceedda775e58dd541e08a116c6c53815c0bd028192f7b626800237e158222e3e6968b72b9db0d8043aacf074ad9f650f0d1606b4d82ee432c00a2646970667358221220ed95b613e19adfd5f9f09879094633aeaf91978afd9bce82081d6e91b690a06464736f6c634300081c0033f0c57e16840df040f15088dc2f81fe391c3923bec73e23a9662efc9c229c6a00",
  "linkReferences": {},
  "deployedLinkReferences": {}
}