{
  "_format": "hh-sol-artifact-1",
  "contractName": "CommittingPhase",
  "sourceName": "contracts/phases/CommittingPhase.sol",
  "abi": [
    {
      "inputs": [],
      "stateMutability": "nonpayable",
      "type": "constructor"
    },
    {
      "inputs": [],
      "name": "InvalidInitialization",
      "type": "error"
    },
    {
      "inputs": [],
      "name": "InvalidValidator",
      "type": "error"
    },
    {
      "inputs": [],
      "name": "NotInitializing",
      "type": "error"
    },
    {
      "inputs": [
        {
          "internalType": "address",
          "name": "owner",
          "type": "address"
        }
      ],
      "name": "OwnableInvalidOwner",
      "type": "error"
    },
    {
      "inputs": [
        {
          "internalType": "address",
          "name": "account",
          "type": "address"
        }
      ],
      "name": "OwnableUnauthorizedAccount",
      "type": "error"
    },
    {
      "inputs": [],
      "name": "ReentrancyGuardReentrantCall",
      "type": "error"
    },
    {
      "inputs": [],
      "name": "Unauthorized",
      "type": "error"
    },
    {
      "inputs": [],
      "name": "VoteAlreadyCommitted",
      "type": "error"
    },
    {
      "anonymous": false,
      "inputs": [
        {
          "indexed": true,
          "internalType": "bytes32",
          "name": "txId",
          "type": "bytes32"
        },
        {
          "indexed": false,
          "internalType": "enum ITransactions.TransactionStatus",
          "name": "newStatus",
          "type": "uint8"
        }
      ],
      "name": "AllVotesCommitted",
      "type": "event"
    },
    {
      "anonymous": false,
      "inputs": [
        {
          "indexed": true,
          "internalType": "address",
          "name": "caller",
          "type": "address"
        },
        {
          "indexed": false,
          "internalType": "bool",
          "name": "authorized",
          "type": "bool"
        }
      ],
      "name": "AuthorizedCallerUpdated",
      "type": "event"
    },
    {
      "anonymous": false,
      "inputs": [
        {
          "indexed": false,
          "internalType": "uint64",
          "name": "version",
          "type": "uint64"
        }
      ],
      "name": "Initialized",
      "type": "event"
    },
    {
      "anonymous": false,
      "inputs": [
        {
          "indexed": true,
          "internalType": "bytes32",
          "name": "txId",
          "type": "bytes32"
        },
        {
          "indexed": true,
          "internalType": "address",
          "name": "newLeader",
          "type": "address"
        }
      ],
      "name": "LeaderRotatedToProposing",
      "type": "event"
    },
    {
      "anonymous": false,
      "inputs": [
        {
          "indexed": true,
          "internalType": "address",
          "name": "previousOwner",
          "type": "address"
        },
        {
          "indexed": true,
          "internalType": "address",
          "name": "newOwner",
          "type": "address"
        }
      ],
      "name": "OwnershipTransferStarted",
      "type": "event"
    },
    {
      "anonymous": false,
      "inputs": [
        {
          "indexed": true,
          "internalType": "address",
          "name": "previousOwner",
          "type": "address"
        },
        {
          "indexed": true,
          "internalType": "address",
          "name": "newOwner",
          "type": "address"
        }
      ],
      "name": "OwnershipTransferred",
      "type": "event"
    },
    {
      "anonymous": false,
      "inputs": [
        {
          "indexed": true,
          "internalType": "bytes32",
          "name": "txId",
          "type": "bytes32"
        }
      ],
      "name": "TransactionUndetermined",
      "type": "event"
    },
    {
      "anonymous": false,
      "inputs": [
        {
          "indexed": true,
          "internalType": "bytes32",
          "name": "txId",
          "type": "bytes32"
        },
        {
          "indexed": true,
          "internalType": "address",
          "name": "oldValidator",
          "type": "address"
        },
        {
          "indexed": true,
          "internalType": "address",
          "name": "newValidator",
          "type": "address"
        },
        {
          "indexed": false,
          "internalType": "uint256",
          "name": "validatorIndex",
          "type": "uint256"
        }
      ],
      "name": "ValidatorReplaced",
      "type": "event"
    },
    {
      "anonymous": false,
      "inputs": [
        {
          "indexed": true,
          "internalType": "bytes32",
          "name": "txId",
          "type": "bytes32"
        },
        {
          "indexed": true,
          "internalType": "address",
          "name": "validator",
          "type": "address"
        },
        {
          "indexed": false,
          "internalType": "uint256",
          "name": "validatorIndex",
          "type": "uint256"
        }
      ],
      "name": "VoteCommitted",
      "type": "event"
    },
    {
      "inputs": [],
      "name": "acceptOwnership",
      "outputs": [],
      "stateMutability": "nonpayable",
      "type": "function"
    },
    {
      "inputs": [],
      "name": "addressManager",
      "outputs": [
        {
          "internalType": "contract IAddressManager",
          "name": "",
          "type": "address"
        }
      ],
      "stateMutability": "view",
      "type": "function"
    },
    {
      "inputs": [
        {
          "internalType": "address",
          "name": "",
          "type": "address"
        }
      ],
      "name": "authorizedCallers",
      "outputs": [
        {
          "internalType": "bool",
          "name": "",
          "type": "bool"
        }
      ],
      "stateMutability": "view",
      "type": "function"
    },
    {
      "inputs": [
        {
          "components": [
            {
              "internalType": "bytes32",
              "name": "txId",
              "type": "bytes32"
            },
            {
              "internalType": "bytes32",
              "name": "commitHash",
              "type": "bytes32"
            },
            {
              "internalType": "address",
              "name": "validator",
              "type": "address"
            },
            {
              "internalType": "uint256",
              "name": "validatorIndex",
              "type": "uint256"
            }
          ],
          "internalType": "struct ICommittingPhase.CommitVoteParams",
          "name": "params",
          "type": "tuple"
        }
      ],
      "name": "commitVote",
      "outputs": [
        {
          "components": [
            {
              "internalType": "bool",
              "name": "success",
              "type": "bool"
            },
            {
              "internalType": "bool",
              "name": "isLastVote",
              "type": "bool"
            },
            {
              "internalType": "address",
              "name": "newLeader",
              "type": "address"
            },
            {
              "internalType": "address",
              "name": "recipient",
              "type": "address"
            },
            {
              "internalType": "bytes32[]",
              "name": "undeterminedTxIds",
              "type": "bytes32[]"
            },
            {
              "internalType": "address",
              "name": "validator",
              "type": "address"
            },
            {
              "internalType": "uint256",
              "name": "validatorIndex",
              "type": "uint256"
            },
            {
              "internalType": "enum ITransactions.TransactionStatus",
              "name": "newStatus",
              "type": "uint8"
            },
            {
              "internalType": "bool",
              "name": "wasLeaderRotated",
              "type": "bool"
            },
            {
              "internalType": "bool",
              "name": "wasValidatorReplaced",
              "type": "bool"
            },
            {
              "internalType": "address",
              "name": "oldValidator",
              "type": "address"
            },
            {
              "internalType": "address",
              "name": "newValidator",
              "type": "address"
            },
            {
              "internalType": "bool",
              "name": "queuedToUndetermined",
              "type": "bool"
            }
          ],
          "internalType": "struct ICommittingPhase.CommitVoteResult",
          "name": "result",
          "type": "tuple"
        }
      ],
      "stateMutability": "nonpayable",
      "type": "function"
    },
    {
      "inputs": [
        {
          "internalType": "address",
          "name": "_addressManager",
          "type": "address"
        }
      ],
      "name": "initialize",
      "outputs": [],
      "stateMutability": "nonpayable",
      "type": "function"
    },
    {
      "inputs": [
        {
          "internalType": "address",
          "name": "caller",
          "type": "address"
        }
      ],
      "name": "isAuthorizedCaller",
      "outputs": [
        {
          "internalType": "bool",
          "name": "",
          "type": "bool"
        }
      ],
      "stateMutability": "view",
      "type": "function"
    },
    {
      "inputs": [],
      "name": "owner",
      "outputs": [
        {
          "internalType": "address",
          "name": "",
          "type": "address"
        }
      ],
      "stateMutability": "view",
      "type": "function"
    },
    {
      "inputs": [],
      "name": "pendingOwner",
      "outputs": [
        {
          "internalType": "address",
          "name": "",
          "type": "address"
        }
      ],
      "stateMutability": "view",
      "type": "function"
    },
    {
      "inputs": [],
      "name": "renounceOwnership",
      "outputs": [],
      "stateMutability": "nonpayable",
      "type": "function"
    },
    {
      "inputs": [
        {
          "internalType": "address",
          "name": "_addressManager",
          "type": "address"
        }
      ],
      "name": "setAddressManager",
      "outputs": [],
      "stateMutability": "nonpayable",
      "type": "function"
    },
    {
      "inputs": [
        {
          "internalType": "address",
          "name": "caller",
          "type": "address"
        },
        {
          "internalType": "bool",
          "name": "authorized",
          "type": "bool"
        }
      ],
      "name": "setAuthorizedCaller",
      "outputs": [],
      "stateMutability": "nonpayable",
      "type": "function"
    },
    {
      "inputs": [
        {
          "internalType": "address[]",
          "name": "callers",
          "type": "address[]"
        },
        {
          "internalType": "bool",
          "name": "authorized",
          "type": "bool"
        }
      ],
      "name": "setAuthorizedCallers",
      "outputs": [],
      "stateMutability": "nonpayable",
      "type": "function"
    },
    {
      "inputs": [
        {
          "internalType": "address",
          "name": "newOwner",
          "type": "address"
        }
      ],
      "name": "transferOwnership",
      "outputs": [],
      "stateMutability": "nonpayable",
      "type": "function"
    }
  ],
  "bytecode": "0x6080806040523460d2577ff0c57e16840df040f15088dc2f81fe391c3923bec73e23a9662efc9c229c6a005460ff8160401c1660c1576002600160401b03196001600160401b03821601605c575b60405161246290816100d88239f35b6001600160401b0319166001600160401b039081177ff0c57e16840df040f15088dc2f81fe391c3923bec73e23a9662efc9c229c6a005581527fc7f505b2f371ae2175ee4913f4499e1f2633a7b5936321eed1cdaeb6115181d290602090a13880604d565b63f92ee8a960e01b60005260046000fd5b600080fdfe60a0604052600436101561001257600080fd5b60003560e01c80630652b57a146107d0578063090263a7146106d75780633ab76e9f146106ae578063454bbd2914610630578063536fff6c146105f157806359d14b41146105f15780636d5b05801461042b578063715018a6146103aa57806379ba5097146103585780638da5cb5b14610322578063c4d66de81461016d578063e30c3978146101375763f2fde38b146100ab57600080fd5b34610132576020366003190112610132576100c4610813565b6100cc612180565b60008051602061240d83398151915280546001600160a01b0319166001600160a01b039283169081179091556000805160206123ad833981519152549091167f38d16b8cac22d99fc7c124b9cd0de2d3fa1faef420bfe791d8c362d765e22700600080a3005b600080fd5b346101325760003660031901126101325760008051602061240d833981519152546040516001600160a01b039091168152602090f35b3461013257602036600319011261013257610186610813565b6000805160206123ed833981519152549060ff8260401c1615916001600160401b0381168015908161031a575b6001149081610310575b159081610307575b506102f65767ffffffffffffffff1981166001176000805160206123ed83398151915255826102c9575b506101f861237e565b61020061237e565b61020861237e565b33156102b35761021733612310565b61021f61237e565b61022761237e565b60016000805160206123cd83398151915255600080546001600160a01b0319166001600160a01b039290921691909117905561025f57005b60ff60401b196000805160206123ed83398151915254166000805160206123ed833981519152557fc7f505b2f371ae2175ee4913f4499e1f2633a7b5936321eed1cdaeb6115181d2602060405160018152a1005b631e4fbdf760e01b600052600060045260246000fd5b68ffffffffffffffffff191668010000000000000001176000805160206123ed83398151915255826101ef565b63f92ee8a960e01b60005260046000fd5b905015846101c5565b303b1591506101bd565b8491506101b3565b34610132576000366003190112610132576000805160206123ad833981519152546040516001600160a01b039091168152602090f35b346101325760003660031901126101325760008051602061240d83398151915254336001600160a01b03909116036103955761039333612310565b005b63118cdaa760e01b6000523360045260246000fd5b34610132576000366003190112610132576103c3612180565b60008051602061240d83398151915280546001600160a01b03199081169091556000805160206123ad833981519152805491821690556000906001600160a01b03167f8be0079c531659141344cd1fd0a4f28419497f9722a3daafe3b4186f6b6457e08280a3005b3461013257608036600319011261013257604051600061044a826108c9565b808252806020830152806040830152806060830152606060808301528060a08301528060c08301528060e08301528061010083015280610120830152806101408301528061016083015280610180830152338152600160205260ff604082205416156105e35760026000805160206123cd83398151915254146105d4576104e28260026000805160206123cd83398151915255610c65565b60016000805160206123cd8339815191525560405180916020825280511515602083015260208101511515604083015260018060a01b03604082015116606083015260018060a01b03606082015116608083015261018061055460808301516101a060a08601526101c0850190610838565b9160018060a01b0360a08201511660c085015260c081015160e085015261058460e082015161010086019061086c565b6101008101511515610120850152610120810151151561014085015260018060a01b036101408201511661016085015260018060a01b036101608201511682850152015115156101a08301520390f35b633ee5aeb560e01b8152600490fd5b6282b42960e81b8152600490fd5b34610132576020366003190112610132576001600160a01b03610612610813565b166000526001602052602060ff604060002054166040519015158152f35b3461013257604036600319011261013257610649610813565b7fad857fa38c9319cb80848f1ef2f924383b90297eb5d71755738ff037d100faa16020610674610829565b9261067d612180565b6001600160a01b031660008181526001835260409020805460ff191660ff86151516179055926040519015158152a2005b34610132576000366003190112610132576000546040516001600160a01b039091168152602090f35b34610132576040366003190112610132576004356001600160401b03811161013257366023820112156101325780600401356001600160401b038111610132576024820191602436918360051b01011161013257610733610829565b61073b612180565b8015159060005b83811061074b57005b6001906001600160a01b0361076961076483888a61088f565b6108b5565b166000528160205261078b8360406000209060ff801983541691151516179055565b818060a01b0361079f61076483888a61088f565b167fad857fa38c9319cb80848f1ef2f924383b90297eb5d71755738ff037d100faa16020604051878152a201610742565b34610132576020366003190112610132576107e9610813565b6107f1612180565b600080546001600160a01b0319166001600160a01b0392909216919091179055005b600435906001600160a01b038216820361013257565b60243590811515820361013257565b906020808351928381520192019060005b8181106108565750505090565b8251845260209384019390920191600101610849565b90600f8210156108795752565b634e487b7160e01b600052602160045260246000fd5b919081101561089f5760051b0190565b634e487b7160e01b600052603260045260246000fd5b356001600160a01b03811681036101325790565b6101a081019081106001600160401b038211176108e557604052565b634e487b7160e01b600052604160045260246000fd5b90601f801991011681019081106001600160401b038211176108e557604052565b6001600160401b0381116108e55760051b60200190565b51906001600160a01b038216820361013257565b9080601f8301121561013257815161095e8161091c565b9261096c60405194856108fb565b81845260208085019260051b82010192831161013257602001905b8282106109945750505090565b602080916109a184610933565b815201910190610987565b9080601f830112156101325781516109c38161091c565b926109d160405194856108fb565b81845260208085019260051b82010192831161013257602001905b8282106109f95750505090565b81518152602091820191016109ec565b60005b838110610a1c5750506000910152565b8181015183820152602001610a0c565b81601f820112156101325780516001600160401b0381116108e55760405192610a5f601f8301601f1916602001856108fb565b8184526020828401011161013257610a7d9160208085019101610a09565b90565b805182101561089f5760209160051b010190565b5190811515820361013257565b9060068210156108795752565b9060058210156108795752565b90602091610ad481518092818552858086019101610a09565b601f01601f1916010190565b919091610160830192815181526020820151602082015260408201516040820152606082015160608201526080820151608082015260a082015160a0820152610b3160c083015160c0830190610aa1565b60e08201519361016060e083015284518091526020610180830195019060005b818110610bd557505050610100820151938181036101008301526020808651928381520195019060005b818110610bb657505050610140610ba4610a7d9495610120850151848203610120860152610838565b92015190610140818403910152610838565b90919560208082610bca6001948b51610aae565b019701929101610b7b565b82516001600160a01b0316875260209687019690920191600101610b51565b919082604091031261013257610a7d602083519301610a94565b90610c188261091c565b610c2560405191826108fb565b8281528092610c36601f199161091c565b0190602036910137565b6000198114610c4f5760010190565b634e487b7160e01b600052601160045260246000fd5b90606491610c716121a1565b90610c7a612252565b90600093602060018060a01b0386541660405197888092631bae711d60e21b82528460048301526006602483015265526f756e647360d01b60448301525afa948515612174578095612138575b8054604051631bae711d60e21b815260206004820181905260056024830152645574696c7360d81b604483015290985090889060649082906001600160a01b03165afa80156120eb5781906120f8575b8154604051631bae711d60e21b8152602060048201819052600e60248301526d151c9a589d5b985b105c1c19585b60921b6044830152989950976001600160a01b039283169392909189916064918391165afa9687156120eb5781976120af575b5060405163ba15d63560e01b81526004803590820152946020866024816001600160a01b038d165afa9586156113a657829661207b575b50604051635af5446960e01b81526004803590820152602481018790529682886044816001600160a01b038e165afa9788156113ca578398611ecd575b5060405163255709e560e11b815260048035908201529383856024816001600160a01b0386165afa948515611ba9578495611c27575b506060850151600f811015611c135760018916611c0b576003915b803b15611c075760448692610e6b92610e756040519687958694633813abfb60e21b8652600486019061086c565b602484019061086c565b5afa8015611ba957611bf3575b50610e9561012089015160643590610a80565b51611be4576044356001600160a01b038116141596876113d5576040516080526302bbaae960e01b6080515260018060a01b036044351660046080510152606060246080510152610eec6064608051018651610aa1565b610f00602086015160846080510190610aae565b610f14604086015160a4608051019061086c565b610f28606086015160c4608051019061086c565b60018060a01b0360808601511660e4608051015260018060a01b0360a086015116610104608051015260018060a01b0360c086015116610124608051015260018060a01b0360e0860151166101446080510152610100850151610164608051015261012085015161018460805101526101408501516101a460805101526101608501516101c460805101526101808501516101e460805101526101a085015161020460805101526101c085015161022460805101526101e085015161024460805101528361102c6110106102008801516102e061026460805101526103446080510190610abb565b6102208801516063196080518303016102846080510152610abb565b610240870151906063196080518203016102a4608051015260208083519283815201920190835b818110611bb4575050506102608701516102c460805101526102808701516102e460805101526102a087015161030460805101526102c0870151610324608051015260031960805182030160446080510152608051906110b6608051918d610ae0565b60805191900390836001600160a01b0388165af1978815611ba957849b859c869287889f899d611a7b575b61163c57506114285760443590156115f55750855b8d5181101561113957808c8f6111329061112b8f9560e0600197611120838a8060a01b0392610a80565b511695015192610a80565b5190610a80565b52016110f6565b5092969a91959993979b5093975061012083015161115d6020850191825190610a80565b511561145f575060016101208c01526001600160a01b0360443581166101408d015284166101608c01525b60408301936111978551610c40565b94859052602435906001600160a01b0384163b156114375789604051809263998f979960e01b8252600435600483015289602483015260018060a01b031695866044830152846064830152606435608483015260c060a483015281838161120160c482018c610ae0565b03926001600160a01b03165af1801561145457908a9161143b575b5050611232610140850151602086015190610a80565b516001600160a01b0383163b15611437579060848a92836040519586948593636561e0c760e11b855260043560048601528960248601526044850152606484015260018060a01b03165af1801561142c57908891611413575b505060a08a015260643560c08a015260e0015151908082036113f4575050600160208801819052166113ed57600e5b600f8110156113d95760e087018190526001600160a01b0382163b156113d557611306604485928360405195869485936346f32a5d60e11b85526004356004860152602485019061086c565b6001600160a01b03165af180156113ca579083916113b5575b50506001600160a01b0381163b156113b157604051634e8eb8bd60e01b8152600480358183015260248201524260448201529082908290606490829084906001600160a01b03165af180156113a65761138e575b50505b6001835260c001516001600160a01b03166060830152565b6113998280926108fb565b6113a35780611373565b80fd5b6040513d84823e3d90fd5b5080fd5b816113bf916108fb565b6113b157813861131f565b6040513d85823e3d90fd5b8380fd5b634e487b7160e01b84526021600452602484fd5b60096112ba565b9250925050116114045750611376565b6333c716e760e21b8152600490fd5b8161141d916108fb565b61142857863861128b565b8680fd5b6040513d8a823e3d90fd5b8980fd5b81611445916108fb565b61145057883861121c565b8880fd5b6040513d8c823e3d90fd5b95999a5050959650905060e0919350015161148360018060a01b0391835190610a80565b5116946001600160a01b0381163b156115f1576040516346f32a5d60e11b81526004803590820152600260248201529085908290604490829084906001600160a01b03165af180156115e6579085916115d1575b505051906001600160a01b0383163b156113d5579060a48492836040519586948593638858751360e01b855260043560048601526024850152896044850152606484015281608484015260018060a01b03165af180156113a6579082916115bc575b50506040516115496020826108fb565b81815260003681376040519261155e846108c9565b8284528260208501526040840152816060840152608083015260018060a01b036044351660a083015260643560c0830152600260e0830152600161010083015280610120830152806101408301528061016083015261018082015290565b816115c6916108fb565b6113a3578038611539565b816115db916108fb565b6113d55783386114d7565b6040513d87823e3d90fd5b8480fd5b95995092969a91959993979b505060018060a01b0361161a60643560e0860151610a80565b51166001600160a01b03604435161461118857631a0a9b9f60e21b8852600488fd5b9c5050505050509750509650925090506116546121a1565b61165c6122b2565b906116678551610c0e565b879490936001600160a01b03928316939092169190855b87518110156118c4576116918189610a80565b516040519063fbc6da7560e01b82526004820152602081602481895afa908115611876578b91611881575b506040611700918c6116ce858d610a80565b51835163910048fb60e01b81526001600160a01b03909316600484015260248301529092839190829081906044820190565b0391895af1908115611876578b91611846575b50611721575b60010161167e565b958961172d888a610a80565b51863b156113b157604051906346f32a5d60e11b82526004820152600660248201528181604481838b5af180156113a657611831575b506001600160a01b03611774612252565b1661177f898b610a80565b51813b1561182d578291606483926040519485938492634e8eb8bd60e01b84526004840152600560248401524260448401525af180156113a657611818575b50506117e16001916117d0898b610a80565b516117db828a610a80565b52610c40565b966117ec818a610a80565b517fb9f69df2250e1788b862d0715b1dad98b2a50311c017ebb71f6cd83de656b06d8c80a29050611719565b81611822916108fb565b6114375789386117be565b8280fd5b8161183b916108fb565b611437578938611763565b611867915060403d811161186f575b61185f81836108fb565b810190610bf4565b905038611713565b503d611855565b6040513d8d823e3d90fd5b90506020813d82116118bc575b8161189b602093836108fb565b810103126118b85760406118b161170092610933565b91506116bc565b8a80fd5b3d915061188e565b509397949550959150506118d784610c0e565b93835b818110611a5c5750508293949550604061193a60018060a01b036118fc6122b2565b60c0860151845163910048fb60e01b81526001600160a01b039091166004808301919091523560248201529788939190921691839182906044820190565b03925af19384156113ca578394611a39575b50836119cd575b5060c0015160405193906001600160a01b031661196f856108c9565b8285528260208601528260408601526060850152608084015260018060a01b036044351660a084015260643560c0840152600660e0840152806101008401528061012084015280610140840152610160830152151561018082015290565b6001600160a01b0381163b1561182d576040516346f32a5d60e11b81526004803590820152600660248201529083908290604490829084906001600160a01b03165af180156113ca57908391611a24575b50611953565b81611a2e916108fb565b6113b1578138611a1e565b611a5391945060403d60401161186f5761185f81836108fb565b9050923861194c565b80611a696001928a610a80565b51611a748289610a80565b52016118da565b50509a50509b50503d80856080513e611a96816080516108fb565b60c0608051826080510103126115f157611ab1608051610a94565b9b611ac0602060805101610a94565b611ace604060805101610933565b9a606060805101516001600160401b03811161145057608051611af59181870191016109ac565b936080805101516001600160401b0381116114375760805101908060805101601f8301121561143757815191611b2a8361091c565b92611b3860405194856108fb565b80845260208085019160051b8301019183608051018311611ba557602001905b828210611b955750505060a06080510151906001600160401b0382116118b857608051611b89929181019101610947565b9f929c94909f9c6110e1565b8151815260209182019101611b58565b8c80fd5b6040513d86823e3d90fd5b91935091602060606001926040875180518352848101518584015201516040820152019401910191879392611053565b6333c716e760e21b8352600483fd5b83611c00919492946108fb565b9138610e82565b8580fd5b600a91610e3d565b634e487b7160e01b85526021600452602485fd5b9094503d8085833e611c3981836108fb565b8101906020818303126115f1578051906001600160401b038211611c0757016102e0818303126115f157604051916102e083018381106001600160401b03821117611eb95760405281516006811015611428578352602082015160058110156114285760208401526040820151600f8110156114285760408401526060820151600f811015611428576060840152611cd360808301610933565b6080840152611ce460a08301610933565b60a0840152611cf560c08301610933565b60c0840152611d0660e08301610933565b60e08401526101008201516101008401526101208201516101208401526101408201516101408401526101608201516101608401526101808201516101808401526101a08201516101a08401526101c08201516101c08401526101e08201516101e08401526102008201516001600160401b0381116114285781611d8b918401610a2c565b6102008401526102208201516001600160401b0381116114285781611db1918401610a2c565b6102208401526102408201516001600160401b03811161142857820181601f8201121561142857805190611de48261091c565b92611df260405194856108fb565b8284526020606081860194028301019181831161143757602001925b828410611e575750505050906102c0916102408401526102608101516102608401526102808101516102808401526102a08101516102a084015201516102c08201529338610e22565b60608483031261143757604051606081018181106001600160401b03821117611ea5579160209160609360405286518152828701518382015260408701516040820152815201930192611e0e565b634e487b7160e01b8c52604160045260248cfd5b634e487b7160e01b87526041600452602487fd5b9097503d8084833e611edf81836108fb565b8101906020818303126113d5578051906001600160401b0382116115f1570190610160828203126113d5576040519161016083018381106001600160401b0382111761206757604052805183526020810151602084015260408101516040840152606081015160608401526080810151608084015260a081015160a084015260c08101516006811015611c075760c084015260e08101516001600160401b038111611c075782611f90918301610947565b60e08401526101008101516001600160401b038111611c0757810182601f82011215611c07578051611fc18161091c565b91611fcf60405193846108fb565b81835260208084019260051b8201019085821161145057602001915b81831061204e575050506101008401526101208101516001600160401b038111611c07578261201b9183016109ac565b610120840152610140810151906001600160401b038211611c07576120419291016109ac565b6101408201529638610dec565b8251600581101561143757815260209283019201611feb565b634e487b7160e01b86526041600452602486fd5b9095506020813d6020116120a7575b81612097602093836108fb565b810103126113b157519438610daf565b3d915061208a565b9096506020813d6020116120e3575b816120cb602093836108fb565b81010312611428576120dc90610933565b9538610d78565b3d91506120be565b50604051903d90823e3d90fd5b50956020813d602011612130575b81612113602093836108fb565b81010312611428579561212860649697610933565b879650610d17565b3d9150612106565b94506020863d60201161216c575b81612153602093836108fb565b810103126115f157612166606496610933565b94610cc7565b3d9150612146565b604051903d90823e3d90fd5b6000805160206123ad833981519152546001600160a01b0316330361039557565b600054604051631bae711d60e21b815260206004820181905260126024830152712a3930b739b0b1ba34b7b726b0b730b3b2b960711b60448301529091829060649082906001600160a01b03165afa9081156122465760009161220c575b506001600160a01b031690565b90506020813d60201161223e575b81612227602093836108fb565b810103126101325761223890610933565b386121ff565b3d915061221a565b6040513d6000823e3d90fd5b600054604051631bae711d60e21b8152602060048201819052600860248301526749646c656e65737360c01b60448301529091829060649082906001600160a01b03165afa9081156122465760009161220c57506001600160a01b031690565b600054604051631bae711d60e21b8152602060048201819052600660248301526551756575657360d01b60448301529091829060649082906001600160a01b03165afa9081156122465760009161220c57506001600160a01b031690565b60008051602061240d83398151915280546001600160a01b03199081169091556000805160206123ad83398151915280549182166001600160a01b0393841690811790915591167f8be0079c531659141344cd1fd0a4f28419497f9722a3daafe3b4186f6b6457e0600080a3565b60ff6000805160206123ed8339815191525460401c161561239b57565b631afcd79f60e31b60005260046000fdfe9016d09d72d40fdae2fd8ceac6b6234c7706214fd39c1cd1e609a0528c1993009b779b17422d0df92223018b32b4d1fa46e071723d6817e2486d003becc55f00f0c57e16840df040f15088dc2f81fe391c3923bec73e23a9662efc9c229c6a00237e158222e3e6968b72b9db0d8043aacf074ad9f650f0d1606b4d82ee432c00a2646970667358221220afb1e2bff8de1b50907bbec7d9ce0e7dee85048f222612b3ba1e1ee5e79c18ce64736f6c634300081c0033",
  "linkReferences": {},
  "deployedLinkReferences": {}
}