{
  "_format": "hh-sol-artifact-1",
  "contractName": "MockRoundsForCommitting",
  "sourceName": "contracts/test-helpers/MockRoundsForCommitting.sol",
  "abi": [
    {
      "inputs": [
        {
          "internalType": "bytes32",
          "name": "txId",
          "type": "bytes32"
        }
      ],
      "name": "getLastRoundData",
      "outputs": [
        {
          "internalType": "uint256",
          "name": "",
          "type": "uint256"
        },
        {
          "components": [
            {
              "internalType": "uint256",
              "name": "round",
              "type": "uint256"
            },
            {
              "internalType": "uint256",
              "name": "leaderIndex",
              "type": "uint256"
            },
            {
              "internalType": "uint256",
              "name": "votesCommitted",
              "type": "uint256"
            },
            {
              "internalType": "uint256",
              "name": "votesRevealed",
              "type": "uint256"
            },
            {
              "internalType": "uint256",
              "name": "appealBond",
              "type": "uint256"
            },
            {
              "internalType": "uint256",
              "name": "rotationsLeft",
              "type": "uint256"
            },
            {
              "internalType": "enum ITransactions.ResultType",
              "name": "result",
              "type": "uint8"
            },
            {
              "internalType": "address[]",
              "name": "roundValidators",
              "type": "address[]"
            },
            {
              "internalType": "enum ITransactions.VoteType[]",
              "name": "validatorVotes",
              "type": "uint8[]"
            },
            {
              "internalType": "bytes32[]",
              "name": "validatorVotesHash",
              "type": "bytes32[]"
            },
            {
              "internalType": "bytes32[]",
              "name": "validatorResultHash",
              "type": "bytes32[]"
            }
          ],
          "internalType": "struct ITransactions.RoundData",
          "name": "",
          "type": "tuple"
        }
      ],
      "stateMutability": "view",
      "type": "function"
    },
    {
      "inputs": [
        {
          "internalType": "bytes32",
          "name": "",
          "type": "bytes32"
        }
      ],
      "name": "getRotationsLeft",
      "outputs": [
        {
          "internalType": "uint256",
          "name": "",
          "type": "uint256"
        }
      ],
      "stateMutability": "pure",
      "type": "function"
    },
    {
      "inputs": [
        {
          "internalType": "bytes32",
          "name": "txId",
          "type": "bytes32"
        },
        {
          "internalType": "uint256",
          "name": "round",
          "type": "uint256"
        }
      ],
      "name": "getRoundData",
      "outputs": [
        {
          "components": [
            {
              "internalType": "uint256",
              "name": "round",
              "type": "uint256"
            },
            {
              "internalType": "uint256",
              "name": "leaderIndex",
              "type": "uint256"
            },
            {
              "internalType": "uint256",
              "name": "votesCommitted",
              "type": "uint256"
            },
            {
              "internalType": "uint256",
              "name": "votesRevealed",
              "type": "uint256"
            },
            {
              "internalType": "uint256",
              "name": "appealBond",
              "type": "uint256"
            },
            {
              "internalType": "uint256",
              "name": "rotationsLeft",
              "type": "uint256"
            },
            {
              "internalType": "enum ITransactions.ResultType",
              "name": "result",
              "type": "uint8"
            },
            {
              "internalType": "address[]",
              "name": "roundValidators",
              "type": "address[]"
            },
            {
              "internalType": "enum ITransactions.VoteType[]",
              "name": "validatorVotes",
              "type": "uint8[]"
            },
            {
              "internalType": "bytes32[]",
              "name": "validatorVotesHash",
              "type": "bytes32[]"
            },
            {
              "internalType": "bytes32[]",
              "name": "validatorResultHash",
              "type": "bytes32[]"
            }
          ],
          "internalType": "struct ITransactions.RoundData",
          "name": "",
          "type": "tuple"
        }
      ],
      "stateMutability": "view",
      "type": "function"
    },
    {
      "inputs": [
        {
          "internalType": "bytes32",
          "name": "txId",
          "type": "bytes32"
        }
      ],
      "name": "getRoundNumber",
      "outputs": [
        {
          "internalType": "uint256",
          "name": "",
          "type": "uint256"
        }
      ],
      "stateMutability": "view",
      "type": "function"
    },
    {
      "inputs": [],
      "name": "lastCommitHash",
      "outputs": [
        {
          "internalType": "bytes32",
          "name": "",
          "type": "bytes32"
        }
      ],
      "stateMutability": "view",
      "type": "function"
    },
    {
      "inputs": [],
      "name": "lastCommitRound",
      "outputs": [
        {
          "internalType": "uint256",
          "name": "",
          "type": "uint256"
        }
      ],
      "stateMutability": "view",
      "type": "function"
    },
    {
      "inputs": [],
      "name": "lastCommitTxId",
      "outputs": [
        {
          "internalType": "bytes32",
          "name": "",
          "type": "bytes32"
        }
      ],
      "stateMutability": "view",
      "type": "function"
    },
    {
      "inputs": [],
      "name": "lastCommitValidator",
      "outputs": [
        {
          "internalType": "address",
          "name": "",
          "type": "address"
        }
      ],
      "stateMutability": "view",
      "type": "function"
    },
    {
      "inputs": [],
      "name": "lastCommitValidatorIndex",
      "outputs": [
        {
          "internalType": "uint256",
          "name": "",
          "type": "uint256"
        }
      ],
      "stateMutability": "view",
      "type": "function"
    },
    {
      "inputs": [],
      "name": "lastUpdateLeaderIndex",
      "outputs": [
        {
          "internalType": "uint256",
          "name": "",
          "type": "uint256"
        }
      ],
      "stateMutability": "view",
      "type": "function"
    },
    {
      "inputs": [],
      "name": "lastUpdateNewLeader",
      "outputs": [
        {
          "internalType": "address",
          "name": "",
          "type": "address"
        }
      ],
      "stateMutability": "view",
      "type": "function"
    },
    {
      "inputs": [],
      "name": "lastUpdateResetVotes",
      "outputs": [
        {
          "internalType": "bool",
          "name": "",
          "type": "bool"
        }
      ],
      "stateMutability": "view",
      "type": "function"
    },
    {
      "inputs": [],
      "name": "lastUpdateRound",
      "outputs": [
        {
          "internalType": "uint256",
          "name": "",
          "type": "uint256"
        }
      ],
      "stateMutability": "view",
      "type": "function"
    },
    {
      "inputs": [],
      "name": "lastUpdateTxId",
      "outputs": [
        {
          "internalType": "bytes32",
          "name": "",
          "type": "bytes32"
        }
      ],
      "stateMutability": "view",
      "type": "function"
    },
    {
      "inputs": [],
      "name": "resetMockState",
      "outputs": [],
      "stateMutability": "nonpayable",
      "type": "function"
    },
    {
      "inputs": [
        {
          "internalType": "bytes32",
          "name": "txId",
          "type": "bytes32"
        },
        {
          "internalType": "uint256",
          "name": "round",
          "type": "uint256"
        },
        {
          "internalType": "uint256",
          "name": "leaderIndex",
          "type": "uint256"
        },
        {
          "internalType": "bytes32",
          "name": "resultHash",
          "type": "bytes32"
        }
      ],
      "name": "setMockLeaderResultHash",
      "outputs": [],
      "stateMutability": "nonpayable",
      "type": "function"
    },
    {
      "inputs": [
        {
          "internalType": "bytes32",
          "name": "txId",
          "type": "bytes32"
        },
        {
          "internalType": "uint256",
          "name": "round",
          "type": "uint256"
        },
        {
          "internalType": "uint256",
          "name": "leaderIndex",
          "type": "uint256"
        },
        {
          "internalType": "address[]",
          "name": "validators",
          "type": "address[]"
        }
      ],
      "name": "setMockRoundData",
      "outputs": [],
      "stateMutability": "nonpayable",
      "type": "function"
    },
    {
      "inputs": [
        {
          "internalType": "bytes32",
          "name": "txId",
          "type": "bytes32"
        },
        {
          "internalType": "uint256",
          "name": "round",
          "type": "uint256"
        },
        {
          "internalType": "uint256",
          "name": "validatorIndex",
          "type": "uint256"
        },
        {
          "internalType": "bytes32",
          "name": "voteHash",
          "type": "bytes32"
        }
      ],
      "name": "setMockValidatorVoteHash",
      "outputs": [],
      "stateMutability": "nonpayable",
      "type": "function"
    },
    {
      "inputs": [
        {
          "internalType": "bytes32",
          "name": "txId",
          "type": "bytes32"
        },
        {
          "internalType": "uint256",
          "name": "round",
          "type": "uint256"
        },
        {
          "internalType": "uint256",
          "name": "votesCommitted",
          "type": "uint256"
        }
      ],
      "name": "setMockVotesCommitted",
      "outputs": [],
      "stateMutability": "nonpayable",
      "type": "function"
    },
    {
      "inputs": [
        {
          "internalType": "bytes32",
          "name": "_txId",
          "type": "bytes32"
        },
        {
          "internalType": "uint256",
          "name": "_round",
          "type": "uint256"
        },
        {
          "internalType": "address",
          "name": "_validator",
          "type": "address"
        },
        {
          "internalType": "bytes32",
          "name": "_commitHash",
          "type": "bytes32"
        },
        {
          "internalType": "uint256",
          "name": "_validatorIndex",
          "type": "uint256"
        },
        {
          "components": [
            {
              "internalType": "uint256",
              "name": "round",
              "type": "uint256"
            },
            {
              "internalType": "uint256",
              "name": "leaderIndex",
              "type": "uint256"
            },
            {
              "internalType": "uint256",
              "name": "votesCommitted",
              "type": "uint256"
            },
            {
              "internalType": "uint256",
              "name": "votesRevealed",
              "type": "uint256"
            },
            {
              "internalType": "uint256",
              "name": "appealBond",
              "type": "uint256"
            },
            {
              "internalType": "uint256",
              "name": "rotationsLeft",
              "type": "uint256"
            },
            {
              "internalType": "enum ITransactions.ResultType",
              "name": "result",
              "type": "uint8"
            },
            {
              "internalType": "address[]",
              "name": "roundValidators",
              "type": "address[]"
            },
            {
              "internalType": "enum ITransactions.VoteType[]",
              "name": "validatorVotes",
              "type": "uint8[]"
            },
            {
              "internalType": "bytes32[]",
              "name": "validatorVotesHash",
              "type": "bytes32[]"
            },
            {
              "internalType": "bytes32[]",
              "name": "validatorResultHash",
              "type": "bytes32[]"
            }
          ],
          "internalType": "struct ITransactions.RoundData",
          "name": "",
          "type": "tuple"
        }
      ],
      "name": "updateCommitVote",
      "outputs": [],
      "stateMutability": "nonpayable",
      "type": "function"
    },
    {
      "inputs": [],
      "name": "updateCommitVoteCalled",
      "outputs": [
        {
          "internalType": "bool",
          "name": "",
          "type": "bool"
        }
      ],
      "stateMutability": "view",
      "type": "function"
    },
    {
      "inputs": [
        {
          "internalType": "bytes32",
          "name": "_txId",
          "type": "bytes32"
        },
        {
          "internalType": "uint256",
          "name": "_round",
          "type": "uint256"
        },
        {
          "internalType": "address",
          "name": "_newLeader",
          "type": "address"
        },
        {
          "internalType": "uint256",
          "name": "_leaderIndex",
          "type": "uint256"
        },
        {
          "internalType": "bool",
          "name": "_resetVotes",
          "type": "bool"
        }
      ],
      "name": "updateLeaderAndResetVotes",
      "outputs": [],
      "stateMutability": "nonpayable",
      "type": "function"
    },
    {
      "inputs": [],
      "name": "updateLeaderCalled",
      "outputs": [
        {
          "internalType": "bool",
          "name": "",
          "type": "bool"
        }
      ],
      "stateMutability": "view",
      "type": "function"
    }
  ],
  "bytecode": "0x60808060405234601557611656908161001b8239f35b600080fdfe608080604052600436101561001357600080fd5b60003560e01c9081631b7a9be7146109e8575080631e0d497a146109c557806320090e9d146109595780632118ff161461093b578063213d53f21461090057806341c9fcb2146108d757806351af47be1461089d578063554918941461087a57806356f455a91461085c5780635af54469146108055780635d652ac7146107df578063665b7541146107c15780636e72b8121461078757806384c248311461071857806388587513146106605780638d1d845114610642578063928e52cf14610624578063998f979914610408578063aa9c702c146103ea578063ba15d635146103be578063c159bfc314610166578063db3c2aac1461013d5763f66530b91461011c57600080fd5b3461013857602036600319011261013857602060405160038152f35b600080fd5b34610138576000366003190112610138576005546040516001600160a01b039091168152602090f35b34610138576080366003190112610138576004356024356064356001600160401b0381116101385761019c903690600401610bfa565b6000838152602081815260408083208590556001808352818420868552909252909120838155604435918101919091558151906007016001600160401b03821161032557600160401b8211610325578054828255808310610395575b506020830190600052602060002060005b838110610378575050505061021e81516115ee565b83600052600160205260406000208360005260205260096040600020018151916001600160401b03831161032557600160401b831161032557815483835580841061034f575b5060200190600052602060002060005b83811061033b57868661028787516115ee565b916000526001602052604060002090600052602052600a604060002001908051906001600160401b03821161032557600160401b82116103255782548284558083106102fc575b506020019160005260206000209160005b8281106102e857005b6001906020835193019281860155016102df565b8360005282602060002091820191015b81811061031957506102ce565b6000815560010161030c565b634e487b7160e01b600052604160045260246000fd5b600190602084519401938184015501610274565b8260005283602060002091820191015b81811061036c5750610264565b6000815560010161035f565b82516001600160a01b031681830155602090920191600101610209565b8160005282602060002091820191015b8181106103b257506101f8565b600081556001016103a5565b346101385760203660031901126101385760043560005260006020526020604060002054604051908152f35b34610138576000366003190112610138576020600654604051908152f35b346101385760c036600319011261013857602435600435610427610b90565b606435926084359060a435936001600160401b038511610138576101606003198636030112610138576040519361045d85610ba6565b856004013585526024860135602086015260448601356040860152606486013560608601526084860135608086015260a486013560a086015260c486013560068110156101385760c086015260e48601356001600160401b038111610138576104cc9060043691890101610bfa565b60e08601526101048601356001600160401b0381116101385786013660238201121561013857600481013561050081610be3565b9161050e6040519384610bc2565b818352602060048185019360051b830101019036821161013857602401915b81831061060b575050506101008601526101248601356001600160401b038111610138576105619060043691890101610c68565b610120860152610144860135946001600160401b038611610138576101406105956106079860046105f09936920101610c68565b91015261010061ff00196007541617600755816008558260095560018060a01b031660018060a01b0319600a541617600a5585600b5582600c5560005260016020526040600020906000526020526009604060002001610cc5565b819391549060031b91821b91600019901b19161790565b9055005b823560058110156101385781526020928301920161052d565b34610138576000366003190112610138576020600c54604051908152f35b34610138576000366003190112610138576020600b54604051908152f35b346101385760a03660031901126101385760043560243561067f610b90565b906064359060843593841515809503610138576106f893600160ff196002541617600255816003558260045560018060a01b0316948560018060a01b031960055416176005558360065560ff80196007541691161760075560005260016020526040600020906000526020526007604060002001610cc5565b81546001600160a01b0360039290921b91821b191692901b919091179055005b3461013857602036600319011261013857600435610734610cf3565b508060005260006020526040600020549060005260016020526040600020816000526020526107666040600020610d98565b906107836040519283928352604060208401526040830190610a78565b0390f35b34610138576105f061060761079b36610a03565b94926000929192526001602052604060002090600052602052600a604060002001610cc5565b34610138576000366003190112610138576020600454604051908152f35b3461013857600036600319011261013857602060ff60075460081c166040519015158152f35b346101385760403660031901126101385761081e610cf3565b50600435600052600160205260406000206024356000526020526107836108486040600020610d98565b604051918291602083526020830190610a78565b34610138576000366003190112610138576020600854604051908152f35b3461013857600036600319011261013857602060ff600754166040519015158152f35b34610138576105f06106076108b136610a03565b949260009291925260016020526040600020906000526020526009604060002001610cc5565b3461013857600036600319011261013857600a546040516001600160a01b039091168152602090f35b346101385760603660031901126101385760043560005260016020526040600020602435600052602052604435600260406000200155600080f35b34610138576000366003190112610138576020600954604051908152f35b346101385760003660031901126101385760ff19600254166002556000600355600060045560018060a01b031960055416600555600060065561ffff19600754166007556000600855600060095560018060a01b0319600a5416600a556000600b556000600c55600080f35b3461013857600036600319011261013857602060ff600254166040519015158152f35b34610138576000366003190112610138576020906003548152f35b60809060031901126101385760043590602435906044359060643590565b906005821015610a2e5752565b634e487b7160e01b600052602160045260246000fd5b906020808351928381520192019060005b818110610a625750505090565b8251845260209384019390920191600101610a55565b919091610160830192815181526020820151602082015260408201516040820152606082015160608201526080820151608082015260a082015160a082015260c08201516006811015610a2e5760c082015260e08201519361016060e083015284518091526020610180830195019060005b818110610b7157505050610100820151938181036101008301526020808651928381520195019060005b818110610b5257505050610140610b3d610b4f9495610120850151848203610120860152610a44565b92015190610140818403910152610a44565b90565b90919560208082610b666001948b51610a21565b019701929101610b14565b82516001600160a01b0316875260209687019690920191600101610aea565b604435906001600160a01b038216820361013857565b61016081019081106001600160401b0382111761032557604052565b90601f801991011681019081106001600160401b0382111761032557604052565b6001600160401b0381116103255760051b60200190565b9080601f8301121561013857813590610c1282610be3565b92610c206040519485610bc2565b82845260208085019360051b82010191821161013857602001915b818310610c485750505090565b82356001600160a01b038116810361013857815260209283019201610c3b565b9080601f83011215610138578135610c7f81610be3565b92610c8d6040519485610bc2565b81845260208085019260051b82010192831161013857602001905b828210610cb55750505090565b8135815260209182019101610ca8565b8054821015610cdd5760005260206000200190600090565b634e487b7160e01b600052603260045260246000fd5b60405190610d0082610ba6565b60606101408360008152600060208201526000604082015260008382015260006080820152600060a0820152600060c08201528260e082015282610100820152826101208201520152565b906040519182815491828252602082019060005260206000209260005b818110610d7f575050610d7d92500383610bc2565b565b8454835260019485019487945060209093019201610d68565b90604051610da581610ba6565b80928054825260018101546020830152600281015460408301526003810154606083015260048101546080830152600581015460a083015260ff6006820154166006811015610a2e5760c0830152600781016040518082602082945493848152019060005260206000209260005b8181106115cc575050610e2892500382610bc2565b60e0830152600881016040519081602082549182815201916000526020600020906000915b81601f8401106113495784600a946101409794610f8f9794610f7194549181811061132e575b818110611310575b8181106112f2575b8181106112d4575b8181106112b7575b818110611299575b81811061127b575b81811061125d575b81811061123f575b818110611221575b818110611203575b8181106111e5575b8181106111c7575b8181106111a9575b81811061118b575b81811061116d575b81811061114f575b818110611131575b818110611113575b8181106110f5575b8181106110d7575b8181106110b9575b81811061109b575b81811061107d575b81811061105f575b818110611041575b818110611023575b818110611005575b818110610fe7575b818110610fc9575b818110610fab575b10610f94575b500382610bc2565b610100860152610f8360098201610d4b565b61012086015201610d4b565b910152565b90610fa48160209360f81c610a21565b0138610f69565b92602081610fc160019360ff8760f01c16610a21565b019301610f63565b92602081610fdf60019360ff8760e81c16610a21565b019301610f5b565b92602081610ffd60019360ff8760e01c16610a21565b019301610f53565b9260208161101b60019360ff8760d81c16610a21565b019301610f4b565b9260208161103960019360ff8760d01c16610a21565b019301610f43565b9260208161105760019360ff8760c81c16610a21565b019301610f3b565b9260208161107560019360ff8760c01c16610a21565b019301610f33565b9260208161109360019360ff8760b81c16610a21565b019301610f2b565b926020816110b160019360ff8760b01c16610a21565b019301610f23565b926020816110cf60019360ff8760a81c16610a21565b019301610f1b565b926020816110ed60019360ff8760a01c16610a21565b019301610f13565b9260208161110b60019360ff8760981c16610a21565b019301610f0b565b9260208161112960019360ff8760901c16610a21565b019301610f03565b9260208161114760019360ff8760881c16610a21565b019301610efb565b9260208161116560019360ff8760801c16610a21565b019301610ef3565b9260208161118360019360ff8760781c16610a21565b019301610eeb565b926020816111a160019360ff8760701c16610a21565b019301610ee3565b926020816111bf60019360ff8760681c16610a21565b019301610edb565b926020816111dd60019360ff8760601c16610a21565b019301610ed3565b926020816111fb60019360ff8760581c16610a21565b019301610ecb565b9260208161121960019360ff8760501c16610a21565b019301610ec3565b9260208161123760019360ff8760481c16610a21565b019301610ebb565b9260208161125560019360ff8760401c16610a21565b019301610eb3565b9260208161127360019360ff8760381c16610a21565b019301610eab565b9260208161129160019360ff8760301c16610a21565b019301610ea3565b926020816112af60019360ff8760281c16610a21565b019301610e9b565b926020816112cc60019360ff87851c16610a21565b019301610e93565b926020816112ea60019360ff8760181c16610a21565b019301610e8b565b9260208161130860019360ff8760101c16610a21565b019301610e83565b9260208161132660019360ff8760081c16610a21565b019301610e7b565b9260208161134160019360ff8716610a21565b019301610e73565b9260016104006020926115c187546113648360ff8316610a21565b61137686840160ff8360081c16610a21565b6113896040840160ff8360101c16610a21565b61139c6060840160ff8360181c16610a21565b6113ae6080840160ff83891c16610a21565b6113c160a0840160ff8360281c16610a21565b6113d460c0840160ff8360301c16610a21565b6113e760e0840160ff8360381c16610a21565b6113fb610100840160ff8360401c16610a21565b61140f610120840160ff8360481c16610a21565b611423610140840160ff8360501c16610a21565b611437610160840160ff8360581c16610a21565b61144b610180840160ff8360601c16610a21565b61145f6101a0840160ff8360681c16610a21565b6114736101c0840160ff8360701c16610a21565b6114876101e0840160ff8360781c16610a21565b61149b610200840160ff8360801c16610a21565b6114af610220840160ff8360881c16610a21565b6114c3610240840160ff8360901c16610a21565b6114d7610260840160ff8360981c16610a21565b6114eb610280840160ff8360a01c16610a21565b6114ff6102a0840160ff8360a81c16610a21565b6115136102c0840160ff8360b01c16610a21565b6115276102e0840160ff8360b81c16610a21565b61153b610300840160ff8360c01c16610a21565b61154f610320840160ff8360c81c16610a21565b611563610340840160ff8360d01c16610a21565b611577610360840160ff8360d81c16610a21565b61158b610380840160ff8360e01c16610a21565b61159f6103a0840160ff8360e81c16610a21565b6115b36103c0840160ff8360f01c16610a21565b6103e083019060f81c610a21565b019401920191610e4d565b84546001600160a01b0316835260019485019486945060209093019201610e13565b906115f882610be3565b6116056040519182610bc2565b8281528092611616601f1991610be3565b019060203691013756fea26469706673582212205441cfc2f6d8544daa7b9ce2c90a76e598c7dbaa8dbcd36f2e764be837041f4e64736f6c634300081c0033",
  "linkReferences": {},
  "deployedLinkReferences": {}
}