{
  "_format": "hh-sol-artifact-1",
  "contractName": "MockNFTMinterForCreation",
  "sourceName": "contracts/test-helpers/MockNFTMinterForCreation.sol",
  "abi": [
    {
      "inputs": [
        {
          "internalType": "address",
          "name": "ghost",
          "type": "address"
        },
        {
          "internalType": "bytes32",
          "name": "txId",
          "type": "bytes32"
        },
        {
          "internalType": "uint256",
          "name": "epoch",
          "type": "uint256"
        }
      ],
      "name": "addTxToGhost",
      "outputs": [],
      "stateMutability": "nonpayable",
      "type": "function"
    },
    {
      "inputs": [
        {
          "internalType": "address",
          "name": "developer",
          "type": "address"
        }
      ],
      "name": "getGhostsForDeveloper",
      "outputs": [
        {
          "internalType": "address[]",
          "name": "",
          "type": "address[]"
        }
      ],
      "stateMutability": "view",
      "type": "function"
    },
    {
      "inputs": [
        {
          "internalType": "address",
          "name": "ghost",
          "type": "address"
        },
        {
          "internalType": "uint256",
          "name": "epoch",
          "type": "uint256"
        }
      ],
      "name": "getTxIdsForGhostAndEpoch",
      "outputs": [
        {
          "internalType": "bytes32[]",
          "name": "",
          "type": "bytes32[]"
        }
      ],
      "stateMutability": "view",
      "type": "function"
    },
    {
      "inputs": [
        {
          "internalType": "address",
          "name": "developer",
          "type": "address"
        }
      ],
      "name": "hasNFT",
      "outputs": [
        {
          "internalType": "bool",
          "name": "",
          "type": "bool"
        }
      ],
      "stateMutability": "view",
      "type": "function"
    },
    {
      "inputs": [
        {
          "internalType": "address",
          "name": "developer",
          "type": "address"
        },
        {
          "internalType": "address",
          "name": "ghost",
          "type": "address"
        }
      ],
      "name": "mint",
      "outputs": [],
      "stateMutability": "nonpayable",
      "type": "function"
    },
    {
      "inputs": [
        {
          "internalType": "address",
          "name": "developer",
          "type": "address"
        },
        {
          "internalType": "bool",
          "name": "value",
          "type": "bool"
        }
      ],
      "name": "setHasNFT",
      "outputs": [],
      "stateMutability": "nonpayable",
      "type": "function"
    }
  ],
  "bytecode": "0x60808060405234601557610441908161001b8239f35b600080fdfe6080604052600436101561001257600080fd5b60003560e01c8062e703ca1461033057806301d1ae34146102685780633157e0661461021a578063785f8ee3146101db5780639d943d161461010f5763ee1fe2ad1461005d57600080fd5b3461010a57604036600319011261010a576100766103a5565b6024356001600160a01b038116919082900361010a576001600160a01b0316600090815260208181526040808320805460ff1916600190811790915590915290208054600160401b8110156100f4576100d4916001820181556103bb565b81546001600160a01b0360039290921b91821b191692901b919091179055005b634e487b7160e01b600052604160045260246000fd5b600080fd5b3461010a57602036600319011261010a576001600160a01b036101306103a5565b16600052600160205260406000206040518060208354918281520190819360005260206000209060005b8181106101bc57505050816101709103826103e9565b6040519182916020830190602084525180915260408301919060005b81811061019a575050500390f35b82516001600160a01b031684528594506020938401939092019160010161018c565b82546001600160a01b031684526020909301926001928301920161015a565b3461010a57602036600319011261010a576001600160a01b036101fc6103a5565b166000526000602052602060ff604060002054166040519015158152f35b3461010a57604036600319011261010a576102336103a5565b6024359081151580920361010a5760018060a01b0316600052600060205260406000209060ff80198354169116179055600080f35b3461010a57604036600319011261010a576001600160a01b036102896103a5565b166000526002602052604060002060243560005260205260406000206040518060208354918281520190819360005260206000209060005b81811061031a57505050816102d79103826103e9565b6040519182916020830190602084525180915260408301919060005b818110610301575050500390f35b82518452859450602093840193909201916001016102f3565b82548452602090930192600192830192016102c1565b3461010a57606036600319011261010a576001600160a01b036103516103a5565b166000526002602052604060002060443560005260205260406000208054600160401b8110156100f45761038a916001820181556103bb565b815460001960039290921b91821b191660243590911b179055005b600435906001600160a01b038216820361010a57565b80548210156103d35760005260206000200190600090565b634e487b7160e01b600052603260045260246000fd5b90601f8019910116810190811067ffffffffffffffff8211176100f45760405256fea26469706673582212203892836a9e24666da15be0353712d9889ce7449b46db2b74d40d4d71328b697f64736f6c634300081c0033",
  "linkReferences": {},
  "deployedLinkReferences": {}
}