{
  "_format": "hh-sol-artifact-1",
  "contractName": "StakingShim",
  "sourceName": "contracts/staking/StakingShim.sol",
  "abi": [
    {
      "inputs": [],
      "name": "AccessControlBadConfirmation",
      "type": "error"
    },
    {
      "inputs": [
        {
          "internalType": "address",
          "name": "account",
          "type": "address"
        },
        {
          "internalType": "bytes32",
          "name": "neededRole",
          "type": "bytes32"
        }
      ],
      "name": "AccessControlUnauthorizedAccount",
      "type": "error"
    },
    {
      "inputs": [],
      "name": "ArrayLengthMismatch",
      "type": "error"
    },
    {
      "inputs": [
        {
          "internalType": "bytes4",
          "name": "selector",
          "type": "bytes4"
        }
      ],
      "name": "FunctionNotFound",
      "type": "error"
    },
    {
      "inputs": [],
      "name": "InvalidInitialization",
      "type": "error"
    },
    {
      "inputs": [],
      "name": "NotInitializing",
      "type": "error"
    },
    {
      "inputs": [
        {
          "internalType": "address",
          "name": "owner",
          "type": "address"
        }
      ],
      "name": "OwnableInvalidOwner",
      "type": "error"
    },
    {
      "inputs": [
        {
          "internalType": "address",
          "name": "account",
          "type": "address"
        }
      ],
      "name": "OwnableUnauthorizedAccount",
      "type": "error"
    },
    {
      "inputs": [],
      "name": "ReentrancyGuardReentrantCall",
      "type": "error"
    },
    {
      "anonymous": false,
      "inputs": [
        {
          "indexed": true,
          "internalType": "bytes4",
          "name": "selector",
          "type": "bytes4"
        },
        {
          "indexed": false,
          "internalType": "address",
          "name": "facet",
          "type": "address"
        }
      ],
      "name": "FacetSet",
      "type": "event"
    },
    {
      "anonymous": false,
      "inputs": [
        {
          "indexed": true,
          "internalType": "address",
          "name": "sender",
          "type": "address"
        },
        {
          "indexed": false,
          "internalType": "uint256",
          "name": "amount",
          "type": "uint256"
        }
      ],
      "name": "FeesReceived",
      "type": "event"
    },
    {
      "anonymous": false,
      "inputs": [
        {
          "indexed": false,
          "internalType": "uint64",
          "name": "version",
          "type": "uint64"
        }
      ],
      "name": "Initialized",
      "type": "event"
    },
    {
      "anonymous": false,
      "inputs": [
        {
          "indexed": true,
          "internalType": "address",
          "name": "previousOwner",
          "type": "address"
        },
        {
          "indexed": true,
          "internalType": "address",
          "name": "newOwner",
          "type": "address"
        }
      ],
      "name": "OwnershipTransferStarted",
      "type": "event"
    },
    {
      "anonymous": false,
      "inputs": [
        {
          "indexed": true,
          "internalType": "address",
          "name": "previousOwner",
          "type": "address"
        },
        {
          "indexed": true,
          "internalType": "address",
          "name": "newOwner",
          "type": "address"
        }
      ],
      "name": "OwnershipTransferred",
      "type": "event"
    },
    {
      "anonymous": false,
      "inputs": [
        {
          "indexed": true,
          "internalType": "bytes32",
          "name": "role",
          "type": "bytes32"
        },
        {
          "indexed": true,
          "internalType": "bytes32",
          "name": "previousAdminRole",
          "type": "bytes32"
        },
        {
          "indexed": true,
          "internalType": "bytes32",
          "name": "newAdminRole",
          "type": "bytes32"
        }
      ],
      "name": "RoleAdminChanged",
      "type": "event"
    },
    {
      "anonymous": false,
      "inputs": [
        {
          "indexed": true,
          "internalType": "bytes32",
          "name": "role",
          "type": "bytes32"
        },
        {
          "indexed": true,
          "internalType": "address",
          "name": "account",
          "type": "address"
        },
        {
          "indexed": true,
          "internalType": "address",
          "name": "sender",
          "type": "address"
        }
      ],
      "name": "RoleGranted",
      "type": "event"
    },
    {
      "anonymous": false,
      "inputs": [
        {
          "indexed": true,
          "internalType": "bytes32",
          "name": "role",
          "type": "bytes32"
        },
        {
          "indexed": true,
          "internalType": "address",
          "name": "account",
          "type": "address"
        },
        {
          "indexed": true,
          "internalType": "address",
          "name": "sender",
          "type": "address"
        }
      ],
      "name": "RoleRevoked",
      "type": "event"
    },
    {
      "stateMutability": "payable",
      "type": "fallback"
    },
    {
      "inputs": [],
      "name": "DEFAULT_ADMIN_ROLE",
      "outputs": [
        {
          "internalType": "bytes32",
          "name": "",
          "type": "bytes32"
        }
      ],
      "stateMutability": "view",
      "type": "function"
    },
    {
      "inputs": [],
      "name": "DEFAULT_DELEGATOR_MIN_STAKE",
      "outputs": [
        {
          "internalType": "uint256",
          "name": "",
          "type": "uint256"
        }
      ],
      "stateMutability": "view",
      "type": "function"
    },
    {
      "inputs": [],
      "name": "DEFAULT_VALIDATOR_MIN_STAKE",
      "outputs": [
        {
          "internalType": "uint256",
          "name": "",
          "type": "uint256"
        }
      ],
      "stateMutability": "view",
      "type": "function"
    },
    {
      "inputs": [],
      "name": "DELEGATOR_UNBONDING_PERIOD",
      "outputs": [
        {
          "internalType": "uint256",
          "name": "",
          "type": "uint256"
        }
      ],
      "stateMutability": "view",
      "type": "function"
    },
    {
      "inputs": [],
      "name": "INFLATION_BASE",
      "outputs": [
        {
          "internalType": "uint256",
          "name": "",
          "type": "uint256"
        }
      ],
      "stateMutability": "view",
      "type": "function"
    },
    {
      "inputs": [],
      "name": "INFLATION_DEEPTHOUGHT_BPS",
      "outputs": [
        {
          "internalType": "uint256",
          "name": "",
          "type": "uint256"
        }
      ],
      "stateMutability": "view",
      "type": "function"
    },
    {
      "inputs": [],
      "name": "INFLATION_DEVELOPER_BPS",
      "outputs": [
        {
          "internalType": "uint256",
          "name": "",
          "type": "uint256"
        }
      ],
      "stateMutability": "view",
      "type": "function"
    },
    {
      "inputs": [],
      "name": "INFLATION_FINAL",
      "outputs": [
        {
          "internalType": "uint256",
          "name": "",
          "type": "uint256"
        }
      ],
      "stateMutability": "view",
      "type": "function"
    },
    {
      "inputs": [],
      "name": "INFLATION_INITIAL",
      "outputs": [
        {
          "internalType": "uint256",
          "name": "",
          "type": "uint256"
        }
      ],
      "stateMutability": "view",
      "type": "function"
    },
    {
      "inputs": [],
      "name": "INFLATION_MID",
      "outputs": [
        {
          "internalType": "int256",
          "name": "",
          "type": "int256"
        }
      ],
      "stateMutability": "view",
      "type": "function"
    },
    {
      "inputs": [],
      "name": "INFLATION_STAKER_BPS",
      "outputs": [
        {
          "internalType": "uint256",
          "name": "",
          "type": "uint256"
        }
      ],
      "stateMutability": "view",
      "type": "function"
    },
    {
      "inputs": [],
      "name": "INFLATION_STEEPNESS",
      "outputs": [
        {
          "internalType": "int256",
          "name": "",
          "type": "int256"
        }
      ],
      "stateMutability": "view",
      "type": "function"
    },
    {
      "inputs": [],
      "name": "INFLATION_VALIDATOR_BPS",
      "outputs": [
        {
          "internalType": "uint256",
          "name": "",
          "type": "uint256"
        }
      ],
      "stateMutability": "view",
      "type": "function"
    },
    {
      "inputs": [],
      "name": "L1_MESSENGER",
      "outputs": [
        {
          "internalType": "contract IL1Messenger",
          "name": "",
          "type": "address"
        }
      ],
      "stateMutability": "view",
      "type": "function"
    },
    {
      "inputs": [],
      "name": "QUARANTINE_MANAGER_ROLE",
      "outputs": [
        {
          "internalType": "bytes32",
          "name": "",
          "type": "bytes32"
        }
      ],
      "stateMutability": "view",
      "type": "function"
    },
    {
      "inputs": [],
      "name": "SLASH_CALLER_INCENTIVE_BPS",
      "outputs": [
        {
          "internalType": "uint256",
          "name": "",
          "type": "uint256"
        }
      ],
      "stateMutability": "view",
      "type": "function"
    },
    {
      "inputs": [],
      "name": "VALIDATOR_UNBONDING_PERIOD",
      "outputs": [
        {
          "internalType": "uint256",
          "name": "",
          "type": "uint256"
        }
      ],
      "stateMutability": "view",
      "type": "function"
    },
    {
      "inputs": [],
      "name": "acceptOwnership",
      "outputs": [],
      "stateMutability": "nonpayable",
      "type": "function"
    },
    {
      "inputs": [],
      "name": "addressManager",
      "outputs": [
        {
          "internalType": "contract IAddressManager",
          "name": "",
          "type": "address"
        }
      ],
      "stateMutability": "view",
      "type": "function"
    },
    {
      "inputs": [],
      "name": "burning",
      "outputs": [
        {
          "internalType": "uint256",
          "name": "",
          "type": "uint256"
        }
      ],
      "stateMutability": "view",
      "type": "function"
    },
    {
      "inputs": [],
      "name": "deepthought",
      "outputs": [
        {
          "internalType": "address payable",
          "name": "",
          "type": "address"
        }
      ],
      "stateMutability": "view",
      "type": "function"
    },
    {
      "inputs": [],
      "name": "delegatorMinStake",
      "outputs": [
        {
          "internalType": "uint256",
          "name": "",
          "type": "uint256"
        }
      ],
      "stateMutability": "view",
      "type": "function"
    },
    {
      "inputs": [],
      "name": "epoch",
      "outputs": [
        {
          "internalType": "uint256",
          "name": "",
          "type": "uint256"
        }
      ],
      "stateMutability": "view",
      "type": "function"
    },
    {
      "inputs": [],
      "name": "epochEven",
      "outputs": [
        {
          "internalType": "uint256",
          "name": "start",
          "type": "uint256"
        },
        {
          "internalType": "uint256",
          "name": "end",
          "type": "uint256"
        },
        {
          "internalType": "uint256",
          "name": "inflation",
          "type": "uint256"
        },
        {
          "internalType": "uint256",
          "name": "weight",
          "type": "uint256"
        },
        {
          "internalType": "uint256",
          "name": "weightDeposit",
          "type": "uint256"
        },
        {
          "internalType": "uint256",
          "name": "weightWithdrawal",
          "type": "uint256"
        },
        {
          "internalType": "uint256",
          "name": "vcount",
          "type": "uint256"
        },
        {
          "internalType": "uint256",
          "name": "claimed",
          "type": "uint256"
        },
        {
          "internalType": "uint256",
          "name": "stakeDeposit",
          "type": "uint256"
        },
        {
          "internalType": "uint256",
          "name": "stakeWithdrawal",
          "type": "uint256"
        },
        {
          "internalType": "uint256",
          "name": "slashed",
          "type": "uint256"
        }
      ],
      "stateMutability": "view",
      "type": "function"
    },
    {
      "inputs": [],
      "name": "epochExtraMinDuration",
      "outputs": [
        {
          "internalType": "uint256",
          "name": "",
          "type": "uint256"
        }
      ],
      "stateMutability": "view",
      "type": "function"
    },
    {
      "inputs": [],
      "name": "epochMinDuration",
      "outputs": [
        {
          "internalType": "uint256",
          "name": "",
          "type": "uint256"
        }
      ],
      "stateMutability": "view",
      "type": "function"
    },
    {
      "inputs": [],
      "name": "epochMinDurationThreshold",
      "outputs": [
        {
          "internalType": "uint256",
          "name": "",
          "type": "uint256"
        }
      ],
      "stateMutability": "view",
      "type": "function"
    },
    {
      "inputs": [],
      "name": "epochOdd",
      "outputs": [
        {
          "internalType": "uint256",
          "name": "start",
          "type": "uint256"
        },
        {
          "internalType": "uint256",
          "name": "end",
          "type": "uint256"
        },
        {
          "internalType": "uint256",
          "name": "inflation",
          "type": "uint256"
        },
        {
          "internalType": "uint256",
          "name": "weight",
          "type": "uint256"
        },
        {
          "internalType": "uint256",
          "name": "weightDeposit",
          "type": "uint256"
        },
        {
          "internalType": "uint256",
          "name": "weightWithdrawal",
          "type": "uint256"
        },
        {
          "internalType": "uint256",
          "name": "vcount",
          "type": "uint256"
        },
        {
          "internalType": "uint256",
          "name": "claimed",
          "type": "uint256"
        },
        {
          "internalType": "uint256",
          "name": "stakeDeposit",
          "type": "uint256"
        },
        {
          "internalType": "uint256",
          "name": "stakeWithdrawal",
          "type": "uint256"
        },
        {
          "internalType": "uint256",
          "name": "slashed",
          "type": "uint256"
        }
      ],
      "stateMutability": "view",
      "type": "function"
    },
    {
      "inputs": [],
      "name": "epochZeroMinDuration",
      "outputs": [
        {
          "internalType": "uint256",
          "name": "",
          "type": "uint256"
        }
      ],
      "stateMutability": "view",
      "type": "function"
    },
    {
      "inputs": [],
      "name": "finalizationPhaseAddress",
      "outputs": [
        {
          "internalType": "address",
          "name": "",
          "type": "address"
        }
      ],
      "stateMutability": "view",
      "type": "function"
    },
    {
      "inputs": [],
      "name": "finalized",
      "outputs": [
        {
          "internalType": "uint256",
          "name": "",
          "type": "uint256"
        }
      ],
      "stateMutability": "view",
      "type": "function"
    },
    {
      "inputs": [
        {
          "internalType": "bytes32",
          "name": "role",
          "type": "bytes32"
        }
      ],
      "name": "getRoleAdmin",
      "outputs": [
        {
          "internalType": "bytes32",
          "name": "",
          "type": "bytes32"
        }
      ],
      "stateMutability": "view",
      "type": "function"
    },
    {
      "inputs": [
        {
          "internalType": "bytes32",
          "name": "role",
          "type": "bytes32"
        },
        {
          "internalType": "address",
          "name": "account",
          "type": "address"
        }
      ],
      "name": "grantRole",
      "outputs": [],
      "stateMutability": "nonpayable",
      "type": "function"
    },
    {
      "inputs": [
        {
          "internalType": "bytes32",
          "name": "role",
          "type": "bytes32"
        },
        {
          "internalType": "address",
          "name": "account",
          "type": "address"
        }
      ],
      "name": "hasRole",
      "outputs": [
        {
          "internalType": "bool",
          "name": "",
          "type": "bool"
        }
      ],
      "stateMutability": "view",
      "type": "function"
    },
    {
      "inputs": [],
      "name": "idlenessPhaseAddress",
      "outputs": [
        {
          "internalType": "address",
          "name": "",
          "type": "address"
        }
      ],
      "stateMutability": "view",
      "type": "function"
    },
    {
      "inputs": [],
      "name": "inflationEpoch",
      "outputs": [
        {
          "internalType": "uint256",
          "name": "",
          "type": "uint256"
        }
      ],
      "stateMutability": "view",
      "type": "function"
    },
    {
      "inputs": [],
      "name": "inflationRequestThreshold",
      "outputs": [
        {
          "internalType": "uint256",
          "name": "",
          "type": "uint256"
        }
      ],
      "stateMutability": "view",
      "type": "function"
    },
    {
      "inputs": [
        {
          "internalType": "uint256",
          "name": "",
          "type": "uint256"
        }
      ],
      "name": "inflationRequested",
      "outputs": [
        {
          "internalType": "bool",
          "name": "",
          "type": "bool"
        }
      ],
      "stateMutability": "view",
      "type": "function"
    },
    {
      "inputs": [],
      "name": "inflationSupply",
      "outputs": [
        {
          "internalType": "uint256",
          "name": "",
          "type": "uint256"
        }
      ],
      "stateMutability": "view",
      "type": "function"
    },
    {
      "inputs": [],
      "name": "inflationTargetAhead",
      "outputs": [
        {
          "internalType": "uint256",
          "name": "",
          "type": "uint256"
        }
      ],
      "stateMutability": "view",
      "type": "function"
    },
    {
      "inputs": [
        {
          "internalType": "address",
          "name": "_addressManager",
          "type": "address"
        }
      ],
      "name": "initialize",
      "outputs": [],
      "stateMutability": "nonpayable",
      "type": "function"
    },
    {
      "inputs": [],
      "name": "l2GasLimit",
      "outputs": [
        {
          "internalType": "uint256",
          "name": "",
          "type": "uint256"
        }
      ],
      "stateMutability": "view",
      "type": "function"
    },
    {
      "inputs": [],
      "name": "l2GasPrice",
      "outputs": [
        {
          "internalType": "uint256",
          "name": "",
          "type": "uint256"
        }
      ],
      "stateMutability": "view",
      "type": "function"
    },
    {
      "inputs": [],
      "name": "maxValidators",
      "outputs": [
        {
          "internalType": "uint256",
          "name": "",
          "type": "uint256"
        }
      ],
      "stateMutability": "view",
      "type": "function"
    },
    {
      "inputs": [
        {
          "internalType": "address",
          "name": "",
          "type": "address"
        }
      ],
      "name": "operatorsToValidators",
      "outputs": [
        {
          "internalType": "address",
          "name": "",
          "type": "address"
        }
      ],
      "stateMutability": "view",
      "type": "function"
    },
    {
      "inputs": [],
      "name": "owner",
      "outputs": [
        {
          "internalType": "address",
          "name": "",
          "type": "address"
        }
      ],
      "stateMutability": "view",
      "type": "function"
    },
    {
      "inputs": [],
      "name": "pendingOwner",
      "outputs": [
        {
          "internalType": "address",
          "name": "",
          "type": "address"
        }
      ],
      "stateMutability": "view",
      "type": "function"
    },
    {
      "inputs": [],
      "name": "pendingRequestInflationFromL1",
      "outputs": [
        {
          "internalType": "bool",
          "name": "",
          "type": "bool"
        }
      ],
      "stateMutability": "view",
      "type": "function"
    },
    {
      "inputs": [],
      "name": "reductionFactor",
      "outputs": [
        {
          "internalType": "uint256",
          "name": "",
          "type": "uint256"
        }
      ],
      "stateMutability": "view",
      "type": "function"
    },
    {
      "inputs": [],
      "name": "renounceOwnership",
      "outputs": [],
      "stateMutability": "nonpayable",
      "type": "function"
    },
    {
      "inputs": [
        {
          "internalType": "bytes32",
          "name": "role",
          "type": "bytes32"
        },
        {
          "internalType": "address",
          "name": "callerConfirmation",
          "type": "address"
        }
      ],
      "name": "renounceRole",
      "outputs": [],
      "stateMutability": "nonpayable",
      "type": "function"
    },
    {
      "inputs": [],
      "name": "revealingPhaseAddress",
      "outputs": [
        {
          "internalType": "address",
          "name": "",
          "type": "address"
        }
      ],
      "stateMutability": "view",
      "type": "function"
    },
    {
      "inputs": [
        {
          "internalType": "bytes32",
          "name": "role",
          "type": "bytes32"
        },
        {
          "internalType": "address",
          "name": "account",
          "type": "address"
        }
      ],
      "name": "revokeRole",
      "outputs": [],
      "stateMutability": "nonpayable",
      "type": "function"
    },
    {
      "inputs": [
        {
          "internalType": "uint256",
          "name": "_epochMin",
          "type": "uint256"
        }
      ],
      "name": "setEpochMin",
      "outputs": [],
      "stateMutability": "nonpayable",
      "type": "function"
    },
    {
      "inputs": [
        {
          "internalType": "bytes4",
          "name": "_selector",
          "type": "bytes4"
        },
        {
          "internalType": "address",
          "name": "_facet",
          "type": "address"
        }
      ],
      "name": "setFacet",
      "outputs": [],
      "stateMutability": "nonpayable",
      "type": "function"
    },
    {
      "inputs": [
        {
          "internalType": "bytes4[]",
          "name": "_selectors",
          "type": "bytes4[]"
        },
        {
          "internalType": "address[]",
          "name": "_facets",
          "type": "address[]"
        }
      ],
      "name": "setFacets",
      "outputs": [],
      "stateMutability": "nonpayable",
      "type": "function"
    },
    {
      "inputs": [],
      "name": "stakingInvariant",
      "outputs": [
        {
          "internalType": "address",
          "name": "",
          "type": "address"
        }
      ],
      "stateMutability": "view",
      "type": "function"
    },
    {
      "inputs": [
        {
          "internalType": "bytes4",
          "name": "interfaceId",
          "type": "bytes4"
        }
      ],
      "name": "supportsInterface",
      "outputs": [
        {
          "internalType": "bool",
          "name": "",
          "type": "bool"
        }
      ],
      "stateMutability": "view",
      "type": "function"
    },
    {
      "inputs": [],
      "name": "transactionFeesManager",
      "outputs": [
        {
          "internalType": "address",
          "name": "",
          "type": "address"
        }
      ],
      "stateMutability": "view",
      "type": "function"
    },
    {
      "inputs": [
        {
          "internalType": "address",
          "name": "newOwner",
          "type": "address"
        }
      ],
      "name": "transferOwnership",
      "outputs": [],
      "stateMutability": "nonpayable",
      "type": "function"
    },
    {
      "inputs": [],
      "name": "validatorMinStake",
      "outputs": [
        {
          "internalType": "uint256",
          "name": "",
          "type": "uint256"
        }
      ],
      "stateMutability": "view",
      "type": "function"
    },
    {
      "inputs": [
        {
          "internalType": "uint256",
          "name": "",
          "type": "uint256"
        }
      ],
      "name": "validatorsEven",
      "outputs": [
        {
          "internalType": "address",
          "name": "",
          "type": "address"
        }
      ],
      "stateMutability": "view",
      "type": "function"
    },
    {
      "inputs": [
        {
          "internalType": "uint256",
          "name": "",
          "type": "uint256"
        }
      ],
      "name": "validatorsJoined",
      "outputs": [
        {
          "internalType": "address",
          "name": "",
          "type": "address"
        }
      ],
      "stateMutability": "view",
      "type": "function"
    },
    {
      "inputs": [
        {
          "internalType": "uint256",
          "name": "",
          "type": "uint256"
        }
      ],
      "name": "validatorsOdd",
      "outputs": [
        {
          "internalType": "address",
          "name": "",
          "type": "address"
        }
      ],
      "stateMutability": "view",
      "type": "function"
    },
    {
      "inputs": [
        {
          "internalType": "uint256",
          "name": "",
          "type": "uint256"
        }
      ],
      "name": "weightsEven",
      "outputs": [
        {
          "internalType": "uint256",
          "name": "",
          "type": "uint256"
        }
      ],
      "stateMutability": "view",
      "type": "function"
    },
    {
      "inputs": [
        {
          "internalType": "uint256",
          "name": "",
          "type": "uint256"
        }
      ],
      "name": "weightsOdd",
      "outputs": [
        {
          "internalType": "uint256",
          "name": "",
          "type": "uint256"
        }
      ],
      "stateMutability": "view",
      "type": "function"
    },
    {
      "stateMutability": "payable",
      "type": "receive"
    }
  ],
  "bytecode": "0x60808060405234601557611a6a908161001b8239f35b600080fdfe6080604052600436101561001d575b366115865761001b611558565b005b60003560e01c806301ffc9a71461043857806308ac525614610433578063093531a01461042e5780630a3cfb13146104295780630ab07e88146104245780631538faf21461041f57806318a3b8821461041a5780631bc2359a14610415578063217fcc3e146103985780632272e0ab1461041057806324147f671461040b57806324840a5e14610406578063248a9ca31461040157806326ed4c70146103fc5780632f2ff15d146103f757806336568abe146103f25780633ab76e9f146103ed5780633dc23d0c146103e85780633fde6d7b146103e35780634971ec02146103de5780634c12b33f146103d95780634f2938fc146103d4578063624a4485146103cf5780636378eba3146103ca57806367604d27146103c5578063715018a6146103c0578063746e4ac7146103bb5780637492100f146103b657806379ba5097146103b15780637a5d2660146103ac5780637e1233a9146103a757806383772595146103a257806387e51da91461039d5780638b7e92a6146103985780638da5cb5b14610393578063900cf0cf1461038e578063900fd9ce1461038957806391d148541461038457806396be02a71461037f5780639ae366851461037a578063a01ebaa114610375578063a217fddf14610370578063a8027c101461036b578063abfd6fa914610366578063ac78a04b14610361578063b03df1f01461035c578063b3f05b9714610357578063bc338e7f14610352578063c0a604ad1461034d578063c498c95b14610348578063c4d66de814610343578063cb17452f1461033e578063cd38347f14610339578063cd85623514610334578063cf6e65b71461032f578063d547741f1461032a578063d7ef354414610325578063da7a9b6a14610320578063de8eec641461031b578063e30c397814610316578063e3c6b0ca14610311578063f2fde38b1461030c578063f7c353c714610307578063f85683ef14610302578063fafebac5146102fd5763fb6fe7760361000e57611357565b611311565b6112e8565b611189565b6110cd565b6110af565b611079565b611050565b611032565b611009565b610fd5565b610fb7565b610f99565b610f72565b610f37565b610de4565b610dbf565b610da1565b610d85565b610d67565b610d22565b610d05565b610ce1565b610cbe565b610ca2565b610c7e565b610c60565b610c16565b610b67565b610b1c565b610afe565b610ac8565b6105cf565b610a73565b610a56565b610a39565b610a10565b6109c0565b61099e565b610953565b6108d2565b6108b4565b610896565b610878565b61084f565b610831565b61080e565b6107f0565b610757565b61072e565b6106e4565b6106ab565b610677565b610651565b610628565b61060a565b6105ec565b6105b1565b610586565b610568565b61054a565b6104f5565b6104da565b6104aa565b610454565b6001600160e01b031981160361044f57565b600080fd5b3461044f57602036600319011261044f5760206004356104738161043d565b63ffffffff60e01b16637965db0b60e01b8114908115610499575b506040519015158152f35b6301ffc9a760e01b1490503861048e565b3461044f57600036600319011261044f576020600554604051908152f35b602090600319011261044f5760043590565b3461044f576104e8366104c8565b6104f06115e7565b600255005b3461044f57610503366104c8565b602d5481101561044f57602d6000527f4a2cc91ee622da3bc833a54c37ffcb6f3ec23b7793efc5eaf5e71b7b406c5c0601546040516001600160a01b039091168152602090f35b3461044f57600036600319011261044f576020601054604051908152f35b3461044f57600036600319011261044f576020604354604051908152f35b3461044f57610594366104c8565b6000526052602052602060ff604060002054166040519015158152f35b3461044f57600036600319011261044f576020600254604051908152f35b3461044f57600036600319011261044f5760206040516103e88152f35b3461044f57600036600319011261044f576020604154604051908152f35b3461044f57600036600319011261044f576020605154604051908152f35b3461044f57600036600319011261044f576044546040516001600160a01b039091168152602090f35b3461044f57602036600319011261044f57602061066f6004356113ac565b604051908152f35b3461044f57600036600319011261044f57602060ff605354166040519015158152f35b6001600160a01b0381160361044f57565b3461044f57604036600319011261044f5761001b6024356004356106ce8261069a565b6106df6106da826113ac565b611608565b6117b7565b3461044f57604036600319011261044f576004356024356107048161069a565b336001600160a01b0382160361071d5761001b91611853565b63334bd91960e11b60005260046000fd5b3461044f57600036600319011261044f576047546040516001600160a01b039091168152602090f35b3461044f57604036600319011261044f576004356107748161043d565b7fa730c19ce8d967dc1d8a5f5ca85e2a607ce6bb270368f1ad107fc377db46a8c06020602435926107a48461069a565b6107ac6115e7565b6001600160e01b0319166000818152604b83526040902080546001600160a01b0319166001600160a01b038616179055926040516001600160a01b039091168152a2005b3461044f57600036600319011261044f576020600154604051908152f35b3461044f57600036600319011261044f576020604051670214e8348c4f00008152f35b3461044f57600036600319011261044f576020601354604051908152f35b3461044f57600036600319011261044f576048546040516001600160a01b039091168152602090f35b3461044f57600036600319011261044f576020605054604051908152f35b3461044f57600036600319011261044f576020600054604051908152f35b3461044f57600036600319011261044f576020604054604051908152f35b3461044f57600036600319011261044f576108eb6115e7565b600080516020611a1583398151915280546001600160a01b03199081169091556000805160206119b5833981519152805491821690556000906001600160a01b03167f8be0079c531659141344cd1fd0a4f28419497f9722a3daafe3b4186f6b6457e08280a3005b3461044f57610961366104c8565b602a5481101561044f57602a6000527fbeced09521047d05b8960b7e7bcc1d1292cf3e4b2a6b63f48335cbde5f7545d20154604051908152602090f35b3461044f57600036600319011261044f576020604051668e1bc9bf0400008152f35b3461044f57600036600319011261044f57600080516020611a1583398151915254336001600160a01b03909116036109fb5761001b336118f8565b63118cdaa760e01b6000523360045260246000fd5b3461044f57600036600319011261044f576049546040516001600160a01b039091168152602090f35b3461044f57600036600319011261044f5760206040516180088152f35b3461044f57600036600319011261044f576020604051611d4c8152f35b3461044f57610a81366104c8565b602c5481101561044f57602c6000527f7416c943b4a09859521022fd2e90eac0dd9026dad28fa317782a135f28a8609101546040516001600160a01b039091168152602090f35b3461044f57600036600319011261044f576000805160206119b5833981519152546040516001600160a01b039091168152602090f35b3461044f57600036600319011261044f576020601154604051908152f35b3461044f57610b2a366104c8565b602b5481101561044f57602b6000527f11c44e4875b74d31ff9fd779bf2566af7bd15b87fc985d01f5094b89e3669e4f0154604051908152602090f35b3461044f57604036600319011261044f57602060ff610bbe602435600435610b8e8261069a565b6000526000805160206119d5833981519152845260406000209060018060a01b0316600052602052604060002090565b54166040519015158152f35b979491926101409996939c9b9a9794919c6101608a019d8a5260208a015260408901526060880152608087015260a086015260c085015260e08401526101008301526101208201520152565b3461044f57600036600319011261044f57601f5460205490610c5c602154602254602354602454602554602654916027549360285495602954976040519b8c9b8c610bca565b0390f35b3461044f57600036600319011261044f576020604e54604051908152f35b3461044f57600036600319011261044f576020604051684e1003b28d928000008152f35b3461044f57600036600319011261044f57602060405160008152f35b3461044f57600036600319011261044f576020604051660aa87bee537fff198152f35b3461044f57600036600319011261044f576020604051680246ddf979766800008152f35b3461044f57600036600319011261044f5760206040516101f48152f35b3461044f57602036600319011261044f57600435610d3f8161069a565b60018060a01b03166000526034602052602060018060a01b0360406000205416604051908152f35b3461044f57600036600319011261044f576020601254604051908152f35b3461044f57600036600319011261044f57602060405160648152f35b3461044f57600036600319011261044f576020600f54604051908152f35b3461044f57600036600319011261044f5760206040516908e4d3168276864000008152f35b3461044f57602036600319011261044f57600435610e018161069a565b6000805160206119f5833981519152549067ffffffffffffffff610e3560ff604085901c16159367ffffffffffffffff1690565b1680159081610f2f575b6001149081610f25575b159081610f1c575b50610f0b57610e979082610e8e600167ffffffffffffffff196000805160206119f58339815191525416176000805160206119f583398151915255565b610ee6576113cd565b610e9d57005b6000805160206119f5833981519152805460ff60401b19169055604051600181527fc7f505b2f371ae2175ee4913f4499e1f2633a7b5936321eed1cdaeb6115181d290602090a1005b6000805160206119f5833981519152805460ff60401b1916600160401b1790556113cd565b63f92ee8a960e01b60005260046000fd5b90501538610e51565b303b159150610e49565b839150610e3f565b3461044f57600036600319011261044f5760206040517f155e7f76c52e49fe8308e62eabe3ce449c978443b7d8beb86992427229ec386f8152f35b3461044f57600036600319011261044f5760206040516b0d92289838d21a99680000008152f35b3461044f57600036600319011261044f576020600454604051908152f35b3461044f57600036600319011261044f576020604f54604051908152f35b3461044f57604036600319011261044f5761001b602435600435610ff88261069a565b6110046106da826113ac565b611853565b3461044f57600036600319011261044f57600e546040516001600160a01b039091168152602090f35b3461044f57600036600319011261044f576020604254604051908152f35b3461044f57600036600319011261044f576046546040516001600160a01b039091168152602090f35b3461044f57600036600319011261044f57600080516020611a15833981519152546040516001600160a01b039091168152602090f35b3461044f57600036600319011261044f576020600354604051908152f35b3461044f57602036600319011261044f576004356110ea8161069a565b6110f26115e7565b600080516020611a1583398151915280546001600160a01b0319166001600160a01b039283169081179091556000805160206119b5833981519152549091167f38d16b8cac22d99fc7c124b9cd0de2d3fa1faef420bfe791d8c362d765e22700600080a3005b9181601f8401121561044f5782359167ffffffffffffffff831161044f576020808501948460051b01011161044f57565b3461044f57604036600319011261044f5760043567ffffffffffffffff811161044f576111ba903690600401611158565b60243567ffffffffffffffff811161044f576111da903690600401611158565b926111e36115e7565b8383036112d75760005b8381106111f657005b8061125d611207600193888761151b565b356112118161069a565b61121c83888761151b565b356112268161043d565b6001600160e01b0319166000908152604b6020526040902080546001600160a01b0319166001600160a01b03909216919091179055565b61127061126b82878661151b565b61154e565b7fa730c19ce8d967dc1d8a5f5ca85e2a607ce6bb270368f1ad107fc377db46a8c06112ce6112a76112a2858b8a61151b565b611541565b6040516001600160a01b0390911681526001600160e01b0319909316929081906020820190565b0390a2016111ed565b63512509d360e11b60005260046000fd5b3461044f57600036600319011261044f57604a546040516001600160a01b039091168152602090f35b3461044f57600036600319011261044f5760145460155490610c5c601654601754601854601954601a54601b5491601c5493601d5495601e54976040519b8c9b8c610bca565b3461044f57611365366104c8565b60455481101561044f5760456000527fa80a8fcc11760162f08bb091d2c9389d07f2b73d0e996161dfac6f1043b5fc0b01546040516001600160a01b039091168152602090f35b6000526000805160206119d583398151915260205260016040600020015490565b6113d5611966565b6113dd611966565b6113e5611966565b6113ed611966565b3315611505576113fc336118f8565b61140533611652565b5061140f336116f2565b50604780546001600160a01b0319166001600160a01b0392909216919091179055600760415561143f6007604055565b611450670853a0d2313c0000603155565b61146167058d15e176280000603255565b61146d62015180600255565b61147962127500600455565b611484610e10600155565b611490620186a0600055565b61149b6103e8600555565b6114b06b0d92289838d21a9968000000601055565b6114c2680246ddf97976680000604255565b6114d56908e4d316827686400000604355565b6114e3640ba43b7400604e55565b6114ef6207a120604f55565b6114f96005605055565b611503600f605155565b565b631e4fbdf760e01b600052600060045260246000fd5b919081101561152b5760051b0190565b634e487b7160e01b600052603260045260246000fd5b3561154b8161069a565b90565b3561154b8161043d565b6040513481527f2ccfc58c2cef4ee590b5f16be0548cc54afc12e1c66a67b362b7d640fd16bb2d60203392a2565b600080356001600160e01b031916808252604b6020526040909120546001600160a01b03169081156115d35760008083368280378136915af43d6000803e156115ce573d6000f35b3d6000fd5b630a82dd7360e31b60005260045260246000fd5b6000805160206119b5833981519152546001600160a01b031633036109fb57565b60008181526000805160206119d58339815191526020908152604080832033845290915290205460ff161561163a5750565b63e2517d3f60e01b6000523360045260245260446000fd5b6001600160a01b03811660009081527fb7db2dd08fcb62d0c9e08c51941cae53c267786a0b75803fb7960902fc8ef97d602052604090205460ff166116ec576001600160a01b031660008181527fb7db2dd08fcb62d0c9e08c51941cae53c267786a0b75803fb7960902fc8ef97d60205260408120805460ff191660011790553391906000805160206119958339815191528180a4600190565b50600090565b6001600160a01b03811660009081527f595b99de72e44550de209b8610b07ab21870ce71a1063d294735321864dc516a602052604090205460ff166116ec576001600160a01b03811660009081527f595b99de72e44550de209b8610b07ab21870ce71a1063d294735321864dc516a60205260409020805460ff1916600117905533906001600160a01b03167f155e7f76c52e49fe8308e62eabe3ce449c978443b7d8beb86992427229ec386f600080516020611995833981519152600080a4600190565b60008181526000805160206119d5833981519152602090815260408083206001600160a01b038616845290915290205460ff1661184c5760008181526000805160206119d5833981519152602090815260408083206001600160a01b03861684529091529020805460ff1916600117905533916001600160a01b031690600080516020611995833981519152600080a4600190565b5050600090565b60008181526000805160206119d5833981519152602090815260408083206001600160a01b038616845290915290205460ff161561184c5760008181526000805160206119d5833981519152602090815260408083206001600160a01b03861684529091529020805460ff1916905533916001600160a01b0316907ff6391f5c32d9c69d2a47ea670b442974b53935d1edc7fd64eb21e047a839171b600080a4600190565b600080516020611a1583398151915280546001600160a01b03199081169091556000805160206119b583398151915280549182166001600160a01b0393841690811790915591167f8be0079c531659141344cd1fd0a4f28419497f9722a3daafe3b4186f6b6457e0600080a3565b60ff6000805160206119f58339815191525460401c161561198357565b631afcd79f60e31b60005260046000fdfe2f8788117e7eff1d82e926ec794901d17c78024a50270940304540a733656f0d9016d09d72d40fdae2fd8ceac6b6234c7706214fd39c1cd1e609a0528c19930002dd7bc7dec4dceedda775e58dd541e08a116c6c53815c0bd028192f7b626800f0c57e16840df040f15088dc2f81fe391c3923bec73e23a9662efc9c229c6a00237e158222e3e6968b72b9db0d8043aacf074ad9f650f0d1606b4d82ee432c00a26469706673582212202e7f1faf3b7cb364570d55cdacf71b6010e6848827f693dc00c4005346237a3364736f6c634300081c0033",
  "linkReferences": {},
  "deployedLinkReferences": {}
}