{
  "_format": "hh-sol-artifact-1",
  "contractName": "StakingShim",
  "sourceName": "contracts/staking/StakingShim.sol",
  "abi": [
    {
      "inputs": [],
      "name": "AccessControlBadConfirmation",
      "type": "error"
    },
    {
      "inputs": [
        {
          "internalType": "address",
          "name": "account",
          "type": "address"
        },
        {
          "internalType": "bytes32",
          "name": "neededRole",
          "type": "bytes32"
        }
      ],
      "name": "AccessControlUnauthorizedAccount",
      "type": "error"
    },
    {
      "inputs": [],
      "name": "ArrayLengthMismatch",
      "type": "error"
    },
    {
      "inputs": [
        {
          "internalType": "bytes4",
          "name": "selector",
          "type": "bytes4"
        }
      ],
      "name": "FunctionNotFound",
      "type": "error"
    },
    {
      "inputs": [],
      "name": "InvalidInitialization",
      "type": "error"
    },
    {
      "inputs": [],
      "name": "NotInitializing",
      "type": "error"
    },
    {
      "inputs": [
        {
          "internalType": "address",
          "name": "owner",
          "type": "address"
        }
      ],
      "name": "OwnableInvalidOwner",
      "type": "error"
    },
    {
      "inputs": [
        {
          "internalType": "address",
          "name": "account",
          "type": "address"
        }
      ],
      "name": "OwnableUnauthorizedAccount",
      "type": "error"
    },
    {
      "inputs": [],
      "name": "ReentrancyGuardReentrantCall",
      "type": "error"
    },
    {
      "anonymous": false,
      "inputs": [
        {
          "indexed": true,
          "internalType": "bytes4",
          "name": "selector",
          "type": "bytes4"
        },
        {
          "indexed": false,
          "internalType": "address",
          "name": "facet",
          "type": "address"
        }
      ],
      "name": "FacetSet",
      "type": "event"
    },
    {
      "anonymous": false,
      "inputs": [
        {
          "indexed": true,
          "internalType": "address",
          "name": "sender",
          "type": "address"
        },
        {
          "indexed": false,
          "internalType": "uint256",
          "name": "amount",
          "type": "uint256"
        }
      ],
      "name": "FeesReceived",
      "type": "event"
    },
    {
      "anonymous": false,
      "inputs": [
        {
          "indexed": false,
          "internalType": "uint64",
          "name": "version",
          "type": "uint64"
        }
      ],
      "name": "Initialized",
      "type": "event"
    },
    {
      "anonymous": false,
      "inputs": [
        {
          "indexed": true,
          "internalType": "address",
          "name": "previousOwner",
          "type": "address"
        },
        {
          "indexed": true,
          "internalType": "address",
          "name": "newOwner",
          "type": "address"
        }
      ],
      "name": "OwnershipTransferStarted",
      "type": "event"
    },
    {
      "anonymous": false,
      "inputs": [
        {
          "indexed": true,
          "internalType": "address",
          "name": "previousOwner",
          "type": "address"
        },
        {
          "indexed": true,
          "internalType": "address",
          "name": "newOwner",
          "type": "address"
        }
      ],
      "name": "OwnershipTransferred",
      "type": "event"
    },
    {
      "anonymous": false,
      "inputs": [
        {
          "indexed": true,
          "internalType": "bytes32",
          "name": "role",
          "type": "bytes32"
        },
        {
          "indexed": true,
          "internalType": "bytes32",
          "name": "previousAdminRole",
          "type": "bytes32"
        },
        {
          "indexed": true,
          "internalType": "bytes32",
          "name": "newAdminRole",
          "type": "bytes32"
        }
      ],
      "name": "RoleAdminChanged",
      "type": "event"
    },
    {
      "anonymous": false,
      "inputs": [
        {
          "indexed": true,
          "internalType": "bytes32",
          "name": "role",
          "type": "bytes32"
        },
        {
          "indexed": true,
          "internalType": "address",
          "name": "account",
          "type": "address"
        },
        {
          "indexed": true,
          "internalType": "address",
          "name": "sender",
          "type": "address"
        }
      ],
      "name": "RoleGranted",
      "type": "event"
    },
    {
      "anonymous": false,
      "inputs": [
        {
          "indexed": true,
          "internalType": "bytes32",
          "name": "role",
          "type": "bytes32"
        },
        {
          "indexed": true,
          "internalType": "address",
          "name": "account",
          "type": "address"
        },
        {
          "indexed": true,
          "internalType": "address",
          "name": "sender",
          "type": "address"
        }
      ],
      "name": "RoleRevoked",
      "type": "event"
    },
    {
      "stateMutability": "payable",
      "type": "fallback"
    },
    {
      "inputs": [],
      "name": "DEFAULT_ADMIN_ROLE",
      "outputs": [
        {
          "internalType": "bytes32",
          "name": "",
          "type": "bytes32"
        }
      ],
      "stateMutability": "view",
      "type": "function"
    },
    {
      "inputs": [],
      "name": "DEFAULT_DELEGATOR_MIN_STAKE",
      "outputs": [
        {
          "internalType": "uint256",
          "name": "",
          "type": "uint256"
        }
      ],
      "stateMutability": "view",
      "type": "function"
    },
    {
      "inputs": [],
      "name": "DEFAULT_VALIDATOR_MIN_STAKE",
      "outputs": [
        {
          "internalType": "uint256",
          "name": "",
          "type": "uint256"
        }
      ],
      "stateMutability": "view",
      "type": "function"
    },
    {
      "inputs": [],
      "name": "DELEGATOR_UNBONDING_PERIOD",
      "outputs": [
        {
          "internalType": "uint256",
          "name": "",
          "type": "uint256"
        }
      ],
      "stateMutability": "view",
      "type": "function"
    },
    {
      "inputs": [],
      "name": "INFLATION_BASE",
      "outputs": [
        {
          "internalType": "uint256",
          "name": "",
          "type": "uint256"
        }
      ],
      "stateMutability": "view",
      "type": "function"
    },
    {
      "inputs": [],
      "name": "INFLATION_DEEPTHOUGHT_BPS",
      "outputs": [
        {
          "internalType": "uint256",
          "name": "",
          "type": "uint256"
        }
      ],
      "stateMutability": "view",
      "type": "function"
    },
    {
      "inputs": [],
      "name": "INFLATION_DEVELOPER_BPS",
      "outputs": [
        {
          "internalType": "uint256",
          "name": "",
          "type": "uint256"
        }
      ],
      "stateMutability": "view",
      "type": "function"
    },
    {
      "inputs": [],
      "name": "INFLATION_FINAL",
      "outputs": [
        {
          "internalType": "uint256",
          "name": "",
          "type": "uint256"
        }
      ],
      "stateMutability": "view",
      "type": "function"
    },
    {
      "inputs": [],
      "name": "INFLATION_INITIAL",
      "outputs": [
        {
          "internalType": "uint256",
          "name": "",
          "type": "uint256"
        }
      ],
      "stateMutability": "view",
      "type": "function"
    },
    {
      "inputs": [],
      "name": "INFLATION_MID",
      "outputs": [
        {
          "internalType": "int256",
          "name": "",
          "type": "int256"
        }
      ],
      "stateMutability": "view",
      "type": "function"
    },
    {
      "inputs": [],
      "name": "INFLATION_STAKER_BPS",
      "outputs": [
        {
          "internalType": "uint256",
          "name": "",
          "type": "uint256"
        }
      ],
      "stateMutability": "view",
      "type": "function"
    },
    {
      "inputs": [],
      "name": "INFLATION_STEEPNESS",
      "outputs": [
        {
          "internalType": "int256",
          "name": "",
          "type": "int256"
        }
      ],
      "stateMutability": "view",
      "type": "function"
    },
    {
      "inputs": [],
      "name": "INFLATION_VALIDATOR_BPS",
      "outputs": [
        {
          "internalType": "uint256",
          "name": "",
          "type": "uint256"
        }
      ],
      "stateMutability": "view",
      "type": "function"
    },
    {
      "inputs": [],
      "name": "L1_MESSENGER",
      "outputs": [
        {
          "internalType": "contract IL1Messenger",
          "name": "",
          "type": "address"
        }
      ],
      "stateMutability": "view",
      "type": "function"
    },
    {
      "inputs": [],
      "name": "QUARANTINE_MANAGER_ROLE",
      "outputs": [
        {
          "internalType": "bytes32",
          "name": "",
          "type": "bytes32"
        }
      ],
      "stateMutability": "view",
      "type": "function"
    },
    {
      "inputs": [],
      "name": "SLASH_CALLER_INCENTIVE_BPS",
      "outputs": [
        {
          "internalType": "uint256",
          "name": "",
          "type": "uint256"
        }
      ],
      "stateMutability": "view",
      "type": "function"
    },
    {
      "inputs": [],
      "name": "VALIDATOR_UNBONDING_PERIOD",
      "outputs": [
        {
          "internalType": "uint256",
          "name": "",
          "type": "uint256"
        }
      ],
      "stateMutability": "view",
      "type": "function"
    },
    {
      "inputs": [],
      "name": "acceptOwnership",
      "outputs": [],
      "stateMutability": "nonpayable",
      "type": "function"
    },
    {
      "inputs": [],
      "name": "addressManager",
      "outputs": [
        {
          "internalType": "contract IAddressManager",
          "name": "",
          "type": "address"
        }
      ],
      "stateMutability": "view",
      "type": "function"
    },
    {
      "inputs": [],
      "name": "burning",
      "outputs": [
        {
          "internalType": "uint256",
          "name": "",
          "type": "uint256"
        }
      ],
      "stateMutability": "view",
      "type": "function"
    },
    {
      "inputs": [],
      "name": "deepthought",
      "outputs": [
        {
          "internalType": "address payable",
          "name": "",
          "type": "address"
        }
      ],
      "stateMutability": "view",
      "type": "function"
    },
    {
      "inputs": [],
      "name": "delegatorMinStake",
      "outputs": [
        {
          "internalType": "uint256",
          "name": "",
          "type": "uint256"
        }
      ],
      "stateMutability": "view",
      "type": "function"
    },
    {
      "inputs": [],
      "name": "epoch",
      "outputs": [
        {
          "internalType": "uint256",
          "name": "",
          "type": "uint256"
        }
      ],
      "stateMutability": "view",
      "type": "function"
    },
    {
      "inputs": [],
      "name": "epochEven",
      "outputs": [
        {
          "internalType": "uint256",
          "name": "start",
          "type": "uint256"
        },
        {
          "internalType": "uint256",
          "name": "end",
          "type": "uint256"
        },
        {
          "internalType": "uint256",
          "name": "inflation",
          "type": "uint256"
        },
        {
          "internalType": "uint256",
          "name": "weight",
          "type": "uint256"
        },
        {
          "internalType": "uint256",
          "name": "weightDeposit",
          "type": "uint256"
        },
        {
          "internalType": "uint256",
          "name": "weightWithdrawal",
          "type": "uint256"
        },
        {
          "internalType": "uint256",
          "name": "vcount",
          "type": "uint256"
        },
        {
          "internalType": "uint256",
          "name": "claimed",
          "type": "uint256"
        },
        {
          "internalType": "uint256",
          "name": "stakeDeposit",
          "type": "uint256"
        },
        {
          "internalType": "uint256",
          "name": "stakeWithdrawal",
          "type": "uint256"
        },
        {
          "internalType": "uint256",
          "name": "slashed",
          "type": "uint256"
        }
      ],
      "stateMutability": "view",
      "type": "function"
    },
    {
      "inputs": [],
      "name": "epochExtraMinDuration",
      "outputs": [
        {
          "internalType": "uint256",
          "name": "",
          "type": "uint256"
        }
      ],
      "stateMutability": "view",
      "type": "function"
    },
    {
      "inputs": [],
      "name": "epochMinDuration",
      "outputs": [
        {
          "internalType": "uint256",
          "name": "",
          "type": "uint256"
        }
      ],
      "stateMutability": "view",
      "type": "function"
    },
    {
      "inputs": [],
      "name": "epochMinDurationThreshold",
      "outputs": [
        {
          "internalType": "uint256",
          "name": "",
          "type": "uint256"
        }
      ],
      "stateMutability": "view",
      "type": "function"
    },
    {
      "inputs": [],
      "name": "epochOdd",
      "outputs": [
        {
          "internalType": "uint256",
          "name": "start",
          "type": "uint256"
        },
        {
          "internalType": "uint256",
          "name": "end",
          "type": "uint256"
        },
        {
          "internalType": "uint256",
          "name": "inflation",
          "type": "uint256"
        },
        {
          "internalType": "uint256",
          "name": "weight",
          "type": "uint256"
        },
        {
          "internalType": "uint256",
          "name": "weightDeposit",
          "type": "uint256"
        },
        {
          "internalType": "uint256",
          "name": "weightWithdrawal",
          "type": "uint256"
        },
        {
          "internalType": "uint256",
          "name": "vcount",
          "type": "uint256"
        },
        {
          "internalType": "uint256",
          "name": "claimed",
          "type": "uint256"
        },
        {
          "internalType": "uint256",
          "name": "stakeDeposit",
          "type": "uint256"
        },
        {
          "internalType": "uint256",
          "name": "stakeWithdrawal",
          "type": "uint256"
        },
        {
          "internalType": "uint256",
          "name": "slashed",
          "type": "uint256"
        }
      ],
      "stateMutability": "view",
      "type": "function"
    },
    {
      "inputs": [],
      "name": "epochZeroMinDuration",
      "outputs": [
        {
          "internalType": "uint256",
          "name": "",
          "type": "uint256"
        }
      ],
      "stateMutability": "view",
      "type": "function"
    },
    {
      "inputs": [],
      "name": "finalizationPhaseAddress",
      "outputs": [
        {
          "internalType": "address",
          "name": "",
          "type": "address"
        }
      ],
      "stateMutability": "view",
      "type": "function"
    },
    {
      "inputs": [],
      "name": "finalized",
      "outputs": [
        {
          "internalType": "uint256",
          "name": "",
          "type": "uint256"
        }
      ],
      "stateMutability": "view",
      "type": "function"
    },
    {
      "inputs": [
        {
          "internalType": "bytes32",
          "name": "role",
          "type": "bytes32"
        }
      ],
      "name": "getRoleAdmin",
      "outputs": [
        {
          "internalType": "bytes32",
          "name": "",
          "type": "bytes32"
        }
      ],
      "stateMutability": "view",
      "type": "function"
    },
    {
      "inputs": [
        {
          "internalType": "bytes32",
          "name": "role",
          "type": "bytes32"
        },
        {
          "internalType": "address",
          "name": "account",
          "type": "address"
        }
      ],
      "name": "grantRole",
      "outputs": [],
      "stateMutability": "nonpayable",
      "type": "function"
    },
    {
      "inputs": [
        {
          "internalType": "bytes32",
          "name": "role",
          "type": "bytes32"
        },
        {
          "internalType": "address",
          "name": "account",
          "type": "address"
        }
      ],
      "name": "hasRole",
      "outputs": [
        {
          "internalType": "bool",
          "name": "",
          "type": "bool"
        }
      ],
      "stateMutability": "view",
      "type": "function"
    },
    {
      "inputs": [],
      "name": "idlenessPhaseAddress",
      "outputs": [
        {
          "internalType": "address",
          "name": "",
          "type": "address"
        }
      ],
      "stateMutability": "view",
      "type": "function"
    },
    {
      "inputs": [],
      "name": "inflationEpoch",
      "outputs": [
        {
          "internalType": "uint256",
          "name": "",
          "type": "uint256"
        }
      ],
      "stateMutability": "view",
      "type": "function"
    },
    {
      "inputs": [],
      "name": "inflationRequestThreshold",
      "outputs": [
        {
          "internalType": "uint256",
          "name": "",
          "type": "uint256"
        }
      ],
      "stateMutability": "view",
      "type": "function"
    },
    {
      "inputs": [
        {
          "internalType": "uint256",
          "name": "",
          "type": "uint256"
        }
      ],
      "name": "inflationRequested",
      "outputs": [
        {
          "internalType": "bool",
          "name": "",
          "type": "bool"
        }
      ],
      "stateMutability": "view",
      "type": "function"
    },
    {
      "inputs": [],
      "name": "inflationSupply",
      "outputs": [
        {
          "internalType": "uint256",
          "name": "",
          "type": "uint256"
        }
      ],
      "stateMutability": "view",
      "type": "function"
    },
    {
      "inputs": [],
      "name": "inflationTargetAhead",
      "outputs": [
        {
          "internalType": "uint256",
          "name": "",
          "type": "uint256"
        }
      ],
      "stateMutability": "view",
      "type": "function"
    },
    {
      "inputs": [
        {
          "internalType": "address",
          "name": "_addressManager",
          "type": "address"
        }
      ],
      "name": "initialize",
      "outputs": [],
      "stateMutability": "nonpayable",
      "type": "function"
    },
    {
      "inputs": [],
      "name": "l2GasLimit",
      "outputs": [
        {
          "internalType": "uint256",
          "name": "",
          "type": "uint256"
        }
      ],
      "stateMutability": "view",
      "type": "function"
    },
    {
      "inputs": [],
      "name": "l2GasPrice",
      "outputs": [
        {
          "internalType": "uint256",
          "name": "",
          "type": "uint256"
        }
      ],
      "stateMutability": "view",
      "type": "function"
    },
    {
      "inputs": [],
      "name": "maxValidators",
      "outputs": [
        {
          "internalType": "uint256",
          "name": "",
          "type": "uint256"
        }
      ],
      "stateMutability": "view",
      "type": "function"
    },
    {
      "inputs": [
        {
          "internalType": "address",
          "name": "",
          "type": "address"
        }
      ],
      "name": "operatorsToValidators",
      "outputs": [
        {
          "internalType": "address",
          "name": "",
          "type": "address"
        }
      ],
      "stateMutability": "view",
      "type": "function"
    },
    {
      "inputs": [],
      "name": "owner",
      "outputs": [
        {
          "internalType": "address",
          "name": "",
          "type": "address"
        }
      ],
      "stateMutability": "view",
      "type": "function"
    },
    {
      "inputs": [],
      "name": "pendingOwner",
      "outputs": [
        {
          "internalType": "address",
          "name": "",
          "type": "address"
        }
      ],
      "stateMutability": "view",
      "type": "function"
    },
    {
      "inputs": [],
      "name": "pendingRequestInflationFromL1",
      "outputs": [
        {
          "internalType": "bool",
          "name": "",
          "type": "bool"
        }
      ],
      "stateMutability": "view",
      "type": "function"
    },
    {
      "inputs": [],
      "name": "reductionFactor",
      "outputs": [
        {
          "internalType": "uint256",
          "name": "",
          "type": "uint256"
        }
      ],
      "stateMutability": "view",
      "type": "function"
    },
    {
      "inputs": [],
      "name": "renounceOwnership",
      "outputs": [],
      "stateMutability": "nonpayable",
      "type": "function"
    },
    {
      "inputs": [
        {
          "internalType": "bytes32",
          "name": "role",
          "type": "bytes32"
        },
        {
          "internalType": "address",
          "name": "callerConfirmation",
          "type": "address"
        }
      ],
      "name": "renounceRole",
      "outputs": [],
      "stateMutability": "nonpayable",
      "type": "function"
    },
    {
      "inputs": [],
      "name": "revealingPhaseAddress",
      "outputs": [
        {
          "internalType": "address",
          "name": "",
          "type": "address"
        }
      ],
      "stateMutability": "view",
      "type": "function"
    },
    {
      "inputs": [
        {
          "internalType": "bytes32",
          "name": "role",
          "type": "bytes32"
        },
        {
          "internalType": "address",
          "name": "account",
          "type": "address"
        }
      ],
      "name": "revokeRole",
      "outputs": [],
      "stateMutability": "nonpayable",
      "type": "function"
    },
    {
      "inputs": [
        {
          "internalType": "uint256",
          "name": "_epochMin",
          "type": "uint256"
        }
      ],
      "name": "setEpochMin",
      "outputs": [],
      "stateMutability": "nonpayable",
      "type": "function"
    },
    {
      "inputs": [
        {
          "internalType": "bytes4",
          "name": "_selector",
          "type": "bytes4"
        },
        {
          "internalType": "address",
          "name": "_facet",
          "type": "address"
        }
      ],
      "name": "setFacet",
      "outputs": [],
      "stateMutability": "nonpayable",
      "type": "function"
    },
    {
      "inputs": [
        {
          "internalType": "bytes4[]",
          "name": "_selectors",
          "type": "bytes4[]"
        },
        {
          "internalType": "address[]",
          "name": "_facets",
          "type": "address[]"
        }
      ],
      "name": "setFacets",
      "outputs": [],
      "stateMutability": "nonpayable",
      "type": "function"
    },
    {
      "inputs": [],
      "name": "stakingInvariant",
      "outputs": [
        {
          "internalType": "address",
          "name": "",
          "type": "address"
        }
      ],
      "stateMutability": "view",
      "type": "function"
    },
    {
      "inputs": [
        {
          "internalType": "bytes4",
          "name": "interfaceId",
          "type": "bytes4"
        }
      ],
      "name": "supportsInterface",
      "outputs": [
        {
          "internalType": "bool",
          "name": "",
          "type": "bool"
        }
      ],
      "stateMutability": "view",
      "type": "function"
    },
    {
      "inputs": [],
      "name": "transactionFeesManager",
      "outputs": [
        {
          "internalType": "address",
          "name": "",
          "type": "address"
        }
      ],
      "stateMutability": "view",
      "type": "function"
    },
    {
      "inputs": [
        {
          "internalType": "address",
          "name": "newOwner",
          "type": "address"
        }
      ],
      "name": "transferOwnership",
      "outputs": [],
      "stateMutability": "nonpayable",
      "type": "function"
    },
    {
      "inputs": [
        {
          "internalType": "address",
          "name": "validatorAddress",
          "type": "address"
        }
      ],
      "name": "validatorInsertedInTree",
      "outputs": [
        {
          "internalType": "uint256",
          "name": "timestamp",
          "type": "uint256"
        }
      ],
      "stateMutability": "view",
      "type": "function"
    },
    {
      "inputs": [],
      "name": "validatorMinStake",
      "outputs": [
        {
          "internalType": "uint256",
          "name": "",
          "type": "uint256"
        }
      ],
      "stateMutability": "view",
      "type": "function"
    },
    {
      "inputs": [
        {
          "internalType": "address",
          "name": "validatorAddress",
          "type": "address"
        }
      ],
      "name": "validatorRemovedFromTheTree",
      "outputs": [
        {
          "internalType": "uint256",
          "name": "timestamp",
          "type": "uint256"
        }
      ],
      "stateMutability": "view",
      "type": "function"
    },
    {
      "inputs": [
        {
          "internalType": "uint256",
          "name": "",
          "type": "uint256"
        }
      ],
      "name": "validatorsEven",
      "outputs": [
        {
          "internalType": "address",
          "name": "",
          "type": "address"
        }
      ],
      "stateMutability": "view",
      "type": "function"
    },
    {
      "inputs": [
        {
          "internalType": "uint256",
          "name": "",
          "type": "uint256"
        }
      ],
      "name": "validatorsJoined",
      "outputs": [
        {
          "internalType": "address",
          "name": "",
          "type": "address"
        }
      ],
      "stateMutability": "view",
      "type": "function"
    },
    {
      "inputs": [
        {
          "internalType": "uint256",
          "name": "",
          "type": "uint256"
        }
      ],
      "name": "validatorsOdd",
      "outputs": [
        {
          "internalType": "address",
          "name": "",
          "type": "address"
        }
      ],
      "stateMutability": "view",
      "type": "function"
    },
    {
      "inputs": [
        {
          "internalType": "uint256",
          "name": "",
          "type": "uint256"
        }
      ],
      "name": "weightsEven",
      "outputs": [
        {
          "internalType": "uint256",
          "name": "",
          "type": "uint256"
        }
      ],
      "stateMutability": "view",
      "type": "function"
    },
    {
      "inputs": [
        {
          "internalType": "uint256",
          "name": "",
          "type": "uint256"
        }
      ],
      "name": "weightsOdd",
      "outputs": [
        {
          "internalType": "uint256",
          "name": "",
          "type": "uint256"
        }
      ],
      "stateMutability": "view",
      "type": "function"
    },
    {
      "stateMutability": "payable",
      "type": "receive"
    }
  ],
  "bytecode": "0x60808060405234601557611b04908161001b8239f35b600080fdfe6080604052600436101561001d575b366116205761001b6115f2565b005b60003560e01c806301ffc9a71461045857806308ac525614610453578063093531a01461044e5780630a3cfb13146104495780630ab07e88146104445780631538faf21461043f57806318a3b8821461043a5780631bc2359a14610435578063217fcc3e146103b35780632272e0ab1461043057806324147f671461042b57806324840a5e14610426578063248a9ca31461042157806326ed4c701461041c5780632f2ff15d1461041757806336568abe146104125780633ab76e9f1461040d5780633dc23d0c146104085780633fde6d7b1461040357806344aa3ded146103fe5780634971ec02146103f95780634c12b33f146103f45780634f2938fc146103ef578063624a4485146103ea5780636378eba3146103e557806367604d27146103e0578063715018a6146103db578063746e4ac7146103d65780637492100f146103d157806379ba5097146103cc5780637a5d2660146103c75780637e1233a9146103c257806383772595146103bd57806387e51da9146103b85780638b7e92a6146103b35780638da5cb5b146103ae578063900cf0cf146103a9578063900fd9ce146103a457806391d148541461039f57806396be02a71461039a5780639ae36685146103955780639d357fd814610390578063a01ebaa11461038b578063a217fddf14610386578063a8027c1014610381578063abfd6fa91461037c578063ac78a04b14610377578063b03df1f014610372578063b3f05b971461036d578063bc338e7f14610368578063c0a604ad14610363578063c498c95b1461035e578063c4d66de814610359578063cb17452f14610354578063cd38347f1461034f578063cd8562351461034a578063cf6e65b714610345578063d547741f14610340578063d7ef35441461033b578063da7a9b6a14610336578063de8eec6414610331578063e30c39781461032c578063e3c6b0ca14610327578063f2fde38b14610322578063f7c353c71461031d578063f85683ef14610318578063fafebac5146103135763fb6fe7760361000e576113f1565b6113ab565b611382565b611223565b611167565b611149565b611113565b6110ea565b6110cc565b6110a3565b61106f565b611051565b611033565b61100c565b610fd1565b610e7e565b610e59565b610e3b565b610e1f565b610e01565b610dbc565b610d9f565b610d7b565b610d58565b610d3c565b610d18565b610cdb565b610cbd565b610c73565b610bc4565b610b79565b610b5b565b610b25565b6105ef565b610ad0565b610ab3565b610a96565b610a6d565b610a1d565b6109fb565b6109b0565b61092f565b610911565b6108f3565b6108d5565b6108ac565b61088e565b61086b565b61082e565b610810565b610777565b61074e565b610704565b6106cb565b610697565b610671565b610648565b61062a565b61060c565b6105d1565b6105a6565b610588565b61056a565b610515565b6104fa565b6104ca565b610474565b6001600160e01b031981160361046f57565b600080fd5b3461046f57602036600319011261046f5760206004356104938161045d565b63ffffffff60e01b16637965db0b60e01b81149081156104b9575b506040519015158152f35b6301ffc9a760e01b149050386104ae565b3461046f57600036600319011261046f576020600554604051908152f35b602090600319011261046f5760043590565b3461046f57610508366104e8565b610510611681565b600255005b3461046f57610523366104e8565b602d5481101561046f57602d6000527f4a2cc91ee622da3bc833a54c37ffcb6f3ec23b7793efc5eaf5e71b7b406c5c0601546040516001600160a01b039091168152602090f35b3461046f57600036600319011261046f576020601054604051908152f35b3461046f57600036600319011261046f576020604354604051908152f35b3461046f576105b4366104e8565b6000526052602052602060ff604060002054166040519015158152f35b3461046f57600036600319011261046f576020600254604051908152f35b3461046f57600036600319011261046f5760206040516103e88152f35b3461046f57600036600319011261046f576020604154604051908152f35b3461046f57600036600319011261046f576020605154604051908152f35b3461046f57600036600319011261046f576044546040516001600160a01b039091168152602090f35b3461046f57602036600319011261046f57602061068f600435611446565b604051908152f35b3461046f57600036600319011261046f57602060ff605354166040519015158152f35b6001600160a01b0381160361046f57565b3461046f57604036600319011261046f5761001b6024356004356106ee826106ba565b6106ff6106fa82611446565b6116a2565b611851565b3461046f57604036600319011261046f57600435602435610724816106ba565b336001600160a01b0382160361073d5761001b916118ed565b63334bd91960e11b60005260046000fd5b3461046f57600036600319011261046f576047546040516001600160a01b039091168152602090f35b3461046f57604036600319011261046f576004356107948161045d565b7fa730c19ce8d967dc1d8a5f5ca85e2a607ce6bb270368f1ad107fc377db46a8c06020602435926107c4846106ba565b6107cc611681565b6001600160e01b0319166000818152604b83526040902080546001600160a01b0319166001600160a01b038616179055926040516001600160a01b039091168152a2005b3461046f57600036600319011261046f576020600154604051908152f35b3461046f57602036600319011261046f5760043561084b816106ba565b60018060a01b031660005260546020526020604060002054604051908152f35b3461046f57600036600319011261046f576020604051670214e8348c4f00008152f35b3461046f57600036600319011261046f576020601354604051908152f35b3461046f57600036600319011261046f576048546040516001600160a01b039091168152602090f35b3461046f57600036600319011261046f576020605054604051908152f35b3461046f57600036600319011261046f576020600054604051908152f35b3461046f57600036600319011261046f576020604054604051908152f35b3461046f57600036600319011261046f57610948611681565b600080516020611aaf83398151915280546001600160a01b0319908116909155600080516020611a4f833981519152805491821690556000906001600160a01b03167f8be0079c531659141344cd1fd0a4f28419497f9722a3daafe3b4186f6b6457e08280a3005b3461046f576109be366104e8565b602a5481101561046f57602a6000527fbeced09521047d05b8960b7e7bcc1d1292cf3e4b2a6b63f48335cbde5f7545d20154604051908152602090f35b3461046f57600036600319011261046f576020604051668e1bc9bf0400008152f35b3461046f57600036600319011261046f57600080516020611aaf83398151915254336001600160a01b0390911603610a585761001b33611992565b63118cdaa760e01b6000523360045260246000fd5b3461046f57600036600319011261046f576049546040516001600160a01b039091168152602090f35b3461046f57600036600319011261046f5760206040516180088152f35b3461046f57600036600319011261046f576020604051611d4c8152f35b3461046f57610ade366104e8565b602c5481101561046f57602c6000527f7416c943b4a09859521022fd2e90eac0dd9026dad28fa317782a135f28a8609101546040516001600160a01b039091168152602090f35b3461046f57600036600319011261046f57600080516020611a4f833981519152546040516001600160a01b039091168152602090f35b3461046f57600036600319011261046f576020601154604051908152f35b3461046f57610b87366104e8565b602b5481101561046f57602b6000527f11c44e4875b74d31ff9fd779bf2566af7bd15b87fc985d01f5094b89e3669e4f0154604051908152602090f35b3461046f57604036600319011261046f57602060ff610c1b602435600435610beb826106ba565b600052600080516020611a6f833981519152845260406000209060018060a01b0316600052602052604060002090565b54166040519015158152f35b979491926101409996939c9b9a9794919c6101608a019d8a5260208a015260408901526060880152608087015260a086015260c085015260e08401526101008301526101208201520152565b3461046f57600036600319011261046f57601f5460205490610cb9602154602254602354602454602554602654916027549360285495602954976040519b8c9b8c610c27565b0390f35b3461046f57600036600319011261046f576020604e54604051908152f35b3461046f57602036600319011261046f57600435610cf8816106ba565b60018060a01b031660005260556020526020604060002054604051908152f35b3461046f57600036600319011261046f576020604051684e1003b28d928000008152f35b3461046f57600036600319011261046f57602060405160008152f35b3461046f57600036600319011261046f576020604051660aa87bee537fff198152f35b3461046f57600036600319011261046f576020604051680246ddf979766800008152f35b3461046f57600036600319011261046f5760206040516101f48152f35b3461046f57602036600319011261046f57600435610dd9816106ba565b60018060a01b03166000526034602052602060018060a01b0360406000205416604051908152f35b3461046f57600036600319011261046f576020601254604051908152f35b3461046f57600036600319011261046f57602060405160648152f35b3461046f57600036600319011261046f576020600f54604051908152f35b3461046f57600036600319011261046f5760206040516908e4d3168276864000008152f35b3461046f57602036600319011261046f57600435610e9b816106ba565b600080516020611a8f833981519152549067ffffffffffffffff610ecf60ff604085901c16159367ffffffffffffffff1690565b1680159081610fc9575b6001149081610fbf575b159081610fb6575b50610fa557610f319082610f28600167ffffffffffffffff19600080516020611a8f833981519152541617600080516020611a8f83398151915255565b610f8057611467565b610f3757005b600080516020611a8f833981519152805460ff60401b19169055604051600181527fc7f505b2f371ae2175ee4913f4499e1f2633a7b5936321eed1cdaeb6115181d290602090a1005b600080516020611a8f833981519152805460ff60401b1916600160401b179055611467565b63f92ee8a960e01b60005260046000fd5b90501538610eeb565b303b159150610ee3565b839150610ed9565b3461046f57600036600319011261046f5760206040517f155e7f76c52e49fe8308e62eabe3ce449c978443b7d8beb86992427229ec386f8152f35b3461046f57600036600319011261046f5760206040516b0d92289838d21a99680000008152f35b3461046f57600036600319011261046f576020600454604051908152f35b3461046f57600036600319011261046f576020604f54604051908152f35b3461046f57604036600319011261046f5761001b602435600435611092826106ba565b61109e6106fa82611446565b6118ed565b3461046f57600036600319011261046f57600e546040516001600160a01b039091168152602090f35b3461046f57600036600319011261046f576020604254604051908152f35b3461046f57600036600319011261046f576046546040516001600160a01b039091168152602090f35b3461046f57600036600319011261046f57600080516020611aaf833981519152546040516001600160a01b039091168152602090f35b3461046f57600036600319011261046f576020600354604051908152f35b3461046f57602036600319011261046f57600435611184816106ba565b61118c611681565b600080516020611aaf83398151915280546001600160a01b0319166001600160a01b03928316908117909155600080516020611a4f833981519152549091167f38d16b8cac22d99fc7c124b9cd0de2d3fa1faef420bfe791d8c362d765e22700600080a3005b9181601f8401121561046f5782359167ffffffffffffffff831161046f576020808501948460051b01011161046f57565b3461046f57604036600319011261046f5760043567ffffffffffffffff811161046f576112549036906004016111f2565b60243567ffffffffffffffff811161046f576112749036906004016111f2565b9261127d611681565b8383036113715760005b83811061129057005b806112f76112a160019388876115b5565b356112ab816106ba565b6112b68388876115b5565b356112c08161045d565b6001600160e01b0319166000908152604b6020526040902080546001600160a01b0319166001600160a01b03909216919091179055565b61130a6113058287866115b5565b6115e8565b7fa730c19ce8d967dc1d8a5f5ca85e2a607ce6bb270368f1ad107fc377db46a8c061136861134161133c858b8a6115b5565b6115db565b6040516001600160a01b0390911681526001600160e01b0319909316929081906020820190565b0390a201611287565b63512509d360e11b60005260046000fd5b3461046f57600036600319011261046f57604a546040516001600160a01b039091168152602090f35b3461046f57600036600319011261046f5760145460155490610cb9601654601754601854601954601a54601b5491601c5493601d5495601e54976040519b8c9b8c610c27565b3461046f576113ff366104e8565b60455481101561046f5760456000527fa80a8fcc11760162f08bb091d2c9389d07f2b73d0e996161dfac6f1043b5fc0b01546040516001600160a01b039091168152602090f35b600052600080516020611a6f83398151915260205260016040600020015490565b61146f611a00565b611477611a00565b61147f611a00565b611487611a00565b331561159f5761149633611992565b61149f336116ec565b506114a93361178c565b50604780546001600160a01b0319166001600160a01b039290921691909117905560076041556114d96007604055565b6114ea670853a0d2313c0000603155565b6114fb67058d15e176280000603255565b61150762015180600255565b61151362127500600455565b61151e610e10600155565b61152a620186a0600055565b6115356103e8600555565b61154a6b0d92289838d21a9968000000601055565b61155c680246ddf97976680000604255565b61156f6908e4d316827686400000604355565b61157d640ba43b7400604e55565b6115896207a120604f55565b6115936005605055565b61159d600f605155565b565b631e4fbdf760e01b600052600060045260246000fd5b91908110156115c55760051b0190565b634e487b7160e01b600052603260045260246000fd5b356115e5816106ba565b90565b356115e58161045d565b6040513481527f2ccfc58c2cef4ee590b5f16be0548cc54afc12e1c66a67b362b7d640fd16bb2d60203392a2565b600080356001600160e01b031916808252604b6020526040909120546001600160a01b031690811561166d5760008083368280378136915af43d6000803e15611668573d6000f35b3d6000fd5b630a82dd7360e31b60005260045260246000fd5b600080516020611a4f833981519152546001600160a01b03163303610a5857565b6000818152600080516020611a6f8339815191526020908152604080832033845290915290205460ff16156116d45750565b63e2517d3f60e01b6000523360045260245260446000fd5b6001600160a01b03811660009081527fb7db2dd08fcb62d0c9e08c51941cae53c267786a0b75803fb7960902fc8ef97d602052604090205460ff16611786576001600160a01b031660008181527fb7db2dd08fcb62d0c9e08c51941cae53c267786a0b75803fb7960902fc8ef97d60205260408120805460ff19166001179055339190600080516020611a2f8339815191528180a4600190565b50600090565b6001600160a01b03811660009081527f595b99de72e44550de209b8610b07ab21870ce71a1063d294735321864dc516a602052604090205460ff16611786576001600160a01b03811660009081527f595b99de72e44550de209b8610b07ab21870ce71a1063d294735321864dc516a60205260409020805460ff1916600117905533906001600160a01b03167f155e7f76c52e49fe8308e62eabe3ce449c978443b7d8beb86992427229ec386f600080516020611a2f833981519152600080a4600190565b6000818152600080516020611a6f833981519152602090815260408083206001600160a01b038616845290915290205460ff166118e6576000818152600080516020611a6f833981519152602090815260408083206001600160a01b03861684529091529020805460ff1916600117905533916001600160a01b031690600080516020611a2f833981519152600080a4600190565b5050600090565b6000818152600080516020611a6f833981519152602090815260408083206001600160a01b038616845290915290205460ff16156118e6576000818152600080516020611a6f833981519152602090815260408083206001600160a01b03861684529091529020805460ff1916905533916001600160a01b0316907ff6391f5c32d9c69d2a47ea670b442974b53935d1edc7fd64eb21e047a839171b600080a4600190565b600080516020611aaf83398151915280546001600160a01b0319908116909155600080516020611a4f83398151915280549182166001600160a01b0393841690811790915591167f8be0079c531659141344cd1fd0a4f28419497f9722a3daafe3b4186f6b6457e0600080a3565b60ff600080516020611a8f8339815191525460401c1615611a1d57565b631afcd79f60e31b60005260046000fdfe2f8788117e7eff1d82e926ec794901d17c78024a50270940304540a733656f0d9016d09d72d40fdae2fd8ceac6b6234c7706214fd39c1cd1e609a0528c19930002dd7bc7dec4dceedda775e58dd541e08a116c6c53815c0bd028192f7b626800f0c57e16840df040f15088dc2f81fe391c3923bec73e23a9662efc9c229c6a00237e158222e3e6968b72b9db0d8043aacf074ad9f650f0d1606b4d82ee432c00a264697066735822122004a7dceb2e80881fcbef306652a2afd8172b12741e19f94571d2ae627fa85c6164736f6c634300081c0033",
  "linkReferences": {},
  "deployedLinkReferences": {}
}