{
  "_format": "hh-sol-artifact-1",
  "contractName": "MockStakingForRevealing",
  "sourceName": "contracts/test-helpers/MockStakingForRevealing.sol",
  "abi": [
    {
      "inputs": [
        {
          "internalType": "uint256",
          "name": "index",
          "type": "uint256"
        }
      ],
      "name": "getQuarantinedValidatorAt",
      "outputs": [
        {
          "internalType": "address",
          "name": "",
          "type": "address"
        },
        {
          "internalType": "uint256",
          "name": "",
          "type": "uint256"
        }
      ],
      "stateMutability": "view",
      "type": "function"
    },
    {
      "inputs": [],
      "name": "getQuarantinedValidatorsCount",
      "outputs": [
        {
          "internalType": "uint256",
          "name": "",
          "type": "uint256"
        }
      ],
      "stateMutability": "view",
      "type": "function"
    },
    {
      "inputs": [],
      "name": "lastQuarantineEpoch",
      "outputs": [
        {
          "internalType": "uint256",
          "name": "",
          "type": "uint256"
        }
      ],
      "stateMutability": "view",
      "type": "function"
    },
    {
      "inputs": [],
      "name": "lastQuarantinedValidator",
      "outputs": [
        {
          "internalType": "address",
          "name": "",
          "type": "address"
        }
      ],
      "stateMutability": "view",
      "type": "function"
    },
    {
      "inputs": [
        {
          "internalType": "uint256",
          "name": "",
          "type": "uint256"
        }
      ],
      "name": "quarantineEpochs",
      "outputs": [
        {
          "internalType": "uint256",
          "name": "",
          "type": "uint256"
        }
      ],
      "stateMutability": "view",
      "type": "function"
    },
    {
      "inputs": [
        {
          "internalType": "uint256",
          "name": "",
          "type": "uint256"
        }
      ],
      "name": "quarantinedValidators",
      "outputs": [
        {
          "internalType": "address",
          "name": "",
          "type": "address"
        }
      ],
      "stateMutability": "view",
      "type": "function"
    },
    {
      "inputs": [],
      "name": "resetMockState",
      "outputs": [],
      "stateMutability": "nonpayable",
      "type": "function"
    },
    {
      "inputs": [
        {
          "internalType": "address",
          "name": "_validator",
          "type": "address"
        },
        {
          "internalType": "uint256",
          "name": "_epoch",
          "type": "uint256"
        },
        {
          "internalType": "bytes32",
          "name": "",
          "type": "bytes32"
        }
      ],
      "name": "validatorQuarantine",
      "outputs": [],
      "stateMutability": "nonpayable",
      "type": "function"
    },
    {
      "inputs": [],
      "name": "validatorQuarantineCalled",
      "outputs": [
        {
          "internalType": "bool",
          "name": "",
          "type": "bool"
        }
      ],
      "stateMutability": "view",
      "type": "function"
    }
  ],
  "bytecode": "0x60808060405234601557610401908161001b8239f35b600080fdfe6080604052600436101561001257600080fd5b60003560e01c806320090e9d146102b757806354acf918146101d75780636d7ae35d146101b4578063802543761461017c57806393fb0e571461015e578063b5776e9614610131578063cf06f671146100e4578063e63f4929146100c65763f4e2786d1461007f57600080fd5b346100c15760203660031901126100c1576004356002548110156100c1576100a8602091610368565b905460405160039290921b1c6001600160a01b03168152f35b600080fd5b346100c15760003660031901126100c1576020600154604051908152f35b346100c15760203660031901126100c157604060043561011e61010682610368565b905460039190911b1c6001600160a01b031691610399565b90549060031b1c82519182526020820152f35b346100c15760003660031901126100c15760005460405160089190911c6001600160a01b03168152602090f35b346100c15760003660031901126100c1576020600254604051908152f35b346100c15760203660031901126100c1576004356003548110156100c1576101a5602091610399565b90549060031b1c604051908152f35b346100c15760003660031901126100c157602060ff600054166040519015158152f35b346100c15760603660031901126100c1576004356001600160a01b0381168082036100c157600080546001600160a81b03191660089390931b610100600160a81b031692909217600190811790925560243591829055600254600160401b8110156102a15780600161024c9201600255610368565b8154600391821b93841b6001600160a01b0390941b191692909217905554600160401b8110156102a1578060016102869201600355610399565b819291549060031b91821b91600019901b1916179055600080f35b634e487b7160e01b600052604160045260246000fd5b346100c15760003660031901126100c157600080546001600160a81b03191681556001819055600280549190558061032f575b506003546000600355806102fa57005b600360005261032d907fc2575a0e9e593c00f959f8c92f12db2869c3395a3b0502d05e2516446f71f85b908101906103b4565b005b6002600052610362907f405787fa12a823e0f2b7631cc41b3ba8828b3321ca811111fa75cd3aa3bb5ace908101906103b4565b806102ea565b60025481101561038357600260005260206000200190600090565b634e487b7160e01b600052603260045260246000fd5b60035481101561038357600360005260206000200190600090565b8181106103bf575050565b600081556001016103b456fea26469706673582212206c4351dcb33bff792ae7bcac5e339b019adb0ccb93833d796800aeca82bf395f64736f6c634300081c0033",
  "linkReferences": {},
  "deployedLinkReferences": {}
}