{
  "_format": "hh-sol-artifact-1",
  "contractName": "ValidatorPrimeUtils",
  "sourceName": "contracts/utils/ValidatorPrimeUtils.sol",
  "abi": [
    {
      "anonymous": false,
      "inputs": [
        {
          "indexed": false,
          "internalType": "uint256",
          "name": "epochNumber",
          "type": "uint256"
        },
        {
          "indexed": false,
          "internalType": "address",
          "name": "validator",
          "type": "address"
        },
        {
          "indexed": false,
          "internalType": "uint256",
          "name": "priorWeight",
          "type": "uint256"
        },
        {
          "indexed": false,
          "internalType": "uint256",
          "name": "epochWeight",
          "type": "uint256"
        }
      ],
      "name": "CorruptedEpochWeight",
      "type": "event"
    },
    {
      "anonymous": false,
      "inputs": [
        {
          "indexed": false,
          "internalType": "address",
          "name": "validator",
          "type": "address"
        },
        {
          "indexed": false,
          "internalType": "bytes32",
          "name": "txId",
          "type": "bytes32"
        },
        {
          "indexed": false,
          "internalType": "uint256",
          "name": "bannedAt",
          "type": "uint256"
        },
        {
          "indexed": false,
          "internalType": "uint256",
          "name": "bannedUntil",
          "type": "uint256"
        }
      ],
      "name": "ValidatorBannedIdleness",
      "type": "event"
    },
    {
      "anonymous": false,
      "inputs": [
        {
          "indexed": false,
          "internalType": "address",
          "name": "validator",
          "type": "address"
        },
        {
          "indexed": false,
          "internalType": "uint256",
          "name": "epoch",
          "type": "uint256"
        },
        {
          "indexed": false,
          "internalType": "uint256",
          "name": "validatorRewards",
          "type": "uint256"
        },
        {
          "indexed": false,
          "internalType": "uint256",
          "name": "delegatorRewards",
          "type": "uint256"
        },
        {
          "indexed": false,
          "internalType": "uint256",
          "name": "feeRewards",
          "type": "uint256"
        },
        {
          "indexed": false,
          "internalType": "uint256",
          "name": "feePenalties",
          "type": "uint256"
        }
      ],
      "name": "ValidatorPrime",
      "type": "event"
    },
    {
      "anonymous": false,
      "inputs": [
        {
          "indexed": false,
          "internalType": "address",
          "name": "validator",
          "type": "address"
        }
      ],
      "name": "ValidatorQuarantineRepealed",
      "type": "event"
    },
    {
      "anonymous": false,
      "inputs": [
        {
          "indexed": false,
          "internalType": "address",
          "name": "validator",
          "type": "address"
        },
        {
          "indexed": false,
          "internalType": "uint256",
          "name": "quarantinedAt",
          "type": "uint256"
        }
      ],
      "name": "ValidatorQuarantined",
      "type": "event"
    },
    {
      "anonymous": false,
      "inputs": [
        {
          "indexed": false,
          "internalType": "address",
          "name": "validator",
          "type": "address"
        },
        {
          "indexed": false,
          "internalType": "uint256",
          "name": "validatorSlashing",
          "type": "uint256"
        },
        {
          "indexed": false,
          "internalType": "uint256",
          "name": "delegatorSlashing",
          "type": "uint256"
        },
        {
          "indexed": false,
          "internalType": "uint256",
          "name": "epoch",
          "type": "uint256"
        }
      ],
      "name": "ValidatorSlash",
      "type": "event"
    },
    {
      "inputs": [],
      "name": "INFLATION_DEVELOPER_BPS",
      "outputs": [
        {
          "internalType": "uint256",
          "name": "",
          "type": "uint256"
        }
      ],
      "stateMutability": "view",
      "type": "function"
    },
    {
      "inputs": [],
      "name": "INFLATION_STAKER_BPS",
      "outputs": [
        {
          "internalType": "uint256",
          "name": "",
          "type": "uint256"
        }
      ],
      "stateMutability": "view",
      "type": "function"
    },
    {
      "inputs": [],
      "name": "INFLATION_VALIDATOR_BPS",
      "outputs": [
        {
          "internalType": "uint256",
          "name": "",
          "type": "uint256"
        }
      ],
      "stateMutability": "view",
      "type": "function"
    }
  ],
  "bytecode": "0x60808060405234601b5761340a90816100218239308160080152f35b600080fdfe610220604052307f000000000000000000000000000000000000000000000000000000000000000014600436101561003657600080fd5b600090813560e01c8063150a12221461047457806316f1cb221461043f578063217fcc3e1461042257806383772595146104275780638b7e92a6146104225780639adecea5146100d35763af2868b41461008f57600080fd5b6100d05760603660031901126100d057602435906001600160a01b03821682036100d05760406100c460443584600435611bef565b82519182526020820152f35b80fd5b506100d0576101003660031901126100d057600435602435906064359160843560a43590600b8401805460138601928354808311600014610401575061011890610be5565b106103fb575b90915b60038201549061013681600585015493612185565b90670de0b6b3a764000003670de0b6b3a764000081116103e757600794939192610171869461016b6101769460c43594612185565b90610ba2565b6127a9565b610187600360443501918254610ba2565b905501805460ff19908116600190811790925592909101805483169091179055600a8301805461ff001916905560058084018054909216909155600480840186905583546001600160a01b03908116600090815260038701602090815260408083208a905587548416835293880181528382208990558654909216815292860190529020849055825461021990610c8e565b83556002849301925b848454808310156103dd576102378387610b3c565b9054865460039290921b1c6001600160a01b0390811691161461025e575050600101610222565b6102c09261029761027e6102786102bb9499959899610be5565b85610b3c565b905460039190911b1c6001600160a01b03169184610b3c565b9080546001600160a01b0360039390931b83811b199091169290931690921b179055565b610c4b565b60038301546001600160a01b031615806103c4575b806103b7575b61031c575b5081546040516001600160a01b0390911681527f304c2a8493b9e418525993ce24edcc67d1a1b6c083d600a9cf0b8cf5c111755c90602090a180f35b80546001600160a01b03166000908152600482016020526040902073__$10fea0eca7ca0798b023cff1d908ee714c$__91823b156103b357604051632b8af2a160e21b81526004810191909152602481019190915260448101849052908290829060649082905af480156103a857156102e0578161039991610b6a565b6103a45781386102e0565b5080fd5b6040513d84823e3d90fd5b8380fd5b5060e435600019146102db565b50825481546001600160a01b03908116911614156102d5565b50929350506102c0565b634e487b7160e01b89526011600452602489fd5b9061011e565b915061040f90939293610be5565b1061041c575b9091610121565b90610415565b610b1f565b82806003193601126100d0576020604051611d4c8152f35b506100d0576101003660031901126100d05761047160e43560c43560a435608435606435604435602435600435610c9b565b80f35b506100d0576101203660031901126100d057600435906024359160443592606435936084359060a4359060c4359260e435906002860154600387015492600489019a868c5410610676575b505050505085967f46cda53c301fdcf68b170f57e98b59fbc32ad0d522bdd36278d635e4750ac520608060018060a09a999a1b03895416604051908152610104356020820152856040820152866060820152a180548481111561066e57905b5585546001600160a01b03168086526003820160208190526040872054909190156105fb575b5086546001600160a01b03908116875260209182526040808820429055885482168852600484018352808820869055885490911687526005909201905284205560001914610590575080f35b73__$10fea0eca7ca0798b023cff1d908ee714c$__92833b156105f757604483926040519586938492637fbf355b60e11b8452600484015260248301525af480156105ea576105dc5780f35b6105e591610b6a565b388180f35b50604051903d90823e3d90fd5b8280fd5b9091929394955060028301805490600160401b82101561065a57816102979160016106299594018155610b3c565b815460001981146106465760010182558694939291906005610544565b634e487b7160e01b88526011600452602488fd5b634e487b7160e01b8a52604160045260248afd5b50839061051e565b6001871615938415610b185781945b610b1157505b600b8a019485549060138c01918d83549050808211600014610add57506000198a01908a8211610ac9578e9796959493929110610ac257875b9687929687945b8c6003860197858a8a5498600501988954916106e691612185565b906106f08d610bf4565b6106f991612185565b61070291610ba2565b9061070c916127a9565b95600389019a808c549a6005019a8b549161072691612185565b9161073090610bf4565b61073991612185565b61074291610ba2565b9061074c916127a9565b918181148080610ab7575b156108af5750505050506003019182549150808210156000146108a65761077d91610c10565b905b5560ff600a8d015460081c166003811015610892571561086f575b50505050505b54905403610867576001965b600a8601600389101561085357879861ff0082999899549160081b169061ff001916179055805484811160001461084c575b81556012870160ff198154169055601a870160ff198154169055600019841461080e575b969594388080806104bf565b7f6917318dac70d2950cf691aa372c972b60d4a75903e00a01f89a795a70de6837604060018060a01b038954168151908152856020820152a1610802565b50836107de565b634e487b7160e01b88526021600452602488fd5b6002966107ac565b54905554905560068201546006820155600480830154910155388080808061079a565b634e487b7160e01b8e52602160045260248efd5b50508d9061077f565b809c98949c9b979a96939b99959990610aac575b156109775750505050505050506003018054828082101560001461096e576108ea91610c10565b905b5580821161093b575b808210610905575b5050506107a0565b60059161091191610c10565b9101805490918082106109325761092791610c10565b905b553880806108fd565b50508890610929565b6109458183610c10565b60048401805490918082106109655761095d91610c10565b905b556108f5565b50508b9061095f565b50508b906108ec565b979a9897108080610aa1575b156109df575050505050505060038093940190815490808210156000146109d6576109ad91610c10565b905b5501805490918082106109cd576109c591610c10565b905b556107a0565b505088906109c7565b50508b906109af565b809a939791949892969a99959990610a96575b610a06575b505050505050505050506107a0565b600392830180549091808210610a8d57610a1f91610c10565b905b550180549092909150808210610a8457610a3a91610c10565b905b5560ff600a8d015460081c1660038110156108925715610a61575b808d8180806109f7565b549055549055600682015460068201556004808301549101553880808080610a57565b50508d90610a3c565b50508390610a21565b5089548b54116109f2565b508b54875411610983565b508c548854116108c3565b508c548e5411610757565b87916106c4565b634e487b7160e01b8f52601160045260248ffd5b9192916000198b0191508a8211610ac9578e9796959493929110610b0a579087915b9687929687946106cb565b9087610aff565b905061068b565b8094610685565b6000366003190112610b375760206040516103e88152f35b600080fd5b8054821015610b545760005260206000200190600090565b634e487b7160e01b600052603260045260246000fd5b90601f8019910116810190811067ffffffffffffffff821117610b8c57604052565b634e487b7160e01b600052604160045260246000fd5b91908201809211610baf57565b634e487b7160e01b600052601160045260246000fd5b8115610bcf570490565b634e487b7160e01b600052601260045260246000fd5b600019810191908211610baf57565b670de0b6b3a76400000390670de0b6b3a76400008211610baf57565b91908203918211610baf57565b906002811015610c355760ff80198354169116179055565b634e487b7160e01b600052602160045260246000fd5b80548015610c78576000190190610c628282610b3c565b81549060018060a01b039060031b1b1916905555565b634e487b7160e01b600052603160045260246000fd5b8015610baf576000190190565b96939094919592956080526101a0526101e05260e05261010052600a83015490600060ff8316600281101561150757158015611b545760ff600b8701945b60081c1690600382101580611b40576101c084905282159182611b215750506001839214600014611b1857601387015b6101c0525b6101e051151580611afb575b611af257610d5b60036101c051015461017160056101c051015461016b600289015491610d55610d4f8460038d015497612185565b93610bf4565b90612185565b9161149357611ab9575b60c08290526101808290526101608290526101c0516007015460ff16611942575b50806101205260078501548152601c8501602052600360408220015480151580611923575b611847575b5060068501548152601b850160205260408120600381015480151580611828575b611814575b5060018101908154156117b3575b505060098501548152601e8501602052600360408220015480151580611794575b61165e575b5060088501548152601d85016020526040812060038101548015158061162b575b611617575b50600181019081541561158c575b505073__$10fea0eca7ca0798b023cff1d908ee714c$__3b156100d057604051637fbf355b60e11b8152826004820152856024820152818160448173__$10fea0eca7ca0798b023cff1d908ee714c$__5af480156103a857829061157c575b505060048501548015908115611547575b506114a7575b60036101c0510154801580611478575b15610fbe57505091610f2b6005610f2184610171600361016b60c099610d55610d4f88857f83a4d1d5fed63cb49275488e05bc88ce0504f7542a75a6568e8922cbbe7775059f9d0154970154926002810154958691015497612185565b9201918254610ba2565b9055610f3f825160056101c0510154610ba2565b60056101c05101555b60018060a01b03905416610f626101605161018051610ba2565b6040519182526101e051602083015260408201528151606082015260e05160808201526101005160a0820152a160076101a05101610fa4610120518254610ba2565b90556101c05160078101805460ff191690556101e0519055565b600486959394929501548015908115611457575b50611006575b505050505060c07f83a4d1d5fed63cb49275488e05bc88ce0504f7542a75a6568e8922cbbe77750591610f48565b906110879161104261102160c05160056101c0510154610ba2565b918260056101c051015561103d61016051916101805190610ba2565b610ba2565b908160036101c051015560e0516113d7575b505061010051611347575b6101716005600383015492015461016b600287015491610d55610d4f8460038b015497612185565b6004850154801515908161133a575b8161132c575b506111bf575b6110d360036101c051015461017160056101c051015461016b600288015491610d55610d4f8460038c015497612185565b81811161119f575b818110611186575b505081546001600160a01b03166000908152600483016020526040902091905073__$10fea0eca7ca0798b023cff1d908ee714c$__3b156105f757604051632b8af2a160e21b81526004810191909152602481019190915260448101839052818160648173__$10fea0eca7ca0798b023cff1d908ee714c$__5af480156103a857611171575b808080610fd8565b61117c828092610b6a565b6100d05780611169565b610f2160059161119593610c10565b90553880806110e3565b6111a98282610c10565b6111b860048501918254610ba2565b90556110db565b509291908193825b6002608051015480821015611321576111e582600260805101610b3c565b9054875460039290921b1c6001600160a01b0390811691161461120b57506001016111c7565b600096929394959619810190811161130d579061029761123361125293600260805101610b3c565b905460805160039290921b1c6001600160a01b03169290600201610b3c565b611260600260805101610c4b565b60805154801515806112e7575b6112d4575b5060048581018590556005808701805460ff1916905586546001600160a01b03908116600090815260805160038101602090815260408084208b90558b548516845295820181528583208a90558a5490931682529092019052208490556110a2565b6112dd90610c8e565b6080515538611272565b5085546001600160a01b031660009081526080516003016020526040902054151561126d565b634e487b7160e01b86526011600452602486fd5b505090919293611260565b90506101e05110153861109c565b6000198114159150611096565b60036101c051015460056101c0510154906113628282610ba2565b80611370575b50505061105f565b61137e908261010051612240565b9061138c8261010051610c10565b91808211156113cf5761139e91610c10565b6101c05160030155808211156113c7576113b791610c10565b60056101c0510155388080611368565b5050846113b7565b50508661139e565b6113e19082610ba2565b90811561143c575061142c9061141761140560036101c0510154928360e051612240565b6114118160e051610c10565b92610ba2565b60036101c051015560056101c0510154610ba2565b60056101c05101555b3880611054565b61144a915060e05190610ba2565b60036101c0510155611435565b905060016101e051016101e0511161130d5760016101e05101101538610fd2565b5060ff600a87015460081c1660038110156114935715610ec4565b634e487b7160e01b83526021600452602483fd5b600a85015460ff8160081c166003811015611493571561151b575060ff600a86015460081c166003811015611507576001036114fe576114ec60015b600a8701610c1d565b600a8501805461ff0019169055610eb4565b6114ec816114e3565b634e487b7160e01b82526021600452602482fd5b60ff1660028110156115075761153e576115396001600a8701610c1d565b610eb4565b611539816114e3565b905060016101e051016101e051116115685760016101e05101101538610eae565b634e487b7160e01b82526011600452602482fd5b61158591610b6a565b3881610e9d565b6002916115f26115e260036101c05101546115b16101605161103d6101805184610ba2565b9360046101c05101948554908115158061160e575b15611602576115d6918854612240565b9283925b875490610ba2565b60036101c0510155558254610ba2565b9055015460088601553880610e3e565b505085549283926115da565b508015156115c6565b825250601d85016020526040812038610e30565b506101e05160001981011161164a576101e05160001901811115610e2b565b634e487b7160e01b83526011600452602483fd5b8152601e8501602052604081206001810154610e0a5760029060046101c0510154610140526117676101405115158060001461178c578254610140516101c051600301546116ab92612240565b905b8560a05280600014611783576116cb61014051610180518654612240565b60a0525b156117795761174f6116e961014051610160518654612240565b915b6116fa60a05161018051610c10565b6101805261170b8361016051610c10565b610160526117228361103d60a05161012051610ba2565b61012052611734855461014051610c10565b60046101c051015580600186015560036101c0510154610c10565b60036101c051015561103d60a0516001850154610ba2565b60018201550154600986015538610e0a565b61174f85916116eb565b8560a0526116cf565b8254906116ad565b506101e051600019810111611568576101e05160001901811115610e05565b6002916118046117f460056101c05101546117d060c05182610ba2565b9360066101c05101948554908115158061160e5715611602576115d6918854612240565b60056101c0510155558254610ba2565b9055015460068601553880610de4565b825250601b85016020526040812038610dd6565b506101e05160001981011161164a576101e05160001901811115610dd1565b8152601c8501602052604081206001810154610db0576101c051600601546102008190526002919015611919576118fd61188f8254610200519060056101c051015490612240565b610200511561190f576118eb6118ac6102005160c0518654612240565b915b6118ba8360c051610c10565b60c05282610120526118d0855461020051610c10565b60066101c051015580600186015560056101c0510154610c10565b60056101c05101556001830154610ba2565b60018201550154600786015538610db0565b6118eb85916118ae565b6118fd815461188f565b506101e051600019810111611568576101e05160001901811115610dab565b60038501548015611ab357600286015480611d4c810204611d4c1481151715611a9f578161197b84612710611d4c611980950204612185565b6121bf565b91818111611a4a575b50506101c05160050154908115611a4457670de0b6b3a76400006119c66119c06119ba8560036101c0510154610ba2565b856121bf565b83611bdc565b045b60c0526101c05160030154918215611a3b57826119eb610d55926119f195610ba2565b906121f4565b6101805260068401548015611a34576002850154806103e88102046103e8148115171561164a57906127106103e8611a2a930204610bc5565b6101605238610d86565b5080611a2a565b505050806119f1565b826119c8565b7fbc431d0e30614364feafa0c1fa5a7c43ef1b34a768cef1c8c1550d9116c438f7919250608090849360018060a01b038a541691604051926101e0518452602084015260408301526060820152a13880611989565b634e487b7160e01b84526011600452602484fd5b82611980565b600584015460056101c0510155600684015460066101c0510155600384015460036101c0510155600484015460046101c0510155610d65565b50505050505050565b506101e05185541480610d1a57506101e0516101c0515414610d1a565b600b8701610d09565b90925015611b3757601387015b6101c052610d0e565b600b8701611b2e565b634e487b7160e01b84526021600452602484fd5b60ff6013870194610cd9565b9080601f83011215610b375781519167ffffffffffffffff8311610b8c578260051b9060405193611b946020840186610b6a565b8452602080850192820101928311610b3757602001905b828210611bb85750505090565b8151815260209182019101611bab565b8051821015610b545760209160051b010190565b81810292918115918404141715610baf57565b92919092600091600060018211156121775782546001600160a01b031680156121685760405163162bf36760e11b81526004810191909152956000908790602490829084906001600160a01b03165af191821561215c5760009687936120f6575b5060ff600a850154166002811015610c35576120ec57600b8401965b60005b81518110156120e157611c828183611bc8565b51156120d957611c928183611bc8565b51611c9d8287611bc8565b51948560021b9580870460041490151715610baf57611cbc8388611bc8565b519081800460011482151715610baf57600096600090600093600086600019810111610baf578f9160001988018e5b8c821061209b57600091506000198a01905b8d82106120605750505060001988018e5b8c8210611fb857505060038301549660009080891115611fb257611d33915088610c10565b6005848101549360009080861115611fab57611d50915085610c10565b955b04611d5c91611bdc565b6127109004936005859204611d7091611bdc565b6127109004968791611d8191610c10565b6003840155611d8f91610c10565b9060050155611d9d91610ba2565b968792611da991610ba2565b998a92611db591610ba2565b99611dbf91610ba2565b95600060001984015b878110611ecf57505060001983015b868110611e42575090816001949392611df5575b5050505b01611c6f565b7fa627246e5775111863fbcde9461dd14307b2830d3cbe4c384728da5bb175fbe092608092868060a01b038c541692604051938452602084015260408301526060820152a1388080611deb565b80600191600052601d8b016020528d604060002090838201805492831515600014611ec65782611e7a6004611ea69501958654610c10565b80865580151580611eb9575b15611eaf576003611e9b935492015491612240565b80915b558254610ba2565b90555b01611dd7565b5050548091611e9e565b5060038201541515611e86565b50505050611ea9565b808252601b8b016020528d604083206001810190815492831515600014611f9f57611eff60068201948554610c10565b80855580151580611f92575b15611f8a576005611f20935492015491612240565b600182541660018216148015611f82575b15611f52576001939291611f49918091558254610ba2565b90555b01611dc8565b6000198101908111611f6e576001939291611f49918091611e9e565b634e487b7160e01b85526011600452602485fd5b508015611f31565b505054611f20565b5060058201541515611f0b565b50505050600190611f4c565b5095611d52565b50611d33565b81600052601e8101602052601c60406000209183600052016020526001604060002091018054908161202d575b5050600101805480611ffd575b50506001018e611d0e565b61200a6005850482611bdc565b61271090049e8f61201a91610ba2565b9e61202491610c10565b90553880611ff2565b61205782996120516127106120496001979660058e0490611bdc565b048092610ba2565b9a610c10565b90559038611fe5565b818352601d016020526040822060018101549199911561209157600191612088915490610ba2565b985b018f611cfd565b509760019061208a565b601b90826000959395520160205260406000206001810154156120cf576001916120c6915490610ba2565b925b018e611ceb565b50916001906120c8565b600190611def565b505050939294505050565b6013840196611c6c565b969092503d8082893e6121098189610b6a565b8701906040888303126100d057875167ffffffffffffffff81116103a45782612133918a01611b60565b9760208101519167ffffffffffffffff83116100d05750612155929101611b60565b9138611c50565b6040513d6000823e3d90fd5b50505050509050600090600090565b505050509050600090600090565b9061218f91611bdc565b8061219a5750600090565b6000198101908111610baf57670de0b6b3a7640000900460018101809111610baf5790565b90816121cc575050600090565b670de0b6b3a76400008202918204670de0b6b3a764000003610baf576121f191610bc5565b90565b9081612201575050600090565b670de0b6b3a76400008202918204670de0b6b3a764000003610baf576000198201918211610baf5761223291610bc5565b60018101809111610baf5790565b9181830291600019818509938380861095039480860395146122d457848311156122bb5790829109816000038216809204600281600302188082026002030280820260020302808202600203028082026002030280820260020302809102600203029360018380600003040190848311900302920304170290565b82634e487b71600052156003026011186020526024601cfd5b5050906121f19250610bc5565b9068056bc75e2d630fffff198201918213600116610baf57565b906803782dace9d8ffffff198201918213600116610baf57565b906806f05b59d3b1ffffff198201918213600116610baf57565b9068ad78ebc5ac61ffffff198201918213600116610baf57565b906856bc75e2d630ffffff198201918213600116610baf57565b90682b5e3af16b187fffff198201918213600116610baf57565b906815af1d78b58c3fffff198201918213600116610baf57565b90680ad78ebc5ac61fffff198201918213600116610baf57565b906802b5e3af16b187ffff198201918213600116610baf57565b9068015af1d78b58c3ffff198201918213600116610baf57565b906803782dace9d900000082019160006803782dace9d900000084129112908015821691151617610baf57565b9068ad78ebc5ac62000000820191600068ad78ebc5ac6200000084129112908015821691151617610baf57565b906856bc75e2d63100000082019160006856bc75e2d63100000084129112908015821691151617610baf57565b90682b5e3af16b188000008201916000682b5e3af16b1880000084129112908015821691151617610baf57565b906815af1d78b58c40000082019160006815af1d78b58c40000084129112908015821691151617610baf57565b90680ad78ebc5ac62000008201916000680ad78ebc5ac620000084129112908015821691151617610baf57565b9068056bc75e2d63100000820191600068056bc75e2d6310000084129112908015821691151617610baf57565b906802b5e3af16b188000082019160006802b5e3af16b188000084129112908015821691151617610baf57565b9068015af1d78b58c40000820191600068015af1d78b58c4000084129112908015821691151617610baf57565b9067ad78ebc5ac620000820191600067ad78ebc5ac62000084129112908015821691151617610baf57565b906756bc75e2d631000082019160006756bc75e2d631000084129112908015821691151617610baf57565b908168056bc75e2d6310000001918212600116610baf57565b91909160008382019384129112908015821691151617610baf57565b908160011b9180830560021490151715610baf57565b90606482029180830560641490151715610baf57565b9068056bc75e2d6310000082029180830568056bc75e2d631000001490151715610baf57565b906b02df0ab5a80a22c61ab5a7008202918083056b02df0ab5a80a22c61ab5a7001490151715610baf57565b90693f1fce3da636ea5cf850820291808305693f1fce3da636ea5cf8501490151715610baf57565b90690127fa27722cc06cc5e2820291808305690127fa27722cc06cc5e21490151715610baf57565b9068280e60114edb805d0382029180830568280e60114edb805d031490151715610baf57565b90680ebc5fb41746121110820291808305680ebc5fb417461211101490151715610baf57565b906808f00f760a4b2db55d8202918083056808f00f760a4b2db55d1490151715610baf57565b906806f5f17757889379378202918083056806f5f17757889379371490151715610baf57565b818102929160008212600160ff1b821416610baf578184051490151715610baf57565b8115610bcf57600160ff1b8114600019831416610baf570590565b8115612b18578015612b11578060ff1c612ae857770bce5086492111aea88f4bb1ca6bcf584181ea8059f76532821015612abf57600081670c7d713b49da0000129081612aac575b5015612a8c57670de0b6b3a76400008102908105670de0b6b3a764000003610baf576ec097ce7bc90715b34b9f0fffffffff19810190600181831316610baf576a0c097ce7bc90715b34b9f160241b8202918083056a0c097ce7bc90715b34b9f160241b1490151715610baf576a0c097ce7bc90715b34b9f160241b81019060006a0c097ce7bc90715b34b9f160241b83129112908015821691151617610baf5761289b9161278e565b6128a5818061276b565b6a0c097ce7bc90715b34b9f160241b900580808080856128c682809861276b565b6a0c097ce7bc90715b34b9f160241b900590600382056128e5916125e9565b916128ef9161276b565b6a0c097ce7bc90715b34b9f160241b9005906005820561290e916125e9565b916129189161276b565b6a0c097ce7bc90715b34b9f160241b90059060078205612937916125e9565b916129419161276b565b6a0c097ce7bc90715b34b9f160241b90059060098205612960916125e9565b9161296a9161276b565b6a0c097ce7bc90715b34b9f160241b900590600b8205612989916125e9565b916129939161276b565b6a0c097ce7bc90715b34b9f160241b900590600d82056129b2916125e9565b916129bc9161276b565b6a0c097ce7bc90715b34b9f160241b9005600f90056129da916125e9565b6129e390612605565b906129f881670de0b6b3a7640000840561276b565b91670de0b6b3a7640000900790612a0e9161276b565b670de0b6b3a76400009005612a22916125e9565b670de0b6b3a7640000905b0580680238fd42c5cf03ffff19131580612a79575b15612a50576121f190612fc2565b62461bcd60e51b600090815260206004526007602452660848298466060760cb1b604452606490fd5b5068070c1cc73b00c80000811315612a42565b670de0b6b3a764000091612aa2612aa792612b67565b61276b565b612a2d565b5050670f43fc2c04ee00008112386127f1565b62461bcd60e51b6000908152602060045260076024526642414c2330303760c81b604452606490fd5b62461bcd60e51b600090815260206004526007602452662120a61198181b60c91b604452606490fd5b5050600090565b5050670de0b6b3a764000090565b15612b2d57565b62461bcd60e51b6000908152602060045260076024526642414c2330303960c81b604452606490fd5b600160ff1b8114610baf5760000390565b670de0b6b3a76400008112612f99576121f190612d60906000775803bcc5cb9634ba4cfb2213f784019318ed4dcb6017880f60361b821215612f70575b73011798004d755d3c8bc8e03204cf44619e000000821215612f16575b612d5b612d19612d19612d54612ce9612d2e612d4e612d44612ce9612cd3612bf4612bee612d199c61261b565b9c61261b565b6e01855144814a7ff805980ff0084000811215612ee6575b6b02df0ab5a80a22c61ab5a700811215612eb9575b693f1fce3da636ea5cf850811215612e8e575b690127fa27722cc06cc5e2811215612e63575b68280e60114edb805d03811215612e39575b680ebc5fb41746121110811215612e0f575b6808f00f760a4b2db55d811215612de5575b6806f5f1775788937937811215612dbb575b6806248f33704b286603811215612d91575b6805c548670b9510e7ac811215612d67575b612ccd612cc7612cc2836122e1565b612631565b916124f3565b9061278e565b612d3e612d34612ce9612cf8612ce9858061276b565b68056bc75e2d63100000900590565b809885612d25612ce984612d1f612d13612ce983809d61276b565b94600386055b906125e9565b9361276b565b9e8f6005900590565b9c61276b565b9960078b05612d19565b9861276b565b9560098705612d19565b9461276b565b600b900590565b612605565b6064900590565b612d85612d76612d8b92612631565b6805c548670b9510e7ac900590565b9c6125a5565b9b612cb3565b612daf612da0612db592612631565b6806248f33704b286603900590565b9c61257a565b9b612ca1565b612dd9612dca612ddf92612631565b6806f5f1775788937937900590565b9c61254d565b9b612c8f565b612e03612df4612e0992612631565b6808f00f760a4b2db55d900590565b9c612520565b9b612c7d565b612e2d612e1e612e3392612631565b680ebc5fb41746121110900590565b9c6124f3565b9b612c6b565b612e57612e48612e5d92612631565b68280e60114edb805d03900590565b9c6124c6565b9b612c59565b612e82612e72612e8892612631565b690127fa27722cc06cc5e2900590565b9c612499565b9b612c47565b612ead612e9d612eb392612631565b693f1fce3da636ea5cf850900590565b9c61246c565b9b612c34565b612eda612ec8612ee092612631565b6b02df0ab5a80a22c61ab5a700900590565b9c61243f565b9b612c21565b612f0a612ef5612f1092612631565b6e01855144814a7ff805980ff0084000900590565b9c612412565b9b612c0c565b90612d5b612d19612d19612d54612ce9612d2e612d4e612d44612ce9612cd3612bf4612bee612f5d612f57612d199e6b1425982cf597cd205cef7380900590565b9e6123e5565b9c50505050505050505050505050612bc1565b5072195e54c5dd42177f53a27172fa9ec63026282760241b90056806f05b59d3b2000000612ba4565b612fb4612fb9916a0c097ce7bc90715b34b9f160241b61278e565b612b67565b6121f190612b56565b680238fd42c5cf03ffff19811215806133c1575b612fdf90612b26565b60008112613398576806f05b59d3b2000000811261335e5761300090612315565b61302072195e54c5dd42177f53a27172fa9ec63026282760241b9161261b565b68056bc75e2d631000009068ad78ebc5ac6200000081121561333e575b6856bc75e2d631000000811215613323575b682b5e3af16b18800000811215613308575b6815af1d78b58c4000008112156132ed575b680ad78ebc5ac62000008112156132d2575b68056bc75e2d631000008112156132b7575b6802b5e3af16b188000081121561329c575b68015af1d78b58c40000811215613281575b8080808080808080806130cd816125d0565b6130d7828061276b565b68056bc75e2d6310000090056002900590816130f2916125e9565b916130fc9161276b565b68056bc75e2d631000009005600390059081613117916125e9565b916131219161276b565b68056bc75e2d63100000900560049005908161313c916125e9565b916131469161276b565b68056bc75e2d631000009005600590059081613161916125e9565b9161316b9161276b565b68056bc75e2d631000009005600690059081613186916125e9565b916131909161276b565b68056bc75e2d6310000090056007900590816131ab916125e9565b916131b59161276b565b68056bc75e2d6310000090056008900590816131d0916125e9565b916131da9161276b565b68056bc75e2d6310000090056009900590816131f5916125e9565b916131ff9161276b565b68056bc75e2d631000009005600a9005908161321a916125e9565b916132249161276b565b68056bc75e2d631000009005600b9005908161323f916125e9565b916132499161276b565b68056bc75e2d631000009005600c9005613262916125e9565b61326b9161276b565b68056bc75e2d63100000900590612d609161276b565b612ce9613290613296926123cb565b92612745565b906130bb565b612ce96132ab6132b1926123b1565b9261271f565b906130a9565b612ce96132c66132cc926122e1565b926126f9565b90613097565b612ce96132e16132e792612397565b926126d3565b90613085565b612ce96132fc6133029261237d565b926126ab565b90613073565b612ce961331761331d92612363565b92612683565b90613061565b612ce961333261333892612349565b92612657565b9061304f565b613348915061232f565b6e01855144814a7ff805980ff00840009061303d565b6803782dace9d9000000811261338d57613377906122fb565b6130206b1425982cf597cd205cef73809161261b565b61302060019161261b565b6133b86133b36a0c097ce7bc90715b34b9f160241b92612b56565b612fc2565b6121f19161278e565b5068070c1cc73b00c80000811315612fd656fea2646970667358221220cb1b1508f4dc6c43d9c5a54eaea1304d5db3483c038a70610d963c01ad858a7e64736f6c634300081c0033",
  "linkReferences": {
    "contracts/utils/ValidatorTreeUtils.sol": {
      "ValidatorTreeUtils": [
        {
          "length": 20,
          "start": 858
        },
        {
          "length": 20,
          "start": 1459
        },
        {
          "length": 20,
          "start": 3683
        },
        {
          "length": 20,
          "start": 3740
        },
        {
          "length": 20,
          "start": 4390
        },
        {
          "length": 20,
          "start": 4458
        }
      ]
    }
  },
  "deployedLinkReferences": {
    "contracts/utils/ValidatorTreeUtils.sol": {
      "ValidatorTreeUtils": [
        {
          "length": 20,
          "start": 825
        },
        {
          "length": 20,
          "start": 1426
        },
        {
          "length": 20,
          "start": 3650
        },
        {
          "length": 20,
          "start": 3707
        },
        {
          "length": 20,
          "start": 4357
        },
        {
          "length": 20,
          "start": 4425
        }
      ]
    }
  }
}