{
  "_format": "hh-sol-artifact-1",
  "contractName": "ValidatorPrimeUtils",
  "sourceName": "contracts/utils/ValidatorPrimeUtils.sol",
  "abi": [
    {
      "anonymous": false,
      "inputs": [
        {
          "indexed": false,
          "internalType": "address",
          "name": "validator",
          "type": "address"
        },
        {
          "indexed": false,
          "internalType": "bytes32",
          "name": "txId",
          "type": "bytes32"
        },
        {
          "indexed": false,
          "internalType": "uint256",
          "name": "bannedAt",
          "type": "uint256"
        },
        {
          "indexed": false,
          "internalType": "uint256",
          "name": "bannedUntil",
          "type": "uint256"
        }
      ],
      "name": "ValidatorBannedIdleness",
      "type": "event"
    },
    {
      "anonymous": false,
      "inputs": [
        {
          "indexed": false,
          "internalType": "address",
          "name": "validator",
          "type": "address"
        },
        {
          "indexed": false,
          "internalType": "uint256",
          "name": "epoch",
          "type": "uint256"
        },
        {
          "indexed": false,
          "internalType": "uint256",
          "name": "validatorRewards",
          "type": "uint256"
        },
        {
          "indexed": false,
          "internalType": "uint256",
          "name": "delegatorRewards",
          "type": "uint256"
        },
        {
          "indexed": false,
          "internalType": "uint256",
          "name": "feeRewards",
          "type": "uint256"
        },
        {
          "indexed": false,
          "internalType": "uint256",
          "name": "feePenalties",
          "type": "uint256"
        }
      ],
      "name": "ValidatorPrime",
      "type": "event"
    },
    {
      "anonymous": false,
      "inputs": [
        {
          "indexed": false,
          "internalType": "address",
          "name": "validator",
          "type": "address"
        }
      ],
      "name": "ValidatorQuarantineRepealed",
      "type": "event"
    },
    {
      "anonymous": false,
      "inputs": [
        {
          "indexed": false,
          "internalType": "address",
          "name": "validator",
          "type": "address"
        },
        {
          "indexed": false,
          "internalType": "uint256",
          "name": "quarantinedAt",
          "type": "uint256"
        }
      ],
      "name": "ValidatorQuarantined",
      "type": "event"
    },
    {
      "anonymous": false,
      "inputs": [
        {
          "indexed": false,
          "internalType": "address",
          "name": "validator",
          "type": "address"
        },
        {
          "indexed": false,
          "internalType": "uint256",
          "name": "validatorSlashing",
          "type": "uint256"
        },
        {
          "indexed": false,
          "internalType": "uint256",
          "name": "delegatorSlashing",
          "type": "uint256"
        },
        {
          "indexed": false,
          "internalType": "uint256",
          "name": "epoch",
          "type": "uint256"
        }
      ],
      "name": "ValidatorSlash",
      "type": "event"
    },
    {
      "inputs": [],
      "name": "INFLATION_DEVELOPER_BPS",
      "outputs": [
        {
          "internalType": "uint256",
          "name": "",
          "type": "uint256"
        }
      ],
      "stateMutability": "view",
      "type": "function"
    },
    {
      "inputs": [],
      "name": "INFLATION_STAKER_BPS",
      "outputs": [
        {
          "internalType": "uint256",
          "name": "",
          "type": "uint256"
        }
      ],
      "stateMutability": "view",
      "type": "function"
    },
    {
      "inputs": [],
      "name": "INFLATION_VALIDATOR_BPS",
      "outputs": [
        {
          "internalType": "uint256",
          "name": "",
          "type": "uint256"
        }
      ],
      "stateMutability": "view",
      "type": "function"
    }
  ],
  "bytecode": "0x60808060405234601b5761339d90816100218239308160080152f35b600080fdfe610220604052307f000000000000000000000000000000000000000000000000000000000000000014600436101561003657600080fd5b600090813560e01c8063150a12221461047457806316f1cb221461043f578063217fcc3e1461042257806383772595146104275780638b7e92a6146104225780639adecea5146100d35763af2868b41461008f57600080fd5b6100d05760603660031901126100d057602435906001600160a01b03821682036100d05760406100c460443584600435611b82565b82519182526020820152f35b80fd5b506100d0576101003660031901126100d057600435602435906064359160843560a43590600b8401805460138601928354808311600014610401575061011890610be5565b106103fb575b90915b60038201549061013681600585015493612118565b90670de0b6b3a764000003670de0b6b3a764000081116103e757600794939192610171869461016b6101769460c43594612118565b90610ba2565b61273c565b610187600360443501918254610ba2565b905501805460ff19908116600190811790925592909101805483169091179055600a8301805461ff001916905560058084018054909216909155600480840186905583546001600160a01b03908116600090815260038701602090815260408083208a905587548416835293880181528382208990558654909216815292860190529020849055825461021990610c8e565b83556002849301925b848454808310156103dd576102378387610b3c565b9054865460039290921b1c6001600160a01b0390811691161461025e575050600101610222565b6102c09261029761027e6102786102bb9499959899610be5565b85610b3c565b905460039190911b1c6001600160a01b03169184610b3c565b9080546001600160a01b0360039390931b83811b199091169290931690921b179055565b610c4b565b60038301546001600160a01b031615806103c4575b806103b7575b61031c575b5081546040516001600160a01b0390911681527f304c2a8493b9e418525993ce24edcc67d1a1b6c083d600a9cf0b8cf5c111755c90602090a180f35b80546001600160a01b03166000908152600482016020526040902073__$10fea0eca7ca0798b023cff1d908ee714c$__91823b156103b357604051632b8af2a160e21b81526004810191909152602481019190915260448101849052908290829060649082905af480156103a857156102e0578161039991610b6a565b6103a45781386102e0565b5080fd5b6040513d84823e3d90fd5b8380fd5b5060e435600019146102db565b50825481546001600160a01b03908116911614156102d5565b50929350506102c0565b634e487b7160e01b89526011600452602489fd5b9061011e565b915061040f90939293610be5565b1061041c575b9091610121565b90610415565b610b1f565b82806003193601126100d0576020604051611d4c8152f35b506100d0576101003660031901126100d05761047160e43560c43560a435608435606435604435602435600435610c9b565b80f35b506100d0576101203660031901126100d057600435906024359160443592606435936084359060a4359060c4359260e435906002860154600387015492600489019a868c5410610676575b505050505085967f46cda53c301fdcf68b170f57e98b59fbc32ad0d522bdd36278d635e4750ac520608060018060a09a999a1b03895416604051908152610104356020820152856040820152866060820152a180548481111561066e57905b5585546001600160a01b03168086526003820160208190526040872054909190156105fb575b5086546001600160a01b03908116875260209182526040808820429055885482168852600484018352808820869055885490911687526005909201905284205560001914610590575080f35b73__$10fea0eca7ca0798b023cff1d908ee714c$__92833b156105f757604483926040519586938492637fbf355b60e11b8452600484015260248301525af480156105ea576105dc5780f35b6105e591610b6a565b388180f35b50604051903d90823e3d90fd5b8280fd5b9091929394955060028301805490600160401b82101561065a57816102979160016106299594018155610b3c565b815460001981146106465760010182558694939291906005610544565b634e487b7160e01b88526011600452602488fd5b634e487b7160e01b8a52604160045260248afd5b50839061051e565b6001871615938415610b185781945b610b1157505b600b8a019485549060138c01918d83549050808211600014610add57506000198a01908a8211610ac9578e9796959493929110610ac257875b9687929687945b8c6003860197858a8a5498600501988954916106e691612118565b906106f08d610bf4565b6106f991612118565b61070291610ba2565b9061070c9161273c565b95600389019a808c549a6005019a8b549161072691612118565b9161073090610bf4565b61073991612118565b61074291610ba2565b9061074c9161273c565b918181148080610ab7575b156108af5750505050506003019182549150808210156000146108a65761077d91610c10565b905b5560ff600a8d015460081c166003811015610892571561086f575b50505050505b54905403610867576001965b600a8601600389101561085357879861ff0082999899549160081b169061ff001916179055805484811160001461084c575b81556012870160ff198154169055601a870160ff198154169055600019841461080e575b969594388080806104bf565b7f6917318dac70d2950cf691aa372c972b60d4a75903e00a01f89a795a70de6837604060018060a01b038954168151908152856020820152a1610802565b50836107de565b634e487b7160e01b88526021600452602488fd5b6002966107ac565b54905554905560068201546006820155600480830154910155388080808061079a565b634e487b7160e01b8e52602160045260248efd5b50508d9061077f565b809c98949c9b979a96939b99959990610aac575b156109775750505050505050506003018054828082101560001461096e576108ea91610c10565b905b5580821161093b575b808210610905575b5050506107a0565b60059161091191610c10565b9101805490918082106109325761092791610c10565b905b553880806108fd565b50508890610929565b6109458183610c10565b60048401805490918082106109655761095d91610c10565b905b556108f5565b50508b9061095f565b50508b906108ec565b979a9897108080610aa1575b156109df575050505050505060038093940190815490808210156000146109d6576109ad91610c10565b905b5501805490918082106109cd576109c591610c10565b905b556107a0565b505088906109c7565b50508b906109af565b809a939791949892969a99959990610a96575b610a06575b505050505050505050506107a0565b600392830180549091808210610a8d57610a1f91610c10565b905b550180549092909150808210610a8457610a3a91610c10565b905b5560ff600a8d015460081c1660038110156108925715610a61575b808d8180806109f7565b549055549055600682015460068201556004808301549101553880808080610a57565b50508d90610a3c565b50508390610a21565b5089548b54116109f2565b508b54875411610983565b508c548854116108c3565b508c548e5411610757565b87916106c4565b634e487b7160e01b8f52601160045260248ffd5b9192916000198b0191508a8211610ac9578e9796959493929110610b0a579087915b9687929687946106cb565b9087610aff565b905061068b565b8094610685565b6000366003190112610b375760206040516103e88152f35b600080fd5b8054821015610b545760005260206000200190600090565b634e487b7160e01b600052603260045260246000fd5b90601f8019910116810190811067ffffffffffffffff821117610b8c57604052565b634e487b7160e01b600052604160045260246000fd5b91908201809211610baf57565b634e487b7160e01b600052601160045260246000fd5b8115610bcf570490565b634e487b7160e01b600052601260045260246000fd5b600019810191908211610baf57565b670de0b6b3a76400000390670de0b6b3a76400008211610baf57565b91908203918211610baf57565b906002811015610c355760ff80198354169116179055565b634e487b7160e01b600052602160045260246000fd5b80548015610c78576000190190610c628282610b3c565b81549060018060a01b039060031b1b1916905555565b634e487b7160e01b600052603160045260246000fd5b8015610baf576000190190565b96939094919592956080526101a0526101e05260e05261010052600a83015490600060ff8316600281101561150757158015611ae75760ff600b8701945b60081c1690600382101580611ad3576101c084905282159182611ab45750506001839214600014611aab57601387015b6101c0525b6101e051151580611a9e575b611a9557610d5b60036101c051015461017160056101c051015461016b600289015491610d55610d4f8460038d015497612118565b93610bf4565b90612118565b9161149357611a5c575b60c08290526101808290526101608290526101c0516007015460ff16611942575b50806101205260078501548152601c8501602052600360408220015480151580611923575b611847575b5060068501548152601b850160205260408120600381015480151580611828575b611814575b5060018101908154156117b3575b505060098501548152601e8501602052600360408220015480151580611794575b61165e575b5060088501548152601d85016020526040812060038101548015158061162b575b611617575b50600181019081541561158c575b505073__$10fea0eca7ca0798b023cff1d908ee714c$__3b156100d057604051637fbf355b60e11b8152826004820152856024820152818160448173__$10fea0eca7ca0798b023cff1d908ee714c$__5af480156103a857829061157c575b505060048501548015908115611547575b506114a7575b60036101c0510154801580611478575b15610fbe57505091610f2b6005610f2184610171600361016b60c099610d55610d4f88857f83a4d1d5fed63cb49275488e05bc88ce0504f7542a75a6568e8922cbbe7775059f9d0154970154926002810154958691015497612118565b9201918254610ba2565b9055610f3f825160056101c0510154610ba2565b60056101c05101555b60018060a01b03905416610f626101605161018051610ba2565b6040519182526101e051602083015260408201528151606082015260e05160808201526101005160a0820152a160076101a05101610fa4610120518254610ba2565b90556101c05160078101805460ff191690556101e0519055565b600486959394929501548015908115611457575b50611006575b505050505060c07f83a4d1d5fed63cb49275488e05bc88ce0504f7542a75a6568e8922cbbe77750591610f48565b906110879161104261102160c05160056101c0510154610ba2565b918260056101c051015561103d61016051916101805190610ba2565b610ba2565b908160036101c051015560e0516113d7575b505061010051611347575b6101716005600383015492015461016b600287015491610d55610d4f8460038b015497612118565b6004850154801515908161133a575b8161132c575b506111bf575b6110d360036101c051015461017160056101c051015461016b600288015491610d55610d4f8460038c015497612118565b81811161119f575b818110611186575b505081546001600160a01b03166000908152600483016020526040902091905073__$10fea0eca7ca0798b023cff1d908ee714c$__3b156105f757604051632b8af2a160e21b81526004810191909152602481019190915260448101839052818160648173__$10fea0eca7ca0798b023cff1d908ee714c$__5af480156103a857611171575b808080610fd8565b61117c828092610b6a565b6100d05780611169565b610f2160059161119593610c10565b90553880806110e3565b6111a98282610c10565b6111b860048501918254610ba2565b90556110db565b509291908193825b6002608051015480821015611321576111e582600260805101610b3c565b9054875460039290921b1c6001600160a01b0390811691161461120b57506001016111c7565b600096929394959619810190811161130d579061029761123361125293600260805101610b3c565b905460805160039290921b1c6001600160a01b03169290600201610b3c565b611260600260805101610c4b565b60805154801515806112e7575b6112d4575b5060048581018590556005808701805460ff1916905586546001600160a01b03908116600090815260805160038101602090815260408084208b90558b548516845295820181528583208a90558a5490931682529092019052208490556110a2565b6112dd90610c8e565b6080515538611272565b5085546001600160a01b031660009081526080516003016020526040902054151561126d565b634e487b7160e01b86526011600452602486fd5b505090919293611260565b90506101e05110153861109c565b6000198114159150611096565b60036101c051015460056101c0510154906113628282610ba2565b80611370575b50505061105f565b61137e9082610100516121d3565b9061138c8261010051610c10565b91808211156113cf5761139e91610c10565b6101c05160030155808211156113c7576113b791610c10565b60056101c0510155388080611368565b5050846113b7565b50508661139e565b6113e19082610ba2565b90811561143c575061142c9061141761140560036101c0510154928360e0516121d3565b6114118160e051610c10565b92610ba2565b60036101c051015560056101c0510154610ba2565b60056101c05101555b3880611054565b61144a915060e05190610ba2565b60036101c0510155611435565b905060016101e051016101e0511161130d5760016101e05101101538610fd2565b5060ff600a87015460081c1660038110156114935715610ec4565b634e487b7160e01b83526021600452602483fd5b600a85015460ff8160081c166003811015611493571561151b575060ff600a86015460081c166003811015611507576001036114fe576114ec60015b600a8701610c1d565b600a8501805461ff0019169055610eb4565b6114ec816114e3565b634e487b7160e01b82526021600452602482fd5b60ff1660028110156115075761153e576115396001600a8701610c1d565b610eb4565b611539816114e3565b905060016101e051016101e051116115685760016101e05101101538610eae565b634e487b7160e01b82526011600452602482fd5b61158591610b6a565b3881610e9d565b6002916115f26115e260036101c05101546115b16101605161103d6101805184610ba2565b9360046101c05101948554908115158061160e575b15611602576115d69188546121d3565b9283925b875490610ba2565b60036101c0510155558254610ba2565b9055015460088601553880610e3e565b505085549283926115da565b508015156115c6565b825250601d85016020526040812038610e30565b506101e05160001981011161164a576101e05160001901811115610e2b565b634e487b7160e01b83526011600452602483fd5b8152601e8501602052604081206001810154610e0a5760029060046101c0510154610140526117676101405115158060001461178c578254610140516101c051600301546116ab926121d3565b905b8560a05280600014611783576116cb610140516101805186546121d3565b60a0525b156117795761174f6116e9610140516101605186546121d3565b915b6116fa60a05161018051610c10565b6101805261170b8361016051610c10565b610160526117228361103d60a05161012051610ba2565b61012052611734855461014051610c10565b60046101c051015580600186015560036101c0510154610c10565b60036101c051015561103d60a0516001850154610ba2565b60018201550154600986015538610e0a565b61174f85916116eb565b8560a0526116cf565b8254906116ad565b506101e051600019810111611568576101e05160001901811115610e05565b6002916118046117f460056101c05101546117d060c05182610ba2565b9360066101c05101948554908115158061160e5715611602576115d69188546121d3565b60056101c0510155558254610ba2565b9055015460068601553880610de4565b825250601b85016020526040812038610dd6565b506101e05160001981011161164a576101e05160001901811115610dd1565b8152601c8501602052604081206001810154610db0576101c051600601546102008190526002919015611919576118fd61188f8254610200519060056101c0510154906121d3565b610200511561190f576118eb6118ac6102005160c05186546121d3565b915b6118ba8360c051610c10565b60c05282610120526118d0855461020051610c10565b60066101c051015580600186015560056101c0510154610c10565b60056101c05101556001830154610ba2565b60018201550154600786015538610db0565b6118eb85916118ae565b6118fd815461188f565b506101e051600019810111611568576101e05160001901811115610dab565b6003850154908115611a5457600286015480611d4c810204611d4c1481151715611a40576119819291612710611d4c61197c930204612118565b612152565b6101c05160050154908115611a3a57670de0b6b3a76400006119bc6119b66119b08560036101c0510154610ba2565b85612152565b83611b6f565b045b60c0526101c05160030154918215611a3157826119e1610d55926119e795610ba2565b90612187565b6101805260068401548015611a2a576002850154806103e88102046103e8148115171561164a57906127106103e8611a20930204610bc5565b6101605238610d86565b5080611a20565b505050806119e7565b826119be565b634e487b7160e01b84526011600452602484fd5b505080611981565b600584015460056101c0510155600684015460066101c0510155600384015460036101c0510155600484015460046101c0510155610d65565b50505050505050565b506101e051855414610d1a565b600b8701610d09565b90925015611aca57601387015b6101c052610d0e565b600b8701611ac1565b634e487b7160e01b84526021600452602484fd5b60ff6013870194610cd9565b9080601f83011215610b375781519167ffffffffffffffff8311610b8c578260051b9060405193611b276020840186610b6a565b8452602080850192820101928311610b3757602001905b828210611b4b5750505090565b8151815260209182019101611b3e565b8051821015610b545760209160051b010190565b81810292918115918404141715610baf57565b929190926000916000600182111561210a5782546001600160a01b031680156120fb5760405163162bf36760e11b81526004810191909152956000908790602490829084906001600160a01b03165af19182156120ef576000968793612089575b5060ff600a850154166002811015610c355761207f57600b8401965b60005b815181101561207457611c158183611b5b565b511561206c57611c258183611b5b565b51611c308287611b5b565b51948560021b9580870460041490151715610baf57611c4f8388611b5b565b519081800460011482151715610baf57600096600090600093600086600019810111610baf578f9160001988018e5b8c821061202e57600091506000198a01905b8d8210611ff35750505060001988018e5b8c8210611f4b57505060038301549660009080891115611f4557611cc6915088610c10565b6005848101549360009080861115611f3e57611ce3915085610c10565b955b04611cef91611b6f565b6127109004936005859204611d0391611b6f565b6127109004968791611d1491610c10565b6003840155611d2291610c10565b9060050155611d3091610ba2565b968792611d3c91610ba2565b998a92611d4891610ba2565b99611d5291610ba2565b95600060001984015b878110611e6257505060001983015b868110611dd5575090816001949392611d88575b5050505b01611c02565b7fa627246e5775111863fbcde9461dd14307b2830d3cbe4c384728da5bb175fbe092608092868060a01b038c541692604051938452602084015260408301526060820152a1388080611d7e565b80600191600052601d8b016020528d604060002090838201805492831515600014611e595782611e0d6004611e399501958654610c10565b80865580151580611e4c575b15611e42576003611e2e9354920154916121d3565b80915b558254610ba2565b90555b01611d6a565b5050548091611e31565b5060038201541515611e19565b50505050611e3c565b808252601b8b016020528d604083206001810190815492831515600014611f3257611e9260068201948554610c10565b80855580151580611f25575b15611f1d576005611eb39354920154916121d3565b600182541660018216148015611f15575b15611ee5576001939291611edc918091558254610ba2565b90555b01611d5b565b6000198101908111611f01576001939291611edc918091611e31565b634e487b7160e01b85526011600452602485fd5b508015611ec4565b505054611eb3565b5060058201541515611e9e565b50505050600190611edf565b5095611ce5565b50611cc6565b81600052601e8101602052601c604060002091836000520160205260016040600020910180549081611fc0575b5050600101805480611f90575b50506001018e611ca1565b611f9d6005850482611b6f565b61271090049e8f611fad91610ba2565b9e611fb791610c10565b90553880611f85565b611fea8299611fe4612710611fdc6001979660058e0490611b6f565b048092610ba2565b9a610c10565b90559038611f78565b818352601d01602052604082206001810154919991156120245760019161201b915490610ba2565b985b018f611c90565b509760019061201d565b601b908260009593955201602052604060002060018101541561206257600191612059915490610ba2565b925b018e611c7e565b509160019061205b565b600190611d82565b505050939294505050565b6013840196611bff565b969092503d8082893e61209c8189610b6a565b8701906040888303126100d057875167ffffffffffffffff81116103a457826120c6918a01611af3565b9760208101519167ffffffffffffffff83116100d057506120e8929101611af3565b9138611be3565b6040513d6000823e3d90fd5b50505050509050600090600090565b505050509050600090600090565b9061212291611b6f565b8061212d5750600090565b6000198101908111610baf57670de0b6b3a7640000900460018101809111610baf5790565b908161215f575050600090565b670de0b6b3a76400008202918204670de0b6b3a764000003610baf5761218491610bc5565b90565b9081612194575050600090565b670de0b6b3a76400008202918204670de0b6b3a764000003610baf576000198201918211610baf576121c591610bc5565b60018101809111610baf5790565b918183029160001981850993838086109503948086039514612267578483111561224e5790829109816000038216809204600281600302188082026002030280820260020302808202600203028082026002030280820260020302809102600203029360018380600003040190848311900302920304170290565b82634e487b71600052156003026011186020526024601cfd5b5050906121849250610bc5565b9068056bc75e2d630fffff198201918213600116610baf57565b906803782dace9d8ffffff198201918213600116610baf57565b906806f05b59d3b1ffffff198201918213600116610baf57565b9068ad78ebc5ac61ffffff198201918213600116610baf57565b906856bc75e2d630ffffff198201918213600116610baf57565b90682b5e3af16b187fffff198201918213600116610baf57565b906815af1d78b58c3fffff198201918213600116610baf57565b90680ad78ebc5ac61fffff198201918213600116610baf57565b906802b5e3af16b187ffff198201918213600116610baf57565b9068015af1d78b58c3ffff198201918213600116610baf57565b906803782dace9d900000082019160006803782dace9d900000084129112908015821691151617610baf57565b9068ad78ebc5ac62000000820191600068ad78ebc5ac6200000084129112908015821691151617610baf57565b906856bc75e2d63100000082019160006856bc75e2d63100000084129112908015821691151617610baf57565b90682b5e3af16b188000008201916000682b5e3af16b1880000084129112908015821691151617610baf57565b906815af1d78b58c40000082019160006815af1d78b58c40000084129112908015821691151617610baf57565b90680ad78ebc5ac62000008201916000680ad78ebc5ac620000084129112908015821691151617610baf57565b9068056bc75e2d63100000820191600068056bc75e2d6310000084129112908015821691151617610baf57565b906802b5e3af16b188000082019160006802b5e3af16b188000084129112908015821691151617610baf57565b9068015af1d78b58c40000820191600068015af1d78b58c4000084129112908015821691151617610baf57565b9067ad78ebc5ac620000820191600067ad78ebc5ac62000084129112908015821691151617610baf57565b906756bc75e2d631000082019160006756bc75e2d631000084129112908015821691151617610baf57565b908168056bc75e2d6310000001918212600116610baf57565b91909160008382019384129112908015821691151617610baf57565b908160011b9180830560021490151715610baf57565b90606482029180830560641490151715610baf57565b9068056bc75e2d6310000082029180830568056bc75e2d631000001490151715610baf57565b906b02df0ab5a80a22c61ab5a7008202918083056b02df0ab5a80a22c61ab5a7001490151715610baf57565b90693f1fce3da636ea5cf850820291808305693f1fce3da636ea5cf8501490151715610baf57565b90690127fa27722cc06cc5e2820291808305690127fa27722cc06cc5e21490151715610baf57565b9068280e60114edb805d0382029180830568280e60114edb805d031490151715610baf57565b90680ebc5fb41746121110820291808305680ebc5fb417461211101490151715610baf57565b906808f00f760a4b2db55d8202918083056808f00f760a4b2db55d1490151715610baf57565b906806f5f17757889379378202918083056806f5f17757889379371490151715610baf57565b818102929160008212600160ff1b821416610baf578184051490151715610baf57565b8115610bcf57600160ff1b8114600019831416610baf570590565b8115612aab578015612aa4578060ff1c612a7b57770bce5086492111aea88f4bb1ca6bcf584181ea8059f76532821015612a5257600081670c7d713b49da0000129081612a3f575b5015612a1f57670de0b6b3a76400008102908105670de0b6b3a764000003610baf576ec097ce7bc90715b34b9f0fffffffff19810190600181831316610baf576a0c097ce7bc90715b34b9f160241b8202918083056a0c097ce7bc90715b34b9f160241b1490151715610baf576a0c097ce7bc90715b34b9f160241b81019060006a0c097ce7bc90715b34b9f160241b83129112908015821691151617610baf5761282e91612721565b61283881806126fe565b6a0c097ce7bc90715b34b9f160241b900580808080856128598280986126fe565b6a0c097ce7bc90715b34b9f160241b900590600382056128789161257c565b91612882916126fe565b6a0c097ce7bc90715b34b9f160241b900590600582056128a19161257c565b916128ab916126fe565b6a0c097ce7bc90715b34b9f160241b900590600782056128ca9161257c565b916128d4916126fe565b6a0c097ce7bc90715b34b9f160241b900590600982056128f39161257c565b916128fd916126fe565b6a0c097ce7bc90715b34b9f160241b900590600b820561291c9161257c565b91612926916126fe565b6a0c097ce7bc90715b34b9f160241b900590600d82056129459161257c565b9161294f916126fe565b6a0c097ce7bc90715b34b9f160241b9005600f900561296d9161257c565b61297690612598565b9061298b81670de0b6b3a764000084056126fe565b91670de0b6b3a76400009007906129a1916126fe565b670de0b6b3a764000090056129b59161257c565b670de0b6b3a7640000905b0580680238fd42c5cf03ffff19131580612a0c575b156129e35761218490612f55565b62461bcd60e51b600090815260206004526007602452660848298466060760cb1b604452606490fd5b5068070c1cc73b00c800008113156129d5565b670de0b6b3a764000091612a35612a3a92612afa565b6126fe565b6129c0565b5050670f43fc2c04ee0000811238612784565b62461bcd60e51b6000908152602060045260076024526642414c2330303760c81b604452606490fd5b62461bcd60e51b600090815260206004526007602452662120a61198181b60c91b604452606490fd5b5050600090565b5050670de0b6b3a764000090565b15612ac057565b62461bcd60e51b6000908152602060045260076024526642414c2330303960c81b604452606490fd5b600160ff1b8114610baf5760000390565b670de0b6b3a76400008112612f2c5761218490612cf3906000775803bcc5cb9634ba4cfb2213f784019318ed4dcb6017880f60361b821215612f03575b73011798004d755d3c8bc8e03204cf44619e000000821215612ea9575b612cee612cac612cac612ce7612c7c612cc1612ce1612cd7612c7c612c66612b87612b81612cac9c6125ae565b9c6125ae565b6e01855144814a7ff805980ff0084000811215612e79575b6b02df0ab5a80a22c61ab5a700811215612e4c575b693f1fce3da636ea5cf850811215612e21575b690127fa27722cc06cc5e2811215612df6575b68280e60114edb805d03811215612dcc575b680ebc5fb41746121110811215612da2575b6808f00f760a4b2db55d811215612d78575b6806f5f1775788937937811215612d4e575b6806248f33704b286603811215612d24575b6805c548670b9510e7ac811215612cfa575b612c60612c5a612c5583612274565b6125c4565b91612486565b90612721565b612cd1612cc7612c7c612c8b612c7c85806126fe565b68056bc75e2d63100000900590565b809885612cb8612c7c84612cb2612ca6612c7c83809d6126fe565b94600386055b9061257c565b936126fe565b9e8f6005900590565b9c6126fe565b9960078b05612cac565b986126fe565b9560098705612cac565b946126fe565b600b900590565b612598565b6064900590565b612d18612d09612d1e926125c4565b6805c548670b9510e7ac900590565b9c612538565b9b612c46565b612d42612d33612d48926125c4565b6806248f33704b286603900590565b9c61250d565b9b612c34565b612d6c612d5d612d72926125c4565b6806f5f1775788937937900590565b9c6124e0565b9b612c22565b612d96612d87612d9c926125c4565b6808f00f760a4b2db55d900590565b9c6124b3565b9b612c10565b612dc0612db1612dc6926125c4565b680ebc5fb41746121110900590565b9c612486565b9b612bfe565b612dea612ddb612df0926125c4565b68280e60114edb805d03900590565b9c612459565b9b612bec565b612e15612e05612e1b926125c4565b690127fa27722cc06cc5e2900590565b9c61242c565b9b612bda565b612e40612e30612e46926125c4565b693f1fce3da636ea5cf850900590565b9c6123ff565b9b612bc7565b612e6d612e5b612e73926125c4565b6b02df0ab5a80a22c61ab5a700900590565b9c6123d2565b9b612bb4565b612e9d612e88612ea3926125c4565b6e01855144814a7ff805980ff0084000900590565b9c6123a5565b9b612b9f565b90612cee612cac612cac612ce7612c7c612cc1612ce1612cd7612c7c612c66612b87612b81612ef0612eea612cac9e6b1425982cf597cd205cef7380900590565b9e612378565b9c50505050505050505050505050612b54565b5072195e54c5dd42177f53a27172fa9ec63026282760241b90056806f05b59d3b2000000612b37565b612f47612f4c916a0c097ce7bc90715b34b9f160241b612721565b612afa565b61218490612ae9565b680238fd42c5cf03ffff1981121580613354575b612f7290612ab9565b6000811261332b576806f05b59d3b200000081126132f157612f93906122a8565b612fb372195e54c5dd42177f53a27172fa9ec63026282760241b916125ae565b68056bc75e2d631000009068ad78ebc5ac620000008112156132d1575b6856bc75e2d6310000008112156132b6575b682b5e3af16b1880000081121561329b575b6815af1d78b58c400000811215613280575b680ad78ebc5ac6200000811215613265575b68056bc75e2d6310000081121561324a575b6802b5e3af16b188000081121561322f575b68015af1d78b58c40000811215613214575b80808080808080808061306081612563565b61306a82806126fe565b68056bc75e2d6310000090056002900590816130859161257c565b9161308f916126fe565b68056bc75e2d6310000090056003900590816130aa9161257c565b916130b4916126fe565b68056bc75e2d6310000090056004900590816130cf9161257c565b916130d9916126fe565b68056bc75e2d6310000090056005900590816130f49161257c565b916130fe916126fe565b68056bc75e2d6310000090056006900590816131199161257c565b91613123916126fe565b68056bc75e2d63100000900560079005908161313e9161257c565b91613148916126fe565b68056bc75e2d6310000090056008900590816131639161257c565b9161316d916126fe565b68056bc75e2d6310000090056009900590816131889161257c565b91613192916126fe565b68056bc75e2d631000009005600a900590816131ad9161257c565b916131b7916126fe565b68056bc75e2d631000009005600b900590816131d29161257c565b916131dc916126fe565b68056bc75e2d631000009005600c90056131f59161257c565b6131fe916126fe565b68056bc75e2d63100000900590612cf3916126fe565b612c7c6132236132299261235e565b926126d8565b9061304e565b612c7c61323e61324492612344565b926126b2565b9061303c565b612c7c61325961325f92612274565b9261268c565b9061302a565b612c7c61327461327a9261232a565b92612666565b90613018565b612c7c61328f61329592612310565b9261263e565b90613006565b612c7c6132aa6132b0926122f6565b92612616565b90612ff4565b612c7c6132c56132cb926122dc565b926125ea565b90612fe2565b6132db91506122c2565b6e01855144814a7ff805980ff008400090612fd0565b6803782dace9d900000081126133205761330a9061228e565b612fb36b1425982cf597cd205cef7380916125ae565b612fb36001916125ae565b61334b6133466a0c097ce7bc90715b34b9f160241b92612ae9565b612f55565b61218491612721565b5068070c1cc73b00c80000811315612f6956fea264697066735822122083970fdf417094ca9cf84002c2b44897913ea3a38193d8b4df02b9f66996b62464736f6c634300081c0033",
  "linkReferences": {
    "contracts/utils/ValidatorTreeUtils.sol": {
      "ValidatorTreeUtils": [
        {
          "length": 20,
          "start": 858
        },
        {
          "length": 20,
          "start": 1459
        },
        {
          "length": 20,
          "start": 3683
        },
        {
          "length": 20,
          "start": 3740
        },
        {
          "length": 20,
          "start": 4390
        },
        {
          "length": 20,
          "start": 4458
        }
      ]
    }
  },
  "deployedLinkReferences": {
    "contracts/utils/ValidatorTreeUtils.sol": {
      "ValidatorTreeUtils": [
        {
          "length": 20,
          "start": 825
        },
        {
          "length": 20,
          "start": 1426
        },
        {
          "length": 20,
          "start": 3650
        },
        {
          "length": 20,
          "start": 3707
        },
        {
          "length": 20,
          "start": 4357
        },
        {
          "length": 20,
          "start": 4425
        }
      ]
    }
  }
}