{
  "_format": "hh-sol-artifact-1",
  "contractName": "Queues",
  "sourceName": "contracts/Queues.sol",
  "abi": [
    {
      "inputs": [],
      "name": "AccessControlBadConfirmation",
      "type": "error"
    },
    {
      "inputs": [
        {
          "internalType": "address",
          "name": "account",
          "type": "address"
        },
        {
          "internalType": "bytes32",
          "name": "neededRole",
          "type": "bytes32"
        }
      ],
      "name": "AccessControlUnauthorizedAccount",
      "type": "error"
    },
    {
      "inputs": [],
      "name": "FinalizedCountExceedsIssued",
      "type": "error"
    },
    {
      "inputs": [],
      "name": "InvalidInitialization",
      "type": "error"
    },
    {
      "inputs": [
        {
          "internalType": "uint256",
          "name": "number",
          "type": "uint256"
        }
      ],
      "name": "InvalidNumber",
      "type": "error"
    },
    {
      "inputs": [],
      "name": "NotConsensus",
      "type": "error"
    },
    {
      "inputs": [],
      "name": "NotConsensusOrIdleness",
      "type": "error"
    },
    {
      "inputs": [],
      "name": "NotConsensusOrIdlenessOrTransactions",
      "type": "error"
    },
    {
      "inputs": [],
      "name": "NotConsensusOrTransactions",
      "type": "error"
    },
    {
      "inputs": [],
      "name": "NotInitializing",
      "type": "error"
    },
    {
      "inputs": [
        {
          "internalType": "address",
          "name": "owner",
          "type": "address"
        }
      ],
      "name": "OwnableInvalidOwner",
      "type": "error"
    },
    {
      "inputs": [
        {
          "internalType": "address",
          "name": "account",
          "type": "address"
        }
      ],
      "name": "OwnableUnauthorizedAccount",
      "type": "error"
    },
    {
      "inputs": [],
      "name": "QueueHeadExceedsTail",
      "type": "error"
    },
    {
      "inputs": [],
      "name": "ReconcileBeyondTail",
      "type": "error"
    },
    {
      "inputs": [],
      "name": "ReconcileNotAdvancing",
      "type": "error"
    },
    {
      "inputs": [],
      "name": "ReentrancyGuardReentrantCall",
      "type": "error"
    },
    {
      "inputs": [],
      "name": "TransactionNotAcceptedNorUndetermined",
      "type": "error"
    },
    {
      "inputs": [],
      "name": "TransactionNotAtAcceptedQueueHead",
      "type": "error"
    },
    {
      "inputs": [],
      "name": "TransactionNotAtPendingQueueHead",
      "type": "error"
    },
    {
      "inputs": [],
      "name": "TransactionNotAtUndeterminedQueueHead",
      "type": "error"
    },
    {
      "inputs": [],
      "name": "TransactionNotInPendingQueue",
      "type": "error"
    },
    {
      "anonymous": false,
      "inputs": [
        {
          "indexed": true,
          "internalType": "address",
          "name": "recipient",
          "type": "address"
        },
        {
          "indexed": false,
          "internalType": "uint256",
          "name": "untilSlotExclusive",
          "type": "uint256"
        }
      ],
      "name": "AdminAcceptedQueueReconciled",
      "type": "event"
    },
    {
      "anonymous": false,
      "inputs": [
        {
          "indexed": true,
          "internalType": "address",
          "name": "caller",
          "type": "address"
        },
        {
          "indexed": false,
          "internalType": "bool",
          "name": "authorized",
          "type": "bool"
        }
      ],
      "name": "AuthorizedCallerUpdated",
      "type": "event"
    },
    {
      "anonymous": false,
      "inputs": [
        {
          "indexed": true,
          "internalType": "address",
          "name": "genConsensus",
          "type": "address"
        }
      ],
      "name": "GenConsensusSet",
      "type": "event"
    },
    {
      "anonymous": false,
      "inputs": [
        {
          "indexed": false,
          "internalType": "uint64",
          "name": "version",
          "type": "uint64"
        }
      ],
      "name": "Initialized",
      "type": "event"
    },
    {
      "anonymous": false,
      "inputs": [
        {
          "indexed": true,
          "internalType": "address",
          "name": "recipient",
          "type": "address"
        },
        {
          "indexed": true,
          "internalType": "bytes32",
          "name": "txId",
          "type": "bytes32"
        },
        {
          "indexed": false,
          "internalType": "uint256",
          "name": "maxNumOfIterations",
          "type": "uint256"
        }
      ],
      "name": "MaxNumOfIterationsInPendingQueueReached",
      "type": "event"
    },
    {
      "anonymous": false,
      "inputs": [
        {
          "indexed": true,
          "internalType": "address",
          "name": "previousOwner",
          "type": "address"
        },
        {
          "indexed": true,
          "internalType": "address",
          "name": "newOwner",
          "type": "address"
        }
      ],
      "name": "OwnershipTransferStarted",
      "type": "event"
    },
    {
      "anonymous": false,
      "inputs": [
        {
          "indexed": true,
          "internalType": "address",
          "name": "previousOwner",
          "type": "address"
        },
        {
          "indexed": true,
          "internalType": "address",
          "name": "newOwner",
          "type": "address"
        }
      ],
      "name": "OwnershipTransferred",
      "type": "event"
    },
    {
      "anonymous": false,
      "inputs": [
        {
          "indexed": true,
          "internalType": "address",
          "name": "recipient",
          "type": "address"
        }
      ],
      "name": "PendingQueueUnblocked",
      "type": "event"
    },
    {
      "anonymous": false,
      "inputs": [
        {
          "indexed": true,
          "internalType": "address",
          "name": "recipient",
          "type": "address"
        },
        {
          "indexed": true,
          "internalType": "bytes32",
          "name": "txId",
          "type": "bytes32"
        },
        {
          "indexed": false,
          "internalType": "enum IQueues.QueueType",
          "name": "queueType",
          "type": "uint8"
        },
        {
          "indexed": false,
          "internalType": "uint256",
          "name": "slot",
          "type": "uint256"
        }
      ],
      "name": "QueueOperationPerformed",
      "type": "event"
    },
    {
      "anonymous": false,
      "inputs": [
        {
          "indexed": true,
          "internalType": "bytes32",
          "name": "role",
          "type": "bytes32"
        },
        {
          "indexed": true,
          "internalType": "bytes32",
          "name": "previousAdminRole",
          "type": "bytes32"
        },
        {
          "indexed": true,
          "internalType": "bytes32",
          "name": "newAdminRole",
          "type": "bytes32"
        }
      ],
      "name": "RoleAdminChanged",
      "type": "event"
    },
    {
      "anonymous": false,
      "inputs": [
        {
          "indexed": true,
          "internalType": "bytes32",
          "name": "role",
          "type": "bytes32"
        },
        {
          "indexed": true,
          "internalType": "address",
          "name": "account",
          "type": "address"
        },
        {
          "indexed": true,
          "internalType": "address",
          "name": "sender",
          "type": "address"
        }
      ],
      "name": "RoleGranted",
      "type": "event"
    },
    {
      "anonymous": false,
      "inputs": [
        {
          "indexed": true,
          "internalType": "bytes32",
          "name": "role",
          "type": "bytes32"
        },
        {
          "indexed": true,
          "internalType": "address",
          "name": "account",
          "type": "address"
        },
        {
          "indexed": true,
          "internalType": "address",
          "name": "sender",
          "type": "address"
        }
      ],
      "name": "RoleRevoked",
      "type": "event"
    },
    {
      "anonymous": false,
      "inputs": [
        {
          "indexed": true,
          "internalType": "address",
          "name": "recipient",
          "type": "address"
        },
        {
          "indexed": true,
          "internalType": "enum IQueues.QueueType",
          "name": "queueType",
          "type": "uint8"
        },
        {
          "indexed": false,
          "internalType": "uint256",
          "name": "start",
          "type": "uint256"
        },
        {
          "indexed": false,
          "internalType": "uint256",
          "name": "end",
          "type": "uint256"
        },
        {
          "indexed": false,
          "internalType": "uint256",
          "name": "count",
          "type": "uint256"
        }
      ],
      "name": "TransactionsBatchDeletedFromQueue",
      "type": "event"
    },
    {
      "inputs": [],
      "name": "DEFAULT_ADMIN_ROLE",
      "outputs": [
        {
          "internalType": "bytes32",
          "name": "",
          "type": "bytes32"
        }
      ],
      "stateMutability": "view",
      "type": "function"
    },
    {
      "inputs": [],
      "name": "acceptOwnership",
      "outputs": [],
      "stateMutability": "nonpayable",
      "type": "function"
    },
    {
      "inputs": [
        {
          "internalType": "address",
          "name": "recipient",
          "type": "address"
        },
        {
          "internalType": "bytes32[]",
          "name": "txIds",
          "type": "bytes32[]"
        }
      ],
      "name": "addBatchOfTransactionsToUndeterminedQueue",
      "outputs": [
        {
          "internalType": "bool",
          "name": "success",
          "type": "bool"
        }
      ],
      "stateMutability": "nonpayable",
      "type": "function"
    },
    {
      "inputs": [
        {
          "internalType": "address",
          "name": "recipient",
          "type": "address"
        },
        {
          "internalType": "bytes32",
          "name": "txId",
          "type": "bytes32"
        }
      ],
      "name": "addTransactionToAcceptedQueue",
      "outputs": [
        {
          "internalType": "uint256",
          "name": "slot",
          "type": "uint256"
        },
        {
          "internalType": "bool",
          "name": "success",
          "type": "bool"
        }
      ],
      "stateMutability": "nonpayable",
      "type": "function"
    },
    {
      "inputs": [
        {
          "internalType": "address",
          "name": "recipient",
          "type": "address"
        },
        {
          "internalType": "bytes32",
          "name": "txId",
          "type": "bytes32"
        }
      ],
      "name": "addTransactionToFinalizedQueue",
      "outputs": [
        {
          "internalType": "bool",
          "name": "success",
          "type": "bool"
        }
      ],
      "stateMutability": "nonpayable",
      "type": "function"
    },
    {
      "inputs": [
        {
          "internalType": "address",
          "name": "recipient",
          "type": "address"
        },
        {
          "internalType": "bytes32",
          "name": "txId",
          "type": "bytes32"
        }
      ],
      "name": "addTransactionToPendingQueue",
      "outputs": [
        {
          "internalType": "bool",
          "name": "readyToActivate",
          "type": "bool"
        },
        {
          "internalType": "uint256",
          "name": "slot",
          "type": "uint256"
        },
        {
          "internalType": "bytes32[]",
          "name": "txsForRecomputation",
          "type": "bytes32[]"
        }
      ],
      "stateMutability": "nonpayable",
      "type": "function"
    },
    {
      "inputs": [
        {
          "internalType": "address",
          "name": "recipient",
          "type": "address"
        },
        {
          "internalType": "bytes32",
          "name": "txId",
          "type": "bytes32"
        }
      ],
      "name": "addTransactionToUndeterminedQueue",
      "outputs": [
        {
          "internalType": "uint256",
          "name": "slot",
          "type": "uint256"
        },
        {
          "internalType": "bool",
          "name": "success",
          "type": "bool"
        }
      ],
      "stateMutability": "nonpayable",
      "type": "function"
    },
    {
      "inputs": [],
      "name": "addressManager",
      "outputs": [
        {
          "internalType": "contract IAddressManager",
          "name": "",
          "type": "address"
        }
      ],
      "stateMutability": "view",
      "type": "function"
    },
    {
      "inputs": [
        {
          "internalType": "address",
          "name": "recipient",
          "type": "address"
        },
        {
          "internalType": "bytes32",
          "name": "txId",
          "type": "bytes32"
        }
      ],
      "name": "adminFinalize",
      "outputs": [],
      "stateMutability": "nonpayable",
      "type": "function"
    },
    {
      "inputs": [
        {
          "internalType": "address",
          "name": "recipient",
          "type": "address"
        },
        {
          "internalType": "bytes32",
          "name": "txId",
          "type": "bytes32"
        }
      ],
      "name": "adminGetTransactionQueueInfo",
      "outputs": [
        {
          "internalType": "enum IQueues.QueueType",
          "name": "currentQueueType",
          "type": "uint8"
        },
        {
          "internalType": "uint256",
          "name": "pendingSlot",
          "type": "uint256"
        },
        {
          "internalType": "uint256",
          "name": "acceptedSlot",
          "type": "uint256"
        },
        {
          "internalType": "uint256",
          "name": "undeterminedSlot",
          "type": "uint256"
        },
        {
          "internalType": "uint256",
          "name": "finalizedSlot",
          "type": "uint256"
        },
        {
          "internalType": "bool",
          "name": "isAtPendingHead",
          "type": "bool"
        },
        {
          "internalType": "bool",
          "name": "isAtAcceptedHead",
          "type": "bool"
        },
        {
          "internalType": "bool",
          "name": "isAtUndeterminedHead",
          "type": "bool"
        }
      ],
      "stateMutability": "view",
      "type": "function"
    },
    {
      "inputs": [
        {
          "internalType": "address",
          "name": "recipient",
          "type": "address"
        },
        {
          "internalType": "bytes32",
          "name": "txId",
          "type": "bytes32"
        }
      ],
      "name": "adminMoveToAccepted",
      "outputs": [],
      "stateMutability": "nonpayable",
      "type": "function"
    },
    {
      "inputs": [
        {
          "internalType": "address",
          "name": "recipient",
          "type": "address"
        },
        {
          "internalType": "bytes32",
          "name": "txId",
          "type": "bytes32"
        }
      ],
      "name": "adminMoveToUndetermined",
      "outputs": [],
      "stateMutability": "nonpayable",
      "type": "function"
    },
    {
      "inputs": [
        {
          "internalType": "address",
          "name": "recipient",
          "type": "address"
        },
        {
          "internalType": "uint256",
          "name": "untilSlotExclusive",
          "type": "uint256"
        }
      ],
      "name": "adminReconcileAcceptedQueueHead",
      "outputs": [],
      "stateMutability": "nonpayable",
      "type": "function"
    },
    {
      "inputs": [
        {
          "internalType": "address",
          "name": "recipient",
          "type": "address"
        },
        {
          "internalType": "uint256",
          "name": "newFinalizedCount",
          "type": "uint256"
        }
      ],
      "name": "adminSetFinalizedCount",
      "outputs": [],
      "stateMutability": "nonpayable",
      "type": "function"
    },
    {
      "inputs": [
        {
          "internalType": "address",
          "name": "recipient",
          "type": "address"
        },
        {
          "internalType": "enum IQueues.QueueType",
          "name": "queueType",
          "type": "uint8"
        },
        {
          "internalType": "uint256",
          "name": "newHead",
          "type": "uint256"
        }
      ],
      "name": "adminSetQueueHead",
      "outputs": [],
      "stateMutability": "nonpayable",
      "type": "function"
    },
    {
      "inputs": [
        {
          "internalType": "address",
          "name": "recipient",
          "type": "address"
        },
        {
          "internalType": "bytes32",
          "name": "txId",
          "type": "bytes32"
        },
        {
          "internalType": "enum IQueues.QueueType",
          "name": "queueType",
          "type": "uint8"
        }
      ],
      "name": "adminSetTransactionQueueType",
      "outputs": [],
      "stateMutability": "nonpayable",
      "type": "function"
    },
    {
      "inputs": [
        {
          "internalType": "address",
          "name": "",
          "type": "address"
        }
      ],
      "name": "authorizedCallers",
      "outputs": [
        {
          "internalType": "bool",
          "name": "",
          "type": "bool"
        }
      ],
      "stateMutability": "view",
      "type": "function"
    },
    {
      "inputs": [
        {
          "internalType": "address",
          "name": "recipient",
          "type": "address"
        }
      ],
      "name": "getAcceptedHead",
      "outputs": [
        {
          "internalType": "uint256",
          "name": "",
          "type": "uint256"
        }
      ],
      "stateMutability": "view",
      "type": "function"
    },
    {
      "inputs": [
        {
          "internalType": "address",
          "name": "recipient",
          "type": "address"
        }
      ],
      "name": "getAcceptedHeadTxId",
      "outputs": [
        {
          "internalType": "bytes32",
          "name": "",
          "type": "bytes32"
        }
      ],
      "stateMutability": "view",
      "type": "function"
    },
    {
      "inputs": [
        {
          "internalType": "address",
          "name": "recipient",
          "type": "address"
        }
      ],
      "name": "getAcceptedTail",
      "outputs": [
        {
          "internalType": "uint256",
          "name": "",
          "type": "uint256"
        }
      ],
      "stateMutability": "view",
      "type": "function"
    },
    {
      "inputs": [
        {
          "internalType": "address",
          "name": "recipient",
          "type": "address"
        }
      ],
      "name": "getAcceptedTailTxId",
      "outputs": [
        {
          "internalType": "bytes32",
          "name": "",
          "type": "bytes32"
        }
      ],
      "stateMutability": "view",
      "type": "function"
    },
    {
      "inputs": [
        {
          "internalType": "address",
          "name": "recipient",
          "type": "address"
        }
      ],
      "name": "getAcceptedTxCount",
      "outputs": [
        {
          "internalType": "uint256",
          "name": "",
          "type": "uint256"
        }
      ],
      "stateMutability": "view",
      "type": "function"
    },
    {
      "inputs": [
        {
          "internalType": "address",
          "name": "recipient",
          "type": "address"
        },
        {
          "internalType": "uint256",
          "name": "slot",
          "type": "uint256"
        }
      ],
      "name": "getAcceptedTxId",
      "outputs": [
        {
          "internalType": "bytes32",
          "name": "",
          "type": "bytes32"
        }
      ],
      "stateMutability": "view",
      "type": "function"
    },
    {
      "inputs": [
        {
          "internalType": "address",
          "name": "recipient",
          "type": "address"
        }
      ],
      "name": "getFinalizedHead",
      "outputs": [
        {
          "internalType": "uint256",
          "name": "",
          "type": "uint256"
        }
      ],
      "stateMutability": "view",
      "type": "function"
    },
    {
      "inputs": [
        {
          "internalType": "address",
          "name": "recipient",
          "type": "address"
        }
      ],
      "name": "getFinalizedHeadTxId",
      "outputs": [
        {
          "internalType": "bytes32",
          "name": "",
          "type": "bytes32"
        }
      ],
      "stateMutability": "view",
      "type": "function"
    },
    {
      "inputs": [
        {
          "internalType": "address",
          "name": "recipient",
          "type": "address"
        }
      ],
      "name": "getFinalizedTxCount",
      "outputs": [
        {
          "internalType": "uint256",
          "name": "",
          "type": "uint256"
        }
      ],
      "stateMutability": "view",
      "type": "function"
    },
    {
      "inputs": [
        {
          "internalType": "address",
          "name": "recipient",
          "type": "address"
        },
        {
          "internalType": "uint256",
          "name": "slot",
          "type": "uint256"
        }
      ],
      "name": "getFinalizedTxId",
      "outputs": [
        {
          "internalType": "bytes32",
          "name": "",
          "type": "bytes32"
        }
      ],
      "stateMutability": "view",
      "type": "function"
    },
    {
      "inputs": [
        {
          "internalType": "address",
          "name": "recipient",
          "type": "address"
        }
      ],
      "name": "getIssuedTxCount",
      "outputs": [
        {
          "internalType": "uint256",
          "name": "",
          "type": "uint256"
        }
      ],
      "stateMutability": "view",
      "type": "function"
    },
    {
      "inputs": [
        {
          "internalType": "address",
          "name": "recipient",
          "type": "address"
        }
      ],
      "name": "getLastFinalizedTxId",
      "outputs": [
        {
          "internalType": "bytes32",
          "name": "",
          "type": "bytes32"
        }
      ],
      "stateMutability": "view",
      "type": "function"
    },
    {
      "inputs": [
        {
          "internalType": "bytes32",
          "name": "txId",
          "type": "bytes32"
        }
      ],
      "name": "getLastQueueModification",
      "outputs": [
        {
          "components": [
            {
              "internalType": "enum IQueues.QueueType",
              "name": "lastQueueType",
              "type": "uint8"
            },
            {
              "internalType": "uint256",
              "name": "lastQueueTimestamp",
              "type": "uint256"
            }
          ],
          "internalType": "struct IQueues.LastQueueModification",
          "name": "",
          "type": "tuple"
        }
      ],
      "stateMutability": "view",
      "type": "function"
    },
    {
      "inputs": [
        {
          "internalType": "address",
          "name": "recipient",
          "type": "address"
        }
      ],
      "name": "getPendingHead",
      "outputs": [
        {
          "internalType": "uint256",
          "name": "",
          "type": "uint256"
        }
      ],
      "stateMutability": "view",
      "type": "function"
    },
    {
      "inputs": [
        {
          "internalType": "address",
          "name": "recipient",
          "type": "address"
        }
      ],
      "name": "getPendingHeadTxId",
      "outputs": [
        {
          "internalType": "bytes32",
          "name": "",
          "type": "bytes32"
        }
      ],
      "stateMutability": "view",
      "type": "function"
    },
    {
      "inputs": [
        {
          "internalType": "address",
          "name": "recipient",
          "type": "address"
        }
      ],
      "name": "getPendingTail",
      "outputs": [
        {
          "internalType": "uint256",
          "name": "",
          "type": "uint256"
        }
      ],
      "stateMutability": "view",
      "type": "function"
    },
    {
      "inputs": [
        {
          "internalType": "address",
          "name": "recipient",
          "type": "address"
        }
      ],
      "name": "getPendingTailTxId",
      "outputs": [
        {
          "internalType": "bytes32",
          "name": "",
          "type": "bytes32"
        }
      ],
      "stateMutability": "view",
      "type": "function"
    },
    {
      "inputs": [
        {
          "internalType": "address",
          "name": "recipient",
          "type": "address"
        }
      ],
      "name": "getPendingTxCount",
      "outputs": [
        {
          "internalType": "uint256",
          "name": "",
          "type": "uint256"
        }
      ],
      "stateMutability": "view",
      "type": "function"
    },
    {
      "inputs": [
        {
          "internalType": "address",
          "name": "recipient",
          "type": "address"
        },
        {
          "internalType": "uint256",
          "name": "slot",
          "type": "uint256"
        }
      ],
      "name": "getPendingTxId",
      "outputs": [
        {
          "internalType": "bytes32",
          "name": "",
          "type": "bytes32"
        }
      ],
      "stateMutability": "view",
      "type": "function"
    },
    {
      "inputs": [
        {
          "internalType": "address",
          "name": "recipient",
          "type": "address"
        },
        {
          "internalType": "uint256",
          "name": "startIndex",
          "type": "uint256"
        },
        {
          "internalType": "uint256",
          "name": "endIndex",
          "type": "uint256"
        }
      ],
      "name": "getRecipientQueues",
      "outputs": [
        {
          "components": [
            {
              "components": [
                {
                  "internalType": "uint256",
                  "name": "head",
                  "type": "uint256"
                },
                {
                  "internalType": "uint256",
                  "name": "tail",
                  "type": "uint256"
                },
                {
                  "internalType": "bytes32[]",
                  "name": "txIds",
                  "type": "bytes32[]"
                }
              ],
              "internalType": "struct IQueues.QueueInfoView",
              "name": "pending",
              "type": "tuple"
            },
            {
              "components": [
                {
                  "internalType": "uint256",
                  "name": "head",
                  "type": "uint256"
                },
                {
                  "internalType": "uint256",
                  "name": "tail",
                  "type": "uint256"
                },
                {
                  "internalType": "bytes32[]",
                  "name": "txIds",
                  "type": "bytes32[]"
                }
              ],
              "internalType": "struct IQueues.QueueInfoView",
              "name": "accepted",
              "type": "tuple"
            },
            {
              "components": [
                {
                  "internalType": "uint256",
                  "name": "head",
                  "type": "uint256"
                },
                {
                  "internalType": "uint256",
                  "name": "tail",
                  "type": "uint256"
                },
                {
                  "internalType": "bytes32[]",
                  "name": "txIds",
                  "type": "bytes32[]"
                }
              ],
              "internalType": "struct IQueues.QueueInfoView",
              "name": "undetermined",
              "type": "tuple"
            },
            {
              "internalType": "uint256",
              "name": "finalizedCount",
              "type": "uint256"
            },
            {
              "internalType": "uint256",
              "name": "issuedTxCount",
              "type": "uint256"
            }
          ],
          "internalType": "struct IQueues.RecipientQueuesView",
          "name": "",
          "type": "tuple"
        }
      ],
      "stateMutability": "view",
      "type": "function"
    },
    {
      "inputs": [
        {
          "internalType": "bytes32",
          "name": "role",
          "type": "bytes32"
        }
      ],
      "name": "getRoleAdmin",
      "outputs": [
        {
          "internalType": "bytes32",
          "name": "",
          "type": "bytes32"
        }
      ],
      "stateMutability": "view",
      "type": "function"
    },
    {
      "inputs": [],
      "name": "getTotalNumOfTransactions",
      "outputs": [
        {
          "internalType": "uint256",
          "name": "",
          "type": "uint256"
        }
      ],
      "stateMutability": "view",
      "type": "function"
    },
    {
      "inputs": [
        {
          "internalType": "uint256",
          "name": "startIndex",
          "type": "uint256"
        },
        {
          "internalType": "uint256",
          "name": "endIndex",
          "type": "uint256"
        }
      ],
      "name": "getTransactionIndexToTxId",
      "outputs": [
        {
          "internalType": "bytes32[]",
          "name": "txIds",
          "type": "bytes32[]"
        }
      ],
      "stateMutability": "view",
      "type": "function"
    },
    {
      "inputs": [
        {
          "internalType": "bytes32",
          "name": "txId",
          "type": "bytes32"
        }
      ],
      "name": "getTransactionQueuePosition",
      "outputs": [
        {
          "internalType": "uint256",
          "name": "",
          "type": "uint256"
        }
      ],
      "stateMutability": "view",
      "type": "function"
    },
    {
      "inputs": [
        {
          "internalType": "bytes32",
          "name": "txId",
          "type": "bytes32"
        }
      ],
      "name": "getTransactionQueueType",
      "outputs": [
        {
          "internalType": "enum IQueues.QueueType",
          "name": "",
          "type": "uint8"
        }
      ],
      "stateMutability": "view",
      "type": "function"
    },
    {
      "inputs": [
        {
          "internalType": "address",
          "name": "recipient",
          "type": "address"
        },
        {
          "internalType": "bytes32",
          "name": "txId",
          "type": "bytes32"
        }
      ],
      "name": "getTxQueueType",
      "outputs": [
        {
          "internalType": "enum IQueues.QueueType",
          "name": "",
          "type": "uint8"
        }
      ],
      "stateMutability": "view",
      "type": "function"
    },
    {
      "inputs": [
        {
          "internalType": "address",
          "name": "recipient",
          "type": "address"
        }
      ],
      "name": "getUndeterminedHead",
      "outputs": [
        {
          "internalType": "uint256",
          "name": "",
          "type": "uint256"
        }
      ],
      "stateMutability": "view",
      "type": "function"
    },
    {
      "inputs": [
        {
          "internalType": "address",
          "name": "recipient",
          "type": "address"
        }
      ],
      "name": "getUndeterminedHeadTxId",
      "outputs": [
        {
          "internalType": "bytes32",
          "name": "",
          "type": "bytes32"
        }
      ],
      "stateMutability": "view",
      "type": "function"
    },
    {
      "inputs": [
        {
          "internalType": "address",
          "name": "recipient",
          "type": "address"
        }
      ],
      "name": "getUndeterminedTail",
      "outputs": [
        {
          "internalType": "uint256",
          "name": "",
          "type": "uint256"
        }
      ],
      "stateMutability": "view",
      "type": "function"
    },
    {
      "inputs": [
        {
          "internalType": "address",
          "name": "recipient",
          "type": "address"
        }
      ],
      "name": "getUndeterminedTailTxId",
      "outputs": [
        {
          "internalType": "bytes32",
          "name": "",
          "type": "bytes32"
        }
      ],
      "stateMutability": "view",
      "type": "function"
    },
    {
      "inputs": [
        {
          "internalType": "address",
          "name": "recipient",
          "type": "address"
        }
      ],
      "name": "getUndeterminedTxCount",
      "outputs": [
        {
          "internalType": "uint256",
          "name": "",
          "type": "uint256"
        }
      ],
      "stateMutability": "view",
      "type": "function"
    },
    {
      "inputs": [
        {
          "internalType": "address",
          "name": "recipient",
          "type": "address"
        },
        {
          "internalType": "uint256",
          "name": "slot",
          "type": "uint256"
        }
      ],
      "name": "getUndeterminedTxId",
      "outputs": [
        {
          "internalType": "bytes32",
          "name": "",
          "type": "bytes32"
        }
      ],
      "stateMutability": "view",
      "type": "function"
    },
    {
      "inputs": [
        {
          "internalType": "bytes32",
          "name": "role",
          "type": "bytes32"
        },
        {
          "internalType": "address",
          "name": "account",
          "type": "address"
        }
      ],
      "name": "grantRole",
      "outputs": [],
      "stateMutability": "nonpayable",
      "type": "function"
    },
    {
      "inputs": [
        {
          "internalType": "bytes32",
          "name": "role",
          "type": "bytes32"
        },
        {
          "internalType": "address",
          "name": "account",
          "type": "address"
        }
      ],
      "name": "hasRole",
      "outputs": [
        {
          "internalType": "bool",
          "name": "",
          "type": "bool"
        }
      ],
      "stateMutability": "view",
      "type": "function"
    },
    {
      "inputs": [
        {
          "internalType": "address",
          "name": "_addressManager",
          "type": "address"
        }
      ],
      "name": "initialize",
      "outputs": [],
      "stateMutability": "nonpayable",
      "type": "function"
    },
    {
      "inputs": [
        {
          "internalType": "address",
          "name": "recipient",
          "type": "address"
        },
        {
          "internalType": "bytes32",
          "name": "txId",
          "type": "bytes32"
        }
      ],
      "name": "isAtFinalizedQueueHead",
      "outputs": [
        {
          "internalType": "bool",
          "name": "",
          "type": "bool"
        }
      ],
      "stateMutability": "view",
      "type": "function"
    },
    {
      "inputs": [
        {
          "internalType": "address",
          "name": "recipient",
          "type": "address"
        },
        {
          "internalType": "bytes32",
          "name": "txId",
          "type": "bytes32"
        }
      ],
      "name": "isAtPendingQueueHead",
      "outputs": [
        {
          "internalType": "bool",
          "name": "",
          "type": "bool"
        }
      ],
      "stateMutability": "view",
      "type": "function"
    },
    {
      "inputs": [
        {
          "internalType": "bytes32",
          "name": "",
          "type": "bytes32"
        }
      ],
      "name": "lastQueueModification",
      "outputs": [
        {
          "internalType": "enum IQueues.QueueType",
          "name": "lastQueueType",
          "type": "uint8"
        },
        {
          "internalType": "uint256",
          "name": "lastQueueTimestamp",
          "type": "uint256"
        }
      ],
      "stateMutability": "view",
      "type": "function"
    },
    {
      "inputs": [
        {
          "internalType": "address",
          "name": "recipient",
          "type": "address"
        },
        {
          "internalType": "bytes32",
          "name": "txId",
          "type": "bytes32"
        }
      ],
      "name": "markPendingTransactionAsCancelled",
      "outputs": [],
      "stateMutability": "nonpayable",
      "type": "function"
    },
    {
      "inputs": [],
      "name": "maxNumOfIterationsInPendingQueue",
      "outputs": [
        {
          "internalType": "uint256",
          "name": "",
          "type": "uint256"
        }
      ],
      "stateMutability": "view",
      "type": "function"
    },
    {
      "inputs": [],
      "name": "numOfTransactions",
      "outputs": [
        {
          "internalType": "uint256",
          "name": "",
          "type": "uint256"
        }
      ],
      "stateMutability": "view",
      "type": "function"
    },
    {
      "inputs": [],
      "name": "owner",
      "outputs": [
        {
          "internalType": "address",
          "name": "",
          "type": "address"
        }
      ],
      "stateMutability": "view",
      "type": "function"
    },
    {
      "inputs": [],
      "name": "pendingOwner",
      "outputs": [
        {
          "internalType": "address",
          "name": "",
          "type": "address"
        }
      ],
      "stateMutability": "view",
      "type": "function"
    },
    {
      "inputs": [
        {
          "internalType": "address",
          "name": "recipient",
          "type": "address"
        },
        {
          "internalType": "uint256",
          "name": "txIndex",
          "type": "uint256"
        }
      ],
      "name": "recipientIssuedIndexToTxId",
      "outputs": [
        {
          "internalType": "bytes32",
          "name": "txId",
          "type": "bytes32"
        }
      ],
      "stateMutability": "view",
      "type": "function"
    },
    {
      "inputs": [
        {
          "internalType": "address",
          "name": "recipient",
          "type": "address"
        },
        {
          "internalType": "uint256",
          "name": "newFinalizedCount",
          "type": "uint256"
        }
      ],
      "name": "recoveryAdvanceFinalizedCount",
      "outputs": [],
      "stateMutability": "nonpayable",
      "type": "function"
    },
    {
      "inputs": [
        {
          "internalType": "address",
          "name": "recipient",
          "type": "address"
        },
        {
          "internalType": "enum IQueues.QueueType",
          "name": "queueType",
          "type": "uint8"
        },
        {
          "internalType": "uint256",
          "name": "newHead",
          "type": "uint256"
        }
      ],
      "name": "recoveryAdvanceQueueHead",
      "outputs": [],
      "stateMutability": "nonpayable",
      "type": "function"
    },
    {
      "inputs": [
        {
          "internalType": "address",
          "name": "recipient",
          "type": "address"
        },
        {
          "internalType": "bytes32",
          "name": "txId",
          "type": "bytes32"
        },
        {
          "internalType": "enum IQueues.QueueType",
          "name": "queueType",
          "type": "uint8"
        }
      ],
      "name": "recoverySetTransactionQueueType",
      "outputs": [],
      "stateMutability": "nonpayable",
      "type": "function"
    },
    {
      "inputs": [
        {
          "internalType": "address",
          "name": "recipient",
          "type": "address"
        },
        {
          "internalType": "bytes32",
          "name": "txId",
          "type": "bytes32"
        }
      ],
      "name": "removeTransactionFromPendingQueue",
      "outputs": [
        {
          "internalType": "bool",
          "name": "success",
          "type": "bool"
        }
      ],
      "stateMutability": "nonpayable",
      "type": "function"
    },
    {
      "inputs": [],
      "name": "renounceOwnership",
      "outputs": [],
      "stateMutability": "nonpayable",
      "type": "function"
    },
    {
      "inputs": [
        {
          "internalType": "bytes32",
          "name": "role",
          "type": "bytes32"
        },
        {
          "internalType": "address",
          "name": "callerConfirmation",
          "type": "address"
        }
      ],
      "name": "renounceRole",
      "outputs": [],
      "stateMutability": "nonpayable",
      "type": "function"
    },
    {
      "inputs": [
        {
          "internalType": "bytes32",
          "name": "role",
          "type": "bytes32"
        },
        {
          "internalType": "address",
          "name": "account",
          "type": "address"
        }
      ],
      "name": "revokeRole",
      "outputs": [],
      "stateMutability": "nonpayable",
      "type": "function"
    },
    {
      "inputs": [
        {
          "internalType": "address",
          "name": "_addressManager",
          "type": "address"
        }
      ],
      "name": "setAddressManager",
      "outputs": [],
      "stateMutability": "nonpayable",
      "type": "function"
    },
    {
      "inputs": [
        {
          "internalType": "address",
          "name": "caller",
          "type": "address"
        },
        {
          "internalType": "bool",
          "name": "authorized",
          "type": "bool"
        }
      ],
      "name": "setAuthorizedCaller",
      "outputs": [],
      "stateMutability": "nonpayable",
      "type": "function"
    },
    {
      "inputs": [
        {
          "internalType": "address[]",
          "name": "callers",
          "type": "address[]"
        },
        {
          "internalType": "bool",
          "name": "authorized",
          "type": "bool"
        }
      ],
      "name": "setAuthorizedCallers",
      "outputs": [],
      "stateMutability": "nonpayable",
      "type": "function"
    },
    {
      "inputs": [
        {
          "internalType": "uint256",
          "name": "_maxNumOfIterationsInPendingQueue",
          "type": "uint256"
        }
      ],
      "name": "setMaxNumOfIterationsInPendingQueue",
      "outputs": [],
      "stateMutability": "nonpayable",
      "type": "function"
    },
    {
      "inputs": [
        {
          "internalType": "bytes4",
          "name": "interfaceId",
          "type": "bytes4"
        }
      ],
      "name": "supportsInterface",
      "outputs": [
        {
          "internalType": "bool",
          "name": "",
          "type": "bool"
        }
      ],
      "stateMutability": "view",
      "type": "function"
    },
    {
      "inputs": [
        {
          "internalType": "uint256",
          "name": "",
          "type": "uint256"
        }
      ],
      "name": "transactionIndexToTxId",
      "outputs": [
        {
          "internalType": "bytes32",
          "name": "",
          "type": "bytes32"
        }
      ],
      "stateMutability": "view",
      "type": "function"
    },
    {
      "inputs": [
        {
          "internalType": "address",
          "name": "newOwner",
          "type": "address"
        }
      ],
      "name": "transferOwnership",
      "outputs": [],
      "stateMutability": "nonpayable",
      "type": "function"
    }
  ],
  "bytecode": "0x60808060405234601557613b7f908161001b8239f35b600080fdfe608080604052600436101561001357600080fd5b60003560e01c90816301ffc9a7146129b9575080630652b57a14612976578063090263a71461287c5780630f36527a146128465780630f6153d4146106a45780630fd06710146127d55780631453511b1461274257806316465645146126605780631a0f2b18146126b4578063248a9ca3146126965780632a69ae7d146115df5780632f2ff15d146126655780633169e04314612660578063322af2f21461255a57806336568abe1461251457806336dc908c146124d75780633ab76e9f146124ae5780633f008c4514612471578063454bbd29146123f3578063465551a8146123d0578063536fff6c146123915780635bb84335146123455780635e8d4e0b1461229f5780635eb3166c146121005780636262ae6b146120bd5780636e7b3a401461209f5780636e9f32381461207c5780636f329114146115da5780636fa7e4f1146120305780637128928d14611d27578063715018a614611ca65780637257053714610a7e578063769ad35a1461176857806376d3a6461461172b57806379ba5097146116db5780637f3a13d2146116af5780637f42382c146116755780638226c51214611627578063830cf2a3146115df578063891ed77d146115da5780638b64f2781461153c5780638ccd7b3b146114085780638da5cb5b146113d2578063910048fb1461139557806391d148541461133b57806397b9761b146112dd5780639a299f68146112495780639c88381914611099578063a0d6c2021461105c578063a217fddf14611040578063a3638a8e14610ff5578063a9f7e17e14610f9d578063ac00f57f14610f10578063b1d9fb6314610ec5578063be9e9d8a14610e7c578063c213099514610e31578063c281daf014610cff578063c404723314610cc4578063c4d66de814610af5578063cae51cd214610ad2578063d547741f14610a9c578063d833280014610a7e578063dcf2cf2f14610a32578063df75142f14610907578063e224c20a1461078f578063e30c397814610759578063e5d31ced146106a9578063eaeea731146106a4578063ecf55f831461064f578063eecab57b14610624578063efb5f185146105e9578063f1cdbf761461058f578063f2fde38b14610508578063f680d34a146104c95763fb10a85b1461035857600080fd5b346104c45760403660031901126104c457610371612a0c565b6024359061037d6132e4565b60018060a01b03168060005260056020526040600020600f8101836000528060205260ff60406000205416600481101561048c576001036104b357836000526003820160205260406000205482548091036104a2576103db90612dc5565b8255836000526020526040600020600360ff198254161790556040519061040182612b33565b6003825260208201904282528460005260066020526040600020925192600484101561048c576001604093610445600080516020613aca8339815191529684612dad565b5191015560098101600b81549283600052600a8101602052878560002055876000520160205281836000205561047b8154612dc5565b9055815190600382526020820152a3005b634e487b7160e01b600052602160045260246000fd5b63042202b560e11b60005260046000fd5b637b9ea34f60e01b60005260046000fd5b600080fd5b346104c45760203660031901126104c4576004356000526006602052604080600020600160ff82541691015461050183518093612ab7565b6020820152f35b346104c45760203660031901126104c457610521612a0c565b6105296132e4565b600080516020613b2a83398151915280546001600160a01b0319166001600160a01b03928316908117909155600080516020613a8a833981519152549091167f38d16b8cac22d99fc7c124b9cd0de2d3fa1faef420bfe791d8c362d765e22700600080a3005b346104c45760403660031901126104c45760206105df6105ad612a0c565b6001600160a01b0381166000908152600584526040808220602435808452600f82018752919092205460ff1692613968565b6040519015158152f35b346104c45760203660031901126104c4576004356106056132e4565b801561061057600755005b6362ec1e6f60e11b60005260045260246000fd5b346104c45760203660031901126104c4576020610647610642612a0c565b613276565b604051908152f35b346104c45760403660031901126104c4576001600160a01b03610670612a0c565b166000526005602052600f604060002001602435600052602052602060ff604060002054166106a26040518092612ab7565bf35b612a7b565b346104c45760403660031901126104c4576106c2612a0c565b6001600160a01b036106d2613324565b163314158061073f575b80610725575b8061070c575b6106fb576106f99060243590613219565b005b63e6533a2760e01b60005260046000fd5b5033600052600260205260ff60406000205416156106e8565b506001600160a01b036107366133b8565b163314156106e2565b506001600160a01b03610750613419565b163314156106dc565b346104c45760003660031901126104c457600080516020613b2a833981519152546040516001600160a01b039091168152602090f35b346104c45760403660031901126104c4576107a8612a0c565b6024356001600160a01b036107bb613324565b16331415806108ed575b806108d3575b806108ba575b6106fb5760009060018060a01b0383169283600052600560205260406000209382600052600f850160205260ff604060002054169261081284878386613968565b610824575b6020856040519015158152f35b6000828152600560208181526040808420600c81018054968652600e90910183529084208590559490925290529293506108689261086190612dc5565b90556138d0565b600481101561048c576002810361089757506004016108878154612dc5565b90555b6020600182808080610817565b6003146108a5575b5061088a565b6008016108b28154612dc5565b90558061089f565b5033600052600260205260ff60406000205416156107d1565b506001600160a01b036108e46133b8565b163314156107cb565b506001600160a01b036108fe613419565b163314156107c5565b346104c45760403660031901126104c457610920612a0c565b6024359061092c6132e4565b60018060a01b031690816000526005602052604060002090600482019160058101548211610a21578254821115610a10576006810191600c8201945b8454828110156109e25760005283602052604060002054806109a3575b506109908554612dc5565b855561099c8654612dc5565b8655610968565b80600052600f8401602052604060002060ff19815416905560005260078301602052600060408120558454600052836020526000604081205586610985565b507f4f8cdbb416ba06e9f0616bc1726c86125dee105768c52b77b79a69252c2ea05c602083604051908152a2005b630e86985f60e21b60005260046000fd5b6334cf41dd60e01b60005260046000fd5b346104c45760203660031901126104c4576001600160a01b03610a53612a0c565b16600090815260056020908152604080832060088101548452600a0182529182902054915191825290f35b346104c45760003660031901126104c4576020600154604051908152f35b346104c45760403660031901126104c4576106f9600435610abb612a22565b90610acd610ac882612f64565b613567565b613653565b346104c45760203660031901126104c4576020610647610af0612a0c565b6131c7565b346104c45760203660031901126104c457610b0e612a0c565b600080516020613b0a833981519152549060ff8260401c1615916001600160401b03811680159081610cbc575b6001149081610cb2575b159081610ca9575b50610c985767ffffffffffffffff198116600117600080516020613b0a8339815191525582610c6b575b50610b80613a5b565b610b88613a5b565b3315610c5557610b9733613862565b610b9f613a5b565b610ba7613a5b565b610baf613a5b565b60017f9b779b17422d0df92223018b32b4d1fa46e071723d6817e2486d003becc55f0055610bdb613a5b565b600080546001600160a01b0319166001600160a01b0392909216919091179055610c0157005b60ff60401b19600080516020613b0a8339815191525416600080516020613b0a833981519152557fc7f505b2f371ae2175ee4913f4499e1f2633a7b5936321eed1cdaeb6115181d2602060405160018152a1005b631e4fbdf760e01b600052600060045260246000fd5b68ffffffffffffffffff19166801000000000000000117600080516020613b0a8339815191525582610b77565b63f92ee8a960e01b60005260046000fd5b90501584610b4d565b303b159150610b45565b849150610b3b565b346104c45760203660031901126104c45733600052600560205260036040600020016004356000526020526020604060002054604051908152f35b346104c45760403660031901126104c457610d18612a0c565b60243590610d246132e4565b60018060a01b0381166000526005602052604060002082600052600f810160205260ff6040600020541660048110158061048c57600282149182159081610e21575b50610e105761048c5715610dca57600481019260005260078101602052604060002054908354809203610db9576106f993610da2600c93612dc5565b90555b610dae836138d0565b016108618154612dc5565b633e714edf60e01b60005260046000fd5b6008810192600052600b8101602052604060002054908354809203610dff576106f993610df8600c93612dc5565b9055610da5565b633d40531f60e01b60005260046000fd5b6390cb8b6160e01b60005260046000fd5b9150506003600091141586610d66565b346104c45760403660031901126104c4576001600160a01b03610e52612a0c565b166000526005602052600a6040600020016024356000526020526020604060002054604051908152f35b346104c45760203660031901126104c4576001600160a01b03610e9d612a0c565b1660009081526005602090815260408083208054845260020182529182902054915191825290f35b346104c45760403660031901126104c4576001600160a01b03610ee6612a0c565b16600052600560205260066040600020016024356000526020526020604060002054604051908152f35b346104c457610f1e36612ac4565b91610f276132e4565b60018060a01b03166000526005602052600f60406000200181600052602052610f54826040600020612dad565b610f6a60405192610f6484612b33565b83612da1565b602082019042825260005260066020526040600020915190600482101561048c57610f9760019284612dad565b51910155005b346104c45760203660031901126104c4576001600160a01b03610fbe612a0c565b168060005260036020526040600020906000526005602052600c604060002001546000526020526020604060002054604051908152f35b346104c45760403660031901126104c4576001600160a01b03611016612a0c565b16600052600560205260026040600020016024356000526020526020604060002054604051908152f35b346104c45760003660031901126104c457602060405160008152f35b346104c45760203660031901126104c4576001600160a01b0361107d612a0c565b1660005260056020526020600860406000200154604051908152f35b346104c45760403660031901126104c4576110b2612a0c565b602435906001600160a01b036110c6613324565b163314158061122f575b80611215575b806111fc575b6106fb5760018060a01b0381169182600052600560205260406000209160038301826000528060205260406000205484548091036104a2576000526002840160205260006040812055826000526020526000604081205581600052600f8301602052604060002060ff19815416905561115481613475565b9283156111d857908161086161116a9354612dc5565b6040519261117784612b33565b60008452602084019342855282600052600660205260406000209051600481101561048c576020956111ab60019284612dad565b51910155600080516020613aca833981519152604080516000815260001987820152a36040519015158152f35b5050602092600080516020613aaa83398151915284600754604051908152a36105df565b5033600052600260205260ff60406000205416156110dc565b506001600160a01b036112266133b8565b163314156110d6565b506001600160a01b03611240613419565b163314156110d0565b346104c45761125736612c5e565b916112606132e4565b6001600160a01b0316600090815260056020526040902090600481101561048c57600181036112a95750600181015482116112985755005b63698f39ad60e01b60005260046000fd5b600281036112c35750600581015482116112985760040155005b6003146112cc57005b600981015482116112985760080155005b346104c45760403660031901126104c4576112f6612a0c565b602435906113026132e4565b6001600160a01b03166000908152600560205260409020600d810154821161132a57600c0155005b631a5ffd7760e11b60005260046000fd5b346104c45760403660031901126104c457611354612a22565b600435600052600080516020613aea83398151915260205260406000209060018060a01b0316600052602052602060ff604060002054166040519015158152f35b346104c45760403660031901126104c4576113ba6113b1612a0c565b60243590613090565b604080519283529015156020830152819081015b0390f35b346104c45760003660031901126104c457600080516020613a8a833981519152546040516001600160a01b039091168152602090f35b346104c45760403660031901126104c457611421612a0c565b6024359061142d6132e4565b60018060a01b03168060005260056020526040600020600f8101836000528060205260ff60406000205416600481101561048c576001036104b357836000526003820160205260406000205482548091036104a25761148b90612dc5565b8255836000526020526040600020600260ff19825416179055604051906114b182612b33565b6002825260208201904282528460005260066020526040600020925192600484101561048c5760016040936114f5600080516020613aca8339815191529684612dad565b519101556005810160078154928360005260068101602052878560002055876000520160205281836000205561152b8154612dc5565b9055815190600282526020820152a3005b346104c45761154a36612c5e565b916001600160a01b0361155b613324565b16331415806115c0575b806115a7575b6106fb576001600160a01b0316600090815260056020526040902090600481101561048c57600181036112a95750600181015482116112985755005b5033600052600260205260ff604060002054161561156b565b506001600160a01b036115d16133b8565b16331415611565565b612bd2565b346104c45760403660031901126104c4576001600160a01b03611600612a0c565b16600052600360205260406000206024356000526020526020604060002054604051908152f35b346104c45760403660031901126104c4576001600160a01b03611648612a0c565b16600052600560205260206040600020602435600052600381018252604060002054905414604051908152f35b346104c45760203660031901126104c4576001600160a01b03611696612a0c565b1660005260056020526020604060002054604051908152f35b346104c45760203660031901126104c45760043560005260046020526020604060002054604051908152f35b346104c45760003660031901126104c457600080516020613b2a83398151915254336001600160a01b0390911603611716576106f933613862565b63118cdaa760e01b6000523360045260246000fd5b346104c45760203660031901126104c4576001600160a01b0361174c612a0c565b1660005260056020526020600460406000200154604051908152f35b346104c45760403660031901126104c457611781612a0c565b6024356001600160a01b03611794613324565b1633141580611c8c575b80611c72575b80611c59575b6106fb5760009160609060018060a01b031690816000526005602052604060002092600f840194816000528560205260ff60406000205416600481101561048c576118e857506113ce929394816000526020526040600020600160ff1982541617905580600186019485549687600052600281016020528260406000205582600052600381016020528760406000205580548814966118498154612dc5565b9055816000526003602052600e604060002091600d81019283546000526020528460406000205582549261187c84612dc5565b90558460005201602052604060002055600080516020613aca8339815191526040805160018152896020820152a36001546118b681612dc5565b60015560005260046020526040600020555b604051938493151584526020840152606060408401526060830190612a47565b929493906000526003810160205260406000205493815485811015611917575b5050506113ce919293506118c8565b90939194925060018101809111611c43576119398361193e9296949396612cfd565b612ccb565b946007830192600b81019260028201906000815b84548111611c285790818b94939260005283602052604060002054918215611c1c5761198981611983859391612dc5565b97612d0a565b52600082815260208b81526040808320548c835281842054928c9052922054909160ff16600481101561048c576002811480611c0f575b80611bf6575b15611ae4575050600587018054808310611a48575b50555b81600052896020526040600020600160ff19825416179055604051611a0281612b33565b600181526020810192428452600052600660205260406000209051600481101561048c57611a3f93611a3660019284612dad565b51910155612dc5565b92909192611952565b89835b828110611a9d57507ff668a508bad90edc0098a18d4e9b14bba3369fca2d9aabbae828a3860ade58a982611a8186600295612cfd565b604080518881526020810193909352820152606090a38e6119db565b60009182526005602090815260408084208e855281852084865260060180845282862080548752600790920184529185208590558385529152919091558a90600101611a4b565b90915060036000911480611be9575b80611bd2575b611b05575b50506119de565b6009880190815490818410611b1f575b5050558c80611afe565b8a90845b838110611b775750507ff668a508bad90edc0098a18d4e9b14bba3369fca2d9aabbae828a3860ade58a982611b5a86600395612cfd565b604080518881526020810193909352820152606090a38e80611b15565b8192600192526005602052600b60408420018d84526005602052600a6040852001828552602052604084205484526020528260408120558c83526005602052600a604084200181845260205282604081205501908b91611b23565b50818152600a880160205283604082205414611af9565b5081600989015411611af3565b50826000526006890160205284604060002054146119c6565b508260058a0154116119c0565b9450611a3f9150612dc5565b50509794505090506113ce9350859150558392918580611908565b634e487b7160e01b600052601160045260246000fd5b5033600052600260205260ff60406000205416156117aa565b506001600160a01b03611c836133b8565b163314156117a4565b506001600160a01b03611c9d613419565b1633141561179e565b346104c45760003660031901126104c457611cbf6132e4565b600080516020613b2a83398151915280546001600160a01b0319908116909155600080516020613a8a833981519152805491821690556000906001600160a01b03167f8be0079c531659141344cd1fd0a4f28419497f9722a3daafe3b4186f6b6457e08280a3005b346104c45760603660031901126104c457611d40612a0c565b602435906044359060006080604051611d5881612b64565b611d60613062565b8152611d6a613062565b6020820152611d77613062565b6040820152826060820152015260018060a01b031660005260056020526040600020600181015491838311600014612028578281101561201957611dbb8482612cfd565b60018101809111611c43575b905b60058301549185831115612012578282101561200357611de98683612cfd565b60018101809111611c43575b60098501549287841115611ffb578784821015611feb57611e1591612cfd565b60018101809111611c43575b611e2a83612ccb565b90611e3483612ccb565b92611e3e82612ccb565b94600289018b60005b838110611fbf575050505060008a60068a01915b838110611f9357505050506000600a8801905b828110611f6857611f318a8a8a611f578b8b8b8b86549760405198611e928a612b7f565b89526020890152604088015260048601549460405195611eb187612b7f565b86526020860152604085015260088501549160405192611ed084612b7f565b835260208301526040820152611f44600d600c8601549501549360405196611ef788612b64565b875260208701908152604087019283526060870195865260808701948552604051978897602089525160a060208a015260c0890190612c0e565b9051878203601f19016040890152612c0e565b9051858203601f19016060870152612c0e565b915160808401525160a08301520390f35b80611f756001928d613083565b60005282602052604060002054611f8c8289612d0a565b5201611e6e565b611f9f81600193613083565b60005282602052604060002054611fb68289612d0a565b52018b90611e5b565b611fcb81600193613083565b60005282602052604060002054611fe28289612d0a565b52018c90611e47565b611ff6915084612cfd565b611e21565b506000611e21565b61200d8684612cfd565b611df5565b6000611df5565b6120238484612cfd565b611dc7565b600090611dc9565b346104c45760203660031901126104c4576001600160a01b03612051612a0c565b1660009081526005602090815260408083206004810154845260060182529182902054915191825290f35b346104c45760203660031901126104c457602061064761209a612a0c565b612ff3565b346104c45760003660031901126104c4576020600754604051908152f35b346104c45760203660031901126104c457336000526005602052600f604060002001600435600052602052602060ff604060002054166106a26040518092612ab7565b346104c45760403660031901126104c457612119612a0c565b602435906001600160401b0382116104c457366023830112156104c45781600401359161214583612bbb565b926121536040519485612b9a565b8084526024602085019160051b830101913683116104c457602401905b82821061228f57506001600160a01b03915061218c90506136f3565b16330361227e576001600160a01b03811660009081526005602052604081206003810193600f82019391925b8151811015612273576121cb8183612d0a565b511561226b576121db8183612d0a565b516000528460205260ff60406000205416600481101561048c5760031461226b576122068183612d0a565b516000528460205260ff6040600020541690600482101561048c576001809203612266576122348184612d0a565b51600052866020526040600020548554036122665761225d6122568285612d0a565b518561374a565b50505b016121b8565b612260565b600190612260565b602060405160018152f35b635410c05f60e11b60005260046000fd5b8135815260209182019101612170565b346104c45760403660031901126104c4576122b8612a0c565b602435906001600160a01b036122cc613324565b163314158061232b575b80612312575b6106fb576001600160a01b03166000908152600560205260409020600d810154821161132a57600c018054821161230f57005b55005b5033600052600260205260ff60406000205416156122dc565b506001600160a01b0361233c6133b8565b163314156122d6565b346104c45760203660031901126104c45760206106476001600160a01b0361236b612a0c565b168060005260058352600160406000200154906000526005835260406000205490612cfd565b346104c45760203660031901126104c4576001600160a01b036123b2612a0c565b166000526002602052602060ff604060002054166040519015158152f35b346104c45760203660031901126104c45760206106476123ee612a0c565b612f85565b346104c45760403660031901126104c45761240c612a0c565b7fad857fa38c9319cb80848f1ef2f924383b90297eb5d71755738ff037d100faa16020612437612a38565b926124406132e4565b6001600160a01b031660008181526002835260409020805460ff191660ff86151516179055926040519015158152a2005b346104c45760203660031901126104c4576001600160a01b03612492612a0c565b1660005260056020526020600160406000200154604051908152f35b346104c45760003660031901126104c4576000546040516001600160a01b039091168152602090f35b346104c45760203660031901126104c4576001600160a01b036124f8612a0c565b1660005260056020526020600d60406000200154604051908152f35b346104c45760403660031901126104c45761252d612a22565b336001600160a01b03821603612549576106f990600435613653565b63334bd91960e11b60005260046000fd5b346104c45760403660031901126104c457612573612a0c565b6001600160a01b031660009081526005602090815260408083206024358452600f81018352818420546003820184528285205460078301855283862054600b8401865284872054600e85019096529390952054939460ff9091169391929091600485101561048c5761010095600186149283612655575b600287149485612647575b600388149687612639575b5061260e6040518099612ab7565b6020880152604087015260608601526080850152151560a0840152151560c0830152151560e0820152f35b600801548314965089612600565b6004870154821495506125f5565b8554851493506125ea565b612af7565b346104c45760403660031901126104c4576106f9600435612684612a22565b90612691610ac882612f64565b6135b1565b346104c45760203660031901126104c4576020610647600435612f64565b346104c45760403660031901126104c4576126cd612a0c565b6001600160a01b036126dd613324565b1633141580612728575b8061270f575b6126fe576113ba9060243590612dd4565b6370f64de560e01b60005260046000fd5b5033600052600260205260ff60406000205416156126ed565b506001600160a01b03612739613419565b163314156126e7565b346104c45761275036612ac4565b916001600160a01b03612761613324565b16331415806127bb575b806127a2575b6106fb5760018060a01b03166000526005602052600f60406000200181600052602052610f54826040600020612dad565b5033600052600260205260ff6040600020541615612771565b506001600160a01b036127cc6133b8565b1633141561276b565b346104c45760203660031901126104c457600060206040516127f681612b33565b82815201526004356000526006602052604080600020600182519161281a83612b33565b61282860ff82541684612da1565b01546020820190815261283e8351809351612ab7565b516020820152f35b346104c45760403660031901126104c4576113ce612868602435600435612d1e565b604051918291602083526020830190612a47565b346104c45760403660031901126104c4576004356001600160401b0381116104c457366023820112156104c45780600401356001600160401b0381116104c4576024820191602436918360051b0101116104c4576128d8612a38565b6128e06132e4565b8015159060005b8381106128f057005b6001906001600160a01b0361290e61290983888a612c91565b612cb7565b1660005260026020526129318360406000209060ff801983541691151516179055565b818060a01b0361294561290983888a612c91565b167fad857fa38c9319cb80848f1ef2f924383b90297eb5d71755738ff037d100faa16020604051878152a2016128e7565b346104c45760203660031901126104c45761298f612a0c565b6129976132e4565b600080546001600160a01b0319166001600160a01b0392909216919091179055005b346104c45760203660031901126104c4576004359063ffffffff60e01b82168092036104c457602091637965db0b60e01b81149081156129fb575b5015158152f35b6301ffc9a760e01b149050836129f4565b600435906001600160a01b03821682036104c457565b602435906001600160a01b03821682036104c457565b6024359081151582036104c457565b906020808351928381520192019060005b818110612a655750505090565b8251845260209384019390920191600101612a58565b346104c45760203660031901126104c457612a94612a0c565b60018060a01b031660005260056020526020600960406000200154604051908152f35b90600482101561048c5752565b60609060031901126104c4576004356001600160a01b03811681036104c457906024359060443560048110156104c45790565b346104c45760203660031901126104c457612b10612a0c565b60018060a01b031660005260056020526020600c60406000200154604051908152f35b604081019081106001600160401b03821117612b4e57604052565b634e487b7160e01b600052604160045260246000fd5b60a081019081106001600160401b03821117612b4e57604052565b606081019081106001600160401b03821117612b4e57604052565b90601f801991011681019081106001600160401b03821117612b4e57604052565b6001600160401b038111612b4e5760051b60200190565b346104c45760203660031901126104c457612beb612a0c565b60018060a01b031660005260056020526020600560406000200154604051908152f35b60206080604060608501938051865283810151848701520151936060604082015284518094520192019060005b818110612c485750505090565b8251845260209384019390920191600101612c3b565b60609060031901126104c4576004356001600160a01b03811681036104c4579060243560048110156104c4579060443590565b9190811015612ca15760051b0190565b634e487b7160e01b600052603260045260246000fd5b356001600160a01b03811681036104c45790565b90612cd582612bbb565b612ce26040519182612b9a565b8281528092612cf3601f1991612bbb565b0190602036910137565b91908203918211611c4357565b8051821015612ca15760209160051b010190565b9060015480831015612d8457808211612d7c575b50612d406119398383612cfd565b91805b828110612d505750505090565b806001916000526004602052604060002054612d75612d6f8584612cfd565b87612d0a565b5201612d43565b905038612d32565b505050604051612d95602082612b9a565b60008152600036813790565b600482101561048c5752565b90600481101561048c5760ff80198354169116179055565b6000198114611c435760010190565b9160009160018060a01b038416806000526005602052604060002094600f860190836000528160205260ff60406000205416600481101561048c57600214612f4757836000528160205260ff60406000205416600481101561048c57600103612f3a578360005260038701602052604060002054875403612f3a57612e5890613475565b948515612f1a5750612e6a8654612dc5565b8655826000526020526040600020600260ff19825416179055604051612e8f81612b33565b60028152602081014281528360005260066020526040600020915190600482101561048c57612ec060019284612dad565b51910155600585016007815496876000526006810160205284604060002055846000520160205285604060002055612ef88154612dc5565b9055600080516020613aca8339815191526040805160028152876020820152a3565b955050600080516020613aaa8339815191526020600754604051908152a3565b5060009550859450505050565b505050600792506000939193520160205260406000205490600190565b600052600080516020613aea83398151915260205260016040600020015490565b6001600160a01b0316600081815260056020526040902060090154908115612fd3576000526005602052600a604060002001906000198101908111611c435760005260205260406000205490565b6000526005602052600a6040600020019060005260205260406000205490565b6001600160a01b0316600081815260056020819052604090912001549081156130425760005260056020526006604060002001906000198101908111611c435760005260205260406000205490565b600052600560205260066040600020019060005260205260406000205490565b6040519061306f82612b7f565b606060408360008152600060208201520152565b91908201809211611c4357565b906001600160a01b036130a1613324565b16331415806131ad575b80613193575b8061317a575b6131695760018060a01b03821660005260056020526040600020600f8101826000528060205260ff60406000205416600481101561048c57600314613150578260005260205260ff60406000205416600481101561048c5760010361314557816000526003810160205260406000205490540361313b576131379161374a565b9091565b5050600090600090565b505050600090600090565b5090600b92506000520160205260406000205490600090565b631e3f968f60e01b60005260046000fd5b5033600052600260205260ff60406000205416156130b7565b506001600160a01b036131a46133b8565b163314156130b1565b506001600160a01b036131be6136f3565b163314156130ab565b6001600160a01b03166000818152600560205260409020600c01549081156132125760005260036020526040600020906000198101908111611c435760005260205260406000205490565b5050600090565b60018060a01b0381166000526005602052600f604060002001826000528060205260ff60406000205416600481101561048c576001036132715761326f92600052602052604060002060ff1981541690556138d0565b565b505050565b6001600160a01b03166000818152600560205260409020600101549081156132c45760005260056020526002604060002001906000198101908111611c435760005260205260406000205490565b600052600560205260026040600020019060005260205260406000205490565b600080516020613a8a833981519152546001600160a01b0316330361171657565b908160209103126104c457516001600160a01b03811681036104c45790565b600054604051631bae711d60e21b8152602060048201819052600d60248301526c21b7b739b2b739bab9a6b0b4b760991b60448301529091829060649082906001600160a01b03165afa9081156133ac57600091613380575090565b6133a2915060203d6020116133a5575b61339a8183612b9a565b810190613305565b90565b503d613390565b6040513d6000823e3d90fd5b600054604051631bae711d60e21b815260206004820181905260126024830152712a3930b739b0b1ba34b7b726b0b730b3b2b960711b60448301529091829060649082906001600160a01b03165afa9081156133ac57600091613380575090565b600054604051631bae711d60e21b8152602060048201819052600d60248301526c4372656174696f6e506861736560981b60448301529091829060649082906001600160a01b03165afa9081156133ac57600091613380575090565b600091600754801560001461356157506064915b6001600160a01b03166000818152600560209081526040808320805484526002019091528120549093919291905b801515908161352e575b5080613525575b156135155782600052600560205260406000206134e58154612dc5565b90556000838152600560209081526040808320805484526002019091529020549361350f90612dc5565b936134b7565b9150911061351f57565b60019150565b508084106134c8565b9050836000526005602052600f6040600020019060005260205260ff60406000205416600481101561048c5715386134c1565b91613489565b6000818152600080516020613aea8339815191526020908152604080832033845290915290205460ff16156135995750565b63e2517d3f60e01b6000523360045260245260446000fd5b6000818152600080516020613aea833981519152602090815260408083206001600160a01b038616845290915290205460ff16613212576000818152600080516020613aea833981519152602090815260408083206001600160a01b0395909516808452949091528120805460ff19166001179055339291907f2f8788117e7eff1d82e926ec794901d17c78024a50270940304540a733656f0d9080a4600190565b6000818152600080516020613aea833981519152602090815260408083206001600160a01b038616845290915290205460ff1615613212576000818152600080516020613aea833981519152602090815260408083206001600160a01b0395909516808452949091528120805460ff19169055339291907ff6391f5c32d9c69d2a47ea670b442974b53935d1edc7fd64eb21e047a839171b9080a4600190565b600054604051631bae711d60e21b8152602060048201819052600860248301526749646c656e65737360c01b60448301529091829060649082906001600160a01b03165afa9081156133ac57600091613380575090565b909160009161375881613475565b928315613836575060018060a01b0316806000526005602052600f604060002001846000526020526040600020600360ff1982541617905560405161379c81612b33565b60038152602081014281528560005260066020526040600020915190600482101561048c576137cd60019284612dad565b5191015580600052600560205260406000206137e98154612dc5565b90556000818152600560208181526040808420600981018054808752600a830185528387208b9055998652600b9091018352908420889055939092529052805461383290612dc5565b9055565b6007546040519081529094916001600160a01b031690600080516020613aaa83398151915290602090a3565b600080516020613b2a83398151915280546001600160a01b0319908116909155600080516020613a8a83398151915280549182166001600160a01b0393841690811790915591167f8be0079c531659141344cd1fd0a4f28419497f9722a3daafe3b4186f6b6457e0600080a3565b6001600160a01b03166000818152600560205260409020600c810192600d8201929091905b8454845481101561393b578160005260036020526040600020816000526020526040600020548015159081613943575b501561393b5761393490612dc5565b85556138f5565b505050915050565b9050600052600f830160205260ff60406000205416600481101561048c571538613925565b926004811015908161048c5780158015613a4d575b613a4357600091613a2f5760028103613a0e57505060048201548160005260078301602052604060002054145b15613a0657600052600e8101602052600c6040600020549101541490816139db575b506139d657600090565b600190565b6001600160a01b03166000908152600560205260409020600c810154600d90910154119050386139cc565b505050600090565b6003036139aa576040600884015491838152600b85016020522054146139aa565b634e487b7160e01b82526021600452602482fd5b5050505050600090565b50600091506001811461397d565b60ff600080516020613b0a8339815191525460401c1615613a7857565b631afcd79f60e31b60005260046000fdfe9016d09d72d40fdae2fd8ceac6b6234c7706214fd39c1cd1e609a0528c199300f5d63ae8520cf01bdaf195a4b38d13c6752858e8d4e3253e9331a613b30c6056ae79898352f9a690e2c3c045facb9493b7c3f2b7beb2888e794c6a30d1f4550502dd7bc7dec4dceedda775e58dd541e08a116c6c53815c0bd028192f7b626800f0c57e16840df040f15088dc2f81fe391c3923bec73e23a9662efc9c229c6a00237e158222e3e6968b72b9db0d8043aacf074ad9f650f0d1606b4d82ee432c00a2646970667358221220af8a86cd892ac325ea0ca459f3cd9c2cbcf7e1a839d441fe79d7dedf2439654264736f6c634300081c0033",
  "linkReferences": {},
  "deployedLinkReferences": {}
}