{
  "_format": "hh-sol-artifact-1",
  "contractName": "Queues",
  "sourceName": "contracts/Queues.sol",
  "abi": [
    {
      "inputs": [],
      "name": "AccessControlBadConfirmation",
      "type": "error"
    },
    {
      "inputs": [
        {
          "internalType": "address",
          "name": "account",
          "type": "address"
        },
        {
          "internalType": "bytes32",
          "name": "neededRole",
          "type": "bytes32"
        }
      ],
      "name": "AccessControlUnauthorizedAccount",
      "type": "error"
    },
    {
      "inputs": [],
      "name": "FinalizedCountExceedsIssued",
      "type": "error"
    },
    {
      "inputs": [],
      "name": "InvalidInitialization",
      "type": "error"
    },
    {
      "inputs": [
        {
          "internalType": "uint256",
          "name": "number",
          "type": "uint256"
        }
      ],
      "name": "InvalidNumber",
      "type": "error"
    },
    {
      "inputs": [],
      "name": "NotConsensus",
      "type": "error"
    },
    {
      "inputs": [],
      "name": "NotConsensusOrIdleness",
      "type": "error"
    },
    {
      "inputs": [],
      "name": "NotConsensusOrIdlenessOrTransactions",
      "type": "error"
    },
    {
      "inputs": [],
      "name": "NotConsensusOrTransactions",
      "type": "error"
    },
    {
      "inputs": [],
      "name": "NotInitializing",
      "type": "error"
    },
    {
      "inputs": [
        {
          "internalType": "address",
          "name": "owner",
          "type": "address"
        }
      ],
      "name": "OwnableInvalidOwner",
      "type": "error"
    },
    {
      "inputs": [
        {
          "internalType": "address",
          "name": "account",
          "type": "address"
        }
      ],
      "name": "OwnableUnauthorizedAccount",
      "type": "error"
    },
    {
      "inputs": [],
      "name": "QueueHeadExceedsTail",
      "type": "error"
    },
    {
      "inputs": [],
      "name": "ReconcileBeyondTail",
      "type": "error"
    },
    {
      "inputs": [],
      "name": "ReconcileNotAdvancing",
      "type": "error"
    },
    {
      "inputs": [],
      "name": "ReentrancyGuardReentrantCall",
      "type": "error"
    },
    {
      "inputs": [],
      "name": "TransactionNotAcceptedNorUndetermined",
      "type": "error"
    },
    {
      "inputs": [],
      "name": "TransactionNotAtAcceptedQueueHead",
      "type": "error"
    },
    {
      "inputs": [],
      "name": "TransactionNotAtPendingQueueHead",
      "type": "error"
    },
    {
      "inputs": [],
      "name": "TransactionNotAtUndeterminedQueueHead",
      "type": "error"
    },
    {
      "inputs": [],
      "name": "TransactionNotInPendingQueue",
      "type": "error"
    },
    {
      "anonymous": false,
      "inputs": [
        {
          "indexed": true,
          "internalType": "address",
          "name": "recipient",
          "type": "address"
        },
        {
          "indexed": false,
          "internalType": "uint256",
          "name": "untilSlotExclusive",
          "type": "uint256"
        }
      ],
      "name": "AdminAcceptedQueueReconciled",
      "type": "event"
    },
    {
      "anonymous": false,
      "inputs": [
        {
          "indexed": true,
          "internalType": "address",
          "name": "caller",
          "type": "address"
        },
        {
          "indexed": false,
          "internalType": "bool",
          "name": "authorized",
          "type": "bool"
        }
      ],
      "name": "AuthorizedCallerUpdated",
      "type": "event"
    },
    {
      "anonymous": false,
      "inputs": [
        {
          "indexed": true,
          "internalType": "address",
          "name": "genConsensus",
          "type": "address"
        }
      ],
      "name": "GenConsensusSet",
      "type": "event"
    },
    {
      "anonymous": false,
      "inputs": [
        {
          "indexed": false,
          "internalType": "uint64",
          "name": "version",
          "type": "uint64"
        }
      ],
      "name": "Initialized",
      "type": "event"
    },
    {
      "anonymous": false,
      "inputs": [
        {
          "indexed": true,
          "internalType": "address",
          "name": "recipient",
          "type": "address"
        },
        {
          "indexed": true,
          "internalType": "bytes32",
          "name": "txId",
          "type": "bytes32"
        },
        {
          "indexed": false,
          "internalType": "uint256",
          "name": "maxNumOfIterations",
          "type": "uint256"
        }
      ],
      "name": "MaxNumOfIterationsInPendingQueueReached",
      "type": "event"
    },
    {
      "anonymous": false,
      "inputs": [
        {
          "indexed": true,
          "internalType": "address",
          "name": "previousOwner",
          "type": "address"
        },
        {
          "indexed": true,
          "internalType": "address",
          "name": "newOwner",
          "type": "address"
        }
      ],
      "name": "OwnershipTransferStarted",
      "type": "event"
    },
    {
      "anonymous": false,
      "inputs": [
        {
          "indexed": true,
          "internalType": "address",
          "name": "previousOwner",
          "type": "address"
        },
        {
          "indexed": true,
          "internalType": "address",
          "name": "newOwner",
          "type": "address"
        }
      ],
      "name": "OwnershipTransferred",
      "type": "event"
    },
    {
      "anonymous": false,
      "inputs": [
        {
          "indexed": true,
          "internalType": "address",
          "name": "recipient",
          "type": "address"
        }
      ],
      "name": "PendingQueueUnblocked",
      "type": "event"
    },
    {
      "anonymous": false,
      "inputs": [
        {
          "indexed": true,
          "internalType": "address",
          "name": "recipient",
          "type": "address"
        },
        {
          "indexed": true,
          "internalType": "bytes32",
          "name": "txId",
          "type": "bytes32"
        },
        {
          "indexed": false,
          "internalType": "enum IQueues.QueueType",
          "name": "queueType",
          "type": "uint8"
        },
        {
          "indexed": false,
          "internalType": "uint256",
          "name": "slot",
          "type": "uint256"
        }
      ],
      "name": "QueueOperationPerformed",
      "type": "event"
    },
    {
      "anonymous": false,
      "inputs": [
        {
          "indexed": true,
          "internalType": "bytes32",
          "name": "role",
          "type": "bytes32"
        },
        {
          "indexed": true,
          "internalType": "bytes32",
          "name": "previousAdminRole",
          "type": "bytes32"
        },
        {
          "indexed": true,
          "internalType": "bytes32",
          "name": "newAdminRole",
          "type": "bytes32"
        }
      ],
      "name": "RoleAdminChanged",
      "type": "event"
    },
    {
      "anonymous": false,
      "inputs": [
        {
          "indexed": true,
          "internalType": "bytes32",
          "name": "role",
          "type": "bytes32"
        },
        {
          "indexed": true,
          "internalType": "address",
          "name": "account",
          "type": "address"
        },
        {
          "indexed": true,
          "internalType": "address",
          "name": "sender",
          "type": "address"
        }
      ],
      "name": "RoleGranted",
      "type": "event"
    },
    {
      "anonymous": false,
      "inputs": [
        {
          "indexed": true,
          "internalType": "bytes32",
          "name": "role",
          "type": "bytes32"
        },
        {
          "indexed": true,
          "internalType": "address",
          "name": "account",
          "type": "address"
        },
        {
          "indexed": true,
          "internalType": "address",
          "name": "sender",
          "type": "address"
        }
      ],
      "name": "RoleRevoked",
      "type": "event"
    },
    {
      "anonymous": false,
      "inputs": [
        {
          "indexed": true,
          "internalType": "address",
          "name": "recipient",
          "type": "address"
        },
        {
          "indexed": true,
          "internalType": "enum IQueues.QueueType",
          "name": "queueType",
          "type": "uint8"
        },
        {
          "indexed": false,
          "internalType": "uint256",
          "name": "start",
          "type": "uint256"
        },
        {
          "indexed": false,
          "internalType": "uint256",
          "name": "end",
          "type": "uint256"
        },
        {
          "indexed": false,
          "internalType": "uint256",
          "name": "count",
          "type": "uint256"
        }
      ],
      "name": "TransactionsBatchDeletedFromQueue",
      "type": "event"
    },
    {
      "inputs": [],
      "name": "DEFAULT_ADMIN_ROLE",
      "outputs": [
        {
          "internalType": "bytes32",
          "name": "",
          "type": "bytes32"
        }
      ],
      "stateMutability": "view",
      "type": "function"
    },
    {
      "inputs": [],
      "name": "acceptOwnership",
      "outputs": [],
      "stateMutability": "nonpayable",
      "type": "function"
    },
    {
      "inputs": [
        {
          "internalType": "address",
          "name": "recipient",
          "type": "address"
        },
        {
          "internalType": "bytes32[]",
          "name": "txIds",
          "type": "bytes32[]"
        }
      ],
      "name": "addBatchOfTransactionsToUndeterminedQueue",
      "outputs": [
        {
          "internalType": "bool",
          "name": "success",
          "type": "bool"
        }
      ],
      "stateMutability": "nonpayable",
      "type": "function"
    },
    {
      "inputs": [
        {
          "internalType": "address",
          "name": "recipient",
          "type": "address"
        },
        {
          "internalType": "bytes32",
          "name": "txId",
          "type": "bytes32"
        }
      ],
      "name": "addTransactionToAcceptedQueue",
      "outputs": [
        {
          "internalType": "uint256",
          "name": "slot",
          "type": "uint256"
        },
        {
          "internalType": "bool",
          "name": "success",
          "type": "bool"
        }
      ],
      "stateMutability": "nonpayable",
      "type": "function"
    },
    {
      "inputs": [
        {
          "internalType": "address",
          "name": "recipient",
          "type": "address"
        },
        {
          "internalType": "bytes32",
          "name": "txId",
          "type": "bytes32"
        }
      ],
      "name": "addTransactionToFinalizedQueue",
      "outputs": [
        {
          "internalType": "bool",
          "name": "success",
          "type": "bool"
        }
      ],
      "stateMutability": "nonpayable",
      "type": "function"
    },
    {
      "inputs": [
        {
          "internalType": "address",
          "name": "recipient",
          "type": "address"
        },
        {
          "internalType": "bytes32",
          "name": "txId",
          "type": "bytes32"
        }
      ],
      "name": "addTransactionToPendingQueue",
      "outputs": [
        {
          "internalType": "bool",
          "name": "readyToActivate",
          "type": "bool"
        },
        {
          "internalType": "uint256",
          "name": "slot",
          "type": "uint256"
        },
        {
          "internalType": "bytes32[]",
          "name": "txsForRecomputation",
          "type": "bytes32[]"
        }
      ],
      "stateMutability": "nonpayable",
      "type": "function"
    },
    {
      "inputs": [
        {
          "internalType": "address",
          "name": "recipient",
          "type": "address"
        },
        {
          "internalType": "bytes32",
          "name": "txId",
          "type": "bytes32"
        }
      ],
      "name": "addTransactionToUndeterminedQueue",
      "outputs": [
        {
          "internalType": "uint256",
          "name": "slot",
          "type": "uint256"
        },
        {
          "internalType": "bool",
          "name": "success",
          "type": "bool"
        }
      ],
      "stateMutability": "nonpayable",
      "type": "function"
    },
    {
      "inputs": [],
      "name": "addressManager",
      "outputs": [
        {
          "internalType": "contract IAddressManager",
          "name": "",
          "type": "address"
        }
      ],
      "stateMutability": "view",
      "type": "function"
    },
    {
      "inputs": [
        {
          "internalType": "address",
          "name": "recipient",
          "type": "address"
        },
        {
          "internalType": "bytes32",
          "name": "txId",
          "type": "bytes32"
        }
      ],
      "name": "adminFinalize",
      "outputs": [],
      "stateMutability": "nonpayable",
      "type": "function"
    },
    {
      "inputs": [
        {
          "internalType": "address",
          "name": "recipient",
          "type": "address"
        },
        {
          "internalType": "bytes32",
          "name": "txId",
          "type": "bytes32"
        }
      ],
      "name": "adminGetTransactionQueueInfo",
      "outputs": [
        {
          "internalType": "enum IQueues.QueueType",
          "name": "currentQueueType",
          "type": "uint8"
        },
        {
          "internalType": "uint256",
          "name": "pendingSlot",
          "type": "uint256"
        },
        {
          "internalType": "uint256",
          "name": "acceptedSlot",
          "type": "uint256"
        },
        {
          "internalType": "uint256",
          "name": "undeterminedSlot",
          "type": "uint256"
        },
        {
          "internalType": "uint256",
          "name": "finalizedSlot",
          "type": "uint256"
        },
        {
          "internalType": "bool",
          "name": "isAtPendingHead",
          "type": "bool"
        },
        {
          "internalType": "bool",
          "name": "isAtAcceptedHead",
          "type": "bool"
        },
        {
          "internalType": "bool",
          "name": "isAtUndeterminedHead",
          "type": "bool"
        }
      ],
      "stateMutability": "view",
      "type": "function"
    },
    {
      "inputs": [
        {
          "internalType": "address",
          "name": "recipient",
          "type": "address"
        },
        {
          "internalType": "bytes32",
          "name": "txId",
          "type": "bytes32"
        }
      ],
      "name": "adminMoveToAccepted",
      "outputs": [],
      "stateMutability": "nonpayable",
      "type": "function"
    },
    {
      "inputs": [
        {
          "internalType": "address",
          "name": "recipient",
          "type": "address"
        },
        {
          "internalType": "bytes32",
          "name": "txId",
          "type": "bytes32"
        }
      ],
      "name": "adminMoveToUndetermined",
      "outputs": [],
      "stateMutability": "nonpayable",
      "type": "function"
    },
    {
      "inputs": [
        {
          "internalType": "address",
          "name": "recipient",
          "type": "address"
        },
        {
          "internalType": "uint256",
          "name": "untilSlotExclusive",
          "type": "uint256"
        }
      ],
      "name": "adminReconcileAcceptedQueueHead",
      "outputs": [],
      "stateMutability": "nonpayable",
      "type": "function"
    },
    {
      "inputs": [
        {
          "internalType": "address",
          "name": "recipient",
          "type": "address"
        },
        {
          "internalType": "uint256",
          "name": "newFinalizedCount",
          "type": "uint256"
        }
      ],
      "name": "adminSetFinalizedCount",
      "outputs": [],
      "stateMutability": "nonpayable",
      "type": "function"
    },
    {
      "inputs": [
        {
          "internalType": "address",
          "name": "recipient",
          "type": "address"
        },
        {
          "internalType": "enum IQueues.QueueType",
          "name": "queueType",
          "type": "uint8"
        },
        {
          "internalType": "uint256",
          "name": "newHead",
          "type": "uint256"
        }
      ],
      "name": "adminSetQueueHead",
      "outputs": [],
      "stateMutability": "nonpayable",
      "type": "function"
    },
    {
      "inputs": [
        {
          "internalType": "address",
          "name": "recipient",
          "type": "address"
        },
        {
          "internalType": "bytes32",
          "name": "txId",
          "type": "bytes32"
        },
        {
          "internalType": "enum IQueues.QueueType",
          "name": "queueType",
          "type": "uint8"
        }
      ],
      "name": "adminSetTransactionQueueType",
      "outputs": [],
      "stateMutability": "nonpayable",
      "type": "function"
    },
    {
      "inputs": [
        {
          "internalType": "address",
          "name": "",
          "type": "address"
        }
      ],
      "name": "authorizedCallers",
      "outputs": [
        {
          "internalType": "bool",
          "name": "",
          "type": "bool"
        }
      ],
      "stateMutability": "view",
      "type": "function"
    },
    {
      "inputs": [
        {
          "internalType": "address",
          "name": "recipient",
          "type": "address"
        }
      ],
      "name": "getAcceptedHead",
      "outputs": [
        {
          "internalType": "uint256",
          "name": "",
          "type": "uint256"
        }
      ],
      "stateMutability": "view",
      "type": "function"
    },
    {
      "inputs": [
        {
          "internalType": "address",
          "name": "recipient",
          "type": "address"
        }
      ],
      "name": "getAcceptedHeadTxId",
      "outputs": [
        {
          "internalType": "bytes32",
          "name": "",
          "type": "bytes32"
        }
      ],
      "stateMutability": "view",
      "type": "function"
    },
    {
      "inputs": [
        {
          "internalType": "address",
          "name": "recipient",
          "type": "address"
        }
      ],
      "name": "getAcceptedTail",
      "outputs": [
        {
          "internalType": "uint256",
          "name": "",
          "type": "uint256"
        }
      ],
      "stateMutability": "view",
      "type": "function"
    },
    {
      "inputs": [
        {
          "internalType": "address",
          "name": "recipient",
          "type": "address"
        }
      ],
      "name": "getAcceptedTailTxId",
      "outputs": [
        {
          "internalType": "bytes32",
          "name": "",
          "type": "bytes32"
        }
      ],
      "stateMutability": "view",
      "type": "function"
    },
    {
      "inputs": [
        {
          "internalType": "address",
          "name": "recipient",
          "type": "address"
        }
      ],
      "name": "getAcceptedTxCount",
      "outputs": [
        {
          "internalType": "uint256",
          "name": "",
          "type": "uint256"
        }
      ],
      "stateMutability": "view",
      "type": "function"
    },
    {
      "inputs": [
        {
          "internalType": "address",
          "name": "recipient",
          "type": "address"
        },
        {
          "internalType": "uint256",
          "name": "slot",
          "type": "uint256"
        }
      ],
      "name": "getAcceptedTxId",
      "outputs": [
        {
          "internalType": "bytes32",
          "name": "",
          "type": "bytes32"
        }
      ],
      "stateMutability": "view",
      "type": "function"
    },
    {
      "inputs": [
        {
          "internalType": "address",
          "name": "recipient",
          "type": "address"
        }
      ],
      "name": "getFinalizedHead",
      "outputs": [
        {
          "internalType": "uint256",
          "name": "",
          "type": "uint256"
        }
      ],
      "stateMutability": "view",
      "type": "function"
    },
    {
      "inputs": [
        {
          "internalType": "address",
          "name": "recipient",
          "type": "address"
        }
      ],
      "name": "getFinalizedHeadTxId",
      "outputs": [
        {
          "internalType": "bytes32",
          "name": "",
          "type": "bytes32"
        }
      ],
      "stateMutability": "view",
      "type": "function"
    },
    {
      "inputs": [
        {
          "internalType": "address",
          "name": "recipient",
          "type": "address"
        }
      ],
      "name": "getFinalizedTxCount",
      "outputs": [
        {
          "internalType": "uint256",
          "name": "",
          "type": "uint256"
        }
      ],
      "stateMutability": "view",
      "type": "function"
    },
    {
      "inputs": [
        {
          "internalType": "address",
          "name": "recipient",
          "type": "address"
        },
        {
          "internalType": "uint256",
          "name": "slot",
          "type": "uint256"
        }
      ],
      "name": "getFinalizedTxId",
      "outputs": [
        {
          "internalType": "bytes32",
          "name": "",
          "type": "bytes32"
        }
      ],
      "stateMutability": "view",
      "type": "function"
    },
    {
      "inputs": [
        {
          "internalType": "address",
          "name": "recipient",
          "type": "address"
        }
      ],
      "name": "getIssuedTxCount",
      "outputs": [
        {
          "internalType": "uint256",
          "name": "",
          "type": "uint256"
        }
      ],
      "stateMutability": "view",
      "type": "function"
    },
    {
      "inputs": [
        {
          "internalType": "address",
          "name": "recipient",
          "type": "address"
        }
      ],
      "name": "getLastFinalizedTxId",
      "outputs": [
        {
          "internalType": "bytes32",
          "name": "",
          "type": "bytes32"
        }
      ],
      "stateMutability": "view",
      "type": "function"
    },
    {
      "inputs": [
        {
          "internalType": "bytes32",
          "name": "txId",
          "type": "bytes32"
        }
      ],
      "name": "getLastQueueModification",
      "outputs": [
        {
          "components": [
            {
              "internalType": "enum IQueues.QueueType",
              "name": "lastQueueType",
              "type": "uint8"
            },
            {
              "internalType": "uint256",
              "name": "lastQueueTimestamp",
              "type": "uint256"
            }
          ],
          "internalType": "struct IQueues.LastQueueModification",
          "name": "",
          "type": "tuple"
        }
      ],
      "stateMutability": "view",
      "type": "function"
    },
    {
      "inputs": [
        {
          "internalType": "address",
          "name": "recipient",
          "type": "address"
        }
      ],
      "name": "getPendingHead",
      "outputs": [
        {
          "internalType": "uint256",
          "name": "",
          "type": "uint256"
        }
      ],
      "stateMutability": "view",
      "type": "function"
    },
    {
      "inputs": [
        {
          "internalType": "address",
          "name": "recipient",
          "type": "address"
        }
      ],
      "name": "getPendingHeadTxId",
      "outputs": [
        {
          "internalType": "bytes32",
          "name": "",
          "type": "bytes32"
        }
      ],
      "stateMutability": "view",
      "type": "function"
    },
    {
      "inputs": [
        {
          "internalType": "address",
          "name": "recipient",
          "type": "address"
        }
      ],
      "name": "getPendingTail",
      "outputs": [
        {
          "internalType": "uint256",
          "name": "",
          "type": "uint256"
        }
      ],
      "stateMutability": "view",
      "type": "function"
    },
    {
      "inputs": [
        {
          "internalType": "address",
          "name": "recipient",
          "type": "address"
        }
      ],
      "name": "getPendingTailTxId",
      "outputs": [
        {
          "internalType": "bytes32",
          "name": "",
          "type": "bytes32"
        }
      ],
      "stateMutability": "view",
      "type": "function"
    },
    {
      "inputs": [
        {
          "internalType": "address",
          "name": "recipient",
          "type": "address"
        }
      ],
      "name": "getPendingTxCount",
      "outputs": [
        {
          "internalType": "uint256",
          "name": "",
          "type": "uint256"
        }
      ],
      "stateMutability": "view",
      "type": "function"
    },
    {
      "inputs": [
        {
          "internalType": "address",
          "name": "recipient",
          "type": "address"
        },
        {
          "internalType": "uint256",
          "name": "slot",
          "type": "uint256"
        }
      ],
      "name": "getPendingTxId",
      "outputs": [
        {
          "internalType": "bytes32",
          "name": "",
          "type": "bytes32"
        }
      ],
      "stateMutability": "view",
      "type": "function"
    },
    {
      "inputs": [
        {
          "internalType": "address",
          "name": "recipient",
          "type": "address"
        },
        {
          "internalType": "uint256",
          "name": "startIndex",
          "type": "uint256"
        },
        {
          "internalType": "uint256",
          "name": "endIndex",
          "type": "uint256"
        }
      ],
      "name": "getRecipientQueues",
      "outputs": [
        {
          "components": [
            {
              "components": [
                {
                  "internalType": "uint256",
                  "name": "head",
                  "type": "uint256"
                },
                {
                  "internalType": "uint256",
                  "name": "tail",
                  "type": "uint256"
                },
                {
                  "internalType": "bytes32[]",
                  "name": "txIds",
                  "type": "bytes32[]"
                }
              ],
              "internalType": "struct IQueues.QueueInfoView",
              "name": "pending",
              "type": "tuple"
            },
            {
              "components": [
                {
                  "internalType": "uint256",
                  "name": "head",
                  "type": "uint256"
                },
                {
                  "internalType": "uint256",
                  "name": "tail",
                  "type": "uint256"
                },
                {
                  "internalType": "bytes32[]",
                  "name": "txIds",
                  "type": "bytes32[]"
                }
              ],
              "internalType": "struct IQueues.QueueInfoView",
              "name": "accepted",
              "type": "tuple"
            },
            {
              "components": [
                {
                  "internalType": "uint256",
                  "name": "head",
                  "type": "uint256"
                },
                {
                  "internalType": "uint256",
                  "name": "tail",
                  "type": "uint256"
                },
                {
                  "internalType": "bytes32[]",
                  "name": "txIds",
                  "type": "bytes32[]"
                }
              ],
              "internalType": "struct IQueues.QueueInfoView",
              "name": "undetermined",
              "type": "tuple"
            },
            {
              "internalType": "uint256",
              "name": "finalizedCount",
              "type": "uint256"
            },
            {
              "internalType": "uint256",
              "name": "issuedTxCount",
              "type": "uint256"
            }
          ],
          "internalType": "struct IQueues.RecipientQueuesView",
          "name": "",
          "type": "tuple"
        }
      ],
      "stateMutability": "view",
      "type": "function"
    },
    {
      "inputs": [
        {
          "internalType": "bytes32",
          "name": "role",
          "type": "bytes32"
        }
      ],
      "name": "getRoleAdmin",
      "outputs": [
        {
          "internalType": "bytes32",
          "name": "",
          "type": "bytes32"
        }
      ],
      "stateMutability": "view",
      "type": "function"
    },
    {
      "inputs": [],
      "name": "getTotalNumOfTransactions",
      "outputs": [
        {
          "internalType": "uint256",
          "name": "",
          "type": "uint256"
        }
      ],
      "stateMutability": "view",
      "type": "function"
    },
    {
      "inputs": [
        {
          "internalType": "uint256",
          "name": "startIndex",
          "type": "uint256"
        },
        {
          "internalType": "uint256",
          "name": "endIndex",
          "type": "uint256"
        }
      ],
      "name": "getTransactionIndexToTxId",
      "outputs": [
        {
          "internalType": "bytes32[]",
          "name": "txIds",
          "type": "bytes32[]"
        }
      ],
      "stateMutability": "view",
      "type": "function"
    },
    {
      "inputs": [
        {
          "internalType": "bytes32",
          "name": "txId",
          "type": "bytes32"
        }
      ],
      "name": "getTransactionQueuePosition",
      "outputs": [
        {
          "internalType": "uint256",
          "name": "",
          "type": "uint256"
        }
      ],
      "stateMutability": "view",
      "type": "function"
    },
    {
      "inputs": [
        {
          "internalType": "bytes32",
          "name": "txId",
          "type": "bytes32"
        }
      ],
      "name": "getTransactionQueueType",
      "outputs": [
        {
          "internalType": "enum IQueues.QueueType",
          "name": "",
          "type": "uint8"
        }
      ],
      "stateMutability": "view",
      "type": "function"
    },
    {
      "inputs": [
        {
          "internalType": "address",
          "name": "recipient",
          "type": "address"
        },
        {
          "internalType": "bytes32",
          "name": "txId",
          "type": "bytes32"
        }
      ],
      "name": "getTxQueueType",
      "outputs": [
        {
          "internalType": "enum IQueues.QueueType",
          "name": "",
          "type": "uint8"
        }
      ],
      "stateMutability": "view",
      "type": "function"
    },
    {
      "inputs": [
        {
          "internalType": "address",
          "name": "recipient",
          "type": "address"
        }
      ],
      "name": "getUndeterminedHead",
      "outputs": [
        {
          "internalType": "uint256",
          "name": "",
          "type": "uint256"
        }
      ],
      "stateMutability": "view",
      "type": "function"
    },
    {
      "inputs": [
        {
          "internalType": "address",
          "name": "recipient",
          "type": "address"
        }
      ],
      "name": "getUndeterminedHeadTxId",
      "outputs": [
        {
          "internalType": "bytes32",
          "name": "",
          "type": "bytes32"
        }
      ],
      "stateMutability": "view",
      "type": "function"
    },
    {
      "inputs": [
        {
          "internalType": "address",
          "name": "recipient",
          "type": "address"
        }
      ],
      "name": "getUndeterminedTail",
      "outputs": [
        {
          "internalType": "uint256",
          "name": "",
          "type": "uint256"
        }
      ],
      "stateMutability": "view",
      "type": "function"
    },
    {
      "inputs": [
        {
          "internalType": "address",
          "name": "recipient",
          "type": "address"
        }
      ],
      "name": "getUndeterminedTailTxId",
      "outputs": [
        {
          "internalType": "bytes32",
          "name": "",
          "type": "bytes32"
        }
      ],
      "stateMutability": "view",
      "type": "function"
    },
    {
      "inputs": [
        {
          "internalType": "address",
          "name": "recipient",
          "type": "address"
        }
      ],
      "name": "getUndeterminedTxCount",
      "outputs": [
        {
          "internalType": "uint256",
          "name": "",
          "type": "uint256"
        }
      ],
      "stateMutability": "view",
      "type": "function"
    },
    {
      "inputs": [
        {
          "internalType": "address",
          "name": "recipient",
          "type": "address"
        },
        {
          "internalType": "uint256",
          "name": "slot",
          "type": "uint256"
        }
      ],
      "name": "getUndeterminedTxId",
      "outputs": [
        {
          "internalType": "bytes32",
          "name": "",
          "type": "bytes32"
        }
      ],
      "stateMutability": "view",
      "type": "function"
    },
    {
      "inputs": [
        {
          "internalType": "bytes32",
          "name": "role",
          "type": "bytes32"
        },
        {
          "internalType": "address",
          "name": "account",
          "type": "address"
        }
      ],
      "name": "grantRole",
      "outputs": [],
      "stateMutability": "nonpayable",
      "type": "function"
    },
    {
      "inputs": [
        {
          "internalType": "bytes32",
          "name": "role",
          "type": "bytes32"
        },
        {
          "internalType": "address",
          "name": "account",
          "type": "address"
        }
      ],
      "name": "hasRole",
      "outputs": [
        {
          "internalType": "bool",
          "name": "",
          "type": "bool"
        }
      ],
      "stateMutability": "view",
      "type": "function"
    },
    {
      "inputs": [
        {
          "internalType": "address",
          "name": "_addressManager",
          "type": "address"
        }
      ],
      "name": "initialize",
      "outputs": [],
      "stateMutability": "nonpayable",
      "type": "function"
    },
    {
      "inputs": [
        {
          "internalType": "address",
          "name": "recipient",
          "type": "address"
        },
        {
          "internalType": "bytes32",
          "name": "txId",
          "type": "bytes32"
        }
      ],
      "name": "isAtFinalizedQueueHead",
      "outputs": [
        {
          "internalType": "bool",
          "name": "",
          "type": "bool"
        }
      ],
      "stateMutability": "view",
      "type": "function"
    },
    {
      "inputs": [
        {
          "internalType": "address",
          "name": "recipient",
          "type": "address"
        },
        {
          "internalType": "bytes32",
          "name": "txId",
          "type": "bytes32"
        }
      ],
      "name": "isAtPendingQueueHead",
      "outputs": [
        {
          "internalType": "bool",
          "name": "",
          "type": "bool"
        }
      ],
      "stateMutability": "view",
      "type": "function"
    },
    {
      "inputs": [
        {
          "internalType": "bytes32",
          "name": "",
          "type": "bytes32"
        }
      ],
      "name": "lastQueueModification",
      "outputs": [
        {
          "internalType": "enum IQueues.QueueType",
          "name": "lastQueueType",
          "type": "uint8"
        },
        {
          "internalType": "uint256",
          "name": "lastQueueTimestamp",
          "type": "uint256"
        }
      ],
      "stateMutability": "view",
      "type": "function"
    },
    {
      "inputs": [
        {
          "internalType": "address",
          "name": "recipient",
          "type": "address"
        },
        {
          "internalType": "bytes32",
          "name": "txId",
          "type": "bytes32"
        }
      ],
      "name": "markPendingTransactionAsCancelled",
      "outputs": [],
      "stateMutability": "nonpayable",
      "type": "function"
    },
    {
      "inputs": [],
      "name": "maxNumOfIterationsInPendingQueue",
      "outputs": [
        {
          "internalType": "uint256",
          "name": "",
          "type": "uint256"
        }
      ],
      "stateMutability": "view",
      "type": "function"
    },
    {
      "inputs": [],
      "name": "numOfTransactions",
      "outputs": [
        {
          "internalType": "uint256",
          "name": "",
          "type": "uint256"
        }
      ],
      "stateMutability": "view",
      "type": "function"
    },
    {
      "inputs": [],
      "name": "owner",
      "outputs": [
        {
          "internalType": "address",
          "name": "",
          "type": "address"
        }
      ],
      "stateMutability": "view",
      "type": "function"
    },
    {
      "inputs": [],
      "name": "pendingOwner",
      "outputs": [
        {
          "internalType": "address",
          "name": "",
          "type": "address"
        }
      ],
      "stateMutability": "view",
      "type": "function"
    },
    {
      "inputs": [
        {
          "internalType": "address",
          "name": "recipient",
          "type": "address"
        },
        {
          "internalType": "uint256",
          "name": "txIndex",
          "type": "uint256"
        }
      ],
      "name": "recipientIssuedIndexToTxId",
      "outputs": [
        {
          "internalType": "bytes32",
          "name": "txId",
          "type": "bytes32"
        }
      ],
      "stateMutability": "view",
      "type": "function"
    },
    {
      "inputs": [
        {
          "internalType": "address",
          "name": "recipient",
          "type": "address"
        },
        {
          "internalType": "bytes32",
          "name": "txId",
          "type": "bytes32"
        }
      ],
      "name": "removeTransactionFromPendingQueue",
      "outputs": [
        {
          "internalType": "bool",
          "name": "success",
          "type": "bool"
        }
      ],
      "stateMutability": "nonpayable",
      "type": "function"
    },
    {
      "inputs": [],
      "name": "renounceOwnership",
      "outputs": [],
      "stateMutability": "nonpayable",
      "type": "function"
    },
    {
      "inputs": [
        {
          "internalType": "bytes32",
          "name": "role",
          "type": "bytes32"
        },
        {
          "internalType": "address",
          "name": "callerConfirmation",
          "type": "address"
        }
      ],
      "name": "renounceRole",
      "outputs": [],
      "stateMutability": "nonpayable",
      "type": "function"
    },
    {
      "inputs": [
        {
          "internalType": "bytes32",
          "name": "role",
          "type": "bytes32"
        },
        {
          "internalType": "address",
          "name": "account",
          "type": "address"
        }
      ],
      "name": "revokeRole",
      "outputs": [],
      "stateMutability": "nonpayable",
      "type": "function"
    },
    {
      "inputs": [
        {
          "internalType": "address",
          "name": "_addressManager",
          "type": "address"
        }
      ],
      "name": "setAddressManager",
      "outputs": [],
      "stateMutability": "nonpayable",
      "type": "function"
    },
    {
      "inputs": [
        {
          "internalType": "address",
          "name": "caller",
          "type": "address"
        },
        {
          "internalType": "bool",
          "name": "authorized",
          "type": "bool"
        }
      ],
      "name": "setAuthorizedCaller",
      "outputs": [],
      "stateMutability": "nonpayable",
      "type": "function"
    },
    {
      "inputs": [
        {
          "internalType": "address[]",
          "name": "callers",
          "type": "address[]"
        },
        {
          "internalType": "bool",
          "name": "authorized",
          "type": "bool"
        }
      ],
      "name": "setAuthorizedCallers",
      "outputs": [],
      "stateMutability": "nonpayable",
      "type": "function"
    },
    {
      "inputs": [
        {
          "internalType": "uint256",
          "name": "_maxNumOfIterationsInPendingQueue",
          "type": "uint256"
        }
      ],
      "name": "setMaxNumOfIterationsInPendingQueue",
      "outputs": [],
      "stateMutability": "nonpayable",
      "type": "function"
    },
    {
      "inputs": [
        {
          "internalType": "bytes4",
          "name": "interfaceId",
          "type": "bytes4"
        }
      ],
      "name": "supportsInterface",
      "outputs": [
        {
          "internalType": "bool",
          "name": "",
          "type": "bool"
        }
      ],
      "stateMutability": "view",
      "type": "function"
    },
    {
      "inputs": [
        {
          "internalType": "uint256",
          "name": "",
          "type": "uint256"
        }
      ],
      "name": "transactionIndexToTxId",
      "outputs": [
        {
          "internalType": "bytes32",
          "name": "",
          "type": "bytes32"
        }
      ],
      "stateMutability": "view",
      "type": "function"
    },
    {
      "inputs": [
        {
          "internalType": "address",
          "name": "newOwner",
          "type": "address"
        }
      ],
      "name": "transferOwnership",
      "outputs": [],
      "stateMutability": "nonpayable",
      "type": "function"
    }
  ],
  "bytecode": "0x60808060405234601557613962908161001b8239f35b600080fdfe608080604052600436101561001357600080fd5b60003560e01c90816301ffc9a714612802575080630652b57a146127bf578063090263a7146126c55780630f36527a1461268f5780630f6153d4146106835780630fd067101461261e578063164656451461253c5780631a0f2b1814612590578063248a9ca3146125725780632a69ae7d146115615780632f2ff15d146125415780633169e0431461253c578063322af2f21461243657806336568abe146123f057806336dc908c146123b35780633ab76e9f1461238a5780633f008c451461234d578063454bbd29146122cf578063465551a8146122ac578063536fff6c1461226d5780635bb84335146122215780635eb3166c146120825780636262ae6b1461203f5780636e7b3a40146120215780636e9f323814611ffe5780636f3291141461155c5780636fa7e4f114611fb25780637128928d14611ca9578063715018a614611c285780637257053714610a5d578063769ad35a146116ea57806376d3a646146116ad57806379ba50971461165d5780637f3a13d2146116315780637f42382c146115f75780638226c512146115a9578063830cf2a314611561578063891ed77d1461155c5780638ccd7b3b146114285780638da5cb5b146113f2578063910048fb146113b557806391d148541461135b57806397b9761b146112fd5780639a299f68146112425780639c88381914611092578063a0d6c20214611055578063a217fddf14611039578063a3638a8e14610fee578063a9f7e17e14610f96578063ac00f57f14610eef578063b1d9fb6314610ea4578063be9e9d8a14610e5b578063c213099514610e10578063c281daf014610cde578063c404723314610ca3578063c4d66de814610ad4578063cae51cd214610ab1578063d547741f14610a7b578063d833280014610a5d578063dcf2cf2f14610a11578063df75142f146108e6578063e224c20a1461076e578063e30c397814610738578063e5d31ced14610688578063eaeea73114610683578063ecf55f831461062e578063eecab57b14610603578063efb5f185146105c8578063f1cdbf761461056e578063f2fde38b146104e7578063f680d34a146104a85763fb10a85b1461033757600080fd5b346104a35760403660031901126104a357610350612855565b6024359061035c6130c7565b60018060a01b03168060005260056020526040600020600f8101836000528060205260ff60406000205416600481101561046b576001036104925783600052600382016020526040600020548254809103610481576103ba90612b90565b8255836000526020526040600020600360ff19825416179055604051906103e082612949565b6003825260208201904282528460005260066020526040600020925192600484101561046b5760016040936104246000805160206138ad8339815191529684612b9f565b5191015560098101600b81549283600052600a8101602052878560002055876000520160205281836000205561045a8154612b90565b9055815190600382526020820152a3005b634e487b7160e01b600052602160045260246000fd5b63042202b560e11b60005260046000fd5b637b9ea34f60e01b60005260046000fd5b600080fd5b346104a35760203660031901126104a3576004356000526006602052604080600020600160ff8254169101546104e083518093612900565b6020820152f35b346104a35760203660031901126104a357610500612855565b6105086130c7565b60008051602061390d83398151915280546001600160a01b0319166001600160a01b0392831690811790915560008051602061386d833981519152549091167f38d16b8cac22d99fc7c124b9cd0de2d3fa1faef420bfe791d8c362d765e22700600080a3005b346104a35760403660031901126104a35760206105be61058c612855565b6001600160a01b0381166000908152600584526040808220602435808452600f82018752919092205460ff169261374b565b6040519015158152f35b346104a35760203660031901126104a3576004356105e46130c7565b80156105ef57600755005b6362ec1e6f60e11b60005260045260246000fd5b346104a35760203660031901126104a3576020610626610621612855565b613059565b604051908152f35b346104a35760403660031901126104a3576001600160a01b0361064f612855565b166000526005602052600f604060002001602435600052602052602060ff604060002054166106816040518092612900565bf35b6128c4565b346104a35760403660031901126104a3576106a1612855565b6001600160a01b036106b1613107565b163314158061071e575b80610704575b806106eb575b6106da576106d89060243590612ffc565b005b63e6533a2760e01b60005260046000fd5b5033600052600260205260ff60406000205416156106c7565b506001600160a01b03610715613652565b163314156106c1565b506001600160a01b0361072f61319b565b163314156106bb565b346104a35760003660031901126104a35760008051602061390d833981519152546040516001600160a01b039091168152602090f35b346104a35760403660031901126104a357610787612855565b6024356001600160a01b0361079a613107565b16331415806108cc575b806108b2575b80610899575b6106da5760009060018060a01b0383169283600052600560205260406000209382600052600f850160205260ff60406000205416926107f18487838661374b565b610803575b6020856040519015158152f35b6000828152600560208181526040808420600c81018054968652600e90910183529084208590559490925290529293506108479261084090612b90565b90556136b3565b600481101561046b576002810361087657506004016108668154612b90565b90555b60206001828080806107f6565b600314610884575b50610869565b6008016108918154612b90565b90558061087e565b5033600052600260205260ff60406000205416156107b0565b506001600160a01b036108c3613652565b163314156107aa565b506001600160a01b036108dd61319b565b163314156107a4565b346104a35760403660031901126104a3576108ff612855565b6024359061090b6130c7565b60018060a01b031690816000526005602052604060002090600482019160058101548211610a005782548211156109ef576006810191600c8201945b8454828110156109c1576000528360205260406000205480610982575b5061096f8554612b90565b855561097b8654612b90565b8655610947565b80600052600f8401602052604060002060ff19815416905560005260078301602052600060408120558454600052836020526000604081205586610964565b507f4f8cdbb416ba06e9f0616bc1726c86125dee105768c52b77b79a69252c2ea05c602083604051908152a2005b630e86985f60e21b60005260046000fd5b6334cf41dd60e01b60005260046000fd5b346104a35760203660031901126104a3576001600160a01b03610a32612855565b16600090815260056020908152604080832060088101548452600a0182529182902054915191825290f35b346104a35760003660031901126104a3576020600154604051908152f35b346104a35760403660031901126104a3576106d8600435610a9a61286b565b90610aac610aa782612d47565b6132e9565b6133d5565b346104a35760203660031901126104a3576020610626610acf612855565b612faa565b346104a35760203660031901126104a357610aed612855565b6000805160206138ed833981519152549060ff8260401c1615916001600160401b03811680159081610c9b575b6001149081610c91575b159081610c88575b50610c775767ffffffffffffffff1981166001176000805160206138ed8339815191525582610c4a575b50610b5f61383e565b610b6761383e565b3315610c3457610b76336135e4565b610b7e61383e565b610b8661383e565b610b8e61383e565b60017f9b779b17422d0df92223018b32b4d1fa46e071723d6817e2486d003becc55f0055610bba61383e565b600080546001600160a01b0319166001600160a01b0392909216919091179055610be057005b60ff60401b196000805160206138ed83398151915254166000805160206138ed833981519152557fc7f505b2f371ae2175ee4913f4499e1f2633a7b5936321eed1cdaeb6115181d2602060405160018152a1005b631e4fbdf760e01b600052600060045260246000fd5b68ffffffffffffffffff191668010000000000000001176000805160206138ed8339815191525582610b56565b63f92ee8a960e01b60005260046000fd5b90501584610b2c565b303b159150610b24565b849150610b1a565b346104a35760203660031901126104a35733600052600560205260036040600020016004356000526020526020604060002054604051908152f35b346104a35760403660031901126104a357610cf7612855565b60243590610d036130c7565b60018060a01b0381166000526005602052604060002082600052600f810160205260ff6040600020541660048110158061046b57600282149182159081610e00575b50610def5761046b5715610da957600481019260005260078101602052604060002054908354809203610d98576106d893610d81600c93612b90565b90555b610d8d836136b3565b016108408154612b90565b633e714edf60e01b60005260046000fd5b6008810192600052600b8101602052604060002054908354809203610dde576106d893610dd7600c93612b90565b9055610d84565b633d40531f60e01b60005260046000fd5b6390cb8b6160e01b60005260046000fd5b9150506003600091141586610d45565b346104a35760403660031901126104a3576001600160a01b03610e31612855565b166000526005602052600a6040600020016024356000526020526020604060002054604051908152f35b346104a35760203660031901126104a3576001600160a01b03610e7c612855565b1660009081526005602090815260408083208054845260020182529182902054915191825290f35b346104a35760403660031901126104a3576001600160a01b03610ec5612855565b16600052600560205260066040600020016024356000526020526020604060002054604051908152f35b346104a35760603660031901126104a357610f08612855565b6024356044359160048310156104a357610f206130c7565b60018060a01b03166000526005602052600f60406000200181600052602052610f4d826040600020612b9f565b610f6360405192610f5d84612949565b83612b84565b602082019042825260005260066020526040600020915190600482101561046b57610f9060019284612b9f565b51910155005b346104a35760203660031901126104a3576001600160a01b03610fb7612855565b168060005260036020526040600020906000526005602052600c604060002001546000526020526020604060002054604051908152f35b346104a35760403660031901126104a3576001600160a01b0361100f612855565b16600052600560205260026040600020016024356000526020526020604060002054604051908152f35b346104a35760003660031901126104a357602060405160008152f35b346104a35760203660031901126104a3576001600160a01b03611076612855565b1660005260056020526020600860406000200154604051908152f35b346104a35760403660031901126104a3576110ab612855565b602435906001600160a01b036110bf613107565b1633141580611228575b8061120e575b806111f5575b6106da5760018060a01b038116918260005260056020526040600020916003830182600052806020526040600020548454809103610481576000526002840160205260006040812055826000526020526000604081205581600052600f8301602052604060002060ff19815416905561114d816131f7565b9283156111d15790816108406111639354612b90565b6040519261117084612949565b60008452602084019342855282600052600660205260406000209051600481101561046b576020956111a460019284612b9f565b519101556000805160206138ad833981519152604080516000815260001987820152a36040519015158152f35b505060209260008051602061388d83398151915284600754604051908152a36105be565b5033600052600260205260ff60406000205416156110d5565b506001600160a01b0361121f613652565b163314156110cf565b506001600160a01b0361123961319b565b163314156110c9565b346104a35760603660031901126104a35761125b612855565b60243560048110156104a357604435916112736130c7565b6001600160a01b031660009081526005602052604081209190600182036112b5575050600181015482116112a45755005b63698f39ad60e01b60005260046000fd5b50600281036112d05750600581015482116112a45760040155005b6003600091146112dc57005b600982015483116112ee575060080155005b63698f39ad60e01b8152600490fd5b346104a35760403660031901126104a357611316612855565b602435906113226130c7565b6001600160a01b03166000908152600560205260409020600d810154821161134a57600c0155005b631a5ffd7760e11b60005260046000fd5b346104a35760403660031901126104a35761137461286b565b6004356000526000805160206138cd83398151915260205260406000209060018060a01b0316600052602052602060ff604060002054166040519015158152f35b346104a35760403660031901126104a3576113da6113d1612855565b60243590612e73565b604080519283529015156020830152819081015b0390f35b346104a35760003660031901126104a35760008051602061386d833981519152546040516001600160a01b039091168152602090f35b346104a35760403660031901126104a357611441612855565b6024359061144d6130c7565b60018060a01b03168060005260056020526040600020600f8101836000528060205260ff60406000205416600481101561046b576001036104925783600052600382016020526040600020548254809103610481576114ab90612b90565b8255836000526020526040600020600260ff19825416179055604051906114d182612949565b6002825260208201904282528460005260066020526040600020925192600484101561046b5760016040936115156000805160206138ad8339815191529684612b9f565b519101556005810160078154928360005260068101602052878560002055876000520160205281836000205561154b8154612b90565b9055815190600282526020820152a3005b6129e8565b346104a35760403660031901126104a3576001600160a01b03611582612855565b16600052600360205260406000206024356000526020526020604060002054604051908152f35b346104a35760403660031901126104a3576001600160a01b036115ca612855565b16600052600560205260206040600020602435600052600381018252604060002054905414604051908152f35b346104a35760203660031901126104a3576001600160a01b03611618612855565b1660005260056020526020604060002054604051908152f35b346104a35760203660031901126104a35760043560005260046020526020604060002054604051908152f35b346104a35760003660031901126104a35760008051602061390d83398151915254336001600160a01b0390911603611698576106d8336135e4565b63118cdaa760e01b6000523360045260246000fd5b346104a35760203660031901126104a3576001600160a01b036116ce612855565b1660005260056020526020600460406000200154604051908152f35b346104a35760403660031901126104a357611703612855565b6024356001600160a01b03611716613107565b1633141580611c0e575b80611bf4575b80611bdb575b6106da5760009160609060018060a01b031690816000526005602052604060002092600f840194816000528560205260ff60406000205416600481101561046b5761186a57506113ee929394816000526020526040600020600160ff1982541617905580600186019485549687600052600281016020528260406000205582600052600381016020528760406000205580548814966117cb8154612b90565b9055816000526003602052600e604060002091600d8101928354600052602052846040600020558254926117fe84612b90565b905584600052016020526040600020556000805160206138ad8339815191526040805160018152896020820152a360015461183881612b90565b60015560005260046020526040600020555b604051938493151584526020840152606060408401526060830190612890565b929493906000526003810160205260406000205493815485811015611899575b5050506113ee9192935061184a565b90939194925060018101809111611bc5576118bb836118c09296949396612ae0565b612aae565b946007830192600b81019260028201906000815b84548111611baa5790818b94939260005283602052604060002054918215611b9e5761190b81611905859391612b90565b97612aed565b52600082815260208b81526040808320548c835281842054928c9052922054909160ff16600481101561046b576002811480611b91575b80611b78575b15611a665750506005870180548083106119ca575b50555b81600052896020526040600020600160ff1982541617905560405161198481612949565b600181526020810192428452600052600660205260406000209051600481101561046b576119c1936119b860019284612b9f565b51910155612b90565b929091926118d4565b89835b828110611a1f57507ff668a508bad90edc0098a18d4e9b14bba3369fca2d9aabbae828a3860ade58a982611a0386600295612ae0565b604080518881526020810193909352820152606090a38e61195d565b60009182526005602090815260408084208e855281852084865260060180845282862080548752600790920184529185208590558385529152919091558a906001016119cd565b90915060036000911480611b6b575b80611b54575b611a87575b5050611960565b6009880190815490818410611aa1575b5050558c80611a80565b8a90845b838110611af95750507ff668a508bad90edc0098a18d4e9b14bba3369fca2d9aabbae828a3860ade58a982611adc86600395612ae0565b604080518881526020810193909352820152606090a38e80611a97565b8192600192526005602052600b60408420018d84526005602052600a6040852001828552602052604084205484526020528260408120558c83526005602052600a604084200181845260205282604081205501908b91611aa5565b50818152600a880160205283604082205414611a7b565b5081600989015411611a75565b5082600052600689016020528460406000205414611948565b508260058a015411611942565b94506119c19150612b90565b50509794505090506113ee935085915055839291858061188a565b634e487b7160e01b600052601160045260246000fd5b5033600052600260205260ff604060002054161561172c565b506001600160a01b03611c05613652565b16331415611726565b506001600160a01b03611c1f61319b565b16331415611720565b346104a35760003660031901126104a357611c416130c7565b60008051602061390d83398151915280546001600160a01b031990811690915560008051602061386d833981519152805491821690556000906001600160a01b03167f8be0079c531659141344cd1fd0a4f28419497f9722a3daafe3b4186f6b6457e08280a3005b346104a35760603660031901126104a357611cc2612855565b602435906044359060006080604051611cda8161297a565b611ce2612e45565b8152611cec612e45565b6020820152611cf9612e45565b6040820152826060820152015260018060a01b031660005260056020526040600020600181015491838311600014611faa5782811015611f9b57611d3d8482612ae0565b60018101809111611bc5575b905b60058301549185831115611f945782821015611f8557611d6b8683612ae0565b60018101809111611bc5575b60098501549287841115611f7d578784821015611f6d57611d9791612ae0565b60018101809111611bc5575b611dac83612aae565b90611db683612aae565b92611dc082612aae565b94600289018b60005b838110611f41575050505060008a60068a01915b838110611f1557505050506000600a8801905b828110611eea57611eb38a8a8a611ed98b8b8b8b86549760405198611e148a612995565b89526020890152604088015260048601549460405195611e3387612995565b86526020860152604085015260088501549160405192611e5284612995565b835260208301526040820152611ec6600d600c8601549501549360405196611e798861297a565b875260208701908152604087019283526060870195865260808701948552604051978897602089525160a060208a015260c0890190612a24565b9051878203601f19016040890152612a24565b9051858203601f19016060870152612a24565b915160808401525160a08301520390f35b80611ef76001928d612e66565b60005282602052604060002054611f0e8289612aed565b5201611df0565b611f2181600193612e66565b60005282602052604060002054611f388289612aed565b52018b90611ddd565b611f4d81600193612e66565b60005282602052604060002054611f648289612aed565b52018c90611dc9565b611f78915084612ae0565b611da3565b506000611da3565b611f8f8684612ae0565b611d77565b6000611d77565b611fa58484612ae0565b611d49565b600090611d4b565b346104a35760203660031901126104a3576001600160a01b03611fd3612855565b1660009081526005602090815260408083206004810154845260060182529182902054915191825290f35b346104a35760203660031901126104a357602061062661201c612855565b612dd6565b346104a35760003660031901126104a3576020600754604051908152f35b346104a35760203660031901126104a357336000526005602052600f604060002001600435600052602052602060ff604060002054166106816040518092612900565b346104a35760403660031901126104a35761209b612855565b602435906001600160401b0382116104a357366023830112156104a3578160040135916120c7836129d1565b926120d560405194856129b0565b8084526024602085019160051b830101913683116104a357602401905b82821061221157506001600160a01b03915061210e9050613475565b163303612200576001600160a01b03811660009081526005602052604081206003810193600f82019391925b81518110156121f55761214d8183612aed565b51156121ed5761215d8183612aed565b516000528460205260ff60406000205416600481101561046b576003146121ed576121888183612aed565b516000528460205260ff6040600020541690600482101561046b5760018092036121e8576121b68184612aed565b51600052866020526040600020548554036121e8576121df6121d88285612aed565b51856134cc565b50505b0161213a565b6121e2565b6001906121e2565b602060405160018152f35b635410c05f60e11b60005260046000fd5b81358152602091820191016120f2565b346104a35760203660031901126104a35760206106266001600160a01b03612247612855565b168060005260058352600160406000200154906000526005835260406000205490612ae0565b346104a35760203660031901126104a3576001600160a01b0361228e612855565b166000526002602052602060ff604060002054166040519015158152f35b346104a35760203660031901126104a35760206106266122ca612855565b612d68565b346104a35760403660031901126104a3576122e8612855565b7fad857fa38c9319cb80848f1ef2f924383b90297eb5d71755738ff037d100faa16020612313612881565b9261231c6130c7565b6001600160a01b031660008181526002835260409020805460ff191660ff86151516179055926040519015158152a2005b346104a35760203660031901126104a3576001600160a01b0361236e612855565b1660005260056020526020600160406000200154604051908152f35b346104a35760003660031901126104a3576000546040516001600160a01b039091168152602090f35b346104a35760203660031901126104a3576001600160a01b036123d4612855565b1660005260056020526020600d60406000200154604051908152f35b346104a35760403660031901126104a35761240961286b565b336001600160a01b03821603612425576106d8906004356133d5565b63334bd91960e11b60005260046000fd5b346104a35760403660031901126104a35761244f612855565b6001600160a01b031660009081526005602090815260408083206024358452600f81018352818420546003820184528285205460078301855283862054600b8401865284872054600e85019096529390952054939460ff9091169391929091600485101561046b5761010095600186149283612531575b600287149485612523575b600388149687612515575b506124ea6040518099612900565b6020880152604087015260608601526080850152151560a0840152151560c0830152151560e0820152f35b6008015483149650896124dc565b6004870154821495506124d1565b8554851493506124c6565b61290d565b346104a35760403660031901126104a3576106d860043561256061286b565b9061256d610aa782612d47565b613333565b346104a35760203660031901126104a3576020610626600435612d47565b346104a35760403660031901126104a3576125a9612855565b6001600160a01b036125b9613107565b1633141580612604575b806125eb575b6125da576113da9060243590612bb7565b6370f64de560e01b60005260046000fd5b5033600052600260205260ff60406000205416156125c9565b506001600160a01b0361261561319b565b163314156125c3565b346104a35760203660031901126104a3576000602060405161263f81612949565b82815201526004356000526006602052604080600020600182519161266383612949565b61267160ff82541684612b84565b0154602082019081526126878351809351612900565b516020820152f35b346104a35760403660031901126104a3576113ee6126b1602435600435612b01565b604051918291602083526020830190612890565b346104a35760403660031901126104a3576004356001600160401b0381116104a357366023820112156104a35780600401356001600160401b0381116104a3576024820191602436918360051b0101116104a357612721612881565b6127296130c7565b8015159060005b83811061273957005b6001906001600160a01b0361275761275283888a612a74565b612a9a565b16600052600260205261277a8360406000209060ff801983541691151516179055565b818060a01b0361278e61275283888a612a74565b167fad857fa38c9319cb80848f1ef2f924383b90297eb5d71755738ff037d100faa16020604051878152a201612730565b346104a35760203660031901126104a3576127d8612855565b6127e06130c7565b600080546001600160a01b0319166001600160a01b0392909216919091179055005b346104a35760203660031901126104a3576004359063ffffffff60e01b82168092036104a357602091637965db0b60e01b8114908115612844575b5015158152f35b6301ffc9a760e01b1490508361283d565b600435906001600160a01b03821682036104a357565b602435906001600160a01b03821682036104a357565b6024359081151582036104a357565b906020808351928381520192019060005b8181106128ae5750505090565b82518452602093840193909201916001016128a1565b346104a35760203660031901126104a3576128dd612855565b60018060a01b031660005260056020526020600960406000200154604051908152f35b90600482101561046b5752565b346104a35760203660031901126104a357612926612855565b60018060a01b031660005260056020526020600c60406000200154604051908152f35b604081019081106001600160401b0382111761296457604052565b634e487b7160e01b600052604160045260246000fd5b60a081019081106001600160401b0382111761296457604052565b606081019081106001600160401b0382111761296457604052565b90601f801991011681019081106001600160401b0382111761296457604052565b6001600160401b0381116129645760051b60200190565b346104a35760203660031901126104a357612a01612855565b60018060a01b031660005260056020526020600560406000200154604051908152f35b60206080604060608501938051865283810151848701520151936060604082015284518094520192019060005b818110612a5e5750505090565b8251845260209384019390920191600101612a51565b9190811015612a845760051b0190565b634e487b7160e01b600052603260045260246000fd5b356001600160a01b03811681036104a35790565b90612ab8826129d1565b612ac560405191826129b0565b8281528092612ad6601f19916129d1565b0190602036910137565b91908203918211611bc557565b8051821015612a845760209160051b010190565b9060015480831015612b6757808211612b5f575b50612b236118bb8383612ae0565b91805b828110612b335750505090565b806001916000526004602052604060002054612b58612b528584612ae0565b87612aed565b5201612b26565b905038612b15565b505050604051612b786020826129b0565b60008152600036813790565b600482101561046b5752565b6000198114611bc55760010190565b90600481101561046b5760ff80198354169116179055565b9160009160018060a01b038416806000526005602052604060002094600f860190836000528160205260ff60406000205416600481101561046b57600214612d2a57836000528160205260ff60406000205416600481101561046b57600103612d1d578360005260038701602052604060002054875403612d1d57612c3b906131f7565b948515612cfd5750612c4d8654612b90565b8655826000526020526040600020600260ff19825416179055604051612c7281612949565b60028152602081014281528360005260066020526040600020915190600482101561046b57612ca360019284612b9f565b51910155600585016007815496876000526006810160205284604060002055846000520160205285604060002055612cdb8154612b90565b90556000805160206138ad8339815191526040805160028152876020820152a3565b95505060008051602061388d8339815191526020600754604051908152a3565b5060009550859450505050565b505050600792506000939193520160205260406000205490600190565b6000526000805160206138cd83398151915260205260016040600020015490565b6001600160a01b0316600081815260056020526040902060090154908115612db6576000526005602052600a604060002001906000198101908111611bc55760005260205260406000205490565b6000526005602052600a6040600020019060005260205260406000205490565b6001600160a01b031660008181526005602081905260409091200154908115612e255760005260056020526006604060002001906000198101908111611bc55760005260205260406000205490565b600052600560205260066040600020019060005260205260406000205490565b60405190612e5282612995565b606060408360008152600060208201520152565b91908201809211611bc557565b906001600160a01b03612e84613107565b1633141580612f90575b80612f76575b80612f5d575b612f4c5760018060a01b03821660005260056020526040600020600f8101826000528060205260ff60406000205416600481101561046b57600314612f33578260005260205260ff60406000205416600481101561046b57600103612f28578160005260038101602052604060002054905403612f1e57612f1a916134cc565b9091565b5050600090600090565b505050600090600090565b5090600b92506000520160205260406000205490600090565b631e3f968f60e01b60005260046000fd5b5033600052600260205260ff6040600020541615612e9a565b506001600160a01b03612f87613652565b16331415612e94565b506001600160a01b03612fa1613475565b16331415612e8e565b6001600160a01b03166000818152600560205260409020600c0154908115612ff55760005260036020526040600020906000198101908111611bc55760005260205260406000205490565b5050600090565b60018060a01b0381166000526005602052600f604060002001826000528060205260ff60406000205416600481101561046b576001036130545761305292600052602052604060002060ff1981541690556136b3565b565b505050565b6001600160a01b03166000818152600560205260409020600101549081156130a75760005260056020526002604060002001906000198101908111611bc55760005260205260406000205490565b600052600560205260026040600020019060005260205260406000205490565b60008051602061386d833981519152546001600160a01b0316330361169857565b908160209103126104a357516001600160a01b03811681036104a35790565b600054604051631bae711d60e21b8152602060048201819052600d60248301526c21b7b739b2b739bab9a6b0b4b760991b60448301529091829060649082906001600160a01b03165afa90811561318f57600091613163575090565b613185915060203d602011613188575b61317d81836129b0565b8101906130e8565b90565b503d613173565b6040513d6000823e3d90fd5b600054604051631bae711d60e21b8152602060048201819052600d60248301526c4372656174696f6e506861736560981b60448301529091829060649082906001600160a01b03165afa90811561318f57600091613163575090565b60009160075480156000146132e357506064915b6001600160a01b03166000818152600560209081526040808320805484526002019091528120549093919291905b80151590816132b0575b50806132a7575b156132975782600052600560205260406000206132678154612b90565b90556000838152600560209081526040808320805484526002019091529020549361329190612b90565b93613239565b915091106132a157565b60019150565b5080841061324a565b9050836000526005602052600f6040600020019060005260205260ff60406000205416600481101561046b571538613243565b9161320b565b60008181526000805160206138cd8339815191526020908152604080832033845290915290205460ff161561331b5750565b63e2517d3f60e01b6000523360045260245260446000fd5b60008181526000805160206138cd833981519152602090815260408083206001600160a01b038616845290915290205460ff16612ff55760008181526000805160206138cd833981519152602090815260408083206001600160a01b0395909516808452949091528120805460ff19166001179055339291907f2f8788117e7eff1d82e926ec794901d17c78024a50270940304540a733656f0d9080a4600190565b60008181526000805160206138cd833981519152602090815260408083206001600160a01b038616845290915290205460ff1615612ff55760008181526000805160206138cd833981519152602090815260408083206001600160a01b0395909516808452949091528120805460ff19169055339291907ff6391f5c32d9c69d2a47ea670b442974b53935d1edc7fd64eb21e047a839171b9080a4600190565b600054604051631bae711d60e21b8152602060048201819052600860248301526749646c656e65737360c01b60448301529091829060649082906001600160a01b03165afa90811561318f57600091613163575090565b90916000916134da816131f7565b9283156135b8575060018060a01b0316806000526005602052600f604060002001846000526020526040600020600360ff1982541617905560405161351e81612949565b60038152602081014281528560005260066020526040600020915190600482101561046b5761354f60019284612b9f565b51910155806000526005602052604060002061356b8154612b90565b90556000818152600560208181526040808420600981018054808752600a830185528387208b9055998652600b909101835290842088905593909252905280546135b490612b90565b9055565b6007546040519081529094916001600160a01b03169060008051602061388d83398151915290602090a3565b60008051602061390d83398151915280546001600160a01b031990811690915560008051602061386d83398151915280549182166001600160a01b0393841690811790915591167f8be0079c531659141344cd1fd0a4f28419497f9722a3daafe3b4186f6b6457e0600080a3565b600054604051631bae711d60e21b815260206004820181905260126024830152712a3930b739b0b1ba34b7b726b0b730b3b2b960711b60448301529091829060649082906001600160a01b03165afa90811561318f57600091613163575090565b6001600160a01b03166000818152600560205260409020600c810192600d8201929091905b8454845481101561371e578160005260036020526040600020816000526020526040600020548015159081613726575b501561371e5761371790612b90565b85556136d8565b505050915050565b9050600052600f830160205260ff60406000205416600481101561046b571538613708565b926004811015908161046b5780158015613830575b6138265760009161381257600281036137f157505060048201548160005260078301602052604060002054145b156137e957600052600e8101602052600c6040600020549101541490816137be575b506137b957600090565b600190565b6001600160a01b03166000908152600560205260409020600c810154600d90910154119050386137af565b505050600090565b60030361378d576040600884015491838152600b850160205220541461378d565b634e487b7160e01b82526021600452602482fd5b5050505050600090565b506000915060018114613760565b60ff6000805160206138ed8339815191525460401c161561385b57565b631afcd79f60e31b60005260046000fdfe9016d09d72d40fdae2fd8ceac6b6234c7706214fd39c1cd1e609a0528c199300f5d63ae8520cf01bdaf195a4b38d13c6752858e8d4e3253e9331a613b30c6056ae79898352f9a690e2c3c045facb9493b7c3f2b7beb2888e794c6a30d1f4550502dd7bc7dec4dceedda775e58dd541e08a116c6c53815c0bd028192f7b626800f0c57e16840df040f15088dc2f81fe391c3923bec73e23a9662efc9c229c6a00237e158222e3e6968b72b9db0d8043aacf074ad9f650f0d1606b4d82ee432c00a26469706673582212209729d42de4fbb5b0a76a077c8d34043170205a54f3265c6826e33092a3a44d4f64736f6c634300081c0033",
  "linkReferences": {},
  "deployedLinkReferences": {}
}