{
  "_format": "hh-sol-artifact-1",
  "contractName": "Queues",
  "sourceName": "contracts/Queues.sol",
  "abi": [
    {
      "inputs": [],
      "name": "AccessControlBadConfirmation",
      "type": "error"
    },
    {
      "inputs": [
        {
          "internalType": "address",
          "name": "account",
          "type": "address"
        },
        {
          "internalType": "bytes32",
          "name": "neededRole",
          "type": "bytes32"
        }
      ],
      "name": "AccessControlUnauthorizedAccount",
      "type": "error"
    },
    {
      "inputs": [],
      "name": "FinalizedCountExceedsIssued",
      "type": "error"
    },
    {
      "inputs": [],
      "name": "InvalidInitialization",
      "type": "error"
    },
    {
      "inputs": [
        {
          "internalType": "uint256",
          "name": "number",
          "type": "uint256"
        }
      ],
      "name": "InvalidNumber",
      "type": "error"
    },
    {
      "inputs": [],
      "name": "NotConsensus",
      "type": "error"
    },
    {
      "inputs": [],
      "name": "NotConsensusOrIdleness",
      "type": "error"
    },
    {
      "inputs": [],
      "name": "NotConsensusOrIdlenessOrTransactions",
      "type": "error"
    },
    {
      "inputs": [],
      "name": "NotConsensusOrTransactions",
      "type": "error"
    },
    {
      "inputs": [],
      "name": "NotInitializing",
      "type": "error"
    },
    {
      "inputs": [
        {
          "internalType": "address",
          "name": "owner",
          "type": "address"
        }
      ],
      "name": "OwnableInvalidOwner",
      "type": "error"
    },
    {
      "inputs": [
        {
          "internalType": "address",
          "name": "account",
          "type": "address"
        }
      ],
      "name": "OwnableUnauthorizedAccount",
      "type": "error"
    },
    {
      "inputs": [],
      "name": "QueueHeadExceedsTail",
      "type": "error"
    },
    {
      "inputs": [],
      "name": "ReentrancyGuardReentrantCall",
      "type": "error"
    },
    {
      "inputs": [],
      "name": "TransactionNotAcceptedNorUndetermined",
      "type": "error"
    },
    {
      "inputs": [],
      "name": "TransactionNotAtAcceptedQueueHead",
      "type": "error"
    },
    {
      "inputs": [],
      "name": "TransactionNotAtPendingQueueHead",
      "type": "error"
    },
    {
      "inputs": [],
      "name": "TransactionNotAtUndeterminedQueueHead",
      "type": "error"
    },
    {
      "inputs": [],
      "name": "TransactionNotInPendingQueue",
      "type": "error"
    },
    {
      "anonymous": false,
      "inputs": [
        {
          "indexed": true,
          "internalType": "address",
          "name": "caller",
          "type": "address"
        },
        {
          "indexed": false,
          "internalType": "bool",
          "name": "authorized",
          "type": "bool"
        }
      ],
      "name": "AuthorizedCallerUpdated",
      "type": "event"
    },
    {
      "anonymous": false,
      "inputs": [
        {
          "indexed": true,
          "internalType": "address",
          "name": "genConsensus",
          "type": "address"
        }
      ],
      "name": "GenConsensusSet",
      "type": "event"
    },
    {
      "anonymous": false,
      "inputs": [
        {
          "indexed": false,
          "internalType": "uint64",
          "name": "version",
          "type": "uint64"
        }
      ],
      "name": "Initialized",
      "type": "event"
    },
    {
      "anonymous": false,
      "inputs": [
        {
          "indexed": true,
          "internalType": "address",
          "name": "recipient",
          "type": "address"
        },
        {
          "indexed": true,
          "internalType": "bytes32",
          "name": "txId",
          "type": "bytes32"
        },
        {
          "indexed": false,
          "internalType": "uint256",
          "name": "maxNumOfIterations",
          "type": "uint256"
        }
      ],
      "name": "MaxNumOfIterationsInPendingQueueReached",
      "type": "event"
    },
    {
      "anonymous": false,
      "inputs": [
        {
          "indexed": true,
          "internalType": "address",
          "name": "previousOwner",
          "type": "address"
        },
        {
          "indexed": true,
          "internalType": "address",
          "name": "newOwner",
          "type": "address"
        }
      ],
      "name": "OwnershipTransferStarted",
      "type": "event"
    },
    {
      "anonymous": false,
      "inputs": [
        {
          "indexed": true,
          "internalType": "address",
          "name": "previousOwner",
          "type": "address"
        },
        {
          "indexed": true,
          "internalType": "address",
          "name": "newOwner",
          "type": "address"
        }
      ],
      "name": "OwnershipTransferred",
      "type": "event"
    },
    {
      "anonymous": false,
      "inputs": [
        {
          "indexed": true,
          "internalType": "address",
          "name": "recipient",
          "type": "address"
        }
      ],
      "name": "PendingQueueUnblocked",
      "type": "event"
    },
    {
      "anonymous": false,
      "inputs": [
        {
          "indexed": true,
          "internalType": "address",
          "name": "recipient",
          "type": "address"
        },
        {
          "indexed": true,
          "internalType": "bytes32",
          "name": "txId",
          "type": "bytes32"
        },
        {
          "indexed": false,
          "internalType": "enum IQueues.QueueType",
          "name": "queueType",
          "type": "uint8"
        },
        {
          "indexed": false,
          "internalType": "uint256",
          "name": "slot",
          "type": "uint256"
        }
      ],
      "name": "QueueOperationPerformed",
      "type": "event"
    },
    {
      "anonymous": false,
      "inputs": [
        {
          "indexed": true,
          "internalType": "bytes32",
          "name": "role",
          "type": "bytes32"
        },
        {
          "indexed": true,
          "internalType": "bytes32",
          "name": "previousAdminRole",
          "type": "bytes32"
        },
        {
          "indexed": true,
          "internalType": "bytes32",
          "name": "newAdminRole",
          "type": "bytes32"
        }
      ],
      "name": "RoleAdminChanged",
      "type": "event"
    },
    {
      "anonymous": false,
      "inputs": [
        {
          "indexed": true,
          "internalType": "bytes32",
          "name": "role",
          "type": "bytes32"
        },
        {
          "indexed": true,
          "internalType": "address",
          "name": "account",
          "type": "address"
        },
        {
          "indexed": true,
          "internalType": "address",
          "name": "sender",
          "type": "address"
        }
      ],
      "name": "RoleGranted",
      "type": "event"
    },
    {
      "anonymous": false,
      "inputs": [
        {
          "indexed": true,
          "internalType": "bytes32",
          "name": "role",
          "type": "bytes32"
        },
        {
          "indexed": true,
          "internalType": "address",
          "name": "account",
          "type": "address"
        },
        {
          "indexed": true,
          "internalType": "address",
          "name": "sender",
          "type": "address"
        }
      ],
      "name": "RoleRevoked",
      "type": "event"
    },
    {
      "anonymous": false,
      "inputs": [
        {
          "indexed": true,
          "internalType": "address",
          "name": "recipient",
          "type": "address"
        },
        {
          "indexed": true,
          "internalType": "enum IQueues.QueueType",
          "name": "queueType",
          "type": "uint8"
        },
        {
          "indexed": false,
          "internalType": "uint256",
          "name": "start",
          "type": "uint256"
        },
        {
          "indexed": false,
          "internalType": "uint256",
          "name": "end",
          "type": "uint256"
        },
        {
          "indexed": false,
          "internalType": "uint256",
          "name": "count",
          "type": "uint256"
        }
      ],
      "name": "TransactionsBatchDeletedFromQueue",
      "type": "event"
    },
    {
      "inputs": [],
      "name": "DEFAULT_ADMIN_ROLE",
      "outputs": [
        {
          "internalType": "bytes32",
          "name": "",
          "type": "bytes32"
        }
      ],
      "stateMutability": "view",
      "type": "function"
    },
    {
      "inputs": [],
      "name": "acceptOwnership",
      "outputs": [],
      "stateMutability": "nonpayable",
      "type": "function"
    },
    {
      "inputs": [
        {
          "internalType": "address",
          "name": "recipient",
          "type": "address"
        },
        {
          "internalType": "bytes32[]",
          "name": "txIds",
          "type": "bytes32[]"
        }
      ],
      "name": "addBatchOfTransactionsToUndeterminedQueue",
      "outputs": [
        {
          "internalType": "bool",
          "name": "success",
          "type": "bool"
        }
      ],
      "stateMutability": "nonpayable",
      "type": "function"
    },
    {
      "inputs": [
        {
          "internalType": "address",
          "name": "recipient",
          "type": "address"
        },
        {
          "internalType": "bytes32",
          "name": "txId",
          "type": "bytes32"
        }
      ],
      "name": "addTransactionToAcceptedQueue",
      "outputs": [
        {
          "internalType": "uint256",
          "name": "slot",
          "type": "uint256"
        },
        {
          "internalType": "bool",
          "name": "success",
          "type": "bool"
        }
      ],
      "stateMutability": "nonpayable",
      "type": "function"
    },
    {
      "inputs": [
        {
          "internalType": "address",
          "name": "recipient",
          "type": "address"
        },
        {
          "internalType": "bytes32",
          "name": "txId",
          "type": "bytes32"
        }
      ],
      "name": "addTransactionToFinalizedQueue",
      "outputs": [
        {
          "internalType": "bool",
          "name": "success",
          "type": "bool"
        }
      ],
      "stateMutability": "nonpayable",
      "type": "function"
    },
    {
      "inputs": [
        {
          "internalType": "address",
          "name": "recipient",
          "type": "address"
        },
        {
          "internalType": "bytes32",
          "name": "txId",
          "type": "bytes32"
        }
      ],
      "name": "addTransactionToPendingQueue",
      "outputs": [
        {
          "internalType": "bool",
          "name": "readyToActivate",
          "type": "bool"
        },
        {
          "internalType": "uint256",
          "name": "slot",
          "type": "uint256"
        },
        {
          "internalType": "bytes32[]",
          "name": "txsForRecomputation",
          "type": "bytes32[]"
        }
      ],
      "stateMutability": "nonpayable",
      "type": "function"
    },
    {
      "inputs": [
        {
          "internalType": "address",
          "name": "recipient",
          "type": "address"
        },
        {
          "internalType": "bytes32",
          "name": "txId",
          "type": "bytes32"
        }
      ],
      "name": "addTransactionToUndeterminedQueue",
      "outputs": [
        {
          "internalType": "uint256",
          "name": "slot",
          "type": "uint256"
        },
        {
          "internalType": "bool",
          "name": "success",
          "type": "bool"
        }
      ],
      "stateMutability": "nonpayable",
      "type": "function"
    },
    {
      "inputs": [],
      "name": "addressManager",
      "outputs": [
        {
          "internalType": "contract IAddressManager",
          "name": "",
          "type": "address"
        }
      ],
      "stateMutability": "view",
      "type": "function"
    },
    {
      "inputs": [
        {
          "internalType": "address",
          "name": "recipient",
          "type": "address"
        },
        {
          "internalType": "bytes32",
          "name": "txId",
          "type": "bytes32"
        }
      ],
      "name": "adminFinalize",
      "outputs": [],
      "stateMutability": "nonpayable",
      "type": "function"
    },
    {
      "inputs": [
        {
          "internalType": "address",
          "name": "recipient",
          "type": "address"
        },
        {
          "internalType": "bytes32",
          "name": "txId",
          "type": "bytes32"
        }
      ],
      "name": "adminGetTransactionQueueInfo",
      "outputs": [
        {
          "internalType": "enum IQueues.QueueType",
          "name": "currentQueueType",
          "type": "uint8"
        },
        {
          "internalType": "uint256",
          "name": "pendingSlot",
          "type": "uint256"
        },
        {
          "internalType": "uint256",
          "name": "acceptedSlot",
          "type": "uint256"
        },
        {
          "internalType": "uint256",
          "name": "undeterminedSlot",
          "type": "uint256"
        },
        {
          "internalType": "uint256",
          "name": "finalizedSlot",
          "type": "uint256"
        },
        {
          "internalType": "bool",
          "name": "isAtPendingHead",
          "type": "bool"
        },
        {
          "internalType": "bool",
          "name": "isAtAcceptedHead",
          "type": "bool"
        },
        {
          "internalType": "bool",
          "name": "isAtUndeterminedHead",
          "type": "bool"
        }
      ],
      "stateMutability": "view",
      "type": "function"
    },
    {
      "inputs": [
        {
          "internalType": "address",
          "name": "recipient",
          "type": "address"
        },
        {
          "internalType": "bytes32",
          "name": "txId",
          "type": "bytes32"
        }
      ],
      "name": "adminMoveToAccepted",
      "outputs": [],
      "stateMutability": "nonpayable",
      "type": "function"
    },
    {
      "inputs": [
        {
          "internalType": "address",
          "name": "recipient",
          "type": "address"
        },
        {
          "internalType": "bytes32",
          "name": "txId",
          "type": "bytes32"
        }
      ],
      "name": "adminMoveToUndetermined",
      "outputs": [],
      "stateMutability": "nonpayable",
      "type": "function"
    },
    {
      "inputs": [
        {
          "internalType": "address",
          "name": "recipient",
          "type": "address"
        },
        {
          "internalType": "uint256",
          "name": "newFinalizedCount",
          "type": "uint256"
        }
      ],
      "name": "adminSetFinalizedCount",
      "outputs": [],
      "stateMutability": "nonpayable",
      "type": "function"
    },
    {
      "inputs": [
        {
          "internalType": "address",
          "name": "recipient",
          "type": "address"
        },
        {
          "internalType": "enum IQueues.QueueType",
          "name": "queueType",
          "type": "uint8"
        },
        {
          "internalType": "uint256",
          "name": "newHead",
          "type": "uint256"
        }
      ],
      "name": "adminSetQueueHead",
      "outputs": [],
      "stateMutability": "nonpayable",
      "type": "function"
    },
    {
      "inputs": [
        {
          "internalType": "address",
          "name": "recipient",
          "type": "address"
        },
        {
          "internalType": "bytes32",
          "name": "txId",
          "type": "bytes32"
        },
        {
          "internalType": "enum IQueues.QueueType",
          "name": "queueType",
          "type": "uint8"
        }
      ],
      "name": "adminSetTransactionQueueType",
      "outputs": [],
      "stateMutability": "nonpayable",
      "type": "function"
    },
    {
      "inputs": [
        {
          "internalType": "address",
          "name": "",
          "type": "address"
        }
      ],
      "name": "authorizedCallers",
      "outputs": [
        {
          "internalType": "bool",
          "name": "",
          "type": "bool"
        }
      ],
      "stateMutability": "view",
      "type": "function"
    },
    {
      "inputs": [
        {
          "internalType": "address",
          "name": "recipient",
          "type": "address"
        }
      ],
      "name": "getAcceptedHead",
      "outputs": [
        {
          "internalType": "uint256",
          "name": "",
          "type": "uint256"
        }
      ],
      "stateMutability": "view",
      "type": "function"
    },
    {
      "inputs": [
        {
          "internalType": "address",
          "name": "recipient",
          "type": "address"
        }
      ],
      "name": "getAcceptedHeadTxId",
      "outputs": [
        {
          "internalType": "bytes32",
          "name": "",
          "type": "bytes32"
        }
      ],
      "stateMutability": "view",
      "type": "function"
    },
    {
      "inputs": [
        {
          "internalType": "address",
          "name": "recipient",
          "type": "address"
        }
      ],
      "name": "getAcceptedTail",
      "outputs": [
        {
          "internalType": "uint256",
          "name": "",
          "type": "uint256"
        }
      ],
      "stateMutability": "view",
      "type": "function"
    },
    {
      "inputs": [
        {
          "internalType": "address",
          "name": "recipient",
          "type": "address"
        }
      ],
      "name": "getAcceptedTailTxId",
      "outputs": [
        {
          "internalType": "bytes32",
          "name": "",
          "type": "bytes32"
        }
      ],
      "stateMutability": "view",
      "type": "function"
    },
    {
      "inputs": [
        {
          "internalType": "address",
          "name": "recipient",
          "type": "address"
        }
      ],
      "name": "getAcceptedTxCount",
      "outputs": [
        {
          "internalType": "uint256",
          "name": "",
          "type": "uint256"
        }
      ],
      "stateMutability": "view",
      "type": "function"
    },
    {
      "inputs": [
        {
          "internalType": "address",
          "name": "recipient",
          "type": "address"
        },
        {
          "internalType": "uint256",
          "name": "slot",
          "type": "uint256"
        }
      ],
      "name": "getAcceptedTxId",
      "outputs": [
        {
          "internalType": "bytes32",
          "name": "",
          "type": "bytes32"
        }
      ],
      "stateMutability": "view",
      "type": "function"
    },
    {
      "inputs": [
        {
          "internalType": "address",
          "name": "recipient",
          "type": "address"
        }
      ],
      "name": "getFinalizedHead",
      "outputs": [
        {
          "internalType": "uint256",
          "name": "",
          "type": "uint256"
        }
      ],
      "stateMutability": "view",
      "type": "function"
    },
    {
      "inputs": [
        {
          "internalType": "address",
          "name": "recipient",
          "type": "address"
        }
      ],
      "name": "getFinalizedHeadTxId",
      "outputs": [
        {
          "internalType": "bytes32",
          "name": "",
          "type": "bytes32"
        }
      ],
      "stateMutability": "view",
      "type": "function"
    },
    {
      "inputs": [
        {
          "internalType": "address",
          "name": "recipient",
          "type": "address"
        }
      ],
      "name": "getFinalizedTxCount",
      "outputs": [
        {
          "internalType": "uint256",
          "name": "",
          "type": "uint256"
        }
      ],
      "stateMutability": "view",
      "type": "function"
    },
    {
      "inputs": [
        {
          "internalType": "address",
          "name": "recipient",
          "type": "address"
        },
        {
          "internalType": "uint256",
          "name": "slot",
          "type": "uint256"
        }
      ],
      "name": "getFinalizedTxId",
      "outputs": [
        {
          "internalType": "bytes32",
          "name": "",
          "type": "bytes32"
        }
      ],
      "stateMutability": "view",
      "type": "function"
    },
    {
      "inputs": [
        {
          "internalType": "address",
          "name": "recipient",
          "type": "address"
        }
      ],
      "name": "getIssuedTxCount",
      "outputs": [
        {
          "internalType": "uint256",
          "name": "",
          "type": "uint256"
        }
      ],
      "stateMutability": "view",
      "type": "function"
    },
    {
      "inputs": [
        {
          "internalType": "address",
          "name": "recipient",
          "type": "address"
        }
      ],
      "name": "getLastFinalizedTxId",
      "outputs": [
        {
          "internalType": "bytes32",
          "name": "",
          "type": "bytes32"
        }
      ],
      "stateMutability": "view",
      "type": "function"
    },
    {
      "inputs": [
        {
          "internalType": "bytes32",
          "name": "txId",
          "type": "bytes32"
        }
      ],
      "name": "getLastQueueModification",
      "outputs": [
        {
          "components": [
            {
              "internalType": "enum IQueues.QueueType",
              "name": "lastQueueType",
              "type": "uint8"
            },
            {
              "internalType": "uint256",
              "name": "lastQueueTimestamp",
              "type": "uint256"
            }
          ],
          "internalType": "struct IQueues.LastQueueModification",
          "name": "",
          "type": "tuple"
        }
      ],
      "stateMutability": "view",
      "type": "function"
    },
    {
      "inputs": [
        {
          "internalType": "address",
          "name": "recipient",
          "type": "address"
        }
      ],
      "name": "getPendingHead",
      "outputs": [
        {
          "internalType": "uint256",
          "name": "",
          "type": "uint256"
        }
      ],
      "stateMutability": "view",
      "type": "function"
    },
    {
      "inputs": [
        {
          "internalType": "address",
          "name": "recipient",
          "type": "address"
        }
      ],
      "name": "getPendingHeadTxId",
      "outputs": [
        {
          "internalType": "bytes32",
          "name": "",
          "type": "bytes32"
        }
      ],
      "stateMutability": "view",
      "type": "function"
    },
    {
      "inputs": [
        {
          "internalType": "address",
          "name": "recipient",
          "type": "address"
        }
      ],
      "name": "getPendingTail",
      "outputs": [
        {
          "internalType": "uint256",
          "name": "",
          "type": "uint256"
        }
      ],
      "stateMutability": "view",
      "type": "function"
    },
    {
      "inputs": [
        {
          "internalType": "address",
          "name": "recipient",
          "type": "address"
        }
      ],
      "name": "getPendingTailTxId",
      "outputs": [
        {
          "internalType": "bytes32",
          "name": "",
          "type": "bytes32"
        }
      ],
      "stateMutability": "view",
      "type": "function"
    },
    {
      "inputs": [
        {
          "internalType": "address",
          "name": "recipient",
          "type": "address"
        }
      ],
      "name": "getPendingTxCount",
      "outputs": [
        {
          "internalType": "uint256",
          "name": "",
          "type": "uint256"
        }
      ],
      "stateMutability": "view",
      "type": "function"
    },
    {
      "inputs": [
        {
          "internalType": "address",
          "name": "recipient",
          "type": "address"
        },
        {
          "internalType": "uint256",
          "name": "slot",
          "type": "uint256"
        }
      ],
      "name": "getPendingTxId",
      "outputs": [
        {
          "internalType": "bytes32",
          "name": "",
          "type": "bytes32"
        }
      ],
      "stateMutability": "view",
      "type": "function"
    },
    {
      "inputs": [
        {
          "internalType": "address",
          "name": "recipient",
          "type": "address"
        },
        {
          "internalType": "uint256",
          "name": "startIndex",
          "type": "uint256"
        },
        {
          "internalType": "uint256",
          "name": "endIndex",
          "type": "uint256"
        }
      ],
      "name": "getRecipientQueues",
      "outputs": [
        {
          "components": [
            {
              "components": [
                {
                  "internalType": "uint256",
                  "name": "head",
                  "type": "uint256"
                },
                {
                  "internalType": "uint256",
                  "name": "tail",
                  "type": "uint256"
                },
                {
                  "internalType": "bytes32[]",
                  "name": "txIds",
                  "type": "bytes32[]"
                }
              ],
              "internalType": "struct IQueues.QueueInfoView",
              "name": "pending",
              "type": "tuple"
            },
            {
              "components": [
                {
                  "internalType": "uint256",
                  "name": "head",
                  "type": "uint256"
                },
                {
                  "internalType": "uint256",
                  "name": "tail",
                  "type": "uint256"
                },
                {
                  "internalType": "bytes32[]",
                  "name": "txIds",
                  "type": "bytes32[]"
                }
              ],
              "internalType": "struct IQueues.QueueInfoView",
              "name": "accepted",
              "type": "tuple"
            },
            {
              "components": [
                {
                  "internalType": "uint256",
                  "name": "head",
                  "type": "uint256"
                },
                {
                  "internalType": "uint256",
                  "name": "tail",
                  "type": "uint256"
                },
                {
                  "internalType": "bytes32[]",
                  "name": "txIds",
                  "type": "bytes32[]"
                }
              ],
              "internalType": "struct IQueues.QueueInfoView",
              "name": "undetermined",
              "type": "tuple"
            },
            {
              "internalType": "uint256",
              "name": "finalizedCount",
              "type": "uint256"
            },
            {
              "internalType": "uint256",
              "name": "issuedTxCount",
              "type": "uint256"
            }
          ],
          "internalType": "struct IQueues.RecipientQueuesView",
          "name": "",
          "type": "tuple"
        }
      ],
      "stateMutability": "view",
      "type": "function"
    },
    {
      "inputs": [
        {
          "internalType": "bytes32",
          "name": "role",
          "type": "bytes32"
        }
      ],
      "name": "getRoleAdmin",
      "outputs": [
        {
          "internalType": "bytes32",
          "name": "",
          "type": "bytes32"
        }
      ],
      "stateMutability": "view",
      "type": "function"
    },
    {
      "inputs": [],
      "name": "getTotalNumOfTransactions",
      "outputs": [
        {
          "internalType": "uint256",
          "name": "",
          "type": "uint256"
        }
      ],
      "stateMutability": "view",
      "type": "function"
    },
    {
      "inputs": [
        {
          "internalType": "uint256",
          "name": "startIndex",
          "type": "uint256"
        },
        {
          "internalType": "uint256",
          "name": "endIndex",
          "type": "uint256"
        }
      ],
      "name": "getTransactionIndexToTxId",
      "outputs": [
        {
          "internalType": "bytes32[]",
          "name": "txIds",
          "type": "bytes32[]"
        }
      ],
      "stateMutability": "view",
      "type": "function"
    },
    {
      "inputs": [
        {
          "internalType": "bytes32",
          "name": "txId",
          "type": "bytes32"
        }
      ],
      "name": "getTransactionQueuePosition",
      "outputs": [
        {
          "internalType": "uint256",
          "name": "",
          "type": "uint256"
        }
      ],
      "stateMutability": "view",
      "type": "function"
    },
    {
      "inputs": [
        {
          "internalType": "bytes32",
          "name": "txId",
          "type": "bytes32"
        }
      ],
      "name": "getTransactionQueueType",
      "outputs": [
        {
          "internalType": "enum IQueues.QueueType",
          "name": "",
          "type": "uint8"
        }
      ],
      "stateMutability": "view",
      "type": "function"
    },
    {
      "inputs": [
        {
          "internalType": "address",
          "name": "recipient",
          "type": "address"
        }
      ],
      "name": "getUndeterminedHead",
      "outputs": [
        {
          "internalType": "uint256",
          "name": "",
          "type": "uint256"
        }
      ],
      "stateMutability": "view",
      "type": "function"
    },
    {
      "inputs": [
        {
          "internalType": "address",
          "name": "recipient",
          "type": "address"
        }
      ],
      "name": "getUndeterminedHeadTxId",
      "outputs": [
        {
          "internalType": "bytes32",
          "name": "",
          "type": "bytes32"
        }
      ],
      "stateMutability": "view",
      "type": "function"
    },
    {
      "inputs": [
        {
          "internalType": "address",
          "name": "recipient",
          "type": "address"
        }
      ],
      "name": "getUndeterminedTail",
      "outputs": [
        {
          "internalType": "uint256",
          "name": "",
          "type": "uint256"
        }
      ],
      "stateMutability": "view",
      "type": "function"
    },
    {
      "inputs": [
        {
          "internalType": "address",
          "name": "recipient",
          "type": "address"
        }
      ],
      "name": "getUndeterminedTailTxId",
      "outputs": [
        {
          "internalType": "bytes32",
          "name": "",
          "type": "bytes32"
        }
      ],
      "stateMutability": "view",
      "type": "function"
    },
    {
      "inputs": [
        {
          "internalType": "address",
          "name": "recipient",
          "type": "address"
        }
      ],
      "name": "getUndeterminedTxCount",
      "outputs": [
        {
          "internalType": "uint256",
          "name": "",
          "type": "uint256"
        }
      ],
      "stateMutability": "view",
      "type": "function"
    },
    {
      "inputs": [
        {
          "internalType": "address",
          "name": "recipient",
          "type": "address"
        },
        {
          "internalType": "uint256",
          "name": "slot",
          "type": "uint256"
        }
      ],
      "name": "getUndeterminedTxId",
      "outputs": [
        {
          "internalType": "bytes32",
          "name": "",
          "type": "bytes32"
        }
      ],
      "stateMutability": "view",
      "type": "function"
    },
    {
      "inputs": [
        {
          "internalType": "bytes32",
          "name": "role",
          "type": "bytes32"
        },
        {
          "internalType": "address",
          "name": "account",
          "type": "address"
        }
      ],
      "name": "grantRole",
      "outputs": [],
      "stateMutability": "nonpayable",
      "type": "function"
    },
    {
      "inputs": [
        {
          "internalType": "bytes32",
          "name": "role",
          "type": "bytes32"
        },
        {
          "internalType": "address",
          "name": "account",
          "type": "address"
        }
      ],
      "name": "hasRole",
      "outputs": [
        {
          "internalType": "bool",
          "name": "",
          "type": "bool"
        }
      ],
      "stateMutability": "view",
      "type": "function"
    },
    {
      "inputs": [
        {
          "internalType": "address",
          "name": "_addressManager",
          "type": "address"
        }
      ],
      "name": "initialize",
      "outputs": [],
      "stateMutability": "nonpayable",
      "type": "function"
    },
    {
      "inputs": [
        {
          "internalType": "address",
          "name": "recipient",
          "type": "address"
        },
        {
          "internalType": "bytes32",
          "name": "txId",
          "type": "bytes32"
        }
      ],
      "name": "isAtFinalizedQueueHead",
      "outputs": [
        {
          "internalType": "bool",
          "name": "",
          "type": "bool"
        }
      ],
      "stateMutability": "view",
      "type": "function"
    },
    {
      "inputs": [
        {
          "internalType": "address",
          "name": "recipient",
          "type": "address"
        },
        {
          "internalType": "bytes32",
          "name": "txId",
          "type": "bytes32"
        }
      ],
      "name": "isAtPendingQueueHead",
      "outputs": [
        {
          "internalType": "bool",
          "name": "",
          "type": "bool"
        }
      ],
      "stateMutability": "view",
      "type": "function"
    },
    {
      "inputs": [
        {
          "internalType": "bytes32",
          "name": "",
          "type": "bytes32"
        }
      ],
      "name": "lastQueueModification",
      "outputs": [
        {
          "internalType": "enum IQueues.QueueType",
          "name": "lastQueueType",
          "type": "uint8"
        },
        {
          "internalType": "uint256",
          "name": "lastQueueTimestamp",
          "type": "uint256"
        }
      ],
      "stateMutability": "view",
      "type": "function"
    },
    {
      "inputs": [
        {
          "internalType": "address",
          "name": "recipient",
          "type": "address"
        },
        {
          "internalType": "bytes32",
          "name": "txId",
          "type": "bytes32"
        }
      ],
      "name": "markPendingTransactionAsCancelled",
      "outputs": [],
      "stateMutability": "nonpayable",
      "type": "function"
    },
    {
      "inputs": [],
      "name": "maxNumOfIterationsInPendingQueue",
      "outputs": [
        {
          "internalType": "uint256",
          "name": "",
          "type": "uint256"
        }
      ],
      "stateMutability": "view",
      "type": "function"
    },
    {
      "inputs": [],
      "name": "numOfTransactions",
      "outputs": [
        {
          "internalType": "uint256",
          "name": "",
          "type": "uint256"
        }
      ],
      "stateMutability": "view",
      "type": "function"
    },
    {
      "inputs": [],
      "name": "owner",
      "outputs": [
        {
          "internalType": "address",
          "name": "",
          "type": "address"
        }
      ],
      "stateMutability": "view",
      "type": "function"
    },
    {
      "inputs": [],
      "name": "pendingOwner",
      "outputs": [
        {
          "internalType": "address",
          "name": "",
          "type": "address"
        }
      ],
      "stateMutability": "view",
      "type": "function"
    },
    {
      "inputs": [
        {
          "internalType": "address",
          "name": "recipient",
          "type": "address"
        },
        {
          "internalType": "uint256",
          "name": "txIndex",
          "type": "uint256"
        }
      ],
      "name": "recipientIssuedIndexToTxId",
      "outputs": [
        {
          "internalType": "bytes32",
          "name": "txId",
          "type": "bytes32"
        }
      ],
      "stateMutability": "view",
      "type": "function"
    },
    {
      "inputs": [
        {
          "internalType": "address",
          "name": "recipient",
          "type": "address"
        },
        {
          "internalType": "bytes32",
          "name": "txId",
          "type": "bytes32"
        }
      ],
      "name": "removeTransactionFromPendingQueue",
      "outputs": [
        {
          "internalType": "bool",
          "name": "success",
          "type": "bool"
        }
      ],
      "stateMutability": "nonpayable",
      "type": "function"
    },
    {
      "inputs": [],
      "name": "renounceOwnership",
      "outputs": [],
      "stateMutability": "nonpayable",
      "type": "function"
    },
    {
      "inputs": [
        {
          "internalType": "bytes32",
          "name": "role",
          "type": "bytes32"
        },
        {
          "internalType": "address",
          "name": "callerConfirmation",
          "type": "address"
        }
      ],
      "name": "renounceRole",
      "outputs": [],
      "stateMutability": "nonpayable",
      "type": "function"
    },
    {
      "inputs": [
        {
          "internalType": "bytes32",
          "name": "role",
          "type": "bytes32"
        },
        {
          "internalType": "address",
          "name": "account",
          "type": "address"
        }
      ],
      "name": "revokeRole",
      "outputs": [],
      "stateMutability": "nonpayable",
      "type": "function"
    },
    {
      "inputs": [
        {
          "internalType": "address",
          "name": "_addressManager",
          "type": "address"
        }
      ],
      "name": "setAddressManager",
      "outputs": [],
      "stateMutability": "nonpayable",
      "type": "function"
    },
    {
      "inputs": [
        {
          "internalType": "address",
          "name": "caller",
          "type": "address"
        },
        {
          "internalType": "bool",
          "name": "authorized",
          "type": "bool"
        }
      ],
      "name": "setAuthorizedCaller",
      "outputs": [],
      "stateMutability": "nonpayable",
      "type": "function"
    },
    {
      "inputs": [
        {
          "internalType": "address[]",
          "name": "callers",
          "type": "address[]"
        },
        {
          "internalType": "bool",
          "name": "authorized",
          "type": "bool"
        }
      ],
      "name": "setAuthorizedCallers",
      "outputs": [],
      "stateMutability": "nonpayable",
      "type": "function"
    },
    {
      "inputs": [
        {
          "internalType": "uint256",
          "name": "_maxNumOfIterationsInPendingQueue",
          "type": "uint256"
        }
      ],
      "name": "setMaxNumOfIterationsInPendingQueue",
      "outputs": [],
      "stateMutability": "nonpayable",
      "type": "function"
    },
    {
      "inputs": [
        {
          "internalType": "bytes4",
          "name": "interfaceId",
          "type": "bytes4"
        }
      ],
      "name": "supportsInterface",
      "outputs": [
        {
          "internalType": "bool",
          "name": "",
          "type": "bool"
        }
      ],
      "stateMutability": "view",
      "type": "function"
    },
    {
      "inputs": [
        {
          "internalType": "uint256",
          "name": "",
          "type": "uint256"
        }
      ],
      "name": "transactionIndexToTxId",
      "outputs": [
        {
          "internalType": "bytes32",
          "name": "",
          "type": "bytes32"
        }
      ],
      "stateMutability": "view",
      "type": "function"
    },
    {
      "inputs": [
        {
          "internalType": "address",
          "name": "newOwner",
          "type": "address"
        }
      ],
      "name": "transferOwnership",
      "outputs": [],
      "stateMutability": "nonpayable",
      "type": "function"
    }
  ],
  "bytecode": "0x608080604052346015576137ce908161001b8239f35b600080fdfe608080604052600436101561001357600080fd5b60003560e01c90816301ffc9a71461266e575080630652b57a1461262b578063090263a7146125315780630f36527a146124fb5780630f6153d4146106185780630fd067101461248a57806316465645146123a85780631a0f2b18146123fc578063248a9ca3146123de5780632a69ae7d146113cb5780632f2ff15d146123ad5780633169e043146123a8578063322af2f2146122a257806336568abe1461225c57806336dc908c1461221f5780633ab76e9f146121f65780633f008c45146121b9578063454bbd291461213b578063465551a814612118578063536fff6c146120d95780635bb843351461208d5780635eb3166c14611eee5780636262ae6b14611ea95780636e7b3a4014611e8b5780636e9f323814611e685780636f329114146113c65780636fa7e4f114611e1c5780637128928d14611b13578063715018a614611a9257806372570537146108c7578063769ad35a1461155457806376d3a6461461151757806379ba5097146114c75780637f3a13d21461149b5780637f42382c146114615780638226c51214611413578063830cf2a3146113cb578063891ed77d146113c65780638ccd7b3b146112925780638da5cb5b1461125c578063910048fb1461121f57806391d14854146111c557806397b9761b146111675780639a299f68146110ac5780639c88381914610efc578063a0d6c20214610ebf578063a217fddf14610ea3578063a3638a8e14610e58578063a9f7e17e14610e00578063ac00f57f14610d59578063b1d9fb6314610d0e578063be9e9d8a14610cc5578063c213099514610c7a578063c281daf014610b48578063c404723314610b0d578063c4d66de81461093e578063cae51cd21461091b578063d547741f146108e5578063d8332800146108c7578063dcf2cf2f1461087b578063e224c20a14610703578063e30c3978146106cd578063e5d31ced1461061d578063eaeea73114610618578063eecab57b146105ed578063efb5f185146105b2578063f1cdbf7614610558578063f2fde38b146104d1578063f680d34a146104925763fb10a85b1461032157600080fd5b3461048d57604036600319011261048d5761033a6126c1565b60243590610346612f33565b60018060a01b03168060005260056020526040600020600f8101836000528060205260ff6040600020541660048110156104555760010361047c578360005260038201602052604060002054825480910361046b576103a4906129fc565b8255836000526020526040600020600360ff19825416179055604051906103ca826127b5565b6003825260208201904282528460005260066020526040600020925192600484101561045557600160409361040e6000805160206137198339815191529684612a0b565b5191015560098101600b81549283600052600a8101602052878560002055876000520160205281836000205561044481546129fc565b9055815190600382526020820152a3005b634e487b7160e01b600052602160045260246000fd5b63042202b560e11b60005260046000fd5b637b9ea34f60e01b60005260046000fd5b600080fd5b3461048d57602036600319011261048d576004356000526006602052604080600020600160ff8254169101546104ca8351809361276c565b6020820152f35b3461048d57602036600319011261048d576104ea6126c1565b6104f2612f33565b60008051602061377983398151915280546001600160a01b0319166001600160a01b039283169081179091556000805160206136d9833981519152549091167f38d16b8cac22d99fc7c124b9cd0de2d3fa1faef420bfe791d8c362d765e22700600080a3005b3461048d57604036600319011261048d5760206105a86105766126c1565b6001600160a01b0381166000908152600584526040808220602435808452600f82018752919092205460ff16926135b7565b6040519015158152f35b3461048d57602036600319011261048d576004356105ce612f33565b80156105d957600755005b6362ec1e6f60e11b60005260045260246000fd5b3461048d57602036600319011261048d57602061061061060b6126c1565b612ec5565b604051908152f35b612730565b3461048d57604036600319011261048d576106366126c1565b6001600160a01b03610646612f73565b16331415806106b3575b80610699575b80610680575b61066f5761066d9060243590612e68565b005b63e6533a2760e01b60005260046000fd5b5033600052600260205260ff604060002054161561065c565b506001600160a01b036106aa6134be565b16331415610656565b506001600160a01b036106c4613007565b16331415610650565b3461048d57600036600319011261048d57600080516020613779833981519152546040516001600160a01b039091168152602090f35b3461048d57604036600319011261048d5761071c6126c1565b6024356001600160a01b0361072f612f73565b1633141580610861575b80610847575b8061082e575b61066f5760009060018060a01b0383169283600052600560205260406000209382600052600f850160205260ff6040600020541692610786848783866135b7565b610798575b6020856040519015158152f35b6000828152600560208181526040808420600c81018054968652600e90910183529084208590559490925290529293506107dc926107d5906129fc565b905561351f565b6004811015610455576002810361080b57506004016107fb81546129fc565b90555b602060018280808061078b565b600314610819575b506107fe565b60080161082681546129fc565b905580610813565b5033600052600260205260ff6040600020541615610745565b506001600160a01b036108586134be565b1633141561073f565b506001600160a01b03610872613007565b16331415610739565b3461048d57602036600319011261048d576001600160a01b0361089c6126c1565b16600090815260056020908152604080832060088101548452600a0182529182902054915191825290f35b3461048d57600036600319011261048d576020600154604051908152f35b3461048d57604036600319011261048d5761066d6004356109046126d7565b9061091661091182612bb3565b613155565b613241565b3461048d57602036600319011261048d5760206106106109396126c1565b612e16565b3461048d57602036600319011261048d576109576126c1565b600080516020613759833981519152549060ff8260401c1615916001600160401b03811680159081610b05575b6001149081610afb575b159081610af2575b50610ae15767ffffffffffffffff1981166001176000805160206137598339815191525582610ab4575b506109c96136aa565b6109d16136aa565b3315610a9e576109e033613450565b6109e86136aa565b6109f06136aa565b6109f86136aa565b60017f9b779b17422d0df92223018b32b4d1fa46e071723d6817e2486d003becc55f0055610a246136aa565b600080546001600160a01b0319166001600160a01b0392909216919091179055610a4a57005b60ff60401b196000805160206137598339815191525416600080516020613759833981519152557fc7f505b2f371ae2175ee4913f4499e1f2633a7b5936321eed1cdaeb6115181d2602060405160018152a1005b631e4fbdf760e01b600052600060045260246000fd5b68ffffffffffffffffff1916680100000000000000011760008051602061375983398151915255826109c0565b63f92ee8a960e01b60005260046000fd5b90501584610996565b303b15915061098e565b849150610984565b3461048d57602036600319011261048d5733600052600560205260036040600020016004356000526020526020604060002054604051908152f35b3461048d57604036600319011261048d57610b616126c1565b60243590610b6d612f33565b60018060a01b0381166000526005602052604060002082600052600f810160205260ff6040600020541660048110158061045557600282149182159081610c6a575b50610c59576104555715610c1357600481019260005260078101602052604060002054908354809203610c025761066d93610beb600c936129fc565b90555b610bf78361351f565b016107d581546129fc565b633e714edf60e01b60005260046000fd5b6008810192600052600b8101602052604060002054908354809203610c485761066d93610c41600c936129fc565b9055610bee565b633d40531f60e01b60005260046000fd5b6390cb8b6160e01b60005260046000fd5b9150506003600091141586610baf565b3461048d57604036600319011261048d576001600160a01b03610c9b6126c1565b166000526005602052600a6040600020016024356000526020526020604060002054604051908152f35b3461048d57602036600319011261048d576001600160a01b03610ce66126c1565b1660009081526005602090815260408083208054845260020182529182902054915191825290f35b3461048d57604036600319011261048d576001600160a01b03610d2f6126c1565b16600052600560205260066040600020016024356000526020526020604060002054604051908152f35b3461048d57606036600319011261048d57610d726126c1565b60243560443591600483101561048d57610d8a612f33565b60018060a01b03166000526005602052600f60406000200181600052602052610db7826040600020612a0b565b610dcd60405192610dc7846127b5565b836129f0565b602082019042825260005260066020526040600020915190600482101561045557610dfa60019284612a0b565b51910155005b3461048d57602036600319011261048d576001600160a01b03610e216126c1565b168060005260036020526040600020906000526005602052600c604060002001546000526020526020604060002054604051908152f35b3461048d57604036600319011261048d576001600160a01b03610e796126c1565b16600052600560205260026040600020016024356000526020526020604060002054604051908152f35b3461048d57600036600319011261048d57602060405160008152f35b3461048d57602036600319011261048d576001600160a01b03610ee06126c1565b1660005260056020526020600860406000200154604051908152f35b3461048d57604036600319011261048d57610f156126c1565b602435906001600160a01b03610f29612f73565b1633141580611092575b80611078575b8061105f575b61066f5760018060a01b03811691826000526005602052604060002091600383018260005280602052604060002054845480910361046b576000526002840160205260006040812055826000526020526000604081205581600052600f8301602052604060002060ff198154169055610fb781613063565b92831561103b5790816107d5610fcd93546129fc565b60405192610fda846127b5565b6000845260208401934285528260005260066020526040600020905160048110156104555760209561100e60019284612a0b565b51910155600080516020613719833981519152604080516000815260001987820152a36040519015158152f35b50506020926000805160206136f983398151915284600754604051908152a36105a8565b5033600052600260205260ff6040600020541615610f3f565b506001600160a01b036110896134be565b16331415610f39565b506001600160a01b036110a3613007565b16331415610f33565b3461048d57606036600319011261048d576110c56126c1565b602435600481101561048d57604435916110dd612f33565b6001600160a01b0316600090815260056020526040812091906001820361111f5750506001810154821161110e5755005b63698f39ad60e01b60005260046000fd5b506002810361113a57506005810154821161110e5760040155005b60036000911461114657005b60098201548311611158575060080155005b63698f39ad60e01b8152600490fd5b3461048d57604036600319011261048d576111806126c1565b6024359061118c612f33565b6001600160a01b03166000908152600560205260409020600d81015482116111b457600c0155005b631a5ffd7760e11b60005260046000fd5b3461048d57604036600319011261048d576111de6126d7565b60043560005260008051602061373983398151915260205260406000209060018060a01b0316600052602052602060ff604060002054166040519015158152f35b3461048d57604036600319011261048d5761124461123b6126c1565b60243590612cdf565b604080519283529015156020830152819081015b0390f35b3461048d57600036600319011261048d576000805160206136d9833981519152546040516001600160a01b039091168152602090f35b3461048d57604036600319011261048d576112ab6126c1565b602435906112b7612f33565b60018060a01b03168060005260056020526040600020600f8101836000528060205260ff6040600020541660048110156104555760010361047c578360005260038201602052604060002054825480910361046b57611315906129fc565b8255836000526020526040600020600260ff198254161790556040519061133b826127b5565b6002825260208201904282528460005260066020526040600020925192600484101561045557600160409361137f6000805160206137198339815191529684612a0b565b51910155600581016007815492836000526006810160205287856000205587600052016020528183600020556113b581546129fc565b9055815190600282526020820152a3005b612854565b3461048d57604036600319011261048d576001600160a01b036113ec6126c1565b16600052600360205260406000206024356000526020526020604060002054604051908152f35b3461048d57604036600319011261048d576001600160a01b036114346126c1565b16600052600560205260206040600020602435600052600381018252604060002054905414604051908152f35b3461048d57602036600319011261048d576001600160a01b036114826126c1565b1660005260056020526020604060002054604051908152f35b3461048d57602036600319011261048d5760043560005260046020526020604060002054604051908152f35b3461048d57600036600319011261048d5760008051602061377983398151915254336001600160a01b03909116036115025761066d33613450565b63118cdaa760e01b6000523360045260246000fd5b3461048d57602036600319011261048d576001600160a01b036115386126c1565b1660005260056020526020600460406000200154604051908152f35b3461048d57604036600319011261048d5761156d6126c1565b6024356001600160a01b03611580612f73565b1633141580611a78575b80611a5e575b80611a45575b61066f5760009160609060018060a01b031690816000526005602052604060002092600f840194816000528560205260ff604060002054166004811015610455576116d45750611258929394816000526020526040600020600160ff19825416179055806001860194855496876000526002810160205282604060002055826000526003810160205287604060002055805488149661163581546129fc565b9055816000526003602052600e604060002091600d810192835460005260205284604060002055825492611668846129fc565b905584600052016020526040600020556000805160206137198339815191526040805160018152896020820152a36001546116a2816129fc565b60015560005260046020526040600020555b6040519384931515845260208401526060604084015260608301906126fc565b929493906000526003810160205260406000205493815485811015611703575b505050611258919293506116b4565b90939194925060018101809111611a2f576117258361172a929694939661294c565b61291a565b946007830192600b81019260028201906000815b84548111611a145790818b94939260005283602052604060002054918215611a08576117758161176f8593916129fc565b97612959565b52600082815260208b81526040808320548c835281842054928c9052922054909160ff1660048110156104555760028114806119fb575b806119e2575b156118d0575050600587018054808310611834575b50555b81600052896020526040600020600160ff198254161790556040516117ee816127b5565b60018152602081019242845260005260066020526040600020905160048110156104555761182b9361182260019284612a0b565b519101556129fc565b9290919261173e565b89835b82811061188957507ff668a508bad90edc0098a18d4e9b14bba3369fca2d9aabbae828a3860ade58a98261186d8660029561294c565b604080518881526020810193909352820152606090a38e6117c7565b60009182526005602090815260408084208e855281852084865260060180845282862080548752600790920184529185208590558385529152919091558a90600101611837565b909150600360009114806119d5575b806119be575b6118f1575b50506117ca565b600988019081549081841061190b575b5050558c806118ea565b8a90845b8381106119635750507ff668a508bad90edc0098a18d4e9b14bba3369fca2d9aabbae828a3860ade58a9826119468660039561294c565b604080518881526020810193909352820152606090a38e80611901565b8192600192526005602052600b60408420018d84526005602052600a6040852001828552602052604084205484526020528260408120558c83526005602052600a604084200181845260205282604081205501908b9161190f565b50818152600a8801602052836040822054146118e5565b50816009890154116118df565b50826000526006890160205284604060002054146117b2565b508260058a0154116117ac565b945061182b91506129fc565b505097945050905061125893508591505583929185806116f4565b634e487b7160e01b600052601160045260246000fd5b5033600052600260205260ff6040600020541615611596565b506001600160a01b03611a6f6134be565b16331415611590565b506001600160a01b03611a89613007565b1633141561158a565b3461048d57600036600319011261048d57611aab612f33565b60008051602061377983398151915280546001600160a01b03199081169091556000805160206136d9833981519152805491821690556000906001600160a01b03167f8be0079c531659141344cd1fd0a4f28419497f9722a3daafe3b4186f6b6457e08280a3005b3461048d57606036600319011261048d57611b2c6126c1565b602435906044359060006080604051611b44816127e6565b611b4c612cb1565b8152611b56612cb1565b6020820152611b63612cb1565b6040820152826060820152015260018060a01b031660005260056020526040600020600181015491838311600014611e145782811015611e0557611ba7848261294c565b60018101809111611a2f575b905b60058301549185831115611dfe5782821015611def57611bd5868361294c565b60018101809111611a2f575b60098501549287841115611de7578784821015611dd757611c019161294c565b60018101809111611a2f575b611c168361291a565b90611c208361291a565b92611c2a8261291a565b94600289018b60005b838110611dab575050505060008a60068a01915b838110611d7f57505050506000600a8801905b828110611d5457611d1d8a8a8a611d438b8b8b8b86549760405198611c7e8a612801565b89526020890152604088015260048601549460405195611c9d87612801565b86526020860152604085015260088501549160405192611cbc84612801565b835260208301526040820152611d30600d600c8601549501549360405196611ce3886127e6565b875260208701908152604087019283526060870195865260808701948552604051978897602089525160a060208a015260c0890190612890565b9051878203601f19016040890152612890565b9051858203601f19016060870152612890565b915160808401525160a08301520390f35b80611d616001928d612cd2565b60005282602052604060002054611d788289612959565b5201611c5a565b611d8b81600193612cd2565b60005282602052604060002054611da28289612959565b52018b90611c47565b611db781600193612cd2565b60005282602052604060002054611dce8289612959565b52018c90611c33565b611de291508461294c565b611c0d565b506000611c0d565b611df9868461294c565b611be1565b6000611be1565b611e0f848461294c565b611bb3565b600090611bb5565b3461048d57602036600319011261048d576001600160a01b03611e3d6126c1565b1660009081526005602090815260408083206004810154845260060182529182902054915191825290f35b3461048d57602036600319011261048d576020610610611e866126c1565b612c42565b3461048d57600036600319011261048d576020600754604051908152f35b3461048d57602036600319011261048d57336000526005602052600f604060002001600435600052602052602060ff60406000205416611eec604051809261276c565bf35b3461048d57604036600319011261048d57611f076126c1565b602435906001600160401b03821161048d573660238301121561048d57816004013591611f338361283d565b92611f41604051948561281c565b8084526024602085019160051b8301019136831161048d57602401905b82821061207d57506001600160a01b039150611f7a90506132e1565b16330361206c576001600160a01b03811660009081526005602052604081206003810193600f82019391925b815181101561206157611fb98183612959565b511561205957611fc98183612959565b516000528460205260ff6040600020541660048110156104555760031461205957611ff48183612959565b516000528460205260ff60406000205416906004821015610455576001809203612054576120228184612959565b51600052866020526040600020548554036120545761204b6120448285612959565b5185613338565b50505b01611fa6565b61204e565b60019061204e565b602060405160018152f35b635410c05f60e11b60005260046000fd5b8135815260209182019101611f5e565b3461048d57602036600319011261048d5760206106106001600160a01b036120b36126c1565b16806000526005835260016040600020015490600052600583526040600020549061294c565b3461048d57602036600319011261048d576001600160a01b036120fa6126c1565b166000526002602052602060ff604060002054166040519015158152f35b3461048d57602036600319011261048d5760206106106121366126c1565b612bd4565b3461048d57604036600319011261048d576121546126c1565b7fad857fa38c9319cb80848f1ef2f924383b90297eb5d71755738ff037d100faa1602061217f6126ed565b92612188612f33565b6001600160a01b031660008181526002835260409020805460ff191660ff86151516179055926040519015158152a2005b3461048d57602036600319011261048d576001600160a01b036121da6126c1565b1660005260056020526020600160406000200154604051908152f35b3461048d57600036600319011261048d576000546040516001600160a01b039091168152602090f35b3461048d57602036600319011261048d576001600160a01b036122406126c1565b1660005260056020526020600d60406000200154604051908152f35b3461048d57604036600319011261048d576122756126d7565b336001600160a01b038216036122915761066d90600435613241565b63334bd91960e11b60005260046000fd5b3461048d57604036600319011261048d576122bb6126c1565b6001600160a01b031660009081526005602090815260408083206024358452600f81018352818420546003820184528285205460078301855283862054600b8401865284872054600e85019096529390952054939460ff90911693919290916004851015610455576101009560018614928361239d575b60028714948561238f575b600388149687612381575b50612356604051809961276c565b6020880152604087015260608601526080850152151560a0840152151560c0830152151560e0820152f35b600801548314965089612348565b60048701548214955061233d565b855485149350612332565b612779565b3461048d57604036600319011261048d5761066d6004356123cc6126d7565b906123d961091182612bb3565b61319f565b3461048d57602036600319011261048d576020610610600435612bb3565b3461048d57604036600319011261048d576124156126c1565b6001600160a01b03612425612f73565b1633141580612470575b80612457575b612446576112449060243590612a23565b6370f64de560e01b60005260046000fd5b5033600052600260205260ff6040600020541615612435565b506001600160a01b03612481613007565b1633141561242f565b3461048d57602036600319011261048d57600060206040516124ab816127b5565b8281520152600435600052600660205260408060002060018251916124cf836127b5565b6124dd60ff825416846129f0565b0154602082019081526124f3835180935161276c565b516020820152f35b3461048d57604036600319011261048d5761125861251d60243560043561296d565b6040519182916020835260208301906126fc565b3461048d57604036600319011261048d576004356001600160401b03811161048d573660238201121561048d5780600401356001600160401b03811161048d576024820191602436918360051b01011161048d5761258d6126ed565b612595612f33565b8015159060005b8381106125a557005b6001906001600160a01b036125c36125be83888a6128e0565b612906565b1660005260026020526125e68360406000209060ff801983541691151516179055565b818060a01b036125fa6125be83888a6128e0565b167fad857fa38c9319cb80848f1ef2f924383b90297eb5d71755738ff037d100faa16020604051878152a20161259c565b3461048d57602036600319011261048d576126446126c1565b61264c612f33565b600080546001600160a01b0319166001600160a01b0392909216919091179055005b3461048d57602036600319011261048d576004359063ffffffff60e01b821680920361048d57602091637965db0b60e01b81149081156126b0575b5015158152f35b6301ffc9a760e01b149050836126a9565b600435906001600160a01b038216820361048d57565b602435906001600160a01b038216820361048d57565b60243590811515820361048d57565b906020808351928381520192019060005b81811061271a5750505090565b825184526020938401939092019160010161270d565b3461048d57602036600319011261048d576127496126c1565b60018060a01b031660005260056020526020600960406000200154604051908152f35b9060048210156104555752565b3461048d57602036600319011261048d576127926126c1565b60018060a01b031660005260056020526020600c60406000200154604051908152f35b604081019081106001600160401b038211176127d057604052565b634e487b7160e01b600052604160045260246000fd5b60a081019081106001600160401b038211176127d057604052565b606081019081106001600160401b038211176127d057604052565b90601f801991011681019081106001600160401b038211176127d057604052565b6001600160401b0381116127d05760051b60200190565b3461048d57602036600319011261048d5761286d6126c1565b60018060a01b031660005260056020526020600560406000200154604051908152f35b60206080604060608501938051865283810151848701520151936060604082015284518094520192019060005b8181106128ca5750505090565b82518452602093840193909201916001016128bd565b91908110156128f05760051b0190565b634e487b7160e01b600052603260045260246000fd5b356001600160a01b038116810361048d5790565b906129248261283d565b612931604051918261281c565b8281528092612942601f199161283d565b0190602036910137565b91908203918211611a2f57565b80518210156128f05760209160051b010190565b90600154808310156129d3578082116129cb575b5061298f611725838361294c565b91805b82811061299f5750505090565b8060019160005260046020526040600020546129c46129be858461294c565b87612959565b5201612992565b905038612981565b5050506040516129e460208261281c565b60008152600036813790565b60048210156104555752565b6000198114611a2f5760010190565b9060048110156104555760ff80198354169116179055565b9160009160018060a01b038416806000526005602052604060002094600f860190836000528160205260ff60406000205416600481101561045557600214612b9657836000528160205260ff60406000205416600481101561045557600103612b89578360005260038701602052604060002054875403612b8957612aa790613063565b948515612b695750612ab986546129fc565b8655826000526020526040600020600260ff19825416179055604051612ade816127b5565b60028152602081014281528360005260066020526040600020915190600482101561045557612b0f60019284612a0b565b51910155600585016007815496876000526006810160205284604060002055846000520160205285604060002055612b4781546129fc565b90556000805160206137198339815191526040805160028152876020820152a3565b9550506000805160206136f98339815191526020600754604051908152a3565b5060009550859450505050565b505050600792506000939193520160205260406000205490600190565b60005260008051602061373983398151915260205260016040600020015490565b6001600160a01b0316600081815260056020526040902060090154908115612c22576000526005602052600a604060002001906000198101908111611a2f5760005260205260406000205490565b6000526005602052600a6040600020019060005260205260406000205490565b6001600160a01b031660008181526005602081905260409091200154908115612c915760005260056020526006604060002001906000198101908111611a2f5760005260205260406000205490565b600052600560205260066040600020019060005260205260406000205490565b60405190612cbe82612801565b606060408360008152600060208201520152565b91908201809211611a2f57565b906001600160a01b03612cf0612f73565b1633141580612dfc575b80612de2575b80612dc9575b612db85760018060a01b03821660005260056020526040600020600f8101826000528060205260ff60406000205416600481101561045557600314612d9f578260005260205260ff60406000205416600481101561045557600103612d94578160005260038101602052604060002054905403612d8a57612d8691613338565b9091565b5050600090600090565b505050600090600090565b5090600b92506000520160205260406000205490600090565b631e3f968f60e01b60005260046000fd5b5033600052600260205260ff6040600020541615612d06565b506001600160a01b03612df36134be565b16331415612d00565b506001600160a01b03612e0d6132e1565b16331415612cfa565b6001600160a01b03166000818152600560205260409020600c0154908115612e615760005260036020526040600020906000198101908111611a2f5760005260205260406000205490565b5050600090565b60018060a01b0381166000526005602052600f604060002001826000528060205260ff60406000205416600481101561045557600103612ec057612ebe92600052602052604060002060ff19815416905561351f565b565b505050565b6001600160a01b0316600081815260056020526040902060010154908115612f135760005260056020526002604060002001906000198101908111611a2f5760005260205260406000205490565b600052600560205260026040600020019060005260205260406000205490565b6000805160206136d9833981519152546001600160a01b0316330361150257565b9081602091031261048d57516001600160a01b038116810361048d5790565b600054604051631bae711d60e21b8152602060048201819052600d60248301526c21b7b739b2b739bab9a6b0b4b760991b60448301529091829060649082906001600160a01b03165afa908115612ffb57600091612fcf575090565b612ff1915060203d602011612ff4575b612fe9818361281c565b810190612f54565b90565b503d612fdf565b6040513d6000823e3d90fd5b600054604051631bae711d60e21b8152602060048201819052600d60248301526c4372656174696f6e506861736560981b60448301529091829060649082906001600160a01b03165afa908115612ffb57600091612fcf575090565b600091600754801560001461314f57506064915b6001600160a01b03166000818152600560209081526040808320805484526002019091528120549093919291905b801515908161311c575b5080613113575b156131035782600052600560205260406000206130d381546129fc565b9055600083815260056020908152604080832080548452600201909152902054936130fd906129fc565b936130a5565b9150911061310d57565b60019150565b508084106130b6565b9050836000526005602052600f6040600020019060005260205260ff6040600020541660048110156104555715386130af565b91613077565b60008181526000805160206137398339815191526020908152604080832033845290915290205460ff16156131875750565b63e2517d3f60e01b6000523360045260245260446000fd5b6000818152600080516020613739833981519152602090815260408083206001600160a01b038616845290915290205460ff16612e61576000818152600080516020613739833981519152602090815260408083206001600160a01b0395909516808452949091528120805460ff19166001179055339291907f2f8788117e7eff1d82e926ec794901d17c78024a50270940304540a733656f0d9080a4600190565b6000818152600080516020613739833981519152602090815260408083206001600160a01b038616845290915290205460ff1615612e61576000818152600080516020613739833981519152602090815260408083206001600160a01b0395909516808452949091528120805460ff19169055339291907ff6391f5c32d9c69d2a47ea670b442974b53935d1edc7fd64eb21e047a839171b9080a4600190565b600054604051631bae711d60e21b8152602060048201819052600860248301526749646c656e65737360c01b60448301529091829060649082906001600160a01b03165afa908115612ffb57600091612fcf575090565b909160009161334681613063565b928315613424575060018060a01b0316806000526005602052600f604060002001846000526020526040600020600360ff1982541617905560405161338a816127b5565b600381526020810142815285600052600660205260406000209151906004821015610455576133bb60019284612a0b565b5191015580600052600560205260406000206133d781546129fc565b90556000818152600560208181526040808420600981018054808752600a830185528387208b9055998652600b90910183529084208890559390925290528054613420906129fc565b9055565b6007546040519081529094916001600160a01b0316906000805160206136f983398151915290602090a3565b60008051602061377983398151915280546001600160a01b03199081169091556000805160206136d983398151915280549182166001600160a01b0393841690811790915591167f8be0079c531659141344cd1fd0a4f28419497f9722a3daafe3b4186f6b6457e0600080a3565b600054604051631bae711d60e21b815260206004820181905260126024830152712a3930b739b0b1ba34b7b726b0b730b3b2b960711b60448301529091829060649082906001600160a01b03165afa908115612ffb57600091612fcf575090565b6001600160a01b03166000818152600560205260409020600c810192600d8201929091905b8454845481101561358a578160005260036020526040600020816000526020526040600020548015159081613592575b501561358a57613583906129fc565b8555613544565b505050915050565b9050600052600f830160205260ff604060002054166004811015610455571538613574565b9260048110159081610455578015801561369c575b6136925760009161367e576002810361365d57505060048201548160005260078301602052604060002054145b1561365557600052600e8101602052600c60406000205491015414908161362a575b5061362557600090565b600190565b6001600160a01b03166000908152600560205260409020600c810154600d909101541190503861361b565b505050600090565b6003036135f9576040600884015491838152600b85016020522054146135f9565b634e487b7160e01b82526021600452602482fd5b5050505050600090565b5060009150600181146135cc565b60ff6000805160206137598339815191525460401c16156136c757565b631afcd79f60e31b60005260046000fdfe9016d09d72d40fdae2fd8ceac6b6234c7706214fd39c1cd1e609a0528c199300f5d63ae8520cf01bdaf195a4b38d13c6752858e8d4e3253e9331a613b30c6056ae79898352f9a690e2c3c045facb9493b7c3f2b7beb2888e794c6a30d1f4550502dd7bc7dec4dceedda775e58dd541e08a116c6c53815c0bd028192f7b626800f0c57e16840df040f15088dc2f81fe391c3923bec73e23a9662efc9c229c6a00237e158222e3e6968b72b9db0d8043aacf074ad9f650f0d1606b4d82ee432c00a2646970667358221220c4ee43f63170153766ffe7c48bdb14b8487ddbb1dac4e13b77f5cc83f0c8bacf64736f6c634300081c0033",
  "linkReferences": {},
  "deployedLinkReferences": {}
}