{
  "_format": "hh-sol-artifact-1",
  "contractName": "MockUtilsForActivation",
  "sourceName": "contracts/test-helpers/MockUtilsForActivation.sol",
  "abi": [
    {
      "inputs": [
        {
          "internalType": "address",
          "name": "leader",
          "type": "address"
        },
        {
          "internalType": "address",
          "name": "caller",
          "type": "address"
        }
      ],
      "name": "CallerNotLeader",
      "type": "error"
    },
    {
      "inputs": [],
      "name": "InvalidRevealData",
      "type": "error"
    },
    {
      "inputs": [],
      "name": "InvalidTransactionStatus",
      "type": "error"
    },
    {
      "inputs": [],
      "name": "InvalidTxExecutionHash",
      "type": "error"
    },
    {
      "inputs": [],
      "name": "LeaderResultHashAlreadySet",
      "type": "error"
    },
    {
      "inputs": [
        {
          "components": [
            {
              "internalType": "bytes32",
              "name": "txId",
              "type": "bytes32"
            },
            {
              "internalType": "bytes32",
              "name": "txExecutionHash",
              "type": "bytes32"
            },
            {
              "internalType": "bytes32",
              "name": "otherExecutionFieldsHash",
              "type": "bytes32"
            },
            {
              "internalType": "bytes32",
              "name": "messagesAndOtherFieldsHash",
              "type": "bytes32"
            },
            {
              "internalType": "uint256",
              "name": "saltAsAValidator",
              "type": "uint256"
            },
            {
              "internalType": "enum ITransactions.VoteType",
              "name": "txExecutionResult",
              "type": "uint8"
            },
            {
              "internalType": "address",
              "name": "validator",
              "type": "address"
            }
          ],
          "internalType": "struct ITransactions.RevealVoteAsLeaderParams",
          "name": "params",
          "type": "tuple"
        },
        {
          "components": [
            {
              "internalType": "enum ITransactions.ResultType",
              "name": "result",
              "type": "uint8"
            },
            {
              "internalType": "enum ITransactions.VoteType",
              "name": "txExecutionResult",
              "type": "uint8"
            },
            {
              "internalType": "enum ITransactions.TransactionStatus",
              "name": "previousStatus",
              "type": "uint8"
            },
            {
              "internalType": "enum ITransactions.TransactionStatus",
              "name": "status",
              "type": "uint8"
            },
            {
              "internalType": "address",
              "name": "txOrigin",
              "type": "address"
            },
            {
              "internalType": "address",
              "name": "sender",
              "type": "address"
            },
            {
              "internalType": "address",
              "name": "recipient",
              "type": "address"
            },
            {
              "internalType": "address",
              "name": "activator",
              "type": "address"
            },
            {
              "internalType": "uint256",
              "name": "txSlot",
              "type": "uint256"
            },
            {
              "internalType": "uint256",
              "name": "initialRotations",
              "type": "uint256"
            },
            {
              "internalType": "uint256",
              "name": "numOfInitialValidators",
              "type": "uint256"
            },
            {
              "internalType": "uint256",
              "name": "epoch",
              "type": "uint256"
            },
            {
              "internalType": "bytes32",
              "name": "id",
              "type": "bytes32"
            },
            {
              "internalType": "bytes32",
              "name": "randomSeed",
              "type": "bytes32"
            },
            {
              "internalType": "bytes32",
              "name": "txExecutionHash",
              "type": "bytes32"
            },
            {
              "internalType": "bytes32",
              "name": "resultHash",
              "type": "bytes32"
            },
            {
              "internalType": "bytes",
              "name": "txCalldata",
              "type": "bytes"
            },
            {
              "internalType": "bytes",
              "name": "eqBlocksOutputs",
              "type": "bytes"
            },
            {
              "components": [
                {
                  "internalType": "uint256",
                  "name": "activationBlock",
                  "type": "uint256"
                },
                {
                  "internalType": "uint256",
                  "name": "processingBlock",
                  "type": "uint256"
                },
                {
                  "internalType": "uint256",
                  "name": "proposalBlock",
                  "type": "uint256"
                }
              ],
              "internalType": "struct ITransactions.ReadStateBlockRange[]",
              "name": "readStateBlockRanges",
              "type": "tuple[]"
            },
            {
              "internalType": "uint256",
              "name": "validUntil",
              "type": "uint256"
            },
            {
              "internalType": "uint256",
              "name": "value",
              "type": "uint256"
            },
            {
              "internalType": "uint256",
              "name": "lockedStorageUnitPrice",
              "type": "uint256"
            },
            {
              "internalType": "uint256",
              "name": "storageFeeUsed",
              "type": "uint256"
            }
          ],
          "internalType": "struct ITransactions.Transaction",
          "name": "_transaction",
          "type": "tuple"
        },
        {
          "components": [
            {
              "internalType": "uint256",
              "name": "round",
              "type": "uint256"
            },
            {
              "internalType": "uint256",
              "name": "leaderIndex",
              "type": "uint256"
            },
            {
              "internalType": "uint256",
              "name": "votesCommitted",
              "type": "uint256"
            },
            {
              "internalType": "uint256",
              "name": "votesRevealed",
              "type": "uint256"
            },
            {
              "internalType": "uint256",
              "name": "appealBond",
              "type": "uint256"
            },
            {
              "internalType": "uint256",
              "name": "rotationsLeft",
              "type": "uint256"
            },
            {
              "internalType": "enum ITransactions.ResultType",
              "name": "result",
              "type": "uint8"
            },
            {
              "internalType": "address[]",
              "name": "roundValidators",
              "type": "address[]"
            },
            {
              "internalType": "enum ITransactions.VoteType[]",
              "name": "validatorVotes",
              "type": "uint8[]"
            },
            {
              "internalType": "bytes32[]",
              "name": "validatorVotesHash",
              "type": "bytes32[]"
            },
            {
              "internalType": "bytes32[]",
              "name": "validatorResultHash",
              "type": "bytes32[]"
            }
          ],
          "internalType": "struct ITransactions.RoundData",
          "name": "_roundData",
          "type": "tuple"
        }
      ],
      "name": "checkLeaderRevealData",
      "outputs": [],
      "stateMutability": "pure",
      "type": "function"
    },
    {
      "inputs": [
        {
          "internalType": "enum ITransactions.TransactionStatus",
          "name": "_status",
          "type": "uint8"
        },
        {
          "internalType": "enum ITransactions.TransactionStatus",
          "name": "_allowedStatus0",
          "type": "uint8"
        },
        {
          "internalType": "enum ITransactions.TransactionStatus",
          "name": "_allowedStatus1",
          "type": "uint8"
        }
      ],
      "name": "checkStatus",
      "outputs": [],
      "stateMutability": "view",
      "type": "function"
    },
    {
      "inputs": [
        {
          "internalType": "enum ITransactions.TransactionStatus",
          "name": "_status",
          "type": "uint8"
        },
        {
          "internalType": "enum ITransactions.TransactionStatus",
          "name": "_allowedStatus",
          "type": "uint8"
        }
      ],
      "name": "checkStatus",
      "outputs": [],
      "stateMutability": "view",
      "type": "function"
    },
    {
      "inputs": [
        {
          "internalType": "bool",
          "name": "shouldRevert",
          "type": "bool"
        }
      ],
      "name": "setShouldRevert",
      "outputs": [],
      "stateMutability": "nonpayable",
      "type": "function"
    }
  ],
  "bytecode": "0x608080604052346015576108ff908161001b8239f35b600080fdfe6080604052600436101561001257600080fd5b60003560e01c80630b9fb4af14610732578063508ff068146100d95780636813d787146100a85763e04eafec1461004857600080fd5b346100a35760403660031901126100a357600435600f8110156100a357602435600f8110156100a35760ff60005416918215610098575b505061008757005b637c03108160e11b60005260046000fd5b14159050388061007f565b600080fd5b346100a35760203660031901126100a3576004358015158091036100a35760ff801960005416911617600055600080f35b346100a357366003190161012081126100a35760e0136100a35760405160e081018181106001600160401b038211176106cd576040526004358152602081019060243582526044356040820152606081019160643583526080820191608435835260a4359160058310156100a35760a0820192835260c435916001600160a01b03831683036100a35760c00191825260e435926001600160401b0384116100a3576102e060031985360301126100a357604051946102e086018681106001600160401b038211176106cd57604052846004013560068110156100a3578652602485013560058110156100a35760208701526044850135600f8110156100a3576040870152606485013595600f8710156100a357606081019687526101ff608487016107c1565b608082015261021060a487016107c1565b60a082015261022160c487016107c1565b60c082015261023260e487016107c1565b60e08201526101048601356101008201526101248601356101208201526101448601356101408201526101648601356101608201526101848601356101808201526101a48601356101a08201526101c08101956101c481013587526101e48101356101e08301526102048101356001600160401b0381116100a3576102bd90600436918401016107d5565b6102008301526102248101356001600160401b0381116100a3576102e790600436918401016107d5565b6102208301526102448101356001600160401b0381116100a3578101366023820112156100a357600481013561031c8161082b565b9161032a60405193846107a0565b818352602060046060828601940283010101903682116100a357602401915b8183106106e3575050506102c0916102c4916102408501526102648101356102608501526102848101356102808501526102a48101356102a0850152013591015261010435936001600160401b0385116100a35761016060031986360301126100a3576040519561016087018781106001600160401b038211176106cd576040528560040135875260208701956024810135875260448101356040890152606481013560608901526084810135608089015260a481013560a089015260c481013560068110156100a35760c089015260e48101356001600160401b0381116100a357810190366023830112156100a3576004820135916104488361082b565b9261045660405194856107a0565b808452602060048186019260051b84010101913683116100a357602401905b8282106106b55750505060e089019182526101048101356001600160401b0381116100a3578101366023820112156100a35760048101356104b58161082b565b916104c360405193846107a0565b818352602060048185019360051b83010101903682116100a357602401915b81831061069c575050506101008a01526101248101356001600160401b0381116100a3576105169060043691840101610842565b6101208a01526101448101356001600160401b0381116100a3576101409160046105439236920101610842565b98019788528251815188516001600160a01b039283169291610565919061089f565b511603610660575084519051036106505751915196600588101561063a575190516040519160208301936bffffffffffffffffffffffff199060601b16845260009860f81b603484015260358301526055820152605581526105c86075826107a0565b51902090510361062b57906105df9151905161089f565b5161061c5751600f81101561060857600d19016105f95780f35b637c03108160e11b8152600490fd5b634e487b7160e01b82526021600452602482fd5b632c23b25760e11b8252600482fd5b632f00f12d60e21b8452600484fd5b634e487b7160e01b600052602160045260246000fd5b628a94a760e61b60005260046000fd5b51865183916001600160a01b03916106779161089f565b51169060018060a01b0390511690631aac64ed60e11b60005260045260245260446000fd5b823560058110156100a3578152602092830192016104e2565b602080916106c2846107c1565b815201910190610475565b634e487b7160e01b600052604160045260246000fd5b6060833603126100a3576040519060608201908282106001600160401b038311176106cd5760609260209260405285358152828601358382015260408601356040820152815201920191610349565b346100a35760603660031901126100a357600435600f8110156100a35760243590600f8210156100a357604435600f8110156100a35760ff6000541692831561077f575b50505061008757005b82141592509082610795575b5050818080610776565b14159050818061078b565b90601f801991011681019081106001600160401b038211176106cd57604052565b35906001600160a01b03821682036100a357565b81601f820112156100a3578035906001600160401b0382116106cd5760405192610809601f8401601f1916602001856107a0565b828452602083830101116100a357816000926020809301838601378301015290565b6001600160401b0381116106cd5760051b60200190565b9080601f830112156100a35781356108598161082b565b9261086760405194856107a0565b81845260208085019260051b8201019283116100a357602001905b82821061088f5750505090565b8135815260209182019101610882565b80518210156108b35760209160051b010190565b634e487b7160e01b600052603260045260246000fdfea2646970667358221220c4b9f21dc6ffe231fb3515a182b2e8a8f27bf1c0b5f8ff7c1813d85c5fd7c8ef64736f6c634300081c0033",
  "linkReferences": {},
  "deployedLinkReferences": {}
}