{
  "_format": "hh-sol-artifact-1",
  "contractName": "ArrayUtils",
  "sourceName": "contracts/utils/ArrayUtils.sol",
  "abi": [
    {
      "inputs": [],
      "name": "ValidValidatorNotFound",
      "type": "error"
    },
    {
      "inputs": [
        {
          "internalType": "address[]",
          "name": "_array1",
          "type": "address[]"
        },
        {
          "internalType": "address[]",
          "name": "_array2",
          "type": "address[]"
        },
        {
          "internalType": "uint256",
          "name": "_indexToDrop",
          "type": "uint256"
        }
      ],
      "name": "concatArraysAndDropIndex",
      "outputs": [
        {
          "internalType": "address[]",
          "name": "result",
          "type": "address[]"
        }
      ],
      "stateMutability": "pure",
      "type": "function"
    },
    {
      "inputs": [
        {
          "internalType": "address[]",
          "name": "_baseArray",
          "type": "address[]"
        },
        {
          "internalType": "address[]",
          "name": "_arrayToFilterOut",
          "type": "address[]"
        }
      ],
      "name": "filterOutArrayFromArray",
      "outputs": [
        {
          "internalType": "address[]",
          "name": "finalResult",
          "type": "address[]"
        }
      ],
      "stateMutability": "pure",
      "type": "function"
    },
    {
      "inputs": [
        {
          "internalType": "address[]",
          "name": "_validators",
          "type": "address[]"
        },
        {
          "internalType": "address",
          "name": "_validator",
          "type": "address"
        }
      ],
      "name": "getValidatorIndex",
      "outputs": [
        {
          "internalType": "uint256",
          "name": "",
          "type": "uint256"
        }
      ],
      "stateMutability": "pure",
      "type": "function"
    }
  ],
  "bytecode": "0x60808060405234601957610520908161001f823930815050f35b600080fdfe6080604052600436101561001257600080fd5b60003560e01c806345a6c13c146102d75780635d881d2b146101985763eb504ae31461003d57600080fd5b6040366003190112610193576004356001600160401b03811161019357610068903690600401610391565b6024356001600160401b03811161019357610087903690600401610391565b90610092815161043d565b90600090815b81518310156101435760009384955b8051871015610137576001600160a01b036100c28686610465565b51166001600160a01b036100d68984610465565b5116146100e957600180970196506100a7565b945094509160015b15610103575b60010191939293610098565b9160019061012f906001600160a01b0361011d8686610465565b51166101298289610465565b5261048f565b9290506100f7565b949095509290926100f1565b839061014e8161043d565b9160005b82811061016b576040518061016786826103fa565b0390f35b6001906001600160a01b036101808285610465565b511661018c8287610465565b5201610152565b600080fd5b6060366003190112610193576004356001600160401b038111610193576101c3903690600401610391565b6024356001600160401b038111610193576101e2903690600401610391565b604435918051801515806102ce575b156102c75760015b835182018092116102b15760ff1681039081116102b1576102199061043d565b92600090815b835181101561026657818103610238575b60010161021f565b9160019061025e906001600160a01b036102528688610465565b5116610129828a610465565b929050610230565b5060009250505b82518210156102a35760019061029b906001600160a01b0361028f8587610465565b51166101298288610465565b91019061026d565b6040518061016786826103fa565b634e487b7160e01b600052601160045260246000fd5b60006101f9565b508084106101f1565b6040366003190112610193576004356001600160401b03811161019357610302903690600401610391565b6024356001600160a01b03811681036101935761031e9161049e565b1561032e57602090604051908152f35b630705dfdb60e21b60005260046000fd5b6040519190601f01601f191682016001600160401b0381118382101761036457604052565b634e487b7160e01b600052604160045260246000fd5b6001600160401b0381116103645760051b60200190565b9080601f83011215610193578135906103b16103ac8361037a565b61033f565b9260208085858152019360051b82010191821161019357602001915b8183106103da5750505090565b82356001600160a01b0381168103610193578152602092830192016103cd565b602060408183019282815284518094520192019060005b81811061041e5750505090565b82516001600160a01b0316845260209384019390920191600101610411565b9061044a6103ac8361037a565b828152809261045b601f199161037a565b0190602036910137565b80518210156104795760209160051b010190565b634e487b7160e01b600052603260045260246000fd5b60001981146102b15760010190565b9060005b82518110156104df576001600160a01b036104bd8285610465565b51166001600160a01b038316146104d6576001016104a2565b91505090600190565b50505060009060009056fea264697066735822122086bac2ae9fc1466bc54371b8e819e60af95c04da2b68bdbba973e5f14d6e0abe64736f6c634300081c0033",
  "linkReferences": {},
  "deployedLinkReferences": {}
}