{
  "_format": "hh-sol-artifact-1",
  "contractName": "RoundsLight",
  "sourceName": "contracts/transactions/RoundsLight.sol",
  "abi": [
    {
      "inputs": [],
      "stateMutability": "nonpayable",
      "type": "constructor"
    },
    {
      "inputs": [],
      "name": "InvalidInitialization",
      "type": "error"
    },
    {
      "inputs": [],
      "name": "NotAppealsContract",
      "type": "error"
    },
    {
      "inputs": [],
      "name": "NotInitializing",
      "type": "error"
    },
    {
      "inputs": [
        {
          "internalType": "address",
          "name": "owner",
          "type": "address"
        }
      ],
      "name": "OwnableInvalidOwner",
      "type": "error"
    },
    {
      "inputs": [
        {
          "internalType": "address",
          "name": "account",
          "type": "address"
        }
      ],
      "name": "OwnableUnauthorizedAccount",
      "type": "error"
    },
    {
      "inputs": [],
      "name": "Unauthorized",
      "type": "error"
    },
    {
      "anonymous": false,
      "inputs": [
        {
          "indexed": true,
          "internalType": "address",
          "name": "caller",
          "type": "address"
        },
        {
          "indexed": false,
          "internalType": "bool",
          "name": "authorized",
          "type": "bool"
        }
      ],
      "name": "AuthorizedCallerUpdated",
      "type": "event"
    },
    {
      "anonymous": false,
      "inputs": [
        {
          "indexed": false,
          "internalType": "uint64",
          "name": "version",
          "type": "uint64"
        }
      ],
      "name": "Initialized",
      "type": "event"
    },
    {
      "anonymous": false,
      "inputs": [
        {
          "indexed": true,
          "internalType": "address",
          "name": "previousOwner",
          "type": "address"
        },
        {
          "indexed": true,
          "internalType": "address",
          "name": "newOwner",
          "type": "address"
        }
      ],
      "name": "OwnershipTransferStarted",
      "type": "event"
    },
    {
      "anonymous": false,
      "inputs": [
        {
          "indexed": true,
          "internalType": "address",
          "name": "previousOwner",
          "type": "address"
        },
        {
          "indexed": true,
          "internalType": "address",
          "name": "newOwner",
          "type": "address"
        }
      ],
      "name": "OwnershipTransferred",
      "type": "event"
    },
    {
      "inputs": [],
      "name": "acceptOwnership",
      "outputs": [],
      "stateMutability": "nonpayable",
      "type": "function"
    },
    {
      "inputs": [],
      "name": "addressManager",
      "outputs": [
        {
          "internalType": "contract IAddressManager",
          "name": "",
          "type": "address"
        }
      ],
      "stateMutability": "view",
      "type": "function"
    },
    {
      "inputs": [
        {
          "internalType": "address",
          "name": "",
          "type": "address"
        }
      ],
      "name": "authorizedCallers",
      "outputs": [
        {
          "internalType": "bool",
          "name": "",
          "type": "bool"
        }
      ],
      "stateMutability": "view",
      "type": "function"
    },
    {
      "inputs": [
        {
          "components": [
            {
              "internalType": "enum ITransactions.ResultType",
              "name": "result",
              "type": "uint8"
            },
            {
              "internalType": "enum ITransactions.VoteType",
              "name": "txExecutionResult",
              "type": "uint8"
            },
            {
              "internalType": "enum ITransactions.TransactionStatus",
              "name": "previousStatus",
              "type": "uint8"
            },
            {
              "internalType": "enum ITransactions.TransactionStatus",
              "name": "status",
              "type": "uint8"
            },
            {
              "internalType": "address",
              "name": "txOrigin",
              "type": "address"
            },
            {
              "internalType": "address",
              "name": "sender",
              "type": "address"
            },
            {
              "internalType": "address",
              "name": "recipient",
              "type": "address"
            },
            {
              "internalType": "address",
              "name": "activator",
              "type": "address"
            },
            {
              "internalType": "uint256",
              "name": "txSlot",
              "type": "uint256"
            },
            {
              "internalType": "uint256",
              "name": "initialRotations",
              "type": "uint256"
            },
            {
              "internalType": "uint256",
              "name": "numOfInitialValidators",
              "type": "uint256"
            },
            {
              "internalType": "uint256",
              "name": "epoch",
              "type": "uint256"
            },
            {
              "internalType": "bytes32",
              "name": "id",
              "type": "bytes32"
            },
            {
              "internalType": "bytes32",
              "name": "randomSeed",
              "type": "bytes32"
            },
            {
              "internalType": "bytes32",
              "name": "txExecutionHash",
              "type": "bytes32"
            },
            {
              "internalType": "bytes32",
              "name": "resultHash",
              "type": "bytes32"
            },
            {
              "internalType": "bytes",
              "name": "txCalldata",
              "type": "bytes"
            },
            {
              "internalType": "bytes",
              "name": "eqBlocksOutputs",
              "type": "bytes"
            },
            {
              "components": [
                {
                  "internalType": "uint256",
                  "name": "activationBlock",
                  "type": "uint256"
                },
                {
                  "internalType": "uint256",
                  "name": "processingBlock",
                  "type": "uint256"
                },
                {
                  "internalType": "uint256",
                  "name": "proposalBlock",
                  "type": "uint256"
                }
              ],
              "internalType": "struct ITransactions.ReadStateBlockRange[]",
              "name": "readStateBlockRanges",
              "type": "tuple[]"
            },
            {
              "internalType": "uint256",
              "name": "validUntil",
              "type": "uint256"
            },
            {
              "internalType": "uint256",
              "name": "value",
              "type": "uint256"
            },
            {
              "internalType": "uint256",
              "name": "lockedStorageUnitPrice",
              "type": "uint256"
            },
            {
              "internalType": "uint256",
              "name": "storageFeeUsed",
              "type": "uint256"
            }
          ],
          "internalType": "struct ITransactions.Transaction",
          "name": "_tx",
          "type": "tuple"
        }
      ],
      "name": "createFirstRound",
      "outputs": [
        {
          "internalType": "bool",
          "name": "isInvalid",
          "type": "bool"
        },
        {
          "internalType": "address[]",
          "name": "roundValidators",
          "type": "address[]"
        },
        {
          "internalType": "uint256",
          "name": "leaderIndex",
          "type": "uint256"
        }
      ],
      "stateMutability": "nonpayable",
      "type": "function"
    },
    {
      "inputs": [
        {
          "components": [
            {
              "internalType": "enum ITransactions.ResultType",
              "name": "result",
              "type": "uint8"
            },
            {
              "internalType": "enum ITransactions.VoteType",
              "name": "txExecutionResult",
              "type": "uint8"
            },
            {
              "internalType": "enum ITransactions.TransactionStatus",
              "name": "previousStatus",
              "type": "uint8"
            },
            {
              "internalType": "enum ITransactions.TransactionStatus",
              "name": "status",
              "type": "uint8"
            },
            {
              "internalType": "address",
              "name": "txOrigin",
              "type": "address"
            },
            {
              "internalType": "address",
              "name": "sender",
              "type": "address"
            },
            {
              "internalType": "address",
              "name": "recipient",
              "type": "address"
            },
            {
              "internalType": "address",
              "name": "activator",
              "type": "address"
            },
            {
              "internalType": "uint256",
              "name": "txSlot",
              "type": "uint256"
            },
            {
              "internalType": "uint256",
              "name": "initialRotations",
              "type": "uint256"
            },
            {
              "internalType": "uint256",
              "name": "numOfInitialValidators",
              "type": "uint256"
            },
            {
              "internalType": "uint256",
              "name": "epoch",
              "type": "uint256"
            },
            {
              "internalType": "bytes32",
              "name": "id",
              "type": "bytes32"
            },
            {
              "internalType": "bytes32",
              "name": "randomSeed",
              "type": "bytes32"
            },
            {
              "internalType": "bytes32",
              "name": "txExecutionHash",
              "type": "bytes32"
            },
            {
              "internalType": "bytes32",
              "name": "resultHash",
              "type": "bytes32"
            },
            {
              "internalType": "bytes",
              "name": "txCalldata",
              "type": "bytes"
            },
            {
              "internalType": "bytes",
              "name": "eqBlocksOutputs",
              "type": "bytes"
            },
            {
              "components": [
                {
                  "internalType": "uint256",
                  "name": "activationBlock",
                  "type": "uint256"
                },
                {
                  "internalType": "uint256",
                  "name": "processingBlock",
                  "type": "uint256"
                },
                {
                  "internalType": "uint256",
                  "name": "proposalBlock",
                  "type": "uint256"
                }
              ],
              "internalType": "struct ITransactions.ReadStateBlockRange[]",
              "name": "readStateBlockRanges",
              "type": "tuple[]"
            },
            {
              "internalType": "uint256",
              "name": "validUntil",
              "type": "uint256"
            },
            {
              "internalType": "uint256",
              "name": "value",
              "type": "uint256"
            },
            {
              "internalType": "uint256",
              "name": "lockedStorageUnitPrice",
              "type": "uint256"
            },
            {
              "internalType": "uint256",
              "name": "storageFeeUsed",
              "type": "uint256"
            }
          ],
          "internalType": "struct ITransactions.Transaction",
          "name": "_tx",
          "type": "tuple"
        },
        {
          "internalType": "uint256",
          "name": "_appealBond",
          "type": "uint256"
        }
      ],
      "name": "createNewLeaderAppealRound",
      "outputs": [
        {
          "internalType": "address[]",
          "name": "newValidators",
          "type": "address[]"
        },
        {
          "internalType": "uint256",
          "name": "round",
          "type": "uint256"
        },
        {
          "internalType": "address",
          "name": "newLeader",
          "type": "address"
        },
        {
          "internalType": "uint256",
          "name": "leaderIndex",
          "type": "uint256"
        }
      ],
      "stateMutability": "nonpayable",
      "type": "function"
    },
    {
      "inputs": [
        {
          "internalType": "bytes32",
          "name": "_txId",
          "type": "bytes32"
        },
        {
          "internalType": "uint256",
          "name": "_appealBond",
          "type": "uint256"
        }
      ],
      "name": "createNewLeaderTimeoutAppealRound",
      "outputs": [
        {
          "internalType": "address[]",
          "name": "appealValidators",
          "type": "address[]"
        },
        {
          "internalType": "uint256",
          "name": "round",
          "type": "uint256"
        },
        {
          "internalType": "address",
          "name": "newLeader",
          "type": "address"
        },
        {
          "internalType": "uint256",
          "name": "leaderIndex",
          "type": "uint256"
        }
      ],
      "stateMutability": "nonpayable",
      "type": "function"
    },
    {
      "inputs": [
        {
          "components": [
            {
              "internalType": "enum ITransactions.ResultType",
              "name": "result",
              "type": "uint8"
            },
            {
              "internalType": "enum ITransactions.VoteType",
              "name": "txExecutionResult",
              "type": "uint8"
            },
            {
              "internalType": "enum ITransactions.TransactionStatus",
              "name": "previousStatus",
              "type": "uint8"
            },
            {
              "internalType": "enum ITransactions.TransactionStatus",
              "name": "status",
              "type": "uint8"
            },
            {
              "internalType": "address",
              "name": "txOrigin",
              "type": "address"
            },
            {
              "internalType": "address",
              "name": "sender",
              "type": "address"
            },
            {
              "internalType": "address",
              "name": "recipient",
              "type": "address"
            },
            {
              "internalType": "address",
              "name": "activator",
              "type": "address"
            },
            {
              "internalType": "uint256",
              "name": "txSlot",
              "type": "uint256"
            },
            {
              "internalType": "uint256",
              "name": "initialRotations",
              "type": "uint256"
            },
            {
              "internalType": "uint256",
              "name": "numOfInitialValidators",
              "type": "uint256"
            },
            {
              "internalType": "uint256",
              "name": "epoch",
              "type": "uint256"
            },
            {
              "internalType": "bytes32",
              "name": "id",
              "type": "bytes32"
            },
            {
              "internalType": "bytes32",
              "name": "randomSeed",
              "type": "bytes32"
            },
            {
              "internalType": "bytes32",
              "name": "txExecutionHash",
              "type": "bytes32"
            },
            {
              "internalType": "bytes32",
              "name": "resultHash",
              "type": "bytes32"
            },
            {
              "internalType": "bytes",
              "name": "txCalldata",
              "type": "bytes"
            },
            {
              "internalType": "bytes",
              "name": "eqBlocksOutputs",
              "type": "bytes"
            },
            {
              "components": [
                {
                  "internalType": "uint256",
                  "name": "activationBlock",
                  "type": "uint256"
                },
                {
                  "internalType": "uint256",
                  "name": "processingBlock",
                  "type": "uint256"
                },
                {
                  "internalType": "uint256",
                  "name": "proposalBlock",
                  "type": "uint256"
                }
              ],
              "internalType": "struct ITransactions.ReadStateBlockRange[]",
              "name": "readStateBlockRanges",
              "type": "tuple[]"
            },
            {
              "internalType": "uint256",
              "name": "validUntil",
              "type": "uint256"
            },
            {
              "internalType": "uint256",
              "name": "value",
              "type": "uint256"
            },
            {
              "internalType": "uint256",
              "name": "lockedStorageUnitPrice",
              "type": "uint256"
            },
            {
              "internalType": "uint256",
              "name": "storageFeeUsed",
              "type": "uint256"
            }
          ],
          "internalType": "struct ITransactions.Transaction",
          "name": "_tx",
          "type": "tuple"
        },
        {
          "internalType": "uint256",
          "name": "_appealBond",
          "type": "uint256"
        }
      ],
      "name": "createNewValidatorAppealRound",
      "outputs": [
        {
          "internalType": "address[]",
          "name": "appealValidators",
          "type": "address[]"
        },
        {
          "internalType": "uint256",
          "name": "round",
          "type": "uint256"
        },
        {
          "internalType": "uint256",
          "name": "leaderIndex",
          "type": "uint256"
        }
      ],
      "stateMutability": "nonpayable",
      "type": "function"
    },
    {
      "inputs": [
        {
          "internalType": "bytes32",
          "name": "_txId",
          "type": "bytes32"
        }
      ],
      "name": "decrementRotationsLeft",
      "outputs": [],
      "stateMutability": "nonpayable",
      "type": "function"
    },
    {
      "inputs": [
        {
          "internalType": "bytes32",
          "name": "_txId",
          "type": "bytes32"
        }
      ],
      "name": "getLastRoundData",
      "outputs": [
        {
          "internalType": "uint256",
          "name": "",
          "type": "uint256"
        },
        {
          "components": [
            {
              "internalType": "uint256",
              "name": "round",
              "type": "uint256"
            },
            {
              "internalType": "uint256",
              "name": "leaderIndex",
              "type": "uint256"
            },
            {
              "internalType": "uint256",
              "name": "votesCommitted",
              "type": "uint256"
            },
            {
              "internalType": "uint256",
              "name": "votesRevealed",
              "type": "uint256"
            },
            {
              "internalType": "uint256",
              "name": "appealBond",
              "type": "uint256"
            },
            {
              "internalType": "uint256",
              "name": "rotationsLeft",
              "type": "uint256"
            },
            {
              "internalType": "enum ITransactions.ResultType",
              "name": "result",
              "type": "uint8"
            },
            {
              "internalType": "address[]",
              "name": "roundValidators",
              "type": "address[]"
            },
            {
              "internalType": "enum ITransactions.VoteType[]",
              "name": "validatorVotes",
              "type": "uint8[]"
            },
            {
              "internalType": "bytes32[]",
              "name": "validatorVotesHash",
              "type": "bytes32[]"
            },
            {
              "internalType": "bytes32[]",
              "name": "validatorResultHash",
              "type": "bytes32[]"
            }
          ],
          "internalType": "struct ITransactions.RoundData",
          "name": "",
          "type": "tuple"
        }
      ],
      "stateMutability": "view",
      "type": "function"
    },
    {
      "inputs": [
        {
          "components": [
            {
              "internalType": "enum ITransactions.ResultType",
              "name": "result",
              "type": "uint8"
            },
            {
              "internalType": "enum ITransactions.VoteType",
              "name": "txExecutionResult",
              "type": "uint8"
            },
            {
              "internalType": "enum ITransactions.TransactionStatus",
              "name": "previousStatus",
              "type": "uint8"
            },
            {
              "internalType": "enum ITransactions.TransactionStatus",
              "name": "status",
              "type": "uint8"
            },
            {
              "internalType": "address",
              "name": "txOrigin",
              "type": "address"
            },
            {
              "internalType": "address",
              "name": "sender",
              "type": "address"
            },
            {
              "internalType": "address",
              "name": "recipient",
              "type": "address"
            },
            {
              "internalType": "address",
              "name": "activator",
              "type": "address"
            },
            {
              "internalType": "uint256",
              "name": "txSlot",
              "type": "uint256"
            },
            {
              "internalType": "uint256",
              "name": "initialRotations",
              "type": "uint256"
            },
            {
              "internalType": "uint256",
              "name": "numOfInitialValidators",
              "type": "uint256"
            },
            {
              "internalType": "uint256",
              "name": "epoch",
              "type": "uint256"
            },
            {
              "internalType": "bytes32",
              "name": "id",
              "type": "bytes32"
            },
            {
              "internalType": "bytes32",
              "name": "randomSeed",
              "type": "bytes32"
            },
            {
              "internalType": "bytes32",
              "name": "txExecutionHash",
              "type": "bytes32"
            },
            {
              "internalType": "bytes32",
              "name": "resultHash",
              "type": "bytes32"
            },
            {
              "internalType": "bytes",
              "name": "txCalldata",
              "type": "bytes"
            },
            {
              "internalType": "bytes",
              "name": "eqBlocksOutputs",
              "type": "bytes"
            },
            {
              "components": [
                {
                  "internalType": "uint256",
                  "name": "activationBlock",
                  "type": "uint256"
                },
                {
                  "internalType": "uint256",
                  "name": "processingBlock",
                  "type": "uint256"
                },
                {
                  "internalType": "uint256",
                  "name": "proposalBlock",
                  "type": "uint256"
                }
              ],
              "internalType": "struct ITransactions.ReadStateBlockRange[]",
              "name": "readStateBlockRanges",
              "type": "tuple[]"
            },
            {
              "internalType": "uint256",
              "name": "validUntil",
              "type": "uint256"
            },
            {
              "internalType": "uint256",
              "name": "value",
              "type": "uint256"
            },
            {
              "internalType": "uint256",
              "name": "lockedStorageUnitPrice",
              "type": "uint256"
            },
            {
              "internalType": "uint256",
              "name": "storageFeeUsed",
              "type": "uint256"
            }
          ],
          "internalType": "struct ITransactions.Transaction",
          "name": "_tx",
          "type": "tuple"
        },
        {
          "internalType": "bool",
          "name": "_isTxHanging",
          "type": "bool"
        }
      ],
      "name": "getMajorityVoteAndSetResult",
      "outputs": [
        {
          "internalType": "enum ITransactions.ResultType",
          "name": "majorVoted",
          "type": "uint8"
        },
        {
          "internalType": "bool",
          "name": "leaderRotated",
          "type": "bool"
        },
        {
          "internalType": "bool",
          "name": "tribunalAppeal",
          "type": "bool"
        },
        {
          "internalType": "enum ITransactions.TransactionStatus",
          "name": "newStatus",
          "type": "uint8"
        },
        {
          "components": [
            {
              "internalType": "uint256",
              "name": "round",
              "type": "uint256"
            },
            {
              "internalType": "uint256",
              "name": "leaderIndex",
              "type": "uint256"
            },
            {
              "internalType": "uint256",
              "name": "votesCommitted",
              "type": "uint256"
            },
            {
              "internalType": "uint256",
              "name": "votesRevealed",
              "type": "uint256"
            },
            {
              "internalType": "uint256",
              "name": "appealBond",
              "type": "uint256"
            },
            {
              "internalType": "uint256",
              "name": "rotationsLeft",
              "type": "uint256"
            },
            {
              "internalType": "enum ITransactions.ResultType",
              "name": "result",
              "type": "uint8"
            },
            {
              "internalType": "address[]",
              "name": "roundValidators",
              "type": "address[]"
            },
            {
              "internalType": "enum ITransactions.VoteType[]",
              "name": "validatorVotes",
              "type": "uint8[]"
            },
            {
              "internalType": "bytes32[]",
              "name": "validatorVotesHash",
              "type": "bytes32[]"
            },
            {
              "internalType": "bytes32[]",
              "name": "validatorResultHash",
              "type": "bytes32[]"
            }
          ],
          "internalType": "struct ITransactions.RoundData",
          "name": "newRoundData",
          "type": "tuple"
        },
        {
          "components": [
            {
              "internalType": "address",
              "name": "slashedLeader",
              "type": "address"
            },
            {
              "internalType": "bytes32",
              "name": "leaderResultHash",
              "type": "bytes32"
            }
          ],
          "internalType": "struct ITransactions.TribunalAppealData",
          "name": "tribunalAppealData",
          "type": "tuple"
        }
      ],
      "stateMutability": "nonpayable",
      "type": "function"
    },
    {
      "inputs": [
        {
          "internalType": "bytes32",
          "name": "_txId",
          "type": "bytes32"
        }
      ],
      "name": "getRotationsLeft",
      "outputs": [
        {
          "internalType": "uint256",
          "name": "",
          "type": "uint256"
        }
      ],
      "stateMutability": "view",
      "type": "function"
    },
    {
      "inputs": [
        {
          "internalType": "bytes32",
          "name": "_txId",
          "type": "bytes32"
        },
        {
          "internalType": "uint256",
          "name": "_round",
          "type": "uint256"
        }
      ],
      "name": "getRoundData",
      "outputs": [
        {
          "components": [
            {
              "internalType": "uint256",
              "name": "round",
              "type": "uint256"
            },
            {
              "internalType": "uint256",
              "name": "leaderIndex",
              "type": "uint256"
            },
            {
              "internalType": "uint256",
              "name": "votesCommitted",
              "type": "uint256"
            },
            {
              "internalType": "uint256",
              "name": "votesRevealed",
              "type": "uint256"
            },
            {
              "internalType": "uint256",
              "name": "appealBond",
              "type": "uint256"
            },
            {
              "internalType": "uint256",
              "name": "rotationsLeft",
              "type": "uint256"
            },
            {
              "internalType": "enum ITransactions.ResultType",
              "name": "result",
              "type": "uint8"
            },
            {
              "internalType": "address[]",
              "name": "roundValidators",
              "type": "address[]"
            },
            {
              "internalType": "enum ITransactions.VoteType[]",
              "name": "validatorVotes",
              "type": "uint8[]"
            },
            {
              "internalType": "bytes32[]",
              "name": "validatorVotesHash",
              "type": "bytes32[]"
            },
            {
              "internalType": "bytes32[]",
              "name": "validatorResultHash",
              "type": "bytes32[]"
            }
          ],
          "internalType": "struct ITransactions.RoundData",
          "name": "",
          "type": "tuple"
        }
      ],
      "stateMutability": "view",
      "type": "function"
    },
    {
      "inputs": [
        {
          "internalType": "bytes32",
          "name": "_txId",
          "type": "bytes32"
        }
      ],
      "name": "getRoundNumber",
      "outputs": [
        {
          "internalType": "uint256",
          "name": "",
          "type": "uint256"
        }
      ],
      "stateMutability": "view",
      "type": "function"
    },
    {
      "inputs": [
        {
          "internalType": "address",
          "name": "_addressManager",
          "type": "address"
        }
      ],
      "name": "initialize",
      "outputs": [],
      "stateMutability": "nonpayable",
      "type": "function"
    },
    {
      "inputs": [],
      "name": "owner",
      "outputs": [
        {
          "internalType": "address",
          "name": "",
          "type": "address"
        }
      ],
      "stateMutability": "view",
      "type": "function"
    },
    {
      "inputs": [],
      "name": "pendingOwner",
      "outputs": [
        {
          "internalType": "address",
          "name": "",
          "type": "address"
        }
      ],
      "stateMutability": "view",
      "type": "function"
    },
    {
      "inputs": [],
      "name": "renounceOwnership",
      "outputs": [],
      "stateMutability": "nonpayable",
      "type": "function"
    },
    {
      "inputs": [
        {
          "internalType": "address",
          "name": "caller",
          "type": "address"
        },
        {
          "internalType": "bool",
          "name": "authorized",
          "type": "bool"
        }
      ],
      "name": "setAuthorizedCaller",
      "outputs": [],
      "stateMutability": "nonpayable",
      "type": "function"
    },
    {
      "inputs": [
        {
          "internalType": "address[]",
          "name": "callers",
          "type": "address[]"
        },
        {
          "internalType": "bool",
          "name": "authorized",
          "type": "bool"
        }
      ],
      "name": "setAuthorizedCallers",
      "outputs": [],
      "stateMutability": "nonpayable",
      "type": "function"
    },
    {
      "inputs": [
        {
          "internalType": "address",
          "name": "newOwner",
          "type": "address"
        }
      ],
      "name": "transferOwnership",
      "outputs": [],
      "stateMutability": "nonpayable",
      "type": "function"
    },
    {
      "inputs": [
        {
          "internalType": "bytes32",
          "name": "_txId",
          "type": "bytes32"
        },
        {
          "internalType": "uint256",
          "name": "_round",
          "type": "uint256"
        },
        {
          "internalType": "address",
          "name": "_validator",
          "type": "address"
        },
        {
          "internalType": "bytes32",
          "name": "_commitHash",
          "type": "bytes32"
        },
        {
          "internalType": "uint256",
          "name": "_validatorIndex",
          "type": "uint256"
        },
        {
          "components": [
            {
              "internalType": "uint256",
              "name": "round",
              "type": "uint256"
            },
            {
              "internalType": "uint256",
              "name": "leaderIndex",
              "type": "uint256"
            },
            {
              "internalType": "uint256",
              "name": "votesCommitted",
              "type": "uint256"
            },
            {
              "internalType": "uint256",
              "name": "votesRevealed",
              "type": "uint256"
            },
            {
              "internalType": "uint256",
              "name": "appealBond",
              "type": "uint256"
            },
            {
              "internalType": "uint256",
              "name": "rotationsLeft",
              "type": "uint256"
            },
            {
              "internalType": "enum ITransactions.ResultType",
              "name": "result",
              "type": "uint8"
            },
            {
              "internalType": "address[]",
              "name": "roundValidators",
              "type": "address[]"
            },
            {
              "internalType": "enum ITransactions.VoteType[]",
              "name": "validatorVotes",
              "type": "uint8[]"
            },
            {
              "internalType": "bytes32[]",
              "name": "validatorVotesHash",
              "type": "bytes32[]"
            },
            {
              "internalType": "bytes32[]",
              "name": "validatorResultHash",
              "type": "bytes32[]"
            }
          ],
          "internalType": "struct ITransactions.RoundData",
          "name": "_roundData",
          "type": "tuple"
        }
      ],
      "name": "updateCommitVote",
      "outputs": [],
      "stateMutability": "nonpayable",
      "type": "function"
    },
    {
      "inputs": [
        {
          "internalType": "bytes32",
          "name": "_txId",
          "type": "bytes32"
        },
        {
          "internalType": "uint256",
          "name": "_round",
          "type": "uint256"
        },
        {
          "internalType": "address",
          "name": "_newLeader",
          "type": "address"
        },
        {
          "internalType": "uint256",
          "name": "_leaderIndex",
          "type": "uint256"
        },
        {
          "internalType": "bool",
          "name": "_resetVotes",
          "type": "bool"
        }
      ],
      "name": "updateLeaderAndResetVotes",
      "outputs": [],
      "stateMutability": "nonpayable",
      "type": "function"
    },
    {
      "inputs": [
        {
          "components": [
            {
              "internalType": "enum ITransactions.ResultType",
              "name": "result",
              "type": "uint8"
            },
            {
              "internalType": "enum ITransactions.VoteType",
              "name": "txExecutionResult",
              "type": "uint8"
            },
            {
              "internalType": "enum ITransactions.TransactionStatus",
              "name": "previousStatus",
              "type": "uint8"
            },
            {
              "internalType": "enum ITransactions.TransactionStatus",
              "name": "status",
              "type": "uint8"
            },
            {
              "internalType": "address",
              "name": "txOrigin",
              "type": "address"
            },
            {
              "internalType": "address",
              "name": "sender",
              "type": "address"
            },
            {
              "internalType": "address",
              "name": "recipient",
              "type": "address"
            },
            {
              "internalType": "address",
              "name": "activator",
              "type": "address"
            },
            {
              "internalType": "uint256",
              "name": "txSlot",
              "type": "uint256"
            },
            {
              "internalType": "uint256",
              "name": "initialRotations",
              "type": "uint256"
            },
            {
              "internalType": "uint256",
              "name": "numOfInitialValidators",
              "type": "uint256"
            },
            {
              "internalType": "uint256",
              "name": "epoch",
              "type": "uint256"
            },
            {
              "internalType": "bytes32",
              "name": "id",
              "type": "bytes32"
            },
            {
              "internalType": "bytes32",
              "name": "randomSeed",
              "type": "bytes32"
            },
            {
              "internalType": "bytes32",
              "name": "txExecutionHash",
              "type": "bytes32"
            },
            {
              "internalType": "bytes32",
              "name": "resultHash",
              "type": "bytes32"
            },
            {
              "internalType": "bytes",
              "name": "txCalldata",
              "type": "bytes"
            },
            {
              "internalType": "bytes",
              "name": "eqBlocksOutputs",
              "type": "bytes"
            },
            {
              "components": [
                {
                  "internalType": "uint256",
                  "name": "activationBlock",
                  "type": "uint256"
                },
                {
                  "internalType": "uint256",
                  "name": "processingBlock",
                  "type": "uint256"
                },
                {
                  "internalType": "uint256",
                  "name": "proposalBlock",
                  "type": "uint256"
                }
              ],
              "internalType": "struct ITransactions.ReadStateBlockRange[]",
              "name": "readStateBlockRanges",
              "type": "tuple[]"
            },
            {
              "internalType": "uint256",
              "name": "validUntil",
              "type": "uint256"
            },
            {
              "internalType": "uint256",
              "name": "value",
              "type": "uint256"
            },
            {
              "internalType": "uint256",
              "name": "lockedStorageUnitPrice",
              "type": "uint256"
            },
            {
              "internalType": "uint256",
              "name": "storageFeeUsed",
              "type": "uint256"
            }
          ],
          "internalType": "struct ITransactions.Transaction",
          "name": "_tx",
          "type": "tuple"
        },
        {
          "internalType": "uint256",
          "name": "_round",
          "type": "uint256"
        },
        {
          "internalType": "uint256",
          "name": "_validatorIndex",
          "type": "uint256"
        },
        {
          "internalType": "bytes32",
          "name": "_resultVoteHash",
          "type": "bytes32"
        },
        {
          "internalType": "address",
          "name": "",
          "type": "address"
        },
        {
          "internalType": "enum ITransactions.VoteType",
          "name": "_voteType",
          "type": "uint8"
        }
      ],
      "name": "updateRevealVote",
      "outputs": [
        {
          "internalType": "enum ITransactions.ResultType",
          "name": "majorVoted",
          "type": "uint8"
        },
        {
          "internalType": "bool",
          "name": "isLastVote",
          "type": "bool"
        },
        {
          "internalType": "bool",
          "name": "leaderRotated",
          "type": "bool"
        },
        {
          "internalType": "bool",
          "name": "tribunalAppeal",
          "type": "bool"
        },
        {
          "internalType": "enum ITransactions.TransactionStatus",
          "name": "newStatus",
          "type": "uint8"
        },
        {
          "components": [
            {
              "internalType": "uint256",
              "name": "round",
              "type": "uint256"
            },
            {
              "internalType": "uint256",
              "name": "leaderIndex",
              "type": "uint256"
            },
            {
              "internalType": "uint256",
              "name": "votesCommitted",
              "type": "uint256"
            },
            {
              "internalType": "uint256",
              "name": "votesRevealed",
              "type": "uint256"
            },
            {
              "internalType": "uint256",
              "name": "appealBond",
              "type": "uint256"
            },
            {
              "internalType": "uint256",
              "name": "rotationsLeft",
              "type": "uint256"
            },
            {
              "internalType": "enum ITransactions.ResultType",
              "name": "result",
              "type": "uint8"
            },
            {
              "internalType": "address[]",
              "name": "roundValidators",
              "type": "address[]"
            },
            {
              "internalType": "enum ITransactions.VoteType[]",
              "name": "validatorVotes",
              "type": "uint8[]"
            },
            {
              "internalType": "bytes32[]",
              "name": "validatorVotesHash",
              "type": "bytes32[]"
            },
            {
              "internalType": "bytes32[]",
              "name": "validatorResultHash",
              "type": "bytes32[]"
            }
          ],
          "internalType": "struct ITransactions.RoundData",
          "name": "newRoundData",
          "type": "tuple"
        },
        {
          "components": [
            {
              "internalType": "address",
              "name": "slashedLeader",
              "type": "address"
            },
            {
              "internalType": "bytes32",
              "name": "leaderResultHash",
              "type": "bytes32"
            }
          ],
          "internalType": "struct ITransactions.TribunalAppealData",
          "name": "tribunalAppealData",
          "type": "tuple"
        }
      ],
      "stateMutability": "nonpayable",
      "type": "function"
    },
    {
      "inputs": [
        {
          "internalType": "bytes32",
          "name": "_txId",
          "type": "bytes32"
        },
        {
          "internalType": "uint256",
          "name": "_round",
          "type": "uint256"
        },
        {
          "components": [
            {
              "internalType": "uint256",
              "name": "round",
              "type": "uint256"
            },
            {
              "internalType": "uint256",
              "name": "leaderIndex",
              "type": "uint256"
            },
            {
              "internalType": "uint256",
              "name": "votesCommitted",
              "type": "uint256"
            },
            {
              "internalType": "uint256",
              "name": "votesRevealed",
              "type": "uint256"
            },
            {
              "internalType": "uint256",
              "name": "appealBond",
              "type": "uint256"
            },
            {
              "internalType": "uint256",
              "name": "rotationsLeft",
              "type": "uint256"
            },
            {
              "internalType": "enum ITransactions.ResultType",
              "name": "result",
              "type": "uint8"
            },
            {
              "internalType": "address[]",
              "name": "roundValidators",
              "type": "address[]"
            },
            {
              "internalType": "enum ITransactions.VoteType[]",
              "name": "validatorVotes",
              "type": "uint8[]"
            },
            {
              "internalType": "bytes32[]",
              "name": "validatorVotesHash",
              "type": "bytes32[]"
            },
            {
              "internalType": "bytes32[]",
              "name": "validatorResultHash",
              "type": "bytes32[]"
            }
          ],
          "internalType": "struct ITransactions.RoundData",
          "name": "_roundData",
          "type": "tuple"
        }
      ],
      "name": "updateRoundData",
      "outputs": [],
      "stateMutability": "nonpayable",
      "type": "function"
    }
  ],
  "bytecode": "0x6080806040523460d2577ff0c57e16840df040f15088dc2f81fe391c3923bec73e23a9662efc9c229c6a005460ff8160401c1660c1576002600160401b03196001600160401b03821601605c575b60405161244490816100d88239f35b6001600160401b0319166001600160401b039081177ff0c57e16840df040f15088dc2f81fe391c3923bec73e23a9662efc9c229c6a005581527fc7f505b2f371ae2175ee4913f4499e1f2633a7b5936321eed1cdaeb6115181d290602090a13880604d565b63f92ee8a960e01b60005260046000fd5b600080fdfe6080604052600436101561001257600080fd5b6000803560e01c8063090263a71461130c57806332aa8e6a1461124d5780633ab76e9f14611226578063454bbd29146111a8578063536fff6c146111695780635af54469146110b2578063715018a61461103157806371fc631114610f4457806379ba509714610ef357806384c2483114610e2d5780638858751314610d825780638da5cb5b14610d4c578063998f979914610c60578063a12c6af714610b6e578063a6cd198d146109bb578063ba15d63514610961578063c4d66de8146107d4578063c5281478146106aa578063d7360c9a1461060a578063e30c3978146105d4578063e6cc3970146103a2578063f2fde38b1461031a578063f40e537e146101c65763f66530b91461012557600080fd5b346101c35760203660031901126101c35760249060206001600160a01b0361014b61219c565b1660405193848092632ba69b2960e21b825260043560048301525afa9081156101b7579061017f575b602090604051908152f35b506020813d6020116101af575b8161019960209383611464565b810103126101aa5760209051610174565b600080fd5b3d915061018c565b604051903d90823e3d90fd5b80fd5b50346101c3576101d536611b31565b8254604051631bae711d60e21b8152919392919060209082906001600160a01b031681806102056004820161209d565b03915afa90811561030f5783916102d1575b506001600160a01b031633036102c25761025c9282916001600160a01b0361023d6122b6565b169083604051809781958294637a0729bf60e11b845260048401612081565b03925af180156102b557818093818093610288575b5050906102849160405194859485611b9f565b0390f35b9150915061028493506102ad92503d8091833e6102a58183611464565b8101906120bf565b919338610271565b50604051903d90823e3d90fd5b63a5a4297b60e01b8252600482fd5b90506020813d602011610307575b816102ec60209383611464565b81010312610303576102fd90611c71565b38610217565b8280fd5b3d91506102df565b6040513d85823e3d90fd5b50346101c35760203660031901126101c35761033461149c565b61033c612166565b6000805160206123ef83398151915280546001600160a01b0319166001600160a01b039283169081179091556000805160206123af833981519152549091167f38d16b8cac22d99fc7c124b9cd0de2d3fa1faef420bfe791d8c362d765e227008380a380f35b50346101c35760c03660031901126101c3576004356001600160401b0381116105b7576103d39036906004016118e5565b6103db6114c8565b5060a435906005821015610303576103f1611c19565b506103fa612102565b50338352600160205260ff604084205416156105c657829061047490610451836001600160a01b0361042a61231c565b169260405196879586948593631670d52b60e31b855260a0600486015260a4850190611ed9565b916024356024850152604435604485015260643560648501526084840190611737565b03925af180156105bb5782918384859186938780966104fc575b5050610284936104df936104ad98936104cc936040519a8b809b611714565b151560208a015215156040890152151560608801526080870190611bd2565b61010060a0860152610100850190611778565b82516001600160a01b031660c085015260209092015160e0840152565b9650965050505050503d8082843e6105148184611464565b8201610100838203126105b7578251926006841015610303576105396020820161211b565b926105466040830161211b565b926105536060840161211b565b90608084015192600f8410156101c35760a0850151906001600160401b0382116101c35750936104df936104ad98936105a18460c061059a6104cc976102849b8801611d47565b9501612128565b949897909192949793509398509381955061048e565b5080fd5b6040513d84823e3d90fd5b6282b42960e81b8352600483fd5b50346101c357806003193601126101c3576000805160206123ef833981519152546040516001600160a01b039091168152602090f35b50346101c35760203660031901126101c357338152600160205260ff6040822054161561069c578060206001600160a01b0361064461219c565b1660246040518094819363e1c976bd60e01b835260043560048401525af180156105bb57610670575080f35b6106919060203d602011610695575b6106898183611464565b810190612157565b5080f35b503d61067f565b6282b42960e81b8152600490fd5b50346101c35760203660031901126101c3576004356001600160401b0381116105b7576106db9036906004016118e5565b338252600160205260ff604083205416156107c6578190819061072e906001600160a01b036107086122b6565b16906040519586809481936318a5028f60e31b8352602060048401526024830190611ed9565b03925af180156102b557818093819261076c575b505061076260405193849315158452606060208501526060840190611b62565b9060408301520390f35b92509250503d8083833e6107808183611464565b8101606082820312610303576107958261211b565b926020830151906001600160401b0382116101c357506040916107b9918401611c85565b9101519190913880610742565b6282b42960e81b8252600482fd5b50346101c35760203660031901126101c3576107ee61149c565b6000805160206123cf833981519152549060ff8260401c1615916001600160401b03811680159081610959575b600114908161094f575b159081610946575b506109375767ffffffffffffffff1981166001176000805160206123cf833981519152558261090a575b50610860612380565b610868612380565b610870612380565b33156108f65761087f33612248565b82546001600160a01b0319166001600160a01b03919091161782556108a15780f35b60ff60401b196000805160206123cf83398151915254166000805160206123cf833981519152557fc7f505b2f371ae2175ee4913f4499e1f2633a7b5936321eed1cdaeb6115181d2602060405160018152a180f35b631e4fbdf760e01b83526004839052602483fd5b68ffffffffffffffffff191668010000000000000001176000805160206123cf8339815191525538610857565b63f92ee8a960e01b8452600484fd5b9050153861082d565b303b159150610825565b84915061081b565b50346101c35760203660031901126101c35760249060206001600160a01b0361098861219c565b166040519384809263ba15d63560e01b825260043560048301525afa9081156101b7579061017f57602090604051908152f35b50346101c35760403660031901126101c3576004356001600160401b0381116105b7576109ec9036906004016118e5565b81610a426109f8611408565b92610a01611c19565b50610a0a612102565b506001600160a01b03610a1b61231c565b16908360405180968195829463a6cd198d60e01b8452604060048501526044840190611ed9565b901515602483015203925af180156105bb5782918384908592868095610ac7575b505094610a9961028493610aaa93610a8198604051998a809a611714565b15156020890152151560408801526060870190611bd2565b60e0608086015260e0850190611778565b82516001600160a01b031660a085015260209092015160c0840152565b95509550505050503d8082843e610ade8184611464565b820160e0838203126105b757825192600684101561030357610b026020820161211b565b92610b0f6040830161211b565b92606083015191600f8310156101c3576080840151906001600160401b0382116101c3575083610aaa93610b5c8460a0610b55610a819c97610a99976102849b01611d47565b9401612128565b93979690919396939850935093610a63565b50346101c357610b7d366116fe565b8254604051631bae711d60e21b81529293929060209082906001600160a01b03168180610bac6004820161209d565b03915afa90811561030f578391610c26575b506001600160a01b031633036102c257819060446001600160a01b03610be26122b6565b169483604051968794859363a12c6af760e01b8552600485015260248401525af180156102b557818093818093610288575050906102849160405194859485611b9f565b90506020813d602011610c58575b81610c4160209383611464565b8101031261030357610c5290611c71565b38610bbe565b3d9150610c34565b50346101c35760c03660031901126101c357610c7a6114b2565b9060a4356001600160401b0381116105b757610c9a90369060040161154f565b338252600160205260ff604083205416156107c65790918291906001600160a01b03610cc461231c565b1691823b15610d4757610d259284928360405180968195829463998f979960e01b84526004356004850152602435602485015260018060a01b031660448401526064356064840152608435608484015260c060a484015260c4830190611778565b03925af180156105bb57610d365750f35b81610d4091611464565b6101c35780f35b505050fd5b50346101c357806003193601126101c3576000805160206123af833981519152546040516001600160a01b039091168152602090f35b50346101c35760a03660031901126101c357610d9c6114b2565b906084358015158091036105b757338252600160205260ff604083205416156107c65790918291906001600160a01b03610dd461231c565b1691823b15610d475760a48492836040519586948593638858751360e01b85526004356004860152602435602486015260018060a01b03166044850152606435606485015260848401525af180156105bb57610d365750f35b50346101c35760203660031901126101c357610e47611c19565b506024816001600160a01b03610e5b61219c565b16604051928380926384c2483160e01b825260043560048301525afa9182156101b75780918193610ea5575b50506102846040519283928352604060208401526040830190611778565b915091503d8083833e610eb88183611464565b8101604082820312610303578151916020810151906001600160401b038211610eef57610ee793945001611d47565b903880610e87565b8480fd5b50346101c357806003193601126101c3576000805160206123ef83398151915254336001600160a01b0390911603610f3157610f2e33612248565b80f35b63118cdaa760e01b815233600452602490fd5b50346101c357610f5336611b31565b90338352600160205260ff604084205416156105c657610f9e9183916001600160a01b03610f7f6122b6565b1690836040518096819582946371fc631160e01b845260048401612081565b03925af19081156105bb57829183918491610fdd575b50610fce9350604051938493606085526060850190611b62565b91602084015260408301520390f35b925050503d8083833e610ff08183611464565b8101916060828403126101c3578151906001600160401b0382116101c35750610fce9261101e918301611c85565b6040602083015192015190919038610fb4565b50346101c357806003193601126101c35761104a612166565b6000805160206123ef83398151915280546001600160a01b03199081169091556000805160206123af8339815191528054918216905581906001600160a01b03167f8be0079c531659141344cd1fd0a4f28419497f9722a3daafe3b4186f6b6457e08280a380f35b50346101c357806110c2366116fe565b6110cd939193611c19565b5060446001600160a01b036110e061219c565b16946040519586938492635af5446960e01b8452600484015260248301525afa9081156101b7578091611124575b6040516020808252819061028490820185611778565b90503d8082843e6111358184611464565b8201916020818403126105b7578051916001600160401b0383116101c3575091611163916102849301611d47565b3861110e565b50346101c35760203660031901126101c35760209060ff906040906001600160a01b0361119461149c565b168152600184522054166040519015158152f35b50346101c35760403660031901126101c3576111c261149c565b7fad857fa38c9319cb80848f1ef2f924383b90297eb5d71755738ff037d100faa160206111ed611408565b926111f6612166565b6001600160a01b03168085526001825260408520805460ff191660ff86151516179055926040519015158152a280f35b50346101c357806003193601126101c357546040516001600160a01b039091168152602090f35b50346101c35760603660031901126101c3576044356001600160401b0381116105b75761127e90369060040161154f565b338252600160205260ff604083205416156107c65781906001600160a01b036112a561219c565b16803b15611308576112e9839291839260405195868094819363bda6b95760e01b835260043560048401526024356024840152606060448401526064830190611778565b03925af180156102b5576112fa5780f35b61130391611464565b388180f35b5050fd5b50346101c35760403660031901126101c3576004356001600160401b0381116105b757366023820112156105b7578060040135906001600160401b038211610303576024810190602436918460051b010111610303579061136b611408565b91611374612166565b82151591845b818110611385578580f35b6001906001600160a01b036113a361139e838688611bdf565b611c05565b168752816020526113c386604089209060ff801983541691151516179055565b818060a01b036113d761139e838688611bdf565b167fad857fa38c9319cb80848f1ef2f924383b90297eb5d71755738ff037d100faa16020604051888152a20161137a565b6024359081151582036101aa57565b61016081019081106001600160401b0382111761143357604052565b634e487b7160e01b600052604160045260246000fd5b604081019081106001600160401b0382111761143357604052565b90601f801991011681019081106001600160401b0382111761143357604052565b6001600160401b0381116114335760051b60200190565b600435906001600160a01b03821682036101aa57565b604435906001600160a01b03821682036101aa57565b608435906001600160a01b03821682036101aa57565b35906001600160a01b03821682036101aa57565b9080601f830112156101aa57813561150981611485565b926115176040519485611464565b81845260208085019260051b8201019283116101aa57602001905b82821061153f5750505090565b8135815260209182019101611532565b9190610160838203126101aa576040519061156982611417565b8193803583526020810135602084015260408101356040840152606081013560608401526080810135608084015260a081013560a084015260c081013560068110156101aa5760c084015260e08101356001600160401b0381116101aa57810182601f820112156101aa578035906115e082611485565b916115ee6040519384611464565b80835260208084019160051b830101918583116101aa57602001905b8282106116e65750505060e08401526101008101356001600160401b0381116101aa57810182601f820112156101aa57803561164581611485565b916116536040519384611464565b81835260208084019260051b820101908582116101aa57602001915b8183106116cd575050506101008401526101208101356001600160401b0381116101aa578261169f9183016114f2565b610120840152610140810135916001600160401b0383116101aa57610140926116c892016114f2565b910152565b823560058110156101aa5781526020928301920161166f565b602080916116f3846114de565b81520191019061160a565b60409060031901126101aa576004359060243590565b9060068210156117215752565b634e487b7160e01b600052602160045260246000fd5b9060058210156117215752565b906020808351928381520192019060005b8181106117625750505090565b8251845260209384019390920191600101611755565b919091610160830192815181526020820151602082015260408201516040820152606082015160608201526080820151608082015260a082015160a08201526117c960c083015160c0830190611714565b60e08201519361016060e083015284518091526020610180830195019060005b81811061187057505050610100820151938181036101008301526020808651928381520195019060005b8181106118515750505061014061183c61184e9495610120850151848203610120860152611744565b92015190610140818403910152611744565b90565b909195602080826118656001948b51611737565b019701929101611813565b82516001600160a01b03168752602096870196909201916001016117e9565b81601f820112156101aa578035906001600160401b03821161143357604051926118c3601f8401601f191660200185611464565b828452602083830101116101aa57816000926020809301838601378301015290565b9190916102e0818403126101aa57604051906102e082018281106001600160401b03821117611433576040528193813560068110156101aa578352602082013560058110156101aa5760208401526040820135600f8110156101aa5760408401526060820135600f8110156101aa576060840152611965608083016114de565b608084015261197660a083016114de565b60a084015261198760c083016114de565b60c084015261199860e083016114de565b60e08401526101008201356101008401526101208201356101208401526101408201356101408401526101608201356101608401526101808201356101808401526101a08201356101a08401526101c08201356101c08401526101e08201356101e08401526102008201356001600160401b0381116101aa5781611a1d91840161188f565b6102008401526102208201356001600160401b0381116101aa5781611a4391840161188f565b6102208401526102408201356001600160401b0381116101aa57820181601f820112156101aa57803590611a7682611485565b92611a846040519485611464565b828452602060608186019402830101918183116101aa57602001925b828410611ae257505050506102c09182916102408501526102608101356102608501526102808101356102808501526102a08101356102a08501520135910152565b6060848303126101aa576040519060608201908282106001600160401b038311176114335760609260209260405286358152828701358382015260408701356040820152815201930192611aa0565b60406003198201126101aa57600435906001600160401b0382116101aa57611b5b916004016118e5565b9060243590565b906020808351928381520192019060005b818110611b805750505090565b82516001600160a01b0316845260209384019390920191600101611b73565b9092611bb8606093969594608084526080840190611b62565b60208301969096526001600160a01b031660408201520152565b90600f8210156117215752565b9190811015611bef5760051b0190565b634e487b7160e01b600052603260045260246000fd5b356001600160a01b03811681036101aa5790565b60405190611c2682611417565b60606101408360008152600060208201526000604082015260008382015260006080820152600060a0820152600060c08201528260e082015282610100820152826101208201520152565b51906001600160a01b03821682036101aa57565b9080601f830112156101aa578151611c9c81611485565b92611caa6040519485611464565b81845260208085019260051b8201019283116101aa57602001905b828210611cd25750505090565b60208091611cdf84611c71565b815201910190611cc5565b9080601f830112156101aa578151611d0181611485565b92611d0f6040519485611464565b81845260208085019260051b8201019283116101aa57602001905b828210611d375750505090565b8151815260209182019101611d2a565b9190610160838203126101aa5760405190611d6182611417565b8193805183526020810151602084015260408101516040840152606081015160608401526080810151608084015260a081015160a084015260c081015160068110156101aa5760c084015260e08101516001600160401b0381116101aa5782611dcb918301611c85565b60e08401526101008101516001600160401b0381116101aa57810182601f820112156101aa578051611dfc81611485565b91611e0a6040519384611464565b81835260208084019260051b820101908582116101aa57602001915b818310611e7f575050506101008401526101208101516001600160401b0381116101aa5782611e56918301611cea565b610120840152610140810151916001600160401b0383116101aa57610140926116c89201611cea565b825160058110156101aa57815260209283019201611e26565b919082519283825260005b848110611ec4575050826000602080949584010152601f8019910116010190565b80602080928401015182828601015201611ea3565b90611ee5818351611714565b611ef760208301516020830190611737565b611f0960408301516040830190611bd2565b611f1b60608301516060830190611bd2565b60018060a01b03608083015116608082015260018060a01b0360a08301511660a082015260018060a01b0360c08301511660c082015260018060a01b0360e08301511660e08201526101008201516101008201526101208201516101208201526101408201516101408201526101608201516101608201526101808201516101808201526101a08201516101a08201526101c08201516101c08201526101e08201516101e0820152611ff7611fe36102008401516102e06102008501526102e0840190611e98565b610220840151838203610220850152611e98565b91610240810151928281036102408401526020808551928381520194019060005b818110612053575050506102c081610260829301516102608501526102808101516102808501526102a08101516102a0850152015191015290565b9091946020606060019260408951805183528481015185840152015160408201520196019101919091612018565b929190612098602091604086526040860190611ed9565b930152565b60609060208152600760208201526641707065616c7360c81b60408201520190565b91906080838203126101aa578251906001600160401b0382116101aa576120e7918401611c85565b9160208101519160606120fc60408401611c71565b92015190565b6040519061210f82611449565b60006020838281520152565b519081151582036101aa57565b91908260409103126101aa5760405161214081611449565b602080829461214e81611c71565b84520151910152565b908160209103126101aa575190565b6000805160206123af833981519152546001600160a01b0316330361218757565b63118cdaa760e01b6000523360045260246000fd5b600054604051631bae711d60e21b8152602060048201819052600d60248301526c526f756e647353746f7261676560981b60448301529091829060649082906001600160a01b03165afa90811561223c57600091612202575b506001600160a01b031690565b90506020813d602011612234575b8161221d60209383611464565b810103126101aa5761222e90611c71565b386121f5565b3d9150612210565b6040513d6000823e3d90fd5b6000805160206123ef83398151915280546001600160a01b03199081169091556000805160206123af83398151915280549182166001600160a01b0393841690811790915591167f8be0079c531659141344cd1fd0a4f28419497f9722a3daafe3b4186f6b6457e0600080a3565b600054604051631bae711d60e21b8152602060048201819052600e60248301526d2937bab73239a1b932b0ba34b7b760911b60448301529091829060649082906001600160a01b03165afa90811561223c5760009161220257506001600160a01b031690565b600054604051631bae711d60e21b8152602060048201819052600c60248301526b526f756e6473566f74696e6760a01b60448301529091829060649082906001600160a01b03165afa90811561223c5760009161220257506001600160a01b031690565b60ff6000805160206123cf8339815191525460401c161561239d57565b631afcd79f60e31b60005260046000fdfe9016d09d72d40fdae2fd8ceac6b6234c7706214fd39c1cd1e609a0528c199300f0c57e16840df040f15088dc2f81fe391c3923bec73e23a9662efc9c229c6a00237e158222e3e6968b72b9db0d8043aacf074ad9f650f0d1606b4d82ee432c00a2646970667358221220d5f48ed59a4d597c213690a017d6eef0f1acb44dcf53570caa8bb86bdf133e9964736f6c634300081c0033",
  "linkReferences": {},
  "deployedLinkReferences": {}
}