{
  "_format": "hh-sol-artifact-1",
  "contractName": "RandomnessUtilsTest",
  "sourceName": "contracts/test/RandomnessUtilsTest.sol",
  "abi": [
    {
      "inputs": [],
      "name": "ECDSAInvalidSignature",
      "type": "error"
    },
    {
      "inputs": [
        {
          "internalType": "uint256",
          "name": "length",
          "type": "uint256"
        }
      ],
      "name": "ECDSAInvalidSignatureLength",
      "type": "error"
    },
    {
      "inputs": [
        {
          "internalType": "bytes32",
          "name": "s",
          "type": "bytes32"
        }
      ],
      "name": "ECDSAInvalidSignatureS",
      "type": "error"
    },
    {
      "inputs": [
        {
          "internalType": "bytes",
          "name": "vrfProof",
          "type": "bytes"
        },
        {
          "internalType": "uint256",
          "name": "currentSeed",
          "type": "uint256"
        },
        {
          "internalType": "address",
          "name": "signer",
          "type": "address"
        }
      ],
      "name": "testUpdateRandomSeed",
      "outputs": [
        {
          "internalType": "uint256",
          "name": "",
          "type": "uint256"
        }
      ],
      "stateMutability": "pure",
      "type": "function"
    }
  ],
  "bytecode": "0x60808060405234601557610371908161001b8239f35b600080fdfe608080604052600436101561001357600080fd5b60003560e01c633e72ff9e1461002857600080fd5b346101af5760603660031901126101af5760043567ffffffffffffffff81116101af57366023820112156101af5780600401359067ffffffffffffffff82116101b45761007f601f8301601f1916602001846101ca565b81835236602483830101116101af57816000926024602093018386013783010152602435906044356001600160a01b038116908190036101af577f19457468657265756d205369676e6564204d6573736167653a0a33320000000060005282601c526100fb6100f283603c6000206101ec565b90929192610228565b6001600160a01b03160361015f57602091604051828193519060005b82811061014957868461013b8280838a8982019083820152030180845201826101ca565b818151910120604051908152f35b8082018701518682018801528593508601610117565b60405162461bcd60e51b815260206004820152602260248201527f52616e646f6d6e6573735574696c733a20496e76616c6964207369676e617475604482015261726560f01b6064820152608490fd5b600080fd5b634e487b7160e01b600052604160045260246000fd5b90601f8019910116810190811067ffffffffffffffff8211176101b457604052565b815191906041830361021d5761021692506020820151906060604084015193015160001a906102b0565b9192909190565b505060009160029190565b919091600481101561029a578061023e57509050565b6000600182036102595763f645eedf60e01b60005260046000fd5b5060028103610277578263fce698f760e01b60005260045260246000fd5b9091600360009214610287575050565b6335e2f38360e21b825260045260249150fd5b634e487b7160e01b600052602160045260246000fd5b91906fa2a8918ca85bafe22016d0b997e4df60600160ff1b03841161032f579160209360809260ff60009560405194855216868401526040830152606082015282805260015afa15610323576000516001600160a01b038116156103175790600090600090565b50600090600190600090565b6040513d6000823e3d90fd5b5050506000916003919056fea2646970667358221220f7e85f93f1dbc70ba91ec708abdad295fc78ff830158932f60dced20a793a95864736f6c634300081c0033",
  "linkReferences": {},
  "deployedLinkReferences": {}
}