{
  "_format": "hh-sol-artifact-1",
  "contractName": "Slash",
  "sourceName": "contracts/Slash.sol",
  "abi": [
    {
      "inputs": [],
      "name": "AccessControlBadConfirmation",
      "type": "error"
    },
    {
      "inputs": [
        {
          "internalType": "address",
          "name": "account",
          "type": "address"
        },
        {
          "internalType": "bytes32",
          "name": "neededRole",
          "type": "bytes32"
        }
      ],
      "name": "AccessControlUnauthorizedAccount",
      "type": "error"
    },
    {
      "inputs": [],
      "name": "InvalidInitialization",
      "type": "error"
    },
    {
      "inputs": [],
      "name": "NotIdleness",
      "type": "error"
    },
    {
      "inputs": [],
      "name": "NotInitializing",
      "type": "error"
    },
    {
      "inputs": [],
      "name": "NotStaking",
      "type": "error"
    },
    {
      "inputs": [
        {
          "internalType": "address",
          "name": "owner",
          "type": "address"
        }
      ],
      "name": "OwnableInvalidOwner",
      "type": "error"
    },
    {
      "inputs": [
        {
          "internalType": "address",
          "name": "account",
          "type": "address"
        }
      ],
      "name": "OwnableUnauthorizedAccount",
      "type": "error"
    },
    {
      "inputs": [],
      "name": "ReentrancyGuardReentrantCall",
      "type": "error"
    },
    {
      "inputs": [],
      "name": "SlashPercentageTooHigh",
      "type": "error"
    },
    {
      "anonymous": false,
      "inputs": [
        {
          "indexed": false,
          "internalType": "uint64",
          "name": "version",
          "type": "uint64"
        }
      ],
      "name": "Initialized",
      "type": "event"
    },
    {
      "anonymous": false,
      "inputs": [
        {
          "indexed": true,
          "internalType": "address",
          "name": "previousOwner",
          "type": "address"
        },
        {
          "indexed": true,
          "internalType": "address",
          "name": "newOwner",
          "type": "address"
        }
      ],
      "name": "OwnershipTransferStarted",
      "type": "event"
    },
    {
      "anonymous": false,
      "inputs": [
        {
          "indexed": true,
          "internalType": "address",
          "name": "previousOwner",
          "type": "address"
        },
        {
          "indexed": true,
          "internalType": "address",
          "name": "newOwner",
          "type": "address"
        }
      ],
      "name": "OwnershipTransferred",
      "type": "event"
    },
    {
      "anonymous": false,
      "inputs": [
        {
          "indexed": true,
          "internalType": "bytes32",
          "name": "role",
          "type": "bytes32"
        },
        {
          "indexed": true,
          "internalType": "bytes32",
          "name": "previousAdminRole",
          "type": "bytes32"
        },
        {
          "indexed": true,
          "internalType": "bytes32",
          "name": "newAdminRole",
          "type": "bytes32"
        }
      ],
      "name": "RoleAdminChanged",
      "type": "event"
    },
    {
      "anonymous": false,
      "inputs": [
        {
          "indexed": true,
          "internalType": "bytes32",
          "name": "role",
          "type": "bytes32"
        },
        {
          "indexed": true,
          "internalType": "address",
          "name": "account",
          "type": "address"
        },
        {
          "indexed": true,
          "internalType": "address",
          "name": "sender",
          "type": "address"
        }
      ],
      "name": "RoleGranted",
      "type": "event"
    },
    {
      "anonymous": false,
      "inputs": [
        {
          "indexed": true,
          "internalType": "bytes32",
          "name": "role",
          "type": "bytes32"
        },
        {
          "indexed": true,
          "internalType": "address",
          "name": "account",
          "type": "address"
        },
        {
          "indexed": true,
          "internalType": "address",
          "name": "sender",
          "type": "address"
        }
      ],
      "name": "RoleRevoked",
      "type": "event"
    },
    {
      "anonymous": false,
      "inputs": [
        {
          "indexed": true,
          "internalType": "address",
          "name": "validator",
          "type": "address"
        },
        {
          "indexed": false,
          "internalType": "uint256",
          "name": "epoch",
          "type": "uint256"
        }
      ],
      "name": "SlashEnacted",
      "type": "event"
    },
    {
      "anonymous": false,
      "inputs": [
        {
          "indexed": false,
          "internalType": "uint256",
          "name": "delay",
          "type": "uint256"
        }
      ],
      "name": "SlashGovernanceDelaySet",
      "type": "event"
    },
    {
      "anonymous": false,
      "inputs": [
        {
          "components": [
            {
              "internalType": "uint256",
              "name": "idleness",
              "type": "uint256"
            },
            {
              "internalType": "uint256",
              "name": "deterministicViolationValidator",
              "type": "uint256"
            },
            {
              "internalType": "uint256",
              "name": "deterministicViolationLeader",
              "type": "uint256"
            },
            {
              "internalType": "uint256",
              "name": "maxPerEpoch",
              "type": "uint256"
            }
          ],
          "indexed": false,
          "internalType": "struct ISlash.SlashPercentages",
          "name": "",
          "type": "tuple"
        }
      ],
      "name": "SlashPercentagesSet",
      "type": "event"
    },
    {
      "anonymous": false,
      "inputs": [
        {
          "indexed": true,
          "internalType": "address",
          "name": "validator",
          "type": "address"
        },
        {
          "indexed": false,
          "internalType": "bytes32",
          "name": "txId",
          "type": "bytes32"
        },
        {
          "indexed": false,
          "internalType": "uint256",
          "name": "epoch",
          "type": "uint256"
        },
        {
          "indexed": false,
          "internalType": "uint256",
          "name": "percentage",
          "type": "uint256"
        }
      ],
      "name": "SlashedFromIdleness",
      "type": "event"
    },
    {
      "inputs": [],
      "name": "DEFAULT_ADMIN_ROLE",
      "outputs": [
        {
          "internalType": "bytes32",
          "name": "",
          "type": "bytes32"
        }
      ],
      "stateMutability": "view",
      "type": "function"
    },
    {
      "inputs": [],
      "name": "PRECISION",
      "outputs": [
        {
          "internalType": "uint256",
          "name": "",
          "type": "uint256"
        }
      ],
      "stateMutability": "view",
      "type": "function"
    },
    {
      "inputs": [],
      "name": "acceptOwnership",
      "outputs": [],
      "stateMutability": "nonpayable",
      "type": "function"
    },
    {
      "inputs": [],
      "name": "delay",
      "outputs": [
        {
          "internalType": "uint256",
          "name": "",
          "type": "uint256"
        }
      ],
      "stateMutability": "view",
      "type": "function"
    },
    {
      "inputs": [],
      "name": "delayInEpochs",
      "outputs": [
        {
          "internalType": "uint256",
          "name": "",
          "type": "uint256"
        }
      ],
      "stateMutability": "view",
      "type": "function"
    },
    {
      "inputs": [
        {
          "internalType": "address",
          "name": "_validator",
          "type": "address"
        }
      ],
      "name": "enactSlash",
      "outputs": [
        {
          "internalType": "uint256[]",
          "name": "epochs",
          "type": "uint256[]"
        },
        {
          "internalType": "uint256[]",
          "name": "percentages",
          "type": "uint256[]"
        }
      ],
      "stateMutability": "nonpayable",
      "type": "function"
    },
    {
      "inputs": [
        {
          "internalType": "bytes32",
          "name": "role",
          "type": "bytes32"
        }
      ],
      "name": "getRoleAdmin",
      "outputs": [
        {
          "internalType": "bytes32",
          "name": "",
          "type": "bytes32"
        }
      ],
      "stateMutability": "view",
      "type": "function"
    },
    {
      "inputs": [
        {
          "internalType": "address",
          "name": "_validator",
          "type": "address"
        }
      ],
      "name": "getSlashesPending",
      "outputs": [
        {
          "internalType": "uint256[]",
          "name": "epochs",
          "type": "uint256[]"
        },
        {
          "internalType": "uint256[]",
          "name": "percentages",
          "type": "uint256[]"
        }
      ],
      "stateMutability": "view",
      "type": "function"
    },
    {
      "inputs": [
        {
          "internalType": "bytes32",
          "name": "role",
          "type": "bytes32"
        },
        {
          "internalType": "address",
          "name": "account",
          "type": "address"
        }
      ],
      "name": "grantRole",
      "outputs": [],
      "stateMutability": "nonpayable",
      "type": "function"
    },
    {
      "inputs": [
        {
          "internalType": "bytes32",
          "name": "role",
          "type": "bytes32"
        },
        {
          "internalType": "address",
          "name": "account",
          "type": "address"
        }
      ],
      "name": "hasRole",
      "outputs": [
        {
          "internalType": "bool",
          "name": "",
          "type": "bool"
        }
      ],
      "stateMutability": "view",
      "type": "function"
    },
    {
      "inputs": [],
      "name": "idleness",
      "outputs": [
        {
          "internalType": "address",
          "name": "",
          "type": "address"
        }
      ],
      "stateMutability": "view",
      "type": "function"
    },
    {
      "inputs": [
        {
          "internalType": "bytes32",
          "name": "txId",
          "type": "bytes32"
        }
      ],
      "name": "idlenessData",
      "outputs": [
        {
          "internalType": "uint256",
          "name": "epoch",
          "type": "uint256"
        },
        {
          "internalType": "uint256",
          "name": "timestamp",
          "type": "uint256"
        }
      ],
      "stateMutability": "view",
      "type": "function"
    },
    {
      "inputs": [
        {
          "internalType": "address",
          "name": "_validator",
          "type": "address"
        },
        {
          "internalType": "bytes32",
          "name": "_txId",
          "type": "bytes32"
        }
      ],
      "name": "idlenessSlash",
      "outputs": [],
      "stateMutability": "nonpayable",
      "type": "function"
    },
    {
      "inputs": [
        {
          "internalType": "address[]",
          "name": "_validators",
          "type": "address[]"
        },
        {
          "internalType": "bytes32",
          "name": "_txId",
          "type": "bytes32"
        }
      ],
      "name": "idlenessSlashBatch",
      "outputs": [],
      "stateMutability": "nonpayable",
      "type": "function"
    },
    {
      "inputs": [
        {
          "internalType": "address",
          "name": "_staking",
          "type": "address"
        },
        {
          "internalType": "address",
          "name": "_idleness",
          "type": "address"
        },
        {
          "internalType": "address",
          "name": "_tribunal",
          "type": "address"
        }
      ],
      "name": "initialize",
      "outputs": [],
      "stateMutability": "nonpayable",
      "type": "function"
    },
    {
      "inputs": [
        {
          "internalType": "address",
          "name": "validator",
          "type": "address"
        }
      ],
      "name": "lastEnactedEpoch",
      "outputs": [
        {
          "internalType": "uint256",
          "name": "epoch",
          "type": "uint256"
        }
      ],
      "stateMutability": "view",
      "type": "function"
    },
    {
      "inputs": [],
      "name": "maxSlashPercentagePerEpoch",
      "outputs": [
        {
          "internalType": "uint256",
          "name": "",
          "type": "uint256"
        }
      ],
      "stateMutability": "view",
      "type": "function"
    },
    {
      "inputs": [],
      "name": "owner",
      "outputs": [
        {
          "internalType": "address",
          "name": "",
          "type": "address"
        }
      ],
      "stateMutability": "view",
      "type": "function"
    },
    {
      "inputs": [],
      "name": "pendingOwner",
      "outputs": [
        {
          "internalType": "address",
          "name": "",
          "type": "address"
        }
      ],
      "stateMutability": "view",
      "type": "function"
    },
    {
      "inputs": [],
      "name": "renounceOwnership",
      "outputs": [],
      "stateMutability": "nonpayable",
      "type": "function"
    },
    {
      "inputs": [
        {
          "internalType": "bytes32",
          "name": "role",
          "type": "bytes32"
        },
        {
          "internalType": "address",
          "name": "callerConfirmation",
          "type": "address"
        }
      ],
      "name": "renounceRole",
      "outputs": [],
      "stateMutability": "nonpayable",
      "type": "function"
    },
    {
      "inputs": [
        {
          "internalType": "bytes32",
          "name": "role",
          "type": "bytes32"
        },
        {
          "internalType": "address",
          "name": "account",
          "type": "address"
        }
      ],
      "name": "revokeRole",
      "outputs": [],
      "stateMutability": "nonpayable",
      "type": "function"
    },
    {
      "inputs": [
        {
          "internalType": "uint256",
          "name": "_delayInEpochs",
          "type": "uint256"
        }
      ],
      "name": "setDelayInEpochs",
      "outputs": [],
      "stateMutability": "nonpayable",
      "type": "function"
    },
    {
      "inputs": [
        {
          "internalType": "address",
          "name": "_idleness",
          "type": "address"
        }
      ],
      "name": "setIdleness",
      "outputs": [],
      "stateMutability": "nonpayable",
      "type": "function"
    },
    {
      "inputs": [
        {
          "internalType": "uint256",
          "name": "_idleness",
          "type": "uint256"
        },
        {
          "internalType": "uint256",
          "name": "_deterministicViolationValidator",
          "type": "uint256"
        },
        {
          "internalType": "uint256",
          "name": "_deterministicViolationLeader",
          "type": "uint256"
        },
        {
          "internalType": "uint256",
          "name": "_maxPerEpoch",
          "type": "uint256"
        }
      ],
      "name": "setSlashPercentages",
      "outputs": [],
      "stateMutability": "nonpayable",
      "type": "function"
    },
    {
      "inputs": [
        {
          "internalType": "address",
          "name": "_staking",
          "type": "address"
        }
      ],
      "name": "setStaking",
      "outputs": [],
      "stateMutability": "nonpayable",
      "type": "function"
    },
    {
      "inputs": [
        {
          "internalType": "address",
          "name": "_tribunalAppeal",
          "type": "address"
        }
      ],
      "name": "setTribunalAppeal",
      "outputs": [],
      "stateMutability": "nonpayable",
      "type": "function"
    },
    {
      "inputs": [
        {
          "internalType": "address",
          "name": "validator",
          "type": "address"
        },
        {
          "internalType": "uint256",
          "name": "epoch",
          "type": "uint256"
        }
      ],
      "name": "slashPerValidator",
      "outputs": [
        {
          "internalType": "uint256",
          "name": "percentages",
          "type": "uint256"
        }
      ],
      "stateMutability": "view",
      "type": "function"
    },
    {
      "inputs": [],
      "name": "slashPercentages",
      "outputs": [
        {
          "internalType": "uint256",
          "name": "idleness",
          "type": "uint256"
        },
        {
          "internalType": "uint256",
          "name": "deterministicViolationValidator",
          "type": "uint256"
        },
        {
          "internalType": "uint256",
          "name": "deterministicViolationLeader",
          "type": "uint256"
        },
        {
          "internalType": "uint256",
          "name": "maxPerEpoch",
          "type": "uint256"
        }
      ],
      "stateMutability": "view",
      "type": "function"
    },
    {
      "inputs": [],
      "name": "staking",
      "outputs": [
        {
          "internalType": "contract IGenLayerStaking",
          "name": "",
          "type": "address"
        }
      ],
      "stateMutability": "view",
      "type": "function"
    },
    {
      "inputs": [
        {
          "internalType": "bytes4",
          "name": "interfaceId",
          "type": "bytes4"
        }
      ],
      "name": "supportsInterface",
      "outputs": [
        {
          "internalType": "bool",
          "name": "",
          "type": "bool"
        }
      ],
      "stateMutability": "view",
      "type": "function"
    },
    {
      "inputs": [
        {
          "internalType": "address",
          "name": "newOwner",
          "type": "address"
        }
      ],
      "name": "transferOwnership",
      "outputs": [],
      "stateMutability": "nonpayable",
      "type": "function"
    },
    {
      "inputs": [],
      "name": "tribunalAppeal",
      "outputs": [
        {
          "internalType": "contract ITribunalAppeal",
          "name": "",
          "type": "address"
        }
      ],
      "stateMutability": "view",
      "type": "function"
    }
  ],
  "bytecode": "0x60808060405234601557611946908161001b8239f35b600080fdfe608080604052600436101561001357600080fd5b60003560e01c90816301ffc9a714610e4357508063061608e214610e0e5780630ef4f25314610ded5780631e7d3f1014610a1657806321495aa714610dc4578063248a9ca314610d9e5780632c57e6ce14610c7a5780632f2ff15d14610c4957806336568abe14610c0357806336dcda8514610ac057806345da27d314610a865780634cf088d914610a5d5780636a3f12ed14610a345780636a42b8f814610a16578063715018a61461099557806379ba5097146109455780637d958884146109025780638da5cb5b146108cc5780638ff39099146108895780639053fee51461084657806391d14854146107ec578063a217fddf146107d0578063aaf5eb68146107b3578063b81aa8501461076b578063c0b604c8146106c9578063c0c53b8b1461047d578063ce92074814610446578063d547741f14610410578063e30c3978146103da578063e53c5547146102f8578063f2fde38b14610271578063fd63dec3146102535763ff2cf4e11461018a57600080fd5b34610229576040366003190112610229576101a3610e96565b600a546001600160a01b031633036102425760085460405163900cf0cf60e01b81529190602090839060049082906001600160a01b03165afa908115610236576000916101fb575b6101f9925060243590611758565b005b90506020823d60201161022e575b8161021660209383610f4f565b81010312610229576101f99151906101eb565b600080fd5b3d9150610209565b6040513d6000823e3d90fd5b6343c7b40b60e11b60005260046000fd5b34610229576000366003190112610229576020600454604051908152f35b346102295760203660031901126102295761028a610e96565b610292610ff5565b6000805160206118f183398151915280546001600160a01b0319166001600160a01b03928316908117909155600080516020611891833981519152549091167f38d16b8cac22d99fc7c124b9cd0de2d3fa1faef420bfe791d8c362d765e22700600080a3005b346102295760803660031901126102295760443560243560043560643561031d610ff5565b612710821180156103cf575b80156103c4575b80156103b9575b6103a8577f30e87f676daeb79824b16beb1020dbbe956c801d69938403de7fa676aab797a99360809382606060405161036f81610f1e565b868152836020820152846040820152015283600155806002558160035582600455604051938452602084015260408301526060820152a1005b6303b7d45560e21b60005260046000fd5b506127108111610337565b506127108411610330565b506127108311610329565b34610229576000366003190112610229576000805160206118f1833981519152546040516001600160a01b039091168152602090f35b34610229576040366003190112610229576101f960043561042f610eac565b9061044161043c82610f87565b6115c5565b6116b8565b3461022957600036600319011261022957608060015460025460035460045491604051938452602084015260408301526060820152f35b3461022957606036600319011261022957610496610e96565b61049e610eac565b6044356001600160a01b0381169190829003610229576000805160206118d1833981519152549260ff8460401c1615936001600160401b038116801590816106c1575b60011490816106b7575b1590816106ae575b5061069d5767ffffffffffffffff1981166001176000805160206118d18339815191525584610670575b50610526611862565b61052e611862565b610536611862565b331561065a57610545336117ea565b61054d611862565b610555611862565b60017f9b779b17422d0df92223018b32b4d1fa46e071723d6817e2486d003becc55f0055610581611862565b600880546001600160a01b03199081166001600160a01b0393841617909155600a80548216939092169290921790556009805490911691909117905560026000556040516103e8906060906105d581610f1e565b60648152606460208201526101f460408201520152606460015560646002556101f46003556103e860045561060657005b60ff60401b196000805160206118d183398151915254166000805160206118d1833981519152557fc7f505b2f371ae2175ee4913f4499e1f2633a7b5936321eed1cdaeb6115181d2602060405160018152a1005b631e4fbdf760e01b600052600060045260246000fd5b68ffffffffffffffffff191668010000000000000001176000805160206118d1833981519152558461051d565b63f92ee8a960e01b60005260046000fd5b905015866104f3565b303b1591506104eb565b8691506104e1565b346102295760203660031901126102295760046106e4610e96565b60085460405163900cf0cf60e01b81529260209184919082906001600160a01b03165afa90811561023657600091610735575b6107219250611064565b9061073160405192839283610ef6565b0390f35b90506020823d602011610763575b8161075060209383610f4f565b8101031261022957610721915190610717565b3d9150610743565b34610229576040366003190112610229576001600160a01b0361078c610e96565b16600052600660205260406000206024356000526020526020604060002054604051908152f35b346102295760003660031901126102295760206040516127108152f35b3461022957600036600319011261022957602060405160008152f35b3461022957604036600319011261022957610805610eac565b6004356000526000805160206118b183398151915260205260406000209060018060a01b0316600052602052602060ff604060002054166040519015158152f35b346102295760203660031901126102295761085f610e96565b610867610ff5565b600a80546001600160a01b0319166001600160a01b0392909216919091179055005b34610229576020366003190112610229576108a2610e96565b6108aa610ff5565b600880546001600160a01b0319166001600160a01b0392909216919091179055005b3461022957600036600319011261022957600080516020611891833981519152546040516001600160a01b039091168152602090f35b346102295760203660031901126102295761091b610e96565b610923610ff5565b600980546001600160a01b0319166001600160a01b0392909216919091179055005b34610229576000366003190112610229576000805160206118f183398151915254336001600160a01b0390911603610980576101f9336117ea565b63118cdaa760e01b6000523360045260246000fd5b34610229576000366003190112610229576109ae610ff5565b6000805160206118f183398151915280546001600160a01b0319908116909155600080516020611891833981519152805491821690556000906001600160a01b03167f8be0079c531659141344cd1fd0a4f28419497f9722a3daafe3b4186f6b6457e08280a3005b34610229576000366003190112610229576020600054604051908152f35b34610229576000366003190112610229576009546040516001600160a01b039091168152602090f35b34610229576000366003190112610229576008546040516001600160a01b039091168152602090f35b34610229576020366003190112610229576001600160a01b03610aa7610e96565b1660005260056020526020604060002054604051908152f35b34610229576040366003190112610229576004356001600160401b0381116102295736602382011215610229578060040135610afb81610f70565b91610b096040519384610f4f565b8183526024602084019260051b8201019036821161022957602401915b818310610be357600a546024359085906001600160a01b031633036102425760085460405163900cf0cf60e01b81529190602090839060049082906001600160a01b03165afa91821561023657600092610baf575b5060005b81518110156101f957600190610ba984866001600160a01b03610ba28588610fcb565b5116611758565b01610b7f565b9091506020813d602011610bdb575b81610bcb60209383610f4f565b8101031261022957519083610b7b565b3d9150610bbe565b82356001600160a01b038116810361022957815260209283019201610b26565b3461022957604036600319011261022957610c1c610eac565b336001600160a01b03821603610c38576101f9906004356116b8565b63334bd91960e11b60005260046000fd5b34610229576040366003190112610229576101f9600435610c68610eac565b90610c7561043c82610f87565b61160f565b3461022957602036600319011261022957610c93610e96565b6008546001600160a01b03169033829003610d8d5760206004926040519384809263900cf0cf60e01b82525afa91821561023657600092610d56575b50817fce0fb8cdb70dc98c87f1cc721bf4c7457c107596f205b8e742fcd57e2a64865c610cfe60209484611064565b94909360005480851015610d2e575b506040519384526001600160a01b031692a261073160405192839283610ef6565b610d389085610fa8565b6001600160a01b038216600090815260058452604090205586610d0d565b6020813d602011610d85575b81610d6f60209383610f4f565b81010312610d81575191506020610ccf565b8280fd5b3d9150610d62565b634487f62960e11b60005260046000fd5b34610229576020366003190112610229576020610dbc600435610f87565b604051908152f35b3461022957600036600319011261022957600a546040516001600160a01b039091168152602090f35b3461022957602036600319011261022957610e06610ff5565b600435600055005b346102295760203660031901126102295760043560005260076020526040806000206001815491015482519182526020820152f35b34610229576020366003190112610229576004359063ffffffff60e01b821680920361022957602091637965db0b60e01b8114908115610e85575b5015158152f35b6301ffc9a760e01b14905083610e7e565b600435906001600160a01b038216820361022957565b602435906001600160a01b038216820361022957565b906020808351928381520192019060005b818110610ee05750505090565b8251845260209384019390920191600101610ed3565b9091610f0d610f1b93604084526040840190610ec2565b916020818403910152610ec2565b90565b608081019081106001600160401b03821117610f3957604052565b634e487b7160e01b600052604160045260246000fd5b90601f801991011681019081106001600160401b03821117610f3957604052565b6001600160401b038111610f395760051b60200190565b6000526000805160206118b183398151915260205260016040600020015490565b91908203918211610fb557565b634e487b7160e01b600052601160045260246000fd5b8051821015610fdf5760209160051b010190565b634e487b7160e01b600052603260045260246000fd5b600080516020611891833981519152546001600160a01b0316330361098057565b9061102082610f70565b61102d6040519182610f4f565b828152809261103e601f1991610f70565b0190602036910137565b91908201809211610fb557565b6000198114610fb55760010190565b60018060a01b03169182600052600560205260406000205491600054908181106115b0579061109291610fa8565b808311611577576110a38382610fa8565b9360018501809511610fb5579060006110c46110be87611016565b96611016565b949260018060a01b0360095416935b838111156110e2575050505050565b6000604051638900c8e360e01b81528260048201526000816024818a5afa9081156102365760009161149e575b5080519060005b82811061119b575050506111459083600052600660205260406000208360005260205260406000205490611048565b8061115a575b5061115590611055565b6110d3565b8361118d918361116e61115595978d610fcb565b52600454908181111561119457505b611187828b610fcb565b52611055565b929061114b565b905061117d565b6111a58183610fcb565b5151604460206111b58486610fcb565b510151916101c08c60405193848092630ebad2a160e01b82528560048301528760248301525afa91821561023657600092611350575b50600260608301516111fc81611858565b61120581611858565b036113455761016082015192600484101561132f578c9160036000950361132257906064602092604051948593849263c8bc654360e01b8452600484015260248301528d60448301525afa908115611317579089929184916112d8575b5061126c81611858565b80159081156112c4575b50611289575b5050506001905b01611116565b60a0015192956001936112b2935090916001600160a01b03909116036112bb5760035490611048565b9390863861127c565b60025490611048565b600191506112d181611858565b1438611276565b919250506020813d821161130f575b816112f460209383610f4f565b81010312610d8157516003811015610d815790889138611262565b3d91506112e7565b6040513d85823e3d90fd5b5050505050600190611283565b634e487b7160e01b600052602160045260246000fd5b505050600190611283565b9091816101c03d8111611497575b6113688183610f4f565b810103916101c0831261148f576040519261018084018481106001600160401b0382111761147b5760405281518452602082015160208501526040820151604085015260608201516003811015611493579060609182860152607f19011261148f57604051606081018181106001600160401b0382111761147b576040526080820151815260a0820151602082015260c08201516040820152608084015260e081015160018060a01b0381168103610d8157906101a09160a085015261010081015160c085015261012081015160e08501526101408101516101008501526101608101516101208501526101808101516101408501520151906004821015611478575061016082015290386111eb565b80fd5b634e487b7160e01b84526041600452602484fd5b5080fd5b8380fd5b503d61135e565b903d8082843e6114ae8184610f4f565b82019160208184031261148f578051906001600160401b038211610d81570182601f8201121561148f578051916114e483610f70565b936114f26040519586610f4f565b83855260208086019460061b84010192818411610d8157602001935b8385106115205750505050503861110f565b604085830312610d8157604051604081018181106001600160401b038211176115635791602091604093845287518152828801518382015281520194019361150e565b634e487b7160e01b85526041600452602485fd5b5091505060209060405161158b8382610f4f565b600081526000368137604051926115a28185610f4f565b600084525060003681379190565b505091505060209060405161158b8382610f4f565b60008181526000805160206118b18339815191526020908152604080832033845290915290205460ff16156115f75750565b63e2517d3f60e01b6000523360045260245260446000fd5b60008181526000805160206118b1833981519152602090815260408083206001600160a01b038616845290915290205460ff166116b15760008181526000805160206118b1833981519152602090815260408083206001600160a01b0395909516808452949091528120805460ff19166001179055339291907f2f8788117e7eff1d82e926ec794901d17c78024a50270940304540a733656f0d9080a4600190565b5050600090565b60008181526000805160206118b1833981519152602090815260408083206001600160a01b038616845290915290205460ff16156116b15760008181526000805160206118b1833981519152602090815260408083206001600160a01b0395909516808452949091528120805460ff19169055339291907ff6391f5c32d9c69d2a47ea670b442974b53935d1edc7fd64eb21e047a839171b9080a4600190565b6001600160a01b03169182156117e5577f04173640a8102913cf3540e52f9d6d78ce7dcf5ca36252ec4b66a57325e76120916060916001548560005260066020526040600020826000526020526117b56040600020918254611048565b905581600052600760205260406000208181556001429101556001549060405192835260208301526040820152a2565b505050565b6000805160206118f183398151915280546001600160a01b031990811690915560008051602061189183398151915280549182166001600160a01b0393841690811790915591167f8be0079c531659141344cd1fd0a4f28419497f9722a3daafe3b4186f6b6457e0600080a3565b6003111561132f57565b60ff6000805160206118d18339815191525460401c161561187f57565b631afcd79f60e31b60005260046000fdfe9016d09d72d40fdae2fd8ceac6b6234c7706214fd39c1cd1e609a0528c19930002dd7bc7dec4dceedda775e58dd541e08a116c6c53815c0bd028192f7b626800f0c57e16840df040f15088dc2f81fe391c3923bec73e23a9662efc9c229c6a00237e158222e3e6968b72b9db0d8043aacf074ad9f650f0d1606b4d82ee432c00a26469706673582212200f757ffa244ffda4556ef9173db4bd69ae0015bed201d7963907c05ea532dfab64736f6c634300081c0033",
  "linkReferences": {},
  "deployedLinkReferences": {}
}