{
  "_format": "hh-sol-artifact-1",
  "contractName": "MockStakingForCreation",
  "sourceName": "contracts/test-helpers/MockStakingForCreation.sol",
  "abi": [
    {
      "inputs": [],
      "name": "epoch",
      "outputs": [
        {
          "internalType": "uint256",
          "name": "",
          "type": "uint256"
        }
      ],
      "stateMutability": "view",
      "type": "function"
    },
    {
      "inputs": [
        {
          "internalType": "bytes32",
          "name": "",
          "type": "bytes32"
        },
        {
          "internalType": "uint256",
          "name": "",
          "type": "uint256"
        }
      ],
      "name": "getActivatorForSeed",
      "outputs": [
        {
          "internalType": "address",
          "name": "",
          "type": "address"
        }
      ],
      "stateMutability": "view",
      "type": "function"
    },
    {
      "inputs": [
        {
          "internalType": "address",
          "name": "newActivator",
          "type": "address"
        }
      ],
      "name": "setActivator",
      "outputs": [],
      "stateMutability": "nonpayable",
      "type": "function"
    },
    {
      "inputs": [
        {
          "internalType": "uint256",
          "name": "newEpoch",
          "type": "uint256"
        }
      ],
      "name": "setEpoch",
      "outputs": [],
      "stateMutability": "nonpayable",
      "type": "function"
    }
  ],
  "bytecode": "0x60808060405234601557610111908161001b8239f35b600080fdfe6080806040526004361015601257600080fd5b60003560e01c9081630ceb2cef1460c45781637c0cc0be14608b578163900cf0cf146072575063b12d0d8214604657600080fd5b34606d576040366003190112606d576001546040516001600160a01b039091168152602090f35b600080fd5b34606d576000366003190112606d576020906000548152f35b34606d576020366003190112606d576004356001600160a01b03811690819003606d57600180546001600160a01b031916919091179055005b34606d576020366003190112606d5760043560005500fea2646970667358221220a23b8ba39c8d36b5e8c81edda067f6ed9276b5258e138deaf65f1179db106ec164736f6c634300081c0033",
  "linkReferences": {},
  "deployedLinkReferences": {}
}