{
  "_format": "hh-sol-artifact-1",
  "contractName": "CreationPhase",
  "sourceName": "contracts/phases/CreationPhase.sol",
  "abi": [
    {
      "inputs": [],
      "stateMutability": "nonpayable",
      "type": "constructor"
    },
    {
      "inputs": [],
      "name": "CallerNotSender",
      "type": "error"
    },
    {
      "inputs": [],
      "name": "EmptyTransaction",
      "type": "error"
    },
    {
      "inputs": [],
      "name": "InvalidInitialization",
      "type": "error"
    },
    {
      "inputs": [],
      "name": "InvalidTransactionStatus",
      "type": "error"
    },
    {
      "inputs": [],
      "name": "MaxNumOfIterationsInPendingQueueReached",
      "type": "error"
    },
    {
      "inputs": [],
      "name": "NonGenVMContract",
      "type": "error"
    },
    {
      "inputs": [],
      "name": "NotInitializing",
      "type": "error"
    },
    {
      "inputs": [
        {
          "internalType": "address",
          "name": "owner",
          "type": "address"
        }
      ],
      "name": "OwnableInvalidOwner",
      "type": "error"
    },
    {
      "inputs": [
        {
          "internalType": "address",
          "name": "account",
          "type": "address"
        }
      ],
      "name": "OwnableUnauthorizedAccount",
      "type": "error"
    },
    {
      "inputs": [],
      "name": "ReentrancyGuardReentrantCall",
      "type": "error"
    },
    {
      "inputs": [],
      "name": "TransactionStillValid",
      "type": "error"
    },
    {
      "inputs": [],
      "name": "Unauthorized",
      "type": "error"
    },
    {
      "inputs": [],
      "name": "WrongRecomputationTransaction",
      "type": "error"
    },
    {
      "anonymous": false,
      "inputs": [
        {
          "indexed": true,
          "internalType": "address",
          "name": "caller",
          "type": "address"
        },
        {
          "indexed": false,
          "internalType": "bool",
          "name": "authorized",
          "type": "bool"
        }
      ],
      "name": "AuthorizedCallerUpdated",
      "type": "event"
    },
    {
      "anonymous": false,
      "inputs": [
        {
          "indexed": true,
          "internalType": "bytes32",
          "name": "txId",
          "type": "bytes32"
        },
        {
          "indexed": false,
          "internalType": "uint256",
          "name": "txSlot",
          "type": "uint256"
        }
      ],
      "name": "CreatedTransaction",
      "type": "event"
    },
    {
      "anonymous": false,
      "inputs": [
        {
          "indexed": true,
          "internalType": "address",
          "name": "ghost",
          "type": "address"
        }
      ],
      "name": "GhostContractRegistered",
      "type": "event"
    },
    {
      "anonymous": false,
      "inputs": [
        {
          "indexed": true,
          "internalType": "bytes32",
          "name": "newSeed",
          "type": "bytes32"
        }
      ],
      "name": "GlobalRandomSeedUpdated",
      "type": "event"
    },
    {
      "anonymous": false,
      "inputs": [
        {
          "indexed": false,
          "internalType": "uint64",
          "name": "version",
          "type": "uint64"
        }
      ],
      "name": "Initialized",
      "type": "event"
    },
    {
      "anonymous": false,
      "inputs": [
        {
          "indexed": true,
          "internalType": "bytes32",
          "name": "txId",
          "type": "bytes32"
        },
        {
          "indexed": true,
          "internalType": "address",
          "name": "recipient",
          "type": "address"
        },
        {
          "indexed": true,
          "internalType": "address",
          "name": "activator",
          "type": "address"
        }
      ],
      "name": "NewTransaction",
      "type": "event"
    },
    {
      "anonymous": false,
      "inputs": [
        {
          "indexed": true,
          "internalType": "bytes32",
          "name": "txId",
          "type": "bytes32"
        },
        {
          "indexed": true,
          "internalType": "address",
          "name": "activator",
          "type": "address"
        }
      ],
      "name": "NextTransactionToBeActivated",
      "type": "event"
    },
    {
      "anonymous": false,
      "inputs": [
        {
          "indexed": true,
          "internalType": "address",
          "name": "previousOwner",
          "type": "address"
        },
        {
          "indexed": true,
          "internalType": "address",
          "name": "newOwner",
          "type": "address"
        }
      ],
      "name": "OwnershipTransferStarted",
      "type": "event"
    },
    {
      "anonymous": false,
      "inputs": [
        {
          "indexed": true,
          "internalType": "address",
          "name": "previousOwner",
          "type": "address"
        },
        {
          "indexed": true,
          "internalType": "address",
          "name": "newOwner",
          "type": "address"
        }
      ],
      "name": "OwnershipTransferred",
      "type": "event"
    },
    {
      "anonymous": false,
      "inputs": [
        {
          "indexed": true,
          "internalType": "bytes32",
          "name": "txId",
          "type": "bytes32"
        },
        {
          "indexed": true,
          "internalType": "address",
          "name": "leader",
          "type": "address"
        }
      ],
      "name": "TransactionActivated",
      "type": "event"
    },
    {
      "anonymous": false,
      "inputs": [
        {
          "indexed": true,
          "internalType": "bytes32",
          "name": "txId",
          "type": "bytes32"
        },
        {
          "indexed": true,
          "internalType": "address",
          "name": "sender",
          "type": "address"
        }
      ],
      "name": "TransactionCancelled",
      "type": "event"
    },
    {
      "anonymous": false,
      "inputs": [
        {
          "indexed": true,
          "internalType": "bytes32",
          "name": "txId",
          "type": "bytes32"
        },
        {
          "indexed": true,
          "internalType": "address",
          "name": "recipient",
          "type": "address"
        },
        {
          "indexed": false,
          "internalType": "uint256",
          "name": "amount",
          "type": "uint256"
        }
      ],
      "name": "ValueWithdrawalFailed",
      "type": "event"
    },
    {
      "inputs": [],
      "name": "acceptOwnership",
      "outputs": [],
      "stateMutability": "nonpayable",
      "type": "function"
    },
    {
      "inputs": [],
      "name": "addressManager",
      "outputs": [
        {
          "internalType": "contract IAddressManager",
          "name": "",
          "type": "address"
        }
      ],
      "stateMutability": "view",
      "type": "function"
    },
    {
      "inputs": [
        {
          "internalType": "address",
          "name": "",
          "type": "address"
        }
      ],
      "name": "authorizedCallers",
      "outputs": [
        {
          "internalType": "bool",
          "name": "",
          "type": "bool"
        }
      ],
      "stateMutability": "view",
      "type": "function"
    },
    {
      "inputs": [
        {
          "internalType": "bytes32",
          "name": "txId",
          "type": "bytes32"
        },
        {
          "internalType": "address",
          "name": "sender",
          "type": "address"
        }
      ],
      "name": "cancelTransaction",
      "outputs": [
        {
          "components": [
            {
              "internalType": "address",
              "name": "recipient",
              "type": "address"
            },
            {
              "internalType": "uint256",
              "name": "refundedValue",
              "type": "uint256"
            },
            {
              "internalType": "bool",
              "name": "refundFailed",
              "type": "bool"
            }
          ],
          "internalType": "struct ICreationPhase.CancelTransactionResult",
          "name": "result",
          "type": "tuple"
        }
      ],
      "stateMutability": "nonpayable",
      "type": "function"
    },
    {
      "inputs": [
        {
          "internalType": "address",
          "name": "recipient",
          "type": "address"
        },
        {
          "internalType": "bytes32",
          "name": "currentTxId",
          "type": "bytes32"
        }
      ],
      "name": "checkForNewTransactions",
      "outputs": [
        {
          "components": [
            {
              "internalType": "bool",
              "name": "wasCancelled",
              "type": "bool"
            },
            {
              "internalType": "bytes32",
              "name": "cancelledTxId",
              "type": "bytes32"
            },
            {
              "internalType": "address",
              "name": "cancelledSender",
              "type": "address"
            },
            {
              "internalType": "uint256",
              "name": "refundedValue",
              "type": "uint256"
            },
            {
              "internalType": "bool",
              "name": "refundFailed",
              "type": "bool"
            },
            {
              "internalType": "bool",
              "name": "hasNextTransaction",
              "type": "bool"
            },
            {
              "internalType": "bool",
              "name": "isRecomputation",
              "type": "bool"
            },
            {
              "internalType": "bytes32",
              "name": "nextTxId",
              "type": "bytes32"
            },
            {
              "internalType": "address",
              "name": "recipient",
              "type": "address"
            },
            {
              "internalType": "address",
              "name": "activatorOrLeader",
              "type": "address"
            }
          ],
          "internalType": "struct ICreationPhase.CheckForNewTransactionsResult",
          "name": "result",
          "type": "tuple"
        }
      ],
      "stateMutability": "nonpayable",
      "type": "function"
    },
    {
      "inputs": [
        {
          "internalType": "bytes32",
          "name": "txId",
          "type": "bytes32"
        }
      ],
      "name": "clearPendingValue",
      "outputs": [],
      "stateMutability": "nonpayable",
      "type": "function"
    },
    {
      "inputs": [
        {
          "components": [
            {
              "internalType": "address",
              "name": "sender",
              "type": "address"
            },
            {
              "internalType": "address",
              "name": "recipient",
              "type": "address"
            },
            {
              "internalType": "address",
              "name": "txOrigin",
              "type": "address"
            },
            {
              "internalType": "address",
              "name": "originalCaller",
              "type": "address"
            },
            {
              "internalType": "uint256",
              "name": "numOfInitialValidators",
              "type": "uint256"
            },
            {
              "internalType": "uint256",
              "name": "maxRotations",
              "type": "uint256"
            },
            {
              "internalType": "bytes",
              "name": "txCalldata",
              "type": "bytes"
            },
            {
              "internalType": "uint256",
              "name": "saltNonce",
              "type": "uint256"
            },
            {
              "internalType": "uint256",
              "name": "validUntil",
              "type": "uint256"
            },
            {
              "internalType": "uint256",
              "name": "value",
              "type": "uint256"
            }
          ],
          "internalType": "struct ICreationPhase.CreateTransactionParams",
          "name": "params",
          "type": "tuple"
        }
      ],
      "name": "createTransaction",
      "outputs": [
        {
          "components": [
            {
              "internalType": "bytes32",
              "name": "txId",
              "type": "bytes32"
            },
            {
              "internalType": "uint256",
              "name": "txSlot",
              "type": "uint256"
            },
            {
              "internalType": "address",
              "name": "activator",
              "type": "address"
            },
            {
              "internalType": "address",
              "name": "recipient",
              "type": "address"
            },
            {
              "internalType": "bool",
              "name": "readyToActivate",
              "type": "bool"
            }
          ],
          "internalType": "struct ICreationPhase.CreateTransactionResult",
          "name": "result",
          "type": "tuple"
        }
      ],
      "stateMutability": "payable",
      "type": "function"
    },
    {
      "inputs": [
        {
          "internalType": "bytes32",
          "name": "txId",
          "type": "bytes32"
        }
      ],
      "name": "getPendingTransactionValue",
      "outputs": [
        {
          "internalType": "uint256",
          "name": "",
          "type": "uint256"
        }
      ],
      "stateMutability": "view",
      "type": "function"
    },
    {
      "inputs": [
        {
          "internalType": "address",
          "name": "addr",
          "type": "address"
        }
      ],
      "name": "ghostContracts",
      "outputs": [
        {
          "internalType": "bool",
          "name": "isGhost",
          "type": "bool"
        }
      ],
      "stateMutability": "view",
      "type": "function"
    },
    {
      "inputs": [],
      "name": "globalRandomSeed",
      "outputs": [
        {
          "internalType": "bytes32",
          "name": "",
          "type": "bytes32"
        }
      ],
      "stateMutability": "view",
      "type": "function"
    },
    {
      "inputs": [
        {
          "internalType": "address",
          "name": "_addressManager",
          "type": "address"
        }
      ],
      "name": "initialize",
      "outputs": [],
      "stateMutability": "nonpayable",
      "type": "function"
    },
    {
      "inputs": [
        {
          "internalType": "address",
          "name": "caller",
          "type": "address"
        }
      ],
      "name": "isAuthorizedCaller",
      "outputs": [
        {
          "internalType": "bool",
          "name": "",
          "type": "bool"
        }
      ],
      "stateMutability": "view",
      "type": "function"
    },
    {
      "inputs": [
        {
          "internalType": "address",
          "name": "addr",
          "type": "address"
        }
      ],
      "name": "isGhostContract",
      "outputs": [
        {
          "internalType": "bool",
          "name": "",
          "type": "bool"
        }
      ],
      "stateMutability": "view",
      "type": "function"
    },
    {
      "inputs": [],
      "name": "owner",
      "outputs": [
        {
          "internalType": "address",
          "name": "",
          "type": "address"
        }
      ],
      "stateMutability": "view",
      "type": "function"
    },
    {
      "inputs": [],
      "name": "pendingOwner",
      "outputs": [
        {
          "internalType": "address",
          "name": "",
          "type": "address"
        }
      ],
      "stateMutability": "view",
      "type": "function"
    },
    {
      "inputs": [
        {
          "internalType": "bytes32",
          "name": "",
          "type": "bytes32"
        }
      ],
      "name": "pendingTransactionValues",
      "outputs": [
        {
          "internalType": "uint256",
          "name": "",
          "type": "uint256"
        }
      ],
      "stateMutability": "view",
      "type": "function"
    },
    {
      "inputs": [
        {
          "internalType": "bytes32",
          "name": "txId",
          "type": "bytes32"
        },
        {
          "internalType": "address",
          "name": "sender",
          "type": "address"
        }
      ],
      "name": "refundPendingValue",
      "outputs": [
        {
          "internalType": "bool",
          "name": "refundFailed",
          "type": "bool"
        },
        {
          "internalType": "uint256",
          "name": "amount",
          "type": "uint256"
        }
      ],
      "stateMutability": "nonpayable",
      "type": "function"
    },
    {
      "inputs": [
        {
          "internalType": "address",
          "name": "ghost",
          "type": "address"
        }
      ],
      "name": "registerGhostContract",
      "outputs": [],
      "stateMutability": "nonpayable",
      "type": "function"
    },
    {
      "inputs": [],
      "name": "renounceOwnership",
      "outputs": [],
      "stateMutability": "nonpayable",
      "type": "function"
    },
    {
      "inputs": [
        {
          "internalType": "address",
          "name": "_addressManager",
          "type": "address"
        }
      ],
      "name": "setAddressManager",
      "outputs": [],
      "stateMutability": "nonpayable",
      "type": "function"
    },
    {
      "inputs": [
        {
          "internalType": "address",
          "name": "caller",
          "type": "address"
        },
        {
          "internalType": "bool",
          "name": "authorized",
          "type": "bool"
        }
      ],
      "name": "setAuthorizedCaller",
      "outputs": [],
      "stateMutability": "nonpayable",
      "type": "function"
    },
    {
      "inputs": [
        {
          "internalType": "address[]",
          "name": "callers",
          "type": "address[]"
        },
        {
          "internalType": "bool",
          "name": "authorized",
          "type": "bool"
        }
      ],
      "name": "setAuthorizedCallers",
      "outputs": [],
      "stateMutability": "nonpayable",
      "type": "function"
    },
    {
      "inputs": [
        {
          "internalType": "bytes32",
          "name": "txId",
          "type": "bytes32"
        },
        {
          "internalType": "uint256",
          "name": "value",
          "type": "uint256"
        }
      ],
      "name": "setPendingValue",
      "outputs": [],
      "stateMutability": "nonpayable",
      "type": "function"
    },
    {
      "inputs": [
        {
          "internalType": "address",
          "name": "newOwner",
          "type": "address"
        }
      ],
      "name": "transferOwnership",
      "outputs": [],
      "stateMutability": "nonpayable",
      "type": "function"
    },
    {
      "inputs": [
        {
          "internalType": "bytes32",
          "name": "txId",
          "type": "bytes32"
        },
        {
          "internalType": "address",
          "name": "recipient",
          "type": "address"
        }
      ],
      "name": "transferPendingValueToGhost",
      "outputs": [
        {
          "internalType": "bool",
          "name": "transferFailed",
          "type": "bool"
        },
        {
          "internalType": "uint256",
          "name": "amount",
          "type": "uint256"
        }
      ],
      "stateMutability": "nonpayable",
      "type": "function"
    },
    {
      "inputs": [],
      "name": "txGlobalCounter",
      "outputs": [
        {
          "internalType": "uint256",
          "name": "",
          "type": "uint256"
        }
      ],
      "stateMutability": "view",
      "type": "function"
    },
    {
      "inputs": [
        {
          "internalType": "bytes32",
          "name": "newSeed",
          "type": "bytes32"
        }
      ],
      "name": "updateGlobalRandomSeed",
      "outputs": [],
      "stateMutability": "nonpayable",
      "type": "function"
    },
    {
      "stateMutability": "payable",
      "type": "receive"
    }
  ],
  "bytecode": "0x6080806040523460d2577ff0c57e16840df040f15088dc2f81fe391c3923bec73e23a9662efc9c229c6a005460ff8160401c1660c1576002600160401b03196001600160401b03821601605c575b6040516132ff90816100d88239f35b6001600160401b0319166001600160401b039081177ff0c57e16840df040f15088dc2f81fe391c3923bec73e23a9662efc9c229c6a005581527fc7f505b2f371ae2175ee4913f4499e1f2633a7b5936321eed1cdaeb6115181d290602090a13880604d565b63f92ee8a960e01b60005260046000fd5b600080fdfe60a0604052600436101561001b575b361561001957600080fd5b005b6000803560e01c8062fb9bd7146111f35780630652b57a14611da2578063090263a714611ca55780632838322d146119245780633ab76e9f146118fd578063454bbd291461187f578063525cc05914611843578063536fff6c1461180457806359d14b41146118045780635e174033146117e657806367f7c83a1461020f578063715018a6146117655780637440c21b1461172657806379ba5097146116d5578063803350a5146115a15780638da5cb5b1461156b5780638e4dc9881461153b5780639d3a5b1d146114f3578063aa923c02146114c5578063c4d66de8146112c0578063cb225db1146112a2578063cf0a63841461122c578063db119910146111f3578063db5b4ee614610239578063dfcd9aab1461020f578063e30c3978146101d95763f2fde38b1461014f575061000e565b346101d65760203660031901126101d657610168611df8565b610170612e69565b6000805160206132aa83398151915280546001600160a01b0319166001600160a01b0392831690811790915560008051602061324a833981519152549091167f38d16b8cac22d99fc7c124b9cd0de2d3fa1faef420bfe791d8c362d765e227008380a380f35b80fd5b50346101d657806003193601126101d6576000805160206132aa833981519152546040516001600160a01b039091168152602090f35b50346101d65760203660031901126101d65760406020916004358152600483522054604051908152f35b5060203660031901126101d6576001600160401b03600435116101d657600435600401610140600319600435360301126111ef57610275612e0c565b50338252600560205260ff604083205416156111e157600260008051602061326a83398151915254146111d257600260008051602061326a8339815191525560c4600435016102c48183612e37565b9050156111c35760015460018101908181116111af57600019820361118b575050826001555b6102f382611f8e565b916001600160a01b03831615801561115e575b611148575b6002546001546000194301438111611134579086939291604051916020830193845260408301524060608201524260808201524360a082015260a0815261035360c082611efc565b51902092610365602460043501611f8e565b6001600160a01b038116806110735750602090506001600160a01b036103896130d2565b166024604051809681936374c1532360e01b835260e4600435013560048401525af18015610ddf57611039575b6004925060206001600160a01b036103cc6130d2565b166040519485809263b8f3c96360e01b82525afa928315610ddf578693610ffd575b506001600160a01b038316808752600360205260408720805460ff191660011790558690807f029a2735cf69e999ef9868fa6b2bb421b3d69c9d9a025a1cfd8081260e260f4b8380a26001600160a01b03610447613136565b169060446004350161045881611f8e565b60405163785f8ee360e01b81526001600160a01b039091166004820152602081602481875afa908115610e2a578591610fc3575b5015610f57575b505050506104b0905b6104aa604460043501611f8e565b92612e37565b6104bb929192612e0c565b506104c4612f44565b956104cd6131bc565b926104d6613010565b93896104e0612e9f565b926104e9613072565b948b60208b602460405180948193630db7242360e21b835260018060a01b0316600483015260018060a01b03165afa908115610c85578b918d918691610f1b575b50908592916040519160208301936bffffffffffffffffffffffff199060601b168452426034840152605483015260748201526074815261056c609482611efc565b5190206040516080818152633b4d69ad60e11b90915280516001600160a01b038e81166004830152602482018490529151929f909260449290918591165af1968715610d2b57839b8498610eb5575b60405160208101918252896040820152604081526105da606082611efc565b519020988c15610e4a576001600160a01b0316803b15610e1e57604051630bc24f7560e41b81526001600160a01b038d166004820152602481018b9052604481018f90529085908290606490829084905af1908115610e2a578591610e35575b50505b60405163589686c160e11b8152600481018a90524260248201529960208b6044816001600160a01b038a165afa9a8b15610e2a57859b610dea575b5060405163900cf0cf60e01b81529960208b6004816001600160a01b038b165afa9a8b15610ddf578f909b8d8f9d8992610d9e575b5090889493929160209e8f986040519a6106c78b8d611efc565b888c52888b6040519c6106da908e611efc565b818d52601f19810136828f01376040519e8f916106f683611ec5565b81835282015260400152600160608e01526001600160a01b0390811660808e015290811660a08d015290811660c08c01521660e08a015261010089018d905260043560a48101356101208b0152608401356101408a01526101608901526101808801526101a08701526101c086018290526101e0860182905261077883611f1d565b92604051936107879085611efc565b8084523681830111610cc957808c92838601378301015261020084015261022083015261024082015260043561010481013561026083015261012401356102808201526102a081018b90526102c081018b90526001600160a01b0383163b15610d9a5760405190630d115ea360e21b82528a60048301526040602483015280516006811015610d86576044830152868101516005811015610d865790829160648e969594015261083f60408201516084840190612296565b610851606082015160a4840190612296565b60808101516001600160a01b0390811660c484015260a0820151811660e484015260c0820151811661010484015260e0820151166101248301526101008101516101448301526101208101516101648301526101408101516101848301526101608101516101a48301526101808101516101c48301526101a08101516101e48301526101c08101516102048301526101e08101516102248301526102008101516102e06102448401526109259061090d90610324850190613197565b61022083015184820360431901610264860152613197565b610240820151838203604319016102848501528051808352918a019291908a0190875b8b828210610d4f575050506102608201516102a4850152506102808101516102c48401526102a08101516102e48401526102c001516103048301528490829081900381836001600160a01b0388165af18015610c855787918591610d36575b505060405163900cf0cf60e01b815291829060049082906001600160a01b03165afa908115610d2b578391610cfa575b506001600160a01b0382163b15610cc9578960448492836040519586948593631458f30d60e01b85526004850152602484015260018060a01b03165af18015610cbe57610ce1575b50506040519061010082018281106001600160401b03821117610ccd579089929160405242825242858301528260408301528260608301528260808301528260a08301528260c08301528260e083015260018060a01b0381163b15610cc9576040805163c0d6438960e01b8152600481018b90528351602482015286840151604482015290830151606482015260608301516084820152608083015160a482015260a083015160c482015260c083015160e482015260e0909201516101048301528290829061012490829084906001600160a01b03165af18015610cbe57610ca9575b505060405195610b1187611ee1565b808752828701918252604087019360018060a01b03168452606087019460018060a01b031685526080870195151586526101246004350135610c90575b506004876001600160a01b03610b62613136565b87518a5192909116906001600160a01b03908116908790610b816131bc565b166040519687809263900cf0cf60e01b82525afa948515610c85578495610c4d575b50813b15610c4957836064926040519687958694627381e560e11b86526004860152602485015260448401525af18015610c3e57610c25575b5060a09650600160008051602061326a83398151915255604051955186525190850152600180861b039051166040840152600180851b0390511660608301525115156080820152f35b610c30888092611efc565b610c3a5786610bdc565b8680fd5b6040513d8a823e3d90fd5b8380fd5b87809296508195503d8311610c7e575b610c678183611efc565b81010312610c79578a92519338610ba3565b600080fd5b503d610c5d565b6040513d86823e3d90fd5b8752600482526101246004350135604088205538610b4e565b81610cb391611efc565b610c3a578638610b02565b6040513d84823e3d90fd5b8280fd5b634e487b7160e01b8a52604160045260248afd5b81610ceb91611efc565b610cf6578738610a1f565b8780fd5b809350868092503d8311610d24575b610d138183611efc565b81010312610c7957899151386109d7565b503d610d09565b6040513d85823e3d90fd5b81925090610d4391611efc565b610cc9578583386109a7565b909295969798506060600192949560408851805183528481015185840152015160408201520195019101918f979695949392610948565b634e487b7160e01b8d52602160045260248dfd5b8a80fd5b949d5050505094506020813d602011610dd7575b81610dbf60209383611efc565b81010312610c7957518b998f9590918f908d886106ad565b3d9150610db2565b6040513d88823e3d90fd5b909a506020813d602011610e22575b81610e0660209383611efc565b81010312610e1e57610e1790611fc1565b9938610678565b8480fd5b3d9150610df9565b6040513d87823e3d90fd5b81610e3f91611efc565b610c4957833861063a565b6001600160a01b0316803b15610e1e57604051631c613bd560e31b8152600481018f90526001600160a01b038d1660248201529085908290604490829084905af1908115610e2a578591610ea0575b505061063d565b81610eaa91611efc565b610c49578338610e99565b97509a503d80846080513e610ecc81608051611efc565b608051019a60606080518d0312610c4957610ee86080516122b9565b602060805101519c60406080510151906001600160401b038211610c3a57610f1391608051016122c6565b509b976105bb565b95505050506020833d602011610f4f575b81610f3960209383611efc565b81010312610c79578c8a8c82955190919261052a565b3d9150610f2c565b610f6090611f8e565b90823b15610c495760405163ee1fe2ad60e01b81526001600160a01b03909216600483015260248201529082908290604490829084905af18015610cbe57610faa575b8080610493565b81610fb491611efc565b610fbf578538610fa3565b8580fd5b90506020813d602011610ff5575b81610fde60209383611efc565b81010312610e1e57610fef906122b9565b3861048c565b3d9150610fd1565b9092506020813d602011611031575b8161101960209383611efc565b81010312610fbf5761102a90611fc1565b91386103ee565b3d915061100c565b6020833d60201161106b575b8161105260209383611efc565b81010312610fbf57611065600493611fc1565b506103b6565b3d9150611045565b80919452600360205260ff6040882054161590816110a9575b5061109a576104b09061049c565b63306e9f2560e21b8652600486fd5b905060206001600160a01b036110bd6130d2565b169160246040518094819363ef7c054160e01b835260048301525afa9081156111295787916110ef575b50153861108c565b90506020813d602011611121575b8161110a60209383611efc565b81010312610c3a5761111b906122b9565b386110e7565b3d91506110fd565b6040513d89823e3d90fd5b634e487b7160e01b87526011600452602487fd5b9150611158606460043501611f8e565b9161030b565b506001600160a01b03611175600435606401611f8e565b168452600360205260ff60408520541615610306565b6000191461119b576001556102ea565b634e487b7160e01b84526011600452602484fd5b634e487b7160e01b85526011600452602485fd5b6313064eb160e11b8352600483fd5b633ee5aeb560e01b8252600482fd5b6282b42960e81b8252600482fd5b5080fd5b50346101d65760403660031901126101d657611218611210611de2565b600435611e1d565b604080519215158352602083019190915290f35b50346101d65760203660031901126101d657611246611df8565b338252600560205260ff604083205416156111e1576001600160a01b0316808252600360205260408220805460ff191660011790557f029a2735cf69e999ef9868fa6b2bb421b3d69c9d9a025a1cfd8081260e260f4b8280a280f35b50346101d657806003193601126101d6576020600154604051908152f35b50346101d65760203660031901126101d6576112da611df8565b60008051602061328a833981519152549060ff8260401c1615916001600160401b038116801590816114bd575b60011490816114b3575b1590816114aa575b5061149b5767ffffffffffffffff19811660011760008051602061328a833981519152558261146e575b5061134c61321b565b61135461321b565b61135c61321b565b331561145a5761136b33612fa2565b61137361321b565b61137b61321b565b600160008051602061326a8339815191525582546001600160a01b0319166001600160a01b03919091161782554360001981019081116114465760405160208101914082524260408201524360608201523060601b6080820152607481526113e4609482611efc565b5190206002556113f15780f35b60ff60401b1960008051602061328a833981519152541660008051602061328a833981519152557fc7f505b2f371ae2175ee4913f4499e1f2633a7b5936321eed1cdaeb6115181d2602060405160018152a180f35b634e487b7160e01b83526011600452602483fd5b631e4fbdf760e01b83526004839052602483fd5b68ffffffffffffffffff1916680100000000000000011760008051602061328a8339815191525538611343565b63f92ee8a960e01b8452600484fd5b90501538611319565b303b159150611311565b849150611307565b50346101d65760203660031901126101d65760206114e96114e4611df8565b612d67565b6040519015158152f35b50346101d65760203660031901126101d657338152600560205260ff6040822054161561152d576004358152600460205280604081205580f35b6282b42960e81b8152600490fd5b50346101d65760203660031901126101d657338152600560205260ff6040822054161561152d5760043560025580f35b50346101d657806003193601126101d65760008051602061324a833981519152546040516001600160a01b039091168152602090f35b50346101d65760403660031901126101d6576115bb611df8565b6040519161014083018381106001600160401b038211176116c1576040528083528060208401528060408401528060608401528060808401528060a08401528060c08401528060e08401528061010084015280610120840152338152600560205260ff6040822054161561152d576101406116396024358486612323565b604051908051151582526020810151602083015260018060a01b0360408201511660408301526060810151606083015260808101511515608083015260a0810151151560a083015260c0810151151560c083015260e081015160e083015260018060a01b036101008201511661010083015261012060018060a01b0391015116610120820152f35b634e487b7160e01b82526041600452602482fd5b50346101d657806003193601126101d6576000805160206132aa83398151915254336001600160a01b03909116036117135761171033612fa2565b80f35b63118cdaa760e01b815233600452602490fd5b50346101d65760203660031901126101d65760209060ff906040906001600160a01b03611751611df8565b168152600384522054166040519015158152f35b50346101d657806003193601126101d65761177e612e69565b6000805160206132aa83398151915280546001600160a01b031990811690915560008051602061324a8339815191528054918216905581906001600160a01b03167f8be0079c531659141344cd1fd0a4f28419497f9722a3daafe3b4186f6b6457e08280a380f35b50346101d657806003193601126101d6576020600254604051908152f35b50346101d65760203660031901126101d65760209060ff906040906001600160a01b0361182f611df8565b168152600584522054166040519015158152f35b50346101d65760403660031901126101d657338152600560205260ff6040822054161561152d5760043581526004602052602435604082205580f35b50346101d65760403660031901126101d657611899611df8565b7fad857fa38c9319cb80848f1ef2f924383b90297eb5d71755738ff037d100faa160206118c4611e0e565b926118cd612e69565b6001600160a01b03168085526005825260408520805460ff191660ff86151516179055926040519015158152a280f35b50346101d657806003193601126101d657546040516001600160a01b039091168152602090f35b50346101d65760403660031901126101d657600435611941611de2565b9061194a611fa2565b50338352600560205260ff60408420541615611c9757611968612e9f565b611970612f44565b60405163255709e560e11b815260048101849052916001600160a01b03168583602481845afa928315610ddf578693611c73575b5060c08301516001600160a01b0390811695168015611bd7576060840151600f811015611bc35760001901611bb45760a08401516001600160a01b031603611ba5575b803b15610fbf576040516346f32a5d60e11b81526004810185905260086024820152868160448183865af1801561112957611b91575b508590610160840151813b15610cc9578291604483926040519485938492634ff736eb60e11b845260048401528a60248401525af18015610cbe57611b7c575b5050604051639c88381960e01b81526001600160a01b038581166004830152602482018590529091602091839160449183918a91165af1908115610e2a578591611b42575b5015611b33578382606095526004602052604081205491819383611af7575b50505060408051611ad181611e94565b848152602081019283520191151582526040519283525160208301525115156040820152f35b825260046020526040822082905560a001519192509081908190819085906001600160a01b03165af1611b28611f38565b501590388080611ac1565b63357bf18b60e01b8452600484fd5b90506020813d602011611b74575b81611b5d60209383611efc565b81010312610e1e57611b6e906122b9565b38611aa2565b3d9150611b50565b81611b8691611efc565b610e1e578438611a5d565b86611b9e91979297611efc565b9438611a1d565b63f5963d6560e01b8652600486fd5b637c03108160e11b8752600487fd5b634e487b7160e01b88526021600452602488fd5b50606083018051600f811015611bc357600114159081611c49575b50611c3a5761026083015180159081159081611c1f575b5050156119e757636257ec7d60e11b8652600486fd5b90915081611c30575b503880611c09565b9050421038611c28565b637c03108160e11b8652600486fd5b905051600f811015611c5f576002141538611bf2565b634e487b7160e01b87526021600452602487fd5b611c909193503d8088833e611c888183611efc565b810190612054565b91386119a4565b6282b42960e81b8352600483fd5b50346101d65760403660031901126101d6576004356001600160401b0381116111ef57366023820112156111ef578060040135906001600160401b038211610cc9576024810190602436918460051b010111610cc95790611d04611e0e565b91611d0d612e69565b82151591845b818110611d1e578580f35b6001906001600160a01b03611d3c611d37838688611f68565b611f8e565b1687526005602052611d5d86604089209060ff801983541691151516179055565b818060a01b03611d71611d37838688611f68565b167fad857fa38c9319cb80848f1ef2f924383b90297eb5d71755738ff037d100faa16020604051888152a201611d13565b50346101d65760203660031901126101d657611dbc611df8565b611dc4612e69565b81546001600160a01b0319166001600160a01b039190911617815580f35b602435906001600160a01b0382168203610c7957565b600435906001600160a01b0382168203610c7957565b602435908115158203610c7957565b91909133600052600560205260ff6040600020541615611e845760009080600052600460205260406000205493849182611e59575b5050509190565b60009350839283928392835260046020528260408120555af1611e7a611f38565b5015823880611e52565b6282b42960e81b60005260046000fd5b606081019081106001600160401b03821117611eaf57604052565b634e487b7160e01b600052604160045260246000fd5b6102e081019081106001600160401b03821117611eaf57604052565b60a081019081106001600160401b03821117611eaf57604052565b90601f801991011681019081106001600160401b03821117611eaf57604052565b6001600160401b038111611eaf57601f01601f191660200190565b3d15611f63573d90611f4982611f1d565b91611f576040519384611efc565b82523d6000602084013e565b606090565b9190811015611f785760051b0190565b634e487b7160e01b600052603260045260246000fd5b356001600160a01b0381168103610c795790565b60405190611faf82611e94565b60006040838281528260208201520152565b51906001600160a01b0382168203610c7957565b60005b838110611fe85750506000910152565b8181015183820152602001611fd8565b81601f82011215610c7957805161200e81611f1d565b9261201c6040519485611efc565b81845260208284010111610c795761203a9160208085019101611fd5565b90565b6001600160401b038111611eaf5760051b60200190565b602081830312610c79578051906001600160401b038211610c7957016102e081830312610c79576040519161208883611ec5565b81516006811015610c7957835260208201516005811015610c795760208401526040820151600f811015610c795760408401526060820151600f811015610c795760608401526120da60808301611fc1565b60808401526120eb60a08301611fc1565b60a08401526120fc60c08301611fc1565b60c084015261210d60e08301611fc1565b60e08401526101008201516101008401526101208201516101208401526101408201516101408401526101608201516101608401526101808201516101808401526101a08201516101a08401526101c08201516101c08401526101e08201516101e08401526102008201516001600160401b038111610c795781612192918401611ff8565b6102008401526102208201516001600160401b038111610c7957816121b8918401611ff8565b6102208401526102408201516001600160401b038111610c7957820181601f82011215610c79578051906121eb8261203d565b926121f96040519485611efc565b82845260206060818601940283010191818311610c7957602001925b82841061225a5750505050906102c0916102408401526102608101516102608401526102808101516102808401526102a08101516102a084015201516102c082015290565b606084830312610c7957602060609160405161227581611e94565b86518152828701518382015260408701516040820152815201930192612215565b90600f8210156122a35752565b634e487b7160e01b600052602160045260246000fd5b51908115158203610c7957565b9080601f83011215610c795781516122dd8161203d565b926122eb6040519485611efc565b81845260208085019260051b820101928311610c7957602001905b8282106123135750505090565b8151815260209182019101612306565b9091928161232f612f44565b90612338612e9f565b91612341613010565b612349613072565b604051631fd08e0b60e21b81526001600160a01b0389811660048301819052941698939560009592949290916020816024818e5afa8015611129578790612d34575b604051633f008c4560e01b8152600481018a905291506020826024818f5afa918215610c3e578892612d00575b501015612cf257508899602060249798999a60405198898092635f4f4ec560e11b82528c60048301525afa968715610ddf578697612cbe575b508615908115612cb4575b50612ca85760405163255709e560e11b8152600481018790526001600160a01b039091169985826024818e5afa918215610ddf578692612c8c575b5060608201928351600f811015611bc3576001141580612c77575b612c69576102608301518015159081612c5f575b5080612c4b575b612aa85750505051600f811015612a945760021461261657604051631c5f1acf60e31b815260048101869052969750949594602090869060249082906001600160a01b03165afa948515610cbe5782956125e2575b506001600160a01b031693843b156111ef57604051634e8eb8bd60e01b815260048101849052600160248201524260448201528281606481838a5af18015610d2b579083916125cd575b505060409060648251809781936302ad2c4560e21b835287600484015260248301524260448301525afa80156125c05781948291612579575b501561257357600160a087015260c086015260e08501526101008401526001600160a01b0316610120830152565b50505050565b9450506040843d6040116125b8575b8161259560409383611efc565b810103126101d6576125b260206125ab86611fc1565b95016122b9565b38612545565b3d9150612588565b50604051903d90823e3d90fd5b816125d791611efc565b6111ef57813861250c565b9094506020813d60201161260e575b816125fe60209383611efc565b81010312610c79575193386124c2565b3d91506125f1565b50929190602081959760246040518094819363de7187c560e01b83528860048401525af1908115610e2a578591612a62575b508015612a5a578103612a4b578354604051631bae711d60e21b81526020600482018190526006602483015265526f756e647360d01b60448301529091829060649082906001600160a01b03165afa908115610e2a578591612a11575b5060405163ba15d63560e01b8152600481018390526001600160a01b03919091169390602081602481885afa908115610ddf5790869182916129dc575b50604460405180978193635af5446960e01b835287600484015260248301525afa938415610e2a5785946127d1575b506001600160a01b0316803b15610e1e57848091606460405180948193634e8eb8bd60e01b8352876004840152600260248401524260448401525af18015610e2a579085916127bc575b5050600160a0860152600160c086015260e0850152610100840152602060e08201519101519181518310156127a8575060059190911b01602001516001600160a01b031661012082015290565b634e487b7160e01b81526032600452602490fd5b816127c691611efc565b610c4957833861275b565b9093503d8086833e6127e38183611efc565b810190602081830312610fbf578051906001600160401b038211610c3a57019061016082820312610fbf576040519161016083018381106001600160401b038211176129c857604052805183526020810151602084015260408101516040840152606081015160608401526080810151608084015260a081015160a084015260c08101516006811015610cf65760c084015260e08101516001600160401b038111610cf657810182601f82011215610cf6578051906128a18261203d565b916128af6040519384611efc565b80835260208084019160051b83010191858311610d9a57602001905b8282106129b05750505060e08401526101008101516001600160401b038111610cf657810182601f82011215610cf65780516129068161203d565b916129146040519384611efc565b81835260208084019260051b82010190858211610d9a57602001915b818310612993575050506101008401526101208101516001600160401b038111610cf657826129609183016122c6565b610120840152610140810151906001600160401b038211610cf6576129869291016122c6565b6101408201529238612711565b825160058110156129ac57815260209283019201612930565b8b80fd5b602080916129bd84611fc1565b8152019101906128cb565b634e487b7160e01b88526041600452602488fd5b9150506020813d602011612a09575b816129f860209383611efc565b81010312610c7957859051386126e2565b3d91506129eb565b90506020813d602011612a43575b81612a2c60209383611efc565b81010312610e1e57612a3d90611fc1565b386126a5565b3d9150612a1f565b63268ff40760e11b8452600484fd5b505050505090565b90506020813d602011612a8c575b81612a7d60209383611efc565b81010312610c79575138612648565b3d9150612a70565b634e487b7160e01b84526021600452602484fd5b9350935094955050879295973b15610fbf576040516346f32a5d60e11b81526004810186905260086024820152868160448183885af1801561112957612c2e575b50604051639c88381960e01b81526001600160a01b03909116600482015260248101859052906020908290818881604481015b03925af18015610e2a57612bf7575b50610160820151813b15610e1e578491604483926040519485938492634ff736eb60e11b845260048401528860248401525af18015610c8557908491612be2575b5082905260046020526040832054918383612bad575b5060018552602085015260a001516001600160a01b0316604084015260608301521515608082015290565b90809450815260046020528060408120558080808560018060a01b0360a0870151165af1612bd9611f38565b50159238612b82565b81612bec91611efc565b610cc9578238612b6c565b6020813d602011612c26575b81612c1060209383611efc565b81010312610e1e57612c21906122b9565b612b2b565b3d9150612c03565b612b1c9287612c41602094998994611efc565b9792509250612ae9565b508351600f811015611bc35760011461246d565b9050421138612466565b505050505050505050915090565b508351600f811015611bc35760021415612452565b612ca19192503d8088833e611c888183611efc565b9038612437565b50505050505050915090565b90508614386123fc565b9096506020813d602011612cea575b81612cda60209383611efc565b81010312610fbf575195386123f1565b3d9150612ccd565b985050505050505092505090565b9091506020813d602011612d2c575b81612d1c60209383611efc565b81010312610cf6575190386123b8565b3d9150612d0f565b506020813d602011612d5f575b81612d4e60209383611efc565b81010312610c3a576024905161238b565b3d9150612d41565b6001600160a01b031660008181526003602052604090205460ff16612e065760206001600160a01b03612d986130d2565b169160246040518094819363ef7c054160e01b835260048301525afa908115612dfa57600091612dc6575090565b90506020813d602011612df2575b81612de160209383611efc565b81010312610c795761203a906122b9565b3d9150612dd4565b6040513d6000823e3d90fd5b50600190565b60405190612e1982611ee1565b60006080838281528260208201528260408201528260608201520152565b903590601e1981360301821215610c7957018035906001600160401b038211610c7957602001918136038313610c7957565b60008051602061324a833981519152546001600160a01b03163303612e8a57565b63118cdaa760e01b6000523360045260246000fd5b600054604051631bae711d60e21b815260206004820181905260126024830152712a3930b739b0b1ba34b7b726b0b730b3b2b960711b60448301529091829060649082906001600160a01b03165afa908115612dfa57600091612f0a575b506001600160a01b031690565b90506020813d602011612f3c575b81612f2560209383611efc565b81010312610c7957612f3690611fc1565b38612efd565b3d9150612f18565b600054604051631bae711d60e21b8152602060048201819052600660248301526551756575657360d01b60448301529091829060649082906001600160a01b03165afa908115612dfa57600091612f0a57506001600160a01b031690565b6000805160206132aa83398151915280546001600160a01b031990811690915560008051602061324a83398151915280549182166001600160a01b0393841690811790915591167f8be0079c531659141344cd1fd0a4f28419497f9722a3daafe3b4186f6b6457e0600080a3565b600054604051631bae711d60e21b8152602060048201819052600a60248301526923b2b726b0b730b3b2b960b11b60448301529091829060649082906001600160a01b03165afa908115612dfa57600091612f0a57506001600160a01b031690565b600054604051631bae711d60e21b8152602060048201819052600860248301526749646c656e65737360c01b60448301529091829060649082906001600160a01b03165afa908115612dfa57600091612f0a57506001600160a01b031690565b600054604051631bae711d60e21b8152602060048201819052600c60248301526b47686f7374466163746f727960a01b60448301529091829060649082906001600160a01b03165afa908115612dfa57600091612f0a57506001600160a01b031690565b600054604051631bae711d60e21b8152602060048201819052600960248301526827232a26b4b73a32b960b91b60448301529091829060649082906001600160a01b03165afa908115612dfa57600091612f0a57506001600160a01b031690565b906020916131b081518092818552858086019101611fd5565b601f01601f1916010190565b600054604051631bae711d60e21b815260206004820181905260076024830152665374616b696e6760c81b60448301529091829060649082906001600160a01b03165afa908115612dfa57600091612f0a57506001600160a01b031690565b60ff60008051602061328a8339815191525460401c161561323857565b631afcd79f60e31b60005260046000fdfe9016d09d72d40fdae2fd8ceac6b6234c7706214fd39c1cd1e609a0528c1993009b779b17422d0df92223018b32b4d1fa46e071723d6817e2486d003becc55f00f0c57e16840df040f15088dc2f81fe391c3923bec73e23a9662efc9c229c6a00237e158222e3e6968b72b9db0d8043aacf074ad9f650f0d1606b4d82ee432c00a2646970667358221220f6bdb925564523e62e15fa435883d7d7a941d16c8a6e162695efb5a1570a94f964736f6c634300081c0033",
  "linkReferences": {},
  "deployedLinkReferences": {}
}