{
  "_format": "hh-sol-artifact-1",
  "contractName": "TransactionManager",
  "sourceName": "contracts/TransactionManager.sol",
  "abi": [
    {
      "inputs": [],
      "stateMutability": "nonpayable",
      "type": "constructor"
    },
    {
      "inputs": [],
      "name": "IndexOutOfBounds",
      "type": "error"
    },
    {
      "inputs": [],
      "name": "InvalidInitialization",
      "type": "error"
    },
    {
      "inputs": [],
      "name": "InvalidVersion",
      "type": "error"
    },
    {
      "inputs": [],
      "name": "NotInitializing",
      "type": "error"
    },
    {
      "inputs": [
        {
          "internalType": "address",
          "name": "owner",
          "type": "address"
        }
      ],
      "name": "OwnableInvalidOwner",
      "type": "error"
    },
    {
      "inputs": [
        {
          "internalType": "address",
          "name": "account",
          "type": "address"
        }
      ],
      "name": "OwnableUnauthorizedAccount",
      "type": "error"
    },
    {
      "inputs": [],
      "name": "Unauthorized",
      "type": "error"
    },
    {
      "anonymous": false,
      "inputs": [
        {
          "indexed": true,
          "internalType": "address",
          "name": "caller",
          "type": "address"
        },
        {
          "indexed": false,
          "internalType": "bool",
          "name": "authorized",
          "type": "bool"
        }
      ],
      "name": "AuthorizedCallerUpdated",
      "type": "event"
    },
    {
      "anonymous": false,
      "inputs": [
        {
          "indexed": false,
          "internalType": "uint64",
          "name": "version",
          "type": "uint64"
        }
      ],
      "name": "Initialized",
      "type": "event"
    },
    {
      "anonymous": false,
      "inputs": [
        {
          "indexed": true,
          "internalType": "address",
          "name": "previousOwner",
          "type": "address"
        },
        {
          "indexed": true,
          "internalType": "address",
          "name": "newOwner",
          "type": "address"
        }
      ],
      "name": "OwnershipTransferStarted",
      "type": "event"
    },
    {
      "anonymous": false,
      "inputs": [
        {
          "indexed": true,
          "internalType": "address",
          "name": "previousOwner",
          "type": "address"
        },
        {
          "indexed": true,
          "internalType": "address",
          "name": "newOwner",
          "type": "address"
        }
      ],
      "name": "OwnershipTransferred",
      "type": "event"
    },
    {
      "anonymous": false,
      "inputs": [
        {
          "indexed": true,
          "internalType": "bytes32",
          "name": "txId",
          "type": "bytes32"
        },
        {
          "indexed": true,
          "internalType": "address",
          "name": "sender",
          "type": "address"
        },
        {
          "indexed": true,
          "internalType": "address",
          "name": "recipient",
          "type": "address"
        }
      ],
      "name": "TransactionCreated",
      "type": "event"
    },
    {
      "anonymous": false,
      "inputs": [
        {
          "indexed": true,
          "internalType": "bytes32",
          "name": "txId",
          "type": "bytes32"
        },
        {
          "indexed": false,
          "internalType": "enum ITransactions.TransactionStatus",
          "name": "previousStatus",
          "type": "uint8"
        },
        {
          "indexed": false,
          "internalType": "enum ITransactions.TransactionStatus",
          "name": "newStatus",
          "type": "uint8"
        }
      ],
      "name": "TransactionStatusUpdated",
      "type": "event"
    },
    {
      "inputs": [],
      "name": "acceptOwnership",
      "outputs": [],
      "stateMutability": "nonpayable",
      "type": "function"
    },
    {
      "inputs": [
        {
          "internalType": "bytes32",
          "name": "txId",
          "type": "bytes32"
        },
        {
          "internalType": "uint256",
          "name": "activationBlock",
          "type": "uint256"
        },
        {
          "internalType": "uint256",
          "name": "processingBlock",
          "type": "uint256"
        },
        {
          "internalType": "uint256",
          "name": "proposalBlock",
          "type": "uint256"
        }
      ],
      "name": "addNewVersion",
      "outputs": [],
      "stateMutability": "nonpayable",
      "type": "function"
    },
    {
      "inputs": [
        {
          "internalType": "address",
          "name": "recipient",
          "type": "address"
        },
        {
          "internalType": "bytes32",
          "name": "txId",
          "type": "bytes32"
        }
      ],
      "name": "addSubsequentTxForRecomputation",
      "outputs": [],
      "stateMutability": "nonpayable",
      "type": "function"
    },
    {
      "inputs": [
        {
          "internalType": "uint256",
          "name": "epoch",
          "type": "uint256"
        },
        {
          "internalType": "bytes32",
          "name": "txId",
          "type": "bytes32"
        }
      ],
      "name": "addUnfinishedTransaction",
      "outputs": [],
      "stateMutability": "nonpayable",
      "type": "function"
    },
    {
      "inputs": [
        {
          "internalType": "address",
          "name": "",
          "type": "address"
        }
      ],
      "name": "authorizedCallers",
      "outputs": [
        {
          "internalType": "bool",
          "name": "",
          "type": "bool"
        }
      ],
      "stateMutability": "view",
      "type": "function"
    },
    {
      "inputs": [
        {
          "internalType": "bytes32",
          "name": "txId",
          "type": "bytes32"
        },
        {
          "components": [
            {
              "internalType": "enum ITransactions.ResultType",
              "name": "result",
              "type": "uint8"
            },
            {
              "internalType": "enum ITransactions.VoteType",
              "name": "txExecutionResult",
              "type": "uint8"
            },
            {
              "internalType": "enum ITransactions.TransactionStatus",
              "name": "previousStatus",
              "type": "uint8"
            },
            {
              "internalType": "enum ITransactions.TransactionStatus",
              "name": "status",
              "type": "uint8"
            },
            {
              "internalType": "address",
              "name": "txOrigin",
              "type": "address"
            },
            {
              "internalType": "address",
              "name": "sender",
              "type": "address"
            },
            {
              "internalType": "address",
              "name": "recipient",
              "type": "address"
            },
            {
              "internalType": "address",
              "name": "activator",
              "type": "address"
            },
            {
              "internalType": "uint256",
              "name": "txSlot",
              "type": "uint256"
            },
            {
              "internalType": "uint256",
              "name": "initialRotations",
              "type": "uint256"
            },
            {
              "internalType": "uint256",
              "name": "numOfInitialValidators",
              "type": "uint256"
            },
            {
              "internalType": "uint256",
              "name": "epoch",
              "type": "uint256"
            },
            {
              "internalType": "bytes32",
              "name": "id",
              "type": "bytes32"
            },
            {
              "internalType": "bytes32",
              "name": "randomSeed",
              "type": "bytes32"
            },
            {
              "internalType": "bytes32",
              "name": "txExecutionHash",
              "type": "bytes32"
            },
            {
              "internalType": "bytes32",
              "name": "resultHash",
              "type": "bytes32"
            },
            {
              "internalType": "bytes",
              "name": "txCalldata",
              "type": "bytes"
            },
            {
              "internalType": "bytes",
              "name": "eqBlocksOutputs",
              "type": "bytes"
            },
            {
              "components": [
                {
                  "internalType": "uint256",
                  "name": "activationBlock",
                  "type": "uint256"
                },
                {
                  "internalType": "uint256",
                  "name": "processingBlock",
                  "type": "uint256"
                },
                {
                  "internalType": "uint256",
                  "name": "proposalBlock",
                  "type": "uint256"
                }
              ],
              "internalType": "struct ITransactions.ReadStateBlockRange[]",
              "name": "readStateBlockRanges",
              "type": "tuple[]"
            },
            {
              "internalType": "uint256",
              "name": "validUntil",
              "type": "uint256"
            },
            {
              "internalType": "uint256",
              "name": "value",
              "type": "uint256"
            },
            {
              "internalType": "uint256",
              "name": "lockedStorageUnitPrice",
              "type": "uint256"
            },
            {
              "internalType": "uint256",
              "name": "storageFeeUsed",
              "type": "uint256"
            }
          ],
          "internalType": "struct ITransactions.Transaction",
          "name": "transaction",
          "type": "tuple"
        }
      ],
      "name": "createTransaction",
      "outputs": [],
      "stateMutability": "nonpayable",
      "type": "function"
    },
    {
      "inputs": [
        {
          "internalType": "bytes32",
          "name": "txId",
          "type": "bytes32"
        }
      ],
      "name": "exists",
      "outputs": [
        {
          "internalType": "bool",
          "name": "",
          "type": "bool"
        }
      ],
      "stateMutability": "view",
      "type": "function"
    },
    {
      "inputs": [
        {
          "internalType": "bytes32",
          "name": "txId",
          "type": "bytes32"
        }
      ],
      "name": "getActivator",
      "outputs": [
        {
          "internalType": "address",
          "name": "",
          "type": "address"
        }
      ],
      "stateMutability": "view",
      "type": "function"
    },
    {
      "inputs": [
        {
          "internalType": "bytes32",
          "name": "txId",
          "type": "bytes32"
        }
      ],
      "name": "getCurrentVersionIndex",
      "outputs": [
        {
          "internalType": "uint256",
          "name": "",
          "type": "uint256"
        }
      ],
      "stateMutability": "view",
      "type": "function"
    },
    {
      "inputs": [
        {
          "internalType": "bytes32",
          "name": "txId",
          "type": "bytes32"
        }
      ],
      "name": "getEpoch",
      "outputs": [
        {
          "internalType": "uint256",
          "name": "",
          "type": "uint256"
        }
      ],
      "stateMutability": "view",
      "type": "function"
    },
    {
      "inputs": [
        {
          "internalType": "bytes32",
          "name": "txId",
          "type": "bytes32"
        }
      ],
      "name": "getEqBlocksOutputs",
      "outputs": [
        {
          "internalType": "bytes",
          "name": "",
          "type": "bytes"
        }
      ],
      "stateMutability": "view",
      "type": "function"
    },
    {
      "inputs": [
        {
          "internalType": "bytes32",
          "name": "txId",
          "type": "bytes32"
        }
      ],
      "name": "getInitialRotations",
      "outputs": [
        {
          "internalType": "uint256",
          "name": "",
          "type": "uint256"
        }
      ],
      "stateMutability": "view",
      "type": "function"
    },
    {
      "inputs": [
        {
          "internalType": "bytes32",
          "name": "txId",
          "type": "bytes32"
        }
      ],
      "name": "getNumOfInitialValidators",
      "outputs": [
        {
          "internalType": "uint256",
          "name": "",
          "type": "uint256"
        }
      ],
      "stateMutability": "view",
      "type": "function"
    },
    {
      "inputs": [
        {
          "internalType": "uint256",
          "name": "_epoch",
          "type": "uint256"
        }
      ],
      "name": "getNumOfUnfinishedTransactions",
      "outputs": [
        {
          "internalType": "uint256",
          "name": "",
          "type": "uint256"
        }
      ],
      "stateMutability": "view",
      "type": "function"
    },
    {
      "inputs": [
        {
          "internalType": "bytes32",
          "name": "txId",
          "type": "bytes32"
        }
      ],
      "name": "getPreviousStatus",
      "outputs": [
        {
          "internalType": "enum ITransactions.TransactionStatus",
          "name": "",
          "type": "uint8"
        }
      ],
      "stateMutability": "view",
      "type": "function"
    },
    {
      "inputs": [
        {
          "internalType": "bytes32",
          "name": "txId",
          "type": "bytes32"
        }
      ],
      "name": "getRandomSeed",
      "outputs": [
        {
          "internalType": "bytes32",
          "name": "",
          "type": "bytes32"
        }
      ],
      "stateMutability": "view",
      "type": "function"
    },
    {
      "inputs": [
        {
          "internalType": "bytes32",
          "name": "txId",
          "type": "bytes32"
        }
      ],
      "name": "getReadStateBlockRanges",
      "outputs": [
        {
          "components": [
            {
              "internalType": "uint256",
              "name": "activationBlock",
              "type": "uint256"
            },
            {
              "internalType": "uint256",
              "name": "processingBlock",
              "type": "uint256"
            },
            {
              "internalType": "uint256",
              "name": "proposalBlock",
              "type": "uint256"
            }
          ],
          "internalType": "struct ITransactions.ReadStateBlockRange[]",
          "name": "",
          "type": "tuple[]"
        }
      ],
      "stateMutability": "view",
      "type": "function"
    },
    {
      "inputs": [
        {
          "internalType": "bytes32",
          "name": "txId",
          "type": "bytes32"
        }
      ],
      "name": "getRecipient",
      "outputs": [
        {
          "internalType": "address",
          "name": "",
          "type": "address"
        }
      ],
      "stateMutability": "view",
      "type": "function"
    },
    {
      "inputs": [
        {
          "internalType": "bytes32",
          "name": "txId",
          "type": "bytes32"
        }
      ],
      "name": "getResult",
      "outputs": [
        {
          "internalType": "enum ITransactions.ResultType",
          "name": "",
          "type": "uint8"
        }
      ],
      "stateMutability": "view",
      "type": "function"
    },
    {
      "inputs": [
        {
          "internalType": "bytes32",
          "name": "txId",
          "type": "bytes32"
        }
      ],
      "name": "getResultHash",
      "outputs": [
        {
          "internalType": "bytes32",
          "name": "",
          "type": "bytes32"
        }
      ],
      "stateMutability": "view",
      "type": "function"
    },
    {
      "inputs": [
        {
          "internalType": "bytes32",
          "name": "txId",
          "type": "bytes32"
        }
      ],
      "name": "getSender",
      "outputs": [
        {
          "internalType": "address",
          "name": "",
          "type": "address"
        }
      ],
      "stateMutability": "view",
      "type": "function"
    },
    {
      "inputs": [
        {
          "internalType": "bytes32",
          "name": "txId",
          "type": "bytes32"
        }
      ],
      "name": "getStatus",
      "outputs": [
        {
          "internalType": "enum ITransactions.TransactionStatus",
          "name": "",
          "type": "uint8"
        }
      ],
      "stateMutability": "view",
      "type": "function"
    },
    {
      "inputs": [
        {
          "internalType": "address",
          "name": "recipient",
          "type": "address"
        }
      ],
      "name": "getSubsequentTxsForRecomputation",
      "outputs": [
        {
          "internalType": "bytes32[]",
          "name": "",
          "type": "bytes32[]"
        }
      ],
      "stateMutability": "view",
      "type": "function"
    },
    {
      "inputs": [
        {
          "internalType": "address",
          "name": "recipient",
          "type": "address"
        }
      ],
      "name": "getSubsequentTxsForRecomputationCount",
      "outputs": [
        {
          "internalType": "uint256",
          "name": "",
          "type": "uint256"
        }
      ],
      "stateMutability": "view",
      "type": "function"
    },
    {
      "inputs": [
        {
          "internalType": "bytes32",
          "name": "txId",
          "type": "bytes32"
        }
      ],
      "name": "getTransaction",
      "outputs": [
        {
          "components": [
            {
              "internalType": "enum ITransactions.ResultType",
              "name": "result",
              "type": "uint8"
            },
            {
              "internalType": "enum ITransactions.VoteType",
              "name": "txExecutionResult",
              "type": "uint8"
            },
            {
              "internalType": "enum ITransactions.TransactionStatus",
              "name": "previousStatus",
              "type": "uint8"
            },
            {
              "internalType": "enum ITransactions.TransactionStatus",
              "name": "status",
              "type": "uint8"
            },
            {
              "internalType": "address",
              "name": "txOrigin",
              "type": "address"
            },
            {
              "internalType": "address",
              "name": "sender",
              "type": "address"
            },
            {
              "internalType": "address",
              "name": "recipient",
              "type": "address"
            },
            {
              "internalType": "address",
              "name": "activator",
              "type": "address"
            },
            {
              "internalType": "uint256",
              "name": "txSlot",
              "type": "uint256"
            },
            {
              "internalType": "uint256",
              "name": "initialRotations",
              "type": "uint256"
            },
            {
              "internalType": "uint256",
              "name": "numOfInitialValidators",
              "type": "uint256"
            },
            {
              "internalType": "uint256",
              "name": "epoch",
              "type": "uint256"
            },
            {
              "internalType": "bytes32",
              "name": "id",
              "type": "bytes32"
            },
            {
              "internalType": "bytes32",
              "name": "randomSeed",
              "type": "bytes32"
            },
            {
              "internalType": "bytes32",
              "name": "txExecutionHash",
              "type": "bytes32"
            },
            {
              "internalType": "bytes32",
              "name": "resultHash",
              "type": "bytes32"
            },
            {
              "internalType": "bytes",
              "name": "txCalldata",
              "type": "bytes"
            },
            {
              "internalType": "bytes",
              "name": "eqBlocksOutputs",
              "type": "bytes"
            },
            {
              "components": [
                {
                  "internalType": "uint256",
                  "name": "activationBlock",
                  "type": "uint256"
                },
                {
                  "internalType": "uint256",
                  "name": "processingBlock",
                  "type": "uint256"
                },
                {
                  "internalType": "uint256",
                  "name": "proposalBlock",
                  "type": "uint256"
                }
              ],
              "internalType": "struct ITransactions.ReadStateBlockRange[]",
              "name": "readStateBlockRanges",
              "type": "tuple[]"
            },
            {
              "internalType": "uint256",
              "name": "validUntil",
              "type": "uint256"
            },
            {
              "internalType": "uint256",
              "name": "value",
              "type": "uint256"
            },
            {
              "internalType": "uint256",
              "name": "lockedStorageUnitPrice",
              "type": "uint256"
            },
            {
              "internalType": "uint256",
              "name": "storageFeeUsed",
              "type": "uint256"
            }
          ],
          "internalType": "struct ITransactions.Transaction",
          "name": "",
          "type": "tuple"
        }
      ],
      "stateMutability": "view",
      "type": "function"
    },
    {
      "inputs": [
        {
          "internalType": "bytes32",
          "name": "txId",
          "type": "bytes32"
        }
      ],
      "name": "getTxCalldata",
      "outputs": [
        {
          "internalType": "bytes",
          "name": "",
          "type": "bytes"
        }
      ],
      "stateMutability": "view",
      "type": "function"
    },
    {
      "inputs": [
        {
          "internalType": "bytes32",
          "name": "txId",
          "type": "bytes32"
        }
      ],
      "name": "getTxExecutionHash",
      "outputs": [
        {
          "internalType": "bytes32",
          "name": "",
          "type": "bytes32"
        }
      ],
      "stateMutability": "view",
      "type": "function"
    },
    {
      "inputs": [
        {
          "internalType": "bytes32",
          "name": "txId",
          "type": "bytes32"
        }
      ],
      "name": "getTxExecutionResult",
      "outputs": [
        {
          "internalType": "enum ITransactions.VoteType",
          "name": "",
          "type": "uint8"
        }
      ],
      "stateMutability": "view",
      "type": "function"
    },
    {
      "inputs": [
        {
          "internalType": "bytes32",
          "name": "txId",
          "type": "bytes32"
        }
      ],
      "name": "getTxOrigin",
      "outputs": [
        {
          "internalType": "address",
          "name": "",
          "type": "address"
        }
      ],
      "stateMutability": "view",
      "type": "function"
    },
    {
      "inputs": [
        {
          "internalType": "bytes32",
          "name": "txId",
          "type": "bytes32"
        }
      ],
      "name": "getTxOriginForTxId",
      "outputs": [
        {
          "internalType": "address",
          "name": "",
          "type": "address"
        }
      ],
      "stateMutability": "view",
      "type": "function"
    },
    {
      "inputs": [
        {
          "internalType": "bytes32",
          "name": "txId",
          "type": "bytes32"
        }
      ],
      "name": "getTxSlot",
      "outputs": [
        {
          "internalType": "uint256",
          "name": "",
          "type": "uint256"
        }
      ],
      "stateMutability": "view",
      "type": "function"
    },
    {
      "inputs": [
        {
          "internalType": "uint256",
          "name": "epoch",
          "type": "uint256"
        }
      ],
      "name": "getUnfinishedTransactions",
      "outputs": [
        {
          "internalType": "bytes32[]",
          "name": "",
          "type": "bytes32[]"
        }
      ],
      "stateMutability": "view",
      "type": "function"
    },
    {
      "inputs": [
        {
          "internalType": "uint256",
          "name": "epoch",
          "type": "uint256"
        }
      ],
      "name": "getUnfinishedTransactionsCount",
      "outputs": [
        {
          "internalType": "uint256",
          "name": "",
          "type": "uint256"
        }
      ],
      "stateMutability": "view",
      "type": "function"
    },
    {
      "inputs": [
        {
          "internalType": "uint256",
          "name": "epoch",
          "type": "uint256"
        },
        {
          "internalType": "uint256",
          "name": "offset",
          "type": "uint256"
        },
        {
          "internalType": "uint256",
          "name": "limit",
          "type": "uint256"
        }
      ],
      "name": "getUnfinishedTransactionsPaginated",
      "outputs": [
        {
          "internalType": "bytes32[]",
          "name": "",
          "type": "bytes32[]"
        }
      ],
      "stateMutability": "view",
      "type": "function"
    },
    {
      "inputs": [
        {
          "internalType": "bytes32",
          "name": "txId",
          "type": "bytes32"
        }
      ],
      "name": "getValidUntil",
      "outputs": [
        {
          "internalType": "uint256",
          "name": "",
          "type": "uint256"
        }
      ],
      "stateMutability": "view",
      "type": "function"
    },
    {
      "inputs": [
        {
          "internalType": "bytes32",
          "name": "txId",
          "type": "bytes32"
        }
      ],
      "name": "getValue",
      "outputs": [
        {
          "internalType": "uint256",
          "name": "",
          "type": "uint256"
        }
      ],
      "stateMutability": "view",
      "type": "function"
    },
    {
      "inputs": [
        {
          "internalType": "bytes32",
          "name": "txId",
          "type": "bytes32"
        },
        {
          "internalType": "uint256",
          "name": "index",
          "type": "uint256"
        }
      ],
      "name": "getVersionByIndex",
      "outputs": [
        {
          "components": [
            {
              "internalType": "uint256",
              "name": "activationBlock",
              "type": "uint256"
            },
            {
              "internalType": "uint256",
              "name": "processingBlock",
              "type": "uint256"
            },
            {
              "internalType": "uint256",
              "name": "proposalBlock",
              "type": "uint256"
            }
          ],
          "internalType": "struct ITransactions.ReadStateBlockRange",
          "name": "",
          "type": "tuple"
        }
      ],
      "stateMutability": "view",
      "type": "function"
    },
    {
      "inputs": [
        {
          "internalType": "bytes32",
          "name": "txId",
          "type": "bytes32"
        }
      ],
      "name": "getVersionCount",
      "outputs": [
        {
          "internalType": "uint256",
          "name": "",
          "type": "uint256"
        }
      ],
      "stateMutability": "view",
      "type": "function"
    },
    {
      "inputs": [],
      "name": "initialize",
      "outputs": [],
      "stateMutability": "nonpayable",
      "type": "function"
    },
    {
      "inputs": [
        {
          "internalType": "bytes32",
          "name": "txId",
          "type": "bytes32"
        }
      ],
      "name": "isTransactionInRecomputation",
      "outputs": [
        {
          "internalType": "bool",
          "name": "",
          "type": "bool"
        }
      ],
      "stateMutability": "view",
      "type": "function"
    },
    {
      "inputs": [],
      "name": "owner",
      "outputs": [
        {
          "internalType": "address",
          "name": "",
          "type": "address"
        }
      ],
      "stateMutability": "view",
      "type": "function"
    },
    {
      "inputs": [],
      "name": "pendingOwner",
      "outputs": [
        {
          "internalType": "address",
          "name": "",
          "type": "address"
        }
      ],
      "stateMutability": "view",
      "type": "function"
    },
    {
      "inputs": [
        {
          "internalType": "address",
          "name": "recipient",
          "type": "address"
        }
      ],
      "name": "popFirstSubsequentTxForRecomputation",
      "outputs": [
        {
          "internalType": "bytes32",
          "name": "",
          "type": "bytes32"
        }
      ],
      "stateMutability": "nonpayable",
      "type": "function"
    },
    {
      "inputs": [
        {
          "internalType": "uint256",
          "name": "epoch",
          "type": "uint256"
        },
        {
          "internalType": "bytes32",
          "name": "txId",
          "type": "bytes32"
        }
      ],
      "name": "removeUnfinishedTransaction",
      "outputs": [],
      "stateMutability": "nonpayable",
      "type": "function"
    },
    {
      "inputs": [],
      "name": "renounceOwnership",
      "outputs": [],
      "stateMutability": "nonpayable",
      "type": "function"
    },
    {
      "inputs": [
        {
          "internalType": "bytes32",
          "name": "txId",
          "type": "bytes32"
        },
        {
          "internalType": "address",
          "name": "activator",
          "type": "address"
        }
      ],
      "name": "setActivator",
      "outputs": [],
      "stateMutability": "nonpayable",
      "type": "function"
    },
    {
      "inputs": [
        {
          "internalType": "address",
          "name": "caller",
          "type": "address"
        },
        {
          "internalType": "bool",
          "name": "authorized",
          "type": "bool"
        }
      ],
      "name": "setAuthorizedCaller",
      "outputs": [],
      "stateMutability": "nonpayable",
      "type": "function"
    },
    {
      "inputs": [
        {
          "internalType": "address[]",
          "name": "callers",
          "type": "address[]"
        },
        {
          "internalType": "bool",
          "name": "authorized",
          "type": "bool"
        }
      ],
      "name": "setAuthorizedCallers",
      "outputs": [],
      "stateMutability": "nonpayable",
      "type": "function"
    },
    {
      "inputs": [
        {
          "internalType": "bytes32",
          "name": "txId",
          "type": "bytes32"
        },
        {
          "internalType": "bytes",
          "name": "outputs",
          "type": "bytes"
        }
      ],
      "name": "setEqBlocksOutputs",
      "outputs": [],
      "stateMutability": "nonpayable",
      "type": "function"
    },
    {
      "inputs": [
        {
          "internalType": "bytes32",
          "name": "txId",
          "type": "bytes32"
        },
        {
          "internalType": "uint256",
          "name": "price",
          "type": "uint256"
        }
      ],
      "name": "setLockedStorageUnitPrice",
      "outputs": [],
      "stateMutability": "nonpayable",
      "type": "function"
    },
    {
      "inputs": [
        {
          "internalType": "bytes32",
          "name": "txId",
          "type": "bytes32"
        },
        {
          "internalType": "enum ITransactions.TransactionStatus",
          "name": "status",
          "type": "uint8"
        }
      ],
      "name": "setPreviousStatus",
      "outputs": [],
      "stateMutability": "nonpayable",
      "type": "function"
    },
    {
      "inputs": [
        {
          "internalType": "bytes32",
          "name": "txId",
          "type": "bytes32"
        },
        {
          "internalType": "bytes32",
          "name": "seed",
          "type": "bytes32"
        }
      ],
      "name": "setRandomSeed",
      "outputs": [],
      "stateMutability": "nonpayable",
      "type": "function"
    },
    {
      "inputs": [
        {
          "internalType": "bytes32",
          "name": "txId",
          "type": "bytes32"
        },
        {
          "internalType": "enum ITransactions.ResultType",
          "name": "result",
          "type": "uint8"
        }
      ],
      "name": "setResult",
      "outputs": [],
      "stateMutability": "nonpayable",
      "type": "function"
    },
    {
      "inputs": [
        {
          "internalType": "bytes32",
          "name": "txId",
          "type": "bytes32"
        },
        {
          "internalType": "bytes32",
          "name": "hash",
          "type": "bytes32"
        }
      ],
      "name": "setResultHash",
      "outputs": [],
      "stateMutability": "nonpayable",
      "type": "function"
    },
    {
      "inputs": [
        {
          "internalType": "bytes32",
          "name": "txId",
          "type": "bytes32"
        },
        {
          "internalType": "enum ITransactions.TransactionStatus",
          "name": "status",
          "type": "uint8"
        }
      ],
      "name": "setStatus",
      "outputs": [],
      "stateMutability": "nonpayable",
      "type": "function"
    },
    {
      "inputs": [
        {
          "internalType": "bytes32",
          "name": "txId",
          "type": "bytes32"
        },
        {
          "internalType": "enum ITransactions.TransactionStatus",
          "name": "newStatus",
          "type": "uint8"
        }
      ],
      "name": "setStatusWithPrevious",
      "outputs": [],
      "stateMutability": "nonpayable",
      "type": "function"
    },
    {
      "inputs": [
        {
          "internalType": "bytes32",
          "name": "txId",
          "type": "bytes32"
        },
        {
          "internalType": "uint256",
          "name": "fee",
          "type": "uint256"
        }
      ],
      "name": "setStorageFeeUsed",
      "outputs": [],
      "stateMutability": "nonpayable",
      "type": "function"
    },
    {
      "inputs": [
        {
          "internalType": "bytes32",
          "name": "_txId",
          "type": "bytes32"
        },
        {
          "internalType": "enum ITransactions.TransactionStatus",
          "name": "_status",
          "type": "uint8"
        },
        {
          "internalType": "enum ITransactions.TransactionStatus",
          "name": "_previousStatus",
          "type": "uint8"
        }
      ],
      "name": "setTransactionAppealStatus",
      "outputs": [],
      "stateMutability": "nonpayable",
      "type": "function"
    },
    {
      "inputs": [
        {
          "internalType": "bytes32",
          "name": "txId",
          "type": "bytes32"
        },
        {
          "internalType": "bool",
          "name": "value",
          "type": "bool"
        }
      ],
      "name": "setTransactionInRecomputation",
      "outputs": [],
      "stateMutability": "nonpayable",
      "type": "function"
    },
    {
      "inputs": [
        {
          "internalType": "bytes32",
          "name": "txId",
          "type": "bytes32"
        },
        {
          "internalType": "bytes32",
          "name": "hash",
          "type": "bytes32"
        }
      ],
      "name": "setTxExecutionHash",
      "outputs": [],
      "stateMutability": "nonpayable",
      "type": "function"
    },
    {
      "inputs": [
        {
          "internalType": "bytes32",
          "name": "txId",
          "type": "bytes32"
        },
        {
          "internalType": "enum ITransactions.VoteType",
          "name": "result",
          "type": "uint8"
        }
      ],
      "name": "setTxExecutionResult",
      "outputs": [],
      "stateMutability": "nonpayable",
      "type": "function"
    },
    {
      "inputs": [
        {
          "internalType": "address",
          "name": "newOwner",
          "type": "address"
        }
      ],
      "name": "transferOwnership",
      "outputs": [],
      "stateMutability": "nonpayable",
      "type": "function"
    },
    {
      "inputs": [
        {
          "internalType": "bytes32",
          "name": "txId",
          "type": "bytes32"
        },
        {
          "internalType": "uint256",
          "name": "activationBlock",
          "type": "uint256"
        },
        {
          "internalType": "uint256",
          "name": "processingBlock",
          "type": "uint256"
        },
        {
          "internalType": "uint256",
          "name": "proposalBlock",
          "type": "uint256"
        }
      ],
      "name": "updateCurrentVersion",
      "outputs": [],
      "stateMutability": "nonpayable",
      "type": "function"
    },
    {
      "inputs": [
        {
          "internalType": "bytes32",
          "name": "txId",
          "type": "bytes32"
        },
        {
          "internalType": "uint256",
          "name": "field",
          "type": "uint256"
        },
        {
          "internalType": "uint256",
          "name": "value",
          "type": "uint256"
        }
      ],
      "name": "updateCurrentVersionField",
      "outputs": [],
      "stateMutability": "nonpayable",
      "type": "function"
    }
  ],
  "bytecode": "0x6080806040523460d2577ff0c57e16840df040f15088dc2f81fe391c3923bec73e23a9662efc9c229c6a005460ff8160401c1660c1576002600160401b03196001600160401b03821601605c575b604051612b1390816100d88239f35b6001600160401b0319166001600160401b039081177ff0c57e16840df040f15088dc2f81fe391c3923bec73e23a9662efc9c229c6a005581527fc7f505b2f371ae2175ee4913f4499e1f2633a7b5936321eed1cdaeb6115181d290602090a13880604d565b63f92ee8a960e01b60005260046000fd5b600080fdfe608080604052600436101561001357600080fd5b60003560e01c90816303d2107f14612101575080630643ae5b14611fd1578063090263a714611ed75780631458f30d14611e9c57806315fffa8d14611e685780631dbf24f714611e2c5780631e5b2dd314611e6d578063265b2b5614611e685780632b9f5e8314611e315780632bb849c314611e2c5780632ebcdb6e14611dfd578063343be44b14611d8a57806334457a8c146116b0578063346378d81461167457806335a69b351461164557806338a699a4146116075780633c6f7b05146115d85780633e7c706b146114ff5780633f743f0b146114b2578063454bbd29146114345780634aae13ca146110925780634f67ff341461101b578063536fff6c14610fdc5780635556edb514610f6e57806359d1199a14610f325780635de28ae014610efb5780636429e95714610eb8578063647cca5514610e6357806364f0582314610e2c578063685876be14610dc35780636984394014610d94578063715018a614610d1357806372d4a98014610c8d5780637966c9ee14610c5e57806379ba509714610c0e5780637e6d64a514610bdf578063808595b414610ba35780638129fc1c14610a395780638a2b04e7146109fe5780638da5cb5b146109c85780638de654ba1461096357806391f20d761461092c5780639ba0ae49146108fd5780639fee6dd6146108cf578063a035035d146108a0578063a323c85114610803578063a8df7e90146107c7578063add4c78414610793578063b88a631d14610764578063b944e6f714610714578063bb3f19e5146106da578063c4b87bb2146106bc578063dc0e124c1461066d578063de4920f41461063e578063de7187c5146105fb578063dfb3e12f146105ca578063e30c397814610594578063e681a9a314610500578063ed13af4014610466578063f296d67714610435578063f2fde38b146103ae578063f3d5a81714610362578063fbc6da751461032b5763fc8ffab6146102df57600080fd5b3461032657602036600319011261032657600435600052600060205261032261030e600d6040600020016124f8565b6040519182916020835260208301906121bd565b0390f35b600080fd5b34610326576020366003190112610326576004356000526000602052602060018060a01b0360026040600020015416604051908152f35b346103265761037036612145565b9033600052600460205260ff604060002054161561039e576000526000602052600a60406000200155600080f35b6282b42960e81b60005260046000fd5b34610326576020366003190112610326576103c7612274565b6103cf6129a0565b600080516020612abe83398151915280546001600160a01b0319166001600160a01b03928316908117909155600080516020612a5e833981519152549091167f38d16b8cac22d99fc7c124b9cd0de2d3fa1faef420bfe791d8c362d765e22700600080a3005b346103265760603660031901126103265761032261045a6044356024356004356128d3565b60405191829182612384565b346103265761047436612145565b6000604080516104838161221c565b8281528260208201520152816000526000602052600e604060002001548110156104ef576104c66104cc916060936000526000602052600e60406000200161259c565b50612675565b6104ed60405180926040809180518452602081015160208501520151910152565bf35b634e23d03560e01b60005260046000fd5b346103265761050e366123be565b33600052600460205260ff604060002054161561039e576040600080516020612a7e8339815191529183600052600060205261059160ff836000205460181c16918560005260006020526105658385600020612625565b85600052600060205261057b8185600020612646565b61058784518094612325565b6020830190612325565ba2005b3461032657600036600319011261032657600080516020612abe833981519152546040516001600160a01b039091168152602090f35b34610326576020366003190112610326576004356000526002602052602060ff604060002054166040519015158152f35b3461032657602036600319011261032657610614612274565b33600052600460205260ff604060002054161561039e576106366020916127e9565b604051908152f35b346103265760203660031901126103265760043560005260006020526020600e60406000200154604051908152f35b346103265760403660031901126103265760243560058110156103265733600052600460205260ff604060002054161561039e576106ba9060043560005260006020526040600020612606565b005b346103265760203660031901126103265760206106366004356127bd565b34610326576020366003190112610326576001600160a01b036106fb612274565b1660005260036020526020604060002054604051908152f35b346103265760403660031901126103265761072d612274565b33600052600460205260ff604060002054161561039e5760018060a01b031660005260036020526106ba60243560406000206124bb565b346103265760203660031901126103265760043560005260006020526020600460406000200154604051908152f35b34610326576020366003190112610326576004356000526000602052602060ff604060002054166104ed604051809261230b565b34610326576107d536612145565b9033600052600460205260ff604060002054161561039e576000526000602052601260406000200155600080f35b3461032657610811366121fe565b9233600052600460205260ff604060002054161561039e57806000526000602052600e604060002001549081156104ef57600019820191821161088a576106ba9461088493604051956108638761221c565b8652602086015260408501526000526000602052600e60406000200161259c565b906125b8565b634e487b7160e01b600052601160045260246000fd5b346103265760203660031901126103265760043560005260006020526020600f60406000200154604051908152f35b34610326576108dd36612145565b33600052600460205260ff604060002054161561039e576106ba91612735565b346103265760203660031901126103265760043560005260006020526020600960406000200154604051908152f35b34610326576020366003190112610326576004356000526000602052602060ff60406000205460101c166104ed6040518092612325565b3461032657610971366123be565b33600052600460205260ff604060002054161561039e576040600080516020612a7e8339815191529183600052600060205261059160ff836000205460181c169185600052600060205261057b8185600020612646565b3461032657600036600319011261032657600080516020612a5e833981519152546040516001600160a01b039091168152602090f35b3461032657610a0c366123be565b33600052600460205260ff604060002054161561039e576106ba9160005260006020526040600020612625565b3461032657600036600319011261032657600080516020612a9e8339815191525460ff8160401c1615906001600160401b03811680159081610b9b575b6001149081610b91575b159081610b88575b50610b775767ffffffffffffffff198116600117600080516020612a9e8339815191525581610b4a575b50610abb612a2f565b610ac3612a2f565b610acb612a2f565b3315610b3457610ada336129c1565b610ae057005b60ff60401b19600080516020612a9e8339815191525416600080516020612a9e833981519152557fc7f505b2f371ae2175ee4913f4499e1f2633a7b5936321eed1cdaeb6115181d2602060405160018152a1005b631e4fbdf760e01b600052600060045260246000fd5b68ffffffffffffffffff19166801000000000000000117600080516020612a9e8339815191525581610ab2565b63f92ee8a960e01b60005260046000fd5b90501583610a88565b303b159150610a80565b839150610a76565b3461032657610bb136612145565b9033600052600460205260ff604060002054161561039e576000526000602052600960406000200155600080f35b346103265760203660031901126103265760043560005260006020526020600760406000200154604051908152f35b3461032657600036600319011261032657600080516020612abe83398151915254336001600160a01b0390911603610c49576106ba336129c1565b63118cdaa760e01b6000523360045260246000fd5b346103265760203660031901126103265760043560005260006020526020600a60406000200154604051908152f35b3461032657606036600319011261032657600435602435600f8110156103265760443590600f8210156103265733600052600460205260ff604060002054161561039e57600080516020612a7e83398151915291610591604092856000526000602052610cfd8185600020612646565b85600052600060205261057b8385600020612625565b3461032657600036600319011261032657610d2c6129a0565b600080516020612abe83398151915280546001600160a01b0319908116909155600080516020612a5e833981519152805491821690556000906001600160a01b03167f8be0079c531659141344cd1fd0a4f28419497f9722a3daafe3b4186f6b6457e08280a3005b346103265760203660031901126103265760043560005260006020526020601060406000200154604051908152f35b34610326576020366003190112610326576004356000526001602052604060002060405190816020825491828152019160005260206000209060005b818110610e16576103228561045a81870382612253565b8254845260209093019260019283019201610dff565b34610326576020366003190112610326576004356000526000602052602060ff60406000205460081c166104ed6040518092612318565b3461032657604036600319011261032657610e7c612136565b33600052600460205260ff604060002054161561039e576106ba90600435600052600260205260406000209060ff801983541691151516179055565b34610326576020366003190112610326576004356000526000602052610322610ee7600e60406000200161269d565b604051918291602083526020830190612332565b34610326576020366003190112610326576004356000526000602052602060ff60406000205460181c166104ed6040518092612325565b3461032657610f4036612145565b9033600052600460205260ff604060002054161561039e576000526000602052600b60406000200155600080f35b34610326576040366003190112610326576024356001600160a01b03811681036103265733600052600460205260ff604060002054161561039e57600435600090815260208190526040902060030180546001600160a01b0319166001600160a01b03909216919091179055005b34610326576020366003190112610326576001600160a01b03610ffd612274565b166000526004602052602060ff604060002054166040519015158152f35b34610326576020366003190112610326576001600160a01b0361103c612274565b166000526003602052604060002060405190816020825491828152019160005260206000209060005b81811061107c576103228561045a81870382612253565b8254845260209093019260019283019201611065565b346103265760203660031901126103265760006102c06040516110b481612237565b8281528260208201528260408201528260608201528260808201528260a08201528260c08201528260e08201528261010082015282610120820152826101408201528261016082015282610180820152826101a0820152826101c0820152826101e08201526060610200820152606061022082015260606102408201528261026082015282610280820152826102a08201520152600435600052600060205260406000206040519061116582612237565b80549060ff8216600681101561141e57835260ff8260081c1691600583101561141e5760129260208501526111a360ff8260101c1660408601612669565b6111b660ff8260181c1660608601612669565b60201c6001600160a01b0390811660808501526001820154811660a08501526002820154811660c085015260038201541660e08401526004810154610100840152600581015461012084015260068101546101408401526007810154610160840152600881015461018084015260098101546101a0840152600a8101546101c0840152600b8101546101e0840152611250600c82016124f8565b610200840152611262600d82016124f8565b610220840152611274600e820161269d565b610240840152600f810154610260840152601081015461028084015260118101546102a084015201546102c08201526040518091602082526112ba60208301825161230b565b6112cc60208201516040840190612318565b6112de60408201516060840190612325565b6112f060608201516080840190612325565b60018060a01b0360808201511660a083015260018060a01b0360a08201511660c083015260018060a01b0360c08201511660e083015260018060a01b0360e0820151166101008301526101008101516101208301526101208101516101408301526101408101516101608301526101608101516101808301526101808101516101a08301526101a08101516101c08301526101c08101516101e08301526101e08101516102008301526102c06113ef6113d76113bf6102008501516102e06102208801526103008701906121bd565b610220850151868203601f19016102408801526121bd565b610240840151858203601f1901610260870152612332565b916102608101516102808501526102808101516102a08501526102a08101518285015201516102e08301520390f35b634e487b7160e01b600052602160045260246000fd5b346103265760403660031901126103265761144d612274565b7fad857fa38c9319cb80848f1ef2f924383b90297eb5d71755738ff037d100faa16020611478612136565b926114816129a0565b6001600160a01b031660008181526004835260409020805460ff191660ff86151516179055926040519015158152a2005b346103265760403660031901126103265760243560068110156103265733600052600460205260ff604060002054161561039e576106ba90600435600052600060205260406000206125ee565b34610326576060366003190112610326576004356024356044359133600052600460205260ff604060002054161561039e57806000526000602052600e604060002001549182156104ef57600019830192831161088a578061157a575090611576916000526000602052600e60406000200161259c565b5055005b600181036115a4575060019161159f916000526000602052600e60406000200161259c565b500155005b6002036115c75760029161159f916000526000602052600e60406000200161259c565b63a9146eeb60e01b60005260046000fd5b346103265760203660031901126103265760043560005260006020526020600560406000200154604051908152f35b3461032657602036600319011261032657600435600052600060205260ff60406000205460181c16600f81101561141e576020906040519015158152f35b346103265760203660031901126103265760043560005260006020526020600660406000200154604051908152f35b346103265761168236612145565b9033600052600460205260ff604060002054161561039e576000526000602052601160406000200155600080f35b34610326576040366003190112610326576001600160401b0360243511610326576102e060243536036003190112610326576040516116ee81612237565b602435600401356006811015610326578152602480350135600581101561032657602082015260446024350135600f81101561032657604082015260646024350135600f81101561032657606082015261174c60846024350161228a565b608082015261175f60a46024350161228a565b60a082015261177260c46024350161228a565b60c082015261178560e46024350161228a565b60e08201526024356101048101356101008301526101248101356101208301526101448101356101408301526101648101356101608301526101848101356101808301526101a48101356101a08301526101c48101356101c08301526101e48101356101e083015261020401356001600160401b038111610326576118129060043691602435010161229e565b61020082015261022460243501356001600160401b038111610326576118409060043691602435010161229e565b61022082015261024460243501356001600160401b0381116103265736602382602435010112156103265761187c6004826024350101356122f4565b9061188a6040519283612253565b60046024803583019182013580855260208501939236606090920201909101116103265760248181350101915b602480358301600481013560600201018310611d48575050506102408201526024356102648101356102608301526102848101356102808301526102a48101356102a08301526102c401356102c08201523360009081526004602052604090205460ff161561039e57600435600052600060205260406000208151600681101561141e5761194590826125ee565b6020820151600581101561141e5761195d9082612606565b6040820151600f81101561141e576119759082612625565b6060820151600f81101561141e5761198d9082612646565b60808201518154640100000000600160c01b03191660209190911b640100000000600160c01b031617815560a08201516001820180546001600160a01b03199081166001600160a01b039384161790915560c0840151600284018054831691841691909117905560e08401516003840180549092169216919091179055610100820151600482015561012082015160058201556101408201516006820155610160820151600782015561018082015160088201556101a082015160098201556101c0820151600a8201556101e0820151600b8201556102008201518051909290600c8301906001600160401b038111611c5d57611a9481611a8e84546123dd565b84612417565b602094601f8211600114611ce357611ac8929394958291600092611c73575b50508160011b916000199060031b1c19161790565b90555b600d8201916102208201519283516001600160401b038111611c5d57611af581611a8e84546123dd565b602094601f8211600114611c7e57611b28929394958291600092611c735750508160011b916000199060031b1c19161790565b90555b610240820151805190600e830190600160401b8311611c5d578154838355808410611c0a575b506020019060005260206000206000915b838310611bd657610260860151600f86015561028086015160108601556102a086015160118601556102c0860151601286015560a086015160c08701516001600160a01b0390811691166004357f8da32500fbd0be8afe0905a3b7ea5f782f1d7d731e9fdaabea50d69f14e933ce600080a4005b6003602082611bfe600194518690604060029180518455602081015160018501550151910155565b01920192019190611b62565b8060030290600382040361088a578360030260038104850361088a5783600052602060002091820191015b818110611c425750611b51565b60039060008155600060018201556000600282015501611c35565b634e487b7160e01b600052604160045260246000fd5b015190508680611ab3565b601f1982169583600052806000209160005b888110611ccb57508360019596979810611cb2575b505050811b019055611b2b565b015160001960f88460031b161c19169055858080611ca5565b91926020600181928685015181550194019201611c90565b601f1982169583600052806000209160005b888110611d3057508360019596979810611d17575b505050811b019055611acb565b015160001960f88460031b161c19169055858080611d0a565b91926020600181928685015181550194019201611cf5565b606083360312610326576004606060208093604051611d668161221c565b873581528288013583820152604088013560408201528152019401939150506118b7565b3461032657611d98366121fe565b909233600052600460205260ff604060002054161561039e576000526000602052600e6040600020019260405192611dcf8461221c565b835260208301526040820152815491600160401b831015611c5d57826108849160016106ba9501815561259c565b346103265760203660031901126103265760043560005260006020526020600b60406000200154604051908152f35b612187565b34610326576020366003190112610326576004356000526000602052602060018060a01b0360036040600020015416604051908152f35b61215b565b3461032657602036600319011261032657600435600052600060205261032261030e600c6040600020016124f8565b3461032657611eaa36612145565b33600052600460205260ff604060002054161561039e576106ba91600052600160205260406000206124bb565b34610326576040366003190112610326576004356001600160401b03811161032657366023820112156103265780600401356001600160401b038111610326576024820191602436918360051b01011161032657611f33612136565b611f3b6129a0565b8015159060005b838110611f4b57005b6001906001600160a01b03611f69611f6483888a612469565b61248f565b166000526004602052611f8c8360406000209060ff801983541691151516179055565b818060a01b03611fa0611f6483888a612469565b167fad857fa38c9319cb80848f1ef2f924383b90297eb5d71755738ff037d100faa16020604051878152a201611f42565b34610326576040366003190112610326576024356001600160401b03811161032657366023820112156103265780600401356001600160401b0381116103265736602482840101116103265733600052600460205260ff604060002054161561039e576004356000526000602052600d60406000200160009161205881611a8e84546123dd565b82601f821160011461209a578190849561208794959261208c5750508160011b916000199060031b1c19161790565b905580f35b602492500101358580611ab3565b601f198216948385526020852091855b8781106120e65750836001959697106120c9575b505050811b01905580f35b0160240135600019600384901b60f8161c191690558480806120be565b909260206001819260248787010135815501940191016120aa565b3461032657602036600319011261032657600435600090815260208181526040909120600101546001600160a01b0316825290f35b60243590811515820361032657565b6040906003190112610326576004359060243590565b346103265760203660031901126103265760043560005260016020526020604060002054604051908152f35b34610326576020366003190112610326576004356000526000602052602060018060a01b03604060002054821c16604051908152f35b919082519283825260005b8481106121e9575050826000602080949584010152601f8019910116010190565b806020809284010151828286010152016121c8565b60809060031901126103265760043590602435906044359060643590565b606081019081106001600160401b03821117611c5d57604052565b6102e081019081106001600160401b03821117611c5d57604052565b90601f801991011681019081106001600160401b03821117611c5d57604052565b600435906001600160a01b038216820361032657565b35906001600160a01b038216820361032657565b81601f82011215610326578035906001600160401b038211611c5d57604051926122d2601f8401601f191660200185612253565b8284526020838301011161032657816000926020809301838601378301015290565b6001600160401b038111611c5d5760051b60200190565b90600682101561141e5752565b90600582101561141e5752565b90600f82101561141e5752565b906020808351928381520192019060005b8181106123505750505090565b909192602060608261237960019488516040809180518452602081015160208501520151910152565b019401929101612343565b602060408183019282815284518094520192019060005b8181106123a85750505090565b825184526020938401939092019160010161239b565b60409060031901126103265760043590602435600f8110156103265790565b90600182811c9216801561240d575b60208310146123f757565b634e487b7160e01b600052602260045260246000fd5b91607f16916123ec565b601f821161242457505050565b6000526020600020906020601f840160051c8301931061245f575b601f0160051c01905b818110612453575050565b60008155600101612448565b909150819061243f565b91908110156124795760051b0190565b634e487b7160e01b600052603260045260246000fd5b356001600160a01b03811681036103265790565b80548210156124795760005260206000200190600090565b805490600160401b821015611c5d57816124dd9160016124f4940181556124a3565b819391549060031b91821b91600019901b19161790565b9055565b906040519182600082549261250c846123dd565b808452936001811690811561257a5750600114612533575b5061253192500383612253565b565b90506000929192526020600020906000915b81831061255e5750509060206125319282010138612524565b6020919350806001915483858901015201910190918492612545565b90506020925061253194915060ff191682840152151560051b82010138612524565b8054821015612479576000526003602060002091020190600090565b91906125d857805182556020810151600183015560400151600290910155565b634e487b7160e01b600052600060045260246000fd5b90600681101561141e5760ff80198354169116179055565b90600581101561141e5761ff0082549160081b169061ff001916179055565b90600f81101561141e5762ff000082549160101b169062ff00001916179055565b90600f81101561141e5763ff00000082549160181b169063ff0000001916179055565b600f82101561141e5752565b906040516126828161221c565b60406002829480548452600181015460208501520154910152565b9081546126a9816122f4565b926126b76040519485612253565b818452602084019060005260206000206000915b8383106126d85750505050565b600360206001926126e885612675565b8152019201920191906126cb565b8054801561271f57600019019061270d82826124a3565b8154906000199060031b1b1916905555565b634e487b7160e01b600052603160045260246000fd5b6000526001602052604060002080549060005b8281106127555750505050565b8361276082846124a3565b90549060031b1c1461277457600101612748565b600019830193509091831161088a5782612531938203612796575b50506126f6565b6124dd6127a66127b492856124a3565b90549060031b1c92846124a3565b9055388061278f565b6000526000602052600e6040600020015480156127e357600019810190811161088a5790565b50600090565b6001600160a01b0316600090815260036020526040902080549081156128cc5760008154156128b8578082602092522092600093548493600019810190811194855b6128a45781811015612880576001810180821161286c579061284f600192876124a3565b90549060031b1c6128636124dd83896124a3565b9055018561282b565b634e487b7160e01b88526011600452602488fd5b50509250926128906040926126f6565b828152600260205220805460ff1916905590565b634e487b7160e01b87526011600452602487fd5b634e487b7160e01b81526032600452602490fd5b5050600090565b9190916000526001602052604060002090815490818410156129825783820391821161088a578082101561297a5750905b61290d826122f4565b9261291b6040519485612253565b828452601f1961292a846122f4565b0136602086013760005b838110612942575050505090565b80820180831161088a5761295690846124a3565b90549060031b1c9085518110156124795760019160208260051b8801015201612934565b905090612904565b50505050604051612994602082612253565b60008152600036813790565b600080516020612a5e833981519152546001600160a01b03163303610c4957565b600080516020612abe83398151915280546001600160a01b0319908116909155600080516020612a5e83398151915280549182166001600160a01b0393841690811790915591167f8be0079c531659141344cd1fd0a4f28419497f9722a3daafe3b4186f6b6457e0600080a3565b60ff600080516020612a9e8339815191525460401c1615612a4c57565b631afcd79f60e31b60005260046000fdfe9016d09d72d40fdae2fd8ceac6b6234c7706214fd39c1cd1e609a0528c199300c8a7adcd793ee2c31f7814aeef44437537b00ebc2e9ab3dec66d7561411b4d7bf0c57e16840df040f15088dc2f81fe391c3923bec73e23a9662efc9c229c6a00237e158222e3e6968b72b9db0d8043aacf074ad9f650f0d1606b4d82ee432c00a2646970667358221220c16cce6e9708b579558ff33c07da48b343cfc6d55d5827d17037897f664ff2bc64736f6c634300081c0033",
  "linkReferences": {},
  "deployedLinkReferences": {}
}