{
  "_format": "hh-sol-artifact-1",
  "contractName": "FinalizationPhase",
  "sourceName": "contracts/phases/FinalizationPhase.sol",
  "abi": [
    {
      "inputs": [],
      "stateMutability": "nonpayable",
      "type": "constructor"
    },
    {
      "inputs": [],
      "name": "FinalizationNotAllowed",
      "type": "error"
    },
    {
      "inputs": [],
      "name": "FinalizationWindowForRevealingNotOpened",
      "type": "error"
    },
    {
      "inputs": [],
      "name": "InvalidInitialization",
      "type": "error"
    },
    {
      "inputs": [],
      "name": "InvalidPageSize",
      "type": "error"
    },
    {
      "inputs": [],
      "name": "NotInitializing",
      "type": "error"
    },
    {
      "inputs": [
        {
          "internalType": "address",
          "name": "owner",
          "type": "address"
        }
      ],
      "name": "OwnableInvalidOwner",
      "type": "error"
    },
    {
      "inputs": [
        {
          "internalType": "address",
          "name": "account",
          "type": "address"
        }
      ],
      "name": "OwnableUnauthorizedAccount",
      "type": "error"
    },
    {
      "inputs": [],
      "name": "RecoverRangeInvalid",
      "type": "error"
    },
    {
      "inputs": [],
      "name": "ReentrancyGuardReentrantCall",
      "type": "error"
    },
    {
      "inputs": [],
      "name": "TransactionCanNotBeFinalized",
      "type": "error"
    },
    {
      "inputs": [],
      "name": "TransactionNotAcceptedNorUndetermined",
      "type": "error"
    },
    {
      "inputs": [],
      "name": "TransactionNotFound",
      "type": "error"
    },
    {
      "inputs": [],
      "name": "Unauthorized",
      "type": "error"
    },
    {
      "anonymous": false,
      "inputs": [
        {
          "indexed": true,
          "internalType": "bytes32",
          "name": "txId",
          "type": "bytes32"
        },
        {
          "indexed": true,
          "internalType": "address",
          "name": "caller",
          "type": "address"
        },
        {
          "indexed": false,
          "internalType": "enum ITransactions.TransactionStatus",
          "name": "previousStatus",
          "type": "uint8"
        },
        {
          "indexed": false,
          "internalType": "enum ITransactions.TransactionStatus",
          "name": "newStatus",
          "type": "uint8"
        },
        {
          "indexed": false,
          "internalType": "bool",
          "name": "advanced",
          "type": "bool"
        }
      ],
      "name": "AdvanceStuckTransactionAttempted",
      "type": "event"
    },
    {
      "anonymous": false,
      "inputs": [
        {
          "indexed": true,
          "internalType": "address",
          "name": "caller",
          "type": "address"
        },
        {
          "indexed": false,
          "internalType": "bool",
          "name": "authorized",
          "type": "bool"
        }
      ],
      "name": "AuthorizedCallerUpdated",
      "type": "event"
    },
    {
      "anonymous": false,
      "inputs": [
        {
          "indexed": false,
          "internalType": "uint256",
          "name": "attempted",
          "type": "uint256"
        },
        {
          "indexed": false,
          "internalType": "uint256",
          "name": "succeeded",
          "type": "uint256"
        },
        {
          "indexed": false,
          "internalType": "uint256",
          "name": "failed",
          "type": "uint256"
        }
      ],
      "name": "BatchFinalizationCompleted",
      "type": "event"
    },
    {
      "anonymous": false,
      "inputs": [
        {
          "indexed": true,
          "internalType": "address",
          "name": "account",
          "type": "address"
        },
        {
          "indexed": false,
          "internalType": "bool",
          "name": "granted",
          "type": "bool"
        }
      ],
      "name": "CleanupRoleUpdated",
      "type": "event"
    },
    {
      "anonymous": false,
      "inputs": [
        {
          "indexed": true,
          "internalType": "uint256",
          "name": "epoch",
          "type": "uint256"
        },
        {
          "indexed": false,
          "internalType": "uint256",
          "name": "processedCount",
          "type": "uint256"
        },
        {
          "indexed": false,
          "internalType": "uint256",
          "name": "canceledCount",
          "type": "uint256"
        },
        {
          "indexed": false,
          "internalType": "uint256",
          "name": "finalizedCount",
          "type": "uint256"
        }
      ],
      "name": "ForceCleanupExecuted",
      "type": "event"
    },
    {
      "anonymous": false,
      "inputs": [
        {
          "indexed": false,
          "internalType": "uint64",
          "name": "version",
          "type": "uint64"
        }
      ],
      "name": "Initialized",
      "type": "event"
    },
    {
      "anonymous": false,
      "inputs": [
        {
          "indexed": true,
          "internalType": "address",
          "name": "previousOwner",
          "type": "address"
        },
        {
          "indexed": true,
          "internalType": "address",
          "name": "newOwner",
          "type": "address"
        }
      ],
      "name": "OwnershipTransferStarted",
      "type": "event"
    },
    {
      "anonymous": false,
      "inputs": [
        {
          "indexed": true,
          "internalType": "address",
          "name": "previousOwner",
          "type": "address"
        },
        {
          "indexed": true,
          "internalType": "address",
          "name": "newOwner",
          "type": "address"
        }
      ],
      "name": "OwnershipTransferred",
      "type": "event"
    },
    {
      "anonymous": false,
      "inputs": [
        {
          "indexed": true,
          "internalType": "bytes32",
          "name": "txId",
          "type": "bytes32"
        },
        {
          "indexed": false,
          "internalType": "enum ITransactions.TransactionStatus",
          "name": "previousState",
          "type": "uint8"
        },
        {
          "indexed": false,
          "internalType": "enum ITransactions.TransactionStatus",
          "name": "updatedState",
          "type": "uint8"
        }
      ],
      "name": "ProcessIdlenessEvent",
      "type": "event"
    },
    {
      "anonymous": false,
      "inputs": [
        {
          "indexed": true,
          "internalType": "address",
          "name": "recipient",
          "type": "address"
        },
        {
          "indexed": false,
          "internalType": "uint256",
          "name": "fromSlot",
          "type": "uint256"
        },
        {
          "indexed": false,
          "internalType": "uint256",
          "name": "toSlot",
          "type": "uint256"
        },
        {
          "indexed": false,
          "internalType": "uint256",
          "name": "finalizedCount",
          "type": "uint256"
        },
        {
          "indexed": false,
          "internalType": "uint256",
          "name": "cancelledCount",
          "type": "uint256"
        },
        {
          "indexed": false,
          "internalType": "uint256",
          "name": "adminJumpCount",
          "type": "uint256"
        },
        {
          "indexed": false,
          "internalType": "uint256",
          "name": "trackerOrphanRemovedCount",
          "type": "uint256"
        },
        {
          "indexed": false,
          "internalType": "uint256",
          "name": "noneCount",
          "type": "uint256"
        }
      ],
      "name": "RecoverRecipientCompleted",
      "type": "event"
    },
    {
      "anonymous": false,
      "inputs": [
        {
          "indexed": true,
          "internalType": "bytes32",
          "name": "txId",
          "type": "bytes32"
        },
        {
          "indexed": false,
          "internalType": "enum ITransactions.TransactionStatus",
          "name": "previousStatus",
          "type": "uint8"
        },
        {
          "indexed": false,
          "internalType": "bool",
          "name": "shouldProcessMessages",
          "type": "bool"
        }
      ],
      "name": "TransactionFinalized",
      "type": "event"
    },
    {
      "anonymous": false,
      "inputs": [
        {
          "indexed": true,
          "internalType": "bytes32",
          "name": "txId",
          "type": "bytes32"
        }
      ],
      "name": "TransactionForceCanceled",
      "type": "event"
    },
    {
      "inputs": [],
      "name": "acceptOwnership",
      "outputs": [],
      "stateMutability": "nonpayable",
      "type": "function"
    },
    {
      "inputs": [],
      "name": "addressManager",
      "outputs": [
        {
          "internalType": "contract IAddressManager",
          "name": "",
          "type": "address"
        }
      ],
      "stateMutability": "view",
      "type": "function"
    },
    {
      "inputs": [
        {
          "internalType": "bytes32",
          "name": "txId",
          "type": "bytes32"
        }
      ],
      "name": "advanceStuckTransaction",
      "outputs": [
        {
          "components": [
            {
              "internalType": "bool",
              "name": "advanced",
              "type": "bool"
            },
            {
              "internalType": "enum ITransactions.TransactionStatus",
              "name": "previousStatus",
              "type": "uint8"
            },
            {
              "internalType": "enum ITransactions.TransactionStatus",
              "name": "newStatus",
              "type": "uint8"
            }
          ],
          "internalType": "struct IFinalizationPhase.AdvanceStuckResult",
          "name": "result",
          "type": "tuple"
        }
      ],
      "stateMutability": "nonpayable",
      "type": "function"
    },
    {
      "inputs": [
        {
          "internalType": "address",
          "name": "",
          "type": "address"
        }
      ],
      "name": "authorizedCallers",
      "outputs": [
        {
          "internalType": "bool",
          "name": "",
          "type": "bool"
        }
      ],
      "stateMutability": "view",
      "type": "function"
    },
    {
      "inputs": [
        {
          "internalType": "address",
          "name": "",
          "type": "address"
        }
      ],
      "name": "cleanupRole",
      "outputs": [
        {
          "internalType": "bool",
          "name": "",
          "type": "bool"
        }
      ],
      "stateMutability": "view",
      "type": "function"
    },
    {
      "inputs": [
        {
          "components": [
            {
              "internalType": "bytes32[]",
              "name": "txIds",
              "type": "bytes32[]"
            }
          ],
          "internalType": "struct IFinalizationPhase.BatchFinalizeParams",
          "name": "params",
          "type": "tuple"
        }
      ],
      "name": "finalizeBatch",
      "outputs": [
        {
          "components": [
            {
              "internalType": "uint256",
              "name": "attempted",
              "type": "uint256"
            },
            {
              "internalType": "uint256",
              "name": "succeeded",
              "type": "uint256"
            },
            {
              "internalType": "uint256",
              "name": "failed",
              "type": "uint256"
            },
            {
              "internalType": "bytes32[]",
              "name": "failedTxIds",
              "type": "bytes32[]"
            },
            {
              "internalType": "bool[]",
              "name": "shouldProcessMessagesFlags",
              "type": "bool[]"
            },
            {
              "internalType": "bool[]",
              "name": "shouldSendOnAcceptanceFlags",
              "type": "bool[]"
            }
          ],
          "internalType": "struct IFinalizationPhase.BatchFinalizeResult",
          "name": "result",
          "type": "tuple"
        }
      ],
      "stateMutability": "nonpayable",
      "type": "function"
    },
    {
      "inputs": [
        {
          "components": [
            {
              "internalType": "bytes32",
              "name": "txId",
              "type": "bytes32"
            }
          ],
          "internalType": "struct IFinalizationPhase.FinalizeTransactionParams",
          "name": "params",
          "type": "tuple"
        }
      ],
      "name": "finalizeTransaction",
      "outputs": [
        {
          "components": [
            {
              "internalType": "bool",
              "name": "success",
              "type": "bool"
            },
            {
              "internalType": "address",
              "name": "recipient",
              "type": "address"
            },
            {
              "internalType": "uint256",
              "name": "lastVoteTimestamp",
              "type": "uint256"
            },
            {
              "internalType": "uint256",
              "name": "lastCommitTimestamp",
              "type": "uint256"
            },
            {
              "internalType": "bool",
              "name": "shouldProcessMessages",
              "type": "bool"
            },
            {
              "internalType": "bool",
              "name": "shouldSendOnAcceptance",
              "type": "bool"
            },
            {
              "internalType": "bool",
              "name": "idlenessProcessed",
              "type": "bool"
            },
            {
              "internalType": "bool",
              "name": "queuedToFinalized",
              "type": "bool"
            },
            {
              "internalType": "enum ITransactions.TransactionStatus",
              "name": "previousStatus",
              "type": "uint8"
            },
            {
              "internalType": "enum ITransactions.TransactionStatus",
              "name": "idlenessStatus",
              "type": "uint8"
            }
          ],
          "internalType": "struct IFinalizationPhase.FinalizeTransactionResult",
          "name": "result",
          "type": "tuple"
        }
      ],
      "stateMutability": "nonpayable",
      "type": "function"
    },
    {
      "inputs": [
        {
          "internalType": "uint256",
          "name": "epoch",
          "type": "uint256"
        }
      ],
      "name": "forceCleanupPendingTransactions",
      "outputs": [
        {
          "components": [
            {
              "internalType": "uint256",
              "name": "processedCount",
              "type": "uint256"
            },
            {
              "internalType": "uint256",
              "name": "canceledCount",
              "type": "uint256"
            },
            {
              "internalType": "uint256",
              "name": "finalizedCount",
              "type": "uint256"
            },
            {
              "internalType": "bytes32[]",
              "name": "affectedTxIds",
              "type": "bytes32[]"
            },
            {
              "internalType": "address[]",
              "name": "affectedRecipients",
              "type": "address[]"
            }
          ],
          "internalType": "struct IFinalizationPhase.ForceCleanupResult",
          "name": "result",
          "type": "tuple"
        }
      ],
      "stateMutability": "nonpayable",
      "type": "function"
    },
    {
      "inputs": [
        {
          "components": [
            {
              "internalType": "uint256",
              "name": "epoch",
              "type": "uint256"
            },
            {
              "internalType": "uint256",
              "name": "offset",
              "type": "uint256"
            },
            {
              "internalType": "uint256",
              "name": "pageSize",
              "type": "uint256"
            }
          ],
          "internalType": "struct IFinalizationPhase.ForceCleanupParams",
          "name": "params",
          "type": "tuple"
        }
      ],
      "name": "forceCleanupPendingTransactionsWithPagination",
      "outputs": [
        {
          "components": [
            {
              "internalType": "uint256",
              "name": "processedCount",
              "type": "uint256"
            },
            {
              "internalType": "uint256",
              "name": "canceledCount",
              "type": "uint256"
            },
            {
              "internalType": "uint256",
              "name": "finalizedCount",
              "type": "uint256"
            },
            {
              "internalType": "bytes32[]",
              "name": "affectedTxIds",
              "type": "bytes32[]"
            },
            {
              "internalType": "address[]",
              "name": "affectedRecipients",
              "type": "address[]"
            }
          ],
          "internalType": "struct IFinalizationPhase.ForceCleanupResult",
          "name": "result",
          "type": "tuple"
        }
      ],
      "stateMutability": "nonpayable",
      "type": "function"
    },
    {
      "inputs": [
        {
          "internalType": "address",
          "name": "account",
          "type": "address"
        }
      ],
      "name": "grantCleanupRole",
      "outputs": [],
      "stateMutability": "nonpayable",
      "type": "function"
    },
    {
      "inputs": [
        {
          "internalType": "address",
          "name": "account",
          "type": "address"
        }
      ],
      "name": "hasCleanupRole",
      "outputs": [
        {
          "internalType": "bool",
          "name": "",
          "type": "bool"
        }
      ],
      "stateMutability": "view",
      "type": "function"
    },
    {
      "inputs": [
        {
          "internalType": "address",
          "name": "_addressManager",
          "type": "address"
        }
      ],
      "name": "initialize",
      "outputs": [],
      "stateMutability": "nonpayable",
      "type": "function"
    },
    {
      "inputs": [
        {
          "internalType": "address",
          "name": "caller",
          "type": "address"
        }
      ],
      "name": "isAuthorizedCaller",
      "outputs": [
        {
          "internalType": "bool",
          "name": "",
          "type": "bool"
        }
      ],
      "stateMutability": "view",
      "type": "function"
    },
    {
      "inputs": [],
      "name": "owner",
      "outputs": [
        {
          "internalType": "address",
          "name": "",
          "type": "address"
        }
      ],
      "stateMutability": "view",
      "type": "function"
    },
    {
      "inputs": [],
      "name": "pendingOwner",
      "outputs": [
        {
          "internalType": "address",
          "name": "",
          "type": "address"
        }
      ],
      "stateMutability": "view",
      "type": "function"
    },
    {
      "inputs": [
        {
          "internalType": "bytes32",
          "name": "txId",
          "type": "bytes32"
        }
      ],
      "name": "processIdlenessIfNeededWrapper",
      "outputs": [],
      "stateMutability": "nonpayable",
      "type": "function"
    },
    {
      "inputs": [
        {
          "internalType": "address",
          "name": "recipient",
          "type": "address"
        },
        {
          "internalType": "uint256",
          "name": "fromSlot",
          "type": "uint256"
        },
        {
          "internalType": "uint256",
          "name": "toSlot",
          "type": "uint256"
        }
      ],
      "name": "recoverRecipient",
      "outputs": [
        {
          "components": [
            {
              "internalType": "uint256",
              "name": "slot",
              "type": "uint256"
            },
            {
              "internalType": "bytes32",
              "name": "txId",
              "type": "bytes32"
            },
            {
              "internalType": "uint8",
              "name": "preStatus",
              "type": "uint8"
            },
            {
              "internalType": "uint8",
              "name": "postStatus",
              "type": "uint8"
            },
            {
              "internalType": "enum IFinalizationPhase.RecoverAction",
              "name": "action",
              "type": "uint8"
            },
            {
              "internalType": "bool",
              "name": "messageDispatchSkipped",
              "type": "bool"
            }
          ],
          "internalType": "struct IFinalizationPhase.RecoverSlotResult[]",
          "name": "results",
          "type": "tuple[]"
        }
      ],
      "stateMutability": "nonpayable",
      "type": "function"
    },
    {
      "inputs": [
        {
          "internalType": "bytes32",
          "name": "txId",
          "type": "bytes32"
        }
      ],
      "name": "recoveryFinalizeWrapper",
      "outputs": [
        {
          "components": [
            {
              "internalType": "bool",
              "name": "success",
              "type": "bool"
            },
            {
              "internalType": "address",
              "name": "recipient",
              "type": "address"
            },
            {
              "internalType": "uint256",
              "name": "lastVoteTimestamp",
              "type": "uint256"
            },
            {
              "internalType": "uint256",
              "name": "lastCommitTimestamp",
              "type": "uint256"
            },
            {
              "internalType": "bool",
              "name": "shouldProcessMessages",
              "type": "bool"
            },
            {
              "internalType": "bool",
              "name": "shouldSendOnAcceptance",
              "type": "bool"
            },
            {
              "internalType": "bool",
              "name": "idlenessProcessed",
              "type": "bool"
            },
            {
              "internalType": "bool",
              "name": "queuedToFinalized",
              "type": "bool"
            },
            {
              "internalType": "enum ITransactions.TransactionStatus",
              "name": "previousStatus",
              "type": "uint8"
            },
            {
              "internalType": "enum ITransactions.TransactionStatus",
              "name": "idlenessStatus",
              "type": "uint8"
            }
          ],
          "internalType": "struct IFinalizationPhase.FinalizeTransactionResult",
          "name": "result",
          "type": "tuple"
        }
      ],
      "stateMutability": "nonpayable",
      "type": "function"
    },
    {
      "inputs": [],
      "name": "renounceOwnership",
      "outputs": [],
      "stateMutability": "nonpayable",
      "type": "function"
    },
    {
      "inputs": [
        {
          "internalType": "address",
          "name": "account",
          "type": "address"
        }
      ],
      "name": "revokeCleanupRole",
      "outputs": [],
      "stateMutability": "nonpayable",
      "type": "function"
    },
    {
      "inputs": [
        {
          "internalType": "address",
          "name": "_addressManager",
          "type": "address"
        }
      ],
      "name": "setAddressManager",
      "outputs": [],
      "stateMutability": "nonpayable",
      "type": "function"
    },
    {
      "inputs": [
        {
          "internalType": "address",
          "name": "caller",
          "type": "address"
        },
        {
          "internalType": "bool",
          "name": "authorized",
          "type": "bool"
        }
      ],
      "name": "setAuthorizedCaller",
      "outputs": [],
      "stateMutability": "nonpayable",
      "type": "function"
    },
    {
      "inputs": [
        {
          "internalType": "address[]",
          "name": "callers",
          "type": "address[]"
        },
        {
          "internalType": "bool",
          "name": "authorized",
          "type": "bool"
        }
      ],
      "name": "setAuthorizedCallers",
      "outputs": [],
      "stateMutability": "nonpayable",
      "type": "function"
    },
    {
      "inputs": [
        {
          "internalType": "address",
          "name": "newOwner",
          "type": "address"
        }
      ],
      "name": "transferOwnership",
      "outputs": [],
      "stateMutability": "nonpayable",
      "type": "function"
    }
  ],
  "bytecode": "0x6080806040523460d2577ff0c57e16840df040f15088dc2f81fe391c3923bec73e23a9662efc9c229c6a005460ff8160401c1660c1576002600160401b03196001600160401b03821601605c575b60405161497b90816100d88239f35b6001600160401b0319166001600160401b039081177ff0c57e16840df040f15088dc2f81fe391c3923bec73e23a9662efc9c229c6a005581527fc7f505b2f371ae2175ee4913f4499e1f2633a7b5936321eed1cdaeb6115181d290602090a13880604d565b63f92ee8a960e01b60005260046000fd5b600080fdfe60c0604052600436101561001257600080fd5b6000803560e01c8063039b99c21461124d5780630652b57a1461120d578063090263a714611111578063110dd4ca146110575780632a9f43381461102c5780633ab76e9f1461100557806345216a9314610c67578063454bbd2914610be95780634c8eb5e514610b7a578063536fff6c14610b3b57806359d14b4114610b3b57806364f6995314610a7d5780636a9baae5146107fe578063715018a61461077d57806379ba50971461072c57806386ef9482146106b25780638da5cb5b1461067c578063c25b3b791461062e578063c4d66de81461047f578063d11007eb14610291578063d3ab81bf14610224578063e30c3978146101ee578063f2fde38b146101665763fc5723831461012557600080fd5b346101635760203660031901126101635760209060ff906040906001600160a01b0361014f6112e6565b168152600284522054166040519015158152f35b80fd5b5034610163576020366003190112610163576101806112e6565b610188612256565b60008051602061492683398151915280546001600160a01b0319166001600160a01b039283169081179091556000805160206148c6833981519152549091167f38d16b8cac22d99fc7c124b9cd0de2d3fa1faef420bfe791d8c362d765e227008380a380f35b5034610163578060031936011261016357600080516020614926833981519152546040516001600160a01b039091168152602090f35b50346101635760203660031901126101635761023e6112e6565b610246612256565b6001600160a01b0316808252600260209081526040808420805460ff19169055518381527f8d78e867647fc5d6ee1e7d252bc2eb71641836bc809b66b53cc83114cf09cd729190a280f35b50346101635760203660031901126101635760043581604080516102b4816114eb565b82815282602082015201526102c76135fe565b6001600160a01b036102d7611a20565b166040516302ef145760e51b8152826004820152602081602481855afa908115610474578491610445575b50600f811015610431571561042257604051916320a9a67960e01b83526004830152602482015260608160448173__$1e7965504fcd07e43b3b4fc0910b7ae6d9$__5af4908115610417578291610397575b60608260016000805160206148e683398151915255610395604080519280511515845261038960208201516020860190611420565b01516040830190611420565bf35b90506060813d60601161040f575b816103b260609383611506565b8101031261040b57604051906103c7826114eb565b6103d08161193d565b8252602081015190600f8210156104075760409160208401520151600f8110156104035760609250604082015238610354565b8280fd5b8380fd5b5080fd5b3d91506103a5565b6040513d84823e3d90fd5b6331fb878f60e01b8352600483fd5b634e487b7160e01b84526021600452602484fd5b610467915060203d60201161046d575b61045f8183611506565b810190611a08565b38610302565b503d610455565b6040513d86823e3d90fd5b5034610163576020366003190112610163576104996112e6565b600080516020614906833981519152549060ff8260401c1615916001600160401b03811680159081610626575b600114908161061c575b159081610613575b506106045767ffffffffffffffff19811660011760008051602061490683398151915255826105d7575b5061050b614877565b610513614877565b61051b614877565b33156105c35761052a336144da565b610532614877565b61053a614877565b60016000805160206148e68339815191525582546001600160a01b0319166001600160a01b039190911617825561056e5780f35b60ff60401b196000805160206149068339815191525416600080516020614906833981519152557fc7f505b2f371ae2175ee4913f4499e1f2633a7b5936321eed1cdaeb6115181d2602060405160018152a180f35b631e4fbdf760e01b83526004839052602483fd5b68ffffffffffffffffff191668010000000000000001176000805160206149068339815191525538610502565b63f92ee8a960e01b8452600484fd5b905015386104d8565b303b1591506104d0565b8491506104c6565b5034610163576020366003190112610163576106486119ac565b5030330361066e5761066a61065e6004356136d6565b6040519182918261142d565b0390f35b6282b42960e81b8152600490fd5b50346101635780600319360112610163576000805160206148c6833981519152546040516001600160a01b039091168152602090f35b5034610163576020366003190112610163576106cc6119ac565b50338152600160205260ff6040822054161561066e576106ea6135fe565b6106f56004356136d6565b9081511561071d5760016000805160206148e6833981519152556040518061066a848261142d565b6390cb8b6160e01b8152600490fd5b503461016357806003193601126101635760008051602061492683398151915254336001600160a01b039091160361076a57610767336144da565b80f35b63118cdaa760e01b815233600452602490fd5b5034610163578060031936011261016357610796612256565b60008051602061492683398151915280546001600160a01b03199081169091556000805160206148c68339815191528054918216905581906001600160a01b03167f8be0079c531659141344cd1fd0a4f28419497f9722a3daafe3b4186f6b6457e08280a380f35b5034610163576060366003190112610163576108186112e6565b602435604435338452600260205260ff60408520541615610a6f5761083b6135fe565b81811115610a605761084b611a20565b9061085461363a565b604051636b5c1cfb60e01b81526001600160a01b0395861660048201526024810194909452604484019190915290831660648301529091166084820152818160a48173__$1e7965504fcd07e43b3b4fc0910b7ae6d9$__5af4908115610417578291610959575b509060016000805160206148e683398151915255604051918291602083016020845282518091526020604085019301915b8181106108fa575050500390f35b91935091602060c060019260a0875180518352848101518584015260ff604082015116604084015260ff6060820151166060840152608081015161093d81611400565b60808401520151151560a08201520194019101918493926108ec565b90503d8083833e61096a8183611506565b810190602081830312610403578051906001600160401b038211610407570181601f82011215610403578051906109a0826115b2565b926109ae6040519485611506565b828452602060c0818601940283010191818311610a5c57602001925b8284106109db5750505050386108bb565b60c084830312610a5c57604051906109f2826114ba565b8451825260208501516020830152610a0c6040860161199e565b6040830152610a1d6060860161199e565b60608301526080850151906005821015610a585782602092608060c0950152610a4860a0880161193d565b60a08201528152019301926109ca565b8780fd5b8580fd5b6368a016bf60e11b8452600484fd5b6282b42960e81b8452600484fd5b503461016357606036600319011261016357610a97611856565b50338152600260205260ff6040822054161561066e57610abe604435602435600435612c60565b816001600160a01b03610acf613599565b166080830151813b15610403578291610afe91604051948580948193630c8af7e960e31b835260048301611893565b03925af18015610b3057610b1b575b6040518061066a8482611344565b610b26838092611506565b61040b5781610b0d565b6040513d85823e3d90fd5b50346101635760203660031901126101635760209060ff906040906001600160a01b03610b666112e6565b168152600184522054166040519015158152f35b503461016357602036600319011261016357610b946112e6565b610b9c612256565b60018060a01b0316808252600260205260408220600160ff198254161790557f8d78e867647fc5d6ee1e7d252bc2eb71641836bc809b66b53cc83114cf09cd72602060405160018152a280f35b503461016357604036600319011261016357610c036112e6565b7fad857fa38c9319cb80848f1ef2f924383b90297eb5d71755738ff037d100faa16020610c2e611301565b92610c37612256565b6001600160a01b03168085526001825260408520805460ff191660ff86151516179055926040519015158152a280f35b503461016357602036600319011261016357600435906001600160401b0382116101635760208260040192600319903603011261016357604051610caa816114ba565b8181526020810191808352604082019281845260608301906060825260808401916060835260a085019360608552338152600160205260ff6040822054161561066e57610cf56135fe565b610cfd611a20565b610d0561363a565b98610d1081806118d6565b895250610d27610d2082806118d6565b905061190b565b97610d35610d2083806118d6565b8752610d44610d2083806118d6565b88526001600160a01b039283169a9394859490931692845b610d6684806118d6565b9050811015610f04578c60246020610d8884610d8289806118d6565b9061181c565b35926040519283809263fbc6da7560e01b82528660048301525afa908115610eb7579082918991610ec2575b506040516378e6dfbb60e11b81529160209183918291610dd891906004840161194a565b03818a5afa908115610eb757908d918991610e7c575b5015610e6a5750610dfe816136d6565b908c82511515600014610e4a5750509060a0600192610e1d8b51611979565b8b528b610e3284608084015115159251611965565b5201511515610e42828d51611965565b525b01610d5c565b610e64925090610e5e8a6001959b93611965565b52611979565b96610e44565b97610e6491610e5e826001959b611965565b9150506020813d8211610eaf575b81610e9760209383611506565b81010312610a5857610ea98d9161193d565b38610dee565b3d9150610e8a565b6040513d8a823e3d90fd5b9150506020813d8211610efc575b81610edd60209383611506565b81010312610a5857602082610ef4610dd893611527565b915091610db4565b3d9150610ed0565b5095999493925097995050818352610f1b8261190b565b84525b818110610fe557505091610fbf610fd29261066a95947f3d139c84ad9350b1f396f3d75cb0770c4f495459f8ef8755e5335a12632bac3d88518a5190610f7c8451604051938493846040919493926060820195825260208201520152565b0390a160016000805160206148e68339815191525560405198899860208a525160208a01525160408901525160608801525160c0608088015260e0870190611310565b9051858203601f190160a08701526113ca565b9051838203601f190160c08501526113ca565b80610ff26001928b611965565b51610ffe828751611965565b5201610f1e565b5034610163578060031936011261016357546040516001600160a01b039091168152602090f35b50346101635760203660031901126101635760209060ff906040906001600160a01b0361014f6112e6565b503461016357602036600319011261016357611071611856565b50338152600260205260ff6040822054161561066e57611092600435612299565b816001600160a01b036110a3613599565b166080830151813b156104035782916110d291604051968780948193630c8af7e960e31b835260048301611893565b03925af19283156111045761066a936110f4575b505060405191829182611344565b816110fe91611506565b386110e6565b50604051903d90823e3d90fd5b5034610163576040366003190112610163576004356001600160401b03811161040b573660238201121561040b578060040135906001600160401b038211610403576024810190602436918460051b0101116104035790611170611301565b91611179612256565b82151591845b81811061118a578580f35b6001906001600160a01b036111a86111a383868861181c565b611842565b168752816020526111c886604089209060ff801983541691151516179055565b818060a01b036111dc6111a383868861181c565b167fad857fa38c9319cb80848f1ef2f924383b90297eb5d71755738ff037d100faa16020604051888152a20161117f565b5034610163576020366003190112610163576112276112e6565b61122f612256565b81546001600160a01b0319166001600160a01b039190911617815580f35b5034610163576020366003190112610163576004353033036112d857602490826001600160a01b0361127d611a20565b166040519384809263255709e560e11b82528560048301525afa908115610b30576112af9284926112b4575b50611b48565b505080f35b6112d19192503d8086833e6112c98183611506565b8101906115c9565b90386112a9565b6282b42960e81b8252600482fd5b600435906001600160a01b03821682036112fc57565b600080fd5b6024359081151582036112fc57565b906020808351928381520192019060005b81811061132e5750505090565b8251845260209384019390920191600101611321565b9060208252805160208301526020810151604083015260408101516060830152608061137e606083015160a08386015260c0850190611310565b9101519160a0601f19828403019101526020808351928381520192019060005b8181106113ab5750505090565b82516001600160a01b031684526020938401939092019160010161139e565b906020808351928381520192019060005b8181106113e85750505090565b825115158452602093840193909201916001016113db565b6005111561140a57565b634e487b7160e01b600052602160045260246000fd5b90600f82101561140a5752565b6114b8909291926101208061014083019580511515845260018060a01b036020820151166020850152604081015160408501526060810151606085015260808101511515608085015260a0810151151560a085015260c0810151151560c085015260e0810151151560e08501526114ae610100820151610100860190611420565b0151910190611420565b565b60c081019081106001600160401b038211176114d557604052565b634e487b7160e01b600052604160045260246000fd5b606081019081106001600160401b038211176114d557604052565b90601f801991011681019081106001600160401b038211176114d557604052565b51906001600160a01b03821682036112fc57565b60005b83811061154e5750506000910152565b818101518382015260200161153e565b81601f820112156112fc5780516001600160401b0381116114d55760405192611591601f8301601f191660200185611506565b818452602082840101116112fc576115af916020808501910161153b565b90565b6001600160401b0381116114d55760051b60200190565b6020818303126112fc578051906001600160401b0382116112fc57016102e0818303126112fc57604051916102e083018381106001600160401b038211176114d557604052815160068110156112fc578352602082015160058110156112fc5760208401526040820151600f8110156112fc5760408401526060820151600f8110156112fc57606084015261166060808301611527565b608084015261167160a08301611527565b60a084015261168260c08301611527565b60c084015261169360e08301611527565b60e08401526101008201516101008401526101208201516101208401526101408201516101408401526101608201516101608401526101808201516101808401526101a08201516101a08401526101c08201516101c08401526101e08201516101e08401526102008201516001600160401b0381116112fc578161171891840161155e565b6102008401526102208201516001600160401b0381116112fc578161173e91840161155e565b6102208401526102408201516001600160401b0381116112fc57820181601f820112156112fc57805190611771826115b2565b9261177f6040519485611506565b828452602060608186019402830101918183116112fc57602001925b8284106117e05750505050906102c0916102408401526102608101516102608401526102808101516102808401526102a08101516102a084015201516102c082015290565b6060848303126112fc5760206060916040516117fb816114eb565b8651815282870151838201526040870151604082015281520193019261179b565b919081101561182c5760051b0190565b634e487b7160e01b600052603260045260246000fd5b356001600160a01b03811681036112fc5790565b6040519060a082018281106001600160401b038211176114d557604052606060808360008152600060208201526000604082015282808201520152565b602060408183019282815284518094520192019060005b8181106118b75750505090565b82516001600160a01b03168452602093840193909201916001016118aa565b903590601e19813603018212156112fc57018035906001600160401b0382116112fc57602001918160051b360383136112fc57565b90611915826115b2565b6119226040519182611506565b8281528092611933601f19916115b2565b0190602036910137565b519081151582036112fc57565b6001600160a01b039091168152602081019190915260400190565b805182101561182c5760209160051b010190565b60001981146119885760010190565b634e487b7160e01b600052601160045260246000fd5b519060ff821682036112fc57565b6040519061014082018281106001600160401b038211176114d5576040526000610120838281528260208201528260408201528260608201528260808201528260a08201528260c08201528260e0820152826101008201520152565b908160209103126112fc5751600f8110156112fc5790565b600054604051631bae711d60e21b815260206004820181905260126024830152712a3930b739b0b1ba34b7b726b0b730b3b2b960711b60448301529091829060649082906001600160a01b03165afa908115611ac557600091611a8b575b506001600160a01b031690565b90506020813d602011611abd575b81611aa660209383611506565b810103126112fc57611ab790611527565b38611a7e565b3d9150611a99565b6040513d6000823e3d90fd5b9080601f830112156112fc578151611ae8816115b2565b92611af66040519485611506565b81845260208085019260051b8201019283116112fc57602001905b828210611b1e5750505090565b8151815260209182019101611b11565b91908260409103126112fc576115af60208351930161193d565b9190606001805192600093600f811015612218576005141580612241575b8061222c575b80612203575b611b9a57505191600f831015611b86579190565b634e487b7160e01b81526021600452602490fd5b8354604051631bae711d60e21b8152602060048201819052600d60248301526c49646c656e657373506861736560981b60448301529095939291869060649082906001600160a01b03165afa948515610b305783956121c7575b50611bfd61363a565b94604051602081018181106001600160401b038211176121b3576040908152838252516323d783ed60e11b8152905160048201529084908290602490829084906001600160a01b03165af190811561047457849161209e575b50805190600f821015908161208a57829760208201938451600f81101561207657875190600f821015611f4b571480612011575b611c9957505050505050509190565b969895966001600160a01b03611cad611a20565b6040516302ef145760e51b815260048101899052911694602082602481895afa918215612006578c92611fe5575b50611f6b57600f811015611f6b578114611fd6575060409182018051925163ecf55f8360e01b8152926001600160a01b039283169260209185918291611d27918b91166004840161194a565b0381855afa928315611fcb578a93611f8a575b506004831015611f4b5760028314928315611f7f575b50600f87101580611f6b579086929160058914908115611f5f575b8115611f35575b5015611ec8575160408051630341e56360e31b81529390928492909183918e918391611dab91906001600160a01b03166004840161194a565b03925af1908115611ebd578991611e8c575b50905b8115611e84575b50611ddf57505050505191600f831015611b86579190565b809193969294503b1561040b578180916044604051809481936346f32a5d60e11b8352896004840152611e15602484018d611420565b5af1801561041757611e74575b50905190600f821015611b86575060407ffaf1928d3a3ff7eeb812a61cff434e2054765f37de74057fb2da4245373bdf7791611e6082518092611420565b611e6d6020820187611420565ba260019190565b81611e7e91611506565b38611e22565b905038611dc7565b611eae915060403d604011611eb6575b611ea68183611506565b810190611b2e565b905038611dbd565b503d611e9c565b6040513d8b823e3d90fd5b516040805163910048fb60e01b81529390928492909183918e918391611efb91906001600160a01b03166004840161194a565b03925af1908115611ebd578991611f14575b5090611dc0565b611f2d915060403d604011611eb657611ea68183611506565b905038611f0d565b9192935050611f4b57908591600c881438611d72565b634e487b7160e01b8a52602160045260248afd5b5050600d88148b611d6b565b634e487b7160e01b8b52602160045260248bfd5b600314925038611d50565b9092506020813d602011611fc3575b81611fa660209383611506565b81010312611fbf57516004811015611fbf579138611d3a565b8980fd5b3d9150611f99565b6040513d8c823e3d90fd5b98505050505050505060019190565b611fff91925060203d60201161046d5761045f8183611506565b9038611cdb565b6040513d8e823e3d90fd5b50879350600581148015612069575b848115612059575b8115612035575b50611c8a565b905061204557600c81148461202f565b634e487b7160e01b88526021600452602488fd5b905061204557600d811484612028565b5087935060068114612020565b634e487b7160e01b89526021600452602489fd5b634e487b7160e01b86526021600452602486fd5b90503d8085833e6120af8183611506565b8101906020818303126121af578051906001600160401b038211610a5c57019060e0828203126121af576040519160e083018381106001600160401b0382111761219b576040528051600f8110156121975783526020810151600f81101561219757602084015261212260408201611527565b604084015261213360608201611527565b606084015261214460808201611527565b608084015260a08101516001600160401b0381116121975782612168918301611ad1565b60a084015260c0810151906001600160401b0382116121975761218c929101611ad1565b60c082015238611c56565b8680fd5b634e487b7160e01b87526041600452602487fd5b8480fd5b634e487b7160e01b86526041600452602486fd5b9094506020813d6020116121fb575b816121e360209383611506565b81010312610403576121f490611527565b9338611bf4565b3d91506121d6565b508151600f81101561221857600c1415611b72565b634e487b7160e01b85526021600452602485fd5b508151600f81101561221857600d1415611b6c565b508151600f8110156122185760061415611b66565b6000805160206148c6833981519152546001600160a01b0316330361227757565b63118cdaa760e01b6000523360045260246000fd5b9190820180921161198857565b906122a2611856565b916122ab611a20565b6122b361363a565b60405163342c3b5f60e11b815260048101849052915a600060a081905290849060249082906001600160a01b03861690fa9283156126a15760a05193612c1f575b5082519081158015612c1a575b612bef57606491808311612be7575b50909192600060a0528287526123258361190b565b9160a05193612334895161190b565b60805260a0519586935b82851061241b5750505050506123538261190b565b906060870191825260a0515b8381106123fb57505050506123738161190b565b6080850190815260a0515b8281106123d257505083516020808601516040808801518151948552928401919091528201527f6a1411cafcd9b72c38b4923b549b77f628695cee34168eaba04576f7610196a1915080606081015b0390a2565b600190818060a01b036123e782608051611965565b51166123f4828551611965565b520161237e565b8061240860019284611965565b51612414828651611965565b520161235f565b909192939661242a8883611965565b5160405163255709e560e11b81526004810182905260a051919990929091836024816001600160a01b038b165afa9283156126a15760a05193612bc9575b506060830151600f81101561279e576007148015612bb2575b61277b576102608301518015159081612ba8575b50156127b6576060830151600f81101561279e576001141580612786575b61277b576001600160a01b0387163b15612693576040516346f32a5d60e11b8152600481018b90526008602482015260a05181604481836001600160a01b038d165af180156126a157612769575b506001600160a01b0387163b1561269357604051634ff736eb60e11b8152600481018c9052602481018b905260a05181604481836001600160a01b038d165af180156126a157612757575b508961256161255a8b611979565b9a8a611965565b5260208d016125708151611979565b90526125ab60c060018060a01b03871694019360208c60018060a01b038751166040519485928392634113628960e11b84526004840161194a565b0381845afa80156126a1578c9260a0519161271c575b50156126ae578451604051639c88381960e01b81529260209284929091839182916125f8916001600160a01b03166004840161194a565b039160a051905af180156126a15761265a575b50612626906001935b848060a01b0390511690608051614548565b987f258a297b31a4dd4c7a9b45d91fc82c36f662592841caa590be0fd795a7a38c3160a05160a051a25b019392919061233e565b906020823d8211612699575b8161267360209383611506565b810103126126935760019361268a6126269361193d565b5093509061260b565b60a05180fd5b3d9150612666565b6040513d60a051823e3d90fd5b845190949291506001600160a01b0316843b15612693578b6126e995604051808098819463e5d31ced60e01b835260a051966004840161194a565b039160a051905af19182156126a1576001946126269361270a575b50612614565b60a05161271691611506565b38612704565b9250506020823d821161274f575b8161273760209383611506565b81010312612693576127498c9261193d565b386125c1565b3d915061272a565b60a05161276391611506565b3861254c565b60a05161277591611506565b38612501565b985060019150612650565b506060830151600f81101561279e57600214156124b3565b634e487b7160e01b60a051526021600452602460a051fd5b9860608392930151600f81101561279e576001148015612b91575b8015612b7a575b8015612b63575b8015612b4c575b6127f5575b5050600190612650565b60c0820151604051634113628960e11b8152929a919392906020908290819061282c9088906001600160a01b03166004840161194a565b03816001600160a01b038a165afa9081156126a15760a05191612b13575b5015612aa05760c08a0151604051639c88381960e01b81529190602090839081906128839088906001600160a01b03166004840161194a565b038160a05160018060a01b038b165af180156126a157612a66575b6128ba91505b60018060a01b0360c08c01511690608051614548565b986001600160a01b0387163b15612693576040516346f32a5d60e11b8152600481018490526007602482015260a05181604481836001600160a01b038d165af180156126a157612a54575b506001600160a01b0387163b1561269357604051634ff736eb60e11b8152600481018c90526024810184905260a05190919082604481836001600160a01b038d165af19182156126a1578e8561297261296b8e6040956129ae98612a42575b509e611979565b9d8d611965565b520161297e8151611979565b905260c0810151604051637112610560e11b8152926020918491829188906001600160a01b03166004840161194a565b038160a05160018060a01b038b165af180156126a157612a09575b60609150015191600f83101561279e576000805160206148a683398151915260406001946129f982518092611420565b60a0516020820152a290386127eb565b6020823d8211612a3a575b81612a2160209383611506565b8101031261269357612a3460609261193d565b506129c9565b3d9150612a14565b60a051612a4e91611506565b38612964565b60a051612a6091611506565b38612905565b6020823d8211612a98575b81612a7e60209383611506565b8101031261269357612a926128ba9261193d565b5061289e565b3d9150612a71565b60c08a01516001600160a01b03908116919086163b15612693576040519163e5d31ced60e01b83528280612adb8760a051946004840161194a565b038160a05160018060a01b038b165af19182156126a1576128ba92612b01575b506128a4565b60a051612b0d91611506565b38612afb565b90506020813d8211612b44575b81612b2d60209383611506565b8101031261269357612b3e9061193d565b3861284a565b3d9150612b20565b506060820151600f81101561279e576004146127e6565b506060820151600f81101561279e57600e146127df565b506060820151600f81101561279e576003146127d8565b506060820151600f81101561279e576002146127d1565b9050421138612495565b506060830151600f81101561279e57600814612481565b612be09193503d8060a051833e6112c98183611506565b9138612468565b915038612310565b50506040519394939250612c0891506020905082611506565b60a08051825251368137606082015290565b612301565b9092503d8060a051833e612c338183611506565b81016020828203126126935781516001600160401b03811161269357612c599201611ad1565b91386122f4565b90929192612c6c611856565b93801561358857612c7b611a20565b612c8361363a565b60405163342c3b5f60e11b815260048101869052929091906000846024816001600160a01b0386165afa938415611ac557600094613546575b508351908115801561353c575b61351557612cd7908661228c565b9080821161350d575b508481038181116119885780612cfc918a96949395965261190b565b92600094612d0a8a5161190b565b6080528596935b828510612deb575050505050612d268261190b565b906060870191825260005b838110612dcb5750505050612d458161190b565b6080850190815260005b828110612da257505083516020808601516040808801518151948552928401919091528201527f6a1411cafcd9b72c38b4923b549b77f628695cee34168eaba04576f7610196a1915080606081016123cd565b600190818060a01b03612db782608051611965565b5116612dc4828551611965565b5201612d4f565b80612dd860019284611965565b51612de4828651611965565b5201612d31565b9091929396612dfa8883611965565b5160405163255709e560e11b815260048101829052909890916000836024816001600160a01b038b165afa928315611ac5576000936134f2575b506060830151600f81101560a05260a05161140a57600060a05260071480156134db575b6131265761026083015180151590816134d1575b5015613149576060830151600f81101561279e576001141580613131575b613126576001600160a01b0387163b15612693576040516346f32a5d60e11b8152600481018b90526008602482015260a05181604481836001600160a01b038d165af180156126a157613114575b506001600160a01b0387163b1561269357604051634ff736eb60e11b8152600481018c9052602481018b905260a05181604481836001600160a01b038d165af180156126a157613102575b5089612f3161255a8b611979565b5260208d01612f408151611979565b9052612f7b60c060018060a01b03871694019360208c60018060a01b038751166040519485928392634113628960e11b84526004840161194a565b0381845afa80156126a1578c9260a051916130c7575b501561306c578451604051639c88381960e01b8152926020928492909183918291612fc8916001600160a01b03166004840161194a565b039160a051905af180156126a15761302b575b509151608051600193612ff7926001600160a01b031691614548565b987f258a297b31a4dd4c7a9b45d91fc82c36f662592841caa590be0fd795a7a38c3160a05160a051a25b0193929190612d11565b906020823d8211613064575b8161304460209383611506565b810103126126935760019361305b612ff79361193d565b50935090612fdb565b3d9150613037565b845190949291506001600160a01b0316843b15612693578b6130a795604051808098819463e5d31ced60e01b835260a051966004840161194a565b039160a051905af19182156126a157600194612ff79361270a5750612614565b9250506020823d82116130fa575b816130e260209383611506565b81010312612693576130f48c9261193d565b38612f91565b3d91506130d5565b60a05161310e91611506565b38612f23565b60a05161312091611506565b38612ed8565b985060019150613021565b506060830151600f81101561279e5760021415612e8a565b9860608392930151600f81101561279e5760011480156134ba575b80156134a3575b801561348c575b8015613475575b613188575b5050600190613021565b60c0820151604051634113628960e11b8152929a91939290602090829081906131bf9088906001600160a01b03166004840161194a565b03816001600160a01b038a165afa9081156126a15760a0519161343c575b50156133dc5760c08a0151604051639c88381960e01b81529190602090839081906132169088906001600160a01b03166004840161194a565b038160a05160018060a01b038b165af180156126a1576133a2575b61324c915060018060a01b0360c08c01511690608051614548565b986001600160a01b0387163b15612693576040516346f32a5d60e11b8152600481018490526007602482015260a05181604481836001600160a01b038d165af180156126a157613390575b506001600160a01b0387163b1561269357604051634ff736eb60e11b8152600481018c90526024810184905260a05190919082604481836001600160a01b038d165af19182156126a1578e8561297261296b8e6040956132fc98612a4257509e611979565b038160a05160018060a01b038b165af180156126a157613357575b60609150015191600f83101561279e576000805160206148a6833981519152604060019461334782518092611420565b60a0516020820152a2903861317e565b6020823d8211613388575b8161336f60209383611506565b810103126126935761338260609261193d565b50613317565b3d9150613362565b60a05161339c91611506565b38613297565b6020823d82116133d4575b816133ba60209383611506565b81010312612693576133ce61324c9261193d565b50613231565b3d91506133ad565b60c08a01516001600160a01b03908116919086163b15612693576040519163e5d31ced60e01b835282806134178760a051946004840161194a565b038160a05160018060a01b038b165af19182156126a15761324c92612b0157506128a4565b90506020813d821161346d575b8161345660209383611506565b81010312612693576134679061193d565b386131dd565b3d9150613449565b506060820151600f81101561279e57600414613179565b506060820151600f81101561279e57600e14613172565b506060820151600f81101561279e5760031461316b565b506060820151600f81101561279e57600214613164565b9050421138612e6c565b506060830151600f81101561279e57600814612e58565b61350691933d8091833e6112c98183611506565b9138612e34565b905038612ce0565b505050505050509060405161352b602082611506565b600081526000368137606082015290565b5081861015612cc9565b90933d8082843e6135578184611506565b82019160208184031261040b578051916001600160401b0383116101635750613581929101611ad1565b9238612cbc565b6372dbed9760e11b60005260046000fd5b600054604051631bae711d60e21b8152602060048201819052600d60248301526c21b7b739b2b739bab9a6b0b4b760991b60448301529091829060649082906001600160a01b03165afa908115611ac557600091611a8b57506001600160a01b031690565b60026000805160206148e683398151915254146136295760026000805160206148e683398151915255565b633ee5aeb560e01b60005260046000fd5b600054604051631bae711d60e21b8152602060048201819052600660248301526551756575657360d01b60448301529091829060649082906001600160a01b03165afa908115611ac557600091611a8b57506001600160a01b031690565b600f82101561140a5752565b90600682101561140a5752565b906020916136ca8151809281855285808601910161153b565b601f01601f1916010190565b906136df6119ac565b916136e8611a20565b60008054604051631bae711d60e21b81526020600482018190526006602483015265526f756e647360d01b60448301529091829060649082906001600160a01b03165afa9081156104175782916144a0575b508154604051631bae711d60e21b8152602060048201819052600860248301526749646c656e65737360c01b60448301526001600160a01b03938416939192909183916064918391165afa908115610b30578391614466575b506001600160a01b0316926137a661363a565b60405163255709e560e11b8152600481018790526001600160a01b03909216929091908482602481875afa918215613b7d57859261444a575b5060c08201516001600160a01b031660208a01526060820180518390600f811015612045576138359161381961381f926101008f01613698565b8a611b48565b60c08d9392930192151583526101208d01613698565b511561442d575060405163255709e560e11b81526004810188905291508482602481875afa918215613b7d578592614411575b506060820151600f81101561208a575b600f811015968761407857600582141580614402575b88816143f1575b816143e0575b816143cf575b816143be575b506143b15760405163149ecac960e11b8152600481018a905261010081602481855afa908115610eb757908c929189916142fb575b508060c060a0600493015193604086019485526060608084015196019586526040519384809263e70c38f160e01b82525afa918215611fcb57908e918b93614283575b5060c0820191825115159081614256575b50614208575b50511592836141db575b831561418a575b50505080156140f0575b6140e1578661208a57600d81141596876140d3575b876140c1575b60808b01971515885260405163ba15d63560e01b8152896004820152602081602481875afa908115610eb757908291899161408c575b50159081614068575b50151560a08c015261208a576004811490811561405d575b50613b88575b50823b15610407576040516346f32a5d60e11b81526004810187905260076024820152848160448183885af18015613b7d57908591613b68575b505061016001918251813b156121af578491604483926040519485938492634ff736eb60e11b845260048401528b60248401525af180156104745786918591613b4f575b5050602088810151604051637112610560e11b8152939192849291839188918391613a7e916001600160a01b03166004840161194a565b03926001600160a01b03165af1908115610b30578391613b15575b5015801560e0880152613b0657613ab090516145b0565b61010085015191600f831015613af25791604091613ae66000805160206148a68339815191529451151591845193849150611420565b6020820152a260018252565b634e487b7160e01b82526021600452602482fd5b636cdf1be560e11b8252600482fd5b90506020813d602011613b47575b81613b3060209383611506565b8101031261040357613b419061193d565b38613a99565b3d9150613b23565b81925090613b5c91611506565b61040357848338613a47565b81613b7291611506565b610407578338613a03565b6040513d87823e3d90fd5b84604051809263a6cd198d60e01b825260406004830152613bad6044830186516136a4565b6020850151613bbb81611400565b6064830152613bd260408601516084840190611420565b613be4606086015160a4840190611420565b60808501516001600160a01b0390811660c484015260a0860151811660e484015260c0860151811661010484015260e0860151166101248301526101008501516101448301526101208501516101648301526101408501516101848301526101608501516101a48301526101808501516101c48301526101a08501516101e48301526101c08501516102048301526101e08501516102248301526102008501516102e0610244840152613cb890613ca0906103248501906136b1565b610220870151848203604319016102648601526136b1565b610240860151906043198482030161028485015260208083519283815201920190855b81811061402657505050838380926102608901516102a48301526102808901516102c48301526102a08901516102e48301526102c089015161030483015282602483015203925af1908115613b7d578591613d82575b50833b156121af57613d5a60405191633f743f0b60e01b835288600484015260248301906136a4565b848160448183885af18015613b7d57156139c95784613d7b91959295611506565b92386139c9565b90503d8086833e613d938183611506565b81019080820360e08112612197578151926006841015610a5857613db96020840161193d565b50613dc66040840161193d565b50600f60608401511015610a585760808301516001600160401b0381116140225783019061016082820312614022576040519161016083018381106001600160401b0382111761400e57604052805183526020810151602084015260408101516040840152606081015160608401526080810151608084015260a081015160a084015260c08101516006811015613fd15760c084015260e08101516001600160401b038111613fd157810182601f82011215613fd157805190613e88826115b2565b91613e966040519384611506565b80835260208084019160051b83010191858311613ff257602001905b828210613ff65750505060e08401526101008101516001600160401b038111613fd157810182601f82011215613fd1578051613eed816115b2565b91613efb6040519384611506565b81835260208084019260051b82010190858211613ff257602001915b818310613fd5575050506101008401526101208101516001600160401b038111613fd15782613f47918301611ad1565b610120840152610140810151906001600160401b038211613fd157604094939261014092613f759201611ad1565b910152609f190112610a5c5760405190604082018281106001600160401b03821117613fbd5760209160c091604052613fb060a08201611527565b8452015191015238613d31565b634e487b7160e01b88526041600452602488fd5b8a80fd5b82516005811015613fee57815260209283019201613f17565b8e80fd5b8d80fd5b6020809161400384611527565b815201910190613eb2565b634e487b7160e01b8b52604160045260248bfd5b8880fd5b9260209194965082955060609060406001945180518352848101518584015201516040820152019401910190899492869492613cdb565b600e915014386139c3565b90506140785760048214816139ab565b634e487b7160e01b87526021600452602487fd5b9150506020813d6020116140b9575b816140a860209383611506565b81010312610a5857819051386139a2565b3d915061409b565b80975061208a57600c8114159661396c565b506006811415965085613966565b63e1b3b3b760e01b8652600486fd5b5060208a8101516040516378e6dfbb60e11b8152919082908190614122908d906001600160a01b03166004840161194a565b03816001600160a01b0389165afa90811561417f578791614145575b5015613951565b90506020813d602011614177575b8161416060209383611506565b81010312612197576141719061193d565b3861413e565b3d9150614153565b6040513d89823e3d90fd5b5180151593509091836141d1575b50826141a9575b5050388080613947565b6141c892506141bf60809160608401519061228c565b9101519061228c565b4210388061419f565b5115925038614198565b9250815180151590816141f0575b5092613940565b614200915060808301519061228c565b4210386141e9565b60e001518015159081614230575b506142215738613936565b6355e03f3360e11b8a5260048afd5b606084015161424e92506142439161228c565b60808401519061228c565b421038614216565b61010091500151600f81101561426f576004148f613930565b634e487b7160e01b8c52602160045260248cfd5b9150915060c0813d60c0116142f3575b816142a060c09383611506565b81010312611fbf578d9060a0604051916142b9836114ba565b8051835260208101516020840152604081015160408401526060810151606084015260808101516080840152015160a0820152913861391f565b3d9150614293565b91925050610100813d82116143a9575b816143196101009383611506565b81010312610a58576040519061010082018281106001600160401b03821117614395579160e06004928f9594604052805183526020810151602084015260408101516040840152606081015160608401526080810151608084015260a081015160a084015260c081015160c0840152015160e0820152906138dc565b634e487b7160e01b8a52604160045260248afd5b3d915061430b565b5050509287525050505050565b9050614078576004821415886138a7565b905061407857600e821415886138a1565b905061407857600d8214158861389b565b905061407857600c82141588613895565b5096508596600682141561388e565b6144269192503d8087833e6112c98183611506565b9038613868565b51600f811061387857634e487b7160e01b86526021600452602486fd5b61445f9192503d8087833e6112c98183611506565b90386137df565b90506020813d602011614498575b8161448160209383611506565b810103126104035761449290611527565b38613793565b3d9150614474565b90506020813d6020116144d2575b816144bb60209383611506565b8101031261040b576144cc90611527565b3861373a565b3d91506144ae565b60008051602061492683398151915280546001600160a01b03199081169091556000805160206148c683398151915280549182166001600160a01b0393841690811790915591167f8be0079c531659141344cd1fd0a4f28419497f9722a3daafe3b4186f6b6457e0600080a3565b9190918260005b81811061457b575061456091611965565b6001600160a01b039091169052600181019081106119885790565b90506001600160a01b0361458f8284611965565b51166001600160a01b038416146145aa57600101839061454f565b50505090565b6000906064602060018060a01b0384541660405192838092631bae711d60e21b825284600483015260076024830152665374616b696e6760c81b60448301525afa8015610b3057839061483d575b6001600160a01b03169160649150614614611a20565b602060018060a01b0386541660405194858092631bae711d60e21b8252846004830152600e60248301526d151c9a589d5b985b105c1c19585b60921b60448301525afa928315613b7d578593614801575b5060405163900cf0cf60e01b8152602081600481885afa9081156147f65786916147c4575b508210156147bd576040516315fffa8d60e01b81526004810183905290602090829060249082906001600160a01b03165afa908115613b7d57859161478b575b5061478557604051634d66354560e11b8152600481019190915290602090829060249082906001600160a01b03165afa908115610b3057839161474b575b5061474757803b1561040b578180916004604051809481936333d98b0560e21b83525af180156104175761473a575050565b8161474491611506565b50565b5050565b90506020813d60201161477d575b8161476660209383611506565b81010312610403576147779061193d565b38614708565b3d9150614759565b50505050565b90506020813d6020116147b5575b816147a660209383611506565b810103126121af5751386146ca565b3d9150614799565b5050505050565b90506020813d6020116147ee575b816147df60209383611506565b81010312610a5c57513861468a565b3d91506147d2565b6040513d88823e3d90fd5b9092506020813d602011614835575b8161481d60209383611506565b810103126121af5761482e90611527565b9138614665565b3d9150614810565b506020813d60201161486f575b8161485760209383611506565b810103126104035761486a606491611527565b6145fe565b3d915061484a565b60ff6000805160206149068339815191525460401c161561489457565b631afcd79f60e31b60005260046000fdfefcc739ca8e51c67e4fd127179070d26ae8ed5ed6dcbc26bcd88ff81c50f346a69016d09d72d40fdae2fd8ceac6b6234c7706214fd39c1cd1e609a0528c1993009b779b17422d0df92223018b32b4d1fa46e071723d6817e2486d003becc55f00f0c57e16840df040f15088dc2f81fe391c3923bec73e23a9662efc9c229c6a00237e158222e3e6968b72b9db0d8043aacf074ad9f650f0d1606b4d82ee432c00a26469706673582212208f5d2ccfc6c3497dbb10893bfa43cdeaccd3dc1e8233f2ad70fb9e7bd1e217c464736f6c634300081c0033",
  "linkReferences": {
    "contracts/utils/RecoveryHelpers.sol": {
      "RecoveryHelpers": [
        {
          "length": 20,
          "start": 1033
        },
        {
          "length": 20,
          "start": 2416
        }
      ]
    }
  },
  "deployedLinkReferences": {
    "contracts/utils/RecoveryHelpers.sol": {
      "RecoveryHelpers": [
        {
          "length": 20,
          "start": 817
        },
        {
          "length": 20,
          "start": 2200
        }
      ]
    }
  }
}