{
  "_format": "hh-sol-artifact-1",
  "contractName": "FinalizationPhase",
  "sourceName": "contracts/phases/FinalizationPhase.sol",
  "abi": [
    {
      "inputs": [],
      "stateMutability": "nonpayable",
      "type": "constructor"
    },
    {
      "inputs": [],
      "name": "FinalizationNotAllowed",
      "type": "error"
    },
    {
      "inputs": [],
      "name": "FinalizationWindowForRevealingNotOpened",
      "type": "error"
    },
    {
      "inputs": [],
      "name": "InvalidInitialization",
      "type": "error"
    },
    {
      "inputs": [],
      "name": "InvalidPageSize",
      "type": "error"
    },
    {
      "inputs": [],
      "name": "NotInitializing",
      "type": "error"
    },
    {
      "inputs": [
        {
          "internalType": "address",
          "name": "owner",
          "type": "address"
        }
      ],
      "name": "OwnableInvalidOwner",
      "type": "error"
    },
    {
      "inputs": [
        {
          "internalType": "address",
          "name": "account",
          "type": "address"
        }
      ],
      "name": "OwnableUnauthorizedAccount",
      "type": "error"
    },
    {
      "inputs": [],
      "name": "ReentrancyGuardReentrantCall",
      "type": "error"
    },
    {
      "inputs": [],
      "name": "TransactionCanNotBeFinalized",
      "type": "error"
    },
    {
      "inputs": [],
      "name": "TransactionNotAcceptedNorUndetermined",
      "type": "error"
    },
    {
      "inputs": [],
      "name": "Unauthorized",
      "type": "error"
    },
    {
      "anonymous": false,
      "inputs": [
        {
          "indexed": true,
          "internalType": "address",
          "name": "caller",
          "type": "address"
        },
        {
          "indexed": false,
          "internalType": "bool",
          "name": "authorized",
          "type": "bool"
        }
      ],
      "name": "AuthorizedCallerUpdated",
      "type": "event"
    },
    {
      "anonymous": false,
      "inputs": [
        {
          "indexed": false,
          "internalType": "uint256",
          "name": "attempted",
          "type": "uint256"
        },
        {
          "indexed": false,
          "internalType": "uint256",
          "name": "succeeded",
          "type": "uint256"
        },
        {
          "indexed": false,
          "internalType": "uint256",
          "name": "failed",
          "type": "uint256"
        }
      ],
      "name": "BatchFinalizationCompleted",
      "type": "event"
    },
    {
      "anonymous": false,
      "inputs": [
        {
          "indexed": true,
          "internalType": "address",
          "name": "account",
          "type": "address"
        },
        {
          "indexed": false,
          "internalType": "bool",
          "name": "granted",
          "type": "bool"
        }
      ],
      "name": "CleanupRoleUpdated",
      "type": "event"
    },
    {
      "anonymous": false,
      "inputs": [
        {
          "indexed": true,
          "internalType": "uint256",
          "name": "epoch",
          "type": "uint256"
        },
        {
          "indexed": false,
          "internalType": "uint256",
          "name": "processedCount",
          "type": "uint256"
        },
        {
          "indexed": false,
          "internalType": "uint256",
          "name": "canceledCount",
          "type": "uint256"
        },
        {
          "indexed": false,
          "internalType": "uint256",
          "name": "finalizedCount",
          "type": "uint256"
        }
      ],
      "name": "ForceCleanupExecuted",
      "type": "event"
    },
    {
      "anonymous": false,
      "inputs": [
        {
          "indexed": false,
          "internalType": "uint64",
          "name": "version",
          "type": "uint64"
        }
      ],
      "name": "Initialized",
      "type": "event"
    },
    {
      "anonymous": false,
      "inputs": [
        {
          "indexed": true,
          "internalType": "address",
          "name": "previousOwner",
          "type": "address"
        },
        {
          "indexed": true,
          "internalType": "address",
          "name": "newOwner",
          "type": "address"
        }
      ],
      "name": "OwnershipTransferStarted",
      "type": "event"
    },
    {
      "anonymous": false,
      "inputs": [
        {
          "indexed": true,
          "internalType": "address",
          "name": "previousOwner",
          "type": "address"
        },
        {
          "indexed": true,
          "internalType": "address",
          "name": "newOwner",
          "type": "address"
        }
      ],
      "name": "OwnershipTransferred",
      "type": "event"
    },
    {
      "anonymous": false,
      "inputs": [
        {
          "indexed": true,
          "internalType": "bytes32",
          "name": "txId",
          "type": "bytes32"
        },
        {
          "indexed": false,
          "internalType": "enum ITransactions.TransactionStatus",
          "name": "previousStatus",
          "type": "uint8"
        },
        {
          "indexed": false,
          "internalType": "bool",
          "name": "shouldProcessMessages",
          "type": "bool"
        }
      ],
      "name": "TransactionFinalized",
      "type": "event"
    },
    {
      "anonymous": false,
      "inputs": [
        {
          "indexed": true,
          "internalType": "bytes32",
          "name": "txId",
          "type": "bytes32"
        }
      ],
      "name": "TransactionForceCanceled",
      "type": "event"
    },
    {
      "inputs": [],
      "name": "acceptOwnership",
      "outputs": [],
      "stateMutability": "nonpayable",
      "type": "function"
    },
    {
      "inputs": [],
      "name": "addressManager",
      "outputs": [
        {
          "internalType": "contract IAddressManager",
          "name": "",
          "type": "address"
        }
      ],
      "stateMutability": "view",
      "type": "function"
    },
    {
      "inputs": [
        {
          "internalType": "address",
          "name": "",
          "type": "address"
        }
      ],
      "name": "authorizedCallers",
      "outputs": [
        {
          "internalType": "bool",
          "name": "",
          "type": "bool"
        }
      ],
      "stateMutability": "view",
      "type": "function"
    },
    {
      "inputs": [
        {
          "internalType": "address",
          "name": "",
          "type": "address"
        }
      ],
      "name": "cleanupRole",
      "outputs": [
        {
          "internalType": "bool",
          "name": "",
          "type": "bool"
        }
      ],
      "stateMutability": "view",
      "type": "function"
    },
    {
      "inputs": [
        {
          "components": [
            {
              "internalType": "bytes32[]",
              "name": "txIds",
              "type": "bytes32[]"
            }
          ],
          "internalType": "struct IFinalizationPhase.BatchFinalizeParams",
          "name": "params",
          "type": "tuple"
        }
      ],
      "name": "finalizeBatch",
      "outputs": [
        {
          "components": [
            {
              "internalType": "uint256",
              "name": "attempted",
              "type": "uint256"
            },
            {
              "internalType": "uint256",
              "name": "succeeded",
              "type": "uint256"
            },
            {
              "internalType": "uint256",
              "name": "failed",
              "type": "uint256"
            },
            {
              "internalType": "bytes32[]",
              "name": "failedTxIds",
              "type": "bytes32[]"
            },
            {
              "internalType": "bool[]",
              "name": "shouldProcessMessagesFlags",
              "type": "bool[]"
            },
            {
              "internalType": "bool[]",
              "name": "shouldSendOnAcceptanceFlags",
              "type": "bool[]"
            }
          ],
          "internalType": "struct IFinalizationPhase.BatchFinalizeResult",
          "name": "result",
          "type": "tuple"
        }
      ],
      "stateMutability": "nonpayable",
      "type": "function"
    },
    {
      "inputs": [
        {
          "components": [
            {
              "internalType": "bytes32",
              "name": "txId",
              "type": "bytes32"
            }
          ],
          "internalType": "struct IFinalizationPhase.FinalizeTransactionParams",
          "name": "params",
          "type": "tuple"
        }
      ],
      "name": "finalizeTransaction",
      "outputs": [
        {
          "components": [
            {
              "internalType": "bool",
              "name": "success",
              "type": "bool"
            },
            {
              "internalType": "address",
              "name": "recipient",
              "type": "address"
            },
            {
              "internalType": "uint256",
              "name": "lastVoteTimestamp",
              "type": "uint256"
            },
            {
              "internalType": "uint256",
              "name": "lastCommitTimestamp",
              "type": "uint256"
            },
            {
              "internalType": "bool",
              "name": "shouldProcessMessages",
              "type": "bool"
            },
            {
              "internalType": "bool",
              "name": "shouldSendOnAcceptance",
              "type": "bool"
            },
            {
              "internalType": "bool",
              "name": "idlenessProcessed",
              "type": "bool"
            },
            {
              "internalType": "bool",
              "name": "queuedToFinalized",
              "type": "bool"
            },
            {
              "internalType": "enum ITransactions.TransactionStatus",
              "name": "previousStatus",
              "type": "uint8"
            },
            {
              "internalType": "enum ITransactions.TransactionStatus",
              "name": "idlenessStatus",
              "type": "uint8"
            }
          ],
          "internalType": "struct IFinalizationPhase.FinalizeTransactionResult",
          "name": "result",
          "type": "tuple"
        }
      ],
      "stateMutability": "nonpayable",
      "type": "function"
    },
    {
      "inputs": [
        {
          "internalType": "uint256",
          "name": "epoch",
          "type": "uint256"
        }
      ],
      "name": "forceCleanupPendingTransactions",
      "outputs": [
        {
          "components": [
            {
              "internalType": "uint256",
              "name": "processedCount",
              "type": "uint256"
            },
            {
              "internalType": "uint256",
              "name": "canceledCount",
              "type": "uint256"
            },
            {
              "internalType": "uint256",
              "name": "finalizedCount",
              "type": "uint256"
            },
            {
              "internalType": "bytes32[]",
              "name": "affectedTxIds",
              "type": "bytes32[]"
            },
            {
              "internalType": "address[]",
              "name": "affectedRecipients",
              "type": "address[]"
            }
          ],
          "internalType": "struct IFinalizationPhase.ForceCleanupResult",
          "name": "result",
          "type": "tuple"
        }
      ],
      "stateMutability": "nonpayable",
      "type": "function"
    },
    {
      "inputs": [
        {
          "components": [
            {
              "internalType": "uint256",
              "name": "epoch",
              "type": "uint256"
            },
            {
              "internalType": "uint256",
              "name": "offset",
              "type": "uint256"
            },
            {
              "internalType": "uint256",
              "name": "pageSize",
              "type": "uint256"
            }
          ],
          "internalType": "struct IFinalizationPhase.ForceCleanupParams",
          "name": "params",
          "type": "tuple"
        }
      ],
      "name": "forceCleanupPendingTransactionsWithPagination",
      "outputs": [
        {
          "components": [
            {
              "internalType": "uint256",
              "name": "processedCount",
              "type": "uint256"
            },
            {
              "internalType": "uint256",
              "name": "canceledCount",
              "type": "uint256"
            },
            {
              "internalType": "uint256",
              "name": "finalizedCount",
              "type": "uint256"
            },
            {
              "internalType": "bytes32[]",
              "name": "affectedTxIds",
              "type": "bytes32[]"
            },
            {
              "internalType": "address[]",
              "name": "affectedRecipients",
              "type": "address[]"
            }
          ],
          "internalType": "struct IFinalizationPhase.ForceCleanupResult",
          "name": "result",
          "type": "tuple"
        }
      ],
      "stateMutability": "nonpayable",
      "type": "function"
    },
    {
      "inputs": [
        {
          "internalType": "address",
          "name": "account",
          "type": "address"
        }
      ],
      "name": "grantCleanupRole",
      "outputs": [],
      "stateMutability": "nonpayable",
      "type": "function"
    },
    {
      "inputs": [
        {
          "internalType": "address",
          "name": "account",
          "type": "address"
        }
      ],
      "name": "hasCleanupRole",
      "outputs": [
        {
          "internalType": "bool",
          "name": "",
          "type": "bool"
        }
      ],
      "stateMutability": "view",
      "type": "function"
    },
    {
      "inputs": [
        {
          "internalType": "address",
          "name": "_addressManager",
          "type": "address"
        }
      ],
      "name": "initialize",
      "outputs": [],
      "stateMutability": "nonpayable",
      "type": "function"
    },
    {
      "inputs": [
        {
          "internalType": "address",
          "name": "caller",
          "type": "address"
        }
      ],
      "name": "isAuthorizedCaller",
      "outputs": [
        {
          "internalType": "bool",
          "name": "",
          "type": "bool"
        }
      ],
      "stateMutability": "view",
      "type": "function"
    },
    {
      "inputs": [],
      "name": "owner",
      "outputs": [
        {
          "internalType": "address",
          "name": "",
          "type": "address"
        }
      ],
      "stateMutability": "view",
      "type": "function"
    },
    {
      "inputs": [],
      "name": "pendingOwner",
      "outputs": [
        {
          "internalType": "address",
          "name": "",
          "type": "address"
        }
      ],
      "stateMutability": "view",
      "type": "function"
    },
    {
      "inputs": [],
      "name": "renounceOwnership",
      "outputs": [],
      "stateMutability": "nonpayable",
      "type": "function"
    },
    {
      "inputs": [
        {
          "internalType": "address",
          "name": "account",
          "type": "address"
        }
      ],
      "name": "revokeCleanupRole",
      "outputs": [],
      "stateMutability": "nonpayable",
      "type": "function"
    },
    {
      "inputs": [
        {
          "internalType": "address",
          "name": "_addressManager",
          "type": "address"
        }
      ],
      "name": "setAddressManager",
      "outputs": [],
      "stateMutability": "nonpayable",
      "type": "function"
    },
    {
      "inputs": [
        {
          "internalType": "address",
          "name": "caller",
          "type": "address"
        },
        {
          "internalType": "bool",
          "name": "authorized",
          "type": "bool"
        }
      ],
      "name": "setAuthorizedCaller",
      "outputs": [],
      "stateMutability": "nonpayable",
      "type": "function"
    },
    {
      "inputs": [
        {
          "internalType": "address[]",
          "name": "callers",
          "type": "address[]"
        },
        {
          "internalType": "bool",
          "name": "authorized",
          "type": "bool"
        }
      ],
      "name": "setAuthorizedCallers",
      "outputs": [],
      "stateMutability": "nonpayable",
      "type": "function"
    },
    {
      "inputs": [
        {
          "internalType": "address",
          "name": "newOwner",
          "type": "address"
        }
      ],
      "name": "transferOwnership",
      "outputs": [],
      "stateMutability": "nonpayable",
      "type": "function"
    }
  ],
  "bytecode": "0x6080806040523460d2577ff0c57e16840df040f15088dc2f81fe391c3923bec73e23a9662efc9c229c6a005460ff8160401c1660c1576002600160401b03196001600160401b03821601605c575b60405161421e90816100d88239f35b6001600160401b0319166001600160401b039081177ff0c57e16840df040f15088dc2f81fe391c3923bec73e23a9662efc9c229c6a005581527fc7f505b2f371ae2175ee4913f4499e1f2633a7b5936321eed1cdaeb6115181d290602090a13880604d565b63f92ee8a960e01b60005260046000fd5b600080fdfe60e0604052600436101561001257600080fd5b6000803560e01c80630652b57a14610dc3578063090263a714610cc7578063110dd4ca14610c0d5780632a9f433814610be25780633ab76e9f14610bbb57806345216a9314610819578063454bbd291461079b5780634c8eb5e51461072c578063536fff6c146106ed57806359d14b41146106ed57806364f6995314610623578063715018a6146105a257806379ba50971461055157806386ef94821461044a5780638da5cb5b14610414578063c4d66de814610265578063d3ab81bf146101f8578063e30c3978146101c2578063f2fde38b1461013a5763fc572383146100f957600080fd5b346101375760203660031901126101375760209060ff906040906001600160a01b03610123610e03565b168152600284522054166040519015158152f35b80fd5b503461013757602036600319011261013757610154610e03565b61015c61119b565b6000805160206141c983398151915280546001600160a01b0319166001600160a01b03928316908117909155600080516020614169833981519152549091167f38d16b8cac22d99fc7c124b9cd0de2d3fa1faef420bfe791d8c362d765e227008380a380f35b50346101375780600319360112610137576000805160206141c9833981519152546040516001600160a01b039091168152602090f35b503461013757602036600319011261013757610212610e03565b61021a61119b565b6001600160a01b0316808252600260209081526040808420805460ff19169055518381527f8d78e867647fc5d6ee1e7d252bc2eb71641836bc809b66b53cc83114cf09cd729190a280f35b50346101375760203660031901126101375761027f610e03565b6000805160206141a9833981519152549060ff8260401c1615916001600160401b0381168015908161040c575b6001149081610402575b1590816103f9575b506103ea5767ffffffffffffffff1981166001176000805160206141a983398151915255826103bd575b506102f16137a6565b6102f96137a6565b6103016137a6565b33156103a95761031033612f21565b6103186137a6565b6103206137a6565b60016000805160206141898339815191525582546001600160a01b0319166001600160a01b03919091161782556103545780f35b60ff60401b196000805160206141a983398151915254166000805160206141a9833981519152557fc7f505b2f371ae2175ee4913f4499e1f2633a7b5936321eed1cdaeb6115181d2602060405160018152a180f35b631e4fbdf760e01b83526004839052602483fd5b68ffffffffffffffffff191668010000000000000001176000805160206141a983398151915255386102e8565b63f92ee8a960e01b8452600484fd5b905015386102be565b303b1591506102b6565b8491506102ac565b5034610137578060031936011261013757600080516020614169833981519152546040516001600160a01b039091168152602090f35b50346101375760203660031901126101375761046461113f565b50338152600160205260ff6040822054161561054357610482611f7c565b61048d6004356120be565b9081511561053457610140826001600080516020614189833981519152556105326101206040519280511515845260018060a01b036020820151166020850152604081015160408501526060810151606085015260808101511515608085015260a0810151151560a085015260c0810151151560c085015260e0810151151560e0850152610525610100820151610100860190610f1d565b0151610120830190610f1d565bf35b6390cb8b6160e01b8152600490fd5b6282b42960e81b8152600490fd5b50346101375780600319360112610137576000805160206141c983398151915254336001600160a01b039091160361058f5761058c33612f21565b80f35b63118cdaa760e01b815233600452602490fd5b50346101375780600319360112610137576105bb61119b565b6000805160206141c983398151915280546001600160a01b03199081169091556000805160206141698339815191528054918216905581906001600160a01b03167f8be0079c531659141344cd1fd0a4f28419497f9722a3daafe3b4186f6b6457e08280a380f35b50346101375760603660031901126101375761063d610fcc565b50338152600260205260ff6040822054161561054357610664604435602435600435611eba565b816001600160a01b03610675611ed0565b166080830151813b156106e95782916106a491604051948580948193630c8af7e960e31b835260048301611009565b03925af180156106de576106c5575b604051806106c18482610e61565b0390f35b6106d0838092610fab565b6106da57816106b3565b5080fd5b6040513d85823e3d90fd5b8280fd5b50346101375760203660031901126101375760209060ff906040906001600160a01b03610718610e03565b168152600184522054166040519015158152f35b503461013757602036600319011261013757610746610e03565b61074e61119b565b60018060a01b0316808252600260205260408220600160ff198254161790557f8d78e867647fc5d6ee1e7d252bc2eb71641836bc809b66b53cc83114cf09cd72602060405160018152a280f35b5034610137576040366003190112610137576107b5610e03565b7fad857fa38c9319cb80848f1ef2f924383b90297eb5d71755738ff037d100faa160206107e0610e1e565b926107e961119b565b6001600160a01b03168085526001825260408520805460ff191660ff86151516179055926040519015158152a280f35b503461013757602036600319011261013757600435906001600160401b038211610137576020826004019260031990360301126101375760405161085c81610f7a565b8181526020810191808352604082019281845260608301906060825260808401916060835260a085019360608552338152600160205260ff60408220541615610543576108a7611f7c565b6108af611fb8565b6108b7612022565b986108c2818061104c565b8952506108d96108d2828061104c565b9050611098565b976108e76108d2838061104c565b87526108f66108d2838061104c565b88526001600160a01b039283169a9394859490931692845b610918848061104c565b9050811015610aba578c6024602061093a84610934898061104c565b90610f40565b35926040519283809263fbc6da7560e01b82528660048301525afa908115610a6d579082918991610a78575b506040516378e6dfbb60e11b8152916020918391829161098a9190600484016110eb565b03818a5afa908115610a6d57908d918991610a2e575b5015610a1c57506109b0816120be565b908c825115156000146109fc5750509060a06001926109cf8b5161111a565b8b528b6109e484608084015115159251611106565b52015115156109f4828d51611106565b525b0161090e565b610a16925090610a108a6001959b93611106565b5261111a565b966109f6565b97610a1691610a10826001959b611106565b9150506020813d8211610a65575b81610a4960209383610fab565b81010312610a6157610a5b8d916110de565b386109a0565b8780fd5b3d9150610a3c565b6040513d8a823e3d90fd5b9150506020813d8211610ab2575b81610a9360209383610fab565b81010312610a6157602082610aaa61098a936110ca565b915091610966565b3d9150610a86565b5095999493925097995050818352610ad182611098565b84525b818110610b9b57505091610b75610b88926106c195947f3d139c84ad9350b1f396f3d75cb0770c4f495459f8ef8755e5335a12632bac3d88518a5190610b328451604051938493846040919493926060820195825260208201520152565b0390a160016000805160206141898339815191525560405198899860208a525160208a01525160408901525160608801525160c0608088015260e0870190610e2d565b9051858203601f190160a0870152610ee7565b9051838203601f190160c0850152610ee7565b80610ba86001928b611106565b51610bb4828751611106565b5201610ad4565b5034610137578060031936011261013757546040516001600160a01b039091168152602090f35b50346101375760203660031901126101375760209060ff906040906001600160a01b03610123610e03565b503461013757602036600319011261013757610c27610fcc565b50338152600260205260ff6040822054161561054357610c48600435611518565b816001600160a01b03610c59611ed0565b166080830151813b156106e9578291610c8891604051968780948193630c8af7e960e31b835260048301611009565b03925af1928315610cba576106c193610caa575b505060405191829182610e61565b81610cb491610fab565b38610c9c565b50604051903d90823e3d90fd5b5034610137576040366003190112610137576004356001600160401b0381116106da57366023820112156106da578060040135906001600160401b0382116106e9576024810190602436918460051b0101116106e95790610d26610e1e565b91610d2f61119b565b82151591845b818110610d40578580f35b6001906001600160a01b03610d5e610d59838688610f40565b610f66565b16875281602052610d7e86604089209060ff801983541691151516179055565b818060a01b03610d92610d59838688610f40565b167fad857fa38c9319cb80848f1ef2f924383b90297eb5d71755738ff037d100faa16020604051888152a201610d35565b503461013757602036600319011261013757610ddd610e03565b610de561119b565b81546001600160a01b0319166001600160a01b039190911617815580f35b600435906001600160a01b0382168203610e1957565b600080fd5b602435908115158203610e1957565b906020808351928381520192019060005b818110610e4b5750505090565b8251845260209384019390920191600101610e3e565b90602082528051602083015260208101516040830152604081015160608301526080610e9b606083015160a08386015260c0850190610e2d565b9101519160a0601f19828403019101526020808351928381520192019060005b818110610ec85750505090565b82516001600160a01b0316845260209384019390920191600101610ebb565b906020808351928381520192019060005b818110610f055750505090565b82511515845260209384019390920191600101610ef8565b90600f821015610f2a5752565b634e487b7160e01b600052602160045260246000fd5b9190811015610f505760051b0190565b634e487b7160e01b600052603260045260246000fd5b356001600160a01b0381168103610e195790565b60c081019081106001600160401b03821117610f9557604052565b634e487b7160e01b600052604160045260246000fd5b90601f801991011681019081106001600160401b03821117610f9557604052565b6040519060a082018281106001600160401b03821117610f9557604052606060808360008152600060208201526000604082015282808201520152565b602060408183019282815284518094520192019060005b81811061102d5750505090565b82516001600160a01b0316845260209384019390920191600101611020565b903590601e1981360301821215610e1957018035906001600160401b038211610e1957602001918160051b36038313610e1957565b6001600160401b038111610f955760051b60200190565b906110a282611081565b6110af6040519182610fab565b82815280926110c0601f1991611081565b0190602036910137565b51906001600160a01b0382168203610e1957565b51908115158203610e1957565b6001600160a01b039091168152602081019190915260400190565b8051821015610f505760209160051b010190565b60001981146111295760010190565b634e487b7160e01b600052601160045260246000fd5b6040519061014082018281106001600160401b03821117610f95576040526000610120838281528260208201528260408201528260608201528260808201528260a08201528260c08201528260e0820152826101008201520152565b600080516020614169833981519152546001600160a01b031633036111bc57565b63118cdaa760e01b6000523360045260246000fd5b9080601f83011215610e195781516111e881611081565b926111f66040519485610fab565b81845260208085019260051b820101928311610e1957602001905b82821061121e5750505090565b8151815260209182019101611211565b9190820180921161112957565b60005b83811061124e5750506000910152565b818101518382015260200161123e565b81601f82011215610e195780516001600160401b038111610f955760405192611291601f8301601f191660200185610fab565b81845260208284010111610e19576112af916020808501910161123b565b90565b602081830312610e19578051906001600160401b038211610e1957016102e081830312610e1957604051916102e083018381106001600160401b03821117610f955760405281516006811015610e1957835260208201516005811015610e195760208401526040820151600f811015610e195760408401526060820151600f811015610e19576060840152611349608083016110ca565b608084015261135a60a083016110ca565b60a084015261136b60c083016110ca565b60c084015261137c60e083016110ca565b60e08401526101008201516101008401526101208201516101208401526101408201516101408401526101608201516101608401526101808201516101808401526101a08201516101a08401526101c08201516101c08401526101e08201516101e08401526102008201516001600160401b038111610e19578161140191840161125e565b6102008401526102208201516001600160401b038111610e19578161142791840161125e565b6102208401526102408201516001600160401b038111610e1957820181601f82011215610e195780519061145a82611081565b926114686040519485610fab565b82845260206060818601940283010191818311610e1957602001925b8284106114c95750505050906102c0916102408401526102608101516102608401526102808101516102808401526102a08101516102a084015201516102c082015290565b606084830312610e19576040519060608201908282106001600160401b03831117610f955760609260209260405286518152828701518382015260408701516040820152815201930192611484565b90611521610fcc565b9161152a611fb8565b611532612022565b60405163342c3b5f60e11b815260048101849052915a600060c081905290849060249082906001600160a01b03861690fa9283156119045760c05193611e79575b5082519081158015611e74575b611e4957606491808311611e41575b50909192600060c0528287526115a483611098565b9160c051936115b38951611098565b60a05260c0519586935b82851061169a5750505050506115d282611098565b906060870191825260c0515b83811061167a57505050506115f281611098565b6080850190815260c0515b82811061165157505083516020808601516040808801518151948552928401919091528201527f6a1411cafcd9b72c38b4923b549b77f628695cee34168eaba04576f7610196a1915080606081015b0390a2565b600190818060a01b036116668260a051611106565b5116611673828551611106565b52016115fd565b8061168760019284611106565b51611693828651611106565b52016115de565b90919293966116a98883611106565b5160405163255709e560e11b81526004810182905260c051919990929091836024816001600160a01b038b165afa9283156119045760c05193611e1b575b506060830151600f811015611b73576007148015611e04575b611df9576102608301518015159081611def575b50156119de576001600160a01b0387163b156118f6576040516346f32a5d60e11b8152600481018b90526008602482015260c05181604481836001600160a01b038d165af18015611904576119cc575b506001600160a01b0387163b156118f657604051634ff736eb60e11b8152600481018c9052602481018b905260c05181604481836001600160a01b038d165af18015611904576119ba575b50896117c46117bd8b61111a565b9a8a611106565b5260208d016117d3815161111a565b905261180e60c060018060a01b03871694019360208c60018060a01b038751166040519485928392634113628960e11b8452600484016110eb565b0381845afa8015611904578c9260c0519161197f575b5015611911578451604051639c88381960e01b815292602092849290918391829161185b916001600160a01b0316600484016110eb565b039160c051905af18015611904576118bd575b50611889906001935b848060a01b039051169060a051612f8f565b987f258a297b31a4dd4c7a9b45d91fc82c36f662592841caa590be0fd795a7a38c3160c05160c051a25b01939291906115bd565b906020823d82116118fc575b816118d660209383610fab565b810103126118f6576001936118ed611889936110de565b5093509061186e565b60c05180fd5b3d91506118c9565b6040513d60c051823e3d90fd5b845190949291506001600160a01b0316843b156118f6578b61194c95604051808098819463e5d31ced60e01b835260c05196600484016110eb565b039160c051905af1918215611904576001946118899361196d575b50611877565b60c05161197991610fab565b38611967565b9250506020823d82116119b2575b8161199a60209383610fab565b810103126118f6576119ac8c926110de565b38611824565b3d915061198d565b60c0516119c691610fab565b386117af565b60c0516119d891610fab565b38611764565b98916060810151600f811015611b73576001148015611dd8575b8015611dc1575b8015611daa575b8015611d93575b611a1c575b50600191506118b3565b6001600160a01b0387163b156118f6576040516346f32a5d60e11b8152600481018490526007602482015260c05181604481836001600160a01b038d165af1801561190457611d81575b506001600160a01b0387163b156118f657604051634ff736eb60e11b8152600481018c90526024810184905260c05181604481836001600160a01b038d165af1801561190457611d6f575b5082611abf6117bd8b61111a565b5260408d01611ace815161111a565b90526060810151600f811015611b7357600114611bc4575b60c0810151604051637112610560e11b8152919060209083908190611b199088906001600160a01b0316600484016110eb565b038160c05160018060a01b038b165af1801561190457611b8b575b60609150015191600f831015611b73576000805160206141498339815191526040600194611b6482518092610f1d565b60c0516020820152a238611a12565b634e487b7160e01b60c051526021600452602460c051fd5b6020823d8211611bbc575b81611ba360209383610fab565b810103126118f657611bb66060926110de565b50611b34565b3d9150611b96565b60c081018051604051634113628960e11b8152929b6001600160a01b0388811694919260209183918291611bfe918b9116600484016110eb565b0381875afa801561190457869160c05191611d34575b5015611ccb578251604051639c88381960e01b81529394929392602092849283918291611c4e91906001600160a01b0316600484016110eb565b039160c051905af1801561190457611c89575b50611c8190611b19925b5160a0516001600160a01b039091169190612f8f565b999050611ae6565b906020823d8211611cc3575b81611ca260209383610fab565b810103126118f657611b1992611cba611c81936110de565b50925090611c61565b3d9150611c95565b5081516001600160a01b0316833b156118f657604051809463e5d31ced60e01b82528180611d008a60c05196600484016110eb565b039160c051905af191821561190457611b1993611c8193611d22575b50611c6b565b60c051611d2e91610fab565b38611d1c565b9150506020813d8211611d67575b81611d4f60209383610fab565b810103126118f657611d6186916110de565b38611c14565b3d9150611d42565b60c051611d7b91610fab565b38611ab1565b60c051611d8d91610fab565b38611a66565b506060810151600f811015611b7357600414611a0d565b506060810151600f811015611b7357600e14611a06565b506060810151600f811015611b73576003146119ff565b506060810151600f811015611b73576002146119f8565b9050421138611714565b9850600191506118b3565b506060830151600f811015611b7357600814611700565b611e3a9193503d8060c051833e611e328183610fab565b8101906112b2565b91386116e7565b91503861158f565b50506040519394939250611e6291506020905082610fab565b60c08051825251368137606082015290565b611580565b9092503d8060c051833e611e8d8183610fab565b81016020828203126118f65781516001600160401b0381116118f657611eb392016111d1565b9138611573565b90611eca929160006080526137d4565b60805190565b600054604051631bae711d60e21b8152602060048201819052600d60248301526c21b7b739b2b739bab9a6b0b4b760991b60448301529091829060649082906001600160a01b03165afa908115611f7057600091611f36575b506001600160a01b031690565b90506020813d602011611f68575b81611f5160209383610fab565b81010312610e1957611f62906110ca565b38611f29565b3d9150611f44565b6040513d6000823e3d90fd5b60026000805160206141898339815191525414611fa757600260008051602061418983398151915255565b633ee5aeb560e01b60005260046000fd5b600054604051631bae711d60e21b815260206004820181905260126024830152712a3930b739b0b1ba34b7b726b0b730b3b2b960711b60448301529091829060649082906001600160a01b03165afa908115611f7057600091611f3657506001600160a01b031690565b600054604051631bae711d60e21b8152602060048201819052600660248301526551756575657360d01b60448301529091829060649082906001600160a01b03165afa908115611f7057600091611f3657506001600160a01b031690565b600f821015610f2a5752565b906006821015610f2a5752565b906020916120b28151809281855285808601910161123b565b601f01601f1916010190565b906120c761113f565b916120d0611fb8565b60008054604051631bae711d60e21b81526020600482018190526006602483015265526f756e647360d01b60448301529091829060649082906001600160a01b03165afa908115612f16578291612edc575b508154604051631bae711d60e21b8152602060048201819052600860248301526749646c656e65737360c01b60448301526001600160a01b03938416939192909183916064918391165afa9081156106de578391612ea2575b506001600160a01b03169261218e612022565b60405163255709e560e11b8152600481018790526001600160a01b03909216929091908482602481875afa918215612578578592612e86575b5060c08201516001600160a01b031660208a01526060820180518390600f811015612e725761221d91612201612207926101008f01612080565b8a613011565b60c08d9392930192151583526101208d01612080565b5115612e55575060405163255709e560e11b81526004810188905291508482602481875afa918215612578578592612e39575b506060820151600f811015612a81575b600f8110159687612a6257600582141580612e2a575b8881612e19575b81612e08575b81612df7575b81612de6575b50612dd95760405163149ecac960e11b8152600481018a905261010081602481855afa908115610a6d57908c92918991612d23575b508060c060a0600493015193604086019485526060608084015196019586526040519384809263e70c38f160e01b82525afa918215612d1857908e918b93612c9c575b5060c0820191825115159081612c6f575b50612c21575b5051159283612bf4575b8315612ba3575b5050508015612b09575b612afa5786612a8157600d8114159687612aec575b87612ada575b60808b01971515885260405163ba15d63560e01b8152896004820152602081602481875afa908115610a6d579082918991612aa5575b50159081612a95575b50151560a08c0152612a815760048114908115612a76575b50612583575b50823b15612574576040516346f32a5d60e11b81526004810187905260076024820152848160448183885af180156125785790859161255f575b505061016001918251813b1561255b578491604483926040519485938492634ff736eb60e11b845260048401528b60248401525af180156125505786918591612537575b5050602088810151604051637112610560e11b8152939192849291839188918391612466916001600160a01b0316600484016110eb565b03926001600160a01b03165af19081156106de5783916124fd575b5015801560e08801526124ee5761249890516134df565b61010085015191600f8310156124da57916040916124ce6000805160206141498339815191529451151591845193849150610f1d565b6020820152a260018252565b634e487b7160e01b82526021600452602482fd5b636cdf1be560e11b8252600482fd5b90506020813d60201161252f575b8161251860209383610fab565b810103126106e957612529906110de565b38612481565b3d915061250b565b8192509061254491610fab565b6106e95784833861242f565b6040513d86823e3d90fd5b8480fd5b8161256991610fab565b6125745783386123eb565b8380fd5b6040513d87823e3d90fd5b6040519063a6cd198d60e01b8252604060048301526125a660448301845161208c565b60208301516005811015612a62578691839160648301526125cf60408601516084840190610f1d565b6125e1606086015160a4840190610f1d565b60808501516001600160a01b0390811660c484015260a0860151811660e484015260c0860151811661010484015260e0860151166101248301526101008501516101448301526101208501516101648301526101408501516101848301526101608501516101a48301526101808501516101c48301526101a08501516101e48301526101c08501516102048301526101e08501516102248301526102008501516102e06102448401526126b59061269d90610324850190612099565b61022087015184820360431901610264860152612099565b610240860151906043198482030161028485015260208083519283815201920190855b818110612a2b57505050838380926102608901516102a48301526102808901516102c48301526102a08901516102e48301526102c089015161030483015282602483015203925af190811561257857859161277f575b50833b1561255b5761275760405191633f743f0b60e01b8352886004840152602483019061208c565b848160448183885af1801561257857156123b1578461277891959295610fab565b92386123b1565b90503d8086833e6127908183610fab565b81019080820360e08112612a27578151926006841015610a61576127b6602084016110de565b506127c3604084016110de565b50600f60608401511015610a615760808301516001600160401b038111612a235783019061016082820312612a23576040519161016083018381106001600160401b03821117612a0f57604052805183526020810151602084015260408101516040840152606081015160608401526080810151608084015260a081015160a084015260c081015160068110156129d25760c084015260e08101516001600160401b0381116129d257810182601f820112156129d25780519061288582611081565b916128936040519384610fab565b80835260208084019160051b830101918583116129f357602001905b8282106129f75750505060e08401526101008101516001600160401b0381116129d257810182601f820112156129d25780516128ea81611081565b916128f86040519384610fab565b81835260208084019260051b820101908582116129f357602001915b8183106129d6575050506101008401526101208101516001600160401b0381116129d257826129449183016111d1565b610120840152610140810151906001600160401b0382116129d25760409493926101409261297292016111d1565b910152609f1901126129ce5760405190604082018281106001600160401b038211176129ba5760209160c0916040526129ad60a082016110ca565b845201519101523861272e565b634e487b7160e01b88526041600452602488fd5b8580fd5b8a80fd5b825160058110156129ef57815260209283019201612914565b8e80fd5b8d80fd5b60208091612a04846110ca565b8152019101906128af565b634e487b7160e01b8b52604160045260248bfd5b8880fd5b8680fd5b92602091949650829550606090604060019451805183528481015185840152015160408201520194019101908994928694926126d8565b634e487b7160e01b87526021600452602487fd5b600e915014386123ab565b634e487b7160e01b86526021600452602486fd5b9050612a62576004821481612393565b9150506020813d602011612ad2575b81612ac160209383610fab565b81010312610a61578190513861238a565b3d9150612ab4565b809750612a8157600c81141596612354565b50600681141596508561234e565b63e1b3b3b760e01b8652600486fd5b5060208a8101516040516378e6dfbb60e11b8152919082908190612b3b908d906001600160a01b0316600484016110eb565b03816001600160a01b0389165afa908115612b98578791612b5e575b5015612339565b90506020813d602011612b90575b81612b7960209383610fab565b81010312612a2757612b8a906110de565b38612b57565b3d9150612b6c565b6040513d89823e3d90fd5b518015159350909183612bea575b5082612bc2575b505038808061232f565b612be19250612bd860809160608401519061122e565b9101519061122e565b42103880612bb8565b5115925038612bb1565b925081518015159081612c09575b5092612328565b612c19915060808301519061122e565b421038612c02565b60e001518015159081612c49575b50612c3a573861231e565b6355e03f3360e11b8a5260048afd5b6060840151612c679250612c5c9161122e565b60808401519061122e565b421038612c2f565b61010091500151600f811015612c88576004148f612318565b634e487b7160e01b8c52602160045260248cfd5b9150915060c0813d60c011612d10575b81612cb960c09383610fab565b81010312612d0c578d9060a060405191612cd283610f7a565b8051835260208101516020840152604081015160408401526060810151606084015260808101516080840152015160a08201529138612307565b8980fd5b3d9150612cac565b6040513d8c823e3d90fd5b91925050610100813d8211612dd1575b81612d416101009383610fab565b81010312610a61576040519061010082018281106001600160401b03821117612dbd579160e06004928f9594604052805183526020810151602084015260408101516040840152606081015160608401526080810151608084015260a081015160a084015260c081015160c0840152015160e0820152906122c4565b634e487b7160e01b8a52604160045260248afd5b3d9150612d33565b5050509287525050505050565b9050612a625760048214158861228f565b9050612a6257600e82141588612289565b9050612a6257600d82141588612283565b9050612a6257600c8214158861227d565b50965085966006821415612276565b612e4e9192503d8087833e611e328183610fab565b9038612250565b51600f811061226057634e487b7160e01b86526021600452602486fd5b634e487b7160e01b88526021600452602488fd5b612e9b9192503d8087833e611e328183610fab565b90386121c7565b90506020813d602011612ed4575b81612ebd60209383610fab565b810103126106e957612ece906110ca565b3861217b565b3d9150612eb0565b90506020813d602011612f0e575b81612ef760209383610fab565b810103126106da57612f08906110ca565b38612122565b3d9150612eea565b6040513d84823e3d90fd5b6000805160206141c983398151915280546001600160a01b031990811690915560008051602061416983398151915280549182166001600160a01b0393841690811790915591167f8be0079c531659141344cd1fd0a4f28419497f9722a3daafe3b4186f6b6457e0600080a3565b9190918260005b818110612fc25750612fa791611106565b6001600160a01b039091169052600181019081106111295790565b90506001600160a01b03612fd68284611106565b51166001600160a01b03841614612ff1576001018390612f96565b50505090565b9190826040910312610e19576112af6020835193016110de565b9190606001805192600f841015610f2a5760056000941415806134ca575b806134b5575b8061348c575b61306357505191600f83101561304f579190565b634e487b7160e01b81526021600452602490fd5b8354604051631bae711d60e21b8152602060048201819052600d60248301526c49646c656e657373506861736560981b604483015290959394939291869060649082906001600160a01b03165afa948515612f16578295613450575b506130c8612022565b9060405195602087018781106001600160401b0382111761343c5790602485969798869360405284815260405196879384926323d783ed60e11b845251600484015260018060a01b03165af192831561255057849361332d575b50825192600f84101580612a81578497602083015190600f821015612e72575190600f821015612e725714806132de575b6131605750505050509190565b80919293959497506132ca576005871480156132be575b1561320d57506040908101518151630341e56360e31b81529491928592918391869183916131b1916001600160a01b0316600484016110eb565b03926001600160a01b03165af190811561320157506131d3575b505b60019190565b6131f49060403d6040116131fa575b6131ec8183610fab565b810190612ff7565b506131cb565b503d6131e2565b604051903d90823e3d90fd5b9190916132aa576006861480156132a0575b61322d575b505050506131cd565b604091820151825163910048fb60e01b81529485929091839186918391613260916001600160a01b0316600484016110eb565b03926001600160a01b03165af19081156132015750613282575b808080613224565b61329a9060403d6040116131fa576131ec8183610fab565b5061327a565b50600c861461321f565b634e487b7160e01b83526021600452602483fd5b505082600d8714613177565b634e487b7160e01b84526021600452602484fd5b505084600585148015613321575b818115613311575b8115613301575b50613153565b9050612a8157600c8514816132fb565b9050612a8157600d8514816132f4565b505084600685146132ec565b9092503d8085833e61333f8183610fab565b81019060208183031261255b578051906001600160401b0382116129ce57019060e08282031261255b576040519160e083018381106001600160401b03821117613428576040528051600f811015612a275783526020810151600f811015612a275760208401526133b2604082016110ca565b60408401526133c3606082016110ca565b60608401526133d4608082016110ca565b608084015260a08101516001600160401b038111612a2757826133f89183016111d1565b60a084015260c0810151906001600160401b038211612a275761341c9291016111d1565b60c08201529138613122565b634e487b7160e01b87526041600452602487fd5b634e487b7160e01b85526041600452602485fd5b9094506020813d602011613484575b8161346c60209383610fab565b810103126106da5761347d906110ca565b93386130bf565b3d915061345f565b508151600f8110156134a157600c141561303b565b634e487b7160e01b85526021600452602485fd5b508151600f8110156134a157600d1415613035565b508151600f8110156134a1576006141561302f565b6000906064602060018060a01b0384541660405192838092631bae711d60e21b825284600483015260076024830152665374616b696e6760c81b60448301525afa80156106de57839061376c575b6001600160a01b03169160649150613543611fb8565b602060018060a01b0386541660405194858092631bae711d60e21b8252846004830152600e60248301526d151c9a589d5b985b105c1c19585b60921b60448301525afa928315612578578593613730575b5060405163900cf0cf60e01b8152602081600481885afa9081156137255786916136f3575b508210156136ec576040516315fffa8d60e01b81526004810183905290602090829060249082906001600160a01b03165afa9081156125785785916136ba575b506136b457604051634d66354560e11b8152600481019190915290602090829060249082906001600160a01b03165afa9081156106de57839161367a575b5061367657803b156106da578180916004604051809481936333d98b0560e21b83525af18015612f1657613669575050565b8161367391610fab565b50565b5050565b90506020813d6020116136ac575b8161369560209383610fab565b810103126106e9576136a6906110de565b38613637565b3d9150613688565b50505050565b90506020813d6020116136e4575b816136d560209383610fab565b8101031261255b5751386135f9565b3d91506136c8565b5050505050565b90506020813d60201161371d575b8161370e60209383610fab565b810103126129ce5751386135b9565b3d9150613701565b6040513d88823e3d90fd5b9092506020813d602011613764575b8161374c60209383610fab565b8101031261255b5761375d906110ca565b9138613594565b3d915061373f565b506020813d60201161379e575b8161378660209383610fab565b810103126106e9576137996064916110ca565b61352d565b3d9150613779565b60ff6000805160206141a98339815191525460401c16156137c357565b631afcd79f60e31b60005260046000fd5b916137dd610fcc565b6080528015614137576137ee611fb8565b6137f6612022565b60405163342c3b5f60e11b815260048101869052929091906000846024816001600160a01b0386165afa938415611f70576000946140f5575b50835190811580156140eb575b6140c45761384a908661122e565b908082116140bc575b50848103818111611129578061387191608096949395965152611098565b9260009461388160805151611098565b60a0528596935b82851061396957505050505061389d82611098565b9060606080510191825260005b83811061394957505050506138be81611098565b608080510190815260005b8281106139205750506080518051602080830151604093840151845193845291830152918101919091527f6a1411cafcd9b72c38b4923b549b77f628695cee34168eaba04576f7610196a19150806060810161164c565b600190818060a01b036139358260a051611106565b5116613942828551611106565b52016138c9565b8061395660019284611106565b51613962828651611106565b52016138aa565b90919293966139788883611106565b5160405163255709e560e11b815260048101829052909890916000836024816001600160a01b038b165afa928315611f70576000936140a1575b50606083018051600f81101560c05260c051610f2a57600060c052600714801561408d575b614081576102608401518015159081614077575b5015613c8c57506001600160a01b0387163b156118f6576040516346f32a5d60e11b8152600481018b90526008602482015260c05181604481836001600160a01b038d165af1801561190457613c7a575b506001600160a01b0387163b156118f657604051634ff736eb60e11b8152600481018c9052602481018b905260c05181604481836001600160a01b038d165af1801561190457613c68575b5089613a956117bd8b61111a565b52602060805101613aa6815161111a565b9052613ae160c060018060a01b03871694019360208c60018060a01b038751166040519485928392634113628960e11b8452600484016110eb565b0381845afa8015611904578c9260c05191613c2d575b5015613bd2578451604051639c88381960e01b8152926020928492909183918291613b2e916001600160a01b0316600484016110eb565b039160c051905af1801561190457613b91575b50915160a051600193613b5d926001600160a01b031691612f8f565b987f258a297b31a4dd4c7a9b45d91fc82c36f662592841caa590be0fd795a7a38c3160c05160c051a25b0193929190613888565b906020823d8211613bca575b81613baa60209383610fab565b810103126118f657600193613bc1613b5d936110de565b50935090613b41565b3d9150613b9d565b845190949291506001600160a01b0316843b156118f6578b613c0d95604051808098819463e5d31ced60e01b835260c05196600484016110eb565b039160c051905af191821561190457600194613b5d9361196d5750611877565b9250506020823d8211613c60575b81613c4860209383610fab565b810103126118f657613c5a8c926110de565b38613af7565b3d9150613c3b565b60c051613c7491610fab565b38613a87565b60c051613c8691610fab565b38613a3c565b9099928151600f811015611b73576001148015614063575b801561404f575b801561403b575b8015614027575b613cc9575b505060019150613b87565b6001600160a01b0388163b156118f6576040516346f32a5d60e11b8152600481018590526007602482015260c05181604481836001600160a01b038e165af1801561190457614015575b506001600160a01b0388163b156118f657604051634ff736eb60e11b8152600481018d90526024810185905260c05181604481836001600160a01b038e165af1801561190457614003575b5083613d73613d6c8c61111a565b9b8b611106565b52604060805101613d84815161111a565b90528151600f811015611b7357600114613e57575b60c00151604051637112610560e11b81529060209082908190613dca9088906001600160a01b0316600484016110eb565b038160c05160018060a01b038b165af1801561190457613e21575b505191600f831015611b73576000805160206141498339815191526040600194613e1182518092610f1d565b60c0516020820152a23880613cbe565b6020813d8211613e4f575b81613e3960209383610fab565b810103126118f657613e4a906110de565b613de5565b3d9150613e2c565b60c081018051604051634113628960e11b8152929c6001600160a01b038981169491939260209183918291613e92918c9116600484016110eb565b0381875afa801561190457879160c05191613fc8575b5015613f6a578151604051639c88381960e01b815294602092869283918291613ede91906001600160a01b0316600484016110eb565b039160c051905af1928315611904578693613f21575b5091613f17602092613dca945160a0516001600160a01b03919091169190612f8f565b9c92505050613d99565b92506020833d8211613f62575b81613f3b60209383610fab565b810103126118f657613f176020928792613f57613dca966110de565b509294509250613ef4565b3d9150613f2e565b508051919290916001600160a01b0316813b156118f657604051809263e5d31ced60e01b82528180613fa38b60c05196600484016110eb565b039160c051905af1801561190457613dca936020938893613f1793611d225750611c6b565b9150506020813d8211613ffb575b81613fe360209383610fab565b810103126118f657613ff587916110de565b38613ea8565b3d9150613fd6565b60c05161400f91610fab565b38613d5e565b60c05161402191610fab565b38613d13565b508151600f811015611b7357600414613cb9565b508151600f811015611b7357600e14613cb2565b508151600f811015611b7357600314613cab565b508151600f811015611b7357600214613ca4565b90504211386139eb565b50985060019150613b87565b508051600f811015611b73576008146139d7565b6140b591933d8091833e611e328183610fab565b91386139b2565b905038613853565b505050505050506040516140d9602082610fab565b60008152600036813760805160600152565b508186101561383c565b90933d8082843e6141068184610fab565b8201916020818403126106da578051916001600160401b03831161013757506141309291016111d1565b923861382f565b6372dbed9760e11b60005260046000fdfefcc739ca8e51c67e4fd127179070d26ae8ed5ed6dcbc26bcd88ff81c50f346a69016d09d72d40fdae2fd8ceac6b6234c7706214fd39c1cd1e609a0528c1993009b779b17422d0df92223018b32b4d1fa46e071723d6817e2486d003becc55f00f0c57e16840df040f15088dc2f81fe391c3923bec73e23a9662efc9c229c6a00237e158222e3e6968b72b9db0d8043aacf074ad9f650f0d1606b4d82ee432c00a26469706673582212206ef0bd2151852c937ce80a7ef168bf74b6f4e1eefbad230e1aaddc255721a1cf64736f6c634300081c0033",
  "linkReferences": {},
  "deployedLinkReferences": {}
}