{
  "_format": "hh-sol-artifact-1",
  "contractName": "StakingInvariant",
  "sourceName": "contracts/StakingInvariant.sol",
  "abi": [
    {
      "inputs": [
        {
          "internalType": "address",
          "name": "_staking",
          "type": "address"
        }
      ],
      "stateMutability": "nonpayable",
      "type": "constructor"
    },
    {
      "inputs": [],
      "name": "OnlyStakingContract",
      "type": "error"
    },
    {
      "anonymous": false,
      "inputs": [
        {
          "indexed": false,
          "internalType": "uint256",
          "name": "fromEpoch",
          "type": "uint256"
        },
        {
          "indexed": false,
          "internalType": "uint256",
          "name": "toEpoch",
          "type": "uint256"
        },
        {
          "indexed": false,
          "internalType": "uint256",
          "name": "prevTotal",
          "type": "uint256"
        },
        {
          "indexed": false,
          "internalType": "uint256",
          "name": "currTotal",
          "type": "uint256"
        }
      ],
      "name": "EpochReset",
      "type": "event"
    },
    {
      "inputs": [],
      "name": "INITIAL_SUPPLY",
      "outputs": [
        {
          "internalType": "uint256",
          "name": "",
          "type": "uint256"
        }
      ],
      "stateMutability": "view",
      "type": "function"
    },
    {
      "inputs": [],
      "name": "checkAll",
      "outputs": [
        {
          "components": [
            {
              "internalType": "uint256",
              "name": "totalChecks",
              "type": "uint256"
            },
            {
              "internalType": "uint256",
              "name": "violationsFound",
              "type": "uint256"
            },
            {
              "internalType": "bool",
              "name": "allPassed",
              "type": "bool"
            },
            {
              "components": [
                {
                  "internalType": "string",
                  "name": "name",
                  "type": "string"
                },
                {
                  "internalType": "string",
                  "name": "details",
                  "type": "string"
                },
                {
                  "internalType": "bool",
                  "name": "isViolated",
                  "type": "bool"
                }
              ],
              "internalType": "struct StakingInvariant.Invariant[]",
              "name": "invariants",
              "type": "tuple[]"
            }
          ],
          "internalType": "struct StakingInvariant.InvariantReport",
          "name": "report",
          "type": "tuple"
        }
      ],
      "stateMutability": "view",
      "type": "function"
    },
    {
      "inputs": [],
      "name": "checkArrayLengths",
      "outputs": [
        {
          "components": [
            {
              "internalType": "string",
              "name": "name",
              "type": "string"
            },
            {
              "internalType": "string",
              "name": "details",
              "type": "string"
            },
            {
              "internalType": "bool",
              "name": "isViolated",
              "type": "bool"
            }
          ],
          "internalType": "struct StakingInvariant.Invariant",
          "name": "",
          "type": "tuple"
        }
      ],
      "stateMutability": "view",
      "type": "function"
    },
    {
      "inputs": [],
      "name": "checkClaimVsCommit",
      "outputs": [
        {
          "components": [
            {
              "internalType": "string",
              "name": "name",
              "type": "string"
            },
            {
              "internalType": "string",
              "name": "details",
              "type": "string"
            },
            {
              "internalType": "bool",
              "name": "isViolated",
              "type": "bool"
            }
          ],
          "internalType": "struct StakingInvariant.Invariant",
          "name": "",
          "type": "tuple"
        }
      ],
      "stateMutability": "view",
      "type": "function"
    },
    {
      "inputs": [],
      "name": "checkInflationAccounting",
      "outputs": [
        {
          "components": [
            {
              "internalType": "string",
              "name": "name",
              "type": "string"
            },
            {
              "internalType": "string",
              "name": "details",
              "type": "string"
            },
            {
              "internalType": "bool",
              "name": "isViolated",
              "type": "bool"
            }
          ],
          "internalType": "struct StakingInvariant.Invariant",
          "name": "",
          "type": "tuple"
        }
      ],
      "stateMutability": "view",
      "type": "function"
    },
    {
      "inputs": [],
      "name": "checkSharesStakeRelation",
      "outputs": [
        {
          "components": [
            {
              "internalType": "string",
              "name": "name",
              "type": "string"
            },
            {
              "internalType": "string",
              "name": "details",
              "type": "string"
            },
            {
              "internalType": "bool",
              "name": "isViolated",
              "type": "bool"
            }
          ],
          "internalType": "struct StakingInvariant.Invariant",
          "name": "",
          "type": "tuple"
        }
      ],
      "stateMutability": "view",
      "type": "function"
    },
    {
      "inputs": [],
      "name": "checkSlashingToBurning",
      "outputs": [
        {
          "components": [
            {
              "internalType": "string",
              "name": "name",
              "type": "string"
            },
            {
              "internalType": "string",
              "name": "details",
              "type": "string"
            },
            {
              "internalType": "bool",
              "name": "isViolated",
              "type": "bool"
            }
          ],
          "internalType": "struct StakingInvariant.Invariant",
          "name": "",
          "type": "tuple"
        }
      ],
      "stateMutability": "view",
      "type": "function"
    },
    {
      "inputs": [],
      "name": "checkTotalCirculation",
      "outputs": [
        {
          "components": [
            {
              "internalType": "string",
              "name": "name",
              "type": "string"
            },
            {
              "internalType": "string",
              "name": "details",
              "type": "string"
            },
            {
              "internalType": "bool",
              "name": "isViolated",
              "type": "bool"
            }
          ],
          "internalType": "struct StakingInvariant.Invariant",
          "name": "",
          "type": "tuple"
        }
      ],
      "stateMutability": "view",
      "type": "function"
    },
    {
      "inputs": [],
      "name": "checkTotalSystemStake",
      "outputs": [
        {
          "components": [
            {
              "internalType": "string",
              "name": "name",
              "type": "string"
            },
            {
              "internalType": "string",
              "name": "details",
              "type": "string"
            },
            {
              "internalType": "bool",
              "name": "isViolated",
              "type": "bool"
            }
          ],
          "internalType": "struct StakingInvariant.Invariant",
          "name": "",
          "type": "tuple"
        }
      ],
      "stateMutability": "view",
      "type": "function"
    },
    {
      "inputs": [],
      "name": "checkValidatorAddressMapping",
      "outputs": [
        {
          "components": [
            {
              "internalType": "string",
              "name": "name",
              "type": "string"
            },
            {
              "internalType": "string",
              "name": "details",
              "type": "string"
            },
            {
              "internalType": "bool",
              "name": "isViolated",
              "type": "bool"
            }
          ],
          "internalType": "struct StakingInvariant.Invariant",
          "name": "",
          "type": "tuple"
        }
      ],
      "stateMutability": "view",
      "type": "function"
    },
    {
      "inputs": [],
      "name": "checkValidatorWeights",
      "outputs": [
        {
          "components": [
            {
              "internalType": "string",
              "name": "name",
              "type": "string"
            },
            {
              "internalType": "string",
              "name": "details",
              "type": "string"
            },
            {
              "internalType": "bool",
              "name": "isViolated",
              "type": "bool"
            }
          ],
          "internalType": "struct StakingInvariant.Invariant",
          "name": "",
          "type": "tuple"
        }
      ],
      "stateMutability": "view",
      "type": "function"
    },
    {
      "inputs": [],
      "name": "checkWithdrawals",
      "outputs": [
        {
          "components": [
            {
              "internalType": "string",
              "name": "name",
              "type": "string"
            },
            {
              "internalType": "string",
              "name": "details",
              "type": "string"
            },
            {
              "internalType": "bool",
              "name": "isViolated",
              "type": "bool"
            }
          ],
          "internalType": "struct StakingInvariant.Invariant",
          "name": "",
          "type": "tuple"
        }
      ],
      "stateMutability": "view",
      "type": "function"
    },
    {
      "inputs": [],
      "name": "cumulative",
      "outputs": [
        {
          "components": [
            {
              "internalType": "uint256",
              "name": "deposits",
              "type": "uint256"
            },
            {
              "internalType": "uint256",
              "name": "rewards",
              "type": "uint256"
            },
            {
              "internalType": "uint256",
              "name": "withdrawals",
              "type": "uint256"
            }
          ],
          "internalType": "struct StakingInvariant.Operations",
          "name": "validator",
          "type": "tuple"
        },
        {
          "components": [
            {
              "internalType": "uint256",
              "name": "deposits",
              "type": "uint256"
            },
            {
              "internalType": "uint256",
              "name": "rewards",
              "type": "uint256"
            },
            {
              "internalType": "uint256",
              "name": "withdrawals",
              "type": "uint256"
            }
          ],
          "internalType": "struct StakingInvariant.Operations",
          "name": "delegator",
          "type": "tuple"
        }
      ],
      "stateMutability": "view",
      "type": "function"
    },
    {
      "inputs": [],
      "name": "currentTotalSystemStake",
      "outputs": [
        {
          "internalType": "uint256",
          "name": "",
          "type": "uint256"
        }
      ],
      "stateMutability": "view",
      "type": "function"
    },
    {
      "inputs": [],
      "name": "epoch",
      "outputs": [
        {
          "components": [
            {
              "internalType": "uint256",
              "name": "deposits",
              "type": "uint256"
            },
            {
              "internalType": "uint256",
              "name": "rewards",
              "type": "uint256"
            },
            {
              "internalType": "uint256",
              "name": "withdrawals",
              "type": "uint256"
            }
          ],
          "internalType": "struct StakingInvariant.Operations",
          "name": "validator",
          "type": "tuple"
        },
        {
          "components": [
            {
              "internalType": "uint256",
              "name": "deposits",
              "type": "uint256"
            },
            {
              "internalType": "uint256",
              "name": "rewards",
              "type": "uint256"
            },
            {
              "internalType": "uint256",
              "name": "withdrawals",
              "type": "uint256"
            }
          ],
          "internalType": "struct StakingInvariant.Operations",
          "name": "delegator",
          "type": "tuple"
        }
      ],
      "stateMutability": "view",
      "type": "function"
    },
    {
      "inputs": [],
      "name": "getCumulativeData",
      "outputs": [
        {
          "internalType": "uint256",
          "name": "cumVDeposits",
          "type": "uint256"
        },
        {
          "internalType": "uint256",
          "name": "cumDDeposits",
          "type": "uint256"
        },
        {
          "internalType": "uint256",
          "name": "cumVWithdrawals",
          "type": "uint256"
        },
        {
          "internalType": "uint256",
          "name": "cumDWithdrawals",
          "type": "uint256"
        },
        {
          "internalType": "uint256",
          "name": "cumVRewards",
          "type": "uint256"
        },
        {
          "internalType": "uint256",
          "name": "cumDRewards",
          "type": "uint256"
        }
      ],
      "stateMutability": "view",
      "type": "function"
    },
    {
      "inputs": [],
      "name": "getCumulativeWithdrawalData",
      "outputs": [
        {
          "internalType": "uint256",
          "name": "cumVDeposits",
          "type": "uint256"
        },
        {
          "internalType": "uint256",
          "name": "cumDDeposits",
          "type": "uint256"
        },
        {
          "internalType": "uint256",
          "name": "cumVWithdrawals",
          "type": "uint256"
        },
        {
          "internalType": "uint256",
          "name": "cumDWithdrawals",
          "type": "uint256"
        },
        {
          "internalType": "uint256",
          "name": "cumVRewards",
          "type": "uint256"
        },
        {
          "internalType": "uint256",
          "name": "cumDRewards",
          "type": "uint256"
        }
      ],
      "stateMutability": "view",
      "type": "function"
    },
    {
      "inputs": [],
      "name": "getEpochData",
      "outputs": [
        {
          "internalType": "uint256",
          "name": "prevTotal",
          "type": "uint256"
        },
        {
          "internalType": "uint256",
          "name": "currTotal",
          "type": "uint256"
        },
        {
          "internalType": "uint256",
          "name": "vDeposits",
          "type": "uint256"
        },
        {
          "internalType": "uint256",
          "name": "dDeposits",
          "type": "uint256"
        },
        {
          "internalType": "uint256",
          "name": "vWithdrawals",
          "type": "uint256"
        },
        {
          "internalType": "uint256",
          "name": "dWithdrawals",
          "type": "uint256"
        },
        {
          "internalType": "uint256",
          "name": "vRewards",
          "type": "uint256"
        },
        {
          "internalType": "uint256",
          "name": "dRewards",
          "type": "uint256"
        }
      ],
      "stateMutability": "view",
      "type": "function"
    },
    {
      "inputs": [],
      "name": "getInvariantData",
      "outputs": [
        {
          "internalType": "uint256",
          "name": "prevTotal",
          "type": "uint256"
        },
        {
          "internalType": "uint256",
          "name": "currTotal",
          "type": "uint256"
        },
        {
          "internalType": "uint256",
          "name": "vDeposits",
          "type": "uint256"
        },
        {
          "internalType": "uint256",
          "name": "dDeposits",
          "type": "uint256"
        },
        {
          "internalType": "uint256",
          "name": "vWithdrawals",
          "type": "uint256"
        },
        {
          "internalType": "uint256",
          "name": "dWithdrawals",
          "type": "uint256"
        },
        {
          "internalType": "uint256",
          "name": "vRewards",
          "type": "uint256"
        },
        {
          "internalType": "uint256",
          "name": "dRewards",
          "type": "uint256"
        }
      ],
      "stateMutability": "view",
      "type": "function"
    },
    {
      "inputs": [],
      "name": "previousTotalSystemStake",
      "outputs": [
        {
          "internalType": "uint256",
          "name": "",
          "type": "uint256"
        }
      ],
      "stateMutability": "view",
      "type": "function"
    },
    {
      "inputs": [],
      "name": "recalculateCurrentTotals",
      "outputs": [],
      "stateMutability": "nonpayable",
      "type": "function"
    },
    {
      "inputs": [
        {
          "internalType": "uint256",
          "name": "newTotalStake",
          "type": "uint256"
        },
        {
          "internalType": "uint256",
          "name": "newEpoch",
          "type": "uint256"
        }
      ],
      "name": "resetEpochTracking",
      "outputs": [],
      "stateMutability": "nonpayable",
      "type": "function"
    },
    {
      "inputs": [
        {
          "internalType": "address",
          "name": "_staking",
          "type": "address"
        }
      ],
      "name": "setStaking",
      "outputs": [],
      "stateMutability": "nonpayable",
      "type": "function"
    },
    {
      "inputs": [],
      "name": "staking",
      "outputs": [
        {
          "internalType": "contract IGenLayerStaking",
          "name": "",
          "type": "address"
        }
      ],
      "stateMutability": "view",
      "type": "function"
    },
    {
      "inputs": [],
      "name": "totalInflationGenerated",
      "outputs": [
        {
          "internalType": "uint256",
          "name": "",
          "type": "uint256"
        }
      ],
      "stateMutability": "view",
      "type": "function"
    },
    {
      "inputs": [],
      "name": "totalSlashed",
      "outputs": [
        {
          "internalType": "uint256",
          "name": "",
          "type": "uint256"
        }
      ],
      "stateMutability": "view",
      "type": "function"
    },
    {
      "inputs": [
        {
          "internalType": "uint256",
          "name": "amount",
          "type": "uint256"
        }
      ],
      "name": "trackDelegatorDeposit",
      "outputs": [],
      "stateMutability": "nonpayable",
      "type": "function"
    },
    {
      "inputs": [
        {
          "internalType": "uint256",
          "name": "amount",
          "type": "uint256"
        }
      ],
      "name": "trackDelegatorRewards",
      "outputs": [],
      "stateMutability": "nonpayable",
      "type": "function"
    },
    {
      "inputs": [
        {
          "internalType": "uint256",
          "name": "amount",
          "type": "uint256"
        }
      ],
      "name": "trackDelegatorWithdrawal",
      "outputs": [],
      "stateMutability": "nonpayable",
      "type": "function"
    },
    {
      "inputs": [
        {
          "internalType": "uint256",
          "name": "amount",
          "type": "uint256"
        }
      ],
      "name": "trackInflation",
      "outputs": [],
      "stateMutability": "nonpayable",
      "type": "function"
    },
    {
      "inputs": [
        {
          "internalType": "uint256",
          "name": "amount",
          "type": "uint256"
        }
      ],
      "name": "trackSlashing",
      "outputs": [],
      "stateMutability": "nonpayable",
      "type": "function"
    },
    {
      "inputs": [
        {
          "internalType": "uint256",
          "name": "amount",
          "type": "uint256"
        }
      ],
      "name": "trackValidatorDeposit",
      "outputs": [],
      "stateMutability": "nonpayable",
      "type": "function"
    },
    {
      "inputs": [
        {
          "internalType": "uint256",
          "name": "amount",
          "type": "uint256"
        }
      ],
      "name": "trackValidatorRewards",
      "outputs": [],
      "stateMutability": "nonpayable",
      "type": "function"
    },
    {
      "inputs": [
        {
          "internalType": "uint256",
          "name": "amount",
          "type": "uint256"
        }
      ],
      "name": "trackValidatorWithdrawal",
      "outputs": [],
      "stateMutability": "nonpayable",
      "type": "function"
    },
    {
      "inputs": [],
      "name": "trackingEpoch",
      "outputs": [
        {
          "internalType": "uint256",
          "name": "",
          "type": "uint256"
        }
      ],
      "stateMutability": "view",
      "type": "function"
    },
    {
      "inputs": [
        {
          "internalType": "uint256",
          "name": "newTotal",
          "type": "uint256"
        }
      ],
      "name": "updateCurrentTotalStake",
      "outputs": [],
      "stateMutability": "nonpayable",
      "type": "function"
    }
  ],
  "bytecode": "0x608034607057601f612c0438819003918201601f19168301916001600160401b03831184841017607557808492602094604052833981010312607057516001600160a01b03811690819003607057600080546001600160a01b031916919091179055604051612b78908161008c8239f35b600080fd5b634e487b7160e01b600052604160045260246000fdfe608080604052600436101561001357600080fd5b60003560e01c9081630eec899c14610d2e57508063280ac80d14610d125780632ff2e9dc14610ceb578063344d68d014610ccf578063366f2a1d14610c0357806337870db914610be75780633bfa2b4214610bcb57806346ce5d1c14610baf5780634cf088d914610b8657806363e2198514610b6a57806364af179214610b23578063660d3d0a14610b055780636c62039614610ae75780636e48b8f014610aa057806377a45b7514610a8457806379a77d7c146107f75780637ae176ff1461077e5780638ff3909914610735578063900cf0cf1461069e5780639eabd00214610662578063a076e7a81461061b578063a201bbdd146105fd578063b8cb5733146105d2578063c2920acc146105b6578063c725a83314610569578063c77e36121461054d578063d05e06c51461051d578063d4ee6c25146104d6578063dd583c581461048f578063e27cbaad14610471578063ebf51541146103f3578063ee4721d4146103bd578063eed9c5ef14610387578063eef4b05c146102d6578063f0355883146102085763fddeac2d146101ab57600080fd5b3461020357602036600319011261020357600054600435906001600160a01b031633036101f257806101e26101ed92600354610e5c565b600355600954610e5c565b600955005b636c03d7e760e11b60005260046000fd5b600080fd5b3461020357600036600319011261020357604051634f55e80160e11b815261010081600481305afa80156102ca576000809181828384918593869561025d575b604051985088976102599789610e04565b0390f35b5050505050509050610100823d82116102c2575b8161027f6101009383610de3565b810103126102bf57508051602082015160408301516060840151608085015160a086015160c087015160e090970151949687969594909391929190610248565b80fd5b3d9150610271565b6040513d6000823e3d90fd5b346102035760403660031901126102035760005460043590602435906001600160a01b031633036101f257600f547f85b6066214cc926a9bfaa86cb114b6bcb7a66765acef4a603a6e72d530e0e883926080929082610379576000600d55600e555b60006001556000600255600060035560006004556000600555600060065580600f55600d54600e5491604051938452602084015260408301526060820152a1005b600e54600d55600e55610338565b34610203576020366003190112610203576000546001600160a01b031633036101f2576103b8600435601054610e5c565b601055005b34610203576020366003190112610203576000546001600160a01b031633036101f2576103ee600435601154610e5c565b601155005b346102035760003660031901126102035760005460405163bea4003960e01b815290602090829060049082906001600160a01b03165afa9081156102ca5760009161043f575b50600e55005b90506020813d602011610469575b8161045a60209383610de3565b81010312610203575181610439565b3d915061044d565b34610203576000366003190112610203576020600d54604051908152f35b3461020357602036600319011261020357600054600435906001600160a01b031633036101f257806104c66104d192600454610e5c565b600455600a54610e5c565b600a55005b3461020357602036600319011261020357600054600435906001600160a01b031633036101f2578061050d61051892600254610e5c565b600255600854610e5c565b600855005b346102035760003660031901126102035761025961053961285e565b604051918291602083526020830190610d91565b346102035760003660031901126102035761025961053961257e565b3461020357600036600319011261020357600754600a54600954600c54600854600b54604080519687526020870195909552938501929092526060840152608083015260a082015260c090f35b346102035760003660031901126102035761025961053961242a565b34610203576020366003190112610203576000546001600160a01b031633036101f257600435600e55005b34610203576000366003190112610203576020601054604051908152f35b3461020357602036600319011261020357600054600435906001600160a01b031633036101f2578061065261065d92600654610e5c565b600655600c54610e5c565b600c55005b3461020357600036600319011261020357600d54600e549061025960015460045460035460065490600254926005549460405198899889610e04565b346102035760003660031901126102035760c06040516106bd81610dc8565b6001548152600254602082015260035460408201526107336040516106e181610dc8565b60045481526005546020820152600654604082015261071760405180946040809180518452602081015160208501520151910152565b80516060840152602081015160808401526040015160a0830152565bf35b34610203576020366003190112610203576004356001600160a01b03811690819003610203576000546001600160a01b03811633036101f2576001600160a01b03191617600055005b346102035760003660031901126102035760c060405161079d81610dc8565b6007548152600854602082015260095460408201526107336040516107c181610dc8565b600a548152600b546020820152600c54604082015261071760405180946040809180518452602081015160208501520151910152565b3461020357600036600319011261020357604051608081018181106001600160401b03821117610a6e5760405260008152602081016000815260408201906000825260608301906060825261016093604051946108548187610de3565b600a8652601f190160005b818110610a57575050610870610ea7565b6108798661118d565b526108838561118d565b5061088c611760565b610895866111b0565b5261089f856111b0565b506108a861257e565b6108b1866111c0565b526108bb856111c0565b506108c4611973565b6108cd866111d0565b526108d7856111d0565b506108e061285e565b6108e9866111e0565b526108f3856111e0565b506108fc61242a565b610905866111f0565b5261090f856111f0565b50610918611dd8565b61092186611200565b5261092b85611200565b50610934611b85565b61093d86611210565b5261094785611210565b5061095061137a565b61095986611221565b5261096385611221565b5061096c612285565b61097586611232565b5261097f85611232565b5060009260005b86518110156109bf57604061099b8289611243565b5101516109ab575b600101610986565b936109b7600191611257565b9490506109a3565b509084929186858151845280855215855281526040519384936020855260a085019351602086015251604085015251151560608401525190608080840152815180915260c0830190602060c08260051b8601019301916000905b828210610a2857505050500390f35b91936001919395506020610a47819260bf198a82030186528851610d91565b9601920192018594939192610a19565b602090610a62610e3b565b82828a0101520161085f565b634e487b7160e01b600052604160045260246000fd5b3461020357600036600319011261020357610259610539612285565b3461020357602036600319011261020357600054600435906001600160a01b031633036101f25780610ad7610ae292600554610e5c565b600555600b54610e5c565b600b55005b34610203576000366003190112610203576020600f54604051908152f35b34610203576000366003190112610203576020601154604051908152f35b3461020357602036600319011261020357600054600435906001600160a01b031633036101f25780610b5a610b6592600154610e5c565b600155600754610e5c565b600755005b3461020357600036600319011261020357610259610539611dd8565b34610203576000366003190112610203576000546040516001600160a01b039091168152602090f35b3461020357600036600319011261020357610259610539611b85565b3461020357600036600319011261020357610259610539611973565b3461020357600036600319011261020357610259610539611760565b346102035760003660031901126102035760405163c725a83360e01b815260c081600481305afa80156102ca5760008091818283918493610c75575b61025994959650604051968796879260a094919796959260c0850198855260208501526040840152606083015260808201520152565b50505050905060c0823d60c011610cc7575b81610c9460c09383610de3565b810103126102bf57508051602082015160408301516060840151608085015160a090950151929485949392909190610c3f565b3d9150610c87565b346102035760003660031901126102035761025961053961137a565b346102035760003660031901126102035760206040516b0d92289838d21a99680000008152f35b3461020357600036600319011261020357610259610539610ea7565b3461020357600036600319011261020357602090600e548152f35b60005b838110610d5c5750506000910152565b8181015183820152602001610d4c565b90602091610d8581518092818552858086019101610d49565b601f01601f1916010190565b90604080610dbd610dab8551606086526060860190610d6c565b60208601518582036020870152610d6c565b930151151591015290565b606081019081106001600160401b03821117610a6e57604052565b90601f801991011681019081106001600160401b03821117610a6e57604052565b94919260e0969399989794919961010087019a8752602087015260408601526060850152608084015260a083015260c08201520152565b60405190610e4882610dc8565b600060408360608152606060208201520152565b91908201809211610e6957565b634e487b7160e01b600052601160045260246000fd5b91908203918211610e6957565b6001600160401b038111610a6e57601f01601f191660200190565b610eaf610e3b565b50670de0b6b3a7640000600d54602a610f06610efd610ef4610eeb610ee2610ed960015488610e5c565b60045490610e5c565b60025490610e5c565b60055490610e5c565b60035490610e7f565b60065490610e7f565b600e5490610f2a671bc16d674ec80000610f2083856129d8565b1195869504612a39565b9161100160046010610f45670de0b6b3a76400008504612a39565b600f610f5a670de0b6b3a76400008804612a39565b604051998a93602085019a690283932bb34b7bab99d160b51b8c52610f88815180926020868a019101610d49565b85016e01022aa24161021bab93932b73a1d1608d1b83820152610fb5825180936020603985019101610d49565b01016f01022aa24161022bc3832b1ba32b21d160851b83820152610fe3825180936020601f85019101610d49565b0101630408aa8960e31b838201520301601b19810187520185610de3565b8395611054575b505050506040519161101983610dc8565b60409081516110288382610de3565b6012815271546f74616c2053797374656d205374616b6560701b60208201528452602084015282015290565b611094949550926020600493611081670de0b6b3a764000061107b6008966110d7996129d8565b04612a39565b9060405197889451809285870190610d49565b830167016102234b3331d160c51b838201526110b98251809385602885019101610d49565b0101630408aa8960e31b838201520301601b19810184520182610de3565b9038808080611008565b6001600160401b038111610a6e5760051b60200190565b51906001600160a01b038216820361020357565b602081830312610203578051906001600160401b03821161020357019080601f8301121561020357815161113f816110e1565b9261114d6040519485610de3565b81845260208085019260051b82010192831161020357602001905b8282106111755750505090565b60208091611182846110f8565b815201910190611168565b80511561119a5760200190565b634e487b7160e01b600052603260045260246000fd5b80516001101561119a5760400190565b80516002101561119a5760600190565b80516003101561119a5760800190565b80516004101561119a5760a00190565b80516005101561119a5760c00190565b80516006101561119a5760e00190565b80516007101561119a576101000190565b80516008101561119a576101200190565b80516009101561119a576101400190565b805182101561119a5760209160051b010190565b6000198114610e695760010190565b90816101809103126102035760006040519161018083018381106001600160401b0382111761132f576040526101609061129f816110f8565b84526112ad602082016110f8565b60208501526112be604082016110f8565b6040850152606081015160608501526080810151608085015260a081015160a085015260c081015160c085015260e081015160e085015261010081015161010085015261012081015161012085015261014081015161014085015201519081151582036102bf575061016082015290565b634e487b7160e01b83526041600452602483fd5b60405190611352604083610de3565b601982527856616c696461746f722041646472657373204d617070696e6760381b6020830152565b611382610e3b565b506000805460405163d2d49c4b60e01b81526001600160a01b0390911692909182600481865afa9182156102ca5760009261173b575b5060009260005b8351811015611697576113d28185611243565b516001600160a01b03811695861561168c576113ed90611257565b956040519063b83f5b3960e01b8252600482015261018081602481875afa9081156102ca5760009161165d575b5060a0810151159081611650575b81611643575b81611635575b5061144457506001905b016113bf565b94505050905060409081519261145a8385610de3565b601084526f181899199a1a9b1b9c1cb0b131b232b360811b60208501528251906bffffffffffffffffffffffff199060601b166020820152601481526114a1603482610de3565b80518060011b9080820460021490151715610e695760020180600211610e69576114ca906129f6565b9182511561119a5760208301936030855383516001101561119a576078602185015360005b83518110156115af576001600160f81b031961151e60ff600f6115128589612a28565b5160fc1c161689612a28565b51168160011b9082820460021483151715610e6957816002019081600211610e695761154e9060001a9188612a28565b536001600160f81b0319611572600f6115678589612a28565b5160f81c168a612a28565b5116600091600301918260031161159b576001939291611594911a9188612a28565b53016114ef565b634e487b7160e01b81526011600452602490fd5b509150935061161460446001936116039584519687927f496e636f6e73697374656e74206d617070696e6720666f722076616c69646174602085015263037b91d160e51b8785015251809285850190610d49565b81010301601f198101855284610de3565b80519261162084610dc8565b611628611343565b8452602084015282015290565b610100915001511538611434565b60c081015115915061142e565b60e0810151159150611428565b61167f91506101803d8111611685575b6116778183610de3565b810190611266565b3861141a565b503d61166d565b95505060019061143e565b5050916116a49150612a39565b61171560226028604051809467021b432b1b5b2b2160c51b60208301526116d48151809260208686019101610d49565b81017f2076616c696461746f7273202d20616c6c20636f72726563746c79206d6170708382015261195960f21b604882015203016002810184520182610de3565b6040519061172282610dc8565b61172a611343565b825260208201526000604082015290565b6117599192503d806000833e6117518183610de3565b81019061110c565b90386113b8565b611768610e3b565b50611778600954600c5490610e5c565b61179f61178a600754600a5490610e5c565b611799600854600b5490610e5c565b90610e5c565b602d8183119283926117ba670de0b6b3a76400008304612a39565b91611850600460266117d5670de0b6b3a76400008604612a39565b60405197889160208301986c02bb4ba34323930bbb0b6399d1609d1b8a526118068151809260208688019101610d49565b83017f204554482c204d617820416c6c6f77656420284465706f736974732b5265776183820152650393239949d160d51b604d820152610fe3825180936020605385019101610d49565b83956118a2575b505050506040519161186883610dc8565b60409081516118778382610de3565b601181527015da5d1a191c985dd85b1cc8131a5b5a5d607a1b60208201528452602084015282015290565b6118c9949550926020600493611081670de0b6b3a764000061107b600a966118f099610e7f565b8301690161022bc31b2b9b99d160b51b838201526110b98251809385602a85019101610d49565b9038808080611857565b602081830312610203578051906001600160401b03821161020357019080601f8301121561020357815161192d816110e1565b9261193b6040519485610de3565b81845260208085019260051b82010192831161020357602001905b8282106119635750505090565b8151815260209182019101611956565b61197b610e3b565b506000805460405163d2d49c4b60e01b815292916001600160a01b039091169083600481845afa9283156102ca57600093611b36575b506000600491604051928380926315aef06f60e11b82525afa9081156102ca57600091611b13575b5060009060005b8451811015611a39576001600160a01b036119fb8287611243565b5116151580611a26575b611a12575b6001016119e0565b91611a1e600191611257565b929050611a0a565b50611a318183611243565b511515611a05565b5050611a46919250612a39565b611aca60396024604051809463020b636160e51b6020830152611a728151809260208686019101610d49565b81017f206163746976652076616c696461746f7273202877697468207765696768742083820152780f880c0a481a185d99481c1bdcda5d1a5d99481dd95a59da1d603a1b604482015203016019810184520182610de3565b600060405191611ad983610dc8565b6040908151611ae88382610de3565b601181527056616c696461746f72205765696768747360781b60208201528452602084015282015290565b611b3091503d806000833e611b288183610de3565b8101906118fa565b386119d9565b6004919350611b506000913d8084833e6117518183610de3565b9391506119b1565b60405190611b67604083610de3565b600f82526e10db185a5b481d9cc810dbdb5b5a5d608a1b6020830152565b611b8d610e3b565b506000805460405163d2d49c4b60e01b8152916001600160a01b039091169082600481845afa9182156102ca57600092611dbb575b506000805b8351811015611d28576001600160a01b03611be28286611243565b511615611d20576001600160a01b03611bfb8286611243565b5160405163b83f5b3960e01b81529116600482015261018081602481875afa9081156102ca57600091611d01575b5060c081018051611cf1575b610100820151611cdd575b60a09051910151908160011b9180830460021490151715610e695711611c6a576001905b01611bc7565b50505050604051611c7a81610dc8565b611c82611b58565b8152604051611c92606082610de3565b602981527f56616c696461746f7220636c61696d206578636565647320726561736f6e61626020820152686c6520626f756e647360b81b604082015260208201526001604082015290565b92611ce960a091611257565b939050611c40565b92611cfb90611257565b92611c35565b611d1a91506101803d8111611685576116778183610de3565b38611c29565b600190611c64565b509050611d359150612a39565b611da660226028604051809467021b432b1b5b2b2160c51b6020830152611d658151809260208686019101610d49565b81017f20636c61696d73202d20616c6c2077697468696e20636f6d6d697420626f756e8382015261647360f01b604882015203016002810184520182610de3565b60405190611db382610dc8565b61172a611b58565b611dd19192503d806000833e6117518183610de3565b9038611bc2565b611de0610e3b565b50600054604051634c12b33f60e01b81526001600160a01b0390911690602081600481855afa9081156102ca57600091612253575b5060405163900cf0cf60e01b815290602082600481865afa9182156102ca5760009261221f575b5060405163fafebac560e01b815261016081600481875afa9283156102ca576000916000946121f0575b506040516396be02a760e01b815261016081600481895afa9485156102ca576000916000966121b1575b5060009560009460009480612100575b5050505050831591821595866000146120f857604051633c839f3760e11b815260048101879052602081602481855afa9081156102ca576000916120c6575b50905b87156120bd57602060249160405192838092633b0da62360e01b82528b60048301525afa9081156102ca5760009161208b575b50915b600096611f258582610e5c565b611f3885611f338686610e5c565b610e5c565b10612064575b505050506000949161205a575b50612027575b60046010611f76670de0b6b3a7640000611f6f81611fd99604612a39565b9504612a39565b9360306040519586926f020b1ba3ab0b610313ab93734b7339d160851b6020850152611fab8151809260208688019101610d49565b83016f01022aa24161022bc3832b1ba32b21d160851b838201526110b9825180936020604085019101610d49565b60405191611fe683610dc8565b6040918251611ff58482610de3565b60158152744275726e696e6720466f726d756c6120436865636b60581b60208201528452602084015215159082015290565b9150611fd960046010611f76670de0b6b3a7640000611f6f818061204b898b6129d8565b11989650505050505050611f51565b9050151538611f4b565b84975061207c929161207c6120819661207c93610e5c565b610e7f565b9238808080611f3e565b90506020813d6020116120b5575b816120a660209383610de3565b81010312610203575138611f15565b3d9150612099565b50600091611f18565b90506020813d6020116120f0575b816120e160209383610de3565b81010312610203575138611edf565b3d91506120d4565b600090611ee2565b9193955091935060005b81811061213f57506001161593841561213857505b921561213157505b3880808080611ea0565b9050612127565b905061211f565b9660405163019f89f560e01b81528860048201526020816024818d5afa9081156102ca5760009161217f575b5061217890600192610e5c565b970161210a565b906020823d82116121a9575b8161219860209383610de3565b810103126102bf575051600161216b565b3d915061218b565b9095506121d691506101603d81116121e9575b6121ce8183610de3565b810190612af3565b9950505095505050505050909438611e90565b503d6121c4565b90935061220c91506101603d81116121e9576121ce8183610de3565b9950505095505050505050909238611e66565b90916020823d60201161224b575b8161223a60209383610de3565b810103126102bf5750519038611e3c565b3d915061222d565b906020823d60201161227d575b8161226d60209383610de3565b810103126102bf57505138611e15565b3d9150612260565b61228d610e3b565b50600054604051634c12b33f60e01b815290602090829060049082906001600160a01b03165afa9081156102ca576000916123f8575b506011546b0d92289838d21a99680000000190816b0d92289838d21a996800000011610e69576122f291610e7f565b600e5490612309670de0b6b3a76400008204612a39565b906123ab60046015612324670de0b6b3a76400008704612a39565b94603160405196879270026b0bc1031b4b931bab630ba34b7b71d1607d1b602085015261235a8151809260208688019101610d49565b83017401022aa24161021bab93932b73a1039ba30b5b29d1605d1b8382015261238d825180936020604685019101610d49565b0101630408aa8960e31b838201520301601b19810185520183610de3565b604051926123b884610dc8565b60409283516123c78582610de3565b60158152742a37ba30b61023a2a71021b4b931bab630ba34b7b760591b602082015285526020850152119082015290565b90506020813d602011612422575b8161241360209383610de3565b810103126102035751386122c3565b3d9150612406565b612432610e3b565b50612442600854600b5490610e5c565b612451600754600a5490610e5c565b600a810290808204600a1490151715610e69578082119182612541575b6004601661248c670de0b6b3a7640000611f6f816124f49604612a39565b93602f6040519586926e02a37ba30b6103932bbb0b932399d1608d1b60208501526124c08151809260208688019101610d49565b83017501022aa24161026b0bc103932b0b9b7b730b136329d160551b838201526110b9825180936020604585019101610d49565b6040519161250183610dc8565b60409182516125108482610de3565b6014815273496e666c6174696f6e204163636f756e74696e6760601b60208201528452602084015215159082015290565b811515925061246e565b6040519061255a604083610de3565b601582527429b430b932b996a9ba30b5b2902932b630ba34b7b760591b6020830152565b612586610e3b565b506000805460405163d2d49c4b60e01b8152916001600160a01b039091169082600481845afa9182156102ca57600092612841575b5060008060005b845181101561276e576001600160a01b036125dd8287611243565b51166125ec575b6001016125c2565b6001600160a01b036125fe8287611243565b5160405163b83f5b3960e01b81529116600482015261018081602481885afa9081156102ca5760009161274f575b5060c08101516126ce575b610100810151612648575b506125e4565b9261265460e091611257565b930151156126625738612642565b505050505060405161267381610dc8565b61267b61254b565b815260405161268b606082610de3565b602181527f44656c656761746f72206861732073686172657320627574206e6f207374616b6020820152606560f81b604082015260208201526001604082015290565b916126d890611257565b9160a0810151612637575050505050506040516126f481610dc8565b6126fc61254b565b815260405161270c606082610de3565b602181527f56616c696461746f72206861732073686172657320627574206e6f207374616b6020820152606560f81b604082015260208201526001604082015290565b61276891506101803d8111611685576116778183610de3565b3861262c565b50602591935061282c925061278d612787601092612a39565b94612a39565b93602860405195869267021b432b1b5b2b2160c51b60208501526127ba8151809260208688019101610d49565b83016f0103b30b634b230ba37b9399030b732160851b838201526127e8825180936020603885019101610d49565b01017f2064656c656761746f7220706f736974696f6e73202d20616c6c20636f6e736983820152641cdd195b9d60da1b603082015203016005810184520182610de3565b6040519061283982610dc8565b61172a61254b565b6128579192503d806000833e6117518183610de3565b90386125bb565b612866610e3b565b506000805460405163d2d49c4b60e01b8152916001600160a01b039091169082600481845afa9081156102ca576004926000926129b9575b50600090604051938480926315aef06f60e11b82525afa9182156102ca5760009261299c575b505161294e600b6128e36128dc855185141594612a39565b9451612a39565b93602c6040519586926b02b30b634b230ba37b9399d160a51b60208501526129148151809260208688019101610d49565b83016a016102bb2b4b3b43a399d160ad1b8382015261293d825180936020603785019101610d49565b01010301601f198101845283610de3565b6040519161295b83610dc8565b604090815161296a8382610de3565b60188152774172726179204c656e67746820436f6e73697374656e637960401b60208201528452602084015282015290565b6129b29192503d806000833e611b288183610de3565b90386128c4565b60009192506129d1903d8084833e6117518183610de3565b919061289e565b818111156129ed57906129ea91610e7f565b90565b6129ea91610e7f565b90612a0082610e8c565b612a0d6040519182610de3565b8281528092612a1e601f1991610e8c565b0190602036910137565b90815181101561119a570160200190565b8015612ad35780816000925b612abf575080612a54836129f6565b92915b612a6057505090565b6000198201918211610e695781600a820491600a830290838204600a1484151715610e695760ff91612a9191610e7f565b1660300160ff8111610e695760f81b6001600160f81b03191660001a90612ab89085612a28565b5380612a57565b91612acb600a91611257565b920480612a45565b50604051612ae2604082610de3565b60018152600360fc1b602082015290565b90816101609103126102035780519160208201519160408101519160608201519160808101519160a08201519160c08101519160e082015191610100810151916101406101208301519201519056fea264697066735822122019d5171ea6cc0f88815e1d918cdc051e8382cb112348fa081f00703125a5126164736f6c634300081c0033",
  "linkReferences": {},
  "deployedLinkReferences": {}
}