{
  "_format": "hh-sol-artifact-1",
  "contractName": "MockIdlenessForRounds",
  "sourceName": "contracts/mocks/MocksForRounds.sol",
  "abi": [
    {
      "inputs": [
        {
          "internalType": "bytes32",
          "name": "txId",
          "type": "bytes32"
        },
        {
          "internalType": "address",
          "name": "validator",
          "type": "address"
        }
      ],
      "name": "addToCommittedValidators",
      "outputs": [],
      "stateMutability": "nonpayable",
      "type": "function"
    },
    {
      "inputs": [],
      "name": "addToCommittedValidatorsCalled",
      "outputs": [
        {
          "internalType": "bool",
          "name": "",
          "type": "bool"
        }
      ],
      "stateMutability": "view",
      "type": "function"
    },
    {
      "inputs": [
        {
          "internalType": "bytes32",
          "name": "txId",
          "type": "bytes32"
        },
        {
          "internalType": "address",
          "name": "validator",
          "type": "address"
        }
      ],
      "name": "addToConsumedValidators",
      "outputs": [],
      "stateMutability": "nonpayable",
      "type": "function"
    },
    {
      "inputs": [],
      "name": "addToConsumedValidatorsCalled",
      "outputs": [
        {
          "internalType": "bool",
          "name": "",
          "type": "bool"
        }
      ],
      "stateMutability": "view",
      "type": "function"
    },
    {
      "inputs": [
        {
          "internalType": "bytes32",
          "name": "",
          "type": "bytes32"
        },
        {
          "internalType": "uint256",
          "name": "",
          "type": "uint256"
        }
      ],
      "name": "committedValidators",
      "outputs": [
        {
          "internalType": "address",
          "name": "",
          "type": "address"
        }
      ],
      "stateMutability": "view",
      "type": "function"
    },
    {
      "inputs": [
        {
          "internalType": "bytes32",
          "name": "",
          "type": "bytes32"
        },
        {
          "internalType": "uint256",
          "name": "",
          "type": "uint256"
        }
      ],
      "name": "consumedValidators",
      "outputs": [
        {
          "internalType": "address",
          "name": "",
          "type": "address"
        }
      ],
      "stateMutability": "view",
      "type": "function"
    },
    {
      "inputs": [
        {
          "internalType": "bytes32",
          "name": "txId",
          "type": "bytes32"
        }
      ],
      "name": "getCommittedValidators",
      "outputs": [
        {
          "internalType": "address[]",
          "name": "",
          "type": "address[]"
        }
      ],
      "stateMutability": "view",
      "type": "function"
    },
    {
      "inputs": [
        {
          "internalType": "bytes32",
          "name": "txId",
          "type": "bytes32"
        }
      ],
      "name": "getConsumedValidators",
      "outputs": [
        {
          "internalType": "address[]",
          "name": "",
          "type": "address[]"
        }
      ],
      "stateMutability": "view",
      "type": "function"
    },
    {
      "inputs": [
        {
          "internalType": "bytes32",
          "name": "txId",
          "type": "bytes32"
        }
      ],
      "name": "getTimestamps",
      "outputs": [
        {
          "components": [
            {
              "internalType": "uint256",
              "name": "created",
              "type": "uint256"
            },
            {
              "internalType": "uint256",
              "name": "pending",
              "type": "uint256"
            },
            {
              "internalType": "uint256",
              "name": "activated",
              "type": "uint256"
            },
            {
              "internalType": "uint256",
              "name": "proposed",
              "type": "uint256"
            },
            {
              "internalType": "uint256",
              "name": "committed",
              "type": "uint256"
            },
            {
              "internalType": "uint256",
              "name": "lastVote",
              "type": "uint256"
            },
            {
              "internalType": "uint256",
              "name": "appealSubmitted",
              "type": "uint256"
            },
            {
              "internalType": "uint256",
              "name": "leaderRevealed",
              "type": "uint256"
            }
          ],
          "internalType": "struct IIdleness.Timestamps",
          "name": "",
          "type": "tuple"
        }
      ],
      "stateMutability": "view",
      "type": "function"
    },
    {
      "inputs": [],
      "name": "lastAddToCommittedTxId",
      "outputs": [
        {
          "internalType": "bytes32",
          "name": "",
          "type": "bytes32"
        }
      ],
      "stateMutability": "view",
      "type": "function"
    },
    {
      "inputs": [],
      "name": "lastAddToCommittedValidator",
      "outputs": [
        {
          "internalType": "address",
          "name": "",
          "type": "address"
        }
      ],
      "stateMutability": "view",
      "type": "function"
    },
    {
      "inputs": [],
      "name": "lastAddToConsumedTxId",
      "outputs": [
        {
          "internalType": "bytes32",
          "name": "",
          "type": "bytes32"
        }
      ],
      "stateMutability": "view",
      "type": "function"
    },
    {
      "inputs": [],
      "name": "lastAddToConsumedValidator",
      "outputs": [
        {
          "internalType": "address",
          "name": "",
          "type": "address"
        }
      ],
      "stateMutability": "view",
      "type": "function"
    },
    {
      "inputs": [],
      "name": "lastSlashTxId",
      "outputs": [
        {
          "internalType": "bytes32",
          "name": "",
          "type": "bytes32"
        }
      ],
      "stateMutability": "view",
      "type": "function"
    },
    {
      "inputs": [
        {
          "internalType": "uint256",
          "name": "",
          "type": "uint256"
        }
      ],
      "name": "lastSlashedValidators",
      "outputs": [
        {
          "internalType": "address",
          "name": "",
          "type": "address"
        }
      ],
      "stateMutability": "view",
      "type": "function"
    },
    {
      "inputs": [],
      "name": "lastUpdateCommittedTxId",
      "outputs": [
        {
          "internalType": "bytes32",
          "name": "",
          "type": "bytes32"
        }
      ],
      "stateMutability": "view",
      "type": "function"
    },
    {
      "inputs": [],
      "name": "lastUpdateConsumedTxId",
      "outputs": [
        {
          "internalType": "bytes32",
          "name": "",
          "type": "bytes32"
        }
      ],
      "stateMutability": "view",
      "type": "function"
    },
    {
      "inputs": [
        {
          "internalType": "uint256",
          "name": "",
          "type": "uint256"
        }
      ],
      "name": "lastUpdateConsumedValidators",
      "outputs": [
        {
          "internalType": "address",
          "name": "",
          "type": "address"
        }
      ],
      "stateMutability": "view",
      "type": "function"
    },
    {
      "inputs": [],
      "name": "resetTracking",
      "outputs": [],
      "stateMutability": "nonpayable",
      "type": "function"
    },
    {
      "inputs": [
        {
          "internalType": "bytes32",
          "name": "txId",
          "type": "bytes32"
        },
        {
          "internalType": "address[]",
          "name": "validators",
          "type": "address[]"
        }
      ],
      "name": "setMockConsumedValidators",
      "outputs": [],
      "stateMutability": "nonpayable",
      "type": "function"
    },
    {
      "inputs": [
        {
          "internalType": "bytes32",
          "name": "txId",
          "type": "bytes32"
        },
        {
          "components": [
            {
              "internalType": "uint256",
              "name": "created",
              "type": "uint256"
            },
            {
              "internalType": "uint256",
              "name": "pending",
              "type": "uint256"
            },
            {
              "internalType": "uint256",
              "name": "activated",
              "type": "uint256"
            },
            {
              "internalType": "uint256",
              "name": "proposed",
              "type": "uint256"
            },
            {
              "internalType": "uint256",
              "name": "committed",
              "type": "uint256"
            },
            {
              "internalType": "uint256",
              "name": "lastVote",
              "type": "uint256"
            },
            {
              "internalType": "uint256",
              "name": "appealSubmitted",
              "type": "uint256"
            },
            {
              "internalType": "uint256",
              "name": "leaderRevealed",
              "type": "uint256"
            }
          ],
          "internalType": "struct IIdleness.Timestamps",
          "name": "ts",
          "type": "tuple"
        }
      ],
      "name": "setMockTimestamps",
      "outputs": [],
      "stateMutability": "nonpayable",
      "type": "function"
    },
    {
      "inputs": [],
      "name": "slashNonRevealedCalled",
      "outputs": [
        {
          "internalType": "bool",
          "name": "",
          "type": "bool"
        }
      ],
      "stateMutability": "view",
      "type": "function"
    },
    {
      "inputs": [
        {
          "internalType": "bytes32",
          "name": "txId",
          "type": "bytes32"
        },
        {
          "internalType": "address[]",
          "name": "validators",
          "type": "address[]"
        }
      ],
      "name": "slashNonRevealedValidators",
      "outputs": [],
      "stateMutability": "nonpayable",
      "type": "function"
    },
    {
      "inputs": [
        {
          "internalType": "bytes32",
          "name": "",
          "type": "bytes32"
        }
      ],
      "name": "timestamps",
      "outputs": [
        {
          "internalType": "uint256",
          "name": "created",
          "type": "uint256"
        },
        {
          "internalType": "uint256",
          "name": "pending",
          "type": "uint256"
        },
        {
          "internalType": "uint256",
          "name": "activated",
          "type": "uint256"
        },
        {
          "internalType": "uint256",
          "name": "proposed",
          "type": "uint256"
        },
        {
          "internalType": "uint256",
          "name": "committed",
          "type": "uint256"
        },
        {
          "internalType": "uint256",
          "name": "lastVote",
          "type": "uint256"
        },
        {
          "internalType": "uint256",
          "name": "appealSubmitted",
          "type": "uint256"
        },
        {
          "internalType": "uint256",
          "name": "leaderRevealed",
          "type": "uint256"
        }
      ],
      "stateMutability": "view",
      "type": "function"
    },
    {
      "inputs": [
        {
          "internalType": "bytes32",
          "name": "txId",
          "type": "bytes32"
        },
        {
          "internalType": "address[]",
          "name": "validators",
          "type": "address[]"
        }
      ],
      "name": "updateCommittedValidators",
      "outputs": [],
      "stateMutability": "nonpayable",
      "type": "function"
    },
    {
      "inputs": [],
      "name": "updateCommittedValidatorsCalled",
      "outputs": [
        {
          "internalType": "bool",
          "name": "",
          "type": "bool"
        }
      ],
      "stateMutability": "view",
      "type": "function"
    },
    {
      "inputs": [
        {
          "internalType": "bytes32",
          "name": "txId",
          "type": "bytes32"
        },
        {
          "internalType": "address[]",
          "name": "validators",
          "type": "address[]"
        }
      ],
      "name": "updateConsumedValidators",
      "outputs": [],
      "stateMutability": "nonpayable",
      "type": "function"
    },
    {
      "inputs": [],
      "name": "updateConsumedValidatorsCalled",
      "outputs": [
        {
          "internalType": "bool",
          "name": "",
          "type": "bool"
        }
      ],
      "stateMutability": "view",
      "type": "function"
    }
  ],
  "bytecode": "0x60808060405234601557610ea2908161001b8239f35b600080fdfe608080604052600436101561001357600080fd5b60003560e01c9081630d50cd7f14610c8d5750806314d77d3314610c3f5780631f1ccec914610bd957806327bb24f214610b10578063293d959214610a195780632de68d80146109f657806337178925146109845780633921df0b146108c557806339a5d5381461080f5780634a245f94146107f15780634fe574f31461078f5780635537b6d11461062f57806355f194eb146106095780635d32da1b146105d8578063608b2efe146105b25780636cfac8f71461053057806370f60c20146105075780638a94d4e9146104e95780638c44029314610481578063a5f0c4b11461045e578063b5872958146103e5578063b9c5c50d146103c7578063bc97515314610288578063c8da39041461023e578063e78d634c1461021b578063e9ffdee1146101fd578063f5233c63146101815763f98b6c301461015357600080fd5b3461017c57600036600319011261017c576008546040516001600160a01b039091168152602090f35b600080fd5b3461017c57602036600319011261017c57600435600e5481101561017c57600090600e548110156101e957600e9091527fbb7b4a454dc3493923482f07822329ed19e8244eff582cc204f8554c3620c3fd01546040516001600160a01b039091168152602090f35b634e487b7160e01b82526032600452602482fd5b3461017c57600036600319011261017c576020600d54604051908152f35b3461017c57600036600319011261017c57602060ff600654166040519015158152f35b3461017c5761024c36610de7565b9060005260016020526040600020805482101561017c5760209161026f91610dfd565b905460405160039290921b1c6001600160a01b03168152f35b3461017c57604036600319011261017c576004356024356001600160401b03811161017c573660238201121561017c578060040135916001600160401b038311610399578260051b91604051936102e26020850186610cee565b845260208401602481948301019136831161017c57602401905b8282106103af57505050600052600060205260406000209151906001600160401b03821161039957600160401b8211610399578254828455808310610370575b509160005260206000209160005b82811061035357005b81516001600160a01b03168185015560209091019060010161034a565b8360005282602060002091820191015b81811061038d575061033c565b60008155600101610380565b634e487b7160e01b600052604160045260246000fd5b602080916103bc84610cbe565b8152019101906102fc565b3461017c57600036600319011261017c576020600b54604051908152f35b3461017c57602036600319011261017c5760043560005260026020526101006040600020805490600181015490600281015460038201546004830154906005840154926007600686015495015495604051978852602088015260408701526060860152608085015260a084015260c083015260e0820152f35b3461017c57600036600319011261017c57602060ff600c54166040519015158152f35b3461017c57602036600319011261017c5760043560055481101561017c576000906005548110156101e95760059091527f036b6384b5eca791c62761152d0c79bb0604c104a5fb6f4eb0703f3154bb3db001546040516001600160a01b039091168152602090f35b3461017c57600036600319011261017c576020600754604051908152f35b3461017c57600036600319011261017c57600a546040516001600160a01b039091168152602090f35b3461017c57602036600319011261017c576004356000526001602052604060002060405190816020825491828152019160005260206000209060005b8181106105935761058f8561058381870382610cee565b60405191829182610da4565b0390f35b82546001600160a01b031684526020909301926001928301920161056c565b3461017c57600036600319011261017c57602060ff60085460a01c166040519015158152f35b3461017c576105e636610de7565b9060005260006020526040600020805482101561017c5760209161026f91610dfd565b3461017c57600036600319011261017c57602060ff600a5460a01c166040519015158152f35b3461017c5761063d36610d0f565b90600160ff196003541617600355806004558151906001600160401b03821161039957600160401b82116103995760055482600555808310610749575b506020830191826005600052602060002060005b83811061072c5750505050600052600060205260406000209151906001600160401b03821161039957600160401b8211610399578254828455808310610703575b509160005260206000209160005b8281106106e657005b81516001600160a01b0316818501556020909101906001016106dd565b8360005282602060002091820191015b81811061072057506106cf565b60008155600101610713565b82516001600160a01b03168183015560209092019160010161068e565b60056000527f036b6384b5eca791c62761152d0c79bb0604c104a5fb6f4eb0703f3154bb3db09081019083015b818110610783575061067a565b60008155600101610776565b3461017c57604036600319011261017c576107ef6004356107ae610ca8565b6006805460ff191660011790556007829055600880546001600160a01b0319166001600160a01b038316179055600091825260208290526040909120610e2b565b005b3461017c57600036600319011261017c576020600954604051908152f35b3461017c5761012036600319011261017c5761010036602319011261017c5760405161083a81610cd2565b602435815260076020820160443581526040830160643581526060840160843581526080850160a435815260a086019160c435835260c087019360e435855260e0880195610104358752600435600052600260205260406000209851895551600189015551600288015551600387015551600486015551600585015551600684015551910155600080f35b3461017c576108d336610d0f565b600a805460ff60a01b1916600160a01b179055600b829055600091825260016020526040909120815190916001600160401b03821161039957600160401b821161039957825482845580831061095b575b506020019160005260206000209160005b82811061093e57005b81516001600160a01b031681850155602090910190600101610935565b8360005282602060002091820191015b8181106109785750610924565b6000815560010161096b565b3461017c57602036600319011261017c576004356000526000602052604060002060405190816020825491828152019160005260206000209060005b8181106109d75761058f8561058381870382610cee565b82546001600160a01b03168452602090930192600192830192016109c0565b3461017c57600036600319011261017c57602060ff600354166040519015158152f35b3461017c57602036600319011261017c57600060e0604051610a3a81610cd2565b8281528260208201528260408201528260608201528260808201528260a08201528260c0820152015260043560005260026020526101006040600020604051610a8281610cd2565b8154918282526001810154602083019081526002820154604084019081526003830154606085019081526004840154916080860192835260058501549360a0870194855260e0600760068801549760c08a01988952015497019687526040519788525160208801525160408701525160608601525160808501525160a08401525160c08301525160e0820152f35b3461017c57610b1e36610d0f565b90600160ff19600c541617600c55600d558051906001600160401b03821161039957600160401b821161039957600e5482600e55808310610b93575b5060200190600e60005260206000209160005b828110610b7657005b81516001600160a01b031681850155602090910190600101610b6d565b600e6000527fbb7b4a454dc3493923482f07822329ed19e8244eff582cc204f8554c3620c3fd9081019083015b818110610bcd5750610b5a565b60008155600101610bc0565b3461017c57604036600319011261017c576107ef600435610bf8610ca8565b6008805460ff60a01b1916600160a01b1790556009829055600a80546001600160a01b0319166001600160a01b038316179055600091825260016020526040909120610e2b565b3461017c57600036600319011261017c5760ff196003541660035560ff196006541660065560ff60a01b196008541660085560ff60a01b19600a5416600a5560ff19600c5416600c55600080f35b3461017c57600036600319011261017c576020906004548152f35b602435906001600160a01b038216820361017c57565b35906001600160a01b038216820361017c57565b61010081019081106001600160401b0382111761039957604052565b90601f801991011681019081106001600160401b0382111761039957604052565b90604060031983011261017c5760043591602435906001600160401b03821161017c578060238301121561017c578160040135916001600160401b038311610399578260051b9060405193610d676020840186610cee565b84526024602085019282010192831161017c57602401905b828210610d8c5750505090565b60208091610d9984610cbe565b815201910190610d7f565b602060408183019282815284518094520192019060005b818110610dc85750505090565b82516001600160a01b0316845260209384019390920191600101610dbb565b604090600319011261017c576004359060243590565b8054821015610e155760005260206000200190600090565b634e487b7160e01b600052603260045260246000fd5b8054600160401b81101561039957610e4891600182018155610dfd565b81546001600160a01b0393841660039290921b91821b9390911b191691909117905556fea264697066735822122019c5df6ac4fb7d6b7a40c527a4fe3bb47d6bdee9661d0bcc99edab242a19ad3864736f6c634300081c0033",
  "linkReferences": {},
  "deployedLinkReferences": {}
}