{
  "_format": "hh-sol-artifact-1",
  "contractName": "TransactionManager",
  "sourceName": "contracts/TransactionManager.sol",
  "abi": [
    {
      "inputs": [],
      "stateMutability": "nonpayable",
      "type": "constructor"
    },
    {
      "inputs": [],
      "name": "IndexOutOfBounds",
      "type": "error"
    },
    {
      "inputs": [],
      "name": "InvalidInitialization",
      "type": "error"
    },
    {
      "inputs": [],
      "name": "InvalidVersion",
      "type": "error"
    },
    {
      "inputs": [],
      "name": "NotInitializing",
      "type": "error"
    },
    {
      "inputs": [
        {
          "internalType": "address",
          "name": "owner",
          "type": "address"
        }
      ],
      "name": "OwnableInvalidOwner",
      "type": "error"
    },
    {
      "inputs": [
        {
          "internalType": "address",
          "name": "account",
          "type": "address"
        }
      ],
      "name": "OwnableUnauthorizedAccount",
      "type": "error"
    },
    {
      "inputs": [],
      "name": "TransactionNotTerminal",
      "type": "error"
    },
    {
      "inputs": [],
      "name": "Unauthorized",
      "type": "error"
    },
    {
      "anonymous": false,
      "inputs": [
        {
          "indexed": true,
          "internalType": "address",
          "name": "caller",
          "type": "address"
        },
        {
          "indexed": false,
          "internalType": "bool",
          "name": "authorized",
          "type": "bool"
        }
      ],
      "name": "AuthorizedCallerUpdated",
      "type": "event"
    },
    {
      "anonymous": false,
      "inputs": [
        {
          "indexed": false,
          "internalType": "uint64",
          "name": "version",
          "type": "uint64"
        }
      ],
      "name": "Initialized",
      "type": "event"
    },
    {
      "anonymous": false,
      "inputs": [
        {
          "indexed": true,
          "internalType": "address",
          "name": "previousOwner",
          "type": "address"
        },
        {
          "indexed": true,
          "internalType": "address",
          "name": "newOwner",
          "type": "address"
        }
      ],
      "name": "OwnershipTransferStarted",
      "type": "event"
    },
    {
      "anonymous": false,
      "inputs": [
        {
          "indexed": true,
          "internalType": "address",
          "name": "previousOwner",
          "type": "address"
        },
        {
          "indexed": true,
          "internalType": "address",
          "name": "newOwner",
          "type": "address"
        }
      ],
      "name": "OwnershipTransferred",
      "type": "event"
    },
    {
      "anonymous": false,
      "inputs": [
        {
          "indexed": true,
          "internalType": "bytes32",
          "name": "txId",
          "type": "bytes32"
        },
        {
          "indexed": true,
          "internalType": "address",
          "name": "sender",
          "type": "address"
        },
        {
          "indexed": true,
          "internalType": "address",
          "name": "recipient",
          "type": "address"
        }
      ],
      "name": "TransactionCreated",
      "type": "event"
    },
    {
      "anonymous": false,
      "inputs": [
        {
          "indexed": true,
          "internalType": "bytes32",
          "name": "txId",
          "type": "bytes32"
        },
        {
          "indexed": false,
          "internalType": "enum ITransactions.TransactionStatus",
          "name": "previousStatus",
          "type": "uint8"
        },
        {
          "indexed": false,
          "internalType": "enum ITransactions.TransactionStatus",
          "name": "newStatus",
          "type": "uint8"
        }
      ],
      "name": "TransactionStatusUpdated",
      "type": "event"
    },
    {
      "inputs": [],
      "name": "acceptOwnership",
      "outputs": [],
      "stateMutability": "nonpayable",
      "type": "function"
    },
    {
      "inputs": [
        {
          "internalType": "bytes32",
          "name": "txId",
          "type": "bytes32"
        },
        {
          "internalType": "uint256",
          "name": "activationBlock",
          "type": "uint256"
        },
        {
          "internalType": "uint256",
          "name": "processingBlock",
          "type": "uint256"
        },
        {
          "internalType": "uint256",
          "name": "proposalBlock",
          "type": "uint256"
        }
      ],
      "name": "addNewVersion",
      "outputs": [],
      "stateMutability": "nonpayable",
      "type": "function"
    },
    {
      "inputs": [
        {
          "internalType": "address",
          "name": "recipient",
          "type": "address"
        },
        {
          "internalType": "bytes32",
          "name": "txId",
          "type": "bytes32"
        }
      ],
      "name": "addSubsequentTxForRecomputation",
      "outputs": [],
      "stateMutability": "nonpayable",
      "type": "function"
    },
    {
      "inputs": [
        {
          "internalType": "uint256",
          "name": "epoch",
          "type": "uint256"
        },
        {
          "internalType": "bytes32",
          "name": "txId",
          "type": "bytes32"
        }
      ],
      "name": "addUnfinishedTransaction",
      "outputs": [],
      "stateMutability": "nonpayable",
      "type": "function"
    },
    {
      "inputs": [],
      "name": "addressManager",
      "outputs": [
        {
          "internalType": "contract IAddressManager",
          "name": "",
          "type": "address"
        }
      ],
      "stateMutability": "view",
      "type": "function"
    },
    {
      "inputs": [
        {
          "internalType": "address",
          "name": "",
          "type": "address"
        }
      ],
      "name": "authorizedCallers",
      "outputs": [
        {
          "internalType": "bool",
          "name": "",
          "type": "bool"
        }
      ],
      "stateMutability": "view",
      "type": "function"
    },
    {
      "inputs": [
        {
          "internalType": "bytes32",
          "name": "txId",
          "type": "bytes32"
        },
        {
          "components": [
            {
              "internalType": "enum ITransactions.ResultType",
              "name": "result",
              "type": "uint8"
            },
            {
              "internalType": "enum ITransactions.VoteType",
              "name": "txExecutionResult",
              "type": "uint8"
            },
            {
              "internalType": "enum ITransactions.TransactionStatus",
              "name": "previousStatus",
              "type": "uint8"
            },
            {
              "internalType": "enum ITransactions.TransactionStatus",
              "name": "status",
              "type": "uint8"
            },
            {
              "internalType": "address",
              "name": "txOrigin",
              "type": "address"
            },
            {
              "internalType": "address",
              "name": "sender",
              "type": "address"
            },
            {
              "internalType": "address",
              "name": "recipient",
              "type": "address"
            },
            {
              "internalType": "address",
              "name": "activator",
              "type": "address"
            },
            {
              "internalType": "uint256",
              "name": "txSlot",
              "type": "uint256"
            },
            {
              "internalType": "uint256",
              "name": "initialRotations",
              "type": "uint256"
            },
            {
              "internalType": "uint256",
              "name": "numOfInitialValidators",
              "type": "uint256"
            },
            {
              "internalType": "uint256",
              "name": "epoch",
              "type": "uint256"
            },
            {
              "internalType": "bytes32",
              "name": "id",
              "type": "bytes32"
            },
            {
              "internalType": "bytes32",
              "name": "randomSeed",
              "type": "bytes32"
            },
            {
              "internalType": "bytes32",
              "name": "txExecutionHash",
              "type": "bytes32"
            },
            {
              "internalType": "bytes32",
              "name": "resultHash",
              "type": "bytes32"
            },
            {
              "internalType": "bytes",
              "name": "txCalldata",
              "type": "bytes"
            },
            {
              "internalType": "bytes",
              "name": "eqBlocksOutputs",
              "type": "bytes"
            },
            {
              "components": [
                {
                  "internalType": "uint256",
                  "name": "activationBlock",
                  "type": "uint256"
                },
                {
                  "internalType": "uint256",
                  "name": "processingBlock",
                  "type": "uint256"
                },
                {
                  "internalType": "uint256",
                  "name": "proposalBlock",
                  "type": "uint256"
                }
              ],
              "internalType": "struct ITransactions.ReadStateBlockRange[]",
              "name": "readStateBlockRanges",
              "type": "tuple[]"
            },
            {
              "internalType": "uint256",
              "name": "validUntil",
              "type": "uint256"
            },
            {
              "internalType": "uint256",
              "name": "value",
              "type": "uint256"
            },
            {
              "internalType": "uint256",
              "name": "lockedStorageUnitPrice",
              "type": "uint256"
            },
            {
              "internalType": "uint256",
              "name": "storageFeeUsed",
              "type": "uint256"
            }
          ],
          "internalType": "struct ITransactions.Transaction",
          "name": "transaction",
          "type": "tuple"
        }
      ],
      "name": "createTransaction",
      "outputs": [],
      "stateMutability": "nonpayable",
      "type": "function"
    },
    {
      "inputs": [
        {
          "internalType": "bytes32",
          "name": "txId",
          "type": "bytes32"
        }
      ],
      "name": "exists",
      "outputs": [
        {
          "internalType": "bool",
          "name": "",
          "type": "bool"
        }
      ],
      "stateMutability": "view",
      "type": "function"
    },
    {
      "inputs": [
        {
          "internalType": "bytes32",
          "name": "txId",
          "type": "bytes32"
        }
      ],
      "name": "getActivator",
      "outputs": [
        {
          "internalType": "address",
          "name": "",
          "type": "address"
        }
      ],
      "stateMutability": "view",
      "type": "function"
    },
    {
      "inputs": [
        {
          "internalType": "bytes32",
          "name": "txId",
          "type": "bytes32"
        }
      ],
      "name": "getCurrentVersionIndex",
      "outputs": [
        {
          "internalType": "uint256",
          "name": "",
          "type": "uint256"
        }
      ],
      "stateMutability": "view",
      "type": "function"
    },
    {
      "inputs": [
        {
          "internalType": "bytes32",
          "name": "txId",
          "type": "bytes32"
        }
      ],
      "name": "getEpoch",
      "outputs": [
        {
          "internalType": "uint256",
          "name": "",
          "type": "uint256"
        }
      ],
      "stateMutability": "view",
      "type": "function"
    },
    {
      "inputs": [
        {
          "internalType": "bytes32",
          "name": "txId",
          "type": "bytes32"
        }
      ],
      "name": "getEqBlocksOutputs",
      "outputs": [
        {
          "internalType": "bytes",
          "name": "",
          "type": "bytes"
        }
      ],
      "stateMutability": "view",
      "type": "function"
    },
    {
      "inputs": [
        {
          "internalType": "bytes32",
          "name": "txId",
          "type": "bytes32"
        }
      ],
      "name": "getInitialRotations",
      "outputs": [
        {
          "internalType": "uint256",
          "name": "",
          "type": "uint256"
        }
      ],
      "stateMutability": "view",
      "type": "function"
    },
    {
      "inputs": [
        {
          "internalType": "bytes32",
          "name": "txId",
          "type": "bytes32"
        }
      ],
      "name": "getNumOfInitialValidators",
      "outputs": [
        {
          "internalType": "uint256",
          "name": "",
          "type": "uint256"
        }
      ],
      "stateMutability": "view",
      "type": "function"
    },
    {
      "inputs": [
        {
          "internalType": "uint256",
          "name": "_epoch",
          "type": "uint256"
        }
      ],
      "name": "getNumOfUnfinishedTransactions",
      "outputs": [
        {
          "internalType": "uint256",
          "name": "",
          "type": "uint256"
        }
      ],
      "stateMutability": "view",
      "type": "function"
    },
    {
      "inputs": [
        {
          "internalType": "bytes32",
          "name": "txId",
          "type": "bytes32"
        }
      ],
      "name": "getPreviousStatus",
      "outputs": [
        {
          "internalType": "enum ITransactions.TransactionStatus",
          "name": "",
          "type": "uint8"
        }
      ],
      "stateMutability": "view",
      "type": "function"
    },
    {
      "inputs": [
        {
          "internalType": "bytes32",
          "name": "txId",
          "type": "bytes32"
        }
      ],
      "name": "getRandomSeed",
      "outputs": [
        {
          "internalType": "bytes32",
          "name": "",
          "type": "bytes32"
        }
      ],
      "stateMutability": "view",
      "type": "function"
    },
    {
      "inputs": [
        {
          "internalType": "bytes32",
          "name": "txId",
          "type": "bytes32"
        }
      ],
      "name": "getReadStateBlockRanges",
      "outputs": [
        {
          "components": [
            {
              "internalType": "uint256",
              "name": "activationBlock",
              "type": "uint256"
            },
            {
              "internalType": "uint256",
              "name": "processingBlock",
              "type": "uint256"
            },
            {
              "internalType": "uint256",
              "name": "proposalBlock",
              "type": "uint256"
            }
          ],
          "internalType": "struct ITransactions.ReadStateBlockRange[]",
          "name": "",
          "type": "tuple[]"
        }
      ],
      "stateMutability": "view",
      "type": "function"
    },
    {
      "inputs": [
        {
          "internalType": "bytes32",
          "name": "txId",
          "type": "bytes32"
        }
      ],
      "name": "getRecipient",
      "outputs": [
        {
          "internalType": "address",
          "name": "",
          "type": "address"
        }
      ],
      "stateMutability": "view",
      "type": "function"
    },
    {
      "inputs": [
        {
          "internalType": "bytes32",
          "name": "txId",
          "type": "bytes32"
        }
      ],
      "name": "getResult",
      "outputs": [
        {
          "internalType": "enum ITransactions.ResultType",
          "name": "",
          "type": "uint8"
        }
      ],
      "stateMutability": "view",
      "type": "function"
    },
    {
      "inputs": [
        {
          "internalType": "bytes32",
          "name": "txId",
          "type": "bytes32"
        }
      ],
      "name": "getResultHash",
      "outputs": [
        {
          "internalType": "bytes32",
          "name": "",
          "type": "bytes32"
        }
      ],
      "stateMutability": "view",
      "type": "function"
    },
    {
      "inputs": [
        {
          "internalType": "bytes32",
          "name": "txId",
          "type": "bytes32"
        }
      ],
      "name": "getSender",
      "outputs": [
        {
          "internalType": "address",
          "name": "",
          "type": "address"
        }
      ],
      "stateMutability": "view",
      "type": "function"
    },
    {
      "inputs": [
        {
          "internalType": "bytes32",
          "name": "txId",
          "type": "bytes32"
        }
      ],
      "name": "getStatus",
      "outputs": [
        {
          "internalType": "enum ITransactions.TransactionStatus",
          "name": "",
          "type": "uint8"
        }
      ],
      "stateMutability": "view",
      "type": "function"
    },
    {
      "inputs": [
        {
          "internalType": "address",
          "name": "recipient",
          "type": "address"
        }
      ],
      "name": "getSubsequentTxsForRecomputation",
      "outputs": [
        {
          "internalType": "bytes32[]",
          "name": "",
          "type": "bytes32[]"
        }
      ],
      "stateMutability": "view",
      "type": "function"
    },
    {
      "inputs": [
        {
          "internalType": "address",
          "name": "recipient",
          "type": "address"
        }
      ],
      "name": "getSubsequentTxsForRecomputationCount",
      "outputs": [
        {
          "internalType": "uint256",
          "name": "",
          "type": "uint256"
        }
      ],
      "stateMutability": "view",
      "type": "function"
    },
    {
      "inputs": [
        {
          "internalType": "bytes32",
          "name": "txId",
          "type": "bytes32"
        }
      ],
      "name": "getTransaction",
      "outputs": [
        {
          "components": [
            {
              "internalType": "enum ITransactions.ResultType",
              "name": "result",
              "type": "uint8"
            },
            {
              "internalType": "enum ITransactions.VoteType",
              "name": "txExecutionResult",
              "type": "uint8"
            },
            {
              "internalType": "enum ITransactions.TransactionStatus",
              "name": "previousStatus",
              "type": "uint8"
            },
            {
              "internalType": "enum ITransactions.TransactionStatus",
              "name": "status",
              "type": "uint8"
            },
            {
              "internalType": "address",
              "name": "txOrigin",
              "type": "address"
            },
            {
              "internalType": "address",
              "name": "sender",
              "type": "address"
            },
            {
              "internalType": "address",
              "name": "recipient",
              "type": "address"
            },
            {
              "internalType": "address",
              "name": "activator",
              "type": "address"
            },
            {
              "internalType": "uint256",
              "name": "txSlot",
              "type": "uint256"
            },
            {
              "internalType": "uint256",
              "name": "initialRotations",
              "type": "uint256"
            },
            {
              "internalType": "uint256",
              "name": "numOfInitialValidators",
              "type": "uint256"
            },
            {
              "internalType": "uint256",
              "name": "epoch",
              "type": "uint256"
            },
            {
              "internalType": "bytes32",
              "name": "id",
              "type": "bytes32"
            },
            {
              "internalType": "bytes32",
              "name": "randomSeed",
              "type": "bytes32"
            },
            {
              "internalType": "bytes32",
              "name": "txExecutionHash",
              "type": "bytes32"
            },
            {
              "internalType": "bytes32",
              "name": "resultHash",
              "type": "bytes32"
            },
            {
              "internalType": "bytes",
              "name": "txCalldata",
              "type": "bytes"
            },
            {
              "internalType": "bytes",
              "name": "eqBlocksOutputs",
              "type": "bytes"
            },
            {
              "components": [
                {
                  "internalType": "uint256",
                  "name": "activationBlock",
                  "type": "uint256"
                },
                {
                  "internalType": "uint256",
                  "name": "processingBlock",
                  "type": "uint256"
                },
                {
                  "internalType": "uint256",
                  "name": "proposalBlock",
                  "type": "uint256"
                }
              ],
              "internalType": "struct ITransactions.ReadStateBlockRange[]",
              "name": "readStateBlockRanges",
              "type": "tuple[]"
            },
            {
              "internalType": "uint256",
              "name": "validUntil",
              "type": "uint256"
            },
            {
              "internalType": "uint256",
              "name": "value",
              "type": "uint256"
            },
            {
              "internalType": "uint256",
              "name": "lockedStorageUnitPrice",
              "type": "uint256"
            },
            {
              "internalType": "uint256",
              "name": "storageFeeUsed",
              "type": "uint256"
            }
          ],
          "internalType": "struct ITransactions.Transaction",
          "name": "",
          "type": "tuple"
        }
      ],
      "stateMutability": "view",
      "type": "function"
    },
    {
      "inputs": [
        {
          "internalType": "bytes32",
          "name": "txId",
          "type": "bytes32"
        }
      ],
      "name": "getTxCalldata",
      "outputs": [
        {
          "internalType": "bytes",
          "name": "",
          "type": "bytes"
        }
      ],
      "stateMutability": "view",
      "type": "function"
    },
    {
      "inputs": [
        {
          "internalType": "bytes32",
          "name": "txId",
          "type": "bytes32"
        }
      ],
      "name": "getTxExecutionHash",
      "outputs": [
        {
          "internalType": "bytes32",
          "name": "",
          "type": "bytes32"
        }
      ],
      "stateMutability": "view",
      "type": "function"
    },
    {
      "inputs": [
        {
          "internalType": "bytes32",
          "name": "txId",
          "type": "bytes32"
        }
      ],
      "name": "getTxExecutionResult",
      "outputs": [
        {
          "internalType": "enum ITransactions.VoteType",
          "name": "",
          "type": "uint8"
        }
      ],
      "stateMutability": "view",
      "type": "function"
    },
    {
      "inputs": [
        {
          "internalType": "bytes32",
          "name": "txId",
          "type": "bytes32"
        }
      ],
      "name": "getTxOrigin",
      "outputs": [
        {
          "internalType": "address",
          "name": "",
          "type": "address"
        }
      ],
      "stateMutability": "view",
      "type": "function"
    },
    {
      "inputs": [
        {
          "internalType": "bytes32",
          "name": "txId",
          "type": "bytes32"
        }
      ],
      "name": "getTxOriginForTxId",
      "outputs": [
        {
          "internalType": "address",
          "name": "",
          "type": "address"
        }
      ],
      "stateMutability": "view",
      "type": "function"
    },
    {
      "inputs": [
        {
          "internalType": "bytes32",
          "name": "txId",
          "type": "bytes32"
        }
      ],
      "name": "getTxSlot",
      "outputs": [
        {
          "internalType": "uint256",
          "name": "",
          "type": "uint256"
        }
      ],
      "stateMutability": "view",
      "type": "function"
    },
    {
      "inputs": [
        {
          "internalType": "uint256",
          "name": "epoch",
          "type": "uint256"
        }
      ],
      "name": "getUnfinishedTransactions",
      "outputs": [
        {
          "internalType": "bytes32[]",
          "name": "",
          "type": "bytes32[]"
        }
      ],
      "stateMutability": "view",
      "type": "function"
    },
    {
      "inputs": [
        {
          "internalType": "uint256",
          "name": "epoch",
          "type": "uint256"
        }
      ],
      "name": "getUnfinishedTransactionsCount",
      "outputs": [
        {
          "internalType": "uint256",
          "name": "",
          "type": "uint256"
        }
      ],
      "stateMutability": "view",
      "type": "function"
    },
    {
      "inputs": [
        {
          "internalType": "uint256",
          "name": "epoch",
          "type": "uint256"
        },
        {
          "internalType": "uint256",
          "name": "offset",
          "type": "uint256"
        },
        {
          "internalType": "uint256",
          "name": "limit",
          "type": "uint256"
        }
      ],
      "name": "getUnfinishedTransactionsPaginated",
      "outputs": [
        {
          "internalType": "bytes32[]",
          "name": "",
          "type": "bytes32[]"
        }
      ],
      "stateMutability": "view",
      "type": "function"
    },
    {
      "inputs": [
        {
          "internalType": "bytes32",
          "name": "txId",
          "type": "bytes32"
        }
      ],
      "name": "getValidUntil",
      "outputs": [
        {
          "internalType": "uint256",
          "name": "",
          "type": "uint256"
        }
      ],
      "stateMutability": "view",
      "type": "function"
    },
    {
      "inputs": [
        {
          "internalType": "bytes32",
          "name": "txId",
          "type": "bytes32"
        }
      ],
      "name": "getValue",
      "outputs": [
        {
          "internalType": "uint256",
          "name": "",
          "type": "uint256"
        }
      ],
      "stateMutability": "view",
      "type": "function"
    },
    {
      "inputs": [
        {
          "internalType": "bytes32",
          "name": "txId",
          "type": "bytes32"
        },
        {
          "internalType": "uint256",
          "name": "index",
          "type": "uint256"
        }
      ],
      "name": "getVersionByIndex",
      "outputs": [
        {
          "components": [
            {
              "internalType": "uint256",
              "name": "activationBlock",
              "type": "uint256"
            },
            {
              "internalType": "uint256",
              "name": "processingBlock",
              "type": "uint256"
            },
            {
              "internalType": "uint256",
              "name": "proposalBlock",
              "type": "uint256"
            }
          ],
          "internalType": "struct ITransactions.ReadStateBlockRange",
          "name": "",
          "type": "tuple"
        }
      ],
      "stateMutability": "view",
      "type": "function"
    },
    {
      "inputs": [
        {
          "internalType": "bytes32",
          "name": "txId",
          "type": "bytes32"
        }
      ],
      "name": "getVersionCount",
      "outputs": [
        {
          "internalType": "uint256",
          "name": "",
          "type": "uint256"
        }
      ],
      "stateMutability": "view",
      "type": "function"
    },
    {
      "inputs": [],
      "name": "initialize",
      "outputs": [],
      "stateMutability": "nonpayable",
      "type": "function"
    },
    {
      "inputs": [
        {
          "internalType": "bytes32",
          "name": "txId",
          "type": "bytes32"
        }
      ],
      "name": "isTransactionInRecomputation",
      "outputs": [
        {
          "internalType": "bool",
          "name": "",
          "type": "bool"
        }
      ],
      "stateMutability": "view",
      "type": "function"
    },
    {
      "inputs": [
        {
          "internalType": "uint256",
          "name": "epoch",
          "type": "uint256"
        },
        {
          "internalType": "bytes32",
          "name": "txId",
          "type": "bytes32"
        }
      ],
      "name": "operatorRemoveOrphan",
      "outputs": [],
      "stateMutability": "nonpayable",
      "type": "function"
    },
    {
      "inputs": [],
      "name": "owner",
      "outputs": [
        {
          "internalType": "address",
          "name": "",
          "type": "address"
        }
      ],
      "stateMutability": "view",
      "type": "function"
    },
    {
      "inputs": [],
      "name": "pendingOwner",
      "outputs": [
        {
          "internalType": "address",
          "name": "",
          "type": "address"
        }
      ],
      "stateMutability": "view",
      "type": "function"
    },
    {
      "inputs": [
        {
          "internalType": "address",
          "name": "recipient",
          "type": "address"
        }
      ],
      "name": "popFirstSubsequentTxForRecomputation",
      "outputs": [
        {
          "internalType": "bytes32",
          "name": "",
          "type": "bytes32"
        }
      ],
      "stateMutability": "nonpayable",
      "type": "function"
    },
    {
      "inputs": [
        {
          "internalType": "uint256",
          "name": "epoch",
          "type": "uint256"
        },
        {
          "internalType": "bytes32",
          "name": "txId",
          "type": "bytes32"
        }
      ],
      "name": "removeUnfinishedTransaction",
      "outputs": [],
      "stateMutability": "nonpayable",
      "type": "function"
    },
    {
      "inputs": [],
      "name": "renounceOwnership",
      "outputs": [],
      "stateMutability": "nonpayable",
      "type": "function"
    },
    {
      "inputs": [
        {
          "internalType": "bytes32",
          "name": "txId",
          "type": "bytes32"
        },
        {
          "internalType": "address",
          "name": "activator",
          "type": "address"
        }
      ],
      "name": "setActivator",
      "outputs": [],
      "stateMutability": "nonpayable",
      "type": "function"
    },
    {
      "inputs": [
        {
          "internalType": "address",
          "name": "_addressManager",
          "type": "address"
        }
      ],
      "name": "setAddressManager",
      "outputs": [],
      "stateMutability": "nonpayable",
      "type": "function"
    },
    {
      "inputs": [
        {
          "internalType": "address",
          "name": "caller",
          "type": "address"
        },
        {
          "internalType": "bool",
          "name": "authorized",
          "type": "bool"
        }
      ],
      "name": "setAuthorizedCaller",
      "outputs": [],
      "stateMutability": "nonpayable",
      "type": "function"
    },
    {
      "inputs": [
        {
          "internalType": "address[]",
          "name": "callers",
          "type": "address[]"
        },
        {
          "internalType": "bool",
          "name": "authorized",
          "type": "bool"
        }
      ],
      "name": "setAuthorizedCallers",
      "outputs": [],
      "stateMutability": "nonpayable",
      "type": "function"
    },
    {
      "inputs": [
        {
          "internalType": "bytes32",
          "name": "txId",
          "type": "bytes32"
        },
        {
          "internalType": "bytes",
          "name": "outputs",
          "type": "bytes"
        }
      ],
      "name": "setEqBlocksOutputs",
      "outputs": [],
      "stateMutability": "nonpayable",
      "type": "function"
    },
    {
      "inputs": [
        {
          "internalType": "bytes32",
          "name": "txId",
          "type": "bytes32"
        },
        {
          "internalType": "uint256",
          "name": "price",
          "type": "uint256"
        }
      ],
      "name": "setLockedStorageUnitPrice",
      "outputs": [],
      "stateMutability": "nonpayable",
      "type": "function"
    },
    {
      "inputs": [
        {
          "internalType": "bytes32",
          "name": "txId",
          "type": "bytes32"
        },
        {
          "internalType": "enum ITransactions.TransactionStatus",
          "name": "status",
          "type": "uint8"
        }
      ],
      "name": "setPreviousStatus",
      "outputs": [],
      "stateMutability": "nonpayable",
      "type": "function"
    },
    {
      "inputs": [
        {
          "internalType": "bytes32",
          "name": "txId",
          "type": "bytes32"
        },
        {
          "internalType": "bytes32",
          "name": "seed",
          "type": "bytes32"
        }
      ],
      "name": "setRandomSeed",
      "outputs": [],
      "stateMutability": "nonpayable",
      "type": "function"
    },
    {
      "inputs": [
        {
          "internalType": "bytes32",
          "name": "txId",
          "type": "bytes32"
        },
        {
          "internalType": "enum ITransactions.ResultType",
          "name": "result",
          "type": "uint8"
        }
      ],
      "name": "setResult",
      "outputs": [],
      "stateMutability": "nonpayable",
      "type": "function"
    },
    {
      "inputs": [
        {
          "internalType": "bytes32",
          "name": "txId",
          "type": "bytes32"
        },
        {
          "internalType": "bytes32",
          "name": "hash",
          "type": "bytes32"
        }
      ],
      "name": "setResultHash",
      "outputs": [],
      "stateMutability": "nonpayable",
      "type": "function"
    },
    {
      "inputs": [
        {
          "internalType": "bytes32",
          "name": "txId",
          "type": "bytes32"
        },
        {
          "internalType": "enum ITransactions.TransactionStatus",
          "name": "status",
          "type": "uint8"
        }
      ],
      "name": "setStatus",
      "outputs": [],
      "stateMutability": "nonpayable",
      "type": "function"
    },
    {
      "inputs": [
        {
          "internalType": "bytes32",
          "name": "txId",
          "type": "bytes32"
        },
        {
          "internalType": "enum ITransactions.TransactionStatus",
          "name": "newStatus",
          "type": "uint8"
        }
      ],
      "name": "setStatusWithPrevious",
      "outputs": [],
      "stateMutability": "nonpayable",
      "type": "function"
    },
    {
      "inputs": [
        {
          "internalType": "bytes32",
          "name": "txId",
          "type": "bytes32"
        },
        {
          "internalType": "uint256",
          "name": "fee",
          "type": "uint256"
        }
      ],
      "name": "setStorageFeeUsed",
      "outputs": [],
      "stateMutability": "nonpayable",
      "type": "function"
    },
    {
      "inputs": [
        {
          "internalType": "bytes32",
          "name": "_txId",
          "type": "bytes32"
        },
        {
          "internalType": "enum ITransactions.TransactionStatus",
          "name": "_status",
          "type": "uint8"
        },
        {
          "internalType": "enum ITransactions.TransactionStatus",
          "name": "_previousStatus",
          "type": "uint8"
        }
      ],
      "name": "setTransactionAppealStatus",
      "outputs": [],
      "stateMutability": "nonpayable",
      "type": "function"
    },
    {
      "inputs": [
        {
          "internalType": "bytes32",
          "name": "txId",
          "type": "bytes32"
        },
        {
          "internalType": "bool",
          "name": "value",
          "type": "bool"
        }
      ],
      "name": "setTransactionInRecomputation",
      "outputs": [],
      "stateMutability": "nonpayable",
      "type": "function"
    },
    {
      "inputs": [
        {
          "internalType": "bytes32",
          "name": "txId",
          "type": "bytes32"
        },
        {
          "internalType": "bytes32",
          "name": "hash",
          "type": "bytes32"
        }
      ],
      "name": "setTxExecutionHash",
      "outputs": [],
      "stateMutability": "nonpayable",
      "type": "function"
    },
    {
      "inputs": [
        {
          "internalType": "bytes32",
          "name": "txId",
          "type": "bytes32"
        },
        {
          "internalType": "enum ITransactions.VoteType",
          "name": "result",
          "type": "uint8"
        }
      ],
      "name": "setTxExecutionResult",
      "outputs": [],
      "stateMutability": "nonpayable",
      "type": "function"
    },
    {
      "inputs": [
        {
          "internalType": "address",
          "name": "newOwner",
          "type": "address"
        }
      ],
      "name": "transferOwnership",
      "outputs": [],
      "stateMutability": "nonpayable",
      "type": "function"
    },
    {
      "inputs": [
        {
          "internalType": "bytes32",
          "name": "txId",
          "type": "bytes32"
        },
        {
          "internalType": "uint256",
          "name": "activationBlock",
          "type": "uint256"
        },
        {
          "internalType": "uint256",
          "name": "processingBlock",
          "type": "uint256"
        },
        {
          "internalType": "uint256",
          "name": "proposalBlock",
          "type": "uint256"
        }
      ],
      "name": "updateCurrentVersion",
      "outputs": [],
      "stateMutability": "nonpayable",
      "type": "function"
    },
    {
      "inputs": [
        {
          "internalType": "bytes32",
          "name": "txId",
          "type": "bytes32"
        },
        {
          "internalType": "uint256",
          "name": "field",
          "type": "uint256"
        },
        {
          "internalType": "uint256",
          "name": "value",
          "type": "uint256"
        }
      ],
      "name": "updateCurrentVersionField",
      "outputs": [],
      "stateMutability": "nonpayable",
      "type": "function"
    }
  ],
  "bytecode": "0x6080806040523460d2577ff0c57e16840df040f15088dc2f81fe391c3923bec73e23a9662efc9c229c6a005460ff8160401c1660c1576002600160401b03196001600160401b03821601605c575b604051612d4490816100d88239f35b6001600160401b0319166001600160401b039081177ff0c57e16840df040f15088dc2f81fe391c3923bec73e23a9662efc9c229c6a005581527fc7f505b2f371ae2175ee4913f4499e1f2633a7b5936321eed1cdaeb6115181d290602090a13880604d565b63f92ee8a960e01b60005260046000fd5b600080fdfe608080604052600436101561001357600080fd5b60003560e01c90816303d2107f14612332575080630643ae5b146122025780630652b57a146121bf578063090263a7146120c55780631458f30d1461208a57806315fffa8d146120565780631dbf24f71461201a5780631e5b2dd31461205b578063265b2b56146120565780632b9f5e831461201f5780632bb849c31461201a5780632ebcdb6e14611feb578063343be44b14611f7857806334457a8c1461189e578063346378d81461186257806335a69b351461183357806338a699a4146117f55780633ab76e9f146117cc5780633c6f7b051461179d5780633e7c706b146116c45780633f743f0b14611677578063454bbd29146115f95780634aae13ca1461126d5780634f67ff34146111f6578063536fff6c146111b75780635556edb51461114957806359d1199a1461110d5780635de28ae0146110d65780636429e95714611093578063647cca551461103e57806364f0582314611007578063685876be14610f9e5780636984394014610f6f578063715018a614610eee57806372d4a98014610e685780637966c9ee14610e3957806379ba509714610de95780637e6d64a514610dba578063808595b414610d7e5780638129fc1c14610c145780638a2b04e714610bd95780638da5cb5b14610ba35780638de654ba14610b3e57806391f20d7614610b075780639ba0ae4914610ad85780639fee6dd614610aaa578063a035035d14610a7b578063a323c851146109de578063a8df7e90146109a2578063add4c7841461096e578063b88a631d1461093f578063b944e6f7146108ef578063bb3f19e5146108b5578063c4b87bb214610897578063dc0e124c1461084a578063de4920f41461081b578063de7187c5146107d8578063dfb3e12f146107a7578063e30c397814610771578063e681a9a3146106dd578063ed13af4014610643578063f296d67714610612578063f2fde38b1461058b578063f3d5a8171461054f578063fbc6da7514610518578063fc8ffab6146104d15763fd96d4601461030057600080fd5b346104cc5761030e366123a0565b6005546001600160a01b031680156103f45760206064916040519283809263bf40fac160e01b8252846004830152601160248301527046696e616c697a6174696f6e506861736560781b60448301525afa90811561047e5760009161048a575b506001600160a01b03168015908115610404575b506103f45780600052600060205260ff60406000205460181c16600f8110156103de57600781141590816103d2575b506103c1576103bf91612bd8565b005b630e9d204d60e11b60005260046000fd5b600891501415386103b1565b634e487b7160e01b600052602160045260246000fd5b6282b42960e81b60005260046000fd5b60405163fc57238360e01b81523360048201529150602090829060249082905afa90811561047e5760009161043c575b501538610382565b6020813d602011610476575b81610455602093836124ae565b81010312610472575190811515820361046f575038610434565b80fd5b5080fd5b3d9150610448565b6040513d6000823e3d90fd5b6020813d6020116104c4575b816104a3602093836124ae565b810103126104725751906001600160a01b038216820361046f57503861036e565b3d9150610496565b600080fd5b346104cc5760203660031901126104cc576004356000526000602052610514610500600d604060002001612729565b604051918291602083526020830190612418565b0390f35b346104cc5760203660031901126104cc576004356000526000602052602060018060a01b0360026040600020015416604051908152f35b346104cc5761055d366123a0565b9033600052600460205260ff60406000205416156103f4576000526000602052600a60406000200155600080f35b346104cc5760203660031901126104cc576105a4612367565b6105ac612b49565b600080516020612cef83398151915280546001600160a01b0319166001600160a01b03928316908117909155600080516020612c8f833981519152549091167f38d16b8cac22d99fc7c124b9cd0de2d3fa1faef420bfe791d8c362d765e22700600080a3005b346104cc5760603660031901126104cc57610514610637604435602435600435612a7c565b604051918291826125b5565b346104cc57610651366123a0565b60006040805161066081612477565b8281528260208201520152816000526000602052600e604060002001548110156106cc576106a36106a9916060936000526000602052600e6040600020016127cd565b506128a6565b6106ca60405180926040809180518452602081015160208501520151910152565bf35b634e23d03560e01b60005260046000fd5b346104cc576106eb366125ef565b33600052600460205260ff60406000205416156103f4576040600080516020612caf8339815191529183600052600060205261076e60ff836000205460181c16918560005260006020526107428385600020612856565b8560005260006020526107588185600020612877565b61076484518094612556565b6020830190612556565ba2005b346104cc5760003660031901126104cc57600080516020612cef833981519152546040516001600160a01b039091168152602090f35b346104cc5760203660031901126104cc576004356000526002602052602060ff604060002054166040519015158152f35b346104cc5760203660031901126104cc576107f1612367565b33600052600460205260ff60406000205416156103f457610813602091612992565b604051908152f35b346104cc5760203660031901126104cc5760043560005260006020526020600e60406000200154604051908152f35b346104cc5760403660031901126104cc5760243560058110156104cc5733600052600460205260ff60406000205416156103f4576103bf9060043560005260006020526040600020612837565b346104cc5760203660031901126104cc576020610813600435612927565b346104cc5760203660031901126104cc576001600160a01b036108d6612367565b1660005260036020526020604060002054604051908152f35b346104cc5760403660031901126104cc57610908612367565b33600052600460205260ff60406000205416156103f45760018060a01b031660005260036020526103bf60243560406000206126ec565b346104cc5760203660031901126104cc5760043560005260006020526020600460406000200154604051908152f35b346104cc5760203660031901126104cc576004356000526000602052602060ff604060002054166106ca604051809261253c565b346104cc576109b0366123a0565b9033600052600460205260ff60406000205416156103f4576000526000602052601260406000200155600080f35b346104cc576109ec36612459565b9233600052600460205260ff60406000205416156103f457806000526000602052600e604060002001549081156106cc576000198201918211610a65576103bf94610a5f9360405195610a3e87612477565b8652602086015260408501526000526000602052600e6040600020016127cd565b906127e9565b634e487b7160e01b600052601160045260246000fd5b346104cc5760203660031901126104cc5760043560005260006020526020600f60406000200154604051908152f35b346104cc57610ab8366123a0565b33600052600460205260ff60406000205416156103f4576103bf91612bd8565b346104cc5760203660031901126104cc5760043560005260006020526020600960406000200154604051908152f35b346104cc5760203660031901126104cc576004356000526000602052602060ff60406000205460101c166106ca6040518092612556565b346104cc57610b4c366125ef565b33600052600460205260ff60406000205416156103f4576040600080516020612caf8339815191529183600052600060205261076e60ff836000205460181c16918560005260006020526107588185600020612877565b346104cc5760003660031901126104cc57600080516020612c8f833981519152546040516001600160a01b039091168152602090f35b346104cc57610be7366125ef565b33600052600460205260ff60406000205416156103f4576103bf9160005260006020526040600020612856565b346104cc5760003660031901126104cc57600080516020612ccf8339815191525460ff8160401c1615906001600160401b03811680159081610d76575b6001149081610d6c575b159081610d63575b50610d525767ffffffffffffffff198116600117600080516020612ccf8339815191525581610d25575b50610c96612c60565b610c9e612c60565b610ca6612c60565b3315610d0f57610cb533612b6a565b610cbb57005b60ff60401b19600080516020612ccf8339815191525416600080516020612ccf833981519152557fc7f505b2f371ae2175ee4913f4499e1f2633a7b5936321eed1cdaeb6115181d2602060405160018152a1005b631e4fbdf760e01b600052600060045260246000fd5b68ffffffffffffffffff19166801000000000000000117600080516020612ccf8339815191525581610c8d565b63f92ee8a960e01b60005260046000fd5b90501583610c63565b303b159150610c5b565b839150610c51565b346104cc57610d8c366123a0565b9033600052600460205260ff60406000205416156103f4576000526000602052600960406000200155600080f35b346104cc5760203660031901126104cc5760043560005260006020526020600760406000200154604051908152f35b346104cc5760003660031901126104cc57600080516020612cef83398151915254336001600160a01b0390911603610e24576103bf33612b6a565b63118cdaa760e01b6000523360045260246000fd5b346104cc5760203660031901126104cc5760043560005260006020526020600a60406000200154604051908152f35b346104cc5760603660031901126104cc57600435602435600f8110156104cc5760443590600f8210156104cc5733600052600460205260ff60406000205416156103f457600080516020612caf8339815191529161076e604092856000526000602052610ed88185600020612877565b8560005260006020526107588385600020612856565b346104cc5760003660031901126104cc57610f07612b49565b600080516020612cef83398151915280546001600160a01b0319908116909155600080516020612c8f833981519152805491821690556000906001600160a01b03167f8be0079c531659141344cd1fd0a4f28419497f9722a3daafe3b4186f6b6457e08280a3005b346104cc5760203660031901126104cc5760043560005260006020526020601060406000200154604051908152f35b346104cc5760203660031901126104cc576004356000526001602052604060002060405190816020825491828152019160005260206000209060005b818110610ff15761051485610637818703826124ae565b8254845260209093019260019283019201610fda565b346104cc5760203660031901126104cc576004356000526000602052602060ff60406000205460081c166106ca6040518092612549565b346104cc5760403660031901126104cc57611057612391565b33600052600460205260ff60406000205416156103f4576103bf90600435600052600260205260406000209060ff801983541691151516179055565b346104cc5760203660031901126104cc5760043560005260006020526105146110c2600e6040600020016128ce565b604051918291602083526020830190612563565b346104cc5760203660031901126104cc576004356000526000602052602060ff60406000205460181c166106ca6040518092612556565b346104cc5761111b366123a0565b9033600052600460205260ff60406000205416156103f4576000526000602052600b60406000200155600080f35b346104cc5760403660031901126104cc576024356001600160a01b03811681036104cc5733600052600460205260ff60406000205416156103f457600435600090815260208190526040902060030180546001600160a01b0319166001600160a01b03909216919091179055005b346104cc5760203660031901126104cc576001600160a01b036111d8612367565b166000526004602052602060ff604060002054166040519015158152f35b346104cc5760203660031901126104cc576001600160a01b03611217612367565b166000526003602052604060002060405190816020825491828152019160005260206000209060005b8181106112575761051485610637818703826124ae565b8254845260209093019260019283019201611240565b346104cc5760203660031901126104cc5760006102c060405161128f81612492565b8281528260208201528260408201528260608201528260808201528260a08201528260c08201528260e08201528261010082015282610120820152826101408201528261016082015282610180820152826101a0820152826101c0820152826101e08201526060610200820152606061022082015260606102408201528261026082015282610280820152826102a08201520152600435600052600060205260406000206040519061134082612492565b80549060ff821660068110156103de57835260ff8260081c169160058310156103de57601292602085015261137e60ff8260101c166040860161289a565b61139160ff8260181c166060860161289a565b60201c6001600160a01b0390811660808501526001820154811660a08501526002820154811660c085015260038201541660e08401526004810154610100840152600581015461012084015260068101546101408401526007810154610160840152600881015461018084015260098101546101a0840152600a8101546101c0840152600b8101546101e084015261142b600c8201612729565b61020084015261143d600d8201612729565b61022084015261144f600e82016128ce565b610240840152600f810154610260840152601081015461028084015260118101546102a084015201546102c082015260405180916020825261149560208301825161253c565b6114a760208201516040840190612549565b6114b960408201516060840190612556565b6114cb60608201516080840190612556565b60018060a01b0360808201511660a083015260018060a01b0360a08201511660c083015260018060a01b0360c08201511660e083015260018060a01b0360e0820151166101008301526101008101516101208301526101208101516101408301526101408101516101608301526101608101516101808301526101808101516101a08301526101a08101516101c08301526101c08101516101e08301526101e08101516102008301526102c06115ca6115b261159a6102008501516102e0610220880152610300870190612418565b610220850151868203601f1901610240880152612418565b610240840151858203601f1901610260870152612563565b916102608101516102808501526102808101516102a08501526102a08101518285015201516102e08301520390f35b346104cc5760403660031901126104cc57611612612367565b7fad857fa38c9319cb80848f1ef2f924383b90297eb5d71755738ff037d100faa1602061163d612391565b92611646612b49565b6001600160a01b031660008181526004835260409020805460ff191660ff86151516179055926040519015158152a2005b346104cc5760403660031901126104cc5760243560068110156104cc5733600052600460205260ff60406000205416156103f4576103bf906004356000526000602052604060002061281f565b346104cc5760603660031901126104cc576004356024356044359133600052600460205260ff60406000205416156103f457806000526000602052600e604060002001549182156106cc576000198301928311610a65578061173f57509061173b916000526000602052600e6040600020016127cd565b5055005b600181036117695750600191611764916000526000602052600e6040600020016127cd565b500155005b60020361178c57600291611764916000526000602052600e6040600020016127cd565b63a9146eeb60e01b60005260046000fd5b346104cc5760203660031901126104cc5760043560005260006020526020600560406000200154604051908152f35b346104cc5760003660031901126104cc576005546040516001600160a01b039091168152602090f35b346104cc5760203660031901126104cc57600435600052600060205260ff60406000205460181c16600f8110156103de576020906040519015158152f35b346104cc5760203660031901126104cc5760043560005260006020526020600660406000200154604051908152f35b346104cc57611870366123a0565b9033600052600460205260ff60406000205416156103f4576000526000602052601160406000200155600080f35b346104cc5760403660031901126104cc576001600160401b03602435116104cc576102e0602435360360031901126104cc576040516118dc81612492565b6024356004013560068110156104cc57815260248035013560058110156104cc57602082015260446024350135600f8110156104cc57604082015260646024350135600f8110156104cc57606082015261193a60846024350161237d565b608082015261194d60a46024350161237d565b60a082015261196060c46024350161237d565b60c082015261197360e46024350161237d565b60e08201526024356101048101356101008301526101248101356101208301526101448101356101408301526101648101356101608301526101848101356101808301526101a48101356101a08301526101c48101356101c08301526101e48101356101e083015261020401356001600160401b0381116104cc57611a00906004369160243501016124cf565b61020082015261022460243501356001600160401b0381116104cc57611a2e906004369160243501016124cf565b61022082015261024460243501356001600160401b0381116104cc5736602382602435010112156104cc57611a6a600482602435010135612525565b90611a7860405192836124ae565b60046024803583019182013580855260208501939236606090920201909101116104cc5760248181350101915b602480358301600481013560600201018310611f36575050506102408201526024356102648101356102608301526102848101356102808301526102a48101356102a08301526102c401356102c08201523360009081526004602052604090205460ff16156103f45760043560005260006020526040600020815160068110156103de57611b33908261281f565b602082015160058110156103de57611b4b9082612837565b6040820151600f8110156103de57611b639082612856565b6060820151600f8110156103de57611b7b9082612877565b60808201518154640100000000600160c01b03191660209190911b640100000000600160c01b031617815560a08201516001820180546001600160a01b03199081166001600160a01b039384161790915560c0840151600284018054831691841691909117905560e08401516003840180549092169216919091179055610100820151600482015561012082015160058201556101408201516006820155610160820151600782015561018082015160088201556101a082015160098201556101c0820151600a8201556101e0820151600b8201556102008201518051909290600c8301906001600160401b038111611e4b57611c8281611c7c845461260e565b84612648565b602094601f8211600114611ed157611cb6929394958291600092611e61575b50508160011b916000199060031b1c19161790565b90555b600d8201916102208201519283516001600160401b038111611e4b57611ce381611c7c845461260e565b602094601f8211600114611e6c57611d16929394958291600092611e615750508160011b916000199060031b1c19161790565b90555b610240820151805190600e830190600160401b8311611e4b578154838355808410611df8575b506020019060005260206000206000915b838310611dc457610260860151600f86015561028086015160108601556102a086015160118601556102c0860151601286015560a086015160c08701516001600160a01b0390811691166004357f8da32500fbd0be8afe0905a3b7ea5f782f1d7d731e9fdaabea50d69f14e933ce600080a4005b6003602082611dec600194518690604060029180518455602081015160018501550151910155565b01920192019190611d50565b80600302906003820403610a655783600302600381048503610a655783600052602060002091820191015b818110611e305750611d3f565b60039060008155600060018201556000600282015501611e23565b634e487b7160e01b600052604160045260246000fd5b015190508680611ca1565b601f1982169583600052806000209160005b888110611eb957508360019596979810611ea0575b505050811b019055611d19565b015160001960f88460031b161c19169055858080611e93565b91926020600181928685015181550194019201611e7e565b601f1982169583600052806000209160005b888110611f1e57508360019596979810611f05575b505050811b019055611cb9565b015160001960f88460031b161c19169055858080611ef8565b91926020600181928685015181550194019201611ee3565b6060833603126104cc576004606060208093604051611f5481612477565b87358152828801358382015260408801356040820152815201940193915050611aa5565b346104cc57611f8636612459565b909233600052600460205260ff60406000205416156103f4576000526000602052600e6040600020019260405192611fbd84612477565b835260208301526040820152815491600160401b831015611e4b5782610a5f9160016103bf950181556127cd565b346104cc5760203660031901126104cc5760043560005260006020526020600b60406000200154604051908152f35b6123e2565b346104cc5760203660031901126104cc576004356000526000602052602060018060a01b0360036040600020015416604051908152f35b6123b6565b346104cc5760203660031901126104cc576004356000526000602052610514610500600c604060002001612729565b346104cc57612098366123a0565b33600052600460205260ff60406000205416156103f4576103bf91600052600160205260406000206126ec565b346104cc5760403660031901126104cc576004356001600160401b0381116104cc57366023820112156104cc5780600401356001600160401b0381116104cc576024820191602436918360051b0101116104cc57612121612391565b612129612b49565b8015159060005b83811061213957005b6001906001600160a01b0361215761215283888a61269a565b6126c0565b16600052600460205261217a8360406000209060ff801983541691151516179055565b818060a01b0361218e61215283888a61269a565b167fad857fa38c9319cb80848f1ef2f924383b90297eb5d71755738ff037d100faa16020604051878152a201612130565b346104cc5760203660031901126104cc576121d8612367565b6121e0612b49565b600580546001600160a01b0319166001600160a01b0392909216919091179055005b346104cc5760403660031901126104cc576024356001600160401b0381116104cc57366023820112156104cc5780600401356001600160401b0381116104cc5736602482840101116104cc5733600052600460205260ff60406000205416156103f4576004356000526000602052600d60406000200160009161228981611c7c845461260e565b82601f82116001146122cb57819084956122b89495926122bd5750508160011b916000199060031b1c19161790565b905580f35b602492500101358580611ca1565b601f198216948385526020852091855b8781106123175750836001959697106122fa575b505050811b01905580f35b0160240135600019600384901b60f8161c191690558480806122ef565b909260206001819260248787010135815501940191016122db565b346104cc5760203660031901126104cc57600435600090815260208181526040909120600101546001600160a01b0316825290f35b600435906001600160a01b03821682036104cc57565b35906001600160a01b03821682036104cc57565b6024359081151582036104cc57565b60409060031901126104cc576004359060243590565b346104cc5760203660031901126104cc5760043560005260016020526020604060002054604051908152f35b346104cc5760203660031901126104cc576004356000526000602052602060018060a01b03604060002054821c16604051908152f35b919082519283825260005b848110612444575050826000602080949584010152601f8019910116010190565b80602080928401015182828601015201612423565b60809060031901126104cc5760043590602435906044359060643590565b606081019081106001600160401b03821117611e4b57604052565b6102e081019081106001600160401b03821117611e4b57604052565b90601f801991011681019081106001600160401b03821117611e4b57604052565b81601f820112156104cc578035906001600160401b038211611e4b5760405192612503601f8401601f1916602001856124ae565b828452602083830101116104cc57816000926020809301838601378301015290565b6001600160401b038111611e4b5760051b60200190565b9060068210156103de5752565b9060058210156103de5752565b90600f8210156103de5752565b906020808351928381520192019060005b8181106125815750505090565b90919260206060826125aa60019488516040809180518452602081015160208501520151910152565b019401929101612574565b602060408183019282815284518094520192019060005b8181106125d95750505090565b82518452602093840193909201916001016125cc565b60409060031901126104cc5760043590602435600f8110156104cc5790565b90600182811c9216801561263e575b602083101461262857565b634e487b7160e01b600052602260045260246000fd5b91607f169161261d565b601f821161265557505050565b6000526020600020906020601f840160051c83019310612690575b601f0160051c01905b818110612684575050565b60008155600101612679565b9091508190612670565b91908110156126aa5760051b0190565b634e487b7160e01b600052603260045260246000fd5b356001600160a01b03811681036104cc5790565b80548210156126aa5760005260206000200190600090565b805490600160401b821015611e4b578161270e916001612725940181556126d4565b819391549060031b91821b91600019901b19161790565b9055565b906040519182600082549261273d8461260e565b80845293600181169081156127ab5750600114612764575b50612762925003836124ae565b565b90506000929192526020600020906000915b81831061278f5750509060206127629282010138612755565b6020919350806001915483858901015201910190918492612776565b90506020925061276294915060ff191682840152151560051b82010138612755565b80548210156126aa576000526003602060002091020190600090565b919061280957805182556020810151600183015560400151600290910155565b634e487b7160e01b600052600060045260246000fd5b9060068110156103de5760ff80198354169116179055565b9060058110156103de5761ff0082549160081b169061ff001916179055565b90600f8110156103de5762ff000082549160101b169062ff00001916179055565b90600f8110156103de5763ff00000082549160181b169063ff0000001916179055565b600f8210156103de5752565b906040516128b381612477565b60406002829480548452600181015460208501520154910152565b9081546128da81612525565b926128e860405194856124ae565b818452602084019060005260206000206000915b8383106129095750505050565b60036020600192612919856128a6565b8152019201920191906128fc565b6000526000602052600e60406000200154801561294d576000198101908111610a655790565b50600090565b8054801561297c57600019019061296a82826126d4565b8154906000199060031b1b1916905555565b634e487b7160e01b600052603160045260246000fd5b6001600160a01b031660009081526003602052604090208054908115612a75576000815415612a61578082602092522092600093548493600019810190811194855b612a4d5781811015612a295760018101808211612a1557906129f8600192876126d4565b90549060031b1c612a0c61270e83896126d4565b905501856129d4565b634e487b7160e01b88526011600452602488fd5b5050925092612a39604092612953565b828152600260205220805460ff1916905590565b634e487b7160e01b87526011600452602487fd5b634e487b7160e01b81526032600452602490fd5b5050600090565b919091600052600160205260406000209081549081841015612b2b57838203918211610a655780821015612b235750905b612ab682612525565b92612ac460405194856124ae565b828452601f19612ad384612525565b0136602086013760005b838110612aeb575050505090565b808201808311610a6557612aff90846126d4565b90549060031b1c9085518110156126aa5760019160208260051b8801015201612add565b905090612aad565b50505050604051612b3d6020826124ae565b60008152600036813790565b600080516020612c8f833981519152546001600160a01b03163303610e2457565b600080516020612cef83398151915280546001600160a01b0319908116909155600080516020612c8f83398151915280549182166001600160a01b0393841690811790915591167f8be0079c531659141344cd1fd0a4f28419497f9722a3daafe3b4186f6b6457e0600080a3565b6000526001602052604060002080549060005b828110612bf85750505050565b83612c0382846126d4565b90549060031b1c14612c1757600101612beb565b6000198301935090918311610a655782612762938203612c39575b5050612953565b61270e612c49612c5792856126d4565b90549060031b1c92846126d4565b90553880612c32565b60ff600080516020612ccf8339815191525460401c1615612c7d57565b631afcd79f60e31b60005260046000fdfe9016d09d72d40fdae2fd8ceac6b6234c7706214fd39c1cd1e609a0528c199300c8a7adcd793ee2c31f7814aeef44437537b00ebc2e9ab3dec66d7561411b4d7bf0c57e16840df040f15088dc2f81fe391c3923bec73e23a9662efc9c229c6a00237e158222e3e6968b72b9db0d8043aacf074ad9f650f0d1606b4d82ee432c00a26469706673582212204c7b716a1e1f546224128e6186917d94eda81d0c608807ca8824b24494af868664736f6c634300081c0033",
  "linkReferences": {},
  "deployedLinkReferences": {}
}