{
  "_format": "hh-sol-artifact-1",
  "contractName": "GENShim",
  "sourceName": "contracts/staking/GENShim.sol",
  "abi": [
    {
      "inputs": [],
      "name": "AccessControlBadConfirmation",
      "type": "error"
    },
    {
      "inputs": [
        {
          "internalType": "address",
          "name": "account",
          "type": "address"
        },
        {
          "internalType": "bytes32",
          "name": "neededRole",
          "type": "bytes32"
        }
      ],
      "name": "AccessControlUnauthorizedAccount",
      "type": "error"
    },
    {
      "inputs": [],
      "name": "AccountsArrayEmpty",
      "type": "error"
    },
    {
      "inputs": [
        {
          "internalType": "address",
          "name": "target",
          "type": "address"
        }
      ],
      "name": "AddressEmptyCode",
      "type": "error"
    },
    {
      "inputs": [],
      "name": "AmountMustBeGreaterThan0",
      "type": "error"
    },
    {
      "inputs": [],
      "name": "CanOnlyTriggerInflationMaxEpochsInFuture",
      "type": "error"
    },
    {
      "inputs": [],
      "name": "CanOnlyTriggerInflationMaxTenEpochsInFuture",
      "type": "error"
    },
    {
      "inputs": [
        {
          "internalType": "address",
          "name": "implementation",
          "type": "address"
        }
      ],
      "name": "ERC1967InvalidImplementation",
      "type": "error"
    },
    {
      "inputs": [],
      "name": "ERC1967NonPayable",
      "type": "error"
    },
    {
      "inputs": [
        {
          "internalType": "address",
          "name": "spender",
          "type": "address"
        },
        {
          "internalType": "uint256",
          "name": "allowance",
          "type": "uint256"
        },
        {
          "internalType": "uint256",
          "name": "needed",
          "type": "uint256"
        }
      ],
      "name": "ERC20InsufficientAllowance",
      "type": "error"
    },
    {
      "inputs": [
        {
          "internalType": "address",
          "name": "sender",
          "type": "address"
        },
        {
          "internalType": "uint256",
          "name": "balance",
          "type": "uint256"
        },
        {
          "internalType": "uint256",
          "name": "needed",
          "type": "uint256"
        }
      ],
      "name": "ERC20InsufficientBalance",
      "type": "error"
    },
    {
      "inputs": [
        {
          "internalType": "address",
          "name": "approver",
          "type": "address"
        }
      ],
      "name": "ERC20InvalidApprover",
      "type": "error"
    },
    {
      "inputs": [
        {
          "internalType": "address",
          "name": "receiver",
          "type": "address"
        }
      ],
      "name": "ERC20InvalidReceiver",
      "type": "error"
    },
    {
      "inputs": [
        {
          "internalType": "address",
          "name": "sender",
          "type": "address"
        }
      ],
      "name": "ERC20InvalidSender",
      "type": "error"
    },
    {
      "inputs": [
        {
          "internalType": "address",
          "name": "spender",
          "type": "address"
        }
      ],
      "name": "ERC20InvalidSpender",
      "type": "error"
    },
    {
      "inputs": [],
      "name": "FailedCall",
      "type": "error"
    },
    {
      "inputs": [],
      "name": "IncentivePercentageTooHigh",
      "type": "error"
    },
    {
      "inputs": [],
      "name": "InflationInitialized",
      "type": "error"
    },
    {
      "inputs": [],
      "name": "InflationNotReadyToBeRealized",
      "type": "error"
    },
    {
      "inputs": [],
      "name": "InitialMintAlreadyCalled",
      "type": "error"
    },
    {
      "inputs": [],
      "name": "InvalidInitialization",
      "type": "error"
    },
    {
      "inputs": [],
      "name": "L2BaseGasCostQueryFailed",
      "type": "error"
    },
    {
      "inputs": [],
      "name": "L2MessageAlreadyInvoked",
      "type": "error"
    },
    {
      "inputs": [],
      "name": "L2MessageProvenFailed",
      "type": "error"
    },
    {
      "inputs": [],
      "name": "L2TransactionRequestFailed",
      "type": "error"
    },
    {
      "inputs": [],
      "name": "NotInitializing",
      "type": "error"
    },
    {
      "inputs": [
        {
          "internalType": "address",
          "name": "owner",
          "type": "address"
        }
      ],
      "name": "OwnableInvalidOwner",
      "type": "error"
    },
    {
      "inputs": [
        {
          "internalType": "address",
          "name": "account",
          "type": "address"
        }
      ],
      "name": "OwnableUnauthorizedAccount",
      "type": "error"
    },
    {
      "inputs": [],
      "name": "TotalDistributionMustBe100",
      "type": "error"
    },
    {
      "inputs": [],
      "name": "UUPSUnauthorizedCallContext",
      "type": "error"
    },
    {
      "inputs": [
        {
          "internalType": "bytes32",
          "name": "slot",
          "type": "bytes32"
        }
      ],
      "name": "UUPSUnsupportedProxiableUUID",
      "type": "error"
    },
    {
      "inputs": [],
      "name": "UnauthorizedInflationRequest",
      "type": "error"
    },
    {
      "inputs": [],
      "name": "UnknownGenAction",
      "type": "error"
    },
    {
      "anonymous": false,
      "inputs": [
        {
          "indexed": true,
          "internalType": "address",
          "name": "owner",
          "type": "address"
        },
        {
          "indexed": true,
          "internalType": "address",
          "name": "spender",
          "type": "address"
        },
        {
          "indexed": false,
          "internalType": "uint256",
          "name": "value",
          "type": "uint256"
        }
      ],
      "name": "Approval",
      "type": "event"
    },
    {
      "anonymous": false,
      "inputs": [
        {
          "indexed": false,
          "internalType": "uint256",
          "name": "_amount",
          "type": "uint256"
        }
      ],
      "name": "BurnTriggered",
      "type": "event"
    },
    {
      "anonymous": false,
      "inputs": [
        {
          "indexed": true,
          "internalType": "address",
          "name": "_genLayerStaking",
          "type": "address"
        }
      ],
      "name": "GenLayerStakingSet",
      "type": "event"
    },
    {
      "anonymous": false,
      "inputs": [
        {
          "indexed": false,
          "internalType": "uint256",
          "name": "_incentivePercentage",
          "type": "uint256"
        }
      ],
      "name": "IncentivePercentageSet",
      "type": "event"
    },
    {
      "anonymous": false,
      "inputs": [
        {
          "indexed": true,
          "internalType": "address",
          "name": "_caller",
          "type": "address"
        },
        {
          "indexed": false,
          "internalType": "uint256",
          "name": "_reward",
          "type": "uint256"
        }
      ],
      "name": "IncentiveRewardPaid",
      "type": "event"
    },
    {
      "anonymous": false,
      "inputs": [
        {
          "indexed": false,
          "internalType": "uint256",
          "name": "_l2GasPrice",
          "type": "uint256"
        },
        {
          "indexed": false,
          "internalType": "uint256",
          "name": "_l2GasLimit",
          "type": "uint256"
        }
      ],
      "name": "InflationInit",
      "type": "event"
    },
    {
      "anonymous": false,
      "inputs": [
        {
          "indexed": true,
          "internalType": "uint256",
          "name": "_epochTo",
          "type": "uint256"
        },
        {
          "indexed": false,
          "internalType": "uint256",
          "name": "_l2GasPrice",
          "type": "uint256"
        },
        {
          "indexed": false,
          "internalType": "uint256",
          "name": "_l2GasLimit",
          "type": "uint256"
        }
      ],
      "name": "InflationRequestReceived",
      "type": "event"
    },
    {
      "anonymous": false,
      "inputs": [],
      "name": "InflationReset",
      "type": "event"
    },
    {
      "anonymous": false,
      "inputs": [
        {
          "indexed": false,
          "internalType": "uint256",
          "name": "_epochTo",
          "type": "uint256"
        },
        {
          "indexed": false,
          "internalType": "uint256",
          "name": "_l2GasPrice",
          "type": "uint256"
        },
        {
          "indexed": false,
          "internalType": "uint256",
          "name": "_l2GasLimit",
          "type": "uint256"
        }
      ],
      "name": "InflationTriggered",
      "type": "event"
    },
    {
      "anonymous": false,
      "inputs": [],
      "name": "InitialMintCalled",
      "type": "event"
    },
    {
      "anonymous": false,
      "inputs": [
        {
          "indexed": false,
          "internalType": "uint64",
          "name": "version",
          "type": "uint64"
        }
      ],
      "name": "Initialized",
      "type": "event"
    },
    {
      "anonymous": false,
      "inputs": [
        {
          "indexed": false,
          "internalType": "uint256",
          "name": "_batchNumber",
          "type": "uint256"
        },
        {
          "indexed": false,
          "internalType": "uint256",
          "name": "_txIndex",
          "type": "uint256"
        },
        {
          "indexed": false,
          "internalType": "uint16",
          "name": "_batchIndex",
          "type": "uint16"
        },
        {
          "indexed": false,
          "internalType": "enum IGEN.GenAction",
          "name": "_action",
          "type": "uint8"
        },
        {
          "indexed": false,
          "internalType": "uint256",
          "name": "_amount",
          "type": "uint256"
        }
      ],
      "name": "L2MessageExecuted",
      "type": "event"
    },
    {
      "anonymous": false,
      "inputs": [
        {
          "indexed": false,
          "internalType": "uint256",
          "name": "_maxInflationEpochs",
          "type": "uint256"
        }
      ],
      "name": "MaxInflationEpochsSet",
      "type": "event"
    },
    {
      "anonymous": false,
      "inputs": [
        {
          "indexed": true,
          "internalType": "address",
          "name": "previousOwner",
          "type": "address"
        },
        {
          "indexed": true,
          "internalType": "address",
          "name": "newOwner",
          "type": "address"
        }
      ],
      "name": "OwnershipTransferred",
      "type": "event"
    },
    {
      "anonymous": false,
      "inputs": [
        {
          "indexed": true,
          "internalType": "bytes32",
          "name": "role",
          "type": "bytes32"
        },
        {
          "indexed": true,
          "internalType": "bytes32",
          "name": "previousAdminRole",
          "type": "bytes32"
        },
        {
          "indexed": true,
          "internalType": "bytes32",
          "name": "newAdminRole",
          "type": "bytes32"
        }
      ],
      "name": "RoleAdminChanged",
      "type": "event"
    },
    {
      "anonymous": false,
      "inputs": [
        {
          "indexed": true,
          "internalType": "bytes32",
          "name": "role",
          "type": "bytes32"
        },
        {
          "indexed": true,
          "internalType": "address",
          "name": "account",
          "type": "address"
        },
        {
          "indexed": true,
          "internalType": "address",
          "name": "sender",
          "type": "address"
        }
      ],
      "name": "RoleGranted",
      "type": "event"
    },
    {
      "anonymous": false,
      "inputs": [
        {
          "indexed": true,
          "internalType": "bytes32",
          "name": "role",
          "type": "bytes32"
        },
        {
          "indexed": true,
          "internalType": "address",
          "name": "account",
          "type": "address"
        },
        {
          "indexed": true,
          "internalType": "address",
          "name": "sender",
          "type": "address"
        }
      ],
      "name": "RoleRevoked",
      "type": "event"
    },
    {
      "anonymous": false,
      "inputs": [],
      "name": "TestTriggered",
      "type": "event"
    },
    {
      "anonymous": false,
      "inputs": [
        {
          "indexed": true,
          "internalType": "address",
          "name": "_timelockFactory",
          "type": "address"
        }
      ],
      "name": "TimelockFactorySet",
      "type": "event"
    },
    {
      "anonymous": false,
      "inputs": [
        {
          "indexed": true,
          "internalType": "address",
          "name": "from",
          "type": "address"
        },
        {
          "indexed": true,
          "internalType": "address",
          "name": "to",
          "type": "address"
        },
        {
          "indexed": false,
          "internalType": "uint256",
          "name": "value",
          "type": "uint256"
        }
      ],
      "name": "Transfer",
      "type": "event"
    },
    {
      "anonymous": false,
      "inputs": [
        {
          "indexed": true,
          "internalType": "address",
          "name": "implementation",
          "type": "address"
        }
      ],
      "name": "Upgraded",
      "type": "event"
    },
    {
      "anonymous": false,
      "inputs": [
        {
          "indexed": true,
          "internalType": "address",
          "name": "_zkSyncL1AssetRouter",
          "type": "address"
        },
        {
          "indexed": true,
          "internalType": "address",
          "name": "_zkSyncBridgeHub",
          "type": "address"
        },
        {
          "indexed": true,
          "internalType": "address",
          "name": "_zksyncSharedBridge",
          "type": "address"
        }
      ],
      "name": "ZkSyncContractsSet",
      "type": "event"
    },
    {
      "inputs": [],
      "name": "BURNER_ROLE",
      "outputs": [
        {
          "internalType": "bytes32",
          "name": "",
          "type": "bytes32"
        }
      ],
      "stateMutability": "view",
      "type": "function"
    },
    {
      "inputs": [],
      "name": "BURN_SELECTOR",
      "outputs": [
        {
          "internalType": "bytes4",
          "name": "",
          "type": "bytes4"
        }
      ],
      "stateMutability": "view",
      "type": "function"
    },
    {
      "inputs": [],
      "name": "DEFAULT_ADMIN_ROLE",
      "outputs": [
        {
          "internalType": "bytes32",
          "name": "",
          "type": "bytes32"
        }
      ],
      "stateMutability": "view",
      "type": "function"
    },
    {
      "inputs": [],
      "name": "GENLAYER_CHAIN_ID",
      "outputs": [
        {
          "internalType": "uint256",
          "name": "",
          "type": "uint256"
        }
      ],
      "stateMutability": "view",
      "type": "function"
    },
    {
      "inputs": [],
      "name": "GENToken",
      "outputs": [
        {
          "internalType": "contract IGEN",
          "name": "",
          "type": "address"
        }
      ],
      "stateMutability": "view",
      "type": "function"
    },
    {
      "inputs": [],
      "name": "INFLATION_BASE",
      "outputs": [
        {
          "internalType": "uint256",
          "name": "",
          "type": "uint256"
        }
      ],
      "stateMutability": "view",
      "type": "function"
    },
    {
      "inputs": [],
      "name": "INFLATION_DECAY_DELTA",
      "outputs": [
        {
          "internalType": "uint256",
          "name": "",
          "type": "uint256"
        }
      ],
      "stateMutability": "view",
      "type": "function"
    },
    {
      "inputs": [],
      "name": "INFLATION_DECAY_EPOCHS",
      "outputs": [
        {
          "internalType": "uint256",
          "name": "",
          "type": "uint256"
        }
      ],
      "stateMutability": "view",
      "type": "function"
    },
    {
      "inputs": [],
      "name": "INFLATION_EPOCH_DURATION",
      "outputs": [
        {
          "internalType": "uint256",
          "name": "",
          "type": "uint256"
        }
      ],
      "stateMutability": "view",
      "type": "function"
    },
    {
      "inputs": [],
      "name": "INFLATION_FINAL",
      "outputs": [
        {
          "internalType": "uint256",
          "name": "",
          "type": "uint256"
        }
      ],
      "stateMutability": "view",
      "type": "function"
    },
    {
      "inputs": [],
      "name": "INFLATION_INCEPTION",
      "outputs": [
        {
          "internalType": "uint256",
          "name": "",
          "type": "uint256"
        }
      ],
      "stateMutability": "view",
      "type": "function"
    },
    {
      "inputs": [],
      "name": "INFLATION_INITIAL",
      "outputs": [
        {
          "internalType": "uint256",
          "name": "",
          "type": "uint256"
        }
      ],
      "stateMutability": "view",
      "type": "function"
    },
    {
      "inputs": [],
      "name": "INFLATION_MID",
      "outputs": [
        {
          "internalType": "int256",
          "name": "",
          "type": "int256"
        }
      ],
      "stateMutability": "view",
      "type": "function"
    },
    {
      "inputs": [],
      "name": "INFLATION_STEEPNESS",
      "outputs": [
        {
          "internalType": "int256",
          "name": "",
          "type": "int256"
        }
      ],
      "stateMutability": "view",
      "type": "function"
    },
    {
      "inputs": [],
      "name": "INITIAL_SUPPLY",
      "outputs": [
        {
          "internalType": "uint256",
          "name": "",
          "type": "uint256"
        }
      ],
      "stateMutability": "view",
      "type": "function"
    },
    {
      "inputs": [],
      "name": "MINTER_ROLE",
      "outputs": [
        {
          "internalType": "bytes32",
          "name": "",
          "type": "bytes32"
        }
      ],
      "stateMutability": "view",
      "type": "function"
    },
    {
      "inputs": [],
      "name": "ONE",
      "outputs": [
        {
          "internalType": "uint256",
          "name": "",
          "type": "uint256"
        }
      ],
      "stateMutability": "view",
      "type": "function"
    },
    {
      "inputs": [],
      "name": "UPGRADE_INTERFACE_VERSION",
      "outputs": [
        {
          "internalType": "string",
          "name": "",
          "type": "string"
        }
      ],
      "stateMutability": "view",
      "type": "function"
    },
    {
      "inputs": [],
      "name": "VERSION",
      "outputs": [
        {
          "internalType": "uint256",
          "name": "",
          "type": "uint256"
        }
      ],
      "stateMutability": "view",
      "type": "function"
    },
    {
      "inputs": [],
      "name": "ZKSYNC_BRIDGE_HUB",
      "outputs": [
        {
          "internalType": "contract IBridgeHub",
          "name": "",
          "type": "address"
        }
      ],
      "stateMutability": "view",
      "type": "function"
    },
    {
      "inputs": [],
      "name": "ZKSYNC_L1_ASSET_ROUTER",
      "outputs": [
        {
          "internalType": "address",
          "name": "",
          "type": "address"
        }
      ],
      "stateMutability": "view",
      "type": "function"
    },
    {
      "inputs": [],
      "name": "ZKSYNC_SHARED_BRIDGE",
      "outputs": [
        {
          "internalType": "contract ISharedBridge",
          "name": "",
          "type": "address"
        }
      ],
      "stateMutability": "view",
      "type": "function"
    },
    {
      "inputs": [
        {
          "internalType": "address",
          "name": "owner",
          "type": "address"
        },
        {
          "internalType": "address",
          "name": "spender",
          "type": "address"
        }
      ],
      "name": "allowance",
      "outputs": [
        {
          "internalType": "uint256",
          "name": "",
          "type": "uint256"
        }
      ],
      "stateMutability": "view",
      "type": "function"
    },
    {
      "inputs": [
        {
          "internalType": "address",
          "name": "spender",
          "type": "address"
        },
        {
          "internalType": "uint256",
          "name": "amount",
          "type": "uint256"
        }
      ],
      "name": "approve",
      "outputs": [
        {
          "internalType": "bool",
          "name": "",
          "type": "bool"
        }
      ],
      "stateMutability": "nonpayable",
      "type": "function"
    },
    {
      "inputs": [
        {
          "internalType": "address",
          "name": "account",
          "type": "address"
        }
      ],
      "name": "balanceOf",
      "outputs": [
        {
          "internalType": "uint256",
          "name": "",
          "type": "uint256"
        }
      ],
      "stateMutability": "view",
      "type": "function"
    },
    {
      "inputs": [
        {
          "internalType": "uint256",
          "name": "amount",
          "type": "uint256"
        }
      ],
      "name": "burn",
      "outputs": [],
      "stateMutability": "nonpayable",
      "type": "function"
    },
    {
      "inputs": [],
      "name": "burn",
      "outputs": [],
      "stateMutability": "nonpayable",
      "type": "function"
    },
    {
      "inputs": [],
      "name": "decimals",
      "outputs": [
        {
          "internalType": "uint8",
          "name": "",
          "type": "uint8"
        }
      ],
      "stateMutability": "view",
      "type": "function"
    },
    {
      "inputs": [
        {
          "internalType": "uint16",
          "name": "_batchNumber",
          "type": "uint16"
        },
        {
          "internalType": "uint256",
          "name": "_txIndex",
          "type": "uint256"
        },
        {
          "internalType": "uint16",
          "name": "_batchIndex",
          "type": "uint16"
        },
        {
          "internalType": "bytes",
          "name": "_message",
          "type": "bytes"
        },
        {
          "internalType": "bytes32[]",
          "name": "_proof",
          "type": "bytes32[]"
        },
        {
          "internalType": "uint256",
          "name": "_l2GasPrice",
          "type": "uint256"
        },
        {
          "internalType": "uint256",
          "name": "_l2GasLimit",
          "type": "uint256"
        }
      ],
      "name": "executeL2Message",
      "outputs": [],
      "stateMutability": "nonpayable",
      "type": "function"
    },
    {
      "inputs": [],
      "name": "genLayerStaking",
      "outputs": [
        {
          "internalType": "address",
          "name": "",
          "type": "address"
        }
      ],
      "stateMutability": "view",
      "type": "function"
    },
    {
      "inputs": [
        {
          "internalType": "bytes32",
          "name": "role",
          "type": "bytes32"
        }
      ],
      "name": "getRoleAdmin",
      "outputs": [
        {
          "internalType": "bytes32",
          "name": "",
          "type": "bytes32"
        }
      ],
      "stateMutability": "view",
      "type": "function"
    },
    {
      "inputs": [
        {
          "internalType": "bytes32",
          "name": "role",
          "type": "bytes32"
        },
        {
          "internalType": "address",
          "name": "account",
          "type": "address"
        }
      ],
      "name": "grantRole",
      "outputs": [],
      "stateMutability": "nonpayable",
      "type": "function"
    },
    {
      "inputs": [
        {
          "internalType": "bytes32",
          "name": "role",
          "type": "bytes32"
        },
        {
          "internalType": "address",
          "name": "account",
          "type": "address"
        }
      ],
      "name": "hasRole",
      "outputs": [
        {
          "internalType": "bool",
          "name": "",
          "type": "bool"
        }
      ],
      "stateMutability": "view",
      "type": "function"
    },
    {
      "inputs": [],
      "name": "incentivePercentage",
      "outputs": [
        {
          "internalType": "uint256",
          "name": "",
          "type": "uint256"
        }
      ],
      "stateMutability": "view",
      "type": "function"
    },
    {
      "inputs": [
        {
          "internalType": "uint256",
          "name": "_l2GasPrice",
          "type": "uint256"
        },
        {
          "internalType": "uint256",
          "name": "_l2GasLimit",
          "type": "uint256"
        }
      ],
      "name": "inflationInit",
      "outputs": [],
      "stateMutability": "nonpayable",
      "type": "function"
    },
    {
      "inputs": [],
      "name": "inflationInitialized",
      "outputs": [
        {
          "internalType": "bool",
          "name": "",
          "type": "bool"
        }
      ],
      "stateMutability": "view",
      "type": "function"
    },
    {
      "inputs": [
        {
          "internalType": "address[]",
          "name": "accounts",
          "type": "address[]"
        },
        {
          "internalType": "uint256[]",
          "name": "distribution",
          "type": "uint256[]"
        }
      ],
      "name": "initialMint",
      "outputs": [],
      "stateMutability": "nonpayable",
      "type": "function"
    },
    {
      "inputs": [],
      "name": "initialMintCalled",
      "outputs": [
        {
          "internalType": "bool",
          "name": "",
          "type": "bool"
        }
      ],
      "stateMutability": "view",
      "type": "function"
    },
    {
      "inputs": [],
      "name": "initialize",
      "outputs": [],
      "stateMutability": "nonpayable",
      "type": "function"
    },
    {
      "inputs": [
        {
          "internalType": "address",
          "name": "_gen",
          "type": "address"
        }
      ],
      "name": "initializeShim",
      "outputs": [],
      "stateMutability": "nonpayable",
      "type": "function"
    },
    {
      "inputs": [
        {
          "internalType": "uint256",
          "name": "batchNumber",
          "type": "uint256"
        },
        {
          "internalType": "uint256",
          "name": "txIndex",
          "type": "uint256"
        },
        {
          "internalType": "uint256",
          "name": "batchIndex",
          "type": "uint256"
        },
        {
          "internalType": "bytes32",
          "name": "messageHash",
          "type": "bytes32"
        }
      ],
      "name": "invokedL2Messages",
      "outputs": [
        {
          "internalType": "bool",
          "name": "invoked",
          "type": "bool"
        }
      ],
      "stateMutability": "view",
      "type": "function"
    },
    {
      "inputs": [
        {
          "internalType": "uint16",
          "name": "_batchNumber",
          "type": "uint16"
        },
        {
          "internalType": "uint256",
          "name": "_txIndex",
          "type": "uint256"
        },
        {
          "internalType": "uint16",
          "name": "_batchIndex",
          "type": "uint16"
        },
        {
          "internalType": "bytes",
          "name": "_message",
          "type": "bytes"
        },
        {
          "internalType": "bytes32[]",
          "name": "_proof",
          "type": "bytes32[]"
        }
      ],
      "name": "isL2MessagePending",
      "outputs": [
        {
          "internalType": "bool",
          "name": "pending",
          "type": "bool"
        },
        {
          "internalType": "uint256",
          "name": "rewards",
          "type": "uint256"
        }
      ],
      "stateMutability": "view",
      "type": "function"
    },
    {
      "inputs": [],
      "name": "lastInflationEpoch",
      "outputs": [
        {
          "internalType": "uint256",
          "name": "",
          "type": "uint256"
        }
      ],
      "stateMutability": "view",
      "type": "function"
    },
    {
      "inputs": [],
      "name": "maxInflationEpochs",
      "outputs": [
        {
          "internalType": "uint256",
          "name": "",
          "type": "uint256"
        }
      ],
      "stateMutability": "view",
      "type": "function"
    },
    {
      "inputs": [
        {
          "internalType": "address",
          "name": "account",
          "type": "address"
        },
        {
          "internalType": "uint256",
          "name": "amount",
          "type": "uint256"
        }
      ],
      "name": "mint",
      "outputs": [],
      "stateMutability": "nonpayable",
      "type": "function"
    },
    {
      "inputs": [],
      "name": "name",
      "outputs": [
        {
          "internalType": "string",
          "name": "",
          "type": "string"
        }
      ],
      "stateMutability": "view",
      "type": "function"
    },
    {
      "inputs": [],
      "name": "owner",
      "outputs": [
        {
          "internalType": "address",
          "name": "",
          "type": "address"
        }
      ],
      "stateMutability": "view",
      "type": "function"
    },
    {
      "inputs": [],
      "name": "proxiableUUID",
      "outputs": [
        {
          "internalType": "bytes32",
          "name": "",
          "type": "bytes32"
        }
      ],
      "stateMutability": "view",
      "type": "function"
    },
    {
      "inputs": [],
      "name": "renounceOwnership",
      "outputs": [],
      "stateMutability": "nonpayable",
      "type": "function"
    },
    {
      "inputs": [
        {
          "internalType": "bytes32",
          "name": "role",
          "type": "bytes32"
        },
        {
          "internalType": "address",
          "name": "callerConfirmation",
          "type": "address"
        }
      ],
      "name": "renounceRole",
      "outputs": [],
      "stateMutability": "nonpayable",
      "type": "function"
    },
    {
      "inputs": [],
      "name": "resetInflation",
      "outputs": [],
      "stateMutability": "nonpayable",
      "type": "function"
    },
    {
      "inputs": [
        {
          "internalType": "bytes32",
          "name": "role",
          "type": "bytes32"
        },
        {
          "internalType": "address",
          "name": "account",
          "type": "address"
        }
      ],
      "name": "revokeRole",
      "outputs": [],
      "stateMutability": "nonpayable",
      "type": "function"
    },
    {
      "inputs": [
        {
          "internalType": "address",
          "name": "_staking",
          "type": "address"
        }
      ],
      "name": "setExternalContracts",
      "outputs": [],
      "stateMutability": "nonpayable",
      "type": "function"
    },
    {
      "inputs": [
        {
          "internalType": "address",
          "name": "_gen",
          "type": "address"
        }
      ],
      "name": "setGEN",
      "outputs": [],
      "stateMutability": "nonpayable",
      "type": "function"
    },
    {
      "inputs": [
        {
          "internalType": "address",
          "name": "_genLayerStaking",
          "type": "address"
        }
      ],
      "name": "setGenLayerStaking",
      "outputs": [],
      "stateMutability": "nonpayable",
      "type": "function"
    },
    {
      "inputs": [
        {
          "internalType": "uint256",
          "name": "_incentivePercentage",
          "type": "uint256"
        }
      ],
      "name": "setIncentivePercentage",
      "outputs": [],
      "stateMutability": "nonpayable",
      "type": "function"
    },
    {
      "inputs": [
        {
          "internalType": "uint256",
          "name": "_maxInflationEpochs",
          "type": "uint256"
        }
      ],
      "name": "setMaxInflationEpochs",
      "outputs": [],
      "stateMutability": "nonpayable",
      "type": "function"
    },
    {
      "inputs": [
        {
          "internalType": "address",
          "name": "_timelockFactory",
          "type": "address"
        }
      ],
      "name": "setTimelockFactory",
      "outputs": [],
      "stateMutability": "nonpayable",
      "type": "function"
    },
    {
      "inputs": [
        {
          "internalType": "address",
          "name": "_zkSyncL1AssetRouter",
          "type": "address"
        },
        {
          "internalType": "address",
          "name": "_zkSyncBridgeHub",
          "type": "address"
        },
        {
          "internalType": "address",
          "name": "_zksyncSharedBridge",
          "type": "address"
        }
      ],
      "name": "setZkSyncContracts",
      "outputs": [],
      "stateMutability": "nonpayable",
      "type": "function"
    },
    {
      "inputs": [
        {
          "internalType": "bytes4",
          "name": "interfaceId",
          "type": "bytes4"
        }
      ],
      "name": "supportsInterface",
      "outputs": [
        {
          "internalType": "bool",
          "name": "",
          "type": "bool"
        }
      ],
      "stateMutability": "view",
      "type": "function"
    },
    {
      "inputs": [],
      "name": "symbol",
      "outputs": [
        {
          "internalType": "string",
          "name": "",
          "type": "string"
        }
      ],
      "stateMutability": "view",
      "type": "function"
    },
    {
      "inputs": [],
      "name": "timelockFactory",
      "outputs": [
        {
          "internalType": "address",
          "name": "",
          "type": "address"
        }
      ],
      "stateMutability": "view",
      "type": "function"
    },
    {
      "inputs": [],
      "name": "totalSupply",
      "outputs": [
        {
          "internalType": "uint256",
          "name": "",
          "type": "uint256"
        }
      ],
      "stateMutability": "view",
      "type": "function"
    },
    {
      "inputs": [
        {
          "internalType": "address",
          "name": "to",
          "type": "address"
        },
        {
          "internalType": "uint256",
          "name": "value",
          "type": "uint256"
        }
      ],
      "name": "transfer",
      "outputs": [
        {
          "internalType": "bool",
          "name": "",
          "type": "bool"
        }
      ],
      "stateMutability": "nonpayable",
      "type": "function"
    },
    {
      "inputs": [
        {
          "internalType": "address",
          "name": "from",
          "type": "address"
        },
        {
          "internalType": "address",
          "name": "to",
          "type": "address"
        },
        {
          "internalType": "uint256",
          "name": "value",
          "type": "uint256"
        }
      ],
      "name": "transferFrom",
      "outputs": [
        {
          "internalType": "bool",
          "name": "",
          "type": "bool"
        }
      ],
      "stateMutability": "nonpayable",
      "type": "function"
    },
    {
      "inputs": [
        {
          "internalType": "address",
          "name": "newOwner",
          "type": "address"
        }
      ],
      "name": "transferOwnership",
      "outputs": [],
      "stateMutability": "nonpayable",
      "type": "function"
    },
    {
      "inputs": [
        {
          "internalType": "address",
          "name": "newImplementation",
          "type": "address"
        },
        {
          "internalType": "bytes",
          "name": "data",
          "type": "bytes"
        }
      ],
      "name": "upgradeToAndCall",
      "outputs": [],
      "stateMutability": "payable",
      "type": "function"
    },
    {
      "stateMutability": "payable",
      "type": "receive"
    }
  ],
  "bytecode": "0x60a08060405234602957306080526142b2908161002f8239608051818181611f600152611ff40152f35b600080fdfe60c080604052600436101561001d575b50361561001b57600080fd5b005b600090813560e01c90816301eb18b714612b685750806301ffc9a714612b1257806305f749dc14612acd57806306fdde03146129f6578063095ea7b3146129545780631757cd2f146125f157806318160ddd146125c65780631a4c1845146125a55780631a7ea9fc14612588578063218268031461250c57806323b872dd14612427578063248a9ca314612400578063282c51f3146123c55780632b24c0d91461239c5780632f2ff15d1461236a5780632ff2e9dc1461124d578063313ce5671461234e57806332b47ab31461233157806336568abe146122ec57806340c10f191461227757806342966c68146121fd57806344df8e70146121e95780634971ec02146121c65780634aeff8ca1461219d5780634f1ef28614611fb557806352d1902d14611f4d57806355338d1e14611f20578063601846df14611ef757806366ba547914611ed157806369d8f06514611eb357806370a0823114611e6d578063715018a614611e025780637492100f14611de057806377bc2e1d14611d795780638119e57c14611d5b5780638129fc1c146118bf57806387a131bb1461189c5780638da5cb5b1461186657806391d148541461180d578063920d26391461178657806394179eea146116de57806395d89b41146115f557806399bcc5d7146115995780639accda831461154f5780639c0869cc14611531578063a01ebaa11461150d578063a217fddf146114f1578063a5231998146114d3578063a8027c10146114b0578063a9059cbb1461147e578063ad3cb1cc14611433578063bb3d33b714611410578063bedaeace146113f3578063c2ee3a08146113d0578063c6fe12ea14611252578063cd38347f1461124d578063d1e2253d146111ff578063d5391393146111c4578063d547741f14611189578063dd62ed3e1461113f578063dd6ec1ca146108fd578063dec1027e146108d4578063e2ef97a3146108ab578063e463e3e7146103da578063f1bafadd14610352578063f2fde38b146103255763ffa1ad740361000f5734610322578060031936011261032257602060405160018152f35b80fd5b50346103225760203660031901126103225761034f610342612bb2565b61034a6131ee565b613178565b80f35b50346103225760a03660031901126103225761036c612d4e565b610374612d5f565b916064356001600160401b0381116103d657610394903690600401612cd7565b90608435906001600160401b0382116103225760406103c88686866103bc3660048901612d1e565b93909260243590612fe8565b825191151582526020820152f35b5080fd5b5034610322576020366003190112610322576103f4612bb2565b60008051602061425d8339815191525460ff8160401c1615906001600160401b038116801590816108a3575b6001149081610899575b159081610890575b506108815767ffffffffffffffff19811660011760008051602061425d8339815191525581610854575b50610465613a1c565b60409081516104748382612c9b565b600d81526c23b2b72630bcb2b92a37b5b2b760991b602082015282519061049b8483612c9b565b600382526223a2a760e91b60208301526104b3613a1c565b6104bb613a1c565b8051906001600160401b0382116108405781906104e660008051602061413d83398151915254612d70565b601f81116107d7575b50602090601f831160011461075857889261074d575b50508160011b916000199060031b1c19161760008051602061413d833981519152555b8051906001600160401b03821161073957819061055360008051602061417d83398151915254612d70565b601f81116106d0575b50602090601f8311600114610651578792610646575b50508160011b916000199060031b1c19161760008051602061417d833981519152555b61059d613a1c565b6105a5613a1c565b6105ae33613178565b6105b6613a1c565b6105bf336133a2565b506105c933613224565b50428455600a6008556105fb575b50603b80546001600160a01b0319166001600160a01b039290921691909117905580f35b60008051602061425d833981519152805460ff60401b1916905551600181527fc7f505b2f371ae2175ee4913f4499e1f2633a7b5936321eed1cdaeb6115181d290602090a1386105d7565b015190503880610572565b60008051602061417d83398151915288528188209250601f198416885b8181106106b8575090846001959493921061069f575b505050811b0160008051602061417d83398151915255610595565b015160001960f88460031b161c19169055388080610684565b9293602060018192878601518155019501930161066e565b60008051602061417d833981519152885290915060008051602061423d833981519152601f840160051c8101916020851061072f575b90601f859493920160051c01905b818110610721575061055c565b888155849350600101610714565b9091508190610706565b634e487b7160e01b86526041600452602486fd5b015190503880610505565b60008051602061413d83398151915289528189209250601f198416895b8181106107bf57509084600195949392106107a6575b505050811b0160008051602061413d83398151915255610528565b015160001960f88460031b161c1916905538808061078b565b92936020600181928786015181550195019301610775565b60008051602061413d833981519152895290915060008051602061411d833981519152601f840160051c81019160208510610836575b90601f859493920160051c01905b81811061082857506104ef565b89815584935060010161081b565b909150819061080d565b634e487b7160e01b87526041600452602487fd5b68ffffffffffffffffff1916680100000000000000011760008051602061425d833981519152553861045c565b63f92ee8a960e01b8452600484fd5b90501538610432565b303b15915061042a565b839150610420565b50346103225780600319360112610322576006546040516001600160a01b039091168152602090f35b50346103225780600319360112610322576004546040516001600160a01b039091168152602090f35b50346103225760e036600319011261032257610917612d4e565b61091f612d5f565b906064356001600160401b03811161113b5761093f903690600401612cd7565b6084356001600160401b0381116111375761095e903690600401612d1e565b82949194519060208401918220956109848661ffff166000526007602052604060002090565b602435600052602052604060002061ffff851660005260205260406000208760005260205260ff6040600020541661112857600254604051610a1f93602093909260081c6001600160a01b03166109dc606084612c9b565b61ffff881683528483015260408083018990526005549051634ce0b68d60e11b81529586946001600160a01b039092169385938493916024358e60048701612f26565b03915afa90811561111c5787916110ed575b50156110de5760808690528251610a4d90840160200182612fa6565b92610a5784612fbe565b60018403610f635790602082610a709351010190612fc8565b80929150608052600094600154838114610f5457600854610a918286612c1f565b11610f455783610aa09161382a565b6001849055600554604051631c588c9d60e21b815261107d600482015260a435602482015260c4356044820152610320606482015290602090829060849082906001600160a01b03165afa889181610f0d575b50610b3c57600488610b03612dc2565b6308c379a014610b23575b610b16612e56565b50633ee4e2f160e11b8152fd5b610b2b612de0565b15610b0e57633ee4e2f160e11b8152fd5b9690919293949596908160041b9180830460101490151715610ef9575081600a610b669204612e99565b90610b71823061367d565b600454600060a052610b8e9083906001600160a01b0316306139b7565b600254604051631bd1b3a760e31b602082015260248082018890528152929060081c6001600160a01b0316610bc4604485612c9b565b6040516020949091610bd68684612c9b565b60a051835260405192610be884612c69565b61107d845286840194855260408401829052606084018690526080840192835260c43560a085015261032060c085015260e08401526101008301526005546001600160a01b031690813b15610ef3576040805163d52471c160e01b81526004810188905284516024820152945160448601528301516001600160a01b03166064850152606083015160848501525161012060a4850152839190610c9090610144840190612bde565b9260a081015160c484015260c081015160e484015260e0810151936023198482030161010485015284518082528882019189808360051b83010197019260a051915b8b848410610ec0575050505061010092909201516001600160a01b0316610124850152505060a0519282900390829084905af19081610eae575b50610d6057610d19612dc2565b6308c379a014610d40575b610d2c612e56565b50631efae81160e01b60a05152600460a051fd5b610d48612de0565b15610d2457631efae81160e01b60a05152600460a051fd5b61ffff947f340d86e5986791cda0f36f3a39e9abac223a85eef05d99c3bca95f9caec8271c92612710610d9860609460095490612e86565b0480610e71575b506040519160a05150825260a4359082015260c4356040820152a15b610dd38561ffff166000526007602052604060002090565b60243560005260205260406000208383166000526020526040600020906000526020526040600020600160ff19825416179055816040519416845260243560208501521660408301526003811015610e5b578160a09160607fadbd1b0010e7f7693a21e7b1364f494126b8623ee4557e42b6fa3c8d2f9273779401526080516080820152a180f35b634e487b7160e01b600052602160045260246000fd5b610e7b813361367d565b60405190815233907f6447eff71204d361367a1fe0a897bb78b8da54101db8178d1a0d1db3e258813d908390a238610d9f565b60a051610eba91612c9b565b38610d0c565b6001929496979850610ee0819294969a601f198682030187528b51612bde565b9901930193019092889695949293610cd2565b60a05180fd5b634e487b7160e01b81526011600452602490fd5b9091506020813d602011610f3d575b81610f2960209383612c9b565b81010312610f3957519038610af3565b8880fd5b3d9150610f1c565b636fd552d960e11b8752600487fd5b637d8fa22560e01b8752600487fd5b906000959293949550610f7585612fbe565b8461108e57602082610f8a9351010190612fc8565b809150608052801561107f5730156110695760009030825260008051602061415d833981519152602052604082205481811061104f5761ffff949392827f674efd03143e8213df7415a5a5d66fae98745c246ed45c6926c8a96e677f4ce19360209330845260008051602061415d8339815191528552036040832055806000805160206141bd83398151915254036000805160206141bd83398151915255816040518281526000805160206141fd833981519152853092a360405191508152a1610dbb565b63391434e360e21b83523060045260245260445260649150fd5b634b637e8f60e11b600052600060045260246000fd5b6335f6168960e01b8652600486fd5b505061109983612fbe565b600283036110cf579061ffff917f081260b5ba13d9cd4297f7d1c461a423dbf698eacb0ee27a56eec4d29cec75178680a1610dbb565b6307219a8f60e51b8552600485fd5b63fd0ae32760e01b8652600486fd5b61110f915060203d602011611115575b6111078183612c9b565b810190612daa565b38610a31565b503d6110fd565b6040513d6000823e3d90fd5b63021d837560e41b8852600488fd5b8480fd5b8380fd5b503461032257604036600319011261032257611159612bb2565b61116a611164612bc8565b91612ec7565b9060018060a01b03166000526020526020604060002054604051908152f35b5034610322576040366003190112610322576111c06004356111a9612bc8565b906111bb6111b682612ea6565b613593565b6135dd565b5080f35b503461032257806003193601126103225760206040517f9f2df0fed2c77648de5860a4cc508cd0818c85b8b8a1ab4ceeef8d981c8956a68152f35b5034610322576020366003190112610322577f345e869dd291c4451392085867a7451a5d8838aac6836e74d68595268c593697602060043561123f6131ee565b80600855604051908152a180f35b612c42565b5034610322576040366003190112610322576004356001600160401b0381116103d657611283903690600401612d1e565b906024356001600160401b03811161113b576112a3903690600401612d1e565b906112ac6131ee565b60ff600254166113c15783156113b2579190849285945b8086106113175786612710860361130857600160ff1960025416176002557f87882703560ca8ab0be2175f374fc04ecd07f3ede12068ab20dbf131f93c08dc8180a180f35b630b48249960e11b8152600490fd5b90919293611326868387612f00565b356001600160a01b03811681036113ae57611342878686612f00565b35806b0d92289838d21a996800000002906b0d92289838d21a996800000082040361139a579161137c61138e92612710600195049061367d565b611387888787612f00565b3590612e99565b950194939291906112c3565b634e487b7160e01b89526011600452602489fd5b8780fd5b63b1d0b18160e01b8552600485fd5b63acf9028d60e01b8552600485fd5b50346103225780600319360112610322576020604051670de0b6b3a76400008152f35b503461032257806003193601126103225760206040516105b48152f35b5034610322578060031936011261032257602060ff600254166040519015158152f35b503461032257806003193601126103225761147a60408051906114568183612c9b565b60058252640352e302e360dc1b602083015251918291602083526020830190612bde565b0390f35b5034610322576040366003190112610322576114a561149b612bb2565b60243590336134cc565b602060405160018152f35b50346103225780600319360112610322576020604051660aa87bee537fff198152f35b50346103225780600319360112610322576020600854604051908152f35b5034610322578060031936011261032257602090604051908152f35b50346103225780600319360112610322576020604051684e1003b28d928000008152f35b50346103225780600319360112610322576020600954604051908152f35b503461032257602036600319011261032257611569612bb2565b6115716131ee565b60028054610100600160a81b03191660089290921b610100600160a81b031691909117905580f35b50346103225780600319360112610322576115b26131ee565b6002805460ff191690556006805460ff60a01b1916905560018190557fc08a61aa28efe4d79f0c38b6bc334b28f8706e2a729baf2283f4a1502510e8d08180a180f35b5034610322578060031936011261032257604051600060008051602061417d8339815191525461162481612d70565b80845290600181169081156116ba5750600114611660575b61147a8361164c81850382612c9b565b604051918291602083526020830190612bde565b60008051602061417d833981519152600090815260008051602061423d833981519152939250905b8082106116a05750909150810160200161164c61163c565b919260018160209254838588010152019101909291611688565b60ff191660208086019190915291151560051b8401909101915061164c905061163c565b5034610322576060366003190112610322576116f8612bb2565b611700612bc8565b6044356001600160a01b03811692908390036117815761171e6131ee565b600480546001600160a01b039283166001600160a01b03199182168117909255600580549490931693811684179092556006805490921684179091557ff16088c43eb2425f3f3203ca4274b1ce2cfce49a7497ed15a3af7b078641c7b38480a480f35b600080fd5b5034610322576020366003190112610322576117a0612bb2565b6117a86131ee565b60028054610100600160a81b031916600883901b610100600160a81b03161790556117d281613224565b506117dc816132e6565b506001600160a01b03167fccad446045fb1a917b54e951901bb734ca96aaa7456e49d98e2258958cb3ad3b8280a280f35b5034610322576040366003190112610322576040611829612bc8565b91600435815260008051602061421d833981519152602052209060018060a01b0316600052602052602060ff604060002054166040519015158152f35b503461032257806003193601126103225760008051602061419d833981519152546040516001600160a01b039091168152602090f35b503461032257806003193601126103225760405163044df8e760e41b8152602090f35b503461032257806003193601126103225760008051602061425d833981519152549060ff8260401c1615916001600160401b03811680159081611d53575b6001149081611d49575b159081611d40575b50611d315767ffffffffffffffff19811660011760008051602061425d8339815191525582611d04575b50611942613a1c565b60408051926119518285612c9b565b600d84526c23b2b72630bcb2b92a37b5b2b760991b60208501528151936119788386612c9b565b600385526223a2a760e91b6020860152611990613a1c565b611998613a1c565b8051906001600160401b038211611cf05781906119c360008051602061413d83398151915254612d70565b601f8111611c87575b50602090601f8311600114611c08578692611bfd575b50508160011b916000199060031b1c19161760008051602061413d833981519152555b83516001600160401b038111611be957611a2d60008051602061417d83398151915254612d70565b601f8111611b8b575b50602094601f8211600114611b0d579484958293949592611b02575b50508160011b916000199060031b1c19161760008051602061417d833981519152555b611a7d613a1c565b611a85613a1c565b611a8e33613178565b611a96613a1c565b611a9f336133a2565b50611aa933613224565b50428355600a600855611aba575080f35b60008051602061425d833981519152805460ff60401b1916905551600181527fc7f505b2f371ae2175ee4913f4499e1f2633a7b5936321eed1cdaeb6115181d290602090a180f35b015190503880611a52565b601f1982169560008051602061417d833981519152865280862091865b888110611b7357508360019596979810611b5a575b505050811b0160008051602061417d83398151915255611a75565b015160001960f88460031b161c19169055388080611b3f565b91926020600181928685015181550194019201611b2a565b60008051602061417d833981519152855260008051602061423d833981519152601f830160051c81019160208410611bdf575b601f0160051c01905b818110611bd45750611a36565b858155600101611bc7565b9091508190611bbe565b634e487b7160e01b84526041600452602484fd5b0151905038806119e2565b60008051602061413d83398151915287528187209250601f198416875b818110611c6f5750908460019594939210611c56575b505050811b0160008051602061413d83398151915255611a05565b015160001960f88460031b161c19169055388080611c3b565b92936020600181928786015181550195019301611c25565b60008051602061413d833981519152875290915060008051602061411d833981519152601f840160051c81019160208510611ce6575b90601f859493920160051c01905b818110611cd857506119cc565b878155849350600101611ccb565b9091508190611cbd565b634e487b7160e01b85526041600452602485fd5b68ffffffffffffffffff1916680100000000000000011760008051602061425d8339815191525538611939565b63f92ee8a960e01b8252600482fd5b9050153861190f565b303b159150611907565b8491506118fd565b50346103225780600319360112610322576020604051620151808152f35b503461032257602036600319011261032257600435611d966131ee565b6103e88111611dd1576020817fe4bdef48d9506df478b26f07b53e8fe43f098a2efbb70465e9a2ba8a821925ba92600955604051908152a180f35b63af18884560e01b8252600482fd5b50346103225780600319360112610322576020604051668e1bc9bf0400008152f35b5034610322578060031936011261032257611e1b6131ee565b60008051602061419d83398151915280546001600160a01b031981169091556000906001600160a01b03167f8be0079c531659141344cd1fd0a4f28419497f9722a3daafe3b4186f6b6457e08280a380f35b5034610322576020366003190112610322576020906040906001600160a01b03611e95612bb2565b16815260008051602061415d83398151915283522054604051908152f35b50346103225780600319360112610322576020600154604051908152f35b5034610322578060031936011261032257602060ff60065460a01c166040519015158152f35b50346103225780600319360112610322576003546040516001600160a01b039091168152602090f35b503461032257806003193601126103225760025460405160089190911c6001600160a01b03168152602090f35b50346103225780600319360112610322577f00000000000000000000000000000000000000000000000000000000000000006001600160a01b03163003611fa65760206040516000805160206141dd8339815191528152f35b63703e46dd60e11b8152600490fd5b50604036600319011261032257611fca612bb2565b906024356001600160401b0381116103d657611fea903690600401612cd7565b6001600160a01b037f00000000000000000000000000000000000000000000000000000000000000001630811490811561217a575b5061216b5761202c6131ee565b6040516352d1902d60e01b8152926001600160a01b0381169190602085600481865afa80958596612137575b5061207157634c9c8ce360e01b84526004839052602484fd5b9091846000805160206141dd83398151915281036121255750813b15612113576000805160206141dd83398151915280546001600160a01b031916821790557fbc7cd75a20ee27fd9adebab32041f755214dbc6bffa90cc0225b39da2e5c2d3b8480a281518390156120f957808360206111c095519101845af46120f3612e56565b9161409b565b505050346121045780f35b63b398979f60e01b8152600490fd5b634c9c8ce360e01b8452600452602483fd5b632a87526960e21b8552600452602484fd5b9095506020813d602011612163575b8161215360209383612c9b565b8101031261113757519438612058565b3d9150612146565b63703e46dd60e11b8252600482fd5b6000805160206141dd833981519152546001600160a01b0316141590503861201f565b5034610322578060031936011261032257603b546040516001600160a01b039091168152602090f35b503461032257806003193601126103225760206040516703782dace9d900008152f35b503461032257806003193601126103225780f35b503461032257602036600319011261032257603b5481906001600160a01b0316803b1561227457818091602460405180958193630852cd8d60e31b835260043560048401525af18015612267576122515780f35b61225a91612c9b565b8060001261032257388180f35b50604051903d90823e3d90fd5b50fd5b50346103225760403660031901126103225780612292612bb2565b603b546001600160a01b0316803b156122e8576040516340c10f1960e01b81526001600160a01b03929092166004830152602480359083015290919081908390604490829084905af18015612267576122515780f35b5050fd5b503461032257604036600319011261032257612306612bc8565b336001600160a01b03821603612322576111c0906004356135dd565b63334bd91960e11b8252600482fd5b5034610322578060031936011261032257602060405161107d8152f35b5034610322578060031936011261032257602060405160128152f35b5034610322576040366003190112610322576111c060043561238a612bc8565b906123976111b682612ea6565b61343c565b50346103225780600319360112610322576005546040516001600160a01b039091168152602090f35b503461032257806003193601126103225760206040517f3c11d16cbaffd01df69ce1c404f6340ee057498f5f00246190ea54220576a8488152f35b503461032257602036600319011261032257602061241f600435612ea6565b604051908152f35b503461032257606036600319011261032257612441612bb2565b612449612bc8565b6044359161245681612ec7565b3360009081526020919091526040902054936001850161247c575b506114a593506134cc565b8385106124f157506001600160a01b038116156124db5733156124c5576114a5936124a682612ec7565b60018060a01b0333166000526020528360406000209103905538612471565b634a1406b160e11b600052600060045260246000fd5b63e602df0560e01b600052600060045260246000fd5b6064908486637dc7a0d960e11b835233600452602452604452fd5b503461032257602036600319011261032257612526612bb2565b61252e6131ee565b600380546001600160a01b0319166001600160a01b038316908117909155906125609061255a81613224565b506132e6565b507fdf4e0b4461c624efdbb59f235b00095dfb1a237e057e146b4a39b44b1c90bcd38280a280f35b503461032257806003193601126103225760209054604051908152f35b503461032257806003193601126103225760206040516582d156d2e8548152f35b503461032257806003193601126103225760206000805160206141bd83398151915254604051908152f35b5034610322576040366003190112610322576004356024356126116131ee565b60065460ff8160a01c166129455760ff60a01b1916600160a01b17600655600554604051631c588c9d60e21b815261107d60048201526024810184905260448101839052610320606482015290602090829060849082906001600160a01b03165afa849181612911575b5061268b57600484610b03612dc2565b8060041b90808204601014901517156128fd5760009350600a90046126b0813061367d565b6004546126c89082906001600160a01b0316306139b7565b60018060a01b0360025460081c166040519163c3ff497760e01b6020840152426024840152602483526126fc604484612c9b565b6020926040519261270d8585612c9b565b8784526040519361271d85612c69565b61107d8552858501938452604085019382855260608601908a82526080870194855260a087019489865260c0880192610320845260e08901948552610100890195865260018060a01b036005541697883b156128f95760405163d52471c160e01b8152600481018c9052995160248b0152925160448a015291516001600160a01b03166064890152905160848801525161012060a48801528a95879590949093909290916127d090610144880190612bde565b935160c48701525160e486015251916023198582030161010486015282518082528882019189808360051b83010195019288915b8b8484106128c457505093516001600160a01b0316610124880152505050908390039183915084905af190816128b0575b5061287e57600484612845612dc2565b6308c379a014612865575b612858612e56565b50631efae81160e01b8152fd5b61286d612de0565b1561285057631efae81160e01b8152fd5b916040917ff9585ee5c4ecc766ab816d945301ff04829efd44b80e98b79d7d24fe255b7321938351928352820152a180f35b856128bd91969296612c9b565b9338612835565b919498509295600192959799506128e68291601f198682030187528a51612bde565b9801930193018c97959389979592612804565b8d80fd5b634e487b7160e01b84526011600452602484fd5b9091506020813d60201161293d575b8161292d60209383612c9b565b810103126111375751903861267b565b3d9150612920565b63067f34cf60e01b8452600484fd5b5034610322576040366003190112610322578060206129af612974612bb2565b603b5460405163095ea7b360e01b81526001600160a01b03928316600482015260248035908201529485939190921691839182906044820190565b03925af19081156129eb57602092916129ce575b506040519015158152f35b6129e59150823d8411611115576111078183612c9b565b386129c3565b6040513d84823e3d90fd5b5034610322578060031936011261032257604051908060008051602061413d8339815191525490612a2682612d70565b8085529160018116908115612aa65750600114612a4e575b61147a8461164c81860382612c9b565b60008051602061413d833981519152815260008051602061411d833981519152939250905b808210612a8c5750909150810160200161164c82612a3e565b919260018160209254838588010152019101909291612a73565b60ff191660208087019190915292151560051b8501909201925061164c9150839050612a3e565b503461032257602036600319011261032257612ae7612bb2565b612aef6131ee565b603b80546001600160a01b0319166001600160a01b039290921691909117905580f35b50346103225760203660031901126103225760043563ffffffff60e01b81168091036103d657602090637965db0b60e01b8114908115612b5757506040519015158152f35b6301ffc9a760e01b149050826129c3565b9050346103d65760803660031901126103d65760ff604060209360043581526007855281812060243582528552818120604435825285528181206064358252855220541615158152f35b600435906001600160a01b038216820361178157565b602435906001600160a01b038216820361178157565b919082519283825260005b848110612c0a575050826000602080949584010152601f8019910116010190565b80602080928401015182828601015201612be9565b91908203918211612c2c57565b634e487b7160e01b600052601160045260246000fd5b346117815760003660031901126117815760206040516b0d92289838d21a99680000008152f35b61012081019081106001600160401b03821117612c8557604052565b634e487b7160e01b600052604160045260246000fd5b90601f801991011681019081106001600160401b03821117612c8557604052565b6001600160401b038111612c8557601f01601f191660200190565b81601f8201121561178157803590612cee82612cbc565b92612cfc6040519485612c9b565b8284526020838301011161178157816000926020809301838601378301015290565b9181601f84011215611781578235916001600160401b038311611781576020808501948460051b01011161178157565b6004359061ffff8216820361178157565b6044359061ffff8216820361178157565b90600182811c92168015612da0575b6020831014612d8a57565b634e487b7160e01b600052602260045260246000fd5b91607f1691612d7f565b90816020910312611781575180151581036117815790565b60009060033d11612dcf57565b905060046000803e60005160e01c90565b600060443d10612e45576040513d600319016004823e8051913d60248401116001600160401b03841117612e5057828201928351916001600160401b038311612e48573d84016003190185840160200111612e485750612e4592910160200190612c9b565b90565b949350505050565b92915050565b3d15612e81573d90612e6782612cbc565b91612e756040519384612c9b565b82523d6000602084013e565b606090565b81810292918115918404141715612c2c57565b91908201809211612c2c57565b60005260008051602061421d83398151915260205260016040600020015490565b6001600160a01b031660009081527f52c63247e1f47db19d5ce0460030c497f067ca4cebf71ba98eeadabe20bace016020526040902090565b9190811015612f105760051b0190565b634e487b7160e01b600052603260045260246000fd5b92612f789261ffff60409361107d87521660208601528285015260a0606085015261ffff81511660a085015260018060a01b0360208201511660c08501520151606060e0840152610100830190612bde565b8181036080909201919091528281526001600160fb1b0383116117815760209260051b809284830137010190565b90816020910312611781575160038110156117815790565b60031115610e5b57565b919082604091031261178157815160038110156117815760209092015190565b90939295948651946020880195862061ffff8416600052600760205260406000208260005260205261ffff60406000209516948560005260205260406000209060005260205260ff6040600020541661316857600254604051606081019590949160081c6001600160a01b0316906001600160401b03871186881017612c85576020966040528552858501528860408501526130a660018060a01b03600554169360405197889687958695634ce0b68d60e11b875260048701612f26565b03915afa90811561111c57600091613149575b5015613140576001926130d26020825183010183612fa6565b6003811015610e5b57840361313957906020826130f29351010190612fc8565b905060015481811461312d5760085461310b8284612c1f565b1161312d57613120612710926131299261382a565b60095490612e86565b0490565b50509050600190600090565b5050600090565b50600091508190565b613162915060203d602011611115576111078183612c9b565b386130b9565b5050505050509050600090600090565b6001600160a01b031680156131d85760008051602061419d83398151915280546001600160a01b0319811683179091556001600160a01b03167f8be0079c531659141344cd1fd0a4f28419497f9722a3daafe3b4186f6b6457e0600080a3565b631e4fbdf760e01b600052600060045260246000fd5b60008051602061419d833981519152546001600160a01b0316330361320f57565b63118cdaa760e01b6000523360045260246000fd5b6001600160a01b03811660009081527f549fe2656c81d2947b3b913f0a53b9ea86c71e049f3a1b8aa23c09a8a05cb8d4602052604090205460ff166132e0576001600160a01b031660008181527f549fe2656c81d2947b3b913f0a53b9ea86c71e049f3a1b8aa23c09a8a05cb8d460205260408120805460ff191660011790553391907f9f2df0fed2c77648de5860a4cc508cd0818c85b8b8a1ab4ceeef8d981c8956a6906000805160206140fd8339815191529080a4600190565b50600090565b6001600160a01b03811660009081527ffcf1b2032b1187d9f2a29150c4a608b3b6f0bdf8dd007801f86a276af50cad92602052604090205460ff166132e0576001600160a01b031660008181527ffcf1b2032b1187d9f2a29150c4a608b3b6f0bdf8dd007801f86a276af50cad9260205260408120805460ff191660011790553391907f3c11d16cbaffd01df69ce1c404f6340ee057498f5f00246190ea54220576a848906000805160206140fd8339815191529080a4600190565b6001600160a01b03811660009081527fb7db2dd08fcb62d0c9e08c51941cae53c267786a0b75803fb7960902fc8ef97d602052604090205460ff166132e0576001600160a01b031660008181527fb7db2dd08fcb62d0c9e08c51941cae53c267786a0b75803fb7960902fc8ef97d60205260408120805460ff191660011790553391906000805160206140fd8339815191528180a4600190565b600081815260008051602061421d833981519152602090815260408083206001600160a01b038616845290915290205460ff1661313957600081815260008051602061421d833981519152602090815260408083206001600160a01b0395909516808452949091528120805460ff19166001179055339291906000805160206140fd8339815191529080a4600190565b6001600160a01b0316908115611069576001600160a01b031691821561357d57600082815260008051602061415d83398151915260205260408120548281106135635791604082826000805160206141fd83398151915295876020965260008051602061415d8339815191528652038282205586815260008051602061415d833981519152845220818154019055604051908152a3565b916064928463391434e360e21b8452600452602452604452fd5b63ec442f0560e01b600052600060045260246000fd5b600081815260008051602061421d8339815191526020908152604080832033845290915290205460ff16156135c55750565b63e2517d3f60e01b6000523360045260245260446000fd5b600081815260008051602061421d833981519152602090815260408083206001600160a01b038616845290915290205460ff161561313957600081815260008051602061421d833981519152602090815260408083206001600160a01b0395909516808452949091528120805460ff19169055339291907ff6391f5c32d9c69d2a47ea670b442974b53935d1edc7fd64eb21e047a839171b9080a4600190565b6001600160a01b031690811561357d576000805160206141fd8339815191526020826136ba6000946000805160206141bd83398151915254612e99565b6000805160206141bd8339815191525584845260008051602061415d833981519152825260408420818154019055604051908152a3565b906803782dace9d8ffffff198201918213600116612c2c57565b906806f05b59d3b1ffffff198201918213600116612c2c57565b9068ad78ebc5ac61ffffff198201918213600116612c2c57565b906856bc75e2d630ffffff198201918213600116612c2c57565b90682b5e3af16b187fffff198201918213600116612c2c57565b906815af1d78b58c3fffff198201918213600116612c2c57565b90680ad78ebc5ac61fffff198201918213600116612c2c57565b9068056bc75e2d630fffff198201918213600116612c2c57565b906802b5e3af16b187ffff198201918213600116612c2c57565b9068015af1d78b58c3ffff198201918213600116612c2c57565b908168056bc75e2d6310000001918212600116612c2c57565b91909160008382019384129112908015821691151617612c2c57565b91906000925b81811061383b575050565b9092906000198114612c2c5760010190670de0b6b3a76400008202828104670de0b6b3a76400001483151715612c2c576702ea11e32ad5000090684e1003b28d927fffff198101908113600116612c2c576138b89060008112906138ad90660aa87bee53800090836139a85790613fff565b901561399a57613bd9565b9081670de0b6b3a764000001918212600116612c2c57600082128015926138e4929161398b5790614069565b9060010361397d575b806703782dace9d9000003906703782dace9d900008211612c2c57670de0b6b3a76400008202918204670de0b6b3a764000014906703782dace9d90000141715612c2c5768138400eca364a00000900490816b0d92289838d21a996800000002916b0d92289838d21a9968000000830403612c2c57670de0b6b3a7640000613976920490612e99565b9290613830565b61398690613a4a565b6138ed565b61399490613a4a565b90614069565b6139a390613a4a565b613bd9565b6139b190613a4a565b90613fff565b916001600160a01b0383169182156124db576001600160a01b03169283156124c5577f8c5be1e5ebec7d5bd14f71427d1e84f3dd0314c0f7b2291e5b200ac8c7c3b92591613a06602092612ec7565b85600052825280604060002055604051908152a3565b60ff60008051602061425d8339815191525460401c1615613a3957565b631afcd79f60e31b60005260046000fd5b600160ff1b8114612c2c5760000390565b90606482029180830560641490151715612c2c57565b906b02df0ab5a80a22c61ab5a7008202918083056b02df0ab5a80a22c61ab5a7001490151715612c2c57565b90693f1fce3da636ea5cf850820291808305693f1fce3da636ea5cf8501490151715612c2c57565b90690127fa27722cc06cc5e2820291808305690127fa27722cc06cc5e21490151715612c2c57565b9068280e60114edb805d0382029180830568280e60114edb805d031490151715612c2c57565b90680ebc5fb41746121110820291808305680ebc5fb417461211101490151715612c2c57565b906808f00f760a4b2db55d8202918083056808f00f760a4b2db55d1490151715612c2c57565b906806f5f17757889379378202918083056806f5f17757889379371490151715612c2c57565b818102929160008212600160ff1b821416612c2c578184051490151715612c2c57565b8115613bc357600160ff1b8114600019831416612c2c570590565b634e487b7160e01b600052601260045260246000fd5b680238fd42c5cf03ffff1981121580613fec575b613bf690614039565b60008112613fc7576806f05b59d3b20000008112613f8d57613c179061370b565b613c39770195e54c5dd42177f53a27172fa9ec63026282700000000091613a5b565b68056bc75e2d631000009068ad78ebc5ac62000000811215613f6d575b6856bc75e2d631000000811215613f52575b682b5e3af16b18800000811215613f37575b6815af1d78b58c400000811215613f1c575b680ad78ebc5ac6200000811215613f01575b68056bc75e2d63100000811215613ee6575b6802b5e3af16b1880000811215613ecb575b68015af1d78b58c40000811215613ea1575b808080808080808080613ce6816137f5565b613cf08280613b85565b68056bc75e2d631000009005600290059081613d0b9161380e565b91613d1591613b85565b68056bc75e2d631000009005600390059081613d309161380e565b91613d3a91613b85565b68056bc75e2d631000009005600490059081613d559161380e565b91613d5f91613b85565b68056bc75e2d631000009005600590059081613d7a9161380e565b91613d8491613b85565b68056bc75e2d631000009005600690059081613d9f9161380e565b91613da991613b85565b68056bc75e2d631000009005600790059081613dc49161380e565b91613dce91613b85565b68056bc75e2d631000009005600890059081613de99161380e565b91613df391613b85565b68056bc75e2d631000009005600990059081613e0e9161380e565b91613e1891613b85565b68056bc75e2d631000009005600a90059081613e339161380e565b91613e3d91613b85565b68056bc75e2d631000009005600b90059081613e589161380e565b91613e6291613b85565b68056bc75e2d631000009005600c9005613e7b9161380e565b613e8491613b85565b68056bc75e2d63100000900590613e9a91613b85565b6064900590565b613eb6613eb0613ec5926137db565b92613b5f565b68056bc75e2d63100000900590565b90613cd4565b613eb6613eda613ee0926137c1565b92613b39565b90613cc2565b613eb6613ef5613efb926137a7565b92613b13565b90613cb0565b613eb6613f10613f169261378d565b92613aed565b90613c9e565b613eb6613f2b613f3192613773565b92613ac5565b90613c8c565b613eb6613f46613f4c92613759565b92613a9d565b90613c7a565b613eb6613f61613f679261373f565b92613a71565b90613c68565b613f779150613725565b6e01855144814a7ff805980ff008400090613c56565b6803782dace9d90000008112613fbc57613fa6906136f1565b613c396b1425982cf597cd205cef738091613a5b565b613c39600191613a5b565b613fe36139a36ec097ce7bc90715b34b9f100000000092613a4a565b612e4591613ba8565b5068070c1cc73b00c80000811315613bed565b9061400991612e86565b806140145750600090565b6000198101908111612c2c57670de0b6b3a7640000900460018101809111612c2c5790565b1561404057565b62461bcd60e51b6000908152602060045260076024526642414c2330303960c81b604452606490fd5b80614075575050600090565b670de0b6b3a76400008102908104670de0b6b3a764000003612c2c578115613bc3570490565b906140c157508051156140b057805190602001fd5b63d6bda27560e01b60005260046000fd5b815115806140f3575b6140d2575090565b639996b31560e01b60009081526001600160a01b0391909116600452602490fd5b50803b156140ca56fe2f8788117e7eff1d82e926ec794901d17c78024a50270940304540a733656f0d2ae08a8e29253f69ac5d979a101956ab8f8d9d7ded63fa7a83b16fc47648eab052c63247e1f47db19d5ce0460030c497f067ca4cebf71ba98eeadabe20bace0352c63247e1f47db19d5ce0460030c497f067ca4cebf71ba98eeadabe20bace0052c63247e1f47db19d5ce0460030c497f067ca4cebf71ba98eeadabe20bace049016d09d72d40fdae2fd8ceac6b6234c7706214fd39c1cd1e609a0528c19930052c63247e1f47db19d5ce0460030c497f067ca4cebf71ba98eeadabe20bace02360894a13ba1a3210667c828492db98dca3e2076cc3735a920a3ca505d382bbcddf252ad1be2c89b69c2b068fc378daa952ba7f163c4a11628f55a4df523b3ef02dd7bc7dec4dceedda775e58dd541e08a116c6c53815c0bd028192f7b62680046a2803e59a4de4e7a4c574b1243f25977ac4c77d5a1a4a609b5394cebb4a2aaf0c57e16840df040f15088dc2f81fe391c3923bec73e23a9662efc9c229c6a00a2646970667358221220a489e5456c28990207c44dc826593d9a2393df42d94c7454b66008e9b7f51e9f64736f6c634300081c0033",
  "linkReferences": {},
  "deployedLinkReferences": {}
}