{
  "_format": "hh-sol-artifact-1",
  "contractName": "RoundsVoting",
  "sourceName": "contracts/transactions/RoundsVoting.sol",
  "abi": [
    {
      "inputs": [],
      "stateMutability": "nonpayable",
      "type": "constructor"
    },
    {
      "inputs": [],
      "name": "CallerNotTransactions",
      "type": "error"
    },
    {
      "inputs": [
        {
          "internalType": "uint256",
          "name": "numValidators",
          "type": "uint256"
        },
        {
          "internalType": "uint256",
          "name": "availableValidators",
          "type": "uint256"
        }
      ],
      "name": "InsufficientActiveValidators",
      "type": "error"
    },
    {
      "inputs": [],
      "name": "InvalidInitialization",
      "type": "error"
    },
    {
      "inputs": [],
      "name": "NotInitializing",
      "type": "error"
    },
    {
      "inputs": [
        {
          "internalType": "address",
          "name": "owner",
          "type": "address"
        }
      ],
      "name": "OwnableInvalidOwner",
      "type": "error"
    },
    {
      "inputs": [
        {
          "internalType": "address",
          "name": "account",
          "type": "address"
        }
      ],
      "name": "OwnableUnauthorizedAccount",
      "type": "error"
    },
    {
      "anonymous": false,
      "inputs": [
        {
          "indexed": false,
          "internalType": "uint64",
          "name": "version",
          "type": "uint64"
        }
      ],
      "name": "Initialized",
      "type": "event"
    },
    {
      "anonymous": false,
      "inputs": [
        {
          "indexed": true,
          "internalType": "address",
          "name": "previousOwner",
          "type": "address"
        },
        {
          "indexed": true,
          "internalType": "address",
          "name": "newOwner",
          "type": "address"
        }
      ],
      "name": "OwnershipTransferStarted",
      "type": "event"
    },
    {
      "anonymous": false,
      "inputs": [
        {
          "indexed": true,
          "internalType": "address",
          "name": "previousOwner",
          "type": "address"
        },
        {
          "indexed": true,
          "internalType": "address",
          "name": "newOwner",
          "type": "address"
        }
      ],
      "name": "OwnershipTransferred",
      "type": "event"
    },
    {
      "inputs": [],
      "name": "acceptOwnership",
      "outputs": [],
      "stateMutability": "nonpayable",
      "type": "function"
    },
    {
      "inputs": [],
      "name": "addressManager",
      "outputs": [
        {
          "internalType": "contract IAddressManager",
          "name": "",
          "type": "address"
        }
      ],
      "stateMutability": "view",
      "type": "function"
    },
    {
      "inputs": [
        {
          "components": [
            {
              "internalType": "enum ITransactions.ResultType",
              "name": "result",
              "type": "uint8"
            },
            {
              "internalType": "enum ITransactions.VoteType",
              "name": "txExecutionResult",
              "type": "uint8"
            },
            {
              "internalType": "enum ITransactions.TransactionStatus",
              "name": "previousStatus",
              "type": "uint8"
            },
            {
              "internalType": "enum ITransactions.TransactionStatus",
              "name": "status",
              "type": "uint8"
            },
            {
              "internalType": "address",
              "name": "txOrigin",
              "type": "address"
            },
            {
              "internalType": "address",
              "name": "sender",
              "type": "address"
            },
            {
              "internalType": "address",
              "name": "recipient",
              "type": "address"
            },
            {
              "internalType": "address",
              "name": "activator",
              "type": "address"
            },
            {
              "internalType": "uint256",
              "name": "txSlot",
              "type": "uint256"
            },
            {
              "internalType": "uint256",
              "name": "initialRotations",
              "type": "uint256"
            },
            {
              "internalType": "uint256",
              "name": "numOfInitialValidators",
              "type": "uint256"
            },
            {
              "internalType": "uint256",
              "name": "epoch",
              "type": "uint256"
            },
            {
              "internalType": "bytes32",
              "name": "id",
              "type": "bytes32"
            },
            {
              "internalType": "bytes32",
              "name": "randomSeed",
              "type": "bytes32"
            },
            {
              "internalType": "bytes32",
              "name": "txExecutionHash",
              "type": "bytes32"
            },
            {
              "internalType": "bytes32",
              "name": "resultHash",
              "type": "bytes32"
            },
            {
              "internalType": "bytes",
              "name": "txCalldata",
              "type": "bytes"
            },
            {
              "internalType": "bytes",
              "name": "eqBlocksOutputs",
              "type": "bytes"
            },
            {
              "components": [
                {
                  "internalType": "uint256",
                  "name": "activationBlock",
                  "type": "uint256"
                },
                {
                  "internalType": "uint256",
                  "name": "processingBlock",
                  "type": "uint256"
                },
                {
                  "internalType": "uint256",
                  "name": "proposalBlock",
                  "type": "uint256"
                }
              ],
              "internalType": "struct ITransactions.ReadStateBlockRange[]",
              "name": "readStateBlockRanges",
              "type": "tuple[]"
            },
            {
              "internalType": "uint256",
              "name": "validUntil",
              "type": "uint256"
            },
            {
              "internalType": "uint256",
              "name": "value",
              "type": "uint256"
            },
            {
              "internalType": "uint256",
              "name": "lockedStorageUnitPrice",
              "type": "uint256"
            },
            {
              "internalType": "uint256",
              "name": "storageFeeUsed",
              "type": "uint256"
            }
          ],
          "internalType": "struct ITransactions.Transaction",
          "name": "_tx",
          "type": "tuple"
        },
        {
          "internalType": "bool",
          "name": "_isTxHanging",
          "type": "bool"
        }
      ],
      "name": "getMajorityVoteAndSetResult",
      "outputs": [
        {
          "internalType": "enum ITransactions.ResultType",
          "name": "majorVoted",
          "type": "uint8"
        },
        {
          "internalType": "bool",
          "name": "leaderRotated",
          "type": "bool"
        },
        {
          "internalType": "bool",
          "name": "tribunalAppeal",
          "type": "bool"
        },
        {
          "internalType": "enum ITransactions.TransactionStatus",
          "name": "newStatus",
          "type": "uint8"
        },
        {
          "components": [
            {
              "internalType": "uint256",
              "name": "round",
              "type": "uint256"
            },
            {
              "internalType": "uint256",
              "name": "leaderIndex",
              "type": "uint256"
            },
            {
              "internalType": "uint256",
              "name": "votesCommitted",
              "type": "uint256"
            },
            {
              "internalType": "uint256",
              "name": "votesRevealed",
              "type": "uint256"
            },
            {
              "internalType": "uint256",
              "name": "appealBond",
              "type": "uint256"
            },
            {
              "internalType": "uint256",
              "name": "rotationsLeft",
              "type": "uint256"
            },
            {
              "internalType": "enum ITransactions.ResultType",
              "name": "result",
              "type": "uint8"
            },
            {
              "internalType": "address[]",
              "name": "roundValidators",
              "type": "address[]"
            },
            {
              "internalType": "enum ITransactions.VoteType[]",
              "name": "validatorVotes",
              "type": "uint8[]"
            },
            {
              "internalType": "bytes32[]",
              "name": "validatorVotesHash",
              "type": "bytes32[]"
            },
            {
              "internalType": "bytes32[]",
              "name": "validatorResultHash",
              "type": "bytes32[]"
            }
          ],
          "internalType": "struct ITransactions.RoundData",
          "name": "newRoundData",
          "type": "tuple"
        },
        {
          "components": [
            {
              "internalType": "address",
              "name": "slashedLeader",
              "type": "address"
            },
            {
              "internalType": "bytes32",
              "name": "leaderResultHash",
              "type": "bytes32"
            }
          ],
          "internalType": "struct ITransactions.TribunalAppealData",
          "name": "tribunalAppealData",
          "type": "tuple"
        }
      ],
      "stateMutability": "nonpayable",
      "type": "function"
    },
    {
      "inputs": [
        {
          "internalType": "address",
          "name": "_addressManager",
          "type": "address"
        }
      ],
      "name": "initialize",
      "outputs": [],
      "stateMutability": "nonpayable",
      "type": "function"
    },
    {
      "inputs": [],
      "name": "owner",
      "outputs": [
        {
          "internalType": "address",
          "name": "",
          "type": "address"
        }
      ],
      "stateMutability": "view",
      "type": "function"
    },
    {
      "inputs": [],
      "name": "pendingOwner",
      "outputs": [
        {
          "internalType": "address",
          "name": "",
          "type": "address"
        }
      ],
      "stateMutability": "view",
      "type": "function"
    },
    {
      "inputs": [],
      "name": "renounceOwnership",
      "outputs": [],
      "stateMutability": "nonpayable",
      "type": "function"
    },
    {
      "inputs": [
        {
          "internalType": "address",
          "name": "newOwner",
          "type": "address"
        }
      ],
      "name": "transferOwnership",
      "outputs": [],
      "stateMutability": "nonpayable",
      "type": "function"
    },
    {
      "inputs": [
        {
          "internalType": "bytes32",
          "name": "_txId",
          "type": "bytes32"
        },
        {
          "internalType": "uint256",
          "name": "_round",
          "type": "uint256"
        },
        {
          "internalType": "address",
          "name": "_validator",
          "type": "address"
        },
        {
          "internalType": "bytes32",
          "name": "_commitHash",
          "type": "bytes32"
        },
        {
          "internalType": "uint256",
          "name": "_validatorIndex",
          "type": "uint256"
        },
        {
          "components": [
            {
              "internalType": "uint256",
              "name": "round",
              "type": "uint256"
            },
            {
              "internalType": "uint256",
              "name": "leaderIndex",
              "type": "uint256"
            },
            {
              "internalType": "uint256",
              "name": "votesCommitted",
              "type": "uint256"
            },
            {
              "internalType": "uint256",
              "name": "votesRevealed",
              "type": "uint256"
            },
            {
              "internalType": "uint256",
              "name": "appealBond",
              "type": "uint256"
            },
            {
              "internalType": "uint256",
              "name": "rotationsLeft",
              "type": "uint256"
            },
            {
              "internalType": "enum ITransactions.ResultType",
              "name": "result",
              "type": "uint8"
            },
            {
              "internalType": "address[]",
              "name": "roundValidators",
              "type": "address[]"
            },
            {
              "internalType": "enum ITransactions.VoteType[]",
              "name": "validatorVotes",
              "type": "uint8[]"
            },
            {
              "internalType": "bytes32[]",
              "name": "validatorVotesHash",
              "type": "bytes32[]"
            },
            {
              "internalType": "bytes32[]",
              "name": "validatorResultHash",
              "type": "bytes32[]"
            }
          ],
          "internalType": "struct ITransactions.RoundData",
          "name": "_roundData",
          "type": "tuple"
        }
      ],
      "name": "updateCommitVote",
      "outputs": [],
      "stateMutability": "nonpayable",
      "type": "function"
    },
    {
      "inputs": [
        {
          "internalType": "bytes32",
          "name": "_txId",
          "type": "bytes32"
        },
        {
          "internalType": "uint256",
          "name": "_round",
          "type": "uint256"
        },
        {
          "internalType": "address",
          "name": "_newLeader",
          "type": "address"
        },
        {
          "internalType": "uint256",
          "name": "_leaderIndex",
          "type": "uint256"
        },
        {
          "internalType": "bool",
          "name": "_resetVotes",
          "type": "bool"
        }
      ],
      "name": "updateLeaderAndResetVotes",
      "outputs": [],
      "stateMutability": "nonpayable",
      "type": "function"
    },
    {
      "inputs": [
        {
          "components": [
            {
              "internalType": "enum ITransactions.ResultType",
              "name": "result",
              "type": "uint8"
            },
            {
              "internalType": "enum ITransactions.VoteType",
              "name": "txExecutionResult",
              "type": "uint8"
            },
            {
              "internalType": "enum ITransactions.TransactionStatus",
              "name": "previousStatus",
              "type": "uint8"
            },
            {
              "internalType": "enum ITransactions.TransactionStatus",
              "name": "status",
              "type": "uint8"
            },
            {
              "internalType": "address",
              "name": "txOrigin",
              "type": "address"
            },
            {
              "internalType": "address",
              "name": "sender",
              "type": "address"
            },
            {
              "internalType": "address",
              "name": "recipient",
              "type": "address"
            },
            {
              "internalType": "address",
              "name": "activator",
              "type": "address"
            },
            {
              "internalType": "uint256",
              "name": "txSlot",
              "type": "uint256"
            },
            {
              "internalType": "uint256",
              "name": "initialRotations",
              "type": "uint256"
            },
            {
              "internalType": "uint256",
              "name": "numOfInitialValidators",
              "type": "uint256"
            },
            {
              "internalType": "uint256",
              "name": "epoch",
              "type": "uint256"
            },
            {
              "internalType": "bytes32",
              "name": "id",
              "type": "bytes32"
            },
            {
              "internalType": "bytes32",
              "name": "randomSeed",
              "type": "bytes32"
            },
            {
              "internalType": "bytes32",
              "name": "txExecutionHash",
              "type": "bytes32"
            },
            {
              "internalType": "bytes32",
              "name": "resultHash",
              "type": "bytes32"
            },
            {
              "internalType": "bytes",
              "name": "txCalldata",
              "type": "bytes"
            },
            {
              "internalType": "bytes",
              "name": "eqBlocksOutputs",
              "type": "bytes"
            },
            {
              "components": [
                {
                  "internalType": "uint256",
                  "name": "activationBlock",
                  "type": "uint256"
                },
                {
                  "internalType": "uint256",
                  "name": "processingBlock",
                  "type": "uint256"
                },
                {
                  "internalType": "uint256",
                  "name": "proposalBlock",
                  "type": "uint256"
                }
              ],
              "internalType": "struct ITransactions.ReadStateBlockRange[]",
              "name": "readStateBlockRanges",
              "type": "tuple[]"
            },
            {
              "internalType": "uint256",
              "name": "validUntil",
              "type": "uint256"
            },
            {
              "internalType": "uint256",
              "name": "value",
              "type": "uint256"
            },
            {
              "internalType": "uint256",
              "name": "lockedStorageUnitPrice",
              "type": "uint256"
            },
            {
              "internalType": "uint256",
              "name": "storageFeeUsed",
              "type": "uint256"
            }
          ],
          "internalType": "struct ITransactions.Transaction",
          "name": "_tx",
          "type": "tuple"
        },
        {
          "internalType": "uint256",
          "name": "_round",
          "type": "uint256"
        },
        {
          "internalType": "uint256",
          "name": "_validatorIndex",
          "type": "uint256"
        },
        {
          "internalType": "bytes32",
          "name": "_resultVoteHash",
          "type": "bytes32"
        },
        {
          "internalType": "enum ITransactions.VoteType",
          "name": "_voteType",
          "type": "uint8"
        }
      ],
      "name": "updateRevealVote",
      "outputs": [
        {
          "internalType": "enum ITransactions.ResultType",
          "name": "majorVoted",
          "type": "uint8"
        },
        {
          "internalType": "bool",
          "name": "isLastVote",
          "type": "bool"
        },
        {
          "internalType": "bool",
          "name": "leaderRotated",
          "type": "bool"
        },
        {
          "internalType": "bool",
          "name": "tribunalAppeal",
          "type": "bool"
        },
        {
          "internalType": "enum ITransactions.TransactionStatus",
          "name": "newStatus",
          "type": "uint8"
        },
        {
          "components": [
            {
              "internalType": "uint256",
              "name": "round",
              "type": "uint256"
            },
            {
              "internalType": "uint256",
              "name": "leaderIndex",
              "type": "uint256"
            },
            {
              "internalType": "uint256",
              "name": "votesCommitted",
              "type": "uint256"
            },
            {
              "internalType": "uint256",
              "name": "votesRevealed",
              "type": "uint256"
            },
            {
              "internalType": "uint256",
              "name": "appealBond",
              "type": "uint256"
            },
            {
              "internalType": "uint256",
              "name": "rotationsLeft",
              "type": "uint256"
            },
            {
              "internalType": "enum ITransactions.ResultType",
              "name": "result",
              "type": "uint8"
            },
            {
              "internalType": "address[]",
              "name": "roundValidators",
              "type": "address[]"
            },
            {
              "internalType": "enum ITransactions.VoteType[]",
              "name": "validatorVotes",
              "type": "uint8[]"
            },
            {
              "internalType": "bytes32[]",
              "name": "validatorVotesHash",
              "type": "bytes32[]"
            },
            {
              "internalType": "bytes32[]",
              "name": "validatorResultHash",
              "type": "bytes32[]"
            }
          ],
          "internalType": "struct ITransactions.RoundData",
          "name": "newRoundData",
          "type": "tuple"
        },
        {
          "components": [
            {
              "internalType": "address",
              "name": "slashedLeader",
              "type": "address"
            },
            {
              "internalType": "bytes32",
              "name": "leaderResultHash",
              "type": "bytes32"
            }
          ],
          "internalType": "struct ITransactions.TribunalAppealData",
          "name": "tribunalAppealData",
          "type": "tuple"
        }
      ],
      "stateMutability": "nonpayable",
      "type": "function"
    }
  ],
  "bytecode": "0x6080806040523460d2577ff0c57e16840df040f15088dc2f81fe391c3923bec73e23a9662efc9c229c6a005460ff8160401c1660c1576002600160401b03196001600160401b03821601605c575b6040516136a790816100d88239f35b6001600160401b0319166001600160401b039081177ff0c57e16840df040f15088dc2f81fe391c3923bec73e23a9662efc9c229c6a005581527fc7f505b2f371ae2175ee4913f4499e1f2633a7b5936321eed1cdaeb6115181d290602090a13880604d565b63f92ee8a960e01b60005260046000fd5b600080fdfe608080604052600436101561001357600080fd5b600090813560e01c9081633ab76e9f1461226f57508063715018a6146121ee57806379ba50971461219d5780638858751314611def5780638da5cb5b14611db9578063998f97991461197b578063a6cd198d14610ed5578063b386a958146102e7578063c4d66de81461015a578063e30c3978146101245763f2fde38b1461009a57600080fd5b34610121576020366003190112610121576100b36122a9565b6100bb612bb9565b60008051602061365283398151915280546001600160a01b0319166001600160a01b03928316908117909155600080516020613612833981519152549091167f38d16b8cac22d99fc7c124b9cd0de2d3fa1faef420bfe791d8c362d765e227008380a380f35b80fd5b5034610121578060031936011261012157600080516020613652833981519152546040516001600160a01b039091168152602090f35b5034610121576020366003190112610121576101746122a9565b600080516020613632833981519152549060ff8260401c1615916001600160401b038116801590816102df575b60011490816102d5575b1590816102cc575b506102bd5767ffffffffffffffff1981166001176000805160206136328339815191525582610290575b506101e66135e3565b6101ee6135e3565b6101f66135e3565b331561027c5761020533612bef565b82546001600160a01b0319166001600160a01b03919091161782556102275780f35b60ff60401b196000805160206136328339815191525416600080516020613632833981519152557fc7f505b2f371ae2175ee4913f4499e1f2633a7b5936321eed1cdaeb6115181d2602060405160018152a180f35b631e4fbdf760e01b83526004839052602483fd5b68ffffffffffffffffff1916680100000000000000011760008051602061363283398151915255386101dd565b63f92ee8a960e01b8452600484fd5b905015386101b3565b303b1591506101ab565b8491506101a1565b50346101215760a0366003190112610121576004356001600160401b038111610df25761031890369060040161240b565b6044359160243591608435906005821015610e0157610335612b28565b916040519561034387612305565b60008088526020808901919091528554604051631bae711d60e21b8152919082906001600160a01b0316818061037b600482016127fe565b03915afa908115610c4f578691610e9b575b506001600160a01b03163303610e8c57849585928694879699976103af612c5d565b9061018083019586519260018060a01b031694853b15610e01576103f660405191639f06967360e01b83528560048401528860248401528360448401526064830190612687565b8281608481838a5af18015610df657908391610e77575b5050843b15610df2576040519063253ae15f60e11b825283600483015286602483015260448201526064356064820152818160848183895af1801561076557908291610e62575b5050604051906331d8f2bf60e21b825282600483015285602483015260208260448184895af1918215610e55578192610e21575b5060405191635af5446960e01b83528360048401528660248401528183604481895afa928315610765578293610e05575b5060e08301515114968761053b575b5050506104ea8a8a61053761051a8f6105078e8e8e8e6040519a8b809b612657565b60208a01521515604089015215156060880152608087019061267a565b61010060a0860152610100850190612705565b82516001600160a01b031660c085015260209092015160e0840152565b0390f35b959c50959850955095509650965061055a6101e0870193845190612d69565b96803b15610e01578288610587928b83604051809681958294636b67ad7d60e11b84528d60048501612b99565b03925af18015610df657908391610ddd575b50508193826040516105aa81612305565b60008152600060208201526105bd612b28565b946105c6612c5d565b966105cf612d09565b9560408c0190815192600f841015610dc9578f6001161560001461087957505050508260068c10156108655760048c036107b757505050600197818b604460405180998193635af5446960e01b8352886004840152602483015260018060a01b03165afa958615610765578296610793575b50602086015161066d60018060a01b0361065f8360e08b0151612a5c565b511691610140890151612a5c565b516040519161067b83612305565b825260208201529a60a0600697015115155b6106ba575b50505050506105379361051a936104ea9893610507935b949791909681959a839785966104c8565b9091939694508295506106cf6106d593612f0e565b91612f99565b8051919390911561077457506001946002946001600160a01b0390911690813b156107705791839161071e9383604051809681958294635537b6d160e01b845260048401612af5565b03925af1801561076557610750575b50506105379361051a936104ea9893610507935b9381959a849850839750610692565b61075b828092612320565b610121578061072d565b6040513d84823e3d90fd5b8380fd5b905061051a94506104ea98935061053795915061050792600690610741565b6107b09196503d8084833e6107a88183612320565b810190612a37565b9438610641565b919b9099919660018c036107ce575060059661068d565b60038c036107df5750600c9661068d565b604051632ba69b2960e21b8152600481018690526006985090602090829060249082906001600160a01b03165afa90811561085a578491610823575b50151561068d565b90506020813d602011610852575b8161083e60209383612320565b8101031261084d57513861081b565b600080fd5b3d9150610831565b6040513d86823e3d90fd5b634e487b7160e01b84526021600452602484fd5b949e939c9899929895969195919460058a148f81610db5575b8115610d7a575b50156108bf575050505050505050506105379361051a936104ea989361050793906106a9565b9091929496985060649395979950602060018060a01b038a541660405195868092631bae711d60e21b8252846004830152600e60248301526d2937bab73239a1b932b0ba34b7b760911b60448301525afa938415610d6f578994610d2f575b5061092887612f0e565b9160018701809711610d1b57916109809893918a95936040519a8b9663fc01e37f60e01b885260806004890152610963608489018751612657565b610975602087015160a48a0190612687565b5160c488019061267a565b610992606085015160e488019061267a565b60808401516001600160a01b0390811661010488015260a0850151811661012488015260c0850151811661014488015260e0850151166101648701526101008401516101848701526101208401516101a48701526101408401516101c48701526101608401516101e4870152516102048601526101a08301516102248601526101c0830151610244860152516102648501526102008201516102e0610284860152610a5e90610a4690610364870190612ea8565b610220840151868203608319016102a4880152612ea8565b9161024081015192608319868203016102c487015260208085519283815201940190875b818110610ce657505050610ae1859387936102c084610260889601516102e48701526102808101516103048701526102a081015161032487015201516103448501528a6024850152846044850152600319848303016064850152612ab8565b03926001600160a01b03165af18015610cdb5785948691610c73575b50849660018060a01b031690813b15610c6f57610b3487928392604051948580948193635537b6d160e01b83528b60048401612af5565b03925af18015610c4f57908691610c5a575b505060e084015151610b6f575050505050946105076105379361051a936104ea986006906106a9565b60405160016230803d60e21b0319815260048101849052959650939492936001600160a01b03169290919060208160248189885af18015610c4f57610c20575b50823b15610c1c5791610bdd93918580946040519687958694859363bda6b95760e01b855260048501612b0c565b03925af1801561076557610c07575b50506104ea946105076105379361051a9360026001916106a9565b610c12828092612320565b6101215780610bec565b8480fd5b6020813d602011610c47575b81610c3960209383612320565b8101031261084d5751610baf565b3d9150610c2c565b6040513d88823e3d90fd5b81610c6491612320565b610c1c578438610b46565b8680fd5b9450503d8086863e610c858186612320565b8401604085820312610cd75784516001600160401b038111610c6f5781610cad9187016128e1565b946020810151906001600160401b038211610cd357610ccd92910161281f565b38610afd565b8780fd5b8580fd5b6040513d87823e3d90fd5b82518051875260208082015181890152604091820151918801919091528e99508d985060609096019590920191600101610a82565b634e487b7160e01b8a52601160045260248afd5b9093506020813d602011610d67575b81610d4b60209383612320565b81010312610d6357610d5c906127ea565b923861091e565b8880fd5b3d9150610d3e565b6040513d8b823e3d90fd5b600c8c14915081610d8d575b508f610899565b600691501015610da15760038f148f610d86565b634e487b7160e01b88526021600452602488fd5b600691501015610da15760018f148f610892565b634e487b7160e01b87526021600452602487fd5b81610de791612320565b610df2578138610599565b5080fd5b6040513d85823e3d90fd5b8280fd5b610e1a9193503d8084833e6107a88183612320565b91386104b9565b9091506020813d602011610e4d575b81610e3d60209383612320565b8101031261084d57519038610488565b3d9150610e30565b50604051903d90823e3d90fd5b81610e6c91612320565b610121578038610454565b81610e8191612320565b610df257813861040d565b6315c9368f60e31b8552600485fd5b90506020813d602011610ecd575b81610eb660209383612320565b81010312610cd757610ec7906127ea565b3861038d565b3d9150610ea9565b5034610121576040366003190112610121576004356001600160401b038111610df257610f0690369060040161240b565b906024359081159182150361012157610f1d612b28565b50610f26612b80565b50610f2f612c5d565b91610f38612d09565b6101808501805160405163ba15d63560e01b815260048101919091526001600160a01b03909516949390602085602481895afa948515610765578295611947575b5080519260405193635af5446960e01b8552600485015285602485015282846044818a5afa938415610df657839461192b575b50606084015160e0850190815151908181106117ff575b50505050610fd86101e0880193845190612d69565b958151813b156107705787611008928886809460405196879586948593636b67ad7d60e11b855260048501612b99565b03925af18015610df6579083916117ea575b505080519082809860405161102e81612305565b600081526000602082015297611042612b28565b9a61104b612c5d565b97611054612d09565b956040850190815192600f841015610da1576001861661132e5750505050839060068c101561131a5760048c0361126b575050604051635af5446960e01b815260048101869052602481018290529798506001968390899060449082906001600160a01b03165afa978815610df657839861124f575b5060208801516110f660018060a01b036110e88360e08d0151612a5c565b5116916101408b0151612a5c565b516040519161110483612305565b825260208201529860069881611241575b505b611184575b505050505094611156610537936111679361113e985b604051998a809a612657565b1515602089015215156040880152606087019061267a565b60e0608086015260e0850190612705565b82516001600160a01b031660a085015260209092015160c0840152565b9091939650611199929499506106cf87612f0e565b8051919890911561122357506002946001936001600160a01b031690813b15610770579183916111e09383604051809681958294635537b6d160e01b845260048401612af5565b03925af180156107655761120e575b505094611156610537936111679361113e985b9398829682965061111c565b611219828092612320565b61012157806111ef565b9050610537945061113e979250611156915061116793600691611202565b60a091500151151538611115565b6112649198503d8085833e6107a88183612320565b96386110ca565b97909860018c14600014611283575050600597611117565b60038c03611295575050600c97611117565b6006995090816112a6575b50611117565b604051632ba69b2960e21b8152600481018890529150602090829060249082906001600160a01b03165afa90811561085a5784916112e8575b501515386112a0565b90506020813d602011611312575b8161130360209383612320565b8101031261084d5751386112df565b3d91506112f6565b634e487b7160e01b85526021600452602485fd5b90919680989996939a9c509a939a508d60058b1490816117d6575b5080156117b0575b156113755750505050505050505094611156610537936111679361113e9891611132565b9091929496985060649395979d50602060018060a01b038a541660405195868092631bae711d60e21b8252846004830152600e60248301526d2937bab73239a1b932b0ba34b7b760911b60448301525afa938415610d6f578994611774575b506113de87612f0e565b9160018701809711610d1b57916114199893918a95936040519a8b9663fc01e37f60e01b885260806004890152610963608489018751612657565b61142b606085015160e488019061267a565b60808401516001600160a01b0390811661010488015260a0850151811661012488015260c0850151811661014488015260e0850151166101648701526101008401516101848701526101208401516101a48701526101408401516101c48701526101608401516101e4870152516102048601526101a08301516102248601526101c0830151610244860152516102648501526102008201516102e06102848601526114df90610a4690610364870190612ea8565b9161024081015192608319868203016102c487015260208085519283815201940190875b81811061173f57505050611562859387936102c084610260889601516102e48701526102808101516103048701526102a081015161032487015201516103448501528a6024850152846044850152600319848303016064850152612ab8565b03926001600160a01b03165af18015610cdb57859486916116df575b50849a60018060a01b031690813b15610c6f576115b587928392604051948580948193635537b6d160e01b83528b60048401612af5565b03925af18015610c4f579086916116ca575b505060e0840151516115ef57505050505061113e946111566105379361116793600691611132565b60405160016230803d60e21b0319815260048101849052959650939492936001600160a01b03169290919060208160248189885af18015610c4f5761169b575b50823b15610c1c579161165d93918580946040519687958694859363bda6b95760e01b855260048501612b0c565b03925af1801561076557611686575b505061116761113e94611156610537936002906001611132565b611691828092612320565b610121578061166c565b6020813d6020116116c2575b816116b460209383612320565b8101031261084d575161162f565b3d91506116a7565b816116d491612320565b610c1c5784386115c7565b9450503d8086863e6116f18186612320565b8401604085820312610cd75784516001600160401b038111610c6f57816117199187016128e1565b946020810151906001600160401b038211610cd35761173992910161281f565b3861157e565b82518051875260208082015181890152604091820151918801919091528e99508d985060609096019590920191600101611503565b9093506020813d6020116117a8575b8161179060209383612320565b81010312610d63576117a1906127ea565b92386113d4565b3d9150611783565b50600c8a148e816117c2575b50611351565b600691501015610da15760038e148e6117bc565b600691501015610da15760018e148e611349565b816117f491612320565b610df257813861101a565b859a9498929695999399508103908111610d1b5761181c90612a86565b9589978a5b8751518110156118b55761183a81610100890151612a5c565b5160058110156118a15715611852575b600101611821565b87516001600160a01b0390611868908390612a5c565b51168a600019811461188d57906118856001809493019c8c612a5c565b52905061184a565b634e487b7160e01b8e52601160045260248efd5b634e487b7160e01b8d52602160045260248dfd5b50939994955095919790965081516118cf575b8080610fc3565b60018060a01b03168251813b15610c1c5791849161190493836040518096819582946313dd927960e11b845260048401612af5565b03925af18015610df657908391156118c8578161192091612320565b610df25781386118c8565b6119409194503d8085833e6107a88183612320565b9238610fac565b9094506020813d602011611973575b8161196360209383612320565b8101031261084d57519338610f79565b3d9150611956565b50346101215760c03660031901126101215760043590611999612293565b60a435926084356001600160401b038511610770576101606003198636030112610770576040516119c9816122d3565b856004013581526024860135602082015260448601356040820152606486013560608201526084860135608082015260a486013560a082015260c48601356006811015610cd75760c082015260e48601356001600160401b038111610cd757860136602382011215610cd757600481013590611a4482612341565b91611a526040519384612320565b808352602060048185019260051b8401010191368311610d6357602401905b828210611da15750505060e082019081526101048701356001600160401b038111610c6f57870136602382011215610c6f576004810135611ab181612341565b91611abf6040519384612320565b818352602060048185019360051b8301010190368211611d2157602401915b818310611d88575050506101008301526101248701356001600160401b038111610c6f57611b1290600436918a0101612358565b9661012083019788526101448101356001600160401b038111610cd357611b3e91369101600401612358565b6101408301528554604051631bae711d60e21b81529060209082906001600160a01b03168180611b70600482016127fe565b03915afa908115611d7d578791611d43575b506001600160a01b03163303611d34578596611b9c612c5d565b91611ba5612d09565b9460018060a01b03611bb8828451612a5c565b516001600160a01b038a169116819003611ca5575b50611bdd91506064359251612a5c565b526001600160a01b0316803b15610cd75760405163bda6b95760e01b81529186918391829084908290611c17906024358b60048501612b0c565b03925af1908115610cdb578591611c90575b50506001600160a01b031691823b15611c8b57604051631f1ccec960e01b815260048101929092526001600160a01b031660248201529082908290604490829084905af1801561076557611c7a5750f35b81611c8491612320565b6101215780f35b505050fd5b81611c9a91612320565b611c8b578338611c29565b6001600160a01b038716803b15611d3057604051634fe574f360e01b8152600481018a90526001600160a01b038b166024820152908b908290604490829084905af1908115611d25578b91611d0c575b5050611d0582611bdd9451612a5c565b5238611bcd565b81611d1691612320565b611d21578938611cf5565b8980fd5b6040513d8d823e3d90fd5b8a80fd5b6315c9368f60e31b8652600486fd5b90506020813d602011611d75575b81611d5e60209383612320565b81010312610c6f57611d6f906127ea565b38611b82565b3d9150611d51565b6040513d89823e3d90fd5b82356005811015611d3057815260209283019201611ade565b60208091611dae846122bf565b815201910190611a71565b5034610121578060031936011261012157600080516020613612833981519152546040516001600160a01b039091168152602090f35b50346101215760a03660031901126101215760243590600435611e10612293565b60643593608435908115158203610c1c578454604051631bae711d60e21b81529060209082906001600160a01b03168180611e4d600482016127fe565b03915afa908115610c4f578691612163575b506001600160a01b03163303610e8c57611e77612c5d565b92611e80612d09565b604051635af5446960e01b8152600481018790526024810184905290946001600160a01b031693908781604481885afa908115612109579060e0918991612149575b50019160018060a01b03611ed78a8551612a5c565b516001600160a01b038316911681900361201d575b5050869750611ef9578580f35b823b15610cd7576040516319fd332f60e01b8152856004820152826024820152868160448183885af1908115611d7d578791612008575b50505151823b15610cd757604051639e360bb560e01b815260048101869052602481019290925260448201529084908290606490829084905af190811561085a578491611fef575b505060018060a01b031690604051611f91602082612320565b8381526000368137823b15611c8b57611fc392849283604051809681958294633921df0b60e01b845260048401612af5565b03925af1801561076557611fda575b808080808580f35b81611fe491612320565b610121578038611fd2565b81611ff991612320565b612004578238611f78565b5050fd5b8161201291612320565b610cd7578538611f30565b853b15610d635760405163c557e0a760e01b81526004810189905260248101869052604481018b90529990898b606481838b5af1801561213e57612129575b899a50863b15611d215760405191632b6089bd60e21b8352896004840152866024840152604483015260648201528881608481838a5af1908115610d6f578991612114575b50506001600160a01b038616803b15610d6357604051634fe574f360e01b8152600481018990526001600160a01b0392909216602483015288908290604490829084905af190811561210957889115611eec57816120fe91612320565b610c6f578638611eec565b6040513d8a823e3d90fd5b8161211e91612320565b610cd35787386120a1565b9890998161213691612320565b97899061205c565b6040513d8c823e3d90fd5b61215d91503d808b833e6107a88183612320565b38611ec2565b90506020813d602011612195575b8161217e60209383612320565b81010312610cd75761218f906127ea565b38611e5f565b3d9150612171565b503461012157806003193601126101215760008051602061365283398151915254336001600160a01b03909116036121db576121d833612bef565b80f35b63118cdaa760e01b815233600452602490fd5b5034610121578060031936011261012157612207612bb9565b60008051602061365283398151915280546001600160a01b03199081169091556000805160206136128339815191528054918216905581906001600160a01b03167f8be0079c531659141344cd1fd0a4f28419497f9722a3daafe3b4186f6b6457e08280a380f35b905034610df25781600319360112610df25790546001600160a01b03168152602090f35b604435906001600160a01b038216820361084d57565b600435906001600160a01b038216820361084d57565b35906001600160a01b038216820361084d57565b61016081019081106001600160401b038211176122ef57604052565b634e487b7160e01b600052604160045260246000fd5b604081019081106001600160401b038211176122ef57604052565b90601f801991011681019081106001600160401b038211176122ef57604052565b6001600160401b0381116122ef5760051b60200190565b9080601f8301121561084d57813561236f81612341565b9261237d6040519485612320565b81845260208085019260051b82010192831161084d57602001905b8282106123a55750505090565b8135815260209182019101612398565b81601f8201121561084d578035906001600160401b0382116122ef57604051926123e9601f8401601f191660200185612320565b8284526020838301011161084d57816000926020809301838601378301015290565b9190916102e08184031261084d57604051906102e082018281106001600160401b038211176122ef5760405281938135600681101561084d5783526020820135600581101561084d5760208401526040820135600f81101561084d5760408401526060820135600f81101561084d57606084015261248b608083016122bf565b608084015261249c60a083016122bf565b60a08401526124ad60c083016122bf565b60c08401526124be60e083016122bf565b60e08401526101008201356101008401526101208201356101208401526101408201356101408401526101608201356101608401526101808201356101808401526101a08201356101a08401526101c08201356101c08401526101e08201356101e08401526102008201356001600160401b03811161084d57816125439184016123b5565b6102008401526102208201356001600160401b03811161084d57816125699184016123b5565b6102208401526102408201356001600160401b03811161084d57820181601f8201121561084d5780359061259c82612341565b926125aa6040519485612320565b8284526020606081860194028301019181831161084d57602001925b82841061260857505050506102c09182916102408501526102608101356102608501526102808101356102808501526102a08101356102a08501520135910152565b60608483031261084d576040519060608201908282106001600160401b038311176122ef57606092602092604052863581528287013583820152604087013560408201528152019301926125c6565b9060068210156126645752565b634e487b7160e01b600052602160045260246000fd5b90600f8210156126645752565b9060058210156126645752565b906020808351928381520192019060005b8181106126b25750505090565b909192602080826126c66001948851612687565b0194019291016126a5565b906020808351928381520192019060005b8181106126ef5750505090565b82518452602093840193909201916001016126e2565b919091610160830192815181526020820151602082015260408201516040820152606082015160608201526080820151608082015260a082015160a082015261275660c083015160c0830190612657565b60e08201519361016060e083015284518091526020610180830195019060005b8181106127cb575050506101406127b66127a26127c89596610100860151858203610100870152612694565b6101208501518482036101208601526126d1565b920151906101408184039101526126d1565b90565b82516001600160a01b0316875260209687019690920191600101612776565b51906001600160a01b038216820361084d57565b606090602081526006602082015265526f756e647360d01b60408201520190565b9080601f8301121561084d57815161283681612341565b926128446040519485612320565b81845260208085019260051b82010192831161084d57602001905b82821061286c5750505090565b60208091612879846127ea565b81520191019061285f565b9080601f8301121561084d57815161289b81612341565b926128a96040519485612320565b81845260208085019260051b82010192831161084d57602001905b8282106128d15750505090565b81518152602091820191016128c4565b91906101608382031261084d57604051906128fb826122d3565b8193805183526020810151602084015260408101516040840152606081015160608401526080810151608084015260a081015160a084015260c0810151600681101561084d5760c084015260e08101516001600160401b03811161084d578261296591830161281f565b60e08401526101008101516001600160401b03811161084d57810182601f8201121561084d57805161299681612341565b916129a46040519384612320565b81835260208084019260051b8201019085821161084d57602001915b818310612a1e575050506101008401526101208101516001600160401b03811161084d57826129f0918301612884565b610120840152610140810151916001600160401b03831161084d5761014092612a199201612884565b910152565b8251600581101561084d578152602092830192016129c0565b9060208282031261084d5781516001600160401b03811161084d576127c892016128e1565b8051821015612a705760209160051b010190565b634e487b7160e01b600052603260045260246000fd5b90612a9082612341565b612a9d6040519182612320565b8281528092612aae601f1991612341565b0190602036910137565b906020808351928381520192019060005b818110612ad65750505090565b82516001600160a01b0316845260209384019390920191600101612ac9565b6040906127c8939281528160208201520190612ab8565b6127c89392606092825260208201528160408201520190612705565b60405190612b35826122d3565b60606101408360008152600060208201526000604082015260008382015260006080820152600060a0820152600060c08201528260e082015282610100820152826101208201520152565b60405190612b8d82612305565b60006020838281520152565b604090612bb793959492956060820196825260208201520190612657565b565b600080516020613612833981519152546001600160a01b03163303612bda57565b63118cdaa760e01b6000523360045260246000fd5b60008051602061365283398151915280546001600160a01b031990811690915560008051602061361283398151915280549182166001600160a01b0393841690811790915591167f8be0079c531659141344cd1fd0a4f28419497f9722a3daafe3b4186f6b6457e0600080a3565b600054604051631bae711d60e21b8152602060048201819052600d60248301526c526f756e647353746f7261676560981b60448301529091829060649082906001600160a01b03165afa908115612cfd57600091612cc3575b506001600160a01b031690565b90506020813d602011612cf5575b81612cde60209383612320565b8101031261084d57612cef906127ea565b38612cb6565b3d9150612cd1565b6040513d6000823e3d90fd5b600054604051631bae711d60e21b8152602060048201819052600860248301526749646c656e65737360c01b60448301529091829060649082906001600160a01b03165afa908115612cfd57600091612cc357506001600160a01b031690565b600054604051631bae711d60e21b81526020600482018190526006602483015265566f74696e6760d01b60448301529091829060649082906001600160a01b03165afa908115612cfd57600091612e66575b50612dfd9082610140610100602095015191015194612e0f60405196879586948594630e5cc50b60e41b86526004860152606060248601526064850190612694565b838103600319016044850152906126d1565b03916001600160a01b03165afa908115612cfd57600091612e2e575090565b6020813d602011612e5e575b81612e4760209383612320565b81010312610df25751906006821015610121575090565b3d9150612e3a565b90506020813d602011612ea0575b81612e8160209383612320565b8101031261084d57602091612e98612dfd926127ea565b915091612dbb565b3d9150612e74565b919082519283825260005b848110612ed4575050826000602080949584010152601f8019910116010190565b80602080928401015182828601015201612eb3565b9060208282031261084d5781516001600160401b03811161084d576127c8920161281f565b60006001600160a01b03612f20612d09565b1691602460405180948193633717892560e01b835260048301525afa908115612cfd57600091612f4e575090565b6127c891503d806000833e612f638183612320565b810190612ee9565b939291612f9490612f86604093606088526060880190612ab8565b908682036020880152612ab8565b930152565b919290612fa4612b28565b92612fad612c5d565b9160009260018060a01b031690610180830180519660405197635af5446960e01b895260048901528260248901528588604481875afa978815610c4f5786986135c7575b5060a08801519485156135ac578251916101a08201916064610160845192015161301a86612f0e565b95602060018060a01b038d541660405194858092631bae711d60e21b825284600483015260076024830152665374616b696e6760c81b60448301525afa928315613565578c93613570575b506101006001600160a01b03613079612d09565b169160246040518094819363149ecac960e11b835260048301525afa90811561356557908c9493929185916134ad575b5051926130f7604051988995869485946382df24a160e01b865260048601528860248601526044850152606484015260016084840152600160a484015260e060c484015260e4830190612ab8565b03916001600160a01b03165afa9283156121095788908994613442575b5083516001811061342b57508351159081613422575b506133fc575060e089015198602001519173__$8b0f212190ad0b350ebeb1d3aa845a5dc8$__90888c51604051809e8192635d881d2b60e01b835285600484019261317493612f6b565b0381855af49b8c15610d6f57899c6133d2575b50836131b09493928a928e9d60405197889485938493635d881d2b60e01b855260048501612f6b565b03915af49283156121095788936133b6575b505199519080156133ad575b8251916040519b630537dd3b60e11b8d5260048d015260248c015260448b015260648a015260208960848173__$a6e619d69c86bc274aaf34384d8e5af120$__5af4988915610c4f578699613379575b50600019850194851161336557805161323681612341565b906132446040519283612320565b808252613253601f1991612341565b013660208301376132648251612a86565b9061326f8351612a86565b926040519b61327d8d6122d3565b868d5260208d01528860408d01528860608d01528860808d01528760a08d01528860c08d015260e08c01526101008b01526101208a0152610140890152878151843b15610c6f578387916132e5604051948593849363bda6b95760e01b855260048501612b0c565b038183885af18015610c4f57613351575b5051823b15610c1c576040516310b2aacd60e11b815260048101919091526024810191909152604481019290925282908290606490829084905af180156107655761333f575050565b61334a828092612320565b6101215750565b8561335e91969296612320565b93386132f6565b634e487b7160e01b86526011600452602486fd5b9098506020813d6020116133a5575b8161339560209383612320565b81010312610cd75751973861321e565b3d9150613388565b506000196131ce565b6133cb9193503d808a833e612f638183612320565b91386131c2565b89919c50938093926133f06131b0963d8086833e612f638183612320565b9d925092939450613187565b9798505050505050508093505060405192613418602085612320565b8084523681379190565b9050153861312a565b635af2dc9b60e11b8a526001600452602452604489fd5b9350503d8089853e6134548185612320565b8301606084820312610d635783519060208501516001600160401b038111611d30578161348291870161281f565b946040810151906001600160401b0382116134a9576134a292910161281f565b5038613114565b8b80fd5b919293945050610100813d821161355d575b816134cd6101009383612320565b810103126134a9576040519061010082018281106001600160401b03821117613549578d959493929160e091604052805183526020810151602084015260408101516040840152606081015160608401526080810151608084015260a081015160a084015260c081015160c0840152015160e0820152386130a9565b634e487b7160e01b8e52604160045260248efd5b3d91506134bf565b6040513d8e823e3d90fd5b9092506020813d6020116135a4575b8161358c60209383612320565b810103126134a95761359d906127ea565b9138613065565b3d915061357f565b50959650505050508093505060405192613418602085612320565b6135dc9198503d8088833e6107a88183612320565b9638612ff1565b60ff6000805160206136328339815191525460401c161561360057565b631afcd79f60e31b60005260046000fdfe9016d09d72d40fdae2fd8ceac6b6234c7706214fd39c1cd1e609a0528c199300f0c57e16840df040f15088dc2f81fe391c3923bec73e23a9662efc9c229c6a00237e158222e3e6968b72b9db0d8043aacf074ad9f650f0d1606b4d82ee432c00a2646970667358221220be0ac4b024c39ec0b5e147f7d96bd26f0032e6c062df6f8ffdcae7fa8bcc029b64736f6c634300081c0033",
  "linkReferences": {
    "contracts/utils/ArrayUtils.sol": {
      "ArrayUtils": [
        {
          "length": 20,
          "start": 12821
        }
      ]
    },
    "contracts/utils/RandomnessUtils.sol": {
      "RandomnessUtils": [
        {
          "length": 20,
          "start": 13011
        }
      ]
    }
  },
  "deployedLinkReferences": {
    "contracts/utils/ArrayUtils.sol": {
      "ArrayUtils": [
        {
          "length": 20,
          "start": 12605
        }
      ]
    },
    "contracts/utils/RandomnessUtils.sol": {
      "RandomnessUtils": [
        {
          "length": 20,
          "start": 12795
        }
      ]
    }
  }
}