{
  "_format": "hh-sol-artifact-1",
  "contractName": "MockRoundsForProposal",
  "sourceName": "contracts/test-helpers/MockRoundsForProposal.sol",
  "abi": [
    {
      "inputs": [
        {
          "internalType": "bytes32",
          "name": "txId",
          "type": "bytes32"
        }
      ],
      "name": "getLastRoundData",
      "outputs": [
        {
          "internalType": "uint256",
          "name": "",
          "type": "uint256"
        },
        {
          "components": [
            {
              "internalType": "uint256",
              "name": "round",
              "type": "uint256"
            },
            {
              "internalType": "uint256",
              "name": "leaderIndex",
              "type": "uint256"
            },
            {
              "internalType": "uint256",
              "name": "votesCommitted",
              "type": "uint256"
            },
            {
              "internalType": "uint256",
              "name": "votesRevealed",
              "type": "uint256"
            },
            {
              "internalType": "uint256",
              "name": "appealBond",
              "type": "uint256"
            },
            {
              "internalType": "uint256",
              "name": "rotationsLeft",
              "type": "uint256"
            },
            {
              "internalType": "enum ITransactions.ResultType",
              "name": "result",
              "type": "uint8"
            },
            {
              "internalType": "address[]",
              "name": "roundValidators",
              "type": "address[]"
            },
            {
              "internalType": "enum ITransactions.VoteType[]",
              "name": "validatorVotes",
              "type": "uint8[]"
            },
            {
              "internalType": "bytes32[]",
              "name": "validatorVotesHash",
              "type": "bytes32[]"
            },
            {
              "internalType": "bytes32[]",
              "name": "validatorResultHash",
              "type": "bytes32[]"
            }
          ],
          "internalType": "struct ITransactions.RoundData",
          "name": "",
          "type": "tuple"
        }
      ],
      "stateMutability": "view",
      "type": "function"
    },
    {
      "inputs": [
        {
          "internalType": "bytes32",
          "name": "",
          "type": "bytes32"
        }
      ],
      "name": "getRotationsLeft",
      "outputs": [
        {
          "internalType": "uint256",
          "name": "",
          "type": "uint256"
        }
      ],
      "stateMutability": "pure",
      "type": "function"
    },
    {
      "inputs": [
        {
          "internalType": "bytes32",
          "name": "txId",
          "type": "bytes32"
        },
        {
          "internalType": "uint256",
          "name": "round",
          "type": "uint256"
        }
      ],
      "name": "getRoundData",
      "outputs": [
        {
          "components": [
            {
              "internalType": "uint256",
              "name": "round",
              "type": "uint256"
            },
            {
              "internalType": "uint256",
              "name": "leaderIndex",
              "type": "uint256"
            },
            {
              "internalType": "uint256",
              "name": "votesCommitted",
              "type": "uint256"
            },
            {
              "internalType": "uint256",
              "name": "votesRevealed",
              "type": "uint256"
            },
            {
              "internalType": "uint256",
              "name": "appealBond",
              "type": "uint256"
            },
            {
              "internalType": "uint256",
              "name": "rotationsLeft",
              "type": "uint256"
            },
            {
              "internalType": "enum ITransactions.ResultType",
              "name": "result",
              "type": "uint8"
            },
            {
              "internalType": "address[]",
              "name": "roundValidators",
              "type": "address[]"
            },
            {
              "internalType": "enum ITransactions.VoteType[]",
              "name": "validatorVotes",
              "type": "uint8[]"
            },
            {
              "internalType": "bytes32[]",
              "name": "validatorVotesHash",
              "type": "bytes32[]"
            },
            {
              "internalType": "bytes32[]",
              "name": "validatorResultHash",
              "type": "bytes32[]"
            }
          ],
          "internalType": "struct ITransactions.RoundData",
          "name": "",
          "type": "tuple"
        }
      ],
      "stateMutability": "view",
      "type": "function"
    },
    {
      "inputs": [
        {
          "internalType": "bytes32",
          "name": "txId",
          "type": "bytes32"
        }
      ],
      "name": "getRoundNumber",
      "outputs": [
        {
          "internalType": "uint256",
          "name": "",
          "type": "uint256"
        }
      ],
      "stateMutability": "view",
      "type": "function"
    },
    {
      "inputs": [],
      "name": "lastUpdateLeaderIndex",
      "outputs": [
        {
          "internalType": "uint256",
          "name": "",
          "type": "uint256"
        }
      ],
      "stateMutability": "view",
      "type": "function"
    },
    {
      "inputs": [],
      "name": "lastUpdateNewLeader",
      "outputs": [
        {
          "internalType": "address",
          "name": "",
          "type": "address"
        }
      ],
      "stateMutability": "view",
      "type": "function"
    },
    {
      "inputs": [],
      "name": "lastUpdateResetVotes",
      "outputs": [
        {
          "internalType": "bool",
          "name": "",
          "type": "bool"
        }
      ],
      "stateMutability": "view",
      "type": "function"
    },
    {
      "inputs": [],
      "name": "lastUpdateRound",
      "outputs": [
        {
          "internalType": "uint256",
          "name": "",
          "type": "uint256"
        }
      ],
      "stateMutability": "view",
      "type": "function"
    },
    {
      "inputs": [],
      "name": "lastUpdateTxId",
      "outputs": [
        {
          "internalType": "bytes32",
          "name": "",
          "type": "bytes32"
        }
      ],
      "stateMutability": "view",
      "type": "function"
    },
    {
      "inputs": [],
      "name": "resetMockState",
      "outputs": [],
      "stateMutability": "nonpayable",
      "type": "function"
    },
    {
      "inputs": [
        {
          "internalType": "bytes32",
          "name": "txId",
          "type": "bytes32"
        },
        {
          "internalType": "uint256",
          "name": "round",
          "type": "uint256"
        },
        {
          "internalType": "uint256",
          "name": "leaderIndex",
          "type": "uint256"
        },
        {
          "internalType": "address[]",
          "name": "validators",
          "type": "address[]"
        }
      ],
      "name": "setMockRoundData",
      "outputs": [],
      "stateMutability": "nonpayable",
      "type": "function"
    },
    {
      "inputs": [
        {
          "internalType": "bytes32",
          "name": "_txId",
          "type": "bytes32"
        },
        {
          "internalType": "uint256",
          "name": "_round",
          "type": "uint256"
        },
        {
          "internalType": "address",
          "name": "_newLeader",
          "type": "address"
        },
        {
          "internalType": "uint256",
          "name": "_leaderIndex",
          "type": "uint256"
        },
        {
          "internalType": "bool",
          "name": "_resetVotes",
          "type": "bool"
        }
      ],
      "name": "updateLeaderAndResetVotes",
      "outputs": [],
      "stateMutability": "nonpayable",
      "type": "function"
    },
    {
      "inputs": [],
      "name": "updateLeaderCalled",
      "outputs": [
        {
          "internalType": "bool",
          "name": "",
          "type": "bool"
        }
      ],
      "stateMutability": "view",
      "type": "function"
    }
  ],
  "bytecode": "0x60808060405234601557610ff1908161001b8239f35b600080fdfe608080604052600436101561001357600080fd5b60003560e01c9081631b7a9be7146104f7575080631e0d497a146104d457806320090e9d1461048c57806355491894146104695780635af5446914610412578063665b7541146103f457806384c248311461038557806388587513146102b6578063aa9c702c14610298578063ba15d6351461026c578063c159bfc3146100f8578063db3c2aac146100cf5763f66530b9146100ae57600080fd5b346100ca5760203660031901126100ca57602060405160038152f35b600080fd5b346100ca5760003660031901126100ca576005546040516001600160a01b039091168152602090f35b346100ca5760803660031901126100ca5760043560643560243567ffffffffffffffff82116100ca57366023830112156100ca5781600401359267ffffffffffffffff8411610236578360051b9260405194610157602086018761069e565b8552602085019060248295820101903682116100ca57602401915b81831061024c5750505060009081526020818152604080832084905560018083528184208585529092529091209182556044359082015591516007909201919067ffffffffffffffff821161023657600160401b821161023657825482845580831061020d575b509160005260206000209160005b8281106101f057005b81516001600160a01b0316818501556020909101906001016101e7565b8360005282602060002091820191015b81811061022a57506101d9565b6000815560010161021d565b634e487b7160e01b600052604160045260246000fd5b82356001600160a01b03811681036100ca57815260209283019201610172565b346100ca5760203660031901126100ca5760043560005260006020526020604060002054604051908152f35b346100ca5760003660031901126100ca576020600654604051908152f35b346100ca5760a03660031901126100ca576044356001600160a01b0381169060043590602435908390036100ca57606435916084358015158091036100ca57600160ff19600254161760025581600355826004558460018060a01b031960055416176005558360065560ff80196007541691161760075560005260016020526040600020906000526020526007604060002001805482101561036f576000908152602090200180546001600160a01b0319169091179055005b634e487b7160e01b600052603260045260246000fd5b346100ca5760203660031901126100ca576004356103a16106c0565b508060005260006020526040600020549060005260016020526040600020816000526020526103d36040600020610765565b906103f06040519283928352604060208401526040830190610569565b0390f35b346100ca5760003660031901126100ca576020600454604051908152f35b346100ca5760403660031901126100ca5761042b6106c0565b50600435600052600160205260406000206024356000526020526103f06104556040600020610765565b604051918291602083526020830190610569565b346100ca5760003660031901126100ca57602060ff600754166040519015158152f35b346100ca5760003660031901126100ca5760ff19600254166002556000600355600060045560018060a01b031960055416600555600060065560ff1960075416600755600080f35b346100ca5760003660031901126100ca57602060ff600254166040519015158152f35b346100ca5760003660031901126100ca576020906003548152f35b90600582101561051f5752565b634e487b7160e01b600052602160045260246000fd5b906020808351928381520192019060005b8181106105535750505090565b8251845260209384019390920191600101610546565b919091610160830192815181526020820151602082015260408201516040820152606082015160608201526080820151608082015260a082015160a082015260c0820151600681101561051f5760c082015260e08201519361016060e083015284518091526020610180830195019060005b81811061066257505050610100820151938181036101008301526020808651928381520195019060005b8181106106435750505061014061062e6106409495610120850151848203610120860152610535565b92015190610140818403910152610535565b90565b909195602080826106576001948b51610512565b019701929101610605565b82516001600160a01b03168752602096870196909201916001016105db565b610160810190811067ffffffffffffffff82111761023657604052565b90601f8019910116810190811067ffffffffffffffff82111761023657604052565b604051906106cd82610681565b60606101408360008152600060208201526000604082015260008382015260006080820152600060a0820152600060c08201528260e082015282610100820152826101208201520152565b906040519182815491828252602082019060005260206000209260005b81811061074c57505061074a9250038361069e565b565b8454835260019485019487945060209093019201610735565b9060405161077281610681565b80928054825260018101546020830152600281015460408301526003810154606083015260048101546080830152600581015460a083015260ff600682015416600681101561051f5760c0830152600781016040518082602082945493848152019060005260206000209260005b818110610f995750506107f59250038261069e565b60e0830152600881016040519081602082549182815201916000526020600020906000915b81601f840110610d165784600a94610140979461095c979461093e945491818110610cfb575b818110610cdd575b818110610cbf575b818110610ca1575b818110610c84575b818110610c66575b818110610c48575b818110610c2a575b818110610c0c575b818110610bee575b818110610bd0575b818110610bb2575b818110610b94575b818110610b76575b818110610b58575b818110610b3a575b818110610b1c575b818110610afe575b818110610ae0575b818110610ac2575b818110610aa4575b818110610a86575b818110610a68575b818110610a4a575b818110610a2c575b818110610a0e575b8181106109f0575b8181106109d2575b8181106109b4575b818110610996575b818110610978575b10610961575b50038261069e565b61010086015261095060098201610718565b61012086015201610718565b910152565b906109718160209360f81c610512565b0138610936565b9260208161098e60019360ff8760f01c16610512565b019301610930565b926020816109ac60019360ff8760e81c16610512565b019301610928565b926020816109ca60019360ff8760e01c16610512565b019301610920565b926020816109e860019360ff8760d81c16610512565b019301610918565b92602081610a0660019360ff8760d01c16610512565b019301610910565b92602081610a2460019360ff8760c81c16610512565b019301610908565b92602081610a4260019360ff8760c01c16610512565b019301610900565b92602081610a6060019360ff8760b81c16610512565b0193016108f8565b92602081610a7e60019360ff8760b01c16610512565b0193016108f0565b92602081610a9c60019360ff8760a81c16610512565b0193016108e8565b92602081610aba60019360ff8760a01c16610512565b0193016108e0565b92602081610ad860019360ff8760981c16610512565b0193016108d8565b92602081610af660019360ff8760901c16610512565b0193016108d0565b92602081610b1460019360ff8760881c16610512565b0193016108c8565b92602081610b3260019360ff8760801c16610512565b0193016108c0565b92602081610b5060019360ff8760781c16610512565b0193016108b8565b92602081610b6e60019360ff8760701c16610512565b0193016108b0565b92602081610b8c60019360ff8760681c16610512565b0193016108a8565b92602081610baa60019360ff8760601c16610512565b0193016108a0565b92602081610bc860019360ff8760581c16610512565b019301610898565b92602081610be660019360ff8760501c16610512565b019301610890565b92602081610c0460019360ff8760481c16610512565b019301610888565b92602081610c2260019360ff8760401c16610512565b019301610880565b92602081610c4060019360ff8760381c16610512565b019301610878565b92602081610c5e60019360ff8760301c16610512565b019301610870565b92602081610c7c60019360ff8760281c16610512565b019301610868565b92602081610c9960019360ff87851c16610512565b019301610860565b92602081610cb760019360ff8760181c16610512565b019301610858565b92602081610cd560019360ff8760101c16610512565b019301610850565b92602081610cf360019360ff8760081c16610512565b019301610848565b92602081610d0e60019360ff8716610512565b019301610840565b926001610400602092610f8e8754610d318360ff8316610512565b610d4386840160ff8360081c16610512565b610d566040840160ff8360101c16610512565b610d696060840160ff8360181c16610512565b610d7b6080840160ff83891c16610512565b610d8e60a0840160ff8360281c16610512565b610da160c0840160ff8360301c16610512565b610db460e0840160ff8360381c16610512565b610dc8610100840160ff8360401c16610512565b610ddc610120840160ff8360481c16610512565b610df0610140840160ff8360501c16610512565b610e04610160840160ff8360581c16610512565b610e18610180840160ff8360601c16610512565b610e2c6101a0840160ff8360681c16610512565b610e406101c0840160ff8360701c16610512565b610e546101e0840160ff8360781c16610512565b610e68610200840160ff8360801c16610512565b610e7c610220840160ff8360881c16610512565b610e90610240840160ff8360901c16610512565b610ea4610260840160ff8360981c16610512565b610eb8610280840160ff8360a01c16610512565b610ecc6102a0840160ff8360a81c16610512565b610ee06102c0840160ff8360b01c16610512565b610ef46102e0840160ff8360b81c16610512565b610f08610300840160ff8360c01c16610512565b610f1c610320840160ff8360c81c16610512565b610f30610340840160ff8360d01c16610512565b610f44610360840160ff8360d81c16610512565b610f58610380840160ff8360e01c16610512565b610f6c6103a0840160ff8360e81c16610512565b610f806103c0840160ff8360f01c16610512565b6103e083019060f81c610512565b01940192019161081a565b84546001600160a01b03168352600194850194869450602090930192016107e056fea2646970667358221220a4c902d59dd4986ec854ce40c334bdc3a9fcdc8a9b9b1deed9473309df791e1c64736f6c634300081c0033",
  "linkReferences": {},
  "deployedLinkReferences": {}
}