{
  "_format": "hh-sol-artifact-1",
  "contractName": "ConsensusMainWithFees",
  "sourceName": "contracts/ConsensusMainWithFees.sol",
  "abi": [
    {
      "inputs": [],
      "stateMutability": "nonpayable",
      "type": "constructor"
    },
    {
      "inputs": [],
      "name": "CallerNotMessages",
      "type": "error"
    },
    {
      "inputs": [],
      "name": "CanNotAppeal",
      "type": "error"
    },
    {
      "inputs": [],
      "name": "InsufficientFees",
      "type": "error"
    },
    {
      "inputs": [],
      "name": "InvalidDeploymentWithSalt",
      "type": "error"
    },
    {
      "inputs": [],
      "name": "InvalidInitialization",
      "type": "error"
    },
    {
      "inputs": [],
      "name": "InvalidRevealLeaderData",
      "type": "error"
    },
    {
      "inputs": [],
      "name": "InvalidVote",
      "type": "error"
    },
    {
      "inputs": [],
      "name": "NotInitializing",
      "type": "error"
    },
    {
      "inputs": [],
      "name": "OutOfGas",
      "type": "error"
    },
    {
      "inputs": [
        {
          "internalType": "address",
          "name": "owner",
          "type": "address"
        }
      ],
      "name": "OwnableInvalidOwner",
      "type": "error"
    },
    {
      "inputs": [
        {
          "internalType": "address",
          "name": "account",
          "type": "address"
        }
      ],
      "name": "OwnableUnauthorizedAccount",
      "type": "error"
    },
    {
      "inputs": [],
      "name": "ReentrancyGuardReentrantCall",
      "type": "error"
    },
    {
      "inputs": [],
      "name": "TransactionNotFinalized",
      "type": "error"
    },
    {
      "inputs": [],
      "name": "Unauthorized",
      "type": "error"
    },
    {
      "anonymous": false,
      "inputs": [
        {
          "indexed": true,
          "internalType": "bytes32",
          "name": "txId",
          "type": "bytes32"
        },
        {
          "indexed": true,
          "internalType": "address",
          "name": "oldActivator",
          "type": "address"
        },
        {
          "indexed": true,
          "internalType": "address",
          "name": "newActivator",
          "type": "address"
        }
      ],
      "name": "ActivatorReplaced",
      "type": "event"
    },
    {
      "anonymous": false,
      "inputs": [
        {
          "indexed": true,
          "internalType": "address",
          "name": "addressManager",
          "type": "address"
        }
      ],
      "name": "AddressManagerSet",
      "type": "event"
    },
    {
      "anonymous": false,
      "inputs": [
        {
          "indexed": true,
          "internalType": "bytes32",
          "name": "txId",
          "type": "bytes32"
        },
        {
          "indexed": false,
          "internalType": "enum ITransactions.TransactionStatus",
          "name": "newStatus",
          "type": "uint8"
        }
      ],
      "name": "AllVotesCommitted",
      "type": "event"
    },
    {
      "anonymous": false,
      "inputs": [
        {
          "indexed": true,
          "internalType": "bytes32",
          "name": "txId",
          "type": "bytes32"
        },
        {
          "indexed": true,
          "internalType": "address",
          "name": "appealer",
          "type": "address"
        },
        {
          "indexed": false,
          "internalType": "uint256",
          "name": "amount",
          "type": "uint256"
        }
      ],
      "name": "AppealBondReturned",
      "type": "event"
    },
    {
      "anonymous": false,
      "inputs": [
        {
          "indexed": true,
          "internalType": "bytes32",
          "name": "txId",
          "type": "bytes32"
        },
        {
          "indexed": true,
          "internalType": "address",
          "name": "appellant",
          "type": "address"
        },
        {
          "indexed": false,
          "internalType": "uint256",
          "name": "bond",
          "type": "uint256"
        },
        {
          "indexed": false,
          "internalType": "address[]",
          "name": "validators",
          "type": "address[]"
        }
      ],
      "name": "AppealStarted",
      "type": "event"
    },
    {
      "anonymous": false,
      "inputs": [
        {
          "indexed": false,
          "internalType": "uint256",
          "name": "attempted",
          "type": "uint256"
        },
        {
          "indexed": false,
          "internalType": "uint256",
          "name": "succeeded",
          "type": "uint256"
        },
        {
          "indexed": false,
          "internalType": "uint256",
          "name": "failed",
          "type": "uint256"
        }
      ],
      "name": "BatchFinalizationCompleted",
      "type": "event"
    },
    {
      "anonymous": false,
      "inputs": [
        {
          "indexed": true,
          "internalType": "bytes32",
          "name": "txId",
          "type": "bytes32"
        },
        {
          "indexed": false,
          "internalType": "uint256",
          "name": "txSlot",
          "type": "uint256"
        }
      ],
      "name": "CreatedTransaction",
      "type": "event"
    },
    {
      "anonymous": false,
      "inputs": [
        {
          "indexed": true,
          "internalType": "bytes32",
          "name": "txId",
          "type": "bytes32"
        },
        {
          "indexed": true,
          "internalType": "address",
          "name": "sender",
          "type": "address"
        },
        {
          "indexed": false,
          "internalType": "uint256",
          "name": "amount",
          "type": "uint256"
        }
      ],
      "name": "FeesRefunded",
      "type": "event"
    },
    {
      "anonymous": false,
      "inputs": [
        {
          "indexed": false,
          "internalType": "uint64",
          "name": "version",
          "type": "uint64"
        }
      ],
      "name": "Initialized",
      "type": "event"
    },
    {
      "anonymous": false,
      "inputs": [
        {
          "indexed": true,
          "internalType": "bytes32",
          "name": "txId",
          "type": "bytes32"
        },
        {
          "indexed": true,
          "internalType": "address",
          "name": "recipient",
          "type": "address"
        },
        {
          "indexed": true,
          "internalType": "address",
          "name": "activator",
          "type": "address"
        }
      ],
      "name": "InternalMessageProcessed",
      "type": "event"
    },
    {
      "anonymous": false,
      "inputs": [
        {
          "indexed": true,
          "internalType": "bytes32",
          "name": "txId",
          "type": "bytes32"
        },
        {
          "indexed": true,
          "internalType": "address",
          "name": "oldLeader",
          "type": "address"
        },
        {
          "indexed": true,
          "internalType": "address",
          "name": "newLeader",
          "type": "address"
        }
      ],
      "name": "LeaderIdlenessProcessed",
      "type": "event"
    },
    {
      "anonymous": false,
      "inputs": [
        {
          "indexed": true,
          "internalType": "bytes32",
          "name": "txId",
          "type": "bytes32"
        },
        {
          "indexed": true,
          "internalType": "address",
          "name": "recipient",
          "type": "address"
        },
        {
          "indexed": true,
          "internalType": "address",
          "name": "activator",
          "type": "address"
        }
      ],
      "name": "NewTransaction",
      "type": "event"
    },
    {
      "anonymous": false,
      "inputs": [
        {
          "indexed": true,
          "internalType": "address",
          "name": "previousOwner",
          "type": "address"
        },
        {
          "indexed": true,
          "internalType": "address",
          "name": "newOwner",
          "type": "address"
        }
      ],
      "name": "OwnershipTransferStarted",
      "type": "event"
    },
    {
      "anonymous": false,
      "inputs": [
        {
          "indexed": true,
          "internalType": "address",
          "name": "previousOwner",
          "type": "address"
        },
        {
          "indexed": true,
          "internalType": "address",
          "name": "newOwner",
          "type": "address"
        }
      ],
      "name": "OwnershipTransferred",
      "type": "event"
    },
    {
      "anonymous": false,
      "inputs": [
        {
          "indexed": true,
          "internalType": "bytes32",
          "name": "txId",
          "type": "bytes32"
        }
      ],
      "name": "ProcessIdlenessAccepted",
      "type": "event"
    },
    {
      "anonymous": false,
      "inputs": [
        {
          "indexed": true,
          "internalType": "bytes32",
          "name": "txId",
          "type": "bytes32"
        }
      ],
      "name": "TransactionAccepted",
      "type": "event"
    },
    {
      "anonymous": false,
      "inputs": [
        {
          "indexed": true,
          "internalType": "bytes32",
          "name": "txId",
          "type": "bytes32"
        },
        {
          "indexed": true,
          "internalType": "address",
          "name": "leader",
          "type": "address"
        }
      ],
      "name": "TransactionActivated",
      "type": "event"
    },
    {
      "anonymous": false,
      "inputs": [
        {
          "indexed": true,
          "internalType": "bytes32",
          "name": "txId",
          "type": "bytes32"
        },
        {
          "indexed": true,
          "internalType": "address",
          "name": "cancelledBy",
          "type": "address"
        }
      ],
      "name": "TransactionCancelled",
      "type": "event"
    },
    {
      "anonymous": false,
      "inputs": [
        {
          "indexed": true,
          "internalType": "bytes32",
          "name": "txId",
          "type": "bytes32"
        }
      ],
      "name": "TransactionFinalizationFailed",
      "type": "event"
    },
    {
      "anonymous": false,
      "inputs": [
        {
          "indexed": true,
          "internalType": "bytes32",
          "name": "txId",
          "type": "bytes32"
        }
      ],
      "name": "TransactionFinalized",
      "type": "event"
    },
    {
      "anonymous": false,
      "inputs": [
        {
          "indexed": true,
          "internalType": "bytes32",
          "name": "txId",
          "type": "bytes32"
        }
      ],
      "name": "TransactionLeaderRevealed",
      "type": "event"
    },
    {
      "anonymous": false,
      "inputs": [
        {
          "indexed": true,
          "internalType": "bytes32",
          "name": "txId",
          "type": "bytes32"
        },
        {
          "indexed": true,
          "internalType": "address",
          "name": "newLeader",
          "type": "address"
        }
      ],
      "name": "TransactionLeaderRotated",
      "type": "event"
    },
    {
      "anonymous": false,
      "inputs": [
        {
          "indexed": true,
          "internalType": "bytes32",
          "name": "txId",
          "type": "bytes32"
        }
      ],
      "name": "TransactionLeaderTimeout",
      "type": "event"
    },
    {
      "anonymous": false,
      "inputs": [
        {
          "indexed": false,
          "internalType": "bytes32[]",
          "name": "txIds",
          "type": "bytes32[]"
        }
      ],
      "name": "TransactionNeedsRecomputation",
      "type": "event"
    },
    {
      "anonymous": false,
      "inputs": [
        {
          "indexed": true,
          "internalType": "bytes32",
          "name": "txId",
          "type": "bytes32"
        },
        {
          "indexed": false,
          "internalType": "address[]",
          "name": "validators",
          "type": "address[]"
        }
      ],
      "name": "TransactionReceiptProposed",
      "type": "event"
    },
    {
      "anonymous": false,
      "inputs": [
        {
          "indexed": true,
          "internalType": "bytes32",
          "name": "txId",
          "type": "bytes32"
        }
      ],
      "name": "TransactionUndetermined",
      "type": "event"
    },
    {
      "anonymous": false,
      "inputs": [
        {
          "indexed": true,
          "internalType": "bytes32",
          "name": "txId",
          "type": "bytes32"
        },
        {
          "indexed": false,
          "internalType": "address[]",
          "name": "recipients",
          "type": "address[]"
        },
        {
          "indexed": false,
          "internalType": "uint256[]",
          "name": "amounts",
          "type": "uint256[]"
        }
      ],
      "name": "UnifiedFeesDistributed",
      "type": "event"
    },
    {
      "anonymous": false,
      "inputs": [
        {
          "indexed": true,
          "internalType": "bytes32",
          "name": "txId",
          "type": "bytes32"
        },
        {
          "indexed": false,
          "internalType": "uint256",
          "name": "totalUnissuedValue",
          "type": "uint256"
        },
        {
          "indexed": false,
          "internalType": "uint256",
          "name": "unissuedCount",
          "type": "uint256"
        }
      ],
      "name": "UnissuedMessagesAtFinalization",
      "type": "event"
    },
    {
      "anonymous": false,
      "inputs": [
        {
          "indexed": true,
          "internalType": "bytes32",
          "name": "txId",
          "type": "bytes32"
        },
        {
          "indexed": true,
          "internalType": "address",
          "name": "oldValidator",
          "type": "address"
        },
        {
          "indexed": true,
          "internalType": "address",
          "name": "newValidator",
          "type": "address"
        },
        {
          "indexed": false,
          "internalType": "uint256",
          "name": "validatorIndex",
          "type": "uint256"
        }
      ],
      "name": "ValidatorReplaced",
      "type": "event"
    },
    {
      "anonymous": false,
      "inputs": [
        {
          "indexed": true,
          "internalType": "bytes32",
          "name": "txId",
          "type": "bytes32"
        },
        {
          "indexed": true,
          "internalType": "address",
          "name": "recipient",
          "type": "address"
        },
        {
          "indexed": false,
          "internalType": "uint256",
          "name": "value",
          "type": "uint256"
        }
      ],
      "name": "ValueWithdrawalFailed",
      "type": "event"
    },
    {
      "anonymous": false,
      "inputs": [
        {
          "indexed": true,
          "internalType": "bytes32",
          "name": "txId",
          "type": "bytes32"
        },
        {
          "indexed": true,
          "internalType": "address",
          "name": "validator",
          "type": "address"
        },
        {
          "indexed": false,
          "internalType": "bool",
          "name": "isLastVote",
          "type": "bool"
        }
      ],
      "name": "VoteCommitted",
      "type": "event"
    },
    {
      "anonymous": false,
      "inputs": [
        {
          "indexed": true,
          "internalType": "bytes32",
          "name": "txId",
          "type": "bytes32"
        },
        {
          "indexed": true,
          "internalType": "address",
          "name": "validator",
          "type": "address"
        },
        {
          "indexed": false,
          "internalType": "enum ITransactions.VoteType",
          "name": "voteType",
          "type": "uint8"
        },
        {
          "indexed": false,
          "internalType": "bool",
          "name": "isLastVote",
          "type": "bool"
        },
        {
          "indexed": false,
          "internalType": "enum ITransactions.ResultType",
          "name": "result",
          "type": "uint8"
        }
      ],
      "name": "VoteRevealed",
      "type": "event"
    },
    {
      "inputs": [],
      "name": "EVENTS_BATCH_SIZE",
      "outputs": [
        {
          "internalType": "uint256",
          "name": "",
          "type": "uint256"
        }
      ],
      "stateMutability": "view",
      "type": "function"
    },
    {
      "inputs": [],
      "name": "VERSION",
      "outputs": [
        {
          "internalType": "string",
          "name": "",
          "type": "string"
        }
      ],
      "stateMutability": "view",
      "type": "function"
    },
    {
      "inputs": [],
      "name": "acceptOwnership",
      "outputs": [],
      "stateMutability": "nonpayable",
      "type": "function"
    },
    {
      "inputs": [
        {
          "internalType": "bytes32",
          "name": "_txId",
          "type": "bytes32"
        },
        {
          "internalType": "address",
          "name": "_operator",
          "type": "address"
        },
        {
          "internalType": "bytes",
          "name": "_vrfProof",
          "type": "bytes"
        }
      ],
      "name": "activateTransaction",
      "outputs": [],
      "stateMutability": "nonpayable",
      "type": "function"
    },
    {
      "inputs": [
        {
          "internalType": "address",
          "name": "_sender",
          "type": "address"
        },
        {
          "internalType": "address",
          "name": "_recipient",
          "type": "address"
        },
        {
          "internalType": "uint256",
          "name": "_numOfInitialValidators",
          "type": "uint256"
        },
        {
          "internalType": "uint256",
          "name": "_maxRotations",
          "type": "uint256"
        },
        {
          "internalType": "bytes",
          "name": "_calldata",
          "type": "bytes"
        },
        {
          "components": [
            {
              "internalType": "uint256",
              "name": "leaderTimeoutFee",
              "type": "uint256"
            },
            {
              "internalType": "uint256",
              "name": "validatorsTimeoutFee",
              "type": "uint256"
            },
            {
              "internalType": "uint256",
              "name": "appealRounds",
              "type": "uint256"
            },
            {
              "internalType": "uint256",
              "name": "rollupUnifiedBudget",
              "type": "uint256"
            },
            {
              "internalType": "uint256",
              "name": "rollupUnifiedConsumed",
              "type": "uint256"
            },
            {
              "internalType": "uint256",
              "name": "totalMessageFees",
              "type": "uint256"
            },
            {
              "internalType": "uint256[]",
              "name": "rotations",
              "type": "uint256[]"
            }
          ],
          "internalType": "struct IFeeManager.FeesDistribution",
          "name": "_feesDistribution",
          "type": "tuple"
        },
        {
          "internalType": "uint256",
          "name": "_validUntil",
          "type": "uint256"
        }
      ],
      "name": "addTransaction",
      "outputs": [],
      "stateMutability": "payable",
      "type": "function"
    },
    {
      "inputs": [],
      "name": "addressManager",
      "outputs": [
        {
          "internalType": "contract IAddressManager",
          "name": "",
          "type": "address"
        }
      ],
      "stateMutability": "view",
      "type": "function"
    },
    {
      "inputs": [
        {
          "internalType": "bytes32",
          "name": "_txId",
          "type": "bytes32"
        }
      ],
      "name": "cancelTransaction",
      "outputs": [],
      "stateMutability": "nonpayable",
      "type": "function"
    },
    {
      "inputs": [
        {
          "internalType": "bytes32",
          "name": "_txId",
          "type": "bytes32"
        },
        {
          "internalType": "bytes32",
          "name": "_commitHash",
          "type": "bytes32"
        },
        {
          "internalType": "uint256",
          "name": "_validatorIndex",
          "type": "uint256"
        }
      ],
      "name": "commitVote",
      "outputs": [],
      "stateMutability": "nonpayable",
      "type": "function"
    },
    {
      "inputs": [
        {
          "internalType": "address",
          "name": "_sender",
          "type": "address"
        },
        {
          "internalType": "uint256",
          "name": "_numOfInitialValidators",
          "type": "uint256"
        },
        {
          "internalType": "uint256",
          "name": "_maxRotations",
          "type": "uint256"
        },
        {
          "internalType": "bytes",
          "name": "_calldata",
          "type": "bytes"
        },
        {
          "components": [
            {
              "internalType": "uint256",
              "name": "leaderTimeoutFee",
              "type": "uint256"
            },
            {
              "internalType": "uint256",
              "name": "validatorsTimeoutFee",
              "type": "uint256"
            },
            {
              "internalType": "uint256",
              "name": "appealRounds",
              "type": "uint256"
            },
            {
              "internalType": "uint256",
              "name": "rollupUnifiedBudget",
              "type": "uint256"
            },
            {
              "internalType": "uint256",
              "name": "rollupUnifiedConsumed",
              "type": "uint256"
            },
            {
              "internalType": "uint256",
              "name": "totalMessageFees",
              "type": "uint256"
            },
            {
              "internalType": "uint256[]",
              "name": "rotations",
              "type": "uint256[]"
            }
          ],
          "internalType": "struct IFeeManager.FeesDistribution",
          "name": "_feesDistribution",
          "type": "tuple"
        },
        {
          "internalType": "uint256",
          "name": "_saltNonce",
          "type": "uint256"
        },
        {
          "internalType": "uint256",
          "name": "_validUntil",
          "type": "uint256"
        }
      ],
      "name": "deploySalted",
      "outputs": [],
      "stateMutability": "payable",
      "type": "function"
    },
    {
      "inputs": [
        {
          "internalType": "address",
          "name": "_recipient",
          "type": "address"
        },
        {
          "internalType": "uint256",
          "name": "_value",
          "type": "uint256"
        },
        {
          "internalType": "bytes",
          "name": "_data",
          "type": "bytes"
        }
      ],
      "name": "executeMessage",
      "outputs": [
        {
          "internalType": "bool",
          "name": "success",
          "type": "bool"
        }
      ],
      "stateMutability": "nonpayable",
      "type": "function"
    },
    {
      "inputs": [
        {
          "internalType": "bytes32[]",
          "name": "_txIds",
          "type": "bytes32[]"
        }
      ],
      "name": "finalizeIdlenessTxs",
      "outputs": [],
      "stateMutability": "nonpayable",
      "type": "function"
    },
    {
      "inputs": [
        {
          "internalType": "bytes32",
          "name": "_txId",
          "type": "bytes32"
        }
      ],
      "name": "finalizeTransaction",
      "outputs": [],
      "stateMutability": "nonpayable",
      "type": "function"
    },
    {
      "inputs": [
        {
          "internalType": "bytes32",
          "name": "_txId",
          "type": "bytes32"
        }
      ],
      "name": "flushExternalMessages",
      "outputs": [],
      "stateMutability": "nonpayable",
      "type": "function"
    },
    {
      "inputs": [],
      "name": "getAddressManager",
      "outputs": [
        {
          "internalType": "contract IAddressManager",
          "name": "",
          "type": "address"
        }
      ],
      "stateMutability": "view",
      "type": "function"
    },
    {
      "inputs": [
        {
          "internalType": "bytes32",
          "name": "txId",
          "type": "bytes32"
        }
      ],
      "name": "getPendingTransactionValue",
      "outputs": [
        {
          "internalType": "uint256",
          "name": "",
          "type": "uint256"
        }
      ],
      "stateMutability": "view",
      "type": "function"
    },
    {
      "inputs": [
        {
          "internalType": "address",
          "name": "_addressManager",
          "type": "address"
        }
      ],
      "name": "initialize",
      "outputs": [],
      "stateMutability": "nonpayable",
      "type": "function"
    },
    {
      "inputs": [
        {
          "internalType": "address",
          "name": "addr",
          "type": "address"
        }
      ],
      "name": "isGhostContract",
      "outputs": [
        {
          "internalType": "bool",
          "name": "",
          "type": "bool"
        }
      ],
      "stateMutability": "view",
      "type": "function"
    },
    {
      "inputs": [
        {
          "internalType": "bytes32",
          "name": "_txId",
          "type": "bytes32"
        }
      ],
      "name": "leaderIdleness",
      "outputs": [],
      "stateMutability": "nonpayable",
      "type": "function"
    },
    {
      "inputs": [
        {
          "components": [
            {
              "internalType": "bytes32",
              "name": "txId",
              "type": "bytes32"
            },
            {
              "internalType": "uint256",
              "name": "saltAsAValidator",
              "type": "uint256"
            },
            {
              "internalType": "bytes32",
              "name": "txExecutionHash",
              "type": "bytes32"
            },
            {
              "internalType": "bytes32",
              "name": "messagesAndOtherFieldsHash",
              "type": "bytes32"
            },
            {
              "internalType": "bytes32",
              "name": "otherExecutionFieldsHash",
              "type": "bytes32"
            },
            {
              "internalType": "enum ITransactions.VoteType",
              "name": "resultValue",
              "type": "uint8"
            },
            {
              "components": [
                {
                  "internalType": "enum IMessages.MessageType",
                  "name": "messageType",
                  "type": "uint8"
                },
                {
                  "internalType": "address",
                  "name": "recipient",
                  "type": "address"
                },
                {
                  "internalType": "uint256",
                  "name": "value",
                  "type": "uint256"
                },
                {
                  "internalType": "bytes",
                  "name": "data",
                  "type": "bytes"
                },
                {
                  "internalType": "bool",
                  "name": "onAcceptance",
                  "type": "bool"
                },
                {
                  "internalType": "uint256",
                  "name": "saltNonce",
                  "type": "uint256"
                }
              ],
              "internalType": "struct IMessages.SubmittedMessage[]",
              "name": "messages",
              "type": "tuple[]"
            }
          ],
          "internalType": "struct IConsensusMainWithFees.LeaderRevealVoteParams",
          "name": "leaderRevealVoteParams",
          "type": "tuple"
        }
      ],
      "name": "leaderRevealVote",
      "outputs": [],
      "stateMutability": "nonpayable",
      "type": "function"
    },
    {
      "inputs": [],
      "name": "owner",
      "outputs": [
        {
          "internalType": "address",
          "name": "",
          "type": "address"
        }
      ],
      "stateMutability": "view",
      "type": "function"
    },
    {
      "inputs": [],
      "name": "pendingOwner",
      "outputs": [
        {
          "internalType": "address",
          "name": "",
          "type": "address"
        }
      ],
      "stateMutability": "view",
      "type": "function"
    },
    {
      "inputs": [
        {
          "internalType": "bytes32",
          "name": "_txId",
          "type": "bytes32"
        }
      ],
      "name": "processIdleness",
      "outputs": [],
      "stateMutability": "nonpayable",
      "type": "function"
    },
    {
      "inputs": [
        {
          "internalType": "address[]",
          "name": "affectedRecipients",
          "type": "address[]"
        }
      ],
      "name": "promoteNextPendingTransactions",
      "outputs": [],
      "stateMutability": "nonpayable",
      "type": "function"
    },
    {
      "inputs": [
        {
          "internalType": "bytes32",
          "name": "_txId",
          "type": "bytes32"
        },
        {
          "internalType": "bytes32",
          "name": "_txExecutionHash",
          "type": "bytes32"
        },
        {
          "internalType": "uint256",
          "name": "_processingBlock",
          "type": "uint256"
        },
        {
          "internalType": "uint256",
          "name": "_storageFeeUsed",
          "type": "uint256"
        },
        {
          "internalType": "address",
          "name": "_operator",
          "type": "address"
        },
        {
          "internalType": "bytes",
          "name": "_eqBlocksOutputs",
          "type": "bytes"
        },
        {
          "internalType": "bytes",
          "name": "_vrfProof",
          "type": "bytes"
        }
      ],
      "name": "proposeReceipt",
      "outputs": [],
      "stateMutability": "nonpayable",
      "type": "function"
    },
    {
      "inputs": [
        {
          "internalType": "bytes32[]",
          "name": "_txIds",
          "type": "bytes32[]"
        }
      ],
      "name": "redButtonFinalize",
      "outputs": [],
      "stateMutability": "nonpayable",
      "type": "function"
    },
    {
      "inputs": [
        {
          "internalType": "address",
          "name": "ghost",
          "type": "address"
        }
      ],
      "name": "registerGhostContract",
      "outputs": [],
      "stateMutability": "nonpayable",
      "type": "function"
    },
    {
      "inputs": [],
      "name": "renounceOwnership",
      "outputs": [],
      "stateMutability": "nonpayable",
      "type": "function"
    },
    {
      "inputs": [
        {
          "internalType": "bytes32",
          "name": "_txId",
          "type": "bytes32"
        },
        {
          "internalType": "bytes32",
          "name": "_voteHash",
          "type": "bytes32"
        },
        {
          "internalType": "enum ITransactions.VoteType",
          "name": "_voteType",
          "type": "uint8"
        },
        {
          "internalType": "bytes32",
          "name": "_otherExecutionFieldsHash",
          "type": "bytes32"
        },
        {
          "internalType": "uint256",
          "name": "_nonce",
          "type": "uint256"
        },
        {
          "internalType": "uint256",
          "name": "_validatorIndex",
          "type": "uint256"
        }
      ],
      "name": "revealVote",
      "outputs": [],
      "stateMutability": "nonpayable",
      "type": "function"
    },
    {
      "inputs": [
        {
          "internalType": "address",
          "name": "_addressManager",
          "type": "address"
        }
      ],
      "name": "setAddressManager",
      "outputs": [],
      "stateMutability": "nonpayable",
      "type": "function"
    },
    {
      "inputs": [
        {
          "internalType": "bytes32",
          "name": "_txId",
          "type": "bytes32"
        }
      ],
      "name": "submitAppeal",
      "outputs": [],
      "stateMutability": "payable",
      "type": "function"
    },
    {
      "inputs": [
        {
          "internalType": "bytes32",
          "name": "_txId",
          "type": "bytes32"
        },
        {
          "components": [
            {
              "internalType": "uint256",
              "name": "leaderTimeoutFee",
              "type": "uint256"
            },
            {
              "internalType": "uint256",
              "name": "validatorsTimeoutFee",
              "type": "uint256"
            },
            {
              "internalType": "uint256",
              "name": "appealRounds",
              "type": "uint256"
            },
            {
              "internalType": "uint256",
              "name": "rollupUnifiedBudget",
              "type": "uint256"
            },
            {
              "internalType": "uint256",
              "name": "rollupUnifiedConsumed",
              "type": "uint256"
            },
            {
              "internalType": "uint256",
              "name": "totalMessageFees",
              "type": "uint256"
            },
            {
              "internalType": "uint256[]",
              "name": "rotations",
              "type": "uint256[]"
            }
          ],
          "internalType": "struct IFeeManager.FeesDistribution",
          "name": "_feesDistribution",
          "type": "tuple"
        }
      ],
      "name": "topUpAndSubmitAppeal",
      "outputs": [],
      "stateMutability": "payable",
      "type": "function"
    },
    {
      "inputs": [
        {
          "internalType": "bytes32",
          "name": "_txId",
          "type": "bytes32"
        },
        {
          "components": [
            {
              "internalType": "uint256",
              "name": "leaderTimeoutFee",
              "type": "uint256"
            },
            {
              "internalType": "uint256",
              "name": "validatorsTimeoutFee",
              "type": "uint256"
            },
            {
              "internalType": "uint256",
              "name": "appealRounds",
              "type": "uint256"
            },
            {
              "internalType": "uint256",
              "name": "rollupUnifiedBudget",
              "type": "uint256"
            },
            {
              "internalType": "uint256",
              "name": "rollupUnifiedConsumed",
              "type": "uint256"
            },
            {
              "internalType": "uint256",
              "name": "totalMessageFees",
              "type": "uint256"
            },
            {
              "internalType": "uint256[]",
              "name": "rotations",
              "type": "uint256[]"
            }
          ],
          "internalType": "struct IFeeManager.FeesDistribution",
          "name": "_feesDistribution",
          "type": "tuple"
        }
      ],
      "name": "topUpFees",
      "outputs": [],
      "stateMutability": "payable",
      "type": "function"
    },
    {
      "inputs": [
        {
          "internalType": "address",
          "name": "newOwner",
          "type": "address"
        }
      ],
      "name": "transferOwnership",
      "outputs": [],
      "stateMutability": "nonpayable",
      "type": "function"
    },
    {
      "stateMutability": "payable",
      "type": "receive"
    }
  ],
  "bytecode": "0x6080806040523460d2577ff0c57e16840df040f15088dc2f81fe391c3923bec73e23a9662efc9c229c6a005460ff8160401c1660c1576002600160401b03196001600160401b03821601605c575b604051615b4790816100d88239f35b6001600160401b0319166001600160401b039081177ff0c57e16840df040f15088dc2f81fe391c3923bec73e23a9662efc9c229c6a005581527fc7f505b2f371ae2175ee4913f4499e1f2633a7b5936321eed1cdaeb6115181d290602090a13880604d565b63f92ee8a960e01b60005260046000fd5b600080fdfe608080604052600436101561001d575b50361561001b57600080fd5b005b600090813560e01c90816303d14917146127c5575080630652b57a1461275f578063103abeac146127435780631a759738146126c75780633ab76e9f1461265f5780633bd15f70146126865780635492f3021461265f5780635c970d28146124535780636457bf481461232a57806367f7c83a1461229c5780636a9c499d14611de257806370ba333914611bdc578063715018a614611b5b57806379ba509714611b0d57806385d2d27414611aea5780638b5de1bc146119c35780638da5cb5b1461198d5780639e0c615f146118df578063a4d890801461182b578063a560cd0c146117e5578063aa923c021461172d578063b2efda83146113eb578063b77ae9c214611227578063c4d66de814611078578063c7e6e76614610fdf578063cf0a638414610f56578063dd6ed25614610bd5578063e30c397814610b9f578063e4c23d5914610737578063f2fde38b146106af578063f5435a1b146105f3578063f5acca71146101e05763ffa1ad740361000f57346101dd57806003193601126101dd57506101d96040516101b3604082612dbb565b60058152640322e302e360dc1b6020820152604051918291602083526020830190613065565b0390f35b80fd5b50346101dd576101ef36612fc4565b906101f8614f61565b6102006156f7565b90610209615074565b835191939192849291839173__$66ce50c11b4f8ca6e6decb43a984eadcfa$__91906001600160a01b0316835b85518910156105a65786546001600160a01b03166102548a88613b96565b5190853b15610520576040516364aade8f60e11b81526001600160a01b0391909116600482015260248101919091528781604481885af480156104bd57908891610591575b50506102a58987613b96565b51604051906102b382612d33565b8152604051634377ca4160e11b815290516004820152610140816024818b875af1889181610560575b50610325575061031c6001916102f28b89613b96565b517fd157a8824e3093207095e0855163da28b596e2c5f19ba73ea473c2346e05b15b8a80a2614f52565b985b0197610236565b6103338a889b97939b613b96565b5160405163255709e560e11b8152600481019190915288816024816001600160a01b0389165afa908115610555578991610533575b5088546001600160a01b031661037e888a613b96565b5190873b1561052f5783918b916103aa8560405195869485946318e563ef60e01b865260048601614c5a565b03818a5af4801561052457908a9161050b575b50806001600160a01b036103cf6150de565b1660246103dc8b8d613b96565b516040519485938492632367190d60e01b845260048401525af18a91816104e7575b506104cc575b50506104108688613b96565b517f24196ec40f90671b7144e716978686b4f3c7d6b00b23da3971ef2b52af27d87f8980a287546020909101516001600160a01b0391821691166104548789613b96565b5191863b156104c85790899161047e604051948593849363121ad92d60e21b855260048501613bc0565b0381885af480156104bd579088916104a4575b505061049e600191614f52565b9461031e565b816104ae91612dbb565b6104b9578638610491565b8680fd5b6040513d8a823e3d90fd5b8980fd5b6104e0916104da898b613b96565b51615743565b3880610404565b6105049192503d808d833e6104fc8183612dbb565b810190614eb5565b90386103fe565b8161051591612dbb565b6105205788386103bd565b8880fd5b6040513d8c823e3d90fd5b8a80fd5b61054f91503d808b833e6105478183612dbb565b810190613292565b38610368565b6040513d8b823e3d90fd5b6105839192506101403d811161058a575b61057b8183612dbb565b810190614b9d565b90386102dc565b503d610571565b8161059b91612dbb565b6104b9578638610299565b7f3d139c84ad9350b1f396f3d75cb0770c4f495459f8ef8755e5335a12632bac3d60608989938860405192835260208301526040820152a16001600080516020615a928339815191525580f35b50346101dd57808061063d61060736612fc4565b61060f61503e565b6001600160a01b0361061f615140565b169060405194858094819363f5435a1b60e01b835260048301613be2565b03925af180156106a457829061065b575b61065891506151a5565b80f35b503d8083833e61066b8183612dbb565b8101906020818303126106a0578051916001600160401b03831161069c576106589261069792016131d1565b61064e565b8380fd5b8280fd5b6040513d84823e3d90fd5b50346101dd5760203660031901126101dd576106c9612df3565b6106d161503e565b600080516020615ad283398151915280546001600160a01b0319166001600160a01b03928316908117909155600080516020615a52833981519152549091167f38d16b8cac22d99fc7c124b9cd0de2d3fa1faef420bfe791d8c362d765e227008380a380f35b5060e03660031901126101dd5761074c612df3565b906024356064356001600160401b0381116106a05761076f903690600401612e85565b926084356001600160401b03811161069c5761078f903690600401612ed0565b9060a4359061079c614f61565b8115610b90576001600160a01b038116918215610b8a57815b6001600160a01b036107c56150de565b16916040516327f4490760e11b815260606004820152602081806107ec606482018b61475f565b8b60248301528c60448301520381875afa908115610555578991610b53575b503410610b445796978897906001600160a01b03610827615254565b16916040519061083682612d69565b8782528a60208301526040820191600160a01b60019003861683526060810193338552608082019b8c5260a08201604435815260c0830191825260e0830193845260c435610100840152346101208401526040519c8d968796636dada77360e11b88526004880160209052600160a01b600190038651166024890152600160a01b600190036020870151166044890152600160a01b600190039051166064880152600160a01b6001900390511660848701525160a48601525160c48501525160e484016101409052610164840161090c91613065565b915161010484015261010081015161012484015261012001516101448301520381345a9460a095f1958615610b39578796610ab9575b50855190823b15610ab55761097392889283604051809681958294630e5fbe8960e21b84528c3491600486016147d8565b03925af1908115610aaa578691610a95575b5050608084015115610a60578351606085015160408601516001600160a01b03908116929116907fdab9102861c7483a187584d6371d88316f005af507982ccf95c110879f3ed5a58880a45b9251926001600160a01b036109e46150de565b169115610a5857905b803b15610a5457610a1a9385809460405196879586948593630e5fbe8960e21b85523491600486016147d8565b03925af180156106a457610a3f575b506001600080516020615a928339815191525580f35b81610a4991612dbb565b6101dd578038610a29565b8480fd5b5033906109ed565b83517f8620e7f03a280a3d2aa84bd41ba19524c2d7f1dbfa9d79cb81877b0f8c963f9b602080870151604051908152a26109d1565b81610a9f91612dbb565b610a54578438610985565b6040513d88823e3d90fd5b8780fd5b90955060a0813d60a011610b31575b81610ad560a09383612dbb565b810103126104b957610b25608060405192610aef84612da0565b8051845260208101516020850152610b0960408201613160565b6040850152610b1a60608201613160565b606085015201613153565b60808201529438610942565b3d9150610ac8565b6040513d89823e3d90fd5b638d53e55360e01b8852600488fd5b90506020813d602011610b82575b81610b6e60209383612dbb565b81010312610b7d57513861080b565b600080fd5b3d9150610b61565b336107b5565b63aceab4a160e01b8552600485fd5b50346101dd57806003193601126101dd57600080516020615ad2833981519152546040516001600160a01b039091168152602090f35b5060e03660031901126101dd57610bea612df3565b90610bf3612e09565b604435906084356001600160401b03811161069c57610c16903690600401612e85565b60a4356001600160401b038111610a5457610c35903690600401612ed0565b90610c3e614f61565b6001600160a01b038616958615610f4e57905b6001600160a01b03610c616150de565b16936040516327f4490760e11b81526060600482015260208180610c88606482018961475f565b8a60248301528b60448301520381895afa9081156104bd578891610f1c575b503410610f0d579596949587956001600160a01b03610cc4615254565b169260405191610cd383612d69565b82526001600160a01b03928316602080840191825286851660408086019182523360608701908152608087019d8e526064803560a0890190815260c0890197885260e089018f815260c480356101008c01908152346101208d019081529651636dada77360e11b815260048101999099529a518c16602489015297518b16604488015294518a1691860191909152905190971660848401529b5160a4830152945191810191909152905161014060e48301529098899384939092610d9c90610164860190613065565b925161010485015251610124840152516101448301520381345a9460a095f1948515610f02578495610eb8575b50845192803b15610a5457610dfa9385809460405196879586948593630e5fbe8960e21b85523491600486016147d8565b03925af180156106a457610e9f575b5050608081015115610e6a578051606082015160408301516001600160a01b03908116929116907fdab9102861c7483a187584d6371d88316f005af507982ccf95c110879f3ed5a58580a4506001600080516020615a928339815191525580f35b80517f8620e7f03a280a3d2aa84bd41ba19524c2d7f1dbfa9d79cb81877b0f8c963f9b602080840151604051908152a2610a29565b81610ea991612dbb565b610eb4578138610e09565b5080fd5b90945060a0813d60a011610efa575b81610ed460a09383612dbb565b8101031261069c57610eee608060405192610aef84612da0565b60808201529338610dc9565b3d9150610ec7565b6040513d86823e3d90fd5b638d53e55360e01b8752600487fd5b90506020813d602011610f46575b81610f3760209383612dbb565b81010312610b7d575138610ca7565b3d9150610f2a565b503390610c51565b50346101dd5760203660031901126101dd5780610f71612df3565b610f7961503e565b6001600160a01b03610f89615254565b1690813b15610fdb576040516333c298e160e21b81526001600160a01b0390911660048201529082908290602490829084905af180156106a457610fca5750f35b81610fd491612dbb565b6101dd5780f35b5050fd5b50346101dd5760203660031901126101dd57610ff9614f61565b805481906001600160a01b031673__$66ce50c11b4f8ca6e6decb43a984eadcfa$__803b15610fdb576040516364aade8f60e11b81526001600160a01b03909216600480840191909152356024830152829082908180604481015b03915af480156106a457610a3f57506001600080516020615a928339815191525580f35b50346101dd5760203660031901126101dd57611092612df3565b600080516020615ab2833981519152549060ff8260401c1615916001600160401b0381168015908161121f575b6001149081611215575b15908161120c575b506111fd5767ffffffffffffffff198116600117600080516020615ab283398151915255826111d0575b506111046159e3565b61110c6159e3565b6111146159e3565b33156111bc5761112333615319565b61112b6159e3565b6111336159e3565b6001600080516020615a928339815191525582546001600160a01b0319166001600160a01b03919091161782556111675780f35b60ff60401b19600080516020615ab28339815191525416600080516020615ab2833981519152557fc7f505b2f371ae2175ee4913f4499e1f2633a7b5936321eed1cdaeb6115181d2602060405160018152a180f35b631e4fbdf760e01b83526004839052602483fd5b68ffffffffffffffffff19166801000000000000000117600080516020615ab283398151915255386110fb565b63f92ee8a960e01b8452600484fd5b905015386110d1565b303b1591506110c9565b8491506110bf565b5061123136612f95565b611239614f61565b8261124383615387565b92969495919492906001600160a01b0361125b615074565b1691823b1561069c57611288928492838c6040519687958694859362e5a95360e71b8552600485016146bd565b03925af180156106a4576113d6575b506020916112dd91506001600160a01b036112b06150de565b1690896040518096819582946327011ecb60e11b84528d600485015260e0602485015260e484019061475f565b9034604484015233606484015283608484015289151560a484015260c483015203925af1908115610aaa578691611398575b5015611389571561134d57506001600160a01b031690600080516020615a728339815191528380a35b6001600080516020615a928339815191525580f35b9190507f08e6523db104b48b6f1a359653498b9739ec31f6e03abb21e7acf4d73f0a48ff60405180611381339534836146e5565b0390a3611338565b6359ce6fdf60e11b8552600485fd5b90506020813d6020116113ce575b816113b360209383612dbb565b810103126113ca576113c490613153565b3861130f565b8580fd5b3d91506113a6565b816113e091612dbb565b6104b9578638611297565b50346101dd5760203660031901126101dd5780600435611409614f61565b6101406001600160a01b0361141c6156f7565b16602460405161142b81612d33565b8481526040519687938492634377ca4160e11b84525160048401525af19283156106a457829361170c575b5060c08301516115fc575b90918291602491836001600160a01b03611479615074565b166040519485809263255709e560e11b82528660048301525afa928315610f025784936115e0575b50835473__$66ce50c11b4f8ca6e6decb43a984eadcfa$__93906001600160a01b0316843b156113ca57858484926114ee8560405195869485946318e563ef60e01b865260048601614c5a565b0381885af4908115610aaa5786916115cb575b5090816001600160a01b036115146150de565b16602460405180958193632367190d60e01b83528960048401525af1908115610aaa576115499287926115af575b5084615743565b60405192827f24196ec40f90671b7144e716978686b4f3c7d6b00b23da3971ef2b52af27d87f8680a284546020909201516001600160a01b0390811693921691813b156113ca5763121ad92d60e21b855285938593849283926110549260048501613bc0565b6115c49192503d8089833e6104fc8183612dbb565b9038611542565b816115d591612dbb565b610a54578438611501565b6115f59193503d8086833e6105478183612dbb565b91386114a1565b6101208301928351600f8110156116ce5760051480156116f6575b938394600014611655575090602491817ff250caa116f9eac0e4e82d403f131ce0a520b6c232dbcbe270b3729b0aaca09e8580a25b93509050611461565b80935051600f8110156116e25784929190600d0361169c57829350817fe51a41760ba25c8a4ac33894d5eb8698cf110a90d4e6f764fa0579ec8767b46684602495a261164c565b91509151600f8110156116ce5791602491600685940361164c5781600080516020615a128339815191528580a261164c565b634e487b7160e01b84526021600452602484fd5b634e487b7160e01b85526021600452602485fd5b50835193600f8510156116ce5793600c14611617565b6117269193506101403d811161058a5761057b8183612dbb565b9138611456565b50346101dd5760203660031901126101dd57611747612df3565b9060206001600160a01b0361175a615254565b6040516355491e0160e11b81526001600160a01b03909516600486015284916024918391165afa9081156117d957809161179c575b6020826040519015158152f35b90506020823d6020116117d1575b816117b760209383612dbb565b810103126101dd57506117cb602091613153565b3861178f565b3d91506117aa565b604051903d90823e3d90fd5b50346101dd5760603660031901126101dd576117ff612e09565b604435906001600160401b0382116106a057611822610658923690600401612ea3565b91600435614813565b5061183536612f95565b611840929192614f61565b34156118d05790918291906001600160a01b0361185b6150de565b1691823b156118cb5761189492849283604051809681958294630e5fbe8960e21b8452600484015260a0602484015260a483019061475f565b3460448301526001606483015233608483015203925af180156106a457610a3f57506001600080516020615a928339815191525580f35b505050fd5b638d53e55360e01b8252600482fd5b50346101dd5760603660031901126101dd576118f9612df3565b906044356001600160401b038111610eb457611919903690600401612e85565b916001600160a01b0361192a6152b9565b163314158061196b575b61195c578282916020809551920190602435905af161195161472f565b506040519015158152f35b630fc7a3f360e31b8252600482fd5b50600080516020615a52833981519152546001600160a01b0316331415611934565b50346101dd57806003193601126101dd57600080516020615a52833981519152546040516001600160a01b039091168152602090f35b5060203660031901126101dd576004356119db614f61565b816119e582615387565b929591939192906001600160a01b036119fc615074565b1691823b15610a5457611a29928592838b6040519687958694859362e5a95360e71b8552600485016146bd565b03925af1908115611adf578391611aca575b50602091905060846001600160a01b03611a536150de565b1691604051948593849263d38f5c3560e01b84528b600485015260248401523460448401523360648401525af1908115610aaa578691611398575015611389571561134d57506001600160a01b031690600080516020615a728339815191528380a36001600080516020615a928339815191525580f35b81611ad491612dbb565b610eb4578138611a3b565b6040513d85823e3d90fd5b50346101dd5760603660031901126101dd5761065860443560243560043561430e565b50346101dd57806003193601126101dd57600080516020615ad283398151915254336001600160a01b0390911603611b485761065833615319565b63118cdaa760e01b815233600452602490fd5b50346101dd57806003193601126101dd57611b7461503e565b600080516020615ad283398151915280546001600160a01b0319908116909155600080516020615a528339815191528054918216905581906001600160a01b03167f8be0079c531659141344cd1fd0a4f28419497f9722a3daafe3b4186f6b6457e08280a380f35b50346101dd5760203660031901126101dd5780600435611bfa614f61565b611c02615254565b906024836001600160a01b03611c16615074565b166040519283809263255709e560e11b82528660048301525afa908115610f02578491611dc8575b5060c0810151604051632838322d60e01b8152600481018490523360248201526001600160a01b03918216949091606091839160449183918a91165af1918215611dbd5783918693611d56575b506040519033837f0a94f6cf3e473cb72e765b24d1365bfcbef8d31a73215bb27e50df39757f578a8980a36040840151151580611d49575b611d19575b505084546001600160a01b031692915073__$66ce50c11b4f8ca6e6decb43a984eadcfa$__9050803b15610a54576110549385936040519586948593849363121ad92d60e21b855260048501613bc0565b60a0015160209384015182526001600160a01b031692600080516020615a3283398151915291a338818180611cc8565b5060208401511515611cc3565b915091506060813d606011611db5575b81611d7360609383612dbb565b81010312610a54578290611da96040805192611d8e84612d4e565b611d9781613160565b84526020810151602085015201613153565b60408201529138611c8b565b3d9150611d66565b6040513d87823e3d90fd5b611ddc91503d8086833e6105478183612dbb565b38611c3e565b50346101dd5760203660031901126101dd5760043590611e00614f61565b611e08615074565b611e106152b9565b926064602060018060a01b0385541660405192838092631bae711d60e21b8252846004830152600f60248301526e4d6573736167655061796d656e747360881b60448301525afa8015610f025784908190612260575b60405163255709e560e11b8152600481018590526001600160a01b039182169590935083916024918391165afa908115610f02578491612246575b506060810151600f8110156116e2576006190161223757839460018060a01b03169260405163404f7db760e01b8152836004820152602081602481885afa908115610aaa5786916121fd575b506120d3575b60405163aa14aa7360e01b81526004810184905290602082602481885afa8015610aaa5786928391612097575b50611f70575b505060c001516001600160a01b0316823b156118cb576040516338444e0560e01b815260048101929092526001600160a01b03166024820152908290829081838160448101610a1a565b602060c0840191606460018060a01b03845116604051958693849263165a3c0560e21b84528a600485015260248401528160448401525af1918215610aaa578692612060575b5081611fc5575b859150611f26565b80516001600160a01b031690813b156104b957604051635b8346e560e11b8152306004820152602481018490528592889081908390604490829084905af19182612045575b505061203d57516040519283526001600160a01b031691600080516020615a3283398151915290602090a35b3880611fbd565b505050612036565b819294509061205391612dbb565b6104b9578491873861200a565b955090506020853d60201161208f575b8161207d60209383612dbb565b81010312610b7d578594519038611fb6565b3d9150612070565b9250506020823d6020116120cb575b816120b360209383612dbb565b810103126113ca576120c58692613153565b38611f20565b3d91506120a6565b60c08201805160405163165a3c0560e21b8152600481018690526001600160a01b03909116602482015260016044820152906020826064818a875af1918215610b395787926121c6575b508161212b575b5050611ef3565b80516001600160a01b031690813b15610ab557604051635b8346e560e11b8152306004820152602481018490528692899081908390604490829084905af191826121ab575b50506121a357516040519283526001600160a01b031691600080516020615a3283398151915290602090a35b3880612124565b50505061219c565b81929450906121b991612dbb565b610ab55785918838612170565b965090506020863d6020116121f5575b816121e360209383612dbb565b81010312610b7d57869551903861211d565b3d91506121d6565b90506020813d60201161222f575b8161221860209383612dbb565b810103126113ca5761222990613153565b38611eed565b3d915061220b565b63e4e81f7960e01b8452600484fd5b61225a91503d8086833e6105478183612dbb565b38611ea1565b50506020813d602011612294575b8161227b60209383612dbb565b8101031261069c578361228f602492613160565b611e66565b3d915061226e565b50346101dd5760203660031901126101dd5760249060206001600160a01b036122c3615254565b16604051938480926333fbe41d60e11b825260043560048301525afa9081156117d957906122f7575b602090604051908152f35b506020813d602011612322575b8161231160209383612dbb565b81010312610b7d57602090516122ec565b3d9150612304565b50346101dd5760203660031901126101dd576004356001600160401b038111610eb45736602382011215610eb45780600401359061236782612ddc565b916123756040519384612dbb565b8083526024602084019160051b83010191368311610a5457602401905b82821061243b5750508254604051631bae711d60e21b8152915060209082906001600160a01b031681806123c8600482016142e2565b03915afa908115611adf578391612401575b506001600160a01b031633036123f357610658906151a5565b6282b42960e81b8252600482fd5b90506020813d602011612433575b8161241c60209383612dbb565b810103126106a05761242d90613160565b386123da565b3d915061240f565b6020809161244884612e1f565b815201910190612392565b50346101dd5760203660031901126101dd5780600435816001600160a01b0361247a615140565b16602460405161248981612d33565b84815260405195869384926323d783ed60e11b84525160048401525af1918215611adf578392612577575b5060608201516001600160a01b03169081151580612561575b612512575b5050815b60a0820151805182101561250e57816124f360a093600193613b96565b51600080516020615a128339815191528680a20190506124d6565b8380f35b60808301516001600160a01b0316918290827f1c717affb0f2d0bd7bccd509af90bc762d34bc45ad812ef154a3f5efdae1ca6b8780a4600080516020615af28339815191528480a338806124d2565b5060808301516001600160a01b031615156124cd565b9091503d8084833e6125898183612dbb565b81019060208183031261069c578051906001600160401b038211610a54570160e08183031261069c57604051916125bf83612ccb565b8151600f8110156113ca5783526020820151600f8110156113ca5760208401526125eb60408301613160565b60408401526125fc60608301613160565b606084015261260d60808301613160565b608084015260a08201516001600160401b0381116113ca5781612631918401613174565b60a084015260c08201516001600160401b0381116113ca576126539201613174565b60c082015290386124b4565b50346101dd57806003193601126101dd57546040516001600160a01b039091168152602090f35b50346101dd5760c03660031901126101dd576044356005811015610eb457611338906126b0614f61565b60a435906084359060643590602435600435613c1c565b50346101dd5760e03660031901126101dd576084356001600160a01b0381168103610eb45760a4356001600160401b0381116106a05761270b903690600401612ea3565b9160c435926001600160401b038411610a545761272f610658943690600401612ea3565b939092606435604435602435600435613508565b50346101dd57806003193601126101dd57602060405160648152f35b50346101dd5760203660031901126101dd57612779612df3565b61278161503e565b81546001600160a01b0319166001600160a01b039190911690811782557f2e967678ac371453fc8babb3af60134332176ca4334ac0032e7b2a655c72e5a98280a280f35b82346101dd5760203660031901126101dd57600435916001600160401b038311610eb45760e06003198436030112610eb45761280081612ccb565b826004013581526020810160248401358152604082019360448101358552606083019060648101358252608084016084820135815260a48201359160058310156104b95760a0860192835260c4810135906001600160401b038211610ab5570196366023890112156104b957600488013561287a81612ddc565b986128886040519a8b612dbb565b818a5260206004818c019360051b83010101903682116104c85760248101925b828410612c15575050505060c086019788526128c2614f61565b875182516128f860405180926128e4602083019560408752606084019061308a565b90604083015203601f198101835282612dbb565b519020845103612c06576001600160a01b03612912614f9d565b16928651915192519451955190519860058a1015612bf25788998997989993926129c76129eb9351926040519561294887612d17565b86526020860197885260408601998a52606086019b8c526080860192835261297460a087019182613147565b60c086019233845260e087019485526040519c8d9b8c9a8b9963bfcc725760e01b8b52602060048c01525160248b01525160448a01525160648901525160848801525160a48701525160c4860190613236565b516001600160a01b031660e48401525161010061010484015261012483019061308a565b03925af1908115611adf578391612b03575b5073__$66ce50c11b4f8ca6e6decb43a984eadcfa$__90606081015192600f8410156116e257519260e060018060a01b0360208401511692015191833b156113ca579390928592604051958693637754369b60e11b8552612a6660a48601976004870190613243565b8560248601526044850152606484015260a060848401528051809552602060c48401910194845b818110612ade575050839450828181925003915af48015612ad157612ac1576001600080516020615a928339815191525580f35b612aca91612dbb565b8181611338565b50604051903d90823e3d90fd5b86516001600160a01b0316835260209687019689965088955090920191600101612a8d565b90503d8084833e612b148183612dbb565b81019060208183031261069c578051906001600160401b038211610a5457016101008183031261069c5760405191612b4b83612d17565b612b5482613153565b8352612b6260208301613160565b6020840152604082015160408401526060820151600f8110156113ca57606084015260808201516001600160401b0381116113ca5781612ba3918401613174565b6080840152612bb460a08301613153565b60a0840152612bc560c08301613160565b60c084015260e08201516001600160401b0381116113ca57612be792016131d1565b60e0820152836129fd565b634e487b7160e01b89526021600452602489fd5b63496189f760e11b8752600487fd5b83356001600160401b038111612cc75760049083010160c0601f198236030112612cc75760405190612c4682612cfc565b60208101356002811015612cc3578252612c6260408201612e1f565b60208301526060810135604083015260808101356001600160401b038111612cc357612c949060203691840101612e85565b606083015260a08101358015158103612cc357608083015260c0013560a08201528152602093840193016128a8565b8d80fd5b8b80fd5b60e081019081106001600160401b03821117612ce657604052565b634e487b7160e01b600052604160045260246000fd5b60c081019081106001600160401b03821117612ce657604052565b61010081019081106001600160401b03821117612ce657604052565b602081019081106001600160401b03821117612ce657604052565b606081019081106001600160401b03821117612ce657604052565b61014081019081106001600160401b03821117612ce657604052565b608081019081106001600160401b03821117612ce657604052565b60a081019081106001600160401b03821117612ce657604052565b90601f801991011681019081106001600160401b03821117612ce657604052565b6001600160401b038111612ce65760051b60200190565b600435906001600160a01b0382168203610b7d57565b602435906001600160a01b0382168203610b7d57565b35906001600160a01b0382168203610b7d57565b6001600160401b038111612ce657601f01601f191660200190565b929192612e5a82612e33565b91612e686040519384612dbb565b829481845281830111610b7d578281602093846000960137010152565b9080601f83011215610b7d57816020612ea093359101612e4e565b90565b9181601f84011215610b7d578235916001600160401b038311610b7d5760208381860195010111610b7d57565b919060e083820312610b7d57604051612ee881612ccb565b8093803582526020810135602083015260408101356040830152606081013560608301526080810135608083015260a081013560a083015260c0810135906001600160401b038211610b7d57019180601f84011215610b7d578235612f4c81612ddc565b93612f5a6040519586612dbb565b81855260208086019260051b820101928311610b7d57602001905b828210612f855750505060c00152565b8135815260209182019101612f75565b906040600319830112610b7d5760043591602435906001600160401b038211610b7d57612ea091600401612ed0565b6020600319820112610b7d57600435906001600160401b038211610b7d5780602383011215610b7d578160040135612ffb81612ddc565b926130096040519485612dbb565b8184526024602085019260051b820101928311610b7d57602401905b8282106130325750505090565b8135815260209182019101613025565b60005b8381106130555750506000910152565b8181015183820152602001613045565b9060209161307e81518092818552858086019101613042565b601f01601f1916010190565b9080602083519182815201906020808260051b8501019401926000905b8282106130b657505050505090565b9091929394601f1982820301855285519081516002811015613131576001928260209392849352848060a01b038383015116838201526040820151604082015260a080613112606085015160c0606086015260c0850190613065565b60808086015115159085015293015191015297019501939201906130a7565b634e487b7160e01b600052602160045260246000fd5b60058210156131315752565b51908115158203610b7d57565b51906001600160a01b0382168203610b7d57565b9080601f83011215610b7d57815161318b81612ddc565b926131996040519485612dbb565b81845260208085019260051b820101928311610b7d57602001905b8282106131c15750505090565b81518152602091820191016131b4565b9080601f83011215610b7d5781516131e881612ddc565b926131f66040519485612dbb565b81845260208085019260051b820101928311610b7d57602001905b82821061321e5750505090565b6020809161322b84613160565b815201910190613211565b9060058210156131315752565b90600f8210156131315752565b81601f82011215610b7d57805161326681612e33565b926132746040519485612dbb565b81845260208284010111610b7d57612ea09160208085019101613042565b602081830312610b7d578051906001600160401b038211610b7d57016102e081830312610b7d57604051916102e083018381106001600160401b03821117612ce65760405281516006811015610b7d57835260208201516005811015610b7d5760208401526040820151600f811015610b7d5760408401526060820151600f811015610b7d57606084015261332960808301613160565b608084015261333a60a08301613160565b60a084015261334b60c08301613160565b60c084015261335c60e08301613160565b60e08401526101008201516101008401526101208201516101208401526101408201516101408401526101608201516101608401526101808201516101808401526101a08201516101a08401526101c08201516101c08401526101e08201516101e08401526102008201516001600160401b038111610b7d57816133e1918401613250565b6102008401526102208201516001600160401b038111610b7d5781613407918401613250565b6102208401526102408201516001600160401b038111610b7d57820181601f82011215610b7d5780519061343a82612ddc565b926134486040519485612dbb565b82845260206060818601940283010191818311610b7d57602001925b8284106134a95750505050906102c0916102408401526102608101516102608401526102808101516102808401526102a08101516102a084015201516102c082015290565b606084830312610b7d5760206060916040516134c481612d4e565b86518152828701518382015260408701516040820152815201930192613464565b919082018092116134f257565b634e487b7160e01b600052601160045260246000fd5b94909160649998979397969496600098602060018060a01b038b54166040519d8e8092631bae711d60e21b8252846004830152600d60248301526c50726f706f73616c506861736560981b60448301525afa958615610524578a9b9c8b999a9b97613b28575b509088949392916040519461358286612d17565b8b86526020860197885233604087019081526001600160a01b03909d16606087019081526080870195865260a087019384529c996135c291369190612e4e565b9260c0860193845236906135d592612e4e565b60e0850190815260405163fa319c6560e01b815260206004820152945160248601529551604485015296516001600160a01b039081166064850152995190991660848301525160a4820152935160c4850152955161010060e4850152929586938492839161364890610124840190613065565b9051828203602319016101048401526136619190613065565b03926001600160a01b03165af1918215611adf578392613a29575b5060e0820151613a03575b8151156139ed57829060408301918251600f8110156139d957600c1901613820575b6001600160a01b036136b96150de565b1660a0850151608086015191855193600f851015612bf257813b1561052057918860c492819594600d604051988997889663b5b00f6b60e01b88528c60048901526024880152336044880152606487015214608485015260a48401525af18015611dbd5761380c575b5073__$66ce50c11b4f8ca6e6decb43a984eadcfa$__9151600f8110156116e25761012084015115159360c060018060a01b0360608301511691015192843b156104b95794929091869492604051968795637754369b60e11b875261378f60a48801946004890190613243565b60248701526044860152606485015260a060848501528151809152602060c48501920190855b8181106137e7575050508290039082905af480156106a4576137d5575050565b6137e0828092612dbb565b6101dd5750565b82516001600160a01b03168452889650879550602093840193909201916001016137b5565b8461381991959295612dbb565b9238613722565b506024846001600160a01b03613834615074565b166040519283809263255709e560e11b82528660048301525afa908115611dbd57906102a09186916139bf575b500151607f1936013681116139ab5781810291818304149015171561399757602481866001600160a01b036138946150de565b1660405193848092635b3c669b60e01b82528860048301525afa918215610b395787926138e5575b506138cd60609160808401516134e5565b91015110156136a9576377ebef4d60e01b8552600485fd5b9091503d8088833e6138f78183612dbb565b810190602081830312610ab5578051906001600160401b03821161052057019060e082820312610ab5576040519161392e83612ccb565b805183526020810151602084015260408101516040840152606081015160608401526080810151608084015260a081015160a084015260c0810151906001600160401b0382116104c8576138cd926060949261398a9201613174565b60c08201529291506138bc565b634e487b7160e01b85526011600452602485fd5b634e487b7160e01b86526011600452602486fd5b6139d391503d8088833e6105478183612dbb565b38613861565b634e487b7160e01b86526021600452602486fd5b91600080516020615a12833981519152915080a2565b60608201516001600160a01b031681600080516020615af28339815191528580a3613687565b9091503d8084833e613a3b8183612dbb565b81019060208183031261069c578051906001600160401b038211610a5457016101408183031261069c5760405191613a7283612d69565b613a7b82613153565b8352613a8960208301613160565b60208401526040820151600f8110156113ca576040840152613aad60608301613160565b60608401526080820151608084015260a082015160a084015260c08201516001600160401b0381116113ca5791613aec61012092613b1b9483016131d1565b60c0850152613afd60e08201613153565b60e0850152613b0f6101008201613160565b61010085015201613153565b610120820152903861367c565b919293949596509697506020813d602011613b71575b81613b4b60209383612dbb565b8101031261052f57918a979695949291613b66899593613160565b96909192939461356e565b3d9150613b3e565b60058110156131315760f81b9052565b9060068210156131315752565b8051821015613baa5760209160051b010190565b634e487b7160e01b600052603260045260246000fd5b6001600160a01b03918216815291166020820152604081019190915260600190565b602060408183019282815284518094520192019060005b818110613c065750505090565b8251845260209384019390920191600101613bf9565b939192948160405160208101906000953360601b8352613c3f6034830189613b79565b896035830152605582015260558152613c59607582612dbb565b519020036142d35782919060c490836001600160a01b03613c78614f9d565b16986040516020810191613c8c838b613b79565b602182015260218152613ca0604182612dbb565b5190209860405192613cb184612cfc565b89845260208401958652604084019a8b5260608401613cd08a82613147565b613d11608086019133835260a087019384526040519d8e998a986320e3d24360e11b8a525160048a0152516024890152516044880152516064870190613236565b516001600160a01b031660848501525160a48401525af1938415612ad15781946140fa575b508351156140e2576001600160a01b03613d4e6150de565b169160a08501519260208601938451151591604088019384519060068210156140ce578660209493613dbc60c494613db28d956040519a8b998a9863015e82ff60e61b8a5260048a0152602489015233604489015260648801526084870190613236565b60a4850190613b89565b5af1908115611adf578391614094575b508351613e73575b5061016060018060a01b0361012087015116950151926005841015613e5f575115159051916006831015613e4b575091613e486060927f14d4bda97d7d28622aa0ad6e4d069bb9215b9e2346ecbdf2313b04121da0b68a94613e396040518095613236565b60208401526040830190613b89565ba3565b634e487b7160e01b81526021600452602490fd5b634e487b7160e01b83526021600452602483fd5b60e086019081519081511515908161408c575b5015613f0157507f9c4bf38aa77ce1103eb348ff99a695363c0b42ab316945b0e19906310f2146a2613ec361010088015160405191829182613be2565b0390a15160408101516020909101516001600160a01b0391613ee59190613b96565b511684600080516020615a728339815191528480a35b38613dd4565b61018087015190915015614043575090604051847ff250caa116f9eac0e4e82d403f131ce0a520b6c232dbcbe270b3729b0aaca09e8380a26101c0860151613fcc575b508054606086015191929173__$66ce50c11b4f8ca6e6decb43a984eadcfa$__916001600160a01b039182169116823b15610a545760405163121ad92d60e21b8152928592849283918291613f9e918c9160048501613bc0565b03915af48015611adf57908391613fb7575b5050613efb565b81613fc191612dbb565b610eb4578138613fb0565b8154606087015173__$66ce50c11b4f8ca6e6decb43a984eadcfa$__916001600160a01b039182169116823b15610a545783859381936084936330a1fa8560e11b845260048401528a60248401526044830152600160648301525af480156106a45715613f44578161403d91612dbb565b38613f44565b60c0860151614053575b50613efb565b60408101516020909101516001600160a01b03916140719190613b96565b511684600080516020615af28339815191528480a33861404d565b905038613e86565b90506020813d6020116140c6575b816140af60209383612dbb565b810103126106a0576140c090613153565b38613dcc565b3d91506140a2565b634e487b7160e01b87526021600452602487fd5b600080516020615a12833981519152929350809150a2565b9093503d8085833e61410c8183612dbb565b810190602081830312610a54578051906001600160401b0382116113ca57016101e081830312610a5457604051916101e083018381106001600160401b038211176142bf5760405261415d82613153565b835261416b60208301613153565b6020840152604082015160068110156104b957604084015261418f60608301613160565b60608401526141a060808301613160565b608084015260a082015160a08401526141bb60c08301613153565b60c084015260e08201516001600160401b0381116104b95782016060818303126104b957604051906141ec82612d4e565b80518252602081015160208301526040810151906001600160401b0382116105205761421a918491016131d1565b604082015260e08401526101008201516001600160401b0381116104b95790614244918301613174565b6101008301526142576101208201613160565b61012083015261014081015161014083015261016081015160058110156113ca576142b2916101c0916101608501526142936101808201613153565b6101808501526142a66101a08201613153565b6101a085015201613153565b6101c08201529238613d36565b634e487b7160e01b87526041600452602487fd5b636aee863360e11b8352600483fd5b60609060208152601160208201527046696e616c697a6174696f6e506861736560781b60408201520190565b9190606490602060018060a01b036000541660405193848092631bae711d60e21b8252846004830152600f60248301526e436f6d6d697474696e67506861736560881b60448301525afa9182156146725760009261467e575b506084600092836040519161437b83612d85565b87835260208301948552336040808501918252606085019889525162dab60b60e71b8152935160048501529451602484015293516001600160a01b0390811660448401529551606483015290948593849291165af190811561467257600091614520575b506101208101516144cc575b6101008101516144a9578051156144a55760018060a01b0360a0820151166020820190837fc5dd23f5cc17858ca1e3d0f06cbcc78820753b0dd2fea89d03d0d842192c1531602084511515604051908152a35115158061448f575b61444e575050565b60e00151600f8110156131315760207fb61dd9b213508bbd8e6c89d7c254d830e0ed7e8cd5bd4163a167a47b12e46e819161448c6040518092613243565ba2565b5060e0810151600f811015613131571515614446565b5050565b604001516001600160a01b031690600080516020615af2833981519152600080a3565b61014081015161016082015160c08301516040519081526001600160a01b03918216929091169084907fb9adb9860846c6726d973e93f6d5994ba6aa797233e2d15851d42e9c68a5dd7290602090a46143eb565b903d8082843e6145308184612dbb565b820191602081840312610eb4578051906001600160401b0382116106a0570190610180828403126101dd576040519261018084018481106001600160401b0382111761465e5760405261458283613153565b845261459060208401613153565b60208501526145a160408401613160565b60408501526145b260608401613160565b606085015260808301516001600160401b0381116106a057906145d6918401613174565b60808401526145e760a08301613160565b60a084015260c082015160c084015260e082015190600f8210156101dd5750614652916101609160e08501526146206101008201613153565b6101008501526146336101208201613153565b6101208501526146466101408201613160565b61014085015201613160565b610160820152386143df565b634e487b7160e01b83526041600452602483fd5b6040513d6000823e3d90fd5b91506020823d6020116146b5575b8161469960209383612dbb565b81010312610b7d5760846146ae600093613160565b9250614367565b3d915061468c565b6040906146dc6146e39496959396606083019783526020830190613243565b0190613243565b565b60606020916040810193815260408382015284518094520192019060005b8181106147105750505090565b82516001600160a01b0316845260209384019390920191600101614703565b3d1561475a573d9061474082612e33565b9161474e6040519384612dbb565b82523d6000602084013e565b606090565b602061010060c060e085019380518652838101518487015260408101516040870152606081015160608701526080810151608087015260a081015160a087015201519360e060c082015284518094520192019060005b8181106147c25750505090565b82518452602093840193909201916001016147b5565b929493906080926147f691855260a0602086015260a085019061475f565b6040840195909552600060608401526001600160a01b0316910152565b9190926064600094602060018060a01b0387541660405193848092631bae711d60e21b8252846004830152600f60248301526e41637469766174696f6e506861736560881b60448301525afa918215610aaa5790869392918492614b5c575b50836148a56040519661488488612d85565b888852602088019360018060a01b0316845260408801953387523691612e4e565b606087019081526040516320ffefc560e01b8152602060048201529651602488015291516001600160a01b0390811660448801529351909316606486015251608060848601528492839182906148ff9060a4830190613065565b03926001600160a01b03165af1908115611adf578391614a48575b5060a0810151614a07575b602081015161496e578051156149585761010001516001600160a01b031691600080516020615a728339815191529080a3565b509080600080516020615a1283398151915291a2565b6040519183817f0a94f6cf3e473cb72e765b24d1365bfcbef8d31a73215bb27e50df39757f578a8280a3835460409092015173__$66ce50c11b4f8ca6e6decb43a984eadcfa$__926001600160a01b039182169116833b156113ca57846149e88194889694839463121ad92d60e21b855260048501613bc0565b03915af480156106a4576149fa575050565b81614a0491612dbb565b50565b60c081015160e08201516001600160a01b039081169116837ff7861b60d3b514908b00c1461e500857f819123764586496fcddba2eb034c94c8680a4614925565b90503d8084833e614a598183612dbb565b81019060208183031261069c578051906001600160401b038211610a5457016101208183031261069c576040519161012083018381106001600160401b03821117614b4857604052614aaa82613153565b8352614ab860208301613153565b6020840152614ac960408301613160565b60408401526060820151606084015260808201516001600160401b0381116113ca5791614afe61010092614b3c9483016131d1565b6080850152614b0f60a08201613153565b60a0850152614b2060c08201613160565b60c0850152614b3160e08201613160565b60e085015201613160565b6101008201523861491a565b634e487b7160e01b86526041600452602486fd5b91509192506020813d602011614b95575b81614b7a60209383612dbb565b810103126113ca5790614b8e869392613160565b9038614872565b3d9150614b6d565b9081610140910312610b7d57600060405191614bb883612d69565b614bc181613153565b8352614bcf60208201613160565b60208401526040810151604084015260608101516060840152614bf460808201613153565b6080840152614c0560a08201613153565b60a0840152614c1660c08201613153565b60c0840152614c2760e08201613153565b60e0840152610100810151600f8110156106a057610100840152610120015190600f8210156101dd575061012082015290565b92614cf2926101209260018060a01b03168552602085015280511515604085015260018060a01b03602082015116606085015260408101516080850152606081015160a08501526080810151151560c085015260a0810151151560e085015260c0810151151561010085015260e0810151151582850152614ce5610100820151610140860190613243565b0151610160830190613243565b6101a0610180820152614d0a6101a082018351613b89565b614d1d60208301516101c0830190613236565b614d3060408301516101e0830190613243565b614d436060830151610200830190613243565b60808201516001600160a01b0390811661022083015260a0830151811661024083015260c0830151811661026083015260e0830151166102808201526101008201516102a08201526101208201516102c08201526101408201516102e0808301919091526101608301516103008301526101808301516103208301526101a08301516103408301526101c08301516103608301526101e08301516103808301526102008301516103a0830191909152614e1e90614e0590610480840190613065565b61022084015183820361019f19016103c0850152613065565b916102408101519261019f19838203016103e08401526020808551928381520194019060005b818110614e81575050506102c0816102606104609301516104008501526102808101516104208501526102a0810151610440850152015191015290565b9091946020606082614eaa6001948a516040809180518452602081015160208501520151910152565b019601929101614e44565b602081830312610b7d578051906001600160401b038211610b7d57019060a082820312610b7d5760405191614ee983612da0565b614ef281613160565b83526020810151602084015260408101516001600160401b038111610b7d5782614f1d9183016131d1565b604084015260608101516001600160401b038111610b7d57608092614f43918301613174565b60608401520151608082015290565b60001981146134f25760010190565b6002600080516020615a928339815191525414614f8c576002600080516020615a9283398151915255565b633ee5aeb560e01b60005260046000fd5b600054604051631bae711d60e21b8152602060048201819052600e60248301526d52657665616c696e67506861736560901b60448301529091829060649082906001600160a01b03165afa90811561467257600091615004575b506001600160a01b031690565b90506020813d602011615036575b8161501f60209383612dbb565b81010312610b7d5761503090613160565b38614ff7565b3d9150615012565b600080516020615a52833981519152546001600160a01b0316330361505f57565b63118cdaa760e01b6000523360045260246000fd5b600054604051631bae711d60e21b815260206004820181905260126024830152712a3930b739b0b1ba34b7b726b0b730b3b2b960711b60448301529091829060649082906001600160a01b03165afa9081156146725760009161500457506001600160a01b031690565b600054604051631bae711d60e21b8152602060048201819052600a6024830152692332b2a6b0b730b3b2b960b11b60448301529091829060649082906001600160a01b03165afa9081156146725760009161500457506001600160a01b031690565b600054604051631bae711d60e21b8152602060048201819052600d60248301526c49646c656e657373506861736560981b60448301529091829060649082906001600160a01b03165afa9081156146725760009161500457506001600160a01b031690565b73__$66ce50c11b4f8ca6e6decb43a984eadcfa$__919060005b815181101561524e5760005b602081106151dc57506001016151bf565b6000546001600160a01b0390811691906151f68486613b96565b5116863b15610b7d576040519263121ad92d60e21b84526004840152602483015260006044830152600082606481895af49182156146725760019261523d575b50016151cb565b600061524891612dbb565b38615236565b50509050565b600054604051631bae711d60e21b8152602060048201819052600d60248301526c4372656174696f6e506861736560981b60448301529091829060649082906001600160a01b03165afa9081156146725760009161500457506001600160a01b031690565b600054604051631bae711d60e21b815260206004820181905260086024830152674d6573736167657360c01b60448301529091829060649082906001600160a01b03165afa9081156146725760009161500457506001600160a01b031690565b600080516020615ad283398151915280546001600160a01b0319908116909155600080516020615a5283398151915280549182166001600160a01b0393841690811790915591167f8be0079c531659141344cd1fd0a4f28419497f9722a3daafe3b4186f6b6457e0600080a3565b60006001600160a01b03615399615074565b169160246040518094819363255709e560e11b835260048301525afa908115614672576000916156de575b50600054604051631bae711d60e21b8152602060048201819052600760248301526641707065616c7360c81b60448301529091829060649082906001600160a01b03165afa908115614672576000916156a4575b50604051809263bcf205f560e01b82526040600483015261543d604483018251613b89565b61544f60208201516064840190613236565b61546160408201516084840190613243565b615473606082015160a4840190613243565b60808101516001600160a01b0390811660c484015260a0820151811660e484015260c0820151811661010484015260e0820151166101248301526101008101516101448301526101208101516101648301526101408101516101848301526101608101516101a48301526101808101516101c48301526101a08101516101e48301526101c08101516102048301526101e08101516102248301526102008101516102e06102448401526155479061552f90610324850190613065565b61022083015184820360431901610264860152613065565b9061024081015191604319848203016102848501526020808451928381520193019060005b81811061566a575050506102608101516102a48401526102808101516102c48401526102a08101516102e48401526102c001516103048301523460248301526000929082900390829084906001600160a01b03165af1801561467257600091829183918491859186916155e3575b50909192939495565b959450505050503d8082843e6155f98184612dbb565b820160e083820312610eb45782516001600160401b0381116106a057906156219184016131d1565b60208301519261563360408201613160565b9261564060808301613153565b9260a083015192600f8410156106a05760c0015191600f8310156101dd57509493929190386155da565b9194509192602060608261569560019489516040809180518452602081015160208501520151910152565b0195019101918694939261556c565b90506020813d6020116156d6575b816156bf60209383612dbb565b81010312610b7d576156d090613160565b38615418565b3d91506156b2565b6156f1913d8091833e6105478183612dbb565b386153c4565b600054604051631bae711d60e21b81529060209082906001600160a01b03168180615724600482016142e2565b03915afa9081156146725760009161500457506001600160a01b031690565b926020830193845193600080955b6060830151805188101561577e5760019161576f8961577693613b96565b51906134e5565b960195615751565b50955091939590929585156159db5760c001516001600160a01b0316803b156106a057604051635b8346e560e11b8152306004820152602481018790529083908290604490829084905af190816159c7575b506157f457505050604051918252600080516020615a3283398151915260203093a3565b9092919350828151801515806159b4575b615928575b5090505b60408401908151518110156159215760019183826060880192615832828551613b96565b51151580615906575b61584a575b505050500161580e565b87808080898060a01b0361585f878751613b96565b511661586c878a51613b96565b51905af161587861472f565b50156158d2576158c0826020926158b77f206a81949fa2f9dad3979f1ad9e02868fb17baca136a76760ed851e8e659e49e958a8060a01b039251613b96565b51169551613b96565b51604051908152a35b38838282615840565b6158f9826020926158b7600080516020615a32833981519152958a8060a01b039251613b96565b51604051908152a36158c9565b50858060a01b03615918838351613b96565b5116151561583b565b5050505050565b8551829182918291906001600160a01b03165af161594461472f565b501561598a57817ff5c9499466599a9c201c4b00cfd411510fccee310767d6b1c549cd651fdcac02602060018060a01b038751169351604051908152a35b38828161580a565b81600080516020615a32833981519152602060018060a01b038751169351604051908152a3615982565b5085516001600160a01b03161515615805565b836159d491949294612dbb565b91386157d0565b505050505050565b60ff600080516020615ab28339815191525460401c1615615a0057565b631afcd79f60e31b60005260046000fdfeb9f69df2250e1788b862d0715b1dad98b2a50311c017ebb71f6cd83de656b06dd7d0ee861c0ebf42599b922e8f4ad0cafed951841610157bcd56110f49ced8ee9016d09d72d40fdae2fd8ceac6b6234c7706214fd39c1cd1e609a0528c1993001081f7638e5a02d916250da410b76a0821bdb2b09c574c0f237830409c37d0c89b779b17422d0df92223018b32b4d1fa46e071723d6817e2486d003becc55f00f0c57e16840df040f15088dc2f81fe391c3923bec73e23a9662efc9c229c6a00237e158222e3e6968b72b9db0d8043aacf074ad9f650f0d1606b4d82ee432c0042dd93d103ec25ce3ac597cec3f3aa55b91b52ffa90a04f9e14545f4543e7c48a26469706673582212206029603df74d05d1f591c01f4801b24a5504b196f5258cd94313dfed3ca806bb64736f6c634300081c0033",
  "linkReferences": {
    "contracts/utils/ConsensusHelpers.sol": {
      "ConsensusHelpers": [
        {
          "length": 20,
          "start": 750
        },
        {
          "length": 20,
          "start": 4320
        },
        {
          "length": 20,
          "start": 5502
        },
        {
          "length": 20,
          "start": 7602
        },
        {
          "length": 20,
          "start": 10968
        },
        {
          "length": 20,
          "start": 14333
        },
        {
          "length": 20,
          "start": 16425
        },
        {
          "length": 20,
          "start": 16557
        },
        {
          "length": 20,
          "start": 19066
        },
        {
          "length": 20,
          "start": 21119
        }
      ]
    }
  },
  "deployedLinkReferences": {
    "contracts/utils/ConsensusHelpers.sol": {
      "ConsensusHelpers": [
        {
          "length": 20,
          "start": 534
        },
        {
          "length": 20,
          "start": 4104
        },
        {
          "length": 20,
          "start": 5286
        },
        {
          "length": 20,
          "start": 7386
        },
        {
          "length": 20,
          "start": 10752
        },
        {
          "length": 20,
          "start": 14117
        },
        {
          "length": 20,
          "start": 16209
        },
        {
          "length": 20,
          "start": 16341
        },
        {
          "length": 20,
          "start": 18850
        },
        {
          "length": 20,
          "start": 20903
        }
      ]
    }
  }
}