{
  "_format": "hh-sol-artifact-1",
  "contractName": "ConsensusMainWithFees",
  "sourceName": "contracts/ConsensusMainWithFees.sol",
  "abi": [
    {
      "inputs": [],
      "stateMutability": "nonpayable",
      "type": "constructor"
    },
    {
      "inputs": [],
      "name": "CallerNotMessages",
      "type": "error"
    },
    {
      "inputs": [],
      "name": "CanNotAppeal",
      "type": "error"
    },
    {
      "inputs": [],
      "name": "InsufficientFees",
      "type": "error"
    },
    {
      "inputs": [],
      "name": "InvalidDeploymentWithSalt",
      "type": "error"
    },
    {
      "inputs": [],
      "name": "InvalidInitialization",
      "type": "error"
    },
    {
      "inputs": [],
      "name": "InvalidRevealLeaderData",
      "type": "error"
    },
    {
      "inputs": [],
      "name": "InvalidVote",
      "type": "error"
    },
    {
      "inputs": [],
      "name": "NotInitializing",
      "type": "error"
    },
    {
      "inputs": [],
      "name": "OutOfGas",
      "type": "error"
    },
    {
      "inputs": [
        {
          "internalType": "address",
          "name": "owner",
          "type": "address"
        }
      ],
      "name": "OwnableInvalidOwner",
      "type": "error"
    },
    {
      "inputs": [
        {
          "internalType": "address",
          "name": "account",
          "type": "address"
        }
      ],
      "name": "OwnableUnauthorizedAccount",
      "type": "error"
    },
    {
      "inputs": [],
      "name": "ReentrancyGuardReentrantCall",
      "type": "error"
    },
    {
      "inputs": [],
      "name": "TransactionNotFinalized",
      "type": "error"
    },
    {
      "inputs": [],
      "name": "Unauthorized",
      "type": "error"
    },
    {
      "anonymous": false,
      "inputs": [
        {
          "indexed": true,
          "internalType": "bytes32",
          "name": "txId",
          "type": "bytes32"
        },
        {
          "indexed": true,
          "internalType": "address",
          "name": "oldActivator",
          "type": "address"
        },
        {
          "indexed": true,
          "internalType": "address",
          "name": "newActivator",
          "type": "address"
        }
      ],
      "name": "ActivatorReplaced",
      "type": "event"
    },
    {
      "anonymous": false,
      "inputs": [
        {
          "indexed": true,
          "internalType": "address",
          "name": "addressManager",
          "type": "address"
        }
      ],
      "name": "AddressManagerSet",
      "type": "event"
    },
    {
      "anonymous": false,
      "inputs": [
        {
          "indexed": true,
          "internalType": "bytes32",
          "name": "txId",
          "type": "bytes32"
        },
        {
          "indexed": false,
          "internalType": "enum ITransactions.TransactionStatus",
          "name": "newStatus",
          "type": "uint8"
        }
      ],
      "name": "AllVotesCommitted",
      "type": "event"
    },
    {
      "anonymous": false,
      "inputs": [
        {
          "indexed": true,
          "internalType": "bytes32",
          "name": "txId",
          "type": "bytes32"
        },
        {
          "indexed": true,
          "internalType": "address",
          "name": "appealer",
          "type": "address"
        },
        {
          "indexed": false,
          "internalType": "uint256",
          "name": "amount",
          "type": "uint256"
        }
      ],
      "name": "AppealBondReturned",
      "type": "event"
    },
    {
      "anonymous": false,
      "inputs": [
        {
          "indexed": true,
          "internalType": "bytes32",
          "name": "txId",
          "type": "bytes32"
        },
        {
          "indexed": true,
          "internalType": "address",
          "name": "appellant",
          "type": "address"
        },
        {
          "indexed": false,
          "internalType": "uint256",
          "name": "bond",
          "type": "uint256"
        },
        {
          "indexed": false,
          "internalType": "address[]",
          "name": "validators",
          "type": "address[]"
        }
      ],
      "name": "AppealStarted",
      "type": "event"
    },
    {
      "anonymous": false,
      "inputs": [
        {
          "indexed": false,
          "internalType": "uint256",
          "name": "attempted",
          "type": "uint256"
        },
        {
          "indexed": false,
          "internalType": "uint256",
          "name": "succeeded",
          "type": "uint256"
        },
        {
          "indexed": false,
          "internalType": "uint256",
          "name": "failed",
          "type": "uint256"
        }
      ],
      "name": "BatchFinalizationCompleted",
      "type": "event"
    },
    {
      "anonymous": false,
      "inputs": [
        {
          "indexed": true,
          "internalType": "bytes32",
          "name": "txId",
          "type": "bytes32"
        },
        {
          "indexed": false,
          "internalType": "uint256",
          "name": "txSlot",
          "type": "uint256"
        }
      ],
      "name": "CreatedTransaction",
      "type": "event"
    },
    {
      "anonymous": false,
      "inputs": [
        {
          "indexed": true,
          "internalType": "bytes32",
          "name": "txId",
          "type": "bytes32"
        },
        {
          "indexed": true,
          "internalType": "address",
          "name": "sender",
          "type": "address"
        },
        {
          "indexed": false,
          "internalType": "uint256",
          "name": "amount",
          "type": "uint256"
        }
      ],
      "name": "FeesRefunded",
      "type": "event"
    },
    {
      "anonymous": false,
      "inputs": [
        {
          "indexed": false,
          "internalType": "uint64",
          "name": "version",
          "type": "uint64"
        }
      ],
      "name": "Initialized",
      "type": "event"
    },
    {
      "anonymous": false,
      "inputs": [
        {
          "indexed": true,
          "internalType": "bytes32",
          "name": "txId",
          "type": "bytes32"
        },
        {
          "indexed": true,
          "internalType": "address",
          "name": "recipient",
          "type": "address"
        },
        {
          "indexed": true,
          "internalType": "address",
          "name": "activator",
          "type": "address"
        }
      ],
      "name": "InternalMessageProcessed",
      "type": "event"
    },
    {
      "anonymous": false,
      "inputs": [
        {
          "indexed": true,
          "internalType": "bytes32",
          "name": "txId",
          "type": "bytes32"
        },
        {
          "indexed": true,
          "internalType": "address",
          "name": "oldLeader",
          "type": "address"
        },
        {
          "indexed": true,
          "internalType": "address",
          "name": "newLeader",
          "type": "address"
        }
      ],
      "name": "LeaderIdlenessProcessed",
      "type": "event"
    },
    {
      "anonymous": false,
      "inputs": [
        {
          "indexed": true,
          "internalType": "bytes32",
          "name": "txId",
          "type": "bytes32"
        },
        {
          "indexed": true,
          "internalType": "address",
          "name": "recipient",
          "type": "address"
        },
        {
          "indexed": true,
          "internalType": "address",
          "name": "activator",
          "type": "address"
        }
      ],
      "name": "NewTransaction",
      "type": "event"
    },
    {
      "anonymous": false,
      "inputs": [
        {
          "indexed": true,
          "internalType": "address",
          "name": "previousOwner",
          "type": "address"
        },
        {
          "indexed": true,
          "internalType": "address",
          "name": "newOwner",
          "type": "address"
        }
      ],
      "name": "OwnershipTransferStarted",
      "type": "event"
    },
    {
      "anonymous": false,
      "inputs": [
        {
          "indexed": true,
          "internalType": "address",
          "name": "previousOwner",
          "type": "address"
        },
        {
          "indexed": true,
          "internalType": "address",
          "name": "newOwner",
          "type": "address"
        }
      ],
      "name": "OwnershipTransferred",
      "type": "event"
    },
    {
      "anonymous": false,
      "inputs": [
        {
          "indexed": true,
          "internalType": "bytes32",
          "name": "txId",
          "type": "bytes32"
        }
      ],
      "name": "ProcessIdlenessAccepted",
      "type": "event"
    },
    {
      "anonymous": false,
      "inputs": [
        {
          "indexed": true,
          "internalType": "bytes32",
          "name": "txId",
          "type": "bytes32"
        }
      ],
      "name": "TransactionAccepted",
      "type": "event"
    },
    {
      "anonymous": false,
      "inputs": [
        {
          "indexed": true,
          "internalType": "bytes32",
          "name": "txId",
          "type": "bytes32"
        },
        {
          "indexed": true,
          "internalType": "address",
          "name": "leader",
          "type": "address"
        }
      ],
      "name": "TransactionActivated",
      "type": "event"
    },
    {
      "anonymous": false,
      "inputs": [
        {
          "indexed": true,
          "internalType": "bytes32",
          "name": "txId",
          "type": "bytes32"
        },
        {
          "indexed": true,
          "internalType": "address",
          "name": "cancelledBy",
          "type": "address"
        }
      ],
      "name": "TransactionCancelled",
      "type": "event"
    },
    {
      "anonymous": false,
      "inputs": [
        {
          "indexed": true,
          "internalType": "bytes32",
          "name": "txId",
          "type": "bytes32"
        }
      ],
      "name": "TransactionFinalizationFailed",
      "type": "event"
    },
    {
      "anonymous": false,
      "inputs": [
        {
          "indexed": true,
          "internalType": "bytes32",
          "name": "txId",
          "type": "bytes32"
        }
      ],
      "name": "TransactionFinalized",
      "type": "event"
    },
    {
      "anonymous": false,
      "inputs": [
        {
          "indexed": true,
          "internalType": "bytes32",
          "name": "txId",
          "type": "bytes32"
        }
      ],
      "name": "TransactionLeaderRevealed",
      "type": "event"
    },
    {
      "anonymous": false,
      "inputs": [
        {
          "indexed": true,
          "internalType": "bytes32",
          "name": "txId",
          "type": "bytes32"
        },
        {
          "indexed": true,
          "internalType": "address",
          "name": "newLeader",
          "type": "address"
        }
      ],
      "name": "TransactionLeaderRotated",
      "type": "event"
    },
    {
      "anonymous": false,
      "inputs": [
        {
          "indexed": true,
          "internalType": "bytes32",
          "name": "txId",
          "type": "bytes32"
        }
      ],
      "name": "TransactionLeaderTimeout",
      "type": "event"
    },
    {
      "anonymous": false,
      "inputs": [
        {
          "indexed": false,
          "internalType": "bytes32[]",
          "name": "txIds",
          "type": "bytes32[]"
        }
      ],
      "name": "TransactionNeedsRecomputation",
      "type": "event"
    },
    {
      "anonymous": false,
      "inputs": [
        {
          "indexed": true,
          "internalType": "bytes32",
          "name": "txId",
          "type": "bytes32"
        },
        {
          "indexed": false,
          "internalType": "address[]",
          "name": "validators",
          "type": "address[]"
        }
      ],
      "name": "TransactionReceiptProposed",
      "type": "event"
    },
    {
      "anonymous": false,
      "inputs": [
        {
          "indexed": true,
          "internalType": "bytes32",
          "name": "txId",
          "type": "bytes32"
        }
      ],
      "name": "TransactionUndetermined",
      "type": "event"
    },
    {
      "anonymous": false,
      "inputs": [
        {
          "indexed": true,
          "internalType": "bytes32",
          "name": "txId",
          "type": "bytes32"
        },
        {
          "indexed": false,
          "internalType": "address[]",
          "name": "recipients",
          "type": "address[]"
        },
        {
          "indexed": false,
          "internalType": "uint256[]",
          "name": "amounts",
          "type": "uint256[]"
        }
      ],
      "name": "UnifiedFeesDistributed",
      "type": "event"
    },
    {
      "anonymous": false,
      "inputs": [
        {
          "indexed": true,
          "internalType": "bytes32",
          "name": "txId",
          "type": "bytes32"
        },
        {
          "indexed": false,
          "internalType": "uint256",
          "name": "totalUnissuedValue",
          "type": "uint256"
        },
        {
          "indexed": false,
          "internalType": "uint256",
          "name": "unissuedCount",
          "type": "uint256"
        }
      ],
      "name": "UnissuedMessagesAtFinalization",
      "type": "event"
    },
    {
      "anonymous": false,
      "inputs": [
        {
          "indexed": true,
          "internalType": "bytes32",
          "name": "txId",
          "type": "bytes32"
        },
        {
          "indexed": true,
          "internalType": "address",
          "name": "oldValidator",
          "type": "address"
        },
        {
          "indexed": true,
          "internalType": "address",
          "name": "newValidator",
          "type": "address"
        },
        {
          "indexed": false,
          "internalType": "uint256",
          "name": "validatorIndex",
          "type": "uint256"
        }
      ],
      "name": "ValidatorReplaced",
      "type": "event"
    },
    {
      "anonymous": false,
      "inputs": [
        {
          "indexed": true,
          "internalType": "bytes32",
          "name": "txId",
          "type": "bytes32"
        },
        {
          "indexed": true,
          "internalType": "address",
          "name": "recipient",
          "type": "address"
        },
        {
          "indexed": false,
          "internalType": "uint256",
          "name": "value",
          "type": "uint256"
        }
      ],
      "name": "ValueWithdrawalFailed",
      "type": "event"
    },
    {
      "anonymous": false,
      "inputs": [
        {
          "indexed": true,
          "internalType": "bytes32",
          "name": "txId",
          "type": "bytes32"
        },
        {
          "indexed": true,
          "internalType": "address",
          "name": "validator",
          "type": "address"
        },
        {
          "indexed": false,
          "internalType": "bool",
          "name": "isLastVote",
          "type": "bool"
        }
      ],
      "name": "VoteCommitted",
      "type": "event"
    },
    {
      "anonymous": false,
      "inputs": [
        {
          "indexed": true,
          "internalType": "bytes32",
          "name": "txId",
          "type": "bytes32"
        },
        {
          "indexed": true,
          "internalType": "address",
          "name": "validator",
          "type": "address"
        },
        {
          "indexed": false,
          "internalType": "enum ITransactions.VoteType",
          "name": "voteType",
          "type": "uint8"
        },
        {
          "indexed": false,
          "internalType": "bool",
          "name": "isLastVote",
          "type": "bool"
        },
        {
          "indexed": false,
          "internalType": "enum ITransactions.ResultType",
          "name": "result",
          "type": "uint8"
        }
      ],
      "name": "VoteRevealed",
      "type": "event"
    },
    {
      "inputs": [],
      "name": "EVENTS_BATCH_SIZE",
      "outputs": [
        {
          "internalType": "uint256",
          "name": "",
          "type": "uint256"
        }
      ],
      "stateMutability": "view",
      "type": "function"
    },
    {
      "inputs": [],
      "name": "VERSION",
      "outputs": [
        {
          "internalType": "string",
          "name": "",
          "type": "string"
        }
      ],
      "stateMutability": "view",
      "type": "function"
    },
    {
      "inputs": [],
      "name": "acceptOwnership",
      "outputs": [],
      "stateMutability": "nonpayable",
      "type": "function"
    },
    {
      "inputs": [
        {
          "internalType": "bytes32",
          "name": "_txId",
          "type": "bytes32"
        },
        {
          "internalType": "address",
          "name": "_operator",
          "type": "address"
        },
        {
          "internalType": "bytes",
          "name": "_vrfProof",
          "type": "bytes"
        }
      ],
      "name": "activateTransaction",
      "outputs": [],
      "stateMutability": "nonpayable",
      "type": "function"
    },
    {
      "inputs": [
        {
          "internalType": "address",
          "name": "_sender",
          "type": "address"
        },
        {
          "internalType": "address",
          "name": "_recipient",
          "type": "address"
        },
        {
          "internalType": "uint256",
          "name": "_numOfInitialValidators",
          "type": "uint256"
        },
        {
          "internalType": "uint256",
          "name": "_maxRotations",
          "type": "uint256"
        },
        {
          "internalType": "bytes",
          "name": "_calldata",
          "type": "bytes"
        },
        {
          "components": [
            {
              "internalType": "uint256",
              "name": "leaderTimeoutFee",
              "type": "uint256"
            },
            {
              "internalType": "uint256",
              "name": "validatorsTimeoutFee",
              "type": "uint256"
            },
            {
              "internalType": "uint256",
              "name": "appealRounds",
              "type": "uint256"
            },
            {
              "internalType": "uint256",
              "name": "rollupUnifiedBudget",
              "type": "uint256"
            },
            {
              "internalType": "uint256",
              "name": "rollupUnifiedConsumed",
              "type": "uint256"
            },
            {
              "internalType": "uint256",
              "name": "totalMessageFees",
              "type": "uint256"
            },
            {
              "internalType": "uint256[]",
              "name": "rotations",
              "type": "uint256[]"
            }
          ],
          "internalType": "struct IFeeManager.FeesDistribution",
          "name": "_feesDistribution",
          "type": "tuple"
        },
        {
          "internalType": "uint256",
          "name": "_validUntil",
          "type": "uint256"
        }
      ],
      "name": "addTransaction",
      "outputs": [],
      "stateMutability": "payable",
      "type": "function"
    },
    {
      "inputs": [],
      "name": "addressManager",
      "outputs": [
        {
          "internalType": "contract IAddressManager",
          "name": "",
          "type": "address"
        }
      ],
      "stateMutability": "view",
      "type": "function"
    },
    {
      "inputs": [
        {
          "internalType": "bytes32",
          "name": "_txId",
          "type": "bytes32"
        }
      ],
      "name": "cancelTransaction",
      "outputs": [],
      "stateMutability": "nonpayable",
      "type": "function"
    },
    {
      "inputs": [
        {
          "internalType": "bytes32",
          "name": "_txId",
          "type": "bytes32"
        },
        {
          "internalType": "bytes32",
          "name": "_commitHash",
          "type": "bytes32"
        },
        {
          "internalType": "uint256",
          "name": "_validatorIndex",
          "type": "uint256"
        }
      ],
      "name": "commitVote",
      "outputs": [],
      "stateMutability": "nonpayable",
      "type": "function"
    },
    {
      "inputs": [
        {
          "internalType": "address",
          "name": "_sender",
          "type": "address"
        },
        {
          "internalType": "uint256",
          "name": "_numOfInitialValidators",
          "type": "uint256"
        },
        {
          "internalType": "uint256",
          "name": "_maxRotations",
          "type": "uint256"
        },
        {
          "internalType": "bytes",
          "name": "_calldata",
          "type": "bytes"
        },
        {
          "components": [
            {
              "internalType": "uint256",
              "name": "leaderTimeoutFee",
              "type": "uint256"
            },
            {
              "internalType": "uint256",
              "name": "validatorsTimeoutFee",
              "type": "uint256"
            },
            {
              "internalType": "uint256",
              "name": "appealRounds",
              "type": "uint256"
            },
            {
              "internalType": "uint256",
              "name": "rollupUnifiedBudget",
              "type": "uint256"
            },
            {
              "internalType": "uint256",
              "name": "rollupUnifiedConsumed",
              "type": "uint256"
            },
            {
              "internalType": "uint256",
              "name": "totalMessageFees",
              "type": "uint256"
            },
            {
              "internalType": "uint256[]",
              "name": "rotations",
              "type": "uint256[]"
            }
          ],
          "internalType": "struct IFeeManager.FeesDistribution",
          "name": "_feesDistribution",
          "type": "tuple"
        },
        {
          "internalType": "uint256",
          "name": "_saltNonce",
          "type": "uint256"
        },
        {
          "internalType": "uint256",
          "name": "_validUntil",
          "type": "uint256"
        }
      ],
      "name": "deploySalted",
      "outputs": [],
      "stateMutability": "payable",
      "type": "function"
    },
    {
      "inputs": [
        {
          "internalType": "address",
          "name": "_recipient",
          "type": "address"
        },
        {
          "internalType": "uint256",
          "name": "_value",
          "type": "uint256"
        },
        {
          "internalType": "bytes",
          "name": "_data",
          "type": "bytes"
        }
      ],
      "name": "executeMessage",
      "outputs": [
        {
          "internalType": "bool",
          "name": "success",
          "type": "bool"
        }
      ],
      "stateMutability": "nonpayable",
      "type": "function"
    },
    {
      "inputs": [
        {
          "internalType": "bytes32[]",
          "name": "_txIds",
          "type": "bytes32[]"
        }
      ],
      "name": "finalizeIdlenessTxs",
      "outputs": [],
      "stateMutability": "nonpayable",
      "type": "function"
    },
    {
      "inputs": [
        {
          "internalType": "bytes32",
          "name": "_txId",
          "type": "bytes32"
        }
      ],
      "name": "finalizeTransaction",
      "outputs": [],
      "stateMutability": "nonpayable",
      "type": "function"
    },
    {
      "inputs": [
        {
          "internalType": "bytes32",
          "name": "_txId",
          "type": "bytes32"
        }
      ],
      "name": "flushExternalMessages",
      "outputs": [],
      "stateMutability": "nonpayable",
      "type": "function"
    },
    {
      "inputs": [],
      "name": "getAddressManager",
      "outputs": [
        {
          "internalType": "contract IAddressManager",
          "name": "",
          "type": "address"
        }
      ],
      "stateMutability": "view",
      "type": "function"
    },
    {
      "inputs": [
        {
          "internalType": "bytes32",
          "name": "txId",
          "type": "bytes32"
        }
      ],
      "name": "getPendingTransactionValue",
      "outputs": [
        {
          "internalType": "uint256",
          "name": "",
          "type": "uint256"
        }
      ],
      "stateMutability": "view",
      "type": "function"
    },
    {
      "inputs": [
        {
          "internalType": "address",
          "name": "_addressManager",
          "type": "address"
        }
      ],
      "name": "initialize",
      "outputs": [],
      "stateMutability": "nonpayable",
      "type": "function"
    },
    {
      "inputs": [
        {
          "internalType": "address",
          "name": "addr",
          "type": "address"
        }
      ],
      "name": "isGhostContract",
      "outputs": [
        {
          "internalType": "bool",
          "name": "",
          "type": "bool"
        }
      ],
      "stateMutability": "view",
      "type": "function"
    },
    {
      "inputs": [
        {
          "internalType": "bytes32",
          "name": "_txId",
          "type": "bytes32"
        }
      ],
      "name": "leaderIdleness",
      "outputs": [],
      "stateMutability": "nonpayable",
      "type": "function"
    },
    {
      "inputs": [
        {
          "components": [
            {
              "internalType": "bytes32",
              "name": "txId",
              "type": "bytes32"
            },
            {
              "internalType": "uint256",
              "name": "saltAsAValidator",
              "type": "uint256"
            },
            {
              "internalType": "bytes32",
              "name": "txExecutionHash",
              "type": "bytes32"
            },
            {
              "internalType": "bytes32",
              "name": "messagesAndOtherFieldsHash",
              "type": "bytes32"
            },
            {
              "internalType": "bytes32",
              "name": "otherExecutionFieldsHash",
              "type": "bytes32"
            },
            {
              "internalType": "enum ITransactions.VoteType",
              "name": "resultValue",
              "type": "uint8"
            },
            {
              "components": [
                {
                  "internalType": "enum IMessages.MessageType",
                  "name": "messageType",
                  "type": "uint8"
                },
                {
                  "internalType": "address",
                  "name": "recipient",
                  "type": "address"
                },
                {
                  "internalType": "uint256",
                  "name": "value",
                  "type": "uint256"
                },
                {
                  "internalType": "bytes",
                  "name": "data",
                  "type": "bytes"
                },
                {
                  "internalType": "bool",
                  "name": "onAcceptance",
                  "type": "bool"
                },
                {
                  "internalType": "uint256",
                  "name": "saltNonce",
                  "type": "uint256"
                }
              ],
              "internalType": "struct IMessages.SubmittedMessage[]",
              "name": "messages",
              "type": "tuple[]"
            }
          ],
          "internalType": "struct IConsensusMainWithFees.LeaderRevealVoteParams",
          "name": "leaderRevealVoteParams",
          "type": "tuple"
        }
      ],
      "name": "leaderRevealVote",
      "outputs": [],
      "stateMutability": "nonpayable",
      "type": "function"
    },
    {
      "inputs": [],
      "name": "owner",
      "outputs": [
        {
          "internalType": "address",
          "name": "",
          "type": "address"
        }
      ],
      "stateMutability": "view",
      "type": "function"
    },
    {
      "inputs": [],
      "name": "pendingOwner",
      "outputs": [
        {
          "internalType": "address",
          "name": "",
          "type": "address"
        }
      ],
      "stateMutability": "view",
      "type": "function"
    },
    {
      "inputs": [
        {
          "internalType": "bytes32",
          "name": "_txId",
          "type": "bytes32"
        }
      ],
      "name": "processIdleness",
      "outputs": [],
      "stateMutability": "nonpayable",
      "type": "function"
    },
    {
      "inputs": [
        {
          "internalType": "address[]",
          "name": "affectedRecipients",
          "type": "address[]"
        }
      ],
      "name": "promoteNextPendingTransactions",
      "outputs": [],
      "stateMutability": "nonpayable",
      "type": "function"
    },
    {
      "inputs": [
        {
          "internalType": "bytes32",
          "name": "_txId",
          "type": "bytes32"
        },
        {
          "internalType": "bytes32",
          "name": "_txExecutionHash",
          "type": "bytes32"
        },
        {
          "internalType": "uint256",
          "name": "_processingBlock",
          "type": "uint256"
        },
        {
          "internalType": "uint256",
          "name": "_storageFeeUsed",
          "type": "uint256"
        },
        {
          "internalType": "address",
          "name": "_operator",
          "type": "address"
        },
        {
          "internalType": "bytes",
          "name": "_eqBlocksOutputs",
          "type": "bytes"
        },
        {
          "internalType": "bytes",
          "name": "_vrfProof",
          "type": "bytes"
        }
      ],
      "name": "proposeReceipt",
      "outputs": [],
      "stateMutability": "nonpayable",
      "type": "function"
    },
    {
      "inputs": [
        {
          "internalType": "bytes32[]",
          "name": "_txIds",
          "type": "bytes32[]"
        }
      ],
      "name": "redButtonFinalize",
      "outputs": [],
      "stateMutability": "nonpayable",
      "type": "function"
    },
    {
      "inputs": [
        {
          "internalType": "address",
          "name": "ghost",
          "type": "address"
        }
      ],
      "name": "registerGhostContract",
      "outputs": [],
      "stateMutability": "nonpayable",
      "type": "function"
    },
    {
      "inputs": [],
      "name": "renounceOwnership",
      "outputs": [],
      "stateMutability": "nonpayable",
      "type": "function"
    },
    {
      "inputs": [
        {
          "internalType": "bytes32",
          "name": "_txId",
          "type": "bytes32"
        },
        {
          "internalType": "bytes32",
          "name": "_voteHash",
          "type": "bytes32"
        },
        {
          "internalType": "enum ITransactions.VoteType",
          "name": "_voteType",
          "type": "uint8"
        },
        {
          "internalType": "bytes32",
          "name": "_otherExecutionFieldsHash",
          "type": "bytes32"
        },
        {
          "internalType": "uint256",
          "name": "_nonce",
          "type": "uint256"
        },
        {
          "internalType": "uint256",
          "name": "_validatorIndex",
          "type": "uint256"
        }
      ],
      "name": "revealVote",
      "outputs": [],
      "stateMutability": "nonpayable",
      "type": "function"
    },
    {
      "inputs": [
        {
          "internalType": "address",
          "name": "_addressManager",
          "type": "address"
        }
      ],
      "name": "setAddressManager",
      "outputs": [],
      "stateMutability": "nonpayable",
      "type": "function"
    },
    {
      "inputs": [
        {
          "internalType": "bytes32",
          "name": "_txId",
          "type": "bytes32"
        }
      ],
      "name": "submitAppeal",
      "outputs": [],
      "stateMutability": "payable",
      "type": "function"
    },
    {
      "inputs": [
        {
          "internalType": "bytes32",
          "name": "_txId",
          "type": "bytes32"
        },
        {
          "components": [
            {
              "internalType": "uint256",
              "name": "leaderTimeoutFee",
              "type": "uint256"
            },
            {
              "internalType": "uint256",
              "name": "validatorsTimeoutFee",
              "type": "uint256"
            },
            {
              "internalType": "uint256",
              "name": "appealRounds",
              "type": "uint256"
            },
            {
              "internalType": "uint256",
              "name": "rollupUnifiedBudget",
              "type": "uint256"
            },
            {
              "internalType": "uint256",
              "name": "rollupUnifiedConsumed",
              "type": "uint256"
            },
            {
              "internalType": "uint256",
              "name": "totalMessageFees",
              "type": "uint256"
            },
            {
              "internalType": "uint256[]",
              "name": "rotations",
              "type": "uint256[]"
            }
          ],
          "internalType": "struct IFeeManager.FeesDistribution",
          "name": "_feesDistribution",
          "type": "tuple"
        }
      ],
      "name": "topUpAndSubmitAppeal",
      "outputs": [],
      "stateMutability": "payable",
      "type": "function"
    },
    {
      "inputs": [
        {
          "internalType": "bytes32",
          "name": "_txId",
          "type": "bytes32"
        },
        {
          "components": [
            {
              "internalType": "uint256",
              "name": "leaderTimeoutFee",
              "type": "uint256"
            },
            {
              "internalType": "uint256",
              "name": "validatorsTimeoutFee",
              "type": "uint256"
            },
            {
              "internalType": "uint256",
              "name": "appealRounds",
              "type": "uint256"
            },
            {
              "internalType": "uint256",
              "name": "rollupUnifiedBudget",
              "type": "uint256"
            },
            {
              "internalType": "uint256",
              "name": "rollupUnifiedConsumed",
              "type": "uint256"
            },
            {
              "internalType": "uint256",
              "name": "totalMessageFees",
              "type": "uint256"
            },
            {
              "internalType": "uint256[]",
              "name": "rotations",
              "type": "uint256[]"
            }
          ],
          "internalType": "struct IFeeManager.FeesDistribution",
          "name": "_feesDistribution",
          "type": "tuple"
        }
      ],
      "name": "topUpFees",
      "outputs": [],
      "stateMutability": "payable",
      "type": "function"
    },
    {
      "inputs": [
        {
          "internalType": "address",
          "name": "newOwner",
          "type": "address"
        }
      ],
      "name": "transferOwnership",
      "outputs": [],
      "stateMutability": "nonpayable",
      "type": "function"
    },
    {
      "stateMutability": "payable",
      "type": "receive"
    }
  ],
  "bytecode": "0x6080806040523460d2577ff0c57e16840df040f15088dc2f81fe391c3923bec73e23a9662efc9c229c6a005460ff8160401c1660c1576002600160401b03196001600160401b03821601605c575b604051615b9e90816100d88239f35b6001600160401b0319166001600160401b039081177ff0c57e16840df040f15088dc2f81fe391c3923bec73e23a9662efc9c229c6a005581527fc7f505b2f371ae2175ee4913f4499e1f2633a7b5936321eed1cdaeb6115181d290602090a13880604d565b63f92ee8a960e01b60005260046000fd5b600080fdfe608080604052600436101561001d575b50361561001b57600080fd5b005b600090813560e01c90816303d1491714612830575080630652b57a146127ca578063103abeac146127ae5780631a759738146127325780633ab76e9f146126ca5780633bd15f70146126f15780635492f302146126ca5780635c970d28146124be5780636457bf481461239557806367f7c83a146123075780636a9c499d14611e4d57806370ba333914611c47578063715018a614611bc657806379ba509714611b7857806385d2d27414611b555780638b5de1bc14611a2e5780638da5cb5b146119f85780639e0c615f1461194a578063a4d8908014611896578063a560cd0c14611850578063aa923c0214611798578063b2efda8314611456578063b77ae9c214611296578063c4d66de8146110e7578063c7e6e7661461104e578063cf0a638414610fc5578063dd6ed25614610c0c578063e30c397814610bd6578063e4c23d5914610737578063f2fde38b146106af578063f5435a1b146105f3578063f5acca71146101e05763ffa1ad740361000f57346101dd57806003193601126101dd57506101d96040516101b3604082612e27565b60058152640322e302e360dc1b60208201526040519182916020835260208301906130d1565b0390f35b80fd5b50346101dd576101ef36613030565b906101f8614fb8565b61020061574e565b906102096150cb565b835191939192849291839173__$66ce50c11b4f8ca6e6decb43a984eadcfa$__91906001600160a01b0316835b85518910156105a65786546001600160a01b03166102548a88613c02565b5190853b15610520576040516364aade8f60e11b81526001600160a01b0391909116600482015260248101919091528781604481885af480156104bd57908891610591575b50506102a58987613c02565b51604051906102b382612d9e565b8152604051634377ca4160e11b815290516004820152610140816024818b875af1889181610560575b50610325575061031c6001916102f28b89613c02565b517fd157a8824e3093207095e0855163da28b596e2c5f19ba73ea473c2346e05b15b8a80a2614fa9565b985b0197610236565b6103338a889b97939b613c02565b5160405163255709e560e11b8152600481019190915288816024816001600160a01b0389165afa908115610555578991610533575b5088546001600160a01b031661037e888a613c02565b5190873b1561052f5783918b916103aa8560405195869485946318e563ef60e01b865260048601614ca1565b03818a5af4801561052457908a9161050b575b50806001600160a01b036103cf615135565b1660246103dc8b8d613c02565b516040519485938492632367190d60e01b845260048401525af18a91816104e7575b506104cc575b50506104108688613c02565b517f24196ec40f90671b7144e716978686b4f3c7d6b00b23da3971ef2b52af27d87f8980a287546020909101516001600160a01b0391821691166104548789613c02565b5191863b156104c85790899161047e604051948593849363121ad92d60e21b855260048501613c2c565b0381885af480156104bd579088916104a4575b505061049e600191614fa9565b9461031e565b816104ae91612e27565b6104b9578638610491565b8680fd5b6040513d8a823e3d90fd5b8980fd5b6104e0916104da898b613c02565b5161579a565b3880610404565b6105049192503d808d833e6104fc8183612e27565b810190614efc565b90386103fe565b8161051591612e27565b6105205788386103bd565b8880fd5b6040513d8c823e3d90fd5b8a80fd5b61054f91503d808b833e6105478183612e27565b8101906132fe565b38610368565b6040513d8b823e3d90fd5b6105839192506101403d811161058a575b61057b8183612e27565b810190614be4565b90386102dc565b503d610571565b8161059b91612e27565b6104b9578638610299565b7f3d139c84ad9350b1f396f3d75cb0770c4f495459f8ef8755e5335a12632bac3d60608989938860405192835260208301526040820152a16001600080516020615ae98339815191525580f35b50346101dd57808061063d61060736613030565b61060f615095565b6001600160a01b0361061f615197565b169060405194858094819363f5435a1b60e01b835260048301613c4e565b03925af180156106a457829061065b575b61065891506151fc565b80f35b503d8083833e61066b8183612e27565b8101906020818303126106a0578051916001600160401b03831161069c5761065892610697920161323d565b61064e565b8380fd5b8280fd5b6040513d84823e3d90fd5b50346101dd5760203660031901126101dd576106c9612e5f565b6106d1615095565b600080516020615b2983398151915280546001600160a01b0319166001600160a01b03928316908117909155600080516020615aa9833981519152549091167f38d16b8cac22d99fc7c124b9cd0de2d3fa1faef420bfe791d8c362d765e227008380a380f35b5060e03660031901126101dd5761074c612e5f565b90602435916064356001600160401b0381116106a057610770903690600401612ef1565b906084356001600160401b03811161069c57610790903690600401612f3c565b9060a4359061079d614fb8565b8115610bc7576001600160a01b038116918215610bc157815b6001600160a01b036107c6615135565b16916040516327f4490760e11b815260606004820152602081806107ed606482018b6147a6565b8d60248301528c60448301520381875afa908115610555578991610b8a575b503410610b7b579697889760c091906001600160a01b0361082b6152ab565b16986040519261083a84612e0b565b8884528b602085015260018060a01b0386166040850152336060850152608084015260443560a08401528383015260e082015260c4356101008201523461012082015288610140820152886101608201526040519788808093633ee12c7960e11b82526020600483015260018060a01b03815116602483015260018060a01b03602082015116604483015260018060a01b03604082015116606483015260018060a01b036060820151166084830152608081015160a483015260a081015160c483015261016061091a8783015161018060e48601526101a48501906130d1565b9160e081015161010485015261010081015161012485015261012081015161014485015261014081015115156101648501520151610184830152039134905af1958615610b70578796610adf575b50855190823b15610adb5761099992889283604051809681958294630e5fbe8960e21b84528c34916004860161481f565b03925af1908115610ad0578691610abb575b5050608084015115610a86578351606085015160408601516001600160a01b03908116929116907fdab9102861c7483a187584d6371d88316f005af507982ccf95c110879f3ed5a58880a45b9251926001600160a01b03610a0a615135565b169115610a7e57905b803b15610a7a57610a409385809460405196879586948593630e5fbe8960e21b855234916004860161481f565b03925af180156106a457610a65575b506001600080516020615ae98339815191525580f35b81610a6f91612e27565b6101dd578038610a4f565b8480fd5b503390610a13565b83517f8620e7f03a280a3d2aa84bd41ba19524c2d7f1dbfa9d79cb81877b0f8c963f9b602080870151604051908152a26109f7565b81610ac591612e27565b610a7a5784386109ab565b6040513d88823e3d90fd5b8780fd5b90955060c0813d60c011610b68575b81610afb60c09383612e27565b810103126104b957610b5c60a060405192610b1584612d67565b8051845260208101516020850152610b2f604082016131cc565b6040850152610b40606082016131cc565b6060850152610b51608082016131bf565b6080850152016131bf565b60a08201529438610968565b3d9150610aee565b6040513d89823e3d90fd5b638d53e55360e01b8852600488fd5b90506020813d602011610bb9575b81610ba560209383612e27565b81010312610bb457513861080c565b600080fd5b3d9150610b98565b336107b6565b63aceab4a160e01b8552600485fd5b50346101dd57806003193601126101dd57600080516020615b29833981519152546040516001600160a01b039091168152602090f35b5060e03660031901126101dd57610c21612e5f565b610c29612e75565b90604435906084356001600160401b038111610a7a57610c4d903690600401612ef1565b60a4356001600160401b038111610fc157610c6c903690600401612f3c565b91610c75614fb8565b6001600160a01b038116908115610fb957915b6001600160a01b03610c98615135565b16946040516327f4490760e11b81526060600482015260208180610cbf606482018a6147a6565b8560248301528c604483015203818a5afa908115610555578991610f87575b503410610b7b57879594939260c09290916001600160a01b03610cff6152ab565b169860405193610d0e85612e0b565b845260018060a01b0316602084015260018060a01b0385166040840152336060840152608083015260643560a0830152828201528560e082015260c4356101008201523461012082015285610140820152856101608201526040519687808093633ee12c7960e11b82526020600483015260018060a01b03815116602483015260018060a01b03602082015116604483015260018060a01b03604082015116606483015260018060a01b036060820151166084830152608081015160a483015260a081015160c4830152610160610df58783015161018060e48601526101a48501906130d1565b9160e081015161010485015261010081015161012485015261012081015161014485015261014081015115156101648501520151610184830152039134905af1948515610f7c578495610f32575b50845192803b15610a7a57610e749385809460405196879586948593630e5fbe8960e21b855234916004860161481f565b03925af180156106a457610f19575b5050608081015115610ee4578051606082015160408301516001600160a01b03908116929116907fdab9102861c7483a187584d6371d88316f005af507982ccf95c110879f3ed5a58580a4506001600080516020615ae98339815191525580f35b80517f8620e7f03a280a3d2aa84bd41ba19524c2d7f1dbfa9d79cb81877b0f8c963f9b602080840151604051908152a2610a4f565b81610f2391612e27565b610f2e578138610e83565b5080fd5b90945060c0813d60c011610f74575b81610f4e60c09383612e27565b8101031261069c57610f6860a060405192610b1584612d67565b60a08201529338610e43565b3d9150610f41565b6040513d86823e3d90fd5b90506020813d602011610fb1575b81610fa260209383612e27565b81010312610bb4575138610cde565b3d9150610f95565b503391610c88565b8580fd5b50346101dd5760203660031901126101dd5780610fe0612e5f565b610fe8615095565b6001600160a01b03610ff86152ab565b1690813b1561104a576040516333c298e160e21b81526001600160a01b0390911660048201529082908290602490829084905af180156106a4576110395750f35b8161104391612e27565b6101dd5780f35b5050fd5b50346101dd5760203660031901126101dd57611068614fb8565b805481906001600160a01b031673__$66ce50c11b4f8ca6e6decb43a984eadcfa$__803b1561104a576040516364aade8f60e11b81526001600160a01b03909216600480840191909152356024830152829082908180604481015b03915af480156106a457610a6557506001600080516020615ae98339815191525580f35b50346101dd5760203660031901126101dd57611101612e5f565b600080516020615b09833981519152549060ff8260401c1615916001600160401b0381168015908161128e575b6001149081611284575b15908161127b575b5061126c5767ffffffffffffffff198116600117600080516020615b09833981519152558261123f575b50611173615a3a565b61117b615a3a565b611183615a3a565b331561122b5761119233615370565b61119a615a3a565b6111a2615a3a565b6001600080516020615ae98339815191525582546001600160a01b0319166001600160a01b03919091161782556111d65780f35b60ff60401b19600080516020615b098339815191525416600080516020615b09833981519152557fc7f505b2f371ae2175ee4913f4499e1f2633a7b5936321eed1cdaeb6115181d2602060405160018152a180f35b631e4fbdf760e01b83526004839052602483fd5b68ffffffffffffffffff19166801000000000000000117600080516020615b09833981519152553861116a565b63f92ee8a960e01b8452600484fd5b90501538611140565b303b159150611138565b84915061112e565b506112a036613001565b6112a8614fb8565b826112b2836153de565b92969495919492906001600160a01b036112ca6150cb565b1691823b1561069c576112f7928492838c6040519687958694859362e5a95360e71b855260048501614704565b03925af180156106a457611441575b5060209161134c91506001600160a01b0361131f615135565b1690896040518096819582946327011ecb60e11b84528d600485015260e0602485015260e48401906147a6565b9034604484015233606484015283608484015289151560a484015260c483015203925af1908115610ad0578691611407575b50156113f857156113bc57506001600160a01b031690600080516020615ac98339815191528380a35b6001600080516020615ae98339815191525580f35b9190507f08e6523db104b48b6f1a359653498b9739ec31f6e03abb21e7acf4d73f0a48ff604051806113f03395348361472c565b0390a36113a7565b6359ce6fdf60e11b8552600485fd5b90506020813d602011611439575b8161142260209383612e27565b81010312610fc157611433906131bf565b3861137e565b3d9150611415565b8161144b91612e27565b6104b9578638611306565b50346101dd5760203660031901126101dd5780600435611474614fb8565b6101406001600160a01b0361148761574e565b16602460405161149681612d9e565b8481526040519687938492634377ca4160e11b84525160048401525af19283156106a4578293611777575b5060c0830151611667575b90918291602491836001600160a01b036114e46150cb565b166040519485809263255709e560e11b82528660048301525afa928315610f7c57849361164b575b50835473__$66ce50c11b4f8ca6e6decb43a984eadcfa$__93906001600160a01b0316843b15610fc157858484926115598560405195869485946318e563ef60e01b865260048601614ca1565b0381885af4908115610ad0578691611636575b5090816001600160a01b0361157f615135565b16602460405180958193632367190d60e01b83528960048401525af1908115610ad0576115b492879261161a575b508461579a565b60405192827f24196ec40f90671b7144e716978686b4f3c7d6b00b23da3971ef2b52af27d87f8680a284546020909201516001600160a01b0390811693921691813b15610fc15763121ad92d60e21b855285938593849283926110c39260048501613c2c565b61162f9192503d8089833e6104fc8183612e27565b90386115ad565b8161164091612e27565b610a7a57843861156c565b6116609193503d8086833e6105478183612e27565b913861150c565b6101208301928351600f811015611739576005148015611761575b9383946000146116c0575090602491817ff250caa116f9eac0e4e82d403f131ce0a520b6c232dbcbe270b3729b0aaca09e8580a25b935090506114cc565b80935051600f81101561174d5784929190600d0361170757829350817fe51a41760ba25c8a4ac33894d5eb8698cf110a90d4e6f764fa0579ec8767b46684602495a26116b7565b91509151600f811015611739579160249160068594036116b75781600080516020615a698339815191528580a26116b7565b634e487b7160e01b84526021600452602484fd5b634e487b7160e01b85526021600452602485fd5b50835193600f8510156117395793600c14611682565b6117919193506101403d811161058a5761057b8183612e27565b91386114c1565b50346101dd5760203660031901126101dd576117b2612e5f565b9060206001600160a01b036117c56152ab565b6040516355491e0160e11b81526001600160a01b03909516600486015284916024918391165afa908115611844578091611807575b6020826040519015158152f35b90506020823d60201161183c575b8161182260209383612e27565b810103126101dd57506118366020916131bf565b386117fa565b3d9150611815565b604051903d90823e3d90fd5b50346101dd5760603660031901126101dd5761186a612e75565b604435906001600160401b0382116106a05761188d610658923690600401612f0f565b9160043561485a565b506118a036613001565b6118ab929192614fb8565b341561193b5790918291906001600160a01b036118c6615135565b1691823b15611936576118ff92849283604051809681958294630e5fbe8960e21b8452600484015260a0602484015260a48301906147a6565b3460448301526001606483015233608483015203925af180156106a457610a6557506001600080516020615ae98339815191525580f35b505050fd5b638d53e55360e01b8252600482fd5b50346101dd5760603660031901126101dd57611964612e5f565b906044356001600160401b038111610f2e57611984903690600401612ef1565b916001600160a01b03611995615310565b16331415806119d6575b6119c7578282916020809551920190602435905af16119bc614776565b506040519015158152f35b630fc7a3f360e31b8252600482fd5b50600080516020615aa9833981519152546001600160a01b031633141561199f565b50346101dd57806003193601126101dd57600080516020615aa9833981519152546040516001600160a01b039091168152602090f35b5060203660031901126101dd57600435611a46614fb8565b81611a50826153de565b929591939192906001600160a01b03611a676150cb565b1691823b15610a7a57611a94928592838b6040519687958694859362e5a95360e71b855260048501614704565b03925af1908115611b4a578391611b35575b50602091905060846001600160a01b03611abe615135565b1691604051948593849263d38f5c3560e01b84528b600485015260248401523460448401523360648401525af1908115610ad05786916114075750156113f857156113bc57506001600160a01b031690600080516020615ac98339815191528380a36001600080516020615ae98339815191525580f35b81611b3f91612e27565b610f2e578138611aa6565b6040513d85823e3d90fd5b50346101dd5760603660031901126101dd5761065860443560243560043561437a565b50346101dd57806003193601126101dd57600080516020615b2983398151915254336001600160a01b0390911603611bb35761065833615370565b63118cdaa760e01b815233600452602490fd5b50346101dd57806003193601126101dd57611bdf615095565b600080516020615b2983398151915280546001600160a01b0319908116909155600080516020615aa98339815191528054918216905581906001600160a01b03167f8be0079c531659141344cd1fd0a4f28419497f9722a3daafe3b4186f6b6457e08280a380f35b50346101dd5760203660031901126101dd5780600435611c65614fb8565b611c6d6152ab565b906024836001600160a01b03611c816150cb565b166040519283809263255709e560e11b82528660048301525afa908115610f7c578491611e33575b5060c0810151604051632838322d60e01b8152600481018490523360248201526001600160a01b03918216949091606091839160449183918a91165af1918215611e285783918693611dc1575b506040519033837f0a94f6cf3e473cb72e765b24d1365bfcbef8d31a73215bb27e50df39757f578a8980a36040840151151580611db4575b611d84575b505084546001600160a01b031692915073__$66ce50c11b4f8ca6e6decb43a984eadcfa$__9050803b15610a7a576110c39385936040519586948593849363121ad92d60e21b855260048501613c2c565b60a0015160209384015182526001600160a01b031692600080516020615a8983398151915291a338818180611d33565b5060208401511515611d2e565b915091506060813d606011611e20575b81611dde60609383612e27565b81010312610a7a578290611e146040805192611df984612db9565b611e02816131cc565b845260208101516020850152016131bf565b60408201529138611cf6565b3d9150611dd1565b6040513d87823e3d90fd5b611e4791503d8086833e6105478183612e27565b38611ca9565b50346101dd5760203660031901126101dd5760043590611e6b614fb8565b611e736150cb565b611e7b615310565b926064602060018060a01b0385541660405192838092631bae711d60e21b8252846004830152600f60248301526e4d6573736167655061796d656e747360881b60448301525afa8015610f7c57849081906122cb575b60405163255709e560e11b8152600481018590526001600160a01b039182169590935083916024918391165afa908115610f7c5784916122b1575b506060810151600f81101561174d57600619016122a257839460018060a01b03169260405163404f7db760e01b8152836004820152602081602481885afa908115610ad0578691612268575b5061213e575b60405163aa14aa7360e01b81526004810184905290602082602481885afa8015610ad05786928391612102575b50611fdb575b505060c001516001600160a01b0316823b15611936576040516338444e0560e01b815260048101929092526001600160a01b03166024820152908290829081838160448101610a40565b602060c0840191606460018060a01b03845116604051958693849263165a3c0560e21b84528a600485015260248401528160448401525af1918215610ad05786926120cb575b5081612030575b859150611f91565b80516001600160a01b031690813b156104b957604051635b8346e560e11b8152306004820152602481018490528592889081908390604490829084905af191826120b0575b50506120a857516040519283526001600160a01b031691600080516020615a8983398151915290602090a35b3880612028565b5050506120a1565b81929450906120be91612e27565b6104b95784918738612075565b955090506020853d6020116120fa575b816120e860209383612e27565b81010312610bb4578594519038612021565b3d91506120db565b9250506020823d602011612136575b8161211e60209383612e27565b81010312610fc15761213086926131bf565b38611f8b565b3d9150612111565b60c08201805160405163165a3c0560e21b8152600481018690526001600160a01b03909116602482015260016044820152906020826064818a875af1918215610b70578792612231575b5081612196575b5050611f5e565b80516001600160a01b031690813b15610adb57604051635b8346e560e11b8152306004820152602481018490528692899081908390604490829084905af19182612216575b505061220e57516040519283526001600160a01b031691600080516020615a8983398151915290602090a35b388061218f565b505050612207565b819294509061222491612e27565b610adb57859188386121db565b965090506020863d602011612260575b8161224e60209383612e27565b81010312610bb4578695519038612188565b3d9150612241565b90506020813d60201161229a575b8161228360209383612e27565b81010312610fc157612294906131bf565b38611f58565b3d9150612276565b63e4e81f7960e01b8452600484fd5b6122c591503d8086833e6105478183612e27565b38611f0c565b50506020813d6020116122ff575b816122e660209383612e27565b8101031261069c57836122fa6024926131cc565b611ed1565b3d91506122d9565b50346101dd5760203660031901126101dd5760249060206001600160a01b0361232e6152ab565b16604051938480926333fbe41d60e11b825260043560048301525afa9081156118445790612362575b602090604051908152f35b506020813d60201161238d575b8161237c60209383612e27565b81010312610bb45760209051612357565b3d915061236f565b50346101dd5760203660031901126101dd576004356001600160401b038111610f2e5736602382011215610f2e578060040135906123d282612e48565b916123e06040519384612e27565b8083526024602084019160051b83010191368311610a7a57602401905b8282106124a65750508254604051631bae711d60e21b8152915060209082906001600160a01b031681806124336004820161434e565b03915afa908115611b4a57839161246c575b506001600160a01b0316330361245e57610658906151fc565b6282b42960e81b8252600482fd5b90506020813d60201161249e575b8161248760209383612e27565b810103126106a057612498906131cc565b38612445565b3d915061247a565b602080916124b384612e8b565b8152019101906123fd565b50346101dd5760203660031901126101dd5780600435816001600160a01b036124e5615197565b1660246040516124f481612d9e565b84815260405195869384926323d783ed60e11b84525160048401525af1918215611b4a5783926125e2575b5060608201516001600160a01b031690811515806125cc575b61257d575b5050815b60a08201518051821015612579578161255e60a093600193613c02565b51600080516020615a698339815191528680a2019050612541565b8380f35b60808301516001600160a01b0316918290827f1c717affb0f2d0bd7bccd509af90bc762d34bc45ad812ef154a3f5efdae1ca6b8780a4600080516020615b498339815191528480a3388061253d565b5060808301516001600160a01b03161515612538565b9091503d8084833e6125f48183612e27565b81019060208183031261069c578051906001600160401b038211610a7a570160e08183031261069c576040519161262a83612d36565b8151600f811015610fc15783526020820151600f811015610fc1576020840152612656604083016131cc565b6040840152612667606083016131cc565b6060840152612678608083016131cc565b608084015260a08201516001600160401b038111610fc1578161269c9184016131e0565b60a084015260c08201516001600160401b038111610fc1576126be92016131e0565b60c0820152903861251f565b50346101dd57806003193601126101dd57546040516001600160a01b039091168152602090f35b50346101dd5760c03660031901126101dd576044356005811015610f2e576113a79061271b614fb8565b60a435906084359060643590602435600435613c88565b50346101dd5760e03660031901126101dd576084356001600160a01b0381168103610f2e5760a4356001600160401b0381116106a057612776903690600401612f0f565b9160c435926001600160401b038411610a7a5761279a610658943690600401612f0f565b939092606435604435602435600435613574565b50346101dd57806003193601126101dd57602060405160648152f35b50346101dd5760203660031901126101dd576127e4612e5f565b6127ec615095565b81546001600160a01b0319166001600160a01b039190911690811782557f2e967678ac371453fc8babb3af60134332176ca4334ac0032e7b2a655c72e5a98280a280f35b82346101dd5760203660031901126101dd57600435916001600160401b038311610f2e5760e06003198436030112610f2e5761286b81612d36565b826004013581526020810160248401358152604082019360448101358552606083019060648101358252608084016084820135815260a48201359160058310156104b95760a0860192835260c4810135906001600160401b038211610adb570196366023890112156104b95760048801356128e581612e48565b986128f36040519a8b612e27565b818a5260206004818c019360051b83010101903682116104c85760248101925b828410612c80575050505060c0860197885261292d614fb8565b87518251612963604051809261294f60208301956040875260608401906130f6565b90604083015203601f198101835282612e27565b519020845103612c71576001600160a01b0361297d614ff4565b16928651915192519451955190519860058a1015612c5d578899899798999392612a32612a56935192604051956129b387612d82565b86526020860197885260408601998a52606086019b8c52608086019283526129df60a0870191826131b3565b60c086019233845260e087019485526040519c8d9b8c9a8b9963bfcc725760e01b8b52602060048c01525160248b01525160448a01525160648901525160848801525160a48701525160c48601906132a2565b516001600160a01b031660e4840152516101006101048401526101248301906130f6565b03925af1908115611b4a578391612b6e575b5073__$66ce50c11b4f8ca6e6decb43a984eadcfa$__90606081015192600f84101561174d57519260e060018060a01b0360208401511692015191833b15610fc1579390928592604051958693637754369b60e11b8552612ad160a486019760048701906132af565b8560248601526044850152606484015260a060848401528051809552602060c48401910194845b818110612b49575050839450828181925003915af48015612b3c57612b2c576001600080516020615ae98339815191525580f35b612b3591612e27565b81816113a7565b50604051903d90823e3d90fd5b86516001600160a01b0316835260209687019689965088955090920191600101612af8565b90503d8084833e612b7f8183612e27565b81019060208183031261069c578051906001600160401b038211610a7a57016101008183031261069c5760405191612bb683612d82565b612bbf826131bf565b8352612bcd602083016131cc565b6020840152604082015160408401526060820151600f811015610fc157606084015260808201516001600160401b038111610fc15781612c0e9184016131e0565b6080840152612c1f60a083016131bf565b60a0840152612c3060c083016131cc565b60c084015260e08201516001600160401b038111610fc157612c52920161323d565b60e082015283612a68565b634e487b7160e01b89526021600452602489fd5b63496189f760e11b8752600487fd5b83356001600160401b038111612d325760049083010160c0601f198236030112612d325760405190612cb182612d67565b60208101356002811015612d2e578252612ccd60408201612e8b565b60208301526060810135604083015260808101356001600160401b038111612d2e57612cff9060203691840101612ef1565b606083015260a08101358015158103612d2e57608083015260c0013560a0820152815260209384019301612913565b8d80fd5b8b80fd5b60e081019081106001600160401b03821117612d5157604052565b634e487b7160e01b600052604160045260246000fd5b60c081019081106001600160401b03821117612d5157604052565b61010081019081106001600160401b03821117612d5157604052565b602081019081106001600160401b03821117612d5157604052565b606081019081106001600160401b03821117612d5157604052565b61014081019081106001600160401b03821117612d5157604052565b608081019081106001600160401b03821117612d5157604052565b61018081019081106001600160401b03821117612d5157604052565b90601f801991011681019081106001600160401b03821117612d5157604052565b6001600160401b038111612d515760051b60200190565b600435906001600160a01b0382168203610bb457565b602435906001600160a01b0382168203610bb457565b35906001600160a01b0382168203610bb457565b6001600160401b038111612d5157601f01601f191660200190565b929192612ec682612e9f565b91612ed46040519384612e27565b829481845281830111610bb4578281602093846000960137010152565b9080601f83011215610bb457816020612f0c93359101612eba565b90565b9181601f84011215610bb4578235916001600160401b038311610bb45760208381860195010111610bb457565b919060e083820312610bb457604051612f5481612d36565b8093803582526020810135602083015260408101356040830152606081013560608301526080810135608083015260a081013560a083015260c0810135906001600160401b038211610bb457019180601f84011215610bb4578235612fb881612e48565b93612fc66040519586612e27565b81855260208086019260051b820101928311610bb457602001905b828210612ff15750505060c00152565b8135815260209182019101612fe1565b906040600319830112610bb45760043591602435906001600160401b038211610bb457612f0c91600401612f3c565b6020600319820112610bb457600435906001600160401b038211610bb45780602383011215610bb457816004013561306781612e48565b926130756040519485612e27565b8184526024602085019260051b820101928311610bb457602401905b82821061309e5750505090565b8135815260209182019101613091565b60005b8381106130c15750506000910152565b81810151838201526020016130b1565b906020916130ea815180928185528580860191016130ae565b601f01601f1916010190565b9080602083519182815201906020808260051b8501019401926000905b82821061312257505050505090565b9091929394601f198282030185528551908151600281101561319d576001928260209392849352848060a01b038383015116838201526040820151604082015260a08061317e606085015160c0606086015260c08501906130d1565b6080808601511515908501529301519101529701950193920190613113565b634e487b7160e01b600052602160045260246000fd5b600582101561319d5752565b51908115158203610bb457565b51906001600160a01b0382168203610bb457565b9080601f83011215610bb45781516131f781612e48565b926132056040519485612e27565b81845260208085019260051b820101928311610bb457602001905b82821061322d5750505090565b8151815260209182019101613220565b9080601f83011215610bb457815161325481612e48565b926132626040519485612e27565b81845260208085019260051b820101928311610bb457602001905b82821061328a5750505090565b60208091613297846131cc565b81520191019061327d565b90600582101561319d5752565b90600f82101561319d5752565b81601f82011215610bb45780516132d281612e9f565b926132e06040519485612e27565b81845260208284010111610bb457612f0c91602080850191016130ae565b602081830312610bb4578051906001600160401b038211610bb457016102e081830312610bb457604051916102e083018381106001600160401b03821117612d515760405281516006811015610bb457835260208201516005811015610bb45760208401526040820151600f811015610bb45760408401526060820151600f811015610bb4576060840152613395608083016131cc565b60808401526133a660a083016131cc565b60a08401526133b760c083016131cc565b60c08401526133c860e083016131cc565b60e08401526101008201516101008401526101208201516101208401526101408201516101408401526101608201516101608401526101808201516101808401526101a08201516101a08401526101c08201516101c08401526101e08201516101e08401526102008201516001600160401b038111610bb4578161344d9184016132bc565b6102008401526102208201516001600160401b038111610bb457816134739184016132bc565b6102208401526102408201516001600160401b038111610bb457820181601f82011215610bb4578051906134a682612e48565b926134b46040519485612e27565b82845260206060818601940283010191818311610bb457602001925b8284106135155750505050906102c0916102408401526102608101516102608401526102808101516102808401526102a08101516102a084015201516102c082015290565b606084830312610bb457602060609160405161353081612db9565b865181528287015183820152604087015160408201528152019301926134d0565b9190820180921161355e57565b634e487b7160e01b600052601160045260246000fd5b94909160649998979397969496600098602060018060a01b038b54166040519d8e8092631bae711d60e21b8252846004830152600d60248301526c50726f706f73616c506861736560981b60448301525afa958615610524578a9b9c8b999a9b97613b94575b50908894939291604051946135ee86612d82565b8b86526020860197885233604087019081526001600160a01b03909d16606087019081526080870195865260a087019384529c9961362e91369190612eba565b9260c08601938452369061364192612eba565b60e0850190815260405163fa319c6560e01b815260206004820152945160248601529551604485015296516001600160a01b039081166064850152995190991660848301525160a4820152935160c4850152955161010060e485015292958693849283916136b4906101248401906130d1565b9051828203602319016101048401526136cd91906130d1565b03926001600160a01b03165af1918215611b4a578392613a95575b5060e0820151613a6f575b815115613a5957829060408301918251600f811015613a4557600c190161388c575b6001600160a01b03613725615135565b1660a0850151608086015191855193600f851015612c5d57813b1561052057918860c492819594600d604051988997889663b5b00f6b60e01b88528c60048901526024880152336044880152606487015214608485015260a48401525af18015611e2857613878575b5073__$66ce50c11b4f8ca6e6decb43a984eadcfa$__9151600f81101561174d5761012084015115159360c060018060a01b0360608301511691015192843b156104b95794929091869492604051968795637754369b60e11b87526137fb60a488019460048901906132af565b60248701526044860152606485015260a060848501528151809152602060c48501920190855b818110613853575050508290039082905af480156106a457613841575050565b61384c828092612e27565b6101dd5750565b82516001600160a01b0316845288965087955060209384019390920191600101613821565b8461388591959295612e27565b923861378e565b506024846001600160a01b036138a06150cb565b166040519283809263255709e560e11b82528660048301525afa908115611e2857906102a0918691613a2b575b500151607f193601368111613a1757818102918183041490151715613a0357602481866001600160a01b03613900615135565b1660405193848092635b3c669b60e01b82528860048301525afa918215610b70578792613951575b506139396060916080840151613551565b9101511015613715576377ebef4d60e01b8552600485fd5b9091503d8088833e6139638183612e27565b810190602081830312610adb578051906001600160401b03821161052057019060e082820312610adb576040519161399a83612d36565b805183526020810151602084015260408101516040840152606081015160608401526080810151608084015260a081015160a084015260c0810151906001600160401b0382116104c85761393992606094926139f692016131e0565b60c0820152929150613928565b634e487b7160e01b85526011600452602485fd5b634e487b7160e01b86526011600452602486fd5b613a3f91503d8088833e6105478183612e27565b386138cd565b634e487b7160e01b86526021600452602486fd5b91600080516020615a69833981519152915080a2565b60608201516001600160a01b031681600080516020615b498339815191528580a36136f3565b9091503d8084833e613aa78183612e27565b81019060208183031261069c578051906001600160401b038211610a7a57016101408183031261069c5760405191613ade83612dd4565b613ae7826131bf565b8352613af5602083016131cc565b60208401526040820151600f811015610fc1576040840152613b19606083016131cc565b60608401526080820151608084015260a082015160a084015260c08201516001600160401b038111610fc15791613b5861012092613b8794830161323d565b60c0850152613b6960e082016131bf565b60e0850152613b7b61010082016131cc565b610100850152016131bf565b61012082015290386136e8565b919293949596509697506020813d602011613bdd575b81613bb760209383612e27565b8101031261052f57918a979695949291613bd28995936131cc565b9690919293946135da565b3d9150613baa565b600581101561319d5760f81b9052565b90600682101561319d5752565b8051821015613c165760209160051b010190565b634e487b7160e01b600052603260045260246000fd5b6001600160a01b03918216815291166020820152604081019190915260600190565b602060408183019282815284518094520192019060005b818110613c725750505090565b8251845260209384019390920191600101613c65565b939192948160405160208101906000953360601b8352613cab6034830189613be5565b896035830152605582015260558152613cc5607582612e27565b5190200361433f5782919060c490836001600160a01b03613ce4614ff4565b16986040516020810191613cf8838b613be5565b602182015260218152613d0c604182612e27565b5190209860405192613d1d84612d67565b89845260208401958652604084019a8b5260608401613d3c8a826131b3565b613d7d608086019133835260a087019384526040519d8e998a986320e3d24360e11b8a525160048a01525160248901525160448801525160648701906132a2565b516001600160a01b031660848501525160a48401525af1938415612b3c578194614166575b5083511561414e576001600160a01b03613dba615135565b169160a085015192602086019384511515916040880193845190600682101561413a578660209493613e2860c494613e1e8d956040519a8b998a9863015e82ff60e61b8a5260048a01526024890152336044890152606488015260848701906132a2565b60a4850190613bf5565b5af1908115611b4a578391614100575b508351613edf575b5061016060018060a01b0361012087015116950151926005841015613ecb575115159051916006831015613eb7575091613eb46060927f14d4bda97d7d28622aa0ad6e4d069bb9215b9e2346ecbdf2313b04121da0b68a94613ea560405180956132a2565b60208401526040830190613bf5565ba3565b634e487b7160e01b81526021600452602490fd5b634e487b7160e01b83526021600452602483fd5b60e08601908151908151151590816140f8575b5015613f6d57507f9c4bf38aa77ce1103eb348ff99a695363c0b42ab316945b0e19906310f2146a2613f2f61010088015160405191829182613c4e565b0390a15160408101516020909101516001600160a01b0391613f519190613c02565b511684600080516020615ac98339815191528480a35b38613e40565b610180870151909150156140af575090604051847ff250caa116f9eac0e4e82d403f131ce0a520b6c232dbcbe270b3729b0aaca09e8380a26101c0860151614038575b508054606086015191929173__$66ce50c11b4f8ca6e6decb43a984eadcfa$__916001600160a01b039182169116823b15610a7a5760405163121ad92d60e21b815292859284928391829161400a918c9160048501613c2c565b03915af48015611b4a57908391614023575b5050613f67565b8161402d91612e27565b610f2e57813861401c565b8154606087015173__$66ce50c11b4f8ca6e6decb43a984eadcfa$__916001600160a01b039182169116823b15610a7a5783859381936084936330a1fa8560e11b845260048401528a60248401526044830152600160648301525af480156106a45715613fb057816140a991612e27565b38613fb0565b60c08601516140bf575b50613f67565b60408101516020909101516001600160a01b03916140dd9190613c02565b511684600080516020615b498339815191528480a3386140b9565b905038613ef2565b90506020813d602011614132575b8161411b60209383612e27565b810103126106a05761412c906131bf565b38613e38565b3d915061410e565b634e487b7160e01b87526021600452602487fd5b600080516020615a69833981519152929350809150a2565b9093503d8085833e6141788183612e27565b810190602081830312610a7a578051906001600160401b038211610fc157016101e081830312610a7a57604051916101e083018381106001600160401b0382111761432b576040526141c9826131bf565b83526141d7602083016131bf565b6020840152604082015160068110156104b95760408401526141fb606083016131cc565b606084015261420c608083016131cc565b608084015260a082015160a084015261422760c083016131bf565b60c084015260e08201516001600160401b0381116104b95782016060818303126104b9576040519061425882612db9565b80518252602081015160208301526040810151906001600160401b038211610520576142869184910161323d565b604082015260e08401526101008201516001600160401b0381116104b957906142b09183016131e0565b6101008301526142c361012082016131cc565b6101208301526101408101516101408301526101608101516005811015610fc15761431e916101c0916101608501526142ff61018082016131bf565b6101808501526143126101a082016131bf565b6101a0850152016131bf565b6101c08201529238613da2565b634e487b7160e01b87526041600452602487fd5b636aee863360e11b8352600483fd5b60609060208152601160208201527046696e616c697a6174696f6e506861736560781b60408201520190565b9190606490602060018060a01b036000541660405193848092631bae711d60e21b8252846004830152600f60248301526e436f6d6d697474696e67506861736560881b60448301525afa9182156146b9576000926146c5575b50608460009283604051916143e783612df0565b87835260208301948552336040808501918252606085019889525162dab60b60e71b8152935160048501529451602484015293516001600160a01b0390811660448401529551606483015290948593849291165af19081156146b95760009161458c575b50610120810151614538575b610100810151614515578051156145115760018060a01b0360a0820151166020820190837fc5dd23f5cc17858ca1e3d0f06cbcc78820753b0dd2fea89d03d0d842192c1531602084511515604051908152a3511515806144fb575b6144ba575050565b60e00151600f81101561319d5760207fb61dd9b213508bbd8e6c89d7c254d830e0ed7e8cd5bd4163a167a47b12e46e81916144f860405180926132af565ba2565b5060e0810151600f81101561319d5715156144b2565b5050565b604001516001600160a01b031690600080516020615b49833981519152600080a3565b61014081015161016082015160c08301516040519081526001600160a01b03918216929091169084907fb9adb9860846c6726d973e93f6d5994ba6aa797233e2d15851d42e9c68a5dd7290602090a4614457565b903d8082843e61459c8184612e27565b820191602081840312610f2e578051906001600160401b0382116106a0570190610180828403126101dd57604051926145d484612e0b565b6145dd836131bf565b84526145eb602084016131bf565b60208501526145fc604084016131cc565b604085015261460d606084016131cc565b606085015260808301516001600160401b0381116106a057906146319184016131e0565b608084015261464260a083016131cc565b60a084015260c082015160c084015260e082015190600f8210156101dd57506146ad916101609160e085015261467b61010082016131bf565b61010085015261468e61012082016131bf565b6101208501526146a161014082016131cc565b610140850152016131cc565b6101608201523861444b565b6040513d6000823e3d90fd5b91506020823d6020116146fc575b816146e060209383612e27565b81010312610bb45760846146f56000936131cc565b92506143d3565b3d91506146d3565b60409061472361472a94969593966060830197835260208301906132af565b01906132af565b565b60606020916040810193815260408382015284518094520192019060005b8181106147575750505090565b82516001600160a01b031684526020938401939092019160010161474a565b3d156147a1573d9061478782612e9f565b916147956040519384612e27565b82523d6000602084013e565b606090565b602061010060c060e085019380518652838101518487015260408101516040870152606081015160608701526080810151608087015260a081015160a087015201519360e060c082015284518094520192019060005b8181106148095750505090565b82518452602093840193909201916001016147fc565b9294939060809261483d91855260a0602086015260a08501906147a6565b6040840195909552600060608401526001600160a01b0316910152565b9190926064600094602060018060a01b0387541660405193848092631bae711d60e21b8252846004830152600f60248301526e41637469766174696f6e506861736560881b60448301525afa918215610ad05790869392918492614ba3575b50836148ec604051966148cb88612df0565b888852602088019360018060a01b0316845260408801953387523691612eba565b606087019081526040516320ffefc560e01b8152602060048201529651602488015291516001600160a01b0390811660448801529351909316606486015251608060848601528492839182906149469060a48301906130d1565b03926001600160a01b03165af1908115611b4a578391614a8f575b5060a0810151614a4e575b60208101516149b55780511561499f5761010001516001600160a01b031691600080516020615ac98339815191529080a3565b509080600080516020615a6983398151915291a2565b6040519183817f0a94f6cf3e473cb72e765b24d1365bfcbef8d31a73215bb27e50df39757f578a8280a3835460409092015173__$66ce50c11b4f8ca6e6decb43a984eadcfa$__926001600160a01b039182169116833b15610fc15784614a2f8194889694839463121ad92d60e21b855260048501613c2c565b03915af480156106a457614a41575050565b81614a4b91612e27565b50565b60c081015160e08201516001600160a01b039081169116837ff7861b60d3b514908b00c1461e500857f819123764586496fcddba2eb034c94c8680a461496c565b90503d8084833e614aa08183612e27565b81019060208183031261069c578051906001600160401b038211610a7a57016101208183031261069c576040519161012083018381106001600160401b03821117614b8f57604052614af1826131bf565b8352614aff602083016131bf565b6020840152614b10604083016131cc565b60408401526060820151606084015260808201516001600160401b038111610fc15791614b4561010092614b8394830161323d565b6080850152614b5660a082016131bf565b60a0850152614b6760c082016131cc565b60c0850152614b7860e082016131cc565b60e0850152016131cc565b61010082015238614961565b634e487b7160e01b86526041600452602486fd5b91509192506020813d602011614bdc575b81614bc160209383612e27565b81010312610fc15790614bd58693926131cc565b90386148b9565b3d9150614bb4565b9081610140910312610bb457600060405191614bff83612dd4565b614c08816131bf565b8352614c16602082016131cc565b60208401526040810151604084015260608101516060840152614c3b608082016131bf565b6080840152614c4c60a082016131bf565b60a0840152614c5d60c082016131bf565b60c0840152614c6e60e082016131bf565b60e0840152610100810151600f8110156106a057610100840152610120015190600f8210156101dd575061012082015290565b92614d39926101209260018060a01b03168552602085015280511515604085015260018060a01b03602082015116606085015260408101516080850152606081015160a08501526080810151151560c085015260a0810151151560e085015260c0810151151561010085015260e0810151151582850152614d2c6101008201516101408601906132af565b01516101608301906132af565b6101a0610180820152614d516101a082018351613bf5565b614d6460208301516101c08301906132a2565b614d7760408301516101e08301906132af565b614d8a60608301516102008301906132af565b60808201516001600160a01b0390811661022083015260a0830151811661024083015260c0830151811661026083015260e0830151166102808201526101008201516102a08201526101208201516102c08201526101408201516102e0808301919091526101608301516103008301526101808301516103208301526101a08301516103408301526101c08301516103608301526101e08301516103808301526102008301516103a0830191909152614e6590614e4c906104808401906130d1565b61022084015183820361019f19016103c08501526130d1565b916102408101519261019f19838203016103e08401526020808551928381520194019060005b818110614ec8575050506102c0816102606104609301516104008501526102808101516104208501526102a0810151610440850152015191015290565b9091946020606082614ef16001948a516040809180518452602081015160208501520151910152565b019601929101614e8b565b602081830312610bb4578051906001600160401b038211610bb457019060a082820312610bb4576040519160a083018381106001600160401b03821117612d5157604052614f49816131cc565b83526020810151602084015260408101516001600160401b038111610bb45782614f7491830161323d565b604084015260608101516001600160401b038111610bb457608092614f9a9183016131e0565b60608401520151608082015290565b600019811461355e5760010190565b6002600080516020615ae98339815191525414614fe3576002600080516020615ae983398151915255565b633ee5aeb560e01b60005260046000fd5b600054604051631bae711d60e21b8152602060048201819052600e60248301526d52657665616c696e67506861736560901b60448301529091829060649082906001600160a01b03165afa9081156146b95760009161505b575b506001600160a01b031690565b90506020813d60201161508d575b8161507660209383612e27565b81010312610bb457615087906131cc565b3861504e565b3d9150615069565b600080516020615aa9833981519152546001600160a01b031633036150b657565b63118cdaa760e01b6000523360045260246000fd5b600054604051631bae711d60e21b815260206004820181905260126024830152712a3930b739b0b1ba34b7b726b0b730b3b2b960711b60448301529091829060649082906001600160a01b03165afa9081156146b95760009161505b57506001600160a01b031690565b600054604051631bae711d60e21b8152602060048201819052600a6024830152692332b2a6b0b730b3b2b960b11b60448301529091829060649082906001600160a01b03165afa9081156146b95760009161505b57506001600160a01b031690565b600054604051631bae711d60e21b8152602060048201819052600d60248301526c49646c656e657373506861736560981b60448301529091829060649082906001600160a01b03165afa9081156146b95760009161505b57506001600160a01b031690565b73__$66ce50c11b4f8ca6e6decb43a984eadcfa$__919060005b81518110156152a55760005b602081106152335750600101615216565b6000546001600160a01b03908116919061524d8486613c02565b5116863b15610bb4576040519263121ad92d60e21b84526004840152602483015260006044830152600082606481895af49182156146b957600192615294575b5001615222565b600061529f91612e27565b3861528d565b50509050565b600054604051631bae711d60e21b8152602060048201819052600d60248301526c4372656174696f6e506861736560981b60448301529091829060649082906001600160a01b03165afa9081156146b95760009161505b57506001600160a01b031690565b600054604051631bae711d60e21b815260206004820181905260086024830152674d6573736167657360c01b60448301529091829060649082906001600160a01b03165afa9081156146b95760009161505b57506001600160a01b031690565b600080516020615b2983398151915280546001600160a01b0319908116909155600080516020615aa983398151915280549182166001600160a01b0393841690811790915591167f8be0079c531659141344cd1fd0a4f28419497f9722a3daafe3b4186f6b6457e0600080a3565b60006001600160a01b036153f06150cb565b169160246040518094819363255709e560e11b835260048301525afa9081156146b957600091615735575b50600054604051631bae711d60e21b8152602060048201819052600760248301526641707065616c7360c81b60448301529091829060649082906001600160a01b03165afa9081156146b9576000916156fb575b50604051809263bcf205f560e01b825260406004830152615494604483018251613bf5565b6154a6602082015160648401906132a2565b6154b8604082015160848401906132af565b6154ca606082015160a48401906132af565b60808101516001600160a01b0390811660c484015260a0820151811660e484015260c0820151811661010484015260e0820151166101248301526101008101516101448301526101208101516101648301526101408101516101848301526101608101516101a48301526101808101516101c48301526101a08101516101e48301526101c08101516102048301526101e08101516102248301526102008101516102e061024484015261559e90615586906103248501906130d1565b610220830151848203604319016102648601526130d1565b9061024081015191604319848203016102848501526020808451928381520193019060005b8181106156c1575050506102608101516102a48401526102808101516102c48401526102a08101516102e48401526102c001516103048301523460248301526000929082900390829084906001600160a01b03165af180156146b9576000918291839184918591869161563a575b50909192939495565b959450505050503d8082843e6156508184612e27565b820160e083820312610f2e5782516001600160401b0381116106a0579061567891840161323d565b60208301519261568a604082016131cc565b92615697608083016131bf565b9260a083015192600f8410156106a05760c0015191600f8310156101dd5750949392919038615631565b919450919260206060826156ec60019489516040809180518452602081015160208501520151910152565b019501910191869493926155c3565b90506020813d60201161572d575b8161571660209383612e27565b81010312610bb457615727906131cc565b3861546f565b3d9150615709565b615748913d8091833e6105478183612e27565b3861541b565b600054604051631bae711d60e21b81529060209082906001600160a01b0316818061577b6004820161434e565b03915afa9081156146b95760009161505b57506001600160a01b031690565b926020830193845193600080955b606083015180518810156157d5576001916157c6896157cd93613c02565b5190613551565b9601956157a8565b5095509193959092958515615a325760c001516001600160a01b0316803b156106a057604051635b8346e560e11b8152306004820152602481018790529083908290604490829084905af19081615a1e575b5061584b57505050604051918252600080516020615a8983398151915260203093a3565b909291935082815180151580615a0b575b61597f575b5090505b60408401908151518110156159785760019183826060880192615889828551613c02565b5115158061595d575b6158a1575b5050505001615865565b87808080898060a01b036158b6878751613c02565b51166158c3878a51613c02565b51905af16158cf614776565b5015615929576159178260209261590e7f206a81949fa2f9dad3979f1ad9e02868fb17baca136a76760ed851e8e659e49e958a8060a01b039251613c02565b51169551613c02565b51604051908152a35b38838282615897565b6159508260209261590e600080516020615a89833981519152958a8060a01b039251613c02565b51604051908152a3615920565b50858060a01b0361596f838351613c02565b51161515615892565b5050505050565b8551829182918291906001600160a01b03165af161599b614776565b50156159e157817ff5c9499466599a9c201c4b00cfd411510fccee310767d6b1c549cd651fdcac02602060018060a01b038751169351604051908152a35b388281615861565b81600080516020615a89833981519152602060018060a01b038751169351604051908152a36159d9565b5085516001600160a01b0316151561585c565b83615a2b91949294612e27565b9138615827565b505050505050565b60ff600080516020615b098339815191525460401c1615615a5757565b631afcd79f60e31b60005260046000fdfeb9f69df2250e1788b862d0715b1dad98b2a50311c017ebb71f6cd83de656b06dd7d0ee861c0ebf42599b922e8f4ad0cafed951841610157bcd56110f49ced8ee9016d09d72d40fdae2fd8ceac6b6234c7706214fd39c1cd1e609a0528c1993001081f7638e5a02d916250da410b76a0821bdb2b09c574c0f237830409c37d0c89b779b17422d0df92223018b32b4d1fa46e071723d6817e2486d003becc55f00f0c57e16840df040f15088dc2f81fe391c3923bec73e23a9662efc9c229c6a00237e158222e3e6968b72b9db0d8043aacf074ad9f650f0d1606b4d82ee432c0042dd93d103ec25ce3ac597cec3f3aa55b91b52ffa90a04f9e14545f4543e7c48a2646970667358221220d0b9d55ebdbb7b3812000e180e077d3690c738bc608e8dee3f2e9db488d2d2d864736f6c634300081c0033",
  "linkReferences": {
    "contracts/utils/ConsensusHelpers.sol": {
      "ConsensusHelpers": [
        {
          "length": 20,
          "start": 750
        },
        {
          "length": 20,
          "start": 4431
        },
        {
          "length": 20,
          "start": 5609
        },
        {
          "length": 20,
          "start": 7709
        },
        {
          "length": 20,
          "start": 11075
        },
        {
          "length": 20,
          "start": 14441
        },
        {
          "length": 20,
          "start": 16533
        },
        {
          "length": 20,
          "start": 16665
        },
        {
          "length": 20,
          "start": 19137
        },
        {
          "length": 20,
          "start": 21206
        }
      ]
    }
  },
  "deployedLinkReferences": {
    "contracts/utils/ConsensusHelpers.sol": {
      "ConsensusHelpers": [
        {
          "length": 20,
          "start": 534
        },
        {
          "length": 20,
          "start": 4215
        },
        {
          "length": 20,
          "start": 5393
        },
        {
          "length": 20,
          "start": 7493
        },
        {
          "length": 20,
          "start": 10859
        },
        {
          "length": 20,
          "start": 14225
        },
        {
          "length": 20,
          "start": 16317
        },
        {
          "length": 20,
          "start": 16449
        },
        {
          "length": 20,
          "start": 18921
        },
        {
          "length": 20,
          "start": 20990
        }
      ]
    }
  }
}