{
  "_format": "hh-sol-artifact-1",
  "contractName": "MockMessages",
  "sourceName": "contracts/test/MockMessages.sol",
  "abi": [
    {
      "inputs": [],
      "name": "AccessControlBadConfirmation",
      "type": "error"
    },
    {
      "inputs": [
        {
          "internalType": "address",
          "name": "account",
          "type": "address"
        },
        {
          "internalType": "bytes32",
          "name": "neededRole",
          "type": "bytes32"
        }
      ],
      "name": "AccessControlUnauthorizedAccount",
      "type": "error"
    },
    {
      "inputs": [],
      "name": "CallerNotConsensus",
      "type": "error"
    },
    {
      "inputs": [],
      "name": "InvalidInitialization",
      "type": "error"
    },
    {
      "inputs": [],
      "name": "NotInitializing",
      "type": "error"
    },
    {
      "inputs": [],
      "name": "NumOfMessagesIssuedTooHigh",
      "type": "error"
    },
    {
      "inputs": [
        {
          "internalType": "address",
          "name": "owner",
          "type": "address"
        }
      ],
      "name": "OwnableInvalidOwner",
      "type": "error"
    },
    {
      "inputs": [
        {
          "internalType": "address",
          "name": "account",
          "type": "address"
        }
      ],
      "name": "OwnableUnauthorizedAccount",
      "type": "error"
    },
    {
      "inputs": [],
      "name": "ReentrancyGuardReentrantCall",
      "type": "error"
    },
    {
      "anonymous": false,
      "inputs": [
        {
          "indexed": true,
          "internalType": "address",
          "name": "genConsensus",
          "type": "address"
        }
      ],
      "name": "GenConsensusSet",
      "type": "event"
    },
    {
      "anonymous": false,
      "inputs": [
        {
          "indexed": true,
          "internalType": "address",
          "name": "genManager",
          "type": "address"
        }
      ],
      "name": "GenManagerSet",
      "type": "event"
    },
    {
      "anonymous": false,
      "inputs": [
        {
          "indexed": true,
          "internalType": "address",
          "name": "genTransactions",
          "type": "address"
        }
      ],
      "name": "GenTransactionsSet",
      "type": "event"
    },
    {
      "anonymous": false,
      "inputs": [
        {
          "indexed": false,
          "internalType": "uint64",
          "name": "version",
          "type": "uint64"
        }
      ],
      "name": "Initialized",
      "type": "event"
    },
    {
      "anonymous": false,
      "inputs": [
        {
          "indexed": true,
          "internalType": "uint256",
          "name": "maxAllocatedMessages",
          "type": "uint256"
        }
      ],
      "name": "MaxAllocatedMessagesSet",
      "type": "event"
    },
    {
      "anonymous": false,
      "inputs": [
        {
          "indexed": true,
          "internalType": "bytes32",
          "name": "txId",
          "type": "bytes32"
        },
        {
          "indexed": true,
          "internalType": "bytes32",
          "name": "msgId",
          "type": "bytes32"
        },
        {
          "indexed": false,
          "internalType": "bytes",
          "name": "reason",
          "type": "bytes"
        }
      ],
      "name": "MessageExternalError",
      "type": "event"
    },
    {
      "anonymous": false,
      "inputs": [
        {
          "indexed": true,
          "internalType": "bytes32",
          "name": "txId",
          "type": "bytes32"
        },
        {
          "indexed": true,
          "internalType": "bytes32",
          "name": "msgId",
          "type": "bytes32"
        },
        {
          "indexed": false,
          "internalType": "uint256",
          "name": "gasRemaining",
          "type": "uint256"
        }
      ],
      "name": "MessageExternalOutOfGas",
      "type": "event"
    },
    {
      "anonymous": false,
      "inputs": [
        {
          "indexed": true,
          "internalType": "bytes32",
          "name": "tx_id",
          "type": "bytes32"
        },
        {
          "indexed": true,
          "internalType": "bytes32",
          "name": "msgId",
          "type": "bytes32"
        }
      ],
      "name": "MessagesOnAcceptance",
      "type": "event"
    },
    {
      "anonymous": false,
      "inputs": [
        {
          "indexed": true,
          "internalType": "bytes32",
          "name": "tx_id",
          "type": "bytes32"
        },
        {
          "indexed": true,
          "internalType": "bytes32",
          "name": "msgId",
          "type": "bytes32"
        }
      ],
      "name": "MessagesOnFinalization",
      "type": "event"
    },
    {
      "anonymous": false,
      "inputs": [
        {
          "indexed": true,
          "internalType": "uint256",
          "name": "minGasPerMessage",
          "type": "uint256"
        }
      ],
      "name": "MinGasPerMessageSet",
      "type": "event"
    },
    {
      "anonymous": false,
      "inputs": [
        {
          "indexed": true,
          "internalType": "uint256",
          "name": "minGasToCatchAndHandle",
          "type": "uint256"
        }
      ],
      "name": "MinGasToCatchAndHandleSet",
      "type": "event"
    },
    {
      "anonymous": false,
      "inputs": [
        {
          "indexed": true,
          "internalType": "address",
          "name": "previousOwner",
          "type": "address"
        },
        {
          "indexed": true,
          "internalType": "address",
          "name": "newOwner",
          "type": "address"
        }
      ],
      "name": "OwnershipTransferStarted",
      "type": "event"
    },
    {
      "anonymous": false,
      "inputs": [
        {
          "indexed": true,
          "internalType": "address",
          "name": "previousOwner",
          "type": "address"
        },
        {
          "indexed": true,
          "internalType": "address",
          "name": "newOwner",
          "type": "address"
        }
      ],
      "name": "OwnershipTransferred",
      "type": "event"
    },
    {
      "anonymous": false,
      "inputs": [
        {
          "indexed": true,
          "internalType": "bytes32",
          "name": "role",
          "type": "bytes32"
        },
        {
          "indexed": true,
          "internalType": "bytes32",
          "name": "previousAdminRole",
          "type": "bytes32"
        },
        {
          "indexed": true,
          "internalType": "bytes32",
          "name": "newAdminRole",
          "type": "bytes32"
        }
      ],
      "name": "RoleAdminChanged",
      "type": "event"
    },
    {
      "anonymous": false,
      "inputs": [
        {
          "indexed": true,
          "internalType": "bytes32",
          "name": "role",
          "type": "bytes32"
        },
        {
          "indexed": true,
          "internalType": "address",
          "name": "account",
          "type": "address"
        },
        {
          "indexed": true,
          "internalType": "address",
          "name": "sender",
          "type": "address"
        }
      ],
      "name": "RoleGranted",
      "type": "event"
    },
    {
      "anonymous": false,
      "inputs": [
        {
          "indexed": true,
          "internalType": "bytes32",
          "name": "role",
          "type": "bytes32"
        },
        {
          "indexed": true,
          "internalType": "address",
          "name": "account",
          "type": "address"
        },
        {
          "indexed": true,
          "internalType": "address",
          "name": "sender",
          "type": "address"
        }
      ],
      "name": "RoleRevoked",
      "type": "event"
    },
    {
      "inputs": [],
      "name": "DEFAULT_ADMIN_ROLE",
      "outputs": [
        {
          "internalType": "bytes32",
          "name": "",
          "type": "bytes32"
        }
      ],
      "stateMutability": "view",
      "type": "function"
    },
    {
      "inputs": [],
      "name": "acceptOwnership",
      "outputs": [],
      "stateMutability": "nonpayable",
      "type": "function"
    },
    {
      "inputs": [
        {
          "internalType": "bytes32",
          "name": "_txId",
          "type": "bytes32"
        },
        {
          "internalType": "address",
          "name": "_ghostAddress",
          "type": "address"
        }
      ],
      "name": "flushExternalMessages",
      "outputs": [],
      "stateMutability": "nonpayable",
      "type": "function"
    },
    {
      "inputs": [],
      "name": "genConsensus",
      "outputs": [
        {
          "internalType": "contract IGenConsensus",
          "name": "",
          "type": "address"
        }
      ],
      "stateMutability": "view",
      "type": "function"
    },
    {
      "inputs": [],
      "name": "genManager",
      "outputs": [
        {
          "internalType": "contract IGenManager",
          "name": "",
          "type": "address"
        }
      ],
      "stateMutability": "view",
      "type": "function"
    },
    {
      "inputs": [],
      "name": "genTransactions",
      "outputs": [
        {
          "internalType": "contract ITransactions",
          "name": "",
          "type": "address"
        }
      ],
      "stateMutability": "view",
      "type": "function"
    },
    {
      "inputs": [
        {
          "internalType": "bytes32",
          "name": "_txId",
          "type": "bytes32"
        }
      ],
      "name": "getAllMessagesForTransaction",
      "outputs": [
        {
          "components": [
            {
              "internalType": "enum IMessages.MessageType",
              "name": "messageType",
              "type": "uint8"
            },
            {
              "internalType": "address",
              "name": "recipient",
              "type": "address"
            },
            {
              "internalType": "uint256",
              "name": "value",
              "type": "uint256"
            },
            {
              "internalType": "bytes",
              "name": "data",
              "type": "bytes"
            },
            {
              "internalType": "bool",
              "name": "onAcceptance",
              "type": "bool"
            },
            {
              "internalType": "uint256",
              "name": "saltNonce",
              "type": "uint256"
            }
          ],
          "internalType": "struct IMessages.SubmittedMessage[]",
          "name": "messages",
          "type": "tuple[]"
        }
      ],
      "stateMutability": "view",
      "type": "function"
    },
    {
      "inputs": [
        {
          "internalType": "bytes32",
          "name": "role",
          "type": "bytes32"
        }
      ],
      "name": "getRoleAdmin",
      "outputs": [
        {
          "internalType": "bytes32",
          "name": "",
          "type": "bytes32"
        }
      ],
      "stateMutability": "view",
      "type": "function"
    },
    {
      "inputs": [
        {
          "internalType": "address",
          "name": "ghost",
          "type": "address"
        }
      ],
      "name": "ghostNonce",
      "outputs": [
        {
          "internalType": "uint256",
          "name": "nonce",
          "type": "uint256"
        }
      ],
      "stateMutability": "view",
      "type": "function"
    },
    {
      "inputs": [
        {
          "internalType": "bytes32",
          "name": "role",
          "type": "bytes32"
        },
        {
          "internalType": "address",
          "name": "account",
          "type": "address"
        }
      ],
      "name": "grantRole",
      "outputs": [],
      "stateMutability": "nonpayable",
      "type": "function"
    },
    {
      "inputs": [
        {
          "internalType": "bytes32",
          "name": "_txId",
          "type": "bytes32"
        }
      ],
      "name": "hasExternalMessagesNotIssued",
      "outputs": [
        {
          "internalType": "bool",
          "name": "",
          "type": "bool"
        }
      ],
      "stateMutability": "view",
      "type": "function"
    },
    {
      "inputs": [
        {
          "internalType": "bytes32",
          "name": "_txId",
          "type": "bytes32"
        }
      ],
      "name": "hasMessagesOnAcceptance",
      "outputs": [
        {
          "internalType": "bool",
          "name": "",
          "type": "bool"
        }
      ],
      "stateMutability": "view",
      "type": "function"
    },
    {
      "inputs": [
        {
          "internalType": "bytes32",
          "name": "_txId",
          "type": "bytes32"
        }
      ],
      "name": "hasMessagesOnFinalization",
      "outputs": [
        {
          "internalType": "bool",
          "name": "",
          "type": "bool"
        }
      ],
      "stateMutability": "view",
      "type": "function"
    },
    {
      "inputs": [
        {
          "internalType": "bytes32",
          "name": "role",
          "type": "bytes32"
        },
        {
          "internalType": "address",
          "name": "account",
          "type": "address"
        }
      ],
      "name": "hasRole",
      "outputs": [
        {
          "internalType": "bool",
          "name": "",
          "type": "bool"
        }
      ],
      "stateMutability": "view",
      "type": "function"
    },
    {
      "inputs": [
        {
          "internalType": "address",
          "name": "_genManager",
          "type": "address"
        },
        {
          "internalType": "address",
          "name": "_genConsensus",
          "type": "address"
        },
        {
          "internalType": "address",
          "name": "_genTransactions",
          "type": "address"
        },
        {
          "internalType": "uint256",
          "name": "_maxAllocatedMessages",
          "type": "uint256"
        }
      ],
      "name": "initialize",
      "outputs": [],
      "stateMutability": "nonpayable",
      "type": "function"
    },
    {
      "inputs": [
        {
          "internalType": "bytes32",
          "name": "",
          "type": "bytes32"
        },
        {
          "internalType": "uint256",
          "name": "",
          "type": "uint256"
        }
      ],
      "name": "isMessageIssued",
      "outputs": [
        {
          "internalType": "bool",
          "name": "",
          "type": "bool"
        }
      ],
      "stateMutability": "view",
      "type": "function"
    },
    {
      "inputs": [
        {
          "internalType": "bytes32",
          "name": "",
          "type": "bytes32"
        }
      ],
      "name": "issuedMessagesOnAcceptance",
      "outputs": [
        {
          "internalType": "uint256",
          "name": "",
          "type": "uint256"
        }
      ],
      "stateMutability": "view",
      "type": "function"
    },
    {
      "inputs": [
        {
          "internalType": "bytes32",
          "name": "",
          "type": "bytes32"
        }
      ],
      "name": "issuedMessagesOnFinalization",
      "outputs": [
        {
          "internalType": "uint256",
          "name": "",
          "type": "uint256"
        }
      ],
      "stateMutability": "view",
      "type": "function"
    },
    {
      "inputs": [],
      "name": "maxAllocatedMessages",
      "outputs": [
        {
          "internalType": "uint256",
          "name": "",
          "type": "uint256"
        }
      ],
      "stateMutability": "view",
      "type": "function"
    },
    {
      "inputs": [
        {
          "internalType": "bytes32",
          "name": "",
          "type": "bytes32"
        },
        {
          "internalType": "uint256",
          "name": "",
          "type": "uint256"
        }
      ],
      "name": "messagesForTransaction",
      "outputs": [
        {
          "internalType": "enum IMessages.MessageType",
          "name": "messageType",
          "type": "uint8"
        },
        {
          "internalType": "address",
          "name": "recipient",
          "type": "address"
        },
        {
          "internalType": "uint256",
          "name": "value",
          "type": "uint256"
        },
        {
          "internalType": "bytes",
          "name": "data",
          "type": "bytes"
        },
        {
          "internalType": "bool",
          "name": "onAcceptance",
          "type": "bool"
        },
        {
          "internalType": "uint256",
          "name": "saltNonce",
          "type": "uint256"
        }
      ],
      "stateMutability": "view",
      "type": "function"
    },
    {
      "inputs": [],
      "name": "minGasPerMessage",
      "outputs": [
        {
          "internalType": "uint256",
          "name": "",
          "type": "uint256"
        }
      ],
      "stateMutability": "view",
      "type": "function"
    },
    {
      "inputs": [],
      "name": "minGasToCatchAndHandle",
      "outputs": [
        {
          "internalType": "uint256",
          "name": "",
          "type": "uint256"
        }
      ],
      "stateMutability": "view",
      "type": "function"
    },
    {
      "inputs": [
        {
          "internalType": "bytes32",
          "name": "_txId",
          "type": "bytes32"
        }
      ],
      "name": "numOfMessagesIssuedOnAcceptance",
      "outputs": [
        {
          "internalType": "uint256",
          "name": "",
          "type": "uint256"
        }
      ],
      "stateMutability": "view",
      "type": "function"
    },
    {
      "inputs": [
        {
          "internalType": "bytes32",
          "name": "_txId",
          "type": "bytes32"
        }
      ],
      "name": "numOfMessagesIssuedOnFinalization",
      "outputs": [
        {
          "internalType": "uint256",
          "name": "",
          "type": "uint256"
        }
      ],
      "stateMutability": "view",
      "type": "function"
    },
    {
      "inputs": [],
      "name": "owner",
      "outputs": [
        {
          "internalType": "address",
          "name": "",
          "type": "address"
        }
      ],
      "stateMutability": "view",
      "type": "function"
    },
    {
      "inputs": [],
      "name": "pendingOwner",
      "outputs": [
        {
          "internalType": "address",
          "name": "",
          "type": "address"
        }
      ],
      "stateMutability": "view",
      "type": "function"
    },
    {
      "inputs": [
        {
          "internalType": "bytes32",
          "name": "_txId",
          "type": "bytes32"
        },
        {
          "internalType": "address",
          "name": "_ghostAddress",
          "type": "address"
        }
      ],
      "name": "processMessagesOnAcceptance",
      "outputs": [
        {
          "components": [
            {
              "internalType": "enum IMessages.MessageType",
              "name": "messageType",
              "type": "uint8"
            },
            {
              "internalType": "address",
              "name": "recipient",
              "type": "address"
            },
            {
              "internalType": "uint256",
              "name": "value",
              "type": "uint256"
            },
            {
              "internalType": "bytes",
              "name": "data",
              "type": "bytes"
            },
            {
              "internalType": "bool",
              "name": "onAcceptance",
              "type": "bool"
            },
            {
              "internalType": "uint256",
              "name": "saltNonce",
              "type": "uint256"
            }
          ],
          "internalType": "struct IMessages.SubmittedMessage[]",
          "name": "internalMessages",
          "type": "tuple[]"
        }
      ],
      "stateMutability": "nonpayable",
      "type": "function"
    },
    {
      "inputs": [
        {
          "internalType": "bytes32",
          "name": "_txId",
          "type": "bytes32"
        },
        {
          "internalType": "address",
          "name": "_ghostAddress",
          "type": "address"
        }
      ],
      "name": "processMessagesOnFinalization",
      "outputs": [
        {
          "components": [
            {
              "internalType": "enum IMessages.MessageType",
              "name": "messageType",
              "type": "uint8"
            },
            {
              "internalType": "address",
              "name": "recipient",
              "type": "address"
            },
            {
              "internalType": "uint256",
              "name": "value",
              "type": "uint256"
            },
            {
              "internalType": "bytes",
              "name": "data",
              "type": "bytes"
            },
            {
              "internalType": "bool",
              "name": "onAcceptance",
              "type": "bool"
            },
            {
              "internalType": "uint256",
              "name": "saltNonce",
              "type": "uint256"
            }
          ],
          "internalType": "struct IMessages.SubmittedMessage[]",
          "name": "internalMessages",
          "type": "tuple[]"
        }
      ],
      "stateMutability": "nonpayable",
      "type": "function"
    },
    {
      "inputs": [],
      "name": "renounceOwnership",
      "outputs": [],
      "stateMutability": "nonpayable",
      "type": "function"
    },
    {
      "inputs": [
        {
          "internalType": "bytes32",
          "name": "role",
          "type": "bytes32"
        },
        {
          "internalType": "address",
          "name": "callerConfirmation",
          "type": "address"
        }
      ],
      "name": "renounceRole",
      "outputs": [],
      "stateMutability": "nonpayable",
      "type": "function"
    },
    {
      "inputs": [
        {
          "internalType": "bytes32",
          "name": "role",
          "type": "bytes32"
        },
        {
          "internalType": "address",
          "name": "account",
          "type": "address"
        }
      ],
      "name": "revokeRole",
      "outputs": [],
      "stateMutability": "nonpayable",
      "type": "function"
    },
    {
      "inputs": [
        {
          "internalType": "address",
          "name": "_genConsensus",
          "type": "address"
        }
      ],
      "name": "setGenConsensus",
      "outputs": [],
      "stateMutability": "nonpayable",
      "type": "function"
    },
    {
      "inputs": [
        {
          "internalType": "address",
          "name": "_genManager",
          "type": "address"
        }
      ],
      "name": "setGenManager",
      "outputs": [],
      "stateMutability": "nonpayable",
      "type": "function"
    },
    {
      "inputs": [
        {
          "internalType": "address",
          "name": "_genTransactions",
          "type": "address"
        }
      ],
      "name": "setGenTransactions",
      "outputs": [],
      "stateMutability": "nonpayable",
      "type": "function"
    },
    {
      "inputs": [
        {
          "internalType": "uint256",
          "name": "_maxAllocatedMessages",
          "type": "uint256"
        }
      ],
      "name": "setMaxAllocatedMessages",
      "outputs": [],
      "stateMutability": "nonpayable",
      "type": "function"
    },
    {
      "inputs": [
        {
          "internalType": "uint256",
          "name": "_minGasPerMessage",
          "type": "uint256"
        }
      ],
      "name": "setMinGasPerMessage",
      "outputs": [],
      "stateMutability": "nonpayable",
      "type": "function"
    },
    {
      "inputs": [
        {
          "internalType": "uint256",
          "name": "_minGasToCatchAndHandle",
          "type": "uint256"
        }
      ],
      "name": "setMinGasToCatchAndHandle",
      "outputs": [],
      "stateMutability": "nonpayable",
      "type": "function"
    },
    {
      "inputs": [
        {
          "internalType": "uint256",
          "name": "_gas",
          "type": "uint256"
        },
        {
          "internalType": "uint256",
          "name": "_decreasePerCall",
          "type": "uint256"
        }
      ],
      "name": "setMockGasLeft",
      "outputs": [],
      "stateMutability": "nonpayable",
      "type": "function"
    },
    {
      "inputs": [
        {
          "internalType": "bytes32",
          "name": "_txId",
          "type": "bytes32"
        },
        {
          "components": [
            {
              "internalType": "enum IMessages.MessageType",
              "name": "messageType",
              "type": "uint8"
            },
            {
              "internalType": "address",
              "name": "recipient",
              "type": "address"
            },
            {
              "internalType": "uint256",
              "name": "value",
              "type": "uint256"
            },
            {
              "internalType": "bytes",
              "name": "data",
              "type": "bytes"
            },
            {
              "internalType": "bool",
              "name": "onAcceptance",
              "type": "bool"
            },
            {
              "internalType": "uint256",
              "name": "saltNonce",
              "type": "uint256"
            }
          ],
          "internalType": "struct IMessages.SubmittedMessage[]",
          "name": "_messages",
          "type": "tuple[]"
        }
      ],
      "name": "storeMessagesForTransaction",
      "outputs": [],
      "stateMutability": "nonpayable",
      "type": "function"
    },
    {
      "inputs": [
        {
          "internalType": "bytes4",
          "name": "interfaceId",
          "type": "bytes4"
        }
      ],
      "name": "supportsInterface",
      "outputs": [
        {
          "internalType": "bool",
          "name": "",
          "type": "bool"
        }
      ],
      "stateMutability": "view",
      "type": "function"
    },
    {
      "inputs": [
        {
          "internalType": "address",
          "name": "newOwner",
          "type": "address"
        }
      ],
      "name": "transferOwnership",
      "outputs": [],
      "stateMutability": "nonpayable",
      "type": "function"
    },
    {
      "inputs": [
        {
          "internalType": "bytes32",
          "name": "",
          "type": "bytes32"
        }
      ],
      "name": "txHasMessagesOnAcceptance",
      "outputs": [
        {
          "internalType": "bool",
          "name": "",
          "type": "bool"
        }
      ],
      "stateMutability": "view",
      "type": "function"
    },
    {
      "inputs": [
        {
          "internalType": "bytes32",
          "name": "",
          "type": "bytes32"
        }
      ],
      "name": "txHasMessagesOnFinalization",
      "outputs": [
        {
          "internalType": "bool",
          "name": "",
          "type": "bool"
        }
      ],
      "stateMutability": "view",
      "type": "function"
    },
    {
      "inputs": [
        {
          "internalType": "bytes32",
          "name": "_txId",
          "type": "bytes32"
        },
        {
          "internalType": "uint256",
          "name": "_numOfMessagesIssued",
          "type": "uint256"
        },
        {
          "internalType": "bool",
          "name": "_isAcceptance",
          "type": "bool"
        }
      ],
      "name": "updateNumOfMessagesIssued",
      "outputs": [],
      "stateMutability": "nonpayable",
      "type": "function"
    },
    {
      "stateMutability": "payable",
      "type": "receive"
    }
  ],
  "bytecode": "0x608080604052346015576121d2908161001b8239f35b600080fdfe608080604052600436101561001d575b50361561001b57600080fd5b005b60003560e01c90816301ffc9a7146112555750806302fae85d1461122d5780631444d2e2146111e6578063182b304e14611165578063248a9ca31461113f57806325e668851461110557806326f20af0146110dc5780632f2ff15d146110ab57806336568abe1461106557806338444e051461102e578063390dff9414610fc7578063404f7db714610c615780634154427714610f9e57806342b8bfbf14610ac55780634af6b23f14610f0a5780634fbd51fe14610eec5780635454a18f14610eb25780635c46384814610b7957806361c53f3d14610e685780636221578814610db9578063629fcfe614610d9b578063715018a614610d1a578063731134d914610ce257806379ba509714610c925780637bd9024d14610c615780638da5cb5b14610c2b5780638e9f1cd014610bff57806391d1485414610ba55780639549390d14610b7957806395f661a714610b12578063a217fddf14610af6578063a2fd1129146102c0578063aa14aa7314610ac5578063aa2cbb2b14610aa7578063b9899c7c1461067c578063bf67fb1114610635578063cf756fdf14610408578063d547741f146103d2578063ddfa7f11146103a9578063e30c397814610373578063f2fde38b146102ec578063f4b001cb146102c0578063fd85f3e81461025a5763ff24908b1461020e573861000f565b346102555760203660031901126102555760043561022a611c0c565b806003557f793474085a3b2169e01d60d064f31a4165fd3f26b4985be48ca89f73ccc3ed3c600080a2005b600080fd5b34610255576020366003190112610255576102736113b7565b61027b611c0c565b600080546001600160a01b0319166001600160a01b039290921691821781557f36d4b817485e75c7dfbdd148270612adf09f2bb2515f0aa37612bc86011201b19080a2005b3461025557602036600319011261025557600435600052600c6020526020604060002054604051908152f35b34610255576020366003190112610255576103056113b7565b61030d611c0c565b60008051602061217d83398151915280546001600160a01b0319166001600160a01b0392831690811790915560008051602061211d833981519152549091167f38d16b8cac22d99fc7c124b9cd0de2d3fa1faef420bfe791d8c362d765e22700600080a3005b346102555760003660031901126102555760008051602061217d833981519152546040516001600160a01b039091168152602090f35b34610255576000366003190112610255576000546040516001600160a01b039091168152602090f35b346102555760403660031901126102555761001b6004356103f16113cd565b906104036103fe82611628565b611c2d565b611d20565b34610255576080366003190112610255576104216113b7565b6104296113cd565b906044356001600160a01b03811690819003610255576064359160008051602061215d833981519152549360ff8560401c1615946001600160401b0381168015908161062d575b6001149081610623575b15908161061a575b506106095767ffffffffffffffff19811660011760008051602061215d83398151915255856105dc575b506104b56120ee565b6104bd6120ee565b33156105c6576104cc3361204b565b6104d46120ee565b6104dc6120ee565b6104e46120ee565b60017f9b779b17422d0df92223018b32b4d1fa46e071723d6817e2486d003becc55f00556105106120ee565b600180546001600160a01b03199081166001600160a01b0393841617909155600280548216939092169290921790556000805490911691909117905580156105be575b600355620aae60600455620186a060055561056a57005b60ff60401b1960008051602061215d833981519152541660008051602061215d833981519152557fc7f505b2f371ae2175ee4913f4499e1f2633a7b5936321eed1cdaeb6115181d2602060405160018152a1005b506014610553565b631e4fbdf760e01b600052600060045260246000fd5b68ffffffffffffffffff1916680100000000000000011760008051602061215d83398151915255856104ac565b63f92ee8a960e01b60005260046000fd5b90501587610482565b303b15915061047a565b879150610470565b3461025557602036600319011261025557600435610651611c0c565b806004557f7d17c3883cb42fae97c4cf9018f8584b90230610fc305ca7cc3c64e67bf0d86c600080a2005b34610255576040366003190112610255576024356004356001600160401b0382116102555736602383011215610255578160040135906001600160401b03821161025557602483013660248460051b86010111610255576001546001600160a01b03163303610a96576000926000805b8281101561075157600095610714608061070e60248560051b8c010188611bd3565b01611be8565b156107425750600190604082975b87815260086020528181208382526020522060ff198154169055016106ec565b95915060019060408293610722565b50610799849161077a8784600052600960205260406000209060ff801983541691151516179055565b82600052600a60205260406000209060ff801983541691151516179055565b6000526007602052604060002091600160401b8211610a805782548284558083106109b6575b506000928352602083209290805b8383106107d657005b6107e08183611bd3565b803560028110156102555786546000919060208401356001600160a01b03811681036109b257610100600160a81b0360089190911b1660ff929092166001600160a81b031991909116171787556040820135600188015560028701906060830135601e1936859003018112156109ae578301908135916001600160401b0383116109ae5782360360208201136109ae5761087a845461142b565b601f8111610973575b508190601f841160011461090157938360019794846005989460209860a097936108f4575b505050600019600383901b1c191690881b1790555b6108e16108cc60808301611be8565b60038c019060ff801983541691151516179055565b01356004890155019501920191936107cd565b0188013591508e806108a8565b90601f19841685845260208420935b81811061095957508460a094600598946020989460019b988c951061093d575b505050811b0190556108bd565b01880135600019600384901b60f8161c191690558d8080610930565b919360206001819282888801013581550195019201610910565b61099e9085845260208420601f860160051c810191602087106109a4575b601f0160051c0190611bf5565b8a610883565b9091508190610991565b5080fd5b8380fd5b80600502906005820403610a6a5782600502600581048403610a6a5784600052602060002091820191015b8181106109ee57506107bf565b806000600592556000600182015560028101610a0a815461142b565b9081610a27575b50506000600382015560006004820155016109e1565b81601f60009311600114610a3f5750555b8680610a11565b81835260208320610a5a91601f01861c810190600101611bf5565b8082528160208120915555610a38565b634e487b7160e01b600052601160045260246000fd5b634e487b7160e01b600052604160045260246000fd5b634782018760e01b60005260046000fd5b34610255576000366003190112610255576020600354604051908152f35b3461025557602036600319011261025557600435600052600a602052602060ff604060002054166040519015158152f35b3461025557600036600319011261025557602060405160008152f35b3461025557602036600319011261025557610b2b6113b7565b610b33611c0c565b600280546001600160a01b0319166001600160a01b039290921691821790557f117fe844b219100c9507f8cf3f99af5402ba25dc7c30bdc0cc37dcae23ec24c7600080a2005b3461025557602036600319011261025557600435600052600b6020526020604060002054604051908152f35b3461025557604036600319011261025557610bbe6113cd565b60043560005260008051602061213d83398151915260205260406000209060018060a01b0316600052602052602060ff604060002054166040519015158152f35b3461025557604036600319011261025557600d805460ff19166001179055600435600e55602435600f55005b346102555760003660031901126102555760008051602061211d833981519152546040516001600160a01b039091168152602090f35b34610255576020366003190112610255576004356000526009602052602060ff604060002054166040519015158152f35b346102555760003660031901126102555760008051602061217d83398151915254336001600160a01b0390911603610ccd5761001b3361204b565b63118cdaa760e01b6000523360045260246000fd5b3461025557610cf0366113e3565b906000526008602052604060002090600052602052602060ff604060002054166040519015158152f35b3461025557600036600319011261025557610d33611c0c565b60008051602061217d83398151915280546001600160a01b031990811690915560008051602061211d833981519152805491821690556000906001600160a01b03167f8be0079c531659141344cd1fd0a4f28419497f9722a3daafe3b4186f6b6457e08280a3005b34610255576000366003190112610255576020600454604051908152f35b3461025557610dc7366113e3565b906000526007602052604060002090815481101561025557610de8916113f9565b508054600182015491604051610e0c81610e058160028601611465565b0382611503565b610e57600460ff600385015416930154916040519585610e308860ff8199166112a8565b60081c6001600160a01b03166020870152604086015260c0606086018190528501906112cb565b911515608084015260a08301520390f35b3461025557604036600319011261025557610e816113cd565b6001546001600160a01b03163303610a9657610ea2610eae91600435611a18565b6040519182918261130c565b0390f35b3461025557604036600319011261025557610ecb6113cd565b6001546001600160a01b03163303610a9657610ea2610eae9160043561183b565b34610255576000366003190112610255576020600554604051908152f35b34610255576060366003190112610255576024356004356044358015158103610255576001546001600160a01b03163303610a96578160005260076020528260406000205410610f8d5715610f7557600052600b602052610f716040600020918254611658565b9055005b600052600c602052610f716040600020918254611658565b632809de1560e11b60005260046000fd5b34610255576000366003190112610255576001546040516001600160a01b039091168152602090f35b3461025557602036600319011261025557610fe06113b7565b610fe8611c0c565b600180546001600160a01b0319166001600160a01b039290921691821790557fd71cb382901878f93a93cfcb156c01d64cdba2518bf373f5c8281994d4d3d750600080a2005b34610255576040366003190112610255576110476113cd565b6001546001600160a01b03163303610a965761001b90600435611665565b346102555760403660031901126102555761107e6113cd565b336001600160a01b0382160361109a5761001b90600435611d20565b63334bd91960e11b60005260046000fd5b346102555760403660031901126102555761001b6004356110ca6113cd565b906110d76103fe82611628565b611c77565b34610255576000366003190112610255576002546040516001600160a01b039091168152602090f35b34610255576020366003190112610255576001600160a01b036111266113b7565b1660005260066020526020604060002054604051908152f35b3461025557602036600319011261025557602061115d600435611628565b604051908152f35b3461025557602036600319011261025557600435600052600760205260406000208054611191816115a0565b9161119f6040519384611503565b818352602083019060005260206000206000915b8383106111c85760405180610eae878261130c565b600560206001926111d8856115b7565b8152019201920191906111b3565b3461025557602036600319011261025557600435611202611c0c565b806005557fa178f61ad9dc567929dd4655ec5b9534714a6b267d0e91a17808c9a8f7e5b3a6600080a2005b3461025557602036600319011261025557602061124b600435611524565b6040519015158152f35b34610255576020366003190112610255576004359063ffffffff60e01b821680920361025557602091637965db0b60e01b8114908115611297575b5015158152f35b6301ffc9a760e01b14905083611290565b9060028210156112b55752565b634e487b7160e01b600052602160045260246000fd5b919082519283825260005b8481106112f7575050826000602080949584010152601f8019910116010190565b806020809284010151828286010152016112d6565b602081016020825282518091526040820191602060408360051b8301019401926000915b83831061133f57505050505090565b9091929394602080600192603f198582030186528851906113618183516112a8565b848060a01b038383015116838201526040820151604082015260a080611396606085015160c0606086015260c08501906112cb565b93608081015115156080850152015191015297019301930191939290611330565b600435906001600160a01b038216820361025557565b602435906001600160a01b038216820361025557565b6040906003190112610255576004359060243590565b8054821015611415576000526005602060002091020190600090565b634e487b7160e01b600052603260045260246000fd5b90600182811c9216801561145b575b602083101461144557565b634e487b7160e01b600052602260045260246000fd5b91607f169161143a565b600092918154916114758361142b565b80835292600181169081156114cb575060011461149157505050565b60009081526020812093945091925b8383106114b1575060209250010190565b6001816020929493945483858701015201910191906114a0565b915050602093945060ff929192191683830152151560051b010190565b60c081019081106001600160401b03821117610a8057604052565b90601f801991011681019081106001600160401b03821117610a8057604052565b6000818152600760205260408120805492915b8381106115475750505050600090565b60ff61155382846113f9565b50541660028110156112b557158061157b575b61157257600101611537565b50505050600190565b5082600052600860205260406000208160005260205260ff6040600020541615611566565b6001600160401b038111610a805760051b60200190565b906040516115c4816114e8565b809280549060ff82169060028210156112b55760a0926004928552600180851b039060081c1660208501526001810154604085015260405161160d81610e058160028601611465565b606085015260ff600382015416151560808501520154910152565b60005260008051602061213d83398151915260205260016040600020015490565b6000198114610a6a5760010190565b91908201809211610a6a57565b91909180600052600760205260406000208054156117a85760009160009160019460005b825481101561179b57861561175b576116a281846113f9565b5060ff81541660028110156112b5571580611736575b6116c6575b50600101611689565b96506116d3848989611dc0565b9687156116bd57600360ff918660009994995260086020526040600020896000526020526040600020600184198254161790550154166000146117235761171b600191611649565b955b906116bd565b9493611730600191611649565b9461171d565b5084600052600860205260406000208260005260205260ff60406000205416156116b8565b50955050919092505b81600052600b60205261177d6040600020918254611658565b9055600052600c6020526117976040600020918254611658565b9055565b5095505091909250611764565b50509050565b906117b8826115a0565b6117c56040519182611503565b82815280926117d6601f19916115a0565b019060005b8281106117e757505050565b6020906040516117f6816114e8565b600081526000838201526000604082015260608082015260006080820152600060a0820152828285010152016117db565b80518210156114155760209160051b010190565b919091806000526007602052604060002080548015611a0f57600090815b81811061199057505061186b906117ae565b9360008092600190825b815481101561197a5761188881836113f9565b5060ff60038201541680611955575b6118a5575b50600101611875565b60ff81541660028110156112b5578891879161192057856118ce575b5050506001905b9061189c565b6118d9939550611dc0565b91826118e8575b8685386118c1565b9461191860019188600052600860205260406000208860005260205260406000208360ff19825416179055611649565b9590506118e0565b61194f9250600193969150611934906115b7565b61193e828d611827565b52611949818c611827565b50611649565b936118c8565b5087600052600860205260406000208260005260205260ff6040600020541615611897565b505050505090600052600b602052604060002055565b61199a81856113f9565b5060ff81541660028110156112b5576001149081611a00575b50806119db575b6119c7575b600101611859565b916119d3600191611649565b9290506119bf565b5084600052600860205260406000208160005260205260ff60406000205416156119ba565b60ff91506003015416386119b3565b50606093505050565b919091806000526007602052604060002080548015611a0f57600090815b818110611b53575050611a48906117ae565b9360008092600190825b8154811015611b3d57611a6581836113f9565b5060ff6003820154161580611b18575b611a83575b50600101611a52565b60ff81541660028110156112b55788918791611afe5785611aac575b5050506001905b90611a7a565b611ab7939550611dc0565b9182611ac6575b868538611a9f565b94611af660019188600052600860205260406000208860005260205260406000208360ff19825416179055611649565b959050611abe565b611b129250600193969150611934906115b7565b93611aa6565b5087600052600860205260406000208260005260205260ff6040600020541615611a75565b505050505090600052600c602052604060002055565b611b5d81856113f9565b5060ff81541660028110156112b5576001149081611bc3575b5080611b9e575b611b8a575b600101611a36565b91611b96600191611649565b929050611b82565b5084600052600860205260406000208160005260205260ff6040600020541615611b7d565b60ff915060030154161538611b76565b90359060be1981360301821215610255570190565b3580151581036102555790565b818110611c00575050565b60008155600101611bf5565b60008051602061211d833981519152546001600160a01b03163303610ccd57565b600081815260008051602061213d8339815191526020908152604080832033845290915290205460ff1615611c5f5750565b63e2517d3f60e01b6000523360045260245260446000fd5b600081815260008051602061213d833981519152602090815260408083206001600160a01b038616845290915290205460ff16611d1957600081815260008051602061213d833981519152602090815260408083206001600160a01b0395909516808452949091528120805460ff19166001179055339291907f2f8788117e7eff1d82e926ec794901d17c78024a50270940304540a733656f0d9080a4600190565b5050600090565b600081815260008051602061213d833981519152602090815260408083206001600160a01b038616845290915290205460ff1615611d1957600081815260008051602061213d833981519152602090815260408083206001600160a01b0395909516808452949091528120805460ff19169055339291907ff6391f5c32d9c69d2a47ea670b442974b53935d1edc7fd64eb21e047a839171b9080a4600190565b929160018060a01b03845460081c1693600281019460405160208101918252604080820152611e0481611df6606082018a611465565b03601f198101835282611503565b51902092611e1760045460055490611658565b611e1f6120b9565b9081106120135750600180548382015484546001600160a01b03948516600081815260066020526040902054909560089290921c82169481019390911691908310610a6a57611eb2602094611ea4611ee39c6040519687936303fb17f160e41b8a86015260248501528c604485015260648401526080608484015260a4830190611465565b03601f198101855284611503565b6000604051809b81958294639e0c615f60e01b845289600485015260248401526060604484015260648301906112cb565b03925af195861561200757600096611fc5575b508515611f725760ff9160039160005260066020526040600020611f1a8154611649565b905501541615611f4b577fd47891a6ff5220ec24aa936c97085771a5c665b9b42f318ee779ff7dba9afedf600080a3565b7f1a2b93b175bf31d44b127b5c4c0f72cbf128f5230ad594a52a00dfa559c96b51600080a3565b50507f5ae8e754fbc8b7b56c89e264bdcd8bb847036b23ac1a0f791f48b62438f2bab960606040516020815260146020820152731a185b991b1953dc0818d85b1b0819985a5b195960621b6040820152a3565b6020969196813d602011611fff575b81611fe160209383611503565b810103126109ae5751908115158203611ffc57509438611ef6565b80fd5b3d9150611fd4565b6040513d6000823e3d90fd5b90507f97a034ff8fab7e4de24992575acaa9eb95a9c48411292c420aa711b24405811c929394955060209150604051908152a3600090565b60008051602061217d83398151915280546001600160a01b031990811690915560008051602061211d83398151915280549182166001600160a01b0393841690811790915591167f8be0079c531659141344cd1fd0a4f28419497f9722a3daafe3b4186f6b6457e0600080a3565b60ff600d5416156120ea57600e54600f54808211156120e2575b8103818111610a6a57600e5590565b5060006120d3565b5a90565b60ff60008051602061215d8339815191525460401c161561210b57565b631afcd79f60e31b60005260046000fdfe9016d09d72d40fdae2fd8ceac6b6234c7706214fd39c1cd1e609a0528c19930002dd7bc7dec4dceedda775e58dd541e08a116c6c53815c0bd028192f7b626800f0c57e16840df040f15088dc2f81fe391c3923bec73e23a9662efc9c229c6a00237e158222e3e6968b72b9db0d8043aacf074ad9f650f0d1606b4d82ee432c00a26469706673582212204afecfd4c4da72cad72e2510516c9b061682552d85cc4089ceb3ea80d0e329e364736f6c634300081c0033",
  "linkReferences": {},
  "deployedLinkReferences": {}
}