{
  "_format": "hh-sol-artifact-1",
  "contractName": "ConsensusData",
  "sourceName": "contracts/ConsensusData.sol",
  "abi": [
    {
      "inputs": [],
      "name": "AccessControlBadConfirmation",
      "type": "error"
    },
    {
      "inputs": [
        {
          "internalType": "address",
          "name": "account",
          "type": "address"
        },
        {
          "internalType": "bytes32",
          "name": "neededRole",
          "type": "bytes32"
        }
      ],
      "name": "AccessControlUnauthorizedAccount",
      "type": "error"
    },
    {
      "inputs": [],
      "name": "InvalidInitialization",
      "type": "error"
    },
    {
      "inputs": [],
      "name": "NotInitializing",
      "type": "error"
    },
    {
      "inputs": [
        {
          "internalType": "address",
          "name": "owner",
          "type": "address"
        }
      ],
      "name": "OwnableInvalidOwner",
      "type": "error"
    },
    {
      "inputs": [
        {
          "internalType": "address",
          "name": "account",
          "type": "address"
        }
      ],
      "name": "OwnableUnauthorizedAccount",
      "type": "error"
    },
    {
      "inputs": [],
      "name": "ReentrancyGuardReentrantCall",
      "type": "error"
    },
    {
      "anonymous": false,
      "inputs": [
        {
          "indexed": false,
          "internalType": "uint64",
          "name": "version",
          "type": "uint64"
        }
      ],
      "name": "Initialized",
      "type": "event"
    },
    {
      "anonymous": false,
      "inputs": [
        {
          "indexed": true,
          "internalType": "address",
          "name": "previousOwner",
          "type": "address"
        },
        {
          "indexed": true,
          "internalType": "address",
          "name": "newOwner",
          "type": "address"
        }
      ],
      "name": "OwnershipTransferStarted",
      "type": "event"
    },
    {
      "anonymous": false,
      "inputs": [
        {
          "indexed": true,
          "internalType": "address",
          "name": "previousOwner",
          "type": "address"
        },
        {
          "indexed": true,
          "internalType": "address",
          "name": "newOwner",
          "type": "address"
        }
      ],
      "name": "OwnershipTransferred",
      "type": "event"
    },
    {
      "anonymous": false,
      "inputs": [
        {
          "indexed": true,
          "internalType": "bytes32",
          "name": "role",
          "type": "bytes32"
        },
        {
          "indexed": true,
          "internalType": "bytes32",
          "name": "previousAdminRole",
          "type": "bytes32"
        },
        {
          "indexed": true,
          "internalType": "bytes32",
          "name": "newAdminRole",
          "type": "bytes32"
        }
      ],
      "name": "RoleAdminChanged",
      "type": "event"
    },
    {
      "anonymous": false,
      "inputs": [
        {
          "indexed": true,
          "internalType": "bytes32",
          "name": "role",
          "type": "bytes32"
        },
        {
          "indexed": true,
          "internalType": "address",
          "name": "account",
          "type": "address"
        },
        {
          "indexed": true,
          "internalType": "address",
          "name": "sender",
          "type": "address"
        }
      ],
      "name": "RoleGranted",
      "type": "event"
    },
    {
      "anonymous": false,
      "inputs": [
        {
          "indexed": true,
          "internalType": "bytes32",
          "name": "role",
          "type": "bytes32"
        },
        {
          "indexed": true,
          "internalType": "address",
          "name": "account",
          "type": "address"
        },
        {
          "indexed": true,
          "internalType": "address",
          "name": "sender",
          "type": "address"
        }
      ],
      "name": "RoleRevoked",
      "type": "event"
    },
    {
      "inputs": [],
      "name": "DEFAULT_ADMIN_ROLE",
      "outputs": [
        {
          "internalType": "bytes32",
          "name": "",
          "type": "bytes32"
        }
      ],
      "stateMutability": "view",
      "type": "function"
    },
    {
      "inputs": [],
      "name": "acceptOwnership",
      "outputs": [],
      "stateMutability": "nonpayable",
      "type": "function"
    },
    {
      "inputs": [
        {
          "internalType": "bytes32",
          "name": "_txId",
          "type": "bytes32"
        },
        {
          "internalType": "uint256",
          "name": "_currentTimestamp",
          "type": "uint256"
        }
      ],
      "name": "canFinalize",
      "outputs": [
        {
          "internalType": "bool",
          "name": "",
          "type": "bool"
        },
        {
          "internalType": "uint256",
          "name": "",
          "type": "uint256"
        },
        {
          "internalType": "uint256",
          "name": "",
          "type": "uint256"
        }
      ],
      "stateMutability": "view",
      "type": "function"
    },
    {
      "inputs": [],
      "name": "consensusMain",
      "outputs": [
        {
          "internalType": "contract IConsensusMain",
          "name": "",
          "type": "address"
        }
      ],
      "stateMutability": "view",
      "type": "function"
    },
    {
      "inputs": [
        {
          "internalType": "bytes32",
          "name": "_txId",
          "type": "bytes32"
        }
      ],
      "name": "getAllConsumedAndBannedValidatorsForTx",
      "outputs": [
        {
          "internalType": "address[]",
          "name": "consumed_",
          "type": "address[]"
        },
        {
          "internalType": "address[]",
          "name": "banned_",
          "type": "address[]"
        }
      ],
      "stateMutability": "view",
      "type": "function"
    },
    {
      "inputs": [],
      "name": "getAllContractAddresses",
      "outputs": [
        {
          "components": [
            {
              "internalType": "string",
              "name": "name",
              "type": "string"
            },
            {
              "internalType": "address",
              "name": "contractAddress",
              "type": "address"
            }
          ],
          "internalType": "struct ConsensusData.ContractInfo[]",
          "name": "",
          "type": "tuple[]"
        }
      ],
      "stateMutability": "view",
      "type": "function"
    },
    {
      "inputs": [
        {
          "internalType": "bytes32",
          "name": "_txId",
          "type": "bytes32"
        }
      ],
      "name": "getLastAppealResult",
      "outputs": [
        {
          "internalType": "enum ITransactions.ResultType",
          "name": "",
          "type": "uint8"
        }
      ],
      "stateMutability": "view",
      "type": "function"
    },
    {
      "inputs": [
        {
          "internalType": "address",
          "name": "recipient",
          "type": "address"
        }
      ],
      "name": "getLatestAcceptedTransaction",
      "outputs": [
        {
          "components": [
            {
              "internalType": "uint256",
              "name": "currentTimestamp",
              "type": "uint256"
            },
            {
              "internalType": "address",
              "name": "sender",
              "type": "address"
            },
            {
              "internalType": "address",
              "name": "recipient",
              "type": "address"
            },
            {
              "internalType": "uint256",
              "name": "initialRotations",
              "type": "uint256"
            },
            {
              "internalType": "uint256",
              "name": "txSlot",
              "type": "uint256"
            },
            {
              "internalType": "uint256",
              "name": "createdTimestamp",
              "type": "uint256"
            },
            {
              "internalType": "uint256",
              "name": "lastVoteTimestamp",
              "type": "uint256"
            },
            {
              "internalType": "bytes32",
              "name": "randomSeed",
              "type": "bytes32"
            },
            {
              "internalType": "enum ITransactions.ResultType",
              "name": "result",
              "type": "uint8"
            },
            {
              "internalType": "bytes32",
              "name": "txExecutionHash",
              "type": "bytes32"
            },
            {
              "internalType": "bytes",
              "name": "txCalldata",
              "type": "bytes"
            },
            {
              "internalType": "bytes",
              "name": "eqBlocksOutputs",
              "type": "bytes"
            },
            {
              "components": [
                {
                  "internalType": "enum IMessages.MessageType",
                  "name": "messageType",
                  "type": "uint8"
                },
                {
                  "internalType": "address",
                  "name": "recipient",
                  "type": "address"
                },
                {
                  "internalType": "uint256",
                  "name": "value",
                  "type": "uint256"
                },
                {
                  "internalType": "bytes",
                  "name": "data",
                  "type": "bytes"
                },
                {
                  "internalType": "bool",
                  "name": "onAcceptance",
                  "type": "bool"
                },
                {
                  "internalType": "uint256",
                  "name": "saltNonce",
                  "type": "uint256"
                }
              ],
              "internalType": "struct IMessages.SubmittedMessage[]",
              "name": "messages",
              "type": "tuple[]"
            },
            {
              "internalType": "enum IQueues.QueueType",
              "name": "queueType",
              "type": "uint8"
            },
            {
              "internalType": "uint256",
              "name": "queuePosition",
              "type": "uint256"
            },
            {
              "internalType": "address",
              "name": "activator",
              "type": "address"
            },
            {
              "internalType": "address",
              "name": "lastLeader",
              "type": "address"
            },
            {
              "internalType": "enum ITransactions.TransactionStatus",
              "name": "status",
              "type": "uint8"
            },
            {
              "internalType": "bytes32",
              "name": "txId",
              "type": "bytes32"
            },
            {
              "components": [
                {
                  "internalType": "uint256",
                  "name": "activationBlock",
                  "type": "uint256"
                },
                {
                  "internalType": "uint256",
                  "name": "processingBlock",
                  "type": "uint256"
                },
                {
                  "internalType": "uint256",
                  "name": "proposalBlock",
                  "type": "uint256"
                }
              ],
              "internalType": "struct ITransactions.ReadStateBlockRange",
              "name": "readStateBlockRange",
              "type": "tuple"
            },
            {
              "internalType": "uint256",
              "name": "numOfRounds",
              "type": "uint256"
            },
            {
              "components": [
                {
                  "internalType": "uint256",
                  "name": "round",
                  "type": "uint256"
                },
                {
                  "internalType": "uint256",
                  "name": "leaderIndex",
                  "type": "uint256"
                },
                {
                  "internalType": "uint256",
                  "name": "votesCommitted",
                  "type": "uint256"
                },
                {
                  "internalType": "uint256",
                  "name": "votesRevealed",
                  "type": "uint256"
                },
                {
                  "internalType": "uint256",
                  "name": "appealBond",
                  "type": "uint256"
                },
                {
                  "internalType": "uint256",
                  "name": "rotationsLeft",
                  "type": "uint256"
                },
                {
                  "internalType": "enum ITransactions.ResultType",
                  "name": "result",
                  "type": "uint8"
                },
                {
                  "internalType": "address[]",
                  "name": "roundValidators",
                  "type": "address[]"
                },
                {
                  "internalType": "enum ITransactions.VoteType[]",
                  "name": "validatorVotes",
                  "type": "uint8[]"
                },
                {
                  "internalType": "bytes32[]",
                  "name": "validatorVotesHash",
                  "type": "bytes32[]"
                },
                {
                  "internalType": "bytes32[]",
                  "name": "validatorResultHash",
                  "type": "bytes32[]"
                }
              ],
              "internalType": "struct ITransactions.RoundData",
              "name": "lastRound",
              "type": "tuple"
            },
            {
              "internalType": "address[]",
              "name": "consumedValidators",
              "type": "address[]"
            }
          ],
          "internalType": "struct ConsensusData.TransactionData",
          "name": "inputData",
          "type": "tuple"
        }
      ],
      "stateMutability": "view",
      "type": "function"
    },
    {
      "inputs": [
        {
          "internalType": "address",
          "name": "recipient",
          "type": "address"
        },
        {
          "internalType": "uint256",
          "name": "startIndex",
          "type": "uint256"
        },
        {
          "internalType": "uint256",
          "name": "pageSize",
          "type": "uint256"
        }
      ],
      "name": "getLatestAcceptedTransactions",
      "outputs": [
        {
          "components": [
            {
              "internalType": "uint256",
              "name": "currentTimestamp",
              "type": "uint256"
            },
            {
              "internalType": "address",
              "name": "sender",
              "type": "address"
            },
            {
              "internalType": "address",
              "name": "recipient",
              "type": "address"
            },
            {
              "internalType": "uint256",
              "name": "initialRotations",
              "type": "uint256"
            },
            {
              "internalType": "uint256",
              "name": "txSlot",
              "type": "uint256"
            },
            {
              "internalType": "uint256",
              "name": "createdTimestamp",
              "type": "uint256"
            },
            {
              "internalType": "uint256",
              "name": "lastVoteTimestamp",
              "type": "uint256"
            },
            {
              "internalType": "bytes32",
              "name": "randomSeed",
              "type": "bytes32"
            },
            {
              "internalType": "enum ITransactions.ResultType",
              "name": "result",
              "type": "uint8"
            },
            {
              "internalType": "bytes32",
              "name": "txExecutionHash",
              "type": "bytes32"
            },
            {
              "internalType": "bytes",
              "name": "txCalldata",
              "type": "bytes"
            },
            {
              "internalType": "bytes",
              "name": "eqBlocksOutputs",
              "type": "bytes"
            },
            {
              "components": [
                {
                  "internalType": "enum IMessages.MessageType",
                  "name": "messageType",
                  "type": "uint8"
                },
                {
                  "internalType": "address",
                  "name": "recipient",
                  "type": "address"
                },
                {
                  "internalType": "uint256",
                  "name": "value",
                  "type": "uint256"
                },
                {
                  "internalType": "bytes",
                  "name": "data",
                  "type": "bytes"
                },
                {
                  "internalType": "bool",
                  "name": "onAcceptance",
                  "type": "bool"
                },
                {
                  "internalType": "uint256",
                  "name": "saltNonce",
                  "type": "uint256"
                }
              ],
              "internalType": "struct IMessages.SubmittedMessage[]",
              "name": "messages",
              "type": "tuple[]"
            },
            {
              "internalType": "enum IQueues.QueueType",
              "name": "queueType",
              "type": "uint8"
            },
            {
              "internalType": "uint256",
              "name": "queuePosition",
              "type": "uint256"
            },
            {
              "internalType": "address",
              "name": "activator",
              "type": "address"
            },
            {
              "internalType": "address",
              "name": "lastLeader",
              "type": "address"
            },
            {
              "internalType": "enum ITransactions.TransactionStatus",
              "name": "status",
              "type": "uint8"
            },
            {
              "internalType": "bytes32",
              "name": "txId",
              "type": "bytes32"
            },
            {
              "components": [
                {
                  "internalType": "uint256",
                  "name": "activationBlock",
                  "type": "uint256"
                },
                {
                  "internalType": "uint256",
                  "name": "processingBlock",
                  "type": "uint256"
                },
                {
                  "internalType": "uint256",
                  "name": "proposalBlock",
                  "type": "uint256"
                }
              ],
              "internalType": "struct ITransactions.ReadStateBlockRange",
              "name": "readStateBlockRange",
              "type": "tuple"
            },
            {
              "internalType": "uint256",
              "name": "numOfRounds",
              "type": "uint256"
            },
            {
              "components": [
                {
                  "internalType": "uint256",
                  "name": "round",
                  "type": "uint256"
                },
                {
                  "internalType": "uint256",
                  "name": "leaderIndex",
                  "type": "uint256"
                },
                {
                  "internalType": "uint256",
                  "name": "votesCommitted",
                  "type": "uint256"
                },
                {
                  "internalType": "uint256",
                  "name": "votesRevealed",
                  "type": "uint256"
                },
                {
                  "internalType": "uint256",
                  "name": "appealBond",
                  "type": "uint256"
                },
                {
                  "internalType": "uint256",
                  "name": "rotationsLeft",
                  "type": "uint256"
                },
                {
                  "internalType": "enum ITransactions.ResultType",
                  "name": "result",
                  "type": "uint8"
                },
                {
                  "internalType": "address[]",
                  "name": "roundValidators",
                  "type": "address[]"
                },
                {
                  "internalType": "enum ITransactions.VoteType[]",
                  "name": "validatorVotes",
                  "type": "uint8[]"
                },
                {
                  "internalType": "bytes32[]",
                  "name": "validatorVotesHash",
                  "type": "bytes32[]"
                },
                {
                  "internalType": "bytes32[]",
                  "name": "validatorResultHash",
                  "type": "bytes32[]"
                }
              ],
              "internalType": "struct ITransactions.RoundData",
              "name": "lastRound",
              "type": "tuple"
            },
            {
              "internalType": "address[]",
              "name": "consumedValidators",
              "type": "address[]"
            }
          ],
          "internalType": "struct ConsensusData.TransactionData[]",
          "name": "",
          "type": "tuple[]"
        }
      ],
      "stateMutability": "view",
      "type": "function"
    },
    {
      "inputs": [
        {
          "internalType": "address",
          "name": "recipient",
          "type": "address"
        }
      ],
      "name": "getLatestAcceptedTxCount",
      "outputs": [
        {
          "internalType": "uint256",
          "name": "",
          "type": "uint256"
        }
      ],
      "stateMutability": "view",
      "type": "function"
    },
    {
      "inputs": [
        {
          "internalType": "address",
          "name": "recipient",
          "type": "address"
        }
      ],
      "name": "getLatestFinalizedTransaction",
      "outputs": [
        {
          "components": [
            {
              "internalType": "uint256",
              "name": "currentTimestamp",
              "type": "uint256"
            },
            {
              "internalType": "address",
              "name": "sender",
              "type": "address"
            },
            {
              "internalType": "address",
              "name": "recipient",
              "type": "address"
            },
            {
              "internalType": "uint256",
              "name": "initialRotations",
              "type": "uint256"
            },
            {
              "internalType": "uint256",
              "name": "txSlot",
              "type": "uint256"
            },
            {
              "internalType": "uint256",
              "name": "createdTimestamp",
              "type": "uint256"
            },
            {
              "internalType": "uint256",
              "name": "lastVoteTimestamp",
              "type": "uint256"
            },
            {
              "internalType": "bytes32",
              "name": "randomSeed",
              "type": "bytes32"
            },
            {
              "internalType": "enum ITransactions.ResultType",
              "name": "result",
              "type": "uint8"
            },
            {
              "internalType": "bytes32",
              "name": "txExecutionHash",
              "type": "bytes32"
            },
            {
              "internalType": "bytes",
              "name": "txCalldata",
              "type": "bytes"
            },
            {
              "internalType": "bytes",
              "name": "eqBlocksOutputs",
              "type": "bytes"
            },
            {
              "components": [
                {
                  "internalType": "enum IMessages.MessageType",
                  "name": "messageType",
                  "type": "uint8"
                },
                {
                  "internalType": "address",
                  "name": "recipient",
                  "type": "address"
                },
                {
                  "internalType": "uint256",
                  "name": "value",
                  "type": "uint256"
                },
                {
                  "internalType": "bytes",
                  "name": "data",
                  "type": "bytes"
                },
                {
                  "internalType": "bool",
                  "name": "onAcceptance",
                  "type": "bool"
                },
                {
                  "internalType": "uint256",
                  "name": "saltNonce",
                  "type": "uint256"
                }
              ],
              "internalType": "struct IMessages.SubmittedMessage[]",
              "name": "messages",
              "type": "tuple[]"
            },
            {
              "internalType": "enum IQueues.QueueType",
              "name": "queueType",
              "type": "uint8"
            },
            {
              "internalType": "uint256",
              "name": "queuePosition",
              "type": "uint256"
            },
            {
              "internalType": "address",
              "name": "activator",
              "type": "address"
            },
            {
              "internalType": "address",
              "name": "lastLeader",
              "type": "address"
            },
            {
              "internalType": "enum ITransactions.TransactionStatus",
              "name": "status",
              "type": "uint8"
            },
            {
              "internalType": "bytes32",
              "name": "txId",
              "type": "bytes32"
            },
            {
              "components": [
                {
                  "internalType": "uint256",
                  "name": "activationBlock",
                  "type": "uint256"
                },
                {
                  "internalType": "uint256",
                  "name": "processingBlock",
                  "type": "uint256"
                },
                {
                  "internalType": "uint256",
                  "name": "proposalBlock",
                  "type": "uint256"
                }
              ],
              "internalType": "struct ITransactions.ReadStateBlockRange",
              "name": "readStateBlockRange",
              "type": "tuple"
            },
            {
              "internalType": "uint256",
              "name": "numOfRounds",
              "type": "uint256"
            },
            {
              "components": [
                {
                  "internalType": "uint256",
                  "name": "round",
                  "type": "uint256"
                },
                {
                  "internalType": "uint256",
                  "name": "leaderIndex",
                  "type": "uint256"
                },
                {
                  "internalType": "uint256",
                  "name": "votesCommitted",
                  "type": "uint256"
                },
                {
                  "internalType": "uint256",
                  "name": "votesRevealed",
                  "type": "uint256"
                },
                {
                  "internalType": "uint256",
                  "name": "appealBond",
                  "type": "uint256"
                },
                {
                  "internalType": "uint256",
                  "name": "rotationsLeft",
                  "type": "uint256"
                },
                {
                  "internalType": "enum ITransactions.ResultType",
                  "name": "result",
                  "type": "uint8"
                },
                {
                  "internalType": "address[]",
                  "name": "roundValidators",
                  "type": "address[]"
                },
                {
                  "internalType": "enum ITransactions.VoteType[]",
                  "name": "validatorVotes",
                  "type": "uint8[]"
                },
                {
                  "internalType": "bytes32[]",
                  "name": "validatorVotesHash",
                  "type": "bytes32[]"
                },
                {
                  "internalType": "bytes32[]",
                  "name": "validatorResultHash",
                  "type": "bytes32[]"
                }
              ],
              "internalType": "struct ITransactions.RoundData",
              "name": "lastRound",
              "type": "tuple"
            },
            {
              "internalType": "address[]",
              "name": "consumedValidators",
              "type": "address[]"
            }
          ],
          "internalType": "struct ConsensusData.TransactionData",
          "name": "inputData",
          "type": "tuple"
        }
      ],
      "stateMutability": "view",
      "type": "function"
    },
    {
      "inputs": [
        {
          "internalType": "address",
          "name": "recipient",
          "type": "address"
        },
        {
          "internalType": "uint256",
          "name": "startIndex",
          "type": "uint256"
        },
        {
          "internalType": "uint256",
          "name": "pageSize",
          "type": "uint256"
        }
      ],
      "name": "getLatestFinalizedTransactions",
      "outputs": [
        {
          "components": [
            {
              "internalType": "uint256",
              "name": "currentTimestamp",
              "type": "uint256"
            },
            {
              "internalType": "address",
              "name": "sender",
              "type": "address"
            },
            {
              "internalType": "address",
              "name": "recipient",
              "type": "address"
            },
            {
              "internalType": "uint256",
              "name": "initialRotations",
              "type": "uint256"
            },
            {
              "internalType": "uint256",
              "name": "txSlot",
              "type": "uint256"
            },
            {
              "internalType": "uint256",
              "name": "createdTimestamp",
              "type": "uint256"
            },
            {
              "internalType": "uint256",
              "name": "lastVoteTimestamp",
              "type": "uint256"
            },
            {
              "internalType": "bytes32",
              "name": "randomSeed",
              "type": "bytes32"
            },
            {
              "internalType": "enum ITransactions.ResultType",
              "name": "result",
              "type": "uint8"
            },
            {
              "internalType": "bytes32",
              "name": "txExecutionHash",
              "type": "bytes32"
            },
            {
              "internalType": "bytes",
              "name": "txCalldata",
              "type": "bytes"
            },
            {
              "internalType": "bytes",
              "name": "eqBlocksOutputs",
              "type": "bytes"
            },
            {
              "components": [
                {
                  "internalType": "enum IMessages.MessageType",
                  "name": "messageType",
                  "type": "uint8"
                },
                {
                  "internalType": "address",
                  "name": "recipient",
                  "type": "address"
                },
                {
                  "internalType": "uint256",
                  "name": "value",
                  "type": "uint256"
                },
                {
                  "internalType": "bytes",
                  "name": "data",
                  "type": "bytes"
                },
                {
                  "internalType": "bool",
                  "name": "onAcceptance",
                  "type": "bool"
                },
                {
                  "internalType": "uint256",
                  "name": "saltNonce",
                  "type": "uint256"
                }
              ],
              "internalType": "struct IMessages.SubmittedMessage[]",
              "name": "messages",
              "type": "tuple[]"
            },
            {
              "internalType": "enum IQueues.QueueType",
              "name": "queueType",
              "type": "uint8"
            },
            {
              "internalType": "uint256",
              "name": "queuePosition",
              "type": "uint256"
            },
            {
              "internalType": "address",
              "name": "activator",
              "type": "address"
            },
            {
              "internalType": "address",
              "name": "lastLeader",
              "type": "address"
            },
            {
              "internalType": "enum ITransactions.TransactionStatus",
              "name": "status",
              "type": "uint8"
            },
            {
              "internalType": "bytes32",
              "name": "txId",
              "type": "bytes32"
            },
            {
              "components": [
                {
                  "internalType": "uint256",
                  "name": "activationBlock",
                  "type": "uint256"
                },
                {
                  "internalType": "uint256",
                  "name": "processingBlock",
                  "type": "uint256"
                },
                {
                  "internalType": "uint256",
                  "name": "proposalBlock",
                  "type": "uint256"
                }
              ],
              "internalType": "struct ITransactions.ReadStateBlockRange",
              "name": "readStateBlockRange",
              "type": "tuple"
            },
            {
              "internalType": "uint256",
              "name": "numOfRounds",
              "type": "uint256"
            },
            {
              "components": [
                {
                  "internalType": "uint256",
                  "name": "round",
                  "type": "uint256"
                },
                {
                  "internalType": "uint256",
                  "name": "leaderIndex",
                  "type": "uint256"
                },
                {
                  "internalType": "uint256",
                  "name": "votesCommitted",
                  "type": "uint256"
                },
                {
                  "internalType": "uint256",
                  "name": "votesRevealed",
                  "type": "uint256"
                },
                {
                  "internalType": "uint256",
                  "name": "appealBond",
                  "type": "uint256"
                },
                {
                  "internalType": "uint256",
                  "name": "rotationsLeft",
                  "type": "uint256"
                },
                {
                  "internalType": "enum ITransactions.ResultType",
                  "name": "result",
                  "type": "uint8"
                },
                {
                  "internalType": "address[]",
                  "name": "roundValidators",
                  "type": "address[]"
                },
                {
                  "internalType": "enum ITransactions.VoteType[]",
                  "name": "validatorVotes",
                  "type": "uint8[]"
                },
                {
                  "internalType": "bytes32[]",
                  "name": "validatorVotesHash",
                  "type": "bytes32[]"
                },
                {
                  "internalType": "bytes32[]",
                  "name": "validatorResultHash",
                  "type": "bytes32[]"
                }
              ],
              "internalType": "struct ITransactions.RoundData",
              "name": "lastRound",
              "type": "tuple"
            },
            {
              "internalType": "address[]",
              "name": "consumedValidators",
              "type": "address[]"
            }
          ],
          "internalType": "struct ConsensusData.TransactionData[]",
          "name": "",
          "type": "tuple[]"
        }
      ],
      "stateMutability": "view",
      "type": "function"
    },
    {
      "inputs": [
        {
          "internalType": "address",
          "name": "recipient",
          "type": "address"
        }
      ],
      "name": "getLatestFinalizedTxCount",
      "outputs": [
        {
          "internalType": "uint256",
          "name": "",
          "type": "uint256"
        }
      ],
      "stateMutability": "view",
      "type": "function"
    },
    {
      "inputs": [
        {
          "internalType": "address",
          "name": "recipient",
          "type": "address"
        }
      ],
      "name": "getLatestPendingTxCount",
      "outputs": [
        {
          "internalType": "uint256",
          "name": "",
          "type": "uint256"
        }
      ],
      "stateMutability": "view",
      "type": "function"
    },
    {
      "inputs": [
        {
          "internalType": "address",
          "name": "recipient",
          "type": "address"
        },
        {
          "internalType": "uint256",
          "name": "slot",
          "type": "uint256"
        }
      ],
      "name": "getLatestPendingTxId",
      "outputs": [
        {
          "internalType": "bytes32",
          "name": "",
          "type": "bytes32"
        }
      ],
      "stateMutability": "view",
      "type": "function"
    },
    {
      "inputs": [
        {
          "internalType": "address",
          "name": "recipient",
          "type": "address"
        }
      ],
      "name": "getLatestUndeterminedTransaction",
      "outputs": [
        {
          "components": [
            {
              "internalType": "uint256",
              "name": "currentTimestamp",
              "type": "uint256"
            },
            {
              "internalType": "address",
              "name": "sender",
              "type": "address"
            },
            {
              "internalType": "address",
              "name": "recipient",
              "type": "address"
            },
            {
              "internalType": "uint256",
              "name": "initialRotations",
              "type": "uint256"
            },
            {
              "internalType": "uint256",
              "name": "txSlot",
              "type": "uint256"
            },
            {
              "internalType": "uint256",
              "name": "createdTimestamp",
              "type": "uint256"
            },
            {
              "internalType": "uint256",
              "name": "lastVoteTimestamp",
              "type": "uint256"
            },
            {
              "internalType": "bytes32",
              "name": "randomSeed",
              "type": "bytes32"
            },
            {
              "internalType": "enum ITransactions.ResultType",
              "name": "result",
              "type": "uint8"
            },
            {
              "internalType": "bytes32",
              "name": "txExecutionHash",
              "type": "bytes32"
            },
            {
              "internalType": "bytes",
              "name": "txCalldata",
              "type": "bytes"
            },
            {
              "internalType": "bytes",
              "name": "eqBlocksOutputs",
              "type": "bytes"
            },
            {
              "components": [
                {
                  "internalType": "enum IMessages.MessageType",
                  "name": "messageType",
                  "type": "uint8"
                },
                {
                  "internalType": "address",
                  "name": "recipient",
                  "type": "address"
                },
                {
                  "internalType": "uint256",
                  "name": "value",
                  "type": "uint256"
                },
                {
                  "internalType": "bytes",
                  "name": "data",
                  "type": "bytes"
                },
                {
                  "internalType": "bool",
                  "name": "onAcceptance",
                  "type": "bool"
                },
                {
                  "internalType": "uint256",
                  "name": "saltNonce",
                  "type": "uint256"
                }
              ],
              "internalType": "struct IMessages.SubmittedMessage[]",
              "name": "messages",
              "type": "tuple[]"
            },
            {
              "internalType": "enum IQueues.QueueType",
              "name": "queueType",
              "type": "uint8"
            },
            {
              "internalType": "uint256",
              "name": "queuePosition",
              "type": "uint256"
            },
            {
              "internalType": "address",
              "name": "activator",
              "type": "address"
            },
            {
              "internalType": "address",
              "name": "lastLeader",
              "type": "address"
            },
            {
              "internalType": "enum ITransactions.TransactionStatus",
              "name": "status",
              "type": "uint8"
            },
            {
              "internalType": "bytes32",
              "name": "txId",
              "type": "bytes32"
            },
            {
              "components": [
                {
                  "internalType": "uint256",
                  "name": "activationBlock",
                  "type": "uint256"
                },
                {
                  "internalType": "uint256",
                  "name": "processingBlock",
                  "type": "uint256"
                },
                {
                  "internalType": "uint256",
                  "name": "proposalBlock",
                  "type": "uint256"
                }
              ],
              "internalType": "struct ITransactions.ReadStateBlockRange",
              "name": "readStateBlockRange",
              "type": "tuple"
            },
            {
              "internalType": "uint256",
              "name": "numOfRounds",
              "type": "uint256"
            },
            {
              "components": [
                {
                  "internalType": "uint256",
                  "name": "round",
                  "type": "uint256"
                },
                {
                  "internalType": "uint256",
                  "name": "leaderIndex",
                  "type": "uint256"
                },
                {
                  "internalType": "uint256",
                  "name": "votesCommitted",
                  "type": "uint256"
                },
                {
                  "internalType": "uint256",
                  "name": "votesRevealed",
                  "type": "uint256"
                },
                {
                  "internalType": "uint256",
                  "name": "appealBond",
                  "type": "uint256"
                },
                {
                  "internalType": "uint256",
                  "name": "rotationsLeft",
                  "type": "uint256"
                },
                {
                  "internalType": "enum ITransactions.ResultType",
                  "name": "result",
                  "type": "uint8"
                },
                {
                  "internalType": "address[]",
                  "name": "roundValidators",
                  "type": "address[]"
                },
                {
                  "internalType": "enum ITransactions.VoteType[]",
                  "name": "validatorVotes",
                  "type": "uint8[]"
                },
                {
                  "internalType": "bytes32[]",
                  "name": "validatorVotesHash",
                  "type": "bytes32[]"
                },
                {
                  "internalType": "bytes32[]",
                  "name": "validatorResultHash",
                  "type": "bytes32[]"
                }
              ],
              "internalType": "struct ITransactions.RoundData",
              "name": "lastRound",
              "type": "tuple"
            },
            {
              "internalType": "address[]",
              "name": "consumedValidators",
              "type": "address[]"
            }
          ],
          "internalType": "struct ConsensusData.TransactionData",
          "name": "inputData",
          "type": "tuple"
        }
      ],
      "stateMutability": "view",
      "type": "function"
    },
    {
      "inputs": [
        {
          "internalType": "address",
          "name": "recipient",
          "type": "address"
        }
      ],
      "name": "getLatestUndeterminedTxCount",
      "outputs": [
        {
          "internalType": "uint256",
          "name": "",
          "type": "uint256"
        }
      ],
      "stateMutability": "view",
      "type": "function"
    },
    {
      "inputs": [
        {
          "internalType": "bytes32",
          "name": "_txId",
          "type": "bytes32"
        }
      ],
      "name": "getMessagesForTransaction",
      "outputs": [
        {
          "components": [
            {
              "internalType": "enum IMessages.MessageType",
              "name": "messageType",
              "type": "uint8"
            },
            {
              "internalType": "address",
              "name": "recipient",
              "type": "address"
            },
            {
              "internalType": "uint256",
              "name": "value",
              "type": "uint256"
            },
            {
              "internalType": "bytes",
              "name": "data",
              "type": "bytes"
            },
            {
              "internalType": "bool",
              "name": "onAcceptance",
              "type": "bool"
            },
            {
              "internalType": "uint256",
              "name": "saltNonce",
              "type": "uint256"
            }
          ],
          "internalType": "struct IMessages.SubmittedMessage[]",
          "name": "",
          "type": "tuple[]"
        },
        {
          "internalType": "address",
          "name": "ghostAddress",
          "type": "address"
        },
        {
          "internalType": "uint256",
          "name": "numOfMessagesIssuedOnAcceptance",
          "type": "uint256"
        },
        {
          "internalType": "uint256",
          "name": "numOfMessagesIssuedOnFinalization",
          "type": "uint256"
        }
      ],
      "stateMutability": "view",
      "type": "function"
    },
    {
      "inputs": [
        {
          "internalType": "bytes32",
          "name": "_txId",
          "type": "bytes32"
        }
      ],
      "name": "getReadStateBlockRangeForTransaction",
      "outputs": [
        {
          "internalType": "uint256",
          "name": "activationBlock",
          "type": "uint256"
        },
        {
          "internalType": "uint256",
          "name": "processingBlock",
          "type": "uint256"
        },
        {
          "internalType": "uint256",
          "name": "proposalBlock",
          "type": "uint256"
        }
      ],
      "stateMutability": "view",
      "type": "function"
    },
    {
      "inputs": [
        {
          "internalType": "address",
          "name": "recipient",
          "type": "address"
        },
        {
          "internalType": "uint256",
          "name": "startIndex",
          "type": "uint256"
        },
        {
          "internalType": "uint256",
          "name": "endIndex",
          "type": "uint256"
        }
      ],
      "name": "getRecipientQueues",
      "outputs": [
        {
          "components": [
            {
              "components": [
                {
                  "internalType": "uint256",
                  "name": "head",
                  "type": "uint256"
                },
                {
                  "internalType": "uint256",
                  "name": "tail",
                  "type": "uint256"
                },
                {
                  "internalType": "bytes32[]",
                  "name": "txIds",
                  "type": "bytes32[]"
                }
              ],
              "internalType": "struct IQueues.QueueInfoView",
              "name": "pending",
              "type": "tuple"
            },
            {
              "components": [
                {
                  "internalType": "uint256",
                  "name": "head",
                  "type": "uint256"
                },
                {
                  "internalType": "uint256",
                  "name": "tail",
                  "type": "uint256"
                },
                {
                  "internalType": "bytes32[]",
                  "name": "txIds",
                  "type": "bytes32[]"
                }
              ],
              "internalType": "struct IQueues.QueueInfoView",
              "name": "accepted",
              "type": "tuple"
            },
            {
              "components": [
                {
                  "internalType": "uint256",
                  "name": "head",
                  "type": "uint256"
                },
                {
                  "internalType": "uint256",
                  "name": "tail",
                  "type": "uint256"
                },
                {
                  "internalType": "bytes32[]",
                  "name": "txIds",
                  "type": "bytes32[]"
                }
              ],
              "internalType": "struct IQueues.QueueInfoView",
              "name": "undetermined",
              "type": "tuple"
            },
            {
              "internalType": "uint256",
              "name": "finalizedCount",
              "type": "uint256"
            },
            {
              "internalType": "uint256",
              "name": "issuedTxCount",
              "type": "uint256"
            }
          ],
          "internalType": "struct IQueues.RecipientQueuesView",
          "name": "",
          "type": "tuple"
        }
      ],
      "stateMutability": "view",
      "type": "function"
    },
    {
      "inputs": [
        {
          "internalType": "bytes32",
          "name": "role",
          "type": "bytes32"
        }
      ],
      "name": "getRoleAdmin",
      "outputs": [
        {
          "internalType": "bytes32",
          "name": "",
          "type": "bytes32"
        }
      ],
      "stateMutability": "view",
      "type": "function"
    },
    {
      "inputs": [],
      "name": "getTotalNumOfTransactions",
      "outputs": [
        {
          "internalType": "uint256",
          "name": "",
          "type": "uint256"
        }
      ],
      "stateMutability": "view",
      "type": "function"
    },
    {
      "inputs": [
        {
          "internalType": "bytes32",
          "name": "_txId",
          "type": "bytes32"
        }
      ],
      "name": "getTransactionAllData",
      "outputs": [
        {
          "components": [
            {
              "internalType": "enum ITransactions.ResultType",
              "name": "result",
              "type": "uint8"
            },
            {
              "internalType": "enum ITransactions.VoteType",
              "name": "txExecutionResult",
              "type": "uint8"
            },
            {
              "internalType": "enum ITransactions.TransactionStatus",
              "name": "previousStatus",
              "type": "uint8"
            },
            {
              "internalType": "enum ITransactions.TransactionStatus",
              "name": "status",
              "type": "uint8"
            },
            {
              "internalType": "address",
              "name": "txOrigin",
              "type": "address"
            },
            {
              "internalType": "address",
              "name": "sender",
              "type": "address"
            },
            {
              "internalType": "address",
              "name": "recipient",
              "type": "address"
            },
            {
              "internalType": "address",
              "name": "activator",
              "type": "address"
            },
            {
              "internalType": "uint256",
              "name": "txSlot",
              "type": "uint256"
            },
            {
              "internalType": "uint256",
              "name": "initialRotations",
              "type": "uint256"
            },
            {
              "internalType": "uint256",
              "name": "numOfInitialValidators",
              "type": "uint256"
            },
            {
              "internalType": "uint256",
              "name": "epoch",
              "type": "uint256"
            },
            {
              "internalType": "bytes32",
              "name": "id",
              "type": "bytes32"
            },
            {
              "internalType": "bytes32",
              "name": "randomSeed",
              "type": "bytes32"
            },
            {
              "internalType": "bytes32",
              "name": "txExecutionHash",
              "type": "bytes32"
            },
            {
              "internalType": "bytes32",
              "name": "resultHash",
              "type": "bytes32"
            },
            {
              "internalType": "bytes",
              "name": "txCalldata",
              "type": "bytes"
            },
            {
              "internalType": "bytes",
              "name": "eqBlocksOutputs",
              "type": "bytes"
            },
            {
              "components": [
                {
                  "internalType": "uint256",
                  "name": "activationBlock",
                  "type": "uint256"
                },
                {
                  "internalType": "uint256",
                  "name": "processingBlock",
                  "type": "uint256"
                },
                {
                  "internalType": "uint256",
                  "name": "proposalBlock",
                  "type": "uint256"
                }
              ],
              "internalType": "struct ITransactions.ReadStateBlockRange[]",
              "name": "readStateBlockRanges",
              "type": "tuple[]"
            },
            {
              "internalType": "uint256",
              "name": "validUntil",
              "type": "uint256"
            },
            {
              "internalType": "uint256",
              "name": "value",
              "type": "uint256"
            }
          ],
          "internalType": "struct ITransactions.Transaction",
          "name": "transaction",
          "type": "tuple"
        },
        {
          "components": [
            {
              "internalType": "uint256",
              "name": "round",
              "type": "uint256"
            },
            {
              "internalType": "uint256",
              "name": "leaderIndex",
              "type": "uint256"
            },
            {
              "internalType": "uint256",
              "name": "votesCommitted",
              "type": "uint256"
            },
            {
              "internalType": "uint256",
              "name": "votesRevealed",
              "type": "uint256"
            },
            {
              "internalType": "uint256",
              "name": "appealBond",
              "type": "uint256"
            },
            {
              "internalType": "uint256",
              "name": "rotationsLeft",
              "type": "uint256"
            },
            {
              "internalType": "enum ITransactions.ResultType",
              "name": "result",
              "type": "uint8"
            },
            {
              "internalType": "address[]",
              "name": "roundValidators",
              "type": "address[]"
            },
            {
              "internalType": "enum ITransactions.VoteType[]",
              "name": "validatorVotes",
              "type": "uint8[]"
            },
            {
              "internalType": "bytes32[]",
              "name": "validatorVotesHash",
              "type": "bytes32[]"
            },
            {
              "internalType": "bytes32[]",
              "name": "validatorResultHash",
              "type": "bytes32[]"
            }
          ],
          "internalType": "struct ITransactions.RoundData[]",
          "name": "roundsData",
          "type": "tuple[]"
        }
      ],
      "stateMutability": "view",
      "type": "function"
    },
    {
      "inputs": [
        {
          "internalType": "bytes32",
          "name": "_txId",
          "type": "bytes32"
        },
        {
          "internalType": "uint256",
          "name": "_timestamp",
          "type": "uint256"
        }
      ],
      "name": "getTransactionData",
      "outputs": [
        {
          "components": [
            {
              "internalType": "uint256",
              "name": "currentTimestamp",
              "type": "uint256"
            },
            {
              "internalType": "address",
              "name": "sender",
              "type": "address"
            },
            {
              "internalType": "address",
              "name": "recipient",
              "type": "address"
            },
            {
              "internalType": "uint256",
              "name": "initialRotations",
              "type": "uint256"
            },
            {
              "internalType": "uint256",
              "name": "txSlot",
              "type": "uint256"
            },
            {
              "internalType": "uint256",
              "name": "createdTimestamp",
              "type": "uint256"
            },
            {
              "internalType": "uint256",
              "name": "lastVoteTimestamp",
              "type": "uint256"
            },
            {
              "internalType": "bytes32",
              "name": "randomSeed",
              "type": "bytes32"
            },
            {
              "internalType": "enum ITransactions.ResultType",
              "name": "result",
              "type": "uint8"
            },
            {
              "internalType": "bytes32",
              "name": "txExecutionHash",
              "type": "bytes32"
            },
            {
              "internalType": "bytes",
              "name": "txCalldata",
              "type": "bytes"
            },
            {
              "internalType": "bytes",
              "name": "eqBlocksOutputs",
              "type": "bytes"
            },
            {
              "components": [
                {
                  "internalType": "enum IMessages.MessageType",
                  "name": "messageType",
                  "type": "uint8"
                },
                {
                  "internalType": "address",
                  "name": "recipient",
                  "type": "address"
                },
                {
                  "internalType": "uint256",
                  "name": "value",
                  "type": "uint256"
                },
                {
                  "internalType": "bytes",
                  "name": "data",
                  "type": "bytes"
                },
                {
                  "internalType": "bool",
                  "name": "onAcceptance",
                  "type": "bool"
                },
                {
                  "internalType": "uint256",
                  "name": "saltNonce",
                  "type": "uint256"
                }
              ],
              "internalType": "struct IMessages.SubmittedMessage[]",
              "name": "messages",
              "type": "tuple[]"
            },
            {
              "internalType": "enum IQueues.QueueType",
              "name": "queueType",
              "type": "uint8"
            },
            {
              "internalType": "uint256",
              "name": "queuePosition",
              "type": "uint256"
            },
            {
              "internalType": "address",
              "name": "activator",
              "type": "address"
            },
            {
              "internalType": "address",
              "name": "lastLeader",
              "type": "address"
            },
            {
              "internalType": "enum ITransactions.TransactionStatus",
              "name": "status",
              "type": "uint8"
            },
            {
              "internalType": "bytes32",
              "name": "txId",
              "type": "bytes32"
            },
            {
              "components": [
                {
                  "internalType": "uint256",
                  "name": "activationBlock",
                  "type": "uint256"
                },
                {
                  "internalType": "uint256",
                  "name": "processingBlock",
                  "type": "uint256"
                },
                {
                  "internalType": "uint256",
                  "name": "proposalBlock",
                  "type": "uint256"
                }
              ],
              "internalType": "struct ITransactions.ReadStateBlockRange",
              "name": "readStateBlockRange",
              "type": "tuple"
            },
            {
              "internalType": "uint256",
              "name": "numOfRounds",
              "type": "uint256"
            },
            {
              "components": [
                {
                  "internalType": "uint256",
                  "name": "round",
                  "type": "uint256"
                },
                {
                  "internalType": "uint256",
                  "name": "leaderIndex",
                  "type": "uint256"
                },
                {
                  "internalType": "uint256",
                  "name": "votesCommitted",
                  "type": "uint256"
                },
                {
                  "internalType": "uint256",
                  "name": "votesRevealed",
                  "type": "uint256"
                },
                {
                  "internalType": "uint256",
                  "name": "appealBond",
                  "type": "uint256"
                },
                {
                  "internalType": "uint256",
                  "name": "rotationsLeft",
                  "type": "uint256"
                },
                {
                  "internalType": "enum ITransactions.ResultType",
                  "name": "result",
                  "type": "uint8"
                },
                {
                  "internalType": "address[]",
                  "name": "roundValidators",
                  "type": "address[]"
                },
                {
                  "internalType": "enum ITransactions.VoteType[]",
                  "name": "validatorVotes",
                  "type": "uint8[]"
                },
                {
                  "internalType": "bytes32[]",
                  "name": "validatorVotesHash",
                  "type": "bytes32[]"
                },
                {
                  "internalType": "bytes32[]",
                  "name": "validatorResultHash",
                  "type": "bytes32[]"
                }
              ],
              "internalType": "struct ITransactions.RoundData",
              "name": "lastRound",
              "type": "tuple"
            },
            {
              "internalType": "address[]",
              "name": "consumedValidators",
              "type": "address[]"
            }
          ],
          "internalType": "struct ConsensusData.TransactionData",
          "name": "",
          "type": "tuple"
        }
      ],
      "stateMutability": "view",
      "type": "function"
    },
    {
      "inputs": [
        {
          "internalType": "uint256",
          "name": "startIndex",
          "type": "uint256"
        },
        {
          "internalType": "uint256",
          "name": "endIndex",
          "type": "uint256"
        }
      ],
      "name": "getTransactionIndexToTxId",
      "outputs": [
        {
          "internalType": "bytes32[]",
          "name": "",
          "type": "bytes32[]"
        }
      ],
      "stateMutability": "view",
      "type": "function"
    },
    {
      "inputs": [
        {
          "internalType": "bytes32",
          "name": "_txId",
          "type": "bytes32"
        },
        {
          "internalType": "uint256",
          "name": "_timestamp",
          "type": "uint256"
        }
      ],
      "name": "getTransactionStatus",
      "outputs": [
        {
          "internalType": "enum ITransactions.TransactionStatus",
          "name": "",
          "type": "uint8"
        }
      ],
      "stateMutability": "view",
      "type": "function"
    },
    {
      "inputs": [
        {
          "internalType": "address",
          "name": "recipient",
          "type": "address"
        }
      ],
      "name": "getTxIdAtFinalizedHead",
      "outputs": [
        {
          "internalType": "bytes32",
          "name": "",
          "type": "bytes32"
        }
      ],
      "stateMutability": "view",
      "type": "function"
    },
    {
      "inputs": [
        {
          "internalType": "bytes32",
          "name": "_txId",
          "type": "bytes32"
        },
        {
          "internalType": "address",
          "name": "_validator",
          "type": "address"
        }
      ],
      "name": "getValidatorIndex",
      "outputs": [
        {
          "internalType": "uint256",
          "name": "",
          "type": "uint256"
        }
      ],
      "stateMutability": "view",
      "type": "function"
    },
    {
      "inputs": [
        {
          "internalType": "bytes32",
          "name": "_txId",
          "type": "bytes32"
        }
      ],
      "name": "getValidatorsForLastAppeal",
      "outputs": [
        {
          "internalType": "address[]",
          "name": "",
          "type": "address[]"
        }
      ],
      "stateMutability": "view",
      "type": "function"
    },
    {
      "inputs": [
        {
          "internalType": "bytes32",
          "name": "_txId",
          "type": "bytes32"
        }
      ],
      "name": "getValidatorsForLastRound",
      "outputs": [
        {
          "internalType": "address[]",
          "name": "validators",
          "type": "address[]"
        }
      ],
      "stateMutability": "view",
      "type": "function"
    },
    {
      "inputs": [
        {
          "internalType": "bytes32",
          "name": "role",
          "type": "bytes32"
        },
        {
          "internalType": "address",
          "name": "account",
          "type": "address"
        }
      ],
      "name": "grantRole",
      "outputs": [],
      "stateMutability": "nonpayable",
      "type": "function"
    },
    {
      "inputs": [
        {
          "internalType": "bytes32",
          "name": "_txId",
          "type": "bytes32"
        }
      ],
      "name": "hasExternalMessagesNotIssued",
      "outputs": [
        {
          "internalType": "bool",
          "name": "",
          "type": "bool"
        }
      ],
      "stateMutability": "view",
      "type": "function"
    },
    {
      "inputs": [
        {
          "internalType": "bytes32",
          "name": "role",
          "type": "bytes32"
        },
        {
          "internalType": "address",
          "name": "account",
          "type": "address"
        }
      ],
      "name": "hasRole",
      "outputs": [
        {
          "internalType": "bool",
          "name": "",
          "type": "bool"
        }
      ],
      "stateMutability": "view",
      "type": "function"
    },
    {
      "inputs": [
        {
          "internalType": "address",
          "name": "_consensusMain",
          "type": "address"
        },
        {
          "internalType": "address",
          "name": "_transactions",
          "type": "address"
        },
        {
          "internalType": "address",
          "name": "_queues",
          "type": "address"
        },
        {
          "internalType": "address",
          "name": "_messages",
          "type": "address"
        }
      ],
      "name": "initialize",
      "outputs": [],
      "stateMutability": "nonpayable",
      "type": "function"
    },
    {
      "inputs": [],
      "name": "messages",
      "outputs": [
        {
          "internalType": "contract IMessages",
          "name": "",
          "type": "address"
        }
      ],
      "stateMutability": "view",
      "type": "function"
    },
    {
      "inputs": [],
      "name": "mockZkSyncAliasMessageInvoker",
      "outputs": [
        {
          "internalType": "address",
          "name": "",
          "type": "address"
        }
      ],
      "stateMutability": "view",
      "type": "function"
    },
    {
      "inputs": [],
      "name": "owner",
      "outputs": [
        {
          "internalType": "address",
          "name": "",
          "type": "address"
        }
      ],
      "stateMutability": "view",
      "type": "function"
    },
    {
      "inputs": [],
      "name": "pendingOwner",
      "outputs": [
        {
          "internalType": "address",
          "name": "",
          "type": "address"
        }
      ],
      "stateMutability": "view",
      "type": "function"
    },
    {
      "inputs": [],
      "name": "queues",
      "outputs": [
        {
          "internalType": "contract IQueues",
          "name": "",
          "type": "address"
        }
      ],
      "stateMutability": "view",
      "type": "function"
    },
    {
      "inputs": [],
      "name": "renounceOwnership",
      "outputs": [],
      "stateMutability": "nonpayable",
      "type": "function"
    },
    {
      "inputs": [
        {
          "internalType": "bytes32",
          "name": "role",
          "type": "bytes32"
        },
        {
          "internalType": "address",
          "name": "callerConfirmation",
          "type": "address"
        }
      ],
      "name": "renounceRole",
      "outputs": [],
      "stateMutability": "nonpayable",
      "type": "function"
    },
    {
      "inputs": [
        {
          "internalType": "bytes32",
          "name": "role",
          "type": "bytes32"
        },
        {
          "internalType": "address",
          "name": "account",
          "type": "address"
        }
      ],
      "name": "revokeRole",
      "outputs": [],
      "stateMutability": "nonpayable",
      "type": "function"
    },
    {
      "inputs": [
        {
          "internalType": "address",
          "name": "_consensusMain",
          "type": "address"
        }
      ],
      "name": "setConsensusMain",
      "outputs": [],
      "stateMutability": "nonpayable",
      "type": "function"
    },
    {
      "inputs": [
        {
          "internalType": "address",
          "name": "_mockZkSyncAliasMessageInvoker",
          "type": "address"
        }
      ],
      "name": "setMockZkSyncAliasMessageInvoker",
      "outputs": [],
      "stateMutability": "nonpayable",
      "type": "function"
    },
    {
      "inputs": [
        {
          "internalType": "address",
          "name": "_queues",
          "type": "address"
        }
      ],
      "name": "setQueues",
      "outputs": [],
      "stateMutability": "nonpayable",
      "type": "function"
    },
    {
      "inputs": [
        {
          "internalType": "address",
          "name": "_transactions",
          "type": "address"
        }
      ],
      "name": "setTransactions",
      "outputs": [],
      "stateMutability": "nonpayable",
      "type": "function"
    },
    {
      "inputs": [
        {
          "internalType": "bytes4",
          "name": "interfaceId",
          "type": "bytes4"
        }
      ],
      "name": "supportsInterface",
      "outputs": [
        {
          "internalType": "bool",
          "name": "",
          "type": "bool"
        }
      ],
      "stateMutability": "view",
      "type": "function"
    },
    {
      "inputs": [],
      "name": "transactions",
      "outputs": [
        {
          "internalType": "contract ITransactions",
          "name": "",
          "type": "address"
        }
      ],
      "stateMutability": "view",
      "type": "function"
    },
    {
      "inputs": [
        {
          "internalType": "address",
          "name": "newOwner",
          "type": "address"
        }
      ],
      "name": "transferOwnership",
      "outputs": [],
      "stateMutability": "nonpayable",
      "type": "function"
    }
  ],
  "bytecode": "0x60808060405234601557615d3a908161001b8239f35b600080fdfe6102e080604052600436101561001457600080fd5b60003560e01c90816301e9ac55146129225750806301ffc9a7146128cc57806302fae85d14612838578063042de906146127d95780630949cda0146127bf5780630f36527a14612710578063136ee419146126ea578063151e9602146126a7578063180151911461267e578063184c6653146126535780631e6fcf3314612610578063248a9ca3146125f25780632f2ff15d146125c157806336568abe1461257b5780633b01d02b146120a35780633b33b61a146118b75780633ffebf5a1461188957806341ea949114611846578063499dbe791461181d5780634a49d992146110f65780634c7f0b8c146110cd57806357c4f80e146110a557806358b255ff1461104657806363657f8a1461102257806365165c4b14610fc35780637128928d14610dee578063715018a614610d6d5780637257053714610d1e57806379ba509714610cce578063849ab69314610caa5780638d0e363f14610c465780638da5cb5b14610c1057806391d1485414610bb65780639b3ec2e114610b7e578063a217fddf14610b62578063a85602a114610a63578063aeab83eb14610a30578063b00c7e04146109d1578063b61f75cb14610828578063c33bd9f1146106c5578063d36f147f1461069c578063d547741f14610664578063e05f827a14610636578063e30c397814610600578063e3f4c7c9146105d7578063e5c4a50914610594578063f2fde38b1461050d578063f8c8765e146102df5763fe4cfca71461023b57600080fd5b346102c65760203660031901126102c657610254612bbc565b600154604051635bb8433560e01b81526001600160a01b0392831660048201529160209183916024918391165afa80156102d35760009061029b575b602090604051908152f35b506020813d6020116102cb575b816102b560209383613167565b810103126102c65760209051610290565b600080fd5b3d91506102a8565b6040513d6000823e3d90fd5b346102c65760803660031901126102c6576102f8612bbc565b610300612bd2565b906044356001600160a01b03811691908290036102c6576064356001600160a01b03811692908390036102c657600080516020615cc5833981519152549360ff8560401c1615946001600160401b03811680159081610505575b60011490816104fb575b1590816104f2575b506104e15767ffffffffffffffff198116600117600080516020615cc583398151915255856104b4575b5061039f615c56565b6103a7615c56565b6103af615c56565b331561049e576103be33615be8565b6103c6615c56565b6103ce615c56565b60017f9b779b17422d0df92223018b32b4d1fa46e071723d6817e2486d003becc55f00556103fa615c56565b600080546001600160a01b03199081166001600160a01b03938416179091556001805482169390931790925560028054831693909116929092179091556003805490911691909117905561044a57005b60ff60401b19600080516020615cc58339815191525416600080516020615cc5833981519152557fc7f505b2f371ae2175ee4913f4499e1f2633a7b5936321eed1cdaeb6115181d2602060405160018152a1005b631e4fbdf760e01b600052600060045260246000fd5b68ffffffffffffffffff19166801000000000000000117600080516020615cc58339815191525585610396565b63f92ee8a960e01b60005260046000fd5b9050158761036c565b303b159150610364565b87915061035a565b346102c65760203660031901126102c657610526612bbc565b61052e615103565b600080516020615ce583398151915280546001600160a01b0319166001600160a01b03928316908117909155600080516020615c85833981519152549091167f38d16b8cac22d99fc7c124b9cd0de2d3fa1faef420bfe791d8c362d765e22700600080a3005b346102c65760203660031901126102c6576105ad612bbc565b6105b5615103565b600280546001600160a01b0319166001600160a01b0392909216919091179055005b346102c65760003660031901126102c6576001546040516001600160a01b039091168152602090f35b346102c65760003660031901126102c657600080516020615ce5833981519152546040516001600160a01b039091168152602090f35b346102c657606061064f6106493661301c565b90614653565b90604051921515835260208301526040820152f35b346102c65760403660031901126102c65761069a600435610683612bd2565b9061069561069082613e97565b615124565b615217565b005b346102c65760003660031901126102c6576003546040516001600160a01b039091168152602090f35b346102c65760203660031901126102c6576000546040516361d1549d60e11b8152600480359261012091839182906001600160a01b03165afa9081156102d3576000916107f9575b50604090810151905163ba15d63560e01b8152600481018390526001600160a01b0390911691602082602481865afa9182156102d3576000926107c4575b509060446000926040519485938492635af5446960e01b8452600484015260248301525afa9081156102d35761079d9160e0916000916107a1575b500151604051918291602083526020830190612c2c565b0390f35b6107be91503d806000833e6107b68183613167565b810190613cec565b83610786565b91506020823d6020116107f1575b816107df60209383613167565b810103126102c657905190604461074b565b3d91506107d2565b61081b91506101203d8111610821575b6108138183613167565b810190613a76565b8261070d565b503d610809565b346102c65760203660031901126102c6576002546040516361d1549d60e11b81529061012090829060049082906001600160a01b03165afa9081156102d35760249160009182916109a2575b5060c00151604051633717892560e01b8152600480359082015292839182906001600160a01b03165afa80156102d357600491600091610987575b506000546040516361d1549d60e11b8152926101209184919082906001600160a01b03165afa9182156102d3576004926000918291610968575b506020015160405163f524e9df60e01b815293849182906001600160a01b03165afa9182156102d3576109379261079d91600091610945575b50604051938493604085526040850190612c2c565b908382036020850152612c2c565b61096291503d806000833e61095a8183613167565b810190614174565b84610922565b61098191506101203d8111610821576108138183613167565b846108e9565b61099c91503d806000833e61095a8183613167565b826108af565b6109c491506101203d81116109ca575b6109bc8183613167565b810190613ed3565b83610874565b503d6109b2565b346102c65760203660031901126102c6576109ea612bbc565b6001546040516354fbf0bf60e11b81526001600160a01b0392831660048201529160209183916024918391165afa80156102d35760009061029b57602090604051908152f35b346102c65760203660031901126102c65761079d610a4f60043561447a565b604051918291602083526020830190612c2c565b346102c65760203660031901126102c6576000805460405163255709e560e11b81526004803590820152908290829060249082906001600160a01b03165afa8015610b5757610240918391610b35575b500180515190918115610b2757506000198101908111610b1157816040610afa610ae08460609651613774565b5151936020610af0828651613774565b5101519351613774565b510151905b60405192835260208301526040820152f35b634e487b7160e01b600052601160045260246000fd5b905060609150600080610aff565b610b5191503d8085833e610b498183613167565b810190613204565b83610ab3565b6040513d84823e3d90fd5b346102c65760003660031901126102c657602060405160008152f35b346102c65760203660031901126102c65761079d610ba2610b9d612bbc565b6143c9565b604051918291602083526020830190612d8e565b346102c65760403660031901126102c657610bcf612bd2565b600435600052600080516020615ca583398151915260205260406000209060018060a01b0316600052602052602060ff604060002054166040519015158152f35b346102c65760003660031901126102c657600080516020615c85833981519152546040516001600160a01b039091168152602090f35b346102c65760403660031901126102c657610c8e6020610c64612bbc565b60018060a01b036001541660405180809581946351b1c54760e11b83526024359060048401613726565b03915afa80156102d35760009061029b57602090604051908152f35b346102c65760203660031901126102c65761079d610ba2610cc9612bbc565b6142c1565b346102c65760003660031901126102c657600080516020615ce583398151915254336001600160a01b0390911603610d095761069a33615be8565b63118cdaa760e01b6000523360045260246000fd5b346102c65760003660031901126102c657600154604051637257053760e01b815290602090829060049082906001600160a01b03165afa80156102d35760009061029b57602090604051908152f35b346102c65760003660031901126102c657610d86615103565b600080516020615ce583398151915280546001600160a01b0319908116909155600080516020615c85833981519152805491821690556000906001600160a01b03167f8be0079c531659141344cd1fd0a4f28419497f9722a3daafe3b4186f6b6457e08280a3005b346102c65760646000610e0036612be8565b939091836080604051610e12816130f9565b610e1a614256565b8152610e24614256565b6020820152610e31614256565b6040820152826060820152015260018060a01b03600154166040519586948593637128928d60e01b855260018060a01b03166004850152602484015260448301525afa9081156102d357600091610eec575b506040518091602082526080610ed7610ec1610eab845160a0602088015260c0870190613032565b6020850151868203601f19016040880152613032565b6040840151858203601f19016060870152613032565b91606081015182850152015160a08301520390f35b3d8083833e610efb8183613167565b810190602081830312610fbb578051906001600160401b038211610fbf57019060a082820312610fbb5760405192610f32846130f9565b82516001600160401b038111610fb75782610f4e918501614277565b845260208301516001600160401b038111610fb75782610f6f918501614277565b60208501526040830151906001600160401b038211610fb457508291610f989160809401614277565b6040840152606081015160608401520151608082015281610e83565b80fd5b5080fd5b8280fd5b8380fd5b346102c65760203660031901126102c657610fdc612bbc565b6001546040516303d854f560e21b81526001600160a01b0392831660048201529160209183916024918391165afa80156102d35760009061029b57602090604051908152f35b346102c65760203660031901126102c65761079d610ba2611041612bbc565b6141c9565b346102c65760203660031901126102c65761105f612bbc565b600154604051633169e04360e01b81526001600160a01b0392831660048201529160209183916024918391165afa80156102d35760009061029b57602090604051908152f35b346102c65760206110be6110b83661301c565b906152b7565b6110cb6040518092612c1f565bf35b346102c65760003660031901126102c6576002546040516001600160a01b039091168152602090f35b346102c6576111043661301c565b90610180526111116135a8565b506000805460405163255709e560e11b8152610180516004820152916001600160a01b039091169082602481845afa9182156102d357600092611802575b506002546040516361d1549d60e11b81526001600160a01b0390911693909161012083600481885afa9283156102d357602493610100916000916117e3575b5060c0015160405163149ecac960e11b815261018051600482015294859182906001600160a01b03165afa9283156102d3576000936117b2575b506040516361d1549d60e11b815261012081600481895afa9081156102d357600091611793575b505160c085018051604051631c5f1acf60e31b81526001600160a01b03918216600482015291959260209183916024918391165afa9081156102d357600091611761575b5060018060a01b0360e08701511696600461012061010089015195604051928380926361d1549d60e11b82525afa9081156102d3576024916000918291611742575b5060409081015190516384c2483160e01b815261018051600482015292839182906001600160a01b03165afa80156102d35760006101005261010051610120526116e7575b50610120600491604051928380926361d1549d60e11b82525afa9081156102d35760249160009182916116c8575b5060c00151604051633717892560e01b815261018051600482015292839182906001600160a01b03165afa80156102d3576000610140526116aa575b506101205160e08101518051602090920151600060805290911561169e576001600160a01b03916113559190613774565b51166080525b6101a08601519081156116965750935b60018060a01b0360a0870151166101605260018060a01b039051166101a0526101208501519360a0825192015160c061012051015194600686101561168057602495610200890151936101c08a0151936102208b015196600060018060a01b03600354166040519b8c8092630c15982760e11b82526101805160048301525afa9889156102d35760209c60249b60009b61165b575b5060018060a01b03600154169d8e6040519d8e8092636262ae6b60e01b82526101805160048301525afa9b8c156102d35760009c61162a575b5060405163c404723360e01b81526101805160048201529d8e9081905a92602491602094fa9d8e156102d35760009e6115f4575b506102409061147f88610180516152b7565b60c05201805151600060e052156115c257519b8c51966000198801978811610b11576114b161150f9861153b9f613774565b5160e0525b60405160a0526114c760a0516130dd565b60a0515261016051602060a05101526101a051604060a0510152606060a0510152608060a051015260a08051015260c060a051015260e060a051015261010060a05101613ec7565b61012060a051015261014060a051015261016060a051015261018060a05101526101a060a051016141b1565b6101c060a05101526101e060a051015260018060a01b036080511661020060a051015261157060c05161022060a051016141bd565b6101805161024060a051015260e05161026060a05101526101005161028060a0510152610120516102a060a0510152610140516102c060a0510152604051602081528061079d6020820160a051612d8e565b5061153b9b61150f966040516115d7816130c2565b60e051815260e051602082015260e051604082015260e0526114b6565b909d506020813d602011611622575b8161161060209383613167565b810103126102c657519c61024061146d565b3d9150611603565b61164d919c5060203d602011611654575b6116458183613167565b810190614199565b9a8f611439565b503d61163b565b611679919b503d806000833e6116718183613167565b81019061343b565b998f611400565b634e487b7160e01b600052602160045260246000fd5b90509361136b565b5050600060805261135b565b6116be903d806000833e61095a8183613167565b6101405287611324565b6116e191506101203d81116109ca576109bc8183613167565b8a6112e8565b3d8061010051833e6116f98183613167565b81019160408284031261173b5781516020830151926001600160401b03841161173b576004946101209461172d9201613b96565b9061010052825291506112ba565b6101005180fd5b61175b91506101203d8111610821576108138183613167565b8b611275565b90506020813d60201161178b575b8161177c60209383613167565b810103126102c6575187611233565b3d915061176f565b6117ac91506101203d81116109ca576109bc8183613167565b866111ef565b6117d59193506101003d81116117dc575b6117cd8183613167565b81019061410f565b91856111c8565b503d6117c3565b6117fc91506101203d81116109ca576109bc8183613167565b8761118e565b61181691923d8091833e610b498183613167565b908361114f565b346102c65760003660031901126102c6576004546040516001600160a01b039091168152602090f35b346102c65760203660031901126102c65761185f612bbc565b611867615103565b600480546001600160a01b0319166001600160a01b0392909216919091179055005b346102c65760403660031901126102c65760206118af6118a7612bd2565b600435613fac565b604051908152f35b346102c65760003660031901126102c6576002546040516361d1549d60e11b8152906001600160a01b031661012082600481845afa9182156102d357600092612082575b506000546040516361d1549d60e11b81526001600160a01b039091169061012081600481855afa9081156102d357600091612063575b5060c0840180516040516361d1549d60e11b81529195919061010090829060049082906001600160a01b03165afa9081156102d357600091611f8f575b50604051946102006119808188613167565b600f8752601f190160005b818110611f6a57505060018060a01b0360e085015116966040516119ae816130a7565b60409889516119bd8b82613167565b600781526641707065616c7360c81b6020820152825260208201526119e188613741565b526119eb87613741565b5087516119f7816130a7565b8851611a038a82613167565b600d81526c436f6e73656e7375734461746160981b60208201528152306020820152600290611a3189613764565b52611a3b88613764565b50885192611a48846130a7565b8951611a548b82613167565b600d81526c21b7b739b2b739bab9a6b0b4b760991b602082015284526020840152600080198214611f56575087611ccb611ede989795611c778c611c1c611dc498611b75611e6d9c99611aba8a6001611d679c0194611ab3828d613774565b528a613774565b508a51855193611b1a916001600160a01b0316611ad6866130a7565b8751611ae28982613167565b601081526f21b7b739b2b739bab9a6b0b730b3b2b960811b602082015286526020860152611b0f81613eb8565b94611ab3828d613774565b5051845192906001600160a01b0316611b32846130a7565b8551611b3e8782613167565b600881526749646c656e65737360c01b602082015284526020840152611b6381613eb8565b92611b6e828b613774565b5288613774565b50600354835191611bc3916001600160a01b0316611b92846130a7565b8551611b9e8782613167565b60088152674d6573736167657360c01b602082015284526020840152611b6381613eb8565b5060018060a01b0360015416835193611bdb856130a7565b611be781519182613167565b600681526551756575657360d01b602082015284526020840152611c0a81613eb8565b92611c158289613774565b5286613774565b50888e01518e51906001600160a01b03168f611c37836130a7565b611c4381519182613167565b6006815265526f756e647360d01b602082015282526020820152611c7082611c6a81613eb8565b97613774565b528c613774565b5060a001518b5192906001600160a01b0316611c92846130a7565b8c51611c9e8e82613167565b60058152640a6d8c2e6d60db1b602082015284526020840152611cc081613eb8565b92611ab3828d613774565b5060808301518a5191611d1a916001600160a01b0316611cea846130a7565b8c51611cf68e82613167565b60078152665374616b696e6760c81b602082015284526020840152611cc081613eb8565b50895196611d27886130a7565b8a51611d338c82613167565b600c81526b5472616e73616374696f6e7360a01b602082015288526020880152611d5c81613eb8565b96611b6e828b613774565b5060e00151875194906001600160a01b0316611d82866130a7565b8851611d8e8a82613167565b600e81526d151c9a589d5b985b105c1c19585b60921b602082015286526020860152611db981613eb8565b94611c158289613774565b5060a0810151865193611e11916001600160a01b0316611de3866130a7565b8851611def8a82613167565b60058152645574696c7360d81b602082015286526020860152611db981613eb8565b5060600151855192906001600160a01b0316611e2c846130a7565b8651611e388882613167565b6006815265566f74696e6760d01b602082015284526020840152611e5b81613eb8565b92611e668287613774565b5284613774565b506004548451906001600160a01b0316611e86826130a7565b8551611e928782613167565b601d81527f4d6f636b5a6b53796e63416c6961734d657373616765496e766f6b6572000000602082015282526020820152611ecc82613eb8565b50611ed78285613774565b5282613774565b5081519060208201602083528151809152838301906020858260051b8601019301916000905b828210611f115785850386f35b90919293602080600192603f1989820301855287519082611f3983518d84528d840190612b97565b9281878060a01b0391015116910152960192019201909291611f04565b634e487b7160e01b81526011600452602490fd5b602090604051611f79816130a7565b6060815260008382015282828b0101520161198b565b610100813d821161205b575b81611fa96101009383613167565b81010312610fb75760405191611fbe8361308b565b81516001600160a01b0381168103610fb7578352611fde60208301613188565b6020840152611fef60408301613188565b604084015261200060608301613188565b606084015261201160808301613188565b608084015260a0820151906001600160a01b0382168203610fb457506120509160e09160a085015261204560c08201613188565b60c085015201613188565b60e08201528661196e565b3d9150611f9b565b61207c91506101203d8111610821576108138183613167565b84611931565b61209c9192506101203d81116109ca576109bc8183613167565b90826118fb565b346102c65760203660031901126102c65760043560006102806040516120c881613059565b8281528260208201528260408201528260608201528260808201528260a08201528260c08201528260e08201528261010082015282610120820152826101408201528261016082015282610180820152826101a0820152826101c0820152826101e082015260606102008201526060610220820152606061024082015282610260820152015260018060a01b0360005416906040519163255709e560e11b8352816004840152600083602481845afa9283156102d357600093612559575b50610120600491604051928380926361d1549d60e11b82525afa9081156102d35760009161253a575b50604090810151905163ba15d63560e01b8152600481018390526001600160a01b0390911691602082602481865afa9182156102d357600092612506575b506001820192838311610b1157612203846131ed565b936122116040519586613167565b808552612220601f19916131ed565b0160005b8181106124ef57505060005b83811115612480575050508151612458575b50906040519182916040835261225c604084018251612c12565b61226e60208201516060850190612c69565b61228060408201516080850190612c1f565b612292606082015160a0850190612c1f565b60018060a01b0360808201511660c084015260018060a01b0360a08201511660e084015260018060a01b0360c08201511661010084015260018060a01b0360e0820151166101208401526101008101516101408401526101208101516101608401526101408101516101808401526101608101516101a08401526101808101516101c08401526101a08101516101e08401526101c08101516102008401526101e081015161022084015261237461235c6102008301516102a06102408701526102e0860190612b97565b610220830151858203603f1901610260870152612b97565b9061024081015191603f19858203016102808601526020808451928381520193019060005b81811061241c57505050806102606102809201516102a086015201516102c08401528281036020840152815180825260208201916020808360051b8301019401926000915b8383106123eb5786860387f35b91939550919360208061240a600193601f198682030187528951612caa565b970193019301909286959492936123de565b919495509192602060608261244860019489516040809180518452602081015160208501520151910152565b0195019101918695949392612399565b61246460c09183613774565b51015160068110156116805761247a9083613ec7565b82612242565b60405190635af5446960e01b8252836004830152806024830152600082604481865afa80156102d3576124d1926000916124d6575b506124c08288613774565b526124cb8187613774565b50613eb8565b612230565b6124e9913d8091833e6107b68183613167565b886124b5565b6020906124fa613550565b82828901015201612224565b90916020823d602011612532575b8161252160209383613167565b81010312610fb457505190846121ed565b3d9150612514565b61255391506101203d8111610821576108138183613167565b836121af565b61257361012091600493953d8091833e610b498183613167565b939150612186565b346102c65760403660031901126102c657612594612bd2565b336001600160a01b038216036125b05761069a90600435615217565b63334bd91960e11b60005260046000fd5b346102c65760403660031901126102c65761069a6004356125e0612bd2565b906125ed61069082613e97565b61516e565b346102c65760203660031901126102c65760206118af600435613e97565b346102c65760203660031901126102c657612629612bbc565b612631615103565b600180546001600160a01b0319166001600160a01b0392909216919091179055005b346102c65760203660031901126102c6576020612671600435613d11565b6110cb6040518092612c12565b346102c65760003660031901126102c6576000546040516001600160a01b039091168152602090f35b346102c65760203660031901126102c6576126c0612bbc565b6126c8615103565b600080546001600160a01b0319166001600160a01b0392909216919091179055005b346102c65761079d6127046126fe36612be8565b91613941565b60405191829182612fbc565b346102c65760403660031901126102c65760015460405163079b293d60e11b81526004803590820152602480359082015290600090829060449082906001600160a01b03165afa80156102d35760009061277d575b61079d90604051918291602083526020830190612c76565b3d8082843e61278c8184613167565b820191602081840312610fb7578051916001600160401b038311610fb45750916127ba9161079d93016138e4565b612765565b346102c65761079d6127046127d336612be8565b91613788565b346102c65760203660031901126102c6576127f2612bbc565b60015460405163891ed77d60e01b81526001600160a01b0392831660048201529160209183916024918391165afa80156102d35760009061029b57602090604051908152f35b346102c65760203660031901126102c6576003546040516302fae85d60e01b8152600480359082015290602090829060249082906001600160a01b03165afa80156102d357600090612892575b6020906040519015158152f35b506020813d6020116128c4575b816128ac60209383613167565b810103126102c6576128bf60209161342e565b612885565b3d915061289f565b346102c65760203660031901126102c65760043563ffffffff60e01b81168091036102c657602090637965db0b60e01b8114908115612911575b506040519015158152f35b6301ffc9a760e01b14905082612906565b346102c65760203660031901126102c65760043560008260248160018060a01b0384541663255709e560e11b82528560048301525afa9182156102d357600092612b57575b50600354604051630c15982760e11b8152600481018390526001600160a01b0390911692600082602481875afa9182156102d357600092612b3a575b5060c00151604051639549390d60e01b8152600481018490526001600160a01b03909116939092602084602481855afa9384156102d357600094612b05575b5060209060246040518094819363a2fd112960e01b835260048301525afa9081156102d357600091612ad3575b5060405192608084019460808552835180965260a0850195602060a08260051b88010195019060005b818110612a58575050508495506020850152604084015260608301520390f35b909195609f1988820301895286519081516002811015611680576001928260209392849352848060a01b038383015116838201526040820151604082015260a080612ab2606085015160c0606086015260c0850190612b97565b93608081015115156080850152015191015298019901910197919097612a38565b90506020813d602011612afd575b81612aee60209383613167565b810103126102c6575184612a0f565b3d9150612ae1565b9093506020813d602011612b32575b81612b2160209383613167565b810103126102c657519260206129e2565b3d9150612b14565b612b509192503d806000833e6116718183613167565b90846129a3565b612b6d9192503d806000833e610b498183613167565b9082612967565b60005b838110612b875750506000910152565b8181015183820152602001612b77565b90602091612bb081518092818552858086019101612b74565b601f01601f1916010190565b600435906001600160a01b03821682036102c657565b602435906001600160a01b03821682036102c657565b60609060031901126102c6576004356001600160a01b03811681036102c657906024359060443590565b9060068210156116805752565b90600f8210156116805752565b906020808351928381520192019060005b818110612c4a5750505090565b82516001600160a01b0316845260209384019390920191600101612c3d565b9060058210156116805752565b906020808351928381520192019060005b818110612c945750505090565b8251845260209384019390920191600101612c87565b919091805183526020810151602084015260408101516040840152606081015160608401526080810151608084015260a081015160a0840152612cf560c082015160c0850190612c12565b612d1060e082015161016060e0860152610160850190612c2c565b92610100820151938181036101008301526020808651928381520195019060005b818110612d6f57505050610140612d5a612d6c9495610120850151848203610120860152612c76565b92015190610140818403910152612c76565b90565b90919560208082612d836001948b51612c69565b019701929101612d31565b8051825260018060a01b03602082015116602083015260018060a01b036040820151166040830152606081015160608301526080810151608083015260a081015160a083015260c081015160c083015260e081015160e0830152612dfc610100820151610100840190612c12565b610120810151610120830152612e3c612e28610140830151610320610140860152610320850190612b97565b610160830151848203610160860152612b97565b9161018082015192818103610180830152835180825260208201906020808260051b8501019601926000905b828210612f415750505050506101a082015192600484101561168057612f2f6102c091612d6c956101a08501526101c08501516101c085015260018060a01b036101e0860151166101e085015260018060a01b0361020086015116610200850152612edd610220860151610220860190612c1f565b610240850151610240850152612f116102608601516102608601906040809180518452602081015160208501520151910152565b610280850151838501526102a08501518482036102e0860152612caa565b92015190610300818403910152612c2c565b9091929396601f1982820301855287519081516002811015611680576001928260209392849352848060a01b038383015116838201526040820151604082015260a080612f9d606085015160c0606086015260c0850190612b97565b6080808601511515908501529301519101529901950193920190612e68565b602081016020825282518091526040820191602060408360051b8301019401926000915b838310612fef57505050505090565b909192939460208061300d600193603f198682030187528951612d8e565b97019301930191939290612fe0565b60409060031901126102c6576004359060243590565b9060606040612d6c9380518452602081015160208501520151918160408201520190612c76565b6102a081019081106001600160401b0382111761307557604052565b634e487b7160e01b600052604160045260246000fd5b61010081019081106001600160401b0382111761307557604052565b604081019081106001600160401b0382111761307557604052565b606081019081106001600160401b0382111761307557604052565b6102e081019081106001600160401b0382111761307557604052565b60a081019081106001600160401b0382111761307557604052565b60c081019081106001600160401b0382111761307557604052565b61016081019081106001600160401b0382111761307557604052565b61012081019081106001600160401b0382111761307557604052565b90601f801991011681019081106001600160401b0382111761307557604052565b51906001600160a01b03821682036102c657565b81601f820112156102c65780516001600160401b03811161307557604051926131cf601f8301601f191660200185613167565b818452602082840101116102c657612d6c9160208085019101612b74565b6001600160401b0381116130755760051b60200190565b6020818303126102c6578051906001600160401b0382116102c657016102a0818303126102c6576040519161323883613059565b815160068110156102c6578352602082015160058110156102c65760208401526040820151600f8110156102c65760408401526060820151600f8110156102c657606084015261328a60808301613188565b608084015261329b60a08301613188565b60a08401526132ac60c08301613188565b60c08401526132bd60e08301613188565b60e08401526101008201516101008401526101208201516101208401526101408201516101408401526101608201516101608401526101808201516101808401526101a08201516101a08401526101c08201516101c08401526101e08201516101e08401526102008201516001600160401b0381116102c6578161334291840161319c565b6102008401526102208201516001600160401b0381116102c6578161336891840161319c565b6102208401526102408201516001600160401b0381116102c657820181601f820112156102c65780519061339b826131ed565b926133a96040519485613167565b828452602060608186019402830101918183116102c657602001925b8284106133f257505050509061028091610240840152610260810151610260840152015161028082015290565b6060848303126102c657602060609160405161340d816130c2565b865181528287015183820152604087015160408201528152019301926133c5565b519081151582036102c657565b6020818303126102c6578051906001600160401b0382116102c6570181601f820112156102c65780519061346e826131ed565b9261347c6040519485613167565b82845260208085019360051b830101918183116102c65760208101935b8385106134a857505050505090565b84516001600160401b0381116102c657820160c0818503601f1901126102c657604051916134d583613114565b602082015160028110156102c65783526134f160408301613188565b6020840152606082015160408401526080820151926001600160401b0384116102c65760c08361352888602080988198010161319c565b606084015261353960a0820161342e565b6080840152015160a0820152815201940193613499565b6040519061355d8261312f565b60606101408360008152600060208201526000604082015260008382015260006080820152600060a0820152600060c08201528260e082015282610100820152826101208201520152565b604051906135b5826130dd565b60606102c08360008152600060208201526000604082015260008382015260006080820152600060a0820152600060c0820152600060e08201526000610100820152600061012082015282610140820152826101608201528261018082015260006101a082015260006101c082015260006101e0820152600061020082015260006102208201526000610240820152604051613650816130c2565b6000815260006020820152600060408201526102608201526000610280820152613678613550565b6102a08201520152565b60405190613691602083613167565b600080835282815b8281106136a557505050565b6020906136b06135a8565b82828501015201613699565b906136c6826131ed565b6136d36040519182613167565b82815280926136e4601f19916131ed565b019060005b8281106136f557505050565b6020906137006135a8565b828285010152016136e9565b91908201809211610b1157565b91908203918211610b1157565b6001600160a01b039091168152602081019190915260400190565b80511561374e5760200190565b634e487b7160e01b600052603260045260246000fd5b80516001101561374e5760400190565b805182101561374e5760209160051b010190565b600154604051633169e04360e01b81526001600160a01b0383811660048301529294909290911690602083602481855afa9283156102d3576000936138b0575b50828410156138a3576137db908461370c565b9180831161389b575b506137f76137f28484613719565b6136bc565b93835b83811061380957505050505090565b604051632a69ae7d60e01b815260208180613828858760048401613726565b0381875afa9081156102d357600091613868575b509061386161384c6001936149f7565b6138568884613719565b90611b6e828b613774565b50016137fa565b906020823d8211613893575b8161388160209383613167565b81010312610fb457505161386161383c565b3d9150613874565b9150386137e4565b5050505050612d6c613682565b90926020823d6020116138dc575b816138cb60209383613167565b81010312610fb457505191386137c8565b3d91506138be565b9080601f830112156102c65781516138fb816131ed565b926139096040519485613167565b81845260208085019260051b8201019283116102c657602001905b8282106139315750505090565b8151815260209182019101613924565b60015460405163891ed77d60e01b81526001600160a01b0383811660048301529294909290911690602083602481855afa9283156102d357600093613a42575b50828410156138a357613994908461370c565b91808311613a3a575b506139ab6137f28484613719565b93835b8381106139bd57505050505090565b60405163b1d9fb6360e01b8152602081806139dc858760048401613726565b0381875afa9081156102d357600091613a07575b5090613a0061384c6001936149f7565b50016139ae565b906020823d8211613a32575b81613a2060209383613167565b81010312610fb4575051613a006139f0565b3d9150613a13565b91503861399d565b90926020823d602011613a6e575b81613a5d60209383613167565b81010312610fb45750519138613981565b3d9150613a50565b90816101209103126102c65760405190613a8f8261314b565b613a9881613188565b8252613aa660208201613188565b6020830152613ab760408201613188565b604083015260608101516001600160a01b03811681036102c657613b2891610100916060850152613aea60808201613188565b6080850152613afb60a08201613188565b60a0850152613b0c60c08201613188565b60c0850152613b1d60e08201613188565b60e085015201613188565b61010082015290565b9080601f830112156102c6578151613b48816131ed565b92613b566040519485613167565b81845260208085019260051b8201019283116102c657602001905b828210613b7e5750505090565b60208091613b8b84613188565b815201910190613b71565b9190610160838203126102c65760405190613bb08261312f565b8193805183526020810151602084015260408101516040840152606081015160608401526080810151608084015260a081015160a084015260c081015160068110156102c65760c084015260e08101516001600160401b0381116102c65782613c1a918301613b31565b60e08401526101008101516001600160401b0381116102c657810182601f820112156102c6578051613c4b816131ed565b91613c596040519384613167565b81835260208084019260051b820101908582116102c657602001915b818310613cd3575050506101008401526101208101516001600160401b0381116102c65782613ca59183016138e4565b610120840152610140810151916001600160401b0383116102c65761014092613cce92016138e4565b910152565b825160058110156102c657815260209283019201613c75565b906020828203126102c65781516001600160401b0381116102c657612d6c9201613b96565b6000546040516361d1549d60e11b81529061012090829060049082906001600160a01b03165afa9081156102d357600091613e78575b50604060018060a01b03910151169060405163ba15d63560e01b8152816004820152602081602481865afa9081156102d357600091613e46575b508015613e3e57600181811603613df05760446000926040519485938492635af5446960e01b8452600484015260248301525afa80156102d35760c091600091613dd5575b50015160068110156116805790565b613dea91503d806000833e6107b68183613167565b38613dc6565b6000198101908111610b115760446000926040519485938492635af5446960e01b8452600484015260248301525afa80156102d35760c091600091613dd55750015160068110156116805790565b505050600090565b906020823d602011613e70575b81613e6060209383613167565b81010312610fb457505138613d81565b3d9150613e53565b613e9191506101203d8111610821576108138183613167565b38613d47565b600052600080516020615ca583398151915260205260016040600020015490565b6000198114610b115760010190565b60068210156116805752565b90816101209103126102c657600060405191613eee8361314b565b80516001600160a01b0381168103610fbb578352613f0e60208201613188565b6020840152613f1f60408201613188565b604084015260608101516001600160a01b0381168103610fbb576060840152613f4a60808201613188565b608084015260a08101516001600160a01b0381168103610fbb5760a084015261010090613f7960c08201613188565b60c0850152613f8a60e08201613188565b60e08501520151906001600160a01b0382168203610fb4575061010082015290565b6000546040516361d1549d60e11b81529061012090829060049082906001600160a01b03165afa9081156102d3576000916140f0575b50604090810151905163ba15d63560e01b8152600481018390526001600160a01b0390911691602082602481865afa9182156102d3576000926140bb575b509060446000926040519485938492635af5446960e01b8452600484015260248301525afa80156102d35760e0916000916140a0575b5001519060005b8251811015614097576001600160a01b036140788285613774565b51166001600160a01b038316146140915760010161405d565b91505090565b50505060001990565b6140b591503d806000833e6107b68183613167565b38614056565b91506020823d6020116140e8575b816140d660209383613167565b810103126102c6579051906044614020565b3d91506140c9565b61410991506101203d8111610821576108138183613167565b38613fe2565b90816101009103126102c65760e06040519161412a8361308b565b805183526020810151602084015260408101516040840152606081015160608401526080810151608084015260a081015160a084015260c081015160c0840152015160e082015290565b906020828203126102c65781516001600160401b0381116102c657612d6c9201613b31565b908160209103126102c6575160048110156102c65790565b60048210156116805752565b600f8210156116805752565b6141d16135a8565b6001546040516365728e6960e11b81526001600160a01b039384166004820152919260209183916024918391165afa9081156102d357600091614224575b50801561422057612d6c91506149f7565b5090565b906020823d60201161424e575b8161423e60209383613167565b81010312610fb45750513861420f565b3d9150614231565b60405190614263826130c2565b606060408360008152600060208201520152565b91906060838203126102c65760405190614290826130c2565b819380518352602081015160208401526040810151916001600160401b0383116102c657604092613cce92016138e4565b6142c96135a8565b6001546040516303d854f560e21b81526001600160a01b0384811660048301529091169291602082602481875afa9182156102d357600092614395575b50811561438e57506000198101908111610b115760405163c213099560e01b81529260209284928391829161433e9160048401613726565b03915afa80156102d35760009061435a575b612d6c91506149f7565b506020813d602011614386575b8161437460209383613167565b810103126102c657612d6c9051614350565b3d9150614367565b9250505090565b90916020823d6020116143c1575b816143b060209383613167565b81010312610fb45750519038614306565b3d91506143a3565b6143d16135a8565b60015460405163891ed77d60e01b81526001600160a01b0384811660048301529091169291602082602481875afa9182156102d357600092614446575b50811561438e57506000198101908111610b115760405163b1d9fb6360e01b81529260209284928391829161433e9160048401613726565b90916020823d602011614472575b8161446160209383613167565b81010312610fb4575051903861440e565b3d9150614454565b6000546040516361d1549d60e11b81529061012090829060049082906001600160a01b03165afa9081156102d3576000916145e4575b50604060018060a01b03910151169060405163ba15d63560e01b8152816004820152602081602481865afa9081156102d3576000916145b2575b508015614595576001818116036145505760446000926040519485938492635af5446960e01b8452600484015260248301525afa80156102d35760e091600091614535575b50015190565b61454a91503d806000833e6107b68183613167565b3861452f565b6000198101908111610b115760446000926040519485938492635af5446960e01b8452600484015260248301525afa80156102d35760e0916000916145355750015190565b5050506040516145a6602082613167565b60008152600036813790565b906020823d6020116145dc575b816145cc60209383613167565b81010312610fb4575051386144ea565b3d91506145bf565b6145fd91506101203d8111610821576108138183613167565b386144b0565b908160c09103126102c65760a06040519161461d83613114565b8051835260208101516020840152604081015160408401526060810151606084015260808101516080840152015160a082015290565b91906024600060018060a01b038154166040519283809263255709e560e11b82528860048301525afa9081156102d3576000916149dc575b506002546040516361d1549d60e11b8152926001600160a01b03909116919061012084600481865afa9384156102d357602494610100916000916149bd575b5060c0015160405163149ecac960e11b81526004810189905295869182906001600160a01b03165afa9384156102d35760009461499c575b5080614996575042945b6060820191825192600f8410156116805760056000941415908161497f575b81614954575b8161492a575b5061491e576040516361d1549d60e11b815261012081600481885afa9081156148b05760049160c09186916148ff575b5081015160405163e70c38f160e01b815292839182906001600160a01b03165afa9081156148b05760a09160809186916148d0575b5001519501936147ad86865161370c565b88106148bb57610120600491604051928380926361d1549d60e11b82525afa9081156148b0579161481b93916020938691614891575b5060409081015160c09092015190516378e6dfbb60e11b81529485936001600160a01b03938416938593849392911660048401613726565b03915afa908115610b57578291614857575b501561484e575061484891614842915161370c565b83613719565b60019291565b93928492509050565b90506020813d602011614889575b8161487260209383613167565b81010312610fb7576148839061342e565b3861482d565b3d9150614865565b6148aa91506101203d81116109ca576109bc8183613167565b386147e3565b6040513d86823e3d90fd5b50505092916148ca915161370c565b91929190565b6148f2915060c03d60c0116148f8575b6148ea8183613167565b810190614603565b3861479c565b503d6148e0565b61491891506101203d81116109ca576109bc8183613167565b38614767565b50509291505081929190565b905051600f81101561494057600d141538614737565b634e487b7160e01b84526021600452602484fd5b80915051600f81101561496b57600c141590614731565b634e487b7160e01b85526021600452602485fd5b80915051600f81101561496b57600614159061472b565b9461470c565b6149b69194506101003d81116117dc576117cd8183613167565b9238614702565b6149d691506101203d81116109ca576109bc8183613167565b386146ca565b6149f191503d806000833e610b498183613167565b3861468b565b61020052614a036135a8565b506000805460405163255709e560e11b8152610200516004820152916001600160a01b039091169082602481845afa9182156102d3576000926150e8575b506002546040516361d1549d60e11b8152916001600160a01b039091169061012083600481855afa9283156102d357602493610100916000916150c9575b5060c0015160405163149ecac960e11b815261020051600482015294859182906001600160a01b03165afa9283156102d3576000936150a1575b50610120600491604051928380926361d1549d60e11b82525afa9081156102d357600091615082575b50604090810151905163ba15d63560e01b81526102005160048201526001600160a01b0390911690602081602481855afa80156102d357600061024052615046575b50600060449160405192838092635af5446960e01b82526102005160048301526102405160248301525afa80156102d357600061026052615026575b506040516361d1549d60e11b815261012081600481855afa9081156102d3576024916000918291615007575b5060c00151604051633717892560e01b815261020051600482015292839182906001600160a01b03165afa80156102d357600061028052614fe9575b506101a083018051909160009115614f17575050515b60a08381015160c0808601516001600160a01b039081166102a0526101208701516102c0526101008701518651969094015161026051909201519194921690600681101561168057602491610200880151906101c0890151906102208a015193600060018060a01b036003541660405197888092630c15982760e11b82526102005160048301525afa9586156102d357600096614efa575b50600154604051636262ae6b60e01b8152610200516004820152996001600160a01b03909116979060208b6024818c5afa9889156102d35760249b60009a614ed8575b506020906040519c8d809263c404723360e01b82526102005160048301525afa9a8b156102d35760009b614ea4575b5060e0808e015161026051918201516020909201516001600160a01b039182169e926102409291614d1891613774565b51169e614d2842610200516152b7565b6101c0520180515160006102205215614e6e57519a8b51956000198701968711610b1157614d5c614dc897614df99e613774565b51610220525b6040516101e052614d756101e0516130dd565b426101e0515260206101e05101526102a05160406101e05101526102c05160606101e051015260806101e051015260a06101e051015260c06101e051015260e06101e05101526101006101e05101613ec7565b6101206101e05101526101406101e05101526101606101e05101526101806101e05101526101a06101e051016141b1565b6101c06101e05101526101e0805101526102006101e0510152614e266101c0516102206101e051016141bd565b610200516102406101e0510152610220516102606101e0510152610240516102806101e0510152610260516102a06101e0510152610280516102c06101e05101526101e05190565b50614df99a614dc895604051614e83816130c2565b61022051815261022051602082015261022051604082015261022052614d62565b909a506020813d602011614ed0575b81614ec060209383613167565b810103126102c657519938614ce8565b3d9150614eb3565b6020919a50614ef390823d8411611654576116458183613167565b9990614cb9565b614f109196503d806000833e6116718183613167565b9438614c76565b6040516361d1549d60e11b815291925061012090829060049082905afa908115610b57578291614fca575b505160c0840151604051631c5f1acf60e31b81526001600160a01b0391821660048201529160209183916024918391165afa918215614fbe578092614f89575b5050614bde565b9091506020823d602011614fb6575b81614fa560209383613167565b81010312610fb45750513880614f82565b3d9150614f98565b604051903d90823e3d90fd5b614fe391506101203d81116109ca576109bc8183613167565b38614f42565b614ffd903d806000833e61095a8183613167565b6102805238614bc8565b61502091506101203d81116109ca576109bc8183613167565b38614b8c565b61503c903d8061026051833e6107b68183613167565b6102605238614b60565b6020813d60201161507a575b8161505f60209383613167565b810103126150735751610240526000614b24565b6102405180fd5b3d9150615052565b61509b91506101203d8111610821576108138183613167565b38614ae2565b60049193506150c1610120916101003d81116117dc576117cd8183613167565b939150614ab9565b6150e291506101203d81116109ca576109bc8183613167565b38614a7f565b6150fc91923d8091833e610b498183613167565b9038614a41565b600080516020615c85833981519152546001600160a01b03163303610d0957565b6000818152600080516020615ca58339815191526020908152604080832033845290915290205460ff16156151565750565b63e2517d3f60e01b6000523360045260245260446000fd5b6000818152600080516020615ca5833981519152602090815260408083206001600160a01b038616845290915290205460ff16615210576000818152600080516020615ca5833981519152602090815260408083206001600160a01b0395909516808452949091528120805460ff19166001179055339291907f2f8788117e7eff1d82e926ec794901d17c78024a50270940304540a733656f0d9080a4600190565b5050600090565b6000818152600080516020615ca5833981519152602090815260408083206001600160a01b038616845290915290205460ff1615615210576000818152600080516020615ca5833981519152602090815260408083206001600160a01b0395909516808452949091528120805460ff19169055339291907ff6391f5c32d9c69d2a47ea670b442974b53935d1edc7fd64eb21e047a839171b9080a4600190565b6000805460405163255709e560e11b815260048101849052916001600160a01b039091169082602481845afa9182156102d357600092615bcb575b506002546040516361d1549d60e11b81526001600160a01b03909116949061012081600481895afa9081156102d35760049160c091600091615bac575b5081015160405163e70c38f160e01b815292839182906001600160a01b03165afa9081156102d357600091615b8d575b506040516361d1549d60e11b815290610120826004818a5afa9182156102d35760249261010091600091615b6e575b5060c0015160405163149ecac960e11b81526004810189905293849182906001600160a01b03165afa9182156102d357600092615b4d575b506060850192835197600f891015611680576000986004036157b7575060a08301928351801515908161579e575b508015615751575b1561540f57505050505050505050600b90565b60e00151928315159384615747575b8461572c575b5083156156fa575b5050506000146156d357506040516361d1549d60e11b815261012081600481855afa9081156156c85785916156a9575b50604090810151905163ba15d63560e01b8152600481018590526001600160a01b0390911693602082602481885afa91821561569e57908692918392615663575b506044906040519687938492635af5446960e01b8452600484015260248301525afa9283156148b0578493615640575b50610120600491604051928380926361d1549d60e11b82525afa9081156148b057906101e0918591615621575b50606060018060a01b039101511691015161014061010084015193015192604051938492630e5cc50b60e41b845260648401906004850152606060248501528251809152602060848501930190875b8181106155fc575050508261556e602095938293600319848303016044850152612c76565b03915afa908115610b575782916155c1575b5060068110156155ad5760018103615599575050600590565b6003141590506155a857600c90565b600690565b634e487b7160e01b82526021600452602482fd5b90506020813d6020116155f4575b816155dc60209383613167565b81010312610fb757516006811015610fb75738615580565b3d91506155cf565b9194509192602080826156126001948951612c69565b01950191019186949392615549565b61563a91506101203d8111610821576108138183613167565b386154fa565b600491935061565b610120913d8088833e6107b68183613167565b9391506154cd565b915091506020813d602011615696575b8161568060209383613167565b8101031261569257518591604461549d565b8580fd5b3d9150615673565b6040513d88823e3d90fd5b6156c291506101203d8111610821576108138183613167565b3861545c565b6040513d87823e3d90fd5b925050505190600f8210156156e6575090565b634e487b7160e01b81526021600452602490fd5b518015159350909183615713575b50505038808061542c565b615723929350608001519061370c565b11388080615708565b61573d91945060608401519061370c565b8110159238615424565b815115945061541e565b5060e08101518015159081615794575b8161576d575b506153fc565b606085015161578b92506157809161370c565b60808501519061370c565b82101538615767565b8551159150615761565b6157ae915060808501519061370c565b821015386153f4565b929450945094508151600f811015615b395760050361581157505060a0015180151593509091836157f7575b5050506000146157f257600b90565b600590565b615807929350608001519061370c565b11153880806157e3565b8194929151600f811015615b3957600e0361592d57610120600491604051928380926361d1549d60e11b82525afa90811561569e576004939291602091889161590e575b5060c0015160405162b9525760e71b815294859182906001600160a01b03165afa92831561569e5786936158d9575b50608060a0910151910151918281029281840414901517156158c557906158aa9161370c565b116158b6575050600690565b5190600f8210156156e6575090565b634e487b7160e01b85526011600452602485fd5b9092506020813d602011615906575b816158f560209383613167565b810103126156925751916080615884565b3d91506158e8565b61592791506101203d81116109ca576109bc8183613167565b38615855565b50918351600f811015615b2557600d036159d057606083019182519384151594856159b5575b50841561596d575b505050506000146158b6575050600b90565b6040015180151594509192846159ab575b5083615991575b5050503880808061595b565b6159a1929350608001519061370c565b1115388080615985565b511593503861597e565b6159c691955060808301519061370c565b8210159338615953565b90918351600f811015615b2557600c03615a1d5760a001518015159283615a03575b5050506000146158b6575050600b90565b615a13929350608001519061370c565b11153880806159f2565b91908351600f811015615b2557600614615a43575050505190600f8210156156e6575090565b60a08301518015159550919350919084615b0a575b508315615acb575b8315615a76575b5050506000146155a857600b90565b60600151801515935090919083615a93575b505050388080615a67565b615ac1929350615ab8615aad60809260408501519061370c565b60608401519061370c565b9101519061370c565b1115388080615a88565b925060808301518015159081615ae3575b5092615a60565b6060840151615b019250615af69161370c565b60808401519061370c565b81101538615adc565b615b1b91945060808401519061370c565b8110159238615a58565b634e487b7160e01b86526021600452602486fd5b634e487b7160e01b87526021600452602487fd5b615b679192506101003d81116117dc576117cd8183613167565b90386153c6565b615b8791506101203d81116109ca576109bc8183613167565b3861538e565b615ba6915060c03d60c0116148f8576148ea8183613167565b3861535f565b615bc591506101203d81116109ca576109bc8183613167565b3861532f565b615be19192503d806000833e610b498183613167565b90386152f2565b600080516020615ce583398151915280546001600160a01b0319908116909155600080516020615c8583398151915280549182166001600160a01b0393841690811790915591167f8be0079c531659141344cd1fd0a4f28419497f9722a3daafe3b4186f6b6457e0600080a3565b60ff600080516020615cc58339815191525460401c1615615c7357565b631afcd79f60e31b60005260046000fdfe9016d09d72d40fdae2fd8ceac6b6234c7706214fd39c1cd1e609a0528c19930002dd7bc7dec4dceedda775e58dd541e08a116c6c53815c0bd028192f7b626800f0c57e16840df040f15088dc2f81fe391c3923bec73e23a9662efc9c229c6a00237e158222e3e6968b72b9db0d8043aacf074ad9f650f0d1606b4d82ee432c00a2646970667358221220ff6e74dc4b5b547bf19db14abbedc7ffb7a6d9d540f70101744a6287251ba12764736f6c634300081c0033",
  "linkReferences": {},
  "deployedLinkReferences": {}
}