{
  "_format": "hh-sol-artifact-1",
  "contractName": "MockGenStaking",
  "sourceName": "contracts/test-helpers/MockGenStaking.sol",
  "abi": [
    {
      "inputs": [
        {
          "internalType": "address",
          "name": "_transactions",
          "type": "address"
        }
      ],
      "stateMutability": "nonpayable",
      "type": "constructor"
    },
    {
      "inputs": [],
      "name": "ArrayLengthMismatch",
      "type": "error"
    },
    {
      "inputs": [],
      "name": "BurnTransferFailed",
      "type": "error"
    },
    {
      "inputs": [],
      "name": "DeepthoughtCallFailed",
      "type": "error"
    },
    {
      "inputs": [],
      "name": "DelegatorBelowMinimumStake",
      "type": "error"
    },
    {
      "inputs": [],
      "name": "DelegatorExitExceedsShares",
      "type": "error"
    },
    {
      "inputs": [],
      "name": "DelegatorExitWouldBeBelowMinimum",
      "type": "error"
    },
    {
      "inputs": [],
      "name": "DelegatorMayNotExitWithZeroShares",
      "type": "error"
    },
    {
      "inputs": [],
      "name": "DelegatorMayNotJoinTwoValidatorsSimultaneously",
      "type": "error"
    },
    {
      "inputs": [],
      "name": "DelegatorMayNotJoinWithZeroValue",
      "type": "error"
    },
    {
      "inputs": [],
      "name": "DelegatorMustExitAllWhenBelowMinimum",
      "type": "error"
    },
    {
      "inputs": [],
      "name": "EpochAdvanceNotReady",
      "type": "error"
    },
    {
      "inputs": [],
      "name": "EpochAlreadyFinalized",
      "type": "error"
    },
    {
      "inputs": [],
      "name": "EpochNotFinalized",
      "type": "error"
    },
    {
      "inputs": [],
      "name": "EpochNotFinished",
      "type": "error"
    },
    {
      "inputs": [
        {
          "internalType": "address",
          "name": "validator",
          "type": "address"
        }
      ],
      "name": "FailedTransfer",
      "type": "error"
    },
    {
      "inputs": [],
      "name": "InflationAlreadyInitialized",
      "type": "error"
    },
    {
      "inputs": [],
      "name": "InflationAlreadyReceived",
      "type": "error"
    },
    {
      "inputs": [],
      "name": "InflationInvalidAmount",
      "type": "error"
    },
    {
      "inputs": [],
      "name": "InflationRequestFailed",
      "type": "error"
    },
    {
      "inputs": [],
      "name": "InsufficientInflationFunds",
      "type": "error"
    },
    {
      "inputs": [],
      "name": "InvalidAtEpoch",
      "type": "error"
    },
    {
      "inputs": [],
      "name": "InvalidInflationThresholds",
      "type": "error"
    },
    {
      "inputs": [],
      "name": "InvalidOperatorAddress",
      "type": "error"
    },
    {
      "inputs": [],
      "name": "MaxNumberOfValidatorsReached",
      "type": "error"
    },
    {
      "inputs": [],
      "name": "MaxValidatorsCannotBeZero",
      "type": "error"
    },
    {
      "inputs": [],
      "name": "NFTMinterCallFailed",
      "type": "error"
    },
    {
      "inputs": [],
      "name": "NFTMinterNotConfigured",
      "type": "error"
    },
    {
      "inputs": [],
      "name": "NoBurning",
      "type": "error"
    },
    {
      "inputs": [],
      "name": "NoValidatorsAvailable",
      "type": "error"
    },
    {
      "inputs": [],
      "name": "NumberOfValidatorsExceedsAvailable",
      "type": "error"
    },
    {
      "inputs": [],
      "name": "OnlyGEN",
      "type": "error"
    },
    {
      "inputs": [],
      "name": "OnlyIdleness",
      "type": "error"
    },
    {
      "inputs": [],
      "name": "OnlyIdlenessOrTribunal",
      "type": "error"
    },
    {
      "inputs": [],
      "name": "OnlyTransactions",
      "type": "error"
    },
    {
      "inputs": [],
      "name": "OnlyTransactionsOrTribunal",
      "type": "error"
    },
    {
      "inputs": [],
      "name": "OnlyTribunal",
      "type": "error"
    },
    {
      "inputs": [],
      "name": "OperatorAlreadyAssigned",
      "type": "error"
    },
    {
      "inputs": [
        {
          "internalType": "uint256",
          "name": "epoch",
          "type": "uint256"
        }
      ],
      "name": "PendingTribunals",
      "type": "error"
    },
    {
      "inputs": [],
      "name": "PreviousEpochNotFinalizable",
      "type": "error"
    },
    {
      "inputs": [],
      "name": "ReductionFactorCannotBeZero",
      "type": "error"
    },
    {
      "inputs": [],
      "name": "ValidValidatorNotFound",
      "type": "error"
    },
    {
      "inputs": [],
      "name": "ValidatorAlreadyInTree",
      "type": "error"
    },
    {
      "inputs": [],
      "name": "ValidatorAlreadyJoined",
      "type": "error"
    },
    {
      "inputs": [],
      "name": "ValidatorBelowMinimumStake",
      "type": "error"
    },
    {
      "inputs": [],
      "name": "ValidatorDoesNotExist",
      "type": "error"
    },
    {
      "inputs": [],
      "name": "ValidatorExitExceedsShares",
      "type": "error"
    },
    {
      "inputs": [],
      "name": "ValidatorMayNotBeDelegator",
      "type": "error"
    },
    {
      "inputs": [],
      "name": "ValidatorMayNotDepositZeroValue",
      "type": "error"
    },
    {
      "inputs": [],
      "name": "ValidatorMayNotJoinWithZeroValue",
      "type": "error"
    },
    {
      "inputs": [],
      "name": "ValidatorMustNotBeDelegator",
      "type": "error"
    },
    {
      "inputs": [],
      "name": "ValidatorNotActive",
      "type": "error"
    },
    {
      "inputs": [],
      "name": "ValidatorNotInTree",
      "type": "error"
    },
    {
      "inputs": [],
      "name": "ValidatorNotJoined",
      "type": "error"
    },
    {
      "inputs": [],
      "name": "ValidatorWithdrawalExceedsStake",
      "type": "error"
    },
    {
      "inputs": [],
      "name": "ValidatorsConsumed",
      "type": "error"
    },
    {
      "inputs": [],
      "name": "ValidatorsUnavailable",
      "type": "error"
    },
    {
      "anonymous": false,
      "inputs": [
        {
          "indexed": false,
          "internalType": "address",
          "name": "validator",
          "type": "address"
        },
        {
          "indexed": false,
          "internalType": "uint256",
          "name": "newVStake",
          "type": "uint256"
        },
        {
          "indexed": false,
          "internalType": "bool",
          "name": "recordX",
          "type": "bool"
        }
      ],
      "name": "AdminStakeCorrected",
      "type": "event"
    },
    {
      "anonymous": false,
      "inputs": [],
      "name": "AllValidatorBansRemoved",
      "type": "event"
    },
    {
      "anonymous": false,
      "inputs": [
        {
          "indexed": false,
          "internalType": "uint256",
          "name": "amount",
          "type": "uint256"
        }
      ],
      "name": "BurnFailed",
      "type": "event"
    },
    {
      "anonymous": false,
      "inputs": [
        {
          "indexed": false,
          "internalType": "uint256",
          "name": "amount",
          "type": "uint256"
        }
      ],
      "name": "BurnToL1",
      "type": "event"
    },
    {
      "anonymous": false,
      "inputs": [
        {
          "indexed": false,
          "internalType": "uint256",
          "name": "epochNumber",
          "type": "uint256"
        },
        {
          "indexed": false,
          "internalType": "address",
          "name": "validator",
          "type": "address"
        },
        {
          "indexed": false,
          "internalType": "uint256",
          "name": "priorWeight",
          "type": "uint256"
        },
        {
          "indexed": false,
          "internalType": "uint256",
          "name": "epochWeight",
          "type": "uint256"
        }
      ],
      "name": "CorruptedEpochWeight",
      "type": "event"
    },
    {
      "anonymous": false,
      "inputs": [
        {
          "indexed": false,
          "internalType": "address",
          "name": "delegator",
          "type": "address"
        },
        {
          "indexed": false,
          "internalType": "uint256",
          "name": "amount",
          "type": "uint256"
        }
      ],
      "name": "DelegatorClaim",
      "type": "event"
    },
    {
      "anonymous": false,
      "inputs": [
        {
          "indexed": false,
          "internalType": "address",
          "name": "validator",
          "type": "address"
        },
        {
          "indexed": false,
          "internalType": "address",
          "name": "delegator",
          "type": "address"
        },
        {
          "indexed": false,
          "internalType": "uint256",
          "name": "amount",
          "type": "uint256"
        }
      ],
      "name": "DelegatorExit",
      "type": "event"
    },
    {
      "anonymous": false,
      "inputs": [
        {
          "indexed": false,
          "internalType": "address",
          "name": "validator",
          "type": "address"
        },
        {
          "indexed": false,
          "internalType": "address",
          "name": "delegator",
          "type": "address"
        },
        {
          "indexed": false,
          "internalType": "uint256",
          "name": "amount",
          "type": "uint256"
        }
      ],
      "name": "DelegatorJoin",
      "type": "event"
    },
    {
      "anonymous": false,
      "inputs": [
        {
          "indexed": false,
          "internalType": "uint256",
          "name": "epoch",
          "type": "uint256"
        }
      ],
      "name": "EpochAdvance",
      "type": "event"
    },
    {
      "anonymous": false,
      "inputs": [
        {
          "indexed": false,
          "internalType": "uint256",
          "name": "epoch",
          "type": "uint256"
        }
      ],
      "name": "EpochFinalize",
      "type": "event"
    },
    {
      "anonymous": false,
      "inputs": [
        {
          "indexed": false,
          "internalType": "uint256",
          "name": "epoch",
          "type": "uint256"
        }
      ],
      "name": "EpochHasPendingTribunals",
      "type": "event"
    },
    {
      "anonymous": false,
      "inputs": [
        {
          "indexed": false,
          "internalType": "uint256",
          "name": "timestamp",
          "type": "uint256"
        }
      ],
      "name": "EpochZeroEnded",
      "type": "event"
    },
    {
      "anonymous": false,
      "inputs": [
        {
          "indexed": true,
          "internalType": "address",
          "name": "sender",
          "type": "address"
        },
        {
          "indexed": false,
          "internalType": "uint256",
          "name": "amount",
          "type": "uint256"
        }
      ],
      "name": "FeesReceived",
      "type": "event"
    },
    {
      "anonymous": false,
      "inputs": [
        {
          "indexed": false,
          "internalType": "uint256",
          "name": "timestamp",
          "type": "uint256"
        }
      ],
      "name": "InflationInitiated",
      "type": "event"
    },
    {
      "anonymous": false,
      "inputs": [
        {
          "indexed": false,
          "internalType": "uint256",
          "name": "amount",
          "type": "uint256"
        },
        {
          "indexed": false,
          "internalType": "uint256",
          "name": "epoch",
          "type": "uint256"
        }
      ],
      "name": "InflationReceived",
      "type": "event"
    },
    {
      "anonymous": false,
      "inputs": [
        {
          "indexed": true,
          "internalType": "uint256",
          "name": "targetEpoch",
          "type": "uint256"
        },
        {
          "indexed": false,
          "internalType": "uint256",
          "name": "l2GasPrice",
          "type": "uint256"
        },
        {
          "indexed": false,
          "internalType": "uint256",
          "name": "l2GasLimit",
          "type": "uint256"
        }
      ],
      "name": "InflationRequestedFromL2",
      "type": "event"
    },
    {
      "anonymous": false,
      "inputs": [
        {
          "indexed": false,
          "internalType": "uint256",
          "name": "inflationRequestThreshold",
          "type": "uint256"
        },
        {
          "indexed": false,
          "internalType": "uint256",
          "name": "inflationTargetAhead",
          "type": "uint256"
        }
      ],
      "name": "InflationThresholdsSet",
      "type": "event"
    },
    {
      "anonymous": false,
      "inputs": [
        {
          "indexed": false,
          "internalType": "uint256",
          "name": "l2GasPrice",
          "type": "uint256"
        },
        {
          "indexed": false,
          "internalType": "uint256",
          "name": "l2GasLimit",
          "type": "uint256"
        }
      ],
      "name": "L1InflationGasParamsSet",
      "type": "event"
    },
    {
      "anonymous": false,
      "inputs": [
        {
          "indexed": false,
          "internalType": "uint256",
          "name": "startIndex",
          "type": "uint256"
        },
        {
          "indexed": false,
          "internalType": "uint256",
          "name": "processedCount",
          "type": "uint256"
        },
        {
          "indexed": false,
          "internalType": "uint256",
          "name": "nextIndex",
          "type": "uint256"
        }
      ],
      "name": "QuarantinesCleanedUp",
      "type": "event"
    },
    {
      "anonymous": false,
      "inputs": [
        {
          "indexed": false,
          "internalType": "address",
          "name": "deepthought",
          "type": "address"
        }
      ],
      "name": "SetDeepthought",
      "type": "event"
    },
    {
      "anonymous": false,
      "inputs": [
        {
          "indexed": false,
          "internalType": "uint256",
          "name": "delegatorMinStake",
          "type": "uint256"
        }
      ],
      "name": "SetDelegatorMinimumStake",
      "type": "event"
    },
    {
      "anonymous": false,
      "inputs": [
        {
          "indexed": false,
          "internalType": "uint256",
          "name": "epochExtraMinDuration",
          "type": "uint256"
        }
      ],
      "name": "SetEpochExtraMinDuration",
      "type": "event"
    },
    {
      "anonymous": false,
      "inputs": [
        {
          "indexed": false,
          "internalType": "uint256",
          "name": "epochMinDuration",
          "type": "uint256"
        }
      ],
      "name": "SetEpochMinDuration",
      "type": "event"
    },
    {
      "anonymous": false,
      "inputs": [
        {
          "indexed": false,
          "internalType": "uint256",
          "name": "epochMinDurationThreshold",
          "type": "uint256"
        }
      ],
      "name": "SetEpochMinDurationThreshold",
      "type": "event"
    },
    {
      "anonymous": false,
      "inputs": [
        {
          "indexed": false,
          "internalType": "uint256",
          "name": "epochZeroMinDuration",
          "type": "uint256"
        }
      ],
      "name": "SetEpochZeroMinDuration",
      "type": "event"
    },
    {
      "anonymous": false,
      "inputs": [
        {
          "indexed": false,
          "internalType": "address",
          "name": "gen",
          "type": "address"
        }
      ],
      "name": "SetGen",
      "type": "event"
    },
    {
      "anonymous": false,
      "inputs": [
        {
          "indexed": false,
          "internalType": "uint256",
          "name": "maxValidators",
          "type": "uint256"
        }
      ],
      "name": "SetMaxValidators",
      "type": "event"
    },
    {
      "anonymous": false,
      "inputs": [
        {
          "indexed": false,
          "internalType": "uint256",
          "name": "reductionFactor",
          "type": "uint256"
        }
      ],
      "name": "SetReductionFactor",
      "type": "event"
    },
    {
      "anonymous": false,
      "inputs": [
        {
          "indexed": false,
          "internalType": "address",
          "name": "stakingInvariant",
          "type": "address"
        }
      ],
      "name": "SetStakingInvariant",
      "type": "event"
    },
    {
      "anonymous": false,
      "inputs": [
        {
          "indexed": false,
          "internalType": "address",
          "name": "transactionFeesManager",
          "type": "address"
        }
      ],
      "name": "SetTransactionFeesManager",
      "type": "event"
    },
    {
      "anonymous": false,
      "inputs": [
        {
          "indexed": false,
          "internalType": "uint256",
          "name": "delegatorUnbondingPeriod",
          "type": "uint256"
        },
        {
          "indexed": false,
          "internalType": "uint256",
          "name": "validatorUnbondingPeriod",
          "type": "uint256"
        }
      ],
      "name": "SetUnbondingPeriods",
      "type": "event"
    },
    {
      "anonymous": false,
      "inputs": [
        {
          "indexed": false,
          "internalType": "uint256",
          "name": "validatorMinStake",
          "type": "uint256"
        }
      ],
      "name": "SetValidatorMinimumStake",
      "type": "event"
    },
    {
      "anonymous": false,
      "inputs": [
        {
          "indexed": false,
          "internalType": "uint256",
          "name": "alpha",
          "type": "uint256"
        },
        {
          "indexed": false,
          "internalType": "uint256",
          "name": "beta",
          "type": "uint256"
        }
      ],
      "name": "SetValidatorWeightParams",
      "type": "event"
    },
    {
      "anonymous": false,
      "inputs": [
        {
          "indexed": false,
          "internalType": "address",
          "name": "validator",
          "type": "address"
        }
      ],
      "name": "ValidatorBanRemoved",
      "type": "event"
    },
    {
      "anonymous": false,
      "inputs": [
        {
          "indexed": false,
          "internalType": "address",
          "name": "validator",
          "type": "address"
        }
      ],
      "name": "ValidatorBannedDeterministic",
      "type": "event"
    },
    {
      "anonymous": false,
      "inputs": [
        {
          "indexed": false,
          "internalType": "address",
          "name": "validator",
          "type": "address"
        },
        {
          "indexed": false,
          "internalType": "bytes32",
          "name": "txId",
          "type": "bytes32"
        },
        {
          "indexed": false,
          "internalType": "uint256",
          "name": "bannedAt",
          "type": "uint256"
        },
        {
          "indexed": false,
          "internalType": "uint256",
          "name": "bannedUntil",
          "type": "uint256"
        }
      ],
      "name": "ValidatorBannedIdleness",
      "type": "event"
    },
    {
      "anonymous": false,
      "inputs": [
        {
          "indexed": false,
          "internalType": "address",
          "name": "validator",
          "type": "address"
        },
        {
          "indexed": false,
          "internalType": "uint256",
          "name": "amount",
          "type": "uint256"
        }
      ],
      "name": "ValidatorClaim",
      "type": "event"
    },
    {
      "anonymous": false,
      "inputs": [
        {
          "indexed": false,
          "internalType": "address",
          "name": "validator",
          "type": "address"
        },
        {
          "indexed": false,
          "internalType": "uint256",
          "name": "amount",
          "type": "uint256"
        }
      ],
      "name": "ValidatorDeposit",
      "type": "event"
    },
    {
      "anonymous": false,
      "inputs": [
        {
          "indexed": false,
          "internalType": "address",
          "name": "validator",
          "type": "address"
        },
        {
          "indexed": false,
          "internalType": "uint256",
          "name": "amount",
          "type": "uint256"
        }
      ],
      "name": "ValidatorExit",
      "type": "event"
    },
    {
      "anonymous": false,
      "inputs": [
        {
          "indexed": true,
          "internalType": "address",
          "name": "validator",
          "type": "address"
        }
      ],
      "name": "ValidatorIsAlreadyInTree",
      "type": "event"
    },
    {
      "anonymous": false,
      "inputs": [
        {
          "indexed": true,
          "internalType": "address",
          "name": "validator",
          "type": "address"
        }
      ],
      "name": "ValidatorIsNotActive",
      "type": "event"
    },
    {
      "anonymous": false,
      "inputs": [
        {
          "indexed": true,
          "internalType": "address",
          "name": "validator",
          "type": "address"
        }
      ],
      "name": "ValidatorIsNotInTree",
      "type": "event"
    },
    {
      "anonymous": false,
      "inputs": [
        {
          "indexed": false,
          "internalType": "address",
          "name": "operator",
          "type": "address"
        },
        {
          "indexed": false,
          "internalType": "address",
          "name": "validator",
          "type": "address"
        },
        {
          "indexed": false,
          "internalType": "uint256",
          "name": "amount",
          "type": "uint256"
        }
      ],
      "name": "ValidatorJoin",
      "type": "event"
    },
    {
      "anonymous": false,
      "inputs": [
        {
          "indexed": false,
          "internalType": "address",
          "name": "validator",
          "type": "address"
        },
        {
          "indexed": false,
          "internalType": "uint256",
          "name": "epoch",
          "type": "uint256"
        },
        {
          "indexed": false,
          "internalType": "uint256",
          "name": "validatorRewards",
          "type": "uint256"
        },
        {
          "indexed": false,
          "internalType": "uint256",
          "name": "delegatorRewards",
          "type": "uint256"
        },
        {
          "indexed": false,
          "internalType": "uint256",
          "name": "feeRewards",
          "type": "uint256"
        },
        {
          "indexed": false,
          "internalType": "uint256",
          "name": "feePenalties",
          "type": "uint256"
        }
      ],
      "name": "ValidatorPrime",
      "type": "event"
    },
    {
      "anonymous": false,
      "inputs": [
        {
          "indexed": false,
          "internalType": "address",
          "name": "validator",
          "type": "address"
        }
      ],
      "name": "ValidatorQuarantineRemoved",
      "type": "event"
    },
    {
      "anonymous": false,
      "inputs": [
        {
          "indexed": false,
          "internalType": "address",
          "name": "validator",
          "type": "address"
        }
      ],
      "name": "ValidatorQuarantineRepealed",
      "type": "event"
    },
    {
      "anonymous": false,
      "inputs": [
        {
          "indexed": false,
          "internalType": "address",
          "name": "validator",
          "type": "address"
        },
        {
          "indexed": false,
          "internalType": "uint256",
          "name": "quarantinedAt",
          "type": "uint256"
        }
      ],
      "name": "ValidatorQuarantined",
      "type": "event"
    },
    {
      "anonymous": false,
      "inputs": [
        {
          "indexed": false,
          "internalType": "address",
          "name": "validator",
          "type": "address"
        },
        {
          "indexed": false,
          "internalType": "uint256",
          "name": "validatorSlashing",
          "type": "uint256"
        },
        {
          "indexed": false,
          "internalType": "uint256",
          "name": "delegatorSlashing",
          "type": "uint256"
        },
        {
          "indexed": false,
          "internalType": "uint256",
          "name": "epoch",
          "type": "uint256"
        }
      ],
      "name": "ValidatorSlash",
      "type": "event"
    },
    {
      "anonymous": false,
      "inputs": [
        {
          "indexed": false,
          "internalType": "uint256",
          "name": "count",
          "type": "uint256"
        }
      ],
      "name": "ValidatorsRegistered",
      "type": "event"
    },
    {
      "anonymous": false,
      "inputs": [
        {
          "indexed": false,
          "internalType": "uint256",
          "name": "epochNumber",
          "type": "uint256"
        },
        {
          "indexed": false,
          "internalType": "uint256",
          "name": "maxWeight",
          "type": "uint256"
        },
        {
          "indexed": false,
          "internalType": "uint256",
          "name": "weightWithdrawal",
          "type": "uint256"
        }
      ],
      "name": "WeightWithdrawalOverflow",
      "type": "event"
    },
    {
      "inputs": [],
      "name": "BASE_TOKEN",
      "outputs": [
        {
          "internalType": "address",
          "name": "",
          "type": "address"
        }
      ],
      "stateMutability": "pure",
      "type": "function"
    },
    {
      "inputs": [],
      "name": "DEFAULT_BAN_DURATION_IN_EPOCHS",
      "outputs": [
        {
          "internalType": "uint256",
          "name": "",
          "type": "uint256"
        }
      ],
      "stateMutability": "view",
      "type": "function"
    },
    {
      "inputs": [],
      "name": "DEFAULT_DELEGATOR_MIN_STAKE",
      "outputs": [
        {
          "internalType": "uint256",
          "name": "",
          "type": "uint256"
        }
      ],
      "stateMutability": "view",
      "type": "function"
    },
    {
      "inputs": [],
      "name": "DEFAULT_VALIDATOR_MIN_STAKE",
      "outputs": [
        {
          "internalType": "uint256",
          "name": "",
          "type": "uint256"
        }
      ],
      "stateMutability": "pure",
      "type": "function"
    },
    {
      "inputs": [],
      "name": "DELEGATOR_UNBONDING_PERIOD",
      "outputs": [
        {
          "internalType": "uint256",
          "name": "",
          "type": "uint256"
        }
      ],
      "stateMutability": "pure",
      "type": "function"
    },
    {
      "inputs": [],
      "name": "HIGH_VALIDATOR_SELECTION_THRESHOLD",
      "outputs": [
        {
          "internalType": "uint256",
          "name": "",
          "type": "uint256"
        }
      ],
      "stateMutability": "view",
      "type": "function"
    },
    {
      "inputs": [],
      "name": "INFLATION_BASE",
      "outputs": [
        {
          "internalType": "uint256",
          "name": "",
          "type": "uint256"
        }
      ],
      "stateMutability": "pure",
      "type": "function"
    },
    {
      "inputs": [],
      "name": "INFLATION_DEEPTHOUGHT_BPS",
      "outputs": [
        {
          "internalType": "uint256",
          "name": "",
          "type": "uint256"
        }
      ],
      "stateMutability": "pure",
      "type": "function"
    },
    {
      "inputs": [],
      "name": "INFLATION_DEVELOPER_BPS",
      "outputs": [
        {
          "internalType": "uint256",
          "name": "",
          "type": "uint256"
        }
      ],
      "stateMutability": "pure",
      "type": "function"
    },
    {
      "inputs": [],
      "name": "INFLATION_FINAL",
      "outputs": [
        {
          "internalType": "uint256",
          "name": "",
          "type": "uint256"
        }
      ],
      "stateMutability": "pure",
      "type": "function"
    },
    {
      "inputs": [],
      "name": "INFLATION_INITIAL",
      "outputs": [
        {
          "internalType": "uint256",
          "name": "",
          "type": "uint256"
        }
      ],
      "stateMutability": "pure",
      "type": "function"
    },
    {
      "inputs": [],
      "name": "INFLATION_MID",
      "outputs": [
        {
          "internalType": "int256",
          "name": "",
          "type": "int256"
        }
      ],
      "stateMutability": "pure",
      "type": "function"
    },
    {
      "inputs": [],
      "name": "INFLATION_STAKER_BPS",
      "outputs": [
        {
          "internalType": "uint256",
          "name": "",
          "type": "uint256"
        }
      ],
      "stateMutability": "pure",
      "type": "function"
    },
    {
      "inputs": [],
      "name": "INFLATION_STEEPNESS",
      "outputs": [
        {
          "internalType": "int256",
          "name": "",
          "type": "int256"
        }
      ],
      "stateMutability": "pure",
      "type": "function"
    },
    {
      "inputs": [],
      "name": "INFLATION_VALIDATOR_BPS",
      "outputs": [
        {
          "internalType": "uint256",
          "name": "",
          "type": "uint256"
        }
      ],
      "stateMutability": "pure",
      "type": "function"
    },
    {
      "inputs": [],
      "name": "QUARANTINE_MANAGER_ROLE",
      "outputs": [
        {
          "internalType": "bytes32",
          "name": "",
          "type": "bytes32"
        }
      ],
      "stateMutability": "pure",
      "type": "function"
    },
    {
      "inputs": [],
      "name": "VALIDATOR_UNBONDING_PERIOD",
      "outputs": [
        {
          "internalType": "uint256",
          "name": "",
          "type": "uint256"
        }
      ],
      "stateMutability": "pure",
      "type": "function"
    },
    {
      "inputs": [
        {
          "internalType": "address[]",
          "name": "_arr1",
          "type": "address[]"
        },
        {
          "internalType": "address[]",
          "name": "_arr2",
          "type": "address[]"
        }
      ],
      "name": "_concat",
      "outputs": [
        {
          "internalType": "address[]",
          "name": "",
          "type": "address[]"
        }
      ],
      "stateMutability": "pure",
      "type": "function"
    },
    {
      "inputs": [
        {
          "internalType": "address[]",
          "name": "_arr",
          "type": "address[]"
        },
        {
          "internalType": "uint256",
          "name": "_newSize",
          "type": "uint256"
        }
      ],
      "name": "_resize",
      "outputs": [
        {
          "internalType": "address[]",
          "name": "",
          "type": "address[]"
        }
      ],
      "stateMutability": "pure",
      "type": "function"
    },
    {
      "inputs": [
        {
          "internalType": "uint256",
          "name": "_inflation",
          "type": "uint256"
        }
      ],
      "name": "_stakingInflation",
      "outputs": [
        {
          "internalType": "uint256",
          "name": "",
          "type": "uint256"
        }
      ],
      "stateMutability": "pure",
      "type": "function"
    },
    {
      "inputs": [
        {
          "internalType": "uint256",
          "name": "_inflation",
          "type": "uint256"
        }
      ],
      "name": "_validatorInflation",
      "outputs": [
        {
          "internalType": "uint256",
          "name": "",
          "type": "uint256"
        }
      ],
      "stateMutability": "pure",
      "type": "function"
    },
    {
      "inputs": [],
      "name": "activeValidators",
      "outputs": [
        {
          "internalType": "address[]",
          "name": "",
          "type": "address[]"
        }
      ],
      "stateMutability": "view",
      "type": "function"
    },
    {
      "inputs": [],
      "name": "activeValidatorsCount",
      "outputs": [
        {
          "internalType": "uint256",
          "name": "",
          "type": "uint256"
        }
      ],
      "stateMutability": "view",
      "type": "function"
    },
    {
      "inputs": [],
      "name": "activeWeights",
      "outputs": [
        {
          "internalType": "uint256[]",
          "name": "",
          "type": "uint256[]"
        }
      ],
      "stateMutability": "view",
      "type": "function"
    },
    {
      "inputs": [
        {
          "internalType": "address",
          "name": "_validator",
          "type": "address"
        },
        {
          "internalType": "uint256",
          "name": "_weight",
          "type": "uint256"
        }
      ],
      "name": "addValidator",
      "outputs": [],
      "stateMutability": "nonpayable",
      "type": "function"
    },
    {
      "inputs": [],
      "name": "addressManager",
      "outputs": [
        {
          "internalType": "address",
          "name": "",
          "type": "address"
        }
      ],
      "stateMutability": "pure",
      "type": "function"
    },
    {
      "inputs": [
        {
          "internalType": "address[]",
          "name": "validatorAddresses",
          "type": "address[]"
        }
      ],
      "name": "adminRegisterValidators",
      "outputs": [],
      "stateMutability": "nonpayable",
      "type": "function"
    },
    {
      "inputs": [
        {
          "internalType": "address",
          "name": "_validator",
          "type": "address"
        }
      ],
      "name": "ban",
      "outputs": [],
      "stateMutability": "nonpayable",
      "type": "function"
    },
    {
      "inputs": [
        {
          "internalType": "address",
          "name": "validator",
          "type": "address"
        }
      ],
      "name": "banned",
      "outputs": [
        {
          "internalType": "uint256",
          "name": "startEpoch",
          "type": "uint256"
        },
        {
          "internalType": "uint256",
          "name": "durationInEpochs",
          "type": "uint256"
        }
      ],
      "stateMutability": "view",
      "type": "function"
    },
    {
      "inputs": [],
      "name": "burning",
      "outputs": [
        {
          "internalType": "uint256",
          "name": "",
          "type": "uint256"
        }
      ],
      "stateMutability": "view",
      "type": "function"
    },
    {
      "inputs": [],
      "name": "canAdvance",
      "outputs": [
        {
          "internalType": "bool",
          "name": "",
          "type": "bool"
        }
      ],
      "stateMutability": "pure",
      "type": "function"
    },
    {
      "inputs": [],
      "name": "deepthought",
      "outputs": [
        {
          "internalType": "address",
          "name": "",
          "type": "address"
        }
      ],
      "stateMutability": "pure",
      "type": "function"
    },
    {
      "inputs": [
        {
          "internalType": "uint256",
          "name": "_inflation",
          "type": "uint256"
        }
      ],
      "name": "deepthoughtInflation",
      "outputs": [
        {
          "internalType": "uint256",
          "name": "",
          "type": "uint256"
        }
      ],
      "stateMutability": "pure",
      "type": "function"
    },
    {
      "inputs": [
        {
          "internalType": "address",
          "name": "_delegator",
          "type": "address"
        },
        {
          "internalType": "address",
          "name": "_validator",
          "type": "address"
        }
      ],
      "name": "delegatorClaim",
      "outputs": [
        {
          "internalType": "uint256",
          "name": "",
          "type": "uint256"
        }
      ],
      "stateMutability": "nonpayable",
      "type": "function"
    },
    {
      "inputs": [
        {
          "internalType": "address",
          "name": "_delegator",
          "type": "address"
        },
        {
          "internalType": "address",
          "name": "_validator",
          "type": "address"
        },
        {
          "internalType": "uint256",
          "name": "_index",
          "type": "uint256"
        }
      ],
      "name": "delegatorDeposit",
      "outputs": [
        {
          "components": [
            {
              "internalType": "uint256",
              "name": "quantity",
              "type": "uint256"
            },
            {
              "internalType": "uint256",
              "name": "commit",
              "type": "uint256"
            }
          ],
          "internalType": "struct IGenLayerStaking.Claim",
          "name": "claim_",
          "type": "tuple"
        },
        {
          "components": [
            {
              "internalType": "uint256",
              "name": "input",
              "type": "uint256"
            },
            {
              "internalType": "uint256",
              "name": "output",
              "type": "uint256"
            },
            {
              "internalType": "uint256",
              "name": "epoch",
              "type": "uint256"
            },
            {
              "internalType": "uint256",
              "name": "linkToNextCommit",
              "type": "uint256"
            }
          ],
          "internalType": "struct IGenLayerStaking.Commit",
          "name": "commit_",
          "type": "tuple"
        }
      ],
      "stateMutability": "view",
      "type": "function"
    },
    {
      "inputs": [
        {
          "internalType": "address",
          "name": "_delegator",
          "type": "address"
        },
        {
          "internalType": "address",
          "name": "_validator",
          "type": "address"
        },
        {
          "internalType": "uint256",
          "name": "_epoch",
          "type": "uint256"
        }
      ],
      "name": "delegatorDepositByEpoch",
      "outputs": [
        {
          "components": [
            {
              "internalType": "uint256",
              "name": "input",
              "type": "uint256"
            },
            {
              "internalType": "uint256",
              "name": "output",
              "type": "uint256"
            },
            {
              "internalType": "uint256",
              "name": "epoch",
              "type": "uint256"
            },
            {
              "internalType": "uint256",
              "name": "linkToNextCommit",
              "type": "uint256"
            }
          ],
          "internalType": "struct IGenLayerStaking.Commit",
          "name": "commit_",
          "type": "tuple"
        }
      ],
      "stateMutability": "view",
      "type": "function"
    },
    {
      "inputs": [
        {
          "internalType": "address",
          "name": "_delegator",
          "type": "address"
        },
        {
          "internalType": "address",
          "name": "_validator",
          "type": "address"
        }
      ],
      "name": "delegatorDepositLen",
      "outputs": [
        {
          "internalType": "uint256",
          "name": "",
          "type": "uint256"
        }
      ],
      "stateMutability": "view",
      "type": "function"
    },
    {
      "inputs": [
        {
          "internalType": "address",
          "name": "_validator",
          "type": "address"
        },
        {
          "internalType": "uint256",
          "name": "_amount",
          "type": "uint256"
        }
      ],
      "name": "delegatorExit",
      "outputs": [],
      "stateMutability": "nonpayable",
      "type": "function"
    },
    {
      "inputs": [
        {
          "internalType": "address",
          "name": "_validator",
          "type": "address"
        }
      ],
      "name": "delegatorJoin",
      "outputs": [],
      "stateMutability": "payable",
      "type": "function"
    },
    {
      "inputs": [],
      "name": "delegatorMinStake",
      "outputs": [
        {
          "internalType": "uint256",
          "name": "",
          "type": "uint256"
        }
      ],
      "stateMutability": "view",
      "type": "function"
    },
    {
      "inputs": [
        {
          "internalType": "address",
          "name": "_delegator",
          "type": "address"
        },
        {
          "internalType": "address",
          "name": "_validator",
          "type": "address"
        },
        {
          "internalType": "uint256",
          "name": "_index",
          "type": "uint256"
        }
      ],
      "name": "delegatorWithdrawal",
      "outputs": [
        {
          "components": [
            {
              "internalType": "uint256",
              "name": "quantity",
              "type": "uint256"
            },
            {
              "internalType": "uint256",
              "name": "commit",
              "type": "uint256"
            }
          ],
          "internalType": "struct IGenLayerStaking.Claim",
          "name": "claim_",
          "type": "tuple"
        },
        {
          "components": [
            {
              "internalType": "uint256",
              "name": "input",
              "type": "uint256"
            },
            {
              "internalType": "uint256",
              "name": "output",
              "type": "uint256"
            },
            {
              "internalType": "uint256",
              "name": "epoch",
              "type": "uint256"
            },
            {
              "internalType": "uint256",
              "name": "linkToNextCommit",
              "type": "uint256"
            }
          ],
          "internalType": "struct IGenLayerStaking.Commit",
          "name": "commit_",
          "type": "tuple"
        }
      ],
      "stateMutability": "view",
      "type": "function"
    },
    {
      "inputs": [
        {
          "internalType": "address",
          "name": "_delegator",
          "type": "address"
        },
        {
          "internalType": "address",
          "name": "_validator",
          "type": "address"
        },
        {
          "internalType": "uint256",
          "name": "_epoch",
          "type": "uint256"
        }
      ],
      "name": "delegatorWithdrawalByEpoch",
      "outputs": [
        {
          "components": [
            {
              "internalType": "uint256",
              "name": "input",
              "type": "uint256"
            },
            {
              "internalType": "uint256",
              "name": "output",
              "type": "uint256"
            },
            {
              "internalType": "uint256",
              "name": "epoch",
              "type": "uint256"
            },
            {
              "internalType": "uint256",
              "name": "linkToNextCommit",
              "type": "uint256"
            }
          ],
          "internalType": "struct IGenLayerStaking.Commit",
          "name": "commit_",
          "type": "tuple"
        }
      ],
      "stateMutability": "view",
      "type": "function"
    },
    {
      "inputs": [
        {
          "internalType": "address",
          "name": "_delegator",
          "type": "address"
        },
        {
          "internalType": "address",
          "name": "_validator",
          "type": "address"
        }
      ],
      "name": "delegatorWithdrawalLen",
      "outputs": [
        {
          "internalType": "uint256",
          "name": "",
          "type": "uint256"
        }
      ],
      "stateMutability": "view",
      "type": "function"
    },
    {
      "inputs": [
        {
          "internalType": "uint256",
          "name": "_inflation",
          "type": "uint256"
        }
      ],
      "name": "developerInflation",
      "outputs": [
        {
          "internalType": "uint256",
          "name": "",
          "type": "uint256"
        }
      ],
      "stateMutability": "pure",
      "type": "function"
    },
    {
      "inputs": [],
      "name": "epoch",
      "outputs": [
        {
          "internalType": "uint256",
          "name": "",
          "type": "uint256"
        }
      ],
      "stateMutability": "view",
      "type": "function"
    },
    {
      "inputs": [],
      "name": "epochAdvance",
      "outputs": [],
      "stateMutability": "nonpayable",
      "type": "function"
    },
    {
      "inputs": [],
      "name": "epochEven",
      "outputs": [
        {
          "internalType": "uint256",
          "name": "start",
          "type": "uint256"
        },
        {
          "internalType": "uint256",
          "name": "end",
          "type": "uint256"
        },
        {
          "internalType": "uint256",
          "name": "inflation",
          "type": "uint256"
        },
        {
          "internalType": "uint256",
          "name": "weight",
          "type": "uint256"
        },
        {
          "internalType": "uint256",
          "name": "weightDeposit",
          "type": "uint256"
        },
        {
          "internalType": "uint256",
          "name": "weightWithdrawal",
          "type": "uint256"
        },
        {
          "internalType": "uint256",
          "name": "vcount",
          "type": "uint256"
        },
        {
          "internalType": "uint256",
          "name": "claimed",
          "type": "uint256"
        },
        {
          "internalType": "uint256",
          "name": "stakeDeposit",
          "type": "uint256"
        },
        {
          "internalType": "uint256",
          "name": "stakeWithdrawal",
          "type": "uint256"
        },
        {
          "internalType": "uint256",
          "name": "slashed",
          "type": "uint256"
        }
      ],
      "stateMutability": "view",
      "type": "function"
    },
    {
      "inputs": [],
      "name": "epochExtraMinDuration",
      "outputs": [
        {
          "internalType": "uint256",
          "name": "",
          "type": "uint256"
        }
      ],
      "stateMutability": "view",
      "type": "function"
    },
    {
      "inputs": [],
      "name": "epochFinalize",
      "outputs": [],
      "stateMutability": "nonpayable",
      "type": "function"
    },
    {
      "inputs": [],
      "name": "epochFinalizeImmediate",
      "outputs": [],
      "stateMutability": "nonpayable",
      "type": "function"
    },
    {
      "inputs": [
        {
          "internalType": "uint256",
          "name": "_epoch",
          "type": "uint256"
        }
      ],
      "name": "epochInflation",
      "outputs": [
        {
          "internalType": "uint256",
          "name": "",
          "type": "uint256"
        }
      ],
      "stateMutability": "view",
      "type": "function"
    },
    {
      "inputs": [],
      "name": "epochMinDuration",
      "outputs": [
        {
          "internalType": "uint256",
          "name": "",
          "type": "uint256"
        }
      ],
      "stateMutability": "view",
      "type": "function"
    },
    {
      "inputs": [],
      "name": "epochMinDurationThreshold",
      "outputs": [
        {
          "internalType": "uint256",
          "name": "",
          "type": "uint256"
        }
      ],
      "stateMutability": "view",
      "type": "function"
    },
    {
      "inputs": [],
      "name": "epochOdd",
      "outputs": [
        {
          "internalType": "uint256",
          "name": "start",
          "type": "uint256"
        },
        {
          "internalType": "uint256",
          "name": "end",
          "type": "uint256"
        },
        {
          "internalType": "uint256",
          "name": "inflation",
          "type": "uint256"
        },
        {
          "internalType": "uint256",
          "name": "weight",
          "type": "uint256"
        },
        {
          "internalType": "uint256",
          "name": "weightDeposit",
          "type": "uint256"
        },
        {
          "internalType": "uint256",
          "name": "weightWithdrawal",
          "type": "uint256"
        },
        {
          "internalType": "uint256",
          "name": "vcount",
          "type": "uint256"
        },
        {
          "internalType": "uint256",
          "name": "claimed",
          "type": "uint256"
        },
        {
          "internalType": "uint256",
          "name": "stakeDeposit",
          "type": "uint256"
        },
        {
          "internalType": "uint256",
          "name": "stakeWithdrawal",
          "type": "uint256"
        },
        {
          "internalType": "uint256",
          "name": "slashed",
          "type": "uint256"
        }
      ],
      "stateMutability": "view",
      "type": "function"
    },
    {
      "inputs": [],
      "name": "epochZeroMinDuration",
      "outputs": [
        {
          "internalType": "uint256",
          "name": "",
          "type": "uint256"
        }
      ],
      "stateMutability": "view",
      "type": "function"
    },
    {
      "inputs": [],
      "name": "finalizationPhaseAddress",
      "outputs": [
        {
          "internalType": "address",
          "name": "",
          "type": "address"
        }
      ],
      "stateMutability": "view",
      "type": "function"
    },
    {
      "inputs": [],
      "name": "finalized",
      "outputs": [
        {
          "internalType": "uint256",
          "name": "",
          "type": "uint256"
        }
      ],
      "stateMutability": "view",
      "type": "function"
    },
    {
      "inputs": [
        {
          "internalType": "uint256",
          "name": "index",
          "type": "uint256"
        }
      ],
      "name": "getAccumWeightItem",
      "outputs": [
        {
          "internalType": "uint256",
          "name": "",
          "type": "uint256"
        }
      ],
      "stateMutability": "view",
      "type": "function"
    },
    {
      "inputs": [
        {
          "internalType": "bytes32",
          "name": "_randomSeed",
          "type": "bytes32"
        },
        {
          "internalType": "uint256",
          "name": "_txCreatedTimestamp",
          "type": "uint256"
        }
      ],
      "name": "getActivatorForSeed",
      "outputs": [
        {
          "internalType": "address",
          "name": "",
          "type": "address"
        }
      ],
      "stateMutability": "view",
      "type": "function"
    },
    {
      "inputs": [
        {
          "internalType": "uint256",
          "name": "_startIndex",
          "type": "uint256"
        },
        {
          "internalType": "uint256",
          "name": "_size",
          "type": "uint256"
        }
      ],
      "name": "getAllBannedValidators",
      "outputs": [
        {
          "components": [
            {
              "internalType": "address",
              "name": "validator",
              "type": "address"
            },
            {
              "internalType": "uint256",
              "name": "untilEpochBanned",
              "type": "uint256"
            },
            {
              "internalType": "bool",
              "name": "permanentlyBanned",
              "type": "bool"
            }
          ],
          "internalType": "struct IGenLayerStaking.BannedValidators[]",
          "name": "",
          "type": "tuple[]"
        }
      ],
      "stateMutability": "pure",
      "type": "function"
    },
    {
      "inputs": [
        {
          "internalType": "uint256",
          "name": "_epoch",
          "type": "uint256"
        },
        {
          "internalType": "uint256",
          "name": "_startIndex",
          "type": "uint256"
        },
        {
          "internalType": "uint256",
          "name": "_size",
          "type": "uint256"
        }
      ],
      "name": "getAllBannedValidatorsForEpoch",
      "outputs": [
        {
          "components": [
            {
              "internalType": "address",
              "name": "validator",
              "type": "address"
            },
            {
              "internalType": "uint256",
              "name": "untilEpochBanned",
              "type": "uint256"
            },
            {
              "internalType": "bool",
              "name": "permanentlyBanned",
              "type": "bool"
            }
          ],
          "internalType": "struct IGenLayerStaking.BannedValidators[]",
          "name": "",
          "type": "tuple[]"
        }
      ],
      "stateMutability": "pure",
      "type": "function"
    },
    {
      "inputs": [
        {
          "internalType": "uint256",
          "name": "_startIndex",
          "type": "uint256"
        },
        {
          "internalType": "uint256",
          "name": "_size",
          "type": "uint256"
        }
      ],
      "name": "getAllQuarantinedValidators",
      "outputs": [
        {
          "components": [
            {
              "internalType": "address",
              "name": "validator",
              "type": "address"
            },
            {
              "internalType": "uint256",
              "name": "untilEpochBanned",
              "type": "uint256"
            },
            {
              "internalType": "bool",
              "name": "permanentlyBanned",
              "type": "bool"
            }
          ],
          "internalType": "struct IGenLayerStaking.BannedValidators[]",
          "name": "",
          "type": "tuple[]"
        }
      ],
      "stateMutability": "pure",
      "type": "function"
    },
    {
      "inputs": [
        {
          "internalType": "uint256",
          "name": "_epoch",
          "type": "uint256"
        },
        {
          "internalType": "uint256",
          "name": "_startIndex",
          "type": "uint256"
        },
        {
          "internalType": "uint256",
          "name": "_size",
          "type": "uint256"
        }
      ],
      "name": "getAllQuarantinedValidatorsForEpoch",
      "outputs": [
        {
          "components": [
            {
              "internalType": "address",
              "name": "validator",
              "type": "address"
            },
            {
              "internalType": "uint256",
              "name": "untilEpochBanned",
              "type": "uint256"
            },
            {
              "internalType": "bool",
              "name": "permanentlyBanned",
              "type": "bool"
            }
          ],
          "internalType": "struct IGenLayerStaking.BannedValidators[]",
          "name": "",
          "type": "tuple[]"
        }
      ],
      "stateMutability": "pure",
      "type": "function"
    },
    {
      "inputs": [
        {
          "internalType": "address",
          "name": "_delegator",
          "type": "address"
        },
        {
          "internalType": "address",
          "name": "_validator",
          "type": "address"
        }
      ],
      "name": "getPendingDelegatorDeposits",
      "outputs": [
        {
          "internalType": "uint256",
          "name": "",
          "type": "uint256"
        }
      ],
      "stateMutability": "pure",
      "type": "function"
    },
    {
      "inputs": [
        {
          "internalType": "address",
          "name": "_delegator",
          "type": "address"
        },
        {
          "internalType": "address",
          "name": "_validator",
          "type": "address"
        }
      ],
      "name": "getPendingDelegatorWithdrawals",
      "outputs": [
        {
          "internalType": "uint256",
          "name": "",
          "type": "uint256"
        }
      ],
      "stateMutability": "pure",
      "type": "function"
    },
    {
      "inputs": [
        {
          "internalType": "address",
          "name": "_validator",
          "type": "address"
        }
      ],
      "name": "getPendingValidatorDeposits",
      "outputs": [
        {
          "internalType": "uint256",
          "name": "",
          "type": "uint256"
        }
      ],
      "stateMutability": "pure",
      "type": "function"
    },
    {
      "inputs": [
        {
          "internalType": "address",
          "name": "_validator",
          "type": "address"
        }
      ],
      "name": "getPendingValidatorWithdrawals",
      "outputs": [
        {
          "internalType": "uint256",
          "name": "",
          "type": "uint256"
        }
      ],
      "stateMutability": "pure",
      "type": "function"
    },
    {
      "inputs": [],
      "name": "getQuarantinedValidators",
      "outputs": [
        {
          "internalType": "address[]",
          "name": "",
          "type": "address[]"
        }
      ],
      "stateMutability": "view",
      "type": "function"
    },
    {
      "inputs": [],
      "name": "getValidatorBansCount",
      "outputs": [
        {
          "internalType": "uint256",
          "name": "",
          "type": "uint256"
        }
      ],
      "stateMutability": "view",
      "type": "function"
    },
    {
      "inputs": [],
      "name": "getValidatorCount",
      "outputs": [
        {
          "internalType": "uint256",
          "name": "",
          "type": "uint256"
        }
      ],
      "stateMutability": "view",
      "type": "function"
    },
    {
      "inputs": [
        {
          "internalType": "uint256",
          "name": "_epoch",
          "type": "uint256"
        }
      ],
      "name": "getValidatorCount",
      "outputs": [
        {
          "internalType": "uint256",
          "name": "",
          "type": "uint256"
        }
      ],
      "stateMutability": "view",
      "type": "function"
    },
    {
      "inputs": [
        {
          "internalType": "address",
          "name": "_validator",
          "type": "address"
        }
      ],
      "name": "getValidatorDelegators",
      "outputs": [
        {
          "internalType": "address[]",
          "name": "",
          "type": "address[]"
        }
      ],
      "stateMutability": "pure",
      "type": "function"
    },
    {
      "inputs": [
        {
          "internalType": "address",
          "name": "_validator",
          "type": "address"
        },
        {
          "internalType": "uint256",
          "name": "_startIndex",
          "type": "uint256"
        },
        {
          "internalType": "uint256",
          "name": "_pageSize",
          "type": "uint256"
        }
      ],
      "name": "getValidatorDelegatorsInfo",
      "outputs": [
        {
          "components": [
            {
              "internalType": "address",
              "name": "delegator",
              "type": "address"
            },
            {
              "internalType": "uint256",
              "name": "currentStake",
              "type": "uint256"
            },
            {
              "internalType": "uint256",
              "name": "currentShares",
              "type": "uint256"
            },
            {
              "internalType": "uint256",
              "name": "pendingDeposits",
              "type": "uint256"
            },
            {
              "internalType": "uint256",
              "name": "pendingWithdrawals",
              "type": "uint256"
            }
          ],
          "internalType": "struct IGenLayerStaking.DelegatorInfo[]",
          "name": "",
          "type": "tuple[]"
        }
      ],
      "stateMutability": "pure",
      "type": "function"
    },
    {
      "inputs": [
        {
          "internalType": "address",
          "name": "_validator",
          "type": "address"
        },
        {
          "internalType": "uint256",
          "name": "_startIndex",
          "type": "uint256"
        },
        {
          "internalType": "uint256",
          "name": "_pageSize",
          "type": "uint256"
        }
      ],
      "name": "getValidatorDelegatorsPaginated",
      "outputs": [
        {
          "internalType": "address[]",
          "name": "",
          "type": "address[]"
        }
      ],
      "stateMutability": "pure",
      "type": "function"
    },
    {
      "inputs": [],
      "name": "getValidatorQuarantineList",
      "outputs": [
        {
          "internalType": "address[]",
          "name": "",
          "type": "address[]"
        }
      ],
      "stateMutability": "view",
      "type": "function"
    },
    {
      "inputs": [],
      "name": "getValidatorsAtCurrentEpoch",
      "outputs": [
        {
          "internalType": "address[]",
          "name": "",
          "type": "address[]"
        }
      ],
      "stateMutability": "view",
      "type": "function"
    },
    {
      "inputs": [],
      "name": "getValidatorsCountInCurrentEpoch",
      "outputs": [
        {
          "internalType": "uint256",
          "name": "",
          "type": "uint256"
        }
      ],
      "stateMutability": "view",
      "type": "function"
    },
    {
      "inputs": [
        {
          "internalType": "uint256",
          "name": "index",
          "type": "uint256"
        }
      ],
      "name": "getValidatorsItem",
      "outputs": [
        {
          "internalType": "address",
          "name": "",
          "type": "address"
        }
      ],
      "stateMutability": "view",
      "type": "function"
    },
    {
      "inputs": [
        {
          "internalType": "uint256",
          "name": "_startIndex",
          "type": "uint256"
        },
        {
          "internalType": "uint256",
          "name": "_pageSize",
          "type": "uint256"
        }
      ],
      "name": "getValidatorsJoined",
      "outputs": [
        {
          "internalType": "address[]",
          "name": "",
          "type": "address[]"
        }
      ],
      "stateMutability": "view",
      "type": "function"
    },
    {
      "inputs": [],
      "name": "getVersion",
      "outputs": [
        {
          "internalType": "uint256",
          "name": "",
          "type": "uint256"
        }
      ],
      "stateMutability": "view",
      "type": "function"
    },
    {
      "inputs": [
        {
          "internalType": "address",
          "name": "_validator",
          "type": "address"
        },
        {
          "internalType": "uint256",
          "name": "_quarantinedAt",
          "type": "uint256"
        },
        {
          "internalType": "uint256",
          "name": "_quarantinedUntil",
          "type": "uint256"
        },
        {
          "internalType": "bytes32",
          "name": "_txId",
          "type": "bytes32"
        }
      ],
      "name": "idlenessBan",
      "outputs": [],
      "stateMutability": "nonpayable",
      "type": "function"
    },
    {
      "inputs": [
        {
          "internalType": "address[]",
          "name": "_validators",
          "type": "address[]"
        },
        {
          "internalType": "uint256",
          "name": "_quarantinedAt",
          "type": "uint256"
        },
        {
          "internalType": "uint256",
          "name": "_quarantinedUntil",
          "type": "uint256"
        },
        {
          "internalType": "bytes32",
          "name": "_txId",
          "type": "bytes32"
        }
      ],
      "name": "idlenessBanBatch",
      "outputs": [],
      "stateMutability": "nonpayable",
      "type": "function"
    },
    {
      "inputs": [],
      "name": "idlenessPhaseAddress",
      "outputs": [
        {
          "internalType": "address",
          "name": "",
          "type": "address"
        }
      ],
      "stateMutability": "view",
      "type": "function"
    },
    {
      "inputs": [],
      "name": "inflationEpoch",
      "outputs": [
        {
          "internalType": "uint256",
          "name": "",
          "type": "uint256"
        }
      ],
      "stateMutability": "view",
      "type": "function"
    },
    {
      "inputs": [
        {
          "internalType": "uint256",
          "name": "_inflationOnset",
          "type": "uint256"
        }
      ],
      "name": "inflationInit",
      "outputs": [],
      "stateMutability": "nonpayable",
      "type": "function"
    },
    {
      "inputs": [
        {
          "internalType": "uint256",
          "name": "_epoch",
          "type": "uint256"
        }
      ],
      "name": "inflationReceive",
      "outputs": [],
      "stateMutability": "payable",
      "type": "function"
    },
    {
      "inputs": [],
      "name": "inflationRequestThreshold",
      "outputs": [
        {
          "internalType": "uint256",
          "name": "",
          "type": "uint256"
        }
      ],
      "stateMutability": "pure",
      "type": "function"
    },
    {
      "inputs": [],
      "name": "inflationSupply",
      "outputs": [
        {
          "internalType": "uint256",
          "name": "",
          "type": "uint256"
        }
      ],
      "stateMutability": "pure",
      "type": "function"
    },
    {
      "inputs": [],
      "name": "inflationTargetAhead",
      "outputs": [
        {
          "internalType": "uint256",
          "name": "",
          "type": "uint256"
        }
      ],
      "stateMutability": "pure",
      "type": "function"
    },
    {
      "inputs": [],
      "name": "initializeV2",
      "outputs": [],
      "stateMutability": "nonpayable",
      "type": "function"
    },
    {
      "inputs": [
        {
          "internalType": "address",
          "name": "_validator",
          "type": "address"
        }
      ],
      "name": "isBanned",
      "outputs": [
        {
          "internalType": "bool",
          "name": "",
          "type": "bool"
        }
      ],
      "stateMutability": "view",
      "type": "function"
    },
    {
      "inputs": [
        {
          "internalType": "address",
          "name": "_validator",
          "type": "address"
        },
        {
          "internalType": "address",
          "name": "_delegator",
          "type": "address"
        }
      ],
      "name": "isDelegatorOfValidator",
      "outputs": [
        {
          "internalType": "bool",
          "name": "",
          "type": "bool"
        }
      ],
      "stateMutability": "pure",
      "type": "function"
    },
    {
      "inputs": [
        {
          "internalType": "address",
          "name": "_validator",
          "type": "address"
        }
      ],
      "name": "isQuarantined",
      "outputs": [
        {
          "internalType": "bool",
          "name": "",
          "type": "bool"
        }
      ],
      "stateMutability": "view",
      "type": "function"
    },
    {
      "inputs": [
        {
          "internalType": "address",
          "name": "_potentialValidator",
          "type": "address"
        }
      ],
      "name": "isValidator",
      "outputs": [
        {
          "internalType": "bool",
          "name": "",
          "type": "bool"
        }
      ],
      "stateMutability": "view",
      "type": "function"
    },
    {
      "inputs": [
        {
          "internalType": "address",
          "name": "_potentialValidator",
          "type": "address"
        },
        {
          "internalType": "uint256",
          "name": "_epoch",
          "type": "uint256"
        }
      ],
      "name": "isValidatorAtEpoch",
      "outputs": [
        {
          "internalType": "bool",
          "name": "",
          "type": "bool"
        }
      ],
      "stateMutability": "view",
      "type": "function"
    },
    {
      "inputs": [
        {
          "internalType": "address",
          "name": "_validator",
          "type": "address"
        }
      ],
      "name": "isValidatorBanned",
      "outputs": [
        {
          "internalType": "bool",
          "name": "",
          "type": "bool"
        }
      ],
      "stateMutability": "view",
      "type": "function"
    },
    {
      "inputs": [],
      "name": "l2GasLimit",
      "outputs": [
        {
          "internalType": "uint256",
          "name": "",
          "type": "uint256"
        }
      ],
      "stateMutability": "pure",
      "type": "function"
    },
    {
      "inputs": [],
      "name": "l2GasPrice",
      "outputs": [
        {
          "internalType": "uint256",
          "name": "",
          "type": "uint256"
        }
      ],
      "stateMutability": "pure",
      "type": "function"
    },
    {
      "inputs": [],
      "name": "maxValidators",
      "outputs": [
        {
          "internalType": "uint256",
          "name": "",
          "type": "uint256"
        }
      ],
      "stateMutability": "pure",
      "type": "function"
    },
    {
      "inputs": [],
      "name": "numOfBannedValidators",
      "outputs": [
        {
          "internalType": "uint256",
          "name": "",
          "type": "uint256"
        }
      ],
      "stateMutability": "view",
      "type": "function"
    },
    {
      "inputs": [
        {
          "internalType": "address",
          "name": "",
          "type": "address"
        }
      ],
      "name": "operatorsToValidators",
      "outputs": [
        {
          "internalType": "address",
          "name": "",
          "type": "address"
        }
      ],
      "stateMutability": "pure",
      "type": "function"
    },
    {
      "inputs": [
        {
          "internalType": "address",
          "name": "_validator",
          "type": "address"
        }
      ],
      "name": "quarantine",
      "outputs": [],
      "stateMutability": "nonpayable",
      "type": "function"
    },
    {
      "inputs": [],
      "name": "quarantines",
      "outputs": [
        {
          "internalType": "uint256",
          "name": "quarantineCount",
          "type": "uint256"
        },
        {
          "internalType": "uint256",
          "name": "quarantineDecrementCount",
          "type": "uint256"
        }
      ],
      "stateMutability": "view",
      "type": "function"
    },
    {
      "inputs": [],
      "name": "reductionFactor",
      "outputs": [
        {
          "internalType": "uint256",
          "name": "",
          "type": "uint256"
        }
      ],
      "stateMutability": "pure",
      "type": "function"
    },
    {
      "inputs": [],
      "name": "removeAllFromQuarantine",
      "outputs": [],
      "stateMutability": "nonpayable",
      "type": "function"
    },
    {
      "inputs": [],
      "name": "removeAllValidatorBans",
      "outputs": [],
      "stateMutability": "nonpayable",
      "type": "function"
    },
    {
      "inputs": [
        {
          "internalType": "address",
          "name": "_validator",
          "type": "address"
        }
      ],
      "name": "removeFromBanned",
      "outputs": [],
      "stateMutability": "nonpayable",
      "type": "function"
    },
    {
      "inputs": [
        {
          "internalType": "address",
          "name": "_validator",
          "type": "address"
        }
      ],
      "name": "removeFromQuarantine",
      "outputs": [],
      "stateMutability": "nonpayable",
      "type": "function"
    },
    {
      "inputs": [
        {
          "internalType": "address",
          "name": "_validator",
          "type": "address"
        }
      ],
      "name": "removeValidator",
      "outputs": [],
      "stateMutability": "nonpayable",
      "type": "function"
    },
    {
      "inputs": [
        {
          "internalType": "address",
          "name": "_validator",
          "type": "address"
        }
      ],
      "name": "removeValidatorBan",
      "outputs": [],
      "stateMutability": "nonpayable",
      "type": "function"
    },
    {
      "inputs": [],
      "name": "revealingPhaseAddress",
      "outputs": [
        {
          "internalType": "address",
          "name": "",
          "type": "address"
        }
      ],
      "stateMutability": "view",
      "type": "function"
    },
    {
      "inputs": [
        {
          "internalType": "address[]",
          "name": "_validators",
          "type": "address[]"
        },
        {
          "internalType": "uint256[]",
          "name": "_weights",
          "type": "uint256[]"
        }
      ],
      "name": "setActiveValidators",
      "outputs": [],
      "stateMutability": "nonpayable",
      "type": "function"
    },
    {
      "inputs": [
        {
          "internalType": "uint256",
          "name": "_epoch",
          "type": "uint256"
        },
        {
          "internalType": "address[]",
          "name": "_validators",
          "type": "address[]"
        },
        {
          "internalType": "uint256[]",
          "name": "_weights",
          "type": "uint256[]"
        }
      ],
      "name": "setActiveValidatorsAtEpoch",
      "outputs": [],
      "stateMutability": "nonpayable",
      "type": "function"
    },
    {
      "inputs": [
        {
          "internalType": "address payable",
          "name": "_deepthought",
          "type": "address"
        }
      ],
      "name": "setDeepthought",
      "outputs": [],
      "stateMutability": "nonpayable",
      "type": "function"
    },
    {
      "inputs": [
        {
          "internalType": "uint256",
          "name": "_delegatorMinStake",
          "type": "uint256"
        }
      ],
      "name": "setDelegatorMinimumStake",
      "outputs": [],
      "stateMutability": "nonpayable",
      "type": "function"
    },
    {
      "inputs": [
        {
          "internalType": "uint256",
          "name": "_epoch",
          "type": "uint256"
        }
      ],
      "name": "setEpoch",
      "outputs": [],
      "stateMutability": "nonpayable",
      "type": "function"
    },
    {
      "inputs": [
        {
          "internalType": "uint256",
          "name": "_epochExtraMinDuration",
          "type": "uint256"
        }
      ],
      "name": "setEpochExtraMinDuration",
      "outputs": [],
      "stateMutability": "nonpayable",
      "type": "function"
    },
    {
      "inputs": [
        {
          "internalType": "uint256",
          "name": "_epochMinDuration",
          "type": "uint256"
        }
      ],
      "name": "setEpochMinDuration",
      "outputs": [],
      "stateMutability": "nonpayable",
      "type": "function"
    },
    {
      "inputs": [
        {
          "internalType": "uint256",
          "name": "_epochMinDurationThreshold",
          "type": "uint256"
        }
      ],
      "name": "setEpochMinDurationThreshold",
      "outputs": [],
      "stateMutability": "pure",
      "type": "function"
    },
    {
      "inputs": [
        {
          "internalType": "uint256",
          "name": "_epochZeroMinDuration",
          "type": "uint256"
        }
      ],
      "name": "setEpochZeroMinDuration",
      "outputs": [],
      "stateMutability": "nonpayable",
      "type": "function"
    },
    {
      "inputs": [
        {
          "internalType": "address",
          "name": "_finalizationPhase",
          "type": "address"
        }
      ],
      "name": "setFinalizationPhase",
      "outputs": [],
      "stateMutability": "nonpayable",
      "type": "function"
    },
    {
      "inputs": [
        {
          "internalType": "address",
          "name": "_gen",
          "type": "address"
        }
      ],
      "name": "setGen",
      "outputs": [],
      "stateMutability": "nonpayable",
      "type": "function"
    },
    {
      "inputs": [
        {
          "internalType": "address",
          "name": "_idlenessPhase",
          "type": "address"
        }
      ],
      "name": "setIdlenessPhase",
      "outputs": [],
      "stateMutability": "nonpayable",
      "type": "function"
    },
    {
      "inputs": [
        {
          "internalType": "uint256",
          "name": "_inflationRequestThreshold",
          "type": "uint256"
        },
        {
          "internalType": "uint256",
          "name": "_inflationTargetAhead",
          "type": "uint256"
        }
      ],
      "name": "setInflationThresholds",
      "outputs": [],
      "stateMutability": "pure",
      "type": "function"
    },
    {
      "inputs": [
        {
          "internalType": "uint256",
          "name": "_l2GasPrice",
          "type": "uint256"
        },
        {
          "internalType": "uint256",
          "name": "_l2GasLimit",
          "type": "uint256"
        }
      ],
      "name": "setL1InflationGasParams",
      "outputs": [],
      "stateMutability": "pure",
      "type": "function"
    },
    {
      "inputs": [
        {
          "internalType": "uint256",
          "name": "_maxValidators",
          "type": "uint256"
        }
      ],
      "name": "setMaxValidators",
      "outputs": [],
      "stateMutability": "pure",
      "type": "function"
    },
    {
      "inputs": [
        {
          "internalType": "uint256",
          "name": "_reductionFactor",
          "type": "uint256"
        }
      ],
      "name": "setReductionFactor",
      "outputs": [],
      "stateMutability": "pure",
      "type": "function"
    },
    {
      "inputs": [
        {
          "internalType": "address",
          "name": "_revealingPhase",
          "type": "address"
        }
      ],
      "name": "setRevealingPhase",
      "outputs": [],
      "stateMutability": "nonpayable",
      "type": "function"
    },
    {
      "inputs": [
        {
          "internalType": "address",
          "name": "_stakingInvariant",
          "type": "address"
        }
      ],
      "name": "setStakingInvariant",
      "outputs": [],
      "stateMutability": "pure",
      "type": "function"
    },
    {
      "inputs": [
        {
          "internalType": "address",
          "name": "_transactionFeesManager",
          "type": "address"
        }
      ],
      "name": "setTransactionFeesManager",
      "outputs": [],
      "stateMutability": "pure",
      "type": "function"
    },
    {
      "inputs": [
        {
          "internalType": "address",
          "name": "_transactions",
          "type": "address"
        }
      ],
      "name": "setTransactions",
      "outputs": [],
      "stateMutability": "nonpayable",
      "type": "function"
    },
    {
      "inputs": [
        {
          "internalType": "address",
          "name": "_tribunal",
          "type": "address"
        }
      ],
      "name": "setTribunal",
      "outputs": [],
      "stateMutability": "nonpayable",
      "type": "function"
    },
    {
      "inputs": [
        {
          "internalType": "uint256",
          "name": "_delegatorUnbondingPeriod",
          "type": "uint256"
        },
        {
          "internalType": "uint256",
          "name": "_validatorUnbondingPeriod",
          "type": "uint256"
        }
      ],
      "name": "setUnbondingPeriods",
      "outputs": [],
      "stateMutability": "pure",
      "type": "function"
    },
    {
      "inputs": [
        {
          "internalType": "uint256",
          "name": "_validatorMinStake",
          "type": "uint256"
        }
      ],
      "name": "setValidatorMinimumStake",
      "outputs": [],
      "stateMutability": "nonpayable",
      "type": "function"
    },
    {
      "inputs": [
        {
          "internalType": "uint256",
          "name": "_alpha",
          "type": "uint256"
        },
        {
          "internalType": "uint256",
          "name": "_beta",
          "type": "uint256"
        }
      ],
      "name": "setValidatorWeightParams",
      "outputs": [],
      "stateMutability": "pure",
      "type": "function"
    },
    {
      "inputs": [
        {
          "internalType": "address",
          "name": "_delegator",
          "type": "address"
        },
        {
          "internalType": "address",
          "name": "_validator",
          "type": "address"
        }
      ],
      "name": "sharesOf",
      "outputs": [
        {
          "internalType": "uint256",
          "name": "",
          "type": "uint256"
        }
      ],
      "stateMutability": "view",
      "type": "function"
    },
    {
      "inputs": [
        {
          "internalType": "address",
          "name": "_delegator",
          "type": "address"
        },
        {
          "internalType": "address",
          "name": "_validator",
          "type": "address"
        }
      ],
      "name": "stakeOf",
      "outputs": [
        {
          "internalType": "uint256",
          "name": "",
          "type": "uint256"
        }
      ],
      "stateMutability": "view",
      "type": "function"
    },
    {
      "inputs": [],
      "name": "stakingInvariant",
      "outputs": [
        {
          "internalType": "address",
          "name": "",
          "type": "address"
        }
      ],
      "stateMutability": "pure",
      "type": "function"
    },
    {
      "inputs": [],
      "name": "transactionFeesManager",
      "outputs": [
        {
          "internalType": "address",
          "name": "",
          "type": "address"
        }
      ],
      "stateMutability": "pure",
      "type": "function"
    },
    {
      "inputs": [],
      "name": "transactions",
      "outputs": [
        {
          "internalType": "contract ITransactions",
          "name": "",
          "type": "address"
        }
      ],
      "stateMutability": "view",
      "type": "function"
    },
    {
      "inputs": [],
      "name": "tribunal",
      "outputs": [
        {
          "internalType": "contract ITribunalAppeal",
          "name": "",
          "type": "address"
        }
      ],
      "stateMutability": "view",
      "type": "function"
    },
    {
      "inputs": [
        {
          "internalType": "address",
          "name": "_validator",
          "type": "address"
        }
      ],
      "name": "validatorBanDeterministic",
      "outputs": [],
      "stateMutability": "nonpayable",
      "type": "function"
    },
    {
      "inputs": [
        {
          "internalType": "address",
          "name": "_validator",
          "type": "address"
        }
      ],
      "name": "validatorBanned",
      "outputs": [
        {
          "components": [
            {
              "internalType": "address",
              "name": "validator",
              "type": "address"
            },
            {
              "internalType": "uint256",
              "name": "untilEpochBanned",
              "type": "uint256"
            },
            {
              "internalType": "bool",
              "name": "permanentlyBanned",
              "type": "bool"
            }
          ],
          "internalType": "struct IGenLayerStaking.BannedValidators",
          "name": "banned_",
          "type": "tuple"
        }
      ],
      "stateMutability": "view",
      "type": "function"
    },
    {
      "inputs": [
        {
          "internalType": "address",
          "name": "validator",
          "type": "address"
        }
      ],
      "name": "validatorBannedTimestamp",
      "outputs": [
        {
          "internalType": "uint256",
          "name": "bannedTimestamp",
          "type": "uint256"
        }
      ],
      "stateMutability": "view",
      "type": "function"
    },
    {
      "inputs": [
        {
          "internalType": "address",
          "name": "_validator",
          "type": "address"
        }
      ],
      "name": "validatorClaim",
      "outputs": [
        {
          "internalType": "uint256",
          "name": "",
          "type": "uint256"
        }
      ],
      "stateMutability": "nonpayable",
      "type": "function"
    },
    {
      "inputs": [
        {
          "internalType": "address",
          "name": "_validator",
          "type": "address"
        }
      ],
      "name": "validatorDelegatorCount",
      "outputs": [
        {
          "internalType": "uint256",
          "name": "",
          "type": "uint256"
        }
      ],
      "stateMutability": "pure",
      "type": "function"
    },
    {
      "inputs": [
        {
          "internalType": "address",
          "name": "_validator",
          "type": "address"
        },
        {
          "internalType": "uint256",
          "name": "_index",
          "type": "uint256"
        }
      ],
      "name": "validatorDeposit",
      "outputs": [
        {
          "internalType": "uint256",
          "name": "epoch_",
          "type": "uint256"
        },
        {
          "components": [
            {
              "internalType": "uint256",
              "name": "input",
              "type": "uint256"
            },
            {
              "internalType": "uint256",
              "name": "output",
              "type": "uint256"
            },
            {
              "internalType": "uint256",
              "name": "epoch",
              "type": "uint256"
            },
            {
              "internalType": "uint256",
              "name": "linkToNextCommit",
              "type": "uint256"
            }
          ],
          "internalType": "struct IGenLayerStaking.Commit",
          "name": "commit_",
          "type": "tuple"
        }
      ],
      "stateMutability": "view",
      "type": "function"
    },
    {
      "inputs": [],
      "name": "validatorDeposit",
      "outputs": [],
      "stateMutability": "payable",
      "type": "function"
    },
    {
      "inputs": [
        {
          "internalType": "address",
          "name": "_validator",
          "type": "address"
        },
        {
          "internalType": "uint256",
          "name": "_epoch",
          "type": "uint256"
        }
      ],
      "name": "validatorDepositByEpoch",
      "outputs": [
        {
          "components": [
            {
              "internalType": "uint256",
              "name": "input",
              "type": "uint256"
            },
            {
              "internalType": "uint256",
              "name": "output",
              "type": "uint256"
            },
            {
              "internalType": "uint256",
              "name": "epoch",
              "type": "uint256"
            },
            {
              "internalType": "uint256",
              "name": "linkToNextCommit",
              "type": "uint256"
            }
          ],
          "internalType": "struct IGenLayerStaking.Commit",
          "name": "commit_",
          "type": "tuple"
        }
      ],
      "stateMutability": "view",
      "type": "function"
    },
    {
      "inputs": [
        {
          "internalType": "address",
          "name": "_validator",
          "type": "address"
        }
      ],
      "name": "validatorDepositLen",
      "outputs": [
        {
          "internalType": "uint256",
          "name": "",
          "type": "uint256"
        }
      ],
      "stateMutability": "view",
      "type": "function"
    },
    {
      "inputs": [
        {
          "internalType": "uint256",
          "name": "_amount",
          "type": "uint256"
        }
      ],
      "name": "validatorExit",
      "outputs": [],
      "stateMutability": "nonpayable",
      "type": "function"
    },
    {
      "inputs": [
        {
          "internalType": "address",
          "name": "_operator",
          "type": "address"
        }
      ],
      "name": "validatorJoin",
      "outputs": [
        {
          "internalType": "address",
          "name": "",
          "type": "address"
        }
      ],
      "stateMutability": "payable",
      "type": "function"
    },
    {
      "inputs": [],
      "name": "validatorJoin",
      "outputs": [
        {
          "internalType": "address",
          "name": "",
          "type": "address"
        }
      ],
      "stateMutability": "payable",
      "type": "function"
    },
    {
      "inputs": [],
      "name": "validatorMinStake",
      "outputs": [
        {
          "internalType": "uint256",
          "name": "",
          "type": "uint256"
        }
      ],
      "stateMutability": "view",
      "type": "function"
    },
    {
      "inputs": [
        {
          "internalType": "address",
          "name": "_validator",
          "type": "address"
        }
      ],
      "name": "validatorPrime",
      "outputs": [],
      "stateMutability": "nonpayable",
      "type": "function"
    },
    {
      "inputs": [
        {
          "internalType": "address",
          "name": "_validator",
          "type": "address"
        },
        {
          "internalType": "uint256",
          "name": "_at",
          "type": "uint256"
        },
        {
          "internalType": "bytes32",
          "name": "_txId",
          "type": "bytes32"
        }
      ],
      "name": "validatorQuarantine",
      "outputs": [],
      "stateMutability": "nonpayable",
      "type": "function"
    },
    {
      "inputs": [],
      "name": "validatorQuarantineCount",
      "outputs": [
        {
          "internalType": "uint256",
          "name": "",
          "type": "uint256"
        }
      ],
      "stateMutability": "view",
      "type": "function"
    },
    {
      "inputs": [
        {
          "internalType": "address",
          "name": "_validator",
          "type": "address"
        }
      ],
      "name": "validatorQuarantineRepeal",
      "outputs": [],
      "stateMutability": "nonpayable",
      "type": "function"
    },
    {
      "inputs": [
        {
          "internalType": "bytes32",
          "name": "_seed",
          "type": "bytes32"
        },
        {
          "internalType": "uint256",
          "name": "_slot",
          "type": "uint256"
        },
        {
          "internalType": "uint256",
          "name": "_epoch",
          "type": "uint256"
        },
        {
          "internalType": "uint256",
          "name": "_txCreatedTimestamp",
          "type": "uint256"
        },
        {
          "internalType": "uint256",
          "name": "_number",
          "type": "uint256"
        },
        {
          "internalType": "bool",
          "name": "_weighted",
          "type": "bool"
        },
        {
          "internalType": "address[]",
          "name": "_consumed",
          "type": "address[]"
        }
      ],
      "name": "validatorSelection",
      "outputs": [
        {
          "internalType": "uint256",
          "name": "leader_",
          "type": "uint256"
        },
        {
          "internalType": "address[]",
          "name": "validators_",
          "type": "address[]"
        },
        {
          "internalType": "address[]",
          "name": "penalized_",
          "type": "address[]"
        }
      ],
      "stateMutability": "view",
      "type": "function"
    },
    {
      "inputs": [
        {
          "internalType": "bytes32",
          "name": "_seed",
          "type": "bytes32"
        },
        {
          "internalType": "uint256",
          "name": "_slot",
          "type": "uint256"
        },
        {
          "internalType": "uint256",
          "name": "_txCreatedTimestamp",
          "type": "uint256"
        },
        {
          "internalType": "uint256",
          "name": "_number",
          "type": "uint256"
        },
        {
          "internalType": "bool",
          "name": "_weighted",
          "type": "bool"
        },
        {
          "internalType": "address[]",
          "name": "_consumed",
          "type": "address[]"
        }
      ],
      "name": "validatorSelection",
      "outputs": [
        {
          "internalType": "uint256",
          "name": "leader_",
          "type": "uint256"
        },
        {
          "internalType": "address[]",
          "name": "validators_",
          "type": "address[]"
        },
        {
          "internalType": "address[]",
          "name": "penalized_",
          "type": "address[]"
        }
      ],
      "stateMutability": "view",
      "type": "function"
    },
    {
      "inputs": [
        {
          "internalType": "address",
          "name": "_validator",
          "type": "address"
        }
      ],
      "name": "validatorView",
      "outputs": [
        {
          "components": [
            {
              "internalType": "address",
              "name": "left",
              "type": "address"
            },
            {
              "internalType": "address",
              "name": "right",
              "type": "address"
            },
            {
              "internalType": "address",
              "name": "parent",
              "type": "address"
            },
            {
              "internalType": "uint256",
              "name": "eBanned",
              "type": "uint256"
            },
            {
              "internalType": "uint256",
              "name": "ePrimed",
              "type": "uint256"
            },
            {
              "internalType": "uint256",
              "name": "vStake",
              "type": "uint256"
            },
            {
              "internalType": "uint256",
              "name": "vShares",
              "type": "uint256"
            },
            {
              "internalType": "uint256",
              "name": "dStake",
              "type": "uint256"
            },
            {
              "internalType": "uint256",
              "name": "dShares",
              "type": "uint256"
            },
            {
              "internalType": "uint256",
              "name": "vDeposit",
              "type": "uint256"
            },
            {
              "internalType": "uint256",
              "name": "vWithdrawal",
              "type": "uint256"
            },
            {
              "internalType": "bool",
              "name": "live",
              "type": "bool"
            }
          ],
          "internalType": "struct IGenLayerStaking.ValidatorView",
          "name": "",
          "type": "tuple"
        }
      ],
      "stateMutability": "view",
      "type": "function"
    },
    {
      "inputs": [
        {
          "internalType": "address",
          "name": "_validator",
          "type": "address"
        }
      ],
      "name": "validatorViewPrePrimed",
      "outputs": [
        {
          "components": [
            {
              "internalType": "address",
              "name": "left",
              "type": "address"
            },
            {
              "internalType": "address",
              "name": "right",
              "type": "address"
            },
            {
              "internalType": "address",
              "name": "parent",
              "type": "address"
            },
            {
              "internalType": "uint256",
              "name": "eBanned",
              "type": "uint256"
            },
            {
              "internalType": "uint256",
              "name": "ePrimed",
              "type": "uint256"
            },
            {
              "internalType": "uint256",
              "name": "vStake",
              "type": "uint256"
            },
            {
              "internalType": "uint256",
              "name": "vShares",
              "type": "uint256"
            },
            {
              "internalType": "uint256",
              "name": "dStake",
              "type": "uint256"
            },
            {
              "internalType": "uint256",
              "name": "dShares",
              "type": "uint256"
            },
            {
              "internalType": "uint256",
              "name": "vDeposit",
              "type": "uint256"
            },
            {
              "internalType": "uint256",
              "name": "vWithdrawal",
              "type": "uint256"
            },
            {
              "internalType": "bool",
              "name": "live",
              "type": "bool"
            }
          ],
          "internalType": "struct IGenLayerStaking.ValidatorView",
          "name": "",
          "type": "tuple"
        }
      ],
      "stateMutability": "view",
      "type": "function"
    },
    {
      "inputs": [
        {
          "internalType": "address",
          "name": "_validator",
          "type": "address"
        }
      ],
      "name": "validatorViewPrimed",
      "outputs": [
        {
          "components": [
            {
              "internalType": "address",
              "name": "left",
              "type": "address"
            },
            {
              "internalType": "address",
              "name": "right",
              "type": "address"
            },
            {
              "internalType": "address",
              "name": "parent",
              "type": "address"
            },
            {
              "internalType": "uint256",
              "name": "eBanned",
              "type": "uint256"
            },
            {
              "internalType": "uint256",
              "name": "ePrimed",
              "type": "uint256"
            },
            {
              "internalType": "uint256",
              "name": "vStake",
              "type": "uint256"
            },
            {
              "internalType": "uint256",
              "name": "vShares",
              "type": "uint256"
            },
            {
              "internalType": "uint256",
              "name": "dStake",
              "type": "uint256"
            },
            {
              "internalType": "uint256",
              "name": "dShares",
              "type": "uint256"
            },
            {
              "internalType": "uint256",
              "name": "vDeposit",
              "type": "uint256"
            },
            {
              "internalType": "uint256",
              "name": "vWithdrawal",
              "type": "uint256"
            },
            {
              "internalType": "bool",
              "name": "live",
              "type": "bool"
            }
          ],
          "internalType": "struct IGenLayerStaking.ValidatorView",
          "name": "",
          "type": "tuple"
        }
      ],
      "stateMutability": "view",
      "type": "function"
    },
    {
      "inputs": [
        {
          "internalType": "address",
          "name": "_validator",
          "type": "address"
        },
        {
          "internalType": "uint256",
          "name": "_index",
          "type": "uint256"
        }
      ],
      "name": "validatorWithdrawal",
      "outputs": [
        {
          "internalType": "uint256",
          "name": "epoch_",
          "type": "uint256"
        },
        {
          "components": [
            {
              "internalType": "uint256",
              "name": "input",
              "type": "uint256"
            },
            {
              "internalType": "uint256",
              "name": "output",
              "type": "uint256"
            },
            {
              "internalType": "uint256",
              "name": "epoch",
              "type": "uint256"
            },
            {
              "internalType": "uint256",
              "name": "linkToNextCommit",
              "type": "uint256"
            }
          ],
          "internalType": "struct IGenLayerStaking.Commit",
          "name": "commit_",
          "type": "tuple"
        }
      ],
      "stateMutability": "view",
      "type": "function"
    },
    {
      "inputs": [
        {
          "internalType": "address",
          "name": "_validator",
          "type": "address"
        },
        {
          "internalType": "uint256",
          "name": "_epoch",
          "type": "uint256"
        }
      ],
      "name": "validatorWithdrawalByEpoch",
      "outputs": [
        {
          "components": [
            {
              "internalType": "uint256",
              "name": "input",
              "type": "uint256"
            },
            {
              "internalType": "uint256",
              "name": "output",
              "type": "uint256"
            },
            {
              "internalType": "uint256",
              "name": "epoch",
              "type": "uint256"
            },
            {
              "internalType": "uint256",
              "name": "linkToNextCommit",
              "type": "uint256"
            }
          ],
          "internalType": "struct IGenLayerStaking.Commit",
          "name": "commit_",
          "type": "tuple"
        }
      ],
      "stateMutability": "view",
      "type": "function"
    },
    {
      "inputs": [
        {
          "internalType": "address",
          "name": "_validator",
          "type": "address"
        }
      ],
      "name": "validatorWithdrawalLen",
      "outputs": [
        {
          "internalType": "uint256",
          "name": "",
          "type": "uint256"
        }
      ],
      "stateMutability": "view",
      "type": "function"
    },
    {
      "inputs": [],
      "name": "validatorsCount",
      "outputs": [
        {
          "internalType": "uint256",
          "name": "",
          "type": "uint256"
        }
      ],
      "stateMutability": "view",
      "type": "function"
    },
    {
      "inputs": [
        {
          "internalType": "uint256",
          "name": "",
          "type": "uint256"
        }
      ],
      "name": "validatorsEven",
      "outputs": [
        {
          "internalType": "address",
          "name": "",
          "type": "address"
        }
      ],
      "stateMutability": "view",
      "type": "function"
    },
    {
      "inputs": [
        {
          "internalType": "uint256",
          "name": "",
          "type": "uint256"
        }
      ],
      "name": "validatorsJoined",
      "outputs": [
        {
          "internalType": "address",
          "name": "",
          "type": "address"
        }
      ],
      "stateMutability": "pure",
      "type": "function"
    },
    {
      "inputs": [],
      "name": "validatorsJoinedCount",
      "outputs": [
        {
          "internalType": "uint256",
          "name": "",
          "type": "uint256"
        }
      ],
      "stateMutability": "view",
      "type": "function"
    },
    {
      "inputs": [
        {
          "internalType": "uint256",
          "name": "",
          "type": "uint256"
        }
      ],
      "name": "validatorsOdd",
      "outputs": [
        {
          "internalType": "address",
          "name": "",
          "type": "address"
        }
      ],
      "stateMutability": "view",
      "type": "function"
    },
    {
      "inputs": [],
      "name": "validatorsRoot",
      "outputs": [
        {
          "internalType": "address",
          "name": "",
          "type": "address"
        }
      ],
      "stateMutability": "view",
      "type": "function"
    },
    {
      "inputs": [
        {
          "internalType": "uint256",
          "name": "",
          "type": "uint256"
        }
      ],
      "name": "weightsEven",
      "outputs": [
        {
          "internalType": "uint256",
          "name": "",
          "type": "uint256"
        }
      ],
      "stateMutability": "view",
      "type": "function"
    },
    {
      "inputs": [
        {
          "internalType": "uint256",
          "name": "",
          "type": "uint256"
        }
      ],
      "name": "weightsOdd",
      "outputs": [
        {
          "internalType": "uint256",
          "name": "",
          "type": "uint256"
        }
      ],
      "stateMutability": "view",
      "type": "function"
    }
  ],
  "bytecode": "0x608034607057601f61462738819003918201601f19168301916001600160401b03831184841017607557808492602094604052833981010312607057516001600160a01b03811690819003607057600880546001600160a01b03191691909117905560405161459b908161008c8239f35b600080fd5b634e487b7160e01b600052604160045260246000fdfe61026080604052600436101561001457600080fd5b6000803560e01c918263019f89f514612c345750816301fe0a7814612c0957816304abb96d14612bf557816305f30c71146118a157816308ac525614611943578163090d60bd14612b4d5781630a3cfb1314612b235781630a7292f5146110985781630ab07e88146110ba5781630bbc90e3146110985781630ceb2cef14612b095781630d2bd90914612ad75781630d8e6e2c14611f355781630ecba814146118da5781630ee34fd514612aa7578163151e960214612a72578163152ba3f7146119485781631538faf214612a55578163161472eb1461294557816316e7d51314610f98578163180151911461291d5781631bc2359a146129005781631f75920814610ed5578163210663e4146128e4578163217fcc3e1461194357816321c499e8146118da57816321ef686f1461079c57816322133af014610ed55781632272e0ab14611e5f57816324147f6714610e7557816324840a5e14610e7557816325e3926e14612526578163278c12371461109857816328262d81146128af5781632b5de0de146128045781632df04497146127845781632ea9400614610ed55781633057b168146118a157816330ebe468146127bf5781633197f9571461278957816331b9e1111461153b578163363ea83d14612784578163370d012014611e0a578163389511091461257a57816339b941891461079c5781633ab76e9f14610e755781633b0da623146125415781633e933d5d146125265781633fde6d7b1461250957816340a141ff1461216557816340f0edc41461213d5781634573428714611e5a57816346da2a94146118da578163485d6ef8146121035781634971ec02146120e15781634b48c391146118a15781634b48f272146114ac5781634c12b33f14610e755781634cc91c34146120525781634f2938fc1461202a5781634f2a939414611ff5578163502e28ea14611098578163510a6f2614611f3057816354acf91814611f9257816355174ae614611f6e57816356eaad0f14611f4d5781635cd8a76b14611f3a578163624a448514610e755781636378eba314611f355781636461cf5614611f305781636585f67914611e6457816367604d2714611e5f5781636863c64f14610e755781636a319a6414611e5a5781637071688a14610e1e57816370ccae7614611098578163746e4ac714611e305781637492100f14611e0f578163759f24f414610ed557816377a6851414611e0a57816379073e6e14611dd1578163799e4e8b14611db657816379cbf85f14611b705781637a5d266014611b485781637d0b490614611a775781637e391d5d14611a2b5781637f10fe0814610ed557816380f8702614611a0f57816381636917146118da57816382df24a1146119ac578163837725951461199057816387e51da91461194d5781638aabb07e146119485781638b7e92a6146119435781638ba7eceb14611926578163900cf0cf14611909578163900fd9ce146118df57816391eed60a146118da57816392d3f78e146118b457816393a090ec14610f9d5781639424f7611461111f578163968d97ab146118a157816396be02a71461185c57816397c3ccd8146117ee57816397f735d5146116615781639a612f7a1461179b5781639ae3668514610e755781639b401cde146117345781639bb2ea5a14610ed55781639c8d83bb146116f35781639e027604146116e5578163a01ebaa1146116c2578163a0d6d05c1461168d578163a39a580614611688578163a5dc8da014611688578163a629c2f714610ed5578163a8027c1014611666578163a92252ae14611661578163abfd6fa914610e75578163ac78a04b14611645578163ad92a95714611557578163af6c09a814611098578163b03df1f01461153b578163b12d0d82146114c9578163b2c224b4146114ac578163b3f05b971461148f578163b810fc0d14611468578163b83f5b39146113c9578163b8793e781461137f578163bae2be5614611283578163c0a604ad14611266578163c1deb4f114611241578163c32459a1146111b7578163c3ff497714610ed5578163c498c95b14611193578163c5a7f19214611143578163c70cd4351461111f578163c90df53214610ed5578163c9d0de3414610e1e578163cb17452f146110e5578163cba6d6d21461079c578163cc373045146110bf578163cd38347f146110ba578163cd8562351461109d578163ce4cb87614611098578163cf662c1414610fa2578163cf6e65b714610e75578163d152d91b14610f9d578163d2d49c4b14610f98578163d582a34b14610f12578163d7ef354414610e75578163d833aaf014610eda578163d8a7f84c14610ed5578163d9cb294314610e89578163da7a9b6a14610e75578163de8d9d3814610e7a578163de8eec6414610e75578163dfc957ea14610e40578163e3c6b0ca14610e23578163ed612f8c14610e1e578163ee65068414610df0578163f4435b5c14610d5e578163f524e9df14610ce1578163f684e88414610cb1578163f8512d8714610c94578163f85683ef14610c6c578163facd743b14610c3f578163fad76f6414610bd7578163fafebac514610b92578163fb6fe77614610b76578163fc6b1c2414610aee578163fc6c1f021461081f578163fca905a3146107a1575063fe2761371461079c57600080fd5b612f1b565b3461081c5760c036600319011261081c5760843590811515820361081c5760a435906001600160401b03821161081c576108186108096107f5856107e83660048801612e04565b9290600e54933691613347565b916064359060443590602435600435613c9d565b604093919351938493846133c0565b0390f35b80fd5b3461081c57604036600319011261081c57610838612c4c565b60175460243590600160401b811015610ace578261086182600161086794016017556017612d62565b906136f5565b6016546000198101908111610a9f5761087f81612d32565b90549060031b1c601654600160401b811015610aba576108f392916108af8260016108c894016016556016612d62565b90919082549060031b91821b91600019901b1916179055565b60165415610ae2576108af6108ed6108df83612d32565b90549060031b1c5b85613525565b91612d32565b601954600160401b811015610ace578261086182600161091894016019556019612d62565b601854600019810191908211610a9f5761093182612cfc565b90549060031b1c601854600160401b811015610aba5761098c93926109686108af936108af84600161098696016018556018612d62565b60185415610ab35761097984612cfc565b90549060031b1c90613525565b91612cfc565b6017546001198101818111610a9f576109a481612cb0565b905460039190911b1c6001600160a01b0316916000198101908111610a8b57610a0092916109fb826109f36109db61086195612cb0565b905460039190911b1c6001600160a01b031691612cb0565b949093612cb0565b6136f5565b6016546001198101818111610a9f57610a1881612d32565b90549060031b1c916000198101908111610a8b57610a719291610a5982610a51610a446108af95612d32565b90549060031b1c91612d32565b949093612d32565b919082549060031b91821b91600019901b1916179055565b6001600160a01b0316815260208190526040812081905580f35b634e487b7160e01b85526011600452602485fd5b634e487b7160e01b84526011600452602484fd5b8690613525565b634e487b7160e01b86526041600452602486fd5b634e487b7160e01b84526041600452602484fd5b6108af6108ed866108e7565b3461081c57604036600319011261081c576004356001600160401b038111610b7257610b1e9036906004016133a2565b60243590610b2b826135b2565b925b828110610b4a576040516020808252819061081890820187612e88565b6001906001600160a01b03610b5f82856135e4565b5116610b6b82876135e4565b5201610b2d565b5080fd5b3461081c57602036600319011261081c57602090604051908152f35b3461081c578060031936011261081c57601a54601b5490610818601c54601d54601e54601f54602054602154916022549360235495602454976040519b8c9b8c613424565b3461081c57602036600319011261081c577f304c2a8493b9e418525993ce24edcc67d1a1b6c083d600a9cf0b8cf5c111755c60206001600160a01b03610c1b612c4c565b1680845260058252836040812055808452838252836040812055604051908152a180f35b3461081c57602036600319011261081c576020610c62610c5d612c4c565b6137d2565b6040519015158152f35b3461081c578060031936011261081c57600c546040516001600160a01b039091168152602090f35b3461081c578060031936011261081c576020600254604051908152f35b3461081c57610cbf366134ae565b505050610818610ccd613596565b604051918291602083526020830190612e88565b3461081c578060031936011261081c5760405160048054808352908352909160208301917f8a35acfbc15ff81a39ae7d344fd709f28e8600b4aa8c65c6b64bfe7fe36bd19b915b818110610d3f5761081885610ccd8187038261330f565b82546001600160a01b0316845260209093019260019283019201610d28565b3461081c57610d6c366134ae565b505050602060405191610d7f828461330f565b808352916040519180830190808452825180925280604085019301945b828110610da95784840385f35b855180516001600160a01b0316855280830151858401526040808201519086015260608082015190860152608090810151908501529481019460a090930192600101610d9c565b3461081c57604036600319011261081c57602090610e0c612c4c565b50610e15612c67565b50604051908152f35b613289565b3461081c578060031936011261081c576020601254604051908152f35b3461081c57602036600319011261081c576001600160a01b03610e61612c4c565b1660018060a01b0319600954161760095580f35b612f52565b602036600319011261081c5780f35b3461081c578060031936011261081c57805b601754811015610ecd5780610ec7610eb4600193612cb0565b848060a01b0391549060031b1c166137ad565b01610e9b565b5080600d5580f35b612f08565b3461081c57602036600319011261081c576020906040906001600160a01b03610f01612c4c565b168152600183522054604051908152f35b3461081c57608036600319011261081c577f46cda53c301fdcf68b170f57e98b59fbc32ad0d522bdd36278d635e4750ac520610f92610f4f612c4c565b6001600160a01b03168084526005602090815260408086204290558051928352606435918301919091526024359082015260443560608201529081906080820190565b0390a180f35b612ec5565b6133eb565b3461081c578060031936011261081c576008546001600160a01b031633141580611083575b8061106e575b80611059575b61104a576015546001810180821161103657600e54146110275760208161101a7f94dd18d0cc0262cc85d4b8937d35e70671aaed2e54033dbad2cf13b83c65d8b193613587565b601555604051908152a180f35b630cd9898f60e21b8252600482fd5b634e487b7160e01b83526011600452602483fd5b636c4db06b60e01b8152600490fd5b50600c546001600160a01b0316331415610fd3565b50600a546001600160a01b0316331415610fcd565b506009546001600160a01b0316331415610fc7565b612d7a565b3461081c578060031936011261081c576020601354604051908152f35b612da8565b3461081c57602036600319011261081c5760206110dd6004356138ef565b604051908152f35b3461081c578060031936011261081c5760206040517f155e7f76c52e49fe8308e62eabe3ce449c978443b7d8beb86992427229ec386f8152f35b3461081c57602036600319011261081c5761114061113b612c4c565b6137ad565b80f35b3461081c57602036600319011261081c5750600e546020906004359060011661117e5761116f90612d32565b90549060031b1c604051908152f35b61118790612cfc565b90549060031b1c6110dd565b3461081c578060031936011261081c5760206040516908e4d3168276864000008152f35b3461081c57602036600319011261081c577f94a7bf639ae38b6414015161ac06878bbac5ba80ee87e24ed428ce754136ec9660206001600160a01b036111fb612c4c565b1680845260058252426040852055600e5460405190611219826132d8565b815260018382016000198152838752868552604087209251835551910155604051908152a180f35b3461081c57602036600319011261081c5761125a612c4c565b50610818610ccd613596565b3461081c578060031936011261081c576020600f54604051908152f35b3461081c57602036600319011261081c576001600160a01b036112a4612c4c565b1680825260056020528160408120556112be600254613776565b600255815b6004548082101561137957826112d883612ce1565b905460039190911b1c6001600160a01b0316146112f857506001016112c3565b9091506000198101908111611036579061086161131761132f93612ce1565b905460039190911b1c6001600160a01b031691612ce1565b6004548015611365576000190161135f61134a826004612d62565b81549060018060a01b039060031b1b19169055565b60045580f35b634e487b7160e01b82526031600452602482fd5b50505080f35b3461081c57602036600319011261081c5760043590600a820291808304600a14901517156113b557602082606460405191048152f35b634e487b7160e01b81526011600452602490fd5b3461081c57602036600319011261081c576108189060406113e8612c4c565b916113f161363b565b506113fa61363b565b926001600e5416156000146114585761142d61142061142760175b8651928380926135f8565b038261330f565b82614372565b15156101608501526001600160a01b0316815260208190522054606082015260405191829182612f6e565b61142d6114206114276019611415565b3461081c57604036600319011261081c576020610c62611486612c4c565b60243590613718565b3461081c578060031936011261081c576020601554604051908152f35b3461081c578060031936011261081c576020600d54604051908152f35b3461081c57604036600319011261081c57611503600e54604051906114ef60208361330f565b838252600036813760243590600435613902565b5080519092915015611527576020828101516040516001600160a01b039091168152f35b634e487b7160e01b81526032600452602490fd5b3461081c57602036600319011261081c57602090610e15612c4c565b3461081c57604036600319011261081c576004356001600160401b038111610b72576115879036906004016133a2565b906024356001600160401b038111610b72576115a79036906004016133a2565b916115bd6115b88251855190613525565b6135b2565b92825b82518110156115f1576001906001600160a01b036115de82866135e4565b51166115ea82886135e4565b52016115c0565b50915b825181101561162f576001906001600160a01b0361161282866135e4565b5116611628611622838651613525565b876135e4565b52016115f4565b6040516020808252819061081890820187612e88565b3461081c578060031936011261081c5760206040516101f48152f35b613470565b3461081c578060031936011261081c576020604051660aa87bee537fff198152f35b613493565b3461081c57602036600319011261081c576001600160a01b036116ae612c4c565b1660018060a01b0319600a541617600a5580f35b3461081c578060031936011261081c576020604051684e1003b28d928000008152f35b8060031936011261081c5780f35b3461081c57602036600319011261081c5760409081906001600160a01b03611719612c4c565b16815280602052206001815491015482519182526020820152f35b3461081c578060031936011261081c576020906001600e5416156000146117945760175b80541561178e576117699150612d4d565b905460039190911b1c6001600160a01b03165b6040516001600160a01b039091168152f35b5061177c565b6019611758565b3461081c578060031936011261081c576015546001810180821161103657600e54146110275760208161101a7f94dd18d0cc0262cc85d4b8937d35e70671aaed2e54033dbad2cf13b83c65d8b193613587565b3461081c57602036600319011261081c57611807612c4c565b600e5460405190611817826132d8565b815260016020820192818452818060a01b0316928385528460205260408520925183555191015581526001602052426040822055611856600d54613587565b600d5580f35b3461081c578060031936011261081c5760255460265490610818602754602854602954602a54602b54602c5491602d5493602e5495602f54976040519b8c9b8c613424565b3461081c576118af36612c7d565b505080f35b3461081c57602036600319011261081c576004356001600160a01b0381160361081c5780f35b612deb565b3461081c57602036600319011261081c576004359060165482101561081c57602061116f83612d32565b3461081c578060031936011261081c576020600e54604051908152f35b3461081c57604036600319011261081c5761193f612c4c565b5080f35b612c93565b612e57565b3461081c57602036600319011261081c576004359060195482101561081c57602061197783612d17565b905460405160039290921b1c6001600160a01b03168152f35b3461081c578060031936011261081c576020604051611d4c8152f35b3461081c5760e036600319011261081c5760a43590811515820361081c5760c435906001600160401b03821161081c57610818610809846119fa6119f33660048801612e04565b3691613347565b90608435606435604435602435600435613c9d565b3461081c578060031936011261081c5760206040516103208152f35b3461081c57602036600319011261081c5750600e5460209060043590600116611a575761176990612cb0565b611a6090612d17565b905460039190911b1c6001600160a01b031661177c565b3461081c57608036600319011261081c576004356001600160401b038111610b7257611aa79036906004016133a2565b606435602435604435845b8451811015611b44576001906001600160a01b03611ad082886135e4565b5116875260056020528360408820557f46cda53c301fdcf68b170f57e98b59fbc32ad0d522bdd36278d635e4750ac52085838060a01b03611b11848a6135e4565b5160408051929091166001600160a01b03168252602082019290925290810186905260608101859052608090a101611ab2565b8580f35b3461081c578060031936011261081c57600b546040516001600160a01b039091168152602090f35b3461081c57604036600319011261081c576004356001600160401b038111610b7257611ba0903690600401612e04565b6024356001600160401b038111611db257611bbf903690600401612e04565b929091838103611d4c576001600160401b038111611d1357600160401b8111611d1357611bf28160175481601755613895565b6017855260008051602061450683398151915285835b838210611d27575050506001600160401b038411611d1357600160401b8411611d1357611c3b84601654816016556138c2565b6016855260008051602061452683398151915283865b868110611cff57505050600091611c6e8260195481601955613839565b60198652600080516020614546833981519152919086905b828210611cd6575050505050611ca28260185481601855613868565b601883526000805160206144e6833981519152835b838110611cc2578480f35b600190602084359401938184015501611cb7565b8035916001600160a01b0383168303611cfb5760206001920192818601550190611c86565b8880fd5b600190602083359301928185015501611c51565b634e487b7160e01b85526041600452602485fd5b8035916001600160a01b0383168303611cfb5760206001920192818501550190611c08565b60405162461bcd60e51b815260206004820152603860248201527f56616c696461746f727320616e64207765696768747320617272617973206d756044820152770e6e840c4ca40decc40e8d0ca40e6c2daca40d8cadccee8d60431b6064820152608490fd5b8380fd5b3461081c57611dc436612c7d565b5050610818610ccd613596565b3461081c57602036600319011261081c57600435906103e88202918083046103e814901517156113b55760208261271060405191048152f35b6131be565b3461081c578060031936011261081c576020604051668e1bc9bf0400008152f35b3461081c57602036600319011261081c576004359060185482101561081c57602061116f83612cfc565b613220565b612f36565b3461081c57602036600319011261081c57611e7d612c4c565b6001600160a01b038116808352600560205260408320429055600254611ea290613587565b6002556004548391825b828110611ef9575b50505015611ec0575080f35b600454600160401b811015611ee5579061086182600161114094016004556004612d62565b634e487b7160e01b83526041600452602483fd5b81611f0382612ce1565b905460039190911b1c6001600160a01b031614611f2257600101611eac565b505050506001838080611eb4565b61326e565b612dcf565b3461081c578060031936011261081c5780f35b3461081c578060031936011261081c57611f68600e54613587565b600e5580f35b3461081c578060031936011261081c57604060025460035482519182526020820152f35b3461081c57606036600319011261081c577f6917318dac70d2950cf691aa372c972b60d4a75903e00a01f89a795a70de683760406001600160a01b03611fd6612c4c565b168084526005602052428285205581519081526024356020820152a180f35b3461081c57602036600319011261081c576001600160a01b03612016612c4c565b1660018060a01b0319600b541617600b5580f35b3461081c578060031936011261081c57600a546040516001600160a01b039091168152602090f35b3461081c578060031936011261081c57600e546001166120da5760175b815b81548110156120d6578061208760019284612d62565b838060a01b0391549060031b1c168452600560205260408420546120ac575b01612071565b6120b68184612d62565b838060a01b0391549060031b1c16845260056020528360408120556120a6565b8280f35b601961206f565b3461081c578060031936011261081c576020604051670214e8348c4f00008152f35b3461081c57602036600319011261081c576020906040906001600160a01b0361212a612c4c565b1681526005835220541515604051908152f35b3461081c578060031936011261081c576009546040516001600160a01b039091168152602090f35b3461081c57602036600319011261081c5761217e612c4c565b6017805490926000199290916016916001600160a01b031690835b8181106124d4575b505060001984146124c55783612495578154156124815781835260208320548360031b1c5b845b865460001981019081116122165781101561222a576001810180821161221657906122106121f86001938a612d62565b848060a01b0391549060031b1c16610861838b612d62565b016121c8565b634e487b7160e01b86526011600452602486fd5b50838561223688613790565b8454600019810190811161103657811015612286576001810180821161103657906122806122768561226a6001958a612d62565b90549060031b1c613783565b6108af8389612d62565b01612236565b5082848054801561246d5760001901906122b46122a38383612d62565b8154906000199060031b1b19169055565b556019915060186000199160008454905b818110612438575b5050600019831461242757826123eb5760008254156115275782815260209020545b835b8554600019810190811161233f5781101561235557600181019081811161233f5761233961232160019389612d62565b848060a01b0391549060031b1c16610861838a612d62565b016122f1565b634e487b7160e01b600052601160045260246000fd5b508361236086613790565b8354600019810190811161233f578110156123a457600181019081811161233f5761239e6123948461226a60019589612d62565b6108af8388612d62565b01612360565b8284805480156123d55760001901906123c06122a38383612d62565b55600052600060205260006040812055600080f35b634e487b7160e01b600052603160045260246000fd5b6123f58383612d62565b905460001985019160031b1c84821161233f576124156124229285612d62565b90549060031b1c90613783565b6122ef565b630705dfdb60e21b60005260046000fd5b826124438288612d62565b905460039190911b1c6001600160a01b031614612462576001016122c5565b9350859050806122cd565b634e487b7160e01b84526031600452602484fd5b634e487b7160e01b83526032600452602483fd5b61249f8483612d62565b90549060031b1c6000198501858111610a8b57906124156124c09285612d62565b6121c6565b630705dfdb60e21b8352600483fd5b826124df8289612d62565b905460039190911b1c6001600160a01b0316146124fe57600101612199565b9450869050806121a1565b3461081c578060031936011261081c576020601154604051908152f35b3461081c578060031936011261081c57602060405160018152f35b3461081c57602036600319011261081c57600435906101f48202918083046101f414901517156113b55760208261271060405191048152f35b3461081c57606036600319011261081c576024356001600160401b038111610b72576125aa903690600401612e04565b906044356001600160401b038111611db2576125ca903690600401612e04565b929091838203611d4c576004356001166126b3576001600160401b038211611d1357600160401b8211611d13576126078260175481601755613895565b60178552600080516020614506833981519152919085905b82821061268a57505050506001600160401b038211611ee557600160401b8211611ee55761265382601654816016556138c2565b60168352600080516020614526833981519152835b838110612676575050505080f35b600190602084359401938184015501612668565b8035916001600160a01b03831683036126af576020600192019281860155019061261f565b8780fd5b6001600160401b038211611d1357600160401b8211611d13576126dc8260195481601955613839565b60198552600080516020614546833981519152919085905b82821061275f57505050506001600160401b038211611ee557600160401b8211611ee5576127288260185481601855613868565b601883526000805160206144e6833981519152835b83811061274b575050505080f35b60019060208435940193818401550161273d565b8035916001600160a01b03831683036126af57602060019201928186015501906126f4565b61300a565b3461081c57602036600319011261081c57600435906050820291808304605014901517156113b557602082606460405191048152f35b8060031936011261081c5760206040518181016127ee826127e033846134d8565b03601f19810184528361330f565b905190206040516001600160a01b039091168152f35b3461081c578060031936011261081c57600e546001166128a85760165b604051908160208254918281520190819285526020852090855b818110612892575050508261285191038361330f565b604051928392602084019060208552518091526040840192915b818110612879575050500390f35b825184528594506020938401939092019160010161286b565b825484526020909301926001928301920161283b565b6018612821565b3461081c57602036600319011261081c576001600160a01b036128d0612c4c565b1660018060a01b0319600c541617600c5580f35b3461081c578060031936011261081c57602060405161800a8152f35b3461081c578060031936011261081c576020601054604051908152f35b3461081c578060031936011261081c576008546040516001600160a01b039091168152602090f35b3461081c578060031936011261081c57806001600e541615600014612a4d576017915b815b83548110156129bc5761297d8185612d62565b905460039190911b1c6001600160a01b03168352600560205260408320546129a8575b60010161296a565b906129b4600191613587565b9190506129a0565b506129c6906135b2565b918190825b8154811015612a3757806129e160019284612d62565b838060a01b0391549060031b1c16855260056020526040852054612a06575b016129cb565b612a108184612d62565b838060a01b0391549060031b1c16612a31612a2a86613587565b95886135e4565b52612a00565b6040516020808252819061081890820188612e88565b601991612968565b3461081c578060031936011261081c576020601454604051908152f35b3461081c57602036600319011261081c576001600160a01b03612a93612c4c565b1660018060a01b0319600854161760085580f35b3461081c57602036600319011261081c576004356001600160401b038111610b72576118af903690600401612e04565b3461081c578060031936011261081c5750600e54600116612aff576020601754604051908152f35b60206019546110dd565b3461081c57602036600319011261081c57600435600e5580f35b3461081c57602036600319011261081c576004359060175482101561081c57602061197783612cb0565b3461081c57602036600319011261081c57606090612b69612c4c565b612b71613506565b506001600160a01b0316808252602082905260409091206001810154600019811491908215612be65750506000195b60405192612bad846132a7565b835260208301526040820152612be460405180926040809160018060a01b0381511684526020810151602085015201511515910152565bf35b612bf09154613525565b612ba0565b602036600319011261081c5761193f612c4c565b602036600319011261081c576020612c1f612c4c565b604051906127ee826127e085820193846134d8565b34610b72576020366003190112610b72576020918152f35b600435906001600160a01b0382168203612c6257565b600080fd5b602435906001600160a01b0382168203612c6257565b6040906003190112612c62576004359060243590565b34612c62576000366003190112612c625760206040516103e88152f35b601754811015612ccb57601760005260206000200190600090565b634e487b7160e01b600052603260045260246000fd5b600454811015612ccb57600460005260206000200190600090565b601854811015612ccb57601860005260206000200190600090565b601954811015612ccb57601960005260206000200190600090565b601654811015612ccb57601660005260206000200190600090565b805415612ccb57600052602060002090600090565b8054821015612ccb5760005260206000200190600090565b34612c62576040366003190112612c6257612d93612c4c565b50612d9c612c67565b50602060405160008152f35b34612c62576000366003190112612c625760206040516b0d92289838d21a99680000008152f35b34612c62576000366003190112612c6257602060405160018152f35b34612c62576020366003190112612c6257612d9c612c4c565b9181601f84011215612c62578235916001600160401b038311612c62576020808501948460051b010111612c6257565b606080918051845260208101516020850152604081015160408501520151910152565b34612c62576040366003190112612c6257612e70612c4c565b506080612e7b613552565b612be46040518092612e34565b906020808351928381520192019060005b818110612ea65750505090565b82516001600160a01b0316845260209384019390920191600101612e99565b34612c62576000366003190112612c6257600e54600116612ef857610818611420610ccd60175b604051928380926135f8565b610818611420610ccd6019612eec565b34612c62576020366003190112612c6257005b34612c62576020366003190112612c6257612f34612c4c565b005b34612c62576000366003190112612c6257602060405160078152f35b34612c62576000366003190112612c6257602060405160008152f35b9190916101608061018083019460018060a01b03815116845260018060a01b03602082015116602085015260018060a01b036040820151166040850152606081015160608501526080810151608085015260a081015160a085015260c081015160c085015260e081015160e085015261010081015161010085015261012081015161012085015261014081015161014085015201511515910152565b34612c62576020366003190112612c6257613023612c4c565b60009061302e61363b565b5060405163b83f5b3960e01b81526001600160a01b03909116600482015261018081602481305afa908115613151578291613072575b604051806108188482612f6e565b9050610180813d8211613149575b8161308e610180938361330f565b81010312610b7257610160604051916130a6836132f3565b6130af81613694565b83526130bd60208201613694565b60208401526130ce60408201613694565b6040840152606081015160608401526080810151608084015260a081015160a084015260c081015160c084015260e081015160e08401526101008101516101008401526101208101516101208401526101408101516101408401520151801515810361314557610818925061016082015238613064565b8280fd5b3d9150613080565b6040513d84823e3d90fd5b602060408183019282815284518094520192019060005b8181106131805750505090565b90919260206060826131b360019488516040809160018060a01b0381511684526020810151602085015201511515910152565b019401929101613173565b34612c62576060366003190112612c62576108186131da6136bb565b6040519182918261315c565b6060906003190112612c62576004356001600160a01b0381168103612c6257906024356001600160a01b0381168103612c62579060443590565b34612c625761322e366131e6565b50505060c060405161323f816132d8565b60008152612be46020820160008152613256613552565b90604051935184525160208401526040830190612e34565b34612c625761327c36612c7d565b50506108186131da6136bb565b34612c62576000366003190112612c625760206110dd600e546138ef565b606081019081106001600160401b038211176132c257604052565b634e487b7160e01b600052604160045260246000fd5b604081019081106001600160401b038211176132c257604052565b61018081019081106001600160401b038211176132c257604052565b90601f801991011681019081106001600160401b038211176132c257604052565b6001600160401b0381116132c25760051b60200190565b929161335282613330565b93613360604051958661330f565b602085848152019260051b8101918211612c6257915b81831061338257505050565b82356001600160a01b0381168103612c6257815260209283019201613376565b9080601f83011215612c62578160206133bd93359101613347565b90565b916133dd906133bd94928452606060208501526060840190612e88565b916040818403910152612e88565b34612c62576040366003190112612c6257613404612c4c565b5060a061340f613552565b612be460405191600083526020830190612e34565b979491926101409996939c9b9a9794919c6101608a019d8a5260208a015260408901526060880152608087015260a086015260c085015260e08401526101008301526101208201520152565b34612c62576020366003190112612c62576020610c6261348e612c4c565b614326565b34612c62576134a1366131e6565b5050506080612e7b613552565b6060906003190112612c62576004356001600160a01b0381168103612c6257906024359060443590565b601d91683b30b634b230ba37b960b91b82526bffffffffffffffffffffffff199060601b1660098201520190565b60405190613513826132a7565b60006040838281528260208201520152565b9190820180921161233f57565b811561353c570690565b634e487b7160e01b600052601260045260246000fd5b60405190608082018281106001600160401b038211176132c25760405260006060838281528260208201528260408201520152565b600019811461233f5760010190565b604051906135a560208361330f565b6000808352366020840137565b906135bc82613330565b6135c9604051918261330f565b82815280926135da601f1991613330565b0190602036910137565b8051821015612ccb5760209160051b010190565b906020825491828152019160005260206000209060005b81811061361c5750505090565b82546001600160a01b031684526020909301926001928301920161360f565b60405190613648826132f3565b6000610160838281528260208201528260408201528260608201528260808201528260a08201528260c08201528260e08201528261010082015282610120820152826101408201520152565b51906001600160a01b0382168203612c6257565b8181029291811591840414171561233f57565b604051906136ca60208361330f565b600080835282815b8281106136de57505050565b6020906136e9613506565b828285010152016136d2565b80546001600160a01b0360039390931b83811b199091169290931690921b179055565b9060011661376e576017905b60005b82548110156137665761373a8184612d62565b905460039190911b1c6001600160a01b039081169083161461375e57600101613727565b505050600190565b505050600090565b601990613724565b801561233f576000190190565b9190820391821161233f57565b805480156123d55760001901906137aa61134a8383612d62565b55565b6001600160a01b03166000908152602081815260408083208390556001909152812055565b600e5460011661381a576017905b60005b8254811015613766576137f68184612d62565b905460039190911b1c6001600160a01b039081169083161461375e576001016137e3565b6019906137e0565b81811061382d575050565b60008155600101613822565b808210613844575050565b6019600052613866916000805160206145468339815191529182019101613822565b565b808210613873575050565b6018600052613866916000805160206144e68339815191529182019101613822565b8082106138a0575050565b6017600052613866916000805160206145068339815191529182019101613822565b8082106138cd575050565b6016600052613866916000805160206145268339815191529182019101613822565b6001166138fc5760175490565b60195490565b90929192600160009116159485600014613c95576017955b15613c90575b85546001811115613c81576000198101928184116113b557836001118015613c77575b613c3c57506103208302838104610320148415171561233f576103e81015613b6c57509394936060936000928392919061397d60016135b2565b95604051602081019182526020815261399760408261330f565b51902093986000986040988b9687959293915b8d158015613b285789908e613b1457908d92918f6139cb604051958661330f565b60018552613b00579e9f9e601f198f013660208601375b60018210613a53575b15613a035750506139fc909c613587565b9c9b6139aa565b909d918a8c8e5b848310613a1f5750505050506139fc90613587565b6001600160a01b03613a3184866135e4565b5116919e613a3e90613587565b9e613a48916135e4565b526001018c8e613a0a565b9e9f9e8d613aa88e966040516020810191825260208152613a7560408261330f565b51902096613a8c613a868d8a613532565b8c612d62565b905460039190911b1c6001600160a01b031692878b8b866143a9565b613ae6575b5088613ac4613abc8c85613525565b895190613525565b1015613ad2579f9e9f6139e2565b989e9f9e81613ae091613525565b986139eb565b613af9613af284613587565b93866135e4565b5238613aad565b634e487b7160e01b8c52604160045260248cfd5b634e487b7160e01b8b52604160045260248bfd5b509c509a505050505050935050613b4290613b679261445a565b926040516020810191825260208152613b5c60408261330f565b519020845190613532565b929190565b9450909250604080519290613b81818561330f565b60018452601f1901366020850137839460011901848111955b8661233f5781811115613bf15760001981019080821161233f57613bc1613bec928a612d62565b905460039190911b1c6001600160a01b0316613be6613be0838a613783565b886135e4565b52613776565b613b9a565b5050909350613c1e929194506040516020810191825260208152613c1660408261330f565b519020613532565b9060405191613c2e60208461330f565b600083526000368137929190565b965050935050505060209060405192613c55838561330f565b8084528036813760405192613c6a818561330f565b8184525080368137929190565b5083865114613943565b6362720e2360e11b8352600483fd5b613920565b60199561391a565b9592936001929195946101c0526101805216158060001461431e576017905b15614316576016925b81549160018311156143055782600019810111918261233f576000198401610180511180156142f7575b6142b757861580614279575b6141ce5760009015613fd057506060968554928360001981011161233f57613d27600019850188612d62565b90549060031b1c6101205261233f576000610100526001870180881161233f576115b8613d5f916101809998999796959497516136a8565b60e0526040516020810191825260208152613d7b60408261330f565b519020610140526000936000610160525b85610160511115613ddd5750505050505050613dad6101005160e05161445a565b91613dd9604051602081019061014051825260208152613dce60408261330f565b519020835190613532565b9290565b909192939495966000608052613df5610180516135b2565b60a0525b6101805160805110613e87575b610160518703613e31575060a051965b613e2261016051613587565b61016052959493929190613d8c565b9660005b6080518110613e445750613e16565b600190818060a01b03613e598260a0516135e4565b51166101005160c052613e6e61010051613587565b61010052613e8060c05160e0516135e4565b5201613e35565b604051602081019061014051825260208152613ea460408261330f565b51902061014052613ebb6101205161014051613532565b60009084600019810111613fbc5760001985015b808310613f68575050613ee29083612d62565b60018060a01b0391549060031b1c16613f096101005160e05160a051896101c051866143a9565b613f45575b50613f1b86608051613525565b613f2c600019860191875190613525565b10613df95794613f3f9060805190613525565b94613e06565b613f61608051613f56608051613587565b60805260a0516135e4565b5238613f0e565b613f7b81849d96989a9c97999b9d613525565b60011c90613f898288612d62565b90549060031b1c8310600014613fa957505b9a989694999795939a613ecf565b92506001810180911161233f5791613f9b565b634e487b7160e01b82526011600452602482fd5b945091949290506060958461020052846102005260018401808511612216576115b8614004916101809897969598516136a8565b6101e052604051602081019182526020815261402160408261330f565b5190206101a052829083610220525b8261022051111561407257505050505050614051610200516101e05161445a565b91613dd960405160208101906101a051825260208152613dce60408261330f565b90919293949584614085610180516135b2565b610240525b610180518110614113575b6102205185036140c157505061024051955b6140b361022051613587565b610220529493929190614030565b859791975b8181106140d45750506140a7565b600190818060a01b036140ea82610240516135e4565b511661410c610200516140ff61020051613587565b610200526101e0516135e4565b52016140c6565b60405160208101906101a05182526020815261413060408261330f565b5190206101a05261415161414b60001989016101a051613532565b89612d62565b60018060a01b0391549060031b1c1661417a610200516101e05161024051876101c051866143a9565b6141b1575b5061418a8482613525565b61419b600019890191855190613525565b1061408a5792836141ab91613525565b92614095565b6141c76141bd83613587565b92610240516135e4565b523861417f565b50969350509250506141e2610180516135b2565b9060001983015b6141fa610180516000198601613783565b8111156142495760001981019080821161233f5761421b6142449288612d62565b905460039190911b1c6001600160a01b0316613be661423e836000198901613783565b866135e4565b6141e9565b5092613c1e9291945060405191602083019182526020835261426c60408461330f565b6000190191519020613532565b506103e861018051026101805181046103e8146101805115171561233f5761032060001986018181029291818404149015171561233f571015613cfb565b50505050505050506020604051916142cf828461330f565b600083526000368137604051916142e6818461330f565b600083525060003681376000929190565b508451600019850114613cef565b6362720e2360e11b60005260046000fd5b601892613cc5565b601990613cbc565b6001600160a01b03166000818152602081905260409020541515908161434a575090565b60009081526020819052604090206001810154600e54915490925061436e91613783565b1090565b60005b8251811015613766576001600160a01b0361439082856135e4565b51166001600160a01b0383161461375e57600101614375565b94939291908015159081614438575b81614416575b5061440c576143cc85614326565b61440c576143da9085614372565b614403576143e89084614372565b613766576143f59261449d565b6143fe57600190565b600090565b50505050600090565b5050505050600090565b6001600160a01b038716600090815260056020526040902054109050386143be565b6001600160a01b038716600090815260056020526040902054151591506143b8565b9190614465816135b2565b9260005b82811061447557505050565b6001906001600160a01b0361448a82856135e4565b511661449682886135e4565b5201614469565b9060005b8381106144b15750505050600090565b6001600160a01b036144c382846135e4565b51166001600160a01b038416146144dc576001016144a1565b5050505060019056feb13d2d76d1f4b7be834882e410b3e3a8afaf69f83600ae24db354391d2378d2ec624b66cc0138b8fabc209247f72d758e1cf3343756d543badbf24212bed8c15d833147d7dc355ba459fc788f669e58cfaf9dc25ddcd0702e87d69c7b5124289944998273e477b495144fb8794c914197f3ccb46be2900f4698fd0ef743c9695a2646970667358221220cd011d8c37fad2def8c2c8fb7786274237c4dd984188503026dbb7dce52b7bb864736f6c634300081c0033",
  "linkReferences": {},
  "deployedLinkReferences": {}
}