{
  "_format": "hh-sol-artifact-1",
  "contractName": "MockRoundsForFinalization",
  "sourceName": "contracts/test-helpers/MockRoundsForFinalization.sol",
  "abi": [
    {
      "inputs": [
        {
          "internalType": "bytes32",
          "name": "",
          "type": "bytes32"
        }
      ],
      "name": "decrementRotationsLeft",
      "outputs": [],
      "stateMutability": "nonpayable",
      "type": "function"
    },
    {
      "inputs": [
        {
          "internalType": "bytes32",
          "name": "txId",
          "type": "bytes32"
        }
      ],
      "name": "getLastRoundData",
      "outputs": [
        {
          "internalType": "uint256",
          "name": "",
          "type": "uint256"
        },
        {
          "components": [
            {
              "internalType": "uint256",
              "name": "round",
              "type": "uint256"
            },
            {
              "internalType": "uint256",
              "name": "leaderIndex",
              "type": "uint256"
            },
            {
              "internalType": "uint256",
              "name": "votesCommitted",
              "type": "uint256"
            },
            {
              "internalType": "uint256",
              "name": "votesRevealed",
              "type": "uint256"
            },
            {
              "internalType": "uint256",
              "name": "appealBond",
              "type": "uint256"
            },
            {
              "internalType": "uint256",
              "name": "rotationsLeft",
              "type": "uint256"
            },
            {
              "internalType": "enum ITransactions.ResultType",
              "name": "result",
              "type": "uint8"
            },
            {
              "internalType": "address[]",
              "name": "roundValidators",
              "type": "address[]"
            },
            {
              "internalType": "enum ITransactions.VoteType[]",
              "name": "validatorVotes",
              "type": "uint8[]"
            },
            {
              "internalType": "bytes32[]",
              "name": "validatorVotesHash",
              "type": "bytes32[]"
            },
            {
              "internalType": "bytes32[]",
              "name": "validatorResultHash",
              "type": "bytes32[]"
            }
          ],
          "internalType": "struct ITransactions.RoundData",
          "name": "",
          "type": "tuple"
        }
      ],
      "stateMutability": "view",
      "type": "function"
    },
    {
      "inputs": [
        {
          "components": [
            {
              "internalType": "enum ITransactions.ResultType",
              "name": "result",
              "type": "uint8"
            },
            {
              "internalType": "enum ITransactions.VoteType",
              "name": "txExecutionResult",
              "type": "uint8"
            },
            {
              "internalType": "enum ITransactions.TransactionStatus",
              "name": "previousStatus",
              "type": "uint8"
            },
            {
              "internalType": "enum ITransactions.TransactionStatus",
              "name": "status",
              "type": "uint8"
            },
            {
              "internalType": "address",
              "name": "txOrigin",
              "type": "address"
            },
            {
              "internalType": "address",
              "name": "sender",
              "type": "address"
            },
            {
              "internalType": "address",
              "name": "recipient",
              "type": "address"
            },
            {
              "internalType": "address",
              "name": "activator",
              "type": "address"
            },
            {
              "internalType": "uint256",
              "name": "txSlot",
              "type": "uint256"
            },
            {
              "internalType": "uint256",
              "name": "initialRotations",
              "type": "uint256"
            },
            {
              "internalType": "uint256",
              "name": "numOfInitialValidators",
              "type": "uint256"
            },
            {
              "internalType": "uint256",
              "name": "epoch",
              "type": "uint256"
            },
            {
              "internalType": "bytes32",
              "name": "id",
              "type": "bytes32"
            },
            {
              "internalType": "bytes32",
              "name": "randomSeed",
              "type": "bytes32"
            },
            {
              "internalType": "bytes32",
              "name": "txExecutionHash",
              "type": "bytes32"
            },
            {
              "internalType": "bytes32",
              "name": "resultHash",
              "type": "bytes32"
            },
            {
              "internalType": "bytes",
              "name": "txCalldata",
              "type": "bytes"
            },
            {
              "internalType": "bytes",
              "name": "eqBlocksOutputs",
              "type": "bytes"
            },
            {
              "components": [
                {
                  "internalType": "uint256",
                  "name": "activationBlock",
                  "type": "uint256"
                },
                {
                  "internalType": "uint256",
                  "name": "processingBlock",
                  "type": "uint256"
                },
                {
                  "internalType": "uint256",
                  "name": "proposalBlock",
                  "type": "uint256"
                }
              ],
              "internalType": "struct ITransactions.ReadStateBlockRange[]",
              "name": "readStateBlockRanges",
              "type": "tuple[]"
            },
            {
              "internalType": "uint256",
              "name": "validUntil",
              "type": "uint256"
            },
            {
              "internalType": "uint256",
              "name": "value",
              "type": "uint256"
            },
            {
              "internalType": "uint256",
              "name": "lockedStorageUnitPrice",
              "type": "uint256"
            },
            {
              "internalType": "uint256",
              "name": "storageFeeUsed",
              "type": "uint256"
            }
          ],
          "internalType": "struct ITransactions.Transaction",
          "name": "_tx",
          "type": "tuple"
        },
        {
          "internalType": "bool",
          "name": "_isTxHanging",
          "type": "bool"
        }
      ],
      "name": "getMajorityVoteAndSetResult",
      "outputs": [
        {
          "internalType": "enum ITransactions.ResultType",
          "name": "majorVoted",
          "type": "uint8"
        },
        {
          "internalType": "bool",
          "name": "leaderRotated",
          "type": "bool"
        },
        {
          "internalType": "bool",
          "name": "tribunalAppeal",
          "type": "bool"
        },
        {
          "internalType": "enum ITransactions.TransactionStatus",
          "name": "newStatus",
          "type": "uint8"
        },
        {
          "components": [
            {
              "internalType": "uint256",
              "name": "round",
              "type": "uint256"
            },
            {
              "internalType": "uint256",
              "name": "leaderIndex",
              "type": "uint256"
            },
            {
              "internalType": "uint256",
              "name": "votesCommitted",
              "type": "uint256"
            },
            {
              "internalType": "uint256",
              "name": "votesRevealed",
              "type": "uint256"
            },
            {
              "internalType": "uint256",
              "name": "appealBond",
              "type": "uint256"
            },
            {
              "internalType": "uint256",
              "name": "rotationsLeft",
              "type": "uint256"
            },
            {
              "internalType": "enum ITransactions.ResultType",
              "name": "result",
              "type": "uint8"
            },
            {
              "internalType": "address[]",
              "name": "roundValidators",
              "type": "address[]"
            },
            {
              "internalType": "enum ITransactions.VoteType[]",
              "name": "validatorVotes",
              "type": "uint8[]"
            },
            {
              "internalType": "bytes32[]",
              "name": "validatorVotesHash",
              "type": "bytes32[]"
            },
            {
              "internalType": "bytes32[]",
              "name": "validatorResultHash",
              "type": "bytes32[]"
            }
          ],
          "internalType": "struct ITransactions.RoundData",
          "name": "newRoundData",
          "type": "tuple"
        },
        {
          "components": [
            {
              "internalType": "address",
              "name": "slashedLeader",
              "type": "address"
            },
            {
              "internalType": "bytes32",
              "name": "leaderResultHash",
              "type": "bytes32"
            }
          ],
          "internalType": "struct ITransactions.TribunalAppealData",
          "name": "tribunalAppealData",
          "type": "tuple"
        }
      ],
      "stateMutability": "nonpayable",
      "type": "function"
    },
    {
      "inputs": [],
      "name": "getMajorityVoteCalled",
      "outputs": [
        {
          "internalType": "bool",
          "name": "",
          "type": "bool"
        }
      ],
      "stateMutability": "view",
      "type": "function"
    },
    {
      "inputs": [
        {
          "internalType": "bytes32",
          "name": "txId",
          "type": "bytes32"
        }
      ],
      "name": "getRotationsLeft",
      "outputs": [
        {
          "internalType": "uint256",
          "name": "",
          "type": "uint256"
        }
      ],
      "stateMutability": "view",
      "type": "function"
    },
    {
      "inputs": [
        {
          "internalType": "bytes32",
          "name": "txId",
          "type": "bytes32"
        },
        {
          "internalType": "uint256",
          "name": "round",
          "type": "uint256"
        }
      ],
      "name": "getRoundData",
      "outputs": [
        {
          "components": [
            {
              "internalType": "uint256",
              "name": "round",
              "type": "uint256"
            },
            {
              "internalType": "uint256",
              "name": "leaderIndex",
              "type": "uint256"
            },
            {
              "internalType": "uint256",
              "name": "votesCommitted",
              "type": "uint256"
            },
            {
              "internalType": "uint256",
              "name": "votesRevealed",
              "type": "uint256"
            },
            {
              "internalType": "uint256",
              "name": "appealBond",
              "type": "uint256"
            },
            {
              "internalType": "uint256",
              "name": "rotationsLeft",
              "type": "uint256"
            },
            {
              "internalType": "enum ITransactions.ResultType",
              "name": "result",
              "type": "uint8"
            },
            {
              "internalType": "address[]",
              "name": "roundValidators",
              "type": "address[]"
            },
            {
              "internalType": "enum ITransactions.VoteType[]",
              "name": "validatorVotes",
              "type": "uint8[]"
            },
            {
              "internalType": "bytes32[]",
              "name": "validatorVotesHash",
              "type": "bytes32[]"
            },
            {
              "internalType": "bytes32[]",
              "name": "validatorResultHash",
              "type": "bytes32[]"
            }
          ],
          "internalType": "struct ITransactions.RoundData",
          "name": "",
          "type": "tuple"
        }
      ],
      "stateMutability": "view",
      "type": "function"
    },
    {
      "inputs": [
        {
          "internalType": "bytes32",
          "name": "txId",
          "type": "bytes32"
        }
      ],
      "name": "getRoundNumber",
      "outputs": [
        {
          "internalType": "uint256",
          "name": "",
          "type": "uint256"
        }
      ],
      "stateMutability": "view",
      "type": "function"
    },
    {
      "inputs": [],
      "name": "lastIsTxHanging",
      "outputs": [
        {
          "internalType": "bool",
          "name": "",
          "type": "bool"
        }
      ],
      "stateMutability": "view",
      "type": "function"
    },
    {
      "inputs": [],
      "name": "lastMajorityVoteTxId",
      "outputs": [
        {
          "internalType": "bytes32",
          "name": "",
          "type": "bytes32"
        }
      ],
      "stateMutability": "view",
      "type": "function"
    },
    {
      "inputs": [],
      "name": "resetMockState",
      "outputs": [],
      "stateMutability": "nonpayable",
      "type": "function"
    },
    {
      "inputs": [
        {
          "components": [
            {
              "internalType": "uint256",
              "name": "round",
              "type": "uint256"
            },
            {
              "internalType": "uint256",
              "name": "leaderIndex",
              "type": "uint256"
            },
            {
              "internalType": "uint256",
              "name": "votesCommitted",
              "type": "uint256"
            },
            {
              "internalType": "uint256",
              "name": "votesRevealed",
              "type": "uint256"
            },
            {
              "internalType": "uint256",
              "name": "appealBond",
              "type": "uint256"
            },
            {
              "internalType": "uint256",
              "name": "rotationsLeft",
              "type": "uint256"
            },
            {
              "internalType": "enum ITransactions.ResultType",
              "name": "result",
              "type": "uint8"
            },
            {
              "internalType": "address[]",
              "name": "roundValidators",
              "type": "address[]"
            },
            {
              "internalType": "enum ITransactions.VoteType[]",
              "name": "validatorVotes",
              "type": "uint8[]"
            },
            {
              "internalType": "bytes32[]",
              "name": "validatorVotesHash",
              "type": "bytes32[]"
            },
            {
              "internalType": "bytes32[]",
              "name": "validatorResultHash",
              "type": "bytes32[]"
            }
          ],
          "internalType": "struct ITransactions.RoundData",
          "name": "roundData",
          "type": "tuple"
        }
      ],
      "name": "setDefaultRoundData",
      "outputs": [],
      "stateMutability": "nonpayable",
      "type": "function"
    },
    {
      "inputs": [
        {
          "internalType": "bytes32",
          "name": "txId",
          "type": "bytes32"
        },
        {
          "internalType": "uint256",
          "name": "round",
          "type": "uint256"
        },
        {
          "components": [
            {
              "internalType": "uint256",
              "name": "round",
              "type": "uint256"
            },
            {
              "internalType": "uint256",
              "name": "leaderIndex",
              "type": "uint256"
            },
            {
              "internalType": "uint256",
              "name": "votesCommitted",
              "type": "uint256"
            },
            {
              "internalType": "uint256",
              "name": "votesRevealed",
              "type": "uint256"
            },
            {
              "internalType": "uint256",
              "name": "appealBond",
              "type": "uint256"
            },
            {
              "internalType": "uint256",
              "name": "rotationsLeft",
              "type": "uint256"
            },
            {
              "internalType": "enum ITransactions.ResultType",
              "name": "result",
              "type": "uint8"
            },
            {
              "internalType": "address[]",
              "name": "roundValidators",
              "type": "address[]"
            },
            {
              "internalType": "enum ITransactions.VoteType[]",
              "name": "validatorVotes",
              "type": "uint8[]"
            },
            {
              "internalType": "bytes32[]",
              "name": "validatorVotesHash",
              "type": "bytes32[]"
            },
            {
              "internalType": "bytes32[]",
              "name": "validatorResultHash",
              "type": "bytes32[]"
            }
          ],
          "internalType": "struct ITransactions.RoundData",
          "name": "roundData",
          "type": "tuple"
        }
      ],
      "name": "setMockLastRoundData",
      "outputs": [],
      "stateMutability": "nonpayable",
      "type": "function"
    },
    {
      "inputs": [
        {
          "internalType": "enum ITransactions.ResultType",
          "name": "majorVoted",
          "type": "uint8"
        },
        {
          "internalType": "bool",
          "name": "leaderRotated",
          "type": "bool"
        },
        {
          "internalType": "bool",
          "name": "tribunalAppeal",
          "type": "bool"
        },
        {
          "internalType": "enum ITransactions.TransactionStatus",
          "name": "newStatus",
          "type": "uint8"
        },
        {
          "components": [
            {
              "internalType": "uint256",
              "name": "round",
              "type": "uint256"
            },
            {
              "internalType": "uint256",
              "name": "leaderIndex",
              "type": "uint256"
            },
            {
              "internalType": "uint256",
              "name": "votesCommitted",
              "type": "uint256"
            },
            {
              "internalType": "uint256",
              "name": "votesRevealed",
              "type": "uint256"
            },
            {
              "internalType": "uint256",
              "name": "appealBond",
              "type": "uint256"
            },
            {
              "internalType": "uint256",
              "name": "rotationsLeft",
              "type": "uint256"
            },
            {
              "internalType": "enum ITransactions.ResultType",
              "name": "result",
              "type": "uint8"
            },
            {
              "internalType": "address[]",
              "name": "roundValidators",
              "type": "address[]"
            },
            {
              "internalType": "enum ITransactions.VoteType[]",
              "name": "validatorVotes",
              "type": "uint8[]"
            },
            {
              "internalType": "bytes32[]",
              "name": "validatorVotesHash",
              "type": "bytes32[]"
            },
            {
              "internalType": "bytes32[]",
              "name": "validatorResultHash",
              "type": "bytes32[]"
            }
          ],
          "internalType": "struct ITransactions.RoundData",
          "name": "newRoundData",
          "type": "tuple"
        },
        {
          "components": [
            {
              "internalType": "address",
              "name": "slashedLeader",
              "type": "address"
            },
            {
              "internalType": "bytes32",
              "name": "leaderResultHash",
              "type": "bytes32"
            }
          ],
          "internalType": "struct ITransactions.TribunalAppealData",
          "name": "tribunalAppealData",
          "type": "tuple"
        }
      ],
      "name": "setMockMajorityVoteResult",
      "outputs": [],
      "stateMutability": "nonpayable",
      "type": "function"
    },
    {
      "inputs": [
        {
          "internalType": "bytes32",
          "name": "txId",
          "type": "bytes32"
        },
        {
          "internalType": "uint256",
          "name": "rotations",
          "type": "uint256"
        }
      ],
      "name": "setMockRotationsLeft",
      "outputs": [],
      "stateMutability": "nonpayable",
      "type": "function"
    },
    {
      "inputs": [
        {
          "internalType": "bytes32",
          "name": "txId",
          "type": "bytes32"
        },
        {
          "internalType": "uint256",
          "name": "round",
          "type": "uint256"
        }
      ],
      "name": "setMockRoundNumber",
      "outputs": [],
      "stateMutability": "nonpayable",
      "type": "function"
    },
    {
      "inputs": [
        {
          "internalType": "bytes32",
          "name": "",
          "type": "bytes32"
        },
        {
          "internalType": "uint256",
          "name": "",
          "type": "uint256"
        },
        {
          "internalType": "address",
          "name": "",
          "type": "address"
        },
        {
          "internalType": "uint256",
          "name": "",
          "type": "uint256"
        },
        {
          "internalType": "bool",
          "name": "",
          "type": "bool"
        }
      ],
      "name": "updateLeaderAndResetVotes",
      "outputs": [],
      "stateMutability": "nonpayable",
      "type": "function"
    },
    {
      "inputs": [
        {
          "internalType": "bytes32",
          "name": "",
          "type": "bytes32"
        },
        {
          "internalType": "uint256",
          "name": "",
          "type": "uint256"
        },
        {
          "components": [
            {
              "internalType": "uint256",
              "name": "round",
              "type": "uint256"
            },
            {
              "internalType": "uint256",
              "name": "leaderIndex",
              "type": "uint256"
            },
            {
              "internalType": "uint256",
              "name": "votesCommitted",
              "type": "uint256"
            },
            {
              "internalType": "uint256",
              "name": "votesRevealed",
              "type": "uint256"
            },
            {
              "internalType": "uint256",
              "name": "appealBond",
              "type": "uint256"
            },
            {
              "internalType": "uint256",
              "name": "rotationsLeft",
              "type": "uint256"
            },
            {
              "internalType": "enum ITransactions.ResultType",
              "name": "result",
              "type": "uint8"
            },
            {
              "internalType": "address[]",
              "name": "roundValidators",
              "type": "address[]"
            },
            {
              "internalType": "enum ITransactions.VoteType[]",
              "name": "validatorVotes",
              "type": "uint8[]"
            },
            {
              "internalType": "bytes32[]",
              "name": "validatorVotesHash",
              "type": "bytes32[]"
            },
            {
              "internalType": "bytes32[]",
              "name": "validatorResultHash",
              "type": "bytes32[]"
            }
          ],
          "internalType": "struct ITransactions.RoundData",
          "name": "",
          "type": "tuple"
        }
      ],
      "name": "updateRoundData",
      "outputs": [],
      "stateMutability": "nonpayable",
      "type": "function"
    }
  ],
  "bytecode": "0x60808060405234601557612a3c908161001b8239f35b600080fdfe6080604052600436101561001257600080fd5b60003560e01c806320090e9d14611b7857806332aa8e6a14611b6a5780633e1c759014611b4c57806350a5d689146116625780635af544691461163457806364431f0714611612578063798793d7146115ef5780637b28cf9e146111e357806384c24831146111a6578063885875131461118257806391a0a3e114610d58578063a6cd198d1461018c578063ba15d63514610160578063c60068771461013e578063d4562a861461011b578063d7360c9a146101085763f66530b9146100d757600080fd5b346101035760203660031901126101035760043560005260216020526020604060002054604051908152f35b600080fd5b3461010357602036600319011261010357005b3461010357600036600319011261010357602060ff601154166040519015158152f35b346101035761014c36611e9f565b906000526000602052604060002055600080f35b346101035760203660031901126101035760043560005260006020526020604060002054604051908152f35b34610103576040366003190112610103576004356001600160401b038111610103576102e06003198236030112610103576040516102e081018181106001600160401b03821117610d425760405281600401356006811015610103578152602482013560058110156101035760208201526044820135600f8110156101035760408201526064820135600f81101561010357606082015261022f60848301611c2c565b608082015261024060a48301611c2c565b60a082015261025160c48301611c2c565b60c082015261026260e48301611c2c565b60e082015261010482013561010082015261012482013561012082015261014482013561014082015261016482013561016082015261018081019161018481013583526101a48101356101a08301526101c48101356101c08301526101e48101356101e08301526102048101356001600160401b038111610103576102ed9060043691840101612017565b6102008301526102248101356001600160401b038111610103576103179060043691840101612017565b6102208301526102448101356001600160401b0381116101035781013660238201121561010357600481013561034c81611bff565b9161035a6040519384611bde565b8183526020600460608286019402830101019036821161010357602401915b818310610cf3575050506102c0916102c4916102408501526102648101356102608501526102848101356102808501526102a48101356102a085015201359101526103c2611e81565b906103cb612084565b50600060206040516103dc81611ba7565b8281520152600160ff19600f541617600f555160105560ff801960115416911515161760115560015460ff8160181c166040519061041982611bc2565b6002548252600354602083015260045460408301526005546060830152600654608083015260075460a083015260ff60085416600681101561067d5760c0830152604051808160206009549283815201600960005260206000209260005b818110610cd157505061048c92500382611bde565b60e083015260405180816020600a549283815201600a6000526020600020926000905b80601f830110610a48576105c5945491818110610a2d575b818110610a0f575b8181106109f1575b8181106109d3575b8181106109b6575b818110610998575b81811061097a575b81811061095c575b81811061093e575b818110610920575b818110610902575b8181106108e4575b8181106108c6575b8181106108a8575b81811061088a575b81811061086c575b81811061084e575b818110610830575b818110610812575b8181106107f4575b8181106107d6575b8181106107b8575b81811061079a575b81811061077c575b81811061075e575b818110610740575b818110610722575b818110610704575b8181106106e6575b8181106106c8575b8181106106aa575b10610693575b500382611bde565b6101008301526105d5600b6120dc565b6101208301526105e5600c6120dc565b610140830152604051906105f882611ba7565b600d546001600160a01b03168252600e54602083019081526040519490919060ff9061062687828416611eb5565b818160081c161515602088015260101c1615156040860152600f81101561067d57849361066391606086015260e0608086015260e0850190611f03565b91516001600160a01b031660a08401525160c08301520390f35b634e487b7160e01b600052602160045260246000fd5b906106a38160209360f81c611ec2565b01876105bd565b926020816106c060019360ff8760f01c16611ec2565b0193016105b7565b926020816106de60019360ff8760e81c16611ec2565b0193016105af565b926020816106fc60019360ff8760e01c16611ec2565b0193016105a7565b9260208161071a60019360ff8760d81c16611ec2565b01930161059f565b9260208161073860019360ff8760d01c16611ec2565b019301610597565b9260208161075660019360ff8760c81c16611ec2565b01930161058f565b9260208161077460019360ff8760c01c16611ec2565b019301610587565b9260208161079260019360ff8760b81c16611ec2565b01930161057f565b926020816107b060019360ff8760b01c16611ec2565b019301610577565b926020816107ce60019360ff8760a81c16611ec2565b01930161056f565b926020816107ec60019360ff8760a01c16611ec2565b019301610567565b9260208161080a60019360ff8760981c16611ec2565b01930161055f565b9260208161082860019360ff8760901c16611ec2565b019301610557565b9260208161084660019360ff8760881c16611ec2565b01930161054f565b9260208161086460019360ff8760801c16611ec2565b019301610547565b9260208161088260019360ff8760781c16611ec2565b01930161053f565b926020816108a060019360ff8760701c16611ec2565b019301610537565b926020816108be60019360ff8760681c16611ec2565b01930161052f565b926020816108dc60019360ff8760601c16611ec2565b019301610527565b926020816108fa60019360ff8760581c16611ec2565b01930161051f565b9260208161091860019360ff8760501c16611ec2565b019301610517565b9260208161093660019360ff8760481c16611ec2565b01930161050f565b9260208161095460019360ff8760401c16611ec2565b019301610507565b9260208161097260019360ff8760381c16611ec2565b0193016104ff565b9260208161099060019360ff8760301c16611ec2565b0193016104f7565b926020816109ae60019360ff8760281c16611ec2565b0193016104ef565b926020816109cb60019360ff87851c16611ec2565b0193016104e7565b926020816109e960019360ff8760181c16611ec2565b0193016104df565b92602081610a0760019360ff8760101c16611ec2565b0193016104d7565b92602081610a2560019360ff8760081c16611ec2565b0193016104cf565b92602081610a4060019360ff8716611ec2565b0193016104c7565b916020919350610400600191610cc38754610a668360ff8316611ec2565b610a7886840160ff8360081c16611ec2565b610a8b6040840160ff8360101c16611ec2565b610a9e6060840160ff8360181c16611ec2565b610ab06080840160ff83891c16611ec2565b610ac360a0840160ff8360281c16611ec2565b610ad660c0840160ff8360301c16611ec2565b610ae960e0840160ff8360381c16611ec2565b610afd610100840160ff8360401c16611ec2565b610b11610120840160ff8360481c16611ec2565b610b25610140840160ff8360501c16611ec2565b610b39610160840160ff8360581c16611ec2565b610b4d610180840160ff8360601c16611ec2565b610b616101a0840160ff8360681c16611ec2565b610b756101c0840160ff8360701c16611ec2565b610b896101e0840160ff8360781c16611ec2565b610b9d610200840160ff8360801c16611ec2565b610bb1610220840160ff8360881c16611ec2565b610bc5610240840160ff8360901c16611ec2565b610bd9610260840160ff8360981c16611ec2565b610bed610280840160ff8360a01c16611ec2565b610c016102a0840160ff8360a81c16611ec2565b610c156102c0840160ff8360b01c16611ec2565b610c296102e0840160ff8360b81c16611ec2565b610c3d610300840160ff8360c01c16611ec2565b610c51610320840160ff8360c81c16611ec2565b610c65610340840160ff8360d01c16611ec2565b610c79610360840160ff8360d81c16611ec2565b610c8d610380840160ff8360e01c16611ec2565b610ca16103a0840160ff8360e81c16611ec2565b610cb56103c0840160ff8360f01c16611ec2565b6103e083019060f81c611ec2565b0194019201849293916104af565b84546001600160a01b0316835260019485019486945060209093019201610477565b606083360312610103576040519060608201908282106001600160401b03831117610d425760609260209260405285358152828601358382015260408601356040820152815201920191610379565b634e487b7160e01b600052604160045260246000fd5b34610103576020366003190112610103576004356001600160401b03811161010357610d88903690600401611c9d565b8051601555602081015160165560408101516017556060810151601855608081015160195560a0810151601a5560c0810151600681101561067d5760009060ff8019601b5416911617601b5560e08201518051906001600160401b038211610fcb57600160401b8211610fcb57602090601c5483601c55808410611167575b50601c8452017f0e4562a10381dec21b205ed72637e6b1b523bdd0e4d4d50af5cd23dd4500a211835b83811061114a5785856101008201518051906001600160401b038211610fcb57600160401b8211610fcb57602090601d5483601d558084106110fd575b5001601d8352602083208260051c91845b83811061109c5750601f1984169093039283611037575b50505050610120820151918251926001600160401b038411610fcb57600160401b8411610fcb57601e5484601e55808510610ff3575b50601e8352602001927f50bb669a95c7b50b7e8a6f09454034b2b14cf2b85c730dca9a539ca82cb6e350835b828110610fdf57846101408501518051906001600160401b038211610fcb57600160401b8211610fcb57601f5482601f55808310610f87575b50601f83526020017fa03837a25210ee280c2113ff4b77ca23440b19d4866cca721c801278fd08d807835b838110610f735784600160ff19602054161760205580f35b600190602084519401938184015501610f5b565b601f84527fa03837a25210ee280c2113ff4b77ca23440b19d4866cca721c801278fd08d8079081019083015b818110610fc05750610f30565b848155600101610fb3565b634e487b7160e01b83526041600452602483fd5b600190602087519701968184015501610ef7565b601e84527f50bb669a95c7b50b7e8a6f09454034b2b14cf2b85c730dca9a539ca82cb6e3509081019085015b81811061102c5750610ecb565b84815560010161101f565b849385905b80821061105157505050015582808080610e95565b90919485519060058210156110885761107e600192856020939060ff809160031b9316831b921b19161790565b960192019061103c565b634e487b7160e01b88526021600452602488fd5b85865b602081106110b4575083820155600101610e7e565b929081519060058210156110e9576110e0600192866020939060ff809160031b9316831b921b19161790565b9201930161109f565b634e487b7160e01b89526021600452602489fd5b61112890601d8652838620601f80870160051c8201928188168061112e575b500160051c019061206d565b85610e6d565b600019850190815490600019908a0360031b1c1690558a61111c565b82516001600160a01b031681830155602090920191600101610e30565b601c855282852061117c91810190850161206d565b85610e07565b346101035760a03660031901126101035761119b611c16565b506111a4611e90565b005b34610103576020366003190112610103576111c260043561298f565b906111df6040519283928352604060208401526040830190611f03565b0390f35b34610103576111f136611e4c565b916040516111fe81611ba7565b82815260016020820191818352836000526012602052604060002090518155019051151560ff80198354169116179055806000526013602052604060002082600052602052604060002092805184556020810151600185015560408101516002850155606081015160038501556080810151600485015560a08101516005850155600684019360c082015194600686101561067d5760009560ff801983541691161790556007810160e0830151908151916001600160401b03831161149357600160401b83116114935760209082548484558085106115d5575b500190875260208720875b8381106115b8575050505060088101610100830151908151916001600160401b03831161149357600160401b831161149357602090825484845580851061156d575b5001908752602087208260051c91885b83811061150c5750601f19841690930392836114a7575b5050505060098101610120830151908151916001600160401b03831161149357600160401b831161149357815483835580841061146d575b5060200190875260208720875b8381106114595750505050600a6101409101910151908151916001600160401b03831161144557600160401b831161144557815483835580841061141f575b5060200190855260208520855b83811061140b5750505050825260146020526040822090825260205260408120600160ff1982541617905580f35b6001906020845194019381840155016113dd565b828752836020882091820191015b81811061143a57506113d0565b87815560010161142d565b634e487b7160e01b86526041600452602486fd5b600190602084519401938184015501611391565b8289528360208a2091820191015b8181106114885750611384565b89815560010161147b565b634e487b7160e01b88526041600452602488fd5b889389905b8082106114c15750505001558580808061134c565b90919485519060058210156114f8576114ee600192856020939060ff809160031b9316831b921b19161790565b96019201906114ac565b634e487b7160e01b8c52602160045260248cfd5b898a5b60208110611524575083820155600101611335565b9290815190600582101561155957611550600192866020939060ff809160031b9316831b921b19161790565b9201930161150f565b634e487b7160e01b8d52602160045260248dfd5b61159690848b52838b20601f80880160051c8201928189168061159c57500160051c019061206d565b89611325565b600019850190815490600019908a0360031b1c1690558e61111c565b82516001600160a01b0316818301556020909201916001016112e3565b838a52828a206115e991810190860161206d565b896112d8565b3461010357600036600319011261010357602060ff600f54166040519015158152f35b346101035761162036611e9f565b906000526021602052604060002055600080f35b34610103576111df61164e61164836611e9f565b90612927565b604051918291602083526020830190611f03565b346101035760e036600319011261010357600435600681101561010357611687611e81565b6044358015158091036101035760643591600f831015610103576084356001600160401b038111610103576116c0903690600401611c9d565b9060403660a319011261010357604051926116da84611ba7565b60a4356001600160a01b038116810361010357845262ff0000602085019560c435875260009760ff80196001541691161760015561ff0063ff0000006001549260181b1694151560081b169063ffffff001916179160101b1617176001558051600255602081015160035560408101516004556060810151600555608081015160065560a081015160075560c08101516006811015611b385760ff80196008541691161760085560e08101518051906001600160401b03821161144557600160401b82116114455760209060095483600955808410611b1d575b5060098752017f6e1540171b6c0c960b71a7020d9f60077f6af931a8bbf590da0223dacf75c7af865b838110611b0057505050506101008101518051906001600160401b03821161144557600160401b821161144557602090600a5483600a55808410611ab4575b5001600a8652602086208260051c91875b838110611a675750601f1984169093039283611a02575b505050506101208101518051906001600160401b03821161144557600160401b821161144557600b5482600b558083106119be575b50600b86526020017f0175b7a638427703f0dbe7bb9bbf987a2551717b34e79f33b5b1008d1fa01db9865b8381106119aa575050505061014001518051906001600160401b03821161199657600160401b821161199657600c5482600c55808310611952575b50600c85526020017fdf6966c971051c3d54ec59162606531493a51404a002842f56009d7e5cf4a8c7855b83811061193e5750509151600d80546001600160a01b0319166001600160a01b0392909216919091179055505051600e5580f35b60019060208451940193818401550161190a565b600c86527fdf6966c971051c3d54ec59162606531493a51404a002842f56009d7e5cf4a8c79081019083015b81811061198b57506118df565b86815560010161197e565b634e487b7160e01b85526041600452602485fd5b6001906020845194019381840155016118a4565b600b87527f0175b7a638427703f0dbe7bb9bbf987a2551717b34e79f33b5b1008d1fa01db99081019083015b8181106119f75750611879565b8781556001016119ea565b879388905b808210611a1c57505050015584808080611844565b9091948551906005821015611a5357611a49600192856020939060ff809160031b9316831b921b19161790565b9601920190611a07565b634e487b7160e01b8b52602160045260248bfd5b88895b60208110611a7f57508382015560010161182d565b929081519060058210156114f857611aab600192866020939060ff809160031b9316831b921b19161790565b92019301611a6a565b611ade90600a8952838920601f80870160051c82019281881680611ae457500160051c019061206d565b8761181c565b600019850190815490600019908a0360031b1c1690558c61111c565b82516001600160a01b0316818301556020909201916001016117dd565b60098852828820611b3291810190850161206d565b876117b4565b634e487b7160e01b85526021600452602485fd5b34610103576000366003190112610103576020601054604051908152f35b34610103576111a436611e4c565b346101035760003660031901126101035760ff19600f5416600f55600060105560ff1960115416601155600080f35b604081019081106001600160401b03821117610d4257604052565b61016081019081106001600160401b03821117610d4257604052565b90601f801991011681019081106001600160401b03821117610d4257604052565b6001600160401b038111610d425760051b60200190565b604435906001600160a01b038216820361010357565b35906001600160a01b038216820361010357565b9080601f83011215610103578135611c5781611bff565b92611c656040519485611bde565b81845260208085019260051b82010192831161010357602001905b828210611c8d5750505090565b8135815260209182019101611c80565b9190610160838203126101035760405190611cb782611bc2565b8193803583526020810135602084015260408101356040840152606081013560608401526080810135608084015260a081013560a084015260c081013560068110156101035760c084015260e08101356001600160401b03811161010357810182601f8201121561010357803590611d2e82611bff565b91611d3c6040519384611bde565b80835260208084019160051b8301019185831161010357602001905b828210611e345750505060e08401526101008101356001600160401b03811161010357810182601f82011215610103578035611d9381611bff565b91611da16040519384611bde565b81835260208084019260051b8201019085821161010357602001915b818310611e1b575050506101008401526101208101356001600160401b0381116101035782611ded918301611c40565b610120840152610140810135916001600160401b0383116101035761014092611e169201611c40565b910152565b8235600581101561010357815260209283019201611dbd565b60208091611e4184611c2c565b815201910190611d58565b6060600319820112610103576004359160243591604435906001600160401b03821161010357611e7e91600401611c9d565b90565b60243590811515820361010357565b60843590811515820361010357565b6040906003190112610103576004359060243590565b90600682101561067d5752565b90600582101561067d5752565b906020808351928381520192019060005b818110611eed5750505090565b8251845260209384019390920191600101611ee0565b919091610160830192815181526020820151602082015260408201516040820152606082015160608201526080820151608082015260a082015160a0820152611f5460c083015160c0830190611eb5565b60e08201519361016060e083015284518091526020610180830195019060005b818110611ff857505050610100820151938181036101008301526020808651928381520195019060005b818110611fd957505050610140611fc7611e7e9495610120850151848203610120860152611ecf565b92015190610140818403910152611ecf565b90919560208082611fed6001948b51611ec2565b019701929101611f9e565b82516001600160a01b0316875260209687019690920191600101611f74565b81601f82011215610103578035906001600160401b038211610d42576040519261204b601f8401601f191660200185611bde565b8284526020838301011161010357816000926020809301838601378301015290565b818110612078575050565b6000815560010161206d565b6040519061209182611bc2565b60606101408360008152600060208201526000604082015260008382015260006080820152600060a0820152600060c08201528260e082015282610100820152826101208201520152565b906040519182815491828252602082019060005260206000209260005b81811061211057505061210e92500383611bde565b565b84548352600194850194879450602090930192016120f9565b6040519061213682611bc2565b8160155481526016546020820152601754604082015260185460608201526019546080820152601a5460a082015260ff601b5416600681101561067d5760c082015260405180816020601c549283815201601c60005260206000209260005b8181106126e65750506121aa92500382611bde565b60e082015260405180816020601d549283815201601d6000526020600020926000905b80601f8301106126ba576122e294549181811061269f575b818110612681575b818110612663575b818110612645575b818110612628575b81811061260a575b8181106125ec575b8181106125ce575b8181106125b0575b818110612592575b818110612574575b818110612556575b818110612538575b81811061251a575b8181106124fc575b8181106124de575b8181106124c0575b8181106124a2575b818110612484575b818110612466575b818110612448575b81811061242a575b81811061240c575b8181106123ee575b8181106123d0575b8181106123b2575b818110612394575b818110612376575b818110612358575b81811061233a575b81811061231c575b1061230557500382611bde565b6101008201526122f2601e6120dc565b610120820152610140611e16601f6120dc565b906123158160209360f81c611ec2565b01386105bd565b9260208161233260019360ff8760f01c16611ec2565b0193016122d5565b9260208161235060019360ff8760e81c16611ec2565b0193016122cd565b9260208161236e60019360ff8760e01c16611ec2565b0193016122c5565b9260208161238c60019360ff8760d81c16611ec2565b0193016122bd565b926020816123aa60019360ff8760d01c16611ec2565b0193016122b5565b926020816123c860019360ff8760c81c16611ec2565b0193016122ad565b926020816123e660019360ff8760c01c16611ec2565b0193016122a5565b9260208161240460019360ff8760b81c16611ec2565b01930161229d565b9260208161242260019360ff8760b01c16611ec2565b019301612295565b9260208161244060019360ff8760a81c16611ec2565b01930161228d565b9260208161245e60019360ff8760a01c16611ec2565b019301612285565b9260208161247c60019360ff8760981c16611ec2565b01930161227d565b9260208161249a60019360ff8760901c16611ec2565b019301612275565b926020816124b860019360ff8760881c16611ec2565b01930161226d565b926020816124d660019360ff8760801c16611ec2565b019301612265565b926020816124f460019360ff8760781c16611ec2565b01930161225d565b9260208161251260019360ff8760701c16611ec2565b019301612255565b9260208161253060019360ff8760681c16611ec2565b01930161224d565b9260208161254e60019360ff8760601c16611ec2565b019301612245565b9260208161256c60019360ff8760581c16611ec2565b01930161223d565b9260208161258a60019360ff8760501c16611ec2565b019301612235565b926020816125a860019360ff8760481c16611ec2565b01930161222d565b926020816125c660019360ff8760401c16611ec2565b019301612225565b926020816125e460019360ff8760381c16611ec2565b01930161221d565b9260208161260260019360ff8760301c16611ec2565b019301612215565b9260208161262060019360ff8760281c16611ec2565b01930161220d565b9260208161263d60019360ff87851c16611ec2565b019301612205565b9260208161265b60019360ff8760181c16611ec2565b0193016121fd565b9260208161267960019360ff8760101c16611ec2565b0193016121f5565b9260208161269760019360ff8760081c16611ec2565b0193016121ed565b926020816126b260019360ff8716611ec2565b0193016121e5565b9160209193506104006001916126d88754610a668360ff8316611ec2565b0194019201849293916121cd565b84546001600160a01b0316835260019485019486945060209093019201612195565b9060405161271581611bc2565b80928054825260018101546020830152600281015460408301526003810154606083015260048101546080830152600581015460a083015260ff600682015416600681101561067d5760c0830152600781016040518082602082945493848152019060005260206000209260005b81811061290557505061279892500382611bde565b60e0830152600881016040519081602082549182815201916000526020600020906000915b81601f8401106128df5784600a946101409794611e1697946128c194549181811061269f578181106126815781811061266357818110612645578181106126285781811061260a578181106125ec578181106125ce578181106125b0578181106125925781811061257457818110612556578181106125385781811061251a578181106124fc578181106124de578181106124c0578181106124a25781811061248457818110612466578181106124485781811061242a5781811061240c578181106123ee578181106123d0578181106123b25781811061239457818110612376578181106123585781811061233a5781811061231c571061230557500382611bde565b6101008601526128d3600982016120dc565b610120860152016120dc565b9260016104006020926128fa8754610a668360ff8316611ec2565b0194019201916127bd565b84546001600160a01b0316835260019485019486945060209093019201612783565b61292f612084565b5080600052601460205260406000208260005260205260ff6040600020541661296e57505060ff6020541661296657611e7e612084565b611e7e612129565b6000526013602052604060002090600052602052611e7e6040600020612708565b612997612084565b5080600052601260205260ff600160406000200154166129d4575060ff602054166129c9576129c4612084565b600091565b600090611e7e612129565b90816000526012602052604060002054916000526013602052604060002082600052602052611e7e604060002061270856fea264697066735822122025da0ef1cd22d561347758155f04c569ba6a3bb5a988d124fe1b113395d695d964736f6c634300081c0033",
  "linkReferences": {},
  "deployedLinkReferences": {}
}