{
  "_format": "hh-sol-artifact-1",
  "contractName": "NFTMinter",
  "sourceName": "contracts/NFTMinter.sol",
  "abi": [
    {
      "inputs": [],
      "name": "AccessControlBadConfirmation",
      "type": "error"
    },
    {
      "inputs": [
        {
          "internalType": "address",
          "name": "account",
          "type": "address"
        },
        {
          "internalType": "bytes32",
          "name": "neededRole",
          "type": "bytes32"
        }
      ],
      "name": "AccessControlUnauthorizedAccount",
      "type": "error"
    },
    {
      "inputs": [],
      "name": "DeveloperAlreadyHasNFT",
      "type": "error"
    },
    {
      "inputs": [],
      "name": "DeveloperCannotBeZeroAddress",
      "type": "error"
    },
    {
      "inputs": [],
      "name": "DeveloperHasNoNFT",
      "type": "error"
    },
    {
      "inputs": [],
      "name": "DeveloperHasNoRewards",
      "type": "error"
    },
    {
      "inputs": [
        {
          "internalType": "address",
          "name": "sender",
          "type": "address"
        },
        {
          "internalType": "uint256",
          "name": "tokenId",
          "type": "uint256"
        },
        {
          "internalType": "address",
          "name": "owner",
          "type": "address"
        }
      ],
      "name": "ERC721IncorrectOwner",
      "type": "error"
    },
    {
      "inputs": [
        {
          "internalType": "address",
          "name": "operator",
          "type": "address"
        },
        {
          "internalType": "uint256",
          "name": "tokenId",
          "type": "uint256"
        }
      ],
      "name": "ERC721InsufficientApproval",
      "type": "error"
    },
    {
      "inputs": [
        {
          "internalType": "address",
          "name": "approver",
          "type": "address"
        }
      ],
      "name": "ERC721InvalidApprover",
      "type": "error"
    },
    {
      "inputs": [
        {
          "internalType": "address",
          "name": "operator",
          "type": "address"
        }
      ],
      "name": "ERC721InvalidOperator",
      "type": "error"
    },
    {
      "inputs": [
        {
          "internalType": "address",
          "name": "owner",
          "type": "address"
        }
      ],
      "name": "ERC721InvalidOwner",
      "type": "error"
    },
    {
      "inputs": [
        {
          "internalType": "address",
          "name": "receiver",
          "type": "address"
        }
      ],
      "name": "ERC721InvalidReceiver",
      "type": "error"
    },
    {
      "inputs": [
        {
          "internalType": "address",
          "name": "sender",
          "type": "address"
        }
      ],
      "name": "ERC721InvalidSender",
      "type": "error"
    },
    {
      "inputs": [
        {
          "internalType": "uint256",
          "name": "tokenId",
          "type": "uint256"
        }
      ],
      "name": "ERC721NonexistentToken",
      "type": "error"
    },
    {
      "inputs": [],
      "name": "FailedTransferCall",
      "type": "error"
    },
    {
      "inputs": [],
      "name": "GhostAlreadyHasNFT",
      "type": "error"
    },
    {
      "inputs": [],
      "name": "GhostCannotBeZeroAddress",
      "type": "error"
    },
    {
      "inputs": [],
      "name": "InvalidInitialization",
      "type": "error"
    },
    {
      "inputs": [],
      "name": "InvalidNumberOfEpochsToClaim",
      "type": "error"
    },
    {
      "inputs": [],
      "name": "InvalidRecipient",
      "type": "error"
    },
    {
      "inputs": [],
      "name": "NotConsensus",
      "type": "error"
    },
    {
      "inputs": [],
      "name": "NotInitializing",
      "type": "error"
    },
    {
      "inputs": [],
      "name": "NotNFTOwner",
      "type": "error"
    },
    {
      "inputs": [
        {
          "internalType": "address",
          "name": "owner",
          "type": "address"
        }
      ],
      "name": "OwnableInvalidOwner",
      "type": "error"
    },
    {
      "inputs": [
        {
          "internalType": "address",
          "name": "account",
          "type": "address"
        }
      ],
      "name": "OwnableUnauthorizedAccount",
      "type": "error"
    },
    {
      "inputs": [],
      "name": "ReentrancyGuardReentrantCall",
      "type": "error"
    },
    {
      "anonymous": false,
      "inputs": [
        {
          "indexed": false,
          "internalType": "address",
          "name": "ghost",
          "type": "address"
        },
        {
          "indexed": false,
          "internalType": "bytes32",
          "name": "txId",
          "type": "bytes32"
        },
        {
          "indexed": false,
          "internalType": "uint256",
          "name": "epoch",
          "type": "uint256"
        }
      ],
      "name": "AddedTxToGhost",
      "type": "event"
    },
    {
      "anonymous": false,
      "inputs": [
        {
          "indexed": true,
          "internalType": "address",
          "name": "owner",
          "type": "address"
        },
        {
          "indexed": true,
          "internalType": "address",
          "name": "approved",
          "type": "address"
        },
        {
          "indexed": true,
          "internalType": "uint256",
          "name": "tokenId",
          "type": "uint256"
        }
      ],
      "name": "Approval",
      "type": "event"
    },
    {
      "anonymous": false,
      "inputs": [
        {
          "indexed": true,
          "internalType": "address",
          "name": "owner",
          "type": "address"
        },
        {
          "indexed": true,
          "internalType": "address",
          "name": "operator",
          "type": "address"
        },
        {
          "indexed": false,
          "internalType": "bool",
          "name": "approved",
          "type": "bool"
        }
      ],
      "name": "ApprovalForAll",
      "type": "event"
    },
    {
      "anonymous": false,
      "inputs": [
        {
          "indexed": false,
          "internalType": "uint256",
          "name": "nftId",
          "type": "uint256"
        },
        {
          "indexed": false,
          "internalType": "address",
          "name": "developer",
          "type": "address"
        },
        {
          "indexed": false,
          "internalType": "uint256",
          "name": "amount",
          "type": "uint256"
        }
      ],
      "name": "Claimed",
      "type": "event"
    },
    {
      "anonymous": false,
      "inputs": [
        {
          "indexed": false,
          "internalType": "address",
          "name": "consensusMain",
          "type": "address"
        }
      ],
      "name": "ConsensusMainSet",
      "type": "event"
    },
    {
      "anonymous": false,
      "inputs": [
        {
          "indexed": false,
          "internalType": "uint256",
          "name": "nftId",
          "type": "uint256"
        },
        {
          "indexed": false,
          "internalType": "address",
          "name": "ghost",
          "type": "address"
        },
        {
          "indexed": false,
          "internalType": "uint256",
          "name": "amount",
          "type": "uint256"
        }
      ],
      "name": "Funded",
      "type": "event"
    },
    {
      "anonymous": false,
      "inputs": [
        {
          "indexed": false,
          "internalType": "uint256",
          "name": "epoch",
          "type": "uint256"
        },
        {
          "indexed": false,
          "internalType": "uint256",
          "name": "amount",
          "type": "uint256"
        }
      ],
      "name": "FundedInflation",
      "type": "event"
    },
    {
      "anonymous": false,
      "inputs": [
        {
          "indexed": false,
          "internalType": "uint64",
          "name": "version",
          "type": "uint64"
        }
      ],
      "name": "Initialized",
      "type": "event"
    },
    {
      "anonymous": false,
      "inputs": [
        {
          "indexed": false,
          "internalType": "uint256",
          "name": "maxNumberOfEpochs",
          "type": "uint256"
        }
      ],
      "name": "MaxNumberOfEpochsSet",
      "type": "event"
    },
    {
      "anonymous": false,
      "inputs": [
        {
          "indexed": false,
          "internalType": "uint256",
          "name": "nftId",
          "type": "uint256"
        },
        {
          "indexed": false,
          "internalType": "address",
          "name": "developer",
          "type": "address"
        }
      ],
      "name": "Minted",
      "type": "event"
    },
    {
      "anonymous": false,
      "inputs": [
        {
          "indexed": true,
          "internalType": "address",
          "name": "previousOwner",
          "type": "address"
        },
        {
          "indexed": true,
          "internalType": "address",
          "name": "newOwner",
          "type": "address"
        }
      ],
      "name": "OwnershipTransferStarted",
      "type": "event"
    },
    {
      "anonymous": false,
      "inputs": [
        {
          "indexed": true,
          "internalType": "address",
          "name": "previousOwner",
          "type": "address"
        },
        {
          "indexed": true,
          "internalType": "address",
          "name": "newOwner",
          "type": "address"
        }
      ],
      "name": "OwnershipTransferred",
      "type": "event"
    },
    {
      "anonymous": false,
      "inputs": [
        {
          "indexed": true,
          "internalType": "bytes32",
          "name": "role",
          "type": "bytes32"
        },
        {
          "indexed": true,
          "internalType": "bytes32",
          "name": "previousAdminRole",
          "type": "bytes32"
        },
        {
          "indexed": true,
          "internalType": "bytes32",
          "name": "newAdminRole",
          "type": "bytes32"
        }
      ],
      "name": "RoleAdminChanged",
      "type": "event"
    },
    {
      "anonymous": false,
      "inputs": [
        {
          "indexed": true,
          "internalType": "bytes32",
          "name": "role",
          "type": "bytes32"
        },
        {
          "indexed": true,
          "internalType": "address",
          "name": "account",
          "type": "address"
        },
        {
          "indexed": true,
          "internalType": "address",
          "name": "sender",
          "type": "address"
        }
      ],
      "name": "RoleGranted",
      "type": "event"
    },
    {
      "anonymous": false,
      "inputs": [
        {
          "indexed": true,
          "internalType": "bytes32",
          "name": "role",
          "type": "bytes32"
        },
        {
          "indexed": true,
          "internalType": "address",
          "name": "account",
          "type": "address"
        },
        {
          "indexed": true,
          "internalType": "address",
          "name": "sender",
          "type": "address"
        }
      ],
      "name": "RoleRevoked",
      "type": "event"
    },
    {
      "anonymous": false,
      "inputs": [
        {
          "indexed": false,
          "internalType": "address",
          "name": "staking",
          "type": "address"
        }
      ],
      "name": "StakingSet",
      "type": "event"
    },
    {
      "anonymous": false,
      "inputs": [
        {
          "indexed": true,
          "internalType": "address",
          "name": "from",
          "type": "address"
        },
        {
          "indexed": true,
          "internalType": "address",
          "name": "to",
          "type": "address"
        },
        {
          "indexed": true,
          "internalType": "uint256",
          "name": "tokenId",
          "type": "uint256"
        }
      ],
      "name": "Transfer",
      "type": "event"
    },
    {
      "anonymous": false,
      "inputs": [
        {
          "indexed": false,
          "internalType": "uint256",
          "name": "nftId",
          "type": "uint256"
        },
        {
          "indexed": false,
          "internalType": "address",
          "name": "developer",
          "type": "address"
        },
        {
          "indexed": false,
          "internalType": "address",
          "name": "to",
          "type": "address"
        }
      ],
      "name": "Transferred",
      "type": "event"
    },
    {
      "inputs": [],
      "name": "DEFAULT_ADMIN_ROLE",
      "outputs": [
        {
          "internalType": "bytes32",
          "name": "",
          "type": "bytes32"
        }
      ],
      "stateMutability": "view",
      "type": "function"
    },
    {
      "inputs": [],
      "name": "acceptOwnership",
      "outputs": [],
      "stateMutability": "nonpayable",
      "type": "function"
    },
    {
      "inputs": [
        {
          "internalType": "address",
          "name": "ghost",
          "type": "address"
        },
        {
          "internalType": "bytes32",
          "name": "txId",
          "type": "bytes32"
        },
        {
          "internalType": "uint256",
          "name": "epoch",
          "type": "uint256"
        }
      ],
      "name": "addTxToGhost",
      "outputs": [],
      "stateMutability": "nonpayable",
      "type": "function"
    },
    {
      "inputs": [
        {
          "internalType": "address",
          "name": "to",
          "type": "address"
        },
        {
          "internalType": "uint256",
          "name": "tokenId",
          "type": "uint256"
        }
      ],
      "name": "approve",
      "outputs": [],
      "stateMutability": "nonpayable",
      "type": "function"
    },
    {
      "inputs": [
        {
          "internalType": "address",
          "name": "owner",
          "type": "address"
        }
      ],
      "name": "balanceOf",
      "outputs": [
        {
          "internalType": "uint256",
          "name": "",
          "type": "uint256"
        }
      ],
      "stateMutability": "view",
      "type": "function"
    },
    {
      "inputs": [
        {
          "internalType": "uint256",
          "name": "nftId",
          "type": "uint256"
        }
      ],
      "name": "claim",
      "outputs": [],
      "stateMutability": "nonpayable",
      "type": "function"
    },
    {
      "inputs": [
        {
          "internalType": "uint256",
          "name": "nftId",
          "type": "uint256"
        },
        {
          "internalType": "uint256",
          "name": "numberOfEpochsToClaim",
          "type": "uint256"
        }
      ],
      "name": "claimEpochs",
      "outputs": [],
      "stateMutability": "nonpayable",
      "type": "function"
    },
    {
      "inputs": [],
      "name": "consensusMain",
      "outputs": [
        {
          "internalType": "address",
          "name": "",
          "type": "address"
        }
      ],
      "stateMutability": "view",
      "type": "function"
    },
    {
      "inputs": [],
      "name": "currentId",
      "outputs": [
        {
          "internalType": "uint256",
          "name": "",
          "type": "uint256"
        }
      ],
      "stateMutability": "view",
      "type": "function"
    },
    {
      "inputs": [
        {
          "internalType": "address",
          "name": "developer",
          "type": "address"
        }
      ],
      "name": "developerToNFT",
      "outputs": [
        {
          "internalType": "uint256",
          "name": "nftId",
          "type": "uint256"
        }
      ],
      "stateMutability": "view",
      "type": "function"
    },
    {
      "inputs": [
        {
          "internalType": "address",
          "name": "ghost",
          "type": "address"
        },
        {
          "internalType": "uint256",
          "name": "epoch",
          "type": "uint256"
        }
      ],
      "name": "fund",
      "outputs": [],
      "stateMutability": "payable",
      "type": "function"
    },
    {
      "inputs": [
        {
          "internalType": "uint256",
          "name": "epoch",
          "type": "uint256"
        }
      ],
      "name": "fundInflation",
      "outputs": [],
      "stateMutability": "payable",
      "type": "function"
    },
    {
      "inputs": [
        {
          "internalType": "uint256",
          "name": "tokenId",
          "type": "uint256"
        }
      ],
      "name": "getApproved",
      "outputs": [
        {
          "internalType": "address",
          "name": "",
          "type": "address"
        }
      ],
      "stateMutability": "view",
      "type": "function"
    },
    {
      "inputs": [
        {
          "internalType": "uint256",
          "name": "nftId",
          "type": "uint256"
        }
      ],
      "name": "getClaimableRewardsFromFees",
      "outputs": [
        {
          "internalType": "uint256",
          "name": "",
          "type": "uint256"
        }
      ],
      "stateMutability": "view",
      "type": "function"
    },
    {
      "inputs": [
        {
          "internalType": "uint256",
          "name": "nftId",
          "type": "uint256"
        },
        {
          "internalType": "uint256",
          "name": "numberOfEpochsToClaim",
          "type": "uint256"
        }
      ],
      "name": "getClaimableRewardsFromInflation",
      "outputs": [
        {
          "internalType": "uint256",
          "name": "amount",
          "type": "uint256"
        }
      ],
      "stateMutability": "view",
      "type": "function"
    },
    {
      "inputs": [
        {
          "internalType": "uint256",
          "name": "nftId",
          "type": "uint256"
        }
      ],
      "name": "getGhostsForNFT",
      "outputs": [
        {
          "internalType": "address[]",
          "name": "",
          "type": "address[]"
        }
      ],
      "stateMutability": "view",
      "type": "function"
    },
    {
      "inputs": [
        {
          "internalType": "uint256",
          "name": "nftId",
          "type": "uint256"
        }
      ],
      "name": "getLastClaimedEpoch",
      "outputs": [
        {
          "internalType": "uint256",
          "name": "",
          "type": "uint256"
        }
      ],
      "stateMutability": "view",
      "type": "function"
    },
    {
      "inputs": [
        {
          "internalType": "uint256",
          "name": "nftId",
          "type": "uint256"
        }
      ],
      "name": "getNumberOfEpochsToClaim",
      "outputs": [
        {
          "internalType": "uint256",
          "name": "",
          "type": "uint256"
        }
      ],
      "stateMutability": "view",
      "type": "function"
    },
    {
      "inputs": [
        {
          "internalType": "bytes32",
          "name": "role",
          "type": "bytes32"
        }
      ],
      "name": "getRoleAdmin",
      "outputs": [
        {
          "internalType": "bytes32",
          "name": "",
          "type": "bytes32"
        }
      ],
      "stateMutability": "view",
      "type": "function"
    },
    {
      "inputs": [
        {
          "internalType": "address",
          "name": "ghost",
          "type": "address"
        },
        {
          "internalType": "uint256",
          "name": "epoch",
          "type": "uint256"
        }
      ],
      "name": "getTxIdsForGhostAndEpoch",
      "outputs": [
        {
          "internalType": "bytes32[]",
          "name": "",
          "type": "bytes32[]"
        }
      ],
      "stateMutability": "view",
      "type": "function"
    },
    {
      "inputs": [
        {
          "internalType": "address",
          "name": "ghost",
          "type": "address"
        }
      ],
      "name": "ghostToNFT",
      "outputs": [
        {
          "internalType": "uint256",
          "name": "nftId",
          "type": "uint256"
        }
      ],
      "stateMutability": "view",
      "type": "function"
    },
    {
      "inputs": [
        {
          "internalType": "bytes32",
          "name": "role",
          "type": "bytes32"
        },
        {
          "internalType": "address",
          "name": "account",
          "type": "address"
        }
      ],
      "name": "grantRole",
      "outputs": [],
      "stateMutability": "nonpayable",
      "type": "function"
    },
    {
      "inputs": [
        {
          "internalType": "address",
          "name": "developer",
          "type": "address"
        }
      ],
      "name": "hasNFT",
      "outputs": [
        {
          "internalType": "bool",
          "name": "",
          "type": "bool"
        }
      ],
      "stateMutability": "view",
      "type": "function"
    },
    {
      "inputs": [
        {
          "internalType": "bytes32",
          "name": "role",
          "type": "bytes32"
        },
        {
          "internalType": "address",
          "name": "account",
          "type": "address"
        }
      ],
      "name": "hasRole",
      "outputs": [
        {
          "internalType": "bool",
          "name": "",
          "type": "bool"
        }
      ],
      "stateMutability": "view",
      "type": "function"
    },
    {
      "inputs": [],
      "name": "initialize",
      "outputs": [],
      "stateMutability": "nonpayable",
      "type": "function"
    },
    {
      "inputs": [
        {
          "internalType": "address",
          "name": "owner",
          "type": "address"
        },
        {
          "internalType": "address",
          "name": "operator",
          "type": "address"
        }
      ],
      "name": "isApprovedForAll",
      "outputs": [
        {
          "internalType": "bool",
          "name": "",
          "type": "bool"
        }
      ],
      "stateMutability": "view",
      "type": "function"
    },
    {
      "inputs": [],
      "name": "maxNumberOfEpochs",
      "outputs": [
        {
          "internalType": "uint256",
          "name": "",
          "type": "uint256"
        }
      ],
      "stateMutability": "view",
      "type": "function"
    },
    {
      "inputs": [
        {
          "internalType": "address",
          "name": "developer",
          "type": "address"
        },
        {
          "internalType": "address",
          "name": "ghost",
          "type": "address"
        }
      ],
      "name": "mint",
      "outputs": [],
      "stateMutability": "nonpayable",
      "type": "function"
    },
    {
      "inputs": [],
      "name": "name",
      "outputs": [
        {
          "internalType": "string",
          "name": "",
          "type": "string"
        }
      ],
      "stateMutability": "view",
      "type": "function"
    },
    {
      "inputs": [
        {
          "internalType": "uint256",
          "name": "nftId",
          "type": "uint256"
        }
      ],
      "name": "nfts",
      "outputs": [
        {
          "internalType": "address",
          "name": "developer",
          "type": "address"
        },
        {
          "internalType": "uint256",
          "name": "claimableRewards",
          "type": "uint256"
        },
        {
          "internalType": "uint256",
          "name": "lastClaimedEpoch",
          "type": "uint256"
        }
      ],
      "stateMutability": "view",
      "type": "function"
    },
    {
      "inputs": [],
      "name": "owner",
      "outputs": [
        {
          "internalType": "address",
          "name": "",
          "type": "address"
        }
      ],
      "stateMutability": "view",
      "type": "function"
    },
    {
      "inputs": [
        {
          "internalType": "uint256",
          "name": "tokenId",
          "type": "uint256"
        }
      ],
      "name": "ownerOf",
      "outputs": [
        {
          "internalType": "address",
          "name": "",
          "type": "address"
        }
      ],
      "stateMutability": "view",
      "type": "function"
    },
    {
      "inputs": [],
      "name": "pendingOwner",
      "outputs": [
        {
          "internalType": "address",
          "name": "",
          "type": "address"
        }
      ],
      "stateMutability": "view",
      "type": "function"
    },
    {
      "inputs": [],
      "name": "renounceOwnership",
      "outputs": [],
      "stateMutability": "nonpayable",
      "type": "function"
    },
    {
      "inputs": [
        {
          "internalType": "bytes32",
          "name": "role",
          "type": "bytes32"
        },
        {
          "internalType": "address",
          "name": "callerConfirmation",
          "type": "address"
        }
      ],
      "name": "renounceRole",
      "outputs": [],
      "stateMutability": "nonpayable",
      "type": "function"
    },
    {
      "inputs": [
        {
          "internalType": "bytes32",
          "name": "role",
          "type": "bytes32"
        },
        {
          "internalType": "address",
          "name": "account",
          "type": "address"
        }
      ],
      "name": "revokeRole",
      "outputs": [],
      "stateMutability": "nonpayable",
      "type": "function"
    },
    {
      "inputs": [
        {
          "internalType": "address",
          "name": "from",
          "type": "address"
        },
        {
          "internalType": "address",
          "name": "to",
          "type": "address"
        },
        {
          "internalType": "uint256",
          "name": "tokenId",
          "type": "uint256"
        }
      ],
      "name": "safeTransferFrom",
      "outputs": [],
      "stateMutability": "nonpayable",
      "type": "function"
    },
    {
      "inputs": [
        {
          "internalType": "address",
          "name": "from",
          "type": "address"
        },
        {
          "internalType": "address",
          "name": "to",
          "type": "address"
        },
        {
          "internalType": "uint256",
          "name": "tokenId",
          "type": "uint256"
        },
        {
          "internalType": "bytes",
          "name": "data",
          "type": "bytes"
        }
      ],
      "name": "safeTransferFrom",
      "outputs": [],
      "stateMutability": "nonpayable",
      "type": "function"
    },
    {
      "inputs": [
        {
          "internalType": "address",
          "name": "operator",
          "type": "address"
        },
        {
          "internalType": "bool",
          "name": "approved",
          "type": "bool"
        }
      ],
      "name": "setApprovalForAll",
      "outputs": [],
      "stateMutability": "nonpayable",
      "type": "function"
    },
    {
      "inputs": [
        {
          "internalType": "address",
          "name": "_consensusMain",
          "type": "address"
        }
      ],
      "name": "setConsensusMain",
      "outputs": [],
      "stateMutability": "nonpayable",
      "type": "function"
    },
    {
      "inputs": [
        {
          "internalType": "uint256",
          "name": "_maxNumberOfEpochs",
          "type": "uint256"
        }
      ],
      "name": "setMaxNumberOfEpochs",
      "outputs": [],
      "stateMutability": "nonpayable",
      "type": "function"
    },
    {
      "inputs": [
        {
          "internalType": "address",
          "name": "_staking",
          "type": "address"
        }
      ],
      "name": "setStaking",
      "outputs": [],
      "stateMutability": "nonpayable",
      "type": "function"
    },
    {
      "inputs": [],
      "name": "staking",
      "outputs": [
        {
          "internalType": "address",
          "name": "",
          "type": "address"
        }
      ],
      "stateMutability": "view",
      "type": "function"
    },
    {
      "inputs": [
        {
          "internalType": "bytes4",
          "name": "interfaceId",
          "type": "bytes4"
        }
      ],
      "name": "supportsInterface",
      "outputs": [
        {
          "internalType": "bool",
          "name": "",
          "type": "bool"
        }
      ],
      "stateMutability": "view",
      "type": "function"
    },
    {
      "inputs": [],
      "name": "symbol",
      "outputs": [
        {
          "internalType": "string",
          "name": "",
          "type": "string"
        }
      ],
      "stateMutability": "view",
      "type": "function"
    },
    {
      "inputs": [
        {
          "internalType": "uint256",
          "name": "tokenId",
          "type": "uint256"
        }
      ],
      "name": "tokenURI",
      "outputs": [
        {
          "internalType": "string",
          "name": "",
          "type": "string"
        }
      ],
      "stateMutability": "view",
      "type": "function"
    },
    {
      "inputs": [
        {
          "internalType": "uint256",
          "name": "epoch",
          "type": "uint256"
        }
      ],
      "name": "totalPerEpoch",
      "outputs": [
        {
          "internalType": "uint256",
          "name": "fees",
          "type": "uint256"
        },
        {
          "internalType": "uint256",
          "name": "inflation",
          "type": "uint256"
        }
      ],
      "stateMutability": "view",
      "type": "function"
    },
    {
      "inputs": [
        {
          "internalType": "uint256",
          "name": "nftId",
          "type": "uint256"
        },
        {
          "internalType": "address",
          "name": "to",
          "type": "address"
        }
      ],
      "name": "transfer",
      "outputs": [],
      "stateMutability": "nonpayable",
      "type": "function"
    },
    {
      "inputs": [
        {
          "internalType": "address",
          "name": "from",
          "type": "address"
        },
        {
          "internalType": "address",
          "name": "to",
          "type": "address"
        },
        {
          "internalType": "uint256",
          "name": "tokenId",
          "type": "uint256"
        }
      ],
      "name": "transferFrom",
      "outputs": [],
      "stateMutability": "nonpayable",
      "type": "function"
    },
    {
      "inputs": [
        {
          "internalType": "address",
          "name": "newOwner",
          "type": "address"
        }
      ],
      "name": "transferOwnership",
      "outputs": [],
      "stateMutability": "nonpayable",
      "type": "function"
    },
    {
      "inputs": [
        {
          "internalType": "address",
          "name": "ghost",
          "type": "address"
        },
        {
          "internalType": "uint256",
          "name": "epoch",
          "type": "uint256"
        },
        {
          "internalType": "uint256",
          "name": "",
          "type": "uint256"
        }
      ],
      "name": "txIdsPerEpoch",
      "outputs": [
        {
          "internalType": "bytes32",
          "name": "txIds",
          "type": "bytes32"
        }
      ],
      "stateMutability": "view",
      "type": "function"
    }
  ],
  "bytecode": "0x60808060405234601557612c91908161001b8239f35b600080fdfe6080604052600436101561001257600080fd5b6000803560e01c8062e703ca14611b6357806301d1ae3414611aa257806301ffc9a714611a1957806306fdde0314611958578063081812fc1461192f578063095ea7b3146118475780631ea8970f1461180e57806323b872dd146117f6578063248a9ca3146117d7578063265aa6211461178d5780632f2ff15d1461175b57806336568abe14611716578063379607f5146116c557806342842e0e1461169b57806343c4b40b146116745780634b7877c51461162b5780634c7f0b8c146116025780634cf088d9146115d95780636352211e146115a857806370a0823114611556578063715018a6146114d5578063785f8ee31461149a57806379ba50971461144c5780637b1837de14611323578063811de0e2146112bf5780638129fc1c14610dc35780638da5cb5b14610d8d5780638ff3909914610d1f57806391d1485414610cc957806395d89b4114610bcc5780639c9b881914610b9f578063a217fddf14610b83578063a22cb46514610ae4578063b7760c8f14610991578063b7b90e6b146108d5578063b88d4fde14610840578063ba6e27cd1461080c578063bfd1d45a146107d3578063c3453c02146107b6578063c87b56dd1461075a578063d05b22381461070d578063d50eeb0a146106ea578063d547741f146106af578063da2943b814610682578063de7e992e146105e8578063e00dd161146105ca578063e30c397814610594578063e5c4a50914610526578063e985e9c5146104d7578063ee1fe2ad146102d75763f2fde38b1461024d57600080fd5b346102d45760203660031901126102d457610266611c53565b61026e61280a565b600080516020612c1c83398151915280546001600160a01b0319166001600160a01b03928316908117909155600080516020612b5c833981519152549091167f38d16b8cac22d99fc7c124b9cd0de2d3fa1faef420bfe791d8c362d765e227008380a380f35b80fd5b50346102d45760403660031901126102d4576102f1611c53565b6102f9611c6e565b6001546001600160a01b0316331415806104c2575b6104b3576001600160a01b038216808452600560205260408420549091906104a4576001600160a01b031680156104955781156104865780845260066020526040842054610477576003546000198114610463576001016003819055926001600160a01b039061037f90859061221e565b1661044f578184526005602052826040852055808452600660205282604085205582845260046020526003604085208360018060a01b031982541617815585600182015585600282015501805490600160401b82101561043b579161040f827fb9203d657e9c0ec8274c818292ab0f58b04e1970050716891770eb1bab5d655e9694600160409795018155611d87565b81546001600160a01b0360039290921b91821b191692901b91909117905582519182526020820152a180f35b634e487b7160e01b86526041600452602486fd5b6339e3563760e11b84526004849052602484fd5b634e487b7160e01b85526011600452602485fd5b6306d7a10d60e31b8452600484fd5b637e3f46bd60e01b8452600484fd5b634d8d14c560e01b8452600484fd5b63a74b28d160e01b8452600484fd5b6370f64de560e01b8352600483fd5b506002546001600160a01b031633141561030e565b50346102d45760403660031901126102d4576104f1611c53565b6105026104fc611c6e565b91611cfe565b9060018060a01b0316600052602052602060ff604060002054166040519015158152f35b50346102d45760203660031901126102d4577fb8e8646f956ec2f2bdbc3c6c2bb52a07dab79a3fc7763257f17c1b4214d087846020610563611c53565b61056b61280a565b600180546001600160a01b0319166001600160a01b03929092169182179055604051908152a180f35b50346102d457806003193601126102d457600080516020612c1c833981519152546040516001600160a01b039091168152602090f35b50346102d457806003193601126102d4576020600354604051908152f35b5060203660031901126102d45760043560018060a01b03600154163314158061066d575b61065e576040817f4e6be16a3524de88ce5fdfe56531ecc6a1dd8819ce5d794eab027c5ccdd5ed68928452600860205260018285200161064d348254612083565b90558151908152346020820152a180f35b6370f64de560e01b8252600482fd5b506002546001600160a01b031633141561060c565b50346102d45760203660031901126102d45760026040602092600435815260048452200154604051908152f35b50346102d45760403660031901126102d4576106e66004356106cf611c6e565b906106e16106dc82612062565b612374565b612519565b5080f35b50346102d45760206107046106fe36611d71565b906128ae565b50604051908152f35b50346102d45760203660031901126102d4577faf2b2aad83d92d146842786c6618e69fbdfc6a40dc3e8fa079d459f4e0c9bc9c602060043561074d61280a565b808455604051908152a180f35b50346102d45760203660031901126102d4576107776004356121c5565b5080604051610787602082611db5565b52506107b260405161079a602082611db5565b60008152604051918291602083526020830190611c84565b0390f35b50346102d457806003193601126102d45760209054604051908152f35b50346102d45760203660031901126102d4576020906040906001600160a01b036107fb611c53565b168152600583522054604051908152f35b50346102d45760203660031901126102d4576040809160043581526008602052206001815491015482519182526020820152f35b50346102d45760803660031901126102d45761085a611c53565b610862611c6e565b906064359067ffffffffffffffff82116108d157366023830112156108d1578160040135928461089185611ded565b9361089f6040519586611db5565b85855236602487830101116108cd57856108ca966024602093018388013785010152604435916120a6565b80f35b5080fd5b8380fd5b50346102d45760203660031901126102d4576004358152600460205260036040822001604051908160208254918281520190819285526020852090855b8181106109725750505082610928910383611db5565b604051928392602084019060208552518091526040840192915b818110610950575050500390f35b82516001600160a01b0316845285945060209384019390920191600101610942565b82546001600160a01b0316845260209093019260019283019201610912565b50346102d45760403660031901126102d4576004356109ae611c6e565b6109b66125b9565b6001600160a01b038116908115610ad557813314610ad557818452600560205260408420546104a457338452600560205282604085205403610ac65781845260056020818152604080872086905533875291815281862086905584865260049052842080546001600160a01b031916831790556001600160a01b0390610a3d90849061221e565b1680610a5757637e27328960e01b84526004839052602484fd5b338103610aab57507f0ea8df787dde63a7bdc34d17097adf25749a3521f660e92dabdff8d6ee91d18a916060916040519182523360208301526040820152a16001600080516020612bbc8339815191525580f35b6364283d7b60e01b8452336004526024839052604452606483fd5b631022318760e21b8452600484fd5b634e46966960e11b8452600484fd5b50346102d45760403660031901126102d457610afe611c53565b60243590811515809203610b7f576001600160a01b0316908115610b6b57610b2533611cfe565b8284526020526040832060ff1981541660ff83161790556040519081527f17307eab39ab6107e8899845ad3d59bd9653f200f220920489ca2b5937696c3160203392a380f35b630b61174360e31b83526004829052602483fd5b8280fd5b50346102d457806003193601126102d457602090604051908152f35b50346102d45760203660031901126102d45760016040602092600435815260048452200154604051908152f35b50346102d457806003193601126102d4576040519080600080516020612c3c8339815191525490610bfc82611e09565b8085529160018116908115610ca25750600114610c38575b6107b284610c2481860382611db5565b604051918291602083526020830190611c84565b600080516020612c3c83398151915281527ff4bad0a69248f59680a4f2b3000328cec71a413447c96781cfe5996daa8c456e939250905b808210610c8857509091508101602001610c2482610c14565b919260018160209254838588010152019101909291610c6f565b60ff191660208087019190915292151560051b85019092019250610c249150839050610c14565b50346102d45760403660031901126102d45760ff6040602092610cea611c6e565b6004358252600080516020612b7c83398151915285528282206001600160a01b03909116825284522054604051911615158152f35b50346102d45760203660031901126102d4577ff520447191196b125f76f7110397fdf32b1b9cefb7dec323bd3b998022ac23386020610d5c611c53565b610d6461280a565b600280546001600160a01b0319166001600160a01b03929092169182179055604051908152a180f35b50346102d457806003193601126102d457600080516020612b5c833981519152546040516001600160a01b039091168152602090f35b50346102d457806003193601126102d457600080516020612bfc833981519152549060ff8260401c16159167ffffffffffffffff8116801590816112b7575b60011490816112ad575b1590816112a4575b506112955767ffffffffffffffff198116600117600080516020612bfc8339815191525582611268575b50610e47612a85565b610e4f612a85565b610e57612a85565b331561125457610e6633612840565b610e6e612a85565b610e76612a85565b6001600080516020612bbc83398151915255610e90612a85565b6040805192610e9f8285611db5565b601784527611d95b9b185e595c8811195d995b1bdc195c9cc8139195604a1b6020850152815193610ed08386611db5565b600485526311d3919560e21b6020860152610ee9612a85565b610ef1612a85565b80519067ffffffffffffffff8211611240578190610f1d600080516020612b3c83398151915254611e09565b601f81116111c5575b50602090601f831160011461114657869261113b575b50508160011b916000199060031b1c191617600080516020612b3c833981519152555b835167ffffffffffffffff811161112757610f88600080516020612c3c83398151915254611e09565b601f81116110b7575b50602094601f821160011461103957948495829394959261102e575b50508160011b916000199060031b1c191617600080516020612c3c833981519152555b610fd9336123be565b5060328355610fe6575080f35b600080516020612bfc833981519152805460ff60401b1916905551600181527fc7f505b2f371ae2175ee4913f4499e1f2633a7b5936321eed1cdaeb6115181d290602090a180f35b015190503880610fad565b601f19821695600080516020612c3c833981519152865280862091865b88811061109f57508360019596979810611086575b505050811b01600080516020612c3c83398151915255610fd0565b015160001960f88460031b161c1916905538808061106b565b91926020600181928685015181550194019201611056565b600080516020612c3c83398151915285527ff4bad0a69248f59680a4f2b3000328cec71a413447c96781cfe5996daa8c456e601f830160051c8101916020841061111d575b601f0160051c01905b8181106111125750610f91565b858155600101611105565b90915081906110fc565b634e487b7160e01b84526041600452602484fd5b015190503880610f3c565b600080516020612b3c83398151915287528187209250601f198416875b8181106111ad5750908460019594939210611194575b505050811b01600080516020612b3c83398151915255610f5f565b015160001960f88460031b161c19169055388080611179565b92936020600181928786015181550195019301611163565b600080516020612b3c83398151915287529091507f37c58c799b6609234b945e882912ee9ad34948a1dfaa20a97485e1a7752bbf81601f840160051c81019160208510611236575b90601f859493920160051c01905b8181106112285750610f26565b87815584935060010161121b565b909150819061120d565b634e487b7160e01b85526041600452602485fd5b631e4fbdf760e01b81526004819052602490fd5b68ffffffffffffffffff19166801000000000000000117600080516020612bfc8339815191525538610e3e565b63f92ee8a960e01b8252600482fd5b90501538610e14565b303b159150610e0c565b849150610e02565b50346102d45760603660031901126102d4576112d9611c53565b6001600160a01b0316815260076020908152604080832060243584529091528120805460443592908310156102d45760206113148484611d87565b90549060031b1c604051908152f35b5060403660031901126102d457611338611c53565b906024359160018060a01b036001541633141580611437575b61065e576001600160a01b038116801561142857825260066020526040822054908115611419578293827f38c48552690c96ec2872092ac1db6c19fb59f5a8c5b49bbf41ed4886d0ca692694526004602052600160408620016113b5348254612083565b9055828552600460205260046040862001818652602052604085206113db348254612083565b905584526008602052604084206113f3348254612083565b9055604080519283526001600160a01b039190911660208301523490820152606090a180f35b633842499160e11b8352600483fd5b634d8d14c560e01b8352600483fd5b506002546001600160a01b0316331415611351565b50346102d457806003193601126102d457600080516020612c1c83398151915254336001600160a01b0390911603611487576108ca33612840565b63118cdaa760e01b815233600452602490fd5b50346102d45760203660031901126102d4576020906040906001600160a01b036114c2611c53565b1681526005835220541515604051908152f35b50346102d457806003193601126102d4576114ee61280a565b600080516020612c1c83398151915280546001600160a01b0319908116909155600080516020612b5c8339815191528054918216905581906001600160a01b03167f8be0079c531659141344cd1fd0a4f28419497f9722a3daafe3b4186f6b6457e08280a380f35b50346102d45760203660031901126102d457611570611c53565b906001600160a01b0382161561159457602061158b83611cc5565b54604051908152f35b6322718ad960e21b81526004819052602490fd5b50346102d45760203660031901126102d45760206115c76004356121c5565b6040516001600160a01b039091168152f35b50346102d457806003193601126102d4576002546040516001600160a01b039091168152602090f35b50346102d457806003193601126102d4576001546040516001600160a01b039091168152602090f35b50346102d45761163a36611d71565b903383526005602052604083205415611419579061165f9161165a6125b9565b6126d5565b6001600080516020612bbc8339815191525580f35b50346102d45760203660031901126102d4576020611693600435612602565b604051908152f35b50346102d4576108ca6116ad36611d37565b90604051926116bd602085611db5565b8584526120a6565b50346102d45760203660031901126102d45760043533825260056020526040822054156117075761165f906116f86125b9565b61170181612602565b906126d5565b633842499160e11b8252600482fd5b50346102d45760403660031901126102d457611730611c6e565b336001600160a01b0382160361174c576106e690600435612519565b63334bd91960e11b8252600482fd5b50346102d45760403660031901126102d4576106e660043561177b611c6e565b906117886106dc82612062565b612470565b50346102d45760203660031901126102d4576040606091600435815260046020522060018060a01b0381541690600260018201549101549060405192835260208301526040820152f35b50346102d45760203660031901126102d4576020611693600435612062565b50346102d4576108ca61180836611d37565b91611e43565b50346102d45760203660031901126102d4576020906040906001600160a01b03611836611c53565b168152600683522054604051908152f35b50346102d45760403660031901126102d457611861611c53565b60243561186d816121c5565b3315158061191c575b806118fe575b6118eb5781906001600160a01b0384811691167f8c5be1e5ebec7d5bd14f71427d1e84f3dd0314c0f7b2291e5b200ac8c7c3b9258680a48252600080516020612bdc8339815191526020526040822080546001600160a01b0319166001600160a01b0390921691909117905580f35b63a9fbf51f60e01b845233600452602484fd5b5061190881611cfe565b338552602052604084205460ff161561187c565b506001600160a01b038116331415611876565b50346102d45760203660031901126102d45760206115c7600435611952816121c5565b506121f6565b50346102d457806003193601126102d4576040519080600080516020612b3c833981519152549061198882611e09565b8085529160018116908115610ca257506001146119af576107b284610c2481860382611db5565b600080516020612b3c83398151915281527f37c58c799b6609234b945e882912ee9ad34948a1dfaa20a97485e1a7752bbf81939250905b8082106119ff57509091508101602001610c2482610c14565b9192600181602092548385880101520191019092916119e6565b50346102d45760203660031901126102d45760043563ffffffff60e01b81168091036108cd576020906380ac58cd60e01b8114908115611a91575b8115611a66575b506040519015158152f35b637965db0b60e01b811491508115611a80575b5082611a5b565b6301ffc9a760e01b14905082611a79565b635b5e139f60e01b81149150611a54565b50346102d45760403660031901126102d4576001600160a01b03611ac4611c53565b168152600760205260408120602435825260205260408120604051908160208254918281520190819285526020852090855b818110611b4d5750505082611b0c910383611db5565b604051928392602084019060208552518091526040840192915b818110611b34575050500390f35b8251845285945060209384019390920191600101611b26565b8254845260209093019260019283019201611af6565b50346102d45760603660031901126102d457611b7d611c53565b60015460243591604435916001600160a01b031633141580611c3e575b611c2f576001600160a01b03168084526007602090815260408086208487529091528420805491939190600160401b82101561043b5791611c06827f03758e616baf94de0d1218113d7efe48d1d2b2be3c027f2ea429465175b0befe9694600160609795018155611d87565b81549060031b9083821b91600019901b191617905560405192835260208301526040820152a180f35b6370f64de560e01b8452600484fd5b506002546001600160a01b0316331415611b9a565b600435906001600160a01b0382168203611c6957565b600080fd5b602435906001600160a01b0382168203611c6957565b919082519283825260005b848110611cb0575050826000602080949584010152601f8019910116010190565b80602080928401015182828601015201611c8f565b6001600160a01b031660009081527f80bb2b638cc20bc4d0a60d66940f3ab4a00c1d7b313497ca82fb0b4ab00793036020526040902090565b6001600160a01b031660009081527f80bb2b638cc20bc4d0a60d66940f3ab4a00c1d7b313497ca82fb0b4ab00793056020526040902090565b6060906003190112611c69576004356001600160a01b0381168103611c6957906024356001600160a01b0381168103611c69579060443590565b6040906003190112611c69576004359060243590565b8054821015611d9f5760005260206000200190600090565b634e487b7160e01b600052603260045260246000fd5b90601f8019910116810190811067ffffffffffffffff821117611dd757604052565b634e487b7160e01b600052604160045260246000fd5b67ffffffffffffffff8111611dd757601f01601f191660200190565b90600182811c92168015611e39575b6020831014611e2357565b634e487b7160e01b600052602260045260246000fd5b91607f1691611e18565b9091906001600160a01b038316801561204c57600090611e6284612a32565b9133151580611fb3575b506001600160a01b0383169586151590611e8a9082611f9457611cc5565b80546001019055858252600080516020612b9c8339815191526020526040822080546001600160a01b031916841790558583887fddf252ad1be2c89b69c2b068fc378daa952ba7f163c4a11628f55a4df523b3ef8580a4611f81575b81815260056020526040812054151580611f6b575b611f5c578181526005602090815260408083208790558683526004909152902080546001600160a01b0319169091179055506001600160a01b0316808303611f4257505050565b6364283d7b60e01b60005260045260245260445260646000fd5b63a74b28d160e01b8152600490fd5b5081815260056020528460408220541415611efb565b8581526005602052806040812055611ee6565b611f9d88612a5a565b611fa686611cc5565b8054600019019055611cc5565b80611ffc575b15611fc45738611e6c565b9250506001600160a01b0316611fe657602491637e27328960e01b8252600452fd5b60449163177e802f60e01b825233600452602452fd5b506001600160a01b0383163314801561202f575b80611fb95750336001600160a01b03612028876121f6565b1614611fb9565b5061203983611cfe565b338252602052604081205460ff16612010565b633250574960e11b600052600060045260246000fd5b600052600080516020612b7c83398151915260205260016040600020015490565b9190820180921161209057565b634e487b7160e01b600052601160045260246000fd5b92916120b3818386611e43565b813b6120c0575b50505050565b604051630a85bd0160e11b81523360048201526001600160a01b039485166024820152604481019190915260806064820152921691906020908290819061210b906084830190611c84565b03816000865af18091600091612182575b509061214d575061212b6126a5565b805190816121485782633250574960e11b60005260045260246000fd5b602001fd5b6001600160e01b03191663757a42ff60e11b0161216e5750388080806120ba565b633250574960e11b60005260045260246000fd5b6020813d6020116121bd575b8161219b60209383611db5565b810103126108cd5751906001600160e01b0319821682036102d457503861211c565b3d915061218e565b6121ce81612a32565b906001600160a01b038216156121e2575090565b637e27328960e01b60005260045260246000fd5b6000908152600080516020612bdc83398151915260205260409020546001600160a01b031690565b61222782612a32565b916001600160a01b038316801515929083612355575b6001600160a01b03821693841515928361233f575b506000848152600080516020612b9c8339815191526020526040812080546001600160a01b031916871790558490869084907fddf252ad1be2c89b69c2b068fc378daa952ba7f163c4a11628f55a4df523b3ef9080a461232a575b506122b757505090565b816000526005602052604060002054151580612312575b6123015781600052600560205280604060002055600052600460205260406000209060018060a01b031982541617905590565b63a74b28d160e01b60005260046000fd5b508160005260056020528060406000205414156122ce565b600052600560205260006040812055386122ad565b61234890611cc5565b6001815401905538612252565b61235e83612a5a565b61236785611cc5565b805460001901905561223d565b6000818152600080516020612b7c8339815191526020908152604080832033845290915290205460ff16156123a65750565b63e2517d3f60e01b6000523360045260245260446000fd5b6001600160a01b03811660009081527fb7db2dd08fcb62d0c9e08c51941cae53c267786a0b75803fb7960902fc8ef97d602052604090205460ff1661246a576001600160a01b031660008181527fb7db2dd08fcb62d0c9e08c51941cae53c267786a0b75803fb7960902fc8ef97d60205260408120805460ff191660011790553391907f2f8788117e7eff1d82e926ec794901d17c78024a50270940304540a733656f0d8180a4600190565b50600090565b6000818152600080516020612b7c833981519152602090815260408083206001600160a01b038616845290915290205460ff16612512576000818152600080516020612b7c833981519152602090815260408083206001600160a01b0395909516808452949091528120805460ff19166001179055339291907f2f8788117e7eff1d82e926ec794901d17c78024a50270940304540a733656f0d9080a4600190565b5050600090565b6000818152600080516020612b7c833981519152602090815260408083206001600160a01b038616845290915290205460ff1615612512576000818152600080516020612b7c833981519152602090815260408083206001600160a01b0395909516808452949091528120805460ff19169055339291907ff6391f5c32d9c69d2a47ea670b442974b53935d1edc7fd64eb21e047a839171b9080a4600190565b6002600080516020612bbc83398151915254146125e4576002600080516020612bbc83398151915255565b633ee5aeb560e01b60005260046000fd5b9190820391821161209057565b60025460405163b3f05b9760e01b81529190602090839060049082906001600160a01b03165afa91821561269957600092612665575b50600090815260046020526040902060020154818110612659575050600090565b612662916125f5565b90565b90916020823d602011612691575b8161268060209383611db5565b810103126102d45750519038612638565b3d9150612673565b6040513d6000823e3d90fd5b3d156126d0573d906126b682611ded565b916126c46040519384611db5565b82523d6000602084013e565b606090565b906000548015159081612800575b506127ef576000828152600460205260409020546001600160a01b031633036127de57600082815260046020526040812060010180549190559061272790836128ae565b9083600052600460205260026040600020015482116127ba575b505080156127a957600080808084335af161275a6126a5565b501561279857604080519283523360208401528201527f4ec90e965519d92681267467f775ada5bd214aa92c0dc93d90a5e880ce9ed02690606090a1565b633825f58760e01b60005260046000fd5b630df6b47b60e41b60005260046000fd5b6127c49192612083565b908260005260046020526002604060002001553880612741565b631022318760e21b60005260046000fd5b632e6a339160e21b60005260046000fd5b90508111386126e3565b600080516020612b5c833981519152546001600160a01b0316330361282b57565b63118cdaa760e01b6000523360045260246000fd5b600080516020612c1c83398151915280546001600160a01b0319908116909155600080516020612b5c83398151915280549182166001600160a01b0393841690811790915591167f8be0079c531659141344cd1fd0a4f28419497f9722a3daafe3b4186f6b6457e0600080a3565b90916000926000928115612a27578060005260046020526002604060002001546004602060018060a01b03600254166040519283809263b3f05b9760e01b82525afa908115612699576000916129f5575b50808210156129e85781612912916125f5565b8084116129e0575b5091906000925b82841061292e5750505050565b90919295945061293e8682612083565b94600186018096116120905760008381526004602081815260408084208a855290920181528183205460089091529082208054600190910154919283929082156129d657506129959261299091612ab3565b612af3565b915b8160011b9180830460021490151715612090576001926129c3926000818310156129cd57505090612083565b9601929190612921565b50919050612083565b9250505091612997565b92503861291a565b5060009550859450505050565b906020823d602011612a1f575b81612a0f60209383611db5565b810103126102d4575051386128ff565b3d9150612a02565b506000935083925050565b6000908152600080516020612b9c83398151915260205260409020546001600160a01b031690565b6000908152600080516020612bdc8339815191526020526040902080546001600160a01b0319169055565b60ff600080516020612bfc8339815191525460401c1615612aa257565b631afcd79f60e31b60005260046000fd5b8181029181830414901517156120905780612ace5750600090565b600019810190811161209057670de0b6b3a76400009004600181018091116120905790565b80612aff575050600090565b670de0b6b3a76400008102908104670de0b6b3a764000003612090578115612b25570490565b634e487b7160e01b600052601260045260246000fdfe80bb2b638cc20bc4d0a60d66940f3ab4a00c1d7b313497ca82fb0b4ab00793009016d09d72d40fdae2fd8ceac6b6234c7706214fd39c1cd1e609a0528c19930002dd7bc7dec4dceedda775e58dd541e08a116c6c53815c0bd028192f7b62680080bb2b638cc20bc4d0a60d66940f3ab4a00c1d7b313497ca82fb0b4ab00793029b779b17422d0df92223018b32b4d1fa46e071723d6817e2486d003becc55f0080bb2b638cc20bc4d0a60d66940f3ab4a00c1d7b313497ca82fb0b4ab0079304f0c57e16840df040f15088dc2f81fe391c3923bec73e23a9662efc9c229c6a00237e158222e3e6968b72b9db0d8043aacf074ad9f650f0d1606b4d82ee432c0080bb2b638cc20bc4d0a60d66940f3ab4a00c1d7b313497ca82fb0b4ab0079301a26469706673582212201163794cc74344a3cde7b5f1aae04e6048aa1897db3745ed2875938a42e353cc64736f6c634300081c0033",
  "linkReferences": {},
  "deployedLinkReferences": {}
}