{
  "_format": "hh-sol-artifact-1",
  "contractName": "ConsensusMainWithFees",
  "sourceName": "contracts/ConsensusMainWithFees.sol",
  "abi": [
    {
      "inputs": [],
      "stateMutability": "nonpayable",
      "type": "constructor"
    },
    {
      "inputs": [],
      "name": "CallerNotMessages",
      "type": "error"
    },
    {
      "inputs": [],
      "name": "CanNotAppeal",
      "type": "error"
    },
    {
      "inputs": [],
      "name": "InsufficientFees",
      "type": "error"
    },
    {
      "inputs": [],
      "name": "InvalidDeploymentWithSalt",
      "type": "error"
    },
    {
      "inputs": [],
      "name": "InvalidGhostContract",
      "type": "error"
    },
    {
      "inputs": [],
      "name": "InvalidInitialization",
      "type": "error"
    },
    {
      "inputs": [],
      "name": "InvalidRevealLeaderData",
      "type": "error"
    },
    {
      "inputs": [],
      "name": "InvalidVote",
      "type": "error"
    },
    {
      "inputs": [],
      "name": "NotInitializing",
      "type": "error"
    },
    {
      "inputs": [],
      "name": "OutOfGas",
      "type": "error"
    },
    {
      "inputs": [
        {
          "internalType": "address",
          "name": "owner",
          "type": "address"
        }
      ],
      "name": "OwnableInvalidOwner",
      "type": "error"
    },
    {
      "inputs": [
        {
          "internalType": "address",
          "name": "account",
          "type": "address"
        }
      ],
      "name": "OwnableUnauthorizedAccount",
      "type": "error"
    },
    {
      "inputs": [],
      "name": "ReentrancyGuardReentrantCall",
      "type": "error"
    },
    {
      "inputs": [],
      "name": "TransactionNotFinalized",
      "type": "error"
    },
    {
      "anonymous": false,
      "inputs": [
        {
          "indexed": true,
          "internalType": "bytes32",
          "name": "txId",
          "type": "bytes32"
        },
        {
          "indexed": true,
          "internalType": "address",
          "name": "oldActivator",
          "type": "address"
        },
        {
          "indexed": true,
          "internalType": "address",
          "name": "newActivator",
          "type": "address"
        }
      ],
      "name": "ActivatorReplaced",
      "type": "event"
    },
    {
      "anonymous": false,
      "inputs": [
        {
          "indexed": true,
          "internalType": "address",
          "name": "addressManager",
          "type": "address"
        }
      ],
      "name": "AddressManagerSet",
      "type": "event"
    },
    {
      "anonymous": false,
      "inputs": [
        {
          "indexed": true,
          "internalType": "bytes32",
          "name": "txId",
          "type": "bytes32"
        },
        {
          "indexed": false,
          "internalType": "enum ITransactions.TransactionStatus",
          "name": "newStatus",
          "type": "uint8"
        }
      ],
      "name": "AllVotesCommitted",
      "type": "event"
    },
    {
      "anonymous": false,
      "inputs": [
        {
          "indexed": true,
          "internalType": "bytes32",
          "name": "txId",
          "type": "bytes32"
        },
        {
          "indexed": true,
          "internalType": "address",
          "name": "appealer",
          "type": "address"
        },
        {
          "indexed": false,
          "internalType": "uint256",
          "name": "amount",
          "type": "uint256"
        }
      ],
      "name": "AppealBondReturned",
      "type": "event"
    },
    {
      "anonymous": false,
      "inputs": [
        {
          "indexed": true,
          "internalType": "bytes32",
          "name": "txId",
          "type": "bytes32"
        },
        {
          "indexed": true,
          "internalType": "address",
          "name": "appellant",
          "type": "address"
        },
        {
          "indexed": false,
          "internalType": "uint256",
          "name": "bond",
          "type": "uint256"
        },
        {
          "indexed": false,
          "internalType": "address[]",
          "name": "validators",
          "type": "address[]"
        }
      ],
      "name": "AppealStarted",
      "type": "event"
    },
    {
      "anonymous": false,
      "inputs": [
        {
          "indexed": false,
          "internalType": "uint256",
          "name": "attempted",
          "type": "uint256"
        },
        {
          "indexed": false,
          "internalType": "uint256",
          "name": "succeeded",
          "type": "uint256"
        },
        {
          "indexed": false,
          "internalType": "uint256",
          "name": "failed",
          "type": "uint256"
        }
      ],
      "name": "BatchFinalizationCompleted",
      "type": "event"
    },
    {
      "anonymous": false,
      "inputs": [
        {
          "indexed": true,
          "internalType": "bytes32",
          "name": "txId",
          "type": "bytes32"
        },
        {
          "indexed": false,
          "internalType": "uint256",
          "name": "txSlot",
          "type": "uint256"
        }
      ],
      "name": "CreatedTransaction",
      "type": "event"
    },
    {
      "anonymous": false,
      "inputs": [
        {
          "indexed": true,
          "internalType": "bytes32",
          "name": "txId",
          "type": "bytes32"
        },
        {
          "indexed": true,
          "internalType": "address",
          "name": "sender",
          "type": "address"
        },
        {
          "indexed": false,
          "internalType": "uint256",
          "name": "amount",
          "type": "uint256"
        }
      ],
      "name": "FeesRefunded",
      "type": "event"
    },
    {
      "anonymous": false,
      "inputs": [
        {
          "indexed": false,
          "internalType": "uint64",
          "name": "version",
          "type": "uint64"
        }
      ],
      "name": "Initialized",
      "type": "event"
    },
    {
      "anonymous": false,
      "inputs": [
        {
          "indexed": true,
          "internalType": "bytes32",
          "name": "txId",
          "type": "bytes32"
        },
        {
          "indexed": true,
          "internalType": "address",
          "name": "recipient",
          "type": "address"
        },
        {
          "indexed": true,
          "internalType": "address",
          "name": "activator",
          "type": "address"
        }
      ],
      "name": "InternalMessageProcessed",
      "type": "event"
    },
    {
      "anonymous": false,
      "inputs": [
        {
          "indexed": true,
          "internalType": "bytes32",
          "name": "txId",
          "type": "bytes32"
        },
        {
          "indexed": true,
          "internalType": "address",
          "name": "oldLeader",
          "type": "address"
        },
        {
          "indexed": true,
          "internalType": "address",
          "name": "newLeader",
          "type": "address"
        }
      ],
      "name": "LeaderIdlenessProcessed",
      "type": "event"
    },
    {
      "anonymous": false,
      "inputs": [
        {
          "indexed": true,
          "internalType": "bytes32",
          "name": "txId",
          "type": "bytes32"
        },
        {
          "indexed": true,
          "internalType": "address",
          "name": "recipient",
          "type": "address"
        },
        {
          "indexed": true,
          "internalType": "address",
          "name": "activator",
          "type": "address"
        }
      ],
      "name": "NewTransaction",
      "type": "event"
    },
    {
      "anonymous": false,
      "inputs": [
        {
          "indexed": true,
          "internalType": "address",
          "name": "previousOwner",
          "type": "address"
        },
        {
          "indexed": true,
          "internalType": "address",
          "name": "newOwner",
          "type": "address"
        }
      ],
      "name": "OwnershipTransferStarted",
      "type": "event"
    },
    {
      "anonymous": false,
      "inputs": [
        {
          "indexed": true,
          "internalType": "address",
          "name": "previousOwner",
          "type": "address"
        },
        {
          "indexed": true,
          "internalType": "address",
          "name": "newOwner",
          "type": "address"
        }
      ],
      "name": "OwnershipTransferred",
      "type": "event"
    },
    {
      "anonymous": false,
      "inputs": [
        {
          "indexed": true,
          "internalType": "bytes32",
          "name": "txId",
          "type": "bytes32"
        }
      ],
      "name": "ProcessIdlenessAccepted",
      "type": "event"
    },
    {
      "anonymous": false,
      "inputs": [
        {
          "indexed": true,
          "internalType": "bytes32",
          "name": "txId",
          "type": "bytes32"
        }
      ],
      "name": "TransactionAccepted",
      "type": "event"
    },
    {
      "anonymous": false,
      "inputs": [
        {
          "indexed": true,
          "internalType": "bytes32",
          "name": "txId",
          "type": "bytes32"
        },
        {
          "indexed": true,
          "internalType": "address",
          "name": "leader",
          "type": "address"
        }
      ],
      "name": "TransactionActivated",
      "type": "event"
    },
    {
      "anonymous": false,
      "inputs": [
        {
          "indexed": true,
          "internalType": "bytes32",
          "name": "txId",
          "type": "bytes32"
        },
        {
          "indexed": true,
          "internalType": "address",
          "name": "cancelledBy",
          "type": "address"
        }
      ],
      "name": "TransactionCancelled",
      "type": "event"
    },
    {
      "anonymous": false,
      "inputs": [
        {
          "indexed": true,
          "internalType": "bytes32",
          "name": "txId",
          "type": "bytes32"
        }
      ],
      "name": "TransactionFinalizationFailed",
      "type": "event"
    },
    {
      "anonymous": false,
      "inputs": [
        {
          "indexed": true,
          "internalType": "bytes32",
          "name": "txId",
          "type": "bytes32"
        }
      ],
      "name": "TransactionFinalized",
      "type": "event"
    },
    {
      "anonymous": false,
      "inputs": [
        {
          "indexed": true,
          "internalType": "bytes32",
          "name": "txId",
          "type": "bytes32"
        }
      ],
      "name": "TransactionLeaderRevealed",
      "type": "event"
    },
    {
      "anonymous": false,
      "inputs": [
        {
          "indexed": true,
          "internalType": "bytes32",
          "name": "txId",
          "type": "bytes32"
        },
        {
          "indexed": true,
          "internalType": "address",
          "name": "newLeader",
          "type": "address"
        }
      ],
      "name": "TransactionLeaderRotated",
      "type": "event"
    },
    {
      "anonymous": false,
      "inputs": [
        {
          "indexed": true,
          "internalType": "bytes32",
          "name": "txId",
          "type": "bytes32"
        }
      ],
      "name": "TransactionLeaderTimeout",
      "type": "event"
    },
    {
      "anonymous": false,
      "inputs": [
        {
          "indexed": false,
          "internalType": "bytes32[]",
          "name": "txIds",
          "type": "bytes32[]"
        }
      ],
      "name": "TransactionNeedsRecomputation",
      "type": "event"
    },
    {
      "anonymous": false,
      "inputs": [
        {
          "indexed": true,
          "internalType": "bytes32",
          "name": "txId",
          "type": "bytes32"
        },
        {
          "indexed": false,
          "internalType": "address[]",
          "name": "validators",
          "type": "address[]"
        }
      ],
      "name": "TransactionReceiptProposed",
      "type": "event"
    },
    {
      "anonymous": false,
      "inputs": [
        {
          "indexed": true,
          "internalType": "bytes32",
          "name": "txId",
          "type": "bytes32"
        }
      ],
      "name": "TransactionUndetermined",
      "type": "event"
    },
    {
      "anonymous": false,
      "inputs": [
        {
          "indexed": true,
          "internalType": "bytes32",
          "name": "txId",
          "type": "bytes32"
        },
        {
          "indexed": false,
          "internalType": "uint256",
          "name": "tribunalIndex",
          "type": "uint256"
        },
        {
          "indexed": true,
          "internalType": "address",
          "name": "validator",
          "type": "address"
        }
      ],
      "name": "TribunalAppealVoteCommitted",
      "type": "event"
    },
    {
      "anonymous": false,
      "inputs": [
        {
          "indexed": true,
          "internalType": "bytes32",
          "name": "txId",
          "type": "bytes32"
        },
        {
          "indexed": false,
          "internalType": "uint256",
          "name": "tribunalIndex",
          "type": "uint256"
        },
        {
          "indexed": true,
          "internalType": "address",
          "name": "validator",
          "type": "address"
        },
        {
          "indexed": false,
          "internalType": "enum ITransactions.VoteType",
          "name": "voteType",
          "type": "uint8"
        }
      ],
      "name": "TribunalAppealVoteRevealed",
      "type": "event"
    },
    {
      "anonymous": false,
      "inputs": [
        {
          "indexed": true,
          "internalType": "bytes32",
          "name": "txId",
          "type": "bytes32"
        },
        {
          "indexed": false,
          "internalType": "address[]",
          "name": "recipients",
          "type": "address[]"
        },
        {
          "indexed": false,
          "internalType": "uint256[]",
          "name": "amounts",
          "type": "uint256[]"
        }
      ],
      "name": "UnifiedFeesDistributed",
      "type": "event"
    },
    {
      "anonymous": false,
      "inputs": [
        {
          "indexed": true,
          "internalType": "bytes32",
          "name": "txId",
          "type": "bytes32"
        },
        {
          "indexed": false,
          "internalType": "uint256",
          "name": "totalUnissuedValue",
          "type": "uint256"
        },
        {
          "indexed": false,
          "internalType": "uint256",
          "name": "unissuedCount",
          "type": "uint256"
        }
      ],
      "name": "UnissuedMessagesAtFinalization",
      "type": "event"
    },
    {
      "anonymous": false,
      "inputs": [
        {
          "indexed": true,
          "internalType": "bytes32",
          "name": "txId",
          "type": "bytes32"
        },
        {
          "indexed": true,
          "internalType": "address",
          "name": "oldValidator",
          "type": "address"
        },
        {
          "indexed": true,
          "internalType": "address",
          "name": "newValidator",
          "type": "address"
        },
        {
          "indexed": false,
          "internalType": "uint256",
          "name": "validatorIndex",
          "type": "uint256"
        }
      ],
      "name": "ValidatorReplaced",
      "type": "event"
    },
    {
      "anonymous": false,
      "inputs": [
        {
          "indexed": true,
          "internalType": "bytes32",
          "name": "txId",
          "type": "bytes32"
        },
        {
          "indexed": true,
          "internalType": "address",
          "name": "recipient",
          "type": "address"
        },
        {
          "indexed": false,
          "internalType": "uint256",
          "name": "value",
          "type": "uint256"
        }
      ],
      "name": "ValueWithdrawalFailed",
      "type": "event"
    },
    {
      "anonymous": false,
      "inputs": [
        {
          "indexed": true,
          "internalType": "bytes32",
          "name": "txId",
          "type": "bytes32"
        },
        {
          "indexed": true,
          "internalType": "address",
          "name": "validator",
          "type": "address"
        },
        {
          "indexed": false,
          "internalType": "bool",
          "name": "isLastVote",
          "type": "bool"
        }
      ],
      "name": "VoteCommitted",
      "type": "event"
    },
    {
      "anonymous": false,
      "inputs": [
        {
          "indexed": true,
          "internalType": "bytes32",
          "name": "txId",
          "type": "bytes32"
        },
        {
          "indexed": true,
          "internalType": "address",
          "name": "validator",
          "type": "address"
        },
        {
          "indexed": false,
          "internalType": "enum ITransactions.VoteType",
          "name": "voteType",
          "type": "uint8"
        },
        {
          "indexed": false,
          "internalType": "bool",
          "name": "isLastVote",
          "type": "bool"
        },
        {
          "indexed": false,
          "internalType": "enum ITransactions.ResultType",
          "name": "result",
          "type": "uint8"
        }
      ],
      "name": "VoteRevealed",
      "type": "event"
    },
    {
      "inputs": [],
      "name": "EVENTS_BATCH_SIZE",
      "outputs": [
        {
          "internalType": "uint256",
          "name": "",
          "type": "uint256"
        }
      ],
      "stateMutability": "view",
      "type": "function"
    },
    {
      "inputs": [],
      "name": "VERSION",
      "outputs": [
        {
          "internalType": "string",
          "name": "",
          "type": "string"
        }
      ],
      "stateMutability": "view",
      "type": "function"
    },
    {
      "inputs": [],
      "name": "acceptOwnership",
      "outputs": [],
      "stateMutability": "nonpayable",
      "type": "function"
    },
    {
      "inputs": [
        {
          "internalType": "bytes32",
          "name": "_txId",
          "type": "bytes32"
        },
        {
          "internalType": "address",
          "name": "_operator",
          "type": "address"
        },
        {
          "internalType": "bytes",
          "name": "_vrfProof",
          "type": "bytes"
        }
      ],
      "name": "activateTransaction",
      "outputs": [],
      "stateMutability": "nonpayable",
      "type": "function"
    },
    {
      "inputs": [
        {
          "internalType": "address",
          "name": "_sender",
          "type": "address"
        },
        {
          "internalType": "address",
          "name": "_recipient",
          "type": "address"
        },
        {
          "internalType": "uint256",
          "name": "_numOfInitialValidators",
          "type": "uint256"
        },
        {
          "internalType": "uint256",
          "name": "_maxRotations",
          "type": "uint256"
        },
        {
          "internalType": "bytes",
          "name": "_calldata",
          "type": "bytes"
        },
        {
          "components": [
            {
              "internalType": "uint256",
              "name": "leaderTimeoutFee",
              "type": "uint256"
            },
            {
              "internalType": "uint256",
              "name": "validatorsTimeoutFee",
              "type": "uint256"
            },
            {
              "internalType": "uint256",
              "name": "appealRounds",
              "type": "uint256"
            },
            {
              "internalType": "uint256",
              "name": "rollupUnifiedBudget",
              "type": "uint256"
            },
            {
              "internalType": "uint256",
              "name": "rollupUnifiedConsumed",
              "type": "uint256"
            },
            {
              "internalType": "uint256",
              "name": "totalMessageFees",
              "type": "uint256"
            },
            {
              "internalType": "uint256[]",
              "name": "rotations",
              "type": "uint256[]"
            }
          ],
          "internalType": "struct IFeeManager.FeesDistribution",
          "name": "_feesDistribution",
          "type": "tuple"
        },
        {
          "internalType": "uint256",
          "name": "_validUntil",
          "type": "uint256"
        }
      ],
      "name": "addTransaction",
      "outputs": [],
      "stateMutability": "payable",
      "type": "function"
    },
    {
      "inputs": [],
      "name": "addressManager",
      "outputs": [
        {
          "internalType": "contract IAddressManager",
          "name": "",
          "type": "address"
        }
      ],
      "stateMutability": "view",
      "type": "function"
    },
    {
      "inputs": [
        {
          "internalType": "bytes32",
          "name": "_txId",
          "type": "bytes32"
        }
      ],
      "name": "cancelTransaction",
      "outputs": [],
      "stateMutability": "nonpayable",
      "type": "function"
    },
    {
      "inputs": [
        {
          "internalType": "bytes32",
          "name": "_txId",
          "type": "bytes32"
        },
        {
          "internalType": "uint256",
          "name": "_tribunalIndex",
          "type": "uint256"
        },
        {
          "internalType": "bytes32",
          "name": "_commitHash",
          "type": "bytes32"
        }
      ],
      "name": "commitTribunalAppealVote",
      "outputs": [],
      "stateMutability": "nonpayable",
      "type": "function"
    },
    {
      "inputs": [
        {
          "internalType": "bytes32",
          "name": "_txId",
          "type": "bytes32"
        },
        {
          "internalType": "bytes32",
          "name": "_commitHash",
          "type": "bytes32"
        },
        {
          "internalType": "uint256",
          "name": "_validatorIndex",
          "type": "uint256"
        }
      ],
      "name": "commitVote",
      "outputs": [],
      "stateMutability": "nonpayable",
      "type": "function"
    },
    {
      "inputs": [
        {
          "internalType": "address",
          "name": "_sender",
          "type": "address"
        },
        {
          "internalType": "uint256",
          "name": "_numOfInitialValidators",
          "type": "uint256"
        },
        {
          "internalType": "uint256",
          "name": "_maxRotations",
          "type": "uint256"
        },
        {
          "internalType": "bytes",
          "name": "_calldata",
          "type": "bytes"
        },
        {
          "components": [
            {
              "internalType": "uint256",
              "name": "leaderTimeoutFee",
              "type": "uint256"
            },
            {
              "internalType": "uint256",
              "name": "validatorsTimeoutFee",
              "type": "uint256"
            },
            {
              "internalType": "uint256",
              "name": "appealRounds",
              "type": "uint256"
            },
            {
              "internalType": "uint256",
              "name": "rollupUnifiedBudget",
              "type": "uint256"
            },
            {
              "internalType": "uint256",
              "name": "rollupUnifiedConsumed",
              "type": "uint256"
            },
            {
              "internalType": "uint256",
              "name": "totalMessageFees",
              "type": "uint256"
            },
            {
              "internalType": "uint256[]",
              "name": "rotations",
              "type": "uint256[]"
            }
          ],
          "internalType": "struct IFeeManager.FeesDistribution",
          "name": "_feesDistribution",
          "type": "tuple"
        },
        {
          "internalType": "uint256",
          "name": "_saltNonce",
          "type": "uint256"
        },
        {
          "internalType": "uint256",
          "name": "_validUntil",
          "type": "uint256"
        }
      ],
      "name": "deploySalted",
      "outputs": [],
      "stateMutability": "payable",
      "type": "function"
    },
    {
      "inputs": [
        {
          "internalType": "address",
          "name": "_recipient",
          "type": "address"
        },
        {
          "internalType": "uint256",
          "name": "_value",
          "type": "uint256"
        },
        {
          "internalType": "bytes",
          "name": "_data",
          "type": "bytes"
        }
      ],
      "name": "executeMessage",
      "outputs": [
        {
          "internalType": "bool",
          "name": "success",
          "type": "bool"
        }
      ],
      "stateMutability": "nonpayable",
      "type": "function"
    },
    {
      "inputs": [
        {
          "internalType": "bytes32[]",
          "name": "_txIds",
          "type": "bytes32[]"
        }
      ],
      "name": "finalizeIdlenessTxs",
      "outputs": [],
      "stateMutability": "nonpayable",
      "type": "function"
    },
    {
      "inputs": [
        {
          "internalType": "bytes32",
          "name": "_txId",
          "type": "bytes32"
        }
      ],
      "name": "finalizeTransaction",
      "outputs": [],
      "stateMutability": "nonpayable",
      "type": "function"
    },
    {
      "inputs": [
        {
          "internalType": "bytes32",
          "name": "_txId",
          "type": "bytes32"
        }
      ],
      "name": "flushExternalMessages",
      "outputs": [],
      "stateMutability": "nonpayable",
      "type": "function"
    },
    {
      "inputs": [],
      "name": "getAddressManager",
      "outputs": [
        {
          "internalType": "contract IAddressManager",
          "name": "",
          "type": "address"
        }
      ],
      "stateMutability": "view",
      "type": "function"
    },
    {
      "inputs": [
        {
          "internalType": "bytes32",
          "name": "txId",
          "type": "bytes32"
        }
      ],
      "name": "getPendingTransactionValue",
      "outputs": [
        {
          "internalType": "uint256",
          "name": "",
          "type": "uint256"
        }
      ],
      "stateMutability": "view",
      "type": "function"
    },
    {
      "inputs": [
        {
          "internalType": "address",
          "name": "_addressManager",
          "type": "address"
        }
      ],
      "name": "initialize",
      "outputs": [],
      "stateMutability": "nonpayable",
      "type": "function"
    },
    {
      "inputs": [
        {
          "internalType": "address",
          "name": "addr",
          "type": "address"
        }
      ],
      "name": "isGhostContract",
      "outputs": [
        {
          "internalType": "bool",
          "name": "",
          "type": "bool"
        }
      ],
      "stateMutability": "view",
      "type": "function"
    },
    {
      "inputs": [
        {
          "internalType": "bytes32",
          "name": "_txId",
          "type": "bytes32"
        }
      ],
      "name": "leaderIdleness",
      "outputs": [],
      "stateMutability": "nonpayable",
      "type": "function"
    },
    {
      "inputs": [
        {
          "components": [
            {
              "internalType": "bytes32",
              "name": "txId",
              "type": "bytes32"
            },
            {
              "internalType": "uint256",
              "name": "saltAsAValidator",
              "type": "uint256"
            },
            {
              "internalType": "bytes32",
              "name": "txExecutionHash",
              "type": "bytes32"
            },
            {
              "internalType": "bytes32",
              "name": "messagesAndOtherFieldsHash",
              "type": "bytes32"
            },
            {
              "internalType": "bytes32",
              "name": "otherExecutionFieldsHash",
              "type": "bytes32"
            },
            {
              "internalType": "enum ITransactions.VoteType",
              "name": "resultValue",
              "type": "uint8"
            },
            {
              "components": [
                {
                  "internalType": "enum IMessages.MessageType",
                  "name": "messageType",
                  "type": "uint8"
                },
                {
                  "internalType": "address",
                  "name": "recipient",
                  "type": "address"
                },
                {
                  "internalType": "uint256",
                  "name": "value",
                  "type": "uint256"
                },
                {
                  "internalType": "bytes",
                  "name": "data",
                  "type": "bytes"
                },
                {
                  "internalType": "bool",
                  "name": "onAcceptance",
                  "type": "bool"
                },
                {
                  "internalType": "uint256",
                  "name": "saltNonce",
                  "type": "uint256"
                }
              ],
              "internalType": "struct IMessages.SubmittedMessage[]",
              "name": "messages",
              "type": "tuple[]"
            }
          ],
          "internalType": "struct IConsensusMainWithFees.LeaderRevealVoteParams",
          "name": "leaderRevealVoteParams",
          "type": "tuple"
        }
      ],
      "name": "leaderRevealVote",
      "outputs": [],
      "stateMutability": "nonpayable",
      "type": "function"
    },
    {
      "inputs": [],
      "name": "owner",
      "outputs": [
        {
          "internalType": "address",
          "name": "",
          "type": "address"
        }
      ],
      "stateMutability": "view",
      "type": "function"
    },
    {
      "inputs": [],
      "name": "pendingOwner",
      "outputs": [
        {
          "internalType": "address",
          "name": "",
          "type": "address"
        }
      ],
      "stateMutability": "view",
      "type": "function"
    },
    {
      "inputs": [
        {
          "internalType": "bytes32",
          "name": "_txId",
          "type": "bytes32"
        }
      ],
      "name": "processIdleness",
      "outputs": [],
      "stateMutability": "nonpayable",
      "type": "function"
    },
    {
      "inputs": [
        {
          "internalType": "bytes32",
          "name": "_txId",
          "type": "bytes32"
        },
        {
          "internalType": "bytes32",
          "name": "_txExecutionHash",
          "type": "bytes32"
        },
        {
          "internalType": "uint256",
          "name": "_processingBlock",
          "type": "uint256"
        },
        {
          "internalType": "uint256",
          "name": "_storageFeeUsed",
          "type": "uint256"
        },
        {
          "internalType": "address",
          "name": "_operator",
          "type": "address"
        },
        {
          "internalType": "bytes",
          "name": "_eqBlocksOutputs",
          "type": "bytes"
        },
        {
          "internalType": "bytes",
          "name": "_vrfProof",
          "type": "bytes"
        }
      ],
      "name": "proposeReceipt",
      "outputs": [],
      "stateMutability": "nonpayable",
      "type": "function"
    },
    {
      "inputs": [
        {
          "internalType": "address",
          "name": "ghost",
          "type": "address"
        }
      ],
      "name": "registerGhostContract",
      "outputs": [],
      "stateMutability": "nonpayable",
      "type": "function"
    },
    {
      "inputs": [],
      "name": "renounceOwnership",
      "outputs": [],
      "stateMutability": "nonpayable",
      "type": "function"
    },
    {
      "inputs": [
        {
          "internalType": "bytes32",
          "name": "_txId",
          "type": "bytes32"
        },
        {
          "internalType": "uint256",
          "name": "_tribunalIndex",
          "type": "uint256"
        },
        {
          "internalType": "bytes32",
          "name": "_voteHash",
          "type": "bytes32"
        },
        {
          "internalType": "enum ITransactions.VoteType",
          "name": "_voteType",
          "type": "uint8"
        },
        {
          "internalType": "bytes32",
          "name": "_otherExecutionFieldsHash",
          "type": "bytes32"
        },
        {
          "internalType": "uint256",
          "name": "_nonce",
          "type": "uint256"
        }
      ],
      "name": "revealTribunalAppealVote",
      "outputs": [],
      "stateMutability": "nonpayable",
      "type": "function"
    },
    {
      "inputs": [
        {
          "internalType": "bytes32",
          "name": "_txId",
          "type": "bytes32"
        },
        {
          "internalType": "bytes32",
          "name": "_voteHash",
          "type": "bytes32"
        },
        {
          "internalType": "enum ITransactions.VoteType",
          "name": "_voteType",
          "type": "uint8"
        },
        {
          "internalType": "bytes32",
          "name": "_otherExecutionFieldsHash",
          "type": "bytes32"
        },
        {
          "internalType": "uint256",
          "name": "_nonce",
          "type": "uint256"
        },
        {
          "internalType": "uint256",
          "name": "_validatorIndex",
          "type": "uint256"
        }
      ],
      "name": "revealVote",
      "outputs": [],
      "stateMutability": "nonpayable",
      "type": "function"
    },
    {
      "inputs": [
        {
          "internalType": "address",
          "name": "_addressManager",
          "type": "address"
        }
      ],
      "name": "setAddressManager",
      "outputs": [],
      "stateMutability": "nonpayable",
      "type": "function"
    },
    {
      "inputs": [
        {
          "internalType": "bytes32",
          "name": "_txId",
          "type": "bytes32"
        }
      ],
      "name": "submitAppeal",
      "outputs": [],
      "stateMutability": "payable",
      "type": "function"
    },
    {
      "inputs": [
        {
          "internalType": "bytes32",
          "name": "_txId",
          "type": "bytes32"
        },
        {
          "components": [
            {
              "internalType": "uint256",
              "name": "leaderTimeoutFee",
              "type": "uint256"
            },
            {
              "internalType": "uint256",
              "name": "validatorsTimeoutFee",
              "type": "uint256"
            },
            {
              "internalType": "uint256",
              "name": "appealRounds",
              "type": "uint256"
            },
            {
              "internalType": "uint256",
              "name": "rollupUnifiedBudget",
              "type": "uint256"
            },
            {
              "internalType": "uint256",
              "name": "rollupUnifiedConsumed",
              "type": "uint256"
            },
            {
              "internalType": "uint256",
              "name": "totalMessageFees",
              "type": "uint256"
            },
            {
              "internalType": "uint256[]",
              "name": "rotations",
              "type": "uint256[]"
            }
          ],
          "internalType": "struct IFeeManager.FeesDistribution",
          "name": "_feesDistribution",
          "type": "tuple"
        }
      ],
      "name": "topUpAndSubmitAppeal",
      "outputs": [],
      "stateMutability": "payable",
      "type": "function"
    },
    {
      "inputs": [
        {
          "internalType": "bytes32",
          "name": "_txId",
          "type": "bytes32"
        },
        {
          "components": [
            {
              "internalType": "uint256",
              "name": "leaderTimeoutFee",
              "type": "uint256"
            },
            {
              "internalType": "uint256",
              "name": "validatorsTimeoutFee",
              "type": "uint256"
            },
            {
              "internalType": "uint256",
              "name": "appealRounds",
              "type": "uint256"
            },
            {
              "internalType": "uint256",
              "name": "rollupUnifiedBudget",
              "type": "uint256"
            },
            {
              "internalType": "uint256",
              "name": "rollupUnifiedConsumed",
              "type": "uint256"
            },
            {
              "internalType": "uint256",
              "name": "totalMessageFees",
              "type": "uint256"
            },
            {
              "internalType": "uint256[]",
              "name": "rotations",
              "type": "uint256[]"
            }
          ],
          "internalType": "struct IFeeManager.FeesDistribution",
          "name": "_feesDistribution",
          "type": "tuple"
        }
      ],
      "name": "topUpFees",
      "outputs": [],
      "stateMutability": "payable",
      "type": "function"
    },
    {
      "inputs": [
        {
          "internalType": "address",
          "name": "newOwner",
          "type": "address"
        }
      ],
      "name": "transferOwnership",
      "outputs": [],
      "stateMutability": "nonpayable",
      "type": "function"
    },
    {
      "stateMutability": "payable",
      "type": "receive"
    }
  ],
  "bytecode": "0x6080806040523460d2577ff0c57e16840df040f15088dc2f81fe391c3923bec73e23a9662efc9c229c6a005460ff8160401c1660c1576002600160401b03196001600160401b03821601605c575b604051616fac90816100d88239f35b6001600160401b0319166001600160401b039081177ff0c57e16840df040f15088dc2f81fe391c3923bec73e23a9662efc9c229c6a005581527fc7f505b2f371ae2175ee4913f4499e1f2633a7b5936321eed1cdaeb6115181d290602090a13880604d565b63f92ee8a960e01b60005260046000fd5b600080fdfe608080604052600436101561001d575b50361561001b57600080fd5b005b600090813560e01c90816303d14917146123c2575080630652b57a1461235c578063103abeac146123405780631a759738146122c45780633ab76e9f1461225c5780633bd15f70146122835780635492f3021461225c5780635c970d281461211457806367f7c83a146120835780636a9c499d14611c6b57806370ba333914611ac6578063715018a614611a4557806379ba5097146119f757806385d2d274146119d45780638b5de1bc146118ad5780638da5cb5b146118775780639e0c615f146117c9578063a4d8908014611715578063a560cd0c146116cc578063aa923c0214611614578063b2efda8314611393578063b77ae9c2146111cf578063c4d66de814611020578063c7e6e76614610fe4578063cbc2440a14610ef9578063cf0a638414610e70578063d4f6aa9314610dbc578063dd6ed25614610a58578063e30c397814610a22578063e4c23d59146105cb578063f2fde38b14610543578063f5acca71146101e05763ffa1ad740361000f57346101dd57806003193601126101dd57506101d96040516101b3604082612ad6565b60058152640322e302e360dc1b6020820152604051918291602083526020830190612cee565b0390f35b80fd5b50346101dd5760203660031901126101dd576004356001600160401b03811161053f573660238201121561053f5780600401359061021d82612af7565b9161022b6040519384612ad6565b8083526024602084019160051b8301019136831161053b57602401905b82821061052b5750505061025a614993565b6102626159f4565b61026a614aa6565b8251928492909183918291906001600160a01b0316825b85518710156104de5761029d610297888861392d565b516165a2565b50506102a9878761392d565b51604051906102b782612a4e565b8152604051634377ca4160e11b8152905160048201526101408160248188875af18591816104ad575b5061032957506103206001916102f6898961392d565b517fd157a8824e3093207095e0855163da28b596e2c5f19ba73ea473c2346e05b15b8780a2614984565b965b0195610281565b909694610336868861392d565b5160405163255709e560e11b815260048101919091529085826024816001600160a01b0389165afa9182156104a25783888861042b95600197838e610426978594610472575b509161038c84926103929461392d565b51615a5d565b8c82898060a01b036103a2614b10565b1660246103af878561392d565b516040519687938492632367190d60e01b845260048401525af18c938161044d575b50610431575b90506103e492915061392d565b517f24196ec40f90671b7144e716978686b4f3c7d6b00b23da3971ef2b52af27d87f8980a26020858060a01b039101511661041f898b61392d565b5190615162565b614984565b94610322565b6104449361043e9161392d565b516162fa565b8838808c6103d7565b61046b9194508d3d8091833e6104638183612ad6565b8101906148e7565b92386103d1565b610392939192945061049861038c913d8089833e6104908183612ad6565b810190612f0e565b949291935061037c565b6040513d88823e3d90fd5b6104d09192506101403d81116104d7575b6104c88183612ad6565b81019061482a565b90386102e0565b503d6104be565b7f3d139c84ad9350b1f396f3d75cb0770c4f495459f8ef8755e5335a12632bac3d60608986938860405192835260208301526040820152a16001600080516020616eb78339815191525580f35b8135815260209182019101610248565b8480fd5b5080fd5b50346101dd5760203660031901126101dd5761055d612b0e565b610565614a70565b600080516020616f1783398151915280546001600160a01b0319166001600160a01b03928316908117909155600080516020616df7833981519152549091167f38d16b8cac22d99fc7c124b9cd0de2d3fa1faef420bfe791d8c362d765e227008380a380f35b5060e03660031901126101dd576105e0612b0e565b906024356064356001600160401b038111610a1e57610603903690600401612b8c565b926084356001600160401b038111610a1a57610623903690600401612bd7565b9060a43590610630614993565b8115610a0b576001600160a01b038116918215610a0557815b6001600160a01b03610659614b10565b16916040516327f4490760e11b81526060600482015260208180610680606482018b61445e565b8b60248301528c60448301520381875afa9081156109fa5789916109c3575b5034106109b45796978897906001600160a01b036106bb6153d6565b1691604051906106ca82612a84565b8782528a60208301526040820191600160a01b60019003861683526060810193338552608082019b8c5260a08201604435815260c0830191825260e0830193845260c435610100840152346101208401526040519c8d968796636dada77360e11b88526004880160209052600160a01b600190038651166024890152600160a01b600190036020870151166044890152600160a01b600190039051166064880152600160a01b6001900390511660848701525160a48601525160c48501525160e48401610140905261016484016107a091612cee565b915161010484015261010081015161012484015261012001516101448301520381345a9460a095f19586156109a9578796610925575b50855190823b156109215761080792889283604051809681958294630e5fbe8960e21b84528c3491600486016144d7565b03925af19081156104a257869161090c575b50506080840151156108e9578351606085015160408601516001600160a01b0390811692911690600080516020616e978339815191528880a45b9251926001600160a01b03610866614b10565b1691156108e157905b803b1561053b5761089c9385809460405196879586948593630e5fbe8960e21b85523491600486016144d7565b03925af180156108d6576108c1575b506001600080516020616eb78339815191525580f35b816108cb91612ad6565b6101dd5780386108ab565b6040513d84823e3d90fd5b50339061086f565b8351600080516020616ef7833981519152602080870151604051908152a2610853565b8161091691612ad6565b61053b578438610819565b8780fd5b90955060a0813d60a0116109a1575b8161094160a09383612ad6565b8101031261099d5761099160806040519261095b84612abb565b805184526020810151602085015261097560408201612de9565b604085015261098660608201612de9565b606085015201612ddc565b608082015294386107d6565b8680fd5b3d9150610934565b6040513d89823e3d90fd5b638d53e55360e01b8852600488fd5b90506020813d6020116109f2575b816109de60209383612ad6565b810103126109ed57513861069f565b600080fd5b3d91506109d1565b6040513d8b823e3d90fd5b33610649565b63aceab4a160e01b8552600485fd5b8380fd5b8280fd5b50346101dd57806003193601126101dd57600080516020616f17833981519152546040516001600160a01b039091168152602090f35b5060e03660031901126101dd57610a6d612b0e565b90610a76612b24565b604435906084356001600160401b038111610a1a57610a99903690600401612b8c565b60a4356001600160401b03811161053b57610ab8903690600401612bd7565b90610ac1614993565b6001600160a01b038616958615610db457905b6001600160a01b03610ae4614b10565b16936040516327f4490760e11b81526060600482015260208180610b0b606482018961445e565b8a60248301528b60448301520381895afa908115610da9578891610d77575b503410610d68579596949587956001600160a01b03610b476153d6565b169260405191610b5683612a84565b82526001600160a01b03928316602080840191825286851660408086019182523360608701908152608087019d8e526064803560a0890190815260c0890197885260e089018f815260c480356101008c01908152346101208d019081529651636dada77360e11b815260048101999099529a518c16602489015297518b16604488015294518a1691860191909152905190971660848401529b5160a4830152945191810191909152905161014060e48301529098899384939092610c1f90610164860190612cee565b925161010485015251610124840152516101448301520381345a9460a095f1948515610d5d578495610d13575b50845192803b1561053b57610c7d9385809460405196879586948593630e5fbe8960e21b85523491600486016144d7565b03925af180156108d657610cfe575b5050608081015115610cdb578051606082015160408301516001600160a01b0390811692911690600080516020616e978339815191528580a4506001600080516020616eb78339815191525580f35b8051600080516020616ef7833981519152602080840151604051908152a26108ab565b81610d0891612ad6565b61053f578138610c8c565b90945060a0813d60a011610d55575b81610d2f60a09383612ad6565b81010312610a1a57610d4960806040519261095b84612abb565b60808201529338610c4c565b3d9150610d22565b6040513d86823e3d90fd5b638d53e55360e01b8752600487fd5b90506020813d602011610da1575b81610d9260209383612ad6565b810103126109ed575138610b2a565b3d9150610d85565b6040513d8a823e3d90fd5b503390610ad4565b50346101dd5760603660031901126101dd57602435600435826001600160a01b03610de5616a3b565b16803b1561053f578180916084604051809481936311bdd61b60e11b835288600484015289602484015260443560448401523360648401525af180156108d657610e5b575b50506040519182527f6514dec7e5f5d7d0dcb8a6167531988b5ac3c442dffd89335942f1fbfa71dc5760203393a380f35b81610e6591612ad6565b610a1e578238610e2a565b50346101dd5760203660031901126101dd5780610e8b612b0e565b610e93614a70565b6001600160a01b03610ea36153d6565b1690813b15610ef5576040516333c298e160e21b81526001600160a01b0390911660048201529082908290602490829084905af180156108d657610ee45750f35b81610eee91612ad6565b6101dd5780f35b5050fd5b50346101dd5760c03660031901126101dd576024356004356064356005811015610a1a57836001600160a01b03610f2e616a3b565b16803b1561053f5781809160e46040518094819363db67487b60e01b83528960048401528a60248401526044356044840152610f6d606484018a612ebf565b608435608484015260a43560a48401523360c48401525af180156108d657610fcf575b5050610fa6906040519384526020840190612ebf565b7fb3a6dcf1e56feb92caee0711bfd92afd8d3676f66a059b62cc0e4ab5dc461bf860403393a380f35b81610fd991612ad6565b610a1a578338610f90565b50346101dd5760203660031901126101dd57610ffe614993565b6110096004356165a2565b50506001600080516020616eb78339815191525580f35b50346101dd5760203660031901126101dd5761103a612b0e565b600080516020616ed7833981519152549060ff8260401c1615916001600160401b038116801590816111c7575b60011490816111bd575b1590816111b4575b506111a55767ffffffffffffffff198116600117600080516020616ed78339815191525582611178575b506110ac616d88565b6110b4616d88565b6110bc616d88565b3315611164576110cb3361560a565b6110d3616d88565b6110db616d88565b6001600080516020616eb78339815191525582546001600160a01b0319166001600160a01b039190911617825561110f5780f35b60ff60401b19600080516020616ed78339815191525416600080516020616ed7833981519152557fc7f505b2f371ae2175ee4913f4499e1f2633a7b5936321eed1cdaeb6115181d2602060405160018152a180f35b631e4fbdf760e01b83526004839052602483fd5b68ffffffffffffffffff19166801000000000000000117600080516020616ed783398151915255386110a3565b63f92ee8a960e01b8452600484fd5b90501538611079565b303b159150611071565b849150611067565b506111d936612c9c565b6111e1614993565b826111eb83615820565b92969495919492906001600160a01b03611203614aa6565b1691823b15610a1a57611230928492838c6040519687958694859362e5a95360e71b8552600485016143b4565b03925af180156108d65761137e575b5060209161128591506001600160a01b03611258614b10565b1690896040518096819582946327011ecb60e11b84528d600485015260e0602485015260e484019061445e565b9034604484015233606484015283608484015289151560a484015260c483015203925af19081156104a2578691611340575b501561133157156112f557506001600160a01b031690600080516020616e378339815191528380a35b6001600080516020616eb78339815191525580f35b9190507f08e6523db104b48b6f1a359653498b9739ec31f6e03abb21e7acf4d73f0a48ff6040518061132933953483614417565b0390a36112e0565b6359ce6fdf60e11b8552600485fd5b90506020813d602011611376575b8161135b60209383612ad6565b810103126113725761136c90612ddc565b386112b7565b8580fd5b3d915061134e565b8161138891612ad6565b61099d57863861123f565b50346101dd5760203660031901126101dd57806004356113b1614993565b6101406001600160a01b036113c46159f4565b1660246040516113d381612a4e565b8481526040519687938492634377ca4160e11b84525160048401525af19283156108d65782936115f3575b5060c0830151611518575b909160249190836001600160a01b03611420614aa6565b166040519485809263255709e560e11b82528660048301525afa928315610d5d5784936114fc575b50611454838284615a5d565b83806001600160a01b03611466614b10565b16602460405180948193632367190d60e01b83528860048401525af180156114f1576112e09461149e9287926114d5575b50846162fa565b817f24196ec40f90671b7144e716978686b4f3c7d6b00b23da3971ef2b52af27d87f8580a2602001516001600160a01b0316615162565b6114ea9192503d8089833e6104638183612ad6565b9038611497565b6040513d87823e3d90fd5b6115119193503d8086833e6104908183612ad6565b9138611448565b61012083018051600f8110156115cb5760051480156115df575b156115585750819281600080516020616e1783398151915284602495a25b929150611409565b8051600f8110156115cb57600d036115875750819281600080516020616e7783398151915284602495a2611550565b5192600f8410156115b7576006839460249450036115505781600080516020616db78339815191528580a2611550565b634e487b7160e01b83526021600452602483fd5b634e487b7160e01b84526021600452602484fd5b508051600f8110156115cb57600c14611532565b61160d9193506101403d81116104d7576104c88183612ad6565b91386113fe565b50346101dd5760203660031901126101dd5761162e612b0e565b9060206001600160a01b036116416153d6565b6040516355491e0160e11b81526001600160a01b03909516600486015284916024918391165afa9081156116c0578091611683575b6020826040519015158152f35b90506020823d6020116116b8575b8161169e60209383612ad6565b810103126101dd57506116b2602091612ddc565b38611676565b3d9150611691565b604051903d90823e3d90fd5b50346101dd5760603660031901126101dd576116e6612b24565b604435906001600160401b038211610a1e57611709611712923690600401612baa565b91600435614512565b80f35b5061171f36612c9c565b61172a929192614993565b34156117ba5790918291906001600160a01b03611745614b10565b1691823b156117b55761177e92849283604051809681958294630e5fbe8960e21b8452600484015260a0602484015260a483019061445e565b3460448301526001606483015233608483015203925af180156108d6576108c157506001600080516020616eb78339815191525580f35b505050fd5b638d53e55360e01b8252600482fd5b50346101dd5760603660031901126101dd576117e3612b0e565b906044356001600160401b03811161053f57611803903690600401612b8c565b916001600160a01b0361181461543b565b1633141580611855575b611846578282916020809551920190602435905af161183b61442e565b506040519015158152f35b630fc7a3f360e31b8252600482fd5b50600080516020616df7833981519152546001600160a01b031633141561181e565b50346101dd57806003193601126101dd57600080516020616df7833981519152546040516001600160a01b039091168152602090f35b5060203660031901126101dd576004356118c5614993565b816118cf82615820565b929591939192906001600160a01b036118e6614aa6565b1691823b1561053b57611913928592838b6040519687958694859362e5a95360e71b8552600485016143b4565b03925af19081156119c95783916119b4575b50602091905060846001600160a01b0361193d614b10565b1691604051948593849263d38f5c3560e01b84528b600485015260248401523460448401523360648401525af19081156104a257869161134057501561133157156112f557506001600160a01b031690600080516020616e378339815191528380a36001600080516020616eb78339815191525580f35b816119be91612ad6565b61053f578138611925565b6040513d85823e3d90fd5b50346101dd5760603660031901126101dd57611712604435602435600435614025565b50346101dd57806003193601126101dd57600080516020616f1783398151915254336001600160a01b0390911603611a32576117123361560a565b63118cdaa760e01b815233600452602490fd5b50346101dd57806003193601126101dd57611a5e614a70565b600080516020616f1783398151915280546001600160a01b0319908116909155600080516020616df78339815191528054918216905581906001600160a01b03167f8be0079c531659141344cd1fd0a4f28419497f9722a3daafe3b4186f6b6457e08280a380f35b50346101dd5760203660031901126101dd57600435611ae3614993565b611aeb6153d6565b906024836001600160a01b03611aff614aa6565b166040519283809263255709e560e11b82528660048301525afa908115610d5d578491611c51575b5060c0810151604051632838322d60e01b815260048101849052336024820152936001600160a01b039182169291606091869160449183918a91165af19384156114f1578594611be9575b5092826112e094604051903383600080516020616e578339815191528a80a36040840151151580611bdc575b611bac575b50505050615162565b60a0015160209384015182526001600160a01b031692600080516020616dd783398151915291a338828180611ba3565b5060208401511515611b9e565b93506060843d606011611c49575b81611c0460609383612ad6565b8101031261053b57826112e094611c3d6040805192611c2284612a69565b611c2b81612de9565b84526020810151602085015201612ddc565b60408201529450611b72565b3d9150611bf7565b611c6591503d8086833e6104908183612ad6565b38611b27565b50346101dd5760203660031901126101dd5760043590611c89614993565b6024611c93614aa6565b92611c9c61543b565b83611ca561549b565b60405163255709e560e11b81526004810185905290969094859182906001600160a01b03165afa928315610d5d578493612067575b506060830151600f81101561205357600619016120445760405163404f7db760e01b8152600481018390526001600160a01b03919091169290602081602481875afa9081156114f157859161200a575b50611ef9575b839460405163aa14aa7360e01b8152836004820152602081602481885afa9081156104a2578691611ebf575b50611dab575b5060c001516001600160a01b0316823b156117b5576040516338444e0560e01b815260048101929092526001600160a01b0316602482015290829082908183816044810161089c565b60c082015160405163165a3c0560e21b8152600481018590526001600160a01b039182166024820181905260448201889052929091602091839160649183918b91165af19081156104a2578691611e8a575b5080611e0a575b50611d62565b813b1561137257604051635b8346e560e11b815284919087808280611e33863060048401614c87565b038183895af19182611e6f575b5050611e67576020600080516020616dd783398151915291604051908152a35b3880611e04565b505050611e60565b8192945090611e7d91612ad6565b61099d5784918738611e40565b9550506020853d602011611eb7575b81611ea660209383612ad6565b810103126109ed5785945138611dfd565b3d9150611e99565b90506020813d602011611ef1575b81611eda60209383612ad6565b8101031261137257611eeb90612ddc565b38611d5c565b3d9150611ecd565b60c081015160405163165a3c0560e21b8152600481018490526001600160a01b039182166024820181905260016044830152909691602090889060649082908a9087165af19687156104a2578697611fd6575b5086611f5b575b509450611d30565b803b1561137257604051635b8346e560e11b8152868180611f808b3060048401614c87565b038183865af19081611fc2575b508697859115600014611fba576020600080516020616dd783398151915291604051908152a35b38611f53565b505050611fb4565b96611fcf81879399612ad6565b9690611f8d565b9096506020813d602011612002575b81611ff260209383612ad6565b8101031261137257519538611f4c565b3d9150611fe5565b90506020813d60201161203c575b8161202560209383612ad6565b8101031261053b5761203690612ddc565b38611d2a565b3d9150612018565b63e4e81f7960e01b8452600484fd5b634e487b7160e01b85526021600452602485fd5b61207c9193503d8086833e6104908183612ad6565b9138611cda565b50346101dd5760203660031901126101dd57602460206001600160a01b036120a96153d6565b16604051928380926333fbe41d60e11b825260043560048301525afa9081156108d65782916120de575b602082604051908152f35b90506020813d60201161210c575b816120f960209383612ad6565b8101031261053f576020915051386120d3565b3d91506120ec565b50346101dd5760203660031901126101dd5780600435816001600160a01b0361213b615371565b16602460405161214a81612a4e565b84815260405195869384926323d783ed60e11b84525160048401525af19182156119c9578392612238575b5060608201516001600160a01b03169081151580612222575b6121d3575b5050815b60a082015180518210156121cf57816121b460a09360019361392d565b51600080516020616db78339815191528680a2019050612197565b8380f35b60808301516001600160a01b0316918290827f1c717affb0f2d0bd7bccd509af90bc762d34bc45ad812ef154a3f5efdae1ca6b8780a4600080516020616f578339815191528480a33880612193565b5060808301516001600160a01b0316151561218e565b6122559192503d8085833e61224d8183612ad6565b810190613f49565b9038612175565b50346101dd57806003193601126101dd57546040516001600160a01b039091168152602090f35b50346101dd5760c03660031901126101dd57604435600581101561053f576112e0906122ad614993565b60a435906084359060643590602435600435613957565b50346101dd5760e03660031901126101dd576084356001600160a01b038116810361053f5760a4356001600160401b038111610a1e57612308903690600401612baa565b9160c435926001600160401b03841161053b5761232c611712943690600401612baa565b939092606435604435602435600435613191565b50346101dd57806003193601126101dd57602060405160648152f35b50346101dd5760203660031901126101dd57612376612b0e565b61237e614a70565b81546001600160a01b0319166001600160a01b039190911690811782557f2e967678ac371453fc8babb3af60134332176ca4334ac0032e7b2a655c72e5a98280a280f35b82346101dd5760203660031901126101dd57600435916001600160401b03831161053f5760e0600319843603011261053f576123fd816129e6565b82600401358152602081019060248401358252604081019360448101358552606082019060648101358252608083016084820135815260a482013591600583101561099d5760a0850192835260c4810135906001600160401b0382116109215701963660238901121561099d57600488013561247881612af7565b986124866040519a8b612ad6565b818a5260206004818c019360051b83010101903682116129e25760248101925b828410612923575050505060c085019788526124c0614993565b875182516124f660405180926124e26020830195604087526060840190612d13565b90604083015203601f198101835282612ad6565b519020845103612914576001600160a01b036125106149cf565b16928551915192519451965190519860058a10156129005788998997989993926125c56125e99351926040519561254687612a32565b86526020860197885260408601998a52606086019c8d526080860192835261257260a087019182612dd0565b60c086019233845260e087019485526040519d8e9b8c9a8b9963bfcc725760e01b8b52602060048c01525160248b01525160448a01525160648901525160848801525160a48701525160c4860190612ebf565b516001600160a01b031660e484015251610100610104840152610124830190612d13565b03925af19182156119c957839261280f575b50606082015190600f8210156115cb57519060e060018060a01b0360208501511693015190600d811480612808575b1561265a5750509050600080516020616e778339815191528280a26001600080516020616eb78339815191525580f35b6006810361267d5750509050600080516020616db78339815191528280a26112e0565b6002810361269e575050600080516020616f578339815191528380a36112e0565b919250906004036126d357507f17aad8cee7fa654be58106f05c4040122273bad66e94979ffbb9f7ecccc68c5e8280a26112e0565b805160641061270b57612703600080516020616f37833981519152916040519182916020835260208301906143da565b0390a26112e0565b9190815b8351808210156127fe5761272582606492613161565b10156127f757612736818551613161565b61273f81612af7565b9061274d6040519283612ad6565b808252601f1961275c82612af7565b01366020840137845b8181106127ba575050600080516020616f3783398151915261279684926040519182916020835260208301906143da565b0390a2606481018091111561270f575b634e487b7160e01b83526011600452602483fd5b929591929091906001906001600160a01b036127df6127d9838b613184565b8561392d565b51166127eb828761392d565b52019592919095612765565b6064612736565b50505090506112e0565b508461262a565b9091503d8084833e6128218183612ad6565b810190602081830312610a1a578051906001600160401b03821161053b570161010081830312610a1a576040519161285883612a32565b61286182612ddc565b835261286f60208301612de9565b6020840152604082015160408401526060820151600f81101561137257606084015260808201516001600160401b03811161137257816128b0918401612dfd565b60808401526128c160a08301612ddc565b60a08401526128d260c08301612de9565b60c084015260e08201516001600160401b038111611372576128f49201612e5a565b60e082015290836125fb565b634e487b7160e01b89526021600452602489fd5b63496189f760e11b8752600487fd5b83356001600160401b0381116129de5760049083010160c0601f1982360301126129de576040519061295482612a17565b602081013560028110156129da57825260408101356001600160a01b03811681036129da5760208301526060810135604083015260808101356001600160401b0381116129da576129ab9060203691840101612b8c565b606083015260a081013580151581036129da57608083015260c0013560a08201528152602093840193016124a6565b8d80fd5b8b80fd5b8980fd5b60e081019081106001600160401b03821117612a0157604052565b634e487b7160e01b600052604160045260246000fd5b60c081019081106001600160401b03821117612a0157604052565b61010081019081106001600160401b03821117612a0157604052565b602081019081106001600160401b03821117612a0157604052565b606081019081106001600160401b03821117612a0157604052565b61014081019081106001600160401b03821117612a0157604052565b608081019081106001600160401b03821117612a0157604052565b60a081019081106001600160401b03821117612a0157604052565b90601f801991011681019081106001600160401b03821117612a0157604052565b6001600160401b038111612a015760051b60200190565b600435906001600160a01b03821682036109ed57565b602435906001600160a01b03821682036109ed57565b6001600160401b038111612a0157601f01601f191660200190565b929192612b6182612b3a565b91612b6f6040519384612ad6565b8294818452818301116109ed578281602093846000960137010152565b9080601f830112156109ed57816020612ba793359101612b55565b90565b9181601f840112156109ed578235916001600160401b0383116109ed57602083818601950101116109ed57565b919060e0838203126109ed57604051612bef816129e6565b8093803582526020810135602083015260408101356040830152606081013560608301526080810135608083015260a081013560a083015260c0810135906001600160401b0382116109ed57019180601f840112156109ed578235612c5381612af7565b93612c616040519586612ad6565b81855260208086019260051b8201019283116109ed57602001905b828210612c8c5750505060c00152565b8135815260209182019101612c7c565b9060406003198301126109ed5760043591602435906001600160401b0382116109ed57612ba791600401612bd7565b60005b838110612cde5750506000910152565b8181015183820152602001612cce565b90602091612d0781518092818552858086019101612ccb565b601f01601f1916010190565b9080602083519182815201906020808260051b8501019401926000905b828210612d3f57505050505090565b9091929394601f1982820301855285519081516002811015612dba576001928260209392849352848060a01b038383015116838201526040820151604082015260a080612d9b606085015160c0606086015260c0850190612cee565b6080808601511515908501529301519101529701950193920190612d30565b634e487b7160e01b600052602160045260246000fd5b6005821015612dba5752565b519081151582036109ed57565b51906001600160a01b03821682036109ed57565b9080601f830112156109ed578151612e1481612af7565b92612e226040519485612ad6565b81845260208085019260051b8201019283116109ed57602001905b828210612e4a5750505090565b8151815260209182019101612e3d565b9080601f830112156109ed578151612e7181612af7565b92612e7f6040519485612ad6565b81845260208085019260051b8201019283116109ed57602001905b828210612ea75750505090565b60208091612eb484612de9565b815201910190612e9a565b906005821015612dba5752565b81601f820112156109ed578051612ee281612b3a565b92612ef06040519485612ad6565b818452602082840101116109ed57612ba79160208085019101612ccb565b6020818303126109ed578051906001600160401b0382116109ed57016102e0818303126109ed57604051916102e083018381106001600160401b03821117612a0157604052815160068110156109ed578352602082015160058110156109ed5760208401526040820151600f8110156109ed5760408401526060820151600f8110156109ed576060840152612fa560808301612de9565b6080840152612fb660a08301612de9565b60a0840152612fc760c08301612de9565b60c0840152612fd860e08301612de9565b60e08401526101008201516101008401526101208201516101208401526101408201516101408401526101608201516101608401526101808201516101808401526101a08201516101a08401526101c08201516101c08401526101e08201516101e08401526102008201516001600160401b0381116109ed578161305d918401612ecc565b6102008401526102208201516001600160401b0381116109ed5781613083918401612ecc565b6102208401526102408201516001600160401b0381116109ed57820181601f820112156109ed578051906130b682612af7565b926130c46040519485612ad6565b828452602060608186019402830101918183116109ed57602001925b8284106131255750505050906102c0916102408401526102608101516102608401526102808101516102808401526102a08101516102a084015201516102c082015290565b6060848303126109ed57602060609160405161314081612a69565b865181528287015183820152604087015160408201528152019301926130e0565b9190820391821161316e57565b634e487b7160e01b600052601160045260246000fd5b9190820180921161316e57565b9593969490919897606493600096602060018060a01b0389541660405197888092631bae711d60e21b8252846004830152600d60248301526c50726f706f73616c506861736560981b60448301525afa958615610da95788966138c3575b50918798999a9b918894936040519461320786612a32565b8c86526020860197885233604087019081526001600160a01b03909e16606087019081526080870195865260a087019384529d9961324791369190612b55565b9260c08601938452369061325a92612b55565b60e0850190815260405163fa319c6560e01b815260206004820152945160248601529551604485015296516001600160a01b0390811660648501529a51909a1660848301525160a4820152935160c4850152965161010060e485015292968793849283916132cd90610124840190612cee565b9051828203602319016101048401526132e69190612cee565b03926001600160a01b03165af19283156138b65781936137b7575b5060e0830151613791575b82511561377b578060408401918251600f8110156115b757600c19016135d6575b6001600160a01b0361333d614b10565b1660a0860151906080870151928551600f8110156135c257823b15611372578580949360c493600d8b94604051998a98899763b5b00f6b60e01b895260048901526024880152336044880152606487015214608485015260a48401525af180156108d6576135b2575b509051600f81101561359e5761012084015115159060c060018060a01b0360608701511695015191600d82149081613596575b50156133f8575050600080516020616e7783398151915291925080a25b565b60068103613418575050600080516020616db783398151915291925080a2565b6002810361343657505080600080516020616f5783398151915291a3565b92935091600403613468577f17aad8cee7fa654be58106f05c4040122273bad66e94979ffbb9f7ecccc68c5e915080a2565b815160641061349e5750613499600080516020616f37833981519152916040519182916020835260208301906143da565b0390a2565b9190825b81518082101561358f576134b882606492613161565b1015613587576134c9818351613161565b83905b6134d581612af7565b906134e36040519283612ad6565b808252601f196134f282612af7565b01366020840137865b81811061354e57505061352b600080516020616f37833981519152916040519182916020835260208301906143da565b0390a260648101809111156134a257634e487b7160e01b84526011600452602484fd5b919250906001906001600160a01b0361357061356a8388613184565b8861392d565b511661357c828661392d565b5201908592916134fb565b8260646134cc565b5050505050565b9050386133d9565b634e487b7160e01b82526021600452602482fd5b816135bc91612ad6565b386133a6565b634e487b7160e01b86526021600452602486fd5b506024816001600160a01b036135ea614aa6565b166040519283809263255709e560e11b82528860048301525afa9081156108d657906102a0918391613761575b500151607f1936013681116127a65781810291818304149015171561374d57602481836001600160a01b0361364a614b10565b1660405193848092635b3c669b60e01b82528a60048301525afa918215610d5d57849261369b575b506136836060916080840151613184565b910151101561332d576377ebef4d60e01b8252600482fd5b9091503d8085833e6136ad8183612ad6565b81019060208183031261053b578051906001600160401b03821161137257019060e08282031261053b57604051916136e4836129e6565b805183526020810151602084015260408101516040840152606081015160608401526080810151608084015260a081015160a084015260c0810151906001600160401b03821161099d5761368392606094926137409201612dfd565b60c0820152929150613672565b634e487b7160e01b82526011600452602482fd5b61377591503d8085833e6104908183612ad6565b38613617565b600080516020616db783398151915291925080a2565b60608301516001600160a01b031682600080516020616f578339815191528380a361330c565b9092503d8084833e6137c98183612ad6565b810190602081830312610a1a578051906001600160401b03821161053b570161014081830312610a1a576040519161380083612a84565b61380982612ddc565b835261381760208301612de9565b60208401526040820151600f81101561137257604084015261383b60608301612de9565b60608401526080820151608084015260a082015160a084015260c08201516001600160401b038111611372579161387a610120926138a9948301612e5a565b60c085015261388b60e08201612ddc565b60e085015261389d6101008201612de9565b61010085015201612ddc565b6101208201529138613301565b50604051903d90823e3d90fd5b9095506020813d602011613908575b816138df60209383612ad6565b8101031261092157918798999a9b916138f9899594612de9565b9691939450919b9a99986131ef565b3d91506138d2565b6005811015612dba5760f81b9052565b906006821015612dba5752565b80518210156139415760209160051b010190565b634e487b7160e01b600052603260045260246000fd5b9381909592939560405160208101913360601b83526139796034830188613910565b886035830152605582015260558152613993607582612ad6565b51902003613f385760009160c490836001600160a01b036139b26149cf565b169760405160208101916139c6838a613910565b6021820152602181526139da604182612ad6565b51902097604051926139eb84612a17565b8884526020840195865260408401998a5260608401613a0a8982612dd0565b613a4b608086019133835260a087019384526040519c8d998a986320e3d24360e11b8a525160048a0152516024890152516044880152516064870190612ebf565b516001600160a01b031660848501525160a48401525af1928315613d3957600093613d5d575b50825115613d45576001600160a01b03613a89614b10565b169060a08401516020850191825115159160408701948551926006841015612dba57600060c492613af6602096613aec8c956040519a8b998a9863015e82ff60e61b8a5260048a0152602489015233604489015260648801526084870190612ebf565b60a4850190613920565b5af1908115613d3957600091613cff575b508151613b84575b5061016060018060a01b0361012086015116940151906005821015612dba575115159151906006821015612dba57613b816060927f14d4bda97d7d28622aa0ad6e4d069bb9215b9e2346ecbdf2313b04121da0b68a94613b726040518095612ebf565b60208401526040830190613920565ba3565b60e0850190815190815115159081613cf7575b5015613c445750610100850151604051906020820160208352815180915260206040840192019060005b818110613c2e5750505090807f9c4bf38aa77ce1103eb348ff99a695363c0b42ab316945b0e19906310f2146a2920390a15160408101516020909101516001600160a01b0391613c11919061392d565b511683600080516020616e37833981519152600080a35b38613b0f565b8251845260209384019390920191600101613bc1565b61018086015190915015613cad575082600080516020616e17833981519152600080a26101c0840151613c90575b6060840151613c8b9084906001600160a01b0316615162565b613c28565b6060840151613ca8906001600160a01b031684614ca2565b613c72565b60c0850151613cbd575b50613c28565b60408101516020909101516001600160a01b0391613cdb919061392d565b511683600080516020616f57833981519152600080a338613cb7565b905038613b97565b90506020813d602011613d31575b81613d1a60209383612ad6565b810103126109ed57613d2b90612ddc565b38613b07565b3d9150613d0d565b6040513d6000823e3d90fd5b509050600080516020616db7833981519152600080a2565b90923d8082843e613d6e8184612ad6565b82019160208184031261053f578051906001600160401b038211610a1e5701906101e0828403126101dd57604051926101e084018481106001600160401b03821117613f2457604052613dc083612ddc565b8452613dce60208401612ddc565b602085015260408301516006811015610a1e576040850152613df260608401612de9565b6060850152613e0360808401612de9565b608085015260a083015160a0850152613e1e60c08401612ddc565b60c085015260e08301516001600160401b038111610a1e578301606081830312610a1e5760405190613e4f82612a69565b80518252602081015160208301526040810151906001600160401b03821161053b57613e7d91849101612e5a565b604082015260e08501526101008301516001600160401b038111610a1e5790613ea7918401612dfd565b610100840152613eba6101208301612de9565b6101208401526101408201516101408401526101608201519060058210156101dd5750613f17916101c091610160850152613ef86101808201612ddc565b610180850152613f0b6101a08201612ddc565b6101a085015201612ddc565b6101c08201529138613a71565b634e487b7160e01b83526041600452602483fd5b636aee863360e11b60005260046000fd5b6020818303126109ed578051906001600160401b0382116109ed570160e0818303126109ed5760405191613f7c836129e6565b8151600f8110156109ed5783526020820151600f8110156109ed576020840152613fa860408301612de9565b6040840152613fb960608301612de9565b6060840152613fca60808301612de9565b608084015260a08201516001600160401b0381116109ed5781613fee918401612dfd565b60a084015260c08201516001600160401b0381116109ed576140109201612dfd565b60c082015290565b90600f821015612dba5752565b9190606490602060018060a01b036000541660405193848092631bae711d60e21b8252846004830152600f60248301526e436f6d6d697474696e67506861736560881b60448301525afa918215613d3957600092614375575b506084600092836040519161409283612aa0565b87835260208301948552336040808501918252606085019889525162dab60b60e71b8152935160048501529451602484015293516001600160a01b0390811660448401529551606483015290948593849291165af1908115613d3957600091614237575b506101208101516141e3575b6101008101516141c0578051156141bc5760018060a01b0360a0820151166020820190837fc5dd23f5cc17858ca1e3d0f06cbcc78820753b0dd2fea89d03d0d842192c1531602084511515604051908152a3511515806141a6575b614165575050565b60e00151600f811015612dba5760207fb61dd9b213508bbd8e6c89d7c254d830e0ed7e8cd5bd4163a167a47b12e46e81916141a36040518092614018565ba2565b5060e0810151600f811015612dba57151561415d565b5050565b604001516001600160a01b031690600080516020616f57833981519152600080a3565b61014081015161016082015160c08301516040519081526001600160a01b03918216929091169084907fb9adb9860846c6726d973e93f6d5994ba6aa797233e2d15851d42e9c68a5dd7290602090a4614102565b903d8082843e6142478184612ad6565b82019160208184031261053f578051906001600160401b038211610a1e570190610180828403126101dd576040519261018084018481106001600160401b03821117613f245760405261429983612ddc565b84526142a760208401612ddc565b60208501526142b860408401612de9565b60408501526142c960608401612de9565b606085015260808301516001600160401b038111610a1e57906142ed918401612dfd565b60808401526142fe60a08301612de9565b60a084015260c082015160c084015260e082015190600f8210156101dd5750614369916101609160e08501526143376101008201612ddc565b61010085015261434a6101208201612ddc565b61012085015261435d6101408201612de9565b61014085015201612de9565b610160820152386140f6565b91506020823d6020116143ac575b8161439060209383612ad6565b810103126109ed5760846143a5600093612de9565b925061407e565b3d9150614383565b6040906143d36133f69496959396606083019783526020830190614018565b0190614018565b906020808351928381520192019060005b8181106143f85750505090565b82516001600160a01b03168452602093840193909201916001016143eb565b604090612ba79392815281602082015201906143da565b3d15614459573d9061443f82612b3a565b9161444d6040519384612ad6565b82523d6000602084013e565b606090565b602061010060c060e085019380518652838101518487015260408101516040870152606081015160608701526080810151608087015260a081015160a087015201519360e060c082015284518094520192019060005b8181106144c15750505090565b82518452602093840193909201916001016144b4565b929493906080926144f591855260a0602086015260a085019061445e565b6040840195909552600060608401526001600160a01b0316910152565b92606491602060018060a01b036000541660405194858092631bae711d60e21b8252846004830152600f60248301526e41637469766174696f6e506861736560881b60448301525afa908115613d39576000916147ee575b60008094506145a06040519661457f88612aa0565b888852602088019360018060a01b0316845260408801953387523691612b55565b606087019081526040516320ffefc560e01b8152602060048201529651602488015291516001600160a01b0390811660448801529351909316606486015251608060848601528492839182906145fa9060a4830190612cee565b03926001600160a01b03165af1908115613d39576000916146d9575b5060a0810151614697575b602081015161466b578051156146555761010001516001600160a01b031690600080516020616e37833981519152600080a3565b50600080516020616db7833981519152600080a2565b906133f691600082600080516020616e578339815191528280a3604001516001600160a01b0316615162565b60c081015160e08201516001600160a01b039081169116837ff7861b60d3b514908b00c1461e500857f819123764586496fcddba2eb034c94c600080a4614621565b3d8083833e6146e88183612ad6565b810190602081830312610a1e578051906001600160401b038211610a1a57019061012082820312610a1e576040519261012084018481106001600160401b038211176147da5760405261473a83612ddc565b845261474860208401612ddc565b602085015261475960408401612de9565b6040850152606083015160608501526080830151906001600160401b0382116101dd575091614790610100926147ce948301612e5a565b60808501526147a160a08201612ddc565b60a08501526147b260c08201612de9565b60c08501526147c360e08201612de9565b60e085015201612de9565b61010082015238614616565b634e487b7160e01b82526041600452602482fd5b90506020833d602011614822575b8161480960209383612ad6565b810103126109ed5761481c600093612de9565b9061456a565b3d91506147fc565b90816101409103126109ed5760006040519161484583612a84565b61484e81612ddc565b835261485c60208201612de9565b6020840152604081015160408401526060810151606084015261488160808201612ddc565b608084015261489260a08201612ddc565b60a08401526148a360c08201612ddc565b60c08401526148b460e08201612ddc565b60e0840152610100810151600f811015610a1e57610100840152610120015190600f8210156101dd575061012082015290565b6020818303126109ed578051906001600160401b0382116109ed57019060a0828203126109ed576040519161491b83612abb565b61492481612de9565b83526020810151602084015260408101516001600160401b0381116109ed578261494f918301612e5a565b604084015260608101516001600160401b0381116109ed57608092614975918301612dfd565b60608401520151608082015290565b600019811461316e5760010190565b6002600080516020616eb783398151915254146149be576002600080516020616eb783398151915255565b633ee5aeb560e01b60005260046000fd5b600054604051631bae711d60e21b8152602060048201819052600e60248301526d52657665616c696e67506861736560901b60448301529091829060649082906001600160a01b03165afa908115613d3957600091614a36575b506001600160a01b031690565b90506020813d602011614a68575b81614a5160209383612ad6565b810103126109ed57614a6290612de9565b38614a29565b3d9150614a44565b600080516020616df7833981519152546001600160a01b03163303614a9157565b63118cdaa760e01b6000523360045260246000fd5b600054604051631bae711d60e21b815260206004820181905260126024830152712a3930b739b0b1ba34b7b726b0b730b3b2b960711b60448301529091829060649082906001600160a01b03165afa908115613d3957600091614a3657506001600160a01b031690565b600054604051631bae711d60e21b8152602060048201819052600a6024830152692332b2a6b0b730b3b2b960b11b60448301529091829060649082906001600160a01b03165afa908115613d3957600091614a3657506001600160a01b031690565b6020818303126109ed578051906001600160401b0382116109ed570181601f820112156109ed57805190614ba582612af7565b92614bb36040519485612ad6565b82845260208085019360051b830101918183116109ed5760208101935b838510614bdf57505050505090565b84516001600160401b0381116109ed57820160c0818503601f1901126109ed5760405191614c0c83612a17565b602082015160028110156109ed578352614c2860408301612de9565b6020840152606082015160408401526080820151926001600160401b0384116109ed5760c083614c5f886020809881980101612ecc565b6060840152614c7060a08201612ddc565b6080840152015160a0820152815201940193614bd0565b6001600160a01b039091168152602081019190915260400190565b90614cab61543b565b90614cb4614aa6565b91614cbd61549b565b90614ccb8260018588615502565b604051635454a18f60e01b8152600481018690526001600160a01b03848116602483015260009591928691849160449183918591165af19182156114f157859261513e575b508151614d20575b505050505050565b604051631dbf24f760e01b8152600481018790529690602090889060249082906001600160a01b03165afa9687156114f1578597615102575b506001600160a01b0384169283158015615084575b6150755760018060a01b03166040519363145da07d60e11b85526020600486015260208580614da06024820188612d13565b0381855afa9485156109a9578795615041575b508760019580614f79575b505050855b8351811015614f1357614dd6818561392d565b5160408a614e468a8a602086019360018060a01b038551169060608801519160a089015193602095895190614e0b8883612ad6565b8082526000368137808b5198614e208a6129e6565b818a52890152808b89015280606089015280608089015260a088015260c0870152616aa1565b929093018051151580614f0c575b614e99575b5051600193926001600160a01b0392831692909116907ffcd4925545581224af98ce36b42d51bb88917ea0c3fe675c27e1df1a222825558b80a401614dc3565b6001600160a01b03614ea96153d6565b169051813b156129de578b9160448392604051948593849263525cc05960e01b84528a600485015260248401525af18015614f0157908b91614eec575b50614e59565b81614ef691612ad6565b6129e2578938614ee6565b6040513d8d823e3d90fd5b5088614e54565b5094959350955090505190823b15610a1a57906064849283604051958694859363db60e76f60e01b855260048501526024840152600160448401525af180156108d657614f64575b80808080614d18565b614f6f828092612ad6565b6101dd5780614f5b565b9091929581883110600014614fad57506020600080516020616dd783398151915291604051908152a384925b388781614dbe565b9091506001600160a01b03614fc06153d6565b16833b1561503d5790614fec89848c95946040519384928392635b8346e560e11b845260048401614c87565b038183895af19081615029575b5061501f57506020600080516020616dd783398151915291604051908152a38492614fa5565b9592505050614fa5565b8a615036919b929b612ad6565b9838614ff9565b8880fd5b9094506020813d60201161506d575b8161505d60209383612ad6565b8101031261099d57519338614db3565b3d9150615050565b631d41354d60e01b8652600486fd5b50602460206001600160a01b036150996153d6565b16604051928380926355491e0160e11b82528960048301525afa9081156109a95787916150c8575b5015614d6e565b90506020813d6020116150fa575b816150e360209383612ad6565b8101031261099d576150f490612ddc565b386150c1565b3d91506150d6565b9096506020813d602011615136575b8161511e60209383612ad6565b8101031261053b5761512f90612de9565b9538614d59565b3d9150615111565b61515b9192503d8087833e6151538183612ad6565b810190614b72565b9038614d10565b61519a91610140916001600160a01b0361517a6153d6565b1690600060405180968195829463803350a560e01b845260048401614c87565b03925af1908115613d39576000916152a0575b50805161522b575b60a08101516151c15750565b60c0810151156151f65760e0810151610120909101516001600160a01b031690600080516020616e37833981519152600080a3565b60e0810151610100820151610120909201516001600160a01b03908116921690600080516020616e97833981519152600080a4565b602081015160405190600081600080516020616e578339815191528280a36080830151151580615293575b615262575b50506151b5565b6040830151606084015183526001600160a01b031691600080516020616dd783398151915290602090a3388061525b565b5060608301511515615256565b90610140823d8211615369575b816152bb6101409383612ad6565b810103126101dd575061535d610120604051926152d784612a84565b6152e081612ddc565b8452602081015160208501526152f860408201612de9565b60408501526060810151606085015261531360808201612ddc565b608085015261532460a08201612ddc565b60a085015261533560c08201612ddc565b60c085015260e081015160e08501526153516101008201612de9565b61010085015201612de9565b610120820152386151ad565b3d91506152ad565b600054604051631bae711d60e21b8152602060048201819052600d60248301526c49646c656e657373506861736560981b60448301529091829060649082906001600160a01b03165afa908115613d3957600091614a3657506001600160a01b031690565b600054604051631bae711d60e21b8152602060048201819052600d60248301526c4372656174696f6e506861736560981b60448301529091829060649082906001600160a01b03165afa908115613d3957600091614a3657506001600160a01b031690565b600054604051631bae711d60e21b815260206004820181905260086024830152674d6573736167657360c01b60448301529091829060649082906001600160a01b03165afa908115613d3957600091614a3657506001600160a01b031690565b600054604051631bae711d60e21b8152602060048201819052600f60248301526e4d6573736167655061796d656e747360881b60448301529091829060649082906001600160a01b03165afa908115613d3957600091614a3657506001600160a01b031690565b60405163165a3c0560e21b8152600481018290526001600160a01b039283166024820181905293151560448201529293909291600091602091849160649183918691165af19182156138b65781926155d6575b5081615562575b50505050565b833b156101dd57604051635b8346e560e11b815290808280615588863060048401614c87565b038183895af191826155c6575b50506155be576020600080516020616dd783398151915291604051908152a35b3880808061555c565b5050506155b5565b816155d091612ad6565b38615595565b9091506020813d602011615602575b816155f260209383612ad6565b8101031261053f57519038615555565b3d91506155e5565b600080516020616f1783398151915280546001600160a01b0319908116909155600080516020616df783398151915280549182166001600160a01b0393841690811790915591167f8be0079c531659141344cd1fd0a4f28419497f9722a3daafe3b4186f6b6457e0600080a3565b90615684818351613920565b61569660208301516020830190612ebf565b6156a860408301516040830190614018565b6156ba60608301516060830190614018565b60018060a01b03608083015116608082015260018060a01b0360a08301511660a082015260018060a01b0360c08301511660c082015260018060a01b0360e08301511660e08201526101008201516101008201526101208201516101208201526101408201516101408201526101608201516101608201526101808201516101808201526101a08201516101a08201526101c08201516101c08201526101e08201516101e08201526157966157826102008401516102e06102008501526102e0840190612cee565b610220840151838203610220850152612cee565b91610240810151928281036102408401526020808551928381520194019060005b8181106157f2575050506102c081610260829301516102608501526102808101516102808501526102a08101516102a0850152015191015290565b90919460206060600192604089518051835284810151858401520151604082015201960191019190916157b7565b60006001600160a01b03615832614aa6565b169160246040518094819363255709e560e11b835260048301525afa8015613d39576064916000916159d9575b50602060018060a01b036000541660405193848092631bae711d60e21b8252846004830152600760248301526641707065616c7360c81b60448301525afa918215613d3957600092615994575b506158d9600092839260405194858094819363bcf205f560e01b8352604060048401526044830190615678565b34602483015203926001600160a01b03165af18015613d39576000918291839184918591869161590d575b50909192939495565b959450505050503d8082843e6159238184612ad6565b820160e08382031261053f5782516001600160401b038111610a1e579061594b918401612e5a565b60208301519261595d60408201612de9565b9261596a60808301612ddc565b9260a083015192600f841015610a1e5760c0015191600f8310156101dd5750949392919038615904565b91506020823d6020116159d1575b816159af60209383612ad6565b810103126109ed576158d9600092916159c88493612de9565b935091506158ac565b3d91506159a2565b6159ee91503d806000833e6104908183612ad6565b3861585f565b600054604051631bae711d60e21b8152602060048201819052601160248301527046696e616c697a6174696f6e506861736560781b60448301529091829060649082906001600160a01b03165afa908115613d3957600091614a3657506001600160a01b031690565b60808201519091600091156160895760209192935060a081015161606d575b0180516001600160a01b0316615ae8615a9361543b565b615a9b614aa6565b8584615aa561549b565b93615ab28584848d615502565b6040516361c53f3d60e01b8152600481018b90526001600160a01b03909216602483015290948591908290849082906044820190565b03926001600160a01b03165af19283156104a2578693616051575b508251615c73575b505091516001600160a01b039081169250839150608090615b2a61549b565b16602460405180968193631fe1128160e21b83528960048401525af19283156138b6578193615c0b575b506060830151615b645750505050565b825180151580615c02575b615bc4575b50505060208101519081615b89575b8061555c565b7f6565c26927b368d6e75314c8bf1c1e2847f1cdd47b89e10ae002a2889da4d1509160408092015182519182526020820152a2388080615b83565b81808092855af1615bd361442e565b5015615be1575b8080615b74565b82600080516020616dd783398151915260208451604051908152a338615bda565b50821515615b6f565b9092506080813d608011615c6b575b81615c2760809383612ad6565b81010312610a1e57615c5f606060405192615c4184612aa0565b80518452602081015160208501526040810151604085015201612ddc565b60608201529138615b54565b3d9150615c1a565b604051631dbf24f760e01b815260048101889052979394939190602090899060249082906001600160a01b03165afa9788156104a2578698616015575b5084158015615f97575b6150755760018060a01b0316956040519363145da07d60e11b85526020600486015260208580615ced6024820188612d13565b03818b5afa9485156109a9578795615f63575b508560019580615e91575b5050865b8451811015615e2c57615d22818661392d565b5160408b615d578b8b602086019360018060a01b038551169060608801519160a089015193602095895190614e0b8883612ad6565b929093018051151580615e25575b615daa575b5051600193926001600160a01b0392831692909116907ffcd4925545581224af98ce36b42d51bb88917ea0c3fe675c27e1df1a222825558c80a401615d0f565b6001600160a01b03615dba6153d6565b169051813b15615e21578c9160448392604051948593849263525cc05960e01b84528a600485015260248401525af18015615e1657908c91615dfd575b50615d6a565b81615e0791612ad6565b615e12578a38615df7565b8a80fd5b6040513d8e823e3d90fd5b8c80fd5b5089615d65565b509450959250955051813b15610a1a57839160648392604051948593849263db60e76f60e01b84528a600485015260248401528160448401525af180156119c957908391615e7c575b8080615b0b565b81615e8691612ad6565b61053f578138615e75565b8192968185933110600014615ec457506020600080516020616dd783398151915291604051908152a385935b8538615d0b565b90925090506001600160a01b03615ed96153d6565b16873b1561503d5790615f068980858b96956040519485928392635b8346e560e11b845260048401614c87565b038183895af19182615f44575b5050615f3b5750600080516020616dd783398151915260208492604051908152a38593615ebd565b95915050615ebd565b81929394955090615f5491612ad6565b61503d57908792918938615f13565b9094506020813d602011615f8f575b81615f7f60209383612ad6565b810103126109ed57519338615d00565b3d9150615f72565b50602460206001600160a01b03615fac6153d6565b16604051928380926355491e0160e11b82528a60048301525afa9081156109a9578791615fdb575b5015615cba565b90506020813d60201161600d575b81615ff660209383612ad6565b8101031261099d5761600790612ddc565b38615fd4565b3d9150615fe9565b9097506020813d602011616049575b8161603160209383612ad6565b810103126113725761604290612de9565b9638615cb0565b3d9150616024565b6160669193503d8088833e6151538183612ad6565b9138615b03565b80820151616084906001600160a01b031685614ca2565b615a7c565b50916001600160a01b0361609b61549b565b1660408051809263471d903d60e11b82528560048301528260248301528187816160c86044820189615678565b03925af1908115610d5d578491616283575b508051156161d0575082604061613860a06001600160a01b036160fb6153d6565b9590910180518451630db1199160e41b8152600481018990526001600160a01b039091166024820152979095889392169183919082906044820190565b03925af19384156138b65781809561618c575b505080616183575b61615c57505050565b516040519283526001600160a01b031691600080516020616dd783398151915290602090a3565b50821515616153565b915093506040843d6040116161c8575b816161a960409383612ad6565b810103126101dd575060206161bd84612ddc565b93015192388061614b565b3d915061619c565b602001928351806161e2575050505050565b60c083015160a0909301805190936001600160a01b039081169116813b15610a1a5791839291839261622a95604051809781958294635b8346e560e11b845260048401614c87565b03925af19182616273575b505061626b576020600080516020616dd78339815191529160018060a01b039051169351604051908152a35b388080808061358f565b505050616261565b8161627d91612ad6565b38616235565b90506040813d6040116162f2575b8161629e60409383612ad6565b81010312610a1a5760405190604082018281106001600160401b038211176162de576040526020906162cf81612ddc565b835201516020820152386160da565b634e487b7160e01b86526041600452602486fd5b3d9150616291565b926020830193845193600080955b60608301518051881015616335576001916163268961632d9361392d565b5190613184565b960195616308565b5095509193959092958515614d185760c001516001600160a01b0316803b15610a1e57826040518092635b8346e560e11b82528183816163798c3060048401614c87565b03925af19081616574575b506163a857505050604051918252600080516020616dd783398151915260203093a3565b909291935082815180151580616561575b6164d5575b5090505b604084019081515181101561358f57600191838260608801926163e682855161392d565b511515806164ba575b6163fe575b50505050016163c2565b87808080898060a01b0361641387875161392d565b5116616420878a5161392d565b51905af161642c61442e565b5015616486576164748260209261646b7f206a81949fa2f9dad3979f1ad9e02868fb17baca136a76760ed851e8e659e49e958a8060a01b03925161392d565b5116955161392d565b51604051908152a35b388382826163f4565b6164ad8260209261646b600080516020616dd7833981519152958a8060a01b03925161392d565b51604051908152a361647d565b50858060a01b036164cc83835161392d565b511615156163ef565b8551829182918291906001600160a01b03165af16164f161442e565b501561653757817ff5c9499466599a9c201c4b00cfd411510fccee310767d6b1c549cd651fdcac02602060018060a01b038751169351604051908152a35b3882816163be565b81600080516020616dd7833981519152602060018060a01b038751169351604051908152a361652f565b5085516001600160a01b031615156163b9565b8361658191949294612ad6565b9138616384565b91908260409103126109ed57612ba7602083519301612ddc565b90606490602060018060a01b036000541660405193848092631bae711d60e21b8252846004830152600660248301526551756575657360d01b60448301525afa8015613d3957600090616a01575b600092506001600160a01b0390811690839061660a615371565b16602460405161661981612a4e565b87815260405196879384926323d783ed60e11b84525160048401525af1928315613d39576000936169e6575b50825193600f851015612dba5784602085015190600f8210159182612dba57809460009360058414806169d9575b80156169b1575b85908015616987575b156168d4575050604088810180518251630341e56360e31b8152945090928491829060009082906166c2908c906001600160a01b031660048401614c87565b03925af1918215613d3957849286916000916168a3575b50616812575b5050505b60608601516001600160a01b0316151591826167fb575b826167ea575b50506167c2575b5060005b60a084018051805183101561675c579082616729816001959461392d565b51616737575b50500161670b565b616741915161392d565b51600080516020616db7833981519152600080a2388161672f565b5050509260005b60c08401805180518310156167ba5791806001926167838260c09661392d565b51616793575b5050019050616763565b6000916167a0915161392d565b51600080516020616e578339815191528280a38038616789565b505050929150565b60808401516001600160a01b031690600080516020616f57833981519152600080a338616707565b909150612dba576002143880616700565b60808701516001600160a01b0316151592506166fa565b815161683b929061682c906001600160a01b031683614ca2565b516001600160a01b0316615162565b612dba57600d810361688a5782600080516020616e77833981519152600080a25b827f6ae3550300804fa352835a3e1279593d83ce88e20c9feb43302db45b1d89e6c9600080a28138846166df565b82600080516020616e17833981519152600080a261685c565b6168c5915060403d6040116168cd575b6168bd8183612ad6565b810190616588565b9050386166d9565b503d6168b3565b612dba578592600685149182616972575b50506168f3575b50506166e3565b604088810151815163910048fb60e01b81529391928492909183916000918391616929916001600160a01b031660048401614c87565b03925af18015613d3957616954575b5082600080516020616db7833981519152600080a282386168ec565b61696c9060403d6040116168cd576168bd8183612ad6565b50616938565b91509250612dba5760068592141538806168e5565b50612dba5784600d8514828161699e575b50616683565b915050612dba5784600d84141582616998565b5084600c851482816169c6575b50905061667a565b915050612dba5784600c841415826169be565b5050836005831415616673565b6169fa91933d8091833e61224d8183612ad6565b9138616645565b506020823d602011616a33575b81616a1b60209383612ad6565b810103126109ed57616a2e600092612de9565b6165f0565b3d9150616a0e565b600054604051631bae711d60e21b8152602060048201819052600e60248301526d151c9a589d5b985b105c1c19585b60921b60448301529091829060649082906001600160a01b03165afa908115613d3957600091614a3657506001600160a01b031690565b92959460009492939091906001600160a01b03616abc614b10565b16936040516327f4490760e11b81526060600482015260208180616ae3606482018961445e565b600560248301528b60448301520381895afa908115610da9578891616d56575b503410610d68576001600160a01b03616b1a6153d6565b169260405192616b2984612a84565b600160a01b60019003168352600160a01b600190031660208301526040820190600160a01b60019003871682526060830192338452608081019a60058c5260a082018a815260c0830191825260e083019384528a610100840152346101208401526040519c8d968796636dada77360e11b88526004880160209052600160a01b600190038651166024890152600160a01b600190036020870151166044890152600160a01b600190039051166064880152600160a01b6001900390511660848701525160a48601525160c48501525160e4840161014090526101648401616c0f91612cee565b915161010484015261010081015161012484015261012001516101448301520381345a9460a095f1958615610d5d578496616d0c575b50855190823b1561053b5791616c78939185809460405196879586948593630e5fbe8960e21b85523491600486016144d7565b03925af180156108d6578290616cfc575b5050608083015115616cd8578251606084015160408501516001600160a01b039081169391169190600080516020616e978339815191529080a45b81516040909201516001600160a01b031690565b508151600080516020616ef7833981519152602080850151604051908152a2616cc4565b616d0591612ad6565b3881616c89565b90955060a0813d60a011616d4e575b81616d2860a09383612ad6565b81010312610a1a57616d4260806040519261095b84612abb565b60808201529438616c45565b3d9150616d1b565b90506020813d602011616d80575b81616d7160209383612ad6565b81010312610921575138616b03565b3d9150616d64565b60ff600080516020616ed78339815191525460401c1615616da557565b631afcd79f60e31b60005260046000fdfeb9f69df2250e1788b862d0715b1dad98b2a50311c017ebb71f6cd83de656b06dd7d0ee861c0ebf42599b922e8f4ad0cafed951841610157bcd56110f49ced8ee9016d09d72d40fdae2fd8ceac6b6234c7706214fd39c1cd1e609a0528c199300f250caa116f9eac0e4e82d403f131ce0a520b6c232dbcbe270b3729b0aaca09e1081f7638e5a02d916250da410b76a0821bdb2b09c574c0f237830409c37d0c80a94f6cf3e473cb72e765b24d1365bfcbef8d31a73215bb27e50df39757f578ae51a41760ba25c8a4ac33894d5eb8698cf110a90d4e6f764fa0579ec8767b466dab9102861c7483a187584d6371d88316f005af507982ccf95c110879f3ed5a59b779b17422d0df92223018b32b4d1fa46e071723d6817e2486d003becc55f00f0c57e16840df040f15088dc2f81fe391c3923bec73e23a9662efc9c229c6a008620e7f03a280a3d2aa84bd41ba19524c2d7f1dbfa9d79cb81877b0f8c963f9b237e158222e3e6968b72b9db0d8043aacf074ad9f650f0d1606b4d82ee432c00eeb84a2b70442f0f7263c2cc055eaaba369bc7f3d87dd784346cb4ed6967903542dd93d103ec25ce3ac597cec3f3aa55b91b52ffa90a04f9e14545f4543e7c48a26469706673582212205afdd7324dcca269aef8b6dbab4190d6396489900265a8f1492dbb0a693cb47764736f6c634300081c0033",
  "linkReferences": {},
  "deployedLinkReferences": {}
}