{
  "_format": "hh-sol-artifact-1",
  "contractName": "MockTribunalAppealForFinalization",
  "sourceName": "contracts/test-helpers/MockTribunalAppealForFinalization.sol",
  "abi": [
    {
      "inputs": [
        {
          "internalType": "uint256",
          "name": "_epoch",
          "type": "uint256"
        }
      ],
      "name": "hasPendingTribunals",
      "outputs": [
        {
          "internalType": "bool",
          "name": "",
          "type": "bool"
        }
      ],
      "stateMutability": "view",
      "type": "function"
    },
    {
      "inputs": [
        {
          "internalType": "bytes32",
          "name": "",
          "type": "bytes32"
        },
        {
          "internalType": "uint256",
          "name": "",
          "type": "uint256"
        },
        {
          "internalType": "address",
          "name": "",
          "type": "address"
        },
        {
          "internalType": "uint256",
          "name": "",
          "type": "uint256"
        },
        {
          "internalType": "bytes32",
          "name": "",
          "type": "bytes32"
        }
      ],
      "name": "prepareTribunalAppeal",
      "outputs": [],
      "stateMutability": "nonpayable",
      "type": "function"
    },
    {
      "inputs": [
        {
          "internalType": "uint256",
          "name": "epoch",
          "type": "uint256"
        },
        {
          "internalType": "bool",
          "name": "hasPending",
          "type": "bool"
        }
      ],
      "name": "setMockHasPendingTribunals",
      "outputs": [],
      "stateMutability": "nonpayable",
      "type": "function"
    }
  ],
  "bytecode": "0x60808060405234601557610102908161001b8239f35b600080fdfe60806040526004361015601157600080fd5b60003560e01c80637476c17c14608f57806398c574c414606d57639acc6a8a14603957600080fd5b3460685760203660031901126068576004356000526000602052602060ff604060002054166040519015158152f35b600080fd5b3460685760a03660031901126068576044356001600160a01b03811603606857005b346068576040366003190112606857602435801515809103606857600435600052600060205260406000209060ff80198354169116179055600080f3fea264697066735822122067d0fc81646751651cf37859b5d48674e6c241afbdb46be42c6c6ca486509e8364736f6c634300081c0033",
  "linkReferences": {},
  "deployedLinkReferences": {}
}