{
  "_format": "hh-sol-artifact-1",
  "contractName": "MockFeeManager",
  "sourceName": "contracts/test-helpers/MockFeeManager.sol",
  "abi": [
    {
      "inputs": [],
      "name": "MAX_ROUNDS",
      "outputs": [
        {
          "internalType": "uint256",
          "name": "",
          "type": "uint256"
        }
      ],
      "stateMutability": "view",
      "type": "function"
    },
    {
      "inputs": [
        {
          "internalType": "bytes32",
          "name": "_txId",
          "type": "bytes32"
        },
        {
          "internalType": "uint256",
          "name": "_round",
          "type": "uint256"
        },
        {
          "internalType": "uint256",
          "name": "_appealBond",
          "type": "uint256"
        },
        {
          "internalType": "address",
          "name": "_appealer",
          "type": "address"
        }
      ],
      "name": "callAddAppealRound",
      "outputs": [],
      "stateMutability": "nonpayable",
      "type": "function"
    },
    {
      "inputs": [
        {
          "internalType": "bytes32",
          "name": "_txId",
          "type": "bytes32"
        },
        {
          "internalType": "uint256",
          "name": "_startRound",
          "type": "uint256"
        },
        {
          "internalType": "uint256",
          "name": "_finalRound",
          "type": "uint256"
        },
        {
          "internalType": "uint256",
          "name": "_validatorTimeoutFees",
          "type": "uint256"
        },
        {
          "internalType": "uint256",
          "name": "_leaderTimeoutFees",
          "type": "uint256"
        }
      ],
      "name": "callProcessFeesForTx",
      "outputs": [
        {
          "internalType": "uint256",
          "name": "amountDistributed",
          "type": "uint256"
        },
        {
          "internalType": "uint256",
          "name": "numOfValidators",
          "type": "uint256"
        }
      ],
      "stateMutability": "nonpayable",
      "type": "function"
    },
    {
      "inputs": [
        {
          "internalType": "bytes32",
          "name": "_txId",
          "type": "bytes32"
        },
        {
          "internalType": "uint256",
          "name": "_round",
          "type": "uint256"
        },
        {
          "internalType": "address",
          "name": "_leader",
          "type": "address"
        },
        {
          "internalType": "uint256",
          "name": "_leaderIndex",
          "type": "uint256"
        },
        {
          "internalType": "bool",
          "name": "_leaderTimeout",
          "type": "bool"
        },
        {
          "internalType": "uint256",
          "name": "_receiptFeeConsumed",
          "type": "uint256"
        }
      ],
      "name": "callRecordProposedReceipt",
      "outputs": [],
      "stateMutability": "nonpayable",
      "type": "function"
    },
    {
      "inputs": [
        {
          "internalType": "bytes32",
          "name": "_txId",
          "type": "bytes32"
        },
        {
          "internalType": "uint256",
          "name": "_round",
          "type": "uint256"
        },
        {
          "internalType": "address",
          "name": "_validator",
          "type": "address"
        },
        {
          "internalType": "bool",
          "name": "_isLastVote",
          "type": "bool"
        },
        {
          "internalType": "enum ITransactions.VoteType",
          "name": "_voteType",
          "type": "uint8"
        },
        {
          "internalType": "enum ITransactions.ResultType",
          "name": "_result",
          "type": "uint8"
        }
      ],
      "name": "callRecordRevealedVote",
      "outputs": [],
      "stateMutability": "nonpayable",
      "type": "function"
    },
    {
      "inputs": [],
      "name": "feeProcessor",
      "outputs": [
        {
          "internalType": "contract IFeesProcessor",
          "name": "",
          "type": "address"
        }
      ],
      "stateMutability": "view",
      "type": "function"
    },
    {
      "inputs": [],
      "name": "feesRecorder",
      "outputs": [
        {
          "internalType": "contract IFeesRecorder",
          "name": "",
          "type": "address"
        }
      ],
      "stateMutability": "view",
      "type": "function"
    },
    {
      "inputs": [
        {
          "internalType": "address",
          "name": "_feeProcessor",
          "type": "address"
        }
      ],
      "name": "setFeeProcessor",
      "outputs": [],
      "stateMutability": "nonpayable",
      "type": "function"
    },
    {
      "inputs": [
        {
          "internalType": "address",
          "name": "_feesRecorder",
          "type": "address"
        }
      ],
      "name": "setFeesRecorder",
      "outputs": [],
      "stateMutability": "nonpayable",
      "type": "function"
    },
    {
      "inputs": [],
      "name": "storageUnitPrice",
      "outputs": [
        {
          "internalType": "uint256",
          "name": "",
          "type": "uint256"
        }
      ],
      "stateMutability": "view",
      "type": "function"
    }
  ],
  "bytecode": "0x608080604052346015576104ec908161001b8239f35b600080fdfe608080604052600436101561001357600080fd5b600090813560e01c9081630d37a7a814610399575080633d246b5e1461037057806341d3558214610354578063713f6a0a1461031e5780637d7db9c61461029b57806394f0d0bf146102745780639651b0a9146101ab57806397f426e61461018d578063b61b9893146100c75763cbed59411461008f57600080fd5b346100c45760203660031901126100c4576001600160a01b036100b0610468565b1660018060a01b0319600154161760015580f35b80fd5b50346100c45760a03660031901126100c45780604060018060a01b0382541660a4825180948193633cbf075960e01b8352600435600484015260243560248401526044356044840152606435606484015260843560848401525af180156101825782918391610141575b6040838382519182526020820152f35b9150506040813d60401161017a575b8161015d6040938361047e565b8101031261017657604091506020815191015138610131565b5080fd5b3d9150610150565b6040513d84823e3d90fd5b50346100c457806003193601126100c4576020600254604051908152f35b50346100c45760c03660031901126100c457806101c661044d565b606435908115158092036102705760843591600583101561026e5760a43591600683101561026a576001546001600160a01b031690813b15610266578560c4928195604051978896879563015e82ff60e61b87526004356004880152602435602488015260018060a01b031660448701526064860152608485015260a48401525af18015610182576102555750f35b8161025f9161047e565b6100c45780f35b8580fd5b8480fd5b505b5050fd5b50346100c457806003193601126100c457546040516001600160a01b039091168152602090f35b50346100c45760803660031901126100c457806064356001600160a01b0381169081900361031b576001546001600160a01b031690813b1561027057829160848392604051948593849263d38f5c3560e01b845260043560048501526024356024850152604435604485015260648401525af18015610182576102555750f35b50fd5b50346100c45760203660031901126100c4576001600160a01b03610340610468565b82546001600160a01b031916911617815580f35b50346100c457806003193601126100c457602060405160088152f35b50346100c457806003193601126100c4576001546040516001600160a01b039091168152602090f35b9050346101765760c036600319011261017657816103b561044d565b60843590811515809203610449576001546001600160a01b0316803b1561044557848460c4928195839563b5b00f6b60e01b85526004356004860152602435602486015260018060a01b031660448501526064356064850152608484015260a43560a48401525af180156104385761042a5780f35b6104339161047e565b388180f35b50604051903d90823e3d90fd5b8380fd5b8280fd5b604435906001600160a01b038216820361046357565b600080fd5b600435906001600160a01b038216820361046357565b90601f8019910116810190811067ffffffffffffffff8211176104a057604052565b634e487b7160e01b600052604160045260246000fdfea26469706673582212202c5ce4ebc2fb18f682f12bb783db7f223344419e7dacb2e01ce001bcdd46b55d64736f6c634300081c0033",
  "linkReferences": {},
  "deployedLinkReferences": {}
}