{
  "_format": "hh-sol-artifact-1",
  "contractName": "ConsensusMain",
  "sourceName": "contracts/ConsensusMain.sol",
  "abi": [
    {
      "inputs": [],
      "name": "AccessControlBadConfirmation",
      "type": "error"
    },
    {
      "inputs": [
        {
          "internalType": "address",
          "name": "account",
          "type": "address"
        },
        {
          "internalType": "bytes32",
          "name": "neededRole",
          "type": "bytes32"
        }
      ],
      "name": "AccessControlUnauthorizedAccount",
      "type": "error"
    },
    {
      "inputs": [],
      "name": "CallerNotMessages",
      "type": "error"
    },
    {
      "inputs": [],
      "name": "CanNotAppeal",
      "type": "error"
    },
    {
      "inputs": [],
      "name": "EmptyTransaction",
      "type": "error"
    },
    {
      "inputs": [],
      "name": "FinalizationNotAllowed",
      "type": "error"
    },
    {
      "inputs": [],
      "name": "FinalizationWindowForRevealingNotOpened",
      "type": "error"
    },
    {
      "inputs": [],
      "name": "InvalidDeploymentWithSalt",
      "type": "error"
    },
    {
      "inputs": [],
      "name": "InvalidGhostContract",
      "type": "error"
    },
    {
      "inputs": [],
      "name": "InvalidInitialization",
      "type": "error"
    },
    {
      "inputs": [],
      "name": "InvalidRevealLeaderData",
      "type": "error"
    },
    {
      "inputs": [],
      "name": "InvalidVote",
      "type": "error"
    },
    {
      "inputs": [],
      "name": "MaxNumOfIterationsInPendingQueueReached",
      "type": "error"
    },
    {
      "inputs": [],
      "name": "NonGenVMContract",
      "type": "error"
    },
    {
      "inputs": [],
      "name": "NotInitializing",
      "type": "error"
    },
    {
      "inputs": [
        {
          "internalType": "address",
          "name": "owner",
          "type": "address"
        }
      ],
      "name": "OwnableInvalidOwner",
      "type": "error"
    },
    {
      "inputs": [
        {
          "internalType": "address",
          "name": "account",
          "type": "address"
        }
      ],
      "name": "OwnableUnauthorizedAccount",
      "type": "error"
    },
    {
      "inputs": [],
      "name": "ReentrancyGuardReentrantCall",
      "type": "error"
    },
    {
      "inputs": [],
      "name": "TransactionCanNotBeAddedToAcceptedQueue",
      "type": "error"
    },
    {
      "inputs": [],
      "name": "TransactionCanNotBeFinalized",
      "type": "error"
    },
    {
      "inputs": [],
      "name": "TransactionNotAtPendingQueueHead",
      "type": "error"
    },
    {
      "anonymous": false,
      "inputs": [
        {
          "indexed": true,
          "internalType": "bytes32",
          "name": "txId",
          "type": "bytes32"
        },
        {
          "indexed": true,
          "internalType": "address",
          "name": "appealer",
          "type": "address"
        },
        {
          "indexed": false,
          "internalType": "uint256",
          "name": "appealBond",
          "type": "uint256"
        },
        {
          "indexed": false,
          "internalType": "address[]",
          "name": "appealValidators",
          "type": "address[]"
        }
      ],
      "name": "AppealStarted",
      "type": "event"
    },
    {
      "anonymous": false,
      "inputs": [
        {
          "indexed": false,
          "internalType": "uint256",
          "name": "attempted",
          "type": "uint256"
        },
        {
          "indexed": false,
          "internalType": "uint256",
          "name": "succeeded",
          "type": "uint256"
        },
        {
          "indexed": false,
          "internalType": "uint256",
          "name": "failed",
          "type": "uint256"
        }
      ],
      "name": "BatchFinalizationCompleted",
      "type": "event"
    },
    {
      "anonymous": false,
      "inputs": [
        {
          "indexed": true,
          "internalType": "bytes32",
          "name": "txId",
          "type": "bytes32"
        },
        {
          "indexed": false,
          "internalType": "uint256",
          "name": "txSlot",
          "type": "uint256"
        }
      ],
      "name": "CreatedTransaction",
      "type": "event"
    },
    {
      "anonymous": false,
      "inputs": [
        {
          "indexed": true,
          "internalType": "bytes32",
          "name": "txId",
          "type": "bytes32"
        },
        {
          "indexed": true,
          "internalType": "address",
          "name": "recipient",
          "type": "address"
        },
        {
          "indexed": false,
          "internalType": "bytes",
          "name": "data",
          "type": "bytes"
        }
      ],
      "name": "ErrorMessage",
      "type": "event"
    },
    {
      "anonymous": false,
      "inputs": [
        {
          "indexed": false,
          "internalType": "address",
          "name": "ghostFactory",
          "type": "address"
        },
        {
          "indexed": false,
          "internalType": "address",
          "name": "genManager",
          "type": "address"
        },
        {
          "indexed": false,
          "internalType": "address",
          "name": "genTransactions",
          "type": "address"
        },
        {
          "indexed": false,
          "internalType": "address",
          "name": "genQueue",
          "type": "address"
        },
        {
          "indexed": false,
          "internalType": "address",
          "name": "genStaking",
          "type": "address"
        },
        {
          "indexed": false,
          "internalType": "address",
          "name": "genMessages",
          "type": "address"
        },
        {
          "indexed": false,
          "internalType": "address",
          "name": "idleness",
          "type": "address"
        },
        {
          "indexed": false,
          "internalType": "address",
          "name": "tribunalAppeal",
          "type": "address"
        },
        {
          "indexed": false,
          "internalType": "address",
          "name": "nftMinter",
          "type": "address"
        }
      ],
      "name": "ExternalContractsSet",
      "type": "event"
    },
    {
      "anonymous": false,
      "inputs": [
        {
          "indexed": false,
          "internalType": "uint64",
          "name": "version",
          "type": "uint64"
        }
      ],
      "name": "Initialized",
      "type": "event"
    },
    {
      "anonymous": false,
      "inputs": [
        {
          "indexed": true,
          "internalType": "bytes32",
          "name": "txId",
          "type": "bytes32"
        },
        {
          "indexed": true,
          "internalType": "address",
          "name": "recipient",
          "type": "address"
        },
        {
          "indexed": true,
          "internalType": "address",
          "name": "activator",
          "type": "address"
        }
      ],
      "name": "InternalMessageProcessed",
      "type": "event"
    },
    {
      "anonymous": false,
      "inputs": [
        {
          "indexed": true,
          "internalType": "bytes32",
          "name": "txId",
          "type": "bytes32"
        },
        {
          "indexed": true,
          "internalType": "address",
          "name": "oldLeader",
          "type": "address"
        },
        {
          "indexed": true,
          "internalType": "address",
          "name": "newLeader",
          "type": "address"
        }
      ],
      "name": "LeaderIdlenessProcessed",
      "type": "event"
    },
    {
      "anonymous": false,
      "inputs": [
        {
          "indexed": true,
          "internalType": "bytes32",
          "name": "txId",
          "type": "bytes32"
        },
        {
          "indexed": true,
          "internalType": "address",
          "name": "recipient",
          "type": "address"
        },
        {
          "indexed": true,
          "internalType": "address",
          "name": "activator",
          "type": "address"
        }
      ],
      "name": "NewTransaction",
      "type": "event"
    },
    {
      "anonymous": false,
      "inputs": [
        {
          "indexed": true,
          "internalType": "bytes32",
          "name": "txId",
          "type": "bytes32"
        },
        {
          "indexed": true,
          "internalType": "address",
          "name": "activator",
          "type": "address"
        }
      ],
      "name": "NextTransactionToBeActivated",
      "type": "event"
    },
    {
      "anonymous": false,
      "inputs": [
        {
          "indexed": true,
          "internalType": "address",
          "name": "previousOwner",
          "type": "address"
        },
        {
          "indexed": true,
          "internalType": "address",
          "name": "newOwner",
          "type": "address"
        }
      ],
      "name": "OwnershipTransferStarted",
      "type": "event"
    },
    {
      "anonymous": false,
      "inputs": [
        {
          "indexed": true,
          "internalType": "address",
          "name": "previousOwner",
          "type": "address"
        },
        {
          "indexed": true,
          "internalType": "address",
          "name": "newOwner",
          "type": "address"
        }
      ],
      "name": "OwnershipTransferred",
      "type": "event"
    },
    {
      "anonymous": false,
      "inputs": [
        {
          "indexed": true,
          "internalType": "bytes32",
          "name": "txId",
          "type": "bytes32"
        }
      ],
      "name": "ProcessIdlenessAccepted",
      "type": "event"
    },
    {
      "anonymous": false,
      "inputs": [
        {
          "indexed": true,
          "internalType": "bytes32",
          "name": "txId",
          "type": "bytes32"
        }
      ],
      "name": "ProcessIdlenessUndetermined",
      "type": "event"
    },
    {
      "anonymous": false,
      "inputs": [
        {
          "indexed": true,
          "internalType": "bytes32",
          "name": "txId",
          "type": "bytes32"
        },
        {
          "indexed": false,
          "internalType": "string",
          "name": "reason",
          "type": "string"
        }
      ],
      "name": "QueueOperationSkipped",
      "type": "event"
    },
    {
      "anonymous": false,
      "inputs": [
        {
          "indexed": true,
          "internalType": "bytes32",
          "name": "role",
          "type": "bytes32"
        },
        {
          "indexed": true,
          "internalType": "bytes32",
          "name": "previousAdminRole",
          "type": "bytes32"
        },
        {
          "indexed": true,
          "internalType": "bytes32",
          "name": "newAdminRole",
          "type": "bytes32"
        }
      ],
      "name": "RoleAdminChanged",
      "type": "event"
    },
    {
      "anonymous": false,
      "inputs": [
        {
          "indexed": true,
          "internalType": "bytes32",
          "name": "role",
          "type": "bytes32"
        },
        {
          "indexed": true,
          "internalType": "address",
          "name": "account",
          "type": "address"
        },
        {
          "indexed": true,
          "internalType": "address",
          "name": "sender",
          "type": "address"
        }
      ],
      "name": "RoleGranted",
      "type": "event"
    },
    {
      "anonymous": false,
      "inputs": [
        {
          "indexed": true,
          "internalType": "bytes32",
          "name": "role",
          "type": "bytes32"
        },
        {
          "indexed": true,
          "internalType": "address",
          "name": "account",
          "type": "address"
        },
        {
          "indexed": true,
          "internalType": "address",
          "name": "sender",
          "type": "address"
        }
      ],
      "name": "RoleRevoked",
      "type": "event"
    },
    {
      "anonymous": false,
      "inputs": [
        {
          "indexed": true,
          "internalType": "bytes32",
          "name": "txId",
          "type": "bytes32"
        },
        {
          "indexed": true,
          "internalType": "address",
          "name": "sender",
          "type": "address"
        }
      ],
      "name": "SlashAppealSubmitted",
      "type": "event"
    },
    {
      "anonymous": false,
      "inputs": [
        {
          "indexed": true,
          "internalType": "bytes32",
          "name": "tx_id",
          "type": "bytes32"
        }
      ],
      "name": "TransactionAccepted",
      "type": "event"
    },
    {
      "anonymous": false,
      "inputs": [
        {
          "indexed": true,
          "internalType": "bytes32",
          "name": "txId",
          "type": "bytes32"
        },
        {
          "indexed": true,
          "internalType": "address",
          "name": "leader",
          "type": "address"
        }
      ],
      "name": "TransactionActivated",
      "type": "event"
    },
    {
      "anonymous": false,
      "inputs": [
        {
          "indexed": true,
          "internalType": "uint256",
          "name": "batchId",
          "type": "uint256"
        },
        {
          "indexed": false,
          "internalType": "address[]",
          "name": "validators",
          "type": "address[]"
        }
      ],
      "name": "TransactionActivatedValidators",
      "type": "event"
    },
    {
      "anonymous": false,
      "inputs": [
        {
          "indexed": true,
          "internalType": "bytes32",
          "name": "txId",
          "type": "bytes32"
        },
        {
          "indexed": true,
          "internalType": "address",
          "name": "sender",
          "type": "address"
        }
      ],
      "name": "TransactionCancelled",
      "type": "event"
    },
    {
      "anonymous": false,
      "inputs": [
        {
          "indexed": true,
          "internalType": "bytes32",
          "name": "txId",
          "type": "bytes32"
        }
      ],
      "name": "TransactionFinalizationFailed",
      "type": "event"
    },
    {
      "anonymous": false,
      "inputs": [
        {
          "indexed": true,
          "internalType": "bytes32",
          "name": "tx_id",
          "type": "bytes32"
        }
      ],
      "name": "TransactionFinalized",
      "type": "event"
    },
    {
      "anonymous": false,
      "inputs": [
        {
          "indexed": true,
          "internalType": "bytes32",
          "name": "txId",
          "type": "bytes32"
        },
        {
          "indexed": true,
          "internalType": "address",
          "name": "oldValidator",
          "type": "address"
        },
        {
          "indexed": true,
          "internalType": "address",
          "name": "newValidator",
          "type": "address"
        }
      ],
      "name": "TransactionIdleValidatorReplaced",
      "type": "event"
    },
    {
      "anonymous": false,
      "inputs": [
        {
          "indexed": true,
          "internalType": "bytes32",
          "name": "txId",
          "type": "bytes32"
        },
        {
          "indexed": true,
          "internalType": "uint256",
          "name": "validatorIndex",
          "type": "uint256"
        }
      ],
      "name": "TransactionIdleValidatorReplacementFailed",
      "type": "event"
    },
    {
      "anonymous": false,
      "inputs": [
        {
          "indexed": true,
          "internalType": "bytes32",
          "name": "tx_id",
          "type": "bytes32"
        }
      ],
      "name": "TransactionLeaderRevealed",
      "type": "event"
    },
    {
      "anonymous": false,
      "inputs": [
        {
          "indexed": true,
          "internalType": "bytes32",
          "name": "txId",
          "type": "bytes32"
        },
        {
          "indexed": true,
          "internalType": "address",
          "name": "newLeader",
          "type": "address"
        }
      ],
      "name": "TransactionLeaderRotated",
      "type": "event"
    },
    {
      "anonymous": false,
      "inputs": [
        {
          "indexed": true,
          "internalType": "bytes32",
          "name": "tx_id",
          "type": "bytes32"
        }
      ],
      "name": "TransactionLeaderTimeout",
      "type": "event"
    },
    {
      "anonymous": false,
      "inputs": [
        {
          "indexed": false,
          "internalType": "bytes32[]",
          "name": "tx_ids",
          "type": "bytes32[]"
        }
      ],
      "name": "TransactionNeedsRecomputation",
      "type": "event"
    },
    {
      "anonymous": false,
      "inputs": [
        {
          "indexed": true,
          "internalType": "bytes32",
          "name": "tx_id",
          "type": "bytes32"
        },
        {
          "indexed": false,
          "internalType": "address[]",
          "name": "validators",
          "type": "address[]"
        }
      ],
      "name": "TransactionReceiptProposed",
      "type": "event"
    },
    {
      "anonymous": false,
      "inputs": [
        {
          "indexed": true,
          "internalType": "bytes32",
          "name": "tx_id",
          "type": "bytes32"
        }
      ],
      "name": "TransactionUndetermined",
      "type": "event"
    },
    {
      "anonymous": false,
      "inputs": [
        {
          "indexed": true,
          "internalType": "bytes32",
          "name": "txId",
          "type": "bytes32"
        },
        {
          "indexed": true,
          "internalType": "uint256",
          "name": "tribunalIndex",
          "type": "uint256"
        },
        {
          "indexed": true,
          "internalType": "address",
          "name": "validator",
          "type": "address"
        }
      ],
      "name": "TribunalAppealVoteCommitted",
      "type": "event"
    },
    {
      "anonymous": false,
      "inputs": [
        {
          "indexed": true,
          "internalType": "bytes32",
          "name": "txId",
          "type": "bytes32"
        },
        {
          "indexed": true,
          "internalType": "uint256",
          "name": "tribunalIndex",
          "type": "uint256"
        },
        {
          "indexed": true,
          "internalType": "address",
          "name": "validator",
          "type": "address"
        },
        {
          "indexed": false,
          "internalType": "enum ITransactions.VoteType",
          "name": "voteType",
          "type": "uint8"
        }
      ],
      "name": "TribunalAppealVoteRevealed",
      "type": "event"
    },
    {
      "anonymous": false,
      "inputs": [
        {
          "indexed": true,
          "internalType": "bytes32",
          "name": "txId",
          "type": "bytes32"
        },
        {
          "indexed": true,
          "internalType": "address",
          "name": "sender",
          "type": "address"
        },
        {
          "indexed": false,
          "internalType": "uint256",
          "name": "amount",
          "type": "uint256"
        }
      ],
      "name": "ValueWithdrawalFailed",
      "type": "event"
    },
    {
      "anonymous": false,
      "inputs": [
        {
          "indexed": true,
          "internalType": "bytes32",
          "name": "txId",
          "type": "bytes32"
        },
        {
          "indexed": true,
          "internalType": "address",
          "name": "validator",
          "type": "address"
        },
        {
          "indexed": false,
          "internalType": "bool",
          "name": "isLastVote",
          "type": "bool"
        }
      ],
      "name": "VoteCommitted",
      "type": "event"
    },
    {
      "anonymous": false,
      "inputs": [
        {
          "indexed": true,
          "internalType": "bytes32",
          "name": "txId",
          "type": "bytes32"
        },
        {
          "indexed": true,
          "internalType": "address",
          "name": "validator",
          "type": "address"
        },
        {
          "indexed": false,
          "internalType": "enum ITransactions.VoteType",
          "name": "voteType",
          "type": "uint8"
        },
        {
          "indexed": false,
          "internalType": "bool",
          "name": "isLastVote",
          "type": "bool"
        },
        {
          "indexed": false,
          "internalType": "enum ITransactions.ResultType",
          "name": "result",
          "type": "uint8"
        }
      ],
      "name": "VoteRevealed",
      "type": "event"
    },
    {
      "inputs": [],
      "name": "DEFAULT_ADMIN_ROLE",
      "outputs": [
        {
          "internalType": "bytes32",
          "name": "",
          "type": "bytes32"
        }
      ],
      "stateMutability": "view",
      "type": "function"
    },
    {
      "inputs": [],
      "name": "EVENTS_BATCH_SIZE",
      "outputs": [
        {
          "internalType": "uint256",
          "name": "",
          "type": "uint256"
        }
      ],
      "stateMutability": "view",
      "type": "function"
    },
    {
      "inputs": [],
      "name": "VERSION",
      "outputs": [
        {
          "internalType": "string",
          "name": "",
          "type": "string"
        }
      ],
      "stateMutability": "view",
      "type": "function"
    },
    {
      "inputs": [],
      "name": "acceptOwnership",
      "outputs": [],
      "stateMutability": "nonpayable",
      "type": "function"
    },
    {
      "inputs": [
        {
          "internalType": "bytes32",
          "name": "_txId",
          "type": "bytes32"
        },
        {
          "internalType": "address",
          "name": "_operator",
          "type": "address"
        },
        {
          "internalType": "bytes",
          "name": "_vrfProof",
          "type": "bytes"
        }
      ],
      "name": "activateTransaction",
      "outputs": [],
      "stateMutability": "nonpayable",
      "type": "function"
    },
    {
      "inputs": [
        {
          "internalType": "address",
          "name": "_sender",
          "type": "address"
        },
        {
          "internalType": "address",
          "name": "_recipient",
          "type": "address"
        },
        {
          "internalType": "uint256",
          "name": "_numOfInitialValidators",
          "type": "uint256"
        },
        {
          "internalType": "uint256",
          "name": "_maxRotations",
          "type": "uint256"
        },
        {
          "internalType": "bytes",
          "name": "_calldata",
          "type": "bytes"
        },
        {
          "internalType": "uint256",
          "name": "_validUntil",
          "type": "uint256"
        }
      ],
      "name": "addTransaction",
      "outputs": [],
      "stateMutability": "payable",
      "type": "function"
    },
    {
      "inputs": [
        {
          "internalType": "bytes32",
          "name": "_txId",
          "type": "bytes32"
        }
      ],
      "name": "cancelTransaction",
      "outputs": [],
      "stateMutability": "nonpayable",
      "type": "function"
    },
    {
      "inputs": [
        {
          "internalType": "bytes32",
          "name": "_txId",
          "type": "bytes32"
        },
        {
          "internalType": "uint256",
          "name": "_tribunalIndex",
          "type": "uint256"
        },
        {
          "internalType": "bytes32",
          "name": "_commitHash",
          "type": "bytes32"
        }
      ],
      "name": "commitTribunalAppealVote",
      "outputs": [],
      "stateMutability": "nonpayable",
      "type": "function"
    },
    {
      "inputs": [
        {
          "internalType": "bytes32",
          "name": "_txId",
          "type": "bytes32"
        },
        {
          "internalType": "bytes32",
          "name": "_commitHash",
          "type": "bytes32"
        },
        {
          "internalType": "uint256",
          "name": "_validatorIndex",
          "type": "uint256"
        }
      ],
      "name": "commitVote",
      "outputs": [],
      "stateMutability": "nonpayable",
      "type": "function"
    },
    {
      "inputs": [],
      "name": "contracts",
      "outputs": [
        {
          "internalType": "contract IGenManager",
          "name": "genManager",
          "type": "address"
        },
        {
          "internalType": "contract ITransactions",
          "name": "genTransactions",
          "type": "address"
        },
        {
          "internalType": "contract IQueues",
          "name": "genQueue",
          "type": "address"
        },
        {
          "internalType": "contract IGhostFactory",
          "name": "ghostFactory",
          "type": "address"
        },
        {
          "internalType": "contract IGenLayerStaking",
          "name": "genStaking",
          "type": "address"
        },
        {
          "internalType": "contract IMessages",
          "name": "genMessages",
          "type": "address"
        },
        {
          "internalType": "contract IIdleness",
          "name": "idleness",
          "type": "address"
        },
        {
          "internalType": "contract ITribunalAppeal",
          "name": "tribunalAppeal",
          "type": "address"
        },
        {
          "internalType": "contract INFTMinter",
          "name": "nftMinter",
          "type": "address"
        }
      ],
      "stateMutability": "view",
      "type": "function"
    },
    {
      "inputs": [
        {
          "internalType": "address",
          "name": "_sender",
          "type": "address"
        },
        {
          "internalType": "uint256",
          "name": "_numOfInitialValidators",
          "type": "uint256"
        },
        {
          "internalType": "uint256",
          "name": "_maxRotations",
          "type": "uint256"
        },
        {
          "internalType": "bytes",
          "name": "_calldata",
          "type": "bytes"
        },
        {
          "internalType": "uint256",
          "name": "_saltNonce",
          "type": "uint256"
        },
        {
          "internalType": "uint256",
          "name": "_validUntil",
          "type": "uint256"
        }
      ],
      "name": "deploySalted",
      "outputs": [],
      "stateMutability": "payable",
      "type": "function"
    },
    {
      "inputs": [
        {
          "internalType": "address",
          "name": "_recipient",
          "type": "address"
        },
        {
          "internalType": "uint256",
          "name": "_value",
          "type": "uint256"
        },
        {
          "internalType": "bytes",
          "name": "_data",
          "type": "bytes"
        }
      ],
      "name": "executeMessage",
      "outputs": [
        {
          "internalType": "bool",
          "name": "success",
          "type": "bool"
        }
      ],
      "stateMutability": "nonpayable",
      "type": "function"
    },
    {
      "inputs": [
        {
          "internalType": "bytes32[]",
          "name": "_txIds",
          "type": "bytes32[]"
        }
      ],
      "name": "finalizeIdlenessTxs",
      "outputs": [],
      "stateMutability": "nonpayable",
      "type": "function"
    },
    {
      "inputs": [
        {
          "internalType": "bytes32",
          "name": "_txId",
          "type": "bytes32"
        }
      ],
      "name": "finalizeTransaction",
      "outputs": [],
      "stateMutability": "nonpayable",
      "type": "function"
    },
    {
      "inputs": [
        {
          "internalType": "bytes32",
          "name": "_txId",
          "type": "bytes32"
        }
      ],
      "name": "flushExternalMessages",
      "outputs": [],
      "stateMutability": "nonpayable",
      "type": "function"
    },
    {
      "inputs": [],
      "name": "getContracts",
      "outputs": [
        {
          "components": [
            {
              "internalType": "contract IGenManager",
              "name": "genManager",
              "type": "address"
            },
            {
              "internalType": "contract ITransactions",
              "name": "genTransactions",
              "type": "address"
            },
            {
              "internalType": "contract IQueues",
              "name": "genQueue",
              "type": "address"
            },
            {
              "internalType": "contract IGhostFactory",
              "name": "ghostFactory",
              "type": "address"
            },
            {
              "internalType": "contract IGenLayerStaking",
              "name": "genStaking",
              "type": "address"
            },
            {
              "internalType": "contract IMessages",
              "name": "genMessages",
              "type": "address"
            },
            {
              "internalType": "contract IIdleness",
              "name": "idleness",
              "type": "address"
            },
            {
              "internalType": "contract ITribunalAppeal",
              "name": "tribunalAppeal",
              "type": "address"
            },
            {
              "internalType": "contract INFTMinter",
              "name": "nftMinter",
              "type": "address"
            }
          ],
          "internalType": "struct IConsensusMain.ExternalContracts",
          "name": "",
          "type": "tuple"
        }
      ],
      "stateMutability": "view",
      "type": "function"
    },
    {
      "inputs": [
        {
          "internalType": "bytes32",
          "name": "role",
          "type": "bytes32"
        }
      ],
      "name": "getRoleAdmin",
      "outputs": [
        {
          "internalType": "bytes32",
          "name": "",
          "type": "bytes32"
        }
      ],
      "stateMutability": "view",
      "type": "function"
    },
    {
      "inputs": [
        {
          "internalType": "address",
          "name": "addr",
          "type": "address"
        }
      ],
      "name": "ghostContracts",
      "outputs": [
        {
          "internalType": "bool",
          "name": "isGhost",
          "type": "bool"
        }
      ],
      "stateMutability": "view",
      "type": "function"
    },
    {
      "inputs": [],
      "name": "globalRandomSeed",
      "outputs": [
        {
          "internalType": "bytes32",
          "name": "",
          "type": "bytes32"
        }
      ],
      "stateMutability": "view",
      "type": "function"
    },
    {
      "inputs": [
        {
          "internalType": "bytes32",
          "name": "role",
          "type": "bytes32"
        },
        {
          "internalType": "address",
          "name": "account",
          "type": "address"
        }
      ],
      "name": "grantRole",
      "outputs": [],
      "stateMutability": "nonpayable",
      "type": "function"
    },
    {
      "inputs": [
        {
          "internalType": "bytes32",
          "name": "role",
          "type": "bytes32"
        },
        {
          "internalType": "address",
          "name": "account",
          "type": "address"
        }
      ],
      "name": "hasRole",
      "outputs": [
        {
          "internalType": "bool",
          "name": "",
          "type": "bool"
        }
      ],
      "stateMutability": "view",
      "type": "function"
    },
    {
      "inputs": [],
      "name": "initialize",
      "outputs": [],
      "stateMutability": "nonpayable",
      "type": "function"
    },
    {
      "inputs": [
        {
          "internalType": "bytes32",
          "name": "_txId",
          "type": "bytes32"
        }
      ],
      "name": "leaderIdleness",
      "outputs": [],
      "stateMutability": "nonpayable",
      "type": "function"
    },
    {
      "inputs": [
        {
          "components": [
            {
              "internalType": "bytes32",
              "name": "txId",
              "type": "bytes32"
            },
            {
              "internalType": "uint256",
              "name": "saltAsAValidator",
              "type": "uint256"
            },
            {
              "internalType": "bytes32",
              "name": "txExecutionHash",
              "type": "bytes32"
            },
            {
              "internalType": "bytes32",
              "name": "messagesAndOtherFieldsHash",
              "type": "bytes32"
            },
            {
              "internalType": "bytes32",
              "name": "otherExecutionFieldsHash",
              "type": "bytes32"
            },
            {
              "internalType": "enum ITransactions.VoteType",
              "name": "resultValue",
              "type": "uint8"
            },
            {
              "components": [
                {
                  "internalType": "enum IMessages.MessageType",
                  "name": "messageType",
                  "type": "uint8"
                },
                {
                  "internalType": "address",
                  "name": "recipient",
                  "type": "address"
                },
                {
                  "internalType": "uint256",
                  "name": "value",
                  "type": "uint256"
                },
                {
                  "internalType": "bytes",
                  "name": "data",
                  "type": "bytes"
                },
                {
                  "internalType": "bool",
                  "name": "onAcceptance",
                  "type": "bool"
                },
                {
                  "internalType": "uint256",
                  "name": "saltNonce",
                  "type": "uint256"
                }
              ],
              "internalType": "struct IMessages.SubmittedMessage[]",
              "name": "messages",
              "type": "tuple[]"
            }
          ],
          "internalType": "struct IConsensusMain.LeaderRevealVoteParams",
          "name": "leaderRevealVoteParams",
          "type": "tuple"
        }
      ],
      "name": "leaderRevealVote",
      "outputs": [],
      "stateMutability": "nonpayable",
      "type": "function"
    },
    {
      "inputs": [],
      "name": "owner",
      "outputs": [
        {
          "internalType": "address",
          "name": "",
          "type": "address"
        }
      ],
      "stateMutability": "view",
      "type": "function"
    },
    {
      "inputs": [],
      "name": "pendingOwner",
      "outputs": [
        {
          "internalType": "address",
          "name": "",
          "type": "address"
        }
      ],
      "stateMutability": "view",
      "type": "function"
    },
    {
      "inputs": [
        {
          "internalType": "bytes32",
          "name": "",
          "type": "bytes32"
        }
      ],
      "name": "pendingTransactionValues",
      "outputs": [
        {
          "internalType": "uint256",
          "name": "",
          "type": "uint256"
        }
      ],
      "stateMutability": "view",
      "type": "function"
    },
    {
      "inputs": [
        {
          "internalType": "address",
          "name": "recipient",
          "type": "address"
        }
      ],
      "name": "proceedPendingQueueProcessing",
      "outputs": [],
      "stateMutability": "nonpayable",
      "type": "function"
    },
    {
      "inputs": [
        {
          "internalType": "bytes32",
          "name": "_txId",
          "type": "bytes32"
        }
      ],
      "name": "processIdleness",
      "outputs": [],
      "stateMutability": "nonpayable",
      "type": "function"
    },
    {
      "inputs": [
        {
          "internalType": "bytes32",
          "name": "_txId",
          "type": "bytes32"
        },
        {
          "internalType": "bytes32",
          "name": "_txExecutionHash",
          "type": "bytes32"
        },
        {
          "internalType": "uint256",
          "name": "_processingBlock",
          "type": "uint256"
        },
        {
          "internalType": "address",
          "name": "_operator",
          "type": "address"
        },
        {
          "internalType": "bytes",
          "name": "_eqBlocksOutputs",
          "type": "bytes"
        },
        {
          "internalType": "bytes",
          "name": "_vrfProof",
          "type": "bytes"
        }
      ],
      "name": "proposeReceipt",
      "outputs": [],
      "stateMutability": "nonpayable",
      "type": "function"
    },
    {
      "inputs": [
        {
          "internalType": "bytes32[]",
          "name": "_txIds",
          "type": "bytes32[]"
        }
      ],
      "name": "redButtonFinalize",
      "outputs": [],
      "stateMutability": "nonpayable",
      "type": "function"
    },
    {
      "inputs": [],
      "name": "renounceOwnership",
      "outputs": [],
      "stateMutability": "nonpayable",
      "type": "function"
    },
    {
      "inputs": [
        {
          "internalType": "bytes32",
          "name": "role",
          "type": "bytes32"
        },
        {
          "internalType": "address",
          "name": "callerConfirmation",
          "type": "address"
        }
      ],
      "name": "renounceRole",
      "outputs": [],
      "stateMutability": "nonpayable",
      "type": "function"
    },
    {
      "inputs": [
        {
          "internalType": "bytes32",
          "name": "_txId",
          "type": "bytes32"
        },
        {
          "internalType": "uint256",
          "name": "_tribunalIndex",
          "type": "uint256"
        },
        {
          "internalType": "bytes32",
          "name": "_voteHash",
          "type": "bytes32"
        },
        {
          "internalType": "enum ITransactions.VoteType",
          "name": "_voteType",
          "type": "uint8"
        },
        {
          "internalType": "bytes32",
          "name": "_otherExecutionFieldsHash",
          "type": "bytes32"
        },
        {
          "internalType": "uint256",
          "name": "_nonce",
          "type": "uint256"
        }
      ],
      "name": "revealTribunalAppealVote",
      "outputs": [],
      "stateMutability": "nonpayable",
      "type": "function"
    },
    {
      "inputs": [
        {
          "internalType": "bytes32",
          "name": "_txId",
          "type": "bytes32"
        },
        {
          "internalType": "bytes32",
          "name": "_voteHash",
          "type": "bytes32"
        },
        {
          "internalType": "enum ITransactions.VoteType",
          "name": "_voteType",
          "type": "uint8"
        },
        {
          "internalType": "bytes32",
          "name": "_otherExecutionFieldsHash",
          "type": "bytes32"
        },
        {
          "internalType": "uint256",
          "name": "_nonce",
          "type": "uint256"
        },
        {
          "internalType": "uint256",
          "name": "_validatorIndex",
          "type": "uint256"
        }
      ],
      "name": "revealVote",
      "outputs": [],
      "stateMutability": "nonpayable",
      "type": "function"
    },
    {
      "inputs": [
        {
          "internalType": "bytes32",
          "name": "role",
          "type": "bytes32"
        },
        {
          "internalType": "address",
          "name": "account",
          "type": "address"
        }
      ],
      "name": "revokeRole",
      "outputs": [],
      "stateMutability": "nonpayable",
      "type": "function"
    },
    {
      "inputs": [
        {
          "internalType": "address",
          "name": "_ghostFactory",
          "type": "address"
        },
        {
          "internalType": "address",
          "name": "_genManager",
          "type": "address"
        },
        {
          "internalType": "address",
          "name": "_genTransactions",
          "type": "address"
        },
        {
          "internalType": "address",
          "name": "_genQueue",
          "type": "address"
        },
        {
          "internalType": "address",
          "name": "_genStaking",
          "type": "address"
        },
        {
          "internalType": "address",
          "name": "_genMessages",
          "type": "address"
        },
        {
          "internalType": "address",
          "name": "_idleness",
          "type": "address"
        },
        {
          "internalType": "address",
          "name": "_tribunalAppeal",
          "type": "address"
        },
        {
          "internalType": "address",
          "name": "_nftMinter",
          "type": "address"
        }
      ],
      "name": "setExternalContracts",
      "outputs": [],
      "stateMutability": "nonpayable",
      "type": "function"
    },
    {
      "inputs": [
        {
          "internalType": "bytes32",
          "name": "_txId",
          "type": "bytes32"
        }
      ],
      "name": "submitAppeal",
      "outputs": [],
      "stateMutability": "payable",
      "type": "function"
    },
    {
      "inputs": [
        {
          "internalType": "bytes4",
          "name": "interfaceId",
          "type": "bytes4"
        }
      ],
      "name": "supportsInterface",
      "outputs": [
        {
          "internalType": "bool",
          "name": "",
          "type": "bool"
        }
      ],
      "stateMutability": "view",
      "type": "function"
    },
    {
      "inputs": [
        {
          "internalType": "address",
          "name": "newOwner",
          "type": "address"
        }
      ],
      "name": "transferOwnership",
      "outputs": [],
      "stateMutability": "nonpayable",
      "type": "function"
    },
    {
      "inputs": [],
      "name": "txGlobalCounter",
      "outputs": [
        {
          "internalType": "uint256",
          "name": "",
          "type": "uint256"
        }
      ],
      "stateMutability": "view",
      "type": "function"
    }
  ],
  "bytecode": "0x608080604052346015576186a0908161001b8239f35b600080fdfe61032080604052600436101561001457600080fd5b600061020052610200513560e01c90816301ffc9a7146146815750806303d1491714614081578063103abeac1461406357806316c0e8de146133d9578063248a9ca3146133b35780632af7cb7f146133465780632f2ff15d1461331557806336568abe146132cb5780633bd15f701461328b5780635c970d281461315c5780635e1740331461313c5780636a9c499d146130485780636bbd5ad614612eb45780636c0f79b614612e2d57806370ba333914612dee578063715018a614612d645780637440c21b14612d2157806377b3d29314612c8b57806379ba509714612c355780638129fc1c14612a5557806385d2d27414612a335780638b5de1bc146127485780638da5cb5b1461271057806391d14854146126b25780639e0c615f146125fe578063a217fddf146125de578063a560cd0c146123a8578063b2efda8314611d7b578063c3a2a93a14611bd8578063c7e6e76614611b99578063cb225db114611b79578063cbc2440a14611a8d578063d4f6aa93146119cf578063d547741f14611991578063dfcd9aab14611961578063e30c397814611929578063e71d519614610c5c578063f2fde38b14610bcc578063f5435a1b14610776578063f5acca71146102415763ffa1ad74146101eb57600080fd5b3461023a576102005136600319011261023a576040805161023691610210908261478f565b6005815264312e312e3960d81b6020820152604051918291602083526020830190614947565b0390f35b6102005180fd5b3461023a5761024f366148a6565b60015460405163f5acca7160e01b81526102005190929183906001600160a01b0316818061028086600483016153e2565b039161020051905af1801561061b5761020051928392839290918391829182916106d6575b5061020095919551945b8451861015610698576102005196875b845181101561068d576102d288886153b8565b516102dd82876153b8565b51146102eb576001016102bf565b509296509460015b610650576001546001600160a01b03169061030e81876153b8565b51916040519263255709e560e11b845260048401528260248161020051935afa91821561061b576102005192610629575b5060025460c083018051909391610389916020916001600160a01b03918216911661036a868c6153b8565b51604051637112610560e11b8152948593849283929160048401614b76565b039161020051905af1801561061b576105e5575b506103a8828b6153b8565b511561044b575061041f6001926103bf83886153b8565b51610429575b6103e26103d2848a6153b8565b51858060a01b0383511690617047565b6103ec83896153b8565b5160008051602061854b8339815191526102005161020051a2838060a01b0390511661041883896153b8565b519061726a565b01949591956102af565b610446610436848a6153b8565b51858060a01b0383511690616e05565b6103c5565b9161045682886153b8565b516102005152600a6020526040610200512054801515600014610506579061041f9160a0600195610487868c6153b8565b516102005152600a6020526102005160406102005120550161020051610200516102005161020051858a8060a01b038651165af16104c3615c71565b50156104d1575b50506103e2565b6000805160206184cb83398151915260206104ec878d6153b8565b5192888060a01b0390511693604051908152a38b806104ca565b50610280830180519384610524575b50506001925061041f906103e2565b60a0600180821b0384511691019460018060a01b0386511690823b1561023a57610568926040518080958194635b8346e560e11b8352610200519660048401614b76565b039161020051905af190816105c4575b5060019461041f9392916105bd576000805160206184cb83398151915260206105a1878d6153b8565b5192888060a01b039051169351604051908152a35b908b610515565b50506105b6565b61020051919392916105d59161478f565b6102005161023a5790918c610578565b6020813d8211610613575b816105fd6020938361478f565b8101031261023a5761060e90614aa9565b61039d565b3d91506105f0565b6040513d61020051823e3d90fd5b6106499192503d8061020051833e610641818361478f565b810190614bd3565b908961033f565b8061065d600192876153b8565b517fd157a8824e3093207095e0855163da28b596e2c5f19ba73ea473c2346e05b15b6102005161020051a261041f565b5092969590956102f3565b867f3d139c84ad9350b1f396f3d75cb0770c4f495459f8ef8755e5335a12632bac3d9260609260405192835260208301526040820152a16102005180f35b95505050509250503d8061020051833e6106f0818361478f565b81019060c08183031261023a5780519260208201519160408101519260608201516001600160401b03811161023a578561072b91840161535b565b9160808101516001600160401b03811161023a578661074b918301615d37565b9560a08201516001600160401b03811161023a576107699201615d37565b95909391949591876102a5565b3461023a57610784366148a6565b61078c6176b6565b610200515b8151811015610bc5576107a481836153b8565b5160015460405163255709e560e11b815260048101839052610200519293929091829060249082906001600160a01b03165afa90811561061b576102005191610ba8575b5060608101805190600f821015610b465784916005148015610b90575b8015610b78575b8015610b60575b15610991575060025460c090920151604051637112610560e11b81529260209284926001600160a01b039283169284928392610853921660048401614b76565b039161020051905af190811561061b576102005191610958575b50806108e1575b600192505b6108b95761088781846153b8565b517fd157a8824e3093207095e0855163da28b596e2c5f19ba73ea473c2346e05b15b6102005161020051a25b01610791565b6108c381846153b8565b5160008051602061854b8339815191526102005161020051a26108b3565b60015460405163b2efda8360e01b815260048101949094526102005160a09185916024918391906001600160a01b03165af192831561061b57600193610928575b50610874565b6109489060a03d8111610951575b610940818361478f565b810190615cfe565b50505050610922565b503d610936565b90506020813d8211610989575b816109726020938361478f565b8101031261023a5761098390614aa9565b8461086d565b3d9150610965565b905051600f811015610b46576001036109c55760a001516001926109be916001600160a01b0316906176ec565b5081610879565b60025460c0909101516040805163910048fb60e01b815292909183916001600160a01b039081169183918291610a01918a911660048401614b76565b039161020051905af190811561061b576102005191610b16575b5080610a2b575b60019250610879565b5060015460405163729542c160e01b815260048101849052610200519091602091839160249183916001600160a01b03165af190811561061b576102005191610add575b508015610a225760015460405163b2efda8360e01b815260048101949094526102005160a09185916024918391906001600160a01b03165af192831561061b57600193610abd575b50610a22565b610ad49060a03d811161095157610940818361478f565b50505050610ab7565b90506020813d8211610b0e575b81610af76020938361478f565b8101031261023a57610b0890614aa9565b84610a6f565b3d9150610aea565b610b37915060403d8111610b3f575b610b2f818361478f565b810190614b5c565b905084610a1b565b503d610b25565b634e487b7160e01b61020051526021600452602461020051fd5b5080519150600f821015610b46578491600614610813565b5080519150600f821015610b46578491600c1461080c565b5080519150600f821015610b46578491600d14610805565b610bbf91503d8061020051833e610641818361478f565b846107e8565b6102005180f35b3461023a57602036600319011261023a57610be56147c7565b610bed6176b6565b60008051602061860b83398151915280546001600160a01b0319166001600160a01b039283169081179091556000805160206184eb8339815191525461020051919216907f38d16b8cac22d99fc7c124b9cd0de2d3fa1faef420bfe791d8c362d765e227009080a36102005180f35b60c036600319011261023a57610c706147c7565b610c786147f3565b6084356001600160401b03811161023a57610c9790369060040161485b565b6001600160a01b0383161580159290806119225784935b8351929586939092901561190d57600b5460018101908181116118bf5760001982036118fd57505061020051600b555b906118e0575b6118d9575b600c54600b5460001943014381116118bf57604051916020830193845260408301524060608201524260808201524360a082015260a08152610d2c60c08261478f565b519020916001600160a01b03168061189157506003546040516374c1532360e01b8152610200805160048301525190965060209187916024918391906001600160a01b03165af1801561061b57611857575b60035460405163b8f3c96360e01b81529550602090869060049082906001600160a01b03165afa94851561061b57610200519561181b575b5061020080516001600160a01b0387811691829052600960209081529251604090819020805460ff19166001179055600854905163785f8ee360e01b815288831660048201819052949190921692919081602481865afa90811561061b5761020051916117e1575b5015611785575b5050505b60405193610e368561473c565b6001600160a01b03908116855290811660208086019190915285821660408087018290526044356060880152606435608088015260a087019490945260c086019490945260a43560e0860152346101008601526002549251630db7242360e21b81526004810194909452911692919081602481865afa90811561061b576102005191611753575b5060408201519060a0830151906040519160208301936001600160601b03199060601b1684524260348401526054830152607482015260748152610f0260948261478f565b5190206101605260018060a01b036040820151166040518093633b4d69ad60e11b82528180610f3d6102005195610160519060048401614b76565b039161020051905af191821561061b57610200519261020051610100526116f9575b5060a08101516040516020810191825261010051604082015260408152610f8760608261478f565b51902060a08201819052610200515460408301516001600160a01b0390811692911690813b1561023a5760405192630bc24f7560e41b84526004840152602483015261016051604483015281606481610200519361020051905af1801561061b576116de575b506004805460a083015160405163589686c160e11b8152928301524260248301529091906001600160a01b0316602083604481845afa801561061b5761020051610140526116a1575b6001546001600160a01b0390811660e052825160405163900cf0cf60e01b815294501690602090849060049082905afa92831561061b57610200519361166d575b506020828101516040808501516080860151606087015160a088015161012087905293519893959394909391926001600160a01b03908116929116906110bd908a61478f565b61020051895260c0880151966101205150610100604051996110e2610120518c61478f565b610200518b52601f19610120510136610120518d013760e0810151608052015160c05260405160a05261111660a051614758565b6102005160a0515261020051506102005150610200516101205160a051015261020051604060a05101526001606060a0510152608060a051015260a08051015260c060a051015260018060a01b03610140511660e060a05101526101005161010060a051015261012060a051015261014060a051015261016060a05101526101605161018060a05101526101a060a0510152610200516101c060a0510152610200516101e060a051015261020060a051015261022060a051015261024060a051015260805161026060a051015260c05161028060a051015260405163f52aa28360e01b81526101605160048201526040602482015261121b6044820160a0515161541c565b6112316101205160a05101516064830190614a49565b611245604060a05101516084830190618421565b611259606060a051015160a4830190618421565b60a08051608001516001600160a01b0390811660c48401528151820151811660e4840152815160c001518116610104840152815160e0015116610124830152805161010001516101448301528051610120015161016483015280516101400151610184830152805161016001516101a4830152805161018001516101c483015280516101a001516101e483015280516101c0015161020483015280516101e001516102248301525161020001516102a061024483015261133c90611322906102e4840190614947565b60a051610220015183820360431901610264850152614947565b60a05161024001518282036043190161028484015280518083526101205161020051938101939201915b8181106116375750505061026060a05101516102a483015261028060a05101516102c48301528180610120519203816102005160e0515af1801561061b57611606575b50600654604051906001600160a01b03166113c382614720565b42825261012051820142815260408301610200518152606084016102005181526080850161020051815260a086019161020051835260c087019361020051855260e0880195610200518752873b1561023a576040519863c0d6438960e01b8a526101605160048b01525160248a01525160448901525160648801525160848701525160a48601525160c48501525160e4840152516101048301528161012481610200519361020051905af1801561061b576115eb575b50346115cd575b6008546004805460405163900cf0cf60e01b81526101205190936001600160a01b039081169391928592918391165afa91821561061b57610200519261158f575b50803b1561023a57604051627381e560e11b81526001600160a01b0385166004820152610160516024820152604481019290925261020051908290606490829084905af1801561061b57611574575b501561154b576101405161016051610200516001600160a01b03928316939092169160008051602061858b8339815191529080a46102005180f35b506040516101005181526000805160206185eb83398151915261016051916101205190a2610bc5565b610200516115819161478f565b6102005161023a5782611510565b909150610120513d61012051116115c6575b6115ab818361478f565b816101205191810103126115c1575190846114c1565b600080fd5b503d6115a1565b610160516102005152600a6101205152346040610200512055611480565b610200516115f89161478f565b6102005161023a5782611479565b610120513d8111611630575b61161c818361478f565b816101205191810103126115c157516113a9565b503d611612565b90919260606001916040865180518352610120518101516101205184015201516040820152019361012051019101919091611366565b9092506020813d602011611699575b816116896020938361478f565b810103126115c157519185611077565b3d915061167c565b6020833d6020116116d6575b816116ba6020938361478f565b8101031261023a576116cd600493614a35565b61014052611036565b3d91506116ad565b610200516116eb9161478f565b6102005161023a5783610fed565b91503d8061020051843e61170d818461478f565b82019160608184031261023a5761172381614aa9565b9060208101519360408201516001600160401b03811161023a57611747920161535b565b50916101005283610f5f565b90506020813d60201161177d575b8161176e6020938361478f565b810103126115c1575184610ebd565b3d9150611761565b813b1561023a576040519263ee1fe2ad60e01b84526004840152602483015281604481610200519361020051905af1801561061b576117c6575b8080610e25565b610200516117d39161478f565b6102005161023a57856117bf565b90506020813d602011611813575b816117fc6020938361478f565b8101031261023a5761180d90614aa9565b89610e1e565b3d91506117ef565b9094506020813d60201161184f575b816118376020938361478f565b8101031261023a5761184890614a35565b9385610db6565b3d915061182a565b6020853d602011611889575b816118706020938361478f565b8101031261023a57611883600495614a35565b50610d7e565b3d9150611863565b6102005152600960205260ff604061020051205416610e295763306e9f2560e21b6102005152600461020051fd5b634e487b7160e01b61020051526011600452602461020051fd5b5033610ce9565b50336102005152600960205260ff60406102005120541615610ce4565b600019146118bf57600b55610cde565b6313064eb160e11b6102005152600461020051fd5b3393610cae565b3461023a576102005136600319011261023a5760008051602061860b833981519152546040516001600160a01b039091168152602090f35b3461023a57602036600319011261023a576004356102005152600a60205260206040610200512054604051908152f35b3461023a57604036600319011261023a576119c76004356119b06147f3565b906119c26119bd82614a88565b616b5d565b616c50565b506102005180f35b3461023a57606036600319011261023a5760075460043590602435906001600160a01b0316803b1561023a57604051906311bdd61b60e11b8252836004830152826024830152604435604483015233606483015281608481610200519361020051905af1801561061b57611a72575b5033917f6514dec7e5f5d7d0dcb8a6167531988b5ac3c442dffd89335942f1fbfa71dc576102005161020051a46102005180f35b61020051611a7f9161478f565b6102005161023a5782611a3e565b3461023a5760c036600319011261023a57606435602435600435600583101561023a576007546001600160a01b0316803b1561023a576040519063db67487b60e01b82528260048301528360248301526044356044830152611af26064830186614a49565b608435608483015260a43560a48301523360c48301528160e481610200519361020051905af1801561061b57611b5e575b50611b316040518094614a49565b7fb3a6dcf1e56feb92caee0711bfd92afd8d3676f66a059b62cc0e4ab5dc461bf860203394a46102005180f35b61020051611b6b9161478f565b6102005161023a5783611b23565b3461023a576102005136600319011261023a576020600b54604051908152f35b3461023a57602036600319011261023a57611bb2615d9c565b611bbd600435617f07565b505060016000805160206185ab833981519152556102005180f35b3461023a576102005136600319011261023a57604051611bf78161473c565b6102005181526102005160208201526102005160408201526102005160608201526102005160808201526102005160a08201526102005160c08201526102005160e082015261010061020051910152610120604051611c558161473c565b60018060a01b036102005154169081815260018060a01b03600154166020820190815260018060a01b03600254166040830190815260018060a01b03600354166060840190815260018060a01b03600454166080850190815260018060a01b03600554169160a0860192835260018060a01b03600654169360c0870194855260018060a01b03600754169560e0880196875261010060018060a01b0360085416980197885260405198895260018060a01b03905116602089015260018060a01b03905116604088015260018060a01b03905116606087015260018060a01b03905116608086015260018060a01b0390511660a085015260018060a01b0390511660c084015260018060a01b0390511660e083015260018060a01b03905116610100820152f35b3461023a57602036600319011261023a5760043560018060a01b0360015416906040519163255709e560e11b83528160048401528260248161020051935afa91821561061b576102005192612389575b5060065460405163e70c38f160e01b81529060c090829060049082906001600160a01b03165afa90811561061b57610200519161235a575b5061020051606084018051600f811015610b46576005141580612345575b612192575b5060015460405163b2efda8360e01b81526004810185905261020051909160a091839160249183916001600160a01b03165af191821561061b5761020051936102005190610200519261020051946102005196612164575b5015928361213d575b83156120ee575b5050506120d957600254604051637112610560e11b81529060209082906001600160a01b03168180611ec48a8a60048401614b76565b039161020051905af190811561061b57610200519161209f575b501561208a5715611f2a57610bc59350611f1b575b611efd8183617047565b8160008051602061854b8339815191526102005161020051a261726a565b611f258183616e05565b611ef3565b506102008051839052600a6020525160409020548015611fc4578260a0610bc595826102005152600a60205261020051604061020051205501610200516102005161020051610200518660018060a01b038651165af1611f88615c71565b5015611f97575b505050611efd565b516040519283526001600160a01b0316916000805160206184cb83398151915290602090a3838281611f8f565b50610280830180519384611fdf575b5050610bc59250611efd565b60a001805190946001600160a01b03848116921690823b1561023a5761201f926040518080958194635b8346e560e11b8352610200519660048401614b76565b039161020051905af1908161206f575b50610bc59484916120675760206000805160206184cb8339815191529160018060a01b039051169351604051908152a35b8380611fd3565b505050612060565b6102005161207c9161478f565b6102005161023a578561202f565b636cdf1be560e11b6102005152600461020051fd5b90506020813d6020116120d1575b816120ba6020938361478f565b8101031261023a576120cb90614aa9565b86611ede565b3d91506120ad565b63e1b3b3b760e01b6102005152600461020051fd5b8015159350909183612134575b508261210c575b5050868080611e8e565b61212b9250612122608091606084015190615cf1565b91015190615cf1565b42108680612102565b159250886120fb565b92508115158061214e575b92611e87565b5061215d608082015183615cf1565b4210612148565b93509450945050612184915060a03d60a01161095157610940818361478f565b939590929192939489611e7e565b61219b84617f07565b9151600f811015610b4657600f831015610b4657821490816122e5575b5015611e265760041490506121d0575b600184611e26565b60065460405163149ecac960e11b8152600481018490529061010090829060249082906001600160a01b03165afa801561061b57610200519061225e575b60e00151801515915081612238575b50156121c8576355e03f3360e11b6102005152600461020051fd5b6060830151612256925061224b91615cf1565b608083015190615cf1565b42108461221d565b50610100813d82116122dd575b81612279610100938361478f565b8101031261023a5760405160e091829061229283614720565b805183526020810151602084015260408101516040840152606081015160608401526080810151608084015260a081015160a084015260c081015160c084015201518282015261220e565b3d915061226b565b600f811015915081610b465760058114918215612335575b8215612324575b8215612313575b5050866121b8565b909150610b4657600c14868061230b565b809250610b4657600d811491612304565b50610200516006821492506122fd565b508051600f811015610b465760061415611e21565b61237c915060c03d60c011612382575b612374818361478f565b810190615ca1565b83611e03565b503d61236a565b6123a19192503d8061020051833e610641818361478f565b9082611dcb565b3461023a57606036600319011261023a576004356123c46147f3565b906044356001600160401b03811161023a576123e4903690600401614879565b92909160018060a01b03600154166040519063255709e560e11b82528260048301528160248161020051935afa90811561061b5761020051916125c1575b5060c00151600254604051634113628960e11b81526001600160a01b0392831695929091602091839116818061245c888b60048401614b76565b03915afa90811561061b576102005191612587575b5015612572576102005154604051631c5f1acf60e31b815260048101869052936001600160a01b0390911690602085602481855afa94851561061b57610200519561253b575b5060209394956124dd60405198899586948594634f51e1cf60e01b865260048601614b1b565b039161020051905af190811561061b576102005191612505575b610bc5935081600c556178bc565b90506020833d602011612533575b816125206020938361478f565b810103126115c157610bc59251906124f7565b3d9150612513565b9394506020843d60201161256a575b816125576020938361478f565b810103126115c1576020935194936124b7565b3d915061254a565b63042202b560e11b6102005152600461020051fd5b90506020813d6020116125b9575b816125a26020938361478f565b8101031261023a576125b390614aa9565b86612471565b3d9150612595565b6125d891503d8061020051833e610641818361478f565b85612422565b3461023a576102005136600319011261023a576020604051610200518152f35b3461023a57606036600319011261023a576126176147c7565b6044356001600160401b03811161023a5761263690369060040161485b565b6005546001600160a01b031633141580612690575b61267b5760209161020051916102005191848251920190602435905af1612670615c71565b506040519015158152f35b630fc7a3f360e31b6102005152600461020051fd5b506000805160206184eb833981519152546001600160a01b031633141561264b565b3461023a57604036600319011261023a576126cb6147f3565b600435610200515260008051602061856b833981519152602052604061020051209060018060a01b0316600052602052602060ff604060002054166040519015158152f35b3461023a576102005136600319011261023a576000805160206184eb833981519152546040516001600160a01b039091168152602090f35b602036600319011261023a5760043561275f615d9c565b6002546040805162fd067160e41b81526004810184905291829060249082906001600160a01b03165afa90811561061b5761020051916129b3575b506020810180511515918261299c575b82612984575b5081612914575b506128ff57600154604051631b059a5960e01b8152600481018390523460248201526102005190918290604490829084906001600160a01b03165af1801561061b5761020051918291829190612893575b501561284a575060018060a01b03169060008051602061850b8339815191526102005161020051a35b60016000805160206185ab833981519152556102005180f35b9190507f08e6523db104b48b6f1a359653498b9739ec31f6e03abb21e7acf4d73f0a48ff604051348152604060208201528061288b33956040830190615c34565b0390a3612831565b925050503d8061020051833e6128a9818361478f565b810160a08282031261023a578151906001600160401b03821161023a576128d1918301614ab6565b6020820151906128e360408401614a35565b6128f4608060608601519501614aa9565b919250925084612808565b6359ce6fdf60e11b6102005152600461020051fd5b5160065460405163e70c38f160e01b8152925060c090839060049082906001600160a01b03165afa91821561061b5761295d926080916102005191612965575b50015190615cf1565b4210826127b7565b61297e915060c03d60c01161238257612374818361478f565b85612954565b909150516004811015610b46576003141590836127b0565b809250516004811015610b465760021415916127aa565b90506040813d604011612a2b575b816129ce6040938361478f565b8101031261023a5760408051919082016001600160401b03811183821017612a1157604052805190600482101561023a576020918352015160208201528261279a565b634e487b7160e01b61020051526041600452602461020051fd5b3d91506129c1565b3461023a57606036600319011261023a57610bc560443560243560043561598d565b3461023a576102005136600319011261023a576000805160206185cb8339815191525460ff8160401c1615906001600160401b03811680159081612c2d575b6001149081612c23575b159081612c1a575b50612c055767ffffffffffffffff1981166001176000805160206185cb8339815191525581612bd8575b50612ad961847c565b612ae161847c565b612ae961847c565b3315612bbc57612af83361784e565b612b0061847c565b612b0861847c565b60016000805160206185ab83398151915255612b2261847c565b60001943014381116118bf57604051602081019140825242604082015243606082015260608152612b5460808261478f565b519020600c55612b65576102005180f35b60ff60401b196000805160206185cb83398151915254166000805160206185cb833981519152557fc7f505b2f371ae2175ee4913f4499e1f2633a7b5936321eed1cdaeb6115181d2602060405160018152a1610bc5565b631e4fbdf760e01b610200515261020051600452602461020051fd5b68ffffffffffffffffff191668010000000000000001176000805160206185cb8339815191525581612ad0565b63f92ee8a960e01b6102005152600461020051fd5b90501583612aa6565b303b159150612a9e565b839150612a94565b3461023a576102005136600319011261023a5760008051602061860b83398151915254336001600160a01b0390911603612c7257610bc53361784e565b63118cdaa760e01b610200515233600452602461020051fd5b3461023a57602036600319011261023a57612ca46147c7565b6002546040516377b3d29360e01b81526001600160a01b03928316600482015261020051909260209284926024928492165af1801561061b57612ce8576102005180f35b6020813d602011612d19575b81612d016020938361478f565b8101031261023a57612d1290614aa9565b5080610bc5565b3d9150612cf4565b3461023a57602036600319011261023a576001600160a01b03612d426147c7565b1661020051526009602052602060ff6040610200512054166040519015158152f35b3461023a576102005136600319011261023a57612d7f6176b6565b60008051602061860b83398151915280546001600160a01b03199081169091556000805160206184eb8339815191528054918216905561020051906001600160a01b03167f8be0079c531659141344cd1fd0a4f28419497f9722a3daafe3b4186f6b6457e08280a36102005180f35b3461023a57602036600319011261023a57612e07615d9c565b612e13336004356176ec565b5060016000805160206185ab833981519152556102005180f35b3461023a576102005136600319011261023a576102005154600154600254600354600454600554600654600754600854604080516001600160a01b039a8b168152988a1660208a01529689169688019690965293871660608701529186166080860152851660a0850152841660c0840152831660e083015290911661010082015261012090f35b3461023a5761012036600319011261023a57612ece6147c7565b612ed66147f3565b6044356001600160a01b03811692919083900361023a57612ef56147dd565b6084356001600160a01b0381169081900361023a5760a4356001600160a01b0381169081900361023a5760c4356001600160a01b038116919082900361023a5760e4356001600160a01b038116939084900361023a57610104356001600160a01b038116959086900361023a577f2091ed7d7f89754c3467fa1b52128e3448e1d9f5ebee4686d2a33ab3a91c9f999861012098612f906176b6565b600380546001600160a01b039283166001600160a01b031991821681179092556102005180549b84169b82168c179055600180548216851790556002805495909316948116851790925560048054831686179055600580548316871790556006805483168817905560078054831689179055600880549092168917909155604080519182526020820199909952978801526060870152608086015260a085015260c084015260e0830152610100820152a16102005180f35b3461023a57602036600319011261023a5760043560018060a01b0360015416906040519163255709e560e11b83528160048401528260248161020051935afa91821561061b57610200519261311d575b5060055460c0909201516001600160a01b039283169216823b1561023a576040516338444e0560e01b81526102005160048201939093526001600160a01b039091166024820152918290818060448101039161020051905af1801561061b57613102576102005180f35b6102005161310f9161478f565b6102005161023a5780610bc5565b6131359192503d8061020051833e610641818361478f565b9082613098565b3461023a576102005136600319011261023a576020600c54604051908152f35b3461023a57602036600319011261023a576001546040516363f373b360e11b8152600480359082018190526102005190928290602490829084906001600160a01b03165af191821561061b57610200519283928391613259575b506001600160a01b03169182613204575b505050610200515b8151811015610bc557806131e5600192846153b8565b516000805160206184ab8339815191526102005161020051a2016131cf565b60018060a01b03168092827f1c717affb0f2d0bd7bccd509af90bc762d34bc45ad812ef154a3f5efdae1ca6b6102005161020051a460008051602061850b8339815191526102005161020051a38180806131c7565b9193505061327c91503d8061020051833e613274818361478f565b8101906158f6565b509590945092509050846131b6565b3461023a5760c036600319011261023a57604435600581101561023a57612831906132b4615d9c565b60a435906084359060643590602435600435615429565b3461023a57604036600319011261023a576132e46147f3565b336001600160a01b03821603613300576119c790600435616c50565b63334bd91960e11b6102005152600461020051fd5b3461023a57604036600319011261023a576119c76004356133346147f3565b906133416119bd82614a88565b616ba7565b3461023a5760c036600319011261023a5761335f6147dd565b6084356001600160401b03811161023a5761337e903690600401614879565b9160a435926001600160401b03841161023a576133a2610bc5943690600401614879565b939092604435602435600435614dfd565b3461023a57602036600319011261023a5760206133d1600435614a88565b604051908152f35b60c036600319011261023a576133ed6147c7565b6064356001600160401b03811161023a5761340c90369060040161485b565b9060843591821561404e576001600160a01b0382161580158161404757835b83519092901561190d57600b5460018101908181116118bf57600019820361403757505061020051600b555b9061401a575b614013575b600c54600b5460001943014381116118bf57604051916020830193845260408301524060608201524260808201524360a082015260a081526134a560c08261478f565b51902090602060018060a01b0360035416956024604051809881936374c1532360e01b8352600483015261020051905af1801561061b57613fd9575b60035460405163b8f3c96360e01b81529550602090869060049082906001600160a01b03165afa94851561061b576102005195613f9d575b5061020080516001600160a01b03878116909152600960209081529151604090819020805460ff19166001179055600854905163785f8ee360e01b8152968216600488018190529691169181602481855afa90811561061b576102005191613f63575b5015613f02575b50604051936135918561473c565b845260018060a01b0316602084015260018060a01b03841660408401526024356060840152604435608084015260a083015260c082015260a43560e08201523461010082015260018060a01b036002541690604051630db7242360e21b815260018060a01b0384166004820152602081602481865afa90811561061b576102005191613ed0575b5060408201519060a0830151906040519160208301936001600160601b03199060601b168452426034840152605483015260748201526074815261365d60948261478f565b5190206102805260018060a01b036040820151166040518093633b4d69ad60e11b825281806136986102005195610280519060048401614b76565b039161020051905af191821561061b5761020051926102005161022052613e76575b5060a081015160405160208101918252610220516040820152604081526136e260608261478f565b51902060a08201819052610200515460408301516001600160a01b0390811692911690813b1561023a5760405192630bc24f7560e41b84526004840152602483015261028051604483015281606481610200519361020051905af1801561061b57613e5b575b506004805460a083015160405163589686c160e11b8152928301524260248301529091906001600160a01b0316602083604481845afa801561061b576102005161026052613e1e575b6001546001600160a01b039081166101e052825160405163900cf0cf60e01b815294501690602090849060049082905afa92831561061b576102005193613dea575b506020828101516040808501516080860151606087015160a088015161024087905293519893959394909391926001600160a01b0390811692911690613819908a61478f565b61020051895260c08801519661024051506101006040519961383e610240518c61478f565b610200518b52601f19610240510136610240518d013760e08101516101805201516101c0526040516101a0526138766101a051614758565b610200516101a051526102005150610200515061020051610240516101a05101526102005160406101a0510152600160606101a051015260806101a051015260a06101a051015260c06101a051015260018060a01b03610260511660e06101a0510152610220516101006101a05101526101206101a05101526101406101a05101526101606101a0510152610280516101806101a05101526101a080510152610200516101c06101a0510152610200516101e06101a05101526102006101a05101526102206101a05101526102406101a0510152610180516102606101a05101526101c0516102806101a051015260405163f52aa28360e01b815261028051600482015260406024820152613992604482016101a0515161541c565b6139a9610240516101a05101516064830190614a49565b6139be60406101a05101516084830190618421565b6139d360606101a051015160a4830190618421565b6101a08051608001516001600160a01b0390811660c4840152815160a00151811660e4840152815160c001518116610104840152815160e0015116610124830152805161010001516101448301528051610120015161016483015280516101400151610184830152805161016001516101a4830152805161018001516101c483015280518101516101e483015280516101c0015161020483015280516101e001516102248301525161020001516102a0610244830152613ab790613a9c906102e4840190614947565b6101a051610220015183820360431901610264850152614947565b6102406101a05101519060431983820301610284840152815190818152610240510191610240510190610200515b818110613db4575050506102606101a05101516102a48301526102806101a05101516102c4830152818061024051920381610200516101e0515af1801561061b57613d83575b50600654604051906001600160a01b0316613b4582614720565b42825261024051820142815260408301610200518152606084016102005181526080850161020051815260a086019161020051835260c087019361020051855260e0880195610200518752873b1561023a576040519863c0d6438960e01b8a526102805160048b01525160248a01525160448901525160648801525160848701525160a48601525160c48501525160e4840152516101048301528161012481610200519361020051905af1801561061b57613d68575b5034613d4a575b6008546004805460405163900cf0cf60e01b81526102405190936001600160a01b039081169391928592918391165afa91821561061b576102005192613d11575b50803b1561023a57604051627381e560e11b81526001600160a01b0385166004820152610280516024820152604481019290925261020051908290606490829084905af1801561061b57613cf6575b5015613ccd576102605161028051610200516001600160a01b03928316939092169160008051602061858b8339815191529080a46102005180f35b506040516102205181526000805160206185eb83398151915261028051916102405190a2610bc5565b61020051613d039161478f565b6102005161023a5782613c92565b909150610240513d6102405111613d43575b613d2d818361478f565b816102405191810103126115c157519084613c43565b503d613d23565b610280516102005152600a6102405152346040610200512055613c02565b61020051613d759161478f565b6102005161023a5782613bfb565b610240513d8111613dad575b613d99818361478f565b816102405191810103126115c15751613b2b565b503d613d8f565b90919260606001916040865180518352610240518101516102405184015201516040820152019361024051019101919091613ae5565b9092506020813d602011613e16575b81613e066020938361478f565b810103126115c1575191856137d3565b3d9150613df9565b6020833d602011613e53575b81613e376020938361478f565b8101031261023a57613e4a600493614a35565b61026052613791565b3d9150613e2a565b61020051613e689161478f565b6102005161023a5783613748565b91503d8061020051843e613e8a818461478f565b82019160608184031261023a57613ea081614aa9565b9060208101519360408201516001600160401b03811161023a57613ec4920161535b565b509161022052836136ba565b90506020813d602011613efa575b81613eeb6020938361478f565b810103126115c1575184613618565b3d9150613ede565b803b1561023a5760405163ee1fe2ad60e01b8152600481018690526001600160a01b03871660248201526102005190918290604490829084905af1801561061b57156135835761020051613f559161478f565b6102005161023a5785613583565b90506020813d602011613f95575b81613f7e6020938361478f565b8101031261023a57613f8f90614aa9565b8761357c565b3d9150613f71565b9094506020813d602011613fd1575b81613fb96020938361478f565b8101031261023a57613fca90614a35565b9385613519565b3d9150613fac565b6020853d60201161400b575b81613ff26020938361478f565b8101031261023a57614005600495614a35565b506134e1565b3d9150613fe5565b5033613462565b50336102005152600960205260ff6040610200512054161561345d565b600019146118bf57600b55613457565b339361342b565b63aceab4a160e01b6102005152600461020051fd5b3461023a576102005136600319011261023a57602060405160648152f35b3461023a57602036600319011261023a576004356001600160401b03811161023a5760e0600319823603011261023a576040516140bd816146d4565b816004013581526020810190602483013582526040810160448401358152606082019260648501358452608083016084860135815260a486013595600587101561023a5760a0850196875260c4810135906001600160401b03821161023a5701923660238501121561023a576004840135614137816147b0565b94614145604051968761478f565b818652602060048188019360051b830101019036821161023a5760248101925b8284106145c6575050505060c0850193845261417f615d9c565b835182516141b560405180926141a1602083019560408752606084019061496c565b90604083015203601f19810183528261478f565b5190208651036145b1576001548551915192519651885192916001600160a01b0316906005841015610b465761426660e49460609751604051956141f8876146d4565b865260208601978852604086019b8c528886019384526080860190815261422360a087019283614a29565b60c08601933385526040519c8d998a986372cabc3960e11b8a525160048a01525160248901525160448801525160648701525160848601525160a4850190614a49565b516001600160a01b031660c483015261020051905af193841561061b5761020051936102005195614564575b50516005811015610b46576002141580614559575b6144e8575b50516040519092602091906142c1838361478f565b6102005182526000368137600f811015610b4657600d8114806144de575b1561432b57505050507fe51a41760ba25c8a4ac33894d5eb8698cf110a90d4e6f764fa0579ec8767b4666102005161020051a260016000805160206185ab833981519152556102005180f35b6006810361435457505050506000805160206184ab8339815191526102005161020051a2612831565b600281036143855750505060018060a01b03169060008051602061864b8339815191526102005161020051a3612831565b91939250906004036143c3575090507f17aad8cee7fa654be58106f05c4040122273bad66e94979ffbb9f7ecccc68c5e6102005161020051a2612831565b80516064106143f95760008051602061862b83398151915291926143f1604051928284938452830190615c34565b0390a2612831565b610200515b8151808210156144d45761441482606492615980565b10156144cd57614425818351615980565b61442e81614a56565b90610200515b81811061448c57505060008051602061862b833981519152614463859260405191829189835289830190615c34565b0390a260648101809111156143fe57634e487b7160e01b61020051526011600452602461020051fd5b9295919391929091906001906001600160a01b036144b36144ad838b615cf1565b856153b8565b51166144bf82886153b8565b520195929593919093614434565b6064614425565b5050505050612831565b50610200516142df565b600554825191516001600160a01b0390911691823b1561023a57604051928391632e62671f60e21b835260048301526040602483015281806145326102005195604483019061496c565b039161020051905af1801561061b57156142ac57610200516145539161478f565b836142ac565b5080515115156142a7565b935093506060833d6060116145a9575b816145816060938361478f565b8101031261023a57604061459484614a35565b93015192600f84101561023a57929385614292565b3d9150614574565b63496189f760e11b6102005152600461020051fd5b83356001600160401b03811161023a5760049083010160c0601f19823603011261023a57604051916145f783614705565b6020820135600281101561023a57835260408201356001600160a01b038116810361023a5760208401526060820135604084015260808201356001600160401b03811161023a5761464e906020369185010161485b565b606084015260a082013592831515840361023a5760c06020949385946080840152013560a0820152815201930192614165565b3461023a57602036600319011261023a576004359063ffffffff60e01b821680920361023a57602091637965db0b60e01b81149081156146c3575b5015158152f35b6301ffc9a760e01b149050836146bc565b60e081019081106001600160401b038211176146ef57604052565b634e487b7160e01b600052604160045260246000fd5b60c081019081106001600160401b038211176146ef57604052565b61010081019081106001600160401b038211176146ef57604052565b61012081019081106001600160401b038211176146ef57604052565b6102a081019081106001600160401b038211176146ef57604052565b606081019081106001600160401b038211176146ef57604052565b90601f801991011681019081106001600160401b038211176146ef57604052565b6001600160401b0381116146ef5760051b60200190565b600435906001600160a01b03821682036115c157565b606435906001600160a01b03821682036115c157565b602435906001600160a01b03821682036115c157565b6001600160401b0381116146ef57601f01601f191660200190565b92919261483082614809565b9161483e604051938461478f565b8294818452818301116115c1578281602093846000960137010152565b9080601f830112156115c15781602061487693359101614824565b90565b9181601f840112156115c1578235916001600160401b0383116115c157602083818601950101116115c157565b60206003198201126115c157600435906001600160401b0382116115c157806023830112156115c15781600401356148dd816147b0565b926148eb604051948561478f565b8184526024602085019260051b8201019283116115c157602401905b8282106149145750505090565b8135815260209182019101614907565b60005b8381106149375750506000910152565b8181015183820152602001614927565b9060209161496081518092818552858086019101614924565b601f01601f1916010190565b9080602083519182815201906020808260051b8501019401926000905b82821061499857505050505090565b9091929394601f1982820301855285519081516002811015614a13576001928260209392849352848060a01b038383015116838201526040820151604082015260a0806149f4606085015160c0606086015260c0850190614947565b6080808601511515908501529301519101529701950193920190614989565b634e487b7160e01b600052602160045260246000fd5b6005821015614a135752565b51906001600160a01b03821682036115c157565b906005821015614a135752565b90614a60826147b0565b614a6d604051918261478f565b8281528092614a7e601f19916147b0565b0190602036910137565b60005260008051602061856b83398151915260205260016040600020015490565b519081151582036115c157565b9080601f830112156115c1578151614acd816147b0565b92614adb604051948561478f565b81845260208085019260051b8201019283116115c157602001905b828210614b035750505090565b60208091614b1084614a35565b815201910190614af6565b6001600160a01b03918216815291166020820152606060408201819052810183905260809290918190848401376000828201840152601f01601f1916010190565b91908260409103126115c157614876602083519301614aa9565b6001600160a01b039091168152602081019190915260400190565b81601f820112156115c1578051614ba781614809565b92614bb5604051948561478f565b818452602082840101116115c1576148769160208085019101614924565b6020818303126115c1578051906001600160401b0382116115c157016102a0818303126115c15760405191614c0783614758565b815160068110156115c1578352602082015160058110156115c15760208401526040820151600f8110156115c15760408401526060820151600f8110156115c1576060840152614c5960808301614a35565b6080840152614c6a60a08301614a35565b60a0840152614c7b60c08301614a35565b60c0840152614c8c60e08301614a35565b60e08401526101008201516101008401526101208201516101208401526101408201516101408401526101608201516101608401526101808201516101808401526101a08201516101a08401526101c08201516101c08401526101e08201516101e08401526102008201516001600160401b0381116115c15781614d11918401614b91565b6102008401526102208201516001600160401b0381116115c15781614d37918401614b91565b6102208401526102408201516001600160401b0381116115c157820181601f820112156115c157805190614d6a826147b0565b92614d78604051948561478f565b828452602060608186019402830101918183116115c157602001925b828410614dc157505050509061028091610240840152610260810151610260840152015161028082015290565b6060848303126115c1576020606091604051614ddc81614774565b86518152828701518382015260408701516040820152815201930192614d94565b94969295969391909360018060a01b03600154169060405160a08101908082106001600160401b038311176146ef57614eb5614e5a60009788946040528b8452602084019533875260408501988952606085019b8c523691614824565b60808301908152604051637aef73db60e11b8152602060048201529251602484015293516001600160a01b031660448301529451606482015296516084880152905160a060a4880152869384929183919060c4830190614947565b03925af190811561529857600095869587809581956152c1575b50156152a45760008054604051634f51e1cf60e01b81529460209486946001600160a01b0390931693859390928492614f0c928e60048601614b1b565b03925af190811561529857600091615266575b50600c556000600f86101561525257600d8614806151cd575b600091816151c5575b5015615025575050507fe51a41760ba25c8a4ac33894d5eb8698cf110a90d4e6f764fa0579ec8767b466600080a25b600360009214614f7e575050565b614f8790616a05565b80614f90575050565b60015460405163255709e560e11b815260048101839052908390829060249082906001600160a01b03165afa90811561501a57907f81f3dd2ecd241a95dc5d5bc7ad844e0939af986e300fd5653236d95c41cf8361918491615000575b5060e001516001600160a01b03169280a3565b61501491503d8086833e610641818361478f565b38614fed565b6040513d85823e3d90fd5b50600685036150485750506000805160206184ab833981519152600080a2614f70565b6000600286036150765750506001600160a01b03169060008051602061864b833981519152600080a3614f70565b509050600484036150ac57507f17aad8cee7fa654be58106f05c4040122273bad66e94979ffbb9f7ecccc68c5e600080a2614f70565b80516064106150e4576150dc60008051602061862b83398151915291604051918291602083526020830190615c34565b0390a2614f70565b9190929360005b8351808210156151b95761510182606492615980565b10156151b157615112818551615980565b85905b61511e81614a56565b9060005b81811061517857505061515260008051602061862b83398151915291604051918291602083526020830190615c34565b0390a260648101809111156150eb575b634e487b7160e01b600052601160045260246000fd5b919250906001906001600160a01b0361519a6151948388615cf1565b8a6153b8565b51166151a682866153b8565b520190879291615122565b846064615115565b50509392509050614f70565b905038614f41565b60025460408051630341e56360e31b81529182906001600160a01b03168186816151fb8c8e60048401614b76565b03925af19283156152465792615223575b5081614f38576366e7d1b360e11b60005260046000fd5b61523d91925060403d604011610b3f57610b2f818361478f565b9050903861520c565b604051903d90823e3d90fd5b634e487b7160e01b81526021600452602490fd5b90506020813d602011615290575b816152816020938361478f565b810103126115c1575138614f1f565b3d9150615274565b6040513d6000823e3d90fd5b50505050509150506000805160206184ab833981519152600080a2565b98509650935091503d8086883e6152d8818861478f565b86019160e087840312615347576152ee87614aa9565b936152fb60208901614a35565b93604089015197600f8910156153445761531760608b01614a35565b9960c0810151916001600160401b0383116153445750615338929101614ab6565b94939697949338614ecf565b80fd5b8580fd5b6005811015614a135760f81b9052565b9080601f830112156115c1578151615372816147b0565b92615380604051948561478f565b81845260208085019260051b8201019283116115c157602001905b8282106153a85750505090565b815181526020918201910161539b565b80518210156153cc5760209160051b010190565b634e487b7160e01b600052603260045260246000fd5b602060408183019282815284518094520192019060005b8181106154065750505090565b82518452602093840193909201916001016153f9565b906006821015614a135752565b93819095929560405160208101913360601b835261544a603483018a61534b565b86603583015260558201526055815261546460758261478f565b519020036158e55760c46000928360018060a01b0360015416956040516020810191615490838c61534b565b6021820152602181526154a460418261478f565b51902095604051926154b584614705565b8884526020840195865260408401978852606084016154d48b82614a29565b615515608086019133835260a087019384526040519a8b998a986320e3d24360e11b8a525160048a0152516024890152516044880152516064870190614a49565b516001600160a01b031660848501525160a48401525af1908115615298576000908190828080809381976157e7575b50156157ca578361559e575b50505061557692506155656040518096614a49565b15156020850152604084019061541c565b7f14d4bda97d7d28622aa0ad6e4d069bb9215b9e2346ecbdf2313b04121da0b68a60603393a3565b82511561561b5750507f9c4bf38aa77ce1103eb348ff99a695363c0b42ab316945b0e19906310f2146a26155db61557695604051918291826153e2565b0390a160408101516020909101516001600160a01b03916155fc91906153b8565b51168460008051602061850b833981519152600080a35b388080615550565b9094506006841015614a135785906001851480156157c0575b156156f557505060025460408051630341e56360e31b81529592509085906001600160a01b03168160008161566d8b8860048401614b76565b03925af1938415615298576155769486916000916156d4575b50615694575b50505b615613565b6156cd91817ff250caa116f9eac0e4e82d403f131ce0a520b6c232dbcbe270b3729b0aaca09e600080a26156c88183616e05565b61726a565b388461568c565b6156ed915060403d604011610b3f57610b2f818361478f565b905038615686565b156157395750604081015160209091015161557694506001600160a01b039161571e91906153b8565b51168460008051602061864b833981519152600080a3615613565b6040915061576a9460018060a01b0360025416906000845180988195829463910048fb60e01b845260048401614b76565b03925af18015615298576155769360009161579f575b501561568f57836000805160206184ab833981519152600080a2615613565b6157b8915060403d604011610b3f57610b2f818361478f565b905038615780565b5060038514615634565b50505050505090506000805160206184ab833981519152600080a2565b95509550505050503d8083833e6157fe818361478f565b810190610100818303126158e15761581581614aa9565b61582160208301614aa9565b9360408301519260068410156158dd5761583d60608201614a35565b9461584a60a08301614aa9565b9260c08301516001600160401b0381116158dd578301926060848403126158dd576040519361587885614774565b80518552602081015160208601526040810151906001600160401b0382116158d9576158a691859101614ab6565b604085015260e0810151916001600160401b03831161534457506158cb92910161535b565b929593949190929538615544565b8380fd5b5080fd5b8280fd5b636aee863360e11b60005260046000fd5b9060e0828203126115c1578151600f8110156115c157926020830151600f8110156115c1579261592860408201614a35565b9261593560608301614a35565b9261594260808401614a35565b9260a08101516001600160401b0381116115c1578361596291830161535b565b9260c08201516001600160401b0381116115c157614876920161535b565b9190820391821161516257565b9091600090608460018060a01b0360015416948360405196879485936358cec13960e01b8552886004860152602485015233604485015260648401525af191821561529857600092838081938293615bb5575b506001600160a01b031680615b9b575015615a2757505060405191151582527fc5dd23f5cc17858ca1e3d0f06cbcc78820753b0dd2fea89d03d0d842192c153160203393a3565b6002546040805163910048fb60e01b815293969550919392919082906001600160a01b031681600081615a5e888c60048401614b76565b03925af190811561529857600091615b7a575b50615b61575b60005b8251811015615b5a57615a8d81846153b8565b51151580615b46575b615aa3575b600101615a7a565b60025460009190604090615ae1906001600160a01b0316615ac484886153b8565b51835195868094819363910048fb60e01b83528d60048401614b76565b03925af1801561529857600192600091615b26575b50615b03575b9050615a9b565b615b0d81856153b8565b516000805160206184ab833981519152600080a2615afc565b615b3e915060403d8111610b3f57610b2f818361478f565b905038615af6565b5081615b5282856153b8565b511415615a96565b5050509050565b806000805160206184ab833981519152600080a2615a77565b615b93915060403d604011610b3f57610b2f818361478f565b905038615a71565b945050505060008051602061850b833981519152600080a3565b9350509350503d8084833e615bca818361478f565b81019060a0818303126158d957615be081614aa9565b91615bed60208301614aa9565b90615bfa60408401614a35565b95615c0760608501614a35565b936080810151916001600160401b0383116153445750615c2892910161535b565b929094919291386159e0565b906020808351928381520192019060005b818110615c525750505090565b82516001600160a01b0316845260209384019390920191600101615c45565b3d15615c9c573d90615c8282614809565b91615c90604051938461478f565b82523d6000602084013e565b606090565b908160c09103126115c15760a060405191615cbb83614705565b8051835260208101516020840152604081015160408401526060810151606084015260808101516080840152015160a082015290565b9190820180921161516257565b908160a09103126115c157615d1281614a35565b916020820151916040810151916148766080615d3060608501614aa9565b9301614aa9565b9080601f830112156115c1578151615d4e816147b0565b92615d5c604051948561478f565b81845260208085019260051b8201019283116115c157602001905b828210615d845750505090565b60208091615d9184614aa9565b815201910190615d77565b60026000805160206185ab8339815191525414615dc75760026000805160206185ab83398151915255565b633ee5aeb560e01b60005260046000fd5b94929193946000610300528251156169f057600b5460018101908181116169a25760001982036169e057505061030051600b555b6001600160a01b0381161580156169c3575b6169bc575b600c54600b5460001943014381116169a257604051916020830193845260408301524060608201524260808201524360a082015260a08152615e6660c08261478f565b519020916001600160a01b038116806169715750506003546040516374c1532360e01b815260048101979097526103005160209188916024918391906001600160a01b03165af1801561668e57616937575b60035460405163b8f3c96360e01b81529650602090879060049082906001600160a01b03165afa95861561668e5761030051966168fb575b5061030080516001600160a01b0388811691829052600960209081529251604090819020805460ff19166001179055600854905163785f8ee360e01b815289831660048201819052949190921692919081602481865afa90811561668e5761030051916168c1575b501561686d575b5050505b60405194615f708661473c565b6001600160a01b039081168652908116602080870191909152868216604080880182905260056060890152610300805160808a015260a089019590955260c0880195909552925160e0870152346101008701526002549351630db7242360e21b815260048101939093529216949181602481885afa90811561668e57610300519161683b575b5060408401519060a0850151906040519160208301936001600160601b03199060601b168452426034840152605483015260748201526074815261603b60948261478f565b51902060018060a01b036040850151166040518096633b4d69ad60e11b8252818061606e86610300519660048401614b76565b039161030051905af193841561668e57610300519586956167e2575b5060a081015160405160208101918252866040820152604081526160af60608261478f565b51902060a08201819052610300515460408301516001600160a01b0390811692911690813b156166875760405192630bc24f7560e41b84526004840152602483015283604483015281606481610300519361030051905af1801561668e576167c7575b506004805460a083015160405163589686c160e11b8152928301524260248301526001600160a01b031691602082604481865afa91821561668e57610300519261678b575b506001546001600160a01b039081166102e052815160405163900cf0cf60e01b81529394911690602090849060049082905afa92831561668e576103005193616757575b506020828101516040808501516080860151606087015160a0880151935195989596956001600160a01b03958616959093919291166161da8a8961478f565b61030051885260c089015195604051976161f48c8a61478f565b610300518952601f198c01368d8b013761010060e08c01519b01516102a0526040516102c0526162266102c051614758565b610300516102c0515261030051506103005150610300518c6102c05101526103005160406102c0510152600160606102c051015260806102c051015260a06102c051015260c06102c051015260018060a01b038a1660e06102c05101528d6101006102c05101526101206102c05101526101406102c05101526101606102c0510152876101806102c05101526101a06102c0510152610300516101c06102c0510152610300516101e06102c05101526102006102c05101526102206102c05101526102406102c05101526102606102c05101526102a0516102806102c051015260405163f52aa28360e01b815283600482015260406024820152616331604482016102c0515161541c565b616345826102c05101516064830190614a49565b61635a60406102c05101516084830190618421565b61636f60606102c051015160a4830190618421565b6102c08051608001516001600160a01b0390811660c4840152815160a00151811660e4840152815160c001518116610104840152815160e0015116610124830152805161010001516101448301528051610120015161016483015280516101400151610184830152805161016001516101a4830152805161018001516101c483015280516101a001516101e483015280516101c0015161020483015280516101e001516102248301525161020001516102a06102448301526164559061643a906102e4840190614947565b6102c051610220015183820360431901610264850152614947565b82826102406102c051015160431982850301610284830152828082519586815201910193610300515b818110616728575050819293506102606102c05101516102a48301526102806102c05101516102c48301520381610300516102e0515af1801561668e576166fe575b50600654604051906001600160a01b03166164da82614720565b42825282820142815260408301610300518152606084016103005181526080850161030051815260a086019161030051835260c087019361030051855260e0880195610300518752873b15616687576040519863c0d6438960e01b8a528c60048b01525160248a01525160448901525160648801525160848701525160a48601525160c48501525160e4840152516101048301528161012481610300519361030051905af1801561668e576166e3575b5081958397346166cb575b6008546004805460405163900cf0cf60e01b8152926001600160a01b0390811692879285928391165afa91821561668e57610300519261669c575b50803b1561668757604051627381e560e11b81526001600160a01b038916600482015260248101889052604481019290925261030051908290606490829084905af1801561668e5761666c575b501561664e575050610300516001600160a01b0391821693909116919060008051602061858b8339815191529080a4565b9091506000805160206185eb833981519152929350604051908152a2565b610300516166799161478f565b61030051616687573861661d565b6103005180fd5b6040513d61030051823e3d90fd5b9091508481813d83116166c4575b6166b4818361478f565b810103126115c1575190386165d0565b503d6166aa565b846103005152600a8352346040610300512055616595565b610300516166f09161478f565b61030051616687573861658a565b8181813d8311616721575b616713818361478f565b810103126115c157516164c0565b503d616709565b92509260606001926040875180518352848101518584015201516040820152019401910192859285929461647e565b9092506020813d602011616783575b816167736020938361478f565b810103126115c15751913861619b565b3d9150616766565b91506020823d6020116167bf575b816167a66020938361478f565b81010312616687576167b9600492614a35565b91616157565b3d9150616799565b610300516167d49161478f565b610300516166875738616112565b955093503d8061030051873e6167f8818761478f565b8501946060818703126166875761680e81614aa9565b9060208101519660408201516001600160401b03811161668757616832920161535b565b5094933861608a565b90506020813d602011616865575b816168566020938361478f565b810103126115c1575138615ff6565b3d9150616849565b813b15616687576040519263ee1fe2ad60e01b84526004840152602483015281604481610300519361030051905af1801561668e576168ae575b8080615f5f565b610300516168bb9161478f565b386168a7565b90506020813d6020116168f3575b816168dc6020938361478f565b81010312616687576168ed90614aa9565b38615f58565b3d91506168cf565b9095506020813d60201161692f575b816169176020938361478f565b810103126166875761692890614a35565b9438615ef0565b3d915061690a565b6020863d602011616969575b816169506020938361478f565b8101031261668757616963600496614a35565b50615eb8565b3d9150616943565b9096506103005152600960205260ff604061030051205416615f635763306e9f2560e21b6103005152600461030051fd5b634e487b7160e01b61030051526011600452602461030051fd5b5033615e23565b50336103005152600960205260ff60406103005120541615615e1e565b600019146169a257600b55615e0c565b6313064eb160e11b6103005152600461030051fd5b600254604051631fd08e0b60e21b81526001600160a01b038381166004830181905291921690602083602481855afa92831561529857600093616b29575b5060405190633f008c4560e01b82526004820152602081602481855afa90811561529857600091616af7575b506001830180931161516257821015616aef57616aa8916020916000946040518095819482936351b1c54760e11b845260048401614b76565b03915afa918215615246578092616abe57505090565b9091506020823d602011616ae7575b81616ada6020938361478f565b8101031261534457505190565b3d9150616acd565b505050600090565b90506020813d602011616b21575b81616b126020938361478f565b810103126115c1575138616a6f565b3d9150616b05565b90926020823d602011616b55575b81616b446020938361478f565b810103126153445750519138616a43565b3d9150616b37565b600081815260008051602061856b8339815191526020908152604080832033845290915290205460ff1615616b8f5750565b63e2517d3f60e01b6000523360045260245260446000fd5b600081815260008051602061856b833981519152602090815260408083206001600160a01b038616845290915290205460ff16616c4957600081815260008051602061856b833981519152602090815260408083206001600160a01b0395909516808452949091528120805460ff19166001179055339291907f2f8788117e7eff1d82e926ec794901d17c78024a50270940304540a733656f0d9080a4600190565b5050600090565b600081815260008051602061856b833981519152602090815260408083206001600160a01b038616845290915290205460ff1615616c4957600081815260008051602061856b833981519152602090815260408083206001600160a01b0395909516808452949091528120805460ff19169055339291907ff6391f5c32d9c69d2a47ea670b442974b53935d1edc7fd64eb21e047a839171b9080a4600190565b6020818303126115c1578051906001600160401b0382116115c1570181601f820112156115c157805190616d23826147b0565b92616d31604051948561478f565b82845260208085019360051b830101918183116115c15760208101935b838510616d5d57505050505090565b84516001600160401b0381116115c157820160c0818503601f1901126115c15760405191616d8a83614705565b602082015160028110156115c1578352616da660408301614a35565b6020840152606082015160408401526080820151926001600160401b0384116115c15760c083616ddd886020809881980101614b91565b6060840152616dee60a08201614aa9565b6080840152015160a0820152815201940193616d4e565b600554604051635454a18f60e01b8152600481018390526001600160a01b0384811660248301526000928391839160449183918591165af1908115616fad578291617025575b508051616e59575b50505050565b602491929394602060018060a01b036001541660405194858092631dbf24f760e01b82528960048301525afa92831561701a578493616fde575b506001600160a01b0386168015908115616fc7575b50616fb857835b8251811015616f445780616ec5600192856153b8565b51604060208201616eeb8b868060a01b038351168a60608701519160a088015193615dd8565b929093015180616f31575b505160a085901b859003918216929116907ffcd4925545581224af98ce36b42d51bb88917ea0c3fe675c27e1df1a222825558980a401616eaf565b838a52600a60205260408a205538616ef6565b5094509192905060018060a01b0360055416915190823b156158d9579060648492836040519586948593634af6b23f60e01b855260048501526024840152600160448401525af18015616fad57616f9d575b8080616e53565b81616fa79161478f565b38616f96565b6040513d84823e3d90fd5b631d41354d60e01b8452600484fd5b8552506009602052604084205460ff161538616ea8565b9092506020813d602011617012575b81616ffa6020938361478f565b810103126158d95761700b90614a35565b9138616e93565b3d9150616fed565b6040513d86823e3d90fd5b61704191503d8084833e617039818361478f565b810190616cf0565b38616e4b565b6005546040516361c53f3d60e01b8152600481018390526001600160a01b038481166024830152909116906044815a9181600080968195f1908115616fad57829161722f575b50805161709a5750505050565b602491929394602060018060a01b036001541660405194858092631dbf24f760e01b82528960048301525afa92831561701a5784936171f3575b506001600160a01b03861680159081156171dc575b50616fb857835b82518110156171855780617106600192856153b8565b5160406020820161712c8b868060a01b038351168a60608701519160a088015193615dd8565b929093015180617172575b505160a085901b859003918216929116907ffcd4925545581224af98ce36b42d51bb88917ea0c3fe675c27e1df1a222825558980a4016170f0565b838a52600a60205260408a205538617137565b5094509192905060018060a01b0360055416915190823b156158d9579060648492836040519586948593634af6b23f60e01b8552600485015260248401528160448401525af18015616fad57616f9d578080616e53565b8552506009602052604084205460ff1615386170e9565b9092506020813d602011617227575b8161720f6020938361478f565b810103126158d95761722090614a35565b91386170d4565b3d9150617202565b61724391503d8084833e617039818361478f565b3861708d565b91908260409103126115c157614876602061726384614aa9565b9301614a35565b600254604051631fd08e0b60e21b81526001600160a01b0380841660048301819052919594919216602086602481845afa95861561529857600096617681575b50946020602494959660405195868092633f008c4560e01b82528760048301525afa9384156152985760009461764d575b508381106172eb575b5050505050565b838110156172e457600254604051635f4f4ec560e11b81526004810185905290602090829060249082906001600160a01b03165afa9081156152985760009161761c575b5060015460405163255709e560e11b81526004810183905290600090829060249082906001600160a01b03165afa90811561529857600091617603575b5061026081015180151590816175f9575b50156174d5576000604060018060a01b03600154166044825180948193632838322d60e01b83528860048401528160248401525af18015615298576174a8575b50600254604051639c88381960e01b81529060209082906001600160a01b0316816000816173ef898f60048401614b76565b03925af1801561529857600090617467575b5050906001929181600052600a6020526040600020548061743b575b5050339060008051602061852b833981519152600080a35b016172eb565b6174609183600052600a6020526000604081205560a08680821b03910151168361842e565b388061741d565b6020823d82116174a0575b8161747f6020938361478f565b810103126153445750906174966001949392614aa9565b8192939450617401565b3d9150617472565b6174c89060403d81116174ce575b6174c0818361478f565b810190617249565b506173bd565b503d6174b6565b50801515806175ef575b6174ec5750600190617435565b94505050905060018060a01b0360065416604051906303c4afcd60e41b8252836004830152426024830152604082604481845afa918215615298576000926175a7575b50803b156115c15760008091606460405180948193634e8eb8bd60e01b8352896004840152600160248401524260448401525af1801561529857617596575b506001600160a01b03169160008051602061858b833981519152600080a438808080806172e4565b60006175a19161478f565b3861756e565b90916040823d82116175e7575b816175c16040938361478f565b8101031261534457506175df60206175d883614a35565b9201614aa9565b50903861752f565b3d91506175b4565b50828114156174df565b905042113861737d565b617616913d8091833e610641818361478f565b3861736c565b906020823d8211617645575b816176356020938361478f565b810103126153445750513861732f565b3d9150617628565b90936020823d602011617679575b816176686020938361478f565b8101031261534457505192386172db565b3d915061765b565b956020873d6020116176ae575b8161769b6020938361478f565b81010312615344575094519460206172aa565b3d915061768e565b6000805160206184eb833981519152546001600160a01b031633036176d757565b63118cdaa760e01b6000523360045260246000fd5b60015460408051632838322d60e01b8152600481018490526001600160a01b0385811660248301526000969593919291839160449183918a91165af19081156152985760009161782d575b50600254604051639c88381960e01b81529060209082906001600160a01b0316816000816177698a8960048401614b76565b03925af1908115615298576000916177f3575b50156177e257826177a29181600052600a602052604060002054806177c1575b5061726a565b6001600160a01b03169060008051602061852b833981519152600080a3565b6177dc9083600052600a60205260006040812055858461842e565b3861779c565b63357bf18b60e01b60005260046000fd5b90506020813d602011617825575b8161780e6020938361478f565b810103126115c15761781f90614aa9565b3861777c565b3d9150617801565b617846915060403d6040116174ce576174c0818361478f565b905038617737565b60008051602061860b83398151915280546001600160a01b03199081169091556000805160206184eb83398151915280549182166001600160a01b0393841690811790915591167f8be0079c531659141344cd1fd0a4f28419497f9722a3daafe3b4186f6b6457e0600080a3565b91600090608460018060a01b0360015416938360405195869485936346a4a82960e01b8552896004860152336024860152604485015260648401525af18015615298576000908192829183809581938293617e4a575b50617d0b5715617a65575050600254604051634113628960e11b81529060209082906001600160a01b0316818061794d8a8860048401614b76565b03915afa90811561529857600091617a2b575b5015617a1a5783600052600a60205260406000205490816179a9575b506001600160a01b03926179919291506153b8565b51169060008051602061850b833981519152600080a3565b60008080938193888352600a6020528260408120555af16179c8615c71565b50156179d557388061797c565b60405162461bcd60e51b815260206004820152601e60248201527f56616c7565207472616e7366657220746f2067686f7374206661696c656400006044820152606490fd5b63042202b560e11b60005260046000fd5b90506020813d602011617a5d575b81617a466020938361478f565b810103126115c157617a5790614aa9565b38617960565b3d9150617a39565b91959492509250816000805160206184ab833981519152600080a260005b8351811015617b6357617a9681856153b8565b51151580617b4f575b617aac575b600101617a83565b600254617aea91906040906001600160a01b0316617aca83886153b8565b5190896000845180978195829463910048fb60e01b845260048401614b76565b03925af1801561529857600192600091617b2f575b50617b0c575b9050617aa4565b617b1681866153b8565b516000805160206184ab833981519152600080a2617b05565b617b47915060403d8111610b3f57610b2f818361478f565b905038617aff565b5082617b5b82866153b8565b511415617a9f565b509391505060005b8351811015617d0557617b7e81856153b8565b51617b8c575b600101617b6b565b600254600090602090617bca906001600160a01b0316617bac85896153b8565b51604051948580948193639c88381960e01b83528a60048401614b76565b03925af190811561529857600091617ccc575b5015617b8457617bed81856153b8565b51600052600a6020526040600020549081617c2d575b600191506000617c1382876153b8565b5160008051602061852b8339815191528280a39050617b84565b6001546001600160a01b03166000617c4583886153b8565b5160246040518094819363255709e560e11b835260048301525afa92831561529857600193617cae92600091617cb3575b50617c8184896153b8565b51600052600a60205260006040812055617c9b84896153b8565b519060a08680821b03910151169061842e565b617c03565b617cc6913d8091833e610641818361478f565b38617c76565b906020823d8211617cfd575b81617ce56020938361478f565b810103126153445750617cf790614aa9565b38617bdd565b3d9150617cd8565b50509050565b5050600254604051639c88381960e01b8152929594509192506020918391506001600160a01b031681600081617d45888a60048401614b76565b03925af1801561529857617e13575b5080600052600a6020526040600020549182617d8c575b617d8a925060008260008051602061852b8339815191528280a361726a565b565b60015460405163255709e560e11b81526004810184905290600090829060249082906001600160a01b03165afa93841561529857617d8a94617df392600091617df8575b506000858152600a602052604081205560a001516001600160a01b03168461842e565b617d6b565b617e0d91503d806000833e610641818361478f565b38617dd0565b6020813d602011617e42575b81617e2c6020938361478f565b810103126115c157617e3d90614aa9565b617d54565b3d9150617e1f565b96505093505050503d8082843e617e61818461478f565b820160e0838203126158dd57617e7683614aa9565b617e8260208501614aa9565b617e8e60408601614a35565b9060608601519360808701516001600160401b038111617f035781617eb4918901614ab6565b9560a08801516001600160401b0381116158dd5782617ed4918a0161535b565b9760c0810151916001600160401b0383116153445750617ef592910161535b565b929091939495929138617912565b8680fd5b6001546040516363f373b360e11b8152600481018390529291906000908490602490829084906001600160a01b03165af180156152985760009283849385918690879888966183f2575b5080978094600f8210159283614a135760058314806183de575b801561839d575b84908015618377575b156182eb575050617fb160408660018060a01b03600254168c60008451809681958294630341e56360e31b845260048401614b76565b03925af1908115615298576000916182ca575b50618265575b6001600160a01b031615159182618252575b82618241575b505061821d575b505060005b86518110156180865761800181886153b8565b5161800f575b600101617fee565b60025460009190604090618030906001600160a01b0316615ac4848c6153b8565b03925af191821561529857600192618069575b5061804e81896153b8565b516000805160206184ab833981519152600080a29050618007565b6180809060403d8111610b3f57610b2f818361478f565b50618043565b509194509260005b8551811015618215576180a181876153b8565b516180af575b60010161808e565b6002546000906020906180ed906001600160a01b03166180cf858b6153b8565b51604051948580948193639c88381960e01b83528c60048401614b76565b03925af1908115615298576000916181dc575b50156180a75761811081876153b8565b51600052600a6020526040600020549081618150575b60019150600061813682896153b8565b5160008051602061852b8339815191528280a390506180a7565b6001546001600160a01b03166000618168838a6153b8565b5160246040518094819363255709e560e11b835260048301525afa928315615298576001936181be926000916181c3575b506181a4848b6153b8565b51600052600a60205260006040812055617c9b848b6153b8565b618126565b6181d6913d8091833e610641818361478f565b38618199565b906020823d821161820d575b816181f56020938361478f565b81010312615344575061820790614aa9565b38618100565b3d91506181e8565b509291509250565b6001600160a01b03169060008051602061850b833981519152600080a33880617fe9565b909150614a13576002143880617fe2565b6001600160a01b03841615159250617fdc565b61826f8986616e05565b618279858a61726a565b847ff250caa116f9eac0e4e82d403f131ce0a520b6c232dbcbe270b3729b0aaca09e600080a2847f6ae3550300804fa352835a3e1279593d83ce88e20c9feb43302db45b1d89e6c9600080a2617fca565b6182e3915060403d604011610b3f57610b2f818361478f565b905038617fc4565b614a1357600683149081618362575b5015617fca5761832f60408660018060a01b03600254168c6000845180968195829463910048fb60e01b845260048401614b76565b03925af1801561529857618344575b50617fca565b61835c9060403d604011610b3f57610b2f818361478f565b5061833e565b9050600f811015614a135760061415386182fa565b50614a135783600d84148015617f7b575050600f811015614a135783600d821415617f7b565b506000935083600c8414806183b4575b9050617f72565b5050600f8110156183ca5783600c8214156183ad565b634e487b7160e01b84526021600452602484fd5b50600f811015614a13576005811415617f6b565b95505050949195505061840f92503d8091833e613274818361478f565b90979596939590949093919038617f51565b90600f821015614a135752565b90821561847757600080808086855af1618446615c71565b501561845157505050565b6040519283526001600160a01b0316916000805160206184cb83398151915290602090a3565b505050565b60ff6000805160206185cb8339815191525460401c161561849957565b631afcd79f60e31b60005260046000fdfeb9f69df2250e1788b862d0715b1dad98b2a50311c017ebb71f6cd83de656b06dd7d0ee861c0ebf42599b922e8f4ad0cafed951841610157bcd56110f49ced8ee9016d09d72d40fdae2fd8ceac6b6234c7706214fd39c1cd1e609a0528c1993001081f7638e5a02d916250da410b76a0821bdb2b09c574c0f237830409c37d0c80a94f6cf3e473cb72e765b24d1365bfcbef8d31a73215bb27e50df39757f578a24196ec40f90671b7144e716978686b4f3c7d6b00b23da3971ef2b52af27d87f02dd7bc7dec4dceedda775e58dd541e08a116c6c53815c0bd028192f7b626800dab9102861c7483a187584d6371d88316f005af507982ccf95c110879f3ed5a59b779b17422d0df92223018b32b4d1fa46e071723d6817e2486d003becc55f00f0c57e16840df040f15088dc2f81fe391c3923bec73e23a9662efc9c229c6a008620e7f03a280a3d2aa84bd41ba19524c2d7f1dbfa9d79cb81877b0f8c963f9b237e158222e3e6968b72b9db0d8043aacf074ad9f650f0d1606b4d82ee432c00eeb84a2b70442f0f7263c2cc055eaaba369bc7f3d87dd784346cb4ed6967903542dd93d103ec25ce3ac597cec3f3aa55b91b52ffa90a04f9e14545f4543e7c48a264697066735822122066dba948c2df77f9fa2b6b1ae6d4b72f855ffce25c56f73725dc069d8241496664736f6c634300081c0033",
  "linkReferences": {},
  "deployedLinkReferences": {}
}