{
  "_format": "hh-sol-artifact-1",
  "contractName": "Idleness",
  "sourceName": "contracts/transactions/Idleness.sol",
  "abi": [
    {
      "inputs": [],
      "name": "AccessControlBadConfirmation",
      "type": "error"
    },
    {
      "inputs": [
        {
          "internalType": "address",
          "name": "account",
          "type": "address"
        },
        {
          "internalType": "bytes32",
          "name": "neededRole",
          "type": "bytes32"
        }
      ],
      "name": "AccessControlUnauthorizedAccount",
      "type": "error"
    },
    {
      "inputs": [],
      "name": "InvalidBanPeriod",
      "type": "error"
    },
    {
      "inputs": [],
      "name": "InvalidCommittedValidators",
      "type": "error"
    },
    {
      "inputs": [],
      "name": "InvalidInitialization",
      "type": "error"
    },
    {
      "inputs": [],
      "name": "InvalidSender",
      "type": "error"
    },
    {
      "inputs": [],
      "name": "InvalidSlashPercentage",
      "type": "error"
    },
    {
      "inputs": [],
      "name": "InvalidTimestampType",
      "type": "error"
    },
    {
      "inputs": [],
      "name": "InvalidValidator",
      "type": "error"
    },
    {
      "inputs": [],
      "name": "NoValidatorsFound",
      "type": "error"
    },
    {
      "inputs": [],
      "name": "NotInitializing",
      "type": "error"
    },
    {
      "inputs": [
        {
          "internalType": "address",
          "name": "owner",
          "type": "address"
        }
      ],
      "name": "OwnableInvalidOwner",
      "type": "error"
    },
    {
      "inputs": [
        {
          "internalType": "address",
          "name": "account",
          "type": "address"
        }
      ],
      "name": "OwnableUnauthorizedAccount",
      "type": "error"
    },
    {
      "inputs": [],
      "name": "ValidatorSelectionFailed",
      "type": "error"
    },
    {
      "anonymous": false,
      "inputs": [
        {
          "indexed": true,
          "internalType": "address",
          "name": "caller",
          "type": "address"
        },
        {
          "indexed": false,
          "internalType": "bool",
          "name": "authorized",
          "type": "bool"
        }
      ],
      "name": "AuthorizedCallerUpdated",
      "type": "event"
    },
    {
      "anonymous": false,
      "inputs": [
        {
          "indexed": false,
          "internalType": "uint64",
          "name": "version",
          "type": "uint64"
        }
      ],
      "name": "Initialized",
      "type": "event"
    },
    {
      "anonymous": false,
      "inputs": [
        {
          "indexed": true,
          "internalType": "address",
          "name": "previousOwner",
          "type": "address"
        },
        {
          "indexed": true,
          "internalType": "address",
          "name": "newOwner",
          "type": "address"
        }
      ],
      "name": "OwnershipTransferStarted",
      "type": "event"
    },
    {
      "anonymous": false,
      "inputs": [
        {
          "indexed": true,
          "internalType": "address",
          "name": "previousOwner",
          "type": "address"
        },
        {
          "indexed": true,
          "internalType": "address",
          "name": "newOwner",
          "type": "address"
        }
      ],
      "name": "OwnershipTransferred",
      "type": "event"
    },
    {
      "anonymous": false,
      "inputs": [
        {
          "indexed": true,
          "internalType": "bytes32",
          "name": "role",
          "type": "bytes32"
        },
        {
          "indexed": true,
          "internalType": "bytes32",
          "name": "previousAdminRole",
          "type": "bytes32"
        },
        {
          "indexed": true,
          "internalType": "bytes32",
          "name": "newAdminRole",
          "type": "bytes32"
        }
      ],
      "name": "RoleAdminChanged",
      "type": "event"
    },
    {
      "anonymous": false,
      "inputs": [
        {
          "indexed": true,
          "internalType": "bytes32",
          "name": "role",
          "type": "bytes32"
        },
        {
          "indexed": true,
          "internalType": "address",
          "name": "account",
          "type": "address"
        },
        {
          "indexed": true,
          "internalType": "address",
          "name": "sender",
          "type": "address"
        }
      ],
      "name": "RoleGranted",
      "type": "event"
    },
    {
      "anonymous": false,
      "inputs": [
        {
          "indexed": true,
          "internalType": "bytes32",
          "name": "role",
          "type": "bytes32"
        },
        {
          "indexed": true,
          "internalType": "address",
          "name": "account",
          "type": "address"
        },
        {
          "indexed": true,
          "internalType": "address",
          "name": "sender",
          "type": "address"
        }
      ],
      "name": "RoleRevoked",
      "type": "event"
    },
    {
      "anonymous": false,
      "inputs": [
        {
          "indexed": false,
          "internalType": "uint256",
          "name": "activate",
          "type": "uint256"
        },
        {
          "indexed": false,
          "internalType": "uint256",
          "name": "propose",
          "type": "uint256"
        },
        {
          "indexed": false,
          "internalType": "uint256",
          "name": "commit",
          "type": "uint256"
        },
        {
          "indexed": false,
          "internalType": "uint256",
          "name": "reveal",
          "type": "uint256"
        },
        {
          "indexed": false,
          "internalType": "uint256",
          "name": "accept",
          "type": "uint256"
        },
        {
          "indexed": false,
          "internalType": "uint256",
          "name": "leaderReveal",
          "type": "uint256"
        }
      ],
      "name": "TimeoutsSet",
      "type": "event"
    },
    {
      "anonymous": false,
      "inputs": [
        {
          "indexed": true,
          "internalType": "bytes32",
          "name": "txId",
          "type": "bytes32"
        },
        {
          "indexed": true,
          "internalType": "address",
          "name": "oldActivator",
          "type": "address"
        },
        {
          "indexed": true,
          "internalType": "address",
          "name": "newActivator",
          "type": "address"
        }
      ],
      "name": "TransactionActivatorChanged",
      "type": "event"
    },
    {
      "anonymous": false,
      "inputs": [
        {
          "indexed": true,
          "internalType": "bytes32",
          "name": "txId",
          "type": "bytes32"
        }
      ],
      "name": "TransactionCancelled",
      "type": "event"
    },
    {
      "anonymous": false,
      "inputs": [
        {
          "indexed": true,
          "internalType": "bytes32",
          "name": "txId",
          "type": "bytes32"
        },
        {
          "indexed": true,
          "internalType": "address",
          "name": "oldLeader",
          "type": "address"
        },
        {
          "indexed": true,
          "internalType": "address",
          "name": "newLeader",
          "type": "address"
        }
      ],
      "name": "TransactionLeaderChanged",
      "type": "event"
    },
    {
      "anonymous": false,
      "inputs": [
        {
          "indexed": true,
          "internalType": "bytes32",
          "name": "txId",
          "type": "bytes32"
        }
      ],
      "name": "TransactionUndetermined",
      "type": "event"
    },
    {
      "anonymous": false,
      "inputs": [
        {
          "indexed": true,
          "internalType": "bytes32",
          "name": "txId",
          "type": "bytes32"
        },
        {
          "indexed": false,
          "internalType": "address",
          "name": "newValidator",
          "type": "address"
        }
      ],
      "name": "TransactionValidatorChanged",
      "type": "event"
    },
    {
      "anonymous": false,
      "inputs": [
        {
          "indexed": true,
          "internalType": "bytes32",
          "name": "txId",
          "type": "bytes32"
        },
        {
          "indexed": false,
          "internalType": "address",
          "name": "validator",
          "type": "address"
        },
        {
          "indexed": false,
          "internalType": "uint256",
          "name": "strikes",
          "type": "uint256"
        }
      ],
      "name": "ValidatorReceivedStrike",
      "type": "event"
    },
    {
      "anonymous": false,
      "inputs": [
        {
          "indexed": true,
          "internalType": "bytes32",
          "name": "txId",
          "type": "bytes32"
        },
        {
          "indexed": false,
          "internalType": "address[]",
          "name": "validators",
          "type": "address[]"
        }
      ],
      "name": "ValidatorsSlashed",
      "type": "event"
    },
    {
      "inputs": [],
      "name": "BAN_MAX",
      "outputs": [
        {
          "internalType": "uint256",
          "name": "",
          "type": "uint256"
        }
      ],
      "stateMutability": "view",
      "type": "function"
    },
    {
      "inputs": [],
      "name": "BAN_MIN",
      "outputs": [
        {
          "internalType": "uint256",
          "name": "",
          "type": "uint256"
        }
      ],
      "stateMutability": "view",
      "type": "function"
    },
    {
      "inputs": [],
      "name": "DEFAULT_ADMIN_ROLE",
      "outputs": [
        {
          "internalType": "bytes32",
          "name": "",
          "type": "bytes32"
        }
      ],
      "stateMutability": "view",
      "type": "function"
    },
    {
      "inputs": [],
      "name": "EVENTS_BATCH_SIZE",
      "outputs": [
        {
          "internalType": "uint256",
          "name": "",
          "type": "uint256"
        }
      ],
      "stateMutability": "view",
      "type": "function"
    },
    {
      "inputs": [],
      "name": "HANGING_SCAN_LIMIT",
      "outputs": [
        {
          "internalType": "uint256",
          "name": "",
          "type": "uint256"
        }
      ],
      "stateMutability": "view",
      "type": "function"
    },
    {
      "inputs": [],
      "name": "SLASH_MAX",
      "outputs": [
        {
          "internalType": "uint256",
          "name": "",
          "type": "uint256"
        }
      ],
      "stateMutability": "view",
      "type": "function"
    },
    {
      "inputs": [],
      "name": "SLASH_MIN",
      "outputs": [
        {
          "internalType": "uint256",
          "name": "",
          "type": "uint256"
        }
      ],
      "stateMutability": "view",
      "type": "function"
    },
    {
      "inputs": [],
      "name": "acceptOwnership",
      "outputs": [],
      "stateMutability": "nonpayable",
      "type": "function"
    },
    {
      "inputs": [
        {
          "internalType": "bytes32",
          "name": "_txId",
          "type": "bytes32"
        },
        {
          "internalType": "address",
          "name": "_validator",
          "type": "address"
        }
      ],
      "name": "addToCommittedValidators",
      "outputs": [],
      "stateMutability": "nonpayable",
      "type": "function"
    },
    {
      "inputs": [
        {
          "internalType": "bytes32",
          "name": "_txId",
          "type": "bytes32"
        },
        {
          "internalType": "address",
          "name": "_validator",
          "type": "address"
        }
      ],
      "name": "addToConsumedValidators",
      "outputs": [],
      "stateMutability": "nonpayable",
      "type": "function"
    },
    {
      "inputs": [],
      "name": "addressManager",
      "outputs": [
        {
          "internalType": "contract IAddressManager",
          "name": "",
          "type": "address"
        }
      ],
      "stateMutability": "view",
      "type": "function"
    },
    {
      "inputs": [
        {
          "internalType": "address",
          "name": "",
          "type": "address"
        }
      ],
      "name": "authorizedCallers",
      "outputs": [
        {
          "internalType": "bool",
          "name": "",
          "type": "bool"
        }
      ],
      "stateMutability": "view",
      "type": "function"
    },
    {
      "inputs": [],
      "name": "banPeriod",
      "outputs": [
        {
          "internalType": "uint256",
          "name": "",
          "type": "uint256"
        }
      ],
      "stateMutability": "view",
      "type": "function"
    },
    {
      "inputs": [
        {
          "components": [
            {
              "internalType": "enum ITransactions.ResultType",
              "name": "result",
              "type": "uint8"
            },
            {
              "internalType": "enum ITransactions.VoteType",
              "name": "txExecutionResult",
              "type": "uint8"
            },
            {
              "internalType": "enum ITransactions.TransactionStatus",
              "name": "previousStatus",
              "type": "uint8"
            },
            {
              "internalType": "enum ITransactions.TransactionStatus",
              "name": "status",
              "type": "uint8"
            },
            {
              "internalType": "address",
              "name": "txOrigin",
              "type": "address"
            },
            {
              "internalType": "address",
              "name": "sender",
              "type": "address"
            },
            {
              "internalType": "address",
              "name": "recipient",
              "type": "address"
            },
            {
              "internalType": "address",
              "name": "activator",
              "type": "address"
            },
            {
              "internalType": "uint256",
              "name": "txSlot",
              "type": "uint256"
            },
            {
              "internalType": "uint256",
              "name": "initialRotations",
              "type": "uint256"
            },
            {
              "internalType": "uint256",
              "name": "numOfInitialValidators",
              "type": "uint256"
            },
            {
              "internalType": "uint256",
              "name": "epoch",
              "type": "uint256"
            },
            {
              "internalType": "bytes32",
              "name": "id",
              "type": "bytes32"
            },
            {
              "internalType": "bytes32",
              "name": "randomSeed",
              "type": "bytes32"
            },
            {
              "internalType": "bytes32",
              "name": "txExecutionHash",
              "type": "bytes32"
            },
            {
              "internalType": "bytes32",
              "name": "resultHash",
              "type": "bytes32"
            },
            {
              "internalType": "bytes",
              "name": "txCalldata",
              "type": "bytes"
            },
            {
              "internalType": "bytes",
              "name": "eqBlocksOutputs",
              "type": "bytes"
            },
            {
              "components": [
                {
                  "internalType": "uint256",
                  "name": "activationBlock",
                  "type": "uint256"
                },
                {
                  "internalType": "uint256",
                  "name": "processingBlock",
                  "type": "uint256"
                },
                {
                  "internalType": "uint256",
                  "name": "proposalBlock",
                  "type": "uint256"
                }
              ],
              "internalType": "struct ITransactions.ReadStateBlockRange[]",
              "name": "readStateBlockRanges",
              "type": "tuple[]"
            },
            {
              "internalType": "uint256",
              "name": "validUntil",
              "type": "uint256"
            },
            {
              "internalType": "uint256",
              "name": "value",
              "type": "uint256"
            },
            {
              "internalType": "uint256",
              "name": "lockedStorageUnitPrice",
              "type": "uint256"
            },
            {
              "internalType": "uint256",
              "name": "storageFeeUsed",
              "type": "uint256"
            }
          ],
          "internalType": "struct ITransactions.Transaction",
          "name": "_transaction",
          "type": "tuple"
        },
        {
          "components": [
            {
              "internalType": "uint256",
              "name": "round",
              "type": "uint256"
            },
            {
              "internalType": "uint256",
              "name": "leaderIndex",
              "type": "uint256"
            },
            {
              "internalType": "uint256",
              "name": "votesCommitted",
              "type": "uint256"
            },
            {
              "internalType": "uint256",
              "name": "votesRevealed",
              "type": "uint256"
            },
            {
              "internalType": "uint256",
              "name": "appealBond",
              "type": "uint256"
            },
            {
              "internalType": "uint256",
              "name": "rotationsLeft",
              "type": "uint256"
            },
            {
              "internalType": "enum ITransactions.ResultType",
              "name": "result",
              "type": "uint8"
            },
            {
              "internalType": "address[]",
              "name": "roundValidators",
              "type": "address[]"
            },
            {
              "internalType": "enum ITransactions.VoteType[]",
              "name": "validatorVotes",
              "type": "uint8[]"
            },
            {
              "internalType": "bytes32[]",
              "name": "validatorVotesHash",
              "type": "bytes32[]"
            },
            {
              "internalType": "bytes32[]",
              "name": "validatorResultHash",
              "type": "bytes32[]"
            }
          ],
          "internalType": "struct ITransactions.RoundData",
          "name": "_roundData",
          "type": "tuple"
        }
      ],
      "name": "checkAllIdleOnCommit",
      "outputs": [
        {
          "internalType": "bool",
          "name": "changeToUndetermined",
          "type": "bool"
        },
        {
          "internalType": "bool",
          "name": "leaderIsIdle",
          "type": "bool"
        },
        {
          "internalType": "uint256[]",
          "name": "idleValidatorsIndexes",
          "type": "uint256[]"
        },
        {
          "internalType": "address[]",
          "name": "replacementValidators",
          "type": "address[]"
        },
        {
          "internalType": "bytes32[]",
          "name": "undeterminedTxIds",
          "type": "bytes32[]"
        }
      ],
      "stateMutability": "nonpayable",
      "type": "function"
    },
    {
      "inputs": [
        {
          "internalType": "bytes32",
          "name": "_txId",
          "type": "bytes32"
        },
        {
          "internalType": "enum ITransactions.TransactionStatus",
          "name": "_status",
          "type": "uint8"
        }
      ],
      "name": "checkFirstSlotElapsed",
      "outputs": [
        {
          "internalType": "bool",
          "name": "",
          "type": "bool"
        }
      ],
      "stateMutability": "view",
      "type": "function"
    },
    {
      "inputs": [
        {
          "internalType": "address",
          "name": "_activator",
          "type": "address"
        },
        {
          "internalType": "address",
          "name": "_previousActivator",
          "type": "address"
        },
        {
          "internalType": "bytes32",
          "name": "_randomSeed",
          "type": "bytes32"
        },
        {
          "components": [
            {
              "internalType": "enum ITransactions.ResultType",
              "name": "result",
              "type": "uint8"
            },
            {
              "internalType": "enum ITransactions.VoteType",
              "name": "txExecutionResult",
              "type": "uint8"
            },
            {
              "internalType": "enum ITransactions.TransactionStatus",
              "name": "previousStatus",
              "type": "uint8"
            },
            {
              "internalType": "enum ITransactions.TransactionStatus",
              "name": "status",
              "type": "uint8"
            },
            {
              "internalType": "address",
              "name": "txOrigin",
              "type": "address"
            },
            {
              "internalType": "address",
              "name": "sender",
              "type": "address"
            },
            {
              "internalType": "address",
              "name": "recipient",
              "type": "address"
            },
            {
              "internalType": "address",
              "name": "activator",
              "type": "address"
            },
            {
              "internalType": "uint256",
              "name": "txSlot",
              "type": "uint256"
            },
            {
              "internalType": "uint256",
              "name": "initialRotations",
              "type": "uint256"
            },
            {
              "internalType": "uint256",
              "name": "numOfInitialValidators",
              "type": "uint256"
            },
            {
              "internalType": "uint256",
              "name": "epoch",
              "type": "uint256"
            },
            {
              "internalType": "bytes32",
              "name": "id",
              "type": "bytes32"
            },
            {
              "internalType": "bytes32",
              "name": "randomSeed",
              "type": "bytes32"
            },
            {
              "internalType": "bytes32",
              "name": "txExecutionHash",
              "type": "bytes32"
            },
            {
              "internalType": "bytes32",
              "name": "resultHash",
              "type": "bytes32"
            },
            {
              "internalType": "bytes",
              "name": "txCalldata",
              "type": "bytes"
            },
            {
              "internalType": "bytes",
              "name": "eqBlocksOutputs",
              "type": "bytes"
            },
            {
              "components": [
                {
                  "internalType": "uint256",
                  "name": "activationBlock",
                  "type": "uint256"
                },
                {
                  "internalType": "uint256",
                  "name": "processingBlock",
                  "type": "uint256"
                },
                {
                  "internalType": "uint256",
                  "name": "proposalBlock",
                  "type": "uint256"
                }
              ],
              "internalType": "struct ITransactions.ReadStateBlockRange[]",
              "name": "readStateBlockRanges",
              "type": "tuple[]"
            },
            {
              "internalType": "uint256",
              "name": "validUntil",
              "type": "uint256"
            },
            {
              "internalType": "uint256",
              "name": "value",
              "type": "uint256"
            },
            {
              "internalType": "uint256",
              "name": "lockedStorageUnitPrice",
              "type": "uint256"
            },
            {
              "internalType": "uint256",
              "name": "storageFeeUsed",
              "type": "uint256"
            }
          ],
          "internalType": "struct ITransactions.Transaction",
          "name": "_transaction",
          "type": "tuple"
        }
      ],
      "name": "checkIdleOnActivation",
      "outputs": [
        {
          "internalType": "bool",
          "name": "isActivatorIdle",
          "type": "bool"
        },
        {
          "internalType": "bool",
          "name": "changeToUndetermined",
          "type": "bool"
        },
        {
          "internalType": "address",
          "name": "newActivator",
          "type": "address"
        },
        {
          "internalType": "bytes32[]",
          "name": "undeterminedTxIds",
          "type": "bytes32[]"
        },
        {
          "internalType": "bytes32[]",
          "name": "expiredTxIds",
          "type": "bytes32[]"
        }
      ],
      "stateMutability": "nonpayable",
      "type": "function"
    },
    {
      "inputs": [
        {
          "internalType": "address",
          "name": "_validator",
          "type": "address"
        },
        {
          "components": [
            {
              "internalType": "enum ITransactions.ResultType",
              "name": "result",
              "type": "uint8"
            },
            {
              "internalType": "enum ITransactions.VoteType",
              "name": "txExecutionResult",
              "type": "uint8"
            },
            {
              "internalType": "enum ITransactions.TransactionStatus",
              "name": "previousStatus",
              "type": "uint8"
            },
            {
              "internalType": "enum ITransactions.TransactionStatus",
              "name": "status",
              "type": "uint8"
            },
            {
              "internalType": "address",
              "name": "txOrigin",
              "type": "address"
            },
            {
              "internalType": "address",
              "name": "sender",
              "type": "address"
            },
            {
              "internalType": "address",
              "name": "recipient",
              "type": "address"
            },
            {
              "internalType": "address",
              "name": "activator",
              "type": "address"
            },
            {
              "internalType": "uint256",
              "name": "txSlot",
              "type": "uint256"
            },
            {
              "internalType": "uint256",
              "name": "initialRotations",
              "type": "uint256"
            },
            {
              "internalType": "uint256",
              "name": "numOfInitialValidators",
              "type": "uint256"
            },
            {
              "internalType": "uint256",
              "name": "epoch",
              "type": "uint256"
            },
            {
              "internalType": "bytes32",
              "name": "id",
              "type": "bytes32"
            },
            {
              "internalType": "bytes32",
              "name": "randomSeed",
              "type": "bytes32"
            },
            {
              "internalType": "bytes32",
              "name": "txExecutionHash",
              "type": "bytes32"
            },
            {
              "internalType": "bytes32",
              "name": "resultHash",
              "type": "bytes32"
            },
            {
              "internalType": "bytes",
              "name": "txCalldata",
              "type": "bytes"
            },
            {
              "internalType": "bytes",
              "name": "eqBlocksOutputs",
              "type": "bytes"
            },
            {
              "components": [
                {
                  "internalType": "uint256",
                  "name": "activationBlock",
                  "type": "uint256"
                },
                {
                  "internalType": "uint256",
                  "name": "processingBlock",
                  "type": "uint256"
                },
                {
                  "internalType": "uint256",
                  "name": "proposalBlock",
                  "type": "uint256"
                }
              ],
              "internalType": "struct ITransactions.ReadStateBlockRange[]",
              "name": "readStateBlockRanges",
              "type": "tuple[]"
            },
            {
              "internalType": "uint256",
              "name": "validUntil",
              "type": "uint256"
            },
            {
              "internalType": "uint256",
              "name": "value",
              "type": "uint256"
            },
            {
              "internalType": "uint256",
              "name": "lockedStorageUnitPrice",
              "type": "uint256"
            },
            {
              "internalType": "uint256",
              "name": "storageFeeUsed",
              "type": "uint256"
            }
          ],
          "internalType": "struct ITransactions.Transaction",
          "name": "_transaction",
          "type": "tuple"
        },
        {
          "components": [
            {
              "internalType": "uint256",
              "name": "round",
              "type": "uint256"
            },
            {
              "internalType": "uint256",
              "name": "leaderIndex",
              "type": "uint256"
            },
            {
              "internalType": "uint256",
              "name": "votesCommitted",
              "type": "uint256"
            },
            {
              "internalType": "uint256",
              "name": "votesRevealed",
              "type": "uint256"
            },
            {
              "internalType": "uint256",
              "name": "appealBond",
              "type": "uint256"
            },
            {
              "internalType": "uint256",
              "name": "rotationsLeft",
              "type": "uint256"
            },
            {
              "internalType": "enum ITransactions.ResultType",
              "name": "result",
              "type": "uint8"
            },
            {
              "internalType": "address[]",
              "name": "roundValidators",
              "type": "address[]"
            },
            {
              "internalType": "enum ITransactions.VoteType[]",
              "name": "validatorVotes",
              "type": "uint8[]"
            },
            {
              "internalType": "bytes32[]",
              "name": "validatorVotesHash",
              "type": "bytes32[]"
            },
            {
              "internalType": "bytes32[]",
              "name": "validatorResultHash",
              "type": "bytes32[]"
            }
          ],
          "internalType": "struct ITransactions.RoundData",
          "name": "_roundData",
          "type": "tuple"
        }
      ],
      "name": "checkIdleOnCommitVote",
      "outputs": [
        {
          "internalType": "bool",
          "name": "isValidatorIdle",
          "type": "bool"
        },
        {
          "internalType": "bool",
          "name": "changeToUndetermined",
          "type": "bool"
        },
        {
          "internalType": "address",
          "name": "newValidator",
          "type": "address"
        },
        {
          "internalType": "bytes32[]",
          "name": "undeterminedTxIds",
          "type": "bytes32[]"
        },
        {
          "internalType": "uint256[]",
          "name": "idleValidatorsIndexes",
          "type": "uint256[]"
        },
        {
          "internalType": "address[]",
          "name": "allReplacementValidators",
          "type": "address[]"
        }
      ],
      "stateMutability": "nonpayable",
      "type": "function"
    },
    {
      "inputs": [
        {
          "internalType": "address",
          "name": "_leader",
          "type": "address"
        },
        {
          "internalType": "address",
          "name": "_previousLeader",
          "type": "address"
        },
        {
          "components": [
            {
              "internalType": "enum ITransactions.ResultType",
              "name": "result",
              "type": "uint8"
            },
            {
              "internalType": "enum ITransactions.VoteType",
              "name": "txExecutionResult",
              "type": "uint8"
            },
            {
              "internalType": "enum ITransactions.TransactionStatus",
              "name": "previousStatus",
              "type": "uint8"
            },
            {
              "internalType": "enum ITransactions.TransactionStatus",
              "name": "status",
              "type": "uint8"
            },
            {
              "internalType": "address",
              "name": "txOrigin",
              "type": "address"
            },
            {
              "internalType": "address",
              "name": "sender",
              "type": "address"
            },
            {
              "internalType": "address",
              "name": "recipient",
              "type": "address"
            },
            {
              "internalType": "address",
              "name": "activator",
              "type": "address"
            },
            {
              "internalType": "uint256",
              "name": "txSlot",
              "type": "uint256"
            },
            {
              "internalType": "uint256",
              "name": "initialRotations",
              "type": "uint256"
            },
            {
              "internalType": "uint256",
              "name": "numOfInitialValidators",
              "type": "uint256"
            },
            {
              "internalType": "uint256",
              "name": "epoch",
              "type": "uint256"
            },
            {
              "internalType": "bytes32",
              "name": "id",
              "type": "bytes32"
            },
            {
              "internalType": "bytes32",
              "name": "randomSeed",
              "type": "bytes32"
            },
            {
              "internalType": "bytes32",
              "name": "txExecutionHash",
              "type": "bytes32"
            },
            {
              "internalType": "bytes32",
              "name": "resultHash",
              "type": "bytes32"
            },
            {
              "internalType": "bytes",
              "name": "txCalldata",
              "type": "bytes"
            },
            {
              "internalType": "bytes",
              "name": "eqBlocksOutputs",
              "type": "bytes"
            },
            {
              "components": [
                {
                  "internalType": "uint256",
                  "name": "activationBlock",
                  "type": "uint256"
                },
                {
                  "internalType": "uint256",
                  "name": "processingBlock",
                  "type": "uint256"
                },
                {
                  "internalType": "uint256",
                  "name": "proposalBlock",
                  "type": "uint256"
                }
              ],
              "internalType": "struct ITransactions.ReadStateBlockRange[]",
              "name": "readStateBlockRanges",
              "type": "tuple[]"
            },
            {
              "internalType": "uint256",
              "name": "validUntil",
              "type": "uint256"
            },
            {
              "internalType": "uint256",
              "name": "value",
              "type": "uint256"
            },
            {
              "internalType": "uint256",
              "name": "lockedStorageUnitPrice",
              "type": "uint256"
            },
            {
              "internalType": "uint256",
              "name": "storageFeeUsed",
              "type": "uint256"
            }
          ],
          "internalType": "struct ITransactions.Transaction",
          "name": "_transaction",
          "type": "tuple"
        }
      ],
      "name": "checkIdleOnProposeReceipt",
      "outputs": [
        {
          "internalType": "bool",
          "name": "leaderIsIdle",
          "type": "bool"
        },
        {
          "internalType": "bool",
          "name": "changeToUndetermined",
          "type": "bool"
        },
        {
          "internalType": "address",
          "name": "newLeader",
          "type": "address"
        },
        {
          "internalType": "bytes32[]",
          "name": "undeterminedTxIds",
          "type": "bytes32[]"
        },
        {
          "internalType": "bytes32[]",
          "name": "expiredTxIds",
          "type": "bytes32[]"
        }
      ],
      "stateMutability": "nonpayable",
      "type": "function"
    },
    {
      "inputs": [
        {
          "internalType": "bytes32",
          "name": "",
          "type": "bytes32"
        },
        {
          "internalType": "uint256",
          "name": "",
          "type": "uint256"
        }
      ],
      "name": "committedValidators",
      "outputs": [
        {
          "internalType": "address",
          "name": "",
          "type": "address"
        }
      ],
      "stateMutability": "view",
      "type": "function"
    },
    {
      "inputs": [
        {
          "internalType": "bytes32",
          "name": "",
          "type": "bytes32"
        },
        {
          "internalType": "uint256",
          "name": "",
          "type": "uint256"
        }
      ],
      "name": "consumedValidators",
      "outputs": [
        {
          "internalType": "address",
          "name": "",
          "type": "address"
        }
      ],
      "stateMutability": "view",
      "type": "function"
    },
    {
      "inputs": [],
      "name": "dummyCounter",
      "outputs": [
        {
          "internalType": "uint256",
          "name": "",
          "type": "uint256"
        }
      ],
      "stateMutability": "view",
      "type": "function"
    },
    {
      "inputs": [
        {
          "internalType": "bytes32",
          "name": "_txId",
          "type": "bytes32"
        }
      ],
      "name": "getCommittedValidators",
      "outputs": [
        {
          "internalType": "address[]",
          "name": "",
          "type": "address[]"
        }
      ],
      "stateMutability": "view",
      "type": "function"
    },
    {
      "inputs": [
        {
          "internalType": "bytes32",
          "name": "_txId",
          "type": "bytes32"
        }
      ],
      "name": "getConsumedValidators",
      "outputs": [
        {
          "internalType": "address[]",
          "name": "",
          "type": "address[]"
        }
      ],
      "stateMutability": "view",
      "type": "function"
    },
    {
      "inputs": [
        {
          "internalType": "bytes32",
          "name": "_txId",
          "type": "bytes32"
        },
        {
          "internalType": "bytes32",
          "name": "_recipientRandomSeed",
          "type": "bytes32"
        },
        {
          "internalType": "uint256",
          "name": "_timestamp",
          "type": "uint256"
        }
      ],
      "name": "getCurrentActivator",
      "outputs": [
        {
          "internalType": "address",
          "name": "activator",
          "type": "address"
        },
        {
          "internalType": "bool",
          "name": "isValid",
          "type": "bool"
        }
      ],
      "stateMutability": "view",
      "type": "function"
    },
    {
      "inputs": [
        {
          "internalType": "bytes32",
          "name": "_randomSeed",
          "type": "bytes32"
        },
        {
          "internalType": "uint256",
          "name": "_slots",
          "type": "uint256"
        },
        {
          "internalType": "uint256",
          "name": "_numberOfValidators",
          "type": "uint256"
        },
        {
          "internalType": "bool",
          "name": "_isWeighted",
          "type": "bool"
        },
        {
          "internalType": "uint256",
          "name": "_txCreatedTimestamp",
          "type": "uint256"
        },
        {
          "internalType": "address[]",
          "name": "_consumedValidators",
          "type": "address[]"
        },
        {
          "internalType": "uint256",
          "name": "_epoch",
          "type": "uint256"
        }
      ],
      "name": "getNextValidators",
      "outputs": [
        {
          "internalType": "uint256",
          "name": "leader",
          "type": "uint256"
        },
        {
          "internalType": "address[]",
          "name": "validators",
          "type": "address[]"
        },
        {
          "internalType": "address[]",
          "name": "penalized",
          "type": "address[]"
        }
      ],
      "stateMutability": "view",
      "type": "function"
    },
    {
      "inputs": [
        {
          "internalType": "bytes32",
          "name": "role",
          "type": "bytes32"
        }
      ],
      "name": "getRoleAdmin",
      "outputs": [
        {
          "internalType": "bytes32",
          "name": "",
          "type": "bytes32"
        }
      ],
      "stateMutability": "view",
      "type": "function"
    },
    {
      "inputs": [
        {
          "internalType": "enum ITransactions.TransactionStatus",
          "name": "_status",
          "type": "uint8"
        },
        {
          "internalType": "bytes32",
          "name": "_txId",
          "type": "bytes32"
        },
        {
          "internalType": "uint256",
          "name": "_currentTimestamp",
          "type": "uint256"
        }
      ],
      "name": "getSlotsElapsed",
      "outputs": [
        {
          "internalType": "uint256",
          "name": "",
          "type": "uint256"
        }
      ],
      "stateMutability": "view",
      "type": "function"
    },
    {
      "inputs": [
        {
          "internalType": "bytes32",
          "name": "_txId",
          "type": "bytes32"
        },
        {
          "internalType": "enum ITransactions.TransactionStatus",
          "name": "_status",
          "type": "uint8"
        },
        {
          "internalType": "uint256",
          "name": "_currentTimestamp",
          "type": "uint256"
        }
      ],
      "name": "getSlotsElapsedAndIsTransactionHanging",
      "outputs": [
        {
          "internalType": "uint256",
          "name": "",
          "type": "uint256"
        },
        {
          "internalType": "bool",
          "name": "",
          "type": "bool"
        }
      ],
      "stateMutability": "view",
      "type": "function"
    },
    {
      "inputs": [],
      "name": "getTimeouts",
      "outputs": [
        {
          "components": [
            {
              "internalType": "uint256",
              "name": "activate",
              "type": "uint256"
            },
            {
              "internalType": "uint256",
              "name": "propose",
              "type": "uint256"
            },
            {
              "internalType": "uint256",
              "name": "commit",
              "type": "uint256"
            },
            {
              "internalType": "uint256",
              "name": "reveal",
              "type": "uint256"
            },
            {
              "internalType": "uint256",
              "name": "accept",
              "type": "uint256"
            },
            {
              "internalType": "uint256",
              "name": "leaderReveal",
              "type": "uint256"
            }
          ],
          "internalType": "struct IIdleness.Timeouts",
          "name": "",
          "type": "tuple"
        }
      ],
      "stateMutability": "view",
      "type": "function"
    },
    {
      "inputs": [
        {
          "internalType": "bytes32",
          "name": "_txId",
          "type": "bytes32"
        }
      ],
      "name": "getTimestamps",
      "outputs": [
        {
          "components": [
            {
              "internalType": "uint256",
              "name": "created",
              "type": "uint256"
            },
            {
              "internalType": "uint256",
              "name": "pending",
              "type": "uint256"
            },
            {
              "internalType": "uint256",
              "name": "activated",
              "type": "uint256"
            },
            {
              "internalType": "uint256",
              "name": "proposed",
              "type": "uint256"
            },
            {
              "internalType": "uint256",
              "name": "committed",
              "type": "uint256"
            },
            {
              "internalType": "uint256",
              "name": "lastVote",
              "type": "uint256"
            },
            {
              "internalType": "uint256",
              "name": "appealSubmitted",
              "type": "uint256"
            },
            {
              "internalType": "uint256",
              "name": "leaderRevealed",
              "type": "uint256"
            }
          ],
          "internalType": "struct IIdleness.Timestamps",
          "name": "",
          "type": "tuple"
        }
      ],
      "stateMutability": "view",
      "type": "function"
    },
    {
      "inputs": [
        {
          "internalType": "bytes32",
          "name": "role",
          "type": "bytes32"
        },
        {
          "internalType": "address",
          "name": "account",
          "type": "address"
        }
      ],
      "name": "grantRole",
      "outputs": [],
      "stateMutability": "nonpayable",
      "type": "function"
    },
    {
      "inputs": [],
      "name": "hangingTransactionMultiple",
      "outputs": [
        {
          "internalType": "uint256",
          "name": "",
          "type": "uint256"
        }
      ],
      "stateMutability": "view",
      "type": "function"
    },
    {
      "inputs": [
        {
          "internalType": "bytes32",
          "name": "role",
          "type": "bytes32"
        },
        {
          "internalType": "address",
          "name": "account",
          "type": "address"
        }
      ],
      "name": "hasRole",
      "outputs": [
        {
          "internalType": "bool",
          "name": "",
          "type": "bool"
        }
      ],
      "stateMutability": "view",
      "type": "function"
    },
    {
      "inputs": [
        {
          "internalType": "bytes32",
          "name": "",
          "type": "bytes32"
        }
      ],
      "name": "idlenessRecomputationCounter",
      "outputs": [
        {
          "internalType": "uint256",
          "name": "",
          "type": "uint256"
        }
      ],
      "stateMutability": "view",
      "type": "function"
    },
    {
      "inputs": [
        {
          "internalType": "bytes32",
          "name": "_txId",
          "type": "bytes32"
        }
      ],
      "name": "incrementRecomputationCounter",
      "outputs": [],
      "stateMutability": "nonpayable",
      "type": "function"
    },
    {
      "inputs": [
        {
          "internalType": "address",
          "name": "_addressManager",
          "type": "address"
        }
      ],
      "name": "initialize",
      "outputs": [],
      "stateMutability": "nonpayable",
      "type": "function"
    },
    {
      "inputs": [
        {
          "components": [
            {
              "internalType": "enum ITransactions.ResultType",
              "name": "result",
              "type": "uint8"
            },
            {
              "internalType": "enum ITransactions.VoteType",
              "name": "txExecutionResult",
              "type": "uint8"
            },
            {
              "internalType": "enum ITransactions.TransactionStatus",
              "name": "previousStatus",
              "type": "uint8"
            },
            {
              "internalType": "enum ITransactions.TransactionStatus",
              "name": "status",
              "type": "uint8"
            },
            {
              "internalType": "address",
              "name": "txOrigin",
              "type": "address"
            },
            {
              "internalType": "address",
              "name": "sender",
              "type": "address"
            },
            {
              "internalType": "address",
              "name": "recipient",
              "type": "address"
            },
            {
              "internalType": "address",
              "name": "activator",
              "type": "address"
            },
            {
              "internalType": "uint256",
              "name": "txSlot",
              "type": "uint256"
            },
            {
              "internalType": "uint256",
              "name": "initialRotations",
              "type": "uint256"
            },
            {
              "internalType": "uint256",
              "name": "numOfInitialValidators",
              "type": "uint256"
            },
            {
              "internalType": "uint256",
              "name": "epoch",
              "type": "uint256"
            },
            {
              "internalType": "bytes32",
              "name": "id",
              "type": "bytes32"
            },
            {
              "internalType": "bytes32",
              "name": "randomSeed",
              "type": "bytes32"
            },
            {
              "internalType": "bytes32",
              "name": "txExecutionHash",
              "type": "bytes32"
            },
            {
              "internalType": "bytes32",
              "name": "resultHash",
              "type": "bytes32"
            },
            {
              "internalType": "bytes",
              "name": "txCalldata",
              "type": "bytes"
            },
            {
              "internalType": "bytes",
              "name": "eqBlocksOutputs",
              "type": "bytes"
            },
            {
              "components": [
                {
                  "internalType": "uint256",
                  "name": "activationBlock",
                  "type": "uint256"
                },
                {
                  "internalType": "uint256",
                  "name": "processingBlock",
                  "type": "uint256"
                },
                {
                  "internalType": "uint256",
                  "name": "proposalBlock",
                  "type": "uint256"
                }
              ],
              "internalType": "struct ITransactions.ReadStateBlockRange[]",
              "name": "readStateBlockRanges",
              "type": "tuple[]"
            },
            {
              "internalType": "uint256",
              "name": "validUntil",
              "type": "uint256"
            },
            {
              "internalType": "uint256",
              "name": "value",
              "type": "uint256"
            },
            {
              "internalType": "uint256",
              "name": "lockedStorageUnitPrice",
              "type": "uint256"
            },
            {
              "internalType": "uint256",
              "name": "storageFeeUsed",
              "type": "uint256"
            }
          ],
          "internalType": "struct ITransactions.Transaction",
          "name": "_tx",
          "type": "tuple"
        }
      ],
      "name": "isIdle",
      "outputs": [
        {
          "internalType": "bool",
          "name": "",
          "type": "bool"
        }
      ],
      "stateMutability": "view",
      "type": "function"
    },
    {
      "inputs": [],
      "name": "owner",
      "outputs": [
        {
          "internalType": "address",
          "name": "",
          "type": "address"
        }
      ],
      "stateMutability": "view",
      "type": "function"
    },
    {
      "inputs": [],
      "name": "pendingOwner",
      "outputs": [
        {
          "internalType": "address",
          "name": "",
          "type": "address"
        }
      ],
      "stateMutability": "view",
      "type": "function"
    },
    {
      "inputs": [
        {
          "internalType": "bytes32",
          "name": "txId",
          "type": "bytes32"
        },
        {
          "internalType": "address",
          "name": "validator",
          "type": "address"
        }
      ],
      "name": "receivedStrikeForTx",
      "outputs": [
        {
          "internalType": "bool",
          "name": "receivedStrike",
          "type": "bool"
        }
      ],
      "stateMutability": "view",
      "type": "function"
    },
    {
      "inputs": [],
      "name": "renounceOwnership",
      "outputs": [],
      "stateMutability": "nonpayable",
      "type": "function"
    },
    {
      "inputs": [
        {
          "internalType": "bytes32",
          "name": "role",
          "type": "bytes32"
        },
        {
          "internalType": "address",
          "name": "callerConfirmation",
          "type": "address"
        }
      ],
      "name": "renounceRole",
      "outputs": [],
      "stateMutability": "nonpayable",
      "type": "function"
    },
    {
      "inputs": [
        {
          "internalType": "address",
          "name": "_validator",
          "type": "address"
        }
      ],
      "name": "resetStrikesForValidator",
      "outputs": [],
      "stateMutability": "nonpayable",
      "type": "function"
    },
    {
      "inputs": [
        {
          "internalType": "address[]",
          "name": "_validators",
          "type": "address[]"
        }
      ],
      "name": "resetStrikesForValidators",
      "outputs": [],
      "stateMutability": "nonpayable",
      "type": "function"
    },
    {
      "inputs": [
        {
          "internalType": "bytes32",
          "name": "role",
          "type": "bytes32"
        },
        {
          "internalType": "address",
          "name": "account",
          "type": "address"
        }
      ],
      "name": "revokeRole",
      "outputs": [],
      "stateMutability": "nonpayable",
      "type": "function"
    },
    {
      "inputs": [
        {
          "internalType": "address",
          "name": "_addressManager",
          "type": "address"
        }
      ],
      "name": "setAddressManager",
      "outputs": [],
      "stateMutability": "nonpayable",
      "type": "function"
    },
    {
      "inputs": [
        {
          "internalType": "address",
          "name": "caller",
          "type": "address"
        },
        {
          "internalType": "bool",
          "name": "authorized",
          "type": "bool"
        }
      ],
      "name": "setAuthorizedCaller",
      "outputs": [],
      "stateMutability": "nonpayable",
      "type": "function"
    },
    {
      "inputs": [
        {
          "internalType": "address[]",
          "name": "callers",
          "type": "address[]"
        },
        {
          "internalType": "bool",
          "name": "authorized",
          "type": "bool"
        }
      ],
      "name": "setAuthorizedCallers",
      "outputs": [],
      "stateMutability": "nonpayable",
      "type": "function"
    },
    {
      "inputs": [
        {
          "internalType": "uint256",
          "name": "_banPeriod",
          "type": "uint256"
        }
      ],
      "name": "setBanPeriod",
      "outputs": [],
      "stateMutability": "nonpayable",
      "type": "function"
    },
    {
      "inputs": [],
      "name": "setDummyCounter",
      "outputs": [],
      "stateMutability": "nonpayable",
      "type": "function"
    },
    {
      "inputs": [
        {
          "internalType": "uint256",
          "name": "_hangingTransactionMultiple",
          "type": "uint256"
        }
      ],
      "name": "setHangingTransactionMultiple",
      "outputs": [],
      "stateMutability": "nonpayable",
      "type": "function"
    },
    {
      "inputs": [
        {
          "internalType": "uint256",
          "name": "_slashPercentage",
          "type": "uint256"
        }
      ],
      "name": "setSlashPercentage",
      "outputs": [],
      "stateMutability": "nonpayable",
      "type": "function"
    },
    {
      "inputs": [
        {
          "internalType": "uint256",
          "name": "_strikesMax",
          "type": "uint256"
        }
      ],
      "name": "setStrikesMax",
      "outputs": [],
      "stateMutability": "nonpayable",
      "type": "function"
    },
    {
      "inputs": [
        {
          "internalType": "uint256",
          "name": "_activate",
          "type": "uint256"
        },
        {
          "internalType": "uint256",
          "name": "_propose",
          "type": "uint256"
        },
        {
          "internalType": "uint256",
          "name": "_commit",
          "type": "uint256"
        },
        {
          "internalType": "uint256",
          "name": "_reveal",
          "type": "uint256"
        },
        {
          "internalType": "uint256",
          "name": "_accept",
          "type": "uint256"
        },
        {
          "internalType": "uint256",
          "name": "_leaderReveal",
          "type": "uint256"
        }
      ],
      "name": "setTimeouts",
      "outputs": [],
      "stateMutability": "nonpayable",
      "type": "function"
    },
    {
      "inputs": [
        {
          "internalType": "bytes32",
          "name": "_txId",
          "type": "bytes32"
        },
        {
          "internalType": "enum IIdleness.TimestampType",
          "name": "_type",
          "type": "uint8"
        },
        {
          "internalType": "uint256",
          "name": "_timestamp",
          "type": "uint256"
        }
      ],
      "name": "setTimestamp",
      "outputs": [],
      "stateMutability": "nonpayable",
      "type": "function"
    },
    {
      "inputs": [
        {
          "internalType": "bytes32",
          "name": "_txId",
          "type": "bytes32"
        },
        {
          "components": [
            {
              "internalType": "uint256",
              "name": "created",
              "type": "uint256"
            },
            {
              "internalType": "uint256",
              "name": "pending",
              "type": "uint256"
            },
            {
              "internalType": "uint256",
              "name": "activated",
              "type": "uint256"
            },
            {
              "internalType": "uint256",
              "name": "proposed",
              "type": "uint256"
            },
            {
              "internalType": "uint256",
              "name": "committed",
              "type": "uint256"
            },
            {
              "internalType": "uint256",
              "name": "lastVote",
              "type": "uint256"
            },
            {
              "internalType": "uint256",
              "name": "appealSubmitted",
              "type": "uint256"
            },
            {
              "internalType": "uint256",
              "name": "leaderRevealed",
              "type": "uint256"
            }
          ],
          "internalType": "struct IIdleness.Timestamps",
          "name": "_timestamps",
          "type": "tuple"
        }
      ],
      "name": "setTimestamps",
      "outputs": [],
      "stateMutability": "nonpayable",
      "type": "function"
    },
    {
      "inputs": [
        {
          "internalType": "bytes32",
          "name": "_txId",
          "type": "bytes32"
        },
        {
          "internalType": "address[]",
          "name": "_roundValidators",
          "type": "address[]"
        },
        {
          "internalType": "enum ITransactions.TransactionStatus",
          "name": "_txStatus",
          "type": "uint8"
        }
      ],
      "name": "slashNonCommittedValidators",
      "outputs": [],
      "stateMutability": "nonpayable",
      "type": "function"
    },
    {
      "inputs": [
        {
          "internalType": "bytes32",
          "name": "_txId",
          "type": "bytes32"
        },
        {
          "internalType": "address[]",
          "name": "_nonRevealedValidators",
          "type": "address[]"
        }
      ],
      "name": "slashNonRevealedValidators",
      "outputs": [],
      "stateMutability": "nonpayable",
      "type": "function"
    },
    {
      "inputs": [],
      "name": "slashPercentage",
      "outputs": [
        {
          "internalType": "uint256",
          "name": "",
          "type": "uint256"
        }
      ],
      "stateMutability": "view",
      "type": "function"
    },
    {
      "inputs": [],
      "name": "strikesMax",
      "outputs": [
        {
          "internalType": "uint256",
          "name": "",
          "type": "uint256"
        }
      ],
      "stateMutability": "view",
      "type": "function"
    },
    {
      "inputs": [
        {
          "internalType": "address",
          "name": "validator",
          "type": "address"
        },
        {
          "internalType": "uint256",
          "name": "epoch",
          "type": "uint256"
        }
      ],
      "name": "strikesPerEpoch",
      "outputs": [
        {
          "internalType": "uint256",
          "name": "count",
          "type": "uint256"
        }
      ],
      "stateMutability": "view",
      "type": "function"
    },
    {
      "inputs": [
        {
          "internalType": "bytes4",
          "name": "interfaceId",
          "type": "bytes4"
        }
      ],
      "name": "supportsInterface",
      "outputs": [
        {
          "internalType": "bool",
          "name": "",
          "type": "bool"
        }
      ],
      "stateMutability": "view",
      "type": "function"
    },
    {
      "inputs": [],
      "name": "timeouts",
      "outputs": [
        {
          "internalType": "uint256",
          "name": "activate",
          "type": "uint256"
        },
        {
          "internalType": "uint256",
          "name": "propose",
          "type": "uint256"
        },
        {
          "internalType": "uint256",
          "name": "commit",
          "type": "uint256"
        },
        {
          "internalType": "uint256",
          "name": "reveal",
          "type": "uint256"
        },
        {
          "internalType": "uint256",
          "name": "accept",
          "type": "uint256"
        },
        {
          "internalType": "uint256",
          "name": "leaderReveal",
          "type": "uint256"
        }
      ],
      "stateMutability": "view",
      "type": "function"
    },
    {
      "inputs": [
        {
          "internalType": "bytes32",
          "name": "",
          "type": "bytes32"
        }
      ],
      "name": "timestamps",
      "outputs": [
        {
          "internalType": "uint256",
          "name": "created",
          "type": "uint256"
        },
        {
          "internalType": "uint256",
          "name": "pending",
          "type": "uint256"
        },
        {
          "internalType": "uint256",
          "name": "activated",
          "type": "uint256"
        },
        {
          "internalType": "uint256",
          "name": "proposed",
          "type": "uint256"
        },
        {
          "internalType": "uint256",
          "name": "committed",
          "type": "uint256"
        },
        {
          "internalType": "uint256",
          "name": "lastVote",
          "type": "uint256"
        },
        {
          "internalType": "uint256",
          "name": "appealSubmitted",
          "type": "uint256"
        },
        {
          "internalType": "uint256",
          "name": "leaderRevealed",
          "type": "uint256"
        }
      ],
      "stateMutability": "view",
      "type": "function"
    },
    {
      "inputs": [
        {
          "internalType": "address",
          "name": "newOwner",
          "type": "address"
        }
      ],
      "name": "transferOwnership",
      "outputs": [],
      "stateMutability": "nonpayable",
      "type": "function"
    },
    {
      "inputs": [
        {
          "internalType": "bytes32",
          "name": "_txId",
          "type": "bytes32"
        },
        {
          "internalType": "address[]",
          "name": "_committedValidators",
          "type": "address[]"
        }
      ],
      "name": "updateCommittedValidators",
      "outputs": [],
      "stateMutability": "nonpayable",
      "type": "function"
    },
    {
      "inputs": [
        {
          "internalType": "bytes32",
          "name": "_txId",
          "type": "bytes32"
        },
        {
          "internalType": "address[]",
          "name": "_consumedValidators",
          "type": "address[]"
        }
      ],
      "name": "updateConsumedValidators",
      "outputs": [],
      "stateMutability": "nonpayable",
      "type": "function"
    }
  ],
  "bytecode": "0x60808060405234601557614f95908161001b8239f35b600080fdfe608080604052600436101561001357600080fd5b600090813560e01c90816301ffc9a71461263657508063023770b51461257057806302bbaae91461243b5780630652b57a146123f6578063090263a7146123245780630a7c8d48146122da5780630ab4b1141461229d578063103abeac146122815780631278c174146121dd57806319e210be146121bf5780631b8972ee146120235780631f1ccec914611f53578063248a9ca314611f3457806327bb24f214611b86578063293d959214611ad65780632f2ff15d14611aa457806333e3850e146119c857806336568abe1461198357806337178925146119165780633921df0b14611842578063393ebbf8146117f757806339d67b48146117ab5780633ab76e9f146117825780633cd58c7614611765578063454bbd29146116e75780634639e68f1461161e5780634e8eb8bd146114f15780634f23081b146113c55780634fe574f3146112ea578063536fff6c146112ab5780635537b6d1146111c35780635ca92b80146111a55780635d32da1b14611173578063607bafce146111575780636cfac8f7146110d6578063715018a614611055578063747dfe0b1461101057806374c646a414610f8a57806379ba509714610f395780637b05810114610f1c57806385b835b214610efe57806387994ec214610edb5780638da5cb5b14610ea557806391d1485414610e4c578063983975f214610dfa5780639939b196146105655780639f31515114610dd8578063a217fddf14610dbc578063b320c44014610cca578063b587295814610c52578063b800631114610be1578063bd58199a14610bc3578063bfcf7364146109d0578063c0d64389146108d5578063c4d66de814610738578063c8da3904146106ed578063d2c70218146105a5578063d547741f1461056a578063d83ad10114610565578063d8a4f66f14610522578063dc3b826d146104ff578063e30c3978146104c9578063e70c38f11461041e578063f0a8002c146103d2578063f1667607146103a8578063f2fde38b146103205763ff7132891461030257600080fd5b3461031d578060031936011261031d57602060405160408152f35b80fd5b503461031d57602036600319011261031d5761033a61268b565b6103426146e6565b600080516020614f4083398151915280546001600160a01b0319166001600160a01b03928316908117909155600080516020614ee0833981519152549091167f38d16b8cac22d99fc7c124b9cd0de2d3fa1faef420bfe791d8c362d765e227008380a380f35b503461031d57602036600319011261031d5760406020916004358152601083522054604051908152f35b503461031d57604036600319011261031d5760406103ee6126a1565b9160043581526011602052209060018060a01b0316600052602052602060ff604060002054166040519015158152f35b503461031d578060031936011261031d5760a060405161043d816126fd565b828152826020820152826040820152826060820152826080820152015260c0604051610468816126fd565b6004549081815260055460208201908152600654604083019081526007549060608401918252600854926080850193845260a060095495019485526040519586525160208601525160408501525160608401525160808301525160a0820152f35b503461031d578060031936011261031d57600080516020614f40833981519152546040516001600160a01b039091168152602090f35b503461031d57602036600319011261031d576105196146e6565b600435600f5580f35b503461031d57604036600319011261031d576020906040906001600160a01b0361054a61268b565b168152600e8352818120602435825283522054604051908152f35b612da6565b503461031d57604036600319011261031d576105a160043561058a6126a1565b9061059c610597826138a5565b6147c2565b6148b5565b5080f35b503461031d57602036600319011261031d576004356001600160401b0381116106e9576105d6903690600401612cf4565b906001600160a01b036105e7614bc0565b16331415806106c7575b6106b857825b828110610602578380f35b6004906001600160a01b0361062061061b8387876133d6565b6133e6565b168552600e602090815260408620906001600160a01b0361063f614bc0565b166040519485809263900cf0cf60e01b82525afa80156106ad578690610675575b600193508652602052846040812055016105f7565b50909160203d81116106a6575b61068c818361274f565b6020826000928101031261031d5750906001929151610660565b503d610682565b6040513d88823e3d90fd5b636edaef2f60e11b8352600483fd5b50600080516020614ee0833981519152546001600160a01b03163314156105f1565b5080fd5b503461031d576106fc36612d62565b91908152600d6020526040812090815483101561031d57602061071f8484612d78565b905460405160039290921b1c6001600160a01b03168152f35b503461031d57602036600319011261031d5761075261268b565b600080516020614f20833981519152549060ff8260401c1615916001600160401b038116801590816108cd575b60011490816108c3575b1590816108ba575b506108ab5767ffffffffffffffff198116600117600080516020614f20833981519152558261087e575b506107c4614eb1565b6107cc614eb1565b331561086a576107db33614b52565b6107e3614eb1565b6107eb614eb1565b600380546001600160a01b0319166001600160a01b0392909216919091178155600f556108155780f35b60ff60401b19600080516020614f208339815191525416600080516020614f20833981519152557fc7f505b2f371ae2175ee4913f4499e1f2633a7b5936321eed1cdaeb6115181d2602060405160018152a180f35b631e4fbdf760e01b83526004839052602483fd5b68ffffffffffffffffff19166801000000000000000117600080516020614f2083398151915255386107bb565b63f92ee8a960e01b8452600484fd5b90501538610791565b303b159150610789565b84915061077f565b503461031d5761012036600319011261031d5761010036602319011261031d5760405190610902826126cb565b6024358252602082019160443583526040810160643581526060820160843581526080830160a435815260a084019060c435825260c085019260e435845260e086019461010435865260018060a01b0361095a613b0f565b16331415806109b9575b6109aa5760079697986004358a52600b60205260408a20985189555160018901555160028801555160038701555160048601555160058501555160068401555191015580f35b636edaef2f60e11b8852600488fd5b50338852601260205260ff60408920541615610964565b503461031d57606036600319011261031d576004356024356001600160401b038111610bbf57610a04903690600401612a8e565b9160443592600f8410156106e9576001600160a01b03610a22613a6a565b1633141580610ba5575b80610b8b575b80610b74575b610b6557828252600d60205260408220936040518086602082985493848152019086526020862092865b818110610b43575050610a779250038661274f565b610a818251613251565b928091815b8451811015610ae657600190610aaf6001600160a01b03610aa78389612dcf565b51168a61477a565b15610abb575b01610a86565b818060a01b03610acb8288612dcf565b5116610ae0610ad987612de3565b9689612dcf565b52610ab5565b5084928681610af3578380f35b610afc82613251565b91845b818110610b1b575050610b13939450613e02565b808280808380f35b6001906001600160a01b03610b30828a612dcf565b5116610b3c8287612dcf565b5201610aff565b84546001600160a01b031683526001948501948a945060209093019201610a62565b636edaef2f60e11b8252600482fd5b50338252601260205260ff60408320541615610a38565b506001600160a01b03610b9c613b74565b16331415610a32565b506001600160a01b03610bb6613b0f565b16331415610a2c565b8280fd5b503461031d578060031936011261031d576020600154604051908152f35b503461031d57606036600319011261031d57602435600435600f821015610bbf5760409291610c449160443591818552600b602052610c3e86610c2f85610c29838a2061346e565b85614955565b96848152600b6020522061346e565b91614c1f565b825191825215156020820152f35b503461031d57602036600319011261031d576040610100916004358152600b60205220805490600181015490600281015460038201546004830154906005840154926007600686015495015495604051978852602088015260408701526060860152608085015260a084015260c083015260e0820152f35b503461031d57602036600319011261031d57610ce461268b565b6001600160a01b03610cf4614bc0565b1633141580610d9a575b610b65576001600160a01b039081168252600e6020908152604083209160049190610d27614bc0565b166040519283809263900cf0cf60e01b82525afa908115610d8f578391610d58575b50825260205280604081205580f35b90506020813d602011610d87575b81610d736020938361274f565b81010312610d82575138610d49565b600080fd5b3d9150610d66565b6040513d85823e3d90fd5b50600080516020614ee0833981519152546001600160a01b0316331415610cfe565b503461031d578060031936011261031d57602090604051908152f35b503461031d578060031936011261031d57610df4600a54612de3565b600a5580f35b503461031d578060031936011261031d57600454600554600654600754600854600954604080519687526020870195909552938501929092526060840152608083015260a08201528060c081015b0390f35b503461031d57604036600319011261031d576040610e686126a1565b916004358152600080516020614f00833981519152602052209060018060a01b0316600052602052602060ff604060002054166040519015158152f35b503461031d578060031936011261031d57600080516020614ee0833981519152546040516001600160a01b039091168152602090f35b503461031d57602036600319011261031d57610ef56146e6565b60043560025580f35b503461031d578060031936011261031d576020600f54604051908152f35b503461031d578060031936011261031d5760206040516127108152f35b503461031d578060031936011261031d57600080516020614f4083398151915254336001600160a01b0390911603610f7757610f7433614b52565b80f35b63118cdaa760e01b815233600452602490fd5b503461031d57602036600319011261031d576004356001600160401b0381116106e957610fbb9036906004016127e9565b90606082015191600f831015610ffc57916040610ff29261018060209501518152600b85522090610fec429261346e565b90614955565b1515604051908152f35b634e487b7160e01b82526021600452602482fd5b503461031d57606036600319011261031d57600435600f8110156106e95760209161104d916024358252600b8452610fec6040604435932061346e565b604051908152f35b503461031d578060031936011261031d5761106e6146e6565b600080516020614f4083398151915280546001600160a01b0319908116909155600080516020614ee08339815191528054918216905581906001600160a01b03167f8be0079c531659141344cd1fd0a4f28419497f9722a3daafe3b4186f6b6457e08280a380f35b503461031d57602036600319011261031d576004358152600d60205260408120604051918260208354918281520192825260208220915b81811061113857610e48856111248187038261274f565b604051918291602083526020830190612cb7565b82546001600160a01b031684526020909301926001928301920161110d565b503461031d578060031936011261031d576020604051600a8152f35b503461031d5761118236612d62565b91908152600c6020526040812090815483101561031d57602061071f8484612d78565b503461031d578060031936011261031d576020600254604051908152f35b503461031d576111d236612d33565b906001600160a01b036111e361471c565b1633141580611294575b6106b8578252600c602052604082208151916001600160401b03831161128057600160401b831161128057815483835580841061125a575b5060200190835260208320835b83811061123d578480f35b82516001600160a01b031681830155602090920191600101611232565b828552836020862091820191015b8181106112755750611225565b858155600101611268565b634e487b7160e01b84526041600452602484fd5b50338352601260205260ff604084205416156111ed565b503461031d57602036600319011261031d5760209060ff906040906001600160a01b036112d661268b565b168152601284522054166040519015158152f35b503461031d57604036600319011261031d576004356113076126a1565b6001600160a01b0361131761471c565b16331415806113ae575b6106b857818352600c602052604083208160405191826020825491828152019187526020872090875b81811061138c57505050916113648161136994038261274f565b61477a565b15611372578280f35b611386918352600c60205260408320612e08565b38808280f35b82546001600160a01b031684528694506020909301926001928301920161134a565b50338352601260205260ff60408420541615611321565b503461031d57604036600319011261031d576004356001600160401b0381116106e9576113f69036906004016127e9565b6024356001600160401b038111610bbf57611415903690600401612b50565b916001600160a01b03611426613a6a565b16331415806114d7575b806114bd575b806114a6575b6114975761147b611489610e486114538686614178565b939592969091604051978897151588521515602088015260a0604088015260a0870190612a11565b908582036060870152612cb7565b908382036080850152612a11565b636edaef2f60e11b8152600490fd5b50338152601260205260ff6040822054161561143c565b506001600160a01b036114ce613b74565b16331415611436565b506001600160a01b036114e8613b0f565b16331415611430565b503461031d57606036600319011261031d5760243560088110156106e957604435906001600160a01b03611523613a6a565b1633141580611604575b806115ea575b806115d3575b6106b8576004358352600b60205260408320908061155657505580f35b6001810361156657506001015580f35b6002810361157657506002015580f35b6003810361158657506003015580f35b6004810361159657506004015580f35b600581036115a657506005015580f35b600681036115b657506006015580f35b6007036115c4576007015580f35b63099d113d60e01b8352600483fd5b50338352601260205260ff60408420541615611539565b506001600160a01b036115fb613b74565b16331415611533565b506001600160a01b03611615613b0f565b1633141561152d565b503461031d5760c036600319011261031d577f7f4afd87a8ce3ba7e10b987d3217f6e0116254068e7bdb42abfa2bf1024f88206024356004356116e160a43560843560643560443561166e6146e6565b8360a060405161167d816126fd565b8881528960208201528360408201528460608201528560808201520152856004558660055580600655816007558260085583600955604051968796879260a094919796959260c0850198855260208501526040840152606083015260808201520152565b0390a180f35b503461031d57604036600319011261031d5761170161268b565b7fad857fa38c9319cb80848f1ef2f924383b90297eb5d71755738ff037d100faa1602061172c612d24565b926117356146e6565b6001600160a01b03168085526012825260408520805460ff191660ff86151516179055926040519015158152a280f35b503461031d578060031936011261031d5760209054604051908152f35b503461031d578060031936011261031d576003546040516001600160a01b039091168152602090f35b503461031d57604036600319011261031d57602435600f8110156106e9576020916117ef610ff2926004358352600b85526117e86040842061346e565b9250613a5b565b904291614955565b503461031d57602036600319011261031d576004356118146146e6565b600181108015611837575b6118295760015580f35b62de051d60e61b8252600482fd5b50612710811161181f565b503461031d5761185136612d33565b906001600160a01b0361186261471c565b16331415806118ff575b6106b8578252600d602052604082208151916001600160401b03831161128057600160401b83116112805781548383558084106118d9575b5060200190835260208320835b8381106118bc578480f35b82516001600160a01b0316818301556020909201916001016118b1565b828552836020862091820191015b8181106118f457506118a4565b8581556001016118e7565b50338352601260205260ff6040842054161561186c565b503461031d57602036600319011261031d576004358152600c60205260408120604051918260208354918281520192825260208220915b81811061196457610e48856111248187038261274f565b82546001600160a01b031684526020909301926001928301920161194d565b503461031d57604036600319011261031d5761199d6126a1565b336001600160a01b038216036119b9576105a1906004356148b5565b63334bd91960e11b8252600482fd5b503461031d57608036600319011261031d576119e261268b565b6119ea6126a1565b6064356001600160401b038111611aa057611a099036906004016127e9565b926001600160a01b03611a1a613a6a565b1633141580611a86575b80611a6c575b80611a55575b61149757610e48611a458560443585876138c6565b9160409593955195869586612a45565b50338152601260205260ff60408220541615611a30565b506001600160a01b03611a7d613b74565b16331415611a2a565b506001600160a01b03611a97613b0f565b16331415611a24565b8380fd5b503461031d57604036600319011261031d576105a1600435611ac46126a1565b90611ad1610597826138a5565b61480c565b503461031d57602036600319011261031d57611b376040826101009360e08351611aff816126cb565b82815282602082015282858201528260608201528260808201528260a08201528260c082015201526004358152600b6020522061346e565b60e060405191805183526020810151602084015260408101516040840152606081015160608401526080810151608084015260a081015160a084015260c081015160c0840152015160e0820152f35b503461031d57611b9536612d33565b91906001600160a01b03611ba761471c565b1633141580611f1d575b610b6557600354604051631bae711d60e21b815260206004820181905260056024830152640a6d8c2e6d60db1b60448301529091829060649082906001600160a01b03165afa908115610d8f578391611ee3575b506001600160a01b0316803b15610bbf5782604051809263a95c74e560e01b825260606004830152818381611c3d606482018b612cb7565b8860248301526001604483015203925af18015610d8f57611ed0575b5090916004919060206001600160a01b03611c72614bc0565b166040519485809263900cf0cf60e01b82525afa928315611ec5578493611e91575b50611c9f8151613251565b918490855b8351811015611dd757818752601160205260408088206001929160ff916001600160a01b03611cd3858a612dcf565b511690600091868060a01b0316825260205220541615611cf4575b01611ca4565b82885260116020526040808920838060a01b03611d118489612dcf565b511690600091858060a01b03168252602052208260ff19825416179055818060a01b03611d3e8287612dcf565b51168852600e6020526040882087895260205260408820611d5f8154612de3565b809155837f011db660736422079063bdb3ac138f72b65c93af71a43f774eb2ab9dc9b69adc6040858060a01b03611d96868b612dcf565b51168151908152846020820152a2600f5411611cee57818060a01b03611dbc8287612dcf565b5116611dd1611dca86612de3565b9588612dcf565b52611cee565b8487838886611de4578280f35b6001600160a01b03611df4614bc0565b166001820190818311611e7d578495813b15611e795785611e3691819560405197889687958694633e85a48360e11b8652608060048701526084860190612cb7565b9260248501526044840152606483015203925af18015611e6e57611e5957808280f35b81611e639161274f565b61031d578082808280f35b6040513d84823e3d90fd5b8580fd5b634e487b7160e01b85526011600452602485fd5b9092506020813d602011611ebd575b81611ead6020938361274f565b81010312610d8257519138611c94565b3d9150611ea0565b6040513d86823e3d90fd5b91611edd8160049461274f565b91611c59565b90506020813d602011611f15575b81611efe6020938361274f565b81010312610bbf57611f0f906133fa565b38611c05565b3d9150611ef1565b50338252601260205260ff60408320541615611bb1565b503461031d57602036600319011261031d57602061104d6004356138a5565b503461031d57604036600319011261031d57600435611f706126a1565b6001600160a01b03611f8061471c565b163314158061200c575b6106b857818352600d602052604083208160405191826020825491828152019187526020872090875b818110611fea575050509161136481611fcd94038261274f565b15611fd6578280f35b611386918352600d60205260408320612e08565b82546001600160a01b0316845286945060209093019260019283019201611fb3565b50338352601260205260ff60408420541615611f8a565b503461031d5760e036600319011261031d576064358015158091036106e95760a4356001600160401b038111610bbf579180916120676120cb943690600401612a8e565b906001600160a01b03612078614bc0565b16906040518096819482936382df24a160e01b84526004356004850152602435602485015260c43560448501526084356064850152604435608485015260a484015260e060c484015260e4830190612cb7565b03915afa9181838392849561214e575b5061211c576004833d15612117573d6120f381612770565b90612101604051928361274f565b81528160203d92013e5b631f90236d60e01b8152fd5b61210b565b610e4891925091926121406040519485948552606060208601526060850190612cb7565b908382036040850152612cb7565b92509350503d8083833e612162818361274f565b810190606081830312610bbf5780519160208201516001600160401b0381116121bb5781612191918401613ca1565b916040810151906001600160401b038211611e79576121b1929101613ca1565b91909193386120db565b8480fd5b503461031d578060031936011261031d576020600a54604051908152f35b503461031d57602036600319011261031d576001600160a01b036121ff613a6a565b1633141580612267575b8061224d575b80612236575b6114975760043581526010602052604081206122318154612de3565b905580f35b50338152601260205260ff60408220541615612215565b506001600160a01b0361225e613b74565b1633141561220f565b506001600160a01b03612278613b0f565b16331415612209565b503461031d578060031936011261031d57602060405160648152f35b503461031d57606036600319011261031d5760406122c26044356024356004356134f5565b82516001600160a01b03909216825215156020820152f35b503461031d57602036600319011261031d576004356122f76146e6565b60018110801561231a575b61230b57815580f35b63a2fc7bbd60e01b8252600482fd5b50600a8111612302565b503461031d57604036600319011261031d576004356001600160401b0381116106e957612355903690600401612cf4565b61235d612d24565b916123666146e6565b82151591845b818110612377578580f35b6001906001600160a01b0361239061061b8386886133d6565b16875260126020526123b186604089209060ff801983541691151516179055565b818060a01b036123c561061b8386886133d6565b167fad857fa38c9319cb80848f1ef2f924383b90297eb5d71755738ff037d100faa16020604051888152a20161236c565b503461031d57602036600319011261031d5761241061268b565b6124186146e6565b600380546001600160a01b0319166001600160a01b039290921691909117905580f35b503461031d57606036600319011261031d5761245561268b565b6024356001600160401b038111610bbf576124749036906004016127e9565b906044356001600160401b038111611aa057612494903690600401612b50565b926001600160a01b036124a5613a6a565b1633141580612556575b8061253c575b80612525575b61149757612509612517610e486124d3878787613283565b94969397919092604051988998151589521515602089015260018060a01b0316604088015260c0606088015260c0870190612a11565b908582036080870152612a11565b9083820360a0850152612cb7565b50338152601260205260ff604082205416156124bb565b506001600160a01b0361254d613b74565b163314156124b5565b506001600160a01b03612567613b0f565b163314156124af565b503461031d57606036600319011261031d5761258a61268b565b6125926126a1565b906044356001600160401b038111611aa0576125b29036906004016127e9565b926001600160a01b036125c3613a6a565b163314158061261c575b80612602575b806125eb575b61149757610e48611a45858585612e49565b50338152601260205260ff604082205416156125d9565b506001600160a01b03612613613b74565b163314156125d3565b506001600160a01b0361262d613b0f565b163314156125cd565b9050346106e95760203660031901126106e95760043563ffffffff60e01b8116809103610bbf5760209250637965db0b60e01b811490811561267a575b5015158152f35b6301ffc9a760e01b14905038612673565b600435906001600160a01b0382168203610d8257565b602435906001600160a01b0382168203610d8257565b35906001600160a01b0382168203610d8257565b61010081019081106001600160401b038211176126e757604052565b634e487b7160e01b600052604160045260246000fd5b60c081019081106001600160401b038211176126e757604052565b6102e081019081106001600160401b038211176126e757604052565b606081019081106001600160401b038211176126e757604052565b90601f801991011681019081106001600160401b038211176126e757604052565b6001600160401b0381116126e757601f01601f191660200190565b81601f82011215610d82578035906127a282612770565b926127b0604051948561274f565b82845260208383010111610d8257816000926020809301838601378301015290565b6001600160401b0381116126e75760051b60200190565b9190916102e081840312610d82576040519061280482612718565b819381356006811015610d8257835260208201356005811015610d825760208401526040820135600f811015610d825760408401526060820135600f811015610d82576060840152612858608083016126b7565b608084015261286960a083016126b7565b60a084015261287a60c083016126b7565b60c084015261288b60e083016126b7565b60e08401526101008201356101008401526101208201356101208401526101408201356101408401526101608201356101608401526101808201356101808401526101a08201356101a08401526101c08201356101c08401526101e08201356101e08401526102008201356001600160401b038111610d82578161291091840161278b565b6102008401526102208201356001600160401b038111610d82578161293691840161278b565b6102208401526102408201356001600160401b038111610d8257820181601f82011215610d8257803590612969826127d2565b92612977604051948561274f565b82845260206060818601940283010191818311610d8257602001925b8284106129d557505050506102c09182916102408501526102608101356102608501526102808101356102808501526102a08101356102a08501520135910152565b606084830312610d825760206060916040516129f081612734565b86358152828701358382015260408701356040820152815201930192612993565b906020808351928381520192019060005b818110612a2f5750505090565b8251845260209384019390920191600101612a22565b901515815290151560208201526001600160a01b03909116604082015260a060608201819052612a8b939192612a7d91840190612a11565b916080818403910152612a11565b90565b9080601f83011215610d82578135612aa5816127d2565b92612ab3604051948561274f565b81845260208085019260051b820101928311610d8257602001905b828210612adb5750505090565b60208091612ae8846126b7565b815201910190612ace565b9080601f83011215610d82578135612b0a816127d2565b92612b18604051948561274f565b81845260208085019260051b820101928311610d8257602001905b828210612b405750505090565b8135815260209182019101612b33565b919061016083820312610d82576040519061016082018281106001600160401b038211176126e7576040528193803583526020810135602084015260408101356040840152606081013560608401526080810135608084015260a081013560a084015260c08101356006811015610d825760c084015260e08101356001600160401b038111610d825782612be5918301612a8e565b60e08401526101008101356001600160401b038111610d8257810182601f82011215610d82578035612c16816127d2565b91612c24604051938461274f565b81835260208084019260051b82010190858211610d8257602001915b818310612c9e575050506101008401526101208101356001600160401b038111610d825782612c70918301612af3565b610120840152610140810135916001600160401b038311610d825761014092612c999201612af3565b910152565b82356005811015610d8257815260209283019201612c40565b906020808351928381520192019060005b818110612cd55750505090565b82516001600160a01b0316845260209384019390920191600101612cc8565b9181601f84011215610d82578235916001600160401b038311610d82576020808501948460051b010111610d8257565b602435908115158203610d8257565b906040600319830112610d825760043591602435906001600160401b038211610d8257612a8b91600401612a8e565b6040906003190112610d82576004359060243590565b8054821015612d905760005260206000200190600090565b634e487b7160e01b600052603260045260246000fd5b34610d82576000366003190112610d8257602060405160018152f35b805115612d905760200190565b8051821015612d905760209160051b010190565b6000198114612df25760010190565b634e487b7160e01b600052601160045260246000fd5b8054600160401b8110156126e757612e2591600182018155612d78565b81546001600160a01b0393841660039290921b91821b9390911b1916919091179055565b90916000906060612e5982613bd3565b90959192818761323a575083156131f4576101808501988951600052600c60205260406000209660405180896020829b5493848152019060005260206000209260005b8181106131d2575050612eb19250038961274f565b60009688516000198101908111612df257612ece909b979b613251565b996001600160a01b039097169660005b8a51811015612f40578b896001600160a01b03612efb848f612dcf565b511603612f0c575b50600101612ede565b9990600191612f378d612f2584868060a01b0392612dcf565b511691612f3181612de3565b9d612dcf565b5290508b612f03565b509398509499600091969297509893986101a086015194610160870151918d518452600b602052604084205496612fc860018060a01b03612f7f614bc0565b1693604051998a96879586956382df24a160e01b8752600487015260248601526044850152606484015260016084840152600160a484015260e060c484015260e4830190612cb7565b03915afa60008181958293613165575b5061301c573d15613017573d612fed81612770565b90612ffb604051928361274f565b8152600060203d92013e5b631f90236d60e01b60005260046000fd5b613006565b939093815115613154576001600160a01b03916130399190612dcf565b5116986001600160a01b0316801515908a9082613149575b50501561306957631a0a9b9f60e21b60005260046000fd5b88158015613140575b156130c65750506001975b815161308e575b5050509493929190565b6060905192015190600f8210156130b0576130a892613e02565b388080613084565b634e487b7160e01b600052602160045260246000fd5b9350976001938151600052601060205260406000206130e58154612de3565b905588825191827ffd22c5780766b45945b6488e54f81cbb215c37784ec7c0d9fbb59781a673158f600080a4600052600c602052613127886040600020612e08565b8051600052600b6020524260026040600020015561307d565b50808914613072565b141590508938613051565b639b7fa1e560e01b60005260046000fd5b91955091503d8086833e613179818361274f565b8101606082820312611e795781519560208301516001600160401b0381116106e957826131a7918501613ca1565b926040810151916001600160401b03831161031d57506131c8929101613ca1565b9490949138612fd8565b84546001600160a01b031683526001948501948d945060209093019201612e9c565b505050505050505060209060405161320c838261274f565b60008152600036813760405192613223818561274f565b600084525060003681376000926000926000929190565b965097965050505050506000926001926000929190565b9061325b826127d2565b613268604051918261274f565b8281528092613279601f19916127d2565b0190602036910137565b90929161329290600094614178565b93919250908084818481156133cc575b50613387575050604051631169b04f60e21b815260406004820152602081806132ce6044820187612cb7565b6001600160a01b039099166024820181905298038173__$8b0f212190ad0b350ebeb1d3aa845a5dc8$__5af490811561337b57600091613349575b506001600160a01b039061331d9084612dcf565b511694851461333757631a0a9b9f60e21b60005260046000fd5b846133425750600194565b6001965094565b90506020813d602011613373575b816133646020938361274f565b81010312610d82575138613309565b3d9150613357565b6040513d6000823e3d90fd5b955096505050505060206040519061339f818361274f565b600082526000368137604051906133b6818361274f565b6000825250600036813760009493600093929190565b90505115386132a2565b9190811015612d905760051b0190565b356001600160a01b0381168103610d825790565b51906001600160a01b0382168203610d8257565b81601f82011215610d825780519061342582612770565b92613433604051948561274f565b82845260208383010111610d825760005b82811061345957505060206000918301015290565b80602080928401015182828701015201613444565b9060405161347b816126cb565b60e0600782948054845260018101546020850152600281015460408501526003810154606085015260048101546080850152600581015460a0850152600681015460c08501520154910152565b91908203918211612df257565b81156134df570490565b634e487b7160e01b600052601260045260246000fd5b60249290919060006001600160a01b0361350d613a6a565b166040519586809263255709e560e11b82528760048301525afa93841561337b57600094613648575b50606084015192600f8410156130b05760016000940361363d578352600b6020526135636040842061346e565b90839060208301519081811180613632575b613613575b505080156135fc579383946135ad94506101606040519261359c60208561274f565b878452873681370151925193613d06565b5080929150511515806135e1575b156135db57506001600160a01b03906135d390612dc2565b511690600190565b91829150565b506001600160a01b036135f383612dc2565b511615156135bb565b5050505060e001516001600160a01b031690600190565b61362b925090613622916134c8565b600454906134d5565b388061357a565b506004541515613575565b505050809291509190565b9390933d8083833e61365a818361274f565b810190602081830312610bbf578051906001600160401b038211611aa05701906102e082820312610bbf576040519261369284612718565b825160068110156106e9578452602083015160058110156106e95760208501526040830151600f8110156106e95760408501526060830151600f8110156106e95760608501526136e4608084016133fa565b60808501526136f560a084016133fa565b60a085015261370660c084016133fa565b60c085015261371760e084016133fa565b60e08501526101008301516101008501526101208301516101208501526101408301516101408501526101608301516101608501526101808301516101808501526101a08301516101a08501526101c08301516101c08501526101e08301516101e08501526102008301516001600160401b0381116106e9578261379c91850161340e565b6102008501526102208301516001600160401b0381116106e957826137c291850161340e565b6102208501526102408301516001600160401b0381116106e957830182601f820112156106e9578051916137f5836127d2565b93613803604051958661274f565b83855260206060818701950284010192818411610bbf57602001935b838510613869575050505050906102c0916102408401526102608101516102608401526102808101516102808401526102a08101516102a084015201516102c08201529238613536565b606085830312610bbf57602060609160405161388481612734565b8751815282880151838201526040880151604082015281520194019361381f565b600052600080516020614f0083398151915260205260016040600020015490565b92909360006060926138d781613bd3565b9691988782613a4657508915613a2c576139256020936040516138fa868261274f565b6000815260003681376101608701519061018088019d8e51600052600b885260406000205493613d06565b949150805115613154576001600160a01b039061394190612dc2565b5116996001600160a01b0316801515908b9082613a21575b50501561397157631a0a9b9f60e21b60005260046000fd5b89158015613a0f575b1561399557505050600197815161308e575050509493929190565b9199600195509190426000198101908111612df2578a926010918551600052600b8252886040600020015584516000525260406000206139d58154612de3565b905582516001600160a01b03909116907f6ef20ee2db9e120181071f16e43ff37a402ad3c952d6fb1f8654809e530dbddc600080a461307d565b506001600160a01b0382168a1461397a565b141590508a38613959565b5050505050935050505060209060405161320c838261274f565b60009a50600199508a98509695945050505050565b60ff16600f8110156130b05790565b600354604051631bae711d60e21b815260206004820181905260126024830152712a3930b739b0b1ba34b7b726b0b730b3b2b960711b60448301529091829060649082906001600160a01b03165afa90811561337b57600091613ad5575b506001600160a01b031690565b90506020813d602011613b07575b81613af06020938361274f565b81010312610d8257613b01906133fa565b38613ac8565b3d9150613ae3565b600354604051631bae711d60e21b8152602060048201819052600d60248301526c21b7b739b2b739bab9a6b0b4b760991b60448301529091829060649082906001600160a01b03165afa90811561337b57600091613ad557506001600160a01b031690565b600354604051631bae711d60e21b8152602060048201819052600760248301526641707065616c7360c81b60448301529091829060649082906001600160a01b03165afa90811561337b57600091613ad557506001600160a01b031690565b9060009060609061018084018051600052600b6020526060613bf8604060002061346e565b9501805190600f8210156130b057613c1c613c14600093613a5b565b884291614955565b9687613c29575b50505050565b8351915191600f831015613c8d5790613c4d9291613c474293613a5b565b90614c1f565b613c59575b8080613c23565b50516040805160019550929350613c70908361274f565b6001825260203681840137613c8482612dc2565b52903880613c52565b634e487b7160e01b84526021600452602484fd5b9080601f83011215610d82578151613cb8816127d2565b92613cc6604051948561274f565b81845260208085019260051b820101928311610d8257602001905b828210613cee5750505090565b60208091613cfb846133fa565b815201910190613ce1565b939493600093929190613d6a6001600160a01b03613d22614bc0565b1693604051988996879586956382df24a160e01b87526004870152602486015260448501526064840152600160848401528660a484015260e060c484015260e4830190612cb7565b03915afa9060008281948294613d95575b50613d90573d15613017573d612fed81612770565b929190565b91945092503d8085833e613da9818361274f565b81016060828203126121bb5781519460208301516001600160401b0381116106e95782613dd7918501613ca1565b926040810151916001600160401b03831161031d5750613df8929101613ca1565b9390939238613d7b565b600354604051631bae711d60e21b815260206004820181905260056024830152640a6d8c2e6d60db1b604483015260009593949392829060649082906001600160a01b03165afa90811561416d578591614133575b506001600160a01b0316803b156121bb5760405163a95c74e560e01b81526060600482015291613e8a6064840185612cb7565b90856024850152600f81101561411f579183878180948296604483015203925af18015611ec55761410b575b50600460206001600160a01b03613ecb614bc0565b166040519283809263900cf0cf60e01b82525afa908115611ec55784916140d9575b50613ef88251613251565b928491855b845181101561402957828752601160205260408088206001929160ff916001600160a01b03613f2c858b612dcf565b511690600091868060a01b0316825260205220541615613f4d575b01613efd565b83885260116020526040808920838060a01b03613f6a848a612dcf565b511690600091858060a01b03168252602052208260ff19825416179055818060a01b03613f978288612dcf565b51168852600e6020526040882083895260205260408820613fb88154612de3565b809155847f011db660736422079063bdb3ac138f72b65c93af71a43f774eb2ab9dc9b69adc6040858060a01b03613fef868c612dcf565b51168151908152846020820152a2600f5411613f4757818060a01b036140158288612dcf565b5116614023610ad987612de3565b52613f47565b50925092906140385750505050565b6001600160a01b03614048614bc0565b169060018301928381116140c557823b15611e7957858094939261408b9260405197889687958694633e85a48360e11b8652608060048701526084860190612cb7565b9260248501526044840152606483015203925af18015611e6e576140b0578080613c23565b6140bb82809261274f565b61031d5780613c52565b634e487b7160e01b86526011600452602486fd5b90506020813d602011614103575b816140f46020938361274f565b81010312610d82575138613eed565b3d91506140e7565b836141189194929461274f565b9138613eb6565b634e487b7160e01b87526021600452602487fd5b90506020813d602011614165575b8161414e6020938361274f565b810103126121bb5761415f906133fa565b38613e57565b3d9150614141565b6040513d87823e3d90fd5b9061418282613bd3565b92919083816146d0575081156146bb5761018085018051600052600c6020526040600020916040518084602082965493848152019060005260206000209260005b8181106146995750506141d89250038461274f565b8151600052600d602052604060002060405190816020825491828152019160005260206000209060005b81811061467a575050509061421c8161422393038261274f565b8487614d4b565b9094811561461e576000906101a08a0151966101608b01519186518452600b6020526040842054986142a560018060a01b0361425d614bc0565b16936040519b8c96879586956382df24a160e01b87526004870152602486015260448501526064840152876084840152600160a484015260e060c484015260e4830190612cb7565b03915afa94600086819282986145b1575b506142cb573d15613017573d612fed81612770565b50949385511561456c576000976142e3600093613251565b9a60005b60e08a015151811015614340578c614304826101208d0151612dcf565b5115614314575b506001016142e7565b9a61432481612f31849391612de3565b5260208a01518114614337575b8c61430b565b60019450614331565b5092969a95999194985092965089600061437d8296805161438f6040519586948594635d881d2b60e01b8652606060048701526064860190612cb7565b84810360031901602486015290612cb7565b906044830152038173__$8b0f212190ad0b350ebeb1d3aa845a5dc8$__5af490811561337b5760009161452c575b508851600052600c60205260406000208151916001600160401b0383116126e757600160401b83116126e7578154838355808410614503575b5060200190600052602060002060005b8381106144e6575050505087516000526010602052604060002061442a8154612de3565b90558751600052600b60205285426003604060002001556144cd575b60005b8a5181101561449b576001908b7f05d4ea8b0851203bbd7b49c409c1b565a5c70bdb7687d75362631015a1aed5eb60208c519261448c85878060a01b0392612dcf565b5116604051908152a201614449565b509295985092959690939681516144b157505050565b6060905192015190600f8210156130b0576144cb92613e02565b565b8751600052600b60205242600260406000200155614446565b82516001600160a01b031681830155602090920191600101614406565b8260005283602060002091820191015b81811061452057506143f6565b60008155600101614513565b903d8082843e61453c818461274f565b8201916020818403126106e9578051916001600160401b03831161031d5750614566929101613ca1565b386143bd565b505050505050509050602060405191614585828461274f565b6000835260003681376040519161459c818461274f565b60008352506000368137600193600093929190565b91925096503d8083833e6145c5818361274f565b8101606082820312610bbf5781519260208301516001600160401b0381116106e957826145f3918501613ca1565b926040810151916001600160401b03831161031d5750614614929101613ca1565b91909196386142b6565b505050505050505050602060405190614637818361274f565b6000825260003681376040519061464e818361274f565b60008252600036813760405190614665818361274f565b60008252506000368137600093600093929190565b82546001600160a01b0316845260209093019260019283019201614202565b84546001600160a01b03168352600194850194889450602090930192016141c3565b5050505050602060405190614637818361274f565b945050505050602060405191614585828461274f565b600080516020614ee0833981519152546001600160a01b0316330361470757565b63118cdaa760e01b6000523360045260246000fd5b600354604051631bae711d60e21b81526020600482018190526006602483015265526f756e647360d01b60448301529091829060649082906001600160a01b03165afa90811561337b57600091613ad557506001600160a01b031690565b9060005b82518110156147ba576001600160a01b036147998285612dcf565b51166001600160a01b038316146147b25760010161477e565b505050600190565b505050600090565b6000818152600080516020614f008339815191526020908152604080832033845290915290205460ff16156147f45750565b63e2517d3f60e01b6000523360045260245260446000fd5b6000818152600080516020614f00833981519152602090815260408083206001600160a01b038616845290915290205460ff166148ae576000818152600080516020614f00833981519152602090815260408083206001600160a01b0395909516808452949091528120805460ff19166001179055339291907f2f8788117e7eff1d82e926ec794901d17c78024a50270940304540a733656f0d9080a4600190565b5050600090565b6000818152600080516020614f00833981519152602090815260408083206001600160a01b038616845290915290205460ff16156148ae576000818152600080516020614f00833981519152602090815260408083206001600160a01b0395909516808452949091528120805460ff19169055339291907ff6391f5c32d9c69d2a47ea670b442974b53935d1edc7fd64eb21e047a839171b9080a4600190565b600f8110156130b0576001811480614b45575b80614b3a575b156149865750612a8b916020613622920151906134c8565b60006002821480614b2d575b80614b22575b156149ba575050612a8b9160406149b1920151906134c8565b600554906134d5565b506003811480614b15575b80614b0a575b156149ec5750612a8b9160606149e3920151906134c8565b600654906134d5565b6000600a821480614afd575b80614af2575b15614a17575050612a8b9160c06149e3920151906134c8565b50600e811480614ae5575b80614ada575b15614a495750612a8b916080614a40920151906134c8565b600954906134d5565b60006004821480614acd575b80614ac2575b15614a7d575050612a8b9160e0614a74920151906134c8565b600754906134d5565b5060091480614ab5575b80614aaa575b614a98575050600090565b612a8b916080614a74920151906134c8565b506007541515614a8d565b5060808101518211614a87565b506007541515614a5b565b5060e08301518411614a55565b506009541515614a28565b5060808201518311614a22565b5060065415156149fe565b5060c083015184116149f8565b5060065415156149cb565b50606082015183116149c5565b506005541515614998565b5060408301518411614992565b50600454151561496e565b5060208201518311614968565b600080516020614f4083398151915280546001600160a01b0319908116909155600080516020614ee083398151915280549182166001600160a01b0393841690811790915591167f8be0079c531659141344cd1fd0a4f28419497f9722a3daafe3b4186f6b6457e0600080a3565b600354604051631bae711d60e21b815260206004820181905260076024830152665374616b696e6760c81b60448301529091829060649082906001600160a01b03165afa90811561337b57600091613ad557506001600160a01b031690565b909291600254938415614ca357600090600f811015610ffc5760018103614cb55750506020015192600454915b82158015614cad575b614ca3576000526010602052604060002054600091818111600014614c9c57614c7e92506134c8565b818102918183041490151715612df2578201809211612df257101590565b5050614c7e565b5050505050600090565b508415614c55565b60028103614ccd575050604001519260055491614c4c565b60038103614ce5575050606001519260065491614c4c565b600a8103614cfd57505060c001519260065491614c4c565b600e8103614d15575050608001519260095491614c4c565b60048103614d2d57505060e001519260075491614c4c565b600903614d435750608001519260075491614c4c565b935050505090565b9291909260e082519101908151511115614e9057614d75614d708251518451906134c8565b613251565b9160009060005b83518051821015614ddc5760019190614dab906001600160a01b0390614da3908490612dcf565b51168461477a565b15614db7575b01614d7c565b818060a01b03614dc8828751612dcf565b5116614dd6611dca86612de3565b52614db1565b5050614df491509491929485519351519051906134c8565b8203614e7f578051828110614e7957614d7083614e10926134c8565b9160009060005b8351811015614e7057600190614e406001600160a01b03614e388388612dcf565b51168961477a565b15614e4c575b01614e17565b818060a01b03614e5c8287612dcf565b5116614e6a611dca86612de3565b52614e46565b50939294505050565b50925090565b6365f8c5e760e11b60005260046000fd5b50509050604051614ea260208261274f565b60008152600036813790600090565b60ff600080516020614f208339815191525460401c1615614ece57565b631afcd79f60e31b60005260046000fdfe9016d09d72d40fdae2fd8ceac6b6234c7706214fd39c1cd1e609a0528c19930002dd7bc7dec4dceedda775e58dd541e08a116c6c53815c0bd028192f7b626800f0c57e16840df040f15088dc2f81fe391c3923bec73e23a9662efc9c229c6a00237e158222e3e6968b72b9db0d8043aacf074ad9f650f0d1606b4d82ee432c00a26469706673582212203afe756cc01dcaa4ca7420c592f6e0eeb30fcd4e3ea2188a95be5a965f1b22cc64736f6c634300081c0033",
  "linkReferences": {
    "contracts/utils/ArrayUtils.sol": {
      "ArrayUtils": [
        {
          "length": 20,
          "start": 13056
        },
        {
          "length": 20,
          "start": 17332
        }
      ]
    }
  },
  "deployedLinkReferences": {
    "contracts/utils/ArrayUtils.sol": {
      "ArrayUtils": [
        {
          "length": 20,
          "start": 13029
        },
        {
          "length": 20,
          "start": 17305
        }
      ]
    }
  }
}