{
  "_format": "hh-sol-artifact-1",
  "contractName": "MockTransactionsForCreation",
  "sourceName": "contracts/test-helpers/MockTransactionsForCreation.sol",
  "abi": [
    {
      "inputs": [
        {
          "internalType": "address",
          "name": "recipient",
          "type": "address"
        }
      ],
      "name": "getSubsequentTxsForRecomputation",
      "outputs": [
        {
          "internalType": "bytes32[]",
          "name": "",
          "type": "bytes32[]"
        }
      ],
      "stateMutability": "view",
      "type": "function"
    },
    {
      "inputs": [
        {
          "internalType": "address",
          "name": "recipient",
          "type": "address"
        }
      ],
      "name": "getSubsequentTxsForRecomputationCount",
      "outputs": [
        {
          "internalType": "uint256",
          "name": "",
          "type": "uint256"
        }
      ],
      "stateMutability": "view",
      "type": "function"
    },
    {
      "inputs": [
        {
          "internalType": "address",
          "name": "recipient",
          "type": "address"
        }
      ],
      "name": "popFirstSubsequentTxForRecomputation",
      "outputs": [
        {
          "internalType": "bytes32",
          "name": "",
          "type": "bytes32"
        }
      ],
      "stateMutability": "nonpayable",
      "type": "function"
    },
    {
      "inputs": [
        {
          "internalType": "address",
          "name": "recipient",
          "type": "address"
        },
        {
          "internalType": "bytes32[]",
          "name": "txIds",
          "type": "bytes32[]"
        }
      ],
      "name": "setSubsequentTxsForRecomputation",
      "outputs": [],
      "stateMutability": "nonpayable",
      "type": "function"
    }
  ],
  "bytecode": "0x60808060405234601557610447908161001b8239f35b600080fdfe608080604052600436101561001357600080fd5b60003560e01c9081634f67ff34146101f557508063bb3f19e5146101bb578063c48387691461007b5763de7187c51461004b57600080fd5b3461007657602036600319011261007657602061006e6100696102ac565b610312565b604051908152f35b600080fd5b34610076576040366003190112610076576100946102ac565b60243567ffffffffffffffff811161007657366023820112156100765780600401359167ffffffffffffffff8311610195578260051b91604051936100dc60208501866102c2565b845260208401602481948301019136831161007657602401905b8282106101ab575050506001600160a01b0316600090815260208190526040902091519067ffffffffffffffff821161019557600160401b821161019557825482845580831061016c575b509160005260206000209160005b82811061015857005b60019060208351930192818601550161014f565b8360005282602060002091820191015b8181106101895750610141565b6000815560010161017c565b634e487b7160e01b600052604160045260246000fd5b81358152602091820191016100f6565b34610076576020366003190112610076576001600160a01b036101dc6102ac565b1660005260006020526020604060002054604051908152f35b34610076576020366003190112610076576001600160a01b036102166102ac565b16600052600060205260406000209081548082526020820190819360005260206000209060005b81811061029657505050816102539103826102c2565b6040519182916020830190602084525180915260408301919060005b81811061027d575050500390f35b825184528594506020938401939092019160010161026f565b825484526020909301926001928301920161023d565b600435906001600160a01b038216820361007657565b90601f8019910116810190811067ffffffffffffffff82111761019557604052565b80548210156102fc5760005260206000200190600090565b634e487b7160e01b600052603260045260246000fd5b60018060a01b0316600052600060205260406000209081541561040b5760008254156103f75780836020925220916000925491835b825460001981019081116103a1578110156103b557600181018082116103a15790610374600192856102e4565b90549060031b1c61038582866102e4565b819291549060031b91821b91600019901b191617905501610347565b634e487b7160e01b86526011600452602486fd5b509281549081156103e3575060001901906103d082826102e4565b8154906000199060031b1b191690555590565b634e487b7160e01b81526031600452602490fd5b634e487b7160e01b81526032600452602490fd5b6000915056fea26469706673582212200d74b5ee5661fabe02214886f2d8e6d2bba3b4cbacb22291c03de6f8d84a61a964736f6c634300081c0033",
  "linkReferences": {},
  "deployedLinkReferences": {}
}