{
  "_format": "hh-sol-artifact-1",
  "contractName": "NFTMinter",
  "sourceName": "contracts/NFTMinter.sol",
  "abi": [
    {
      "inputs": [],
      "name": "AccessControlBadConfirmation",
      "type": "error"
    },
    {
      "inputs": [
        {
          "internalType": "address",
          "name": "account",
          "type": "address"
        },
        {
          "internalType": "bytes32",
          "name": "neededRole",
          "type": "bytes32"
        }
      ],
      "name": "AccessControlUnauthorizedAccount",
      "type": "error"
    },
    {
      "inputs": [],
      "name": "DeveloperAlreadyHasNFT",
      "type": "error"
    },
    {
      "inputs": [],
      "name": "DeveloperCannotBeZeroAddress",
      "type": "error"
    },
    {
      "inputs": [],
      "name": "DeveloperHasNoNFT",
      "type": "error"
    },
    {
      "inputs": [],
      "name": "DeveloperHasNoRewards",
      "type": "error"
    },
    {
      "inputs": [
        {
          "internalType": "address",
          "name": "sender",
          "type": "address"
        },
        {
          "internalType": "uint256",
          "name": "tokenId",
          "type": "uint256"
        },
        {
          "internalType": "address",
          "name": "owner",
          "type": "address"
        }
      ],
      "name": "ERC721IncorrectOwner",
      "type": "error"
    },
    {
      "inputs": [
        {
          "internalType": "address",
          "name": "operator",
          "type": "address"
        },
        {
          "internalType": "uint256",
          "name": "tokenId",
          "type": "uint256"
        }
      ],
      "name": "ERC721InsufficientApproval",
      "type": "error"
    },
    {
      "inputs": [
        {
          "internalType": "address",
          "name": "approver",
          "type": "address"
        }
      ],
      "name": "ERC721InvalidApprover",
      "type": "error"
    },
    {
      "inputs": [
        {
          "internalType": "address",
          "name": "operator",
          "type": "address"
        }
      ],
      "name": "ERC721InvalidOperator",
      "type": "error"
    },
    {
      "inputs": [
        {
          "internalType": "address",
          "name": "owner",
          "type": "address"
        }
      ],
      "name": "ERC721InvalidOwner",
      "type": "error"
    },
    {
      "inputs": [
        {
          "internalType": "address",
          "name": "receiver",
          "type": "address"
        }
      ],
      "name": "ERC721InvalidReceiver",
      "type": "error"
    },
    {
      "inputs": [
        {
          "internalType": "address",
          "name": "sender",
          "type": "address"
        }
      ],
      "name": "ERC721InvalidSender",
      "type": "error"
    },
    {
      "inputs": [
        {
          "internalType": "uint256",
          "name": "tokenId",
          "type": "uint256"
        }
      ],
      "name": "ERC721NonexistentToken",
      "type": "error"
    },
    {
      "inputs": [],
      "name": "FailedTransferCall",
      "type": "error"
    },
    {
      "inputs": [],
      "name": "GhostAlreadyHasNFT",
      "type": "error"
    },
    {
      "inputs": [],
      "name": "GhostCannotBeZeroAddress",
      "type": "error"
    },
    {
      "inputs": [],
      "name": "InvalidInitialization",
      "type": "error"
    },
    {
      "inputs": [],
      "name": "InvalidNumberOfEpochsToClaim",
      "type": "error"
    },
    {
      "inputs": [],
      "name": "InvalidRecipient",
      "type": "error"
    },
    {
      "inputs": [],
      "name": "NotConsensus",
      "type": "error"
    },
    {
      "inputs": [],
      "name": "NotInitializing",
      "type": "error"
    },
    {
      "inputs": [],
      "name": "NotNFTOwner",
      "type": "error"
    },
    {
      "inputs": [
        {
          "internalType": "address",
          "name": "owner",
          "type": "address"
        }
      ],
      "name": "OwnableInvalidOwner",
      "type": "error"
    },
    {
      "inputs": [
        {
          "internalType": "address",
          "name": "account",
          "type": "address"
        }
      ],
      "name": "OwnableUnauthorizedAccount",
      "type": "error"
    },
    {
      "inputs": [],
      "name": "ReentrancyGuardReentrantCall",
      "type": "error"
    },
    {
      "anonymous": false,
      "inputs": [
        {
          "indexed": false,
          "internalType": "address",
          "name": "ghost",
          "type": "address"
        },
        {
          "indexed": false,
          "internalType": "bytes32",
          "name": "txId",
          "type": "bytes32"
        },
        {
          "indexed": false,
          "internalType": "uint256",
          "name": "epoch",
          "type": "uint256"
        }
      ],
      "name": "AddedTxToGhost",
      "type": "event"
    },
    {
      "anonymous": false,
      "inputs": [
        {
          "indexed": true,
          "internalType": "address",
          "name": "owner",
          "type": "address"
        },
        {
          "indexed": true,
          "internalType": "address",
          "name": "approved",
          "type": "address"
        },
        {
          "indexed": true,
          "internalType": "uint256",
          "name": "tokenId",
          "type": "uint256"
        }
      ],
      "name": "Approval",
      "type": "event"
    },
    {
      "anonymous": false,
      "inputs": [
        {
          "indexed": true,
          "internalType": "address",
          "name": "owner",
          "type": "address"
        },
        {
          "indexed": true,
          "internalType": "address",
          "name": "operator",
          "type": "address"
        },
        {
          "indexed": false,
          "internalType": "bool",
          "name": "approved",
          "type": "bool"
        }
      ],
      "name": "ApprovalForAll",
      "type": "event"
    },
    {
      "anonymous": false,
      "inputs": [
        {
          "indexed": false,
          "internalType": "uint256",
          "name": "nftId",
          "type": "uint256"
        },
        {
          "indexed": false,
          "internalType": "address",
          "name": "developer",
          "type": "address"
        },
        {
          "indexed": false,
          "internalType": "uint256",
          "name": "amount",
          "type": "uint256"
        }
      ],
      "name": "Claimed",
      "type": "event"
    },
    {
      "anonymous": false,
      "inputs": [
        {
          "indexed": false,
          "internalType": "address",
          "name": "consensusMain",
          "type": "address"
        }
      ],
      "name": "ConsensusMainSet",
      "type": "event"
    },
    {
      "anonymous": false,
      "inputs": [
        {
          "indexed": false,
          "internalType": "uint256",
          "name": "nftId",
          "type": "uint256"
        },
        {
          "indexed": false,
          "internalType": "address",
          "name": "ghost",
          "type": "address"
        },
        {
          "indexed": false,
          "internalType": "uint256",
          "name": "amount",
          "type": "uint256"
        }
      ],
      "name": "Funded",
      "type": "event"
    },
    {
      "anonymous": false,
      "inputs": [
        {
          "indexed": false,
          "internalType": "uint256",
          "name": "epoch",
          "type": "uint256"
        },
        {
          "indexed": false,
          "internalType": "uint256",
          "name": "amount",
          "type": "uint256"
        }
      ],
      "name": "FundedInflation",
      "type": "event"
    },
    {
      "anonymous": false,
      "inputs": [
        {
          "indexed": false,
          "internalType": "uint64",
          "name": "version",
          "type": "uint64"
        }
      ],
      "name": "Initialized",
      "type": "event"
    },
    {
      "anonymous": false,
      "inputs": [
        {
          "indexed": false,
          "internalType": "uint256",
          "name": "maxNumberOfEpochs",
          "type": "uint256"
        }
      ],
      "name": "MaxNumberOfEpochsSet",
      "type": "event"
    },
    {
      "anonymous": false,
      "inputs": [
        {
          "indexed": false,
          "internalType": "uint256",
          "name": "nftId",
          "type": "uint256"
        },
        {
          "indexed": false,
          "internalType": "address",
          "name": "developer",
          "type": "address"
        }
      ],
      "name": "Minted",
      "type": "event"
    },
    {
      "anonymous": false,
      "inputs": [
        {
          "indexed": true,
          "internalType": "address",
          "name": "previousOwner",
          "type": "address"
        },
        {
          "indexed": true,
          "internalType": "address",
          "name": "newOwner",
          "type": "address"
        }
      ],
      "name": "OwnershipTransferStarted",
      "type": "event"
    },
    {
      "anonymous": false,
      "inputs": [
        {
          "indexed": true,
          "internalType": "address",
          "name": "previousOwner",
          "type": "address"
        },
        {
          "indexed": true,
          "internalType": "address",
          "name": "newOwner",
          "type": "address"
        }
      ],
      "name": "OwnershipTransferred",
      "type": "event"
    },
    {
      "anonymous": false,
      "inputs": [
        {
          "indexed": true,
          "internalType": "bytes32",
          "name": "role",
          "type": "bytes32"
        },
        {
          "indexed": true,
          "internalType": "bytes32",
          "name": "previousAdminRole",
          "type": "bytes32"
        },
        {
          "indexed": true,
          "internalType": "bytes32",
          "name": "newAdminRole",
          "type": "bytes32"
        }
      ],
      "name": "RoleAdminChanged",
      "type": "event"
    },
    {
      "anonymous": false,
      "inputs": [
        {
          "indexed": true,
          "internalType": "bytes32",
          "name": "role",
          "type": "bytes32"
        },
        {
          "indexed": true,
          "internalType": "address",
          "name": "account",
          "type": "address"
        },
        {
          "indexed": true,
          "internalType": "address",
          "name": "sender",
          "type": "address"
        }
      ],
      "name": "RoleGranted",
      "type": "event"
    },
    {
      "anonymous": false,
      "inputs": [
        {
          "indexed": true,
          "internalType": "bytes32",
          "name": "role",
          "type": "bytes32"
        },
        {
          "indexed": true,
          "internalType": "address",
          "name": "account",
          "type": "address"
        },
        {
          "indexed": true,
          "internalType": "address",
          "name": "sender",
          "type": "address"
        }
      ],
      "name": "RoleRevoked",
      "type": "event"
    },
    {
      "anonymous": false,
      "inputs": [
        {
          "indexed": false,
          "internalType": "address",
          "name": "staking",
          "type": "address"
        }
      ],
      "name": "StakingSet",
      "type": "event"
    },
    {
      "anonymous": false,
      "inputs": [
        {
          "indexed": true,
          "internalType": "address",
          "name": "from",
          "type": "address"
        },
        {
          "indexed": true,
          "internalType": "address",
          "name": "to",
          "type": "address"
        },
        {
          "indexed": true,
          "internalType": "uint256",
          "name": "tokenId",
          "type": "uint256"
        }
      ],
      "name": "Transfer",
      "type": "event"
    },
    {
      "anonymous": false,
      "inputs": [
        {
          "indexed": false,
          "internalType": "uint256",
          "name": "nftId",
          "type": "uint256"
        },
        {
          "indexed": false,
          "internalType": "address",
          "name": "developer",
          "type": "address"
        },
        {
          "indexed": false,
          "internalType": "address",
          "name": "to",
          "type": "address"
        }
      ],
      "name": "Transferred",
      "type": "event"
    },
    {
      "inputs": [],
      "name": "DEFAULT_ADMIN_ROLE",
      "outputs": [
        {
          "internalType": "bytes32",
          "name": "",
          "type": "bytes32"
        }
      ],
      "stateMutability": "view",
      "type": "function"
    },
    {
      "inputs": [],
      "name": "acceptOwnership",
      "outputs": [],
      "stateMutability": "nonpayable",
      "type": "function"
    },
    {
      "inputs": [
        {
          "internalType": "address",
          "name": "ghost",
          "type": "address"
        },
        {
          "internalType": "bytes32",
          "name": "txId",
          "type": "bytes32"
        },
        {
          "internalType": "uint256",
          "name": "epoch",
          "type": "uint256"
        }
      ],
      "name": "addTxToGhost",
      "outputs": [],
      "stateMutability": "nonpayable",
      "type": "function"
    },
    {
      "inputs": [],
      "name": "addressManager",
      "outputs": [
        {
          "internalType": "contract IAddressManager",
          "name": "",
          "type": "address"
        }
      ],
      "stateMutability": "view",
      "type": "function"
    },
    {
      "inputs": [
        {
          "internalType": "address",
          "name": "to",
          "type": "address"
        },
        {
          "internalType": "uint256",
          "name": "tokenId",
          "type": "uint256"
        }
      ],
      "name": "approve",
      "outputs": [],
      "stateMutability": "nonpayable",
      "type": "function"
    },
    {
      "inputs": [
        {
          "internalType": "address",
          "name": "owner",
          "type": "address"
        }
      ],
      "name": "balanceOf",
      "outputs": [
        {
          "internalType": "uint256",
          "name": "",
          "type": "uint256"
        }
      ],
      "stateMutability": "view",
      "type": "function"
    },
    {
      "inputs": [
        {
          "internalType": "uint256",
          "name": "nftId",
          "type": "uint256"
        }
      ],
      "name": "claim",
      "outputs": [],
      "stateMutability": "nonpayable",
      "type": "function"
    },
    {
      "inputs": [
        {
          "internalType": "uint256",
          "name": "nftId",
          "type": "uint256"
        },
        {
          "internalType": "uint256",
          "name": "numberOfEpochsToClaim",
          "type": "uint256"
        }
      ],
      "name": "claimEpochs",
      "outputs": [],
      "stateMutability": "nonpayable",
      "type": "function"
    },
    {
      "inputs": [],
      "name": "currentId",
      "outputs": [
        {
          "internalType": "uint256",
          "name": "",
          "type": "uint256"
        }
      ],
      "stateMutability": "view",
      "type": "function"
    },
    {
      "inputs": [
        {
          "internalType": "address",
          "name": "developer",
          "type": "address"
        }
      ],
      "name": "developerToNFT",
      "outputs": [
        {
          "internalType": "uint256",
          "name": "nftId",
          "type": "uint256"
        }
      ],
      "stateMutability": "view",
      "type": "function"
    },
    {
      "inputs": [
        {
          "internalType": "address",
          "name": "ghost",
          "type": "address"
        },
        {
          "internalType": "uint256",
          "name": "epoch",
          "type": "uint256"
        }
      ],
      "name": "fund",
      "outputs": [],
      "stateMutability": "payable",
      "type": "function"
    },
    {
      "inputs": [
        {
          "internalType": "uint256",
          "name": "epoch",
          "type": "uint256"
        }
      ],
      "name": "fundInflation",
      "outputs": [],
      "stateMutability": "payable",
      "type": "function"
    },
    {
      "inputs": [
        {
          "internalType": "uint256",
          "name": "tokenId",
          "type": "uint256"
        }
      ],
      "name": "getApproved",
      "outputs": [
        {
          "internalType": "address",
          "name": "",
          "type": "address"
        }
      ],
      "stateMutability": "view",
      "type": "function"
    },
    {
      "inputs": [
        {
          "internalType": "uint256",
          "name": "nftId",
          "type": "uint256"
        }
      ],
      "name": "getClaimableRewardsFromFees",
      "outputs": [
        {
          "internalType": "uint256",
          "name": "",
          "type": "uint256"
        }
      ],
      "stateMutability": "view",
      "type": "function"
    },
    {
      "inputs": [
        {
          "internalType": "uint256",
          "name": "nftId",
          "type": "uint256"
        },
        {
          "internalType": "uint256",
          "name": "numberOfEpochsToClaim",
          "type": "uint256"
        }
      ],
      "name": "getClaimableRewardsFromInflation",
      "outputs": [
        {
          "internalType": "uint256",
          "name": "amount",
          "type": "uint256"
        }
      ],
      "stateMutability": "view",
      "type": "function"
    },
    {
      "inputs": [
        {
          "internalType": "uint256",
          "name": "nftId",
          "type": "uint256"
        }
      ],
      "name": "getGhostsForNFT",
      "outputs": [
        {
          "internalType": "address[]",
          "name": "",
          "type": "address[]"
        }
      ],
      "stateMutability": "view",
      "type": "function"
    },
    {
      "inputs": [
        {
          "internalType": "uint256",
          "name": "nftId",
          "type": "uint256"
        }
      ],
      "name": "getLastClaimedEpoch",
      "outputs": [
        {
          "internalType": "uint256",
          "name": "",
          "type": "uint256"
        }
      ],
      "stateMutability": "view",
      "type": "function"
    },
    {
      "inputs": [
        {
          "internalType": "uint256",
          "name": "nftId",
          "type": "uint256"
        }
      ],
      "name": "getNumberOfEpochsToClaim",
      "outputs": [
        {
          "internalType": "uint256",
          "name": "",
          "type": "uint256"
        }
      ],
      "stateMutability": "view",
      "type": "function"
    },
    {
      "inputs": [
        {
          "internalType": "bytes32",
          "name": "role",
          "type": "bytes32"
        }
      ],
      "name": "getRoleAdmin",
      "outputs": [
        {
          "internalType": "bytes32",
          "name": "",
          "type": "bytes32"
        }
      ],
      "stateMutability": "view",
      "type": "function"
    },
    {
      "inputs": [
        {
          "internalType": "address",
          "name": "ghost",
          "type": "address"
        },
        {
          "internalType": "uint256",
          "name": "epoch",
          "type": "uint256"
        }
      ],
      "name": "getTxIdsForGhostAndEpoch",
      "outputs": [
        {
          "internalType": "bytes32[]",
          "name": "",
          "type": "bytes32[]"
        }
      ],
      "stateMutability": "view",
      "type": "function"
    },
    {
      "inputs": [
        {
          "internalType": "address",
          "name": "ghost",
          "type": "address"
        }
      ],
      "name": "ghostToNFT",
      "outputs": [
        {
          "internalType": "uint256",
          "name": "nftId",
          "type": "uint256"
        }
      ],
      "stateMutability": "view",
      "type": "function"
    },
    {
      "inputs": [
        {
          "internalType": "bytes32",
          "name": "role",
          "type": "bytes32"
        },
        {
          "internalType": "address",
          "name": "account",
          "type": "address"
        }
      ],
      "name": "grantRole",
      "outputs": [],
      "stateMutability": "nonpayable",
      "type": "function"
    },
    {
      "inputs": [
        {
          "internalType": "address",
          "name": "developer",
          "type": "address"
        }
      ],
      "name": "hasNFT",
      "outputs": [
        {
          "internalType": "bool",
          "name": "",
          "type": "bool"
        }
      ],
      "stateMutability": "view",
      "type": "function"
    },
    {
      "inputs": [
        {
          "internalType": "bytes32",
          "name": "role",
          "type": "bytes32"
        },
        {
          "internalType": "address",
          "name": "account",
          "type": "address"
        }
      ],
      "name": "hasRole",
      "outputs": [
        {
          "internalType": "bool",
          "name": "",
          "type": "bool"
        }
      ],
      "stateMutability": "view",
      "type": "function"
    },
    {
      "inputs": [
        {
          "internalType": "address",
          "name": "_addressManager",
          "type": "address"
        }
      ],
      "name": "initialize",
      "outputs": [],
      "stateMutability": "nonpayable",
      "type": "function"
    },
    {
      "inputs": [
        {
          "internalType": "address",
          "name": "owner",
          "type": "address"
        },
        {
          "internalType": "address",
          "name": "operator",
          "type": "address"
        }
      ],
      "name": "isApprovedForAll",
      "outputs": [
        {
          "internalType": "bool",
          "name": "",
          "type": "bool"
        }
      ],
      "stateMutability": "view",
      "type": "function"
    },
    {
      "inputs": [],
      "name": "maxNumberOfEpochs",
      "outputs": [
        {
          "internalType": "uint256",
          "name": "",
          "type": "uint256"
        }
      ],
      "stateMutability": "view",
      "type": "function"
    },
    {
      "inputs": [
        {
          "internalType": "address",
          "name": "developer",
          "type": "address"
        },
        {
          "internalType": "address",
          "name": "ghost",
          "type": "address"
        }
      ],
      "name": "mint",
      "outputs": [],
      "stateMutability": "nonpayable",
      "type": "function"
    },
    {
      "inputs": [],
      "name": "name",
      "outputs": [
        {
          "internalType": "string",
          "name": "",
          "type": "string"
        }
      ],
      "stateMutability": "view",
      "type": "function"
    },
    {
      "inputs": [
        {
          "internalType": "uint256",
          "name": "nftId",
          "type": "uint256"
        }
      ],
      "name": "nfts",
      "outputs": [
        {
          "internalType": "address",
          "name": "developer",
          "type": "address"
        },
        {
          "internalType": "uint256",
          "name": "claimableRewards",
          "type": "uint256"
        },
        {
          "internalType": "uint256",
          "name": "lastClaimedEpoch",
          "type": "uint256"
        }
      ],
      "stateMutability": "view",
      "type": "function"
    },
    {
      "inputs": [],
      "name": "owner",
      "outputs": [
        {
          "internalType": "address",
          "name": "",
          "type": "address"
        }
      ],
      "stateMutability": "view",
      "type": "function"
    },
    {
      "inputs": [
        {
          "internalType": "uint256",
          "name": "tokenId",
          "type": "uint256"
        }
      ],
      "name": "ownerOf",
      "outputs": [
        {
          "internalType": "address",
          "name": "",
          "type": "address"
        }
      ],
      "stateMutability": "view",
      "type": "function"
    },
    {
      "inputs": [],
      "name": "pendingOwner",
      "outputs": [
        {
          "internalType": "address",
          "name": "",
          "type": "address"
        }
      ],
      "stateMutability": "view",
      "type": "function"
    },
    {
      "inputs": [],
      "name": "renounceOwnership",
      "outputs": [],
      "stateMutability": "nonpayable",
      "type": "function"
    },
    {
      "inputs": [
        {
          "internalType": "bytes32",
          "name": "role",
          "type": "bytes32"
        },
        {
          "internalType": "address",
          "name": "callerConfirmation",
          "type": "address"
        }
      ],
      "name": "renounceRole",
      "outputs": [],
      "stateMutability": "nonpayable",
      "type": "function"
    },
    {
      "inputs": [
        {
          "internalType": "bytes32",
          "name": "role",
          "type": "bytes32"
        },
        {
          "internalType": "address",
          "name": "account",
          "type": "address"
        }
      ],
      "name": "revokeRole",
      "outputs": [],
      "stateMutability": "nonpayable",
      "type": "function"
    },
    {
      "inputs": [
        {
          "internalType": "address",
          "name": "from",
          "type": "address"
        },
        {
          "internalType": "address",
          "name": "to",
          "type": "address"
        },
        {
          "internalType": "uint256",
          "name": "tokenId",
          "type": "uint256"
        }
      ],
      "name": "safeTransferFrom",
      "outputs": [],
      "stateMutability": "nonpayable",
      "type": "function"
    },
    {
      "inputs": [
        {
          "internalType": "address",
          "name": "from",
          "type": "address"
        },
        {
          "internalType": "address",
          "name": "to",
          "type": "address"
        },
        {
          "internalType": "uint256",
          "name": "tokenId",
          "type": "uint256"
        },
        {
          "internalType": "bytes",
          "name": "data",
          "type": "bytes"
        }
      ],
      "name": "safeTransferFrom",
      "outputs": [],
      "stateMutability": "nonpayable",
      "type": "function"
    },
    {
      "inputs": [
        {
          "internalType": "address",
          "name": "_addressManager",
          "type": "address"
        }
      ],
      "name": "setAddressManager",
      "outputs": [],
      "stateMutability": "nonpayable",
      "type": "function"
    },
    {
      "inputs": [
        {
          "internalType": "address",
          "name": "operator",
          "type": "address"
        },
        {
          "internalType": "bool",
          "name": "approved",
          "type": "bool"
        }
      ],
      "name": "setApprovalForAll",
      "outputs": [],
      "stateMutability": "nonpayable",
      "type": "function"
    },
    {
      "inputs": [
        {
          "internalType": "uint256",
          "name": "_maxNumberOfEpochs",
          "type": "uint256"
        }
      ],
      "name": "setMaxNumberOfEpochs",
      "outputs": [],
      "stateMutability": "nonpayable",
      "type": "function"
    },
    {
      "inputs": [
        {
          "internalType": "bytes4",
          "name": "interfaceId",
          "type": "bytes4"
        }
      ],
      "name": "supportsInterface",
      "outputs": [
        {
          "internalType": "bool",
          "name": "",
          "type": "bool"
        }
      ],
      "stateMutability": "view",
      "type": "function"
    },
    {
      "inputs": [],
      "name": "symbol",
      "outputs": [
        {
          "internalType": "string",
          "name": "",
          "type": "string"
        }
      ],
      "stateMutability": "view",
      "type": "function"
    },
    {
      "inputs": [
        {
          "internalType": "uint256",
          "name": "tokenId",
          "type": "uint256"
        }
      ],
      "name": "tokenURI",
      "outputs": [
        {
          "internalType": "string",
          "name": "",
          "type": "string"
        }
      ],
      "stateMutability": "view",
      "type": "function"
    },
    {
      "inputs": [
        {
          "internalType": "uint256",
          "name": "epoch",
          "type": "uint256"
        }
      ],
      "name": "totalPerEpoch",
      "outputs": [
        {
          "internalType": "uint256",
          "name": "fees",
          "type": "uint256"
        },
        {
          "internalType": "uint256",
          "name": "inflation",
          "type": "uint256"
        }
      ],
      "stateMutability": "view",
      "type": "function"
    },
    {
      "inputs": [
        {
          "internalType": "uint256",
          "name": "nftId",
          "type": "uint256"
        },
        {
          "internalType": "address",
          "name": "to",
          "type": "address"
        }
      ],
      "name": "transfer",
      "outputs": [],
      "stateMutability": "nonpayable",
      "type": "function"
    },
    {
      "inputs": [
        {
          "internalType": "address",
          "name": "from",
          "type": "address"
        },
        {
          "internalType": "address",
          "name": "to",
          "type": "address"
        },
        {
          "internalType": "uint256",
          "name": "tokenId",
          "type": "uint256"
        }
      ],
      "name": "transferFrom",
      "outputs": [],
      "stateMutability": "nonpayable",
      "type": "function"
    },
    {
      "inputs": [
        {
          "internalType": "address",
          "name": "newOwner",
          "type": "address"
        }
      ],
      "name": "transferOwnership",
      "outputs": [],
      "stateMutability": "nonpayable",
      "type": "function"
    },
    {
      "inputs": [
        {
          "internalType": "address",
          "name": "ghost",
          "type": "address"
        },
        {
          "internalType": "uint256",
          "name": "epoch",
          "type": "uint256"
        },
        {
          "internalType": "uint256",
          "name": "",
          "type": "uint256"
        }
      ],
      "name": "txIdsPerEpoch",
      "outputs": [
        {
          "internalType": "bytes32",
          "name": "txIds",
          "type": "bytes32"
        }
      ],
      "stateMutability": "view",
      "type": "function"
    }
  ],
  "bytecode": "0x60808060405234601557612cf9908161001b8239f35b600080fdfe6080604052600436101561001257600080fd5b6000803560e01c8062e703ca14611ac157806301d1ae3414611a0057806301ffc9a7146119775780630652b57a1461193757806306fdde0314611876578063081812fc1461184d578063095ea7b3146117655780631ea8970f1461172c57806323b872dd14611714578063248a9ca3146116f5578063265aa621146116ab5780632f2ff15d1461167957806336568abe14611634578063379607f5146115e35780633ab76e9f146115bc57806342842e0e1461159257806343c4b40b1461156b5780634b7877c5146115225780636352211e146114f157806370a082311461149f578063715018a61461141e578063785f8ee3146113e357806379ba5097146113955780637b1837de14611261578063811de0e2146111fd5780638da5cb5b146111c757806391d148541461117157806395d89b41146110745780639c9b881914611047578063a217fddf1461102b578063a22cb46514610f8c578063b7760c8f14610e39578063b7b90e6b14610d7d578063b88d4fde14610ce8578063ba6e27cd14610cb4578063bfd1d45a14610c7b578063c3453c0214610c5d578063c4d66de814610748578063c87b56dd146106ec578063d05b22381461069e578063d50eeb0a1461067b578063d547741f14610640578063da2943b814610613578063de7e992e1461056e578063e00dd16114610550578063e30c39781461051a578063e985e9c5146104cb578063ee1fe2ad146102c15763f2fde38b1461023757600080fd5b346102be5760203660031901126102be57610250611bbb565b610258612236565b600080516020612c8483398151915280546001600160a01b0319166001600160a01b03928316908117909155600080516020612bc4833981519152549091167f38d16b8cac22d99fc7c124b9cd0de2d3fa1faef420bfe791d8c362d765e227008380a380f35b80fd5b50346102be5760403660031901126102be576102db611bbb565b6102e3611bd6565b6001600160a01b036102f361214c565b16331415806104b1575b6104a2576001600160a01b03821680845260046020526040842054909190610493576001600160a01b031680156104845781156104755780845260056020526040842054610466576002546000198114610452576001016002819055926001600160a01b039061036e9085906122c5565b1661043e578184526004602052826040852055808452600560205282604085205582845260036020526003604085208360018060a01b031982541617815585600182015585600282015501805490600160401b82101561042a57916103fe827fb9203d657e9c0ec8274c818292ab0f58b04e1970050716891770eb1bab5d655e9694600160409795018155611cef565b81546001600160a01b0360039290921b91821b191692901b91909117905582519182526020820152a180f35b634e487b7160e01b86526041600452602486fd5b6339e3563760e11b84526004849052602484fd5b634e487b7160e01b85526011600452602485fd5b6306d7a10d60e31b8452600484fd5b637e3f46bd60e01b8452600484fd5b634d8d14c560e01b8452600484fd5b63a74b28d160e01b8452600484fd5b6370f64de560e01b8352600483fd5b506001600160a01b036104c26121e0565b163314156102fd565b50346102be5760403660031901126102be576104e5611bbb565b6104f66104f0611bd6565b91611c66565b9060018060a01b0316600052602052602060ff604060002054166040519015158152f35b50346102be57806003193601126102be57600080516020612c84833981519152546040516001600160a01b039091168152602090f35b50346102be57806003193601126102be576020600254604051908152f35b5060203660031901126102be576004356001600160a01b0361058e61214c565b16331415806105f9575b6105ea576040817f4e6be16a3524de88ce5fdfe56531ecc6a1dd8819ce5d794eab027c5ccdd5ed6892845260076020526001828520016105d9348254611feb565b90558151908152346020820152a180f35b6370f64de560e01b8252600482fd5b506001600160a01b0361060a6121e0565b16331415610598565b50346102be5760203660031901126102be5760026040602092600435815260038452200154604051908152f35b50346102be5760403660031901126102be57610677600435610660611bd6565b9061067261066d82611fca565b61241b565b6125c0565b5080f35b50346102be57602061069561068f36611cd9565b90612912565b50604051908152f35b50346102be5760203660031901126102be577faf2b2aad83d92d146842786c6618e69fbdfc6a40dc3e8fa079d459f4e0c9bc9c60206004356106de612236565b80600155604051908152a180f35b50346102be5760203660031901126102be5761070960043561226c565b5080604051610719602082611d1d565b525061074460405161072c602082611d1d565b60008152604051918291602083526020830190611bec565b0390f35b50346102be5760203660031901126102be57610762611bbb565b600080516020612c648339815191525460ff8160401c16159067ffffffffffffffff811680159081610c55575b6001149081610c4b575b159081610c42575b50610c335767ffffffffffffffff198116600117600080516020612c648339815191525581610c06575b506107d4612aed565b6107dc612aed565b6107e4612aed565b3315610bf2576107f3336128a4565b6107fb612aed565b610803612aed565b6001600080516020612c248339815191525561081d612aed565b604091825161082c8482611d1d565b601781527611d95b9b185e595c8811195d995b1bdc195c9cc8139195604a1b602082015283519061085d8583611d1d565b600482526311d3919560e21b6020830152610876612aed565b61087e612aed565b80519067ffffffffffffffff8211610bde5781906108aa600080516020612ba483398151915254611d71565b601f8111610b63575b50602090601f8311600114610ae4578892610ad9575b50508160011b916000199060031b1c191617600080516020612ba4833981519152555b80519067ffffffffffffffff821161042a578190610918600080516020612ca483398151915254611d71565b601f8111610a5e575b50602090601f83116001146109df5787926109d4575b50508160011b916000199060031b1c191617600080516020612ca4833981519152555b61096333612465565b50603260015583546001600160a01b0319166001600160a01b039190911617835561098c575080f35b600080516020612c64833981519152805460ff60401b1916905551600181527fc7f505b2f371ae2175ee4913f4499e1f2633a7b5936321eed1cdaeb6115181d290602090a180f35b015190503880610937565b600080516020612ca483398151915288528188209250601f198416885b818110610a465750908460019594939210610a2d575b505050811b01600080516020612ca48339815191525561095a565b015160001960f88460031b161c19169055388080610a12565b929360206001819287860151815501950193016109fc565b600080516020612ca483398151915288529091507ff4bad0a69248f59680a4f2b3000328cec71a413447c96781cfe5996daa8c456e601f840160051c81019160208510610acf575b90601f859493920160051c01905b818110610ac15750610921565b888155849350600101610ab4565b9091508190610aa6565b0151905038806108c9565b600080516020612ba483398151915289528189209250601f198416895b818110610b4b5750908460019594939210610b32575b505050811b01600080516020612ba4833981519152556108ec565b015160001960f88460031b161c19169055388080610b17565b92936020600181928786015181550195019301610b01565b600080516020612ba483398151915289529091507f37c58c799b6609234b945e882912ee9ad34948a1dfaa20a97485e1a7752bbf81601f840160051c81019160208510610bd4575b90601f859493920160051c01905b818110610bc657506108b3565b898155849350600101610bb9565b9091508190610bab565b634e487b7160e01b87526041600452602487fd5b631e4fbdf760e01b83526004839052602483fd5b68ffffffffffffffffff19166801000000000000000117600080516020612c6483398151915255386107cb565b63f92ee8a960e01b8452600484fd5b905015386107a1565b303b159150610799565b83915061078f565b50346102be57806003193601126102be576020600154604051908152f35b50346102be5760203660031901126102be576020906040906001600160a01b03610ca3611bbb565b168152600483522054604051908152f35b50346102be5760203660031901126102be576040809160043581526007602052206001815491015482519182526020820152f35b50346102be5760803660031901126102be57610d02611bbb565b610d0a611bd6565b906064359067ffffffffffffffff8211610d795736602383011215610d795781600401359284610d3985611d55565b93610d476040519586611d1d565b8585523660248783010111610d755785610d729660246020930183880137850101526044359161200e565b80f35b5080fd5b8380fd5b50346102be5760203660031901126102be576004358152600360205260036040822001604051908160208254918281520190819285526020852090855b818110610e1a5750505082610dd0910383611d1d565b604051928392602084019060208552518091526040840192915b818110610df8575050500390f35b82516001600160a01b0316845285945060209384019390920191600101610dea565b82546001600160a01b0316845260209093019260019283019201610dba565b50346102be5760403660031901126102be57600435610e56611bd6565b610e5e612660565b6001600160a01b038116908115610f7d57813314610f7d578184526004602052604084205461049357338452600460205282604085205403610f6e5781845260046020818152604080872086905533875291815281862086905584865260039052842080546001600160a01b031916831790556001600160a01b0390610ee59084906122c5565b1680610eff57637e27328960e01b84526004839052602484fd5b338103610f5357507f0ea8df787dde63a7bdc34d17097adf25749a3521f660e92dabdff8d6ee91d18a916060916040519182523360208301526040820152a16001600080516020612c248339815191525580f35b6364283d7b60e01b8452336004526024839052604452606483fd5b631022318760e21b8452600484fd5b634e46966960e11b8452600484fd5b50346102be5760403660031901126102be57610fa6611bbb565b60243590811515809203611027576001600160a01b031690811561101357610fcd33611c66565b8284526020526040832060ff1981541660ff83161790556040519081527f17307eab39ab6107e8899845ad3d59bd9653f200f220920489ca2b5937696c3160203392a380f35b630b61174360e31b83526004829052602483fd5b8280fd5b50346102be57806003193601126102be57602090604051908152f35b50346102be5760203660031901126102be5760016040602092600435815260038452200154604051908152f35b50346102be57806003193601126102be576040519080600080516020612ca483398151915254906110a482611d71565b808552916001811690811561114a57506001146110e0575b610744846110cc81860382611d1d565b604051918291602083526020830190611bec565b600080516020612ca483398151915281527ff4bad0a69248f59680a4f2b3000328cec71a413447c96781cfe5996daa8c456e939250905b808210611130575090915081016020016110cc826110bc565b919260018160209254838588010152019101909291611117565b60ff191660208087019190915292151560051b850190920192506110cc91508390506110bc565b50346102be5760403660031901126102be5760ff6040602092611192611bd6565b6004358252600080516020612be483398151915285528282206001600160a01b03909116825284522054604051911615158152f35b50346102be57806003193601126102be57600080516020612bc4833981519152546040516001600160a01b039091168152602090f35b50346102be5760603660031901126102be57611217611bbb565b6001600160a01b0316815260066020908152604080832060243584529091528120805460443592908310156102be5760206112528484611cef565b90549060031b1c604051908152f35b5060403660031901126102be57611276611bbb565b60243591906001600160a01b0361128b61214c565b163314158061137b575b6105ea576001600160a01b038116801561136c5782526005602052604082205490811561135d578293827f38c48552690c96ec2872092ac1db6c19fb59f5a8c5b49bbf41ed4886d0ca692694526003602052600160408620016112f9348254611feb565b90558285526003602052600460408620018186526020526040852061131f348254611feb565b90558452600760205260408420611337348254611feb565b9055604080519283526001600160a01b039190911660208301523490820152606090a180f35b633842499160e11b8352600483fd5b634d8d14c560e01b8352600483fd5b506001600160a01b0361138c6121e0565b16331415611295565b50346102be57806003193601126102be57600080516020612c8483398151915254336001600160a01b03909116036113d057610d72336128a4565b63118cdaa760e01b815233600452602490fd5b50346102be5760203660031901126102be576020906040906001600160a01b0361140b611bbb565b1681526004835220541515604051908152f35b50346102be57806003193601126102be57611437612236565b600080516020612c8483398151915280546001600160a01b0319908116909155600080516020612bc48339815191528054918216905581906001600160a01b03167f8be0079c531659141344cd1fd0a4f28419497f9722a3daafe3b4186f6b6457e08280a380f35b50346102be5760203660031901126102be576114b9611bbb565b906001600160a01b038216156114dd5760206114d483611c2d565b54604051908152f35b6322718ad960e21b81526004819052602490fd5b50346102be5760203660031901126102be57602061151060043561226c565b6040516001600160a01b039091168152f35b50346102be5761153136611cd9565b90338352600460205260408320541561135d579061155691611551612660565b61276f565b6001600080516020612c248339815191525580f35b50346102be5760203660031901126102be57602061158a6004356126a9565b604051908152f35b50346102be57610d726115a436611c9f565b90604051926115b4602085611d1d565b85845261200e565b50346102be57806003193601126102be57546040516001600160a01b039091168152602090f35b50346102be5760203660031901126102be5760043533825260046020526040822054156116255761155690611616612660565b61161f816126a9565b9061276f565b633842499160e11b8252600482fd5b50346102be5760403660031901126102be5761164e611bd6565b336001600160a01b0382160361166a57610677906004356125c0565b63334bd91960e11b8252600482fd5b50346102be5760403660031901126102be57610677600435611699611bd6565b906116a661066d82611fca565b612517565b50346102be5760203660031901126102be576040606091600435815260036020522060018060a01b0381541690600260018201549101549060405192835260208301526040820152f35b50346102be5760203660031901126102be57602061158a600435611fca565b50346102be57610d7261172636611c9f565b91611dab565b50346102be5760203660031901126102be576020906040906001600160a01b03611754611bbb565b168152600583522054604051908152f35b50346102be5760403660031901126102be5761177f611bbb565b60243561178b8161226c565b3315158061183a575b8061181c575b6118095781906001600160a01b0384811691167f8c5be1e5ebec7d5bd14f71427d1e84f3dd0314c0f7b2291e5b200ac8c7c3b9258680a48252600080516020612c448339815191526020526040822080546001600160a01b0319166001600160a01b0390921691909117905580f35b63a9fbf51f60e01b845233600452602484fd5b5061182681611c66565b338552602052604084205460ff161561179a565b506001600160a01b038116331415611794565b50346102be5760203660031901126102be5760206115106004356118708161226c565b5061229d565b50346102be57806003193601126102be576040519080600080516020612ba483398151915254906118a682611d71565b808552916001811690811561114a57506001146118cd57610744846110cc81860382611d1d565b600080516020612ba483398151915281527f37c58c799b6609234b945e882912ee9ad34948a1dfaa20a97485e1a7752bbf81939250905b80821061191d575090915081016020016110cc826110bc565b919260018160209254838588010152019101909291611904565b50346102be5760203660031901126102be57611951611bbb565b611959612236565b81546001600160a01b0319166001600160a01b039190911617815580f35b50346102be5760203660031901126102be5760043563ffffffff60e01b8116809103610d75576020906380ac58cd60e01b81149081156119ef575b81156119c4575b506040519015158152f35b637965db0b60e01b8114915081156119de575b50826119b9565b6301ffc9a760e01b149050826119d7565b635b5e139f60e01b811491506119b2565b50346102be5760403660031901126102be576001600160a01b03611a22611bbb565b168152600660205260408120602435825260205260408120604051908160208254918281520190819285526020852090855b818110611aab5750505082611a6a910383611d1d565b604051928392602084019060208552518091526040840192915b818110611a92575050500390f35b8251845285945060209384019390920191600101611a84565b8254845260209093019260019283019201611a54565b50346102be5760603660031901126102be57611adb611bbb565b60243590604435906001600160a01b03611af361214c565b1633141580611ba1575b611b92576001600160a01b03168084526006602090815260408086208487529091528420805491939190600160401b82101561042a5791611b69827f03758e616baf94de0d1218113d7efe48d1d2b2be3c027f2ea429465175b0befe9694600160609795018155611cef565b81549060031b9083821b91600019901b191617905560405192835260208301526040820152a180f35b6370f64de560e01b8452600484fd5b506001600160a01b03611bb26121e0565b16331415611afd565b600435906001600160a01b0382168203611bd157565b600080fd5b602435906001600160a01b0382168203611bd157565b919082519283825260005b848110611c18575050826000602080949584010152601f8019910116010190565b80602080928401015182828601015201611bf7565b6001600160a01b031660009081527f80bb2b638cc20bc4d0a60d66940f3ab4a00c1d7b313497ca82fb0b4ab00793036020526040902090565b6001600160a01b031660009081527f80bb2b638cc20bc4d0a60d66940f3ab4a00c1d7b313497ca82fb0b4ab00793056020526040902090565b6060906003190112611bd1576004356001600160a01b0381168103611bd157906024356001600160a01b0381168103611bd1579060443590565b6040906003190112611bd1576004359060243590565b8054821015611d075760005260206000200190600090565b634e487b7160e01b600052603260045260246000fd5b90601f8019910116810190811067ffffffffffffffff821117611d3f57604052565b634e487b7160e01b600052604160045260246000fd5b67ffffffffffffffff8111611d3f57601f01601f191660200190565b90600182811c92168015611da1575b6020831014611d8b57565b634e487b7160e01b600052602260045260246000fd5b91607f1691611d80565b9091906001600160a01b0383168015611fb457600090611dca84612a9a565b9133151580611f1b575b506001600160a01b0383169586151590611df29082611efc57611c2d565b80546001019055858252600080516020612c048339815191526020526040822080546001600160a01b031916841790558583887fddf252ad1be2c89b69c2b068fc378daa952ba7f163c4a11628f55a4df523b3ef8580a4611ee9575b81815260046020526040812054151580611ed3575b611ec4578181526004602090815260408083208790558683526003909152902080546001600160a01b0319169091179055506001600160a01b0316808303611eaa57505050565b6364283d7b60e01b60005260045260245260445260646000fd5b63a74b28d160e01b8152600490fd5b5081815260046020528460408220541415611e63565b8581526004602052806040812055611e4e565b611f0588612ac2565b611f0e86611c2d565b8054600019019055611c2d565b80611f64575b15611f2c5738611dd4565b9250506001600160a01b0316611f4e57602491637e27328960e01b8252600452fd5b60449163177e802f60e01b825233600452602452fd5b506001600160a01b03831633148015611f97575b80611f215750336001600160a01b03611f908761229d565b1614611f21565b50611fa183611c66565b338252602052604081205460ff16611f78565b633250574960e11b600052600060045260246000fd5b600052600080516020612be483398151915260205260016040600020015490565b91908201809211611ff857565b634e487b7160e01b600052601160045260246000fd5b929161201b818386611dab565b813b612028575b50505050565b604051630a85bd0160e11b81523360048201526001600160a01b0394851660248201526044810191909152608060648201529216919060209082908190612073906084830190611bec565b03816000865af180916000916120ea575b50906120b5575061209361273f565b805190816120b05782633250574960e11b60005260045260246000fd5b602001fd5b6001600160e01b03191663757a42ff60e11b016120d6575038808080612022565b633250574960e11b60005260045260246000fd5b6020813d602011612125575b8161210360209383611d1d565b81010312610d755751906001600160e01b0319821682036102be575038612084565b3d91506120f6565b90816020910312611bd157516001600160a01b0381168103611bd15790565b600054604051631bae711d60e21b8152602060048201819052600d60248301526c4372656174696f6e506861736560981b60448301529091829060649082906001600160a01b03165afa9081156121d4576000916121a8575090565b6121ca915060203d6020116121cd575b6121c28183611d1d565b81019061212d565b90565b503d6121b8565b6040513d6000823e3d90fd5b600054604051631bae711d60e21b815260206004820181905260076024830152665374616b696e6760c81b60448301529091829060649082906001600160a01b03165afa9081156121d4576000916121a8575090565b600080516020612bc4833981519152546001600160a01b0316330361225757565b63118cdaa760e01b6000523360045260246000fd5b61227581612a9a565b906001600160a01b03821615612289575090565b637e27328960e01b60005260045260246000fd5b6000908152600080516020612c4483398151915260205260409020546001600160a01b031690565b6122ce82612a9a565b916001600160a01b0383168015159290836123fc575b6001600160a01b0382169384151592836123e6575b506000848152600080516020612c048339815191526020526040812080546001600160a01b031916871790558490869084907fddf252ad1be2c89b69c2b068fc378daa952ba7f163c4a11628f55a4df523b3ef9080a46123d1575b5061235e57505090565b8160005260046020526040600020541515806123b9575b6123a85781600052600460205280604060002055600052600360205260406000209060018060a01b031982541617905590565b63a74b28d160e01b60005260046000fd5b50816000526004602052806040600020541415612375565b60005260046020526000604081205538612354565b6123ef90611c2d565b60018154019055386122f9565b61240583612ac2565b61240e85611c2d565b80546000190190556122e4565b6000818152600080516020612be48339815191526020908152604080832033845290915290205460ff161561244d5750565b63e2517d3f60e01b6000523360045260245260446000fd5b6001600160a01b03811660009081527fb7db2dd08fcb62d0c9e08c51941cae53c267786a0b75803fb7960902fc8ef97d602052604090205460ff16612511576001600160a01b031660008181527fb7db2dd08fcb62d0c9e08c51941cae53c267786a0b75803fb7960902fc8ef97d60205260408120805460ff191660011790553391907f2f8788117e7eff1d82e926ec794901d17c78024a50270940304540a733656f0d8180a4600190565b50600090565b6000818152600080516020612be4833981519152602090815260408083206001600160a01b038616845290915290205460ff166125b9576000818152600080516020612be4833981519152602090815260408083206001600160a01b0395909516808452949091528120805460ff19166001179055339291907f2f8788117e7eff1d82e926ec794901d17c78024a50270940304540a733656f0d9080a4600190565b5050600090565b6000818152600080516020612be4833981519152602090815260408083206001600160a01b038616845290915290205460ff16156125b9576000818152600080516020612be4833981519152602090815260408083206001600160a01b0395909516808452949091528120805460ff19169055339291907ff6391f5c32d9c69d2a47ea670b442974b53935d1edc7fd64eb21e047a839171b9080a4600190565b6002600080516020612c24833981519152541461268b576002600080516020612c2483398151915255565b633ee5aeb560e01b60005260046000fd5b91908203918211611ff857565b60049060206001600160a01b036126be6121e0565b166040519384809263b3f05b9760e01b82525afa9182156121d45760009261270b575b50600090815260036020526040902060020154818110612702575050600090565b6121ca9161269c565b90916020823d602011612737575b8161272660209383611d1d565b810103126102be57505190386126e1565b3d9150612719565b3d1561276a573d9061275082611d55565b9161275e6040519384611d1d565b82523d6000602084013e565b606090565b90600154801515908161289a575b50612889576000828152600360205260409020546001600160a01b031633036128785760008281526003602052604081206001018054919055906127c19083612912565b908360005260036020526002604060002001548211612854575b5050801561284357600080808084335af16127f461273f565b501561283257604080519283523360208401528201527f4ec90e965519d92681267467f775ada5bd214aa92c0dc93d90a5e880ce9ed02690606090a1565b633825f58760e01b60005260046000fd5b630df6b47b60e41b60005260046000fd5b61285e9192611feb565b9082600052600360205260026040600020015538806127db565b631022318760e21b60005260046000fd5b632e6a339160e21b60005260046000fd5b905081113861277d565b600080516020612c8483398151915280546001600160a01b0319908116909155600080516020612bc483398151915280549182166001600160a01b0393841690811790915591167f8be0079c531659141344cd1fd0a4f28419497f9722a3daafe3b4186f6b6457e0600080a3565b90916000926000928115612a8f578060005260036020526002604060002001546004602060018060a01b036129456121e0565b166040519283809263b3f05b9760e01b82525afa9081156121d457600091612a5d575b5080821015612a50578161297b9161269c565b808411612a48575b5091906000925b8284106129975750505050565b9091929594506129a78682611feb565b9460018601809611611ff857600083815260036020908152604080832089845260040182528083205460079092528220805460019091015491928392908215612a3e57506129fd926129f891612b1b565b612b5b565b915b8160011b9180830460021490151715611ff857600192612a2b92600081831015612a3557505090611feb565b960192919061298a565b50919050611feb565b92505050916129ff565b925038612983565b5060009550859450505050565b906020823d602011612a87575b81612a7760209383611d1d565b810103126102be57505138612968565b3d9150612a6a565b506000935083925050565b6000908152600080516020612c0483398151915260205260409020546001600160a01b031690565b6000908152600080516020612c448339815191526020526040902080546001600160a01b0319169055565b60ff600080516020612c648339815191525460401c1615612b0a57565b631afcd79f60e31b60005260046000fd5b818102918183041490151715611ff85780612b365750600090565b6000198101908111611ff857670de0b6b3a7640000900460018101809111611ff85790565b80612b67575050600090565b670de0b6b3a76400008102908104670de0b6b3a764000003611ff8578115612b8d570490565b634e487b7160e01b600052601260045260246000fdfe80bb2b638cc20bc4d0a60d66940f3ab4a00c1d7b313497ca82fb0b4ab00793009016d09d72d40fdae2fd8ceac6b6234c7706214fd39c1cd1e609a0528c19930002dd7bc7dec4dceedda775e58dd541e08a116c6c53815c0bd028192f7b62680080bb2b638cc20bc4d0a60d66940f3ab4a00c1d7b313497ca82fb0b4ab00793029b779b17422d0df92223018b32b4d1fa46e071723d6817e2486d003becc55f0080bb2b638cc20bc4d0a60d66940f3ab4a00c1d7b313497ca82fb0b4ab0079304f0c57e16840df040f15088dc2f81fe391c3923bec73e23a9662efc9c229c6a00237e158222e3e6968b72b9db0d8043aacf074ad9f650f0d1606b4d82ee432c0080bb2b638cc20bc4d0a60d66940f3ab4a00c1d7b313497ca82fb0b4ab0079301a2646970667358221220cef87c71ed9b71eca55d189fcdc496f8be9187c8c7b22a82a46e45a412817d2d64736f6c634300081c0033",
  "linkReferences": {},
  "deployedLinkReferences": {}
}