{
  "_format": "hh-sol-artifact-1",
  "contractName": "MockGhostFactoryForCreation",
  "sourceName": "contracts/test-helpers/MockGhostFactoryForCreation.sol",
  "abi": [
    {
      "inputs": [
        {
          "internalType": "uint256",
          "name": "",
          "type": "uint256"
        }
      ],
      "name": "createGhost",
      "outputs": [
        {
          "internalType": "address",
          "name": "",
          "type": "address"
        }
      ],
      "stateMutability": "nonpayable",
      "type": "function"
    },
    {
      "inputs": [
        {
          "internalType": "address",
          "name": "contractAddress",
          "type": "address"
        }
      ],
      "name": "isGhost",
      "outputs": [
        {
          "internalType": "bool",
          "name": "",
          "type": "bool"
        }
      ],
      "stateMutability": "view",
      "type": "function"
    },
    {
      "inputs": [],
      "name": "latestGhost",
      "outputs": [
        {
          "internalType": "address",
          "name": "",
          "type": "address"
        }
      ],
      "stateMutability": "view",
      "type": "function"
    },
    {
      "inputs": [
        {
          "internalType": "uint256",
          "name": "",
          "type": "uint256"
        },
        {
          "internalType": "address",
          "name": "",
          "type": "address"
        }
      ],
      "name": "predictGhostAddress",
      "outputs": [
        {
          "internalType": "address",
          "name": "",
          "type": "address"
        }
      ],
      "stateMutability": "view",
      "type": "function"
    },
    {
      "inputs": [
        {
          "internalType": "address",
          "name": "addr",
          "type": "address"
        },
        {
          "internalType": "bool",
          "name": "value",
          "type": "bool"
        }
      ],
      "name": "setIsGhost",
      "outputs": [],
      "stateMutability": "nonpayable",
      "type": "function"
    },
    {
      "inputs": [
        {
          "internalType": "address",
          "name": "ghost",
          "type": "address"
        }
      ],
      "name": "setLatestGhost",
      "outputs": [],
      "stateMutability": "nonpayable",
      "type": "function"
    }
  ],
  "bytecode": "0x60808060405234601557610228908161001b8239f35b600080fdfe608080604052600436101561001357600080fd5b60003560e01c90816316855bc91461018f57816374c153231461014e57508063b8f3c96314610125578063d4fd3a27146100f3578063dc1cde00146100a55763ef7c05411461006157600080fd5b346100a05760203660031901126100a0576001600160a01b036100826101c6565b166000526001602052602060ff604060002054166040519015158152f35b600080fd5b346100a05760403660031901126100a0576100be6101c6565b602435908115158092036100a05760018060a01b0316600052600160205260406000209060ff80198354169116179055600080f35b346100a05760403660031901126100a05761010c6101dc565b506000546040516001600160a01b039091168152602090f35b346100a05760003660031901126100a0576000546040516001600160a01b039091168152602090f35b346100a05760203660031901126100a057600080546001600160a01b0390811682526001602081815260408420805460ff1916909217909155915416825290f35b346100a05760203660031901126100a0576001600160a01b036101b06101c6565b1660018060a01b03196000541617600055600080f35b600435906001600160a01b03821682036100a057565b602435906001600160a01b03821682036100a05756fea2646970667358221220c87cfe1b8db2897e5bff0462efd68c05e82de37922d95d320cdf1dd4f4c61ccc64736f6c634300081c0033",
  "linkReferences": {},
  "deployedLinkReferences": {}
}