{
  "_format": "hh-sol-artifact-1",
  "contractName": "MockTransactions",
  "sourceName": "contracts/test-helpers/MockTransactions.sol",
  "abi": [
    {
      "inputs": [
        {
          "internalType": "uint256",
          "name": "_epoch",
          "type": "uint256"
        }
      ],
      "name": "getNumOfUnfinishedTransactions",
      "outputs": [
        {
          "internalType": "uint256",
          "name": "",
          "type": "uint256"
        }
      ],
      "stateMutability": "view",
      "type": "function"
    },
    {
      "inputs": [
        {
          "internalType": "uint256",
          "name": "_epoch",
          "type": "uint256"
        }
      ],
      "name": "getUnfinishedTransactions",
      "outputs": [
        {
          "internalType": "bytes32[]",
          "name": "",
          "type": "bytes32[]"
        }
      ],
      "stateMutability": "pure",
      "type": "function"
    },
    {
      "inputs": [
        {
          "internalType": "uint256",
          "name": "_num",
          "type": "uint256"
        }
      ],
      "name": "setNumOfUnfinishedTransactions",
      "outputs": [],
      "stateMutability": "nonpayable",
      "type": "function"
    }
  ],
  "bytecode": "0x608080604052346015576101c0908161001b8239f35b600080fdfe608080604052600436101561001357600080fd5b60003560e01c908163265b2b561461016257508063685876be146100d15763fc2e25051461004057600080fd5b346100cc5760203660031901126100cc57600060208190526004357fad3228b676f7d3cd4284a5443f17f1962b36e491b30a40b2405849e597ba5fb58190557fada5013122d395ba3c54772283fb069b10426056ef8ca54750cb9bb552a59e7d81905560029091527fabbb5caa7dda850e60932de0934eb1f9d0f59695050f761dc64e443e5030a56955005b600080fd5b346100cc5760203660031901126100cc5760206040518181019080821067ffffffffffffffff83111761014c579080604052600082526000368137604051928392818401908285525180915260408401929160005b82811061013557505050500390f35b835185528695509381019392810192600101610126565b634e487b7160e01b600052604160045260246000fd5b346100cc5760203660031901126100cc57602090600435600052600082526040600020548152f3fea264697066735822122038b150936ab4ff7bb9b807b6fa5cca7cbb9f9d10d379ca80fe0d78b50281eb3e64736f6c634300081c0033",
  "linkReferences": {},
  "deployedLinkReferences": {}
}