{
  "_format": "hh-sol-artifact-1",
  "contractName": "MockIdleness",
  "sourceName": "contracts/test-helpers/MockIdleness.sol",
  "abi": [
    {
      "inputs": [
        {
          "internalType": "address",
          "name": "_staking",
          "type": "address"
        },
        {
          "internalType": "address",
          "name": "_slashing",
          "type": "address"
        }
      ],
      "stateMutability": "nonpayable",
      "type": "constructor"
    },
    {
      "inputs": [
        {
          "internalType": "address",
          "name": "_validator",
          "type": "address"
        },
        {
          "internalType": "uint256",
          "name": "_schedule",
          "type": "uint256"
        },
        {
          "internalType": "uint256",
          "name": "_epoch",
          "type": "uint256"
        }
      ],
      "name": "slash",
      "outputs": [],
      "stateMutability": "nonpayable",
      "type": "function"
    }
  ],
  "bytecode": "0x608034608657601f61027b38819003918201601f19168301916001600160401b03831184841017608b578084926040948552833981010312608657604b602060458360a1565b920160a1565b600080546001600160a01b039384166001600160a01b031991821617909155600180549290931691161790556040516101c690816100b58239f35b600080fd5b634e487b7160e01b600052604160045260246000fd5b51906001600160a01b038216820360865756fe608080604052600436101561001357600080fd5b6000803560e01c6370f81f6c1461002957600080fd5b34610109576060366003190112610109576004356001600160a01b0381169081900361015457815460443591906001600160a01b03166002830180841161014057813b1561013c57606486868094829463385fb69d60e01b845287600485015288602485015260448401525af180156101315761011c575b60015492935083926001600160a01b031691823b1561011757608484928360405195869485936312522f7360e11b85526004850152602435602485015260448401526064808401525af1801561010c576100f85750f35b8161010291610158565b6101095780f35b80fd5b6040513d84823e3d90fd5b505050fd5b9190928161012991610158565b9082906100a1565b6040513d85823e3d90fd5b8480fd5b634e487b7160e01b85526011600452602485fd5b5080fd5b90601f8019910116810190811067ffffffffffffffff82111761017a57604052565b634e487b7160e01b600052604160045260246000fdfea2646970667358221220ec7c6f803c53a0eb0a300a0e2935423b46b8302321ddf7cc25c26339975d151f64736f6c634300081c0033",
  "linkReferences": {},
  "deployedLinkReferences": {}
}