{
  "_format": "hh-sol-artifact-1",
  "contractName": "ConsensusMain",
  "sourceName": "contracts/ConsensusMain.sol",
  "abi": [
    {
      "inputs": [],
      "stateMutability": "nonpayable",
      "type": "constructor"
    },
    {
      "inputs": [],
      "name": "CallerNotMessages",
      "type": "error"
    },
    {
      "inputs": [],
      "name": "InvalidDeploymentWithSalt",
      "type": "error"
    },
    {
      "inputs": [],
      "name": "InvalidGhostContract",
      "type": "error"
    },
    {
      "inputs": [],
      "name": "InvalidInitialization",
      "type": "error"
    },
    {
      "inputs": [],
      "name": "InvalidRevealLeaderData",
      "type": "error"
    },
    {
      "inputs": [],
      "name": "InvalidVote",
      "type": "error"
    },
    {
      "inputs": [],
      "name": "NotInitializing",
      "type": "error"
    },
    {
      "inputs": [
        {
          "internalType": "address",
          "name": "owner",
          "type": "address"
        }
      ],
      "name": "OwnableInvalidOwner",
      "type": "error"
    },
    {
      "inputs": [
        {
          "internalType": "address",
          "name": "account",
          "type": "address"
        }
      ],
      "name": "OwnableUnauthorizedAccount",
      "type": "error"
    },
    {
      "inputs": [],
      "name": "ReentrancyGuardReentrantCall",
      "type": "error"
    },
    {
      "inputs": [],
      "name": "TransactionNotFinalized",
      "type": "error"
    },
    {
      "anonymous": false,
      "inputs": [
        {
          "indexed": true,
          "internalType": "bytes32",
          "name": "txId",
          "type": "bytes32"
        },
        {
          "indexed": true,
          "internalType": "address",
          "name": "oldActivator",
          "type": "address"
        },
        {
          "indexed": true,
          "internalType": "address",
          "name": "newActivator",
          "type": "address"
        }
      ],
      "name": "ActivatorReplaced",
      "type": "event"
    },
    {
      "anonymous": false,
      "inputs": [
        {
          "indexed": true,
          "internalType": "address",
          "name": "addressManager",
          "type": "address"
        }
      ],
      "name": "AddressManagerSet",
      "type": "event"
    },
    {
      "anonymous": false,
      "inputs": [
        {
          "indexed": true,
          "internalType": "bytes32",
          "name": "txId",
          "type": "bytes32"
        },
        {
          "indexed": false,
          "internalType": "enum ITransactions.TransactionStatus",
          "name": "newStatus",
          "type": "uint8"
        }
      ],
      "name": "AllVotesCommitted",
      "type": "event"
    },
    {
      "anonymous": false,
      "inputs": [
        {
          "indexed": true,
          "internalType": "bytes32",
          "name": "txId",
          "type": "bytes32"
        },
        {
          "indexed": true,
          "internalType": "address",
          "name": "appellant",
          "type": "address"
        },
        {
          "indexed": false,
          "internalType": "uint256",
          "name": "bond",
          "type": "uint256"
        },
        {
          "indexed": false,
          "internalType": "address[]",
          "name": "validators",
          "type": "address[]"
        }
      ],
      "name": "AppealStarted",
      "type": "event"
    },
    {
      "anonymous": false,
      "inputs": [
        {
          "indexed": false,
          "internalType": "uint256",
          "name": "attempted",
          "type": "uint256"
        },
        {
          "indexed": false,
          "internalType": "uint256",
          "name": "succeeded",
          "type": "uint256"
        },
        {
          "indexed": false,
          "internalType": "uint256",
          "name": "failed",
          "type": "uint256"
        }
      ],
      "name": "BatchFinalizationCompleted",
      "type": "event"
    },
    {
      "anonymous": false,
      "inputs": [
        {
          "indexed": true,
          "internalType": "bytes32",
          "name": "txId",
          "type": "bytes32"
        },
        {
          "indexed": false,
          "internalType": "uint256",
          "name": "txSlot",
          "type": "uint256"
        }
      ],
      "name": "CreatedTransaction",
      "type": "event"
    },
    {
      "anonymous": false,
      "inputs": [
        {
          "indexed": false,
          "internalType": "uint64",
          "name": "version",
          "type": "uint64"
        }
      ],
      "name": "Initialized",
      "type": "event"
    },
    {
      "anonymous": false,
      "inputs": [
        {
          "indexed": true,
          "internalType": "bytes32",
          "name": "txId",
          "type": "bytes32"
        },
        {
          "indexed": true,
          "internalType": "address",
          "name": "recipient",
          "type": "address"
        },
        {
          "indexed": true,
          "internalType": "address",
          "name": "activator",
          "type": "address"
        }
      ],
      "name": "InternalMessageProcessed",
      "type": "event"
    },
    {
      "anonymous": false,
      "inputs": [
        {
          "indexed": true,
          "internalType": "bytes32",
          "name": "txId",
          "type": "bytes32"
        },
        {
          "indexed": true,
          "internalType": "address",
          "name": "oldLeader",
          "type": "address"
        },
        {
          "indexed": true,
          "internalType": "address",
          "name": "newLeader",
          "type": "address"
        }
      ],
      "name": "LeaderIdlenessProcessed",
      "type": "event"
    },
    {
      "anonymous": false,
      "inputs": [
        {
          "indexed": true,
          "internalType": "bytes32",
          "name": "txId",
          "type": "bytes32"
        },
        {
          "indexed": true,
          "internalType": "address",
          "name": "recipient",
          "type": "address"
        },
        {
          "indexed": true,
          "internalType": "address",
          "name": "activator",
          "type": "address"
        }
      ],
      "name": "NewTransaction",
      "type": "event"
    },
    {
      "anonymous": false,
      "inputs": [
        {
          "indexed": true,
          "internalType": "address",
          "name": "previousOwner",
          "type": "address"
        },
        {
          "indexed": true,
          "internalType": "address",
          "name": "newOwner",
          "type": "address"
        }
      ],
      "name": "OwnershipTransferStarted",
      "type": "event"
    },
    {
      "anonymous": false,
      "inputs": [
        {
          "indexed": true,
          "internalType": "address",
          "name": "previousOwner",
          "type": "address"
        },
        {
          "indexed": true,
          "internalType": "address",
          "name": "newOwner",
          "type": "address"
        }
      ],
      "name": "OwnershipTransferred",
      "type": "event"
    },
    {
      "anonymous": false,
      "inputs": [
        {
          "indexed": true,
          "internalType": "bytes32",
          "name": "txId",
          "type": "bytes32"
        }
      ],
      "name": "ProcessIdlenessAccepted",
      "type": "event"
    },
    {
      "anonymous": false,
      "inputs": [
        {
          "indexed": true,
          "internalType": "bytes32",
          "name": "txId",
          "type": "bytes32"
        }
      ],
      "name": "TransactionAccepted",
      "type": "event"
    },
    {
      "anonymous": false,
      "inputs": [
        {
          "indexed": true,
          "internalType": "bytes32",
          "name": "txId",
          "type": "bytes32"
        },
        {
          "indexed": true,
          "internalType": "address",
          "name": "leader",
          "type": "address"
        }
      ],
      "name": "TransactionActivated",
      "type": "event"
    },
    {
      "anonymous": false,
      "inputs": [
        {
          "indexed": true,
          "internalType": "bytes32",
          "name": "txId",
          "type": "bytes32"
        },
        {
          "indexed": true,
          "internalType": "address",
          "name": "cancelledBy",
          "type": "address"
        }
      ],
      "name": "TransactionCancelled",
      "type": "event"
    },
    {
      "anonymous": false,
      "inputs": [
        {
          "indexed": true,
          "internalType": "bytes32",
          "name": "txId",
          "type": "bytes32"
        }
      ],
      "name": "TransactionFinalizationFailed",
      "type": "event"
    },
    {
      "anonymous": false,
      "inputs": [
        {
          "indexed": true,
          "internalType": "bytes32",
          "name": "txId",
          "type": "bytes32"
        }
      ],
      "name": "TransactionFinalized",
      "type": "event"
    },
    {
      "anonymous": false,
      "inputs": [
        {
          "indexed": true,
          "internalType": "bytes32",
          "name": "txId",
          "type": "bytes32"
        }
      ],
      "name": "TransactionLeaderRevealed",
      "type": "event"
    },
    {
      "anonymous": false,
      "inputs": [
        {
          "indexed": true,
          "internalType": "bytes32",
          "name": "txId",
          "type": "bytes32"
        },
        {
          "indexed": true,
          "internalType": "address",
          "name": "newLeader",
          "type": "address"
        }
      ],
      "name": "TransactionLeaderRotated",
      "type": "event"
    },
    {
      "anonymous": false,
      "inputs": [
        {
          "indexed": true,
          "internalType": "bytes32",
          "name": "txId",
          "type": "bytes32"
        }
      ],
      "name": "TransactionLeaderTimeout",
      "type": "event"
    },
    {
      "anonymous": false,
      "inputs": [
        {
          "indexed": false,
          "internalType": "bytes32[]",
          "name": "txIds",
          "type": "bytes32[]"
        }
      ],
      "name": "TransactionNeedsRecomputation",
      "type": "event"
    },
    {
      "anonymous": false,
      "inputs": [
        {
          "indexed": true,
          "internalType": "bytes32",
          "name": "txId",
          "type": "bytes32"
        },
        {
          "indexed": false,
          "internalType": "address[]",
          "name": "validators",
          "type": "address[]"
        }
      ],
      "name": "TransactionReceiptProposed",
      "type": "event"
    },
    {
      "anonymous": false,
      "inputs": [
        {
          "indexed": true,
          "internalType": "bytes32",
          "name": "txId",
          "type": "bytes32"
        }
      ],
      "name": "TransactionUndetermined",
      "type": "event"
    },
    {
      "anonymous": false,
      "inputs": [
        {
          "indexed": true,
          "internalType": "bytes32",
          "name": "txId",
          "type": "bytes32"
        },
        {
          "indexed": false,
          "internalType": "uint256",
          "name": "tribunalIndex",
          "type": "uint256"
        },
        {
          "indexed": true,
          "internalType": "address",
          "name": "validator",
          "type": "address"
        }
      ],
      "name": "TribunalAppealVoteCommitted",
      "type": "event"
    },
    {
      "anonymous": false,
      "inputs": [
        {
          "indexed": true,
          "internalType": "bytes32",
          "name": "txId",
          "type": "bytes32"
        },
        {
          "indexed": false,
          "internalType": "uint256",
          "name": "tribunalIndex",
          "type": "uint256"
        },
        {
          "indexed": true,
          "internalType": "address",
          "name": "validator",
          "type": "address"
        },
        {
          "indexed": false,
          "internalType": "enum ITransactions.VoteType",
          "name": "voteType",
          "type": "uint8"
        }
      ],
      "name": "TribunalAppealVoteRevealed",
      "type": "event"
    },
    {
      "anonymous": false,
      "inputs": [
        {
          "indexed": true,
          "internalType": "bytes32",
          "name": "txId",
          "type": "bytes32"
        },
        {
          "indexed": false,
          "internalType": "uint256",
          "name": "totalUnissuedValue",
          "type": "uint256"
        },
        {
          "indexed": false,
          "internalType": "uint256",
          "name": "unissuedCount",
          "type": "uint256"
        }
      ],
      "name": "UnissuedMessagesAtFinalization",
      "type": "event"
    },
    {
      "anonymous": false,
      "inputs": [
        {
          "indexed": true,
          "internalType": "bytes32",
          "name": "txId",
          "type": "bytes32"
        },
        {
          "indexed": true,
          "internalType": "address",
          "name": "oldValidator",
          "type": "address"
        },
        {
          "indexed": true,
          "internalType": "address",
          "name": "newValidator",
          "type": "address"
        },
        {
          "indexed": false,
          "internalType": "uint256",
          "name": "validatorIndex",
          "type": "uint256"
        }
      ],
      "name": "ValidatorReplaced",
      "type": "event"
    },
    {
      "anonymous": false,
      "inputs": [
        {
          "indexed": true,
          "internalType": "bytes32",
          "name": "txId",
          "type": "bytes32"
        },
        {
          "indexed": true,
          "internalType": "address",
          "name": "recipient",
          "type": "address"
        },
        {
          "indexed": false,
          "internalType": "uint256",
          "name": "value",
          "type": "uint256"
        }
      ],
      "name": "ValueWithdrawalFailed",
      "type": "event"
    },
    {
      "anonymous": false,
      "inputs": [
        {
          "indexed": true,
          "internalType": "bytes32",
          "name": "txId",
          "type": "bytes32"
        },
        {
          "indexed": true,
          "internalType": "address",
          "name": "validator",
          "type": "address"
        },
        {
          "indexed": false,
          "internalType": "bool",
          "name": "isLastVote",
          "type": "bool"
        }
      ],
      "name": "VoteCommitted",
      "type": "event"
    },
    {
      "anonymous": false,
      "inputs": [
        {
          "indexed": true,
          "internalType": "bytes32",
          "name": "txId",
          "type": "bytes32"
        },
        {
          "indexed": true,
          "internalType": "address",
          "name": "validator",
          "type": "address"
        },
        {
          "indexed": false,
          "internalType": "enum ITransactions.VoteType",
          "name": "voteType",
          "type": "uint8"
        },
        {
          "indexed": false,
          "internalType": "bool",
          "name": "isLastVote",
          "type": "bool"
        },
        {
          "indexed": false,
          "internalType": "enum ITransactions.ResultType",
          "name": "result",
          "type": "uint8"
        }
      ],
      "name": "VoteRevealed",
      "type": "event"
    },
    {
      "inputs": [],
      "name": "EVENTS_BATCH_SIZE",
      "outputs": [
        {
          "internalType": "uint256",
          "name": "",
          "type": "uint256"
        }
      ],
      "stateMutability": "view",
      "type": "function"
    },
    {
      "inputs": [],
      "name": "VERSION",
      "outputs": [
        {
          "internalType": "string",
          "name": "",
          "type": "string"
        }
      ],
      "stateMutability": "view",
      "type": "function"
    },
    {
      "inputs": [],
      "name": "acceptOwnership",
      "outputs": [],
      "stateMutability": "nonpayable",
      "type": "function"
    },
    {
      "inputs": [
        {
          "internalType": "bytes32",
          "name": "_txId",
          "type": "bytes32"
        },
        {
          "internalType": "address",
          "name": "_operator",
          "type": "address"
        },
        {
          "internalType": "bytes",
          "name": "_vrfProof",
          "type": "bytes"
        }
      ],
      "name": "activateTransaction",
      "outputs": [],
      "stateMutability": "nonpayable",
      "type": "function"
    },
    {
      "inputs": [
        {
          "internalType": "address",
          "name": "_sender",
          "type": "address"
        },
        {
          "internalType": "address",
          "name": "_recipient",
          "type": "address"
        },
        {
          "internalType": "uint256",
          "name": "_numOfInitialValidators",
          "type": "uint256"
        },
        {
          "internalType": "uint256",
          "name": "_maxRotations",
          "type": "uint256"
        },
        {
          "internalType": "bytes",
          "name": "_calldata",
          "type": "bytes"
        },
        {
          "internalType": "uint256",
          "name": "_validUntil",
          "type": "uint256"
        }
      ],
      "name": "addTransaction",
      "outputs": [],
      "stateMutability": "payable",
      "type": "function"
    },
    {
      "inputs": [],
      "name": "addressManager",
      "outputs": [
        {
          "internalType": "contract IAddressManager",
          "name": "",
          "type": "address"
        }
      ],
      "stateMutability": "view",
      "type": "function"
    },
    {
      "inputs": [
        {
          "internalType": "bytes32",
          "name": "_txId",
          "type": "bytes32"
        }
      ],
      "name": "cancelTransaction",
      "outputs": [],
      "stateMutability": "nonpayable",
      "type": "function"
    },
    {
      "inputs": [
        {
          "internalType": "bytes32",
          "name": "_txId",
          "type": "bytes32"
        },
        {
          "internalType": "uint256",
          "name": "_tribunalIndex",
          "type": "uint256"
        },
        {
          "internalType": "bytes32",
          "name": "_commitHash",
          "type": "bytes32"
        }
      ],
      "name": "commitTribunalAppealVote",
      "outputs": [],
      "stateMutability": "nonpayable",
      "type": "function"
    },
    {
      "inputs": [
        {
          "internalType": "bytes32",
          "name": "_txId",
          "type": "bytes32"
        },
        {
          "internalType": "bytes32",
          "name": "_commitHash",
          "type": "bytes32"
        },
        {
          "internalType": "uint256",
          "name": "_validatorIndex",
          "type": "uint256"
        }
      ],
      "name": "commitVote",
      "outputs": [],
      "stateMutability": "nonpayable",
      "type": "function"
    },
    {
      "inputs": [
        {
          "internalType": "address",
          "name": "_sender",
          "type": "address"
        },
        {
          "internalType": "uint256",
          "name": "_numOfInitialValidators",
          "type": "uint256"
        },
        {
          "internalType": "uint256",
          "name": "_maxRotations",
          "type": "uint256"
        },
        {
          "internalType": "bytes",
          "name": "_calldata",
          "type": "bytes"
        },
        {
          "internalType": "uint256",
          "name": "_saltNonce",
          "type": "uint256"
        },
        {
          "internalType": "uint256",
          "name": "_validUntil",
          "type": "uint256"
        }
      ],
      "name": "deploySalted",
      "outputs": [],
      "stateMutability": "payable",
      "type": "function"
    },
    {
      "inputs": [
        {
          "internalType": "address",
          "name": "_recipient",
          "type": "address"
        },
        {
          "internalType": "uint256",
          "name": "_value",
          "type": "uint256"
        },
        {
          "internalType": "bytes",
          "name": "_data",
          "type": "bytes"
        }
      ],
      "name": "executeMessage",
      "outputs": [
        {
          "internalType": "bool",
          "name": "success",
          "type": "bool"
        }
      ],
      "stateMutability": "nonpayable",
      "type": "function"
    },
    {
      "inputs": [
        {
          "internalType": "bytes32[]",
          "name": "_txIds",
          "type": "bytes32[]"
        }
      ],
      "name": "finalizeIdlenessTxs",
      "outputs": [],
      "stateMutability": "nonpayable",
      "type": "function"
    },
    {
      "inputs": [
        {
          "internalType": "bytes32",
          "name": "_txId",
          "type": "bytes32"
        }
      ],
      "name": "finalizeTransaction",
      "outputs": [],
      "stateMutability": "nonpayable",
      "type": "function"
    },
    {
      "inputs": [
        {
          "internalType": "bytes32",
          "name": "_txId",
          "type": "bytes32"
        }
      ],
      "name": "flushExternalMessages",
      "outputs": [],
      "stateMutability": "nonpayable",
      "type": "function"
    },
    {
      "inputs": [],
      "name": "getAddressManager",
      "outputs": [
        {
          "internalType": "contract IAddressManager",
          "name": "",
          "type": "address"
        }
      ],
      "stateMutability": "view",
      "type": "function"
    },
    {
      "inputs": [
        {
          "internalType": "bytes32",
          "name": "txId",
          "type": "bytes32"
        }
      ],
      "name": "getPendingTransactionValue",
      "outputs": [
        {
          "internalType": "uint256",
          "name": "",
          "type": "uint256"
        }
      ],
      "stateMutability": "view",
      "type": "function"
    },
    {
      "inputs": [
        {
          "internalType": "address",
          "name": "_addressManager",
          "type": "address"
        }
      ],
      "name": "initialize",
      "outputs": [],
      "stateMutability": "nonpayable",
      "type": "function"
    },
    {
      "inputs": [
        {
          "internalType": "address",
          "name": "addr",
          "type": "address"
        }
      ],
      "name": "isGhostContract",
      "outputs": [
        {
          "internalType": "bool",
          "name": "",
          "type": "bool"
        }
      ],
      "stateMutability": "view",
      "type": "function"
    },
    {
      "inputs": [
        {
          "internalType": "bytes32",
          "name": "_txId",
          "type": "bytes32"
        }
      ],
      "name": "leaderIdleness",
      "outputs": [],
      "stateMutability": "nonpayable",
      "type": "function"
    },
    {
      "inputs": [
        {
          "components": [
            {
              "internalType": "bytes32",
              "name": "txId",
              "type": "bytes32"
            },
            {
              "internalType": "uint256",
              "name": "saltAsAValidator",
              "type": "uint256"
            },
            {
              "internalType": "bytes32",
              "name": "txExecutionHash",
              "type": "bytes32"
            },
            {
              "internalType": "bytes32",
              "name": "messagesAndOtherFieldsHash",
              "type": "bytes32"
            },
            {
              "internalType": "bytes32",
              "name": "otherExecutionFieldsHash",
              "type": "bytes32"
            },
            {
              "internalType": "enum ITransactions.VoteType",
              "name": "resultValue",
              "type": "uint8"
            },
            {
              "components": [
                {
                  "internalType": "enum IMessages.MessageType",
                  "name": "messageType",
                  "type": "uint8"
                },
                {
                  "internalType": "address",
                  "name": "recipient",
                  "type": "address"
                },
                {
                  "internalType": "uint256",
                  "name": "value",
                  "type": "uint256"
                },
                {
                  "internalType": "bytes",
                  "name": "data",
                  "type": "bytes"
                },
                {
                  "internalType": "bool",
                  "name": "onAcceptance",
                  "type": "bool"
                },
                {
                  "internalType": "uint256",
                  "name": "saltNonce",
                  "type": "uint256"
                }
              ],
              "internalType": "struct IMessages.SubmittedMessage[]",
              "name": "messages",
              "type": "tuple[]"
            }
          ],
          "internalType": "struct IConsensusMain.LeaderRevealVoteParams",
          "name": "leaderRevealVoteParams",
          "type": "tuple"
        }
      ],
      "name": "leaderRevealVote",
      "outputs": [],
      "stateMutability": "nonpayable",
      "type": "function"
    },
    {
      "inputs": [],
      "name": "owner",
      "outputs": [
        {
          "internalType": "address",
          "name": "",
          "type": "address"
        }
      ],
      "stateMutability": "view",
      "type": "function"
    },
    {
      "inputs": [],
      "name": "pendingOwner",
      "outputs": [
        {
          "internalType": "address",
          "name": "",
          "type": "address"
        }
      ],
      "stateMutability": "view",
      "type": "function"
    },
    {
      "inputs": [
        {
          "internalType": "bytes32",
          "name": "_txId",
          "type": "bytes32"
        }
      ],
      "name": "processIdleness",
      "outputs": [],
      "stateMutability": "nonpayable",
      "type": "function"
    },
    {
      "inputs": [
        {
          "internalType": "bytes32",
          "name": "_txId",
          "type": "bytes32"
        },
        {
          "internalType": "bytes32",
          "name": "_txExecutionHash",
          "type": "bytes32"
        },
        {
          "internalType": "uint256",
          "name": "_processingBlock",
          "type": "uint256"
        },
        {
          "internalType": "address",
          "name": "_operator",
          "type": "address"
        },
        {
          "internalType": "bytes",
          "name": "_eqBlocksOutputs",
          "type": "bytes"
        },
        {
          "internalType": "bytes",
          "name": "_vrfProof",
          "type": "bytes"
        }
      ],
      "name": "proposeReceipt",
      "outputs": [],
      "stateMutability": "nonpayable",
      "type": "function"
    },
    {
      "inputs": [
        {
          "internalType": "bytes32[]",
          "name": "_txIds",
          "type": "bytes32[]"
        }
      ],
      "name": "redButtonFinalize",
      "outputs": [],
      "stateMutability": "nonpayable",
      "type": "function"
    },
    {
      "inputs": [
        {
          "internalType": "address",
          "name": "ghost",
          "type": "address"
        }
      ],
      "name": "registerGhostContract",
      "outputs": [],
      "stateMutability": "nonpayable",
      "type": "function"
    },
    {
      "inputs": [],
      "name": "renounceOwnership",
      "outputs": [],
      "stateMutability": "nonpayable",
      "type": "function"
    },
    {
      "inputs": [
        {
          "internalType": "bytes32",
          "name": "_txId",
          "type": "bytes32"
        },
        {
          "internalType": "uint256",
          "name": "_tribunalIndex",
          "type": "uint256"
        },
        {
          "internalType": "bytes32",
          "name": "_voteHash",
          "type": "bytes32"
        },
        {
          "internalType": "enum ITransactions.VoteType",
          "name": "_voteType",
          "type": "uint8"
        },
        {
          "internalType": "bytes32",
          "name": "_otherExecutionFieldsHash",
          "type": "bytes32"
        },
        {
          "internalType": "uint256",
          "name": "_nonce",
          "type": "uint256"
        }
      ],
      "name": "revealTribunalAppealVote",
      "outputs": [],
      "stateMutability": "nonpayable",
      "type": "function"
    },
    {
      "inputs": [
        {
          "internalType": "bytes32",
          "name": "_txId",
          "type": "bytes32"
        },
        {
          "internalType": "bytes32",
          "name": "_voteHash",
          "type": "bytes32"
        },
        {
          "internalType": "enum ITransactions.VoteType",
          "name": "_voteType",
          "type": "uint8"
        },
        {
          "internalType": "bytes32",
          "name": "_otherExecutionFieldsHash",
          "type": "bytes32"
        },
        {
          "internalType": "uint256",
          "name": "_nonce",
          "type": "uint256"
        },
        {
          "internalType": "uint256",
          "name": "_validatorIndex",
          "type": "uint256"
        }
      ],
      "name": "revealVote",
      "outputs": [],
      "stateMutability": "nonpayable",
      "type": "function"
    },
    {
      "inputs": [
        {
          "internalType": "address",
          "name": "_addressManager",
          "type": "address"
        }
      ],
      "name": "setAddressManager",
      "outputs": [],
      "stateMutability": "nonpayable",
      "type": "function"
    },
    {
      "inputs": [
        {
          "internalType": "bytes32",
          "name": "_txId",
          "type": "bytes32"
        }
      ],
      "name": "submitAppeal",
      "outputs": [],
      "stateMutability": "payable",
      "type": "function"
    },
    {
      "inputs": [
        {
          "internalType": "address",
          "name": "newOwner",
          "type": "address"
        }
      ],
      "name": "transferOwnership",
      "outputs": [],
      "stateMutability": "nonpayable",
      "type": "function"
    },
    {
      "stateMutability": "payable",
      "type": "receive"
    }
  ],
  "bytecode": "0x6080806040523460d2577ff0c57e16840df040f15088dc2f81fe391c3923bec73e23a9662efc9c229c6a005460ff8160401c1660c1576002600160401b03196001600160401b03821601605c575b604051615eb290816100d88239f35b6001600160401b0319166001600160401b039081177ff0c57e16840df040f15088dc2f81fe391c3923bec73e23a9662efc9c229c6a005581527fc7f505b2f371ae2175ee4913f4499e1f2633a7b5936321eed1cdaeb6115181d290602090a13880604d565b63f92ee8a960e01b60005260046000fd5b600080fdfe608080604052600436101561001d575b50361561001b57600080fd5b005b600090813560e01c90816303d1491714611e6c575080630652b57a14611e06578063103abeac14611dea57806316c0e8de14611c915780632af7cb7f14611c185780633ab76e9f14611bb05780633bd15f7014611bd75780635492f30214611bb05780635c970d2814611a6857806367f7c83a146119d75780636a9c499d1461157f57806370ba3339146113cf578063715018a61461134e57806379ba50971461130057806385d2d274146112dd5780638b5de1bc146110105780638da5cb5b14610fda5780639e0c615f14610f2c578063a560cd0c14610ee3578063aa923c0214610e2b578063b2efda8314610bf9578063c4d66de814610a4a578063c7e6e76614610a0e578063cbc2440a14610923578063cf0a6384146108af578063d4f6aa93146107f7578063e30c3978146107c1578063e71d51961461053b578063f2fde38b146104b3578063f5435a1b1461042d578063f5acca71146101d55763ffa1ad740361000f57346101d257806003193601126101d257506101ce6040516101a8604082612583565b60058152640322e302e360dc1b6020820152604051918291602083526020830190612725565b0390f35b80fd5b50346101d2576101e436612684565b6101ec614048565b6101f4614e80565b6101fc614bcd565b8251928492909183918291906001600160a01b0316825b85518710156103e05761022f6102298888612e19565b51615795565b505061023b8787612e19565b5160405190610249826124fb565b8152604051634377ca4160e11b8152905160048201526101408160248188875af18591816103af575b506102bb57506102b26001916102888989612e19565b517fd157a8824e3093207095e0855163da28b596e2c5f19ba73ea473c2346e05b15b8780a2614039565b965b0195610213565b9096946102c88688612e19565b5160405163255709e560e11b815260048101919091529085826024816001600160a01b0389165afa80156103a4578361032161036d926001968b8d610372988d8095610378575b50509061031b91612e19565b51614ee9565b61032b898b612e19565b517f24196ec40f90671b7144e716978686b4f3c7d6b00b23da3971ef2b52af27d87f8980a26020858060a01b0391015116610366898b612e19565b51906148f4565b614039565b946102b4565b61031b939295509061039b913d8091833e6103938183612583565b810190613460565b9390918d61030f565b6040513d88823e3d90fd5b6103d29192506101403d81116103d9575b6103ca8183612583565b810190613f7c565b9038610272565b503d6103c0565b7f3d139c84ad9350b1f396f3d75cb0770c4f495459f8ef8755e5335a12632bac3d60608986938860405192835260208301526040820152a16001600080516020615ddd8339815191525580f35b50346101d2578061043d36612684565b610445614125565b6001600160a01b03610455614b03565b16803b156104af5760405163f5435a1b60e01b815291839183918290849082906104829060048301612e43565b03925af180156104a4576104935750f35b8161049d91612583565b6101d25780f35b6040513d84823e3d90fd5b5050fd5b50346101d25760203660031901126101d2576104cd6125bb565b6104d5614125565b600080516020615e1d83398151915280546001600160a01b0319166001600160a01b03928316908117909155600080516020615d1d833981519152549091167f38d16b8cac22d99fc7c124b9cd0de2d3fa1faef420bfe791d8c362d765e227008380a380f35b5060c03660031901126101d2576105506125bb565b6105586125d1565b608435906001600160401b0382116107bd5761057a60a0923690600401612639565b92610583614048565b6000196001841b0181169081156107b557915b600180851b036105a4614b68565b1691604051906105b382612531565b81526020810191600180871b031682526040810193600180871b031684526060810195338752608082016044358152868301606435815260c0840192835261068560e08501938b855261010086019260a43584526101208701943486526040519c8d9b8c9a8b9a636dada77360e11b8c52602060048d01528f600180911b0390511660248c015260018f81901b0390511660448b01526001808f1b0390511660648a01526001808e1b0390511660848901525160a48801525160c48701525161014060e4870152610164860190612725565b92516101048501525161012484015251610144830152039134905af19081156104a4578291610733575b506080810151156106fe578051606082015160408301516001600160a01b0390811692911690600080516020615dbd8339815191528580a45b506001600080516020615ddd8339815191525580f35b80517f8620e7f03a280a3d2aa84bd41ba19524c2d7f1dbfa9d79cb81877b0f8c963f9b602080840151604051908152a26106e8565b905060a0813d60a0116107ad575b8161074e60a09383612583565b810103126107a95761079e60806040519261076884612568565b805184526020810151602085015261078260408201612820565b604085015261079360608201612820565b606085015201612813565b6080820152386106af565b5080fd5b3d9150610741565b503391610596565b8380fd5b50346101d257806003193601126101d257600080516020615e1d833981519152546040516001600160a01b039091168152602090f35b50346101d25760603660031901126101d257602435600435826001600160a01b03610820615c2e565b16803b156107a9578180916084604051809481936311bdd61b60e11b835288600484015289602484015260443560448401523360648401525af180156104a457610896575b50506040519182527f6514dec7e5f5d7d0dcb8a6167531988b5ac3c442dffd89335942f1fbfa71dc5760203393a380f35b816108a091612583565b6108ab578238610865565b8280fd5b50346101d25760203660031901126101d257806108ca6125bb565b6108d2614125565b6001600160a01b036108e2614b68565b1690813b156104af576040516333c298e160e21b81526001600160a01b0390911660048201529082908290602490829084905af180156104a4576104935750f35b50346101d25760c03660031901126101d25760243560043560643560058110156107bd57836001600160a01b03610958615c2e565b16803b156107a95781809160e46040518094819363db67487b60e01b83528960048401528a60248401526044356044840152610997606484018a6128f6565b608435608484015260a43560a48401523360c48401525af180156104a4576109f9575b50506109d09060405193845260208401906128f6565b7fb3a6dcf1e56feb92caee0711bfd92afd8d3676f66a059b62cc0e4ab5dc461bf860403393a380f35b81610a0391612583565b6107bd5783386109ba565b50346101d25760203660031901126101d257610a28614048565b610a33600435615795565b50506001600080516020615ddd8339815191525580f35b50346101d25760203660031901126101d257610a646125bb565b600080516020615dfd833981519152549060ff8260401c1615916001600160401b03811680159081610bf1575b6001149081610be7575b159081610bde575b50610bcf5767ffffffffffffffff198116600117600080516020615dfd8339815191525582610ba2575b50610ad6615cae565b610ade615cae565b610ae6615cae565b3315610b8e57610af533614e12565b610afd615cae565b610b05615cae565b6001600080516020615ddd8339815191525582546001600160a01b0319166001600160a01b0391909116178255610b395780f35b60ff60401b19600080516020615dfd8339815191525416600080516020615dfd833981519152557fc7f505b2f371ae2175ee4913f4499e1f2633a7b5936321eed1cdaeb6115181d2602060405160018152a180f35b631e4fbdf760e01b83526004839052602483fd5b68ffffffffffffffffff19166801000000000000000117600080516020615dfd8339815191525538610acd565b63f92ee8a960e01b8452600484fd5b90501538610aa3565b303b159150610a9b565b849150610a91565b50346101d25760203660031901126101d25780600435610c17614048565b6101406001600160a01b03610c2a614e80565b166024604051610c39816124fb565b8481526040519687938492634377ca4160e11b84525160048401525af19283156104a4578293610e0a575b5060c0830151610d2f575b909160249190836001600160a01b03610c86614bcd565b166040519485809263255709e560e11b82528660048301525afa928315610d2457610cf593610cbe918691610d0a575b508284614ee9565b817f24196ec40f90671b7144e716978686b4f3c7d6b00b23da3971ef2b52af27d87f8580a2602001516001600160a01b03166148f4565b6001600080516020615ddd8339815191525580f35b610d1e91503d8088833e6103938183612583565b38610cb6565b6040513d86823e3d90fd5b61012083018051600f811015610de2576005148015610df6575b15610d6f5750819281600080516020615d3d83398151915284602495a25b929150610c6f565b8051600f811015610de257600d03610d9e5750819281600080516020615d9d83398151915284602495a2610d67565b5192600f841015610dce57600683946024945003610d675781600080516020615cdd8339815191528580a2610d67565b634e487b7160e01b83526021600452602483fd5b634e487b7160e01b84526021600452602484fd5b508051600f811015610de257600c14610d49565b610e249193506101403d81116103d9576103ca8183612583565b9138610c64565b50346101d25760203660031901126101d257610e456125bb565b9060206001600160a01b03610e58614b68565b6040516355491e0160e11b81526001600160a01b03909516600486015284916024918391165afa908115610ed7578091610e9a575b6020826040519015158152f35b90506020823d602011610ecf575b81610eb560209383612583565b810103126101d25750610ec9602091612813565b38610e8d565b3d9150610ea8565b604051903d90823e3d90fd5b50346101d25760603660031901126101d257610efd6125d1565b604435906001600160401b0382116108ab57610f20610f29923690600401612657565b91600435613c64565b80f35b50346101d25760603660031901126101d257610f466125bb565b906044356001600160401b0381116107a957610f66903690600401612639565b916001600160a01b03610f77614c37565b1633141580610fb8575b610fa9578282916020809551920190602435905af1610f9e613c34565b506040519015158152f35b630fc7a3f360e31b8252600482fd5b50600080516020615d1d833981519152546001600160a01b0316331415610f81565b50346101d257806003193601126101d257600080516020615d1d833981519152546040516001600160a01b039091168152602090f35b5060203660031901126101d257600435611028614048565b6001600160a01b03611038614bcd565b168260405163255709e560e11b81528360048201528181602481865afa9081156104a45782916112c3575b508154604051631bae711d60e21b8152602060048201819052600760248301526641707065616c7360c81b60448301529091829060649082906001600160a01b03165afa80156112b85783918291611276575b506110e0919260405194858094819363bcf205f560e01b8352604060048401526044830190613a4f565b34602483015203926001600160a01b03165af1908115610d245784809281948293839084936111f1575b50813b156107bd5760648885809461114961113f97604051988997889662e5a95360e71b8852600488015260248701906136b3565b60448501906136b3565b5af180156104a4576111d8575b50501561118f57506001600160a01b031690600080516020615d5d8339815191528380a36001600080516020615ddd8339815191525580f35b9190507f08e6523db104b48b6f1a359653498b9739ec31f6e03abb21e7acf4d73f0a48ff60405134815260406020820152806111d033956040830190613bf7565b0390a3610cf5565b816111e291612583565b6111ed578438611156565b8480fd5b95505094505050503d8085833e6112088183612583565b810160e0828203126111ed578151906001600160401b03821161127257611230918301612891565b908461123e60408301612820565b9261124b60808401612813565b9460a084015193600f8510156107bd5760c0015191600f8310156107bd579495933861110a565b8580fd5b9150506020813d6020116112b0575b8161129260209383612583565b810103126108ab5782916112a86110e092612820565b9092916110b6565b3d9150611285565b6040513d85823e3d90fd5b6112d791503d8084833e6103938183612583565b38611063565b50346101d25760603660031901126101d257610f296044356024356004356136c0565b50346101d257806003193601126101d257600080516020615e1d83398151915254336001600160a01b039091160361133b57610f2933614e12565b63118cdaa760e01b815233600452602490fd5b50346101d257806003193601126101d257611367614125565b600080516020615e1d83398151915280546001600160a01b0319908116909155600080516020615d1d8339815191528054918216905581906001600160a01b03167f8be0079c531659141344cd1fd0a4f28419497f9722a3daafe3b4186f6b6457e08280a380f35b50346101d25760203660031901126101d2576004356113ec614048565b6113f4614b68565b906024836001600160a01b03611408614bcd565b166040519283809263255709e560e11b82528660048301525afa908115610d24578491611565575b5060c0810151604051632838322d60e01b815260048101849052336024820152936001600160a01b039182169291606091869160449183918a91165af193841561155a5785946114f2575b509282610cf594604051903383600080516020615d7d8339815191528a80a360408401511515806114e5575b6114b5575b505050506148f4565b60a0015160209384015182526001600160a01b031692600080516020615cfd83398151915291a3388281806114ac565b50602084015115156114a7565b93506060843d606011611552575b8161150d60609383612583565b810103126111ed5782610cf594611546604080519261152b84612516565b61153481612820565b84526020810151602085015201612813565b6040820152945061147b565b3d9150611500565b6040513d87823e3d90fd5b61157991503d8086833e6103938183612583565b38611430565b50346101d25760203660031901126101d2576004359061159d614048565b60246115a7614bcd565b926115b0614c37565b836115b9614c97565b60405163255709e560e11b81526004810185905290969094859182906001600160a01b03165afa928315610d245784936119bb575b506060830151600f8110156119a757600619016119985760405163404f7db760e01b8152600481018390526001600160a01b03919091169290602081602481875afa90811561155a57859161195e575b5061184d575b839460405163aa14aa7360e01b8152836004820152602081602481885afa9081156103a4578691611813575b506116f6575b5060c001516001600160a01b0316823b156116f1576040516338444e0560e01b815260048101929092526001600160a01b031660248201529082908290604490829084905af180156104a4576116dc57506001600080516020615ddd8339815191525580f35b816116e691612583565b6101d25780386106e8565b505050fd5b60c082015160405163165a3c0560e21b8152600481018590526001600160a01b039182166024820181905260448201889052929091602091839160649183918b91165af19081156103a45786916117d9575b5080611755575b50611676565b813b1561127257604051635b8346e560e11b81528491908780828061177e863060048401614453565b038183895af191826117ba575b50506117b2576020600080516020615cfd83398151915291604051908152a35b388061174f565b5050506117ab565b81929450906117c891612583565b6117d5578491873861178b565b8680fd5b9550506020853d60201161180b575b816117f560209383612583565b810103126118065785945138611748565b600080fd5b3d91506117e8565b90506020813d602011611845575b8161182e60209383612583565b810103126112725761183f90612813565b38611670565b3d9150611821565b60c081015160405163165a3c0560e21b8152600481018490526001600160a01b039182166024820181905260016044830152909691602090889060649082908a9087165af19687156103a457869761192a575b50866118af575b509450611644565b803b1561127257604051635b8346e560e11b81528681806118d48b3060048401614453565b038183865af19081611916575b50869785911560001461190e576020600080516020615cfd83398151915291604051908152a35b386118a7565b505050611908565b9661192381879399612583565b96906118e1565b9096506020813d602011611956575b8161194660209383612583565b81010312611272575195386118a0565b3d9150611939565b90506020813d602011611990575b8161197960209383612583565b810103126111ed5761198a90612813565b3861163e565b3d915061196c565b63e4e81f7960e01b8452600484fd5b634e487b7160e01b85526021600452602485fd5b6119d09193503d8086833e6103938183612583565b91386115ee565b50346101d25760203660031901126101d257602460206001600160a01b036119fd614b68565b16604051928380926333fbe41d60e11b825260043560048301525afa9081156104a4578291611a32575b602082604051908152f35b90506020813d602011611a60575b81611a4d60209383612583565b810103126107a957602091505138611a27565b3d9150611a40565b50346101d25760203660031901126101d25780600435816001600160a01b03611a8f614b03565b166024604051611a9e816124fb565b84815260405195869384926323d783ed60e11b84525160048401525af19182156112b8578392611b8c575b5060608201516001600160a01b03169081151580611b76575b611b27575b5050815b60a08201518051821015611b235781611b0860a093600193612e19565b51600080516020615cdd8339815191528680a2019050611aeb565b8380f35b60808301516001600160a01b0316918290827f1c717affb0f2d0bd7bccd509af90bc762d34bc45ad812ef154a3f5efdae1ca6b8780a4600080516020615e5d8339815191528480a33880611ae7565b5060808301516001600160a01b03161515611ae2565b611ba99192503d8085833e611ba18183612583565b81019061334f565b9038611ac9565b50346101d257806003193601126101d257546040516001600160a01b039091168152602090f35b50346101d25760c03660031901126101d25760443560058110156107a957610cf590611c01614048565b60a435906084359060643590602435600435612e8a565b50346101d25760c03660031901126101d2576064356001600160a01b03811681036107a9576084356001600160401b0381116108ab57611c5c903690600401612657565b9160a435926001600160401b0384116111ed57611c80610f29943690600401612657565b939092604435602435600435612903565b5060c03660031901126101d257611ca66125bb565b6064356001600160401b0381116108ab57611cc5903690600401612639565b9060843590611cd2614048565b8115611ddb5760a091906001600160a01b038116908115611dd357915b600180851b03611cfd614b68565b169160405190611d0c82612531565b815260208082018881526000196001881b01958616604080850191825233606086019081526024803560808801908152604480358d8a0190815260c08a019e8f5260e08a019a8b5260a480356101008c01908152346101208d019081529751636dada77360e11b8152600481019b909b529a518e16948a019490945296518c169088015293518a166064870152905190981660848501529051968301969096525160c4820152955161014060e4880152869485938493909261068590610164860190612725565b503391611cef565b63aceab4a160e01b8452600484fd5b50346101d257806003193601126101d257602060405160648152f35b50346101d25760203660031901126101d257611e206125bb565b611e28614125565b81546001600160a01b0319166001600160a01b039190911690811782557f2e967678ac371453fc8babb3af60134332176ca4334ac0032e7b2a655c72e5a98280a280f35b82346101d25760203660031901126101d257600435916001600160401b0383116107a95760e060031984360301126107a957611ea781612493565b82600401358152602081019060248401358252604081019360448101358552606082019060648101358252608083016084820135815260a48201359160058310156117d55760a0850192835260c4810135906001600160401b03821161248f570196366023890112156117d5576004880135611f22816125a4565b98611f306040519a8b612583565b818a5260206004818c019360051b830101019036821161248b5760248101925b8284106123cc575050505060c08501978852611f6a614048565b87518251611fa06040518092611f8c602083019560408752606084019061274a565b90604083015203601f198101835282612583565b5190208451036123bd576001600160a01b03611fba614084565b16928551915192519451965190519860058a10156123a957889989979899939261206f61209393519260405195611ff0876124df565b86526020860197885260408601998a52606086019c8d526080860192835261201c60a087019182612807565b60c086019233845260e087019485526040519d8e9b8c9a8b9963bfcc725760e01b8b52602060048c01525160248b01525160448a01525160648901525160848801525160a48701525160c48601906128f6565b516001600160a01b031660e48401525161010061010484015261012483019061274a565b03925af19182156112b85783926122b8575b50606082015190600f821015610de257519060e060018060a01b0360208501511693015190600d8114806122b1575b156121045750509050600080516020615d9d8339815191528280a26001600080516020615ddd8339815191525580f35b600681036121275750509050600080516020615cdd8339815191528280a2610cf5565b60028103612148575050600080516020615e5d8339815191528380a3610cf5565b9192509060040361217d57507f17aad8cee7fa654be58106f05c4040122273bad66e94979ffbb9f7ecccc68c5e8280a2610cf5565b80516064106121b5576121ad600080516020615e3d83398151915291604051918291602083526020830190613bf7565b0390a2610cf5565b9190815b8351808210156122a7576121cf82606492615ca1565b10156122a0576121e0818551615ca1565b6121e9816125a4565b906121f76040519283612583565b808252601f19612206826125a4565b01366020840137845b818110612263575050600080516020615e3d8339815191526122408492604051918291602083526020830190613bf7565b0390a260648101809111156121b957634e487b7160e01b83526011600452602483fd5b929591929091906001906001600160a01b03612288612282838b615c94565b85612e19565b51166122948287612e19565b5201959291909561220f565b60646121e0565b5050509050610cf5565b50846120d4565b9091503d8084833e6122ca8183612583565b8101906020818303126107bd578051906001600160401b0382116111ed5701610100818303126107bd5760405191612301836124df565b61230a82612813565b835261231860208301612820565b6020840152604082015160408401526060820151600f81101561127257606084015260808201516001600160401b0381116112725781612359918401612834565b608084015261236a60a08301612813565b60a084015261237b60c08301612820565b60c084015260e08201516001600160401b0381116112725761239d9201612891565b60e082015290836120a5565b634e487b7160e01b89526021600452602489fd5b63496189f760e11b8752600487fd5b83356001600160401b0381116124875760049083010160c0601f19823603011261248757604051906123fd826124c4565b6020810135600281101561248357825260408101356001600160a01b03811681036124835760208301526060810135604083015260808101356001600160401b038111612483576124549060203691840101612639565b606083015260a0810135801515810361248357608083015260c0013560a0820152815260209384019301611f50565b8d80fd5b8b80fd5b8980fd5b8780fd5b60e081019081106001600160401b038211176124ae57604052565b634e487b7160e01b600052604160045260246000fd5b60c081019081106001600160401b038211176124ae57604052565b61010081019081106001600160401b038211176124ae57604052565b602081019081106001600160401b038211176124ae57604052565b606081019081106001600160401b038211176124ae57604052565b61014081019081106001600160401b038211176124ae57604052565b608081019081106001600160401b038211176124ae57604052565b60a081019081106001600160401b038211176124ae57604052565b90601f801991011681019081106001600160401b038211176124ae57604052565b6001600160401b0381116124ae5760051b60200190565b600435906001600160a01b038216820361180657565b602435906001600160a01b038216820361180657565b6001600160401b0381116124ae57601f01601f191660200190565b92919261260e826125e7565b9161261c6040519384612583565b829481845281830111611806578281602093846000960137010152565b9080601f830112156118065781602061265493359101612602565b90565b9181601f84011215611806578235916001600160401b038311611806576020838186019501011161180657565b602060031982011261180657600435906001600160401b03821161180657806023830112156118065781600401356126bb816125a4565b926126c96040519485612583565b8184526024602085019260051b82010192831161180657602401905b8282106126f25750505090565b81358152602091820191016126e5565b60005b8381106127155750506000910152565b8181015183820152602001612705565b9060209161273e81518092818552858086019101612702565b601f01601f1916010190565b9080602083519182815201906020808260051b8501019401926000905b82821061277657505050505090565b9091929394601f19828203018552855190815160028110156127f1576001928260209392849352848060a01b038383015116838201526040820151604082015260a0806127d2606085015160c0606086015260c0850190612725565b6080808601511515908501529301519101529701950193920190612767565b634e487b7160e01b600052602160045260246000fd5b60058210156127f15752565b5190811515820361180657565b51906001600160a01b038216820361180657565b9080601f8301121561180657815161284b816125a4565b926128596040519485612583565b81845260208085019260051b82010192831161180657602001905b8282106128815750505090565b8151815260209182019101612874565b9080601f830112156118065781516128a8816125a4565b926128b66040519485612583565b81845260208085019260051b82010192831161180657602001905b8282106128de5750505090565b602080916128eb84612820565b8152019101906128d1565b9060058210156127f15752565b96909395929194606495602060018060a01b036000541660405198898092631bae711d60e21b8252846004830152600d60248301526c50726f706f73616c506861736560981b60448301525afa968715612dc157600097612dcd575b506040519461296d866124df565b898652602086019687526040860198338a526060870195600160a01b600190031686526080870192835260a08701936000855236906129ab92612602565b9360c0870194855236906129be92612602565b60e0860190815260405163fa319c6560e01b815260206004820152955160248701529551604486015296516001600160a01b03908116606486015292519092166084840152945160a48301525160c4820152925161010060e485015283918291612a2d90610124840190612725565b905182820360231901610104840152612a469190612725565b6001600160a01b039093169203815a6000948591f1908115612dc157600091612cc3575b509060e0820151612c9c575b815115612c85576040820151600f8110156127f15761012083015115159060c060018060a01b0360608601511694015191600090600d83149081612c7d575b5015612ad6575050509050600080516020615d9d833981519152600080a25b565b5060068103612af85750509050600080516020615cdd833981519152600080a2565b600060028203612b1a57505050600080516020615e5d833981519152600080a3565b5091925090600403612b4e57507f17aad8cee7fa654be58106f05c4040122273bad66e94979ffbb9f7ecccc68c5e600080a2565b8051606410612b8357612b7e600080516020615e3d83398151915291604051918291602083526020830190613bf7565b0390a2565b60005b815180821015612c7757612b9c82606492615ca1565b1015612c6f57612bad818351615ca1565b83905b612bb9816125a4565b90612bc76040519283612583565b808252601f19612bd6826125a4565b0136602084013760005b818110612c36575050612c10600080516020615e3d83398151915291604051918291602083526020830190613bf7565b0390a26064810180911115612b86575b634e487b7160e01b600052601160045260246000fd5b919250906001906001600160a01b03612c58612c528388615c94565b88612e19565b5116612c648286612e19565b520190859291612be0565b826064612bb0565b50505050565b905038612ab5565b9050600080516020615cdd833981519152600080a2565b60608201516001600160a01b031681600080516020615e5d833981519152600080a3612a76565b3d8083833e612cd28183612583565b8101906020818303126108ab578051906001600160401b0382116107bd570190610140828203126108ab5760405192612d0a84612531565b612d1383612813565b8452612d2160208401612820565b60208501526040830151600f8110156107a9576040850152612d4560608401612820565b60608501526080830151608085015260a083015160a085015260c0830151906001600160401b0382116101d2575091612d8661012092612db5948301612891565b60c0850152612d9760e08201612813565b60e0850152612da96101008201612820565b61010085015201612813565b61012082015238612a6a565b6040513d6000823e3d90fd5b9096506020813d602011612e01575b81612de960209383612583565b8101031261180657612dfa90612820565b953861295f565b3d9150612ddc565b60058110156127f15760f81b9052565b8051821015612e2d5760209160051b010190565b634e487b7160e01b600052603260045260246000fd5b602060408183019282815284518094520192019060005b818110612e675750505090565b8251845260209384019390920191600101612e5a565b9060068210156127f15752565b93908092939160405160208101913360601b8352612eab6034830188612e09565b846035830152605582015260558152612ec5607582612583565b5190200361333e5760009260c49184906001600160a01b03612ee5614084565b16906040516020810191612ef98387612e09565b602182015260218152612f0d604182612583565b5190209760405193612f1e856124c4565b8885526020850196875260408501998a52612f3d606086019182612807565b612f7e608086019133835260a087019384526040519b8c998a986320e3d24360e11b8a525160048a01525160248901525160448801525160648701906128f6565b516001600160a01b031660848501525160a48401525af1918215612dc157600092613163575b50815115612c855760208201918251613033575b6101208101516101608201516001600160a01b039091169360058210156127f1576040905115159201519060068210156127f1576130306060927f14d4bda97d7d28622aa0ad6e4d069bb9215b9e2346ecbdf2313b04121da0b68a9461302160405180956128f6565b60208401526040830190612e7d565ba3565b60e0810180518051156130b557507f9c4bf38aa77ce1103eb348ff99a695363c0b42ab316945b0e19906310f2146a261307761010084015160405191829182612e43565b0390a15160408101516020909101516001600160a01b03916130999190612e19565b511682600080516020615d5d833981519152600080a35b612fb8565b61018083015190915015613119575081600080516020615d3d833981519152600080a26101c08101516130fc575b60608101516130b09083906001600160a01b03166148f4565b6060810151613114906001600160a01b03168361446e565b6130e3565b60c0820151613129575b50612fb8565b60408101516020909101516001600160a01b03916131479190612e19565b511682600080516020615e5d833981519152600080a338613123565b90913d8082843e6131748184612583565b8201916020818403126107a9578051906001600160401b0382116108ab5701906101e0828403126101d257604051926101e084018481106001600160401b0382111761332a576040526131c683612813565b84526131d460208401612813565b6020850152604083015160068110156108ab5760408501526131f860608401612820565b606085015261320960808401612820565b608085015260a083015160a085015261322460c08401612813565b60c085015260e08301516001600160401b0381116108ab5783016060818303126108ab576040519061325582612516565b80518252602081015160208301526040810151906001600160401b0382116111ed5761328391849101612891565b604082015260e08501526101008301516001600160401b0381116108ab57906132ad918401612834565b6101008401526132c06101208301612820565b6101208401526101408201516101408401526101608201519060058210156101d2575061331d916101c0916101608501526132fe6101808201612813565b6101808501526133116101a08201612813565b6101a085015201612813565b6101c08201529038612fa4565b634e487b7160e01b83526041600452602483fd5b636aee863360e11b60005260046000fd5b602081830312611806578051906001600160401b038211611806570160e081830312611806576040519161338283612493565b8151600f8110156118065783526020820151600f8110156118065760208401526133ae60408301612820565b60408401526133bf60608301612820565b60608401526133d060808301612820565b608084015260a08201516001600160401b03811161180657816133f4918401612834565b60a084015260c08201516001600160401b038111611806576134169201612834565b60c082015290565b81601f82011215611806578051613434816125e7565b926134426040519485612583565b81845260208284010111611806576126549160208085019101612702565b602081830312611806578051906001600160401b03821161180657016102e08183031261180657604051916102e083018381106001600160401b038211176124ae5760405281516006811015611806578352602082015160058110156118065760208401526040820151600f8110156118065760408401526060820151600f8110156118065760608401526134f760808301612820565b608084015261350860a08301612820565b60a084015261351960c08301612820565b60c084015261352a60e08301612820565b60e08401526101008201516101008401526101208201516101208401526101408201516101408401526101608201516101608401526101808201516101808401526101a08201516101a08401526101c08201516101c08401526101e08201516101e08401526102008201516001600160401b03811161180657816135af91840161341e565b6102008401526102208201516001600160401b03811161180657816135d591840161341e565b6102208401526102408201516001600160401b03811161180657820181601f8201121561180657805190613608826125a4565b926136166040519485612583565b8284526020606081860194028301019181831161180657602001925b8284106136775750505050906102c0916102408401526102608101516102608401526102808101516102808401526102a08101516102a084015201516102c082015290565b60608483031261180657602060609160405161369281612516565b86518152828701518382015260408701516040820152815201930192613632565b90600f8210156127f15752565b9190606490602060018060a01b036000541660405193848092631bae711d60e21b8252846004830152600f60248301526e436f6d6d697474696e67506861736560881b60448301525afa918215612dc157600092613a10575b506084600092836040519161372d8361254d565b87835260208301948552336040808501918252606085019889525162dab60b60e71b8152935160048501529451602484015293516001600160a01b0390811660448401529551606483015290948593849291165af1908115612dc1576000916138d2575b5061012081015161387e575b61010081015161385b578051156138575760018060a01b0360a0820151166020820190837fc5dd23f5cc17858ca1e3d0f06cbcc78820753b0dd2fea89d03d0d842192c1531602084511515604051908152a351151580613841575b613800575050565b60e00151600f8110156127f15760207fb61dd9b213508bbd8e6c89d7c254d830e0ed7e8cd5bd4163a167a47b12e46e819161383e60405180926136b3565ba2565b5060e0810151600f8110156127f15715156137f8565b5050565b604001516001600160a01b031690600080516020615e5d833981519152600080a3565b61014081015161016082015160c08301516040519081526001600160a01b03918216929091169084907fb9adb9860846c6726d973e93f6d5994ba6aa797233e2d15851d42e9c68a5dd7290602090a461379d565b903d8082843e6138e28184612583565b8201916020818403126107a9578051906001600160401b0382116108ab570190610180828403126101d2576040519261018084018481106001600160401b0382111761332a5760405261393483612813565b845261394260208401612813565b602085015261395360408401612820565b604085015261396460608401612820565b606085015260808301516001600160401b0381116108ab5790613988918401612834565b608084015261399960a08301612820565b60a084015260c082015160c084015260e082015190600f8210156101d25750613a04916101609160e08501526139d26101008201612813565b6101008501526139e56101208201612813565b6101208501526139f86101408201612820565b61014085015201612820565b61016082015238613791565b91506020823d602011613a47575b81613a2b60209383612583565b81010312611806576084613a40600093612820565b9250613719565b3d9150613a1e565b90613a5b818351612e7d565b613a6d602083015160208301906128f6565b613a7f604083015160408301906136b3565b613a91606083015160608301906136b3565b60018060a01b03608083015116608082015260018060a01b0360a08301511660a082015260018060a01b0360c08301511660c082015260018060a01b0360e08301511660e08201526101008201516101008201526101208201516101208201526101408201516101408201526101608201516101608201526101808201516101808201526101a08201516101a08201526101c08201516101c08201526101e08201516101e0820152613b6d613b596102008401516102e06102008501526102e0840190612725565b610220840151838203610220850152612725565b91610240810151928281036102408401526020808551928381520194019060005b818110613bc9575050506102c081610260829301516102608501526102808101516102808501526102a08101516102a0850152015191015290565b9091946020606060019260408951805183528481015185840152015160408201520196019101919091613b8e565b906020808351928381520192019060005b818110613c155750505090565b82516001600160a01b0316845260209384019390920191600101613c08565b3d15613c5f573d90613c45826125e7565b91613c536040519384612583565b82523d6000602084013e565b606090565b92606491602060018060a01b036000541660405194858092631bae711d60e21b8252846004830152600f60248301526e41637469766174696f6e506861736560881b60448301525afa908115612dc157600091613f40575b6000809450613cf260405196613cd18861254d565b888852602088019360018060a01b0316845260408801953387523691612602565b606087019081526040516320ffefc560e01b8152602060048201529651602488015291516001600160a01b039081166044880152935190931660648601525160806084860152849283918290613d4c9060a4830190612725565b03926001600160a01b03165af1908115612dc157600091613e2b575b5060a0810151613de9575b6020810151613dbd57805115613da75761010001516001600160a01b031690600080516020615d5d833981519152600080a3565b50600080516020615cdd833981519152600080a2565b90612ad491600082600080516020615d7d8339815191528280a3604001516001600160a01b03166148f4565b60c081015160e08201516001600160a01b039081169116837ff7861b60d3b514908b00c1461e500857f819123764586496fcddba2eb034c94c600080a4613d73565b3d8083833e613e3a8183612583565b8101906020818303126108ab578051906001600160401b0382116107bd570190610120828203126108ab576040519261012084018481106001600160401b03821117613f2c57604052613e8c83612813565b8452613e9a60208401612813565b6020850152613eab60408401612820565b6040850152606083015160608501526080830151906001600160401b0382116101d2575091613ee261010092613f20948301612891565b6080850152613ef360a08201612813565b60a0850152613f0460c08201612820565b60c0850152613f1560e08201612820565b60e085015201612820565b61010082015238613d68565b634e487b7160e01b82526041600452602482fd5b90506020833d602011613f74575b81613f5b60209383612583565b8101031261180657613f6e600093612820565b90613cbc565b3d9150613f4e565b908161014091031261180657600060405191613f9783612531565b613fa081612813565b8352613fae60208201612820565b60208401526040810151604084015260608101516060840152613fd360808201612813565b6080840152613fe460a08201612813565b60a0840152613ff560c08201612813565b60c084015261400660e08201612813565b60e0840152610100810151600f8110156108ab57610100840152610120015190600f8210156101d2575061012082015290565b6000198114612c205760010190565b6002600080516020615ddd8339815191525414614073576002600080516020615ddd83398151915255565b633ee5aeb560e01b60005260046000fd5b600054604051631bae711d60e21b8152602060048201819052600e60248301526d52657665616c696e67506861736560901b60448301529091829060649082906001600160a01b03165afa908115612dc1576000916140eb575b506001600160a01b031690565b90506020813d60201161411d575b8161410660209383612583565b810103126118065761411790612820565b386140de565b3d91506140f9565b600080516020615d1d833981519152546001600160a01b0316330361414657565b63118cdaa760e01b6000523360045260246000fd5b92949360a0939091906001600160a01b03614174614b68565b16926040519161418383612531565b6000196001881b0190811683529283166020808401918252958416604080850191825233606086019081526005608087019081526000878c0181815260c089019e8f5260e089019788526101008901918252346101208a019081529451636dada77360e11b8152600481019c909c529751891660248c01529451881660448b01529251871660648a01525190951660848801525160a4870152915160c4860152965161014060e48601529396879485938493909161424690610164860190612725565b92516101048501525161012484015251610144830152039134905af1918215612dc1576000926142f4575b506080820151156142bf578151606083015160408401516001600160a01b0390811692911690600080516020615dbd833981519152600080a45b81516040909201516001600160a01b031690565b81517f8620e7f03a280a3d2aa84bd41ba19524c2d7f1dbfa9d79cb81877b0f8c963f9b602080850151604051908152a26142ab565b909160a0823d60a011614336575b8161430f60a09383612583565b810103126101d2575061432a60806040519261076884612568565b60808201529038614271565b3d9150614302565b602081830312611806578051906001600160401b038211611806570181601f8201121561180657805190614371826125a4565b9261437f6040519485612583565b82845260208085019360051b830101918183116118065760208101935b8385106143ab57505050505090565b84516001600160401b03811161180657820160c0818503601f19011261180657604051916143d8836124c4565b602082015160028110156118065783526143f460408301612820565b6020840152606082015160408401526080820151926001600160401b0384116118065760c08361442b88602080988198010161341e565b606084015261443c60a08201612813565b6080840152015160a082015281520194019361439c565b6001600160a01b039091168152602081019190915260400190565b90614477614c37565b90614480614bcd565b91614489614c97565b906144978260018588614cfe565b604051635454a18f60e01b8152600481018690526001600160a01b03848116602483015260009591928691849160449183918591165af191821561155a5785926148d0575b5081516144ec575b505050505050565b604051631dbf24f760e01b8152600481018790529690602090889060249082906001600160a01b03165afa96871561155a578597614894575b506001600160a01b0384169283158015614816575b6148075760018060a01b03166040519363145da07d60e11b8552602060048601526020858061456c602482018861274a565b0381855afa9485156147fc5787956147c8575b508760019580614700575b505050855b835181101561469a576145a28185612e19565b51602081018051606083015160a0840151604093926145cd92908f906001600160a01b03168d61415b565b929093018051151580614693575b614620575b5051600193926001600160a01b0392831692909116907ffcd4925545581224af98ce36b42d51bb88917ea0c3fe675c27e1df1a222825558b80a40161458f565b6001600160a01b03614630614b68565b169051813b15612487578b9160448392604051948593849263525cc05960e01b84528a600485015260248401525af1801561468857908b91614673575b506145e0565b8161467d91612583565b61248b57893861466d565b6040513d8d823e3d90fd5b50886145db565b5094959350955090505190823b156107bd57906064849283604051958694859363db60e76f60e01b855260048501526024840152600160448401525af180156104a4576146eb575b808080806144e4565b6146f6828092612583565b6101d257806146e2565b909192958188311060001461473457506020600080516020615cfd83398151915291604051908152a384925b38878161458a565b9091506001600160a01b03614747614b68565b16833b156147c4579061477389848c95946040519384928392635b8346e560e11b845260048401614453565b038183895af190816147b0575b506147a657506020600080516020615cfd83398151915291604051908152a3849261472c565b959250505061472c565b8a6147bd919b929b612583565b9838614780565b8880fd5b9094506020813d6020116147f4575b816147e460209383612583565b810103126117d55751933861457f565b3d91506147d7565b6040513d89823e3d90fd5b631d41354d60e01b8652600486fd5b50602460206001600160a01b0361482b614b68565b16604051928380926355491e0160e11b82528960048301525afa9081156147fc57879161485a575b501561453a565b90506020813d60201161488c575b8161487560209383612583565b810103126117d55761488690612813565b38614853565b3d9150614868565b9096506020813d6020116148c8575b816148b060209383612583565b810103126111ed576148c190612820565b9538614525565b3d91506148a3565b6148ed9192503d8087833e6148e58183612583565b81019061433e565b90386144dc565b61492c91610140916001600160a01b0361490c614b68565b1690600060405180968195829463803350a560e01b845260048401614453565b03925af1908115612dc157600091614a32575b5080516149bd575b60a08101516149535750565b60c0810151156149885760e0810151610120909101516001600160a01b031690600080516020615d5d833981519152600080a3565b60e0810151610100820151610120909201516001600160a01b03908116921690600080516020615dbd833981519152600080a4565b602081015160405190600081600080516020615d7d8339815191528280a36080830151151580614a25575b6149f4575b5050614947565b6040830151606084015183526001600160a01b031691600080516020615cfd83398151915290602090a338806149ed565b50606083015115156149e8565b90610140823d8211614afb575b81614a4d6101409383612583565b810103126101d25750614aef61012060405192614a6984612531565b614a7281612813565b845260208101516020850152614a8a60408201612820565b604085015260608101516060850152614aa560808201612813565b6080850152614ab660a08201612813565b60a0850152614ac760c08201612813565b60c085015260e081015160e0850152614ae36101008201612820565b61010085015201612820565b6101208201523861493f565b3d9150614a3f565b600054604051631bae711d60e21b8152602060048201819052600d60248301526c49646c656e657373506861736560981b60448301529091829060649082906001600160a01b03165afa908115612dc1576000916140eb57506001600160a01b031690565b600054604051631bae711d60e21b8152602060048201819052600d60248301526c4372656174696f6e506861736560981b60448301529091829060649082906001600160a01b03165afa908115612dc1576000916140eb57506001600160a01b031690565b600054604051631bae711d60e21b815260206004820181905260126024830152712a3930b739b0b1ba34b7b726b0b730b3b2b960711b60448301529091829060649082906001600160a01b03165afa908115612dc1576000916140eb57506001600160a01b031690565b600054604051631bae711d60e21b815260206004820181905260086024830152674d6573736167657360c01b60448301529091829060649082906001600160a01b03165afa908115612dc1576000916140eb57506001600160a01b031690565b600054604051631bae711d60e21b8152602060048201819052600f60248301526e4d6573736167655061796d656e747360881b60448301529091829060649082906001600160a01b03165afa908115612dc1576000916140eb57506001600160a01b031690565b60405163165a3c0560e21b8152600481018290526001600160a01b039283166024820181905293151560448201529293909291600091602091849160649183918691165af1918215614e05578192614dd1575b5081614d5d5750505050565b833b156101d257604051635b8346e560e11b815290808280614d83863060048401614453565b038183895af19182614dc1575b5050614db9576020600080516020615cfd83398151915291604051908152a35b38808080612c77565b505050614db0565b81614dcb91612583565b38614d90565b9091506020813d602011614dfd575b81614ded60209383612583565b810103126107a957519038614d51565b3d9150614de0565b50604051903d90823e3d90fd5b600080516020615e1d83398151915280546001600160a01b0319908116909155600080516020615d1d83398151915280549182166001600160a01b0393841690811790915591167f8be0079c531659141344cd1fd0a4f28419497f9722a3daafe3b4186f6b6457e0600080a3565b600054604051631bae711d60e21b8152602060048201819052601160248301527046696e616c697a6174696f6e506861736560781b60448301529091829060649082906001600160a01b03165afa908115612dc1576000916140eb57506001600160a01b031690565b60808201519091600091156155095760209192935060a08101516154ed575b0180516001600160a01b0316614f74614f1f614c37565b614f27614bcd565b8584614f31614c97565b93614f3e8584848d614cfe565b6040516361c53f3d60e01b8152600481018b90526001600160a01b03909216602483015290948591908290849082906044820190565b03926001600160a01b03165af19283156103a45786936154d1575b5082516150ff575b505091516001600160a01b039081169250839150608090614fb6614c97565b16602460405180968193631fe1128160e21b83528960048401525af1928315614e05578193615097575b506060830151614ff05750505050565b82518015158061508e575b615050575b50505060208101519081615015575b80612c77565b7f6565c26927b368d6e75314c8bf1c1e2847f1cdd47b89e10ae002a2889da4d1509160408092015182519182526020820152a238808061500f565b81808092855af161505f613c34565b501561506d575b8080615000565b82600080516020615cfd83398151915260208451604051908152a338615066565b50821515614ffb565b9092506080813d6080116150f7575b816150b360809383612583565b810103126108ab576150eb6060604051926150cd8461254d565b80518452602081015160208501526040810151604085015201612813565b60608201529138614fe0565b3d91506150a6565b604051631dbf24f760e01b815260048101889052979394939190602090899060249082906001600160a01b03165afa9788156103a4578698615495575b5084158015615417575b6148075760018060a01b0316956040519363145da07d60e11b85526020600486015260208580615179602482018861274a565b03818b5afa9485156147fc5787956153e3575b508560019580615311575b5050865b84518110156152ac576151ae8186612e19565b5160408b6151d78a602085019260018060a01b038451169060608701519160a08801519361415b565b9290930180511515806152a5575b61522a575b5051600193926001600160a01b0392831692909116907ffcd4925545581224af98ce36b42d51bb88917ea0c3fe675c27e1df1a222825558c80a40161519b565b6001600160a01b0361523a614b68565b169051813b156152a1578c9160448392604051948593849263525cc05960e01b84528a600485015260248401525af1801561529657908c9161527d575b506151ea565b8161528791612583565b615292578a38615277565b8a80fd5b6040513d8e823e3d90fd5b8c80fd5b50896151e5565b509450959250955051813b156107bd57839160648392604051948593849263db60e76f60e01b84528a600485015260248401528160448401525af180156112b8579083916152fc575b8080614f97565b8161530691612583565b6107a95781386152f5565b819296818593311060001461534457506020600080516020615cfd83398151915291604051908152a385935b8538615197565b90925090506001600160a01b03615359614b68565b16873b156147c457906153868980858b96956040519485928392635b8346e560e11b845260048401614453565b038183895af191826153c4575b50506153bb5750600080516020615cfd83398151915260208492604051908152a3859361533d565b9591505061533d565b819293949550906153d491612583565b6147c457908792918938615393565b9094506020813d60201161540f575b816153ff60209383612583565b810103126118065751933861518c565b3d91506153f2565b50602460206001600160a01b0361542c614b68565b16604051928380926355491e0160e11b82528a60048301525afa9081156147fc57879161545b575b5015615146565b90506020813d60201161548d575b8161547660209383612583565b810103126117d55761548790612813565b38615454565b3d9150615469565b9097506020813d6020116154c9575b816154b160209383612583565b81010312611272576154c290612820565b963861513c565b3d91506154a4565b6154e69193503d8088833e6148e58183612583565b9138614f8f565b80820151615504906001600160a01b03168561446e565b614f08565b50916001600160a01b0361551b614c97565b1660408051809263471d903d60e11b82528560048301528260248301528187816155486044820189613a4f565b03925af1908115610d24578491615704575b5080511561565057508260406155b860a06001600160a01b0361557b614b68565b9590910180518451630db1199160e41b8152600481018990526001600160a01b039091166024820152979095889392169183919082906044820190565b03925af1938415614e055781809561560c575b505080615603575b6155dc57505050565b516040519283526001600160a01b031691600080516020615cfd83398151915290602090a3565b508215156155d3565b915093506040843d604011615648575b8161562960409383612583565b810103126101d25750602061563d84612813565b9301519238806155cb565b3d915061561c565b60200192835180615663575b5050505050565b60c083015160a0909301805190936001600160a01b039081169116813b156107bd579183929183926156ab95604051809781958294635b8346e560e11b845260048401614453565b03925af191826156f4575b50506156ec576020600080516020615cfd8339815191529160018060a01b039051169351604051908152a35b388080808061565c565b5050506156e2565b816156fe91612583565b386156b6565b90506040813d604011615773575b8161571f60409383612583565b810103126107bd5760405190604082018281106001600160401b0382111761575f5760405260209061575081612813565b8352015160208201523861555a565b634e487b7160e01b86526041600452602486fd5b3d9150615712565b919082604091031261180657612654602083519301612813565b90606490602060018060a01b036000541660405193848092631bae711d60e21b8252846004830152600660248301526551756575657360d01b60448301525afa8015612dc157600090615bf4575b600092506001600160a01b039081169083906157fd614b03565b16602460405161580c816124fb565b87815260405196879384926323d783ed60e11b84525160048401525af1928315612dc157600093615bd9575b50825193600f8510156127f15784602085015190600f82101591826127f15780946000936005841480615bcc575b8015615ba4575b85908015615b7a575b15615ac7575050604088810180518251630341e56360e31b8152945090928491829060009082906158b5908c906001600160a01b031660048401614453565b03925af1918215612dc15784928691600091615a96575b50615a05575b5050505b60608601516001600160a01b0316151591826159ee575b826159dd575b50506159b5575b5060005b60a084018051805183101561594f57908261591c8160019594612e19565b5161592a575b5050016158fe565b6159349151612e19565b51600080516020615cdd833981519152600080a23881615922565b5050509260005b60c08401805180518310156159ad5791806001926159768260c096612e19565b51615986575b5050019050615956565b6000916159939151612e19565b51600080516020615d7d8339815191528280a3803861597c565b505050929150565b60808401516001600160a01b031690600080516020615e5d833981519152600080a3386158fa565b9091506127f15760021438806158f3565b60808701516001600160a01b0316151592506158ed565b8151615a2e9290615a1f906001600160a01b03168361446e565b516001600160a01b03166148f4565b6127f157600d8103615a7d5782600080516020615d9d833981519152600080a25b827f6ae3550300804fa352835a3e1279593d83ce88e20c9feb43302db45b1d89e6c9600080a28138846158d2565b82600080516020615d3d833981519152600080a2615a4f565b615ab8915060403d604011615ac0575b615ab08183612583565b81019061577b565b9050386158cc565b503d615aa6565b6127f1578592600685149182615b65575b5050615ae6575b50506158d6565b604088810151815163910048fb60e01b81529391928492909183916000918391615b1c916001600160a01b031660048401614453565b03925af18015612dc157615b47575b5082600080516020615cdd833981519152600080a28238615adf565b615b5f9060403d604011615ac057615ab08183612583565b50615b2b565b915092506127f1576006859214153880615ad8565b506127f15784600d85148281615b91575b50615876565b9150506127f15784600d84141582615b8b565b5084600c85148281615bb9575b50905061586d565b9150506127f15784600c84141582615bb1565b5050836005831415615866565b615bed91933d8091833e611ba18183612583565b9138615838565b506020823d602011615c26575b81615c0e60209383612583565b8101031261180657615c21600092612820565b6157e3565b3d9150615c01565b600054604051631bae711d60e21b8152602060048201819052600e60248301526d151c9a589d5b985b105c1c19585b60921b60448301529091829060649082906001600160a01b03165afa908115612dc1576000916140eb57506001600160a01b031690565b91908201809211612c2057565b91908203918211612c2057565b60ff600080516020615dfd8339815191525460401c1615615ccb57565b631afcd79f60e31b60005260046000fdfeb9f69df2250e1788b862d0715b1dad98b2a50311c017ebb71f6cd83de656b06dd7d0ee861c0ebf42599b922e8f4ad0cafed951841610157bcd56110f49ced8ee9016d09d72d40fdae2fd8ceac6b6234c7706214fd39c1cd1e609a0528c199300f250caa116f9eac0e4e82d403f131ce0a520b6c232dbcbe270b3729b0aaca09e1081f7638e5a02d916250da410b76a0821bdb2b09c574c0f237830409c37d0c80a94f6cf3e473cb72e765b24d1365bfcbef8d31a73215bb27e50df39757f578ae51a41760ba25c8a4ac33894d5eb8698cf110a90d4e6f764fa0579ec8767b466dab9102861c7483a187584d6371d88316f005af507982ccf95c110879f3ed5a59b779b17422d0df92223018b32b4d1fa46e071723d6817e2486d003becc55f00f0c57e16840df040f15088dc2f81fe391c3923bec73e23a9662efc9c229c6a00237e158222e3e6968b72b9db0d8043aacf074ad9f650f0d1606b4d82ee432c00eeb84a2b70442f0f7263c2cc055eaaba369bc7f3d87dd784346cb4ed6967903542dd93d103ec25ce3ac597cec3f3aa55b91b52ffa90a04f9e14545f4543e7c48a2646970667358221220bebd6f687b5c12167c230ed80393a516fd745d08d18209a98650d5aa16b7b82e64736f6c634300081c0033",
  "linkReferences": {},
  "deployedLinkReferences": {}
}