{
  "_format": "hh-sol-artifact-1",
  "contractName": "ConsensusMain",
  "sourceName": "contracts/ConsensusMain.sol",
  "abi": [
    {
      "inputs": [],
      "stateMutability": "nonpayable",
      "type": "constructor"
    },
    {
      "inputs": [],
      "name": "CallerNotMessages",
      "type": "error"
    },
    {
      "inputs": [],
      "name": "InvalidDeploymentWithSalt",
      "type": "error"
    },
    {
      "inputs": [],
      "name": "InvalidInitialization",
      "type": "error"
    },
    {
      "inputs": [],
      "name": "InvalidRevealLeaderData",
      "type": "error"
    },
    {
      "inputs": [],
      "name": "InvalidVote",
      "type": "error"
    },
    {
      "inputs": [],
      "name": "NotInitializing",
      "type": "error"
    },
    {
      "inputs": [
        {
          "internalType": "address",
          "name": "owner",
          "type": "address"
        }
      ],
      "name": "OwnableInvalidOwner",
      "type": "error"
    },
    {
      "inputs": [
        {
          "internalType": "address",
          "name": "account",
          "type": "address"
        }
      ],
      "name": "OwnableUnauthorizedAccount",
      "type": "error"
    },
    {
      "inputs": [],
      "name": "ReentrancyGuardReentrantCall",
      "type": "error"
    },
    {
      "inputs": [],
      "name": "TransactionNotFinalized",
      "type": "error"
    },
    {
      "inputs": [],
      "name": "Unauthorized",
      "type": "error"
    },
    {
      "anonymous": false,
      "inputs": [
        {
          "indexed": true,
          "internalType": "bytes32",
          "name": "txId",
          "type": "bytes32"
        },
        {
          "indexed": true,
          "internalType": "address",
          "name": "oldActivator",
          "type": "address"
        },
        {
          "indexed": true,
          "internalType": "address",
          "name": "newActivator",
          "type": "address"
        }
      ],
      "name": "ActivatorReplaced",
      "type": "event"
    },
    {
      "anonymous": false,
      "inputs": [
        {
          "indexed": true,
          "internalType": "address",
          "name": "addressManager",
          "type": "address"
        }
      ],
      "name": "AddressManagerSet",
      "type": "event"
    },
    {
      "anonymous": false,
      "inputs": [
        {
          "indexed": true,
          "internalType": "bytes32",
          "name": "txId",
          "type": "bytes32"
        },
        {
          "indexed": false,
          "internalType": "enum ITransactions.TransactionStatus",
          "name": "newStatus",
          "type": "uint8"
        }
      ],
      "name": "AllVotesCommitted",
      "type": "event"
    },
    {
      "anonymous": false,
      "inputs": [
        {
          "indexed": true,
          "internalType": "bytes32",
          "name": "txId",
          "type": "bytes32"
        },
        {
          "indexed": true,
          "internalType": "address",
          "name": "appellant",
          "type": "address"
        },
        {
          "indexed": false,
          "internalType": "uint256",
          "name": "bond",
          "type": "uint256"
        },
        {
          "indexed": false,
          "internalType": "address[]",
          "name": "validators",
          "type": "address[]"
        }
      ],
      "name": "AppealStarted",
      "type": "event"
    },
    {
      "anonymous": false,
      "inputs": [
        {
          "indexed": false,
          "internalType": "uint256",
          "name": "attempted",
          "type": "uint256"
        },
        {
          "indexed": false,
          "internalType": "uint256",
          "name": "succeeded",
          "type": "uint256"
        },
        {
          "indexed": false,
          "internalType": "uint256",
          "name": "failed",
          "type": "uint256"
        }
      ],
      "name": "BatchFinalizationCompleted",
      "type": "event"
    },
    {
      "anonymous": false,
      "inputs": [
        {
          "indexed": true,
          "internalType": "bytes32",
          "name": "txId",
          "type": "bytes32"
        },
        {
          "indexed": false,
          "internalType": "uint256",
          "name": "txSlot",
          "type": "uint256"
        }
      ],
      "name": "CreatedTransaction",
      "type": "event"
    },
    {
      "anonymous": false,
      "inputs": [
        {
          "indexed": false,
          "internalType": "uint64",
          "name": "version",
          "type": "uint64"
        }
      ],
      "name": "Initialized",
      "type": "event"
    },
    {
      "anonymous": false,
      "inputs": [
        {
          "indexed": true,
          "internalType": "bytes32",
          "name": "txId",
          "type": "bytes32"
        },
        {
          "indexed": true,
          "internalType": "address",
          "name": "recipient",
          "type": "address"
        },
        {
          "indexed": true,
          "internalType": "address",
          "name": "activator",
          "type": "address"
        }
      ],
      "name": "InternalMessageProcessed",
      "type": "event"
    },
    {
      "anonymous": false,
      "inputs": [
        {
          "indexed": true,
          "internalType": "bytes32",
          "name": "txId",
          "type": "bytes32"
        },
        {
          "indexed": true,
          "internalType": "address",
          "name": "oldLeader",
          "type": "address"
        },
        {
          "indexed": true,
          "internalType": "address",
          "name": "newLeader",
          "type": "address"
        }
      ],
      "name": "LeaderIdlenessProcessed",
      "type": "event"
    },
    {
      "anonymous": false,
      "inputs": [
        {
          "indexed": true,
          "internalType": "bytes32",
          "name": "txId",
          "type": "bytes32"
        },
        {
          "indexed": true,
          "internalType": "address",
          "name": "recipient",
          "type": "address"
        },
        {
          "indexed": true,
          "internalType": "address",
          "name": "activator",
          "type": "address"
        }
      ],
      "name": "NewTransaction",
      "type": "event"
    },
    {
      "anonymous": false,
      "inputs": [
        {
          "indexed": true,
          "internalType": "address",
          "name": "previousOwner",
          "type": "address"
        },
        {
          "indexed": true,
          "internalType": "address",
          "name": "newOwner",
          "type": "address"
        }
      ],
      "name": "OwnershipTransferStarted",
      "type": "event"
    },
    {
      "anonymous": false,
      "inputs": [
        {
          "indexed": true,
          "internalType": "address",
          "name": "previousOwner",
          "type": "address"
        },
        {
          "indexed": true,
          "internalType": "address",
          "name": "newOwner",
          "type": "address"
        }
      ],
      "name": "OwnershipTransferred",
      "type": "event"
    },
    {
      "anonymous": false,
      "inputs": [
        {
          "indexed": true,
          "internalType": "bytes32",
          "name": "txId",
          "type": "bytes32"
        }
      ],
      "name": "ProcessIdlenessAccepted",
      "type": "event"
    },
    {
      "anonymous": false,
      "inputs": [
        {
          "indexed": true,
          "internalType": "bytes32",
          "name": "txId",
          "type": "bytes32"
        }
      ],
      "name": "TransactionAccepted",
      "type": "event"
    },
    {
      "anonymous": false,
      "inputs": [
        {
          "indexed": true,
          "internalType": "bytes32",
          "name": "txId",
          "type": "bytes32"
        },
        {
          "indexed": true,
          "internalType": "address",
          "name": "leader",
          "type": "address"
        }
      ],
      "name": "TransactionActivated",
      "type": "event"
    },
    {
      "anonymous": false,
      "inputs": [
        {
          "indexed": true,
          "internalType": "bytes32",
          "name": "txId",
          "type": "bytes32"
        },
        {
          "indexed": true,
          "internalType": "address",
          "name": "cancelledBy",
          "type": "address"
        }
      ],
      "name": "TransactionCancelled",
      "type": "event"
    },
    {
      "anonymous": false,
      "inputs": [
        {
          "indexed": true,
          "internalType": "bytes32",
          "name": "txId",
          "type": "bytes32"
        }
      ],
      "name": "TransactionFinalizationFailed",
      "type": "event"
    },
    {
      "anonymous": false,
      "inputs": [
        {
          "indexed": true,
          "internalType": "bytes32",
          "name": "txId",
          "type": "bytes32"
        }
      ],
      "name": "TransactionFinalized",
      "type": "event"
    },
    {
      "anonymous": false,
      "inputs": [
        {
          "indexed": true,
          "internalType": "bytes32",
          "name": "txId",
          "type": "bytes32"
        }
      ],
      "name": "TransactionLeaderRevealed",
      "type": "event"
    },
    {
      "anonymous": false,
      "inputs": [
        {
          "indexed": true,
          "internalType": "bytes32",
          "name": "txId",
          "type": "bytes32"
        },
        {
          "indexed": true,
          "internalType": "address",
          "name": "newLeader",
          "type": "address"
        }
      ],
      "name": "TransactionLeaderRotated",
      "type": "event"
    },
    {
      "anonymous": false,
      "inputs": [
        {
          "indexed": true,
          "internalType": "bytes32",
          "name": "txId",
          "type": "bytes32"
        }
      ],
      "name": "TransactionLeaderTimeout",
      "type": "event"
    },
    {
      "anonymous": false,
      "inputs": [
        {
          "indexed": false,
          "internalType": "bytes32[]",
          "name": "txIds",
          "type": "bytes32[]"
        }
      ],
      "name": "TransactionNeedsRecomputation",
      "type": "event"
    },
    {
      "anonymous": false,
      "inputs": [
        {
          "indexed": true,
          "internalType": "bytes32",
          "name": "txId",
          "type": "bytes32"
        },
        {
          "indexed": false,
          "internalType": "address[]",
          "name": "validators",
          "type": "address[]"
        }
      ],
      "name": "TransactionReceiptProposed",
      "type": "event"
    },
    {
      "anonymous": false,
      "inputs": [
        {
          "indexed": true,
          "internalType": "bytes32",
          "name": "txId",
          "type": "bytes32"
        }
      ],
      "name": "TransactionUndetermined",
      "type": "event"
    },
    {
      "anonymous": false,
      "inputs": [
        {
          "indexed": true,
          "internalType": "bytes32",
          "name": "txId",
          "type": "bytes32"
        },
        {
          "indexed": false,
          "internalType": "uint256",
          "name": "totalUnissuedValue",
          "type": "uint256"
        },
        {
          "indexed": false,
          "internalType": "uint256",
          "name": "unissuedCount",
          "type": "uint256"
        }
      ],
      "name": "UnissuedMessagesAtFinalization",
      "type": "event"
    },
    {
      "anonymous": false,
      "inputs": [
        {
          "indexed": true,
          "internalType": "bytes32",
          "name": "txId",
          "type": "bytes32"
        },
        {
          "indexed": true,
          "internalType": "address",
          "name": "oldValidator",
          "type": "address"
        },
        {
          "indexed": true,
          "internalType": "address",
          "name": "newValidator",
          "type": "address"
        },
        {
          "indexed": false,
          "internalType": "uint256",
          "name": "validatorIndex",
          "type": "uint256"
        }
      ],
      "name": "ValidatorReplaced",
      "type": "event"
    },
    {
      "anonymous": false,
      "inputs": [
        {
          "indexed": true,
          "internalType": "bytes32",
          "name": "txId",
          "type": "bytes32"
        },
        {
          "indexed": true,
          "internalType": "address",
          "name": "recipient",
          "type": "address"
        },
        {
          "indexed": false,
          "internalType": "uint256",
          "name": "value",
          "type": "uint256"
        }
      ],
      "name": "ValueWithdrawalFailed",
      "type": "event"
    },
    {
      "anonymous": false,
      "inputs": [
        {
          "indexed": true,
          "internalType": "bytes32",
          "name": "txId",
          "type": "bytes32"
        },
        {
          "indexed": true,
          "internalType": "address",
          "name": "validator",
          "type": "address"
        },
        {
          "indexed": false,
          "internalType": "bool",
          "name": "isLastVote",
          "type": "bool"
        }
      ],
      "name": "VoteCommitted",
      "type": "event"
    },
    {
      "anonymous": false,
      "inputs": [
        {
          "indexed": true,
          "internalType": "bytes32",
          "name": "txId",
          "type": "bytes32"
        },
        {
          "indexed": true,
          "internalType": "address",
          "name": "validator",
          "type": "address"
        },
        {
          "indexed": false,
          "internalType": "enum ITransactions.VoteType",
          "name": "voteType",
          "type": "uint8"
        },
        {
          "indexed": false,
          "internalType": "bool",
          "name": "isLastVote",
          "type": "bool"
        },
        {
          "indexed": false,
          "internalType": "enum ITransactions.ResultType",
          "name": "result",
          "type": "uint8"
        }
      ],
      "name": "VoteRevealed",
      "type": "event"
    },
    {
      "inputs": [],
      "name": "EVENTS_BATCH_SIZE",
      "outputs": [
        {
          "internalType": "uint256",
          "name": "",
          "type": "uint256"
        }
      ],
      "stateMutability": "view",
      "type": "function"
    },
    {
      "inputs": [],
      "name": "VERSION",
      "outputs": [
        {
          "internalType": "string",
          "name": "",
          "type": "string"
        }
      ],
      "stateMutability": "view",
      "type": "function"
    },
    {
      "inputs": [],
      "name": "acceptOwnership",
      "outputs": [],
      "stateMutability": "nonpayable",
      "type": "function"
    },
    {
      "inputs": [
        {
          "internalType": "bytes32",
          "name": "_txId",
          "type": "bytes32"
        },
        {
          "internalType": "address",
          "name": "_operator",
          "type": "address"
        },
        {
          "internalType": "bytes",
          "name": "_vrfProof",
          "type": "bytes"
        }
      ],
      "name": "activateTransaction",
      "outputs": [],
      "stateMutability": "nonpayable",
      "type": "function"
    },
    {
      "inputs": [
        {
          "internalType": "address",
          "name": "_sender",
          "type": "address"
        },
        {
          "internalType": "address",
          "name": "_recipient",
          "type": "address"
        },
        {
          "internalType": "uint256",
          "name": "_numOfInitialValidators",
          "type": "uint256"
        },
        {
          "internalType": "uint256",
          "name": "_maxRotations",
          "type": "uint256"
        },
        {
          "internalType": "bytes",
          "name": "_calldata",
          "type": "bytes"
        },
        {
          "internalType": "uint256",
          "name": "_validUntil",
          "type": "uint256"
        }
      ],
      "name": "addTransaction",
      "outputs": [],
      "stateMutability": "payable",
      "type": "function"
    },
    {
      "inputs": [],
      "name": "addressManager",
      "outputs": [
        {
          "internalType": "contract IAddressManager",
          "name": "",
          "type": "address"
        }
      ],
      "stateMutability": "view",
      "type": "function"
    },
    {
      "inputs": [
        {
          "internalType": "bytes32",
          "name": "_txId",
          "type": "bytes32"
        }
      ],
      "name": "cancelTransaction",
      "outputs": [],
      "stateMutability": "nonpayable",
      "type": "function"
    },
    {
      "inputs": [
        {
          "internalType": "bytes32",
          "name": "_txId",
          "type": "bytes32"
        },
        {
          "internalType": "bytes32",
          "name": "_commitHash",
          "type": "bytes32"
        },
        {
          "internalType": "uint256",
          "name": "_validatorIndex",
          "type": "uint256"
        }
      ],
      "name": "commitVote",
      "outputs": [],
      "stateMutability": "nonpayable",
      "type": "function"
    },
    {
      "inputs": [
        {
          "internalType": "address",
          "name": "_sender",
          "type": "address"
        },
        {
          "internalType": "uint256",
          "name": "_numOfInitialValidators",
          "type": "uint256"
        },
        {
          "internalType": "uint256",
          "name": "_maxRotations",
          "type": "uint256"
        },
        {
          "internalType": "bytes",
          "name": "_calldata",
          "type": "bytes"
        },
        {
          "internalType": "uint256",
          "name": "_saltNonce",
          "type": "uint256"
        },
        {
          "internalType": "uint256",
          "name": "_validUntil",
          "type": "uint256"
        }
      ],
      "name": "deploySalted",
      "outputs": [],
      "stateMutability": "payable",
      "type": "function"
    },
    {
      "inputs": [
        {
          "internalType": "address",
          "name": "_recipient",
          "type": "address"
        },
        {
          "internalType": "uint256",
          "name": "_value",
          "type": "uint256"
        },
        {
          "internalType": "bytes",
          "name": "_data",
          "type": "bytes"
        }
      ],
      "name": "executeMessage",
      "outputs": [
        {
          "internalType": "bool",
          "name": "success",
          "type": "bool"
        }
      ],
      "stateMutability": "nonpayable",
      "type": "function"
    },
    {
      "inputs": [
        {
          "internalType": "bytes32[]",
          "name": "_txIds",
          "type": "bytes32[]"
        }
      ],
      "name": "finalizeIdlenessTxs",
      "outputs": [],
      "stateMutability": "nonpayable",
      "type": "function"
    },
    {
      "inputs": [
        {
          "internalType": "bytes32",
          "name": "_txId",
          "type": "bytes32"
        }
      ],
      "name": "finalizeTransaction",
      "outputs": [],
      "stateMutability": "nonpayable",
      "type": "function"
    },
    {
      "inputs": [
        {
          "internalType": "bytes32",
          "name": "_txId",
          "type": "bytes32"
        }
      ],
      "name": "flushExternalMessages",
      "outputs": [],
      "stateMutability": "nonpayable",
      "type": "function"
    },
    {
      "inputs": [],
      "name": "getAddressManager",
      "outputs": [
        {
          "internalType": "contract IAddressManager",
          "name": "",
          "type": "address"
        }
      ],
      "stateMutability": "view",
      "type": "function"
    },
    {
      "inputs": [
        {
          "internalType": "bytes32",
          "name": "txId",
          "type": "bytes32"
        }
      ],
      "name": "getPendingTransactionValue",
      "outputs": [
        {
          "internalType": "uint256",
          "name": "",
          "type": "uint256"
        }
      ],
      "stateMutability": "view",
      "type": "function"
    },
    {
      "inputs": [
        {
          "internalType": "address",
          "name": "_addressManager",
          "type": "address"
        }
      ],
      "name": "initialize",
      "outputs": [],
      "stateMutability": "nonpayable",
      "type": "function"
    },
    {
      "inputs": [
        {
          "internalType": "address",
          "name": "addr",
          "type": "address"
        }
      ],
      "name": "isGhostContract",
      "outputs": [
        {
          "internalType": "bool",
          "name": "",
          "type": "bool"
        }
      ],
      "stateMutability": "view",
      "type": "function"
    },
    {
      "inputs": [
        {
          "internalType": "bytes32",
          "name": "_txId",
          "type": "bytes32"
        }
      ],
      "name": "leaderIdleness",
      "outputs": [],
      "stateMutability": "nonpayable",
      "type": "function"
    },
    {
      "inputs": [
        {
          "components": [
            {
              "internalType": "bytes32",
              "name": "txId",
              "type": "bytes32"
            },
            {
              "internalType": "uint256",
              "name": "saltAsAValidator",
              "type": "uint256"
            },
            {
              "internalType": "bytes32",
              "name": "txExecutionHash",
              "type": "bytes32"
            },
            {
              "internalType": "bytes32",
              "name": "messagesAndOtherFieldsHash",
              "type": "bytes32"
            },
            {
              "internalType": "bytes32",
              "name": "otherExecutionFieldsHash",
              "type": "bytes32"
            },
            {
              "internalType": "enum ITransactions.VoteType",
              "name": "resultValue",
              "type": "uint8"
            },
            {
              "components": [
                {
                  "internalType": "enum IMessages.MessageType",
                  "name": "messageType",
                  "type": "uint8"
                },
                {
                  "internalType": "address",
                  "name": "recipient",
                  "type": "address"
                },
                {
                  "internalType": "uint256",
                  "name": "value",
                  "type": "uint256"
                },
                {
                  "internalType": "bytes",
                  "name": "data",
                  "type": "bytes"
                },
                {
                  "internalType": "bool",
                  "name": "onAcceptance",
                  "type": "bool"
                },
                {
                  "internalType": "uint256",
                  "name": "saltNonce",
                  "type": "uint256"
                }
              ],
              "internalType": "struct IMessages.SubmittedMessage[]",
              "name": "messages",
              "type": "tuple[]"
            }
          ],
          "internalType": "struct IConsensusMain.LeaderRevealVoteParams",
          "name": "leaderRevealVoteParams",
          "type": "tuple"
        }
      ],
      "name": "leaderRevealVote",
      "outputs": [],
      "stateMutability": "nonpayable",
      "type": "function"
    },
    {
      "inputs": [],
      "name": "owner",
      "outputs": [
        {
          "internalType": "address",
          "name": "",
          "type": "address"
        }
      ],
      "stateMutability": "view",
      "type": "function"
    },
    {
      "inputs": [],
      "name": "pendingOwner",
      "outputs": [
        {
          "internalType": "address",
          "name": "",
          "type": "address"
        }
      ],
      "stateMutability": "view",
      "type": "function"
    },
    {
      "inputs": [
        {
          "internalType": "bytes32",
          "name": "_txId",
          "type": "bytes32"
        }
      ],
      "name": "processIdleness",
      "outputs": [],
      "stateMutability": "nonpayable",
      "type": "function"
    },
    {
      "inputs": [
        {
          "internalType": "address[]",
          "name": "affectedRecipients",
          "type": "address[]"
        }
      ],
      "name": "promoteNextPendingTransactions",
      "outputs": [],
      "stateMutability": "nonpayable",
      "type": "function"
    },
    {
      "inputs": [
        {
          "internalType": "bytes32",
          "name": "_txId",
          "type": "bytes32"
        },
        {
          "internalType": "bytes32",
          "name": "_txExecutionHash",
          "type": "bytes32"
        },
        {
          "internalType": "uint256",
          "name": "_processingBlock",
          "type": "uint256"
        },
        {
          "internalType": "address",
          "name": "_operator",
          "type": "address"
        },
        {
          "internalType": "bytes",
          "name": "_eqBlocksOutputs",
          "type": "bytes"
        },
        {
          "internalType": "bytes",
          "name": "_vrfProof",
          "type": "bytes"
        }
      ],
      "name": "proposeReceipt",
      "outputs": [],
      "stateMutability": "nonpayable",
      "type": "function"
    },
    {
      "inputs": [
        {
          "internalType": "bytes32[]",
          "name": "_txIds",
          "type": "bytes32[]"
        }
      ],
      "name": "redButtonFinalize",
      "outputs": [],
      "stateMutability": "nonpayable",
      "type": "function"
    },
    {
      "inputs": [
        {
          "internalType": "address",
          "name": "ghost",
          "type": "address"
        }
      ],
      "name": "registerGhostContract",
      "outputs": [],
      "stateMutability": "nonpayable",
      "type": "function"
    },
    {
      "inputs": [],
      "name": "renounceOwnership",
      "outputs": [],
      "stateMutability": "nonpayable",
      "type": "function"
    },
    {
      "inputs": [
        {
          "internalType": "bytes32",
          "name": "_txId",
          "type": "bytes32"
        },
        {
          "internalType": "bytes32",
          "name": "_voteHash",
          "type": "bytes32"
        },
        {
          "internalType": "enum ITransactions.VoteType",
          "name": "_voteType",
          "type": "uint8"
        },
        {
          "internalType": "bytes32",
          "name": "_otherExecutionFieldsHash",
          "type": "bytes32"
        },
        {
          "internalType": "uint256",
          "name": "_nonce",
          "type": "uint256"
        },
        {
          "internalType": "uint256",
          "name": "_validatorIndex",
          "type": "uint256"
        }
      ],
      "name": "revealVote",
      "outputs": [],
      "stateMutability": "nonpayable",
      "type": "function"
    },
    {
      "inputs": [
        {
          "internalType": "address",
          "name": "_addressManager",
          "type": "address"
        }
      ],
      "name": "setAddressManager",
      "outputs": [],
      "stateMutability": "nonpayable",
      "type": "function"
    },
    {
      "inputs": [
        {
          "internalType": "bytes32",
          "name": "_txId",
          "type": "bytes32"
        }
      ],
      "name": "submitAppeal",
      "outputs": [],
      "stateMutability": "payable",
      "type": "function"
    },
    {
      "inputs": [
        {
          "internalType": "address",
          "name": "newOwner",
          "type": "address"
        }
      ],
      "name": "transferOwnership",
      "outputs": [],
      "stateMutability": "nonpayable",
      "type": "function"
    },
    {
      "stateMutability": "payable",
      "type": "receive"
    }
  ],
  "bytecode": "0x6080806040523460d2577ff0c57e16840df040f15088dc2f81fe391c3923bec73e23a9662efc9c229c6a005460ff8160401c1660c1576002600160401b03196001600160401b03821601605c575b604051614b4b90816100d88239f35b6001600160401b0319166001600160401b039081177ff0c57e16840df040f15088dc2f81fe391c3923bec73e23a9662efc9c229c6a005581527fc7f505b2f371ae2175ee4913f4499e1f2633a7b5936321eed1cdaeb6115181d290602090a13880604d565b63f92ee8a960e01b60005260046000fd5b600080fdfe608080604052600436101561001d575b50361561001b57600080fd5b005b600090813560e01c90816303d1491714612536575080630652b57a146124d0578063103abeac146124b457806316c0e8de1461235b5780632af7cb7f146122e25780633ab76e9f1461227a5780633bd15f70146122a15780635492f3021461227a5780635c970d281461206e5780636457bf4814611f3a57806367f7c83a14611eac5780636a9c499d146119ba57806370ba3339146117bf578063715018a61461173e57806379ba5097146116f057806385d2d274146116cd5780638b5de1bc1461123f5780638da5cb5b146112095780639e0c615f14611135578063a560cd0c146110ef578063aa923c0214611037578063b2efda8314610d38578063c4d66de814610b89578063c7e6e76614610adb578063cf0a638414610a52578063e30c397814610a1c578063e71d51961461078c578063f2fde38b14610704578063f5435a1b146105c8578063f5acca71146101ca5763ffa1ad740361000f57346101c757806003193601126101c757506101c360405161019d604082612b2c565b60058152640322e302e360dc1b6020820152604051918291602083526020830190612c64565b0390f35b80fd5b50346101c75760203660031901126101c757600435906001600160401b0382116101c757366023830112156101c75781600401359161020883612b4d565b926102166040519485612b2c565b8084526024602085019160051b830101913683116105c457602401905b8282106105b4575050506102456145d7565b61024d61499b565b90610256614863565b835191939192849291839173__$66ce50c11b4f8ca6e6decb43a984eadcfa$__91906001600160a01b0316835b85518910156105675786546001600160a01b03166102a18a8861324e565b5190853b15610563576040516364aade8f60e11b81526001600160a01b0391909116600482015260248101919091528781604481885af480156104c45790889161054e575b50506102f2898761324e565b516040519061030082612aa4565b8152604051634377ca4160e11b815290516004820152610140816024818b875af188918161051d575b50610372575061036960019161033f8b8961324e565b517fd157a8824e3093207095e0855163da28b596e2c5f19ba73ea473c2346e05b15b8a80a26145b2565b985b0197610283565b6103808a889b97939b61324e565b5160405163255709e560e11b8152600481019190915288816024816001600160a01b0389165afa9081156104ec5789916104fb575b5088546001600160a01b03166103cb888a61324e565b5191873b156104f7576040516318e563ef60e01b8152928b92849283926103f89288919060048601614357565b0381895af480156104ec579089916104d3575b5050610417868861324e565b517f24196ec40f90671b7144e716978686b4f3c7d6b00b23da3971ef2b52af27d87f8980a287546020909101516001600160a01b03918216911661045b878961324e565b5191863b156104cf57908991610485604051948593849363121ad92d60e21b855260048501613278565b0381885af480156104c4579088916104ab575b50506104a56001916145b2565b9461036b565b816104b591612b2c565b6104c0578638610498565b8680fd5b6040513d8a823e3d90fd5b8980fd5b816104dd91612b2c565b6104e857873861040b565b8780fd5b6040513d8b823e3d90fd5b8a80fd5b61051791503d808b833e61050f8183612b2c565b81019061392f565b386103b5565b6105409192506101403d8111610547575b6105388183612b2c565b81019061429a565b9038610329565b503d61052e565b8161055891612b2c565b6104c05786386102e6565b8880fd5b7f3d139c84ad9350b1f396f3d75cb0770c4f495459f8ef8755e5335a12632bac3d60608989938860405192835260208301526040820152a16001600080516020614a968339815191525580f35b8135815260209182019101610233565b8380fd5b50346101c75760203660031901126101c7576004356001600160401b03811161070057366023820112156107005780600401359061060582612b4d565b916106136040519384612b2c565b8083526024602084019160051b830101913683116106fc5790602485939201905b8282106106e95750505061067b8282935061064d6146b4565b6001600160a01b0361065d6146ea565b169060405194858094819363f5435a1b60e01b83526004830161329a565b03925af180156106de578290610699575b610696915061474f565b80f35b503d8083833e6106a98183612b2c565b8101906020818303126106da578051916001600160401b0383116105c457610696926106d59201612dd0565b61068c565b8280fd5b6040513d84823e3d90fd5b8135815285935060209182019101610634565b8480fd5b5080fd5b50346101c75760203660031901126101c75761071e612b64565b6107266146b4565b600080516020614ad683398151915280546001600160a01b0319166001600160a01b03928316908117909155600080516020614a56833981519152549091167f38d16b8cac22d99fc7c124b9cd0de2d3fa1faef420bfe791d8c362d765e227008380a380f35b5060c03660031901126101c7576107a1612b64565b6107a9612b7a565b608435906001600160401b0382116105c4576107cb60a0923690600401612bf6565b926107d46145d7565b6000196001841b018116908115610a1457915b600180851b036107f56147fe565b16916040519061080482612ada565b81526020810191600180871b031682526040810193600180871b031684526060810195338752608082016044358152868301606435815260c084019283526108d660e08501938b855261010086019260a43584526101208701943486526040519c8d9b8c9a8b9a636dada77360e11b8c52602060048d01528f600180911b0390511660248c015260018f81901b0390511660448b01526001808f1b0390511660648a01526001808e1b0390511660848901525160a48801525160c48701525161014060e4870152610164860190612c64565b92516101048501525161012484015251610144830152039134905af19081156106de578291610996575b50608081015115610961578051606082015160408301516001600160a01b03908116929116907fdab9102861c7483a187584d6371d88316f005af507982ccf95c110879f3ed5a58580a45b506001600080516020614a968339815191525580f35b80517f8620e7f03a280a3d2aa84bd41ba19524c2d7f1dbfa9d79cb81877b0f8c963f9b602080840151604051908152a261094b565b905060a0813d60a011610a0c575b816109b160a09383612b2c565b8101031261070057610a016080604051926109cb84612b11565b80518452602081015160208501526109e560408201612d5f565b60408501526109f660608201612d5f565b606085015201612d52565b608082015238610900565b3d91506109a4565b5033916107e7565b50346101c757806003193601126101c757600080516020614ad6833981519152546040516001600160a01b039091168152602090f35b50346101c75760203660031901126101c75780610a6d612b64565b610a756146b4565b6001600160a01b03610a856147fe565b1690813b15610ad7576040516333c298e160e21b81526001600160a01b0390911660048201529082908290602490829084905af180156106de57610ac65750f35b81610ad091612b2c565b6101c75780f35b5050fd5b50346101c75760203660031901126101c757610af56145d7565b805481906001600160a01b031673__$66ce50c11b4f8ca6e6decb43a984eadcfa$__803b15610ad7576040516364aade8f60e11b81526001600160a01b03909216600480840191909152356024830152829082908180604481015b03915af480156106de57610b7457506001600080516020614a968339815191525580f35b81610b7e91612b2c565b6101c757803861094b565b50346101c75760203660031901126101c757610ba3612b64565b600080516020614ab6833981519152549060ff8260401c1615916001600160401b03811680159081610d30575b6001149081610d26575b159081610d1d575b50610d0e5767ffffffffffffffff198116600117600080516020614ab68339815191525582610ce1575b50610c156149e7565b610c1d6149e7565b610c256149e7565b3315610ccd57610c343361492d565b610c3c6149e7565b610c446149e7565b6001600080516020614a968339815191525582546001600160a01b0319166001600160a01b0391909116178255610c785780f35b60ff60401b19600080516020614ab68339815191525416600080516020614ab6833981519152557fc7f505b2f371ae2175ee4913f4499e1f2633a7b5936321eed1cdaeb6115181d2602060405160018152a180f35b631e4fbdf760e01b83526004839052602483fd5b68ffffffffffffffffff19166801000000000000000117600080516020614ab68339815191525538610c0c565b63f92ee8a960e01b8452600484fd5b90501538610be2565b303b159150610bda565b849150610bd0565b50346101c75760203660031901126101c75780600435610d566145d7565b6101406001600160a01b03610d6961499b565b166024604051610d7881612aa4565b8481526040519687938492634377ca4160e11b84525160048401525af19283156106de578293611016575b5060c0830151610f06575b90918291602491836001600160a01b03610dc6614863565b166040519485809263255709e560e11b82528660048301525afa928315610efb578493610edf575b50835473__$66ce50c11b4f8ca6e6decb43a984eadcfa$__93906001600160a01b0316843b15610eb657838691610e3b859460405195869485946318e563ef60e01b865260048601614357565b0381875af4908115610ed4578591610eba575b505060405192827f24196ec40f90671b7144e716978686b4f3c7d6b00b23da3971ef2b52af27d87f8680a284546020909201516001600160a01b0390811693921691813b15610eb65763121ad92d60e21b85528593859384928392610b509260048501613278565b8580fd5b81610ec491612b2c565b610ecf578338610e4e565b505050fd5b6040513d87823e3d90fd5b610ef49193503d8086833e61050f8183612b2c565b9138610dee565b6040513d86823e3d90fd5b6101208301928351600f811015610fd8576005148015611000575b938394600014610f5f575090602491817ff250caa116f9eac0e4e82d403f131ce0a520b6c232dbcbe270b3729b0aaca09e8580a25b93509050610dae565b80935051600f811015610fec5784929190600d03610fa657829350817fe51a41760ba25c8a4ac33894d5eb8698cf110a90d4e6f764fa0579ec8767b46684602495a2610f56565b91509151600f811015610fd857916024916006859403610f565781600080516020614a168339815191528580a2610f56565b634e487b7160e01b84526021600452602484fd5b634e487b7160e01b85526021600452602485fd5b50835193600f851015610fd85793600c14610f21565b6110309193506101403d8111610547576105388183612b2c565b9138610da3565b50346101c75760203660031901126101c757611051612b64565b9060206001600160a01b036110646147fe565b6040516355491e0160e11b81526001600160a01b03909516600486015284916024918391165afa9081156110e35780916110a6575b6020826040519015158152f35b90506020823d6020116110db575b816110c160209383612b2c565b810103126101c757506110d5602091612d52565b38611099565b3d91506110b4565b604051903d90823e3d90fd5b50346101c75760603660031901126101c757611109612b7a565b604435906001600160401b0382116106da5761112c610696923690600401612c14565b91600435613f31565b50346101c75760603660031901126101c75761114f612b64565b906044356001600160401b0381116107005761116f903690600401612bf6565b916001600160a01b036111806148cd565b16331415806111e7575b6111d857818381926020809651920190602435905af1903d156111d2573d906111b282612ba4565b916111c06040519384612b2c565b8252833d92013e5b6040519015158152f35b506111c8565b630fc7a3f360e31b8252600482fd5b50600080516020614a56833981519152546001600160a01b031633141561118a565b50346101c757806003193601126101c757600080516020614a56833981519152546040516001600160a01b039091168152602090f35b5060203660031901126101c7576004356112576145d7565b6001600160a01b03611267614863565b1660405163255709e560e11b81528260048201528381602481855afa908115610efb5784916116b3575b508354604051631bae711d60e21b8152602060048201819052600760248301526641707065616c7360c81b60448301529091829060649082906001600160a01b03165afa908115610ed4578591611679575b5090849060405192839163bcf205f560e01b83526040600484015261130c6044840182516132d4565b61131e60208201516064850190612e35565b61133060408201516084850190612e42565b611342606082015160a4850190612e42565b60808101516001600160a01b0390811660c485015260a0820151811660e485015260c0820151811661010485015260e0820151166101248401526101008101516101448401526101208101516101648401526101408101516101848401526101608101516101a48401526101808101516101c48401526101a08101516101e48401526101c08101516102048401526101e08101516102248401526102008101516102e0610244850152611416906113fe90610324860190612c64565b61022083015185820360431901610264870152612c64565b90610240810151916043198582030161028486015260208084519283815201930190865b818110611639575050506102608101516102a48501526102808101516102c48501526102a08101516102e48501526102c0015161030484015234602484015282900390829084906001600160a01b03165af1908115610efb5784809281948293839084936115b8575b50813b156105c4576064888580946114e26114d897604051988997889662e5a95360e71b885260048801526024870190612e42565b6044850190612e42565b5af180156106de576115a3575b50501561152957506001600160a01b031690600080516020614a768339815191528380a35b6001600080516020614a968339815191525580f35b91905060405160408101348252604060208301528351809152602060608301940190855b81811061158457505050807f08e6523db104b48b6f1a359653498b9739ec31f6e03abb21e7acf4d73f0a48ff9133940390a3611514565b82516001600160a01b031686526020958601959092019160010161154d565b816115ad91612b2c565b6106fc5784386114ef565b95505094505050503d8085833e6115cf8183612b2c565b810160e0828203126106fc578151906001600160401b038211610eb6576115f7918301612dd0565b908461160560408301612d5f565b9261161260808401612d52565b9460a084015193600f8510156105c45760c0015191600f8310156105c457949593386114a3565b9294965092819550606081611667602093600195516040809180518452602081015160208501520151910152565b0195019101908694928a96949261143a565b90506020813d6020116116ab575b8161169460209383612b2c565b810103126106fc576116a590612d5f565b386112e3565b3d9150611687565b6116c791503d8086833e61050f8183612b2c565b38611291565b50346101c75760603660031901126101c757610696604435602435600435613b82565b50346101c757806003193601126101c757600080516020614ad683398151915254336001600160a01b039091160361172b576106963361492d565b63118cdaa760e01b815233600452602490fd5b50346101c757806003193601126101c7576117576146b4565b600080516020614ad683398151915280546001600160a01b0319908116909155600080516020614a568339815191528054918216905581906001600160a01b03167f8be0079c531659141344cd1fd0a4f28419497f9722a3daafe3b4186f6b6457e08280a380f35b50346101c75760203660031901126101c757806004356117dd6145d7565b6117e56147fe565b906024836001600160a01b036117f9614863565b166040519283809263255709e560e11b82528660048301525afa908115610efb5784916119a0575b5060c0810151604051632838322d60e01b8152600481018490523360248201526001600160a01b03918216949091606091839160449183918a91165af1918215610ed45783918693611939575b506040519033837f0a94f6cf3e473cb72e765b24d1365bfcbef8d31a73215bb27e50df39757f578a8980a3604084015115158061192c575b6118fc575b505084546001600160a01b031692915073__$66ce50c11b4f8ca6e6decb43a984eadcfa$__9050803b156106fc57610b509385936040519586948593849363121ad92d60e21b855260048501613278565b60a0015160209384015182526001600160a01b031692600080516020614a3683398151915291a3388181806118ab565b50602084015115156118a6565b915091506060813d606011611998575b8161195660609383612b2c565b810103126106fc57829061198c604080519261197184612abf565b61197a81612d5f565b84526020810151602085015201612d52565b6040820152913861186e565b3d9150611949565b6119b491503d8086833e61050f8183612b2c565b38611821565b50346101c75760203660031901126101c757600435906119d86145d7565b6119e0614863565b6119e86148cd565b926064602060018060a01b0385541660405192838092631bae711d60e21b8252846004830152600f60248301526e4d6573736167655061796d656e747360881b60448301525afa8015610efb5784908190611e70575b60405163255709e560e11b8152600481018590526001600160a01b039182169590935083916024918391165afa908115610efb578491611e56575b506060810151600f811015610fec5760061901611e4757839460018060a01b03169260405163404f7db760e01b8152836004820152602081602481885afa908115611c91578691611e0d575b50611cd8575b60405163aa14aa7360e01b81526004810184905290602082602481885afa8015611c915786928391611c9c575b50611b65575b505060c001516001600160a01b0316823b15610ecf576040516338444e0560e01b815260048101929092526001600160a01b031660248201529082908290604490829084905af180156106de57610b7457506001600080516020614a968339815191525580f35b602060c0840191606460018060a01b03845116604051958693849263165a3c0560e21b84528a600485015260248401528160448401525af1918215611c91578692611c55575b5081611bba575b859150611afe565b80516001600160a01b031690813b156104c057604051635b8346e560e11b8152306004820152602481018490528592889081908390604490829084905af19182611c3a575b5050611c3257516040519283526001600160a01b031691600080516020614a3683398151915290602090a35b3880611bb2565b505050611c2b565b8192945090611c4891612b2c565b6104c05784918738611bff565b955090506020853d602011611c89575b81611c7260209383612b2c565b81010312611c84578594519038611bab565b600080fd5b3d9150611c65565b6040513d88823e3d90fd5b9250506020823d602011611cd0575b81611cb860209383612b2c565b81010312610eb657611cca8692612d52565b38611af8565b3d9150611cab565b60c08201805160405163165a3c0560e21b8152600481018690526001600160a01b03909116602482015260016044820152906020826064818a875af1918215611e02578792611dcb575b5081611d30575b5050611acb565b80516001600160a01b031690813b156104e857604051635b8346e560e11b8152306004820152602481018490528692899081908390604490829084905af19182611db0575b5050611da857516040519283526001600160a01b031691600080516020614a3683398151915290602090a35b3880611d29565b505050611da1565b8192945090611dbe91612b2c565b6104e85785918838611d75565b965090506020863d602011611dfa575b81611de860209383612b2c565b81010312611c84578695519038611d22565b3d9150611ddb565b6040513d89823e3d90fd5b90506020813d602011611e3f575b81611e2860209383612b2c565b81010312610eb657611e3990612d52565b38611ac5565b3d9150611e1b565b63e4e81f7960e01b8452600484fd5b611e6a91503d8086833e61050f8183612b2c565b38611a79565b50506020813d602011611ea4575b81611e8b60209383612b2c565b810103126105c45783611e9f602492612d5f565b611a3e565b3d9150611e7e565b50346101c75760203660031901126101c75760249060206001600160a01b03611ed36147fe565b16604051938480926333fbe41d60e11b825260043560048301525afa9081156110e35790611f07575b602090604051908152f35b506020813d602011611f32575b81611f2160209383612b2c565b81010312611c845760209051611efc565b3d9150611f14565b50346101c75760203660031901126101c7576004356001600160401b038111610700573660238201121561070057806004013590611f7782612b4d565b91611f856040519384612b2c565b8083526024602084019160051b830101913683116106fc57602401905b8282106120565750508254604051631bae711d60e21b8152915060209082906001600160a01b03168180611fd8600482016138c1565b03915afa90811561204b578391612011575b506001600160a01b03163303612003576106969061474f565b6282b42960e81b8252600482fd5b90506020813d602011612043575b8161202c60209383612b2c565b810103126106da5761203d90612d5f565b38611fea565b3d915061201f565b6040513d85823e3d90fd5b6020809161206384612b90565b815201910190611fa2565b50346101c75760203660031901126101c75780600435816001600160a01b036120956146ea565b1660246040516120a481612aa4565b84815260405195869384926323d783ed60e11b84525160048401525af191821561204b578392612192575b5060608201516001600160a01b0316908115158061217c575b61212d575b5050815b60a08201518051821015612129578161210e60a09360019361324e565b51600080516020614a168339815191528680a20190506120f1565b8380f35b60808301516001600160a01b0316918290827f1c717affb0f2d0bd7bccd509af90bc762d34bc45ad812ef154a3f5efdae1ca6b8780a4600080516020614af68339815191528480a338806120ed565b5060808301516001600160a01b031615156120e8565b9091503d8084833e6121a48183612b2c565b8101906020818303126105c4578051906001600160401b0382116106fc570160e0818303126105c457604051916121da83612a3c565b8151600f811015610eb65783526020820151600f811015610eb657602084015261220660408301612d5f565b604084015261221760608301612d5f565b606084015261222860808301612d5f565b608084015260a08201516001600160401b038111610eb6578161224c918401612d73565b60a084015260c08201516001600160401b038111610eb65761226e9201612d73565b60c082015290386120cf565b50346101c757806003193601126101c757546040516001600160a01b039091168152602090f35b50346101c75760c03660031901126101c757604435600581101561070057611514906122cb6145d7565b60a4359060843590606435906024356004356132e1565b50346101c75760c03660031901126101c7576064356001600160a01b0381168103610700576084356001600160401b0381116106da57612326903690600401612c14565b9160a435926001600160401b0384116106fc5761234a610696943690600401612c14565b939092604435602435600435612e4f565b5060c03660031901126101c757612370612b64565b6064356001600160401b0381116106da5761238f903690600401612bf6565b906084359061239c6145d7565b81156124a55760a091906001600160a01b03811690811561249d57915b600180851b036123c76147fe565b1691604051906123d682612ada565b815260208082018881526000196001881b01958616604080850191825233606086019081526024803560808801908152604480358d8a0190815260c08a019e8f5260e08a019a8b5260a480356101008c01908152346101208d019081529751636dada77360e11b8152600481019b909b529a518e16948a019490945296518c169088015293518a166064870152905190981660848501529051968301969096525160c4820152955161014060e488015286948593849390926108d690610164860190612c64565b5033916123b9565b63aceab4a160e01b8452600484fd5b50346101c757806003193601126101c757602060405160648152f35b50346101c75760203660031901126101c7576124ea612b64565b6124f26146b4565b81546001600160a01b0319166001600160a01b039190911690811782557f2e967678ac371453fc8babb3af60134332176ca4334ac0032e7b2a655c72e5a98280a280f35b82346101c75760203660031901126101c757600435916001600160401b0383116107005760e060031984360301126107005761257181612a3c565b826004013581526020810160248401358152604082019360448101358552606083019060648101358252608084016084820135815260a48201359160058310156104c05760a0860192835260c4810135906001600160401b0382116104e8570196366023890112156104c05760048801356125eb81612b4d565b986125f96040519a8b612b2c565b818a5260206004818c019360051b83010101903682116104cf5760248101925b828410612986575050505060c086019788526126336145d7565b8751825161266960405180926126556020830195604087526060840190612c89565b90604083015203601f198101835282612b2c565b519020845103612977576001600160a01b03612683614613565b16928651915192519451955190519860058a101561296357889989979899939261273861275c935192604051956126b987612a88565b86526020860197885260408601998a52606086019b8c52608086019283526126e560a087019182612d46565b60c086019233845260e087019485526040519c8d9b8c9a8b9963bfcc725760e01b8b52602060048c01525160248b01525160448a01525160648901525160848801525160a48701525160c4860190612e35565b516001600160a01b031660e484015251610100610104840152610124830190612c89565b03925af190811561204b578391612874575b5073__$66ce50c11b4f8ca6e6decb43a984eadcfa$__90606081015192600f841015610fec57519260e060018060a01b0360208401511692015191833b15610eb6579390928592604051958693637754369b60e11b85526127d760a48601976004870190612e42565b8560248601526044850152606484015260a060848401528051809552602060c48401910194845b81811061284f575050839450828181925003915af4801561284257612832576001600080516020614a968339815191525580f35b61283b91612b2c565b8181611514565b50604051903d90823e3d90fd5b86516001600160a01b03168352602096870196899650889550909201916001016127fe565b90503d8084833e6128858183612b2c565b8101906020818303126105c4578051906001600160401b0382116106fc5701610100818303126105c457604051916128bc83612a88565b6128c582612d52565b83526128d360208301612d5f565b6020840152604082015160408401526060820151600f811015610eb657606084015260808201516001600160401b038111610eb65781612914918401612d73565b608084015261292560a08301612d52565b60a084015261293660c08301612d5f565b60c084015260e08201516001600160401b038111610eb6576129589201612dd0565b60e08201528361276e565b634e487b7160e01b89526021600452602489fd5b63496189f760e11b8752600487fd5b83356001600160401b038111612a385760049083010160c0601f198236030112612a3857604051906129b782612a6d565b60208101356002811015612a345782526129d360408201612b90565b60208301526060810135604083015260808101356001600160401b038111612a3457612a059060203691840101612bf6565b606083015260a08101358015158103612a3457608083015260c0013560a0820152815260209384019301612619565b8d80fd5b8b80fd5b60e081019081106001600160401b03821117612a5757604052565b634e487b7160e01b600052604160045260246000fd5b60c081019081106001600160401b03821117612a5757604052565b61010081019081106001600160401b03821117612a5757604052565b602081019081106001600160401b03821117612a5757604052565b606081019081106001600160401b03821117612a5757604052565b61014081019081106001600160401b03821117612a5757604052565b608081019081106001600160401b03821117612a5757604052565b60a081019081106001600160401b03821117612a5757604052565b90601f801991011681019081106001600160401b03821117612a5757604052565b6001600160401b038111612a575760051b60200190565b600435906001600160a01b0382168203611c8457565b602435906001600160a01b0382168203611c8457565b35906001600160a01b0382168203611c8457565b6001600160401b038111612a5757601f01601f191660200190565b929192612bcb82612ba4565b91612bd96040519384612b2c565b829481845281830111611c84578281602093846000960137010152565b9080601f83011215611c8457816020612c1193359101612bbf565b90565b9181601f84011215611c84578235916001600160401b038311611c845760208381860195010111611c8457565b60005b838110612c545750506000910152565b8181015183820152602001612c44565b90602091612c7d81518092818552858086019101612c41565b601f01601f1916010190565b9080602083519182815201906020808260051b8501019401926000905b828210612cb557505050505090565b9091929394601f1982820301855285519081516002811015612d30576001928260209392849352848060a01b038383015116838201526040820151604082015260a080612d11606085015160c0606086015260c0850190612c64565b6080808601511515908501529301519101529701950193920190612ca6565b634e487b7160e01b600052602160045260246000fd5b6005821015612d305752565b51908115158203611c8457565b51906001600160a01b0382168203611c8457565b9080601f83011215611c84578151612d8a81612b4d565b92612d986040519485612b2c565b81845260208085019260051b820101928311611c8457602001905b828210612dc05750505090565b8151815260209182019101612db3565b9080601f83011215611c84578151612de781612b4d565b92612df56040519485612b2c565b81845260208085019260051b820101928311611c8457602001905b828210612e1d5750505090565b60208091612e2a84612d5f565b815201910190612e10565b906005821015612d305752565b90600f821015612d305752565b93929491956064989796600097602060018060a01b038a54166040519c8d8092631bae711d60e21b8252846004830152600d60248301526c50726f706f73616c506861736560981b60448301525afa9485156104ec57899a9b8a98999a966131f1575b50908793929160405193612ec585612a88565b8a8552602085019687526040850198338a52606086019c600160a01b60019003168d526080860194855260a08601928784523690612f0292612bbf565b9260c086019384523690612f1592612bbf565b60e0850190815260405163fa319c6560e01b815260206004820152945160248601529551604485015296516001600160a01b039081166064850152995190991660848301525160a4820152935160c4850152955161010060e48501529295869384928391612f8890610124840190612c64565b905182820360231901610104840152612fa19190612c64565b03926001600160a01b03165af191821561204b5783926130f2575b5060e08201516130cc575b8151156130b65773__$66ce50c11b4f8ca6e6decb43a984eadcfa$__906040830151600f811015610fec5761012084015115159360c060018060a01b0360608301511691015192843b156104c05794929091869492604051968795637754369b60e11b875261303e60a48801946004890190612e42565b60248701526044860152606485015260a060848501528151809152602060c48501920190855b818110613091575050508290039082905af480156106de57613084575050565b8161308e91612b2c565b50565b82516001600160a01b0316845288965087955060209384019390920191600101613064565b91600080516020614a16833981519152915080a2565b60608201516001600160a01b031681600080516020614af68339815191528580a3612fc7565b9091503d8084833e6131048183612b2c565b8101906020818303126105c4578051906001600160401b0382116106fc5701610140818303126105c4576040519161313b83612ada565b61314482612d52565b835261315260208301612d5f565b60208401526040820151600f811015610eb657604084015261317660608301612d5f565b60608401526080820151608084015260a082015160a084015260c08201516001600160401b038111610eb657916131b5610120926131e4948301612dd0565b60c08501526131c660e08201612d52565b60e08501526131d86101008201612d5f565b61010085015201612d52565b6101208201529038612fbc565b9192939495509596506020813d602011613236575b8161321360209383612b2c565b810103126104cf579189969594939161322c8894612d5f565b9590919293612eb2565b3d9150613206565b6005811015612d305760f81b9052565b80518210156132625760209160051b010190565b634e487b7160e01b600052603260045260246000fd5b6001600160a01b03918216815291166020820152604081019190915260600190565b602060408183019282815284518094520192019060005b8181106132be5750505090565b82518452602093840193909201916001016132b1565b906006821015612d305752565b93929190918260405160208101906000963360601b8352613305603483018761323e565b84603583015260558201526055815261331f607582612b2c565b519020036138b25783929160c49184906001600160a01b0361333f614613565b16906040516020810191613353838761323e565b602182015260218152613367604182612b2c565b519020986040519361337885612a6d565b89855260208501968752604085019a8b52613397606086019182612d46565b6133d8608086019133835260a087019384526040519c8d998a986320e3d24360e11b8a525160048a0152516024890152516044880152516064870190612e35565b516001600160a01b031660848501525160a48401525af19283156128425781936136d9575b508251156136c357602083019081516134b4575b60018060a01b0361012085015116936101608101519260058410156134a05760409051151591015191600683101561348c5750916134896060927f14d4bda97d7d28622aa0ad6e4d069bb9215b9e2346ecbdf2313b04121da0b68a9461347a6040518095612e35565b602084015260408301906132d4565ba3565b634e487b7160e01b81526021600452602490fd5b634e487b7160e01b83526021600452602483fd5b60e08401805180511561353457507f9c4bf38aa77ce1103eb348ff99a695363c0b42ab316945b0e19906310f2146a26134f86101008701516040519182918261329a565b0390a15160408101516020909101516001600160a01b039161351a919061324e565b511683600080516020614a768339815191528380a3613411565b6101808601519091501561367a5750604051837ff250caa116f9eac0e4e82d403f131ce0a520b6c232dbcbe270b3729b0aaca09e8380a26101c08501516135fb575b508054606085015173__$66ce50c11b4f8ca6e6decb43a984eadcfa$__916001600160a01b039182169116823b156105c45760405163121ad92d60e21b81529284928492839182916135cd918b9160048501613278565b03915af480156106de579082916135e6575b5050613411565b816135f091612b2c565b6101c75780386135df565b8154606086015173__$66ce50c11b4f8ca6e6decb43a984eadcfa$__916001600160a01b039182169116823b156106fc5783859381936084936330a1fa8560e11b845260048401528960248401526044830152600160648301525af480156106de57829061366a575b50613576565b61367391612b2c565b3881613664565b60c085015161368a575b50613411565b60408101516020909101516001600160a01b03916136a8919061324e565b511683600080516020614af68339815191528380a338613684565b600080516020614a1683398151915291925080a2565b9092503d8084833e6136eb8183612b2c565b8101906020818303126105c4578051906001600160401b0382116106fc57016101e0818303126105c457604051916101e083018381106001600160401b0382111761389e5760405261373c82612d52565b835261374a60208301612d52565b602084015260408201516006811015610eb657604084015261376e60608301612d5f565b606084015261377f60808301612d5f565b608084015260a082015160a084015261379a60c08301612d52565b60c084015260e08201516001600160401b038111610eb6578201606081830312610eb657604051906137cb82612abf565b80518252602081015160208301526040810151906001600160401b0382116104e8576137f991849101612dd0565b604082015260e08401526101008201516001600160401b038111610eb65790613823918301612d73565b6101008301526138366101208201612d5f565b61012083015261014081015161014083015261016081015160058110156106fc57613891916101c0916101608501526138726101808201612d52565b6101808501526138856101a08201612d52565b6101a085015201612d52565b6101c082015291386133fd565b634e487b7160e01b86526041600452602486fd5b636aee863360e11b8452600484fd5b60609060208152601160208201527046696e616c697a6174696f6e506861736560781b60408201520190565b81601f82011215611c8457805161390381612ba4565b926139116040519485612b2c565b81845260208284010111611c8457612c119160208085019101612c41565b602081830312611c84578051906001600160401b038211611c8457016102e081830312611c8457604051916102e083018381106001600160401b03821117612a575760405281516006811015611c8457835260208201516005811015611c845760208401526040820151600f811015611c845760408401526060820151600f811015611c845760608401526139c660808301612d5f565b60808401526139d760a08301612d5f565b60a08401526139e860c08301612d5f565b60c08401526139f960e08301612d5f565b60e08401526101008201516101008401526101208201516101208401526101408201516101408401526101608201516101608401526101808201516101808401526101a08201516101a08401526101c08201516101c08401526101e08201516101e08401526102008201516001600160401b038111611c845781613a7e9184016138ed565b6102008401526102208201516001600160401b038111611c845781613aa49184016138ed565b6102208401526102408201516001600160401b038111611c8457820181601f82011215611c8457805190613ad782612b4d565b92613ae56040519485612b2c565b82845260206060818601940283010191818311611c8457602001925b828410613b465750505050906102c0916102408401526102608101516102608401526102808101516102808401526102a08101516102a084015201516102c082015290565b606084830312611c84576020606091604051613b6181612abf565b86518152828701518382015260408701516040820152815201930192613b01565b9190606490602060018060a01b036000541660405193848092631bae711d60e21b8252846004830152600f60248301526e436f6d6d697474696e67506861736560881b60448301525afa918215613ee657600092613ef2575b5060846000928360405191613bef83612af6565b87835260208301948552336040808501918252606085019889525162dab60b60e71b8152935160048501529451602484015293516001600160a01b0390811660448401529551606483015290948593849291165af1908115613ee657600091613d94575b50610120810151613d40575b610100810151613d1d57805115613d195760018060a01b0360a0820151166020820190837fc5dd23f5cc17858ca1e3d0f06cbcc78820753b0dd2fea89d03d0d842192c1531602084511515604051908152a351151580613d03575b613cc2575050565b60e00151600f811015612d305760207fb61dd9b213508bbd8e6c89d7c254d830e0ed7e8cd5bd4163a167a47b12e46e8191613d006040518092612e42565ba2565b5060e0810151600f811015612d30571515613cba565b5050565b604001516001600160a01b031690600080516020614af6833981519152600080a3565b61014081015161016082015160c08301516040519081526001600160a01b03918216929091169084907fb9adb9860846c6726d973e93f6d5994ba6aa797233e2d15851d42e9c68a5dd7290602090a4613c5f565b903d8082843e613da48184612b2c565b820191602081840312610700578051906001600160401b0382116106da570190610180828403126101c7576040519261018084018481106001600160401b03821117613ed257604052613df683612d52565b8452613e0460208401612d52565b6020850152613e1560408401612d5f565b6040850152613e2660608401612d5f565b606085015260808301516001600160401b0381116106da5790613e4a918401612d73565b6080840152613e5b60a08301612d5f565b60a084015260c082015160c084015260e082015190600f8210156101c75750613ec6916101609160e0850152613e946101008201612d52565b610100850152613ea76101208201612d52565b610120850152613eba6101408201612d5f565b61014085015201612d5f565b61016082015238613c53565b634e487b7160e01b83526041600452602483fd5b6040513d6000823e3d90fd5b91506020823d602011613f29575b81613f0d60209383612b2c565b81010312611c84576084613f22600093612d5f565b9250613bdb565b3d9150613f00565b9190926064600094602060018060a01b0387541660405193848092631bae711d60e21b8252846004830152600f60248301526e41637469766174696f6e506861736560881b60448301525afa918215611c915790869392918492614259575b5083613fc360405196613fa288612af6565b888852602088019360018060a01b0316845260408801953387523691612bbf565b606087019081526040516320ffefc560e01b8152602060048201529651602488015291516001600160a01b03908116604488015293519093166064860152516080608486015284928391829061401d9060a4830190612c64565b03926001600160a01b03165af190811561204b578391614159575b5060a0810151614118575b602081015161408c578051156140765761010001516001600160a01b031691600080516020614a768339815191529080a3565b509080600080516020614a1683398151915291a2565b6040519183817f0a94f6cf3e473cb72e765b24d1365bfcbef8d31a73215bb27e50df39757f578a8280a3835460409092015173__$66ce50c11b4f8ca6e6decb43a984eadcfa$__926001600160a01b039182169116833b15610eb657846141068194889694839463121ad92d60e21b855260048501613278565b03915af480156106de57613084575050565b60c081015160e08201516001600160a01b039081169116837ff7861b60d3b514908b00c1461e500857f819123764586496fcddba2eb034c94c8680a4614043565b90503d8084833e61416a8183612b2c565b8101906020818303126105c4578051906001600160401b0382116106fc5701610120818303126105c4576040519161012083018381106001600160401b0382111761389e576040526141bb82612d52565b83526141c960208301612d52565b60208401526141da60408301612d5f565b60408401526060820151606084015260808201516001600160401b038111610eb6579161420f6101009261424d948301612dd0565b608085015261422060a08201612d52565b60a085015261423160c08201612d5f565b60c085015261424260e08201612d5f565b60e085015201612d5f565b61010082015238614038565b91509192506020813d602011614292575b8161427760209383612b2c565b81010312610eb6579061428b869392612d5f565b9038613f90565b3d915061426a565b9081610140910312611c84576000604051916142b583612ada565b6142be81612d52565b83526142cc60208201612d5f565b602084015260408101516040840152606081015160608401526142f160808201612d52565b608084015261430260a08201612d52565b60a084015261431360c08201612d52565b60c084015261432460e08201612d52565b60e0840152610100810151600f8110156106da57610100840152610120015190600f8210156101c7575061012082015290565b926143ef926101209260018060a01b03168552602085015280511515604085015260018060a01b03602082015116606085015260408101516080850152606081015160a08501526080810151151560c085015260a0810151151560e085015260c0810151151561010085015260e08101511515828501526143e2610100820151610140860190612e42565b0151610160830190612e42565b6101a06101808201526144076101a0820183516132d4565b61441a60208301516101c0830190612e35565b61442d60408301516101e0830190612e42565b6144406060830151610200830190612e42565b60808201516001600160a01b0390811661022083015260a0830151811661024083015260c0830151811661026083015260e0830151166102808201526101008201516102a08201526101208201516102c08201526101408201516102e0808301919091526101608301516103008301526101808301516103208301526101a08301516103408301526101c08301516103608301526101e08301516103808301526102008301516103a083019190915261451b9061450290610480840190612c64565b61022084015183820361019f19016103c0850152612c64565b916102408101519261019f19838203016103e08401526020808551928381520194019060005b81811061457e575050506102c0816102606104609301516104008501526102808101516104208501526102a0810151610440850152015191015290565b90919460206060826145a76001948a516040809180518452602081015160208501520151910152565b019601929101614541565b60001981146145c15760010190565b634e487b7160e01b600052601160045260246000fd5b6002600080516020614a968339815191525414614602576002600080516020614a9683398151915255565b633ee5aeb560e01b60005260046000fd5b600054604051631bae711d60e21b8152602060048201819052600e60248301526d52657665616c696e67506861736560901b60448301529091829060649082906001600160a01b03165afa908115613ee65760009161467a575b506001600160a01b031690565b90506020813d6020116146ac575b8161469560209383612b2c565b81010312611c84576146a690612d5f565b3861466d565b3d9150614688565b600080516020614a56833981519152546001600160a01b031633036146d557565b63118cdaa760e01b6000523360045260246000fd5b600054604051631bae711d60e21b8152602060048201819052600d60248301526c49646c656e657373506861736560981b60448301529091829060649082906001600160a01b03165afa908115613ee65760009161467a57506001600160a01b031690565b73__$66ce50c11b4f8ca6e6decb43a984eadcfa$__919060005b81518110156147f85760005b602081106147865750600101614769565b6000546001600160a01b0390811691906147a0848661324e565b5116863b15611c84576040519263121ad92d60e21b84526004840152602483015260006044830152600082606481895af4918215613ee6576001926147e7575b5001614775565b60006147f291612b2c565b386147e0565b50509050565b600054604051631bae711d60e21b8152602060048201819052600d60248301526c4372656174696f6e506861736560981b60448301529091829060649082906001600160a01b03165afa908115613ee65760009161467a57506001600160a01b031690565b600054604051631bae711d60e21b815260206004820181905260126024830152712a3930b739b0b1ba34b7b726b0b730b3b2b960711b60448301529091829060649082906001600160a01b03165afa908115613ee65760009161467a57506001600160a01b031690565b600054604051631bae711d60e21b815260206004820181905260086024830152674d6573736167657360c01b60448301529091829060649082906001600160a01b03165afa908115613ee65760009161467a57506001600160a01b031690565b600080516020614ad683398151915280546001600160a01b0319908116909155600080516020614a5683398151915280549182166001600160a01b0393841690811790915591167f8be0079c531659141344cd1fd0a4f28419497f9722a3daafe3b4186f6b6457e0600080a3565b600054604051631bae711d60e21b81529060209082906001600160a01b031681806149c8600482016138c1565b03915afa908115613ee65760009161467a57506001600160a01b031690565b60ff600080516020614ab68339815191525460401c1615614a0457565b631afcd79f60e31b60005260046000fdfeb9f69df2250e1788b862d0715b1dad98b2a50311c017ebb71f6cd83de656b06dd7d0ee861c0ebf42599b922e8f4ad0cafed951841610157bcd56110f49ced8ee9016d09d72d40fdae2fd8ceac6b6234c7706214fd39c1cd1e609a0528c1993001081f7638e5a02d916250da410b76a0821bdb2b09c574c0f237830409c37d0c89b779b17422d0df92223018b32b4d1fa46e071723d6817e2486d003becc55f00f0c57e16840df040f15088dc2f81fe391c3923bec73e23a9662efc9c229c6a00237e158222e3e6968b72b9db0d8043aacf074ad9f650f0d1606b4d82ee432c0042dd93d103ec25ce3ac597cec3f3aa55b91b52ffa90a04f9e14545f4543e7c48a2646970667358221220353eeb985122e4df1f9d25fa9669f6d82fe2be0be292a0bedfc40201ea06488a64736f6c634300081c0033",
  "linkReferences": {
    "contracts/utils/ConsensusHelpers.sol": {
      "ConsensusHelpers": [
        {
          "length": 20,
          "start": 827
        },
        {
          "length": 20,
          "start": 3036
        },
        {
          "length": 20,
          "start": 3787
        },
        {
          "length": 20,
          "start": 6549
        },
        {
          "length": 20,
          "start": 10313
        },
        {
          "length": 20,
          "start": 12456
        },
        {
          "length": 20,
          "start": 13912
        },
        {
          "length": 20,
          "start": 14044
        },
        {
          "length": 20,
          "start": 16792
        },
        {
          "length": 20,
          "start": 18473
        }
      ]
    }
  },
  "deployedLinkReferences": {
    "contracts/utils/ConsensusHelpers.sol": {
      "ConsensusHelpers": [
        {
          "length": 20,
          "start": 611
        },
        {
          "length": 20,
          "start": 2820
        },
        {
          "length": 20,
          "start": 3571
        },
        {
          "length": 20,
          "start": 6333
        },
        {
          "length": 20,
          "start": 10097
        },
        {
          "length": 20,
          "start": 12240
        },
        {
          "length": 20,
          "start": 13696
        },
        {
          "length": 20,
          "start": 13828
        },
        {
          "length": 20,
          "start": 16576
        },
        {
          "length": 20,
          "start": 18257
        }
      ]
    }
  }
}