{
  "_format": "hh-sol-artifact-1",
  "contractName": "MockRoundsForRevealing",
  "sourceName": "contracts/test-helpers/MockRoundsForRevealing.sol",
  "abi": [
    {
      "inputs": [
        {
          "internalType": "bytes32",
          "name": "txId",
          "type": "bytes32"
        }
      ],
      "name": "decrementRotationsLeft",
      "outputs": [],
      "stateMutability": "nonpayable",
      "type": "function"
    },
    {
      "inputs": [],
      "name": "decrementRotationsLeftCalled",
      "outputs": [
        {
          "internalType": "bool",
          "name": "",
          "type": "bool"
        }
      ],
      "stateMutability": "view",
      "type": "function"
    },
    {
      "inputs": [
        {
          "internalType": "bytes32",
          "name": "txId",
          "type": "bytes32"
        }
      ],
      "name": "getLastRoundData",
      "outputs": [
        {
          "internalType": "uint256",
          "name": "",
          "type": "uint256"
        },
        {
          "components": [
            {
              "internalType": "uint256",
              "name": "round",
              "type": "uint256"
            },
            {
              "internalType": "uint256",
              "name": "leaderIndex",
              "type": "uint256"
            },
            {
              "internalType": "uint256",
              "name": "votesCommitted",
              "type": "uint256"
            },
            {
              "internalType": "uint256",
              "name": "votesRevealed",
              "type": "uint256"
            },
            {
              "internalType": "uint256",
              "name": "appealBond",
              "type": "uint256"
            },
            {
              "internalType": "uint256",
              "name": "rotationsLeft",
              "type": "uint256"
            },
            {
              "internalType": "enum ITransactions.ResultType",
              "name": "result",
              "type": "uint8"
            },
            {
              "internalType": "address[]",
              "name": "roundValidators",
              "type": "address[]"
            },
            {
              "internalType": "enum ITransactions.VoteType[]",
              "name": "validatorVotes",
              "type": "uint8[]"
            },
            {
              "internalType": "bytes32[]",
              "name": "validatorVotesHash",
              "type": "bytes32[]"
            },
            {
              "internalType": "bytes32[]",
              "name": "validatorResultHash",
              "type": "bytes32[]"
            }
          ],
          "internalType": "struct ITransactions.RoundData",
          "name": "",
          "type": "tuple"
        }
      ],
      "stateMutability": "view",
      "type": "function"
    },
    {
      "inputs": [
        {
          "internalType": "bytes32",
          "name": "txId",
          "type": "bytes32"
        }
      ],
      "name": "getRotationsLeft",
      "outputs": [
        {
          "internalType": "uint256",
          "name": "",
          "type": "uint256"
        }
      ],
      "stateMutability": "view",
      "type": "function"
    },
    {
      "inputs": [
        {
          "internalType": "bytes32",
          "name": "txId",
          "type": "bytes32"
        },
        {
          "internalType": "uint256",
          "name": "round",
          "type": "uint256"
        }
      ],
      "name": "getRoundData",
      "outputs": [
        {
          "components": [
            {
              "internalType": "uint256",
              "name": "round",
              "type": "uint256"
            },
            {
              "internalType": "uint256",
              "name": "leaderIndex",
              "type": "uint256"
            },
            {
              "internalType": "uint256",
              "name": "votesCommitted",
              "type": "uint256"
            },
            {
              "internalType": "uint256",
              "name": "votesRevealed",
              "type": "uint256"
            },
            {
              "internalType": "uint256",
              "name": "appealBond",
              "type": "uint256"
            },
            {
              "internalType": "uint256",
              "name": "rotationsLeft",
              "type": "uint256"
            },
            {
              "internalType": "enum ITransactions.ResultType",
              "name": "result",
              "type": "uint8"
            },
            {
              "internalType": "address[]",
              "name": "roundValidators",
              "type": "address[]"
            },
            {
              "internalType": "enum ITransactions.VoteType[]",
              "name": "validatorVotes",
              "type": "uint8[]"
            },
            {
              "internalType": "bytes32[]",
              "name": "validatorVotesHash",
              "type": "bytes32[]"
            },
            {
              "internalType": "bytes32[]",
              "name": "validatorResultHash",
              "type": "bytes32[]"
            }
          ],
          "internalType": "struct ITransactions.RoundData",
          "name": "",
          "type": "tuple"
        }
      ],
      "stateMutability": "view",
      "type": "function"
    },
    {
      "inputs": [
        {
          "internalType": "bytes32",
          "name": "txId",
          "type": "bytes32"
        }
      ],
      "name": "getRoundNumber",
      "outputs": [
        {
          "internalType": "uint256",
          "name": "",
          "type": "uint256"
        }
      ],
      "stateMutability": "view",
      "type": "function"
    },
    {
      "inputs": [],
      "name": "lastDecrementTxId",
      "outputs": [
        {
          "internalType": "bytes32",
          "name": "",
          "type": "bytes32"
        }
      ],
      "stateMutability": "view",
      "type": "function"
    },
    {
      "inputs": [],
      "name": "lastRevealResultVoteHash",
      "outputs": [
        {
          "internalType": "bytes32",
          "name": "",
          "type": "bytes32"
        }
      ],
      "stateMutability": "view",
      "type": "function"
    },
    {
      "inputs": [],
      "name": "lastRevealRound",
      "outputs": [
        {
          "internalType": "uint256",
          "name": "",
          "type": "uint256"
        }
      ],
      "stateMutability": "view",
      "type": "function"
    },
    {
      "inputs": [],
      "name": "lastRevealTxId",
      "outputs": [
        {
          "internalType": "bytes32",
          "name": "",
          "type": "bytes32"
        }
      ],
      "stateMutability": "view",
      "type": "function"
    },
    {
      "inputs": [],
      "name": "lastRevealValidatorIndex",
      "outputs": [
        {
          "internalType": "uint256",
          "name": "",
          "type": "uint256"
        }
      ],
      "stateMutability": "view",
      "type": "function"
    },
    {
      "inputs": [],
      "name": "lastRevealVoteType",
      "outputs": [
        {
          "internalType": "enum ITransactions.VoteType",
          "name": "",
          "type": "uint8"
        }
      ],
      "stateMutability": "view",
      "type": "function"
    },
    {
      "inputs": [],
      "name": "lastUpdateLeaderIndex",
      "outputs": [
        {
          "internalType": "uint256",
          "name": "",
          "type": "uint256"
        }
      ],
      "stateMutability": "view",
      "type": "function"
    },
    {
      "inputs": [],
      "name": "lastUpdateNewLeader",
      "outputs": [
        {
          "internalType": "address",
          "name": "",
          "type": "address"
        }
      ],
      "stateMutability": "view",
      "type": "function"
    },
    {
      "inputs": [],
      "name": "lastUpdateResetVotes",
      "outputs": [
        {
          "internalType": "bool",
          "name": "",
          "type": "bool"
        }
      ],
      "stateMutability": "view",
      "type": "function"
    },
    {
      "inputs": [],
      "name": "lastUpdateRound",
      "outputs": [
        {
          "internalType": "uint256",
          "name": "",
          "type": "uint256"
        }
      ],
      "stateMutability": "view",
      "type": "function"
    },
    {
      "inputs": [],
      "name": "lastUpdateTxId",
      "outputs": [
        {
          "internalType": "bytes32",
          "name": "",
          "type": "bytes32"
        }
      ],
      "stateMutability": "view",
      "type": "function"
    },
    {
      "inputs": [],
      "name": "resetMockState",
      "outputs": [],
      "stateMutability": "nonpayable",
      "type": "function"
    },
    {
      "inputs": [
        {
          "internalType": "bytes32",
          "name": "txId",
          "type": "bytes32"
        },
        {
          "internalType": "uint256",
          "name": "round",
          "type": "uint256"
        },
        {
          "internalType": "uint256",
          "name": "leaderIndex",
          "type": "uint256"
        },
        {
          "internalType": "bytes32",
          "name": "resultHash",
          "type": "bytes32"
        }
      ],
      "name": "setMockLeaderResultHash",
      "outputs": [],
      "stateMutability": "nonpayable",
      "type": "function"
    },
    {
      "inputs": [
        {
          "internalType": "bytes32",
          "name": "txId",
          "type": "bytes32"
        },
        {
          "internalType": "uint256",
          "name": "rotations",
          "type": "uint256"
        }
      ],
      "name": "setMockRotationsLeft",
      "outputs": [],
      "stateMutability": "nonpayable",
      "type": "function"
    },
    {
      "inputs": [
        {
          "internalType": "bytes32",
          "name": "txId",
          "type": "bytes32"
        },
        {
          "internalType": "uint256",
          "name": "round",
          "type": "uint256"
        },
        {
          "internalType": "uint256",
          "name": "leaderIndex",
          "type": "uint256"
        },
        {
          "internalType": "address[]",
          "name": "validators",
          "type": "address[]"
        }
      ],
      "name": "setMockRoundData",
      "outputs": [],
      "stateMutability": "nonpayable",
      "type": "function"
    },
    {
      "inputs": [
        {
          "internalType": "enum ITransactions.ResultType",
          "name": "majorVoted",
          "type": "uint8"
        },
        {
          "internalType": "bool",
          "name": "isLastVote",
          "type": "bool"
        },
        {
          "internalType": "bool",
          "name": "leaderRotated",
          "type": "bool"
        },
        {
          "internalType": "bool",
          "name": "tribunalAppeal",
          "type": "bool"
        },
        {
          "internalType": "enum ITransactions.TransactionStatus",
          "name": "newStatus",
          "type": "uint8"
        },
        {
          "components": [
            {
              "internalType": "uint256",
              "name": "round",
              "type": "uint256"
            },
            {
              "internalType": "uint256",
              "name": "leaderIndex",
              "type": "uint256"
            },
            {
              "internalType": "uint256",
              "name": "votesCommitted",
              "type": "uint256"
            },
            {
              "internalType": "uint256",
              "name": "votesRevealed",
              "type": "uint256"
            },
            {
              "internalType": "uint256",
              "name": "appealBond",
              "type": "uint256"
            },
            {
              "internalType": "uint256",
              "name": "rotationsLeft",
              "type": "uint256"
            },
            {
              "internalType": "enum ITransactions.ResultType",
              "name": "result",
              "type": "uint8"
            },
            {
              "internalType": "address[]",
              "name": "roundValidators",
              "type": "address[]"
            },
            {
              "internalType": "enum ITransactions.VoteType[]",
              "name": "validatorVotes",
              "type": "uint8[]"
            },
            {
              "internalType": "bytes32[]",
              "name": "validatorVotesHash",
              "type": "bytes32[]"
            },
            {
              "internalType": "bytes32[]",
              "name": "validatorResultHash",
              "type": "bytes32[]"
            }
          ],
          "internalType": "struct ITransactions.RoundData",
          "name": "newRoundData",
          "type": "tuple"
        },
        {
          "components": [
            {
              "internalType": "address",
              "name": "slashedLeader",
              "type": "address"
            },
            {
              "internalType": "bytes32",
              "name": "leaderResultHash",
              "type": "bytes32"
            }
          ],
          "internalType": "struct ITransactions.TribunalAppealData",
          "name": "tribunalAppealData",
          "type": "tuple"
        }
      ],
      "name": "setMockUpdateRevealVoteResult",
      "outputs": [],
      "stateMutability": "nonpayable",
      "type": "function"
    },
    {
      "inputs": [
        {
          "internalType": "bytes32",
          "name": "txId",
          "type": "bytes32"
        },
        {
          "internalType": "uint256",
          "name": "round",
          "type": "uint256"
        },
        {
          "internalType": "uint256",
          "name": "validatorIndex",
          "type": "uint256"
        },
        {
          "internalType": "enum ITransactions.VoteType",
          "name": "voteType",
          "type": "uint8"
        }
      ],
      "name": "setMockValidatorVote",
      "outputs": [],
      "stateMutability": "nonpayable",
      "type": "function"
    },
    {
      "inputs": [
        {
          "internalType": "bytes32",
          "name": "txId",
          "type": "bytes32"
        },
        {
          "internalType": "uint256",
          "name": "round",
          "type": "uint256"
        },
        {
          "internalType": "uint256",
          "name": "validatorIndex",
          "type": "uint256"
        },
        {
          "internalType": "bytes32",
          "name": "voteHash",
          "type": "bytes32"
        }
      ],
      "name": "setMockValidatorVoteHash",
      "outputs": [],
      "stateMutability": "nonpayable",
      "type": "function"
    },
    {
      "inputs": [
        {
          "internalType": "bytes32",
          "name": "_txId",
          "type": "bytes32"
        },
        {
          "internalType": "uint256",
          "name": "_round",
          "type": "uint256"
        },
        {
          "internalType": "address",
          "name": "_newLeader",
          "type": "address"
        },
        {
          "internalType": "uint256",
          "name": "_leaderIndex",
          "type": "uint256"
        },
        {
          "internalType": "bool",
          "name": "_resetVotes",
          "type": "bool"
        }
      ],
      "name": "updateLeaderAndResetVotes",
      "outputs": [],
      "stateMutability": "nonpayable",
      "type": "function"
    },
    {
      "inputs": [],
      "name": "updateLeaderCalled",
      "outputs": [
        {
          "internalType": "bool",
          "name": "",
          "type": "bool"
        }
      ],
      "stateMutability": "view",
      "type": "function"
    },
    {
      "inputs": [
        {
          "components": [
            {
              "internalType": "enum ITransactions.ResultType",
              "name": "result",
              "type": "uint8"
            },
            {
              "internalType": "enum ITransactions.VoteType",
              "name": "txExecutionResult",
              "type": "uint8"
            },
            {
              "internalType": "enum ITransactions.TransactionStatus",
              "name": "previousStatus",
              "type": "uint8"
            },
            {
              "internalType": "enum ITransactions.TransactionStatus",
              "name": "status",
              "type": "uint8"
            },
            {
              "internalType": "address",
              "name": "txOrigin",
              "type": "address"
            },
            {
              "internalType": "address",
              "name": "sender",
              "type": "address"
            },
            {
              "internalType": "address",
              "name": "recipient",
              "type": "address"
            },
            {
              "internalType": "address",
              "name": "activator",
              "type": "address"
            },
            {
              "internalType": "uint256",
              "name": "txSlot",
              "type": "uint256"
            },
            {
              "internalType": "uint256",
              "name": "initialRotations",
              "type": "uint256"
            },
            {
              "internalType": "uint256",
              "name": "numOfInitialValidators",
              "type": "uint256"
            },
            {
              "internalType": "uint256",
              "name": "epoch",
              "type": "uint256"
            },
            {
              "internalType": "bytes32",
              "name": "id",
              "type": "bytes32"
            },
            {
              "internalType": "bytes32",
              "name": "randomSeed",
              "type": "bytes32"
            },
            {
              "internalType": "bytes32",
              "name": "txExecutionHash",
              "type": "bytes32"
            },
            {
              "internalType": "bytes32",
              "name": "resultHash",
              "type": "bytes32"
            },
            {
              "internalType": "bytes",
              "name": "txCalldata",
              "type": "bytes"
            },
            {
              "internalType": "bytes",
              "name": "eqBlocksOutputs",
              "type": "bytes"
            },
            {
              "components": [
                {
                  "internalType": "uint256",
                  "name": "activationBlock",
                  "type": "uint256"
                },
                {
                  "internalType": "uint256",
                  "name": "processingBlock",
                  "type": "uint256"
                },
                {
                  "internalType": "uint256",
                  "name": "proposalBlock",
                  "type": "uint256"
                }
              ],
              "internalType": "struct ITransactions.ReadStateBlockRange[]",
              "name": "readStateBlockRanges",
              "type": "tuple[]"
            },
            {
              "internalType": "uint256",
              "name": "validUntil",
              "type": "uint256"
            },
            {
              "internalType": "uint256",
              "name": "value",
              "type": "uint256"
            },
            {
              "internalType": "uint256",
              "name": "lockedStorageUnitPrice",
              "type": "uint256"
            },
            {
              "internalType": "uint256",
              "name": "storageFeeUsed",
              "type": "uint256"
            }
          ],
          "internalType": "struct ITransactions.Transaction",
          "name": "",
          "type": "tuple"
        },
        {
          "internalType": "uint256",
          "name": "_round",
          "type": "uint256"
        },
        {
          "internalType": "uint256",
          "name": "_validatorIndex",
          "type": "uint256"
        },
        {
          "internalType": "bytes32",
          "name": "_resultVoteHash",
          "type": "bytes32"
        },
        {
          "internalType": "address",
          "name": "",
          "type": "address"
        },
        {
          "internalType": "enum ITransactions.VoteType",
          "name": "_voteType",
          "type": "uint8"
        }
      ],
      "name": "updateRevealVote",
      "outputs": [
        {
          "internalType": "enum ITransactions.ResultType",
          "name": "majorVoted",
          "type": "uint8"
        },
        {
          "internalType": "bool",
          "name": "isLastVote",
          "type": "bool"
        },
        {
          "internalType": "bool",
          "name": "leaderRotated",
          "type": "bool"
        },
        {
          "internalType": "bool",
          "name": "tribunalAppeal",
          "type": "bool"
        },
        {
          "internalType": "enum ITransactions.TransactionStatus",
          "name": "newStatus",
          "type": "uint8"
        },
        {
          "components": [
            {
              "internalType": "uint256",
              "name": "round",
              "type": "uint256"
            },
            {
              "internalType": "uint256",
              "name": "leaderIndex",
              "type": "uint256"
            },
            {
              "internalType": "uint256",
              "name": "votesCommitted",
              "type": "uint256"
            },
            {
              "internalType": "uint256",
              "name": "votesRevealed",
              "type": "uint256"
            },
            {
              "internalType": "uint256",
              "name": "appealBond",
              "type": "uint256"
            },
            {
              "internalType": "uint256",
              "name": "rotationsLeft",
              "type": "uint256"
            },
            {
              "internalType": "enum ITransactions.ResultType",
              "name": "result",
              "type": "uint8"
            },
            {
              "internalType": "address[]",
              "name": "roundValidators",
              "type": "address[]"
            },
            {
              "internalType": "enum ITransactions.VoteType[]",
              "name": "validatorVotes",
              "type": "uint8[]"
            },
            {
              "internalType": "bytes32[]",
              "name": "validatorVotesHash",
              "type": "bytes32[]"
            },
            {
              "internalType": "bytes32[]",
              "name": "validatorResultHash",
              "type": "bytes32[]"
            }
          ],
          "internalType": "struct ITransactions.RoundData",
          "name": "newRoundData",
          "type": "tuple"
        },
        {
          "components": [
            {
              "internalType": "address",
              "name": "slashedLeader",
              "type": "address"
            },
            {
              "internalType": "bytes32",
              "name": "leaderResultHash",
              "type": "bytes32"
            }
          ],
          "internalType": "struct ITransactions.TribunalAppealData",
          "name": "tribunalAppealData",
          "type": "tuple"
        }
      ],
      "stateMutability": "nonpayable",
      "type": "function"
    },
    {
      "inputs": [],
      "name": "updateRevealVoteCalled",
      "outputs": [
        {
          "internalType": "bool",
          "name": "",
          "type": "bool"
        }
      ],
      "stateMutability": "view",
      "type": "function"
    }
  ],
  "bytecode": "0x608080604052346015576127c8908161001b8239f35b600080fdfe6080604052600436101561001257600080fd5b60003560e01c80630d023911146116ef5780630f2c01ad146116d15780631b7a9be7146116b35780631e0d497a1461169057806320090e9d1461161a5780635110c5a0146115fc57806351af47be146115c2578063554918941461159f5780635a11577c146115815780635af544691461153157806364431f071461150f578063665b7541146114f15780636e72b812146114a0578063830c8bfa1461147857806384c2483114611409578063885875131461134c5780638ff08e921461132657806390fc6aa9146113035780639158561714611273578063aa9c702c14611255578063ba15d63514611229578063bc628c2b1461120b578063c159bfc314610e36578063d7360c9a14610dc9578063db3c2aac14610da0578063e6cc39701461019f578063f3c5afdd146101815763f66530b91461015057600080fd5b3461017c57602036600319011261017c5760043560005260026020526020604060002054604051908152f35b600080fd5b3461017c57600036600319011261017c576020600b54604051908152f35b3461017c5760c036600319011261017c576004356001600160401b03811161017c576102e0600319823603011261017c57604051906102e082018281106001600160401b03821117610d8a576040528060040135600681101561017c5782526024810135600581101561017c5760208301526044810135600f81101561017c5760408301526064810135600f81101561017c57606083015261024360848201611dcf565b608083015261025460a48201611dcf565b60a083015261026560c48201611dcf565b60c083015261027660e48201611dcf565b60e08301526101048101356101008301526101248101356101208301526101448101356101408301526101648101356101608301526101848101356101808301526101a48101356101a08301526101c48101356101c08301526101e48101356101e08301526102048101356001600160401b03811161017c576102ff906004369184010161203e565b6102008301526102248101356001600160401b03811161017c57610329906004369184010161203e565b6102208301526102448101356001600160401b03811161017c5781013660238201121561017c57600481013561035e81611da2565b9161036c6040519384611d81565b8183526020600460608286019402830101019036821161017c57602401915b818310610d3b57856102c06102c487876102408501526102648101356102608501526102848101356102808501526102a48101356102a085015201359101526103d2611db9565b5060a435600581101561017c576103e76120c3565b50600060206040516103f881611d66565b828152015261010061ff00196008541617600855602435600a55604435600b55606435600c5560009060ff8019600d5416911617600d55600d5460ff8160281c166040519261044684611d4a565b600e548452600f54602085015260105460408501526011546060850152601254608085015260135460a085015260ff601454166006811015610d275760c0850152604051808160206015549283815201601585526020852092855b818110610d055750506104b692500382611d81565b60e085015260405180816020601654928381520160168552602085209285905b80601f830110610a7c576105ec945491818110610a61575b818110610a43575b818110610a25575b818110610a07575b8181106109ea575b8181106109cc575b8181106109ae575b818110610990575b818110610972575b818110610954575b818110610936575b818110610918575b8181106108fa575b8181106108dc575b8181106108be575b8181106108a0575b818110610882575b818110610864575b818110610846575b818110610828575b81811061080a575b8181106107ec575b8181106107ce575b8181106107b0575b818110610792575b818110610774575b818110610756575b818110610738575b81811061071a575b8181106106fc575b8181106106de575b106106c7575b500382611d81565b6101008501526105fc601761211b565b61012085015261060c601861211b565b6101408501526040519161061f83611d66565b60018060a01b03601954168352601a54916020840192835260ff6040519561064c87838360081c16611ed9565b818160101c1615156020880152818160181c161515604088015260201c1615156060860152600f8210156106b35750839461069991608086015261010060a0860152610100850190611f27565b91516001600160a01b031660c08401525160e08301520390f35b634e487b7160e01b81526021600452602490fd5b906106d78160209360f81c611ee6565b01886105e4565b926020816106f460019360ff8760f01c16611ee6565b0193016105de565b9260208161071260019360ff8760e81c16611ee6565b0193016105d6565b9260208161073060019360ff8760e01c16611ee6565b0193016105ce565b9260208161074e60019360ff8760d81c16611ee6565b0193016105c6565b9260208161076c60019360ff8760d01c16611ee6565b0193016105be565b9260208161078a60019360ff8760c81c16611ee6565b0193016105b6565b926020816107a860019360ff8760c01c16611ee6565b0193016105ae565b926020816107c660019360ff8760b81c16611ee6565b0193016105a6565b926020816107e460019360ff8760b01c16611ee6565b01930161059e565b9260208161080260019360ff8760a81c16611ee6565b019301610596565b9260208161082060019360ff8760a01c16611ee6565b01930161058e565b9260208161083e60019360ff8760981c16611ee6565b019301610586565b9260208161085c60019360ff8760901c16611ee6565b01930161057e565b9260208161087a60019360ff8760881c16611ee6565b019301610576565b9260208161089860019360ff8760801c16611ee6565b01930161056e565b926020816108b660019360ff8760781c16611ee6565b019301610566565b926020816108d460019360ff8760701c16611ee6565b01930161055e565b926020816108f260019360ff8760681c16611ee6565b019301610556565b9260208161091060019360ff8760601c16611ee6565b01930161054e565b9260208161092e60019360ff8760581c16611ee6565b019301610546565b9260208161094c60019360ff8760501c16611ee6565b01930161053e565b9260208161096a60019360ff8760481c16611ee6565b019301610536565b9260208161098860019360ff8760401c16611ee6565b01930161052e565b926020816109a660019360ff8760381c16611ee6565b019301610526565b926020816109c460019360ff8760301c16611ee6565b01930161051e565b926020816109e260019360ff8760281c16611ee6565b019301610516565b926020816109ff60019360ff87851c16611ee6565b01930161050e565b92602081610a1d60019360ff8760181c16611ee6565b019301610506565b92602081610a3b60019360ff8760101c16611ee6565b0193016104fe565b92602081610a5960019360ff8760081c16611ee6565b0193016104f6565b92602081610a7460019360ff8716611ee6565b0193016104ee565b916020919350610400600191610cf78754610a9a8360ff8316611ee6565b610aac86840160ff8360081c16611ee6565b610abf6040840160ff8360101c16611ee6565b610ad26060840160ff8360181c16611ee6565b610ae46080840160ff83891c16611ee6565b610af760a0840160ff8360281c16611ee6565b610b0a60c0840160ff8360301c16611ee6565b610b1d60e0840160ff8360381c16611ee6565b610b31610100840160ff8360401c16611ee6565b610b45610120840160ff8360481c16611ee6565b610b59610140840160ff8360501c16611ee6565b610b6d610160840160ff8360581c16611ee6565b610b81610180840160ff8360601c16611ee6565b610b956101a0840160ff8360681c16611ee6565b610ba96101c0840160ff8360701c16611ee6565b610bbd6101e0840160ff8360781c16611ee6565b610bd1610200840160ff8360801c16611ee6565b610be5610220840160ff8360881c16611ee6565b610bf9610240840160ff8360901c16611ee6565b610c0d610260840160ff8360981c16611ee6565b610c21610280840160ff8360a01c16611ee6565b610c356102a0840160ff8360a81c16611ee6565b610c496102c0840160ff8360b01c16611ee6565b610c5d6102e0840160ff8360b81c16611ee6565b610c71610300840160ff8360c01c16611ee6565b610c85610320840160ff8360c81c16611ee6565b610c99610340840160ff8360d01c16611ee6565b610cad610360840160ff8360d81c16611ee6565b610cc1610380840160ff8360e01c16611ee6565b610cd56103a0840160ff8360e81c16611ee6565b610ce96103c0840160ff8360f01c16611ee6565b6103e083019060f81c611ee6565b0194019201849293916104d6565b84546001600160a01b03168352600194850194869450602090930192016104a1565b634e487b7160e01b82526021600452602482fd5b60608336031261017c576040519060608201908282106001600160401b03831117610d8a576060926020926040528535815282860135838201526040860135604082015281520192019161038b565b634e487b7160e01b600052604160045260246000fd5b3461017c57600036600319011261017c576006546040516001600160a01b039091168152602090f35b3461017c57602036600319011261017c57600435600160ff19601b541617601b5580601c55806000526002602052604060002054610e0357005b6000526002602052604060002080548015610e2057600019019055005b634e487b7160e01b600052601160045260246000fd5b3461017c57608036600319011261017c576024356004356064356001600160401b03811161017c57610e6c903690600401611de3565b6000828152602081815260408083208690556001808352818420878552909252909120848155604435918101919091558151906007016001600160401b038211610d8a57600160401b8211610d8a5780548282558083106111ed575b506020830190600052602060002060005b8381106111d05750505050610eee8151612760565b82600052600160205260406000208460005260205260096040600020018151916001600160401b038311610d8a57600160401b8311610d8a5781548383558084106111a7575b5060200190600052602060002060005b8381106111935750505050610f598151612760565b826000526001602052604060002084600052602052600a6040600020018151916001600160401b038311610d8a57600160401b8311610d8a57815483835580841061116a575b5060200190600052602060002060005b83811061115657505050505191610fde610fc884611da2565b93610fd66040519586611d81565b808552611da2565b602084019290601f1901368437600052600160205260406000209060005260205260086040600020019151906001600160401b038211610d8a57600160401b8211610d8a578254828455808310611106575b509160005260206000208160051c9160005b8381106110b95750601f19811690038061105857005b9260009360005b81811061106d575050500155005b909194855160058110156110a357611099602091846001949060ff809160031b9316831b921b19161790565b960192910161105f565b634e487b7160e01b600052602160045260246000fd5b6000805b602081106110d2575083820155600101611042565b9590815160058110156110a3576110fd602091896001949060ff809160031b9316831b921b19161790565b920196016110bd565b61113390846000526020600020601f80860160051c82019281871680611139575b500160051c0190612094565b83611030565b6000198501908154906000199060200360031b1c16905588611127565b600190602084519401938184015501610faf565b8260005283602060002091820191015b8181106111875750610f9f565b6000815560010161117a565b600190602084519401938184015501610f44565b8260005283602060002091820191015b8181106111c45750610f34565b600081556001016111b7565b82516001600160a01b031681830155602090920191600101610ed9565b61120590826000528360206000209182019101612094565b85610ec8565b3461017c57600036600319011261017c576020601c54604051908152f35b3461017c57602036600319011261017c5760043560005260006020526020604060002054604051908152f35b3461017c57600036600319011261017c576020600754604051908152f35b3461017c57608036600319011261017c57604435606435600581101561017c576004356000526001602052604060002060243560005260205260086040600020019081548310156112ed576112e991600052601f60206000208460051c01931683549060ff809160031b9316831b921b19161790565b9055005b634e487b7160e01b600052603260045260246000fd5b3461017c57600036600319011261017c57602060ff601b54166040519015158152f35b3461017c57600036600319011261017c57602060ff60085460081c166040519015158152f35b3461017c5760a036600319011261017c576044356001600160a01b03811690600435906024359083900361017c57606435906084359283151580940361017c576113e993600160ff19600354161760035581600455826005558560018060a01b031960065416176006558360075560ff801960085416911617600855600052600160205260406000209060005260205260076040600020016120ab565b81546001600160a01b0360039290921b91821b191692901b919091179055005b3461017c57602036600319011261017c576004356114256120c3565b508060005260006020526040600020549060005260016020526040600020816000526020526114576040600020612168565b906114746040519283928352604060208401526040830190611f27565b0390f35b3461017c57600036600319011261017c57602060ff600d541661149e6040518092611ee6565bf35b3461017c576114da6112e96114b436611ea5565b94926000929192526001602052604060002090600052602052600a6040600020016120ab565b819391549060031b91821b91600019901b19161790565b3461017c57600036600319011261017c576020600554604051908152f35b3461017c5761151d36611ec3565b906000526002602052604060002055600080f35b3461017c5761153f36611ec3565b906115486120c3565b50600052600160205260406000209060005260205261147461156d6040600020612168565b604051918291602083526020830190611f27565b3461017c57600036600319011261017c576020600954604051908152f35b3461017c57600036600319011261017c57602060ff600854166040519015158152f35b3461017c576114da6112e96115d636611ea5565b9492600092919252600160205260406000209060005260205260096040600020016120ab565b3461017c57600036600319011261017c576020600a54604051908152f35b3461017c57600036600319011261017c5760ff19600354166003556000600455600060055560018060a01b031960065416600655600060075561ffff196008541660085560006009556000600a556000600b556000600c5560ff19600d5416600d5560ff19601b5416601b556000601c55600080f35b3461017c57600036600319011261017c57602060ff600354166040519015158152f35b3461017c57600036600319011261017c576020600454604051908152f35b3461017c57600036600319011261017c576020600c54604051908152f35b3461017c5761010036600319011261017c576006600435101561017c57602435801515810361017c57604435801515810361017c5760643591821515830361017c57600f608435101561017c5760a4356001600160401b03811161017c57610160600319823603011261017c576117666080611d4a565b6004810135608052602481013560a052604481013560c052606481013560e05260848101356101005260a48101356101205260c4810135600681101561017c576101405260e48101356001600160401b03811161017c576117cd9060043691840101611de3565b610160526101048101356001600160401b03811161017c5781013660238201121561017c57600481013561180081611da2565b9161180e6040519384611d81565b818352602060048185019360051b830101019036821161017c57602401915b818310611d3157505050610180526101248101356001600160401b03811161017c5761185f9060043691840101611e48565b6101a052610144810135906001600160401b03821161017c5760046118879236920101611e48565b6101c05260403660c319011261017c57604051926118a484611d66565b60c4356001600160a01b038116810361017c57845260e435602080860191909152600d805492151590911b64ff000000001693151560181b63ff0000001665ffffffffff001990921660043560081b61ff001617921515601090811b62ff00001693909317919091179290921760843560281b65ff00000000001617909155608051600e5560a051600f5560c051905560e0516011556101005160125561012051601355610140516000906006811015610d275760ff80196014541691161760145560e0608001518051906001600160401b038211611b7b57600160401b8211611b7b5760209060155483601555808410611d16575b5060158452017f55f448fdea98c4d29eb340757ef0a66cd03dbb9538908a6a81d96026b71ec475835b838110611cf9578585610100608001518051906001600160401b038211611b7b57600160401b8211611b7b5760209060165483601655808410611cad575b500160168352602083208260051c91845b838110611c4c5750601f1984169093039283611be7575b50506101a0518051925090506001600160401b038211611b7b57600160401b8211611b7b5760175482601755808310611ba3575b50601783526020017fc624b66cc0138b8fabc209247f72d758e1cf3343756d543badbf24212bed8c15835b838110611b8f576101c051805190869088906001600160401b038411611b7b57600160401b8411611b7b5760185484601855808510611b37575b5060188352602001927fb13d2d76d1f4b7be834882e410b3e3a8afaf69f83600ae24db354391d2378d2e835b828110611b23578351601980546001600160a01b0319166001600160a01b03929092169190911790556020840151601a558480f35b600190602087519701968184015501611aee565b601884527fb13d2d76d1f4b7be834882e410b3e3a8afaf69f83600ae24db354391d2378d2e9081019085015b818110611b705750611ac2565b848155600101611b63565b634e487b7160e01b83526041600452602483fd5b600190602084519401938184015501611a88565b601784527fc624b66cc0138b8fabc209247f72d758e1cf3343756d543badbf24212bed8c159081019083015b818110611bdc5750611a5d565b848155600101611bcf565b849385905b808210611c0157505050015582808080611a29565b9091948551906005821015611c3857611c2e600192856020939060ff809160031b9316831b921b19161790565b9601920190611bec565b634e487b7160e01b88526021600452602488fd5b85865b60208110611c64575083820155600101611a12565b92908151906005821015611c9957611c90600192866020939060ff809160031b9316831b921b19161790565b92019301611c4f565b634e487b7160e01b89526021600452602489fd5b611cd79060168652838620601f80870160051c82019281881680611cdd57500160051c0190612094565b85611a01565b600019850190815490600019908a0360031b1c1690558a611127565b82516001600160a01b0316818301556020909201916001016119c3565b60158552828520611d2b918101908501612094565b8561199a565b8235600581101561017c5781526020928301920161182d565b61016081019081106001600160401b03821117610d8a57604052565b604081019081106001600160401b03821117610d8a57604052565b90601f801991011681019081106001600160401b03821117610d8a57604052565b6001600160401b038111610d8a5760051b60200190565b608435906001600160a01b038216820361017c57565b35906001600160a01b038216820361017c57565b9080601f8301121561017c578135611dfa81611da2565b92611e086040519485611d81565b81845260208085019260051b82010192831161017c57602001905b828210611e305750505090565b60208091611e3d84611dcf565b815201910190611e23565b9080601f8301121561017c578135611e5f81611da2565b92611e6d6040519485611d81565b81845260208085019260051b82010192831161017c57602001905b828210611e955750505090565b8135815260209182019101611e88565b608090600319011261017c5760043590602435906044359060643590565b604090600319011261017c576004359060243590565b9060068210156110a35752565b9060058210156110a35752565b906020808351928381520192019060005b818110611f115750505090565b8251845260209384019390920191600101611f04565b919091610160830192815181526020820151602082015260408201516040820152606082015160608201526080820151608082015260a082015160a0820152611f7860c083015160c0830190611ed9565b60e08201519361016060e083015284518091526020610180830195019060005b81811061201f57505050610100820151938181036101008301526020808651928381520195019060005b81811061200057505050610140611feb611ffd9495610120850151848203610120860152611ef3565b92015190610140818403910152611ef3565b90565b909195602080826120146001948b51611ee6565b019701929101611fc2565b82516001600160a01b0316875260209687019690920191600101611f98565b81601f8201121561017c578035906001600160401b038211610d8a5760405192612072601f8401601f191660200185611d81565b8284526020838301011161017c57816000926020809301838601378301015290565b81811061209f575050565b60008155600101612094565b80548210156112ed5760005260206000200190600090565b604051906120d082611d4a565b60606101408360008152600060208201526000604082015260008382015260006080820152600060a0820152600060c08201528260e082015282610100820152826101208201520152565b906040519182815491828252602082019060005260206000209260005b81811061214f57505061214d92500383611d81565b565b8454835260019485019487945060209093019201612138565b9060405161217581611d4a565b80928054825260018101546020830152600281015460408301526003810154606083015260048101546080830152600581015460a083015260ff60068201541660068110156110a35760c0830152600781016040518082602082945493848152019060005260206000209260005b81811061273e5750506121f892500382611d81565b60e0830152600881016040519081602082549182815201916000526020600020906000915b81601f8401106127185784600a94610140979461235e97946123409454918181106126fd575b8181106126df575b8181106126c1575b8181106126a3575b818110612686575b818110612668575b81811061264a575b81811061262c575b81811061260e575b8181106125f0575b8181106125d2575b8181106125b4575b818110612596575b818110612578575b81811061255a575b81811061253c575b81811061251e575b818110612500575b8181106124e2575b8181106124c4575b8181106124a6575b818110612488575b81811061246a575b81811061244c575b81811061242e575b818110612410575b8181106123f2575b8181106123d4575b8181106123b6575b818110612398575b81811061237a575b1061236357500382611d81565b6101008601526123526009820161211b565b6101208601520161211b565b910152565b906123738160209360f81c611ee6565b01386105e4565b9260208161239060019360ff8760f01c16611ee6565b019301612333565b926020816123ae60019360ff8760e81c16611ee6565b01930161232b565b926020816123cc60019360ff8760e01c16611ee6565b019301612323565b926020816123ea60019360ff8760d81c16611ee6565b01930161231b565b9260208161240860019360ff8760d01c16611ee6565b019301612313565b9260208161242660019360ff8760c81c16611ee6565b01930161230b565b9260208161244460019360ff8760c01c16611ee6565b019301612303565b9260208161246260019360ff8760b81c16611ee6565b0193016122fb565b9260208161248060019360ff8760b01c16611ee6565b0193016122f3565b9260208161249e60019360ff8760a81c16611ee6565b0193016122eb565b926020816124bc60019360ff8760a01c16611ee6565b0193016122e3565b926020816124da60019360ff8760981c16611ee6565b0193016122db565b926020816124f860019360ff8760901c16611ee6565b0193016122d3565b9260208161251660019360ff8760881c16611ee6565b0193016122cb565b9260208161253460019360ff8760801c16611ee6565b0193016122c3565b9260208161255260019360ff8760781c16611ee6565b0193016122bb565b9260208161257060019360ff8760701c16611ee6565b0193016122b3565b9260208161258e60019360ff8760681c16611ee6565b0193016122ab565b926020816125ac60019360ff8760601c16611ee6565b0193016122a3565b926020816125ca60019360ff8760581c16611ee6565b01930161229b565b926020816125e860019360ff8760501c16611ee6565b019301612293565b9260208161260660019360ff8760481c16611ee6565b01930161228b565b9260208161262460019360ff8760401c16611ee6565b019301612283565b9260208161264260019360ff8760381c16611ee6565b01930161227b565b9260208161266060019360ff8760301c16611ee6565b019301612273565b9260208161267e60019360ff8760281c16611ee6565b01930161226b565b9260208161269b60019360ff87851c16611ee6565b019301612263565b926020816126b960019360ff8760181c16611ee6565b01930161225b565b926020816126d760019360ff8760101c16611ee6565b019301612253565b926020816126f560019360ff8760081c16611ee6565b01930161224b565b9260208161271060019360ff8716611ee6565b019301612243565b9260016104006020926127338754610a9a8360ff8316611ee6565b01940192019161221d565b84546001600160a01b03168352600194850194869450602090930192016121e3565b9061276a82611da2565b6127776040519182611d81565b8281528092612788601f1991611da2565b019060203691013756fea2646970667358221220b728a7356240e7700067eaba2f4663a3d4377f79199215527c65f7dea993615464736f6c634300081c0033",
  "linkReferences": {},
  "deployedLinkReferences": {}
}