{
  "_format": "hh-sol-artifact-1",
  "contractName": "StakingBan",
  "sourceName": "contracts/staking/StakingBan.sol",
  "abi": [
    {
      "inputs": [],
      "name": "AccessControlBadConfirmation",
      "type": "error"
    },
    {
      "inputs": [
        {
          "internalType": "address",
          "name": "account",
          "type": "address"
        },
        {
          "internalType": "bytes32",
          "name": "neededRole",
          "type": "bytes32"
        }
      ],
      "name": "AccessControlUnauthorizedAccount",
      "type": "error"
    },
    {
      "inputs": [],
      "name": "InvalidAtEpoch",
      "type": "error"
    },
    {
      "inputs": [],
      "name": "InvalidInitialization",
      "type": "error"
    },
    {
      "inputs": [],
      "name": "NotInitializing",
      "type": "error"
    },
    {
      "inputs": [],
      "name": "OnlyIdleness",
      "type": "error"
    },
    {
      "inputs": [],
      "name": "OnlyIdlenessOrTribunal",
      "type": "error"
    },
    {
      "inputs": [],
      "name": "OnlyTribunal",
      "type": "error"
    },
    {
      "inputs": [
        {
          "internalType": "address",
          "name": "owner",
          "type": "address"
        }
      ],
      "name": "OwnableInvalidOwner",
      "type": "error"
    },
    {
      "inputs": [
        {
          "internalType": "address",
          "name": "account",
          "type": "address"
        }
      ],
      "name": "OwnableUnauthorizedAccount",
      "type": "error"
    },
    {
      "inputs": [],
      "name": "ReentrancyGuardReentrantCall",
      "type": "error"
    },
    {
      "anonymous": false,
      "inputs": [],
      "name": "AllValidatorBansRemoved",
      "type": "event"
    },
    {
      "anonymous": false,
      "inputs": [
        {
          "indexed": false,
          "internalType": "uint64",
          "name": "version",
          "type": "uint64"
        }
      ],
      "name": "Initialized",
      "type": "event"
    },
    {
      "anonymous": false,
      "inputs": [
        {
          "indexed": true,
          "internalType": "address",
          "name": "previousOwner",
          "type": "address"
        },
        {
          "indexed": true,
          "internalType": "address",
          "name": "newOwner",
          "type": "address"
        }
      ],
      "name": "OwnershipTransferStarted",
      "type": "event"
    },
    {
      "anonymous": false,
      "inputs": [
        {
          "indexed": true,
          "internalType": "address",
          "name": "previousOwner",
          "type": "address"
        },
        {
          "indexed": true,
          "internalType": "address",
          "name": "newOwner",
          "type": "address"
        }
      ],
      "name": "OwnershipTransferred",
      "type": "event"
    },
    {
      "anonymous": false,
      "inputs": [
        {
          "indexed": false,
          "internalType": "uint256",
          "name": "startIndex",
          "type": "uint256"
        },
        {
          "indexed": false,
          "internalType": "uint256",
          "name": "processedCount",
          "type": "uint256"
        },
        {
          "indexed": false,
          "internalType": "uint256",
          "name": "nextIndex",
          "type": "uint256"
        }
      ],
      "name": "QuarantinesCleanedUp",
      "type": "event"
    },
    {
      "anonymous": false,
      "inputs": [
        {
          "indexed": true,
          "internalType": "bytes32",
          "name": "role",
          "type": "bytes32"
        },
        {
          "indexed": true,
          "internalType": "bytes32",
          "name": "previousAdminRole",
          "type": "bytes32"
        },
        {
          "indexed": true,
          "internalType": "bytes32",
          "name": "newAdminRole",
          "type": "bytes32"
        }
      ],
      "name": "RoleAdminChanged",
      "type": "event"
    },
    {
      "anonymous": false,
      "inputs": [
        {
          "indexed": true,
          "internalType": "bytes32",
          "name": "role",
          "type": "bytes32"
        },
        {
          "indexed": true,
          "internalType": "address",
          "name": "account",
          "type": "address"
        },
        {
          "indexed": true,
          "internalType": "address",
          "name": "sender",
          "type": "address"
        }
      ],
      "name": "RoleGranted",
      "type": "event"
    },
    {
      "anonymous": false,
      "inputs": [
        {
          "indexed": true,
          "internalType": "bytes32",
          "name": "role",
          "type": "bytes32"
        },
        {
          "indexed": true,
          "internalType": "address",
          "name": "account",
          "type": "address"
        },
        {
          "indexed": true,
          "internalType": "address",
          "name": "sender",
          "type": "address"
        }
      ],
      "name": "RoleRevoked",
      "type": "event"
    },
    {
      "anonymous": false,
      "inputs": [
        {
          "indexed": false,
          "internalType": "address",
          "name": "validator",
          "type": "address"
        }
      ],
      "name": "ValidatorBanRemoved",
      "type": "event"
    },
    {
      "anonymous": false,
      "inputs": [
        {
          "indexed": false,
          "internalType": "address",
          "name": "validator",
          "type": "address"
        }
      ],
      "name": "ValidatorBannedDeterministic",
      "type": "event"
    },
    {
      "anonymous": false,
      "inputs": [
        {
          "indexed": false,
          "internalType": "address",
          "name": "validator",
          "type": "address"
        }
      ],
      "name": "ValidatorQuarantineRemoved",
      "type": "event"
    },
    {
      "anonymous": false,
      "inputs": [
        {
          "indexed": false,
          "internalType": "address",
          "name": "validator",
          "type": "address"
        },
        {
          "indexed": false,
          "internalType": "uint256",
          "name": "quarantinedAt",
          "type": "uint256"
        }
      ],
      "name": "ValidatorQuarantined",
      "type": "event"
    },
    {
      "anonymous": false,
      "inputs": [
        {
          "indexed": false,
          "internalType": "uint256",
          "name": "count",
          "type": "uint256"
        }
      ],
      "name": "ValidatorsRegistered",
      "type": "event"
    },
    {
      "inputs": [],
      "name": "DEFAULT_ADMIN_ROLE",
      "outputs": [
        {
          "internalType": "bytes32",
          "name": "",
          "type": "bytes32"
        }
      ],
      "stateMutability": "view",
      "type": "function"
    },
    {
      "inputs": [],
      "name": "DEFAULT_DELEGATOR_MIN_STAKE",
      "outputs": [
        {
          "internalType": "uint256",
          "name": "",
          "type": "uint256"
        }
      ],
      "stateMutability": "view",
      "type": "function"
    },
    {
      "inputs": [],
      "name": "DEFAULT_VALIDATOR_MIN_STAKE",
      "outputs": [
        {
          "internalType": "uint256",
          "name": "",
          "type": "uint256"
        }
      ],
      "stateMutability": "view",
      "type": "function"
    },
    {
      "inputs": [],
      "name": "DELEGATOR_UNBONDING_PERIOD",
      "outputs": [
        {
          "internalType": "uint256",
          "name": "",
          "type": "uint256"
        }
      ],
      "stateMutability": "view",
      "type": "function"
    },
    {
      "inputs": [],
      "name": "INFLATION_BASE",
      "outputs": [
        {
          "internalType": "uint256",
          "name": "",
          "type": "uint256"
        }
      ],
      "stateMutability": "view",
      "type": "function"
    },
    {
      "inputs": [],
      "name": "INFLATION_DEEPTHOUGHT_BPS",
      "outputs": [
        {
          "internalType": "uint256",
          "name": "",
          "type": "uint256"
        }
      ],
      "stateMutability": "view",
      "type": "function"
    },
    {
      "inputs": [],
      "name": "INFLATION_DEVELOPER_BPS",
      "outputs": [
        {
          "internalType": "uint256",
          "name": "",
          "type": "uint256"
        }
      ],
      "stateMutability": "view",
      "type": "function"
    },
    {
      "inputs": [],
      "name": "INFLATION_FINAL",
      "outputs": [
        {
          "internalType": "uint256",
          "name": "",
          "type": "uint256"
        }
      ],
      "stateMutability": "view",
      "type": "function"
    },
    {
      "inputs": [],
      "name": "INFLATION_INITIAL",
      "outputs": [
        {
          "internalType": "uint256",
          "name": "",
          "type": "uint256"
        }
      ],
      "stateMutability": "view",
      "type": "function"
    },
    {
      "inputs": [],
      "name": "INFLATION_MID",
      "outputs": [
        {
          "internalType": "int256",
          "name": "",
          "type": "int256"
        }
      ],
      "stateMutability": "view",
      "type": "function"
    },
    {
      "inputs": [],
      "name": "INFLATION_STAKER_BPS",
      "outputs": [
        {
          "internalType": "uint256",
          "name": "",
          "type": "uint256"
        }
      ],
      "stateMutability": "view",
      "type": "function"
    },
    {
      "inputs": [],
      "name": "INFLATION_STEEPNESS",
      "outputs": [
        {
          "internalType": "int256",
          "name": "",
          "type": "int256"
        }
      ],
      "stateMutability": "view",
      "type": "function"
    },
    {
      "inputs": [],
      "name": "INFLATION_VALIDATOR_BPS",
      "outputs": [
        {
          "internalType": "uint256",
          "name": "",
          "type": "uint256"
        }
      ],
      "stateMutability": "view",
      "type": "function"
    },
    {
      "inputs": [],
      "name": "L1_MESSENGER",
      "outputs": [
        {
          "internalType": "contract IL1Messenger",
          "name": "",
          "type": "address"
        }
      ],
      "stateMutability": "view",
      "type": "function"
    },
    {
      "inputs": [],
      "name": "QUARANTINE_MANAGER_ROLE",
      "outputs": [
        {
          "internalType": "bytes32",
          "name": "",
          "type": "bytes32"
        }
      ],
      "stateMutability": "view",
      "type": "function"
    },
    {
      "inputs": [],
      "name": "SLASH_CALLER_INCENTIVE_BPS",
      "outputs": [
        {
          "internalType": "uint256",
          "name": "",
          "type": "uint256"
        }
      ],
      "stateMutability": "view",
      "type": "function"
    },
    {
      "inputs": [],
      "name": "VALIDATOR_UNBONDING_PERIOD",
      "outputs": [
        {
          "internalType": "uint256",
          "name": "",
          "type": "uint256"
        }
      ],
      "stateMutability": "view",
      "type": "function"
    },
    {
      "inputs": [],
      "name": "acceptOwnership",
      "outputs": [],
      "stateMutability": "nonpayable",
      "type": "function"
    },
    {
      "inputs": [],
      "name": "addressManager",
      "outputs": [
        {
          "internalType": "contract IAddressManager",
          "name": "",
          "type": "address"
        }
      ],
      "stateMutability": "view",
      "type": "function"
    },
    {
      "inputs": [
        {
          "internalType": "address[]",
          "name": "validatorAddresses",
          "type": "address[]"
        }
      ],
      "name": "adminRegisterValidators",
      "outputs": [],
      "stateMutability": "nonpayable",
      "type": "function"
    },
    {
      "inputs": [],
      "name": "burning",
      "outputs": [
        {
          "internalType": "uint256",
          "name": "",
          "type": "uint256"
        }
      ],
      "stateMutability": "view",
      "type": "function"
    },
    {
      "inputs": [
        {
          "internalType": "uint256",
          "name": "_startIndex",
          "type": "uint256"
        },
        {
          "internalType": "uint256",
          "name": "_maxIterations",
          "type": "uint256"
        }
      ],
      "name": "cleanupExpiredQuarantines",
      "outputs": [
        {
          "internalType": "uint256",
          "name": "processedCount",
          "type": "uint256"
        },
        {
          "internalType": "uint256",
          "name": "nextIndex",
          "type": "uint256"
        }
      ],
      "stateMutability": "nonpayable",
      "type": "function"
    },
    {
      "inputs": [],
      "name": "deepthought",
      "outputs": [
        {
          "internalType": "address payable",
          "name": "",
          "type": "address"
        }
      ],
      "stateMutability": "view",
      "type": "function"
    },
    {
      "inputs": [],
      "name": "delegatorMinStake",
      "outputs": [
        {
          "internalType": "uint256",
          "name": "",
          "type": "uint256"
        }
      ],
      "stateMutability": "view",
      "type": "function"
    },
    {
      "inputs": [],
      "name": "epoch",
      "outputs": [
        {
          "internalType": "uint256",
          "name": "",
          "type": "uint256"
        }
      ],
      "stateMutability": "view",
      "type": "function"
    },
    {
      "inputs": [],
      "name": "epochEven",
      "outputs": [
        {
          "internalType": "uint256",
          "name": "start",
          "type": "uint256"
        },
        {
          "internalType": "uint256",
          "name": "end",
          "type": "uint256"
        },
        {
          "internalType": "uint256",
          "name": "inflation",
          "type": "uint256"
        },
        {
          "internalType": "uint256",
          "name": "weight",
          "type": "uint256"
        },
        {
          "internalType": "uint256",
          "name": "weightDeposit",
          "type": "uint256"
        },
        {
          "internalType": "uint256",
          "name": "weightWithdrawal",
          "type": "uint256"
        },
        {
          "internalType": "uint256",
          "name": "vcount",
          "type": "uint256"
        },
        {
          "internalType": "uint256",
          "name": "claimed",
          "type": "uint256"
        },
        {
          "internalType": "uint256",
          "name": "stakeDeposit",
          "type": "uint256"
        },
        {
          "internalType": "uint256",
          "name": "stakeWithdrawal",
          "type": "uint256"
        },
        {
          "internalType": "uint256",
          "name": "slashed",
          "type": "uint256"
        }
      ],
      "stateMutability": "view",
      "type": "function"
    },
    {
      "inputs": [],
      "name": "epochExtraMinDuration",
      "outputs": [
        {
          "internalType": "uint256",
          "name": "",
          "type": "uint256"
        }
      ],
      "stateMutability": "view",
      "type": "function"
    },
    {
      "inputs": [],
      "name": "epochMinDuration",
      "outputs": [
        {
          "internalType": "uint256",
          "name": "",
          "type": "uint256"
        }
      ],
      "stateMutability": "view",
      "type": "function"
    },
    {
      "inputs": [],
      "name": "epochMinDurationThreshold",
      "outputs": [
        {
          "internalType": "uint256",
          "name": "",
          "type": "uint256"
        }
      ],
      "stateMutability": "view",
      "type": "function"
    },
    {
      "inputs": [],
      "name": "epochOdd",
      "outputs": [
        {
          "internalType": "uint256",
          "name": "start",
          "type": "uint256"
        },
        {
          "internalType": "uint256",
          "name": "end",
          "type": "uint256"
        },
        {
          "internalType": "uint256",
          "name": "inflation",
          "type": "uint256"
        },
        {
          "internalType": "uint256",
          "name": "weight",
          "type": "uint256"
        },
        {
          "internalType": "uint256",
          "name": "weightDeposit",
          "type": "uint256"
        },
        {
          "internalType": "uint256",
          "name": "weightWithdrawal",
          "type": "uint256"
        },
        {
          "internalType": "uint256",
          "name": "vcount",
          "type": "uint256"
        },
        {
          "internalType": "uint256",
          "name": "claimed",
          "type": "uint256"
        },
        {
          "internalType": "uint256",
          "name": "stakeDeposit",
          "type": "uint256"
        },
        {
          "internalType": "uint256",
          "name": "stakeWithdrawal",
          "type": "uint256"
        },
        {
          "internalType": "uint256",
          "name": "slashed",
          "type": "uint256"
        }
      ],
      "stateMutability": "view",
      "type": "function"
    },
    {
      "inputs": [],
      "name": "epochZeroMinDuration",
      "outputs": [
        {
          "internalType": "uint256",
          "name": "",
          "type": "uint256"
        }
      ],
      "stateMutability": "view",
      "type": "function"
    },
    {
      "inputs": [],
      "name": "finalizationPhaseAddress",
      "outputs": [
        {
          "internalType": "address",
          "name": "",
          "type": "address"
        }
      ],
      "stateMutability": "view",
      "type": "function"
    },
    {
      "inputs": [],
      "name": "finalized",
      "outputs": [
        {
          "internalType": "uint256",
          "name": "",
          "type": "uint256"
        }
      ],
      "stateMutability": "view",
      "type": "function"
    },
    {
      "inputs": [
        {
          "internalType": "bytes32",
          "name": "role",
          "type": "bytes32"
        }
      ],
      "name": "getRoleAdmin",
      "outputs": [
        {
          "internalType": "bytes32",
          "name": "",
          "type": "bytes32"
        }
      ],
      "stateMutability": "view",
      "type": "function"
    },
    {
      "inputs": [
        {
          "internalType": "address",
          "name": "_account",
          "type": "address"
        }
      ],
      "name": "grantQuarantineManagerRole",
      "outputs": [],
      "stateMutability": "nonpayable",
      "type": "function"
    },
    {
      "inputs": [
        {
          "internalType": "bytes32",
          "name": "role",
          "type": "bytes32"
        },
        {
          "internalType": "address",
          "name": "account",
          "type": "address"
        }
      ],
      "name": "grantRole",
      "outputs": [],
      "stateMutability": "nonpayable",
      "type": "function"
    },
    {
      "inputs": [
        {
          "internalType": "bytes32",
          "name": "role",
          "type": "bytes32"
        },
        {
          "internalType": "address",
          "name": "account",
          "type": "address"
        }
      ],
      "name": "hasRole",
      "outputs": [
        {
          "internalType": "bool",
          "name": "",
          "type": "bool"
        }
      ],
      "stateMutability": "view",
      "type": "function"
    },
    {
      "inputs": [
        {
          "internalType": "address",
          "name": "_validator",
          "type": "address"
        },
        {
          "internalType": "uint256",
          "name": "_quarantinedAt",
          "type": "uint256"
        },
        {
          "internalType": "uint256",
          "name": "_quarantinedUntil",
          "type": "uint256"
        },
        {
          "internalType": "bytes32",
          "name": "_txId",
          "type": "bytes32"
        }
      ],
      "name": "idlenessBan",
      "outputs": [],
      "stateMutability": "nonpayable",
      "type": "function"
    },
    {
      "inputs": [
        {
          "internalType": "address[]",
          "name": "_validators",
          "type": "address[]"
        },
        {
          "internalType": "uint256",
          "name": "_quarantinedAt",
          "type": "uint256"
        },
        {
          "internalType": "uint256",
          "name": "_quarantinedUntil",
          "type": "uint256"
        },
        {
          "internalType": "bytes32",
          "name": "_txId",
          "type": "bytes32"
        }
      ],
      "name": "idlenessBanBatch",
      "outputs": [],
      "stateMutability": "nonpayable",
      "type": "function"
    },
    {
      "inputs": [],
      "name": "idlenessPhaseAddress",
      "outputs": [
        {
          "internalType": "address",
          "name": "",
          "type": "address"
        }
      ],
      "stateMutability": "view",
      "type": "function"
    },
    {
      "inputs": [],
      "name": "inflationEpoch",
      "outputs": [
        {
          "internalType": "uint256",
          "name": "",
          "type": "uint256"
        }
      ],
      "stateMutability": "view",
      "type": "function"
    },
    {
      "inputs": [],
      "name": "inflationRequestThreshold",
      "outputs": [
        {
          "internalType": "uint256",
          "name": "",
          "type": "uint256"
        }
      ],
      "stateMutability": "view",
      "type": "function"
    },
    {
      "inputs": [
        {
          "internalType": "uint256",
          "name": "",
          "type": "uint256"
        }
      ],
      "name": "inflationRequested",
      "outputs": [
        {
          "internalType": "bool",
          "name": "",
          "type": "bool"
        }
      ],
      "stateMutability": "view",
      "type": "function"
    },
    {
      "inputs": [],
      "name": "inflationSupply",
      "outputs": [
        {
          "internalType": "uint256",
          "name": "",
          "type": "uint256"
        }
      ],
      "stateMutability": "view",
      "type": "function"
    },
    {
      "inputs": [],
      "name": "inflationTargetAhead",
      "outputs": [
        {
          "internalType": "uint256",
          "name": "",
          "type": "uint256"
        }
      ],
      "stateMutability": "view",
      "type": "function"
    },
    {
      "inputs": [],
      "name": "l2GasLimit",
      "outputs": [
        {
          "internalType": "uint256",
          "name": "",
          "type": "uint256"
        }
      ],
      "stateMutability": "view",
      "type": "function"
    },
    {
      "inputs": [],
      "name": "l2GasPrice",
      "outputs": [
        {
          "internalType": "uint256",
          "name": "",
          "type": "uint256"
        }
      ],
      "stateMutability": "view",
      "type": "function"
    },
    {
      "inputs": [],
      "name": "maxValidators",
      "outputs": [
        {
          "internalType": "uint256",
          "name": "",
          "type": "uint256"
        }
      ],
      "stateMutability": "view",
      "type": "function"
    },
    {
      "inputs": [
        {
          "internalType": "address",
          "name": "",
          "type": "address"
        }
      ],
      "name": "operatorsToValidators",
      "outputs": [
        {
          "internalType": "address",
          "name": "",
          "type": "address"
        }
      ],
      "stateMutability": "view",
      "type": "function"
    },
    {
      "inputs": [],
      "name": "owner",
      "outputs": [
        {
          "internalType": "address",
          "name": "",
          "type": "address"
        }
      ],
      "stateMutability": "view",
      "type": "function"
    },
    {
      "inputs": [],
      "name": "pendingOwner",
      "outputs": [
        {
          "internalType": "address",
          "name": "",
          "type": "address"
        }
      ],
      "stateMutability": "view",
      "type": "function"
    },
    {
      "inputs": [],
      "name": "pendingRequestInflationFromL1",
      "outputs": [
        {
          "internalType": "bool",
          "name": "",
          "type": "bool"
        }
      ],
      "stateMutability": "view",
      "type": "function"
    },
    {
      "inputs": [],
      "name": "reductionFactor",
      "outputs": [
        {
          "internalType": "uint256",
          "name": "",
          "type": "uint256"
        }
      ],
      "stateMutability": "view",
      "type": "function"
    },
    {
      "inputs": [],
      "name": "removeAllValidatorBans",
      "outputs": [],
      "stateMutability": "nonpayable",
      "type": "function"
    },
    {
      "inputs": [],
      "name": "removeAllValidatorBansExceptPermanent",
      "outputs": [],
      "stateMutability": "nonpayable",
      "type": "function"
    },
    {
      "inputs": [
        {
          "internalType": "address",
          "name": "_validator",
          "type": "address"
        }
      ],
      "name": "removeValidatorBan",
      "outputs": [],
      "stateMutability": "nonpayable",
      "type": "function"
    },
    {
      "inputs": [
        {
          "internalType": "address",
          "name": "_validator",
          "type": "address"
        }
      ],
      "name": "removeValidatorQuarantine",
      "outputs": [],
      "stateMutability": "nonpayable",
      "type": "function"
    },
    {
      "inputs": [],
      "name": "renounceOwnership",
      "outputs": [],
      "stateMutability": "nonpayable",
      "type": "function"
    },
    {
      "inputs": [
        {
          "internalType": "bytes32",
          "name": "role",
          "type": "bytes32"
        },
        {
          "internalType": "address",
          "name": "callerConfirmation",
          "type": "address"
        }
      ],
      "name": "renounceRole",
      "outputs": [],
      "stateMutability": "nonpayable",
      "type": "function"
    },
    {
      "inputs": [],
      "name": "revealingPhaseAddress",
      "outputs": [
        {
          "internalType": "address",
          "name": "",
          "type": "address"
        }
      ],
      "stateMutability": "view",
      "type": "function"
    },
    {
      "inputs": [
        {
          "internalType": "address",
          "name": "_account",
          "type": "address"
        }
      ],
      "name": "revokeQuarantineManagerRole",
      "outputs": [],
      "stateMutability": "nonpayable",
      "type": "function"
    },
    {
      "inputs": [
        {
          "internalType": "bytes32",
          "name": "role",
          "type": "bytes32"
        },
        {
          "internalType": "address",
          "name": "account",
          "type": "address"
        }
      ],
      "name": "revokeRole",
      "outputs": [],
      "stateMutability": "nonpayable",
      "type": "function"
    },
    {
      "inputs": [],
      "name": "stakingInvariant",
      "outputs": [
        {
          "internalType": "address",
          "name": "",
          "type": "address"
        }
      ],
      "stateMutability": "view",
      "type": "function"
    },
    {
      "inputs": [
        {
          "internalType": "bytes4",
          "name": "interfaceId",
          "type": "bytes4"
        }
      ],
      "name": "supportsInterface",
      "outputs": [
        {
          "internalType": "bool",
          "name": "",
          "type": "bool"
        }
      ],
      "stateMutability": "view",
      "type": "function"
    },
    {
      "inputs": [],
      "name": "transactionFeesManager",
      "outputs": [
        {
          "internalType": "address",
          "name": "",
          "type": "address"
        }
      ],
      "stateMutability": "view",
      "type": "function"
    },
    {
      "inputs": [
        {
          "internalType": "address",
          "name": "newOwner",
          "type": "address"
        }
      ],
      "name": "transferOwnership",
      "outputs": [],
      "stateMutability": "nonpayable",
      "type": "function"
    },
    {
      "inputs": [
        {
          "internalType": "address",
          "name": "_validator",
          "type": "address"
        }
      ],
      "name": "validatorBanDeterministic",
      "outputs": [],
      "stateMutability": "nonpayable",
      "type": "function"
    },
    {
      "inputs": [],
      "name": "validatorMinStake",
      "outputs": [
        {
          "internalType": "uint256",
          "name": "",
          "type": "uint256"
        }
      ],
      "stateMutability": "view",
      "type": "function"
    },
    {
      "inputs": [
        {
          "internalType": "address",
          "name": "_validator",
          "type": "address"
        },
        {
          "internalType": "uint256",
          "name": "_quarantinedAt",
          "type": "uint256"
        },
        {
          "internalType": "bytes32",
          "name": "_txId",
          "type": "bytes32"
        }
      ],
      "name": "validatorQuarantine",
      "outputs": [],
      "stateMutability": "nonpayable",
      "type": "function"
    },
    {
      "inputs": [
        {
          "internalType": "address",
          "name": "_validator",
          "type": "address"
        }
      ],
      "name": "validatorQuarantineRepeal",
      "outputs": [],
      "stateMutability": "nonpayable",
      "type": "function"
    },
    {
      "inputs": [
        {
          "internalType": "uint256",
          "name": "",
          "type": "uint256"
        }
      ],
      "name": "validatorsEven",
      "outputs": [
        {
          "internalType": "address",
          "name": "",
          "type": "address"
        }
      ],
      "stateMutability": "view",
      "type": "function"
    },
    {
      "inputs": [
        {
          "internalType": "uint256",
          "name": "",
          "type": "uint256"
        }
      ],
      "name": "validatorsJoined",
      "outputs": [
        {
          "internalType": "address",
          "name": "",
          "type": "address"
        }
      ],
      "stateMutability": "view",
      "type": "function"
    },
    {
      "inputs": [
        {
          "internalType": "uint256",
          "name": "",
          "type": "uint256"
        }
      ],
      "name": "validatorsOdd",
      "outputs": [
        {
          "internalType": "address",
          "name": "",
          "type": "address"
        }
      ],
      "stateMutability": "view",
      "type": "function"
    },
    {
      "inputs": [
        {
          "internalType": "uint256",
          "name": "",
          "type": "uint256"
        }
      ],
      "name": "weightsEven",
      "outputs": [
        {
          "internalType": "uint256",
          "name": "",
          "type": "uint256"
        }
      ],
      "stateMutability": "view",
      "type": "function"
    },
    {
      "inputs": [
        {
          "internalType": "uint256",
          "name": "",
          "type": "uint256"
        }
      ],
      "name": "weightsOdd",
      "outputs": [
        {
          "internalType": "uint256",
          "name": "",
          "type": "uint256"
        }
      ],
      "stateMutability": "view",
      "type": "function"
    }
  ],
  "bytecode": "0x60808060405234601557612829908161001b8239f35b600080fdfe608080604052600436101561001357600080fd5b600090813560e01c90816301ffc9a714611d645750806308ac525614611d465780630a3cfb1314611ce05780630ab07e8814611cc25780630ee34fd514611b04578063112822d814611acf5780631538faf214611ab157806318a3b88214611a825780631bc2359a14611a64578063217fcc3e146112b85780632272e0ab14611a4657806324147f6714611a2857806324840a5e146119ff578063248a9ca3146119d857806326ed4c70146119b55780632f2ff15d1461198357806336568abe1461193e5780633ab76e9f146119155780633fde6d7b146118f757806344b0d8d8146118cd5780634971ec02146118aa5780634c12b33f1461188c5780634f2938fc1461186357806354acf9181461170b578063624a4485146116ed5780636378eba3146116d057806365c7dd4a1461169b57806367604d271461167d578063715018a6146115fc578063746e4ac7146115a05780637492100f1461157e57806379ba5097146114cf5780637a5d2660146114a65780637d0b49061461135d5780637e1233a914611340578063837725951461132357806387e51da9146112bd5780638b7e92a6146112b85780638da5cb5b14611282578063900cf0cf14611264578063900fd9ce146111f457806391bc99701461108357806391d148541461102d5780639424f76114610ec557806396be02a714610e7f5780639ae3668514610e61578063a01ebaa114610e3d578063a217fddf14610e21578063a8027c1014610dfe578063abfd6fa914610dda578063ac78a04b14610dbd578063b03df1f014610d7c578063b3f05b9714610d5e578063bc338e7f14610d42578063c0a604ad14610d24578063c32459a114610bb9578063c498c95b14610b94578063cb17452f14610b6b578063cd38347f14610b44578063cd85623514610b26578063cf6e65b714610b08578063d547741f14610acd578063d582a34b14610a75578063d7ef354414610a4c578063d9cb2943146108ac578063da7a9b6a1461088e578063de8eec6414610865578063e30c39781461082f578063e3c6b0ca14610811578063f2fde38b14610789578063f85683ef14610760578063fad76f6414610652578063fafebac514610608578063fb6fe776146105c45763fd8d8f361461035a57600080fd5b3461056b578060031936011261056b576103726121ca565b8061037e603854612162565b9181925b6038548410156104b15761039584611dee565b905460039190911b1c6001600160a01b0316808452603a6020526040842054600019146104a0578084526039602052836040812055808452603a602052836040812055808452603b60205283604081205580845260336020526005604085208560048201550160ff198154169055603854600019810190811161048c5761041e61045d91611dee565b905460039190911b1c6001600160a01b031661043987611dee565b9080546001600160a01b0360039390931b83811b199091169290931690921b179055565b610465611f82565b610470603654611fd9565b60365561048661047f84611ef3565b938361210c565b52610382565b634e487b7160e01b85526011600452602485fd5b50926104ab90611ef3565b92610382565b92506104bc81612162565b92825b82811061059c57506001600160a01b0391506104db90506124fe565b1691823b156105985760405190631a58e04360e31b825260248201602060048401528151809152602060448401920190845b81811061057957505050818394818581819503925af1801561056e57610556575b50807f59dd5c64d1987c202422ae7f4a43661c8a5c1bc51299a1c3dd35c1546ee1842c91a180f35b8161056091611e57565b61056b57803861052e565b80fd5b6040513d84823e3d90fd5b82516001600160a01b031684526020938401939092019160010161050d565b5080fd5b6001906001600160a01b036105b1828561210c565b51166105bd828861210c565b52016104bf565b503461056b57602036600319011261056b576004359060455482101561056b5760206105ef83611dbd565b905460405160039290921b1c6001600160a01b03168152f35b503461056b578060031936011261056b576014546015549061064e601654601754601854601954601a54601b5491601c5493601d5495601e54976040519b8c9b8c611ea7565b0390f35b503461056b57602036600319011261056b5761066c611e09565b6001600160a01b0361067c61257d565b163303610751576001600160a01b0316808252603b602052604082205482916001821661074a57601f5b73__$a9930a26518626f1cf41cf7d897563c531$__82855260336020526040852060315491603254948752603a6020526040872054813b15610746578795610104946040519889978896639adecea560e01b88526004880152602f6024880152604487015260366064870152608486015260a485015260c484015260e48301525af4801561056e576107355750f35b8161073f91611e57565b61056b5780f35b8780fd5b60146106a6565b63811befe960e01b8252600482fd5b503461056b578060031936011261056b57604a546040516001600160a01b039091168152602090f35b503461056b57602036600319011261056b576107a3611e09565b6107ab612194565b6000805160206127b483398151915280546001600160a01b0319166001600160a01b03928316908117909155600080516020612734833981519152549091167f38d16b8cac22d99fc7c124b9cd0de2d3fa1faef420bfe791d8c362d765e227008380a380f35b503461056b578060031936011261056b576020600354604051908152f35b503461056b578060031936011261056b576000805160206127b4833981519152546040516001600160a01b039091168152602090f35b503461056b578060031936011261056b576046546040516001600160a01b039091168152602090f35b503461056b578060031936011261056b576020604254604051908152f35b503461056b578060031936011261056b576108c56121ca565b6001600160a01b036108d56124fe565b1690813b1561056b57604051631a58e04360e31b8152602060048201526038805460248301819052908352604482019060008051602061271483398151915290845b818110610a2d57505050818394818581819503925af1801561056e57610a18575b505b6038548110156109aa5780610950600192611dee565b838060a01b0391549060031b1c168084526039602052836040812055808452603a602052836040812055808452603b602052836040812055835260336020526005604084208460048201550160ff1981541690550161093a565b5060385481603855806109e8575b5080603655806037557f59dd5c64d1987c202422ae7f4a43661c8a5c1bc51299a1c3dd35c1546ee1842c8180a180f35b60388252600080516020612714833981519152908101905b818110610a0d57506109b8565b828155600101610a00565b81610a2291611e57565b61056b578038610938565b82546001600160a01b0316845260209093019260019283019201610917565b503461056b578060031936011261056b57600e546040516001600160a01b039091168152602090f35b503461056b57608036600319011261056b57610a8f611e09565b6001600160a01b03610a9f6124fe565b163303610abe57610abb906064359060443590602435906126a0565b80f35b633cb01d9360e21b8252600482fd5b503461056b57604036600319011261056b57610b04600435610aed611e24565b90610aff610afa82611f61565b612218565b61243f565b5080f35b503461056b578060031936011261056b576020604f54604051908152f35b503461056b578060031936011261056b576020600454604051908152f35b503461056b578060031936011261056b5760206040516b0d92289838d21a99680000008152f35b503461056b578060031936011261056b5760206040516000805160206127948339815191528152f35b503461056b578060031936011261056b5760206040516908e4d3168276864000008152f35b503461056b57602036600319011261056b57610bd3611e09565b6001600160a01b03610be361257d565b163303610751576001600160a01b031680825260336020526040822060115473__$a9930a26518626f1cf41cf7d897563c531$__908490823b156105985761012460405180948193630a85091160e11b8352876004840152602f602484015260366044840152601f6064840152601460848401528060a484015260001960c484015260e4830152846101048301525af48015610d1957610cdd575b507f94a7bf639ae38b6414015161ac06878bbac5ba80ee87e24ed428ce754136ec969160056020920160ff198154169055808452603982526040842054610cca575b604051908152a180f35b610cd5603754611ef3565b603755610cc0565b91600584610d0f602094967f94a7bf639ae38b6414015161ac06878bbac5ba80ee87e24ed428ce754136ec9696611e57565b9492505091610c7e565b6040513d86823e3d90fd5b503461056b578060031936011261056b576020600f54604051908152f35b503461056b578060031936011261056b57602060405160648152f35b503461056b578060031936011261056b576020601254604051908152f35b503461056b57602036600319011261056b576020906001600160a01b03610da1611e09565b16815260348252604060018060a01b0391205416604051908152f35b503461056b578060031936011261056b5760206040516101f48152f35b503461056b578060031936011261056b576020604051680246ddf979766800008152f35b503461056b578060031936011261056b576020604051660aa87bee537fff198152f35b503461056b578060031936011261056b57602090604051908152f35b503461056b578060031936011261056b576020604051684e1003b28d928000008152f35b503461056b578060031936011261056b576020604e54604051908152f35b503461056b578060031936011261056b57601f546020549061064e602154602254602354602454602554602654916027549360285495602954976040519b8c9b8c611ea7565b503461056b57602036600319011261056b57610edf611e09565b610ee76121ca565b6001600160a01b031680825260396020526040822054610f3a575b602081600080516020612754833981519152928452603382526005604085208560048201550160ff198154169055604051908152a180f35b8082526039602052816040812055808252603a602052816040812055808252603b602052816040812055815b603854808210156110145782610f7b83611dee565b905460039190911b1c6001600160a01b031614610f9b5750600101610f66565b60001981019081116110005791610fe1602092610439610fc960008051602061275483398151915296611dee565b905460039190911b1c6001600160a01b031691611dee565b610fe9611f82565b610ff4603654611fd9565b6036555b915050610f02565b634e487b7160e01b84526011600452602484fd5b5050602060008051602061275483398151915291610ff8565b503461056b57604036600319011261056b5760ff604060209261104e611e24565b600435825260008051602061277483398151915285528282206001600160a01b03909116825284522054604051911615158152f35b503461056b57604036600319011261056b57600435906024359082815b6038548510806111eb575b1561118f576110b985611dee565b905460039190911b1c6001600160a01b0316808452603a60205260408420546011548111159081611182575b501561116e578084526039602052836040812055808452603a6020528360408120558352603b6020528260408120556038546000198101908111611000579061114e61113361116993611dee565b905460039190911b1c6001600160a01b031661043988611dee565b611156611f82565b611161603654611fd9565b603655611ef3565b6110a0565b509361117c61116991611ef3565b94611ef3565b60001914159050386110e5565b907fb4f207e0214684d66dd78934d83387898879a85c2c2710e99ee7fc29d2aa320f60608660409560385482106000146111e35750925b85519081528460208201528386820152a182519182526020820152f35b9050926111c6565b508381106110ab565b503461056b57602036600319011261056b5760043590602b5482101561056b57602b5482101561125057602b90527f11c44e4875b74d31ff9fd779bf2566af7bd15b87fc985d01f5094b89e3669e4f0154604051908152602090f35b634e487b7160e01b81526032600452602490fd5b503461056b578060031936011261056b576020601154604051908152f35b503461056b578060031936011261056b57600080516020612734833981519152546040516001600160a01b039091168152602090f35b611e3a565b503461056b57602036600319011261056b5760043590602c5482101561056b57602c5482101561125057602c90527f7416c943b4a09859521022fd2e90eac0dd9026dad28fa317782a135f28a8609101546040516001600160a01b039091168152602090f35b503461056b578060031936011261056b576020604051611d4c8152f35b503461056b578060031936011261056b5760206040516180088152f35b503461056b57608036600319011261056b576004359067ffffffffffffffff821161056b573660238301121561056b57816004013561139b81611e8f565b926113a96040519485611e57565b8184526024602085019260051b820101903682116114a257602401915b81831061147e575050606435926044359150602435906001600160a01b036113ec6124fe565b16330361146f5781158015611464575b61145557835b815181101561144c576001600160a01b0361141d828461210c565b51161561144c576001906114468786866001600160a01b0361143f868961210c565b51166126a0565b01611402565b50505050905080f35b63486e73c960e11b8452600484fd5b5060115482116113fc565b633cb01d9360e21b8452600484fd5b82356001600160a01b038116810361149e578152602092830192016113c6565b8480fd5b8380fd5b503461056b578060031936011261056b576049546040516001600160a01b039091168152602090f35b503461056b578060031936011261056b576000805160206127b483398151915254336001600160a01b039091160361156b576000805160206127b483398151915280546001600160a01b031990811690915560008051602061273483398151915280543392811683179091556001600160a01b03167f8be0079c531659141344cd1fd0a4f28419497f9722a3daafe3b4186f6b6457e08380a380f35b63118cdaa760e01b815233600452602490fd5b503461056b578060031936011261056b576020604051668e1bc9bf0400008152f35b503461056b57602036600319011261056b5760043590602a5482101561056b57602a5482101561125057602a90527fbeced09521047d05b8960b7e7bcc1d1292cf3e4b2a6b63f48335cbde5f7545d20154604051908152602090f35b503461056b578060031936011261056b57611615612194565b6000805160206127b483398151915280546001600160a01b03199081169091556000805160206127348339815191528054918216905581906001600160a01b03167f8be0079c531659141344cd1fd0a4f28419497f9722a3daafe3b4186f6b6457e08280a380f35b503461056b578060031936011261056b576020604054604051908152f35b503461056b57602036600319011261056b57610b046116b8611e09565b6116c0612194565b6116cb610afa611f18565b612262565b503461056b578060031936011261056b5760209054604051908152f35b503461056b578060031936011261056b576020605054604051908152f35b503461056b57606036600319011261056b57611725611e09565b6001600160a01b036117356124fe565b1633141580611849575b8061179f575b8061178a575b80611775575b61176657610abb9060443590602435906125da565b63fcde63e960e01b8252600482fd5b506048546001600160a01b0316331415611751565b506049546001600160a01b031633141561174b565b50604754604051631bae711d60e21b815260206004820181905260126024830152712a3930b739b0b1ba34b7b726b0b730b3b2b960711b60448301529091829060649082906001600160a01b03165afa90811561183e57839161180f575b506001600160a01b0316331415611745565b611831915060203d602011611837575b6118298183611e57565b8101906124df565b386117fd565b503d61181f565b6040513d85823e3d90fd5b506001600160a01b0361185a61257d565b1633141561173f565b503461056b578060031936011261056b576048546040516001600160a01b039091168152602090f35b503461056b578060031936011261056b576020601354604051908152f35b503461056b578060031936011261056b576020604051670214e8348c4f00008152f35b503461056b57602036600319011261056b57610abb6118ea611e09565b6118f26121ca565b611fe6565b503461056b578060031936011261056b576020600154604051908152f35b503461056b578060031936011261056b576047546040516001600160a01b039091168152602090f35b503461056b57604036600319011261056b57611958611e24565b336001600160a01b0382160361197457610b049060043561243f565b63334bd91960e11b8252600482fd5b503461056b57604036600319011261056b57610b046004356119a3611e24565b906119b0610afa82611f61565b612300565b503461056b578060031936011261056b57602060ff605354166040519015158152f35b503461056b57602036600319011261056b5760206119f7600435611f61565b604051908152f35b503461056b578060031936011261056b576044546040516001600160a01b039091168152602090f35b503461056b578060031936011261056b576020605154604051908152f35b503461056b578060031936011261056b576020604154604051908152f35b503461056b578060031936011261056b576020600254604051908152f35b503461056b57602036600319011261056b5760ff60406020926004358152605284522054166040519015158152f35b503461056b578060031936011261056b576020604354604051908152f35b503461056b57602036600319011261056b57610b04611aec611e09565b611af4612194565b611aff610afa611f18565b6123a9565b503461056b57602036600319011261056b576004359067ffffffffffffffff821161056b573660238301121561056b5781600401359067ffffffffffffffff821161056b573660248360051b8501011161056b57611b60612194565b809281935b83851015611c9357600585901b8201602401356001600160a01b03811680820361149e578015611c88576045549085805b838110611c55575b50611c49578552603360205260408520546001600160a01b031615611c0457600160401b811015611bf05791611be2611be792610439856001809701604555611dbd565b611ef3565b945b0193611b65565b634e487b7160e01b85526041600452602485fd5b60405162461bcd60e51b815260206004820152601a60248201527f4e6f74206120726567697374657265642076616c696461746f720000000000006044820152606490fd5b50505093600190611be9565b82611c5f82611dbd565b905460039190911b1c6001600160a01b031614611c7e57600101611b96565b5050600138611b9e565b505093600190611be9565b7faa0ed3caafaf02fece694a4bd8769336d16d6f24595042c8e57f78d9f73e20f360208492604051908152a180f35b503461056b578060031936011261056b576020601054604051908152f35b503461056b57602036600319011261056b5760043590602d5482101561056b57602d5482101561125057602d90527f4a2cc91ee622da3bc833a54c37ffcb6f3ec23b7793efc5eaf5e71b7b406c5c0601546040516001600160a01b039091168152602090f35b503461056b578060031936011261056b576020600554604051908152f35b9050346105985760203660031901126105985760043563ffffffff60e01b8116809103611db95760209250637965db0b60e01b8114908115611da8575b5015158152f35b6301ffc9a760e01b14905038611da1565b8280fd5b604554811015611dd857604560005260206000200190600090565b634e487b7160e01b600052603260045260246000fd5b603854811015611dd857603860005260206000200190600090565b600435906001600160a01b0382168203611e1f57565b600080fd5b602435906001600160a01b0382168203611e1f57565b34611e1f576000366003190112611e1f5760206040516103e88152f35b90601f8019910116810190811067ffffffffffffffff821117611e7957604052565b634e487b7160e01b600052604160045260246000fd5b67ffffffffffffffff8111611e795760051b60200190565b979491926101409996939c9b9a9794919c6101608a019d8a5260208a015260408901526060880152608087015260a086015260c085015260e08401526101008301526101208201520152565b6000198114611f025760010190565b634e487b7160e01b600052601160045260246000fd5b6000805160206127948339815191526000526000805160206127748339815191526020527f595b99de72e44550de209b8610b07ab21870ce71a1063d294735321864dc516b5490565b60005260008051602061277483398151915260205260016040600020015490565b6038548015611fc35760001901600060385482101561125057603890819052600080516020612714833981519152820180546001600160a01b031916905555565b634e487b7160e01b600052603160045260246000fd5b8015611f02576000190190565b60365415612109576001600160a01b0316600081815260396020526040902054156121095760385460005b818110612091575b50506020817fafe1b5701d937b2e60b3848d1cfa44c92f6199d8e1c5bd2cec4ad0e153d078ab92600052603982526000604081205580600052603a82526000604081205580600052603b8252600060408120556036548061207f575b50604051908152a1565b61208890611fd9565b60365538612075565b8261209b82611dee565b905460039190911b1c6001600160a01b0316146120ba57600101612011565b60001982019290918311611f02576120fb602092610439610fc97fafe1b5701d937b2e60b3848d1cfa44c92f6199d8e1c5bd2cec4ad0e153d078ab96611dee565b612103611f82565b91612019565b50565b8051821015611dd85760209160051b010190565b91926101009396959491966101208401978452602f602085015260366040850152601f60608501526014608085015260a084015260c083015260e08201520152565b9061216c82611e8f565b6121796040519182611e57565b828152809261218a601f1991611e8f565b0190602036910137565b600080516020612734833981519152546001600160a01b031633036121b557565b63118cdaa760e01b6000523360045260246000fd5b3360009081526000805160206127d4833981519152602052604090205460ff16156121f157565b63e2517d3f60e01b6000523360045260008051602061279483398151915260245260446000fd5b60008181526000805160206127748339815191526020908152604080832033845290915290205460ff161561224a5750565b63e2517d3f60e01b6000523360045260245260446000fd5b6001600160a01b03811660009081526000805160206127d4833981519152602052604090205460ff166122fa576001600160a01b031660008181526000805160206127d483398151915260205260408120805460ff19166001179055339190600080516020612794833981519152907f2f8788117e7eff1d82e926ec794901d17c78024a50270940304540a733656f0d9080a4600190565b50600090565b6000818152600080516020612774833981519152602090815260408083206001600160a01b038616845290915290205460ff166123a2576000818152600080516020612774833981519152602090815260408083206001600160a01b0395909516808452949091528120805460ff19166001179055339291907f2f8788117e7eff1d82e926ec794901d17c78024a50270940304540a733656f0d9080a4600190565b5050600090565b6001600160a01b03811660009081526000805160206127d4833981519152602052604090205460ff16156122fa576001600160a01b031660008181526000805160206127d483398151915260205260408120805460ff19169055339190600080516020612794833981519152907ff6391f5c32d9c69d2a47ea670b442974b53935d1edc7fd64eb21e047a839171b9080a4600190565b6000818152600080516020612774833981519152602090815260408083206001600160a01b038616845290915290205460ff16156123a2576000818152600080516020612774833981519152602090815260408083206001600160a01b0395909516808452949091528120805460ff19169055339291907ff6391f5c32d9c69d2a47ea670b442974b53935d1edc7fd64eb21e047a839171b9080a4600190565b90816020910312611e1f57516001600160a01b0381168103611e1f5790565b604754604051631bae711d60e21b8152602060048201819052600860248301526749646c656e65737360c01b60448301529091829060649082906001600160a01b03165afa90811561257157600091612555575090565b61256e915060203d602011611837576118298183611e57565b90565b6040513d6000823e3d90fd5b604754604051631bae711d60e21b8152602060048201819052600e60248301526d151c9a589d5b985b105c1c19585b60921b60448301529091829060649082906001600160a01b03165afa90811561257157600091612555575090565b6001600160a01b031691600090831561269a5773__$a9930a26518626f1cf41cf7d897563c531$__84835260336020526040832060115490823b1561149e57604051630a85091160e11b8152938593859390928492839261264492600019908c9060048701612120565b03915af4801561056e5791604093917f6917318dac70d2950cf691aa372c972b60d4a75903e00a01f89a795a70de6837959361268a575b505082519182526020820152a1565b8161269491611e57565b3861267b565b50505050565b6001600160a01b031692909160009190841561270c5773__$a9930a26518626f1cf41cf7d897563c531$__85845260336020526040842060115493823b156127085785939291612644889260405197889687958695630a85091160e11b875260048701612120565b8580fd5b505050505056fe38395c5dceade9603479b177b68959049485df8aa97b39f3533039af5f4561999016d09d72d40fdae2fd8ceac6b6234c7706214fd39c1cd1e609a0528c19930014ad70993200099d43e1f87a4c680f1a748142d340ffc4197c6eb268a725622c02dd7bc7dec4dceedda775e58dd541e08a116c6c53815c0bd028192f7b626800155e7f76c52e49fe8308e62eabe3ce449c978443b7d8beb86992427229ec386f237e158222e3e6968b72b9db0d8043aacf074ad9f650f0d1606b4d82ee432c00595b99de72e44550de209b8610b07ab21870ce71a1063d294735321864dc516aa264697066735822122034594b56406336fbe02b883e41083d9147227150e236750be5dc7c6856741e5964736f6c634300081c0033",
  "linkReferences": {
    "contracts/utils/ValidatorPrimeUtils.sol": {
      "ValidatorPrimeUtils": [
        {
          "length": 20,
          "start": 1731
        },
        {
          "length": 20,
          "start": 3103
        },
        {
          "length": 20,
          "start": 9738
        },
        {
          "length": 20,
          "start": 9939
        }
      ]
    }
  },
  "deployedLinkReferences": {
    "contracts/utils/ValidatorPrimeUtils.sol": {
      "ValidatorPrimeUtils": [
        {
          "length": 20,
          "start": 1704
        },
        {
          "length": 20,
          "start": 3076
        },
        {
          "length": 20,
          "start": 9711
        },
        {
          "length": 20,
          "start": 9912
        }
      ]
    }
  }
}