{
  "_format": "hh-sol-artifact-1",
  "contractName": "MockRoundsForCreation",
  "sourceName": "contracts/test-helpers/MockRoundsForCreation.sol",
  "abi": [
    {
      "inputs": [
        {
          "internalType": "bytes32",
          "name": "txId",
          "type": "bytes32"
        }
      ],
      "name": "getLastRoundData",
      "outputs": [
        {
          "internalType": "uint256",
          "name": "",
          "type": "uint256"
        },
        {
          "components": [
            {
              "internalType": "uint256",
              "name": "round",
              "type": "uint256"
            },
            {
              "internalType": "uint256",
              "name": "leaderIndex",
              "type": "uint256"
            },
            {
              "internalType": "uint256",
              "name": "votesCommitted",
              "type": "uint256"
            },
            {
              "internalType": "uint256",
              "name": "votesRevealed",
              "type": "uint256"
            },
            {
              "internalType": "uint256",
              "name": "appealBond",
              "type": "uint256"
            },
            {
              "internalType": "uint256",
              "name": "rotationsLeft",
              "type": "uint256"
            },
            {
              "internalType": "enum ITransactions.ResultType",
              "name": "result",
              "type": "uint8"
            },
            {
              "internalType": "address[]",
              "name": "roundValidators",
              "type": "address[]"
            },
            {
              "internalType": "enum ITransactions.VoteType[]",
              "name": "validatorVotes",
              "type": "uint8[]"
            },
            {
              "internalType": "bytes32[]",
              "name": "validatorVotesHash",
              "type": "bytes32[]"
            },
            {
              "internalType": "bytes32[]",
              "name": "validatorResultHash",
              "type": "bytes32[]"
            }
          ],
          "internalType": "struct ITransactions.RoundData",
          "name": "",
          "type": "tuple"
        }
      ],
      "stateMutability": "view",
      "type": "function"
    },
    {
      "inputs": [
        {
          "internalType": "bytes32",
          "name": "",
          "type": "bytes32"
        }
      ],
      "name": "getRotationsLeft",
      "outputs": [
        {
          "internalType": "uint256",
          "name": "",
          "type": "uint256"
        }
      ],
      "stateMutability": "pure",
      "type": "function"
    },
    {
      "inputs": [
        {
          "internalType": "bytes32",
          "name": "txId",
          "type": "bytes32"
        },
        {
          "internalType": "uint256",
          "name": "round",
          "type": "uint256"
        }
      ],
      "name": "getRoundData",
      "outputs": [
        {
          "components": [
            {
              "internalType": "uint256",
              "name": "round",
              "type": "uint256"
            },
            {
              "internalType": "uint256",
              "name": "leaderIndex",
              "type": "uint256"
            },
            {
              "internalType": "uint256",
              "name": "votesCommitted",
              "type": "uint256"
            },
            {
              "internalType": "uint256",
              "name": "votesRevealed",
              "type": "uint256"
            },
            {
              "internalType": "uint256",
              "name": "appealBond",
              "type": "uint256"
            },
            {
              "internalType": "uint256",
              "name": "rotationsLeft",
              "type": "uint256"
            },
            {
              "internalType": "enum ITransactions.ResultType",
              "name": "result",
              "type": "uint8"
            },
            {
              "internalType": "address[]",
              "name": "roundValidators",
              "type": "address[]"
            },
            {
              "internalType": "enum ITransactions.VoteType[]",
              "name": "validatorVotes",
              "type": "uint8[]"
            },
            {
              "internalType": "bytes32[]",
              "name": "validatorVotesHash",
              "type": "bytes32[]"
            },
            {
              "internalType": "bytes32[]",
              "name": "validatorResultHash",
              "type": "bytes32[]"
            }
          ],
          "internalType": "struct ITransactions.RoundData",
          "name": "",
          "type": "tuple"
        }
      ],
      "stateMutability": "view",
      "type": "function"
    },
    {
      "inputs": [
        {
          "internalType": "bytes32",
          "name": "txId",
          "type": "bytes32"
        }
      ],
      "name": "getRoundNumber",
      "outputs": [
        {
          "internalType": "uint256",
          "name": "",
          "type": "uint256"
        }
      ],
      "stateMutability": "view",
      "type": "function"
    },
    {
      "inputs": [
        {
          "internalType": "bytes32",
          "name": "txId",
          "type": "bytes32"
        },
        {
          "internalType": "uint256",
          "name": "round",
          "type": "uint256"
        },
        {
          "internalType": "uint256",
          "name": "leaderIndex",
          "type": "uint256"
        },
        {
          "internalType": "address[]",
          "name": "validators",
          "type": "address[]"
        }
      ],
      "name": "setMockRoundData",
      "outputs": [],
      "stateMutability": "nonpayable",
      "type": "function"
    }
  ],
  "bytecode": "0x60808060405234601557610db9908161001b8239f35b600080fdfe6080604052600436101561001257600080fd5b60003560e01c80635af544691461028357806384c2483114610214578063ba15d635146101e8578063c159bfc3146100745763f66530b91461005357600080fd5b3461006f57602036600319011261006f57602060405160038152f35b600080fd5b3461006f57608036600319011261006f5760043560643560243567ffffffffffffffff821161006f573660238301121561006f5781600401359267ffffffffffffffff84116101b2578360051b92604051946100d36020860187610466565b85526020850190602482958201019036821161006f57602401915b8183106101c85750505060009081526020818152604080832084905560018083528184208585529092529091209182556044359082015591516007909201919067ffffffffffffffff82116101b257600160401b82116101b2578254828455808310610189575b509160005260206000209160005b82811061016c57005b81516001600160a01b031681850155602090910190600101610163565b8360005282602060002091820191015b8181106101a65750610155565b60008155600101610199565b634e487b7160e01b600052604160045260246000fd5b82356001600160a01b038116810361006f578152602092830192016100ee565b3461006f57602036600319011261006f5760043560005260006020526020604060002054604051908152f35b3461006f57602036600319011261006f57600435610230610488565b50806000526000602052604060002054906000526001602052604060002081600052602052610262604060002061052d565b9061027f6040519283928352604060208401526040830190610331565b0390f35b3461006f57604036600319011261006f5761029c610488565b506004356000526001602052604060002060243560005260205261027f6102c6604060002061052d565b604051918291602083526020830190610331565b9060058210156102e75752565b634e487b7160e01b600052602160045260246000fd5b906020808351928381520192019060005b81811061031b5750505090565b825184526020938401939092019160010161030e565b919091610160830192815181526020820151602082015260408201516040820152606082015160608201526080820151608082015260a082015160a082015260c082015160068110156102e75760c082015260e08201519361016060e083015284518091526020610180830195019060005b81811061042a57505050610100820151938181036101008301526020808651928381520195019060005b81811061040b575050506101406103f661040894956101208501518482036101208601526102fd565b920151906101408184039101526102fd565b90565b9091956020808261041f6001948b516102da565b0197019291016103cd565b82516001600160a01b03168752602096870196909201916001016103a3565b610160810190811067ffffffffffffffff8211176101b257604052565b90601f8019910116810190811067ffffffffffffffff8211176101b257604052565b6040519061049582610449565b60606101408360008152600060208201526000604082015260008382015260006080820152600060a0820152600060c08201528260e082015282610100820152826101208201520152565b906040519182815491828252602082019060005260206000209260005b81811061051457505061051292500383610466565b565b84548352600194850194879450602090930192016104fd565b9060405161053a81610449565b80928054825260018101546020830152600281015460408301526003810154606083015260048101546080830152600581015460a083015260ff60068201541660068110156102e75760c0830152600781016040518082602082945493848152019060005260206000209260005b818110610d615750506105bd92500382610466565b60e0830152600881016040519081602082549182815201916000526020600020906000915b81601f840110610ade5784600a9461014097946107249794610706945491818110610ac3575b818110610aa5575b818110610a87575b818110610a69575b818110610a4c575b818110610a2e575b818110610a10575b8181106109f2575b8181106109d4575b8181106109b6575b818110610998575b81811061097a575b81811061095c575b81811061093e575b818110610920575b818110610902575b8181106108e4575b8181106108c6575b8181106108a8575b81811061088a575b81811061086c575b81811061084e575b818110610830575b818110610812575b8181106107f4575b8181106107d6575b8181106107b8575b81811061079a575b81811061077c575b81811061075e575b818110610740575b10610729575b500382610466565b610100860152610718600982016104e0565b610120860152016104e0565b910152565b906107398160209360f81c6102da565b01386106fe565b9260208161075660019360ff8760f01c166102da565b0193016106f8565b9260208161077460019360ff8760e81c166102da565b0193016106f0565b9260208161079260019360ff8760e01c166102da565b0193016106e8565b926020816107b060019360ff8760d81c166102da565b0193016106e0565b926020816107ce60019360ff8760d01c166102da565b0193016106d8565b926020816107ec60019360ff8760c81c166102da565b0193016106d0565b9260208161080a60019360ff8760c01c166102da565b0193016106c8565b9260208161082860019360ff8760b81c166102da565b0193016106c0565b9260208161084660019360ff8760b01c166102da565b0193016106b8565b9260208161086460019360ff8760a81c166102da565b0193016106b0565b9260208161088260019360ff8760a01c166102da565b0193016106a8565b926020816108a060019360ff8760981c166102da565b0193016106a0565b926020816108be60019360ff8760901c166102da565b019301610698565b926020816108dc60019360ff8760881c166102da565b019301610690565b926020816108fa60019360ff8760801c166102da565b019301610688565b9260208161091860019360ff8760781c166102da565b019301610680565b9260208161093660019360ff8760701c166102da565b019301610678565b9260208161095460019360ff8760681c166102da565b019301610670565b9260208161097260019360ff8760601c166102da565b019301610668565b9260208161099060019360ff8760581c166102da565b019301610660565b926020816109ae60019360ff8760501c166102da565b019301610658565b926020816109cc60019360ff8760481c166102da565b019301610650565b926020816109ea60019360ff8760401c166102da565b019301610648565b92602081610a0860019360ff8760381c166102da565b019301610640565b92602081610a2660019360ff8760301c166102da565b019301610638565b92602081610a4460019360ff8760281c166102da565b019301610630565b92602081610a6160019360ff87851c166102da565b019301610628565b92602081610a7f60019360ff8760181c166102da565b019301610620565b92602081610a9d60019360ff8760101c166102da565b019301610618565b92602081610abb60019360ff8760081c166102da565b019301610610565b92602081610ad660019360ff87166102da565b019301610608565b926001610400602092610d568754610af98360ff83166102da565b610b0b86840160ff8360081c166102da565b610b1e6040840160ff8360101c166102da565b610b316060840160ff8360181c166102da565b610b436080840160ff83891c166102da565b610b5660a0840160ff8360281c166102da565b610b6960c0840160ff8360301c166102da565b610b7c60e0840160ff8360381c166102da565b610b90610100840160ff8360401c166102da565b610ba4610120840160ff8360481c166102da565b610bb8610140840160ff8360501c166102da565b610bcc610160840160ff8360581c166102da565b610be0610180840160ff8360601c166102da565b610bf46101a0840160ff8360681c166102da565b610c086101c0840160ff8360701c166102da565b610c1c6101e0840160ff8360781c166102da565b610c30610200840160ff8360801c166102da565b610c44610220840160ff8360881c166102da565b610c58610240840160ff8360901c166102da565b610c6c610260840160ff8360981c166102da565b610c80610280840160ff8360a01c166102da565b610c946102a0840160ff8360a81c166102da565b610ca86102c0840160ff8360b01c166102da565b610cbc6102e0840160ff8360b81c166102da565b610cd0610300840160ff8360c01c166102da565b610ce4610320840160ff8360c81c166102da565b610cf8610340840160ff8360d01c166102da565b610d0c610360840160ff8360d81c166102da565b610d20610380840160ff8360e01c166102da565b610d346103a0840160ff8360e81c166102da565b610d486103c0840160ff8360f01c166102da565b6103e083019060f81c6102da565b0194019201916105e2565b84546001600160a01b03168352600194850194869450602090930192016105a856fea2646970667358221220fceb46a0b896d39cef778ab2211b87978a89f4a6f5dafa41df9298f86675a79d64736f6c634300081c0033",
  "linkReferences": {},
  "deployedLinkReferences": {}
}