{
  "_format": "hh-sol-artifact-1",
  "contractName": "MockZkSyncAssetRouter",
  "sourceName": "contracts/test-helpers/MockZkSyncAssetRouter.sol",
  "abi": [
    {
      "inputs": [
        {
          "internalType": "address",
          "name": "_gen",
          "type": "address"
        }
      ],
      "stateMutability": "nonpayable",
      "type": "constructor"
    },
    {
      "inputs": [],
      "name": "gen",
      "outputs": [
        {
          "internalType": "address",
          "name": "",
          "type": "address"
        }
      ],
      "stateMutability": "view",
      "type": "function"
    },
    {
      "inputs": [
        {
          "internalType": "address",
          "name": "asset",
          "type": "address"
        },
        {
          "internalType": "address",
          "name": "from",
          "type": "address"
        },
        {
          "internalType": "uint256",
          "name": "mint",
          "type": "uint256"
        },
        {
          "internalType": "uint256",
          "name": "send",
          "type": "uint256"
        }
      ],
      "name": "transferIn",
      "outputs": [],
      "stateMutability": "nonpayable",
      "type": "function"
    },
    {
      "inputs": [
        {
          "internalType": "address",
          "name": "asset",
          "type": "address"
        },
        {
          "internalType": "address",
          "name": "to",
          "type": "address"
        },
        {
          "internalType": "uint256",
          "name": "amount",
          "type": "uint256"
        }
      ],
      "name": "transferOut",
      "outputs": [],
      "stateMutability": "nonpayable",
      "type": "function"
    }
  ],
  "bytecode": "0x608034607057601f61033538819003918201601f19168301916001600160401b03831184841017607557808492602094604052833981010312607057516001600160a01b03811690819003607057600080546001600160a01b0319169190911790556040516102a9908161008c8239f35b600080fd5b634e487b7160e01b600052604160045260246000fdfe608080604052600436101561001357600080fd5b60003560e01c908163078d3b791461017e57508063b42dfa0d146101555763f652fc931461004057600080fd5b346101505760803660031901126101505761005961020d565b610061610223565b6040516323b872dd60e01b81526001600160a01b03918216600482015230602482015260448035908201529116906020816064816000865af1801561014457610117575b506000546001600160a01b0316146100b957005b6000808080606435335af1503d15610115573d67ffffffffffffffff81116100ff57604051906100f3601f8201601f191660200183610239565b8152600060203d92013e005b634e487b7160e01b600052604160045260246000fd5b005b6101389060203d60201161013d575b6101308183610239565b81019061025b565b6100a5565b503d610126565b6040513d6000823e3d90fd5b600080fd5b34610150576000366003190112610150576000546040516001600160a01b039091168152602090f35b346101505760603660031901126101505761019761020d565b61019f610223565b60005490916001600160a01b03918216911681146101b957005b63a9059cbb60e01b83526001600160a01b03909116600483015260448035602484015260209183919082906000905af18015610144576101f557005b6101159060203d60201161013d576101308183610239565b600435906001600160a01b038216820361015057565b602435906001600160a01b038216820361015057565b90601f8019910116810190811067ffffffffffffffff8211176100ff57604052565b9081602091031261015057518015158103610150579056fea264697066735822122035cb64c7fb98200f0174ddbf9c1895b3466db8f0e3b37022eb26df87055e176264736f6c634300081c0033",
  "linkReferences": {},
  "deployedLinkReferences": {}
}