{
  "_format": "hh-sol-artifact-1",
  "contractName": "ConsensusData",
  "sourceName": "contracts/ConsensusData.sol",
  "abi": [
    {
      "inputs": [],
      "name": "AccessControlBadConfirmation",
      "type": "error"
    },
    {
      "inputs": [
        {
          "internalType": "address",
          "name": "account",
          "type": "address"
        },
        {
          "internalType": "bytes32",
          "name": "neededRole",
          "type": "bytes32"
        }
      ],
      "name": "AccessControlUnauthorizedAccount",
      "type": "error"
    },
    {
      "inputs": [],
      "name": "InvalidInitialization",
      "type": "error"
    },
    {
      "inputs": [],
      "name": "NotInitializing",
      "type": "error"
    },
    {
      "inputs": [
        {
          "internalType": "address",
          "name": "owner",
          "type": "address"
        }
      ],
      "name": "OwnableInvalidOwner",
      "type": "error"
    },
    {
      "inputs": [
        {
          "internalType": "address",
          "name": "account",
          "type": "address"
        }
      ],
      "name": "OwnableUnauthorizedAccount",
      "type": "error"
    },
    {
      "inputs": [],
      "name": "ReentrancyGuardReentrantCall",
      "type": "error"
    },
    {
      "anonymous": false,
      "inputs": [
        {
          "indexed": false,
          "internalType": "uint64",
          "name": "version",
          "type": "uint64"
        }
      ],
      "name": "Initialized",
      "type": "event"
    },
    {
      "anonymous": false,
      "inputs": [
        {
          "indexed": true,
          "internalType": "address",
          "name": "previousOwner",
          "type": "address"
        },
        {
          "indexed": true,
          "internalType": "address",
          "name": "newOwner",
          "type": "address"
        }
      ],
      "name": "OwnershipTransferStarted",
      "type": "event"
    },
    {
      "anonymous": false,
      "inputs": [
        {
          "indexed": true,
          "internalType": "address",
          "name": "previousOwner",
          "type": "address"
        },
        {
          "indexed": true,
          "internalType": "address",
          "name": "newOwner",
          "type": "address"
        }
      ],
      "name": "OwnershipTransferred",
      "type": "event"
    },
    {
      "anonymous": false,
      "inputs": [
        {
          "indexed": true,
          "internalType": "bytes32",
          "name": "role",
          "type": "bytes32"
        },
        {
          "indexed": true,
          "internalType": "bytes32",
          "name": "previousAdminRole",
          "type": "bytes32"
        },
        {
          "indexed": true,
          "internalType": "bytes32",
          "name": "newAdminRole",
          "type": "bytes32"
        }
      ],
      "name": "RoleAdminChanged",
      "type": "event"
    },
    {
      "anonymous": false,
      "inputs": [
        {
          "indexed": true,
          "internalType": "bytes32",
          "name": "role",
          "type": "bytes32"
        },
        {
          "indexed": true,
          "internalType": "address",
          "name": "account",
          "type": "address"
        },
        {
          "indexed": true,
          "internalType": "address",
          "name": "sender",
          "type": "address"
        }
      ],
      "name": "RoleGranted",
      "type": "event"
    },
    {
      "anonymous": false,
      "inputs": [
        {
          "indexed": true,
          "internalType": "bytes32",
          "name": "role",
          "type": "bytes32"
        },
        {
          "indexed": true,
          "internalType": "address",
          "name": "account",
          "type": "address"
        },
        {
          "indexed": true,
          "internalType": "address",
          "name": "sender",
          "type": "address"
        }
      ],
      "name": "RoleRevoked",
      "type": "event"
    },
    {
      "inputs": [],
      "name": "DEFAULT_ADMIN_ROLE",
      "outputs": [
        {
          "internalType": "bytes32",
          "name": "",
          "type": "bytes32"
        }
      ],
      "stateMutability": "view",
      "type": "function"
    },
    {
      "inputs": [],
      "name": "acceptOwnership",
      "outputs": [],
      "stateMutability": "nonpayable",
      "type": "function"
    },
    {
      "inputs": [],
      "name": "addressManager",
      "outputs": [
        {
          "internalType": "contract IAddressManager",
          "name": "",
          "type": "address"
        }
      ],
      "stateMutability": "view",
      "type": "function"
    },
    {
      "inputs": [
        {
          "internalType": "bytes32",
          "name": "_txId",
          "type": "bytes32"
        },
        {
          "internalType": "uint256",
          "name": "_currentTimestamp",
          "type": "uint256"
        }
      ],
      "name": "canFinalize",
      "outputs": [
        {
          "internalType": "bool",
          "name": "",
          "type": "bool"
        },
        {
          "internalType": "uint256",
          "name": "",
          "type": "uint256"
        },
        {
          "internalType": "uint256",
          "name": "",
          "type": "uint256"
        }
      ],
      "stateMutability": "view",
      "type": "function"
    },
    {
      "inputs": [
        {
          "internalType": "address",
          "name": "recipient",
          "type": "address"
        }
      ],
      "name": "getLatestAcceptedTransaction",
      "outputs": [
        {
          "components": [
            {
              "internalType": "uint256",
              "name": "currentTimestamp",
              "type": "uint256"
            },
            {
              "internalType": "address",
              "name": "sender",
              "type": "address"
            },
            {
              "internalType": "address",
              "name": "recipient",
              "type": "address"
            },
            {
              "internalType": "uint256",
              "name": "initialRotations",
              "type": "uint256"
            },
            {
              "internalType": "uint256",
              "name": "txSlot",
              "type": "uint256"
            },
            {
              "internalType": "uint256",
              "name": "createdTimestamp",
              "type": "uint256"
            },
            {
              "internalType": "uint256",
              "name": "lastVoteTimestamp",
              "type": "uint256"
            },
            {
              "internalType": "bytes32",
              "name": "randomSeed",
              "type": "bytes32"
            },
            {
              "internalType": "enum ITransactions.ResultType",
              "name": "result",
              "type": "uint8"
            },
            {
              "internalType": "bytes32",
              "name": "txExecutionHash",
              "type": "bytes32"
            },
            {
              "internalType": "bytes",
              "name": "txCalldata",
              "type": "bytes"
            },
            {
              "internalType": "bytes",
              "name": "eqBlocksOutputs",
              "type": "bytes"
            },
            {
              "components": [
                {
                  "internalType": "enum IMessages.MessageType",
                  "name": "messageType",
                  "type": "uint8"
                },
                {
                  "internalType": "address",
                  "name": "recipient",
                  "type": "address"
                },
                {
                  "internalType": "uint256",
                  "name": "value",
                  "type": "uint256"
                },
                {
                  "internalType": "bytes",
                  "name": "data",
                  "type": "bytes"
                },
                {
                  "internalType": "bool",
                  "name": "onAcceptance",
                  "type": "bool"
                },
                {
                  "internalType": "uint256",
                  "name": "saltNonce",
                  "type": "uint256"
                }
              ],
              "internalType": "struct IMessages.SubmittedMessage[]",
              "name": "messages",
              "type": "tuple[]"
            },
            {
              "internalType": "enum IQueues.QueueType",
              "name": "queueType",
              "type": "uint8"
            },
            {
              "internalType": "uint256",
              "name": "queuePosition",
              "type": "uint256"
            },
            {
              "internalType": "address",
              "name": "activator",
              "type": "address"
            },
            {
              "internalType": "address",
              "name": "lastLeader",
              "type": "address"
            },
            {
              "internalType": "enum ITransactions.TransactionStatus",
              "name": "status",
              "type": "uint8"
            },
            {
              "internalType": "bytes32",
              "name": "txId",
              "type": "bytes32"
            },
            {
              "components": [
                {
                  "internalType": "uint256",
                  "name": "activationBlock",
                  "type": "uint256"
                },
                {
                  "internalType": "uint256",
                  "name": "processingBlock",
                  "type": "uint256"
                },
                {
                  "internalType": "uint256",
                  "name": "proposalBlock",
                  "type": "uint256"
                }
              ],
              "internalType": "struct ITransactions.ReadStateBlockRange",
              "name": "readStateBlockRange",
              "type": "tuple"
            },
            {
              "internalType": "uint256",
              "name": "numOfRounds",
              "type": "uint256"
            },
            {
              "components": [
                {
                  "internalType": "uint256",
                  "name": "round",
                  "type": "uint256"
                },
                {
                  "internalType": "uint256",
                  "name": "leaderIndex",
                  "type": "uint256"
                },
                {
                  "internalType": "uint256",
                  "name": "votesCommitted",
                  "type": "uint256"
                },
                {
                  "internalType": "uint256",
                  "name": "votesRevealed",
                  "type": "uint256"
                },
                {
                  "internalType": "uint256",
                  "name": "appealBond",
                  "type": "uint256"
                },
                {
                  "internalType": "uint256",
                  "name": "rotationsLeft",
                  "type": "uint256"
                },
                {
                  "internalType": "enum ITransactions.ResultType",
                  "name": "result",
                  "type": "uint8"
                },
                {
                  "internalType": "address[]",
                  "name": "roundValidators",
                  "type": "address[]"
                },
                {
                  "internalType": "enum ITransactions.VoteType[]",
                  "name": "validatorVotes",
                  "type": "uint8[]"
                },
                {
                  "internalType": "bytes32[]",
                  "name": "validatorVotesHash",
                  "type": "bytes32[]"
                },
                {
                  "internalType": "bytes32[]",
                  "name": "validatorResultHash",
                  "type": "bytes32[]"
                }
              ],
              "internalType": "struct ITransactions.RoundData",
              "name": "lastRound",
              "type": "tuple"
            },
            {
              "internalType": "address[]",
              "name": "consumedValidators",
              "type": "address[]"
            }
          ],
          "internalType": "struct ConsensusData.TransactionData",
          "name": "inputData",
          "type": "tuple"
        }
      ],
      "stateMutability": "view",
      "type": "function"
    },
    {
      "inputs": [
        {
          "internalType": "address",
          "name": "recipient",
          "type": "address"
        },
        {
          "internalType": "uint256",
          "name": "startIndex",
          "type": "uint256"
        },
        {
          "internalType": "uint256",
          "name": "pageSize",
          "type": "uint256"
        }
      ],
      "name": "getLatestAcceptedTransactions",
      "outputs": [
        {
          "components": [
            {
              "internalType": "uint256",
              "name": "currentTimestamp",
              "type": "uint256"
            },
            {
              "internalType": "address",
              "name": "sender",
              "type": "address"
            },
            {
              "internalType": "address",
              "name": "recipient",
              "type": "address"
            },
            {
              "internalType": "uint256",
              "name": "initialRotations",
              "type": "uint256"
            },
            {
              "internalType": "uint256",
              "name": "txSlot",
              "type": "uint256"
            },
            {
              "internalType": "uint256",
              "name": "createdTimestamp",
              "type": "uint256"
            },
            {
              "internalType": "uint256",
              "name": "lastVoteTimestamp",
              "type": "uint256"
            },
            {
              "internalType": "bytes32",
              "name": "randomSeed",
              "type": "bytes32"
            },
            {
              "internalType": "enum ITransactions.ResultType",
              "name": "result",
              "type": "uint8"
            },
            {
              "internalType": "bytes32",
              "name": "txExecutionHash",
              "type": "bytes32"
            },
            {
              "internalType": "bytes",
              "name": "txCalldata",
              "type": "bytes"
            },
            {
              "internalType": "bytes",
              "name": "eqBlocksOutputs",
              "type": "bytes"
            },
            {
              "components": [
                {
                  "internalType": "enum IMessages.MessageType",
                  "name": "messageType",
                  "type": "uint8"
                },
                {
                  "internalType": "address",
                  "name": "recipient",
                  "type": "address"
                },
                {
                  "internalType": "uint256",
                  "name": "value",
                  "type": "uint256"
                },
                {
                  "internalType": "bytes",
                  "name": "data",
                  "type": "bytes"
                },
                {
                  "internalType": "bool",
                  "name": "onAcceptance",
                  "type": "bool"
                },
                {
                  "internalType": "uint256",
                  "name": "saltNonce",
                  "type": "uint256"
                }
              ],
              "internalType": "struct IMessages.SubmittedMessage[]",
              "name": "messages",
              "type": "tuple[]"
            },
            {
              "internalType": "enum IQueues.QueueType",
              "name": "queueType",
              "type": "uint8"
            },
            {
              "internalType": "uint256",
              "name": "queuePosition",
              "type": "uint256"
            },
            {
              "internalType": "address",
              "name": "activator",
              "type": "address"
            },
            {
              "internalType": "address",
              "name": "lastLeader",
              "type": "address"
            },
            {
              "internalType": "enum ITransactions.TransactionStatus",
              "name": "status",
              "type": "uint8"
            },
            {
              "internalType": "bytes32",
              "name": "txId",
              "type": "bytes32"
            },
            {
              "components": [
                {
                  "internalType": "uint256",
                  "name": "activationBlock",
                  "type": "uint256"
                },
                {
                  "internalType": "uint256",
                  "name": "processingBlock",
                  "type": "uint256"
                },
                {
                  "internalType": "uint256",
                  "name": "proposalBlock",
                  "type": "uint256"
                }
              ],
              "internalType": "struct ITransactions.ReadStateBlockRange",
              "name": "readStateBlockRange",
              "type": "tuple"
            },
            {
              "internalType": "uint256",
              "name": "numOfRounds",
              "type": "uint256"
            },
            {
              "components": [
                {
                  "internalType": "uint256",
                  "name": "round",
                  "type": "uint256"
                },
                {
                  "internalType": "uint256",
                  "name": "leaderIndex",
                  "type": "uint256"
                },
                {
                  "internalType": "uint256",
                  "name": "votesCommitted",
                  "type": "uint256"
                },
                {
                  "internalType": "uint256",
                  "name": "votesRevealed",
                  "type": "uint256"
                },
                {
                  "internalType": "uint256",
                  "name": "appealBond",
                  "type": "uint256"
                },
                {
                  "internalType": "uint256",
                  "name": "rotationsLeft",
                  "type": "uint256"
                },
                {
                  "internalType": "enum ITransactions.ResultType",
                  "name": "result",
                  "type": "uint8"
                },
                {
                  "internalType": "address[]",
                  "name": "roundValidators",
                  "type": "address[]"
                },
                {
                  "internalType": "enum ITransactions.VoteType[]",
                  "name": "validatorVotes",
                  "type": "uint8[]"
                },
                {
                  "internalType": "bytes32[]",
                  "name": "validatorVotesHash",
                  "type": "bytes32[]"
                },
                {
                  "internalType": "bytes32[]",
                  "name": "validatorResultHash",
                  "type": "bytes32[]"
                }
              ],
              "internalType": "struct ITransactions.RoundData",
              "name": "lastRound",
              "type": "tuple"
            },
            {
              "internalType": "address[]",
              "name": "consumedValidators",
              "type": "address[]"
            }
          ],
          "internalType": "struct ConsensusData.TransactionData[]",
          "name": "",
          "type": "tuple[]"
        }
      ],
      "stateMutability": "view",
      "type": "function"
    },
    {
      "inputs": [
        {
          "internalType": "address",
          "name": "recipient",
          "type": "address"
        }
      ],
      "name": "getLatestAcceptedTxCount",
      "outputs": [
        {
          "internalType": "uint256",
          "name": "",
          "type": "uint256"
        }
      ],
      "stateMutability": "view",
      "type": "function"
    },
    {
      "inputs": [
        {
          "internalType": "address",
          "name": "recipient",
          "type": "address"
        }
      ],
      "name": "getLatestFinalizedTransaction",
      "outputs": [
        {
          "components": [
            {
              "internalType": "uint256",
              "name": "currentTimestamp",
              "type": "uint256"
            },
            {
              "internalType": "address",
              "name": "sender",
              "type": "address"
            },
            {
              "internalType": "address",
              "name": "recipient",
              "type": "address"
            },
            {
              "internalType": "uint256",
              "name": "initialRotations",
              "type": "uint256"
            },
            {
              "internalType": "uint256",
              "name": "txSlot",
              "type": "uint256"
            },
            {
              "internalType": "uint256",
              "name": "createdTimestamp",
              "type": "uint256"
            },
            {
              "internalType": "uint256",
              "name": "lastVoteTimestamp",
              "type": "uint256"
            },
            {
              "internalType": "bytes32",
              "name": "randomSeed",
              "type": "bytes32"
            },
            {
              "internalType": "enum ITransactions.ResultType",
              "name": "result",
              "type": "uint8"
            },
            {
              "internalType": "bytes32",
              "name": "txExecutionHash",
              "type": "bytes32"
            },
            {
              "internalType": "bytes",
              "name": "txCalldata",
              "type": "bytes"
            },
            {
              "internalType": "bytes",
              "name": "eqBlocksOutputs",
              "type": "bytes"
            },
            {
              "components": [
                {
                  "internalType": "enum IMessages.MessageType",
                  "name": "messageType",
                  "type": "uint8"
                },
                {
                  "internalType": "address",
                  "name": "recipient",
                  "type": "address"
                },
                {
                  "internalType": "uint256",
                  "name": "value",
                  "type": "uint256"
                },
                {
                  "internalType": "bytes",
                  "name": "data",
                  "type": "bytes"
                },
                {
                  "internalType": "bool",
                  "name": "onAcceptance",
                  "type": "bool"
                },
                {
                  "internalType": "uint256",
                  "name": "saltNonce",
                  "type": "uint256"
                }
              ],
              "internalType": "struct IMessages.SubmittedMessage[]",
              "name": "messages",
              "type": "tuple[]"
            },
            {
              "internalType": "enum IQueues.QueueType",
              "name": "queueType",
              "type": "uint8"
            },
            {
              "internalType": "uint256",
              "name": "queuePosition",
              "type": "uint256"
            },
            {
              "internalType": "address",
              "name": "activator",
              "type": "address"
            },
            {
              "internalType": "address",
              "name": "lastLeader",
              "type": "address"
            },
            {
              "internalType": "enum ITransactions.TransactionStatus",
              "name": "status",
              "type": "uint8"
            },
            {
              "internalType": "bytes32",
              "name": "txId",
              "type": "bytes32"
            },
            {
              "components": [
                {
                  "internalType": "uint256",
                  "name": "activationBlock",
                  "type": "uint256"
                },
                {
                  "internalType": "uint256",
                  "name": "processingBlock",
                  "type": "uint256"
                },
                {
                  "internalType": "uint256",
                  "name": "proposalBlock",
                  "type": "uint256"
                }
              ],
              "internalType": "struct ITransactions.ReadStateBlockRange",
              "name": "readStateBlockRange",
              "type": "tuple"
            },
            {
              "internalType": "uint256",
              "name": "numOfRounds",
              "type": "uint256"
            },
            {
              "components": [
                {
                  "internalType": "uint256",
                  "name": "round",
                  "type": "uint256"
                },
                {
                  "internalType": "uint256",
                  "name": "leaderIndex",
                  "type": "uint256"
                },
                {
                  "internalType": "uint256",
                  "name": "votesCommitted",
                  "type": "uint256"
                },
                {
                  "internalType": "uint256",
                  "name": "votesRevealed",
                  "type": "uint256"
                },
                {
                  "internalType": "uint256",
                  "name": "appealBond",
                  "type": "uint256"
                },
                {
                  "internalType": "uint256",
                  "name": "rotationsLeft",
                  "type": "uint256"
                },
                {
                  "internalType": "enum ITransactions.ResultType",
                  "name": "result",
                  "type": "uint8"
                },
                {
                  "internalType": "address[]",
                  "name": "roundValidators",
                  "type": "address[]"
                },
                {
                  "internalType": "enum ITransactions.VoteType[]",
                  "name": "validatorVotes",
                  "type": "uint8[]"
                },
                {
                  "internalType": "bytes32[]",
                  "name": "validatorVotesHash",
                  "type": "bytes32[]"
                },
                {
                  "internalType": "bytes32[]",
                  "name": "validatorResultHash",
                  "type": "bytes32[]"
                }
              ],
              "internalType": "struct ITransactions.RoundData",
              "name": "lastRound",
              "type": "tuple"
            },
            {
              "internalType": "address[]",
              "name": "consumedValidators",
              "type": "address[]"
            }
          ],
          "internalType": "struct ConsensusData.TransactionData",
          "name": "inputData",
          "type": "tuple"
        }
      ],
      "stateMutability": "view",
      "type": "function"
    },
    {
      "inputs": [
        {
          "internalType": "address",
          "name": "recipient",
          "type": "address"
        },
        {
          "internalType": "uint256",
          "name": "startIndex",
          "type": "uint256"
        },
        {
          "internalType": "uint256",
          "name": "pageSize",
          "type": "uint256"
        }
      ],
      "name": "getLatestFinalizedTransactions",
      "outputs": [
        {
          "components": [
            {
              "internalType": "uint256",
              "name": "currentTimestamp",
              "type": "uint256"
            },
            {
              "internalType": "address",
              "name": "sender",
              "type": "address"
            },
            {
              "internalType": "address",
              "name": "recipient",
              "type": "address"
            },
            {
              "internalType": "uint256",
              "name": "initialRotations",
              "type": "uint256"
            },
            {
              "internalType": "uint256",
              "name": "txSlot",
              "type": "uint256"
            },
            {
              "internalType": "uint256",
              "name": "createdTimestamp",
              "type": "uint256"
            },
            {
              "internalType": "uint256",
              "name": "lastVoteTimestamp",
              "type": "uint256"
            },
            {
              "internalType": "bytes32",
              "name": "randomSeed",
              "type": "bytes32"
            },
            {
              "internalType": "enum ITransactions.ResultType",
              "name": "result",
              "type": "uint8"
            },
            {
              "internalType": "bytes32",
              "name": "txExecutionHash",
              "type": "bytes32"
            },
            {
              "internalType": "bytes",
              "name": "txCalldata",
              "type": "bytes"
            },
            {
              "internalType": "bytes",
              "name": "eqBlocksOutputs",
              "type": "bytes"
            },
            {
              "components": [
                {
                  "internalType": "enum IMessages.MessageType",
                  "name": "messageType",
                  "type": "uint8"
                },
                {
                  "internalType": "address",
                  "name": "recipient",
                  "type": "address"
                },
                {
                  "internalType": "uint256",
                  "name": "value",
                  "type": "uint256"
                },
                {
                  "internalType": "bytes",
                  "name": "data",
                  "type": "bytes"
                },
                {
                  "internalType": "bool",
                  "name": "onAcceptance",
                  "type": "bool"
                },
                {
                  "internalType": "uint256",
                  "name": "saltNonce",
                  "type": "uint256"
                }
              ],
              "internalType": "struct IMessages.SubmittedMessage[]",
              "name": "messages",
              "type": "tuple[]"
            },
            {
              "internalType": "enum IQueues.QueueType",
              "name": "queueType",
              "type": "uint8"
            },
            {
              "internalType": "uint256",
              "name": "queuePosition",
              "type": "uint256"
            },
            {
              "internalType": "address",
              "name": "activator",
              "type": "address"
            },
            {
              "internalType": "address",
              "name": "lastLeader",
              "type": "address"
            },
            {
              "internalType": "enum ITransactions.TransactionStatus",
              "name": "status",
              "type": "uint8"
            },
            {
              "internalType": "bytes32",
              "name": "txId",
              "type": "bytes32"
            },
            {
              "components": [
                {
                  "internalType": "uint256",
                  "name": "activationBlock",
                  "type": "uint256"
                },
                {
                  "internalType": "uint256",
                  "name": "processingBlock",
                  "type": "uint256"
                },
                {
                  "internalType": "uint256",
                  "name": "proposalBlock",
                  "type": "uint256"
                }
              ],
              "internalType": "struct ITransactions.ReadStateBlockRange",
              "name": "readStateBlockRange",
              "type": "tuple"
            },
            {
              "internalType": "uint256",
              "name": "numOfRounds",
              "type": "uint256"
            },
            {
              "components": [
                {
                  "internalType": "uint256",
                  "name": "round",
                  "type": "uint256"
                },
                {
                  "internalType": "uint256",
                  "name": "leaderIndex",
                  "type": "uint256"
                },
                {
                  "internalType": "uint256",
                  "name": "votesCommitted",
                  "type": "uint256"
                },
                {
                  "internalType": "uint256",
                  "name": "votesRevealed",
                  "type": "uint256"
                },
                {
                  "internalType": "uint256",
                  "name": "appealBond",
                  "type": "uint256"
                },
                {
                  "internalType": "uint256",
                  "name": "rotationsLeft",
                  "type": "uint256"
                },
                {
                  "internalType": "enum ITransactions.ResultType",
                  "name": "result",
                  "type": "uint8"
                },
                {
                  "internalType": "address[]",
                  "name": "roundValidators",
                  "type": "address[]"
                },
                {
                  "internalType": "enum ITransactions.VoteType[]",
                  "name": "validatorVotes",
                  "type": "uint8[]"
                },
                {
                  "internalType": "bytes32[]",
                  "name": "validatorVotesHash",
                  "type": "bytes32[]"
                },
                {
                  "internalType": "bytes32[]",
                  "name": "validatorResultHash",
                  "type": "bytes32[]"
                }
              ],
              "internalType": "struct ITransactions.RoundData",
              "name": "lastRound",
              "type": "tuple"
            },
            {
              "internalType": "address[]",
              "name": "consumedValidators",
              "type": "address[]"
            }
          ],
          "internalType": "struct ConsensusData.TransactionData[]",
          "name": "",
          "type": "tuple[]"
        }
      ],
      "stateMutability": "view",
      "type": "function"
    },
    {
      "inputs": [
        {
          "internalType": "address",
          "name": "recipient",
          "type": "address"
        }
      ],
      "name": "getLatestFinalizedTxCount",
      "outputs": [
        {
          "internalType": "uint256",
          "name": "",
          "type": "uint256"
        }
      ],
      "stateMutability": "view",
      "type": "function"
    },
    {
      "inputs": [
        {
          "internalType": "bytes32",
          "name": "role",
          "type": "bytes32"
        }
      ],
      "name": "getRoleAdmin",
      "outputs": [
        {
          "internalType": "bytes32",
          "name": "",
          "type": "bytes32"
        }
      ],
      "stateMutability": "view",
      "type": "function"
    },
    {
      "inputs": [
        {
          "internalType": "bytes32",
          "name": "_txId",
          "type": "bytes32"
        }
      ],
      "name": "getTransactionAllData",
      "outputs": [
        {
          "components": [
            {
              "internalType": "enum ITransactions.ResultType",
              "name": "result",
              "type": "uint8"
            },
            {
              "internalType": "enum ITransactions.VoteType",
              "name": "txExecutionResult",
              "type": "uint8"
            },
            {
              "internalType": "enum ITransactions.TransactionStatus",
              "name": "previousStatus",
              "type": "uint8"
            },
            {
              "internalType": "enum ITransactions.TransactionStatus",
              "name": "status",
              "type": "uint8"
            },
            {
              "internalType": "address",
              "name": "txOrigin",
              "type": "address"
            },
            {
              "internalType": "address",
              "name": "sender",
              "type": "address"
            },
            {
              "internalType": "address",
              "name": "recipient",
              "type": "address"
            },
            {
              "internalType": "address",
              "name": "activator",
              "type": "address"
            },
            {
              "internalType": "uint256",
              "name": "txSlot",
              "type": "uint256"
            },
            {
              "internalType": "uint256",
              "name": "initialRotations",
              "type": "uint256"
            },
            {
              "internalType": "uint256",
              "name": "numOfInitialValidators",
              "type": "uint256"
            },
            {
              "internalType": "uint256",
              "name": "epoch",
              "type": "uint256"
            },
            {
              "internalType": "bytes32",
              "name": "id",
              "type": "bytes32"
            },
            {
              "internalType": "bytes32",
              "name": "randomSeed",
              "type": "bytes32"
            },
            {
              "internalType": "bytes32",
              "name": "txExecutionHash",
              "type": "bytes32"
            },
            {
              "internalType": "bytes32",
              "name": "resultHash",
              "type": "bytes32"
            },
            {
              "internalType": "bytes",
              "name": "txCalldata",
              "type": "bytes"
            },
            {
              "internalType": "bytes",
              "name": "eqBlocksOutputs",
              "type": "bytes"
            },
            {
              "components": [
                {
                  "internalType": "uint256",
                  "name": "activationBlock",
                  "type": "uint256"
                },
                {
                  "internalType": "uint256",
                  "name": "processingBlock",
                  "type": "uint256"
                },
                {
                  "internalType": "uint256",
                  "name": "proposalBlock",
                  "type": "uint256"
                }
              ],
              "internalType": "struct ITransactions.ReadStateBlockRange[]",
              "name": "readStateBlockRanges",
              "type": "tuple[]"
            },
            {
              "internalType": "uint256",
              "name": "validUntil",
              "type": "uint256"
            },
            {
              "internalType": "uint256",
              "name": "value",
              "type": "uint256"
            },
            {
              "internalType": "uint256",
              "name": "lockedStorageUnitPrice",
              "type": "uint256"
            },
            {
              "internalType": "uint256",
              "name": "storageFeeUsed",
              "type": "uint256"
            }
          ],
          "internalType": "struct ITransactions.Transaction",
          "name": "transaction",
          "type": "tuple"
        },
        {
          "components": [
            {
              "internalType": "uint256",
              "name": "round",
              "type": "uint256"
            },
            {
              "internalType": "uint256",
              "name": "leaderIndex",
              "type": "uint256"
            },
            {
              "internalType": "uint256",
              "name": "votesCommitted",
              "type": "uint256"
            },
            {
              "internalType": "uint256",
              "name": "votesRevealed",
              "type": "uint256"
            },
            {
              "internalType": "uint256",
              "name": "appealBond",
              "type": "uint256"
            },
            {
              "internalType": "uint256",
              "name": "rotationsLeft",
              "type": "uint256"
            },
            {
              "internalType": "enum ITransactions.ResultType",
              "name": "result",
              "type": "uint8"
            },
            {
              "internalType": "address[]",
              "name": "roundValidators",
              "type": "address[]"
            },
            {
              "internalType": "enum ITransactions.VoteType[]",
              "name": "validatorVotes",
              "type": "uint8[]"
            },
            {
              "internalType": "bytes32[]",
              "name": "validatorVotesHash",
              "type": "bytes32[]"
            },
            {
              "internalType": "bytes32[]",
              "name": "validatorResultHash",
              "type": "bytes32[]"
            }
          ],
          "internalType": "struct ITransactions.RoundData[]",
          "name": "roundsData",
          "type": "tuple[]"
        }
      ],
      "stateMutability": "view",
      "type": "function"
    },
    {
      "inputs": [
        {
          "internalType": "bytes32",
          "name": "_txId",
          "type": "bytes32"
        },
        {
          "internalType": "uint256",
          "name": "_timestamp",
          "type": "uint256"
        }
      ],
      "name": "getTransactionData",
      "outputs": [
        {
          "components": [
            {
              "internalType": "uint256",
              "name": "currentTimestamp",
              "type": "uint256"
            },
            {
              "internalType": "address",
              "name": "sender",
              "type": "address"
            },
            {
              "internalType": "address",
              "name": "recipient",
              "type": "address"
            },
            {
              "internalType": "uint256",
              "name": "initialRotations",
              "type": "uint256"
            },
            {
              "internalType": "uint256",
              "name": "txSlot",
              "type": "uint256"
            },
            {
              "internalType": "uint256",
              "name": "createdTimestamp",
              "type": "uint256"
            },
            {
              "internalType": "uint256",
              "name": "lastVoteTimestamp",
              "type": "uint256"
            },
            {
              "internalType": "bytes32",
              "name": "randomSeed",
              "type": "bytes32"
            },
            {
              "internalType": "enum ITransactions.ResultType",
              "name": "result",
              "type": "uint8"
            },
            {
              "internalType": "bytes32",
              "name": "txExecutionHash",
              "type": "bytes32"
            },
            {
              "internalType": "bytes",
              "name": "txCalldata",
              "type": "bytes"
            },
            {
              "internalType": "bytes",
              "name": "eqBlocksOutputs",
              "type": "bytes"
            },
            {
              "components": [
                {
                  "internalType": "enum IMessages.MessageType",
                  "name": "messageType",
                  "type": "uint8"
                },
                {
                  "internalType": "address",
                  "name": "recipient",
                  "type": "address"
                },
                {
                  "internalType": "uint256",
                  "name": "value",
                  "type": "uint256"
                },
                {
                  "internalType": "bytes",
                  "name": "data",
                  "type": "bytes"
                },
                {
                  "internalType": "bool",
                  "name": "onAcceptance",
                  "type": "bool"
                },
                {
                  "internalType": "uint256",
                  "name": "saltNonce",
                  "type": "uint256"
                }
              ],
              "internalType": "struct IMessages.SubmittedMessage[]",
              "name": "messages",
              "type": "tuple[]"
            },
            {
              "internalType": "enum IQueues.QueueType",
              "name": "queueType",
              "type": "uint8"
            },
            {
              "internalType": "uint256",
              "name": "queuePosition",
              "type": "uint256"
            },
            {
              "internalType": "address",
              "name": "activator",
              "type": "address"
            },
            {
              "internalType": "address",
              "name": "lastLeader",
              "type": "address"
            },
            {
              "internalType": "enum ITransactions.TransactionStatus",
              "name": "status",
              "type": "uint8"
            },
            {
              "internalType": "bytes32",
              "name": "txId",
              "type": "bytes32"
            },
            {
              "components": [
                {
                  "internalType": "uint256",
                  "name": "activationBlock",
                  "type": "uint256"
                },
                {
                  "internalType": "uint256",
                  "name": "processingBlock",
                  "type": "uint256"
                },
                {
                  "internalType": "uint256",
                  "name": "proposalBlock",
                  "type": "uint256"
                }
              ],
              "internalType": "struct ITransactions.ReadStateBlockRange",
              "name": "readStateBlockRange",
              "type": "tuple"
            },
            {
              "internalType": "uint256",
              "name": "numOfRounds",
              "type": "uint256"
            },
            {
              "components": [
                {
                  "internalType": "uint256",
                  "name": "round",
                  "type": "uint256"
                },
                {
                  "internalType": "uint256",
                  "name": "leaderIndex",
                  "type": "uint256"
                },
                {
                  "internalType": "uint256",
                  "name": "votesCommitted",
                  "type": "uint256"
                },
                {
                  "internalType": "uint256",
                  "name": "votesRevealed",
                  "type": "uint256"
                },
                {
                  "internalType": "uint256",
                  "name": "appealBond",
                  "type": "uint256"
                },
                {
                  "internalType": "uint256",
                  "name": "rotationsLeft",
                  "type": "uint256"
                },
                {
                  "internalType": "enum ITransactions.ResultType",
                  "name": "result",
                  "type": "uint8"
                },
                {
                  "internalType": "address[]",
                  "name": "roundValidators",
                  "type": "address[]"
                },
                {
                  "internalType": "enum ITransactions.VoteType[]",
                  "name": "validatorVotes",
                  "type": "uint8[]"
                },
                {
                  "internalType": "bytes32[]",
                  "name": "validatorVotesHash",
                  "type": "bytes32[]"
                },
                {
                  "internalType": "bytes32[]",
                  "name": "validatorResultHash",
                  "type": "bytes32[]"
                }
              ],
              "internalType": "struct ITransactions.RoundData",
              "name": "lastRound",
              "type": "tuple"
            },
            {
              "internalType": "address[]",
              "name": "consumedValidators",
              "type": "address[]"
            }
          ],
          "internalType": "struct ConsensusData.TransactionData",
          "name": "",
          "type": "tuple"
        }
      ],
      "stateMutability": "view",
      "type": "function"
    },
    {
      "inputs": [
        {
          "internalType": "bytes32",
          "name": "_txId",
          "type": "bytes32"
        },
        {
          "internalType": "uint256",
          "name": "_timestamp",
          "type": "uint256"
        }
      ],
      "name": "getTransactionStatus",
      "outputs": [
        {
          "internalType": "enum ITransactions.TransactionStatus",
          "name": "",
          "type": "uint8"
        }
      ],
      "stateMutability": "view",
      "type": "function"
    },
    {
      "inputs": [
        {
          "internalType": "bytes32",
          "name": "_txId",
          "type": "bytes32"
        }
      ],
      "name": "getValidatorsForLastRound",
      "outputs": [
        {
          "internalType": "address[]",
          "name": "validators",
          "type": "address[]"
        }
      ],
      "stateMutability": "view",
      "type": "function"
    },
    {
      "inputs": [
        {
          "internalType": "bytes32",
          "name": "role",
          "type": "bytes32"
        },
        {
          "internalType": "address",
          "name": "account",
          "type": "address"
        }
      ],
      "name": "grantRole",
      "outputs": [],
      "stateMutability": "nonpayable",
      "type": "function"
    },
    {
      "inputs": [
        {
          "internalType": "bytes32",
          "name": "role",
          "type": "bytes32"
        },
        {
          "internalType": "address",
          "name": "account",
          "type": "address"
        }
      ],
      "name": "hasRole",
      "outputs": [
        {
          "internalType": "bool",
          "name": "",
          "type": "bool"
        }
      ],
      "stateMutability": "view",
      "type": "function"
    },
    {
      "inputs": [
        {
          "internalType": "address",
          "name": "_addressManager",
          "type": "address"
        }
      ],
      "name": "initialize",
      "outputs": [],
      "stateMutability": "nonpayable",
      "type": "function"
    },
    {
      "inputs": [],
      "name": "owner",
      "outputs": [
        {
          "internalType": "address",
          "name": "",
          "type": "address"
        }
      ],
      "stateMutability": "view",
      "type": "function"
    },
    {
      "inputs": [],
      "name": "pendingOwner",
      "outputs": [
        {
          "internalType": "address",
          "name": "",
          "type": "address"
        }
      ],
      "stateMutability": "view",
      "type": "function"
    },
    {
      "inputs": [],
      "name": "renounceOwnership",
      "outputs": [],
      "stateMutability": "nonpayable",
      "type": "function"
    },
    {
      "inputs": [
        {
          "internalType": "bytes32",
          "name": "role",
          "type": "bytes32"
        },
        {
          "internalType": "address",
          "name": "callerConfirmation",
          "type": "address"
        }
      ],
      "name": "renounceRole",
      "outputs": [],
      "stateMutability": "nonpayable",
      "type": "function"
    },
    {
      "inputs": [
        {
          "internalType": "bytes32",
          "name": "role",
          "type": "bytes32"
        },
        {
          "internalType": "address",
          "name": "account",
          "type": "address"
        }
      ],
      "name": "revokeRole",
      "outputs": [],
      "stateMutability": "nonpayable",
      "type": "function"
    },
    {
      "inputs": [
        {
          "internalType": "address",
          "name": "_addressManager",
          "type": "address"
        }
      ],
      "name": "setAddressManager",
      "outputs": [],
      "stateMutability": "nonpayable",
      "type": "function"
    },
    {
      "inputs": [
        {
          "internalType": "bytes4",
          "name": "interfaceId",
          "type": "bytes4"
        }
      ],
      "name": "supportsInterface",
      "outputs": [
        {
          "internalType": "bool",
          "name": "",
          "type": "bool"
        }
      ],
      "stateMutability": "view",
      "type": "function"
    },
    {
      "inputs": [
        {
          "internalType": "address",
          "name": "newOwner",
          "type": "address"
        }
      ],
      "name": "transferOwnership",
      "outputs": [],
      "stateMutability": "nonpayable",
      "type": "function"
    }
  ],
  "bytecode": "0x60808060405234601557614485908161001b8239f35b600080fdfe61030080604052600436101561001457600080fd5b60003560e01c90816301ffc9a71461178857508063042de9061461171e5780630652b57a146116db5780630949cda0146116c1578063136ee4191461169b578063248a9ca3146116755780632f2ff15d1461164457806336568abe146115fe5780633ab76e9f146115d55780633b01d02b14610f605780634a49d992146107e157806357c4f80e146107b957806358b255ff1461071b57806363657f8a146106f7578063715018a61461067657806379ba5097146106265780638da5cb5b146105f057806391d14854146105965780639b3ec2e11461055e578063a217fddf14610542578063c33bd9f114610435578063c4d66de814610266578063d547741f1461022e578063e05f827a14610200578063e30c3978146101ca5763f2fde38b1461013e57600080fd5b346101c55760203660031901126101c5576101576117db565b61015f612f56565b60008051602061443083398151915280546001600160a01b0319166001600160a01b039283169081179091556000805160206143d0833981519152549091167f38d16b8cac22d99fc7c124b9cd0de2d3fa1faef420bfe791d8c362d765e22700600080a3005b600080fd5b346101c55760003660031901126101c557600080516020614430833981519152546040516001600160a01b039091168152602090f35b346101c557606061021961021336611c83565b90612b6a565b90604051921515835260208301526040820152f35b346101c55760403660031901126101c55761026460043561024d6117f1565b9061025f61025a82612233565b61356d565b613660565b005b346101c55760203660031901126101c55761027f6117db565b600080516020614410833981519152549060ff8260401c1615916001600160401b0381168015908161042d575b6001149081610423575b15908161041a575b506104095767ffffffffffffffff19811660011760008051602061441083398151915255826103dc575b506102f16143a1565b6102f96143a1565b6103016143a1565b33156103c657610310336141ef565b6103186143a1565b6103206143a1565b60017f9b779b17422d0df92223018b32b4d1fa46e071723d6817e2486d003becc55f005561034c6143a1565b600080546001600160a01b0319166001600160a01b039290921691909117905561037257005b60ff60401b196000805160206144108339815191525416600080516020614410833981519152557fc7f505b2f371ae2175ee4913f4499e1f2633a7b5936321eed1cdaeb6115181d2602060405160018152a1005b631e4fbdf760e01b600052600060045260246000fd5b68ffffffffffffffffff1916680100000000000000011760008051602061441083398151915255826102e8565b63f92ee8a960e01b60005260046000fd5b905015846102be565b303b1591506102b6565b8491506102ac565b346101c55760203660031901126101c5576004356001600160a01b0361045961376a565b60405163ba15d63560e01b815260048101849052911691602082602481865afa9182156105015760009261050d575b509060446000926040519485938492635af5446960e01b8452600484015260248301525afa908115610501576104da9160e0916000916104de575b500151604051918291602083526020830190611893565b0390f35b6104fb91503d806000833e6104f38183611d1d565b810190612713565b836104c3565b6040513d6000823e3d90fd5b91506020823d60201161053a575b8161052860209383611d1d565b810103126101c5579051906044610488565b3d915061051b565b346101c55760003660031901126101c557602060405160008152f35b346101c55760203660031901126101c5576104da61058261057d6117db565b6129ec565b6040519182916020835260208301906119f5565b346101c55760403660031901126101c5576105af6117f1565b6004356000526000805160206143f083398151915260205260406000209060018060a01b0316600052602052602060ff604060002054166040519015158152f35b346101c55760003660031901126101c5576000805160206143d0833981519152546040516001600160a01b039091168152602090f35b346101c55760003660031901126101c55760008051602061443083398151915254336001600160a01b039091160361066157610264336141ef565b63118cdaa760e01b6000523360045260246000fd5b346101c55760003660031901126101c55761068f612f56565b60008051602061443083398151915280546001600160a01b03199081169091556000805160206143d0833981519152805491821690556000906001600160a01b03167f8be0079c531659141344cd1fd0a4f28419497f9722a3daafe3b4186f6b6457e08280a3005b346101c55760203660031901126101c5576104da6105826107166117db565b612954565b346101c55760203660031901126101c5576107346117db565b60206001600160a01b03610746612ebd565b604051633169e04360e01b81526001600160a01b03909416600485015283916024918391165afa801561050157600090610786575b602090604051908152f35b506020813d6020116107b1575b816107a060209383611d1d565b810103126101c5576020905161077b565b3d9150610793565b346101c55760206107d26107cc36611c83565b9061388a565b6107df6040518092611886565bf35b346101c5576107ef36611c83565b906101c0526107fc611dad565b50602460006001600160a01b03610811613700565b166040519283809263255709e560e11b82526101c05160048301525afa90811561050157600091610f3f575b506001600160a01b0361084e61382a565b60405163149ecac960e11b81526101c051600482015293911661010084602481845afa93841561050157600094610f0e575b506001600160a01b036108916137c8565b169260c0810192602060018060a01b03855116602460405180988193631c5f1acf60e31b835260048301525afa94851561050157600095610eda575b506108db816101c05161388a565b6101a081905260e08301516001600160a01b03169390600f1115610df2576101a051600103610ec557604080516302ad2c4560e21b81526101c0516004820152602481018890526044810184905291829060649082905afa801561050157600091600091610e94575b50610e8c575b505b610100820151602460006001600160a01b0361096661376a565b16604051928380926384c2483160e01b82526101c05160048301525afa801561050157600060c05260c05160e052610e3b575b50602460006001600160a01b036109ae61382a565b1660405192838092633717892560e01b82526101c05160048301525afa801561050157600061010052610e15575b5060e0805101518051602060e0510151906000610180521515600014610e08576001600160a01b0391610a0f9190611f2b565b5116610180525b6060830195865196600f881015610df257600160009814908115610dc9575b5015610dbc57945b60a0848101516001600160a01b0390811661012090815292511661014052908401518851989091015160e05160c0015196906006881015610da85785969798996102006024970151946101c0890151946102208a0151978d60018060a01b03610aa461418f565b166040519b8c8092630c15982760e11b82526101c05160048301525afa998a15610d9b579d60249b9c9d9e819b610d77575b5060206001600160a01b03610ae9612ebd565b166040519d8e8092636262ae6b60e01b82526101c05160048301525afa9b8c15610d3957819c610d46575b5060206001600160a01b03610b27612ebd565b60405161016081815263c404723360e01b9091526101c05181516004015251916024918391165afa9c8d15610d3957819d610cfa575b6102400180515160a083905215610cc657518051600019810192908311610cb2575091610c239d9e9f969492610bf798969492610b9991611f2b565b5160a0525b604051608052610baf608051611c99565b60805152610120516020608051015261014051604060805101526060608051015260808051015260a0608051015260c0608051015260e0608051015261010060805101612738565b61012060805101526101406080510152610160608051015261018060805101526101a06080510161293c565b6101c0608051015260018060a01b03166101e0608051015260018060a01b0361018051166102006080510152610c626101a05161022060805101612948565b6101c051610240608051015260a051610260608051015260c051610280608051015260e0516102a06080510152610100516102c0608051015260405160208152806104da602082016080516119f5565b634e487b7160e01b81526011600452602490fd5b5091610c239c9d9e959391610bf797959360405190610ce482611ccb565b808252806020830152604082015260a052610b9e565b9c5060203d602011610d32575b80610d1760209261016051611d1d565b610160519081010312610d2f5761016051519c610b5d565b80fd5b503d610d07565b50604051903d90823e3d90fd5b610d69919c5060203d602011610d70575b610d618183611d1d565b810190612924565b9a8f610b14565b503d610d57565b610d94919b503d808d833e610d8c8183611d1d565b81019061280f565b998f610ad6565b8e604051903d90823e3d90fd5b634e487b7160e01b89526021600452602489fd5b506101a083015194610a3d565b905051600f811015610dde5760021489610a35565b634e487b7160e01b88526021600452602488fd5b634e487b7160e01b600052602160045260246000fd5b5050600061018052610a16565b610e31903d806000833e610e298183611d1d565b8101906127ea565b61010052876109dc565b3d8060c051833e610e4c8183611d1d565b810190604081830312610e865780519160208201516001600160401b038111610e8657610e7992016125bd565b9060c05260e05287610999565b60c05180fd5b92508661094a565b9050610eb8915060403d604011610ebe575b610eb08183611d1d565b810190612751565b88610944565b503d610ea6565b5060086101a0510361094c576000925061094c565b90946020823d602011610f06575b81610ef560209383611d1d565b81010312610d2f57505193866108cd565b3d9150610ee8565b610f319194506101003d8111610f38575b610f298183611d1d565b810190612772565b9284610880565b503d610f1f565b610f5a913d8091833e610f528183611d1d565b8101906122b9565b8261083d565b346101c55760203660031901126101c557602460043560006102c0604051610f8781611c99565b8281528260208201528260408201528260608201528260808201528260a08201528260c08201528260e08201528261010082015282610120820152826101408201528261016082015282610180820152826101a0820152826101c0820152826101e08201526060610200820152606061022082015260606102408201528261026082015282610280820152826102a08201520152600060018060a01b0361102c613700565b166040519384809263255709e560e11b82528560048301525afa918215610501576000926115ba575b506001600160a01b0361106661376a565b169060405163ba15d63560e01b8152816004820152602081602481865afa90811561050157600091611588575b506001810192838211611542576110a984611d3e565b936110b76040519586611d1d565b8085526110c6601f1991611d3e565b0160005b81811061157157505060005b828111156114e957505082516114c1575b506060830192835191600f831015610df2576001600093148015611499575b611335575b509061115a9392916040519485946040865261112b604087018451611831565b61113d602084015160608801906118d0565b61114f60408401516080880190611886565b5160a0860190611886565b60018060a01b0360808201511660c085015260018060a01b0360a08201511660e085015260018060a01b0360c08201511661010085015260018060a01b0360e0820151166101208501526101008101516101408501526101208101516101608501526101408101516101808501526101608101516101a08501526101808101516101c08501526101a08101516101e08501526101c08101516102008501526101e081015161022085015261123c6112246102008301516102e0610240880152610320870190611861565b610220830151868203603f1901610260880152611861565b9061024081015191603f198682030161028087015260208084519283815201930190845b8181106112f757505050806102606102c09201516102a0870152610280810151828701526102a08101516102e087015201516103008501528381036020850152825190818152602081016020808460051b840101950193915b8383106112c65786860387f35b9193955091936020806112e5600193601f198682030187528951611911565b970193019301909286959492936112b9565b91949596509192602060608261132460019489516040809180518452602081015160208501520151910152565b019501910191879695949392611260565b6001600160a01b036113456137c8565b16602060018060a01b0360c085015116602460405180948193631c5f1acf60e31b835260048301525afa90811561148e578491611458575b50806101a08401528551600f8110156114445760011461139e575b5061110b565b6113e5916040916001600160a01b036113b561382a565b169083518095819482936302ad2c4560e21b84524291600485016040919493926060820195825260208201520152565b03915afa80156114395783918491611418575b50611404575b80611398565b6001600160a01b031660e0820152846113fe565b9050611433915060403d604011610ebe57610eb08183611d1d565b866113f8565b6040513d85823e3d90fd5b634e487b7160e01b85526021600452602485fd5b90506020813d602011611486575b8161147360209383611d1d565b8101031261148257518661137d565b8380fd5b3d9150611466565b6040513d86823e3d90fd5b508451600f8110156114ad57600214611106565b634e487b7160e01b84526021600452602484fd5b6114cd60c09184611f2b565b5101516006811015610df2576114e39084612738565b836110e7565b604051635af5446960e01b8152846004820152816024820152600081604481865afa90811561050157600091611558575b506115258287611f2b565b526115308186611f2b565b506000198114611542576001016110d6565b634e487b7160e01b600052601160045260246000fd5b61156b913d8091833e6104f38183611d1d565b8761151a565b60209061157c611d55565b828289010152016110ca565b906020823d6020116115b2575b816115a260209383611d1d565b81010312610d2f57505184611093565b3d9150611595565b6115ce91923d8091833e610f528183611d1d565b9082611055565b346101c55760003660031901126101c5576000546040516001600160a01b039091168152602090f35b346101c55760403660031901126101c5576116176117f1565b336001600160a01b038216036116335761026490600435613660565b63334bd91960e11b60005260046000fd5b346101c55760403660031901126101c5576102646004356116636117f1565b9061167061025a82612233565b6135b7565b346101c55760203660031901126101c5576020611693600435612233565b604051908152f35b346101c5576104da6116b56116af36611807565b916120e6565b60405191829182611c23565b346101c5576104da6116b56116d536611807565b91611f55565b346101c55760203660031901126101c5576116f46117db565b6116fc612f56565b600080546001600160a01b0319166001600160a01b0392909216919091179055005b346101c55760203660031901126101c5576117376117db565b60206001600160a01b03611749612ebd565b60405163891ed77d60e01b81526001600160a01b03909416600485015283916024918391165afa80156105015760009061078657602090604051908152f35b346101c55760203660031901126101c5576004359063ffffffff60e01b82168092036101c557602091637965db0b60e01b81149081156117ca575b5015158152f35b6301ffc9a760e01b149050836117c3565b600435906001600160a01b03821682036101c557565b602435906001600160a01b03821682036101c557565b60609060031901126101c5576004356001600160a01b03811681036101c557906024359060443590565b906006821015610df25752565b60005b8381106118515750506000910152565b8181015183820152602001611841565b9060209161187a8151809281855285808601910161183e565b601f01601f1916010190565b90600f821015610df25752565b906020808351928381520192019060005b8181106118b15750505090565b82516001600160a01b03168452602093840193909201916001016118a4565b906005821015610df25752565b906020808351928381520192019060005b8181106118fb5750505090565b82518452602093840193909201916001016118ee565b919091805183526020810151602084015260408101516040840152606081015160608401526080810151608084015260a081015160a084015261195c60c082015160c0850190611831565b61197760e082015161016060e0860152610160850190611893565b92610100820151938181036101008301526020808651928381520195019060005b8181106119d6575050506101406119c16119d394956101208501518482036101208601526118dd565b920151906101408184039101526118dd565b90565b909195602080826119ea6001948b516118d0565b019701929101611998565b8051825260018060a01b03602082015116602083015260018060a01b036040820151166040830152606081015160608301526080810151608083015260a081015160a083015260c081015160c083015260e081015160e0830152611a63610100820151610100840190611831565b610120810151610120830152611aa3611a8f610140830151610320610140860152610320850190611861565b610160830151848203610160860152611861565b9161018082015192818103610180830152835180825260208201906020808260051b8501019601926000905b828210611ba85750505050506101a0820151926004841015610df257611b966102c0916119d3956101a08501526101c08501516101c085015260018060a01b036101e0860151166101e085015260018060a01b0361020086015116610200850152611b44610220860151610220860190611886565b610240850151610240850152611b786102608601516102608601906040809180518452602081015160208501520151910152565b610280850151838501526102a08501518482036102e0860152611911565b92015190610300818403910152611893565b9091929396601f1982820301855287519081516002811015610df2576001928260209392849352848060a01b038383015116838201526040820151604082015260a080611c04606085015160c0606086015260c0850190611861565b6080808601511515908501529301519101529901950193920190611acf565b602081016020825282518091526040820191602060408360051b8301019401926000915b838310611c5657505050505090565b9091929394602080611c74600193603f1986820301875289516119f5565b97019301930191939290611c47565b60409060031901126101c5576004359060243590565b6102e081019081106001600160401b03821117611cb557604052565b634e487b7160e01b600052604160045260246000fd5b606081019081106001600160401b03821117611cb557604052565b61016081019081106001600160401b03821117611cb557604052565b60c081019081106001600160401b03821117611cb557604052565b90601f801991011681019081106001600160401b03821117611cb557604052565b6001600160401b038111611cb55760051b60200190565b60405190611d6282611ce6565b60606101408360008152600060208201526000604082015260008382015260006080820152600060a0820152600060c08201528260e082015282610100820152826101208201520152565b60405190611dba82611c99565b60606102c08360008152600060208201526000604082015260008382015260006080820152600060a0820152600060c0820152600060e08201526000610100820152600061012082015282610140820152826101608201528261018082015260006101a082015260006101c082015260006101e0820152600061020082015260006102208201526000610240820152604051611e5581611ccb565b6000815260006020820152600060408201526102608201526000610280820152611e7d611d55565b6102a08201520152565b60405190611e96602083611d1d565b600080835282815b828110611eaa57505050565b602090611eb5611dad565b82828501015201611e9e565b90611ecb82611d3e565b611ed86040519182611d1d565b8281528092611ee9601f1991611d3e565b019060005b828110611efa57505050565b602090611f05611dad565b82828501015201611eee565b9190820391821161154257565b9190820180921161154257565b8051821015611f3f5760209160051b010190565b634e487b7160e01b600052603260045260246000fd5b9160249060206001600160a01b03611f6b612ebd565b604051633169e04360e01b81526001600160a01b038816600482015294859290918391165afa918215610501576000926120b2575b50818310156120a657611fb683611fc593611f11565b80821161209e575b5082611f1e565b611fd7611fd28383611f11565b611ec1565b92825b828110611fe8575050505090565b6001600160a01b03611ff8612ebd565b604051632a69ae7d60e01b81526001600160a01b0385166004820152602481018490529160209183916044918391165afa9081156105015760009161206b575b5090612064612048600193612f77565b6120528784611f11565b9061205d828a611f2b565b5287611f2b565b5001611fda565b906020823d8211612096575b8161208460209383611d1d565b81010312610d2f575051612064612038565b3d9150612077565b905038611fbe565b505050506119d3611e87565b90916020823d6020116120de575b816120cd60209383611d1d565b81010312610d2f5750519038611fa0565b3d91506120c0565b9160249060206001600160a01b036120fc612ebd565b60405163891ed77d60e01b81526001600160a01b038816600482015294859290918391165afa918215610501576000926121ff575b50818310156120a657611fb68361214793611f11565b612154611fd28383611f11565b92825b828110612165575050505090565b6001600160a01b03612175612ebd565b60405163b1d9fb6360e01b81526001600160a01b0385166004820152602481018490529160209183916044918391165afa908115610501576000916121cc575b50906121c5612048600193612f77565b5001612157565b906020823d82116121f7575b816121e560209383611d1d565b81010312610d2f5750516121c56121b5565b3d91506121d8565b90916020823d60201161222b575b8161221a60209383611d1d565b81010312610d2f5750519038612131565b3d915061220d565b6000526000805160206143f083398151915260205260016040600020015490565b51906001600160a01b03821682036101c557565b81601f820112156101c55780516001600160401b038111611cb5576040519261229b601f8301601f191660200185611d1d565b818452602082840101116101c5576119d3916020808501910161183e565b6020818303126101c5578051906001600160401b0382116101c557016102e0818303126101c557604051916122ed83611c99565b815160068110156101c5578352602082015160058110156101c55760208401526040820151600f8110156101c55760408401526060820151600f8110156101c557606084015261233f60808301612254565b608084015261235060a08301612254565b60a084015261236160c08301612254565b60c084015261237260e08301612254565b60e08401526101008201516101008401526101208201516101208401526101408201516101408401526101608201516101608401526101808201516101808401526101a08201516101a08401526101c08201516101c08401526101e08201516101e08401526102008201516001600160401b0381116101c557816123f7918401612268565b6102008401526102208201516001600160401b0381116101c5578161241d918401612268565b6102208401526102408201516001600160401b0381116101c557820181601f820112156101c55780519061245082611d3e565b9261245e6040519485611d1d565b828452602060608186019402830101918183116101c557602001925b8284106124bf5750505050906102c0916102408401526102608101516102608401526102808101516102808401526102a08101516102a084015201516102c082015290565b6060848303126101c55760206060916040516124da81611ccb565b8651815282870151838201526040870151604082015281520193019261247a565b9080601f830112156101c557815161251281611d3e565b926125206040519485611d1d565b81845260208085019260051b8201019283116101c557602001905b8282106125485750505090565b6020809161255584612254565b81520191019061253b565b9080601f830112156101c557815161257781611d3e565b926125856040519485611d1d565b81845260208085019260051b8201019283116101c557602001905b8282106125ad5750505090565b81518152602091820191016125a0565b9190610160838203126101c557604051906125d782611ce6565b8193805183526020810151602084015260408101516040840152606081015160608401526080810151608084015260a081015160a084015260c081015160068110156101c55760c084015260e08101516001600160401b0381116101c557826126419183016124fb565b60e08401526101008101516001600160401b0381116101c557810182601f820112156101c557805161267281611d3e565b916126806040519384611d1d565b81835260208084019260051b820101908582116101c557602001915b8183106126fa575050506101008401526101208101516001600160401b0381116101c557826126cc918301612560565b610120840152610140810151916001600160401b0383116101c557610140926126f59201612560565b910152565b825160058110156101c55781526020928301920161269c565b906020828203126101c55781516001600160401b0381116101c5576119d392016125bd565b6006821015610df25752565b519081151582036101c557565b91908260409103126101c5576119d3602061276b84612254565b9301612744565b90816101009103126101c557604051906101008201908282106001600160401b03831117611cb55760e091604052805183526020810151602084015260408101516040840152606081015160608401526080810151608084015260a081015160a084015260c081015160c0840152015160e082015290565b906020828203126101c55781516001600160401b0381116101c5576119d392016124fb565b6020818303126101c5578051906001600160401b0382116101c5570181601f820112156101c55780519061284282611d3e565b926128506040519485611d1d565b82845260208085019360051b830101918183116101c55760208101935b83851061287c57505050505090565b84516001600160401b0381116101c557820160c0818503601f1901126101c557604051916128a983611d02565b602082015160028110156101c55783526128c560408301612254565b6020840152606082015160408401526080820151926001600160401b0384116101c55760c0836128fc886020809881980101612268565b606084015261290d60a08201612744565b6080840152015160a082015281520194019361286d565b908160209103126101c5575160048110156101c55790565b6004821015610df25752565b600f821015610df25752565b61295c611dad565b9060206001600160a01b0361296f612ebd565b6040516365728e6960e11b81526001600160a01b03909416600485015283916024918391165afa908115610501576000916129ba575b5080156129b6576119d39150612f77565b5090565b906020823d6020116129e4575b816129d460209383611d1d565b81010312610d2f575051386129a5565b3d91506129c7565b6024906129f7611dad565b60206001600160a01b03612a09612ebd565b60405163891ed77d60e01b81526001600160a01b038616600482015295869290918391165afa92831561050157600093612ae6575b508215612ae057506001600160a01b03612a56612ebd565b169160001981019081116115425760405163b1d9fb6360e01b81526001600160a01b03929092166004830152602482015290602090829060449082905afa801561050157600090612aac575b6119d39150612f77565b506020813d602011612ad8575b81612ac660209383611d1d565b810103126101c5576119d39051612aa2565b3d9150612ab9565b91505090565b90926020823d602011612b12575b81612b0160209383611d1d565b81010312610d2f5750519138612a3e565b3d9150612af4565b908160c09103126101c55760a060405191612b3483611d02565b8051835260208101516020840152604081015160408401526060810151606084015260808101516080840152015160a082015290565b9160249160006001600160a01b03612b80613700565b166040519485809263255709e560e11b82528860048301525afa90811561050157602493600092612ea0575b506101006001600160a01b03612bc061382a565b166040519586809263149ecac960e11b82528960048301525afa93841561050157600094612e7f575b5080612e79575042935b6060820193845194600f861015610df257600560009614159081612e62575b81612e4b575b81612e20575b81612df6575b50612ded5760049060c06001600160a01b03612c3e61382a565b166040519384809263e70c38f160e01b82525afa918215612de2578692612db1575b5060a08101805190919015612d52575051608090910151612c8091611f1e565b915b828610612d4a57612cdf916020916001600160a01b03612ca0612ebd565b60c0909201516040516378e6dfbb60e11b81526001600160a01b0391909116600482015260248101939093529193849290911690829081906044820190565b03915afa90811561148e578491612d10575b5015612d0957612d0391925083611f11565b60019291565b5081929190565b90506020813d602011612d42575b81612d2b60209383611d1d565b8101031261148257612d3c90612744565b38612cf1565b3d9150612d1e565b505091929190565b60808101805190925015612d865750906080612d77612d809351606084015190611f1e565b91015190611f1e565b91612c82565b60e001519190508115612da7576080612d77612d8093606084015190611f1e565b5050505081929190565b612dd491925060c03d60c011612ddb575b612dcc8183611d1d565b810190612b1a565b9038612c60565b503d612dc2565b6040513d88823e3d90fd5b50505081929190565b905051600f811015612e0c576004141538612c24565b634e487b7160e01b86526021600452602486fd5b80915051600f811015612e3757600d141590612c1e565b634e487b7160e01b87526021600452602487fd5b80915051600f811015612e3757600c141590612c18565b80915051600f811015612e37576006141590612c12565b93612bf3565b612e999194506101003d8111610f3857610f298183611d1d565b9238612be9565b612eb69192503d806000833e610f528183611d1d565b9038612bac565b600054604051631bae711d60e21b8152602060048201819052600660248301526551756575657360d01b60448301529091829060649082906001600160a01b03165afa90811561050157600091612f1c575b506001600160a01b031690565b90506020813d602011612f4e575b81612f3760209383611d1d565b810103126101c557612f4890612254565b38612f0f565b3d9150612f2a565b6000805160206143d0833981519152546001600160a01b0316330361066157565b61022052612f83611dad565b50602460006001600160a01b03612f98613700565b166040519283809263255709e560e11b82526102205160048301525afa90811561050157600091613554575b5060246101006001600160a01b03612fda61382a565b166040519283809263149ecac960e11b82526102205160048301525afa90811561050157600091613535575b506001600160a01b0361301761376a565b1660405163ba15d63560e01b8152610220516004820152602081602481855afa8015610501576000610260526134f9575b50600060449160405192838092635af5446960e01b82526102205160048301526102605160248301525afa80156105015760006102e0526134d9575b50602460006001600160a01b0361309961382a565b1660405192838092633717892560e01b82526102205160048301525afa8015610501576000610280526134bb575b506101a082018051600090156134295750515b60a08381015160c0808601516001600160a01b039081166102a0526101208701516102c052610100870151865196909401516102e0519092015192169390916006811015610df2576102008701516101c0880151610220890151602497909360006001600160a01b0361314b61418f565b166040519a8b8092630c15982760e11b82526102205160048301525afa9586156105015760249960009761340c575b5060206001600160a01b0361318d612ebd565b166040519b8c8092636262ae6b60e01b82526102205160048301525afa9788156105015760249a6000996133eb575b5060206001600160a01b036131cf612ebd565b166040519c8d809263c404723360e01b82526102205160048301525afa9a8b156105015760009b6133b7575b5060e0808e01516102e051918201516020909201516001600160a01b039182169e92610240929161322b91611f2b565b51169e61323b426102205161388a565b6101e052018051516000610240521561338157519a8b519560001987019687116115425761326f6132db9761330c9e611f2b565b51610240525b6040516102005261328861020051611c99565b42610200515260206102005101526102a05160406102005101526102c0516060610200510152608061020051015260a061020051015260c061020051015260e06102005101526101006102005101612738565b6101206102005101526101406102005101526101606102005101526101806102005101526101a0610200510161293c565b6101c06102005101526101e0610200510152610200805101526133396101e0516102206102005101612948565b6102205161024061020051015261024051610260610200510152610260516102806102005101526102e0516102a0610200510152610280516102c06102005101526102005190565b5061330c9a6132db9560405161339681611ccb565b61024051815261024051602082015261024051604082015261024052613275565b909a506020813d6020116133e3575b816133d360209383611d1d565b810103126101c5575199386131fb565b3d91506133c6565b61340591995060203d602011610d7057610d618183611d1d565b97386131bc565b6134229197503d806000833e610d8c8183611d1d565b953861317a565b90506001600160a01b0361343b6137c8565b16602060018060a01b0360c086015116602460405180948193631c5f1acf60e31b835260048301525afa9182156134af57809261347a575b50506130da565b9091506020823d6020116134a7575b8161349660209383611d1d565b81010312610d2f5750513880613473565b3d9150613489565b604051903d90823e3d90fd5b6134cf903d806000833e610e298183611d1d565b61028052386130c7565b6134ef903d806102e051833e6104f38183611d1d565b6102e05238613084565b6020813d60201161352d575b8161351260209383611d1d565b810103126135265751610260526000613048565b6102605180fd5b3d9150613505565b61354e91506101003d8111610f3857610f298183611d1d565b38613006565b613567913d8091833e610f528183611d1d565b38612fc4565b60008181526000805160206143f08339815191526020908152604080832033845290915290205460ff161561359f5750565b63e2517d3f60e01b6000523360045260245260446000fd5b60008181526000805160206143f0833981519152602090815260408083206001600160a01b038616845290915290205460ff166136595760008181526000805160206143f0833981519152602090815260408083206001600160a01b0395909516808452949091528120805460ff19166001179055339291907f2f8788117e7eff1d82e926ec794901d17c78024a50270940304540a733656f0d9080a4600190565b5050600090565b60008181526000805160206143f0833981519152602090815260408083206001600160a01b038616845290915290205460ff16156136595760008181526000805160206143f0833981519152602090815260408083206001600160a01b0395909516808452949091528120805460ff19169055339291907ff6391f5c32d9c69d2a47ea670b442974b53935d1edc7fd64eb21e047a839171b9080a4600190565b600054604051631bae711d60e21b815260206004820181905260126024830152712a3930b739b0b1ba34b7b726b0b730b3b2b960711b60448301529091829060649082906001600160a01b03165afa90811561050157600091612f1c57506001600160a01b031690565b600054604051631bae711d60e21b81526020600482018190526006602483015265526f756e647360d01b60448301529091829060649082906001600160a01b03165afa90811561050157600091612f1c57506001600160a01b031690565b600054604051631bae711d60e21b8152602060048201819052600a60248301526923b2b726b0b730b3b2b960b11b60448301529091829060649082906001600160a01b03165afa90811561050157600091612f1c57506001600160a01b031690565b600054604051631bae711d60e21b8152602060048201819052600860248301526749646c656e65737360c01b60448301529091829060649082906001600160a01b03165afa90811561050157600091612f1c57506001600160a01b031690565b60249160006001600160a01b0361389f613700565b166040519485809263255709e560e11b82528660048301525afa92831561050157600093614172575b506138d161382a565b60405163e70c38f160e01b815291906001600160a01b03811660c084600481845afa9081156105015760249460009261414d575b50610100906040519586809263149ecac960e11b82528960048301525afa9384156105015760009461412c575b506060860193845196600f881015610df25760009760010361398f57509460206139619596015191519261425d565b613988575190600f821015613974575090565b634e487b7160e01b81526021600452602490fd5b5050600890565b8551600f811015610da8576002036139d1575094602060406139b7969701519201519261425d565b6139ca575190600f821015613974575090565b5050600690565b8551600f811015610da8576003036139f9575094604060606139b7969701519201519261425d565b949390928451600f811015610da857600403613df9575060a083019283518015159081613de0575b508015613d93575b15613a3b575050505050505050600b90565b60e00151928315159384613d89575b84613d6e575b508315613d3c575b505050600014613d2a57506001600160a01b03613a7361376a565b60405163ba15d63560e01b815260048101859052911692602082602481875afa918215613d1f57908592918392613ce4575b506044906040519586938492635af5446960e01b8452600484015260248301525afa918215611439578392613cc5575b508254604051631bae711d60e21b81526020600482018190526006602483015265566f74696e6760d01b6044830152909291839060649082906001600160a01b03165afa91821561148e578492613c86575b506101e00151610140610100840151930151604051938492630e5cc50b60e41b845260648401906004850152606060248501528151809152602060848501920190875b818110613c615750505060031983820301604484015260208083519283815201920190865b818110613c48575060209492849003928492506001600160a01b031690505afa908115613c3d578291613bfe575b506006811015613bea5760018103613bd6575050600590565b600314159050613be557600c90565b600690565b634e487b7160e01b82526021600452602482fd5b90506020813d602011613c35575b81613c1960209383611d1d565b81010312613c3157516006811015613c315738613bbd565b5080fd5b3d9150613c0c565b6040513d84823e3d90fd5b8251845286945060209384019390920191600101613b8f565b919394509160208082613c7760019488516118d0565b01940191019186949392613b6a565b9091506020813d602011613cbd575b81613ca260209383611d1d565b8101031261148257613cb66101e091612254565b9190613b27565b3d9150613c95565b6064919250613cdd903d8086833e6104f38183611d1d565b9190613ad5565b915091506020813d602011613d17575b81613d0160209383611d1d565b81010312613d13575184916044613aa5565b8480fd5b3d9150613cf4565b6040513d87823e3d90fd5b9150505190600f821015613974575090565b518015159350909183613d55575b505050388080613a58565b613d659293506080015190611f1e565b11388080613d4a565b613d7f919450606084015190611f1e565b8110159238613a50565b8151159450613a4a565b5060e08101518015159081613dd6575b81613daf575b50613a29565b6060850151613dcd9250613dc291611f1e565b608085015190611f1e565b82101538613da9565b8551159150613da3565b613df09150608085015190611f1e565b82101538613a21565b91969392948396919651600f811015612e0c57600503613e5457505050505060a001518015159283613e3a575b505050600014613e3557600b90565b600590565b613e4a9293506080015190611f1e565b1115388080613e26565b83969497929351600f811015610da857600e03613e7f575060a060806139b79601519201519261425d565b939291908651600f811015610da857600a03613ed157604060c0613ea9969701519201519261425d565b613ebd57505190600f821015613974575090565b60409150015190600f821015613974575090565b509250508351600f811015612e0c57600903613ef9575050505190600f821015613974575090565b8351600f811015612e0c57600d03613fa95760608301918251938415159485613f8e575b508415613f46575b50505050600014613f37575050600b90565b5190600f821015613974575090565b604001518015159450919284613f84575b5083613f6a575b50505038808080613f25565b613f7a9293506080015190611f1e565b1115388080613f5e565b5115935038613f57565b613f9f919550608083015190611f1e565b8210159338613f1d565b90918351600f811015612e0c57600c03613ff65760a001518015159283613fdc575b505050600014613f37575050600b90565b613fec9293506080015190611f1e565b1115388080613fcb565b908351600f811015612e0c5760061461401b575050505190600f821015613974575090565b919350915060a08201928351938415159485614111575b5084156140c3575b8415614051575b50505050600014613be557600b90565b511593509091836140b6575b836140a8575b83614075575b50505038808080614041565b61409e929350612d7761409360606080930151604085015190611f1e565b606084015190611f1e565b1115388080614069565b606081015115159350614063565b608081015115935061405d565b809450511580614104575b806140da575b9361403a565b506140fc6140f16080850151606084015190611f1e565b608083015190611f1e565b8210156140d4565b50608083015115156140ce565b614122919550608083015190611f1e565b8210159338614032565b6141469194506101003d8111610f3857610f298183611d1d565b9238613932565b61010091925061416b9060c03d60c011612ddb57612dcc8183611d1d565b9190613905565b6141889193503d806000833e610f528183611d1d565b91386138c8565b600054604051631bae711d60e21b815260206004820181905260086024830152674d6573736167657360c01b60448301529091829060649082906001600160a01b03165afa90811561050157600091612f1c57506001600160a01b031690565b60008051602061443083398151915280546001600160a01b03199081169091556000805160206143d083398151915280549182166001600160a01b0393841690811790915591167f8be0079c531659141344cd1fd0a4f28419497f9722a3daafe3b4186f6b6457e0600080a3565b60405162b9525760e71b8152916001600160a01b039190911690602083600481855afa9283156105015760009361436d575b5082158015614365575b801561435d575b6143525760209060246040518094819363f166760760e01b835260048301525afa90811561050157600091614320575b5060009181811115614318576142e69250611f11565b905b82820291808304841490151715611542578261430b938310614310575b50611f1e565b111590565b915038614305565b5050906142e8565b906020823d60201161434a575b8161433a60209383611d1d565b81010312610d2f575051386142d0565b3d915061432d565b505050505050600090565b5083156142a0565b508415614299565b90926020823d602011614399575b8161438860209383611d1d565b81010312610d2f575051913861428f565b3d915061437b565b60ff6000805160206144108339815191525460401c16156143be57565b631afcd79f60e31b60005260046000fdfe9016d09d72d40fdae2fd8ceac6b6234c7706214fd39c1cd1e609a0528c19930002dd7bc7dec4dceedda775e58dd541e08a116c6c53815c0bd028192f7b626800f0c57e16840df040f15088dc2f81fe391c3923bec73e23a9662efc9c229c6a00237e158222e3e6968b72b9db0d8043aacf074ad9f650f0d1606b4d82ee432c00a2646970667358221220088fa5ce7839718d86971d376f471ab4fcf3287a2d50f9c56fd876c927fd4f3464736f6c634300081c0033",
  "linkReferences": {},
  "deployedLinkReferences": {}
}