{
  "_format": "hh-sol-artifact-1",
  "contractName": "ValidatorWalletFactory",
  "sourceName": "contracts/validatorsWallet/ValidatorWalletFactory.sol",
  "abi": [
    {
      "inputs": [],
      "name": "AccessControlBadConfirmation",
      "type": "error"
    },
    {
      "inputs": [
        {
          "internalType": "address",
          "name": "account",
          "type": "address"
        },
        {
          "internalType": "bytes32",
          "name": "neededRole",
          "type": "bytes32"
        }
      ],
      "name": "AccessControlUnauthorizedAccount",
      "type": "error"
    },
    {
      "inputs": [],
      "name": "BeaconNotDeployed",
      "type": "error"
    },
    {
      "inputs": [],
      "name": "CallerNotAuthorized",
      "type": "error"
    },
    {
      "inputs": [],
      "name": "IndexOutOfBounds",
      "type": "error"
    },
    {
      "inputs": [],
      "name": "InvalidAddress",
      "type": "error"
    },
    {
      "inputs": [],
      "name": "InvalidInitialization",
      "type": "error"
    },
    {
      "inputs": [],
      "name": "InvalidNonce",
      "type": "error"
    },
    {
      "inputs": [],
      "name": "NotInitializing",
      "type": "error"
    },
    {
      "inputs": [
        {
          "internalType": "address",
          "name": "owner",
          "type": "address"
        }
      ],
      "name": "OwnableInvalidOwner",
      "type": "error"
    },
    {
      "inputs": [
        {
          "internalType": "address",
          "name": "account",
          "type": "address"
        }
      ],
      "name": "OwnableUnauthorizedAccount",
      "type": "error"
    },
    {
      "inputs": [],
      "name": "ReentrancyGuardReentrantCall",
      "type": "error"
    },
    {
      "inputs": [],
      "name": "ValidatorWalletAlreadyDeployed",
      "type": "error"
    },
    {
      "inputs": [],
      "name": "WalletDeploymentFailed",
      "type": "error"
    },
    {
      "anonymous": false,
      "inputs": [
        {
          "indexed": true,
          "internalType": "address",
          "name": "beacon",
          "type": "address"
        },
        {
          "indexed": true,
          "internalType": "address",
          "name": "implementation",
          "type": "address"
        }
      ],
      "name": "BeaconDeployed",
      "type": "event"
    },
    {
      "anonymous": false,
      "inputs": [
        {
          "indexed": true,
          "internalType": "address",
          "name": "newImplementation",
          "type": "address"
        }
      ],
      "name": "BeaconUpgraded",
      "type": "event"
    },
    {
      "anonymous": false,
      "inputs": [
        {
          "indexed": true,
          "internalType": "address",
          "name": "consensusContract",
          "type": "address"
        }
      ],
      "name": "ConsensusContractSet",
      "type": "event"
    },
    {
      "anonymous": false,
      "inputs": [
        {
          "indexed": false,
          "internalType": "uint64",
          "name": "version",
          "type": "uint64"
        }
      ],
      "name": "Initialized",
      "type": "event"
    },
    {
      "anonymous": false,
      "inputs": [
        {
          "indexed": true,
          "internalType": "address",
          "name": "previousOwner",
          "type": "address"
        },
        {
          "indexed": true,
          "internalType": "address",
          "name": "newOwner",
          "type": "address"
        }
      ],
      "name": "OwnershipTransferStarted",
      "type": "event"
    },
    {
      "anonymous": false,
      "inputs": [
        {
          "indexed": true,
          "internalType": "address",
          "name": "previousOwner",
          "type": "address"
        },
        {
          "indexed": true,
          "internalType": "address",
          "name": "newOwner",
          "type": "address"
        }
      ],
      "name": "OwnershipTransferred",
      "type": "event"
    },
    {
      "anonymous": false,
      "inputs": [
        {
          "indexed": true,
          "internalType": "bytes32",
          "name": "role",
          "type": "bytes32"
        },
        {
          "indexed": true,
          "internalType": "bytes32",
          "name": "previousAdminRole",
          "type": "bytes32"
        },
        {
          "indexed": true,
          "internalType": "bytes32",
          "name": "newAdminRole",
          "type": "bytes32"
        }
      ],
      "name": "RoleAdminChanged",
      "type": "event"
    },
    {
      "anonymous": false,
      "inputs": [
        {
          "indexed": true,
          "internalType": "bytes32",
          "name": "role",
          "type": "bytes32"
        },
        {
          "indexed": true,
          "internalType": "address",
          "name": "account",
          "type": "address"
        },
        {
          "indexed": true,
          "internalType": "address",
          "name": "sender",
          "type": "address"
        }
      ],
      "name": "RoleGranted",
      "type": "event"
    },
    {
      "anonymous": false,
      "inputs": [
        {
          "indexed": true,
          "internalType": "bytes32",
          "name": "role",
          "type": "bytes32"
        },
        {
          "indexed": true,
          "internalType": "address",
          "name": "account",
          "type": "address"
        },
        {
          "indexed": true,
          "internalType": "address",
          "name": "sender",
          "type": "address"
        }
      ],
      "name": "RoleRevoked",
      "type": "event"
    },
    {
      "anonymous": false,
      "inputs": [
        {
          "indexed": true,
          "internalType": "address",
          "name": "stakingContract",
          "type": "address"
        }
      ],
      "name": "StakingContractSet",
      "type": "event"
    },
    {
      "anonymous": false,
      "inputs": [
        {
          "indexed": true,
          "internalType": "address",
          "name": "blueprint",
          "type": "address"
        }
      ],
      "name": "ValidatorWalletBlueprintSet",
      "type": "event"
    },
    {
      "anonymous": false,
      "inputs": [
        {
          "indexed": true,
          "internalType": "address",
          "name": "validatorOwner",
          "type": "address"
        },
        {
          "indexed": true,
          "internalType": "address",
          "name": "operator",
          "type": "address"
        },
        {
          "indexed": true,
          "internalType": "address",
          "name": "wallet",
          "type": "address"
        },
        {
          "indexed": false,
          "internalType": "uint256",
          "name": "nonce",
          "type": "uint256"
        }
      ],
      "name": "ValidatorWalletDeployed",
      "type": "event"
    },
    {
      "inputs": [],
      "name": "DEFAULT_ADMIN_ROLE",
      "outputs": [
        {
          "internalType": "bytes32",
          "name": "",
          "type": "bytes32"
        }
      ],
      "stateMutability": "view",
      "type": "function"
    },
    {
      "inputs": [],
      "name": "INITIALIZE_SELECTOR",
      "outputs": [
        {
          "internalType": "bytes4",
          "name": "",
          "type": "bytes4"
        }
      ],
      "stateMutability": "view",
      "type": "function"
    },
    {
      "inputs": [],
      "name": "acceptOwnership",
      "outputs": [],
      "stateMutability": "nonpayable",
      "type": "function"
    },
    {
      "inputs": [],
      "name": "addressManager",
      "outputs": [
        {
          "internalType": "contract IAddressManager",
          "name": "",
          "type": "address"
        }
      ],
      "stateMutability": "view",
      "type": "function"
    },
    {
      "inputs": [],
      "name": "bytecodeHash",
      "outputs": [
        {
          "internalType": "bytes32",
          "name": "",
          "type": "bytes32"
        }
      ],
      "stateMutability": "view",
      "type": "function"
    },
    {
      "inputs": [],
      "name": "deployNewBeacon",
      "outputs": [],
      "stateMutability": "nonpayable",
      "type": "function"
    },
    {
      "inputs": [],
      "name": "deployValidatorWallet",
      "outputs": [
        {
          "internalType": "address",
          "name": "wallet",
          "type": "address"
        }
      ],
      "stateMutability": "nonpayable",
      "type": "function"
    },
    {
      "inputs": [
        {
          "internalType": "address",
          "name": "validatorOwner",
          "type": "address"
        },
        {
          "internalType": "address",
          "name": "operator",
          "type": "address"
        }
      ],
      "name": "deployValidatorWalletFor",
      "outputs": [
        {
          "internalType": "address",
          "name": "wallet",
          "type": "address"
        }
      ],
      "stateMutability": "nonpayable",
      "type": "function"
    },
    {
      "inputs": [
        {
          "internalType": "address",
          "name": "validatorOwner",
          "type": "address"
        },
        {
          "internalType": "address",
          "name": "operator",
          "type": "address"
        },
        {
          "internalType": "uint256",
          "name": "nonce",
          "type": "uint256"
        }
      ],
      "name": "deployValidatorWalletWithNonce",
      "outputs": [
        {
          "internalType": "address",
          "name": "wallet",
          "type": "address"
        }
      ],
      "stateMutability": "nonpayable",
      "type": "function"
    },
    {
      "inputs": [
        {
          "internalType": "address",
          "name": "wallet",
          "type": "address"
        }
      ],
      "name": "getOperatorForWallet",
      "outputs": [
        {
          "internalType": "address",
          "name": "",
          "type": "address"
        }
      ],
      "stateMutability": "view",
      "type": "function"
    },
    {
      "inputs": [
        {
          "internalType": "bytes32",
          "name": "role",
          "type": "bytes32"
        }
      ],
      "name": "getRoleAdmin",
      "outputs": [
        {
          "internalType": "bytes32",
          "name": "",
          "type": "bytes32"
        }
      ],
      "stateMutability": "view",
      "type": "function"
    },
    {
      "inputs": [
        {
          "internalType": "address",
          "name": "operator",
          "type": "address"
        }
      ],
      "name": "getWalletCountForOperator",
      "outputs": [
        {
          "internalType": "uint256",
          "name": "",
          "type": "uint256"
        }
      ],
      "stateMutability": "view",
      "type": "function"
    },
    {
      "inputs": [
        {
          "internalType": "address",
          "name": "operator",
          "type": "address"
        },
        {
          "internalType": "uint256",
          "name": "index",
          "type": "uint256"
        }
      ],
      "name": "getWalletForOperator",
      "outputs": [
        {
          "internalType": "address",
          "name": "",
          "type": "address"
        }
      ],
      "stateMutability": "view",
      "type": "function"
    },
    {
      "inputs": [
        {
          "internalType": "address",
          "name": "operator",
          "type": "address"
        }
      ],
      "name": "getWalletsForOperator",
      "outputs": [
        {
          "internalType": "address[]",
          "name": "",
          "type": "address[]"
        }
      ],
      "stateMutability": "view",
      "type": "function"
    },
    {
      "inputs": [
        {
          "internalType": "bytes32",
          "name": "role",
          "type": "bytes32"
        },
        {
          "internalType": "address",
          "name": "account",
          "type": "address"
        }
      ],
      "name": "grantRole",
      "outputs": [],
      "stateMutability": "nonpayable",
      "type": "function"
    },
    {
      "inputs": [
        {
          "internalType": "bytes32",
          "name": "role",
          "type": "bytes32"
        },
        {
          "internalType": "address",
          "name": "account",
          "type": "address"
        }
      ],
      "name": "hasRole",
      "outputs": [
        {
          "internalType": "bool",
          "name": "",
          "type": "bool"
        }
      ],
      "stateMutability": "view",
      "type": "function"
    },
    {
      "inputs": [
        {
          "internalType": "address",
          "name": "_addressManager",
          "type": "address"
        }
      ],
      "name": "initialize",
      "outputs": [],
      "stateMutability": "nonpayable",
      "type": "function"
    },
    {
      "inputs": [
        {
          "internalType": "address",
          "name": "",
          "type": "address"
        }
      ],
      "name": "isValidatorWallet",
      "outputs": [
        {
          "internalType": "bool",
          "name": "",
          "type": "bool"
        }
      ],
      "stateMutability": "view",
      "type": "function"
    },
    {
      "inputs": [
        {
          "internalType": "address",
          "name": "wallet",
          "type": "address"
        }
      ],
      "name": "isValidatorWalletAddress",
      "outputs": [
        {
          "internalType": "bool",
          "name": "",
          "type": "bool"
        }
      ],
      "stateMutability": "view",
      "type": "function"
    },
    {
      "inputs": [],
      "name": "latestWallet",
      "outputs": [
        {
          "internalType": "address",
          "name": "",
          "type": "address"
        }
      ],
      "stateMutability": "view",
      "type": "function"
    },
    {
      "inputs": [
        {
          "internalType": "address",
          "name": "",
          "type": "address"
        }
      ],
      "name": "operatorNonce",
      "outputs": [
        {
          "internalType": "uint256",
          "name": "",
          "type": "uint256"
        }
      ],
      "stateMutability": "view",
      "type": "function"
    },
    {
      "inputs": [
        {
          "internalType": "address",
          "name": "",
          "type": "address"
        },
        {
          "internalType": "uint256",
          "name": "",
          "type": "uint256"
        }
      ],
      "name": "operatorToWallets",
      "outputs": [
        {
          "internalType": "address",
          "name": "",
          "type": "address"
        }
      ],
      "stateMutability": "view",
      "type": "function"
    },
    {
      "inputs": [],
      "name": "operatorTransferDelay",
      "outputs": [
        {
          "internalType": "uint256",
          "name": "",
          "type": "uint256"
        }
      ],
      "stateMutability": "view",
      "type": "function"
    },
    {
      "inputs": [],
      "name": "owner",
      "outputs": [
        {
          "internalType": "address",
          "name": "",
          "type": "address"
        }
      ],
      "stateMutability": "view",
      "type": "function"
    },
    {
      "inputs": [],
      "name": "pendingOwner",
      "outputs": [
        {
          "internalType": "address",
          "name": "",
          "type": "address"
        }
      ],
      "stateMutability": "view",
      "type": "function"
    },
    {
      "inputs": [
        {
          "internalType": "address",
          "name": "operator",
          "type": "address"
        }
      ],
      "name": "predictNextWalletAddress",
      "outputs": [
        {
          "internalType": "address",
          "name": "predicted",
          "type": "address"
        }
      ],
      "stateMutability": "view",
      "type": "function"
    },
    {
      "inputs": [
        {
          "internalType": "address",
          "name": "operator",
          "type": "address"
        },
        {
          "internalType": "uint256",
          "name": "nonce",
          "type": "uint256"
        }
      ],
      "name": "predictValidatorWalletAddress",
      "outputs": [
        {
          "internalType": "address",
          "name": "predicted",
          "type": "address"
        }
      ],
      "stateMutability": "view",
      "type": "function"
    },
    {
      "inputs": [],
      "name": "renounceOwnership",
      "outputs": [],
      "stateMutability": "nonpayable",
      "type": "function"
    },
    {
      "inputs": [
        {
          "internalType": "bytes32",
          "name": "role",
          "type": "bytes32"
        },
        {
          "internalType": "address",
          "name": "callerConfirmation",
          "type": "address"
        }
      ],
      "name": "renounceRole",
      "outputs": [],
      "stateMutability": "nonpayable",
      "type": "function"
    },
    {
      "inputs": [
        {
          "internalType": "bytes32",
          "name": "role",
          "type": "bytes32"
        },
        {
          "internalType": "address",
          "name": "account",
          "type": "address"
        }
      ],
      "name": "revokeRole",
      "outputs": [],
      "stateMutability": "nonpayable",
      "type": "function"
    },
    {
      "inputs": [
        {
          "internalType": "address",
          "name": "_addressManager",
          "type": "address"
        }
      ],
      "name": "setAddressManager",
      "outputs": [],
      "stateMutability": "nonpayable",
      "type": "function"
    },
    {
      "inputs": [
        {
          "internalType": "uint256",
          "name": "delay",
          "type": "uint256"
        }
      ],
      "name": "setOperatorTransferDelay",
      "outputs": [],
      "stateMutability": "nonpayable",
      "type": "function"
    },
    {
      "inputs": [
        {
          "internalType": "address",
          "name": "_blueprint",
          "type": "address"
        }
      ],
      "name": "setValidatorWalletBlueprint",
      "outputs": [],
      "stateMutability": "nonpayable",
      "type": "function"
    },
    {
      "inputs": [
        {
          "internalType": "bytes4",
          "name": "interfaceId",
          "type": "bytes4"
        }
      ],
      "name": "supportsInterface",
      "outputs": [
        {
          "internalType": "bool",
          "name": "",
          "type": "bool"
        }
      ],
      "stateMutability": "view",
      "type": "function"
    },
    {
      "inputs": [],
      "name": "totalWalletsDeployed",
      "outputs": [
        {
          "internalType": "uint256",
          "name": "",
          "type": "uint256"
        }
      ],
      "stateMutability": "view",
      "type": "function"
    },
    {
      "inputs": [
        {
          "internalType": "address",
          "name": "newOwner",
          "type": "address"
        }
      ],
      "name": "transferOwnership",
      "outputs": [],
      "stateMutability": "nonpayable",
      "type": "function"
    },
    {
      "inputs": [
        {
          "internalType": "address",
          "name": "newImplementation",
          "type": "address"
        }
      ],
      "name": "upgradeBeacon",
      "outputs": [],
      "stateMutability": "nonpayable",
      "type": "function"
    },
    {
      "inputs": [],
      "name": "validatorWalletBeacon",
      "outputs": [
        {
          "internalType": "address",
          "name": "",
          "type": "address"
        }
      ],
      "stateMutability": "view",
      "type": "function"
    },
    {
      "inputs": [],
      "name": "validatorWalletBlueprint",
      "outputs": [
        {
          "internalType": "address",
          "name": "",
          "type": "address"
        }
      ],
      "stateMutability": "view",
      "type": "function"
    },
    {
      "inputs": [
        {
          "internalType": "address",
          "name": "",
          "type": "address"
        }
      ],
      "name": "walletToOperator",
      "outputs": [
        {
          "internalType": "address",
          "name": "",
          "type": "address"
        }
      ],
      "stateMutability": "view",
      "type": "function"
    }
  ],
  "bytecode": "0x60808060405234601557612252908161001b8239f35b600080fdfe6080604052600436101561001257600080fd5b6000803560e01c80630149754f1461109257806301ffc9a71461103b5780630652b57a14610ffb57806317ec76fd14610fc25780631a3581c414610f995780631bce458314610ead578063223fad3b14610e4b578063248a9ca314610e245780632f2ff15d14610df257806336568abe14610dad5780633ab63c5714610d435780633ab76e9f14610d1c5780633b64f90b14610ce3578063420c6a2c14610cc55780634e5d3d5a14610c8e57806356e71eda14610c6b57806362fe1e10146109c8578063641dece214610c4257806364ec26a714610a88578063715018a614610a0757806375853081146109c857806379ba5097146109775780637de1bc8f146109545780638d77c710146109365780638da5cb5b1461090057806391d14854146108a7578063a217fddf1461088b578063b254c08d1461077f578063b31ed0f914610756578063b94a11ad14610738578063c4d66de81461056e578063d547741f14610533578063df8c4a96146103d2578063dfdd72d5146104d2578063e2a4a27b14610413578063e2f7f8ee146103d2578063e30c39781461039c578063edc851c914610326578063f2fde38b1461029e5763f31fa988146101d557600080fd5b3461029b57602036600319011261029b576001600160a01b036101f66110f9565b168152600660205260408120604051908160208254918281520190819285526020852090855b81811061027c5750505082610232910383611158565b604051928392602084019060208552518091526040840192915b81811061025a575050500390f35b82516001600160a01b031684528594506020938401939092019160010161024c565b82546001600160a01b031684526020909301926001928301920161021c565b80fd5b503461029b57602036600319011261029b576102b86110f9565b6102c0611522565b6000805160206121fd83398151915280546001600160a01b0319166001600160a01b0392831690811790915560008051602061219d833981519152549091167f38d16b8cac22d99fc7c124b9cd0de2d3fa1faef420bfe791d8c362d765e227008380a380f35b503461029b57602036600319011261029b5761038a602091610374610382604061034e6110f9565b6001600160a01b03811685526007875293205460405180870194909384929091866111b1565b03601f198101835282611158565b5190206116eb565b6040516001600160a01b039091168152f35b503461029b578060031936011261029b576000805160206121fd833981519152546040516001600160a01b039091168152602090f35b503461029b57602036600319011261029b576020906001600160a01b036103f76110f9565b16815260058252604060018060a01b0391205416604051908152f35b503461029b57604036600319011261029b5761042d6110f9565b610435611114565b6001600160a01b03610445611809565b1633036104c3576001600160a01b0381169182156104b4576104769083855260076020526040852054928391611265565b91600182018092116104a05783604091602095526007855220556040519060018060a01b03168152f35b634e487b7160e01b84526011600452602484fd5b63e6c4247b60e01b8452600484fd5b63c183bcef60e01b8352600483fd5b503461029b57604036600319011261029b576104ec6110f9565b6001600160a01b031681526006602052604081208054602435929083101561029b57602061051a848461112a565b905460405160039290921b1c6001600160a01b03168152f35b503461029b57604036600319011261029b5761056a600435610553611114565b9061056561056082611190565b611558565b61164b565b5080f35b503461029b57602036600319011261029b576105886110f9565b6000805160206121dd833981519152549060ff8260401c16159167ffffffffffffffff811680159081610730575b6001149081610726575b15908161071d575b5061070e5767ffffffffffffffff1981166001176000805160206121dd83398151915255826106e1575b506105fb6118e7565b6106036118e7565b33156106cd576106123361177c565b61061a6118e7565b6106226118e7565b61062a6118e7565b60017f9b779b17422d0df92223018b32b4d1fa46e071723d6817e2486d003becc55f00556106566118e7565b82546001600160a01b0319166001600160a01b03919091161782556106785780f35b60ff60401b196000805160206121dd83398151915254166000805160206121dd833981519152557fc7f505b2f371ae2175ee4913f4499e1f2633a7b5936321eed1cdaeb6115181d2602060405160018152a180f35b631e4fbdf760e01b83526004839052602483fd5b68ffffffffffffffffff191668010000000000000001176000805160206121dd83398151915255386105f2565b63f92ee8a960e01b8452600484fd5b905015386105c8565b303b1591506105c0565b8491506105b6565b503461029b578060031936011261029b576020600a54604051908152f35b503461029b578060031936011261029b576001546040516001600160a01b039091168152602090f35b503461029b57606036600319011261029b576107996110f9565b6107a1611114565b604435906001600160a01b036107b5611809565b1633141580610869575b61085a576001600160a01b03811692831561084b5783855260076020526040852054831061083c576107f2918391611265565b918084526007602052604084205482101561081c575b6040516001600160a01b0384168152602090f35b600182018092116104a05783604091602095526007855220553880610808565b633ab3447f60e11b8552600485fd5b63e6c4247b60e01b8552600485fd5b63c183bcef60e01b8452600484fd5b5060008051602061219d833981519152546001600160a01b03163314156107bf565b503461029b578060031936011261029b57602090604051908152f35b503461029b57604036600319011261029b5760406108c3611114565b9160043581526000805160206121bd833981519152602052209060018060a01b0316600052602052602060ff604060002054166040519015158152f35b503461029b578060031936011261029b5760008051602061219d833981519152546040516001600160a01b039091168152602090f35b503461029b578060031936011261029b576020600954604051908152f35b503461029b57602036600319011261029b5761096e611522565b600435600a5580f35b503461029b578060031936011261029b576000805160206121fd83398151915254336001600160a01b03909116036109b5576109b23361177c565b80f35b63118cdaa760e01b815233600452602490fd5b503461029b57602036600319011261029b5760209060ff906040906001600160a01b036109f36110f9565b168152600484522054166040519015158152f35b503461029b578060031936011261029b57610a20611522565b6000805160206121fd83398151915280546001600160a01b031990811690915560008051602061219d8339815191528054918216905581906001600160a01b03167f8be0079c531659141344cd1fd0a4f28419497f9722a3daafe3b4186f6b6457e08280a380f35b503461029b578060031936011261029b57610aa1611522565b6001546001600160a01b03168015610c3357604051906103da908183019183831067ffffffffffffffff841117610c1f579183916040936119168439815230602082015203019082f08015610c1257600280546001600160a01b0319166001600160a01b03929092169182179055610b17611809565b610b1f61188b565b604051630a2ca2bd60e11b6020820152306024820152604481018590526001600160a01b03928316606482015291166084808301919091528152610b6460a482611158565b610bc8610bd86104ad92602060405191610b8082870184611158565b85835281830195611cf08739604051610ba181610374858201948b8661122a565b604051958694610bb9858701998a9251928391611207565b85019151809385840190611207565b010103601f198101835282611158565b5190206003556001546001600160a01b0316907f30cba6235ada75d9e019e16156fc804bc3ff68f258fcf019611e2cc7d6fc6df98380a380f35b50604051903d90823e3d90fd5b634e487b7160e01b85526041600452602485fd5b63e6c4247b60e01b8252600482fd5b503461029b578060031936011261029b576008546040516001600160a01b039091168152602090f35b503461029b578060031936011261029b57604051630a2ca2bd60e11b8152602090f35b503461029b57604036600319011261029b57602061038a610cad6110f9565b604051610382816103748682019460243590866111b1565b503461029b578060031936011261029b576020600354604051908152f35b503461029b57602036600319011261029b576020906040906001600160a01b03610d0b6110f9565b168152600783522054604051908152f35b503461029b578060031936011261029b57546040516001600160a01b039091168152602090f35b503461029b57602036600319011261029b57610d5d6110f9565b610d65611522565b6001600160a01b03168015610c3357600180546001600160a01b031916821790557fb70fa0c619f49ef75ff96dbc42700928f3e6d0a3d26727e316f2111612f409678280a280f35b503461029b57604036600319011261029b57610dc7611114565b336001600160a01b03821603610de35761056a9060043561164b565b63334bd91960e11b8252600482fd5b503461029b57604036600319011261029b5761056a600435610e12611114565b90610e1f61056082611190565b6115a2565b503461029b57602036600319011261029b576020610e43600435611190565b604051908152f35b503461029b57604036600319011261029b57610e656110f9565b6001600160a01b031680825260066020526040822054602435929190831015610e9e579160408260209461051a9452600685522061112a565b634e23d03560e01b8252600482fd5b503461029b57602036600319011261029b57610ec76110f9565b610ecf611522565b6001600160a01b0316908115610f8a576002546001600160a01b03168015610f7b57803b15610f7757818091602460405180948193631b2ce7f360e11b83528860048401525af18015610f6c57610f5c575b50600180546001600160a01b03191683179055907f1cf3b03a6cf19fa2baba4df148e9dcabedea7f8a5c07840e207e5c089be95d3e8280a280f35b81610f6691611158565b38610f21565b6040513d84823e3d90fd5b5080fd5b63130a1c6560e11b8252600482fd5b63e6c4247b60e01b8152600490fd5b503461029b578060031936011261029b576002546040516001600160a01b039091168152602090f35b503461029b57602036600319011261029b576020906040906001600160a01b03610fea6110f9565b168152600683522054604051908152f35b503461029b57602036600319011261029b576110156110f9565b61101d611522565b81546001600160a01b0319166001600160a01b039190911617815580f35b503461029b57602036600319011261029b5760043563ffffffff60e01b8116809103610f7757602090637965db0b60e01b8114908115611081575b506040519015158152f35b6301ffc9a760e01b14905082611076565b503461029b578060031936011261029b57338152600760205260408120546110bb813333611265565b90600181018091116110e55760406020933381526007855220556040519060018060a01b03168152f35b634e487b7160e01b83526011600452602483fd5b600435906001600160a01b038216820361110f57565b600080fd5b602435906001600160a01b038216820361110f57565b80548210156111425760005260206000200190600090565b634e487b7160e01b600052603260045260246000fd5b90601f8019910116810190811067ffffffffffffffff82111761117a57604052565b634e487b7160e01b600052604160045260246000fd5b6000526000805160206121bd83398151915260205260016040600020015490565b90916034926bffffffffffffffffffffffff199060601b16825260148201520190565b6001600160a01b039182168152918116602083015291821660408201529181166060830152909116608082015260a00190565b60005b83811061121a5750506000910152565b818101518382015260200161120a565b909160609260018060a01b03168252604060208301526112598151809281604086015260208686019101611207565b601f01601f1916010190565b6002549293929091906001600160a01b0316801561151157611285611809565b61128d61188b565b91600090876114395750506112d760018060a01b0360025416916112c985604051958693630a2ca2bd60e11b60208601528930602487016111d4565b03601f198101845283611158565b604051916104ad908184019284841067ffffffffffffffff85111761117a57849361130693611cf0863961122a565b03906000f0801561142d575b6001600160a01b031693841561141c576000858152600460209081526040808320805460ff191660011790556005825280832080546001600160a01b0319166001600160a01b039096169586179055848352600690915290208054600160401b81101561117a576113889160018201815561112a565b81546001600160a01b0360039290921b91821b19169087901b17905560095492600019841461140657600193909301600955600880546001600160a01b0319168617905560405190815284926001600160a01b0316907f457192f8826596f3ba7b075cdfcc3a7d6ec8ab54b15a194c711cd2046dabffec90602090a4565b634e487b7160e01b600052601160045260246000fd5b636e09c9eb60e01b60005260046000fd5b6040513d6000823e3d90fd5b90926040516020810190611452816103748c8a866111b1565b519020926001600160a01b03611467856116eb565b168552600460205260ff604086205416611502576114a19061037487604051948593630a2ca2bd60e11b60208601528b30602487016111d4565b604051916104ad8084019084821067ffffffffffffffff8311176114ee57918493916114d193611cf0863961122a565b039083f59081156114e25750611312565b604051903d90823e3d90fd5b634e487b7160e01b87526041600452602487fd5b632e73ad2160e21b8552600485fd5b63130a1c6560e11b60005260046000fd5b60008051602061219d833981519152546001600160a01b0316330361154357565b63118cdaa760e01b6000523360045260246000fd5b60008181526000805160206121bd8339815191526020908152604080832033845290915290205460ff161561158a5750565b63e2517d3f60e01b6000523360045260245260446000fd5b60008181526000805160206121bd833981519152602090815260408083206001600160a01b038616845290915290205460ff166116445760008181526000805160206121bd833981519152602090815260408083206001600160a01b0395909516808452949091528120805460ff19166001179055339291907f2f8788117e7eff1d82e926ec794901d17c78024a50270940304540a733656f0d9080a4600190565b5050600090565b60008181526000805160206121bd833981519152602090815260408083206001600160a01b038616845290915290205460ff16156116445760008181526000805160206121bd833981519152602090815260408083206001600160a01b0395909516808452949091528120805460ff19169055339291907ff6391f5c32d9c69d2a47ea670b442974b53935d1edc7fd64eb21e047a839171b9080a4600190565b6003549081156117375760405191602083019160ff60f81b83523060601b60218501526035840152605583015260558252611727607583611158565b905190206001600160a01b031690565b60405162461bcd60e51b815260206004820152601d60248201527f42797465636f64652068617368206e6f7420696e697469616c697a65640000006044820152606490fd5b6000805160206121fd83398151915280546001600160a01b031990811690915560008051602061219d83398151915280549182166001600160a01b0393841690811790915591167f8be0079c531659141344cd1fd0a4f28419497f9722a3daafe3b4186f6b6457e0600080a3565b9081602091031261110f57516001600160a01b038116810361110f5790565b600054604051631bae711d60e21b815260206004820181905260076024830152665374616b696e6760c81b60448301529091829060649082906001600160a01b03165afa90811561142d5760009161185f575090565b611881915060203d602011611884575b6118798183611158565b8101906117ea565b90565b503d61186f565b600054604051631bae711d60e21b8152602060048201819052600d60248301526c21b7b739b2b739bab9a6b0b4b760991b60448301529091829060649082906001600160a01b03165afa90811561142d5760009161185f575090565b60ff6000805160206121dd8339815191525460401c161561190457565b631afcd79f60e31b60005260046000fdfe60803461013a57601f6103da38819003918201601f19168301916001600160401b0383118484101761013f57808492604094855283398101031261013a5761004681610155565b906001600160a01b039061005c90602001610155565b1690811561012457600080546001600160a01b031981168417825560405193916001600160a01b03909116907f8be0079c531659141344cd1fd0a4f28419497f9722a3daafe3b4186f6b6457e09080a3803b1561010357600180546001600160a01b0319166001600160a01b039290921691821790557fbc7cd75a20ee27fd9adebab32041f755214dbc6bffa90cc0225b39da2e5c2d3b600080a2610270908161016a8239f35b63211eb15960e21b60009081526001600160a01b0391909116600452602490fd5b631e4fbdf760e01b600052600060045260246000fd5b600080fd5b634e487b7160e01b600052604160045260246000fd5b51906001600160a01b038216820361013a5756fe6080604052600436101561001257600080fd5b60003560e01c80633659cfe6146101905780635c60da1b14610167578063715018a61461010e5780638da5cb5b146100e55763f2fde38b1461005357600080fd5b346100e05760203660031901126100e0576004356001600160a01b038116908190036100e057610081610211565b80156100ca57600080546001600160a01b03198116831782556001600160a01b0316907f8be0079c531659141344cd1fd0a4f28419497f9722a3daafe3b4186f6b6457e09080a3005b631e4fbdf760e01b600052600060045260246000fd5b600080fd5b346100e05760003660031901126100e0576000546040516001600160a01b039091168152602090f35b346100e05760003660031901126100e057610127610211565b600080546001600160a01b0319811682556001600160a01b03167f8be0079c531659141344cd1fd0a4f28419497f9722a3daafe3b4186f6b6457e08280a3005b346100e05760003660031901126100e0576001546040516001600160a01b039091168152602090f35b346100e05760203660031901126100e0576004356001600160a01b038116908181036100e0576101be610211565b3b156101fd57600180546001600160a01b031916821790557fbc7cd75a20ee27fd9adebab32041f755214dbc6bffa90cc0225b39da2e5c2d3b600080a2005b63211eb15960e21b60005260045260246000fd5b6000546001600160a01b0316330361022557565b63118cdaa760e01b6000523360045260246000fdfea26469706673582212205be932ea8d033c79c2075910c9f2a1219e9addcb9ea1818f0956cdde62d7866f64736f6c634300081c003360a0806040526104ad803803809161001782856102b7565b833981016040828203126101f35761002e826102f0565b602083015190926001600160401b0382116101f3570181601f820112156101f35780519061005b82610304565b9261006960405194856102b7565b828452602083830101116101f35760005b8281106102a2575050602060009183010152813b15610280577fa3f0ad74e5423aebfd80d3ef4346578335a9a72aeaee59ff6cb3582b35133d5080546001600160a01b0319166001600160a01b038416908117909155604051635c60da1b60e01b8152909190602081600481865afa90811561020057600091610246575b50803b156102255750817f1cf3b03a6cf19fa2baba4df148e9dcabedea7f8a5c07840e207e5c089be95d3e600080a280511561020c57602060049260405193848092635c60da1b60e01b82525afa918215610200576000926101b9575b509060008083602061019595519101845af43d156101b1573d9161017883610304565b9261018660405194856102b7565b83523d6000602085013e61031f565b505b60805260405161012c908161038182396080518160180152f35b60609161031f565b91506020823d6020116101f8575b816101d4602093836102b7565b810103126101f3576000806101eb610195946102f0565b935050610155565b600080fd5b3d91506101c7565b6040513d6000823e3d90fd5b505034156101975763b398979f60e01b60005260046000fd5b634c9c8ce360e01b60009081526001600160a01b0391909116600452602490fd5b90506020813d602011610278575b81610261602093836102b7565b810103126101f357610272906102f0565b386100f8565b3d9150610254565b50631933b43b60e21b60009081526001600160a01b0391909116600452602490fd5b8060208092840101518282870101520161007a565b601f909101601f19168101906001600160401b038211908210176102da57604052565b634e487b7160e01b600052604160045260246000fd5b51906001600160a01b03821682036101f357565b6001600160401b0381116102da57601f01601f191660200190565b90610345575080511561033457805190602001fd5b63d6bda27560e01b60005260046000fd5b81511580610377575b610356575090565b639996b31560e01b60009081526001600160a01b0391909116600452602490fd5b50803b1561034e56fe60806040819052635c60da1b60e01b81526020906004817f00000000000000000000000000000000000000000000000000000000000000006001600160a01b03165afa801560a5576000901560d6575060203d602011609f575b601f19601f820116608001906080821067ffffffffffffffff83111760895760859160405260800160b1565b60d6565b634e487b7160e01b600052604160045260246000fd5b503d6059565b6040513d6000823e3d90fd5b602090607f19011260d1576080516001600160a01b038116810360d15790565b600080fd5b60008091368280378136915af43d6000803e1560f1573d6000f35b3d6000fdfea2646970667358221220ee131cc7c04d65d12ed76177154633df59d08e97ac367e31afe0c874103bd24764736f6c634300081c00339016d09d72d40fdae2fd8ceac6b6234c7706214fd39c1cd1e609a0528c19930002dd7bc7dec4dceedda775e58dd541e08a116c6c53815c0bd028192f7b626800f0c57e16840df040f15088dc2f81fe391c3923bec73e23a9662efc9c229c6a00237e158222e3e6968b72b9db0d8043aacf074ad9f650f0d1606b4d82ee432c00a2646970667358221220cac21b2875331b95920bf394586c51523b13ce2c398f32f3957eaee35e21388f64736f6c634300081c0033",
  "linkReferences": {},
  "deployedLinkReferences": {}
}