{
  "_format": "hh-sol-artifact-1",
  "contractName": "MockCreationPhase",
  "sourceName": "contracts/mocks/MockCreationPhase.sol",
  "abi": [
    {
      "anonymous": false,
      "inputs": [
        {
          "indexed": true,
          "internalType": "address",
          "name": "caller",
          "type": "address"
        },
        {
          "indexed": false,
          "internalType": "bool",
          "name": "authorized",
          "type": "bool"
        }
      ],
      "name": "AuthorizedCallerUpdated",
      "type": "event"
    },
    {
      "anonymous": false,
      "inputs": [
        {
          "indexed": true,
          "internalType": "bytes32",
          "name": "txId",
          "type": "bytes32"
        },
        {
          "indexed": false,
          "internalType": "uint256",
          "name": "txSlot",
          "type": "uint256"
        }
      ],
      "name": "CreatedTransaction",
      "type": "event"
    },
    {
      "anonymous": false,
      "inputs": [
        {
          "indexed": true,
          "internalType": "address",
          "name": "ghost",
          "type": "address"
        }
      ],
      "name": "GhostContractRegistered",
      "type": "event"
    },
    {
      "anonymous": false,
      "inputs": [
        {
          "indexed": true,
          "internalType": "bytes32",
          "name": "newSeed",
          "type": "bytes32"
        }
      ],
      "name": "GlobalRandomSeedUpdated",
      "type": "event"
    },
    {
      "anonymous": false,
      "inputs": [
        {
          "indexed": true,
          "internalType": "bytes32",
          "name": "parentTxId",
          "type": "bytes32"
        },
        {
          "indexed": true,
          "internalType": "address",
          "name": "recipient",
          "type": "address"
        }
      ],
      "name": "InternalChildTxSkipped",
      "type": "event"
    },
    {
      "anonymous": false,
      "inputs": [
        {
          "indexed": true,
          "internalType": "bytes32",
          "name": "txId",
          "type": "bytes32"
        },
        {
          "indexed": true,
          "internalType": "address",
          "name": "recipient",
          "type": "address"
        },
        {
          "indexed": true,
          "internalType": "address",
          "name": "activator",
          "type": "address"
        }
      ],
      "name": "NewTransaction",
      "type": "event"
    },
    {
      "anonymous": false,
      "inputs": [
        {
          "indexed": true,
          "internalType": "bytes32",
          "name": "txId",
          "type": "bytes32"
        },
        {
          "indexed": true,
          "internalType": "address",
          "name": "recipient",
          "type": "address"
        },
        {
          "indexed": false,
          "internalType": "uint256",
          "name": "firstAnnouncedAt",
          "type": "uint256"
        }
      ],
      "name": "NewTransactionAlreadyAnnounced",
      "type": "event"
    },
    {
      "anonymous": false,
      "inputs": [
        {
          "indexed": true,
          "internalType": "bytes32",
          "name": "txId",
          "type": "bytes32"
        },
        {
          "indexed": true,
          "internalType": "address",
          "name": "activator",
          "type": "address"
        }
      ],
      "name": "NextTransactionToBeActivated",
      "type": "event"
    },
    {
      "anonymous": false,
      "inputs": [
        {
          "indexed": true,
          "internalType": "bytes32",
          "name": "txId",
          "type": "bytes32"
        },
        {
          "indexed": true,
          "internalType": "address",
          "name": "leader",
          "type": "address"
        }
      ],
      "name": "TransactionActivated",
      "type": "event"
    },
    {
      "anonymous": false,
      "inputs": [
        {
          "indexed": true,
          "internalType": "bytes32",
          "name": "txId",
          "type": "bytes32"
        },
        {
          "indexed": true,
          "internalType": "address",
          "name": "sender",
          "type": "address"
        }
      ],
      "name": "TransactionCancelled",
      "type": "event"
    },
    {
      "anonymous": false,
      "inputs": [
        {
          "indexed": true,
          "internalType": "bytes32",
          "name": "txId",
          "type": "bytes32"
        },
        {
          "indexed": true,
          "internalType": "address",
          "name": "recipient",
          "type": "address"
        },
        {
          "indexed": false,
          "internalType": "uint256",
          "name": "amount",
          "type": "uint256"
        }
      ],
      "name": "ValueWithdrawalFailed",
      "type": "event"
    },
    {
      "inputs": [
        {
          "internalType": "address",
          "name": "",
          "type": "address"
        }
      ],
      "name": "authorizedCallers",
      "outputs": [
        {
          "internalType": "bool",
          "name": "",
          "type": "bool"
        }
      ],
      "stateMutability": "view",
      "type": "function"
    },
    {
      "inputs": [
        {
          "internalType": "bytes32",
          "name": "",
          "type": "bytes32"
        },
        {
          "internalType": "address",
          "name": "",
          "type": "address"
        }
      ],
      "name": "cancelTransaction",
      "outputs": [
        {
          "components": [
            {
              "internalType": "address",
              "name": "recipient",
              "type": "address"
            },
            {
              "internalType": "uint256",
              "name": "refundedValue",
              "type": "uint256"
            },
            {
              "internalType": "bool",
              "name": "refundFailed",
              "type": "bool"
            }
          ],
          "internalType": "struct ICreationPhase.CancelTransactionResult",
          "name": "result",
          "type": "tuple"
        }
      ],
      "stateMutability": "nonpayable",
      "type": "function"
    },
    {
      "inputs": [
        {
          "internalType": "address",
          "name": "",
          "type": "address"
        },
        {
          "internalType": "bytes32",
          "name": "",
          "type": "bytes32"
        }
      ],
      "name": "checkForNewTransactions",
      "outputs": [
        {
          "components": [
            {
              "internalType": "bool",
              "name": "wasCancelled",
              "type": "bool"
            },
            {
              "internalType": "bytes32",
              "name": "cancelledTxId",
              "type": "bytes32"
            },
            {
              "internalType": "address",
              "name": "cancelledSender",
              "type": "address"
            },
            {
              "internalType": "uint256",
              "name": "refundedValue",
              "type": "uint256"
            },
            {
              "internalType": "bool",
              "name": "refundFailed",
              "type": "bool"
            },
            {
              "internalType": "bool",
              "name": "hasNextTransaction",
              "type": "bool"
            },
            {
              "internalType": "bool",
              "name": "isRecomputation",
              "type": "bool"
            },
            {
              "internalType": "bytes32",
              "name": "nextTxId",
              "type": "bytes32"
            },
            {
              "internalType": "address",
              "name": "recipient",
              "type": "address"
            },
            {
              "internalType": "address",
              "name": "activatorOrLeader",
              "type": "address"
            },
            {
              "internalType": "uint256",
              "name": "alreadyAnnouncedAt",
              "type": "uint256"
            }
          ],
          "internalType": "struct ICreationPhase.CheckForNewTransactionsResult",
          "name": "result",
          "type": "tuple"
        }
      ],
      "stateMutability": "nonpayable",
      "type": "function"
    },
    {
      "inputs": [
        {
          "internalType": "bytes32",
          "name": "",
          "type": "bytes32"
        }
      ],
      "name": "clearPendingValue",
      "outputs": [],
      "stateMutability": "nonpayable",
      "type": "function"
    },
    {
      "inputs": [
        {
          "components": [
            {
              "internalType": "address",
              "name": "sender",
              "type": "address"
            },
            {
              "internalType": "address",
              "name": "recipient",
              "type": "address"
            },
            {
              "internalType": "address",
              "name": "txOrigin",
              "type": "address"
            },
            {
              "internalType": "address",
              "name": "originalCaller",
              "type": "address"
            },
            {
              "internalType": "uint256",
              "name": "numOfInitialValidators",
              "type": "uint256"
            },
            {
              "internalType": "uint256",
              "name": "maxRotations",
              "type": "uint256"
            },
            {
              "internalType": "bytes",
              "name": "txCalldata",
              "type": "bytes"
            },
            {
              "internalType": "uint256",
              "name": "saltNonce",
              "type": "uint256"
            },
            {
              "internalType": "uint256",
              "name": "validUntil",
              "type": "uint256"
            },
            {
              "internalType": "uint256",
              "name": "value",
              "type": "uint256"
            },
            {
              "internalType": "bool",
              "name": "isInternalChildTx",
              "type": "bool"
            },
            {
              "internalType": "bytes32",
              "name": "parentTxId",
              "type": "bytes32"
            }
          ],
          "internalType": "struct ICreationPhase.CreateTransactionParams",
          "name": "",
          "type": "tuple"
        }
      ],
      "name": "createTransaction",
      "outputs": [
        {
          "components": [
            {
              "internalType": "bytes32",
              "name": "txId",
              "type": "bytes32"
            },
            {
              "internalType": "uint256",
              "name": "txSlot",
              "type": "uint256"
            },
            {
              "internalType": "address",
              "name": "activator",
              "type": "address"
            },
            {
              "internalType": "address",
              "name": "recipient",
              "type": "address"
            },
            {
              "internalType": "bool",
              "name": "readyToActivate",
              "type": "bool"
            },
            {
              "internalType": "bool",
              "name": "skipped",
              "type": "bool"
            }
          ],
          "internalType": "struct ICreationPhase.CreateTransactionResult",
          "name": "",
          "type": "tuple"
        }
      ],
      "stateMutability": "payable",
      "type": "function"
    },
    {
      "inputs": [
        {
          "internalType": "bytes32",
          "name": "txId",
          "type": "bytes32"
        }
      ],
      "name": "getPendingTransactionValue",
      "outputs": [
        {
          "internalType": "uint256",
          "name": "",
          "type": "uint256"
        }
      ],
      "stateMutability": "view",
      "type": "function"
    },
    {
      "inputs": [
        {
          "internalType": "address",
          "name": "",
          "type": "address"
        }
      ],
      "name": "ghostContracts",
      "outputs": [
        {
          "internalType": "bool",
          "name": "",
          "type": "bool"
        }
      ],
      "stateMutability": "view",
      "type": "function"
    },
    {
      "inputs": [],
      "name": "globalRandomSeed",
      "outputs": [
        {
          "internalType": "bytes32",
          "name": "",
          "type": "bytes32"
        }
      ],
      "stateMutability": "view",
      "type": "function"
    },
    {
      "inputs": [
        {
          "internalType": "address",
          "name": "",
          "type": "address"
        }
      ],
      "name": "isAuthorizedCaller",
      "outputs": [
        {
          "internalType": "bool",
          "name": "",
          "type": "bool"
        }
      ],
      "stateMutability": "pure",
      "type": "function"
    },
    {
      "inputs": [
        {
          "internalType": "address",
          "name": "addr",
          "type": "address"
        }
      ],
      "name": "isGhostContract",
      "outputs": [
        {
          "internalType": "bool",
          "name": "",
          "type": "bool"
        }
      ],
      "stateMutability": "view",
      "type": "function"
    },
    {
      "inputs": [
        {
          "internalType": "bytes32",
          "name": "",
          "type": "bytes32"
        }
      ],
      "name": "pendingValues",
      "outputs": [
        {
          "internalType": "uint256",
          "name": "",
          "type": "uint256"
        }
      ],
      "stateMutability": "view",
      "type": "function"
    },
    {
      "inputs": [
        {
          "internalType": "bytes32",
          "name": "",
          "type": "bytes32"
        },
        {
          "internalType": "address",
          "name": "",
          "type": "address"
        }
      ],
      "name": "refundPendingValue",
      "outputs": [
        {
          "internalType": "bool",
          "name": "refundFailed",
          "type": "bool"
        },
        {
          "internalType": "uint256",
          "name": "amount",
          "type": "uint256"
        }
      ],
      "stateMutability": "nonpayable",
      "type": "function"
    },
    {
      "inputs": [
        {
          "internalType": "address",
          "name": "ghost",
          "type": "address"
        }
      ],
      "name": "registerGhostContract",
      "outputs": [],
      "stateMutability": "nonpayable",
      "type": "function"
    },
    {
      "inputs": [
        {
          "internalType": "address",
          "name": "",
          "type": "address"
        }
      ],
      "name": "setAddressManager",
      "outputs": [],
      "stateMutability": "nonpayable",
      "type": "function"
    },
    {
      "inputs": [
        {
          "internalType": "address",
          "name": "",
          "type": "address"
        },
        {
          "internalType": "bool",
          "name": "",
          "type": "bool"
        }
      ],
      "name": "setAuthorizedCaller",
      "outputs": [],
      "stateMutability": "nonpayable",
      "type": "function"
    },
    {
      "inputs": [
        {
          "internalType": "address[]",
          "name": "",
          "type": "address[]"
        },
        {
          "internalType": "bool",
          "name": "",
          "type": "bool"
        }
      ],
      "name": "setAuthorizedCallers",
      "outputs": [],
      "stateMutability": "nonpayable",
      "type": "function"
    },
    {
      "inputs": [
        {
          "internalType": "address",
          "name": "ghost",
          "type": "address"
        },
        {
          "internalType": "bool",
          "name": "isGhost",
          "type": "bool"
        }
      ],
      "name": "setGhostContract",
      "outputs": [],
      "stateMutability": "nonpayable",
      "type": "function"
    },
    {
      "inputs": [
        {
          "internalType": "bytes32",
          "name": "txId",
          "type": "bytes32"
        },
        {
          "internalType": "uint256",
          "name": "value",
          "type": "uint256"
        }
      ],
      "name": "setPendingValue",
      "outputs": [],
      "stateMutability": "nonpayable",
      "type": "function"
    },
    {
      "inputs": [
        {
          "internalType": "bytes32",
          "name": "",
          "type": "bytes32"
        },
        {
          "internalType": "address",
          "name": "",
          "type": "address"
        }
      ],
      "name": "transferPendingValueToGhost",
      "outputs": [
        {
          "internalType": "bool",
          "name": "transferFailed",
          "type": "bool"
        },
        {
          "internalType": "uint256",
          "name": "amount",
          "type": "uint256"
        }
      ],
      "stateMutability": "nonpayable",
      "type": "function"
    },
    {
      "inputs": [],
      "name": "txGlobalCounter",
      "outputs": [
        {
          "internalType": "uint256",
          "name": "",
          "type": "uint256"
        }
      ],
      "stateMutability": "view",
      "type": "function"
    },
    {
      "inputs": [
        {
          "internalType": "bytes32",
          "name": "newSeed",
          "type": "bytes32"
        }
      ],
      "name": "updateGlobalRandomSeed",
      "outputs": [],
      "stateMutability": "nonpayable",
      "type": "function"
    }
  ],
  "bytecode": "0x6080806040523460155761066e908161001b8239f35b600080fdfe6080604052600436101561001257600080fd5b60003560e01c8062fb9bd7146101335780630652b57a146105bd578063090263a7146105635780632838322d146104fc578063454bbd29146104d8578063525cc059146104ae578063536fff6c1461046f57806359d14b411461044a5780635e1740331461042c57806367f7c83a146101025780637440c21b146101b85780637dc258f214610388578063803350a51461026e5780638e4dc988146102555780639d3a5b1d146102425780639f921d12146101f7578063aa923c02146101b8578063cb225db11461019a578063cf0a638414610138578063db119910146101335763f085548f1461010257600080fd5b3461012e57602036600319011261012e5760043560005260016020526020604060002054604051908152f35b600080fd5b6105fe565b3461012e57602036600319011261012e576001600160a01b036101596105d2565b168060005260006020526040600020600160ff198254161790557f029a2735cf69e999ef9868fa6b2bb421b3d69c9d9a025a1cfd8081260e260f4b600080a2005b3461012e57600036600319011261012e576020600254604051908152f35b3461012e57602036600319011261012e576001600160a01b036101d96105d2565b166000526000602052602060ff604060002054166040519015158152f35b3461012e57604036600319011261012e576102106105d2565b610218610629565b9060018060a01b0316600052600060205260406000209060ff801983541691151516179055600080f35b3461012e57602036600319011261012e57005b3461012e57602036600319011261012e57600435600355005b3461012e57604036600319011261012e576102876105d2565b5060405161016081019080821067ffffffffffffffff8311176103725761016091604052600081526020810190600082526040810190600082526060810160008152608082016000815260a083016000815260c08401906000825260e08501926000845261010086019460008652610140610120880197600089520197600089526040519960008b525160208b015260018060a01b0390511660408a0152516060890152511515608088015251151560a087015251151560c08601525160e085015260018060a01b0390511661010084015260018060a01b0390511661012083015251610140820152f35b634e487b7160e01b600052604160045260246000fd5b602036600319011261012e5760043567ffffffffffffffff811161012e5761018090600319903603011261012e5760405160c0810181811067ffffffffffffffff8211176103725760009160a0916040528281528260208201528260408201528260608201528260808201520152606460405162461bcd60e51b815260206004820152600f60248201526e139bdd081a5b5c1b195b595b9d1959608a1b6044820152fd5b3461012e57600036600319011261012e576020600354604051908152f35b3461012e57602036600319011261012e576104636105d2565b50602060405160018152f35b3461012e57602036600319011261012e576001600160a01b036104906105d2565b166000526004602052602060ff604060002054166040519015158152f35b3461012e57604036600319011261012e576004356000526001602052602435604060002055600080f35b3461012e57604036600319011261012e576104f16105d2565b506104fa610629565b005b3461012e57604036600319011261012e576105156105e8565b50604051606081019080821067ffffffffffffffff83111761037257606091604052600081526040602082019160008352016000815260405191600083525160208301525115156040820152f35b3461012e57604036600319011261012e5760043567ffffffffffffffff811161012e573660238201121561012e5780600401359067ffffffffffffffff821161012e57602490369260051b01011161012e576104fa610629565b3461012e57602036600319011261012e576104fa5b600435906001600160a01b038216820361012e57565b602435906001600160a01b038216820361012e57565b3461012e57604036600319011261012e576106176105e8565b50604080516000815260006020820152f35b60243590811515820361012e5756fea26469706673582212203cda9ec12e1db7db1c81a44f8c8c6bc3a206262dc2599e6b7e6dede815ecb70164736f6c634300081c0033",
  "linkReferences": {},
  "deployedLinkReferences": {}
}