{
  "_format": "hh-sol-artifact-1",
  "contractName": "ConsensusMain",
  "sourceName": "contracts/ConsensusMain.sol",
  "abi": [
    {
      "inputs": [],
      "stateMutability": "nonpayable",
      "type": "constructor"
    },
    {
      "inputs": [],
      "name": "CallerNotMessages",
      "type": "error"
    },
    {
      "inputs": [],
      "name": "InvalidDeploymentWithSalt",
      "type": "error"
    },
    {
      "inputs": [],
      "name": "InvalidInitialization",
      "type": "error"
    },
    {
      "inputs": [],
      "name": "InvalidRevealLeaderData",
      "type": "error"
    },
    {
      "inputs": [],
      "name": "InvalidVote",
      "type": "error"
    },
    {
      "inputs": [],
      "name": "NotInitializing",
      "type": "error"
    },
    {
      "inputs": [
        {
          "internalType": "address",
          "name": "owner",
          "type": "address"
        }
      ],
      "name": "OwnableInvalidOwner",
      "type": "error"
    },
    {
      "inputs": [
        {
          "internalType": "address",
          "name": "account",
          "type": "address"
        }
      ],
      "name": "OwnableUnauthorizedAccount",
      "type": "error"
    },
    {
      "inputs": [],
      "name": "ReentrancyGuardReentrantCall",
      "type": "error"
    },
    {
      "inputs": [],
      "name": "TransactionNotFinalized",
      "type": "error"
    },
    {
      "inputs": [],
      "name": "Unauthorized",
      "type": "error"
    },
    {
      "anonymous": false,
      "inputs": [
        {
          "indexed": true,
          "internalType": "bytes32",
          "name": "txId",
          "type": "bytes32"
        },
        {
          "indexed": true,
          "internalType": "address",
          "name": "oldActivator",
          "type": "address"
        },
        {
          "indexed": true,
          "internalType": "address",
          "name": "newActivator",
          "type": "address"
        }
      ],
      "name": "ActivatorReplaced",
      "type": "event"
    },
    {
      "anonymous": false,
      "inputs": [
        {
          "indexed": true,
          "internalType": "address",
          "name": "addressManager",
          "type": "address"
        }
      ],
      "name": "AddressManagerSet",
      "type": "event"
    },
    {
      "anonymous": false,
      "inputs": [
        {
          "indexed": true,
          "internalType": "bytes32",
          "name": "txId",
          "type": "bytes32"
        },
        {
          "indexed": false,
          "internalType": "enum ITransactions.TransactionStatus",
          "name": "newStatus",
          "type": "uint8"
        }
      ],
      "name": "AllVotesCommitted",
      "type": "event"
    },
    {
      "anonymous": false,
      "inputs": [
        {
          "indexed": true,
          "internalType": "bytes32",
          "name": "txId",
          "type": "bytes32"
        },
        {
          "indexed": true,
          "internalType": "address",
          "name": "appellant",
          "type": "address"
        },
        {
          "indexed": false,
          "internalType": "uint256",
          "name": "bond",
          "type": "uint256"
        },
        {
          "indexed": false,
          "internalType": "address[]",
          "name": "validators",
          "type": "address[]"
        }
      ],
      "name": "AppealStarted",
      "type": "event"
    },
    {
      "anonymous": false,
      "inputs": [
        {
          "indexed": false,
          "internalType": "uint256",
          "name": "attempted",
          "type": "uint256"
        },
        {
          "indexed": false,
          "internalType": "uint256",
          "name": "succeeded",
          "type": "uint256"
        },
        {
          "indexed": false,
          "internalType": "uint256",
          "name": "failed",
          "type": "uint256"
        }
      ],
      "name": "BatchFinalizationCompleted",
      "type": "event"
    },
    {
      "anonymous": false,
      "inputs": [
        {
          "indexed": true,
          "internalType": "bytes32",
          "name": "txId",
          "type": "bytes32"
        },
        {
          "indexed": false,
          "internalType": "uint256",
          "name": "txSlot",
          "type": "uint256"
        }
      ],
      "name": "CreatedTransaction",
      "type": "event"
    },
    {
      "anonymous": false,
      "inputs": [
        {
          "indexed": false,
          "internalType": "uint64",
          "name": "version",
          "type": "uint64"
        }
      ],
      "name": "Initialized",
      "type": "event"
    },
    {
      "anonymous": false,
      "inputs": [
        {
          "indexed": true,
          "internalType": "bytes32",
          "name": "txId",
          "type": "bytes32"
        },
        {
          "indexed": true,
          "internalType": "address",
          "name": "recipient",
          "type": "address"
        },
        {
          "indexed": true,
          "internalType": "address",
          "name": "activator",
          "type": "address"
        }
      ],
      "name": "InternalMessageProcessed",
      "type": "event"
    },
    {
      "anonymous": false,
      "inputs": [
        {
          "indexed": true,
          "internalType": "bytes32",
          "name": "txId",
          "type": "bytes32"
        },
        {
          "indexed": true,
          "internalType": "address",
          "name": "oldLeader",
          "type": "address"
        },
        {
          "indexed": true,
          "internalType": "address",
          "name": "newLeader",
          "type": "address"
        }
      ],
      "name": "LeaderIdlenessProcessed",
      "type": "event"
    },
    {
      "anonymous": false,
      "inputs": [
        {
          "indexed": true,
          "internalType": "bytes32",
          "name": "txId",
          "type": "bytes32"
        },
        {
          "indexed": true,
          "internalType": "address",
          "name": "recipient",
          "type": "address"
        },
        {
          "indexed": true,
          "internalType": "address",
          "name": "activator",
          "type": "address"
        }
      ],
      "name": "NewTransaction",
      "type": "event"
    },
    {
      "anonymous": false,
      "inputs": [
        {
          "indexed": true,
          "internalType": "address",
          "name": "previousOwner",
          "type": "address"
        },
        {
          "indexed": true,
          "internalType": "address",
          "name": "newOwner",
          "type": "address"
        }
      ],
      "name": "OwnershipTransferStarted",
      "type": "event"
    },
    {
      "anonymous": false,
      "inputs": [
        {
          "indexed": true,
          "internalType": "address",
          "name": "previousOwner",
          "type": "address"
        },
        {
          "indexed": true,
          "internalType": "address",
          "name": "newOwner",
          "type": "address"
        }
      ],
      "name": "OwnershipTransferred",
      "type": "event"
    },
    {
      "anonymous": false,
      "inputs": [
        {
          "indexed": true,
          "internalType": "bytes32",
          "name": "txId",
          "type": "bytes32"
        }
      ],
      "name": "ProcessIdlenessAccepted",
      "type": "event"
    },
    {
      "anonymous": false,
      "inputs": [
        {
          "indexed": true,
          "internalType": "bytes32",
          "name": "txId",
          "type": "bytes32"
        }
      ],
      "name": "TransactionAccepted",
      "type": "event"
    },
    {
      "anonymous": false,
      "inputs": [
        {
          "indexed": true,
          "internalType": "bytes32",
          "name": "txId",
          "type": "bytes32"
        },
        {
          "indexed": true,
          "internalType": "address",
          "name": "leader",
          "type": "address"
        }
      ],
      "name": "TransactionActivated",
      "type": "event"
    },
    {
      "anonymous": false,
      "inputs": [
        {
          "indexed": true,
          "internalType": "bytes32",
          "name": "txId",
          "type": "bytes32"
        },
        {
          "indexed": true,
          "internalType": "address",
          "name": "cancelledBy",
          "type": "address"
        }
      ],
      "name": "TransactionCancelled",
      "type": "event"
    },
    {
      "anonymous": false,
      "inputs": [
        {
          "indexed": true,
          "internalType": "bytes32",
          "name": "txId",
          "type": "bytes32"
        }
      ],
      "name": "TransactionFinalizationFailed",
      "type": "event"
    },
    {
      "anonymous": false,
      "inputs": [
        {
          "indexed": true,
          "internalType": "bytes32",
          "name": "txId",
          "type": "bytes32"
        }
      ],
      "name": "TransactionFinalized",
      "type": "event"
    },
    {
      "anonymous": false,
      "inputs": [
        {
          "indexed": true,
          "internalType": "bytes32",
          "name": "txId",
          "type": "bytes32"
        }
      ],
      "name": "TransactionLeaderRevealed",
      "type": "event"
    },
    {
      "anonymous": false,
      "inputs": [
        {
          "indexed": true,
          "internalType": "bytes32",
          "name": "txId",
          "type": "bytes32"
        },
        {
          "indexed": true,
          "internalType": "address",
          "name": "newLeader",
          "type": "address"
        }
      ],
      "name": "TransactionLeaderRotated",
      "type": "event"
    },
    {
      "anonymous": false,
      "inputs": [
        {
          "indexed": true,
          "internalType": "bytes32",
          "name": "txId",
          "type": "bytes32"
        }
      ],
      "name": "TransactionLeaderTimeout",
      "type": "event"
    },
    {
      "anonymous": false,
      "inputs": [
        {
          "indexed": false,
          "internalType": "bytes32[]",
          "name": "txIds",
          "type": "bytes32[]"
        }
      ],
      "name": "TransactionNeedsRecomputation",
      "type": "event"
    },
    {
      "anonymous": false,
      "inputs": [
        {
          "indexed": true,
          "internalType": "bytes32",
          "name": "txId",
          "type": "bytes32"
        },
        {
          "indexed": false,
          "internalType": "address[]",
          "name": "validators",
          "type": "address[]"
        }
      ],
      "name": "TransactionReceiptProposed",
      "type": "event"
    },
    {
      "anonymous": false,
      "inputs": [
        {
          "indexed": true,
          "internalType": "bytes32",
          "name": "txId",
          "type": "bytes32"
        }
      ],
      "name": "TransactionUndetermined",
      "type": "event"
    },
    {
      "anonymous": false,
      "inputs": [
        {
          "indexed": true,
          "internalType": "bytes32",
          "name": "txId",
          "type": "bytes32"
        },
        {
          "indexed": false,
          "internalType": "uint256",
          "name": "totalUnissuedValue",
          "type": "uint256"
        },
        {
          "indexed": false,
          "internalType": "uint256",
          "name": "unissuedCount",
          "type": "uint256"
        }
      ],
      "name": "UnissuedMessagesAtFinalization",
      "type": "event"
    },
    {
      "anonymous": false,
      "inputs": [
        {
          "indexed": true,
          "internalType": "bytes32",
          "name": "txId",
          "type": "bytes32"
        },
        {
          "indexed": true,
          "internalType": "address",
          "name": "oldValidator",
          "type": "address"
        },
        {
          "indexed": true,
          "internalType": "address",
          "name": "newValidator",
          "type": "address"
        },
        {
          "indexed": false,
          "internalType": "uint256",
          "name": "validatorIndex",
          "type": "uint256"
        }
      ],
      "name": "ValidatorReplaced",
      "type": "event"
    },
    {
      "anonymous": false,
      "inputs": [
        {
          "indexed": true,
          "internalType": "bytes32",
          "name": "txId",
          "type": "bytes32"
        },
        {
          "indexed": true,
          "internalType": "address",
          "name": "recipient",
          "type": "address"
        },
        {
          "indexed": false,
          "internalType": "uint256",
          "name": "value",
          "type": "uint256"
        }
      ],
      "name": "ValueWithdrawalFailed",
      "type": "event"
    },
    {
      "anonymous": false,
      "inputs": [
        {
          "indexed": true,
          "internalType": "bytes32",
          "name": "txId",
          "type": "bytes32"
        },
        {
          "indexed": true,
          "internalType": "address",
          "name": "validator",
          "type": "address"
        },
        {
          "indexed": false,
          "internalType": "bool",
          "name": "isLastVote",
          "type": "bool"
        }
      ],
      "name": "VoteCommitted",
      "type": "event"
    },
    {
      "anonymous": false,
      "inputs": [
        {
          "indexed": true,
          "internalType": "bytes32",
          "name": "txId",
          "type": "bytes32"
        },
        {
          "indexed": true,
          "internalType": "address",
          "name": "validator",
          "type": "address"
        },
        {
          "indexed": false,
          "internalType": "enum ITransactions.VoteType",
          "name": "voteType",
          "type": "uint8"
        },
        {
          "indexed": false,
          "internalType": "bool",
          "name": "isLastVote",
          "type": "bool"
        },
        {
          "indexed": false,
          "internalType": "enum ITransactions.ResultType",
          "name": "result",
          "type": "uint8"
        }
      ],
      "name": "VoteRevealed",
      "type": "event"
    },
    {
      "inputs": [],
      "name": "EVENTS_BATCH_SIZE",
      "outputs": [
        {
          "internalType": "uint256",
          "name": "",
          "type": "uint256"
        }
      ],
      "stateMutability": "view",
      "type": "function"
    },
    {
      "inputs": [],
      "name": "VERSION",
      "outputs": [
        {
          "internalType": "string",
          "name": "",
          "type": "string"
        }
      ],
      "stateMutability": "view",
      "type": "function"
    },
    {
      "inputs": [],
      "name": "acceptOwnership",
      "outputs": [],
      "stateMutability": "nonpayable",
      "type": "function"
    },
    {
      "inputs": [
        {
          "internalType": "bytes32",
          "name": "_txId",
          "type": "bytes32"
        },
        {
          "internalType": "address",
          "name": "_operator",
          "type": "address"
        },
        {
          "internalType": "bytes",
          "name": "_vrfProof",
          "type": "bytes"
        }
      ],
      "name": "activateTransaction",
      "outputs": [],
      "stateMutability": "nonpayable",
      "type": "function"
    },
    {
      "inputs": [
        {
          "internalType": "address",
          "name": "_sender",
          "type": "address"
        },
        {
          "internalType": "address",
          "name": "_recipient",
          "type": "address"
        },
        {
          "internalType": "uint256",
          "name": "_numOfInitialValidators",
          "type": "uint256"
        },
        {
          "internalType": "uint256",
          "name": "_maxRotations",
          "type": "uint256"
        },
        {
          "internalType": "bytes",
          "name": "_calldata",
          "type": "bytes"
        },
        {
          "internalType": "uint256",
          "name": "_validUntil",
          "type": "uint256"
        }
      ],
      "name": "addTransaction",
      "outputs": [],
      "stateMutability": "payable",
      "type": "function"
    },
    {
      "inputs": [],
      "name": "addressManager",
      "outputs": [
        {
          "internalType": "contract IAddressManager",
          "name": "",
          "type": "address"
        }
      ],
      "stateMutability": "view",
      "type": "function"
    },
    {
      "inputs": [
        {
          "internalType": "bytes32",
          "name": "_txId",
          "type": "bytes32"
        }
      ],
      "name": "cancelTransaction",
      "outputs": [],
      "stateMutability": "nonpayable",
      "type": "function"
    },
    {
      "inputs": [
        {
          "internalType": "bytes32",
          "name": "_txId",
          "type": "bytes32"
        },
        {
          "internalType": "bytes32",
          "name": "_commitHash",
          "type": "bytes32"
        },
        {
          "internalType": "uint256",
          "name": "_validatorIndex",
          "type": "uint256"
        }
      ],
      "name": "commitVote",
      "outputs": [],
      "stateMutability": "nonpayable",
      "type": "function"
    },
    {
      "inputs": [
        {
          "internalType": "address",
          "name": "_sender",
          "type": "address"
        },
        {
          "internalType": "uint256",
          "name": "_numOfInitialValidators",
          "type": "uint256"
        },
        {
          "internalType": "uint256",
          "name": "_maxRotations",
          "type": "uint256"
        },
        {
          "internalType": "bytes",
          "name": "_calldata",
          "type": "bytes"
        },
        {
          "internalType": "uint256",
          "name": "_saltNonce",
          "type": "uint256"
        },
        {
          "internalType": "uint256",
          "name": "_validUntil",
          "type": "uint256"
        }
      ],
      "name": "deploySalted",
      "outputs": [],
      "stateMutability": "payable",
      "type": "function"
    },
    {
      "inputs": [
        {
          "internalType": "address",
          "name": "_recipient",
          "type": "address"
        },
        {
          "internalType": "uint256",
          "name": "_value",
          "type": "uint256"
        },
        {
          "internalType": "bytes",
          "name": "_data",
          "type": "bytes"
        }
      ],
      "name": "executeMessage",
      "outputs": [
        {
          "internalType": "bool",
          "name": "success",
          "type": "bool"
        }
      ],
      "stateMutability": "nonpayable",
      "type": "function"
    },
    {
      "inputs": [
        {
          "internalType": "bytes32[]",
          "name": "_txIds",
          "type": "bytes32[]"
        }
      ],
      "name": "finalizeIdlenessTxs",
      "outputs": [],
      "stateMutability": "nonpayable",
      "type": "function"
    },
    {
      "inputs": [
        {
          "internalType": "bytes32",
          "name": "_txId",
          "type": "bytes32"
        }
      ],
      "name": "finalizeTransaction",
      "outputs": [],
      "stateMutability": "nonpayable",
      "type": "function"
    },
    {
      "inputs": [
        {
          "internalType": "bytes32",
          "name": "_txId",
          "type": "bytes32"
        }
      ],
      "name": "flushExternalMessages",
      "outputs": [],
      "stateMutability": "nonpayable",
      "type": "function"
    },
    {
      "inputs": [],
      "name": "getAddressManager",
      "outputs": [
        {
          "internalType": "contract IAddressManager",
          "name": "",
          "type": "address"
        }
      ],
      "stateMutability": "view",
      "type": "function"
    },
    {
      "inputs": [
        {
          "internalType": "bytes32",
          "name": "txId",
          "type": "bytes32"
        }
      ],
      "name": "getPendingTransactionValue",
      "outputs": [
        {
          "internalType": "uint256",
          "name": "",
          "type": "uint256"
        }
      ],
      "stateMutability": "view",
      "type": "function"
    },
    {
      "inputs": [
        {
          "internalType": "address",
          "name": "_addressManager",
          "type": "address"
        }
      ],
      "name": "initialize",
      "outputs": [],
      "stateMutability": "nonpayable",
      "type": "function"
    },
    {
      "inputs": [
        {
          "internalType": "address",
          "name": "addr",
          "type": "address"
        }
      ],
      "name": "isGhostContract",
      "outputs": [
        {
          "internalType": "bool",
          "name": "",
          "type": "bool"
        }
      ],
      "stateMutability": "view",
      "type": "function"
    },
    {
      "inputs": [
        {
          "internalType": "bytes32",
          "name": "_txId",
          "type": "bytes32"
        }
      ],
      "name": "leaderIdleness",
      "outputs": [],
      "stateMutability": "nonpayable",
      "type": "function"
    },
    {
      "inputs": [
        {
          "components": [
            {
              "internalType": "bytes32",
              "name": "txId",
              "type": "bytes32"
            },
            {
              "internalType": "uint256",
              "name": "saltAsAValidator",
              "type": "uint256"
            },
            {
              "internalType": "bytes32",
              "name": "txExecutionHash",
              "type": "bytes32"
            },
            {
              "internalType": "bytes32",
              "name": "messagesAndOtherFieldsHash",
              "type": "bytes32"
            },
            {
              "internalType": "bytes32",
              "name": "otherExecutionFieldsHash",
              "type": "bytes32"
            },
            {
              "internalType": "enum ITransactions.VoteType",
              "name": "resultValue",
              "type": "uint8"
            },
            {
              "components": [
                {
                  "internalType": "enum IMessages.MessageType",
                  "name": "messageType",
                  "type": "uint8"
                },
                {
                  "internalType": "address",
                  "name": "recipient",
                  "type": "address"
                },
                {
                  "internalType": "uint256",
                  "name": "value",
                  "type": "uint256"
                },
                {
                  "internalType": "bytes",
                  "name": "data",
                  "type": "bytes"
                },
                {
                  "internalType": "bool",
                  "name": "onAcceptance",
                  "type": "bool"
                },
                {
                  "internalType": "uint256",
                  "name": "saltNonce",
                  "type": "uint256"
                }
              ],
              "internalType": "struct IMessages.SubmittedMessage[]",
              "name": "messages",
              "type": "tuple[]"
            }
          ],
          "internalType": "struct IConsensusMain.LeaderRevealVoteParams",
          "name": "leaderRevealVoteParams",
          "type": "tuple"
        }
      ],
      "name": "leaderRevealVote",
      "outputs": [],
      "stateMutability": "nonpayable",
      "type": "function"
    },
    {
      "inputs": [],
      "name": "owner",
      "outputs": [
        {
          "internalType": "address",
          "name": "",
          "type": "address"
        }
      ],
      "stateMutability": "view",
      "type": "function"
    },
    {
      "inputs": [],
      "name": "pendingOwner",
      "outputs": [
        {
          "internalType": "address",
          "name": "",
          "type": "address"
        }
      ],
      "stateMutability": "view",
      "type": "function"
    },
    {
      "inputs": [
        {
          "internalType": "bytes32",
          "name": "_txId",
          "type": "bytes32"
        }
      ],
      "name": "processIdleness",
      "outputs": [],
      "stateMutability": "nonpayable",
      "type": "function"
    },
    {
      "inputs": [
        {
          "internalType": "address[]",
          "name": "affectedRecipients",
          "type": "address[]"
        }
      ],
      "name": "promoteNextPendingTransactions",
      "outputs": [],
      "stateMutability": "nonpayable",
      "type": "function"
    },
    {
      "inputs": [
        {
          "internalType": "bytes32",
          "name": "_txId",
          "type": "bytes32"
        },
        {
          "internalType": "bytes32",
          "name": "_txExecutionHash",
          "type": "bytes32"
        },
        {
          "internalType": "uint256",
          "name": "_processingBlock",
          "type": "uint256"
        },
        {
          "internalType": "address",
          "name": "_operator",
          "type": "address"
        },
        {
          "internalType": "bytes",
          "name": "_eqBlocksOutputs",
          "type": "bytes"
        },
        {
          "internalType": "bytes",
          "name": "_vrfProof",
          "type": "bytes"
        }
      ],
      "name": "proposeReceipt",
      "outputs": [],
      "stateMutability": "nonpayable",
      "type": "function"
    },
    {
      "inputs": [
        {
          "internalType": "bytes32[]",
          "name": "_txIds",
          "type": "bytes32[]"
        }
      ],
      "name": "redButtonFinalize",
      "outputs": [],
      "stateMutability": "nonpayable",
      "type": "function"
    },
    {
      "inputs": [
        {
          "internalType": "address",
          "name": "ghost",
          "type": "address"
        }
      ],
      "name": "registerGhostContract",
      "outputs": [],
      "stateMutability": "nonpayable",
      "type": "function"
    },
    {
      "inputs": [],
      "name": "renounceOwnership",
      "outputs": [],
      "stateMutability": "nonpayable",
      "type": "function"
    },
    {
      "inputs": [
        {
          "internalType": "bytes32",
          "name": "_txId",
          "type": "bytes32"
        },
        {
          "internalType": "bytes32",
          "name": "_voteHash",
          "type": "bytes32"
        },
        {
          "internalType": "enum ITransactions.VoteType",
          "name": "_voteType",
          "type": "uint8"
        },
        {
          "internalType": "bytes32",
          "name": "_otherExecutionFieldsHash",
          "type": "bytes32"
        },
        {
          "internalType": "uint256",
          "name": "_nonce",
          "type": "uint256"
        },
        {
          "internalType": "uint256",
          "name": "_validatorIndex",
          "type": "uint256"
        }
      ],
      "name": "revealVote",
      "outputs": [],
      "stateMutability": "nonpayable",
      "type": "function"
    },
    {
      "inputs": [
        {
          "internalType": "address",
          "name": "_addressManager",
          "type": "address"
        }
      ],
      "name": "setAddressManager",
      "outputs": [],
      "stateMutability": "nonpayable",
      "type": "function"
    },
    {
      "inputs": [
        {
          "internalType": "bytes32",
          "name": "_txId",
          "type": "bytes32"
        }
      ],
      "name": "submitAppeal",
      "outputs": [],
      "stateMutability": "payable",
      "type": "function"
    },
    {
      "inputs": [
        {
          "internalType": "address",
          "name": "newOwner",
          "type": "address"
        }
      ],
      "name": "transferOwnership",
      "outputs": [],
      "stateMutability": "nonpayable",
      "type": "function"
    },
    {
      "stateMutability": "payable",
      "type": "receive"
    }
  ],
  "bytecode": "0x6080806040523460d2577ff0c57e16840df040f15088dc2f81fe391c3923bec73e23a9662efc9c229c6a005460ff8160401c1660c1576002600160401b03196001600160401b03821601605c575b604051614b9190816100d88239f35b6001600160401b0319166001600160401b039081177ff0c57e16840df040f15088dc2f81fe391c3923bec73e23a9662efc9c229c6a005581527fc7f505b2f371ae2175ee4913f4499e1f2633a7b5936321eed1cdaeb6115181d290602090a13880604d565b63f92ee8a960e01b60005260046000fd5b600080fdfe608080604052600436101561001d575b50361561001b57600080fd5b005b600090813560e01c90816303d14917146124af575080630652b57a14612449578063103abeac1461242d57806316c0e8de146122b15780632af7cb7f146122385780633ab76e9f146121d05780633bd15f70146121f75780635492f302146121d05780635c970d2814611fc45780636457bf4814611e9057806367f7c83a14611e025780636a9c499d1461191057806370ba333914611715578063715018a61461169457806379ba50971461164657806385d2d274146116235780638b5de1bc146111915780638da5cb5b1461115b5780639e0c615f14611087578063a560cd0c14611041578063aa923c0214610f89578063b2efda8314610c8a578063c4d66de814610adb578063c7e6e76614610a2d578063cf0a6384146109a4578063e30c39781461096e578063e71d519614610695578063f2fde38b1461060d578063f5435a1b14610551578063f5acca71146101ca5763ffa1ad740361000f57346101c757806003193601126101c757506101c360405161019d604082612aa6565b60058152640322e302e360dc1b6020820152604051918291602083526020830190612c5c565b0390f35b80fd5b50346101c7576101d936612bbb565b906101e261461d565b6101ea6149e1565b906101f36148a9565b835191939192849291839173__$66ce50c11b4f8ca6e6decb43a984eadcfa$__91906001600160a01b0316835b85518910156105045786546001600160a01b031661023e8a88613246565b5190853b15610500576040516364aade8f60e11b81526001600160a01b0391909116600482015260248101919091528781604481885af48015610461579088916104eb575b505061028f8987613246565b516040519061029d82612a1d565b8152604051634377ca4160e11b815290516004820152610140816024818b875af18891816104ba575b5061030f57506103066001916102dc8b89613246565b517fd157a8824e3093207095e0855163da28b596e2c5f19ba73ea473c2346e05b15b8a80a26145f8565b985b0197610220565b61031d8a889b97939b613246565b5160405163255709e560e11b8152600481019190915288816024816001600160a01b0389165afa908115610489578991610498575b5088546001600160a01b0316610368888a613246565b5191873b15610494576040516318e563ef60e01b8152928b9284928392610395928891906004860161439d565b0381895af4801561048957908991610470575b50506103b48688613246565b517f24196ec40f90671b7144e716978686b4f3c7d6b00b23da3971ef2b52af27d87f8980a287546020909101516001600160a01b0391821691166103f88789613246565b5191863b1561046c57908991610422604051948593849363121ad92d60e21b855260048501613270565b0381885af4801561046157908891610448575b50506104426001916145f8565b94610308565b8161045291612aa6565b61045d578638610435565b8680fd5b6040513d8a823e3d90fd5b8980fd5b8161047a91612aa6565b6104855787386103a8565b8780fd5b6040513d8b823e3d90fd5b8a80fd5b6104b491503d808b833e6104ac8183612aa6565b810190613945565b38610352565b6104dd9192506101403d81116104e4575b6104d58183612aa6565b8101906142e0565b90386102c6565b503d6104cb565b816104f591612aa6565b61045d578638610283565b8880fd5b7f3d139c84ad9350b1f396f3d75cb0770c4f495459f8ef8755e5335a12632bac3d60608989938860405192835260208301526040820152a16001600080516020614adc8339815191525580f35b50346101c757808061059b61056536612bbb565b61056d6146fa565b6001600160a01b0361057d614730565b169060405194858094819363f5435a1b60e01b835260048301613292565b03925af180156106025782906105b9575b6105b69150614795565b80f35b503d8083833e6105c98183612aa6565b8101906020818303126105fe578051916001600160401b0383116105fa576105b6926105f59201612dc8565b6105ac565b8380fd5b8280fd5b6040513d84823e3d90fd5b50346101c75760203660031901126101c757610627612ade565b61062f6146fa565b600080516020614b1c83398151915280546001600160a01b0319166001600160a01b03928316908117909155600080516020614a9c833981519152549091167f38d16b8cac22d99fc7c124b9cd0de2d3fa1faef420bfe791d8c362d765e227008380a380f35b5060c03660031901126101c7576106aa612ade565b6106b2612af4565b6084356001600160401b0381116105fa576106d1903690600401612b70565b906106da61461d565b6001600160a01b03831692831561096657925b6001600160a01b036106fd614844565b16926040519161070c83612a8a565b82526020820192600160a01b600190031683526040820194600160a01b600190031685526060820133815260808301604435815260a08401606435815260c0850193845260e085019389855261010086019060a43582526101208701923484526101408801948c86526101608901968d88526040519c8d9b8c9b633ee12c7960e11b8d5260048d0160209052600160a01b6001900390511660248d0152600160a01b6001900390511660448c0152600160a01b6001900390511660648b0152600160a01b6001900390511660848a01525160a48901525160c48801525160e4870161018090526101a4870161080091612c5c565b94516101048701525161012486015251610144850152511515610164840152516101848301520381345a9460c095f19081156106025782916108d3575b5060808101511561089e578051606082015160408301516001600160a01b03908116929116907fdab9102861c7483a187584d6371d88316f005af507982ccf95c110879f3ed5a58580a45b506001600080516020614adc8339815191525580f35b80517f8620e7f03a280a3d2aa84bd41ba19524c2d7f1dbfa9d79cb81877b0f8c963f9b602080840151604051908152a2610888565b905060c0813d60c01161095e575b816108ee60c09383612aa6565b8101031261095a5761094f60a060405192610908846129e6565b805184526020810151602085015261092260408201612d57565b604085015261093360608201612d57565b606085015261094460808201612d4a565b608085015201612d4a565b60a08201523861083d565b5080fd5b3d91506108e1565b5033926106ed565b50346101c757806003193601126101c757600080516020614b1c833981519152546040516001600160a01b039091168152602090f35b50346101c75760203660031901126101c757806109bf612ade565b6109c76146fa565b6001600160a01b036109d7614844565b1690813b15610a29576040516333c298e160e21b81526001600160a01b0390911660048201529082908290602490829084905af1801561060257610a185750f35b81610a2291612aa6565b6101c75780f35b5050fd5b50346101c75760203660031901126101c757610a4761461d565b805481906001600160a01b031673__$66ce50c11b4f8ca6e6decb43a984eadcfa$__803b15610a29576040516364aade8f60e11b81526001600160a01b03909216600480840191909152356024830152829082908180604481015b03915af4801561060257610ac657506001600080516020614adc8339815191525580f35b81610ad091612aa6565b6101c7578038610888565b50346101c75760203660031901126101c757610af5612ade565b600080516020614afc833981519152549060ff8260401c1615916001600160401b03811680159081610c82575b6001149081610c78575b159081610c6f575b50610c605767ffffffffffffffff198116600117600080516020614afc8339815191525582610c33575b50610b67614a2d565b610b6f614a2d565b610b77614a2d565b3315610c1f57610b8633614973565b610b8e614a2d565b610b96614a2d565b6001600080516020614adc8339815191525582546001600160a01b0319166001600160a01b0391909116178255610bca5780f35b60ff60401b19600080516020614afc8339815191525416600080516020614afc833981519152557fc7f505b2f371ae2175ee4913f4499e1f2633a7b5936321eed1cdaeb6115181d2602060405160018152a180f35b631e4fbdf760e01b83526004839052602483fd5b68ffffffffffffffffff19166801000000000000000117600080516020614afc8339815191525538610b5e565b63f92ee8a960e01b8452600484fd5b90501538610b34565b303b159150610b2c565b849150610b22565b50346101c75760203660031901126101c75780600435610ca861461d565b6101406001600160a01b03610cbb6149e1565b166024604051610cca81612a1d565b8481526040519687938492634377ca4160e11b84525160048401525af1928315610602578293610f68575b5060c0830151610e58575b90918291602491836001600160a01b03610d186148a9565b166040519485809263255709e560e11b82528660048301525afa928315610e4d578493610e31575b50835473__$66ce50c11b4f8ca6e6decb43a984eadcfa$__93906001600160a01b0316843b15610e0857838691610d8d859460405195869485946318e563ef60e01b86526004860161439d565b0381875af4908115610e26578591610e0c575b505060405192827f24196ec40f90671b7144e716978686b4f3c7d6b00b23da3971ef2b52af27d87f8680a284546020909201516001600160a01b0390811693921691813b15610e085763121ad92d60e21b85528593859384928392610aa29260048501613270565b8580fd5b81610e1691612aa6565b610e21578338610da0565b505050fd5b6040513d87823e3d90fd5b610e469193503d8086833e6104ac8183612aa6565b9138610d40565b6040513d86823e3d90fd5b6101208301928351600f811015610f2a576005148015610f52575b938394600014610eb1575090602491817ff250caa116f9eac0e4e82d403f131ce0a520b6c232dbcbe270b3729b0aaca09e8580a25b93509050610d00565b80935051600f811015610f3e5784929190600d03610ef857829350817fe51a41760ba25c8a4ac33894d5eb8698cf110a90d4e6f764fa0579ec8767b46684602495a2610ea8565b91509151600f811015610f2a57916024916006859403610ea85781600080516020614a5c8339815191528580a2610ea8565b634e487b7160e01b84526021600452602484fd5b634e487b7160e01b85526021600452602485fd5b50835193600f851015610f2a5793600c14610e73565b610f829193506101403d81116104e4576104d58183612aa6565b9138610cf5565b50346101c75760203660031901126101c757610fa3612ade565b9060206001600160a01b03610fb6614844565b6040516355491e0160e11b81526001600160a01b03909516600486015284916024918391165afa908115611035578091610ff8575b6020826040519015158152f35b90506020823d60201161102d575b8161101360209383612aa6565b810103126101c75750611027602091612d4a565b38610feb565b3d9150611006565b604051903d90823e3d90fd5b50346101c75760603660031901126101c75761105b612af4565b604435906001600160401b0382116105fe5761107e6105b6923690600401612b8e565b91600435613f77565b50346101c75760603660031901126101c7576110a1612ade565b906044356001600160401b03811161095a576110c1903690600401612b70565b916001600160a01b036110d2614913565b1633141580611139575b61112a57818381926020809651920190602435905af1903d15611124573d9061110482612b1e565b916111126040519384612aa6565b8252833d92013e5b6040519015158152f35b5061111a565b630fc7a3f360e31b8252600482fd5b50600080516020614a9c833981519152546001600160a01b03163314156110dc565b50346101c757806003193601126101c757600080516020614a9c833981519152546040516001600160a01b039091168152602090f35b5060203660031901126101c7576004356111a961461d565b6001600160a01b036111b96148a9565b1660405163255709e560e11b81528260048201528381602481855afa908115610e4d578491611609575b508354604051631bae711d60e21b8152602060048201819052600760248301526641707065616c7360c81b60448301529091829060649082906001600160a01b03165afa908115610e265785916115cf575b5090849060405192839163bcf205f560e01b83526040600484015261125e6044840182516132cc565b61127060208201516064850190612e2d565b61128260408201516084850190612e3a565b611294606082015160a4850190612e3a565b60808101516001600160a01b0390811660c485015260a0820151811660e485015260c0820151811661010485015260e0820151166101248401526101008101516101448401526101208101516101648401526101408101516101848401526101608101516101a48401526101808101516101c48401526101a08101516101e48401526101c08101516102048401526101e08101516102248401526102008101516102e06102448501526113689061135090610324860190612c5c565b61022083015185820360431901610264870152612c5c565b90610240810151916043198582030161028486015260208084519283815201930190865b81811061158f575050506102608101516102a48501526102808101516102c48501526102a08101516102e48501526102c0015161030484015234602484015282900390829084906001600160a01b03165af1908115610e4d57848092819482938390849361150e575b50813b156105fa5760648885809461143461142a97604051988997889662e5a95360e71b885260048801526024870190612e3a565b6044850190612e3a565b5af18015610602576114f5575b50501561147b57506001600160a01b031690600080516020614abc8339815191528380a35b6001600080516020614adc8339815191525580f35b91905060405160408101348252604060208301528351809152602060608301940190855b8181106114d657505050807f08e6523db104b48b6f1a359653498b9739ec31f6e03abb21e7acf4d73f0a48ff9133940390a3611466565b82516001600160a01b031686526020958601959092019160010161149f565b816114ff91612aa6565b61150a578438611441565b8480fd5b95505094505050503d8085833e6115258183612aa6565b810160e08282031261150a578151906001600160401b038211610e085761154d918301612dc8565b908461155b60408301612d57565b9261156860808401612d4a565b9460a084015193600f8510156105fa5760c0015191600f8310156105fa57949593386113f5565b92949650928195506060816115bd602093600195516040809180518452602081015160208501520151910152565b0195019101908694928a96949261138c565b90506020813d602011611601575b816115ea60209383612aa6565b8101031261150a576115fb90612d57565b38611235565b3d91506115dd565b61161d91503d8086833e6104ac8183612aa6565b386111e3565b50346101c75760603660031901126101c7576105b6604435602435600435613b98565b50346101c757806003193601126101c757600080516020614b1c83398151915254336001600160a01b0390911603611681576105b633614973565b63118cdaa760e01b815233600452602490fd5b50346101c757806003193601126101c7576116ad6146fa565b600080516020614b1c83398151915280546001600160a01b0319908116909155600080516020614a9c8339815191528054918216905581906001600160a01b03167f8be0079c531659141344cd1fd0a4f28419497f9722a3daafe3b4186f6b6457e08280a380f35b50346101c75760203660031901126101c7578060043561173361461d565b61173b614844565b906024836001600160a01b0361174f6148a9565b166040519283809263255709e560e11b82528660048301525afa908115610e4d5784916118f6575b5060c0810151604051632838322d60e01b8152600481018490523360248201526001600160a01b03918216949091606091839160449183918a91165af1918215610e26578391869361188f575b506040519033837f0a94f6cf3e473cb72e765b24d1365bfcbef8d31a73215bb27e50df39757f578a8980a36040840151151580611882575b611852575b505084546001600160a01b031692915073__$66ce50c11b4f8ca6e6decb43a984eadcfa$__9050803b1561150a57610aa29385936040519586948593849363121ad92d60e21b855260048501613270565b60a0015160209384015182526001600160a01b031692600080516020614a7c83398151915291a338818180611801565b50602084015115156117fc565b915091506060813d6060116118ee575b816118ac60609383612aa6565b8101031261150a5782906118e260408051926118c784612a38565b6118d081612d57565b84526020810151602085015201612d4a565b604082015291386117c4565b3d915061189f565b61190a91503d8086833e6104ac8183612aa6565b38611777565b50346101c75760203660031901126101c7576004359061192e61461d565b6119366148a9565b61193e614913565b926064602060018060a01b0385541660405192838092631bae711d60e21b8252846004830152600f60248301526e4d6573736167655061796d656e747360881b60448301525afa8015610e4d5784908190611dc6575b60405163255709e560e11b8152600481018590526001600160a01b039182169590935083916024918391165afa908115610e4d578491611dac575b506060810151600f811015610f3e5760061901611d9d57839460018060a01b03169260405163404f7db760e01b8152836004820152602081602481885afa908115611be7578691611d63575b50611c2e575b60405163aa14aa7360e01b81526004810184905290602082602481885afa8015611be75786928391611bf2575b50611abb575b505060c001516001600160a01b0316823b15610e21576040516338444e0560e01b815260048101929092526001600160a01b031660248201529082908290604490829084905af1801561060257610ac657506001600080516020614adc8339815191525580f35b602060c0840191606460018060a01b03845116604051958693849263165a3c0560e21b84528a600485015260248401528160448401525af1918215611be7578692611bab575b5081611b10575b859150611a54565b80516001600160a01b031690813b1561045d57604051635b8346e560e11b8152306004820152602481018490528592889081908390604490829084905af19182611b90575b5050611b8857516040519283526001600160a01b031691600080516020614a7c83398151915290602090a35b3880611b08565b505050611b81565b8192945090611b9e91612aa6565b61045d5784918738611b55565b955090506020853d602011611bdf575b81611bc860209383612aa6565b81010312611bda578594519038611b01565b600080fd5b3d9150611bbb565b6040513d88823e3d90fd5b9250506020823d602011611c26575b81611c0e60209383612aa6565b81010312610e0857611c208692612d4a565b38611a4e565b3d9150611c01565b60c08201805160405163165a3c0560e21b8152600481018690526001600160a01b03909116602482015260016044820152906020826064818a875af1918215611d58578792611d21575b5081611c86575b5050611a21565b80516001600160a01b031690813b1561048557604051635b8346e560e11b8152306004820152602481018490528692899081908390604490829084905af19182611d06575b5050611cfe57516040519283526001600160a01b031691600080516020614a7c83398151915290602090a35b3880611c7f565b505050611cf7565b8192945090611d1491612aa6565b6104855785918838611ccb565b965090506020863d602011611d50575b81611d3e60209383612aa6565b81010312611bda578695519038611c78565b3d9150611d31565b6040513d89823e3d90fd5b90506020813d602011611d95575b81611d7e60209383612aa6565b81010312610e0857611d8f90612d4a565b38611a1b565b3d9150611d71565b63e4e81f7960e01b8452600484fd5b611dc091503d8086833e6104ac8183612aa6565b386119cf565b50506020813d602011611dfa575b81611de160209383612aa6565b810103126105fa5783611df5602492612d57565b611994565b3d9150611dd4565b50346101c75760203660031901126101c75760249060206001600160a01b03611e29614844565b16604051938480926333fbe41d60e11b825260043560048301525afa9081156110355790611e5d575b602090604051908152f35b506020813d602011611e88575b81611e7760209383612aa6565b81010312611bda5760209051611e52565b3d9150611e6a565b50346101c75760203660031901126101c7576004356001600160401b03811161095a573660238201121561095a57806004013590611ecd82612ac7565b91611edb6040519384612aa6565b8083526024602084019160051b8301019136831161150a57602401905b828210611fac5750508254604051631bae711d60e21b8152915060209082906001600160a01b03168180611f2e600482016138d7565b03915afa908115611fa1578391611f67575b506001600160a01b03163303611f59576105b690614795565b6282b42960e81b8252600482fd5b90506020813d602011611f99575b81611f8260209383612aa6565b810103126105fe57611f9390612d57565b38611f40565b3d9150611f75565b6040513d85823e3d90fd5b60208091611fb984612b0a565b815201910190611ef8565b50346101c75760203660031901126101c75780600435816001600160a01b03611feb614730565b166024604051611ffa81612a1d565b84815260405195869384926323d783ed60e11b84525160048401525af1918215611fa15783926120e8575b5060608201516001600160a01b031690811515806120d2575b612083575b5050815b60a0820151805182101561207f578161206460a093600193613246565b51600080516020614a5c8339815191528680a2019050612047565b8380f35b60808301516001600160a01b0316918290827f1c717affb0f2d0bd7bccd509af90bc762d34bc45ad812ef154a3f5efdae1ca6b8780a4600080516020614b3c8339815191528480a33880612043565b5060808301516001600160a01b0316151561203e565b9091503d8084833e6120fa8183612aa6565b8101906020818303126105fa578051906001600160401b03821161150a570160e0818303126105fa5760405191612130836129b5565b8151600f811015610e085783526020820151600f811015610e0857602084015261215c60408301612d57565b604084015261216d60608301612d57565b606084015261217e60808301612d57565b608084015260a08201516001600160401b038111610e0857816121a2918401612d6b565b60a084015260c08201516001600160401b038111610e08576121c49201612d6b565b60c08201529038612025565b50346101c757806003193601126101c757546040516001600160a01b039091168152602090f35b50346101c75760c03660031901126101c757604435600581101561095a576114669061222161461d565b60a4359060843590606435906024356004356132d9565b50346101c75760c03660031901126101c7576064356001600160a01b038116810361095a576084356001600160401b0381116105fe5761227c903690600401612b8e565b9160a435926001600160401b03841161150a576122a06105b6943690600401612b8e565b939092604435602435600435612e47565b5060c03660031901126101c7576122c6612ade565b6064356001600160401b0381116105fe576122e5903690600401612b70565b608435906122f161461d565b811561241e576001600160a01b03831692831561241657925b6001600160a01b0361231a614844565b16926040519161232983612a8a565b825260208201928684526040830195600160a01b6001900316865260608301903382526080840190602435825260a0850190604435825260c0860190815260e0860194855261010086019060a43582526101208701923484526101408801948c86526101608901968d88526040519c8d9b8c9b633ee12c7960e11b8d5260048d0160209052600160a01b6001900390511660248d0152600160a01b6001900390511660448c0152600160a01b6001900390511660648b0152600160a01b6001900390511660848a01525160a48901525160c48801525160e4870161018090526101a4870161080091612c5c565b50339261230a565b63aceab4a160e01b8452600484fd5b50346101c757806003193601126101c757602060405160648152f35b50346101c75760203660031901126101c757612463612ade565b61246b6146fa565b81546001600160a01b0319166001600160a01b039190911690811782557f2e967678ac371453fc8babb3af60134332176ca4334ac0032e7b2a655c72e5a98280a280f35b82346101c75760203660031901126101c757600435916001600160401b03831161095a5760e0600319843603011261095a576124ea816129b5565b826004013581526020810160248401358152604082019360448101358552606083019060648101358252608084016084820135815260a482013591600583101561045d5760a0860192835260c4810135906001600160401b0382116104855701963660238901121561045d57600488013561256481612ac7565b986125726040519a8b612aa6565b818a5260206004818c019360051b830101019036821161046c5760248101925b8284106128ff575050505060c086019788526125ac61461d565b875182516125e260405180926125ce6020830195604087526060840190612c81565b90604083015203601f198101835282612aa6565b5190208451036128f0576001600160a01b036125fc614659565b16928651915192519451955190519860058a10156128dc5788998997989993926126b16126d59351926040519561263287612a01565b86526020860197885260408601998a52606086019b8c526080860192835261265e60a087019182612d3e565b60c086019233845260e087019485526040519c8d9b8c9a8b9963bfcc725760e01b8b52602060048c01525160248b01525160448a01525160648901525160848801525160a48701525160c4860190612e2d565b516001600160a01b031660e484015251610100610104840152610124830190612c81565b03925af1908115611fa15783916127ed575b5073__$66ce50c11b4f8ca6e6decb43a984eadcfa$__90606081015192600f841015610f3e57519260e060018060a01b0360208401511692015191833b15610e08579390928592604051958693637754369b60e11b855261275060a48601976004870190612e3a565b8560248601526044850152606484015260a060848401528051809552602060c48401910194845b8181106127c8575050839450828181925003915af480156127bb576127ab576001600080516020614adc8339815191525580f35b6127b491612aa6565b8181611466565b50604051903d90823e3d90fd5b86516001600160a01b0316835260209687019689965088955090920191600101612777565b90503d8084833e6127fe8183612aa6565b8101906020818303126105fa578051906001600160401b03821161150a5701610100818303126105fa576040519161283583612a01565b61283e82612d4a565b835261284c60208301612d57565b6020840152604082015160408401526060820151600f811015610e0857606084015260808201516001600160401b038111610e08578161288d918401612d6b565b608084015261289e60a08301612d4a565b60a08401526128af60c08301612d57565b60c084015260e08201516001600160401b038111610e08576128d19201612dc8565b60e0820152836126e7565b634e487b7160e01b89526021600452602489fd5b63496189f760e11b8752600487fd5b83356001600160401b0381116129b15760049083010160c0601f1982360301126129b15760405190612930826129e6565b602081013560028110156129ad57825261294c60408201612b0a565b60208301526060810135604083015260808101356001600160401b0381116129ad5761297e9060203691840101612b70565b606083015260a081013580151581036129ad57608083015260c0013560a0820152815260209384019301612592565b8d80fd5b8b80fd5b60e081019081106001600160401b038211176129d057604052565b634e487b7160e01b600052604160045260246000fd5b60c081019081106001600160401b038211176129d057604052565b61010081019081106001600160401b038211176129d057604052565b602081019081106001600160401b038211176129d057604052565b606081019081106001600160401b038211176129d057604052565b61014081019081106001600160401b038211176129d057604052565b608081019081106001600160401b038211176129d057604052565b61018081019081106001600160401b038211176129d057604052565b90601f801991011681019081106001600160401b038211176129d057604052565b6001600160401b0381116129d05760051b60200190565b600435906001600160a01b0382168203611bda57565b602435906001600160a01b0382168203611bda57565b35906001600160a01b0382168203611bda57565b6001600160401b0381116129d057601f01601f191660200190565b929192612b4582612b1e565b91612b536040519384612aa6565b829481845281830111611bda578281602093846000960137010152565b9080601f83011215611bda57816020612b8b93359101612b39565b90565b9181601f84011215611bda578235916001600160401b038311611bda5760208381860195010111611bda57565b6020600319820112611bda57600435906001600160401b038211611bda5780602383011215611bda578160040135612bf281612ac7565b92612c006040519485612aa6565b8184526024602085019260051b820101928311611bda57602401905b828210612c295750505090565b8135815260209182019101612c1c565b60005b838110612c4c5750506000910152565b8181015183820152602001612c3c565b90602091612c7581518092818552858086019101612c39565b601f01601f1916010190565b9080602083519182815201906020808260051b8501019401926000905b828210612cad57505050505090565b9091929394601f1982820301855285519081516002811015612d28576001928260209392849352848060a01b038383015116838201526040820151604082015260a080612d09606085015160c0606086015260c0850190612c5c565b6080808601511515908501529301519101529701950193920190612c9e565b634e487b7160e01b600052602160045260246000fd5b6005821015612d285752565b51908115158203611bda57565b51906001600160a01b0382168203611bda57565b9080601f83011215611bda578151612d8281612ac7565b92612d906040519485612aa6565b81845260208085019260051b820101928311611bda57602001905b828210612db85750505090565b8151815260209182019101612dab565b9080601f83011215611bda578151612ddf81612ac7565b92612ded6040519485612aa6565b81845260208085019260051b820101928311611bda57602001905b828210612e155750505090565b60208091612e2284612d57565b815201910190612e08565b906005821015612d285752565b90600f821015612d285752565b93929491956064989796600097602060018060a01b038a54166040519c8d8092631bae711d60e21b8252846004830152600d60248301526c50726f706f73616c506861736560981b60448301525afa94851561048957899a9b8a98999a966131e9575b50908793929160405193612ebd85612a01565b8a8552602085019687526040850198338a52606086019c600160a01b60019003168d526080860194855260a08601928784523690612efa92612b39565b9260c086019384523690612f0d92612b39565b60e0850190815260405163fa319c6560e01b815260206004820152945160248601529551604485015296516001600160a01b039081166064850152995190991660848301525160a4820152935160c4850152955161010060e48501529295869384928391612f8090610124840190612c5c565b905182820360231901610104840152612f999190612c5c565b03926001600160a01b03165af1918215611fa15783926130ea575b5060e08201516130c4575b8151156130ae5773__$66ce50c11b4f8ca6e6decb43a984eadcfa$__906040830151600f811015610f3e5761012084015115159360c060018060a01b0360608301511691015192843b1561045d5794929091869492604051968795637754369b60e11b875261303660a48801946004890190612e3a565b60248701526044860152606485015260a060848501528151809152602060c48501920190855b818110613089575050508290039082905af480156106025761307c575050565b8161308691612aa6565b50565b82516001600160a01b031684528896508795506020938401939092019160010161305c565b91600080516020614a5c833981519152915080a2565b60608201516001600160a01b031681600080516020614b3c8339815191528580a3612fbf565b9091503d8084833e6130fc8183612aa6565b8101906020818303126105fa578051906001600160401b03821161150a5701610140818303126105fa576040519161313383612a53565b61313c82612d4a565b835261314a60208301612d57565b60208401526040820151600f811015610e0857604084015261316e60608301612d57565b60608401526080820151608084015260a082015160a084015260c08201516001600160401b038111610e0857916131ad610120926131dc948301612dc8565b60c08501526131be60e08201612d4a565b60e08501526131d06101008201612d57565b61010085015201612d4a565b6101208201529038612fb4565b9192939495509596506020813d60201161322e575b8161320b60209383612aa6565b8101031261046c57918996959493916132248894612d57565b9590919293612eaa565b3d91506131fe565b6005811015612d285760f81b9052565b805182101561325a5760209160051b010190565b634e487b7160e01b600052603260045260246000fd5b6001600160a01b03918216815291166020820152604081019190915260600190565b602060408183019282815284518094520192019060005b8181106132b65750505090565b82518452602093840193909201916001016132a9565b906006821015612d285752565b93929190918260405160208101906000963360601b83526132fd6034830187613236565b846035830152605582015260558152613317607582612aa6565b519020036138c85783929160c49184906001600160a01b03613337614659565b1690604051602081019161334b8387613236565b60218201526021815261335f604182612aa6565b5190209860405193613370856129e6565b89855260208501968752604085019a8b5261338f606086019182612d3e565b6133d0608086019133835260a087019384526040519c8d998a986320e3d24360e11b8a525160048a0152516024890152516044880152516064870190612e2d565b516001600160a01b031660848501525160a48401525af19283156127bb5781936136ef575b508251156136d957602083019081516134ac575b60018060a01b036101208501511693610160810151926005841015613498576040905115159101519160068310156134845750916134816060927f14d4bda97d7d28622aa0ad6e4d069bb9215b9e2346ecbdf2313b04121da0b68a946134726040518095612e2d565b602084015260408301906132cc565ba3565b634e487b7160e01b81526021600452602490fd5b634e487b7160e01b83526021600452602483fd5b60e08401805180511561352d57507f9c4bf38aa77ce1103eb348ff99a695363c0b42ab316945b0e19906310f2146a26134f061010087015160405191829182613292565b0390a15160408101516020909101516001600160a01b03916135129190613246565b511683600080516020614abc8339815191528380a35b613409565b610180860151909150156136735750604051837ff250caa116f9eac0e4e82d403f131ce0a520b6c232dbcbe270b3729b0aaca09e8380a26101c08501516135f4575b508054606085015173__$66ce50c11b4f8ca6e6decb43a984eadcfa$__916001600160a01b039182169116823b156105fa5760405163121ad92d60e21b81529284928492839182916135c6918b9160048501613270565b03915af48015610602579082916135df575b5050613409565b816135e991612aa6565b6101c75780386135d8565b8154606086015173__$66ce50c11b4f8ca6e6decb43a984eadcfa$__916001600160a01b039182169116823b1561150a5783859381936084936330a1fa8560e11b845260048401528960248401526044830152600160648301525af48015610602578290613663575b5061356f565b61366c91612aa6565b388161365d565b60c0850151156136b55760408101516020909101516001600160a01b039161369b9190613246565b511683600080516020614b3c8339815191528380a3613409565b506101a0840151156135285782600080516020614a5c8339815191528280a2613409565b600080516020614a5c83398151915291925080a2565b9092503d8084833e6137018183612aa6565b8101906020818303126105fa578051906001600160401b03821161150a57016101e0818303126105fa57604051916101e083018381106001600160401b038211176138b45760405261375282612d4a565b835261376060208301612d4a565b602084015260408201516006811015610e0857604084015261378460608301612d57565b606084015261379560808301612d57565b608084015260a082015160a08401526137b060c08301612d4a565b60c084015260e08201516001600160401b038111610e08578201606081830312610e0857604051906137e182612a38565b80518252602081015160208301526040810151906001600160401b0382116104855761380f91849101612dc8565b604082015260e08401526101008201516001600160401b038111610e085790613839918301612d6b565b61010083015261384c6101208201612d57565b610120830152610140810151610140830152610160810151600581101561150a576138a7916101c0916101608501526138886101808201612d4a565b61018085015261389b6101a08201612d4a565b6101a085015201612d4a565b6101c082015291386133f5565b634e487b7160e01b86526041600452602486fd5b636aee863360e11b8452600484fd5b60609060208152601160208201527046696e616c697a6174696f6e506861736560781b60408201520190565b81601f82011215611bda57805161391981612b1e565b926139276040519485612aa6565b81845260208284010111611bda57612b8b9160208085019101612c39565b602081830312611bda578051906001600160401b038211611bda57016102e081830312611bda57604051916102e083018381106001600160401b038211176129d05760405281516006811015611bda57835260208201516005811015611bda5760208401526040820151600f811015611bda5760408401526060820151600f811015611bda5760608401526139dc60808301612d57565b60808401526139ed60a08301612d57565b60a08401526139fe60c08301612d57565b60c0840152613a0f60e08301612d57565b60e08401526101008201516101008401526101208201516101208401526101408201516101408401526101608201516101608401526101808201516101808401526101a08201516101a08401526101c08201516101c08401526101e08201516101e08401526102008201516001600160401b038111611bda5781613a94918401613903565b6102008401526102208201516001600160401b038111611bda5781613aba918401613903565b6102208401526102408201516001600160401b038111611bda57820181601f82011215611bda57805190613aed82612ac7565b92613afb6040519485612aa6565b82845260206060818601940283010191818311611bda57602001925b828410613b5c5750505050906102c0916102408401526102608101516102608401526102808101516102808401526102a08101516102a084015201516102c082015290565b606084830312611bda576020606091604051613b7781612a38565b86518152828701518382015260408701516040820152815201930192613b17565b9190606490602060018060a01b036000541660405193848092631bae711d60e21b8252846004830152600f60248301526e436f6d6d697474696e67506861736560881b60448301525afa918215613f2c57600092613f38575b5060846000928360405191613c0583612a6f565b87835260208301948552336040808501918252606085019889525162dab60b60e71b8152935160048501529451602484015293516001600160a01b0390811660448401529551606483015290948593849291165af1908115613f2c57600091613dc7575b50610120810151613d73575b610100810151613d5057805115613d2f5760018060a01b0360a0820151166020820190837fc5dd23f5cc17858ca1e3d0f06cbcc78820753b0dd2fea89d03d0d842192c1531602084511515604051908152a351151580613d19575b613cd8575050565b60e00151600f811015612d285760207fb61dd9b213508bbd8e6c89d7c254d830e0ed7e8cd5bd4163a167a47b12e46e8191613d166040518092612e3a565ba2565b5060e0810151600f811015612d28571515613cd0565b6101800151613d3b5750565b600080516020614a5c833981519152600080a2565b604001516001600160a01b031690600080516020614b3c833981519152600080a3565b61014081015161016082015160c08301516040519081526001600160a01b03918216929091169084907fb9adb9860846c6726d973e93f6d5994ba6aa797233e2d15851d42e9c68a5dd7290602090a4613c75565b903d8082843e613dd78184612aa6565b82019160208184031261095a578051906001600160401b0382116105fe5701906101a0828403126101c757604051926101a084018481106001600160401b03821117613f1857604052613e2983612d4a565b8452613e3760208401612d4a565b6020850152613e4860408401612d57565b6040850152613e5960608401612d57565b606085015260808301516001600160401b0381116105fe5790613e7d918401612d6b565b6080840152613e8e60a08301612d57565b60a084015260c082015160c084015260e082015190600f8210156101c75750613f0c916101809160e0850152613ec76101008201612d4a565b610100850152613eda6101208201612d4a565b610120850152613eed6101408201612d57565b610140850152613f006101608201612d57565b61016085015201612d4a565b61018082015238613c69565b634e487b7160e01b83526041600452602483fd5b6040513d6000823e3d90fd5b91506020823d602011613f6f575b81613f5360209383612aa6565b81010312611bda576084613f68600093612d57565b9250613bf1565b3d9150613f46565b9190926064600094602060018060a01b0387541660405193848092631bae711d60e21b8252846004830152600f60248301526e41637469766174696f6e506861736560881b60448301525afa918215611be7579086939291849261429f575b508361400960405196613fe888612a6f565b888852602088019360018060a01b0316845260408801953387523691612b39565b606087019081526040516320ffefc560e01b8152602060048201529651602488015291516001600160a01b0390811660448801529351909316606486015251608060848601528492839182906140639060a4830190612c5c565b03926001600160a01b03165af1908115611fa157839161419f575b5060a081015161415e575b60208101516140d2578051156140bc5761010001516001600160a01b031691600080516020614abc8339815191529080a3565b509080600080516020614a5c83398151915291a2565b6040519183817f0a94f6cf3e473cb72e765b24d1365bfcbef8d31a73215bb27e50df39757f578a8280a3835460409092015173__$66ce50c11b4f8ca6e6decb43a984eadcfa$__926001600160a01b039182169116833b15610e08578461414c8194889694839463121ad92d60e21b855260048501613270565b03915af480156106025761307c575050565b60c081015160e08201516001600160a01b039081169116837ff7861b60d3b514908b00c1461e500857f819123764586496fcddba2eb034c94c8680a4614089565b90503d8084833e6141b08183612aa6565b8101906020818303126105fa578051906001600160401b03821161150a5701610120818303126105fa576040519161012083018381106001600160401b038211176138b45760405261420182612d4a565b835261420f60208301612d4a565b602084015261422060408301612d57565b60408401526060820151606084015260808201516001600160401b038111610e08579161425561010092614293948301612dc8565b608085015261426660a08201612d4a565b60a085015261427760c08201612d57565b60c085015261428860e08201612d57565b60e085015201612d57565b6101008201523861407e565b91509192506020813d6020116142d8575b816142bd60209383612aa6565b81010312610e0857906142d1869392612d57565b9038613fd6565b3d91506142b0565b9081610140910312611bda576000604051916142fb83612a53565b61430481612d4a565b835261431260208201612d57565b6020840152604081015160408401526060810151606084015261433760808201612d4a565b608084015261434860a08201612d4a565b60a084015261435960c08201612d4a565b60c084015261436a60e08201612d4a565b60e0840152610100810151600f8110156105fe57610100840152610120015190600f8210156101c7575061012082015290565b92614435926101209260018060a01b03168552602085015280511515604085015260018060a01b03602082015116606085015260408101516080850152606081015160a08501526080810151151560c085015260a0810151151560e085015260c0810151151561010085015260e0810151151582850152614428610100820151610140860190612e3a565b0151610160830190612e3a565b6101a061018082015261444d6101a0820183516132cc565b61446060208301516101c0830190612e2d565b61447360408301516101e0830190612e3a565b6144866060830151610200830190612e3a565b60808201516001600160a01b0390811661022083015260a0830151811661024083015260c0830151811661026083015260e0830151166102808201526101008201516102a08201526101208201516102c08201526101408201516102e0808301919091526101608301516103008301526101808301516103208301526101a08301516103408301526101c08301516103608301526101e08301516103808301526102008301516103a08301919091526145619061454890610480840190612c5c565b61022084015183820361019f19016103c0850152612c5c565b916102408101519261019f19838203016103e08401526020808551928381520194019060005b8181106145c4575050506102c0816102606104609301516104008501526102808101516104208501526102a0810151610440850152015191015290565b90919460206060826145ed6001948a516040809180518452602081015160208501520151910152565b019601929101614587565b60001981146146075760010190565b634e487b7160e01b600052601160045260246000fd5b6002600080516020614adc8339815191525414614648576002600080516020614adc83398151915255565b633ee5aeb560e01b60005260046000fd5b600054604051631bae711d60e21b8152602060048201819052600e60248301526d52657665616c696e67506861736560901b60448301529091829060649082906001600160a01b03165afa908115613f2c576000916146c0575b506001600160a01b031690565b90506020813d6020116146f2575b816146db60209383612aa6565b81010312611bda576146ec90612d57565b386146b3565b3d91506146ce565b600080516020614a9c833981519152546001600160a01b0316330361471b57565b63118cdaa760e01b6000523360045260246000fd5b600054604051631bae711d60e21b8152602060048201819052600d60248301526c49646c656e657373506861736560981b60448301529091829060649082906001600160a01b03165afa908115613f2c576000916146c057506001600160a01b031690565b73__$66ce50c11b4f8ca6e6decb43a984eadcfa$__919060005b815181101561483e5760005b602081106147cc57506001016147af565b6000546001600160a01b0390811691906147e68486613246565b5116863b15611bda576040519263121ad92d60e21b84526004840152602483015260006044830152600082606481895af4918215613f2c5760019261482d575b50016147bb565b600061483891612aa6565b38614826565b50509050565b600054604051631bae711d60e21b8152602060048201819052600d60248301526c4372656174696f6e506861736560981b60448301529091829060649082906001600160a01b03165afa908115613f2c576000916146c057506001600160a01b031690565b600054604051631bae711d60e21b815260206004820181905260126024830152712a3930b739b0b1ba34b7b726b0b730b3b2b960711b60448301529091829060649082906001600160a01b03165afa908115613f2c576000916146c057506001600160a01b031690565b600054604051631bae711d60e21b815260206004820181905260086024830152674d6573736167657360c01b60448301529091829060649082906001600160a01b03165afa908115613f2c576000916146c057506001600160a01b031690565b600080516020614b1c83398151915280546001600160a01b0319908116909155600080516020614a9c83398151915280549182166001600160a01b0393841690811790915591167f8be0079c531659141344cd1fd0a4f28419497f9722a3daafe3b4186f6b6457e0600080a3565b600054604051631bae711d60e21b81529060209082906001600160a01b03168180614a0e600482016138d7565b03915afa908115613f2c576000916146c057506001600160a01b031690565b60ff600080516020614afc8339815191525460401c1615614a4a57565b631afcd79f60e31b60005260046000fdfeb9f69df2250e1788b862d0715b1dad98b2a50311c017ebb71f6cd83de656b06dd7d0ee861c0ebf42599b922e8f4ad0cafed951841610157bcd56110f49ced8ee9016d09d72d40fdae2fd8ceac6b6234c7706214fd39c1cd1e609a0528c1993001081f7638e5a02d916250da410b76a0821bdb2b09c574c0f237830409c37d0c89b779b17422d0df92223018b32b4d1fa46e071723d6817e2486d003becc55f00f0c57e16840df040f15088dc2f81fe391c3923bec73e23a9662efc9c229c6a00237e158222e3e6968b72b9db0d8043aacf074ad9f650f0d1606b4d82ee432c0042dd93d103ec25ce3ac597cec3f3aa55b91b52ffa90a04f9e14545f4543e7c48a2646970667358221220d0a0542804ca115b73382016b3e1a5f7f35f2cb8018aeaee837fbfe061fbff4364736f6c634300081c0033",
  "linkReferences": {
    "contracts/utils/ConsensusHelpers.sol": {
      "ConsensusHelpers": [
        {
          "length": 20,
          "start": 728
        },
        {
          "length": 20,
          "start": 2862
        },
        {
          "length": 20,
          "start": 3613
        },
        {
          "length": 20,
          "start": 6379
        },
        {
          "length": 20,
          "start": 10178
        },
        {
          "length": 20,
          "start": 12448
        },
        {
          "length": 20,
          "start": 13905
        },
        {
          "length": 20,
          "start": 14037
        },
        {
          "length": 20,
          "start": 16862
        },
        {
          "length": 20,
          "start": 18543
        }
      ]
    }
  },
  "deployedLinkReferences": {
    "contracts/utils/ConsensusHelpers.sol": {
      "ConsensusHelpers": [
        {
          "length": 20,
          "start": 512
        },
        {
          "length": 20,
          "start": 2646
        },
        {
          "length": 20,
          "start": 3397
        },
        {
          "length": 20,
          "start": 6163
        },
        {
          "length": 20,
          "start": 9962
        },
        {
          "length": 20,
          "start": 12232
        },
        {
          "length": 20,
          "start": 13689
        },
        {
          "length": 20,
          "start": 13821
        },
        {
          "length": 20,
          "start": 16646
        },
        {
          "length": 20,
          "start": 18327
        }
      ]
    }
  }
}