{
  "_format": "hh-sol-artifact-1",
  "contractName": "ValidatorWalletBlueprint",
  "sourceName": "contracts/validatorsWallet/ValidatorWalletBlueprint.sol",
  "abi": [
    {
      "inputs": [],
      "name": "AccessControlBadConfirmation",
      "type": "error"
    },
    {
      "inputs": [
        {
          "internalType": "address",
          "name": "account",
          "type": "address"
        },
        {
          "internalType": "bytes32",
          "name": "neededRole",
          "type": "bytes32"
        }
      ],
      "name": "AccessControlUnauthorizedAccount",
      "type": "error"
    },
    {
      "inputs": [],
      "name": "InvalidAddress",
      "type": "error"
    },
    {
      "inputs": [],
      "name": "InvalidInitialization",
      "type": "error"
    },
    {
      "inputs": [],
      "name": "NoPendingOperator",
      "type": "error"
    },
    {
      "inputs": [],
      "name": "NotInitializing",
      "type": "error"
    },
    {
      "inputs": [],
      "name": "NotOperator",
      "type": "error"
    },
    {
      "inputs": [],
      "name": "OperatorTransferNotReady",
      "type": "error"
    },
    {
      "inputs": [
        {
          "internalType": "address",
          "name": "owner",
          "type": "address"
        }
      ],
      "name": "OwnableInvalidOwner",
      "type": "error"
    },
    {
      "inputs": [
        {
          "internalType": "address",
          "name": "account",
          "type": "address"
        }
      ],
      "name": "OwnableUnauthorizedAccount",
      "type": "error"
    },
    {
      "inputs": [],
      "name": "ReentrancyGuardReentrantCall",
      "type": "error"
    },
    {
      "inputs": [],
      "name": "TransferFailed",
      "type": "error"
    },
    {
      "anonymous": false,
      "inputs": [
        {
          "indexed": false,
          "internalType": "uint64",
          "name": "version",
          "type": "uint64"
        }
      ],
      "name": "Initialized",
      "type": "event"
    },
    {
      "anonymous": false,
      "inputs": [
        {
          "indexed": true,
          "internalType": "address",
          "name": "newOperator",
          "type": "address"
        }
      ],
      "name": "OperatorSet",
      "type": "event"
    },
    {
      "anonymous": false,
      "inputs": [
        {
          "indexed": true,
          "internalType": "address",
          "name": "by",
          "type": "address"
        }
      ],
      "name": "OperatorTransferCancelled",
      "type": "event"
    },
    {
      "anonymous": false,
      "inputs": [
        {
          "indexed": true,
          "internalType": "address",
          "name": "from",
          "type": "address"
        },
        {
          "indexed": true,
          "internalType": "address",
          "name": "to",
          "type": "address"
        }
      ],
      "name": "OperatorTransferCompleted",
      "type": "event"
    },
    {
      "anonymous": false,
      "inputs": [
        {
          "indexed": true,
          "internalType": "address",
          "name": "from",
          "type": "address"
        },
        {
          "indexed": true,
          "internalType": "address",
          "name": "to",
          "type": "address"
        },
        {
          "indexed": false,
          "internalType": "uint256",
          "name": "transferableAt",
          "type": "uint256"
        }
      ],
      "name": "OperatorTransferStarted",
      "type": "event"
    },
    {
      "anonymous": false,
      "inputs": [
        {
          "indexed": true,
          "internalType": "address",
          "name": "previousOwner",
          "type": "address"
        },
        {
          "indexed": true,
          "internalType": "address",
          "name": "newOwner",
          "type": "address"
        }
      ],
      "name": "OwnershipTransferred",
      "type": "event"
    },
    {
      "anonymous": false,
      "inputs": [
        {
          "indexed": true,
          "internalType": "bytes32",
          "name": "role",
          "type": "bytes32"
        },
        {
          "indexed": true,
          "internalType": "bytes32",
          "name": "previousAdminRole",
          "type": "bytes32"
        },
        {
          "indexed": true,
          "internalType": "bytes32",
          "name": "newAdminRole",
          "type": "bytes32"
        }
      ],
      "name": "RoleAdminChanged",
      "type": "event"
    },
    {
      "anonymous": false,
      "inputs": [
        {
          "indexed": true,
          "internalType": "bytes32",
          "name": "role",
          "type": "bytes32"
        },
        {
          "indexed": true,
          "internalType": "address",
          "name": "account",
          "type": "address"
        },
        {
          "indexed": true,
          "internalType": "address",
          "name": "sender",
          "type": "address"
        }
      ],
      "name": "RoleGranted",
      "type": "event"
    },
    {
      "anonymous": false,
      "inputs": [
        {
          "indexed": true,
          "internalType": "bytes32",
          "name": "role",
          "type": "bytes32"
        },
        {
          "indexed": true,
          "internalType": "address",
          "name": "account",
          "type": "address"
        },
        {
          "indexed": true,
          "internalType": "address",
          "name": "sender",
          "type": "address"
        }
      ],
      "name": "RoleRevoked",
      "type": "event"
    },
    {
      "anonymous": false,
      "inputs": [
        {
          "indexed": false,
          "internalType": "uint256",
          "name": "amount",
          "type": "uint256"
        }
      ],
      "name": "ValidatorClaimProcessed",
      "type": "event"
    },
    {
      "anonymous": false,
      "inputs": [
        {
          "indexed": false,
          "internalType": "uint256",
          "name": "amount",
          "type": "uint256"
        }
      ],
      "name": "ValidatorDepositMade",
      "type": "event"
    },
    {
      "anonymous": false,
      "inputs": [
        {
          "indexed": false,
          "internalType": "uint256",
          "name": "shares",
          "type": "uint256"
        }
      ],
      "name": "ValidatorExitInitiated",
      "type": "event"
    },
    {
      "anonymous": false,
      "inputs": [
        {
          "indexed": true,
          "internalType": "address",
          "name": "validator",
          "type": "address"
        }
      ],
      "name": "ValidatorIdentitySet",
      "type": "event"
    },
    {
      "inputs": [],
      "name": "DEFAULT_ADMIN_ROLE",
      "outputs": [
        {
          "internalType": "bytes32",
          "name": "",
          "type": "bytes32"
        }
      ],
      "stateMutability": "view",
      "type": "function"
    },
    {
      "inputs": [],
      "name": "OPERATOR_TRANSFER_DELAY",
      "outputs": [
        {
          "internalType": "uint256",
          "name": "",
          "type": "uint256"
        }
      ],
      "stateMutability": "view",
      "type": "function"
    },
    {
      "inputs": [
        {
          "internalType": "bytes32",
          "name": "_txId",
          "type": "bytes32"
        },
        {
          "internalType": "bytes",
          "name": "_vrfProof",
          "type": "bytes"
        }
      ],
      "name": "activateTransaction",
      "outputs": [],
      "stateMutability": "nonpayable",
      "type": "function"
    },
    {
      "inputs": [],
      "name": "cancelOperatorTransfer",
      "outputs": [],
      "stateMutability": "nonpayable",
      "type": "function"
    },
    {
      "inputs": [
        {
          "internalType": "bytes32",
          "name": "_txId",
          "type": "bytes32"
        },
        {
          "internalType": "uint256",
          "name": "_tribunalIndex",
          "type": "uint256"
        },
        {
          "internalType": "bytes32",
          "name": "_commitHash",
          "type": "bytes32"
        }
      ],
      "name": "commitTribunalAppealVote",
      "outputs": [],
      "stateMutability": "nonpayable",
      "type": "function"
    },
    {
      "inputs": [
        {
          "internalType": "bytes32",
          "name": "_txId",
          "type": "bytes32"
        },
        {
          "internalType": "bytes32",
          "name": "_commitHash",
          "type": "bytes32"
        },
        {
          "internalType": "uint256",
          "name": "_validatorIndex",
          "type": "uint256"
        }
      ],
      "name": "commitVote",
      "outputs": [],
      "stateMutability": "nonpayable",
      "type": "function"
    },
    {
      "inputs": [],
      "name": "completeOperatorTransfer",
      "outputs": [],
      "stateMutability": "nonpayable",
      "type": "function"
    },
    {
      "inputs": [],
      "name": "consensus",
      "outputs": [
        {
          "internalType": "address",
          "name": "",
          "type": "address"
        }
      ],
      "stateMutability": "view",
      "type": "function"
    },
    {
      "inputs": [],
      "name": "factory",
      "outputs": [
        {
          "internalType": "address",
          "name": "",
          "type": "address"
        }
      ],
      "stateMutability": "view",
      "type": "function"
    },
    {
      "inputs": [],
      "name": "getIdentity",
      "outputs": [
        {
          "components": [
            {
              "internalType": "string",
              "name": "moniker",
              "type": "string"
            },
            {
              "internalType": "string",
              "name": "logoUri",
              "type": "string"
            },
            {
              "internalType": "string",
              "name": "website",
              "type": "string"
            },
            {
              "internalType": "string",
              "name": "description",
              "type": "string"
            },
            {
              "internalType": "string",
              "name": "email",
              "type": "string"
            },
            {
              "internalType": "string",
              "name": "twitter",
              "type": "string"
            },
            {
              "internalType": "string",
              "name": "telegram",
              "type": "string"
            },
            {
              "internalType": "string",
              "name": "github",
              "type": "string"
            },
            {
              "internalType": "bytes",
              "name": "extraCid",
              "type": "bytes"
            }
          ],
          "internalType": "struct IValidatorWallet.ValidatorIdentity",
          "name": "",
          "type": "tuple"
        }
      ],
      "stateMutability": "view",
      "type": "function"
    },
    {
      "inputs": [],
      "name": "getOperator",
      "outputs": [
        {
          "internalType": "address",
          "name": "",
          "type": "address"
        }
      ],
      "stateMutability": "view",
      "type": "function"
    },
    {
      "inputs": [],
      "name": "getPendingOperator",
      "outputs": [
        {
          "internalType": "address",
          "name": "",
          "type": "address"
        },
        {
          "internalType": "uint256",
          "name": "",
          "type": "uint256"
        }
      ],
      "stateMutability": "view",
      "type": "function"
    },
    {
      "inputs": [
        {
          "internalType": "bytes32",
          "name": "role",
          "type": "bytes32"
        }
      ],
      "name": "getRoleAdmin",
      "outputs": [
        {
          "internalType": "bytes32",
          "name": "",
          "type": "bytes32"
        }
      ],
      "stateMutability": "view",
      "type": "function"
    },
    {
      "inputs": [
        {
          "internalType": "bytes32",
          "name": "role",
          "type": "bytes32"
        },
        {
          "internalType": "address",
          "name": "account",
          "type": "address"
        }
      ],
      "name": "grantRole",
      "outputs": [],
      "stateMutability": "nonpayable",
      "type": "function"
    },
    {
      "inputs": [
        {
          "internalType": "bytes32",
          "name": "role",
          "type": "bytes32"
        },
        {
          "internalType": "address",
          "name": "account",
          "type": "address"
        }
      ],
      "name": "hasRole",
      "outputs": [
        {
          "internalType": "bool",
          "name": "",
          "type": "bool"
        }
      ],
      "stateMutability": "view",
      "type": "function"
    },
    {
      "inputs": [],
      "name": "identity",
      "outputs": [
        {
          "internalType": "string",
          "name": "moniker",
          "type": "string"
        },
        {
          "internalType": "string",
          "name": "logoUri",
          "type": "string"
        },
        {
          "internalType": "string",
          "name": "website",
          "type": "string"
        },
        {
          "internalType": "string",
          "name": "description",
          "type": "string"
        },
        {
          "internalType": "string",
          "name": "email",
          "type": "string"
        },
        {
          "internalType": "string",
          "name": "twitter",
          "type": "string"
        },
        {
          "internalType": "string",
          "name": "telegram",
          "type": "string"
        },
        {
          "internalType": "string",
          "name": "github",
          "type": "string"
        },
        {
          "internalType": "bytes",
          "name": "extraCid",
          "type": "bytes"
        }
      ],
      "stateMutability": "view",
      "type": "function"
    },
    {
      "inputs": [
        {
          "internalType": "address",
          "name": "_factory",
          "type": "address"
        },
        {
          "internalType": "address",
          "name": "_owner",
          "type": "address"
        },
        {
          "internalType": "address",
          "name": "_staking",
          "type": "address"
        },
        {
          "internalType": "address",
          "name": "_consensus",
          "type": "address"
        },
        {
          "internalType": "address",
          "name": "_operator",
          "type": "address"
        }
      ],
      "name": "initialize",
      "outputs": [],
      "stateMutability": "nonpayable",
      "type": "function"
    },
    {
      "inputs": [
        {
          "internalType": "address",
          "name": "_newOperator",
          "type": "address"
        }
      ],
      "name": "initiateOperatorTransfer",
      "outputs": [],
      "stateMutability": "nonpayable",
      "type": "function"
    },
    {
      "inputs": [
        {
          "components": [
            {
              "internalType": "bytes32",
              "name": "txId",
              "type": "bytes32"
            },
            {
              "internalType": "uint256",
              "name": "saltAsAValidator",
              "type": "uint256"
            },
            {
              "internalType": "bytes32",
              "name": "txExecutionHash",
              "type": "bytes32"
            },
            {
              "internalType": "bytes32",
              "name": "messagesAndOtherFieldsHash",
              "type": "bytes32"
            },
            {
              "internalType": "bytes32",
              "name": "otherExecutionFieldsHash",
              "type": "bytes32"
            },
            {
              "internalType": "enum ITransactions.VoteType",
              "name": "resultValue",
              "type": "uint8"
            },
            {
              "components": [
                {
                  "internalType": "enum IMessages.MessageType",
                  "name": "messageType",
                  "type": "uint8"
                },
                {
                  "internalType": "address",
                  "name": "recipient",
                  "type": "address"
                },
                {
                  "internalType": "uint256",
                  "name": "value",
                  "type": "uint256"
                },
                {
                  "internalType": "bytes",
                  "name": "data",
                  "type": "bytes"
                },
                {
                  "internalType": "bool",
                  "name": "onAcceptance",
                  "type": "bool"
                },
                {
                  "internalType": "uint256",
                  "name": "saltNonce",
                  "type": "uint256"
                }
              ],
              "internalType": "struct IMessages.SubmittedMessage[]",
              "name": "messages",
              "type": "tuple[]"
            }
          ],
          "internalType": "struct IConsensusMain.LeaderRevealVoteParams",
          "name": "_params",
          "type": "tuple"
        }
      ],
      "name": "leaderRevealVote",
      "outputs": [],
      "stateMutability": "nonpayable",
      "type": "function"
    },
    {
      "inputs": [],
      "name": "operator",
      "outputs": [
        {
          "internalType": "address",
          "name": "",
          "type": "address"
        }
      ],
      "stateMutability": "view",
      "type": "function"
    },
    {
      "inputs": [],
      "name": "operatorTransferInitiated",
      "outputs": [
        {
          "internalType": "uint256",
          "name": "",
          "type": "uint256"
        }
      ],
      "stateMutability": "view",
      "type": "function"
    },
    {
      "inputs": [],
      "name": "owner",
      "outputs": [
        {
          "internalType": "address",
          "name": "",
          "type": "address"
        }
      ],
      "stateMutability": "view",
      "type": "function"
    },
    {
      "inputs": [],
      "name": "pendingOperator",
      "outputs": [
        {
          "internalType": "address",
          "name": "",
          "type": "address"
        }
      ],
      "stateMutability": "view",
      "type": "function"
    },
    {
      "inputs": [
        {
          "internalType": "bytes32",
          "name": "_txId",
          "type": "bytes32"
        },
        {
          "internalType": "bytes32",
          "name": "_txExecutionHash",
          "type": "bytes32"
        },
        {
          "internalType": "uint256",
          "name": "_processingBlock",
          "type": "uint256"
        },
        {
          "internalType": "bytes",
          "name": "_eqBlocksOutputs",
          "type": "bytes"
        },
        {
          "internalType": "bytes",
          "name": "_vrfProof",
          "type": "bytes"
        }
      ],
      "name": "proposeReceipt",
      "outputs": [],
      "stateMutability": "nonpayable",
      "type": "function"
    },
    {
      "inputs": [],
      "name": "renounceOwnership",
      "outputs": [],
      "stateMutability": "nonpayable",
      "type": "function"
    },
    {
      "inputs": [
        {
          "internalType": "bytes32",
          "name": "role",
          "type": "bytes32"
        },
        {
          "internalType": "address",
          "name": "callerConfirmation",
          "type": "address"
        }
      ],
      "name": "renounceRole",
      "outputs": [],
      "stateMutability": "nonpayable",
      "type": "function"
    },
    {
      "inputs": [
        {
          "internalType": "bytes32",
          "name": "_txId",
          "type": "bytes32"
        },
        {
          "internalType": "uint256",
          "name": "_tribunalIndex",
          "type": "uint256"
        },
        {
          "internalType": "bytes32",
          "name": "_voteHash",
          "type": "bytes32"
        },
        {
          "internalType": "enum ITransactions.VoteType",
          "name": "_voteType",
          "type": "uint8"
        },
        {
          "internalType": "bytes32",
          "name": "_otherExecutionFieldsHash",
          "type": "bytes32"
        },
        {
          "internalType": "uint256",
          "name": "_nonce",
          "type": "uint256"
        }
      ],
      "name": "revealTribunalAppealVote",
      "outputs": [],
      "stateMutability": "nonpayable",
      "type": "function"
    },
    {
      "inputs": [
        {
          "internalType": "bytes32",
          "name": "_txId",
          "type": "bytes32"
        },
        {
          "internalType": "bytes32",
          "name": "_voteHash",
          "type": "bytes32"
        },
        {
          "internalType": "enum ITransactions.VoteType",
          "name": "_voteType",
          "type": "uint8"
        },
        {
          "internalType": "bytes32",
          "name": "_otherExecutionFieldsHash",
          "type": "bytes32"
        },
        {
          "internalType": "uint256",
          "name": "_nonce",
          "type": "uint256"
        },
        {
          "internalType": "uint256",
          "name": "_validatorIndex",
          "type": "uint256"
        }
      ],
      "name": "revealVote",
      "outputs": [],
      "stateMutability": "nonpayable",
      "type": "function"
    },
    {
      "inputs": [
        {
          "internalType": "bytes32",
          "name": "role",
          "type": "bytes32"
        },
        {
          "internalType": "address",
          "name": "account",
          "type": "address"
        }
      ],
      "name": "revokeRole",
      "outputs": [],
      "stateMutability": "nonpayable",
      "type": "function"
    },
    {
      "inputs": [
        {
          "internalType": "string",
          "name": "moniker",
          "type": "string"
        },
        {
          "internalType": "string",
          "name": "logoUri",
          "type": "string"
        },
        {
          "internalType": "string",
          "name": "website",
          "type": "string"
        },
        {
          "internalType": "string",
          "name": "description",
          "type": "string"
        },
        {
          "internalType": "string",
          "name": "email",
          "type": "string"
        },
        {
          "internalType": "string",
          "name": "twitter",
          "type": "string"
        },
        {
          "internalType": "string",
          "name": "telegram",
          "type": "string"
        },
        {
          "internalType": "string",
          "name": "github",
          "type": "string"
        },
        {
          "internalType": "bytes",
          "name": "extraCid",
          "type": "bytes"
        }
      ],
      "name": "setIdentity",
      "outputs": [],
      "stateMutability": "nonpayable",
      "type": "function"
    },
    {
      "inputs": [
        {
          "internalType": "address",
          "name": "_operator",
          "type": "address"
        }
      ],
      "name": "setOperator",
      "outputs": [],
      "stateMutability": "nonpayable",
      "type": "function"
    },
    {
      "inputs": [],
      "name": "staking",
      "outputs": [
        {
          "internalType": "address",
          "name": "",
          "type": "address"
        }
      ],
      "stateMutability": "view",
      "type": "function"
    },
    {
      "inputs": [
        {
          "internalType": "bytes4",
          "name": "interfaceId",
          "type": "bytes4"
        }
      ],
      "name": "supportsInterface",
      "outputs": [
        {
          "internalType": "bool",
          "name": "",
          "type": "bool"
        }
      ],
      "stateMutability": "view",
      "type": "function"
    },
    {
      "inputs": [
        {
          "internalType": "address",
          "name": "newOwner",
          "type": "address"
        }
      ],
      "name": "transferOwnership",
      "outputs": [],
      "stateMutability": "nonpayable",
      "type": "function"
    },
    {
      "inputs": [],
      "name": "validatorClaim",
      "outputs": [],
      "stateMutability": "nonpayable",
      "type": "function"
    },
    {
      "inputs": [],
      "name": "validatorDeposit",
      "outputs": [],
      "stateMutability": "payable",
      "type": "function"
    },
    {
      "inputs": [
        {
          "internalType": "uint256",
          "name": "_shares",
          "type": "uint256"
        }
      ],
      "name": "validatorExit",
      "outputs": [],
      "stateMutability": "nonpayable",
      "type": "function"
    },
    {
      "stateMutability": "payable",
      "type": "receive"
    }
  ],
  "bytecode": "0x60808060405234601557612e1d908161001b8239f35b600080fdfe61012080604052600436101561001e575b50361561001c57600080fd5b005b600060c05260c0513560e01c90816301ffc9a7146122f05750806303d1491714611fa65780630a6c701b14611ecd5780630bf43c3814611d2f5780630c82d0e114611c3c5780631459457a14611a1a57806317d39980146119bd578063248a9ca3146119975780632c159a1a146118975780632f2ff15d1461186657806334e232671461184757806336568abe146117ff57806336afc6fa146116225780633bd15f701461157e5780634cf088d9146115545780634e7096281461099b578063570ca735146101fd578063715018a61461092b578063718cfed3146108d5578063759f24f4146108755780637707d838146106f957806385d2d2741461067e5780638da5cb5b146106475780638ef3f7611461061d57806391d14854146105c15780639e02760414610577578063a217fddf14610559578063aab85d64146104af578063ac7e534e14610485578063b3ab15fb14610406578063bb02061b146103e7578063c45a0155146103bd578063cbc2440a14610319578063d4f6aa9314610265578063d547741f14610228578063e7f43c68146101fd5763f2fde38b146101c85738610010565b346101f75760203660031901126101f7576101f16101e4612396565b6101ec612afa565b612acc565b60c05180f35b60c05180fd5b346101f75760c0513660031901126101f75760c051546040516001600160a01b039091168152602090f35b346101f75760403660031901126101f75761025e6004356102476123ac565b9061025961025482612a94565b612b86565b612c79565b5060c05180f35b346101f75760603660031901126101f75760c051546001600160a01b03163303610306576002546001600160a01b0316803b156101f7576040519063d4f6aa9360e01b82526004356004830152602435602483015260443560448301528160648160c0519360c051905af180156102f9576102e05760c05180f35b60c0516102ec91612375565b60c0516101f757806101f1565b6040513d60c051823e3d90fd5b631f0853c160e21b60c05152600460c051fd5b346101f75760c03660031901126101f75760643560058110156101f75760c051546001600160a01b03163303610306576002546001600160a01b0316803b156101f75761038f604051926365e1220560e11b84526004356004850152602435602485015260443560448501526064840190612a2d565b608435608483015260a43560a48301528160c48160c0519360c051905af180156102f9576102e05760c05180f35b346101f75760c0513660031901126101f7576001546040516001600160a01b039091168152602090f35b346101f75760c0513660031901126101f75760206040516202a3008152f35b346101f75760203660031901126101f75761041f612396565b610427612afa565b6001600160a01b0316801561047257600d80546001600160a01b031990811690915560c051600e819055805490911682178155600080516020612d688339815191529080a260c05180f35b63e6c4247b60e01b60c05152600460c051fd5b346101f75760c0513660031901126101f757600d546040516001600160a01b039091168152602090f35b346101f75760403660031901126101f7576024356001600160401b0381116101f7576104df903690600401612414565b60c051546001600160a01b03169133839003610306576002546001600160a01b0316803b156101f75761054193604051809581948293632958334360e21b8452600435600485015260248401526060604484015260c051966064840191612a50565b039160c051905af180156102f9576102e05760c05180f35b346101f75760c0513660031901126101f757602060405160c0518152f35b60c0513660031901126101f7576003546001600160a01b0316803b156101f757604051906327809d8160e21b82528160048160c0519334905af180156102f9576102e05760c05180f35b346101f75760403660031901126101f7576105da6123ac565b60043560c05152600080516020612d88833981519152602052604060c051209060018060a01b0316600052602052602060ff604060002054166040519015158152f35b346101f75760c0513660031901126101f7576002546040516001600160a01b039091168152602090f35b346101f75760c0513660031901126101f757600080516020612d48833981519152546040516001600160a01b039091168152602090f35b346101f75760603660031901126101f75760c051546001600160a01b03163303610306576002546001600160a01b0316803b156101f75760405190632174b49d60e21b82526004356004830152602435602483015260443560448301528160648160c0519360c051905af180156102f9576102e05760c05180f35b346101f75760c0513660031901126101f757610713612afa565b6002600080516020612da88339815191525414610862576002600080516020612da8833981519152556003546040516331b9e11160e01b815230600482015260c0519091602091839160249183916001600160a01b03165af180156102f95761082e575b5047806107c2575b60207fbf976dfdcc1bcb99d72a443a84fc204cbfac2908d212dca660b55863a92bdd0391604051908152a16001600080516020612da88339815191525560c05180f35b60c051600080516020612d488339815191525481908190819085906001600160a01b03165af13d15610829573d6107f8816123c2565b906108066040519283612375565b815260c0513d916020013e5b61077f576312171d8360e31b60c05152600460c051fd5b610812565b6020813d60201161085a575b8161084760209383612375565b810103126108555751610777565b600080fd5b3d915061083a565b633ee5aeb560e01b60c05152600460c051fd5b346101f75760203660031901126101f75761088e612afa565b6003546001600160a01b0316803b156101f75760405190631d67c93d60e21b825260043560048301528160248160c0519360c051905af180156102f9576102e05760c05180f35b346101f75760c0513660031901126101f757600d54600e546202a3008101916001600160a01b03169082106109135760409182519182526020820152f35b634e487b7160e01b60c051526011600452602460c051fd5b346101f75760c0513660031901126101f757610945612afa565b600080516020612d4883398151915280546001600160a01b0319811690915560c051906001600160a01b03167f8be0079c531659141344cd1fd0a4f28419497f9722a3daafe3b4186f6b6457e08280a360c05180f35b346101f7576101203660031901126101f7576004356001600160401b0381116101f7576109cc903690600401612414565b9060e0526024356001600160401b0381116101f7576109ef903690600401612414565b90610100526044356001600160401b0381116101f757610a13903690600401612414565b90926064356001600160401b0381116101f757610a34903690600401612414565b6084356001600160401b0381116101f757610a53903690600401612414565b91909360a4356001600160401b0381116101f757610a75903690600401612414565b949060c4356001600160401b0381116101f757610a96903690600401612414565b97909260e4356001600160401b0381116101f757610ab8903690600401612414565b6080529b610104356001600160401b0381116101f757610adc903690600401612414565b9c9096610ae7612afa565b60405160a05260a051610af990612343565b3660e05191610b07926123dd565b60a05152366101005191610b1a926123dd565b9a60a0516020019b8c523690610b2f926123dd565b9560a0516040019687523690610b44926123dd565b9560a0516060019687523690610b59926123dd565b9560a0516080019687523690610b6e926123dd565b9560a05160a0019687523690610b83926123dd565b9760a05160c00198895236608051610b9a926123dd565b9660a05160e0019788523690610baf926123dd565b9460a0516101000195865260a051518051906001600160401b038211610fe457610bda600454612441565b601f811161151f575b506020906001601f8411146114b357918091610c179360c051926114a8575b50508160011b916000199060031b1c19161790565b6004555b518051906001600160401b038211610fe457610c38600554612441565b601f8111611473575b506020906001601f84111461140757918091610c749360c051926113fc5750508160011b916000199060031b1c19161790565b6005555b518051906001600160401b038211610fe457610c95600654612441565b601f81116113c7575b506020906001601f84111461135b57918091610cd19360c051926113505750508160011b916000199060031b1c19161790565b6006555b518051906001600160401b038211610fe457610cf2600754612441565b601f811161131b575b506020906001601f8411146112af57918091610d2e9360c051926112a45750508160011b916000199060031b1c19161790565b6007555b518051906001600160401b038211610fe457610d4f600854612441565b601f811161126f575b506020906001601f84111461120357918091610d8b9360c051926111f85750508160011b916000199060031b1c19161790565b6008555b519283516001600160401b038111610fe457610dac600954612441565b601f81116111c3575b506020946001601f83111461115957610dea92939495829160c0519261114e5750508160011b916000199060031b1c19161790565b6009555b519182516001600160401b038111610fe457610e0b600a54612441565b601f8111611119575b5060206001601f8311146110af578190610e4793949560c051926110a45750508160011b916000199060031b1c19161790565b600a555b519081516001600160401b038111610fe457610e68600b54612441565b601f811161106f575b506020926001601f83111461100757610ea49293829160c05192610ffc5750508160011b916000199060031b1c19161790565b600b555b5180516001600160401b038111610fe457610ec4600c54612441565b601f8111610fa4575b506020916001601f831114610f3d57610eff92829160c05192610f325750508160011b916000199060031b1c19161790565b600c555b307fb01ce3352db8250e910be1c254a1a9fc249b00caf0a25b5b72ca70592023867e60c05160c051a260c05180f35b015190508380610c02565b601f19821692600c60c051528060c051209160c0515b858110610f8c57508360019510610f73575b505050811b01600c55610f03565b015160001960f88460031b161c19169055828080610f65565b91926020600181928685015181550194019201610f53565b610fd490600c60c05152602060c05120601f840160051c81019160208510610fda575b601f0160051c0190612ab5565b82610ecd565b9091508190610fc7565b634e487b7160e01b60c051526041600452602460c051fd5b015190508480610c02565b601f19821693600b60c051528060c051209160c0515b868110611057575083600195961061103e575b505050811b01600b55610ea8565b015160001960f88460031b161c19169055838080611030565b9192602060018192868501518155019401920161101d565b61109e90600b60c05152602060c05120601f840160051c81019160208510610fda57601f0160051c0190612ab5565b83610e71565b015190508580610c02565b601f19821690600a60c051528060c051209160c0515b818110611101575095836001959697106110e8575b505050811b01600a55610e4b565b015160001960f88460031b161c191690558480806110da565b9192602060018192868b0151815501940192016110c5565b61114890600a60c05152602060c05120601f840160051c81019160208510610fda57601f0160051c0190612ab5565b84610e14565b015190508680610c02565b601f19821695600960c051528060c051209160c0515b8881106111ab57508360019596979810611192575b505050811b01600955610dee565b015160001960f88460031b161c19169055858080611184565b9192602060018192868501518155019401920161116f565b6111f290600960c05152602060c05120601f840160051c81019160208510610fda57601f0160051c0190612ab5565b85610db5565b015190508780610c02565b90601f19831691600860c051528160c051209260c0515b818110611257575090846001959493921061123e575b505050811b01600855610d8f565b015160001960f88460031b161c19169055868080611230565b9293602060018192878601518155019501930161121a565b61129e90600860c05152602060c05120601f850160051c81019160208610610fda57601f0160051c0190612ab5565b86610d58565b015190508880610c02565b90601f19831691600760c051528160c051209260c0515b81811061130357509084600195949392106112ea575b505050811b01600755610d32565b015160001960f88460031b161c191690558780806112dc565b929360206001819287860151815501950193016112c6565b61134a90600760c05152602060c05120601f850160051c81019160208610610fda57601f0160051c0190612ab5565b87610cfb565b015190508980610c02565b90601f19831691600660c051528160c051209260c0515b8181106113af5750908460019594939210611396575b505050811b01600655610cd5565b015160001960f88460031b161c19169055888080611388565b92936020600181928786015181550195019301611372565b6113f690600660c05152602060c05120601f850160051c81019160208610610fda57601f0160051c0190612ab5565b88610c9e565b015190508a80610c02565b90601f19831691600560c051528160c051209260c0515b81811061145b5750908460019594939210611442575b505050811b01600555610c78565b015160001960f88460031b161c19169055898080611434565b9293602060018192878601518155019501930161141e565b6114a290600560c05152602060c05120601f850160051c81019160208610610fda57601f0160051c0190612ab5565b89610c41565b015190508b80610c02565b90601f19831691600460c051528160c051209260c0515b81811061150757509084600195949392106114ee575b505050811b01600455610c1b565b015160001960f88460031b161c191690558a80806114e0565b929360206001819287860151815501950193016114ca565b61154e90600460c05152602060c05120601f850160051c81019160208610610fda57601f0160051c0190612ab5565b8a610be3565b346101f75760c0513660031901126101f7576003546040516001600160a01b039091168152602090f35b346101f75760c03660031901126101f75760443560058110156101f75760c051546001600160a01b03163303610306576002546001600160a01b0316803b156101f7576115ec604051926303bd15f760e41b8452600435600485015260243560248501526044840190612a2d565b6064356064830152608435608483015260a43560a48301528160c48160c0519360c051905af180156102f9576102e05760c05180f35b346101f75760c0513660031901126101f75760405161164081612343565b60608152602081016060905260408101606090526060810160609052608081016060905260a081016060905260c081016060905260e0810160609052610100016060905260405161169081612343565b61169861247b565b81526116a2612534565b90602081019182526116b26125cb565b604082019081526116c1612662565b606083019081526116d06126f9565b608084019081526116df612790565b60a085019081526116ee612827565b9160c086019283526116fe6128be565b9360e0870194855261170e612955565b95610100880196875260405198899860208a525160208a0161012090526101408a01611739916129ec565b9051898203601f190160408b015261175191906129ec565b9051888203601f190160608a015261176991906129ec565b9051878203601f1901608089015261178191906129ec565b9051868203601f190160a088015261179991906129ec565b9051858203601f190160c08701526117b191906129ec565b9051848203601f190160e08601526117c991906129ec565b9051838203601f19016101008501526117e291906129ec565b9051828203601f19016101208401526117fb91906129ec565b0390f35b346101f75760403660031901126101f7576118186123ac565b336001600160a01b038216036118345761025e90600435612c79565b63334bd91960e11b60c05152600460c051fd5b346101f75760c0513660031901126101f7576020600e54604051908152f35b346101f75760403660031901126101f75761025e6004356118856123ac565b9061189261025482612a94565b612bd0565b346101f75760c0513660031901126101f7576118b161247b565b6118b9612534565b906118c26125cb565b6118ca612662565b6118d26126f9565b6118da612790565b6118e2612827565b916118eb6128be565b936118f4612955565b956040519889986101208a526101208a0161190e916129ec565b89810360208b015261191f916129ec565b88810360408a0152611930916129ec565b8781036060890152611941916129ec565b8681036080880152611952916129ec565b85810360a0870152611963916129ec565b84810360c0860152611974916129ec565b83810360e0850152611985916129ec565b8281036101008401526117fb916129ec565b346101f75760203660031901126101f75760206119b5600435612a94565b604051908152f35b346101f75760c0513660031901126101f7576119d7612afa565b600d80546001600160a01b031916905560c051600e81905533907eb334d48212744a72c175981c22526853650187117dd8a19a056744778e7bc79080a260c05180f35b346101f75760a03660031901126101f757611a33612396565b611a3b6123ac565b6044356001600160a01b038116908190036101f7576064356001600160a01b03811691908290036101f7576084356001600160a01b03811694908590036101f757600080516020612dc88339815191525460ff8160401c1615946001600160401b03821680159081611c34575b6001149081611c2a575b159081611c21575b50611c0e5767ffffffffffffffff198216600117600080516020612dc883398151915255611b319186611be1575b50611af1612d19565b611af9612d19565b611b0281612acc565b611b0a612d19565b611b12612d19565b611b1a612d19565b6001600080516020612da883398151915255612b30565b600180546001600160a01b03929092166001600160a01b031992831617905560c05180548216861781556003805483169390931790925560028054909116929092179091556040519290600080516020612d688339815191529080a2611b975760c05180f35b600080516020612dc8833981519152805460ff60401b19169055600181527fc7f505b2f371ae2175ee4913f4499e1f2633a7b5936321eed1cdaeb6115181d290602090a1806101f1565b68ffffffffffffffffff19166801000000000000000117600080516020612dc88339815191525587611ae8565b63f92ee8a960e01b60c05152600460c051fd5b90501588611aba565b303b159150611ab2565b879150611aa8565b346101f75760203660031901126101f757611c55612396565b611c5d612afa565b6001600160a01b0316801561047257600d80546001600160a01b0319168217905542600e5560c0515460015460405163b94a11ad60e01b81526001600160a01b0392831692909160209183916004918391165afa9081156102f95760c05191611cfc575b506020611cef7f376f4d5124ea9a3be8826cad46fe7d789be0cea83c1255f6af14117b2d91302c9242612a71565b604051908152a360c05180f35b90506020813d602011611d27575b81611d1760209383612375565b8101031261085557516020611cc1565b3d9150611d0a565b346101f75760c0513660031901126101f757600d546001600160a01b038116908115611eba57600e5460015460405163b94a11ad60e01b81529190602090839060049082906001600160a01b03165afa9081156102f95760c05191611e84575b611d999250612a71565b4210611e7157600080516020612d48833981519152546001600160a01b031633141580611e67575b611e315760c05180546001600160a01b031980821685178355909216600d55600e81905582916001600160a01b0316907fb428daa4a99df59aa0fffe20e760468dadadddabc368805b6c1ef723d37688249080a3600080516020612d6883398151915260c05160c051a260c05180f35b60405162461bcd60e51b815260206004820152600e60248201526d139bdd08185d5d1a1bdc9a5e995960921b6044820152606490fd5b5081331415611dc1565b636f273c8d60e11b60c05152600460c051fd5b90506020823d602011611eb2575b81611e9f60209383612375565b8101031261085557611d99915190611d8f565b3d9150611e92565b639c2af11f60e01b60c05152600460c051fd5b346101f75760a03660031901126101f7576064356001600160401b0381116101f757611efd903690600401612414565b6084356001600160401b0381116101f757611f1c903690600401612414565b92909160018060a01b0360c051541690813303610306576002546001600160a01b031691823b156101f757610541611f909660405197889687958695632af7cb7f60e01b8752600435600488015260243560248801526044356044880152606487015260c0608487015260c4860191612a50565b906003198483030160a485015260c05197612a50565b346101f75760203660031901126101f7576004356001600160401b0381116101f75760e060031982360301126101f75760405160e081018181106001600160401b03821117610fe4576040528160040135815260208101906024830135825260408101926044810135845260608201936064820135855260808301916084810135835260a48101359060058210156101f75760a0850191825260c4810135906001600160401b0382116101f7570192366023850112156101f7576004840135936001600160401b038511610fe4578460051b906040519561208a6020840188612375565b865260208601918101602401903682116101f75760248101925b828410612213575050505060c085810194855251546001600160a01b03163303610306576002546001600160a01b031696873b156101f75761212493604051976303d1491760e01b8952602060048a01526101048901975160248a01525160448901525160648801525160848701525160a48601525160c4850190612a2d565b519060e060e48401528151809152610124830160206101248360051b86010193019160c0515b8181106121815760c05186908180880381838c5af180156102f95761216f5760c05180f35b60c05161217b91612375565b806101f1565b9091929361012319868203018452845190815160028110156121fb576001928260209392849352848060a01b038383015116838201526040820151604082015260a0806121dd606085015160c0606086015260c08501906129ec565b6080808601511515908501529301519101529601940192910161214a565b634e487b7160e01b60c051526021600452602460c051fd5b83356001600160401b0381116101f75760049083010160c0601f1982360301126101f7576040519160c083018381106001600160401b03821117610fe457604052602082013560028110156101f757835260408201356001600160a01b03811681036101f75760208401526060820135604084015260808201356001600160401b0381116101f75760209083010136601f820112156101f7576122bd9036906020813591016123dd565b606084015260a08201359283151584036101f75760c06020949385946080840152013560a08201528152019301926120a4565b346101f75760203660031901126101f7576004359063ffffffff60e01b82168092036101f757602091637965db0b60e01b8114908115612332575b5015158152f35b6301ffc9a760e01b1490508361232b565b61012081019081106001600160401b0382111761235f57604052565b634e487b7160e01b600052604160045260246000fd5b90601f801991011681019081106001600160401b0382111761235f57604052565b600435906001600160a01b038216820361085557565b602435906001600160a01b038216820361085557565b6001600160401b03811161235f57601f01601f191660200190565b9291926123e9826123c2565b916123f76040519384612375565b829481845281830111610855578281602093846000960137010152565b9181601f84011215610855578235916001600160401b038311610855576020838186019501011161085557565b90600182811c92168015612471575b602083101461245b57565b634e487b7160e01b600052602260045260246000fd5b91607f1691612450565b604051906000826004549161248f83612441565b808352926001811690811561251557506001146124b5575b6124b392500383612375565b565b506004600090815290917f8a35acfbc15ff81a39ae7d344fd709f28e8600b4aa8c65c6b64bfe7fe36bd19b5b8183106124f95750509060206124b3928201016124a7565b60209193508060019154838589010152019101909184926124e1565b602092506124b394915060ff191682840152151560051b8201016124a7565b604051906000826005549161254883612441565b8083529260018116908115612515575060011461256b576124b392500383612375565b506005600090815290917f036b6384b5eca791c62761152d0c79bb0604c104a5fb6f4eb0703f3154bb3db05b8183106125af5750509060206124b3928201016124a7565b6020919350806001915483858901015201910190918492612597565b60405190600082600654916125df83612441565b80835292600181169081156125155750600114612602576124b392500383612375565b506006600090815290917ff652222313e28459528d920b65115c16c04f3efc82aaedc97be59f3f377c0d3f5b8183106126465750509060206124b3928201016124a7565b602091935080600191548385890101520191019091849261262e565b604051906000826007549161267683612441565b80835292600181169081156125155750600114612699576124b392500383612375565b506007600090815290917fa66cc928b5edb82af9bd49922954155ab7b0942694bea4ce44661d9a8736c6885b8183106126dd5750509060206124b3928201016124a7565b60209193508060019154838589010152019101909184926126c5565b604051906000826008549161270d83612441565b80835292600181169081156125155750600114612730576124b392500383612375565b506008600090815290917ff3f7a9fe364faab93b216da50a3214154f22a0a2b415b23a84c8169e8b636ee35b8183106127745750509060206124b3928201016124a7565b602091935080600191548385890101520191019091849261275c565b60405190600082600954916127a483612441565b808352926001811690811561251557506001146127c7576124b392500383612375565b506009600090815290917f6e1540171b6c0c960b71a7020d9f60077f6af931a8bbf590da0223dacf75c7af5b81831061280b5750509060206124b3928201016124a7565b60209193508060019154838589010152019101909184926127f3565b60405190600082600a549161283b83612441565b8083529260018116908115612515575060011461285e576124b392500383612375565b50600a600090815290917fc65a7bb8d6351c1cf70c95a316cc6a92839c986682d98bc35f958f4883f9d2a85b8183106128a25750509060206124b3928201016124a7565b602091935080600191548385890101520191019091849261288a565b60405190600082600b54916128d283612441565b808352926001811690811561251557506001146128f5576124b392500383612375565b50600b600090815290917f0175b7a638427703f0dbe7bb9bbf987a2551717b34e79f33b5b1008d1fa01db95b8183106129395750509060206124b3928201016124a7565b6020919350806001915483858901015201910190918492612921565b60405190600082600c549161296983612441565b8083529260018116908115612515575060011461298c576124b392500383612375565b50600c600090815290917fdf6966c971051c3d54ec59162606531493a51404a002842f56009d7e5cf4a8c75b8183106129d05750509060206124b3928201016124a7565b60209193508060019154838589010152019101909184926129b8565b919082519283825260005b848110612a18575050826000602080949584010152601f8019910116010190565b806020809284010151828286010152016129f7565b906005821015612a3a5752565b634e487b7160e01b600052602160045260246000fd5b908060209392818452848401376000828201840152601f01601f1916010190565b91908201809211612a7e57565b634e487b7160e01b600052601160045260246000fd5b600052600080516020612d8883398151915260205260016040600020015490565b818110612ac0575050565b60008155600101612ab5565b6001600160a01b03811615612ae4576124b390612b30565b631e4fbdf760e01b600052600060045260246000fd5b600080516020612d48833981519152546001600160a01b03163303612b1b57565b63118cdaa760e01b6000523360045260246000fd5b600080516020612d4883398151915280546001600160a01b039283166001600160a01b0319821681179092559091167f8be0079c531659141344cd1fd0a4f28419497f9722a3daafe3b4186f6b6457e0600080a3565b6000818152600080516020612d888339815191526020908152604080832033845290915290205460ff1615612bb85750565b63e2517d3f60e01b6000523360045260245260446000fd5b6000818152600080516020612d88833981519152602090815260408083206001600160a01b038616845290915290205460ff16612c72576000818152600080516020612d88833981519152602090815260408083206001600160a01b0395909516808452949091528120805460ff19166001179055339291907f2f8788117e7eff1d82e926ec794901d17c78024a50270940304540a733656f0d9080a4600190565b5050600090565b6000818152600080516020612d88833981519152602090815260408083206001600160a01b038616845290915290205460ff1615612c72576000818152600080516020612d88833981519152602090815260408083206001600160a01b0395909516808452949091528120805460ff19169055339291907ff6391f5c32d9c69d2a47ea670b442974b53935d1edc7fd64eb21e047a839171b9080a4600190565b60ff600080516020612dc88339815191525460401c1615612d3657565b631afcd79f60e31b60005260046000fdfe9016d09d72d40fdae2fd8ceac6b6234c7706214fd39c1cd1e609a0528c19930099d737e0adf2c449d71890b86772885ec7959b152ddb265f76325b6e68e105d302dd7bc7dec4dceedda775e58dd541e08a116c6c53815c0bd028192f7b6268009b779b17422d0df92223018b32b4d1fa46e071723d6817e2486d003becc55f00f0c57e16840df040f15088dc2f81fe391c3923bec73e23a9662efc9c229c6a00a26469706673582212203ed355eb0187ec2d87e3bff1e81168d74b8e15d91c4e5c08348720e5eb8dd43d64736f6c634300081c0033",
  "linkReferences": {},
  "deployedLinkReferences": {}
}