{
  "_format": "hh-sol-artifact-1",
  "contractName": "StakingValidators",
  "sourceName": "contracts/staking/StakingValidators.sol",
  "abi": [
    {
      "inputs": [],
      "name": "AccessControlBadConfirmation",
      "type": "error"
    },
    {
      "inputs": [
        {
          "internalType": "address",
          "name": "account",
          "type": "address"
        },
        {
          "internalType": "bytes32",
          "name": "neededRole",
          "type": "bytes32"
        }
      ],
      "name": "AccessControlUnauthorizedAccount",
      "type": "error"
    },
    {
      "inputs": [],
      "name": "ArrayLengthMismatch",
      "type": "error"
    },
    {
      "inputs": [
        {
          "internalType": "address",
          "name": "validator",
          "type": "address"
        }
      ],
      "name": "FailedTransfer",
      "type": "error"
    },
    {
      "inputs": [],
      "name": "InvalidInitialization",
      "type": "error"
    },
    {
      "inputs": [],
      "name": "InvalidOperatorAddress",
      "type": "error"
    },
    {
      "inputs": [],
      "name": "MaxNumberOfValidatorsReached",
      "type": "error"
    },
    {
      "inputs": [],
      "name": "NotInitializing",
      "type": "error"
    },
    {
      "inputs": [],
      "name": "OperatorAlreadyAssigned",
      "type": "error"
    },
    {
      "inputs": [
        {
          "internalType": "address",
          "name": "owner",
          "type": "address"
        }
      ],
      "name": "OwnableInvalidOwner",
      "type": "error"
    },
    {
      "inputs": [
        {
          "internalType": "address",
          "name": "account",
          "type": "address"
        }
      ],
      "name": "OwnableUnauthorizedAccount",
      "type": "error"
    },
    {
      "inputs": [],
      "name": "ReentrancyGuardReentrantCall",
      "type": "error"
    },
    {
      "inputs": [],
      "name": "ValidatorBelowMinimumStake",
      "type": "error"
    },
    {
      "inputs": [],
      "name": "ValidatorDoesNotExist",
      "type": "error"
    },
    {
      "inputs": [],
      "name": "ValidatorMayNotDepositZeroValue",
      "type": "error"
    },
    {
      "anonymous": false,
      "inputs": [
        {
          "indexed": false,
          "internalType": "address",
          "name": "validator",
          "type": "address"
        },
        {
          "indexed": false,
          "internalType": "uint256",
          "name": "newVStake",
          "type": "uint256"
        },
        {
          "indexed": false,
          "internalType": "bool",
          "name": "recordX",
          "type": "bool"
        }
      ],
      "name": "AdminStakeCorrected",
      "type": "event"
    },
    {
      "anonymous": false,
      "inputs": [
        {
          "indexed": false,
          "internalType": "uint64",
          "name": "version",
          "type": "uint64"
        }
      ],
      "name": "Initialized",
      "type": "event"
    },
    {
      "anonymous": false,
      "inputs": [
        {
          "indexed": true,
          "internalType": "address",
          "name": "previousOwner",
          "type": "address"
        },
        {
          "indexed": true,
          "internalType": "address",
          "name": "newOwner",
          "type": "address"
        }
      ],
      "name": "OwnershipTransferStarted",
      "type": "event"
    },
    {
      "anonymous": false,
      "inputs": [
        {
          "indexed": true,
          "internalType": "address",
          "name": "previousOwner",
          "type": "address"
        },
        {
          "indexed": true,
          "internalType": "address",
          "name": "newOwner",
          "type": "address"
        }
      ],
      "name": "OwnershipTransferred",
      "type": "event"
    },
    {
      "anonymous": false,
      "inputs": [
        {
          "indexed": true,
          "internalType": "bytes32",
          "name": "role",
          "type": "bytes32"
        },
        {
          "indexed": true,
          "internalType": "bytes32",
          "name": "previousAdminRole",
          "type": "bytes32"
        },
        {
          "indexed": true,
          "internalType": "bytes32",
          "name": "newAdminRole",
          "type": "bytes32"
        }
      ],
      "name": "RoleAdminChanged",
      "type": "event"
    },
    {
      "anonymous": false,
      "inputs": [
        {
          "indexed": true,
          "internalType": "bytes32",
          "name": "role",
          "type": "bytes32"
        },
        {
          "indexed": true,
          "internalType": "address",
          "name": "account",
          "type": "address"
        },
        {
          "indexed": true,
          "internalType": "address",
          "name": "sender",
          "type": "address"
        }
      ],
      "name": "RoleGranted",
      "type": "event"
    },
    {
      "anonymous": false,
      "inputs": [
        {
          "indexed": true,
          "internalType": "bytes32",
          "name": "role",
          "type": "bytes32"
        },
        {
          "indexed": true,
          "internalType": "address",
          "name": "account",
          "type": "address"
        },
        {
          "indexed": true,
          "internalType": "address",
          "name": "sender",
          "type": "address"
        }
      ],
      "name": "RoleRevoked",
      "type": "event"
    },
    {
      "anonymous": false,
      "inputs": [
        {
          "indexed": true,
          "internalType": "address",
          "name": "validator",
          "type": "address"
        }
      ],
      "name": "ValidatorIsAlreadyInTree",
      "type": "event"
    },
    {
      "anonymous": false,
      "inputs": [
        {
          "indexed": true,
          "internalType": "address",
          "name": "validator",
          "type": "address"
        }
      ],
      "name": "ValidatorIsNotInTree",
      "type": "event"
    },
    {
      "anonymous": false,
      "inputs": [
        {
          "indexed": false,
          "internalType": "address",
          "name": "operator",
          "type": "address"
        },
        {
          "indexed": false,
          "internalType": "address",
          "name": "validator",
          "type": "address"
        },
        {
          "indexed": false,
          "internalType": "uint256",
          "name": "amount",
          "type": "uint256"
        }
      ],
      "name": "ValidatorJoin",
      "type": "event"
    },
    {
      "inputs": [],
      "name": "DEFAULT_ADMIN_ROLE",
      "outputs": [
        {
          "internalType": "bytes32",
          "name": "",
          "type": "bytes32"
        }
      ],
      "stateMutability": "view",
      "type": "function"
    },
    {
      "inputs": [],
      "name": "DEFAULT_DELEGATOR_MIN_STAKE",
      "outputs": [
        {
          "internalType": "uint256",
          "name": "",
          "type": "uint256"
        }
      ],
      "stateMutability": "view",
      "type": "function"
    },
    {
      "inputs": [],
      "name": "DEFAULT_VALIDATOR_MIN_STAKE",
      "outputs": [
        {
          "internalType": "uint256",
          "name": "",
          "type": "uint256"
        }
      ],
      "stateMutability": "view",
      "type": "function"
    },
    {
      "inputs": [],
      "name": "DELEGATOR_UNBONDING_PERIOD",
      "outputs": [
        {
          "internalType": "uint256",
          "name": "",
          "type": "uint256"
        }
      ],
      "stateMutability": "view",
      "type": "function"
    },
    {
      "inputs": [],
      "name": "INFLATION_BASE",
      "outputs": [
        {
          "internalType": "uint256",
          "name": "",
          "type": "uint256"
        }
      ],
      "stateMutability": "view",
      "type": "function"
    },
    {
      "inputs": [],
      "name": "INFLATION_DEEPTHOUGHT_BPS",
      "outputs": [
        {
          "internalType": "uint256",
          "name": "",
          "type": "uint256"
        }
      ],
      "stateMutability": "view",
      "type": "function"
    },
    {
      "inputs": [],
      "name": "INFLATION_DEVELOPER_BPS",
      "outputs": [
        {
          "internalType": "uint256",
          "name": "",
          "type": "uint256"
        }
      ],
      "stateMutability": "view",
      "type": "function"
    },
    {
      "inputs": [],
      "name": "INFLATION_FINAL",
      "outputs": [
        {
          "internalType": "uint256",
          "name": "",
          "type": "uint256"
        }
      ],
      "stateMutability": "view",
      "type": "function"
    },
    {
      "inputs": [],
      "name": "INFLATION_INITIAL",
      "outputs": [
        {
          "internalType": "uint256",
          "name": "",
          "type": "uint256"
        }
      ],
      "stateMutability": "view",
      "type": "function"
    },
    {
      "inputs": [],
      "name": "INFLATION_MID",
      "outputs": [
        {
          "internalType": "int256",
          "name": "",
          "type": "int256"
        }
      ],
      "stateMutability": "view",
      "type": "function"
    },
    {
      "inputs": [],
      "name": "INFLATION_STAKER_BPS",
      "outputs": [
        {
          "internalType": "uint256",
          "name": "",
          "type": "uint256"
        }
      ],
      "stateMutability": "view",
      "type": "function"
    },
    {
      "inputs": [],
      "name": "INFLATION_STEEPNESS",
      "outputs": [
        {
          "internalType": "int256",
          "name": "",
          "type": "int256"
        }
      ],
      "stateMutability": "view",
      "type": "function"
    },
    {
      "inputs": [],
      "name": "INFLATION_VALIDATOR_BPS",
      "outputs": [
        {
          "internalType": "uint256",
          "name": "",
          "type": "uint256"
        }
      ],
      "stateMutability": "view",
      "type": "function"
    },
    {
      "inputs": [],
      "name": "L1_MESSENGER",
      "outputs": [
        {
          "internalType": "contract IL1Messenger",
          "name": "",
          "type": "address"
        }
      ],
      "stateMutability": "view",
      "type": "function"
    },
    {
      "inputs": [],
      "name": "QUARANTINE_MANAGER_ROLE",
      "outputs": [
        {
          "internalType": "bytes32",
          "name": "",
          "type": "bytes32"
        }
      ],
      "stateMutability": "view",
      "type": "function"
    },
    {
      "inputs": [],
      "name": "SLASH_CALLER_INCENTIVE_BPS",
      "outputs": [
        {
          "internalType": "uint256",
          "name": "",
          "type": "uint256"
        }
      ],
      "stateMutability": "view",
      "type": "function"
    },
    {
      "inputs": [],
      "name": "VALIDATOR_UNBONDING_PERIOD",
      "outputs": [
        {
          "internalType": "uint256",
          "name": "",
          "type": "uint256"
        }
      ],
      "stateMutability": "view",
      "type": "function"
    },
    {
      "inputs": [],
      "name": "acceptOwnership",
      "outputs": [],
      "stateMutability": "nonpayable",
      "type": "function"
    },
    {
      "inputs": [],
      "name": "addressManager",
      "outputs": [
        {
          "internalType": "contract IAddressManager",
          "name": "",
          "type": "address"
        }
      ],
      "stateMutability": "view",
      "type": "function"
    },
    {
      "inputs": [
        {
          "internalType": "address",
          "name": "_validator",
          "type": "address"
        },
        {
          "internalType": "uint256",
          "name": "_correctVStake",
          "type": "uint256"
        },
        {
          "internalType": "bool",
          "name": "_recordX",
          "type": "bool"
        }
      ],
      "name": "adminCorrectValidatorStake",
      "outputs": [],
      "stateMutability": "nonpayable",
      "type": "function"
    },
    {
      "inputs": [
        {
          "internalType": "address[]",
          "name": "_validators",
          "type": "address[]"
        },
        {
          "internalType": "uint256[]",
          "name": "_correctVStakes",
          "type": "uint256[]"
        },
        {
          "internalType": "bool[]",
          "name": "_recordX",
          "type": "bool[]"
        }
      ],
      "name": "adminCorrectValidatorStakes",
      "outputs": [],
      "stateMutability": "nonpayable",
      "type": "function"
    },
    {
      "inputs": [],
      "name": "burning",
      "outputs": [
        {
          "internalType": "uint256",
          "name": "",
          "type": "uint256"
        }
      ],
      "stateMutability": "view",
      "type": "function"
    },
    {
      "inputs": [],
      "name": "deepthought",
      "outputs": [
        {
          "internalType": "address payable",
          "name": "",
          "type": "address"
        }
      ],
      "stateMutability": "view",
      "type": "function"
    },
    {
      "inputs": [],
      "name": "delegatorMinStake",
      "outputs": [
        {
          "internalType": "uint256",
          "name": "",
          "type": "uint256"
        }
      ],
      "stateMutability": "view",
      "type": "function"
    },
    {
      "inputs": [],
      "name": "epoch",
      "outputs": [
        {
          "internalType": "uint256",
          "name": "",
          "type": "uint256"
        }
      ],
      "stateMutability": "view",
      "type": "function"
    },
    {
      "inputs": [],
      "name": "epochEven",
      "outputs": [
        {
          "internalType": "uint256",
          "name": "start",
          "type": "uint256"
        },
        {
          "internalType": "uint256",
          "name": "end",
          "type": "uint256"
        },
        {
          "internalType": "uint256",
          "name": "inflation",
          "type": "uint256"
        },
        {
          "internalType": "uint256",
          "name": "weight",
          "type": "uint256"
        },
        {
          "internalType": "uint256",
          "name": "weightDeposit",
          "type": "uint256"
        },
        {
          "internalType": "uint256",
          "name": "weightWithdrawal",
          "type": "uint256"
        },
        {
          "internalType": "uint256",
          "name": "vcount",
          "type": "uint256"
        },
        {
          "internalType": "uint256",
          "name": "claimed",
          "type": "uint256"
        },
        {
          "internalType": "uint256",
          "name": "stakeDeposit",
          "type": "uint256"
        },
        {
          "internalType": "uint256",
          "name": "stakeWithdrawal",
          "type": "uint256"
        },
        {
          "internalType": "uint256",
          "name": "slashed",
          "type": "uint256"
        }
      ],
      "stateMutability": "view",
      "type": "function"
    },
    {
      "inputs": [],
      "name": "epochExtraMinDuration",
      "outputs": [
        {
          "internalType": "uint256",
          "name": "",
          "type": "uint256"
        }
      ],
      "stateMutability": "view",
      "type": "function"
    },
    {
      "inputs": [],
      "name": "epochMinDuration",
      "outputs": [
        {
          "internalType": "uint256",
          "name": "",
          "type": "uint256"
        }
      ],
      "stateMutability": "view",
      "type": "function"
    },
    {
      "inputs": [],
      "name": "epochMinDurationThreshold",
      "outputs": [
        {
          "internalType": "uint256",
          "name": "",
          "type": "uint256"
        }
      ],
      "stateMutability": "view",
      "type": "function"
    },
    {
      "inputs": [],
      "name": "epochOdd",
      "outputs": [
        {
          "internalType": "uint256",
          "name": "start",
          "type": "uint256"
        },
        {
          "internalType": "uint256",
          "name": "end",
          "type": "uint256"
        },
        {
          "internalType": "uint256",
          "name": "inflation",
          "type": "uint256"
        },
        {
          "internalType": "uint256",
          "name": "weight",
          "type": "uint256"
        },
        {
          "internalType": "uint256",
          "name": "weightDeposit",
          "type": "uint256"
        },
        {
          "internalType": "uint256",
          "name": "weightWithdrawal",
          "type": "uint256"
        },
        {
          "internalType": "uint256",
          "name": "vcount",
          "type": "uint256"
        },
        {
          "internalType": "uint256",
          "name": "claimed",
          "type": "uint256"
        },
        {
          "internalType": "uint256",
          "name": "stakeDeposit",
          "type": "uint256"
        },
        {
          "internalType": "uint256",
          "name": "stakeWithdrawal",
          "type": "uint256"
        },
        {
          "internalType": "uint256",
          "name": "slashed",
          "type": "uint256"
        }
      ],
      "stateMutability": "view",
      "type": "function"
    },
    {
      "inputs": [],
      "name": "epochZeroMinDuration",
      "outputs": [
        {
          "internalType": "uint256",
          "name": "",
          "type": "uint256"
        }
      ],
      "stateMutability": "view",
      "type": "function"
    },
    {
      "inputs": [],
      "name": "finalizationPhaseAddress",
      "outputs": [
        {
          "internalType": "address",
          "name": "",
          "type": "address"
        }
      ],
      "stateMutability": "view",
      "type": "function"
    },
    {
      "inputs": [],
      "name": "finalized",
      "outputs": [
        {
          "internalType": "uint256",
          "name": "",
          "type": "uint256"
        }
      ],
      "stateMutability": "view",
      "type": "function"
    },
    {
      "inputs": [
        {
          "internalType": "bytes32",
          "name": "role",
          "type": "bytes32"
        }
      ],
      "name": "getRoleAdmin",
      "outputs": [
        {
          "internalType": "bytes32",
          "name": "",
          "type": "bytes32"
        }
      ],
      "stateMutability": "view",
      "type": "function"
    },
    {
      "inputs": [
        {
          "internalType": "bytes32",
          "name": "role",
          "type": "bytes32"
        },
        {
          "internalType": "address",
          "name": "account",
          "type": "address"
        }
      ],
      "name": "grantRole",
      "outputs": [],
      "stateMutability": "nonpayable",
      "type": "function"
    },
    {
      "inputs": [
        {
          "internalType": "bytes32",
          "name": "role",
          "type": "bytes32"
        },
        {
          "internalType": "address",
          "name": "account",
          "type": "address"
        }
      ],
      "name": "hasRole",
      "outputs": [
        {
          "internalType": "bool",
          "name": "",
          "type": "bool"
        }
      ],
      "stateMutability": "view",
      "type": "function"
    },
    {
      "inputs": [],
      "name": "idlenessPhaseAddress",
      "outputs": [
        {
          "internalType": "address",
          "name": "",
          "type": "address"
        }
      ],
      "stateMutability": "view",
      "type": "function"
    },
    {
      "inputs": [],
      "name": "inflationEpoch",
      "outputs": [
        {
          "internalType": "uint256",
          "name": "",
          "type": "uint256"
        }
      ],
      "stateMutability": "view",
      "type": "function"
    },
    {
      "inputs": [],
      "name": "inflationRequestThreshold",
      "outputs": [
        {
          "internalType": "uint256",
          "name": "",
          "type": "uint256"
        }
      ],
      "stateMutability": "view",
      "type": "function"
    },
    {
      "inputs": [
        {
          "internalType": "uint256",
          "name": "",
          "type": "uint256"
        }
      ],
      "name": "inflationRequested",
      "outputs": [
        {
          "internalType": "bool",
          "name": "",
          "type": "bool"
        }
      ],
      "stateMutability": "view",
      "type": "function"
    },
    {
      "inputs": [],
      "name": "inflationSupply",
      "outputs": [
        {
          "internalType": "uint256",
          "name": "",
          "type": "uint256"
        }
      ],
      "stateMutability": "view",
      "type": "function"
    },
    {
      "inputs": [],
      "name": "inflationTargetAhead",
      "outputs": [
        {
          "internalType": "uint256",
          "name": "",
          "type": "uint256"
        }
      ],
      "stateMutability": "view",
      "type": "function"
    },
    {
      "inputs": [],
      "name": "l2GasLimit",
      "outputs": [
        {
          "internalType": "uint256",
          "name": "",
          "type": "uint256"
        }
      ],
      "stateMutability": "view",
      "type": "function"
    },
    {
      "inputs": [],
      "name": "l2GasPrice",
      "outputs": [
        {
          "internalType": "uint256",
          "name": "",
          "type": "uint256"
        }
      ],
      "stateMutability": "view",
      "type": "function"
    },
    {
      "inputs": [],
      "name": "maxValidators",
      "outputs": [
        {
          "internalType": "uint256",
          "name": "",
          "type": "uint256"
        }
      ],
      "stateMutability": "view",
      "type": "function"
    },
    {
      "inputs": [
        {
          "internalType": "address",
          "name": "",
          "type": "address"
        }
      ],
      "name": "operatorsToValidators",
      "outputs": [
        {
          "internalType": "address",
          "name": "",
          "type": "address"
        }
      ],
      "stateMutability": "view",
      "type": "function"
    },
    {
      "inputs": [],
      "name": "owner",
      "outputs": [
        {
          "internalType": "address",
          "name": "",
          "type": "address"
        }
      ],
      "stateMutability": "view",
      "type": "function"
    },
    {
      "inputs": [],
      "name": "pendingOwner",
      "outputs": [
        {
          "internalType": "address",
          "name": "",
          "type": "address"
        }
      ],
      "stateMutability": "view",
      "type": "function"
    },
    {
      "inputs": [],
      "name": "pendingRequestInflationFromL1",
      "outputs": [
        {
          "internalType": "bool",
          "name": "",
          "type": "bool"
        }
      ],
      "stateMutability": "view",
      "type": "function"
    },
    {
      "inputs": [],
      "name": "reductionFactor",
      "outputs": [
        {
          "internalType": "uint256",
          "name": "",
          "type": "uint256"
        }
      ],
      "stateMutability": "view",
      "type": "function"
    },
    {
      "inputs": [],
      "name": "renounceOwnership",
      "outputs": [],
      "stateMutability": "nonpayable",
      "type": "function"
    },
    {
      "inputs": [
        {
          "internalType": "bytes32",
          "name": "role",
          "type": "bytes32"
        },
        {
          "internalType": "address",
          "name": "callerConfirmation",
          "type": "address"
        }
      ],
      "name": "renounceRole",
      "outputs": [],
      "stateMutability": "nonpayable",
      "type": "function"
    },
    {
      "inputs": [],
      "name": "revealingPhaseAddress",
      "outputs": [
        {
          "internalType": "address",
          "name": "",
          "type": "address"
        }
      ],
      "stateMutability": "view",
      "type": "function"
    },
    {
      "inputs": [
        {
          "internalType": "bytes32",
          "name": "role",
          "type": "bytes32"
        },
        {
          "internalType": "address",
          "name": "account",
          "type": "address"
        }
      ],
      "name": "revokeRole",
      "outputs": [],
      "stateMutability": "nonpayable",
      "type": "function"
    },
    {
      "inputs": [],
      "name": "stakingInvariant",
      "outputs": [
        {
          "internalType": "address",
          "name": "",
          "type": "address"
        }
      ],
      "stateMutability": "view",
      "type": "function"
    },
    {
      "inputs": [
        {
          "internalType": "bytes4",
          "name": "interfaceId",
          "type": "bytes4"
        }
      ],
      "name": "supportsInterface",
      "outputs": [
        {
          "internalType": "bool",
          "name": "",
          "type": "bool"
        }
      ],
      "stateMutability": "view",
      "type": "function"
    },
    {
      "inputs": [],
      "name": "transactionFeesManager",
      "outputs": [
        {
          "internalType": "address",
          "name": "",
          "type": "address"
        }
      ],
      "stateMutability": "view",
      "type": "function"
    },
    {
      "inputs": [
        {
          "internalType": "address",
          "name": "newOwner",
          "type": "address"
        }
      ],
      "name": "transferOwnership",
      "outputs": [],
      "stateMutability": "nonpayable",
      "type": "function"
    },
    {
      "inputs": [
        {
          "internalType": "address",
          "name": "_validator",
          "type": "address"
        }
      ],
      "name": "validatorClaim",
      "outputs": [
        {
          "internalType": "uint256",
          "name": "",
          "type": "uint256"
        }
      ],
      "stateMutability": "nonpayable",
      "type": "function"
    },
    {
      "inputs": [
        {
          "internalType": "address",
          "name": "_validator",
          "type": "address"
        }
      ],
      "name": "validatorClean",
      "outputs": [],
      "stateMutability": "nonpayable",
      "type": "function"
    },
    {
      "inputs": [],
      "name": "validatorDeposit",
      "outputs": [],
      "stateMutability": "payable",
      "type": "function"
    },
    {
      "inputs": [
        {
          "internalType": "uint256",
          "name": "_sharesWithdrawal",
          "type": "uint256"
        }
      ],
      "name": "validatorExit",
      "outputs": [],
      "stateMutability": "nonpayable",
      "type": "function"
    },
    {
      "inputs": [
        {
          "internalType": "address",
          "name": "validatorAddress",
          "type": "address"
        }
      ],
      "name": "validatorInsertedInTree",
      "outputs": [
        {
          "internalType": "uint256",
          "name": "timestamp",
          "type": "uint256"
        }
      ],
      "stateMutability": "view",
      "type": "function"
    },
    {
      "inputs": [
        {
          "internalType": "address",
          "name": "_operator",
          "type": "address"
        }
      ],
      "name": "validatorJoin",
      "outputs": [
        {
          "internalType": "address",
          "name": "validator",
          "type": "address"
        }
      ],
      "stateMutability": "payable",
      "type": "function"
    },
    {
      "inputs": [],
      "name": "validatorJoin",
      "outputs": [
        {
          "internalType": "address",
          "name": "validator",
          "type": "address"
        }
      ],
      "stateMutability": "payable",
      "type": "function"
    },
    {
      "inputs": [],
      "name": "validatorMinStake",
      "outputs": [
        {
          "internalType": "uint256",
          "name": "",
          "type": "uint256"
        }
      ],
      "stateMutability": "view",
      "type": "function"
    },
    {
      "inputs": [
        {
          "internalType": "address",
          "name": "_validator",
          "type": "address"
        }
      ],
      "name": "validatorPrime",
      "outputs": [],
      "stateMutability": "nonpayable",
      "type": "function"
    },
    {
      "inputs": [
        {
          "internalType": "address",
          "name": "validatorAddress",
          "type": "address"
        }
      ],
      "name": "validatorRemovedFromTheTree",
      "outputs": [
        {
          "internalType": "uint256",
          "name": "timestamp",
          "type": "uint256"
        }
      ],
      "stateMutability": "view",
      "type": "function"
    },
    {
      "inputs": [
        {
          "internalType": "uint256",
          "name": "",
          "type": "uint256"
        }
      ],
      "name": "validatorsEven",
      "outputs": [
        {
          "internalType": "address",
          "name": "",
          "type": "address"
        }
      ],
      "stateMutability": "view",
      "type": "function"
    },
    {
      "inputs": [
        {
          "internalType": "uint256",
          "name": "",
          "type": "uint256"
        }
      ],
      "name": "validatorsJoined",
      "outputs": [
        {
          "internalType": "address",
          "name": "",
          "type": "address"
        }
      ],
      "stateMutability": "view",
      "type": "function"
    },
    {
      "inputs": [
        {
          "internalType": "uint256",
          "name": "",
          "type": "uint256"
        }
      ],
      "name": "validatorsOdd",
      "outputs": [
        {
          "internalType": "address",
          "name": "",
          "type": "address"
        }
      ],
      "stateMutability": "view",
      "type": "function"
    },
    {
      "inputs": [
        {
          "internalType": "uint256",
          "name": "",
          "type": "uint256"
        }
      ],
      "name": "weightsEven",
      "outputs": [
        {
          "internalType": "uint256",
          "name": "",
          "type": "uint256"
        }
      ],
      "stateMutability": "view",
      "type": "function"
    },
    {
      "inputs": [
        {
          "internalType": "uint256",
          "name": "",
          "type": "uint256"
        }
      ],
      "name": "weightsOdd",
      "outputs": [
        {
          "internalType": "uint256",
          "name": "",
          "type": "uint256"
        }
      ],
      "stateMutability": "view",
      "type": "function"
    }
  ],
  "bytecode": "0x608080604052346015576128ea908161001b8239f35b600080fdfe6080604052600436101561001257600080fd5b60003560e01c806301fe0a78146104a257806301ffc9a71461049d57806308ac5256146104985780630a3cfb13146104935780630ab07e881461048e5780631538faf21461048957806318a3b882146104845780631bc2359a1461047f578063217fcc3e146103e45780632272e0ab1461047a57806324147f671461047557806324488f571461047057806324840a5e1461046b578063248a9ca31461046657806326ed4c70146104615780632f2ff15d1461045c57806330ebe4681461045757806331b9e1111461045257806336568abe1461044d5780633ab76e9f146104485780633edae64a146104435780633fde6d7b1461043e57806344aa3ded146104395780634971ec02146104345780634c12b33f1461042f5780634f2938fc1461042a578063624a4485146104255780636378eba31461042057806367604d271461041b578063715018a614610416578063746e4ac7146104115780637492100f1461040c578063759f24f414610407578063790849531461040257806379ba5097146103fd5780637a5d2660146103f85780637e1233a9146103f357806383772595146103ee57806387e51da9146103e95780638b7e92a6146103e45780638da5cb5b146103df578063900cf0cf146103da578063900fd9ce146103d557806391d14854146103d057806396be02a7146103cb5780639ae36685146103c65780639d357fd8146103c15780639e027604146103bc578063a01ebaa1146103b7578063a217fddf146103b2578063a8027c10146103ad578063abfd6fa9146103a8578063ac78a04b146103a3578063b03df1f01461039e578063b3f05b9714610399578063bc338e7f14610394578063c0a604ad1461038f578063c498c95b1461038a578063cb17452f14610385578063cd38347f14610380578063cd8562351461037b578063cf6e65b714610376578063d547741f14610371578063d7ef35441461036c578063da7a9b6a14610367578063de8eec6414610362578063e30c39781461035d578063e3c6b0ca14610358578063f2fde38b14610353578063f85683ef1461034e578063fafebac514610349578063fb6fe776146103445763fe2761371461033f57600080fd5b6118dd565b611882565b61183c565b611813565b611788565b61176a565b611734565b61170b565b6116ed565b6116c4565b611690565b611672565b611654565b61162d565b6115f2565b6115cd565b6115af565b611593565b611575565b611530565b611513565b6114ef565b6114cc565b6114b0565b61148c565b6113f4565b6113b7565b611399565b611353565b6112a4565b611253565b611235565b6111ff565b61066c565b6111a4565b611187565b61116a565b611141565b6110a0565b610ff5565b610dde565b610dbc565b610d6b565b610cf9565b610cdb565b610cbd565b610c9f565b610c76565b610c58565b610c35565b610bf8565b610bda565b610b15565b610ae2565b610a98565b610998565b610981565b610946565b610923565b6108fd565b6108d4565b6106f6565b6106a7565b610689565b61064e565b61061d565b6105ff565b6105e1565b610586565b610552565b6104f1565b6104bd565b6001600160a01b038116036104b857565b600080fd5b60203660031901126104b85760206104df6004356104da816104a7565b611f71565b6040516001600160a01b039091168152f35b346104b85760203660031901126104b85760043563ffffffff60e01b81168091036104b857602090637965db0b60e01b8114908115610536575b506040519015158152f35b6301ffc9a760e01b1490503861052b565b60009103126104b857565b346104b85760003660031901126104b8576020600554604051908152f35b634e487b7160e01b600052603260045260246000fd5b346104b85760203660031901126104b857600435602d548110156104b857602d6000527f4a2cc91ee622da3bc833a54c37ffcb6f3ec23b7793efc5eaf5e71b7b406c5c0601546040516001600160a01b039091168152602090f35b346104b85760003660031901126104b8576020601054604051908152f35b346104b85760003660031901126104b8576020604354604051908152f35b346104b85760203660031901126104b8576004356000526052602052602060ff604060002054166040519015158152f35b346104b85760003660031901126104b8576020600254604051908152f35b346104b85760003660031901126104b85760206040516103e88152f35b346104b85760003660031901126104b8576020604154604051908152f35b346104b85760003660031901126104b8576020605154604051908152f35b9181601f840112156104b85782359167ffffffffffffffff83116104b8576020808501948460051b0101116104b857565b346104b85760603660031901126104b85760043567ffffffffffffffff81116104b8576107279036906004016106c5565b9060243567ffffffffffffffff81116104b8576107489036906004016106c5565b9160443567ffffffffffffffff81116104b8576107699036906004016106c5565b92909161077461216e565b8486148015906108ca575b6108b95760005b86811061078f57005b6107bf6107a56107a0838a8661191e565b611933565b6001600160a01b0316600090815260336020526040902090565b80549091906107de906001600160a01b03165b6001600160a01b031690565b156108a8576001916107f96107f483898961191e565b611940565b1561089257600e61080b838a8861191e565b359101555b7f873c9e24fff67771b81a4f23af3f6a987f76b07a7ffed954c045ba719ab83aec61083f6107a0838b8761191e565b61084a838a8861191e565b359061088961085d6107f4868c8c61191e565b604080516001600160a01b03909416845260208401949094521515928201929092529081906060820190565b0390a101610786565b601661089f838a8861191e565b35910155610810565b6372898ae960e11b60005260046000fd5b63512509d360e11b60005260046000fd5b508386141561077f565b346104b85760003660031901126104b8576044546040516001600160a01b039091168152602090f35b346104b85760203660031901126104b857602061091b60043561194a565b604051908152f35b346104b85760003660031901126104b857602060ff605354166040519015158152f35b346104b85760403660031901126104b85761097f602435600435610969826104a7565b61097a6109758261194a565b61218f565b6121d9565b005b60003660031901126104b85760206104df33611f71565b346104b85760203660031901126104b8576004356109b5816104a7565b6109bd612287565b6001600160a01b031660009081526033602090815260408083206035835292819020604154601154925163dea8f17760e01b815260048101959095526024850191909152604484015260648301528160848173__$4c73b20894b72802355b5999003238f06e$__5af48015610a9357610a6091600091610a64575b50610a50600160008051602061287583398151915255565b6040519081529081906020820190565b0390f35b610a86915060203d602011610a8c575b610a7e8183611981565b8101906119a8565b38610a38565b503d610a74565b6119b7565b346104b85760403660031901126104b857600435602435610ab8816104a7565b336001600160a01b03821603610ad15761097f916122c3565b63334bd91960e11b60005260046000fd5b346104b85760003660031901126104b8576047546040516001600160a01b039091168152602090f35b801515036104b857565b346104b85760603660031901126104b857600435610b32816104a7565b60243560443591610b4283610b0b565b610b4a61216e565b6001600160a01b0381811660009081526033602052604090208054909116156108a8578383610bcc927f873c9e24fff67771b81a4f23af3f6a987f76b07a7ffed954c045ba719ab83aec96600014610bd157600e0155604080516001600160a01b03909416845260208401949094521515928201929092529081906060820190565b0390a1005b6016015561085d565b346104b85760003660031901126104b8576020600154604051908152f35b346104b85760203660031901126104b857600435610c15816104a7565b60018060a01b031660005260546020526020604060002054604051908152f35b346104b85760003660031901126104b8576020604051670214e8348c4f00008152f35b346104b85760003660031901126104b8576020601354604051908152f35b346104b85760003660031901126104b8576048546040516001600160a01b039091168152602090f35b346104b85760003660031901126104b8576020605054604051908152f35b346104b85760003660031901126104b8576020600054604051908152f35b346104b85760003660031901126104b8576020604054604051908152f35b346104b85760003660031901126104b857610d1261216e565b610d1a612368565b60008051602061283583398151915280546001600160a01b031981169091556000906001600160a01b03167f8be0079c531659141344cd1fd0a4f28419497f9722a3daafe3b4186f6b6457e08280a3005b346104b85760203660031901126104b857600435602a548110156104b857602a6000527fbeced09521047d05b8960b7e7bcc1d1292cf3e4b2a6b63f48335cbde5f7545d20154604051908152602090f35b346104b85760003660031901126104b8576020604051668e1bc9bf0400008152f35b346104b85760203660031901126104b8576004353360009081526054602052604090205415610fca575b33600090815260336020908152604080832060359092529091209180610f54575b60115415610ecf5773__$4c73b20894b72802355b5999003238f06e$__60115493813b156104b857604051632aa32d3360e01b8152600481019490945260248401526044830191909152606482019290925290600090829060849082905af48015610a9357610eb4575b505b3360009081526054602090815260408083204290556055909152812055005b80610ec36000610ec993611981565b80610547565b38610e93565b915073__$4c73b20894b72802355b5999003238f06e$__60435490803b156104b85760405163b3650c2960e01b81526004810193909352602f6024840152604483019390935260146064830152608482015290600090829060a49082905af48015610a9357610f3f575b50610e95565b80610ec36000610f4e93611981565b38610f39565b631bf3e0b160e21b600052604b602052610fc4610f997f1833d0e3c78dd948e5564fdaaefca0c215ad86598ca579cb5e4c4de5e44474d05b546001600160a01b031690565b604051631bf3e0b160e21b60208201526024808201859052815290610fbf604483611981565b612387565b50610e29565b337f2e14f290af428a5a55cda34cae7292c879249089067e8f114d99a62b2ea43d55600080a2610e08565b346104b85760203660031901126104b857600435611012816104a7565b6001600160a01b03166000908152603360209081526040808320603590925290912060115490919073__$4c73b20894b72802355b5999003238f06e$__803b156104b8576040516374e09f3960e01b815260048101939093526024830193909352604482015290600090829060649082905af48015610a935761109157005b80610ec3600061097f93611981565b346104b85760003660031901126104b85760008051602061289583398151915254336001600160a01b039091160361112c576110da612368565b6000805160206128358339815191528054336001600160a01b0319821681179092556001600160a01b03167f8be0079c531659141344cd1fd0a4f28419497f9722a3daafe3b4186f6b6457e0600080a3005b63118cdaa760e01b6000523360045260246000fd5b346104b85760003660031901126104b8576049546040516001600160a01b039091168152602090f35b346104b85760003660031901126104b85760206040516180088152f35b346104b85760003660031901126104b8576020604051611d4c8152f35b346104b85760203660031901126104b857600435602c548110156104b857602c6000527f7416c943b4a09859521022fd2e90eac0dd9026dad28fa317782a135f28a8609101546040516001600160a01b039091168152602090f35b346104b85760003660031901126104b857600080516020612835833981519152546040516001600160a01b039091168152602090f35b346104b85760003660031901126104b8576020601154604051908152f35b346104b85760203660031901126104b857600435602b548110156104b857602b6000527f11c44e4875b74d31ff9fd779bf2566af7bd15b87fc985d01f5094b89e3669e4f0154604051908152602090f35b346104b85760403660031901126104b857602060ff6112fb6024356004356112cb826104a7565b600052600080516020612855833981519152845260406000209060018060a01b0316600052602052604060002090565b54166040519015158152f35b979491926101409996939c9b9a9794919c6101608a019d8a5260208a015260408901526060880152608087015260a086015260c085015260e08401526101008301526101208201520152565b346104b85760003660031901126104b857601f5460205490610a60602154602254602354602454602554602654916027549360285495602954976040519b8c9b8c611307565b346104b85760003660031901126104b8576020604e54604051908152f35b346104b85760203660031901126104b8576004356113d4816104a7565b60018060a01b031660005260556020526020604060002054604051908152f35b60003660031901126104b857602460206001600160a01b036114146123ae565b166040519283809263062fe1e160e41b82523360048301525afa908115610a935760009161145d575b501561144c5761097f336124a3565b63eb32d3bf60e01b60005260046000fd5b61147f915060203d602011611485575b6114778183611981565b8101906119c3565b3861143d565b503d61146d565b346104b85760003660031901126104b8576020604051684e1003b28d928000008152f35b346104b85760003660031901126104b857602060405160008152f35b346104b85760003660031901126104b8576020604051660aa87bee537fff198152f35b346104b85760003660031901126104b8576020604051680246ddf979766800008152f35b346104b85760003660031901126104b85760206040516101f48152f35b346104b85760203660031901126104b85760043561154d816104a7565b60018060a01b03166000526034602052602060018060a01b0360406000205416604051908152f35b346104b85760003660031901126104b8576020601254604051908152f35b346104b85760003660031901126104b857602060405160648152f35b346104b85760003660031901126104b8576020600f54604051908152f35b346104b85760003660031901126104b85760206040516908e4d3168276864000008152f35b346104b85760003660031901126104b85760206040517f155e7f76c52e49fe8308e62eabe3ce449c978443b7d8beb86992427229ec386f8152f35b346104b85760003660031901126104b85760206040516b0d92289838d21a99680000008152f35b346104b85760003660031901126104b8576020600454604051908152f35b346104b85760003660031901126104b8576020604f54604051908152f35b346104b85760403660031901126104b85761097f6024356004356116b3826104a7565b6116bf6109758261194a565b6122c3565b346104b85760003660031901126104b857600e546040516001600160a01b039091168152602090f35b346104b85760003660031901126104b8576020604254604051908152f35b346104b85760003660031901126104b8576046546040516001600160a01b039091168152602090f35b346104b85760003660031901126104b857600080516020612895833981519152546040516001600160a01b039091168152602090f35b346104b85760003660031901126104b8576020600354604051908152f35b346104b85760203660031901126104b8576004356117a5816104a7565b6117ad61216e565b60008051602061289583398151915280546001600160a01b0319166001600160a01b03928316908117909155600080516020612835833981519152549091167f38d16b8cac22d99fc7c124b9cd0de2d3fa1faef420bfe791d8c362d765e22700600080a3005b346104b85760003660031901126104b857604a546040516001600160a01b039091168152602090f35b346104b85760003660031901126104b85760145460155490610a60601654601754601854601954601a54601b5491601c5493601d5495601e54976040519b8c9b8c611307565b346104b85760203660031901126104b8576004356045548110156104b85760456000527fa80a8fcc11760162f08bb091d2c9389d07f2b73d0e996161dfac6f1043b5fc0b01546040516001600160a01b039091168152602090f35b346104b85760203660031901126104b85761190a6004356118fd816104a7565b611905612287565b611ad2565b600160008051602061287583398151915255005b919081101561192e5760051b0190565b610570565b3561193d816104a7565b90565b3561193d81610b0b565b60005260008051602061285583398151915260205260016040600020015490565b634e487b7160e01b600052604160045260246000fd5b90601f8019910116810190811067ffffffffffffffff8211176119a357604052565b61196b565b908160209103126104b8575190565b6040513d6000823e3d90fd5b908160209103126104b8575161193d81610b0b565b6119e490611905612287565b600160008051602061287583398151915255565b634e487b7160e01b600052601160045260246000fd5b9060018201809211611a1c57565b6119f8565b91908201809211611a1c57565b91908260409103126104b8576020825192015190565b90606482029180830460641490151715611a1c57565b600019810191908211611a1c57565b91908203918211611a1c57565b3d15611ab1573d9067ffffffffffffffff82116119a35760405191611aa5601f8201601f191660200184611981565b82523d6000602084013e565b606090565b91908260409103126104b8576020825192015161193d81610b0b565b611add601254611a0e565b601154809110611f58576001600160a01b038216600090815260336020526040902090611b5a604073__$a9930a26518626f1cf41cf7d897563c531$__92611b236127d4565b8251632bca1a2d60e21b8152600481018790526001600160a01b039091166024820152604481019190915291829081906064820190565b0381855af48015610a9357611b7a91600090600092611f26575b50611a21565b80611e1d575b5060465460009182916001600160a01b031680151580611e12575b611d58575b506011549360018516159081611d5057601f915b15611d4857601f935b833b156104b857600095611c1a9160405198899788968796630b78e59160e11b8852600488019260e09491979695926101008501988552602f6020860152603660408601526060850152608084015260a083015260c08201520152565b03915af48015610a9357611d33575b506001600160a01b03811660009081526054602052604090205415801590611d12575b611c535750565b602f546001600160a01b038281169116148015611cd8575b15611caf576001600160a01b03811660009081526054602052604081209091611cac9142905b556001600160a01b0316600090815260556020526040902090565b55565b6001600160a01b0316600090815260546020908152604080832083905560559091529020429055565b50611d0b6107d26003611cfd8460018060a01b03166000526033602052604060002090565b01546001600160a01b031690565b1515611c6b565b506001600160a01b0381166000908152605560205260409020541515611c4c565b80610ec36000611d4293611981565b38611c29565b601493611bbd565b601491611bb4565b9091611db091604090611d73906001600160a01b03166107d2565b611d7e601154611a5a565b825163182a7ec760e01b81526001600160a01b038a166004820152602481019190915293849190829081906044820190565b03915afa8015610a9357600092600091611ddd575b5015611dd45750905b38611ba0565b91925091611dce565b9050611e0291925060403d604011611e0b575b611dfa8183611981565b810190611ab6565b91909138611dc5565b503d611df0565b506011541515611b9b565b601154600116611f1d57600a601f5b0190611e39818354611a21565b82556044546001600160a01b031680611ec1575b506001600160a01b0385163303611e65575b50611b80565b611e71611e7991611a44565b612710900490565b908115611e5f576000808383611e928396849654611a69565b9055335af1611e9f611a76565b5015611eac573880611e5f565b633f32e1dd60e01b6000523360045260246000fd5b611ed3906001600160a01b03166107d2565b803b156104b85760405163eed9c5ef60e01b815260048101839052906000908290602490829084905af18015610a935715611e4d5780610ec36000611f1793611981565b38611e4d565b600a6014611e2c565b9050611f4a915060403d604011611f51575b611f428183611981565b810190611a2e565b9038611b74565b503d611f38565b5050565b908160209103126104b8575161193d816104a7565b90601154151580612163575b612152576001600160a01b038216801561144c57331415918280612125575b61211457603054600554111561210357611fb76107d26123ae565b60405163e2a4a27b60e01b81523360048201526001600160a01b03831660248201529190602090839060449082906000905af1918215610a93576004926120e6575b5060206120076107d26123ae565b60405163320ef67160e11b815293849182905afa8015610a93577f2b7297b31452d0a13e57c605870ec3c9b4ac6ef33e5cbae7a0f00bc2a3e96782926000916120b7575b508094612084575b61205c816124a3565b604080516001600160a01b0393841681529190921660208201523491810191909152606090a1565b6001600160a01b03828116600090815260346020526040902080546001600160a01b031916918316919091179055612053565b6120d9915060203d6020116120df575b6120d18183611981565b810190611f5c565b3861204b565b503d6120c7565b6120fe9060203d6020116120df576120d18183611981565b611ff9565b639ce3911d60e01b60005260046000fd5b632d6690dd60e11b60005260046000fd5b506001600160a01b038116600090815260346020526040902061214b906107d290610f8c565b1515611f9c565b630b294dc360e01b60005260046000fd5b506043543410611f7d565b600080516020612835833981519152546001600160a01b0316330361112c57565b60008181526000805160206128558339815191526020908152604080832033845290915290205460ff16156121c15750565b63e2517d3f60e01b6000523360045260245260446000fd5b6000818152600080516020612855833981519152602090815260408083206001600160a01b038616845290915290205460ff16612280576000818152600080516020612855833981519152602090815260408083206001600160a01b03861684529091529020805460ff1916600117905533916001600160a01b0316907f2f8788117e7eff1d82e926ec794901d17c78024a50270940304540a733656f0d600080a4600190565b5050600090565b600260008051602061287583398151915254146122b257600260008051602061287583398151915255565b633ee5aeb560e01b60005260046000fd5b6000818152600080516020612855833981519152602090815260408083206001600160a01b038616845290915290205460ff1615612280576000818152600080516020612855833981519152602090815260408083206001600160a01b03861684529091529020805460ff1916905533916001600160a01b0316907ff6391f5c32d9c69d2a47ea670b442974b53935d1edc7fd64eb21e047a839171b600080a4600190565b60008051602061289583398151915280546001600160a01b0319169055565b6000918291602082519201905af461239d611a76565b90156123a65790565b602081519101fd5b604754604051631bae711d60e21b8152602060048201819052601660248301527556616c696461746f7257616c6c6574466163746f727960501b60448301529091829060649082906001600160a01b03165afa908115610a935760009161241d575b506001600160a01b031690565b612436915060203d6020116120df576120d18183611981565b38612410565b604554600160401b8110156119a35760018101604555600060455482101561192e57604590527fa80a8fcc11760162f08bb091d2c9389d07f2b73d0e996161dfac6f1043b5fc0b0180546001600160a01b0319166001600160a01b03909216919091179055565b6124ac816119d8565b34156127c3576001600160a01b03818116600090815260336020908152604080832060359092529091208154919392909116612772576001600160a01b03821660009081526054602052604090205415801590612751575b61271e575b82546001600160a01b0319166001600160a01b03831617835561252b8261243c565b604454612540906001600160a01b03166107d2565b806126cc575b506011541561261d5760115460011661261457600860145b0161256a348254611a21565b90556011549273__$4c73b20894b72802355b5999003238f06e$__803b156104b85760405163464ad34b60e11b8152600481019290925260248201929092526001600160a01b03831660448201526064810193909352600090839060849082905af4908115610a9357600092611cac92612600575b505b6001600160a01b03811660009081526054602052604090204290611c91565b80610ec38561260e93611981565b386125df565b6008601f61255e565b61263161262c34601c54611a21565b601c55565b6043549273__$4c73b20894b72802355b5999003238f06e$__803b156104b85760405163ad09408360e01b815260048101929092526024820192909252602f60448201526001600160a01b03831660648201526014608482015260a4810193909352600090839060c49082905af4908115610a9357600092611cac926126b8575b506125e1565b80610ec3856126c693611981565b386126b2565b6001600160a01b0316803b156104b8576040516332578bc960e11b8152346004820152906000908290602490829084905af18015610a9357156125465780610ec3600061271893611981565b38612546565b6001600160a01b0382167e82ad2279618f089cd244e26baff89f19262dcac9f3f00ea76c0aee06196178600080a2612509565b506001600160a01b0382166000908152605560205260409020541515612504565b6001600160a01b03821660009081526054602052604090205461252b576001600160a01b0382167f2e14f290af428a5a55cda34cae7292c879249089067e8f114d99a62b2ea43d55600080a261252b565b63ffb117c560e01b60005260046000fd5b604754604051631bae711d60e21b81526020600482018190526008602483015267536c617368696e6760c01b60448301529091829060649082906001600160a01b03165afa908115610a935760009161241d57506001600160a01b03169056fe9016d09d72d40fdae2fd8ceac6b6234c7706214fd39c1cd1e609a0528c19930002dd7bc7dec4dceedda775e58dd541e08a116c6c53815c0bd028192f7b6268009b779b17422d0df92223018b32b4d1fa46e071723d6817e2486d003becc55f00237e158222e3e6968b72b9db0d8043aacf074ad9f650f0d1606b4d82ee432c00a2646970667358221220cc3e9b120bb1bbefca6bca21a856fca7224d2be2ec30c6c9eae05a64b557083264736f6c634300081c0033",
  "linkReferences": {
    "contracts/utils/ValidatorPrimeUtils.sol": {
      "ValidatorPrimeUtils": [
        {
          "length": 20,
          "start": 6946
        }
      ]
    },
    "contracts/utils/ValidatorUtils.sol": {
      "ValidatorUtils": [
        {
          "length": 20,
          "start": 2604
        },
        {
          "length": 20,
          "start": 3662
        },
        {
          "length": 20,
          "start": 3822
        },
        {
          "length": 20,
          "start": 4183
        },
        {
          "length": 20,
          "start": 9613
        },
        {
          "length": 20,
          "start": 9810
        }
      ]
    }
  },
  "deployedLinkReferences": {
    "contracts/utils/ValidatorPrimeUtils.sol": {
      "ValidatorPrimeUtils": [
        {
          "length": 20,
          "start": 6919
        }
      ]
    },
    "contracts/utils/ValidatorUtils.sol": {
      "ValidatorUtils": [
        {
          "length": 20,
          "start": 2577
        },
        {
          "length": 20,
          "start": 3635
        },
        {
          "length": 20,
          "start": 3795
        },
        {
          "length": 20,
          "start": 4156
        },
        {
          "length": 20,
          "start": 9586
        },
        {
          "length": 20,
          "start": 9783
        }
      ]
    }
  }
}