{
  "_format": "hh-sol-artifact-1",
  "contractName": "MockL1Messenger",
  "sourceName": "contracts/test-helpers/MockL1Messenger.sol",
  "abi": [
    {
      "anonymous": false,
      "inputs": [
        {
          "indexed": false,
          "internalType": "bytes",
          "name": "message",
          "type": "bytes"
        }
      ],
      "name": "MessageSent",
      "type": "event"
    },
    {
      "inputs": [
        {
          "internalType": "bytes",
          "name": "message",
          "type": "bytes"
        }
      ],
      "name": "sendToL1",
      "outputs": [
        {
          "internalType": "bytes32",
          "name": "",
          "type": "bytes32"
        }
      ],
      "stateMutability": "nonpayable",
      "type": "function"
    }
  ],
  "bytecode": "0x6080806040523460155761015f908161001b8239f35b600080fdfe608080604052600436101561001357600080fd5b60003560e01c6362f84b241461002857600080fd5b346101245760203660031901126101245760043567ffffffffffffffff811161012457366023820112156101245780600401359167ffffffffffffffff831161012457602482019160248436920101116101245760208152826020820152828260408301376000604084830101527f8c5261668696ce22758910d05bab8f186d6eb247ceac2af2e82c7dc17669b036601f19601f85011691604081848101030190a16040516000939091603f01601f1916820167ffffffffffffffff811183821017610110576020949185916040528084528082850195863783010152519020604051908152f35b634e487b7160e01b85526041600452602485fd5b600080fdfea26469706673582212209947a025c53f3b21e86dd393bcad1465425a90bf87c65d701917354784dd9adc64736f6c634300081c0033",
  "linkReferences": {},
  "deployedLinkReferences": {}
}