{
  "_format": "hh-sol-artifact-1",
  "contractName": "ValidatorWalletBlueprint",
  "sourceName": "contracts/validatorsWallet/ValidatorWalletBlueprint.sol",
  "abi": [
    {
      "inputs": [],
      "name": "AccessControlBadConfirmation",
      "type": "error"
    },
    {
      "inputs": [
        {
          "internalType": "address",
          "name": "account",
          "type": "address"
        },
        {
          "internalType": "bytes32",
          "name": "neededRole",
          "type": "bytes32"
        }
      ],
      "name": "AccessControlUnauthorizedAccount",
      "type": "error"
    },
    {
      "inputs": [],
      "name": "InvalidAddress",
      "type": "error"
    },
    {
      "inputs": [],
      "name": "InvalidInitialization",
      "type": "error"
    },
    {
      "inputs": [],
      "name": "NoPendingOperator",
      "type": "error"
    },
    {
      "inputs": [],
      "name": "NotInitializing",
      "type": "error"
    },
    {
      "inputs": [],
      "name": "NotOperator",
      "type": "error"
    },
    {
      "inputs": [],
      "name": "OperatorTransferNotReady",
      "type": "error"
    },
    {
      "inputs": [
        {
          "internalType": "address",
          "name": "owner",
          "type": "address"
        }
      ],
      "name": "OwnableInvalidOwner",
      "type": "error"
    },
    {
      "inputs": [
        {
          "internalType": "address",
          "name": "account",
          "type": "address"
        }
      ],
      "name": "OwnableUnauthorizedAccount",
      "type": "error"
    },
    {
      "inputs": [],
      "name": "ReentrancyGuardReentrantCall",
      "type": "error"
    },
    {
      "inputs": [],
      "name": "TransferFailed",
      "type": "error"
    },
    {
      "anonymous": false,
      "inputs": [
        {
          "indexed": false,
          "internalType": "uint64",
          "name": "version",
          "type": "uint64"
        }
      ],
      "name": "Initialized",
      "type": "event"
    },
    {
      "anonymous": false,
      "inputs": [
        {
          "indexed": true,
          "internalType": "address",
          "name": "newOperator",
          "type": "address"
        }
      ],
      "name": "OperatorSet",
      "type": "event"
    },
    {
      "anonymous": false,
      "inputs": [
        {
          "indexed": true,
          "internalType": "address",
          "name": "by",
          "type": "address"
        }
      ],
      "name": "OperatorTransferCancelled",
      "type": "event"
    },
    {
      "anonymous": false,
      "inputs": [
        {
          "indexed": true,
          "internalType": "address",
          "name": "from",
          "type": "address"
        },
        {
          "indexed": true,
          "internalType": "address",
          "name": "to",
          "type": "address"
        }
      ],
      "name": "OperatorTransferCompleted",
      "type": "event"
    },
    {
      "anonymous": false,
      "inputs": [
        {
          "indexed": true,
          "internalType": "address",
          "name": "from",
          "type": "address"
        },
        {
          "indexed": true,
          "internalType": "address",
          "name": "to",
          "type": "address"
        },
        {
          "indexed": false,
          "internalType": "uint256",
          "name": "transferableAt",
          "type": "uint256"
        }
      ],
      "name": "OperatorTransferStarted",
      "type": "event"
    },
    {
      "anonymous": false,
      "inputs": [
        {
          "indexed": true,
          "internalType": "address",
          "name": "previousOwner",
          "type": "address"
        },
        {
          "indexed": true,
          "internalType": "address",
          "name": "newOwner",
          "type": "address"
        }
      ],
      "name": "OwnershipTransferred",
      "type": "event"
    },
    {
      "anonymous": false,
      "inputs": [
        {
          "indexed": true,
          "internalType": "bytes32",
          "name": "role",
          "type": "bytes32"
        },
        {
          "indexed": true,
          "internalType": "bytes32",
          "name": "previousAdminRole",
          "type": "bytes32"
        },
        {
          "indexed": true,
          "internalType": "bytes32",
          "name": "newAdminRole",
          "type": "bytes32"
        }
      ],
      "name": "RoleAdminChanged",
      "type": "event"
    },
    {
      "anonymous": false,
      "inputs": [
        {
          "indexed": true,
          "internalType": "bytes32",
          "name": "role",
          "type": "bytes32"
        },
        {
          "indexed": true,
          "internalType": "address",
          "name": "account",
          "type": "address"
        },
        {
          "indexed": true,
          "internalType": "address",
          "name": "sender",
          "type": "address"
        }
      ],
      "name": "RoleGranted",
      "type": "event"
    },
    {
      "anonymous": false,
      "inputs": [
        {
          "indexed": true,
          "internalType": "bytes32",
          "name": "role",
          "type": "bytes32"
        },
        {
          "indexed": true,
          "internalType": "address",
          "name": "account",
          "type": "address"
        },
        {
          "indexed": true,
          "internalType": "address",
          "name": "sender",
          "type": "address"
        }
      ],
      "name": "RoleRevoked",
      "type": "event"
    },
    {
      "anonymous": false,
      "inputs": [
        {
          "indexed": false,
          "internalType": "uint256",
          "name": "amount",
          "type": "uint256"
        }
      ],
      "name": "ValidatorClaimProcessed",
      "type": "event"
    },
    {
      "anonymous": false,
      "inputs": [
        {
          "indexed": false,
          "internalType": "uint256",
          "name": "amount",
          "type": "uint256"
        }
      ],
      "name": "ValidatorDepositMade",
      "type": "event"
    },
    {
      "anonymous": false,
      "inputs": [
        {
          "indexed": false,
          "internalType": "uint256",
          "name": "shares",
          "type": "uint256"
        }
      ],
      "name": "ValidatorExitInitiated",
      "type": "event"
    },
    {
      "anonymous": false,
      "inputs": [
        {
          "indexed": true,
          "internalType": "address",
          "name": "validator",
          "type": "address"
        }
      ],
      "name": "ValidatorIdentitySet",
      "type": "event"
    },
    {
      "inputs": [],
      "name": "DEFAULT_ADMIN_ROLE",
      "outputs": [
        {
          "internalType": "bytes32",
          "name": "",
          "type": "bytes32"
        }
      ],
      "stateMutability": "view",
      "type": "function"
    },
    {
      "inputs": [],
      "name": "OPERATOR_TRANSFER_DELAY",
      "outputs": [
        {
          "internalType": "uint256",
          "name": "",
          "type": "uint256"
        }
      ],
      "stateMutability": "view",
      "type": "function"
    },
    {
      "inputs": [
        {
          "internalType": "bytes32",
          "name": "_txId",
          "type": "bytes32"
        },
        {
          "internalType": "bytes",
          "name": "_vrfProof",
          "type": "bytes"
        }
      ],
      "name": "activateTransaction",
      "outputs": [],
      "stateMutability": "nonpayable",
      "type": "function"
    },
    {
      "inputs": [],
      "name": "cancelOperatorTransfer",
      "outputs": [],
      "stateMutability": "nonpayable",
      "type": "function"
    },
    {
      "inputs": [
        {
          "internalType": "bytes32",
          "name": "_txId",
          "type": "bytes32"
        },
        {
          "internalType": "uint256",
          "name": "_tribunalIndex",
          "type": "uint256"
        },
        {
          "internalType": "bytes32",
          "name": "_commitHash",
          "type": "bytes32"
        }
      ],
      "name": "commitTribunalAppealVote",
      "outputs": [],
      "stateMutability": "nonpayable",
      "type": "function"
    },
    {
      "inputs": [
        {
          "internalType": "bytes32",
          "name": "_txId",
          "type": "bytes32"
        },
        {
          "internalType": "bytes32",
          "name": "_commitHash",
          "type": "bytes32"
        },
        {
          "internalType": "uint256",
          "name": "_validatorIndex",
          "type": "uint256"
        }
      ],
      "name": "commitVote",
      "outputs": [],
      "stateMutability": "nonpayable",
      "type": "function"
    },
    {
      "inputs": [],
      "name": "completeOperatorTransfer",
      "outputs": [],
      "stateMutability": "nonpayable",
      "type": "function"
    },
    {
      "inputs": [],
      "name": "consensus",
      "outputs": [
        {
          "internalType": "address",
          "name": "",
          "type": "address"
        }
      ],
      "stateMutability": "view",
      "type": "function"
    },
    {
      "inputs": [],
      "name": "consensusWithFees",
      "outputs": [
        {
          "internalType": "address",
          "name": "",
          "type": "address"
        }
      ],
      "stateMutability": "view",
      "type": "function"
    },
    {
      "inputs": [],
      "name": "factory",
      "outputs": [
        {
          "internalType": "address",
          "name": "",
          "type": "address"
        }
      ],
      "stateMutability": "view",
      "type": "function"
    },
    {
      "inputs": [],
      "name": "getIdentity",
      "outputs": [
        {
          "components": [
            {
              "internalType": "string",
              "name": "moniker",
              "type": "string"
            },
            {
              "internalType": "string",
              "name": "logoUri",
              "type": "string"
            },
            {
              "internalType": "string",
              "name": "website",
              "type": "string"
            },
            {
              "internalType": "string",
              "name": "description",
              "type": "string"
            },
            {
              "internalType": "string",
              "name": "email",
              "type": "string"
            },
            {
              "internalType": "string",
              "name": "twitter",
              "type": "string"
            },
            {
              "internalType": "string",
              "name": "telegram",
              "type": "string"
            },
            {
              "internalType": "string",
              "name": "github",
              "type": "string"
            },
            {
              "internalType": "bytes",
              "name": "extraCid",
              "type": "bytes"
            }
          ],
          "internalType": "struct IValidatorWallet.ValidatorIdentity",
          "name": "",
          "type": "tuple"
        }
      ],
      "stateMutability": "view",
      "type": "function"
    },
    {
      "inputs": [],
      "name": "getOperator",
      "outputs": [
        {
          "internalType": "address",
          "name": "",
          "type": "address"
        }
      ],
      "stateMutability": "view",
      "type": "function"
    },
    {
      "inputs": [],
      "name": "getPendingOperator",
      "outputs": [
        {
          "internalType": "address",
          "name": "",
          "type": "address"
        },
        {
          "internalType": "uint256",
          "name": "",
          "type": "uint256"
        }
      ],
      "stateMutability": "view",
      "type": "function"
    },
    {
      "inputs": [
        {
          "internalType": "bytes32",
          "name": "role",
          "type": "bytes32"
        }
      ],
      "name": "getRoleAdmin",
      "outputs": [
        {
          "internalType": "bytes32",
          "name": "",
          "type": "bytes32"
        }
      ],
      "stateMutability": "view",
      "type": "function"
    },
    {
      "inputs": [
        {
          "internalType": "bytes32",
          "name": "role",
          "type": "bytes32"
        },
        {
          "internalType": "address",
          "name": "account",
          "type": "address"
        }
      ],
      "name": "grantRole",
      "outputs": [],
      "stateMutability": "nonpayable",
      "type": "function"
    },
    {
      "inputs": [
        {
          "internalType": "bytes32",
          "name": "role",
          "type": "bytes32"
        },
        {
          "internalType": "address",
          "name": "account",
          "type": "address"
        }
      ],
      "name": "hasRole",
      "outputs": [
        {
          "internalType": "bool",
          "name": "",
          "type": "bool"
        }
      ],
      "stateMutability": "view",
      "type": "function"
    },
    {
      "inputs": [],
      "name": "identity",
      "outputs": [
        {
          "internalType": "string",
          "name": "moniker",
          "type": "string"
        },
        {
          "internalType": "string",
          "name": "logoUri",
          "type": "string"
        },
        {
          "internalType": "string",
          "name": "website",
          "type": "string"
        },
        {
          "internalType": "string",
          "name": "description",
          "type": "string"
        },
        {
          "internalType": "string",
          "name": "email",
          "type": "string"
        },
        {
          "internalType": "string",
          "name": "twitter",
          "type": "string"
        },
        {
          "internalType": "string",
          "name": "telegram",
          "type": "string"
        },
        {
          "internalType": "string",
          "name": "github",
          "type": "string"
        },
        {
          "internalType": "bytes",
          "name": "extraCid",
          "type": "bytes"
        }
      ],
      "stateMutability": "view",
      "type": "function"
    },
    {
      "inputs": [
        {
          "internalType": "address",
          "name": "_factory",
          "type": "address"
        },
        {
          "internalType": "address",
          "name": "_owner",
          "type": "address"
        },
        {
          "internalType": "address",
          "name": "_staking",
          "type": "address"
        },
        {
          "internalType": "address",
          "name": "_consensus",
          "type": "address"
        },
        {
          "internalType": "address",
          "name": "_operator",
          "type": "address"
        }
      ],
      "name": "initialize",
      "outputs": [],
      "stateMutability": "nonpayable",
      "type": "function"
    },
    {
      "inputs": [
        {
          "internalType": "address",
          "name": "_newOperator",
          "type": "address"
        }
      ],
      "name": "initiateOperatorTransfer",
      "outputs": [],
      "stateMutability": "nonpayable",
      "type": "function"
    },
    {
      "inputs": [
        {
          "components": [
            {
              "internalType": "bytes32",
              "name": "txId",
              "type": "bytes32"
            },
            {
              "internalType": "uint256",
              "name": "saltAsAValidator",
              "type": "uint256"
            },
            {
              "internalType": "bytes32",
              "name": "txExecutionHash",
              "type": "bytes32"
            },
            {
              "internalType": "bytes32",
              "name": "messagesAndOtherFieldsHash",
              "type": "bytes32"
            },
            {
              "internalType": "bytes32",
              "name": "otherExecutionFieldsHash",
              "type": "bytes32"
            },
            {
              "internalType": "enum ITransactions.VoteType",
              "name": "resultValue",
              "type": "uint8"
            },
            {
              "components": [
                {
                  "internalType": "enum IMessages.MessageType",
                  "name": "messageType",
                  "type": "uint8"
                },
                {
                  "internalType": "address",
                  "name": "recipient",
                  "type": "address"
                },
                {
                  "internalType": "uint256",
                  "name": "value",
                  "type": "uint256"
                },
                {
                  "internalType": "bytes",
                  "name": "data",
                  "type": "bytes"
                },
                {
                  "internalType": "bool",
                  "name": "onAcceptance",
                  "type": "bool"
                },
                {
                  "internalType": "uint256",
                  "name": "saltNonce",
                  "type": "uint256"
                }
              ],
              "internalType": "struct IMessages.SubmittedMessage[]",
              "name": "messages",
              "type": "tuple[]"
            }
          ],
          "internalType": "struct IConsensusMain.LeaderRevealVoteParams",
          "name": "_params",
          "type": "tuple"
        }
      ],
      "name": "leaderRevealVote",
      "outputs": [],
      "stateMutability": "nonpayable",
      "type": "function"
    },
    {
      "inputs": [],
      "name": "operator",
      "outputs": [
        {
          "internalType": "address",
          "name": "",
          "type": "address"
        }
      ],
      "stateMutability": "view",
      "type": "function"
    },
    {
      "inputs": [],
      "name": "operatorTransferInitiated",
      "outputs": [
        {
          "internalType": "uint256",
          "name": "",
          "type": "uint256"
        }
      ],
      "stateMutability": "view",
      "type": "function"
    },
    {
      "inputs": [],
      "name": "owner",
      "outputs": [
        {
          "internalType": "address",
          "name": "",
          "type": "address"
        }
      ],
      "stateMutability": "view",
      "type": "function"
    },
    {
      "inputs": [],
      "name": "pendingOperator",
      "outputs": [
        {
          "internalType": "address",
          "name": "",
          "type": "address"
        }
      ],
      "stateMutability": "view",
      "type": "function"
    },
    {
      "inputs": [
        {
          "internalType": "bytes32",
          "name": "_txId",
          "type": "bytes32"
        },
        {
          "internalType": "bytes32",
          "name": "_txExecutionHash",
          "type": "bytes32"
        },
        {
          "internalType": "uint256",
          "name": "_processingBlock",
          "type": "uint256"
        },
        {
          "internalType": "bytes",
          "name": "_eqBlocksOutputs",
          "type": "bytes"
        },
        {
          "internalType": "bytes",
          "name": "_vrfProof",
          "type": "bytes"
        }
      ],
      "name": "proposeReceipt",
      "outputs": [],
      "stateMutability": "nonpayable",
      "type": "function"
    },
    {
      "inputs": [
        {
          "internalType": "bytes32",
          "name": "_txId",
          "type": "bytes32"
        },
        {
          "internalType": "bytes32",
          "name": "_txExecutionHash",
          "type": "bytes32"
        },
        {
          "internalType": "uint256",
          "name": "_processingBlock",
          "type": "uint256"
        },
        {
          "internalType": "uint256",
          "name": "_storageFeeUsed",
          "type": "uint256"
        },
        {
          "internalType": "bytes",
          "name": "_eqBlocksOutputs",
          "type": "bytes"
        },
        {
          "internalType": "bytes",
          "name": "_vrfProof",
          "type": "bytes"
        }
      ],
      "name": "proposeReceiptWithFees",
      "outputs": [],
      "stateMutability": "nonpayable",
      "type": "function"
    },
    {
      "inputs": [],
      "name": "renounceOwnership",
      "outputs": [],
      "stateMutability": "nonpayable",
      "type": "function"
    },
    {
      "inputs": [
        {
          "internalType": "bytes32",
          "name": "role",
          "type": "bytes32"
        },
        {
          "internalType": "address",
          "name": "callerConfirmation",
          "type": "address"
        }
      ],
      "name": "renounceRole",
      "outputs": [],
      "stateMutability": "nonpayable",
      "type": "function"
    },
    {
      "inputs": [
        {
          "internalType": "bytes32",
          "name": "_txId",
          "type": "bytes32"
        },
        {
          "internalType": "uint256",
          "name": "_tribunalIndex",
          "type": "uint256"
        },
        {
          "internalType": "bytes32",
          "name": "_voteHash",
          "type": "bytes32"
        },
        {
          "internalType": "enum ITransactions.VoteType",
          "name": "_voteType",
          "type": "uint8"
        },
        {
          "internalType": "bytes32",
          "name": "_otherExecutionFieldsHash",
          "type": "bytes32"
        },
        {
          "internalType": "uint256",
          "name": "_nonce",
          "type": "uint256"
        }
      ],
      "name": "revealTribunalAppealVote",
      "outputs": [],
      "stateMutability": "nonpayable",
      "type": "function"
    },
    {
      "inputs": [
        {
          "internalType": "bytes32",
          "name": "_txId",
          "type": "bytes32"
        },
        {
          "internalType": "bytes32",
          "name": "_voteHash",
          "type": "bytes32"
        },
        {
          "internalType": "enum ITransactions.VoteType",
          "name": "_voteType",
          "type": "uint8"
        },
        {
          "internalType": "bytes32",
          "name": "_otherExecutionFieldsHash",
          "type": "bytes32"
        },
        {
          "internalType": "uint256",
          "name": "_nonce",
          "type": "uint256"
        },
        {
          "internalType": "uint256",
          "name": "_validatorIndex",
          "type": "uint256"
        }
      ],
      "name": "revealVote",
      "outputs": [],
      "stateMutability": "nonpayable",
      "type": "function"
    },
    {
      "inputs": [
        {
          "internalType": "bytes32",
          "name": "role",
          "type": "bytes32"
        },
        {
          "internalType": "address",
          "name": "account",
          "type": "address"
        }
      ],
      "name": "revokeRole",
      "outputs": [],
      "stateMutability": "nonpayable",
      "type": "function"
    },
    {
      "inputs": [
        {
          "internalType": "address",
          "name": "_consensus",
          "type": "address"
        },
        {
          "internalType": "address",
          "name": "_consensusWithFees",
          "type": "address"
        },
        {
          "internalType": "address",
          "name": "_staking",
          "type": "address"
        }
      ],
      "name": "setExternalAddresses",
      "outputs": [],
      "stateMutability": "nonpayable",
      "type": "function"
    },
    {
      "inputs": [
        {
          "internalType": "string",
          "name": "moniker",
          "type": "string"
        },
        {
          "internalType": "string",
          "name": "logoUri",
          "type": "string"
        },
        {
          "internalType": "string",
          "name": "website",
          "type": "string"
        },
        {
          "internalType": "string",
          "name": "description",
          "type": "string"
        },
        {
          "internalType": "string",
          "name": "email",
          "type": "string"
        },
        {
          "internalType": "string",
          "name": "twitter",
          "type": "string"
        },
        {
          "internalType": "string",
          "name": "telegram",
          "type": "string"
        },
        {
          "internalType": "string",
          "name": "github",
          "type": "string"
        },
        {
          "internalType": "bytes",
          "name": "extraCid",
          "type": "bytes"
        }
      ],
      "name": "setIdentity",
      "outputs": [],
      "stateMutability": "nonpayable",
      "type": "function"
    },
    {
      "inputs": [
        {
          "internalType": "address",
          "name": "_operator",
          "type": "address"
        }
      ],
      "name": "setOperator",
      "outputs": [],
      "stateMutability": "nonpayable",
      "type": "function"
    },
    {
      "inputs": [],
      "name": "staking",
      "outputs": [
        {
          "internalType": "address",
          "name": "",
          "type": "address"
        }
      ],
      "stateMutability": "view",
      "type": "function"
    },
    {
      "inputs": [
        {
          "internalType": "bytes4",
          "name": "interfaceId",
          "type": "bytes4"
        }
      ],
      "name": "supportsInterface",
      "outputs": [
        {
          "internalType": "bool",
          "name": "",
          "type": "bool"
        }
      ],
      "stateMutability": "view",
      "type": "function"
    },
    {
      "inputs": [
        {
          "internalType": "address",
          "name": "newOwner",
          "type": "address"
        }
      ],
      "name": "transferOwnership",
      "outputs": [],
      "stateMutability": "nonpayable",
      "type": "function"
    },
    {
      "inputs": [],
      "name": "validatorClaim",
      "outputs": [],
      "stateMutability": "nonpayable",
      "type": "function"
    },
    {
      "inputs": [],
      "name": "validatorDeposit",
      "outputs": [],
      "stateMutability": "payable",
      "type": "function"
    },
    {
      "inputs": [
        {
          "internalType": "uint256",
          "name": "_shares",
          "type": "uint256"
        }
      ],
      "name": "validatorExit",
      "outputs": [],
      "stateMutability": "nonpayable",
      "type": "function"
    },
    {
      "stateMutability": "payable",
      "type": "receive"
    }
  ],
  "bytecode": "0x60808060405234601557613134908161001b8239f35b600080fdfe61012080604052600436101561001e575b50361561001c57600080fd5b005b600060c05260c0513560e01c90816301ffc9a7146124bf5750806303d14917146121755780630a6c701b1461209c5780630bf43c3814611efe5780630c82d0e114611e0b5780631459457a14611bf257806317d3998014611b95578063248a9ca314611b6f5780632c159a1a14611a6f5780632f2ff15d14611a3e57806334e2326714611a1f57806335205794146119a957806336568abe1461196157806336afc6fa146117845780633bd15f70146116e05780634cf088d9146116b65780634e70962814610afd578063570ca7351461034b578063715018a614610a8d578063718cfed314610a37578063759f24f4146109d75780637707d8381461085b57806385d2d274146107e05780638da5cb5b146107a95780638ef3f7611461077f57806391d14854146107235780639e027604146106d9578063a217fddf146106bb578063aab85d6414610611578063ac7e534e146105e7578063b3ab15fb14610568578063bb02061b14610549578063c45a01551461051f578063cbc2440a14610476578063cbfd846d1461044c578063d4f6aa93146103b3578063d547741f14610376578063e7f43c681461034b578063f2fde38b146103225763f402ef5e146101e95738610010565b346102fc5760c03660031901126102fc576084356001600160401b0381116102fc576102199036906004016125f9565b60a4356001600160401b0381116102fc576102389036906004016125f9565b92909160018060a01b0360c05154169081330361030f57600f546001600160a01b031691823b156102fc576102ca6102b4966040519788968795869563034eb2e760e31b87526004356004880152602435602488015260443560448801526064356064880152608487015260e060a487015260e4860191612c35565b906003198483030160c485015260c05197612c35565b039160c051905af18015610302576102e3575b60c05180f35b60c0516102ef91612544565b60c0516102fc57386102dd565b60c05180fd5b6040513d60c051823e3d90fd5b631f0853c160e21b60c05152600460c051fd5b346102fc5760203660031901126102fc576102dd61033e612565565b610346612cdf565b612cb1565b346102fc5760c0513660031901126102fc5760c051546040516001600160a01b039091168152602090f35b346102fc5760403660031901126102fc576103ac60043561039561257b565b906103a76103a282612c79565b612d6b565b612e5e565b5060c05180f35b346102fc5760603660031901126102fc5760c051546001600160a01b0316330361030f576001600160a01b036103e7612efe565b16803b156102fc576040519063d4f6aa9360e01b82526004356004830152602435602483015260443560448301528160648160c0519360c051905af18015610302576104335760c05180f35b60c05161043f91612544565b60c0516102fc57806102dd565b346102fc5760c0513660031901126102fc57600f546040516001600160a01b039091168152602090f35b346102fc5760c03660031901126102fc5760643560058110156102fc5760c051546001600160a01b0316330361030f576001600160a01b036104b6612efe565b16803b156102fc576104f1604051926365e1220560e11b84526004356004850152602435602485015260443560448501526064840190612c12565b608435608483015260a43560a48301528160c48160c0519360c051905af18015610302576104335760c05180f35b346102fc5760c0513660031901126102fc576001546040516001600160a01b039091168152602090f35b346102fc5760c0513660031901126102fc5760206040516202a3008152f35b346102fc5760203660031901126102fc57610581612565565b610589612cdf565b6001600160a01b031680156105d457600d80546001600160a01b031990811690915560c051600e81905580549091168217815560008051602061307f8339815191529080a260c05180f35b63e6c4247b60e01b60c05152600460c051fd5b346102fc5760c0513660031901126102fc57600d546040516001600160a01b039091168152602090f35b346102fc5760403660031901126102fc576024356001600160401b0381116102fc576106419036906004016125f9565b60c051546001600160a01b0316913383900361030f576002546001600160a01b0316803b156102fc576106a393604051809581948293632958334360e21b8452600435600485015260248401526060604484015260c051966064840191612c35565b039160c051905af18015610302576104335760c05180f35b346102fc5760c0513660031901126102fc57602060405160c0518152f35b60c0513660031901126102fc576003546001600160a01b0316803b156102fc57604051906327809d8160e21b82528160048160c0519334905af18015610302576104335760c05180f35b346102fc5760403660031901126102fc5761073c61257b565b60043560c0515260008051602061309f833981519152602052604060c051209060018060a01b0316600052602052602060ff604060002054166040519015158152f35b346102fc5760c0513660031901126102fc576002546040516001600160a01b039091168152602090f35b346102fc5760c0513660031901126102fc5760008051602061305f833981519152546040516001600160a01b039091168152602090f35b346102fc5760603660031901126102fc5760c051546001600160a01b0316330361030f576002546001600160a01b0316803b156102fc5760405190632174b49d60e21b82526004356004830152602435602483015260443560448301528160648160c0519360c051905af18015610302576104335760c05180f35b346102fc5760c0513660031901126102fc57610875612cdf565b60026000805160206130bf83398151915254146109c45760026000805160206130bf833981519152556003546040516331b9e11160e01b815230600482015260c0519091602091839160249183916001600160a01b03165af1801561030257610990575b504780610924575b60207fbf976dfdcc1bcb99d72a443a84fc204cbfac2908d212dca660b55863a92bdd0391604051908152a160016000805160206130bf8339815191525560c05180f35b60c05160008051602061305f8339815191525481908190819085906001600160a01b03165af13d1561098b573d61095a816125a7565b906109686040519283612544565b815260c0513d916020013e5b6108e1576312171d8360e31b60c05152600460c051fd5b610974565b6020813d6020116109bc575b816109a960209383612544565b810103126109b757516108d9565b600080fd5b3d915061099c565b633ee5aeb560e01b60c05152600460c051fd5b346102fc5760203660031901126102fc576109f0612cdf565b6003546001600160a01b0316803b156102fc5760405190631d67c93d60e21b825260043560048301528160248160c0519360c051905af18015610302576104335760c05180f35b346102fc5760c0513660031901126102fc57600d54600e546202a3008101916001600160a01b0316908210610a755760409182519182526020820152f35b634e487b7160e01b60c051526011600452602460c051fd5b346102fc5760c0513660031901126102fc57610aa7612cdf565b60008051602061305f83398151915280546001600160a01b0319811690915560c051906001600160a01b03167f8be0079c531659141344cd1fd0a4f28419497f9722a3daafe3b4186f6b6457e08280a360c05180f35b346102fc576101203660031901126102fc576004356001600160401b0381116102fc57610b2e9036906004016125f9565b9060e0526024356001600160401b0381116102fc57610b519036906004016125f9565b90610100526044356001600160401b0381116102fc57610b759036906004016125f9565b90926064356001600160401b0381116102fc57610b969036906004016125f9565b6084356001600160401b0381116102fc57610bb59036906004016125f9565b91909360a4356001600160401b0381116102fc57610bd79036906004016125f9565b949060c4356001600160401b0381116102fc57610bf89036906004016125f9565b97909260e4356001600160401b0381116102fc57610c1a9036906004016125f9565b6080529b610104356001600160401b0381116102fc57610c3e9036906004016125f9565b9c9096610c49612cdf565b60405160a05260a051610c5b90612512565b3660e05191610c69926125c2565b60a05152366101005191610c7c926125c2565b9a60a0516020019b8c523690610c91926125c2565b9560a0516040019687523690610ca6926125c2565b9560a0516060019687523690610cbb926125c2565b9560a0516080019687523690610cd0926125c2565b9560a05160a0019687523690610ce5926125c2565b9760a05160c00198895236608051610cfc926125c2565b9660a05160e0019788523690610d11926125c2565b9460a0516101000195865260a051518051906001600160401b03821161114657610d3c600454612626565b601f8111611681575b506020906001601f84111461161557918091610d799360c0519261160a575b50508160011b916000199060031b1c19161790565b6004555b518051906001600160401b03821161114657610d9a600554612626565b601f81116115d5575b506020906001601f84111461156957918091610dd69360c0519261155e5750508160011b916000199060031b1c19161790565b6005555b518051906001600160401b03821161114657610df7600654612626565b601f8111611529575b506020906001601f8411146114bd57918091610e339360c051926114b25750508160011b916000199060031b1c19161790565b6006555b518051906001600160401b03821161114657610e54600754612626565b601f811161147d575b506020906001601f84111461141157918091610e909360c051926114065750508160011b916000199060031b1c19161790565b6007555b518051906001600160401b03821161114657610eb1600854612626565b601f81116113d1575b506020906001601f84111461136557918091610eed9360c0519261135a5750508160011b916000199060031b1c19161790565b6008555b519283516001600160401b03811161114657610f0e600954612626565b601f8111611325575b506020946001601f8311146112bb57610f4c92939495829160c051926112b05750508160011b916000199060031b1c19161790565b6009555b519182516001600160401b03811161114657610f6d600a54612626565b601f811161127b575b5060206001601f831114611211578190610fa993949560c051926112065750508160011b916000199060031b1c19161790565b600a555b519081516001600160401b03811161114657610fca600b54612626565b601f81116111d1575b506020926001601f831114611169576110069293829160c0519261115e5750508160011b916000199060031b1c19161790565b600b555b5180516001600160401b03811161114657611026600c54612626565b601f8111611106575b506020916001601f83111461109f5761106192829160c051926110945750508160011b916000199060031b1c19161790565b600c555b307fb01ce3352db8250e910be1c254a1a9fc249b00caf0a25b5b72ca70592023867e60c05160c051a260c05180f35b015190508380610d64565b601f19821692600c60c051528060c051209160c0515b8581106110ee575083600195106110d5575b505050811b01600c55611065565b015160001960f88460031b161c191690558280806110c7565b919260206001819286850151815501940192016110b5565b61113690600c60c05152602060c05120601f840160051c8101916020851061113c575b601f0160051c0190612c9a565b8261102f565b9091508190611129565b634e487b7160e01b60c051526041600452602460c051fd5b015190508480610d64565b601f19821693600b60c051528060c051209160c0515b8681106111b957508360019596106111a0575b505050811b01600b5561100a565b015160001960f88460031b161c19169055838080611192565b9192602060018192868501518155019401920161117f565b61120090600b60c05152602060c05120601f840160051c8101916020851061113c57601f0160051c0190612c9a565b83610fd3565b015190508580610d64565b601f19821690600a60c051528060c051209160c0515b8181106112635750958360019596971061124a575b505050811b01600a55610fad565b015160001960f88460031b161c1916905584808061123c565b9192602060018192868b015181550194019201611227565b6112aa90600a60c05152602060c05120601f840160051c8101916020851061113c57601f0160051c0190612c9a565b84610f76565b015190508680610d64565b601f19821695600960c051528060c051209160c0515b88811061130d575083600195969798106112f4575b505050811b01600955610f50565b015160001960f88460031b161c191690558580806112e6565b919260206001819286850151815501940192016112d1565b61135490600960c05152602060c05120601f840160051c8101916020851061113c57601f0160051c0190612c9a565b85610f17565b015190508780610d64565b90601f19831691600860c051528160c051209260c0515b8181106113b957509084600195949392106113a0575b505050811b01600855610ef1565b015160001960f88460031b161c19169055868080611392565b9293602060018192878601518155019501930161137c565b61140090600860c05152602060c05120601f850160051c8101916020861061113c57601f0160051c0190612c9a565b86610eba565b015190508880610d64565b90601f19831691600760c051528160c051209260c0515b818110611465575090846001959493921061144c575b505050811b01600755610e94565b015160001960f88460031b161c1916905587808061143e565b92936020600181928786015181550195019301611428565b6114ac90600760c05152602060c05120601f850160051c8101916020861061113c57601f0160051c0190612c9a565b87610e5d565b015190508980610d64565b90601f19831691600660c051528160c051209260c0515b81811061151157509084600195949392106114f8575b505050811b01600655610e37565b015160001960f88460031b161c191690558880806114ea565b929360206001819287860151815501950193016114d4565b61155890600660c05152602060c05120601f850160051c8101916020861061113c57601f0160051c0190612c9a565b88610e00565b015190508a80610d64565b90601f19831691600560c051528160c051209260c0515b8181106115bd57509084600195949392106115a4575b505050811b01600555610dda565b015160001960f88460031b161c19169055898080611596565b92936020600181928786015181550195019301611580565b61160490600560c05152602060c05120601f850160051c8101916020861061113c57601f0160051c0190612c9a565b89610da3565b015190508b80610d64565b90601f19831691600460c051528160c051209260c0515b8181106116695750908460019594939210611650575b505050811b01600455610d7d565b015160001960f88460031b161c191690558a8080611642565b9293602060018192878601518155019501930161162c565b6116b090600460c05152602060c05120601f850160051c8101916020861061113c57601f0160051c0190612c9a565b8a610d45565b346102fc5760c0513660031901126102fc576003546040516001600160a01b039091168152602090f35b346102fc5760c03660031901126102fc5760443560058110156102fc5760c051546001600160a01b0316330361030f576002546001600160a01b0316803b156102fc5761174e604051926303bd15f760e41b8452600435600485015260243560248501526044840190612c12565b6064356064830152608435608483015260a43560a48301528160c48160c0519360c051905af18015610302576104335760c05180f35b346102fc5760c0513660031901126102fc576040516117a281612512565b60608152602081016060905260408101606090526060810160609052608081016060905260a081016060905260c081016060905260e081016060905261010001606090526040516117f281612512565b6117fa612660565b8152611804612719565b90602081019182526118146127b0565b60408201908152611823612847565b606083019081526118326128de565b60808401908152611841612975565b60a08501908152611850612a0c565b9160c08601928352611860612aa3565b9360e08701948552611870612b3a565b95610100880196875260405198899860208a525160208a0161012090526101408a0161189b91612bd1565b9051898203601f190160408b01526118b39190612bd1565b9051888203601f190160608a01526118cb9190612bd1565b9051878203601f190160808901526118e39190612bd1565b9051868203601f190160a08801526118fb9190612bd1565b9051858203601f190160c08701526119139190612bd1565b9051848203601f190160e086015261192b9190612bd1565b9051838203601f19016101008501526119449190612bd1565b9051828203601f190161012084015261195d9190612bd1565b0390f35b346102fc5760403660031901126102fc5761197a61257b565b336001600160a01b03821603611996576103ac90600435612e5e565b63334bd91960e11b60c05152600460c051fd5b346102fc5760603660031901126102fc576119c2612565565b6119ca61257b565b6119d2612591565b916119db612cdf565b600280546001600160a01b03199081166001600160a01b0393841617909155600f805482169383169390931790925560038054909216921691909117905560c05180f35b346102fc5760c0513660031901126102fc576020600e54604051908152f35b346102fc5760403660031901126102fc576103ac600435611a5d61257b565b90611a6a6103a282612c79565b612db5565b346102fc5760c0513660031901126102fc57611a89612660565b611a91612719565b90611a9a6127b0565b611aa2612847565b611aaa6128de565b611ab2612975565b611aba612a0c565b91611ac3612aa3565b93611acc612b3a565b956040519889986101208a526101208a01611ae691612bd1565b89810360208b0152611af791612bd1565b88810360408a0152611b0891612bd1565b8781036060890152611b1991612bd1565b8681036080880152611b2a91612bd1565b85810360a0870152611b3b91612bd1565b84810360c0860152611b4c91612bd1565b83810360e0850152611b5d91612bd1565b82810361010084015261195d91612bd1565b346102fc5760203660031901126102fc576020611b8d600435612c79565b604051908152f35b346102fc5760c0513660031901126102fc57611baf612cdf565b600d80546001600160a01b031916905560c051600e81905533907eb334d48212744a72c175981c22526853650187117dd8a19a056744778e7bc79080a260c05180f35b346102fc5760a03660031901126102fc57611c0b612565565b611c1361257b565b611c1b612591565b6064356001600160a01b03811691908290036102fc576084356001600160a01b03811694908590036102fc576000805160206130df8339815191525460ff8160401c1615946001600160401b03821680159081611e03575b6001149081611df9575b159081611df0575b50611ddd5767ffffffffffffffff1982166001176000805160206130df83398151915255611cfc9186611db0575b50611cbc613030565b611cc4613030565b611ccd81612cb1565b611cd5613030565b611cdd613030565b611ce5613030565b60016000805160206130bf83398151915255612d15565b600180546001600160a01b03199081166001600160a01b039384161790915560c051805482168717815560038054831694909316939093179091556002805490911692909217909155604051929060008051602061307f8339815191529080a2611d665760c05180f35b6000805160206130df833981519152805460ff60401b19169055600181527fc7f505b2f371ae2175ee4913f4499e1f2633a7b5936321eed1cdaeb6115181d290602090a1806102dd565b68ffffffffffffffffff191668010000000000000001176000805160206130df8339815191525587611cb3565b63f92ee8a960e01b60c05152600460c051fd5b90501588611c85565b303b159150611c7d565b879150611c73565b346102fc5760203660031901126102fc57611e24612565565b611e2c612cdf565b6001600160a01b031680156105d457600d80546001600160a01b0319168217905542600e5560c0515460015460405163b94a11ad60e01b81526001600160a01b0392831692909160209183916004918391165afa9081156103025760c05191611ecb575b506020611ebe7f376f4d5124ea9a3be8826cad46fe7d789be0cea83c1255f6af14117b2d91302c9242612c56565b604051908152a360c05180f35b90506020813d602011611ef6575b81611ee660209383612544565b810103126109b757516020611e90565b3d9150611ed9565b346102fc5760c0513660031901126102fc57600d546001600160a01b03811690811561208957600e5460015460405163b94a11ad60e01b81529190602090839060049082906001600160a01b03165afa9081156103025760c05191612053575b611f689250612c56565b42106120405760008051602061305f833981519152546001600160a01b031633141580612036575b6120005760c05180546001600160a01b031980821685178355909216600d55600e81905582916001600160a01b0316907fb428daa4a99df59aa0fffe20e760468dadadddabc368805b6c1ef723d37688249080a360008051602061307f83398151915260c05160c051a260c05180f35b60405162461bcd60e51b815260206004820152600e60248201526d139bdd08185d5d1a1bdc9a5e995960921b6044820152606490fd5b5081331415611f90565b636f273c8d60e11b60c05152600460c051fd5b90506020823d602011612081575b8161206e60209383612544565b810103126109b757611f68915190611f5e565b3d9150612061565b639c2af11f60e01b60c05152600460c051fd5b346102fc5760a03660031901126102fc576064356001600160401b0381116102fc576120cc9036906004016125f9565b6084356001600160401b0381116102fc576120eb9036906004016125f9565b92909160018060a01b0360c05154169081330361030f576002546001600160a01b031691823b156102fc576106a361215f9660405197889687958695632af7cb7f60e01b8752600435600488015260243560248801526044356044880152606487015260c0608487015260c4860191612c35565b906003198483030160a485015260c05197612c35565b346102fc5760203660031901126102fc576004356001600160401b0381116102fc5760e060031982360301126102fc5760405160e081018181106001600160401b03821117611146576040528160040135815260208101906024830135825260408101926044810135845260608201936064820135855260808301916084810135835260a48101359060058210156102fc5760a0850191825260c4810135906001600160401b0382116102fc570192366023850112156102fc576004840135936001600160401b038511611146578460051b90604051956122596020840188612544565b865260208601918101602401903682116102fc5760248101925b8284106123e2575050505060c085810194855251546001600160a01b0316330361030f576002546001600160a01b031696873b156102fc576122f393604051976303d1491760e01b8952602060048a01526101048901975160248a01525160448901525160648801525160848701525160a48601525160c4850190612c12565b519060e060e48401528151809152610124830160206101248360051b86010193019160c0515b8181106123505760c05186908180880381838c5af180156103025761233e5760c05180f35b60c05161234a91612544565b806102dd565b9091929361012319868203018452845190815160028110156123ca576001928260209392849352848060a01b038383015116838201526040820151604082015260a0806123ac606085015160c0606086015260c0850190612bd1565b60808086015115159085015293015191015296019401929101612319565b634e487b7160e01b60c051526021600452602460c051fd5b83356001600160401b0381116102fc5760049083010160c0601f1982360301126102fc576040519160c083018381106001600160401b0382111761114657604052602082013560028110156102fc57835260408201356001600160a01b03811681036102fc5760208401526060820135604084015260808201356001600160401b0381116102fc5760209083010136601f820112156102fc5761248c9036906020813591016125c2565b606084015260a08201359283151584036102fc5760c06020949385946080840152013560a0820152815201930192612273565b346102fc5760203660031901126102fc576004359063ffffffff60e01b82168092036102fc57602091637965db0b60e01b8114908115612501575b5015158152f35b6301ffc9a760e01b149050836124fa565b61012081019081106001600160401b0382111761252e57604052565b634e487b7160e01b600052604160045260246000fd5b90601f801991011681019081106001600160401b0382111761252e57604052565b600435906001600160a01b03821682036109b757565b602435906001600160a01b03821682036109b757565b604435906001600160a01b03821682036109b757565b6001600160401b03811161252e57601f01601f191660200190565b9291926125ce826125a7565b916125dc6040519384612544565b8294818452818301116109b7578281602093846000960137010152565b9181601f840112156109b7578235916001600160401b0383116109b757602083818601950101116109b757565b90600182811c92168015612656575b602083101461264057565b634e487b7160e01b600052602260045260246000fd5b91607f1691612635565b604051906000826004549161267483612626565b80835292600181169081156126fa575060011461269a575b61269892500383612544565b565b506004600090815290917f8a35acfbc15ff81a39ae7d344fd709f28e8600b4aa8c65c6b64bfe7fe36bd19b5b8183106126de5750509060206126989282010161268c565b60209193508060019154838589010152019101909184926126c6565b6020925061269894915060ff191682840152151560051b82010161268c565b604051906000826005549161272d83612626565b80835292600181169081156126fa57506001146127505761269892500383612544565b506005600090815290917f036b6384b5eca791c62761152d0c79bb0604c104a5fb6f4eb0703f3154bb3db05b8183106127945750509060206126989282010161268c565b602091935080600191548385890101520191019091849261277c565b60405190600082600654916127c483612626565b80835292600181169081156126fa57506001146127e75761269892500383612544565b506006600090815290917ff652222313e28459528d920b65115c16c04f3efc82aaedc97be59f3f377c0d3f5b81831061282b5750509060206126989282010161268c565b6020919350806001915483858901015201910190918492612813565b604051906000826007549161285b83612626565b80835292600181169081156126fa575060011461287e5761269892500383612544565b506007600090815290917fa66cc928b5edb82af9bd49922954155ab7b0942694bea4ce44661d9a8736c6885b8183106128c25750509060206126989282010161268c565b60209193508060019154838589010152019101909184926128aa565b60405190600082600854916128f283612626565b80835292600181169081156126fa57506001146129155761269892500383612544565b506008600090815290917ff3f7a9fe364faab93b216da50a3214154f22a0a2b415b23a84c8169e8b636ee35b8183106129595750509060206126989282010161268c565b6020919350806001915483858901015201910190918492612941565b604051906000826009549161298983612626565b80835292600181169081156126fa57506001146129ac5761269892500383612544565b506009600090815290917f6e1540171b6c0c960b71a7020d9f60077f6af931a8bbf590da0223dacf75c7af5b8183106129f05750509060206126989282010161268c565b60209193508060019154838589010152019101909184926129d8565b60405190600082600a5491612a2083612626565b80835292600181169081156126fa5750600114612a435761269892500383612544565b50600a600090815290917fc65a7bb8d6351c1cf70c95a316cc6a92839c986682d98bc35f958f4883f9d2a85b818310612a875750509060206126989282010161268c565b6020919350806001915483858901015201910190918492612a6f565b60405190600082600b5491612ab783612626565b80835292600181169081156126fa5750600114612ada5761269892500383612544565b50600b600090815290917f0175b7a638427703f0dbe7bb9bbf987a2551717b34e79f33b5b1008d1fa01db95b818310612b1e5750509060206126989282010161268c565b6020919350806001915483858901015201910190918492612b06565b60405190600082600c5491612b4e83612626565b80835292600181169081156126fa5750600114612b715761269892500383612544565b50600c600090815290917fdf6966c971051c3d54ec59162606531493a51404a002842f56009d7e5cf4a8c75b818310612bb55750509060206126989282010161268c565b6020919350806001915483858901015201910190918492612b9d565b919082519283825260005b848110612bfd575050826000602080949584010152601f8019910116010190565b80602080928401015182828601015201612bdc565b906005821015612c1f5752565b634e487b7160e01b600052602160045260246000fd5b908060209392818452848401376000828201840152601f01601f1916010190565b91908201809211612c6357565b634e487b7160e01b600052601160045260246000fd5b60005260008051602061309f83398151915260205260016040600020015490565b818110612ca5575050565b60008155600101612c9a565b6001600160a01b03811615612cc95761269890612d15565b631e4fbdf760e01b600052600060045260246000fd5b60008051602061305f833981519152546001600160a01b03163303612d0057565b63118cdaa760e01b6000523360045260246000fd5b60008051602061305f83398151915280546001600160a01b039283166001600160a01b0319821681179092559091167f8be0079c531659141344cd1fd0a4f28419497f9722a3daafe3b4186f6b6457e0600080a3565b600081815260008051602061309f8339815191526020908152604080832033845290915290205460ff1615612d9d5750565b63e2517d3f60e01b6000523360045260245260446000fd5b600081815260008051602061309f833981519152602090815260408083206001600160a01b038616845290915290205460ff16612e5757600081815260008051602061309f833981519152602090815260408083206001600160a01b0395909516808452949091528120805460ff19166001179055339291907f2f8788117e7eff1d82e926ec794901d17c78024a50270940304540a733656f0d9080a4600190565b5050600090565b600081815260008051602061309f833981519152602090815260408083206001600160a01b038616845290915290205460ff1615612e5757600081815260008051602061309f833981519152602090815260408083206001600160a01b0395909516808452949091528120805460ff19169055339291907ff6391f5c32d9c69d2a47ea670b442974b53935d1edc7fd64eb21e047a839171b9080a4600190565b600254604051632a49798160e11b815290602090829060049082906001600160a01b03165afa908115612fe157600091612fed575b50604051631bae711d60e21b8152602060048201819052600e60248301526d151c9a589d5b985b105c1c19585b60921b60448301529091829060649082906001600160a01b03165afa908115612fe157600091612f98575b506001600160a01b031690565b6020813d602011612fd9575b81612fb160209383612544565b81010312612fd55751906001600160a01b0382168203612fd2575038612f8b565b80fd5b5080fd5b3d9150612fa4565b6040513d6000823e3d90fd5b6020813d602011613028575b8161300660209383612544565b81010312612fd55751906001600160a01b0382168203612fd257506020612f33565b3d9150612ff9565b60ff6000805160206130df8339815191525460401c161561304d57565b631afcd79f60e31b60005260046000fdfe9016d09d72d40fdae2fd8ceac6b6234c7706214fd39c1cd1e609a0528c19930099d737e0adf2c449d71890b86772885ec7959b152ddb265f76325b6e68e105d302dd7bc7dec4dceedda775e58dd541e08a116c6c53815c0bd028192f7b6268009b779b17422d0df92223018b32b4d1fa46e071723d6817e2486d003becc55f00f0c57e16840df040f15088dc2f81fe391c3923bec73e23a9662efc9c229c6a00a2646970667358221220309df93cfa4ed85a0e0c720e287ba08ae959844c5b9713cae4840c68ed5fc82264736f6c634300081c0033",
  "linkReferences": {},
  "deployedLinkReferences": {}
}