{
  "_format": "hh-sol-artifact-1",
  "contractName": "Voting",
  "sourceName": "contracts/transactions/Voting.sol",
  "abi": [
    {
      "inputs": [
        {
          "internalType": "bytes32",
          "name": "leaderExecutionHash",
          "type": "bytes32"
        },
        {
          "internalType": "enum ITransactions.VoteType[]",
          "name": "validatorVotes",
          "type": "uint8[]"
        },
        {
          "internalType": "bytes32[]",
          "name": "validatorResultHash",
          "type": "bytes32[]"
        }
      ],
      "name": "getMajorityVote",
      "outputs": [
        {
          "internalType": "enum ITransactions.ResultType",
          "name": "result",
          "type": "uint8"
        }
      ],
      "stateMutability": "pure",
      "type": "function"
    },
    {
      "inputs": [
        {
          "internalType": "uint256",
          "name": "numberOfOriginalValidators",
          "type": "uint256"
        },
        {
          "internalType": "uint256[]",
          "name": "voteCounts",
          "type": "uint256[]"
        },
        {
          "internalType": "uint256",
          "name": "numberOfTribunalValidators",
          "type": "uint256"
        }
      ],
      "name": "getMajorityVoteForTribunal",
      "outputs": [
        {
          "internalType": "enum ITribunalAppeal.TribunalResultType",
          "name": "result",
          "type": "uint8"
        }
      ],
      "stateMutability": "pure",
      "type": "function"
    }
  ],
  "bytecode": "0x608080604052346015576104fd908161001b8239f35b600080fdfe6080604052600436101561001257600080fd5b60003560e01c8063b9b04a5a146102d05763e5cc50b01461003257600080fd5b346102b25760603660031901126102b25760243560043567ffffffffffffffff82116102b257366023830112156102b257816004013561007961007482610429565b6103ed565b926024602085848152019260051b820101903682116102b257602401915b8183106102b7575050506044359167ffffffffffffffff83116102b257366023840112156102b2578260040135926100d161007485610429565b936024602086838152019160051b830101913683116102b257602401905b8282106102a25750505060009181519261010960c06103ed565b926005845260a0366020860137815b815181101561021b5761013361012e8284610497565b6104ab565b60058110156101e85760011480156101fc575b1561019d578061015860019289610497565b5185036101825761017161016b87610487565b516104b8565b61017a87610487565b525b01610118565b61018e61016b87610477565b61019787610477565b5261017c565b6101aa61012e8284610497565b60058110156101e857600191906003036101d3576101ca61016b87610467565b61019787610467565b6101df61016b87610441565b61019787610441565b634e487b7160e01b84526021600452602484fd5b5061020a61012e8284610497565b60058110156101e857600214610146565b8583868182835b835181101561026457826102368286610497565b5111610245575b600101610222565b809250610253915083610497565b519060068110156101e8578061023d565b5090600185901c1061029d575060055b6040516006821015610287576020918152f35b634e487b7160e01b600052602160045260246000fd5b610274565b81358152602091820191016100ef565b600080fd5b823560058110156102b257815260209283019201610097565b346102b25760603660031901126102b25760243560043567ffffffffffffffff82116102b257366023830112156102b25781600401359161031361007484610429565b926024602085838152019160051b830101913683116102b257602401905b8282106103dd575050506000916000805b600381101561037b57846103568285610497565b5111610365575b600101610342565b809450610373915082610497565b51928061035d565b508360443584018085116103c75760011c10156103bf576003811015610287576001036103b85760025b6040516004821015610287576020918152f35b60036103a5565b5060016103a5565b634e487b7160e01b600052601160045260246000fd5b8135815260209182019101610331565b6040519190601f01601f1916820167ffffffffffffffff81118382101761041357604052565b634e487b7160e01b600052604160045260246000fd5b67ffffffffffffffff81116104135760051b60200190565b8051600210156104515760600190565b634e487b7160e01b600052603260045260246000fd5b8051600310156104515760800190565b8051600410156104515760a00190565b8051600110156104515760400190565b80518210156104515760209160051b010190565b5160058110156102875790565b60001981146103c7576001019056fea264697066735822122021d3e20e90a4bf803889507e4e88794082a72331c2363e9bc2e364359f6b7ca364736f6c634300081c0033",
  "linkReferences": {},
  "deployedLinkReferences": {}
}