{
  "_format": "hh-sol-artifact-1",
  "contractName": "GENProxy",
  "sourceName": "contracts/staking/GENProxy.sol",
  "abi": [
    {
      "inputs": [
        {
          "internalType": "address",
          "name": "target",
          "type": "address"
        }
      ],
      "name": "AddressEmptyCode",
      "type": "error"
    },
    {
      "inputs": [
        {
          "internalType": "address",
          "name": "implementation",
          "type": "address"
        }
      ],
      "name": "ERC1967InvalidImplementation",
      "type": "error"
    },
    {
      "inputs": [],
      "name": "ERC1967NonPayable",
      "type": "error"
    },
    {
      "inputs": [],
      "name": "FailedCall",
      "type": "error"
    },
    {
      "anonymous": false,
      "inputs": [
        {
          "indexed": true,
          "internalType": "address",
          "name": "implementation",
          "type": "address"
        }
      ],
      "name": "Upgraded",
      "type": "event"
    },
    {
      "stateMutability": "payable",
      "type": "fallback"
    },
    {
      "inputs": [
        {
          "internalType": "address",
          "name": "implementation",
          "type": "address"
        },
        {
          "internalType": "bytes",
          "name": "_data",
          "type": "bytes"
        }
      ],
      "name": "initialize",
      "outputs": [],
      "stateMutability": "payable",
      "type": "function"
    },
    {
      "stateMutability": "payable",
      "type": "receive"
    }
  ],
  "bytecode": "0x608080604052346015576102fa908161001b8239f35b600080fdfe60806040526004361015610015575b366101cd57005b60003560e01c63d1f578940361000e5760403660031901126100a5576004356001600160a01b03811681036100a5576024359067ffffffffffffffff82116100a557366023830112156100a557816004013590610079610074836100eb565b6100c0565b9180835236602482860101116100a55760208160009260246100a397018387013784010152610107565b005b600080fd5b634e487b7160e01b600052604160045260246000fd5b6040519190601f01601f1916820167ffffffffffffffff8111838210176100e657604052565b6100aa565b67ffffffffffffffff81116100e657601f01601f191660200190565b6000805160206102a5833981519152549091906001600160a01b0381161561012e57505050565b823b156101ae576001600160a01b0319166001600160a01b0383169081176000805160206102a5833981519152557fbc7cd75a20ee27fd9adebab32041f755214dbc6bffa90cc0225b39da2e5c2d3b600080a28051156101955761019191610208565b505b565b505034156101935763b398979f60e01b60005260046000fd5b634c9c8ce360e01b60009081526001600160a01b038416600452602490fd5b6000805160206102a58339815191525460009081906001600160a01b0316368280378136915af43d6000803e15610203573d6000f35b3d6000fd5b60008061023c93602081519101845af43d1561023f573d9161022c610074846100eb565b9283523d6000602085013e610243565b90565b6060915b90610269575080511561025857805190602001fd5b63d6bda27560e01b60005260046000fd5b8151158061029b575b61027a575090565b639996b31560e01b60009081526001600160a01b0391909116600452602490fd5b50803b1561027256fe360894a13ba1a3210667c828492db98dca3e2076cc3735a920a3ca505d382bbca2646970667358221220ef8b630811173aba4b68a406d4868e6ab7cbab9a2b7598a6237a61f9cc2858dc64736f6c634300081c0033",
  "linkReferences": {},
  "deployedLinkReferences": {}
}