{
  "_format": "hh-sol-artifact-1",
  "contractName": "GENShim",
  "sourceName": "contracts/staking/GENShim.sol",
  "abi": [
    {
      "inputs": [],
      "name": "AccessControlBadConfirmation",
      "type": "error"
    },
    {
      "inputs": [
        {
          "internalType": "address",
          "name": "account",
          "type": "address"
        },
        {
          "internalType": "bytes32",
          "name": "neededRole",
          "type": "bytes32"
        }
      ],
      "name": "AccessControlUnauthorizedAccount",
      "type": "error"
    },
    {
      "inputs": [],
      "name": "AccountsArrayEmpty",
      "type": "error"
    },
    {
      "inputs": [
        {
          "internalType": "address",
          "name": "target",
          "type": "address"
        }
      ],
      "name": "AddressEmptyCode",
      "type": "error"
    },
    {
      "inputs": [],
      "name": "AmountMustBeGreaterThan0",
      "type": "error"
    },
    {
      "inputs": [],
      "name": "CanOnlyTriggerInflationMaxTenEpochsInFuture",
      "type": "error"
    },
    {
      "inputs": [
        {
          "internalType": "address",
          "name": "implementation",
          "type": "address"
        }
      ],
      "name": "ERC1967InvalidImplementation",
      "type": "error"
    },
    {
      "inputs": [],
      "name": "ERC1967NonPayable",
      "type": "error"
    },
    {
      "inputs": [
        {
          "internalType": "address",
          "name": "spender",
          "type": "address"
        },
        {
          "internalType": "uint256",
          "name": "allowance",
          "type": "uint256"
        },
        {
          "internalType": "uint256",
          "name": "needed",
          "type": "uint256"
        }
      ],
      "name": "ERC20InsufficientAllowance",
      "type": "error"
    },
    {
      "inputs": [
        {
          "internalType": "address",
          "name": "sender",
          "type": "address"
        },
        {
          "internalType": "uint256",
          "name": "balance",
          "type": "uint256"
        },
        {
          "internalType": "uint256",
          "name": "needed",
          "type": "uint256"
        }
      ],
      "name": "ERC20InsufficientBalance",
      "type": "error"
    },
    {
      "inputs": [
        {
          "internalType": "address",
          "name": "approver",
          "type": "address"
        }
      ],
      "name": "ERC20InvalidApprover",
      "type": "error"
    },
    {
      "inputs": [
        {
          "internalType": "address",
          "name": "receiver",
          "type": "address"
        }
      ],
      "name": "ERC20InvalidReceiver",
      "type": "error"
    },
    {
      "inputs": [
        {
          "internalType": "address",
          "name": "sender",
          "type": "address"
        }
      ],
      "name": "ERC20InvalidSender",
      "type": "error"
    },
    {
      "inputs": [
        {
          "internalType": "address",
          "name": "spender",
          "type": "address"
        }
      ],
      "name": "ERC20InvalidSpender",
      "type": "error"
    },
    {
      "inputs": [],
      "name": "FailedCall",
      "type": "error"
    },
    {
      "inputs": [],
      "name": "InflationInitialized",
      "type": "error"
    },
    {
      "inputs": [],
      "name": "InflationNotReadyToBeRealized",
      "type": "error"
    },
    {
      "inputs": [],
      "name": "InitialMintAlreadyCalled",
      "type": "error"
    },
    {
      "inputs": [],
      "name": "InvalidInitialization",
      "type": "error"
    },
    {
      "inputs": [],
      "name": "L2BaseGasCostQueryFailed",
      "type": "error"
    },
    {
      "inputs": [],
      "name": "L2TransactionRequestFailed",
      "type": "error"
    },
    {
      "inputs": [],
      "name": "NotInitializing",
      "type": "error"
    },
    {
      "inputs": [
        {
          "internalType": "address",
          "name": "owner",
          "type": "address"
        }
      ],
      "name": "OwnableInvalidOwner",
      "type": "error"
    },
    {
      "inputs": [
        {
          "internalType": "address",
          "name": "account",
          "type": "address"
        }
      ],
      "name": "OwnableUnauthorizedAccount",
      "type": "error"
    },
    {
      "inputs": [],
      "name": "TotalDistributionMustBe100",
      "type": "error"
    },
    {
      "inputs": [],
      "name": "UUPSUnauthorizedCallContext",
      "type": "error"
    },
    {
      "inputs": [
        {
          "internalType": "bytes32",
          "name": "slot",
          "type": "bytes32"
        }
      ],
      "name": "UUPSUnsupportedProxiableUUID",
      "type": "error"
    },
    {
      "anonymous": false,
      "inputs": [
        {
          "indexed": true,
          "internalType": "address",
          "name": "owner",
          "type": "address"
        },
        {
          "indexed": true,
          "internalType": "address",
          "name": "spender",
          "type": "address"
        },
        {
          "indexed": false,
          "internalType": "uint256",
          "name": "value",
          "type": "uint256"
        }
      ],
      "name": "Approval",
      "type": "event"
    },
    {
      "anonymous": false,
      "inputs": [
        {
          "indexed": true,
          "internalType": "address",
          "name": "_genLayerStaking",
          "type": "address"
        }
      ],
      "name": "GenLayerStakingSet",
      "type": "event"
    },
    {
      "anonymous": false,
      "inputs": [
        {
          "indexed": false,
          "internalType": "uint256",
          "name": "_l2GasPrice",
          "type": "uint256"
        },
        {
          "indexed": false,
          "internalType": "uint256",
          "name": "_l2GasLimit",
          "type": "uint256"
        }
      ],
      "name": "InflationInit",
      "type": "event"
    },
    {
      "anonymous": false,
      "inputs": [],
      "name": "InflationReset",
      "type": "event"
    },
    {
      "anonymous": false,
      "inputs": [
        {
          "indexed": false,
          "internalType": "uint256",
          "name": "_epochTo",
          "type": "uint256"
        },
        {
          "indexed": false,
          "internalType": "uint256",
          "name": "_l2GasPrice",
          "type": "uint256"
        },
        {
          "indexed": false,
          "internalType": "uint256",
          "name": "_l2GasLimit",
          "type": "uint256"
        }
      ],
      "name": "InflationTrigger",
      "type": "event"
    },
    {
      "anonymous": false,
      "inputs": [],
      "name": "InitialMintCalled",
      "type": "event"
    },
    {
      "anonymous": false,
      "inputs": [
        {
          "indexed": false,
          "internalType": "uint64",
          "name": "version",
          "type": "uint64"
        }
      ],
      "name": "Initialized",
      "type": "event"
    },
    {
      "anonymous": false,
      "inputs": [
        {
          "indexed": false,
          "internalType": "uint256",
          "name": "_batchNumber",
          "type": "uint256"
        },
        {
          "indexed": false,
          "internalType": "uint256",
          "name": "_txIndex",
          "type": "uint256"
        },
        {
          "indexed": false,
          "internalType": "uint16",
          "name": "_batchIndex",
          "type": "uint16"
        },
        {
          "indexed": false,
          "internalType": "uint256",
          "name": "_amount",
          "type": "uint256"
        }
      ],
      "name": "L2MessageExecuted",
      "type": "event"
    },
    {
      "anonymous": false,
      "inputs": [
        {
          "indexed": true,
          "internalType": "address",
          "name": "previousOwner",
          "type": "address"
        },
        {
          "indexed": true,
          "internalType": "address",
          "name": "newOwner",
          "type": "address"
        }
      ],
      "name": "OwnershipTransferred",
      "type": "event"
    },
    {
      "anonymous": false,
      "inputs": [
        {
          "indexed": true,
          "internalType": "bytes32",
          "name": "role",
          "type": "bytes32"
        },
        {
          "indexed": true,
          "internalType": "bytes32",
          "name": "previousAdminRole",
          "type": "bytes32"
        },
        {
          "indexed": true,
          "internalType": "bytes32",
          "name": "newAdminRole",
          "type": "bytes32"
        }
      ],
      "name": "RoleAdminChanged",
      "type": "event"
    },
    {
      "anonymous": false,
      "inputs": [
        {
          "indexed": true,
          "internalType": "bytes32",
          "name": "role",
          "type": "bytes32"
        },
        {
          "indexed": true,
          "internalType": "address",
          "name": "account",
          "type": "address"
        },
        {
          "indexed": true,
          "internalType": "address",
          "name": "sender",
          "type": "address"
        }
      ],
      "name": "RoleGranted",
      "type": "event"
    },
    {
      "anonymous": false,
      "inputs": [
        {
          "indexed": true,
          "internalType": "bytes32",
          "name": "role",
          "type": "bytes32"
        },
        {
          "indexed": true,
          "internalType": "address",
          "name": "account",
          "type": "address"
        },
        {
          "indexed": true,
          "internalType": "address",
          "name": "sender",
          "type": "address"
        }
      ],
      "name": "RoleRevoked",
      "type": "event"
    },
    {
      "anonymous": false,
      "inputs": [
        {
          "indexed": true,
          "internalType": "address",
          "name": "_timelockFactory",
          "type": "address"
        }
      ],
      "name": "TimelockFactorySet",
      "type": "event"
    },
    {
      "anonymous": false,
      "inputs": [
        {
          "indexed": true,
          "internalType": "address",
          "name": "from",
          "type": "address"
        },
        {
          "indexed": true,
          "internalType": "address",
          "name": "to",
          "type": "address"
        },
        {
          "indexed": false,
          "internalType": "uint256",
          "name": "value",
          "type": "uint256"
        }
      ],
      "name": "Transfer",
      "type": "event"
    },
    {
      "anonymous": false,
      "inputs": [
        {
          "indexed": true,
          "internalType": "address",
          "name": "implementation",
          "type": "address"
        }
      ],
      "name": "Upgraded",
      "type": "event"
    },
    {
      "anonymous": false,
      "inputs": [
        {
          "indexed": true,
          "internalType": "address",
          "name": "_zkSyncL1AssetRouter",
          "type": "address"
        },
        {
          "indexed": true,
          "internalType": "address",
          "name": "_zkSyncBridgeHub",
          "type": "address"
        },
        {
          "indexed": true,
          "internalType": "address",
          "name": "_zksyncSharedBridge",
          "type": "address"
        }
      ],
      "name": "ZkSyncContractsSet",
      "type": "event"
    },
    {
      "inputs": [],
      "name": "BURNER_ROLE",
      "outputs": [
        {
          "internalType": "bytes32",
          "name": "",
          "type": "bytes32"
        }
      ],
      "stateMutability": "view",
      "type": "function"
    },
    {
      "inputs": [],
      "name": "BURN_SELECTOR",
      "outputs": [
        {
          "internalType": "bytes4",
          "name": "",
          "type": "bytes4"
        }
      ],
      "stateMutability": "view",
      "type": "function"
    },
    {
      "inputs": [],
      "name": "DEFAULT_ADMIN_ROLE",
      "outputs": [
        {
          "internalType": "bytes32",
          "name": "",
          "type": "bytes32"
        }
      ],
      "stateMutability": "view",
      "type": "function"
    },
    {
      "inputs": [],
      "name": "GENLAYER_CHAIN_ID",
      "outputs": [
        {
          "internalType": "uint256",
          "name": "",
          "type": "uint256"
        }
      ],
      "stateMutability": "view",
      "type": "function"
    },
    {
      "inputs": [],
      "name": "GENToken",
      "outputs": [
        {
          "internalType": "contract IGenLayerToken",
          "name": "",
          "type": "address"
        }
      ],
      "stateMutability": "view",
      "type": "function"
    },
    {
      "inputs": [],
      "name": "INFLATION_BASE",
      "outputs": [
        {
          "internalType": "uint256",
          "name": "",
          "type": "uint256"
        }
      ],
      "stateMutability": "view",
      "type": "function"
    },
    {
      "inputs": [],
      "name": "INFLATION_DECAY_DELTA",
      "outputs": [
        {
          "internalType": "uint256",
          "name": "",
          "type": "uint256"
        }
      ],
      "stateMutability": "view",
      "type": "function"
    },
    {
      "inputs": [],
      "name": "INFLATION_DECAY_EPOCHS",
      "outputs": [
        {
          "internalType": "uint256",
          "name": "",
          "type": "uint256"
        }
      ],
      "stateMutability": "view",
      "type": "function"
    },
    {
      "inputs": [],
      "name": "INFLATION_EPOCH_DURATION",
      "outputs": [
        {
          "internalType": "uint256",
          "name": "",
          "type": "uint256"
        }
      ],
      "stateMutability": "view",
      "type": "function"
    },
    {
      "inputs": [],
      "name": "INFLATION_FINAL",
      "outputs": [
        {
          "internalType": "uint256",
          "name": "",
          "type": "uint256"
        }
      ],
      "stateMutability": "view",
      "type": "function"
    },
    {
      "inputs": [],
      "name": "INFLATION_INCEPTION",
      "outputs": [
        {
          "internalType": "uint256",
          "name": "",
          "type": "uint256"
        }
      ],
      "stateMutability": "view",
      "type": "function"
    },
    {
      "inputs": [],
      "name": "INFLATION_INITIAL",
      "outputs": [
        {
          "internalType": "uint256",
          "name": "",
          "type": "uint256"
        }
      ],
      "stateMutability": "view",
      "type": "function"
    },
    {
      "inputs": [],
      "name": "INFLATION_MID",
      "outputs": [
        {
          "internalType": "int256",
          "name": "",
          "type": "int256"
        }
      ],
      "stateMutability": "view",
      "type": "function"
    },
    {
      "inputs": [],
      "name": "INFLATION_STEEPNESS",
      "outputs": [
        {
          "internalType": "int256",
          "name": "",
          "type": "int256"
        }
      ],
      "stateMutability": "view",
      "type": "function"
    },
    {
      "inputs": [],
      "name": "INITIAL_SUPPLY",
      "outputs": [
        {
          "internalType": "uint256",
          "name": "",
          "type": "uint256"
        }
      ],
      "stateMutability": "view",
      "type": "function"
    },
    {
      "inputs": [],
      "name": "MINTER_ROLE",
      "outputs": [
        {
          "internalType": "bytes32",
          "name": "",
          "type": "bytes32"
        }
      ],
      "stateMutability": "view",
      "type": "function"
    },
    {
      "inputs": [],
      "name": "ONE",
      "outputs": [
        {
          "internalType": "uint256",
          "name": "",
          "type": "uint256"
        }
      ],
      "stateMutability": "view",
      "type": "function"
    },
    {
      "inputs": [],
      "name": "UPGRADE_INTERFACE_VERSION",
      "outputs": [
        {
          "internalType": "string",
          "name": "",
          "type": "string"
        }
      ],
      "stateMutability": "view",
      "type": "function"
    },
    {
      "inputs": [],
      "name": "VERSION",
      "outputs": [
        {
          "internalType": "uint256",
          "name": "",
          "type": "uint256"
        }
      ],
      "stateMutability": "view",
      "type": "function"
    },
    {
      "inputs": [],
      "name": "ZKSYNC_BRIDGE_HUB",
      "outputs": [
        {
          "internalType": "contract IBridgeHub",
          "name": "",
          "type": "address"
        }
      ],
      "stateMutability": "view",
      "type": "function"
    },
    {
      "inputs": [],
      "name": "ZKSYNC_L1_ASSET_ROUTER",
      "outputs": [
        {
          "internalType": "address",
          "name": "",
          "type": "address"
        }
      ],
      "stateMutability": "view",
      "type": "function"
    },
    {
      "inputs": [],
      "name": "ZKSYNC_SHARED_BRIDGE",
      "outputs": [
        {
          "internalType": "contract ISharedBridge",
          "name": "",
          "type": "address"
        }
      ],
      "stateMutability": "view",
      "type": "function"
    },
    {
      "inputs": [
        {
          "internalType": "address",
          "name": "owner",
          "type": "address"
        },
        {
          "internalType": "address",
          "name": "spender",
          "type": "address"
        }
      ],
      "name": "allowance",
      "outputs": [
        {
          "internalType": "uint256",
          "name": "",
          "type": "uint256"
        }
      ],
      "stateMutability": "view",
      "type": "function"
    },
    {
      "inputs": [
        {
          "internalType": "address",
          "name": "spender",
          "type": "address"
        },
        {
          "internalType": "uint256",
          "name": "amount",
          "type": "uint256"
        }
      ],
      "name": "approve",
      "outputs": [
        {
          "internalType": "bool",
          "name": "",
          "type": "bool"
        }
      ],
      "stateMutability": "nonpayable",
      "type": "function"
    },
    {
      "inputs": [
        {
          "internalType": "address",
          "name": "account",
          "type": "address"
        }
      ],
      "name": "balanceOf",
      "outputs": [
        {
          "internalType": "uint256",
          "name": "",
          "type": "uint256"
        }
      ],
      "stateMutability": "view",
      "type": "function"
    },
    {
      "inputs": [
        {
          "internalType": "uint256",
          "name": "amount",
          "type": "uint256"
        }
      ],
      "name": "burn",
      "outputs": [],
      "stateMutability": "nonpayable",
      "type": "function"
    },
    {
      "inputs": [],
      "name": "burn",
      "outputs": [],
      "stateMutability": "nonpayable",
      "type": "function"
    },
    {
      "inputs": [],
      "name": "decimals",
      "outputs": [
        {
          "internalType": "uint8",
          "name": "",
          "type": "uint8"
        }
      ],
      "stateMutability": "view",
      "type": "function"
    },
    {
      "inputs": [
        {
          "internalType": "uint256",
          "name": "_batchNumber",
          "type": "uint256"
        },
        {
          "internalType": "uint256",
          "name": "_txIndex",
          "type": "uint256"
        },
        {
          "internalType": "uint16",
          "name": "_batchIndex",
          "type": "uint16"
        },
        {
          "internalType": "uint256",
          "name": "_amount",
          "type": "uint256"
        },
        {
          "internalType": "bytes32[]",
          "name": "_proof",
          "type": "bytes32[]"
        }
      ],
      "name": "executeL2Message",
      "outputs": [],
      "stateMutability": "nonpayable",
      "type": "function"
    },
    {
      "inputs": [],
      "name": "genLayerStaking",
      "outputs": [
        {
          "internalType": "address",
          "name": "",
          "type": "address"
        }
      ],
      "stateMutability": "view",
      "type": "function"
    },
    {
      "inputs": [
        {
          "internalType": "bytes32",
          "name": "role",
          "type": "bytes32"
        }
      ],
      "name": "getRoleAdmin",
      "outputs": [
        {
          "internalType": "bytes32",
          "name": "",
          "type": "bytes32"
        }
      ],
      "stateMutability": "view",
      "type": "function"
    },
    {
      "inputs": [
        {
          "internalType": "bytes32",
          "name": "role",
          "type": "bytes32"
        },
        {
          "internalType": "address",
          "name": "account",
          "type": "address"
        }
      ],
      "name": "grantRole",
      "outputs": [],
      "stateMutability": "nonpayable",
      "type": "function"
    },
    {
      "inputs": [
        {
          "internalType": "bytes32",
          "name": "role",
          "type": "bytes32"
        },
        {
          "internalType": "address",
          "name": "account",
          "type": "address"
        }
      ],
      "name": "hasRole",
      "outputs": [
        {
          "internalType": "bool",
          "name": "",
          "type": "bool"
        }
      ],
      "stateMutability": "view",
      "type": "function"
    },
    {
      "inputs": [],
      "name": "implementation",
      "outputs": [
        {
          "internalType": "address",
          "name": "",
          "type": "address"
        }
      ],
      "stateMutability": "view",
      "type": "function"
    },
    {
      "inputs": [],
      "name": "inflationEpoch",
      "outputs": [
        {
          "internalType": "uint256",
          "name": "",
          "type": "uint256"
        }
      ],
      "stateMutability": "view",
      "type": "function"
    },
    {
      "inputs": [
        {
          "internalType": "uint256",
          "name": "_l2GasPrice",
          "type": "uint256"
        },
        {
          "internalType": "uint256",
          "name": "_l2GasLimit",
          "type": "uint256"
        }
      ],
      "name": "inflationInit",
      "outputs": [],
      "stateMutability": "nonpayable",
      "type": "function"
    },
    {
      "inputs": [],
      "name": "inflationInitialized",
      "outputs": [
        {
          "internalType": "bool",
          "name": "",
          "type": "bool"
        }
      ],
      "stateMutability": "view",
      "type": "function"
    },
    {
      "inputs": [
        {
          "internalType": "uint256",
          "name": "_epochTo",
          "type": "uint256"
        },
        {
          "internalType": "uint256",
          "name": "_l2GasPrice",
          "type": "uint256"
        },
        {
          "internalType": "uint256",
          "name": "_l2GasLimit",
          "type": "uint256"
        }
      ],
      "name": "inflationTrigger",
      "outputs": [],
      "stateMutability": "nonpayable",
      "type": "function"
    },
    {
      "inputs": [
        {
          "internalType": "address[]",
          "name": "accounts",
          "type": "address[]"
        },
        {
          "internalType": "uint256[]",
          "name": "distribution",
          "type": "uint256[]"
        }
      ],
      "name": "initialMint",
      "outputs": [],
      "stateMutability": "nonpayable",
      "type": "function"
    },
    {
      "inputs": [],
      "name": "initialMintCalled",
      "outputs": [
        {
          "internalType": "bool",
          "name": "",
          "type": "bool"
        }
      ],
      "stateMutability": "view",
      "type": "function"
    },
    {
      "inputs": [],
      "name": "initialize",
      "outputs": [],
      "stateMutability": "nonpayable",
      "type": "function"
    },
    {
      "inputs": [
        {
          "internalType": "address",
          "name": "_zkSyncL1AssetRouter",
          "type": "address"
        },
        {
          "internalType": "address",
          "name": "_zkSyncBridgeHub",
          "type": "address"
        },
        {
          "internalType": "address",
          "name": "_zksyncSharedBridge",
          "type": "address"
        },
        {
          "internalType": "address",
          "name": "_genLayerStaking",
          "type": "address"
        },
        {
          "internalType": "address",
          "name": "_gen",
          "type": "address"
        }
      ],
      "name": "initializeShim",
      "outputs": [],
      "stateMutability": "nonpayable",
      "type": "function"
    },
    {
      "inputs": [
        {
          "internalType": "address",
          "name": "_zkSyncL1AssetRouter",
          "type": "address"
        },
        {
          "internalType": "address",
          "name": "_zkSyncBridgeHub",
          "type": "address"
        },
        {
          "internalType": "address",
          "name": "_zksyncSharedBridge",
          "type": "address"
        },
        {
          "internalType": "address",
          "name": "_genLayerStaking",
          "type": "address"
        }
      ],
      "name": "initializeV2",
      "outputs": [],
      "stateMutability": "nonpayable",
      "type": "function"
    },
    {
      "inputs": [
        {
          "internalType": "uint256",
          "name": "batchNumber",
          "type": "uint256"
        },
        {
          "internalType": "uint256",
          "name": "txIndex",
          "type": "uint256"
        },
        {
          "internalType": "uint256",
          "name": "batchIndex",
          "type": "uint256"
        },
        {
          "internalType": "bytes32",
          "name": "messageHash",
          "type": "bytes32"
        }
      ],
      "name": "invokedL2Messages",
      "outputs": [
        {
          "internalType": "bool",
          "name": "invoked",
          "type": "bool"
        }
      ],
      "stateMutability": "view",
      "type": "function"
    },
    {
      "inputs": [],
      "name": "lastInflationEpoch",
      "outputs": [
        {
          "internalType": "uint256",
          "name": "",
          "type": "uint256"
        }
      ],
      "stateMutability": "view",
      "type": "function"
    },
    {
      "inputs": [
        {
          "internalType": "address",
          "name": "account",
          "type": "address"
        },
        {
          "internalType": "uint256",
          "name": "amount",
          "type": "uint256"
        }
      ],
      "name": "mint",
      "outputs": [],
      "stateMutability": "nonpayable",
      "type": "function"
    },
    {
      "inputs": [],
      "name": "name",
      "outputs": [
        {
          "internalType": "string",
          "name": "",
          "type": "string"
        }
      ],
      "stateMutability": "view",
      "type": "function"
    },
    {
      "inputs": [],
      "name": "owner",
      "outputs": [
        {
          "internalType": "address",
          "name": "",
          "type": "address"
        }
      ],
      "stateMutability": "view",
      "type": "function"
    },
    {
      "inputs": [],
      "name": "proxiableUUID",
      "outputs": [
        {
          "internalType": "bytes32",
          "name": "",
          "type": "bytes32"
        }
      ],
      "stateMutability": "view",
      "type": "function"
    },
    {
      "inputs": [],
      "name": "renounceOwnership",
      "outputs": [],
      "stateMutability": "nonpayable",
      "type": "function"
    },
    {
      "inputs": [
        {
          "internalType": "bytes32",
          "name": "role",
          "type": "bytes32"
        },
        {
          "internalType": "address",
          "name": "callerConfirmation",
          "type": "address"
        }
      ],
      "name": "renounceRole",
      "outputs": [],
      "stateMutability": "nonpayable",
      "type": "function"
    },
    {
      "inputs": [],
      "name": "resetInflation",
      "outputs": [],
      "stateMutability": "nonpayable",
      "type": "function"
    },
    {
      "inputs": [
        {
          "internalType": "bytes32",
          "name": "role",
          "type": "bytes32"
        },
        {
          "internalType": "address",
          "name": "account",
          "type": "address"
        }
      ],
      "name": "revokeRole",
      "outputs": [],
      "stateMutability": "nonpayable",
      "type": "function"
    },
    {
      "inputs": [
        {
          "internalType": "address",
          "name": "_staking",
          "type": "address"
        }
      ],
      "name": "setExternalContracts",
      "outputs": [],
      "stateMutability": "nonpayable",
      "type": "function"
    },
    {
      "inputs": [
        {
          "internalType": "address",
          "name": "_gen",
          "type": "address"
        }
      ],
      "name": "setGEN",
      "outputs": [],
      "stateMutability": "nonpayable",
      "type": "function"
    },
    {
      "inputs": [
        {
          "internalType": "address",
          "name": "_genLayerStaking",
          "type": "address"
        }
      ],
      "name": "setGenLayerStaking",
      "outputs": [],
      "stateMutability": "nonpayable",
      "type": "function"
    },
    {
      "inputs": [
        {
          "internalType": "address",
          "name": "_timelockFactory",
          "type": "address"
        }
      ],
      "name": "setTimelockFactory",
      "outputs": [],
      "stateMutability": "nonpayable",
      "type": "function"
    },
    {
      "inputs": [
        {
          "internalType": "address",
          "name": "_zkSyncL1AssetRouter",
          "type": "address"
        },
        {
          "internalType": "address",
          "name": "_zkSyncBridgeHub",
          "type": "address"
        },
        {
          "internalType": "address",
          "name": "_zksyncSharedBridge",
          "type": "address"
        }
      ],
      "name": "setZkSyncContracts",
      "outputs": [],
      "stateMutability": "nonpayable",
      "type": "function"
    },
    {
      "inputs": [
        {
          "internalType": "bytes4",
          "name": "interfaceId",
          "type": "bytes4"
        }
      ],
      "name": "supportsInterface",
      "outputs": [
        {
          "internalType": "bool",
          "name": "",
          "type": "bool"
        }
      ],
      "stateMutability": "view",
      "type": "function"
    },
    {
      "inputs": [],
      "name": "symbol",
      "outputs": [
        {
          "internalType": "string",
          "name": "",
          "type": "string"
        }
      ],
      "stateMutability": "view",
      "type": "function"
    },
    {
      "inputs": [],
      "name": "timelockFactory",
      "outputs": [
        {
          "internalType": "address",
          "name": "",
          "type": "address"
        }
      ],
      "stateMutability": "view",
      "type": "function"
    },
    {
      "inputs": [],
      "name": "totalSupply",
      "outputs": [
        {
          "internalType": "uint256",
          "name": "",
          "type": "uint256"
        }
      ],
      "stateMutability": "view",
      "type": "function"
    },
    {
      "inputs": [
        {
          "internalType": "address",
          "name": "to",
          "type": "address"
        },
        {
          "internalType": "uint256",
          "name": "value",
          "type": "uint256"
        }
      ],
      "name": "transfer",
      "outputs": [
        {
          "internalType": "bool",
          "name": "",
          "type": "bool"
        }
      ],
      "stateMutability": "nonpayable",
      "type": "function"
    },
    {
      "inputs": [
        {
          "internalType": "address",
          "name": "from",
          "type": "address"
        },
        {
          "internalType": "address",
          "name": "to",
          "type": "address"
        },
        {
          "internalType": "uint256",
          "name": "value",
          "type": "uint256"
        }
      ],
      "name": "transferFrom",
      "outputs": [
        {
          "internalType": "bool",
          "name": "",
          "type": "bool"
        }
      ],
      "stateMutability": "nonpayable",
      "type": "function"
    },
    {
      "inputs": [
        {
          "internalType": "address",
          "name": "newOwner",
          "type": "address"
        }
      ],
      "name": "transferOwnership",
      "outputs": [],
      "stateMutability": "nonpayable",
      "type": "function"
    },
    {
      "inputs": [],
      "name": "triggerInflation",
      "outputs": [],
      "stateMutability": "nonpayable",
      "type": "function"
    },
    {
      "inputs": [
        {
          "internalType": "address",
          "name": "newImplementation",
          "type": "address"
        },
        {
          "internalType": "bytes",
          "name": "data",
          "type": "bytes"
        }
      ],
      "name": "upgradeToAndCall",
      "outputs": [],
      "stateMutability": "payable",
      "type": "function"
    }
  ],
  "bytecode": "0x60a080604052346029573060805261425c908161002f82396080518181816116f101526117c10152f35b600080fdfe608080604052600436101561001357600080fd5b600090813560e01c90816301eb18b7146129c05750806301ffc9a71461296a57806302c789c31461282757806305f749dc146127e257806306fdde031461270b578063095ea7b3146126595780631757cd2f1461240957806318160ddd146123de5780631a4c1845146123bc5780631a7ea9fc1461239f578063218268031461232357806323b872dd1461223e578063248a9ca314612217578063282c51f3146121dc5780632b24c0d9146121b35780632bb9db8a14611bbd5780632f2ff15d14611b8b5780632ff2e9dc146105b7578063313ce56714611b6f57806332b47ab314611b52578063340a136714611aff57806336568abe14611aba57806340c10f1914611a4557806342966c68146119cb57806344df8e70146119b75780634971ec02146119945780634aeff8ca1461196b5780634f1ef2861461174657806352d1902d146116de57806355338d1e146116b15780635c60da1b1461167b578063601846df1461165257806366ba54791461162c57806369d8f0651461160e57806370a08231146115c8578063715018a61461155d5780637492100f1461153b5780638119e57c1461151d5780638129fc1c146110a257806387a131bb1461107f5780638da5cb5b1461104957806391d1485414610ff0578063920d263914610f6957806394179eea14610ece57806395d89b4114610de5578063984a66721461095757806399bcc5d7146108fb5780639accda83146108b1578063a01ebaa11461088d578063a217fddf14610871578063a8027c101461084e578063a9059cbb1461081c578063ad3cb1cc146107d1578063bb3d33b7146107ae578063bedaeace14610791578063c0a604ad14610765578063c2ee3a0814610742578063c6fe12ea146105bc578063cd38347f146105b7578063d53913931461057c578063d547741f14610541578063dd62ed3e146104f7578063dec1027e146104ce578063e2ef97a3146104a5578063f27ebced1461034d578063f2fde38b146103205763ffa1ad741461030257600080fd5b3461031d578060031936011261031d57602060405160048152f35b80fd5b503461031d57602036600319011261031d5761034a61033d612a0a565b6103456134ab565b6133ab565b80f35b503461031d57608036600319011261031d57610367612a0a565b61036f612a20565b610377612a36565b90610380612a4c565b926000805160206142078339815191525460ff8160401c168015610491575b6104825768ffffffffffffffffff19166801000000000000000217600080516020614207833981519152556103d3306134e1565b506103dd306135a3565b506103e73361365f565b50600480546001600160a01b03199081166001600160a01b03938416179091556005805482169383169390931790925560068054909216921691909117905560028054610100600160a81b03191660089290921b610100600160a81b0316919091178155600080516020614207833981519152805460ff60401b1916905560405190815260008051602061414783398151915290602090a180f35b63f92ee8a960e01b8652600486fd5b5060026001600160401b038216101561039f565b503461031d578060031936011261031d576006546040516001600160a01b039091168152602090f35b503461031d578060031936011261031d576004546040516001600160a01b039091168152602090f35b503461031d57604036600319011261031d57610511612a0a565b61052261051c612a20565b91613213565b9060018060a01b03166000526020526020604060002054604051908152f35b503461031d57604036600319011261031d57610578600435610561612a20565b9061057361056e82612de4565b613857565b6138a1565b5080f35b503461031d578060031936011261031d5760206040517f9f2df0fed2c77648de5860a4cc508cd0818c85b8b8a1ab4ceeef8d981c8956a68152f35b612ac6565b503461031d57604036600319011261031d576004356001600160401b03811161073e576105ed903690600401612aed565b906024356001600160401b03811161073a5761060d903690600401612aed565b906106166134ab565b60ff6002541661072b57831561071c579190849285945b8086106106815786612710860361067257600160ff1960025416176002557f87882703560ca8ab0be2175f374fc04ecd07f3ede12068ab20dbf131f93c08dc8180a180f35b630b48249960e11b8152600490fd5b90919293610690868387613385565b356001600160a01b0381168103610718576106ac878686613385565b35806b0d92289838d21a996800000002906b0d92289838d21a996800000082040361070457916106e66106f8926127106001950490613421565b6106f1888787613385565b3590612bad565b9501949392919061062d565b634e487b7160e01b89526011600452602489fd5b8780fd5b63b1d0b18160e01b8552600485fd5b63acf9028d60e01b8552600485fd5b8380fd5b5080fd5b503461031d578060031936011261031d576020604051670de0b6b3a76400008152f35b503461031d578060031936011261031d5760206201518061078860005442612aa3565b04604051908152f35b503461031d578060031936011261031d5760206040516105b48152f35b503461031d578060031936011261031d57602060ff600254166040519015158152f35b503461031d578060031936011261031d5761081860408051906107f48183612b4f565b60058252640352e302e360dc1b602083015251918291602083526020830190612a62565b0390f35b503461031d57604036600319011261031d57610843610839612a0a565b6024359033613790565b602060405160018152f35b503461031d578060031936011261031d576020604051660aa87bee537fff198152f35b503461031d578060031936011261031d57602090604051908152f35b503461031d578060031936011261031d576020604051684e1003b28d928000008152f35b503461031d57602036600319011261031d576108cb612a0a565b6108d36134ab565b60028054610100600160a81b03191660089290921b610100600160a81b031691909117905580f35b503461031d578060031936011261031d576109146134ab565b6002805460ff191690556006805460ff60a01b1916905560018190557fc08a61aa28efe4d79f0c38b6bc334b28f8706e2a729baf2283f4a1502510e8d08180a180f35b503461031d57606036600319011261031d5760043560443560243561097a6134ab565b6001549260009380828114610dd6576109939083612aa3565b600a10610dc75784905b828110610c2c57600155600554604051631c588c9d60e21b815261107d60048201526024810185905260448101869052610320606482015290602090829060849082906001600160a01b03165afa869181610bf4575b50610a3c57600486610a03612c0c565b6308c379a014610a23575b610a16612ca0565b50633ee4e2f160e11b8152fd5b610a2b612c2a565b15610a0e57633ee4e2f160e11b8152fd5b8060041b9080820460101490151715610be05781600a610a5c9204612bad565b90610a678230613421565b600454610a7f9083906001600160a01b031630613ef6565b60018060a01b0360025460081c169060015460405190631bd1b3a760e31b6020830152602482015260248152610ab6604482612b4f565b610abe612cd0565b9160405194610acc86612b1d565b61107d86526020860152604085018490526060850152608084015260a0830186905261032060c084015260e08301526101008201526005546001600160a01b031690813b15610bdc57610b388692839260405194858094819363d52471c160e01b835260048301612d04565b03925af19081610bc8575b50610b8c57600484610b53612c0c565b6308c379a014610b73575b610b66612ca0565b50631efae81160e01b8152fd5b610b7b612c2a565b15610b5e57631efae81160e01b8152fd5b917f64ebf2e66fc9dbec4980d925d238ed8bb22d140ab9d8a4b308da6a4d5a939fc993916060936040519350835260208301526040820152a180f35b85610bd591969296612b4f565b9338610b43565b8580fd5b634e487b7160e01b86526011600452602486fd5b9091506020813d602011610c24575b81610c1060209383612b4f565b81010312610c20575190386109f3565b8680fd5b3d9150610c03565b610c3590612b8b565b90670de0b6b3a76400008202828104670de0b6b3a76400001483151715610d65576702ea11e32ad5000090684e1003b28d927fffff198101908113600116610d7957610ca29088811290610c9790660aa87bee5380009083610db85790613f89565b9015610daa57613ad0565b9081670de0b6b3a764000001918212600116610d7957878212801592610ccd9291610d9b5790613ff3565b90600103610d8d575b806703782dace9d9000003906703782dace9d900008211610d7957670de0b6b3a76400008202918204670de0b6b3a764000014906703782dace9d90000141715610d655768138400eca364a000009004806b0d92289838d21a996800000002906b0d92289838d21a9968000000820403610d655790670de0b6b3a7640000610d5f920490612bad565b9061099d565b634e487b7160e01b87526011600452602487fd5b634e487b7160e01b88526011600452602488fd5b610d9690613941565b610cd6565b610da490613941565b90613ff3565b610db390613941565b613ad0565b610dc190613941565b90613f89565b632a7e7b5b60e21b8552600485fd5b637d8fa22560e01b8652600486fd5b503461031d578060031936011261031d57604051600060008051602061410783398151915254610e1481612bba565b8084529060018116908115610eaa5750600114610e50575b61081883610e3c81850382612b4f565b604051918291602083526020830190612a62565b60008051602061410783398151915260009081526000805160206141e7833981519152939250905b808210610e9057509091508101602001610e3c610e2c565b919260018160209254838588010152019101909291610e78565b60ff191660208086019190915291151560051b84019091019150610e3c9050610e2c565b503461031d57606036600319011261031d57610ee8612a0a565b610ef0612a20565b90610ef9612a36565b90610f026134ab565b600480546001600160a01b039283166001600160a01b0319918216811790925560058054958416958216861790556006805494909316931683179091559091907ff16088c43eb2425f3f3203ca4274b1ce2cfce49a7497ed15a3af7b078641c7b38480a480f35b503461031d57602036600319011261031d57610f83612a0a565b610f8b6134ab565b60028054610100600160a81b031916600883901b610100600160a81b0316179055610fb5816134e1565b50610fbf816135a3565b506001600160a01b03167fccad446045fb1a917b54e951901bb734ca96aaa7456e49d98e2258958cb3ad3b8280a280f35b503461031d57604036600319011261031d57604061100c612a20565b9160043581526000805160206141c7833981519152602052209060018060a01b0316600052602052602060ff604060002054166040519015158152f35b503461031d578060031936011261031d57600080516020614127833981519152546040516001600160a01b039091168152602090f35b503461031d578060031936011261031d5760405163044df8e760e41b8152602090f35b503461031d578060031936011261031d57600080516020614207833981519152549060ff8260401c1615916001600160401b03811680159081611515575b600114908161150b575b159081611502575b506114f35767ffffffffffffffff19811660011760008051602061420783398151915255826114c6575b50611125613f5b565b60408051926111348285612b4f565b600d84526c23b2b72630bcb2b92a37b5b2b760991b602085015281519361115b8386612b4f565b600385526223a2a760e91b6020860152611173613f5b565b61117b613f5b565b8051906001600160401b0382116114b25781906111a66000805160206140c783398151915254612bba565b601f8111611449575b50602090601f83116001146113ca5786926113bf575b50508160011b916000199060031b1c1916176000805160206140c7833981519152555b83516001600160401b0381116113ab5761121060008051602061410783398151915254612bba565b601f811161134d575b50602094601f82116001146112cf5794849582939495926112c4575b50508160011b916000199060031b1c191617600080516020614107833981519152555b611260613f5b565b611268613f5b565b611271336133ab565b611279613f5b565b6112823361365f565b5042835561128e575080f35b600080516020614207833981519152805460ff60401b19169055516001815260008051602061414783398151915290602090a180f35b015190503880611235565b601f19821695600080516020614107833981519152865280862091865b8881106113355750836001959697981061131c575b505050811b0160008051602061410783398151915255611258565b015160001960f88460031b161c19169055388080611301565b919260206001819286850151815501940192016112ec565b60008051602061410783398151915285526000805160206141e7833981519152601f830160051c810191602084106113a1575b601f0160051c01905b8181106113965750611219565b858155600101611389565b9091508190611380565b634e487b7160e01b84526041600452602484fd5b0151905038806111c5565b6000805160206140c783398151915287528187209250601f198416875b8181106114315750908460019594939210611418575b505050811b016000805160206140c7833981519152556111e8565b015160001960f88460031b161c191690553880806113fd565b929360206001819287860151815501950193016113e7565b6000805160206140c783398151915287529091506000805160206140a7833981519152601f840160051c810191602085106114a8575b90601f859493920160051c01905b81811061149a57506111af565b87815584935060010161148d565b909150819061147f565b634e487b7160e01b85526041600452602485fd5b68ffffffffffffffffff19166801000000000000000117600080516020614207833981519152553861111c565b63f92ee8a960e01b8252600482fd5b905015386110f2565b303b1591506110ea565b8491506110e0565b503461031d578060031936011261031d576020604051620151808152f35b503461031d578060031936011261031d576020604051668e1bc9bf0400008152f35b503461031d578060031936011261031d576115766134ab565b60008051602061412783398151915280546001600160a01b031981169091556000906001600160a01b03167f8be0079c531659141344cd1fd0a4f28419497f9722a3daafe3b4186f6b6457e08280a380f35b503461031d57602036600319011261031d576020906040906001600160a01b036115f0612a0a565b1681526000805160206140e783398151915283522054604051908152f35b503461031d578060031936011261031d576020600154604051908152f35b503461031d578060031936011261031d57602060ff60065460a01c166040519015158152f35b503461031d578060031936011261031d576003546040516001600160a01b039091168152602090f35b503461031d578060031936011261031d57600080516020614187833981519152546040516001600160a01b039091168152602090f35b503461031d578060031936011261031d5760025460405160089190911c6001600160a01b03168152602090f35b503461031d578060031936011261031d577f00000000000000000000000000000000000000000000000000000000000000006001600160a01b031630036117375760206040516000805160206141878339815191528152f35b63703e46dd60e11b8152600490fd5b50604036600319011261031d5761175b612a0a565b602435906001600160401b0382116119675736602383011215611967578160040135908361178883612b70565b936117966040519586612b4f565b8385526020850193366024828401011161196757806024602093018637850101526001600160a01b037f000000000000000000000000000000000000000000000000000000000000000016308114908115611944575b50611935576117f96134ab565b6040516352d1902d60e01b81526001600160a01b0382169390602081600481885afa869181611901575b5061183c57634c9c8ce360e01b86526004859052602486fd5b93846000805160206141878339815191528796036118ef5750823b156118dd5760008051602061418783398151915280546001600160a01b031916821790558491907fbc7cd75a20ee27fd9adebab32041f755214dbc6bffa90cc0225b39da2e5c2d3b8380a28051156118c2576105789382915190845af46118bc612ca0565b91614025565b50505050346118ce5780f35b63b398979f60e01b8152600490fd5b634c9c8ce360e01b8552600452602484fd5b632a87526960e21b8652600452602485fd5b9091506020813d60201161192d575b8161191d60209383612b4f565b81010312610c2057519038611823565b3d9150611910565b63703e46dd60e11b8452600484fd5b600080516020614187833981519152546001600160a01b031614159050386117ec565b8280fd5b503461031d578060031936011261031d576039546040516001600160a01b039091168152602090f35b503461031d578060031936011261031d5760206040516703782dace9d900008152f35b503461031d578060031936011261031d5780f35b503461031d57602036600319011261031d5760395481906001600160a01b0316803b15611a4257818091602460405180958193630852cd8d60e31b835260043560048401525af18015611a3557611a1f5780f35b611a2891612b4f565b8060001261031d57388180f35b50604051903d90823e3d90fd5b50fd5b503461031d57604036600319011261031d5780611a60612a0a565b6039546001600160a01b0316803b15611ab6576040516340c10f1960e01b81526001600160a01b03929092166004830152602480359083015290919081908390604490829084905af18015611a3557611a1f5780f35b5050fd5b503461031d57604036600319011261031d57611ad4612a20565b336001600160a01b03821603611af057610578906004356138a1565b63334bd91960e11b8252600482fd5b503461031d5760a036600319011261031d5760443561ffff8116810361073e57608435906001600160401b03821161196757611b4261034a923690600401612aed565b9160643590602435600435612e29565b503461031d578060031936011261031d57602060405161107d8152f35b503461031d578060031936011261031d57602060405160128152f35b503461031d57604036600319011261031d57610578600435611bab612a20565b90611bb861056e82612de4565b6136f9565b503461031d5760a036600319011261031d57611bd7612a0a565b611bdf612a20565b90611be8612a36565b611bf0612a4c565b906084359360018060a01b0385168095036121ae57600080516020614207833981519152549360ff8560401c1615946001600160401b038116801590816121a6575b600114908161219c575b159081612193575b50611ef15767ffffffffffffffff1981166001176000805160206142078339815191525585612166575b50611c77613f5b565b6040948551611c868782612b4f565b600d81526c23b2b72630bcb2b92a37b5b2b760991b6020820152865190611cad8883612b4f565b600382526223a2a760e91b6020830152611cc5613f5b565b611ccd613f5b565b8051906001600160401b038211612152578190611cf86000805160206140c783398151915254612bba565b601f81116120e9575b50602090601f831160011461206a578c9261205f575b50508160011b916000199060031b1c1916176000805160206140c7833981519152555b8051906001600160401b03821161204b578190611d6560008051602061410783398151915254612bba565b601f8111611fe2575b50602090601f8311600114611f63578b92611f58575b50508160011b916000199060031b1c191617600080516020614107833981519152555b611daf613f5b565b611db7613f5b565b611dc0336133ab565b611dc8613f5b565b611dd13361365f565b50428855611f14575b6000805160206142078339815191525460ff81871c168015611f00575b611ef15791600080516020614147833981519152959391680100000000000000026020969468ffffffffffffffffff19161760008051602061420783398151915255611e42306134e1565b50611e4c306135a3565b50611e563361365f565b50600480546001600160a01b03199081166001600160a01b03938416179091556005805482169383169390931790925560068054909216921691909117905560028054610100600160a81b03191660089290921b610100600160a81b0316919091178155600080516020614207833981519152805460ff60401b191690559051908152a1603980546001600160a01b03191691909117905580f35b63f92ee8a960e01b8852600488fd5b5060026001600160401b0382161015611df7565b60ff60401b196000805160206142078339815191525416600080516020614207833981519152556000805160206141478339815191526020865160018152a1611dda565b015190503880611d84565b6000805160206141078339815191528c52818c209250601f1984168c5b818110611fca5750908460019594939210611fb1575b505050811b0160008051602061410783398151915255611da7565b015160001960f88460031b161c19169055388080611f96565b92936020600181928786015181550195019301611f80565b6000805160206141078339815191528c529091506000805160206141e7833981519152601f840160051c81019160208510612041575b90601f859493920160051c01905b8181106120335750611d6e565b8c8155849350600101612026565b9091508190612018565b634e487b7160e01b8a52604160045260248afd5b015190503880611d17565b6000805160206140c78339815191528d52818d209250601f1984168d5b8181106120d157509084600195949392106120b8575b505050811b016000805160206140c783398151915255611d3a565b015160001960f88460031b161c1916905538808061209d565b92936020600181928786015181550195019301612087565b6000805160206140c78339815191528d529091506000805160206140a7833981519152601f840160051c81019160208510612148575b90601f859493920160051c01905b81811061213a5750611d01565b8d815584935060010161212d565b909150819061211f565b634e487b7160e01b8b52604160045260248bfd5b68ffffffffffffffffff191668010000000000000001176000805160206142078339815191525538611c6e565b90501538611c44565b303b159150611c3c565b879150611c32565b600080fd5b503461031d578060031936011261031d576005546040516001600160a01b039091168152602090f35b503461031d578060031936011261031d5760206040517f3c11d16cbaffd01df69ce1c404f6340ee057498f5f00246190ea54220576a8488152f35b503461031d57602036600319011261031d576020612236600435612de4565b604051908152f35b503461031d57606036600319011261031d57612258612a0a565b612260612a20565b6044359161226d81613213565b33600090815260209190915260409020549360018501612293575b506108439350613790565b83851061230857506001600160a01b038116156122f25733156122dc57610843936122bd82613213565b60018060a01b0333166000526020528360406000209103905538612288565b634a1406b160e11b600052600060045260246000fd5b63e602df0560e01b600052600060045260246000fd5b6064908486637dc7a0d960e11b835233600452602452604452fd5b503461031d57602036600319011261031d5761233d612a0a565b6123456134ab565b600380546001600160a01b0319166001600160a01b0383169081179091559061237790612371816134e1565b506135a3565b507fdf4e0b4461c624efdbb59f235b00095dfb1a237e057e146b4a39b44b1c90bcd38280a280f35b503461031d578060031936011261031d5760209054604051908152f35b503461031d578060031936011261031d5760206582d156d2e854604051908152f35b503461031d578060031936011261031d57602060008051602061416783398151915254604051908152f35b503461031d57604036600319011261031d576004356024356124296134ab565b60065460ff8160a01c1661264a5760ff60a01b1916600160a01b17600655600554604051631c588c9d60e21b815261107d60048201526024810184905260448101839052610320606482015290602090829060849082906001600160a01b03165afa849181612612575b506124a357600484610a03612c0c565b8060041b90808204601014901517156125fe57600a900492506124c68330613421565b6004546124de9084906001600160a01b031630613ef6565b60025460405163c3ff497760e01b602082015242602480830191909152815260089190911c6001600160a01b031693612518604483612b4f565b612520612cd0565b946040519161252e83612b1d565b61107d83526020830152806040830152600095869384606085015260808401528460a084015261032060c084015260e083015261010082015260018060a01b036005541690813b1561196757829161259c9160405194858094819363d52471c160e01b835260048301612d04565b03925af190816125ea575b506125b757600483610b53612c0c565b7ff9585ee5c4ecc766ab816d945301ff04829efd44b80e98b79d7d24fe255b73219160409182519182526020820152a180f35b846125f791959295612b4f565b92386125a7565b634e487b7160e01b84526011600452602484fd5b9091506020813d602011612642575b8161262e60209383612b4f565b8101031261263e57519038612493565b8480fd5b3d9150612621565b63067f34cf60e01b8452600484fd5b503461031d57604036600319011261031d578060206126b4612679612a0a565b60395460405163095ea7b360e01b81526001600160a01b03928316600482015260248035908201529485939190921691839182906044820190565b03925af190811561270057602092916126d3575b506040519015158152f35b6126f39150823d84116126f9575b6126eb8183612b4f565b810190612bf4565b386126c8565b503d6126e1565b6040513d84823e3d90fd5b503461031d578060031936011261031d5760405190806000805160206140c7833981519152549061273b82612bba565b80855291600181169081156127bb5750600114612763575b61081884610e3c81860382612b4f565b6000805160206140c783398151915281526000805160206140a7833981519152939250905b8082106127a157509091508101602001610e3c82612753565b919260018160209254838588010152019101909291612788565b60ff191660208087019190915292151560051b85019092019250610e3c9150839050612753565b503461031d57602036600319011261031d576127fc612a0a565b6128046134ab565b603980546001600160a01b0319166001600160a01b039290921691909117905580f35b503461031d578060031936011261031d576001546201518061284a835442612aa3565b0480821461291a57908260008051602061416783398151915254925b80831061287f5784836128798430613421565b60015580f35b9161288990612b8b565b92836105b4116000146128f7576582d156d2e8548481029081048503610be0576703782dace9d90000036703782dace9d900008111610be057906128e9670de0b6b3a76400006128e161016d6128ef955b0484612b9a565b048092612bad565b92612bad565b909291612866565b6128ef906128e9670de0b6b3a76400006128e161016d668e1bc9bf0400006128da565b60405162461bcd60e51b815260206004820152602260248201527f496e666c6174696f6e206e6f7420726561647920746f206265207265616c697a604482015261195960f21b6064820152608490fd5b503461031d57602036600319011261031d5760043563ffffffff60e01b811680910361073e57602090637965db0b60e01b81149081156129af57506040519015158152f35b6301ffc9a760e01b149050826126c8565b90503461073e57608036600319011261073e5760ff604060209360043581526007855281812060243582528552818120604435825285528181206064358252855220541615158152f35b600435906001600160a01b03821682036121ae57565b602435906001600160a01b03821682036121ae57565b604435906001600160a01b03821682036121ae57565b606435906001600160a01b03821682036121ae57565b919082519283825260005b848110612a8e575050826000602080949584010152601f8019910116010190565b80602080928401015182828601015201612a6d565b91908203918211612ab057565b634e487b7160e01b600052601160045260246000fd5b346121ae5760003660031901126121ae5760206040516b0d92289838d21a99680000008152f35b9181601f840112156121ae578235916001600160401b0383116121ae576020808501948460051b0101116121ae57565b61012081019081106001600160401b03821117612b3957604052565b634e487b7160e01b600052604160045260246000fd5b90601f801991011681019081106001600160401b03821117612b3957604052565b6001600160401b038111612b3957601f01601f191660200190565b6000198114612ab05760010190565b81810292918115918404141715612ab057565b91908201809211612ab057565b90600182811c92168015612bea575b6020831014612bd457565b634e487b7160e01b600052602260045260246000fd5b91607f1691612bc9565b908160209103126121ae575180151581036121ae5790565b60009060033d11612c1957565b905060046000803e60005160e01c90565b600060443d10612c8f576040513d600319016004823e8051913d60248401116001600160401b03841117612c9a57828201928351916001600160401b038311612c92573d84016003190185840160200111612c925750612c8f92910160200190612b4f565b90565b949350505050565b92915050565b3d15612ccb573d90612cb182612b70565b91612cbf6040519384612b4f565b82523d6000602084013e565b606090565b60405190612cdf602083612b4f565b600080835282815b828110612cf357505050565b806060602080938501015201612ce7565b60208152815160208201526020820151604082015260018060a01b03604083015116606082015260608201516080820152612d50608083015161012060a0840152610140830190612a62565b9160a081015160c083015260c081015160e083015260e081015192601f1983820301610100840152835180825260208201916020808360051b8301019601926000915b838310612db75750505050506101209061010060018060a01b039101511691015290565b9091929396602080612dd5600193601f198682030187528b51612a62565b99019301930191939290612d93565b6000526000805160206141c783398151915260205260016040600020015490565b81835290916001600160fb1b0383116121ae5760209260051b809284830137010190565b94909192936000908515613204576002546040519160208301636c0960f960e01b81523060601b60248501528860388501526bffffffffffffffffffffffff198360581b16605885015263044df8e760e41b606c85015260508452612e8f607085612b4f565b835190209489855260076020526040852087865260205261ffff604086209816978886526020526040852086865260205260ff6040862054166131f85760018060a01b036006541692604051634798f82960e11b815261107d60048201528b6024820152886044820152602081606481885afa9081156131ed5787916131ce575b506130bb5750823b1561263e579186858b612f798b958397612f676040519a8b998a98899763c87325f160e01b895261107d60048a015260248901526044880152606487015260c0608487015260c4860190612a62565b8481036003190160a486015291612e05565b03925af18015612700576130ab575b50905b3015613097573082526000805160206140e7833981519152602052604082205485811061307c577f7f284152149ac0bbcec1f2f058e6492908c08cc2fd3ce228c5a975c897b0203d9694928694926080976040933084526000805160206140e78339815191526020520383832055856000805160206141678339815191525403600080516020614167833981519152558183518781526000805160206141a783398151915260203092a3868252600760205282822084835260205282822085835260205282822090825260205220600160ff19825416179055604051938452602084015260408301526060820152a1565b63391434e360e21b8352306004526024526044859052606482fd5b634b637e8f60e11b82526004829052602482fd5b816130b591612b4f565b38612f88565b925060409594955193606085018581106001600160401b038211176131ba5760409081528986526001600160a01b0360089590951c851660208088019182528783019384526005549251634ce0b68d60e11b815261107d6004820152602481018f9052604481018c905260a06064820152975161ffff1660a48901529051861660c48801529151606060e4880152919486949116928492839261317b92909161316990610104860190612a62565b84810360031901608486015291612e05565b03915afa80156131af57613190575b50612f8b565b6131a89060203d6020116126f9576126eb8183612b4f565b503861318a565b6040513d85823e3d90fd5b634e487b7160e01b88526041600452602488fd5b6131e7915060203d6020116126f9576126eb8183612b4f565b38612f10565b6040513d89823e3d90fd5b50505050505050505050565b6335f6168960e01b8252600482fd5b6001600160a01b031660009081527f52c63247e1f47db19d5ce0460030c497f067ca4cebf71ba98eeadabe20bace016020526040902090565b906803782dace9d8ffffff198201918213600116612ab057565b906806f05b59d3b1ffffff198201918213600116612ab057565b9068ad78ebc5ac61ffffff198201918213600116612ab057565b906856bc75e2d630ffffff198201918213600116612ab057565b90682b5e3af16b187fffff198201918213600116612ab057565b906815af1d78b58c3fffff198201918213600116612ab057565b90680ad78ebc5ac61fffff198201918213600116612ab057565b9068056bc75e2d630fffff198201918213600116612ab057565b906802b5e3af16b187ffff198201918213600116612ab057565b9068015af1d78b58c3ffff198201918213600116612ab057565b908168056bc75e2d6310000001918212600116612ab057565b91909160008382019384129112908015821691151617612ab057565b91908110156133955760051b0190565b634e487b7160e01b600052603260045260246000fd5b6001600160a01b0316801561340b5760008051602061412783398151915280546001600160a01b0319811683179091556001600160a01b03167f8be0079c531659141344cd1fd0a4f28419497f9722a3daafe3b4186f6b6457e0600080a3565b631e4fbdf760e01b600052600060045260246000fd5b6001600160a01b0316908115613495576000805160206141a783398151915260208261345e60009460008051602061416783398151915254612bad565b600080516020614167833981519152558484526000805160206140e7833981519152825260408420818154019055604051908152a3565b63ec442f0560e01b600052600060045260246000fd5b600080516020614127833981519152546001600160a01b031633036134cc57565b63118cdaa760e01b6000523360045260246000fd5b6001600160a01b03811660009081527f549fe2656c81d2947b3b913f0a53b9ea86c71e049f3a1b8aa23c09a8a05cb8d4602052604090205460ff1661359d576001600160a01b031660008181527f549fe2656c81d2947b3b913f0a53b9ea86c71e049f3a1b8aa23c09a8a05cb8d460205260408120805460ff191660011790553391907f9f2df0fed2c77648de5860a4cc508cd0818c85b8b8a1ab4ceeef8d981c8956a6906000805160206140878339815191529080a4600190565b50600090565b6001600160a01b03811660009081527ffcf1b2032b1187d9f2a29150c4a608b3b6f0bdf8dd007801f86a276af50cad92602052604090205460ff1661359d576001600160a01b031660008181527ffcf1b2032b1187d9f2a29150c4a608b3b6f0bdf8dd007801f86a276af50cad9260205260408120805460ff191660011790553391907f3c11d16cbaffd01df69ce1c404f6340ee057498f5f00246190ea54220576a848906000805160206140878339815191529080a4600190565b6001600160a01b03811660009081527fb7db2dd08fcb62d0c9e08c51941cae53c267786a0b75803fb7960902fc8ef97d602052604090205460ff1661359d576001600160a01b031660008181527fb7db2dd08fcb62d0c9e08c51941cae53c267786a0b75803fb7960902fc8ef97d60205260408120805460ff191660011790553391906000805160206140878339815191528180a4600190565b60008181526000805160206141c7833981519152602090815260408083206001600160a01b038616845290915290205460ff166137895760008181526000805160206141c7833981519152602090815260408083206001600160a01b0395909516808452949091528120805460ff19166001179055339291906000805160206140878339815191529080a4600190565b5050600090565b6001600160a01b0316908115613841576001600160a01b03169182156134955760008281526000805160206140e783398151915260205260408120548281106138275791604082826000805160206141a78339815191529587602096526000805160206140e7833981519152865203828220558681526000805160206140e7833981519152845220818154019055604051908152a3565b916064928463391434e360e21b8452600452602452604452fd5b634b637e8f60e11b600052600060045260246000fd5b60008181526000805160206141c78339815191526020908152604080832033845290915290205460ff16156138895750565b63e2517d3f60e01b6000523360045260245260446000fd5b60008181526000805160206141c7833981519152602090815260408083206001600160a01b038616845290915290205460ff16156137895760008181526000805160206141c7833981519152602090815260408083206001600160a01b0395909516808452949091528120805460ff19169055339291907ff6391f5c32d9c69d2a47ea670b442974b53935d1edc7fd64eb21e047a839171b9080a4600190565b600160ff1b8114612ab05760000390565b90606482029180830560641490151715612ab057565b906b02df0ab5a80a22c61ab5a7008202918083056b02df0ab5a80a22c61ab5a7001490151715612ab057565b90693f1fce3da636ea5cf850820291808305693f1fce3da636ea5cf8501490151715612ab057565b90690127fa27722cc06cc5e2820291808305690127fa27722cc06cc5e21490151715612ab057565b9068280e60114edb805d0382029180830568280e60114edb805d031490151715612ab057565b90680ebc5fb41746121110820291808305680ebc5fb417461211101490151715612ab057565b906808f00f760a4b2db55d8202918083056808f00f760a4b2db55d1490151715612ab057565b906806f5f17757889379378202918083056806f5f17757889379371490151715612ab057565b818102929160008212600160ff1b821416612ab0578184051490151715612ab057565b8115613aba57600160ff1b8114600019831416612ab0570590565b634e487b7160e01b600052601260045260246000fd5b680238fd42c5cf03ffff1981121580613ee3575b613aed90613fc3565b60008112613ebe576806f05b59d3b20000008112613e8457613b0e90613266565b613b30770195e54c5dd42177f53a27172fa9ec63026282700000000091613952565b68056bc75e2d631000009068ad78ebc5ac62000000811215613e64575b6856bc75e2d631000000811215613e49575b682b5e3af16b18800000811215613e2e575b6815af1d78b58c400000811215613e13575b680ad78ebc5ac6200000811215613df8575b68056bc75e2d63100000811215613ddd575b6802b5e3af16b1880000811215613dc2575b68015af1d78b58c40000811215613d98575b808080808080808080613bdd81613350565b613be78280613a7c565b68056bc75e2d631000009005600290059081613c0291613369565b91613c0c91613a7c565b68056bc75e2d631000009005600390059081613c2791613369565b91613c3191613a7c565b68056bc75e2d631000009005600490059081613c4c91613369565b91613c5691613a7c565b68056bc75e2d631000009005600590059081613c7191613369565b91613c7b91613a7c565b68056bc75e2d631000009005600690059081613c9691613369565b91613ca091613a7c565b68056bc75e2d631000009005600790059081613cbb91613369565b91613cc591613a7c565b68056bc75e2d631000009005600890059081613ce091613369565b91613cea91613a7c565b68056bc75e2d631000009005600990059081613d0591613369565b91613d0f91613a7c565b68056bc75e2d631000009005600a90059081613d2a91613369565b91613d3491613a7c565b68056bc75e2d631000009005600b90059081613d4f91613369565b91613d5991613a7c565b68056bc75e2d631000009005600c9005613d7291613369565b613d7b91613a7c565b68056bc75e2d63100000900590613d9191613a7c565b6064900590565b613dad613da7613dbc92613336565b92613a56565b68056bc75e2d63100000900590565b90613bcb565b613dad613dd1613dd79261331c565b92613a30565b90613bb9565b613dad613dec613df292613302565b92613a0a565b90613ba7565b613dad613e07613e0d926132e8565b926139e4565b90613b95565b613dad613e22613e28926132ce565b926139bc565b90613b83565b613dad613e3d613e43926132b4565b92613994565b90613b71565b613dad613e58613e5e9261329a565b92613968565b90613b5f565b613e6e9150613280565b6e01855144814a7ff805980ff008400090613b4d565b6803782dace9d90000008112613eb357613e9d9061324c565b613b306b1425982cf597cd205cef738091613952565b613b30600191613952565b613eda610db36ec097ce7bc90715b34b9f100000000092613941565b612c8f91613a9f565b5068070c1cc73b00c80000811315613ae4565b916001600160a01b0383169182156122f2576001600160a01b03169283156122dc577f8c5be1e5ebec7d5bd14f71427d1e84f3dd0314c0f7b2291e5b200ac8c7c3b92591613f45602092613213565b85600052825280604060002055604051908152a3565b60ff6000805160206142078339815191525460401c1615613f7857565b631afcd79f60e31b60005260046000fd5b90613f9391612b9a565b80613f9e5750600090565b6000198101908111612ab057670de0b6b3a7640000900460018101809111612ab05790565b15613fca57565b62461bcd60e51b6000908152602060045260076024526642414c2330303960c81b604452606490fd5b80613fff575050600090565b670de0b6b3a76400008102908104670de0b6b3a764000003612ab0578115613aba570490565b9061404b575080511561403a57805190602001fd5b63d6bda27560e01b60005260046000fd5b8151158061407d575b61405c575090565b639996b31560e01b60009081526001600160a01b0391909116600452602490fd5b50803b1561405456fe2f8788117e7eff1d82e926ec794901d17c78024a50270940304540a733656f0d2ae08a8e29253f69ac5d979a101956ab8f8d9d7ded63fa7a83b16fc47648eab052c63247e1f47db19d5ce0460030c497f067ca4cebf71ba98eeadabe20bace0352c63247e1f47db19d5ce0460030c497f067ca4cebf71ba98eeadabe20bace0052c63247e1f47db19d5ce0460030c497f067ca4cebf71ba98eeadabe20bace049016d09d72d40fdae2fd8ceac6b6234c7706214fd39c1cd1e609a0528c199300c7f505b2f371ae2175ee4913f4499e1f2633a7b5936321eed1cdaeb6115181d252c63247e1f47db19d5ce0460030c497f067ca4cebf71ba98eeadabe20bace02360894a13ba1a3210667c828492db98dca3e2076cc3735a920a3ca505d382bbcddf252ad1be2c89b69c2b068fc378daa952ba7f163c4a11628f55a4df523b3ef02dd7bc7dec4dceedda775e58dd541e08a116c6c53815c0bd028192f7b62680046a2803e59a4de4e7a4c574b1243f25977ac4c77d5a1a4a609b5394cebb4a2aaf0c57e16840df040f15088dc2f81fe391c3923bec73e23a9662efc9c229c6a00a26469706673582212205578754e14563b30fe1d040567fa1f0444669c5797065afe585edbf8cede2e9664736f6c634300081c0033",
  "linkReferences": {},
  "deployedLinkReferences": {}
}