{
  "_format": "hh-sol-artifact-1",
  "contractName": "ProposalPhase",
  "sourceName": "contracts/phases/ProposalPhase.sol",
  "abi": [
    {
      "inputs": [],
      "stateMutability": "nonpayable",
      "type": "constructor"
    },
    {
      "inputs": [
        {
          "internalType": "address",
          "name": "leader",
          "type": "address"
        },
        {
          "internalType": "address",
          "name": "caller",
          "type": "address"
        }
      ],
      "name": "CallerNotLeader",
      "type": "error"
    },
    {
      "inputs": [],
      "name": "InvalidInitialization",
      "type": "error"
    },
    {
      "inputs": [],
      "name": "InvalidProcessingBlock",
      "type": "error"
    },
    {
      "inputs": [],
      "name": "NotInitializing",
      "type": "error"
    },
    {
      "inputs": [
        {
          "internalType": "address",
          "name": "owner",
          "type": "address"
        }
      ],
      "name": "OwnableInvalidOwner",
      "type": "error"
    },
    {
      "inputs": [
        {
          "internalType": "address",
          "name": "account",
          "type": "address"
        }
      ],
      "name": "OwnableUnauthorizedAccount",
      "type": "error"
    },
    {
      "inputs": [],
      "name": "ReentrancyGuardReentrantCall",
      "type": "error"
    },
    {
      "inputs": [],
      "name": "TransactionCanNotBeAddedToAcceptedQueue",
      "type": "error"
    },
    {
      "inputs": [],
      "name": "TransactionInRecomputation",
      "type": "error"
    },
    {
      "inputs": [],
      "name": "Unauthorized",
      "type": "error"
    },
    {
      "anonymous": false,
      "inputs": [
        {
          "indexed": true,
          "internalType": "address",
          "name": "caller",
          "type": "address"
        },
        {
          "indexed": false,
          "internalType": "bool",
          "name": "authorized",
          "type": "bool"
        }
      ],
      "name": "AuthorizedCallerUpdated",
      "type": "event"
    },
    {
      "anonymous": false,
      "inputs": [
        {
          "indexed": false,
          "internalType": "uint64",
          "name": "version",
          "type": "uint64"
        }
      ],
      "name": "Initialized",
      "type": "event"
    },
    {
      "anonymous": false,
      "inputs": [
        {
          "indexed": true,
          "internalType": "bytes32",
          "name": "txId",
          "type": "bytes32"
        },
        {
          "indexed": true,
          "internalType": "address",
          "name": "oldLeader",
          "type": "address"
        },
        {
          "indexed": true,
          "internalType": "address",
          "name": "newLeader",
          "type": "address"
        }
      ],
      "name": "LeaderRotated",
      "type": "event"
    },
    {
      "anonymous": false,
      "inputs": [
        {
          "indexed": true,
          "internalType": "address",
          "name": "previousOwner",
          "type": "address"
        },
        {
          "indexed": true,
          "internalType": "address",
          "name": "newOwner",
          "type": "address"
        }
      ],
      "name": "OwnershipTransferStarted",
      "type": "event"
    },
    {
      "anonymous": false,
      "inputs": [
        {
          "indexed": true,
          "internalType": "address",
          "name": "previousOwner",
          "type": "address"
        },
        {
          "indexed": true,
          "internalType": "address",
          "name": "newOwner",
          "type": "address"
        }
      ],
      "name": "OwnershipTransferred",
      "type": "event"
    },
    {
      "anonymous": false,
      "inputs": [
        {
          "indexed": true,
          "internalType": "bytes32",
          "name": "txId",
          "type": "bytes32"
        },
        {
          "indexed": true,
          "internalType": "address",
          "name": "leader",
          "type": "address"
        },
        {
          "indexed": false,
          "internalType": "enum ITransactions.TransactionStatus",
          "name": "status",
          "type": "uint8"
        }
      ],
      "name": "TransactionReceiptProposed",
      "type": "event"
    },
    {
      "anonymous": false,
      "inputs": [
        {
          "indexed": true,
          "internalType": "bytes32",
          "name": "txId",
          "type": "bytes32"
        }
      ],
      "name": "TransactionUndetermined",
      "type": "event"
    },
    {
      "inputs": [],
      "name": "acceptOwnership",
      "outputs": [],
      "stateMutability": "nonpayable",
      "type": "function"
    },
    {
      "inputs": [],
      "name": "addressManager",
      "outputs": [
        {
          "internalType": "contract IAddressManager",
          "name": "",
          "type": "address"
        }
      ],
      "stateMutability": "view",
      "type": "function"
    },
    {
      "inputs": [
        {
          "internalType": "address",
          "name": "",
          "type": "address"
        }
      ],
      "name": "authorizedCallers",
      "outputs": [
        {
          "internalType": "bool",
          "name": "",
          "type": "bool"
        }
      ],
      "stateMutability": "view",
      "type": "function"
    },
    {
      "inputs": [
        {
          "internalType": "address",
          "name": "_addressManager",
          "type": "address"
        }
      ],
      "name": "initialize",
      "outputs": [],
      "stateMutability": "nonpayable",
      "type": "function"
    },
    {
      "inputs": [
        {
          "internalType": "address",
          "name": "caller",
          "type": "address"
        }
      ],
      "name": "isAuthorizedCaller",
      "outputs": [
        {
          "internalType": "bool",
          "name": "",
          "type": "bool"
        }
      ],
      "stateMutability": "view",
      "type": "function"
    },
    {
      "inputs": [],
      "name": "owner",
      "outputs": [
        {
          "internalType": "address",
          "name": "",
          "type": "address"
        }
      ],
      "stateMutability": "view",
      "type": "function"
    },
    {
      "inputs": [],
      "name": "pendingOwner",
      "outputs": [
        {
          "internalType": "address",
          "name": "",
          "type": "address"
        }
      ],
      "stateMutability": "view",
      "type": "function"
    },
    {
      "inputs": [
        {
          "components": [
            {
              "internalType": "bytes32",
              "name": "txId",
              "type": "bytes32"
            },
            {
              "internalType": "bytes32",
              "name": "txExecutionHash",
              "type": "bytes32"
            },
            {
              "internalType": "address",
              "name": "leader",
              "type": "address"
            },
            {
              "internalType": "address",
              "name": "operator",
              "type": "address"
            },
            {
              "internalType": "uint256",
              "name": "processingBlock",
              "type": "uint256"
            },
            {
              "internalType": "uint256",
              "name": "storageFeeUsed",
              "type": "uint256"
            },
            {
              "internalType": "bytes",
              "name": "eqBlocksOutputs",
              "type": "bytes"
            },
            {
              "internalType": "bytes",
              "name": "vrfProof",
              "type": "bytes"
            }
          ],
          "internalType": "struct IProposalPhase.ProposeReceiptParams",
          "name": "params",
          "type": "tuple"
        }
      ],
      "name": "proposeReceipt",
      "outputs": [
        {
          "components": [
            {
              "internalType": "bool",
              "name": "success",
              "type": "bool"
            },
            {
              "internalType": "address",
              "name": "recipient",
              "type": "address"
            },
            {
              "internalType": "enum ITransactions.TransactionStatus",
              "name": "status",
              "type": "uint8"
            },
            {
              "internalType": "address",
              "name": "newLeader",
              "type": "address"
            },
            {
              "internalType": "uint256",
              "name": "leaderIndex",
              "type": "uint256"
            },
            {
              "internalType": "uint256",
              "name": "round",
              "type": "uint256"
            },
            {
              "internalType": "address[]",
              "name": "validators",
              "type": "address[]"
            },
            {
              "internalType": "bool",
              "name": "wasLeaderRotated",
              "type": "bool"
            },
            {
              "internalType": "address",
              "name": "oldLeader",
              "type": "address"
            },
            {
              "internalType": "bool",
              "name": "leaderTimeoutQueueSuccess",
              "type": "bool"
            }
          ],
          "internalType": "struct IProposalPhase.ProposeReceiptResult",
          "name": "result",
          "type": "tuple"
        }
      ],
      "stateMutability": "nonpayable",
      "type": "function"
    },
    {
      "inputs": [],
      "name": "renounceOwnership",
      "outputs": [],
      "stateMutability": "nonpayable",
      "type": "function"
    },
    {
      "inputs": [
        {
          "internalType": "address",
          "name": "_addressManager",
          "type": "address"
        }
      ],
      "name": "setAddressManager",
      "outputs": [],
      "stateMutability": "nonpayable",
      "type": "function"
    },
    {
      "inputs": [
        {
          "internalType": "address",
          "name": "caller",
          "type": "address"
        },
        {
          "internalType": "bool",
          "name": "authorized",
          "type": "bool"
        }
      ],
      "name": "setAuthorizedCaller",
      "outputs": [],
      "stateMutability": "nonpayable",
      "type": "function"
    },
    {
      "inputs": [
        {
          "internalType": "address[]",
          "name": "callers",
          "type": "address[]"
        },
        {
          "internalType": "bool",
          "name": "authorized",
          "type": "bool"
        }
      ],
      "name": "setAuthorizedCallers",
      "outputs": [],
      "stateMutability": "nonpayable",
      "type": "function"
    },
    {
      "inputs": [
        {
          "internalType": "address",
          "name": "newOwner",
          "type": "address"
        }
      ],
      "name": "transferOwnership",
      "outputs": [],
      "stateMutability": "nonpayable",
      "type": "function"
    }
  ],
  "bytecode": "0x6080806040523460d2577ff0c57e16840df040f15088dc2f81fe391c3923bec73e23a9662efc9c229c6a005460ff8160401c1660c1576002600160401b03196001600160401b03821601605c575b60405161238f90816100d88239f35b6001600160401b0319166001600160401b039081177ff0c57e16840df040f15088dc2f81fe391c3923bec73e23a9662efc9c229c6a005581527fc7f505b2f371ae2175ee4913f4499e1f2633a7b5936321eed1cdaeb6115181d290602090a13880604d565b63f92ee8a960e01b60005260046000fd5b600080fdfe6080604052600436101561001257600080fd5b60003560e01c80630652b57a146107dc578063090263a7146106e35780633ab76e9f146106ba578063454bbd291461063c578063536fff6c146105fd57806359d14b41146105fd578063715018a61461057c57806379ba50971461052a5780638da5cb5b146104f4578063c4d66de81461033f578063e30c397814610309578063f2fde38b146102825763fa319c65146100ab57600080fd5b3461027d57602036600319011261027d576004356001600160401b03811161027d57610100600319823603011261027d5760006101206040516100ed816108a1565b8281528260208201528260408201528260608201528260808201528260a0820152606060c08201528260e082015282610100820152015233600052600160205260ff604060002054161561026d5760026000805160206122fa833981519152541461025c576101709060026000805160206122fa83398151915255600401610b04565b60016000805160206122fa8339815191525560408051602080825283511515818301528301516001600160a01b031681830152908201516101608201906101bb906060840190610844565b60018060a01b036060840151166080830152608083015160a083015260a083015160c083015260c08301519061014060e084015281518091526020610180840192019060005b81811061023d575050506101208360e084950151151561010085015260018060a01b036101008201511682850152015115156101408301520390f35b82516001600160a01b0316845260209384019390920191600101610201565b633ee5aeb560e01b60005260046000fd5b6282b42960e81b60005260046000fd5b600080fd5b3461027d57602036600319011261027d5761029b61081f565b6102a36120ad565b60008051602061233a83398151915280546001600160a01b0319166001600160a01b039283169081179091556000805160206122da833981519152549091167f38d16b8cac22d99fc7c124b9cd0de2d3fa1faef420bfe791d8c362d765e22700600080a3005b3461027d57600036600319011261027d5760008051602061233a833981519152546040516001600160a01b039091168152602090f35b3461027d57602036600319011261027d5761035861081f565b60008051602061231a833981519152549060ff8260401c1615916001600160401b038116801590816104ec575b60011490816104e2575b1590816104d9575b506104c85767ffffffffffffffff19811660011760008051602061231a833981519152558261049b575b506103ca6122ab565b6103d26122ab565b6103da6122ab565b3315610485576103e9336120ce565b6103f16122ab565b6103f96122ab565b60016000805160206122fa83398151915255600080546001600160a01b0319166001600160a01b039290921691909117905561043157005b60ff60401b1960008051602061231a833981519152541660008051602061231a833981519152557fc7f505b2f371ae2175ee4913f4499e1f2633a7b5936321eed1cdaeb6115181d2602060405160018152a1005b631e4fbdf760e01b600052600060045260246000fd5b68ffffffffffffffffff1916680100000000000000011760008051602061231a83398151915255826103c1565b63f92ee8a960e01b60005260046000fd5b90501584610397565b303b15915061038f565b849150610385565b3461027d57600036600319011261027d576000805160206122da833981519152546040516001600160a01b039091168152602090f35b3461027d57600036600319011261027d5760008051602061233a83398151915254336001600160a01b039091160361056757610565336120ce565b005b63118cdaa760e01b6000523360045260246000fd5b3461027d57600036600319011261027d576105956120ad565b60008051602061233a83398151915280546001600160a01b03199081169091556000805160206122da833981519152805491821690556000906001600160a01b03167f8be0079c531659141344cd1fd0a4f28419497f9722a3daafe3b4186f6b6457e08280a3005b3461027d57602036600319011261027d576001600160a01b0361061e61081f565b166000526001602052602060ff604060002054166040519015158152f35b3461027d57604036600319011261027d5761065561081f565b7fad857fa38c9319cb80848f1ef2f924383b90297eb5d71755738ff037d100faa16020610680610835565b926106896120ad565b6001600160a01b031660008181526001835260409020805460ff191660ff86151516179055926040519015158152a2005b3461027d57600036600319011261027d576000546040516001600160a01b039091168152602090f35b3461027d57604036600319011261027d576004356001600160401b03811161027d573660238201121561027d5780600401356001600160401b03811161027d576024820191602436918360051b01011161027d5761073f610835565b6107476120ad565b8015159060005b83811061075757005b6001906001600160a01b0361077561077083888a610867565b61088d565b16600052816020526107978360406000209060ff801983541691151516179055565b818060a01b036107ab61077083888a610867565b167fad857fa38c9319cb80848f1ef2f924383b90297eb5d71755738ff037d100faa16020604051878152a20161074e565b3461027d57602036600319011261027d576107f561081f565b6107fd6120ad565b600080546001600160a01b0319166001600160a01b0392909216919091179055005b600435906001600160a01b038216820361027d57565b60243590811515820361027d57565b90600f8210156108515752565b634e487b7160e01b600052602160045260246000fd5b91908110156108775760051b0190565b634e487b7160e01b600052603260045260246000fd5b356001600160a01b038116810361027d5790565b61014081019081106001600160401b038211176108bd57604052565b634e487b7160e01b600052604160045260246000fd5b61016081019081106001600160401b038211176108bd57604052565b90601f801991011681019081106001600160401b038211176108bd57604052565b5190811515820361027d57565b51906001600160a01b038216820361027d57565b60005b8381106109445750506000910152565b8181015183820152602001610934565b81601f8201121561027d5780516001600160401b0381116108bd5760405192610987601f8301601f1916602001856108ef565b8184526020828401011161027d576109a59160208085019101610931565b90565b6001600160401b0381116108bd5760051b60200190565b919082606091031261027d57604051606081018181106001600160401b038211176108bd57604052604080829480518452602081015160208501520151910152565b9080601f8301121561027d578151610a18816109a8565b92610a2660405194856108ef565b81845260208085019260051b82010192831161027d57602001905b828210610a4e5750505090565b8151815260209182019101610a41565b80518210156108775760209160051b010190565b90602091610a8b81518092818552858086019101610931565b601f01601f1916010190565b903590601e198136030182121561027d57018035906001600160401b03821161027d5760200191813603831361027d57565b908060209392818452848401376000828201840152601f01601f1916010190565b919082604091031261027d576109a5602083519301610910565b610b0c61213c565b610b146121ed565b9160646000602060018060a01b0382541660405193848092631bae711d60e21b82528460048301526006602483015265526f756e647360d01b60448301525afa9182156120a0578192612064575b508054604051631bae711d60e21b815260206004820181905260056024830152645574696c7360d81b60448301529091829060649082906001600160a01b03165afa90811561194957829161202a575b506001600160a01b031692610bc561224d565b946064602060018060a01b0385541660405192838092631bae711d60e21b8252846004830152600a60248301526923b2b726b0b730b3b2b960b11b60448301525afa90811561201f578491611fe1575b5060405163dfb3e12f60e01b8152833560048201526020816024816001600160a01b0387165afa908115611f8e578591611fa7575b50611f995760405163255709e560e11b81528335600482015284816024816001600160a01b0387165afa908115611f8e578591611d33575b5060608101968751600f811015611d1f57813b1561136257610cbd604488926040519485938492633813abfb60e21b84526004840190610844565b600260248301525afa801561135757611d0b575b506060610140604051610ce3816108d3565b87815287602082015287604082015287838201528760808201528760a08201528760c08201528260e082015282610100820152826101208201520152604051936384c2483160e01b855280356004860152858560248160018060a01b038b165afa9384156113575786958795611b21575b5060e085015160208601516001600160a01b0391610d729190610a5e565b511693610d816040840161088d565b60405163023770b560e01b81526001600160a01b03909116600482015260248101869052606060448201528451909a906006811015611b0d5760648c015260208501516005811015611b0d5790610df59160848d0152610dea8c60a46040890151910190610844565b5160c48c0190610844565b60808401516001600160a01b0390811660e48c015260a085015181166101048c015260c085015181166101248c015260e0850151166101448b01526101008401516101648b01526101208401516101848b01526101408401516101a48b01526101608401516101c48b01526101808401516101e48b01526101a08401516102048b01526101c08401516102248b01526101e08401516102448b01526102008401516102e06102648c015288908b908e90610ed090610eb890610344850190610a72565b61022089015184820360631901610284860152610a72565b61024088015190606319848203016102a485015260208083519283815201920190855b818110611ad8575050506102608801516102c48401526102808801516102e48401526102a08801516103048401526102c088015161032484015282900390829084906001600160a01b03165af1998a1561137b57889a898a928b92611a41575b5061178857508899899b611672575b506001600160a01b039050610f796040850161088d565b6001600160a01b03909616951685036116445760405163625c3dd960e11b815283356004820152906020826024816001600160a01b0387165afa9182156113b4578992611610575b506040516303b44ebd60e61b81528435600482015260248101929092526060826044816001600160a01b0387165afa9182156113b45789926115d3575b5060808401359151821080156115ca575b6115bb5760c08501516001600160a01b0316906020908a906110336060880161088d565b61104060e0890189610a97565b604051634f51e1cf60e01b815260048101979097526001600160a01b03909216602487015260606044870152859384929091839161108391606484019190610ac9565b03926001600160a01b03165af180156113b45761158c575b5060c083018860016110ad8387610a97565b905011156000146114255750600d9c90506001600160a01b0381163b156113bf57604051634e8eb8bd60e01b815284356004820152600560248201524260448201528981606481836001600160a01b0387165af1801561141a57908a91611405575b505060c0850151604051630341e56360e31b81526001600160a01b039182166004820152853560248201529c168c6044818c5a94604095f19b8c156113b457899c6113d2575b508b156113c3575b6001600160a01b0381163b156113bf57604051634e8eb8bd60e01b815284356004820152600360248201524260448201529089908290606490829084906001600160a01b03165af180156113b45790899161139f575b50506001600160a01b0382163b1561139b57604051633e7c706b60e01b8152833560048201526001602482015260448101919091528781606481836001600160a01b0387165af1801561137b57908891611386575b50506001600160a01b0381163b1561136257604051633e7c706b60e01b815282356004820152600260248201524360448201528781606481836001600160a01b0387165af1801561137b57908891611366575b50506001600160a01b0381163b15611362578a60446112999389809460405196879586946346f32a5d60e11b86523560048601526024850190610844565b6001600160a01b03165af180156113575790869161133e575b505060c00151602083015160e09093015160405199909590916001600160a01b03166112dd8b6108a1565b60018b5260208b0152600f82101561132a575060408901526060880152608087015260a086015260c0850152151560e08401526001600160a01b0316610100830152151561012082015290565b634e487b7160e01b81526021600452602490fd5b81611348916108ef565b6113535784386112b2565b8480fd5b6040513d88823e3d90fd5b8680fd5b81611370916108ef565b61136257863861125b565b6040513d8a823e3d90fd5b81611390916108ef565b611362578638611208565b8780fd5b816113a9916108ef565b61139b5787386111b3565b6040513d8b823e3d90fd5b8880fd5b6366e7d1b360e11b8952600489fd5b6113f5919c5060403d6040116113fe575b6113ed81836108ef565b810190610aea565b90509a38611155565b503d6113e3565b8161140f916108ef565b6113bf57883861110f565b6040513d8c823e3d90fd5b60039d909c50906001600160a01b0384163b1561157d5760405163f3d5a81760e01b815285356004820152602086013560248201528a81604481836001600160a01b038a165af1801561158157908b91611568575b50506114869085610a97565b6001600160a01b0385163b15611564576114c6918b916040519384928392630643ae5b60e01b84528a356004850152604060248501526044840191610ac9565b0381836001600160a01b0389165af1801561141a57908a9161154f575b50506001600160a01b0383163b156113bf57604051630a8df7e960e41b81528435600482015260a085013560248201528981604481836001600160a01b0389165af1801561141a57908a9161153a575b505061115d565b81611544916108ef565b6113bf578838611533565b81611559916108ef565b6113bf5788386114e3565b8a80fd5b81611572916108ef565b61157d57893861147a565b8980fd5b6040513d8d823e3d90fd5b6020813d6020116115b3575b816115a5602093836108ef565b810103126113bf575161109b565b3d9150611598565b63d1ba078760e01b8952600489fd5b5043821161100f565b90915060603d606011611609575b6115eb81836108ef565b81019060608183031261157d5790611602916109bf565b9038610ffe565b503d6115e1565b9091506020813d60201161163c575b8161162c602093836108ef565b810103126113bf57519038610fc1565b3d915061161f565b604488866116546040870161088d565b631aac64ed60e11b83526004919091526001600160a01b0316602452fd5b6020880151969b5060019a5090958691906001600160a01b0382163b1561156457604051638858751360e01b815286356004820152602481018b90526001600160a01b038481166044830152606482019290925260016084820152918b91839160a49183918591165af1801561141a57908a91611773575b505060e087015160208801516001600160a01b039092169161170b91610a5e565b526001600160a01b038c163b1561139b5787808d606460405180948193634e8eb8bd60e01b8352893560048401526002602484015242604484015260018060a01b03165af180156113b45790899115610f625781611768916108ef565b61139b578738610f62565b8161177d916108ef565b6113bf5788386116ea565b9b505050505050505050949350505061179f61213c565b6117a761224d565b6001600160a01b039182169116845b83518110156119db576117c98185610a5e565b516040519063fbc6da7560e01b82526004820152602081602481875afa90811561199157879161199c575b506040611833916118058488610a5e565b51825163910048fb60e01b81526001600160a01b039092166004830152602482015291829081906044820190565b03818a875af1908115611991578791611971575b50611855575b6001016117b6565b856118608286610a5e565b51843b1561196d57604051906346f32a5d60e11b8252600482015260066024820152818160448183895af1801561194957611958575b506001600160a01b036118a76121ed565b166118b28387610a5e565b5190803b1561195457604051634e8eb8bd60e01b815260048101929092526005602483015242604483015282908290606490829084905af1801561194957611930575b50508061190460019286610a5e565b517fb9f69df2250e1788b862d0715b1dad98b2a50311c017ebb71f6cd83de656b06d8880a2905061184d565b8161193a916108ef565b6119455785386118f5565b8580fd5b6040513d84823e3d90fd5b8280fd5b81611962916108ef565b611945578538611896565b5080fd5b611989915060403d81116113fe576113ed81836108ef565b905038611847565b6040513d89823e3d90fd5b90506020813d82116119d3575b816119b6602093836108ef565b810103126113625760406119cc6118339261091d565b91506117f4565b3d91506119a9565b5050505090604051906119ef6020836108ef565b808252600036813760405191611a04836108a1565b818352816020840152600660408401528160608401528160808401528160a084015260c08301528060e08301528061010083015261012082015290565b9c505050503d80898c3e611a55818c6108ef565b8a019960a0818c03126113bf57611a6b81610910565b9a611a7860208301610910565b9b611a856040840161091d565b9160608401516001600160401b038111611ad45781611aa5918601610a01565b936080810151906001600160401b038211611ad057611ac5929101610a01565b509b90919038610f53565b8d80fd5b8c80fd5b9350935093506020606060019260408751805183528481015185840152015160408201520194019101928f918e938d95610ef3565b634e487b7160e01b8a52602160045260248afd5b955093503d8087873e611b3481876108ef565b850194604081870312611362578051906020810151906001600160401b0382116113bf5701956101608782031261139b5760405196611b72886108d3565b805188526020810151602089015260408101516040890152606081015160608901526080810151608089015260a081015160a089015260c0810151600681101561157d5760c089015260e08101516001600160401b03811161157d57810182601f8201121561157d57805190611be7826109a8565b91611bf560405193846108ef565b80835260208084019160051b83010191858311611ad457602001905b828210611cf35750505060e08901526101008101516001600160401b03811161157d57810182601f8201121561157d578051611c4c816109a8565b91611c5a60405193846108ef565b81835260208084019260051b82010190858211611ad457602001915b818310611cda575050506101008901526101208101516001600160401b03811161157d5782611ca6918301610a01565b610120890152610140810151906001600160401b03821161157d57611ccc929101610a01565b610140870152949338610d54565b82516005811015611ad057815260209283019201611c76565b60208091611d008461091d565b815201910190611c11565b85611d18919692966108ef565b9338610cd1565b634e487b7160e01b87526021600452602487fd5b90503d8086833e611d4481836108ef565b810190602081830312611945578051906001600160401b03821161136257016102e08183031261194557604051916102e083018381106001600160401b03821117611f7a576040528151600681101561139b5783526020820151600581101561139b5760208401526040820151600f81101561139b5760408401526060820151600f81101561139b576060840152611dde6080830161091d565b6080840152611def60a0830161091d565b60a0840152611e0060c0830161091d565b60c0840152611e1160e0830161091d565b60e08401526101008201516101008401526101208201516101208401526101408201516101408401526101608201516101608401526101808201516101808401526101a08201516101a08401526101c08201516101c08401526101e08201516101e08401526102008201516001600160401b03811161139b5781611e96918401610954565b6102008401526102208201516001600160401b03811161139b5781611ebc918401610954565b6102208401526102408201516001600160401b03811161139b57820181601f8201121561139b578051611eee816109a8565b92611efc60405194856108ef565b8184526020606081860193028401019281841161156457602001915b838310611f605750505050906102c0916102408401526102608101516102608401526102808101516102808401526102a08101516102a084015201516102c082015238610c82565b6020606091611f6f84866109bf565b815201920191611f18565b634e487b7160e01b88526041600452602488fd5b6040513d87823e3d90fd5b623aea9f60e21b8452600484fd5b90506020813d602011611fd9575b81611fc2602093836108ef565b8101031261135357611fd390610910565b38610c4a565b3d9150611fb5565b90506020813d602011612017575b81611ffc602093836108ef565b810103126120135761200d9061091d565b38610c15565b8380fd5b3d9150611fef565b6040513d86823e3d90fd5b90506020813d60201161205c575b81612045602093836108ef565b8101031261196d576120569061091d565b38610bb2565b3d9150612038565b9091506020813d602011612098575b81612080602093836108ef565b8101031261196d576120919061091d565b9038610b62565b3d9150612073565b50604051903d90823e3d90fd5b6000805160206122da833981519152546001600160a01b0316330361056757565b60008051602061233a83398151915280546001600160a01b03199081169091556000805160206122da83398151915280549182166001600160a01b0393841690811790915591167f8be0079c531659141344cd1fd0a4f28419497f9722a3daafe3b4186f6b6457e0600080a3565b600054604051631bae711d60e21b815260206004820181905260126024830152712a3930b739b0b1ba34b7b726b0b730b3b2b960711b60448301529091829060649082906001600160a01b03165afa9081156121e1576000916121a7575b506001600160a01b031690565b90506020813d6020116121d9575b816121c2602093836108ef565b8101031261027d576121d39061091d565b3861219a565b3d91506121b5565b6040513d6000823e3d90fd5b600054604051631bae711d60e21b8152602060048201819052600860248301526749646c656e65737360c01b60448301529091829060649082906001600160a01b03165afa9081156121e1576000916121a757506001600160a01b031690565b600054604051631bae711d60e21b8152602060048201819052600660248301526551756575657360d01b60448301529091829060649082906001600160a01b03165afa9081156121e1576000916121a757506001600160a01b031690565b60ff60008051602061231a8339815191525460401c16156122c857565b631afcd79f60e31b60005260046000fdfe9016d09d72d40fdae2fd8ceac6b6234c7706214fd39c1cd1e609a0528c1993009b779b17422d0df92223018b32b4d1fa46e071723d6817e2486d003becc55f00f0c57e16840df040f15088dc2f81fe391c3923bec73e23a9662efc9c229c6a00237e158222e3e6968b72b9db0d8043aacf074ad9f650f0d1606b4d82ee432c00a26469706673582212201b103d6c2813df657a2a7bd4f7a2f2aced28bad40e5f0d0ec1c8c429d8b9440764736f6c634300081c0033",
  "linkReferences": {},
  "deployedLinkReferences": {}
}