{
  "_format": "hh-sol-artifact-1",
  "contractName": "GhostFactory",
  "sourceName": "contracts/ghost_contracts/GhostFactory.sol",
  "abi": [
    {
      "inputs": [],
      "name": "AccessControlBadConfirmation",
      "type": "error"
    },
    {
      "inputs": [
        {
          "internalType": "address",
          "name": "account",
          "type": "address"
        },
        {
          "internalType": "bytes32",
          "name": "neededRole",
          "type": "bytes32"
        }
      ],
      "name": "AccessControlUnauthorizedAccount",
      "type": "error"
    },
    {
      "inputs": [],
      "name": "CallerNotConsensus",
      "type": "error"
    },
    {
      "inputs": [],
      "name": "InvalidInitialization",
      "type": "error"
    },
    {
      "inputs": [],
      "name": "NotInitializing",
      "type": "error"
    },
    {
      "inputs": [
        {
          "internalType": "address",
          "name": "owner",
          "type": "address"
        }
      ],
      "name": "OwnableInvalidOwner",
      "type": "error"
    },
    {
      "inputs": [
        {
          "internalType": "address",
          "name": "account",
          "type": "address"
        }
      ],
      "name": "OwnableUnauthorizedAccount",
      "type": "error"
    },
    {
      "inputs": [],
      "name": "ReentrancyGuardReentrantCall",
      "type": "error"
    },
    {
      "anonymous": false,
      "inputs": [
        {
          "indexed": true,
          "internalType": "bytes32",
          "name": "bytecodeHash",
          "type": "bytes32"
        }
      ],
      "name": "BeaconProxyBytecodeHashSet",
      "type": "event"
    },
    {
      "anonymous": false,
      "inputs": [
        {
          "indexed": true,
          "internalType": "address",
          "name": "implementation",
          "type": "address"
        }
      ],
      "name": "BeaconUpgraded",
      "type": "event"
    },
    {
      "anonymous": false,
      "inputs": [
        {
          "indexed": true,
          "internalType": "address",
          "name": "genConsensus",
          "type": "address"
        }
      ],
      "name": "GenConsensusSet",
      "type": "event"
    },
    {
      "anonymous": false,
      "inputs": [
        {
          "indexed": false,
          "internalType": "address",
          "name": "ghostAddress",
          "type": "address"
        }
      ],
      "name": "GhostCreated",
      "type": "event"
    },
    {
      "anonymous": false,
      "inputs": [
        {
          "indexed": true,
          "internalType": "address",
          "name": "ghostManager",
          "type": "address"
        }
      ],
      "name": "GhostManagerSet",
      "type": "event"
    },
    {
      "anonymous": false,
      "inputs": [
        {
          "indexed": false,
          "internalType": "uint64",
          "name": "version",
          "type": "uint64"
        }
      ],
      "name": "Initialized",
      "type": "event"
    },
    {
      "anonymous": false,
      "inputs": [
        {
          "indexed": true,
          "internalType": "address",
          "name": "previousOwner",
          "type": "address"
        },
        {
          "indexed": true,
          "internalType": "address",
          "name": "newOwner",
          "type": "address"
        }
      ],
      "name": "OwnershipTransferStarted",
      "type": "event"
    },
    {
      "anonymous": false,
      "inputs": [
        {
          "indexed": true,
          "internalType": "address",
          "name": "previousOwner",
          "type": "address"
        },
        {
          "indexed": true,
          "internalType": "address",
          "name": "newOwner",
          "type": "address"
        }
      ],
      "name": "OwnershipTransferred",
      "type": "event"
    },
    {
      "anonymous": false,
      "inputs": [
        {
          "indexed": true,
          "internalType": "bytes32",
          "name": "role",
          "type": "bytes32"
        },
        {
          "indexed": true,
          "internalType": "bytes32",
          "name": "previousAdminRole",
          "type": "bytes32"
        },
        {
          "indexed": true,
          "internalType": "bytes32",
          "name": "newAdminRole",
          "type": "bytes32"
        }
      ],
      "name": "RoleAdminChanged",
      "type": "event"
    },
    {
      "anonymous": false,
      "inputs": [
        {
          "indexed": true,
          "internalType": "bytes32",
          "name": "role",
          "type": "bytes32"
        },
        {
          "indexed": true,
          "internalType": "address",
          "name": "account",
          "type": "address"
        },
        {
          "indexed": true,
          "internalType": "address",
          "name": "sender",
          "type": "address"
        }
      ],
      "name": "RoleGranted",
      "type": "event"
    },
    {
      "anonymous": false,
      "inputs": [
        {
          "indexed": true,
          "internalType": "bytes32",
          "name": "role",
          "type": "bytes32"
        },
        {
          "indexed": true,
          "internalType": "address",
          "name": "account",
          "type": "address"
        },
        {
          "indexed": true,
          "internalType": "address",
          "name": "sender",
          "type": "address"
        }
      ],
      "name": "RoleRevoked",
      "type": "event"
    },
    {
      "anonymous": false,
      "inputs": [
        {
          "indexed": true,
          "internalType": "enum GhostFactory.VirtualMachineType",
          "name": "virtualMachine",
          "type": "uint8"
        }
      ],
      "name": "VirtualMachineSet",
      "type": "event"
    },
    {
      "inputs": [],
      "name": "BEACON_PROXY_CREATION_CODE",
      "outputs": [
        {
          "internalType": "bytes",
          "name": "",
          "type": "bytes"
        }
      ],
      "stateMutability": "view",
      "type": "function"
    },
    {
      "inputs": [],
      "name": "DEFAULT_ADMIN_ROLE",
      "outputs": [
        {
          "internalType": "bytes32",
          "name": "",
          "type": "bytes32"
        }
      ],
      "stateMutability": "view",
      "type": "function"
    },
    {
      "inputs": [],
      "name": "INITIALIZE_SELECTOR",
      "outputs": [
        {
          "internalType": "bytes4",
          "name": "",
          "type": "bytes4"
        }
      ],
      "stateMutability": "view",
      "type": "function"
    },
    {
      "inputs": [],
      "name": "acceptOwnership",
      "outputs": [],
      "stateMutability": "nonpayable",
      "type": "function"
    },
    {
      "inputs": [],
      "name": "addressManager",
      "outputs": [
        {
          "internalType": "contract IAddressManager",
          "name": "",
          "type": "address"
        }
      ],
      "stateMutability": "view",
      "type": "function"
    },
    {
      "inputs": [],
      "name": "bytecodeEVM",
      "outputs": [
        {
          "internalType": "bytes32",
          "name": "",
          "type": "bytes32"
        }
      ],
      "stateMutability": "view",
      "type": "function"
    },
    {
      "inputs": [],
      "name": "bytecodeZKSync",
      "outputs": [
        {
          "internalType": "bytes32",
          "name": "",
          "type": "bytes32"
        }
      ],
      "stateMutability": "view",
      "type": "function"
    },
    {
      "inputs": [
        {
          "internalType": "uint256",
          "name": "_saltNonce",
          "type": "uint256"
        }
      ],
      "name": "createGhost",
      "outputs": [
        {
          "internalType": "address",
          "name": "",
          "type": "address"
        }
      ],
      "stateMutability": "nonpayable",
      "type": "function"
    },
    {
      "inputs": [],
      "name": "deployNewBeaconProxy",
      "outputs": [],
      "stateMutability": "nonpayable",
      "type": "function"
    },
    {
      "inputs": [
        {
          "internalType": "bytes32",
          "name": "role",
          "type": "bytes32"
        }
      ],
      "name": "getRoleAdmin",
      "outputs": [
        {
          "internalType": "bytes32",
          "name": "",
          "type": "bytes32"
        }
      ],
      "stateMutability": "view",
      "type": "function"
    },
    {
      "inputs": [],
      "name": "ghostBeaconProxy",
      "outputs": [
        {
          "internalType": "address",
          "name": "",
          "type": "address"
        }
      ],
      "stateMutability": "view",
      "type": "function"
    },
    {
      "inputs": [],
      "name": "ghostBlueprint",
      "outputs": [
        {
          "internalType": "address",
          "name": "",
          "type": "address"
        }
      ],
      "stateMutability": "view",
      "type": "function"
    },
    {
      "inputs": [
        {
          "internalType": "address",
          "name": "",
          "type": "address"
        }
      ],
      "name": "ghostContracts",
      "outputs": [
        {
          "internalType": "bool",
          "name": "",
          "type": "bool"
        }
      ],
      "stateMutability": "view",
      "type": "function"
    },
    {
      "inputs": [
        {
          "internalType": "bytes32",
          "name": "role",
          "type": "bytes32"
        },
        {
          "internalType": "address",
          "name": "account",
          "type": "address"
        }
      ],
      "name": "grantRole",
      "outputs": [],
      "stateMutability": "nonpayable",
      "type": "function"
    },
    {
      "inputs": [
        {
          "internalType": "bytes32",
          "name": "role",
          "type": "bytes32"
        },
        {
          "internalType": "address",
          "name": "account",
          "type": "address"
        }
      ],
      "name": "hasRole",
      "outputs": [
        {
          "internalType": "bool",
          "name": "",
          "type": "bool"
        }
      ],
      "stateMutability": "view",
      "type": "function"
    },
    {
      "inputs": [
        {
          "internalType": "address",
          "name": "_addressManager",
          "type": "address"
        }
      ],
      "name": "initialize",
      "outputs": [],
      "stateMutability": "nonpayable",
      "type": "function"
    },
    {
      "inputs": [
        {
          "internalType": "address",
          "name": "_ghost",
          "type": "address"
        }
      ],
      "name": "isGhost",
      "outputs": [
        {
          "internalType": "bool",
          "name": "",
          "type": "bool"
        }
      ],
      "stateMutability": "view",
      "type": "function"
    },
    {
      "inputs": [],
      "name": "latestGhost",
      "outputs": [
        {
          "internalType": "address",
          "name": "",
          "type": "address"
        }
      ],
      "stateMutability": "view",
      "type": "function"
    },
    {
      "inputs": [],
      "name": "owner",
      "outputs": [
        {
          "internalType": "address",
          "name": "",
          "type": "address"
        }
      ],
      "stateMutability": "view",
      "type": "function"
    },
    {
      "inputs": [],
      "name": "pendingOwner",
      "outputs": [
        {
          "internalType": "address",
          "name": "",
          "type": "address"
        }
      ],
      "stateMutability": "view",
      "type": "function"
    },
    {
      "inputs": [
        {
          "internalType": "uint256",
          "name": "_saltNonce",
          "type": "uint256"
        },
        {
          "internalType": "address",
          "name": "_sender",
          "type": "address"
        }
      ],
      "name": "predictGhostAddress",
      "outputs": [
        {
          "internalType": "address",
          "name": "",
          "type": "address"
        }
      ],
      "stateMutability": "view",
      "type": "function"
    },
    {
      "inputs": [],
      "name": "renounceOwnership",
      "outputs": [],
      "stateMutability": "nonpayable",
      "type": "function"
    },
    {
      "inputs": [
        {
          "internalType": "bytes32",
          "name": "role",
          "type": "bytes32"
        },
        {
          "internalType": "address",
          "name": "callerConfirmation",
          "type": "address"
        }
      ],
      "name": "renounceRole",
      "outputs": [],
      "stateMutability": "nonpayable",
      "type": "function"
    },
    {
      "inputs": [
        {
          "internalType": "bytes32",
          "name": "role",
          "type": "bytes32"
        },
        {
          "internalType": "address",
          "name": "account",
          "type": "address"
        }
      ],
      "name": "revokeRole",
      "outputs": [],
      "stateMutability": "nonpayable",
      "type": "function"
    },
    {
      "inputs": [
        {
          "internalType": "address",
          "name": "_addressManager",
          "type": "address"
        }
      ],
      "name": "setAddressManager",
      "outputs": [],
      "stateMutability": "nonpayable",
      "type": "function"
    },
    {
      "inputs": [
        {
          "internalType": "bytes32",
          "name": "_bytecode",
          "type": "bytes32"
        }
      ],
      "name": "setBeaconProxyBytecodeHash",
      "outputs": [],
      "stateMutability": "nonpayable",
      "type": "function"
    },
    {
      "inputs": [
        {
          "internalType": "address",
          "name": "_ghostBlueprint",
          "type": "address"
        }
      ],
      "name": "setGhostBlueprint",
      "outputs": [],
      "stateMutability": "nonpayable",
      "type": "function"
    },
    {
      "inputs": [
        {
          "internalType": "enum GhostFactory.VirtualMachineType",
          "name": "_virtualMachine",
          "type": "uint8"
        }
      ],
      "name": "setVirtualMachine",
      "outputs": [],
      "stateMutability": "nonpayable",
      "type": "function"
    },
    {
      "inputs": [
        {
          "internalType": "bytes4",
          "name": "interfaceId",
          "type": "bytes4"
        }
      ],
      "name": "supportsInterface",
      "outputs": [
        {
          "internalType": "bool",
          "name": "",
          "type": "bool"
        }
      ],
      "stateMutability": "view",
      "type": "function"
    },
    {
      "inputs": [
        {
          "internalType": "address",
          "name": "newOwner",
          "type": "address"
        }
      ],
      "name": "transferOwnership",
      "outputs": [],
      "stateMutability": "nonpayable",
      "type": "function"
    },
    {
      "inputs": [
        {
          "internalType": "address",
          "name": "_newImplementation",
          "type": "address"
        }
      ],
      "name": "upgradeBeacon",
      "outputs": [],
      "stateMutability": "nonpayable",
      "type": "function"
    },
    {
      "inputs": [],
      "name": "virtualMachine",
      "outputs": [
        {
          "internalType": "enum GhostFactory.VirtualMachineType",
          "name": "",
          "type": "uint8"
        }
      ],
      "stateMutability": "view",
      "type": "function"
    },
    {
      "stateMutability": "payable",
      "type": "receive"
    }
  ],
  "bytecode": "0x60808060405234601557611f97908161001b8239f35b600080fdfe608080604052600436101561001d575b50361561001b57600080fd5b005b600090813560e01c90816301ffc9a714611048575080630652b57a146110085780631bce458314610f60578063248a9ca314610f395780632f2ff15d14610f0757806336568abe14610ec25780633ab76e9f14610e9b5780635464b35c14610e7257806356e71eda14610e4f57806369360aac14610e1b578063715018a614610d9a578063740bdf9614610d0f5780637440c21b1461021057806374c15323146108ed57806379ba50971461089c5780637c8069a8146107c35780638da5cb5b1461078d57806391d148541461073457806392eaf01514610716578063945b8e9a146106d1578063a217fddf146106b5578063b8f3c9631461068c578063c4d66de8146104c2578063cb85e3ad14610383578063d4fd3a271461034a578063d547741f1461030f578063d895f9cb146102cc578063e26b64e6146102a3578063e30c39781461026d578063e70850ee1461024f578063ef7c0541146102105763f2fde38b0361000f573461020d57602036600319011261020d5761019f61109d565b6101a76111ff565b600080516020611f4283398151915280546001600160a01b0319166001600160a01b03928316908117909155600080516020611ee2833981519152549091167f38d16b8cac22d99fc7c124b9cd0de2d3fa1faef420bfe791d8c362d765e227008380a380f35b80fd5b503461020d57602036600319011261020d5760209060ff906040906001600160a01b0361023b61109d565b168152600684522054166040519015158152f35b503461020d578060031936011261020d576020600454604051908152f35b503461020d578060031936011261020d57600080516020611f42833981519152546040516001600160a01b039091168152602090f35b503461020d578060031936011261020d576001546040516001600160a01b039091168152602090f35b503461020d578060031936011261020d5760ff60055460a01c166040519060028110156102fb57602092508152f35b634e487b7160e01b83526021600452602483fd5b503461020d57604036600319011261020d5761034660043561032f6110b8565b9061034161033c8261116f565b611235565b611321565b5080f35b503461020d57604036600319011261020d5760206103716103696110b8565b6004356111b5565b6040516001600160a01b039091168152f35b503461020d578060031936011261020d5761039c6111ff565b600154604051906103da808301916001600160a01b03169067ffffffffffffffff8311848410176104ae57918391604093611b088439815230602082015203019082f080156104a157600280546001600160a01b0319166001600160a01b0392909216918217905561040c611106565b9061049861044c61045a60405163189acdbd60e31b60208201523060248201526024815261043b6044826110ce565b604051928391602083019687611190565b03601f1981018352826110ce565b602060405193849261048883610479818701998a815193849201611127565b85019151809385840190611127565b010103601f1981018352826110ce565b51902060045580f35b50604051903d90823e3d90fd5b634e487b7160e01b85526041600452602485fd5b503461020d57602036600319011261020d576104dc61109d565b600080516020611f22833981519152549060ff8260401c16159167ffffffffffffffff811680159081610684575b600114908161067a575b159081610671575b506106625767ffffffffffffffff198116600117600080516020611f228339815191525582610635575b5061054f61162c565b61055761162c565b331561062157610566336113c1565b61056e61162c565b61057661162c565b61057e61162c565b60017f9b779b17422d0df92223018b32b4d1fa46e071723d6817e2486d003becc55f00556105aa61162c565b82546001600160a01b0319166001600160a01b03919091161782556105cc5780f35b60ff60401b19600080516020611f228339815191525416600080516020611f22833981519152557fc7f505b2f371ae2175ee4913f4499e1f2633a7b5936321eed1cdaeb6115181d2602060405160018152a180f35b631e4fbdf760e01b83526004839052602483fd5b68ffffffffffffffffff19166801000000000000000117600080516020611f228339815191525538610546565b63f92ee8a960e01b8452600484fd5b9050153861051c565b303b159150610514565b84915061050a565b503461020d578060031936011261020d576005546040516001600160a01b039091168152602090f35b503461020d578060031936011261020d57602090604051908152f35b503461020d57602036600319011261020d576106eb61109d565b6106f36111ff565b600180546001600160a01b0319166001600160a01b039290921691909117905580f35b503461020d578060031936011261020d576020600354604051908152f35b503461020d57604036600319011261020d5760406107506110b8565b916004358152600080516020611f02833981519152602052209060018060a01b0316600052602052602060ff604060002054166040519015158152f35b503461020d578060031936011261020d57600080516020611ee2833981519152546040516001600160a01b039091168152602090f35b503461020d57602036600319011261020d576004356002811015610898576107e96111ff565b60055460ff8160a01c16600281101561088457821461083f5760ff60a01b191660a082901b60ff60a01b16176005557f5fee1df779af830b17d8c3ff2179ea64637e4553d30127e163063ba0bb7b8f548280a280f35b60405162461bcd60e51b815260206004820152601b60248201527f5669727475616c206d616368696e6520616c72656164792073657400000000006044820152606490fd5b634e487b7160e01b84526021600452602484fd5b5080fd5b503461020d578060031936011261020d57600080516020611f4283398151915254336001600160a01b03909116036108da576108d7336113c1565b80f35b63118cdaa760e01b815233600452602490fd5b503461020d57602036600319011261020d578054604051631bae711d60e21b815260206004828101829052600d60248401526c4372656174696f6e506861736560981b60448401523592829060649082906001600160a01b03165afa908115610aea578391610cf0575b506001600160a01b03163303610ce15780610b7b575060018060a01b036002541660405163189acdbd60e31b60208201523060248201526024815261099d6044826110ce565b604051916104ad8084019084821067ffffffffffffffff831117610b6757918493916109cd9361165b8639611190565b039082f080156104a1575b6001600160a01b03168015610b28577f969b86c6b6e9d69b5ea51d9ddd7b1cc1ab8635fa70134b55cf4baf1733caeb866020604051838152a18154604051631bae711d60e21b8152602060048201819052600c60248301526b23b437b9ba26b0b730b3b2b960a11b60448301529091829060649082906001600160a01b03165afa908115610aea578391610af9575b50813b15610af55760405163f2fde38b60e01b81526001600160a01b039091166004820152828160248183865af18015610aea57610ad5575b50600580546001600160a01b0319168217905580825260066020908152604092839020805460ff191660011790559151908152f35b610ae08380926110ce565b6108985738610aa0565b6040513d85823e3d90fd5b8280fd5b610b1b915060203d602011610b21575b610b1381836110ce565b81019061142f565b38610a67565b503d610b09565b60405162461bcd60e51b815260206004820152601760248201527611da1bdcdd0819195c1b1bde5b595b9d0819985a5b1959604a1b6044820152606490fd5b634e487b7160e01b86526041600452602486fd5b6040513360601b6001600160601b031916602082019081526034820192909252610ba8816054810161044c565b5190206001600160a01b03610bbc8261144e565b1690818352600660205260ff604084205416610ca35760018060a01b036002541660405163189acdbd60e31b602082015230602482015260248152610c026044826110ce565b604051916104ad8084019084821067ffffffffffffffff831117610c8f5791849391610c329361165b8639611190565b039084f5908115610c84576001600160a01b038216146109d85760405162461bcd60e51b815260206004820152601060248201526f082c8c8e4cae6e640dad2e6dac2e8c6d60831b6044820152606490fd5b6040513d84823e3d90fd5b634e487b7160e01b88526041600452602488fd5b60405162461bcd60e51b815260206004820152601660248201527511da1bdcdd08185b1c9958591e4819195c1b1bde595960521b6044820152606490fd5b634782018760e01b8252600482fd5b610d09915060203d602011610b2157610b1381836110ce565b38610957565b503461020d57602036600319011261020d57600435610d2c6111ff565b8015610d5d57806003557f783add80924b1c0290a6574c866a18ebfa6f8bfc7228352ea44a5fb5c1b4896c8280a280f35b60405162461bcd60e51b8152602060048201526015602482015274092dcecc2d8d2c840c4f2e8cac6dec8ca40d0c2e6d605b1b6044820152606490fd5b503461020d578060031936011261020d57610db36111ff565b600080516020611f4283398151915280546001600160a01b0319908116909155600080516020611ee28339815191528054918216905581906001600160a01b03167f8be0079c531659141344cd1fd0a4f28419497f9722a3daafe3b4186f6b6457e08280a380f35b503461020d578060031936011261020d57610e4b610e37611106565b60405191829160208352602083019061114a565b0390f35b503461020d578060031936011261020d5760405163189acdbd60e31b8152602090f35b503461020d578060031936011261020d576002546040516001600160a01b039091168152602090f35b503461020d578060031936011261020d57546040516001600160a01b039091168152602090f35b503461020d57604036600319011261020d57610edc6110b8565b336001600160a01b03821603610ef85761034690600435611321565b63334bd91960e11b8252600482fd5b503461020d57604036600319011261020d57610346600435610f276110b8565b90610f3461033c8261116f565b61127f565b503461020d57602036600319011261020d576020610f5860043561116f565b604051908152f35b503461020d57602036600319011261020d57610f7a61109d565b90610f836111ff565b6002546001600160a01b031691823b1561089857604051631b2ce7f360e11b81526001600160a01b03909116600482018190529282908290602490829084905af18015610c8457610ff8575b50907f1cf3b03a6cf19fa2baba4df148e9dcabedea7f8a5c07840e207e5c089be95d3e8280a280f35b81611002916110ce565b38610fcf565b503461020d57602036600319011261020d5761102261109d565b61102a6111ff565b81546001600160a01b0319166001600160a01b039190911617815580f35b9050346108985760203660031901126108985760043563ffffffff60e01b8116809103610af55760209250637965db0b60e01b811490811561108c575b5015158152f35b6301ffc9a760e01b14905038611085565b600435906001600160a01b03821682036110b357565b600080fd5b602435906001600160a01b03821682036110b357565b90601f8019910116810190811067ffffffffffffffff8211176110f057604052565b634e487b7160e01b600052604160045260246000fd5b6040516104ad61111960208201836110ce565b80825261165b602083013990565b60005b83811061113a5750506000910152565b818101518382015260200161112a565b9060209161116381518092818552858086019101611127565b601f01601f1916010190565b600052600080516020611f0283398151915260205260016040600020015490565b6001600160a01b0390911681526040602082018190526111b29291019061114a565b90565b9081156111f85760405160609190911b6001600160601b0319166020820190815260348201929092526111b291906111f0816054810161044c565b51902061144e565b5050600090565b600080516020611ee2833981519152546001600160a01b0316330361122057565b63118cdaa760e01b6000523360045260246000fd5b6000818152600080516020611f028339815191526020908152604080832033845290915290205460ff16156112675750565b63e2517d3f60e01b6000523360045260245260446000fd5b6000818152600080516020611f02833981519152602090815260408083206001600160a01b038616845290915290205460ff166111f8576000818152600080516020611f02833981519152602090815260408083206001600160a01b0395909516808452949091528120805460ff19166001179055339291907f2f8788117e7eff1d82e926ec794901d17c78024a50270940304540a733656f0d9080a4600190565b6000818152600080516020611f02833981519152602090815260408083206001600160a01b038616845290915290205460ff16156111f8576000818152600080516020611f02833981519152602090815260408083206001600160a01b0395909516808452949091528120805460ff19169055339291907ff6391f5c32d9c69d2a47ea670b442974b53935d1edc7fd64eb21e047a839171b9080a4600190565b600080516020611f4283398151915280546001600160a01b0319908116909155600080516020611ee283398151915280549182166001600160a01b0393841690811790915591167f8be0079c531659141344cd1fd0a4f28419497f9722a3daafe3b4186f6b6457e0600080a3565b908160209103126110b357516001600160a01b03811681036110b35790565b60ff60055460a01c166002811015611616576115685760035480156115175760018060a01b036002541661044c6114b460405163189acdbd60e31b6020820152306024820152602481526114a36044826110ce565b604051928391602083019586611190565b5190206040519160208301937f2020dba91b30cc0006188af794c2fb30dd8520db7e2c088b7fc7c103c00ca49485523060408501526060840152608083015260a082015260a0815261150760c0826110ce565b5190205b6001600160a01b031690565b60405162461bcd60e51b8152602060048201526024808201527f5a4b53594e432062797465636f64652068617368206e6f7420696e697469616c6044820152631a5cd95960e21b6064820152608490fd5b60045480156115ab5760405190602082019260ff60f81b84523060601b602184015260358301526055820152605581526115a36075826110ce565b51902061150b565b60405162461bcd60e51b815260206004820152603d60248201527f45564d2062797465636f64652068617368206e6f7420696e697469616c69736560448201527f642c206465706c6f794e6577426561636f6e50726f78792066697273740000006064820152608490fd5b634e487b7160e01b600052602160045260246000fd5b60ff600080516020611f228339815191525460401c161561164957565b631afcd79f60e31b60005260046000fdfe60a0806040526104ad803803809161001782856102b7565b833981016040828203126101f35761002e826102f0565b602083015190926001600160401b0382116101f3570181601f820112156101f35780519061005b82610304565b9261006960405194856102b7565b828452602083830101116101f35760005b8281106102a2575050602060009183010152813b15610280577fa3f0ad74e5423aebfd80d3ef4346578335a9a72aeaee59ff6cb3582b35133d5080546001600160a01b0319166001600160a01b038416908117909155604051635c60da1b60e01b8152909190602081600481865afa90811561020057600091610246575b50803b156102255750817f1cf3b03a6cf19fa2baba4df148e9dcabedea7f8a5c07840e207e5c089be95d3e600080a280511561020c57602060049260405193848092635c60da1b60e01b82525afa918215610200576000926101b9575b509060008083602061019595519101845af43d156101b1573d9161017883610304565b9261018660405194856102b7565b83523d6000602085013e61031f565b505b60805260405161012c908161038182396080518160180152f35b60609161031f565b91506020823d6020116101f8575b816101d4602093836102b7565b810103126101f3576000806101eb610195946102f0565b935050610155565b600080fd5b3d91506101c7565b6040513d6000823e3d90fd5b505034156101975763b398979f60e01b60005260046000fd5b634c9c8ce360e01b60009081526001600160a01b0391909116600452602490fd5b90506020813d602011610278575b81610261602093836102b7565b810103126101f357610272906102f0565b386100f8565b3d9150610254565b50631933b43b60e21b60009081526001600160a01b0391909116600452602490fd5b8060208092840101518282870101520161007a565b601f909101601f19168101906001600160401b038211908210176102da57604052565b634e487b7160e01b600052604160045260246000fd5b51906001600160a01b03821682036101f357565b6001600160401b0381116102da57601f01601f191660200190565b90610345575080511561033457805190602001fd5b63d6bda27560e01b60005260046000fd5b81511580610377575b610356575090565b639996b31560e01b60009081526001600160a01b0391909116600452602490fd5b50803b1561034e56fe60806040819052635c60da1b60e01b81526020906004817f00000000000000000000000000000000000000000000000000000000000000006001600160a01b03165afa801560a5576000901560d6575060203d602011609f575b601f19601f820116608001906080821067ffffffffffffffff83111760895760859160405260800160b1565b60d6565b634e487b7160e01b600052604160045260246000fd5b503d6059565b6040513d6000823e3d90fd5b602090607f19011260d1576080516001600160a01b038116810360d15790565b600080fd5b60008091368280378136915af43d6000803e1560f1573d6000f35b3d6000fdfea2646970667358221220ee131cc7c04d65d12ed76177154633df59d08e97ac367e31afe0c874103bd24764736f6c634300081c003360803461013a57601f6103da38819003918201601f19168301916001600160401b0383118484101761013f57808492604094855283398101031261013a5761004681610155565b906001600160a01b039061005c90602001610155565b1690811561012457600080546001600160a01b031981168417825560405193916001600160a01b03909116907f8be0079c531659141344cd1fd0a4f28419497f9722a3daafe3b4186f6b6457e09080a3803b1561010357600180546001600160a01b0319166001600160a01b039290921691821790557fbc7cd75a20ee27fd9adebab32041f755214dbc6bffa90cc0225b39da2e5c2d3b600080a2610270908161016a8239f35b63211eb15960e21b60009081526001600160a01b0391909116600452602490fd5b631e4fbdf760e01b600052600060045260246000fd5b600080fd5b634e487b7160e01b600052604160045260246000fd5b51906001600160a01b038216820361013a5756fe6080604052600436101561001257600080fd5b60003560e01c80633659cfe6146101905780635c60da1b14610167578063715018a61461010e5780638da5cb5b146100e55763f2fde38b1461005357600080fd5b346100e05760203660031901126100e0576004356001600160a01b038116908190036100e057610081610211565b80156100ca57600080546001600160a01b03198116831782556001600160a01b0316907f8be0079c531659141344cd1fd0a4f28419497f9722a3daafe3b4186f6b6457e09080a3005b631e4fbdf760e01b600052600060045260246000fd5b600080fd5b346100e05760003660031901126100e0576000546040516001600160a01b039091168152602090f35b346100e05760003660031901126100e057610127610211565b600080546001600160a01b0319811682556001600160a01b03167f8be0079c531659141344cd1fd0a4f28419497f9722a3daafe3b4186f6b6457e08280a3005b346100e05760003660031901126100e0576001546040516001600160a01b039091168152602090f35b346100e05760203660031901126100e0576004356001600160a01b038116908181036100e0576101be610211565b3b156101fd57600180546001600160a01b031916821790557fbc7cd75a20ee27fd9adebab32041f755214dbc6bffa90cc0225b39da2e5c2d3b600080a2005b63211eb15960e21b60005260045260246000fd5b6000546001600160a01b0316330361022557565b63118cdaa760e01b6000523360045260246000fdfea26469706673582212205be932ea8d033c79c2075910c9f2a1219e9addcb9ea1818f0956cdde62d7866f64736f6c634300081c00339016d09d72d40fdae2fd8ceac6b6234c7706214fd39c1cd1e609a0528c19930002dd7bc7dec4dceedda775e58dd541e08a116c6c53815c0bd028192f7b626800f0c57e16840df040f15088dc2f81fe391c3923bec73e23a9662efc9c229c6a00237e158222e3e6968b72b9db0d8043aacf074ad9f650f0d1606b4d82ee432c00a26469706673582212204ec5f992a5702c20f7a11b781871e865e0ff02e7f81f6b13cf655504e6ed3bfe64736f6c634300081c0033",
  "linkReferences": {},
  "deployedLinkReferences": {}
}