{
  "_format": "hh-sol-artifact-1",
  "contractName": "StakingConfig",
  "sourceName": "contracts/staking/StakingConfig.sol",
  "abi": [
    {
      "inputs": [],
      "name": "AccessControlBadConfirmation",
      "type": "error"
    },
    {
      "inputs": [
        {
          "internalType": "address",
          "name": "account",
          "type": "address"
        },
        {
          "internalType": "bytes32",
          "name": "neededRole",
          "type": "bytes32"
        }
      ],
      "name": "AccessControlUnauthorizedAccount",
      "type": "error"
    },
    {
      "inputs": [],
      "name": "InvalidInflationThresholds",
      "type": "error"
    },
    {
      "inputs": [],
      "name": "InvalidInitialization",
      "type": "error"
    },
    {
      "inputs": [],
      "name": "MaxValidatorsCannotBeZero",
      "type": "error"
    },
    {
      "inputs": [],
      "name": "NotInitializing",
      "type": "error"
    },
    {
      "inputs": [
        {
          "internalType": "address",
          "name": "owner",
          "type": "address"
        }
      ],
      "name": "OwnableInvalidOwner",
      "type": "error"
    },
    {
      "inputs": [
        {
          "internalType": "address",
          "name": "account",
          "type": "address"
        }
      ],
      "name": "OwnableUnauthorizedAccount",
      "type": "error"
    },
    {
      "inputs": [],
      "name": "ReductionFactorCannotBeZero",
      "type": "error"
    },
    {
      "inputs": [],
      "name": "ReentrancyGuardReentrantCall",
      "type": "error"
    },
    {
      "anonymous": false,
      "inputs": [
        {
          "indexed": false,
          "internalType": "uint256",
          "name": "inflationRequestThreshold",
          "type": "uint256"
        },
        {
          "indexed": false,
          "internalType": "uint256",
          "name": "inflationTargetAhead",
          "type": "uint256"
        }
      ],
      "name": "InflationThresholdsSet",
      "type": "event"
    },
    {
      "anonymous": false,
      "inputs": [
        {
          "indexed": false,
          "internalType": "uint64",
          "name": "version",
          "type": "uint64"
        }
      ],
      "name": "Initialized",
      "type": "event"
    },
    {
      "anonymous": false,
      "inputs": [
        {
          "indexed": false,
          "internalType": "uint256",
          "name": "l2GasPrice",
          "type": "uint256"
        },
        {
          "indexed": false,
          "internalType": "uint256",
          "name": "l2GasLimit",
          "type": "uint256"
        }
      ],
      "name": "L1InflationGasParamsSet",
      "type": "event"
    },
    {
      "anonymous": false,
      "inputs": [
        {
          "indexed": true,
          "internalType": "address",
          "name": "previousOwner",
          "type": "address"
        },
        {
          "indexed": true,
          "internalType": "address",
          "name": "newOwner",
          "type": "address"
        }
      ],
      "name": "OwnershipTransferStarted",
      "type": "event"
    },
    {
      "anonymous": false,
      "inputs": [
        {
          "indexed": true,
          "internalType": "address",
          "name": "previousOwner",
          "type": "address"
        },
        {
          "indexed": true,
          "internalType": "address",
          "name": "newOwner",
          "type": "address"
        }
      ],
      "name": "OwnershipTransferred",
      "type": "event"
    },
    {
      "anonymous": false,
      "inputs": [
        {
          "indexed": true,
          "internalType": "bytes32",
          "name": "role",
          "type": "bytes32"
        },
        {
          "indexed": true,
          "internalType": "bytes32",
          "name": "previousAdminRole",
          "type": "bytes32"
        },
        {
          "indexed": true,
          "internalType": "bytes32",
          "name": "newAdminRole",
          "type": "bytes32"
        }
      ],
      "name": "RoleAdminChanged",
      "type": "event"
    },
    {
      "anonymous": false,
      "inputs": [
        {
          "indexed": true,
          "internalType": "bytes32",
          "name": "role",
          "type": "bytes32"
        },
        {
          "indexed": true,
          "internalType": "address",
          "name": "account",
          "type": "address"
        },
        {
          "indexed": true,
          "internalType": "address",
          "name": "sender",
          "type": "address"
        }
      ],
      "name": "RoleGranted",
      "type": "event"
    },
    {
      "anonymous": false,
      "inputs": [
        {
          "indexed": true,
          "internalType": "bytes32",
          "name": "role",
          "type": "bytes32"
        },
        {
          "indexed": true,
          "internalType": "address",
          "name": "account",
          "type": "address"
        },
        {
          "indexed": true,
          "internalType": "address",
          "name": "sender",
          "type": "address"
        }
      ],
      "name": "RoleRevoked",
      "type": "event"
    },
    {
      "anonymous": false,
      "inputs": [
        {
          "indexed": false,
          "internalType": "address",
          "name": "deepthought",
          "type": "address"
        }
      ],
      "name": "SetDeepthought",
      "type": "event"
    },
    {
      "anonymous": false,
      "inputs": [
        {
          "indexed": false,
          "internalType": "uint256",
          "name": "delegatorMinStake",
          "type": "uint256"
        }
      ],
      "name": "SetDelegatorMinimumStake",
      "type": "event"
    },
    {
      "anonymous": false,
      "inputs": [
        {
          "indexed": false,
          "internalType": "uint256",
          "name": "epochExtraMinDuration",
          "type": "uint256"
        }
      ],
      "name": "SetEpochExtraMinDuration",
      "type": "event"
    },
    {
      "anonymous": false,
      "inputs": [
        {
          "indexed": false,
          "internalType": "uint256",
          "name": "epochMinDuration",
          "type": "uint256"
        }
      ],
      "name": "SetEpochMinDuration",
      "type": "event"
    },
    {
      "anonymous": false,
      "inputs": [
        {
          "indexed": false,
          "internalType": "uint256",
          "name": "epochMinDurationThreshold",
          "type": "uint256"
        }
      ],
      "name": "SetEpochMinDurationThreshold",
      "type": "event"
    },
    {
      "anonymous": false,
      "inputs": [
        {
          "indexed": false,
          "internalType": "uint256",
          "name": "epochZeroMinDuration",
          "type": "uint256"
        }
      ],
      "name": "SetEpochZeroMinDuration",
      "type": "event"
    },
    {
      "anonymous": false,
      "inputs": [
        {
          "indexed": false,
          "internalType": "address",
          "name": "gen",
          "type": "address"
        }
      ],
      "name": "SetGen",
      "type": "event"
    },
    {
      "anonymous": false,
      "inputs": [
        {
          "indexed": false,
          "internalType": "uint256",
          "name": "maxValidators",
          "type": "uint256"
        }
      ],
      "name": "SetMaxValidators",
      "type": "event"
    },
    {
      "anonymous": false,
      "inputs": [
        {
          "indexed": false,
          "internalType": "uint256",
          "name": "reductionFactor",
          "type": "uint256"
        }
      ],
      "name": "SetReductionFactor",
      "type": "event"
    },
    {
      "anonymous": false,
      "inputs": [
        {
          "indexed": false,
          "internalType": "address",
          "name": "stakingInvariant",
          "type": "address"
        }
      ],
      "name": "SetStakingInvariant",
      "type": "event"
    },
    {
      "anonymous": false,
      "inputs": [
        {
          "indexed": false,
          "internalType": "address",
          "name": "transactionFeesManager",
          "type": "address"
        }
      ],
      "name": "SetTransactionFeesManager",
      "type": "event"
    },
    {
      "anonymous": false,
      "inputs": [
        {
          "indexed": false,
          "internalType": "uint256",
          "name": "delegatorUnbondingPeriod",
          "type": "uint256"
        },
        {
          "indexed": false,
          "internalType": "uint256",
          "name": "validatorUnbondingPeriod",
          "type": "uint256"
        }
      ],
      "name": "SetUnbondingPeriods",
      "type": "event"
    },
    {
      "anonymous": false,
      "inputs": [
        {
          "indexed": false,
          "internalType": "uint256",
          "name": "validatorMinStake",
          "type": "uint256"
        }
      ],
      "name": "SetValidatorMinimumStake",
      "type": "event"
    },
    {
      "anonymous": false,
      "inputs": [
        {
          "indexed": false,
          "internalType": "uint256",
          "name": "alpha",
          "type": "uint256"
        },
        {
          "indexed": false,
          "internalType": "uint256",
          "name": "beta",
          "type": "uint256"
        }
      ],
      "name": "SetValidatorWeightParams",
      "type": "event"
    },
    {
      "inputs": [],
      "name": "DEFAULT_ADMIN_ROLE",
      "outputs": [
        {
          "internalType": "bytes32",
          "name": "",
          "type": "bytes32"
        }
      ],
      "stateMutability": "view",
      "type": "function"
    },
    {
      "inputs": [],
      "name": "DEFAULT_DELEGATOR_MIN_STAKE",
      "outputs": [
        {
          "internalType": "uint256",
          "name": "",
          "type": "uint256"
        }
      ],
      "stateMutability": "view",
      "type": "function"
    },
    {
      "inputs": [],
      "name": "DEFAULT_VALIDATOR_MIN_STAKE",
      "outputs": [
        {
          "internalType": "uint256",
          "name": "",
          "type": "uint256"
        }
      ],
      "stateMutability": "view",
      "type": "function"
    },
    {
      "inputs": [],
      "name": "DELEGATOR_UNBONDING_PERIOD",
      "outputs": [
        {
          "internalType": "uint256",
          "name": "",
          "type": "uint256"
        }
      ],
      "stateMutability": "view",
      "type": "function"
    },
    {
      "inputs": [],
      "name": "INFLATION_BASE",
      "outputs": [
        {
          "internalType": "uint256",
          "name": "",
          "type": "uint256"
        }
      ],
      "stateMutability": "view",
      "type": "function"
    },
    {
      "inputs": [],
      "name": "INFLATION_DEEPTHOUGHT_BPS",
      "outputs": [
        {
          "internalType": "uint256",
          "name": "",
          "type": "uint256"
        }
      ],
      "stateMutability": "view",
      "type": "function"
    },
    {
      "inputs": [],
      "name": "INFLATION_DEVELOPER_BPS",
      "outputs": [
        {
          "internalType": "uint256",
          "name": "",
          "type": "uint256"
        }
      ],
      "stateMutability": "view",
      "type": "function"
    },
    {
      "inputs": [],
      "name": "INFLATION_FINAL",
      "outputs": [
        {
          "internalType": "uint256",
          "name": "",
          "type": "uint256"
        }
      ],
      "stateMutability": "view",
      "type": "function"
    },
    {
      "inputs": [],
      "name": "INFLATION_INITIAL",
      "outputs": [
        {
          "internalType": "uint256",
          "name": "",
          "type": "uint256"
        }
      ],
      "stateMutability": "view",
      "type": "function"
    },
    {
      "inputs": [],
      "name": "INFLATION_MID",
      "outputs": [
        {
          "internalType": "int256",
          "name": "",
          "type": "int256"
        }
      ],
      "stateMutability": "view",
      "type": "function"
    },
    {
      "inputs": [],
      "name": "INFLATION_STAKER_BPS",
      "outputs": [
        {
          "internalType": "uint256",
          "name": "",
          "type": "uint256"
        }
      ],
      "stateMutability": "view",
      "type": "function"
    },
    {
      "inputs": [],
      "name": "INFLATION_STEEPNESS",
      "outputs": [
        {
          "internalType": "int256",
          "name": "",
          "type": "int256"
        }
      ],
      "stateMutability": "view",
      "type": "function"
    },
    {
      "inputs": [],
      "name": "INFLATION_VALIDATOR_BPS",
      "outputs": [
        {
          "internalType": "uint256",
          "name": "",
          "type": "uint256"
        }
      ],
      "stateMutability": "view",
      "type": "function"
    },
    {
      "inputs": [],
      "name": "L1_MESSENGER",
      "outputs": [
        {
          "internalType": "contract IL1Messenger",
          "name": "",
          "type": "address"
        }
      ],
      "stateMutability": "view",
      "type": "function"
    },
    {
      "inputs": [],
      "name": "QUARANTINE_MANAGER_ROLE",
      "outputs": [
        {
          "internalType": "bytes32",
          "name": "",
          "type": "bytes32"
        }
      ],
      "stateMutability": "view",
      "type": "function"
    },
    {
      "inputs": [],
      "name": "SLASH_CALLER_INCENTIVE_BPS",
      "outputs": [
        {
          "internalType": "uint256",
          "name": "",
          "type": "uint256"
        }
      ],
      "stateMutability": "view",
      "type": "function"
    },
    {
      "inputs": [],
      "name": "VALIDATOR_UNBONDING_PERIOD",
      "outputs": [
        {
          "internalType": "uint256",
          "name": "",
          "type": "uint256"
        }
      ],
      "stateMutability": "view",
      "type": "function"
    },
    {
      "inputs": [],
      "name": "acceptOwnership",
      "outputs": [],
      "stateMutability": "nonpayable",
      "type": "function"
    },
    {
      "inputs": [],
      "name": "addressManager",
      "outputs": [
        {
          "internalType": "contract IAddressManager",
          "name": "",
          "type": "address"
        }
      ],
      "stateMutability": "view",
      "type": "function"
    },
    {
      "inputs": [],
      "name": "burning",
      "outputs": [
        {
          "internalType": "uint256",
          "name": "",
          "type": "uint256"
        }
      ],
      "stateMutability": "view",
      "type": "function"
    },
    {
      "inputs": [],
      "name": "deepthought",
      "outputs": [
        {
          "internalType": "address payable",
          "name": "",
          "type": "address"
        }
      ],
      "stateMutability": "view",
      "type": "function"
    },
    {
      "inputs": [],
      "name": "delegatorMinStake",
      "outputs": [
        {
          "internalType": "uint256",
          "name": "",
          "type": "uint256"
        }
      ],
      "stateMutability": "view",
      "type": "function"
    },
    {
      "inputs": [],
      "name": "epoch",
      "outputs": [
        {
          "internalType": "uint256",
          "name": "",
          "type": "uint256"
        }
      ],
      "stateMutability": "view",
      "type": "function"
    },
    {
      "inputs": [],
      "name": "epochEven",
      "outputs": [
        {
          "internalType": "uint256",
          "name": "start",
          "type": "uint256"
        },
        {
          "internalType": "uint256",
          "name": "end",
          "type": "uint256"
        },
        {
          "internalType": "uint256",
          "name": "inflation",
          "type": "uint256"
        },
        {
          "internalType": "uint256",
          "name": "weight",
          "type": "uint256"
        },
        {
          "internalType": "uint256",
          "name": "weightDeposit",
          "type": "uint256"
        },
        {
          "internalType": "uint256",
          "name": "weightWithdrawal",
          "type": "uint256"
        },
        {
          "internalType": "uint256",
          "name": "vcount",
          "type": "uint256"
        },
        {
          "internalType": "uint256",
          "name": "claimed",
          "type": "uint256"
        },
        {
          "internalType": "uint256",
          "name": "stakeDeposit",
          "type": "uint256"
        },
        {
          "internalType": "uint256",
          "name": "stakeWithdrawal",
          "type": "uint256"
        },
        {
          "internalType": "uint256",
          "name": "slashed",
          "type": "uint256"
        }
      ],
      "stateMutability": "view",
      "type": "function"
    },
    {
      "inputs": [],
      "name": "epochExtraMinDuration",
      "outputs": [
        {
          "internalType": "uint256",
          "name": "",
          "type": "uint256"
        }
      ],
      "stateMutability": "view",
      "type": "function"
    },
    {
      "inputs": [],
      "name": "epochMinDuration",
      "outputs": [
        {
          "internalType": "uint256",
          "name": "",
          "type": "uint256"
        }
      ],
      "stateMutability": "view",
      "type": "function"
    },
    {
      "inputs": [],
      "name": "epochMinDurationThreshold",
      "outputs": [
        {
          "internalType": "uint256",
          "name": "",
          "type": "uint256"
        }
      ],
      "stateMutability": "view",
      "type": "function"
    },
    {
      "inputs": [],
      "name": "epochOdd",
      "outputs": [
        {
          "internalType": "uint256",
          "name": "start",
          "type": "uint256"
        },
        {
          "internalType": "uint256",
          "name": "end",
          "type": "uint256"
        },
        {
          "internalType": "uint256",
          "name": "inflation",
          "type": "uint256"
        },
        {
          "internalType": "uint256",
          "name": "weight",
          "type": "uint256"
        },
        {
          "internalType": "uint256",
          "name": "weightDeposit",
          "type": "uint256"
        },
        {
          "internalType": "uint256",
          "name": "weightWithdrawal",
          "type": "uint256"
        },
        {
          "internalType": "uint256",
          "name": "vcount",
          "type": "uint256"
        },
        {
          "internalType": "uint256",
          "name": "claimed",
          "type": "uint256"
        },
        {
          "internalType": "uint256",
          "name": "stakeDeposit",
          "type": "uint256"
        },
        {
          "internalType": "uint256",
          "name": "stakeWithdrawal",
          "type": "uint256"
        },
        {
          "internalType": "uint256",
          "name": "slashed",
          "type": "uint256"
        }
      ],
      "stateMutability": "view",
      "type": "function"
    },
    {
      "inputs": [],
      "name": "epochZeroMinDuration",
      "outputs": [
        {
          "internalType": "uint256",
          "name": "",
          "type": "uint256"
        }
      ],
      "stateMutability": "view",
      "type": "function"
    },
    {
      "inputs": [],
      "name": "finalizationPhaseAddress",
      "outputs": [
        {
          "internalType": "address",
          "name": "",
          "type": "address"
        }
      ],
      "stateMutability": "view",
      "type": "function"
    },
    {
      "inputs": [],
      "name": "finalized",
      "outputs": [
        {
          "internalType": "uint256",
          "name": "",
          "type": "uint256"
        }
      ],
      "stateMutability": "view",
      "type": "function"
    },
    {
      "inputs": [
        {
          "internalType": "bytes32",
          "name": "role",
          "type": "bytes32"
        }
      ],
      "name": "getRoleAdmin",
      "outputs": [
        {
          "internalType": "bytes32",
          "name": "",
          "type": "bytes32"
        }
      ],
      "stateMutability": "view",
      "type": "function"
    },
    {
      "inputs": [
        {
          "internalType": "bytes32",
          "name": "role",
          "type": "bytes32"
        },
        {
          "internalType": "address",
          "name": "account",
          "type": "address"
        }
      ],
      "name": "grantRole",
      "outputs": [],
      "stateMutability": "nonpayable",
      "type": "function"
    },
    {
      "inputs": [
        {
          "internalType": "bytes32",
          "name": "role",
          "type": "bytes32"
        },
        {
          "internalType": "address",
          "name": "account",
          "type": "address"
        }
      ],
      "name": "hasRole",
      "outputs": [
        {
          "internalType": "bool",
          "name": "",
          "type": "bool"
        }
      ],
      "stateMutability": "view",
      "type": "function"
    },
    {
      "inputs": [],
      "name": "idlenessPhaseAddress",
      "outputs": [
        {
          "internalType": "address",
          "name": "",
          "type": "address"
        }
      ],
      "stateMutability": "view",
      "type": "function"
    },
    {
      "inputs": [],
      "name": "inflationEpoch",
      "outputs": [
        {
          "internalType": "uint256",
          "name": "",
          "type": "uint256"
        }
      ],
      "stateMutability": "view",
      "type": "function"
    },
    {
      "inputs": [],
      "name": "inflationRequestThreshold",
      "outputs": [
        {
          "internalType": "uint256",
          "name": "",
          "type": "uint256"
        }
      ],
      "stateMutability": "view",
      "type": "function"
    },
    {
      "inputs": [
        {
          "internalType": "uint256",
          "name": "",
          "type": "uint256"
        }
      ],
      "name": "inflationRequested",
      "outputs": [
        {
          "internalType": "bool",
          "name": "",
          "type": "bool"
        }
      ],
      "stateMutability": "view",
      "type": "function"
    },
    {
      "inputs": [],
      "name": "inflationSupply",
      "outputs": [
        {
          "internalType": "uint256",
          "name": "",
          "type": "uint256"
        }
      ],
      "stateMutability": "view",
      "type": "function"
    },
    {
      "inputs": [],
      "name": "inflationTargetAhead",
      "outputs": [
        {
          "internalType": "uint256",
          "name": "",
          "type": "uint256"
        }
      ],
      "stateMutability": "view",
      "type": "function"
    },
    {
      "inputs": [],
      "name": "l2GasLimit",
      "outputs": [
        {
          "internalType": "uint256",
          "name": "",
          "type": "uint256"
        }
      ],
      "stateMutability": "view",
      "type": "function"
    },
    {
      "inputs": [],
      "name": "l2GasPrice",
      "outputs": [
        {
          "internalType": "uint256",
          "name": "",
          "type": "uint256"
        }
      ],
      "stateMutability": "view",
      "type": "function"
    },
    {
      "inputs": [],
      "name": "maxValidators",
      "outputs": [
        {
          "internalType": "uint256",
          "name": "",
          "type": "uint256"
        }
      ],
      "stateMutability": "view",
      "type": "function"
    },
    {
      "inputs": [
        {
          "internalType": "address",
          "name": "",
          "type": "address"
        }
      ],
      "name": "operatorsToValidators",
      "outputs": [
        {
          "internalType": "address",
          "name": "",
          "type": "address"
        }
      ],
      "stateMutability": "view",
      "type": "function"
    },
    {
      "inputs": [],
      "name": "owner",
      "outputs": [
        {
          "internalType": "address",
          "name": "",
          "type": "address"
        }
      ],
      "stateMutability": "view",
      "type": "function"
    },
    {
      "inputs": [],
      "name": "pendingOwner",
      "outputs": [
        {
          "internalType": "address",
          "name": "",
          "type": "address"
        }
      ],
      "stateMutability": "view",
      "type": "function"
    },
    {
      "inputs": [],
      "name": "pendingRequestInflationFromL1",
      "outputs": [
        {
          "internalType": "bool",
          "name": "",
          "type": "bool"
        }
      ],
      "stateMutability": "view",
      "type": "function"
    },
    {
      "inputs": [],
      "name": "reductionFactor",
      "outputs": [
        {
          "internalType": "uint256",
          "name": "",
          "type": "uint256"
        }
      ],
      "stateMutability": "view",
      "type": "function"
    },
    {
      "inputs": [],
      "name": "renounceOwnership",
      "outputs": [],
      "stateMutability": "nonpayable",
      "type": "function"
    },
    {
      "inputs": [
        {
          "internalType": "bytes32",
          "name": "role",
          "type": "bytes32"
        },
        {
          "internalType": "address",
          "name": "callerConfirmation",
          "type": "address"
        }
      ],
      "name": "renounceRole",
      "outputs": [],
      "stateMutability": "nonpayable",
      "type": "function"
    },
    {
      "inputs": [],
      "name": "revealingPhaseAddress",
      "outputs": [
        {
          "internalType": "address",
          "name": "",
          "type": "address"
        }
      ],
      "stateMutability": "view",
      "type": "function"
    },
    {
      "inputs": [
        {
          "internalType": "bytes32",
          "name": "role",
          "type": "bytes32"
        },
        {
          "internalType": "address",
          "name": "account",
          "type": "address"
        }
      ],
      "name": "revokeRole",
      "outputs": [],
      "stateMutability": "nonpayable",
      "type": "function"
    },
    {
      "inputs": [
        {
          "internalType": "address payable",
          "name": "_deepthought",
          "type": "address"
        }
      ],
      "name": "setDeepthought",
      "outputs": [],
      "stateMutability": "nonpayable",
      "type": "function"
    },
    {
      "inputs": [
        {
          "internalType": "uint256",
          "name": "_delegatorMinStake",
          "type": "uint256"
        }
      ],
      "name": "setDelegatorMinimumStake",
      "outputs": [],
      "stateMutability": "nonpayable",
      "type": "function"
    },
    {
      "inputs": [
        {
          "internalType": "uint256",
          "name": "_epochExtraMinDuration",
          "type": "uint256"
        }
      ],
      "name": "setEpochExtraMinDuration",
      "outputs": [],
      "stateMutability": "nonpayable",
      "type": "function"
    },
    {
      "inputs": [
        {
          "internalType": "uint256",
          "name": "_epochMinDuration",
          "type": "uint256"
        }
      ],
      "name": "setEpochMinDuration",
      "outputs": [],
      "stateMutability": "nonpayable",
      "type": "function"
    },
    {
      "inputs": [
        {
          "internalType": "uint256",
          "name": "_epochMinDurationThreshold",
          "type": "uint256"
        }
      ],
      "name": "setEpochMinDurationThreshold",
      "outputs": [],
      "stateMutability": "nonpayable",
      "type": "function"
    },
    {
      "inputs": [
        {
          "internalType": "uint256",
          "name": "_epochZeroMinDuration",
          "type": "uint256"
        }
      ],
      "name": "setEpochZeroMinDuration",
      "outputs": [],
      "stateMutability": "nonpayable",
      "type": "function"
    },
    {
      "inputs": [
        {
          "internalType": "address",
          "name": "_finalizationPhase",
          "type": "address"
        }
      ],
      "name": "setFinalizationPhase",
      "outputs": [],
      "stateMutability": "nonpayable",
      "type": "function"
    },
    {
      "inputs": [
        {
          "internalType": "address",
          "name": "_gen",
          "type": "address"
        }
      ],
      "name": "setGen",
      "outputs": [],
      "stateMutability": "nonpayable",
      "type": "function"
    },
    {
      "inputs": [
        {
          "internalType": "address",
          "name": "_idlenessPhase",
          "type": "address"
        }
      ],
      "name": "setIdlenessPhase",
      "outputs": [],
      "stateMutability": "nonpayable",
      "type": "function"
    },
    {
      "inputs": [
        {
          "internalType": "uint256",
          "name": "_inflationRequestThreshold",
          "type": "uint256"
        },
        {
          "internalType": "uint256",
          "name": "_inflationTargetAhead",
          "type": "uint256"
        }
      ],
      "name": "setInflationThresholds",
      "outputs": [],
      "stateMutability": "nonpayable",
      "type": "function"
    },
    {
      "inputs": [
        {
          "internalType": "uint256",
          "name": "_l2GasPrice",
          "type": "uint256"
        },
        {
          "internalType": "uint256",
          "name": "_l2GasLimit",
          "type": "uint256"
        }
      ],
      "name": "setL1InflationGasParams",
      "outputs": [],
      "stateMutability": "nonpayable",
      "type": "function"
    },
    {
      "inputs": [
        {
          "internalType": "uint256",
          "name": "_maxValidators",
          "type": "uint256"
        }
      ],
      "name": "setMaxValidators",
      "outputs": [],
      "stateMutability": "nonpayable",
      "type": "function"
    },
    {
      "inputs": [
        {
          "internalType": "uint256",
          "name": "_reductionFactor",
          "type": "uint256"
        }
      ],
      "name": "setReductionFactor",
      "outputs": [],
      "stateMutability": "nonpayable",
      "type": "function"
    },
    {
      "inputs": [
        {
          "internalType": "address",
          "name": "_revealingPhase",
          "type": "address"
        }
      ],
      "name": "setRevealingPhase",
      "outputs": [],
      "stateMutability": "nonpayable",
      "type": "function"
    },
    {
      "inputs": [
        {
          "internalType": "address",
          "name": "_stakingInvariant",
          "type": "address"
        }
      ],
      "name": "setStakingInvariant",
      "outputs": [],
      "stateMutability": "nonpayable",
      "type": "function"
    },
    {
      "inputs": [
        {
          "internalType": "address",
          "name": "_transactionFeesManager",
          "type": "address"
        }
      ],
      "name": "setTransactionFeesManager",
      "outputs": [],
      "stateMutability": "nonpayable",
      "type": "function"
    },
    {
      "inputs": [
        {
          "internalType": "uint256",
          "name": "_delegatorUnbondingPeriod",
          "type": "uint256"
        },
        {
          "internalType": "uint256",
          "name": "_validatorUnbondingPeriod",
          "type": "uint256"
        }
      ],
      "name": "setUnbondingPeriods",
      "outputs": [],
      "stateMutability": "nonpayable",
      "type": "function"
    },
    {
      "inputs": [
        {
          "internalType": "uint256",
          "name": "_validatorMinStake",
          "type": "uint256"
        }
      ],
      "name": "setValidatorMinimumStake",
      "outputs": [],
      "stateMutability": "nonpayable",
      "type": "function"
    },
    {
      "inputs": [
        {
          "internalType": "uint256",
          "name": "_alpha",
          "type": "uint256"
        },
        {
          "internalType": "uint256",
          "name": "_beta",
          "type": "uint256"
        }
      ],
      "name": "setValidatorWeightParams",
      "outputs": [],
      "stateMutability": "nonpayable",
      "type": "function"
    },
    {
      "inputs": [],
      "name": "stakingInvariant",
      "outputs": [
        {
          "internalType": "address",
          "name": "",
          "type": "address"
        }
      ],
      "stateMutability": "view",
      "type": "function"
    },
    {
      "inputs": [
        {
          "internalType": "bytes4",
          "name": "interfaceId",
          "type": "bytes4"
        }
      ],
      "name": "supportsInterface",
      "outputs": [
        {
          "internalType": "bool",
          "name": "",
          "type": "bool"
        }
      ],
      "stateMutability": "view",
      "type": "function"
    },
    {
      "inputs": [],
      "name": "transactionFeesManager",
      "outputs": [
        {
          "internalType": "address",
          "name": "",
          "type": "address"
        }
      ],
      "stateMutability": "view",
      "type": "function"
    },
    {
      "inputs": [
        {
          "internalType": "address",
          "name": "newOwner",
          "type": "address"
        }
      ],
      "name": "transferOwnership",
      "outputs": [],
      "stateMutability": "nonpayable",
      "type": "function"
    },
    {
      "inputs": [
        {
          "internalType": "address",
          "name": "validatorAddress",
          "type": "address"
        }
      ],
      "name": "validatorInsertedInTree",
      "outputs": [
        {
          "internalType": "uint256",
          "name": "timestamp",
          "type": "uint256"
        }
      ],
      "stateMutability": "view",
      "type": "function"
    },
    {
      "inputs": [],
      "name": "validatorMinStake",
      "outputs": [
        {
          "internalType": "uint256",
          "name": "",
          "type": "uint256"
        }
      ],
      "stateMutability": "view",
      "type": "function"
    },
    {
      "inputs": [
        {
          "internalType": "address",
          "name": "validatorAddress",
          "type": "address"
        }
      ],
      "name": "validatorRemovedFromTheTree",
      "outputs": [
        {
          "internalType": "uint256",
          "name": "timestamp",
          "type": "uint256"
        }
      ],
      "stateMutability": "view",
      "type": "function"
    },
    {
      "inputs": [
        {
          "internalType": "uint256",
          "name": "",
          "type": "uint256"
        }
      ],
      "name": "validatorsEven",
      "outputs": [
        {
          "internalType": "address",
          "name": "",
          "type": "address"
        }
      ],
      "stateMutability": "view",
      "type": "function"
    },
    {
      "inputs": [
        {
          "internalType": "uint256",
          "name": "",
          "type": "uint256"
        }
      ],
      "name": "validatorsJoined",
      "outputs": [
        {
          "internalType": "address",
          "name": "",
          "type": "address"
        }
      ],
      "stateMutability": "view",
      "type": "function"
    },
    {
      "inputs": [
        {
          "internalType": "uint256",
          "name": "",
          "type": "uint256"
        }
      ],
      "name": "validatorsOdd",
      "outputs": [
        {
          "internalType": "address",
          "name": "",
          "type": "address"
        }
      ],
      "stateMutability": "view",
      "type": "function"
    },
    {
      "inputs": [
        {
          "internalType": "uint256",
          "name": "",
          "type": "uint256"
        }
      ],
      "name": "weightsEven",
      "outputs": [
        {
          "internalType": "uint256",
          "name": "",
          "type": "uint256"
        }
      ],
      "stateMutability": "view",
      "type": "function"
    },
    {
      "inputs": [
        {
          "internalType": "uint256",
          "name": "",
          "type": "uint256"
        }
      ],
      "name": "weightsOdd",
      "outputs": [
        {
          "internalType": "uint256",
          "name": "",
          "type": "uint256"
        }
      ],
      "stateMutability": "view",
      "type": "function"
    }
  ],
  "bytecode": "0x60808060405234601557611ab4908161001b8239f35b600080fdfe608080604052600436101561001357600080fd5b600090813560e01c90816301ffc9a7146116505750806305f30c711461160057806308ac5256146115e25780630a3cfb131461157c5780630ab07e881461155e5780631538faf21461154057806318a3b882146115115780631bc2359a146114f35780631f759208146114a5578063217fcc3e14610c7f57806321ef686f1461143757806322133af0146113d45780632272e0ab146113b657806324147f671461139857806324840a5e1461136f578063248a9ca31461134857806326ed4c701461132557806328262d81146112e05780632ea94006146112925780632f2ff15d146112605780633057b1681461121157806336568abe146111cc57806339b94189146110e25780633ab76e9f146110b95780633fde6d7b1461109b57806344aa3ded146110625780634971ec021461103f5780634b48c3911461101c5780634c12b33f14610ffe5780634f2938fc14610fd55780634f2a939414610f90578063624a448514610f725780636378eba314610f5557806367604d2714610f37578063715018a614610eb6578063746e4ac714610e735780637492100f14610e5157806379ba509714610da25780637a5d266014610d795780637e1233a914610d5c5780637f10fe0814610d0e5780638377259514610cf157806387e51da914610c845780638b7e92a614610c7f5780638da5cb5b14610c49578063900cf0cf14610c2b578063900fd9ce14610be857806391d1485414610b8f57806392d3f78e14610b1c578063968d97ab14610acc57806396be02a714610a865780639ae3668514610a685780639bb2ea5a14610a045780639d357fd8146109cb578063a01ebaa1146109a7578063a0d6d05c14610962578063a217fddf14610946578063a629c2f7146108f8578063a8027c10146108d5578063abfd6fa9146108b1578063ac78a04b14610894578063b03df1f014610853578063b3f05b9714610835578063bc338e7f14610819578063c0a604ad146107fb578063c498c95b146107d6578063c90df53214610788578063cb17452f1461074d578063cba6d6d2146106e0578063cd38347f146106b9578063cd8562351461069b578063cf6e65b71461067d578063d547741f14610642578063d7ef354414610619578063d8a7f84c146105cb578063da7a9b6a146105ad578063de8eec6414610584578063e30c39781461054e578063e3c6b0ca14610530578063f2fde38b146104a8578063f85683ef1461047f578063fafebac5146104355763fb6fe776146103b257600080fd5b3461043257602036600319011261043257600435906045548210156104325760455482101561041e57604581527fa80a8fcc11760162f08bb091d2c9389d07f2b73d0e996161dfac6f1043b5fc0b9091015460405160039290921b1c6001600160a01b03168152602090f35b634e487b7160e01b81526032600452602490fd5b80fd5b50346104325780600319360112610432576014546015549061047b601654601754601854601954601a54601b5491601c5493601d5495601e54976040519b8c9b8c61170d565b0390f35b5034610432578060031936011261043257604a546040516001600160a01b039091168152602090f35b5034610432576020366003190112610432576104c26116e1565b6104ca611855565b600080516020611a5f83398151915280546001600160a01b0319166001600160a01b03928316908117909155600080516020611a1f833981519152549091167f38d16b8cac22d99fc7c124b9cd0de2d3fa1faef420bfe791d8c362d765e227008380a380f35b50346104325780600319360112610432576020600354604051908152f35b5034610432578060031936011261043257600080516020611a5f833981519152546040516001600160a01b039091168152602090f35b50346104325780600319360112610432576046546040516001600160a01b039091168152602090f35b50346104325780600319360112610432576020604254604051908152f35b5034610432576020366003190112610432577f36316aa5cc0bad3602f58963e5d1244e1c27193e295bb5d5ba8a717c0395c829602060043561060b611855565b80600155604051908152a180f35b5034610432578060031936011261043257600e546040516001600160a01b039091168152602090f35b5034610432576040366003190112610432576106796004356106626116f7565b9061067461066f82611759565b61188b565b61197e565b5080f35b50346104325780600319360112610432576020604f54604051908152f35b50346104325780600319360112610432576020600454604051908152f35b503461043257806003193601126104325760206040516b0d92289838d21a99680000008152f35b5034610432576020366003190112610432577e91b1d72d72fcf2cfa29b44e06266207e5f0acbb611ef9189bb4fdb7b17d581602061071c6116e1565b610724611855565b604680546001600160a01b0319166001600160a01b03929092169182179055604051908152a180f35b503461043257806003193601126104325760206040517f155e7f76c52e49fe8308e62eabe3ce449c978443b7d8beb86992427229ec386f8152f35b5034610432576020366003190112610432577f29dd86219e6b88c72fd9a3be480a2f4605d3c3a6affa1b3abac0aaf2abf11c3460206004356107c8611855565b80604255604051908152a180f35b503461043257806003193601126104325760206040516908e4d3168276864000008152f35b50346104325780600319360112610432576020600f54604051908152f35b5034610432578060031936011261043257602060405160648152f35b50346104325780600319360112610432576020601254604051908152f35b5034610432576020366003190112610432576020906001600160a01b036108786116e1565b16815260348252604060018060a01b0391205416604051908152f35b503461043257806003193601126104325760206040516101f48152f35b50346104325780600319360112610432576020604051680246ddf979766800008152f35b50346104325780600319360112610432576020604051660aa87bee537fff198152f35b5034610432576020366003190112610432577f28288c452a36645204bd13f0522e2a03f688508f171ea13690ce7a5a486f72f96020600435610938611855565b80604355604051908152a180f35b5034610432578060031936011261043257602090604051908152f35b50346104325760203660031901126104325761097c6116e1565b610984611855565b604880546001600160a01b0319166001600160a01b039290921691909117905580f35b50346104325780600319360112610432576020604051684e1003b28d928000008152f35b5034610432576020366003190112610432576020906040906001600160a01b036109f36116e1565b168152605583522054604051908152f35b503461043257602036600319011261043257600435610a21611855565b8015610a59576020817fd3c3674d241eb3fb81da09f8c56bdf72b08c8094de786997b95cde95d0ecfff592600555604051908152a180f35b6383c27a2d60e01b8252600482fd5b50346104325780600319360112610432576020604e54604051908152f35b5034610432578060031936011261043257601f546020549061047b602154602254602354602454602554602654916027549360285495602954976040519b8c9b8c61170d565b5034610432577f50721f4a66d681f3d4cc90420668ef54fb88787373b953616e3cdf26b901a43d6040610afe366116a9565b610b06611855565b816031558060325582519182526020820152a180f35b5034610432576020366003190112610432576004356001600160a01b03811690819003610b8b5760207f6351022503ff845f9e2af03e0948d3dac0f3f1af4da4c40694f205ef7fd1fd3891610b6f611855565b600e80546001600160a01b03191682179055604051908152a180f35b5080fd5b5034610432576040366003190112610432576040610bab6116f7565b916004358152600080516020611a3f833981519152602052209060018060a01b0316600052602052602060ff604060002054166040519015158152f35b50346104325760203660031901126104325760043590602b5482101561043257602b5482101561041e57602091602b825282822001549060031b1c604051908152f35b50346104325780600319360112610432576020601154604051908152f35b5034610432578060031936011261043257600080516020611a1f833981519152546040516001600160a01b039091168152602090f35b6116c4565b50346104325760203660031901126104325760043590602c5482101561043257602c5482101561041e57602c81527f7416c943b4a09859521022fd2e90eac0dd9026dad28fa317782a135f28a860919091015460405160039290921b1c6001600160a01b03168152602090f35b50346104325780600319360112610432576020604051611d4c8152f35b5034610432576020366003190112610432577fc3230eb0e6f70cc11ce31caf16672f9c50d00e5a782f09f3a688cb3aaf77ddc26020600435610d4e611855565b80600455604051908152a180f35b503461043257806003193601126104325760206040516180088152f35b50346104325780600319360112610432576049546040516001600160a01b039091168152602090f35b5034610432578060031936011261043257600080516020611a5f83398151915254336001600160a01b0390911603610e3e57600080516020611a5f83398151915280546001600160a01b0319908116909155600080516020611a1f83398151915280543392811683179091556001600160a01b03167f8be0079c531659141344cd1fd0a4f28419497f9722a3daafe3b4186f6b6457e08380a380f35b63118cdaa760e01b815233600452602490fd5b50346104325780600319360112610432576020604051668e1bc9bf0400008152f35b50346104325760203660031901126104325760043590602a5482101561043257602a5482101561041e57602091602a825282822001549060031b1c604051908152f35b5034610432578060031936011261043257610ecf611855565b600080516020611a5f83398151915280546001600160a01b0319908116909155600080516020611a1f8339815191528054918216905581906001600160a01b03167f8be0079c531659141344cd1fd0a4f28419497f9722a3daafe3b4186f6b6457e08280a380f35b50346104325780600319360112610432576020604054604051908152f35b503461043257806003193601126104325760209054604051908152f35b50346104325780600319360112610432576020605054604051908152f35b503461043257602036600319011261043257610faa6116e1565b610fb2611855565b604980546001600160a01b0319166001600160a01b039290921691909117905580f35b50346104325780600319360112610432576048546040516001600160a01b039091168152602090f35b50346104325780600319360112610432576020601354604051908152f35b50346104325761103c61102e366116a9565b90611037611855565b61177a565b80f35b50346104325780600319360112610432576020604051670214e8348c4f00008152f35b5034610432576020366003190112610432576020906040906001600160a01b0361108a6116e1565b168152605483522054604051908152f35b50346104325780600319360112610432576020600154604051908152f35b50346104325780600319360112610432576047546040516001600160a01b039091168152602090f35b5034610432576020366003190112610432576110fc6116e1565b90611105611855565b6047546001600160a01b031691823b15610b8b57818091608460405180948193639b2ea4bd60e01b835260406004840152600360448401526223b2b760e91b606484015260018060a01b0316978860248401525af180156111c157611194575b507fe9ea8a68803c78bc5a52ad6b4aaf87a3c80b6b289e8b124ecd27c9c37d6b9893602083604051908152a180f35b67ffffffffffffffff81116111ad576040526020611165565b634e487b7160e01b82526041600452602482fd5b6040513d84823e3d90fd5b5034610432576040366003190112610432576111e66116f7565b336001600160a01b03821603611202576106799060043561197e565b63334bd91960e11b8252600482fd5b5034610432577f5e83cdc9c870d860a35f51fc078fa8347c2be0a3ecf22801f0860d5dcf7a568b6040611243366116a9565b61124b611855565b8183558060415582519182526020820152a180f35b5034610432576040366003190112610432576106796004356112806116f7565b9061128d61066f82611759565b6118d5565b5034610432576020366003190112610432577fe2c637d92b7cef2feded32c719d8898f657a8a71db9cd670fea58b028e11122f60206004356112d2611855565b80600255604051908152a180f35b5034610432576020366003190112610432576112fa6116e1565b611302611855565b604a80546001600160a01b0319166001600160a01b039290921691909117905580f35b5034610432578060031936011261043257602060ff605354166040519015158152f35b5034610432576020366003190112610432576020611367600435611759565b604051908152f35b50346104325780600319360112610432576044546040516001600160a01b039091168152602090f35b50346104325780600319360112610432576020605154604051908152f35b50346104325780600319360112610432576020604154604051908152f35b5034610432576020366003190112610432576004356113f1611855565b8015611428576020817f02f82a44724f1f24b96244a99fc656e810a8330918290a83115a11bdab07ffb8928455604051908152a180f35b632e98040760e01b8252600482fd5b5034610432576020366003190112610432577f7144f35c24ebacc4c0b78da6084e2b6bbf2b01ceb5a78b25fa7ca3aab7134d5d60206114746116e1565b61147c611855565b604480546001600160a01b0319166001600160a01b03929092169182179055604051908152a180f35b5034610432576020366003190112610432577f14b43e5ad004d6806da04f003dd456d0c98209c21a5dda9ef6dae068bba12f0160206004356114e5611855565b80600355604051908152a180f35b50346104325780600319360112610432576020600254604051908152f35b50346104325760203660031901126104325760ff60406020926004358152605284522054166040519015158152f35b50346104325780600319360112610432576020604354604051908152f35b50346104325780600319360112610432576020601054604051908152f35b50346104325760203660031901126104325760043590602d5482101561043257602d5482101561041e57602d90527f4a2cc91ee622da3bc833a54c37ffcb6f3ec23b7793efc5eaf5e71b7b406c5c0601546040516001600160a01b039091168152602090f35b50346104325780600319360112610432576020600554604051908152f35b5034610432577f16601f22277b886c80f30928a32f74b82df7348f2c6c890b736b12100241c5f26040611632366116a9565b61163a611855565b81604e5580604f5582519182526020820152a180f35b905034610b8b576020366003190112610b8b5760043563ffffffff60e01b81168091036116a55760209250637965db0b60e01b8114908115611694575b5015158152f35b6301ffc9a760e01b1490503861168d565b8280fd5b60409060031901126116bf576004359060243590565b600080fd5b346116bf5760003660031901126116bf5760206040516103e88152f35b600435906001600160a01b03821682036116bf57565b602435906001600160a01b03821682036116bf57565b979491926101409996939c9b9a9794919c6101608a019d8a5260208a015260408901526060880152608087015260a086015260c085015260e08401526101008301526101208201520152565b600052600080516020611a3f83398151915260205260016040600020015490565b908115808061184d575b61180d5780611804575b6117dd57600a82018083116117ee5781106117dd57816040917fd18208b09d6d1dbada68268d4a6e772510ce0777afce3e703762def8a6e61ac9936050558060515582519182526020820152a1565b6308ee9b0560e31b60005260046000fd5b634e487b7160e01b600052601160045260246000fd5b5080151561178e565b505050600060505560006051557fd18208b09d6d1dbada68268d4a6e772510ce0777afce3e703762def8a6e61ac9604080516000815260006020820152a1565b508115611784565b600080516020611a1f833981519152546001600160a01b0316330361187657565b63118cdaa760e01b6000523360045260246000fd5b6000818152600080516020611a3f8339815191526020908152604080832033845290915290205460ff16156118bd5750565b63e2517d3f60e01b6000523360045260245260446000fd5b6000818152600080516020611a3f833981519152602090815260408083206001600160a01b038616845290915290205460ff16611977576000818152600080516020611a3f833981519152602090815260408083206001600160a01b0395909516808452949091528120805460ff19166001179055339291907f2f8788117e7eff1d82e926ec794901d17c78024a50270940304540a733656f0d9080a4600190565b5050600090565b6000818152600080516020611a3f833981519152602090815260408083206001600160a01b038616845290915290205460ff1615611977576000818152600080516020611a3f833981519152602090815260408083206001600160a01b0395909516808452949091528120805460ff19169055339291907ff6391f5c32d9c69d2a47ea670b442974b53935d1edc7fd64eb21e047a839171b9080a460019056fe9016d09d72d40fdae2fd8ceac6b6234c7706214fd39c1cd1e609a0528c19930002dd7bc7dec4dceedda775e58dd541e08a116c6c53815c0bd028192f7b626800237e158222e3e6968b72b9db0d8043aacf074ad9f650f0d1606b4d82ee432c00a2646970667358221220e07cae15eaa5adeb7666a6a14d48cbd40a335630a7b8a583acae337c1a6f438e64736f6c634300081c0033",
  "linkReferences": {},
  "deployedLinkReferences": {}
}