{
  "_format": "hh-sol-artifact-1",
  "contractName": "BasicERC1155",
  "sourceName": "contracts/test-helpers/BasicERC1155.sol",
  "abi": [
    {
      "inputs": [
        {
          "internalType": "string",
          "name": "_name",
          "type": "string"
        },
        {
          "internalType": "string",
          "name": "_symbol",
          "type": "string"
        },
        {
          "internalType": "string",
          "name": "baseURI",
          "type": "string"
        },
        {
          "internalType": "string",
          "name": "contractURI_",
          "type": "string"
        },
        {
          "internalType": "address",
          "name": "initialOwner",
          "type": "address"
        }
      ],
      "stateMutability": "nonpayable",
      "type": "constructor"
    },
    {
      "inputs": [
        {
          "internalType": "address",
          "name": "sender",
          "type": "address"
        },
        {
          "internalType": "uint256",
          "name": "balance",
          "type": "uint256"
        },
        {
          "internalType": "uint256",
          "name": "needed",
          "type": "uint256"
        },
        {
          "internalType": "uint256",
          "name": "tokenId",
          "type": "uint256"
        }
      ],
      "name": "ERC1155InsufficientBalance",
      "type": "error"
    },
    {
      "inputs": [
        {
          "internalType": "address",
          "name": "approver",
          "type": "address"
        }
      ],
      "name": "ERC1155InvalidApprover",
      "type": "error"
    },
    {
      "inputs": [
        {
          "internalType": "uint256",
          "name": "idsLength",
          "type": "uint256"
        },
        {
          "internalType": "uint256",
          "name": "valuesLength",
          "type": "uint256"
        }
      ],
      "name": "ERC1155InvalidArrayLength",
      "type": "error"
    },
    {
      "inputs": [
        {
          "internalType": "address",
          "name": "operator",
          "type": "address"
        }
      ],
      "name": "ERC1155InvalidOperator",
      "type": "error"
    },
    {
      "inputs": [
        {
          "internalType": "address",
          "name": "receiver",
          "type": "address"
        }
      ],
      "name": "ERC1155InvalidReceiver",
      "type": "error"
    },
    {
      "inputs": [
        {
          "internalType": "address",
          "name": "sender",
          "type": "address"
        }
      ],
      "name": "ERC1155InvalidSender",
      "type": "error"
    },
    {
      "inputs": [
        {
          "internalType": "address",
          "name": "operator",
          "type": "address"
        },
        {
          "internalType": "address",
          "name": "owner",
          "type": "address"
        }
      ],
      "name": "ERC1155MissingApprovalForAll",
      "type": "error"
    },
    {
      "inputs": [],
      "name": "EnforcedPause",
      "type": "error"
    },
    {
      "inputs": [],
      "name": "ExpectedPause",
      "type": "error"
    },
    {
      "inputs": [
        {
          "internalType": "address",
          "name": "owner",
          "type": "address"
        }
      ],
      "name": "OwnableInvalidOwner",
      "type": "error"
    },
    {
      "inputs": [
        {
          "internalType": "address",
          "name": "account",
          "type": "address"
        }
      ],
      "name": "OwnableUnauthorizedAccount",
      "type": "error"
    },
    {
      "anonymous": false,
      "inputs": [
        {
          "indexed": true,
          "internalType": "address",
          "name": "account",
          "type": "address"
        },
        {
          "indexed": true,
          "internalType": "address",
          "name": "operator",
          "type": "address"
        },
        {
          "indexed": false,
          "internalType": "bool",
          "name": "approved",
          "type": "bool"
        }
      ],
      "name": "ApprovalForAll",
      "type": "event"
    },
    {
      "anonymous": false,
      "inputs": [
        {
          "indexed": true,
          "internalType": "address",
          "name": "previousOwner",
          "type": "address"
        },
        {
          "indexed": true,
          "internalType": "address",
          "name": "newOwner",
          "type": "address"
        }
      ],
      "name": "OwnershipTransferred",
      "type": "event"
    },
    {
      "anonymous": false,
      "inputs": [
        {
          "indexed": false,
          "internalType": "address",
          "name": "account",
          "type": "address"
        }
      ],
      "name": "Paused",
      "type": "event"
    },
    {
      "anonymous": false,
      "inputs": [
        {
          "indexed": true,
          "internalType": "address",
          "name": "operator",
          "type": "address"
        },
        {
          "indexed": true,
          "internalType": "address",
          "name": "from",
          "type": "address"
        },
        {
          "indexed": true,
          "internalType": "address",
          "name": "to",
          "type": "address"
        },
        {
          "indexed": false,
          "internalType": "uint256[]",
          "name": "ids",
          "type": "uint256[]"
        },
        {
          "indexed": false,
          "internalType": "uint256[]",
          "name": "values",
          "type": "uint256[]"
        }
      ],
      "name": "TransferBatch",
      "type": "event"
    },
    {
      "anonymous": false,
      "inputs": [
        {
          "indexed": true,
          "internalType": "address",
          "name": "operator",
          "type": "address"
        },
        {
          "indexed": true,
          "internalType": "address",
          "name": "from",
          "type": "address"
        },
        {
          "indexed": true,
          "internalType": "address",
          "name": "to",
          "type": "address"
        },
        {
          "indexed": false,
          "internalType": "uint256",
          "name": "id",
          "type": "uint256"
        },
        {
          "indexed": false,
          "internalType": "uint256",
          "name": "value",
          "type": "uint256"
        }
      ],
      "name": "TransferSingle",
      "type": "event"
    },
    {
      "anonymous": false,
      "inputs": [
        {
          "indexed": false,
          "internalType": "string",
          "name": "value",
          "type": "string"
        },
        {
          "indexed": true,
          "internalType": "uint256",
          "name": "id",
          "type": "uint256"
        }
      ],
      "name": "URI",
      "type": "event"
    },
    {
      "anonymous": false,
      "inputs": [
        {
          "indexed": false,
          "internalType": "address",
          "name": "account",
          "type": "address"
        }
      ],
      "name": "Unpaused",
      "type": "event"
    },
    {
      "inputs": [
        {
          "internalType": "address",
          "name": "account",
          "type": "address"
        },
        {
          "internalType": "uint256",
          "name": "id",
          "type": "uint256"
        }
      ],
      "name": "balanceOf",
      "outputs": [
        {
          "internalType": "uint256",
          "name": "",
          "type": "uint256"
        }
      ],
      "stateMutability": "view",
      "type": "function"
    },
    {
      "inputs": [
        {
          "internalType": "address[]",
          "name": "accounts",
          "type": "address[]"
        },
        {
          "internalType": "uint256[]",
          "name": "ids",
          "type": "uint256[]"
        }
      ],
      "name": "balanceOfBatch",
      "outputs": [
        {
          "internalType": "uint256[]",
          "name": "",
          "type": "uint256[]"
        }
      ],
      "stateMutability": "view",
      "type": "function"
    },
    {
      "inputs": [
        {
          "internalType": "address",
          "name": "account",
          "type": "address"
        },
        {
          "internalType": "uint256",
          "name": "id",
          "type": "uint256"
        },
        {
          "internalType": "uint256",
          "name": "value",
          "type": "uint256"
        }
      ],
      "name": "burn",
      "outputs": [],
      "stateMutability": "nonpayable",
      "type": "function"
    },
    {
      "inputs": [
        {
          "internalType": "address",
          "name": "account",
          "type": "address"
        },
        {
          "internalType": "uint256[]",
          "name": "ids",
          "type": "uint256[]"
        },
        {
          "internalType": "uint256[]",
          "name": "values",
          "type": "uint256[]"
        }
      ],
      "name": "burnBatch",
      "outputs": [],
      "stateMutability": "nonpayable",
      "type": "function"
    },
    {
      "inputs": [],
      "name": "contractURI",
      "outputs": [
        {
          "internalType": "string",
          "name": "",
          "type": "string"
        }
      ],
      "stateMutability": "view",
      "type": "function"
    },
    {
      "inputs": [
        {
          "internalType": "uint256",
          "name": "id",
          "type": "uint256"
        }
      ],
      "name": "exists",
      "outputs": [
        {
          "internalType": "bool",
          "name": "",
          "type": "bool"
        }
      ],
      "stateMutability": "view",
      "type": "function"
    },
    {
      "inputs": [
        {
          "internalType": "address",
          "name": "account",
          "type": "address"
        },
        {
          "internalType": "address",
          "name": "operator",
          "type": "address"
        }
      ],
      "name": "isApprovedForAll",
      "outputs": [
        {
          "internalType": "bool",
          "name": "",
          "type": "bool"
        }
      ],
      "stateMutability": "view",
      "type": "function"
    },
    {
      "inputs": [
        {
          "internalType": "address",
          "name": "account",
          "type": "address"
        },
        {
          "internalType": "uint256",
          "name": "id",
          "type": "uint256"
        },
        {
          "internalType": "uint256",
          "name": "amount",
          "type": "uint256"
        }
      ],
      "name": "mint",
      "outputs": [],
      "stateMutability": "nonpayable",
      "type": "function"
    },
    {
      "inputs": [
        {
          "internalType": "address",
          "name": "to",
          "type": "address"
        },
        {
          "internalType": "uint256[]",
          "name": "ids",
          "type": "uint256[]"
        },
        {
          "internalType": "uint256[]",
          "name": "amounts",
          "type": "uint256[]"
        }
      ],
      "name": "mintBatch",
      "outputs": [],
      "stateMutability": "nonpayable",
      "type": "function"
    },
    {
      "inputs": [],
      "name": "name",
      "outputs": [
        {
          "internalType": "string",
          "name": "",
          "type": "string"
        }
      ],
      "stateMutability": "view",
      "type": "function"
    },
    {
      "inputs": [],
      "name": "owner",
      "outputs": [
        {
          "internalType": "address",
          "name": "",
          "type": "address"
        }
      ],
      "stateMutability": "view",
      "type": "function"
    },
    {
      "inputs": [],
      "name": "pause",
      "outputs": [],
      "stateMutability": "nonpayable",
      "type": "function"
    },
    {
      "inputs": [],
      "name": "paused",
      "outputs": [
        {
          "internalType": "bool",
          "name": "",
          "type": "bool"
        }
      ],
      "stateMutability": "view",
      "type": "function"
    },
    {
      "inputs": [],
      "name": "renounceOwnership",
      "outputs": [],
      "stateMutability": "nonpayable",
      "type": "function"
    },
    {
      "inputs": [
        {
          "internalType": "address",
          "name": "from",
          "type": "address"
        },
        {
          "internalType": "address",
          "name": "to",
          "type": "address"
        },
        {
          "internalType": "uint256[]",
          "name": "ids",
          "type": "uint256[]"
        },
        {
          "internalType": "uint256[]",
          "name": "values",
          "type": "uint256[]"
        },
        {
          "internalType": "bytes",
          "name": "data",
          "type": "bytes"
        }
      ],
      "name": "safeBatchTransferFrom",
      "outputs": [],
      "stateMutability": "nonpayable",
      "type": "function"
    },
    {
      "inputs": [
        {
          "internalType": "address",
          "name": "from",
          "type": "address"
        },
        {
          "internalType": "address",
          "name": "to",
          "type": "address"
        },
        {
          "internalType": "uint256",
          "name": "id",
          "type": "uint256"
        },
        {
          "internalType": "uint256",
          "name": "value",
          "type": "uint256"
        },
        {
          "internalType": "bytes",
          "name": "data",
          "type": "bytes"
        }
      ],
      "name": "safeTransferFrom",
      "outputs": [],
      "stateMutability": "nonpayable",
      "type": "function"
    },
    {
      "inputs": [
        {
          "internalType": "address",
          "name": "operator",
          "type": "address"
        },
        {
          "internalType": "bool",
          "name": "approved",
          "type": "bool"
        }
      ],
      "name": "setApprovalForAll",
      "outputs": [],
      "stateMutability": "nonpayable",
      "type": "function"
    },
    {
      "inputs": [
        {
          "internalType": "string",
          "name": "contractURI_",
          "type": "string"
        }
      ],
      "name": "setContractURI",
      "outputs": [],
      "stateMutability": "nonpayable",
      "type": "function"
    },
    {
      "inputs": [
        {
          "internalType": "string",
          "name": "newuri",
          "type": "string"
        }
      ],
      "name": "setURI",
      "outputs": [],
      "stateMutability": "nonpayable",
      "type": "function"
    },
    {
      "inputs": [
        {
          "internalType": "bytes4",
          "name": "interfaceId",
          "type": "bytes4"
        }
      ],
      "name": "supportsInterface",
      "outputs": [
        {
          "internalType": "bool",
          "name": "",
          "type": "bool"
        }
      ],
      "stateMutability": "view",
      "type": "function"
    },
    {
      "inputs": [],
      "name": "symbol",
      "outputs": [
        {
          "internalType": "string",
          "name": "",
          "type": "string"
        }
      ],
      "stateMutability": "view",
      "type": "function"
    },
    {
      "inputs": [],
      "name": "totalSupply",
      "outputs": [
        {
          "internalType": "uint256",
          "name": "",
          "type": "uint256"
        }
      ],
      "stateMutability": "view",
      "type": "function"
    },
    {
      "inputs": [
        {
          "internalType": "uint256",
          "name": "id",
          "type": "uint256"
        }
      ],
      "name": "totalSupply",
      "outputs": [
        {
          "internalType": "uint256",
          "name": "",
          "type": "uint256"
        }
      ],
      "stateMutability": "view",
      "type": "function"
    },
    {
      "inputs": [
        {
          "internalType": "address",
          "name": "newOwner",
          "type": "address"
        }
      ],
      "name": "transferOwnership",
      "outputs": [],
      "stateMutability": "nonpayable",
      "type": "function"
    },
    {
      "inputs": [],
      "name": "unpause",
      "outputs": [],
      "stateMutability": "nonpayable",
      "type": "function"
    },
    {
      "inputs": [
        {
          "internalType": "uint256",
          "name": "id",
          "type": "uint256"
        }
      ],
      "name": "uri",
      "outputs": [
        {
          "internalType": "string",
          "name": "",
          "type": "string"
        }
      ],
      "stateMutability": "view",
      "type": "function"
    }
  ],
  "bytecode": "0x608060405234610673576125188038038061001981610678565b928339810160a0828203126106735781516001600160401b038111610673578161004491840161069d565b60208301519092906001600160401b038111610673578261006691830161069d565b60408201519092906001600160401b038111610673578161008891840161069d565b60608301519091906001600160401b038111610673576080916100ac91850161069d565b9201516001600160a01b0381169190829003610673578051906001600160401b03821161039a5760025490600182811c92168015610669575b602083101461037a5781601f8493116105f9575b50602090601f831160011461059157600092610586575b50508160011b916000199060031b1c1916176002555b801561057057600354816001600160a01b0382167f8be0079c531659141344cd1fd0a4f28419497f9722a3daafe3b4186f6b6457e0600080a36001600160a81b0319161760035582516001600160401b03811161039a57600654600181811c91168015610566575b602082101461037a57601f8111610501575b506020601f821160011461049a578192939460009261048f575b50508160011b916000199060031b1c1916176006555b81516001600160401b03811161039a57600754600181811c91168015610485575b602082101461037a57601f8111610420575b50602092601f82116001146103bb57928192936000926103b0575b50508160011b916000199060031b1c1916176007555b80516001600160401b03811161039a57600854600181811c91168015610390575b602082101461037a57601f8111610315575b50602091601f82116001146102b1579181926000926102a6575b50508160011b916000199060031b1c1916176008555b604051611e0f90816107098239f35b015190503880610281565b601f198216926008600052806000209160005b8581106102fd575083600195106102e4575b505050811b01600855610297565b015160001960f88460031b161c191690553880806102d6565b919260206001819286850151815501940192016102c4565b60086000527ff3f7a9fe364faab93b216da50a3214154f22a0a2b415b23a84c8169e8b636ee3601f830160051c81019160208410610370575b601f0160051c01905b8181106103645750610267565b60008155600101610357565b909150819061034e565b634e487b7160e01b600052602260045260246000fd5b90607f1690610255565b634e487b7160e01b600052604160045260246000fd5b01519050388061021e565b601f198216936007600052806000209160005b86811061040857508360019596106103ef575b505050811b01600755610234565b015160001960f88460031b161c191690553880806103e1565b919260206001819286850151815501940192016103ce565b60076000527fa66cc928b5edb82af9bd49922954155ab7b0942694bea4ce44661d9a8736c688601f830160051c8101916020841061047b575b601f0160051c01905b81811061046f5750610203565b60008155600101610462565b9091508190610459565b90607f16906101f1565b0151905038806101ba565b601f198216906006600052806000209160005b8181106104e9575095836001959697106104d0575b505050811b016006556101d0565b015160001960f88460031b161c191690553880806104c2565b9192602060018192868b0151815501940192016104ad565b60066000527ff652222313e28459528d920b65115c16c04f3efc82aaedc97be59f3f377c0d3f601f830160051c8101916020841061055c575b601f0160051c01905b81811061055057506101a0565b60008155600101610543565b909150819061053a565b90607f169061018e565b631e4fbdf760e01b600052600060045260246000fd5b015190503880610110565b600260009081528281209350601f198516905b8181106105e157509084600195949392106105c8575b505050811b01600255610126565b015160001960f88460031b161c191690553880806105ba565b929360206001819287860151815501950193016105a4565b60026000529091507f405787fa12a823e0f2b7631cc41b3ba8828b3321ca811111fa75cd3aa3bb5ace601f840160051c8101916020851061065f575b90601f859493920160051c01905b81811061065057506100f9565b60008155849350600101610643565b9091508190610635565b91607f16916100e5565b600080fd5b6040519190601f01601f191682016001600160401b0381118382101761039a57604052565b81601f82011215610673578051906001600160401b03821161039a576106cc601f8301601f1916602001610678565b92828452602083830101116106735760005b8281106106f357505060206000918301015290565b806020809284010151828287010152016106de56fe6080604052600436101561001257600080fd5b60003560e01c8062fdd58e146101b657806301ffc9a7146101b157806302fe5305146101ac57806306fdde03146101a75780630e89341c146101a2578063156e29f61461019d57806318160ddd146101985780632eb2c2d6146101935780633f4ba83a1461018e5780634e1273f4146101895780634f558e79146101845780635c975abb1461017f5780636b20c4541461017a578063715018a6146101755780638456cb59146101705780638da5cb5b1461016b578063938e3d7b1461016657806395d89b4114610161578063a22cb4651461015c578063bd85b03914610157578063d81d0a1514610152578063e8a3d4851461014d578063e985e9c514610148578063f242432a14610143578063f2fde38b1461013e5763f5298aca1461013957600080fd5b611309565b61127f565b6111d1565b611174565b6110cc565b61108b565b61105f565b610fa5565b610efd565b610e11565b610de8565b610d86565b610d29565b610c8e565b610c0b565b610bdd565b610b1e565b610a68565b6109de565b610931565b6108cd565b6106ba565b6105dd565b610399565b61025f565b610200565b600435906001600160a01b03821682036101d157565b600080fd5b602435906001600160a01b03821682036101d157565b35906001600160a01b03821682036101d157565b346101d15760403660031901126101d157602061024461021e6101bb565b6024356000526000835260406000209060018060a01b0316600052602052604060002090565b54604051908152f35b6001600160e01b03198116036101d157565b346101d15760203660031901126101d157602060043561027e8161024d565b63ffffffff60e01b16636cdb3d1360e11b81149081156102bc575b81156102ab575b506040519015158152f35b6301ffc9a760e01b149050386102a0565b6303a24d0760e21b81149150610299565b634e487b7160e01b600052604160045260246000fd5b90601f801991011681019081106001600160401b0382111761030457604052565b6102cd565b6001600160401b03811161030457601f01601f191660200190565b92919261033082610309565b9161033e60405193846102e3565b8294818452818301116101d1578281602093846000960137010152565b60206003198201126101d157600435906001600160401b0382116101d157806023830112156101d15781602461039693600401359101610324565b90565b346101d1576103a73661035b565b6103af611573565b80516001600160401b038111610304576103d3816103ce600254610491565b6114cd565b602091601f8211600114610413576104039260009183610408575b50508160011b916000199060031b1c19161790565b600255005b0151905038806103ee565b6002600052601f198216927f405787fa12a823e0f2b7631cc41b3ba8828b3321ca811111fa75cd3aa3bb5ace9160005b85811061047957508360019510610460575b505050811b01600255005b015160001960f88460031b161c19169055388080610455565b91926020600181928685015181550194019201610443565b90600182811c921680156104c1575b60208310146104ab57565b634e487b7160e01b600052602260045260246000fd5b91607f16916104a0565b60405190600082600254916104df83610491565b80835292600181169081156105655750600114610505575b610503925003836102e3565b565b506002600090815290917f405787fa12a823e0f2b7631cc41b3ba8828b3321ca811111fa75cd3aa3bb5ace5b818310610549575050906020610503928201016104f7565b6020919350806001915483858901015201910190918492610531565b6020925061050394915060ff191682840152151560051b8201016104f7565b60005b8381106105975750506000910152565b8181015183820152602001610587565b906020916105c081518092818552858086019101610584565b601f01601f1916010190565b9060206103969281815201906105a7565b346101d15760003660031901126101d15760405160006006546105ff81610491565b80845290600181169081156106965750600114610637575b61063383610627818503826102e3565b604051918291826105cc565b0390f35b600660009081527ff652222313e28459528d920b65115c16c04f3efc82aaedc97be59f3f377c0d3f939250905b80821061067c57509091508101602001610627610617565b919260018160209254838588010152019101909291610664565b60ff191660208086019190915291151560051b840190910191506106279050610617565b346101d15760203660031901126101d1576004356106d66104cb565b516000901561088857506106e86104cb565b600091808072184f03e93ff9f4daa797ed6e38ed64bf6a1f0160401b811015610862575b50806d04ee2d6d415b85acef8100000000600a921015610846575b662386f26fc10000811015610831575b6305f5e10081101561081f575b61271081101561080f575b6064811015610800575b10156107f5575b61079d60216107716001860161159c565b948501015b60001901916f181899199a1a9b1b9c1cb0b131b232b360811b600a82061a8353600a900490565b9081156107ad5761079d90610776565b50506106276107d0916107e76107d6610633956040519586946020860190611377565b90611377565b64173539b7b760d91b815260050190565b03601f1981018352826102e3565b600190920191610760565b60029060649004940193610759565b600490612710900494019361074f565b6008906305f5e1009004940193610744565b601090662386f26fc100009004940193610737565b6020906d04ee2d6d415b85acef81000000009004940193610727565b6040945072184f03e93ff9f4daa797ed6e38ed64bf6a1f0160401b90049050600a61070c565b61063391506040519061089c6020836102e3565b8152610627565b60609060031901126101d1576004356001600160a01b03811681036101d157906024359060443590565b346101d1576108db366108a3565b916108e4611573565b604051916108f36020846102e3565b600083526001600160a01b0382161561091b5761091993610913916115ce565b916115f3565b005b632bfa23e760e11b600052600060045260246000fd5b346101d15760003660031901126101d1576020600554604051908152f35b6001600160401b0381116103045760051b60200190565b9080601f830112156101d157813561097d8161094f565b9261098b60405194856102e3565b81845260208085019260051b8201019283116101d157602001905b8282106109b35750505090565b81358152602091820191016109a6565b9080601f830112156101d15781602061039693359101610324565b346101d15760a03660031901126101d1576109f76101bb565b6109ff6101d6565b906044356001600160401b0381116101d157610a1f903690600401610966565b6064356001600160401b0381116101d157610a3e903690600401610966565b90608435936001600160401b0385116101d157610a626109199536906004016109c3565b9361138e565b346101d15760003660031901126101d157610a81611573565b60035460ff8160a01c1615610ac85760ff60a01b19166003556040513381527f5db9ee0a495bf2e6ff9c91a7834c1ba4fdd244a5e8aa4e537bd38aeae4b073aa90602090a1005b638dfc202b60e01b60005260046000fd5b906020808351928381520192019060005b818110610af75750505090565b8251845260209384019390920191600101610aea565b906020610396928181520190610ad9565b346101d15760403660031901126101d1576004356001600160401b0381116101d157366023820112156101d157806004013590610b5a8261094f565b91610b6860405193846102e3565b8083526024602084019160051b830101913683116101d157602401905b828210610bc557836024356001600160401b0381116101d15761063391610bb3610bb9923690600401610966565b90611415565b60405191829182610b0d565b60208091610bd2846101ec565b815201910190610b85565b346101d15760203660031901126101d157600435600052600460205260206040600020541515604051908152f35b346101d15760003660031901126101d157602060ff60035460a01c166040519015158152f35b60606003198201126101d1576004356001600160a01b03811681036101d157916024356001600160401b0381116101d15782610c6f91600401610966565b91604435906001600160401b0382116101d15761039691600401610966565b346101d157610c9c36610c31565b9091906001600160a01b0382163381141580610d05575b610ced5715610cd8576109199260405192610ccf6020856102e3565b6000845261172b565b626a0d4560e21b600052600060045260246000fd5b63711bec9160e11b6000523360045260245260446000fd5b50600081815260016020908152604080832033845290915290205460ff1615610cb3565b346101d15760003660031901126101d157610d42611573565b600380546001600160a01b031981169091556000906001600160a01b03167f8be0079c531659141344cd1fd0a4f28419497f9722a3daafe3b4186f6b6457e08280a3005b346101d15760003660031901126101d157610d9f611573565b610da761192c565b6003805460ff60a01b1916600160a01b1790556040513381527f62e78cea01bee320cd4e420270b5ea74000d11b0c9f74754ebdbfc544b05a25890602090a1005b346101d15760003660031901126101d1576003546040516001600160a01b039091168152602090f35b346101d157610e1f3661035b565b610e27611573565b80516001600160401b03811161030457610e4b81610e46600854610491565b611520565b602091601f8211600114610e7f57610e7a92600091836104085750508160011b916000199060031b1c19161790565b600855005b6008600052601f198216927ff3f7a9fe364faab93b216da50a3214154f22a0a2b415b23a84c8169e8b636ee39160005b858110610ee557508360019510610ecc575b505050811b01600855005b015160001960f88460031b161c19169055388080610ec1565b91926020600181928685015181550194019201610eaf565b346101d15760003660031901126101d1576040516000600754610f1f81610491565b80845290600181169081156106965750600114610f465761063383610627818503826102e3565b600760009081527fa66cc928b5edb82af9bd49922954155ab7b0942694bea4ce44661d9a8736c688939250905b808210610f8b57509091508101602001610627610617565b919260018160209254838588010152019101909291610f73565b346101d15760403660031901126101d157610fbe6101bb565b6024358015158082036101d1576001600160a01b03831692831561104a573360009081526001602090815260408083206001600160a01b039094168352929052209060ff801983541691161790557f17307eab39ab6107e8899845ad3d59bd9653f200f220920489ca2b5937696c3160405180611045339482919091602081019215159052565b0390a3005b62ced3e160e81b600052600060045260246000fd5b346101d15760203660031901126101d15760043560005260046020526020604060002054604051908152f35b346101d15761109936610c31565b6110a1611573565b604051916110b06020846102e3565b600083526001600160a01b0384161561091b57610919936115f3565b346101d15760003660031901126101d15760405160006008546110ee81610491565b808452906001811690811561069657506001146111155761063383610627818503826102e3565b600860009081527ff3f7a9fe364faab93b216da50a3214154f22a0a2b415b23a84c8169e8b636ee3939250905b80821061115a57509091508101602001610627610617565b919260018160209254838588010152019101909291611142565b346101d15760403660031901126101d157602060ff6111c56111946101bb565b61119c6101d6565b6001600160a01b0391821660009081526001865260408082209290931681526020919091522090565b54166040519015158152f35b346101d15760a03660031901126101d1576111ea6101bb565b6111f26101d6565b60443590606435926084356001600160401b0381116101d1576112199036906004016109c3565b926001600160a01b038216338114158061125b575b610ced576001600160a01b0384161561091b5715610cd85761091994611253916115ce565b9290916117f8565b50600081815260016020908152604080832033845290915290205460ff161561122e565b346101d15760203660031901126101d1576112986101bb565b6112a0611573565b6001600160a01b031680156112f357600380546001600160a01b0319811683179091556001600160a01b03167f8be0079c531659141344cd1fd0a4f28419497f9722a3daafe3b4186f6b6457e0600080a3005b631e4fbdf760e01b600052600060045260246000fd5b346101d157611317366108a3565b91906001600160a01b0382163381141580611353575b610ced5715610cd85761091992611343916115ce565b9060405192610ccf6020856102e3565b50600081815260016020908152604080832033845290915290205460ff161561132d565b9061138a60209282815194859201610584565b0190565b939291906001600160a01b03851633811415806113c7575b610ced576001600160a01b0382161561091b5715610cd857610503946117f8565b50600081815260016020908152604080832033845290915290205460ff16156113a6565b80518210156113ff5760209160051b010190565b634e487b7160e01b600052603260045260246000fd5b919091805183518082036114b65750508051906114318261094f565b9161143f60405193846102e3565b80835261144e601f199161094f565b0136602084013760005b81518110156114af578061149e60019260051b60208082870101519189010151906000918252602082815260408084206001600160a01b03909316845291905290205490565b6114a882866113eb565b5201611458565b5090925050565b635b05999160e01b60005260045260245260446000fd5b601f81116114d9575050565b60026000526020600020906020601f840160051c83019310611516575b601f0160051c01905b81811061150a575050565b600081556001016114ff565b90915081906114f6565b601f811161152c575050565b60086000526020600020906020601f840160051c83019310611569575b601f0160051c01905b81811061155d575050565b60008155600101611552565b9091508190611549565b6003546001600160a01b0316330361158757565b63118cdaa760e01b6000523360045260246000fd5b906115a682610309565b6115b360405191826102e3565b82815280926115c4601f1991610309565b0190602036910137565b9160405192600184526020840152604083019160018352606084015260808301604052565b939190916116048284876000611bdc565b600094855b84518710156116575761164f6001918860051b9061163d602080848a010151938a0101516000526004602052604060002090565b611648838254611bb9565b9055611bb9565b960195611609565b61167191959492965061166c90600554611bb9565b600555565b6001600160a01b03841615806116c8575b1561168e575b50505050565b80516001036116b757906020806116ae9593015191015191600033611b19565b38808080611688565b6116c3936000336119e4565b6116ae565b9360009591936000965b8551881015611712576001908860051b90611703602080848a010151938a0101516000526004602052604060002090565b828154039055019701966116d2565b611726919593975095919560055403600555565b611682565b909193925061173d8483600084611bdc565b6001600160a01b0316156117a2575b6000805b8251821015611790576001908260051b90611781602080848a01015193870101516000526004602052604060002090565b82815403905501910190611750565b91505061050391925060055403600555565b6000805b82518210156117e2576117da6001918360051b9061163d602080848b01015193880101516000526004602052604060002090565b9101906117a6565b6117f3915061166c90600554611bb9565b61174c565b9193929061180882868386611bdc565b6001600160a01b038316156118ce575b6001600160a01b038116158061186d575b15611836575b5050505050565b845160010361185c576020806118529601519201519233611b19565b388080808061182f565b611868949192336119e4565b611852565b94936000939091845b86518610156118b6576001908660051b906118a7602080848a010151938b0101516000526004602052604060002090565b82815403905501950194611876565b6118c99193969792955060055403600555565b611829565b9392600092835b8551851015611911576119096001918660051b9061163d602080848a010151938b0101516000526004602052604060002090565b9401936118d5565b61192791945061166c9096929596600554611bb9565b611818565b60ff60035460a01c1661193b57565b63d93c066560e01b60005260046000fd5b908160209103126101d157516103968161024d565b6001600160a01b0391821681529116602082015260a06040820181905261039694919391926119a692916119989190860190610ad9565b908482036060860152610ad9565b9160808184039101526105a7565b3d156119df573d906119c582610309565b916119d360405193846102e3565b82523d6000602084013e565b606090565b9091949293853b6119f8575b505050505050565b602093611a1a91604051968795869563bc197c8160e01b875260048701611961565b038160006001600160a01b0387165af160009181611aaf575b50611a6f5750611a416119b4565b8051919082611a6857632bfa23e760e11b6000526001600160a01b03821660045260246000fd5b9050602001fd5b6001600160e01b0319166343e6837f60e01b01611a9257503880808080806119f0565b632bfa23e760e11b6000526001600160a01b031660045260246000fd5b611ad291925060203d602011611ad9575b611aca81836102e3565b81019061194c565b9038611a33565b503d611ac0565b6001600160a01b039182168152911660208201526040810191909152606081019190915260a060808201819052610396929101906105a7565b9091949293853b611b2c57505050505050565b602093611b4e91604051968795869563f23a6e6160e01b875260048701611ae0565b038160006001600160a01b0387165af160009181611b98575b50611b755750611a416119b4565b6001600160e01b031916630dc5919f60e01b01611a9257503880808080806119f0565b611bb291925060203d602011611ad957611aca81836102e3565b9038611b67565b91908201809211611bc657565b634e487b7160e01b600052601160045260246000fd5b939192611be761192c565b8351815190818103611d9d5750506001600160a01b038581169485151594918416801515929060005b8351811015611d11578060051b90888887602080868a010151958b01015192611c8a575b93600194611c46575b50505001611c10565b611c8091611c61611c78926000526000602052604060002090565b9060018060a01b0316600052602052604060002090565b918254611bb9565b9055388881611c3d565b50509091611ca68c611c61836000526000602052604060002090565b54828110611cda578291888e611cd1600197968e950391611c61856000526000602052604060002090565b55909450611c34565b6040516303dee4c560e01b81526001600160a01b038e16600482015260248101919091526044810183905260648101829052608490fd5b509695509650919250506001815114600014611d6a5760209081015191810151604080519384529183015233917fc3d58168c5ae7397731d063d5bbf3d657854427343f4c083240f7aacaa2d0f6291819081015b0390a4565b60405133927f4a39dc06d4c0dbc64b70af90fd698a233a518aa5d07e595d983b8c0526c8f7fb928291611d659183611db4565b635b05999160e01b60005260045260245260446000fd5b9091611dcb61039693604084526040840190610ad9565b916020818403910152610ad956fea26469706673582212205e2a0591bdcbfbd2a72ae9e5143186e3969b79f594a69904be73f89bfaaf210c64736f6c634300081c0033",
  "linkReferences": {},
  "deployedLinkReferences": {}
}