{
  "_format": "hh-sol-artifact-1",
  "contractName": "BasicERC721",
  "sourceName": "contracts/test-helpers/BasicERC721.sol",
  "abi": [
    {
      "inputs": [
        {
          "internalType": "string",
          "name": "name",
          "type": "string"
        },
        {
          "internalType": "string",
          "name": "symbol",
          "type": "string"
        },
        {
          "internalType": "string",
          "name": "tokenBaseURI",
          "type": "string"
        },
        {
          "internalType": "string",
          "name": "contractURI_",
          "type": "string"
        },
        {
          "internalType": "address",
          "name": "initialOwner",
          "type": "address"
        }
      ],
      "stateMutability": "nonpayable",
      "type": "constructor"
    },
    {
      "inputs": [],
      "name": "ERC721EnumerableForbiddenBatchMint",
      "type": "error"
    },
    {
      "inputs": [
        {
          "internalType": "address",
          "name": "sender",
          "type": "address"
        },
        {
          "internalType": "uint256",
          "name": "tokenId",
          "type": "uint256"
        },
        {
          "internalType": "address",
          "name": "owner",
          "type": "address"
        }
      ],
      "name": "ERC721IncorrectOwner",
      "type": "error"
    },
    {
      "inputs": [
        {
          "internalType": "address",
          "name": "operator",
          "type": "address"
        },
        {
          "internalType": "uint256",
          "name": "tokenId",
          "type": "uint256"
        }
      ],
      "name": "ERC721InsufficientApproval",
      "type": "error"
    },
    {
      "inputs": [
        {
          "internalType": "address",
          "name": "approver",
          "type": "address"
        }
      ],
      "name": "ERC721InvalidApprover",
      "type": "error"
    },
    {
      "inputs": [
        {
          "internalType": "address",
          "name": "operator",
          "type": "address"
        }
      ],
      "name": "ERC721InvalidOperator",
      "type": "error"
    },
    {
      "inputs": [
        {
          "internalType": "address",
          "name": "owner",
          "type": "address"
        }
      ],
      "name": "ERC721InvalidOwner",
      "type": "error"
    },
    {
      "inputs": [
        {
          "internalType": "address",
          "name": "receiver",
          "type": "address"
        }
      ],
      "name": "ERC721InvalidReceiver",
      "type": "error"
    },
    {
      "inputs": [
        {
          "internalType": "address",
          "name": "sender",
          "type": "address"
        }
      ],
      "name": "ERC721InvalidSender",
      "type": "error"
    },
    {
      "inputs": [
        {
          "internalType": "uint256",
          "name": "tokenId",
          "type": "uint256"
        }
      ],
      "name": "ERC721NonexistentToken",
      "type": "error"
    },
    {
      "inputs": [
        {
          "internalType": "address",
          "name": "owner",
          "type": "address"
        },
        {
          "internalType": "uint256",
          "name": "index",
          "type": "uint256"
        }
      ],
      "name": "ERC721OutOfBoundsIndex",
      "type": "error"
    },
    {
      "inputs": [],
      "name": "EnforcedPause",
      "type": "error"
    },
    {
      "inputs": [],
      "name": "ExpectedPause",
      "type": "error"
    },
    {
      "inputs": [
        {
          "internalType": "address",
          "name": "owner",
          "type": "address"
        }
      ],
      "name": "OwnableInvalidOwner",
      "type": "error"
    },
    {
      "inputs": [
        {
          "internalType": "address",
          "name": "account",
          "type": "address"
        }
      ],
      "name": "OwnableUnauthorizedAccount",
      "type": "error"
    },
    {
      "anonymous": false,
      "inputs": [
        {
          "indexed": true,
          "internalType": "address",
          "name": "owner",
          "type": "address"
        },
        {
          "indexed": true,
          "internalType": "address",
          "name": "approved",
          "type": "address"
        },
        {
          "indexed": true,
          "internalType": "uint256",
          "name": "tokenId",
          "type": "uint256"
        }
      ],
      "name": "Approval",
      "type": "event"
    },
    {
      "anonymous": false,
      "inputs": [
        {
          "indexed": true,
          "internalType": "address",
          "name": "owner",
          "type": "address"
        },
        {
          "indexed": true,
          "internalType": "address",
          "name": "operator",
          "type": "address"
        },
        {
          "indexed": false,
          "internalType": "bool",
          "name": "approved",
          "type": "bool"
        }
      ],
      "name": "ApprovalForAll",
      "type": "event"
    },
    {
      "anonymous": false,
      "inputs": [
        {
          "indexed": true,
          "internalType": "address",
          "name": "previousOwner",
          "type": "address"
        },
        {
          "indexed": true,
          "internalType": "address",
          "name": "newOwner",
          "type": "address"
        }
      ],
      "name": "OwnershipTransferred",
      "type": "event"
    },
    {
      "anonymous": false,
      "inputs": [
        {
          "indexed": false,
          "internalType": "address",
          "name": "account",
          "type": "address"
        }
      ],
      "name": "Paused",
      "type": "event"
    },
    {
      "anonymous": false,
      "inputs": [
        {
          "indexed": true,
          "internalType": "address",
          "name": "from",
          "type": "address"
        },
        {
          "indexed": true,
          "internalType": "address",
          "name": "to",
          "type": "address"
        },
        {
          "indexed": true,
          "internalType": "uint256",
          "name": "tokenId",
          "type": "uint256"
        }
      ],
      "name": "Transfer",
      "type": "event"
    },
    {
      "anonymous": false,
      "inputs": [
        {
          "indexed": false,
          "internalType": "address",
          "name": "account",
          "type": "address"
        }
      ],
      "name": "Unpaused",
      "type": "event"
    },
    {
      "inputs": [
        {
          "internalType": "address",
          "name": "to",
          "type": "address"
        },
        {
          "internalType": "uint256",
          "name": "tokenId",
          "type": "uint256"
        }
      ],
      "name": "approve",
      "outputs": [],
      "stateMutability": "nonpayable",
      "type": "function"
    },
    {
      "inputs": [
        {
          "internalType": "address",
          "name": "owner",
          "type": "address"
        }
      ],
      "name": "balanceOf",
      "outputs": [
        {
          "internalType": "uint256",
          "name": "",
          "type": "uint256"
        }
      ],
      "stateMutability": "view",
      "type": "function"
    },
    {
      "inputs": [
        {
          "internalType": "uint256",
          "name": "tokenId",
          "type": "uint256"
        }
      ],
      "name": "burn",
      "outputs": [],
      "stateMutability": "nonpayable",
      "type": "function"
    },
    {
      "inputs": [],
      "name": "contractURI",
      "outputs": [
        {
          "internalType": "string",
          "name": "",
          "type": "string"
        }
      ],
      "stateMutability": "view",
      "type": "function"
    },
    {
      "inputs": [
        {
          "internalType": "uint256",
          "name": "tokenId",
          "type": "uint256"
        }
      ],
      "name": "getApproved",
      "outputs": [
        {
          "internalType": "address",
          "name": "",
          "type": "address"
        }
      ],
      "stateMutability": "view",
      "type": "function"
    },
    {
      "inputs": [
        {
          "internalType": "address",
          "name": "owner",
          "type": "address"
        },
        {
          "internalType": "address",
          "name": "operator",
          "type": "address"
        }
      ],
      "name": "isApprovedForAll",
      "outputs": [
        {
          "internalType": "bool",
          "name": "",
          "type": "bool"
        }
      ],
      "stateMutability": "view",
      "type": "function"
    },
    {
      "inputs": [],
      "name": "name",
      "outputs": [
        {
          "internalType": "string",
          "name": "",
          "type": "string"
        }
      ],
      "stateMutability": "view",
      "type": "function"
    },
    {
      "inputs": [],
      "name": "owner",
      "outputs": [
        {
          "internalType": "address",
          "name": "",
          "type": "address"
        }
      ],
      "stateMutability": "view",
      "type": "function"
    },
    {
      "inputs": [
        {
          "internalType": "uint256",
          "name": "tokenId",
          "type": "uint256"
        }
      ],
      "name": "ownerOf",
      "outputs": [
        {
          "internalType": "address",
          "name": "",
          "type": "address"
        }
      ],
      "stateMutability": "view",
      "type": "function"
    },
    {
      "inputs": [],
      "name": "pause",
      "outputs": [],
      "stateMutability": "nonpayable",
      "type": "function"
    },
    {
      "inputs": [],
      "name": "paused",
      "outputs": [
        {
          "internalType": "bool",
          "name": "",
          "type": "bool"
        }
      ],
      "stateMutability": "view",
      "type": "function"
    },
    {
      "inputs": [],
      "name": "renounceOwnership",
      "outputs": [],
      "stateMutability": "nonpayable",
      "type": "function"
    },
    {
      "inputs": [
        {
          "internalType": "address",
          "name": "to",
          "type": "address"
        }
      ],
      "name": "safeMint",
      "outputs": [],
      "stateMutability": "nonpayable",
      "type": "function"
    },
    {
      "inputs": [
        {
          "internalType": "address",
          "name": "from",
          "type": "address"
        },
        {
          "internalType": "address",
          "name": "to",
          "type": "address"
        },
        {
          "internalType": "uint256",
          "name": "tokenId",
          "type": "uint256"
        }
      ],
      "name": "safeTransferFrom",
      "outputs": [],
      "stateMutability": "nonpayable",
      "type": "function"
    },
    {
      "inputs": [
        {
          "internalType": "address",
          "name": "from",
          "type": "address"
        },
        {
          "internalType": "address",
          "name": "to",
          "type": "address"
        },
        {
          "internalType": "uint256",
          "name": "tokenId",
          "type": "uint256"
        },
        {
          "internalType": "bytes",
          "name": "data",
          "type": "bytes"
        }
      ],
      "name": "safeTransferFrom",
      "outputs": [],
      "stateMutability": "nonpayable",
      "type": "function"
    },
    {
      "inputs": [
        {
          "internalType": "address",
          "name": "operator",
          "type": "address"
        },
        {
          "internalType": "bool",
          "name": "approved",
          "type": "bool"
        }
      ],
      "name": "setApprovalForAll",
      "outputs": [],
      "stateMutability": "nonpayable",
      "type": "function"
    },
    {
      "inputs": [
        {
          "internalType": "string",
          "name": "baseURI",
          "type": "string"
        }
      ],
      "name": "setBaseURI",
      "outputs": [],
      "stateMutability": "nonpayable",
      "type": "function"
    },
    {
      "inputs": [
        {
          "internalType": "string",
          "name": "contractURI_",
          "type": "string"
        }
      ],
      "name": "setContractURI",
      "outputs": [],
      "stateMutability": "nonpayable",
      "type": "function"
    },
    {
      "inputs": [
        {
          "internalType": "bytes4",
          "name": "interfaceId",
          "type": "bytes4"
        }
      ],
      "name": "supportsInterface",
      "outputs": [
        {
          "internalType": "bool",
          "name": "",
          "type": "bool"
        }
      ],
      "stateMutability": "view",
      "type": "function"
    },
    {
      "inputs": [],
      "name": "symbol",
      "outputs": [
        {
          "internalType": "string",
          "name": "",
          "type": "string"
        }
      ],
      "stateMutability": "view",
      "type": "function"
    },
    {
      "inputs": [
        {
          "internalType": "uint256",
          "name": "index",
          "type": "uint256"
        }
      ],
      "name": "tokenByIndex",
      "outputs": [
        {
          "internalType": "uint256",
          "name": "",
          "type": "uint256"
        }
      ],
      "stateMutability": "view",
      "type": "function"
    },
    {
      "inputs": [
        {
          "internalType": "address",
          "name": "owner",
          "type": "address"
        },
        {
          "internalType": "uint256",
          "name": "index",
          "type": "uint256"
        }
      ],
      "name": "tokenOfOwnerByIndex",
      "outputs": [
        {
          "internalType": "uint256",
          "name": "",
          "type": "uint256"
        }
      ],
      "stateMutability": "view",
      "type": "function"
    },
    {
      "inputs": [
        {
          "internalType": "uint256",
          "name": "tokenId",
          "type": "uint256"
        }
      ],
      "name": "tokenURI",
      "outputs": [
        {
          "internalType": "string",
          "name": "",
          "type": "string"
        }
      ],
      "stateMutability": "view",
      "type": "function"
    },
    {
      "inputs": [],
      "name": "totalSupply",
      "outputs": [
        {
          "internalType": "uint256",
          "name": "",
          "type": "uint256"
        }
      ],
      "stateMutability": "view",
      "type": "function"
    },
    {
      "inputs": [
        {
          "internalType": "address",
          "name": "from",
          "type": "address"
        },
        {
          "internalType": "address",
          "name": "to",
          "type": "address"
        },
        {
          "internalType": "uint256",
          "name": "tokenId",
          "type": "uint256"
        }
      ],
      "name": "transferFrom",
      "outputs": [],
      "stateMutability": "nonpayable",
      "type": "function"
    },
    {
      "inputs": [
        {
          "internalType": "address",
          "name": "newOwner",
          "type": "address"
        }
      ],
      "name": "transferOwnership",
      "outputs": [],
      "stateMutability": "nonpayable",
      "type": "function"
    },
    {
      "inputs": [],
      "name": "unpause",
      "outputs": [],
      "stateMutability": "nonpayable",
      "type": "function"
    }
  ],
  "bytecode": "0x60806040523461068a57612416803803806100198161068f565b92833981019060a08183031261068a5780516001600160401b03811161068a57826100459183016106b4565b60208201516001600160401b03811161068a57836100649184016106b4565b60408301516001600160401b03811161068a57846100839185016106b4565b60608401519094906001600160401b03811161068a576080916100a79186016106b4565b9301516001600160a01b0381169290919083830361068a578051906001600160401b0382116103a85760005490600182811c92168015610680575b60208310146103885781601f849311610611575b50602090601f83116001146105ab576000926105a0575b50508160011b916000199060031b1c1916176000555b8051906001600160401b0382116103a85760015490600182811c92168015610596575b60208310146103885781601f849311610526575b50602090601f83116001146104be576000926104b3575b50508160011b916000199060031b1c1916176001555b600a5490821561049d576001600160a81b03198216600891821b610100600160a81b031617600a551c6001600160a01b03167f8be0079c531659141344cd1fd0a4f28419497f9722a3daafe3b4186f6b6457e0600080a381516001600160401b0381116103a857600c54600181811c91168015610493575b602082101461038857601f811161042e575b50602092601f82116001146103c957928192936000926103be575b50508160011b916000199060031b1c191617600c555b80516001600160401b0381116103a857600d54600181811c9116801561039e575b602082101461038857601f8111610323575b50602091601f82116001146102bf579181926000926102b4575b50508160011b916000199060031b1c191617600d555b604051611cf690816107208239f35b01519050388061028f565b601f19821692600d600052806000209160005b85811061030b575083600195106102f2575b505050811b01600d556102a5565b015160001960f88460031b161c191690553880806102e4565b919260206001819286850151815501940192016102d2565b600d6000527fd7b6990105719101dabeb77144f2a3385c8033acd3af97e9423a695e81ad1eb5601f830160051c8101916020841061037e575b601f0160051c01905b8181106103725750610275565b60008155600101610365565b909150819061035c565b634e487b7160e01b600052602260045260246000fd5b90607f1690610263565b634e487b7160e01b600052604160045260246000fd5b01519050388061022c565b601f19821693600c600052806000209160005b86811061041657508360019596106103fd575b505050811b01600c55610242565b015160001960f88460031b161c191690553880806103ef565b919260206001819286850151815501940192016103dc565b600c6000527fdf6966c971051c3d54ec59162606531493a51404a002842f56009d7e5cf4a8c7601f830160051c81019160208410610489575b601f0160051c01905b81811061047d5750610211565b60008155600101610470565b9091508190610467565b90607f16906101ff565b631e4fbdf760e01b600052600060045260246000fd5b015190503880610171565b600160009081528281209350601f198516905b81811061050e57509084600195949392106104f5575b505050811b01600155610187565b015160001960f88460031b161c191690553880806104e7565b929360206001819287860151815501950193016104d1565b60016000529091507fb10e2d527612073b26eecdfd717e6a320cf44b4afac2b0732d9fcbe2b7fa0cf6601f840160051c8101916020851061058c575b90601f859493920160051c01905b81811061057d575061015a565b60008155849350600101610570565b9091508190610562565b91607f1691610146565b01519050388061010d565b60008080528281209350601f198516905b8181106105f957509084600195949392106105e0575b505050811b01600055610123565b015160001960f88460031b161c191690553880806105d2565b929360206001819287860151815501950193016105bc565b600080529091507f290decd9548b62a8d60345a988386fc84ba6bc95484008f6362f93160ef3e563601f840160051c81019160208510610676575b90601f859493920160051c01905b81811061066757506100f6565b6000815584935060010161065a565b909150819061064c565b91607f16916100e2565b600080fd5b6040519190601f01601f191682016001600160401b038111838210176103a857604052565b81601f8201121561068a578051906001600160401b0382116103a8576106e3601f8301601f191660200161068f565b928284526020838301011161068a5760005b82811061070a57505060206000918301015290565b806020809284010151828287010152016106f556fe608080604052600436101561001357600080fd5b60003560e01c90816301ffc9a71461131b5750806306fdde0314611276578063081812fc14611238578063095ea7b31461114957806318160ddd1461112b57806323b872dd146111145780632f745c591461109c5780633f4ba83a1461103357806340d097c314610cd557806342842e0e14610ca557806342966c6814610c885780634f6ccce714610c3757806355f804b314610b0a5780635c975abb14610ae75780636352211e14610ab757806370a0823114610a8c578063715018a614610a2b5780638456cb59146109d15780638da5cb5b146109a4578063938e3d7b1461084f57806395d89b41146107a7578063a22cb46514610706578063b88d4fde14610698578063c87b56dd1461032a578063e8a3d48514610245578063e985e9c5146101ea5763f2fde38b1461014857600080fd5b346101e55760203660031901126101e5576101616113e8565b61016961185a565b6001600160a01b0381169081156101cf57600a8054610100600160a81b03198116600893841b610100600160a81b031617909155901c6001600160a01b03167f8be0079c531659141344cd1fd0a4f28419497f9722a3daafe3b4186f6b6457e0600080a3005b631e4fbdf760e01b600052600060045260246000fd5b600080fd5b346101e55760403660031901126101e5576102036113e8565b61020b6113fe565b9060018060a01b0316600052600560205260406000209060018060a01b0316600052602052602060ff604060002054166040519015158152f35b346101e55760003660031901126101e5576040516000600d5461026781611502565b808452906001811690811561030657506001146102a7575b6102a38361028f8185038261144e565b6040519182916020835260208301906113c3565b0390f35b600d60009081527fd7b6990105719101dabeb77144f2a3385c8033acd3af97e9423a695e81ad1eb5939250905b8082106102ec5750909150810160200161028f61027f565b9192600181602092548385880101520191019092916102d4565b60ff191660208086019190915291151560051b8401909101915061028f905061027f565b346101e55760203660031901126101e5576004356001600160a01b0361034f82611837565b161561068457604051600c549160009161036884611502565b808252816001861694858060001461066657600114610618575b61038e9250038261144e565b51600090156105fa5750604051928360006103a883611502565b8083526020830195909381156105de5750600114610590575b6103cd9250038461144e565b600090808072184f03e93ff9f4daa797ed6e38ed64bf6a1f0160401b81101561056a575b50806d04ee2d6d415b85acef8100000000600a92101561054f575b662386f26fc1000081101561053b575b6305f5e10081101561052a575b61271081101561051b575b606481101561050d575b1015610503575b6001820190600a602161047061045a85611470565b94610468604051968761144e565b808652611470565b602085019590601f19013687378401015b60001901916f181899199a1a9b1b9c1cb0b131b232b360811b8282061a8353049081156104b057600a90610481565b50506102a393602061028f936005936104e76104d897604051988996518092878901906113a0565b850191518093858401906113a0565b010164173539b7b760d91b815203601a1981018452018261144e565b9060010190610445565b60646002910493019261043e565b61271060049104930192610434565b6305f5e10060089104930192610429565b662386f26fc100006010910493019261041c565b6d04ee2d6d415b85acef81000000006020910493019261040c565b6040935072184f03e93ff9f4daa797ed6e38ed64bf6a1f0160401b90049050600a6103f1565b50600c60009081529091600080516020611c818339815191525b8183106105c25750509060206103cd928201016103c1565b6020919350806001915483858a010152019101909185926105aa565b60ff19168652506103cd92151560051b820160200190506103c1565b9150506102a391506040519061061160208361144e565b815261028f565b50600c60009081529091600080516020611c818339815191525b81831061064a57505090602061038e92820101610382565b6020919350806001915483858801015201910190918392610632565b5050602061038e9260ff19881682840152151560051b820101610382565b637e27328960e01b60005260045260246000fd5b346101e55760803660031901126101e5576106b16113e8565b6106b96113fe565b906044356064359267ffffffffffffffff84116101e557366023850112156101e5576106f261070494369060248160040135910161148c565b926106fe83838361153c565b33611886565b005b346101e55760403660031901126101e55761071f6113e8565b602435908115158092036101e5576001600160a01b031690811561079257336000526005602052604060002082600052602052604060002060ff1981541660ff83161790556040519081527f17307eab39ab6107e8899845ad3d59bd9653f200f220920489ca2b5937696c3160203392a3005b50630b61174360e31b60005260045260246000fd5b346101e55760003660031901126101e55760405160006001546107c981611502565b808452906001811690811561030657506001146107f0576102a38361028f8185038261144e565b600160009081527fb10e2d527612073b26eecdfd717e6a320cf44b4afac2b0732d9fcbe2b7fa0cf6939250905b8082106108355750909150810160200161028f61027f565b91926001816020925483858801015201910190929161081d565b346101e55761085d366114c3565b61086561185a565b805167ffffffffffffffff811161098e57610881600d54611502565b601f8111610929575b50602091601f82116001146108c8579181926000926108bd575b5050600019600383901b1c191660019190911b17600d55005b0151905082806108a4565b601f19821692600d600052806000209160005b858110610911575083600195106108f8575b505050811b01600d55005b015160001960f88460031b161c191690558280806108ed565b919260206001819286850151815501940192016108db565b600d6000527fd7b6990105719101dabeb77144f2a3385c8033acd3af97e9423a695e81ad1eb5601f830160051c81019160208410610984575b601f0160051c01905b818110610978575061088a565b6000815560010161096b565b9091508190610962565b634e487b7160e01b600052604160045260246000fd5b346101e55760003660031901126101e557600a5460405160089190911c6001600160a01b03168152602090f35b346101e55760003660031901126101e5576109ea61185a565b6109f2611c63565b600160ff19600a541617600a557f62e78cea01bee320cd4e420270b5ea74000d11b0c9f74754ebdbfc544b05a2586020604051338152a1005b346101e55760003660031901126101e557610a4461185a565b600a8054610100600160a81b0319811690915560009060081c6001600160a01b03167f8be0079c531659141344cd1fd0a4f28419497f9722a3daafe3b4186f6b6457e08280a3005b346101e55760203660031901126101e5576020610aaf610aaa6113e8565b611801565b604051908152f35b346101e55760203660031901126101e5576020610ad5600435611837565b6040516001600160a01b039091168152f35b346101e55760003660031901126101e557602060ff600a54166040519015158152f35b346101e557610b18366114c3565b610b2061185a565b805167ffffffffffffffff811161098e57610b3c600c54611502565b601f8111610be4575b50602091601f8211600114610b8357918192600092610b78575b5050600019600383901b1c191660019190911b17600c55005b015190508280610b5f565b601f19821692600c600052806000209160005b858110610bcc57508360019510610bb3575b505050811b01600c55005b015160001960f88460031b161c19169055828080610ba8565b91926020600181928685015181550194019201610b96565b600c600052600080516020611c81833981519152601f830160051c81019160208410610c2d575b601f0160051c01905b818110610c215750610b45565b60008155600101610c14565b9091508190610c0b565b346101e55760203660031901126101e557600435600854811015610c6f57610c606020916117d0565b90549060031b1c604051908152f35b63295f44f760e21b600052600060045260245260446000fd5b346101e55760203660031901126101e557610704336004356119cd565b346101e557610704610cb636611414565b9060405192610cc660208561144e565b600084526106fe83838361153c565b346101e55760203660031901126101e557610cee6113e8565b610cf661185a565b6001600b540180600b5560209060405190610d11838361144e565b600082526001600160a01b03841693841561101d576000610d30611c63565b8281526002855260408120546001600160a01b031680158015929083610ffc575b8882526003885260408083208054600101905586835260028952822080546001600160a01b0319168a179055858984600080516020611ca18339815191528580a415610f86576008548582526009885260408220819055600160401b811015610f725785610dc8826001610de194016008556117d0565b90919082549060031b91821b91600019901b1916179055565b878203610f22575b5050610f0c573b610df657005b610e319183916040519384928392630a85bd0160e11b84523360048501526000602485015260448401526080606484015260848301906113c3565b03816000875af18091600091610ec7575b5090610e9857503d15610e91573d610e5981611470565b90610e67604051928361144e565b81523d60008383013e5b80519182610e8e5783633250574960e11b60005260045260246000fd5b01fd5b6060610e71565b6001600160e01b03191663757a42ff60e11b019050610eb357005b633250574960e11b60005260045260246000fd5b8381813d8311610f05575b610edc818361144e565b81010312610f015751906001600160e01b031982168203610efe575084610e42565b80fd5b5080fd5b503d610ed2565b6339e3563760e11b600052600060045260246000fd5b610f2b84611801565b600019810191908211610f5e57808960409252600689528181208382528952868282205586815260078952205587610de9565b634e487b7160e01b81526011600452602490fd5b634e487b7160e01b82526041600452602482fd5b818814610de157610f9682611801565b85825260078852604082205490838352600689526040832091818103610fd4575b508683526007895282604081205582528752806040812055610de1565b818452828a526040842054818552838b52806040862055845260078a5260408420558a610fb7565b611005866119af565b82825260038852604082208054600019019055610d51565b633250574960e11b600052600060045260246000fd5b346101e55760003660031901126101e55761104c61185a565b600a5460ff81161561108b5760ff1916600a557f5db9ee0a495bf2e6ff9c91a7834c1ba4fdd244a5e8aa4e537bd38aeae4b073aa6020604051338152a1005b638dfc202b60e01b60005260046000fd5b346101e55760403660031901126101e5576110b56113e8565b602435906110c281611801565b8210156110f55760018060a01b031660005260066020526040600020906000526020526020604060002054604051908152f35b63295f44f760e21b60005260018060a01b031660045260245260446000fd5b346101e55761070461112536611414565b9161153c565b346101e55760003660031901126101e5576020600854604051908152f35b346101e55760403660031901126101e5576111626113e8565b60243561116e81611837565b33151580611225575b806111f7575b6111e25781906001600160a01b0384811691167f8c5be1e5ebec7d5bd14f71427d1e84f3dd0314c0f7b2291e5b200ac8c7c3b925600080a4600090815260046020526040902080546001600160a01b0319166001600160a01b03909216919091179055005b63a9fbf51f60e01b6000523360045260246000fd5b506001600160a01b038116600090815260056020908152604080832033845290915290205460ff161561117d565b506001600160a01b038116331415611177565b346101e55760203660031901126101e55760043561125581611837565b506000526004602052602060018060a01b0360406000205416604051908152f35b346101e55760003660031901126101e5576040516000805461129781611502565b808452906001811690811561030657506001146112be576102a38361028f8185038261144e565b60008080527f290decd9548b62a8d60345a988386fc84ba6bc95484008f6362f93160ef3e563939250905b8082106113015750909150810160200161028f61027f565b9192600181602092548385880101520191019092916112e9565b346101e55760203660031901126101e5576004359063ffffffff60e01b82168092036101e55760209163780e9d6360e01b811490811561135d575b5015158152f35b6380ac58cd60e01b81149150811561138f575b811561137e575b5083611356565b6301ffc9a760e01b14905083611377565b635b5e139f60e01b81149150611370565b60005b8381106113b35750506000910152565b81810151838201526020016113a3565b906020916113dc815180928185528580860191016113a0565b601f01601f1916010190565b600435906001600160a01b03821682036101e557565b602435906001600160a01b03821682036101e557565b60609060031901126101e5576004356001600160a01b03811681036101e557906024356001600160a01b03811681036101e5579060443590565b90601f8019910116810190811067ffffffffffffffff82111761098e57604052565b67ffffffffffffffff811161098e57601f01601f191660200190565b92919261149882611470565b916114a6604051938461144e565b8294818452818301116101e5578281602093846000960137010152565b60206003198201126101e5576004359067ffffffffffffffff82116101e557806023830112156101e5578160246114ff9360040135910161148c565b90565b90600182811c92168015611532575b602083101461151c57565b634e487b7160e01b600052602260045260246000fd5b91607f1691611511565b9091906001600160a01b038316801561101d576000611559611c63565b838152600260205260408120546001600160a01b03169433151580611741575b508515801561171f575b838352600360209081526040808520805460010190558785526002909152832080546001600160a01b03191685179055858488600080516020611ca18339815191528680a4156116a257600854858352600960205260408320819055600160401b81101561168e5785610dc88260016115ff94016008556117d0565b828603611639575b5050506001600160a01b031680830361161f57505050565b6364283d7b60e01b60005260045260245260445260646000fd5b61164290611801565b60001981019290831161167a579060409181526006602052818120838252602052848282205584815260076020522055388080611607565b634e487b7160e01b82526011600452602482fd5b634e487b7160e01b83526041600452602483fd5b8583146115ff576116b286611801565b8583526007602052604083205490878452600660205260408420918181036116f4575b50868452600760205283604081205583526020528160408120556115ff565b81855282602052604085205481865283602052806040872055855260076020526040852055386116d5565b611728866119af565b8683526003602052604083208054600019019055611583565b80611781575b156117525738611579565b84828761176b57602491637e27328960e01b8252600452fd5b60449163177e802f60e01b825233600452602452fd5b5033861480156117af575b806117475750848252600460205260408220546001600160a01b03163314611747565b5085825260056020908152604080842033855290915282205460ff1661178c565b6008548110156117eb57600860005260206000200190600090565b634e487b7160e01b600052603260045260246000fd5b6001600160a01b0316801561182157600052600360205260406000205490565b6322718ad960e21b600052600060045260246000fd5b6000818152600260205260409020546001600160a01b0316908115610684575090565b600a5460081c6001600160a01b0316330361187157565b63118cdaa760e01b6000523360045260246000fd5b823b611894575b5050505050565b604051630a85bd0160e11b81526001600160a01b0391821660048201529181166024830152604482019390935260806064820152911691602090829081906118e09060848301906113c3565b03816000865af1809160009161196c575b509061194a57503d15611943573d61190881611470565b90611916604051928361144e565b81523d6000602083013e5b8051908161193e5782633250574960e11b60005260045260246000fd5b602001fd5b6060611921565b6001600160e01b03191663757a42ff60e11b01610eb35750388080808061188d565b6020813d6020116119a7575b816119856020938361144e565b81010312610f015751906001600160e01b031982168203610efe5750386118f1565b3d9150611978565b600090815260046020526040902080546001600160a01b0319169055565b6119d5611c63565b6000818152600260205260409020546001600160a01b03908116921680151580611bcd575b5050811580159081611ba9575b600083815260026020526040812080546001600160a01b0319169055839085600080516020611ca18339815191528280a415611b20575060085481600052600960205280604060002055600160401b81101561098e5781610dc8826001611a7194016008556117d0565b6008546000198101908111611b0a57816000526009602052611a98604060002054916117d0565b90549060031b1c611aac81610dc8846117d0565b60005260096020526040600020556000526009602052600060408120556008548015611af45760001901611adf816117d0565b8154906000199060031b1b1916905560085590565b634e487b7160e01b600052603160045260246000fd5b634e487b7160e01b600052601160045260246000fd5b15611a7157611b2e82611801565b81600052600760205260406000205490836000526006602052604060002091818103611b78575b508260005260076020526000604081205560005260205260006040812055611a71565b8160005282602052604060002054816000528360205280604060002055600052600760205260406000205538611b55565b611bb2836119af565b83600052600360205260406000206000198154019055611a07565b80611c0f575b15611bde57806119fa565b82611bf85750637e27328960e01b60005260045260246000fd5b63177e802f60e01b60005260045260245260446000fd5b508083148015611c3f575b80611bd357506000828152600460205260409020546001600160a01b03168114611bd3565b5082600052600560205260406000208160005260205260ff60406000205416611c1a565b60ff600a5416611c6f57565b63d93c066560e01b60005260046000fdfedf6966c971051c3d54ec59162606531493a51404a002842f56009d7e5cf4a8c7ddf252ad1be2c89b69c2b068fc378daa952ba7f163c4a11628f55a4df523b3efa2646970667358221220cdb5f5883e6c8257bb63dfdebc4e532f299d033ebed23ce2930d7940627fdfa164736f6c634300081c0033",
  "linkReferences": {},
  "deployedLinkReferences": {}
}