{
  "_format": "hh-sol-artifact-1",
  "contractName": "Slash",
  "sourceName": "contracts/Slash.sol",
  "abi": [
    {
      "inputs": [],
      "name": "AccessControlBadConfirmation",
      "type": "error"
    },
    {
      "inputs": [
        {
          "internalType": "address",
          "name": "account",
          "type": "address"
        },
        {
          "internalType": "bytes32",
          "name": "neededRole",
          "type": "bytes32"
        }
      ],
      "name": "AccessControlUnauthorizedAccount",
      "type": "error"
    },
    {
      "inputs": [],
      "name": "InvalidInitialization",
      "type": "error"
    },
    {
      "inputs": [],
      "name": "NotIdleness",
      "type": "error"
    },
    {
      "inputs": [],
      "name": "NotInitializing",
      "type": "error"
    },
    {
      "inputs": [],
      "name": "NotStaking",
      "type": "error"
    },
    {
      "inputs": [
        {
          "internalType": "address",
          "name": "owner",
          "type": "address"
        }
      ],
      "name": "OwnableInvalidOwner",
      "type": "error"
    },
    {
      "inputs": [
        {
          "internalType": "address",
          "name": "account",
          "type": "address"
        }
      ],
      "name": "OwnableUnauthorizedAccount",
      "type": "error"
    },
    {
      "inputs": [],
      "name": "ReentrancyGuardReentrantCall",
      "type": "error"
    },
    {
      "inputs": [],
      "name": "SlashPercentageTooHigh",
      "type": "error"
    },
    {
      "anonymous": false,
      "inputs": [
        {
          "indexed": false,
          "internalType": "uint64",
          "name": "version",
          "type": "uint64"
        }
      ],
      "name": "Initialized",
      "type": "event"
    },
    {
      "anonymous": false,
      "inputs": [
        {
          "indexed": true,
          "internalType": "address",
          "name": "previousOwner",
          "type": "address"
        },
        {
          "indexed": true,
          "internalType": "address",
          "name": "newOwner",
          "type": "address"
        }
      ],
      "name": "OwnershipTransferStarted",
      "type": "event"
    },
    {
      "anonymous": false,
      "inputs": [
        {
          "indexed": true,
          "internalType": "address",
          "name": "previousOwner",
          "type": "address"
        },
        {
          "indexed": true,
          "internalType": "address",
          "name": "newOwner",
          "type": "address"
        }
      ],
      "name": "OwnershipTransferred",
      "type": "event"
    },
    {
      "anonymous": false,
      "inputs": [
        {
          "indexed": true,
          "internalType": "bytes32",
          "name": "role",
          "type": "bytes32"
        },
        {
          "indexed": true,
          "internalType": "bytes32",
          "name": "previousAdminRole",
          "type": "bytes32"
        },
        {
          "indexed": true,
          "internalType": "bytes32",
          "name": "newAdminRole",
          "type": "bytes32"
        }
      ],
      "name": "RoleAdminChanged",
      "type": "event"
    },
    {
      "anonymous": false,
      "inputs": [
        {
          "indexed": true,
          "internalType": "bytes32",
          "name": "role",
          "type": "bytes32"
        },
        {
          "indexed": true,
          "internalType": "address",
          "name": "account",
          "type": "address"
        },
        {
          "indexed": true,
          "internalType": "address",
          "name": "sender",
          "type": "address"
        }
      ],
      "name": "RoleGranted",
      "type": "event"
    },
    {
      "anonymous": false,
      "inputs": [
        {
          "indexed": true,
          "internalType": "bytes32",
          "name": "role",
          "type": "bytes32"
        },
        {
          "indexed": true,
          "internalType": "address",
          "name": "account",
          "type": "address"
        },
        {
          "indexed": true,
          "internalType": "address",
          "name": "sender",
          "type": "address"
        }
      ],
      "name": "RoleRevoked",
      "type": "event"
    },
    {
      "anonymous": false,
      "inputs": [
        {
          "indexed": true,
          "internalType": "address",
          "name": "validator",
          "type": "address"
        },
        {
          "indexed": false,
          "internalType": "uint256",
          "name": "epoch",
          "type": "uint256"
        }
      ],
      "name": "SlashEnacted",
      "type": "event"
    },
    {
      "anonymous": false,
      "inputs": [
        {
          "indexed": false,
          "internalType": "uint256",
          "name": "delay",
          "type": "uint256"
        }
      ],
      "name": "SlashGovernanceDelaySet",
      "type": "event"
    },
    {
      "anonymous": false,
      "inputs": [
        {
          "components": [
            {
              "internalType": "uint256",
              "name": "idleness",
              "type": "uint256"
            },
            {
              "internalType": "uint256",
              "name": "deterministicViolationValidator",
              "type": "uint256"
            },
            {
              "internalType": "uint256",
              "name": "deterministicViolationLeader",
              "type": "uint256"
            },
            {
              "internalType": "uint256",
              "name": "maxPerEpoch",
              "type": "uint256"
            }
          ],
          "indexed": false,
          "internalType": "struct ISlash.SlashPercentages",
          "name": "",
          "type": "tuple"
        }
      ],
      "name": "SlashPercentagesSet",
      "type": "event"
    },
    {
      "anonymous": false,
      "inputs": [
        {
          "indexed": true,
          "internalType": "address",
          "name": "validator",
          "type": "address"
        },
        {
          "indexed": false,
          "internalType": "bytes32",
          "name": "txId",
          "type": "bytes32"
        },
        {
          "indexed": false,
          "internalType": "uint256",
          "name": "epoch",
          "type": "uint256"
        },
        {
          "indexed": false,
          "internalType": "uint256",
          "name": "percentage",
          "type": "uint256"
        },
        {
          "indexed": false,
          "internalType": "enum ITransactions.TransactionStatus",
          "name": "txStatus",
          "type": "uint8"
        }
      ],
      "name": "SlashedFromIdleness",
      "type": "event"
    },
    {
      "inputs": [],
      "name": "DEFAULT_ADMIN_ROLE",
      "outputs": [
        {
          "internalType": "bytes32",
          "name": "",
          "type": "bytes32"
        }
      ],
      "stateMutability": "view",
      "type": "function"
    },
    {
      "inputs": [],
      "name": "PRECISION",
      "outputs": [
        {
          "internalType": "uint256",
          "name": "",
          "type": "uint256"
        }
      ],
      "stateMutability": "view",
      "type": "function"
    },
    {
      "inputs": [],
      "name": "acceptOwnership",
      "outputs": [],
      "stateMutability": "nonpayable",
      "type": "function"
    },
    {
      "inputs": [],
      "name": "addressManager",
      "outputs": [
        {
          "internalType": "contract IAddressManager",
          "name": "",
          "type": "address"
        }
      ],
      "stateMutability": "view",
      "type": "function"
    },
    {
      "inputs": [],
      "name": "delay",
      "outputs": [
        {
          "internalType": "uint256",
          "name": "",
          "type": "uint256"
        }
      ],
      "stateMutability": "view",
      "type": "function"
    },
    {
      "inputs": [],
      "name": "delayInEpochs",
      "outputs": [
        {
          "internalType": "uint256",
          "name": "",
          "type": "uint256"
        }
      ],
      "stateMutability": "view",
      "type": "function"
    },
    {
      "inputs": [
        {
          "internalType": "address",
          "name": "_validator",
          "type": "address"
        }
      ],
      "name": "enactSlash",
      "outputs": [
        {
          "internalType": "uint256[]",
          "name": "epochs",
          "type": "uint256[]"
        },
        {
          "internalType": "uint256[]",
          "name": "percentages",
          "type": "uint256[]"
        }
      ],
      "stateMutability": "nonpayable",
      "type": "function"
    },
    {
      "inputs": [
        {
          "internalType": "bytes32",
          "name": "role",
          "type": "bytes32"
        }
      ],
      "name": "getRoleAdmin",
      "outputs": [
        {
          "internalType": "bytes32",
          "name": "",
          "type": "bytes32"
        }
      ],
      "stateMutability": "view",
      "type": "function"
    },
    {
      "inputs": [
        {
          "internalType": "address",
          "name": "_validator",
          "type": "address"
        }
      ],
      "name": "getSlashesPending",
      "outputs": [
        {
          "internalType": "uint256[]",
          "name": "epochs",
          "type": "uint256[]"
        },
        {
          "internalType": "uint256[]",
          "name": "percentages",
          "type": "uint256[]"
        }
      ],
      "stateMutability": "view",
      "type": "function"
    },
    {
      "inputs": [
        {
          "internalType": "bytes32",
          "name": "role",
          "type": "bytes32"
        },
        {
          "internalType": "address",
          "name": "account",
          "type": "address"
        }
      ],
      "name": "grantRole",
      "outputs": [],
      "stateMutability": "nonpayable",
      "type": "function"
    },
    {
      "inputs": [
        {
          "internalType": "bytes32",
          "name": "role",
          "type": "bytes32"
        },
        {
          "internalType": "address",
          "name": "account",
          "type": "address"
        }
      ],
      "name": "hasRole",
      "outputs": [
        {
          "internalType": "bool",
          "name": "",
          "type": "bool"
        }
      ],
      "stateMutability": "view",
      "type": "function"
    },
    {
      "inputs": [
        {
          "internalType": "bytes32",
          "name": "txId",
          "type": "bytes32"
        }
      ],
      "name": "idlenessData",
      "outputs": [
        {
          "internalType": "uint256",
          "name": "epoch",
          "type": "uint256"
        },
        {
          "internalType": "uint256",
          "name": "timestamp",
          "type": "uint256"
        }
      ],
      "stateMutability": "view",
      "type": "function"
    },
    {
      "inputs": [
        {
          "internalType": "address",
          "name": "_validator",
          "type": "address"
        },
        {
          "internalType": "bytes32",
          "name": "_txId",
          "type": "bytes32"
        },
        {
          "internalType": "enum ITransactions.TransactionStatus",
          "name": "_txStatus",
          "type": "uint8"
        }
      ],
      "name": "idlenessSlash",
      "outputs": [],
      "stateMutability": "nonpayable",
      "type": "function"
    },
    {
      "inputs": [
        {
          "internalType": "address[]",
          "name": "_validators",
          "type": "address[]"
        },
        {
          "internalType": "bytes32",
          "name": "_txId",
          "type": "bytes32"
        },
        {
          "internalType": "enum ITransactions.TransactionStatus",
          "name": "_txStatus",
          "type": "uint8"
        }
      ],
      "name": "idlenessSlashBatch",
      "outputs": [],
      "stateMutability": "nonpayable",
      "type": "function"
    },
    {
      "inputs": [
        {
          "internalType": "address",
          "name": "_addressManager",
          "type": "address"
        }
      ],
      "name": "initialize",
      "outputs": [],
      "stateMutability": "nonpayable",
      "type": "function"
    },
    {
      "inputs": [
        {
          "internalType": "address",
          "name": "validator",
          "type": "address"
        }
      ],
      "name": "lastEnactedEpoch",
      "outputs": [
        {
          "internalType": "uint256",
          "name": "epoch",
          "type": "uint256"
        }
      ],
      "stateMutability": "view",
      "type": "function"
    },
    {
      "inputs": [],
      "name": "maxSlashPercentagePerEpoch",
      "outputs": [
        {
          "internalType": "uint256",
          "name": "",
          "type": "uint256"
        }
      ],
      "stateMutability": "view",
      "type": "function"
    },
    {
      "inputs": [],
      "name": "owner",
      "outputs": [
        {
          "internalType": "address",
          "name": "",
          "type": "address"
        }
      ],
      "stateMutability": "view",
      "type": "function"
    },
    {
      "inputs": [],
      "name": "pendingOwner",
      "outputs": [
        {
          "internalType": "address",
          "name": "",
          "type": "address"
        }
      ],
      "stateMutability": "view",
      "type": "function"
    },
    {
      "inputs": [],
      "name": "renounceOwnership",
      "outputs": [],
      "stateMutability": "nonpayable",
      "type": "function"
    },
    {
      "inputs": [
        {
          "internalType": "bytes32",
          "name": "role",
          "type": "bytes32"
        },
        {
          "internalType": "address",
          "name": "callerConfirmation",
          "type": "address"
        }
      ],
      "name": "renounceRole",
      "outputs": [],
      "stateMutability": "nonpayable",
      "type": "function"
    },
    {
      "inputs": [
        {
          "internalType": "bytes32",
          "name": "role",
          "type": "bytes32"
        },
        {
          "internalType": "address",
          "name": "account",
          "type": "address"
        }
      ],
      "name": "revokeRole",
      "outputs": [],
      "stateMutability": "nonpayable",
      "type": "function"
    },
    {
      "inputs": [
        {
          "internalType": "address",
          "name": "_addressManager",
          "type": "address"
        }
      ],
      "name": "setAddressManager",
      "outputs": [],
      "stateMutability": "nonpayable",
      "type": "function"
    },
    {
      "inputs": [
        {
          "internalType": "uint256",
          "name": "_delayInEpochs",
          "type": "uint256"
        }
      ],
      "name": "setDelayInEpochs",
      "outputs": [],
      "stateMutability": "nonpayable",
      "type": "function"
    },
    {
      "inputs": [
        {
          "internalType": "uint256",
          "name": "_idleness",
          "type": "uint256"
        },
        {
          "internalType": "uint256",
          "name": "_deterministicViolationValidator",
          "type": "uint256"
        },
        {
          "internalType": "uint256",
          "name": "_deterministicViolationLeader",
          "type": "uint256"
        },
        {
          "internalType": "uint256",
          "name": "_maxPerEpoch",
          "type": "uint256"
        }
      ],
      "name": "setSlashPercentages",
      "outputs": [],
      "stateMutability": "nonpayable",
      "type": "function"
    },
    {
      "inputs": [
        {
          "internalType": "address",
          "name": "validator",
          "type": "address"
        },
        {
          "internalType": "uint256",
          "name": "epoch",
          "type": "uint256"
        }
      ],
      "name": "slashPerValidator",
      "outputs": [
        {
          "internalType": "uint256",
          "name": "percentages",
          "type": "uint256"
        }
      ],
      "stateMutability": "view",
      "type": "function"
    },
    {
      "inputs": [],
      "name": "slashPercentages",
      "outputs": [
        {
          "internalType": "uint256",
          "name": "idleness",
          "type": "uint256"
        },
        {
          "internalType": "uint256",
          "name": "deterministicViolationValidator",
          "type": "uint256"
        },
        {
          "internalType": "uint256",
          "name": "deterministicViolationLeader",
          "type": "uint256"
        },
        {
          "internalType": "uint256",
          "name": "maxPerEpoch",
          "type": "uint256"
        }
      ],
      "stateMutability": "view",
      "type": "function"
    },
    {
      "inputs": [
        {
          "internalType": "bytes4",
          "name": "interfaceId",
          "type": "bytes4"
        }
      ],
      "name": "supportsInterface",
      "outputs": [
        {
          "internalType": "bool",
          "name": "",
          "type": "bool"
        }
      ],
      "stateMutability": "view",
      "type": "function"
    },
    {
      "inputs": [
        {
          "internalType": "address",
          "name": "newOwner",
          "type": "address"
        }
      ],
      "name": "transferOwnership",
      "outputs": [],
      "stateMutability": "nonpayable",
      "type": "function"
    }
  ],
  "bytecode": "0x60808060405234601557611a15908161001b8239f35b600080fdfe608080604052600436101561001357600080fd5b60003560e01c90816301ffc9a714610d5d57508063061608e214610d285780630652b57a14610ce55780630ef4f25314610cc45780631e7d3f1014610a47578063248a9ca314610c9e5780632c57e6ce14610b3f5780632f2ff15d14610b0e57806336568abe14610ac85780633ab76e9f14610a9f57806345da27d314610a655780636a42b8f814610a47578063715018a6146109c657806379ba5097146109765780638da5cb5b1461094057806391d14854146108e6578063a217fddf146108ca578063a95c74e514610775578063aaf5eb6814610758578063b81aa85014610710578063be4e6e6f14610647578063c0b604c814610597578063c4d66de81461038f578063ce92074814610358578063d547741f14610320578063e30c3978146102ea578063e53c554714610208578063f2fde38b146101815763fd63dec31461015e57600080fd5b3461017c57600036600319011261017c576020600454604051908152f35b600080fd5b3461017c57602036600319011261017c5761019a610db0565b6101a2610f06565b6000805160206119c083398151915280546001600160a01b0319166001600160a01b03928316908117909155600080516020611960833981519152549091167f38d16b8cac22d99fc7c124b9cd0de2d3fa1faef420bfe791d8c362d765e22700600080a3005b3461017c57608036600319011261017c5760443560243560043560643561022d610f06565b612710821180156102df575b80156102d4575b80156102c9575b6102b8577f30e87f676daeb79824b16beb1020dbbe956c801d69938403de7fa676aab797a99360809382606060405161027f81610e38565b868152836020820152846040820152015283600155806002558160035582600455604051938452602084015260408301526060820152a1005b6303b7d45560e21b60005260046000fd5b506127108111610247565b506127108411610240565b506127108311610239565b3461017c57600036600319011261017c576000805160206119c0833981519152546040516001600160a01b039091168152602090f35b3461017c57604036600319011261017c5761035660043561033f610dc6565b9061035161034c82610ea1565b6115fd565b6116f0565b005b3461017c57600036600319011261017c57608060015460025460035460045491604051938452602084015260408301526060820152f35b3461017c57602036600319011261017c576103a8610db0565b6000805160206119a0833981519152549060ff8260401c1615916001600160401b0381168015908161058f575b6001149081610585575b15908161057c575b5061056b5767ffffffffffffffff1981166001176000805160206119a0833981519152558261053e575b5061041a611931565b610422611931565b61042a611931565b33156105285761043933611790565b610441611931565b610449611931565b60017f9b779b17422d0df92223018b32b4d1fa46e071723d6817e2486d003becc55f0055610475611931565b60018060a01b031660018060a01b0319600854161760085560026000556103e860606040516104a381610e38565b60648152606460208201526101f460408201520152606460015560646002556101f46003556103e86004556104d457005b60ff60401b196000805160206119a083398151915254166000805160206119a0833981519152557fc7f505b2f371ae2175ee4913f4499e1f2633a7b5936321eed1cdaeb6115181d2602060405160018152a1005b631e4fbdf760e01b600052600060045260246000fd5b68ffffffffffffffffff191668010000000000000001176000805160206119a08339815191525582610411565b63f92ee8a960e01b60005260046000fd5b905015846103e7565b303b1591506103df565b8491506103d5565b3461017c57602036600319011261017c5760046105b2610db0565b60206001600160a01b036105c4610f3b565b166040519384809263900cf0cf60e01b82525afa90811561063b57600091610605575b6105f19250611016565b9061060160405192839283610e10565b0390f35b90506020823d602011610633575b8161062060209383610e69565b8101031261017c576105f19151906105e7565b3d9150610613565b6040513d6000823e3d90fd5b3461017c57606036600319011261017c57610660610db0565b604435600f81101561017c576001600160a01b0361067c6117fe565b1633036106ff5760049160206001600160a01b03610698610f3b565b166040519485809263900cf0cf60e01b82525afa90811561063b576000916106c9575b610356935060243590611884565b90506020833d6020116106f7575b816106e460209383610e69565b8101031261017c576103569251906106bb565b3d91506106d7565b6343c7b40b60e11b60005260046000fd5b3461017c57604036600319011261017c576001600160a01b03610731610db0565b16600052600660205260406000206024356000526020526020604060002054604051908152f35b3461017c57600036600319011261017c5760206040516127108152f35b3461017c57606036600319011261017c576004356001600160401b03811161017c573660238201121561017c5780600401356107b081610e8a565b916107be6040519384610e69565b8183526024602084019260051b8201019036821161017c57602401915b8183106108aa5760243560443585600f82101561017c576001600160a01b036108026117fe565b1633036106ff5760049160206001600160a01b0361081e610f3b565b166040519485809263900cf0cf60e01b82525afa92831561063b57600093610876575b5060005b8251811015610356576001906108708386886001600160a01b03610869868a610edc565b5116611884565b01610845565b9092506020813d6020116108a2575b8161089260209383610e69565b8101031261017c57519184610841565b3d9150610885565b82356001600160a01b038116810361017c578152602092830192016107db565b3461017c57600036600319011261017c57602060405160008152f35b3461017c57604036600319011261017c576108ff610dc6565b60043560005260008051602061198083398151915260205260406000209060018060a01b0316600052602052602060ff604060002054166040519015158152f35b3461017c57600036600319011261017c57600080516020611960833981519152546040516001600160a01b039091168152602090f35b3461017c57600036600319011261017c576000805160206119c083398151915254336001600160a01b03909116036109b15761035633611790565b63118cdaa760e01b6000523360045260246000fd5b3461017c57600036600319011261017c576109df610f06565b6000805160206119c083398151915280546001600160a01b0319908116909155600080516020611960833981519152805491821690556000906001600160a01b03167f8be0079c531659141344cd1fd0a4f28419497f9722a3daafe3b4186f6b6457e08280a3005b3461017c57600036600319011261017c576020600054604051908152f35b3461017c57602036600319011261017c576001600160a01b03610a86610db0565b1660005260056020526020604060002054604051908152f35b3461017c57600036600319011261017c576008546040516001600160a01b039091168152602090f35b3461017c57604036600319011261017c57610ae1610dc6565b336001600160a01b03821603610afd57610356906004356116f0565b63334bd91960e11b60005260046000fd5b3461017c57604036600319011261017c57610356600435610b2d610dc6565b90610b3a61034c82610ea1565b611647565b3461017c57602036600319011261017c57610b58610db0565b6001600160a01b03610b68610f3b565b163303610c8d5760049060206001600160a01b03610b84610f3b565b166040519384809263900cf0cf60e01b82525afa91821561063b57600092610c56575b50610bb28282611016565b92909160005480831015610c07575b506040519182526001600160a01b0316907fce0fb8cdb70dc98c87f1cc721bf4c7457c107596f205b8e742fcd57e2a64865c90602090a261060160405192839283610e10565b610c119083610ec2565b60018101809111610c40576001600160a01b038216600090815260056020908152604090912091909155610bc1565b634e487b7160e01b600052601160045260246000fd5b90916020823d602011610c85575b81610c7160209383610e69565b81010312610c825750519082610ba7565b80fd5b3d9150610c64565b634487f62960e11b60005260046000fd5b3461017c57602036600319011261017c576020610cbc600435610ea1565b604051908152f35b3461017c57602036600319011261017c57610cdd610f06565b600435600055005b3461017c57602036600319011261017c57610cfe610db0565b610d06610f06565b600880546001600160a01b0319166001600160a01b0392909216919091179055005b3461017c57602036600319011261017c5760043560005260076020526040806000206001815491015482519182526020820152f35b3461017c57602036600319011261017c576004359063ffffffff60e01b821680920361017c57602091637965db0b60e01b8114908115610d9f575b5015158152f35b6301ffc9a760e01b14905083610d98565b600435906001600160a01b038216820361017c57565b602435906001600160a01b038216820361017c57565b906020808351928381520192019060005b818110610dfa5750505090565b8251845260209384019390920191600101610ded565b9091610e27610e3593604084526040840190610ddc565b916020818403910152610ddc565b90565b608081019081106001600160401b03821117610e5357604052565b634e487b7160e01b600052604160045260246000fd5b90601f801991011681019081106001600160401b03821117610e5357604052565b6001600160401b038111610e535760051b60200190565b60005260008051602061198083398151915260205260016040600020015490565b91908203918211610c4057565b91908201809211610c4057565b8051821015610ef05760209160051b010190565b634e487b7160e01b600052603260045260246000fd5b600080516020611960833981519152546001600160a01b031633036109b157565b51906001600160a01b038216820361017c57565b600854604051631bae711d60e21b815260206004820181905260076024830152665374616b696e6760c81b60448301529091829060649082906001600160a01b03165afa90811561063b57600091610f9b575b506001600160a01b031690565b90506020813d602011610fcd575b81610fb660209383610e69565b8101031261017c57610fc790610f27565b38610f8e565b3d9150610fa9565b90610fdf82610e8a565b610fec6040519182610e69565b8281528092610ffd601f1991610e8a565b0190602036910137565b6000198114610c405760010190565b60018060a01b03169182600052600560205260406000205491600054908181106115e8579061104491610ec2565b8083116115af576110558382610ec2565b9360018501809511610c405790600061107661107087610fd5565b96610fd5565b949260018060a01b0360085416935b83811115611094575050505050565b6000604051631bae711d60e21b815260206004820152600e60248201526d151c9a589d5b985b105c1c19585b60921b60448201526020816064818a5afa90811561063b57600091611576575b50604051638900c8e360e01b8152600481018490526001600160a01b039190911690600081602481855afa90811561063b5760009161149d575b5080519060005b8281106111a757505050506111519083600052600660205260406000208360005260205260406000205490610ecf565b80611166575b5061116190611007565b611085565b83611199918361117a61116195978d610edc565b5260045490818111156111a057505b611193828b610edc565b52611007565b9290611157565b9050611189565b6111b18183610edc565b515160206111bf8385610edc565b5101519060405190630ebad2a160e01b82528060048301528260248301526101c0826044818a5afa91821561063b57600092611359575b506002606083015161120781611927565b61121081611927565b0361134e576101608201519260048410156113385760036000940361132c576040519163c8bc654360e01b8352600483015260248201528960448201526020816064818a5afa90811561132157908a929184916112de575b5061127281611927565b80159081156112ca575b5061128f575b5050506001905b01611121565b60a0015192966001936112b8935090916001600160a01b03909116036112c15760035490610ecf565b94908738611282565b60025490610ecf565b600191506112d781611927565b143861127c565b919250506020813d8211611319575b816112fa60209383610e69565b81010312611315575160038110156113155790899138611268565b8280fd5b3d91506112ed565b6040513d85823e3d90fd5b50505050600190611289565b634e487b7160e01b600052602160045260246000fd5b505050600190611289565b9091816101c03d8111611496575b6113718183610e69565b810103916101c0831261148e576040519261018084018481106001600160401b0382111761147a5760405281518452602082015160208501526040820151604085015260608201516003811015611492579060609182860152607f19011261148e57604051606081018181106001600160401b0382111761147a57906101a092916040526080820151815260a0820151602082015260c08201516040820152608085015261142160e08201610f27565b60a085015261010081015160c085015261012081015160e08501526101408101516101008501526101608101516101208501526101808101516101408501520151906004821015610c82575061016082015290386111f6565b634e487b7160e01b84526041600452602484fd5b5080fd5b8380fd5b503d611367565b903d8082843e6114ad8184610e69565b82019160208184031261148e578051906001600160401b038211611315570182601f8201121561148e578051916114e383610e8a565b936114f16040519586610e69565b83855260208086019460061b8401019281841161131557602001935b83851061151f5750505050503861111a565b60408583031261131557604051604081018181106001600160401b038211176115625791602091604093845287518152828801518382015281520194019361150d565b634e487b7160e01b85526041600452602485fd5b906020823d82116115a7575b8161158f60209383610e69565b81010312610c8257506115a190610f27565b386110e0565b3d9150611582565b509150506020906040516115c38382610e69565b600081526000368137604051926115da8185610e69565b600084525060003681379190565b50509150506020906040516115c38382610e69565b60008181526000805160206119808339815191526020908152604080832033845290915290205460ff161561162f5750565b63e2517d3f60e01b6000523360045260245260446000fd5b6000818152600080516020611980833981519152602090815260408083206001600160a01b038616845290915290205460ff166116e9576000818152600080516020611980833981519152602090815260408083206001600160a01b0395909516808452949091528120805460ff19166001179055339291907f2f8788117e7eff1d82e926ec794901d17c78024a50270940304540a733656f0d9080a4600190565b5050600090565b6000818152600080516020611980833981519152602090815260408083206001600160a01b038616845290915290205460ff16156116e9576000818152600080516020611980833981519152602090815260408083206001600160a01b0395909516808452949091528120805460ff19169055339291907ff6391f5c32d9c69d2a47ea670b442974b53935d1edc7fd64eb21e047a839171b9080a4600190565b6000805160206119c083398151915280546001600160a01b031990811690915560008051602061196083398151915280549182166001600160a01b0393841690811790915591167f8be0079c531659141344cd1fd0a4f28419497f9722a3daafe3b4186f6b6457e0600080a3565b6064602060018060a01b036008541660405192838092631bae711d60e21b8252846004830152600860248301526749646c656e65737360c01b60448301525afa90811561063b57600091611850575090565b90506020813d60201161187c575b8161186b60209383610e69565b8101031261017c57610e3590610f27565b3d915061185e565b6001600160a01b03169290918315611921576001548460005260066020526040600020826000526020526118be6040600020918254610ecf565b905582600052600760205260406000208181556001429101556001549060405193845260208401526040830152600f811015611338578160809160607f8bff456eb52695ca4babf087dfbced7da0eb81279f28380481066de4f2ebd4e1940152a2565b50505050565b6003111561133857565b60ff6000805160206119a08339815191525460401c161561194e57565b631afcd79f60e31b60005260046000fdfe9016d09d72d40fdae2fd8ceac6b6234c7706214fd39c1cd1e609a0528c19930002dd7bc7dec4dceedda775e58dd541e08a116c6c53815c0bd028192f7b626800f0c57e16840df040f15088dc2f81fe391c3923bec73e23a9662efc9c229c6a00237e158222e3e6968b72b9db0d8043aacf074ad9f650f0d1606b4d82ee432c00a2646970667358221220fa9f0602f3564814bd09d639131f978bf172ce7dddf7b7888a76709ba0d1565d64736f6c634300081c0033",
  "linkReferences": {},
  "deployedLinkReferences": {}
}