{
  "_format": "hh-sol-artifact-1",
  "contractName": "FeesProcessor",
  "sourceName": "contracts/fees/FeesProcessor.sol",
  "abi": [
    {
      "inputs": [],
      "name": "AccessControlBadConfirmation",
      "type": "error"
    },
    {
      "inputs": [
        {
          "internalType": "address",
          "name": "account",
          "type": "address"
        },
        {
          "internalType": "bytes32",
          "name": "neededRole",
          "type": "bytes32"
        }
      ],
      "name": "AccessControlUnauthorizedAccount",
      "type": "error"
    },
    {
      "inputs": [],
      "name": "InvalidInitialization",
      "type": "error"
    },
    {
      "inputs": [],
      "name": "NotInitializing",
      "type": "error"
    },
    {
      "inputs": [],
      "name": "OnlyFeeManager",
      "type": "error"
    },
    {
      "inputs": [
        {
          "internalType": "address",
          "name": "owner",
          "type": "address"
        }
      ],
      "name": "OwnableInvalidOwner",
      "type": "error"
    },
    {
      "inputs": [
        {
          "internalType": "address",
          "name": "account",
          "type": "address"
        }
      ],
      "name": "OwnableUnauthorizedAccount",
      "type": "error"
    },
    {
      "inputs": [],
      "name": "ReentrancyGuardReentrantCall",
      "type": "error"
    },
    {
      "anonymous": false,
      "inputs": [
        {
          "indexed": false,
          "internalType": "uint64",
          "name": "version",
          "type": "uint64"
        }
      ],
      "name": "Initialized",
      "type": "event"
    },
    {
      "anonymous": false,
      "inputs": [
        {
          "indexed": true,
          "internalType": "address",
          "name": "previousOwner",
          "type": "address"
        },
        {
          "indexed": true,
          "internalType": "address",
          "name": "newOwner",
          "type": "address"
        }
      ],
      "name": "OwnershipTransferStarted",
      "type": "event"
    },
    {
      "anonymous": false,
      "inputs": [
        {
          "indexed": true,
          "internalType": "address",
          "name": "previousOwner",
          "type": "address"
        },
        {
          "indexed": true,
          "internalType": "address",
          "name": "newOwner",
          "type": "address"
        }
      ],
      "name": "OwnershipTransferred",
      "type": "event"
    },
    {
      "anonymous": false,
      "inputs": [
        {
          "indexed": true,
          "internalType": "bytes32",
          "name": "role",
          "type": "bytes32"
        },
        {
          "indexed": true,
          "internalType": "bytes32",
          "name": "previousAdminRole",
          "type": "bytes32"
        },
        {
          "indexed": true,
          "internalType": "bytes32",
          "name": "newAdminRole",
          "type": "bytes32"
        }
      ],
      "name": "RoleAdminChanged",
      "type": "event"
    },
    {
      "anonymous": false,
      "inputs": [
        {
          "indexed": true,
          "internalType": "bytes32",
          "name": "role",
          "type": "bytes32"
        },
        {
          "indexed": true,
          "internalType": "address",
          "name": "account",
          "type": "address"
        },
        {
          "indexed": true,
          "internalType": "address",
          "name": "sender",
          "type": "address"
        }
      ],
      "name": "RoleGranted",
      "type": "event"
    },
    {
      "anonymous": false,
      "inputs": [
        {
          "indexed": true,
          "internalType": "bytes32",
          "name": "role",
          "type": "bytes32"
        },
        {
          "indexed": true,
          "internalType": "address",
          "name": "account",
          "type": "address"
        },
        {
          "indexed": true,
          "internalType": "address",
          "name": "sender",
          "type": "address"
        }
      ],
      "name": "RoleRevoked",
      "type": "event"
    },
    {
      "inputs": [],
      "name": "DEFAULT_ADMIN_ROLE",
      "outputs": [
        {
          "internalType": "bytes32",
          "name": "",
          "type": "bytes32"
        }
      ],
      "stateMutability": "view",
      "type": "function"
    },
    {
      "inputs": [],
      "name": "acceptOwnership",
      "outputs": [],
      "stateMutability": "nonpayable",
      "type": "function"
    },
    {
      "inputs": [
        {
          "internalType": "bytes32",
          "name": "txId",
          "type": "bytes32"
        },
        {
          "internalType": "address",
          "name": "validator",
          "type": "address"
        }
      ],
      "name": "distributedFeesPerValidatorForTx",
      "outputs": [
        {
          "internalType": "uint256",
          "name": "finalFees",
          "type": "uint256"
        }
      ],
      "stateMutability": "view",
      "type": "function"
    },
    {
      "inputs": [],
      "name": "feeManager",
      "outputs": [
        {
          "internalType": "contract IFeeManager",
          "name": "",
          "type": "address"
        }
      ],
      "stateMutability": "view",
      "type": "function"
    },
    {
      "inputs": [],
      "name": "feeRecorder",
      "outputs": [
        {
          "internalType": "contract IFeesRecorder",
          "name": "",
          "type": "address"
        }
      ],
      "stateMutability": "view",
      "type": "function"
    },
    {
      "inputs": [
        {
          "internalType": "bytes32",
          "name": "txId",
          "type": "bytes32"
        },
        {
          "internalType": "uint256",
          "name": "round",
          "type": "uint256"
        }
      ],
      "name": "feesToReturnToAppealer",
      "outputs": [
        {
          "internalType": "uint256",
          "name": "totalRewards",
          "type": "uint256"
        },
        {
          "internalType": "address",
          "name": "appealerAddress",
          "type": "address"
        }
      ],
      "stateMutability": "view",
      "type": "function"
    },
    {
      "inputs": [
        {
          "internalType": "bytes32",
          "name": "txId",
          "type": "bytes32"
        }
      ],
      "name": "feesToReturnToUser",
      "outputs": [
        {
          "internalType": "uint256",
          "name": "feesAmount",
          "type": "uint256"
        }
      ],
      "stateMutability": "view",
      "type": "function"
    },
    {
      "inputs": [
        {
          "internalType": "bytes32",
          "name": "role",
          "type": "bytes32"
        }
      ],
      "name": "getRoleAdmin",
      "outputs": [
        {
          "internalType": "bytes32",
          "name": "",
          "type": "bytes32"
        }
      ],
      "stateMutability": "view",
      "type": "function"
    },
    {
      "inputs": [
        {
          "internalType": "bytes32",
          "name": "role",
          "type": "bytes32"
        },
        {
          "internalType": "address",
          "name": "account",
          "type": "address"
        }
      ],
      "name": "grantRole",
      "outputs": [],
      "stateMutability": "nonpayable",
      "type": "function"
    },
    {
      "inputs": [
        {
          "internalType": "bytes32",
          "name": "role",
          "type": "bytes32"
        },
        {
          "internalType": "address",
          "name": "account",
          "type": "address"
        }
      ],
      "name": "hasRole",
      "outputs": [
        {
          "internalType": "bool",
          "name": "",
          "type": "bool"
        }
      ],
      "stateMutability": "view",
      "type": "function"
    },
    {
      "inputs": [
        {
          "internalType": "address",
          "name": "_feeManager",
          "type": "address"
        },
        {
          "internalType": "address",
          "name": "_feeRecorder",
          "type": "address"
        }
      ],
      "name": "initialize",
      "outputs": [],
      "stateMutability": "nonpayable",
      "type": "function"
    },
    {
      "inputs": [
        {
          "internalType": "bytes32",
          "name": "txId",
          "type": "bytes32"
        }
      ],
      "name": "numOfValidatorsForDistribution",
      "outputs": [
        {
          "internalType": "uint256",
          "name": "numOfValidators",
          "type": "uint256"
        }
      ],
      "stateMutability": "view",
      "type": "function"
    },
    {
      "inputs": [],
      "name": "owner",
      "outputs": [
        {
          "internalType": "address",
          "name": "",
          "type": "address"
        }
      ],
      "stateMutability": "view",
      "type": "function"
    },
    {
      "inputs": [],
      "name": "pendingOwner",
      "outputs": [
        {
          "internalType": "address",
          "name": "",
          "type": "address"
        }
      ],
      "stateMutability": "view",
      "type": "function"
    },
    {
      "inputs": [
        {
          "internalType": "bytes32",
          "name": "_txId",
          "type": "bytes32"
        },
        {
          "internalType": "uint256",
          "name": "_startRound",
          "type": "uint256"
        },
        {
          "internalType": "uint256",
          "name": "_finalRound",
          "type": "uint256"
        },
        {
          "internalType": "uint256",
          "name": "_validatorTimeoutFees",
          "type": "uint256"
        },
        {
          "internalType": "uint256",
          "name": "_leaderTimeoutFees",
          "type": "uint256"
        }
      ],
      "name": "processFeesForTx",
      "outputs": [
        {
          "internalType": "uint256",
          "name": "amountDistributed",
          "type": "uint256"
        },
        {
          "internalType": "uint256",
          "name": "numOfValidators",
          "type": "uint256"
        }
      ],
      "stateMutability": "nonpayable",
      "type": "function"
    },
    {
      "inputs": [],
      "name": "renounceOwnership",
      "outputs": [],
      "stateMutability": "nonpayable",
      "type": "function"
    },
    {
      "inputs": [
        {
          "internalType": "bytes32",
          "name": "role",
          "type": "bytes32"
        },
        {
          "internalType": "address",
          "name": "callerConfirmation",
          "type": "address"
        }
      ],
      "name": "renounceRole",
      "outputs": [],
      "stateMutability": "nonpayable",
      "type": "function"
    },
    {
      "inputs": [
        {
          "internalType": "bytes32",
          "name": "role",
          "type": "bytes32"
        },
        {
          "internalType": "address",
          "name": "account",
          "type": "address"
        }
      ],
      "name": "revokeRole",
      "outputs": [],
      "stateMutability": "nonpayable",
      "type": "function"
    },
    {
      "inputs": [
        {
          "internalType": "address",
          "name": "_feeManager",
          "type": "address"
        },
        {
          "internalType": "address",
          "name": "_feeRecorder",
          "type": "address"
        }
      ],
      "name": "setFeeManagerAndRecorder",
      "outputs": [],
      "stateMutability": "nonpayable",
      "type": "function"
    },
    {
      "inputs": [
        {
          "internalType": "bytes4",
          "name": "interfaceId",
          "type": "bytes4"
        }
      ],
      "name": "supportsInterface",
      "outputs": [
        {
          "internalType": "bool",
          "name": "",
          "type": "bool"
        }
      ],
      "stateMutability": "view",
      "type": "function"
    },
    {
      "inputs": [
        {
          "internalType": "address",
          "name": "newOwner",
          "type": "address"
        }
      ],
      "name": "transferOwnership",
      "outputs": [],
      "stateMutability": "nonpayable",
      "type": "function"
    },
    {
      "inputs": [
        {
          "internalType": "bytes32",
          "name": "_txId",
          "type": "bytes32"
        },
        {
          "internalType": "uint256",
          "name": "_numOfValidators",
          "type": "uint256"
        }
      ],
      "name": "validatorsFinalDistribution",
      "outputs": [
        {
          "internalType": "address[]",
          "name": "validatorsToReceiveFees",
          "type": "address[]"
        },
        {
          "internalType": "uint256[]",
          "name": "validatorsToReceiveFeesAmount",
          "type": "uint256[]"
        }
      ],
      "stateMutability": "view",
      "type": "function"
    },
    {
      "inputs": [
        {
          "internalType": "uint256",
          "name": "index",
          "type": "uint256"
        }
      ],
      "name": "validatorsIndexToAddress",
      "outputs": [
        {
          "internalType": "address",
          "name": "validatorAddress",
          "type": "address"
        }
      ],
      "stateMutability": "view",
      "type": "function"
    }
  ],
  "bytecode": "0x608080604052346015576126ef908161001b8239f35b600080fdfe608080604052600436101561001357600080fd5b60003560e01c90816301ffc9a714611d6957508063166bdf5214611d3d578063248a9ca314611d175780632f2ff15d14611ce657806336568abe14611ca05780633cbf0759146108c4578063485cc955146107575780634ed97eed1461070f57806353c0f4c7146106db5780635b3f96351461057d5780635bda466f14610539578063715018a6146104b857806379ba5097146104075780638bb7dcb1146103de5780638da5cb5b146103a857806391d148541461034e578063a217fddf14610332578063d0fb020314610309578063d547741f146102d1578063dbfdb30a1461020a578063e30c3978146101d4578063e9cd2fa9146101a85763f2fde38b1461011c57600080fd5b346101a35760203660031901126101a357610135611dd2565b61013d612618565b60008051602061269a83398151915280546001600160a01b0319166001600160a01b0392831690811790915560008051602061263a833981519152549091167f38d16b8cac22d99fc7c124b9cd0de2d3fa1faef420bfe791d8c362d765e22700600080a3005b600080fd5b346101a35760203660031901126101a35760043560005260056020526020604060002054604051908152f35b346101a35760003660031901126101a35760008051602061269a833981519152546040516001600160a01b039091168152602090f35b346101a35760403660031901126101a357610223611dd2565b61022b611dbc565b90610234612618565b6001600160a01b0316801580156102c0575b61027b57600080546001600160a01b0319908116929092179055600180549091166001600160a01b0392909216919091179055005b60405162461bcd60e51b815260206004820152601b60248201527f4665657350726f636573736f723a207a65726f206164647265737300000000006044820152606490fd5b506001600160a01b03821615610246565b346101a35760403660031901126101a3576103076004356102f0611dbc565b906103026102fd82611dfe565b612089565b61217c565b005b346101a35760003660031901126101a3576000546040516001600160a01b039091168152602090f35b346101a35760003660031901126101a357602060405160008152f35b346101a35760403660031901126101a357610367611dbc565b60043560005260008051602061265a83398151915260205260406000209060018060a01b0316600052602052602060ff604060002054166040519015158152f35b346101a35760003660031901126101a35760008051602061263a833981519152546040516001600160a01b039091168152602090f35b346101a35760003660031901126101a3576001546040516001600160a01b039091168152602090f35b346101a35760003660031901126101a35760008051602061269a83398151915254336001600160a01b03909116036104a35760008051602061269a83398151915280546001600160a01b031990811690915560008051602061263a83398151915280543392811683179091556001600160a01b03167f8be0079c531659141344cd1fd0a4f28419497f9722a3daafe3b4186f6b6457e0600080a3005b63118cdaa760e01b6000523360045260246000fd5b346101a35760003660031901126101a3576104d1612618565b60008051602061269a83398151915280546001600160a01b031990811690915560008051602061263a833981519152805491821690556000906001600160a01b03167f8be0079c531659141344cd1fd0a4f28419497f9722a3daafe3b4186f6b6457e08280a3005b346101a35761054736611de8565b9060005260066020526040600020906000526020526040806000208054906001808060a01b039101541682519182526020820152f35b346101a35761058b36611de8565b9061059582611e94565b906105a36040519283611e5f565b8282526105af83611e94565b6020830190601f19013682376105c484611e94565b936105d26040519586611e5f565b8085526105de81611e94565b602086019390601f190136853760005b82811061067c575050506040519384936040850190604086525180915260608501929060005b81811061065a5750505060209084830382860152519182815201919060005b818110610641575050500390f35b8251845285945060209384019390920191600101610633565b82516001600160a01b0316855287965060209485019490920191600101610614565b80600191600098959697985260036020526040828060a01b03816000205416806106a6848c61205f565b5284600052600260205281600020600091858060a01b0316825260205220546106cf828761205f565b520195949392956105ee565b346101a35760203660031901126101a3576004356000526003602052602060018060a01b0360406000205416604051908152f35b346101a35760403660031901126101a357610728611dbc565b600435600052600260205260406000209060018060a01b03166000526020526020604060002054604051908152f35b346101a35760403660031901126101a357610770611dd2565b610778611dbc565b60008051602061267a833981519152549160ff8360401c1615926001600160401b038116801590816108bc575b60011490816108b2575b1590816108a9575b506108985767ffffffffffffffff19811660011760008051602061267a833981519152558361086b575b50600080546001600160a01b039283166001600160a01b0319918216179091556001805493909216921691909117905561081757005b60ff60401b1960008051602061267a833981519152541660008051602061267a833981519152557fc7f505b2f371ae2175ee4913f4499e1f2633a7b5936321eed1cdaeb6115181d2602060405160018152a1005b68ffffffffffffffffff1916680100000000000000011760008051602061267a83398151915255836107e1565b63f92ee8a960e01b60005260046000fd5b905015856107b7565b303b1591506107af565b8591506107a5565b346101a35760a03660031901126101a3576000546001600160a01b03163303611c8f576000602435815b604435821115610917576040836004356000526004602052816000205482519182526020820152f35b60018060a01b036001541690604051630662ded760e41b81526004356004820152836024820152602081604481865afa908115611bfd57600091611c5e575b50600160009111600014611c535750604051630662ded760e41b81526004356004820152836024820152602081604481865afa908115611bfd57600091611c1f575b506000198101908111611c095760006109de915b8094604051808095819463092d751360e01b83528a600435600485016040919493926060820195825260208201520152565b03915afa908115611bfd57600091611be4575b50805191600e831015611bce57600092600103610e2f57508160a082019384515192610a1c84611e94565b93610a2a6040519586611e5f565b808552610a39601f1991611e94565b01366020860137602081019760c0820192865b885151811015610bd257610a6181865161205f565b516005811015610b61578b519060068210159081610bbe578a9060018103610b75575050610b61576001145b8015610b5a575b610aa1575b600101610a4c565b94610aad600191611e1f565b9581610ab9828a61205f565b526004358952600260205260408920828060a01b03610ad9838d5161205f565b5116838060a01b03168a52602052604089205415610af9575b9050610a99565b818060a01b03610b0a828c5161205f565b51166004358a52600460205260408a20548a52600360205260408a2090838060a01b0316838060a01b03198254161790556004358952600460205260408920610b538154611e1f565b9055610af2565b5087610a94565b634e487b7160e01b89526021600452602489fd5b60028103610b8b575050610b6157600214610a8d565b60038103610ba1575050610b6157600314610a8d565b60049193925014610bb3575b50610a8d565b60049150148c610bad565b634e487b7160e01b8b52602160045260248bfd5b50939197925095939750610bf4610bed85515160643561221c565b8097612032565b95811580610ddf57670de0b6b3a7640000820291808304670de0b6b3a76400001490151715610dcb57670de0b6b3a76400008302928304670de0b6b3a7640000141715610db75790610c459161203f565b945b845b845151811015610caf5780610c606001928b61205f565b51610c6c575b01610c49565b6004358752600260205260408720828060a01b03610c8b83895161205f565b5116838060a01b0316885260205260408720610ca8898254612032565b9055610c66565b506040909601519396509094909350610cd9926001600160a01b0316915060843590600435612562565b6001925b8380610dae575b15610d9a578015610d865760015460405163092d751360e01b8152600480359082015260248101859052600019929092016044830181905292908690839060649082906001600160a01b03165afa908115610d7b57610d51928792610d57575b506064359060043561222f565b90610cdd565b610d749192503d8089833e610d6c8183611e5f565b810190611eab565b9087610d44565b6040513d88823e3d90fd5b634e487b7160e01b85526011600452602485fd5b50919250610da790611e1f565b90916108ee565b50801515610ce4565b634e487b7160e01b86526011600452602486fd5b634e487b7160e01b87526011600452602487fd5b50670de0b6b3a764000080820292508115918304141715610d865783515190670de0b6b3a7640000820291808304670de0b6b3a76400001490151715610db75790610e299161203f565b94610c47565b9392908095929551600e811015611ba657600503610e6a57604001519091610d51916001600160a01b03169060843560011c90600435612562565b8051600e811015611ba65760011901610e84575b50610cdd565b92939491908351600e811015611bba576004036112da576001546001600160a01b03166000198601868111610d8657849060646040518094819363092d751360e01b8352600435600484015260248301528460448301525afa9081156112cf579060809185916112b5575b50015191839660a08601515193610f0585611e94565b94610f136040519687611e5f565b808652610f22601f1991611e94565b01366020870137855b60a088015180518210156110ee5760408901516001600160a01b0390811691610f5590849061205f565b5116146110e657610f6a8160c08a015161205f565b51600581101561107557602089015190600682101590816110d257899060018103611089575050611075576001145b801561106e575b610faf575b6001905b01610f2b565b98610fbb600191611e1f565b9981610fc7828961205f565b526004358852600260205260408820828060a01b03610fea8360a08d015161205f565b5116838060a01b0316895260205260408820541561100a575b9050610fa5565b818060a01b0361101e8260a08c015161205f565b5116600435895260046020526040892054895260036020526040892090838060a01b0316838060a01b031982541617905560043588526004602052604088206110678154611e1f565b9055611003565b5086610fa0565b634e487b7160e01b88526021600452602488fd5b6002810361109f57505061107557600214610f99565b600381036110b557505061107557600314610f99565b600491939250146110c7575b50610f99565b60049150148b6110c1565b634e487b7160e01b8a52602160045260248afd5b600190610fa9565b5050929095949796919661111c6111158561111060a08a01515160643561221c565b612032565b8099612032565b9781158061124e57670de0b6b3a7640000820291808304670de0b6b3a7640000149015171561123a57670de0b6b3a76400008302928304670de0b6b3a7640000141715611226579061116d9161203f565b955b885b60a0870151518110156111dd578061118b6001928861205f565b51611197575b01611171565b6004358b52600260205260408b20828060a01b036111b98360a08c015161205f565b5116838060a01b03168c5260205260408b206111d68a8254612032565b9055611191565b509691955092506112039193604060018060a01b03910151169060843590600435612562565b916004358652600560205261121d60408720918254612032565b90555b85610e7e565b634e487b7160e01b8a52601160045260248afd5b634e487b7160e01b8b52601160045260248bfd5b50670de0b6b3a7640000808202925081159183041417156112a15760a08601515190670de0b6b3a7640000820291808304670de0b6b3a76400001490151715611226579061129b9161203f565b9561116f565b634e487b7160e01b89526011600452602489fd5b6112c991503d8087833e610d6c8183611e5f565b88610eef565b6040513d86823e3d90fd5b93908351600e811015611bba57600303611681576001546001600160a01b03166000198301838111610d8657849060646040518094819363092d751360e01b8352600435600484015260248301528460448301525afa9081156112cf57906080918591611667575b50015195839660a0860151519361135885611e94565b946113666040519687611e5f565b808652611375601f1991611e94565b01366020870137855b60a0880151518110156114eb576113998160c08a015161205f565b51600581101561107557602089015190600682101590816110d2578990600181036114a2575050611075576001145b801561149b575b6113dc575b60010161137e565b986113e8600191611e1f565b99816113f4828961205f565b526004358852600260205260408820828060a01b036114178360a08d015161205f565b5116838060a01b03168952602052604088205415611437575b90506113d4565b818060a01b0361144b8260a08c015161205f565b5116600435895260046020526040892054895260036020526040892090838060a01b0316838060a01b031982541617905560043588526004602052604088206114948154611e1f565b9055611430565b50866113cf565b600281036114b8575050611075576002146113c8565b600381036114ce575050611075576003146113c8565b600491939250146114e0575b506113c8565b60049150148b6114da565b50919594979690929661150c6111158561111060a08a01515160643561221c565b9781158061161457670de0b6b3a7640000820291808304670de0b6b3a7640000149015171561123a57670de0b6b3a76400008302928304670de0b6b3a7640000141715611226579061155d9161203f565b955b885b60a0870151518110156115cd578061157b6001928861205f565b51611587575b01611561565b6004358b52600260205260408b20828060a01b036115a98360a08c015161205f565b5116838060a01b03168c5260205260408b206115c68a8254612032565b9055611581565b509691955092506115f39193604060018060a01b03910151169060843590600435612562565b916004358652600560205261160d60408720918254612032565b9055611220565b50670de0b6b3a7640000808202925081159183041417156112a15760a08601515190670de0b6b3a7640000820291808304670de0b6b3a7640000149015171561122657906116619161203f565b9561155f565b61167b91503d8087833e610d6c8183611e5f565b88611342565b83929594919351600e811015611ba6576006036116bd5760409092015160843560011c926115f3916001600160a01b0316908490600435612562565b929394918051600e811015611bba576007036119fa5761170060843560011c946116e986608435612032565b60408401516001600160a01b031691600435612562565b936004358452600560205261171a60408520918254612032565b9055829060a08101948551519361173085611e94565b9461173e6040519687611e5f565b80865261174d601f1991611e94565b013660208701378598602060c085019401995b8851518110156118be5761177581865161205f565b516005811015610b61578b519060068210159081610bbe578a9060018103611875575050610b61576001145b801561186e575b6117b5575b600101611760565b946117c1600191611e1f565b95816117cd828a61205f565b526004358952600260205260408920828060a01b036117ed838d5161205f565b5116838060a01b03168a5260205260408920541561180d575b90506117ad565b818060a01b0361181e828c5161205f565b51166004358a52600460205260408a20548a52600360205260408a2090838060a01b0316838060a01b031982541617905560043589526004602052604089206118678154611e1f565b9055611806565b50876117a8565b6002810361188b575050610b61576002146117a1565b600381036118a1575050610b61576003146117a1565b600491939250146118b3575b506117a1565b60049150148c6118ad565b509391979250959397506118e06118d985515160643561221c565b8098612032565b968115806119aa57670de0b6b3a7640000820291808304670de0b6b3a76400001490151715610dcb57670de0b6b3a76400008302928304670de0b6b3a7640000141715610db757906119319161203f565b945b845b84515181101561199b578061194c6001928b61205f565b51611958575b01611935565b6004358752600260205260408720828060a01b0361197783895161205f565b5116838060a01b0316885260205260408720611994898254612032565b9055611952565b50939650935093905090611220565b50670de0b6b3a764000080820292508115918304141715610d865783515190670de0b6b3a7640000820291808304670de0b6b3a76400001490151715610db757906119f49161203f565b94611933565b919493928251600e811015611ba657600803611aa157611a289061111084608435926064359060043561222f565b916001611a3b6080830151608435612032565b916040828060a01b039101511660405192611a5584611e2e565b83526020830190815260043588526006602052604088208689526020526040882092518355818060a01b0390511691019060018060a01b031660018060a01b0319825416179055611220565b8251600e811015611ba6578390600903611ae457611ac8906080926064359060043561222f565b9201516004358652600560205261160d60408720918254612032565b51600e811015611ba657600a03611b0257611a289060843590612032565b918051600e811015611ba657600b03611b3257608001516004358652600560205261160d60408720918254612032565b918251600e811015611ba657600c03611b6757611b529060843590612032565b916001611a3b6080830151608435831c612032565b918051600e811015611ba657600d14611b81575b50611220565b6080015160043586526005602052611b9e60408720918254612032565b905585611b7b565b634e487b7160e01b87526021600452602487fd5b634e487b7160e01b84526021600452602484fd5b634e487b7160e01b600052602160045260246000fd5b611bf7913d8091833e610d6c8183611e5f565b856109f1565b6040513d6000823e3d90fd5b634e487b7160e01b600052601160045260246000fd5b906020823d8211611c4b575b81611c3860209383611e5f565b81010312611c4857505185610998565b80fd5b3d9150611c2b565b60006109de916109ac565b906020823d8211611c87575b81611c7760209383611e5f565b81010312611c4857505185610956565b3d9150611c6a565b6323c76f5b60e21b60005260046000fd5b346101a35760403660031901126101a357611cb9611dbc565b336001600160a01b03821603611cd5576103079060043561217c565b63334bd91960e11b60005260046000fd5b346101a35760403660031901126101a357610307600435611d05611dbc565b90611d126102fd82611dfe565b6120d3565b346101a35760203660031901126101a3576020611d35600435611dfe565b604051908152f35b346101a35760203660031901126101a35760043560005260046020526020604060002054604051908152f35b346101a35760203660031901126101a3576004359063ffffffff60e01b82168092036101a357602091637965db0b60e01b8114908115611dab575b5015158152f35b6301ffc9a760e01b14905083611da4565b602435906001600160a01b03821682036101a357565b600435906001600160a01b03821682036101a357565b60409060031901126101a3576004359060243590565b60005260008051602061265a83398151915260205260016040600020015490565b6000198114611c095760010190565b604081019081106001600160401b03821117611e4957604052565b634e487b7160e01b600052604160045260246000fd5b90601f801991011681019081106001600160401b03821117611e4957604052565b51906001600160a01b03821682036101a357565b6001600160401b038111611e495760051b60200190565b6020818303126101a3578051906001600160401b0382116101a357019060e0828203126101a3576040519160e083018381106001600160401b03821117611e49576040528051600e8110156101a3578352602081015160068110156101a3576020840152611f1b60408201611e80565b6040840152606081015160608401526080810151608084015260a08101516001600160401b0381116101a357810182601f820112156101a357805190611f6082611e94565b91611f6e6040519384611e5f565b80835260208084019160051b830101918583116101a357602001905b82821061201a5750505060a084015260c0810151906001600160401b0382116101a357019080601f830112156101a357815190611fc682611e94565b92611fd46040519485611e5f565b82845260208085019360051b8201019182116101a357602001915b8183106120015750505060c082015290565b825160058110156101a357815260209283019201611fef565b6020809161202784611e80565b815201910190611f8a565b91908201809211611c0957565b8115612049570490565b634e487b7160e01b600052601260045260246000fd5b80518210156120735760209160051b010190565b634e487b7160e01b600052603260045260246000fd5b600081815260008051602061265a8339815191526020908152604080832033845290915290205460ff16156120bb5750565b63e2517d3f60e01b6000523360045260245260446000fd5b600081815260008051602061265a833981519152602090815260408083206001600160a01b038616845290915290205460ff1661217557600081815260008051602061265a833981519152602090815260408083206001600160a01b0395909516808452949091528120805460ff19166001179055339291907f2f8788117e7eff1d82e926ec794901d17c78024a50270940304540a733656f0d9080a4600190565b5050600090565b600081815260008051602061265a833981519152602090815260408083206001600160a01b038616845290915290205460ff161561217557600081815260008051602061265a833981519152602090815260408083206001600160a01b0395909516808452949091528120805460ff19169055339291907ff6391f5c32d9c69d2a47ea670b442974b53935d1edc7fd64eb21e047a839171b9080a4600190565b81810292918115918404141715611c0957565b939092936000918260a08701948551519261224984611e94565b936122576040519586611e5f565b808552612266601f1991611e94565b01366020860137855b875180518210156123fb5760408b01516001600160a01b039081169161229690849061205f565b5116146123f3576122ab8160c08c015161205f565b5160058110156110755760208b015190600682101590816110d2578990600181036123aa575050611075576001145b80156123a3575b6122f0575b6001905b0161226f565b926122fc600191611e1f565b9381612308828861205f565b52868852600260205260408820828060a01b03612326838c5161205f565b5116838060a01b03168952602052604088205415612346575b90506122e6565b818060a01b03612357828b5161205f565b511687895260046020526040892054895260036020526040892090838060a01b0316838060a01b031982541617905586885260046020526040882061239c8154611e1f565b905561233f565b50866122e1565b600281036123c0575050611075576002146122da565b600381036123d6575050611075576003146122da565b600491939250146123e8575b506122da565b6004915014386123e2565b6001906122ea565b505095949061241e9297939850612415908651519061221c565b92839150612032565b9480156000816124e75750670de0b6b3a7640000830292808404670de0b6b3a76400001490151715611c0957670de0b6b3a76400008202918204670de0b6b3a7640000141715611c09576124719161203f565b925b60005b8351518110156124de578061248d6001928961205f565b51612499575b01612476565b836000526002602052604080600020838060a01b036124b984895161205f565b511690600091858060a01b03168252602052206124d7878254612032565b9055612493565b50945050505090565b92670de0b6b3a764000080820293508115918404141715905061254e5783515191670de0b6b3a7640000830292808404670de0b6b3a7640000149015171561253a5750906125349161203f565b92612473565b634e487b7160e01b81526011600452602490fd5b634e487b7160e01b82526011600452602482fd5b9161259b91836000526002602052604060002060018060a01b0386166000526020526040600020612594838254612032565b9055612032565b91816000526002602052604060002060018060a01b038216600052602052604060002054156125c957505090565b816000526004602052604060002054600052600360205260406000209060018060a01b031660018060a01b0319825416179055600052600460205260406000206126138154611e1f565b905590565b60008051602061263a833981519152546001600160a01b031633036104a35756fe9016d09d72d40fdae2fd8ceac6b6234c7706214fd39c1cd1e609a0528c19930002dd7bc7dec4dceedda775e58dd541e08a116c6c53815c0bd028192f7b626800f0c57e16840df040f15088dc2f81fe391c3923bec73e23a9662efc9c229c6a00237e158222e3e6968b72b9db0d8043aacf074ad9f650f0d1606b4d82ee432c00a2646970667358221220d33629624d826a0cc3ba318b44ee43a42756701f9687388443eafcd746385a2264736f6c634300081c0033",
  "linkReferences": {},
  "deployedLinkReferences": {}
}