{
  "_format": "hh-sol-artifact-1",
  "contractName": "ConsensusManager",
  "sourceName": "contracts/ConsensusManager.sol",
  "abi": [
    {
      "inputs": [],
      "name": "AccessControlBadConfirmation",
      "type": "error"
    },
    {
      "inputs": [
        {
          "internalType": "address",
          "name": "account",
          "type": "address"
        },
        {
          "internalType": "bytes32",
          "name": "neededRole",
          "type": "bytes32"
        }
      ],
      "name": "AccessControlUnauthorizedAccount",
      "type": "error"
    },
    {
      "inputs": [],
      "name": "ECDSAInvalidSignature",
      "type": "error"
    },
    {
      "inputs": [
        {
          "internalType": "uint256",
          "name": "length",
          "type": "uint256"
        }
      ],
      "name": "ECDSAInvalidSignatureLength",
      "type": "error"
    },
    {
      "inputs": [
        {
          "internalType": "bytes32",
          "name": "s",
          "type": "bytes32"
        }
      ],
      "name": "ECDSAInvalidSignatureS",
      "type": "error"
    },
    {
      "inputs": [],
      "name": "InvalidInitialization",
      "type": "error"
    },
    {
      "inputs": [],
      "name": "NotGenConsensus",
      "type": "error"
    },
    {
      "inputs": [],
      "name": "NotInitializing",
      "type": "error"
    },
    {
      "inputs": [
        {
          "internalType": "address",
          "name": "owner",
          "type": "address"
        }
      ],
      "name": "OwnableInvalidOwner",
      "type": "error"
    },
    {
      "inputs": [
        {
          "internalType": "address",
          "name": "account",
          "type": "address"
        }
      ],
      "name": "OwnableUnauthorizedAccount",
      "type": "error"
    },
    {
      "inputs": [],
      "name": "ReentrancyGuardReentrantCall",
      "type": "error"
    },
    {
      "anonymous": false,
      "inputs": [
        {
          "indexed": false,
          "internalType": "uint64",
          "name": "version",
          "type": "uint64"
        }
      ],
      "name": "Initialized",
      "type": "event"
    },
    {
      "anonymous": false,
      "inputs": [
        {
          "indexed": true,
          "internalType": "address",
          "name": "previousOwner",
          "type": "address"
        },
        {
          "indexed": true,
          "internalType": "address",
          "name": "newOwner",
          "type": "address"
        }
      ],
      "name": "OwnershipTransferStarted",
      "type": "event"
    },
    {
      "anonymous": false,
      "inputs": [
        {
          "indexed": true,
          "internalType": "address",
          "name": "previousOwner",
          "type": "address"
        },
        {
          "indexed": true,
          "internalType": "address",
          "name": "newOwner",
          "type": "address"
        }
      ],
      "name": "OwnershipTransferred",
      "type": "event"
    },
    {
      "anonymous": false,
      "inputs": [
        {
          "indexed": true,
          "internalType": "bytes32",
          "name": "role",
          "type": "bytes32"
        },
        {
          "indexed": true,
          "internalType": "bytes32",
          "name": "previousAdminRole",
          "type": "bytes32"
        },
        {
          "indexed": true,
          "internalType": "bytes32",
          "name": "newAdminRole",
          "type": "bytes32"
        }
      ],
      "name": "RoleAdminChanged",
      "type": "event"
    },
    {
      "anonymous": false,
      "inputs": [
        {
          "indexed": true,
          "internalType": "bytes32",
          "name": "role",
          "type": "bytes32"
        },
        {
          "indexed": true,
          "internalType": "address",
          "name": "account",
          "type": "address"
        },
        {
          "indexed": true,
          "internalType": "address",
          "name": "sender",
          "type": "address"
        }
      ],
      "name": "RoleGranted",
      "type": "event"
    },
    {
      "anonymous": false,
      "inputs": [
        {
          "indexed": true,
          "internalType": "bytes32",
          "name": "role",
          "type": "bytes32"
        },
        {
          "indexed": true,
          "internalType": "address",
          "name": "account",
          "type": "address"
        },
        {
          "indexed": true,
          "internalType": "address",
          "name": "sender",
          "type": "address"
        }
      ],
      "name": "RoleRevoked",
      "type": "event"
    },
    {
      "inputs": [],
      "name": "DEFAULT_ADMIN_ROLE",
      "outputs": [
        {
          "internalType": "bytes32",
          "name": "",
          "type": "bytes32"
        }
      ],
      "stateMutability": "view",
      "type": "function"
    },
    {
      "inputs": [],
      "name": "acceptOwnership",
      "outputs": [],
      "stateMutability": "nonpayable",
      "type": "function"
    },
    {
      "inputs": [],
      "name": "genConsensus",
      "outputs": [
        {
          "internalType": "address",
          "name": "",
          "type": "address"
        }
      ],
      "stateMutability": "view",
      "type": "function"
    },
    {
      "inputs": [
        {
          "internalType": "bytes32",
          "name": "_txId",
          "type": "bytes32"
        }
      ],
      "name": "getRecipientForTx",
      "outputs": [
        {
          "internalType": "address",
          "name": "",
          "type": "address"
        }
      ],
      "stateMutability": "view",
      "type": "function"
    },
    {
      "inputs": [
        {
          "internalType": "bytes32",
          "name": "role",
          "type": "bytes32"
        }
      ],
      "name": "getRoleAdmin",
      "outputs": [
        {
          "internalType": "bytes32",
          "name": "",
          "type": "bytes32"
        }
      ],
      "stateMutability": "view",
      "type": "function"
    },
    {
      "inputs": [
        {
          "internalType": "bytes32",
          "name": "role",
          "type": "bytes32"
        },
        {
          "internalType": "address",
          "name": "account",
          "type": "address"
        }
      ],
      "name": "grantRole",
      "outputs": [],
      "stateMutability": "nonpayable",
      "type": "function"
    },
    {
      "inputs": [
        {
          "internalType": "bytes32",
          "name": "role",
          "type": "bytes32"
        },
        {
          "internalType": "address",
          "name": "account",
          "type": "address"
        }
      ],
      "name": "hasRole",
      "outputs": [
        {
          "internalType": "bool",
          "name": "",
          "type": "bool"
        }
      ],
      "stateMutability": "view",
      "type": "function"
    },
    {
      "inputs": [
        {
          "internalType": "address",
          "name": "_genConsensus",
          "type": "address"
        }
      ],
      "name": "initialize",
      "outputs": [],
      "stateMutability": "nonpayable",
      "type": "function"
    },
    {
      "inputs": [],
      "name": "owner",
      "outputs": [
        {
          "internalType": "address",
          "name": "",
          "type": "address"
        }
      ],
      "stateMutability": "view",
      "type": "function"
    },
    {
      "inputs": [],
      "name": "pendingOwner",
      "outputs": [
        {
          "internalType": "address",
          "name": "",
          "type": "address"
        }
      ],
      "stateMutability": "view",
      "type": "function"
    },
    {
      "inputs": [
        {
          "internalType": "address",
          "name": "",
          "type": "address"
        }
      ],
      "name": "recipientRandomSeed",
      "outputs": [
        {
          "internalType": "bytes32",
          "name": "",
          "type": "bytes32"
        }
      ],
      "stateMutability": "view",
      "type": "function"
    },
    {
      "inputs": [],
      "name": "renounceOwnership",
      "outputs": [],
      "stateMutability": "nonpayable",
      "type": "function"
    },
    {
      "inputs": [
        {
          "internalType": "bytes32",
          "name": "role",
          "type": "bytes32"
        },
        {
          "internalType": "address",
          "name": "callerConfirmation",
          "type": "address"
        }
      ],
      "name": "renounceRole",
      "outputs": [],
      "stateMutability": "nonpayable",
      "type": "function"
    },
    {
      "inputs": [
        {
          "internalType": "bytes32",
          "name": "role",
          "type": "bytes32"
        },
        {
          "internalType": "address",
          "name": "account",
          "type": "address"
        }
      ],
      "name": "revokeRole",
      "outputs": [],
      "stateMutability": "nonpayable",
      "type": "function"
    },
    {
      "inputs": [
        {
          "internalType": "address",
          "name": "_genConsensus",
          "type": "address"
        }
      ],
      "name": "setConsensusMain",
      "outputs": [],
      "stateMutability": "nonpayable",
      "type": "function"
    },
    {
      "inputs": [
        {
          "internalType": "address",
          "name": "_recipient",
          "type": "address"
        },
        {
          "internalType": "bytes32",
          "name": "_randomSeed",
          "type": "bytes32"
        },
        {
          "internalType": "bytes32",
          "name": "_txId",
          "type": "bytes32"
        }
      ],
      "name": "setRandomSeedForRecipient",
      "outputs": [],
      "stateMutability": "nonpayable",
      "type": "function"
    },
    {
      "inputs": [
        {
          "internalType": "bytes4",
          "name": "interfaceId",
          "type": "bytes4"
        }
      ],
      "name": "supportsInterface",
      "outputs": [
        {
          "internalType": "bool",
          "name": "",
          "type": "bool"
        }
      ],
      "stateMutability": "view",
      "type": "function"
    },
    {
      "inputs": [
        {
          "internalType": "address",
          "name": "newOwner",
          "type": "address"
        }
      ],
      "name": "transferOwnership",
      "outputs": [],
      "stateMutability": "nonpayable",
      "type": "function"
    },
    {
      "inputs": [
        {
          "internalType": "bytes32",
          "name": "",
          "type": "bytes32"
        }
      ],
      "name": "txRecipient",
      "outputs": [
        {
          "internalType": "address",
          "name": "",
          "type": "address"
        }
      ],
      "stateMutability": "view",
      "type": "function"
    },
    {
      "inputs": [
        {
          "internalType": "address",
          "name": "_recipient",
          "type": "address"
        },
        {
          "internalType": "address",
          "name": "_sender",
          "type": "address"
        },
        {
          "internalType": "bytes",
          "name": "_vrfProof",
          "type": "bytes"
        }
      ],
      "name": "updateRandomSeedForRecipient",
      "outputs": [
        {
          "internalType": "bytes32",
          "name": "newRandomSeed",
          "type": "bytes32"
        }
      ],
      "stateMutability": "nonpayable",
      "type": "function"
    }
  ],
  "bytecode": "0x60808060405234601557610e1a908161001b8239f35b600080fdfe608080604052600436101561001357600080fd5b60003560e01c90816301ffc9a7146108ed57508063248a9ca3146108c75780632f2ff15d1461089657806336568abe146108505780633a890ff11461063957806341544277146108275780634f51e1cf1461066d5780635aa004d414610639578063715018a6146105b857806379ba5097146105685780638da5cb5b1461053257806391d14854146104d8578063a217fddf146104bc578063bc24f75014610442578063c4d66de814610272578063d547741f1461023a578063e2f8d67814610200578063e30c3978146101ca578063e5c4a509146101875763f2fde38b146100fb57600080fd5b3461018257602036600319011261018257610114610956565b61011c610b58565b600080516020610dc583398151915280546001600160a01b0319166001600160a01b03928316908117909155600080516020610d65833981519152549091167f38d16b8cac22d99fc7c124b9cd0de2d3fa1faef420bfe791d8c362d765e22700600080a3005b600080fd5b34610182576020366003190112610182576101a0610956565b6101a8610b58565b600080546001600160a01b0319166001600160a01b0392909216919091179055005b3461018257600036600319011261018257600080516020610dc5833981519152546040516001600160a01b039091168152602090f35b34610182576020366003190112610182576001600160a01b03610221610956565b1660005260016020526020604060002054604051908152f35b3461018257604036600319011261018257610270600435610259610940565b9061026b6102668261096c565b6109c5565b610ab8565b005b346101825760203660031901126101825761028b610956565b600080516020610da5833981519152549060ff8260401c16159167ffffffffffffffff81168015908161043a575b6001149081610430575b159081610427575b506104165767ffffffffffffffff198116600117600080516020610da583398151915255826103e9575b506102fe610be7565b610306610be7565b61030e610be7565b33156103d35761031d33610b79565b610325610be7565b61032d610be7565b60017f9b779b17422d0df92223018b32b4d1fa46e071723d6817e2486d003becc55f0055610359610be7565b600080546001600160a01b0319166001600160a01b039290921691909117905561037f57005b60ff60401b19600080516020610da58339815191525416600080516020610da5833981519152557fc7f505b2f371ae2175ee4913f4499e1f2633a7b5936321eed1cdaeb6115181d2602060405160018152a1005b631e4fbdf760e01b600052600060045260246000fd5b68ffffffffffffffffff19166801000000000000000117600080516020610da583398151915255826102f5565b63f92ee8a960e01b60005260046000fd5b905015846102cb565b303b1591506102c3565b8491506102b9565b346101825760603660031901126101825761045b610956565b6000546001600160a01b031633036104ab576001600160a01b03166000818152600160209081526040808320602435905560443583526002909152902080546001600160a01b0319169091179055005b633f66af3760e21b60005260046000fd5b3461018257600036600319011261018257602060405160008152f35b34610182576040366003190112610182576104f1610940565b600435600052600080516020610d8583398151915260205260406000209060018060a01b0316600052602052602060ff604060002054166040519015158152f35b3461018257600036600319011261018257600080516020610d65833981519152546040516001600160a01b039091168152602090f35b3461018257600036600319011261018257600080516020610dc583398151915254336001600160a01b03909116036105a35761027033610b79565b63118cdaa760e01b6000523360045260246000fd5b34610182576000366003190112610182576105d1610b58565b600080516020610dc583398151915280546001600160a01b0319908116909155600080516020610d65833981519152805491821690556000906001600160a01b03167f8be0079c531659141344cd1fd0a4f28419497f9722a3daafe3b4186f6b6457e08280a3005b34610182576020366003190112610182576004356000526002602052602060018060a01b0360406000205416604051908152f35b3461018257606036600319011261018257610686610956565b61068e610940565b906044359167ffffffffffffffff831161018257366023840112156101825782600401359267ffffffffffffffff8411610182573660248583010111610182576000546001600160a01b031633036104ab5761076660209360018060a01b03169283600052600185526040600020549560009581879260246040519761071d85601f19601f860116018a61098d565b8289520183880137850101527f19457468657265756d205369676e6564204d6573736167653a0a333200000000855285601c5261075d83603c8720610c15565b90939193610c51565b6001600160a01b039081169116036107d75760209360405191805190855b8281106107c457505085808480946107ab946040970190838201520301808452018261098d565b8481519101209283928152600185522055604051908152f35b8181018801518582018901528701610784565b60405162461bcd60e51b815260206004820152602260248201527f52616e646f6d6e6573735574696c733a20496e76616c6964207369676e617475604482015261726560f01b6064820152608490fd5b34610182576000366003190112610182576000546040516001600160a01b039091168152602090f35b3461018257604036600319011261018257610869610940565b336001600160a01b038216036108855761027090600435610ab8565b63334bd91960e11b60005260046000fd5b34610182576040366003190112610182576102706004356108b5610940565b906108c26102668261096c565b610a0f565b346101825760203660031901126101825760206108e560043561096c565b604051908152f35b34610182576020366003190112610182576004359063ffffffff60e01b821680920361018257602091637965db0b60e01b811490811561092f575b5015158152f35b6301ffc9a760e01b14905083610928565b602435906001600160a01b038216820361018257565b600435906001600160a01b038216820361018257565b600052600080516020610d8583398151915260205260016040600020015490565b90601f8019910116810190811067ffffffffffffffff8211176109af57604052565b634e487b7160e01b600052604160045260246000fd5b6000818152600080516020610d858339815191526020908152604080832033845290915290205460ff16156109f75750565b63e2517d3f60e01b6000523360045260245260446000fd5b6000818152600080516020610d85833981519152602090815260408083206001600160a01b038616845290915290205460ff16610ab1576000818152600080516020610d85833981519152602090815260408083206001600160a01b0395909516808452949091528120805460ff19166001179055339291907f2f8788117e7eff1d82e926ec794901d17c78024a50270940304540a733656f0d9080a4600190565b5050600090565b6000818152600080516020610d85833981519152602090815260408083206001600160a01b038616845290915290205460ff1615610ab1576000818152600080516020610d85833981519152602090815260408083206001600160a01b0395909516808452949091528120805460ff19169055339291907ff6391f5c32d9c69d2a47ea670b442974b53935d1edc7fd64eb21e047a839171b9080a4600190565b600080516020610d65833981519152546001600160a01b031633036105a357565b600080516020610dc583398151915280546001600160a01b0319908116909155600080516020610d6583398151915280549182166001600160a01b0393841690811790915591167f8be0079c531659141344cd1fd0a4f28419497f9722a3daafe3b4186f6b6457e0600080a3565b60ff600080516020610da58339815191525460401c1615610c0457565b631afcd79f60e31b60005260046000fd5b8151919060418303610c4657610c3f92506020820151906060604084015193015160001a90610cd9565b9192909190565b505060009160029190565b9190916004811015610cc35780610c6757509050565b600060018203610c825763f645eedf60e01b60005260046000fd5b5060028103610ca0578263fce698f760e01b60005260045260246000fd5b9091600360009214610cb0575050565b6335e2f38360e21b825260045260249150fd5b634e487b7160e01b600052602160045260246000fd5b91906fa2a8918ca85bafe22016d0b997e4df60600160ff1b038411610d58579160209360809260ff60009560405194855216868401526040830152606082015282805260015afa15610d4c576000516001600160a01b03811615610d405790600090600090565b50600090600190600090565b6040513d6000823e3d90fd5b5050506000916003919056fe9016d09d72d40fdae2fd8ceac6b6234c7706214fd39c1cd1e609a0528c19930002dd7bc7dec4dceedda775e58dd541e08a116c6c53815c0bd028192f7b626800f0c57e16840df040f15088dc2f81fe391c3923bec73e23a9662efc9c229c6a00237e158222e3e6968b72b9db0d8043aacf074ad9f650f0d1606b4d82ee432c00a26469706673582212203d51333e763a2bba02ea7ee61bcd271e02e6bce80e71d87e092f8b55e056fff664736f6c634300081c0033",
  "linkReferences": {},
  "deployedLinkReferences": {}
}