{
  "_format": "hh-sol-artifact-1",
  "contractName": "ConsensusManager",
  "sourceName": "contracts/ConsensusManager.sol",
  "abi": [
    {
      "inputs": [],
      "name": "AccessControlBadConfirmation",
      "type": "error"
    },
    {
      "inputs": [
        {
          "internalType": "address",
          "name": "account",
          "type": "address"
        },
        {
          "internalType": "bytes32",
          "name": "neededRole",
          "type": "bytes32"
        }
      ],
      "name": "AccessControlUnauthorizedAccount",
      "type": "error"
    },
    {
      "inputs": [],
      "name": "ECDSAInvalidSignature",
      "type": "error"
    },
    {
      "inputs": [
        {
          "internalType": "uint256",
          "name": "length",
          "type": "uint256"
        }
      ],
      "name": "ECDSAInvalidSignatureLength",
      "type": "error"
    },
    {
      "inputs": [
        {
          "internalType": "bytes32",
          "name": "s",
          "type": "bytes32"
        }
      ],
      "name": "ECDSAInvalidSignatureS",
      "type": "error"
    },
    {
      "inputs": [],
      "name": "InvalidInitialization",
      "type": "error"
    },
    {
      "inputs": [],
      "name": "NotGenConsensus",
      "type": "error"
    },
    {
      "inputs": [],
      "name": "NotInitializing",
      "type": "error"
    },
    {
      "inputs": [
        {
          "internalType": "address",
          "name": "owner",
          "type": "address"
        }
      ],
      "name": "OwnableInvalidOwner",
      "type": "error"
    },
    {
      "inputs": [
        {
          "internalType": "address",
          "name": "account",
          "type": "address"
        }
      ],
      "name": "OwnableUnauthorizedAccount",
      "type": "error"
    },
    {
      "inputs": [],
      "name": "ReentrancyGuardReentrantCall",
      "type": "error"
    },
    {
      "anonymous": false,
      "inputs": [
        {
          "indexed": true,
          "internalType": "address",
          "name": "caller",
          "type": "address"
        },
        {
          "indexed": false,
          "internalType": "bool",
          "name": "authorized",
          "type": "bool"
        }
      ],
      "name": "AuthorizedCallerUpdated",
      "type": "event"
    },
    {
      "anonymous": false,
      "inputs": [
        {
          "indexed": false,
          "internalType": "uint64",
          "name": "version",
          "type": "uint64"
        }
      ],
      "name": "Initialized",
      "type": "event"
    },
    {
      "anonymous": false,
      "inputs": [
        {
          "indexed": true,
          "internalType": "address",
          "name": "previousOwner",
          "type": "address"
        },
        {
          "indexed": true,
          "internalType": "address",
          "name": "newOwner",
          "type": "address"
        }
      ],
      "name": "OwnershipTransferStarted",
      "type": "event"
    },
    {
      "anonymous": false,
      "inputs": [
        {
          "indexed": true,
          "internalType": "address",
          "name": "previousOwner",
          "type": "address"
        },
        {
          "indexed": true,
          "internalType": "address",
          "name": "newOwner",
          "type": "address"
        }
      ],
      "name": "OwnershipTransferred",
      "type": "event"
    },
    {
      "anonymous": false,
      "inputs": [
        {
          "indexed": true,
          "internalType": "bytes32",
          "name": "role",
          "type": "bytes32"
        },
        {
          "indexed": true,
          "internalType": "bytes32",
          "name": "previousAdminRole",
          "type": "bytes32"
        },
        {
          "indexed": true,
          "internalType": "bytes32",
          "name": "newAdminRole",
          "type": "bytes32"
        }
      ],
      "name": "RoleAdminChanged",
      "type": "event"
    },
    {
      "anonymous": false,
      "inputs": [
        {
          "indexed": true,
          "internalType": "bytes32",
          "name": "role",
          "type": "bytes32"
        },
        {
          "indexed": true,
          "internalType": "address",
          "name": "account",
          "type": "address"
        },
        {
          "indexed": true,
          "internalType": "address",
          "name": "sender",
          "type": "address"
        }
      ],
      "name": "RoleGranted",
      "type": "event"
    },
    {
      "anonymous": false,
      "inputs": [
        {
          "indexed": true,
          "internalType": "bytes32",
          "name": "role",
          "type": "bytes32"
        },
        {
          "indexed": true,
          "internalType": "address",
          "name": "account",
          "type": "address"
        },
        {
          "indexed": true,
          "internalType": "address",
          "name": "sender",
          "type": "address"
        }
      ],
      "name": "RoleRevoked",
      "type": "event"
    },
    {
      "inputs": [],
      "name": "DEFAULT_ADMIN_ROLE",
      "outputs": [
        {
          "internalType": "bytes32",
          "name": "",
          "type": "bytes32"
        }
      ],
      "stateMutability": "view",
      "type": "function"
    },
    {
      "inputs": [],
      "name": "acceptOwnership",
      "outputs": [],
      "stateMutability": "nonpayable",
      "type": "function"
    },
    {
      "inputs": [
        {
          "internalType": "address",
          "name": "",
          "type": "address"
        }
      ],
      "name": "authorizedCallers",
      "outputs": [
        {
          "internalType": "bool",
          "name": "",
          "type": "bool"
        }
      ],
      "stateMutability": "view",
      "type": "function"
    },
    {
      "inputs": [],
      "name": "genConsensus",
      "outputs": [
        {
          "internalType": "address",
          "name": "",
          "type": "address"
        }
      ],
      "stateMutability": "view",
      "type": "function"
    },
    {
      "inputs": [
        {
          "internalType": "bytes32",
          "name": "_txId",
          "type": "bytes32"
        }
      ],
      "name": "getRecipientForTx",
      "outputs": [
        {
          "internalType": "address",
          "name": "",
          "type": "address"
        }
      ],
      "stateMutability": "view",
      "type": "function"
    },
    {
      "inputs": [
        {
          "internalType": "bytes32",
          "name": "role",
          "type": "bytes32"
        }
      ],
      "name": "getRoleAdmin",
      "outputs": [
        {
          "internalType": "bytes32",
          "name": "",
          "type": "bytes32"
        }
      ],
      "stateMutability": "view",
      "type": "function"
    },
    {
      "inputs": [
        {
          "internalType": "bytes32",
          "name": "role",
          "type": "bytes32"
        },
        {
          "internalType": "address",
          "name": "account",
          "type": "address"
        }
      ],
      "name": "grantRole",
      "outputs": [],
      "stateMutability": "nonpayable",
      "type": "function"
    },
    {
      "inputs": [
        {
          "internalType": "bytes32",
          "name": "role",
          "type": "bytes32"
        },
        {
          "internalType": "address",
          "name": "account",
          "type": "address"
        }
      ],
      "name": "hasRole",
      "outputs": [
        {
          "internalType": "bool",
          "name": "",
          "type": "bool"
        }
      ],
      "stateMutability": "view",
      "type": "function"
    },
    {
      "inputs": [
        {
          "internalType": "address",
          "name": "_genConsensus",
          "type": "address"
        }
      ],
      "name": "initialize",
      "outputs": [],
      "stateMutability": "nonpayable",
      "type": "function"
    },
    {
      "inputs": [],
      "name": "owner",
      "outputs": [
        {
          "internalType": "address",
          "name": "",
          "type": "address"
        }
      ],
      "stateMutability": "view",
      "type": "function"
    },
    {
      "inputs": [],
      "name": "pendingOwner",
      "outputs": [
        {
          "internalType": "address",
          "name": "",
          "type": "address"
        }
      ],
      "stateMutability": "view",
      "type": "function"
    },
    {
      "inputs": [
        {
          "internalType": "address",
          "name": "",
          "type": "address"
        }
      ],
      "name": "recipientRandomSeed",
      "outputs": [
        {
          "internalType": "bytes32",
          "name": "",
          "type": "bytes32"
        }
      ],
      "stateMutability": "view",
      "type": "function"
    },
    {
      "inputs": [],
      "name": "renounceOwnership",
      "outputs": [],
      "stateMutability": "nonpayable",
      "type": "function"
    },
    {
      "inputs": [
        {
          "internalType": "bytes32",
          "name": "role",
          "type": "bytes32"
        },
        {
          "internalType": "address",
          "name": "callerConfirmation",
          "type": "address"
        }
      ],
      "name": "renounceRole",
      "outputs": [],
      "stateMutability": "nonpayable",
      "type": "function"
    },
    {
      "inputs": [
        {
          "internalType": "bytes32",
          "name": "role",
          "type": "bytes32"
        },
        {
          "internalType": "address",
          "name": "account",
          "type": "address"
        }
      ],
      "name": "revokeRole",
      "outputs": [],
      "stateMutability": "nonpayable",
      "type": "function"
    },
    {
      "inputs": [
        {
          "internalType": "address",
          "name": "caller",
          "type": "address"
        },
        {
          "internalType": "bool",
          "name": "authorized",
          "type": "bool"
        }
      ],
      "name": "setAuthorizedCaller",
      "outputs": [],
      "stateMutability": "nonpayable",
      "type": "function"
    },
    {
      "inputs": [
        {
          "internalType": "address[]",
          "name": "callers",
          "type": "address[]"
        },
        {
          "internalType": "bool",
          "name": "authorized",
          "type": "bool"
        }
      ],
      "name": "setAuthorizedCallers",
      "outputs": [],
      "stateMutability": "nonpayable",
      "type": "function"
    },
    {
      "inputs": [
        {
          "internalType": "address",
          "name": "_genConsensus",
          "type": "address"
        }
      ],
      "name": "setConsensusMain",
      "outputs": [],
      "stateMutability": "nonpayable",
      "type": "function"
    },
    {
      "inputs": [
        {
          "internalType": "address",
          "name": "_recipient",
          "type": "address"
        },
        {
          "internalType": "bytes32",
          "name": "_randomSeed",
          "type": "bytes32"
        },
        {
          "internalType": "bytes32",
          "name": "_txId",
          "type": "bytes32"
        }
      ],
      "name": "setRandomSeedForRecipient",
      "outputs": [],
      "stateMutability": "nonpayable",
      "type": "function"
    },
    {
      "inputs": [
        {
          "internalType": "bytes32",
          "name": "_txId",
          "type": "bytes32"
        },
        {
          "internalType": "address",
          "name": "_recipient",
          "type": "address"
        }
      ],
      "name": "setTxRecipient",
      "outputs": [],
      "stateMutability": "nonpayable",
      "type": "function"
    },
    {
      "inputs": [
        {
          "internalType": "bytes4",
          "name": "interfaceId",
          "type": "bytes4"
        }
      ],
      "name": "supportsInterface",
      "outputs": [
        {
          "internalType": "bool",
          "name": "",
          "type": "bool"
        }
      ],
      "stateMutability": "view",
      "type": "function"
    },
    {
      "inputs": [
        {
          "internalType": "address",
          "name": "newOwner",
          "type": "address"
        }
      ],
      "name": "transferOwnership",
      "outputs": [],
      "stateMutability": "nonpayable",
      "type": "function"
    },
    {
      "inputs": [
        {
          "internalType": "bytes32",
          "name": "",
          "type": "bytes32"
        }
      ],
      "name": "txRecipient",
      "outputs": [
        {
          "internalType": "address",
          "name": "",
          "type": "address"
        }
      ],
      "stateMutability": "view",
      "type": "function"
    },
    {
      "inputs": [
        {
          "internalType": "address",
          "name": "_recipient",
          "type": "address"
        },
        {
          "internalType": "address",
          "name": "_sender",
          "type": "address"
        },
        {
          "internalType": "bytes",
          "name": "_vrfProof",
          "type": "bytes"
        }
      ],
      "name": "updateRandomSeedForRecipient",
      "outputs": [
        {
          "internalType": "bytes32",
          "name": "newRandomSeed",
          "type": "bytes32"
        }
      ],
      "stateMutability": "nonpayable",
      "type": "function"
    }
  ],
  "bytecode": "0x60808060405234601557611103908161001b8239f35b600080fdfe608080604052600436101561001357600080fd5b60003560e01c90816301ffc9a714610b8d57508063090263a714610a91578063248a9ca314610a6b5780632f2ff15d14610a3a57806336568abe146109f45780633a890ff11461070057806341544277146109cb578063454bbd291461094d5780634f51e1cf14610773578063536fff6c146107345780635aa004d414610700578063715018a61461067f57806379ba50971461062f5780638da5cb5b146105f957806391d148541461059f578063a217fddf14610583578063bc24f750146104fa578063c4d66de81461032a578063d547741f146102f2578063e2f8d678146102b8578063e309dea81461022c578063e30c3978146101f6578063e5c4a509146101b35763f2fde38b1461012757600080fd5b346101ae5760203660031901126101ae57610140610c05565b610148610cae565b6000805160206110ae83398151915280546001600160a01b0319166001600160a01b0392831690811790915560008051602061104e833981519152549091167f38d16b8cac22d99fc7c124b9cd0de2d3fa1faef420bfe791d8c362d765e22700600080a3005b600080fd5b346101ae5760203660031901126101ae576101cc610c05565b6101d4610cae565b600080546001600160a01b0319166001600160a01b0392909216919091179055005b346101ae5760003660031901126101ae576000805160206110ae833981519152546040516001600160a01b039091168152602090f35b346101ae5760403660031901126101ae57610245610bef565b6000546001600160a01b03163314158061029f575b61028e57600435600090815260026020526040902080546001600160a01b0319166001600160a01b03909216919091179055005b633f66af3760e21b60005260046000fd5b5033600052600360205260ff604060002054161561025a565b346101ae5760203660031901126101ae576001600160a01b036102d9610c05565b1660005260016020526020604060002054604051908152f35b346101ae5760403660031901126101ae57610328600435610311610bef565b9061032361031e82610c55565b610ccf565b610dc2565b005b346101ae5760203660031901126101ae57610343610c05565b60008051602061108e833981519152549060ff8260401c16159167ffffffffffffffff8116801590816104f2575b60011490816104e8575b1590816104df575b506104ce5767ffffffffffffffff19811660011760008051602061108e83398151915255826104a1575b506103b6610ed0565b6103be610ed0565b6103c6610ed0565b331561048b576103d533610e62565b6103dd610ed0565b6103e5610ed0565b60017f9b779b17422d0df92223018b32b4d1fa46e071723d6817e2486d003becc55f0055610411610ed0565b600080546001600160a01b0319166001600160a01b039290921691909117905561043757005b60ff60401b1960008051602061108e833981519152541660008051602061108e833981519152557fc7f505b2f371ae2175ee4913f4499e1f2633a7b5936321eed1cdaeb6115181d2602060405160018152a1005b631e4fbdf760e01b600052600060045260246000fd5b68ffffffffffffffffff1916680100000000000000011760008051602061108e83398151915255826103ad565b63f92ee8a960e01b60005260046000fd5b90501584610383565b303b15915061037b565b849150610371565b346101ae5760603660031901126101ae57610513610c05565b6000546001600160a01b03163314158061056a575b61028e576001600160a01b03166000818152600160209081526040808320602435905560443583526002909152902080546001600160a01b0319169091179055005b5033600052600360205260ff6040600020541615610528565b346101ae5760003660031901126101ae57602060405160008152f35b346101ae5760403660031901126101ae576105b8610bef565b60043560005260008051602061106e83398151915260205260406000209060018060a01b0316600052602052602060ff604060002054166040519015158152f35b346101ae5760003660031901126101ae5760008051602061104e833981519152546040516001600160a01b039091168152602090f35b346101ae5760003660031901126101ae576000805160206110ae83398151915254336001600160a01b039091160361066a5761032833610e62565b63118cdaa760e01b6000523360045260246000fd5b346101ae5760003660031901126101ae57610698610cae565b6000805160206110ae83398151915280546001600160a01b031990811690915560008051602061104e833981519152805491821690556000906001600160a01b03167f8be0079c531659141344cd1fd0a4f28419497f9722a3daafe3b4186f6b6457e08280a3005b346101ae5760203660031901126101ae576004356000526002602052602060018060a01b0360406000205416604051908152f35b346101ae5760203660031901126101ae576001600160a01b03610755610c05565b166000526003602052602060ff604060002054166040519015158152f35b346101ae5760603660031901126101ae5761078c610c05565b610794610bef565b906044359167ffffffffffffffff83116101ae57366023840112156101ae5782600401359267ffffffffffffffff84116101ae5736602485830101116101ae576000546001600160a01b031633141580610934575b61028e5761087360209360018060a01b03169283600052600185526040600020549560009581879260246040519761082a85601f19601f860116018a610c76565b8289520183880137850101527f19457468657265756d205369676e6564204d6573736167653a0a333200000000855285601c5261086a83603c8720610efe565b90939193610f3a565b6001600160a01b039081169116036108e45760209360405191805190855b8281106108d157505085808480946108b89460409701908382015203018084520182610c76565b8481519101209283928152600185522055604051908152f35b8181018801518582018901528701610891565b60405162461bcd60e51b815260206004820152602260248201527f52616e646f6d6e6573735574696c733a20496e76616c6964207369676e617475604482015261726560f01b6064820152608490fd5b5033600052600360205260ff60406000205416156107e9565b346101ae5760403660031901126101ae57610966610c05565b7fad857fa38c9319cb80848f1ef2f924383b90297eb5d71755738ff037d100faa16020610991610be0565b9261099a610cae565b6001600160a01b031660008181526003835260409020805460ff191660ff86151516179055926040519015158152a2005b346101ae5760003660031901126101ae576000546040516001600160a01b039091168152602090f35b346101ae5760403660031901126101ae57610a0d610bef565b336001600160a01b03821603610a295761032890600435610dc2565b63334bd91960e11b60005260046000fd5b346101ae5760403660031901126101ae57610328600435610a59610bef565b90610a6661031e82610c55565b610d19565b346101ae5760203660031901126101ae576020610a89600435610c55565b604051908152f35b346101ae5760403660031901126101ae5760043567ffffffffffffffff81116101ae57366023820112156101ae57806004013567ffffffffffffffff81116101ae576024820191602436918360051b0101116101ae57610aef610be0565b610af7610cae565b8015159060005b838110610b0757005b6001906001600160a01b03610b25610b2083888a610c1b565b610c41565b166000526003602052610b488360406000209060ff801983541691151516179055565b818060a01b03610b5c610b2083888a610c1b565b167fad857fa38c9319cb80848f1ef2f924383b90297eb5d71755738ff037d100faa16020604051878152a201610afe565b346101ae5760203660031901126101ae576004359063ffffffff60e01b82168092036101ae57602091637965db0b60e01b8114908115610bcf575b5015158152f35b6301ffc9a760e01b14905083610bc8565b6024359081151582036101ae57565b602435906001600160a01b03821682036101ae57565b600435906001600160a01b03821682036101ae57565b9190811015610c2b5760051b0190565b634e487b7160e01b600052603260045260246000fd5b356001600160a01b03811681036101ae5790565b60005260008051602061106e83398151915260205260016040600020015490565b90601f8019910116810190811067ffffffffffffffff821117610c9857604052565b634e487b7160e01b600052604160045260246000fd5b60008051602061104e833981519152546001600160a01b0316330361066a57565b600081815260008051602061106e8339815191526020908152604080832033845290915290205460ff1615610d015750565b63e2517d3f60e01b6000523360045260245260446000fd5b600081815260008051602061106e833981519152602090815260408083206001600160a01b038616845290915290205460ff16610dbb57600081815260008051602061106e833981519152602090815260408083206001600160a01b0395909516808452949091528120805460ff19166001179055339291907f2f8788117e7eff1d82e926ec794901d17c78024a50270940304540a733656f0d9080a4600190565b5050600090565b600081815260008051602061106e833981519152602090815260408083206001600160a01b038616845290915290205460ff1615610dbb57600081815260008051602061106e833981519152602090815260408083206001600160a01b0395909516808452949091528120805460ff19169055339291907ff6391f5c32d9c69d2a47ea670b442974b53935d1edc7fd64eb21e047a839171b9080a4600190565b6000805160206110ae83398151915280546001600160a01b031990811690915560008051602061104e83398151915280549182166001600160a01b0393841690811790915591167f8be0079c531659141344cd1fd0a4f28419497f9722a3daafe3b4186f6b6457e0600080a3565b60ff60008051602061108e8339815191525460401c1615610eed57565b631afcd79f60e31b60005260046000fd5b8151919060418303610f2f57610f2892506020820151906060604084015193015160001a90610fc2565b9192909190565b505060009160029190565b9190916004811015610fac5780610f5057509050565b600060018203610f6b5763f645eedf60e01b60005260046000fd5b5060028103610f89578263fce698f760e01b60005260045260246000fd5b9091600360009214610f99575050565b6335e2f38360e21b825260045260249150fd5b634e487b7160e01b600052602160045260246000fd5b91906fa2a8918ca85bafe22016d0b997e4df60600160ff1b038411611041579160209360809260ff60009560405194855216868401526040830152606082015282805260015afa15611035576000516001600160a01b038116156110295790600090600090565b50600090600190600090565b6040513d6000823e3d90fd5b5050506000916003919056fe9016d09d72d40fdae2fd8ceac6b6234c7706214fd39c1cd1e609a0528c19930002dd7bc7dec4dceedda775e58dd541e08a116c6c53815c0bd028192f7b626800f0c57e16840df040f15088dc2f81fe391c3923bec73e23a9662efc9c229c6a00237e158222e3e6968b72b9db0d8043aacf074ad9f650f0d1606b4d82ee432c00a2646970667358221220f2b27fba6342e5e0a0b965e72f0590710f79819a90f036238f7d3aa56b989be764736f6c634300081c0033",
  "linkReferences": {},
  "deployedLinkReferences": {}
}