{
  "_format": "hh-sol-artifact-1",
  "contractName": "Queues",
  "sourceName": "contracts/Queues.sol",
  "abi": [
    {
      "inputs": [],
      "name": "AccessControlBadConfirmation",
      "type": "error"
    },
    {
      "inputs": [
        {
          "internalType": "address",
          "name": "account",
          "type": "address"
        },
        {
          "internalType": "bytes32",
          "name": "neededRole",
          "type": "bytes32"
        }
      ],
      "name": "AccessControlUnauthorizedAccount",
      "type": "error"
    },
    {
      "inputs": [],
      "name": "InvalidInitialization",
      "type": "error"
    },
    {
      "inputs": [
        {
          "internalType": "uint256",
          "name": "number",
          "type": "uint256"
        }
      ],
      "name": "InvalidNumber",
      "type": "error"
    },
    {
      "inputs": [],
      "name": "NotConsensus",
      "type": "error"
    },
    {
      "inputs": [],
      "name": "NotConsensusOrIdleness",
      "type": "error"
    },
    {
      "inputs": [],
      "name": "NotConsensusOrIdlenessOrTransactions",
      "type": "error"
    },
    {
      "inputs": [],
      "name": "NotConsensusOrTransactions",
      "type": "error"
    },
    {
      "inputs": [],
      "name": "NotInitializing",
      "type": "error"
    },
    {
      "inputs": [
        {
          "internalType": "address",
          "name": "owner",
          "type": "address"
        }
      ],
      "name": "OwnableInvalidOwner",
      "type": "error"
    },
    {
      "inputs": [
        {
          "internalType": "address",
          "name": "account",
          "type": "address"
        }
      ],
      "name": "OwnableUnauthorizedAccount",
      "type": "error"
    },
    {
      "inputs": [],
      "name": "ReentrancyGuardReentrantCall",
      "type": "error"
    },
    {
      "inputs": [],
      "name": "TransactionNotAtPendingQueueHead",
      "type": "error"
    },
    {
      "anonymous": false,
      "inputs": [
        {
          "indexed": true,
          "internalType": "address",
          "name": "genConsensus",
          "type": "address"
        }
      ],
      "name": "GenConsensusSet",
      "type": "event"
    },
    {
      "anonymous": false,
      "inputs": [
        {
          "indexed": false,
          "internalType": "uint64",
          "name": "version",
          "type": "uint64"
        }
      ],
      "name": "Initialized",
      "type": "event"
    },
    {
      "anonymous": false,
      "inputs": [
        {
          "indexed": true,
          "internalType": "address",
          "name": "recipient",
          "type": "address"
        },
        {
          "indexed": true,
          "internalType": "bytes32",
          "name": "txId",
          "type": "bytes32"
        },
        {
          "indexed": false,
          "internalType": "uint256",
          "name": "maxNumOfIterations",
          "type": "uint256"
        }
      ],
      "name": "MaxNumOfIterationsInPendingQueueReached",
      "type": "event"
    },
    {
      "anonymous": false,
      "inputs": [
        {
          "indexed": true,
          "internalType": "address",
          "name": "previousOwner",
          "type": "address"
        },
        {
          "indexed": true,
          "internalType": "address",
          "name": "newOwner",
          "type": "address"
        }
      ],
      "name": "OwnershipTransferStarted",
      "type": "event"
    },
    {
      "anonymous": false,
      "inputs": [
        {
          "indexed": true,
          "internalType": "address",
          "name": "previousOwner",
          "type": "address"
        },
        {
          "indexed": true,
          "internalType": "address",
          "name": "newOwner",
          "type": "address"
        }
      ],
      "name": "OwnershipTransferred",
      "type": "event"
    },
    {
      "anonymous": false,
      "inputs": [
        {
          "indexed": true,
          "internalType": "address",
          "name": "recipient",
          "type": "address"
        }
      ],
      "name": "PendingQueueUnblocked",
      "type": "event"
    },
    {
      "anonymous": false,
      "inputs": [
        {
          "indexed": true,
          "internalType": "address",
          "name": "recipient",
          "type": "address"
        },
        {
          "indexed": true,
          "internalType": "bytes32",
          "name": "txId",
          "type": "bytes32"
        },
        {
          "indexed": false,
          "internalType": "enum IQueues.QueueType",
          "name": "queueType",
          "type": "uint8"
        },
        {
          "indexed": false,
          "internalType": "uint256",
          "name": "slot",
          "type": "uint256"
        }
      ],
      "name": "QueueOperationPerformed",
      "type": "event"
    },
    {
      "anonymous": false,
      "inputs": [
        {
          "indexed": true,
          "internalType": "bytes32",
          "name": "role",
          "type": "bytes32"
        },
        {
          "indexed": true,
          "internalType": "bytes32",
          "name": "previousAdminRole",
          "type": "bytes32"
        },
        {
          "indexed": true,
          "internalType": "bytes32",
          "name": "newAdminRole",
          "type": "bytes32"
        }
      ],
      "name": "RoleAdminChanged",
      "type": "event"
    },
    {
      "anonymous": false,
      "inputs": [
        {
          "indexed": true,
          "internalType": "bytes32",
          "name": "role",
          "type": "bytes32"
        },
        {
          "indexed": true,
          "internalType": "address",
          "name": "account",
          "type": "address"
        },
        {
          "indexed": true,
          "internalType": "address",
          "name": "sender",
          "type": "address"
        }
      ],
      "name": "RoleGranted",
      "type": "event"
    },
    {
      "anonymous": false,
      "inputs": [
        {
          "indexed": true,
          "internalType": "bytes32",
          "name": "role",
          "type": "bytes32"
        },
        {
          "indexed": true,
          "internalType": "address",
          "name": "account",
          "type": "address"
        },
        {
          "indexed": true,
          "internalType": "address",
          "name": "sender",
          "type": "address"
        }
      ],
      "name": "RoleRevoked",
      "type": "event"
    },
    {
      "anonymous": false,
      "inputs": [
        {
          "indexed": true,
          "internalType": "address",
          "name": "recipient",
          "type": "address"
        },
        {
          "indexed": true,
          "internalType": "enum IQueues.QueueType",
          "name": "queueType",
          "type": "uint8"
        },
        {
          "indexed": false,
          "internalType": "uint256",
          "name": "start",
          "type": "uint256"
        },
        {
          "indexed": false,
          "internalType": "uint256",
          "name": "end",
          "type": "uint256"
        },
        {
          "indexed": false,
          "internalType": "uint256",
          "name": "count",
          "type": "uint256"
        }
      ],
      "name": "TransactionsBatchDeletedFromQueue",
      "type": "event"
    },
    {
      "inputs": [],
      "name": "DEFAULT_ADMIN_ROLE",
      "outputs": [
        {
          "internalType": "bytes32",
          "name": "",
          "type": "bytes32"
        }
      ],
      "stateMutability": "view",
      "type": "function"
    },
    {
      "inputs": [],
      "name": "acceptOwnership",
      "outputs": [],
      "stateMutability": "nonpayable",
      "type": "function"
    },
    {
      "inputs": [
        {
          "internalType": "address",
          "name": "recipient",
          "type": "address"
        },
        {
          "internalType": "bytes32[]",
          "name": "txIds",
          "type": "bytes32[]"
        }
      ],
      "name": "addBatchOfTransactionsToUndeterminedQueue",
      "outputs": [
        {
          "internalType": "bool",
          "name": "success",
          "type": "bool"
        }
      ],
      "stateMutability": "nonpayable",
      "type": "function"
    },
    {
      "inputs": [
        {
          "internalType": "address",
          "name": "recipient",
          "type": "address"
        },
        {
          "internalType": "bytes32",
          "name": "txId",
          "type": "bytes32"
        }
      ],
      "name": "addTransactionToAcceptedQueue",
      "outputs": [
        {
          "internalType": "uint256",
          "name": "slot",
          "type": "uint256"
        },
        {
          "internalType": "bool",
          "name": "success",
          "type": "bool"
        }
      ],
      "stateMutability": "nonpayable",
      "type": "function"
    },
    {
      "inputs": [
        {
          "internalType": "address",
          "name": "recipient",
          "type": "address"
        },
        {
          "internalType": "bytes32",
          "name": "txId",
          "type": "bytes32"
        }
      ],
      "name": "addTransactionToFinalizedQueue",
      "outputs": [
        {
          "internalType": "bool",
          "name": "success",
          "type": "bool"
        }
      ],
      "stateMutability": "nonpayable",
      "type": "function"
    },
    {
      "inputs": [
        {
          "internalType": "address",
          "name": "recipient",
          "type": "address"
        },
        {
          "internalType": "bytes32",
          "name": "txId",
          "type": "bytes32"
        }
      ],
      "name": "addTransactionToPendingQueue",
      "outputs": [
        {
          "internalType": "bool",
          "name": "readyToActivate",
          "type": "bool"
        },
        {
          "internalType": "uint256",
          "name": "slot",
          "type": "uint256"
        },
        {
          "internalType": "bytes32[]",
          "name": "txsForRecomputation",
          "type": "bytes32[]"
        }
      ],
      "stateMutability": "nonpayable",
      "type": "function"
    },
    {
      "inputs": [
        {
          "internalType": "address",
          "name": "recipient",
          "type": "address"
        },
        {
          "internalType": "bytes32",
          "name": "txId",
          "type": "bytes32"
        }
      ],
      "name": "addTransactionToUndeterminedQueue",
      "outputs": [
        {
          "internalType": "uint256",
          "name": "slot",
          "type": "uint256"
        },
        {
          "internalType": "bool",
          "name": "success",
          "type": "bool"
        }
      ],
      "stateMutability": "nonpayable",
      "type": "function"
    },
    {
      "inputs": [],
      "name": "genConsensus",
      "outputs": [
        {
          "internalType": "address",
          "name": "",
          "type": "address"
        }
      ],
      "stateMutability": "view",
      "type": "function"
    },
    {
      "inputs": [
        {
          "internalType": "address",
          "name": "recipient",
          "type": "address"
        }
      ],
      "name": "getAcceptedHead",
      "outputs": [
        {
          "internalType": "uint256",
          "name": "",
          "type": "uint256"
        }
      ],
      "stateMutability": "view",
      "type": "function"
    },
    {
      "inputs": [
        {
          "internalType": "address",
          "name": "recipient",
          "type": "address"
        }
      ],
      "name": "getAcceptedHeadTxId",
      "outputs": [
        {
          "internalType": "bytes32",
          "name": "",
          "type": "bytes32"
        }
      ],
      "stateMutability": "view",
      "type": "function"
    },
    {
      "inputs": [
        {
          "internalType": "address",
          "name": "recipient",
          "type": "address"
        }
      ],
      "name": "getAcceptedTail",
      "outputs": [
        {
          "internalType": "uint256",
          "name": "",
          "type": "uint256"
        }
      ],
      "stateMutability": "view",
      "type": "function"
    },
    {
      "inputs": [
        {
          "internalType": "address",
          "name": "recipient",
          "type": "address"
        }
      ],
      "name": "getAcceptedTailTxId",
      "outputs": [
        {
          "internalType": "bytes32",
          "name": "",
          "type": "bytes32"
        }
      ],
      "stateMutability": "view",
      "type": "function"
    },
    {
      "inputs": [
        {
          "internalType": "address",
          "name": "recipient",
          "type": "address"
        }
      ],
      "name": "getAcceptedTxCount",
      "outputs": [
        {
          "internalType": "uint256",
          "name": "",
          "type": "uint256"
        }
      ],
      "stateMutability": "view",
      "type": "function"
    },
    {
      "inputs": [
        {
          "internalType": "address",
          "name": "recipient",
          "type": "address"
        },
        {
          "internalType": "uint256",
          "name": "slot",
          "type": "uint256"
        }
      ],
      "name": "getAcceptedTxId",
      "outputs": [
        {
          "internalType": "bytes32",
          "name": "",
          "type": "bytes32"
        }
      ],
      "stateMutability": "view",
      "type": "function"
    },
    {
      "inputs": [
        {
          "internalType": "address",
          "name": "recipient",
          "type": "address"
        }
      ],
      "name": "getFinalizedHead",
      "outputs": [
        {
          "internalType": "uint256",
          "name": "",
          "type": "uint256"
        }
      ],
      "stateMutability": "view",
      "type": "function"
    },
    {
      "inputs": [
        {
          "internalType": "address",
          "name": "recipient",
          "type": "address"
        }
      ],
      "name": "getFinalizedHeadTxId",
      "outputs": [
        {
          "internalType": "bytes32",
          "name": "",
          "type": "bytes32"
        }
      ],
      "stateMutability": "view",
      "type": "function"
    },
    {
      "inputs": [
        {
          "internalType": "address",
          "name": "recipient",
          "type": "address"
        }
      ],
      "name": "getFinalizedTxCount",
      "outputs": [
        {
          "internalType": "uint256",
          "name": "",
          "type": "uint256"
        }
      ],
      "stateMutability": "view",
      "type": "function"
    },
    {
      "inputs": [
        {
          "internalType": "address",
          "name": "recipient",
          "type": "address"
        },
        {
          "internalType": "uint256",
          "name": "slot",
          "type": "uint256"
        }
      ],
      "name": "getFinalizedTxId",
      "outputs": [
        {
          "internalType": "bytes32",
          "name": "",
          "type": "bytes32"
        }
      ],
      "stateMutability": "view",
      "type": "function"
    },
    {
      "inputs": [
        {
          "internalType": "address",
          "name": "recipient",
          "type": "address"
        }
      ],
      "name": "getIssuedTxCount",
      "outputs": [
        {
          "internalType": "uint256",
          "name": "",
          "type": "uint256"
        }
      ],
      "stateMutability": "view",
      "type": "function"
    },
    {
      "inputs": [
        {
          "internalType": "address",
          "name": "recipient",
          "type": "address"
        }
      ],
      "name": "getLastFinalizedTxId",
      "outputs": [
        {
          "internalType": "bytes32",
          "name": "",
          "type": "bytes32"
        }
      ],
      "stateMutability": "view",
      "type": "function"
    },
    {
      "inputs": [
        {
          "internalType": "bytes32",
          "name": "txId",
          "type": "bytes32"
        }
      ],
      "name": "getLastQueueModification",
      "outputs": [
        {
          "components": [
            {
              "internalType": "enum IQueues.QueueType",
              "name": "lastQueueType",
              "type": "uint8"
            },
            {
              "internalType": "uint256",
              "name": "lastQueueTimestamp",
              "type": "uint256"
            }
          ],
          "internalType": "struct IQueues.LastQueueModification",
          "name": "",
          "type": "tuple"
        }
      ],
      "stateMutability": "view",
      "type": "function"
    },
    {
      "inputs": [
        {
          "internalType": "address",
          "name": "recipient",
          "type": "address"
        }
      ],
      "name": "getPendingHead",
      "outputs": [
        {
          "internalType": "uint256",
          "name": "",
          "type": "uint256"
        }
      ],
      "stateMutability": "view",
      "type": "function"
    },
    {
      "inputs": [
        {
          "internalType": "address",
          "name": "recipient",
          "type": "address"
        }
      ],
      "name": "getPendingHeadTxId",
      "outputs": [
        {
          "internalType": "bytes32",
          "name": "",
          "type": "bytes32"
        }
      ],
      "stateMutability": "view",
      "type": "function"
    },
    {
      "inputs": [
        {
          "internalType": "address",
          "name": "recipient",
          "type": "address"
        }
      ],
      "name": "getPendingTail",
      "outputs": [
        {
          "internalType": "uint256",
          "name": "",
          "type": "uint256"
        }
      ],
      "stateMutability": "view",
      "type": "function"
    },
    {
      "inputs": [
        {
          "internalType": "address",
          "name": "recipient",
          "type": "address"
        }
      ],
      "name": "getPendingTailTxId",
      "outputs": [
        {
          "internalType": "bytes32",
          "name": "",
          "type": "bytes32"
        }
      ],
      "stateMutability": "view",
      "type": "function"
    },
    {
      "inputs": [
        {
          "internalType": "address",
          "name": "recipient",
          "type": "address"
        }
      ],
      "name": "getPendingTxCount",
      "outputs": [
        {
          "internalType": "uint256",
          "name": "",
          "type": "uint256"
        }
      ],
      "stateMutability": "view",
      "type": "function"
    },
    {
      "inputs": [
        {
          "internalType": "address",
          "name": "recipient",
          "type": "address"
        },
        {
          "internalType": "uint256",
          "name": "slot",
          "type": "uint256"
        }
      ],
      "name": "getPendingTxId",
      "outputs": [
        {
          "internalType": "bytes32",
          "name": "",
          "type": "bytes32"
        }
      ],
      "stateMutability": "view",
      "type": "function"
    },
    {
      "inputs": [
        {
          "internalType": "address",
          "name": "recipient",
          "type": "address"
        },
        {
          "internalType": "uint256",
          "name": "startIndex",
          "type": "uint256"
        },
        {
          "internalType": "uint256",
          "name": "endIndex",
          "type": "uint256"
        }
      ],
      "name": "getRecipientQueues",
      "outputs": [
        {
          "components": [
            {
              "components": [
                {
                  "internalType": "uint256",
                  "name": "head",
                  "type": "uint256"
                },
                {
                  "internalType": "uint256",
                  "name": "tail",
                  "type": "uint256"
                },
                {
                  "internalType": "bytes32[]",
                  "name": "txIds",
                  "type": "bytes32[]"
                }
              ],
              "internalType": "struct IQueues.QueueInfoView",
              "name": "pending",
              "type": "tuple"
            },
            {
              "components": [
                {
                  "internalType": "uint256",
                  "name": "head",
                  "type": "uint256"
                },
                {
                  "internalType": "uint256",
                  "name": "tail",
                  "type": "uint256"
                },
                {
                  "internalType": "bytes32[]",
                  "name": "txIds",
                  "type": "bytes32[]"
                }
              ],
              "internalType": "struct IQueues.QueueInfoView",
              "name": "accepted",
              "type": "tuple"
            },
            {
              "components": [
                {
                  "internalType": "uint256",
                  "name": "head",
                  "type": "uint256"
                },
                {
                  "internalType": "uint256",
                  "name": "tail",
                  "type": "uint256"
                },
                {
                  "internalType": "bytes32[]",
                  "name": "txIds",
                  "type": "bytes32[]"
                }
              ],
              "internalType": "struct IQueues.QueueInfoView",
              "name": "undetermined",
              "type": "tuple"
            },
            {
              "internalType": "uint256",
              "name": "finalizedCount",
              "type": "uint256"
            },
            {
              "internalType": "uint256",
              "name": "issuedTxCount",
              "type": "uint256"
            }
          ],
          "internalType": "struct IQueues.RecipientQueuesView",
          "name": "",
          "type": "tuple"
        }
      ],
      "stateMutability": "view",
      "type": "function"
    },
    {
      "inputs": [
        {
          "internalType": "bytes32",
          "name": "role",
          "type": "bytes32"
        }
      ],
      "name": "getRoleAdmin",
      "outputs": [
        {
          "internalType": "bytes32",
          "name": "",
          "type": "bytes32"
        }
      ],
      "stateMutability": "view",
      "type": "function"
    },
    {
      "inputs": [],
      "name": "getTotalNumOfTransactions",
      "outputs": [
        {
          "internalType": "uint256",
          "name": "",
          "type": "uint256"
        }
      ],
      "stateMutability": "view",
      "type": "function"
    },
    {
      "inputs": [
        {
          "internalType": "uint256",
          "name": "startIndex",
          "type": "uint256"
        },
        {
          "internalType": "uint256",
          "name": "endIndex",
          "type": "uint256"
        }
      ],
      "name": "getTransactionIndexToTxId",
      "outputs": [
        {
          "internalType": "bytes32[]",
          "name": "txIds",
          "type": "bytes32[]"
        }
      ],
      "stateMutability": "view",
      "type": "function"
    },
    {
      "inputs": [
        {
          "internalType": "bytes32",
          "name": "txId",
          "type": "bytes32"
        }
      ],
      "name": "getTransactionQueuePosition",
      "outputs": [
        {
          "internalType": "uint256",
          "name": "",
          "type": "uint256"
        }
      ],
      "stateMutability": "view",
      "type": "function"
    },
    {
      "inputs": [
        {
          "internalType": "bytes32",
          "name": "txId",
          "type": "bytes32"
        }
      ],
      "name": "getTransactionQueueType",
      "outputs": [
        {
          "internalType": "enum IQueues.QueueType",
          "name": "",
          "type": "uint8"
        }
      ],
      "stateMutability": "view",
      "type": "function"
    },
    {
      "inputs": [
        {
          "internalType": "address",
          "name": "recipient",
          "type": "address"
        }
      ],
      "name": "getUndeterminedHead",
      "outputs": [
        {
          "internalType": "uint256",
          "name": "",
          "type": "uint256"
        }
      ],
      "stateMutability": "view",
      "type": "function"
    },
    {
      "inputs": [
        {
          "internalType": "address",
          "name": "recipient",
          "type": "address"
        }
      ],
      "name": "getUndeterminedHeadTxId",
      "outputs": [
        {
          "internalType": "bytes32",
          "name": "",
          "type": "bytes32"
        }
      ],
      "stateMutability": "view",
      "type": "function"
    },
    {
      "inputs": [
        {
          "internalType": "address",
          "name": "recipient",
          "type": "address"
        }
      ],
      "name": "getUndeterminedTail",
      "outputs": [
        {
          "internalType": "uint256",
          "name": "",
          "type": "uint256"
        }
      ],
      "stateMutability": "view",
      "type": "function"
    },
    {
      "inputs": [
        {
          "internalType": "address",
          "name": "recipient",
          "type": "address"
        }
      ],
      "name": "getUndeterminedTailTxId",
      "outputs": [
        {
          "internalType": "bytes32",
          "name": "",
          "type": "bytes32"
        }
      ],
      "stateMutability": "view",
      "type": "function"
    },
    {
      "inputs": [
        {
          "internalType": "address",
          "name": "recipient",
          "type": "address"
        }
      ],
      "name": "getUndeterminedTxCount",
      "outputs": [
        {
          "internalType": "uint256",
          "name": "",
          "type": "uint256"
        }
      ],
      "stateMutability": "view",
      "type": "function"
    },
    {
      "inputs": [
        {
          "internalType": "address",
          "name": "recipient",
          "type": "address"
        },
        {
          "internalType": "uint256",
          "name": "slot",
          "type": "uint256"
        }
      ],
      "name": "getUndeterminedTxId",
      "outputs": [
        {
          "internalType": "bytes32",
          "name": "",
          "type": "bytes32"
        }
      ],
      "stateMutability": "view",
      "type": "function"
    },
    {
      "inputs": [
        {
          "internalType": "bytes32",
          "name": "role",
          "type": "bytes32"
        },
        {
          "internalType": "address",
          "name": "account",
          "type": "address"
        }
      ],
      "name": "grantRole",
      "outputs": [],
      "stateMutability": "nonpayable",
      "type": "function"
    },
    {
      "inputs": [
        {
          "internalType": "bytes32",
          "name": "role",
          "type": "bytes32"
        },
        {
          "internalType": "address",
          "name": "account",
          "type": "address"
        }
      ],
      "name": "hasRole",
      "outputs": [
        {
          "internalType": "bool",
          "name": "",
          "type": "bool"
        }
      ],
      "stateMutability": "view",
      "type": "function"
    },
    {
      "inputs": [],
      "name": "idleness",
      "outputs": [
        {
          "internalType": "address",
          "name": "",
          "type": "address"
        }
      ],
      "stateMutability": "view",
      "type": "function"
    },
    {
      "inputs": [
        {
          "internalType": "address",
          "name": "_genConsensus",
          "type": "address"
        },
        {
          "internalType": "address",
          "name": "_idleness",
          "type": "address"
        },
        {
          "internalType": "address",
          "name": "_transactions",
          "type": "address"
        }
      ],
      "name": "initialize",
      "outputs": [],
      "stateMutability": "nonpayable",
      "type": "function"
    },
    {
      "inputs": [
        {
          "internalType": "address",
          "name": "recipient",
          "type": "address"
        },
        {
          "internalType": "bytes32",
          "name": "txId",
          "type": "bytes32"
        }
      ],
      "name": "isAtFinalizedQueueHead",
      "outputs": [
        {
          "internalType": "bool",
          "name": "",
          "type": "bool"
        }
      ],
      "stateMutability": "view",
      "type": "function"
    },
    {
      "inputs": [
        {
          "internalType": "address",
          "name": "recipient",
          "type": "address"
        },
        {
          "internalType": "bytes32",
          "name": "txId",
          "type": "bytes32"
        }
      ],
      "name": "isAtPendingQueueHead",
      "outputs": [
        {
          "internalType": "bool",
          "name": "",
          "type": "bool"
        }
      ],
      "stateMutability": "view",
      "type": "function"
    },
    {
      "inputs": [
        {
          "internalType": "bytes32",
          "name": "",
          "type": "bytes32"
        }
      ],
      "name": "lastQueueModification",
      "outputs": [
        {
          "internalType": "enum IQueues.QueueType",
          "name": "lastQueueType",
          "type": "uint8"
        },
        {
          "internalType": "uint256",
          "name": "lastQueueTimestamp",
          "type": "uint256"
        }
      ],
      "stateMutability": "view",
      "type": "function"
    },
    {
      "inputs": [],
      "name": "maxNumOfIterationsInPendingQueue",
      "outputs": [
        {
          "internalType": "uint256",
          "name": "",
          "type": "uint256"
        }
      ],
      "stateMutability": "view",
      "type": "function"
    },
    {
      "inputs": [],
      "name": "numOfTransactions",
      "outputs": [
        {
          "internalType": "uint256",
          "name": "",
          "type": "uint256"
        }
      ],
      "stateMutability": "view",
      "type": "function"
    },
    {
      "inputs": [],
      "name": "owner",
      "outputs": [
        {
          "internalType": "address",
          "name": "",
          "type": "address"
        }
      ],
      "stateMutability": "view",
      "type": "function"
    },
    {
      "inputs": [],
      "name": "pendingOwner",
      "outputs": [
        {
          "internalType": "address",
          "name": "",
          "type": "address"
        }
      ],
      "stateMutability": "view",
      "type": "function"
    },
    {
      "inputs": [
        {
          "internalType": "address",
          "name": "recipient",
          "type": "address"
        }
      ],
      "name": "proceedPendingQueueProcessing",
      "outputs": [
        {
          "internalType": "bool",
          "name": "success",
          "type": "bool"
        }
      ],
      "stateMutability": "nonpayable",
      "type": "function"
    },
    {
      "inputs": [
        {
          "internalType": "address",
          "name": "recipient",
          "type": "address"
        },
        {
          "internalType": "uint256",
          "name": "txIndex",
          "type": "uint256"
        }
      ],
      "name": "recipientIssuedIndexToTxId",
      "outputs": [
        {
          "internalType": "bytes32",
          "name": "txId",
          "type": "bytes32"
        }
      ],
      "stateMutability": "view",
      "type": "function"
    },
    {
      "inputs": [
        {
          "internalType": "address",
          "name": "recipient",
          "type": "address"
        },
        {
          "internalType": "bytes32",
          "name": "txId",
          "type": "bytes32"
        }
      ],
      "name": "removeTransactionFromPendingQueue",
      "outputs": [
        {
          "internalType": "bool",
          "name": "success",
          "type": "bool"
        }
      ],
      "stateMutability": "nonpayable",
      "type": "function"
    },
    {
      "inputs": [],
      "name": "renounceOwnership",
      "outputs": [],
      "stateMutability": "nonpayable",
      "type": "function"
    },
    {
      "inputs": [
        {
          "internalType": "bytes32",
          "name": "role",
          "type": "bytes32"
        },
        {
          "internalType": "address",
          "name": "callerConfirmation",
          "type": "address"
        }
      ],
      "name": "renounceRole",
      "outputs": [],
      "stateMutability": "nonpayable",
      "type": "function"
    },
    {
      "inputs": [
        {
          "internalType": "bytes32",
          "name": "role",
          "type": "bytes32"
        },
        {
          "internalType": "address",
          "name": "account",
          "type": "address"
        }
      ],
      "name": "revokeRole",
      "outputs": [],
      "stateMutability": "nonpayable",
      "type": "function"
    },
    {
      "inputs": [
        {
          "internalType": "address",
          "name": "_genConsensus",
          "type": "address"
        },
        {
          "internalType": "address",
          "name": "_idleness",
          "type": "address"
        },
        {
          "internalType": "address",
          "name": "_transactions",
          "type": "address"
        }
      ],
      "name": "setExternalContracts",
      "outputs": [],
      "stateMutability": "nonpayable",
      "type": "function"
    },
    {
      "inputs": [
        {
          "internalType": "uint256",
          "name": "_maxNumOfIterationsInPendingQueue",
          "type": "uint256"
        }
      ],
      "name": "setMaxNumOfIterationsInPendingQueue",
      "outputs": [],
      "stateMutability": "nonpayable",
      "type": "function"
    },
    {
      "inputs": [
        {
          "internalType": "bytes4",
          "name": "interfaceId",
          "type": "bytes4"
        }
      ],
      "name": "supportsInterface",
      "outputs": [
        {
          "internalType": "bool",
          "name": "",
          "type": "bool"
        }
      ],
      "stateMutability": "view",
      "type": "function"
    },
    {
      "inputs": [
        {
          "internalType": "uint256",
          "name": "",
          "type": "uint256"
        }
      ],
      "name": "transactionIndexToTxId",
      "outputs": [
        {
          "internalType": "bytes32",
          "name": "",
          "type": "bytes32"
        }
      ],
      "stateMutability": "view",
      "type": "function"
    },
    {
      "inputs": [],
      "name": "transactions",
      "outputs": [
        {
          "internalType": "address",
          "name": "",
          "type": "address"
        }
      ],
      "stateMutability": "view",
      "type": "function"
    },
    {
      "inputs": [
        {
          "internalType": "address",
          "name": "newOwner",
          "type": "address"
        }
      ],
      "name": "transferOwnership",
      "outputs": [],
      "stateMutability": "nonpayable",
      "type": "function"
    }
  ],
  "bytecode": "0x60808060405234601557612b3a908161001b8239f35b600080fdfe608080604052600436101561001357600080fd5b60003560e01c90816301ffc9a714611d06575080630f36527a14611cd05780630f6153d4146104545780630fd0671014611c625780631646564514611b845780631801519114611c395780631a0f2b1814611c0157806321495aa714611bd8578063248a9ca314611bba5780632a69ae7d14610da95780632f2ff15d14611b895780633169e04314611b8457806336568abe14611b3e57806336dc908c14611b015780633f008c4514611ac45780634154427714611a9b578063465551a814611a785780635bb8433514611a2c5780635eb3166c146119385780636262ae6b146118f35780636e7b3a40146118d55780636e9f3238146118b25780636f32911414610da45780636fa7e4f1146118675780637128928d14611572578063715018a6146114f15780637257053714610626578063769ad35a1461100157806376d3a64614610fc457806377b3d29314610ef557806379ba509714610ea55780637f3a13d214610e795780637f42382c14610e3f5780638226c51214610df1578063830cf2a314610da9578063891ed77d14610da45780638da5cb5b14610d6e578063910048fb14610d3157806391d1485414610cd75780639c88381914610b25578063a0d6c20214610ae8578063a217fddf14610acc578063a3638a8e14610a81578063a9f7e17e14610a29578063b1d9fb63146109de578063be9e9d8a14610995578063c0c53b8b14610797578063c21309951461074c578063c404723314610711578063c7493fd61461069f578063cae51cd21461067c578063d547741f14610644578063d833280014610626578063dcf2cf2f146105da578063e224c20a1461048f578063e30c397814610459578063eaeea73114610454578063eecab57b14610429578063efb5f185146103ee578063f1cdbf7614610394578063f2fde38b1461030d5763f680d34a146102c957600080fd5b34610308576020366003190112610308576004356000526007602052604080600020600160ff82541691015461030183518093611e0b565b6020820152f35b600080fd5b3461030857602036600319011261030857610326611d8d565b61032e612894565b600080516020612ae583398151915280546001600160a01b0319166001600160a01b03928316908117909155600080516020612a45833981519152549091167f38d16b8cac22d99fc7c124b9cd0de2d3fa1faef420bfe791d8c362d765e22700600080a3005b346103085760403660031901126103085760206103e46103b2611d8d565b6001600160a01b0381166000908152600684526040808220602435808452600f82018752919092205460ff1692612923565b6040519015158152f35b346103085760203660031901126103085760043561040a612894565b801561041557600855005b6362ec1e6f60e11b60005260045260246000fd5b3461030857602036600319011261030857602061044c610447611d8d565b6124a1565b604051908152f35b611dcf565b3461030857600036600319011261030857600080516020612ae5833981519152546040516001600160a01b039091168152602090f35b34610308576040366003190112610308576104a8611d8d565b60243560018060a01b0360005416331415806105c5575b6105b45760009060018060a01b038316806000526006602052816104ff60406000209582600052600f87016020528660ff60406000205416958692612923565b610511575b6020846040519015158152f35b6000828152600660208181526040808420600c81018054968652600e90910183529084208590559490925290529192509061054b9061206d565b9055600481101561059e576002810361057b575060040161056c815461206d565b90555b60206001828080610504565b600314610589575b5061056f565b600801610596815461206d565b905580610583565b634e487b7160e01b600052602160045260246000fd5b63e6533a2760e01b60005260046000fd5b506002546001600160a01b03163314156104bf565b34610308576020366003190112610308576001600160a01b036105fb611d8d565b16600090815260066020908152604080832060088101548452600a0182529182902054915191825290f35b34610308576000366003190112610308576020600354604051908152f35b346103085760403660031901126103085761067a600435610663611da3565b9061067561067082612220565b612601565b6126ed565b005b3461030857602036600319011261030857602061044c61069a611d8d565b61244f565b34610308576060366003190112610308576106b8611d8d565b6106c0611da3565b6106c8611db9565b916106d1612894565b600080546001600160a01b03199081166001600160a01b039384161790915560018054821693831693909317909255600280549092169216919091179055005b346103085760203660031901126103085733600052600660205260036040600020016004356000526020526020604060002054604051908152f35b34610308576040366003190112610308576001600160a01b0361076d611d8d565b166000526006602052600a6040600020016024356000526020526020604060002054604051908152f35b34610308576060366003190112610308576107b0611d8d565b6107b8611da3565b6107c0611db9565b90600080516020612ac5833981519152549260ff8460401c1615936001600160401b0381168015908161098d575b6001149081610983575b15908161097a575b506109695767ffffffffffffffff198116600117600080516020612ac5833981519152558461093c575b50610833612a16565b61083b612a16565b33156109265761084a336128b5565b610852612a16565b61085a612a16565b610862612a16565b60017f9b779b17422d0df92223018b32b4d1fa46e071723d6817e2486d003becc55f005561088e612a16565b600080546001600160a01b03199081166001600160a01b0393841617909155600180548216938316939093179092556002805490921692169190911790556108d257005b60ff60401b19600080516020612ac58339815191525416600080516020612ac5833981519152557fc7f505b2f371ae2175ee4913f4499e1f2633a7b5936321eed1cdaeb6115181d2602060405160018152a1005b631e4fbdf760e01b600052600060045260246000fd5b68ffffffffffffffffff19166801000000000000000117600080516020612ac5833981519152558461082a565b63f92ee8a960e01b60005260046000fd5b90501586610800565b303b1591506107f8565b8691506107ee565b34610308576020366003190112610308576001600160a01b036109b6611d8d565b1660009081526006602090815260408083208054845260020182529182902054915191825290f35b34610308576040366003190112610308576001600160a01b036109ff611d8d565b16600052600660205260066040600020016024356000526020526020604060002054604051908152f35b34610308576020366003190112610308576001600160a01b03610a4a611d8d565b168060005260046020526040600020906000526006602052600c604060002001546000526020526020604060002054604051908152f35b34610308576040366003190112610308576001600160a01b03610aa2611d8d565b16600052600660205260026040600020016024356000526020526020604060002054604051908152f35b3461030857600036600319011261030857602060405160008152f35b34610308576020366003190112610308576001600160a01b03610b09611d8d565b1660005260066020526020600860406000200154604051908152f35b3461030857604036600319011261030857610b3e611d8d565b6024359060018060a01b036000541633141580610cc2575b6105b45760018060a01b0381169182600052600660205260406000209160038301908260005281602052604060002054918454809303610cb157610bd0926000526002850160205260006040812055836000526020526000604081205582600052600f8401602052604060002060ff19815416905561250f565b918215610c8e57610be1815461206d565b90556000838152600660205260409020600c810154600d9091015411610c6c575b610c0a611e54565b9260008452602084019342855282600052600760205260406000209051600481101561059e57602095610c3f6001928461207c565b51910155600080516020612a85833981519152604080516000815260001987820152a36040519015158152f35b826000526006602052600c604060002001610c87815461206d565b9055610c02565b50602092600080516020612a6583398151915284600854604051908152a36103e4565b63042202b560e11b60005260046000fd5b506002546001600160a01b0316331415610b56565b3461030857604036600319011261030857610cf0611da3565b600435600052600080516020612aa583398151915260205260406000209060018060a01b0316600052602052602060ff604060002054166040519015158152f35b3461030857604036600319011261030857610d56610d4d611d8d565b60243590612347565b604080519283529015156020830152819081015b0390f35b3461030857600036600319011261030857600080516020612a45833981519152546040516001600160a01b039091168152602090f35b611f03565b34610308576040366003190112610308576001600160a01b03610dca611d8d565b16600052600460205260406000206024356000526020526020604060002054604051908152f35b34610308576040366003190112610308576001600160a01b03610e12611d8d565b16600052600660205260206040600020602435600052600381018252604060002054905414604051908152f35b34610308576020366003190112610308576001600160a01b03610e60611d8d565b1660005260066020526020604060002054604051908152f35b346103085760203660031901126103085760043560005260056020526020604060002054604051908152f35b3461030857600036600319011261030857600080516020612ae583398151915254336001600160a01b0390911603610ee05761067a336128b5565b63118cdaa760e01b6000523360045260246000fd5b3461030857602036600319011261030857610f0e611d8d565b6000546001600160a01b03163303610fb35780610f2c60209261250f565b908115610f85576001600160a01b0316600081815260068452604090208054610f549061206d565b90557ff6cf428a8ff4fab8ed511a88a196d7a9150f0135f4f862549403b5da932f53a6600080a26040519015158152f35b6008546040519081526000916001600160a01b031690600080516020612a65833981519152908590a36103e4565b6370f64de560e01b60005260046000fd5b34610308576020366003190112610308576001600160a01b03610fe5611d8d565b1660005260066020526020600460406000200154604051908152f35b346103085760403660031901126103085761101a611d8d565b60243560018060a01b0360005416331415806114dc575b6105b45760009160609060018060a01b031690816000526006602052604060002092600f840194816000528560205260ff60406000205416600481101561059e5761116f5750610d6a929394816000526020526040600020600160ff1982541617905580600186019485549687600052600281016020528260406000205582600052600381016020528760406000205580548814966110d0815461206d565b9055816000526004602052600e604060002091600d8101928354600052602052846040600020558254926111038461206d565b90558460005201602052604060002055600080516020612a858339815191526040805160018152896020820152a360035461113d8161206d565b60035560005260056020526040600020555b604051938493151584526020840152606060408401526060830190611d59565b92949390600052600381016020526040600020549381548581101561119e575b505050610d6a9192935061114f565b909391949250600181018091116114c6576111c0836111c59296949396611fb7565b611f8f565b946007830192600b81019260028201906000815b845481116114ab5790818b9493926000528360205260406000205491821561149f576112108161120a85939161206d565b97611fc4565b52600082815260208b81526040808320548c835281842054928c9052922054909160ff16600481101561059e576002811480611492575b80611479575b156113675750506005870180548083106112cb575b50555b81600052896020526040600020600160ff19825416179055611285611e54565b600181526020810192428452600052600760205260406000209051600481101561059e576112c2936112b96001928461207c565b5191015561206d565b929091926111d9565b89835b82811061132057507ff668a508bad90edc0098a18d4e9b14bba3369fca2d9aabbae828a3860ade58a98261130486600295611fb7565b604080518881526020810193909352820152606090a38e611262565b60009182526006602081815260408085208f865281862085875290930180835281862080548752600790940183529085208590558385529052919091558a906001016112ce565b9091506003600091148061146c575b80611455575b611388575b5050611265565b60098801908154908184106113a2575b5050558c80611381565b8a90845b8381106113fa5750507ff668a508bad90edc0098a18d4e9b14bba3369fca2d9aabbae828a3860ade58a9826113dd86600395611fb7565b604080518881526020810193909352820152606090a38e80611398565b8192600192526006602052600b60408420018d84526006602052600a6040852001828552602052604084205484526020528260408120558c83526006602052600a604084200181845260205282604081205501908b916113a6565b50818152600a88016020528360408220541461137c565b5081600989015411611376565b508260005260068901602052846040600020541461124d565b508260058a015411611247565b94506112c2915061206d565b5050979450509050610d6a935085915055839291858061118f565b634e487b7160e01b600052601160045260246000fd5b506002546001600160a01b0316331415611031565b346103085760003660031901126103085761150a612894565b600080516020612ae583398151915280546001600160a01b0319908116909155600080516020612a45833981519152805491821690556000906001600160a01b03167f8be0079c531659141344cd1fd0a4f28419497f9722a3daafe3b4186f6b6457e08280a3005b346103085760603660031901126103085761158b611d8d565b60243590604435906000608061159f611e89565b6115a761231d565b81526115b161231d565b60208201526115be61231d565b6040820152826060820152015260018060a01b03166000526006602052604060002060018101549183831160001461185f5782811015611850576116028482611fb7565b600181018091116114c6575b905b60058301549185831115611849578282101561183a576116308683611fb7565b600181018091116114c6575b600985015492878411156118325787848210156118225761165c91611fb7565b600181018091116114c6575b61167183611f8f565b9061167b83611f8f565b9261168582611f8f565b94600289018b60005b8381106117f6575050505060008a60068a01915b8381106117ca57505050506000600a8801905b82811061179f576117688a8a8a61178e8b8b8b8b8654976116d4611ea8565b988952602089015260408801526004860154946116ef611ea8565b9586526020860152604085015260088501549161170a611ea8565b9283526020830152604082015261177b600d600c8601549501549361172d611e89565b96875260208701908152604087019283526060870195865260808701948552604051978897602089525160a060208a015260c0890190611f3f565b9051878203601f19016040890152611f3f565b9051858203601f19016060870152611f3f565b915160808401525160a08301520390f35b806117ac6001928d61233a565b600052826020526040600020546117c38289611fc4565b52016116b5565b6117d68160019361233a565b600052826020526040600020546117ed8289611fc4565b52018b906116a2565b6118028160019361233a565b600052826020526040600020546118198289611fc4565b52018c9061168e565b61182d915084611fb7565b611668565b506000611668565b6118448684611fb7565b61163c565b600061163c565b61185a8484611fb7565b61160e565b600090611610565b34610308576020366003190112610308576001600160a01b03611888611d8d565b16600090815260066020818152604080842060048101548552909201815291819020549051908152f35b3461030857602036600319011261030857602061044c6118d0611d8d565b6122af565b34610308576000366003190112610308576020600854604051908152f35b3461030857602036600319011261030857336000526006602052600f604060002001600435600052602052602060ff604060002054166119366040518092611e0b565bf35b3461030857604036600319011261030857611951611d8d565b6024356001600160401b03811161030857366023820112156103085780600401359061198461197f83611eec565b611ec7565b916024602084838152019160051b8301019136831161030857602401905b828210611a1c5750506001546001600160a01b031633039050611a0b5760005b8151811015611a0057806119d860019284611fc4565b51156119fb576119f26119eb8285611fc4565b518561278d565b50505b016119c2565b6119f5565b602060405160018152f35b635410c05f60e11b60005260046000fd5b81358152602091820191016119a2565b3461030857602036600319011261030857602061044c6001600160a01b03611a52611d8d565b168060005260068352600160406000200154906000526006835260406000205490611fb7565b3461030857602036600319011261030857602061044c611a96611d8d565b612241565b34610308576000366003190112610308576000546040516001600160a01b039091168152602090f35b34610308576020366003190112610308576001600160a01b03611ae5611d8d565b1660005260066020526020600160406000200154604051908152f35b34610308576020366003190112610308576001600160a01b03611b22611d8d565b1660005260066020526020600d60406000200154604051908152f35b3461030857604036600319011261030857611b57611da3565b336001600160a01b03821603611b735761067a906004356126ed565b63334bd91960e11b60005260046000fd5b611e18565b346103085760403660031901126103085761067a600435611ba8611da3565b90611bb561067082612220565b61264b565b3461030857602036600319011261030857602061044c600435612220565b34610308576000366003190112610308576001546040516001600160a01b039091168152602090f35b3461030857604036600319011261030857611c1a611d8d565b6000546001600160a01b03163303610fb357610d569060243590612094565b34610308576000366003190112610308576002546040516001600160a01b039091168152602090f35b346103085760203660031901126103085760006020611c7f611e54565b828152015260043560005260076020526040600020611c9c611e54565b60ff825416600481101561059e576040926001918352015460208201908152611cc88351809351611e0b565b516020820152f35b3461030857604036600319011261030857610d6a611cf2602435600435611fee565b604051918291602083526020830190611d59565b34610308576020366003190112610308576004359063ffffffff60e01b821680920361030857602091637965db0b60e01b8114908115611d48575b5015158152f35b6301ffc9a760e01b14905083611d41565b906020808351928381520192019060005b818110611d775750505090565b8251845260209384019390920191600101611d6a565b600435906001600160a01b038216820361030857565b602435906001600160a01b038216820361030857565b604435906001600160a01b038216820361030857565b3461030857602036600319011261030857611de8611d8d565b60018060a01b031660005260066020526020600960406000200154604051908152f35b90600482101561059e5752565b3461030857602036600319011261030857611e31611d8d565b60018060a01b031660005260066020526020600c60406000200154604051908152f35b60405190604082018281106001600160401b03821117611e7357604052565b634e487b7160e01b600052604160045260246000fd5b6040519060a082018281106001600160401b03821117611e7357604052565b60405190606082018281106001600160401b03821117611e7357604052565b6040519190601f01601f191682016001600160401b03811183821017611e7357604052565b6001600160401b038111611e735760051b60200190565b3461030857602036600319011261030857611f1c611d8d565b60018060a01b031660005260066020526020600560406000200154604051908152f35b60206080604060608501938051865283810151848701520151936060604082015284518094520192019060005b818110611f795750505090565b8251845260209384019390920191600101611f6c565b90611f9c61197f83611eec565b8281528092611fad601f1991611eec565b0190602036910137565b919082039182116114c657565b8051821015611fd85760209160051b010190565b634e487b7160e01b600052603260045260246000fd5b90600354808310156120545780821161204c575b506120106111c08383611fb7565b91805b8281106120205750505090565b80600191600052600560205260406000205461204561203f8584611fb7565b87611fc4565b5201612013565b905038612002565b5050506120616020611ec7565b60008152600036813790565b60001981146114c65760010190565b90600481101561059e5760ff80198354169116179055565b9160009160018060a01b038416806000526006602052604060002094600f860190836000528160205260ff60406000205416600481101561059e5760021461220357836000528160205260ff60406000205416600481101561059e576001036121f65783600052600387016020526040600020548754036121f6576121189061250f565b9485156121d6575061212a865461206d565b8655826000526020526040600020600260ff1982541617905561214b611e54565b60028152602081014281528360005260076020526040600020915190600482101561059e5761217c6001928461207c565b519101556005850160078154968760005260068101602052846040600020558460005201602052856040600020556121b4815461206d565b9055600080516020612a858339815191526040805160028152876020820152a3565b955050600080516020612a658339815191526020600854604051908152a3565b5060009550859450505050565b505050600792506000939193520160205260406000205490600090565b600052600080516020612aa583398151915260205260016040600020015490565b6001600160a01b031660008181526006602052604090206009015490811561228f576000526006602052600a6040600020019060001981019081116114c65760005260205260406000205490565b6000526006602052600a6040600020019060005260205260406000205490565b6001600160a01b03166000818152600660205260409020600501549081156122fd57600052600660205260066040600020019060001981019081116114c65760005260205260406000205490565b600052600660205260066040600020019060005260205260406000205490565b612325611ea8565b90600082526000602083015260606040830152565b919082018092116114c657565b9060018060a01b03600054163314158061243a575b80612425575b6124145760018060a01b03821660005260066020526040600020600f8101826000528060205260ff60406000205416600481101561059e576003146123fb578260005260205260ff60406000205416600481101561059e576001036123f05781600052600381016020526040600020549054036123e6576123e29161278d565b9091565b5050600090600090565b505050600090600090565b5090600b92506000520160205260406000205490600090565b631e3f968f60e01b60005260046000fd5b506002546001600160a01b0316331415612362565b506001546001600160a01b031633141561235c565b6001600160a01b03166000818152600660205260409020600c015490811561249a57600052600460205260406000209060001981019081116114c65760005260205260406000205490565b5050600090565b6001600160a01b03166000818152600660205260409020600101549081156124ef57600052600660205260026040600020019060001981019081116114c65760005260205260406000205490565b600052600660205260026040600020019060005260205260406000205490565b60009160085480156000146125fb57506064915b6001600160a01b03166000818152600660209081526040808320805484526002019091528120549093919291905b80151590816125c8575b50806125bf575b156125af57826000526006602052604060002061257f815461206d565b9055600083815260066020908152604080832080548452600201909152902054936125a99061206d565b93612551565b915091106125b957565b60019150565b50808410612562565b9050836000526006602052600f6040600020019060005260205260ff60406000205416600481101561059e57153861255b565b91612523565b6000818152600080516020612aa58339815191526020908152604080832033845290915290205460ff16156126335750565b63e2517d3f60e01b6000523360045260245260446000fd5b6000818152600080516020612aa5833981519152602090815260408083206001600160a01b038616845290915290205460ff1661249a576000818152600080516020612aa5833981519152602090815260408083206001600160a01b0395909516808452949091528120805460ff19166001179055339291907f2f8788117e7eff1d82e926ec794901d17c78024a50270940304540a733656f0d9080a4600190565b6000818152600080516020612aa5833981519152602090815260408083206001600160a01b038616845290915290205460ff161561249a576000818152600080516020612aa5833981519152602090815260408083206001600160a01b0395909516808452949091528120805460ff19169055339291907ff6391f5c32d9c69d2a47ea670b442974b53935d1edc7fd64eb21e047a839171b9080a4600190565b6001600160a01b0381166000818152600660209081526040808320868452600f019091528120805460ff191660031790559293916127c9611e54565b9060038252602082019142835286600052600760205260406000209051600481101561059e57612808936127ff6001928461207c565b5191015561250f565b92831561287557508060005260066020526040600020612828815461206d565b90556000818152600660208181526040808420600981018054808752600a830185528387208b9055998652600b909101835290842088905593909252905280546128719061206d565b9055565b9390600080516020612a658339815191526020600854604051908152a3565b600080516020612a45833981519152546001600160a01b03163303610ee057565b600080516020612ae583398151915280546001600160a01b0319908116909155600080516020612a4583398151915280549182166001600160a01b0393841690811790915591167f8be0079c531659141344cd1fd0a4f28419497f9722a3daafe3b4186f6b6457e0600080a3565b926004811015908161059e5780158015612a08575b6129fe576000916129ea57600281036129c957505060048201548160005260078301602052604060002054145b156129c157600052600e8101602052600c604060002054910154149081612996575b5061299157600090565b600190565b6001600160a01b03166000908152600660205260409020600c810154600d9091015411905038612987565b505050600090565b600303612965576040600884015491838152600b8501602052205414612965565b634e487b7160e01b82526021600452602482fd5b5050505050600090565b506000915060018114612938565b60ff600080516020612ac58339815191525460401c1615612a3357565b631afcd79f60e31b60005260046000fdfe9016d09d72d40fdae2fd8ceac6b6234c7706214fd39c1cd1e609a0528c199300f5d63ae8520cf01bdaf195a4b38d13c6752858e8d4e3253e9331a613b30c6056ae79898352f9a690e2c3c045facb9493b7c3f2b7beb2888e794c6a30d1f4550502dd7bc7dec4dceedda775e58dd541e08a116c6c53815c0bd028192f7b626800f0c57e16840df040f15088dc2f81fe391c3923bec73e23a9662efc9c229c6a00237e158222e3e6968b72b9db0d8043aacf074ad9f650f0d1606b4d82ee432c00a2646970667358221220f6800327841c96d5966d3c9150fab7d75477a7c617d07bd51ed43391b3f0619c64736f6c634300081c0033",
  "linkReferences": {},
  "deployedLinkReferences": {}
}